{
  "_format": "hh-sol-artifact-1",
  "contractName": "SoulBoundToken",
  "sourceName": "contracts/SoulBoundToken.sol",
  "abi": [
    {
      "inputs": [],
      "stateMutability": "nonpayable",
      "type": "constructor"
    },
    {
      "anonymous": false,
      "inputs": [
        {
          "indexed": true,
          "internalType": "address",
          "name": "owner",
          "type": "address"
        },
        {
          "indexed": true,
          "internalType": "address",
          "name": "approved",
          "type": "address"
        },
        {
          "indexed": true,
          "internalType": "uint256",
          "name": "tokenId",
          "type": "uint256"
        }
      ],
      "name": "Approval",
      "type": "event"
    },
    {
      "anonymous": false,
      "inputs": [
        {
          "indexed": true,
          "internalType": "address",
          "name": "owner",
          "type": "address"
        },
        {
          "indexed": true,
          "internalType": "address",
          "name": "operator",
          "type": "address"
        },
        {
          "indexed": false,
          "internalType": "bool",
          "name": "approved",
          "type": "bool"
        }
      ],
      "name": "ApprovalForAll",
      "type": "event"
    },
    {
      "anonymous": false,
      "inputs": [
        {
          "indexed": true,
          "internalType": "address",
          "name": "previousOwner",
          "type": "address"
        },
        {
          "indexed": true,
          "internalType": "address",
          "name": "newOwner",
          "type": "address"
        }
      ],
      "name": "OwnershipTransferred",
      "type": "event"
    },
    {
      "anonymous": false,
      "inputs": [
        {
          "indexed": true,
          "internalType": "address",
          "name": "from",
          "type": "address"
        },
        {
          "indexed": true,
          "internalType": "address",
          "name": "to",
          "type": "address"
        },
        {
          "indexed": true,
          "internalType": "uint256",
          "name": "tokenId",
          "type": "uint256"
        }
      ],
      "name": "Transfer",
      "type": "event"
    },
    {
      "inputs": [
        {
          "internalType": "uint256",
          "name": "id",
          "type": "uint256"
        }
      ],
      "name": "accessTier",
      "outputs": [
        {
          "internalType": "uint8",
          "name": "",
          "type": "uint8"
        }
      ],
      "stateMutability": "view",
      "type": "function"
    },
    {
      "inputs": [
        {
          "internalType": "address",
          "name": "owner",
          "type": "address"
        }
      ],
      "name": "accessTier",
      "outputs": [
        {
          "internalType": "uint8",
          "name": "",
          "type": "uint8"
        }
      ],
      "stateMutability": "view",
      "type": "function"
    },
    {
      "inputs": [
        {
          "internalType": "uint256",
          "name": "id",
          "type": "uint256"
        }
      ],
      "name": "activate",
      "outputs": [],
      "stateMutability": "nonpayable",
      "type": "function"
    },
    {
      "inputs": [
        {
          "internalType": "address",
          "name": "to",
          "type": "address"
        },
        {
          "internalType": "uint256",
          "name": "tokenId",
          "type": "uint256"
        }
      ],
      "name": "approve",
      "outputs": [],
      "stateMutability": "nonpayable",
      "type": "function"
    },
    {
      "inputs": [
        {
          "internalType": "address",
          "name": "owner",
          "type": "address"
        }
      ],
      "name": "balanceOf",
      "outputs": [
        {
          "internalType": "uint256",
          "name": "",
          "type": "uint256"
        }
      ],
      "stateMutability": "view",
      "type": "function"
    },
    {
      "inputs": [],
      "name": "dbAdmin",
      "outputs": [
        {
          "internalType": "address",
          "name": "",
          "type": "address"
        }
      ],
      "stateMutability": "view",
      "type": "function"
    },
    {
      "inputs": [
        {
          "internalType": "uint256",
          "name": "id",
          "type": "uint256"
        }
      ],
      "name": "deactivate",
      "outputs": [],
      "stateMutability": "nonpayable",
      "type": "function"
    },
    {
      "inputs": [
        {
          "internalType": "uint256",
          "name": "tokenId",
          "type": "uint256"
        }
      ],
      "name": "getApproved",
      "outputs": [
        {
          "internalType": "address",
          "name": "",
          "type": "address"
        }
      ],
      "stateMutability": "view",
      "type": "function"
    },
    {
      "inputs": [
        {
          "internalType": "address",
          "name": "owner",
          "type": "address"
        }
      ],
      "name": "hasActiveSBT",
      "outputs": [
        {
          "internalType": "bool",
          "name": "",
          "type": "bool"
        }
      ],
      "stateMutability": "view",
      "type": "function"
    },
    {
      "inputs": [
        {
          "internalType": "address",
          "name": "owner",
          "type": "address"
        }
      ],
      "name": "hasSBT",
      "outputs": [
        {
          "internalType": "bool",
          "name": "",
          "type": "bool"
        }
      ],
      "stateMutability": "view",
      "type": "function"
    },
    {
      "inputs": [
        {
          "internalType": "uint256",
          "name": "id",
          "type": "uint256"
        }
      ],
      "name": "hashedIdentity",
      "outputs": [
        {
          "internalType": "bytes32",
          "name": "",
          "type": "bytes32"
        }
      ],
      "stateMutability": "view",
      "type": "function"
    },
    {
      "inputs": [
        {
          "internalType": "uint256",
          "name": "id",
          "type": "uint256"
        }
      ],
      "name": "isActive",
      "outputs": [
        {
          "internalType": "bool",
          "name": "",
          "type": "bool"
        }
      ],
      "stateMutability": "view",
      "type": "function"
    },
    {
      "inputs": [
        {
          "internalType": "address",
          "name": "owner",
          "type": "address"
        },
        {
          "internalType": "address",
          "name": "operator",
          "type": "address"
        }
      ],
      "name": "isApprovedForAll",
      "outputs": [
        {
          "internalType": "bool",
          "name": "",
          "type": "bool"
        }
      ],
      "stateMutability": "view",
      "type": "function"
    },
    {
      "inputs": [
        {
          "internalType": "uint256",
          "name": "id",
          "type": "uint256"
        },
        {
          "internalType": "uint8",
          "name": "tier",
          "type": "uint8"
        }
      ],
      "name": "modifyTier",
      "outputs": [],
      "stateMutability": "nonpayable",
      "type": "function"
    },
    {
      "inputs": [],
      "name": "name",
      "outputs": [
        {
          "internalType": "string",
          "name": "",
          "type": "string"
        }
      ],
      "stateMutability": "view",
      "type": "function"
    },
    {
      "inputs": [],
      "name": "owner",
      "outputs": [
        {
          "internalType": "address",
          "name": "",
          "type": "address"
        }
      ],
      "stateMutability": "view",
      "type": "function"
    },
    {
      "inputs": [
        {
          "internalType": "uint256",
          "name": "tokenId",
          "type": "uint256"
        }
      ],
      "name": "ownerOf",
      "outputs": [
        {
          "internalType": "address",
          "name": "",
          "type": "address"
        }
      ],
      "stateMutability": "view",
      "type": "function"
    },
    {
      "inputs": [
        {
          "internalType": "address",
          "name": "owner",
          "type": "address"
        }
      ],
      "name": "ownerToTokenId",
      "outputs": [
        {
          "internalType": "uint256",
          "name": "",
          "type": "uint256"
        }
      ],
      "stateMutability": "view",
      "type": "function"
    },
    {
      "inputs": [
        {
          "internalType": "address",
          "name": "addr",
          "type": "address"
        }
      ],
      "name": "registerDbAdmin",
      "outputs": [],
      "stateMutability": "nonpayable",
      "type": "function"
    },
    {
      "inputs": [],
      "name": "renounceOwnership",
      "outputs": [],
      "stateMutability": "nonpayable",
      "type": "function"
    },
    {
      "inputs": [
        {
          "internalType": "address",
          "name": "to",
          "type": "address"
        },
        {
          "internalType": "uint8",
          "name": "tier",
          "type": "uint8"
        },
        {
          "internalType": "bytes32",
          "name": "hashed",
          "type": "bytes32"
        }
      ],
      "name": "safeMint",
      "outputs": [
        {
          "internalType": "uint256",
          "name": "tokenId",
          "type": "uint256"
        }
      ],
      "stateMutability": "nonpayable",
      "type": "function"
    },
    {
      "inputs": [
        {
          "internalType": "address",
          "name": "from",
          "type": "address"
        },
        {
          "internalType": "address",
          "name": "to",
          "type": "address"
        },
        {
          "internalType": "uint256",
          "name": "tokenId",
          "type": "uint256"
        }
      ],
      "name": "safeTransferFrom",
      "outputs": [],
      "stateMutability": "nonpayable",
      "type": "function"
    },
    {
      "inputs": [
        {
          "internalType": "address",
          "name": "from",
          "type": "address"
        },
        {
          "internalType": "address",
          "name": "to",
          "type": "address"
        },
        {
          "internalType": "uint256",
          "name": "tokenId",
          "type": "uint256"
        },
        {
          "internalType": "bytes",
          "name": "data",
          "type": "bytes"
        }
      ],
      "name": "safeTransferFrom",
      "outputs": [],
      "stateMutability": "nonpayable",
      "type": "function"
    },
    {
      "inputs": [
        {
          "internalType": "address",
          "name": "operator",
          "type": "address"
        },
        {
          "internalType": "bool",
          "name": "approved",
          "type": "bool"
        }
      ],
      "name": "setApprovalForAll",
      "outputs": [],
      "stateMutability": "nonpayable",
      "type": "function"
    },
    {
      "inputs": [
        {
          "internalType": "bytes4",
          "name": "interfaceId",
          "type": "bytes4"
        }
      ],
      "name": "supportsInterface",
      "outputs": [
        {
          "internalType": "bool",
          "name": "",
          "type": "bool"
        }
      ],
      "stateMutability": "view",
      "type": "function"
    },
    {
      "inputs": [],
      "name": "symbol",
      "outputs": [
        {
          "internalType": "string",
          "name": "",
          "type": "string"
        }
      ],
      "stateMutability": "view",
      "type": "function"
    },
    {
      "inputs": [
        {
          "internalType": "uint256",
          "name": "tokenId",
          "type": "uint256"
        }
      ],
      "name": "tokenURI",
      "outputs": [
        {
          "internalType": "string",
          "name": "",
          "type": "string"
        }
      ],
      "stateMutability": "view",
      "type": "function"
    },
    {
      "inputs": [
        {
          "internalType": "address",
          "name": "from",
          "type": "address"
        },
        {
          "internalType": "address",
          "name": "to",
          "type": "address"
        },
        {
          "internalType": "uint256",
          "name": "tokenId",
          "type": "uint256"
        }
      ],
      "name": "transferFrom",
      "outputs": [],
      "stateMutability": "nonpayable",
      "type": "function"
    },
    {
      "inputs": [
        {
          "internalType": "address",
          "name": "newOwner",
          "type": "address"
        }
      ],
      "name": "transferOwnership",
      "outputs": [],
      "stateMutability": "nonpayable",
      "type": "function"
    }
  ],
  "bytecode": "0x60806040523480156200001157600080fd5b506040518060400160405280600e81526020017f536f756c426f756e64546f6b656e0000000000000000000000000000000000008152506040518060400160405280600381526020017f534254000000000000000000000000000000000000000000000000000000000081525081600090816200008f91906200043f565b508060019081620000a191906200043f565b505050620000c4620000b8620000e160201b60201c565b620000e960201b60201c565b620000db6007620001af60201b6200129f1760201c565b62000526565b600033905090565b6000600660009054906101000a900473ffffffffffffffffffffffffffffffffffffffff16905081600660006101000a81548173ffffffffffffffffffffffffffffffffffffffff021916908373ffffffffffffffffffffffffffffffffffffffff1602179055508173ffffffffffffffffffffffffffffffffffffffff168173ffffffffffffffffffffffffffffffffffffffff167f8be0079c531659141344cd1fd0a4f28419497f9722a3daafe3b4186f6b6457e060405160405180910390a35050565b6001816000016000828254019250508190555050565b600081519050919050565b7f4e487b7100000000000000000000000000000000000000000000000000000000600052604160045260246000fd5b7f4e487b7100000000000000000000000000000000000000000000000000000000600052602260045260246000fd5b600060028204905060018216806200024757607f821691505b6020821081036200025d576200025c620001ff565b5b50919050565b60008190508160005260206000209050919050565b60006020601f8301049050919050565b600082821b905092915050565b600060088302620002c77fffffffffffffffffffffffffffffffffffffffffffffffffffffffffffffffff8262000288565b620002d3868362000288565b95508019841693508086168417925050509392505050565b6000819050919050565b6000819050919050565b6000620003206200031a6200031484620002eb565b620002f5565b620002eb565b9050919050565b6000819050919050565b6200033c83620002ff565b620003546200034b8262000327565b84845462000295565b825550505050565b600090565b6200036b6200035c565b6200037881848462000331565b505050565b5b81811015620003a0576200039460008262000361565b6001810190506200037e565b5050565b601f821115620003ef57620003b98162000263565b620003c48462000278565b81016020851015620003d4578190505b620003ec620003e38562000278565b8301826200037d565b50505b505050565b600082821c905092915050565b60006200041460001984600802620003f4565b1980831691505092915050565b60006200042f838362000401565b9150826002028217905092915050565b6200044a82620001c5565b67ffffffffffffffff811115620004665762000465620001d0565b5b6200047282546200022e565b6200047f828285620003a4565b600060209050601f831160018114620004b75760008415620004a2578287015190505b620004ae858262000421565b8655506200051e565b601f198416620004c78662000263565b60005b82811015620004f157848901518255600182019150602085019450602081019050620004ca565b868310156200051157848901516200050d601f89168262000401565b8355505b6001600288020188555050505b505050505050565b61331780620005366000396000f3fe608060405234801561001057600080fd5b50600436106101cf5760003560e01c8063715018a611610104578063b7caec87116100a2578063d402f43711610071578063d402f43714610588578063e985e9c5146105a6578063efb47777146105d6578063f2fde38b146105f2576101cf565b8063b7caec87146104dc578063b88d4fde1461050c578063c12290d214610528578063c87b56dd14610558576101cf565b8063916b9bef116100de578063916b9bef1461046a57806395d89b4114610486578063a22cb465146104a4578063b260c42a146104c0576101cf565b8063715018a61461041257806382afd23b1461041c5780638da5cb5b1461044c576101cf565b806337b05d8d116101715780634814f0351161014b5780634814f0351461035257806356a9c454146103825780636352211e146103b257806370a08231146103e2576101cf565b806337b05d8d146102ea57806339f920ab1461030657806342842e0e14610336576101cf565b8063095ea7b3116101ad578063095ea7b31461025257806323b872dd1461026e5780633355594a1461028a57806334566cdf146102ba576101cf565b806301ffc9a7146101d457806306fdde0314610204578063081812fc14610222575b600080fd5b6101ee60048036038101906101e991906122e7565b61060e565b6040516101fb919061232f565b60405180910390f35b61020c6106f0565b60405161021991906123da565b60405180910390f35b61023c60048036038101906102379190612432565b610782565b60405161024991906124a0565b60405180910390f35b61026c600480360381019061026791906124e7565b6107c8565b005b61028860048036038101906102839190612527565b6108df565b005b6102a4600480360381019061029f9190612432565b61093f565b6040516102b19190612593565b60405180910390f35b6102d460048036038101906102cf9190612432565b61095c565b6040516102e191906125ca565b60405180910390f35b61030460048036038101906102ff9190612611565b610986565b005b610320600480360381019061031b9190612651565b610a46565b60405161032d919061232f565b60405180910390f35b610350600480360381019061034b9190612527565b610a78565b005b61036c60048036038101906103679190612651565b610a98565b604051610379919061268d565b60405180910390f35b61039c60048036038101906103979190612651565b610ae1565b6040516103a9919061232f565b60405180910390f35b6103cc60048036038101906103c79190612432565b610af6565b6040516103d991906124a0565b60405180910390f35b6103fc60048036038101906103f79190612651565b610b7c565b604051610409919061268d565b60405180910390f35b61041a610c33565b005b61043660048036038101906104319190612432565b610c47565b604051610443919061232f565b60405180910390f35b610454610c71565b60405161046191906124a0565b60405180910390f35b610484600480360381019061047f9190612432565b610c9b565b005b61048e610d5a565b60405161049b91906123da565b60405180910390f35b6104be60048036038101906104b991906126d4565b610dec565b005b6104da60048036038101906104d59190612432565b610e02565b005b6104f660048036038101906104f19190612651565b610ec1565b60405161050391906125ca565b60405180910390f35b61052660048036038101906105219190612849565b610edb565b005b610542600480360381019061053d91906128f8565b610f3d565b60405161054f919061268d565b60405180910390f35b610572600480360381019061056d9190612432565b6110aa565b60405161057f91906123da565b60405180910390f35b610590611112565b60405161059d91906124a0565b60405180910390f35b6105c060048036038101906105bb919061294b565b61113c565b6040516105cd919061232f565b60405180910390f35b6105f060048036038101906105eb9190612651565b6111d0565b005b61060c60048036038101906106079190612651565b61121c565b005b60007f80ac58cd000000000000000000000000000000000000000000000000000000007bffffffffffffffffffffffffffffffffffffffffffffffffffffffff1916827bffffffffffffffffffffffffffffffffffffffffffffffffffffffff191614806106d957507f5b5e139f000000000000000000000000000000000000000000000000000000007bffffffffffffffffffffffffffffffffffffffffffffffffffffffff1916827bffffffffffffffffffffffffffffffffffffffffffffffffffffffff1916145b806106e957506106e8826112b5565b5b9050919050565b6060600080546106ff906129ba565b80601f016020809104026020016040519081016040528092919081815260200182805461072b906129ba565b80156107785780601f1061074d57610100808354040283529160200191610778565b820191906000526020600020905b81548152906001019060200180831161075b57829003601f168201915b5050505050905090565b600061078d8261131f565b6004600083815260200190815260200160002060009054906101000a900473ffffffffffffffffffffffffffffffffffffffff169050919050565b60006107d382610af6565b90508073ffffffffffffffffffffffffffffffffffffffff168373ffffffffffffffffffffffffffffffffffffffff1603610843576040517f08c379a000000000000000000000000000000000000000000000000000000000815260040161083a90612a5d565b60405180910390fd5b8073ffffffffffffffffffffffffffffffffffffffff1661086261136a565b73ffffffffffffffffffffffffffffffffffffffff16148061089157506108908161088b61136a565b61113c565b5b6108d0576040517f08c379a00000000000000000000000000000000000000000000000000000000081526004016108c790612aef565b60405180910390fd5b6108da8383611372565b505050565b6108f06108ea61136a565b8261142b565b61092f576040517f08c379a000000000000000000000000000000000000000000000000000000000815260040161092690612b81565b60405180910390fd5b61093a8383836114c0565b505050565b6000600b6000838152602001908152602001600020549050919050565b60006009600083815260200190815260200160002060009054906101000a900460ff169050919050565b600860009054906101000a900473ffffffffffffffffffffffffffffffffffffffff1673ffffffffffffffffffffffffffffffffffffffff163373ffffffffffffffffffffffffffffffffffffffff1614610a16576040517f08c379a0000000000000000000000000000000000000000000000000000000008152600401610a0d90612bed565b60405180910390fd5b806009600084815260200190815260200160002060006101000a81548160ff021916908360ff1602179055505050565b6000600a6000610a5584610a98565b815260200190815260200160002060009054906101000a900460ff169050919050565b610a9383838360405180602001604052806000815250610edb565b505050565b6000600c60008373ffffffffffffffffffffffffffffffffffffffff1673ffffffffffffffffffffffffffffffffffffffff168152602001908152602001600020549050919050565b600080610aed83610a98565b14159050919050565b600080610b02836117b9565b9050600073ffffffffffffffffffffffffffffffffffffffff168173ffffffffffffffffffffffffffffffffffffffff1603610b73576040517f08c379a0000000000000000000000000000000000000000000000000000000008152600401610b6a90612c59565b60405180910390fd5b80915050919050565b60008073ffffffffffffffffffffffffffffffffffffffff168273ffffffffffffffffffffffffffffffffffffffff1603610bec576040517f08c379a0000000000000000000000000000000000000000000000000000000008152600401610be390612ceb565b60405180910390fd5b600360008373ffffffffffffffffffffffffffffffffffffffff1673ffffffffffffffffffffffffffffffffffffffff168152602001908152602001600020549050919050565b610c3b6117f6565b610c456000611874565b565b6000600a600083815260200190815260200160002060009054906101000a900460ff169050919050565b6000600660009054906101000a900473ffffffffffffffffffffffffffffffffffffffff16905090565b600860009054906101000a900473ffffffffffffffffffffffffffffffffffffffff1673ffffffffffffffffffffffffffffffffffffffff163373ffffffffffffffffffffffffffffffffffffffff1614610d2b576040517f08c379a0000000000000000000000000000000000000000000000000000000008152600401610d2290612bed565b60405180910390fd5b6000600a600083815260200190815260200160002060006101000a81548160ff02191690831515021790555050565b606060018054610d69906129ba565b80601f0160208091040260200160405190810160405280929190818152602001828054610d95906129ba565b8015610de25780601f10610db757610100808354040283529160200191610de2565b820191906000526020600020905b815481529060010190602001808311610dc557829003601f168201915b5050505050905090565b610dfe610df761136a565b838361193a565b5050565b600860009054906101000a900473ffffffffffffffffffffffffffffffffffffffff1673ffffffffffffffffffffffffffffffffffffffff163373ffffffffffffffffffffffffffffffffffffffff1614610e92576040517f08c379a0000000000000000000000000000000000000000000000000000000008152600401610e8990612bed565b60405180910390fd5b6001600a600083815260200190815260200160002060006101000a81548160ff02191690831515021790555050565b6000610ed4610ecf83610a98565b61095c565b9050919050565b610eec610ee661136a565b8361142b565b610f2b576040517f08c379a0000000000000000000000000000000000000000000000000000000008152600401610f2290612b81565b60405180910390fd5b610f3784848484611aa6565b50505050565b6000600860009054906101000a900473ffffffffffffffffffffffffffffffffffffffff1673ffffffffffffffffffffffffffffffffffffffff163373ffffffffffffffffffffffffffffffffffffffff1614610fcf576040517f08c379a0000000000000000000000000000000000000000000000000000000008152600401610fc690612bed565b60405180910390fd5b610fd96007611b02565b9050610fe5600761129f565b6001600a600083815260200190815260200160002060006101000a81548160ff021916908315150217905550826009600083815260200190815260200160002060006101000a81548160ff021916908360ff16021790555081600b60008381526020019081526020016000208190555080600c60008673ffffffffffffffffffffffffffffffffffffffff1673ffffffffffffffffffffffffffffffffffffffff168152602001908152602001600020819055506110a38482611b10565b9392505050565b60606110b58261131f565b60006110bf611b2e565b905060008151116110df576040518060200160405280600081525061110a565b806110e984611b45565b6040516020016110fa929190612d47565b6040516020818303038152906040525b915050919050565b6000600860009054906101000a900473ffffffffffffffffffffffffffffffffffffffff16905090565b6000600560008473ffffffffffffffffffffffffffffffffffffffff1673ffffffffffffffffffffffffffffffffffffffff16815260200190815260200160002060008373ffffffffffffffffffffffffffffffffffffffff1673ffffffffffffffffffffffffffffffffffffffff16815260200190815260200160002060009054906101000a900460ff16905092915050565b6111d86117f6565b80600860006101000a81548173ffffffffffffffffffffffffffffffffffffffff021916908373ffffffffffffffffffffffffffffffffffffffff16021790555050565b6112246117f6565b600073ffffffffffffffffffffffffffffffffffffffff168173ffffffffffffffffffffffffffffffffffffffff1603611293576040517f08c379a000000000000000000000000000000000000000000000000000000000815260040161128a90612ddd565b60405180910390fd5b61129c81611874565b50565b6001816000016000828254019250508190555050565b60007f01ffc9a7000000000000000000000000000000000000000000000000000000007bffffffffffffffffffffffffffffffffffffffffffffffffffffffff1916827bffffffffffffffffffffffffffffffffffffffffffffffffffffffff1916149050919050565b61132881611c13565b611367576040517f08c379a000000000000000000000000000000000000000000000000000000000815260040161135e90612c59565b60405180910390fd5b50565b600033905090565b816004600083815260200190815260200160002060006101000a81548173ffffffffffffffffffffffffffffffffffffffff021916908373ffffffffffffffffffffffffffffffffffffffff160217905550808273ffffffffffffffffffffffffffffffffffffffff166113e583610af6565b73ffffffffffffffffffffffffffffffffffffffff167f8c5be1e5ebec7d5bd14f71427d1e84f3dd0314c0f7b2291e5b200ac8c7c3b92560405160405180910390a45050565b60008061143783610af6565b90508073ffffffffffffffffffffffffffffffffffffffff168473ffffffffffffffffffffffffffffffffffffffff1614806114795750611478818561113c565b5b806114b757508373ffffffffffffffffffffffffffffffffffffffff1661149f84610782565b73ffffffffffffffffffffffffffffffffffffffff16145b91505092915050565b8273ffffffffffffffffffffffffffffffffffffffff166114e082610af6565b73ffffffffffffffffffffffffffffffffffffffff1614611536576040517f08c379a000000000000000000000000000000000000000000000000000000000815260040161152d90612e6f565b60405180910390fd5b600073ffffffffffffffffffffffffffffffffffffffff168273ffffffffffffffffffffffffffffffffffffffff16036115a5576040517f08c379a000000000000000000000000000000000000000000000000000000000815260040161159c90612f01565b60405180910390fd5b6115b28383836001611c54565b8273ffffffffffffffffffffffffffffffffffffffff166115d282610af6565b73ffffffffffffffffffffffffffffffffffffffff1614611628576040517f08c379a000000000000000000000000000000000000000000000000000000000815260040161161f90612e6f565b60405180910390fd5b6004600082815260200190815260200160002060006101000a81549073ffffffffffffffffffffffffffffffffffffffff02191690556001600360008573ffffffffffffffffffffffffffffffffffffffff1673ffffffffffffffffffffffffffffffffffffffff168152602001908152602001600020600082825403925050819055506001600360008473ffffffffffffffffffffffffffffffffffffffff1673ffffffffffffffffffffffffffffffffffffffff16815260200190815260200160002060008282540192505081905550816002600083815260200190815260200160002060006101000a81548173ffffffffffffffffffffffffffffffffffffffff021916908373ffffffffffffffffffffffffffffffffffffffff160217905550808273ffffffffffffffffffffffffffffffffffffffff168473ffffffffffffffffffffffffffffffffffffffff167fddf252ad1be2c89b69c2b068fc378daa952ba7f163c4a11628f55a4df523b3ef60405160405180910390a46117b48383836001611d00565b505050565b60006002600083815260200190815260200160002060009054906101000a900473ffffffffffffffffffffffffffffffffffffffff169050919050565b6117fe61136a565b73ffffffffffffffffffffffffffffffffffffffff1661181c610c71565b73ffffffffffffffffffffffffffffffffffffffff1614611872576040517f08c379a000000000000000000000000000000000000000000000000000000000815260040161186990612f6d565b60405180910390fd5b565b6000600660009054906101000a900473ffffffffffffffffffffffffffffffffffffffff16905081600660006101000a81548173ffffffffffffffffffffffffffffffffffffffff021916908373ffffffffffffffffffffffffffffffffffffffff1602179055508173ffffffffffffffffffffffffffffffffffffffff168173ffffffffffffffffffffffffffffffffffffffff167f8be0079c531659141344cd1fd0a4f28419497f9722a3daafe3b4186f6b6457e060405160405180910390a35050565b8173ffffffffffffffffffffffffffffffffffffffff168373ffffffffffffffffffffffffffffffffffffffff16036119a8576040517f08c379a000000000000000000000000000000000000000000000000000000000815260040161199f90612fd9565b60405180910390fd5b80600560008573ffffffffffffffffffffffffffffffffffffffff1673ffffffffffffffffffffffffffffffffffffffff16815260200190815260200160002060008473ffffffffffffffffffffffffffffffffffffffff1673ffffffffffffffffffffffffffffffffffffffff16815260200190815260200160002060006101000a81548160ff0219169083151502179055508173ffffffffffffffffffffffffffffffffffffffff168373ffffffffffffffffffffffffffffffffffffffff167f17307eab39ab6107e8899845ad3d59bd9653f200f220920489ca2b5937696c3183604051611a99919061232f565b60405180910390a3505050565b611ab18484846114c0565b611abd84848484611d06565b611afc576040517f08c379a0000000000000000000000000000000000000000000000000000000008152600401611af39061306b565b60405180910390fd5b50505050565b600081600001549050919050565b611b2a828260405180602001604052806000815250611e8d565b5050565b606060405180602001604052806000815250905090565b606060006001611b5484611ee8565b01905060008167ffffffffffffffff811115611b7357611b7261271e565b5b6040519080825280601f01601f191660200182016040528015611ba55781602001600182028036833780820191505090505b509050600082602001820190505b600115611c08578080600190039150507f3031323334353637383961626364656600000000000000000000000000000000600a86061a8153600a8581611bfc57611bfb61308b565b5b04945060008503611bb3575b819350505050919050565b60008073ffffffffffffffffffffffffffffffffffffffff16611c35836117b9565b73ffffffffffffffffffffffffffffffffffffffff1614159050919050565b600073ffffffffffffffffffffffffffffffffffffffff168473ffffffffffffffffffffffffffffffffffffffff161480611cbb5750600073ffffffffffffffffffffffffffffffffffffffff168373ffffffffffffffffffffffffffffffffffffffff16145b611cfa576040517f08c379a0000000000000000000000000000000000000000000000000000000008152600401611cf190613106565b60405180910390fd5b50505050565b50505050565b6000611d278473ffffffffffffffffffffffffffffffffffffffff1661203b565b15611e80578373ffffffffffffffffffffffffffffffffffffffff1663150b7a02611d5061136a565b8786866040518563ffffffff1660e01b8152600401611d72949392919061317b565b6020604051808303816000875af1925050508015611dae57506040513d601f19601f82011682018060405250810190611dab91906131dc565b60015b611e30573d8060008114611dde576040519150601f19603f3d011682016040523d82523d6000602084013e611de3565b606091505b506000815103611e28576040517f08c379a0000000000000000000000000000000000000000000000000000000008152600401611e1f9061306b565b60405180910390fd5b805181602001fd5b63150b7a0260e01b7bffffffffffffffffffffffffffffffffffffffffffffffffffffffff1916817bffffffffffffffffffffffffffffffffffffffffffffffffffffffff191614915050611e85565b600190505b949350505050565b611e97838361205e565b611ea46000848484611d06565b611ee3576040517f08c379a0000000000000000000000000000000000000000000000000000000008152600401611eda9061306b565b60405180910390fd5b505050565b600080600090507a184f03e93ff9f4daa797ed6e38ed64bf6a1f0100000000000000008310611f46577a184f03e93ff9f4daa797ed6e38ed64bf6a1f0100000000000000008381611f3c57611f3b61308b565b5b0492506040810190505b6d04ee2d6d415b85acef81000000008310611f83576d04ee2d6d415b85acef81000000008381611f7957611f7861308b565b5b0492506020810190505b662386f26fc100008310611fb257662386f26fc100008381611fa857611fa761308b565b5b0492506010810190505b6305f5e1008310611fdb576305f5e1008381611fd157611fd061308b565b5b0492506008810190505b6127108310612000576127108381611ff657611ff561308b565b5b0492506004810190505b6064831061202357606483816120195761201861308b565b5b0492506002810190505b600a8310612032576001810190505b80915050919050565b6000808273ffffffffffffffffffffffffffffffffffffffff163b119050919050565b600073ffffffffffffffffffffffffffffffffffffffff168273ffffffffffffffffffffffffffffffffffffffff16036120cd576040517f08c379a00000000000000000000000000000000000000000000000000000000081526004016120c490613255565b60405180910390fd5b6120d681611c13565b15612116576040517f08c379a000000000000000000000000000000000000000000000000000000000815260040161210d906132c1565b60405180910390fd5b612124600083836001611c54565b61212d81611c13565b1561216d576040517f08c379a0000000000000000000000000000000000000000000000000000000008152600401612164906132c1565b60405180910390fd5b6001600360008473ffffffffffffffffffffffffffffffffffffffff1673ffffffffffffffffffffffffffffffffffffffff16815260200190815260200160002060008282540192505081905550816002600083815260200190815260200160002060006101000a81548173ffffffffffffffffffffffffffffffffffffffff021916908373ffffffffffffffffffffffffffffffffffffffff160217905550808273ffffffffffffffffffffffffffffffffffffffff16600073ffffffffffffffffffffffffffffffffffffffff167fddf252ad1be2c89b69c2b068fc378daa952ba7f163c4a11628f55a4df523b3ef60405160405180910390a4612277600083836001611d00565b5050565b6000604051905090565b600080fd5b600080fd5b60007fffffffff0000000000000000000000000000000000000000000000000000000082169050919050565b6122c48161228f565b81146122cf57600080fd5b50565b6000813590506122e1816122bb565b92915050565b6000602082840312156122fd576122fc612285565b5b600061230b848285016122d2565b91505092915050565b60008115159050919050565b61232981612314565b82525050565b60006020820190506123446000830184612320565b92915050565b600081519050919050565b600082825260208201905092915050565b60005b83811015612384578082015181840152602081019050612369565b60008484015250505050565b6000601f19601f8301169050919050565b60006123ac8261234a565b6123b68185612355565b93506123c6818560208601612366565b6123cf81612390565b840191505092915050565b600060208201905081810360008301526123f481846123a1565b905092915050565b6000819050919050565b61240f816123fc565b811461241a57600080fd5b50565b60008135905061242c81612406565b92915050565b60006020828403121561244857612447612285565b5b60006124568482850161241d565b91505092915050565b600073ffffffffffffffffffffffffffffffffffffffff82169050919050565b600061248a8261245f565b9050919050565b61249a8161247f565b82525050565b60006020820190506124b56000830184612491565b92915050565b6124c48161247f565b81146124cf57600080fd5b50565b6000813590506124e1816124bb565b92915050565b600080604083850312156124fe576124fd612285565b5b600061250c858286016124d2565b925050602061251d8582860161241d565b9150509250929050565b6000806000606084860312156125405761253f612285565b5b600061254e868287016124d2565b935050602061255f868287016124d2565b92505060406125708682870161241d565b9150509250925092565b6000819050919050565b61258d8161257a565b82525050565b60006020820190506125a86000830184612584565b92915050565b600060ff82169050919050565b6125c4816125ae565b82525050565b60006020820190506125df60008301846125bb565b92915050565b6125ee816125ae565b81146125f957600080fd5b50565b60008135905061260b816125e5565b92915050565b6000806040838503121561262857612627612285565b5b60006126368582860161241d565b9250506020612647858286016125fc565b9150509250929050565b60006020828403121561266757612666612285565b5b6000612675848285016124d2565b91505092915050565b612687816123fc565b82525050565b60006020820190506126a2600083018461267e565b92915050565b6126b181612314565b81146126bc57600080fd5b50565b6000813590506126ce816126a8565b92915050565b600080604083850312156126eb576126ea612285565b5b60006126f9858286016124d2565b925050602061270a858286016126bf565b9150509250929050565b600080fd5b600080fd5b7f4e487b7100000000000000000000000000000000000000000000000000000000600052604160045260246000fd5b61275682612390565b810181811067ffffffffffffffff821117156127755761277461271e565b5b80604052505050565b600061278861227b565b9050612794828261274d565b919050565b600067ffffffffffffffff8211156127b4576127b361271e565b5b6127bd82612390565b9050602081019050919050565b82818337600083830152505050565b60006127ec6127e784612799565b61277e565b90508281526020810184848401111561280857612807612719565b5b6128138482856127ca565b509392505050565b600082601f8301126128305761282f612714565b5b81356128408482602086016127d9565b91505092915050565b6000806000806080858703121561286357612862612285565b5b6000612871878288016124d2565b9450506020612882878288016124d2565b93505060406128938782880161241d565b925050606085013567ffffffffffffffff8111156128b4576128b361228a565b5b6128c08782880161281b565b91505092959194509250565b6128d58161257a565b81146128e057600080fd5b50565b6000813590506128f2816128cc565b92915050565b60008060006060848603121561291157612910612285565b5b600061291f868287016124d2565b9350506020612930868287016125fc565b9250506040612941868287016128e3565b9150509250925092565b6000806040838503121561296257612961612285565b5b6000612970858286016124d2565b9250506020612981858286016124d2565b9150509250929050565b7f4e487b7100000000000000000000000000000000000000000000000000000000600052602260045260246000fd5b600060028204905060018216806129d257607f821691505b6020821081036129e5576129e461298b565b5b50919050565b7f4552433732313a20617070726f76616c20746f2063757272656e74206f776e6560008201527f7200000000000000000000000000000000000000000000000000000000000000602082015250565b6000612a47602183612355565b9150612a52826129eb565b604082019050919050565b60006020820190508181036000830152612a7681612a3a565b9050919050565b7f4552433732313a20617070726f76652063616c6c6572206973206e6f7420746f60008201527f6b656e206f776e6572206f7220617070726f76656420666f7220616c6c000000602082015250565b6000612ad9603d83612355565b9150612ae482612a7d565b604082019050919050565b60006020820190508181036000830152612b0881612acc565b9050919050565b7f4552433732313a2063616c6c6572206973206e6f7420746f6b656e206f776e6560008201527f72206f7220617070726f76656400000000000000000000000000000000000000602082015250565b6000612b6b602d83612355565b9150612b7682612b0f565b604082019050919050565b60006020820190508181036000830152612b9a81612b5e565b9050919050565b7f4e54444241000000000000000000000000000000000000000000000000000000600082015250565b6000612bd7600583612355565b9150612be282612ba1565b602082019050919050565b60006020820190508181036000830152612c0681612bca565b9050919050565b7f4552433732313a20696e76616c696420746f6b656e2049440000000000000000600082015250565b6000612c43601883612355565b9150612c4e82612c0d565b602082019050919050565b60006020820190508181036000830152612c7281612c36565b9050919050565b7f4552433732313a2061646472657373207a65726f206973206e6f74206120766160008201527f6c6964206f776e65720000000000000000000000000000000000000000000000602082015250565b6000612cd5602983612355565b9150612ce082612c79565b604082019050919050565b60006020820190508181036000830152612d0481612cc8565b9050919050565b600081905092915050565b6000612d218261234a565b612d2b8185612d0b565b9350612d3b818560208601612366565b80840191505092915050565b6000612d538285612d16565b9150612d5f8284612d16565b91508190509392505050565b7f4f776e61626c653a206e6577206f776e657220697320746865207a65726f206160008201527f6464726573730000000000000000000000000000000000000000000000000000602082015250565b6000612dc7602683612355565b9150612dd282612d6b565b604082019050919050565b60006020820190508181036000830152612df681612dba565b9050919050565b7f4552433732313a207472616e736665722066726f6d20696e636f72726563742060008201527f6f776e6572000000000000000000000000000000000000000000000000000000602082015250565b6000612e59602583612355565b9150612e6482612dfd565b604082019050919050565b60006020820190508181036000830152612e8881612e4c565b9050919050565b7f4552433732313a207472616e7366657220746f20746865207a65726f2061646460008201527f7265737300000000000000000000000000000000000000000000000000000000602082015250565b6000612eeb602483612355565b9150612ef682612e8f565b604082019050919050565b60006020820190508181036000830152612f1a81612ede565b9050919050565b7f4f776e61626c653a2063616c6c6572206973206e6f7420746865206f776e6572600082015250565b6000612f57602083612355565b9150612f6282612f21565b602082019050919050565b60006020820190508181036000830152612f8681612f4a565b9050919050565b7f4552433732313a20617070726f766520746f2063616c6c657200000000000000600082015250565b6000612fc3601983612355565b9150612fce82612f8d565b602082019050919050565b60006020820190508181036000830152612ff281612fb6565b9050919050565b7f4552433732313a207472616e7366657220746f206e6f6e20455243373231526560008201527f63656976657220696d706c656d656e7465720000000000000000000000000000602082015250565b6000613055603283612355565b915061306082612ff9565b604082019050919050565b6000602082019050818103600083015261308481613048565b9050919050565b7f4e487b7100000000000000000000000000000000000000000000000000000000600052601260045260246000fd5b7f5342544354000000000000000000000000000000000000000000000000000000600082015250565b60006130f0600583612355565b91506130fb826130ba565b602082019050919050565b6000602082019050818103600083015261311f816130e3565b9050919050565b600081519050919050565b600082825260208201905092915050565b600061314d82613126565b6131578185613131565b9350613167818560208601612366565b61317081612390565b840191505092915050565b60006080820190506131906000830187612491565b61319d6020830186612491565b6131aa604083018561267e565b81810360608301526131bc8184613142565b905095945050505050565b6000815190506131d6816122bb565b92915050565b6000602082840312156131f2576131f1612285565b5b6000613200848285016131c7565b91505092915050565b7f4552433732313a206d696e7420746f20746865207a65726f2061646472657373600082015250565b600061323f602083612355565b915061324a82613209565b602082019050919050565b6000602082019050818103600083015261326e81613232565b9050919050565b7f4552433732313a20746f6b656e20616c7265616479206d696e74656400000000600082015250565b60006132ab601c83612355565b91506132b682613275565b602082019050919050565b600060208201905081810360008301526132da8161329e565b905091905056fea26469706673582212206ad1ca0b51e3eb86e7dae724cd5f598b9a904cc4549cb563e9c0386728d31df564736f6c63430008110033",
  "linkReferences": {},
  "deployedLinkReferences": {}
}