{
  "_format": "hh-sol-artifact-1",
  "contractName": "SoulBoundToken",
  "sourceName": "contracts/SoulBoundToken.sol",
  "abi": [
    {
      "inputs": [],
      "stateMutability": "nonpayable",
      "type": "constructor"
    },
    {
      "anonymous": false,
      "inputs": [
        {
          "indexed": true,
          "internalType": "address",
          "name": "owner",
          "type": "address"
        },
        {
          "indexed": true,
          "internalType": "address",
          "name": "approved",
          "type": "address"
        },
        {
          "indexed": true,
          "internalType": "uint256",
          "name": "tokenId",
          "type": "uint256"
        }
      ],
      "name": "Approval",
      "type": "event"
    },
    {
      "anonymous": false,
      "inputs": [
        {
          "indexed": true,
          "internalType": "address",
          "name": "owner",
          "type": "address"
        },
        {
          "indexed": true,
          "internalType": "address",
          "name": "operator",
          "type": "address"
        },
        {
          "indexed": false,
          "internalType": "bool",
          "name": "approved",
          "type": "bool"
        }
      ],
      "name": "ApprovalForAll",
      "type": "event"
    },
    {
      "anonymous": false,
      "inputs": [
        {
          "indexed": true,
          "internalType": "address",
          "name": "previousOwner",
          "type": "address"
        },
        {
          "indexed": true,
          "internalType": "address",
          "name": "newOwner",
          "type": "address"
        }
      ],
      "name": "OwnershipTransferred",
      "type": "event"
    },
    {
      "anonymous": false,
      "inputs": [
        {
          "indexed": true,
          "internalType": "address",
          "name": "from",
          "type": "address"
        },
        {
          "indexed": true,
          "internalType": "address",
          "name": "to",
          "type": "address"
        },
        {
          "indexed": true,
          "internalType": "uint256",
          "name": "tokenId",
          "type": "uint256"
        }
      ],
      "name": "Transfer",
      "type": "event"
    },
    {
      "inputs": [
        {
          "internalType": "uint256",
          "name": "id",
          "type": "uint256"
        }
      ],
      "name": "accessTier",
      "outputs": [
        {
          "internalType": "uint8",
          "name": "",
          "type": "uint8"
        }
      ],
      "stateMutability": "view",
      "type": "function"
    },
    {
      "inputs": [
        {
          "internalType": "address",
          "name": "owner",
          "type": "address"
        }
      ],
      "name": "accessTier",
      "outputs": [
        {
          "internalType": "uint8",
          "name": "",
          "type": "uint8"
        }
      ],
      "stateMutability": "view",
      "type": "function"
    },
    {
      "inputs": [
        {
          "internalType": "address",
          "name": "to",
          "type": "address"
        },
        {
          "internalType": "uint256",
          "name": "tokenId",
          "type": "uint256"
        }
      ],
      "name": "approve",
      "outputs": [],
      "stateMutability": "nonpayable",
      "type": "function"
    },
    {
      "inputs": [
        {
          "internalType": "address",
          "name": "owner",
          "type": "address"
        }
      ],
      "name": "balanceOf",
      "outputs": [
        {
          "internalType": "uint256",
          "name": "",
          "type": "uint256"
        }
      ],
      "stateMutability": "view",
      "type": "function"
    },
    {
      "inputs": [
        {
          "internalType": "uint256",
          "name": "tokenId",
          "type": "uint256"
        }
      ],
      "name": "burn",
      "outputs": [],
      "stateMutability": "nonpayable",
      "type": "function"
    },
    {
      "inputs": [
        {
          "internalType": "uint256",
          "name": "id",
          "type": "uint256"
        }
      ],
      "name": "deactivate",
      "outputs": [],
      "stateMutability": "nonpayable",
      "type": "function"
    },
    {
      "inputs": [
        {
          "internalType": "uint256",
          "name": "tokenId",
          "type": "uint256"
        }
      ],
      "name": "getApproved",
      "outputs": [
        {
          "internalType": "address",
          "name": "",
          "type": "address"
        }
      ],
      "stateMutability": "view",
      "type": "function"
    },
    {
      "inputs": [
        {
          "internalType": "address",
          "name": "owner",
          "type": "address"
        }
      ],
      "name": "hasActiveSBT",
      "outputs": [
        {
          "internalType": "bool",
          "name": "",
          "type": "bool"
        }
      ],
      "stateMutability": "view",
      "type": "function"
    },
    {
      "inputs": [
        {
          "internalType": "uint256",
          "name": "id",
          "type": "uint256"
        }
      ],
      "name": "hashedIdentity",
      "outputs": [
        {
          "internalType": "bytes32",
          "name": "",
          "type": "bytes32"
        }
      ],
      "stateMutability": "view",
      "type": "function"
    },
    {
      "inputs": [
        {
          "internalType": "uint256",
          "name": "id",
          "type": "uint256"
        }
      ],
      "name": "isActive",
      "outputs": [
        {
          "internalType": "bool",
          "name": "",
          "type": "bool"
        }
      ],
      "stateMutability": "view",
      "type": "function"
    },
    {
      "inputs": [
        {
          "internalType": "address",
          "name": "owner",
          "type": "address"
        },
        {
          "internalType": "address",
          "name": "operator",
          "type": "address"
        }
      ],
      "name": "isApprovedForAll",
      "outputs": [
        {
          "internalType": "bool",
          "name": "",
          "type": "bool"
        }
      ],
      "stateMutability": "view",
      "type": "function"
    },
    {
      "inputs": [
        {
          "internalType": "uint256",
          "name": "id",
          "type": "uint256"
        },
        {
          "internalType": "uint8",
          "name": "tier",
          "type": "uint8"
        }
      ],
      "name": "modifyLevel",
      "outputs": [],
      "stateMutability": "nonpayable",
      "type": "function"
    },
    {
      "inputs": [],
      "name": "name",
      "outputs": [
        {
          "internalType": "string",
          "name": "",
          "type": "string"
        }
      ],
      "stateMutability": "view",
      "type": "function"
    },
    {
      "inputs": [],
      "name": "owner",
      "outputs": [
        {
          "internalType": "address",
          "name": "",
          "type": "address"
        }
      ],
      "stateMutability": "view",
      "type": "function"
    },
    {
      "inputs": [
        {
          "internalType": "uint256",
          "name": "tokenId",
          "type": "uint256"
        }
      ],
      "name": "ownerOf",
      "outputs": [
        {
          "internalType": "address",
          "name": "",
          "type": "address"
        }
      ],
      "stateMutability": "view",
      "type": "function"
    },
    {
      "inputs": [
        {
          "internalType": "address",
          "name": "owner",
          "type": "address"
        }
      ],
      "name": "ownerToTokenId",
      "outputs": [
        {
          "internalType": "uint256",
          "name": "",
          "type": "uint256"
        }
      ],
      "stateMutability": "view",
      "type": "function"
    },
    {
      "inputs": [
        {
          "internalType": "uint256",
          "name": "id",
          "type": "uint256"
        }
      ],
      "name": "reactivate",
      "outputs": [],
      "stateMutability": "nonpayable",
      "type": "function"
    },
    {
      "inputs": [],
      "name": "renounceOwnership",
      "outputs": [],
      "stateMutability": "nonpayable",
      "type": "function"
    },
    {
      "inputs": [
        {
          "internalType": "address",
          "name": "to",
          "type": "address"
        },
        {
          "internalType": "uint8",
          "name": "tier",
          "type": "uint8"
        },
        {
          "internalType": "bytes32",
          "name": "hashed",
          "type": "bytes32"
        }
      ],
      "name": "safeMint",
      "outputs": [],
      "stateMutability": "nonpayable",
      "type": "function"
    },
    {
      "inputs": [
        {
          "internalType": "address",
          "name": "from",
          "type": "address"
        },
        {
          "internalType": "address",
          "name": "to",
          "type": "address"
        },
        {
          "internalType": "uint256",
          "name": "tokenId",
          "type": "uint256"
        }
      ],
      "name": "safeTransferFrom",
      "outputs": [],
      "stateMutability": "nonpayable",
      "type": "function"
    },
    {
      "inputs": [
        {
          "internalType": "address",
          "name": "from",
          "type": "address"
        },
        {
          "internalType": "address",
          "name": "to",
          "type": "address"
        },
        {
          "internalType": "uint256",
          "name": "tokenId",
          "type": "uint256"
        },
        {
          "internalType": "bytes",
          "name": "data",
          "type": "bytes"
        }
      ],
      "name": "safeTransferFrom",
      "outputs": [],
      "stateMutability": "nonpayable",
      "type": "function"
    },
    {
      "inputs": [
        {
          "internalType": "address",
          "name": "operator",
          "type": "address"
        },
        {
          "internalType": "bool",
          "name": "approved",
          "type": "bool"
        }
      ],
      "name": "setApprovalForAll",
      "outputs": [],
      "stateMutability": "nonpayable",
      "type": "function"
    },
    {
      "inputs": [
        {
          "internalType": "bytes4",
          "name": "interfaceId",
          "type": "bytes4"
        }
      ],
      "name": "supportsInterface",
      "outputs": [
        {
          "internalType": "bool",
          "name": "",
          "type": "bool"
        }
      ],
      "stateMutability": "view",
      "type": "function"
    },
    {
      "inputs": [],
      "name": "symbol",
      "outputs": [
        {
          "internalType": "string",
          "name": "",
          "type": "string"
        }
      ],
      "stateMutability": "view",
      "type": "function"
    },
    {
      "inputs": [
        {
          "internalType": "uint256",
          "name": "tokenId",
          "type": "uint256"
        }
      ],
      "name": "tokenURI",
      "outputs": [
        {
          "internalType": "string",
          "name": "",
          "type": "string"
        }
      ],
      "stateMutability": "view",
      "type": "function"
    },
    {
      "inputs": [
        {
          "internalType": "address",
          "name": "from",
          "type": "address"
        },
        {
          "internalType": "address",
          "name": "to",
          "type": "address"
        },
        {
          "internalType": "uint256",
          "name": "tokenId",
          "type": "uint256"
        }
      ],
      "name": "transferFrom",
      "outputs": [],
      "stateMutability": "nonpayable",
      "type": "function"
    },
    {
      "inputs": [
        {
          "internalType": "address",
          "name": "newOwner",
          "type": "address"
        }
      ],
      "name": "transferOwnership",
      "outputs": [],
      "stateMutability": "nonpayable",
      "type": "function"
    }
  ],
  "bytecode": "0x60806040523480156200001157600080fd5b506040518060400160405280600e81526020017f536f756c426f756e64546f6b656e0000000000000000000000000000000000008152506040518060400160405280600381526020017f534254000000000000000000000000000000000000000000000000000000000081525081600090816200008f91906200043f565b508060019081620000a191906200043f565b505050620000c4620000b8620000e160201b60201c565b620000e960201b60201c565b620000db6007620001af60201b620011211760201c565b62000526565b600033905090565b6000600660009054906101000a900473ffffffffffffffffffffffffffffffffffffffff16905081600660006101000a81548173ffffffffffffffffffffffffffffffffffffffff021916908373ffffffffffffffffffffffffffffffffffffffff1602179055508173ffffffffffffffffffffffffffffffffffffffff168173ffffffffffffffffffffffffffffffffffffffff167f8be0079c531659141344cd1fd0a4f28419497f9722a3daafe3b4186f6b6457e060405160405180910390a35050565b6001816000016000828254019250508190555050565b600081519050919050565b7f4e487b7100000000000000000000000000000000000000000000000000000000600052604160045260246000fd5b7f4e487b7100000000000000000000000000000000000000000000000000000000600052602260045260246000fd5b600060028204905060018216806200024757607f821691505b6020821081036200025d576200025c620001ff565b5b50919050565b60008190508160005260206000209050919050565b60006020601f8301049050919050565b600082821b905092915050565b600060088302620002c77fffffffffffffffffffffffffffffffffffffffffffffffffffffffffffffffff8262000288565b620002d3868362000288565b95508019841693508086168417925050509392505050565b6000819050919050565b6000819050919050565b6000620003206200031a6200031484620002eb565b620002f5565b620002eb565b9050919050565b6000819050919050565b6200033c83620002ff565b620003546200034b8262000327565b84845462000295565b825550505050565b600090565b6200036b6200035c565b6200037881848462000331565b505050565b5b81811015620003a0576200039460008262000361565b6001810190506200037e565b5050565b601f821115620003ef57620003b98162000263565b620003c48462000278565b81016020851015620003d4578190505b620003ec620003e38562000278565b8301826200037d565b50505b505050565b600082821c905092915050565b60006200041460001984600802620003f4565b1980831691505092915050565b60006200042f838362000401565b9150826002028217905092915050565b6200044a82620001c5565b67ffffffffffffffff811115620004665762000465620001d0565b5b6200047282546200022e565b6200047f828285620003a4565b600060209050601f831160018114620004b75760008415620004a2578287015190505b620004ae858262000421565b8655506200051e565b601f198416620004c78662000263565b60005b82811015620004f157848901518255600182019150602085019450602081019050620004ca565b868310156200051157848901516200050d601f89168262000401565b8355505b6001600288020188555050505b505050505050565b61343d80620005366000396000f3fe608060405234801561001057600080fd5b50600436106101a95760003560e01c806370a08231116100f9578063b7caec8711610097578063c12290d211610071578063c12290d2146104ee578063c87b56dd1461050a578063e985e9c51461053a578063f2fde38b1461056a576101a9565b8063b7caec8714610486578063b88d4fde146104b6578063bdca14cf146104d2576101a9565b80638da5cb5b116100d35780638da5cb5b14610412578063916b9bef1461043057806395d89b411461044c578063a22cb4651461046a576101a9565b806370a08231146103a8578063715018a6146103d857806382afd23b146103e2576101a9565b80633355594a1161016657806342842e0e1161014057806342842e0e1461031057806342966c681461032c5780634814f035146103485780636352211e14610378576101a9565b80633355594a1461028057806334566cdf146102b057806339f920ab146102e0576101a9565b806301ffc9a7146101ae57806306fdde03146101de578063081812fc146101fc578063095ea7b31461022c57806309df30ec1461024857806323b872dd14610264575b600080fd5b6101c860048036038101906101c391906122c3565b610586565b6040516101d5919061230b565b60405180910390f35b6101e6610668565b6040516101f391906123b6565b60405180910390f35b6102166004803603810190610211919061240e565b6106fa565b604051610223919061247c565b60405180910390f35b610246600480360381019061024191906124c3565b610740565b005b610262600480360381019061025d919061240e565b610857565b005b61027e60048036038101906102799190612503565b61088e565b005b61029a6004803603810190610295919061240e565b6108ee565b6040516102a7919061256f565b60405180910390f35b6102ca60048036038101906102c5919061240e565b61090b565b6040516102d791906125a6565b60405180910390f35b6102fa60048036038101906102f591906125c1565b610935565b604051610307919061230b565b60405180910390f35b61032a60048036038101906103259190612503565b610967565b005b6103466004803603810190610341919061240e565b610987565b005b610362600480360381019061035d91906125c1565b610a09565b60405161036f91906125fd565b60405180910390f35b610392600480360381019061038d919061240e565b610a52565b60405161039f919061247c565b60405180910390f35b6103c260048036038101906103bd91906125c1565b610ad8565b6040516103cf91906125fd565b60405180910390f35b6103e0610b8f565b005b6103fc60048036038101906103f7919061240e565b610ba3565b604051610409919061230b565b60405180910390f35b61041a610bcd565b604051610427919061247c565b60405180910390f35b61044a6004803603810190610445919061240e565b610bf7565b005b610454610c2e565b60405161046191906123b6565b60405180910390f35b610484600480360381019061047f9190612644565b610cc0565b005b6104a0600480360381019061049b91906125c1565b610cd6565b6040516104ad91906125a6565b60405180910390f35b6104d060048036038101906104cb91906127b9565b610cf0565b005b6104ec60048036038101906104e79190612868565b610d52565b005b610508600480360381019061050391906128d4565b610de3565b005b610524600480360381019061051f919061240e565b610fa2565b60405161053191906123b6565b60405180910390f35b610554600480360381019061054f9190612927565b61100a565b604051610561919061230b565b60405180910390f35b610584600480360381019061057f91906125c1565b61109e565b005b60007f80ac58cd000000000000000000000000000000000000000000000000000000007bffffffffffffffffffffffffffffffffffffffffffffffffffffffff1916827bffffffffffffffffffffffffffffffffffffffffffffffffffffffff1916148061065157507f5b5e139f000000000000000000000000000000000000000000000000000000007bffffffffffffffffffffffffffffffffffffffffffffffffffffffff1916827bffffffffffffffffffffffffffffffffffffffffffffffffffffffff1916145b80610661575061066082611137565b5b9050919050565b60606000805461067790612996565b80601f01602080910402602001604051908101604052809291908181526020018280546106a390612996565b80156106f05780601f106106c5576101008083540402835291602001916106f0565b820191906000526020600020905b8154815290600101906020018083116106d357829003601f168201915b5050505050905090565b6000610705826111a1565b6004600083815260200190815260200160002060009054906101000a900473ffffffffffffffffffffffffffffffffffffffff169050919050565b600061074b82610a52565b90508073ffffffffffffffffffffffffffffffffffffffff168373ffffffffffffffffffffffffffffffffffffffff16036107bb576040517f08c379a00000000000000000000000000000000000000000000000000000000081526004016107b290612a39565b60405180910390fd5b8073ffffffffffffffffffffffffffffffffffffffff166107da6111ec565b73ffffffffffffffffffffffffffffffffffffffff1614806108095750610808816108036111ec565b61100a565b5b610848576040517f08c379a000000000000000000000000000000000000000000000000000000000815260040161083f90612acb565b60405180910390fd5b61085283836111f4565b505050565b61085f6112ad565b60016009600083815260200190815260200160002060006101000a81548160ff02191690831515021790555050565b61089f6108996111ec565b8261132b565b6108de576040517f08c379a00000000000000000000000000000000000000000000000000000000081526004016108d590612b5d565b60405180910390fd5b6108e98383836113c0565b505050565b6000600a6000838152602001908152602001600020549050919050565b60006008600083815260200190815260200160002060009054906101000a900460ff169050919050565b60006009600061094484610a09565b815260200190815260200160002060009054906101000a900460ff169050919050565b61098283838360405180602001604052806000815250610cf0565b505050565b3373ffffffffffffffffffffffffffffffffffffffff166109a782610a52565b73ffffffffffffffffffffffffffffffffffffffff16146109fd576040517f08c379a00000000000000000000000000000000000000000000000000000000081526004016109f490612bef565b60405180910390fd5b610a06816116b9565b50565b6000600b60008373ffffffffffffffffffffffffffffffffffffffff1673ffffffffffffffffffffffffffffffffffffffff168152602001908152602001600020549050919050565b600080610a5e836116c5565b9050600073ffffffffffffffffffffffffffffffffffffffff168173ffffffffffffffffffffffffffffffffffffffff1603610acf576040517f08c379a0000000000000000000000000000000000000000000000000000000008152600401610ac690612c5b565b60405180910390fd5b80915050919050565b60008073ffffffffffffffffffffffffffffffffffffffff168273ffffffffffffffffffffffffffffffffffffffff1603610b48576040517f08c379a0000000000000000000000000000000000000000000000000000000008152600401610b3f90612ced565b60405180910390fd5b600360008373ffffffffffffffffffffffffffffffffffffffff1673ffffffffffffffffffffffffffffffffffffffff168152602001908152602001600020549050919050565b610b976112ad565b610ba16000611702565b565b60006009600083815260200190815260200160002060009054906101000a900460ff169050919050565b6000600660009054906101000a900473ffffffffffffffffffffffffffffffffffffffff16905090565b610bff6112ad565b60006009600083815260200190815260200160002060006101000a81548160ff02191690831515021790555050565b606060018054610c3d90612996565b80601f0160208091040260200160405190810160405280929190818152602001828054610c6990612996565b8015610cb65780601f10610c8b57610100808354040283529160200191610cb6565b820191906000526020600020905b815481529060010190602001808311610c9957829003601f168201915b5050505050905090565b610cd2610ccb6111ec565b83836117c8565b5050565b6000610ce9610ce483610a09565b61090b565b9050919050565b610d01610cfb6111ec565b8361132b565b610d40576040517f08c379a0000000000000000000000000000000000000000000000000000000008152600401610d3790612b5d565b60405180910390fd5b610d4c84848484611934565b50505050565b610d5a6112ad565b8060018160ff1610158015610d73575060038160ff1611155b610db2576040517f08c379a0000000000000000000000000000000000000000000000000000000008152600401610da990612d59565b60405180910390fd5b816008600085815260200190815260200160002060006101000a81548160ff021916908360ff160217905550505050565b610deb6112ad565b8160018160ff1610158015610e04575060038160ff1611155b610e43576040517f08c379a0000000000000000000000000000000000000000000000000000000008152600401610e3a90612d59565b60405180910390fd5b6000600b60008673ffffffffffffffffffffffffffffffffffffffff1673ffffffffffffffffffffffffffffffffffffffff1681526020019081526020016000205414610ec5576040517f08c379a0000000000000000000000000000000000000000000000000000000008152600401610ebc90612dc5565b60405180910390fd5b6000610ed16007611990565b9050610edd6007611121565b60016009600083815260200190815260200160002060006101000a81548160ff021916908315150217905550836008600083815260200190815260200160002060006101000a81548160ff021916908360ff16021790555082600a60008381526020019081526020016000208190555080600b60008773ffffffffffffffffffffffffffffffffffffffff1673ffffffffffffffffffffffffffffffffffffffff16815260200190815260200160002081905550610f9b858261199e565b5050505050565b6060610fad826111a1565b6000610fb76119bc565b90506000815111610fd75760405180602001604052806000815250611002565b80610fe1846119d3565b604051602001610ff2929190612e21565b6040516020818303038152906040525b915050919050565b6000600560008473ffffffffffffffffffffffffffffffffffffffff1673ffffffffffffffffffffffffffffffffffffffff16815260200190815260200160002060008373ffffffffffffffffffffffffffffffffffffffff1673ffffffffffffffffffffffffffffffffffffffff16815260200190815260200160002060009054906101000a900460ff16905092915050565b6110a66112ad565b600073ffffffffffffffffffffffffffffffffffffffff168173ffffffffffffffffffffffffffffffffffffffff1603611115576040517f08c379a000000000000000000000000000000000000000000000000000000000815260040161110c90612eb7565b60405180910390fd5b61111e81611702565b50565b6001816000016000828254019250508190555050565b60007f01ffc9a7000000000000000000000000000000000000000000000000000000007bffffffffffffffffffffffffffffffffffffffffffffffffffffffff1916827bffffffffffffffffffffffffffffffffffffffffffffffffffffffff1916149050919050565b6111aa81611aa1565b6111e9576040517f08c379a00000000000000000000000000000000000000000000000000000000081526004016111e090612c5b565b60405180910390fd5b50565b600033905090565b816004600083815260200190815260200160002060006101000a81548173ffffffffffffffffffffffffffffffffffffffff021916908373ffffffffffffffffffffffffffffffffffffffff160217905550808273ffffffffffffffffffffffffffffffffffffffff1661126783610a52565b73ffffffffffffffffffffffffffffffffffffffff167f8c5be1e5ebec7d5bd14f71427d1e84f3dd0314c0f7b2291e5b200ac8c7c3b92560405160405180910390a45050565b6112b56111ec565b73ffffffffffffffffffffffffffffffffffffffff166112d3610bcd565b73ffffffffffffffffffffffffffffffffffffffff1614611329576040517f08c379a000000000000000000000000000000000000000000000000000000000815260040161132090612f23565b60405180910390fd5b565b60008061133783610a52565b90508073ffffffffffffffffffffffffffffffffffffffff168473ffffffffffffffffffffffffffffffffffffffff1614806113795750611378818561100a565b5b806113b757508373ffffffffffffffffffffffffffffffffffffffff1661139f846106fa565b73ffffffffffffffffffffffffffffffffffffffff16145b91505092915050565b8273ffffffffffffffffffffffffffffffffffffffff166113e082610a52565b73ffffffffffffffffffffffffffffffffffffffff1614611436576040517f08c379a000000000000000000000000000000000000000000000000000000000815260040161142d90612fb5565b60405180910390fd5b600073ffffffffffffffffffffffffffffffffffffffff168273ffffffffffffffffffffffffffffffffffffffff16036114a5576040517f08c379a000000000000000000000000000000000000000000000000000000000815260040161149c90613047565b60405180910390fd5b6114b28383836001611ae2565b8273ffffffffffffffffffffffffffffffffffffffff166114d282610a52565b73ffffffffffffffffffffffffffffffffffffffff1614611528576040517f08c379a000000000000000000000000000000000000000000000000000000000815260040161151f90612fb5565b60405180910390fd5b6004600082815260200190815260200160002060006101000a81549073ffffffffffffffffffffffffffffffffffffffff02191690556001600360008573ffffffffffffffffffffffffffffffffffffffff1673ffffffffffffffffffffffffffffffffffffffff168152602001908152602001600020600082825403925050819055506001600360008473ffffffffffffffffffffffffffffffffffffffff1673ffffffffffffffffffffffffffffffffffffffff16815260200190815260200160002060008282540192505081905550816002600083815260200190815260200160002060006101000a81548173ffffffffffffffffffffffffffffffffffffffff021916908373ffffffffffffffffffffffffffffffffffffffff160217905550808273ffffffffffffffffffffffffffffffffffffffff168473ffffffffffffffffffffffffffffffffffffffff167fddf252ad1be2c89b69c2b068fc378daa952ba7f163c4a11628f55a4df523b3ef60405160405180910390a46116b48383836001611b8e565b505050565b6116c281611b94565b50565b60006002600083815260200190815260200160002060009054906101000a900473ffffffffffffffffffffffffffffffffffffffff169050919050565b6000600660009054906101000a900473ffffffffffffffffffffffffffffffffffffffff16905081600660006101000a81548173ffffffffffffffffffffffffffffffffffffffff021916908373ffffffffffffffffffffffffffffffffffffffff1602179055508173ffffffffffffffffffffffffffffffffffffffff168173ffffffffffffffffffffffffffffffffffffffff167f8be0079c531659141344cd1fd0a4f28419497f9722a3daafe3b4186f6b6457e060405160405180910390a35050565b8173ffffffffffffffffffffffffffffffffffffffff168373ffffffffffffffffffffffffffffffffffffffff1603611836576040517f08c379a000000000000000000000000000000000000000000000000000000000815260040161182d906130b3565b60405180910390fd5b80600560008573ffffffffffffffffffffffffffffffffffffffff1673ffffffffffffffffffffffffffffffffffffffff16815260200190815260200160002060008473ffffffffffffffffffffffffffffffffffffffff1673ffffffffffffffffffffffffffffffffffffffff16815260200190815260200160002060006101000a81548160ff0219169083151502179055508173ffffffffffffffffffffffffffffffffffffffff168373ffffffffffffffffffffffffffffffffffffffff167f17307eab39ab6107e8899845ad3d59bd9653f200f220920489ca2b5937696c3183604051611927919061230b565b60405180910390a3505050565b61193f8484846113c0565b61194b84848484611ce2565b61198a576040517f08c379a000000000000000000000000000000000000000000000000000000000815260040161198190613145565b60405180910390fd5b50505050565b600081600001549050919050565b6119b8828260405180602001604052806000815250611e69565b5050565b606060405180602001604052806000815250905090565b6060600060016119e284611ec4565b01905060008167ffffffffffffffff811115611a0157611a0061268e565b5b6040519080825280601f01601f191660200182016040528015611a335781602001600182028036833780820191505090505b509050600082602001820190505b600115611a96578080600190039150507f3031323334353637383961626364656600000000000000000000000000000000600a86061a8153600a8581611a8a57611a89613165565b5b04945060008503611a41575b819350505050919050565b60008073ffffffffffffffffffffffffffffffffffffffff16611ac3836116c5565b73ffffffffffffffffffffffffffffffffffffffff1614159050919050565b600073ffffffffffffffffffffffffffffffffffffffff168473ffffffffffffffffffffffffffffffffffffffff161480611b495750600073ffffffffffffffffffffffffffffffffffffffff168373ffffffffffffffffffffffffffffffffffffffff16145b611b88576040517f08c379a0000000000000000000000000000000000000000000000000000000008152600401611b7f9061322c565b60405180910390fd5b50505050565b50505050565b6000611b9f82610a52565b9050611baf816000846001611ae2565b611bb882610a52565b90506004600083815260200190815260200160002060006101000a81549073ffffffffffffffffffffffffffffffffffffffff02191690556001600360008373ffffffffffffffffffffffffffffffffffffffff1673ffffffffffffffffffffffffffffffffffffffff168152602001908152602001600020600082825403925050819055506002600083815260200190815260200160002060006101000a81549073ffffffffffffffffffffffffffffffffffffffff021916905581600073ffffffffffffffffffffffffffffffffffffffff168273ffffffffffffffffffffffffffffffffffffffff167fddf252ad1be2c89b69c2b068fc378daa952ba7f163c4a11628f55a4df523b3ef60405160405180910390a4611cde816000846001611b8e565b5050565b6000611d038473ffffffffffffffffffffffffffffffffffffffff16612017565b15611e5c578373ffffffffffffffffffffffffffffffffffffffff1663150b7a02611d2c6111ec565b8786866040518563ffffffff1660e01b8152600401611d4e94939291906132a1565b6020604051808303816000875af1925050508015611d8a57506040513d601f19601f82011682018060405250810190611d879190613302565b60015b611e0c573d8060008114611dba576040519150601f19603f3d011682016040523d82523d6000602084013e611dbf565b606091505b506000815103611e04576040517f08c379a0000000000000000000000000000000000000000000000000000000008152600401611dfb90613145565b60405180910390fd5b805181602001fd5b63150b7a0260e01b7bffffffffffffffffffffffffffffffffffffffffffffffffffffffff1916817bffffffffffffffffffffffffffffffffffffffffffffffffffffffff191614915050611e61565b600190505b949350505050565b611e73838361203a565b611e806000848484611ce2565b611ebf576040517f08c379a0000000000000000000000000000000000000000000000000000000008152600401611eb690613145565b60405180910390fd5b505050565b600080600090507a184f03e93ff9f4daa797ed6e38ed64bf6a1f0100000000000000008310611f22577a184f03e93ff9f4daa797ed6e38ed64bf6a1f0100000000000000008381611f1857611f17613165565b5b0492506040810190505b6d04ee2d6d415b85acef81000000008310611f5f576d04ee2d6d415b85acef81000000008381611f5557611f54613165565b5b0492506020810190505b662386f26fc100008310611f8e57662386f26fc100008381611f8457611f83613165565b5b0492506010810190505b6305f5e1008310611fb7576305f5e1008381611fad57611fac613165565b5b0492506008810190505b6127108310611fdc576127108381611fd257611fd1613165565b5b0492506004810190505b60648310611fff5760648381611ff557611ff4613165565b5b0492506002810190505b600a831061200e576001810190505b80915050919050565b6000808273ffffffffffffffffffffffffffffffffffffffff163b119050919050565b600073ffffffffffffffffffffffffffffffffffffffff168273ffffffffffffffffffffffffffffffffffffffff16036120a9576040517f08c379a00000000000000000000000000000000000000000000000000000000081526004016120a09061337b565b60405180910390fd5b6120b281611aa1565b156120f2576040517f08c379a00000000000000000000000000000000000000000000000000000000081526004016120e9906133e7565b60405180910390fd5b612100600083836001611ae2565b61210981611aa1565b15612149576040517f08c379a0000000000000000000000000000000000000000000000000000000008152600401612140906133e7565b60405180910390fd5b6001600360008473ffffffffffffffffffffffffffffffffffffffff1673ffffffffffffffffffffffffffffffffffffffff16815260200190815260200160002060008282540192505081905550816002600083815260200190815260200160002060006101000a81548173ffffffffffffffffffffffffffffffffffffffff021916908373ffffffffffffffffffffffffffffffffffffffff160217905550808273ffffffffffffffffffffffffffffffffffffffff16600073ffffffffffffffffffffffffffffffffffffffff167fddf252ad1be2c89b69c2b068fc378daa952ba7f163c4a11628f55a4df523b3ef60405160405180910390a4612253600083836001611b8e565b5050565b6000604051905090565b600080fd5b600080fd5b60007fffffffff0000000000000000000000000000000000000000000000000000000082169050919050565b6122a08161226b565b81146122ab57600080fd5b50565b6000813590506122bd81612297565b92915050565b6000602082840312156122d9576122d8612261565b5b60006122e7848285016122ae565b91505092915050565b60008115159050919050565b612305816122f0565b82525050565b600060208201905061232060008301846122fc565b92915050565b600081519050919050565b600082825260208201905092915050565b60005b83811015612360578082015181840152602081019050612345565b60008484015250505050565b6000601f19601f8301169050919050565b600061238882612326565b6123928185612331565b93506123a2818560208601612342565b6123ab8161236c565b840191505092915050565b600060208201905081810360008301526123d0818461237d565b905092915050565b6000819050919050565b6123eb816123d8565b81146123f657600080fd5b50565b600081359050612408816123e2565b92915050565b60006020828403121561242457612423612261565b5b6000612432848285016123f9565b91505092915050565b600073ffffffffffffffffffffffffffffffffffffffff82169050919050565b60006124668261243b565b9050919050565b6124768161245b565b82525050565b6000602082019050612491600083018461246d565b92915050565b6124a08161245b565b81146124ab57600080fd5b50565b6000813590506124bd81612497565b92915050565b600080604083850312156124da576124d9612261565b5b60006124e8858286016124ae565b92505060206124f9858286016123f9565b9150509250929050565b60008060006060848603121561251c5761251b612261565b5b600061252a868287016124ae565b935050602061253b868287016124ae565b925050604061254c868287016123f9565b9150509250925092565b6000819050919050565b61256981612556565b82525050565b60006020820190506125846000830184612560565b92915050565b600060ff82169050919050565b6125a08161258a565b82525050565b60006020820190506125bb6000830184612597565b92915050565b6000602082840312156125d7576125d6612261565b5b60006125e5848285016124ae565b91505092915050565b6125f7816123d8565b82525050565b600060208201905061261260008301846125ee565b92915050565b612621816122f0565b811461262c57600080fd5b50565b60008135905061263e81612618565b92915050565b6000806040838503121561265b5761265a612261565b5b6000612669858286016124ae565b925050602061267a8582860161262f565b9150509250929050565b600080fd5b600080fd5b7f4e487b7100000000000000000000000000000000000000000000000000000000600052604160045260246000fd5b6126c68261236c565b810181811067ffffffffffffffff821117156126e5576126e461268e565b5b80604052505050565b60006126f8612257565b905061270482826126bd565b919050565b600067ffffffffffffffff8211156127245761272361268e565b5b61272d8261236c565b9050602081019050919050565b82818337600083830152505050565b600061275c61275784612709565b6126ee565b90508281526020810184848401111561277857612777612689565b5b61278384828561273a565b509392505050565b600082601f8301126127a05761279f612684565b5b81356127b0848260208601612749565b91505092915050565b600080600080608085870312156127d3576127d2612261565b5b60006127e1878288016124ae565b94505060206127f2878288016124ae565b9350506040612803878288016123f9565b925050606085013567ffffffffffffffff81111561282457612823612266565b5b6128308782880161278b565b91505092959194509250565b6128458161258a565b811461285057600080fd5b50565b6000813590506128628161283c565b92915050565b6000806040838503121561287f5761287e612261565b5b600061288d858286016123f9565b925050602061289e85828601612853565b9150509250929050565b6128b181612556565b81146128bc57600080fd5b50565b6000813590506128ce816128a8565b92915050565b6000806000606084860312156128ed576128ec612261565b5b60006128fb868287016124ae565b935050602061290c86828701612853565b925050604061291d868287016128bf565b9150509250925092565b6000806040838503121561293e5761293d612261565b5b600061294c858286016124ae565b925050602061295d858286016124ae565b9150509250929050565b7f4e487b7100000000000000000000000000000000000000000000000000000000600052602260045260246000fd5b600060028204905060018216806129ae57607f821691505b6020821081036129c1576129c0612967565b5b50919050565b7f4552433732313a20617070726f76616c20746f2063757272656e74206f776e6560008201527f7200000000000000000000000000000000000000000000000000000000000000602082015250565b6000612a23602183612331565b9150612a2e826129c7565b604082019050919050565b60006020820190508181036000830152612a5281612a16565b9050919050565b7f4552433732313a20617070726f76652063616c6c6572206973206e6f7420746f60008201527f6b656e206f776e6572206f7220617070726f76656420666f7220616c6c000000602082015250565b6000612ab5603d83612331565b9150612ac082612a59565b604082019050919050565b60006020820190508181036000830152612ae481612aa8565b9050919050565b7f4552433732313a2063616c6c6572206973206e6f7420746f6b656e206f776e6560008201527f72206f7220617070726f76656400000000000000000000000000000000000000602082015250565b6000612b47602d83612331565b9150612b5282612aeb565b604082019050919050565b60006020820190508181036000830152612b7681612b3a565b9050919050565b7f4f6e6c7920746865206f776e6572206f662074686520746f6b656e2063616e2060008201527f6275726e2069742e000000000000000000000000000000000000000000000000602082015250565b6000612bd9602883612331565b9150612be482612b7d565b604082019050919050565b60006020820190508181036000830152612c0881612bcc565b9050919050565b7f4552433732313a20696e76616c696420746f6b656e2049440000000000000000600082015250565b6000612c45601883612331565b9150612c5082612c0f565b602082019050919050565b60006020820190508181036000830152612c7481612c38565b9050919050565b7f4552433732313a2061646472657373207a65726f206973206e6f74206120766160008201527f6c6964206f776e65720000000000000000000000000000000000000000000000602082015250565b6000612cd7602983612331565b9150612ce282612c7b565b604082019050919050565b60006020820190508181036000830152612d0681612cca565b9050919050565b7f496e76616c696420746965720000000000000000000000000000000000000000600082015250565b6000612d43600c83612331565b9150612d4e82612d0d565b602082019050919050565b60006020820190508181036000830152612d7281612d36565b9050919050565b7f546f6b656e20616c726561647920657869737473000000000000000000000000600082015250565b6000612daf601483612331565b9150612dba82612d79565b602082019050919050565b60006020820190508181036000830152612dde81612da2565b9050919050565b600081905092915050565b6000612dfb82612326565b612e058185612de5565b9350612e15818560208601612342565b80840191505092915050565b6000612e2d8285612df0565b9150612e398284612df0565b91508190509392505050565b7f4f776e61626c653a206e6577206f776e657220697320746865207a65726f206160008201527f6464726573730000000000000000000000000000000000000000000000000000602082015250565b6000612ea1602683612331565b9150612eac82612e45565b604082019050919050565b60006020820190508181036000830152612ed081612e94565b9050919050565b7f4f776e61626c653a2063616c6c6572206973206e6f7420746865206f776e6572600082015250565b6000612f0d602083612331565b9150612f1882612ed7565b602082019050919050565b60006020820190508181036000830152612f3c81612f00565b9050919050565b7f4552433732313a207472616e736665722066726f6d20696e636f72726563742060008201527f6f776e6572000000000000000000000000000000000000000000000000000000602082015250565b6000612f9f602583612331565b9150612faa82612f43565b604082019050919050565b60006020820190508181036000830152612fce81612f92565b9050919050565b7f4552433732313a207472616e7366657220746f20746865207a65726f2061646460008201527f7265737300000000000000000000000000000000000000000000000000000000602082015250565b6000613031602483612331565b915061303c82612fd5565b604082019050919050565b6000602082019050818103600083015261306081613024565b9050919050565b7f4552433732313a20617070726f766520746f2063616c6c657200000000000000600082015250565b600061309d601983612331565b91506130a882613067565b602082019050919050565b600060208201905081810360008301526130cc81613090565b9050919050565b7f4552433732313a207472616e7366657220746f206e6f6e20455243373231526560008201527f63656976657220696d706c656d656e7465720000000000000000000000000000602082015250565b600061312f603283612331565b915061313a826130d3565b604082019050919050565b6000602082019050818103600083015261315e81613122565b9050919050565b7f4e487b7100000000000000000000000000000000000000000000000000000000600052601260045260246000fd5b7f54686973206120536f756c626f756e6420746f6b656e2e2049742063616e6e6f60008201527f74206265207472616e736665727265642e2049742063616e206f6e6c7920626560208201527f206275726e65642062792074686520746f6b656e206f776e65722e0000000000604082015250565b6000613216605b83612331565b915061322182613194565b606082019050919050565b6000602082019050818103600083015261324581613209565b9050919050565b600081519050919050565b600082825260208201905092915050565b60006132738261324c565b61327d8185613257565b935061328d818560208601612342565b6132968161236c565b840191505092915050565b60006080820190506132b6600083018761246d565b6132c3602083018661246d565b6132d060408301856125ee565b81810360608301526132e28184613268565b905095945050505050565b6000815190506132fc81612297565b92915050565b60006020828403121561331857613317612261565b5b6000613326848285016132ed565b91505092915050565b7f4552433732313a206d696e7420746f20746865207a65726f2061646472657373600082015250565b6000613365602083612331565b91506133708261332f565b602082019050919050565b6000602082019050818103600083015261339481613358565b9050919050565b7f4552433732313a20746f6b656e20616c7265616479206d696e74656400000000600082015250565b60006133d1601c83612331565b91506133dc8261339b565b602082019050919050565b60006020820190508181036000830152613400816133c4565b905091905056fea2646970667358221220893a7269d316bfea02c2226fc22fdc7d2b6a27648dacccc612f8822fc6b072a564736f6c63430008110033",
  "linkReferences": {},
  "deployedLinkReferences": {}
}