{
  "_format": "hh-sol-artifact-1",
  "contractName": "Mainframe",
  "sourceName": "contracts/Mainframe.sol",
  "abi": [
    {
      "inputs": [
        {
          "internalType": "address",
          "name": "sbt",
          "type": "address"
        }
      ],
      "stateMutability": "nonpayable",
      "type": "constructor"
    },
    {
      "anonymous": false,
      "inputs": [
        {
          "indexed": true,
          "internalType": "address",
          "name": "owner",
          "type": "address"
        },
        {
          "indexed": false,
          "internalType": "address",
          "name": "token",
          "type": "address"
        }
      ],
      "name": "BondFactoryInitialized",
      "type": "event"
    },
    {
      "anonymous": false,
      "inputs": [
        {
          "indexed": true,
          "internalType": "address",
          "name": "owner",
          "type": "address"
        },
        {
          "indexed": false,
          "internalType": "address",
          "name": "token",
          "type": "address"
        }
      ],
      "name": "CallableBondFactoryInitialized",
      "type": "event"
    },
    {
      "anonymous": false,
      "inputs": [
        {
          "indexed": true,
          "internalType": "address",
          "name": "owner",
          "type": "address"
        },
        {
          "indexed": false,
          "internalType": "address",
          "name": "tokenA",
          "type": "address"
        },
        {
          "indexed": false,
          "internalType": "address",
          "name": "tokenB",
          "type": "address"
        }
      ],
      "name": "DualCurrencyBondFactoryInitialized",
      "type": "event"
    },
    {
      "anonymous": false,
      "inputs": [
        {
          "indexed": true,
          "internalType": "address",
          "name": "owner",
          "type": "address"
        },
        {
          "indexed": false,
          "internalType": "address",
          "name": "token",
          "type": "address"
        }
      ],
      "name": "InstallmentBondFactoryInitialized",
      "type": "event"
    },
    {
      "inputs": [
        {
          "internalType": "address",
          "name": "caller",
          "type": "address"
        }
      ],
      "name": "bondFactories",
      "outputs": [
        {
          "internalType": "address[]",
          "name": "",
          "type": "address[]"
        }
      ],
      "stateMutability": "view",
      "type": "function"
    },
    {
      "inputs": [
        {
          "internalType": "address",
          "name": "caller",
          "type": "address"
        },
        {
          "internalType": "address",
          "name": "token",
          "type": "address"
        }
      ],
      "name": "bondFactoryIsInitialized",
      "outputs": [
        {
          "internalType": "bool",
          "name": "",
          "type": "bool"
        }
      ],
      "stateMutability": "view",
      "type": "function"
    },
    {
      "inputs": [
        {
          "internalType": "address",
          "name": "caller",
          "type": "address"
        }
      ],
      "name": "callableBondFactories",
      "outputs": [
        {
          "internalType": "address[]",
          "name": "",
          "type": "address[]"
        }
      ],
      "stateMutability": "view",
      "type": "function"
    },
    {
      "inputs": [
        {
          "internalType": "address",
          "name": "caller",
          "type": "address"
        },
        {
          "internalType": "address",
          "name": "token",
          "type": "address"
        }
      ],
      "name": "callableBondFactoryIsInitialized",
      "outputs": [
        {
          "internalType": "bool",
          "name": "",
          "type": "bool"
        }
      ],
      "stateMutability": "view",
      "type": "function"
    },
    {
      "inputs": [
        {
          "internalType": "string",
          "name": "uri",
          "type": "string"
        },
        {
          "internalType": "address",
          "name": "token",
          "type": "address"
        }
      ],
      "name": "createBondFactory",
      "outputs": [
        {
          "internalType": "address",
          "name": "factory",
          "type": "address"
        }
      ],
      "stateMutability": "nonpayable",
      "type": "function"
    },
    {
      "inputs": [
        {
          "internalType": "string",
          "name": "uri",
          "type": "string"
        },
        {
          "internalType": "address",
          "name": "token",
          "type": "address"
        }
      ],
      "name": "createCallableBondFactory",
      "outputs": [
        {
          "internalType": "address",
          "name": "factory",
          "type": "address"
        }
      ],
      "stateMutability": "nonpayable",
      "type": "function"
    },
    {
      "inputs": [
        {
          "internalType": "string",
          "name": "uri",
          "type": "string"
        },
        {
          "internalType": "address",
          "name": "tokenA",
          "type": "address"
        },
        {
          "internalType": "address",
          "name": "tokenB",
          "type": "address"
        }
      ],
      "name": "createDualCurrencyBondFactory",
      "outputs": [
        {
          "internalType": "address",
          "name": "factory",
          "type": "address"
        }
      ],
      "stateMutability": "nonpayable",
      "type": "function"
    },
    {
      "inputs": [
        {
          "internalType": "string",
          "name": "uri",
          "type": "string"
        },
        {
          "internalType": "address",
          "name": "token",
          "type": "address"
        }
      ],
      "name": "createInstallmentBondFactory",
      "outputs": [
        {
          "internalType": "address",
          "name": "factory",
          "type": "address"
        }
      ],
      "stateMutability": "nonpayable",
      "type": "function"
    },
    {
      "inputs": [
        {
          "internalType": "address",
          "name": "token",
          "type": "address"
        }
      ],
      "name": "deregisterPriceFeed",
      "outputs": [],
      "stateMutability": "nonpayable",
      "type": "function"
    },
    {
      "inputs": [
        {
          "internalType": "address",
          "name": "caller",
          "type": "address"
        }
      ],
      "name": "dualCurrencyBondFactories",
      "outputs": [
        {
          "internalType": "address[]",
          "name": "",
          "type": "address[]"
        }
      ],
      "stateMutability": "view",
      "type": "function"
    },
    {
      "inputs": [
        {
          "internalType": "address",
          "name": "caller",
          "type": "address"
        },
        {
          "internalType": "address",
          "name": "tokenA",
          "type": "address"
        },
        {
          "internalType": "address",
          "name": "tokenB",
          "type": "address"
        }
      ],
      "name": "dualCurrencyBondFactoryIsInitialized",
      "outputs": [
        {
          "internalType": "bool",
          "name": "",
          "type": "bool"
        }
      ],
      "stateMutability": "view",
      "type": "function"
    },
    {
      "inputs": [],
      "name": "entities",
      "outputs": [
        {
          "internalType": "address[]",
          "name": "",
          "type": "address[]"
        }
      ],
      "stateMutability": "view",
      "type": "function"
    },
    {
      "inputs": [
        {
          "internalType": "address",
          "name": "caller",
          "type": "address"
        }
      ],
      "name": "installmentBondFactories",
      "outputs": [
        {
          "internalType": "address[]",
          "name": "",
          "type": "address[]"
        }
      ],
      "stateMutability": "view",
      "type": "function"
    },
    {
      "inputs": [
        {
          "internalType": "address",
          "name": "caller",
          "type": "address"
        },
        {
          "internalType": "address",
          "name": "token",
          "type": "address"
        }
      ],
      "name": "installmentBondFactoryIsInitialized",
      "outputs": [
        {
          "internalType": "bool",
          "name": "",
          "type": "bool"
        }
      ],
      "stateMutability": "view",
      "type": "function"
    },
    {
      "inputs": [
        {
          "internalType": "address",
          "name": "caller",
          "type": "address"
        }
      ],
      "name": "isRegistered",
      "outputs": [
        {
          "internalType": "bool",
          "name": "",
          "type": "bool"
        }
      ],
      "stateMutability": "view",
      "type": "function"
    },
    {
      "inputs": [],
      "name": "owner",
      "outputs": [
        {
          "internalType": "address",
          "name": "",
          "type": "address"
        }
      ],
      "stateMutability": "view",
      "type": "function"
    },
    {
      "inputs": [],
      "name": "register",
      "outputs": [],
      "stateMutability": "nonpayable",
      "type": "function"
    },
    {
      "inputs": [
        {
          "internalType": "address",
          "name": "token",
          "type": "address"
        },
        {
          "internalType": "address",
          "name": "feed",
          "type": "address"
        }
      ],
      "name": "registerPriceFeed",
      "outputs": [],
      "stateMutability": "nonpayable",
      "type": "function"
    }
  ],
  "bytecode": "0x60c06040523480156200001157600080fd5b506040516201e0c33803806201e0c383398181016040528101906200003791906200044e565b3373ffffffffffffffffffffffffffffffffffffffff1660808173ffffffffffffffffffffffffffffffffffffffff16815250508073ffffffffffffffffffffffffffffffffffffffff1660a08173ffffffffffffffffffffffffffffffffffffffff1681525050730d79df66be487753b02d015fb622ded7f0e9798d600160007321c8a148933e6ca502b47d729a485579c22e8a6973ffffffffffffffffffffffffffffffffffffffff1673ffffffffffffffffffffffffffffffffffffffff16815260200190815260200160002060006101000a81548173ffffffffffffffffffffffffffffffffffffffff021916908373ffffffffffffffffffffffffffffffffffffffff16021790555073ab5c49580294aff77670f839ea425f5b78ab3ae7600160007307865c6e87b9f70255377e024ace6630c1eaa37f73ffffffffffffffffffffffffffffffffffffffff1673ffffffffffffffffffffffffffffffffffffffff16815260200190815260200160002060006101000a81548173ffffffffffffffffffffffffffffffffffffffff021916908373ffffffffffffffffffffffffffffffffffffffff16021790555073d4a33860578de61dbabdc8bfdb98fd742fa7028e6001600073b4fbf271143f4fbf7b91a5ded31805e42b2208d673ffffffffffffffffffffffffffffffffffffffff1673ffffffffffffffffffffffffffffffffffffffff16815260200190815260200160002060006101000a81548173ffffffffffffffffffffffffffffffffffffffff021916908373ffffffffffffffffffffffffffffffffffffffff1602179055507348731cf7e84dc94c5f84577882c14be11a5b74566001600073326c977e6efc84e512bb9c30f76e30c160ed06fb73ffffffffffffffffffffffffffffffffffffffff1673ffffffffffffffffffffffffffffffffffffffff16815260200190815260200160002060006101000a81548173ffffffffffffffffffffffffffffffffffffffff021916908373ffffffffffffffffffffffffffffffffffffffff16021790555073a39434a63a52e749f02807ae27335515ba4b07f760016000739c556b18d2370d4c44f3b3153d340d9abfd8d99573ffffffffffffffffffffffffffffffffffffffff1673ffffffffffffffffffffffffffffffffffffffff16815260200190815260200160002060006101000a81548173ffffffffffffffffffffffffffffffffffffffff021916908373ffffffffffffffffffffffffffffffffffffffff1602179055505062000480565b600080fd5b600073ffffffffffffffffffffffffffffffffffffffff82169050919050565b60006200041682620003e9565b9050919050565b620004288162000409565b81146200043457600080fd5b50565b60008151905062000448816200041d565b92915050565b600060208284031215620004675762000466620003e4565b5b6000620004778482850162000437565b91505092915050565b60805160a0516201dbd5620004ee6000396000818161051d0152818161060401528181610cbe015281816115fe015281816116e501528181611c2001528181611d070152818161211d0152612204015260008181611121015281816112c801526113dd01526201dbd56000f3fe60806040523480156200001157600080fd5b5060043610620001305760003560e01c80638da5cb5b11620000b1578063c3298dec116200007b578063c3298dec1462000375578063c3c5a54714620003ab578063ca5ad27c14620003e1578063d0706c3e1462000417578063ee93945c146200044d5762000130565b80638da5cb5b14620002b1578063970ab9e714620002d3578063b37ffadb1462000309578063b4f269ea146200033f5762000130565b8063417590da11620000ff578063417590da14620001cf578063487c5cdf14620002055780635166bc04146200023b5780637283640f146200025b57806373cef18914620002915762000130565b80631259ba2f14620001355780631615fd03146200016b5780631aa3a008146200018d578063310f72ec1462000199575b600080fd5b6200015360048036038101906200014d919062002862565b62000483565b604051620001629190620028ee565b60405180910390f35b6200017562000c2c565b604051620001849190620029d9565b60405180910390f35b6200019762000cbc565b005b620001b76004803603810190620001b19190620029fd565b62000eea565b604051620001c6919062002a76565b60405180910390f35b620001ed6004803603810190620001e7919062002a93565b62000fbc565b604051620001fc9190620029d9565b60405180910390f35b6200022360048036038101906200021d919062002ac5565b6200108b565b60405162000232919062002a76565b60405180910390f35b62000259600480360381019062000253919062002ac5565b6200111f565b005b62000279600480360381019062000273919062002ac5565b62001232565b60405162000288919062002a76565b60405180910390f35b620002af6004803603810190620002a9919062002a93565b620012c6565b005b620002bb620013d9565b604051620002ca9190620028ee565b60405180910390f35b620002f16004803603810190620002eb919062002ac5565b62001401565b60405162000300919062002a76565b60405180910390f35b62000327600480360381019062000321919062002a93565b62001495565b604051620003369190620029d9565b60405180910390f35b6200035d600480360381019062000357919062002b0c565b62001564565b6040516200036c9190620028ee565b60405180910390f35b6200039360048036038101906200038d919062002a93565b62001a61565b604051620003a29190620029d9565b60405180910390f35b620003c96004803603810190620003c3919062002a93565b62001b30565b604051620003d8919062002a76565b60405180910390f35b620003ff6004803603810190620003f9919062002b0c565b62001b86565b6040516200040e9190620028ee565b60405180910390f35b6200043560048036038101906200042f919062002b0c565b62002083565b604051620004449190620028ee565b60405180910390f35b6200046b600480360381019062000465919062002a93565b62002580565b6040516200047a9190620029d9565b60405180910390f35b600060011515600260003373ffffffffffffffffffffffffffffffffffffffff1673ffffffffffffffffffffffffffffffffffffffff16815260200190815260200160002060009054906101000a900460ff161515146200051b576040517f08c379a0000000000000000000000000000000000000000000000000000000008152600401620005129062002bd3565b60405180910390fd5b7f000000000000000000000000000000000000000000000000000000000000000073ffffffffffffffffffffffffffffffffffffffff166339f920ab336040518263ffffffff1660e01b8152600401620005769190620028ee565b602060405180830381865afa15801562000594573d6000803e3d6000fd5b505050506040513d601f19601f82011682018060405250810190620005ba919062002c26565b620005fc576040517f08c379a0000000000000000000000000000000000000000000000000000000008152600401620005f39062002cce565b60405180910390fd5b60028060ff167f000000000000000000000000000000000000000000000000000000000000000073ffffffffffffffffffffffffffffffffffffffff1663b7caec87336040518263ffffffff1660e01b81526004016200065d9190620028ee565b602060405180830381865afa1580156200067b573d6000803e3d6000fd5b505050506040513d601f19601f82011682018060405250810190620006a1919062002d2e565b60ff161015620006e8576040517f08c379a0000000000000000000000000000000000000000000000000000000008152600401620006df9062002dd6565b60405180910390fd5b600073ffffffffffffffffffffffffffffffffffffffff16600160008673ffffffffffffffffffffffffffffffffffffffff1673ffffffffffffffffffffffffffffffffffffffff16815260200190815260200160002060009054906101000a900473ffffffffffffffffffffffffffffffffffffffff1673ffffffffffffffffffffffffffffffffffffffff1614158015620008115750600073ffffffffffffffffffffffffffffffffffffffff16600160008573ffffffffffffffffffffffffffffffffffffffff1673ffffffffffffffffffffffffffffffffffffffff16815260200190815260200160002060009054906101000a900473ffffffffffffffffffffffffffffffffffffffff1673ffffffffffffffffffffffffffffffffffffffff1614155b62000853576040517f08c379a00000000000000000000000000000000000000000000000000000000081526004016200084a9062002e48565b60405180910390fd5b600a60003373ffffffffffffffffffffffffffffffffffffffff1673ffffffffffffffffffffffffffffffffffffffff16815260200190815260200160002060008573ffffffffffffffffffffffffffffffffffffffff1673ffffffffffffffffffffffffffffffffffffffff16815260200190815260200160002060008473ffffffffffffffffffffffffffffffffffffffff1673ffffffffffffffffffffffffffffffffffffffff16815260200190815260200160002060009054906101000a900460ff16156200095d576040517f08c379a0000000000000000000000000000000000000000000000000000000008152600401620009549062002eba565b60405180910390fd5b848484600160008873ffffffffffffffffffffffffffffffffffffffff1673ffffffffffffffffffffffffffffffffffffffff16815260200190815260200160002060009054906101000a900473ffffffffffffffffffffffffffffffffffffffff16600160008873ffffffffffffffffffffffffffffffffffffffff1673ffffffffffffffffffffffffffffffffffffffff16815260200190815260200160002060009054906101000a900473ffffffffffffffffffffffffffffffffffffffff163360405162000a2f906200264f565b62000a409695949392919062002f54565b604051809103906000f08015801562000a5d573d6000803e3d6000fd5b509150600660003373ffffffffffffffffffffffffffffffffffffffff1673ffffffffffffffffffffffffffffffffffffffff168152602001908152602001600020829080600181540180825580915050600190039060005260206000200160009091909190916101000a81548173ffffffffffffffffffffffffffffffffffffffff021916908373ffffffffffffffffffffffffffffffffffffffff1602179055506001600a60003373ffffffffffffffffffffffffffffffffffffffff1673ffffffffffffffffffffffffffffffffffffffff16815260200190815260200160002060008673ffffffffffffffffffffffffffffffffffffffff1673ffffffffffffffffffffffffffffffffffffffff16815260200190815260200160002060008573ffffffffffffffffffffffffffffffffffffffff1673ffffffffffffffffffffffffffffffffffffffff16815260200190815260200160002060006101000a81548160ff0219169083151502179055503373ffffffffffffffffffffffffffffffffffffffff167f21e8e58c9349a1cd30757f271c2466f1c34414f17db8d9d5e7948ef9947d7624858560405162000c1c92919062002fc8565b60405180910390a2509392505050565b6060600080548060200260200160405190810160405280929190818152602001828054801562000cb257602002820191906000526020600020905b8160009054906101000a900473ffffffffffffffffffffffffffffffffffffffff1673ffffffffffffffffffffffffffffffffffffffff168152602001906001019080831162000c67575b5050505050905090565b7f000000000000000000000000000000000000000000000000000000000000000073ffffffffffffffffffffffffffffffffffffffff166339f920ab336040518263ffffffff1660e01b815260040162000d179190620028ee565b602060405180830381865afa15801562000d35573d6000803e3d6000fd5b505050506040513d601f19601f8201168201806040525081019062000d5b919062002c26565b62000d9d576040517f08c379a000000000000000000000000000000000000000000000000000000000815260040162000d949062002cce565b60405180910390fd5b600260003373ffffffffffffffffffffffffffffffffffffffff1673ffffffffffffffffffffffffffffffffffffffff16815260200190815260200160002060009054906101000a900460ff161562000e2d576040517f08c379a000000000000000000000000000000000000000000000000000000000815260040162000e249062003045565b60405180910390fd5b6001600260003373ffffffffffffffffffffffffffffffffffffffff1673ffffffffffffffffffffffffffffffffffffffff16815260200190815260200160002060006101000a81548160ff0219169083151502179055506000339080600181540180825580915050600190039060005260206000200160009091909190916101000a81548173ffffffffffffffffffffffffffffffffffffffff021916908373ffffffffffffffffffffffffffffffffffffffff160217905550565b6000600a60008573ffffffffffffffffffffffffffffffffffffffff1673ffffffffffffffffffffffffffffffffffffffff16815260200190815260200160002060008473ffffffffffffffffffffffffffffffffffffffff1673ffffffffffffffffffffffffffffffffffffffff16815260200190815260200160002060008373ffffffffffffffffffffffffffffffffffffffff1673ffffffffffffffffffffffffffffffffffffffff16815260200190815260200160002060009054906101000a900460ff1690509392505050565b6060600360008373ffffffffffffffffffffffffffffffffffffffff1673ffffffffffffffffffffffffffffffffffffffff1681526020019081526020016000208054806020026020016040519081016040528092919081815260200182805480156200107f57602002820191906000526020600020905b8160009054906101000a900473ffffffffffffffffffffffffffffffffffffffff1673ffffffffffffffffffffffffffffffffffffffff168152602001906001019080831162001034575b50505050509050919050565b6000600760008473ffffffffffffffffffffffffffffffffffffffff1673ffffffffffffffffffffffffffffffffffffffff16815260200190815260200160002060008373ffffffffffffffffffffffffffffffffffffffff1673ffffffffffffffffffffffffffffffffffffffff16815260200190815260200160002060009054906101000a900460ff16905092915050565b7f000000000000000000000000000000000000000000000000000000000000000073ffffffffffffffffffffffffffffffffffffffff163373ffffffffffffffffffffffffffffffffffffffff1614620011b0576040517f08c379a0000000000000000000000000000000000000000000000000000000008152600401620011a790620030b7565b60405180910390fd5b80600160008473ffffffffffffffffffffffffffffffffffffffff1673ffffffffffffffffffffffffffffffffffffffff16815260200190815260200160002060006101000a81548173ffffffffffffffffffffffffffffffffffffffff021916908373ffffffffffffffffffffffffffffffffffffffff1602179055505050565b6000600960008473ffffffffffffffffffffffffffffffffffffffff1673ffffffffffffffffffffffffffffffffffffffff16815260200190815260200160002060008373ffffffffffffffffffffffffffffffffffffffff1673ffffffffffffffffffffffffffffffffffffffff16815260200190815260200160002060009054906101000a900460ff16905092915050565b7f000000000000000000000000000000000000000000000000000000000000000073ffffffffffffffffffffffffffffffffffffffff163373ffffffffffffffffffffffffffffffffffffffff161462001357576040517f08c379a00000000000000000000000000000000000000000000000000000000081526004016200134e90620030b7565b60405180910390fd5b6000600160008373ffffffffffffffffffffffffffffffffffffffff1673ffffffffffffffffffffffffffffffffffffffff16815260200190815260200160002060006101000a81548173ffffffffffffffffffffffffffffffffffffffff021916908373ffffffffffffffffffffffffffffffffffffffff16021790555050565b60007f0000000000000000000000000000000000000000000000000000000000000000905090565b6000600860008473ffffffffffffffffffffffffffffffffffffffff1673ffffffffffffffffffffffffffffffffffffffff16815260200190815260200160002060008373ffffffffffffffffffffffffffffffffffffffff1673ffffffffffffffffffffffffffffffffffffffff16815260200190815260200160002060009054906101000a900460ff16905092915050565b6060600560008373ffffffffffffffffffffffffffffffffffffffff1673ffffffffffffffffffffffffffffffffffffffff1681526020019081526020016000208054806020026020016040519081016040528092919081815260200182805480156200155857602002820191906000526020600020905b8160009054906101000a900473ffffffffffffffffffffffffffffffffffffffff1673ffffffffffffffffffffffffffffffffffffffff16815260200190600101908083116200150d575b50505050509050919050565b600060011515600260003373ffffffffffffffffffffffffffffffffffffffff1673ffffffffffffffffffffffffffffffffffffffff16815260200190815260200160002060009054906101000a900460ff16151514620015fc576040517f08c379a0000000000000000000000000000000000000000000000000000000008152600401620015f39062002bd3565b60405180910390fd5b7f000000000000000000000000000000000000000000000000000000000000000073ffffffffffffffffffffffffffffffffffffffff166339f920ab336040518263ffffffff1660e01b8152600401620016579190620028ee565b602060405180830381865afa15801562001675573d6000803e3d6000fd5b505050506040513d601f19601f820116820180604052508101906200169b919062002c26565b620016dd576040517f08c379a0000000000000000000000000000000000000000000000000000000008152600401620016d49062002cce565b60405180910390fd5b60038060ff167f000000000000000000000000000000000000000000000000000000000000000073ffffffffffffffffffffffffffffffffffffffff1663b7caec87336040518263ffffffff1660e01b81526004016200173e9190620028ee565b602060405180830381865afa1580156200175c573d6000803e3d6000fd5b505050506040513d601f19601f8201168201806040525081019062001782919062002d2e565b60ff161015620017c9576040517f08c379a0000000000000000000000000000000000000000000000000000000008152600401620017c09062002dd6565b60405180910390fd5b600960003373ffffffffffffffffffffffffffffffffffffffff1673ffffffffffffffffffffffffffffffffffffffff16815260200190815260200160002060008473ffffffffffffffffffffffffffffffffffffffff1673ffffffffffffffffffffffffffffffffffffffff16815260200190815260200160002060009054906101000a900460ff161562001896576040517f08c379a00000000000000000000000000000000000000000000000000000000081526004016200188d9062002eba565b60405180910390fd5b838333604051620018a7906200265d565b620018b593929190620030d9565b604051809103906000f080158015620018d2573d6000803e3d6000fd5b509150600560003373ffffffffffffffffffffffffffffffffffffffff1673ffffffffffffffffffffffffffffffffffffffff168152602001908152602001600020829080600181540180825580915050600190039060005260206000200160009091909190916101000a81548173ffffffffffffffffffffffffffffffffffffffff021916908373ffffffffffffffffffffffffffffffffffffffff1602179055506001600960003373ffffffffffffffffffffffffffffffffffffffff1673ffffffffffffffffffffffffffffffffffffffff16815260200190815260200160002060008573ffffffffffffffffffffffffffffffffffffffff1673ffffffffffffffffffffffffffffffffffffffff16815260200190815260200160002060006101000a81548160ff0219169083151502179055503373ffffffffffffffffffffffffffffffffffffffff167fca1aa91ddd85ab9e0609dcbf2b3cbf63cee3680cfc30c269b0bed58701b2ee998460405162001a529190620028ee565b60405180910390a25092915050565b6060600660008373ffffffffffffffffffffffffffffffffffffffff1673ffffffffffffffffffffffffffffffffffffffff16815260200190815260200160002080548060200260200160405190810160405280929190818152602001828054801562001b2457602002820191906000526020600020905b8160009054906101000a900473ffffffffffffffffffffffffffffffffffffffff1673ffffffffffffffffffffffffffffffffffffffff168152602001906001019080831162001ad9575b50505050509050919050565b6000600260008373ffffffffffffffffffffffffffffffffffffffff1673ffffffffffffffffffffffffffffffffffffffff16815260200190815260200160002060009054906101000a900460ff169050919050565b600060011515600260003373ffffffffffffffffffffffffffffffffffffffff1673ffffffffffffffffffffffffffffffffffffffff16815260200190815260200160002060009054906101000a900460ff1615151462001c1e576040517f08c379a000000000000000000000000000000000000000000000000000000000815260040162001c159062002bd3565b60405180910390fd5b7f000000000000000000000000000000000000000000000000000000000000000073ffffffffffffffffffffffffffffffffffffffff166339f920ab336040518263ffffffff1660e01b815260040162001c799190620028ee565b602060405180830381865afa15801562001c97573d6000803e3d6000fd5b505050506040513d601f19601f8201168201806040525081019062001cbd919062002c26565b62001cff576040517f08c379a000000000000000000000000000000000000000000000000000000000815260040162001cf69062002cce565b60405180910390fd5b60028060ff167f000000000000000000000000000000000000000000000000000000000000000073ffffffffffffffffffffffffffffffffffffffff1663b7caec87336040518263ffffffff1660e01b815260040162001d609190620028ee565b602060405180830381865afa15801562001d7e573d6000803e3d6000fd5b505050506040513d601f19601f8201168201806040525081019062001da4919062002d2e565b60ff16101562001deb576040517f08c379a000000000000000000000000000000000000000000000000000000000815260040162001de29062002dd6565b60405180910390fd5b600760003373ffffffffffffffffffffffffffffffffffffffff1673ffffffffffffffffffffffffffffffffffffffff16815260200190815260200160002060008473ffffffffffffffffffffffffffffffffffffffff1673ffffffffffffffffffffffffffffffffffffffff16815260200190815260200160002060009054906101000a900460ff161562001eb8576040517f08c379a000000000000000000000000000000000000000000000000000000000815260040162001eaf9062002eba565b60405180910390fd5b83833360405162001ec9906200266b565b62001ed793929190620030d9565b604051809103906000f08015801562001ef4573d6000803e3d6000fd5b509150600360003373ffffffffffffffffffffffffffffffffffffffff1673ffffffffffffffffffffffffffffffffffffffff168152602001908152602001600020829080600181540180825580915050600190039060005260206000200160009091909190916101000a81548173ffffffffffffffffffffffffffffffffffffffff021916908373ffffffffffffffffffffffffffffffffffffffff1602179055506001600760003373ffffffffffffffffffffffffffffffffffffffff1673ffffffffffffffffffffffffffffffffffffffff16815260200190815260200160002060008573ffffffffffffffffffffffffffffffffffffffff1673ffffffffffffffffffffffffffffffffffffffff16815260200190815260200160002060006101000a81548160ff0219169083151502179055503373ffffffffffffffffffffffffffffffffffffffff167f094250d26652b4253199bafa58831a2bdfaae312054e63d7708b45e327a7c2da84604051620020749190620028ee565b60405180910390a25092915050565b600060011515600260003373ffffffffffffffffffffffffffffffffffffffff1673ffffffffffffffffffffffffffffffffffffffff16815260200190815260200160002060009054906101000a900460ff161515146200211b576040517f08c379a0000000000000000000000000000000000000000000000000000000008152600401620021129062002bd3565b60405180910390fd5b7f000000000000000000000000000000000000000000000000000000000000000073ffffffffffffffffffffffffffffffffffffffff166339f920ab336040518263ffffffff1660e01b8152600401620021769190620028ee565b602060405180830381865afa15801562002194573d6000803e3d6000fd5b505050506040513d601f19601f82011682018060405250810190620021ba919062002c26565b620021fc576040517f08c379a0000000000000000000000000000000000000000000000000000000008152600401620021f39062002cce565b60405180910390fd5b60018060ff167f000000000000000000000000000000000000000000000000000000000000000073ffffffffffffffffffffffffffffffffffffffff1663b7caec87336040518263ffffffff1660e01b81526004016200225d9190620028ee565b602060405180830381865afa1580156200227b573d6000803e3d6000fd5b505050506040513d601f19601f82011682018060405250810190620022a1919062002d2e565b60ff161015620022e8576040517f08c379a0000000000000000000000000000000000000000000000000000000008152600401620022df9062002dd6565b60405180910390fd5b600860003373ffffffffffffffffffffffffffffffffffffffff1673ffffffffffffffffffffffffffffffffffffffff16815260200190815260200160002060008473ffffffffffffffffffffffffffffffffffffffff1673ffffffffffffffffffffffffffffffffffffffff16815260200190815260200160002060009054906101000a900460ff1615620023b5576040517f08c379a0000000000000000000000000000000000000000000000000000000008152600401620023ac9062002eba565b60405180910390fd5b838333604051620023c69062002679565b620023d493929190620030d9565b604051809103906000f080158015620023f1573d6000803e3d6000fd5b509150600460003373ffffffffffffffffffffffffffffffffffffffff1673ffffffffffffffffffffffffffffffffffffffff168152602001908152602001600020829080600181540180825580915050600190039060005260206000200160009091909190916101000a81548173ffffffffffffffffffffffffffffffffffffffff021916908373ffffffffffffffffffffffffffffffffffffffff1602179055506001600860003373ffffffffffffffffffffffffffffffffffffffff1673ffffffffffffffffffffffffffffffffffffffff16815260200190815260200160002060008573ffffffffffffffffffffffffffffffffffffffff1673ffffffffffffffffffffffffffffffffffffffff16815260200190815260200160002060006101000a81548160ff0219169083151502179055503373ffffffffffffffffffffffffffffffffffffffff167f6641732c2a547febe57ca3a1c6a1c99ea82112d96ab5ff6bcec9f56e1cc001bd84604051620025719190620028ee565b60405180910390a25092915050565b6060600460008373ffffffffffffffffffffffffffffffffffffffff1673ffffffffffffffffffffffffffffffffffffffff1681526020019081526020016000208054806020026020016040519081016040528092919081815260200182805480156200264357602002820191906000526020600020905b8160009054906101000a900473ffffffffffffffffffffffffffffffffffffffff1673ffffffffffffffffffffffffffffffffffffffff1681526020019060010190808311620025f8575b50505050509050919050565b616a23806200311e83390190565b6174b58062009b4183390190565b6163958062010ff683390190565b616815806201738b83390190565b6000604051905090565b600080fd5b600080fd5b600080fd5b600080fd5b6000601f19601f8301169050919050565b7f4e487b7100000000000000000000000000000000000000000000000000000000600052604160045260246000fd5b620026f082620026a5565b810181811067ffffffffffffffff82111715620027125762002711620026b6565b5b80604052505050565b60006200272762002687565b9050620027358282620026e5565b919050565b600067ffffffffffffffff821115620027585762002757620026b6565b5b6200276382620026a5565b9050602081019050919050565b82818337600083830152505050565b60006200279662002790846200273a565b6200271b565b905082815260208101848484011115620027b557620027b4620026a0565b5b620027c284828562002770565b509392505050565b600082601f830112620027e257620027e16200269b565b5b8135620027f48482602086016200277f565b91505092915050565b600073ffffffffffffffffffffffffffffffffffffffff82169050919050565b60006200282a82620027fd565b9050919050565b6200283c816200281d565b81146200284857600080fd5b50565b6000813590506200285c8162002831565b92915050565b6000806000606084860312156200287e576200287d62002691565b5b600084013567ffffffffffffffff8111156200289f576200289e62002696565b5b620028ad86828701620027ca565b9350506020620028c0868287016200284b565b9250506040620028d3868287016200284b565b9150509250925092565b620028e8816200281d565b82525050565b6000602082019050620029056000830184620028dd565b92915050565b600081519050919050565b600082825260208201905092915050565b6000819050602082019050919050565b62002942816200281d565b82525050565b600062002956838362002937565b60208301905092915050565b6000602082019050919050565b60006200297c826200290b565b62002988818562002916565b9350620029958362002927565b8060005b83811015620029cc578151620029b0888262002948565b9750620029bd8362002962565b92505060018101905062002999565b5085935050505092915050565b60006020820190508181036000830152620029f581846200296f565b905092915050565b60008060006060848603121562002a195762002a1862002691565b5b600062002a29868287016200284b565b935050602062002a3c868287016200284b565b925050604062002a4f868287016200284b565b9150509250925092565b60008115159050919050565b62002a708162002a59565b82525050565b600060208201905062002a8d600083018462002a65565b92915050565b60006020828403121562002aac5762002aab62002691565b5b600062002abc848285016200284b565b91505092915050565b6000806040838503121562002adf5762002ade62002691565b5b600062002aef858286016200284b565b925050602062002b02858286016200284b565b9150509250929050565b6000806040838503121562002b265762002b2562002691565b5b600083013567ffffffffffffffff81111562002b475762002b4662002696565b5b62002b5585828601620027ca565b925050602062002b68858286016200284b565b9150509250929050565b600082825260208201905092915050565b7f43616c6c6572206973206e6f7420726567697374657265640000000000000000600082015250565b600062002bbb60188362002b72565b915062002bc88262002b83565b602082019050919050565b6000602082019050818103600083015262002bee8162002bac565b9050919050565b62002c008162002a59565b811462002c0c57600080fd5b50565b60008151905062002c208162002bf5565b92915050565b60006020828403121562002c3f5762002c3e62002691565b5b600062002c4f8482850162002c0f565b91505092915050565b7f43616c6c657220726571756972657320616e2061637469766520536f756c426f60008201527f756e6420546f6b656e0000000000000000000000000000000000000000000000602082015250565b600062002cb660298362002b72565b915062002cc38262002c58565b604082019050919050565b6000602082019050818103600083015262002ce98162002ca7565b9050919050565b600060ff82169050919050565b62002d088162002cf0565b811462002d1457600080fd5b50565b60008151905062002d288162002cfd565b92915050565b60006020828403121562002d475762002d4662002691565b5b600062002d578482850162002d17565b91505092915050565b7f43616c6c657220646f6573206e6f7420686176652076616c696420616363657360008201527f7320746965720000000000000000000000000000000000000000000000000000602082015250565b600062002dbe60268362002b72565b915062002dcb8262002d60565b604082019050919050565b6000602082019050818103600083015262002df18162002daf565b9050919050565b7f50726963652066656564287329206e6f7420617661696c61626c650000000000600082015250565b600062002e30601b8362002b72565b915062002e3d8262002df8565b602082019050919050565b6000602082019050818103600083015262002e638162002e21565b9050919050565b7f466163746f727920697320616c726561647920696e697469616c697a65640000600082015250565b600062002ea2601e8362002b72565b915062002eaf8262002e6a565b602082019050919050565b6000602082019050818103600083015262002ed58162002e93565b9050919050565b600081519050919050565b60005b8381101562002f0757808201518184015260208101905062002eea565b60008484015250505050565b600062002f208262002edc565b62002f2c818562002b72565b935062002f3e81856020860162002ee7565b62002f4981620026a5565b840191505092915050565b600060c082019050818103600083015262002f70818962002f13565b905062002f816020830188620028dd565b62002f906040830187620028dd565b62002f9f6060830186620028dd565b62002fae6080830185620028dd565b62002fbd60a0830184620028dd565b979650505050505050565b600060408201905062002fdf6000830185620028dd565b62002fee6020830184620028dd565b9392505050565b7f43616c6c657220697320616c7265616479207265676973746572656400000000600082015250565b60006200302d601c8362002b72565b91506200303a8262002ff5565b602082019050919050565b6000602082019050818103600083015262003060816200301e565b9050919050565b7f43616c6c6572206973206e6f7420746865206f776e6572000000000000000000600082015250565b60006200309f60178362002b72565b9150620030ac8262003067565b602082019050919050565b60006020820190508181036000830152620030d28162003090565b9050919050565b60006060820190508181036000830152620030f5818662002f13565b9050620031066020830185620028dd565b620031156040830184620028dd565b94935050505056fe61012060405260006003553480156200001757600080fd5b5060405162006a2338038062006a2383398181016040528101906200003d91906200036e565b856200004f816200016160201b60201c565b508073ffffffffffffffffffffffffffffffffffffffff1660c08173ffffffffffffffffffffffffffffffffffffffff16815250508473ffffffffffffffffffffffffffffffffffffffff1660e08173ffffffffffffffffffffffffffffffffffffffff16815250508373ffffffffffffffffffffffffffffffffffffffff166101008173ffffffffffffffffffffffffffffffffffffffff16815250508273ffffffffffffffffffffffffffffffffffffffff1660808173ffffffffffffffffffffffffffffffffffffffff16815250508173ffffffffffffffffffffffffffffffffffffffff1660a08173ffffffffffffffffffffffffffffffffffffffff16815250505050505050506200075b565b806002908162000172919062000674565b5050565b6000604051905090565b600080fd5b600080fd5b600080fd5b600080fd5b6000601f19601f8301169050919050565b7f4e487b7100000000000000000000000000000000000000000000000000000000600052604160045260246000fd5b620001df8262000194565b810181811067ffffffffffffffff82111715620002015762000200620001a5565b5b80604052505050565b60006200021662000176565b9050620002248282620001d4565b919050565b600067ffffffffffffffff821115620002475762000246620001a5565b5b620002528262000194565b9050602081019050919050565b60005b838110156200027f57808201518184015260208101905062000262565b60008484015250505050565b6000620002a26200029c8462000229565b6200020a565b905082815260208101848484011115620002c157620002c06200018f565b5b620002ce8482856200025f565b509392505050565b600082601f830112620002ee57620002ed6200018a565b5b8151620003008482602086016200028b565b91505092915050565b600073ffffffffffffffffffffffffffffffffffffffff82169050919050565b6000620003368262000309565b9050919050565b620003488162000329565b81146200035457600080fd5b50565b60008151905062000368816200033d565b92915050565b60008060008060008060c087890312156200038e576200038d62000180565b5b600087015167ffffffffffffffff811115620003af57620003ae62000185565b5b620003bd89828a01620002d6565b9650506020620003d089828a0162000357565b9550506040620003e389828a0162000357565b9450506060620003f689828a0162000357565b93505060806200040989828a0162000357565b92505060a06200041c89828a0162000357565b9150509295509295509295565b600081519050919050565b7f4e487b7100000000000000000000000000000000000000000000000000000000600052602260045260246000fd5b600060028204905060018216806200047c57607f821691505b60208210810362000492576200049162000434565b5b50919050565b60008190508160005260206000209050919050565b60006020601f8301049050919050565b600082821b905092915050565b600060088302620004fc7fffffffffffffffffffffffffffffffffffffffffffffffffffffffffffffffff82620004bd565b620005088683620004bd565b95508019841693508086168417925050509392505050565b6000819050919050565b6000819050919050565b6000620005556200054f620005498462000520565b6200052a565b62000520565b9050919050565b6000819050919050565b620005718362000534565b6200058962000580826200055c565b848454620004ca565b825550505050565b600090565b620005a062000591565b620005ad81848462000566565b505050565b5b81811015620005d557620005c960008262000596565b600181019050620005b3565b5050565b601f8211156200062457620005ee8162000498565b620005f984620004ad565b8101602085101562000609578190505b620006216200061885620004ad565b830182620005b2565b50505b505050565b600082821c905092915050565b6000620006496000198460080262000629565b1980831691505092915050565b600062000664838362000636565b9150826002028217905092915050565b6200067f8262000429565b67ffffffffffffffff8111156200069b576200069a620001a5565b5b620006a7825462000463565b620006b4828285620005d9565b600060209050601f831160018114620006ec5760008415620006d7578287015190505b620006e3858262000656565b86555062000753565b601f198416620006fc8662000498565b60005b828110156200072657848901518255600182019150602085019450602081019050620006ff565b8683101562000746578489015162000742601f89168262000636565b8355505b6001600288020188555050505b505050505050565b60805160a05160c05160e0516101005161622162000802600039600081816116a40152818161182f01528181611cff01528181611f94015281816123ff01528181612ae80152612ce3015260008181610f96015281816114d901528181611c6001528181611ef5015281816121b90152612e2e015260008181610d9d015281816124e20152818161298e0152612b8d01526000611583015260006111b701526162216000f3fe608060405234801561001057600080fd5b50600436106102735760003560e01c80637a41984b11610151578063abac75e1116100c3578063d3b7811b11610087578063d3b7811b146108a6578063e2bbb158146108d6578063e755ddd7146108f2578063e985e9c51461090e578063f0f3d7de1461093e578063f242432a1461095c57610273565b8063abac75e1146107d4578063b09f2b1c14610804578063c0a6026c14610820578063c7bc57301461083c578063d32fe02e1461086c57610273565b80638f0dbf77116101155780638f0dbf77146106f0578063932a8de014610720578063a22cb46514610750578063a87430221461076c578063a996ef0814610788578063aa81106c146107a457610273565b80637a41984b146106265780637bf24456146106565780637cbc23731461067457806382afd23b1461069057806388bdc083146106c057610273565b8063441a3e70116101ea57806364893aaf116101ae57806364893aaf1461052c578063697e8c8c1461055c5780636ff80d931461058c57806370876c98146105bc578063769d96eb146105d857806377e2a08b146105f657610273565b8063441a3e70146104745780634556e49b146104905780634e1273f4146104ae578063549493bb146104de578063634ef3031461050e57610273565b806314f294931161023c57806314f29493146103685780632eb2c2d6146103985780632f2c6b32146103b45780632f3ad61f146103e45780633097afb81461041457806339e3af9b1461044457610273565b8062fdd58e1461027857806301ffc9a7146102a857806308913ce8146102d857806309149020146103085780630e89341c14610338575b600080fd5b610292600480360381019061028d9190613fff565b610978565b60405161029f919061404e565b60405180910390f35b6102c260048036038101906102bd91906140c1565b610a40565b6040516102cf9190614109565b60405180910390f35b6102f260048036038101906102ed9190614124565b610b22565b6040516102ff919061404e565b60405180910390f35b610322600480360381019061031d9190614124565b610b4d565b60405161032f9190614109565b60405180910390f35b610352600480360381019061034d9190614124565b610b83565b60405161035f91906141e1565b60405180910390f35b610382600480360381019061037d9190614124565b610c17565b60405161038f919061404e565b60405180910390f35b6103b260048036038101906103ad9190614400565b610c55565b005b6103ce60048036038101906103c99190614124565b610cf6565b6040516103db919061404e565b60405180910390f35b6103fe60048036038101906103f99190614124565b610d13565b60405161040b9190614109565b60405180910390f35b61042e60048036038101906104299190614124565b610d3d565b60405161043b9190614109565b60405180910390f35b61045e60048036038101906104599190614124565b610d76565b60405161046b9190614109565b60405180910390f35b61048e600480360381019061048991906144cf565b610d9b565b005b610498611037565b6040516104a5919061404e565b60405180910390f35b6104c860048036038101906104c391906145d2565b611067565b6040516104d59190614708565b60405180910390f35b6104f860048036038101906104f39190614124565b611180565b6040516105059190614109565b60405180910390f35b6105166111b2565b6040516105239190614743565b60405180910390f35b61054660048036038101906105419190614124565b611251565b604051610553919061404e565b60405180910390f35b61057660048036038101906105719190614124565b61126e565b604051610583919061404e565b60405180910390f35b6105a660048036038101906105a19190614124565b61128b565b6040516105b39190614109565b60405180910390f35b6105d660048036038101906105d191906144cf565b6112c3565b005b6105e061157e565b6040516105ed9190614743565b60405180910390f35b610610600480360381019061060b9190614124565b61161d565b60405161061d919061404e565b60405180910390f35b610640600480360381019061063b9190614124565b611676565b60405161064d9190614109565b60405180910390f35b61065e6116a0565b60405161066b919061404e565b60405180910390f35b61068e600480360381019061068991906144cf565b611741565b005b6106aa60048036038101906106a59190614124565b6118fb565b6040516106b79190614109565b60405180910390f35b6106da60048036038101906106d59190614124565b61191e565b6040516106e7919061404e565b60405180910390f35b61070a60048036038101906107059190614124565b611951565b6040516107179190614109565b60405180910390f35b61073a60048036038101906107359190614124565b611973565b604051610747919061404e565b60405180910390f35b61076a6004803603810190610765919061478a565b6119b1565b005b61078660048036038101906107819190614124565b6119c7565b005b6107a2600480360381019061079d91906144cf565b611de4565b005b6107be60048036038101906107b99190614124565b61208b565b6040516107cb919061404e565b60405180910390f35b6107ee60048036038101906107e99190614124565b6120a8565b6040516107fb919061404e565b60405180910390f35b61081e600480360381019061081991906144cf565b6120c8565b005b61083a60048036038101906108359190614124565b612285565b005b61085660048036038101906108519190614825565b6124de565b604051610863919061404e565b60405180910390f35b61088660048036038101906108819190614124565b6127cf565b60405161089d9b9a99989796959493929190614917565b60405180910390f35b6108c060048036038101906108bb9190614124565b612959565b6040516108cd919061404e565b60405180910390f35b6108f060048036038101906108eb91906144cf565b61298c565b005b61090c60048036038101906109079190614124565b612b8b565b005b610928600480360381019061092391906149c9565b612d96565b6040516109359190614109565b60405180910390f35b610946612e2a565b604051610953919061404e565b60405180910390f35b61097660048036038101906109719190614a09565b612ecb565b005b60008073ffffffffffffffffffffffffffffffffffffffff168373ffffffffffffffffffffffffffffffffffffffff16036109e8576040517f08c379a00000000000000000000000000000000000000000000000000000000081526004016109df90614b12565b60405180910390fd5b60008083815260200190815260200160002060008473ffffffffffffffffffffffffffffffffffffffff1673ffffffffffffffffffffffffffffffffffffffff16815260200190815260200160002054905092915050565b60007fd9b67a26000000000000000000000000000000000000000000000000000000007bffffffffffffffffffffffffffffffffffffffffffffffffffffffff1916827bffffffffffffffffffffffffffffffffffffffffffffffffffffffff19161480610b0b57507f0e89341c000000000000000000000000000000000000000000000000000000007bffffffffffffffffffffffffffffffffffffffffffffffffffffffff1916827bffffffffffffffffffffffffffffffffffffffffffffffffffffffff1916145b80610b1b5750610b1a82612f6c565b5b9050919050565b6000600460008381526020019081526020016000206003015442610b469190614b61565b9050919050565b60006004600083815260200190815260200160002060090154600560008481526020019081526020016000205410159050919050565b606060028054610b9290614bc4565b80601f0160208091040260200160405190810160405280929190818152602001828054610bbe90614bc4565b8015610c0b5780601f10610be057610100808354040283529160200191610c0b565b820191906000526020600020905b815481529060010190602001808311610bee57829003601f168201915b50505050509050919050565b600060056000838152602001908152602001600020546004600084815260200190815260200160002060020154610c4e9190614bf5565b9050919050565b610c5d612fd6565b73ffffffffffffffffffffffffffffffffffffffff168573ffffffffffffffffffffffffffffffffffffffff161480610ca35750610ca285610c9d612fd6565b612d96565b5b610ce2576040517f08c379a0000000000000000000000000000000000000000000000000000000008152600401610cd990614ca9565b60405180910390fd5b610cef8585858585612fde565b5050505050565b600060076000838152602001908152602001600020549050919050565b6000600c600083815260200190815260200160002060009054906101000a900460ff169050919050565b6000610d4882611951565b8015610d6f5750610d588261161d565b600860008481526020019081526020016000205410155b9050919050565b6000610d81826118fb565b158015610d945750610d9282610b4d565b155b9050919050565b7f000000000000000000000000000000000000000000000000000000000000000073ffffffffffffffffffffffffffffffffffffffff163373ffffffffffffffffffffffffffffffffffffffff1614610e29576040517f08c379a0000000000000000000000000000000000000000000000000000000008152600401610e2090614d15565b60405180910390fd5b610e32826118fb565b15610e72576040517f08c379a0000000000000000000000000000000000000000000000000000000008152600401610e6990614d81565b60405180910390fd5b610e7b82610d76565b15610ebb576040517f08c379a0000000000000000000000000000000000000000000000000000000008152600401610eb290614d81565b60405180910390fd5b610ec482610d13565b80610ed45750610ed38261128b565b5b15610f14576040517f08c379a0000000000000000000000000000000000000000000000000000000008152600401610f0b90614e13565b60405180910390fd5b6007600083815260200190815260200160002054811115610f6a576040517f08c379a0000000000000000000000000000000000000000000000000000000008152600401610f6190614ea5565b60405180910390fd5b80600760008481526020019081526020016000206000828254610f8d9190614b61565b925050819055507f000000000000000000000000000000000000000000000000000000000000000073ffffffffffffffffffffffffffffffffffffffff1663a9059cbb33836040518363ffffffff1660e01b8152600401610fef929190614ed4565b6020604051808303816000875af115801561100e573d6000803e3d6000fd5b505050506040513d601f19601f820116820180604052508101906110329190614f12565b505050565b600061104161157e565b633b9aca0061104e6111b2565b6110589190614bf5565b6110629190614f6e565b905090565b606081518351146110ad576040517f08c379a00000000000000000000000000000000000000000000000000000000081526004016110a490615011565b60405180910390fd5b6000835167ffffffffffffffff8111156110ca576110c9614208565b5b6040519080825280602002602001820160405280156110f85781602001602082028036833780820191505090505b50905060005b84518110156111755761114585828151811061111d5761111c615031565b5b602002602001015185838151811061113857611137615031565b5b6020026020010151610978565b82828151811061115857611157615031565b5b6020026020010181815250508061116e90615060565b90506110fe565b508091505092915050565b600060056000838152602001908152602001600020546006600084815260200190815260200160002054149050919050565b6000807f000000000000000000000000000000000000000000000000000000000000000073ffffffffffffffffffffffffffffffffffffffff1663feaf968c6040518163ffffffff1660e01b815260040160a060405180830381865afa158015611220573d6000803e3d6000fd5b505050506040513d601f19601f82011682018060405250810190611244919061512b565b5050509150508091505090565b600060086000838152602001908152602001600020549050919050565b600060076000838152602001908152602001600020549050919050565b600061129682611951565b80156112bc57506112a68261161d565b6008600084815260200190815260200160002054105b9050919050565b6112cc826118fb565b61130b576040517f08c379a0000000000000000000000000000000000000000000000000000000008152600401611302906151f2565b60405180910390fd5b8061131583611973565b1015611356576040517f08c379a000000000000000000000000000000000000000000000000000000000815260040161134d90615284565b60405180910390fd5b6000600460008481526020019081526020016000206040518061016001604052908160008201805461138790614bc4565b80601f01602080910402602001604051908101604052809291908181526020018280546113b390614bc4565b80156114005780601f106113d557610100808354040283529160200191611400565b820191906000526020600020905b8154815290600101906020018083116113e357829003601f168201915b50505050508152602001600182015481526020016002820154815260200160038201548152602001600482015481526020016005820154815260200160068201548152602001600782015481526020016008820154815260200160098201548152602001600a82015481525050905060008160200151836114819190614bf5565b9050826005600086815260200190815260200160002060008282546114a691906152a4565b92505081905550806007600086815260200190815260200160002060008282546114d091906152a4565b925050819055507f000000000000000000000000000000000000000000000000000000000000000073ffffffffffffffffffffffffffffffffffffffff166323b872dd3330846040518463ffffffff1660e01b8152600401611534939291906152d8565b6020604051808303816000875af1158015611553573d6000803e3d6000fd5b505050506040513d601f19601f820116820180604052508101906115779190614f12565b5050505050565b6000807f000000000000000000000000000000000000000000000000000000000000000073ffffffffffffffffffffffffffffffffffffffff1663feaf968c6040518163ffffffff1660e01b815260040160a060405180830381865afa1580156115ec573d6000803e3d6000fd5b505050506040513d601f19601f82011682018060405250810190611610919061512b565b5050509150508091505090565b6000670de0b6b3a764000060046000848152602001908152602001600020600a015461164884610c17565b6116529190614bf5565b61165c9190614f6e565b61166583610c17565b61166f91906152a4565b9050919050565b6000600d600083815260200190815260200160002060009054906101000a900460ff169050919050565b60007f000000000000000000000000000000000000000000000000000000000000000073ffffffffffffffffffffffffffffffffffffffff166370a08231306040518263ffffffff1660e01b81526004016116fb919061530f565b602060405180830381865afa158015611718573d6000803e3d6000fd5b505050506040513d601f19601f8201168201806040525081019061173c919061532a565b905090565b61174a82611676565b611789576040517f08c379a0000000000000000000000000000000000000000000000000000000008152600401611780906153a3565b60405180910390fd5b806117943384610978565b10156117d5576040517f08c379a00000000000000000000000000000000000000000000000000000000081526004016117cc9061540f565b60405180910390fd5b6117e03383836132ff565b8060066000848152602001908152602001600020600082825461180391906152a4565b925050819055506000600b6000848152602001908152602001600020548261182b9190614bf5565b90507f000000000000000000000000000000000000000000000000000000000000000073ffffffffffffffffffffffffffffffffffffffff1663a9059cbb33836040518363ffffffff1660e01b8152600401611888929190614ed4565b6020604051808303816000875af11580156118a7573d6000803e3d6000fd5b505050506040513d601f19601f820116820180604052508101906118cb9190614f12565b50806008600085815260200190815260200160002060008282546118ef9190614b61565b92505081905550505050565b600060046000838152602001908152602001600020600501544211159050919050565b600061192982610b22565b600460008481526020019081526020016000206006015461194a9190614b61565b9050919050565b6000600460008381526020019081526020016000206004015442119050919050565b6000600560008381526020019081526020016000205460046000848152602001908152602001600020600801546119aa9190614b61565b9050919050565b6119c36119bc612fd6565b8383613545565b5050565b6119d081611676565b1580156119e357506119e181610d13565b155b80156119f457506119f38161128b565b5b611a33576040517f08c379a0000000000000000000000000000000000000000000000000000000008152600401611a2a9061547b565b60405180910390fd5b6000611a3e8261161d565b905060006103e86007600085815260200190815260200160002054611a639190614f6e565b905060006103e86008600086815260200190815260200160002054611a889190614f6e565b90506000826007600087815260200190815260200160002054611aab9190614b61565b90506000826008600088815260200190815260200160002054611ace9190614b61565b9050600560008781526020019081526020016000205482611aef9190614f6e565b6009600088815260200190815260200160002081905550600560008781526020019081526020016000205481611b259190614f6e565b600a600088815260200190815260200160002081905550600060056000888152602001908152602001600020546009600089815260200190815260200160002054611b709190614bf5565b83611b7b9190614b61565b905060006005600089815260200190815260200160002054600a60008a815260200190815260200160002054611bb19190614bf5565b83611bbc9190614b61565b905060008287611bcc91906152a4565b905060008287611bdc91906152a4565b905081600760008c81526020019081526020016000206000828254611c019190614b61565b9250508190555080600860008c81526020019081526020016000206000828254611c2b9190614b61565b925050819055506001600c60008c815260200190815260200160002060006101000a81548160ff0219169083151502179055507f000000000000000000000000000000000000000000000000000000000000000073ffffffffffffffffffffffffffffffffffffffff1663a9059cbb33846040518363ffffffff1660e01b8152600401611cb9929190614ed4565b6020604051808303816000875af1158015611cd8573d6000803e3d6000fd5b505050506040513d601f19601f82011682018060405250810190611cfc9190614f12565b507f000000000000000000000000000000000000000000000000000000000000000073ffffffffffffffffffffffffffffffffffffffff1663a9059cbb33836040518363ffffffff1660e01b8152600401611d58929190614ed4565b6020604051808303816000875af1158015611d77573d6000803e3d6000fd5b505050506040513d601f19601f82011682018060405250810190611d9b9190614f12565b50897fcd2c25949e23ea2647ca2c5809b025ee3aca0d82cfcb1d22a715398f5cf8db8e8a8789604051611dd09392919061549b565b60405180910390a250505050505050505050565b611ded82610d13565b611e2c576040517f08c379a0000000000000000000000000000000000000000000000000000000008152600401611e239061547b565b60405180910390fd5b80611e373384610978565b1015611e78576040517f08c379a0000000000000000000000000000000000000000000000000000000008152600401611e6f9061540f565b60405180910390fd5b611e833383836132ff565b80600660008481526020019081526020016000206000828254611ea691906152a4565b925050819055506000600960008481526020019081526020016000205482611ece9190614bf5565b90506000600a60008581526020019081526020016000205483611ef19190614bf5565b90507f000000000000000000000000000000000000000000000000000000000000000073ffffffffffffffffffffffffffffffffffffffff1663a9059cbb33846040518363ffffffff1660e01b8152600401611f4e929190614ed4565b6020604051808303816000875af1158015611f6d573d6000803e3d6000fd5b505050506040513d601f19601f82011682018060405250810190611f919190614f12565b507f000000000000000000000000000000000000000000000000000000000000000073ffffffffffffffffffffffffffffffffffffffff1663a9059cbb33836040518363ffffffff1660e01b8152600401611fed929190614ed4565b6020604051808303816000875af115801561200c573d6000803e3d6000fd5b505050506040513d601f19601f820116820180604052508101906120309190614f12565b50816007600086815260200190815260200160002060008282546120549190614b61565b925050819055508060086000868152602001908152602001600020600082825461207e9190614b61565b9250508190555050505050565b600060086000838152602001908152602001600020549050919050565b600060046000838152602001908152602001600020600a01549050919050565b6120d182610d76565b612110576040517f08c379a00000000000000000000000000000000000000000000000000000000081526004016121079061551e565b60405180910390fd5b8061211b3384610978565b101561215c576040517f08c379a00000000000000000000000000000000000000000000000000000000081526004016121539061540f565b60405180910390fd5b6121673383836132ff565b8060066000848152602001908152602001600020600082825461218a91906152a4565b9250508190555060006004600084815260200190815260200160002060010154826121b59190614bf5565b90507f000000000000000000000000000000000000000000000000000000000000000073ffffffffffffffffffffffffffffffffffffffff1663a9059cbb33836040518363ffffffff1660e01b8152600401612212929190614ed4565b6020604051808303816000875af1158015612231573d6000803e3d6000fd5b505050506040513d601f19601f820116820180604052508101906122559190614f12565b50806007600085815260200190815260200160002060008282546122799190614b61565b92505081905550505050565b61228e81610d13565b1580156122a1575061229f81611676565b155b80156122b257506122b181610d3d565b5b6122f1576040517f08c379a00000000000000000000000000000000000000000000000000000000081526004016122e8906153a3565b60405180910390fd5b60006122fc8261161d565b905060006103e88261230e9190614f6e565b90506000818361231e9190614b61565b905060056000858152602001908152602001600020548161233f9190614f6e565b600b60008681526020019081526020016000208190555060006005600086815260200190815260200160002054600b60008781526020019081526020016000205461238a9190614bf5565b826123959190614b61565b9050600081846123a591906152a4565b9050806008600088815260200190815260200160002060008282546123ca9190614b61565b925050819055506001600d600088815260200190815260200160002060006101000a81548160ff0219169083151502179055507f000000000000000000000000000000000000000000000000000000000000000073ffffffffffffffffffffffffffffffffffffffff1663a9059cbb33836040518363ffffffff1660e01b8152600401612458929190614ed4565b6020604051808303816000875af1158015612477573d6000803e3d6000fd5b505050506040513d601f19601f8201168201806040525081019061249b9190614f12565b50857fac2eeaf45d1b75aed6b3285cda3efb3c382cce02ba313558bbb90be57f8843e486856040516124ce92919061553e565b60405180910390a2505050505050565b60007f000000000000000000000000000000000000000000000000000000000000000073ffffffffffffffffffffffffffffffffffffffff163373ffffffffffffffffffffffffffffffffffffffff161461256e576040517f08c379a000000000000000000000000000000000000000000000000000000000815260040161256590614d15565b60405180910390fd5b8484106125b0576040517f08c379a00000000000000000000000000000000000000000000000000000000081526004016125a7906155d9565b60405180910390fd5b60016003546125bf91906152a4565b90506001600360008282546125d491906152a4565b925050819055506125e733828c856136b1565b60006125f1611037565b90506000633b9aca008a836126069190614bf5565b6126109190614f6e565b90506040518061016001604052808a8a8080601f016020809104026020016040519081016040528093929190818152602001838380828437600081840152601f19601f8201169050808301925050505050505081526020018b815260200182815260200142815260200162015180896126899190614bf5565b4261269491906152a4565b815260200162015180886126a89190614bf5565b426126b391906152a4565b81526020018781526020018881526020018d81526020018c8152602001868152506004600085815260200190815260200160002060008201518160000190816126fc91906157a5565b506020820151816001015560408201518160020155606082015181600301556080820151816004015560a0820151816005015560c0820151816006015560e082015181600701556101008201518160080155610120820151816009015561014082015181600a0155905050827f3a10e10c16b4416f991fa4c931bcd0520986a7357f6ba95c4d92f806a4c1ebf38d8c8489620151808d61279c9190614bf5565b426127a791906152a4565b6040516127b8959493929190615877565b60405180910390a250509998505050505050505050565b60606000806000806000806000806000806000600460008e81526020019081526020016000206040518061016001604052908160008201805461281190614bc4565b80601f016020809104026020016040519081016040528092919081815260200182805461283d90614bc4565b801561288a5780601f1061285f5761010080835404028352916020019161288a565b820191906000526020600020905b81548152906001019060200180831161286d57829003601f168201915b50505050508152602001600182015481526020016002820154815260200160038201548152602001600482015481526020016005820154815260200160068201548152602001600782015481526020016008820154815260200160098201548152602001600a820154815250509050806000015181602001518260400151836060015184608001518560a001518660c001518760e001518861010001518961012001518a61014001519b509b509b509b509b509b509b509b509b509b509b505091939597999b90929496989a50565b600061296482610b22565b60046000848152602001908152602001600020600701546129859190614b61565b9050919050565b7f000000000000000000000000000000000000000000000000000000000000000073ffffffffffffffffffffffffffffffffffffffff163373ffffffffffffffffffffffffffffffffffffffff1614612a1a576040517f08c379a0000000000000000000000000000000000000000000000000000000008152600401612a1190614d15565b60405180910390fd5b612a2382610d13565b80612a335750612a328261128b565b5b15612a73576040517f08c379a0000000000000000000000000000000000000000000000000000000008152600401612a6a90615916565b60405180910390fd5b612a7c82611676565b15612abc576040517f08c379a0000000000000000000000000000000000000000000000000000000008152600401612ab390615982565b60405180910390fd5b80600860008481526020019081526020016000206000828254612adf91906152a4565b925050819055507f000000000000000000000000000000000000000000000000000000000000000073ffffffffffffffffffffffffffffffffffffffff166323b872dd3330846040518463ffffffff1660e01b8152600401612b43939291906152d8565b6020604051808303816000875af1158015612b62573d6000803e3d6000fd5b505050506040513d601f19601f82011682018060405250810190612b869190614f12565b505050565b7f000000000000000000000000000000000000000000000000000000000000000073ffffffffffffffffffffffffffffffffffffffff163373ffffffffffffffffffffffffffffffffffffffff1614612c19576040517f08c379a0000000000000000000000000000000000000000000000000000000008152600401612c1090614d15565b60405180910390fd5b612c2281611676565b8015612c335750612c3281611180565b5b612c72576040517f08c379a0000000000000000000000000000000000000000000000000000000008152600401612c69906159ee565b60405180910390fd5b6000600860008381526020019081526020016000205411612cc8576040517f08c379a0000000000000000000000000000000000000000000000000000000008152600401612cbf90615a5a565b60405180910390fd5b600060086000838152602001908152602001600020819055507f000000000000000000000000000000000000000000000000000000000000000073ffffffffffffffffffffffffffffffffffffffff1663a9059cbb3360086000858152602001908152602001600020546040518363ffffffff1660e01b8152600401612d4f929190614ed4565b6020604051808303816000875af1158015612d6e573d6000803e3d6000fd5b505050506040513d601f19601f82011682018060405250810190612d929190614f12565b5050565b6000600160008473ffffffffffffffffffffffffffffffffffffffff1673ffffffffffffffffffffffffffffffffffffffff16815260200190815260200160002060008373ffffffffffffffffffffffffffffffffffffffff1673ffffffffffffffffffffffffffffffffffffffff16815260200190815260200160002060009054906101000a900460ff16905092915050565b60007f000000000000000000000000000000000000000000000000000000000000000073ffffffffffffffffffffffffffffffffffffffff166370a08231306040518263ffffffff1660e01b8152600401612e85919061530f565b602060405180830381865afa158015612ea2573d6000803e3d6000fd5b505050506040513d601f19601f82011682018060405250810190612ec6919061532a565b905090565b612ed3612fd6565b73ffffffffffffffffffffffffffffffffffffffff168573ffffffffffffffffffffffffffffffffffffffff161480612f195750612f1885612f13612fd6565b612d96565b5b612f58576040517f08c379a0000000000000000000000000000000000000000000000000000000008152600401612f4f90614ca9565b60405180910390fd5b612f658585858585613861565b5050505050565b60007f01ffc9a7000000000000000000000000000000000000000000000000000000007bffffffffffffffffffffffffffffffffffffffffffffffffffffffff1916827bffffffffffffffffffffffffffffffffffffffffffffffffffffffff1916149050919050565b600033905090565b8151835114613022576040517f08c379a000000000000000000000000000000000000000000000000000000000815260040161301990615aec565b60405180910390fd5b600073ffffffffffffffffffffffffffffffffffffffff168473ffffffffffffffffffffffffffffffffffffffff1603613091576040517f08c379a000000000000000000000000000000000000000000000000000000000815260040161308890615b7e565b60405180910390fd5b600061309b612fd6565b90506130ab818787878787613afc565b60005b845181101561325c5760008582815181106130cc576130cb615031565b5b6020026020010151905060008583815181106130eb576130ea615031565b5b60200260200101519050600080600084815260200190815260200160002060008b73ffffffffffffffffffffffffffffffffffffffff1673ffffffffffffffffffffffffffffffffffffffff1681526020019081526020016000205490508181101561318c576040517f08c379a000000000000000000000000000000000000000000000000000000000815260040161318390615c10565b60405180910390fd5b81810360008085815260200190815260200160002060008c73ffffffffffffffffffffffffffffffffffffffff1673ffffffffffffffffffffffffffffffffffffffff168152602001908152602001600020819055508160008085815260200190815260200160002060008b73ffffffffffffffffffffffffffffffffffffffff1673ffffffffffffffffffffffffffffffffffffffff168152602001908152602001600020600082825461324191906152a4565b925050819055505050508061325590615060565b90506130ae565b508473ffffffffffffffffffffffffffffffffffffffff168673ffffffffffffffffffffffffffffffffffffffff168273ffffffffffffffffffffffffffffffffffffffff167f4a39dc06d4c0dbc64b70af90fd698a233a518aa5d07e595d983b8c0526c8f7fb87876040516132d3929190615c30565b60405180910390a46132e9818787878787613b04565b6132f7818787878787613b0c565b505050505050565b600073ffffffffffffffffffffffffffffffffffffffff168373ffffffffffffffffffffffffffffffffffffffff160361336e576040517f08c379a000000000000000000000000000000000000000000000000000000000815260040161336590615cd9565b60405180910390fd5b6000613378612fd6565b9050600061338584613ce3565b9050600061339284613ce3565b90506133b283876000858560405180602001604052806000815250613afc565b600080600087815260200190815260200160002060008873ffffffffffffffffffffffffffffffffffffffff1673ffffffffffffffffffffffffffffffffffffffff16815260200190815260200160002054905084811015613449576040517f08c379a000000000000000000000000000000000000000000000000000000000815260040161344090615d6b565b60405180910390fd5b84810360008088815260200190815260200160002060008973ffffffffffffffffffffffffffffffffffffffff1673ffffffffffffffffffffffffffffffffffffffff16815260200190815260200160002081905550600073ffffffffffffffffffffffffffffffffffffffff168773ffffffffffffffffffffffffffffffffffffffff168573ffffffffffffffffffffffffffffffffffffffff167fc3d58168c5ae7397731d063d5bbf3d657854427343f4c083240f7aacaa2d0f62898960405161351692919061553e565b60405180910390a461353c84886000868660405180602001604052806000815250613b04565b50505050505050565b8173ffffffffffffffffffffffffffffffffffffffff168373ffffffffffffffffffffffffffffffffffffffff16036135b3576040517f08c379a00000000000000000000000000000000000000000000000000000000081526004016135aa90615dfd565b60405180910390fd5b80600160008573ffffffffffffffffffffffffffffffffffffffff1673ffffffffffffffffffffffffffffffffffffffff16815260200190815260200160002060008473ffffffffffffffffffffffffffffffffffffffff1673ffffffffffffffffffffffffffffffffffffffff16815260200190815260200160002060006101000a81548160ff0219169083151502179055508173ffffffffffffffffffffffffffffffffffffffff168373ffffffffffffffffffffffffffffffffffffffff167f17307eab39ab6107e8899845ad3d59bd9653f200f220920489ca2b5937696c31836040516136a49190614109565b60405180910390a3505050565b600073ffffffffffffffffffffffffffffffffffffffff168473ffffffffffffffffffffffffffffffffffffffff1603613720576040517f08c379a000000000000000000000000000000000000000000000000000000000815260040161371790615e8f565b60405180910390fd5b600061372a612fd6565b9050600061373785613ce3565b9050600061374485613ce3565b905061375583600089858589613afc565b8460008088815260200190815260200160002060008973ffffffffffffffffffffffffffffffffffffffff1673ffffffffffffffffffffffffffffffffffffffff16815260200190815260200160002060008282546137b491906152a4565b925050819055508673ffffffffffffffffffffffffffffffffffffffff16600073ffffffffffffffffffffffffffffffffffffffff168473ffffffffffffffffffffffffffffffffffffffff167fc3d58168c5ae7397731d063d5bbf3d657854427343f4c083240f7aacaa2d0f62898960405161383292919061553e565b60405180910390a461384983600089858589613b04565b61385883600089898989613d5d565b50505050505050565b600073ffffffffffffffffffffffffffffffffffffffff168473ffffffffffffffffffffffffffffffffffffffff16036138d0576040517f08c379a00000000000000000000000000000000000000000000000000000000081526004016138c790615b7e565b60405180910390fd5b60006138da612fd6565b905060006138e785613ce3565b905060006138f485613ce3565b9050613904838989858589613afc565b600080600088815260200190815260200160002060008a73ffffffffffffffffffffffffffffffffffffffff1673ffffffffffffffffffffffffffffffffffffffff1681526020019081526020016000205490508581101561399b576040517f08c379a000000000000000000000000000000000000000000000000000000000815260040161399290615c10565b60405180910390fd5b85810360008089815260200190815260200160002060008b73ffffffffffffffffffffffffffffffffffffffff1673ffffffffffffffffffffffffffffffffffffffff168152602001908152602001600020819055508560008089815260200190815260200160002060008a73ffffffffffffffffffffffffffffffffffffffff1673ffffffffffffffffffffffffffffffffffffffff1681526020019081526020016000206000828254613a5091906152a4565b925050819055508773ffffffffffffffffffffffffffffffffffffffff168973ffffffffffffffffffffffffffffffffffffffff168573ffffffffffffffffffffffffffffffffffffffff167fc3d58168c5ae7397731d063d5bbf3d657854427343f4c083240f7aacaa2d0f628a8a604051613acd92919061553e565b60405180910390a4613ae3848a8a86868a613b04565b613af1848a8a8a8a8a613d5d565b505050505050505050565b505050505050565b505050505050565b613b2b8473ffffffffffffffffffffffffffffffffffffffff16613f34565b15613cdb578373ffffffffffffffffffffffffffffffffffffffff1663bc197c8187878686866040518663ffffffff1660e01b8152600401613b71959493929190615f04565b6020604051808303816000875af1925050508015613bad57506040513d601f19601f82011682018060405250810190613baa9190615f81565b60015b613c5257613bb9615fbb565b806308c379a003613c155750613bcd615fdd565b80613bd85750613c17565b806040517f08c379a0000000000000000000000000000000000000000000000000000000008152600401613c0c91906141e1565b60405180910390fd5b505b6040517f08c379a0000000000000000000000000000000000000000000000000000000008152600401613c49906160df565b60405180910390fd5b63bc197c8160e01b7bffffffffffffffffffffffffffffffffffffffffffffffffffffffff1916817bffffffffffffffffffffffffffffffffffffffffffffffffffffffff191614613cd9576040517f08c379a0000000000000000000000000000000000000000000000000000000008152600401613cd090616171565b60405180910390fd5b505b505050505050565b60606000600167ffffffffffffffff811115613d0257613d01614208565b5b604051908082528060200260200182016040528015613d305781602001602082028036833780820191505090505b5090508281600081518110613d4857613d47615031565b5b60200260200101818152505080915050919050565b613d7c8473ffffffffffffffffffffffffffffffffffffffff16613f34565b15613f2c578373ffffffffffffffffffffffffffffffffffffffff1663f23a6e6187878686866040518663ffffffff1660e01b8152600401613dc2959493929190616191565b6020604051808303816000875af1925050508015613dfe57506040513d601f19601f82011682018060405250810190613dfb9190615f81565b60015b613ea357613e0a615fbb565b806308c379a003613e665750613e1e615fdd565b80613e295750613e68565b806040517f08c379a0000000000000000000000000000000000000000000000000000000008152600401613e5d91906141e1565b60405180910390fd5b505b6040517f08c379a0000000000000000000000000000000000000000000000000000000008152600401613e9a906160df565b60405180910390fd5b63f23a6e6160e01b7bffffffffffffffffffffffffffffffffffffffffffffffffffffffff1916817bffffffffffffffffffffffffffffffffffffffffffffffffffffffff191614613f2a576040517f08c379a0000000000000000000000000000000000000000000000000000000008152600401613f2190616171565b60405180910390fd5b505b505050505050565b6000808273ffffffffffffffffffffffffffffffffffffffff163b119050919050565b6000604051905090565b600080fd5b600080fd5b600073ffffffffffffffffffffffffffffffffffffffff82169050919050565b6000613f9682613f6b565b9050919050565b613fa681613f8b565b8114613fb157600080fd5b50565b600081359050613fc381613f9d565b92915050565b6000819050919050565b613fdc81613fc9565b8114613fe757600080fd5b50565b600081359050613ff981613fd3565b92915050565b6000806040838503121561401657614015613f61565b5b600061402485828601613fb4565b925050602061403585828601613fea565b9150509250929050565b61404881613fc9565b82525050565b6000602082019050614063600083018461403f565b92915050565b60007fffffffff0000000000000000000000000000000000000000000000000000000082169050919050565b61409e81614069565b81146140a957600080fd5b50565b6000813590506140bb81614095565b92915050565b6000602082840312156140d7576140d6613f61565b5b60006140e5848285016140ac565b91505092915050565b60008115159050919050565b614103816140ee565b82525050565b600060208201905061411e60008301846140fa565b92915050565b60006020828403121561413a57614139613f61565b5b600061414884828501613fea565b91505092915050565b600081519050919050565b600082825260208201905092915050565b60005b8381101561418b578082015181840152602081019050614170565b60008484015250505050565b6000601f19601f8301169050919050565b60006141b382614151565b6141bd818561415c565b93506141cd81856020860161416d565b6141d681614197565b840191505092915050565b600060208201905081810360008301526141fb81846141a8565b905092915050565b600080fd5b7f4e487b7100000000000000000000000000000000000000000000000000000000600052604160045260246000fd5b61424082614197565b810181811067ffffffffffffffff8211171561425f5761425e614208565b5b80604052505050565b6000614272613f57565b905061427e8282614237565b919050565b600067ffffffffffffffff82111561429e5761429d614208565b5b602082029050602081019050919050565b600080fd5b60006142c76142c284614283565b614268565b905080838252602082019050602084028301858111156142ea576142e96142af565b5b835b8181101561431357806142ff8882613fea565b8452602084019350506020810190506142ec565b5050509392505050565b600082601f83011261433257614331614203565b5b81356143428482602086016142b4565b91505092915050565b600080fd5b600067ffffffffffffffff82111561436b5761436a614208565b5b61437482614197565b9050602081019050919050565b82818337600083830152505050565b60006143a361439e84614350565b614268565b9050828152602081018484840111156143bf576143be61434b565b5b6143ca848285614381565b509392505050565b600082601f8301126143e7576143e6614203565b5b81356143f7848260208601614390565b91505092915050565b600080600080600060a0868803121561441c5761441b613f61565b5b600061442a88828901613fb4565b955050602061443b88828901613fb4565b945050604086013567ffffffffffffffff81111561445c5761445b613f66565b5b6144688882890161431d565b935050606086013567ffffffffffffffff81111561448957614488613f66565b5b6144958882890161431d565b925050608086013567ffffffffffffffff8111156144b6576144b5613f66565b5b6144c2888289016143d2565b9150509295509295909350565b600080604083850312156144e6576144e5613f61565b5b60006144f485828601613fea565b925050602061450585828601613fea565b9150509250929050565b600067ffffffffffffffff82111561452a57614529614208565b5b602082029050602081019050919050565b600061454e6145498461450f565b614268565b90508083825260208201905060208402830185811115614571576145706142af565b5b835b8181101561459a57806145868882613fb4565b845260208401935050602081019050614573565b5050509392505050565b600082601f8301126145b9576145b8614203565b5b81356145c984826020860161453b565b91505092915050565b600080604083850312156145e9576145e8613f61565b5b600083013567ffffffffffffffff81111561460757614606613f66565b5b614613858286016145a4565b925050602083013567ffffffffffffffff81111561463457614633613f66565b5b6146408582860161431d565b9150509250929050565b600081519050919050565b600082825260208201905092915050565b6000819050602082019050919050565b61467f81613fc9565b82525050565b60006146918383614676565b60208301905092915050565b6000602082019050919050565b60006146b58261464a565b6146bf8185614655565b93506146ca83614666565b8060005b838110156146fb5781516146e28882614685565b97506146ed8361469d565b9250506001810190506146ce565b5085935050505092915050565b6000602082019050818103600083015261472281846146aa565b905092915050565b6000819050919050565b61473d8161472a565b82525050565b60006020820190506147586000830184614734565b92915050565b614767816140ee565b811461477257600080fd5b50565b6000813590506147848161475e565b92915050565b600080604083850312156147a1576147a0613f61565b5b60006147af85828601613fb4565b92505060206147c085828601614775565b9150509250929050565b600080fd5b60008083601f8401126147e5576147e4614203565b5b8235905067ffffffffffffffff811115614802576148016147ca565b5b60208301915083600182028301111561481e5761481d6142af565b5b9250929050565b60008060008060008060008060006101008a8c03121561484857614847613f61565b5b60006148568c828d01613fea565b99505060206148678c828d01613fea565b98505060406148788c828d01613fea565b97505060608a013567ffffffffffffffff81111561489957614898613f66565b5b6148a58c828d016147cf565b965096505060806148b88c828d01613fea565b94505060a06148c98c828d01613fea565b93505060c06148da8c828d01613fea565b92505060e08a013567ffffffffffffffff8111156148fb576148fa613f66565b5b6149078c828d016143d2565b9150509295985092959850929598565b6000610160820190508181036000830152614932818e6141a8565b9050614941602083018d61403f565b61494e604083018c61403f565b61495b606083018b61403f565b614968608083018a61403f565b61497560a083018961403f565b61498260c083018861403f565b61498f60e083018761403f565b61499d61010083018661403f565b6149ab61012083018561403f565b6149b961014083018461403f565b9c9b505050505050505050505050565b600080604083850312156149e0576149df613f61565b5b60006149ee85828601613fb4565b92505060206149ff85828601613fb4565b9150509250929050565b600080600080600060a08688031215614a2557614a24613f61565b5b6000614a3388828901613fb4565b9550506020614a4488828901613fb4565b9450506040614a5588828901613fea565b9350506060614a6688828901613fea565b925050608086013567ffffffffffffffff811115614a8757614a86613f66565b5b614a93888289016143d2565b9150509295509295909350565b7f455243313135353a2061646472657373207a65726f206973206e6f742061207660008201527f616c6964206f776e657200000000000000000000000000000000000000000000602082015250565b6000614afc602a8361415c565b9150614b0782614aa0565b604082019050919050565b60006020820190508181036000830152614b2b81614aef565b9050919050565b7f4e487b7100000000000000000000000000000000000000000000000000000000600052601160045260246000fd5b6000614b6c82613fc9565b9150614b7783613fc9565b9250828203905081811115614b8f57614b8e614b32565b5b92915050565b7f4e487b7100000000000000000000000000000000000000000000000000000000600052602260045260246000fd5b60006002820490506001821680614bdc57607f821691505b602082108103614bef57614bee614b95565b5b50919050565b6000614c0082613fc9565b9150614c0b83613fc9565b9250828202614c1981613fc9565b91508282048414831517614c3057614c2f614b32565b5b5092915050565b7f455243313135353a2063616c6c6572206973206e6f7420746f6b656e206f776e60008201527f6572206f7220617070726f766564000000000000000000000000000000000000602082015250565b6000614c93602e8361415c565b9150614c9e82614c37565b604082019050919050565b60006020820190508181036000830152614cc281614c86565b9050919050565b7f43616c6c6572206973206e6f7420746865206f776e6572000000000000000000600082015250565b6000614cff60178361415c565b9150614d0a82614cc9565b602082019050919050565b60006020820190508181036000830152614d2e81614cf2565b9050919050565b7f5769746864726177206e6f7420616c6c6f776564207768656e20616374697665600082015250565b6000614d6b60208361415c565b9150614d7682614d35565b602082019050919050565b60006020820190508181036000830152614d9a81614d5e565b9050919050565b7f5769746864726177206e6f7420616c6c6f776564207768656e2064656661756c60008201527f7465640000000000000000000000000000000000000000000000000000000000602082015250565b6000614dfd60238361415c565b9150614e0882614da1565b604082019050919050565b60006020820190508181036000830152614e2c81614df0565b9050919050565b7f5769746864726177616c20746f6b656e20616d6f756e7420657863656564732060008201527f746f6b656e20616d6f756e7420696e20636f6e74726163740000000000000000602082015250565b6000614e8f60388361415c565b9150614e9a82614e33565b604082019050919050565b60006020820190508181036000830152614ebe81614e82565b9050919050565b614ece81613f8b565b82525050565b6000604082019050614ee96000830185614ec5565b614ef6602083018461403f565b9392505050565b600081519050614f0c8161475e565b92915050565b600060208284031215614f2857614f27613f61565b5b6000614f3684828501614efd565b91505092915050565b7f4e487b7100000000000000000000000000000000000000000000000000000000600052601260045260246000fd5b6000614f7982613fc9565b9150614f8483613fc9565b925082614f9457614f93614f3f565b5b828204905092915050565b7f455243313135353a206163636f756e747320616e6420696473206c656e67746860008201527f206d69736d617463680000000000000000000000000000000000000000000000602082015250565b6000614ffb60298361415c565b915061500682614f9f565b604082019050919050565b6000602082019050818103600083015261502a81614fee565b9050919050565b7f4e487b7100000000000000000000000000000000000000000000000000000000600052603260045260246000fd5b600061506b82613fc9565b91507fffffffffffffffffffffffffffffffffffffffffffffffffffffffffffffffff820361509d5761509c614b32565b5b600182019050919050565b600069ffffffffffffffffffff82169050919050565b6150c7816150a8565b81146150d257600080fd5b50565b6000815190506150e4816150be565b92915050565b6150f38161472a565b81146150fe57600080fd5b50565b600081519050615110816150ea565b92915050565b60008151905061512581613fd3565b92915050565b600080600080600060a0868803121561514757615146613f61565b5b6000615155888289016150d5565b955050602061516688828901615101565b945050604061517788828901615116565b935050606061518888828901615116565b9250506080615199888289016150d5565b9150509295509295909350565b7f426f6e6420697320696e61637469766500000000000000000000000000000000600082015250565b60006151dc60108361415c565b91506151e7826151a6565b602082019050919050565b6000602082019050818103600083015261520b816151cf565b9050919050565b7f496e73756666696369656e7420626f6e64207175616e746974792072656d616960008201527f6e696e6700000000000000000000000000000000000000000000000000000000602082015250565b600061526e60248361415c565b915061527982615212565b604082019050919050565b6000602082019050818103600083015261529d81615261565b9050919050565b60006152af82613fc9565b91506152ba83613fc9565b92508282019050808211156152d2576152d1614b32565b5b92915050565b60006060820190506152ed6000830186614ec5565b6152fa6020830185614ec5565b615307604083018461403f565b949350505050565b60006020820190506153246000830184614ec5565b92915050565b6000602082840312156153405761533f613f61565b5b600061534e84828501615116565b91505092915050565b7f426f6e64206973206e6f7420636f6d706c657465640000000000000000000000600082015250565b600061538d60158361415c565b915061539882615357565b602082019050919050565b600060208201905081810360008301526153bc81615380565b9050919050565b7f496e73756666696369656e7420626f6e64207175616e74697479000000000000600082015250565b60006153f9601a8361415c565b9150615404826153c3565b602082019050919050565b60006020820190508181036000830152615428816153ec565b9050919050565b7f426f6e64206973206e6f742064656661756c7465640000000000000000000000600082015250565b600061546560158361415c565b91506154708261542f565b602082019050919050565b6000602082019050818103600083015261549481615458565b9050919050565b60006060820190506154b0600083018661403f565b6154bd602083018561403f565b6154ca604083018461403f565b949350505050565b7f426f6e64206973206e6f742063616e63656c6564000000000000000000000000600082015250565b600061550860148361415c565b9150615513826154d2565b602082019050919050565b60006020820190508181036000830152615537816154fb565b9050919050565b6000604082019050615553600083018561403f565b615560602083018461403f565b9392505050565b7f416374697665206475726174696f6e2073686f756c642062652073686f72746560008201527f72207468616e206475726174696f6e0000000000000000000000000000000000602082015250565b60006155c3602f8361415c565b91506155ce82615567565b604082019050919050565b600060208201905081810360008301526155f2816155b6565b9050919050565b60008190508160005260206000209050919050565b60006020601f8301049050919050565b600082821b905092915050565b60006008830261565b7fffffffffffffffffffffffffffffffffffffffffffffffffffffffffffffffff8261561e565b615665868361561e565b95508019841693508086168417925050509392505050565b6000819050919050565b60006156a261569d61569884613fc9565b61567d565b613fc9565b9050919050565b6000819050919050565b6156bc83615687565b6156d06156c8826156a9565b84845461562b565b825550505050565b600090565b6156e56156d8565b6156f08184846156b3565b505050565b5b81811015615714576157096000826156dd565b6001810190506156f6565b5050565b601f8211156157595761572a816155f9565b6157338461560e565b81016020851015615742578190505b61575661574e8561560e565b8301826156f5565b50505b505050565b600082821c905092915050565b600061577c6000198460080261575e565b1980831691505092915050565b6000615795838361576b565b9150826002028217905092915050565b6157ae82614151565b67ffffffffffffffff8111156157c7576157c6614208565b5b6157d18254614bc4565b6157dc828285615718565b600060209050601f83116001811461580f57600084156157fd578287015190505b6158078582615789565b86555061586f565b601f19841661581d866155f9565b60005b8281101561584557848901518255600182019150602085019450602081019050615820565b86831015615862578489015161585e601f89168261576b565b8355505b6001600288020188555050505b505050505050565b600060a08201905061588c600083018861403f565b615899602083018761403f565b6158a6604083018661403f565b6158b3606083018561403f565b6158c0608083018461403f565b9695505050505050565b7f626f6e642069732064656661756c746564000000000000000000000000000000600082015250565b600061590060118361415c565b915061590b826158ca565b602082019050919050565b6000602082019050818103600083015261592f816158f3565b9050919050565b7f626f6e6420697320636f6d706c65746564000000000000000000000000000000600082015250565b600061596c60118361415c565b915061597782615936565b602082019050919050565b6000602082019050818103600083015261599b8161595f565b9050919050565b7f43616e6e6f742077697468647261772065786365737300000000000000000000600082015250565b60006159d860168361415c565b91506159e3826159a2565b602082019050919050565b60006020820190508181036000830152615a07816159cb565b9050919050565b7f43616e6e6f742077697468647261772066726f6d20656d70747920706f6f6c00600082015250565b6000615a44601f8361415c565b9150615a4f82615a0e565b602082019050919050565b60006020820190508181036000830152615a7381615a37565b9050919050565b7f455243313135353a2069647320616e6420616d6f756e7473206c656e6774682060008201527f6d69736d61746368000000000000000000000000000000000000000000000000602082015250565b6000615ad660288361415c565b9150615ae182615a7a565b604082019050919050565b60006020820190508181036000830152615b0581615ac9565b9050919050565b7f455243313135353a207472616e7366657220746f20746865207a65726f20616460008201527f6472657373000000000000000000000000000000000000000000000000000000602082015250565b6000615b6860258361415c565b9150615b7382615b0c565b604082019050919050565b60006020820190508181036000830152615b9781615b5b565b9050919050565b7f455243313135353a20696e73756666696369656e742062616c616e636520666f60008201527f72207472616e7366657200000000000000000000000000000000000000000000602082015250565b6000615bfa602a8361415c565b9150615c0582615b9e565b604082019050919050565b60006020820190508181036000830152615c2981615bed565b9050919050565b60006040820190508181036000830152615c4a81856146aa565b90508181036020830152615c5e81846146aa565b90509392505050565b7f455243313135353a206275726e2066726f6d20746865207a65726f206164647260008201527f6573730000000000000000000000000000000000000000000000000000000000602082015250565b6000615cc360238361415c565b9150615cce82615c67565b604082019050919050565b60006020820190508181036000830152615cf281615cb6565b9050919050565b7f455243313135353a206275726e20616d6f756e7420657863656564732062616c60008201527f616e636500000000000000000000000000000000000000000000000000000000602082015250565b6000615d5560248361415c565b9150615d6082615cf9565b604082019050919050565b60006020820190508181036000830152615d8481615d48565b9050919050565b7f455243313135353a2073657474696e6720617070726f76616c2073746174757360008201527f20666f722073656c660000000000000000000000000000000000000000000000602082015250565b6000615de760298361415c565b9150615df282615d8b565b604082019050919050565b60006020820190508181036000830152615e1681615dda565b9050919050565b7f455243313135353a206d696e7420746f20746865207a65726f2061646472657360008201527f7300000000000000000000000000000000000000000000000000000000000000602082015250565b6000615e7960218361415c565b9150615e8482615e1d565b604082019050919050565b60006020820190508181036000830152615ea881615e6c565b9050919050565b600081519050919050565b600082825260208201905092915050565b6000615ed682615eaf565b615ee08185615eba565b9350615ef081856020860161416d565b615ef981614197565b840191505092915050565b600060a082019050615f196000830188614ec5565b615f266020830187614ec5565b8181036040830152615f3881866146aa565b90508181036060830152615f4c81856146aa565b90508181036080830152615f608184615ecb565b90509695505050505050565b600081519050615f7b81614095565b92915050565b600060208284031215615f9757615f96613f61565b5b6000615fa584828501615f6c565b91505092915050565b60008160e01c9050919050565b600060033d1115615fda5760046000803e615fd7600051615fae565b90505b90565b600060443d1061606a57615fef613f57565b60043d036004823e80513d602482011167ffffffffffffffff8211171561601757505061606a565b808201805167ffffffffffffffff811115616035575050505061606a565b80602083010160043d03850181111561605257505050505061606a565b61606182602001850186614237565b82955050505050505b90565b7f455243313135353a207472616e7366657220746f206e6f6e2d4552433131353560008201527f526563656976657220696d706c656d656e746572000000000000000000000000602082015250565b60006160c960348361415c565b91506160d48261606d565b604082019050919050565b600060208201905081810360008301526160f8816160bc565b9050919050565b7f455243313135353a204552433131353552656365697665722072656a6563746560008201527f6420746f6b656e73000000000000000000000000000000000000000000000000602082015250565b600061615b60288361415c565b9150616166826160ff565b604082019050919050565b6000602082019050818103600083015261618a8161614e565b9050919050565b600060a0820190506161a66000830188614ec5565b6161b36020830187614ec5565b6161c0604083018661403f565b6161cd606083018561403f565b81810360808301526161df8184615ecb565b9050969550505050505056fea2646970667358221220e8a05838d9ae7c4904dc6be9c7b02f45e7bab6f52e4e94d86bd7f167c4038f1264736f6c6343000811003360c060405260006003556040518060a00160405280600560ff168152602001600560ff168152602001600a60ff168152602001600f60ff168152602001600f60ff16815250600d906005620000569291906200027b565b50604051806101200160405280600260ff168152602001600360ff168152602001600560ff168152602001600560ff168152602001600560ff168152602001600a60ff168152602001600a60ff168152602001600f60ff168152602001600f60ff16815250600e906009620000cd929190620002d2565b50604051806102600160405280600260ff168152602001600260ff168152602001600260ff168152602001600460ff168152602001600560ff168152602001600560ff168152602001600560ff168152602001600560ff168152602001600560ff168152602001600560ff168152602001600560ff168152602001600560ff168152602001600560ff168152602001600560ff168152602001600560ff168152602001600560ff168152602001600560ff168152602001600560ff168152602001600a60ff16815250600f906013620001a892919062000329565b50348015620001b657600080fd5b50604051620074b5380380620074b58339818101604052810190620001dc919062000597565b82828282620001f1816200026660201b60201c565b508073ffffffffffffffffffffffffffffffffffffffff1660808173ffffffffffffffffffffffffffffffffffffffff16815250508173ffffffffffffffffffffffffffffffffffffffff1660a08173ffffffffffffffffffffffffffffffffffffffff168152505050505050505062000944565b80600290816200027791906200085d565b5050565b828054828255906000526020600020908101928215620002bf579160200282015b82811115620002be578251829060ff169055916020019190600101906200029c565b5b509050620002ce919062000380565b5090565b82805482825590600052602060002090810192821562000316579160200282015b8281111562000315578251829060ff16905591602001919060010190620002f3565b5b50905062000325919062000380565b5090565b8280548282559060005260206000209081019282156200036d579160200282015b828111156200036c578251829060ff169055916020019190600101906200034a565b5b5090506200037c919062000380565b5090565b5b808211156200039b57600081600090555060010162000381565b5090565b6000604051905090565b600080fd5b600080fd5b600080fd5b600080fd5b6000601f19601f8301169050919050565b7f4e487b7100000000000000000000000000000000000000000000000000000000600052604160045260246000fd5b6200040882620003bd565b810181811067ffffffffffffffff821117156200042a5762000429620003ce565b5b80604052505050565b60006200043f6200039f565b90506200044d8282620003fd565b919050565b600067ffffffffffffffff82111562000470576200046f620003ce565b5b6200047b82620003bd565b9050602081019050919050565b60005b83811015620004a85780820151818401526020810190506200048b565b60008484015250505050565b6000620004cb620004c58462000452565b62000433565b905082815260208101848484011115620004ea57620004e9620003b8565b5b620004f784828562000488565b509392505050565b600082601f830112620005175762000516620003b3565b5b815162000529848260208601620004b4565b91505092915050565b600073ffffffffffffffffffffffffffffffffffffffff82169050919050565b60006200055f8262000532565b9050919050565b620005718162000552565b81146200057d57600080fd5b50565b600081519050620005918162000566565b92915050565b600080600060608486031215620005b357620005b2620003a9565b5b600084015167ffffffffffffffff811115620005d457620005d3620003ae565b5b620005e286828701620004ff565b9350506020620005f58682870162000580565b9250506040620006088682870162000580565b9150509250925092565b600081519050919050565b7f4e487b7100000000000000000000000000000000000000000000000000000000600052602260045260246000fd5b600060028204905060018216806200066557607f821691505b6020821081036200067b576200067a6200061d565b5b50919050565b60008190508160005260206000209050919050565b60006020601f8301049050919050565b600082821b905092915050565b600060088302620006e57fffffffffffffffffffffffffffffffffffffffffffffffffffffffffffffffff82620006a6565b620006f18683620006a6565b95508019841693508086168417925050509392505050565b6000819050919050565b6000819050919050565b60006200073e62000738620007328462000709565b62000713565b62000709565b9050919050565b6000819050919050565b6200075a836200071d565b62000772620007698262000745565b848454620006b3565b825550505050565b600090565b620007896200077a565b620007968184846200074f565b505050565b5b81811015620007be57620007b26000826200077f565b6001810190506200079c565b5050565b601f8211156200080d57620007d78162000681565b620007e28462000696565b81016020851015620007f2578190505b6200080a620008018562000696565b8301826200079b565b50505b505050565b600082821c905092915050565b6000620008326000198460080262000812565b1980831691505092915050565b60006200084d83836200081f565b9150826002028217905092915050565b620008688262000612565b67ffffffffffffffff811115620008845762000883620003ce565b5b6200089082546200064c565b6200089d828285620007c2565b600060209050601f831160018114620008d55760008415620008c0578287015190505b620008cc85826200083f565b8655506200093c565b601f198416620008e58662000681565b60005b828110156200090f57848901518255600182019150602085019450602081019050620008e8565b868310156200092f57848901516200092b601f8916826200081f565b8355505b6001600288020188555050505b505050505050565b60805160a051616adb620009da600039600081816111f2015281816116a5015281816118bb01528181611d8f01528181612013015281816124a70152818161263c015281816128ed01528181612b1e0152818161302d015281816132420152613437015260008181610f9201528181611b550152818161210101528181612b4601528181612ed301526132e10152616adb6000f3fe608060405234801561001057600080fd5b50600436106102d55760003560e01c80638da5cb5b11610182578063c36177fc116100e9578063e52270e0116100a2578063e88580901161007c578063e885809014610a4b578063e985e9c514610a7b578063f0d8100a14610aab578063f242432a14610adb576102d5565b8063e52270e0146109e1578063e5328e0614610a11578063e755ddd714610a2f576102d5565b8063c36177fc146108e7578063c372fb9114610917578063c55dae6314610947578063c7bc573014610965578063d3b7811b14610995578063e2bbb158146109c5576102d5565b8063a996ef081161013b578063a996ef0814610817578063abac75e114610833578063af73e2c914610863578063b09f2b1c1461087f578063be5ba4901461089b578063c0a6026c146108cb576102d5565b80638da5cb5b146107315780638f0dbf771461074f578063932a8de01461077f578063a22cb465146107af578063a8743022146107cb578063a9385a5c146107e7576102d5565b806339e3af9b1161024157806370876c98116101fa5780637cbc2373116101d45780637cbc23731461067c57806382afd23b1461069857806388bdc083146106c85780638c3526c2146106f8576102d5565b806370876c981461060057806377e2a08b1461061c5780637a41984b1461064c576102d5565b806339e3af9b14610506578063441a3e70146105365780634e1273f414610552578063549493bb146105825780636681b9fd146105b25780636ff80d93146105d0576102d5565b806314f294931161029357806314f29493146103fa5780631add02711461042a578063239f60da1461045a5780632eb2c2d61461048a5780632f3ad61f146104a65780633097afb8146104d6576102d5565b8062fdd58e146102da57806301ffc9a71461030a578063021594971461033a57806308913ce81461036a578063091490201461039a5780630e89341c146103ca575b600080fd5b6102f460048036038101906102ef9190614756565b610af7565b60405161030191906147a5565b60405180910390f35b610324600480360381019061031f9190614818565b610bbf565b6040516103319190614860565b60405180910390f35b610354600480360381019061034f919061487b565b610ca1565b60405161036191906147a5565b60405180910390f35b610384600480360381019061037f919061487b565b610cbe565b60405161039191906147a5565b60405180910390f35b6103b460048036038101906103af919061487b565b610ce9565b6040516103c19190614860565b60405180910390f35b6103e460048036038101906103df919061487b565b610d1f565b6040516103f19190614938565b60405180910390f35b610414600480360381019061040f919061487b565b610db3565b60405161042191906147a5565b60405180910390f35b610444600480360381019061043f919061487b565b610df1565b60405161045191906147a5565b60405180910390f35b610474600480360381019061046f919061487b565b610e4a565b60405161048191906147a5565b60405180910390f35b6104a4600480360381019061049f9190614b57565b610e67565b005b6104c060048036038101906104bb919061487b565b610f08565b6040516104cd9190614860565b60405180910390f35b6104f060048036038101906104eb919061487b565b610f32565b6040516104fd9190614860565b60405180910390f35b610520600480360381019061051b919061487b565b610f6b565b60405161052d9190614860565b60405180910390f35b610550600480360381019061054b9190614c26565b610f90565b005b61056c60048036038101906105679190614d29565b611293565b6040516105799190614e5f565b60405180910390f35b61059c6004803603810190610597919061487b565b6113ac565b6040516105a99190614860565b60405180910390f35b6105ba6113de565b6040516105c791906147a5565b60405180910390f35b6105ea60048036038101906105e5919061487b565b6113e8565b6040516105f79190614860565b60405180910390f35b61061a60048036038101906106159190614c26565b611480565b005b6106366004803603810190610631919061487b565b61174a565b60405161064391906147a5565b60405180910390f35b6106666004803603810190610661919061487b565b6117a3565b6040516106739190614860565b60405180910390f35b61069660048036038101906106919190614c26565b6117cd565b005b6106b260048036038101906106ad919061487b565b611987565b6040516106bf9190614860565b60405180910390f35b6106e260048036038101906106dd919061487b565b6119aa565b6040516106ef91906147a5565b60405180910390f35b610712600480360381019061070d919061487b565b6119dd565b6040516107289a99989796959493929190614e81565b60405180910390f35b610739611b51565b6040516107469190614f33565b60405180910390f35b6107696004803603810190610764919061487b565b611b79565b6040516107769190614860565b60405180910390f35b6107996004803603810190610794919061487b565b611b9b565b6040516107a691906147a5565b60405180910390f35b6107c960048036038101906107c49190614f7a565b611bd9565b005b6107e560048036038101906107e0919061487b565b611bef565b005b61080160048036038101906107fc919061487b565b611e6e565b60405161080e91906147a5565b60405180910390f35b610831600480360381019061082c9190614c26565b611f25565b005b61084d6004803603810190610848919061487b565b6120df565b60405161085a91906147a5565b60405180910390f35b61087d60048036038101906108789190614c26565b6120ff565b005b61089960048036038101906108949190614c26565b61254b565b005b6108b560048036038101906108b0919061487b565b612708565b6040516108c29190614e5f565b60405180910390f35b6108e560048036038101906108e0919061487b565b612773565b005b61090160048036038101906108fc9190614c26565b6129cc565b60405161090e9190614e5f565b60405180910390f35b610931600480360381019061092c919061487b565b612afd565b60405161093e91906147a5565b60405180910390f35b61094f612b1a565b60405161095c9190614f33565b60405180910390f35b61097f600480360381019061097a9190615015565b612b42565b60405161098c91906147a5565b60405180910390f35b6109af60048036038101906109aa919061487b565b612e9e565b6040516109bc91906147a5565b60405180910390f35b6109df60048036038101906109da9190614c26565b612ed1565b005b6109fb60048036038101906109f6919061487b565b6130d0565b604051610a089190614e5f565b60405180910390f35b610a1961323e565b604051610a2691906147a5565b60405180910390f35b610a496004803603810190610a44919061487b565b6132df565b005b610a656004803603810190610a60919061487b565b6134ea565b604051610a7291906147a5565b60405180910390f35b610a956004803603810190610a909190615107565b613507565b604051610aa29190614860565b60405180910390f35b610ac56004803603810190610ac0919061487b565b61359b565b604051610ad291906147a5565b60405180910390f35b610af56004803603810190610af09190615147565b6135b8565b005b60008073ffffffffffffffffffffffffffffffffffffffff168373ffffffffffffffffffffffffffffffffffffffff1603610b67576040517f08c379a0000000000000000000000000000000000000000000000000000000008152600401610b5e90615250565b60405180910390fd5b60008083815260200190815260200160002060008473ffffffffffffffffffffffffffffffffffffffff1673ffffffffffffffffffffffffffffffffffffffff16815260200190815260200160002054905092915050565b60007fd9b67a26000000000000000000000000000000000000000000000000000000007bffffffffffffffffffffffffffffffffffffffffffffffffffffffff1916827bffffffffffffffffffffffffffffffffffffffffffffffffffffffff19161480610c8a57507f0e89341c000000000000000000000000000000000000000000000000000000007bffffffffffffffffffffffffffffffffffffffffffffffffffffffff1916827bffffffffffffffffffffffffffffffffffffffffffffffffffffffff1916145b80610c9a5750610c9982613659565b5b9050919050565b600060086000838152602001908152602001600020549050919050565b6000600560008381526020019081526020016000206002015442610ce2919061529f565b9050919050565b60006005600083815260200190815260200160002060080154600660008481526020019081526020016000205410159050919050565b606060028054610d2e90615302565b80601f0160208091040260200160405190810160405280929190818152602001828054610d5a90615302565b8015610da75780601f10610d7c57610100808354040283529160200191610da7565b820191906000526020600020905b815481529060010190602001808311610d8a57829003601f168201915b50505050509050919050565b600060066000838152602001908152602001600020546005600084815260200190815260200160002060010154610dea9190615333565b9050919050565b6000670de0b6b3a76400006005600084815260200190815260200160002060070154670de0b6b3a7640000610e25856134ea565b610e2f9190615333565b610e3991906153a4565b610e4391906153a4565b9050919050565b600060136000838152602001908152602001600020549050919050565b610e6f6136c3565b73ffffffffffffffffffffffffffffffffffffffff168573ffffffffffffffffffffffffffffffffffffffff161480610eb55750610eb485610eaf6136c3565b613507565b5b610ef4576040517f08c379a0000000000000000000000000000000000000000000000000000000008152600401610eeb90615447565b60405180910390fd5b610f0185858585856136cb565b5050505050565b6000600b600083815260200190815260200160002060009054906101000a900460ff169050919050565b6000610f3d82611b79565b8015610f645750610f4d8261174a565b600860008481526020019081526020016000205410155b9050919050565b6000610f7682611987565b158015610f895750610f8782610ce9565b155b9050919050565b7f000000000000000000000000000000000000000000000000000000000000000073ffffffffffffffffffffffffffffffffffffffff163373ffffffffffffffffffffffffffffffffffffffff161461101e576040517f08c379a0000000000000000000000000000000000000000000000000000000008152600401611015906154b3565b60405180910390fd5b61102782611987565b15611067576040517f08c379a000000000000000000000000000000000000000000000000000000000815260040161105e9061551f565b60405180910390fd5b61107082610f6b565b156110b0576040517f08c379a00000000000000000000000000000000000000000000000000000000081526004016110a79061551f565b60405180910390fd5b6110b9826117a3565b156110f9576040517f08c379a00000000000000000000000000000000000000000000000000000000081526004016110f0906155b1565b60405180910390fd5b61110282610f08565b806111125750611111826113e8565b5b15611152576040517f08c379a000000000000000000000000000000000000000000000000000000000815260040161114990615643565b60405180910390fd5b60126000838152602001908152602001600020546008600084815260200190815260200160002054611184919061529f565b8111156111c6576040517f08c379a00000000000000000000000000000000000000000000000000000000081526004016111bd906156d5565b60405180910390fd5b806008600084815260200190815260200160002060008282546111e9919061529f565b925050819055507f000000000000000000000000000000000000000000000000000000000000000073ffffffffffffffffffffffffffffffffffffffff1663a9059cbb33836040518363ffffffff1660e01b815260040161124b9291906156f5565b6020604051808303816000875af115801561126a573d6000803e3d6000fd5b505050506040513d601f19601f8201168201806040525081019061128e9190615733565b505050565b606081518351146112d9576040517f08c379a00000000000000000000000000000000000000000000000000000000081526004016112d0906157d2565b60405180910390fd5b6000835167ffffffffffffffff8111156112f6576112f561495f565b5b6040519080825280602002602001820160405280156113245781602001602082028036833780820191505090505b50905060005b84518110156113a157611371858281518110611349576113486157f2565b5b6020026020010151858381518110611364576113636157f2565b5b6020026020010151610af7565b828281518110611384576113836157f2565b5b6020026020010181815250508061139a90615821565b905061132a565b508091505092915050565b600060066000838152602001908152602001600020546007600084815260200190815260200160002054149050919050565b6000600454905090565b6000806113f483611b79565b801561141a57506114048361174a565b6008600085815260200190815260200160002054105b9050600061142784611b79565b15801561146c57506201518060b4600160136000888152602001908152602001600020546114559190615869565b61145f9190615333565b6114699190615333565b42115b905081806114775750805b92505050919050565b61148982611987565b6114c8576040517f08c379a00000000000000000000000000000000000000000000000000000000081526004016114bf906158e9565b60405180910390fd5b806114d283611b9b565b1015611513576040517f08c379a000000000000000000000000000000000000000000000000000000000815260040161150a9061597b565b60405180910390fd5b6000600560008481526020019081526020016000206040518061014001604052908160008201805461154490615302565b80601f016020809104026020016040519081016040528092919081815260200182805461157090615302565b80156115bd5780601f10611592576101008083540402835291602001916115bd565b820191906000526020600020905b8154815290600101906020018083116115a057829003601f168201915b505050505081526020016001820154815260200160028201548152602001600382015481526020016004820154815260200160058201548152602001600682015481526020016007820154815260200160088201548152602001600982015481525050905060008160200151836116349190615333565b9050826006600086815260200190815260200160002060008282546116599190615869565b92505081905550806008600086815260200190815260200160002060008282546116839190615869565b92505081905550806004600082825461169c9190615869565b925050819055507f000000000000000000000000000000000000000000000000000000000000000073ffffffffffffffffffffffffffffffffffffffff166323b872dd3330846040518463ffffffff1660e01b81526004016117009392919061599b565b6020604051808303816000875af115801561171f573d6000803e3d6000fd5b505050506040513d601f19601f820116820180604052508101906117439190615733565b5050505050565b6000670de0b6b3a7640000600560008481526020019081526020016000206009015461177584610db3565b61177f9190615333565b61178991906153a4565b61179283610db3565b61179c9190615869565b9050919050565b6000600c600083815260200190815260200160002060009054906101000a900460ff169050919050565b6117d6826117a3565b611815576040517f08c379a000000000000000000000000000000000000000000000000000000000815260040161180c90615a1e565b60405180910390fd5b806118203384610af7565b1015611861576040517f08c379a000000000000000000000000000000000000000000000000000000000815260040161185890615a8a565b60405180910390fd5b61186c3383836139ec565b8060076000848152602001908152602001600020600082825461188f9190615869565b925050819055506000600a600084815260200190815260200160002054826118b79190615333565b90507f000000000000000000000000000000000000000000000000000000000000000073ffffffffffffffffffffffffffffffffffffffff1663a9059cbb33836040518363ffffffff1660e01b81526004016119149291906156f5565b6020604051808303816000875af1158015611933573d6000803e3d6000fd5b505050506040513d601f19601f820116820180604052508101906119579190615733565b508060086000858152602001908152602001600020600082825461197b919061529f565b92505081905550505050565b600060056000838152602001908152602001600020600401544211159050919050565b60006119b582610cbe565b60056000848152602001908152602001600020600501546119d6919061529f565b9050919050565b6060600080600080600080600080600080600560008d815260200190815260200160002060405180610140016040529081600082018054611a1d90615302565b80601f0160208091040260200160405190810160405280929190818152602001828054611a4990615302565b8015611a965780601f10611a6b57610100808354040283529160200191611a96565b820191906000526020600020905b815481529060010190602001808311611a7957829003601f168201915b5050505050815260200160018201548152602001600282015481526020016003820154815260200160048201548152602001600582015481526020016006820154815260200160078201548152602001600882015481526020016009820154815250509050806000015181602001518260400151836060015184608001518560a001518660c001518760e001518861010001518961012001519a509a509a509a509a509a509a509a509a509a50509193959799509193959799565b60007f0000000000000000000000000000000000000000000000000000000000000000905090565b6000600560008381526020019081526020016000206003015442119050919050565b600060066000838152602001908152602001600020546005600084815260200190815260200160002060070154611bd2919061529f565b9050919050565b611beb611be46136c3565b8383613c32565b5050565b611bf8816117a3565b158015611c0b5750611c0981610f08565b155b8015611c1c5750611c1b816113e8565b5b611c5b576040517f08c379a0000000000000000000000000000000000000000000000000000000008152600401611c5290615af6565b60405180910390fd5b6000611c668261174a565b905060006103e86008600085815260200190815260200160002054611c8b91906153a4565b90506000816008600086815260200190815260200160002054611cae919061529f565b9050600660008581526020019081526020016000205481611ccf91906153a4565b6009600086815260200190815260200160002081905550600060066000868152602001908152602001600020546009600087815260200190815260200160002054611d1a9190615333565b82611d25919061529f565b905060008184611d359190615869565b905080600860008881526020019081526020016000206000828254611d5a919061529f565b925050819055506001600b600088815260200190815260200160002060006101000a81548160ff0219169083151502179055507f000000000000000000000000000000000000000000000000000000000000000073ffffffffffffffffffffffffffffffffffffffff1663a9059cbb33836040518363ffffffff1660e01b8152600401611de89291906156f5565b6020604051808303816000875af1158015611e07573d6000803e3d6000fd5b505050506040513d601f19601f82011682018060405250810190611e2b9190615733565b50857fc4f17a65d54873d57229ea5f59c4ddec592d095bc17581372676402c8228b9cd8685604051611e5e929190615b16565b60405180910390a2505050505050565b60008160008110158015611e83575060028111155b611ec2576040517f08c379a0000000000000000000000000000000000000000000000000000000008152600401611eb990615b8b565b60405180910390fd5b600060b46002611ed29190615333565b905060008403611ef157806003611ee99190615333565b925050611f1f565b60018403611f0e57806005611f069190615333565b925050611f1f565b80600a611f1b9190615333565b9250505b50919050565b611f2e82610f08565b611f6d576040517f08c379a0000000000000000000000000000000000000000000000000000000008152600401611f6490615af6565b60405180910390fd5b80611f783384610af7565b1015611fb9576040517f08c379a0000000000000000000000000000000000000000000000000000000008152600401611fb090615a8a565b60405180910390fd5b611fc43383836139ec565b80600760008481526020019081526020016000206000828254611fe79190615869565b92505081905550600060096000848152602001908152602001600020548261200f9190615333565b90507f000000000000000000000000000000000000000000000000000000000000000073ffffffffffffffffffffffffffffffffffffffff1663a9059cbb33836040518363ffffffff1660e01b815260040161206c9291906156f5565b6020604051808303816000875af115801561208b573d6000803e3d6000fd5b505050506040513d601f19601f820116820180604052508101906120af9190615733565b50806008600085815260200190815260200160002060008282546120d3919061529f565b92505081905550505050565b600060056000838152602001908152602001600020600901549050919050565b7f000000000000000000000000000000000000000000000000000000000000000073ffffffffffffffffffffffffffffffffffffffff163373ffffffffffffffffffffffffffffffffffffffff161461218d576040517f08c379a0000000000000000000000000000000000000000000000000000000008152600401612184906154b3565b60405180910390fd5b61219682610f08565b806121a657506121a5826113e8565b5b156121e6576040517f08c379a00000000000000000000000000000000000000000000000000000000081526004016121dd90615643565b60405180910390fd5b600560008381526020019081526020016000206006015460b46001601360008681526020019081526020016000205461221f9190615869565b6122299190615333565b03612269576040517f08c379a000000000000000000000000000000000000000000000000000000000815260040161226090615bf7565b60405180910390fd5b601160008381526020019081526020016000206013600084815260200190815260200160002054815481106122a1576122a06157f2565b5b90600052602060002001548110156122ee576040517f08c379a00000000000000000000000000000000000000000000000000000000081526004016122e590615c63565b60405180910390fd5b66b1a2bc2ec500006011600084815260200190815260200160002060136000858152602001908152602001600020548154811061232e5761232d6157f2565b5b9060005260206000200154670de0b6b3a76400006011600086815260200190815260200160002060136000878152602001908152602001600020548154811061237a576123796157f2565b5b906000526020600020015484612390919061529f565b61239a9190615333565b6123a491906153a4565b11156123e5576040517f08c379a00000000000000000000000000000000000000000000000000000000081526004016123dc90615cf5565b60405180910390fd5b60006005600084815260200190815260200160002060070154826124099190615333565b90508060126000858152602001908152602001600020600082825461242e9190615869565b925050819055506201518060b46124459190615333565b60106000858152602001908152602001600020546124639190615869565b6010600085815260200190815260200160002081905550600160136000858152602001908152602001600020600082825461249e9190615869565b925050819055507f000000000000000000000000000000000000000000000000000000000000000073ffffffffffffffffffffffffffffffffffffffff166323b872dd3330846040518463ffffffff1660e01b81526004016125029392919061599b565b6020604051808303816000875af1158015612521573d6000803e3d6000fd5b505050506040513d601f19601f820116820180604052508101906125459190615733565b50505050565b61255482610f6b565b612593576040517f08c379a000000000000000000000000000000000000000000000000000000000815260040161258a90615d61565b60405180910390fd5b8061259e3384610af7565b10156125df576040517f08c379a00000000000000000000000000000000000000000000000000000000081526004016125d690615a8a565b60405180910390fd5b6125ea3383836139ec565b8060076000848152602001908152602001600020600082825461260d9190615869565b9250508190555060006005600084815260200190815260200160002060010154826126389190615333565b90507f000000000000000000000000000000000000000000000000000000000000000073ffffffffffffffffffffffffffffffffffffffff1663a9059cbb33836040518363ffffffff1660e01b81526004016126959291906156f5565b6020604051808303816000875af11580156126b4573d6000803e3d6000fd5b505050506040513d601f19601f820116820180604052508101906126d89190615733565b50806008600085815260200190815260200160002060008282546126fc919061529f565b92505081905550505050565b60606011600083815260200190815260200160002080548060200260200160405190810160405280929190818152602001828054801561276757602002820191906000526020600020905b815481526020019060010190808311612753575b50505050509050919050565b61277c81610f08565b15801561278f575061278d816117a3565b155b80156127a0575061279f81610f32565b5b6127df576040517f08c379a00000000000000000000000000000000000000000000000000000000081526004016127d690615dcd565b60405180910390fd5b60006127ea8261174a565b905060006103e8826127fc91906153a4565b90506000818361280c919061529f565b905060066000858152602001908152602001600020548161282d91906153a4565b600a60008681526020019081526020016000208190555060006006600086815260200190815260200160002054600a6000878152602001908152602001600020546128789190615333565b82612883919061529f565b9050600081846128939190615869565b9050806008600088815260200190815260200160002060008282546128b8919061529f565b925050819055506001600c600088815260200190815260200160002060006101000a81548160ff0219169083151502179055507f000000000000000000000000000000000000000000000000000000000000000073ffffffffffffffffffffffffffffffffffffffff1663a9059cbb33836040518363ffffffff1660e01b81526004016129469291906156f5565b6020604051808303816000875af1158015612965573d6000803e3d6000fd5b505050506040513d601f19601f820116820180604052508101906129899190615733565b50857fac2eeaf45d1b75aed6b3285cda3efb3c382cce02ba313558bbb90be57f8843e486856040516129bc929190615b16565b60405180910390a2505050505050565b606081600081101580156129e1575060028111155b612a20576040517f08c379a0000000000000000000000000000000000000000000000000000000008152600401612a1790615b8b565b60405180910390fd5b6000612a2b846130d0565b905060008151905060008167ffffffffffffffff811115612a4f57612a4e61495f565b5b604051908082528060200260200182016040528015612a7d5781602001602082028036833780820191505090505b50905060005b82811015612aef576064848281518110612aa057612a9f6157f2565b5b602002602001015189612ab39190615333565b612abd91906153a4565b828281518110612ad057612acf6157f2565b5b6020026020010181815250508080612ae790615821565b915050612a83565b508094505050505092915050565b600060106000838152602001908152602001600020549050919050565b60007f0000000000000000000000000000000000000000000000000000000000000000905090565b60007f000000000000000000000000000000000000000000000000000000000000000073ffffffffffffffffffffffffffffffffffffffff163373ffffffffffffffffffffffffffffffffffffffff1614612bd2576040517f08c379a0000000000000000000000000000000000000000000000000000000008152600401612bc9906154b3565b60405180910390fd5b8460008110158015612be5575060028111155b612c24576040517f08c379a0000000000000000000000000000000000000000000000000000000008152600401612c1b90615b8b565b60405180910390fd5b60b48510612c67576040517f08c379a0000000000000000000000000000000000000000000000000000000008152600401612c5e90615e5f565b60405180910390fd5b6000612c7287611e6e565b90506001600354612c839190615869565b9250612c9133848e87613d9e565b6040518061014001604052808a8a8080601f016020809104026020016040519081016040528093929190818152602001838380828437600081840152601f19601f8201169050808301925050505050505081526020018b81526020014281526020016201518083612d029190615333565b42612d0d9190615869565b81526020016201518088612d219190615333565b42612d2c9190615869565b81526020018781526020018281526020018d81526020018c815260200186815250600560008581526020019081526020016000206000820151816000019081612d75919061602b565b506020820151816001015560408201518160020155606082015181600301556080820151816004015560a0820151816005015560c0820151816006015560e08201518160070155610100820151816008015561012082015181600901559050506201518060b4612de59190615333565b42612df09190615869565b6010600085815260200190815260200160002081905550612e118a886129cc565b601160008581526020019081526020016000209080519060200190612e37929190614644565b50827ff73e436c94925e1e8b2f0b16de0a2c56aea7fb27878f7815811bc05bc6c335e88d8c886201518086612e6c9190615333565b42612e779190615869565b604051612e8794939291906160fd565b60405180910390a250509998505050505050505050565b6000612ea982610cbe565b6005600084815260200190815260200160002060060154612eca919061529f565b9050919050565b7f000000000000000000000000000000000000000000000000000000000000000073ffffffffffffffffffffffffffffffffffffffff163373ffffffffffffffffffffffffffffffffffffffff1614612f5f576040517f08c379a0000000000000000000000000000000000000000000000000000000008152600401612f56906154b3565b60405180910390fd5b612f6882610f08565b80612f785750612f77826113e8565b5b15612fb8576040517f08c379a0000000000000000000000000000000000000000000000000000000008152600401612faf9061618e565b60405180910390fd5b612fc1826117a3565b15613001576040517f08c379a0000000000000000000000000000000000000000000000000000000008152600401612ff8906161fa565b60405180910390fd5b806008600084815260200190815260200160002060008282546130249190615869565b925050819055507f000000000000000000000000000000000000000000000000000000000000000073ffffffffffffffffffffffffffffffffffffffff166323b872dd3330846040518463ffffffff1660e01b81526004016130889392919061599b565b6020604051808303816000875af11580156130a7573d6000803e3d6000fd5b505050506040513d601f19601f820116820180604052508101906130cb9190615733565b505050565b606081600081101580156130e5575060028111155b613124576040517f08c379a000000000000000000000000000000000000000000000000000000000815260040161311b90615b8b565b60405180910390fd5b6000830361318457600d80548060200260200160405190810160405280929190818152602001828054801561317857602002820191906000526020600020905b815481526020019060010190808311613164575b50505050509150613238565b600183036131e457600e8054806020026020016040519081016040528092919081815260200182805480156131d857602002820191906000526020600020905b8154815260200190600101908083116131c4575b50505050509150613238565b600f80548060200260200160405190810160405280929190818152602001828054801561323057602002820191906000526020600020905b81548152602001906001019080831161321c575b505050505091505b50919050565b60007f000000000000000000000000000000000000000000000000000000000000000073ffffffffffffffffffffffffffffffffffffffff166370a08231306040518263ffffffff1660e01b81526004016132999190614f33565b602060405180830381865afa1580156132b6573d6000803e3d6000fd5b505050506040513d601f19601f820116820180604052508101906132da919061622f565b905090565b7f000000000000000000000000000000000000000000000000000000000000000073ffffffffffffffffffffffffffffffffffffffff163373ffffffffffffffffffffffffffffffffffffffff161461336d576040517f08c379a0000000000000000000000000000000000000000000000000000000008152600401613364906154b3565b60405180910390fd5b613376816117a3565b80156133875750613386816113ac565b5b6133c6576040517f08c379a00000000000000000000000000000000000000000000000000000000081526004016133bd906162a8565b60405180910390fd5b600060086000838152602001908152602001600020541161341c576040517f08c379a000000000000000000000000000000000000000000000000000000000815260040161341390616314565b60405180910390fd5b600060086000838152602001908152602001600020819055507f000000000000000000000000000000000000000000000000000000000000000073ffffffffffffffffffffffffffffffffffffffff1663a9059cbb3360086000858152602001908152602001600020546040518363ffffffff1660e01b81526004016134a39291906156f5565b6020604051808303816000875af11580156134c2573d6000803e3d6000fd5b505050506040513d601f19601f820116820180604052508101906134e69190615733565b5050565b600060126000838152602001908152602001600020549050919050565b6000600160008473ffffffffffffffffffffffffffffffffffffffff1673ffffffffffffffffffffffffffffffffffffffff16815260200190815260200160002060008373ffffffffffffffffffffffffffffffffffffffff1673ffffffffffffffffffffffffffffffffffffffff16815260200190815260200160002060009054906101000a900460ff16905092915050565b600060086000838152602001908152602001600020549050919050565b6135c06136c3565b73ffffffffffffffffffffffffffffffffffffffff168573ffffffffffffffffffffffffffffffffffffffff1614806136065750613605856136006136c3565b613507565b5b613645576040517f08c379a000000000000000000000000000000000000000000000000000000000815260040161363c90615447565b60405180910390fd5b6136528585858585613f4e565b5050505050565b60007f01ffc9a7000000000000000000000000000000000000000000000000000000007bffffffffffffffffffffffffffffffffffffffffffffffffffffffff1916827bffffffffffffffffffffffffffffffffffffffffffffffffffffffff1916149050919050565b600033905090565b815183511461370f576040517f08c379a0000000000000000000000000000000000000000000000000000000008152600401613706906163a6565b60405180910390fd5b600073ffffffffffffffffffffffffffffffffffffffff168473ffffffffffffffffffffffffffffffffffffffff160361377e576040517f08c379a000000000000000000000000000000000000000000000000000000000815260040161377590616438565b60405180910390fd5b60006137886136c3565b90506137988187878787876141e9565b60005b84518110156139495760008582815181106137b9576137b86157f2565b5b6020026020010151905060008583815181106137d8576137d76157f2565b5b60200260200101519050600080600084815260200190815260200160002060008b73ffffffffffffffffffffffffffffffffffffffff1673ffffffffffffffffffffffffffffffffffffffff16815260200190815260200160002054905081811015613879576040517f08c379a0000000000000000000000000000000000000000000000000000000008152600401613870906164ca565b60405180910390fd5b81810360008085815260200190815260200160002060008c73ffffffffffffffffffffffffffffffffffffffff1673ffffffffffffffffffffffffffffffffffffffff168152602001908152602001600020819055508160008085815260200190815260200160002060008b73ffffffffffffffffffffffffffffffffffffffff1673ffffffffffffffffffffffffffffffffffffffff168152602001908152602001600020600082825461392e9190615869565b925050819055505050508061394290615821565b905061379b565b508473ffffffffffffffffffffffffffffffffffffffff168673ffffffffffffffffffffffffffffffffffffffff168273ffffffffffffffffffffffffffffffffffffffff167f4a39dc06d4c0dbc64b70af90fd698a233a518aa5d07e595d983b8c0526c8f7fb87876040516139c09291906164ea565b60405180910390a46139d68187878787876141f1565b6139e48187878787876141f9565b505050505050565b600073ffffffffffffffffffffffffffffffffffffffff168373ffffffffffffffffffffffffffffffffffffffff1603613a5b576040517f08c379a0000000000000000000000000000000000000000000000000000000008152600401613a5290616593565b60405180910390fd5b6000613a656136c3565b90506000613a72846143d0565b90506000613a7f846143d0565b9050613a9f838760008585604051806020016040528060008152506141e9565b600080600087815260200190815260200160002060008873ffffffffffffffffffffffffffffffffffffffff1673ffffffffffffffffffffffffffffffffffffffff16815260200190815260200160002054905084811015613b36576040517f08c379a0000000000000000000000000000000000000000000000000000000008152600401613b2d90616625565b60405180910390fd5b84810360008088815260200190815260200160002060008973ffffffffffffffffffffffffffffffffffffffff1673ffffffffffffffffffffffffffffffffffffffff16815260200190815260200160002081905550600073ffffffffffffffffffffffffffffffffffffffff168773ffffffffffffffffffffffffffffffffffffffff168573ffffffffffffffffffffffffffffffffffffffff167fc3d58168c5ae7397731d063d5bbf3d657854427343f4c083240f7aacaa2d0f628989604051613c03929190615b16565b60405180910390a4613c29848860008686604051806020016040528060008152506141f1565b50505050505050565b8173ffffffffffffffffffffffffffffffffffffffff168373ffffffffffffffffffffffffffffffffffffffff1603613ca0576040517f08c379a0000000000000000000000000000000000000000000000000000000008152600401613c97906166b7565b60405180910390fd5b80600160008573ffffffffffffffffffffffffffffffffffffffff1673ffffffffffffffffffffffffffffffffffffffff16815260200190815260200160002060008473ffffffffffffffffffffffffffffffffffffffff1673ffffffffffffffffffffffffffffffffffffffff16815260200190815260200160002060006101000a81548160ff0219169083151502179055508173ffffffffffffffffffffffffffffffffffffffff168373ffffffffffffffffffffffffffffffffffffffff167f17307eab39ab6107e8899845ad3d59bd9653f200f220920489ca2b5937696c3183604051613d919190614860565b60405180910390a3505050565b600073ffffffffffffffffffffffffffffffffffffffff168473ffffffffffffffffffffffffffffffffffffffff1603613e0d576040517f08c379a0000000000000000000000000000000000000000000000000000000008152600401613e0490616749565b60405180910390fd5b6000613e176136c3565b90506000613e24856143d0565b90506000613e31856143d0565b9050613e42836000898585896141e9565b8460008088815260200190815260200160002060008973ffffffffffffffffffffffffffffffffffffffff1673ffffffffffffffffffffffffffffffffffffffff1681526020019081526020016000206000828254613ea19190615869565b925050819055508673ffffffffffffffffffffffffffffffffffffffff16600073ffffffffffffffffffffffffffffffffffffffff168473ffffffffffffffffffffffffffffffffffffffff167fc3d58168c5ae7397731d063d5bbf3d657854427343f4c083240f7aacaa2d0f628989604051613f1f929190615b16565b60405180910390a4613f36836000898585896141f1565b613f458360008989898961444a565b50505050505050565b600073ffffffffffffffffffffffffffffffffffffffff168473ffffffffffffffffffffffffffffffffffffffff1603613fbd576040517f08c379a0000000000000000000000000000000000000000000000000000000008152600401613fb490616438565b60405180910390fd5b6000613fc76136c3565b90506000613fd4856143d0565b90506000613fe1856143d0565b9050613ff18389898585896141e9565b600080600088815260200190815260200160002060008a73ffffffffffffffffffffffffffffffffffffffff1673ffffffffffffffffffffffffffffffffffffffff16815260200190815260200160002054905085811015614088576040517f08c379a000000000000000000000000000000000000000000000000000000000815260040161407f906164ca565b60405180910390fd5b85810360008089815260200190815260200160002060008b73ffffffffffffffffffffffffffffffffffffffff1673ffffffffffffffffffffffffffffffffffffffff168152602001908152602001600020819055508560008089815260200190815260200160002060008a73ffffffffffffffffffffffffffffffffffffffff1673ffffffffffffffffffffffffffffffffffffffff168152602001908152602001600020600082825461413d9190615869565b925050819055508773ffffffffffffffffffffffffffffffffffffffff168973ffffffffffffffffffffffffffffffffffffffff168573ffffffffffffffffffffffffffffffffffffffff167fc3d58168c5ae7397731d063d5bbf3d657854427343f4c083240f7aacaa2d0f628a8a6040516141ba929190615b16565b60405180910390a46141d0848a8a86868a6141f1565b6141de848a8a8a8a8a61444a565b505050505050505050565b505050505050565b505050505050565b6142188473ffffffffffffffffffffffffffffffffffffffff16614621565b156143c8578373ffffffffffffffffffffffffffffffffffffffff1663bc197c8187878686866040518663ffffffff1660e01b815260040161425e9594939291906167be565b6020604051808303816000875af192505050801561429a57506040513d601f19601f82011682018060405250810190614297919061683b565b60015b61433f576142a6616875565b806308c379a00361430257506142ba616897565b806142c55750614304565b806040517f08c379a00000000000000000000000000000000000000000000000000000000081526004016142f99190614938565b60405180910390fd5b505b6040517f08c379a000000000000000000000000000000000000000000000000000000000815260040161433690616999565b60405180910390fd5b63bc197c8160e01b7bffffffffffffffffffffffffffffffffffffffffffffffffffffffff1916817bffffffffffffffffffffffffffffffffffffffffffffffffffffffff1916146143c6576040517f08c379a00000000000000000000000000000000000000000000000000000000081526004016143bd90616a2b565b60405180910390fd5b505b505050505050565b60606000600167ffffffffffffffff8111156143ef576143ee61495f565b5b60405190808252806020026020018201604052801561441d5781602001602082028036833780820191505090505b5090508281600081518110614435576144346157f2565b5b60200260200101818152505080915050919050565b6144698473ffffffffffffffffffffffffffffffffffffffff16614621565b15614619578373ffffffffffffffffffffffffffffffffffffffff1663f23a6e6187878686866040518663ffffffff1660e01b81526004016144af959493929190616a4b565b6020604051808303816000875af19250505080156144eb57506040513d601f19601f820116820180604052508101906144e8919061683b565b60015b614590576144f7616875565b806308c379a003614553575061450b616897565b806145165750614555565b806040517f08c379a000000000000000000000000000000000000000000000000000000000815260040161454a9190614938565b60405180910390fd5b505b6040517f08c379a000000000000000000000000000000000000000000000000000000000815260040161458790616999565b60405180910390fd5b63f23a6e6160e01b7bffffffffffffffffffffffffffffffffffffffffffffffffffffffff1916817bffffffffffffffffffffffffffffffffffffffffffffffffffffffff191614614617576040517f08c379a000000000000000000000000000000000000000000000000000000000815260040161460e90616a2b565b60405180910390fd5b505b505050505050565b6000808273ffffffffffffffffffffffffffffffffffffffff163b119050919050565b828054828255906000526020600020908101928215614680579160200282015b8281111561467f578251825591602001919060010190614664565b5b50905061468d9190614691565b5090565b5b808211156146aa576000816000905550600101614692565b5090565b6000604051905090565b600080fd5b600080fd5b600073ffffffffffffffffffffffffffffffffffffffff82169050919050565b60006146ed826146c2565b9050919050565b6146fd816146e2565b811461470857600080fd5b50565b60008135905061471a816146f4565b92915050565b6000819050919050565b61473381614720565b811461473e57600080fd5b50565b6000813590506147508161472a565b92915050565b6000806040838503121561476d5761476c6146b8565b5b600061477b8582860161470b565b925050602061478c85828601614741565b9150509250929050565b61479f81614720565b82525050565b60006020820190506147ba6000830184614796565b92915050565b60007fffffffff0000000000000000000000000000000000000000000000000000000082169050919050565b6147f5816147c0565b811461480057600080fd5b50565b600081359050614812816147ec565b92915050565b60006020828403121561482e5761482d6146b8565b5b600061483c84828501614803565b91505092915050565b60008115159050919050565b61485a81614845565b82525050565b60006020820190506148756000830184614851565b92915050565b600060208284031215614891576148906146b8565b5b600061489f84828501614741565b91505092915050565b600081519050919050565b600082825260208201905092915050565b60005b838110156148e25780820151818401526020810190506148c7565b60008484015250505050565b6000601f19601f8301169050919050565b600061490a826148a8565b61491481856148b3565b93506149248185602086016148c4565b61492d816148ee565b840191505092915050565b6000602082019050818103600083015261495281846148ff565b905092915050565b600080fd5b7f4e487b7100000000000000000000000000000000000000000000000000000000600052604160045260246000fd5b614997826148ee565b810181811067ffffffffffffffff821117156149b6576149b561495f565b5b80604052505050565b60006149c96146ae565b90506149d5828261498e565b919050565b600067ffffffffffffffff8211156149f5576149f461495f565b5b602082029050602081019050919050565b600080fd5b6000614a1e614a19846149da565b6149bf565b90508083825260208201905060208402830185811115614a4157614a40614a06565b5b835b81811015614a6a5780614a568882614741565b845260208401935050602081019050614a43565b5050509392505050565b600082601f830112614a8957614a8861495a565b5b8135614a99848260208601614a0b565b91505092915050565b600080fd5b600067ffffffffffffffff821115614ac257614ac161495f565b5b614acb826148ee565b9050602081019050919050565b82818337600083830152505050565b6000614afa614af584614aa7565b6149bf565b905082815260208101848484011115614b1657614b15614aa2565b5b614b21848285614ad8565b509392505050565b600082601f830112614b3e57614b3d61495a565b5b8135614b4e848260208601614ae7565b91505092915050565b600080600080600060a08688031215614b7357614b726146b8565b5b6000614b818882890161470b565b9550506020614b928882890161470b565b945050604086013567ffffffffffffffff811115614bb357614bb26146bd565b5b614bbf88828901614a74565b935050606086013567ffffffffffffffff811115614be057614bdf6146bd565b5b614bec88828901614a74565b925050608086013567ffffffffffffffff811115614c0d57614c0c6146bd565b5b614c1988828901614b29565b9150509295509295909350565b60008060408385031215614c3d57614c3c6146b8565b5b6000614c4b85828601614741565b9250506020614c5c85828601614741565b9150509250929050565b600067ffffffffffffffff821115614c8157614c8061495f565b5b602082029050602081019050919050565b6000614ca5614ca084614c66565b6149bf565b90508083825260208201905060208402830185811115614cc857614cc7614a06565b5b835b81811015614cf15780614cdd888261470b565b845260208401935050602081019050614cca565b5050509392505050565b600082601f830112614d1057614d0f61495a565b5b8135614d20848260208601614c92565b91505092915050565b60008060408385031215614d4057614d3f6146b8565b5b600083013567ffffffffffffffff811115614d5e57614d5d6146bd565b5b614d6a85828601614cfb565b925050602083013567ffffffffffffffff811115614d8b57614d8a6146bd565b5b614d9785828601614a74565b9150509250929050565b600081519050919050565b600082825260208201905092915050565b6000819050602082019050919050565b614dd681614720565b82525050565b6000614de88383614dcd565b60208301905092915050565b6000602082019050919050565b6000614e0c82614da1565b614e168185614dac565b9350614e2183614dbd565b8060005b83811015614e52578151614e398882614ddc565b9750614e4483614df4565b925050600181019050614e25565b5085935050505092915050565b60006020820190508181036000830152614e798184614e01565b905092915050565b6000610140820190508181036000830152614e9c818d6148ff565b9050614eab602083018c614796565b614eb8604083018b614796565b614ec5606083018a614796565b614ed26080830189614796565b614edf60a0830188614796565b614eec60c0830187614796565b614ef960e0830186614796565b614f07610100830185614796565b614f15610120830184614796565b9b9a5050505050505050505050565b614f2d816146e2565b82525050565b6000602082019050614f486000830184614f24565b92915050565b614f5781614845565b8114614f6257600080fd5b50565b600081359050614f7481614f4e565b92915050565b60008060408385031215614f9157614f906146b8565b5b6000614f9f8582860161470b565b9250506020614fb085828601614f65565b9150509250929050565b600080fd5b60008083601f840112614fd557614fd461495a565b5b8235905067ffffffffffffffff811115614ff257614ff1614fba565b5b60208301915083600182028301111561500e5761500d614a06565b5b9250929050565b60008060008060008060008060006101008a8c031215615038576150376146b8565b5b60006150468c828d01614741565b99505060206150578c828d01614741565b98505060406150688c828d01614741565b97505060608a013567ffffffffffffffff811115615089576150886146bd565b5b6150958c828d01614fbf565b965096505060806150a88c828d01614741565b94505060a06150b98c828d01614741565b93505060c06150ca8c828d01614741565b92505060e08a013567ffffffffffffffff8111156150eb576150ea6146bd565b5b6150f78c828d01614b29565b9150509295985092959850929598565b6000806040838503121561511e5761511d6146b8565b5b600061512c8582860161470b565b925050602061513d8582860161470b565b9150509250929050565b600080600080600060a08688031215615163576151626146b8565b5b60006151718882890161470b565b95505060206151828882890161470b565b945050604061519388828901614741565b93505060606151a488828901614741565b925050608086013567ffffffffffffffff8111156151c5576151c46146bd565b5b6151d188828901614b29565b9150509295509295909350565b7f455243313135353a2061646472657373207a65726f206973206e6f742061207660008201527f616c6964206f776e657200000000000000000000000000000000000000000000602082015250565b600061523a602a836148b3565b9150615245826151de565b604082019050919050565b600060208201905081810360008301526152698161522d565b9050919050565b7f4e487b7100000000000000000000000000000000000000000000000000000000600052601160045260246000fd5b60006152aa82614720565b91506152b583614720565b92508282039050818111156152cd576152cc615270565b5b92915050565b7f4e487b7100000000000000000000000000000000000000000000000000000000600052602260045260246000fd5b6000600282049050600182168061531a57607f821691505b60208210810361532d5761532c6152d3565b5b50919050565b600061533e82614720565b915061534983614720565b925082820261535781614720565b9150828204841483151761536e5761536d615270565b5b5092915050565b7f4e487b7100000000000000000000000000000000000000000000000000000000600052601260045260246000fd5b60006153af82614720565b91506153ba83614720565b9250826153ca576153c9615375565b5b828204905092915050565b7f455243313135353a2063616c6c6572206973206e6f7420746f6b656e206f776e60008201527f6572206f7220617070726f766564000000000000000000000000000000000000602082015250565b6000615431602e836148b3565b915061543c826153d5565b604082019050919050565b6000602082019050818103600083015261546081615424565b9050919050565b7f43616c6c6572206973206e6f7420746865206f776e6572000000000000000000600082015250565b600061549d6017836148b3565b91506154a882615467565b602082019050919050565b600060208201905081810360008301526154cc81615490565b9050919050565b7f5769746864726177206e6f7420616c6c6f776564207768656e20616374697665600082015250565b60006155096020836148b3565b9150615514826154d3565b602082019050919050565b60006020820190508181036000830152615538816154fc565b9050919050565b7f5769746864726177206e6f7420616c6c6f77656420616674657220636f6d706c60008201527f6574696f6e000000000000000000000000000000000000000000000000000000602082015250565b600061559b6025836148b3565b91506155a68261553f565b604082019050919050565b600060208201905081810360008301526155ca8161558e565b9050919050565b7f5769746864726177206e6f7420616c6c6f776564207768656e2064656661756c60008201527f7465640000000000000000000000000000000000000000000000000000000000602082015250565b600061562d6023836148b3565b9150615638826155d1565b604082019050919050565b6000602082019050818103600083015261565c81615620565b9050919050565b7f5769746864726177616c20746f6b656e20616d6f756e7420657863656564732060008201527f746f6b656e20616d6f756e7420696e20636f6e74726163740000000000000000602082015250565b60006156bf6038836148b3565b91506156ca82615663565b604082019050919050565b600060208201905081810360008301526156ee816156b2565b9050919050565b600060408201905061570a6000830185614f24565b6157176020830184614796565b9392505050565b60008151905061572d81614f4e565b92915050565b600060208284031215615749576157486146b8565b5b60006157578482850161571e565b91505092915050565b7f455243313135353a206163636f756e747320616e6420696473206c656e67746860008201527f206d69736d617463680000000000000000000000000000000000000000000000602082015250565b60006157bc6029836148b3565b91506157c782615760565b604082019050919050565b600060208201905081810360008301526157eb816157af565b9050919050565b7f4e487b7100000000000000000000000000000000000000000000000000000000600052603260045260246000fd5b600061582c82614720565b91507fffffffffffffffffffffffffffffffffffffffffffffffffffffffffffffffff820361585e5761585d615270565b5b600182019050919050565b600061587482614720565b915061587f83614720565b925082820190508082111561589757615896615270565b5b92915050565b7f426f6e6420697320696e61637469766500000000000000000000000000000000600082015250565b60006158d36010836148b3565b91506158de8261589d565b602082019050919050565b60006020820190508181036000830152615902816158c6565b9050919050565b7f496e73756666696369656e7420626f6e64207175616e746974792072656d616960008201527f6e696e6700000000000000000000000000000000000000000000000000000000602082015250565b60006159656024836148b3565b915061597082615909565b604082019050919050565b6000602082019050818103600083015261599481615958565b9050919050565b60006060820190506159b06000830186614f24565b6159bd6020830185614f24565b6159ca6040830184614796565b949350505050565b7f426f6e64206973206e6f7420636f6d706c657465640000000000000000000000600082015250565b6000615a086015836148b3565b9150615a13826159d2565b602082019050919050565b60006020820190508181036000830152615a37816159fb565b9050919050565b7f496e73756666696369656e7420626f6e64207175616e74697479000000000000600082015250565b6000615a74601a836148b3565b9150615a7f82615a3e565b602082019050919050565b60006020820190508181036000830152615aa381615a67565b9050919050565b7f426f6e64206973206e6f742064656661756c7465640000000000000000000000600082015250565b6000615ae06015836148b3565b9150615aeb82615aaa565b602082019050919050565b60006020820190508181036000830152615b0f81615ad3565b9050919050565b6000604082019050615b2b6000830185614796565b615b386020830184614796565b9392505050565b7f59656172206f7074696f6e206f7574206f662072616e67650000000000000000600082015250565b6000615b756018836148b3565b9150615b8082615b3f565b602082019050919050565b60006020820190508181036000830152615ba481615b68565b9050919050565b7f416c6c206f626c69676174696f6e732066756c66696c6c656400000000000000600082015250565b6000615be16019836148b3565b9150615bec82615bab565b602082019050919050565b60006020820190508181036000830152615c1081615bd4565b9050919050565b7f4d696e696d756d206f626c69676174696f6e206e6f742066756c66696c6c6564600082015250565b6000615c4d6020836148b3565b9150615c5882615c17565b602082019050919050565b60006020820190508181036000830152615c7c81615c40565b9050919050565b7f46756c66696c6c6d656e742073686f756c64206e6f742065786365656420352560008201527f2061626f7665206f626c69676174696f6e000000000000000000000000000000602082015250565b6000615cdf6031836148b3565b9150615cea82615c83565b604082019050919050565b60006020820190508181036000830152615d0e81615cd2565b9050919050565b7f426f6e64206973206e6f742063616e63656c6564000000000000000000000000600082015250565b6000615d4b6014836148b3565b9150615d5682615d15565b602082019050919050565b60006020820190508181036000830152615d7a81615d3e565b9050919050565b7f426f6e6420697320616c726561647920636f6d706c6574656400000000000000600082015250565b6000615db76019836148b3565b9150615dc282615d81565b602082019050919050565b60006020820190508181036000830152615de681615daa565b9050919050565b7f416374697665206475726174696f6e2073686f756c642062652073686f72746560008201527f72207468616e2031383020646179730000000000000000000000000000000000602082015250565b6000615e49602f836148b3565b9150615e5482615ded565b604082019050919050565b60006020820190508181036000830152615e7881615e3c565b9050919050565b60008190508160005260206000209050919050565b60006020601f8301049050919050565b600082821b905092915050565b600060088302615ee17fffffffffffffffffffffffffffffffffffffffffffffffffffffffffffffffff82615ea4565b615eeb8683615ea4565b95508019841693508086168417925050509392505050565b6000819050919050565b6000615f28615f23615f1e84614720565b615f03565b614720565b9050919050565b6000819050919050565b615f4283615f0d565b615f56615f4e82615f2f565b848454615eb1565b825550505050565b600090565b615f6b615f5e565b615f76818484615f39565b505050565b5b81811015615f9a57615f8f600082615f63565b600181019050615f7c565b5050565b601f821115615fdf57615fb081615e7f565b615fb984615e94565b81016020851015615fc8578190505b615fdc615fd485615e94565b830182615f7b565b50505b505050565b600082821c905092915050565b600061600260001984600802615fe4565b1980831691505092915050565b600061601b8383615ff1565b9150826002028217905092915050565b616034826148a8565b67ffffffffffffffff81111561604d5761604c61495f565b5b6160578254615302565b616062828285615f9e565b600060209050601f8311600181146160955760008415616083578287015190505b61608d858261600f565b8655506160f5565b601f1984166160a386615e7f565b60005b828110156160cb578489015182556001820191506020850194506020810190506160a6565b868310156160e857848901516160e4601f891682615ff1565b8355505b6001600288020188555050505b505050505050565b60006080820190506161126000830187614796565b61611f6020830186614796565b61612c6040830185614796565b6161396060830184614796565b95945050505050565b7f626f6e642069732064656661756c746564000000000000000000000000000000600082015250565b60006161786011836148b3565b915061618382616142565b602082019050919050565b600060208201905081810360008301526161a78161616b565b9050919050565b7f626f6e6420697320636f6d706c65746564000000000000000000000000000000600082015250565b60006161e46011836148b3565b91506161ef826161ae565b602082019050919050565b60006020820190508181036000830152616213816161d7565b9050919050565b6000815190506162298161472a565b92915050565b600060208284031215616245576162446146b8565b5b60006162538482850161621a565b91505092915050565b7f43616e6e6f742077697468647261772065786365737300000000000000000000600082015250565b60006162926016836148b3565b915061629d8261625c565b602082019050919050565b600060208201905081810360008301526162c181616285565b9050919050565b7f43616e6e6f742077697468647261772066726f6d20656d70747920706f6f6c00600082015250565b60006162fe601f836148b3565b9150616309826162c8565b602082019050919050565b6000602082019050818103600083015261632d816162f1565b9050919050565b7f455243313135353a2069647320616e6420616d6f756e7473206c656e6774682060008201527f6d69736d61746368000000000000000000000000000000000000000000000000602082015250565b60006163906028836148b3565b915061639b82616334565b604082019050919050565b600060208201905081810360008301526163bf81616383565b9050919050565b7f455243313135353a207472616e7366657220746f20746865207a65726f20616460008201527f6472657373000000000000000000000000000000000000000000000000000000602082015250565b60006164226025836148b3565b915061642d826163c6565b604082019050919050565b6000602082019050818103600083015261645181616415565b9050919050565b7f455243313135353a20696e73756666696369656e742062616c616e636520666f60008201527f72207472616e7366657200000000000000000000000000000000000000000000602082015250565b60006164b4602a836148b3565b91506164bf82616458565b604082019050919050565b600060208201905081810360008301526164e3816164a7565b9050919050565b600060408201905081810360008301526165048185614e01565b905081810360208301526165188184614e01565b90509392505050565b7f455243313135353a206275726e2066726f6d20746865207a65726f206164647260008201527f6573730000000000000000000000000000000000000000000000000000000000602082015250565b600061657d6023836148b3565b915061658882616521565b604082019050919050565b600060208201905081810360008301526165ac81616570565b9050919050565b7f455243313135353a206275726e20616d6f756e7420657863656564732062616c60008201527f616e636500000000000000000000000000000000000000000000000000000000602082015250565b600061660f6024836148b3565b915061661a826165b3565b604082019050919050565b6000602082019050818103600083015261663e81616602565b9050919050565b7f455243313135353a2073657474696e6720617070726f76616c2073746174757360008201527f20666f722073656c660000000000000000000000000000000000000000000000602082015250565b60006166a16029836148b3565b91506166ac82616645565b604082019050919050565b600060208201905081810360008301526166d081616694565b9050919050565b7f455243313135353a206d696e7420746f20746865207a65726f2061646472657360008201527f7300000000000000000000000000000000000000000000000000000000000000602082015250565b60006167336021836148b3565b915061673e826166d7565b604082019050919050565b6000602082019050818103600083015261676281616726565b9050919050565b600081519050919050565b600082825260208201905092915050565b600061679082616769565b61679a8185616774565b93506167aa8185602086016148c4565b6167b3816148ee565b840191505092915050565b600060a0820190506167d36000830188614f24565b6167e06020830187614f24565b81810360408301526167f28186614e01565b905081810360608301526168068185614e01565b9050818103608083015261681a8184616785565b90509695505050505050565b600081519050616835816147ec565b92915050565b600060208284031215616851576168506146b8565b5b600061685f84828501616826565b91505092915050565b60008160e01c9050919050565b600060033d11156168945760046000803e616891600051616868565b90505b90565b600060443d10616924576168a96146ae565b60043d036004823e80513d602482011167ffffffffffffffff821117156168d1575050616924565b808201805167ffffffffffffffff8111156168ef5750505050616924565b80602083010160043d03850181111561690c575050505050616924565b61691b8260200185018661498e565b82955050505050505b90565b7f455243313135353a207472616e7366657220746f206e6f6e2d4552433131353560008201527f526563656976657220696d706c656d656e746572000000000000000000000000602082015250565b60006169836034836148b3565b915061698e82616927565b604082019050919050565b600060208201905081810360008301526169b281616976565b9050919050565b7f455243313135353a204552433131353552656365697665722072656a6563746560008201527f6420746f6b656e73000000000000000000000000000000000000000000000000602082015250565b6000616a156028836148b3565b9150616a20826169b9565b604082019050919050565b60006020820190508181036000830152616a4481616a08565b9050919050565b600060a082019050616a606000830188614f24565b616a6d6020830187614f24565b616a7a6040830186614796565b616a876060830185614796565b8181036080830152616a998184616785565b9050969550505050505056fea264697066735822122092a28a37bd54830d727071621f848f2bd3ff02074ccf3278f704c76f74084cf864736f6c6343000811003360c060405260006003553480156200001657600080fd5b50604051620063953803806200639583398181016040528101906200003c9190620002cd565b826200004e81620000c060201b60201c565b508073ffffffffffffffffffffffffffffffffffffffff1660808173ffffffffffffffffffffffffffffffffffffffff16815250508173ffffffffffffffffffffffffffffffffffffffff1660a08173ffffffffffffffffffffffffffffffffffffffff16815250505050506200067a565b8060029081620000d1919062000593565b5050565b6000604051905090565b600080fd5b600080fd5b600080fd5b600080fd5b6000601f19601f8301169050919050565b7f4e487b7100000000000000000000000000000000000000000000000000000000600052604160045260246000fd5b6200013e82620000f3565b810181811067ffffffffffffffff8211171562000160576200015f62000104565b5b80604052505050565b600062000175620000d5565b905062000183828262000133565b919050565b600067ffffffffffffffff821115620001a657620001a562000104565b5b620001b182620000f3565b9050602081019050919050565b60005b83811015620001de578082015181840152602081019050620001c1565b60008484015250505050565b600062000201620001fb8462000188565b62000169565b90508281526020810184848401111562000220576200021f620000ee565b5b6200022d848285620001be565b509392505050565b600082601f8301126200024d576200024c620000e9565b5b81516200025f848260208601620001ea565b91505092915050565b600073ffffffffffffffffffffffffffffffffffffffff82169050919050565b6000620002958262000268565b9050919050565b620002a78162000288565b8114620002b357600080fd5b50565b600081519050620002c7816200029c565b92915050565b600080600060608486031215620002e957620002e8620000df565b5b600084015167ffffffffffffffff8111156200030a5762000309620000e4565b5b620003188682870162000235565b93505060206200032b86828701620002b6565b92505060406200033e86828701620002b6565b9150509250925092565b600081519050919050565b7f4e487b7100000000000000000000000000000000000000000000000000000000600052602260045260246000fd5b600060028204905060018216806200039b57607f821691505b602082108103620003b157620003b062000353565b5b50919050565b60008190508160005260206000209050919050565b60006020601f8301049050919050565b600082821b905092915050565b6000600883026200041b7fffffffffffffffffffffffffffffffffffffffffffffffffffffffffffffffff82620003dc565b620004278683620003dc565b95508019841693508086168417925050509392505050565b6000819050919050565b6000819050919050565b6000620004746200046e62000468846200043f565b62000449565b6200043f565b9050919050565b6000819050919050565b620004908362000453565b620004a86200049f826200047b565b848454620003e9565b825550505050565b600090565b620004bf620004b0565b620004cc81848462000485565b505050565b5b81811015620004f457620004e8600082620004b5565b600181019050620004d2565b5050565b601f82111562000543576200050d81620003b7565b6200051884620003cc565b8101602085101562000528578190505b620005406200053785620003cc565b830182620004d1565b50505b505050565b600082821c905092915050565b6000620005686000198460080262000548565b1980831691505092915050565b600062000583838362000555565b9150826002028217905092915050565b6200059e8262000348565b67ffffffffffffffff811115620005ba57620005b962000104565b5b620005c6825462000382565b620005d3828285620004f8565b600060209050601f8311600181146200060b5760008415620005f6578287015190505b62000602858262000575565b86555062000672565b601f1984166200061b86620003b7565b60005b8281101562000645578489015182556001820191506020850194506020810190506200061e565b8683101562000665578489015162000661601f89168262000555565b8355505b6001600288020188555050505b505050505050565b60805160a051615c936200070260003960008181610f3f01528181611392015281816115a801528181611a7c01528181611c4901528181611e260152818161206c0152818161214f0152818161256e01528181612615015261280a015260008181610cfd01528181611842015281816121770152818161241401526126b40152615c936000f3fe608060405234801561001057600080fd5b50600436106102525760003560e01c806382afd23b11610146578063b09f2b1c116100c3578063e2bbb15811610087578063e2bbb15814610806578063e5328e0614610822578063e755ddd714610840578063e985e9c51461085c578063f0d8100a1461088c578063f242432a146108bc57610252565b8063b09f2b1c14610750578063c0a6026c1461076c578063c55dae6314610788578063c7bc5730146107a6578063d3b7811b146107d657610252565b8063932a8de01161010a578063932a8de01461069c578063a22cb465146106cc578063a8743022146106e8578063a996ef0814610704578063abac75e11461072057610252565b806382afd23b146105b557806388bdc083146105e55780638c3526c2146106155780638da5cb5b1461064e5780638f0dbf771461066c57610252565b806339e3af9b116101d45780636ff80d93116101985780636ff80d93146104ed57806370876c981461051d57806377e2a08b146105395780637a41984b146105695780637cbc23731461059957610252565b806339e3af9b14610423578063441a3e70146104535780634e1273f41461046f578063549493bb1461049f5780636681b9fd146104cf57610252565b80630e89341c1161021b5780630e89341c1461034757806314f29493146103775780632eb2c2d6146103a75780632f3ad61f146103c35780633097afb8146103f357610252565b8062fdd58e1461025757806301ffc9a71461028757806302159497146102b757806308913ce8146102e75780630914902014610317575b600080fd5b610271600480360381019061026c9190613aa2565b6108d8565b60405161027e9190613af1565b60405180910390f35b6102a1600480360381019061029c9190613b64565b6109a0565b6040516102ae9190613bac565b60405180910390f35b6102d160048036038101906102cc9190613bc7565b610a82565b6040516102de9190613af1565b60405180910390f35b61030160048036038101906102fc9190613bc7565b610a9f565b60405161030e9190613af1565b60405180910390f35b610331600480360381019061032c9190613bc7565b610aca565b60405161033e9190613bac565b60405180910390f35b610361600480360381019061035c9190613bc7565b610b00565b60405161036e9190613c84565b60405180910390f35b610391600480360381019061038c9190613bc7565b610b94565b60405161039e9190613af1565b60405180910390f35b6103c160048036038101906103bc9190613ea3565b610bd2565b005b6103dd60048036038101906103d89190613bc7565b610c73565b6040516103ea9190613bac565b60405180910390f35b61040d60048036038101906104089190613bc7565b610c9d565b60405161041a9190613bac565b60405180910390f35b61043d60048036038101906104389190613bc7565b610cd6565b60405161044a9190613bac565b60405180910390f35b61046d60048036038101906104689190613f72565b610cfb565b005b61048960048036038101906104849190614075565b610fe0565b60405161049691906141ab565b60405180910390f35b6104b960048036038101906104b49190613bc7565b6110f9565b6040516104c69190613bac565b60405180910390f35b6104d761112b565b6040516104e49190613af1565b60405180910390f35b61050760048036038101906105029190613bc7565b611135565b6040516105149190613bac565b60405180910390f35b61053760048036038101906105329190613f72565b61116d565b005b610553600480360381019061054e9190613bc7565b611437565b6040516105609190613af1565b60405180910390f35b610583600480360381019061057e9190613bc7565b611490565b6040516105909190613bac565b60405180910390f35b6105b360048036038101906105ae9190613f72565b6114ba565b005b6105cf60048036038101906105ca9190613bc7565b611674565b6040516105dc9190613bac565b60405180910390f35b6105ff60048036038101906105fa9190613bc7565b611697565b60405161060c9190613af1565b60405180910390f35b61062f600480360381019061062a9190613bc7565b6116ca565b6040516106459a999897969594939291906141cd565b60405180910390f35b61065661183e565b604051610663919061427f565b60405180910390f35b61068660048036038101906106819190613bc7565b611866565b6040516106939190613bac565b60405180910390f35b6106b660048036038101906106b19190613bc7565b611888565b6040516106c39190613af1565b60405180910390f35b6106e660048036038101906106e191906142c6565b6118c6565b005b61070260048036038101906106fd9190613bc7565b6118dc565b005b61071e60048036038101906107199190613f72565b611b5b565b005b61073a60048036038101906107359190613bc7565b611d15565b6040516107479190613af1565b60405180910390f35b61076a60048036038101906107659190613f72565b611d35565b005b61078660048036038101906107819190613bc7565b611ef2565b005b61079061214b565b60405161079d919061427f565b60405180910390f35b6107c060048036038101906107bb91906143a7565b612173565b6040516107cd9190613af1565b60405180910390f35b6107f060048036038101906107eb9190613bc7565b6123df565b6040516107fd9190613af1565b60405180910390f35b610820600480360381019061081b9190613f72565b612412565b005b61082a612611565b6040516108379190613af1565b60405180910390f35b61085a60048036038101906108559190613bc7565b6126b2565b005b61087660048036038101906108719190614495565b6128bd565b6040516108839190613bac565b60405180910390f35b6108a660048036038101906108a19190613bc7565b612951565b6040516108b39190613af1565b60405180910390f35b6108d660048036038101906108d191906144d5565b61296e565b005b60008073ffffffffffffffffffffffffffffffffffffffff168373ffffffffffffffffffffffffffffffffffffffff1603610948576040517f08c379a000000000000000000000000000000000000000000000000000000000815260040161093f906145de565b60405180910390fd5b60008083815260200190815260200160002060008473ffffffffffffffffffffffffffffffffffffffff1673ffffffffffffffffffffffffffffffffffffffff16815260200190815260200160002054905092915050565b60007fd9b67a26000000000000000000000000000000000000000000000000000000007bffffffffffffffffffffffffffffffffffffffffffffffffffffffff1916827bffffffffffffffffffffffffffffffffffffffffffffffffffffffff19161480610a6b57507f0e89341c000000000000000000000000000000000000000000000000000000007bffffffffffffffffffffffffffffffffffffffffffffffffffffffff1916827bffffffffffffffffffffffffffffffffffffffffffffffffffffffff1916145b80610a7b5750610a7a82612a0f565b5b9050919050565b600060086000838152602001908152602001600020549050919050565b6000600560008381526020019081526020016000206002015442610ac3919061462d565b9050919050565b60006005600083815260200190815260200160002060080154600660008481526020019081526020016000205410159050919050565b606060028054610b0f90614690565b80601f0160208091040260200160405190810160405280929190818152602001828054610b3b90614690565b8015610b885780601f10610b5d57610100808354040283529160200191610b88565b820191906000526020600020905b815481529060010190602001808311610b6b57829003601f168201915b50505050509050919050565b600060066000838152602001908152602001600020546005600084815260200190815260200160002060010154610bcb91906146c1565b9050919050565b610bda612a79565b73ffffffffffffffffffffffffffffffffffffffff168573ffffffffffffffffffffffffffffffffffffffff161480610c205750610c1f85610c1a612a79565b6128bd565b5b610c5f576040517f08c379a0000000000000000000000000000000000000000000000000000000008152600401610c5690614775565b60405180910390fd5b610c6c8585858585612a81565b5050505050565b6000600b600083815260200190815260200160002060009054906101000a900460ff169050919050565b6000610ca882611866565b8015610ccf5750610cb882611437565b600860008481526020019081526020016000205410155b9050919050565b6000610ce182611674565b158015610cf45750610cf282610aca565b155b9050919050565b7f000000000000000000000000000000000000000000000000000000000000000073ffffffffffffffffffffffffffffffffffffffff163373ffffffffffffffffffffffffffffffffffffffff1614610d89576040517f08c379a0000000000000000000000000000000000000000000000000000000008152600401610d80906147e1565b60405180910390fd5b610d9282611674565b15610dd2576040517f08c379a0000000000000000000000000000000000000000000000000000000008152600401610dc99061484d565b60405180910390fd5b610ddb82610cd6565b15610e1b576040517f08c379a0000000000000000000000000000000000000000000000000000000008152600401610e129061484d565b60405180910390fd5b610e2482611490565b15610e64576040517f08c379a0000000000000000000000000000000000000000000000000000000008152600401610e5b906148df565b60405180910390fd5b610e6d82610c73565b80610e7d5750610e7c82611135565b5b15610ebd576040517f08c379a0000000000000000000000000000000000000000000000000000000008152600401610eb490614971565b60405180910390fd5b6008600083815260200190815260200160002054811115610f13576040517f08c379a0000000000000000000000000000000000000000000000000000000008152600401610f0a90614a03565b60405180910390fd5b80600860008481526020019081526020016000206000828254610f36919061462d565b925050819055507f000000000000000000000000000000000000000000000000000000000000000073ffffffffffffffffffffffffffffffffffffffff1663a9059cbb33836040518363ffffffff1660e01b8152600401610f98929190614a23565b6020604051808303816000875af1158015610fb7573d6000803e3d6000fd5b505050506040513d601f19601f82011682018060405250810190610fdb9190614a61565b505050565b60608151835114611026576040517f08c379a000000000000000000000000000000000000000000000000000000000815260040161101d90614b00565b60405180910390fd5b6000835167ffffffffffffffff81111561104357611042613cab565b5b6040519080825280602002602001820160405280156110715781602001602082028036833780820191505090505b50905060005b84518110156110ee576110be85828151811061109657611095614b20565b5b60200260200101518583815181106110b1576110b0614b20565b5b60200260200101516108d8565b8282815181106110d1576110d0614b20565b5b602002602001018181525050806110e790614b4f565b9050611077565b508091505092915050565b600060066000838152602001908152602001600020546007600084815260200190815260200160002054149050919050565b6000600454905090565b600061114082611866565b8015611166575061115082611437565b6008600084815260200190815260200160002054105b9050919050565b61117682611674565b6111b5576040517f08c379a00000000000000000000000000000000000000000000000000000000081526004016111ac90614be3565b60405180910390fd5b806111bf83611888565b1015611200576040517f08c379a00000000000000000000000000000000000000000000000000000000081526004016111f790614c75565b60405180910390fd5b6000600560008481526020019081526020016000206040518061014001604052908160008201805461123190614690565b80601f016020809104026020016040519081016040528092919081815260200182805461125d90614690565b80156112aa5780601f1061127f576101008083540402835291602001916112aa565b820191906000526020600020905b81548152906001019060200180831161128d57829003601f168201915b5050505050815260200160018201548152602001600282015481526020016003820154815260200160048201548152602001600582015481526020016006820154815260200160078201548152602001600882015481526020016009820154815250509050600081602001518361132191906146c1565b9050826006600086815260200190815260200160002060008282546113469190614c95565b92505081905550806008600086815260200190815260200160002060008282546113709190614c95565b9250508190555080600460008282546113899190614c95565b925050819055507f000000000000000000000000000000000000000000000000000000000000000073ffffffffffffffffffffffffffffffffffffffff166323b872dd3330846040518463ffffffff1660e01b81526004016113ed93929190614cc9565b6020604051808303816000875af115801561140c573d6000803e3d6000fd5b505050506040513d601f19601f820116820180604052508101906114309190614a61565b5050505050565b6000670de0b6b3a7640000600560008481526020019081526020016000206009015461146284610b94565b61146c91906146c1565b6114769190614d2f565b61147f83610b94565b6114899190614c95565b9050919050565b6000600c600083815260200190815260200160002060009054906101000a900460ff169050919050565b6114c382611490565b611502576040517f08c379a00000000000000000000000000000000000000000000000000000000081526004016114f990614dac565b60405180910390fd5b8061150d33846108d8565b101561154e576040517f08c379a000000000000000000000000000000000000000000000000000000000815260040161154590614e18565b60405180910390fd5b611559338383612da2565b8060076000848152602001908152602001600020600082825461157c9190614c95565b925050819055506000600a600084815260200190815260200160002054826115a491906146c1565b90507f000000000000000000000000000000000000000000000000000000000000000073ffffffffffffffffffffffffffffffffffffffff1663a9059cbb33836040518363ffffffff1660e01b8152600401611601929190614a23565b6020604051808303816000875af1158015611620573d6000803e3d6000fd5b505050506040513d601f19601f820116820180604052508101906116449190614a61565b5080600860008581526020019081526020016000206000828254611668919061462d565b92505081905550505050565b600060056000838152602001908152602001600020600401544211159050919050565b60006116a282610a9f565b60056000848152602001908152602001600020600501546116c3919061462d565b9050919050565b6060600080600080600080600080600080600560008d81526020019081526020016000206040518061014001604052908160008201805461170a90614690565b80601f016020809104026020016040519081016040528092919081815260200182805461173690614690565b80156117835780601f1061175857610100808354040283529160200191611783565b820191906000526020600020905b81548152906001019060200180831161176657829003601f168201915b5050505050815260200160018201548152602001600282015481526020016003820154815260200160048201548152602001600582015481526020016006820154815260200160078201548152602001600882015481526020016009820154815250509050806000015181602001518260400151836060015184608001518560a001518660c001518760e001518861010001518961012001519a509a509a509a509a509a509a509a509a509a50509193959799509193959799565b60007f0000000000000000000000000000000000000000000000000000000000000000905090565b6000600560008381526020019081526020016000206003015442119050919050565b6000600660008381526020019081526020016000205460056000848152602001908152602001600020600701546118bf919061462d565b9050919050565b6118d86118d1612a79565b8383612fe8565b5050565b6118e581611490565b1580156118f857506118f681610c73565b155b8015611909575061190881611135565b5b611948576040517f08c379a000000000000000000000000000000000000000000000000000000000815260040161193f90614e84565b60405180910390fd5b600061195382611437565b905060006103e860086000858152602001908152602001600020546119789190614d2f565b9050600081600860008681526020019081526020016000205461199b919061462d565b90506006600085815260200190815260200160002054816119bc9190614d2f565b6009600086815260200190815260200160002081905550600060066000868152602001908152602001600020546009600087815260200190815260200160002054611a0791906146c1565b82611a12919061462d565b905060008184611a229190614c95565b905080600860008881526020019081526020016000206000828254611a47919061462d565b925050819055506001600b600088815260200190815260200160002060006101000a81548160ff0219169083151502179055507f000000000000000000000000000000000000000000000000000000000000000073ffffffffffffffffffffffffffffffffffffffff1663a9059cbb33836040518363ffffffff1660e01b8152600401611ad5929190614a23565b6020604051808303816000875af1158015611af4573d6000803e3d6000fd5b505050506040513d601f19601f82011682018060405250810190611b189190614a61565b50857fc4f17a65d54873d57229ea5f59c4ddec592d095bc17581372676402c8228b9cd8685604051611b4b929190614ea4565b60405180910390a2505050505050565b611b6482610c73565b611ba3576040517f08c379a0000000000000000000000000000000000000000000000000000000008152600401611b9a90614e84565b60405180910390fd5b80611bae33846108d8565b1015611bef576040517f08c379a0000000000000000000000000000000000000000000000000000000008152600401611be690614e18565b60405180910390fd5b611bfa338383612da2565b80600760008481526020019081526020016000206000828254611c1d9190614c95565b925050819055506000600960008481526020019081526020016000205482611c4591906146c1565b90507f000000000000000000000000000000000000000000000000000000000000000073ffffffffffffffffffffffffffffffffffffffff1663a9059cbb33836040518363ffffffff1660e01b8152600401611ca2929190614a23565b6020604051808303816000875af1158015611cc1573d6000803e3d6000fd5b505050506040513d601f19601f82011682018060405250810190611ce59190614a61565b5080600860008581526020019081526020016000206000828254611d09919061462d565b92505081905550505050565b600060056000838152602001908152602001600020600901549050919050565b611d3e82610cd6565b611d7d576040517f08c379a0000000000000000000000000000000000000000000000000000000008152600401611d7490614f19565b60405180910390fd5b80611d8833846108d8565b1015611dc9576040517f08c379a0000000000000000000000000000000000000000000000000000000008152600401611dc090614e18565b60405180910390fd5b611dd4338383612da2565b80600760008481526020019081526020016000206000828254611df79190614c95565b925050819055506000600560008481526020019081526020016000206001015482611e2291906146c1565b90507f000000000000000000000000000000000000000000000000000000000000000073ffffffffffffffffffffffffffffffffffffffff1663a9059cbb33836040518363ffffffff1660e01b8152600401611e7f929190614a23565b6020604051808303816000875af1158015611e9e573d6000803e3d6000fd5b505050506040513d601f19601f82011682018060405250810190611ec29190614a61565b5080600860008581526020019081526020016000206000828254611ee6919061462d565b92505081905550505050565b611efb81610c73565b158015611f0e5750611f0c81611490565b155b8015611f1f5750611f1e81610c9d565b5b611f5e576040517f08c379a0000000000000000000000000000000000000000000000000000000008152600401611f5590614f85565b60405180910390fd5b6000611f6982611437565b905060006103e882611f7b9190614d2f565b905060008183611f8b919061462d565b9050600660008581526020019081526020016000205481611fac9190614d2f565b600a60008681526020019081526020016000208190555060006006600086815260200190815260200160002054600a600087815260200190815260200160002054611ff791906146c1565b82612002919061462d565b9050600081846120129190614c95565b905080600860008881526020019081526020016000206000828254612037919061462d565b925050819055506001600c600088815260200190815260200160002060006101000a81548160ff0219169083151502179055507f000000000000000000000000000000000000000000000000000000000000000073ffffffffffffffffffffffffffffffffffffffff1663a9059cbb33836040518363ffffffff1660e01b81526004016120c5929190614a23565b6020604051808303816000875af11580156120e4573d6000803e3d6000fd5b505050506040513d601f19601f820116820180604052508101906121089190614a61565b50857fac2eeaf45d1b75aed6b3285cda3efb3c382cce02ba313558bbb90be57f8843e4868560405161213b929190614ea4565b60405180910390a2505050505050565b60007f0000000000000000000000000000000000000000000000000000000000000000905090565b60007f000000000000000000000000000000000000000000000000000000000000000073ffffffffffffffffffffffffffffffffffffffff163373ffffffffffffffffffffffffffffffffffffffff1614612203576040517f08c379a00000000000000000000000000000000000000000000000000000000081526004016121fa906147e1565b60405180910390fd5b848410612245576040517f08c379a000000000000000000000000000000000000000000000000000000000815260040161223c90615017565b60405180910390fd5b60016003546122549190614c95565b90506001600360008282546122699190614c95565b9250508190555061227c33828b85613154565b60405180610140016040528087815260200188815260200142815260200162015180876122a991906146c1565b426122b49190614c95565b815260200162015180866122c891906146c1565b426122d39190614c95565b81526020018581526020018681526020018a81526020018981526020018481525060056000838152602001908152602001600020600082015181600001908161231c91906151e3565b506020820151816001015560408201518160020155606082015181600301556080820151816004015560a0820151816005015560c0820151816006015560e0820151816007015561010082015181600801556101208201518160090155905050807ff73e436c94925e1e8b2f0b16de0a2c56aea7fb27878f7815811bc05bc6c335e88a8986620151808a6123b091906146c1565b426123bb9190614c95565b6040516123cb94939291906152b5565b60405180910390a298975050505050505050565b60006123ea82610a9f565b600560008481526020019081526020016000206006015461240b919061462d565b9050919050565b7f000000000000000000000000000000000000000000000000000000000000000073ffffffffffffffffffffffffffffffffffffffff163373ffffffffffffffffffffffffffffffffffffffff16146124a0576040517f08c379a0000000000000000000000000000000000000000000000000000000008152600401612497906147e1565b60405180910390fd5b6124a982610c73565b806124b957506124b882611135565b5b156124f9576040517f08c379a00000000000000000000000000000000000000000000000000000000081526004016124f090615346565b60405180910390fd5b61250282611490565b15612542576040517f08c379a0000000000000000000000000000000000000000000000000000000008152600401612539906153b2565b60405180910390fd5b806008600084815260200190815260200160002060008282546125659190614c95565b925050819055507f000000000000000000000000000000000000000000000000000000000000000073ffffffffffffffffffffffffffffffffffffffff166323b872dd3330846040518463ffffffff1660e01b81526004016125c993929190614cc9565b6020604051808303816000875af11580156125e8573d6000803e3d6000fd5b505050506040513d601f19601f8201168201806040525081019061260c9190614a61565b505050565b60007f000000000000000000000000000000000000000000000000000000000000000073ffffffffffffffffffffffffffffffffffffffff166370a08231306040518263ffffffff1660e01b815260040161266c919061427f565b602060405180830381865afa158015612689573d6000803e3d6000fd5b505050506040513d601f19601f820116820180604052508101906126ad91906153e7565b905090565b7f000000000000000000000000000000000000000000000000000000000000000073ffffffffffffffffffffffffffffffffffffffff163373ffffffffffffffffffffffffffffffffffffffff1614612740576040517f08c379a0000000000000000000000000000000000000000000000000000000008152600401612737906147e1565b60405180910390fd5b61274981611490565b801561275a5750612759816110f9565b5b612799576040517f08c379a000000000000000000000000000000000000000000000000000000000815260040161279090615460565b60405180910390fd5b60006008600083815260200190815260200160002054116127ef576040517f08c379a00000000000000000000000000000000000000000000000000000000081526004016127e6906154cc565b60405180910390fd5b600060086000838152602001908152602001600020819055507f000000000000000000000000000000000000000000000000000000000000000073ffffffffffffffffffffffffffffffffffffffff1663a9059cbb3360086000858152602001908152602001600020546040518363ffffffff1660e01b8152600401612876929190614a23565b6020604051808303816000875af1158015612895573d6000803e3d6000fd5b505050506040513d601f19601f820116820180604052508101906128b99190614a61565b5050565b6000600160008473ffffffffffffffffffffffffffffffffffffffff1673ffffffffffffffffffffffffffffffffffffffff16815260200190815260200160002060008373ffffffffffffffffffffffffffffffffffffffff1673ffffffffffffffffffffffffffffffffffffffff16815260200190815260200160002060009054906101000a900460ff16905092915050565b600060086000838152602001908152602001600020549050919050565b612976612a79565b73ffffffffffffffffffffffffffffffffffffffff168573ffffffffffffffffffffffffffffffffffffffff1614806129bc57506129bb856129b6612a79565b6128bd565b5b6129fb576040517f08c379a00000000000000000000000000000000000000000000000000000000081526004016129f290614775565b60405180910390fd5b612a088585858585613304565b5050505050565b60007f01ffc9a7000000000000000000000000000000000000000000000000000000007bffffffffffffffffffffffffffffffffffffffffffffffffffffffff1916827bffffffffffffffffffffffffffffffffffffffffffffffffffffffff1916149050919050565b600033905090565b8151835114612ac5576040517f08c379a0000000000000000000000000000000000000000000000000000000008152600401612abc9061555e565b60405180910390fd5b600073ffffffffffffffffffffffffffffffffffffffff168473ffffffffffffffffffffffffffffffffffffffff1603612b34576040517f08c379a0000000000000000000000000000000000000000000000000000000008152600401612b2b906155f0565b60405180910390fd5b6000612b3e612a79565b9050612b4e81878787878761359f565b60005b8451811015612cff576000858281518110612b6f57612b6e614b20565b5b602002602001015190506000858381518110612b8e57612b8d614b20565b5b60200260200101519050600080600084815260200190815260200160002060008b73ffffffffffffffffffffffffffffffffffffffff1673ffffffffffffffffffffffffffffffffffffffff16815260200190815260200160002054905081811015612c2f576040517f08c379a0000000000000000000000000000000000000000000000000000000008152600401612c2690615682565b60405180910390fd5b81810360008085815260200190815260200160002060008c73ffffffffffffffffffffffffffffffffffffffff1673ffffffffffffffffffffffffffffffffffffffff168152602001908152602001600020819055508160008085815260200190815260200160002060008b73ffffffffffffffffffffffffffffffffffffffff1673ffffffffffffffffffffffffffffffffffffffff1681526020019081526020016000206000828254612ce49190614c95565b9250508190555050505080612cf890614b4f565b9050612b51565b508473ffffffffffffffffffffffffffffffffffffffff168673ffffffffffffffffffffffffffffffffffffffff168273ffffffffffffffffffffffffffffffffffffffff167f4a39dc06d4c0dbc64b70af90fd698a233a518aa5d07e595d983b8c0526c8f7fb8787604051612d769291906156a2565b60405180910390a4612d8c8187878787876135a7565b612d9a8187878787876135af565b505050505050565b600073ffffffffffffffffffffffffffffffffffffffff168373ffffffffffffffffffffffffffffffffffffffff1603612e11576040517f08c379a0000000000000000000000000000000000000000000000000000000008152600401612e089061574b565b60405180910390fd5b6000612e1b612a79565b90506000612e2884613786565b90506000612e3584613786565b9050612e558387600085856040518060200160405280600081525061359f565b600080600087815260200190815260200160002060008873ffffffffffffffffffffffffffffffffffffffff1673ffffffffffffffffffffffffffffffffffffffff16815260200190815260200160002054905084811015612eec576040517f08c379a0000000000000000000000000000000000000000000000000000000008152600401612ee3906157dd565b60405180910390fd5b84810360008088815260200190815260200160002060008973ffffffffffffffffffffffffffffffffffffffff1673ffffffffffffffffffffffffffffffffffffffff16815260200190815260200160002081905550600073ffffffffffffffffffffffffffffffffffffffff168773ffffffffffffffffffffffffffffffffffffffff168573ffffffffffffffffffffffffffffffffffffffff167fc3d58168c5ae7397731d063d5bbf3d657854427343f4c083240f7aacaa2d0f628989604051612fb9929190614ea4565b60405180910390a4612fdf848860008686604051806020016040528060008152506135a7565b50505050505050565b8173ffffffffffffffffffffffffffffffffffffffff168373ffffffffffffffffffffffffffffffffffffffff1603613056576040517f08c379a000000000000000000000000000000000000000000000000000000000815260040161304d9061586f565b60405180910390fd5b80600160008573ffffffffffffffffffffffffffffffffffffffff1673ffffffffffffffffffffffffffffffffffffffff16815260200190815260200160002060008473ffffffffffffffffffffffffffffffffffffffff1673ffffffffffffffffffffffffffffffffffffffff16815260200190815260200160002060006101000a81548160ff0219169083151502179055508173ffffffffffffffffffffffffffffffffffffffff168373ffffffffffffffffffffffffffffffffffffffff167f17307eab39ab6107e8899845ad3d59bd9653f200f220920489ca2b5937696c31836040516131479190613bac565b60405180910390a3505050565b600073ffffffffffffffffffffffffffffffffffffffff168473ffffffffffffffffffffffffffffffffffffffff16036131c3576040517f08c379a00000000000000000000000000000000000000000000000000000000081526004016131ba90615901565b60405180910390fd5b60006131cd612a79565b905060006131da85613786565b905060006131e785613786565b90506131f88360008985858961359f565b8460008088815260200190815260200160002060008973ffffffffffffffffffffffffffffffffffffffff1673ffffffffffffffffffffffffffffffffffffffff16815260200190815260200160002060008282546132579190614c95565b925050819055508673ffffffffffffffffffffffffffffffffffffffff16600073ffffffffffffffffffffffffffffffffffffffff168473ffffffffffffffffffffffffffffffffffffffff167fc3d58168c5ae7397731d063d5bbf3d657854427343f4c083240f7aacaa2d0f6289896040516132d5929190614ea4565b60405180910390a46132ec836000898585896135a7565b6132fb83600089898989613800565b50505050505050565b600073ffffffffffffffffffffffffffffffffffffffff168473ffffffffffffffffffffffffffffffffffffffff1603613373576040517f08c379a000000000000000000000000000000000000000000000000000000000815260040161336a906155f0565b60405180910390fd5b600061337d612a79565b9050600061338a85613786565b9050600061339785613786565b90506133a783898985858961359f565b600080600088815260200190815260200160002060008a73ffffffffffffffffffffffffffffffffffffffff1673ffffffffffffffffffffffffffffffffffffffff1681526020019081526020016000205490508581101561343e576040517f08c379a000000000000000000000000000000000000000000000000000000000815260040161343590615682565b60405180910390fd5b85810360008089815260200190815260200160002060008b73ffffffffffffffffffffffffffffffffffffffff1673ffffffffffffffffffffffffffffffffffffffff168152602001908152602001600020819055508560008089815260200190815260200160002060008a73ffffffffffffffffffffffffffffffffffffffff1673ffffffffffffffffffffffffffffffffffffffff16815260200190815260200160002060008282546134f39190614c95565b925050819055508773ffffffffffffffffffffffffffffffffffffffff168973ffffffffffffffffffffffffffffffffffffffff168573ffffffffffffffffffffffffffffffffffffffff167fc3d58168c5ae7397731d063d5bbf3d657854427343f4c083240f7aacaa2d0f628a8a604051613570929190614ea4565b60405180910390a4613586848a8a86868a6135a7565b613594848a8a8a8a8a613800565b505050505050505050565b505050505050565b505050505050565b6135ce8473ffffffffffffffffffffffffffffffffffffffff166139d7565b1561377e578373ffffffffffffffffffffffffffffffffffffffff1663bc197c8187878686866040518663ffffffff1660e01b8152600401613614959493929190615976565b6020604051808303816000875af192505050801561365057506040513d601f19601f8201168201806040525081019061364d91906159f3565b60015b6136f55761365c615a2d565b806308c379a0036136b85750613670615a4f565b8061367b57506136ba565b806040517f08c379a00000000000000000000000000000000000000000000000000000000081526004016136af9190613c84565b60405180910390fd5b505b6040517f08c379a00000000000000000000000000000000000000000000000000000000081526004016136ec90615b51565b60405180910390fd5b63bc197c8160e01b7bffffffffffffffffffffffffffffffffffffffffffffffffffffffff1916817bffffffffffffffffffffffffffffffffffffffffffffffffffffffff19161461377c576040517f08c379a000000000000000000000000000000000000000000000000000000000815260040161377390615be3565b60405180910390fd5b505b505050505050565b60606000600167ffffffffffffffff8111156137a5576137a4613cab565b5b6040519080825280602002602001820160405280156137d35781602001602082028036833780820191505090505b50905082816000815181106137eb576137ea614b20565b5b60200260200101818152505080915050919050565b61381f8473ffffffffffffffffffffffffffffffffffffffff166139d7565b156139cf578373ffffffffffffffffffffffffffffffffffffffff1663f23a6e6187878686866040518663ffffffff1660e01b8152600401613865959493929190615c03565b6020604051808303816000875af19250505080156138a157506040513d601f19601f8201168201806040525081019061389e91906159f3565b60015b613946576138ad615a2d565b806308c379a00361390957506138c1615a4f565b806138cc575061390b565b806040517f08c379a00000000000000000000000000000000000000000000000000000000081526004016139009190613c84565b60405180910390fd5b505b6040517f08c379a000000000000000000000000000000000000000000000000000000000815260040161393d90615b51565b60405180910390fd5b63f23a6e6160e01b7bffffffffffffffffffffffffffffffffffffffffffffffffffffffff1916817bffffffffffffffffffffffffffffffffffffffffffffffffffffffff1916146139cd576040517f08c379a00000000000000000000000000000000000000000000000000000000081526004016139c490615be3565b60405180910390fd5b505b505050505050565b6000808273ffffffffffffffffffffffffffffffffffffffff163b119050919050565b6000604051905090565b600080fd5b600080fd5b600073ffffffffffffffffffffffffffffffffffffffff82169050919050565b6000613a3982613a0e565b9050919050565b613a4981613a2e565b8114613a5457600080fd5b50565b600081359050613a6681613a40565b92915050565b6000819050919050565b613a7f81613a6c565b8114613a8a57600080fd5b50565b600081359050613a9c81613a76565b92915050565b60008060408385031215613ab957613ab8613a04565b5b6000613ac785828601613a57565b9250506020613ad885828601613a8d565b9150509250929050565b613aeb81613a6c565b82525050565b6000602082019050613b066000830184613ae2565b92915050565b60007fffffffff0000000000000000000000000000000000000000000000000000000082169050919050565b613b4181613b0c565b8114613b4c57600080fd5b50565b600081359050613b5e81613b38565b92915050565b600060208284031215613b7a57613b79613a04565b5b6000613b8884828501613b4f565b91505092915050565b60008115159050919050565b613ba681613b91565b82525050565b6000602082019050613bc16000830184613b9d565b92915050565b600060208284031215613bdd57613bdc613a04565b5b6000613beb84828501613a8d565b91505092915050565b600081519050919050565b600082825260208201905092915050565b60005b83811015613c2e578082015181840152602081019050613c13565b60008484015250505050565b6000601f19601f8301169050919050565b6000613c5682613bf4565b613c608185613bff565b9350613c70818560208601613c10565b613c7981613c3a565b840191505092915050565b60006020820190508181036000830152613c9e8184613c4b565b905092915050565b600080fd5b7f4e487b7100000000000000000000000000000000000000000000000000000000600052604160045260246000fd5b613ce382613c3a565b810181811067ffffffffffffffff82111715613d0257613d01613cab565b5b80604052505050565b6000613d156139fa565b9050613d218282613cda565b919050565b600067ffffffffffffffff821115613d4157613d40613cab565b5b602082029050602081019050919050565b600080fd5b6000613d6a613d6584613d26565b613d0b565b90508083825260208201905060208402830185811115613d8d57613d8c613d52565b5b835b81811015613db65780613da28882613a8d565b845260208401935050602081019050613d8f565b5050509392505050565b600082601f830112613dd557613dd4613ca6565b5b8135613de5848260208601613d57565b91505092915050565b600080fd5b600067ffffffffffffffff821115613e0e57613e0d613cab565b5b613e1782613c3a565b9050602081019050919050565b82818337600083830152505050565b6000613e46613e4184613df3565b613d0b565b905082815260208101848484011115613e6257613e61613dee565b5b613e6d848285613e24565b509392505050565b600082601f830112613e8a57613e89613ca6565b5b8135613e9a848260208601613e33565b91505092915050565b600080600080600060a08688031215613ebf57613ebe613a04565b5b6000613ecd88828901613a57565b9550506020613ede88828901613a57565b945050604086013567ffffffffffffffff811115613eff57613efe613a09565b5b613f0b88828901613dc0565b935050606086013567ffffffffffffffff811115613f2c57613f2b613a09565b5b613f3888828901613dc0565b925050608086013567ffffffffffffffff811115613f5957613f58613a09565b5b613f6588828901613e75565b9150509295509295909350565b60008060408385031215613f8957613f88613a04565b5b6000613f9785828601613a8d565b9250506020613fa885828601613a8d565b9150509250929050565b600067ffffffffffffffff821115613fcd57613fcc613cab565b5b602082029050602081019050919050565b6000613ff1613fec84613fb2565b613d0b565b9050808382526020820190506020840283018581111561401457614013613d52565b5b835b8181101561403d57806140298882613a57565b845260208401935050602081019050614016565b5050509392505050565b600082601f83011261405c5761405b613ca6565b5b813561406c848260208601613fde565b91505092915050565b6000806040838503121561408c5761408b613a04565b5b600083013567ffffffffffffffff8111156140aa576140a9613a09565b5b6140b685828601614047565b925050602083013567ffffffffffffffff8111156140d7576140d6613a09565b5b6140e385828601613dc0565b9150509250929050565b600081519050919050565b600082825260208201905092915050565b6000819050602082019050919050565b61412281613a6c565b82525050565b60006141348383614119565b60208301905092915050565b6000602082019050919050565b6000614158826140ed565b61416281856140f8565b935061416d83614109565b8060005b8381101561419e5781516141858882614128565b975061419083614140565b925050600181019050614171565b5085935050505092915050565b600060208201905081810360008301526141c5818461414d565b905092915050565b60006101408201905081810360008301526141e8818d613c4b565b90506141f7602083018c613ae2565b614204604083018b613ae2565b614211606083018a613ae2565b61421e6080830189613ae2565b61422b60a0830188613ae2565b61423860c0830187613ae2565b61424560e0830186613ae2565b614253610100830185613ae2565b614261610120830184613ae2565b9b9a5050505050505050505050565b61427981613a2e565b82525050565b60006020820190506142946000830184614270565b92915050565b6142a381613b91565b81146142ae57600080fd5b50565b6000813590506142c08161429a565b92915050565b600080604083850312156142dd576142dc613a04565b5b60006142eb85828601613a57565b92505060206142fc858286016142b1565b9150509250929050565b600067ffffffffffffffff82111561432157614320613cab565b5b61432a82613c3a565b9050602081019050919050565b600061434a61434584614306565b613d0b565b90508281526020810184848401111561436657614365613dee565b5b614371848285613e24565b509392505050565b600082601f83011261438e5761438d613ca6565b5b813561439e848260208601614337565b91505092915050565b600080600080600080600080610100898b0312156143c8576143c7613a04565b5b60006143d68b828c01613a8d565b98505060206143e78b828c01613a8d565b97505060406143f88b828c01613a8d565b965050606089013567ffffffffffffffff81111561441957614418613a09565b5b6144258b828c01614379565b95505060806144368b828c01613a8d565b94505060a06144478b828c01613a8d565b93505060c06144588b828c01613a8d565b92505060e089013567ffffffffffffffff81111561447957614478613a09565b5b6144858b828c01613e75565b9150509295985092959890939650565b600080604083850312156144ac576144ab613a04565b5b60006144ba85828601613a57565b92505060206144cb85828601613a57565b9150509250929050565b600080600080600060a086880312156144f1576144f0613a04565b5b60006144ff88828901613a57565b955050602061451088828901613a57565b945050604061452188828901613a8d565b935050606061453288828901613a8d565b925050608086013567ffffffffffffffff81111561455357614552613a09565b5b61455f88828901613e75565b9150509295509295909350565b7f455243313135353a2061646472657373207a65726f206973206e6f742061207660008201527f616c6964206f776e657200000000000000000000000000000000000000000000602082015250565b60006145c8602a83613bff565b91506145d38261456c565b604082019050919050565b600060208201905081810360008301526145f7816145bb565b9050919050565b7f4e487b7100000000000000000000000000000000000000000000000000000000600052601160045260246000fd5b600061463882613a6c565b915061464383613a6c565b925082820390508181111561465b5761465a6145fe565b5b92915050565b7f4e487b7100000000000000000000000000000000000000000000000000000000600052602260045260246000fd5b600060028204905060018216806146a857607f821691505b6020821081036146bb576146ba614661565b5b50919050565b60006146cc82613a6c565b91506146d783613a6c565b92508282026146e581613a6c565b915082820484148315176146fc576146fb6145fe565b5b5092915050565b7f455243313135353a2063616c6c6572206973206e6f7420746f6b656e206f776e60008201527f6572206f7220617070726f766564000000000000000000000000000000000000602082015250565b600061475f602e83613bff565b915061476a82614703565b604082019050919050565b6000602082019050818103600083015261478e81614752565b9050919050565b7f43616c6c6572206973206e6f7420746865206f776e6572000000000000000000600082015250565b60006147cb601783613bff565b91506147d682614795565b602082019050919050565b600060208201905081810360008301526147fa816147be565b9050919050565b7f5769746864726177206e6f7420616c6c6f776564207768656e20616374697665600082015250565b6000614837602083613bff565b915061484282614801565b602082019050919050565b600060208201905081810360008301526148668161482a565b9050919050565b7f5769746864726177206e6f7420616c6c6f77656420616674657220636f6d706c60008201527f6574696f6e000000000000000000000000000000000000000000000000000000602082015250565b60006148c9602583613bff565b91506148d48261486d565b604082019050919050565b600060208201905081810360008301526148f8816148bc565b9050919050565b7f5769746864726177206e6f7420616c6c6f776564207768656e2064656661756c60008201527f7465640000000000000000000000000000000000000000000000000000000000602082015250565b600061495b602383613bff565b9150614966826148ff565b604082019050919050565b6000602082019050818103600083015261498a8161494e565b9050919050565b7f5769746864726177616c20746f6b656e20616d6f756e7420657863656564732060008201527f746f6b656e20616d6f756e7420696e20636f6e74726163740000000000000000602082015250565b60006149ed603883613bff565b91506149f882614991565b604082019050919050565b60006020820190508181036000830152614a1c816149e0565b9050919050565b6000604082019050614a386000830185614270565b614a456020830184613ae2565b9392505050565b600081519050614a5b8161429a565b92915050565b600060208284031215614a7757614a76613a04565b5b6000614a8584828501614a4c565b91505092915050565b7f455243313135353a206163636f756e747320616e6420696473206c656e67746860008201527f206d69736d617463680000000000000000000000000000000000000000000000602082015250565b6000614aea602983613bff565b9150614af582614a8e565b604082019050919050565b60006020820190508181036000830152614b1981614add565b9050919050565b7f4e487b7100000000000000000000000000000000000000000000000000000000600052603260045260246000fd5b6000614b5a82613a6c565b91507fffffffffffffffffffffffffffffffffffffffffffffffffffffffffffffffff8203614b8c57614b8b6145fe565b5b600182019050919050565b7f426f6e6420697320696e61637469766500000000000000000000000000000000600082015250565b6000614bcd601083613bff565b9150614bd882614b97565b602082019050919050565b60006020820190508181036000830152614bfc81614bc0565b9050919050565b7f496e73756666696369656e7420626f6e64207175616e746974792072656d616960008201527f6e696e6700000000000000000000000000000000000000000000000000000000602082015250565b6000614c5f602483613bff565b9150614c6a82614c03565b604082019050919050565b60006020820190508181036000830152614c8e81614c52565b9050919050565b6000614ca082613a6c565b9150614cab83613a6c565b9250828201905080821115614cc357614cc26145fe565b5b92915050565b6000606082019050614cde6000830186614270565b614ceb6020830185614270565b614cf86040830184613ae2565b949350505050565b7f4e487b7100000000000000000000000000000000000000000000000000000000600052601260045260246000fd5b6000614d3a82613a6c565b9150614d4583613a6c565b925082614d5557614d54614d00565b5b828204905092915050565b7f426f6e64206973206e6f7420636f6d706c657465640000000000000000000000600082015250565b6000614d96601583613bff565b9150614da182614d60565b602082019050919050565b60006020820190508181036000830152614dc581614d89565b9050919050565b7f496e73756666696369656e7420626f6e64207175616e74697479000000000000600082015250565b6000614e02601a83613bff565b9150614e0d82614dcc565b602082019050919050565b60006020820190508181036000830152614e3181614df5565b9050919050565b7f426f6e64206973206e6f742064656661756c7465640000000000000000000000600082015250565b6000614e6e601583613bff565b9150614e7982614e38565b602082019050919050565b60006020820190508181036000830152614e9d81614e61565b9050919050565b6000604082019050614eb96000830185613ae2565b614ec66020830184613ae2565b9392505050565b7f426f6e64206973206e6f742063616e63656c6564000000000000000000000000600082015250565b6000614f03601483613bff565b9150614f0e82614ecd565b602082019050919050565b60006020820190508181036000830152614f3281614ef6565b9050919050565b7f426f6e6420697320616c726561647920636f6d706c6574656400000000000000600082015250565b6000614f6f601983613bff565b9150614f7a82614f39565b602082019050919050565b60006020820190508181036000830152614f9e81614f62565b9050919050565b7f416374697665206475726174696f6e2073686f756c642062652073686f72746560008201527f72207468616e206475726174696f6e0000000000000000000000000000000000602082015250565b6000615001602f83613bff565b915061500c82614fa5565b604082019050919050565b6000602082019050818103600083015261503081614ff4565b9050919050565b60008190508160005260206000209050919050565b60006020601f8301049050919050565b600082821b905092915050565b6000600883026150997fffffffffffffffffffffffffffffffffffffffffffffffffffffffffffffffff8261505c565b6150a3868361505c565b95508019841693508086168417925050509392505050565b6000819050919050565b60006150e06150db6150d684613a6c565b6150bb565b613a6c565b9050919050565b6000819050919050565b6150fa836150c5565b61510e615106826150e7565b848454615069565b825550505050565b600090565b615123615116565b61512e8184846150f1565b505050565b5b818110156151525761514760008261511b565b600181019050615134565b5050565b601f8211156151975761516881615037565b6151718461504c565b81016020851015615180578190505b61519461518c8561504c565b830182615133565b50505b505050565b600082821c905092915050565b60006151ba6000198460080261519c565b1980831691505092915050565b60006151d383836151a9565b9150826002028217905092915050565b6151ec82613bf4565b67ffffffffffffffff81111561520557615204613cab565b5b61520f8254614690565b61521a828285615156565b600060209050601f83116001811461524d576000841561523b578287015190505b61524585826151c7565b8655506152ad565b601f19841661525b86615037565b60005b828110156152835784890151825560018201915060208501945060208101905061525e565b868310156152a0578489015161529c601f8916826151a9565b8355505b6001600288020188555050505b505050505050565b60006080820190506152ca6000830187613ae2565b6152d76020830186613ae2565b6152e46040830185613ae2565b6152f16060830184613ae2565b95945050505050565b7f626f6e642069732064656661756c746564000000000000000000000000000000600082015250565b6000615330601183613bff565b915061533b826152fa565b602082019050919050565b6000602082019050818103600083015261535f81615323565b9050919050565b7f626f6e6420697320636f6d706c65746564000000000000000000000000000000600082015250565b600061539c601183613bff565b91506153a782615366565b602082019050919050565b600060208201905081810360008301526153cb8161538f565b9050919050565b6000815190506153e181613a76565b92915050565b6000602082840312156153fd576153fc613a04565b5b600061540b848285016153d2565b91505092915050565b7f43616e6e6f742077697468647261772065786365737300000000000000000000600082015250565b600061544a601683613bff565b915061545582615414565b602082019050919050565b600060208201905081810360008301526154798161543d565b9050919050565b7f43616e6e6f742077697468647261772066726f6d20656d70747920706f6f6c00600082015250565b60006154b6601f83613bff565b91506154c182615480565b602082019050919050565b600060208201905081810360008301526154e5816154a9565b9050919050565b7f455243313135353a2069647320616e6420616d6f756e7473206c656e6774682060008201527f6d69736d61746368000000000000000000000000000000000000000000000000602082015250565b6000615548602883613bff565b9150615553826154ec565b604082019050919050565b600060208201905081810360008301526155778161553b565b9050919050565b7f455243313135353a207472616e7366657220746f20746865207a65726f20616460008201527f6472657373000000000000000000000000000000000000000000000000000000602082015250565b60006155da602583613bff565b91506155e58261557e565b604082019050919050565b60006020820190508181036000830152615609816155cd565b9050919050565b7f455243313135353a20696e73756666696369656e742062616c616e636520666f60008201527f72207472616e7366657200000000000000000000000000000000000000000000602082015250565b600061566c602a83613bff565b915061567782615610565b604082019050919050565b6000602082019050818103600083015261569b8161565f565b9050919050565b600060408201905081810360008301526156bc818561414d565b905081810360208301526156d0818461414d565b90509392505050565b7f455243313135353a206275726e2066726f6d20746865207a65726f206164647260008201527f6573730000000000000000000000000000000000000000000000000000000000602082015250565b6000615735602383613bff565b9150615740826156d9565b604082019050919050565b6000602082019050818103600083015261576481615728565b9050919050565b7f455243313135353a206275726e20616d6f756e7420657863656564732062616c60008201527f616e636500000000000000000000000000000000000000000000000000000000602082015250565b60006157c7602483613bff565b91506157d28261576b565b604082019050919050565b600060208201905081810360008301526157f6816157ba565b9050919050565b7f455243313135353a2073657474696e6720617070726f76616c2073746174757360008201527f20666f722073656c660000000000000000000000000000000000000000000000602082015250565b6000615859602983613bff565b9150615864826157fd565b604082019050919050565b600060208201905081810360008301526158888161584c565b9050919050565b7f455243313135353a206d696e7420746f20746865207a65726f2061646472657360008201527f7300000000000000000000000000000000000000000000000000000000000000602082015250565b60006158eb602183613bff565b91506158f68261588f565b604082019050919050565b6000602082019050818103600083015261591a816158de565b9050919050565b600081519050919050565b600082825260208201905092915050565b600061594882615921565b615952818561592c565b9350615962818560208601613c10565b61596b81613c3a565b840191505092915050565b600060a08201905061598b6000830188614270565b6159986020830187614270565b81810360408301526159aa818661414d565b905081810360608301526159be818561414d565b905081810360808301526159d2818461593d565b90509695505050505050565b6000815190506159ed81613b38565b92915050565b600060208284031215615a0957615a08613a04565b5b6000615a17848285016159de565b91505092915050565b60008160e01c9050919050565b600060033d1115615a4c5760046000803e615a49600051615a20565b90505b90565b600060443d10615adc57615a616139fa565b60043d036004823e80513d602482011167ffffffffffffffff82111715615a89575050615adc565b808201805167ffffffffffffffff811115615aa75750505050615adc565b80602083010160043d038501811115615ac4575050505050615adc565b615ad382602001850186613cda565b82955050505050505b90565b7f455243313135353a207472616e7366657220746f206e6f6e2d4552433131353560008201527f526563656976657220696d706c656d656e746572000000000000000000000000602082015250565b6000615b3b603483613bff565b9150615b4682615adf565b604082019050919050565b60006020820190508181036000830152615b6a81615b2e565b9050919050565b7f455243313135353a204552433131353552656365697665722072656a6563746560008201527f6420746f6b656e73000000000000000000000000000000000000000000000000602082015250565b6000615bcd602883613bff565b9150615bd882615b71565b604082019050919050565b60006020820190508181036000830152615bfc81615bc0565b9050919050565b600060a082019050615c186000830188614270565b615c256020830187614270565b615c326040830186613ae2565b615c3f6060830185613ae2565b8181036080830152615c51818461593d565b9050969550505050505056fea26469706673582212200dfca1b4562f8d431d44136bb1ddb5071543af290922a8b206f7436159cb34d264736f6c6343000811003360c060405260006003553480156200001657600080fd5b50604051620068153803806200681583398181016040528101906200003c9190620002d3565b828282826200005181620000c660201b60201c565b508073ffffffffffffffffffffffffffffffffffffffff1660808173ffffffffffffffffffffffffffffffffffffffff16815250508173ffffffffffffffffffffffffffffffffffffffff1660a08173ffffffffffffffffffffffffffffffffffffffff168152505050505050505062000680565b8060029081620000d7919062000599565b5050565b6000604051905090565b600080fd5b600080fd5b600080fd5b600080fd5b6000601f19601f8301169050919050565b7f4e487b7100000000000000000000000000000000000000000000000000000000600052604160045260246000fd5b6200014482620000f9565b810181811067ffffffffffffffff821117156200016657620001656200010a565b5b80604052505050565b60006200017b620000db565b905062000189828262000139565b919050565b600067ffffffffffffffff821115620001ac57620001ab6200010a565b5b620001b782620000f9565b9050602081019050919050565b60005b83811015620001e4578082015181840152602081019050620001c7565b60008484015250505050565b60006200020762000201846200018e565b6200016f565b905082815260208101848484011115620002265762000225620000f4565b5b62000233848285620001c4565b509392505050565b600082601f830112620002535762000252620000ef565b5b815162000265848260208601620001f0565b91505092915050565b600073ffffffffffffffffffffffffffffffffffffffff82169050919050565b60006200029b826200026e565b9050919050565b620002ad816200028e565b8114620002b957600080fd5b50565b600081519050620002cd81620002a2565b92915050565b600080600060608486031215620002ef57620002ee620000e5565b5b600084015167ffffffffffffffff81111562000310576200030f620000ea565b5b6200031e868287016200023b565b93505060206200033186828701620002bc565b92505060406200034486828701620002bc565b9150509250925092565b600081519050919050565b7f4e487b7100000000000000000000000000000000000000000000000000000000600052602260045260246000fd5b60006002820490506001821680620003a157607f821691505b602082108103620003b757620003b662000359565b5b50919050565b60008190508160005260206000209050919050565b60006020601f8301049050919050565b600082821b905092915050565b600060088302620004217fffffffffffffffffffffffffffffffffffffffffffffffffffffffffffffffff82620003e2565b6200042d8683620003e2565b95508019841693508086168417925050509392505050565b6000819050919050565b6000819050919050565b60006200047a620004746200046e8462000445565b6200044f565b62000445565b9050919050565b6000819050919050565b620004968362000459565b620004ae620004a58262000481565b848454620003ef565b825550505050565b600090565b620004c5620004b6565b620004d28184846200048b565b505050565b5b81811015620004fa57620004ee600082620004bb565b600181019050620004d8565b5050565b601f82111562000549576200051381620003bd565b6200051e84620003d2565b810160208510156200052e578190505b620005466200053d85620003d2565b830182620004d7565b50505b505050565b600082821c905092915050565b60006200056e600019846008026200054e565b1980831691505092915050565b60006200058983836200055b565b9150826002028217905092915050565b620005a4826200034e565b67ffffffffffffffff811115620005c057620005bf6200010a565b5b620005cc825462000388565b620005d9828285620004fe565b600060209050601f831160018114620006115760008415620005fc578287015190505b6200060885826200057b565b86555062000678565b601f1984166200062186620003bd565b60005b828110156200064b5784890151825560018201915060208501945060208101905062000624565b868310156200066b578489015162000667601f8916826200055b565b8355505b6001600288020188555050505b505050505050565b60805160a05161610d62000708600039600081816111f90152818161164c0152818161189901528181611db401528181611f810152818161215e015281816123a4015281816124a40152818161292c015281816129d30152612bc8015260008181610fb701528181611b50015281816124cc015281816127d20152612a72015261610d6000f3fe608060405234801561001057600080fd5b506004361061027e5760003560e01c806388bdc0831161015c578063b09f2b1c116100ce578063e2bbb15811610087578063e2bbb158146108de578063e5328e06146108fa578063e755ddd714610918578063e985e9c514610934578063f0d8100a14610964578063f242432a146109945761027e565b8063b09f2b1c146107f8578063c0a6026c14610814578063c365301014610830578063c55dae6314610860578063c7bc57301461087e578063d3b7811b146108ae5761027e565b8063932a8de011610120578063932a8de014610714578063a22cb46514610744578063a53e17b014610760578063a874302214610790578063a996ef08146107ac578063abac75e1146107c85761027e565b806388bdc0831461062d57806389c2bb1f1461065d5780638c3526c21461068d5780638da5cb5b146106c65780638f0dbf77146106e45761027e565b806339e3af9b116101f55780636ff80d93116101b95780636ff80d931461053557806370876c981461056557806377e2a08b146105815780637a41984b146105b15780637cbc2373146105e157806382afd23b146105fd5761027e565b806339e3af9b1461046b578063441a3e701461049b5780634e1273f4146104b7578063549493bb146104e75780636681b9fd146105175761027e565b80630e89341c116102475780630e89341c1461037357806314f29493146103a35780632b096926146103d35780632eb2c2d6146103ef5780632f3ad61f1461040b5780633097afb81461043b5761027e565b8062fdd58e1461028357806301ffc9a7146102b357806302159497146102e357806308913ce8146103135780630914902014610343575b600080fd5b61029d60048036038101906102989190613e60565b6109b0565b6040516102aa9190613eaf565b60405180910390f35b6102cd60048036038101906102c89190613f22565b610a78565b6040516102da9190613f6a565b60405180910390f35b6102fd60048036038101906102f89190613f85565b610b5a565b60405161030a9190613eaf565b60405180910390f35b61032d60048036038101906103289190613f85565b610b77565b60405161033a9190613eaf565b60405180910390f35b61035d60048036038101906103589190613f85565b610ba2565b60405161036a9190613f6a565b60405180910390f35b61038d60048036038101906103889190613f85565b610bd8565b60405161039a9190614042565b60405180910390f35b6103bd60048036038101906103b89190613f85565b610c6c565b6040516103ca9190613eaf565b60405180910390f35b6103ed60048036038101906103e89190613f85565b610caa565b005b61040960048036038101906104049190614261565b610e8c565b005b61042560048036038101906104209190613f85565b610f2d565b6040516104329190613f6a565b60405180910390f35b61045560048036038101906104509190613f85565b610f57565b6040516104629190613f6a565b60405180910390f35b61048560048036038101906104809190613f85565b610f90565b6040516104929190613f6a565b60405180910390f35b6104b560048036038101906104b09190614330565b610fb5565b005b6104d160048036038101906104cc9190614433565b61129a565b6040516104de9190614569565b60405180910390f35b61050160048036038101906104fc9190613f85565b6113b3565b60405161050e9190613f6a565b60405180910390f35b61051f6113e5565b60405161052c9190613eaf565b60405180910390f35b61054f600480360381019061054a9190613f85565b6113ef565b60405161055c9190613f6a565b60405180910390f35b61057f600480360381019061057a9190614330565b611427565b005b61059b60048036038101906105969190613f85565b6116f1565b6040516105a89190613eaf565b60405180910390f35b6105cb60048036038101906105c69190613f85565b611781565b6040516105d89190613f6a565b60405180910390f35b6105fb60048036038101906105f69190614330565b6117ab565b005b61061760048036038101906106129190613f85565b611965565b6040516106249190613f6a565b60405180910390f35b61064760048036038101906106429190613f85565b611988565b6040516106549190613eaf565b60405180910390f35b61067760048036038101906106729190613f85565b6119bb565b6040516106849190613eaf565b60405180910390f35b6106a760048036038101906106a29190613f85565b6119d8565b6040516106bd9a9998979695949392919061458b565b60405180910390f35b6106ce611b4c565b6040516106db919061463d565b60405180910390f35b6106fe60048036038101906106f99190613f85565b611b74565b60405161070b9190613f6a565b60405180910390f35b61072e60048036038101906107299190613f85565b611b96565b60405161073b9190613eaf565b60405180910390f35b61075e60048036038101906107599190614684565b611bd4565b005b61077a60048036038101906107759190613f85565b611bea565b6040516107879190613f6a565b60405180910390f35b6107aa60048036038101906107a59190613f85565b611c14565b005b6107c660048036038101906107c19190614330565b611e93565b005b6107e260048036038101906107dd9190613f85565b61204d565b6040516107ef9190613eaf565b60405180910390f35b610812600480360381019061080d9190614330565b61206d565b005b61082e60048036038101906108299190613f85565b61222a565b005b61084a60048036038101906108459190613f85565b612483565b6040516108579190613eaf565b60405180910390f35b6108686124a0565b604051610875919061463d565b60405180910390f35b6108986004803603810190610893919061471f565b6124c8565b6040516108a59190613eaf565b60405180910390f35b6108c860048036038101906108c39190613f85565b61279d565b6040516108d59190613eaf565b60405180910390f35b6108f860048036038101906108f39190614330565b6127d0565b005b6109026129cf565b60405161090f9190613eaf565b60405180910390f35b610932600480360381019061092d9190613f85565b612a70565b005b61094e60048036038101906109499190614811565b612c7b565b60405161095b9190613f6a565b60405180910390f35b61097e60048036038101906109799190613f85565b612d0f565b60405161098b9190613eaf565b60405180910390f35b6109ae60048036038101906109a99190614851565b612d2c565b005b60008073ffffffffffffffffffffffffffffffffffffffff168373ffffffffffffffffffffffffffffffffffffffff1603610a20576040517f08c379a0000000000000000000000000000000000000000000000000000000008152600401610a179061495a565b60405180910390fd5b60008083815260200190815260200160002060008473ffffffffffffffffffffffffffffffffffffffff1673ffffffffffffffffffffffffffffffffffffffff16815260200190815260200160002054905092915050565b60007fd9b67a26000000000000000000000000000000000000000000000000000000007bffffffffffffffffffffffffffffffffffffffffffffffffffffffff1916827bffffffffffffffffffffffffffffffffffffffffffffffffffffffff19161480610b4357507f0e89341c000000000000000000000000000000000000000000000000000000007bffffffffffffffffffffffffffffffffffffffffffffffffffffffff1916827bffffffffffffffffffffffffffffffffffffffffffffffffffffffff1916145b80610b535750610b5282612dcd565b5b9050919050565b600060086000838152602001908152602001600020549050919050565b6000600560008381526020019081526020016000206002015442610b9b91906149a9565b9050919050565b60006005600083815260200190815260200160002060080154600660008481526020019081526020016000205410159050919050565b606060028054610be790614a0c565b80601f0160208091040260200160405190810160405280929190818152602001828054610c1390614a0c565b8015610c605780601f10610c3557610100808354040283529160200191610c60565b820191906000526020600020905b815481529060010190602001808311610c4357829003601f168201915b50505050509050919050565b600060066000838152602001908152602001600020546005600084815260200190815260200160002060010154610ca39190614a3d565b9050919050565b610cb381611781565b15610cf3576040517f08c379a0000000000000000000000000000000000000000000000000000000008152600401610cea90614acb565b60405180910390fd5b62015180600d600083815260200190815260200160002054610d159190614a3d565b610d1e82610b77565b11610d5e576040517f08c379a0000000000000000000000000000000000000000000000000000000008152600401610d5590614b5d565b60405180910390fd5b620151806005600083815260200190815260200160002060060154610d839190614a3d565b610d8c82610b77565b6005600084815260200190815260200160002060090154610dad9190614a3d565b610db79190614bac565b600e6000838152602001908152602001600020819055506001600f600083815260200190815260200160002060006101000a81548160ff0219169083151502179055506001600c600083815260200190815260200160002060006101000a81548160ff021916908315150217905550807fb580a16317cf9efa50cf987c976c3fb7de7eaf3149b9dd5b8a576a043042f44c6005600084815260200190815260200160002060090154600e600085815260200190815260200160002054604051610e81929190614bdd565b60405180910390a250565b610e94612e37565b73ffffffffffffffffffffffffffffffffffffffff168573ffffffffffffffffffffffffffffffffffffffff161480610eda5750610ed985610ed4612e37565b612c7b565b5b610f19576040517f08c379a0000000000000000000000000000000000000000000000000000000008152600401610f1090614c78565b60405180910390fd5b610f268585858585612e3f565b5050505050565b6000600b600083815260200190815260200160002060009054906101000a900460ff169050919050565b6000610f6282611b74565b8015610f895750610f72826116f1565b600860008481526020019081526020016000205410155b9050919050565b6000610f9b82611965565b158015610fae5750610fac82610ba2565b155b9050919050565b7f000000000000000000000000000000000000000000000000000000000000000073ffffffffffffffffffffffffffffffffffffffff163373ffffffffffffffffffffffffffffffffffffffff1614611043576040517f08c379a000000000000000000000000000000000000000000000000000000000815260040161103a90614ce4565b60405180910390fd5b61104c82611965565b1561108c576040517f08c379a000000000000000000000000000000000000000000000000000000000815260040161108390614d50565b60405180910390fd5b61109582610f90565b156110d5576040517f08c379a00000000000000000000000000000000000000000000000000000000081526004016110cc90614d50565b60405180910390fd5b6110de82611781565b1561111e576040517f08c379a000000000000000000000000000000000000000000000000000000000815260040161111590614de2565b60405180910390fd5b61112782610f2d565b806111375750611136826113ef565b5b15611177576040517f08c379a000000000000000000000000000000000000000000000000000000000815260040161116e90614e74565b60405180910390fd5b60086000838152602001908152602001600020548111156111cd576040517f08c379a00000000000000000000000000000000000000000000000000000000081526004016111c490614f06565b60405180910390fd5b806008600084815260200190815260200160002060008282546111f091906149a9565b925050819055507f000000000000000000000000000000000000000000000000000000000000000073ffffffffffffffffffffffffffffffffffffffff1663a9059cbb33836040518363ffffffff1660e01b8152600401611252929190614f26565b6020604051808303816000875af1158015611271573d6000803e3d6000fd5b505050506040513d601f19601f820116820180604052508101906112959190614f64565b505050565b606081518351146112e0576040517f08c379a00000000000000000000000000000000000000000000000000000000081526004016112d790615003565b60405180910390fd5b6000835167ffffffffffffffff8111156112fd576112fc614069565b5b60405190808252806020026020018201604052801561132b5781602001602082028036833780820191505090505b50905060005b84518110156113a8576113788582815181106113505761134f615023565b5b602002602001015185838151811061136b5761136a615023565b5b60200260200101516109b0565b82828151811061138b5761138a615023565b5b602002602001018181525050806113a190615052565b9050611331565b508091505092915050565b600060066000838152602001908152602001600020546007600084815260200190815260200160002054149050919050565b6000600454905090565b60006113fa82611b74565b8015611420575061140a826116f1565b6008600084815260200190815260200160002054105b9050919050565b61143082611965565b61146f576040517f08c379a0000000000000000000000000000000000000000000000000000000008152600401611466906150e6565b60405180910390fd5b8061147983611b96565b10156114ba576040517f08c379a00000000000000000000000000000000000000000000000000000000081526004016114b190615178565b60405180910390fd5b600060056000848152602001908152602001600020604051806101400160405290816000820180546114eb90614a0c565b80601f016020809104026020016040519081016040528092919081815260200182805461151790614a0c565b80156115645780601f1061153957610100808354040283529160200191611564565b820191906000526020600020905b81548152906001019060200180831161154757829003601f168201915b505050505081526020016001820154815260200160028201548152602001600382015481526020016004820154815260200160058201548152602001600682015481526020016007820154815260200160088201548152602001600982015481525050905060008160200151836115db9190614a3d565b9050826006600086815260200190815260200160002060008282546116009190615198565b925050819055508060086000868152602001908152602001600020600082825461162a9190615198565b9250508190555080600460008282546116439190615198565b925050819055507f000000000000000000000000000000000000000000000000000000000000000073ffffffffffffffffffffffffffffffffffffffff166323b872dd3330846040518463ffffffff1660e01b81526004016116a7939291906151cc565b6020604051808303816000875af11580156116c6573d6000803e3d6000fd5b505050506040513d601f19601f820116820180604052508101906116ea9190614f64565b5050505050565b60008060056000848152602001908152602001600020600901549050600f600084815260200190815260200160002060009054906101000a900460ff161561173f5761173c836119bb565b90505b670de0b6b3a76400008161175285610c6c565b61175c9190614a3d565b6117669190614bac565b61176f84610c6c565b6117799190615198565b915050919050565b6000600c600083815260200190815260200160002060009054906101000a900460ff169050919050565b6117b482611781565b6117f3576040517f08c379a00000000000000000000000000000000000000000000000000000000081526004016117ea9061524f565b60405180910390fd5b806117fe33846109b0565b101561183f576040517f08c379a0000000000000000000000000000000000000000000000000000000008152600401611836906152bb565b60405180910390fd5b61184a338383613160565b8060076000848152602001908152602001600020600082825461186d9190615198565b925050819055506000600a600084815260200190815260200160002054826118959190614a3d565b90507f000000000000000000000000000000000000000000000000000000000000000073ffffffffffffffffffffffffffffffffffffffff1663a9059cbb33836040518363ffffffff1660e01b81526004016118f2929190614f26565b6020604051808303816000875af1158015611911573d6000803e3d6000fd5b505050506040513d601f19601f820116820180604052508101906119359190614f64565b508060086000858152602001908152602001600020600082825461195991906149a9565b92505081905550505050565b600060056000838152602001908152602001600020600401544211159050919050565b600061199382610b77565b60056000848152602001908152602001600020600501546119b491906149a9565b9050919050565b6000600e6000838152602001908152602001600020549050919050565b6060600080600080600080600080600080600560008d815260200190815260200160002060405180610140016040529081600082018054611a1890614a0c565b80601f0160208091040260200160405190810160405280929190818152602001828054611a4490614a0c565b8015611a915780601f10611a6657610100808354040283529160200191611a91565b820191906000526020600020905b815481529060010190602001808311611a7457829003601f168201915b5050505050815260200160018201548152602001600282015481526020016003820154815260200160048201548152602001600582015481526020016006820154815260200160078201548152602001600882015481526020016009820154815250509050806000015181602001518260400151836060015184608001518560a001518660c001518760e001518861010001518961012001519a509a509a509a509a509a509a509a509a509a50509193959799509193959799565b60007f0000000000000000000000000000000000000000000000000000000000000000905090565b6000600560008381526020019081526020016000206003015442119050919050565b600060066000838152602001908152602001600020546005600084815260200190815260200160002060070154611bcd91906149a9565b9050919050565b611be6611bdf612e37565b83836133a6565b5050565b6000600f600083815260200190815260200160002060009054906101000a900460ff169050919050565b611c1d81611781565b158015611c305750611c2e81610f2d565b155b8015611c415750611c40816113ef565b5b611c80576040517f08c379a0000000000000000000000000000000000000000000000000000000008152600401611c7790615327565b60405180910390fd5b6000611c8b826116f1565b905060006103e86008600085815260200190815260200160002054611cb09190614bac565b90506000816008600086815260200190815260200160002054611cd391906149a9565b9050600660008581526020019081526020016000205481611cf49190614bac565b6009600086815260200190815260200160002081905550600060066000868152602001908152602001600020546009600087815260200190815260200160002054611d3f9190614a3d565b82611d4a91906149a9565b905060008184611d5a9190615198565b905080600860008881526020019081526020016000206000828254611d7f91906149a9565b925050819055506001600b600088815260200190815260200160002060006101000a81548160ff0219169083151502179055507f000000000000000000000000000000000000000000000000000000000000000073ffffffffffffffffffffffffffffffffffffffff1663a9059cbb33836040518363ffffffff1660e01b8152600401611e0d929190614f26565b6020604051808303816000875af1158015611e2c573d6000803e3d6000fd5b505050506040513d601f19601f82011682018060405250810190611e509190614f64565b50857fc4f17a65d54873d57229ea5f59c4ddec592d095bc17581372676402c8228b9cd8685604051611e83929190614bdd565b60405180910390a2505050505050565b611e9c82610f2d565b611edb576040517f08c379a0000000000000000000000000000000000000000000000000000000008152600401611ed290615327565b60405180910390fd5b80611ee633846109b0565b1015611f27576040517f08c379a0000000000000000000000000000000000000000000000000000000008152600401611f1e906152bb565b60405180910390fd5b611f32338383613160565b80600760008481526020019081526020016000206000828254611f559190615198565b925050819055506000600960008481526020019081526020016000205482611f7d9190614a3d565b90507f000000000000000000000000000000000000000000000000000000000000000073ffffffffffffffffffffffffffffffffffffffff1663a9059cbb33836040518363ffffffff1660e01b8152600401611fda929190614f26565b6020604051808303816000875af1158015611ff9573d6000803e3d6000fd5b505050506040513d601f19601f8201168201806040525081019061201d9190614f64565b508060086000858152602001908152602001600020600082825461204191906149a9565b92505081905550505050565b600060056000838152602001908152602001600020600901549050919050565b61207682610f90565b6120b5576040517f08c379a00000000000000000000000000000000000000000000000000000000081526004016120ac90615393565b60405180910390fd5b806120c033846109b0565b1015612101576040517f08c379a00000000000000000000000000000000000000000000000000000000081526004016120f8906152bb565b60405180910390fd5b61210c338383613160565b8060076000848152602001908152602001600020600082825461212f9190615198565b92505081905550600060056000848152602001908152602001600020600101548261215a9190614a3d565b90507f000000000000000000000000000000000000000000000000000000000000000073ffffffffffffffffffffffffffffffffffffffff1663a9059cbb33836040518363ffffffff1660e01b81526004016121b7929190614f26565b6020604051808303816000875af11580156121d6573d6000803e3d6000fd5b505050506040513d601f19601f820116820180604052508101906121fa9190614f64565b508060086000858152602001908152602001600020600082825461221e91906149a9565b92505081905550505050565b61223381610f2d565b158015612246575061224481611781565b155b8015612257575061225681610f57565b5b612296576040517f08c379a000000000000000000000000000000000000000000000000000000000815260040161228d906153ff565b60405180910390fd5b60006122a1826116f1565b905060006103e8826122b39190614bac565b9050600081836122c391906149a9565b90506006600085815260200190815260200160002054816122e49190614bac565b600a60008681526020019081526020016000208190555060006006600086815260200190815260200160002054600a60008781526020019081526020016000205461232f9190614a3d565b8261233a91906149a9565b90506000818461234a9190615198565b90508060086000888152602001908152602001600020600082825461236f91906149a9565b925050819055506001600c600088815260200190815260200160002060006101000a81548160ff0219169083151502179055507f000000000000000000000000000000000000000000000000000000000000000073ffffffffffffffffffffffffffffffffffffffff1663a9059cbb33836040518363ffffffff1660e01b81526004016123fd929190614f26565b6020604051808303816000875af115801561241c573d6000803e3d6000fd5b505050506040513d601f19601f820116820180604052508101906124409190614f64565b50857fac2eeaf45d1b75aed6b3285cda3efb3c382cce02ba313558bbb90be57f8843e48685604051612473929190614bdd565b60405180910390a2505050505050565b6000600d6000838152602001908152602001600020549050919050565b60007f0000000000000000000000000000000000000000000000000000000000000000905090565b60007f000000000000000000000000000000000000000000000000000000000000000073ffffffffffffffffffffffffffffffffffffffff163373ffffffffffffffffffffffffffffffffffffffff1614612558576040517f08c379a000000000000000000000000000000000000000000000000000000000815260040161254f90614ce4565b60405180910390fd5b84841061259a576040517f08c379a000000000000000000000000000000000000000000000000000000000815260040161259190615491565b60405180910390fd5b60016003546125a99190615198565b90506001600360008282546125be9190615198565b925050819055506125d133828c85613512565b60405180610140016040528088888080601f016020809104026020016040519081016040528093929190818152602001838380828437600081840152601f19601f82011690508083019250505050505050815260200189815260200142815260200162015180876126429190614a3d565b4261264d9190615198565b815260200162015180866126619190614a3d565b4261266c9190615198565b81526020018581526020018681526020018b81526020018a8152602001848152506005600083815260200190815260200160002060008201518160000190816126b5919061565d565b506020820151816001015560408201518160020155606082015181600301556080820151816004015560a0820151816005015560c0820151816006015560e08201518160070155610100820151816008015561012082015181600901559050506002856127229190614bac565b600d600083815260200190815260200160002081905550807ff73e436c94925e1e8b2f0b16de0a2c56aea7fb27878f7815811bc05bc6c335e88b8a86620151808a61276d9190614a3d565b426127789190615198565b604051612788949392919061572f565b60405180910390a29998505050505050505050565b60006127a882610b77565b60056000848152602001908152602001600020600601546127c991906149a9565b9050919050565b7f000000000000000000000000000000000000000000000000000000000000000073ffffffffffffffffffffffffffffffffffffffff163373ffffffffffffffffffffffffffffffffffffffff161461285e576040517f08c379a000000000000000000000000000000000000000000000000000000000815260040161285590614ce4565b60405180910390fd5b61286782610f2d565b806128775750612876826113ef565b5b156128b7576040517f08c379a00000000000000000000000000000000000000000000000000000000081526004016128ae906157c0565b60405180910390fd5b6128c082611781565b15612900576040517f08c379a00000000000000000000000000000000000000000000000000000000081526004016128f79061582c565b60405180910390fd5b806008600084815260200190815260200160002060008282546129239190615198565b925050819055507f000000000000000000000000000000000000000000000000000000000000000073ffffffffffffffffffffffffffffffffffffffff166323b872dd3330846040518463ffffffff1660e01b8152600401612987939291906151cc565b6020604051808303816000875af11580156129a6573d6000803e3d6000fd5b505050506040513d601f19601f820116820180604052508101906129ca9190614f64565b505050565b60007f000000000000000000000000000000000000000000000000000000000000000073ffffffffffffffffffffffffffffffffffffffff166370a08231306040518263ffffffff1660e01b8152600401612a2a919061463d565b602060405180830381865afa158015612a47573d6000803e3d6000fd5b505050506040513d601f19601f82011682018060405250810190612a6b9190615861565b905090565b7f000000000000000000000000000000000000000000000000000000000000000073ffffffffffffffffffffffffffffffffffffffff163373ffffffffffffffffffffffffffffffffffffffff1614612afe576040517f08c379a0000000000000000000000000000000000000000000000000000000008152600401612af590614ce4565b60405180910390fd5b612b0781611781565b8015612b185750612b17816113b3565b5b612b57576040517f08c379a0000000000000000000000000000000000000000000000000000000008152600401612b4e906158da565b60405180910390fd5b6000600860008381526020019081526020016000205411612bad576040517f08c379a0000000000000000000000000000000000000000000000000000000008152600401612ba490615946565b60405180910390fd5b600060086000838152602001908152602001600020819055507f000000000000000000000000000000000000000000000000000000000000000073ffffffffffffffffffffffffffffffffffffffff1663a9059cbb3360086000858152602001908152602001600020546040518363ffffffff1660e01b8152600401612c34929190614f26565b6020604051808303816000875af1158015612c53573d6000803e3d6000fd5b505050506040513d601f19601f82011682018060405250810190612c779190614f64565b5050565b6000600160008473ffffffffffffffffffffffffffffffffffffffff1673ffffffffffffffffffffffffffffffffffffffff16815260200190815260200160002060008373ffffffffffffffffffffffffffffffffffffffff1673ffffffffffffffffffffffffffffffffffffffff16815260200190815260200160002060009054906101000a900460ff16905092915050565b600060086000838152602001908152602001600020549050919050565b612d34612e37565b73ffffffffffffffffffffffffffffffffffffffff168573ffffffffffffffffffffffffffffffffffffffff161480612d7a5750612d7985612d74612e37565b612c7b565b5b612db9576040517f08c379a0000000000000000000000000000000000000000000000000000000008152600401612db090614c78565b60405180910390fd5b612dc685858585856136c2565b5050505050565b60007f01ffc9a7000000000000000000000000000000000000000000000000000000007bffffffffffffffffffffffffffffffffffffffffffffffffffffffff1916827bffffffffffffffffffffffffffffffffffffffffffffffffffffffff1916149050919050565b600033905090565b8151835114612e83576040517f08c379a0000000000000000000000000000000000000000000000000000000008152600401612e7a906159d8565b60405180910390fd5b600073ffffffffffffffffffffffffffffffffffffffff168473ffffffffffffffffffffffffffffffffffffffff1603612ef2576040517f08c379a0000000000000000000000000000000000000000000000000000000008152600401612ee990615a6a565b60405180910390fd5b6000612efc612e37565b9050612f0c81878787878761395d565b60005b84518110156130bd576000858281518110612f2d57612f2c615023565b5b602002602001015190506000858381518110612f4c57612f4b615023565b5b60200260200101519050600080600084815260200190815260200160002060008b73ffffffffffffffffffffffffffffffffffffffff1673ffffffffffffffffffffffffffffffffffffffff16815260200190815260200160002054905081811015612fed576040517f08c379a0000000000000000000000000000000000000000000000000000000008152600401612fe490615afc565b60405180910390fd5b81810360008085815260200190815260200160002060008c73ffffffffffffffffffffffffffffffffffffffff1673ffffffffffffffffffffffffffffffffffffffff168152602001908152602001600020819055508160008085815260200190815260200160002060008b73ffffffffffffffffffffffffffffffffffffffff1673ffffffffffffffffffffffffffffffffffffffff16815260200190815260200160002060008282546130a29190615198565b92505081905550505050806130b690615052565b9050612f0f565b508473ffffffffffffffffffffffffffffffffffffffff168673ffffffffffffffffffffffffffffffffffffffff168273ffffffffffffffffffffffffffffffffffffffff167f4a39dc06d4c0dbc64b70af90fd698a233a518aa5d07e595d983b8c0526c8f7fb8787604051613134929190615b1c565b60405180910390a461314a818787878787613965565b61315881878787878761396d565b505050505050565b600073ffffffffffffffffffffffffffffffffffffffff168373ffffffffffffffffffffffffffffffffffffffff16036131cf576040517f08c379a00000000000000000000000000000000000000000000000000000000081526004016131c690615bc5565b60405180910390fd5b60006131d9612e37565b905060006131e684613b44565b905060006131f384613b44565b90506132138387600085856040518060200160405280600081525061395d565b600080600087815260200190815260200160002060008873ffffffffffffffffffffffffffffffffffffffff1673ffffffffffffffffffffffffffffffffffffffff168152602001908152602001600020549050848110156132aa576040517f08c379a00000000000000000000000000000000000000000000000000000000081526004016132a190615c57565b60405180910390fd5b84810360008088815260200190815260200160002060008973ffffffffffffffffffffffffffffffffffffffff1673ffffffffffffffffffffffffffffffffffffffff16815260200190815260200160002081905550600073ffffffffffffffffffffffffffffffffffffffff168773ffffffffffffffffffffffffffffffffffffffff168573ffffffffffffffffffffffffffffffffffffffff167fc3d58168c5ae7397731d063d5bbf3d657854427343f4c083240f7aacaa2d0f628989604051613377929190614bdd565b60405180910390a461339d84886000868660405180602001604052806000815250613965565b50505050505050565b8173ffffffffffffffffffffffffffffffffffffffff168373ffffffffffffffffffffffffffffffffffffffff1603613414576040517f08c379a000000000000000000000000000000000000000000000000000000000815260040161340b90615ce9565b60405180910390fd5b80600160008573ffffffffffffffffffffffffffffffffffffffff1673ffffffffffffffffffffffffffffffffffffffff16815260200190815260200160002060008473ffffffffffffffffffffffffffffffffffffffff1673ffffffffffffffffffffffffffffffffffffffff16815260200190815260200160002060006101000a81548160ff0219169083151502179055508173ffffffffffffffffffffffffffffffffffffffff168373ffffffffffffffffffffffffffffffffffffffff167f17307eab39ab6107e8899845ad3d59bd9653f200f220920489ca2b5937696c31836040516135059190613f6a565b60405180910390a3505050565b600073ffffffffffffffffffffffffffffffffffffffff168473ffffffffffffffffffffffffffffffffffffffff1603613581576040517f08c379a000000000000000000000000000000000000000000000000000000000815260040161357890615d7b565b60405180910390fd5b600061358b612e37565b9050600061359885613b44565b905060006135a585613b44565b90506135b68360008985858961395d565b8460008088815260200190815260200160002060008973ffffffffffffffffffffffffffffffffffffffff1673ffffffffffffffffffffffffffffffffffffffff16815260200190815260200160002060008282546136159190615198565b925050819055508673ffffffffffffffffffffffffffffffffffffffff16600073ffffffffffffffffffffffffffffffffffffffff168473ffffffffffffffffffffffffffffffffffffffff167fc3d58168c5ae7397731d063d5bbf3d657854427343f4c083240f7aacaa2d0f628989604051613693929190614bdd565b60405180910390a46136aa83600089858589613965565b6136b983600089898989613bbe565b50505050505050565b600073ffffffffffffffffffffffffffffffffffffffff168473ffffffffffffffffffffffffffffffffffffffff1603613731576040517f08c379a000000000000000000000000000000000000000000000000000000000815260040161372890615a6a565b60405180910390fd5b600061373b612e37565b9050600061374885613b44565b9050600061375585613b44565b905061376583898985858961395d565b600080600088815260200190815260200160002060008a73ffffffffffffffffffffffffffffffffffffffff1673ffffffffffffffffffffffffffffffffffffffff168152602001908152602001600020549050858110156137fc576040517f08c379a00000000000000000000000000000000000000000000000000000000081526004016137f390615afc565b60405180910390fd5b85810360008089815260200190815260200160002060008b73ffffffffffffffffffffffffffffffffffffffff1673ffffffffffffffffffffffffffffffffffffffff168152602001908152602001600020819055508560008089815260200190815260200160002060008a73ffffffffffffffffffffffffffffffffffffffff1673ffffffffffffffffffffffffffffffffffffffff16815260200190815260200160002060008282546138b19190615198565b925050819055508773ffffffffffffffffffffffffffffffffffffffff168973ffffffffffffffffffffffffffffffffffffffff168573ffffffffffffffffffffffffffffffffffffffff167fc3d58168c5ae7397731d063d5bbf3d657854427343f4c083240f7aacaa2d0f628a8a60405161392e929190614bdd565b60405180910390a4613944848a8a86868a613965565b613952848a8a8a8a8a613bbe565b505050505050505050565b505050505050565b505050505050565b61398c8473ffffffffffffffffffffffffffffffffffffffff16613d95565b15613b3c578373ffffffffffffffffffffffffffffffffffffffff1663bc197c8187878686866040518663ffffffff1660e01b81526004016139d2959493929190615df0565b6020604051808303816000875af1925050508015613a0e57506040513d601f19601f82011682018060405250810190613a0b9190615e6d565b60015b613ab357613a1a615ea7565b806308c379a003613a765750613a2e615ec9565b80613a395750613a78565b806040517f08c379a0000000000000000000000000000000000000000000000000000000008152600401613a6d9190614042565b60405180910390fd5b505b6040517f08c379a0000000000000000000000000000000000000000000000000000000008152600401613aaa90615fcb565b60405180910390fd5b63bc197c8160e01b7bffffffffffffffffffffffffffffffffffffffffffffffffffffffff1916817bffffffffffffffffffffffffffffffffffffffffffffffffffffffff191614613b3a576040517f08c379a0000000000000000000000000000000000000000000000000000000008152600401613b319061605d565b60405180910390fd5b505b505050505050565b60606000600167ffffffffffffffff811115613b6357613b62614069565b5b604051908082528060200260200182016040528015613b915781602001602082028036833780820191505090505b5090508281600081518110613ba957613ba8615023565b5b60200260200101818152505080915050919050565b613bdd8473ffffffffffffffffffffffffffffffffffffffff16613d95565b15613d8d578373ffffffffffffffffffffffffffffffffffffffff1663f23a6e6187878686866040518663ffffffff1660e01b8152600401613c2395949392919061607d565b6020604051808303816000875af1925050508015613c5f57506040513d601f19601f82011682018060405250810190613c5c9190615e6d565b60015b613d0457613c6b615ea7565b806308c379a003613cc75750613c7f615ec9565b80613c8a5750613cc9565b806040517f08c379a0000000000000000000000000000000000000000000000000000000008152600401613cbe9190614042565b60405180910390fd5b505b6040517f08c379a0000000000000000000000000000000000000000000000000000000008152600401613cfb90615fcb565b60405180910390fd5b63f23a6e6160e01b7bffffffffffffffffffffffffffffffffffffffffffffffffffffffff1916817bffffffffffffffffffffffffffffffffffffffffffffffffffffffff191614613d8b576040517f08c379a0000000000000000000000000000000000000000000000000000000008152600401613d829061605d565b60405180910390fd5b505b505050505050565b6000808273ffffffffffffffffffffffffffffffffffffffff163b119050919050565b6000604051905090565b600080fd5b600080fd5b600073ffffffffffffffffffffffffffffffffffffffff82169050919050565b6000613df782613dcc565b9050919050565b613e0781613dec565b8114613e1257600080fd5b50565b600081359050613e2481613dfe565b92915050565b6000819050919050565b613e3d81613e2a565b8114613e4857600080fd5b50565b600081359050613e5a81613e34565b92915050565b60008060408385031215613e7757613e76613dc2565b5b6000613e8585828601613e15565b9250506020613e9685828601613e4b565b9150509250929050565b613ea981613e2a565b82525050565b6000602082019050613ec46000830184613ea0565b92915050565b60007fffffffff0000000000000000000000000000000000000000000000000000000082169050919050565b613eff81613eca565b8114613f0a57600080fd5b50565b600081359050613f1c81613ef6565b92915050565b600060208284031215613f3857613f37613dc2565b5b6000613f4684828501613f0d565b91505092915050565b60008115159050919050565b613f6481613f4f565b82525050565b6000602082019050613f7f6000830184613f5b565b92915050565b600060208284031215613f9b57613f9a613dc2565b5b6000613fa984828501613e4b565b91505092915050565b600081519050919050565b600082825260208201905092915050565b60005b83811015613fec578082015181840152602081019050613fd1565b60008484015250505050565b6000601f19601f8301169050919050565b600061401482613fb2565b61401e8185613fbd565b935061402e818560208601613fce565b61403781613ff8565b840191505092915050565b6000602082019050818103600083015261405c8184614009565b905092915050565b600080fd5b7f4e487b7100000000000000000000000000000000000000000000000000000000600052604160045260246000fd5b6140a182613ff8565b810181811067ffffffffffffffff821117156140c0576140bf614069565b5b80604052505050565b60006140d3613db8565b90506140df8282614098565b919050565b600067ffffffffffffffff8211156140ff576140fe614069565b5b602082029050602081019050919050565b600080fd5b6000614128614123846140e4565b6140c9565b9050808382526020820190506020840283018581111561414b5761414a614110565b5b835b8181101561417457806141608882613e4b565b84526020840193505060208101905061414d565b5050509392505050565b600082601f83011261419357614192614064565b5b81356141a3848260208601614115565b91505092915050565b600080fd5b600067ffffffffffffffff8211156141cc576141cb614069565b5b6141d582613ff8565b9050602081019050919050565b82818337600083830152505050565b60006142046141ff846141b1565b6140c9565b9050828152602081018484840111156142205761421f6141ac565b5b61422b8482856141e2565b509392505050565b600082601f83011261424857614247614064565b5b81356142588482602086016141f1565b91505092915050565b600080600080600060a0868803121561427d5761427c613dc2565b5b600061428b88828901613e15565b955050602061429c88828901613e15565b945050604086013567ffffffffffffffff8111156142bd576142bc613dc7565b5b6142c98882890161417e565b935050606086013567ffffffffffffffff8111156142ea576142e9613dc7565b5b6142f68882890161417e565b925050608086013567ffffffffffffffff81111561431757614316613dc7565b5b61432388828901614233565b9150509295509295909350565b6000806040838503121561434757614346613dc2565b5b600061435585828601613e4b565b925050602061436685828601613e4b565b9150509250929050565b600067ffffffffffffffff82111561438b5761438a614069565b5b602082029050602081019050919050565b60006143af6143aa84614370565b6140c9565b905080838252602082019050602084028301858111156143d2576143d1614110565b5b835b818110156143fb57806143e78882613e15565b8452602084019350506020810190506143d4565b5050509392505050565b600082601f83011261441a57614419614064565b5b813561442a84826020860161439c565b91505092915050565b6000806040838503121561444a57614449613dc2565b5b600083013567ffffffffffffffff81111561446857614467613dc7565b5b61447485828601614405565b925050602083013567ffffffffffffffff81111561449557614494613dc7565b5b6144a18582860161417e565b9150509250929050565b600081519050919050565b600082825260208201905092915050565b6000819050602082019050919050565b6144e081613e2a565b82525050565b60006144f283836144d7565b60208301905092915050565b6000602082019050919050565b6000614516826144ab565b61452081856144b6565b935061452b836144c7565b8060005b8381101561455c57815161454388826144e6565b975061454e836144fe565b92505060018101905061452f565b5085935050505092915050565b60006020820190508181036000830152614583818461450b565b905092915050565b60006101408201905081810360008301526145a6818d614009565b90506145b5602083018c613ea0565b6145c2604083018b613ea0565b6145cf606083018a613ea0565b6145dc6080830189613ea0565b6145e960a0830188613ea0565b6145f660c0830187613ea0565b61460360e0830186613ea0565b614611610100830185613ea0565b61461f610120830184613ea0565b9b9a5050505050505050505050565b61463781613dec565b82525050565b6000602082019050614652600083018461462e565b92915050565b61466181613f4f565b811461466c57600080fd5b50565b60008135905061467e81614658565b92915050565b6000806040838503121561469b5761469a613dc2565b5b60006146a985828601613e15565b92505060206146ba8582860161466f565b9150509250929050565b600080fd5b60008083601f8401126146df576146de614064565b5b8235905067ffffffffffffffff8111156146fc576146fb6146c4565b5b60208301915083600182028301111561471857614717614110565b5b9250929050565b60008060008060008060008060006101008a8c03121561474257614741613dc2565b5b60006147508c828d01613e4b565b99505060206147618c828d01613e4b565b98505060406147728c828d01613e4b565b97505060608a013567ffffffffffffffff81111561479357614792613dc7565b5b61479f8c828d016146c9565b965096505060806147b28c828d01613e4b565b94505060a06147c38c828d01613e4b565b93505060c06147d48c828d01613e4b565b92505060e08a013567ffffffffffffffff8111156147f5576147f4613dc7565b5b6148018c828d01614233565b9150509295985092959850929598565b6000806040838503121561482857614827613dc2565b5b600061483685828601613e15565b925050602061484785828601613e15565b9150509250929050565b600080600080600060a0868803121561486d5761486c613dc2565b5b600061487b88828901613e15565b955050602061488c88828901613e15565b945050604061489d88828901613e4b565b93505060606148ae88828901613e4b565b925050608086013567ffffffffffffffff8111156148cf576148ce613dc7565b5b6148db88828901614233565b9150509295509295909350565b7f455243313135353a2061646472657373207a65726f206973206e6f742061207660008201527f616c6964206f776e657200000000000000000000000000000000000000000000602082015250565b6000614944602a83613fbd565b915061494f826148e8565b604082019050919050565b6000602082019050818103600083015261497381614937565b9050919050565b7f4e487b7100000000000000000000000000000000000000000000000000000000600052601160045260246000fd5b60006149b482613e2a565b91506149bf83613e2a565b92508282039050818111156149d7576149d661497a565b5b92915050565b7f4e487b7100000000000000000000000000000000000000000000000000000000600052602260045260246000fd5b60006002820490506001821680614a2457607f821691505b602082108103614a3757614a366149dd565b5b50919050565b6000614a4882613e2a565b9150614a5383613e2a565b9250828202614a6181613e2a565b91508282048414831517614a7857614a7761497a565b5b5092915050565b7f426f6e6420697320636f6d706c65746564000000000000000000000000000000600082015250565b6000614ab5601183613fbd565b9150614ac082614a7f565b602082019050919050565b60006020820190508181036000830152614ae481614aa8565b9050919050565b7f4d696e696d756d206f626c69676174696f6e20706572696f64206e6f7420726560008201527f6163686564000000000000000000000000000000000000000000000000000000602082015250565b6000614b47602583613fbd565b9150614b5282614aeb565b604082019050919050565b60006020820190508181036000830152614b7681614b3a565b9050919050565b7f4e487b7100000000000000000000000000000000000000000000000000000000600052601260045260246000fd5b6000614bb782613e2a565b9150614bc283613e2a565b925082614bd257614bd1614b7d565b5b828204905092915050565b6000604082019050614bf26000830185613ea0565b614bff6020830184613ea0565b9392505050565b7f455243313135353a2063616c6c6572206973206e6f7420746f6b656e206f776e60008201527f6572206f7220617070726f766564000000000000000000000000000000000000602082015250565b6000614c62602e83613fbd565b9150614c6d82614c06565b604082019050919050565b60006020820190508181036000830152614c9181614c55565b9050919050565b7f43616c6c6572206973206e6f7420746865206f776e6572000000000000000000600082015250565b6000614cce601783613fbd565b9150614cd982614c98565b602082019050919050565b60006020820190508181036000830152614cfd81614cc1565b9050919050565b7f5769746864726177206e6f7420616c6c6f776564207768656e20616374697665600082015250565b6000614d3a602083613fbd565b9150614d4582614d04565b602082019050919050565b60006020820190508181036000830152614d6981614d2d565b9050919050565b7f5769746864726177206e6f7420616c6c6f77656420616674657220636f6d706c60008201527f6574696f6e000000000000000000000000000000000000000000000000000000602082015250565b6000614dcc602583613fbd565b9150614dd782614d70565b604082019050919050565b60006020820190508181036000830152614dfb81614dbf565b9050919050565b7f5769746864726177206e6f7420616c6c6f776564207768656e2064656661756c60008201527f7465640000000000000000000000000000000000000000000000000000000000602082015250565b6000614e5e602383613fbd565b9150614e6982614e02565b604082019050919050565b60006020820190508181036000830152614e8d81614e51565b9050919050565b7f5769746864726177616c20746f6b656e20616d6f756e7420657863656564732060008201527f746f6b656e20616d6f756e7420696e20636f6e74726163740000000000000000602082015250565b6000614ef0603883613fbd565b9150614efb82614e94565b604082019050919050565b60006020820190508181036000830152614f1f81614ee3565b9050919050565b6000604082019050614f3b600083018561462e565b614f486020830184613ea0565b9392505050565b600081519050614f5e81614658565b92915050565b600060208284031215614f7a57614f79613dc2565b5b6000614f8884828501614f4f565b91505092915050565b7f455243313135353a206163636f756e747320616e6420696473206c656e67746860008201527f206d69736d617463680000000000000000000000000000000000000000000000602082015250565b6000614fed602983613fbd565b9150614ff882614f91565b604082019050919050565b6000602082019050818103600083015261501c81614fe0565b9050919050565b7f4e487b7100000000000000000000000000000000000000000000000000000000600052603260045260246000fd5b600061505d82613e2a565b91507fffffffffffffffffffffffffffffffffffffffffffffffffffffffffffffffff820361508f5761508e61497a565b5b600182019050919050565b7f426f6e6420697320696e61637469766500000000000000000000000000000000600082015250565b60006150d0601083613fbd565b91506150db8261509a565b602082019050919050565b600060208201905081810360008301526150ff816150c3565b9050919050565b7f496e73756666696369656e7420626f6e64207175616e746974792072656d616960008201527f6e696e6700000000000000000000000000000000000000000000000000000000602082015250565b6000615162602483613fbd565b915061516d82615106565b604082019050919050565b6000602082019050818103600083015261519181615155565b9050919050565b60006151a382613e2a565b91506151ae83613e2a565b92508282019050808211156151c6576151c561497a565b5b92915050565b60006060820190506151e1600083018661462e565b6151ee602083018561462e565b6151fb6040830184613ea0565b949350505050565b7f426f6e64206973206e6f7420636f6d706c657465640000000000000000000000600082015250565b6000615239601583613fbd565b915061524482615203565b602082019050919050565b600060208201905081810360008301526152688161522c565b9050919050565b7f496e73756666696369656e7420626f6e64207175616e74697479000000000000600082015250565b60006152a5601a83613fbd565b91506152b08261526f565b602082019050919050565b600060208201905081810360008301526152d481615298565b9050919050565b7f426f6e64206973206e6f742064656661756c7465640000000000000000000000600082015250565b6000615311601583613fbd565b915061531c826152db565b602082019050919050565b6000602082019050818103600083015261534081615304565b9050919050565b7f426f6e64206973206e6f742063616e63656c6564000000000000000000000000600082015250565b600061537d601483613fbd565b915061538882615347565b602082019050919050565b600060208201905081810360008301526153ac81615370565b9050919050565b7f426f6e6420697320616c726561647920636f6d706c6574656400000000000000600082015250565b60006153e9601983613fbd565b91506153f4826153b3565b602082019050919050565b60006020820190508181036000830152615418816153dc565b9050919050565b7f416374697665206475726174696f6e2073686f756c642062652073686f72746560008201527f72207468616e206475726174696f6e0000000000000000000000000000000000602082015250565b600061547b602f83613fbd565b91506154868261541f565b604082019050919050565b600060208201905081810360008301526154aa8161546e565b9050919050565b60008190508160005260206000209050919050565b60006020601f8301049050919050565b600082821b905092915050565b6000600883026155137fffffffffffffffffffffffffffffffffffffffffffffffffffffffffffffffff826154d6565b61551d86836154d6565b95508019841693508086168417925050509392505050565b6000819050919050565b600061555a61555561555084613e2a565b615535565b613e2a565b9050919050565b6000819050919050565b6155748361553f565b61558861558082615561565b8484546154e3565b825550505050565b600090565b61559d615590565b6155a881848461556b565b505050565b5b818110156155cc576155c1600082615595565b6001810190506155ae565b5050565b601f821115615611576155e2816154b1565b6155eb846154c6565b810160208510156155fa578190505b61560e615606856154c6565b8301826155ad565b50505b505050565b600082821c905092915050565b600061563460001984600802615616565b1980831691505092915050565b600061564d8383615623565b9150826002028217905092915050565b61566682613fb2565b67ffffffffffffffff81111561567f5761567e614069565b5b6156898254614a0c565b6156948282856155d0565b600060209050601f8311600181146156c757600084156156b5578287015190505b6156bf8582615641565b865550615727565b601f1984166156d5866154b1565b60005b828110156156fd578489015182556001820191506020850194506020810190506156d8565b8683101561571a5784890151615716601f891682615623565b8355505b6001600288020188555050505b505050505050565b60006080820190506157446000830187613ea0565b6157516020830186613ea0565b61575e6040830185613ea0565b61576b6060830184613ea0565b95945050505050565b7f626f6e642069732064656661756c746564000000000000000000000000000000600082015250565b60006157aa601183613fbd565b91506157b582615774565b602082019050919050565b600060208201905081810360008301526157d98161579d565b9050919050565b7f626f6e6420697320636f6d706c65746564000000000000000000000000000000600082015250565b6000615816601183613fbd565b9150615821826157e0565b602082019050919050565b6000602082019050818103600083015261584581615809565b9050919050565b60008151905061585b81613e34565b92915050565b60006020828403121561587757615876613dc2565b5b60006158858482850161584c565b91505092915050565b7f43616e6e6f742077697468647261772065786365737300000000000000000000600082015250565b60006158c4601683613fbd565b91506158cf8261588e565b602082019050919050565b600060208201905081810360008301526158f3816158b7565b9050919050565b7f43616e6e6f742077697468647261772066726f6d20656d70747920706f6f6c00600082015250565b6000615930601f83613fbd565b915061593b826158fa565b602082019050919050565b6000602082019050818103600083015261595f81615923565b9050919050565b7f455243313135353a2069647320616e6420616d6f756e7473206c656e6774682060008201527f6d69736d61746368000000000000000000000000000000000000000000000000602082015250565b60006159c2602883613fbd565b91506159cd82615966565b604082019050919050565b600060208201905081810360008301526159f1816159b5565b9050919050565b7f455243313135353a207472616e7366657220746f20746865207a65726f20616460008201527f6472657373000000000000000000000000000000000000000000000000000000602082015250565b6000615a54602583613fbd565b9150615a5f826159f8565b604082019050919050565b60006020820190508181036000830152615a8381615a47565b9050919050565b7f455243313135353a20696e73756666696369656e742062616c616e636520666f60008201527f72207472616e7366657200000000000000000000000000000000000000000000602082015250565b6000615ae6602a83613fbd565b9150615af182615a8a565b604082019050919050565b60006020820190508181036000830152615b1581615ad9565b9050919050565b60006040820190508181036000830152615b36818561450b565b90508181036020830152615b4a818461450b565b90509392505050565b7f455243313135353a206275726e2066726f6d20746865207a65726f206164647260008201527f6573730000000000000000000000000000000000000000000000000000000000602082015250565b6000615baf602383613fbd565b9150615bba82615b53565b604082019050919050565b60006020820190508181036000830152615bde81615ba2565b9050919050565b7f455243313135353a206275726e20616d6f756e7420657863656564732062616c60008201527f616e636500000000000000000000000000000000000000000000000000000000602082015250565b6000615c41602483613fbd565b9150615c4c82615be5565b604082019050919050565b60006020820190508181036000830152615c7081615c34565b9050919050565b7f455243313135353a2073657474696e6720617070726f76616c2073746174757360008201527f20666f722073656c660000000000000000000000000000000000000000000000602082015250565b6000615cd3602983613fbd565b9150615cde82615c77565b604082019050919050565b60006020820190508181036000830152615d0281615cc6565b9050919050565b7f455243313135353a206d696e7420746f20746865207a65726f2061646472657360008201527f7300000000000000000000000000000000000000000000000000000000000000602082015250565b6000615d65602183613fbd565b9150615d7082615d09565b604082019050919050565b60006020820190508181036000830152615d9481615d58565b9050919050565b600081519050919050565b600082825260208201905092915050565b6000615dc282615d9b565b615dcc8185615da6565b9350615ddc818560208601613fce565b615de581613ff8565b840191505092915050565b600060a082019050615e05600083018861462e565b615e12602083018761462e565b8181036040830152615e24818661450b565b90508181036060830152615e38818561450b565b90508181036080830152615e4c8184615db7565b90509695505050505050565b600081519050615e6781613ef6565b92915050565b600060208284031215615e8357615e82613dc2565b5b6000615e9184828501615e58565b91505092915050565b60008160e01c9050919050565b600060033d1115615ec65760046000803e615ec3600051615e9a565b90505b90565b600060443d10615f5657615edb613db8565b60043d036004823e80513d602482011167ffffffffffffffff82111715615f03575050615f56565b808201805167ffffffffffffffff811115615f215750505050615f56565b80602083010160043d038501811115615f3e575050505050615f56565b615f4d82602001850186614098565b82955050505050505b90565b7f455243313135353a207472616e7366657220746f206e6f6e2d4552433131353560008201527f526563656976657220696d706c656d656e746572000000000000000000000000602082015250565b6000615fb5603483613fbd565b9150615fc082615f59565b604082019050919050565b60006020820190508181036000830152615fe481615fa8565b9050919050565b7f455243313135353a204552433131353552656365697665722072656a6563746560008201527f6420746f6b656e73000000000000000000000000000000000000000000000000602082015250565b6000616047602883613fbd565b915061605282615feb565b604082019050919050565b600060208201905081810360008301526160768161603a565b9050919050565b600060a082019050616092600083018861462e565b61609f602083018761462e565b6160ac6040830186613ea0565b6160b96060830185613ea0565b81810360808301526160cb8184615db7565b9050969550505050505056fea2646970667358221220deee529dd1c95088c39621c92c0bb1e56f451e0203bf1b29f2d78837dd5e81b964736f6c63430008110033a26469706673582212200b88cd02f7b74d9a3f19012d264f6d81a56964a0595510f232d4a2f4fc4fcda664736f6c63430008110033",
  "linkReferences": {},
  "deployedLinkReferences": {}
}