{
  "_format": "hh-sol-artifact-1",
  "contractName": "Mainframe",
  "sourceName": "contracts/Mainframe.sol",
  "abi": [
    {
      "inputs": [
        {
          "internalType": "address",
          "name": "sbt",
          "type": "address"
        }
      ],
      "stateMutability": "nonpayable",
      "type": "constructor"
    },
    {
      "inputs": [
        {
          "internalType": "address",
          "name": "caller",
          "type": "address"
        }
      ],
      "name": "bondFactories",
      "outputs": [
        {
          "internalType": "address[]",
          "name": "",
          "type": "address[]"
        }
      ],
      "stateMutability": "view",
      "type": "function"
    },
    {
      "inputs": [
        {
          "internalType": "address",
          "name": "caller",
          "type": "address"
        },
        {
          "internalType": "address",
          "name": "token",
          "type": "address"
        }
      ],
      "name": "bondFactoryIsInitialized",
      "outputs": [
        {
          "internalType": "bool",
          "name": "",
          "type": "bool"
        }
      ],
      "stateMutability": "view",
      "type": "function"
    },
    {
      "inputs": [
        {
          "internalType": "address",
          "name": "caller",
          "type": "address"
        }
      ],
      "name": "callableBondFactories",
      "outputs": [
        {
          "internalType": "address[]",
          "name": "",
          "type": "address[]"
        }
      ],
      "stateMutability": "view",
      "type": "function"
    },
    {
      "inputs": [
        {
          "internalType": "address",
          "name": "caller",
          "type": "address"
        },
        {
          "internalType": "address",
          "name": "token",
          "type": "address"
        }
      ],
      "name": "callableBondFactoryIsInitialized",
      "outputs": [
        {
          "internalType": "bool",
          "name": "",
          "type": "bool"
        }
      ],
      "stateMutability": "view",
      "type": "function"
    },
    {
      "inputs": [
        {
          "internalType": "string",
          "name": "uri",
          "type": "string"
        },
        {
          "internalType": "address",
          "name": "token",
          "type": "address"
        }
      ],
      "name": "createBondFactory",
      "outputs": [
        {
          "internalType": "address",
          "name": "",
          "type": "address"
        }
      ],
      "stateMutability": "nonpayable",
      "type": "function"
    },
    {
      "inputs": [
        {
          "internalType": "string",
          "name": "uri",
          "type": "string"
        },
        {
          "internalType": "address",
          "name": "token",
          "type": "address"
        }
      ],
      "name": "createCallableBondFactory",
      "outputs": [
        {
          "internalType": "address",
          "name": "",
          "type": "address"
        }
      ],
      "stateMutability": "nonpayable",
      "type": "function"
    },
    {
      "inputs": [
        {
          "internalType": "string",
          "name": "uri",
          "type": "string"
        },
        {
          "internalType": "address",
          "name": "tokenA",
          "type": "address"
        },
        {
          "internalType": "address",
          "name": "tokenB",
          "type": "address"
        }
      ],
      "name": "createDualCurrencyBondFactory",
      "outputs": [
        {
          "internalType": "address",
          "name": "",
          "type": "address"
        }
      ],
      "stateMutability": "nonpayable",
      "type": "function"
    },
    {
      "inputs": [
        {
          "internalType": "string",
          "name": "uri",
          "type": "string"
        },
        {
          "internalType": "address",
          "name": "token",
          "type": "address"
        }
      ],
      "name": "createInstallmentBondFactory",
      "outputs": [
        {
          "internalType": "address",
          "name": "",
          "type": "address"
        }
      ],
      "stateMutability": "nonpayable",
      "type": "function"
    },
    {
      "inputs": [
        {
          "internalType": "address",
          "name": "token",
          "type": "address"
        }
      ],
      "name": "deregisterPriceFeed",
      "outputs": [],
      "stateMutability": "nonpayable",
      "type": "function"
    },
    {
      "inputs": [
        {
          "internalType": "address",
          "name": "caller",
          "type": "address"
        }
      ],
      "name": "dualCurrencyBondFactories",
      "outputs": [
        {
          "internalType": "address[]",
          "name": "",
          "type": "address[]"
        }
      ],
      "stateMutability": "view",
      "type": "function"
    },
    {
      "inputs": [
        {
          "internalType": "address",
          "name": "caller",
          "type": "address"
        },
        {
          "internalType": "address",
          "name": "tokenA",
          "type": "address"
        },
        {
          "internalType": "address",
          "name": "tokenB",
          "type": "address"
        }
      ],
      "name": "dualCurrencyBondFactoryIsInitialized",
      "outputs": [
        {
          "internalType": "bool",
          "name": "",
          "type": "bool"
        }
      ],
      "stateMutability": "view",
      "type": "function"
    },
    {
      "inputs": [],
      "name": "entities",
      "outputs": [
        {
          "internalType": "address[]",
          "name": "",
          "type": "address[]"
        }
      ],
      "stateMutability": "view",
      "type": "function"
    },
    {
      "inputs": [
        {
          "internalType": "address",
          "name": "caller",
          "type": "address"
        }
      ],
      "name": "installmentBondFactories",
      "outputs": [
        {
          "internalType": "address[]",
          "name": "",
          "type": "address[]"
        }
      ],
      "stateMutability": "view",
      "type": "function"
    },
    {
      "inputs": [
        {
          "internalType": "address",
          "name": "caller",
          "type": "address"
        },
        {
          "internalType": "address",
          "name": "token",
          "type": "address"
        }
      ],
      "name": "installmentBondFactoryIsInitialized",
      "outputs": [
        {
          "internalType": "bool",
          "name": "",
          "type": "bool"
        }
      ],
      "stateMutability": "view",
      "type": "function"
    },
    {
      "inputs": [
        {
          "internalType": "address",
          "name": "caller",
          "type": "address"
        }
      ],
      "name": "isRegistered",
      "outputs": [
        {
          "internalType": "bool",
          "name": "",
          "type": "bool"
        }
      ],
      "stateMutability": "view",
      "type": "function"
    },
    {
      "inputs": [],
      "name": "owner",
      "outputs": [
        {
          "internalType": "address",
          "name": "",
          "type": "address"
        }
      ],
      "stateMutability": "view",
      "type": "function"
    },
    {
      "inputs": [],
      "name": "register",
      "outputs": [],
      "stateMutability": "nonpayable",
      "type": "function"
    },
    {
      "inputs": [
        {
          "internalType": "address",
          "name": "token",
          "type": "address"
        },
        {
          "internalType": "address",
          "name": "feed",
          "type": "address"
        }
      ],
      "name": "registerPriceFeed",
      "outputs": [],
      "stateMutability": "nonpayable",
      "type": "function"
    }
  ],
  "bytecode": "0x60a06040523480156200001157600080fd5b506040516201d82c3803806201d82c83398181016040528101906200003791906200045a565b3373ffffffffffffffffffffffffffffffffffffffff1660808173ffffffffffffffffffffffffffffffffffffffff1681525050806000806101000a81548173ffffffffffffffffffffffffffffffffffffffff021916908373ffffffffffffffffffffffffffffffffffffffff160217905550730d79df66be487753b02d015fb622ded7f0e9798d600260007321c8a148933e6ca502b47d729a485579c22e8a6973ffffffffffffffffffffffffffffffffffffffff1673ffffffffffffffffffffffffffffffffffffffff16815260200190815260200160002060006101000a81548173ffffffffffffffffffffffffffffffffffffffff021916908373ffffffffffffffffffffffffffffffffffffffff16021790555073ab5c49580294aff77670f839ea425f5b78ab3ae7600260007307865c6e87b9f70255377e024ace6630c1eaa37f73ffffffffffffffffffffffffffffffffffffffff1673ffffffffffffffffffffffffffffffffffffffff16815260200190815260200160002060006101000a81548173ffffffffffffffffffffffffffffffffffffffff021916908373ffffffffffffffffffffffffffffffffffffffff16021790555073d4a33860578de61dbabdc8bfdb98fd742fa7028e6002600073b4fbf271143f4fbf7b91a5ded31805e42b2208d673ffffffffffffffffffffffffffffffffffffffff1673ffffffffffffffffffffffffffffffffffffffff16815260200190815260200160002060006101000a81548173ffffffffffffffffffffffffffffffffffffffff021916908373ffffffffffffffffffffffffffffffffffffffff1602179055507348731cf7e84dc94c5f84577882c14be11a5b74566002600073326c977e6efc84e512bb9c30f76e30c160ed06fb73ffffffffffffffffffffffffffffffffffffffff1673ffffffffffffffffffffffffffffffffffffffff16815260200190815260200160002060006101000a81548173ffffffffffffffffffffffffffffffffffffffff021916908373ffffffffffffffffffffffffffffffffffffffff16021790555073a39434a63a52e749f02807ae27335515ba4b07f760026000739c556b18d2370d4c44f3b3153d340d9abfd8d99573ffffffffffffffffffffffffffffffffffffffff1673ffffffffffffffffffffffffffffffffffffffff16815260200190815260200160002060006101000a81548173ffffffffffffffffffffffffffffffffffffffff021916908373ffffffffffffffffffffffffffffffffffffffff160217905550506200048c565b600080fd5b600073ffffffffffffffffffffffffffffffffffffffff82169050919050565b60006200042282620003f5565b9050919050565b620004348162000415565b81146200044057600080fd5b50565b600081519050620004548162000429565b92915050565b600060208284031215620004735762000472620003f0565b5b6000620004838482850162000443565b91505092915050565b6080516201d374620004b8600039600081816110d50152818161127c015261139101526201d3746000f3fe60806040523480156200001157600080fd5b5060043610620001305760003560e01c80638da5cb5b11620000b1578063c3298dec116200007b578063c3298dec1462000375578063c3c5a54714620003ab578063ca5ad27c14620003e1578063d0706c3e1462000417578063ee93945c146200044d5762000130565b80638da5cb5b14620002b1578063970ab9e714620002d3578063b37ffadb1462000309578063b4f269ea146200033f5762000130565b8063417590da11620000ff578063417590da14620001cf578063487c5cdf14620002055780635166bc04146200023b5780637283640f146200025b57806373cef18914620002915762000130565b80631259ba2f14620001355780631615fd03146200016b5780631aa3a008146200018d578063310f72ec1462000199575b600080fd5b6200015360048036038101906200014d919062002738565b62000483565b604051620001629190620027c4565b60405180910390f35b6200017562000be0565b604051620001849190620028af565b60405180910390f35b6200019762000c70565b005b620001b76004803603810190620001b19190620028d3565b62000e9e565b604051620001c691906200294c565b60405180910390f35b620001ed6004803603810190620001e7919062002969565b62000f70565b604051620001fc9190620028af565b60405180910390f35b6200022360048036038101906200021d91906200299b565b6200103f565b6040516200023291906200294c565b60405180910390f35b6200025960048036038101906200025391906200299b565b620010d3565b005b6200027960048036038101906200027391906200299b565b620011e6565b6040516200028891906200294c565b60405180910390f35b620002af6004803603810190620002a9919062002969565b6200127a565b005b620002bb6200138d565b604051620002ca9190620027c4565b60405180910390f35b620002f16004803603810190620002eb91906200299b565b620013b5565b6040516200030091906200294c565b60405180910390f35b62000327600480360381019062000321919062002969565b62001449565b604051620003369190620028af565b60405180910390f35b6200035d6004803603810190620003579190620029e2565b62001518565b6040516200036c9190620027c4565b60405180910390f35b6200039360048036038101906200038d919062002969565b620019cb565b604051620003a29190620028af565b60405180910390f35b620003c96004803603810190620003c3919062002969565b62001a9a565b604051620003d891906200294c565b60405180910390f35b620003ff6004803603810190620003f99190620029e2565b62001af0565b6040516200040e9190620027c4565b60405180910390f35b6200043560048036038101906200042f9190620029e2565b62001fa3565b604051620004449190620027c4565b60405180910390f35b6200046b600480360381019062000465919062002969565b62002456565b6040516200047a9190620028af565b60405180910390f35b600060011515600360003373ffffffffffffffffffffffffffffffffffffffff1673ffffffffffffffffffffffffffffffffffffffff16815260200190815260200160002060009054906101000a900460ff161515146200051b576040517f08c379a0000000000000000000000000000000000000000000000000000000008152600401620005129062002aa9565b60405180910390fd5b60008054906101000a900473ffffffffffffffffffffffffffffffffffffffff1673ffffffffffffffffffffffffffffffffffffffff166339f920ab336040518263ffffffff1660e01b8152600401620005769190620027c4565b602060405180830381865afa15801562000594573d6000803e3d6000fd5b505050506040513d601f19601f82011682018060405250810190620005ba919062002afc565b620005fc576040517f08c379a0000000000000000000000000000000000000000000000000000000008152600401620005f39062002ba4565b60405180910390fd5b60028060ff1660008054906101000a900473ffffffffffffffffffffffffffffffffffffffff1673ffffffffffffffffffffffffffffffffffffffff1663b7caec87336040518263ffffffff1660e01b81526004016200065d9190620027c4565b602060405180830381865afa1580156200067b573d6000803e3d6000fd5b505050506040513d601f19601f82011682018060405250810190620006a1919062002c04565b60ff161015620006e8576040517f08c379a0000000000000000000000000000000000000000000000000000000008152600401620006df9062002cac565b60405180910390fd5b600073ffffffffffffffffffffffffffffffffffffffff16600260008673ffffffffffffffffffffffffffffffffffffffff1673ffffffffffffffffffffffffffffffffffffffff16815260200190815260200160002060009054906101000a900473ffffffffffffffffffffffffffffffffffffffff1673ffffffffffffffffffffffffffffffffffffffff1614158015620008115750600073ffffffffffffffffffffffffffffffffffffffff16600260008573ffffffffffffffffffffffffffffffffffffffff1673ffffffffffffffffffffffffffffffffffffffff16815260200190815260200160002060009054906101000a900473ffffffffffffffffffffffffffffffffffffffff1673ffffffffffffffffffffffffffffffffffffffff1614155b62000853576040517f08c379a00000000000000000000000000000000000000000000000000000000081526004016200084a9062002d1e565b60405180910390fd5b600b60003373ffffffffffffffffffffffffffffffffffffffff1673ffffffffffffffffffffffffffffffffffffffff16815260200190815260200160002060008573ffffffffffffffffffffffffffffffffffffffff1673ffffffffffffffffffffffffffffffffffffffff16815260200190815260200160002060008473ffffffffffffffffffffffffffffffffffffffff1673ffffffffffffffffffffffffffffffffffffffff16815260200190815260200160002060009054906101000a900460ff16156200095d576040517f08c379a0000000000000000000000000000000000000000000000000000000008152600401620009549062002d90565b60405180910390fd5b6000858585600260008973ffffffffffffffffffffffffffffffffffffffff1673ffffffffffffffffffffffffffffffffffffffff16815260200190815260200160002060009054906101000a900473ffffffffffffffffffffffffffffffffffffffff16600260008973ffffffffffffffffffffffffffffffffffffffff1673ffffffffffffffffffffffffffffffffffffffff16815260200190815260200160002060009054906101000a900473ffffffffffffffffffffffffffffffffffffffff163360405162000a319062002525565b62000a429695949392919062002e2a565b604051809103906000f08015801562000a5f573d6000803e3d6000fd5b509050600760003373ffffffffffffffffffffffffffffffffffffffff1673ffffffffffffffffffffffffffffffffffffffff168152602001908152602001600020819080600181540180825580915050600190039060005260206000200160009091909190916101000a81548173ffffffffffffffffffffffffffffffffffffffff021916908373ffffffffffffffffffffffffffffffffffffffff1602179055506001600b60003373ffffffffffffffffffffffffffffffffffffffff1673ffffffffffffffffffffffffffffffffffffffff16815260200190815260200160002060008773ffffffffffffffffffffffffffffffffffffffff1673ffffffffffffffffffffffffffffffffffffffff16815260200190815260200160002060008673ffffffffffffffffffffffffffffffffffffffff1673ffffffffffffffffffffffffffffffffffffffff16815260200190815260200160002060006101000a81548160ff02191690831515021790555080925050509392505050565b6060600180548060200260200160405190810160405280929190818152602001828054801562000c6657602002820191906000526020600020905b8160009054906101000a900473ffffffffffffffffffffffffffffffffffffffff1673ffffffffffffffffffffffffffffffffffffffff168152602001906001019080831162000c1b575b5050505050905090565b60008054906101000a900473ffffffffffffffffffffffffffffffffffffffff1673ffffffffffffffffffffffffffffffffffffffff166339f920ab336040518263ffffffff1660e01b815260040162000ccb9190620027c4565b602060405180830381865afa15801562000ce9573d6000803e3d6000fd5b505050506040513d601f19601f8201168201806040525081019062000d0f919062002afc565b62000d51576040517f08c379a000000000000000000000000000000000000000000000000000000000815260040162000d489062002ba4565b60405180910390fd5b600360003373ffffffffffffffffffffffffffffffffffffffff1673ffffffffffffffffffffffffffffffffffffffff16815260200190815260200160002060009054906101000a900460ff161562000de1576040517f08c379a000000000000000000000000000000000000000000000000000000000815260040162000dd89062002eee565b60405180910390fd5b6001600360003373ffffffffffffffffffffffffffffffffffffffff1673ffffffffffffffffffffffffffffffffffffffff16815260200190815260200160002060006101000a81548160ff0219169083151502179055506001339080600181540180825580915050600190039060005260206000200160009091909190916101000a81548173ffffffffffffffffffffffffffffffffffffffff021916908373ffffffffffffffffffffffffffffffffffffffff160217905550565b6000600b60008573ffffffffffffffffffffffffffffffffffffffff1673ffffffffffffffffffffffffffffffffffffffff16815260200190815260200160002060008473ffffffffffffffffffffffffffffffffffffffff1673ffffffffffffffffffffffffffffffffffffffff16815260200190815260200160002060008373ffffffffffffffffffffffffffffffffffffffff1673ffffffffffffffffffffffffffffffffffffffff16815260200190815260200160002060009054906101000a900460ff1690509392505050565b6060600460008373ffffffffffffffffffffffffffffffffffffffff1673ffffffffffffffffffffffffffffffffffffffff1681526020019081526020016000208054806020026020016040519081016040528092919081815260200182805480156200103357602002820191906000526020600020905b8160009054906101000a900473ffffffffffffffffffffffffffffffffffffffff1673ffffffffffffffffffffffffffffffffffffffff168152602001906001019080831162000fe8575b50505050509050919050565b6000600860008473ffffffffffffffffffffffffffffffffffffffff1673ffffffffffffffffffffffffffffffffffffffff16815260200190815260200160002060008373ffffffffffffffffffffffffffffffffffffffff1673ffffffffffffffffffffffffffffffffffffffff16815260200190815260200160002060009054906101000a900460ff16905092915050565b7f000000000000000000000000000000000000000000000000000000000000000073ffffffffffffffffffffffffffffffffffffffff163373ffffffffffffffffffffffffffffffffffffffff161462001164576040517f08c379a00000000000000000000000000000000000000000000000000000000081526004016200115b9062002f60565b60405180910390fd5b80600260008473ffffffffffffffffffffffffffffffffffffffff1673ffffffffffffffffffffffffffffffffffffffff16815260200190815260200160002060006101000a81548173ffffffffffffffffffffffffffffffffffffffff021916908373ffffffffffffffffffffffffffffffffffffffff1602179055505050565b6000600a60008473ffffffffffffffffffffffffffffffffffffffff1673ffffffffffffffffffffffffffffffffffffffff16815260200190815260200160002060008373ffffffffffffffffffffffffffffffffffffffff1673ffffffffffffffffffffffffffffffffffffffff16815260200190815260200160002060009054906101000a900460ff16905092915050565b7f000000000000000000000000000000000000000000000000000000000000000073ffffffffffffffffffffffffffffffffffffffff163373ffffffffffffffffffffffffffffffffffffffff16146200130b576040517f08c379a0000000000000000000000000000000000000000000000000000000008152600401620013029062002f60565b60405180910390fd5b6000600260008373ffffffffffffffffffffffffffffffffffffffff1673ffffffffffffffffffffffffffffffffffffffff16815260200190815260200160002060006101000a81548173ffffffffffffffffffffffffffffffffffffffff021916908373ffffffffffffffffffffffffffffffffffffffff16021790555050565b60007f0000000000000000000000000000000000000000000000000000000000000000905090565b6000600960008473ffffffffffffffffffffffffffffffffffffffff1673ffffffffffffffffffffffffffffffffffffffff16815260200190815260200160002060008373ffffffffffffffffffffffffffffffffffffffff1673ffffffffffffffffffffffffffffffffffffffff16815260200190815260200160002060009054906101000a900460ff16905092915050565b6060600660008373ffffffffffffffffffffffffffffffffffffffff1673ffffffffffffffffffffffffffffffffffffffff1681526020019081526020016000208054806020026020016040519081016040528092919081815260200182805480156200150c57602002820191906000526020600020905b8160009054906101000a900473ffffffffffffffffffffffffffffffffffffffff1673ffffffffffffffffffffffffffffffffffffffff1681526020019060010190808311620014c1575b50505050509050919050565b600060011515600360003373ffffffffffffffffffffffffffffffffffffffff1673ffffffffffffffffffffffffffffffffffffffff16815260200190815260200160002060009054906101000a900460ff16151514620015b0576040517f08c379a0000000000000000000000000000000000000000000000000000000008152600401620015a79062002aa9565b60405180910390fd5b60008054906101000a900473ffffffffffffffffffffffffffffffffffffffff1673ffffffffffffffffffffffffffffffffffffffff166339f920ab336040518263ffffffff1660e01b81526004016200160b9190620027c4565b602060405180830381865afa15801562001629573d6000803e3d6000fd5b505050506040513d601f19601f820116820180604052508101906200164f919062002afc565b62001691576040517f08c379a0000000000000000000000000000000000000000000000000000000008152600401620016889062002ba4565b60405180910390fd5b60038060ff1660008054906101000a900473ffffffffffffffffffffffffffffffffffffffff1673ffffffffffffffffffffffffffffffffffffffff1663b7caec87336040518263ffffffff1660e01b8152600401620016f29190620027c4565b602060405180830381865afa15801562001710573d6000803e3d6000fd5b505050506040513d601f19601f8201168201806040525081019062001736919062002c04565b60ff1610156200177d576040517f08c379a0000000000000000000000000000000000000000000000000000000008152600401620017749062002cac565b60405180910390fd5b600a60003373ffffffffffffffffffffffffffffffffffffffff1673ffffffffffffffffffffffffffffffffffffffff16815260200190815260200160002060008473ffffffffffffffffffffffffffffffffffffffff1673ffffffffffffffffffffffffffffffffffffffff16815260200190815260200160002060009054906101000a900460ff16156200184a576040517f08c379a0000000000000000000000000000000000000000000000000000000008152600401620018419062002d90565b60405180910390fd5b60008484336040516200185d9062002533565b6200186b9392919062002f82565b604051809103906000f08015801562001888573d6000803e3d6000fd5b509050600660003373ffffffffffffffffffffffffffffffffffffffff1673ffffffffffffffffffffffffffffffffffffffff168152602001908152602001600020819080600181540180825580915050600190039060005260206000200160009091909190916101000a81548173ffffffffffffffffffffffffffffffffffffffff021916908373ffffffffffffffffffffffffffffffffffffffff1602179055506001600a60003373ffffffffffffffffffffffffffffffffffffffff1673ffffffffffffffffffffffffffffffffffffffff16815260200190815260200160002060008673ffffffffffffffffffffffffffffffffffffffff1673ffffffffffffffffffffffffffffffffffffffff16815260200190815260200160002060006101000a81548160ff021916908315150217905550809250505092915050565b6060600760008373ffffffffffffffffffffffffffffffffffffffff1673ffffffffffffffffffffffffffffffffffffffff16815260200190815260200160002080548060200260200160405190810160405280929190818152602001828054801562001a8e57602002820191906000526020600020905b8160009054906101000a900473ffffffffffffffffffffffffffffffffffffffff1673ffffffffffffffffffffffffffffffffffffffff168152602001906001019080831162001a43575b50505050509050919050565b6000600360008373ffffffffffffffffffffffffffffffffffffffff1673ffffffffffffffffffffffffffffffffffffffff16815260200190815260200160002060009054906101000a900460ff169050919050565b600060011515600360003373ffffffffffffffffffffffffffffffffffffffff1673ffffffffffffffffffffffffffffffffffffffff16815260200190815260200160002060009054906101000a900460ff1615151462001b88576040517f08c379a000000000000000000000000000000000000000000000000000000000815260040162001b7f9062002aa9565b60405180910390fd5b60008054906101000a900473ffffffffffffffffffffffffffffffffffffffff1673ffffffffffffffffffffffffffffffffffffffff166339f920ab336040518263ffffffff1660e01b815260040162001be39190620027c4565b602060405180830381865afa15801562001c01573d6000803e3d6000fd5b505050506040513d601f19601f8201168201806040525081019062001c27919062002afc565b62001c69576040517f08c379a000000000000000000000000000000000000000000000000000000000815260040162001c609062002ba4565b60405180910390fd5b60028060ff1660008054906101000a900473ffffffffffffffffffffffffffffffffffffffff1673ffffffffffffffffffffffffffffffffffffffff1663b7caec87336040518263ffffffff1660e01b815260040162001cca9190620027c4565b602060405180830381865afa15801562001ce8573d6000803e3d6000fd5b505050506040513d601f19601f8201168201806040525081019062001d0e919062002c04565b60ff16101562001d55576040517f08c379a000000000000000000000000000000000000000000000000000000000815260040162001d4c9062002cac565b60405180910390fd5b600860003373ffffffffffffffffffffffffffffffffffffffff1673ffffffffffffffffffffffffffffffffffffffff16815260200190815260200160002060008473ffffffffffffffffffffffffffffffffffffffff1673ffffffffffffffffffffffffffffffffffffffff16815260200190815260200160002060009054906101000a900460ff161562001e22576040517f08c379a000000000000000000000000000000000000000000000000000000000815260040162001e199062002d90565b60405180910390fd5b600084843360405162001e359062002541565b62001e439392919062002f82565b604051809103906000f08015801562001e60573d6000803e3d6000fd5b509050600460003373ffffffffffffffffffffffffffffffffffffffff1673ffffffffffffffffffffffffffffffffffffffff168152602001908152602001600020819080600181540180825580915050600190039060005260206000200160009091909190916101000a81548173ffffffffffffffffffffffffffffffffffffffff021916908373ffffffffffffffffffffffffffffffffffffffff1602179055506001600860003373ffffffffffffffffffffffffffffffffffffffff1673ffffffffffffffffffffffffffffffffffffffff16815260200190815260200160002060008673ffffffffffffffffffffffffffffffffffffffff1673ffffffffffffffffffffffffffffffffffffffff16815260200190815260200160002060006101000a81548160ff021916908315150217905550809250505092915050565b600060011515600360003373ffffffffffffffffffffffffffffffffffffffff1673ffffffffffffffffffffffffffffffffffffffff16815260200190815260200160002060009054906101000a900460ff161515146200203b576040517f08c379a0000000000000000000000000000000000000000000000000000000008152600401620020329062002aa9565b60405180910390fd5b60008054906101000a900473ffffffffffffffffffffffffffffffffffffffff1673ffffffffffffffffffffffffffffffffffffffff166339f920ab336040518263ffffffff1660e01b8152600401620020969190620027c4565b602060405180830381865afa158015620020b4573d6000803e3d6000fd5b505050506040513d601f19601f82011682018060405250810190620020da919062002afc565b6200211c576040517f08c379a0000000000000000000000000000000000000000000000000000000008152600401620021139062002ba4565b60405180910390fd5b60018060ff1660008054906101000a900473ffffffffffffffffffffffffffffffffffffffff1673ffffffffffffffffffffffffffffffffffffffff1663b7caec87336040518263ffffffff1660e01b81526004016200217d9190620027c4565b602060405180830381865afa1580156200219b573d6000803e3d6000fd5b505050506040513d601f19601f82011682018060405250810190620021c1919062002c04565b60ff16101562002208576040517f08c379a0000000000000000000000000000000000000000000000000000000008152600401620021ff9062002cac565b60405180910390fd5b600960003373ffffffffffffffffffffffffffffffffffffffff1673ffffffffffffffffffffffffffffffffffffffff16815260200190815260200160002060008473ffffffffffffffffffffffffffffffffffffffff1673ffffffffffffffffffffffffffffffffffffffff16815260200190815260200160002060009054906101000a900460ff1615620022d5576040517f08c379a0000000000000000000000000000000000000000000000000000000008152600401620022cc9062002d90565b60405180910390fd5b6000848433604051620022e8906200254f565b620022f69392919062002f82565b604051809103906000f08015801562002313573d6000803e3d6000fd5b509050600560003373ffffffffffffffffffffffffffffffffffffffff1673ffffffffffffffffffffffffffffffffffffffff168152602001908152602001600020819080600181540180825580915050600190039060005260206000200160009091909190916101000a81548173ffffffffffffffffffffffffffffffffffffffff021916908373ffffffffffffffffffffffffffffffffffffffff1602179055506001600960003373ffffffffffffffffffffffffffffffffffffffff1673ffffffffffffffffffffffffffffffffffffffff16815260200190815260200160002060008673ffffffffffffffffffffffffffffffffffffffff1673ffffffffffffffffffffffffffffffffffffffff16815260200190815260200160002060006101000a81548160ff021916908315150217905550809250505092915050565b6060600560008373ffffffffffffffffffffffffffffffffffffffff1673ffffffffffffffffffffffffffffffffffffffff1681526020019081526020016000208054806020026020016040519081016040528092919081815260200182805480156200251957602002820191906000526020600020905b8160009054906101000a900473ffffffffffffffffffffffffffffffffffffffff1673ffffffffffffffffffffffffffffffffffffffff1681526020019060010190808311620024ce575b50505050509050919050565b6169e78062002fc783390190565b61748c80620099ae83390190565b6163528062010e3a83390190565b6161b3806201718c83390190565b6000604051905090565b600080fd5b600080fd5b600080fd5b600080fd5b6000601f19601f8301169050919050565b7f4e487b7100000000000000000000000000000000000000000000000000000000600052604160045260246000fd5b620025c6826200257b565b810181811067ffffffffffffffff82111715620025e857620025e76200258c565b5b80604052505050565b6000620025fd6200255d565b90506200260b8282620025bb565b919050565b600067ffffffffffffffff8211156200262e576200262d6200258c565b5b62002639826200257b565b9050602081019050919050565b82818337600083830152505050565b60006200266c620026668462002610565b620025f1565b9050828152602081018484840111156200268b576200268a62002576565b5b6200269884828562002646565b509392505050565b600082601f830112620026b857620026b762002571565b5b8135620026ca84826020860162002655565b91505092915050565b600073ffffffffffffffffffffffffffffffffffffffff82169050919050565b60006200270082620026d3565b9050919050565b6200271281620026f3565b81146200271e57600080fd5b50565b600081359050620027328162002707565b92915050565b60008060006060848603121562002754576200275362002567565b5b600084013567ffffffffffffffff8111156200277557620027746200256c565b5b6200278386828701620026a0565b9350506020620027968682870162002721565b9250506040620027a98682870162002721565b9150509250925092565b620027be81620026f3565b82525050565b6000602082019050620027db6000830184620027b3565b92915050565b600081519050919050565b600082825260208201905092915050565b6000819050602082019050919050565b6200281881620026f3565b82525050565b60006200282c83836200280d565b60208301905092915050565b6000602082019050919050565b60006200285282620027e1565b6200285e8185620027ec565b93506200286b83620027fd565b8060005b83811015620028a25781516200288688826200281e565b9750620028938362002838565b9250506001810190506200286f565b5085935050505092915050565b60006020820190508181036000830152620028cb818462002845565b905092915050565b600080600060608486031215620028ef57620028ee62002567565b5b6000620028ff8682870162002721565b9350506020620029128682870162002721565b9250506040620029258682870162002721565b9150509250925092565b60008115159050919050565b62002946816200292f565b82525050565b60006020820190506200296360008301846200293b565b92915050565b60006020828403121562002982576200298162002567565b5b6000620029928482850162002721565b91505092915050565b60008060408385031215620029b557620029b462002567565b5b6000620029c58582860162002721565b9250506020620029d88582860162002721565b9150509250929050565b60008060408385031215620029fc57620029fb62002567565b5b600083013567ffffffffffffffff81111562002a1d5762002a1c6200256c565b5b62002a2b85828601620026a0565b925050602062002a3e8582860162002721565b9150509250929050565b600082825260208201905092915050565b7f43616c6c6572206973206e6f7420726567697374657265640000000000000000600082015250565b600062002a9160188362002a48565b915062002a9e8262002a59565b602082019050919050565b6000602082019050818103600083015262002ac48162002a82565b9050919050565b62002ad6816200292f565b811462002ae257600080fd5b50565b60008151905062002af68162002acb565b92915050565b60006020828403121562002b155762002b1462002567565b5b600062002b258482850162002ae5565b91505092915050565b7f43616c6c657220726571756972657320616e2061637469766520536f756c426f60008201527f756e6420546f6b656e0000000000000000000000000000000000000000000000602082015250565b600062002b8c60298362002a48565b915062002b998262002b2e565b604082019050919050565b6000602082019050818103600083015262002bbf8162002b7d565b9050919050565b600060ff82169050919050565b62002bde8162002bc6565b811462002bea57600080fd5b50565b60008151905062002bfe8162002bd3565b92915050565b60006020828403121562002c1d5762002c1c62002567565b5b600062002c2d8482850162002bed565b91505092915050565b7f43616c6c657220646f6573206e6f7420686176652076616c696420616363657360008201527f7320746965720000000000000000000000000000000000000000000000000000602082015250565b600062002c9460268362002a48565b915062002ca18262002c36565b604082019050919050565b6000602082019050818103600083015262002cc78162002c85565b9050919050565b7f50726963652066656564287329206e6f7420617661696c61626c650000000000600082015250565b600062002d06601b8362002a48565b915062002d138262002cce565b602082019050919050565b6000602082019050818103600083015262002d398162002cf7565b9050919050565b7f466163746f727920697320616c726561647920696e697469616c697a65640000600082015250565b600062002d78601e8362002a48565b915062002d858262002d40565b602082019050919050565b6000602082019050818103600083015262002dab8162002d69565b9050919050565b600081519050919050565b60005b8381101562002ddd57808201518184015260208101905062002dc0565b60008484015250505050565b600062002df68262002db2565b62002e02818562002a48565b935062002e1481856020860162002dbd565b62002e1f816200257b565b840191505092915050565b600060c082019050818103600083015262002e46818962002de9565b905062002e576020830188620027b3565b62002e666040830187620027b3565b62002e756060830186620027b3565b62002e846080830185620027b3565b62002e9360a0830184620027b3565b979650505050505050565b7f43616c6c657220697320616c7265616479207265676973746572656400000000600082015250565b600062002ed6601c8362002a48565b915062002ee38262002e9e565b602082019050919050565b6000602082019050818103600083015262002f098162002ec7565b9050919050565b7f43616c6c6572206973206e6f7420746865206f776e6572000000000000000000600082015250565b600062002f4860178362002a48565b915062002f558262002f10565b602082019050919050565b6000602082019050818103600083015262002f7b8162002f39565b9050919050565b6000606082019050818103600083015262002f9e818662002de9565b905062002faf6020830185620027b3565b62002fbe6040830184620027b3565b94935050505056fe60e060405260006005553480156200001657600080fd5b50604051620069e7380380620069e783398181016040528101906200003c919062000386565b856200004e816200017960201b60201c565b508073ffffffffffffffffffffffffffffffffffffffff1660808173ffffffffffffffffffffffffffffffffffffffff16815250508473ffffffffffffffffffffffffffffffffffffffff1660a08173ffffffffffffffffffffffffffffffffffffffff16815250508373ffffffffffffffffffffffffffffffffffffffff1660c08173ffffffffffffffffffffffffffffffffffffffff168152505082600360006101000a81548173ffffffffffffffffffffffffffffffffffffffff021916908373ffffffffffffffffffffffffffffffffffffffff16021790555081600460006101000a81548173ffffffffffffffffffffffffffffffffffffffff021916908373ffffffffffffffffffffffffffffffffffffffff16021790555050505050505062000773565b80600290816200018a91906200068c565b5050565b6000604051905090565b600080fd5b600080fd5b600080fd5b600080fd5b6000601f19601f8301169050919050565b7f4e487b7100000000000000000000000000000000000000000000000000000000600052604160045260246000fd5b620001f782620001ac565b810181811067ffffffffffffffff82111715620002195762000218620001bd565b5b80604052505050565b60006200022e6200018e565b90506200023c8282620001ec565b919050565b600067ffffffffffffffff8211156200025f576200025e620001bd565b5b6200026a82620001ac565b9050602081019050919050565b60005b83811015620002975780820151818401526020810190506200027a565b60008484015250505050565b6000620002ba620002b48462000241565b62000222565b905082815260208101848484011115620002d957620002d8620001a7565b5b620002e684828562000277565b509392505050565b600082601f830112620003065762000305620001a2565b5b815162000318848260208601620002a3565b91505092915050565b600073ffffffffffffffffffffffffffffffffffffffff82169050919050565b60006200034e8262000321565b9050919050565b620003608162000341565b81146200036c57600080fd5b50565b600081519050620003808162000355565b92915050565b60008060008060008060c08789031215620003a657620003a562000198565b5b600087015167ffffffffffffffff811115620003c757620003c66200019d565b5b620003d589828a01620002ee565b9650506020620003e889828a016200036f565b9550506040620003fb89828a016200036f565b94505060606200040e89828a016200036f565b93505060806200042189828a016200036f565b92505060a06200043489828a016200036f565b9150509295509295509295565b600081519050919050565b7f4e487b7100000000000000000000000000000000000000000000000000000000600052602260045260246000fd5b600060028204905060018216806200049457607f821691505b602082108103620004aa57620004a96200044c565b5b50919050565b60008190508160005260206000209050919050565b60006020601f8301049050919050565b600082821b905092915050565b600060088302620005147fffffffffffffffffffffffffffffffffffffffffffffffffffffffffffffffff82620004d5565b620005208683620004d5565b95508019841693508086168417925050509392505050565b6000819050919050565b6000819050919050565b60006200056d62000567620005618462000538565b62000542565b62000538565b9050919050565b6000819050919050565b62000589836200054c565b620005a1620005988262000574565b848454620004e2565b825550505050565b600090565b620005b8620005a9565b620005c58184846200057e565b505050565b5b81811015620005ed57620005e1600082620005ae565b600181019050620005cb565b5050565b601f8211156200063c576200060681620004b0565b6200061184620004c5565b8101602085101562000621578190505b620006396200063085620004c5565b830182620005ca565b50505b505050565b600082821c905092915050565b6000620006616000198460080262000641565b1980831691505092915050565b60006200067c83836200064e565b9150826002028217905092915050565b620006978262000441565b67ffffffffffffffff811115620006b357620006b2620001bd565b5b620006bf82546200047b565b620006cc828285620005f1565b600060209050601f831160018114620007045760008415620006ef578287015190505b620006fb85826200066e565b8655506200076b565b601f1984166200071486620004b0565b60005b828110156200073e5784890151825560018201915060208501945060208101905062000717565b868310156200075e57848901516200075a601f8916826200064e565b8355505b6001600288020188555050505b505050505050565b60805160a05160c0516161e262000805600039600081816116a80152818161183301528181611d0301528181611f980152818161240301528181612ab70152612cb2015260008181610f96015281816114db01528181611c6401528181611ef9015281816121bd0152612dfd015260008181610d9d015281816124e60152818161295d0152612b5c01526161e26000f3fe608060405234801561001057600080fd5b50600436106102735760003560e01c80637a41984b11610151578063abac75e1116100c3578063d3b7811b11610087578063d3b7811b146108a6578063e2bbb158146108d6578063e755ddd7146108f2578063e985e9c51461090e578063f0f3d7de1461093e578063f242432a1461095c57610273565b8063abac75e1146107d4578063b09f2b1c14610804578063c0a6026c14610820578063c7bc57301461083c578063d32fe02e1461086c57610273565b80638f0dbf77116101155780638f0dbf77146106f0578063932a8de014610720578063a22cb46514610750578063a87430221461076c578063a996ef0814610788578063aa81106c146107a457610273565b80637a41984b146106265780637bf24456146106565780637cbc23731461067457806382afd23b1461069057806388bdc083146106c057610273565b8063441a3e70116101ea57806364893aaf116101ae57806364893aaf1461052c578063697e8c8c1461055c5780636ff80d931461058c57806370876c98146105bc578063769d96eb146105d857806377e2a08b146105f657610273565b8063441a3e70146104745780634556e49b146104905780634e1273f4146104ae578063549493bb146104de578063634ef3031461050e57610273565b806314f294931161023c57806314f29493146103685780632eb2c2d6146103985780632f2c6b32146103b45780632f3ad61f146103e45780633097afb81461041457806339e3af9b1461044457610273565b8062fdd58e1461027857806301ffc9a7146102a857806308913ce8146102d857806309149020146103085780630e89341c14610338575b600080fd5b610292600480360381019061028d9190613fce565b610978565b60405161029f919061401d565b60405180910390f35b6102c260048036038101906102bd9190614090565b610a40565b6040516102cf91906140d8565b60405180910390f35b6102f260048036038101906102ed91906140f3565b610b22565b6040516102ff919061401d565b60405180910390f35b610322600480360381019061031d91906140f3565b610b4d565b60405161032f91906140d8565b60405180910390f35b610352600480360381019061034d91906140f3565b610b83565b60405161035f91906141b0565b60405180910390f35b610382600480360381019061037d91906140f3565b610c17565b60405161038f919061401d565b60405180910390f35b6103b260048036038101906103ad91906143cf565b610c55565b005b6103ce60048036038101906103c991906140f3565b610cf6565b6040516103db919061401d565b60405180910390f35b6103fe60048036038101906103f991906140f3565b610d13565b60405161040b91906140d8565b60405180910390f35b61042e600480360381019061042991906140f3565b610d3d565b60405161043b91906140d8565b60405180910390f35b61045e600480360381019061045991906140f3565b610d76565b60405161046b91906140d8565b60405180910390f35b61048e6004803603810190610489919061449e565b610d9b565b005b610498611037565b6040516104a5919061401d565b60405180910390f35b6104c860048036038101906104c391906145a1565b611067565b6040516104d591906146d7565b60405180910390f35b6104f860048036038101906104f391906140f3565b611180565b60405161050591906140d8565b60405180910390f35b6105166111b2565b6040516105239190614712565b60405180910390f35b610546600480360381019061054191906140f3565b611253565b604051610553919061401d565b60405180910390f35b610576600480360381019061057191906140f3565b611270565b604051610583919061401d565b60405180910390f35b6105a660048036038101906105a191906140f3565b61128d565b6040516105b391906140d8565b60405180910390f35b6105d660048036038101906105d1919061449e565b6112c5565b005b6105e0611580565b6040516105ed9190614712565b60405180910390f35b610610600480360381019061060b91906140f3565b611621565b60405161061d919061401d565b60405180910390f35b610640600480360381019061063b91906140f3565b61167a565b60405161064d91906140d8565b60405180910390f35b61065e6116a4565b60405161066b919061401d565b60405180910390f35b61068e6004803603810190610689919061449e565b611745565b005b6106aa60048036038101906106a591906140f3565b6118ff565b6040516106b791906140d8565b60405180910390f35b6106da60048036038101906106d591906140f3565b611922565b6040516106e7919061401d565b60405180910390f35b61070a600480360381019061070591906140f3565b611955565b60405161071791906140d8565b60405180910390f35b61073a600480360381019061073591906140f3565b611977565b604051610747919061401d565b60405180910390f35b61076a60048036038101906107659190614759565b6119b5565b005b610786600480360381019061078191906140f3565b6119cb565b005b6107a2600480360381019061079d919061449e565b611de8565b005b6107be60048036038101906107b991906140f3565b61208f565b6040516107cb919061401d565b60405180910390f35b6107ee60048036038101906107e991906140f3565b6120ac565b6040516107fb919061401d565b60405180910390f35b61081e6004803603810190610819919061449e565b6120cc565b005b61083a600480360381019061083591906140f3565b612289565b005b610856600480360381019061085191906147f4565b6124e2565b604051610863919061401d565b60405180910390f35b610886600480360381019061088191906140f3565b61279e565b60405161089d9b9a999897969594939291906148e6565b60405180910390f35b6108c060048036038101906108bb91906140f3565b612928565b6040516108cd919061401d565b60405180910390f35b6108f060048036038101906108eb919061449e565b61295b565b005b61090c600480360381019061090791906140f3565b612b5a565b005b61092860048036038101906109239190614998565b612d65565b60405161093591906140d8565b60405180910390f35b610946612df9565b604051610953919061401d565b60405180910390f35b610976600480360381019061097191906149d8565b612e9a565b005b60008073ffffffffffffffffffffffffffffffffffffffff168373ffffffffffffffffffffffffffffffffffffffff16036109e8576040517f08c379a00000000000000000000000000000000000000000000000000000000081526004016109df90614ae1565b60405180910390fd5b60008083815260200190815260200160002060008473ffffffffffffffffffffffffffffffffffffffff1673ffffffffffffffffffffffffffffffffffffffff16815260200190815260200160002054905092915050565b60007fd9b67a26000000000000000000000000000000000000000000000000000000007bffffffffffffffffffffffffffffffffffffffffffffffffffffffff1916827bffffffffffffffffffffffffffffffffffffffffffffffffffffffff19161480610b0b57507f0e89341c000000000000000000000000000000000000000000000000000000007bffffffffffffffffffffffffffffffffffffffffffffffffffffffff1916827bffffffffffffffffffffffffffffffffffffffffffffffffffffffff1916145b80610b1b5750610b1a82612f3b565b5b9050919050565b6000600660008381526020019081526020016000206003015442610b469190614b30565b9050919050565b60006006600083815260200190815260200160002060090154600760008481526020019081526020016000205410159050919050565b606060028054610b9290614b93565b80601f0160208091040260200160405190810160405280929190818152602001828054610bbe90614b93565b8015610c0b5780601f10610be057610100808354040283529160200191610c0b565b820191906000526020600020905b815481529060010190602001808311610bee57829003601f168201915b50505050509050919050565b600060076000838152602001908152602001600020546006600084815260200190815260200160002060020154610c4e9190614bc4565b9050919050565b610c5d612fa5565b73ffffffffffffffffffffffffffffffffffffffff168573ffffffffffffffffffffffffffffffffffffffff161480610ca35750610ca285610c9d612fa5565b612d65565b5b610ce2576040517f08c379a0000000000000000000000000000000000000000000000000000000008152600401610cd990614c78565b60405180910390fd5b610cef8585858585612fad565b5050505050565b600060096000838152602001908152602001600020549050919050565b6000600e600083815260200190815260200160002060009054906101000a900460ff169050919050565b6000610d4882611955565b8015610d6f5750610d5882611621565b600a60008481526020019081526020016000205410155b9050919050565b6000610d81826118ff565b158015610d945750610d9282610b4d565b155b9050919050565b7f000000000000000000000000000000000000000000000000000000000000000073ffffffffffffffffffffffffffffffffffffffff163373ffffffffffffffffffffffffffffffffffffffff1614610e29576040517f08c379a0000000000000000000000000000000000000000000000000000000008152600401610e2090614ce4565b60405180910390fd5b610e32826118ff565b15610e72576040517f08c379a0000000000000000000000000000000000000000000000000000000008152600401610e6990614d50565b60405180910390fd5b610e7b82610d76565b15610ebb576040517f08c379a0000000000000000000000000000000000000000000000000000000008152600401610eb290614d50565b60405180910390fd5b610ec482610d13565b80610ed45750610ed38261128d565b5b15610f14576040517f08c379a0000000000000000000000000000000000000000000000000000000008152600401610f0b90614de2565b60405180910390fd5b6009600083815260200190815260200160002054811115610f6a576040517f08c379a0000000000000000000000000000000000000000000000000000000008152600401610f6190614e74565b60405180910390fd5b80600960008481526020019081526020016000206000828254610f8d9190614b30565b925050819055507f000000000000000000000000000000000000000000000000000000000000000073ffffffffffffffffffffffffffffffffffffffff1663a9059cbb33836040518363ffffffff1660e01b8152600401610fef929190614ea3565b6020604051808303816000875af115801561100e573d6000803e3d6000fd5b505050506040513d601f19601f820116820180604052508101906110329190614ee1565b505050565b6000611041611580565b633b9aca0061104e6111b2565b6110589190614bc4565b6110629190614f3d565b905090565b606081518351146110ad576040517f08c379a00000000000000000000000000000000000000000000000000000000081526004016110a490614fe0565b60405180910390fd5b6000835167ffffffffffffffff8111156110ca576110c96141d7565b5b6040519080825280602002602001820160405280156110f85781602001602082028036833780820191505090505b50905060005b84518110156111755761114585828151811061111d5761111c615000565b5b602002602001015185838151811061113857611137615000565b5b6020026020010151610978565b82828151811061115857611157615000565b5b6020026020010181815250508061116e9061502f565b90506110fe565b508091505092915050565b600060076000838152602001908152602001600020546008600084815260200190815260200160002054149050919050565b600080600360009054906101000a900473ffffffffffffffffffffffffffffffffffffffff1673ffffffffffffffffffffffffffffffffffffffff1663feaf968c6040518163ffffffff1660e01b815260040160a060405180830381865afa158015611222573d6000803e3d6000fd5b505050506040513d601f19601f8201168201806040525081019061124691906150fa565b5050509150508091505090565b6000600a6000838152602001908152602001600020549050919050565b600060096000838152602001908152602001600020549050919050565b600061129882611955565b80156112be57506112a882611621565b600a600084815260200190815260200160002054105b9050919050565b6112ce826118ff565b61130d576040517f08c379a0000000000000000000000000000000000000000000000000000000008152600401611304906151c1565b60405180910390fd5b8061131783611977565b1015611358576040517f08c379a000000000000000000000000000000000000000000000000000000000815260040161134f90615253565b60405180910390fd5b6000600660008481526020019081526020016000206040518061016001604052908160008201805461138990614b93565b80601f01602080910402602001604051908101604052809291908181526020018280546113b590614b93565b80156114025780601f106113d757610100808354040283529160200191611402565b820191906000526020600020905b8154815290600101906020018083116113e557829003601f168201915b50505050508152602001600182015481526020016002820154815260200160038201548152602001600482015481526020016005820154815260200160068201548152602001600782015481526020016008820154815260200160098201548152602001600a82015481525050905060008160200151836114839190614bc4565b9050826007600086815260200190815260200160002060008282546114a89190615273565b92505081905550806009600086815260200190815260200160002060008282546114d29190615273565b925050819055507f000000000000000000000000000000000000000000000000000000000000000073ffffffffffffffffffffffffffffffffffffffff166323b872dd3330846040518463ffffffff1660e01b8152600401611536939291906152a7565b6020604051808303816000875af1158015611555573d6000803e3d6000fd5b505050506040513d601f19601f820116820180604052508101906115799190614ee1565b5050505050565b600080600460009054906101000a900473ffffffffffffffffffffffffffffffffffffffff1673ffffffffffffffffffffffffffffffffffffffff1663feaf968c6040518163ffffffff1660e01b815260040160a060405180830381865afa1580156115f0573d6000803e3d6000fd5b505050506040513d601f19601f8201168201806040525081019061161491906150fa565b5050509150508091505090565b6000670de0b6b3a764000060066000848152602001908152602001600020600a015461164c84610c17565b6116569190614bc4565b6116609190614f3d565b61166983610c17565b6116739190615273565b9050919050565b6000600f600083815260200190815260200160002060009054906101000a900460ff169050919050565b60007f000000000000000000000000000000000000000000000000000000000000000073ffffffffffffffffffffffffffffffffffffffff166370a08231306040518263ffffffff1660e01b81526004016116ff91906152de565b602060405180830381865afa15801561171c573d6000803e3d6000fd5b505050506040513d601f19601f8201168201806040525081019061174091906152f9565b905090565b61174e8261167a565b61178d576040517f08c379a000000000000000000000000000000000000000000000000000000000815260040161178490615372565b60405180910390fd5b806117983384610978565b10156117d9576040517f08c379a00000000000000000000000000000000000000000000000000000000081526004016117d0906153de565b60405180910390fd5b6117e43383836132ce565b806008600084815260200190815260200160002060008282546118079190615273565b925050819055506000600d6000848152602001908152602001600020548261182f9190614bc4565b90507f000000000000000000000000000000000000000000000000000000000000000073ffffffffffffffffffffffffffffffffffffffff1663a9059cbb33836040518363ffffffff1660e01b815260040161188c929190614ea3565b6020604051808303816000875af11580156118ab573d6000803e3d6000fd5b505050506040513d601f19601f820116820180604052508101906118cf9190614ee1565b5080600a600085815260200190815260200160002060008282546118f39190614b30565b92505081905550505050565b600060066000838152602001908152602001600020600501544211159050919050565b600061192d82610b22565b600660008481526020019081526020016000206006015461194e9190614b30565b9050919050565b6000600660008381526020019081526020016000206004015442119050919050565b6000600760008381526020019081526020016000205460066000848152602001908152602001600020600801546119ae9190614b30565b9050919050565b6119c76119c0612fa5565b8383613514565b5050565b6119d48161167a565b1580156119e757506119e581610d13565b155b80156119f857506119f78161128d565b5b611a37576040517f08c379a0000000000000000000000000000000000000000000000000000000008152600401611a2e9061544a565b60405180910390fd5b6000611a4282611621565b905060006103e86009600085815260200190815260200160002054611a679190614f3d565b905060006103e8600a600086815260200190815260200160002054611a8c9190614f3d565b90506000826009600087815260200190815260200160002054611aaf9190614b30565b9050600082600a600088815260200190815260200160002054611ad29190614b30565b9050600760008781526020019081526020016000205482611af39190614f3d565b600b600088815260200190815260200160002081905550600760008781526020019081526020016000205481611b299190614f3d565b600c60008881526020019081526020016000208190555060006007600088815260200190815260200160002054600b600089815260200190815260200160002054611b749190614bc4565b83611b7f9190614b30565b905060006007600089815260200190815260200160002054600c60008a815260200190815260200160002054611bb59190614bc4565b83611bc09190614b30565b905060008287611bd09190615273565b905060008287611be09190615273565b905081600960008c81526020019081526020016000206000828254611c059190614b30565b9250508190555080600a60008c81526020019081526020016000206000828254611c2f9190614b30565b925050819055506001600e60008c815260200190815260200160002060006101000a81548160ff0219169083151502179055507f000000000000000000000000000000000000000000000000000000000000000073ffffffffffffffffffffffffffffffffffffffff1663a9059cbb33846040518363ffffffff1660e01b8152600401611cbd929190614ea3565b6020604051808303816000875af1158015611cdc573d6000803e3d6000fd5b505050506040513d601f19601f82011682018060405250810190611d009190614ee1565b507f000000000000000000000000000000000000000000000000000000000000000073ffffffffffffffffffffffffffffffffffffffff1663a9059cbb33836040518363ffffffff1660e01b8152600401611d5c929190614ea3565b6020604051808303816000875af1158015611d7b573d6000803e3d6000fd5b505050506040513d601f19601f82011682018060405250810190611d9f9190614ee1565b50897fcd2c25949e23ea2647ca2c5809b025ee3aca0d82cfcb1d22a715398f5cf8db8e8a8789604051611dd49392919061546a565b60405180910390a250505050505050505050565b611df182610d13565b611e30576040517f08c379a0000000000000000000000000000000000000000000000000000000008152600401611e279061544a565b60405180910390fd5b80611e3b3384610978565b1015611e7c576040517f08c379a0000000000000000000000000000000000000000000000000000000008152600401611e73906153de565b60405180910390fd5b611e873383836132ce565b80600860008481526020019081526020016000206000828254611eaa9190615273565b925050819055506000600b60008481526020019081526020016000205482611ed29190614bc4565b90506000600c60008581526020019081526020016000205483611ef59190614bc4565b90507f000000000000000000000000000000000000000000000000000000000000000073ffffffffffffffffffffffffffffffffffffffff1663a9059cbb33846040518363ffffffff1660e01b8152600401611f52929190614ea3565b6020604051808303816000875af1158015611f71573d6000803e3d6000fd5b505050506040513d601f19601f82011682018060405250810190611f959190614ee1565b507f000000000000000000000000000000000000000000000000000000000000000073ffffffffffffffffffffffffffffffffffffffff1663a9059cbb33836040518363ffffffff1660e01b8152600401611ff1929190614ea3565b6020604051808303816000875af1158015612010573d6000803e3d6000fd5b505050506040513d601f19601f820116820180604052508101906120349190614ee1565b50816009600086815260200190815260200160002060008282546120589190614b30565b9250508190555080600a600086815260200190815260200160002060008282546120829190614b30565b9250508190555050505050565b6000600a6000838152602001908152602001600020549050919050565b600060066000838152602001908152602001600020600a01549050919050565b6120d582610d76565b612114576040517f08c379a000000000000000000000000000000000000000000000000000000000815260040161210b906154ed565b60405180910390fd5b8061211f3384610978565b1015612160576040517f08c379a0000000000000000000000000000000000000000000000000000000008152600401612157906153de565b60405180910390fd5b61216b3383836132ce565b8060086000848152602001908152602001600020600082825461218e9190615273565b9250508190555060006006600084815260200190815260200160002060010154826121b99190614bc4565b90507f000000000000000000000000000000000000000000000000000000000000000073ffffffffffffffffffffffffffffffffffffffff1663a9059cbb33836040518363ffffffff1660e01b8152600401612216929190614ea3565b6020604051808303816000875af1158015612235573d6000803e3d6000fd5b505050506040513d601f19601f820116820180604052508101906122599190614ee1565b508060096000858152602001908152602001600020600082825461227d9190614b30565b92505081905550505050565b61229281610d13565b1580156122a557506122a38161167a565b155b80156122b657506122b581610d3d565b5b6122f5576040517f08c379a00000000000000000000000000000000000000000000000000000000081526004016122ec90615372565b60405180910390fd5b600061230082611621565b905060006103e8826123129190614f3d565b9050600081836123229190614b30565b90506007600085815260200190815260200160002054816123439190614f3d565b600d60008681526020019081526020016000208190555060006007600086815260200190815260200160002054600d60008781526020019081526020016000205461238e9190614bc4565b826123999190614b30565b9050600081846123a99190615273565b905080600a600088815260200190815260200160002060008282546123ce9190614b30565b925050819055506001600f600088815260200190815260200160002060006101000a81548160ff0219169083151502179055507f000000000000000000000000000000000000000000000000000000000000000073ffffffffffffffffffffffffffffffffffffffff1663a9059cbb33836040518363ffffffff1660e01b815260040161245c929190614ea3565b6020604051808303816000875af115801561247b573d6000803e3d6000fd5b505050506040513d601f19601f8201168201806040525081019061249f9190614ee1565b50857fac2eeaf45d1b75aed6b3285cda3efb3c382cce02ba313558bbb90be57f8843e486856040516124d292919061550d565b60405180910390a2505050505050565b60007f000000000000000000000000000000000000000000000000000000000000000073ffffffffffffffffffffffffffffffffffffffff163373ffffffffffffffffffffffffffffffffffffffff1614612572576040517f08c379a000000000000000000000000000000000000000000000000000000000815260040161256990614ce4565b60405180910390fd5b8484106125b4576040517f08c379a00000000000000000000000000000000000000000000000000000000081526004016125ab906155a8565b60405180910390fd5b60016005546125c39190615273565b90506125d133828c85613680565b60006125db611037565b90506000633b9aca008a836125f09190614bc4565b6125fa9190614f3d565b90506040518061016001604052808a8a8080601f016020809104026020016040519081016040528093929190818152602001838380828437600081840152601f19601f8201169050808301925050505050505081526020018b815260200182815260200142815260200162015180896126739190614bc4565b4261267e9190615273565b815260200162015180886126929190614bc4565b4261269d9190615273565b81526020018781526020018881526020018d81526020018c8152602001868152506006600085815260200190815260200160002060008201518160000190816126e69190615774565b506020820151816001015560408201518160020155606082015181600301556080820151816004015560a0820151816005015560c0820151816006015560e082015181600701556101008201518160080155610120820151816009015561014082015181600a0155905050827ff73e436c94925e1e8b2f0b16de0a2c56aea7fb27878f7815811bc05bc6c335e88d8c84896040516127879493929190615846565b60405180910390a250509998505050505050505050565b60606000806000806000806000806000806000600660008e8152602001908152602001600020604051806101600160405290816000820180546127e090614b93565b80601f016020809104026020016040519081016040528092919081815260200182805461280c90614b93565b80156128595780601f1061282e57610100808354040283529160200191612859565b820191906000526020600020905b81548152906001019060200180831161283c57829003601f168201915b50505050508152602001600182015481526020016002820154815260200160038201548152602001600482015481526020016005820154815260200160068201548152602001600782015481526020016008820154815260200160098201548152602001600a820154815250509050806000015181602001518260400151836060015184608001518560a001518660c001518760e001518861010001518961012001518a61014001519b509b509b509b509b509b509b509b509b509b509b505091939597999b90929496989a50565b600061293382610b22565b60066000848152602001908152602001600020600701546129549190614b30565b9050919050565b7f000000000000000000000000000000000000000000000000000000000000000073ffffffffffffffffffffffffffffffffffffffff163373ffffffffffffffffffffffffffffffffffffffff16146129e9576040517f08c379a00000000000000000000000000000000000000000000000000000000081526004016129e090614ce4565b60405180910390fd5b6129f282610d13565b80612a025750612a018261128d565b5b15612a42576040517f08c379a0000000000000000000000000000000000000000000000000000000008152600401612a39906158d7565b60405180910390fd5b612a4b8261167a565b15612a8b576040517f08c379a0000000000000000000000000000000000000000000000000000000008152600401612a8290615943565b60405180910390fd5b80600a60008481526020019081526020016000206000828254612aae9190615273565b925050819055507f000000000000000000000000000000000000000000000000000000000000000073ffffffffffffffffffffffffffffffffffffffff166323b872dd3330846040518463ffffffff1660e01b8152600401612b12939291906152a7565b6020604051808303816000875af1158015612b31573d6000803e3d6000fd5b505050506040513d601f19601f82011682018060405250810190612b559190614ee1565b505050565b7f000000000000000000000000000000000000000000000000000000000000000073ffffffffffffffffffffffffffffffffffffffff163373ffffffffffffffffffffffffffffffffffffffff1614612be8576040517f08c379a0000000000000000000000000000000000000000000000000000000008152600401612bdf90614ce4565b60405180910390fd5b612bf18161167a565b8015612c025750612c0181611180565b5b612c41576040517f08c379a0000000000000000000000000000000000000000000000000000000008152600401612c38906159af565b60405180910390fd5b6000600a60008381526020019081526020016000205411612c97576040517f08c379a0000000000000000000000000000000000000000000000000000000008152600401612c8e90615a1b565b60405180910390fd5b6000600a6000838152602001908152602001600020819055507f000000000000000000000000000000000000000000000000000000000000000073ffffffffffffffffffffffffffffffffffffffff1663a9059cbb33600a6000858152602001908152602001600020546040518363ffffffff1660e01b8152600401612d1e929190614ea3565b6020604051808303816000875af1158015612d3d573d6000803e3d6000fd5b505050506040513d601f19601f82011682018060405250810190612d619190614ee1565b5050565b6000600160008473ffffffffffffffffffffffffffffffffffffffff1673ffffffffffffffffffffffffffffffffffffffff16815260200190815260200160002060008373ffffffffffffffffffffffffffffffffffffffff1673ffffffffffffffffffffffffffffffffffffffff16815260200190815260200160002060009054906101000a900460ff16905092915050565b60007f000000000000000000000000000000000000000000000000000000000000000073ffffffffffffffffffffffffffffffffffffffff166370a08231306040518263ffffffff1660e01b8152600401612e5491906152de565b602060405180830381865afa158015612e71573d6000803e3d6000fd5b505050506040513d601f19601f82011682018060405250810190612e9591906152f9565b905090565b612ea2612fa5565b73ffffffffffffffffffffffffffffffffffffffff168573ffffffffffffffffffffffffffffffffffffffff161480612ee85750612ee785612ee2612fa5565b612d65565b5b612f27576040517f08c379a0000000000000000000000000000000000000000000000000000000008152600401612f1e90614c78565b60405180910390fd5b612f348585858585613830565b5050505050565b60007f01ffc9a7000000000000000000000000000000000000000000000000000000007bffffffffffffffffffffffffffffffffffffffffffffffffffffffff1916827bffffffffffffffffffffffffffffffffffffffffffffffffffffffff1916149050919050565b600033905090565b8151835114612ff1576040517f08c379a0000000000000000000000000000000000000000000000000000000008152600401612fe890615aad565b60405180910390fd5b600073ffffffffffffffffffffffffffffffffffffffff168473ffffffffffffffffffffffffffffffffffffffff1603613060576040517f08c379a000000000000000000000000000000000000000000000000000000000815260040161305790615b3f565b60405180910390fd5b600061306a612fa5565b905061307a818787878787613acb565b60005b845181101561322b57600085828151811061309b5761309a615000565b5b6020026020010151905060008583815181106130ba576130b9615000565b5b60200260200101519050600080600084815260200190815260200160002060008b73ffffffffffffffffffffffffffffffffffffffff1673ffffffffffffffffffffffffffffffffffffffff1681526020019081526020016000205490508181101561315b576040517f08c379a000000000000000000000000000000000000000000000000000000000815260040161315290615bd1565b60405180910390fd5b81810360008085815260200190815260200160002060008c73ffffffffffffffffffffffffffffffffffffffff1673ffffffffffffffffffffffffffffffffffffffff168152602001908152602001600020819055508160008085815260200190815260200160002060008b73ffffffffffffffffffffffffffffffffffffffff1673ffffffffffffffffffffffffffffffffffffffff16815260200190815260200160002060008282546132109190615273565b92505081905550505050806132249061502f565b905061307d565b508473ffffffffffffffffffffffffffffffffffffffff168673ffffffffffffffffffffffffffffffffffffffff168273ffffffffffffffffffffffffffffffffffffffff167f4a39dc06d4c0dbc64b70af90fd698a233a518aa5d07e595d983b8c0526c8f7fb87876040516132a2929190615bf1565b60405180910390a46132b8818787878787613ad3565b6132c6818787878787613adb565b505050505050565b600073ffffffffffffffffffffffffffffffffffffffff168373ffffffffffffffffffffffffffffffffffffffff160361333d576040517f08c379a000000000000000000000000000000000000000000000000000000000815260040161333490615c9a565b60405180910390fd5b6000613347612fa5565b9050600061335484613cb2565b9050600061336184613cb2565b905061338183876000858560405180602001604052806000815250613acb565b600080600087815260200190815260200160002060008873ffffffffffffffffffffffffffffffffffffffff1673ffffffffffffffffffffffffffffffffffffffff16815260200190815260200160002054905084811015613418576040517f08c379a000000000000000000000000000000000000000000000000000000000815260040161340f90615d2c565b60405180910390fd5b84810360008088815260200190815260200160002060008973ffffffffffffffffffffffffffffffffffffffff1673ffffffffffffffffffffffffffffffffffffffff16815260200190815260200160002081905550600073ffffffffffffffffffffffffffffffffffffffff168773ffffffffffffffffffffffffffffffffffffffff168573ffffffffffffffffffffffffffffffffffffffff167fc3d58168c5ae7397731d063d5bbf3d657854427343f4c083240f7aacaa2d0f6289896040516134e592919061550d565b60405180910390a461350b84886000868660405180602001604052806000815250613ad3565b50505050505050565b8173ffffffffffffffffffffffffffffffffffffffff168373ffffffffffffffffffffffffffffffffffffffff1603613582576040517f08c379a000000000000000000000000000000000000000000000000000000000815260040161357990615dbe565b60405180910390fd5b80600160008573ffffffffffffffffffffffffffffffffffffffff1673ffffffffffffffffffffffffffffffffffffffff16815260200190815260200160002060008473ffffffffffffffffffffffffffffffffffffffff1673ffffffffffffffffffffffffffffffffffffffff16815260200190815260200160002060006101000a81548160ff0219169083151502179055508173ffffffffffffffffffffffffffffffffffffffff168373ffffffffffffffffffffffffffffffffffffffff167f17307eab39ab6107e8899845ad3d59bd9653f200f220920489ca2b5937696c318360405161367391906140d8565b60405180910390a3505050565b600073ffffffffffffffffffffffffffffffffffffffff168473ffffffffffffffffffffffffffffffffffffffff16036136ef576040517f08c379a00000000000000000000000000000000000000000000000000000000081526004016136e690615e50565b60405180910390fd5b60006136f9612fa5565b9050600061370685613cb2565b9050600061371385613cb2565b905061372483600089858589613acb565b8460008088815260200190815260200160002060008973ffffffffffffffffffffffffffffffffffffffff1673ffffffffffffffffffffffffffffffffffffffff16815260200190815260200160002060008282546137839190615273565b925050819055508673ffffffffffffffffffffffffffffffffffffffff16600073ffffffffffffffffffffffffffffffffffffffff168473ffffffffffffffffffffffffffffffffffffffff167fc3d58168c5ae7397731d063d5bbf3d657854427343f4c083240f7aacaa2d0f62898960405161380192919061550d565b60405180910390a461381883600089858589613ad3565b61382783600089898989613d2c565b50505050505050565b600073ffffffffffffffffffffffffffffffffffffffff168473ffffffffffffffffffffffffffffffffffffffff160361389f576040517f08c379a000000000000000000000000000000000000000000000000000000000815260040161389690615b3f565b60405180910390fd5b60006138a9612fa5565b905060006138b685613cb2565b905060006138c385613cb2565b90506138d3838989858589613acb565b600080600088815260200190815260200160002060008a73ffffffffffffffffffffffffffffffffffffffff1673ffffffffffffffffffffffffffffffffffffffff1681526020019081526020016000205490508581101561396a576040517f08c379a000000000000000000000000000000000000000000000000000000000815260040161396190615bd1565b60405180910390fd5b85810360008089815260200190815260200160002060008b73ffffffffffffffffffffffffffffffffffffffff1673ffffffffffffffffffffffffffffffffffffffff168152602001908152602001600020819055508560008089815260200190815260200160002060008a73ffffffffffffffffffffffffffffffffffffffff1673ffffffffffffffffffffffffffffffffffffffff1681526020019081526020016000206000828254613a1f9190615273565b925050819055508773ffffffffffffffffffffffffffffffffffffffff168973ffffffffffffffffffffffffffffffffffffffff168573ffffffffffffffffffffffffffffffffffffffff167fc3d58168c5ae7397731d063d5bbf3d657854427343f4c083240f7aacaa2d0f628a8a604051613a9c92919061550d565b60405180910390a4613ab2848a8a86868a613ad3565b613ac0848a8a8a8a8a613d2c565b505050505050505050565b505050505050565b505050505050565b613afa8473ffffffffffffffffffffffffffffffffffffffff16613f03565b15613caa578373ffffffffffffffffffffffffffffffffffffffff1663bc197c8187878686866040518663ffffffff1660e01b8152600401613b40959493929190615ec5565b6020604051808303816000875af1925050508015613b7c57506040513d601f19601f82011682018060405250810190613b799190615f42565b60015b613c2157613b88615f7c565b806308c379a003613be45750613b9c615f9e565b80613ba75750613be6565b806040517f08c379a0000000000000000000000000000000000000000000000000000000008152600401613bdb91906141b0565b60405180910390fd5b505b6040517f08c379a0000000000000000000000000000000000000000000000000000000008152600401613c18906160a0565b60405180910390fd5b63bc197c8160e01b7bffffffffffffffffffffffffffffffffffffffffffffffffffffffff1916817bffffffffffffffffffffffffffffffffffffffffffffffffffffffff191614613ca8576040517f08c379a0000000000000000000000000000000000000000000000000000000008152600401613c9f90616132565b60405180910390fd5b505b505050505050565b60606000600167ffffffffffffffff811115613cd157613cd06141d7565b5b604051908082528060200260200182016040528015613cff5781602001602082028036833780820191505090505b5090508281600081518110613d1757613d16615000565b5b60200260200101818152505080915050919050565b613d4b8473ffffffffffffffffffffffffffffffffffffffff16613f03565b15613efb578373ffffffffffffffffffffffffffffffffffffffff1663f23a6e6187878686866040518663ffffffff1660e01b8152600401613d91959493929190616152565b6020604051808303816000875af1925050508015613dcd57506040513d601f19601f82011682018060405250810190613dca9190615f42565b60015b613e7257613dd9615f7c565b806308c379a003613e355750613ded615f9e565b80613df85750613e37565b806040517f08c379a0000000000000000000000000000000000000000000000000000000008152600401613e2c91906141b0565b60405180910390fd5b505b6040517f08c379a0000000000000000000000000000000000000000000000000000000008152600401613e69906160a0565b60405180910390fd5b63f23a6e6160e01b7bffffffffffffffffffffffffffffffffffffffffffffffffffffffff1916817bffffffffffffffffffffffffffffffffffffffffffffffffffffffff191614613ef9576040517f08c379a0000000000000000000000000000000000000000000000000000000008152600401613ef090616132565b60405180910390fd5b505b505050505050565b6000808273ffffffffffffffffffffffffffffffffffffffff163b119050919050565b6000604051905090565b600080fd5b600080fd5b600073ffffffffffffffffffffffffffffffffffffffff82169050919050565b6000613f6582613f3a565b9050919050565b613f7581613f5a565b8114613f8057600080fd5b50565b600081359050613f9281613f6c565b92915050565b6000819050919050565b613fab81613f98565b8114613fb657600080fd5b50565b600081359050613fc881613fa2565b92915050565b60008060408385031215613fe557613fe4613f30565b5b6000613ff385828601613f83565b925050602061400485828601613fb9565b9150509250929050565b61401781613f98565b82525050565b6000602082019050614032600083018461400e565b92915050565b60007fffffffff0000000000000000000000000000000000000000000000000000000082169050919050565b61406d81614038565b811461407857600080fd5b50565b60008135905061408a81614064565b92915050565b6000602082840312156140a6576140a5613f30565b5b60006140b48482850161407b565b91505092915050565b60008115159050919050565b6140d2816140bd565b82525050565b60006020820190506140ed60008301846140c9565b92915050565b60006020828403121561410957614108613f30565b5b600061411784828501613fb9565b91505092915050565b600081519050919050565b600082825260208201905092915050565b60005b8381101561415a57808201518184015260208101905061413f565b60008484015250505050565b6000601f19601f8301169050919050565b600061418282614120565b61418c818561412b565b935061419c81856020860161413c565b6141a581614166565b840191505092915050565b600060208201905081810360008301526141ca8184614177565b905092915050565b600080fd5b7f4e487b7100000000000000000000000000000000000000000000000000000000600052604160045260246000fd5b61420f82614166565b810181811067ffffffffffffffff8211171561422e5761422d6141d7565b5b80604052505050565b6000614241613f26565b905061424d8282614206565b919050565b600067ffffffffffffffff82111561426d5761426c6141d7565b5b602082029050602081019050919050565b600080fd5b600061429661429184614252565b614237565b905080838252602082019050602084028301858111156142b9576142b861427e565b5b835b818110156142e257806142ce8882613fb9565b8452602084019350506020810190506142bb565b5050509392505050565b600082601f830112614301576143006141d2565b5b8135614311848260208601614283565b91505092915050565b600080fd5b600067ffffffffffffffff82111561433a576143396141d7565b5b61434382614166565b9050602081019050919050565b82818337600083830152505050565b600061437261436d8461431f565b614237565b90508281526020810184848401111561438e5761438d61431a565b5b614399848285614350565b509392505050565b600082601f8301126143b6576143b56141d2565b5b81356143c684826020860161435f565b91505092915050565b600080600080600060a086880312156143eb576143ea613f30565b5b60006143f988828901613f83565b955050602061440a88828901613f83565b945050604086013567ffffffffffffffff81111561442b5761442a613f35565b5b614437888289016142ec565b935050606086013567ffffffffffffffff81111561445857614457613f35565b5b614464888289016142ec565b925050608086013567ffffffffffffffff81111561448557614484613f35565b5b614491888289016143a1565b9150509295509295909350565b600080604083850312156144b5576144b4613f30565b5b60006144c385828601613fb9565b92505060206144d485828601613fb9565b9150509250929050565b600067ffffffffffffffff8211156144f9576144f86141d7565b5b602082029050602081019050919050565b600061451d614518846144de565b614237565b905080838252602082019050602084028301858111156145405761453f61427e565b5b835b8181101561456957806145558882613f83565b845260208401935050602081019050614542565b5050509392505050565b600082601f830112614588576145876141d2565b5b813561459884826020860161450a565b91505092915050565b600080604083850312156145b8576145b7613f30565b5b600083013567ffffffffffffffff8111156145d6576145d5613f35565b5b6145e285828601614573565b925050602083013567ffffffffffffffff81111561460357614602613f35565b5b61460f858286016142ec565b9150509250929050565b600081519050919050565b600082825260208201905092915050565b6000819050602082019050919050565b61464e81613f98565b82525050565b60006146608383614645565b60208301905092915050565b6000602082019050919050565b600061468482614619565b61468e8185614624565b935061469983614635565b8060005b838110156146ca5781516146b18882614654565b97506146bc8361466c565b92505060018101905061469d565b5085935050505092915050565b600060208201905081810360008301526146f18184614679565b905092915050565b6000819050919050565b61470c816146f9565b82525050565b60006020820190506147276000830184614703565b92915050565b614736816140bd565b811461474157600080fd5b50565b6000813590506147538161472d565b92915050565b600080604083850312156147705761476f613f30565b5b600061477e85828601613f83565b925050602061478f85828601614744565b9150509250929050565b600080fd5b60008083601f8401126147b4576147b36141d2565b5b8235905067ffffffffffffffff8111156147d1576147d0614799565b5b6020830191508360018202830111156147ed576147ec61427e565b5b9250929050565b60008060008060008060008060006101008a8c03121561481757614816613f30565b5b60006148258c828d01613fb9565b99505060206148368c828d01613fb9565b98505060406148478c828d01613fb9565b97505060608a013567ffffffffffffffff81111561486857614867613f35565b5b6148748c828d0161479e565b965096505060806148878c828d01613fb9565b94505060a06148988c828d01613fb9565b93505060c06148a98c828d01613fb9565b92505060e08a013567ffffffffffffffff8111156148ca576148c9613f35565b5b6148d68c828d016143a1565b9150509295985092959850929598565b6000610160820190508181036000830152614901818e614177565b9050614910602083018d61400e565b61491d604083018c61400e565b61492a606083018b61400e565b614937608083018a61400e565b61494460a083018961400e565b61495160c083018861400e565b61495e60e083018761400e565b61496c61010083018661400e565b61497a61012083018561400e565b61498861014083018461400e565b9c9b505050505050505050505050565b600080604083850312156149af576149ae613f30565b5b60006149bd85828601613f83565b92505060206149ce85828601613f83565b9150509250929050565b600080600080600060a086880312156149f4576149f3613f30565b5b6000614a0288828901613f83565b9550506020614a1388828901613f83565b9450506040614a2488828901613fb9565b9350506060614a3588828901613fb9565b925050608086013567ffffffffffffffff811115614a5657614a55613f35565b5b614a62888289016143a1565b9150509295509295909350565b7f455243313135353a2061646472657373207a65726f206973206e6f742061207660008201527f616c6964206f776e657200000000000000000000000000000000000000000000602082015250565b6000614acb602a8361412b565b9150614ad682614a6f565b604082019050919050565b60006020820190508181036000830152614afa81614abe565b9050919050565b7f4e487b7100000000000000000000000000000000000000000000000000000000600052601160045260246000fd5b6000614b3b82613f98565b9150614b4683613f98565b9250828203905081811115614b5e57614b5d614b01565b5b92915050565b7f4e487b7100000000000000000000000000000000000000000000000000000000600052602260045260246000fd5b60006002820490506001821680614bab57607f821691505b602082108103614bbe57614bbd614b64565b5b50919050565b6000614bcf82613f98565b9150614bda83613f98565b9250828202614be881613f98565b91508282048414831517614bff57614bfe614b01565b5b5092915050565b7f455243313135353a2063616c6c6572206973206e6f7420746f6b656e206f776e60008201527f6572206f7220617070726f766564000000000000000000000000000000000000602082015250565b6000614c62602e8361412b565b9150614c6d82614c06565b604082019050919050565b60006020820190508181036000830152614c9181614c55565b9050919050565b7f43616c6c6572206973206e6f7420746865206f776e6572000000000000000000600082015250565b6000614cce60178361412b565b9150614cd982614c98565b602082019050919050565b60006020820190508181036000830152614cfd81614cc1565b9050919050565b7f5769746864726177206e6f7420616c6c6f776564207768656e20616374697665600082015250565b6000614d3a60208361412b565b9150614d4582614d04565b602082019050919050565b60006020820190508181036000830152614d6981614d2d565b9050919050565b7f5769746864726177206e6f7420616c6c6f776564207768656e2064656661756c60008201527f7465640000000000000000000000000000000000000000000000000000000000602082015250565b6000614dcc60238361412b565b9150614dd782614d70565b604082019050919050565b60006020820190508181036000830152614dfb81614dbf565b9050919050565b7f5769746864726177616c20746f6b656e20616d6f756e7420657863656564732060008201527f746f6b656e20616d6f756e7420696e20636f6e74726163740000000000000000602082015250565b6000614e5e60388361412b565b9150614e6982614e02565b604082019050919050565b60006020820190508181036000830152614e8d81614e51565b9050919050565b614e9d81613f5a565b82525050565b6000604082019050614eb86000830185614e94565b614ec5602083018461400e565b9392505050565b600081519050614edb8161472d565b92915050565b600060208284031215614ef757614ef6613f30565b5b6000614f0584828501614ecc565b91505092915050565b7f4e487b7100000000000000000000000000000000000000000000000000000000600052601260045260246000fd5b6000614f4882613f98565b9150614f5383613f98565b925082614f6357614f62614f0e565b5b828204905092915050565b7f455243313135353a206163636f756e747320616e6420696473206c656e67746860008201527f206d69736d617463680000000000000000000000000000000000000000000000602082015250565b6000614fca60298361412b565b9150614fd582614f6e565b604082019050919050565b60006020820190508181036000830152614ff981614fbd565b9050919050565b7f4e487b7100000000000000000000000000000000000000000000000000000000600052603260045260246000fd5b600061503a82613f98565b91507fffffffffffffffffffffffffffffffffffffffffffffffffffffffffffffffff820361506c5761506b614b01565b5b600182019050919050565b600069ffffffffffffffffffff82169050919050565b61509681615077565b81146150a157600080fd5b50565b6000815190506150b38161508d565b92915050565b6150c2816146f9565b81146150cd57600080fd5b50565b6000815190506150df816150b9565b92915050565b6000815190506150f481613fa2565b92915050565b600080600080600060a0868803121561511657615115613f30565b5b6000615124888289016150a4565b9550506020615135888289016150d0565b9450506040615146888289016150e5565b9350506060615157888289016150e5565b9250506080615168888289016150a4565b9150509295509295909350565b7f426f6e6420697320696e61637469766500000000000000000000000000000000600082015250565b60006151ab60108361412b565b91506151b682615175565b602082019050919050565b600060208201905081810360008301526151da8161519e565b9050919050565b7f496e73756666696369656e7420626f6e64207175616e746974792072656d616960008201527f6e696e6700000000000000000000000000000000000000000000000000000000602082015250565b600061523d60248361412b565b9150615248826151e1565b604082019050919050565b6000602082019050818103600083015261526c81615230565b9050919050565b600061527e82613f98565b915061528983613f98565b92508282019050808211156152a1576152a0614b01565b5b92915050565b60006060820190506152bc6000830186614e94565b6152c96020830185614e94565b6152d6604083018461400e565b949350505050565b60006020820190506152f36000830184614e94565b92915050565b60006020828403121561530f5761530e613f30565b5b600061531d848285016150e5565b91505092915050565b7f426f6e64206973206e6f7420636f6d706c657465640000000000000000000000600082015250565b600061535c60158361412b565b915061536782615326565b602082019050919050565b6000602082019050818103600083015261538b8161534f565b9050919050565b7f496e73756666696369656e7420626f6e64207175616e74697479000000000000600082015250565b60006153c8601a8361412b565b91506153d382615392565b602082019050919050565b600060208201905081810360008301526153f7816153bb565b9050919050565b7f426f6e64206973206e6f742064656661756c7465640000000000000000000000600082015250565b600061543460158361412b565b915061543f826153fe565b602082019050919050565b6000602082019050818103600083015261546381615427565b9050919050565b600060608201905061547f600083018661400e565b61548c602083018561400e565b615499604083018461400e565b949350505050565b7f426f6e64206973206e6f742063616e63656c6564000000000000000000000000600082015250565b60006154d760148361412b565b91506154e2826154a1565b602082019050919050565b60006020820190508181036000830152615506816154ca565b9050919050565b6000604082019050615522600083018561400e565b61552f602083018461400e565b9392505050565b7f416374697665206475726174696f6e2073686f756c642062652073686f72746560008201527f72207468616e206475726174696f6e0000000000000000000000000000000000602082015250565b6000615592602f8361412b565b915061559d82615536565b604082019050919050565b600060208201905081810360008301526155c181615585565b9050919050565b60008190508160005260206000209050919050565b60006020601f8301049050919050565b600082821b905092915050565b60006008830261562a7fffffffffffffffffffffffffffffffffffffffffffffffffffffffffffffffff826155ed565b61563486836155ed565b95508019841693508086168417925050509392505050565b6000819050919050565b600061567161566c61566784613f98565b61564c565b613f98565b9050919050565b6000819050919050565b61568b83615656565b61569f61569782615678565b8484546155fa565b825550505050565b600090565b6156b46156a7565b6156bf818484615682565b505050565b5b818110156156e3576156d86000826156ac565b6001810190506156c5565b5050565b601f821115615728576156f9816155c8565b615702846155dd565b81016020851015615711578190505b61572561571d856155dd565b8301826156c4565b50505b505050565b600082821c905092915050565b600061574b6000198460080261572d565b1980831691505092915050565b6000615764838361573a565b9150826002028217905092915050565b61577d82614120565b67ffffffffffffffff811115615796576157956141d7565b5b6157a08254614b93565b6157ab8282856156e7565b600060209050601f8311600181146157de57600084156157cc578287015190505b6157d68582615758565b86555061583e565b601f1984166157ec866155c8565b60005b82811015615814578489015182556001820191506020850194506020810190506157ef565b86831015615831578489015161582d601f89168261573a565b8355505b6001600288020188555050505b505050505050565b600060808201905061585b600083018761400e565b615868602083018661400e565b615875604083018561400e565b615882606083018461400e565b95945050505050565b7f626f6e642069732064656661756c746564000000000000000000000000000000600082015250565b60006158c160118361412b565b91506158cc8261588b565b602082019050919050565b600060208201905081810360008301526158f0816158b4565b9050919050565b7f626f6e6420697320636f6d706c65746564000000000000000000000000000000600082015250565b600061592d60118361412b565b9150615938826158f7565b602082019050919050565b6000602082019050818103600083015261595c81615920565b9050919050565b7f43616e6e6f742077697468647261772065786365737300000000000000000000600082015250565b600061599960168361412b565b91506159a482615963565b602082019050919050565b600060208201905081810360008301526159c88161598c565b9050919050565b7f43616e6e6f742077697468647261772066726f6d20656d70747920706f6f6c00600082015250565b6000615a05601f8361412b565b9150615a10826159cf565b602082019050919050565b60006020820190508181036000830152615a34816159f8565b9050919050565b7f455243313135353a2069647320616e6420616d6f756e7473206c656e6774682060008201527f6d69736d61746368000000000000000000000000000000000000000000000000602082015250565b6000615a9760288361412b565b9150615aa282615a3b565b604082019050919050565b60006020820190508181036000830152615ac681615a8a565b9050919050565b7f455243313135353a207472616e7366657220746f20746865207a65726f20616460008201527f6472657373000000000000000000000000000000000000000000000000000000602082015250565b6000615b2960258361412b565b9150615b3482615acd565b604082019050919050565b60006020820190508181036000830152615b5881615b1c565b9050919050565b7f455243313135353a20696e73756666696369656e742062616c616e636520666f60008201527f72207472616e7366657200000000000000000000000000000000000000000000602082015250565b6000615bbb602a8361412b565b9150615bc682615b5f565b604082019050919050565b60006020820190508181036000830152615bea81615bae565b9050919050565b60006040820190508181036000830152615c0b8185614679565b90508181036020830152615c1f8184614679565b90509392505050565b7f455243313135353a206275726e2066726f6d20746865207a65726f206164647260008201527f6573730000000000000000000000000000000000000000000000000000000000602082015250565b6000615c8460238361412b565b9150615c8f82615c28565b604082019050919050565b60006020820190508181036000830152615cb381615c77565b9050919050565b7f455243313135353a206275726e20616d6f756e7420657863656564732062616c60008201527f616e636500000000000000000000000000000000000000000000000000000000602082015250565b6000615d1660248361412b565b9150615d2182615cba565b604082019050919050565b60006020820190508181036000830152615d4581615d09565b9050919050565b7f455243313135353a2073657474696e6720617070726f76616c2073746174757360008201527f20666f722073656c660000000000000000000000000000000000000000000000602082015250565b6000615da860298361412b565b9150615db382615d4c565b604082019050919050565b60006020820190508181036000830152615dd781615d9b565b9050919050565b7f455243313135353a206d696e7420746f20746865207a65726f2061646472657360008201527f7300000000000000000000000000000000000000000000000000000000000000602082015250565b6000615e3a60218361412b565b9150615e4582615dde565b604082019050919050565b60006020820190508181036000830152615e6981615e2d565b9050919050565b600081519050919050565b600082825260208201905092915050565b6000615e9782615e70565b615ea18185615e7b565b9350615eb181856020860161413c565b615eba81614166565b840191505092915050565b600060a082019050615eda6000830188614e94565b615ee76020830187614e94565b8181036040830152615ef98186614679565b90508181036060830152615f0d8185614679565b90508181036080830152615f218184615e8c565b90509695505050505050565b600081519050615f3c81614064565b92915050565b600060208284031215615f5857615f57613f30565b5b6000615f6684828501615f2d565b91505092915050565b60008160e01c9050919050565b600060033d1115615f9b5760046000803e615f98600051615f6f565b90505b90565b600060443d1061602b57615fb0613f26565b60043d036004823e80513d602482011167ffffffffffffffff82111715615fd857505061602b565b808201805167ffffffffffffffff811115615ff6575050505061602b565b80602083010160043d03850181111561601357505050505061602b565b61602282602001850186614206565b82955050505050505b90565b7f455243313135353a207472616e7366657220746f206e6f6e2d4552433131353560008201527f526563656976657220696d706c656d656e746572000000000000000000000000602082015250565b600061608a60348361412b565b91506160958261602e565b604082019050919050565b600060208201905081810360008301526160b98161607d565b9050919050565b7f455243313135353a204552433131353552656365697665722072656a6563746560008201527f6420746f6b656e73000000000000000000000000000000000000000000000000602082015250565b600061611c60288361412b565b9150616127826160c0565b604082019050919050565b6000602082019050818103600083015261614b8161610f565b9050919050565b600060a0820190506161676000830188614e94565b6161746020830187614e94565b616181604083018661400e565b61618e606083018561400e565b81810360808301526161a08184615e8c565b9050969550505050505056fea2646970667358221220039154f138025c184abb1cd217705f4e403d57943cd7e8490a190bf7bf224d9764736f6c6343000811003360c060405260006003556040518060a00160405280600560ff168152602001600560ff168152602001600a60ff168152602001600f60ff168152602001600f60ff16815250600d906005620000569291906200027b565b50604051806101200160405280600260ff168152602001600360ff168152602001600560ff168152602001600560ff168152602001600560ff168152602001600a60ff168152602001600a60ff168152602001600f60ff168152602001600f60ff16815250600e906009620000cd929190620002d2565b50604051806102600160405280600260ff168152602001600260ff168152602001600260ff168152602001600460ff168152602001600560ff168152602001600560ff168152602001600560ff168152602001600560ff168152602001600560ff168152602001600560ff168152602001600560ff168152602001600560ff168152602001600560ff168152602001600560ff168152602001600560ff168152602001600560ff168152602001600560ff168152602001600560ff168152602001600a60ff16815250600f906013620001a892919062000329565b50348015620001b657600080fd5b506040516200748c3803806200748c8339818101604052810190620001dc919062000597565b82828282620001f1816200026660201b60201c565b508073ffffffffffffffffffffffffffffffffffffffff1660808173ffffffffffffffffffffffffffffffffffffffff16815250508173ffffffffffffffffffffffffffffffffffffffff1660a08173ffffffffffffffffffffffffffffffffffffffff168152505050505050505062000944565b80600290816200027791906200085d565b5050565b828054828255906000526020600020908101928215620002bf579160200282015b82811115620002be578251829060ff169055916020019190600101906200029c565b5b509050620002ce919062000380565b5090565b82805482825590600052602060002090810192821562000316579160200282015b8281111562000315578251829060ff16905591602001919060010190620002f3565b5b50905062000325919062000380565b5090565b8280548282559060005260206000209081019282156200036d579160200282015b828111156200036c578251829060ff169055916020019190600101906200034a565b5b5090506200037c919062000380565b5090565b5b808211156200039b57600081600090555060010162000381565b5090565b6000604051905090565b600080fd5b600080fd5b600080fd5b600080fd5b6000601f19601f8301169050919050565b7f4e487b7100000000000000000000000000000000000000000000000000000000600052604160045260246000fd5b6200040882620003bd565b810181811067ffffffffffffffff821117156200042a5762000429620003ce565b5b80604052505050565b60006200043f6200039f565b90506200044d8282620003fd565b919050565b600067ffffffffffffffff82111562000470576200046f620003ce565b5b6200047b82620003bd565b9050602081019050919050565b60005b83811015620004a85780820151818401526020810190506200048b565b60008484015250505050565b6000620004cb620004c58462000452565b62000433565b905082815260208101848484011115620004ea57620004e9620003b8565b5b620004f784828562000488565b509392505050565b600082601f830112620005175762000516620003b3565b5b815162000529848260208601620004b4565b91505092915050565b600073ffffffffffffffffffffffffffffffffffffffff82169050919050565b60006200055f8262000532565b9050919050565b620005718162000552565b81146200057d57600080fd5b50565b600081519050620005918162000566565b92915050565b600080600060608486031215620005b357620005b2620003a9565b5b600084015167ffffffffffffffff811115620005d457620005d3620003ae565b5b620005e286828701620004ff565b9350506020620005f58682870162000580565b9250506040620006088682870162000580565b9150509250925092565b600081519050919050565b7f4e487b7100000000000000000000000000000000000000000000000000000000600052602260045260246000fd5b600060028204905060018216806200066557607f821691505b6020821081036200067b576200067a6200061d565b5b50919050565b60008190508160005260206000209050919050565b60006020601f8301049050919050565b600082821b905092915050565b600060088302620006e57fffffffffffffffffffffffffffffffffffffffffffffffffffffffffffffffff82620006a6565b620006f18683620006a6565b95508019841693508086168417925050509392505050565b6000819050919050565b6000819050919050565b60006200073e62000738620007328462000709565b62000713565b62000709565b9050919050565b6000819050919050565b6200075a836200071d565b62000772620007698262000745565b848454620006b3565b825550505050565b600090565b620007896200077a565b620007968184846200074f565b505050565b5b81811015620007be57620007b26000826200077f565b6001810190506200079c565b5050565b601f8211156200080d57620007d78162000681565b620007e28462000696565b81016020851015620007f2578190505b6200080a620008018562000696565b8301826200079b565b50505b505050565b600082821c905092915050565b6000620008326000198460080262000812565b1980831691505092915050565b60006200084d83836200081f565b9150826002028217905092915050565b620008688262000612565b67ffffffffffffffff811115620008845762000883620003ce565b5b6200089082546200064c565b6200089d828285620007c2565b600060209050601f831160018114620008d55760008415620008c0578287015190505b620008cc85826200083f565b8655506200093c565b601f198416620008e58662000681565b60005b828110156200090f57848901518255600182019150602085019450602081019050620008e8565b868310156200092f57848901516200092b601f8916826200081f565b8355505b6001600288020188555050505b505050505050565b60805160a051616ab2620009da600039600081816111f2015281816116a5015281816118bb01528181611d8f01528181612013015281816124a70152818161263c015281816128ed01528181612b1e0152818161301201528181613227015261341c015260008181610f9201528181611b550152818161210101528181612b4601528181612eb801526132c60152616ab26000f3fe608060405234801561001057600080fd5b50600436106102d55760003560e01c80638da5cb5b11610182578063c36177fc116100e9578063e52270e0116100a2578063e88580901161007c578063e885809014610a4b578063e985e9c514610a7b578063f0d8100a14610aab578063f242432a14610adb576102d5565b8063e52270e0146109e1578063e5328e0614610a11578063e755ddd714610a2f576102d5565b8063c36177fc146108e7578063c372fb9114610917578063c55dae6314610947578063c7bc573014610965578063d3b7811b14610995578063e2bbb158146109c5576102d5565b8063a996ef081161013b578063a996ef0814610817578063abac75e114610833578063af73e2c914610863578063b09f2b1c1461087f578063be5ba4901461089b578063c0a6026c146108cb576102d5565b80638da5cb5b146107315780638f0dbf771461074f578063932a8de01461077f578063a22cb465146107af578063a8743022146107cb578063a9385a5c146107e7576102d5565b806339e3af9b1161024157806370876c98116101fa5780637cbc2373116101d45780637cbc23731461067c57806382afd23b1461069857806388bdc083146106c85780638c3526c2146106f8576102d5565b806370876c981461060057806377e2a08b1461061c5780637a41984b1461064c576102d5565b806339e3af9b14610506578063441a3e70146105365780634e1273f414610552578063549493bb146105825780636681b9fd146105b25780636ff80d93146105d0576102d5565b806314f294931161029357806314f29493146103fa5780631add02711461042a578063239f60da1461045a5780632eb2c2d61461048a5780632f3ad61f146104a65780633097afb8146104d6576102d5565b8062fdd58e146102da57806301ffc9a71461030a578063021594971461033a57806308913ce81461036a578063091490201461039a5780630e89341c146103ca575b600080fd5b6102f460048036038101906102ef919061473b565b610af7565b604051610301919061478a565b60405180910390f35b610324600480360381019061031f91906147fd565b610bbf565b6040516103319190614845565b60405180910390f35b610354600480360381019061034f9190614860565b610ca1565b604051610361919061478a565b60405180910390f35b610384600480360381019061037f9190614860565b610cbe565b604051610391919061478a565b60405180910390f35b6103b460048036038101906103af9190614860565b610ce9565b6040516103c19190614845565b60405180910390f35b6103e460048036038101906103df9190614860565b610d1f565b6040516103f1919061491d565b60405180910390f35b610414600480360381019061040f9190614860565b610db3565b604051610421919061478a565b60405180910390f35b610444600480360381019061043f9190614860565b610df1565b604051610451919061478a565b60405180910390f35b610474600480360381019061046f9190614860565b610e4a565b604051610481919061478a565b60405180910390f35b6104a4600480360381019061049f9190614b3c565b610e67565b005b6104c060048036038101906104bb9190614860565b610f08565b6040516104cd9190614845565b60405180910390f35b6104f060048036038101906104eb9190614860565b610f32565b6040516104fd9190614845565b60405180910390f35b610520600480360381019061051b9190614860565b610f6b565b60405161052d9190614845565b60405180910390f35b610550600480360381019061054b9190614c0b565b610f90565b005b61056c60048036038101906105679190614d0e565b611293565b6040516105799190614e44565b60405180910390f35b61059c60048036038101906105979190614860565b6113ac565b6040516105a99190614845565b60405180910390f35b6105ba6113de565b6040516105c7919061478a565b60405180910390f35b6105ea60048036038101906105e59190614860565b6113e8565b6040516105f79190614845565b60405180910390f35b61061a60048036038101906106159190614c0b565b611480565b005b61063660048036038101906106319190614860565b61174a565b604051610643919061478a565b60405180910390f35b61066660048036038101906106619190614860565b6117a3565b6040516106739190614845565b60405180910390f35b61069660048036038101906106919190614c0b565b6117cd565b005b6106b260048036038101906106ad9190614860565b611987565b6040516106bf9190614845565b60405180910390f35b6106e260048036038101906106dd9190614860565b6119aa565b6040516106ef919061478a565b60405180910390f35b610712600480360381019061070d9190614860565b6119dd565b6040516107289a99989796959493929190614e66565b60405180910390f35b610739611b51565b6040516107469190614f18565b60405180910390f35b61076960048036038101906107649190614860565b611b79565b6040516107769190614845565b60405180910390f35b61079960048036038101906107949190614860565b611b9b565b6040516107a6919061478a565b60405180910390f35b6107c960048036038101906107c49190614f5f565b611bd9565b005b6107e560048036038101906107e09190614860565b611bef565b005b61080160048036038101906107fc9190614860565b611e6e565b60405161080e919061478a565b60405180910390f35b610831600480360381019061082c9190614c0b565b611f25565b005b61084d60048036038101906108489190614860565b6120df565b60405161085a919061478a565b60405180910390f35b61087d60048036038101906108789190614c0b565b6120ff565b005b61089960048036038101906108949190614c0b565b61254b565b005b6108b560048036038101906108b09190614860565b612708565b6040516108c29190614e44565b60405180910390f35b6108e560048036038101906108e09190614860565b612773565b005b61090160048036038101906108fc9190614c0b565b6129cc565b60405161090e9190614e44565b60405180910390f35b610931600480360381019061092c9190614860565b612afd565b60405161093e919061478a565b60405180910390f35b61094f612b1a565b60405161095c9190614f18565b60405180910390f35b61097f600480360381019061097a9190614ffa565b612b42565b60405161098c919061478a565b60405180910390f35b6109af60048036038101906109aa9190614860565b612e83565b6040516109bc919061478a565b60405180910390f35b6109df60048036038101906109da9190614c0b565b612eb6565b005b6109fb60048036038101906109f69190614860565b6130b5565b604051610a089190614e44565b60405180910390f35b610a19613223565b604051610a26919061478a565b60405180910390f35b610a496004803603810190610a449190614860565b6132c4565b005b610a656004803603810190610a609190614860565b6134cf565b604051610a72919061478a565b60405180910390f35b610a956004803603810190610a9091906150ec565b6134ec565b604051610aa29190614845565b60405180910390f35b610ac56004803603810190610ac09190614860565b613580565b604051610ad2919061478a565b60405180910390f35b610af56004803603810190610af0919061512c565b61359d565b005b60008073ffffffffffffffffffffffffffffffffffffffff168373ffffffffffffffffffffffffffffffffffffffff1603610b67576040517f08c379a0000000000000000000000000000000000000000000000000000000008152600401610b5e90615235565b60405180910390fd5b60008083815260200190815260200160002060008473ffffffffffffffffffffffffffffffffffffffff1673ffffffffffffffffffffffffffffffffffffffff16815260200190815260200160002054905092915050565b60007fd9b67a26000000000000000000000000000000000000000000000000000000007bffffffffffffffffffffffffffffffffffffffffffffffffffffffff1916827bffffffffffffffffffffffffffffffffffffffffffffffffffffffff19161480610c8a57507f0e89341c000000000000000000000000000000000000000000000000000000007bffffffffffffffffffffffffffffffffffffffffffffffffffffffff1916827bffffffffffffffffffffffffffffffffffffffffffffffffffffffff1916145b80610c9a5750610c998261363e565b5b9050919050565b600060086000838152602001908152602001600020549050919050565b6000600560008381526020019081526020016000206002015442610ce29190615284565b9050919050565b60006005600083815260200190815260200160002060080154600660008481526020019081526020016000205410159050919050565b606060028054610d2e906152e7565b80601f0160208091040260200160405190810160405280929190818152602001828054610d5a906152e7565b8015610da75780601f10610d7c57610100808354040283529160200191610da7565b820191906000526020600020905b815481529060010190602001808311610d8a57829003601f168201915b50505050509050919050565b600060066000838152602001908152602001600020546005600084815260200190815260200160002060010154610dea9190615318565b9050919050565b6000670de0b6b3a76400006005600084815260200190815260200160002060070154670de0b6b3a7640000610e25856134cf565b610e2f9190615318565b610e399190615389565b610e439190615389565b9050919050565b600060136000838152602001908152602001600020549050919050565b610e6f6136a8565b73ffffffffffffffffffffffffffffffffffffffff168573ffffffffffffffffffffffffffffffffffffffff161480610eb55750610eb485610eaf6136a8565b6134ec565b5b610ef4576040517f08c379a0000000000000000000000000000000000000000000000000000000008152600401610eeb9061542c565b60405180910390fd5b610f0185858585856136b0565b5050505050565b6000600b600083815260200190815260200160002060009054906101000a900460ff169050919050565b6000610f3d82611b79565b8015610f645750610f4d8261174a565b600860008481526020019081526020016000205410155b9050919050565b6000610f7682611987565b158015610f895750610f8782610ce9565b155b9050919050565b7f000000000000000000000000000000000000000000000000000000000000000073ffffffffffffffffffffffffffffffffffffffff163373ffffffffffffffffffffffffffffffffffffffff161461101e576040517f08c379a000000000000000000000000000000000000000000000000000000000815260040161101590615498565b60405180910390fd5b61102782611987565b15611067576040517f08c379a000000000000000000000000000000000000000000000000000000000815260040161105e90615504565b60405180910390fd5b61107082610f6b565b156110b0576040517f08c379a00000000000000000000000000000000000000000000000000000000081526004016110a790615504565b60405180910390fd5b6110b9826117a3565b156110f9576040517f08c379a00000000000000000000000000000000000000000000000000000000081526004016110f090615596565b60405180910390fd5b61110282610f08565b806111125750611111826113e8565b5b15611152576040517f08c379a000000000000000000000000000000000000000000000000000000000815260040161114990615628565b60405180910390fd5b601260008381526020019081526020016000205460086000848152602001908152602001600020546111849190615284565b8111156111c6576040517f08c379a00000000000000000000000000000000000000000000000000000000081526004016111bd906156ba565b60405180910390fd5b806008600084815260200190815260200160002060008282546111e99190615284565b925050819055507f000000000000000000000000000000000000000000000000000000000000000073ffffffffffffffffffffffffffffffffffffffff1663a9059cbb33836040518363ffffffff1660e01b815260040161124b9291906156da565b6020604051808303816000875af115801561126a573d6000803e3d6000fd5b505050506040513d601f19601f8201168201806040525081019061128e9190615718565b505050565b606081518351146112d9576040517f08c379a00000000000000000000000000000000000000000000000000000000081526004016112d0906157b7565b60405180910390fd5b6000835167ffffffffffffffff8111156112f6576112f5614944565b5b6040519080825280602002602001820160405280156113245781602001602082028036833780820191505090505b50905060005b84518110156113a157611371858281518110611349576113486157d7565b5b6020026020010151858381518110611364576113636157d7565b5b6020026020010151610af7565b828281518110611384576113836157d7565b5b6020026020010181815250508061139a90615806565b905061132a565b508091505092915050565b600060066000838152602001908152602001600020546007600084815260200190815260200160002054149050919050565b6000600454905090565b6000806113f483611b79565b801561141a57506114048361174a565b6008600085815260200190815260200160002054105b9050600061142784611b79565b15801561146c57506201518060b460016013600088815260200190815260200160002054611455919061584e565b61145f9190615318565b6114699190615318565b42115b905081806114775750805b92505050919050565b61148982611987565b6114c8576040517f08c379a00000000000000000000000000000000000000000000000000000000081526004016114bf906158ce565b60405180910390fd5b806114d283611b9b565b1015611513576040517f08c379a000000000000000000000000000000000000000000000000000000000815260040161150a90615960565b60405180910390fd5b60006005600084815260200190815260200160002060405180610140016040529081600082018054611544906152e7565b80601f0160208091040260200160405190810160405280929190818152602001828054611570906152e7565b80156115bd5780601f10611592576101008083540402835291602001916115bd565b820191906000526020600020905b8154815290600101906020018083116115a057829003601f168201915b505050505081526020016001820154815260200160028201548152602001600382015481526020016004820154815260200160058201548152602001600682015481526020016007820154815260200160088201548152602001600982015481525050905060008160200151836116349190615318565b905082600660008681526020019081526020016000206000828254611659919061584e565b9250508190555080600860008681526020019081526020016000206000828254611683919061584e565b92505081905550806004600082825461169c919061584e565b925050819055507f000000000000000000000000000000000000000000000000000000000000000073ffffffffffffffffffffffffffffffffffffffff166323b872dd3330846040518463ffffffff1660e01b815260040161170093929190615980565b6020604051808303816000875af115801561171f573d6000803e3d6000fd5b505050506040513d601f19601f820116820180604052508101906117439190615718565b5050505050565b6000670de0b6b3a7640000600560008481526020019081526020016000206009015461177584610db3565b61177f9190615318565b6117899190615389565b61179283610db3565b61179c919061584e565b9050919050565b6000600c600083815260200190815260200160002060009054906101000a900460ff169050919050565b6117d6826117a3565b611815576040517f08c379a000000000000000000000000000000000000000000000000000000000815260040161180c90615a03565b60405180910390fd5b806118203384610af7565b1015611861576040517f08c379a000000000000000000000000000000000000000000000000000000000815260040161185890615a6f565b60405180910390fd5b61186c3383836139d1565b8060076000848152602001908152602001600020600082825461188f919061584e565b925050819055506000600a600084815260200190815260200160002054826118b79190615318565b90507f000000000000000000000000000000000000000000000000000000000000000073ffffffffffffffffffffffffffffffffffffffff1663a9059cbb33836040518363ffffffff1660e01b81526004016119149291906156da565b6020604051808303816000875af1158015611933573d6000803e3d6000fd5b505050506040513d601f19601f820116820180604052508101906119579190615718565b508060086000858152602001908152602001600020600082825461197b9190615284565b92505081905550505050565b600060056000838152602001908152602001600020600401544211159050919050565b60006119b582610cbe565b60056000848152602001908152602001600020600501546119d69190615284565b9050919050565b6060600080600080600080600080600080600560008d815260200190815260200160002060405180610140016040529081600082018054611a1d906152e7565b80601f0160208091040260200160405190810160405280929190818152602001828054611a49906152e7565b8015611a965780601f10611a6b57610100808354040283529160200191611a96565b820191906000526020600020905b815481529060010190602001808311611a7957829003601f168201915b5050505050815260200160018201548152602001600282015481526020016003820154815260200160048201548152602001600582015481526020016006820154815260200160078201548152602001600882015481526020016009820154815250509050806000015181602001518260400151836060015184608001518560a001518660c001518760e001518861010001518961012001519a509a509a509a509a509a509a509a509a509a50509193959799509193959799565b60007f0000000000000000000000000000000000000000000000000000000000000000905090565b6000600560008381526020019081526020016000206003015442119050919050565b600060066000838152602001908152602001600020546005600084815260200190815260200160002060070154611bd29190615284565b9050919050565b611beb611be46136a8565b8383613c17565b5050565b611bf8816117a3565b158015611c0b5750611c0981610f08565b155b8015611c1c5750611c1b816113e8565b5b611c5b576040517f08c379a0000000000000000000000000000000000000000000000000000000008152600401611c5290615adb565b60405180910390fd5b6000611c668261174a565b905060006103e86008600085815260200190815260200160002054611c8b9190615389565b90506000816008600086815260200190815260200160002054611cae9190615284565b9050600660008581526020019081526020016000205481611ccf9190615389565b6009600086815260200190815260200160002081905550600060066000868152602001908152602001600020546009600087815260200190815260200160002054611d1a9190615318565b82611d259190615284565b905060008184611d35919061584e565b905080600860008881526020019081526020016000206000828254611d5a9190615284565b925050819055506001600b600088815260200190815260200160002060006101000a81548160ff0219169083151502179055507f000000000000000000000000000000000000000000000000000000000000000073ffffffffffffffffffffffffffffffffffffffff1663a9059cbb33836040518363ffffffff1660e01b8152600401611de89291906156da565b6020604051808303816000875af1158015611e07573d6000803e3d6000fd5b505050506040513d601f19601f82011682018060405250810190611e2b9190615718565b50857fc4f17a65d54873d57229ea5f59c4ddec592d095bc17581372676402c8228b9cd8685604051611e5e929190615afb565b60405180910390a2505050505050565b60008160008110158015611e83575060028111155b611ec2576040517f08c379a0000000000000000000000000000000000000000000000000000000008152600401611eb990615b70565b60405180910390fd5b600060b46002611ed29190615318565b905060008403611ef157806003611ee99190615318565b925050611f1f565b60018403611f0e57806005611f069190615318565b925050611f1f565b80600a611f1b9190615318565b9250505b50919050565b611f2e82610f08565b611f6d576040517f08c379a0000000000000000000000000000000000000000000000000000000008152600401611f6490615adb565b60405180910390fd5b80611f783384610af7565b1015611fb9576040517f08c379a0000000000000000000000000000000000000000000000000000000008152600401611fb090615a6f565b60405180910390fd5b611fc43383836139d1565b80600760008481526020019081526020016000206000828254611fe7919061584e565b92505081905550600060096000848152602001908152602001600020548261200f9190615318565b90507f000000000000000000000000000000000000000000000000000000000000000073ffffffffffffffffffffffffffffffffffffffff1663a9059cbb33836040518363ffffffff1660e01b815260040161206c9291906156da565b6020604051808303816000875af115801561208b573d6000803e3d6000fd5b505050506040513d601f19601f820116820180604052508101906120af9190615718565b50806008600085815260200190815260200160002060008282546120d39190615284565b92505081905550505050565b600060056000838152602001908152602001600020600901549050919050565b7f000000000000000000000000000000000000000000000000000000000000000073ffffffffffffffffffffffffffffffffffffffff163373ffffffffffffffffffffffffffffffffffffffff161461218d576040517f08c379a000000000000000000000000000000000000000000000000000000000815260040161218490615498565b60405180910390fd5b61219682610f08565b806121a657506121a5826113e8565b5b156121e6576040517f08c379a00000000000000000000000000000000000000000000000000000000081526004016121dd90615628565b60405180910390fd5b600560008381526020019081526020016000206006015460b46001601360008681526020019081526020016000205461221f919061584e565b6122299190615318565b03612269576040517f08c379a000000000000000000000000000000000000000000000000000000000815260040161226090615bdc565b60405180910390fd5b601160008381526020019081526020016000206013600084815260200190815260200160002054815481106122a1576122a06157d7565b5b90600052602060002001548110156122ee576040517f08c379a00000000000000000000000000000000000000000000000000000000081526004016122e590615c48565b60405180910390fd5b66b1a2bc2ec500006011600084815260200190815260200160002060136000858152602001908152602001600020548154811061232e5761232d6157d7565b5b9060005260206000200154670de0b6b3a76400006011600086815260200190815260200160002060136000878152602001908152602001600020548154811061237a576123796157d7565b5b9060005260206000200154846123909190615284565b61239a9190615318565b6123a49190615389565b11156123e5576040517f08c379a00000000000000000000000000000000000000000000000000000000081526004016123dc90615cda565b60405180910390fd5b60006005600084815260200190815260200160002060070154826124099190615318565b90508060126000858152602001908152602001600020600082825461242e919061584e565b925050819055506201518060b46124459190615318565b6010600085815260200190815260200160002054612463919061584e565b6010600085815260200190815260200160002081905550600160136000858152602001908152602001600020600082825461249e919061584e565b925050819055507f000000000000000000000000000000000000000000000000000000000000000073ffffffffffffffffffffffffffffffffffffffff166323b872dd3330846040518463ffffffff1660e01b815260040161250293929190615980565b6020604051808303816000875af1158015612521573d6000803e3d6000fd5b505050506040513d601f19601f820116820180604052508101906125459190615718565b50505050565b61255482610f6b565b612593576040517f08c379a000000000000000000000000000000000000000000000000000000000815260040161258a90615d46565b60405180910390fd5b8061259e3384610af7565b10156125df576040517f08c379a00000000000000000000000000000000000000000000000000000000081526004016125d690615a6f565b60405180910390fd5b6125ea3383836139d1565b8060076000848152602001908152602001600020600082825461260d919061584e565b9250508190555060006005600084815260200190815260200160002060010154826126389190615318565b90507f000000000000000000000000000000000000000000000000000000000000000073ffffffffffffffffffffffffffffffffffffffff1663a9059cbb33836040518363ffffffff1660e01b81526004016126959291906156da565b6020604051808303816000875af11580156126b4573d6000803e3d6000fd5b505050506040513d601f19601f820116820180604052508101906126d89190615718565b50806008600085815260200190815260200160002060008282546126fc9190615284565b92505081905550505050565b60606011600083815260200190815260200160002080548060200260200160405190810160405280929190818152602001828054801561276757602002820191906000526020600020905b815481526020019060010190808311612753575b50505050509050919050565b61277c81610f08565b15801561278f575061278d816117a3565b155b80156127a0575061279f81610f32565b5b6127df576040517f08c379a00000000000000000000000000000000000000000000000000000000081526004016127d690615db2565b60405180910390fd5b60006127ea8261174a565b905060006103e8826127fc9190615389565b90506000818361280c9190615284565b905060066000858152602001908152602001600020548161282d9190615389565b600a60008681526020019081526020016000208190555060006006600086815260200190815260200160002054600a6000878152602001908152602001600020546128789190615318565b826128839190615284565b905060008184612893919061584e565b9050806008600088815260200190815260200160002060008282546128b89190615284565b925050819055506001600c600088815260200190815260200160002060006101000a81548160ff0219169083151502179055507f000000000000000000000000000000000000000000000000000000000000000073ffffffffffffffffffffffffffffffffffffffff1663a9059cbb33836040518363ffffffff1660e01b81526004016129469291906156da565b6020604051808303816000875af1158015612965573d6000803e3d6000fd5b505050506040513d601f19601f820116820180604052508101906129899190615718565b50857fac2eeaf45d1b75aed6b3285cda3efb3c382cce02ba313558bbb90be57f8843e486856040516129bc929190615afb565b60405180910390a2505050505050565b606081600081101580156129e1575060028111155b612a20576040517f08c379a0000000000000000000000000000000000000000000000000000000008152600401612a1790615b70565b60405180910390fd5b6000612a2b846130b5565b905060008151905060008167ffffffffffffffff811115612a4f57612a4e614944565b5b604051908082528060200260200182016040528015612a7d5781602001602082028036833780820191505090505b50905060005b82811015612aef576064848281518110612aa057612a9f6157d7565b5b602002602001015189612ab39190615318565b612abd9190615389565b828281518110612ad057612acf6157d7565b5b6020026020010181815250508080612ae790615806565b915050612a83565b508094505050505092915050565b600060106000838152602001908152602001600020549050919050565b60007f0000000000000000000000000000000000000000000000000000000000000000905090565b60007f000000000000000000000000000000000000000000000000000000000000000073ffffffffffffffffffffffffffffffffffffffff163373ffffffffffffffffffffffffffffffffffffffff1614612bd2576040517f08c379a0000000000000000000000000000000000000000000000000000000008152600401612bc990615498565b60405180910390fd5b8460008110158015612be5575060028111155b612c24576040517f08c379a0000000000000000000000000000000000000000000000000000000008152600401612c1b90615b70565b60405180910390fd5b60b48510612c67576040517f08c379a0000000000000000000000000000000000000000000000000000000008152600401612c5e90615e44565b60405180910390fd5b6000612c7287611e6e565b90506001600354612c83919061584e565b9250612c9133848e87613d83565b6040518061014001604052808a8a8080601f016020809104026020016040519081016040528093929190818152602001838380828437600081840152601f19601f8201169050808301925050505050505081526020018b81526020014281526020016201518083612d029190615318565b42612d0d919061584e565b81526020016201518088612d219190615318565b42612d2c919061584e565b81526020018781526020018281526020018d81526020018c815260200186815250600560008581526020019081526020016000206000820151816000019081612d759190616010565b506020820151816001015560408201518160020155606082015181600301556080820151816004015560a0820151816005015560c0820151816006015560e08201518160070155610100820151816008015561012082015181600901559050506201518060b4612de59190615318565b42612df0919061584e565b6010600085815260200190815260200160002081905550612e118a886129cc565b601160008581526020019081526020016000209080519060200190612e37929190614629565b50827f3e5b89bff97cb92eafe4cd460ef4aa43d6feef1428595fe038182876515968fd8d8c88604051612e6c939291906160e2565b60405180910390a250509998505050505050505050565b6000612e8e82610cbe565b6005600084815260200190815260200160002060060154612eaf9190615284565b9050919050565b7f000000000000000000000000000000000000000000000000000000000000000073ffffffffffffffffffffffffffffffffffffffff163373ffffffffffffffffffffffffffffffffffffffff1614612f44576040517f08c379a0000000000000000000000000000000000000000000000000000000008152600401612f3b90615498565b60405180910390fd5b612f4d82610f08565b80612f5d5750612f5c826113e8565b5b15612f9d576040517f08c379a0000000000000000000000000000000000000000000000000000000008152600401612f9490616165565b60405180910390fd5b612fa6826117a3565b15612fe6576040517f08c379a0000000000000000000000000000000000000000000000000000000008152600401612fdd906161d1565b60405180910390fd5b80600860008481526020019081526020016000206000828254613009919061584e565b925050819055507f000000000000000000000000000000000000000000000000000000000000000073ffffffffffffffffffffffffffffffffffffffff166323b872dd3330846040518463ffffffff1660e01b815260040161306d93929190615980565b6020604051808303816000875af115801561308c573d6000803e3d6000fd5b505050506040513d601f19601f820116820180604052508101906130b09190615718565b505050565b606081600081101580156130ca575060028111155b613109576040517f08c379a000000000000000000000000000000000000000000000000000000000815260040161310090615b70565b60405180910390fd5b6000830361316957600d80548060200260200160405190810160405280929190818152602001828054801561315d57602002820191906000526020600020905b815481526020019060010190808311613149575b5050505050915061321d565b600183036131c957600e8054806020026020016040519081016040528092919081815260200182805480156131bd57602002820191906000526020600020905b8154815260200190600101908083116131a9575b5050505050915061321d565b600f80548060200260200160405190810160405280929190818152602001828054801561321557602002820191906000526020600020905b815481526020019060010190808311613201575b505050505091505b50919050565b60007f000000000000000000000000000000000000000000000000000000000000000073ffffffffffffffffffffffffffffffffffffffff166370a08231306040518263ffffffff1660e01b815260040161327e9190614f18565b602060405180830381865afa15801561329b573d6000803e3d6000fd5b505050506040513d601f19601f820116820180604052508101906132bf9190616206565b905090565b7f000000000000000000000000000000000000000000000000000000000000000073ffffffffffffffffffffffffffffffffffffffff163373ffffffffffffffffffffffffffffffffffffffff1614613352576040517f08c379a000000000000000000000000000000000000000000000000000000000815260040161334990615498565b60405180910390fd5b61335b816117a3565b801561336c575061336b816113ac565b5b6133ab576040517f08c379a00000000000000000000000000000000000000000000000000000000081526004016133a29061627f565b60405180910390fd5b6000600860008381526020019081526020016000205411613401576040517f08c379a00000000000000000000000000000000000000000000000000000000081526004016133f8906162eb565b60405180910390fd5b600060086000838152602001908152602001600020819055507f000000000000000000000000000000000000000000000000000000000000000073ffffffffffffffffffffffffffffffffffffffff1663a9059cbb3360086000858152602001908152602001600020546040518363ffffffff1660e01b81526004016134889291906156da565b6020604051808303816000875af11580156134a7573d6000803e3d6000fd5b505050506040513d601f19601f820116820180604052508101906134cb9190615718565b5050565b600060126000838152602001908152602001600020549050919050565b6000600160008473ffffffffffffffffffffffffffffffffffffffff1673ffffffffffffffffffffffffffffffffffffffff16815260200190815260200160002060008373ffffffffffffffffffffffffffffffffffffffff1673ffffffffffffffffffffffffffffffffffffffff16815260200190815260200160002060009054906101000a900460ff16905092915050565b600060086000838152602001908152602001600020549050919050565b6135a56136a8565b73ffffffffffffffffffffffffffffffffffffffff168573ffffffffffffffffffffffffffffffffffffffff1614806135eb57506135ea856135e56136a8565b6134ec565b5b61362a576040517f08c379a00000000000000000000000000000000000000000000000000000000081526004016136219061542c565b60405180910390fd5b6136378585858585613f33565b5050505050565b60007f01ffc9a7000000000000000000000000000000000000000000000000000000007bffffffffffffffffffffffffffffffffffffffffffffffffffffffff1916827bffffffffffffffffffffffffffffffffffffffffffffffffffffffff1916149050919050565b600033905090565b81518351146136f4576040517f08c379a00000000000000000000000000000000000000000000000000000000081526004016136eb9061637d565b60405180910390fd5b600073ffffffffffffffffffffffffffffffffffffffff168473ffffffffffffffffffffffffffffffffffffffff1603613763576040517f08c379a000000000000000000000000000000000000000000000000000000000815260040161375a9061640f565b60405180910390fd5b600061376d6136a8565b905061377d8187878787876141ce565b60005b845181101561392e57600085828151811061379e5761379d6157d7565b5b6020026020010151905060008583815181106137bd576137bc6157d7565b5b60200260200101519050600080600084815260200190815260200160002060008b73ffffffffffffffffffffffffffffffffffffffff1673ffffffffffffffffffffffffffffffffffffffff1681526020019081526020016000205490508181101561385e576040517f08c379a0000000000000000000000000000000000000000000000000000000008152600401613855906164a1565b60405180910390fd5b81810360008085815260200190815260200160002060008c73ffffffffffffffffffffffffffffffffffffffff1673ffffffffffffffffffffffffffffffffffffffff168152602001908152602001600020819055508160008085815260200190815260200160002060008b73ffffffffffffffffffffffffffffffffffffffff1673ffffffffffffffffffffffffffffffffffffffff1681526020019081526020016000206000828254613913919061584e565b925050819055505050508061392790615806565b9050613780565b508473ffffffffffffffffffffffffffffffffffffffff168673ffffffffffffffffffffffffffffffffffffffff168273ffffffffffffffffffffffffffffffffffffffff167f4a39dc06d4c0dbc64b70af90fd698a233a518aa5d07e595d983b8c0526c8f7fb87876040516139a59291906164c1565b60405180910390a46139bb8187878787876141d6565b6139c98187878787876141de565b505050505050565b600073ffffffffffffffffffffffffffffffffffffffff168373ffffffffffffffffffffffffffffffffffffffff1603613a40576040517f08c379a0000000000000000000000000000000000000000000000000000000008152600401613a379061656a565b60405180910390fd5b6000613a4a6136a8565b90506000613a57846143b5565b90506000613a64846143b5565b9050613a84838760008585604051806020016040528060008152506141ce565b600080600087815260200190815260200160002060008873ffffffffffffffffffffffffffffffffffffffff1673ffffffffffffffffffffffffffffffffffffffff16815260200190815260200160002054905084811015613b1b576040517f08c379a0000000000000000000000000000000000000000000000000000000008152600401613b12906165fc565b60405180910390fd5b84810360008088815260200190815260200160002060008973ffffffffffffffffffffffffffffffffffffffff1673ffffffffffffffffffffffffffffffffffffffff16815260200190815260200160002081905550600073ffffffffffffffffffffffffffffffffffffffff168773ffffffffffffffffffffffffffffffffffffffff168573ffffffffffffffffffffffffffffffffffffffff167fc3d58168c5ae7397731d063d5bbf3d657854427343f4c083240f7aacaa2d0f628989604051613be8929190615afb565b60405180910390a4613c0e848860008686604051806020016040528060008152506141d6565b50505050505050565b8173ffffffffffffffffffffffffffffffffffffffff168373ffffffffffffffffffffffffffffffffffffffff1603613c85576040517f08c379a0000000000000000000000000000000000000000000000000000000008152600401613c7c9061668e565b60405180910390fd5b80600160008573ffffffffffffffffffffffffffffffffffffffff1673ffffffffffffffffffffffffffffffffffffffff16815260200190815260200160002060008473ffffffffffffffffffffffffffffffffffffffff1673ffffffffffffffffffffffffffffffffffffffff16815260200190815260200160002060006101000a81548160ff0219169083151502179055508173ffffffffffffffffffffffffffffffffffffffff168373ffffffffffffffffffffffffffffffffffffffff167f17307eab39ab6107e8899845ad3d59bd9653f200f220920489ca2b5937696c3183604051613d769190614845565b60405180910390a3505050565b600073ffffffffffffffffffffffffffffffffffffffff168473ffffffffffffffffffffffffffffffffffffffff1603613df2576040517f08c379a0000000000000000000000000000000000000000000000000000000008152600401613de990616720565b60405180910390fd5b6000613dfc6136a8565b90506000613e09856143b5565b90506000613e16856143b5565b9050613e27836000898585896141ce565b8460008088815260200190815260200160002060008973ffffffffffffffffffffffffffffffffffffffff1673ffffffffffffffffffffffffffffffffffffffff1681526020019081526020016000206000828254613e86919061584e565b925050819055508673ffffffffffffffffffffffffffffffffffffffff16600073ffffffffffffffffffffffffffffffffffffffff168473ffffffffffffffffffffffffffffffffffffffff167fc3d58168c5ae7397731d063d5bbf3d657854427343f4c083240f7aacaa2d0f628989604051613f04929190615afb565b60405180910390a4613f1b836000898585896141d6565b613f2a8360008989898961442f565b50505050505050565b600073ffffffffffffffffffffffffffffffffffffffff168473ffffffffffffffffffffffffffffffffffffffff1603613fa2576040517f08c379a0000000000000000000000000000000000000000000000000000000008152600401613f999061640f565b60405180910390fd5b6000613fac6136a8565b90506000613fb9856143b5565b90506000613fc6856143b5565b9050613fd68389898585896141ce565b600080600088815260200190815260200160002060008a73ffffffffffffffffffffffffffffffffffffffff1673ffffffffffffffffffffffffffffffffffffffff1681526020019081526020016000205490508581101561406d576040517f08c379a0000000000000000000000000000000000000000000000000000000008152600401614064906164a1565b60405180910390fd5b85810360008089815260200190815260200160002060008b73ffffffffffffffffffffffffffffffffffffffff1673ffffffffffffffffffffffffffffffffffffffff168152602001908152602001600020819055508560008089815260200190815260200160002060008a73ffffffffffffffffffffffffffffffffffffffff1673ffffffffffffffffffffffffffffffffffffffff1681526020019081526020016000206000828254614122919061584e565b925050819055508773ffffffffffffffffffffffffffffffffffffffff168973ffffffffffffffffffffffffffffffffffffffff168573ffffffffffffffffffffffffffffffffffffffff167fc3d58168c5ae7397731d063d5bbf3d657854427343f4c083240f7aacaa2d0f628a8a60405161419f929190615afb565b60405180910390a46141b5848a8a86868a6141d6565b6141c3848a8a8a8a8a61442f565b505050505050505050565b505050505050565b505050505050565b6141fd8473ffffffffffffffffffffffffffffffffffffffff16614606565b156143ad578373ffffffffffffffffffffffffffffffffffffffff1663bc197c8187878686866040518663ffffffff1660e01b8152600401614243959493929190616795565b6020604051808303816000875af192505050801561427f57506040513d601f19601f8201168201806040525081019061427c9190616812565b60015b6143245761428b61684c565b806308c379a0036142e7575061429f61686e565b806142aa57506142e9565b806040517f08c379a00000000000000000000000000000000000000000000000000000000081526004016142de919061491d565b60405180910390fd5b505b6040517f08c379a000000000000000000000000000000000000000000000000000000000815260040161431b90616970565b60405180910390fd5b63bc197c8160e01b7bffffffffffffffffffffffffffffffffffffffffffffffffffffffff1916817bffffffffffffffffffffffffffffffffffffffffffffffffffffffff1916146143ab576040517f08c379a00000000000000000000000000000000000000000000000000000000081526004016143a290616a02565b60405180910390fd5b505b505050505050565b60606000600167ffffffffffffffff8111156143d4576143d3614944565b5b6040519080825280602002602001820160405280156144025781602001602082028036833780820191505090505b509050828160008151811061441a576144196157d7565b5b60200260200101818152505080915050919050565b61444e8473ffffffffffffffffffffffffffffffffffffffff16614606565b156145fe578373ffffffffffffffffffffffffffffffffffffffff1663f23a6e6187878686866040518663ffffffff1660e01b8152600401614494959493929190616a22565b6020604051808303816000875af19250505080156144d057506040513d601f19601f820116820180604052508101906144cd9190616812565b60015b614575576144dc61684c565b806308c379a00361453857506144f061686e565b806144fb575061453a565b806040517f08c379a000000000000000000000000000000000000000000000000000000000815260040161452f919061491d565b60405180910390fd5b505b6040517f08c379a000000000000000000000000000000000000000000000000000000000815260040161456c90616970565b60405180910390fd5b63f23a6e6160e01b7bffffffffffffffffffffffffffffffffffffffffffffffffffffffff1916817bffffffffffffffffffffffffffffffffffffffffffffffffffffffff1916146145fc576040517f08c379a00000000000000000000000000000000000000000000000000000000081526004016145f390616a02565b60405180910390fd5b505b505050505050565b6000808273ffffffffffffffffffffffffffffffffffffffff163b119050919050565b828054828255906000526020600020908101928215614665579160200282015b82811115614664578251825591602001919060010190614649565b5b5090506146729190614676565b5090565b5b8082111561468f576000816000905550600101614677565b5090565b6000604051905090565b600080fd5b600080fd5b600073ffffffffffffffffffffffffffffffffffffffff82169050919050565b60006146d2826146a7565b9050919050565b6146e2816146c7565b81146146ed57600080fd5b50565b6000813590506146ff816146d9565b92915050565b6000819050919050565b61471881614705565b811461472357600080fd5b50565b6000813590506147358161470f565b92915050565b600080604083850312156147525761475161469d565b5b6000614760858286016146f0565b925050602061477185828601614726565b9150509250929050565b61478481614705565b82525050565b600060208201905061479f600083018461477b565b92915050565b60007fffffffff0000000000000000000000000000000000000000000000000000000082169050919050565b6147da816147a5565b81146147e557600080fd5b50565b6000813590506147f7816147d1565b92915050565b6000602082840312156148135761481261469d565b5b6000614821848285016147e8565b91505092915050565b60008115159050919050565b61483f8161482a565b82525050565b600060208201905061485a6000830184614836565b92915050565b6000602082840312156148765761487561469d565b5b600061488484828501614726565b91505092915050565b600081519050919050565b600082825260208201905092915050565b60005b838110156148c75780820151818401526020810190506148ac565b60008484015250505050565b6000601f19601f8301169050919050565b60006148ef8261488d565b6148f98185614898565b93506149098185602086016148a9565b614912816148d3565b840191505092915050565b6000602082019050818103600083015261493781846148e4565b905092915050565b600080fd5b7f4e487b7100000000000000000000000000000000000000000000000000000000600052604160045260246000fd5b61497c826148d3565b810181811067ffffffffffffffff8211171561499b5761499a614944565b5b80604052505050565b60006149ae614693565b90506149ba8282614973565b919050565b600067ffffffffffffffff8211156149da576149d9614944565b5b602082029050602081019050919050565b600080fd5b6000614a036149fe846149bf565b6149a4565b90508083825260208201905060208402830185811115614a2657614a256149eb565b5b835b81811015614a4f5780614a3b8882614726565b845260208401935050602081019050614a28565b5050509392505050565b600082601f830112614a6e57614a6d61493f565b5b8135614a7e8482602086016149f0565b91505092915050565b600080fd5b600067ffffffffffffffff821115614aa757614aa6614944565b5b614ab0826148d3565b9050602081019050919050565b82818337600083830152505050565b6000614adf614ada84614a8c565b6149a4565b905082815260208101848484011115614afb57614afa614a87565b5b614b06848285614abd565b509392505050565b600082601f830112614b2357614b2261493f565b5b8135614b33848260208601614acc565b91505092915050565b600080600080600060a08688031215614b5857614b5761469d565b5b6000614b66888289016146f0565b9550506020614b77888289016146f0565b945050604086013567ffffffffffffffff811115614b9857614b976146a2565b5b614ba488828901614a59565b935050606086013567ffffffffffffffff811115614bc557614bc46146a2565b5b614bd188828901614a59565b925050608086013567ffffffffffffffff811115614bf257614bf16146a2565b5b614bfe88828901614b0e565b9150509295509295909350565b60008060408385031215614c2257614c2161469d565b5b6000614c3085828601614726565b9250506020614c4185828601614726565b9150509250929050565b600067ffffffffffffffff821115614c6657614c65614944565b5b602082029050602081019050919050565b6000614c8a614c8584614c4b565b6149a4565b90508083825260208201905060208402830185811115614cad57614cac6149eb565b5b835b81811015614cd65780614cc288826146f0565b845260208401935050602081019050614caf565b5050509392505050565b600082601f830112614cf557614cf461493f565b5b8135614d05848260208601614c77565b91505092915050565b60008060408385031215614d2557614d2461469d565b5b600083013567ffffffffffffffff811115614d4357614d426146a2565b5b614d4f85828601614ce0565b925050602083013567ffffffffffffffff811115614d7057614d6f6146a2565b5b614d7c85828601614a59565b9150509250929050565b600081519050919050565b600082825260208201905092915050565b6000819050602082019050919050565b614dbb81614705565b82525050565b6000614dcd8383614db2565b60208301905092915050565b6000602082019050919050565b6000614df182614d86565b614dfb8185614d91565b9350614e0683614da2565b8060005b83811015614e37578151614e1e8882614dc1565b9750614e2983614dd9565b925050600181019050614e0a565b5085935050505092915050565b60006020820190508181036000830152614e5e8184614de6565b905092915050565b6000610140820190508181036000830152614e81818d6148e4565b9050614e90602083018c61477b565b614e9d604083018b61477b565b614eaa606083018a61477b565b614eb7608083018961477b565b614ec460a083018861477b565b614ed160c083018761477b565b614ede60e083018661477b565b614eec61010083018561477b565b614efa61012083018461477b565b9b9a5050505050505050505050565b614f12816146c7565b82525050565b6000602082019050614f2d6000830184614f09565b92915050565b614f3c8161482a565b8114614f4757600080fd5b50565b600081359050614f5981614f33565b92915050565b60008060408385031215614f7657614f7561469d565b5b6000614f84858286016146f0565b9250506020614f9585828601614f4a565b9150509250929050565b600080fd5b60008083601f840112614fba57614fb961493f565b5b8235905067ffffffffffffffff811115614fd757614fd6614f9f565b5b602083019150836001820283011115614ff357614ff26149eb565b5b9250929050565b60008060008060008060008060006101008a8c03121561501d5761501c61469d565b5b600061502b8c828d01614726565b995050602061503c8c828d01614726565b985050604061504d8c828d01614726565b97505060608a013567ffffffffffffffff81111561506e5761506d6146a2565b5b61507a8c828d01614fa4565b9650965050608061508d8c828d01614726565b94505060a061509e8c828d01614726565b93505060c06150af8c828d01614726565b92505060e08a013567ffffffffffffffff8111156150d0576150cf6146a2565b5b6150dc8c828d01614b0e565b9150509295985092959850929598565b600080604083850312156151035761510261469d565b5b6000615111858286016146f0565b9250506020615122858286016146f0565b9150509250929050565b600080600080600060a086880312156151485761514761469d565b5b6000615156888289016146f0565b9550506020615167888289016146f0565b945050604061517888828901614726565b935050606061518988828901614726565b925050608086013567ffffffffffffffff8111156151aa576151a96146a2565b5b6151b688828901614b0e565b9150509295509295909350565b7f455243313135353a2061646472657373207a65726f206973206e6f742061207660008201527f616c6964206f776e657200000000000000000000000000000000000000000000602082015250565b600061521f602a83614898565b915061522a826151c3565b604082019050919050565b6000602082019050818103600083015261524e81615212565b9050919050565b7f4e487b7100000000000000000000000000000000000000000000000000000000600052601160045260246000fd5b600061528f82614705565b915061529a83614705565b92508282039050818111156152b2576152b1615255565b5b92915050565b7f4e487b7100000000000000000000000000000000000000000000000000000000600052602260045260246000fd5b600060028204905060018216806152ff57607f821691505b602082108103615312576153116152b8565b5b50919050565b600061532382614705565b915061532e83614705565b925082820261533c81614705565b9150828204841483151761535357615352615255565b5b5092915050565b7f4e487b7100000000000000000000000000000000000000000000000000000000600052601260045260246000fd5b600061539482614705565b915061539f83614705565b9250826153af576153ae61535a565b5b828204905092915050565b7f455243313135353a2063616c6c6572206973206e6f7420746f6b656e206f776e60008201527f6572206f7220617070726f766564000000000000000000000000000000000000602082015250565b6000615416602e83614898565b9150615421826153ba565b604082019050919050565b6000602082019050818103600083015261544581615409565b9050919050565b7f43616c6c6572206973206e6f7420746865206f776e6572000000000000000000600082015250565b6000615482601783614898565b915061548d8261544c565b602082019050919050565b600060208201905081810360008301526154b181615475565b9050919050565b7f5769746864726177206e6f7420616c6c6f776564207768656e20616374697665600082015250565b60006154ee602083614898565b91506154f9826154b8565b602082019050919050565b6000602082019050818103600083015261551d816154e1565b9050919050565b7f5769746864726177206e6f7420616c6c6f77656420616674657220636f6d706c60008201527f6574696f6e000000000000000000000000000000000000000000000000000000602082015250565b6000615580602583614898565b915061558b82615524565b604082019050919050565b600060208201905081810360008301526155af81615573565b9050919050565b7f5769746864726177206e6f7420616c6c6f776564207768656e2064656661756c60008201527f7465640000000000000000000000000000000000000000000000000000000000602082015250565b6000615612602383614898565b915061561d826155b6565b604082019050919050565b6000602082019050818103600083015261564181615605565b9050919050565b7f5769746864726177616c20746f6b656e20616d6f756e7420657863656564732060008201527f746f6b656e20616d6f756e7420696e20636f6e74726163740000000000000000602082015250565b60006156a4603883614898565b91506156af82615648565b604082019050919050565b600060208201905081810360008301526156d381615697565b9050919050565b60006040820190506156ef6000830185614f09565b6156fc602083018461477b565b9392505050565b60008151905061571281614f33565b92915050565b60006020828403121561572e5761572d61469d565b5b600061573c84828501615703565b91505092915050565b7f455243313135353a206163636f756e747320616e6420696473206c656e67746860008201527f206d69736d617463680000000000000000000000000000000000000000000000602082015250565b60006157a1602983614898565b91506157ac82615745565b604082019050919050565b600060208201905081810360008301526157d081615794565b9050919050565b7f4e487b7100000000000000000000000000000000000000000000000000000000600052603260045260246000fd5b600061581182614705565b91507fffffffffffffffffffffffffffffffffffffffffffffffffffffffffffffffff820361584357615842615255565b5b600182019050919050565b600061585982614705565b915061586483614705565b925082820190508082111561587c5761587b615255565b5b92915050565b7f426f6e6420697320696e61637469766500000000000000000000000000000000600082015250565b60006158b8601083614898565b91506158c382615882565b602082019050919050565b600060208201905081810360008301526158e7816158ab565b9050919050565b7f496e73756666696369656e7420626f6e64207175616e746974792072656d616960008201527f6e696e6700000000000000000000000000000000000000000000000000000000602082015250565b600061594a602483614898565b9150615955826158ee565b604082019050919050565b600060208201905081810360008301526159798161593d565b9050919050565b60006060820190506159956000830186614f09565b6159a26020830185614f09565b6159af604083018461477b565b949350505050565b7f426f6e64206973206e6f7420636f6d706c657465640000000000000000000000600082015250565b60006159ed601583614898565b91506159f8826159b7565b602082019050919050565b60006020820190508181036000830152615a1c816159e0565b9050919050565b7f496e73756666696369656e7420626f6e64207175616e74697479000000000000600082015250565b6000615a59601a83614898565b9150615a6482615a23565b602082019050919050565b60006020820190508181036000830152615a8881615a4c565b9050919050565b7f426f6e64206973206e6f742064656661756c7465640000000000000000000000600082015250565b6000615ac5601583614898565b9150615ad082615a8f565b602082019050919050565b60006020820190508181036000830152615af481615ab8565b9050919050565b6000604082019050615b10600083018561477b565b615b1d602083018461477b565b9392505050565b7f59656172206f7074696f6e206f7574206f662072616e67650000000000000000600082015250565b6000615b5a601883614898565b9150615b6582615b24565b602082019050919050565b60006020820190508181036000830152615b8981615b4d565b9050919050565b7f416c6c206f626c69676174696f6e732066756c66696c6c656400000000000000600082015250565b6000615bc6601983614898565b9150615bd182615b90565b602082019050919050565b60006020820190508181036000830152615bf581615bb9565b9050919050565b7f4d696e696d756d206f626c69676174696f6e206e6f742066756c66696c6c6564600082015250565b6000615c32602083614898565b9150615c3d82615bfc565b602082019050919050565b60006020820190508181036000830152615c6181615c25565b9050919050565b7f46756c66696c6c6d656e742073686f756c64206e6f742065786365656420352560008201527f2061626f7665206f626c69676174696f6e000000000000000000000000000000602082015250565b6000615cc4603183614898565b9150615ccf82615c68565b604082019050919050565b60006020820190508181036000830152615cf381615cb7565b9050919050565b7f426f6e64206973206e6f742063616e63656c6564000000000000000000000000600082015250565b6000615d30601483614898565b9150615d3b82615cfa565b602082019050919050565b60006020820190508181036000830152615d5f81615d23565b9050919050565b7f426f6e6420697320616c726561647920636f6d706c6574656400000000000000600082015250565b6000615d9c601983614898565b9150615da782615d66565b602082019050919050565b60006020820190508181036000830152615dcb81615d8f565b9050919050565b7f416374697665206475726174696f6e2073686f756c642062652073686f72746560008201527f72207468616e2031383020646179730000000000000000000000000000000000602082015250565b6000615e2e602f83614898565b9150615e3982615dd2565b604082019050919050565b60006020820190508181036000830152615e5d81615e21565b9050919050565b60008190508160005260206000209050919050565b60006020601f8301049050919050565b600082821b905092915050565b600060088302615ec67fffffffffffffffffffffffffffffffffffffffffffffffffffffffffffffffff82615e89565b615ed08683615e89565b95508019841693508086168417925050509392505050565b6000819050919050565b6000615f0d615f08615f0384614705565b615ee8565b614705565b9050919050565b6000819050919050565b615f2783615ef2565b615f3b615f3382615f14565b848454615e96565b825550505050565b600090565b615f50615f43565b615f5b818484615f1e565b505050565b5b81811015615f7f57615f74600082615f48565b600181019050615f61565b5050565b601f821115615fc457615f9581615e64565b615f9e84615e79565b81016020851015615fad578190505b615fc1615fb985615e79565b830182615f60565b50505b505050565b600082821c905092915050565b6000615fe760001984600802615fc9565b1980831691505092915050565b60006160008383615fd6565b9150826002028217905092915050565b6160198261488d565b67ffffffffffffffff81111561603257616031614944565b5b61603c82546152e7565b616047828285615f83565b600060209050601f83116001811461607a5760008415616068578287015190505b6160728582615ff4565b8655506160da565b601f19841661608886615e64565b60005b828110156160b05784890151825560018201915060208501945060208101905061608b565b868310156160cd57848901516160c9601f891682615fd6565b8355505b6001600288020188555050505b505050505050565b60006060820190506160f7600083018661477b565b616104602083018561477b565b616111604083018461477b565b949350505050565b7f626f6e642069732064656661756c746564000000000000000000000000000000600082015250565b600061614f601183614898565b915061615a82616119565b602082019050919050565b6000602082019050818103600083015261617e81616142565b9050919050565b7f626f6e6420697320636f6d706c65746564000000000000000000000000000000600082015250565b60006161bb601183614898565b91506161c682616185565b602082019050919050565b600060208201905081810360008301526161ea816161ae565b9050919050565b6000815190506162008161470f565b92915050565b60006020828403121561621c5761621b61469d565b5b600061622a848285016161f1565b91505092915050565b7f43616e6e6f742077697468647261772065786365737300000000000000000000600082015250565b6000616269601683614898565b915061627482616233565b602082019050919050565b600060208201905081810360008301526162988161625c565b9050919050565b7f43616e6e6f742077697468647261772066726f6d20656d70747920706f6f6c00600082015250565b60006162d5601f83614898565b91506162e08261629f565b602082019050919050565b60006020820190508181036000830152616304816162c8565b9050919050565b7f455243313135353a2069647320616e6420616d6f756e7473206c656e6774682060008201527f6d69736d61746368000000000000000000000000000000000000000000000000602082015250565b6000616367602883614898565b91506163728261630b565b604082019050919050565b600060208201905081810360008301526163968161635a565b9050919050565b7f455243313135353a207472616e7366657220746f20746865207a65726f20616460008201527f6472657373000000000000000000000000000000000000000000000000000000602082015250565b60006163f9602583614898565b91506164048261639d565b604082019050919050565b60006020820190508181036000830152616428816163ec565b9050919050565b7f455243313135353a20696e73756666696369656e742062616c616e636520666f60008201527f72207472616e7366657200000000000000000000000000000000000000000000602082015250565b600061648b602a83614898565b91506164968261642f565b604082019050919050565b600060208201905081810360008301526164ba8161647e565b9050919050565b600060408201905081810360008301526164db8185614de6565b905081810360208301526164ef8184614de6565b90509392505050565b7f455243313135353a206275726e2066726f6d20746865207a65726f206164647260008201527f6573730000000000000000000000000000000000000000000000000000000000602082015250565b6000616554602383614898565b915061655f826164f8565b604082019050919050565b6000602082019050818103600083015261658381616547565b9050919050565b7f455243313135353a206275726e20616d6f756e7420657863656564732062616c60008201527f616e636500000000000000000000000000000000000000000000000000000000602082015250565b60006165e6602483614898565b91506165f18261658a565b604082019050919050565b60006020820190508181036000830152616615816165d9565b9050919050565b7f455243313135353a2073657474696e6720617070726f76616c2073746174757360008201527f20666f722073656c660000000000000000000000000000000000000000000000602082015250565b6000616678602983614898565b91506166838261661c565b604082019050919050565b600060208201905081810360008301526166a78161666b565b9050919050565b7f455243313135353a206d696e7420746f20746865207a65726f2061646472657360008201527f7300000000000000000000000000000000000000000000000000000000000000602082015250565b600061670a602183614898565b9150616715826166ae565b604082019050919050565b60006020820190508181036000830152616739816166fd565b9050919050565b600081519050919050565b600082825260208201905092915050565b600061676782616740565b616771818561674b565b93506167818185602086016148a9565b61678a816148d3565b840191505092915050565b600060a0820190506167aa6000830188614f09565b6167b76020830187614f09565b81810360408301526167c98186614de6565b905081810360608301526167dd8185614de6565b905081810360808301526167f1818461675c565b90509695505050505050565b60008151905061680c816147d1565b92915050565b6000602082840312156168285761682761469d565b5b6000616836848285016167fd565b91505092915050565b60008160e01c9050919050565b600060033d111561686b5760046000803e61686860005161683f565b90505b90565b600060443d106168fb57616880614693565b60043d036004823e80513d602482011167ffffffffffffffff821117156168a85750506168fb565b808201805167ffffffffffffffff8111156168c657505050506168fb565b80602083010160043d0385018111156168e35750505050506168fb565b6168f282602001850186614973565b82955050505050505b90565b7f455243313135353a207472616e7366657220746f206e6f6e2d4552433131353560008201527f526563656976657220696d706c656d656e746572000000000000000000000000602082015250565b600061695a603483614898565b9150616965826168fe565b604082019050919050565b600060208201905081810360008301526169898161694d565b9050919050565b7f455243313135353a204552433131353552656365697665722072656a6563746560008201527f6420746f6b656e73000000000000000000000000000000000000000000000000602082015250565b60006169ec602883614898565b91506169f782616990565b604082019050919050565b60006020820190508181036000830152616a1b816169df565b9050919050565b600060a082019050616a376000830188614f09565b616a446020830187614f09565b616a51604083018661477b565b616a5e606083018561477b565b8181036080830152616a70818461675c565b9050969550505050505056fea2646970667358221220d44b25a9106db235e846cf3f40959454e3a56d85ce85edec9f6e2ba60aea7f1564736f6c6343000811003360c060405260006003553480156200001657600080fd5b50604051620063523803806200635283398181016040528101906200003c9190620002cd565b826200004e81620000c060201b60201c565b508073ffffffffffffffffffffffffffffffffffffffff1660808173ffffffffffffffffffffffffffffffffffffffff16815250508173ffffffffffffffffffffffffffffffffffffffff1660a08173ffffffffffffffffffffffffffffffffffffffff16815250505050506200067a565b8060029081620000d1919062000593565b5050565b6000604051905090565b600080fd5b600080fd5b600080fd5b600080fd5b6000601f19601f8301169050919050565b7f4e487b7100000000000000000000000000000000000000000000000000000000600052604160045260246000fd5b6200013e82620000f3565b810181811067ffffffffffffffff8211171562000160576200015f62000104565b5b80604052505050565b600062000175620000d5565b905062000183828262000133565b919050565b600067ffffffffffffffff821115620001a657620001a562000104565b5b620001b182620000f3565b9050602081019050919050565b60005b83811015620001de578082015181840152602081019050620001c1565b60008484015250505050565b600062000201620001fb8462000188565b62000169565b90508281526020810184848401111562000220576200021f620000ee565b5b6200022d848285620001be565b509392505050565b600082601f8301126200024d576200024c620000e9565b5b81516200025f848260208601620001ea565b91505092915050565b600073ffffffffffffffffffffffffffffffffffffffff82169050919050565b6000620002958262000268565b9050919050565b620002a78162000288565b8114620002b357600080fd5b50565b600081519050620002c7816200029c565b92915050565b600080600060608486031215620002e957620002e8620000df565b5b600084015167ffffffffffffffff8111156200030a5762000309620000e4565b5b620003188682870162000235565b93505060206200032b86828701620002b6565b92505060406200033e86828701620002b6565b9150509250925092565b600081519050919050565b7f4e487b7100000000000000000000000000000000000000000000000000000000600052602260045260246000fd5b600060028204905060018216806200039b57607f821691505b602082108103620003b157620003b062000353565b5b50919050565b60008190508160005260206000209050919050565b60006020601f8301049050919050565b600082821b905092915050565b6000600883026200041b7fffffffffffffffffffffffffffffffffffffffffffffffffffffffffffffffff82620003dc565b620004278683620003dc565b95508019841693508086168417925050509392505050565b6000819050919050565b6000819050919050565b6000620004746200046e62000468846200043f565b62000449565b6200043f565b9050919050565b6000819050919050565b620004908362000453565b620004a86200049f826200047b565b848454620003e9565b825550505050565b600090565b620004bf620004b0565b620004cc81848462000485565b505050565b5b81811015620004f457620004e8600082620004b5565b600181019050620004d2565b5050565b601f82111562000543576200050d81620003b7565b6200051884620003cc565b8101602085101562000528578190505b620005406200053785620003cc565b830182620004d1565b50505b505050565b600082821c905092915050565b6000620005686000198460080262000548565b1980831691505092915050565b600062000583838362000555565b9150826002028217905092915050565b6200059e8262000348565b67ffffffffffffffff811115620005ba57620005b962000104565b5b620005c6825462000382565b620005d3828285620004f8565b600060209050601f8311600181146200060b5760008415620005f6578287015190505b62000602858262000575565b86555062000672565b601f1984166200061b86620003b7565b60005b8281101562000645578489015182556001820191506020850194506020810190506200061e565b8683101562000665578489015162000661601f89168262000555565b8355505b6001600288020188555050505b505050505050565b60805160a051615c506200070260003960008181610f3f01528181611392015281816115a801528181611a7c01528181611c4901528181611e260152818161206c0152818161214f01528181612539015281816125e001526127d5015260008181610cfd0152818161184201528181612177015281816123df015261267f0152615c506000f3fe608060405234801561001057600080fd5b50600436106102525760003560e01c806382afd23b11610146578063b09f2b1c116100c3578063e2bbb15811610087578063e2bbb15814610806578063e5328e0614610822578063e755ddd714610840578063e985e9c51461085c578063f0d8100a1461088c578063f242432a146108bc57610252565b8063b09f2b1c14610750578063c0a6026c1461076c578063c55dae6314610788578063c7bc5730146107a6578063d3b7811b146107d657610252565b8063932a8de01161010a578063932a8de01461069c578063a22cb465146106cc578063a8743022146106e8578063a996ef0814610704578063abac75e11461072057610252565b806382afd23b146105b557806388bdc083146105e55780638c3526c2146106155780638da5cb5b1461064e5780638f0dbf771461066c57610252565b806339e3af9b116101d45780636ff80d93116101985780636ff80d93146104ed57806370876c981461051d57806377e2a08b146105395780637a41984b146105695780637cbc23731461059957610252565b806339e3af9b14610423578063441a3e70146104535780634e1273f41461046f578063549493bb1461049f5780636681b9fd146104cf57610252565b80630e89341c1161021b5780630e89341c1461034757806314f29493146103775780632eb2c2d6146103a75780632f3ad61f146103c35780633097afb8146103f357610252565b8062fdd58e1461025757806301ffc9a71461028757806302159497146102b757806308913ce8146102e75780630914902014610317575b600080fd5b610271600480360381019061026c9190613a6d565b6108d8565b60405161027e9190613abc565b60405180910390f35b6102a1600480360381019061029c9190613b2f565b6109a0565b6040516102ae9190613b77565b60405180910390f35b6102d160048036038101906102cc9190613b92565b610a82565b6040516102de9190613abc565b60405180910390f35b61030160048036038101906102fc9190613b92565b610a9f565b60405161030e9190613abc565b60405180910390f35b610331600480360381019061032c9190613b92565b610aca565b60405161033e9190613b77565b60405180910390f35b610361600480360381019061035c9190613b92565b610b00565b60405161036e9190613c4f565b60405180910390f35b610391600480360381019061038c9190613b92565b610b94565b60405161039e9190613abc565b60405180910390f35b6103c160048036038101906103bc9190613e6e565b610bd2565b005b6103dd60048036038101906103d89190613b92565b610c73565b6040516103ea9190613b77565b60405180910390f35b61040d60048036038101906104089190613b92565b610c9d565b60405161041a9190613b77565b60405180910390f35b61043d60048036038101906104389190613b92565b610cd6565b60405161044a9190613b77565b60405180910390f35b61046d60048036038101906104689190613f3d565b610cfb565b005b61048960048036038101906104849190614040565b610fe0565b6040516104969190614176565b60405180910390f35b6104b960048036038101906104b49190613b92565b6110f9565b6040516104c69190613b77565b60405180910390f35b6104d761112b565b6040516104e49190613abc565b60405180910390f35b61050760048036038101906105029190613b92565b611135565b6040516105149190613b77565b60405180910390f35b61053760048036038101906105329190613f3d565b61116d565b005b610553600480360381019061054e9190613b92565b611437565b6040516105609190613abc565b60405180910390f35b610583600480360381019061057e9190613b92565b611490565b6040516105909190613b77565b60405180910390f35b6105b360048036038101906105ae9190613f3d565b6114ba565b005b6105cf60048036038101906105ca9190613b92565b611674565b6040516105dc9190613b77565b60405180910390f35b6105ff60048036038101906105fa9190613b92565b611697565b60405161060c9190613abc565b60405180910390f35b61062f600480360381019061062a9190613b92565b6116ca565b6040516106459a99989796959493929190614198565b60405180910390f35b61065661183e565b604051610663919061424a565b60405180910390f35b61068660048036038101906106819190613b92565b611866565b6040516106939190613b77565b60405180910390f35b6106b660048036038101906106b19190613b92565b611888565b6040516106c39190613abc565b60405180910390f35b6106e660048036038101906106e19190614291565b6118c6565b005b61070260048036038101906106fd9190613b92565b6118dc565b005b61071e60048036038101906107199190613f3d565b611b5b565b005b61073a60048036038101906107359190613b92565b611d15565b6040516107479190613abc565b60405180910390f35b61076a60048036038101906107659190613f3d565b611d35565b005b61078660048036038101906107819190613b92565b611ef2565b005b61079061214b565b60405161079d919061424a565b60405180910390f35b6107c060048036038101906107bb9190614372565b612173565b6040516107cd9190613abc565b60405180910390f35b6107f060048036038101906107eb9190613b92565b6123aa565b6040516107fd9190613abc565b60405180910390f35b610820600480360381019061081b9190613f3d565b6123dd565b005b61082a6125dc565b6040516108379190613abc565b60405180910390f35b61085a60048036038101906108559190613b92565b61267d565b005b61087660048036038101906108719190614460565b612888565b6040516108839190613b77565b60405180910390f35b6108a660048036038101906108a19190613b92565b61291c565b6040516108b39190613abc565b60405180910390f35b6108d660048036038101906108d191906144a0565b612939565b005b60008073ffffffffffffffffffffffffffffffffffffffff168373ffffffffffffffffffffffffffffffffffffffff1603610948576040517f08c379a000000000000000000000000000000000000000000000000000000000815260040161093f906145a9565b60405180910390fd5b60008083815260200190815260200160002060008473ffffffffffffffffffffffffffffffffffffffff1673ffffffffffffffffffffffffffffffffffffffff16815260200190815260200160002054905092915050565b60007fd9b67a26000000000000000000000000000000000000000000000000000000007bffffffffffffffffffffffffffffffffffffffffffffffffffffffff1916827bffffffffffffffffffffffffffffffffffffffffffffffffffffffff19161480610a6b57507f0e89341c000000000000000000000000000000000000000000000000000000007bffffffffffffffffffffffffffffffffffffffffffffffffffffffff1916827bffffffffffffffffffffffffffffffffffffffffffffffffffffffff1916145b80610a7b5750610a7a826129da565b5b9050919050565b600060086000838152602001908152602001600020549050919050565b6000600560008381526020019081526020016000206002015442610ac391906145f8565b9050919050565b60006005600083815260200190815260200160002060080154600660008481526020019081526020016000205410159050919050565b606060028054610b0f9061465b565b80601f0160208091040260200160405190810160405280929190818152602001828054610b3b9061465b565b8015610b885780601f10610b5d57610100808354040283529160200191610b88565b820191906000526020600020905b815481529060010190602001808311610b6b57829003601f168201915b50505050509050919050565b600060066000838152602001908152602001600020546005600084815260200190815260200160002060010154610bcb919061468c565b9050919050565b610bda612a44565b73ffffffffffffffffffffffffffffffffffffffff168573ffffffffffffffffffffffffffffffffffffffff161480610c205750610c1f85610c1a612a44565b612888565b5b610c5f576040517f08c379a0000000000000000000000000000000000000000000000000000000008152600401610c5690614740565b60405180910390fd5b610c6c8585858585612a4c565b5050505050565b6000600b600083815260200190815260200160002060009054906101000a900460ff169050919050565b6000610ca882611866565b8015610ccf5750610cb882611437565b600860008481526020019081526020016000205410155b9050919050565b6000610ce182611674565b158015610cf45750610cf282610aca565b155b9050919050565b7f000000000000000000000000000000000000000000000000000000000000000073ffffffffffffffffffffffffffffffffffffffff163373ffffffffffffffffffffffffffffffffffffffff1614610d89576040517f08c379a0000000000000000000000000000000000000000000000000000000008152600401610d80906147ac565b60405180910390fd5b610d9282611674565b15610dd2576040517f08c379a0000000000000000000000000000000000000000000000000000000008152600401610dc990614818565b60405180910390fd5b610ddb82610cd6565b15610e1b576040517f08c379a0000000000000000000000000000000000000000000000000000000008152600401610e1290614818565b60405180910390fd5b610e2482611490565b15610e64576040517f08c379a0000000000000000000000000000000000000000000000000000000008152600401610e5b906148aa565b60405180910390fd5b610e6d82610c73565b80610e7d5750610e7c82611135565b5b15610ebd576040517f08c379a0000000000000000000000000000000000000000000000000000000008152600401610eb49061493c565b60405180910390fd5b6008600083815260200190815260200160002054811115610f13576040517f08c379a0000000000000000000000000000000000000000000000000000000008152600401610f0a906149ce565b60405180910390fd5b80600860008481526020019081526020016000206000828254610f3691906145f8565b925050819055507f000000000000000000000000000000000000000000000000000000000000000073ffffffffffffffffffffffffffffffffffffffff1663a9059cbb33836040518363ffffffff1660e01b8152600401610f989291906149ee565b6020604051808303816000875af1158015610fb7573d6000803e3d6000fd5b505050506040513d601f19601f82011682018060405250810190610fdb9190614a2c565b505050565b60608151835114611026576040517f08c379a000000000000000000000000000000000000000000000000000000000815260040161101d90614acb565b60405180910390fd5b6000835167ffffffffffffffff81111561104357611042613c76565b5b6040519080825280602002602001820160405280156110715781602001602082028036833780820191505090505b50905060005b84518110156110ee576110be85828151811061109657611095614aeb565b5b60200260200101518583815181106110b1576110b0614aeb565b5b60200260200101516108d8565b8282815181106110d1576110d0614aeb565b5b602002602001018181525050806110e790614b1a565b9050611077565b508091505092915050565b600060066000838152602001908152602001600020546007600084815260200190815260200160002054149050919050565b6000600454905090565b600061114082611866565b8015611166575061115082611437565b6008600084815260200190815260200160002054105b9050919050565b61117682611674565b6111b5576040517f08c379a00000000000000000000000000000000000000000000000000000000081526004016111ac90614bae565b60405180910390fd5b806111bf83611888565b1015611200576040517f08c379a00000000000000000000000000000000000000000000000000000000081526004016111f790614c40565b60405180910390fd5b600060056000848152602001908152602001600020604051806101400160405290816000820180546112319061465b565b80601f016020809104026020016040519081016040528092919081815260200182805461125d9061465b565b80156112aa5780601f1061127f576101008083540402835291602001916112aa565b820191906000526020600020905b81548152906001019060200180831161128d57829003601f168201915b50505050508152602001600182015481526020016002820154815260200160038201548152602001600482015481526020016005820154815260200160068201548152602001600782015481526020016008820154815260200160098201548152505090506000816020015183611321919061468c565b9050826006600086815260200190815260200160002060008282546113469190614c60565b92505081905550806008600086815260200190815260200160002060008282546113709190614c60565b9250508190555080600460008282546113899190614c60565b925050819055507f000000000000000000000000000000000000000000000000000000000000000073ffffffffffffffffffffffffffffffffffffffff166323b872dd3330846040518463ffffffff1660e01b81526004016113ed93929190614c94565b6020604051808303816000875af115801561140c573d6000803e3d6000fd5b505050506040513d601f19601f820116820180604052508101906114309190614a2c565b5050505050565b6000670de0b6b3a7640000600560008481526020019081526020016000206009015461146284610b94565b61146c919061468c565b6114769190614cfa565b61147f83610b94565b6114899190614c60565b9050919050565b6000600c600083815260200190815260200160002060009054906101000a900460ff169050919050565b6114c382611490565b611502576040517f08c379a00000000000000000000000000000000000000000000000000000000081526004016114f990614d77565b60405180910390fd5b8061150d33846108d8565b101561154e576040517f08c379a000000000000000000000000000000000000000000000000000000000815260040161154590614de3565b60405180910390fd5b611559338383612d6d565b8060076000848152602001908152602001600020600082825461157c9190614c60565b925050819055506000600a600084815260200190815260200160002054826115a4919061468c565b90507f000000000000000000000000000000000000000000000000000000000000000073ffffffffffffffffffffffffffffffffffffffff1663a9059cbb33836040518363ffffffff1660e01b81526004016116019291906149ee565b6020604051808303816000875af1158015611620573d6000803e3d6000fd5b505050506040513d601f19601f820116820180604052508101906116449190614a2c565b508060086000858152602001908152602001600020600082825461166891906145f8565b92505081905550505050565b600060056000838152602001908152602001600020600401544211159050919050565b60006116a282610a9f565b60056000848152602001908152602001600020600501546116c391906145f8565b9050919050565b6060600080600080600080600080600080600560008d81526020019081526020016000206040518061014001604052908160008201805461170a9061465b565b80601f01602080910402602001604051908101604052809291908181526020018280546117369061465b565b80156117835780601f1061175857610100808354040283529160200191611783565b820191906000526020600020905b81548152906001019060200180831161176657829003601f168201915b5050505050815260200160018201548152602001600282015481526020016003820154815260200160048201548152602001600582015481526020016006820154815260200160078201548152602001600882015481526020016009820154815250509050806000015181602001518260400151836060015184608001518560a001518660c001518760e001518861010001518961012001519a509a509a509a509a509a509a509a509a509a50509193959799509193959799565b60007f0000000000000000000000000000000000000000000000000000000000000000905090565b6000600560008381526020019081526020016000206003015442119050919050565b6000600660008381526020019081526020016000205460056000848152602001908152602001600020600701546118bf91906145f8565b9050919050565b6118d86118d1612a44565b8383612fb3565b5050565b6118e581611490565b1580156118f857506118f681610c73565b155b8015611909575061190881611135565b5b611948576040517f08c379a000000000000000000000000000000000000000000000000000000000815260040161193f90614e4f565b60405180910390fd5b600061195382611437565b905060006103e860086000858152602001908152602001600020546119789190614cfa565b9050600081600860008681526020019081526020016000205461199b91906145f8565b90506006600085815260200190815260200160002054816119bc9190614cfa565b6009600086815260200190815260200160002081905550600060066000868152602001908152602001600020546009600087815260200190815260200160002054611a07919061468c565b82611a1291906145f8565b905060008184611a229190614c60565b905080600860008881526020019081526020016000206000828254611a4791906145f8565b925050819055506001600b600088815260200190815260200160002060006101000a81548160ff0219169083151502179055507f000000000000000000000000000000000000000000000000000000000000000073ffffffffffffffffffffffffffffffffffffffff1663a9059cbb33836040518363ffffffff1660e01b8152600401611ad59291906149ee565b6020604051808303816000875af1158015611af4573d6000803e3d6000fd5b505050506040513d601f19601f82011682018060405250810190611b189190614a2c565b50857fc4f17a65d54873d57229ea5f59c4ddec592d095bc17581372676402c8228b9cd8685604051611b4b929190614e6f565b60405180910390a2505050505050565b611b6482610c73565b611ba3576040517f08c379a0000000000000000000000000000000000000000000000000000000008152600401611b9a90614e4f565b60405180910390fd5b80611bae33846108d8565b1015611bef576040517f08c379a0000000000000000000000000000000000000000000000000000000008152600401611be690614de3565b60405180910390fd5b611bfa338383612d6d565b80600760008481526020019081526020016000206000828254611c1d9190614c60565b925050819055506000600960008481526020019081526020016000205482611c45919061468c565b90507f000000000000000000000000000000000000000000000000000000000000000073ffffffffffffffffffffffffffffffffffffffff1663a9059cbb33836040518363ffffffff1660e01b8152600401611ca29291906149ee565b6020604051808303816000875af1158015611cc1573d6000803e3d6000fd5b505050506040513d601f19601f82011682018060405250810190611ce59190614a2c565b5080600860008581526020019081526020016000206000828254611d0991906145f8565b92505081905550505050565b600060056000838152602001908152602001600020600901549050919050565b611d3e82610cd6565b611d7d576040517f08c379a0000000000000000000000000000000000000000000000000000000008152600401611d7490614ee4565b60405180910390fd5b80611d8833846108d8565b1015611dc9576040517f08c379a0000000000000000000000000000000000000000000000000000000008152600401611dc090614de3565b60405180910390fd5b611dd4338383612d6d565b80600760008481526020019081526020016000206000828254611df79190614c60565b925050819055506000600560008481526020019081526020016000206001015482611e22919061468c565b90507f000000000000000000000000000000000000000000000000000000000000000073ffffffffffffffffffffffffffffffffffffffff1663a9059cbb33836040518363ffffffff1660e01b8152600401611e7f9291906149ee565b6020604051808303816000875af1158015611e9e573d6000803e3d6000fd5b505050506040513d601f19601f82011682018060405250810190611ec29190614a2c565b5080600860008581526020019081526020016000206000828254611ee691906145f8565b92505081905550505050565b611efb81610c73565b158015611f0e5750611f0c81611490565b155b8015611f1f5750611f1e81610c9d565b5b611f5e576040517f08c379a0000000000000000000000000000000000000000000000000000000008152600401611f5590614f50565b60405180910390fd5b6000611f6982611437565b905060006103e882611f7b9190614cfa565b905060008183611f8b91906145f8565b9050600660008581526020019081526020016000205481611fac9190614cfa565b600a60008681526020019081526020016000208190555060006006600086815260200190815260200160002054600a600087815260200190815260200160002054611ff7919061468c565b8261200291906145f8565b9050600081846120129190614c60565b90508060086000888152602001908152602001600020600082825461203791906145f8565b925050819055506001600c600088815260200190815260200160002060006101000a81548160ff0219169083151502179055507f000000000000000000000000000000000000000000000000000000000000000073ffffffffffffffffffffffffffffffffffffffff1663a9059cbb33836040518363ffffffff1660e01b81526004016120c59291906149ee565b6020604051808303816000875af11580156120e4573d6000803e3d6000fd5b505050506040513d601f19601f820116820180604052508101906121089190614a2c565b50857fac2eeaf45d1b75aed6b3285cda3efb3c382cce02ba313558bbb90be57f8843e4868560405161213b929190614e6f565b60405180910390a2505050505050565b60007f0000000000000000000000000000000000000000000000000000000000000000905090565b60007f000000000000000000000000000000000000000000000000000000000000000073ffffffffffffffffffffffffffffffffffffffff163373ffffffffffffffffffffffffffffffffffffffff1614612203576040517f08c379a00000000000000000000000000000000000000000000000000000000081526004016121fa906147ac565b60405180910390fd5b848410612245576040517f08c379a000000000000000000000000000000000000000000000000000000000815260040161223c90614fe2565b60405180910390fd5b60016003546122549190614c60565b905061226233828b8561311f565b604051806101400160405280878152602001888152602001428152602001620151808761228f919061468c565b4261229a9190614c60565b815260200162015180866122ae919061468c565b426122b99190614c60565b81526020018581526020018681526020018a81526020018981526020018481525060056000838152602001908152602001600020600082015181600001908161230291906151ae565b506020820151816001015560408201518160020155606082015181600301556080820151816004015560a0820151816005015560c0820151816006015560e0820151816007015561010082015181600801556101208201518160090155905050807f3e5b89bff97cb92eafe4cd460ef4aa43d6feef1428595fe038182876515968fd8a898660405161239693929190615280565b60405180910390a298975050505050505050565b60006123b582610a9f565b60056000848152602001908152602001600020600601546123d691906145f8565b9050919050565b7f000000000000000000000000000000000000000000000000000000000000000073ffffffffffffffffffffffffffffffffffffffff163373ffffffffffffffffffffffffffffffffffffffff161461246b576040517f08c379a0000000000000000000000000000000000000000000000000000000008152600401612462906147ac565b60405180910390fd5b61247482610c73565b80612484575061248382611135565b5b156124c4576040517f08c379a00000000000000000000000000000000000000000000000000000000081526004016124bb90615303565b60405180910390fd5b6124cd82611490565b1561250d576040517f08c379a00000000000000000000000000000000000000000000000000000000081526004016125049061536f565b60405180910390fd5b806008600084815260200190815260200160002060008282546125309190614c60565b925050819055507f000000000000000000000000000000000000000000000000000000000000000073ffffffffffffffffffffffffffffffffffffffff166323b872dd3330846040518463ffffffff1660e01b815260040161259493929190614c94565b6020604051808303816000875af11580156125b3573d6000803e3d6000fd5b505050506040513d601f19601f820116820180604052508101906125d79190614a2c565b505050565b60007f000000000000000000000000000000000000000000000000000000000000000073ffffffffffffffffffffffffffffffffffffffff166370a08231306040518263ffffffff1660e01b8152600401612637919061424a565b602060405180830381865afa158015612654573d6000803e3d6000fd5b505050506040513d601f19601f8201168201806040525081019061267891906153a4565b905090565b7f000000000000000000000000000000000000000000000000000000000000000073ffffffffffffffffffffffffffffffffffffffff163373ffffffffffffffffffffffffffffffffffffffff161461270b576040517f08c379a0000000000000000000000000000000000000000000000000000000008152600401612702906147ac565b60405180910390fd5b61271481611490565b80156127255750612724816110f9565b5b612764576040517f08c379a000000000000000000000000000000000000000000000000000000000815260040161275b9061541d565b60405180910390fd5b60006008600083815260200190815260200160002054116127ba576040517f08c379a00000000000000000000000000000000000000000000000000000000081526004016127b190615489565b60405180910390fd5b600060086000838152602001908152602001600020819055507f000000000000000000000000000000000000000000000000000000000000000073ffffffffffffffffffffffffffffffffffffffff1663a9059cbb3360086000858152602001908152602001600020546040518363ffffffff1660e01b81526004016128419291906149ee565b6020604051808303816000875af1158015612860573d6000803e3d6000fd5b505050506040513d601f19601f820116820180604052508101906128849190614a2c565b5050565b6000600160008473ffffffffffffffffffffffffffffffffffffffff1673ffffffffffffffffffffffffffffffffffffffff16815260200190815260200160002060008373ffffffffffffffffffffffffffffffffffffffff1673ffffffffffffffffffffffffffffffffffffffff16815260200190815260200160002060009054906101000a900460ff16905092915050565b600060086000838152602001908152602001600020549050919050565b612941612a44565b73ffffffffffffffffffffffffffffffffffffffff168573ffffffffffffffffffffffffffffffffffffffff161480612987575061298685612981612a44565b612888565b5b6129c6576040517f08c379a00000000000000000000000000000000000000000000000000000000081526004016129bd90614740565b60405180910390fd5b6129d385858585856132cf565b5050505050565b60007f01ffc9a7000000000000000000000000000000000000000000000000000000007bffffffffffffffffffffffffffffffffffffffffffffffffffffffff1916827bffffffffffffffffffffffffffffffffffffffffffffffffffffffff1916149050919050565b600033905090565b8151835114612a90576040517f08c379a0000000000000000000000000000000000000000000000000000000008152600401612a879061551b565b60405180910390fd5b600073ffffffffffffffffffffffffffffffffffffffff168473ffffffffffffffffffffffffffffffffffffffff1603612aff576040517f08c379a0000000000000000000000000000000000000000000000000000000008152600401612af6906155ad565b60405180910390fd5b6000612b09612a44565b9050612b1981878787878761356a565b60005b8451811015612cca576000858281518110612b3a57612b39614aeb565b5b602002602001015190506000858381518110612b5957612b58614aeb565b5b60200260200101519050600080600084815260200190815260200160002060008b73ffffffffffffffffffffffffffffffffffffffff1673ffffffffffffffffffffffffffffffffffffffff16815260200190815260200160002054905081811015612bfa576040517f08c379a0000000000000000000000000000000000000000000000000000000008152600401612bf19061563f565b60405180910390fd5b81810360008085815260200190815260200160002060008c73ffffffffffffffffffffffffffffffffffffffff1673ffffffffffffffffffffffffffffffffffffffff168152602001908152602001600020819055508160008085815260200190815260200160002060008b73ffffffffffffffffffffffffffffffffffffffff1673ffffffffffffffffffffffffffffffffffffffff1681526020019081526020016000206000828254612caf9190614c60565b9250508190555050505080612cc390614b1a565b9050612b1c565b508473ffffffffffffffffffffffffffffffffffffffff168673ffffffffffffffffffffffffffffffffffffffff168273ffffffffffffffffffffffffffffffffffffffff167f4a39dc06d4c0dbc64b70af90fd698a233a518aa5d07e595d983b8c0526c8f7fb8787604051612d4192919061565f565b60405180910390a4612d57818787878787613572565b612d6581878787878761357a565b505050505050565b600073ffffffffffffffffffffffffffffffffffffffff168373ffffffffffffffffffffffffffffffffffffffff1603612ddc576040517f08c379a0000000000000000000000000000000000000000000000000000000008152600401612dd390615708565b60405180910390fd5b6000612de6612a44565b90506000612df384613751565b90506000612e0084613751565b9050612e208387600085856040518060200160405280600081525061356a565b600080600087815260200190815260200160002060008873ffffffffffffffffffffffffffffffffffffffff1673ffffffffffffffffffffffffffffffffffffffff16815260200190815260200160002054905084811015612eb7576040517f08c379a0000000000000000000000000000000000000000000000000000000008152600401612eae9061579a565b60405180910390fd5b84810360008088815260200190815260200160002060008973ffffffffffffffffffffffffffffffffffffffff1673ffffffffffffffffffffffffffffffffffffffff16815260200190815260200160002081905550600073ffffffffffffffffffffffffffffffffffffffff168773ffffffffffffffffffffffffffffffffffffffff168573ffffffffffffffffffffffffffffffffffffffff167fc3d58168c5ae7397731d063d5bbf3d657854427343f4c083240f7aacaa2d0f628989604051612f84929190614e6f565b60405180910390a4612faa84886000868660405180602001604052806000815250613572565b50505050505050565b8173ffffffffffffffffffffffffffffffffffffffff168373ffffffffffffffffffffffffffffffffffffffff1603613021576040517f08c379a00000000000000000000000000000000000000000000000000000000081526004016130189061582c565b60405180910390fd5b80600160008573ffffffffffffffffffffffffffffffffffffffff1673ffffffffffffffffffffffffffffffffffffffff16815260200190815260200160002060008473ffffffffffffffffffffffffffffffffffffffff1673ffffffffffffffffffffffffffffffffffffffff16815260200190815260200160002060006101000a81548160ff0219169083151502179055508173ffffffffffffffffffffffffffffffffffffffff168373ffffffffffffffffffffffffffffffffffffffff167f17307eab39ab6107e8899845ad3d59bd9653f200f220920489ca2b5937696c31836040516131129190613b77565b60405180910390a3505050565b600073ffffffffffffffffffffffffffffffffffffffff168473ffffffffffffffffffffffffffffffffffffffff160361318e576040517f08c379a0000000000000000000000000000000000000000000000000000000008152600401613185906158be565b60405180910390fd5b6000613198612a44565b905060006131a585613751565b905060006131b285613751565b90506131c38360008985858961356a565b8460008088815260200190815260200160002060008973ffffffffffffffffffffffffffffffffffffffff1673ffffffffffffffffffffffffffffffffffffffff16815260200190815260200160002060008282546132229190614c60565b925050819055508673ffffffffffffffffffffffffffffffffffffffff16600073ffffffffffffffffffffffffffffffffffffffff168473ffffffffffffffffffffffffffffffffffffffff167fc3d58168c5ae7397731d063d5bbf3d657854427343f4c083240f7aacaa2d0f6289896040516132a0929190614e6f565b60405180910390a46132b783600089858589613572565b6132c6836000898989896137cb565b50505050505050565b600073ffffffffffffffffffffffffffffffffffffffff168473ffffffffffffffffffffffffffffffffffffffff160361333e576040517f08c379a0000000000000000000000000000000000000000000000000000000008152600401613335906155ad565b60405180910390fd5b6000613348612a44565b9050600061335585613751565b9050600061336285613751565b905061337283898985858961356a565b600080600088815260200190815260200160002060008a73ffffffffffffffffffffffffffffffffffffffff1673ffffffffffffffffffffffffffffffffffffffff16815260200190815260200160002054905085811015613409576040517f08c379a00000000000000000000000000000000000000000000000000000000081526004016134009061563f565b60405180910390fd5b85810360008089815260200190815260200160002060008b73ffffffffffffffffffffffffffffffffffffffff1673ffffffffffffffffffffffffffffffffffffffff168152602001908152602001600020819055508560008089815260200190815260200160002060008a73ffffffffffffffffffffffffffffffffffffffff1673ffffffffffffffffffffffffffffffffffffffff16815260200190815260200160002060008282546134be9190614c60565b925050819055508773ffffffffffffffffffffffffffffffffffffffff168973ffffffffffffffffffffffffffffffffffffffff168573ffffffffffffffffffffffffffffffffffffffff167fc3d58168c5ae7397731d063d5bbf3d657854427343f4c083240f7aacaa2d0f628a8a60405161353b929190614e6f565b60405180910390a4613551848a8a86868a613572565b61355f848a8a8a8a8a6137cb565b505050505050505050565b505050505050565b505050505050565b6135998473ffffffffffffffffffffffffffffffffffffffff166139a2565b15613749578373ffffffffffffffffffffffffffffffffffffffff1663bc197c8187878686866040518663ffffffff1660e01b81526004016135df959493929190615933565b6020604051808303816000875af192505050801561361b57506040513d601f19601f8201168201806040525081019061361891906159b0565b60015b6136c0576136276159ea565b806308c379a003613683575061363b615a0c565b806136465750613685565b806040517f08c379a000000000000000000000000000000000000000000000000000000000815260040161367a9190613c4f565b60405180910390fd5b505b6040517f08c379a00000000000000000000000000000000000000000000000000000000081526004016136b790615b0e565b60405180910390fd5b63bc197c8160e01b7bffffffffffffffffffffffffffffffffffffffffffffffffffffffff1916817bffffffffffffffffffffffffffffffffffffffffffffffffffffffff191614613747576040517f08c379a000000000000000000000000000000000000000000000000000000000815260040161373e90615ba0565b60405180910390fd5b505b505050505050565b60606000600167ffffffffffffffff8111156137705761376f613c76565b5b60405190808252806020026020018201604052801561379e5781602001602082028036833780820191505090505b50905082816000815181106137b6576137b5614aeb565b5b60200260200101818152505080915050919050565b6137ea8473ffffffffffffffffffffffffffffffffffffffff166139a2565b1561399a578373ffffffffffffffffffffffffffffffffffffffff1663f23a6e6187878686866040518663ffffffff1660e01b8152600401613830959493929190615bc0565b6020604051808303816000875af192505050801561386c57506040513d601f19601f8201168201806040525081019061386991906159b0565b60015b613911576138786159ea565b806308c379a0036138d4575061388c615a0c565b8061389757506138d6565b806040517f08c379a00000000000000000000000000000000000000000000000000000000081526004016138cb9190613c4f565b60405180910390fd5b505b6040517f08c379a000000000000000000000000000000000000000000000000000000000815260040161390890615b0e565b60405180910390fd5b63f23a6e6160e01b7bffffffffffffffffffffffffffffffffffffffffffffffffffffffff1916817bffffffffffffffffffffffffffffffffffffffffffffffffffffffff191614613998576040517f08c379a000000000000000000000000000000000000000000000000000000000815260040161398f90615ba0565b60405180910390fd5b505b505050505050565b6000808273ffffffffffffffffffffffffffffffffffffffff163b119050919050565b6000604051905090565b600080fd5b600080fd5b600073ffffffffffffffffffffffffffffffffffffffff82169050919050565b6000613a04826139d9565b9050919050565b613a14816139f9565b8114613a1f57600080fd5b50565b600081359050613a3181613a0b565b92915050565b6000819050919050565b613a4a81613a37565b8114613a5557600080fd5b50565b600081359050613a6781613a41565b92915050565b60008060408385031215613a8457613a836139cf565b5b6000613a9285828601613a22565b9250506020613aa385828601613a58565b9150509250929050565b613ab681613a37565b82525050565b6000602082019050613ad16000830184613aad565b92915050565b60007fffffffff0000000000000000000000000000000000000000000000000000000082169050919050565b613b0c81613ad7565b8114613b1757600080fd5b50565b600081359050613b2981613b03565b92915050565b600060208284031215613b4557613b446139cf565b5b6000613b5384828501613b1a565b91505092915050565b60008115159050919050565b613b7181613b5c565b82525050565b6000602082019050613b8c6000830184613b68565b92915050565b600060208284031215613ba857613ba76139cf565b5b6000613bb684828501613a58565b91505092915050565b600081519050919050565b600082825260208201905092915050565b60005b83811015613bf9578082015181840152602081019050613bde565b60008484015250505050565b6000601f19601f8301169050919050565b6000613c2182613bbf565b613c2b8185613bca565b9350613c3b818560208601613bdb565b613c4481613c05565b840191505092915050565b60006020820190508181036000830152613c698184613c16565b905092915050565b600080fd5b7f4e487b7100000000000000000000000000000000000000000000000000000000600052604160045260246000fd5b613cae82613c05565b810181811067ffffffffffffffff82111715613ccd57613ccc613c76565b5b80604052505050565b6000613ce06139c5565b9050613cec8282613ca5565b919050565b600067ffffffffffffffff821115613d0c57613d0b613c76565b5b602082029050602081019050919050565b600080fd5b6000613d35613d3084613cf1565b613cd6565b90508083825260208201905060208402830185811115613d5857613d57613d1d565b5b835b81811015613d815780613d6d8882613a58565b845260208401935050602081019050613d5a565b5050509392505050565b600082601f830112613da057613d9f613c71565b5b8135613db0848260208601613d22565b91505092915050565b600080fd5b600067ffffffffffffffff821115613dd957613dd8613c76565b5b613de282613c05565b9050602081019050919050565b82818337600083830152505050565b6000613e11613e0c84613dbe565b613cd6565b905082815260208101848484011115613e2d57613e2c613db9565b5b613e38848285613def565b509392505050565b600082601f830112613e5557613e54613c71565b5b8135613e65848260208601613dfe565b91505092915050565b600080600080600060a08688031215613e8a57613e896139cf565b5b6000613e9888828901613a22565b9550506020613ea988828901613a22565b945050604086013567ffffffffffffffff811115613eca57613ec96139d4565b5b613ed688828901613d8b565b935050606086013567ffffffffffffffff811115613ef757613ef66139d4565b5b613f0388828901613d8b565b925050608086013567ffffffffffffffff811115613f2457613f236139d4565b5b613f3088828901613e40565b9150509295509295909350565b60008060408385031215613f5457613f536139cf565b5b6000613f6285828601613a58565b9250506020613f7385828601613a58565b9150509250929050565b600067ffffffffffffffff821115613f9857613f97613c76565b5b602082029050602081019050919050565b6000613fbc613fb784613f7d565b613cd6565b90508083825260208201905060208402830185811115613fdf57613fde613d1d565b5b835b818110156140085780613ff48882613a22565b845260208401935050602081019050613fe1565b5050509392505050565b600082601f83011261402757614026613c71565b5b8135614037848260208601613fa9565b91505092915050565b60008060408385031215614057576140566139cf565b5b600083013567ffffffffffffffff811115614075576140746139d4565b5b61408185828601614012565b925050602083013567ffffffffffffffff8111156140a2576140a16139d4565b5b6140ae85828601613d8b565b9150509250929050565b600081519050919050565b600082825260208201905092915050565b6000819050602082019050919050565b6140ed81613a37565b82525050565b60006140ff83836140e4565b60208301905092915050565b6000602082019050919050565b6000614123826140b8565b61412d81856140c3565b9350614138836140d4565b8060005b8381101561416957815161415088826140f3565b975061415b8361410b565b92505060018101905061413c565b5085935050505092915050565b600060208201905081810360008301526141908184614118565b905092915050565b60006101408201905081810360008301526141b3818d613c16565b90506141c2602083018c613aad565b6141cf604083018b613aad565b6141dc606083018a613aad565b6141e96080830189613aad565b6141f660a0830188613aad565b61420360c0830187613aad565b61421060e0830186613aad565b61421e610100830185613aad565b61422c610120830184613aad565b9b9a5050505050505050505050565b614244816139f9565b82525050565b600060208201905061425f600083018461423b565b92915050565b61426e81613b5c565b811461427957600080fd5b50565b60008135905061428b81614265565b92915050565b600080604083850312156142a8576142a76139cf565b5b60006142b685828601613a22565b92505060206142c78582860161427c565b9150509250929050565b600067ffffffffffffffff8211156142ec576142eb613c76565b5b6142f582613c05565b9050602081019050919050565b6000614315614310846142d1565b613cd6565b90508281526020810184848401111561433157614330613db9565b5b61433c848285613def565b509392505050565b600082601f83011261435957614358613c71565b5b8135614369848260208601614302565b91505092915050565b600080600080600080600080610100898b031215614393576143926139cf565b5b60006143a18b828c01613a58565b98505060206143b28b828c01613a58565b97505060406143c38b828c01613a58565b965050606089013567ffffffffffffffff8111156143e4576143e36139d4565b5b6143f08b828c01614344565b95505060806144018b828c01613a58565b94505060a06144128b828c01613a58565b93505060c06144238b828c01613a58565b92505060e089013567ffffffffffffffff811115614444576144436139d4565b5b6144508b828c01613e40565b9150509295985092959890939650565b60008060408385031215614477576144766139cf565b5b600061448585828601613a22565b925050602061449685828601613a22565b9150509250929050565b600080600080600060a086880312156144bc576144bb6139cf565b5b60006144ca88828901613a22565b95505060206144db88828901613a22565b94505060406144ec88828901613a58565b93505060606144fd88828901613a58565b925050608086013567ffffffffffffffff81111561451e5761451d6139d4565b5b61452a88828901613e40565b9150509295509295909350565b7f455243313135353a2061646472657373207a65726f206973206e6f742061207660008201527f616c6964206f776e657200000000000000000000000000000000000000000000602082015250565b6000614593602a83613bca565b915061459e82614537565b604082019050919050565b600060208201905081810360008301526145c281614586565b9050919050565b7f4e487b7100000000000000000000000000000000000000000000000000000000600052601160045260246000fd5b600061460382613a37565b915061460e83613a37565b9250828203905081811115614626576146256145c9565b5b92915050565b7f4e487b7100000000000000000000000000000000000000000000000000000000600052602260045260246000fd5b6000600282049050600182168061467357607f821691505b6020821081036146865761468561462c565b5b50919050565b600061469782613a37565b91506146a283613a37565b92508282026146b081613a37565b915082820484148315176146c7576146c66145c9565b5b5092915050565b7f455243313135353a2063616c6c6572206973206e6f7420746f6b656e206f776e60008201527f6572206f7220617070726f766564000000000000000000000000000000000000602082015250565b600061472a602e83613bca565b9150614735826146ce565b604082019050919050565b600060208201905081810360008301526147598161471d565b9050919050565b7f43616c6c6572206973206e6f7420746865206f776e6572000000000000000000600082015250565b6000614796601783613bca565b91506147a182614760565b602082019050919050565b600060208201905081810360008301526147c581614789565b9050919050565b7f5769746864726177206e6f7420616c6c6f776564207768656e20616374697665600082015250565b6000614802602083613bca565b915061480d826147cc565b602082019050919050565b60006020820190508181036000830152614831816147f5565b9050919050565b7f5769746864726177206e6f7420616c6c6f77656420616674657220636f6d706c60008201527f6574696f6e000000000000000000000000000000000000000000000000000000602082015250565b6000614894602583613bca565b915061489f82614838565b604082019050919050565b600060208201905081810360008301526148c381614887565b9050919050565b7f5769746864726177206e6f7420616c6c6f776564207768656e2064656661756c60008201527f7465640000000000000000000000000000000000000000000000000000000000602082015250565b6000614926602383613bca565b9150614931826148ca565b604082019050919050565b6000602082019050818103600083015261495581614919565b9050919050565b7f5769746864726177616c20746f6b656e20616d6f756e7420657863656564732060008201527f746f6b656e20616d6f756e7420696e20636f6e74726163740000000000000000602082015250565b60006149b8603883613bca565b91506149c38261495c565b604082019050919050565b600060208201905081810360008301526149e7816149ab565b9050919050565b6000604082019050614a03600083018561423b565b614a106020830184613aad565b9392505050565b600081519050614a2681614265565b92915050565b600060208284031215614a4257614a416139cf565b5b6000614a5084828501614a17565b91505092915050565b7f455243313135353a206163636f756e747320616e6420696473206c656e67746860008201527f206d69736d617463680000000000000000000000000000000000000000000000602082015250565b6000614ab5602983613bca565b9150614ac082614a59565b604082019050919050565b60006020820190508181036000830152614ae481614aa8565b9050919050565b7f4e487b7100000000000000000000000000000000000000000000000000000000600052603260045260246000fd5b6000614b2582613a37565b91507fffffffffffffffffffffffffffffffffffffffffffffffffffffffffffffffff8203614b5757614b566145c9565b5b600182019050919050565b7f426f6e6420697320696e61637469766500000000000000000000000000000000600082015250565b6000614b98601083613bca565b9150614ba382614b62565b602082019050919050565b60006020820190508181036000830152614bc781614b8b565b9050919050565b7f496e73756666696369656e7420626f6e64207175616e746974792072656d616960008201527f6e696e6700000000000000000000000000000000000000000000000000000000602082015250565b6000614c2a602483613bca565b9150614c3582614bce565b604082019050919050565b60006020820190508181036000830152614c5981614c1d565b9050919050565b6000614c6b82613a37565b9150614c7683613a37565b9250828201905080821115614c8e57614c8d6145c9565b5b92915050565b6000606082019050614ca9600083018661423b565b614cb6602083018561423b565b614cc36040830184613aad565b949350505050565b7f4e487b7100000000000000000000000000000000000000000000000000000000600052601260045260246000fd5b6000614d0582613a37565b9150614d1083613a37565b925082614d2057614d1f614ccb565b5b828204905092915050565b7f426f6e64206973206e6f7420636f6d706c657465640000000000000000000000600082015250565b6000614d61601583613bca565b9150614d6c82614d2b565b602082019050919050565b60006020820190508181036000830152614d9081614d54565b9050919050565b7f496e73756666696369656e7420626f6e64207175616e74697479000000000000600082015250565b6000614dcd601a83613bca565b9150614dd882614d97565b602082019050919050565b60006020820190508181036000830152614dfc81614dc0565b9050919050565b7f426f6e64206973206e6f742064656661756c7465640000000000000000000000600082015250565b6000614e39601583613bca565b9150614e4482614e03565b602082019050919050565b60006020820190508181036000830152614e6881614e2c565b9050919050565b6000604082019050614e846000830185613aad565b614e916020830184613aad565b9392505050565b7f426f6e64206973206e6f742063616e63656c6564000000000000000000000000600082015250565b6000614ece601483613bca565b9150614ed982614e98565b602082019050919050565b60006020820190508181036000830152614efd81614ec1565b9050919050565b7f426f6e6420697320616c726561647920636f6d706c6574656400000000000000600082015250565b6000614f3a601983613bca565b9150614f4582614f04565b602082019050919050565b60006020820190508181036000830152614f6981614f2d565b9050919050565b7f416374697665206475726174696f6e2073686f756c642062652073686f72746560008201527f72207468616e206475726174696f6e0000000000000000000000000000000000602082015250565b6000614fcc602f83613bca565b9150614fd782614f70565b604082019050919050565b60006020820190508181036000830152614ffb81614fbf565b9050919050565b60008190508160005260206000209050919050565b60006020601f8301049050919050565b600082821b905092915050565b6000600883026150647fffffffffffffffffffffffffffffffffffffffffffffffffffffffffffffffff82615027565b61506e8683615027565b95508019841693508086168417925050509392505050565b6000819050919050565b60006150ab6150a66150a184613a37565b615086565b613a37565b9050919050565b6000819050919050565b6150c583615090565b6150d96150d1826150b2565b848454615034565b825550505050565b600090565b6150ee6150e1565b6150f98184846150bc565b505050565b5b8181101561511d576151126000826150e6565b6001810190506150ff565b5050565b601f8211156151625761513381615002565b61513c84615017565b8101602085101561514b578190505b61515f61515785615017565b8301826150fe565b50505b505050565b600082821c905092915050565b600061518560001984600802615167565b1980831691505092915050565b600061519e8383615174565b9150826002028217905092915050565b6151b782613bbf565b67ffffffffffffffff8111156151d0576151cf613c76565b5b6151da825461465b565b6151e5828285615121565b600060209050601f8311600181146152185760008415615206578287015190505b6152108582615192565b865550615278565b601f19841661522686615002565b60005b8281101561524e57848901518255600182019150602085019450602081019050615229565b8683101561526b5784890151615267601f891682615174565b8355505b6001600288020188555050505b505050505050565b60006060820190506152956000830186613aad565b6152a26020830185613aad565b6152af6040830184613aad565b949350505050565b7f626f6e642069732064656661756c746564000000000000000000000000000000600082015250565b60006152ed601183613bca565b91506152f8826152b7565b602082019050919050565b6000602082019050818103600083015261531c816152e0565b9050919050565b7f626f6e6420697320636f6d706c65746564000000000000000000000000000000600082015250565b6000615359601183613bca565b915061536482615323565b602082019050919050565b600060208201905081810360008301526153888161534c565b9050919050565b60008151905061539e81613a41565b92915050565b6000602082840312156153ba576153b96139cf565b5b60006153c88482850161538f565b91505092915050565b7f43616e6e6f742077697468647261772065786365737300000000000000000000600082015250565b6000615407601683613bca565b9150615412826153d1565b602082019050919050565b60006020820190508181036000830152615436816153fa565b9050919050565b7f43616e6e6f742077697468647261772066726f6d20656d70747920706f6f6c00600082015250565b6000615473601f83613bca565b915061547e8261543d565b602082019050919050565b600060208201905081810360008301526154a281615466565b9050919050565b7f455243313135353a2069647320616e6420616d6f756e7473206c656e6774682060008201527f6d69736d61746368000000000000000000000000000000000000000000000000602082015250565b6000615505602883613bca565b9150615510826154a9565b604082019050919050565b60006020820190508181036000830152615534816154f8565b9050919050565b7f455243313135353a207472616e7366657220746f20746865207a65726f20616460008201527f6472657373000000000000000000000000000000000000000000000000000000602082015250565b6000615597602583613bca565b91506155a28261553b565b604082019050919050565b600060208201905081810360008301526155c68161558a565b9050919050565b7f455243313135353a20696e73756666696369656e742062616c616e636520666f60008201527f72207472616e7366657200000000000000000000000000000000000000000000602082015250565b6000615629602a83613bca565b9150615634826155cd565b604082019050919050565b600060208201905081810360008301526156588161561c565b9050919050565b600060408201905081810360008301526156798185614118565b9050818103602083015261568d8184614118565b90509392505050565b7f455243313135353a206275726e2066726f6d20746865207a65726f206164647260008201527f6573730000000000000000000000000000000000000000000000000000000000602082015250565b60006156f2602383613bca565b91506156fd82615696565b604082019050919050565b60006020820190508181036000830152615721816156e5565b9050919050565b7f455243313135353a206275726e20616d6f756e7420657863656564732062616c60008201527f616e636500000000000000000000000000000000000000000000000000000000602082015250565b6000615784602483613bca565b915061578f82615728565b604082019050919050565b600060208201905081810360008301526157b381615777565b9050919050565b7f455243313135353a2073657474696e6720617070726f76616c2073746174757360008201527f20666f722073656c660000000000000000000000000000000000000000000000602082015250565b6000615816602983613bca565b9150615821826157ba565b604082019050919050565b6000602082019050818103600083015261584581615809565b9050919050565b7f455243313135353a206d696e7420746f20746865207a65726f2061646472657360008201527f7300000000000000000000000000000000000000000000000000000000000000602082015250565b60006158a8602183613bca565b91506158b38261584c565b604082019050919050565b600060208201905081810360008301526158d78161589b565b9050919050565b600081519050919050565b600082825260208201905092915050565b6000615905826158de565b61590f81856158e9565b935061591f818560208601613bdb565b61592881613c05565b840191505092915050565b600060a082019050615948600083018861423b565b615955602083018761423b565b81810360408301526159678186614118565b9050818103606083015261597b8185614118565b9050818103608083015261598f81846158fa565b90509695505050505050565b6000815190506159aa81613b03565b92915050565b6000602082840312156159c6576159c56139cf565b5b60006159d48482850161599b565b91505092915050565b60008160e01c9050919050565b600060033d1115615a095760046000803e615a066000516159dd565b90505b90565b600060443d10615a9957615a1e6139c5565b60043d036004823e80513d602482011167ffffffffffffffff82111715615a46575050615a99565b808201805167ffffffffffffffff811115615a645750505050615a99565b80602083010160043d038501811115615a81575050505050615a99565b615a9082602001850186613ca5565b82955050505050505b90565b7f455243313135353a207472616e7366657220746f206e6f6e2d4552433131353560008201527f526563656976657220696d706c656d656e746572000000000000000000000000602082015250565b6000615af8603483613bca565b9150615b0382615a9c565b604082019050919050565b60006020820190508181036000830152615b2781615aeb565b9050919050565b7f455243313135353a204552433131353552656365697665722072656a6563746560008201527f6420746f6b656e73000000000000000000000000000000000000000000000000602082015250565b6000615b8a602883613bca565b9150615b9582615b2e565b604082019050919050565b60006020820190508181036000830152615bb981615b7d565b9050919050565b600060a082019050615bd5600083018861423b565b615be2602083018761423b565b615bef6040830186613aad565b615bfc6060830185613aad565b8181036080830152615c0e81846158fa565b9050969550505050505056fea26469706673582212208f5fca21ab646901642c46336e0940a244daf6158549eda10d044e1d102f877964736f6c6343000811003360c060405260006003553480156200001657600080fd5b50604051620061b3380380620061b383398181016040528101906200003c9190620002d3565b828282826200005181620000c660201b60201c565b508073ffffffffffffffffffffffffffffffffffffffff1660808173ffffffffffffffffffffffffffffffffffffffff16815250508173ffffffffffffffffffffffffffffffffffffffff1660a08173ffffffffffffffffffffffffffffffffffffffff168152505050505050505062000680565b8060029081620000d7919062000599565b5050565b6000604051905090565b600080fd5b600080fd5b600080fd5b600080fd5b6000601f19601f8301169050919050565b7f4e487b7100000000000000000000000000000000000000000000000000000000600052604160045260246000fd5b6200014482620000f9565b810181811067ffffffffffffffff821117156200016657620001656200010a565b5b80604052505050565b60006200017b620000db565b905062000189828262000139565b919050565b600067ffffffffffffffff821115620001ac57620001ab6200010a565b5b620001b782620000f9565b9050602081019050919050565b60005b83811015620001e4578082015181840152602081019050620001c7565b60008484015250505050565b60006200020762000201846200018e565b6200016f565b905082815260208101848484011115620002265762000225620000f4565b5b62000233848285620001c4565b509392505050565b600082601f830112620002535762000252620000ef565b5b815162000265848260208601620001f0565b91505092915050565b600073ffffffffffffffffffffffffffffffffffffffff82169050919050565b60006200029b826200026e565b9050919050565b620002ad816200028e565b8114620002b957600080fd5b50565b600081519050620002cd81620002a2565b92915050565b600080600060608486031215620002ef57620002ee620000e5565b5b600084015167ffffffffffffffff81111562000310576200030f620000ea565b5b6200031e868287016200023b565b93505060206200033186828701620002bc565b92505060406200034486828701620002bc565b9150509250925092565b600081519050919050565b7f4e487b7100000000000000000000000000000000000000000000000000000000600052602260045260246000fd5b60006002820490506001821680620003a157607f821691505b602082108103620003b757620003b662000359565b5b50919050565b60008190508160005260206000209050919050565b60006020601f8301049050919050565b600082821b905092915050565b600060088302620004217fffffffffffffffffffffffffffffffffffffffffffffffffffffffffffffffff82620003e2565b6200042d8683620003e2565b95508019841693508086168417925050509392505050565b6000819050919050565b6000819050919050565b60006200047a620004746200046e8462000445565b6200044f565b62000445565b9050919050565b6000819050919050565b620004968362000459565b620004ae620004a58262000481565b848454620003ef565b825550505050565b600090565b620004c5620004b6565b620004d28184846200048b565b505050565b5b81811015620004fa57620004ee600082620004bb565b600181019050620004d8565b5050565b601f82111562000549576200051381620003bd565b6200051e84620003d2565b810160208510156200052e578190505b620005466200053d85620003d2565b830182620004d7565b50505b505050565b600082821c905092915050565b60006200056e600019846008026200054e565b1980831691505092915050565b60006200058983836200055b565b9150826002028217905092915050565b620005a4826200034e565b67ffffffffffffffff811115620005c057620005bf6200010a565b5b620005cc825462000388565b620005d9828285620004fe565b600060209050601f831160018114620006115760008415620005fc578287015190505b6200060885826200057b565b86555062000678565b601f1984166200062186620003bd565b60005b828110156200064b5784890151825560018201915060208501945060208101905062000624565b868310156200066b578489015162000667601f8916826200055b565b8355505b6001600288020188555050505b505050505050565b60805160a051615aab62000708600039600081816111f90152818161164c0152818161189901528181611db401528181611f810152818161215e015281816123a4015281816124a4015281816127a60152818161284d0152612a42015260008181610fb701528181611b50015281816124cc0152818161264c01526128ec0152615aab6000f3fe608060405234801561001057600080fd5b506004361061027e5760003560e01c806388bdc0831161015c578063b09f2b1c116100ce578063e2bbb15811610087578063e2bbb158146108de578063e5328e06146108fa578063e755ddd714610918578063e985e9c514610934578063f0d8100a14610964578063f242432a146109945761027e565b8063b09f2b1c146107f8578063c0a6026c14610814578063c365301014610830578063c55dae6314610860578063c7bc57301461087e578063d3b7811b146108ae5761027e565b8063932a8de011610120578063932a8de014610714578063a22cb46514610744578063a53e17b014610760578063a874302214610790578063a996ef08146107ac578063abac75e1146107c85761027e565b806388bdc0831461062d57806389c2bb1f1461065d5780638c3526c21461068d5780638da5cb5b146106c65780638f0dbf77146106e45761027e565b806339e3af9b116101f55780636ff80d93116101b95780636ff80d931461053557806370876c981461056557806377e2a08b146105815780637a41984b146105b15780637cbc2373146105e157806382afd23b146105fd5761027e565b806339e3af9b1461046b578063441a3e701461049b5780634e1273f4146104b7578063549493bb146104e75780636681b9fd146105175761027e565b80630e89341c116102475780630e89341c1461037357806314f29493146103a35780632b096926146103d35780632eb2c2d6146103ef5780632f3ad61f1461040b5780633097afb81461043b5761027e565b8062fdd58e1461028357806301ffc9a7146102b357806302159497146102e357806308913ce8146103135780630914902014610343575b600080fd5b61029d60048036038101906102989190613b2a565b6109b0565b6040516102aa9190613b79565b60405180910390f35b6102cd60048036038101906102c89190613bec565b610a78565b6040516102da9190613c34565b60405180910390f35b6102fd60048036038101906102f89190613c4f565b610b5a565b60405161030a9190613b79565b60405180910390f35b61032d60048036038101906103289190613c4f565b610b77565b60405161033a9190613b79565b60405180910390f35b61035d60048036038101906103589190613c4f565b610ba2565b60405161036a9190613c34565b60405180910390f35b61038d60048036038101906103889190613c4f565b610bd8565b60405161039a9190613d0c565b60405180910390f35b6103bd60048036038101906103b89190613c4f565b610c6c565b6040516103ca9190613b79565b60405180910390f35b6103ed60048036038101906103e89190613c4f565b610caa565b005b61040960048036038101906104049190613f2b565b610e8c565b005b61042560048036038101906104209190613c4f565b610f2d565b6040516104329190613c34565b60405180910390f35b61045560048036038101906104509190613c4f565b610f57565b6040516104629190613c34565b60405180910390f35b61048560048036038101906104809190613c4f565b610f90565b6040516104929190613c34565b60405180910390f35b6104b560048036038101906104b09190613ffa565b610fb5565b005b6104d160048036038101906104cc91906140fd565b61129a565b6040516104de9190614233565b60405180910390f35b61050160048036038101906104fc9190613c4f565b6113b3565b60405161050e9190613c34565b60405180910390f35b61051f6113e5565b60405161052c9190613b79565b60405180910390f35b61054f600480360381019061054a9190613c4f565b6113ef565b60405161055c9190613c34565b60405180910390f35b61057f600480360381019061057a9190613ffa565b611427565b005b61059b60048036038101906105969190613c4f565b6116f1565b6040516105a89190613b79565b60405180910390f35b6105cb60048036038101906105c69190613c4f565b611781565b6040516105d89190613c34565b60405180910390f35b6105fb60048036038101906105f69190613ffa565b6117ab565b005b61061760048036038101906106129190613c4f565b611965565b6040516106249190613c34565b60405180910390f35b61064760048036038101906106429190613c4f565b611988565b6040516106549190613b79565b60405180910390f35b61067760048036038101906106729190613c4f565b6119bb565b6040516106849190613b79565b60405180910390f35b6106a760048036038101906106a29190613c4f565b6119d8565b6040516106bd9a99989796959493929190614255565b60405180910390f35b6106ce611b4c565b6040516106db9190614307565b60405180910390f35b6106fe60048036038101906106f99190613c4f565b611b74565b60405161070b9190613c34565b60405180910390f35b61072e60048036038101906107299190613c4f565b611b96565b60405161073b9190613b79565b60405180910390f35b61075e6004803603810190610759919061434e565b611bd4565b005b61077a60048036038101906107759190613c4f565b611bea565b6040516107879190613c34565b60405180910390f35b6107aa60048036038101906107a59190613c4f565b611c14565b005b6107c660048036038101906107c19190613ffa565b611e93565b005b6107e260048036038101906107dd9190613c4f565b61204d565b6040516107ef9190613b79565b60405180910390f35b610812600480360381019061080d9190613ffa565b61206d565b005b61082e60048036038101906108299190613c4f565b61222a565b005b61084a60048036038101906108459190613c4f565b612483565b6040516108579190613b79565b60405180910390f35b6108686124a0565b6040516108759190614307565b60405180910390f35b610898600480360381019061089391906143e9565b6124c8565b6040516108a59190613b79565b60405180910390f35b6108c860048036038101906108c39190613c4f565b612617565b6040516108d59190613b79565b60405180910390f35b6108f860048036038101906108f39190613ffa565b61264a565b005b610902612849565b60405161090f9190613b79565b60405180910390f35b610932600480360381019061092d9190613c4f565b6128ea565b005b61094e600480360381019061094991906144db565b612af5565b60405161095b9190613c34565b60405180910390f35b61097e60048036038101906109799190613c4f565b612b89565b60405161098b9190613b79565b60405180910390f35b6109ae60048036038101906109a9919061451b565b612ba6565b005b60008073ffffffffffffffffffffffffffffffffffffffff168373ffffffffffffffffffffffffffffffffffffffff1603610a20576040517f08c379a0000000000000000000000000000000000000000000000000000000008152600401610a1790614624565b60405180910390fd5b60008083815260200190815260200160002060008473ffffffffffffffffffffffffffffffffffffffff1673ffffffffffffffffffffffffffffffffffffffff16815260200190815260200160002054905092915050565b60007fd9b67a26000000000000000000000000000000000000000000000000000000007bffffffffffffffffffffffffffffffffffffffffffffffffffffffff1916827bffffffffffffffffffffffffffffffffffffffffffffffffffffffff19161480610b4357507f0e89341c000000000000000000000000000000000000000000000000000000007bffffffffffffffffffffffffffffffffffffffffffffffffffffffff1916827bffffffffffffffffffffffffffffffffffffffffffffffffffffffff1916145b80610b535750610b5282612c47565b5b9050919050565b600060086000838152602001908152602001600020549050919050565b6000600560008381526020019081526020016000206002015442610b9b9190614673565b9050919050565b60006005600083815260200190815260200160002060080154600660008481526020019081526020016000205410159050919050565b606060028054610be7906146d6565b80601f0160208091040260200160405190810160405280929190818152602001828054610c13906146d6565b8015610c605780601f10610c3557610100808354040283529160200191610c60565b820191906000526020600020905b815481529060010190602001808311610c4357829003601f168201915b50505050509050919050565b600060066000838152602001908152602001600020546005600084815260200190815260200160002060010154610ca39190614707565b9050919050565b610cb381611781565b15610cf3576040517f08c379a0000000000000000000000000000000000000000000000000000000008152600401610cea90614795565b60405180910390fd5b62015180600d600083815260200190815260200160002054610d159190614707565b610d1e82610b77565b11610d5e576040517f08c379a0000000000000000000000000000000000000000000000000000000008152600401610d5590614827565b60405180910390fd5b620151806005600083815260200190815260200160002060060154610d839190614707565b610d8c82610b77565b6005600084815260200190815260200160002060090154610dad9190614707565b610db79190614876565b600e6000838152602001908152602001600020819055506001600f600083815260200190815260200160002060006101000a81548160ff0219169083151502179055506001600c600083815260200190815260200160002060006101000a81548160ff021916908315150217905550807fb580a16317cf9efa50cf987c976c3fb7de7eaf3149b9dd5b8a576a043042f44c6005600084815260200190815260200160002060090154600e600085815260200190815260200160002054604051610e819291906148a7565b60405180910390a250565b610e94612cb1565b73ffffffffffffffffffffffffffffffffffffffff168573ffffffffffffffffffffffffffffffffffffffff161480610eda5750610ed985610ed4612cb1565b612af5565b5b610f19576040517f08c379a0000000000000000000000000000000000000000000000000000000008152600401610f1090614942565b60405180910390fd5b610f268585858585612cb9565b5050505050565b6000600b600083815260200190815260200160002060009054906101000a900460ff169050919050565b6000610f6282611b74565b8015610f895750610f72826116f1565b600860008481526020019081526020016000205410155b9050919050565b6000610f9b82611965565b158015610fae5750610fac82610ba2565b155b9050919050565b7f000000000000000000000000000000000000000000000000000000000000000073ffffffffffffffffffffffffffffffffffffffff163373ffffffffffffffffffffffffffffffffffffffff1614611043576040517f08c379a000000000000000000000000000000000000000000000000000000000815260040161103a906149ae565b60405180910390fd5b61104c82611965565b1561108c576040517f08c379a000000000000000000000000000000000000000000000000000000000815260040161108390614a1a565b60405180910390fd5b61109582610f90565b156110d5576040517f08c379a00000000000000000000000000000000000000000000000000000000081526004016110cc90614a1a565b60405180910390fd5b6110de82611781565b1561111e576040517f08c379a000000000000000000000000000000000000000000000000000000000815260040161111590614aac565b60405180910390fd5b61112782610f2d565b806111375750611136826113ef565b5b15611177576040517f08c379a000000000000000000000000000000000000000000000000000000000815260040161116e90614b3e565b60405180910390fd5b60086000838152602001908152602001600020548111156111cd576040517f08c379a00000000000000000000000000000000000000000000000000000000081526004016111c490614bd0565b60405180910390fd5b806008600084815260200190815260200160002060008282546111f09190614673565b925050819055507f000000000000000000000000000000000000000000000000000000000000000073ffffffffffffffffffffffffffffffffffffffff1663a9059cbb33836040518363ffffffff1660e01b8152600401611252929190614bf0565b6020604051808303816000875af1158015611271573d6000803e3d6000fd5b505050506040513d601f19601f820116820180604052508101906112959190614c2e565b505050565b606081518351146112e0576040517f08c379a00000000000000000000000000000000000000000000000000000000081526004016112d790614ccd565b60405180910390fd5b6000835167ffffffffffffffff8111156112fd576112fc613d33565b5b60405190808252806020026020018201604052801561132b5781602001602082028036833780820191505090505b50905060005b84518110156113a8576113788582815181106113505761134f614ced565b5b602002602001015185838151811061136b5761136a614ced565b5b60200260200101516109b0565b82828151811061138b5761138a614ced565b5b602002602001018181525050806113a190614d1c565b9050611331565b508091505092915050565b600060066000838152602001908152602001600020546007600084815260200190815260200160002054149050919050565b6000600454905090565b60006113fa82611b74565b8015611420575061140a826116f1565b6008600084815260200190815260200160002054105b9050919050565b61143082611965565b61146f576040517f08c379a000000000000000000000000000000000000000000000000000000000815260040161146690614db0565b60405180910390fd5b8061147983611b96565b10156114ba576040517f08c379a00000000000000000000000000000000000000000000000000000000081526004016114b190614e42565b60405180910390fd5b600060056000848152602001908152602001600020604051806101400160405290816000820180546114eb906146d6565b80601f0160208091040260200160405190810160405280929190818152602001828054611517906146d6565b80156115645780601f1061153957610100808354040283529160200191611564565b820191906000526020600020905b81548152906001019060200180831161154757829003601f168201915b505050505081526020016001820154815260200160028201548152602001600382015481526020016004820154815260200160058201548152602001600682015481526020016007820154815260200160088201548152602001600982015481525050905060008160200151836115db9190614707565b9050826006600086815260200190815260200160002060008282546116009190614e62565b925050819055508060086000868152602001908152602001600020600082825461162a9190614e62565b9250508190555080600460008282546116439190614e62565b925050819055507f000000000000000000000000000000000000000000000000000000000000000073ffffffffffffffffffffffffffffffffffffffff166323b872dd3330846040518463ffffffff1660e01b81526004016116a793929190614e96565b6020604051808303816000875af11580156116c6573d6000803e3d6000fd5b505050506040513d601f19601f820116820180604052508101906116ea9190614c2e565b5050505050565b60008060056000848152602001908152602001600020600901549050600f600084815260200190815260200160002060009054906101000a900460ff161561173f5761173c836119bb565b90505b670de0b6b3a76400008161175285610c6c565b61175c9190614707565b6117669190614876565b61176f84610c6c565b6117799190614e62565b915050919050565b6000600c600083815260200190815260200160002060009054906101000a900460ff169050919050565b6117b482611781565b6117f3576040517f08c379a00000000000000000000000000000000000000000000000000000000081526004016117ea90614f19565b60405180910390fd5b806117fe33846109b0565b101561183f576040517f08c379a000000000000000000000000000000000000000000000000000000000815260040161183690614f85565b60405180910390fd5b61184a338383612fda565b8060076000848152602001908152602001600020600082825461186d9190614e62565b925050819055506000600a600084815260200190815260200160002054826118959190614707565b90507f000000000000000000000000000000000000000000000000000000000000000073ffffffffffffffffffffffffffffffffffffffff1663a9059cbb33836040518363ffffffff1660e01b81526004016118f2929190614bf0565b6020604051808303816000875af1158015611911573d6000803e3d6000fd5b505050506040513d601f19601f820116820180604052508101906119359190614c2e565b50806008600085815260200190815260200160002060008282546119599190614673565b92505081905550505050565b600060056000838152602001908152602001600020600401544211159050919050565b600061199382610b77565b60056000848152602001908152602001600020600501546119b49190614673565b9050919050565b6000600e6000838152602001908152602001600020549050919050565b6060600080600080600080600080600080600560008d815260200190815260200160002060405180610140016040529081600082018054611a18906146d6565b80601f0160208091040260200160405190810160405280929190818152602001828054611a44906146d6565b8015611a915780601f10611a6657610100808354040283529160200191611a91565b820191906000526020600020905b815481529060010190602001808311611a7457829003601f168201915b5050505050815260200160018201548152602001600282015481526020016003820154815260200160048201548152602001600582015481526020016006820154815260200160078201548152602001600882015481526020016009820154815250509050806000015181602001518260400151836060015184608001518560a001518660c001518760e001518861010001518961012001519a509a509a509a509a509a509a509a509a509a50509193959799509193959799565b60007f0000000000000000000000000000000000000000000000000000000000000000905090565b6000600560008381526020019081526020016000206003015442119050919050565b600060066000838152602001908152602001600020546005600084815260200190815260200160002060070154611bcd9190614673565b9050919050565b611be6611bdf612cb1565b8383613220565b5050565b6000600f600083815260200190815260200160002060009054906101000a900460ff169050919050565b611c1d81611781565b158015611c305750611c2e81610f2d565b155b8015611c415750611c40816113ef565b5b611c80576040517f08c379a0000000000000000000000000000000000000000000000000000000008152600401611c7790614ff1565b60405180910390fd5b6000611c8b826116f1565b905060006103e86008600085815260200190815260200160002054611cb09190614876565b90506000816008600086815260200190815260200160002054611cd39190614673565b9050600660008581526020019081526020016000205481611cf49190614876565b6009600086815260200190815260200160002081905550600060066000868152602001908152602001600020546009600087815260200190815260200160002054611d3f9190614707565b82611d4a9190614673565b905060008184611d5a9190614e62565b905080600860008881526020019081526020016000206000828254611d7f9190614673565b925050819055506001600b600088815260200190815260200160002060006101000a81548160ff0219169083151502179055507f000000000000000000000000000000000000000000000000000000000000000073ffffffffffffffffffffffffffffffffffffffff1663a9059cbb33836040518363ffffffff1660e01b8152600401611e0d929190614bf0565b6020604051808303816000875af1158015611e2c573d6000803e3d6000fd5b505050506040513d601f19601f82011682018060405250810190611e509190614c2e565b50857fc4f17a65d54873d57229ea5f59c4ddec592d095bc17581372676402c8228b9cd8685604051611e839291906148a7565b60405180910390a2505050505050565b611e9c82610f2d565b611edb576040517f08c379a0000000000000000000000000000000000000000000000000000000008152600401611ed290614ff1565b60405180910390fd5b80611ee633846109b0565b1015611f27576040517f08c379a0000000000000000000000000000000000000000000000000000000008152600401611f1e90614f85565b60405180910390fd5b611f32338383612fda565b80600760008481526020019081526020016000206000828254611f559190614e62565b925050819055506000600960008481526020019081526020016000205482611f7d9190614707565b90507f000000000000000000000000000000000000000000000000000000000000000073ffffffffffffffffffffffffffffffffffffffff1663a9059cbb33836040518363ffffffff1660e01b8152600401611fda929190614bf0565b6020604051808303816000875af1158015611ff9573d6000803e3d6000fd5b505050506040513d601f19601f8201168201806040525081019061201d9190614c2e565b50806008600085815260200190815260200160002060008282546120419190614673565b92505081905550505050565b600060056000838152602001908152602001600020600901549050919050565b61207682610f90565b6120b5576040517f08c379a00000000000000000000000000000000000000000000000000000000081526004016120ac9061505d565b60405180910390fd5b806120c033846109b0565b1015612101576040517f08c379a00000000000000000000000000000000000000000000000000000000081526004016120f890614f85565b60405180910390fd5b61210c338383612fda565b8060076000848152602001908152602001600020600082825461212f9190614e62565b92505081905550600060056000848152602001908152602001600020600101548261215a9190614707565b90507f000000000000000000000000000000000000000000000000000000000000000073ffffffffffffffffffffffffffffffffffffffff1663a9059cbb33836040518363ffffffff1660e01b81526004016121b7929190614bf0565b6020604051808303816000875af11580156121d6573d6000803e3d6000fd5b505050506040513d601f19601f820116820180604052508101906121fa9190614c2e565b508060086000858152602001908152602001600020600082825461221e9190614673565b92505081905550505050565b61223381610f2d565b158015612246575061224481611781565b155b8015612257575061225681610f57565b5b612296576040517f08c379a000000000000000000000000000000000000000000000000000000000815260040161228d906150c9565b60405180910390fd5b60006122a1826116f1565b905060006103e8826122b39190614876565b9050600081836122c39190614673565b90506006600085815260200190815260200160002054816122e49190614876565b600a60008681526020019081526020016000208190555060006006600086815260200190815260200160002054600a60008781526020019081526020016000205461232f9190614707565b8261233a9190614673565b90506000818461234a9190614e62565b90508060086000888152602001908152602001600020600082825461236f9190614673565b925050819055506001600c600088815260200190815260200160002060006101000a81548160ff0219169083151502179055507f000000000000000000000000000000000000000000000000000000000000000073ffffffffffffffffffffffffffffffffffffffff1663a9059cbb33836040518363ffffffff1660e01b81526004016123fd929190614bf0565b6020604051808303816000875af115801561241c573d6000803e3d6000fd5b505050506040513d601f19601f820116820180604052508101906124409190614c2e565b50857fac2eeaf45d1b75aed6b3285cda3efb3c382cce02ba313558bbb90be57f8843e486856040516124739291906148a7565b60405180910390a2505050505050565b6000600d6000838152602001908152602001600020549050919050565b60007f0000000000000000000000000000000000000000000000000000000000000000905090565b60007f000000000000000000000000000000000000000000000000000000000000000073ffffffffffffffffffffffffffffffffffffffff163373ffffffffffffffffffffffffffffffffffffffff1614612558576040517f08c379a000000000000000000000000000000000000000000000000000000000815260040161254f906149ae565b60405180910390fd5b3073ffffffffffffffffffffffffffffffffffffffff1663c7bc57308b8b8b8b8b8b8b8b8b6040518a63ffffffff1660e01b81526004016125a19998979695949392919061516b565b6020604051808303816000875af11580156125c0573d6000803e3d6000fd5b505050506040513d601f19601f820116820180604052508101906125e4919061520e565b90506002856125f39190614876565b600d6000838152602001908152602001600020819055509998505050505050505050565b600061262282610b77565b60056000848152602001908152602001600020600601546126439190614673565b9050919050565b7f000000000000000000000000000000000000000000000000000000000000000073ffffffffffffffffffffffffffffffffffffffff163373ffffffffffffffffffffffffffffffffffffffff16146126d8576040517f08c379a00000000000000000000000000000000000000000000000000000000081526004016126cf906149ae565b60405180910390fd5b6126e182610f2d565b806126f157506126f0826113ef565b5b15612731576040517f08c379a000000000000000000000000000000000000000000000000000000000815260040161272890615287565b60405180910390fd5b61273a82611781565b1561277a576040517f08c379a0000000000000000000000000000000000000000000000000000000008152600401612771906152f3565b60405180910390fd5b8060086000848152602001908152602001600020600082825461279d9190614e62565b925050819055507f000000000000000000000000000000000000000000000000000000000000000073ffffffffffffffffffffffffffffffffffffffff166323b872dd3330846040518463ffffffff1660e01b815260040161280193929190614e96565b6020604051808303816000875af1158015612820573d6000803e3d6000fd5b505050506040513d601f19601f820116820180604052508101906128449190614c2e565b505050565b60007f000000000000000000000000000000000000000000000000000000000000000073ffffffffffffffffffffffffffffffffffffffff166370a08231306040518263ffffffff1660e01b81526004016128a49190614307565b602060405180830381865afa1580156128c1573d6000803e3d6000fd5b505050506040513d601f19601f820116820180604052508101906128e5919061520e565b905090565b7f000000000000000000000000000000000000000000000000000000000000000073ffffffffffffffffffffffffffffffffffffffff163373ffffffffffffffffffffffffffffffffffffffff1614612978576040517f08c379a000000000000000000000000000000000000000000000000000000000815260040161296f906149ae565b60405180910390fd5b61298181611781565b80156129925750612991816113b3565b5b6129d1576040517f08c379a00000000000000000000000000000000000000000000000000000000081526004016129c89061535f565b60405180910390fd5b6000600860008381526020019081526020016000205411612a27576040517f08c379a0000000000000000000000000000000000000000000000000000000008152600401612a1e906153cb565b60405180910390fd5b600060086000838152602001908152602001600020819055507f000000000000000000000000000000000000000000000000000000000000000073ffffffffffffffffffffffffffffffffffffffff1663a9059cbb3360086000858152602001908152602001600020546040518363ffffffff1660e01b8152600401612aae929190614bf0565b6020604051808303816000875af1158015612acd573d6000803e3d6000fd5b505050506040513d601f19601f82011682018060405250810190612af19190614c2e565b5050565b6000600160008473ffffffffffffffffffffffffffffffffffffffff1673ffffffffffffffffffffffffffffffffffffffff16815260200190815260200160002060008373ffffffffffffffffffffffffffffffffffffffff1673ffffffffffffffffffffffffffffffffffffffff16815260200190815260200160002060009054906101000a900460ff16905092915050565b600060086000838152602001908152602001600020549050919050565b612bae612cb1565b73ffffffffffffffffffffffffffffffffffffffff168573ffffffffffffffffffffffffffffffffffffffff161480612bf45750612bf385612bee612cb1565b612af5565b5b612c33576040517f08c379a0000000000000000000000000000000000000000000000000000000008152600401612c2a90614942565b60405180910390fd5b612c40858585858561338c565b5050505050565b60007f01ffc9a7000000000000000000000000000000000000000000000000000000007bffffffffffffffffffffffffffffffffffffffffffffffffffffffff1916827bffffffffffffffffffffffffffffffffffffffffffffffffffffffff1916149050919050565b600033905090565b8151835114612cfd576040517f08c379a0000000000000000000000000000000000000000000000000000000008152600401612cf49061545d565b60405180910390fd5b600073ffffffffffffffffffffffffffffffffffffffff168473ffffffffffffffffffffffffffffffffffffffff1603612d6c576040517f08c379a0000000000000000000000000000000000000000000000000000000008152600401612d63906154ef565b60405180910390fd5b6000612d76612cb1565b9050612d86818787878787613627565b60005b8451811015612f37576000858281518110612da757612da6614ced565b5b602002602001015190506000858381518110612dc657612dc5614ced565b5b60200260200101519050600080600084815260200190815260200160002060008b73ffffffffffffffffffffffffffffffffffffffff1673ffffffffffffffffffffffffffffffffffffffff16815260200190815260200160002054905081811015612e67576040517f08c379a0000000000000000000000000000000000000000000000000000000008152600401612e5e90615581565b60405180910390fd5b81810360008085815260200190815260200160002060008c73ffffffffffffffffffffffffffffffffffffffff1673ffffffffffffffffffffffffffffffffffffffff168152602001908152602001600020819055508160008085815260200190815260200160002060008b73ffffffffffffffffffffffffffffffffffffffff1673ffffffffffffffffffffffffffffffffffffffff1681526020019081526020016000206000828254612f1c9190614e62565b9250508190555050505080612f3090614d1c565b9050612d89565b508473ffffffffffffffffffffffffffffffffffffffff168673ffffffffffffffffffffffffffffffffffffffff168273ffffffffffffffffffffffffffffffffffffffff167f4a39dc06d4c0dbc64b70af90fd698a233a518aa5d07e595d983b8c0526c8f7fb8787604051612fae9291906155a1565b60405180910390a4612fc481878787878761362f565b612fd2818787878787613637565b505050505050565b600073ffffffffffffffffffffffffffffffffffffffff168373ffffffffffffffffffffffffffffffffffffffff1603613049576040517f08c379a00000000000000000000000000000000000000000000000000000000081526004016130409061564a565b60405180910390fd5b6000613053612cb1565b905060006130608461380e565b9050600061306d8461380e565b905061308d83876000858560405180602001604052806000815250613627565b600080600087815260200190815260200160002060008873ffffffffffffffffffffffffffffffffffffffff1673ffffffffffffffffffffffffffffffffffffffff16815260200190815260200160002054905084811015613124576040517f08c379a000000000000000000000000000000000000000000000000000000000815260040161311b906156dc565b60405180910390fd5b84810360008088815260200190815260200160002060008973ffffffffffffffffffffffffffffffffffffffff1673ffffffffffffffffffffffffffffffffffffffff16815260200190815260200160002081905550600073ffffffffffffffffffffffffffffffffffffffff168773ffffffffffffffffffffffffffffffffffffffff168573ffffffffffffffffffffffffffffffffffffffff167fc3d58168c5ae7397731d063d5bbf3d657854427343f4c083240f7aacaa2d0f6289896040516131f19291906148a7565b60405180910390a46132178488600086866040518060200160405280600081525061362f565b50505050505050565b8173ffffffffffffffffffffffffffffffffffffffff168373ffffffffffffffffffffffffffffffffffffffff160361328e576040517f08c379a00000000000000000000000000000000000000000000000000000000081526004016132859061576e565b60405180910390fd5b80600160008573ffffffffffffffffffffffffffffffffffffffff1673ffffffffffffffffffffffffffffffffffffffff16815260200190815260200160002060008473ffffffffffffffffffffffffffffffffffffffff1673ffffffffffffffffffffffffffffffffffffffff16815260200190815260200160002060006101000a81548160ff0219169083151502179055508173ffffffffffffffffffffffffffffffffffffffff168373ffffffffffffffffffffffffffffffffffffffff167f17307eab39ab6107e8899845ad3d59bd9653f200f220920489ca2b5937696c318360405161337f9190613c34565b60405180910390a3505050565b600073ffffffffffffffffffffffffffffffffffffffff168473ffffffffffffffffffffffffffffffffffffffff16036133fb576040517f08c379a00000000000000000000000000000000000000000000000000000000081526004016133f2906154ef565b60405180910390fd5b6000613405612cb1565b905060006134128561380e565b9050600061341f8561380e565b905061342f838989858589613627565b600080600088815260200190815260200160002060008a73ffffffffffffffffffffffffffffffffffffffff1673ffffffffffffffffffffffffffffffffffffffff168152602001908152602001600020549050858110156134c6576040517f08c379a00000000000000000000000000000000000000000000000000000000081526004016134bd90615581565b60405180910390fd5b85810360008089815260200190815260200160002060008b73ffffffffffffffffffffffffffffffffffffffff1673ffffffffffffffffffffffffffffffffffffffff168152602001908152602001600020819055508560008089815260200190815260200160002060008a73ffffffffffffffffffffffffffffffffffffffff1673ffffffffffffffffffffffffffffffffffffffff168152602001908152602001600020600082825461357b9190614e62565b925050819055508773ffffffffffffffffffffffffffffffffffffffff168973ffffffffffffffffffffffffffffffffffffffff168573ffffffffffffffffffffffffffffffffffffffff167fc3d58168c5ae7397731d063d5bbf3d657854427343f4c083240f7aacaa2d0f628a8a6040516135f89291906148a7565b60405180910390a461360e848a8a86868a61362f565b61361c848a8a8a8a8a613888565b505050505050505050565b505050505050565b505050505050565b6136568473ffffffffffffffffffffffffffffffffffffffff16613a5f565b15613806578373ffffffffffffffffffffffffffffffffffffffff1663bc197c8187878686866040518663ffffffff1660e01b815260040161369c95949392919061578e565b6020604051808303816000875af19250505080156136d857506040513d601f19601f820116820180604052508101906136d5919061580b565b60015b61377d576136e4615845565b806308c379a00361374057506136f8615867565b806137035750613742565b806040517f08c379a00000000000000000000000000000000000000000000000000000000081526004016137379190613d0c565b60405180910390fd5b505b6040517f08c379a000000000000000000000000000000000000000000000000000000000815260040161377490615969565b60405180910390fd5b63bc197c8160e01b7bffffffffffffffffffffffffffffffffffffffffffffffffffffffff1916817bffffffffffffffffffffffffffffffffffffffffffffffffffffffff191614613804576040517f08c379a00000000000000000000000000000000000000000000000000000000081526004016137fb906159fb565b60405180910390fd5b505b505050505050565b60606000600167ffffffffffffffff81111561382d5761382c613d33565b5b60405190808252806020026020018201604052801561385b5781602001602082028036833780820191505090505b509050828160008151811061387357613872614ced565b5b60200260200101818152505080915050919050565b6138a78473ffffffffffffffffffffffffffffffffffffffff16613a5f565b15613a57578373ffffffffffffffffffffffffffffffffffffffff1663f23a6e6187878686866040518663ffffffff1660e01b81526004016138ed959493929190615a1b565b6020604051808303816000875af192505050801561392957506040513d601f19601f82011682018060405250810190613926919061580b565b60015b6139ce57613935615845565b806308c379a0036139915750613949615867565b806139545750613993565b806040517f08c379a00000000000000000000000000000000000000000000000000000000081526004016139889190613d0c565b60405180910390fd5b505b6040517f08c379a00000000000000000000000000000000000000000000000000000000081526004016139c590615969565b60405180910390fd5b63f23a6e6160e01b7bffffffffffffffffffffffffffffffffffffffffffffffffffffffff1916817bffffffffffffffffffffffffffffffffffffffffffffffffffffffff191614613a55576040517f08c379a0000000000000000000000000000000000000000000000000000000008152600401613a4c906159fb565b60405180910390fd5b505b505050505050565b6000808273ffffffffffffffffffffffffffffffffffffffff163b119050919050565b6000604051905090565b600080fd5b600080fd5b600073ffffffffffffffffffffffffffffffffffffffff82169050919050565b6000613ac182613a96565b9050919050565b613ad181613ab6565b8114613adc57600080fd5b50565b600081359050613aee81613ac8565b92915050565b6000819050919050565b613b0781613af4565b8114613b1257600080fd5b50565b600081359050613b2481613afe565b92915050565b60008060408385031215613b4157613b40613a8c565b5b6000613b4f85828601613adf565b9250506020613b6085828601613b15565b9150509250929050565b613b7381613af4565b82525050565b6000602082019050613b8e6000830184613b6a565b92915050565b60007fffffffff0000000000000000000000000000000000000000000000000000000082169050919050565b613bc981613b94565b8114613bd457600080fd5b50565b600081359050613be681613bc0565b92915050565b600060208284031215613c0257613c01613a8c565b5b6000613c1084828501613bd7565b91505092915050565b60008115159050919050565b613c2e81613c19565b82525050565b6000602082019050613c496000830184613c25565b92915050565b600060208284031215613c6557613c64613a8c565b5b6000613c7384828501613b15565b91505092915050565b600081519050919050565b600082825260208201905092915050565b60005b83811015613cb6578082015181840152602081019050613c9b565b60008484015250505050565b6000601f19601f8301169050919050565b6000613cde82613c7c565b613ce88185613c87565b9350613cf8818560208601613c98565b613d0181613cc2565b840191505092915050565b60006020820190508181036000830152613d268184613cd3565b905092915050565b600080fd5b7f4e487b7100000000000000000000000000000000000000000000000000000000600052604160045260246000fd5b613d6b82613cc2565b810181811067ffffffffffffffff82111715613d8a57613d89613d33565b5b80604052505050565b6000613d9d613a82565b9050613da98282613d62565b919050565b600067ffffffffffffffff821115613dc957613dc8613d33565b5b602082029050602081019050919050565b600080fd5b6000613df2613ded84613dae565b613d93565b90508083825260208201905060208402830185811115613e1557613e14613dda565b5b835b81811015613e3e5780613e2a8882613b15565b845260208401935050602081019050613e17565b5050509392505050565b600082601f830112613e5d57613e5c613d2e565b5b8135613e6d848260208601613ddf565b91505092915050565b600080fd5b600067ffffffffffffffff821115613e9657613e95613d33565b5b613e9f82613cc2565b9050602081019050919050565b82818337600083830152505050565b6000613ece613ec984613e7b565b613d93565b905082815260208101848484011115613eea57613ee9613e76565b5b613ef5848285613eac565b509392505050565b600082601f830112613f1257613f11613d2e565b5b8135613f22848260208601613ebb565b91505092915050565b600080600080600060a08688031215613f4757613f46613a8c565b5b6000613f5588828901613adf565b9550506020613f6688828901613adf565b945050604086013567ffffffffffffffff811115613f8757613f86613a91565b5b613f9388828901613e48565b935050606086013567ffffffffffffffff811115613fb457613fb3613a91565b5b613fc088828901613e48565b925050608086013567ffffffffffffffff811115613fe157613fe0613a91565b5b613fed88828901613efd565b9150509295509295909350565b6000806040838503121561401157614010613a8c565b5b600061401f85828601613b15565b925050602061403085828601613b15565b9150509250929050565b600067ffffffffffffffff82111561405557614054613d33565b5b602082029050602081019050919050565b60006140796140748461403a565b613d93565b9050808382526020820190506020840283018581111561409c5761409b613dda565b5b835b818110156140c557806140b18882613adf565b84526020840193505060208101905061409e565b5050509392505050565b600082601f8301126140e4576140e3613d2e565b5b81356140f4848260208601614066565b91505092915050565b6000806040838503121561411457614113613a8c565b5b600083013567ffffffffffffffff81111561413257614131613a91565b5b61413e858286016140cf565b925050602083013567ffffffffffffffff81111561415f5761415e613a91565b5b61416b85828601613e48565b9150509250929050565b600081519050919050565b600082825260208201905092915050565b6000819050602082019050919050565b6141aa81613af4565b82525050565b60006141bc83836141a1565b60208301905092915050565b6000602082019050919050565b60006141e082614175565b6141ea8185614180565b93506141f583614191565b8060005b8381101561422657815161420d88826141b0565b9750614218836141c8565b9250506001810190506141f9565b5085935050505092915050565b6000602082019050818103600083015261424d81846141d5565b905092915050565b6000610140820190508181036000830152614270818d613cd3565b905061427f602083018c613b6a565b61428c604083018b613b6a565b614299606083018a613b6a565b6142a66080830189613b6a565b6142b360a0830188613b6a565b6142c060c0830187613b6a565b6142cd60e0830186613b6a565b6142db610100830185613b6a565b6142e9610120830184613b6a565b9b9a5050505050505050505050565b61430181613ab6565b82525050565b600060208201905061431c60008301846142f8565b92915050565b61432b81613c19565b811461433657600080fd5b50565b60008135905061434881614322565b92915050565b6000806040838503121561436557614364613a8c565b5b600061437385828601613adf565b925050602061438485828601614339565b9150509250929050565b600080fd5b60008083601f8401126143a9576143a8613d2e565b5b8235905067ffffffffffffffff8111156143c6576143c561438e565b5b6020830191508360018202830111156143e2576143e1613dda565b5b9250929050565b60008060008060008060008060006101008a8c03121561440c5761440b613a8c565b5b600061441a8c828d01613b15565b995050602061442b8c828d01613b15565b985050604061443c8c828d01613b15565b97505060608a013567ffffffffffffffff81111561445d5761445c613a91565b5b6144698c828d01614393565b9650965050608061447c8c828d01613b15565b94505060a061448d8c828d01613b15565b93505060c061449e8c828d01613b15565b92505060e08a013567ffffffffffffffff8111156144bf576144be613a91565b5b6144cb8c828d01613efd565b9150509295985092959850929598565b600080604083850312156144f2576144f1613a8c565b5b600061450085828601613adf565b925050602061451185828601613adf565b9150509250929050565b600080600080600060a0868803121561453757614536613a8c565b5b600061454588828901613adf565b955050602061455688828901613adf565b945050604061456788828901613b15565b935050606061457888828901613b15565b925050608086013567ffffffffffffffff81111561459957614598613a91565b5b6145a588828901613efd565b9150509295509295909350565b7f455243313135353a2061646472657373207a65726f206973206e6f742061207660008201527f616c6964206f776e657200000000000000000000000000000000000000000000602082015250565b600061460e602a83613c87565b9150614619826145b2565b604082019050919050565b6000602082019050818103600083015261463d81614601565b9050919050565b7f4e487b7100000000000000000000000000000000000000000000000000000000600052601160045260246000fd5b600061467e82613af4565b915061468983613af4565b92508282039050818111156146a1576146a0614644565b5b92915050565b7f4e487b7100000000000000000000000000000000000000000000000000000000600052602260045260246000fd5b600060028204905060018216806146ee57607f821691505b602082108103614701576147006146a7565b5b50919050565b600061471282613af4565b915061471d83613af4565b925082820261472b81613af4565b9150828204841483151761474257614741614644565b5b5092915050565b7f426f6e6420697320636f6d706c65746564000000000000000000000000000000600082015250565b600061477f601183613c87565b915061478a82614749565b602082019050919050565b600060208201905081810360008301526147ae81614772565b9050919050565b7f4d696e696d756d206f626c69676174696f6e20706572696f64206e6f7420726560008201527f6163686564000000000000000000000000000000000000000000000000000000602082015250565b6000614811602583613c87565b915061481c826147b5565b604082019050919050565b6000602082019050818103600083015261484081614804565b9050919050565b7f4e487b7100000000000000000000000000000000000000000000000000000000600052601260045260246000fd5b600061488182613af4565b915061488c83613af4565b92508261489c5761489b614847565b5b828204905092915050565b60006040820190506148bc6000830185613b6a565b6148c96020830184613b6a565b9392505050565b7f455243313135353a2063616c6c6572206973206e6f7420746f6b656e206f776e60008201527f6572206f7220617070726f766564000000000000000000000000000000000000602082015250565b600061492c602e83613c87565b9150614937826148d0565b604082019050919050565b6000602082019050818103600083015261495b8161491f565b9050919050565b7f43616c6c6572206973206e6f7420746865206f776e6572000000000000000000600082015250565b6000614998601783613c87565b91506149a382614962565b602082019050919050565b600060208201905081810360008301526149c78161498b565b9050919050565b7f5769746864726177206e6f7420616c6c6f776564207768656e20616374697665600082015250565b6000614a04602083613c87565b9150614a0f826149ce565b602082019050919050565b60006020820190508181036000830152614a33816149f7565b9050919050565b7f5769746864726177206e6f7420616c6c6f77656420616674657220636f6d706c60008201527f6574696f6e000000000000000000000000000000000000000000000000000000602082015250565b6000614a96602583613c87565b9150614aa182614a3a565b604082019050919050565b60006020820190508181036000830152614ac581614a89565b9050919050565b7f5769746864726177206e6f7420616c6c6f776564207768656e2064656661756c60008201527f7465640000000000000000000000000000000000000000000000000000000000602082015250565b6000614b28602383613c87565b9150614b3382614acc565b604082019050919050565b60006020820190508181036000830152614b5781614b1b565b9050919050565b7f5769746864726177616c20746f6b656e20616d6f756e7420657863656564732060008201527f746f6b656e20616d6f756e7420696e20636f6e74726163740000000000000000602082015250565b6000614bba603883613c87565b9150614bc582614b5e565b604082019050919050565b60006020820190508181036000830152614be981614bad565b9050919050565b6000604082019050614c0560008301856142f8565b614c126020830184613b6a565b9392505050565b600081519050614c2881614322565b92915050565b600060208284031215614c4457614c43613a8c565b5b6000614c5284828501614c19565b91505092915050565b7f455243313135353a206163636f756e747320616e6420696473206c656e67746860008201527f206d69736d617463680000000000000000000000000000000000000000000000602082015250565b6000614cb7602983613c87565b9150614cc282614c5b565b604082019050919050565b60006020820190508181036000830152614ce681614caa565b9050919050565b7f4e487b7100000000000000000000000000000000000000000000000000000000600052603260045260246000fd5b6000614d2782613af4565b91507fffffffffffffffffffffffffffffffffffffffffffffffffffffffffffffffff8203614d5957614d58614644565b5b600182019050919050565b7f426f6e6420697320696e61637469766500000000000000000000000000000000600082015250565b6000614d9a601083613c87565b9150614da582614d64565b602082019050919050565b60006020820190508181036000830152614dc981614d8d565b9050919050565b7f496e73756666696369656e7420626f6e64207175616e746974792072656d616960008201527f6e696e6700000000000000000000000000000000000000000000000000000000602082015250565b6000614e2c602483613c87565b9150614e3782614dd0565b604082019050919050565b60006020820190508181036000830152614e5b81614e1f565b9050919050565b6000614e6d82613af4565b9150614e7883613af4565b9250828201905080821115614e9057614e8f614644565b5b92915050565b6000606082019050614eab60008301866142f8565b614eb860208301856142f8565b614ec56040830184613b6a565b949350505050565b7f426f6e64206973206e6f7420636f6d706c657465640000000000000000000000600082015250565b6000614f03601583613c87565b9150614f0e82614ecd565b602082019050919050565b60006020820190508181036000830152614f3281614ef6565b9050919050565b7f496e73756666696369656e7420626f6e64207175616e74697479000000000000600082015250565b6000614f6f601a83613c87565b9150614f7a82614f39565b602082019050919050565b60006020820190508181036000830152614f9e81614f62565b9050919050565b7f426f6e64206973206e6f742064656661756c7465640000000000000000000000600082015250565b6000614fdb601583613c87565b9150614fe682614fa5565b602082019050919050565b6000602082019050818103600083015261500a81614fce565b9050919050565b7f426f6e64206973206e6f742063616e63656c6564000000000000000000000000600082015250565b6000615047601483613c87565b915061505282615011565b602082019050919050565b600060208201905081810360008301526150768161503a565b9050919050565b7f426f6e6420697320616c726561647920636f6d706c6574656400000000000000600082015250565b60006150b3601983613c87565b91506150be8261507d565b602082019050919050565b600060208201905081810360008301526150e2816150a6565b9050919050565b60006150f58385613c87565b9350615102838584613eac565b61510b83613cc2565b840190509392505050565b600081519050919050565b600082825260208201905092915050565b600061513d82615116565b6151478185615121565b9350615157818560208601613c98565b61516081613cc2565b840191505092915050565b600061010082019050615181600083018c613b6a565b61518e602083018b613b6a565b61519b604083018a613b6a565b81810360608301526151ae81888a6150e9565b90506151bd6080830187613b6a565b6151ca60a0830186613b6a565b6151d760c0830185613b6a565b81810360e08301526151e98184615132565b90509a9950505050505050505050565b60008151905061520881613afe565b92915050565b60006020828403121561522457615223613a8c565b5b6000615232848285016151f9565b91505092915050565b7f626f6e642069732064656661756c746564000000000000000000000000000000600082015250565b6000615271601183613c87565b915061527c8261523b565b602082019050919050565b600060208201905081810360008301526152a081615264565b9050919050565b7f626f6e6420697320636f6d706c65746564000000000000000000000000000000600082015250565b60006152dd601183613c87565b91506152e8826152a7565b602082019050919050565b6000602082019050818103600083015261530c816152d0565b9050919050565b7f43616e6e6f742077697468647261772065786365737300000000000000000000600082015250565b6000615349601683613c87565b915061535482615313565b602082019050919050565b600060208201905081810360008301526153788161533c565b9050919050565b7f43616e6e6f742077697468647261772066726f6d20656d70747920706f6f6c00600082015250565b60006153b5601f83613c87565b91506153c08261537f565b602082019050919050565b600060208201905081810360008301526153e4816153a8565b9050919050565b7f455243313135353a2069647320616e6420616d6f756e7473206c656e6774682060008201527f6d69736d61746368000000000000000000000000000000000000000000000000602082015250565b6000615447602883613c87565b9150615452826153eb565b604082019050919050565b600060208201905081810360008301526154768161543a565b9050919050565b7f455243313135353a207472616e7366657220746f20746865207a65726f20616460008201527f6472657373000000000000000000000000000000000000000000000000000000602082015250565b60006154d9602583613c87565b91506154e48261547d565b604082019050919050565b60006020820190508181036000830152615508816154cc565b9050919050565b7f455243313135353a20696e73756666696369656e742062616c616e636520666f60008201527f72207472616e7366657200000000000000000000000000000000000000000000602082015250565b600061556b602a83613c87565b91506155768261550f565b604082019050919050565b6000602082019050818103600083015261559a8161555e565b9050919050565b600060408201905081810360008301526155bb81856141d5565b905081810360208301526155cf81846141d5565b90509392505050565b7f455243313135353a206275726e2066726f6d20746865207a65726f206164647260008201527f6573730000000000000000000000000000000000000000000000000000000000602082015250565b6000615634602383613c87565b915061563f826155d8565b604082019050919050565b6000602082019050818103600083015261566381615627565b9050919050565b7f455243313135353a206275726e20616d6f756e7420657863656564732062616c60008201527f616e636500000000000000000000000000000000000000000000000000000000602082015250565b60006156c6602483613c87565b91506156d18261566a565b604082019050919050565b600060208201905081810360008301526156f5816156b9565b9050919050565b7f455243313135353a2073657474696e6720617070726f76616c2073746174757360008201527f20666f722073656c660000000000000000000000000000000000000000000000602082015250565b6000615758602983613c87565b9150615763826156fc565b604082019050919050565b600060208201905081810360008301526157878161574b565b9050919050565b600060a0820190506157a360008301886142f8565b6157b060208301876142f8565b81810360408301526157c281866141d5565b905081810360608301526157d681856141d5565b905081810360808301526157ea8184615132565b90509695505050505050565b60008151905061580581613bc0565b92915050565b60006020828403121561582157615820613a8c565b5b600061582f848285016157f6565b91505092915050565b60008160e01c9050919050565b600060033d11156158645760046000803e615861600051615838565b90505b90565b600060443d106158f457615879613a82565b60043d036004823e80513d602482011167ffffffffffffffff821117156158a15750506158f4565b808201805167ffffffffffffffff8111156158bf57505050506158f4565b80602083010160043d0385018111156158dc5750505050506158f4565b6158eb82602001850186613d62565b82955050505050505b90565b7f455243313135353a207472616e7366657220746f206e6f6e2d4552433131353560008201527f526563656976657220696d706c656d656e746572000000000000000000000000602082015250565b6000615953603483613c87565b915061595e826158f7565b604082019050919050565b6000602082019050818103600083015261598281615946565b9050919050565b7f455243313135353a204552433131353552656365697665722072656a6563746560008201527f6420746f6b656e73000000000000000000000000000000000000000000000000602082015250565b60006159e5602883613c87565b91506159f082615989565b604082019050919050565b60006020820190508181036000830152615a14816159d8565b9050919050565b600060a082019050615a3060008301886142f8565b615a3d60208301876142f8565b615a4a6040830186613b6a565b615a576060830185613b6a565b8181036080830152615a698184615132565b9050969550505050505056fea2646970667358221220184c7307331c5bc3051939c9daf0ceb7b373d897a90c5afea85ff8a1083039ea64736f6c63430008110033a26469706673582212203c01e6c2440571cc7d38362bcc94eb1c094e0b1ddf2f39d8f67e84627bc8a6a164736f6c63430008110033",
  "linkReferences": {},
  "deployedLinkReferences": {}
}