{
  "_format": "hh-sol-artifact-1",
  "contractName": "Bond",
  "sourceName": "contracts/Bond.sol",
  "abi": [
    {
      "inputs": [
        {
          "internalType": "address",
          "name": "bondDB",
          "type": "address"
        },
        {
          "internalType": "string",
          "name": "uri",
          "type": "string"
        }
      ],
      "stateMutability": "nonpayable",
      "type": "constructor"
    },
    {
      "anonymous": false,
      "inputs": [
        {
          "indexed": true,
          "internalType": "address",
          "name": "account",
          "type": "address"
        },
        {
          "indexed": true,
          "internalType": "address",
          "name": "operator",
          "type": "address"
        },
        {
          "indexed": false,
          "internalType": "bool",
          "name": "approved",
          "type": "bool"
        }
      ],
      "name": "ApprovalForAll",
      "type": "event"
    },
    {
      "anonymous": false,
      "inputs": [
        {
          "indexed": true,
          "internalType": "address",
          "name": "operator",
          "type": "address"
        },
        {
          "indexed": true,
          "internalType": "address",
          "name": "from",
          "type": "address"
        },
        {
          "indexed": true,
          "internalType": "address",
          "name": "to",
          "type": "address"
        },
        {
          "indexed": false,
          "internalType": "uint256[]",
          "name": "ids",
          "type": "uint256[]"
        },
        {
          "indexed": false,
          "internalType": "uint256[]",
          "name": "values",
          "type": "uint256[]"
        }
      ],
      "name": "TransferBatch",
      "type": "event"
    },
    {
      "anonymous": false,
      "inputs": [
        {
          "indexed": true,
          "internalType": "address",
          "name": "operator",
          "type": "address"
        },
        {
          "indexed": true,
          "internalType": "address",
          "name": "from",
          "type": "address"
        },
        {
          "indexed": true,
          "internalType": "address",
          "name": "to",
          "type": "address"
        },
        {
          "indexed": false,
          "internalType": "uint256",
          "name": "id",
          "type": "uint256"
        },
        {
          "indexed": false,
          "internalType": "uint256",
          "name": "value",
          "type": "uint256"
        }
      ],
      "name": "TransferSingle",
      "type": "event"
    },
    {
      "anonymous": false,
      "inputs": [
        {
          "indexed": false,
          "internalType": "string",
          "name": "value",
          "type": "string"
        },
        {
          "indexed": true,
          "internalType": "uint256",
          "name": "id",
          "type": "uint256"
        }
      ],
      "name": "URI",
      "type": "event"
    },
    {
      "inputs": [
        {
          "internalType": "address",
          "name": "account",
          "type": "address"
        },
        {
          "internalType": "uint256",
          "name": "id",
          "type": "uint256"
        }
      ],
      "name": "balanceOf",
      "outputs": [
        {
          "internalType": "uint256",
          "name": "",
          "type": "uint256"
        }
      ],
      "stateMutability": "view",
      "type": "function"
    },
    {
      "inputs": [
        {
          "internalType": "address[]",
          "name": "accounts",
          "type": "address[]"
        },
        {
          "internalType": "uint256[]",
          "name": "ids",
          "type": "uint256[]"
        }
      ],
      "name": "balanceOfBatch",
      "outputs": [
        {
          "internalType": "uint256[]",
          "name": "",
          "type": "uint256[]"
        }
      ],
      "stateMutability": "view",
      "type": "function"
    },
    {
      "inputs": [
        {
          "internalType": "uint256",
          "name": "id",
          "type": "uint256"
        }
      ],
      "name": "bondData",
      "outputs": [
        {
          "internalType": "uint256",
          "name": "",
          "type": "uint256"
        },
        {
          "internalType": "uint256",
          "name": "",
          "type": "uint256"
        },
        {
          "internalType": "uint256",
          "name": "",
          "type": "uint256"
        },
        {
          "internalType": "uint256",
          "name": "",
          "type": "uint256"
        },
        {
          "internalType": "uint256",
          "name": "",
          "type": "uint256"
        },
        {
          "internalType": "uint256",
          "name": "",
          "type": "uint256"
        },
        {
          "internalType": "uint256",
          "name": "",
          "type": "uint256"
        },
        {
          "internalType": "uint256",
          "name": "",
          "type": "uint256"
        },
        {
          "internalType": "uint256",
          "name": "",
          "type": "uint256"
        }
      ],
      "stateMutability": "view",
      "type": "function"
    },
    {
      "inputs": [
        {
          "internalType": "uint256",
          "name": "id",
          "type": "uint256"
        }
      ],
      "name": "bondDataAsStruct",
      "outputs": [
        {
          "components": [
            {
              "internalType": "uint256",
              "name": "tokenAmountPerBond",
              "type": "uint256"
            },
            {
              "internalType": "uint256",
              "name": "initBlock",
              "type": "uint256"
            },
            {
              "internalType": "uint256",
              "name": "maturityBlock",
              "type": "uint256"
            },
            {
              "internalType": "uint256",
              "name": "endOfActiveBlock",
              "type": "uint256"
            },
            {
              "internalType": "uint256",
              "name": "activeDurationInDays",
              "type": "uint256"
            },
            {
              "internalType": "uint256",
              "name": "durationInDays",
              "type": "uint256"
            },
            {
              "internalType": "uint256",
              "name": "issuedQuantity",
              "type": "uint256"
            },
            {
              "internalType": "uint256",
              "name": "minPurchasedQuantity",
              "type": "uint256"
            },
            {
              "internalType": "uint256",
              "name": "couponRate",
              "type": "uint256"
            }
          ],
          "internalType": "struct IBond.BondData",
          "name": "",
          "type": "tuple"
        }
      ],
      "stateMutability": "view",
      "type": "function"
    },
    {
      "inputs": [
        {
          "internalType": "uint256",
          "name": "id",
          "type": "uint256"
        }
      ],
      "name": "bondMetadata",
      "outputs": [
        {
          "internalType": "string",
          "name": "",
          "type": "string"
        },
        {
          "internalType": "address",
          "name": "",
          "type": "address"
        },
        {
          "internalType": "address",
          "name": "",
          "type": "address"
        }
      ],
      "stateMutability": "view",
      "type": "function"
    },
    {
      "inputs": [
        {
          "internalType": "uint256",
          "name": "id",
          "type": "uint256"
        }
      ],
      "name": "bondMetadataAsStruct",
      "outputs": [
        {
          "components": [
            {
              "internalType": "string",
              "name": "ticker",
              "type": "string"
            },
            {
              "internalType": "address",
              "name": "currency",
              "type": "address"
            },
            {
              "internalType": "address",
              "name": "issuer",
              "type": "address"
            }
          ],
          "internalType": "struct IBond.BondMetadata",
          "name": "",
          "type": "tuple"
        }
      ],
      "stateMutability": "view",
      "type": "function"
    },
    {
      "inputs": [
        {
          "internalType": "address",
          "name": "account",
          "type": "address"
        },
        {
          "internalType": "uint256",
          "name": "id",
          "type": "uint256"
        },
        {
          "internalType": "uint256",
          "name": "quantity",
          "type": "uint256"
        }
      ],
      "name": "burn",
      "outputs": [],
      "stateMutability": "nonpayable",
      "type": "function"
    },
    {
      "inputs": [
        {
          "internalType": "address",
          "name": "account",
          "type": "address"
        },
        {
          "internalType": "address",
          "name": "operator",
          "type": "address"
        }
      ],
      "name": "isApprovedForAll",
      "outputs": [
        {
          "internalType": "bool",
          "name": "",
          "type": "bool"
        }
      ],
      "stateMutability": "view",
      "type": "function"
    },
    {
      "inputs": [
        {
          "internalType": "address",
          "name": "to",
          "type": "address"
        },
        {
          "internalType": "uint256",
          "name": "bondQuantity",
          "type": "uint256"
        },
        {
          "components": [
            {
              "internalType": "uint256",
              "name": "tokenAmountPerBond",
              "type": "uint256"
            },
            {
              "internalType": "uint256",
              "name": "initBlock",
              "type": "uint256"
            },
            {
              "internalType": "uint256",
              "name": "maturityBlock",
              "type": "uint256"
            },
            {
              "internalType": "uint256",
              "name": "endOfActiveBlock",
              "type": "uint256"
            },
            {
              "internalType": "uint256",
              "name": "activeDurationInDays",
              "type": "uint256"
            },
            {
              "internalType": "uint256",
              "name": "durationInDays",
              "type": "uint256"
            },
            {
              "internalType": "uint256",
              "name": "issuedQuantity",
              "type": "uint256"
            },
            {
              "internalType": "uint256",
              "name": "minPurchasedQuantity",
              "type": "uint256"
            },
            {
              "internalType": "uint256",
              "name": "couponRate",
              "type": "uint256"
            }
          ],
          "internalType": "struct IBond.BondData",
          "name": "data",
          "type": "tuple"
        },
        {
          "components": [
            {
              "internalType": "string",
              "name": "ticker",
              "type": "string"
            },
            {
              "internalType": "address",
              "name": "currency",
              "type": "address"
            },
            {
              "internalType": "address",
              "name": "issuer",
              "type": "address"
            }
          ],
          "internalType": "struct IBond.BondMetadata",
          "name": "metadata",
          "type": "tuple"
        }
      ],
      "name": "mint",
      "outputs": [
        {
          "internalType": "uint256",
          "name": "id",
          "type": "uint256"
        }
      ],
      "stateMutability": "nonpayable",
      "type": "function"
    },
    {
      "inputs": [],
      "name": "numBondsIssued",
      "outputs": [
        {
          "internalType": "uint256",
          "name": "",
          "type": "uint256"
        }
      ],
      "stateMutability": "view",
      "type": "function"
    },
    {
      "inputs": [
        {
          "internalType": "address",
          "name": "from",
          "type": "address"
        },
        {
          "internalType": "address",
          "name": "to",
          "type": "address"
        },
        {
          "internalType": "uint256[]",
          "name": "ids",
          "type": "uint256[]"
        },
        {
          "internalType": "uint256[]",
          "name": "amounts",
          "type": "uint256[]"
        },
        {
          "internalType": "bytes",
          "name": "data",
          "type": "bytes"
        }
      ],
      "name": "safeBatchTransferFrom",
      "outputs": [],
      "stateMutability": "nonpayable",
      "type": "function"
    },
    {
      "inputs": [
        {
          "internalType": "address",
          "name": "from",
          "type": "address"
        },
        {
          "internalType": "address",
          "name": "to",
          "type": "address"
        },
        {
          "internalType": "uint256",
          "name": "id",
          "type": "uint256"
        },
        {
          "internalType": "uint256",
          "name": "amount",
          "type": "uint256"
        },
        {
          "internalType": "bytes",
          "name": "data",
          "type": "bytes"
        }
      ],
      "name": "safeTransferFrom",
      "outputs": [],
      "stateMutability": "nonpayable",
      "type": "function"
    },
    {
      "inputs": [
        {
          "internalType": "address",
          "name": "operator",
          "type": "address"
        },
        {
          "internalType": "bool",
          "name": "approved",
          "type": "bool"
        }
      ],
      "name": "setApprovalForAll",
      "outputs": [],
      "stateMutability": "nonpayable",
      "type": "function"
    },
    {
      "inputs": [
        {
          "internalType": "bytes4",
          "name": "interfaceId",
          "type": "bytes4"
        }
      ],
      "name": "supportsInterface",
      "outputs": [
        {
          "internalType": "bool",
          "name": "",
          "type": "bool"
        }
      ],
      "stateMutability": "view",
      "type": "function"
    },
    {
      "inputs": [
        {
          "internalType": "uint256",
          "name": "",
          "type": "uint256"
        }
      ],
      "name": "uri",
      "outputs": [
        {
          "internalType": "string",
          "name": "",
          "type": "string"
        }
      ],
      "stateMutability": "view",
      "type": "function"
    }
  ],
  "bytecode": "0x60c06040523480156200001157600080fd5b50604051620043bf380380620043bf8339818101604052810190620000379190620002f4565b806200004981620000d160201b60201c565b503373ffffffffffffffffffffffffffffffffffffffff1660808173ffffffffffffffffffffffffffffffffffffffff16815250508173ffffffffffffffffffffffffffffffffffffffff1660a08173ffffffffffffffffffffffffffffffffffffffff1681525050620000c96005620000e660201b62000ffc1760201c565b50506200068c565b8060029081620000e29190620005a5565b5050565b6001816000016000828254019250508190555050565b6000604051905090565b600080fd5b600080fd5b600073ffffffffffffffffffffffffffffffffffffffff82169050919050565b60006200013d8262000110565b9050919050565b6200014f8162000130565b81146200015b57600080fd5b50565b6000815190506200016f8162000144565b92915050565b600080fd5b600080fd5b6000601f19601f8301169050919050565b7f4e487b7100000000000000000000000000000000000000000000000000000000600052604160045260246000fd5b620001ca826200017f565b810181811067ffffffffffffffff82111715620001ec57620001eb62000190565b5b80604052505050565b600062000201620000fc565b90506200020f8282620001bf565b919050565b600067ffffffffffffffff82111562000232576200023162000190565b5b6200023d826200017f565b9050602081019050919050565b60005b838110156200026a5780820151818401526020810190506200024d565b60008484015250505050565b60006200028d620002878462000214565b620001f5565b905082815260208101848484011115620002ac57620002ab6200017a565b5b620002b98482856200024a565b509392505050565b600082601f830112620002d957620002d862000175565b5b8151620002eb84826020860162000276565b91505092915050565b600080604083850312156200030e576200030d62000106565b5b60006200031e858286016200015e565b925050602083015167ffffffffffffffff8111156200034257620003416200010b565b5b6200035085828601620002c1565b9150509250929050565b600081519050919050565b7f4e487b7100000000000000000000000000000000000000000000000000000000600052602260045260246000fd5b60006002820490506001821680620003ad57607f821691505b602082108103620003c357620003c262000365565b5b50919050565b60008190508160005260206000209050919050565b60006020601f8301049050919050565b600082821b905092915050565b6000600883026200042d7fffffffffffffffffffffffffffffffffffffffffffffffffffffffffffffffff82620003ee565b620004398683620003ee565b95508019841693508086168417925050509392505050565b6000819050919050565b6000819050919050565b600062000486620004806200047a8462000451565b6200045b565b62000451565b9050919050565b6000819050919050565b620004a28362000465565b620004ba620004b1826200048d565b848454620003fb565b825550505050565b600090565b620004d1620004c2565b620004de81848462000497565b505050565b5b818110156200050657620004fa600082620004c7565b600181019050620004e4565b5050565b601f82111562000555576200051f81620003c9565b6200052a84620003de565b810160208510156200053a578190505b620005526200054985620003de565b830182620004e3565b50505b505050565b600082821c905092915050565b60006200057a600019846008026200055a565b1980831691505092915050565b600062000595838362000567565b9150826002028217905092915050565b620005b0826200035a565b67ffffffffffffffff811115620005cc57620005cb62000190565b5b620005d8825462000394565b620005e58282856200050a565b600060209050601f8311600181146200061d576000841562000608578287015190505b62000614858262000587565b86555062000684565b601f1984166200062d86620003c9565b60005b82811015620006575784890151825560018201915060208501945060208101905062000630565b8683101562000677578489015162000673601f89168262000567565b8355505b6001600288020188555050505b505050505050565b60805160a051613d10620006af6000396000610654015260005050613d106000f3fe608060405234801561001057600080fd5b50600436106100f45760003560e01c80638c3526c211610097578063c3ada2ed11610066578063c3ada2ed146102d9578063e985e9c514610309578063f242432a14610339578063f5298aca14610355576100f4565b80638c3526c2146102355780639a3cee8e146102675780639eade48114610285578063a22cb465146102bd576100f4565b80632eb2c2d6116100d35780632eb2c2d6146101895780634196afd4146101a55780634dd9c9c7146101d55780634e1273f414610205576100f4565b8062fdd58e146100f957806301ffc9a7146101295780630e89341c14610159575b600080fd5b610113600480360381019061010e919061214c565b610371565b604051610120919061219b565b60405180910390f35b610143600480360381019061013e919061220e565b610439565b6040516101509190612256565b60405180910390f35b610173600480360381019061016e9190612271565b61051b565b604051610180919061232e565b60405180910390f35b6101a3600480360381019061019e919061254d565b6105af565b005b6101bf60048036038101906101ba9190612827565b610650565b6040516101cc919061219b565b60405180910390f35b6101ef60048036038101906101ea9190612271565b610891565b6040516101fc9190612972565b60405180910390f35b61021f600480360381019061021a9190612a51565b610919565b60405161022c9190612b78565b60405180910390f35b61024f600480360381019061024a9190612271565b610a32565b60405161025e93929190612ba9565b60405180910390f35b61026f610bb4565b60405161027c919061219b565b60405180910390f35b61029f600480360381019061029a9190612271565b610bd1565b6040516102b499989796959493929190612be7565b60405180910390f35b6102d760048036038101906102d29190612ca0565b610ca9565b005b6102f360048036038101906102ee9190612271565b610cbf565b6040516103009190612d89565b60405180910390f35b610323600480360381019061031e9190612dab565b610e2a565b6040516103309190612256565b60405180910390f35b610353600480360381019061034e9190612deb565b610ebe565b005b61036f600480360381019061036a9190612e82565b610f5f565b005b60008073ffffffffffffffffffffffffffffffffffffffff168373ffffffffffffffffffffffffffffffffffffffff16036103e1576040517f08c379a00000000000000000000000000000000000000000000000000000000081526004016103d890612f47565b60405180910390fd5b60008083815260200190815260200160002060008473ffffffffffffffffffffffffffffffffffffffff1673ffffffffffffffffffffffffffffffffffffffff16815260200190815260200160002054905092915050565b60007fd9b67a26000000000000000000000000000000000000000000000000000000007bffffffffffffffffffffffffffffffffffffffffffffffffffffffff1916827bffffffffffffffffffffffffffffffffffffffffffffffffffffffff1916148061050457507f0e89341c000000000000000000000000000000000000000000000000000000007bffffffffffffffffffffffffffffffffffffffffffffffffffffffff1916827bffffffffffffffffffffffffffffffffffffffffffffffffffffffff1916145b80610514575061051382611012565b5b9050919050565b60606002805461052a90612f96565b80601f016020809104026020016040519081016040528092919081815260200182805461055690612f96565b80156105a35780601f10610578576101008083540402835291602001916105a3565b820191906000526020600020905b81548152906001019060200180831161058657829003601f168201915b50505050509050919050565b6105b761107c565b73ffffffffffffffffffffffffffffffffffffffff168573ffffffffffffffffffffffffffffffffffffffff1614806105fd57506105fc856105f761107c565b610e2a565b5b61063c576040517f08c379a000000000000000000000000000000000000000000000000000000000815260040161063390613039565b60405180910390fd5b6106498585858585611084565b5050505050565b60007f000000000000000000000000000000000000000000000000000000000000000073ffffffffffffffffffffffffffffffffffffffff16630f04ba67336040518263ffffffff1660e01b81526004016106ab9190613059565b602060405180830381865afa1580156106c8573d6000803e3d6000fd5b505050506040513d601f19601f820116820180604052508101906106ec9190613089565b61072b576040517f08c379a000000000000000000000000000000000000000000000000000000000815260040161072290613102565b60405180910390fd5b61073560056113a5565b90506107416005610ffc565b8260036000838152602001908152602001600020600082015181600001556020820151816001015560408201518160020155606082015181600301556080820151816004015560a0820151816005015560c0820151816006015560e082015181600701556101008201518160080155905050816004600083815260200190815260200160002060008201518160000190816107dc91906132ce565b5060208201518160010160006101000a81548173ffffffffffffffffffffffffffffffffffffffff021916908373ffffffffffffffffffffffffffffffffffffffff16021790555060408201518160020160006101000a81548173ffffffffffffffffffffffffffffffffffffffff021916908373ffffffffffffffffffffffffffffffffffffffff160217905550905050610889858286604051806020016040528060008152506113b3565b949350505050565b61089961200b565b600360008381526020019081526020016000206040518061012001604052908160008201548152602001600182015481526020016002820154815260200160038201548152602001600482015481526020016005820154815260200160068201548152602001600782015481526020016008820154815250509050919050565b6060815183511461095f576040517f08c379a000000000000000000000000000000000000000000000000000000000815260040161095690613412565b60405180910390fd5b6000835167ffffffffffffffff81111561097c5761097b612355565b5b6040519080825280602002602001820160405280156109aa5781602001602082028036833780820191505090505b50905060005b8451811015610a27576109f78582815181106109cf576109ce613432565b5b60200260200101518583815181106109ea576109e9613432565b5b6020026020010151610371565b828281518110610a0a57610a09613432565b5b60200260200101818152505080610a2090613490565b90506109b0565b508091505092915050565b6060600080600060046000868152602001908152602001600020604051806060016040529081600082018054610a6790612f96565b80601f0160208091040260200160405190810160405280929190818152602001828054610a9390612f96565b8015610ae05780601f10610ab557610100808354040283529160200191610ae0565b820191906000526020600020905b815481529060010190602001808311610ac357829003601f168201915b505050505081526020016001820160009054906101000a900473ffffffffffffffffffffffffffffffffffffffff1673ffffffffffffffffffffffffffffffffffffffff1673ffffffffffffffffffffffffffffffffffffffff1681526020016002820160009054906101000a900473ffffffffffffffffffffffffffffffffffffffff1673ffffffffffffffffffffffffffffffffffffffff1673ffffffffffffffffffffffffffffffffffffffff16815250509050806000015181602001518260400151935093509350509193909250565b60006001610bc260056113a5565b610bcc91906134d8565b905090565b600080600080600080600080600080600360008c81526020019081526020016000206040518061012001604052908160008201548152602001600182015481526020016002820154815260200160038201548152602001600482015481526020016005820154815260200160068201548152602001600782015481526020016008820154815250509050806000015181602001518260400151836060015184608001518560a001518660c001518760e00151886101000151995099509950995099509950995099509950509193959799909294969850565b610cbb610cb461107c565b8383611563565b5050565b610cc7612057565b60046000838152602001908152602001600020604051806060016040529081600082018054610cf590612f96565b80601f0160208091040260200160405190810160405280929190818152602001828054610d2190612f96565b8015610d6e5780601f10610d4357610100808354040283529160200191610d6e565b820191906000526020600020905b815481529060010190602001808311610d5157829003601f168201915b505050505081526020016001820160009054906101000a900473ffffffffffffffffffffffffffffffffffffffff1673ffffffffffffffffffffffffffffffffffffffff1673ffffffffffffffffffffffffffffffffffffffff1681526020016002820160009054906101000a900473ffffffffffffffffffffffffffffffffffffffff1673ffffffffffffffffffffffffffffffffffffffff1673ffffffffffffffffffffffffffffffffffffffff16815250509050919050565b6000600160008473ffffffffffffffffffffffffffffffffffffffff1673ffffffffffffffffffffffffffffffffffffffff16815260200190815260200160002060008373ffffffffffffffffffffffffffffffffffffffff1673ffffffffffffffffffffffffffffffffffffffff16815260200190815260200160002060009054906101000a900460ff16905092915050565b610ec661107c565b73ffffffffffffffffffffffffffffffffffffffff168573ffffffffffffffffffffffffffffffffffffffff161480610f0c5750610f0b85610f0661107c565b610e2a565b5b610f4b576040517f08c379a0000000000000000000000000000000000000000000000000000000008152600401610f4290613039565b60405180910390fd5b610f5885858585856116cf565b5050505050565b610f6761107c565b73ffffffffffffffffffffffffffffffffffffffff168373ffffffffffffffffffffffffffffffffffffffff161480610fad5750610fac83610fa761107c565b610e2a565b5b610fec576040517f08c379a0000000000000000000000000000000000000000000000000000000008152600401610fe390613039565b60405180910390fd5b610ff783838361196a565b505050565b6001816000016000828254019250508190555050565b60007f01ffc9a7000000000000000000000000000000000000000000000000000000007bffffffffffffffffffffffffffffffffffffffffffffffffffffffff1916827bffffffffffffffffffffffffffffffffffffffffffffffffffffffff1916149050919050565b600033905090565b81518351146110c8576040517f08c379a00000000000000000000000000000000000000000000000000000000081526004016110bf9061357e565b60405180910390fd5b600073ffffffffffffffffffffffffffffffffffffffff168473ffffffffffffffffffffffffffffffffffffffff1603611137576040517f08c379a000000000000000000000000000000000000000000000000000000000815260040161112e90613610565b60405180910390fd5b600061114161107c565b9050611151818787878787611bb0565b60005b845181101561130257600085828151811061117257611171613432565b5b60200260200101519050600085838151811061119157611190613432565b5b60200260200101519050600080600084815260200190815260200160002060008b73ffffffffffffffffffffffffffffffffffffffff1673ffffffffffffffffffffffffffffffffffffffff16815260200190815260200160002054905081811015611232576040517f08c379a0000000000000000000000000000000000000000000000000000000008152600401611229906136a2565b60405180910390fd5b81810360008085815260200190815260200160002060008c73ffffffffffffffffffffffffffffffffffffffff1673ffffffffffffffffffffffffffffffffffffffff168152602001908152602001600020819055508160008085815260200190815260200160002060008b73ffffffffffffffffffffffffffffffffffffffff1673ffffffffffffffffffffffffffffffffffffffff16815260200190815260200160002060008282546112e791906136c2565b92505081905550505050806112fb90613490565b9050611154565b508473ffffffffffffffffffffffffffffffffffffffff168673ffffffffffffffffffffffffffffffffffffffff168273ffffffffffffffffffffffffffffffffffffffff167f4a39dc06d4c0dbc64b70af90fd698a233a518aa5d07e595d983b8c0526c8f7fb87876040516113799291906136f6565b60405180910390a461138f818787878787611bb8565b61139d818787878787611bc0565b505050505050565b600081600001549050919050565b600073ffffffffffffffffffffffffffffffffffffffff168473ffffffffffffffffffffffffffffffffffffffff1603611422576040517f08c379a00000000000000000000000000000000000000000000000000000000081526004016114199061379f565b60405180910390fd5b600061142c61107c565b9050600061143985611d97565b9050600061144685611d97565b905061145783600089858589611bb0565b8460008088815260200190815260200160002060008973ffffffffffffffffffffffffffffffffffffffff1673ffffffffffffffffffffffffffffffffffffffff16815260200190815260200160002060008282546114b691906136c2565b925050819055508673ffffffffffffffffffffffffffffffffffffffff16600073ffffffffffffffffffffffffffffffffffffffff168473ffffffffffffffffffffffffffffffffffffffff167fc3d58168c5ae7397731d063d5bbf3d657854427343f4c083240f7aacaa2d0f6289896040516115349291906137bf565b60405180910390a461154b83600089858589611bb8565b61155a83600089898989611e11565b50505050505050565b8173ffffffffffffffffffffffffffffffffffffffff168373ffffffffffffffffffffffffffffffffffffffff16036115d1576040517f08c379a00000000000000000000000000000000000000000000000000000000081526004016115c89061385a565b60405180910390fd5b80600160008573ffffffffffffffffffffffffffffffffffffffff1673ffffffffffffffffffffffffffffffffffffffff16815260200190815260200160002060008473ffffffffffffffffffffffffffffffffffffffff1673ffffffffffffffffffffffffffffffffffffffff16815260200190815260200160002060006101000a81548160ff0219169083151502179055508173ffffffffffffffffffffffffffffffffffffffff168373ffffffffffffffffffffffffffffffffffffffff167f17307eab39ab6107e8899845ad3d59bd9653f200f220920489ca2b5937696c31836040516116c29190612256565b60405180910390a3505050565b600073ffffffffffffffffffffffffffffffffffffffff168473ffffffffffffffffffffffffffffffffffffffff160361173e576040517f08c379a000000000000000000000000000000000000000000000000000000000815260040161173590613610565b60405180910390fd5b600061174861107c565b9050600061175585611d97565b9050600061176285611d97565b9050611772838989858589611bb0565b600080600088815260200190815260200160002060008a73ffffffffffffffffffffffffffffffffffffffff1673ffffffffffffffffffffffffffffffffffffffff16815260200190815260200160002054905085811015611809576040517f08c379a0000000000000000000000000000000000000000000000000000000008152600401611800906136a2565b60405180910390fd5b85810360008089815260200190815260200160002060008b73ffffffffffffffffffffffffffffffffffffffff1673ffffffffffffffffffffffffffffffffffffffff168152602001908152602001600020819055508560008089815260200190815260200160002060008a73ffffffffffffffffffffffffffffffffffffffff1673ffffffffffffffffffffffffffffffffffffffff16815260200190815260200160002060008282546118be91906136c2565b925050819055508773ffffffffffffffffffffffffffffffffffffffff168973ffffffffffffffffffffffffffffffffffffffff168573ffffffffffffffffffffffffffffffffffffffff167fc3d58168c5ae7397731d063d5bbf3d657854427343f4c083240f7aacaa2d0f628a8a60405161193b9291906137bf565b60405180910390a4611951848a8a86868a611bb8565b61195f848a8a8a8a8a611e11565b505050505050505050565b600073ffffffffffffffffffffffffffffffffffffffff168373ffffffffffffffffffffffffffffffffffffffff16036119d9576040517f08c379a00000000000000000000000000000000000000000000000000000000081526004016119d0906138ec565b60405180910390fd5b60006119e361107c565b905060006119f084611d97565b905060006119fd84611d97565b9050611a1d83876000858560405180602001604052806000815250611bb0565b600080600087815260200190815260200160002060008873ffffffffffffffffffffffffffffffffffffffff1673ffffffffffffffffffffffffffffffffffffffff16815260200190815260200160002054905084811015611ab4576040517f08c379a0000000000000000000000000000000000000000000000000000000008152600401611aab9061397e565b60405180910390fd5b84810360008088815260200190815260200160002060008973ffffffffffffffffffffffffffffffffffffffff1673ffffffffffffffffffffffffffffffffffffffff16815260200190815260200160002081905550600073ffffffffffffffffffffffffffffffffffffffff168773ffffffffffffffffffffffffffffffffffffffff168573ffffffffffffffffffffffffffffffffffffffff167fc3d58168c5ae7397731d063d5bbf3d657854427343f4c083240f7aacaa2d0f628989604051611b819291906137bf565b60405180910390a4611ba784886000868660405180602001604052806000815250611bb8565b50505050505050565b505050505050565b505050505050565b611bdf8473ffffffffffffffffffffffffffffffffffffffff16611fe8565b15611d8f578373ffffffffffffffffffffffffffffffffffffffff1663bc197c8187878686866040518663ffffffff1660e01b8152600401611c259594939291906139f3565b6020604051808303816000875af1925050508015611c6157506040513d601f19601f82011682018060405250810190611c5e9190613a70565b60015b611d0657611c6d613aaa565b806308c379a003611cc95750611c81613acc565b80611c8c5750611ccb565b806040517f08c379a0000000000000000000000000000000000000000000000000000000008152600401611cc0919061232e565b60405180910390fd5b505b6040517f08c379a0000000000000000000000000000000000000000000000000000000008152600401611cfd90613bce565b60405180910390fd5b63bc197c8160e01b7bffffffffffffffffffffffffffffffffffffffffffffffffffffffff1916817bffffffffffffffffffffffffffffffffffffffffffffffffffffffff191614611d8d576040517f08c379a0000000000000000000000000000000000000000000000000000000008152600401611d8490613c60565b60405180910390fd5b505b505050505050565b60606000600167ffffffffffffffff811115611db657611db5612355565b5b604051908082528060200260200182016040528015611de45781602001602082028036833780820191505090505b5090508281600081518110611dfc57611dfb613432565b5b60200260200101818152505080915050919050565b611e308473ffffffffffffffffffffffffffffffffffffffff16611fe8565b15611fe0578373ffffffffffffffffffffffffffffffffffffffff1663f23a6e6187878686866040518663ffffffff1660e01b8152600401611e76959493929190613c80565b6020604051808303816000875af1925050508015611eb257506040513d601f19601f82011682018060405250810190611eaf9190613a70565b60015b611f5757611ebe613aaa565b806308c379a003611f1a5750611ed2613acc565b80611edd5750611f1c565b806040517f08c379a0000000000000000000000000000000000000000000000000000000008152600401611f11919061232e565b60405180910390fd5b505b6040517f08c379a0000000000000000000000000000000000000000000000000000000008152600401611f4e90613bce565b60405180910390fd5b63f23a6e6160e01b7bffffffffffffffffffffffffffffffffffffffffffffffffffffffff1916817bffffffffffffffffffffffffffffffffffffffffffffffffffffffff191614611fde576040517f08c379a0000000000000000000000000000000000000000000000000000000008152600401611fd590613c60565b60405180910390fd5b505b505050505050565b6000808273ffffffffffffffffffffffffffffffffffffffff163b119050919050565b6040518061012001604052806000815260200160008152602001600081526020016000815260200160008152602001600081526020016000815260200160008152602001600081525090565b604051806060016040528060608152602001600073ffffffffffffffffffffffffffffffffffffffff168152602001600073ffffffffffffffffffffffffffffffffffffffff1681525090565b6000604051905090565b600080fd5b600080fd5b600073ffffffffffffffffffffffffffffffffffffffff82169050919050565b60006120e3826120b8565b9050919050565b6120f3816120d8565b81146120fe57600080fd5b50565b600081359050612110816120ea565b92915050565b6000819050919050565b61212981612116565b811461213457600080fd5b50565b60008135905061214681612120565b92915050565b60008060408385031215612163576121626120ae565b5b600061217185828601612101565b925050602061218285828601612137565b9150509250929050565b61219581612116565b82525050565b60006020820190506121b0600083018461218c565b92915050565b60007fffffffff0000000000000000000000000000000000000000000000000000000082169050919050565b6121eb816121b6565b81146121f657600080fd5b50565b600081359050612208816121e2565b92915050565b600060208284031215612224576122236120ae565b5b6000612232848285016121f9565b91505092915050565b60008115159050919050565b6122508161223b565b82525050565b600060208201905061226b6000830184612247565b92915050565b600060208284031215612287576122866120ae565b5b600061229584828501612137565b91505092915050565b600081519050919050565b600082825260208201905092915050565b60005b838110156122d85780820151818401526020810190506122bd565b60008484015250505050565b6000601f19601f8301169050919050565b60006123008261229e565b61230a81856122a9565b935061231a8185602086016122ba565b612323816122e4565b840191505092915050565b6000602082019050818103600083015261234881846122f5565b905092915050565b600080fd5b7f4e487b7100000000000000000000000000000000000000000000000000000000600052604160045260246000fd5b61238d826122e4565b810181811067ffffffffffffffff821117156123ac576123ab612355565b5b80604052505050565b60006123bf6120a4565b90506123cb8282612384565b919050565b600067ffffffffffffffff8211156123eb576123ea612355565b5b602082029050602081019050919050565b600080fd5b600061241461240f846123d0565b6123b5565b90508083825260208201905060208402830185811115612437576124366123fc565b5b835b81811015612460578061244c8882612137565b845260208401935050602081019050612439565b5050509392505050565b600082601f83011261247f5761247e612350565b5b813561248f848260208601612401565b91505092915050565b600080fd5b600067ffffffffffffffff8211156124b8576124b7612355565b5b6124c1826122e4565b9050602081019050919050565b82818337600083830152505050565b60006124f06124eb8461249d565b6123b5565b90508281526020810184848401111561250c5761250b612498565b5b6125178482856124ce565b509392505050565b600082601f83011261253457612533612350565b5b81356125448482602086016124dd565b91505092915050565b600080600080600060a08688031215612569576125686120ae565b5b600061257788828901612101565b955050602061258888828901612101565b945050604086013567ffffffffffffffff8111156125a9576125a86120b3565b5b6125b58882890161246a565b935050606086013567ffffffffffffffff8111156125d6576125d56120b3565b5b6125e28882890161246a565b925050608086013567ffffffffffffffff811115612603576126026120b3565b5b61260f8882890161251f565b9150509295509295909350565b600080fd5b600080fd5b6000610120828403121561263d5761263c61261c565b5b6126486101206123b5565b9050600061265884828501612137565b600083015250602061266c84828501612137565b602083015250604061268084828501612137565b604083015250606061269484828501612137565b60608301525060806126a884828501612137565b60808301525060a06126bc84828501612137565b60a08301525060c06126d084828501612137565b60c08301525060e06126e484828501612137565b60e0830152506101006126f984828501612137565b6101008301525092915050565b600067ffffffffffffffff82111561272157612720612355565b5b61272a826122e4565b9050602081019050919050565b600061274a61274584612706565b6123b5565b90508281526020810184848401111561276657612765612498565b5b6127718482856124ce565b509392505050565b600082601f83011261278e5761278d612350565b5b813561279e848260208601612737565b91505092915050565b6000606082840312156127bd576127bc61261c565b5b6127c760606123b5565b9050600082013567ffffffffffffffff8111156127e7576127e6612621565b5b6127f384828501612779565b600083015250602061280784828501612101565b602083015250604061281b84828501612101565b60408301525092915050565b6000806000806101808587031215612842576128416120ae565b5b600061285087828801612101565b945050602061286187828801612137565b935050604061287287828801612626565b92505061016085013567ffffffffffffffff811115612894576128936120b3565b5b6128a0878288016127a7565b91505092959194509250565b6128b581612116565b82525050565b610120820160008201516128d260008501826128ac565b5060208201516128e560208501826128ac565b5060408201516128f860408501826128ac565b50606082015161290b60608501826128ac565b50608082015161291e60808501826128ac565b5060a082015161293160a08501826128ac565b5060c082015161294460c08501826128ac565b5060e082015161295760e08501826128ac565b5061010082015161296c6101008501826128ac565b50505050565b60006101208201905061298860008301846128bb565b92915050565b600067ffffffffffffffff8211156129a9576129a8612355565b5b602082029050602081019050919050565b60006129cd6129c88461298e565b6123b5565b905080838252602082019050602084028301858111156129f0576129ef6123fc565b5b835b81811015612a195780612a058882612101565b8452602084019350506020810190506129f2565b5050509392505050565b600082601f830112612a3857612a37612350565b5b8135612a488482602086016129ba565b91505092915050565b60008060408385031215612a6857612a676120ae565b5b600083013567ffffffffffffffff811115612a8657612a856120b3565b5b612a9285828601612a23565b925050602083013567ffffffffffffffff811115612ab357612ab26120b3565b5b612abf8582860161246a565b9150509250929050565b600081519050919050565b600082825260208201905092915050565b6000819050602082019050919050565b6000612b0183836128ac565b60208301905092915050565b6000602082019050919050565b6000612b2582612ac9565b612b2f8185612ad4565b9350612b3a83612ae5565b8060005b83811015612b6b578151612b528882612af5565b9750612b5d83612b0d565b925050600181019050612b3e565b5085935050505092915050565b60006020820190508181036000830152612b928184612b1a565b905092915050565b612ba3816120d8565b82525050565b60006060820190508181036000830152612bc381866122f5565b9050612bd26020830185612b9a565b612bdf6040830184612b9a565b949350505050565b600061012082019050612bfd600083018c61218c565b612c0a602083018b61218c565b612c17604083018a61218c565b612c24606083018961218c565b612c31608083018861218c565b612c3e60a083018761218c565b612c4b60c083018661218c565b612c5860e083018561218c565b612c6661010083018461218c565b9a9950505050505050505050565b612c7d8161223b565b8114612c8857600080fd5b50565b600081359050612c9a81612c74565b92915050565b60008060408385031215612cb757612cb66120ae565b5b6000612cc585828601612101565b9250506020612cd685828601612c8b565b9150509250929050565b600082825260208201905092915050565b6000612cfc8261229e565b612d068185612ce0565b9350612d168185602086016122ba565b612d1f816122e4565b840191505092915050565b612d33816120d8565b82525050565b60006060830160008301518482036000860152612d568282612cf1565b9150506020830151612d6b6020860182612d2a565b506040830151612d7e6040860182612d2a565b508091505092915050565b60006020820190508181036000830152612da38184612d39565b905092915050565b60008060408385031215612dc257612dc16120ae565b5b6000612dd085828601612101565b9250506020612de185828601612101565b9150509250929050565b600080600080600060a08688031215612e0757612e066120ae565b5b6000612e1588828901612101565b9550506020612e2688828901612101565b9450506040612e3788828901612137565b9350506060612e4888828901612137565b925050608086013567ffffffffffffffff811115612e6957612e686120b3565b5b612e758882890161251f565b9150509295509295909350565b600080600060608486031215612e9b57612e9a6120ae565b5b6000612ea986828701612101565b9350506020612eba86828701612137565b9250506040612ecb86828701612137565b9150509250925092565b7f455243313135353a2061646472657373207a65726f206973206e6f742061207660008201527f616c6964206f776e657200000000000000000000000000000000000000000000602082015250565b6000612f31602a836122a9565b9150612f3c82612ed5565b604082019050919050565b60006020820190508181036000830152612f6081612f24565b9050919050565b7f4e487b7100000000000000000000000000000000000000000000000000000000600052602260045260246000fd5b60006002820490506001821680612fae57607f821691505b602082108103612fc157612fc0612f67565b5b50919050565b7f455243313135353a2063616c6c6572206973206e6f7420746f6b656e206f776e60008201527f6572206f7220617070726f766564000000000000000000000000000000000000602082015250565b6000613023602e836122a9565b915061302e82612fc7565b604082019050919050565b6000602082019050818103600083015261305281613016565b9050919050565b600060208201905061306e6000830184612b9a565b92915050565b60008151905061308381612c74565b92915050565b60006020828403121561309f5761309e6120ae565b5b60006130ad84828501613074565b91505092915050565b7f43616c6c6572206973206e6f74206120466163746f727920436f6e7472616374600082015250565b60006130ec6020836122a9565b91506130f7826130b6565b602082019050919050565b6000602082019050818103600083015261311b816130df565b9050919050565b60008190508160005260206000209050919050565b60006020601f8301049050919050565b600082821b905092915050565b6000600883026131847fffffffffffffffffffffffffffffffffffffffffffffffffffffffffffffffff82613147565b61318e8683613147565b95508019841693508086168417925050509392505050565b6000819050919050565b60006131cb6131c66131c184612116565b6131a6565b612116565b9050919050565b6000819050919050565b6131e5836131b0565b6131f96131f1826131d2565b848454613154565b825550505050565b600090565b61320e613201565b6132198184846131dc565b505050565b5b8181101561323d57613232600082613206565b60018101905061321f565b5050565b601f8211156132825761325381613122565b61325c84613137565b8101602085101561326b578190505b61327f61327785613137565b83018261321e565b50505b505050565b600082821c905092915050565b60006132a560001984600802613287565b1980831691505092915050565b60006132be8383613294565b9150826002028217905092915050565b6132d78261229e565b67ffffffffffffffff8111156132f0576132ef612355565b5b6132fa8254612f96565b613305828285613241565b600060209050601f8311600181146133385760008415613326578287015190505b61333085826132b2565b865550613398565b601f19841661334686613122565b60005b8281101561336e57848901518255600182019150602085019450602081019050613349565b8683101561338b5784890151613387601f891682613294565b8355505b6001600288020188555050505b505050505050565b7f455243313135353a206163636f756e747320616e6420696473206c656e67746860008201527f206d69736d617463680000000000000000000000000000000000000000000000602082015250565b60006133fc6029836122a9565b9150613407826133a0565b604082019050919050565b6000602082019050818103600083015261342b816133ef565b9050919050565b7f4e487b7100000000000000000000000000000000000000000000000000000000600052603260045260246000fd5b7f4e487b7100000000000000000000000000000000000000000000000000000000600052601160045260246000fd5b600061349b82612116565b91507fffffffffffffffffffffffffffffffffffffffffffffffffffffffffffffffff82036134cd576134cc613461565b5b600182019050919050565b60006134e382612116565b91506134ee83612116565b925082820390508181111561350657613505613461565b5b92915050565b7f455243313135353a2069647320616e6420616d6f756e7473206c656e6774682060008201527f6d69736d61746368000000000000000000000000000000000000000000000000602082015250565b60006135686028836122a9565b91506135738261350c565b604082019050919050565b600060208201905081810360008301526135978161355b565b9050919050565b7f455243313135353a207472616e7366657220746f20746865207a65726f20616460008201527f6472657373000000000000000000000000000000000000000000000000000000602082015250565b60006135fa6025836122a9565b91506136058261359e565b604082019050919050565b60006020820190508181036000830152613629816135ed565b9050919050565b7f455243313135353a20696e73756666696369656e742062616c616e636520666f60008201527f72207472616e7366657200000000000000000000000000000000000000000000602082015250565b600061368c602a836122a9565b915061369782613630565b604082019050919050565b600060208201905081810360008301526136bb8161367f565b9050919050565b60006136cd82612116565b91506136d883612116565b92508282019050808211156136f0576136ef613461565b5b92915050565b600060408201905081810360008301526137108185612b1a565b905081810360208301526137248184612b1a565b90509392505050565b7f455243313135353a206d696e7420746f20746865207a65726f2061646472657360008201527f7300000000000000000000000000000000000000000000000000000000000000602082015250565b60006137896021836122a9565b91506137948261372d565b604082019050919050565b600060208201905081810360008301526137b88161377c565b9050919050565b60006040820190506137d4600083018561218c565b6137e1602083018461218c565b9392505050565b7f455243313135353a2073657474696e6720617070726f76616c2073746174757360008201527f20666f722073656c660000000000000000000000000000000000000000000000602082015250565b60006138446029836122a9565b915061384f826137e8565b604082019050919050565b6000602082019050818103600083015261387381613837565b9050919050565b7f455243313135353a206275726e2066726f6d20746865207a65726f206164647260008201527f6573730000000000000000000000000000000000000000000000000000000000602082015250565b60006138d66023836122a9565b91506138e18261387a565b604082019050919050565b60006020820190508181036000830152613905816138c9565b9050919050565b7f455243313135353a206275726e20616d6f756e7420657863656564732062616c60008201527f616e636500000000000000000000000000000000000000000000000000000000602082015250565b60006139686024836122a9565b91506139738261390c565b604082019050919050565b600060208201905081810360008301526139978161395b565b9050919050565b600081519050919050565b600082825260208201905092915050565b60006139c58261399e565b6139cf81856139a9565b93506139df8185602086016122ba565b6139e8816122e4565b840191505092915050565b600060a082019050613a086000830188612b9a565b613a156020830187612b9a565b8181036040830152613a278186612b1a565b90508181036060830152613a3b8185612b1a565b90508181036080830152613a4f81846139ba565b90509695505050505050565b600081519050613a6a816121e2565b92915050565b600060208284031215613a8657613a856120ae565b5b6000613a9484828501613a5b565b91505092915050565b60008160e01c9050919050565b600060033d1115613ac95760046000803e613ac6600051613a9d565b90505b90565b600060443d10613b5957613ade6120a4565b60043d036004823e80513d602482011167ffffffffffffffff82111715613b06575050613b59565b808201805167ffffffffffffffff811115613b245750505050613b59565b80602083010160043d038501811115613b41575050505050613b59565b613b5082602001850186612384565b82955050505050505b90565b7f455243313135353a207472616e7366657220746f206e6f6e2d4552433131353560008201527f526563656976657220696d706c656d656e746572000000000000000000000000602082015250565b6000613bb86034836122a9565b9150613bc382613b5c565b604082019050919050565b60006020820190508181036000830152613be781613bab565b9050919050565b7f455243313135353a204552433131353552656365697665722072656a6563746560008201527f6420746f6b656e73000000000000000000000000000000000000000000000000602082015250565b6000613c4a6028836122a9565b9150613c5582613bee565b604082019050919050565b60006020820190508181036000830152613c7981613c3d565b9050919050565b600060a082019050613c956000830188612b9a565b613ca26020830187612b9a565b613caf604083018661218c565b613cbc606083018561218c565b8181036080830152613cce81846139ba565b9050969550505050505056fea26469706673582212203d064ce3e978ce294983ee443834c2dab53713a33799ea844dea6464a38113a464736f6c63430008110033",
  "linkReferences": {},
  "deployedLinkReferences": {}
}