{
  "_format": "hh-sol-artifact-1",
  "contractName": "Bond",
  "sourceName": "contracts/Bond.sol",
  "abi": [
    {
      "inputs": [
        {
          "internalType": "address",
          "name": "bondDB",
          "type": "address"
        },
        {
          "internalType": "string",
          "name": "uri",
          "type": "string"
        }
      ],
      "stateMutability": "nonpayable",
      "type": "constructor"
    },
    {
      "anonymous": false,
      "inputs": [
        {
          "indexed": true,
          "internalType": "address",
          "name": "account",
          "type": "address"
        },
        {
          "indexed": true,
          "internalType": "address",
          "name": "operator",
          "type": "address"
        },
        {
          "indexed": false,
          "internalType": "bool",
          "name": "approved",
          "type": "bool"
        }
      ],
      "name": "ApprovalForAll",
      "type": "event"
    },
    {
      "anonymous": false,
      "inputs": [
        {
          "indexed": true,
          "internalType": "address",
          "name": "operator",
          "type": "address"
        },
        {
          "indexed": true,
          "internalType": "address",
          "name": "from",
          "type": "address"
        },
        {
          "indexed": true,
          "internalType": "address",
          "name": "to",
          "type": "address"
        },
        {
          "indexed": false,
          "internalType": "uint256[]",
          "name": "ids",
          "type": "uint256[]"
        },
        {
          "indexed": false,
          "internalType": "uint256[]",
          "name": "values",
          "type": "uint256[]"
        }
      ],
      "name": "TransferBatch",
      "type": "event"
    },
    {
      "anonymous": false,
      "inputs": [
        {
          "indexed": true,
          "internalType": "address",
          "name": "operator",
          "type": "address"
        },
        {
          "indexed": true,
          "internalType": "address",
          "name": "from",
          "type": "address"
        },
        {
          "indexed": true,
          "internalType": "address",
          "name": "to",
          "type": "address"
        },
        {
          "indexed": false,
          "internalType": "uint256",
          "name": "id",
          "type": "uint256"
        },
        {
          "indexed": false,
          "internalType": "uint256",
          "name": "value",
          "type": "uint256"
        }
      ],
      "name": "TransferSingle",
      "type": "event"
    },
    {
      "anonymous": false,
      "inputs": [
        {
          "indexed": false,
          "internalType": "string",
          "name": "value",
          "type": "string"
        },
        {
          "indexed": true,
          "internalType": "uint256",
          "name": "id",
          "type": "uint256"
        }
      ],
      "name": "URI",
      "type": "event"
    },
    {
      "inputs": [
        {
          "internalType": "address",
          "name": "account",
          "type": "address"
        },
        {
          "internalType": "uint256",
          "name": "id",
          "type": "uint256"
        }
      ],
      "name": "balanceOf",
      "outputs": [
        {
          "internalType": "uint256",
          "name": "",
          "type": "uint256"
        }
      ],
      "stateMutability": "view",
      "type": "function"
    },
    {
      "inputs": [
        {
          "internalType": "address[]",
          "name": "accounts",
          "type": "address[]"
        },
        {
          "internalType": "uint256[]",
          "name": "ids",
          "type": "uint256[]"
        }
      ],
      "name": "balanceOfBatch",
      "outputs": [
        {
          "internalType": "uint256[]",
          "name": "",
          "type": "uint256[]"
        }
      ],
      "stateMutability": "view",
      "type": "function"
    },
    {
      "inputs": [
        {
          "internalType": "uint256",
          "name": "id",
          "type": "uint256"
        }
      ],
      "name": "bondMetadata",
      "outputs": [
        {
          "internalType": "string",
          "name": "",
          "type": "string"
        },
        {
          "internalType": "address",
          "name": "",
          "type": "address"
        },
        {
          "internalType": "address",
          "name": "",
          "type": "address"
        },
        {
          "internalType": "uint256",
          "name": "",
          "type": "uint256"
        },
        {
          "internalType": "uint256",
          "name": "",
          "type": "uint256"
        },
        {
          "internalType": "uint256",
          "name": "",
          "type": "uint256"
        },
        {
          "internalType": "uint256",
          "name": "",
          "type": "uint256"
        },
        {
          "internalType": "uint256",
          "name": "",
          "type": "uint256"
        },
        {
          "internalType": "uint256",
          "name": "",
          "type": "uint256"
        },
        {
          "internalType": "uint256",
          "name": "",
          "type": "uint256"
        },
        {
          "internalType": "uint256",
          "name": "",
          "type": "uint256"
        },
        {
          "internalType": "uint256",
          "name": "",
          "type": "uint256"
        }
      ],
      "stateMutability": "view",
      "type": "function"
    },
    {
      "inputs": [
        {
          "internalType": "uint256",
          "name": "id",
          "type": "uint256"
        }
      ],
      "name": "bondMetadataAsStruct",
      "outputs": [
        {
          "components": [
            {
              "internalType": "string",
              "name": "ticker",
              "type": "string"
            },
            {
              "internalType": "address",
              "name": "currency",
              "type": "address"
            },
            {
              "internalType": "address",
              "name": "issuer",
              "type": "address"
            },
            {
              "internalType": "uint256",
              "name": "tokenAmountPerBond",
              "type": "uint256"
            },
            {
              "internalType": "uint256",
              "name": "initBlock",
              "type": "uint256"
            },
            {
              "internalType": "uint256",
              "name": "maturityBlock",
              "type": "uint256"
            },
            {
              "internalType": "uint256",
              "name": "endOfActiveBlock",
              "type": "uint256"
            },
            {
              "internalType": "uint256",
              "name": "activeDurationInDays",
              "type": "uint256"
            },
            {
              "internalType": "uint256",
              "name": "durationInDays",
              "type": "uint256"
            },
            {
              "internalType": "uint256",
              "name": "issuedQuantity",
              "type": "uint256"
            },
            {
              "internalType": "uint256",
              "name": "minPurchasedQuantity",
              "type": "uint256"
            },
            {
              "internalType": "uint256",
              "name": "couponRate",
              "type": "uint256"
            }
          ],
          "internalType": "struct IBond.BondMetadata",
          "name": "",
          "type": "tuple"
        }
      ],
      "stateMutability": "view",
      "type": "function"
    },
    {
      "inputs": [
        {
          "internalType": "address",
          "name": "account",
          "type": "address"
        },
        {
          "internalType": "uint256",
          "name": "id",
          "type": "uint256"
        },
        {
          "internalType": "uint256",
          "name": "quantity",
          "type": "uint256"
        }
      ],
      "name": "burn",
      "outputs": [],
      "stateMutability": "nonpayable",
      "type": "function"
    },
    {
      "inputs": [
        {
          "internalType": "address",
          "name": "account",
          "type": "address"
        },
        {
          "internalType": "address",
          "name": "operator",
          "type": "address"
        }
      ],
      "name": "isApprovedForAll",
      "outputs": [
        {
          "internalType": "bool",
          "name": "",
          "type": "bool"
        }
      ],
      "stateMutability": "view",
      "type": "function"
    },
    {
      "inputs": [
        {
          "internalType": "address",
          "name": "to",
          "type": "address"
        },
        {
          "internalType": "uint256",
          "name": "bondQuantity",
          "type": "uint256"
        },
        {
          "components": [
            {
              "internalType": "string",
              "name": "ticker",
              "type": "string"
            },
            {
              "internalType": "address",
              "name": "currency",
              "type": "address"
            },
            {
              "internalType": "address",
              "name": "issuer",
              "type": "address"
            },
            {
              "internalType": "uint256",
              "name": "tokenAmountPerBond",
              "type": "uint256"
            },
            {
              "internalType": "uint256",
              "name": "initBlock",
              "type": "uint256"
            },
            {
              "internalType": "uint256",
              "name": "maturityBlock",
              "type": "uint256"
            },
            {
              "internalType": "uint256",
              "name": "endOfActiveBlock",
              "type": "uint256"
            },
            {
              "internalType": "uint256",
              "name": "activeDurationInDays",
              "type": "uint256"
            },
            {
              "internalType": "uint256",
              "name": "durationInDays",
              "type": "uint256"
            },
            {
              "internalType": "uint256",
              "name": "issuedQuantity",
              "type": "uint256"
            },
            {
              "internalType": "uint256",
              "name": "minPurchasedQuantity",
              "type": "uint256"
            },
            {
              "internalType": "uint256",
              "name": "couponRate",
              "type": "uint256"
            }
          ],
          "internalType": "struct IBond.BondMetadata",
          "name": "metadata",
          "type": "tuple"
        }
      ],
      "name": "mint",
      "outputs": [
        {
          "internalType": "uint256",
          "name": "id",
          "type": "uint256"
        }
      ],
      "stateMutability": "nonpayable",
      "type": "function"
    },
    {
      "inputs": [],
      "name": "numBondsIssued",
      "outputs": [
        {
          "internalType": "uint256",
          "name": "",
          "type": "uint256"
        }
      ],
      "stateMutability": "view",
      "type": "function"
    },
    {
      "inputs": [
        {
          "internalType": "address",
          "name": "from",
          "type": "address"
        },
        {
          "internalType": "address",
          "name": "to",
          "type": "address"
        },
        {
          "internalType": "uint256[]",
          "name": "ids",
          "type": "uint256[]"
        },
        {
          "internalType": "uint256[]",
          "name": "amounts",
          "type": "uint256[]"
        },
        {
          "internalType": "bytes",
          "name": "data",
          "type": "bytes"
        }
      ],
      "name": "safeBatchTransferFrom",
      "outputs": [],
      "stateMutability": "nonpayable",
      "type": "function"
    },
    {
      "inputs": [
        {
          "internalType": "address",
          "name": "from",
          "type": "address"
        },
        {
          "internalType": "address",
          "name": "to",
          "type": "address"
        },
        {
          "internalType": "uint256",
          "name": "id",
          "type": "uint256"
        },
        {
          "internalType": "uint256",
          "name": "amount",
          "type": "uint256"
        },
        {
          "internalType": "bytes",
          "name": "data",
          "type": "bytes"
        }
      ],
      "name": "safeTransferFrom",
      "outputs": [],
      "stateMutability": "nonpayable",
      "type": "function"
    },
    {
      "inputs": [
        {
          "internalType": "address",
          "name": "operator",
          "type": "address"
        },
        {
          "internalType": "bool",
          "name": "approved",
          "type": "bool"
        }
      ],
      "name": "setApprovalForAll",
      "outputs": [],
      "stateMutability": "nonpayable",
      "type": "function"
    },
    {
      "inputs": [
        {
          "internalType": "bytes4",
          "name": "interfaceId",
          "type": "bytes4"
        }
      ],
      "name": "supportsInterface",
      "outputs": [
        {
          "internalType": "bool",
          "name": "",
          "type": "bool"
        }
      ],
      "stateMutability": "view",
      "type": "function"
    },
    {
      "inputs": [
        {
          "internalType": "uint256",
          "name": "",
          "type": "uint256"
        }
      ],
      "name": "uri",
      "outputs": [
        {
          "internalType": "string",
          "name": "",
          "type": "string"
        }
      ],
      "stateMutability": "view",
      "type": "function"
    }
  ],
  "bytecode": "0x60c06040523480156200001157600080fd5b5060405162004266380380620042668339818101604052810190620000379190620002f4565b806200004981620000d160201b60201c565b503373ffffffffffffffffffffffffffffffffffffffff1660808173ffffffffffffffffffffffffffffffffffffffff16815250508173ffffffffffffffffffffffffffffffffffffffff1660a08173ffffffffffffffffffffffffffffffffffffffff1681525050620000c96004620000e660201b62000f101760201c565b50506200068c565b8060029081620000e29190620005a5565b5050565b6001816000016000828254019250508190555050565b6000604051905090565b600080fd5b600080fd5b600073ffffffffffffffffffffffffffffffffffffffff82169050919050565b60006200013d8262000110565b9050919050565b6200014f8162000130565b81146200015b57600080fd5b50565b6000815190506200016f8162000144565b92915050565b600080fd5b600080fd5b6000601f19601f8301169050919050565b7f4e487b7100000000000000000000000000000000000000000000000000000000600052604160045260246000fd5b620001ca826200017f565b810181811067ffffffffffffffff82111715620001ec57620001eb62000190565b5b80604052505050565b600062000201620000fc565b90506200020f8282620001bf565b919050565b600067ffffffffffffffff82111562000232576200023162000190565b5b6200023d826200017f565b9050602081019050919050565b60005b838110156200026a5780820151818401526020810190506200024d565b60008484015250505050565b60006200028d620002878462000214565b620001f5565b905082815260208101848484011115620002ac57620002ab6200017a565b5b620002b98482856200024a565b509392505050565b600082601f830112620002d957620002d862000175565b5b8151620002eb84826020860162000276565b91505092915050565b600080604083850312156200030e576200030d62000106565b5b60006200031e858286016200015e565b925050602083015167ffffffffffffffff8111156200034257620003416200010b565b5b6200035085828601620002c1565b9150509250929050565b600081519050919050565b7f4e487b7100000000000000000000000000000000000000000000000000000000600052602260045260246000fd5b60006002820490506001821680620003ad57607f821691505b602082108103620003c357620003c262000365565b5b50919050565b60008190508160005260206000209050919050565b60006020601f8301049050919050565b600082821b905092915050565b6000600883026200042d7fffffffffffffffffffffffffffffffffffffffffffffffffffffffffffffffff82620003ee565b620004398683620003ee565b95508019841693508086168417925050509392505050565b6000819050919050565b6000819050919050565b600062000486620004806200047a8462000451565b6200045b565b62000451565b9050919050565b6000819050919050565b620004a28362000465565b620004ba620004b1826200048d565b848454620003fb565b825550505050565b600090565b620004d1620004c2565b620004de81848462000497565b505050565b5b818110156200050657620004fa600082620004c7565b600181019050620004e4565b5050565b601f82111562000555576200051f81620003c9565b6200052a84620003de565b810160208510156200053a578190505b620005526200054985620003de565b830182620004e3565b50505b505050565b600082821c905092915050565b60006200057a600019846008026200055a565b1980831691505092915050565b600062000595838362000567565b9150826002028217905092915050565b620005b0826200035a565b67ffffffffffffffff811115620005cc57620005cb62000190565b5b620005d8825462000394565b620005e58282856200050a565b600060209050601f8311600181146200061d576000841562000608578287015190505b62000614858262000587565b86555062000684565b601f1984166200062d86620003c9565b60005b82811015620006575784890151825560018201915060208501945060208101905062000630565b8683101562000677578489015162000673601f89168262000567565b8355505b6001600288020188555050505b505050505050565b60805160a051613bb7620006af600039600061052e015260005050613bb76000f3fe608060405234801561001057600080fd5b50600436106100ce5760003560e01c80638c3526c21161008c578063c3ada2ed11610066578063c3ada2ed14610254578063e985e9c514610284578063f242432a146102b4578063f5298aca146102d0576100ce565b80638c3526c2146101df5780639a3cee8e1461021a578063a22cb46514610238576100ce565b8062fdd58e146100d357806301ffc9a7146101035780630e89341c1461013357806310e28d47146101635780632eb2c2d6146101935780634e1273f4146101af575b600080fd5b6100ed60048036038101906100e89190612054565b6102ec565b6040516100fa91906120a3565b60405180910390f35b61011d60048036038101906101189190612116565b6103b4565b60405161012a919061215e565b60405180910390f35b61014d60048036038101906101489190612179565b610496565b60405161015a9190612236565b60405180910390f35b61017d600480360381019061017891906124d5565b61052a565b60405161018a91906120a3565b60405180910390f35b6101ad60048036038101906101a891906126ad565b610756565b005b6101c960048036038101906101c4919061283f565b6107f7565b6040516101d69190612975565b60405180910390f35b6101f960048036038101906101f49190612179565b610910565b6040516102119c9b9a999897969594939291906129a6565b60405180910390f35b610222610b45565b60405161022f91906120a3565b60405180910390f35b610252600480360381019061024d9190612a93565b610b62565b005b61026e60048036038101906102699190612179565b610b78565b60405161027b9190612c30565b60405180910390f35b61029e60048036038101906102999190612c52565b610d3e565b6040516102ab919061215e565b60405180910390f35b6102ce60048036038101906102c99190612c92565b610dd2565b005b6102ea60048036038101906102e59190612d29565b610e73565b005b60008073ffffffffffffffffffffffffffffffffffffffff168373ffffffffffffffffffffffffffffffffffffffff160361035c576040517f08c379a000000000000000000000000000000000000000000000000000000000815260040161035390612dee565b60405180910390fd5b60008083815260200190815260200160002060008473ffffffffffffffffffffffffffffffffffffffff1673ffffffffffffffffffffffffffffffffffffffff16815260200190815260200160002054905092915050565b60007fd9b67a26000000000000000000000000000000000000000000000000000000007bffffffffffffffffffffffffffffffffffffffffffffffffffffffff1916827bffffffffffffffffffffffffffffffffffffffffffffffffffffffff1916148061047f57507f0e89341c000000000000000000000000000000000000000000000000000000007bffffffffffffffffffffffffffffffffffffffffffffffffffffffff1916827bffffffffffffffffffffffffffffffffffffffffffffffffffffffff1916145b8061048f575061048e82610f26565b5b9050919050565b6060600280546104a590612e3d565b80601f01602080910402602001604051908101604052809291908181526020018280546104d190612e3d565b801561051e5780601f106104f35761010080835404028352916020019161051e565b820191906000526020600020905b81548152906001019060200180831161050157829003601f168201915b50505050509050919050565b60007f000000000000000000000000000000000000000000000000000000000000000073ffffffffffffffffffffffffffffffffffffffff16630f04ba67336040518263ffffffff1660e01b81526004016105859190612e6e565b602060405180830381865afa1580156105a2573d6000803e3d6000fd5b505050506040513d601f19601f820116820180604052508101906105c69190612e9e565b610605576040517f08c379a00000000000000000000000000000000000000000000000000000000081526004016105fc90612f17565b60405180910390fd5b61060f6004610f90565b905061061b6004610f10565b8160036000838152602001908152602001600020600082015181600001908161064491906130e3565b5060208201518160010160006101000a81548173ffffffffffffffffffffffffffffffffffffffff021916908373ffffffffffffffffffffffffffffffffffffffff16021790555060408201518160020160006101000a81548173ffffffffffffffffffffffffffffffffffffffff021916908373ffffffffffffffffffffffffffffffffffffffff160217905550606082015181600301556080820151816004015560a0820151816005015560c0820151816006015560e082015181600701556101008201518160080155610120820151816009015561014082015181600a015561016082015181600b015590505061074f84828560405180602001604052806000815250610f9e565b9392505050565b61075e61114e565b73ffffffffffffffffffffffffffffffffffffffff168573ffffffffffffffffffffffffffffffffffffffff1614806107a457506107a38561079e61114e565b610d3e565b5b6107e3576040517f08c379a00000000000000000000000000000000000000000000000000000000081526004016107da90613227565b60405180910390fd5b6107f08585858585611156565b5050505050565b6060815183511461083d576040517f08c379a0000000000000000000000000000000000000000000000000000000008152600401610834906132b9565b60405180910390fd5b6000835167ffffffffffffffff81111561085a5761085961225d565b5b6040519080825280602002602001820160405280156108885781602001602082028036833780820191505090505b50905060005b8451811015610905576108d58582815181106108ad576108ac6132d9565b5b60200260200101518583815181106108c8576108c76132d9565b5b60200260200101516102ec565b8282815181106108e8576108e76132d9565b5b602002602001018181525050806108fe90613337565b905061088e565b508091505092915050565b6060600080600080600080600080600080600080600360008f81526020019081526020016000206040518061018001604052908160008201805461095390612e3d565b80601f016020809104026020016040519081016040528092919081815260200182805461097f90612e3d565b80156109cc5780601f106109a1576101008083540402835291602001916109cc565b820191906000526020600020905b8154815290600101906020018083116109af57829003601f168201915b505050505081526020016001820160009054906101000a900473ffffffffffffffffffffffffffffffffffffffff1673ffffffffffffffffffffffffffffffffffffffff1673ffffffffffffffffffffffffffffffffffffffff1681526020016002820160009054906101000a900473ffffffffffffffffffffffffffffffffffffffff1673ffffffffffffffffffffffffffffffffffffffff1673ffffffffffffffffffffffffffffffffffffffff16815260200160038201548152602001600482015481526020016005820154815260200160068201548152602001600782015481526020016008820154815260200160098201548152602001600a8201548152602001600b820154815250509050806000015181602001518260400151836060015184608001518560a001518660c001518760e001518861010001518961012001518a61014001518b61016001519c509c509c509c509c509c509c509c509c509c509c509c505091939597999b5091939597999b565b60006001610b536004610f90565b610b5d919061337f565b905090565b610b74610b6d61114e565b8383611477565b5050565b610b80611f1f565b6003600083815260200190815260200160002060405180610180016040529081600082018054610baf90612e3d565b80601f0160208091040260200160405190810160405280929190818152602001828054610bdb90612e3d565b8015610c285780601f10610bfd57610100808354040283529160200191610c28565b820191906000526020600020905b815481529060010190602001808311610c0b57829003601f168201915b505050505081526020016001820160009054906101000a900473ffffffffffffffffffffffffffffffffffffffff1673ffffffffffffffffffffffffffffffffffffffff1673ffffffffffffffffffffffffffffffffffffffff1681526020016002820160009054906101000a900473ffffffffffffffffffffffffffffffffffffffff1673ffffffffffffffffffffffffffffffffffffffff1673ffffffffffffffffffffffffffffffffffffffff16815260200160038201548152602001600482015481526020016005820154815260200160068201548152602001600782015481526020016008820154815260200160098201548152602001600a8201548152602001600b820154815250509050919050565b6000600160008473ffffffffffffffffffffffffffffffffffffffff1673ffffffffffffffffffffffffffffffffffffffff16815260200190815260200160002060008373ffffffffffffffffffffffffffffffffffffffff1673ffffffffffffffffffffffffffffffffffffffff16815260200190815260200160002060009054906101000a900460ff16905092915050565b610dda61114e565b73ffffffffffffffffffffffffffffffffffffffff168573ffffffffffffffffffffffffffffffffffffffff161480610e205750610e1f85610e1a61114e565b610d3e565b5b610e5f576040517f08c379a0000000000000000000000000000000000000000000000000000000008152600401610e5690613227565b60405180910390fd5b610e6c85858585856115e3565b5050505050565b610e7b61114e565b73ffffffffffffffffffffffffffffffffffffffff168373ffffffffffffffffffffffffffffffffffffffff161480610ec15750610ec083610ebb61114e565b610d3e565b5b610f00576040517f08c379a0000000000000000000000000000000000000000000000000000000008152600401610ef790613227565b60405180910390fd5b610f0b83838361187e565b505050565b6001816000016000828254019250508190555050565b60007f01ffc9a7000000000000000000000000000000000000000000000000000000007bffffffffffffffffffffffffffffffffffffffffffffffffffffffff1916827bffffffffffffffffffffffffffffffffffffffffffffffffffffffff1916149050919050565b600081600001549050919050565b600073ffffffffffffffffffffffffffffffffffffffff168473ffffffffffffffffffffffffffffffffffffffff160361100d576040517f08c379a000000000000000000000000000000000000000000000000000000000815260040161100490613425565b60405180910390fd5b600061101761114e565b9050600061102485611ac4565b9050600061103185611ac4565b905061104283600089858589611b3e565b8460008088815260200190815260200160002060008973ffffffffffffffffffffffffffffffffffffffff1673ffffffffffffffffffffffffffffffffffffffff16815260200190815260200160002060008282546110a19190613445565b925050819055508673ffffffffffffffffffffffffffffffffffffffff16600073ffffffffffffffffffffffffffffffffffffffff168473ffffffffffffffffffffffffffffffffffffffff167fc3d58168c5ae7397731d063d5bbf3d657854427343f4c083240f7aacaa2d0f62898960405161111f929190613479565b60405180910390a461113683600089858589611b46565b61114583600089898989611b4e565b50505050505050565b600033905090565b815183511461119a576040517f08c379a000000000000000000000000000000000000000000000000000000000815260040161119190613514565b60405180910390fd5b600073ffffffffffffffffffffffffffffffffffffffff168473ffffffffffffffffffffffffffffffffffffffff1603611209576040517f08c379a0000000000000000000000000000000000000000000000000000000008152600401611200906135a6565b60405180910390fd5b600061121361114e565b9050611223818787878787611b3e565b60005b84518110156113d4576000858281518110611244576112436132d9565b5b602002602001015190506000858381518110611263576112626132d9565b5b60200260200101519050600080600084815260200190815260200160002060008b73ffffffffffffffffffffffffffffffffffffffff1673ffffffffffffffffffffffffffffffffffffffff16815260200190815260200160002054905081811015611304576040517f08c379a00000000000000000000000000000000000000000000000000000000081526004016112fb90613638565b60405180910390fd5b81810360008085815260200190815260200160002060008c73ffffffffffffffffffffffffffffffffffffffff1673ffffffffffffffffffffffffffffffffffffffff168152602001908152602001600020819055508160008085815260200190815260200160002060008b73ffffffffffffffffffffffffffffffffffffffff1673ffffffffffffffffffffffffffffffffffffffff16815260200190815260200160002060008282546113b99190613445565b92505081905550505050806113cd90613337565b9050611226565b508473ffffffffffffffffffffffffffffffffffffffff168673ffffffffffffffffffffffffffffffffffffffff168273ffffffffffffffffffffffffffffffffffffffff167f4a39dc06d4c0dbc64b70af90fd698a233a518aa5d07e595d983b8c0526c8f7fb878760405161144b929190613658565b60405180910390a4611461818787878787611b46565b61146f818787878787611d25565b505050505050565b8173ffffffffffffffffffffffffffffffffffffffff168373ffffffffffffffffffffffffffffffffffffffff16036114e5576040517f08c379a00000000000000000000000000000000000000000000000000000000081526004016114dc90613701565b60405180910390fd5b80600160008573ffffffffffffffffffffffffffffffffffffffff1673ffffffffffffffffffffffffffffffffffffffff16815260200190815260200160002060008473ffffffffffffffffffffffffffffffffffffffff1673ffffffffffffffffffffffffffffffffffffffff16815260200190815260200160002060006101000a81548160ff0219169083151502179055508173ffffffffffffffffffffffffffffffffffffffff168373ffffffffffffffffffffffffffffffffffffffff167f17307eab39ab6107e8899845ad3d59bd9653f200f220920489ca2b5937696c31836040516115d6919061215e565b60405180910390a3505050565b600073ffffffffffffffffffffffffffffffffffffffff168473ffffffffffffffffffffffffffffffffffffffff1603611652576040517f08c379a0000000000000000000000000000000000000000000000000000000008152600401611649906135a6565b60405180910390fd5b600061165c61114e565b9050600061166985611ac4565b9050600061167685611ac4565b9050611686838989858589611b3e565b600080600088815260200190815260200160002060008a73ffffffffffffffffffffffffffffffffffffffff1673ffffffffffffffffffffffffffffffffffffffff1681526020019081526020016000205490508581101561171d576040517f08c379a000000000000000000000000000000000000000000000000000000000815260040161171490613638565b60405180910390fd5b85810360008089815260200190815260200160002060008b73ffffffffffffffffffffffffffffffffffffffff1673ffffffffffffffffffffffffffffffffffffffff168152602001908152602001600020819055508560008089815260200190815260200160002060008a73ffffffffffffffffffffffffffffffffffffffff1673ffffffffffffffffffffffffffffffffffffffff16815260200190815260200160002060008282546117d29190613445565b925050819055508773ffffffffffffffffffffffffffffffffffffffff168973ffffffffffffffffffffffffffffffffffffffff168573ffffffffffffffffffffffffffffffffffffffff167fc3d58168c5ae7397731d063d5bbf3d657854427343f4c083240f7aacaa2d0f628a8a60405161184f929190613479565b60405180910390a4611865848a8a86868a611b46565b611873848a8a8a8a8a611b4e565b505050505050505050565b600073ffffffffffffffffffffffffffffffffffffffff168373ffffffffffffffffffffffffffffffffffffffff16036118ed576040517f08c379a00000000000000000000000000000000000000000000000000000000081526004016118e490613793565b60405180910390fd5b60006118f761114e565b9050600061190484611ac4565b9050600061191184611ac4565b905061193183876000858560405180602001604052806000815250611b3e565b600080600087815260200190815260200160002060008873ffffffffffffffffffffffffffffffffffffffff1673ffffffffffffffffffffffffffffffffffffffff168152602001908152602001600020549050848110156119c8576040517f08c379a00000000000000000000000000000000000000000000000000000000081526004016119bf90613825565b60405180910390fd5b84810360008088815260200190815260200160002060008973ffffffffffffffffffffffffffffffffffffffff1673ffffffffffffffffffffffffffffffffffffffff16815260200190815260200160002081905550600073ffffffffffffffffffffffffffffffffffffffff168773ffffffffffffffffffffffffffffffffffffffff168573ffffffffffffffffffffffffffffffffffffffff167fc3d58168c5ae7397731d063d5bbf3d657854427343f4c083240f7aacaa2d0f628989604051611a95929190613479565b60405180910390a4611abb84886000868660405180602001604052806000815250611b46565b50505050505050565b60606000600167ffffffffffffffff811115611ae357611ae261225d565b5b604051908082528060200260200182016040528015611b115781602001602082028036833780820191505090505b5090508281600081518110611b2957611b286132d9565b5b60200260200101818152505080915050919050565b505050505050565b505050505050565b611b6d8473ffffffffffffffffffffffffffffffffffffffff16611efc565b15611d1d578373ffffffffffffffffffffffffffffffffffffffff1663f23a6e6187878686866040518663ffffffff1660e01b8152600401611bb395949392919061389a565b6020604051808303816000875af1925050508015611bef57506040513d601f19601f82011682018060405250810190611bec9190613909565b60015b611c9457611bfb613943565b806308c379a003611c575750611c0f613965565b80611c1a5750611c59565b806040517f08c379a0000000000000000000000000000000000000000000000000000000008152600401611c4e9190612236565b60405180910390fd5b505b6040517f08c379a0000000000000000000000000000000000000000000000000000000008152600401611c8b90613a67565b60405180910390fd5b63f23a6e6160e01b7bffffffffffffffffffffffffffffffffffffffffffffffffffffffff1916817bffffffffffffffffffffffffffffffffffffffffffffffffffffffff191614611d1b576040517f08c379a0000000000000000000000000000000000000000000000000000000008152600401611d1290613af9565b60405180910390fd5b505b505050505050565b611d448473ffffffffffffffffffffffffffffffffffffffff16611efc565b15611ef4578373ffffffffffffffffffffffffffffffffffffffff1663bc197c8187878686866040518663ffffffff1660e01b8152600401611d8a959493929190613b19565b6020604051808303816000875af1925050508015611dc657506040513d601f19601f82011682018060405250810190611dc39190613909565b60015b611e6b57611dd2613943565b806308c379a003611e2e5750611de6613965565b80611df15750611e30565b806040517f08c379a0000000000000000000000000000000000000000000000000000000008152600401611e259190612236565b60405180910390fd5b505b6040517f08c379a0000000000000000000000000000000000000000000000000000000008152600401611e6290613a67565b60405180910390fd5b63bc197c8160e01b7bffffffffffffffffffffffffffffffffffffffffffffffffffffffff1916817bffffffffffffffffffffffffffffffffffffffffffffffffffffffff191614611ef2576040517f08c379a0000000000000000000000000000000000000000000000000000000008152600401611ee990613af9565b60405180910390fd5b505b505050505050565b6000808273ffffffffffffffffffffffffffffffffffffffff163b119050919050565b60405180610180016040528060608152602001600073ffffffffffffffffffffffffffffffffffffffff168152602001600073ffffffffffffffffffffffffffffffffffffffff1681526020016000815260200160008152602001600081526020016000815260200160008152602001600081526020016000815260200160008152602001600081525090565b6000604051905090565b600080fd5b600080fd5b600073ffffffffffffffffffffffffffffffffffffffff82169050919050565b6000611feb82611fc0565b9050919050565b611ffb81611fe0565b811461200657600080fd5b50565b60008135905061201881611ff2565b92915050565b6000819050919050565b6120318161201e565b811461203c57600080fd5b50565b60008135905061204e81612028565b92915050565b6000806040838503121561206b5761206a611fb6565b5b600061207985828601612009565b925050602061208a8582860161203f565b9150509250929050565b61209d8161201e565b82525050565b60006020820190506120b86000830184612094565b92915050565b60007fffffffff0000000000000000000000000000000000000000000000000000000082169050919050565b6120f3816120be565b81146120fe57600080fd5b50565b600081359050612110816120ea565b92915050565b60006020828403121561212c5761212b611fb6565b5b600061213a84828501612101565b91505092915050565b60008115159050919050565b61215881612143565b82525050565b6000602082019050612173600083018461214f565b92915050565b60006020828403121561218f5761218e611fb6565b5b600061219d8482850161203f565b91505092915050565b600081519050919050565b600082825260208201905092915050565b60005b838110156121e05780820151818401526020810190506121c5565b60008484015250505050565b6000601f19601f8301169050919050565b6000612208826121a6565b61221281856121b1565b93506122228185602086016121c2565b61222b816121ec565b840191505092915050565b6000602082019050818103600083015261225081846121fd565b905092915050565b600080fd5b7f4e487b7100000000000000000000000000000000000000000000000000000000600052604160045260246000fd5b612295826121ec565b810181811067ffffffffffffffff821117156122b4576122b361225d565b5b80604052505050565b60006122c7611fac565b90506122d3828261228c565b919050565b600080fd5b600080fd5b600080fd5b600067ffffffffffffffff8211156123025761230161225d565b5b61230b826121ec565b9050602081019050919050565b82818337600083830152505050565b600061233a612335846122e7565b6122bd565b905082815260208101848484011115612356576123556122e2565b5b612361848285612318565b509392505050565b600082601f83011261237e5761237d6122dd565b5b813561238e848260208601612327565b91505092915050565b600061018082840312156123ae576123ad612258565b5b6123b96101806122bd565b9050600082013567ffffffffffffffff8111156123d9576123d86122d8565b5b6123e584828501612369565b60008301525060206123f984828501612009565b602083015250604061240d84828501612009565b60408301525060606124218482850161203f565b60608301525060806124358482850161203f565b60808301525060a06124498482850161203f565b60a08301525060c061245d8482850161203f565b60c08301525060e06124718482850161203f565b60e0830152506101006124868482850161203f565b6101008301525061012061249c8482850161203f565b610120830152506101406124b28482850161203f565b610140830152506101606124c88482850161203f565b6101608301525092915050565b6000806000606084860312156124ee576124ed611fb6565b5b60006124fc86828701612009565b935050602061250d8682870161203f565b925050604084013567ffffffffffffffff81111561252e5761252d611fbb565b5b61253a86828701612397565b9150509250925092565b600067ffffffffffffffff82111561255f5761255e61225d565b5b602082029050602081019050919050565b600080fd5b600061258861258384612544565b6122bd565b905080838252602082019050602084028301858111156125ab576125aa612570565b5b835b818110156125d457806125c0888261203f565b8452602084019350506020810190506125ad565b5050509392505050565b600082601f8301126125f3576125f26122dd565b5b8135612603848260208601612575565b91505092915050565b600067ffffffffffffffff8211156126275761262661225d565b5b612630826121ec565b9050602081019050919050565b600061265061264b8461260c565b6122bd565b90508281526020810184848401111561266c5761266b6122e2565b5b612677848285612318565b509392505050565b600082601f830112612694576126936122dd565b5b81356126a484826020860161263d565b91505092915050565b600080600080600060a086880312156126c9576126c8611fb6565b5b60006126d788828901612009565b95505060206126e888828901612009565b945050604086013567ffffffffffffffff81111561270957612708611fbb565b5b612715888289016125de565b935050606086013567ffffffffffffffff81111561273657612735611fbb565b5b612742888289016125de565b925050608086013567ffffffffffffffff81111561276357612762611fbb565b5b61276f8882890161267f565b9150509295509295909350565b600067ffffffffffffffff8211156127975761279661225d565b5b602082029050602081019050919050565b60006127bb6127b68461277c565b6122bd565b905080838252602082019050602084028301858111156127de576127dd612570565b5b835b8181101561280757806127f38882612009565b8452602084019350506020810190506127e0565b5050509392505050565b600082601f830112612826576128256122dd565b5b81356128368482602086016127a8565b91505092915050565b6000806040838503121561285657612855611fb6565b5b600083013567ffffffffffffffff81111561287457612873611fbb565b5b61288085828601612811565b925050602083013567ffffffffffffffff8111156128a1576128a0611fbb565b5b6128ad858286016125de565b9150509250929050565b600081519050919050565b600082825260208201905092915050565b6000819050602082019050919050565b6128ec8161201e565b82525050565b60006128fe83836128e3565b60208301905092915050565b6000602082019050919050565b6000612922826128b7565b61292c81856128c2565b9350612937836128d3565b8060005b8381101561296857815161294f88826128f2565b975061295a8361290a565b92505060018101905061293b565b5085935050505092915050565b6000602082019050818103600083015261298f8184612917565b905092915050565b6129a081611fe0565b82525050565b60006101808201905081810360008301526129c1818f6121fd565b90506129d0602083018e612997565b6129dd604083018d612997565b6129ea606083018c612094565b6129f7608083018b612094565b612a0460a083018a612094565b612a1160c0830189612094565b612a1e60e0830188612094565b612a2c610100830187612094565b612a3a610120830186612094565b612a48610140830185612094565b612a56610160830184612094565b9d9c50505050505050505050505050565b612a7081612143565b8114612a7b57600080fd5b50565b600081359050612a8d81612a67565b92915050565b60008060408385031215612aaa57612aa9611fb6565b5b6000612ab885828601612009565b9250506020612ac985828601612a7e565b9150509250929050565b600082825260208201905092915050565b6000612aef826121a6565b612af98185612ad3565b9350612b098185602086016121c2565b612b12816121ec565b840191505092915050565b612b2681611fe0565b82525050565b6000610180830160008301518482036000860152612b4a8282612ae4565b9150506020830151612b5f6020860182612b1d565b506040830151612b726040860182612b1d565b506060830151612b8560608601826128e3565b506080830151612b9860808601826128e3565b5060a0830151612bab60a08601826128e3565b5060c0830151612bbe60c08601826128e3565b5060e0830151612bd160e08601826128e3565b50610100830151612be66101008601826128e3565b50610120830151612bfb6101208601826128e3565b50610140830151612c106101408601826128e3565b50610160830151612c256101608601826128e3565b508091505092915050565b60006020820190508181036000830152612c4a8184612b2c565b905092915050565b60008060408385031215612c6957612c68611fb6565b5b6000612c7785828601612009565b9250506020612c8885828601612009565b9150509250929050565b600080600080600060a08688031215612cae57612cad611fb6565b5b6000612cbc88828901612009565b9550506020612ccd88828901612009565b9450506040612cde8882890161203f565b9350506060612cef8882890161203f565b925050608086013567ffffffffffffffff811115612d1057612d0f611fbb565b5b612d1c8882890161267f565b9150509295509295909350565b600080600060608486031215612d4257612d41611fb6565b5b6000612d5086828701612009565b9350506020612d618682870161203f565b9250506040612d728682870161203f565b9150509250925092565b7f455243313135353a2061646472657373207a65726f206973206e6f742061207660008201527f616c6964206f776e657200000000000000000000000000000000000000000000602082015250565b6000612dd8602a836121b1565b9150612de382612d7c565b604082019050919050565b60006020820190508181036000830152612e0781612dcb565b9050919050565b7f4e487b7100000000000000000000000000000000000000000000000000000000600052602260045260246000fd5b60006002820490506001821680612e5557607f821691505b602082108103612e6857612e67612e0e565b5b50919050565b6000602082019050612e836000830184612997565b92915050565b600081519050612e9881612a67565b92915050565b600060208284031215612eb457612eb3611fb6565b5b6000612ec284828501612e89565b91505092915050565b7f43616c6c6572206973206e6f74206120466163746f727920436f6e7472616374600082015250565b6000612f016020836121b1565b9150612f0c82612ecb565b602082019050919050565b60006020820190508181036000830152612f3081612ef4565b9050919050565b60008190508160005260206000209050919050565b60006020601f8301049050919050565b600082821b905092915050565b600060088302612f997fffffffffffffffffffffffffffffffffffffffffffffffffffffffffffffffff82612f5c565b612fa38683612f5c565b95508019841693508086168417925050509392505050565b6000819050919050565b6000612fe0612fdb612fd68461201e565b612fbb565b61201e565b9050919050565b6000819050919050565b612ffa83612fc5565b61300e61300682612fe7565b848454612f69565b825550505050565b600090565b613023613016565b61302e818484612ff1565b505050565b5b818110156130525761304760008261301b565b600181019050613034565b5050565b601f8211156130975761306881612f37565b61307184612f4c565b81016020851015613080578190505b61309461308c85612f4c565b830182613033565b50505b505050565b600082821c905092915050565b60006130ba6000198460080261309c565b1980831691505092915050565b60006130d383836130a9565b9150826002028217905092915050565b6130ec826121a6565b67ffffffffffffffff8111156131055761310461225d565b5b61310f8254612e3d565b61311a828285613056565b600060209050601f83116001811461314d576000841561313b578287015190505b61314585826130c7565b8655506131ad565b601f19841661315b86612f37565b60005b828110156131835784890151825560018201915060208501945060208101905061315e565b868310156131a0578489015161319c601f8916826130a9565b8355505b6001600288020188555050505b505050505050565b7f455243313135353a2063616c6c6572206973206e6f7420746f6b656e206f776e60008201527f6572206f7220617070726f766564000000000000000000000000000000000000602082015250565b6000613211602e836121b1565b915061321c826131b5565b604082019050919050565b6000602082019050818103600083015261324081613204565b9050919050565b7f455243313135353a206163636f756e747320616e6420696473206c656e67746860008201527f206d69736d617463680000000000000000000000000000000000000000000000602082015250565b60006132a36029836121b1565b91506132ae82613247565b604082019050919050565b600060208201905081810360008301526132d281613296565b9050919050565b7f4e487b7100000000000000000000000000000000000000000000000000000000600052603260045260246000fd5b7f4e487b7100000000000000000000000000000000000000000000000000000000600052601160045260246000fd5b60006133428261201e565b91507fffffffffffffffffffffffffffffffffffffffffffffffffffffffffffffffff820361337457613373613308565b5b600182019050919050565b600061338a8261201e565b91506133958361201e565b92508282039050818111156133ad576133ac613308565b5b92915050565b7f455243313135353a206d696e7420746f20746865207a65726f2061646472657360008201527f7300000000000000000000000000000000000000000000000000000000000000602082015250565b600061340f6021836121b1565b915061341a826133b3565b604082019050919050565b6000602082019050818103600083015261343e81613402565b9050919050565b60006134508261201e565b915061345b8361201e565b925082820190508082111561347357613472613308565b5b92915050565b600060408201905061348e6000830185612094565b61349b6020830184612094565b9392505050565b7f455243313135353a2069647320616e6420616d6f756e7473206c656e6774682060008201527f6d69736d61746368000000000000000000000000000000000000000000000000602082015250565b60006134fe6028836121b1565b9150613509826134a2565b604082019050919050565b6000602082019050818103600083015261352d816134f1565b9050919050565b7f455243313135353a207472616e7366657220746f20746865207a65726f20616460008201527f6472657373000000000000000000000000000000000000000000000000000000602082015250565b60006135906025836121b1565b915061359b82613534565b604082019050919050565b600060208201905081810360008301526135bf81613583565b9050919050565b7f455243313135353a20696e73756666696369656e742062616c616e636520666f60008201527f72207472616e7366657200000000000000000000000000000000000000000000602082015250565b6000613622602a836121b1565b915061362d826135c6565b604082019050919050565b6000602082019050818103600083015261365181613615565b9050919050565b600060408201905081810360008301526136728185612917565b905081810360208301526136868184612917565b90509392505050565b7f455243313135353a2073657474696e6720617070726f76616c2073746174757360008201527f20666f722073656c660000000000000000000000000000000000000000000000602082015250565b60006136eb6029836121b1565b91506136f68261368f565b604082019050919050565b6000602082019050818103600083015261371a816136de565b9050919050565b7f455243313135353a206275726e2066726f6d20746865207a65726f206164647260008201527f6573730000000000000000000000000000000000000000000000000000000000602082015250565b600061377d6023836121b1565b915061378882613721565b604082019050919050565b600060208201905081810360008301526137ac81613770565b9050919050565b7f455243313135353a206275726e20616d6f756e7420657863656564732062616c60008201527f616e636500000000000000000000000000000000000000000000000000000000602082015250565b600061380f6024836121b1565b915061381a826137b3565b604082019050919050565b6000602082019050818103600083015261383e81613802565b9050919050565b600081519050919050565b600082825260208201905092915050565b600061386c82613845565b6138768185613850565b93506138868185602086016121c2565b61388f816121ec565b840191505092915050565b600060a0820190506138af6000830188612997565b6138bc6020830187612997565b6138c96040830186612094565b6138d66060830185612094565b81810360808301526138e88184613861565b90509695505050505050565b600081519050613903816120ea565b92915050565b60006020828403121561391f5761391e611fb6565b5b600061392d848285016138f4565b91505092915050565b60008160e01c9050919050565b600060033d11156139625760046000803e61395f600051613936565b90505b90565b600060443d106139f257613977611fac565b60043d036004823e80513d602482011167ffffffffffffffff8211171561399f5750506139f2565b808201805167ffffffffffffffff8111156139bd57505050506139f2565b80602083010160043d0385018111156139da5750505050506139f2565b6139e98260200185018661228c565b82955050505050505b90565b7f455243313135353a207472616e7366657220746f206e6f6e2d4552433131353560008201527f526563656976657220696d706c656d656e746572000000000000000000000000602082015250565b6000613a516034836121b1565b9150613a5c826139f5565b604082019050919050565b60006020820190508181036000830152613a8081613a44565b9050919050565b7f455243313135353a204552433131353552656365697665722072656a6563746560008201527f6420746f6b656e73000000000000000000000000000000000000000000000000602082015250565b6000613ae36028836121b1565b9150613aee82613a87565b604082019050919050565b60006020820190508181036000830152613b1281613ad6565b9050919050565b600060a082019050613b2e6000830188612997565b613b3b6020830187612997565b8181036040830152613b4d8186612917565b90508181036060830152613b618185612917565b90508181036080830152613b758184613861565b9050969550505050505056fea26469706673582212203643bf54a046b1245276210c9a88202746c667c00d04cee17765f95581fd1d3d64736f6c63430008110033",
  "linkReferences": {},
  "deployedLinkReferences": {}
}