{
  "_format": "hh-sol-artifact-1",
  "contractName": "DualCurrencyBondFactory",
  "sourceName": "contracts/DualCurrencyBondFactory.sol",
  "abi": [
    {
      "inputs": [
        {
          "internalType": "string",
          "name": "uri",
          "type": "string"
        },
        {
          "internalType": "address",
          "name": "tokenA",
          "type": "address"
        },
        {
          "internalType": "address",
          "name": "tokenB",
          "type": "address"
        },
        {
          "internalType": "address",
          "name": "priceFeedA",
          "type": "address"
        },
        {
          "internalType": "address",
          "name": "priceFeedB",
          "type": "address"
        },
        {
          "internalType": "address",
          "name": "deployer",
          "type": "address"
        }
      ],
      "stateMutability": "nonpayable",
      "type": "constructor"
    },
    {
      "anonymous": false,
      "inputs": [
        {
          "indexed": true,
          "internalType": "address",
          "name": "account",
          "type": "address"
        },
        {
          "indexed": true,
          "internalType": "address",
          "name": "operator",
          "type": "address"
        },
        {
          "indexed": false,
          "internalType": "bool",
          "name": "approved",
          "type": "bool"
        }
      ],
      "name": "ApprovalForAll",
      "type": "event"
    },
    {
      "anonymous": false,
      "inputs": [
        {
          "indexed": true,
          "internalType": "uint256",
          "name": "id",
          "type": "uint256"
        },
        {
          "indexed": false,
          "internalType": "uint256",
          "name": "totalDebt",
          "type": "uint256"
        },
        {
          "indexed": false,
          "internalType": "uint256",
          "name": "paidDebt",
          "type": "uint256"
        }
      ],
      "name": "Completed",
      "type": "event"
    },
    {
      "anonymous": false,
      "inputs": [
        {
          "indexed": true,
          "internalType": "uint256",
          "name": "id",
          "type": "uint256"
        },
        {
          "indexed": false,
          "internalType": "uint256",
          "name": "totalDebt",
          "type": "uint256"
        },
        {
          "indexed": false,
          "internalType": "uint256",
          "name": "paidDebtA",
          "type": "uint256"
        },
        {
          "indexed": false,
          "internalType": "uint256",
          "name": "paidDebtB",
          "type": "uint256"
        }
      ],
      "name": "Defaulted",
      "type": "event"
    },
    {
      "anonymous": false,
      "inputs": [
        {
          "indexed": true,
          "internalType": "uint256",
          "name": "id",
          "type": "uint256"
        },
        {
          "indexed": false,
          "internalType": "uint256",
          "name": "bondQuantity",
          "type": "uint256"
        },
        {
          "indexed": false,
          "internalType": "uint256",
          "name": "tokenAAmountPerBond",
          "type": "uint256"
        },
        {
          "indexed": false,
          "internalType": "uint256",
          "name": "tokenBAmountPerBond",
          "type": "uint256"
        },
        {
          "indexed": false,
          "internalType": "uint256",
          "name": "couponRate",
          "type": "uint256"
        },
        {
          "indexed": false,
          "internalType": "uint256",
          "name": "maturityDate",
          "type": "uint256"
        }
      ],
      "name": "Issued",
      "type": "event"
    },
    {
      "anonymous": false,
      "inputs": [
        {
          "indexed": true,
          "internalType": "address",
          "name": "operator",
          "type": "address"
        },
        {
          "indexed": true,
          "internalType": "address",
          "name": "from",
          "type": "address"
        },
        {
          "indexed": true,
          "internalType": "address",
          "name": "to",
          "type": "address"
        },
        {
          "indexed": false,
          "internalType": "uint256[]",
          "name": "ids",
          "type": "uint256[]"
        },
        {
          "indexed": false,
          "internalType": "uint256[]",
          "name": "values",
          "type": "uint256[]"
        }
      ],
      "name": "TransferBatch",
      "type": "event"
    },
    {
      "anonymous": false,
      "inputs": [
        {
          "indexed": true,
          "internalType": "address",
          "name": "operator",
          "type": "address"
        },
        {
          "indexed": true,
          "internalType": "address",
          "name": "from",
          "type": "address"
        },
        {
          "indexed": true,
          "internalType": "address",
          "name": "to",
          "type": "address"
        },
        {
          "indexed": false,
          "internalType": "uint256",
          "name": "id",
          "type": "uint256"
        },
        {
          "indexed": false,
          "internalType": "uint256",
          "name": "value",
          "type": "uint256"
        }
      ],
      "name": "TransferSingle",
      "type": "event"
    },
    {
      "anonymous": false,
      "inputs": [
        {
          "indexed": false,
          "internalType": "string",
          "name": "value",
          "type": "string"
        },
        {
          "indexed": true,
          "internalType": "uint256",
          "name": "id",
          "type": "uint256"
        }
      ],
      "name": "URI",
      "type": "event"
    },
    {
      "inputs": [
        {
          "internalType": "address",
          "name": "account",
          "type": "address"
        },
        {
          "internalType": "uint256",
          "name": "id",
          "type": "uint256"
        }
      ],
      "name": "balanceOf",
      "outputs": [
        {
          "internalType": "uint256",
          "name": "",
          "type": "uint256"
        }
      ],
      "stateMutability": "view",
      "type": "function"
    },
    {
      "inputs": [
        {
          "internalType": "address[]",
          "name": "accounts",
          "type": "address[]"
        },
        {
          "internalType": "uint256[]",
          "name": "ids",
          "type": "uint256[]"
        }
      ],
      "name": "balanceOfBatch",
      "outputs": [
        {
          "internalType": "uint256[]",
          "name": "",
          "type": "uint256[]"
        }
      ],
      "stateMutability": "view",
      "type": "function"
    },
    {
      "inputs": [
        {
          "internalType": "uint256",
          "name": "id",
          "type": "uint256"
        }
      ],
      "name": "bondmetaData",
      "outputs": [
        {
          "internalType": "string",
          "name": "",
          "type": "string"
        },
        {
          "internalType": "uint256",
          "name": "",
          "type": "uint256"
        },
        {
          "internalType": "uint256",
          "name": "",
          "type": "uint256"
        },
        {
          "internalType": "uint256",
          "name": "",
          "type": "uint256"
        },
        {
          "internalType": "uint256",
          "name": "",
          "type": "uint256"
        },
        {
          "internalType": "uint256",
          "name": "",
          "type": "uint256"
        },
        {
          "internalType": "uint256",
          "name": "",
          "type": "uint256"
        },
        {
          "internalType": "uint256",
          "name": "",
          "type": "uint256"
        },
        {
          "internalType": "uint256",
          "name": "",
          "type": "uint256"
        },
        {
          "internalType": "uint256",
          "name": "",
          "type": "uint256"
        },
        {
          "internalType": "uint256",
          "name": "",
          "type": "uint256"
        }
      ],
      "stateMutability": "view",
      "type": "function"
    },
    {
      "inputs": [
        {
          "internalType": "uint256",
          "name": "id",
          "type": "uint256"
        }
      ],
      "name": "couponRate",
      "outputs": [
        {
          "internalType": "uint256",
          "name": "",
          "type": "uint256"
        }
      ],
      "stateMutability": "view",
      "type": "function"
    },
    {
      "inputs": [
        {
          "internalType": "uint256",
          "name": "id",
          "type": "uint256"
        },
        {
          "internalType": "uint256",
          "name": "tokenAmount",
          "type": "uint256"
        }
      ],
      "name": "deposit",
      "outputs": [],
      "stateMutability": "nonpayable",
      "type": "function"
    },
    {
      "inputs": [
        {
          "internalType": "uint256",
          "name": "id",
          "type": "uint256"
        }
      ],
      "name": "designatedTokenAPool",
      "outputs": [
        {
          "internalType": "uint256",
          "name": "",
          "type": "uint256"
        }
      ],
      "stateMutability": "view",
      "type": "function"
    },
    {
      "inputs": [
        {
          "internalType": "uint256",
          "name": "id",
          "type": "uint256"
        }
      ],
      "name": "designatedTokenBPool",
      "outputs": [
        {
          "internalType": "uint256",
          "name": "",
          "type": "uint256"
        }
      ],
      "stateMutability": "view",
      "type": "function"
    },
    {
      "inputs": [],
      "name": "getAtoBExchangeRate",
      "outputs": [
        {
          "internalType": "uint256",
          "name": "",
          "type": "uint256"
        }
      ],
      "stateMutability": "view",
      "type": "function"
    },
    {
      "inputs": [],
      "name": "getLatestPriceA",
      "outputs": [
        {
          "internalType": "int256",
          "name": "",
          "type": "int256"
        }
      ],
      "stateMutability": "view",
      "type": "function"
    },
    {
      "inputs": [],
      "name": "getLatestPriceB",
      "outputs": [
        {
          "internalType": "int256",
          "name": "",
          "type": "int256"
        }
      ],
      "stateMutability": "view",
      "type": "function"
    },
    {
      "inputs": [
        {
          "internalType": "uint256",
          "name": "id",
          "type": "uint256"
        }
      ],
      "name": "hasReachedMaturity",
      "outputs": [
        {
          "internalType": "bool",
          "name": "",
          "type": "bool"
        }
      ],
      "stateMutability": "view",
      "type": "function"
    },
    {
      "inputs": [
        {
          "internalType": "uint256",
          "name": "id",
          "type": "uint256"
        }
      ],
      "name": "isActive",
      "outputs": [
        {
          "internalType": "bool",
          "name": "",
          "type": "bool"
        }
      ],
      "stateMutability": "view",
      "type": "function"
    },
    {
      "inputs": [
        {
          "internalType": "address",
          "name": "account",
          "type": "address"
        },
        {
          "internalType": "address",
          "name": "operator",
          "type": "address"
        }
      ],
      "name": "isApprovedForAll",
      "outputs": [
        {
          "internalType": "bool",
          "name": "",
          "type": "bool"
        }
      ],
      "stateMutability": "view",
      "type": "function"
    },
    {
      "inputs": [
        {
          "internalType": "uint256",
          "name": "id",
          "type": "uint256"
        }
      ],
      "name": "isCanceled",
      "outputs": [
        {
          "internalType": "bool",
          "name": "",
          "type": "bool"
        }
      ],
      "stateMutability": "view",
      "type": "function"
    },
    {
      "inputs": [
        {
          "internalType": "uint256",
          "name": "id",
          "type": "uint256"
        }
      ],
      "name": "isCompleted",
      "outputs": [
        {
          "internalType": "bool",
          "name": "",
          "type": "bool"
        }
      ],
      "stateMutability": "view",
      "type": "function"
    },
    {
      "inputs": [
        {
          "internalType": "uint256",
          "name": "id",
          "type": "uint256"
        }
      ],
      "name": "isCompletedInTheory",
      "outputs": [
        {
          "internalType": "bool",
          "name": "",
          "type": "bool"
        }
      ],
      "stateMutability": "view",
      "type": "function"
    },
    {
      "inputs": [
        {
          "internalType": "uint256",
          "name": "id",
          "type": "uint256"
        }
      ],
      "name": "isDefaulted",
      "outputs": [
        {
          "internalType": "bool",
          "name": "",
          "type": "bool"
        }
      ],
      "stateMutability": "view",
      "type": "function"
    },
    {
      "inputs": [
        {
          "internalType": "uint256",
          "name": "id",
          "type": "uint256"
        }
      ],
      "name": "isDefaultedInTheory",
      "outputs": [
        {
          "internalType": "bool",
          "name": "",
          "type": "bool"
        }
      ],
      "stateMutability": "view",
      "type": "function"
    },
    {
      "inputs": [
        {
          "internalType": "uint256",
          "name": "id",
          "type": "uint256"
        }
      ],
      "name": "isFulfilled",
      "outputs": [
        {
          "internalType": "bool",
          "name": "",
          "type": "bool"
        }
      ],
      "stateMutability": "view",
      "type": "function"
    },
    {
      "inputs": [
        {
          "internalType": "uint256",
          "name": "id",
          "type": "uint256"
        }
      ],
      "name": "isFullyRedeemed",
      "outputs": [
        {
          "internalType": "bool",
          "name": "",
          "type": "bool"
        }
      ],
      "stateMutability": "view",
      "type": "function"
    },
    {
      "inputs": [
        {
          "internalType": "uint256",
          "name": "bondQuantity",
          "type": "uint256"
        },
        {
          "internalType": "uint256",
          "name": "minPurchasedQuantity",
          "type": "uint256"
        },
        {
          "internalType": "uint256",
          "name": "tokenAAmountPerBond",
          "type": "uint256"
        },
        {
          "internalType": "string",
          "name": "ticker",
          "type": "string"
        },
        {
          "internalType": "uint256",
          "name": "durationDays",
          "type": "uint256"
        },
        {
          "internalType": "uint256",
          "name": "activeDurationInDays",
          "type": "uint256"
        },
        {
          "internalType": "uint256",
          "name": "rate",
          "type": "uint256"
        }
      ],
      "name": "issue",
      "outputs": [
        {
          "internalType": "uint256",
          "name": "id",
          "type": "uint256"
        }
      ],
      "stateMutability": "nonpayable",
      "type": "function"
    },
    {
      "inputs": [
        {
          "internalType": "uint256",
          "name": "id",
          "type": "uint256"
        }
      ],
      "name": "markAsCompleted",
      "outputs": [],
      "stateMutability": "nonpayable",
      "type": "function"
    },
    {
      "inputs": [
        {
          "internalType": "uint256",
          "name": "id",
          "type": "uint256"
        }
      ],
      "name": "markAsDefaulted",
      "outputs": [],
      "stateMutability": "nonpayable",
      "type": "function"
    },
    {
      "inputs": [
        {
          "internalType": "uint256",
          "name": "id",
          "type": "uint256"
        }
      ],
      "name": "poolAAmount",
      "outputs": [
        {
          "internalType": "uint256",
          "name": "",
          "type": "uint256"
        }
      ],
      "stateMutability": "view",
      "type": "function"
    },
    {
      "inputs": [
        {
          "internalType": "uint256",
          "name": "id",
          "type": "uint256"
        }
      ],
      "name": "poolBAmount",
      "outputs": [
        {
          "internalType": "uint256",
          "name": "",
          "type": "uint256"
        }
      ],
      "stateMutability": "view",
      "type": "function"
    },
    {
      "inputs": [
        {
          "internalType": "uint256",
          "name": "id",
          "type": "uint256"
        }
      ],
      "name": "principal",
      "outputs": [
        {
          "internalType": "uint256",
          "name": "",
          "type": "uint256"
        }
      ],
      "stateMutability": "view",
      "type": "function"
    },
    {
      "inputs": [
        {
          "internalType": "uint256",
          "name": "id",
          "type": "uint256"
        }
      ],
      "name": "principalWithInterest",
      "outputs": [
        {
          "internalType": "uint256",
          "name": "",
          "type": "uint256"
        }
      ],
      "stateMutability": "view",
      "type": "function"
    },
    {
      "inputs": [
        {
          "internalType": "uint256",
          "name": "id",
          "type": "uint256"
        },
        {
          "internalType": "uint256",
          "name": "bondQuantity",
          "type": "uint256"
        }
      ],
      "name": "purchase",
      "outputs": [],
      "stateMutability": "nonpayable",
      "type": "function"
    },
    {
      "inputs": [
        {
          "internalType": "uint256",
          "name": "id",
          "type": "uint256"
        },
        {
          "internalType": "uint256",
          "name": "bondQuantity",
          "type": "uint256"
        }
      ],
      "name": "redeem",
      "outputs": [],
      "stateMutability": "nonpayable",
      "type": "function"
    },
    {
      "inputs": [
        {
          "internalType": "uint256",
          "name": "id",
          "type": "uint256"
        },
        {
          "internalType": "uint256",
          "name": "bondQuantity",
          "type": "uint256"
        }
      ],
      "name": "redeemCanceled",
      "outputs": [],
      "stateMutability": "nonpayable",
      "type": "function"
    },
    {
      "inputs": [
        {
          "internalType": "uint256",
          "name": "id",
          "type": "uint256"
        },
        {
          "internalType": "uint256",
          "name": "bondQuantity",
          "type": "uint256"
        }
      ],
      "name": "redeemDefaulted",
      "outputs": [],
      "stateMutability": "nonpayable",
      "type": "function"
    },
    {
      "inputs": [
        {
          "internalType": "uint256",
          "name": "id",
          "type": "uint256"
        }
      ],
      "name": "remainingQuantity",
      "outputs": [
        {
          "internalType": "uint256",
          "name": "",
          "type": "uint256"
        }
      ],
      "stateMutability": "view",
      "type": "function"
    },
    {
      "inputs": [
        {
          "internalType": "address",
          "name": "from",
          "type": "address"
        },
        {
          "internalType": "address",
          "name": "to",
          "type": "address"
        },
        {
          "internalType": "uint256[]",
          "name": "ids",
          "type": "uint256[]"
        },
        {
          "internalType": "uint256[]",
          "name": "amounts",
          "type": "uint256[]"
        },
        {
          "internalType": "bytes",
          "name": "data",
          "type": "bytes"
        }
      ],
      "name": "safeBatchTransferFrom",
      "outputs": [],
      "stateMutability": "nonpayable",
      "type": "function"
    },
    {
      "inputs": [
        {
          "internalType": "address",
          "name": "from",
          "type": "address"
        },
        {
          "internalType": "address",
          "name": "to",
          "type": "address"
        },
        {
          "internalType": "uint256",
          "name": "id",
          "type": "uint256"
        },
        {
          "internalType": "uint256",
          "name": "amount",
          "type": "uint256"
        },
        {
          "internalType": "bytes",
          "name": "data",
          "type": "bytes"
        }
      ],
      "name": "safeTransferFrom",
      "outputs": [],
      "stateMutability": "nonpayable",
      "type": "function"
    },
    {
      "inputs": [
        {
          "internalType": "address",
          "name": "operator",
          "type": "address"
        },
        {
          "internalType": "bool",
          "name": "approved",
          "type": "bool"
        }
      ],
      "name": "setApprovalForAll",
      "outputs": [],
      "stateMutability": "nonpayable",
      "type": "function"
    },
    {
      "inputs": [
        {
          "internalType": "bytes4",
          "name": "interfaceId",
          "type": "bytes4"
        }
      ],
      "name": "supportsInterface",
      "outputs": [
        {
          "internalType": "bool",
          "name": "",
          "type": "bool"
        }
      ],
      "stateMutability": "view",
      "type": "function"
    },
    {
      "inputs": [
        {
          "internalType": "uint256",
          "name": "id",
          "type": "uint256"
        }
      ],
      "name": "timeElapsed",
      "outputs": [
        {
          "internalType": "uint256",
          "name": "",
          "type": "uint256"
        }
      ],
      "stateMutability": "view",
      "type": "function"
    },
    {
      "inputs": [
        {
          "internalType": "uint256",
          "name": "id",
          "type": "uint256"
        }
      ],
      "name": "timeRemainingToEndOfActive",
      "outputs": [
        {
          "internalType": "uint256",
          "name": "",
          "type": "uint256"
        }
      ],
      "stateMutability": "view",
      "type": "function"
    },
    {
      "inputs": [
        {
          "internalType": "uint256",
          "name": "id",
          "type": "uint256"
        }
      ],
      "name": "timeRemainingToMaturity",
      "outputs": [
        {
          "internalType": "uint256",
          "name": "",
          "type": "uint256"
        }
      ],
      "stateMutability": "view",
      "type": "function"
    },
    {
      "inputs": [],
      "name": "tvlA",
      "outputs": [
        {
          "internalType": "uint256",
          "name": "",
          "type": "uint256"
        }
      ],
      "stateMutability": "view",
      "type": "function"
    },
    {
      "inputs": [],
      "name": "tvlB",
      "outputs": [
        {
          "internalType": "uint256",
          "name": "",
          "type": "uint256"
        }
      ],
      "stateMutability": "view",
      "type": "function"
    },
    {
      "inputs": [
        {
          "internalType": "uint256",
          "name": "",
          "type": "uint256"
        }
      ],
      "name": "uri",
      "outputs": [
        {
          "internalType": "string",
          "name": "",
          "type": "string"
        }
      ],
      "stateMutability": "view",
      "type": "function"
    },
    {
      "inputs": [
        {
          "internalType": "uint256",
          "name": "id",
          "type": "uint256"
        },
        {
          "internalType": "uint256",
          "name": "tokenAmount",
          "type": "uint256"
        }
      ],
      "name": "withdraw",
      "outputs": [],
      "stateMutability": "nonpayable",
      "type": "function"
    },
    {
      "inputs": [
        {
          "internalType": "uint256",
          "name": "id",
          "type": "uint256"
        }
      ],
      "name": "withdrawExcess",
      "outputs": [],
      "stateMutability": "nonpayable",
      "type": "function"
    }
  ],
  "bytecode": "0x61012060405260006003553480156200001757600080fd5b5060405162006a1d38038062006a1d83398181016040528101906200003d91906200036e565b856200004f816200016160201b60201c565b508073ffffffffffffffffffffffffffffffffffffffff1660c08173ffffffffffffffffffffffffffffffffffffffff16815250508473ffffffffffffffffffffffffffffffffffffffff1660e08173ffffffffffffffffffffffffffffffffffffffff16815250508373ffffffffffffffffffffffffffffffffffffffff166101008173ffffffffffffffffffffffffffffffffffffffff16815250508273ffffffffffffffffffffffffffffffffffffffff1660808173ffffffffffffffffffffffffffffffffffffffff16815250508173ffffffffffffffffffffffffffffffffffffffff1660a08173ffffffffffffffffffffffffffffffffffffffff16815250505050505050506200075b565b806002908162000172919062000674565b5050565b6000604051905090565b600080fd5b600080fd5b600080fd5b600080fd5b6000601f19601f8301169050919050565b7f4e487b7100000000000000000000000000000000000000000000000000000000600052604160045260246000fd5b620001df8262000194565b810181811067ffffffffffffffff82111715620002015762000200620001a5565b5b80604052505050565b60006200021662000176565b9050620002248282620001d4565b919050565b600067ffffffffffffffff821115620002475762000246620001a5565b5b620002528262000194565b9050602081019050919050565b60005b838110156200027f57808201518184015260208101905062000262565b60008484015250505050565b6000620002a26200029c8462000229565b6200020a565b905082815260208101848484011115620002c157620002c06200018f565b5b620002ce8482856200025f565b509392505050565b600082601f830112620002ee57620002ed6200018a565b5b8151620003008482602086016200028b565b91505092915050565b600073ffffffffffffffffffffffffffffffffffffffff82169050919050565b6000620003368262000309565b9050919050565b620003488162000329565b81146200035457600080fd5b50565b60008151905062000368816200033d565b92915050565b60008060008060008060c087890312156200038e576200038d62000180565b5b600087015167ffffffffffffffff811115620003af57620003ae62000185565b5b620003bd89828a01620002d6565b9650506020620003d089828a0162000357565b9550506040620003e389828a0162000357565b9450506060620003f689828a0162000357565b93505060806200040989828a0162000357565b92505060a06200041c89828a0162000357565b9150509295509295509295565b600081519050919050565b7f4e487b7100000000000000000000000000000000000000000000000000000000600052602260045260246000fd5b600060028204905060018216806200047c57607f821691505b60208210810362000492576200049162000434565b5b50919050565b60008190508160005260206000209050919050565b60006020601f8301049050919050565b600082821b905092915050565b600060088302620004fc7fffffffffffffffffffffffffffffffffffffffffffffffffffffffffffffffff82620004bd565b620005088683620004bd565b95508019841693508086168417925050509392505050565b6000819050919050565b6000819050919050565b6000620005556200054f620005498462000520565b6200052a565b62000520565b9050919050565b6000819050919050565b620005718362000534565b6200058962000580826200055c565b848454620004ca565b825550505050565b600090565b620005a062000591565b620005ad81848462000566565b505050565b5b81811015620005d557620005c960008262000596565b600181019050620005b3565b5050565b601f8211156200062457620005ee8162000498565b620005f984620004ad565b8101602085101562000609578190505b620006216200061885620004ad565b830182620005b2565b50505b505050565b600082821c905092915050565b6000620006496000198460080262000629565b1980831691505092915050565b600062000664838362000636565b9150826002028217905092915050565b6200067f8262000429565b67ffffffffffffffff8111156200069b576200069a620001a5565b5b620006a7825462000463565b620006b4828285620005d9565b600060209050601f831160018114620006ec5760008415620006d7578287015190505b620006e3858262000656565b86555062000753565b601f198416620006fc8662000498565b60005b828110156200072657848901518255600182019150602085019450602081019050620006ff565b8683101562000746578489015162000742601f89168262000636565b8355505b6001600288020188555050505b505050505050565b60805160a05160c05160e0516101005161621b62000802600039600081816116c00152818161184b01528181611d1b01528181611fb00152818161241b015281816128130152612a0e015260008181610f96015281816114d901528181611c7c01528181611f11015281816121d50152612b59015260008181610d9d015281816126b9015281816128b80152612c9b0152600061159f015260006111b7015261621b6000f3fe608060405234801561001057600080fd5b50600436106102735760003560e01c80637a41984b11610151578063abac75e1116100c3578063e2bbb15811610087578063e2bbb158146108a6578063e755ddd7146108c2578063e985e9c5146108de578063f0f3d7de1461090e578063f242432a1461092c578063fcbc669a1461094857610273565b8063abac75e1146107d4578063b09f2b1c14610804578063c0a6026c14610820578063d32fe02e1461083c578063d3b7811b1461087657610273565b80638f0dbf77116101155780638f0dbf77146106f0578063932a8de014610720578063a22cb46514610750578063a87430221461076c578063a996ef0814610788578063aa81106c146107a457610273565b80637a41984b146106265780637bf24456146106565780637cbc23731461067457806382afd23b1461069057806388bdc083146106c057610273565b8063441a3e70116101ea57806364893aaf116101ae57806364893aaf1461052c578063697e8c8c1461055c5780636ff80d931461058c57806370876c98146105bc578063769d96eb146105d857806377e2a08b146105f657610273565b8063441a3e70146104745780634556e49b146104905780634e1273f4146104ae578063549493bb146104de578063634ef3031461050e57610273565b806314f294931161023c57806314f29493146103685780632eb2c2d6146103985780632f2c6b32146103b45780632f3ad61f146103e45780633097afb81461041457806339e3af9b1461044457610273565b8062fdd58e1461027857806301ffc9a7146102a857806308913ce8146102d857806309149020146103085780630e89341c14610338575b600080fd5b610292600480360381019061028d9190614029565b610978565b60405161029f9190614078565b60405180910390f35b6102c260048036038101906102bd91906140eb565b610a40565b6040516102cf9190614133565b60405180910390f35b6102f260048036038101906102ed919061414e565b610b22565b6040516102ff9190614078565b60405180910390f35b610322600480360381019061031d919061414e565b610b4d565b60405161032f9190614133565b60405180910390f35b610352600480360381019061034d919061414e565b610b83565b60405161035f919061420b565b60405180910390f35b610382600480360381019061037d919061414e565b610c17565b60405161038f9190614078565b60405180910390f35b6103b260048036038101906103ad919061442a565b610c55565b005b6103ce60048036038101906103c9919061414e565b610cf6565b6040516103db9190614078565b60405180910390f35b6103fe60048036038101906103f9919061414e565b610d13565b60405161040b9190614133565b60405180910390f35b61042e6004803603810190610429919061414e565b610d3d565b60405161043b9190614133565b60405180910390f35b61045e6004803603810190610459919061414e565b610d76565b60405161046b9190614133565b60405180910390f35b61048e600480360381019061048991906144f9565b610d9b565b005b610498611037565b6040516104a59190614078565b60405180910390f35b6104c860048036038101906104c391906145fc565b611067565b6040516104d59190614732565b60405180910390f35b6104f860048036038101906104f3919061414e565b611180565b6040516105059190614133565b60405180910390f35b6105166111b2565b604051610523919061476d565b60405180910390f35b6105466004803603810190610541919061414e565b611251565b6040516105539190614078565b60405180910390f35b6105766004803603810190610571919061414e565b61126e565b6040516105839190614078565b60405180910390f35b6105a660048036038101906105a1919061414e565b61128b565b6040516105b39190614133565b60405180910390f35b6105d660048036038101906105d191906144f9565b6112c3565b005b6105e061159a565b6040516105ed919061476d565b60405180910390f35b610610600480360381019061060b919061414e565b611639565b60405161061d9190614078565b60405180910390f35b610640600480360381019061063b919061414e565b611692565b60405161064d9190614133565b60405180910390f35b61065e6116bc565b60405161066b9190614078565b60405180910390f35b61068e600480360381019061068991906144f9565b61175d565b005b6106aa60048036038101906106a5919061414e565b611917565b6040516106b79190614133565b60405180910390f35b6106da60048036038101906106d5919061414e565b61193a565b6040516106e79190614078565b60405180910390f35b61070a6004803603810190610705919061414e565b61196d565b6040516107179190614133565b60405180910390f35b61073a6004803603810190610735919061414e565b61198f565b6040516107479190614078565b60405180910390f35b61076a600480360381019061076591906147b4565b6119cd565b005b6107866004803603810190610781919061414e565b6119e3565b005b6107a2600480360381019061079d91906144f9565b611e00565b005b6107be60048036038101906107b9919061414e565b6120a7565b6040516107cb9190614078565b60405180910390f35b6107ee60048036038101906107e9919061414e565b6120c4565b6040516107fb9190614078565b60405180910390f35b61081e600480360381019061081991906144f9565b6120e4565b005b61083a6004803603810190610835919061414e565b6122a1565b005b6108566004803603810190610851919061414e565b6124fa565b60405161086d9b9a999897969594939291906147f4565b60405180910390f35b610890600480360381019061088b919061414e565b612684565b60405161089d9190614078565b60405180910390f35b6108c060048036038101906108bb91906144f9565b6126b7565b005b6108dc60048036038101906108d7919061414e565b6128b6565b005b6108f860048036038101906108f391906148a6565b612ac1565b6040516109059190614133565b60405180910390f35b610916612b55565b6040516109239190614078565b60405180910390f35b610946600480360381019061094191906148e6565b612bf6565b005b610962600480360381019061095d91906149d8565b612c97565b60405161096f9190614078565b60405180910390f35b60008073ffffffffffffffffffffffffffffffffffffffff168373ffffffffffffffffffffffffffffffffffffffff16036109e8576040517f08c379a00000000000000000000000000000000000000000000000000000000081526004016109df90614b0c565b60405180910390fd5b60008083815260200190815260200160002060008473ffffffffffffffffffffffffffffffffffffffff1673ffffffffffffffffffffffffffffffffffffffff16815260200190815260200160002054905092915050565b60007fd9b67a26000000000000000000000000000000000000000000000000000000007bffffffffffffffffffffffffffffffffffffffffffffffffffffffff1916827bffffffffffffffffffffffffffffffffffffffffffffffffffffffff19161480610b0b57507f0e89341c000000000000000000000000000000000000000000000000000000007bffffffffffffffffffffffffffffffffffffffffffffffffffffffff1916827bffffffffffffffffffffffffffffffffffffffffffffffffffffffff1916145b80610b1b5750610b1a82612f96565b5b9050919050565b6000600460008381526020019081526020016000206003015442610b469190614b5b565b9050919050565b60006004600083815260200190815260200160002060090154600560008481526020019081526020016000205410159050919050565b606060028054610b9290614bbe565b80601f0160208091040260200160405190810160405280929190818152602001828054610bbe90614bbe565b8015610c0b5780601f10610be057610100808354040283529160200191610c0b565b820191906000526020600020905b815481529060010190602001808311610bee57829003601f168201915b50505050509050919050565b600060056000838152602001908152602001600020546004600084815260200190815260200160002060020154610c4e9190614bef565b9050919050565b610c5d613000565b73ffffffffffffffffffffffffffffffffffffffff168573ffffffffffffffffffffffffffffffffffffffff161480610ca35750610ca285610c9d613000565b612ac1565b5b610ce2576040517f08c379a0000000000000000000000000000000000000000000000000000000008152600401610cd990614ca3565b60405180910390fd5b610cef8585858585613008565b5050505050565b600060076000838152602001908152602001600020549050919050565b6000600c600083815260200190815260200160002060009054906101000a900460ff169050919050565b6000610d488261196d565b8015610d6f5750610d5882611639565b600860008481526020019081526020016000205410155b9050919050565b6000610d8182611917565b158015610d945750610d9282610b4d565b155b9050919050565b7f000000000000000000000000000000000000000000000000000000000000000073ffffffffffffffffffffffffffffffffffffffff163373ffffffffffffffffffffffffffffffffffffffff1614610e29576040517f08c379a0000000000000000000000000000000000000000000000000000000008152600401610e2090614d0f565b60405180910390fd5b610e3282611917565b15610e72576040517f08c379a0000000000000000000000000000000000000000000000000000000008152600401610e6990614d7b565b60405180910390fd5b610e7b82610d76565b15610ebb576040517f08c379a0000000000000000000000000000000000000000000000000000000008152600401610eb290614d7b565b60405180910390fd5b610ec482610d13565b80610ed45750610ed38261128b565b5b15610f14576040517f08c379a0000000000000000000000000000000000000000000000000000000008152600401610f0b90614e0d565b60405180910390fd5b6007600083815260200190815260200160002054811115610f6a576040517f08c379a0000000000000000000000000000000000000000000000000000000008152600401610f6190614e9f565b60405180910390fd5b80600760008481526020019081526020016000206000828254610f8d9190614b5b565b925050819055507f000000000000000000000000000000000000000000000000000000000000000073ffffffffffffffffffffffffffffffffffffffff1663a9059cbb33836040518363ffffffff1660e01b8152600401610fef929190614ece565b6020604051808303816000875af115801561100e573d6000803e3d6000fd5b505050506040513d601f19601f820116820180604052508101906110329190614f0c565b505050565b600061104161159a565b633b9aca0061104e6111b2565b6110589190614bef565b6110629190614f68565b905090565b606081518351146110ad576040517f08c379a00000000000000000000000000000000000000000000000000000000081526004016110a49061500b565b60405180910390fd5b6000835167ffffffffffffffff8111156110ca576110c9614232565b5b6040519080825280602002602001820160405280156110f85781602001602082028036833780820191505090505b50905060005b84518110156111755761114585828151811061111d5761111c61502b565b5b60200260200101518583815181106111385761113761502b565b5b6020026020010151610978565b8282815181106111585761115761502b565b5b6020026020010181815250508061116e9061505a565b90506110fe565b508091505092915050565b600060056000838152602001908152602001600020546006600084815260200190815260200160002054149050919050565b6000807f000000000000000000000000000000000000000000000000000000000000000073ffffffffffffffffffffffffffffffffffffffff1663feaf968c6040518163ffffffff1660e01b815260040160a060405180830381865afa158015611220573d6000803e3d6000fd5b505050506040513d601f19601f820116820180604052508101906112449190615125565b5050509150508091505090565b600060086000838152602001908152602001600020549050919050565b600060076000838152602001908152602001600020549050919050565b60006112968261196d565b80156112bc57506112a682611639565b6008600084815260200190815260200160002054105b9050919050565b6112cc82611917565b61130b576040517f08c379a0000000000000000000000000000000000000000000000000000000008152600401611302906151ec565b60405180910390fd5b806113158361198f565b1015611356576040517f08c379a000000000000000000000000000000000000000000000000000000000815260040161134d9061527e565b60405180910390fd5b6000600460008481526020019081526020016000206040518061016001604052908160008201805461138790614bbe565b80601f01602080910402602001604051908101604052809291908181526020018280546113b390614bbe565b80156114005780601f106113d557610100808354040283529160200191611400565b820191906000526020600020905b8154815290600101906020018083116113e357829003601f168201915b50505050508152602001600182015481526020016002820154815260200160038201548152602001600482015481526020016005820154815260200160068201548152602001600782015481526020016008820154815260200160098201548152602001600a82015481525050905060008160200151836114819190614bef565b9050826005600086815260200190815260200160002060008282546114a6919061529e565b92505081905550806007600086815260200190815260200160002060008282546114d0919061529e565b925050819055507f000000000000000000000000000000000000000000000000000000000000000073ffffffffffffffffffffffffffffffffffffffff166323b872dd3330846040518463ffffffff1660e01b8152600401611534939291906152d2565b6020604051808303816000875af1158015611553573d6000803e3d6000fd5b505050506040513d601f19601f820116820180604052508101906115779190614f0c565b506115943033868660405180602001604052806000815250612bf6565b50505050565b6000807f000000000000000000000000000000000000000000000000000000000000000073ffffffffffffffffffffffffffffffffffffffff1663feaf968c6040518163ffffffff1660e01b815260040160a060405180830381865afa158015611608573d6000803e3d6000fd5b505050506040513d601f19601f8201168201806040525081019061162c9190615125565b5050509150508091505090565b6000670de0b6b3a764000060046000848152602001908152602001600020600a015461166484610c17565b61166e9190614bef565b6116789190614f68565b61168183610c17565b61168b919061529e565b9050919050565b6000600d600083815260200190815260200160002060009054906101000a900460ff169050919050565b60007f000000000000000000000000000000000000000000000000000000000000000073ffffffffffffffffffffffffffffffffffffffff166370a08231306040518263ffffffff1660e01b81526004016117179190615309565b602060405180830381865afa158015611734573d6000803e3d6000fd5b505050506040513d601f19601f820116820180604052508101906117589190615324565b905090565b61176682611692565b6117a5576040517f08c379a000000000000000000000000000000000000000000000000000000000815260040161179c9061539d565b60405180910390fd5b806117b03384610978565b10156117f1576040517f08c379a00000000000000000000000000000000000000000000000000000000081526004016117e890615409565b60405180910390fd5b6117fc338383613329565b8060066000848152602001908152602001600020600082825461181f919061529e565b925050819055506000600b600084815260200190815260200160002054826118479190614bef565b90507f000000000000000000000000000000000000000000000000000000000000000073ffffffffffffffffffffffffffffffffffffffff1663a9059cbb33836040518363ffffffff1660e01b81526004016118a4929190614ece565b6020604051808303816000875af11580156118c3573d6000803e3d6000fd5b505050506040513d601f19601f820116820180604052508101906118e79190614f0c565b508060086000858152602001908152602001600020600082825461190b9190614b5b565b92505081905550505050565b600060046000838152602001908152602001600020600501544211159050919050565b600061194582610b22565b60046000848152602001908152602001600020600601546119669190614b5b565b9050919050565b6000600460008381526020019081526020016000206004015442119050919050565b6000600560008381526020019081526020016000205460046000848152602001908152602001600020600801546119c69190614b5b565b9050919050565b6119df6119d8613000565b838361356f565b5050565b6119ec81611692565b1580156119ff57506119fd81610d13565b155b8015611a105750611a0f8161128b565b5b611a4f576040517f08c379a0000000000000000000000000000000000000000000000000000000008152600401611a4690615475565b60405180910390fd5b6000611a5a82611639565b905060006103e86007600085815260200190815260200160002054611a7f9190614f68565b905060006103e86008600086815260200190815260200160002054611aa49190614f68565b90506000826007600087815260200190815260200160002054611ac79190614b5b565b90506000826008600088815260200190815260200160002054611aea9190614b5b565b9050600560008781526020019081526020016000205482611b0b9190614f68565b6009600088815260200190815260200160002081905550600560008781526020019081526020016000205481611b419190614f68565b600a600088815260200190815260200160002081905550600060056000888152602001908152602001600020546009600089815260200190815260200160002054611b8c9190614bef565b83611b979190614b5b565b905060006005600089815260200190815260200160002054600a60008a815260200190815260200160002054611bcd9190614bef565b83611bd89190614b5b565b905060008287611be8919061529e565b905060008287611bf8919061529e565b905081600760008c81526020019081526020016000206000828254611c1d9190614b5b565b9250508190555080600860008c81526020019081526020016000206000828254611c479190614b5b565b925050819055506001600c60008c815260200190815260200160002060006101000a81548160ff0219169083151502179055507f000000000000000000000000000000000000000000000000000000000000000073ffffffffffffffffffffffffffffffffffffffff1663a9059cbb33846040518363ffffffff1660e01b8152600401611cd5929190614ece565b6020604051808303816000875af1158015611cf4573d6000803e3d6000fd5b505050506040513d601f19601f82011682018060405250810190611d189190614f0c565b507f000000000000000000000000000000000000000000000000000000000000000073ffffffffffffffffffffffffffffffffffffffff1663a9059cbb33836040518363ffffffff1660e01b8152600401611d74929190614ece565b6020604051808303816000875af1158015611d93573d6000803e3d6000fd5b505050506040513d601f19601f82011682018060405250810190611db79190614f0c565b50897fcd2c25949e23ea2647ca2c5809b025ee3aca0d82cfcb1d22a715398f5cf8db8e8a8789604051611dec93929190615495565b60405180910390a250505050505050505050565b611e0982610d13565b611e48576040517f08c379a0000000000000000000000000000000000000000000000000000000008152600401611e3f90615475565b60405180910390fd5b80611e533384610978565b1015611e94576040517f08c379a0000000000000000000000000000000000000000000000000000000008152600401611e8b90615409565b60405180910390fd5b611e9f338383613329565b80600660008481526020019081526020016000206000828254611ec2919061529e565b925050819055506000600960008481526020019081526020016000205482611eea9190614bef565b90506000600a60008581526020019081526020016000205483611f0d9190614bef565b90507f000000000000000000000000000000000000000000000000000000000000000073ffffffffffffffffffffffffffffffffffffffff1663a9059cbb33846040518363ffffffff1660e01b8152600401611f6a929190614ece565b6020604051808303816000875af1158015611f89573d6000803e3d6000fd5b505050506040513d601f19601f82011682018060405250810190611fad9190614f0c565b507f000000000000000000000000000000000000000000000000000000000000000073ffffffffffffffffffffffffffffffffffffffff1663a9059cbb33836040518363ffffffff1660e01b8152600401612009929190614ece565b6020604051808303816000875af1158015612028573d6000803e3d6000fd5b505050506040513d601f19601f8201168201806040525081019061204c9190614f0c565b50816007600086815260200190815260200160002060008282546120709190614b5b565b925050819055508060086000868152602001908152602001600020600082825461209a9190614b5b565b9250508190555050505050565b600060086000838152602001908152602001600020549050919050565b600060046000838152602001908152602001600020600a01549050919050565b6120ed82610d76565b61212c576040517f08c379a000000000000000000000000000000000000000000000000000000000815260040161212390615518565b60405180910390fd5b806121373384610978565b1015612178576040517f08c379a000000000000000000000000000000000000000000000000000000000815260040161216f90615409565b60405180910390fd5b612183338383613329565b806006600084815260200190815260200160002060008282546121a6919061529e565b9250508190555060006004600084815260200190815260200160002060010154826121d19190614bef565b90507f000000000000000000000000000000000000000000000000000000000000000073ffffffffffffffffffffffffffffffffffffffff1663a9059cbb33836040518363ffffffff1660e01b815260040161222e929190614ece565b6020604051808303816000875af115801561224d573d6000803e3d6000fd5b505050506040513d601f19601f820116820180604052508101906122719190614f0c565b50806007600085815260200190815260200160002060008282546122959190614b5b565b92505081905550505050565b6122aa81610d13565b1580156122bd57506122bb81611692565b155b80156122ce57506122cd81610d3d565b5b61230d576040517f08c379a00000000000000000000000000000000000000000000000000000000081526004016123049061539d565b60405180910390fd5b600061231882611639565b905060006103e88261232a9190614f68565b90506000818361233a9190614b5b565b905060056000858152602001908152602001600020548161235b9190614f68565b600b60008681526020019081526020016000208190555060006005600086815260200190815260200160002054600b6000878152602001908152602001600020546123a69190614bef565b826123b19190614b5b565b9050600081846123c1919061529e565b9050806008600088815260200190815260200160002060008282546123e69190614b5b565b925050819055506001600d600088815260200190815260200160002060006101000a81548160ff0219169083151502179055507f000000000000000000000000000000000000000000000000000000000000000073ffffffffffffffffffffffffffffffffffffffff1663a9059cbb33836040518363ffffffff1660e01b8152600401612474929190614ece565b6020604051808303816000875af1158015612493573d6000803e3d6000fd5b505050506040513d601f19601f820116820180604052508101906124b79190614f0c565b50857fac2eeaf45d1b75aed6b3285cda3efb3c382cce02ba313558bbb90be57f8843e486856040516124ea929190615538565b60405180910390a2505050505050565b60606000806000806000806000806000806000600460008e81526020019081526020016000206040518061016001604052908160008201805461253c90614bbe565b80601f016020809104026020016040519081016040528092919081815260200182805461256890614bbe565b80156125b55780601f1061258a576101008083540402835291602001916125b5565b820191906000526020600020905b81548152906001019060200180831161259857829003601f168201915b50505050508152602001600182015481526020016002820154815260200160038201548152602001600482015481526020016005820154815260200160068201548152602001600782015481526020016008820154815260200160098201548152602001600a820154815250509050806000015181602001518260400151836060015184608001518560a001518660c001518760e001518861010001518961012001518a61014001519b509b509b509b509b509b509b509b509b509b509b505091939597999b90929496989a50565b600061268f82610b22565b60046000848152602001908152602001600020600701546126b09190614b5b565b9050919050565b7f000000000000000000000000000000000000000000000000000000000000000073ffffffffffffffffffffffffffffffffffffffff163373ffffffffffffffffffffffffffffffffffffffff1614612745576040517f08c379a000000000000000000000000000000000000000000000000000000000815260040161273c90614d0f565b60405180910390fd5b61274e82610d13565b8061275e575061275d8261128b565b5b1561279e576040517f08c379a0000000000000000000000000000000000000000000000000000000008152600401612795906155ad565b60405180910390fd5b6127a782611692565b156127e7576040517f08c379a00000000000000000000000000000000000000000000000000000000081526004016127de90615619565b60405180910390fd5b8060086000848152602001908152602001600020600082825461280a919061529e565b925050819055507f000000000000000000000000000000000000000000000000000000000000000073ffffffffffffffffffffffffffffffffffffffff166323b872dd3330846040518463ffffffff1660e01b815260040161286e939291906152d2565b6020604051808303816000875af115801561288d573d6000803e3d6000fd5b505050506040513d601f19601f820116820180604052508101906128b19190614f0c565b505050565b7f000000000000000000000000000000000000000000000000000000000000000073ffffffffffffffffffffffffffffffffffffffff163373ffffffffffffffffffffffffffffffffffffffff1614612944576040517f08c379a000000000000000000000000000000000000000000000000000000000815260040161293b90614d0f565b60405180910390fd5b61294d81611692565b801561295e575061295d81611180565b5b61299d576040517f08c379a000000000000000000000000000000000000000000000000000000000815260040161299490615685565b60405180910390fd5b60006008600083815260200190815260200160002054116129f3576040517f08c379a00000000000000000000000000000000000000000000000000000000081526004016129ea906156f1565b60405180910390fd5b600060086000838152602001908152602001600020819055507f000000000000000000000000000000000000000000000000000000000000000073ffffffffffffffffffffffffffffffffffffffff1663a9059cbb3360086000858152602001908152602001600020546040518363ffffffff1660e01b8152600401612a7a929190614ece565b6020604051808303816000875af1158015612a99573d6000803e3d6000fd5b505050506040513d601f19601f82011682018060405250810190612abd9190614f0c565b5050565b6000600160008473ffffffffffffffffffffffffffffffffffffffff1673ffffffffffffffffffffffffffffffffffffffff16815260200190815260200160002060008373ffffffffffffffffffffffffffffffffffffffff1673ffffffffffffffffffffffffffffffffffffffff16815260200190815260200160002060009054906101000a900460ff16905092915050565b60007f000000000000000000000000000000000000000000000000000000000000000073ffffffffffffffffffffffffffffffffffffffff166370a08231306040518263ffffffff1660e01b8152600401612bb09190615309565b602060405180830381865afa158015612bcd573d6000803e3d6000fd5b505050506040513d601f19601f82011682018060405250810190612bf19190615324565b905090565b612bfe613000565b73ffffffffffffffffffffffffffffffffffffffff168573ffffffffffffffffffffffffffffffffffffffff161480612c445750612c4385612c3e613000565b612ac1565b5b612c83576040517f08c379a0000000000000000000000000000000000000000000000000000000008152600401612c7a90614ca3565b60405180910390fd5b612c9085858585856136db565b5050505050565b60007f000000000000000000000000000000000000000000000000000000000000000073ffffffffffffffffffffffffffffffffffffffff163373ffffffffffffffffffffffffffffffffffffffff1614612d27576040517f08c379a0000000000000000000000000000000000000000000000000000000008152600401612d1e90614d0f565b60405180910390fd5b838310612d69576040517f08c379a0000000000000000000000000000000000000000000000000000000008152600401612d6090615783565b60405180910390fd5b6001600354612d78919061529e565b9050600160036000828254612d8d919061529e565b92505081905550612daf30828b60405180602001604052806000815250613976565b6000612db9611037565b90506000633b9aca008983612dce9190614bef565b612dd89190614f68565b905060405180610160016040528089898080601f016020809104026020016040519081016040528093929190818152602001838380828437600081840152601f19601f8201169050808301925050505050505081526020018a81526020018281526020014281526020016201518088612e519190614bef565b42612e5c919061529e565b81526020016201518087612e709190614bef565b42612e7b919061529e565b81526020018681526020018781526020018c81526020018b815260200185815250600460008581526020019081526020016000206000820151816000019081612ec4919061594f565b506020820151816001015560408201518160020155606082015181600301556080820151816004015560a0820151816005015560c0820151816006015560e082015181600701556101008201518160080155610120820151816009015561014082015181600a0155905050827f3a10e10c16b4416f991fa4c931bcd0520986a7357f6ba95c4d92f806a4c1ebf38c8b8488620151808c612f649190614bef565b42612f6f919061529e565b604051612f80959493929190615a21565b60405180910390a2505098975050505050505050565b60007f01ffc9a7000000000000000000000000000000000000000000000000000000007bffffffffffffffffffffffffffffffffffffffffffffffffffffffff1916827bffffffffffffffffffffffffffffffffffffffffffffffffffffffff1916149050919050565b600033905090565b815183511461304c576040517f08c379a000000000000000000000000000000000000000000000000000000000815260040161304390615ae6565b60405180910390fd5b600073ffffffffffffffffffffffffffffffffffffffff168473ffffffffffffffffffffffffffffffffffffffff16036130bb576040517f08c379a00000000000000000000000000000000000000000000000000000000081526004016130b290615b78565b60405180910390fd5b60006130c5613000565b90506130d5818787878787613b26565b60005b84518110156132865760008582815181106130f6576130f561502b565b5b6020026020010151905060008583815181106131155761311461502b565b5b60200260200101519050600080600084815260200190815260200160002060008b73ffffffffffffffffffffffffffffffffffffffff1673ffffffffffffffffffffffffffffffffffffffff168152602001908152602001600020549050818110156131b6576040517f08c379a00000000000000000000000000000000000000000000000000000000081526004016131ad90615c0a565b60405180910390fd5b81810360008085815260200190815260200160002060008c73ffffffffffffffffffffffffffffffffffffffff1673ffffffffffffffffffffffffffffffffffffffff168152602001908152602001600020819055508160008085815260200190815260200160002060008b73ffffffffffffffffffffffffffffffffffffffff1673ffffffffffffffffffffffffffffffffffffffff168152602001908152602001600020600082825461326b919061529e565b925050819055505050508061327f9061505a565b90506130d8565b508473ffffffffffffffffffffffffffffffffffffffff168673ffffffffffffffffffffffffffffffffffffffff168273ffffffffffffffffffffffffffffffffffffffff167f4a39dc06d4c0dbc64b70af90fd698a233a518aa5d07e595d983b8c0526c8f7fb87876040516132fd929190615c2a565b60405180910390a4613313818787878787613b2e565b613321818787878787613b36565b505050505050565b600073ffffffffffffffffffffffffffffffffffffffff168373ffffffffffffffffffffffffffffffffffffffff1603613398576040517f08c379a000000000000000000000000000000000000000000000000000000000815260040161338f90615cd3565b60405180910390fd5b60006133a2613000565b905060006133af84613d0d565b905060006133bc84613d0d565b90506133dc83876000858560405180602001604052806000815250613b26565b600080600087815260200190815260200160002060008873ffffffffffffffffffffffffffffffffffffffff1673ffffffffffffffffffffffffffffffffffffffff16815260200190815260200160002054905084811015613473576040517f08c379a000000000000000000000000000000000000000000000000000000000815260040161346a90615d65565b60405180910390fd5b84810360008088815260200190815260200160002060008973ffffffffffffffffffffffffffffffffffffffff1673ffffffffffffffffffffffffffffffffffffffff16815260200190815260200160002081905550600073ffffffffffffffffffffffffffffffffffffffff168773ffffffffffffffffffffffffffffffffffffffff168573ffffffffffffffffffffffffffffffffffffffff167fc3d58168c5ae7397731d063d5bbf3d657854427343f4c083240f7aacaa2d0f628989604051613540929190615538565b60405180910390a461356684886000868660405180602001604052806000815250613b2e565b50505050505050565b8173ffffffffffffffffffffffffffffffffffffffff168373ffffffffffffffffffffffffffffffffffffffff16036135dd576040517f08c379a00000000000000000000000000000000000000000000000000000000081526004016135d490615df7565b60405180910390fd5b80600160008573ffffffffffffffffffffffffffffffffffffffff1673ffffffffffffffffffffffffffffffffffffffff16815260200190815260200160002060008473ffffffffffffffffffffffffffffffffffffffff1673ffffffffffffffffffffffffffffffffffffffff16815260200190815260200160002060006101000a81548160ff0219169083151502179055508173ffffffffffffffffffffffffffffffffffffffff168373ffffffffffffffffffffffffffffffffffffffff167f17307eab39ab6107e8899845ad3d59bd9653f200f220920489ca2b5937696c31836040516136ce9190614133565b60405180910390a3505050565b600073ffffffffffffffffffffffffffffffffffffffff168473ffffffffffffffffffffffffffffffffffffffff160361374a576040517f08c379a000000000000000000000000000000000000000000000000000000000815260040161374190615b78565b60405180910390fd5b6000613754613000565b9050600061376185613d0d565b9050600061376e85613d0d565b905061377e838989858589613b26565b600080600088815260200190815260200160002060008a73ffffffffffffffffffffffffffffffffffffffff1673ffffffffffffffffffffffffffffffffffffffff16815260200190815260200160002054905085811015613815576040517f08c379a000000000000000000000000000000000000000000000000000000000815260040161380c90615c0a565b60405180910390fd5b85810360008089815260200190815260200160002060008b73ffffffffffffffffffffffffffffffffffffffff1673ffffffffffffffffffffffffffffffffffffffff168152602001908152602001600020819055508560008089815260200190815260200160002060008a73ffffffffffffffffffffffffffffffffffffffff1673ffffffffffffffffffffffffffffffffffffffff16815260200190815260200160002060008282546138ca919061529e565b925050819055508773ffffffffffffffffffffffffffffffffffffffff168973ffffffffffffffffffffffffffffffffffffffff168573ffffffffffffffffffffffffffffffffffffffff167fc3d58168c5ae7397731d063d5bbf3d657854427343f4c083240f7aacaa2d0f628a8a604051613947929190615538565b60405180910390a461395d848a8a86868a613b2e565b61396b848a8a8a8a8a613d87565b505050505050505050565b600073ffffffffffffffffffffffffffffffffffffffff168473ffffffffffffffffffffffffffffffffffffffff16036139e5576040517f08c379a00000000000000000000000000000000000000000000000000000000081526004016139dc90615e89565b60405180910390fd5b60006139ef613000565b905060006139fc85613d0d565b90506000613a0985613d0d565b9050613a1a83600089858589613b26565b8460008088815260200190815260200160002060008973ffffffffffffffffffffffffffffffffffffffff1673ffffffffffffffffffffffffffffffffffffffff1681526020019081526020016000206000828254613a79919061529e565b925050819055508673ffffffffffffffffffffffffffffffffffffffff16600073ffffffffffffffffffffffffffffffffffffffff168473ffffffffffffffffffffffffffffffffffffffff167fc3d58168c5ae7397731d063d5bbf3d657854427343f4c083240f7aacaa2d0f628989604051613af7929190615538565b60405180910390a4613b0e83600089858589613b2e565b613b1d83600089898989613d87565b50505050505050565b505050505050565b505050505050565b613b558473ffffffffffffffffffffffffffffffffffffffff16613f5e565b15613d05578373ffffffffffffffffffffffffffffffffffffffff1663bc197c8187878686866040518663ffffffff1660e01b8152600401613b9b959493929190615efe565b6020604051808303816000875af1925050508015613bd757506040513d601f19601f82011682018060405250810190613bd49190615f7b565b60015b613c7c57613be3615fb5565b806308c379a003613c3f5750613bf7615fd7565b80613c025750613c41565b806040517f08c379a0000000000000000000000000000000000000000000000000000000008152600401613c36919061420b565b60405180910390fd5b505b6040517f08c379a0000000000000000000000000000000000000000000000000000000008152600401613c73906160d9565b60405180910390fd5b63bc197c8160e01b7bffffffffffffffffffffffffffffffffffffffffffffffffffffffff1916817bffffffffffffffffffffffffffffffffffffffffffffffffffffffff191614613d03576040517f08c379a0000000000000000000000000000000000000000000000000000000008152600401613cfa9061616b565b60405180910390fd5b505b505050505050565b60606000600167ffffffffffffffff811115613d2c57613d2b614232565b5b604051908082528060200260200182016040528015613d5a5781602001602082028036833780820191505090505b5090508281600081518110613d7257613d7161502b565b5b60200260200101818152505080915050919050565b613da68473ffffffffffffffffffffffffffffffffffffffff16613f5e565b15613f56578373ffffffffffffffffffffffffffffffffffffffff1663f23a6e6187878686866040518663ffffffff1660e01b8152600401613dec95949392919061618b565b6020604051808303816000875af1925050508015613e2857506040513d601f19601f82011682018060405250810190613e259190615f7b565b60015b613ecd57613e34615fb5565b806308c379a003613e905750613e48615fd7565b80613e535750613e92565b806040517f08c379a0000000000000000000000000000000000000000000000000000000008152600401613e87919061420b565b60405180910390fd5b505b6040517f08c379a0000000000000000000000000000000000000000000000000000000008152600401613ec4906160d9565b60405180910390fd5b63f23a6e6160e01b7bffffffffffffffffffffffffffffffffffffffffffffffffffffffff1916817bffffffffffffffffffffffffffffffffffffffffffffffffffffffff191614613f54576040517f08c379a0000000000000000000000000000000000000000000000000000000008152600401613f4b9061616b565b60405180910390fd5b505b505050505050565b6000808273ffffffffffffffffffffffffffffffffffffffff163b119050919050565b6000604051905090565b600080fd5b600080fd5b600073ffffffffffffffffffffffffffffffffffffffff82169050919050565b6000613fc082613f95565b9050919050565b613fd081613fb5565b8114613fdb57600080fd5b50565b600081359050613fed81613fc7565b92915050565b6000819050919050565b61400681613ff3565b811461401157600080fd5b50565b60008135905061402381613ffd565b92915050565b600080604083850312156140405761403f613f8b565b5b600061404e85828601613fde565b925050602061405f85828601614014565b9150509250929050565b61407281613ff3565b82525050565b600060208201905061408d6000830184614069565b92915050565b60007fffffffff0000000000000000000000000000000000000000000000000000000082169050919050565b6140c881614093565b81146140d357600080fd5b50565b6000813590506140e5816140bf565b92915050565b60006020828403121561410157614100613f8b565b5b600061410f848285016140d6565b91505092915050565b60008115159050919050565b61412d81614118565b82525050565b60006020820190506141486000830184614124565b92915050565b60006020828403121561416457614163613f8b565b5b600061417284828501614014565b91505092915050565b600081519050919050565b600082825260208201905092915050565b60005b838110156141b557808201518184015260208101905061419a565b60008484015250505050565b6000601f19601f8301169050919050565b60006141dd8261417b565b6141e78185614186565b93506141f7818560208601614197565b614200816141c1565b840191505092915050565b6000602082019050818103600083015261422581846141d2565b905092915050565b600080fd5b7f4e487b7100000000000000000000000000000000000000000000000000000000600052604160045260246000fd5b61426a826141c1565b810181811067ffffffffffffffff8211171561428957614288614232565b5b80604052505050565b600061429c613f81565b90506142a88282614261565b919050565b600067ffffffffffffffff8211156142c8576142c7614232565b5b602082029050602081019050919050565b600080fd5b60006142f16142ec846142ad565b614292565b90508083825260208201905060208402830185811115614314576143136142d9565b5b835b8181101561433d57806143298882614014565b845260208401935050602081019050614316565b5050509392505050565b600082601f83011261435c5761435b61422d565b5b813561436c8482602086016142de565b91505092915050565b600080fd5b600067ffffffffffffffff82111561439557614394614232565b5b61439e826141c1565b9050602081019050919050565b82818337600083830152505050565b60006143cd6143c88461437a565b614292565b9050828152602081018484840111156143e9576143e8614375565b5b6143f48482856143ab565b509392505050565b600082601f8301126144115761441061422d565b5b81356144218482602086016143ba565b91505092915050565b600080600080600060a0868803121561444657614445613f8b565b5b600061445488828901613fde565b955050602061446588828901613fde565b945050604086013567ffffffffffffffff81111561448657614485613f90565b5b61449288828901614347565b935050606086013567ffffffffffffffff8111156144b3576144b2613f90565b5b6144bf88828901614347565b925050608086013567ffffffffffffffff8111156144e0576144df613f90565b5b6144ec888289016143fc565b9150509295509295909350565b600080604083850312156145105761450f613f8b565b5b600061451e85828601614014565b925050602061452f85828601614014565b9150509250929050565b600067ffffffffffffffff82111561455457614553614232565b5b602082029050602081019050919050565b600061457861457384614539565b614292565b9050808382526020820190506020840283018581111561459b5761459a6142d9565b5b835b818110156145c457806145b08882613fde565b84526020840193505060208101905061459d565b5050509392505050565b600082601f8301126145e3576145e261422d565b5b81356145f3848260208601614565565b91505092915050565b6000806040838503121561461357614612613f8b565b5b600083013567ffffffffffffffff81111561463157614630613f90565b5b61463d858286016145ce565b925050602083013567ffffffffffffffff81111561465e5761465d613f90565b5b61466a85828601614347565b9150509250929050565b600081519050919050565b600082825260208201905092915050565b6000819050602082019050919050565b6146a981613ff3565b82525050565b60006146bb83836146a0565b60208301905092915050565b6000602082019050919050565b60006146df82614674565b6146e9818561467f565b93506146f483614690565b8060005b8381101561472557815161470c88826146af565b9750614717836146c7565b9250506001810190506146f8565b5085935050505092915050565b6000602082019050818103600083015261474c81846146d4565b905092915050565b6000819050919050565b61476781614754565b82525050565b6000602082019050614782600083018461475e565b92915050565b61479181614118565b811461479c57600080fd5b50565b6000813590506147ae81614788565b92915050565b600080604083850312156147cb576147ca613f8b565b5b60006147d985828601613fde565b92505060206147ea8582860161479f565b9150509250929050565b600061016082019050818103600083015261480f818e6141d2565b905061481e602083018d614069565b61482b604083018c614069565b614838606083018b614069565b614845608083018a614069565b61485260a0830189614069565b61485f60c0830188614069565b61486c60e0830187614069565b61487a610100830186614069565b614888610120830185614069565b614896610140830184614069565b9c9b505050505050505050505050565b600080604083850312156148bd576148bc613f8b565b5b60006148cb85828601613fde565b92505060206148dc85828601613fde565b9150509250929050565b600080600080600060a0868803121561490257614901613f8b565b5b600061491088828901613fde565b955050602061492188828901613fde565b945050604061493288828901614014565b935050606061494388828901614014565b925050608086013567ffffffffffffffff81111561496457614963613f90565b5b614970888289016143fc565b9150509295509295909350565b600080fd5b60008083601f8401126149985761499761422d565b5b8235905067ffffffffffffffff8111156149b5576149b461497d565b5b6020830191508360018202830111156149d1576149d06142d9565b5b9250929050565b60008060008060008060008060e0898b0312156149f8576149f7613f8b565b5b6000614a068b828c01614014565b9850506020614a178b828c01614014565b9750506040614a288b828c01614014565b965050606089013567ffffffffffffffff811115614a4957614a48613f90565b5b614a558b828c01614982565b95509550506080614a688b828c01614014565b93505060a0614a798b828c01614014565b92505060c0614a8a8b828c01614014565b9150509295985092959890939650565b7f455243313135353a2061646472657373207a65726f206973206e6f742061207660008201527f616c6964206f776e657200000000000000000000000000000000000000000000602082015250565b6000614af6602a83614186565b9150614b0182614a9a565b604082019050919050565b60006020820190508181036000830152614b2581614ae9565b9050919050565b7f4e487b7100000000000000000000000000000000000000000000000000000000600052601160045260246000fd5b6000614b6682613ff3565b9150614b7183613ff3565b9250828203905081811115614b8957614b88614b2c565b5b92915050565b7f4e487b7100000000000000000000000000000000000000000000000000000000600052602260045260246000fd5b60006002820490506001821680614bd657607f821691505b602082108103614be957614be8614b8f565b5b50919050565b6000614bfa82613ff3565b9150614c0583613ff3565b9250828202614c1381613ff3565b91508282048414831517614c2a57614c29614b2c565b5b5092915050565b7f455243313135353a2063616c6c6572206973206e6f7420746f6b656e206f776e60008201527f6572206f7220617070726f766564000000000000000000000000000000000000602082015250565b6000614c8d602e83614186565b9150614c9882614c31565b604082019050919050565b60006020820190508181036000830152614cbc81614c80565b9050919050565b7f43616c6c6572206973206e6f7420746865206f776e6572000000000000000000600082015250565b6000614cf9601783614186565b9150614d0482614cc3565b602082019050919050565b60006020820190508181036000830152614d2881614cec565b9050919050565b7f5769746864726177206e6f7420616c6c6f776564207768656e20616374697665600082015250565b6000614d65602083614186565b9150614d7082614d2f565b602082019050919050565b60006020820190508181036000830152614d9481614d58565b9050919050565b7f5769746864726177206e6f7420616c6c6f776564207768656e2064656661756c60008201527f7465640000000000000000000000000000000000000000000000000000000000602082015250565b6000614df7602383614186565b9150614e0282614d9b565b604082019050919050565b60006020820190508181036000830152614e2681614dea565b9050919050565b7f5769746864726177616c20746f6b656e20616d6f756e7420657863656564732060008201527f746f6b656e20616d6f756e7420696e20636f6e74726163740000000000000000602082015250565b6000614e89603883614186565b9150614e9482614e2d565b604082019050919050565b60006020820190508181036000830152614eb881614e7c565b9050919050565b614ec881613fb5565b82525050565b6000604082019050614ee36000830185614ebf565b614ef06020830184614069565b9392505050565b600081519050614f0681614788565b92915050565b600060208284031215614f2257614f21613f8b565b5b6000614f3084828501614ef7565b91505092915050565b7f4e487b7100000000000000000000000000000000000000000000000000000000600052601260045260246000fd5b6000614f7382613ff3565b9150614f7e83613ff3565b925082614f8e57614f8d614f39565b5b828204905092915050565b7f455243313135353a206163636f756e747320616e6420696473206c656e67746860008201527f206d69736d617463680000000000000000000000000000000000000000000000602082015250565b6000614ff5602983614186565b915061500082614f99565b604082019050919050565b6000602082019050818103600083015261502481614fe8565b9050919050565b7f4e487b7100000000000000000000000000000000000000000000000000000000600052603260045260246000fd5b600061506582613ff3565b91507fffffffffffffffffffffffffffffffffffffffffffffffffffffffffffffffff820361509757615096614b2c565b5b600182019050919050565b600069ffffffffffffffffffff82169050919050565b6150c1816150a2565b81146150cc57600080fd5b50565b6000815190506150de816150b8565b92915050565b6150ed81614754565b81146150f857600080fd5b50565b60008151905061510a816150e4565b92915050565b60008151905061511f81613ffd565b92915050565b600080600080600060a0868803121561514157615140613f8b565b5b600061514f888289016150cf565b9550506020615160888289016150fb565b945050604061517188828901615110565b935050606061518288828901615110565b9250506080615193888289016150cf565b9150509295509295909350565b7f426f6e6420697320696e61637469766500000000000000000000000000000000600082015250565b60006151d6601083614186565b91506151e1826151a0565b602082019050919050565b60006020820190508181036000830152615205816151c9565b9050919050565b7f496e73756666696369656e7420626f6e64207175616e746974792072656d616960008201527f6e696e6700000000000000000000000000000000000000000000000000000000602082015250565b6000615268602483614186565b91506152738261520c565b604082019050919050565b600060208201905081810360008301526152978161525b565b9050919050565b60006152a982613ff3565b91506152b483613ff3565b92508282019050808211156152cc576152cb614b2c565b5b92915050565b60006060820190506152e76000830186614ebf565b6152f46020830185614ebf565b6153016040830184614069565b949350505050565b600060208201905061531e6000830184614ebf565b92915050565b60006020828403121561533a57615339613f8b565b5b600061534884828501615110565b91505092915050565b7f426f6e64206973206e6f7420636f6d706c657465640000000000000000000000600082015250565b6000615387601583614186565b915061539282615351565b602082019050919050565b600060208201905081810360008301526153b68161537a565b9050919050565b7f496e73756666696369656e7420626f6e64207175616e74697479000000000000600082015250565b60006153f3601a83614186565b91506153fe826153bd565b602082019050919050565b60006020820190508181036000830152615422816153e6565b9050919050565b7f426f6e64206973206e6f742064656661756c7465640000000000000000000000600082015250565b600061545f601583614186565b915061546a82615429565b602082019050919050565b6000602082019050818103600083015261548e81615452565b9050919050565b60006060820190506154aa6000830186614069565b6154b76020830185614069565b6154c46040830184614069565b949350505050565b7f426f6e64206973206e6f742063616e63656c6564000000000000000000000000600082015250565b6000615502601483614186565b915061550d826154cc565b602082019050919050565b60006020820190508181036000830152615531816154f5565b9050919050565b600060408201905061554d6000830185614069565b61555a6020830184614069565b9392505050565b7f626f6e642069732064656661756c746564000000000000000000000000000000600082015250565b6000615597601183614186565b91506155a282615561565b602082019050919050565b600060208201905081810360008301526155c68161558a565b9050919050565b7f626f6e6420697320636f6d706c65746564000000000000000000000000000000600082015250565b6000615603601183614186565b915061560e826155cd565b602082019050919050565b60006020820190508181036000830152615632816155f6565b9050919050565b7f43616e6e6f742077697468647261772065786365737300000000000000000000600082015250565b600061566f601683614186565b915061567a82615639565b602082019050919050565b6000602082019050818103600083015261569e81615662565b9050919050565b7f43616e6e6f742077697468647261772066726f6d20656d70747920706f6f6c00600082015250565b60006156db601f83614186565b91506156e6826156a5565b602082019050919050565b6000602082019050818103600083015261570a816156ce565b9050919050565b7f416374697665206475726174696f6e2073686f756c642062652073686f72746560008201527f72207468616e206475726174696f6e0000000000000000000000000000000000602082015250565b600061576d602f83614186565b915061577882615711565b604082019050919050565b6000602082019050818103600083015261579c81615760565b9050919050565b60008190508160005260206000209050919050565b60006020601f8301049050919050565b600082821b905092915050565b6000600883026158057fffffffffffffffffffffffffffffffffffffffffffffffffffffffffffffffff826157c8565b61580f86836157c8565b95508019841693508086168417925050509392505050565b6000819050919050565b600061584c61584761584284613ff3565b615827565b613ff3565b9050919050565b6000819050919050565b61586683615831565b61587a61587282615853565b8484546157d5565b825550505050565b600090565b61588f615882565b61589a81848461585d565b505050565b5b818110156158be576158b3600082615887565b6001810190506158a0565b5050565b601f821115615903576158d4816157a3565b6158dd846157b8565b810160208510156158ec578190505b6159006158f8856157b8565b83018261589f565b50505b505050565b600082821c905092915050565b600061592660001984600802615908565b1980831691505092915050565b600061593f8383615915565b9150826002028217905092915050565b6159588261417b565b67ffffffffffffffff81111561597157615970614232565b5b61597b8254614bbe565b6159868282856158c2565b600060209050601f8311600181146159b957600084156159a7578287015190505b6159b18582615933565b865550615a19565b601f1984166159c7866157a3565b60005b828110156159ef578489015182556001820191506020850194506020810190506159ca565b86831015615a0c5784890151615a08601f891682615915565b8355505b6001600288020188555050505b505050505050565b600060a082019050615a366000830188614069565b615a436020830187614069565b615a506040830186614069565b615a5d6060830185614069565b615a6a6080830184614069565b9695505050505050565b7f455243313135353a2069647320616e6420616d6f756e7473206c656e6774682060008201527f6d69736d61746368000000000000000000000000000000000000000000000000602082015250565b6000615ad0602883614186565b9150615adb82615a74565b604082019050919050565b60006020820190508181036000830152615aff81615ac3565b9050919050565b7f455243313135353a207472616e7366657220746f20746865207a65726f20616460008201527f6472657373000000000000000000000000000000000000000000000000000000602082015250565b6000615b62602583614186565b9150615b6d82615b06565b604082019050919050565b60006020820190508181036000830152615b9181615b55565b9050919050565b7f455243313135353a20696e73756666696369656e742062616c616e636520666f60008201527f72207472616e7366657200000000000000000000000000000000000000000000602082015250565b6000615bf4602a83614186565b9150615bff82615b98565b604082019050919050565b60006020820190508181036000830152615c2381615be7565b9050919050565b60006040820190508181036000830152615c4481856146d4565b90508181036020830152615c5881846146d4565b90509392505050565b7f455243313135353a206275726e2066726f6d20746865207a65726f206164647260008201527f6573730000000000000000000000000000000000000000000000000000000000602082015250565b6000615cbd602383614186565b9150615cc882615c61565b604082019050919050565b60006020820190508181036000830152615cec81615cb0565b9050919050565b7f455243313135353a206275726e20616d6f756e7420657863656564732062616c60008201527f616e636500000000000000000000000000000000000000000000000000000000602082015250565b6000615d4f602483614186565b9150615d5a82615cf3565b604082019050919050565b60006020820190508181036000830152615d7e81615d42565b9050919050565b7f455243313135353a2073657474696e6720617070726f76616c2073746174757360008201527f20666f722073656c660000000000000000000000000000000000000000000000602082015250565b6000615de1602983614186565b9150615dec82615d85565b604082019050919050565b60006020820190508181036000830152615e1081615dd4565b9050919050565b7f455243313135353a206d696e7420746f20746865207a65726f2061646472657360008201527f7300000000000000000000000000000000000000000000000000000000000000602082015250565b6000615e73602183614186565b9150615e7e82615e17565b604082019050919050565b60006020820190508181036000830152615ea281615e66565b9050919050565b600081519050919050565b600082825260208201905092915050565b6000615ed082615ea9565b615eda8185615eb4565b9350615eea818560208601614197565b615ef3816141c1565b840191505092915050565b600060a082019050615f136000830188614ebf565b615f206020830187614ebf565b8181036040830152615f3281866146d4565b90508181036060830152615f4681856146d4565b90508181036080830152615f5a8184615ec5565b90509695505050505050565b600081519050615f75816140bf565b92915050565b600060208284031215615f9157615f90613f8b565b5b6000615f9f84828501615f66565b91505092915050565b60008160e01c9050919050565b600060033d1115615fd45760046000803e615fd1600051615fa8565b90505b90565b600060443d1061606457615fe9613f81565b60043d036004823e80513d602482011167ffffffffffffffff82111715616011575050616064565b808201805167ffffffffffffffff81111561602f5750505050616064565b80602083010160043d03850181111561604c575050505050616064565b61605b82602001850186614261565b82955050505050505b90565b7f455243313135353a207472616e7366657220746f206e6f6e2d4552433131353560008201527f526563656976657220696d706c656d656e746572000000000000000000000000602082015250565b60006160c3603483614186565b91506160ce82616067565b604082019050919050565b600060208201905081810360008301526160f2816160b6565b9050919050565b7f455243313135353a204552433131353552656365697665722072656a6563746560008201527f6420746f6b656e73000000000000000000000000000000000000000000000000602082015250565b6000616155602883614186565b9150616160826160f9565b604082019050919050565b6000602082019050818103600083015261618481616148565b9050919050565b600060a0820190506161a06000830188614ebf565b6161ad6020830187614ebf565b6161ba6040830186614069565b6161c76060830185614069565b81810360808301526161d98184615ec5565b9050969550505050505056fea2646970667358221220daf4e7e80301e21fe414bf875ae5a557e8c190fe70e79686bb39ef386ef0448b64736f6c63430008110033",
  "linkReferences": {},
  "deployedLinkReferences": {}
}