{
  "_format": "hh-sol-artifact-1",
  "contractName": "DualCurrencyBondFactory",
  "sourceName": "contracts/DualCurrencyBondFactory.sol",
  "abi": [
    {
      "inputs": [
        {
          "internalType": "string",
          "name": "uri",
          "type": "string"
        },
        {
          "internalType": "address",
          "name": "tokenA",
          "type": "address"
        },
        {
          "internalType": "address",
          "name": "tokenB",
          "type": "address"
        },
        {
          "internalType": "address",
          "name": "priceFeedA",
          "type": "address"
        },
        {
          "internalType": "address",
          "name": "priceFeedB",
          "type": "address"
        }
      ],
      "stateMutability": "nonpayable",
      "type": "constructor"
    },
    {
      "anonymous": false,
      "inputs": [
        {
          "indexed": true,
          "internalType": "address",
          "name": "account",
          "type": "address"
        },
        {
          "indexed": true,
          "internalType": "address",
          "name": "operator",
          "type": "address"
        },
        {
          "indexed": false,
          "internalType": "bool",
          "name": "approved",
          "type": "bool"
        }
      ],
      "name": "ApprovalForAll",
      "type": "event"
    },
    {
      "anonymous": false,
      "inputs": [
        {
          "indexed": true,
          "internalType": "uint256",
          "name": "id",
          "type": "uint256"
        },
        {
          "indexed": false,
          "internalType": "uint256",
          "name": "totalDebt",
          "type": "uint256"
        },
        {
          "indexed": false,
          "internalType": "uint256",
          "name": "paidDebt",
          "type": "uint256"
        }
      ],
      "name": "Completed",
      "type": "event"
    },
    {
      "anonymous": false,
      "inputs": [
        {
          "indexed": true,
          "internalType": "uint256",
          "name": "id",
          "type": "uint256"
        },
        {
          "indexed": false,
          "internalType": "uint256",
          "name": "totalDebt",
          "type": "uint256"
        },
        {
          "indexed": false,
          "internalType": "uint256",
          "name": "paidDebtA",
          "type": "uint256"
        },
        {
          "indexed": false,
          "internalType": "uint256",
          "name": "paidDebtB",
          "type": "uint256"
        }
      ],
      "name": "Defaulted",
      "type": "event"
    },
    {
      "anonymous": false,
      "inputs": [
        {
          "indexed": true,
          "internalType": "uint256",
          "name": "id",
          "type": "uint256"
        },
        {
          "indexed": false,
          "internalType": "uint256",
          "name": "bondQuantity",
          "type": "uint256"
        },
        {
          "indexed": false,
          "internalType": "uint256",
          "name": "tokenAAmountPerBond",
          "type": "uint256"
        },
        {
          "indexed": false,
          "internalType": "uint256",
          "name": "tokenBAmountPerBond",
          "type": "uint256"
        },
        {
          "indexed": false,
          "internalType": "uint256",
          "name": "couponRate",
          "type": "uint256"
        }
      ],
      "name": "Issued",
      "type": "event"
    },
    {
      "anonymous": false,
      "inputs": [
        {
          "indexed": true,
          "internalType": "address",
          "name": "operator",
          "type": "address"
        },
        {
          "indexed": true,
          "internalType": "address",
          "name": "from",
          "type": "address"
        },
        {
          "indexed": true,
          "internalType": "address",
          "name": "to",
          "type": "address"
        },
        {
          "indexed": false,
          "internalType": "uint256[]",
          "name": "ids",
          "type": "uint256[]"
        },
        {
          "indexed": false,
          "internalType": "uint256[]",
          "name": "values",
          "type": "uint256[]"
        }
      ],
      "name": "TransferBatch",
      "type": "event"
    },
    {
      "anonymous": false,
      "inputs": [
        {
          "indexed": true,
          "internalType": "address",
          "name": "operator",
          "type": "address"
        },
        {
          "indexed": true,
          "internalType": "address",
          "name": "from",
          "type": "address"
        },
        {
          "indexed": true,
          "internalType": "address",
          "name": "to",
          "type": "address"
        },
        {
          "indexed": false,
          "internalType": "uint256",
          "name": "id",
          "type": "uint256"
        },
        {
          "indexed": false,
          "internalType": "uint256",
          "name": "value",
          "type": "uint256"
        }
      ],
      "name": "TransferSingle",
      "type": "event"
    },
    {
      "anonymous": false,
      "inputs": [
        {
          "indexed": false,
          "internalType": "string",
          "name": "value",
          "type": "string"
        },
        {
          "indexed": true,
          "internalType": "uint256",
          "name": "id",
          "type": "uint256"
        }
      ],
      "name": "URI",
      "type": "event"
    },
    {
      "inputs": [
        {
          "internalType": "address",
          "name": "account",
          "type": "address"
        },
        {
          "internalType": "uint256",
          "name": "id",
          "type": "uint256"
        }
      ],
      "name": "balanceOf",
      "outputs": [
        {
          "internalType": "uint256",
          "name": "",
          "type": "uint256"
        }
      ],
      "stateMutability": "view",
      "type": "function"
    },
    {
      "inputs": [
        {
          "internalType": "address[]",
          "name": "accounts",
          "type": "address[]"
        },
        {
          "internalType": "uint256[]",
          "name": "ids",
          "type": "uint256[]"
        }
      ],
      "name": "balanceOfBatch",
      "outputs": [
        {
          "internalType": "uint256[]",
          "name": "",
          "type": "uint256[]"
        }
      ],
      "stateMutability": "view",
      "type": "function"
    },
    {
      "inputs": [
        {
          "internalType": "uint256",
          "name": "id",
          "type": "uint256"
        }
      ],
      "name": "bondmetaData",
      "outputs": [
        {
          "internalType": "string",
          "name": "",
          "type": "string"
        },
        {
          "internalType": "uint256",
          "name": "",
          "type": "uint256"
        },
        {
          "internalType": "uint256",
          "name": "",
          "type": "uint256"
        },
        {
          "internalType": "uint256",
          "name": "",
          "type": "uint256"
        },
        {
          "internalType": "uint256",
          "name": "",
          "type": "uint256"
        },
        {
          "internalType": "uint256",
          "name": "",
          "type": "uint256"
        },
        {
          "internalType": "uint256",
          "name": "",
          "type": "uint256"
        },
        {
          "internalType": "uint256",
          "name": "",
          "type": "uint256"
        },
        {
          "internalType": "uint256",
          "name": "",
          "type": "uint256"
        },
        {
          "internalType": "uint256",
          "name": "",
          "type": "uint256"
        },
        {
          "internalType": "uint256",
          "name": "",
          "type": "uint256"
        }
      ],
      "stateMutability": "view",
      "type": "function"
    },
    {
      "inputs": [
        {
          "internalType": "uint256",
          "name": "id",
          "type": "uint256"
        }
      ],
      "name": "couponRate",
      "outputs": [
        {
          "internalType": "uint256",
          "name": "",
          "type": "uint256"
        }
      ],
      "stateMutability": "view",
      "type": "function"
    },
    {
      "inputs": [
        {
          "internalType": "uint256",
          "name": "id",
          "type": "uint256"
        },
        {
          "internalType": "uint256",
          "name": "tokenAmount",
          "type": "uint256"
        }
      ],
      "name": "deposit",
      "outputs": [],
      "stateMutability": "nonpayable",
      "type": "function"
    },
    {
      "inputs": [],
      "name": "getAtoBExchangeRate",
      "outputs": [
        {
          "internalType": "uint256",
          "name": "",
          "type": "uint256"
        }
      ],
      "stateMutability": "view",
      "type": "function"
    },
    {
      "inputs": [],
      "name": "getLatestPriceA",
      "outputs": [
        {
          "internalType": "int256",
          "name": "",
          "type": "int256"
        }
      ],
      "stateMutability": "view",
      "type": "function"
    },
    {
      "inputs": [],
      "name": "getLatestPriceB",
      "outputs": [
        {
          "internalType": "int256",
          "name": "",
          "type": "int256"
        }
      ],
      "stateMutability": "view",
      "type": "function"
    },
    {
      "inputs": [
        {
          "internalType": "uint256",
          "name": "id",
          "type": "uint256"
        }
      ],
      "name": "hasReachedMaturity",
      "outputs": [
        {
          "internalType": "bool",
          "name": "",
          "type": "bool"
        }
      ],
      "stateMutability": "view",
      "type": "function"
    },
    {
      "inputs": [
        {
          "internalType": "uint256",
          "name": "id",
          "type": "uint256"
        }
      ],
      "name": "isActive",
      "outputs": [
        {
          "internalType": "bool",
          "name": "",
          "type": "bool"
        }
      ],
      "stateMutability": "view",
      "type": "function"
    },
    {
      "inputs": [
        {
          "internalType": "address",
          "name": "account",
          "type": "address"
        },
        {
          "internalType": "address",
          "name": "operator",
          "type": "address"
        }
      ],
      "name": "isApprovedForAll",
      "outputs": [
        {
          "internalType": "bool",
          "name": "",
          "type": "bool"
        }
      ],
      "stateMutability": "view",
      "type": "function"
    },
    {
      "inputs": [
        {
          "internalType": "uint256",
          "name": "id",
          "type": "uint256"
        }
      ],
      "name": "isCanceled",
      "outputs": [
        {
          "internalType": "bool",
          "name": "",
          "type": "bool"
        }
      ],
      "stateMutability": "view",
      "type": "function"
    },
    {
      "inputs": [
        {
          "internalType": "uint256",
          "name": "id",
          "type": "uint256"
        }
      ],
      "name": "isCompleted",
      "outputs": [
        {
          "internalType": "bool",
          "name": "",
          "type": "bool"
        }
      ],
      "stateMutability": "view",
      "type": "function"
    },
    {
      "inputs": [
        {
          "internalType": "uint256",
          "name": "id",
          "type": "uint256"
        }
      ],
      "name": "isCompletedInTheory",
      "outputs": [
        {
          "internalType": "bool",
          "name": "",
          "type": "bool"
        }
      ],
      "stateMutability": "view",
      "type": "function"
    },
    {
      "inputs": [
        {
          "internalType": "uint256",
          "name": "id",
          "type": "uint256"
        }
      ],
      "name": "isDefaulted",
      "outputs": [
        {
          "internalType": "bool",
          "name": "",
          "type": "bool"
        }
      ],
      "stateMutability": "view",
      "type": "function"
    },
    {
      "inputs": [
        {
          "internalType": "uint256",
          "name": "id",
          "type": "uint256"
        }
      ],
      "name": "isDefaultedInTheory",
      "outputs": [
        {
          "internalType": "bool",
          "name": "",
          "type": "bool"
        }
      ],
      "stateMutability": "view",
      "type": "function"
    },
    {
      "inputs": [
        {
          "internalType": "uint256",
          "name": "id",
          "type": "uint256"
        }
      ],
      "name": "isFulfilled",
      "outputs": [
        {
          "internalType": "bool",
          "name": "",
          "type": "bool"
        }
      ],
      "stateMutability": "view",
      "type": "function"
    },
    {
      "inputs": [
        {
          "internalType": "uint256",
          "name": "id",
          "type": "uint256"
        }
      ],
      "name": "isFullyRedeemed",
      "outputs": [
        {
          "internalType": "bool",
          "name": "",
          "type": "bool"
        }
      ],
      "stateMutability": "view",
      "type": "function"
    },
    {
      "inputs": [
        {
          "internalType": "uint256",
          "name": "bondQuantity",
          "type": "uint256"
        },
        {
          "internalType": "uint256",
          "name": "minPurchasedQuantity",
          "type": "uint256"
        },
        {
          "internalType": "uint256",
          "name": "tokenAAmountPerBond",
          "type": "uint256"
        },
        {
          "internalType": "string",
          "name": "ticker",
          "type": "string"
        },
        {
          "internalType": "uint256",
          "name": "durationDays",
          "type": "uint256"
        },
        {
          "internalType": "uint256",
          "name": "activeDurationInDays",
          "type": "uint256"
        },
        {
          "internalType": "uint256",
          "name": "rate",
          "type": "uint256"
        },
        {
          "internalType": "bytes",
          "name": "data",
          "type": "bytes"
        }
      ],
      "name": "issue",
      "outputs": [
        {
          "internalType": "uint256",
          "name": "id",
          "type": "uint256"
        }
      ],
      "stateMutability": "nonpayable",
      "type": "function"
    },
    {
      "inputs": [
        {
          "internalType": "uint256",
          "name": "id",
          "type": "uint256"
        }
      ],
      "name": "markAsCompleted",
      "outputs": [],
      "stateMutability": "nonpayable",
      "type": "function"
    },
    {
      "inputs": [
        {
          "internalType": "uint256",
          "name": "id",
          "type": "uint256"
        }
      ],
      "name": "markAsDefaulted",
      "outputs": [],
      "stateMutability": "nonpayable",
      "type": "function"
    },
    {
      "inputs": [
        {
          "internalType": "uint256",
          "name": "id",
          "type": "uint256"
        }
      ],
      "name": "poolAAmount",
      "outputs": [
        {
          "internalType": "uint256",
          "name": "",
          "type": "uint256"
        }
      ],
      "stateMutability": "view",
      "type": "function"
    },
    {
      "inputs": [
        {
          "internalType": "uint256",
          "name": "id",
          "type": "uint256"
        }
      ],
      "name": "poolBAmount",
      "outputs": [
        {
          "internalType": "uint256",
          "name": "",
          "type": "uint256"
        }
      ],
      "stateMutability": "view",
      "type": "function"
    },
    {
      "inputs": [
        {
          "internalType": "uint256",
          "name": "id",
          "type": "uint256"
        }
      ],
      "name": "principal",
      "outputs": [
        {
          "internalType": "uint256",
          "name": "",
          "type": "uint256"
        }
      ],
      "stateMutability": "view",
      "type": "function"
    },
    {
      "inputs": [
        {
          "internalType": "uint256",
          "name": "id",
          "type": "uint256"
        }
      ],
      "name": "principalWithInterest",
      "outputs": [
        {
          "internalType": "uint256",
          "name": "",
          "type": "uint256"
        }
      ],
      "stateMutability": "view",
      "type": "function"
    },
    {
      "inputs": [
        {
          "internalType": "uint256",
          "name": "id",
          "type": "uint256"
        },
        {
          "internalType": "uint256",
          "name": "bondQuantity",
          "type": "uint256"
        }
      ],
      "name": "purchase",
      "outputs": [],
      "stateMutability": "nonpayable",
      "type": "function"
    },
    {
      "inputs": [
        {
          "internalType": "uint256",
          "name": "id",
          "type": "uint256"
        },
        {
          "internalType": "uint256",
          "name": "bondQuantity",
          "type": "uint256"
        }
      ],
      "name": "redeem",
      "outputs": [],
      "stateMutability": "nonpayable",
      "type": "function"
    },
    {
      "inputs": [
        {
          "internalType": "uint256",
          "name": "id",
          "type": "uint256"
        },
        {
          "internalType": "uint256",
          "name": "bondQuantity",
          "type": "uint256"
        }
      ],
      "name": "redeemCanceled",
      "outputs": [],
      "stateMutability": "nonpayable",
      "type": "function"
    },
    {
      "inputs": [
        {
          "internalType": "uint256",
          "name": "id",
          "type": "uint256"
        },
        {
          "internalType": "uint256",
          "name": "bondQuantity",
          "type": "uint256"
        }
      ],
      "name": "redeemDefaulted",
      "outputs": [],
      "stateMutability": "nonpayable",
      "type": "function"
    },
    {
      "inputs": [
        {
          "internalType": "uint256",
          "name": "id",
          "type": "uint256"
        }
      ],
      "name": "remainingQuantity",
      "outputs": [
        {
          "internalType": "uint256",
          "name": "",
          "type": "uint256"
        }
      ],
      "stateMutability": "view",
      "type": "function"
    },
    {
      "inputs": [
        {
          "internalType": "address",
          "name": "from",
          "type": "address"
        },
        {
          "internalType": "address",
          "name": "to",
          "type": "address"
        },
        {
          "internalType": "uint256[]",
          "name": "ids",
          "type": "uint256[]"
        },
        {
          "internalType": "uint256[]",
          "name": "amounts",
          "type": "uint256[]"
        },
        {
          "internalType": "bytes",
          "name": "data",
          "type": "bytes"
        }
      ],
      "name": "safeBatchTransferFrom",
      "outputs": [],
      "stateMutability": "nonpayable",
      "type": "function"
    },
    {
      "inputs": [
        {
          "internalType": "address",
          "name": "from",
          "type": "address"
        },
        {
          "internalType": "address",
          "name": "to",
          "type": "address"
        },
        {
          "internalType": "uint256",
          "name": "id",
          "type": "uint256"
        },
        {
          "internalType": "uint256",
          "name": "amount",
          "type": "uint256"
        },
        {
          "internalType": "bytes",
          "name": "data",
          "type": "bytes"
        }
      ],
      "name": "safeTransferFrom",
      "outputs": [],
      "stateMutability": "nonpayable",
      "type": "function"
    },
    {
      "inputs": [
        {
          "internalType": "address",
          "name": "operator",
          "type": "address"
        },
        {
          "internalType": "bool",
          "name": "approved",
          "type": "bool"
        }
      ],
      "name": "setApprovalForAll",
      "outputs": [],
      "stateMutability": "nonpayable",
      "type": "function"
    },
    {
      "inputs": [
        {
          "internalType": "bytes4",
          "name": "interfaceId",
          "type": "bytes4"
        }
      ],
      "name": "supportsInterface",
      "outputs": [
        {
          "internalType": "bool",
          "name": "",
          "type": "bool"
        }
      ],
      "stateMutability": "view",
      "type": "function"
    },
    {
      "inputs": [
        {
          "internalType": "uint256",
          "name": "id",
          "type": "uint256"
        }
      ],
      "name": "timeElapsed",
      "outputs": [
        {
          "internalType": "uint256",
          "name": "",
          "type": "uint256"
        }
      ],
      "stateMutability": "view",
      "type": "function"
    },
    {
      "inputs": [
        {
          "internalType": "uint256",
          "name": "id",
          "type": "uint256"
        }
      ],
      "name": "timeRemainingToEndOfActive",
      "outputs": [
        {
          "internalType": "uint256",
          "name": "",
          "type": "uint256"
        }
      ],
      "stateMutability": "view",
      "type": "function"
    },
    {
      "inputs": [
        {
          "internalType": "uint256",
          "name": "id",
          "type": "uint256"
        }
      ],
      "name": "timeRemainingToMaturity",
      "outputs": [
        {
          "internalType": "uint256",
          "name": "",
          "type": "uint256"
        }
      ],
      "stateMutability": "view",
      "type": "function"
    },
    {
      "inputs": [],
      "name": "tvlA",
      "outputs": [
        {
          "internalType": "uint256",
          "name": "",
          "type": "uint256"
        }
      ],
      "stateMutability": "view",
      "type": "function"
    },
    {
      "inputs": [],
      "name": "tvlB",
      "outputs": [
        {
          "internalType": "uint256",
          "name": "",
          "type": "uint256"
        }
      ],
      "stateMutability": "view",
      "type": "function"
    },
    {
      "inputs": [
        {
          "internalType": "uint256",
          "name": "",
          "type": "uint256"
        }
      ],
      "name": "uri",
      "outputs": [
        {
          "internalType": "string",
          "name": "",
          "type": "string"
        }
      ],
      "stateMutability": "view",
      "type": "function"
    },
    {
      "inputs": [
        {
          "internalType": "uint256",
          "name": "id",
          "type": "uint256"
        },
        {
          "internalType": "uint256",
          "name": "tokenAmount",
          "type": "uint256"
        }
      ],
      "name": "withdraw",
      "outputs": [],
      "stateMutability": "nonpayable",
      "type": "function"
    },
    {
      "inputs": [
        {
          "internalType": "uint256",
          "name": "id",
          "type": "uint256"
        }
      ],
      "name": "withdrawExcess",
      "outputs": [],
      "stateMutability": "nonpayable",
      "type": "function"
    }
  ],
  "bytecode": "0x60e060405260006005553480156200001657600080fd5b506040516200696a3803806200696a83398181016040528101906200003c919062000385565b846200004e816200017860201b60201c565b503373ffffffffffffffffffffffffffffffffffffffff1660808173ffffffffffffffffffffffffffffffffffffffff16815250508373ffffffffffffffffffffffffffffffffffffffff1660a08173ffffffffffffffffffffffffffffffffffffffff16815250508273ffffffffffffffffffffffffffffffffffffffff1660c08173ffffffffffffffffffffffffffffffffffffffff168152505081600360006101000a81548173ffffffffffffffffffffffffffffffffffffffff021916908373ffffffffffffffffffffffffffffffffffffffff16021790555080600460006101000a81548173ffffffffffffffffffffffffffffffffffffffff021916908373ffffffffffffffffffffffffffffffffffffffff16021790555050505050506200075e565b806002908162000189919062000677565b5050565b6000604051905090565b600080fd5b600080fd5b600080fd5b600080fd5b6000601f19601f8301169050919050565b7f4e487b7100000000000000000000000000000000000000000000000000000000600052604160045260246000fd5b620001f682620001ab565b810181811067ffffffffffffffff82111715620002185762000217620001bc565b5b80604052505050565b60006200022d6200018d565b90506200023b8282620001eb565b919050565b600067ffffffffffffffff8211156200025e576200025d620001bc565b5b6200026982620001ab565b9050602081019050919050565b60005b838110156200029657808201518184015260208101905062000279565b60008484015250505050565b6000620002b9620002b38462000240565b62000221565b905082815260208101848484011115620002d857620002d7620001a6565b5b620002e584828562000276565b509392505050565b600082601f830112620003055762000304620001a1565b5b815162000317848260208601620002a2565b91505092915050565b600073ffffffffffffffffffffffffffffffffffffffff82169050919050565b60006200034d8262000320565b9050919050565b6200035f8162000340565b81146200036b57600080fd5b50565b6000815190506200037f8162000354565b92915050565b600080600080600060a08688031215620003a457620003a362000197565b5b600086015167ffffffffffffffff811115620003c557620003c46200019c565b5b620003d388828901620002ed565b9550506020620003e6888289016200036e565b9450506040620003f9888289016200036e565b93505060606200040c888289016200036e565b92505060806200041f888289016200036e565b9150509295509295909350565b600081519050919050565b7f4e487b7100000000000000000000000000000000000000000000000000000000600052602260045260246000fd5b600060028204905060018216806200047f57607f821691505b60208210810362000495576200049462000437565b5b50919050565b60008190508160005260206000209050919050565b60006020601f8301049050919050565b600082821b905092915050565b600060088302620004ff7fffffffffffffffffffffffffffffffffffffffffffffffffffffffffffffffff82620004c0565b6200050b8683620004c0565b95508019841693508086168417925050509392505050565b6000819050919050565b6000819050919050565b600062000558620005526200054c8462000523565b6200052d565b62000523565b9050919050565b6000819050919050565b620005748362000537565b6200058c62000583826200055f565b848454620004cd565b825550505050565b600090565b620005a362000594565b620005b081848462000569565b505050565b5b81811015620005d857620005cc60008262000599565b600181019050620005b6565b5050565b601f8211156200062757620005f1816200049b565b620005fc84620004b0565b810160208510156200060c578190505b620006246200061b85620004b0565b830182620005b5565b50505b505050565b600082821c905092915050565b60006200064c600019846008026200062c565b1980831691505092915050565b600062000667838362000639565b9150826002028217905092915050565b62000682826200042c565b67ffffffffffffffff8111156200069e576200069d620001bc565b5b620006aa825462000466565b620006b7828285620005dc565b600060209050601f831160018114620006ef5760008415620006da578287015190505b620006e6858262000659565b86555062000756565b601f198416620006ff866200049b565b60005b82811015620007295784890151825560018201915060208501945060208101905062000702565b8683101562000749578489015162000745601f89168262000639565b8355505b6001600288020188555050505b505050505050565b60805160a05160c05161617a620007f060003960008181611615015281816117a001528181611c5e01528181611ef30152818161232f015281816129e30152612bde015260008181610f200152818161144801528181611bbf01528181611e54015281816120fb0152612d29015260008181610d2701528181612412015281816128890152612a88015261617a6000f3fe608060405234801561001057600080fd5b506004361061025d5760003560e01c80637a41984b11610146578063abac75e1116100c3578063d3b7811b11610087578063d3b7811b14610830578063e2bbb15814610860578063e755ddd71461087c578063e985e9c514610898578063f0f3d7de146108c8578063f242432a146108e65761025d565b8063abac75e11461075e578063b09f2b1c1461078e578063c0a6026c146107aa578063c7bc5730146107c6578063d32fe02e146107f65761025d565b80638f0dbf771161010a5780638f0dbf77146106aa578063932a8de0146106da578063a22cb4651461070a578063a874302214610726578063a996ef08146107425761025d565b80637a41984b146105e05780637bf24456146106105780637cbc23731461062e57806382afd23b1461064a57806388bdc0831461067a5761025d565b806339e3af9b116101df578063634ef303116101a3578063634ef303146104f857806364893aaf146105165780636ff80d931461054657806370876c9814610576578063769d96eb1461059257806377e2a08b146105b05761025d565b806339e3af9b1461042e578063441a3e701461045e5780634556e49b1461047a5780634e1273f414610498578063549493bb146104c85761025d565b806314f294931161022657806314f29493146103525780632eb2c2d6146103825780632f2c6b321461039e5780632f3ad61f146103ce5780633097afb8146103fe5761025d565b8062fdd58e1461026257806301ffc9a71461029257806308913ce8146102c257806309149020146102f25780630e89341c14610322575b600080fd5b61027c60048036038101906102779190613efa565b610902565b6040516102899190613f49565b60405180910390f35b6102ac60048036038101906102a79190613fbc565b6109ca565b6040516102b99190614004565b60405180910390f35b6102dc60048036038101906102d7919061401f565b610aac565b6040516102e99190613f49565b60405180910390f35b61030c6004803603810190610307919061401f565b610ad7565b6040516103199190614004565b60405180910390f35b61033c6004803603810190610337919061401f565b610b0d565b60405161034991906140dc565b60405180910390f35b61036c6004803603810190610367919061401f565b610ba1565b6040516103799190613f49565b60405180910390f35b61039c600480360381019061039791906142fb565b610bdf565b005b6103b860048036038101906103b3919061401f565b610c80565b6040516103c59190613f49565b60405180910390f35b6103e860048036038101906103e3919061401f565b610c9d565b6040516103f59190614004565b60405180910390f35b6104186004803603810190610413919061401f565b610cc7565b6040516104259190614004565b60405180910390f35b6104486004803603810190610443919061401f565b610d00565b6040516104559190614004565b60405180910390f35b610478600480360381019061047391906143ca565b610d25565b005b610482610fc1565b60405161048f9190613f49565b60405180910390f35b6104b260048036038101906104ad91906144cd565b610ff1565b6040516104bf9190614603565b60405180910390f35b6104e260048036038101906104dd919061401f565b61110a565b6040516104ef9190614004565b60405180910390f35b61050061113c565b60405161050d919061463e565b60405180910390f35b610530600480360381019061052b919061401f565b6111dd565b60405161053d9190613f49565b60405180910390f35b610560600480360381019061055b919061401f565b6111fa565b60405161056d9190614004565b60405180910390f35b610590600480360381019061058b91906143ca565b611232565b005b61059a6114ed565b6040516105a7919061463e565b60405180910390f35b6105ca60048036038101906105c5919061401f565b61158e565b6040516105d79190613f49565b60405180910390f35b6105fa60048036038101906105f5919061401f565b6115e7565b6040516106079190614004565b60405180910390f35b610618611611565b6040516106259190613f49565b60405180910390f35b610648600480360381019061064391906143ca565b6116b2565b005b610664600480360381019061065f919061401f565b61186c565b6040516106719190614004565b60405180910390f35b610694600480360381019061068f919061401f565b61188f565b6040516106a19190613f49565b60405180910390f35b6106c460048036038101906106bf919061401f565b6118c2565b6040516106d19190614004565b60405180910390f35b6106f460048036038101906106ef919061401f565b6118e4565b6040516107019190613f49565b60405180910390f35b610724600480360381019061071f9190614685565b611922565b005b610740600480360381019061073b919061401f565b611938565b005b61075c600480360381019061075791906143ca565b611d43565b005b6107786004803603810190610773919061401f565b611fea565b6040516107859190613f49565b60405180910390f35b6107a860048036038101906107a391906143ca565b61200a565b005b6107c460048036038101906107bf919061401f565b6121c7565b005b6107e060048036038101906107db9190614720565b61240e565b6040516107ed9190613f49565b60405180910390f35b610810600480360381019061080b919061401f565b6126ca565b6040516108279b9a99989796959493929190614812565b60405180910390f35b61084a6004803603810190610845919061401f565b612854565b6040516108579190613f49565b60405180910390f35b61087a600480360381019061087591906143ca565b612887565b005b6108966004803603810190610891919061401f565b612a86565b005b6108b260048036038101906108ad91906148c4565b612c91565b6040516108bf9190614004565b60405180910390f35b6108d0612d25565b6040516108dd9190613f49565b60405180910390f35b61090060048036038101906108fb9190614904565b612dc6565b005b60008073ffffffffffffffffffffffffffffffffffffffff168373ffffffffffffffffffffffffffffffffffffffff1603610972576040517f08c379a000000000000000000000000000000000000000000000000000000000815260040161096990614a0d565b60405180910390fd5b60008083815260200190815260200160002060008473ffffffffffffffffffffffffffffffffffffffff1673ffffffffffffffffffffffffffffffffffffffff16815260200190815260200160002054905092915050565b60007fd9b67a26000000000000000000000000000000000000000000000000000000007bffffffffffffffffffffffffffffffffffffffffffffffffffffffff1916827bffffffffffffffffffffffffffffffffffffffffffffffffffffffff19161480610a9557507f0e89341c000000000000000000000000000000000000000000000000000000007bffffffffffffffffffffffffffffffffffffffffffffffffffffffff1916827bffffffffffffffffffffffffffffffffffffffffffffffffffffffff1916145b80610aa55750610aa482612e67565b5b9050919050565b6000600660008381526020019081526020016000206003015442610ad09190614a5c565b9050919050565b60006006600083815260200190815260200160002060090154600760008481526020019081526020016000205410159050919050565b606060028054610b1c90614abf565b80601f0160208091040260200160405190810160405280929190818152602001828054610b4890614abf565b8015610b955780601f10610b6a57610100808354040283529160200191610b95565b820191906000526020600020905b815481529060010190602001808311610b7857829003601f168201915b50505050509050919050565b600060076000838152602001908152602001600020546006600084815260200190815260200160002060020154610bd89190614af0565b9050919050565b610be7612ed1565b73ffffffffffffffffffffffffffffffffffffffff168573ffffffffffffffffffffffffffffffffffffffff161480610c2d5750610c2c85610c27612ed1565b612c91565b5b610c6c576040517f08c379a0000000000000000000000000000000000000000000000000000000008152600401610c6390614ba4565b60405180910390fd5b610c798585858585612ed9565b5050505050565b600060096000838152602001908152602001600020549050919050565b6000600e600083815260200190815260200160002060009054906101000a900460ff169050919050565b6000610cd2826118c2565b8015610cf95750610ce28261158e565b600a60008481526020019081526020016000205410155b9050919050565b6000610d0b8261186c565b158015610d1e5750610d1c82610ad7565b155b9050919050565b7f000000000000000000000000000000000000000000000000000000000000000073ffffffffffffffffffffffffffffffffffffffff163373ffffffffffffffffffffffffffffffffffffffff1614610db3576040517f08c379a0000000000000000000000000000000000000000000000000000000008152600401610daa90614c10565b60405180910390fd5b610dbc8261186c565b15610dfc576040517f08c379a0000000000000000000000000000000000000000000000000000000008152600401610df390614c7c565b60405180910390fd5b610e0582610d00565b15610e45576040517f08c379a0000000000000000000000000000000000000000000000000000000008152600401610e3c90614c7c565b60405180910390fd5b610e4e82610c9d565b80610e5e5750610e5d826111fa565b5b15610e9e576040517f08c379a0000000000000000000000000000000000000000000000000000000008152600401610e9590614d0e565b60405180910390fd5b6009600083815260200190815260200160002054811115610ef4576040517f08c379a0000000000000000000000000000000000000000000000000000000008152600401610eeb90614da0565b60405180910390fd5b80600960008481526020019081526020016000206000828254610f179190614a5c565b925050819055507f000000000000000000000000000000000000000000000000000000000000000073ffffffffffffffffffffffffffffffffffffffff1663a9059cbb33836040518363ffffffff1660e01b8152600401610f79929190614dcf565b6020604051808303816000875af1158015610f98573d6000803e3d6000fd5b505050506040513d601f19601f82011682018060405250810190610fbc9190614e0d565b505050565b6000610fcb6114ed565b633b9aca00610fd861113c565b610fe29190614af0565b610fec9190614e69565b905090565b60608151835114611037576040517f08c379a000000000000000000000000000000000000000000000000000000000815260040161102e90614f0c565b60405180910390fd5b6000835167ffffffffffffffff81111561105457611053614103565b5b6040519080825280602002602001820160405280156110825781602001602082028036833780820191505090505b50905060005b84518110156110ff576110cf8582815181106110a7576110a6614f2c565b5b60200260200101518583815181106110c2576110c1614f2c565b5b6020026020010151610902565b8282815181106110e2576110e1614f2c565b5b602002602001018181525050806110f890614f5b565b9050611088565b508091505092915050565b600060076000838152602001908152602001600020546008600084815260200190815260200160002054149050919050565b600080600360009054906101000a900473ffffffffffffffffffffffffffffffffffffffff1673ffffffffffffffffffffffffffffffffffffffff1663feaf968c6040518163ffffffff1660e01b815260040160a060405180830381865afa1580156111ac573d6000803e3d6000fd5b505050506040513d601f19601f820116820180604052508101906111d09190615026565b5050509150508091505090565b6000600a6000838152602001908152602001600020549050919050565b6000611205826118c2565b801561122b57506112158261158e565b600a600084815260200190815260200160002054105b9050919050565b61123b8261186c565b61127a576040517f08c379a0000000000000000000000000000000000000000000000000000000008152600401611271906150ed565b60405180910390fd5b80611284836118e4565b10156112c5576040517f08c379a00000000000000000000000000000000000000000000000000000000081526004016112bc9061517f565b60405180910390fd5b600060066000848152602001908152602001600020604051806101600160405290816000820180546112f690614abf565b80601f016020809104026020016040519081016040528092919081815260200182805461132290614abf565b801561136f5780601f106113445761010080835404028352916020019161136f565b820191906000526020600020905b81548152906001019060200180831161135257829003601f168201915b50505050508152602001600182015481526020016002820154815260200160038201548152602001600482015481526020016005820154815260200160068201548152602001600782015481526020016008820154815260200160098201548152602001600a82015481525050905060008160200151836113f09190614af0565b905082600760008681526020019081526020016000206000828254611415919061519f565b925050819055508060096000868152602001908152602001600020600082825461143f919061519f565b925050819055507f000000000000000000000000000000000000000000000000000000000000000073ffffffffffffffffffffffffffffffffffffffff166323b872dd3330846040518463ffffffff1660e01b81526004016114a3939291906151d3565b6020604051808303816000875af11580156114c2573d6000803e3d6000fd5b505050506040513d601f19601f820116820180604052508101906114e69190614e0d565b5050505050565b600080600460009054906101000a900473ffffffffffffffffffffffffffffffffffffffff1673ffffffffffffffffffffffffffffffffffffffff1663feaf968c6040518163ffffffff1660e01b815260040160a060405180830381865afa15801561155d573d6000803e3d6000fd5b505050506040513d601f19601f820116820180604052508101906115819190615026565b5050509150508091505090565b6000670de0b6b3a764000060066000848152602001908152602001600020600a01546115b984610ba1565b6115c39190614af0565b6115cd9190614e69565b6115d683610ba1565b6115e0919061519f565b9050919050565b6000600f600083815260200190815260200160002060009054906101000a900460ff169050919050565b60007f000000000000000000000000000000000000000000000000000000000000000073ffffffffffffffffffffffffffffffffffffffff166370a08231306040518263ffffffff1660e01b815260040161166c919061520a565b602060405180830381865afa158015611689573d6000803e3d6000fd5b505050506040513d601f19601f820116820180604052508101906116ad9190615225565b905090565b6116bb826115e7565b6116fa576040517f08c379a00000000000000000000000000000000000000000000000000000000081526004016116f19061529e565b60405180910390fd5b806117053384610902565b1015611746576040517f08c379a000000000000000000000000000000000000000000000000000000000815260040161173d9061530a565b60405180910390fd5b6117513383836131fa565b80600860008481526020019081526020016000206000828254611774919061519f565b925050819055506000600d6000848152602001908152602001600020548261179c9190614af0565b90507f000000000000000000000000000000000000000000000000000000000000000073ffffffffffffffffffffffffffffffffffffffff1663a9059cbb33836040518363ffffffff1660e01b81526004016117f9929190614dcf565b6020604051808303816000875af1158015611818573d6000803e3d6000fd5b505050506040513d601f19601f8201168201806040525081019061183c9190614e0d565b5080600a600085815260200190815260200160002060008282546118609190614a5c565b92505081905550505050565b600060066000838152602001908152602001600020600501544211159050919050565b600061189a82610aac565b60066000848152602001908152602001600020600601546118bb9190614a5c565b9050919050565b6000600660008381526020019081526020016000206004015442119050919050565b60006007600083815260200190815260200160002054600660008481526020019081526020016000206008015461191b9190614a5c565b9050919050565b61193461192d612ed1565b8383613440565b5050565b61194181610c9d565b1580156119535750611952816111fa565b5b611992576040517f08c379a000000000000000000000000000000000000000000000000000000000815260040161198990615376565b60405180910390fd5b600061199d8261158e565b905060006103e860096000858152602001908152602001600020546119c29190614e69565b905060006103e8600a6000868152602001908152602001600020546119e79190614e69565b90506000826009600087815260200190815260200160002054611a0a9190614a5c565b9050600082600a600088815260200190815260200160002054611a2d9190614a5c565b9050600760008781526020019081526020016000205482611a4e9190614e69565b600b600088815260200190815260200160002081905550600760008781526020019081526020016000205481611a849190614e69565b600c60008881526020019081526020016000208190555060006007600088815260200190815260200160002054600b600089815260200190815260200160002054611acf9190614af0565b83611ada9190614a5c565b905060006007600089815260200190815260200160002054600c60008a815260200190815260200160002054611b109190614af0565b83611b1b9190614a5c565b905060008287611b2b919061519f565b905060008287611b3b919061519f565b905081600960008c81526020019081526020016000206000828254611b609190614a5c565b9250508190555080600a60008c81526020019081526020016000206000828254611b8a9190614a5c565b925050819055506001600e60008c815260200190815260200160002060006101000a81548160ff0219169083151502179055507f000000000000000000000000000000000000000000000000000000000000000073ffffffffffffffffffffffffffffffffffffffff1663a9059cbb33846040518363ffffffff1660e01b8152600401611c18929190614dcf565b6020604051808303816000875af1158015611c37573d6000803e3d6000fd5b505050506040513d601f19601f82011682018060405250810190611c5b9190614e0d565b507f000000000000000000000000000000000000000000000000000000000000000073ffffffffffffffffffffffffffffffffffffffff1663a9059cbb33836040518363ffffffff1660e01b8152600401611cb7929190614dcf565b6020604051808303816000875af1158015611cd6573d6000803e3d6000fd5b505050506040513d601f19601f82011682018060405250810190611cfa9190614e0d565b50897fcd2c25949e23ea2647ca2c5809b025ee3aca0d82cfcb1d22a715398f5cf8db8e8a8789604051611d2f93929190615396565b60405180910390a250505050505050505050565b611d4c82610c9d565b611d8b576040517f08c379a0000000000000000000000000000000000000000000000000000000008152600401611d8290615376565b60405180910390fd5b80611d963384610902565b1015611dd7576040517f08c379a0000000000000000000000000000000000000000000000000000000008152600401611dce9061530a565b60405180910390fd5b611de23383836131fa565b80600860008481526020019081526020016000206000828254611e05919061519f565b925050819055506000600b60008481526020019081526020016000205482611e2d9190614af0565b90506000600c60008581526020019081526020016000205483611e509190614af0565b90507f000000000000000000000000000000000000000000000000000000000000000073ffffffffffffffffffffffffffffffffffffffff1663a9059cbb33846040518363ffffffff1660e01b8152600401611ead929190614dcf565b6020604051808303816000875af1158015611ecc573d6000803e3d6000fd5b505050506040513d601f19601f82011682018060405250810190611ef09190614e0d565b507f000000000000000000000000000000000000000000000000000000000000000073ffffffffffffffffffffffffffffffffffffffff1663a9059cbb33836040518363ffffffff1660e01b8152600401611f4c929190614dcf565b6020604051808303816000875af1158015611f6b573d6000803e3d6000fd5b505050506040513d601f19601f82011682018060405250810190611f8f9190614e0d565b5081600960008681526020019081526020016000206000828254611fb39190614a5c565b9250508190555080600a60008681526020019081526020016000206000828254611fdd9190614a5c565b9250508190555050505050565b600060066000838152602001908152602001600020600a01549050919050565b61201382610d00565b612052576040517f08c379a000000000000000000000000000000000000000000000000000000000815260040161204990615419565b60405180910390fd5b8061205d3384610902565b101561209e576040517f08c379a00000000000000000000000000000000000000000000000000000000081526004016120959061530a565b60405180910390fd5b6120a93383836131fa565b806008600084815260200190815260200160002060008282546120cc919061519f565b9250508190555060006006600084815260200190815260200160002060010154826120f79190614af0565b90507f000000000000000000000000000000000000000000000000000000000000000073ffffffffffffffffffffffffffffffffffffffff1663a9059cbb33836040518363ffffffff1660e01b8152600401612154929190614dcf565b6020604051808303816000875af1158015612173573d6000803e3d6000fd5b505050506040513d601f19601f820116820180604052508101906121979190614e0d565b50806009600085815260200190815260200160002060008282546121bb9190614a5c565b92505081905550505050565b6121d0816115e7565b1580156121e257506121e181610cc7565b5b612221576040517f08c379a000000000000000000000000000000000000000000000000000000000815260040161221890615485565b60405180910390fd5b600061222c8261158e565b905060006103e88261223e9190614e69565b90506000818361224e9190614a5c565b905060076000858152602001908152602001600020548161226f9190614e69565b600d60008681526020019081526020016000208190555060006007600086815260200190815260200160002054600d6000878152602001908152602001600020546122ba9190614af0565b826122c59190614a5c565b9050600081846122d5919061519f565b905080600a600088815260200190815260200160002060008282546122fa9190614a5c565b925050819055506001600f600088815260200190815260200160002060006101000a81548160ff0219169083151502179055507f000000000000000000000000000000000000000000000000000000000000000073ffffffffffffffffffffffffffffffffffffffff1663a9059cbb33836040518363ffffffff1660e01b8152600401612388929190614dcf565b6020604051808303816000875af11580156123a7573d6000803e3d6000fd5b505050506040513d601f19601f820116820180604052508101906123cb9190614e0d565b50857fac2eeaf45d1b75aed6b3285cda3efb3c382cce02ba313558bbb90be57f8843e486856040516123fe9291906154a5565b60405180910390a2505050505050565b60007f000000000000000000000000000000000000000000000000000000000000000073ffffffffffffffffffffffffffffffffffffffff163373ffffffffffffffffffffffffffffffffffffffff161461249e576040517f08c379a000000000000000000000000000000000000000000000000000000000815260040161249590614c10565b60405180910390fd5b8484106124e0576040517f08c379a00000000000000000000000000000000000000000000000000000000081526004016124d790615540565b60405180910390fd5b60016005546124ef919061519f565b90506124fd33828c856135ac565b6000612507610fc1565b90506000633b9aca008a8361251c9190614af0565b6125269190614e69565b90506040518061016001604052808a8a8080601f016020809104026020016040519081016040528093929190818152602001838380828437600081840152601f19601f8201169050808301925050505050505081526020018b8152602001828152602001428152602001620151808961259f9190614af0565b426125aa919061519f565b815260200162015180886125be9190614af0565b426125c9919061519f565b81526020018781526020018881526020018d81526020018c815260200186815250600660008581526020019081526020016000206000820151816000019081612612919061570c565b506020820151816001015560408201518160020155606082015181600301556080820151816004015560a0820151816005015560c0820151816006015560e082015181600701556101008201518160080155610120820151816009015561014082015181600a0155905050827ff73e436c94925e1e8b2f0b16de0a2c56aea7fb27878f7815811bc05bc6c335e88d8c84896040516126b394939291906157de565b60405180910390a250509998505050505050505050565b60606000806000806000806000806000806000600660008e81526020019081526020016000206040518061016001604052908160008201805461270c90614abf565b80601f016020809104026020016040519081016040528092919081815260200182805461273890614abf565b80156127855780601f1061275a57610100808354040283529160200191612785565b820191906000526020600020905b81548152906001019060200180831161276857829003601f168201915b50505050508152602001600182015481526020016002820154815260200160038201548152602001600482015481526020016005820154815260200160068201548152602001600782015481526020016008820154815260200160098201548152602001600a820154815250509050806000015181602001518260400151836060015184608001518560a001518660c001518760e001518861010001518961012001518a61014001519b509b509b509b509b509b509b509b509b509b509b505091939597999b90929496989a50565b600061285f82610aac565b60066000848152602001908152602001600020600701546128809190614a5c565b9050919050565b7f000000000000000000000000000000000000000000000000000000000000000073ffffffffffffffffffffffffffffffffffffffff163373ffffffffffffffffffffffffffffffffffffffff1614612915576040517f08c379a000000000000000000000000000000000000000000000000000000000815260040161290c90614c10565b60405180910390fd5b61291e82610c9d565b8061292e575061292d826111fa565b5b1561296e576040517f08c379a00000000000000000000000000000000000000000000000000000000081526004016129659061586f565b60405180910390fd5b612977826115e7565b156129b7576040517f08c379a00000000000000000000000000000000000000000000000000000000081526004016129ae906158db565b60405180910390fd5b80600a600084815260200190815260200160002060008282546129da919061519f565b925050819055507f000000000000000000000000000000000000000000000000000000000000000073ffffffffffffffffffffffffffffffffffffffff166323b872dd3330846040518463ffffffff1660e01b8152600401612a3e939291906151d3565b6020604051808303816000875af1158015612a5d573d6000803e3d6000fd5b505050506040513d601f19601f82011682018060405250810190612a819190614e0d565b505050565b7f000000000000000000000000000000000000000000000000000000000000000073ffffffffffffffffffffffffffffffffffffffff163373ffffffffffffffffffffffffffffffffffffffff1614612b14576040517f08c379a0000000000000000000000000000000000000000000000000000000008152600401612b0b90614c10565b60405180910390fd5b612b1d816115e7565b8015612b2e5750612b2d8161110a565b5b612b6d576040517f08c379a0000000000000000000000000000000000000000000000000000000008152600401612b6490615947565b60405180910390fd5b6000600a60008381526020019081526020016000205411612bc3576040517f08c379a0000000000000000000000000000000000000000000000000000000008152600401612bba906159b3565b60405180910390fd5b6000600a6000838152602001908152602001600020819055507f000000000000000000000000000000000000000000000000000000000000000073ffffffffffffffffffffffffffffffffffffffff1663a9059cbb33600a6000858152602001908152602001600020546040518363ffffffff1660e01b8152600401612c4a929190614dcf565b6020604051808303816000875af1158015612c69573d6000803e3d6000fd5b505050506040513d601f19601f82011682018060405250810190612c8d9190614e0d565b5050565b6000600160008473ffffffffffffffffffffffffffffffffffffffff1673ffffffffffffffffffffffffffffffffffffffff16815260200190815260200160002060008373ffffffffffffffffffffffffffffffffffffffff1673ffffffffffffffffffffffffffffffffffffffff16815260200190815260200160002060009054906101000a900460ff16905092915050565b60007f000000000000000000000000000000000000000000000000000000000000000073ffffffffffffffffffffffffffffffffffffffff166370a08231306040518263ffffffff1660e01b8152600401612d80919061520a565b602060405180830381865afa158015612d9d573d6000803e3d6000fd5b505050506040513d601f19601f82011682018060405250810190612dc19190615225565b905090565b612dce612ed1565b73ffffffffffffffffffffffffffffffffffffffff168573ffffffffffffffffffffffffffffffffffffffff161480612e145750612e1385612e0e612ed1565b612c91565b5b612e53576040517f08c379a0000000000000000000000000000000000000000000000000000000008152600401612e4a90614ba4565b60405180910390fd5b612e60858585858561375c565b5050505050565b60007f01ffc9a7000000000000000000000000000000000000000000000000000000007bffffffffffffffffffffffffffffffffffffffffffffffffffffffff1916827bffffffffffffffffffffffffffffffffffffffffffffffffffffffff1916149050919050565b600033905090565b8151835114612f1d576040517f08c379a0000000000000000000000000000000000000000000000000000000008152600401612f1490615a45565b60405180910390fd5b600073ffffffffffffffffffffffffffffffffffffffff168473ffffffffffffffffffffffffffffffffffffffff1603612f8c576040517f08c379a0000000000000000000000000000000000000000000000000000000008152600401612f8390615ad7565b60405180910390fd5b6000612f96612ed1565b9050612fa68187878787876139f7565b60005b8451811015613157576000858281518110612fc757612fc6614f2c565b5b602002602001015190506000858381518110612fe657612fe5614f2c565b5b60200260200101519050600080600084815260200190815260200160002060008b73ffffffffffffffffffffffffffffffffffffffff1673ffffffffffffffffffffffffffffffffffffffff16815260200190815260200160002054905081811015613087576040517f08c379a000000000000000000000000000000000000000000000000000000000815260040161307e90615b69565b60405180910390fd5b81810360008085815260200190815260200160002060008c73ffffffffffffffffffffffffffffffffffffffff1673ffffffffffffffffffffffffffffffffffffffff168152602001908152602001600020819055508160008085815260200190815260200160002060008b73ffffffffffffffffffffffffffffffffffffffff1673ffffffffffffffffffffffffffffffffffffffff168152602001908152602001600020600082825461313c919061519f565b925050819055505050508061315090614f5b565b9050612fa9565b508473ffffffffffffffffffffffffffffffffffffffff168673ffffffffffffffffffffffffffffffffffffffff168273ffffffffffffffffffffffffffffffffffffffff167f4a39dc06d4c0dbc64b70af90fd698a233a518aa5d07e595d983b8c0526c8f7fb87876040516131ce929190615b89565b60405180910390a46131e48187878787876139ff565b6131f2818787878787613a07565b505050505050565b600073ffffffffffffffffffffffffffffffffffffffff168373ffffffffffffffffffffffffffffffffffffffff1603613269576040517f08c379a000000000000000000000000000000000000000000000000000000000815260040161326090615c32565b60405180910390fd5b6000613273612ed1565b9050600061328084613bde565b9050600061328d84613bde565b90506132ad838760008585604051806020016040528060008152506139f7565b600080600087815260200190815260200160002060008873ffffffffffffffffffffffffffffffffffffffff1673ffffffffffffffffffffffffffffffffffffffff16815260200190815260200160002054905084811015613344576040517f08c379a000000000000000000000000000000000000000000000000000000000815260040161333b90615cc4565b60405180910390fd5b84810360008088815260200190815260200160002060008973ffffffffffffffffffffffffffffffffffffffff1673ffffffffffffffffffffffffffffffffffffffff16815260200190815260200160002081905550600073ffffffffffffffffffffffffffffffffffffffff168773ffffffffffffffffffffffffffffffffffffffff168573ffffffffffffffffffffffffffffffffffffffff167fc3d58168c5ae7397731d063d5bbf3d657854427343f4c083240f7aacaa2d0f6289896040516134119291906154a5565b60405180910390a4613437848860008686604051806020016040528060008152506139ff565b50505050505050565b8173ffffffffffffffffffffffffffffffffffffffff168373ffffffffffffffffffffffffffffffffffffffff16036134ae576040517f08c379a00000000000000000000000000000000000000000000000000000000081526004016134a590615d56565b60405180910390fd5b80600160008573ffffffffffffffffffffffffffffffffffffffff1673ffffffffffffffffffffffffffffffffffffffff16815260200190815260200160002060008473ffffffffffffffffffffffffffffffffffffffff1673ffffffffffffffffffffffffffffffffffffffff16815260200190815260200160002060006101000a81548160ff0219169083151502179055508173ffffffffffffffffffffffffffffffffffffffff168373ffffffffffffffffffffffffffffffffffffffff167f17307eab39ab6107e8899845ad3d59bd9653f200f220920489ca2b5937696c318360405161359f9190614004565b60405180910390a3505050565b600073ffffffffffffffffffffffffffffffffffffffff168473ffffffffffffffffffffffffffffffffffffffff160361361b576040517f08c379a000000000000000000000000000000000000000000000000000000000815260040161361290615de8565b60405180910390fd5b6000613625612ed1565b9050600061363285613bde565b9050600061363f85613bde565b9050613650836000898585896139f7565b8460008088815260200190815260200160002060008973ffffffffffffffffffffffffffffffffffffffff1673ffffffffffffffffffffffffffffffffffffffff16815260200190815260200160002060008282546136af919061519f565b925050819055508673ffffffffffffffffffffffffffffffffffffffff16600073ffffffffffffffffffffffffffffffffffffffff168473ffffffffffffffffffffffffffffffffffffffff167fc3d58168c5ae7397731d063d5bbf3d657854427343f4c083240f7aacaa2d0f62898960405161372d9291906154a5565b60405180910390a4613744836000898585896139ff565b61375383600089898989613c58565b50505050505050565b600073ffffffffffffffffffffffffffffffffffffffff168473ffffffffffffffffffffffffffffffffffffffff16036137cb576040517f08c379a00000000000000000000000000000000000000000000000000000000081526004016137c290615ad7565b60405180910390fd5b60006137d5612ed1565b905060006137e285613bde565b905060006137ef85613bde565b90506137ff8389898585896139f7565b600080600088815260200190815260200160002060008a73ffffffffffffffffffffffffffffffffffffffff1673ffffffffffffffffffffffffffffffffffffffff16815260200190815260200160002054905085811015613896576040517f08c379a000000000000000000000000000000000000000000000000000000000815260040161388d90615b69565b60405180910390fd5b85810360008089815260200190815260200160002060008b73ffffffffffffffffffffffffffffffffffffffff1673ffffffffffffffffffffffffffffffffffffffff168152602001908152602001600020819055508560008089815260200190815260200160002060008a73ffffffffffffffffffffffffffffffffffffffff1673ffffffffffffffffffffffffffffffffffffffff168152602001908152602001600020600082825461394b919061519f565b925050819055508773ffffffffffffffffffffffffffffffffffffffff168973ffffffffffffffffffffffffffffffffffffffff168573ffffffffffffffffffffffffffffffffffffffff167fc3d58168c5ae7397731d063d5bbf3d657854427343f4c083240f7aacaa2d0f628a8a6040516139c89291906154a5565b60405180910390a46139de848a8a86868a6139ff565b6139ec848a8a8a8a8a613c58565b505050505050505050565b505050505050565b505050505050565b613a268473ffffffffffffffffffffffffffffffffffffffff16613e2f565b15613bd6578373ffffffffffffffffffffffffffffffffffffffff1663bc197c8187878686866040518663ffffffff1660e01b8152600401613a6c959493929190615e5d565b6020604051808303816000875af1925050508015613aa857506040513d601f19601f82011682018060405250810190613aa59190615eda565b60015b613b4d57613ab4615f14565b806308c379a003613b105750613ac8615f36565b80613ad35750613b12565b806040517f08c379a0000000000000000000000000000000000000000000000000000000008152600401613b0791906140dc565b60405180910390fd5b505b6040517f08c379a0000000000000000000000000000000000000000000000000000000008152600401613b4490616038565b60405180910390fd5b63bc197c8160e01b7bffffffffffffffffffffffffffffffffffffffffffffffffffffffff1916817bffffffffffffffffffffffffffffffffffffffffffffffffffffffff191614613bd4576040517f08c379a0000000000000000000000000000000000000000000000000000000008152600401613bcb906160ca565b60405180910390fd5b505b505050505050565b60606000600167ffffffffffffffff811115613bfd57613bfc614103565b5b604051908082528060200260200182016040528015613c2b5781602001602082028036833780820191505090505b5090508281600081518110613c4357613c42614f2c565b5b60200260200101818152505080915050919050565b613c778473ffffffffffffffffffffffffffffffffffffffff16613e2f565b15613e27578373ffffffffffffffffffffffffffffffffffffffff1663f23a6e6187878686866040518663ffffffff1660e01b8152600401613cbd9594939291906160ea565b6020604051808303816000875af1925050508015613cf957506040513d601f19601f82011682018060405250810190613cf69190615eda565b60015b613d9e57613d05615f14565b806308c379a003613d615750613d19615f36565b80613d245750613d63565b806040517f08c379a0000000000000000000000000000000000000000000000000000000008152600401613d5891906140dc565b60405180910390fd5b505b6040517f08c379a0000000000000000000000000000000000000000000000000000000008152600401613d9590616038565b60405180910390fd5b63f23a6e6160e01b7bffffffffffffffffffffffffffffffffffffffffffffffffffffffff1916817bffffffffffffffffffffffffffffffffffffffffffffffffffffffff191614613e25576040517f08c379a0000000000000000000000000000000000000000000000000000000008152600401613e1c906160ca565b60405180910390fd5b505b505050505050565b6000808273ffffffffffffffffffffffffffffffffffffffff163b119050919050565b6000604051905090565b600080fd5b600080fd5b600073ffffffffffffffffffffffffffffffffffffffff82169050919050565b6000613e9182613e66565b9050919050565b613ea181613e86565b8114613eac57600080fd5b50565b600081359050613ebe81613e98565b92915050565b6000819050919050565b613ed781613ec4565b8114613ee257600080fd5b50565b600081359050613ef481613ece565b92915050565b60008060408385031215613f1157613f10613e5c565b5b6000613f1f85828601613eaf565b9250506020613f3085828601613ee5565b9150509250929050565b613f4381613ec4565b82525050565b6000602082019050613f5e6000830184613f3a565b92915050565b60007fffffffff0000000000000000000000000000000000000000000000000000000082169050919050565b613f9981613f64565b8114613fa457600080fd5b50565b600081359050613fb681613f90565b92915050565b600060208284031215613fd257613fd1613e5c565b5b6000613fe084828501613fa7565b91505092915050565b60008115159050919050565b613ffe81613fe9565b82525050565b60006020820190506140196000830184613ff5565b92915050565b60006020828403121561403557614034613e5c565b5b600061404384828501613ee5565b91505092915050565b600081519050919050565b600082825260208201905092915050565b60005b8381101561408657808201518184015260208101905061406b565b60008484015250505050565b6000601f19601f8301169050919050565b60006140ae8261404c565b6140b88185614057565b93506140c8818560208601614068565b6140d181614092565b840191505092915050565b600060208201905081810360008301526140f681846140a3565b905092915050565b600080fd5b7f4e487b7100000000000000000000000000000000000000000000000000000000600052604160045260246000fd5b61413b82614092565b810181811067ffffffffffffffff8211171561415a57614159614103565b5b80604052505050565b600061416d613e52565b90506141798282614132565b919050565b600067ffffffffffffffff82111561419957614198614103565b5b602082029050602081019050919050565b600080fd5b60006141c26141bd8461417e565b614163565b905080838252602082019050602084028301858111156141e5576141e46141aa565b5b835b8181101561420e57806141fa8882613ee5565b8452602084019350506020810190506141e7565b5050509392505050565b600082601f83011261422d5761422c6140fe565b5b813561423d8482602086016141af565b91505092915050565b600080fd5b600067ffffffffffffffff82111561426657614265614103565b5b61426f82614092565b9050602081019050919050565b82818337600083830152505050565b600061429e6142998461424b565b614163565b9050828152602081018484840111156142ba576142b9614246565b5b6142c584828561427c565b509392505050565b600082601f8301126142e2576142e16140fe565b5b81356142f284826020860161428b565b91505092915050565b600080600080600060a0868803121561431757614316613e5c565b5b600061432588828901613eaf565b955050602061433688828901613eaf565b945050604086013567ffffffffffffffff81111561435757614356613e61565b5b61436388828901614218565b935050606086013567ffffffffffffffff81111561438457614383613e61565b5b61439088828901614218565b925050608086013567ffffffffffffffff8111156143b1576143b0613e61565b5b6143bd888289016142cd565b9150509295509295909350565b600080604083850312156143e1576143e0613e5c565b5b60006143ef85828601613ee5565b925050602061440085828601613ee5565b9150509250929050565b600067ffffffffffffffff82111561442557614424614103565b5b602082029050602081019050919050565b60006144496144448461440a565b614163565b9050808382526020820190506020840283018581111561446c5761446b6141aa565b5b835b8181101561449557806144818882613eaf565b84526020840193505060208101905061446e565b5050509392505050565b600082601f8301126144b4576144b36140fe565b5b81356144c4848260208601614436565b91505092915050565b600080604083850312156144e4576144e3613e5c565b5b600083013567ffffffffffffffff81111561450257614501613e61565b5b61450e8582860161449f565b925050602083013567ffffffffffffffff81111561452f5761452e613e61565b5b61453b85828601614218565b9150509250929050565b600081519050919050565b600082825260208201905092915050565b6000819050602082019050919050565b61457a81613ec4565b82525050565b600061458c8383614571565b60208301905092915050565b6000602082019050919050565b60006145b082614545565b6145ba8185614550565b93506145c583614561565b8060005b838110156145f65781516145dd8882614580565b97506145e883614598565b9250506001810190506145c9565b5085935050505092915050565b6000602082019050818103600083015261461d81846145a5565b905092915050565b6000819050919050565b61463881614625565b82525050565b6000602082019050614653600083018461462f565b92915050565b61466281613fe9565b811461466d57600080fd5b50565b60008135905061467f81614659565b92915050565b6000806040838503121561469c5761469b613e5c565b5b60006146aa85828601613eaf565b92505060206146bb85828601614670565b9150509250929050565b600080fd5b60008083601f8401126146e0576146df6140fe565b5b8235905067ffffffffffffffff8111156146fd576146fc6146c5565b5b602083019150836001820283011115614719576147186141aa565b5b9250929050565b60008060008060008060008060006101008a8c03121561474357614742613e5c565b5b60006147518c828d01613ee5565b99505060206147628c828d01613ee5565b98505060406147738c828d01613ee5565b97505060608a013567ffffffffffffffff81111561479457614793613e61565b5b6147a08c828d016146ca565b965096505060806147b38c828d01613ee5565b94505060a06147c48c828d01613ee5565b93505060c06147d58c828d01613ee5565b92505060e08a013567ffffffffffffffff8111156147f6576147f5613e61565b5b6148028c828d016142cd565b9150509295985092959850929598565b600061016082019050818103600083015261482d818e6140a3565b905061483c602083018d613f3a565b614849604083018c613f3a565b614856606083018b613f3a565b614863608083018a613f3a565b61487060a0830189613f3a565b61487d60c0830188613f3a565b61488a60e0830187613f3a565b614898610100830186613f3a565b6148a6610120830185613f3a565b6148b4610140830184613f3a565b9c9b505050505050505050505050565b600080604083850312156148db576148da613e5c565b5b60006148e985828601613eaf565b92505060206148fa85828601613eaf565b9150509250929050565b600080600080600060a086880312156149205761491f613e5c565b5b600061492e88828901613eaf565b955050602061493f88828901613eaf565b945050604061495088828901613ee5565b935050606061496188828901613ee5565b925050608086013567ffffffffffffffff81111561498257614981613e61565b5b61498e888289016142cd565b9150509295509295909350565b7f455243313135353a2061646472657373207a65726f206973206e6f742061207660008201527f616c6964206f776e657200000000000000000000000000000000000000000000602082015250565b60006149f7602a83614057565b9150614a028261499b565b604082019050919050565b60006020820190508181036000830152614a26816149ea565b9050919050565b7f4e487b7100000000000000000000000000000000000000000000000000000000600052601160045260246000fd5b6000614a6782613ec4565b9150614a7283613ec4565b9250828203905081811115614a8a57614a89614a2d565b5b92915050565b7f4e487b7100000000000000000000000000000000000000000000000000000000600052602260045260246000fd5b60006002820490506001821680614ad757607f821691505b602082108103614aea57614ae9614a90565b5b50919050565b6000614afb82613ec4565b9150614b0683613ec4565b9250828202614b1481613ec4565b91508282048414831517614b2b57614b2a614a2d565b5b5092915050565b7f455243313135353a2063616c6c6572206973206e6f7420746f6b656e206f776e60008201527f6572206f7220617070726f766564000000000000000000000000000000000000602082015250565b6000614b8e602e83614057565b9150614b9982614b32565b604082019050919050565b60006020820190508181036000830152614bbd81614b81565b9050919050565b7f43616c6c6572206973206e6f7420746865206f776e6572000000000000000000600082015250565b6000614bfa601783614057565b9150614c0582614bc4565b602082019050919050565b60006020820190508181036000830152614c2981614bed565b9050919050565b7f5769746864726177206e6f7420616c6c6f776564207768656e20616374697665600082015250565b6000614c66602083614057565b9150614c7182614c30565b602082019050919050565b60006020820190508181036000830152614c9581614c59565b9050919050565b7f5769746864726177206e6f7420616c6c6f776564207768656e2064656661756c60008201527f7465640000000000000000000000000000000000000000000000000000000000602082015250565b6000614cf8602383614057565b9150614d0382614c9c565b604082019050919050565b60006020820190508181036000830152614d2781614ceb565b9050919050565b7f5769746864726177616c20746f6b656e20616d6f756e7420657863656564732060008201527f746f6b656e20616d6f756e7420696e20636f6e74726163740000000000000000602082015250565b6000614d8a603883614057565b9150614d9582614d2e565b604082019050919050565b60006020820190508181036000830152614db981614d7d565b9050919050565b614dc981613e86565b82525050565b6000604082019050614de46000830185614dc0565b614df16020830184613f3a565b9392505050565b600081519050614e0781614659565b92915050565b600060208284031215614e2357614e22613e5c565b5b6000614e3184828501614df8565b91505092915050565b7f4e487b7100000000000000000000000000000000000000000000000000000000600052601260045260246000fd5b6000614e7482613ec4565b9150614e7f83613ec4565b925082614e8f57614e8e614e3a565b5b828204905092915050565b7f455243313135353a206163636f756e747320616e6420696473206c656e67746860008201527f206d69736d617463680000000000000000000000000000000000000000000000602082015250565b6000614ef6602983614057565b9150614f0182614e9a565b604082019050919050565b60006020820190508181036000830152614f2581614ee9565b9050919050565b7f4e487b7100000000000000000000000000000000000000000000000000000000600052603260045260246000fd5b6000614f6682613ec4565b91507fffffffffffffffffffffffffffffffffffffffffffffffffffffffffffffffff8203614f9857614f97614a2d565b5b600182019050919050565b600069ffffffffffffffffffff82169050919050565b614fc281614fa3565b8114614fcd57600080fd5b50565b600081519050614fdf81614fb9565b92915050565b614fee81614625565b8114614ff957600080fd5b50565b60008151905061500b81614fe5565b92915050565b60008151905061502081613ece565b92915050565b600080600080600060a0868803121561504257615041613e5c565b5b600061505088828901614fd0565b955050602061506188828901614ffc565b945050604061507288828901615011565b935050606061508388828901615011565b925050608061509488828901614fd0565b9150509295509295909350565b7f426f6e6420697320696e61637469766500000000000000000000000000000000600082015250565b60006150d7601083614057565b91506150e2826150a1565b602082019050919050565b60006020820190508181036000830152615106816150ca565b9050919050565b7f496e73756666696369656e7420626f6e64207175616e746974792072656d616960008201527f6e696e6700000000000000000000000000000000000000000000000000000000602082015250565b6000615169602483614057565b91506151748261510d565b604082019050919050565b600060208201905081810360008301526151988161515c565b9050919050565b60006151aa82613ec4565b91506151b583613ec4565b92508282019050808211156151cd576151cc614a2d565b5b92915050565b60006060820190506151e86000830186614dc0565b6151f56020830185614dc0565b6152026040830184613f3a565b949350505050565b600060208201905061521f6000830184614dc0565b92915050565b60006020828403121561523b5761523a613e5c565b5b600061524984828501615011565b91505092915050565b7f426f6e64206973206e6f7420636f6d706c657465640000000000000000000000600082015250565b6000615288601583614057565b915061529382615252565b602082019050919050565b600060208201905081810360008301526152b78161527b565b9050919050565b7f496e73756666696369656e7420626f6e64207175616e74697479000000000000600082015250565b60006152f4601a83614057565b91506152ff826152be565b602082019050919050565b60006020820190508181036000830152615323816152e7565b9050919050565b7f426f6e64206973206e6f742064656661756c7465640000000000000000000000600082015250565b6000615360601583614057565b915061536b8261532a565b602082019050919050565b6000602082019050818103600083015261538f81615353565b9050919050565b60006060820190506153ab6000830186613f3a565b6153b86020830185613f3a565b6153c56040830184613f3a565b949350505050565b7f426f6e64206973206e6f742063616e63656c6564000000000000000000000000600082015250565b6000615403601483614057565b915061540e826153cd565b602082019050919050565b60006020820190508181036000830152615432816153f6565b9050919050565b7f426f6e6420697320616c726561647920636f6d706c6574656400000000000000600082015250565b600061546f601983614057565b915061547a82615439565b602082019050919050565b6000602082019050818103600083015261549e81615462565b9050919050565b60006040820190506154ba6000830185613f3a565b6154c76020830184613f3a565b9392505050565b7f416374697665206475726174696f6e2073686f756c642062652073686f72746560008201527f72207468616e206475726174696f6e0000000000000000000000000000000000602082015250565b600061552a602f83614057565b9150615535826154ce565b604082019050919050565b600060208201905081810360008301526155598161551d565b9050919050565b60008190508160005260206000209050919050565b60006020601f8301049050919050565b600082821b905092915050565b6000600883026155c27fffffffffffffffffffffffffffffffffffffffffffffffffffffffffffffffff82615585565b6155cc8683615585565b95508019841693508086168417925050509392505050565b6000819050919050565b60006156096156046155ff84613ec4565b6155e4565b613ec4565b9050919050565b6000819050919050565b615623836155ee565b61563761562f82615610565b848454615592565b825550505050565b600090565b61564c61563f565b61565781848461561a565b505050565b5b8181101561567b57615670600082615644565b60018101905061565d565b5050565b601f8211156156c05761569181615560565b61569a84615575565b810160208510156156a9578190505b6156bd6156b585615575565b83018261565c565b50505b505050565b600082821c905092915050565b60006156e3600019846008026156c5565b1980831691505092915050565b60006156fc83836156d2565b9150826002028217905092915050565b6157158261404c565b67ffffffffffffffff81111561572e5761572d614103565b5b6157388254614abf565b61574382828561567f565b600060209050601f8311600181146157765760008415615764578287015190505b61576e85826156f0565b8655506157d6565b601f19841661578486615560565b60005b828110156157ac57848901518255600182019150602085019450602081019050615787565b868310156157c957848901516157c5601f8916826156d2565b8355505b6001600288020188555050505b505050505050565b60006080820190506157f36000830187613f3a565b6158006020830186613f3a565b61580d6040830185613f3a565b61581a6060830184613f3a565b95945050505050565b7f626f6e642069732064656661756c746564000000000000000000000000000000600082015250565b6000615859601183614057565b915061586482615823565b602082019050919050565b600060208201905081810360008301526158888161584c565b9050919050565b7f626f6e6420697320636f6d706c65746564000000000000000000000000000000600082015250565b60006158c5601183614057565b91506158d08261588f565b602082019050919050565b600060208201905081810360008301526158f4816158b8565b9050919050565b7f43616e6e6f742077697468647261772065786365737300000000000000000000600082015250565b6000615931601683614057565b915061593c826158fb565b602082019050919050565b6000602082019050818103600083015261596081615924565b9050919050565b7f43616e6e6f742077697468647261772066726f6d20656d70747920706f6f6c00600082015250565b600061599d601f83614057565b91506159a882615967565b602082019050919050565b600060208201905081810360008301526159cc81615990565b9050919050565b7f455243313135353a2069647320616e6420616d6f756e7473206c656e6774682060008201527f6d69736d61746368000000000000000000000000000000000000000000000000602082015250565b6000615a2f602883614057565b9150615a3a826159d3565b604082019050919050565b60006020820190508181036000830152615a5e81615a22565b9050919050565b7f455243313135353a207472616e7366657220746f20746865207a65726f20616460008201527f6472657373000000000000000000000000000000000000000000000000000000602082015250565b6000615ac1602583614057565b9150615acc82615a65565b604082019050919050565b60006020820190508181036000830152615af081615ab4565b9050919050565b7f455243313135353a20696e73756666696369656e742062616c616e636520666f60008201527f72207472616e7366657200000000000000000000000000000000000000000000602082015250565b6000615b53602a83614057565b9150615b5e82615af7565b604082019050919050565b60006020820190508181036000830152615b8281615b46565b9050919050565b60006040820190508181036000830152615ba381856145a5565b90508181036020830152615bb781846145a5565b90509392505050565b7f455243313135353a206275726e2066726f6d20746865207a65726f206164647260008201527f6573730000000000000000000000000000000000000000000000000000000000602082015250565b6000615c1c602383614057565b9150615c2782615bc0565b604082019050919050565b60006020820190508181036000830152615c4b81615c0f565b9050919050565b7f455243313135353a206275726e20616d6f756e7420657863656564732062616c60008201527f616e636500000000000000000000000000000000000000000000000000000000602082015250565b6000615cae602483614057565b9150615cb982615c52565b604082019050919050565b60006020820190508181036000830152615cdd81615ca1565b9050919050565b7f455243313135353a2073657474696e6720617070726f76616c2073746174757360008201527f20666f722073656c660000000000000000000000000000000000000000000000602082015250565b6000615d40602983614057565b9150615d4b82615ce4565b604082019050919050565b60006020820190508181036000830152615d6f81615d33565b9050919050565b7f455243313135353a206d696e7420746f20746865207a65726f2061646472657360008201527f7300000000000000000000000000000000000000000000000000000000000000602082015250565b6000615dd2602183614057565b9150615ddd82615d76565b604082019050919050565b60006020820190508181036000830152615e0181615dc5565b9050919050565b600081519050919050565b600082825260208201905092915050565b6000615e2f82615e08565b615e398185615e13565b9350615e49818560208601614068565b615e5281614092565b840191505092915050565b600060a082019050615e726000830188614dc0565b615e7f6020830187614dc0565b8181036040830152615e9181866145a5565b90508181036060830152615ea581856145a5565b90508181036080830152615eb98184615e24565b90509695505050505050565b600081519050615ed481613f90565b92915050565b600060208284031215615ef057615eef613e5c565b5b6000615efe84828501615ec5565b91505092915050565b60008160e01c9050919050565b600060033d1115615f335760046000803e615f30600051615f07565b90505b90565b600060443d10615fc357615f48613e52565b60043d036004823e80513d602482011167ffffffffffffffff82111715615f70575050615fc3565b808201805167ffffffffffffffff811115615f8e5750505050615fc3565b80602083010160043d038501811115615fab575050505050615fc3565b615fba82602001850186614132565b82955050505050505b90565b7f455243313135353a207472616e7366657220746f206e6f6e2d4552433131353560008201527f526563656976657220696d706c656d656e746572000000000000000000000000602082015250565b6000616022603483614057565b915061602d82615fc6565b604082019050919050565b6000602082019050818103600083015261605181616015565b9050919050565b7f455243313135353a204552433131353552656365697665722072656a6563746560008201527f6420746f6b656e73000000000000000000000000000000000000000000000000602082015250565b60006160b4602883614057565b91506160bf82616058565b604082019050919050565b600060208201905081810360008301526160e3816160a7565b9050919050565b600060a0820190506160ff6000830188614dc0565b61610c6020830187614dc0565b6161196040830186613f3a565b6161266060830185613f3a565b81810360808301526161388184615e24565b9050969550505050505056fea2646970667358221220e97a41d8dfcddbb8dfcf608344c118852620d3a79019fc5131b823d0f5aa069a64736f6c63430008110033",
  "linkReferences": {},
  "deployedLinkReferences": {}
}