{
  "_format": "hh-sol-artifact-1",
  "contractName": "DualCurrencyBondFactory",
  "sourceName": "contracts/DualCurrencyBondFactory.sol",
  "abi": [
    {
      "inputs": [
        {
          "internalType": "string",
          "name": "uri",
          "type": "string"
        },
        {
          "internalType": "address",
          "name": "tokenA",
          "type": "address"
        },
        {
          "internalType": "address",
          "name": "tokenB",
          "type": "address"
        },
        {
          "internalType": "address",
          "name": "priceFeedA",
          "type": "address"
        },
        {
          "internalType": "address",
          "name": "priceFeedB",
          "type": "address"
        },
        {
          "internalType": "address",
          "name": "deployer",
          "type": "address"
        }
      ],
      "stateMutability": "nonpayable",
      "type": "constructor"
    },
    {
      "anonymous": false,
      "inputs": [
        {
          "indexed": true,
          "internalType": "address",
          "name": "account",
          "type": "address"
        },
        {
          "indexed": true,
          "internalType": "address",
          "name": "operator",
          "type": "address"
        },
        {
          "indexed": false,
          "internalType": "bool",
          "name": "approved",
          "type": "bool"
        }
      ],
      "name": "ApprovalForAll",
      "type": "event"
    },
    {
      "anonymous": false,
      "inputs": [
        {
          "indexed": true,
          "internalType": "uint256",
          "name": "id",
          "type": "uint256"
        },
        {
          "indexed": false,
          "internalType": "uint256",
          "name": "totalDebt",
          "type": "uint256"
        },
        {
          "indexed": false,
          "internalType": "uint256",
          "name": "paidDebt",
          "type": "uint256"
        }
      ],
      "name": "Completed",
      "type": "event"
    },
    {
      "anonymous": false,
      "inputs": [
        {
          "indexed": true,
          "internalType": "uint256",
          "name": "id",
          "type": "uint256"
        },
        {
          "indexed": false,
          "internalType": "uint256",
          "name": "totalDebt",
          "type": "uint256"
        },
        {
          "indexed": false,
          "internalType": "uint256",
          "name": "paidDebtA",
          "type": "uint256"
        },
        {
          "indexed": false,
          "internalType": "uint256",
          "name": "paidDebtB",
          "type": "uint256"
        }
      ],
      "name": "Defaulted",
      "type": "event"
    },
    {
      "anonymous": false,
      "inputs": [
        {
          "indexed": true,
          "internalType": "uint256",
          "name": "id",
          "type": "uint256"
        },
        {
          "indexed": false,
          "internalType": "uint256",
          "name": "bondQuantity",
          "type": "uint256"
        },
        {
          "indexed": false,
          "internalType": "uint256",
          "name": "tokenAAmountPerBond",
          "type": "uint256"
        },
        {
          "indexed": false,
          "internalType": "uint256",
          "name": "tokenBAmountPerBond",
          "type": "uint256"
        },
        {
          "indexed": false,
          "internalType": "uint256",
          "name": "couponRate",
          "type": "uint256"
        }
      ],
      "name": "Issued",
      "type": "event"
    },
    {
      "anonymous": false,
      "inputs": [
        {
          "indexed": true,
          "internalType": "address",
          "name": "operator",
          "type": "address"
        },
        {
          "indexed": true,
          "internalType": "address",
          "name": "from",
          "type": "address"
        },
        {
          "indexed": true,
          "internalType": "address",
          "name": "to",
          "type": "address"
        },
        {
          "indexed": false,
          "internalType": "uint256[]",
          "name": "ids",
          "type": "uint256[]"
        },
        {
          "indexed": false,
          "internalType": "uint256[]",
          "name": "values",
          "type": "uint256[]"
        }
      ],
      "name": "TransferBatch",
      "type": "event"
    },
    {
      "anonymous": false,
      "inputs": [
        {
          "indexed": true,
          "internalType": "address",
          "name": "operator",
          "type": "address"
        },
        {
          "indexed": true,
          "internalType": "address",
          "name": "from",
          "type": "address"
        },
        {
          "indexed": true,
          "internalType": "address",
          "name": "to",
          "type": "address"
        },
        {
          "indexed": false,
          "internalType": "uint256",
          "name": "id",
          "type": "uint256"
        },
        {
          "indexed": false,
          "internalType": "uint256",
          "name": "value",
          "type": "uint256"
        }
      ],
      "name": "TransferSingle",
      "type": "event"
    },
    {
      "anonymous": false,
      "inputs": [
        {
          "indexed": false,
          "internalType": "string",
          "name": "value",
          "type": "string"
        },
        {
          "indexed": true,
          "internalType": "uint256",
          "name": "id",
          "type": "uint256"
        }
      ],
      "name": "URI",
      "type": "event"
    },
    {
      "inputs": [
        {
          "internalType": "address",
          "name": "account",
          "type": "address"
        },
        {
          "internalType": "uint256",
          "name": "id",
          "type": "uint256"
        }
      ],
      "name": "balanceOf",
      "outputs": [
        {
          "internalType": "uint256",
          "name": "",
          "type": "uint256"
        }
      ],
      "stateMutability": "view",
      "type": "function"
    },
    {
      "inputs": [
        {
          "internalType": "address[]",
          "name": "accounts",
          "type": "address[]"
        },
        {
          "internalType": "uint256[]",
          "name": "ids",
          "type": "uint256[]"
        }
      ],
      "name": "balanceOfBatch",
      "outputs": [
        {
          "internalType": "uint256[]",
          "name": "",
          "type": "uint256[]"
        }
      ],
      "stateMutability": "view",
      "type": "function"
    },
    {
      "inputs": [
        {
          "internalType": "uint256",
          "name": "id",
          "type": "uint256"
        }
      ],
      "name": "bondmetaData",
      "outputs": [
        {
          "internalType": "string",
          "name": "",
          "type": "string"
        },
        {
          "internalType": "uint256",
          "name": "",
          "type": "uint256"
        },
        {
          "internalType": "uint256",
          "name": "",
          "type": "uint256"
        },
        {
          "internalType": "uint256",
          "name": "",
          "type": "uint256"
        },
        {
          "internalType": "uint256",
          "name": "",
          "type": "uint256"
        },
        {
          "internalType": "uint256",
          "name": "",
          "type": "uint256"
        },
        {
          "internalType": "uint256",
          "name": "",
          "type": "uint256"
        },
        {
          "internalType": "uint256",
          "name": "",
          "type": "uint256"
        },
        {
          "internalType": "uint256",
          "name": "",
          "type": "uint256"
        },
        {
          "internalType": "uint256",
          "name": "",
          "type": "uint256"
        },
        {
          "internalType": "uint256",
          "name": "",
          "type": "uint256"
        }
      ],
      "stateMutability": "view",
      "type": "function"
    },
    {
      "inputs": [
        {
          "internalType": "uint256",
          "name": "id",
          "type": "uint256"
        }
      ],
      "name": "couponRate",
      "outputs": [
        {
          "internalType": "uint256",
          "name": "",
          "type": "uint256"
        }
      ],
      "stateMutability": "view",
      "type": "function"
    },
    {
      "inputs": [
        {
          "internalType": "uint256",
          "name": "id",
          "type": "uint256"
        },
        {
          "internalType": "uint256",
          "name": "tokenAmount",
          "type": "uint256"
        }
      ],
      "name": "deposit",
      "outputs": [],
      "stateMutability": "nonpayable",
      "type": "function"
    },
    {
      "inputs": [
        {
          "internalType": "uint256",
          "name": "id",
          "type": "uint256"
        }
      ],
      "name": "designatedTokenAPool",
      "outputs": [
        {
          "internalType": "uint256",
          "name": "",
          "type": "uint256"
        }
      ],
      "stateMutability": "view",
      "type": "function"
    },
    {
      "inputs": [
        {
          "internalType": "uint256",
          "name": "id",
          "type": "uint256"
        }
      ],
      "name": "designatedTokenBPool",
      "outputs": [
        {
          "internalType": "uint256",
          "name": "",
          "type": "uint256"
        }
      ],
      "stateMutability": "view",
      "type": "function"
    },
    {
      "inputs": [],
      "name": "getAtoBExchangeRate",
      "outputs": [
        {
          "internalType": "uint256",
          "name": "",
          "type": "uint256"
        }
      ],
      "stateMutability": "view",
      "type": "function"
    },
    {
      "inputs": [],
      "name": "getLatestPriceA",
      "outputs": [
        {
          "internalType": "int256",
          "name": "",
          "type": "int256"
        }
      ],
      "stateMutability": "view",
      "type": "function"
    },
    {
      "inputs": [],
      "name": "getLatestPriceB",
      "outputs": [
        {
          "internalType": "int256",
          "name": "",
          "type": "int256"
        }
      ],
      "stateMutability": "view",
      "type": "function"
    },
    {
      "inputs": [
        {
          "internalType": "uint256",
          "name": "id",
          "type": "uint256"
        }
      ],
      "name": "hasReachedMaturity",
      "outputs": [
        {
          "internalType": "bool",
          "name": "",
          "type": "bool"
        }
      ],
      "stateMutability": "view",
      "type": "function"
    },
    {
      "inputs": [
        {
          "internalType": "uint256",
          "name": "id",
          "type": "uint256"
        }
      ],
      "name": "isActive",
      "outputs": [
        {
          "internalType": "bool",
          "name": "",
          "type": "bool"
        }
      ],
      "stateMutability": "view",
      "type": "function"
    },
    {
      "inputs": [
        {
          "internalType": "address",
          "name": "account",
          "type": "address"
        },
        {
          "internalType": "address",
          "name": "operator",
          "type": "address"
        }
      ],
      "name": "isApprovedForAll",
      "outputs": [
        {
          "internalType": "bool",
          "name": "",
          "type": "bool"
        }
      ],
      "stateMutability": "view",
      "type": "function"
    },
    {
      "inputs": [
        {
          "internalType": "uint256",
          "name": "id",
          "type": "uint256"
        }
      ],
      "name": "isCanceled",
      "outputs": [
        {
          "internalType": "bool",
          "name": "",
          "type": "bool"
        }
      ],
      "stateMutability": "view",
      "type": "function"
    },
    {
      "inputs": [
        {
          "internalType": "uint256",
          "name": "id",
          "type": "uint256"
        }
      ],
      "name": "isCompleted",
      "outputs": [
        {
          "internalType": "bool",
          "name": "",
          "type": "bool"
        }
      ],
      "stateMutability": "view",
      "type": "function"
    },
    {
      "inputs": [
        {
          "internalType": "uint256",
          "name": "id",
          "type": "uint256"
        }
      ],
      "name": "isCompletedInTheory",
      "outputs": [
        {
          "internalType": "bool",
          "name": "",
          "type": "bool"
        }
      ],
      "stateMutability": "view",
      "type": "function"
    },
    {
      "inputs": [
        {
          "internalType": "uint256",
          "name": "id",
          "type": "uint256"
        }
      ],
      "name": "isDefaulted",
      "outputs": [
        {
          "internalType": "bool",
          "name": "",
          "type": "bool"
        }
      ],
      "stateMutability": "view",
      "type": "function"
    },
    {
      "inputs": [
        {
          "internalType": "uint256",
          "name": "id",
          "type": "uint256"
        }
      ],
      "name": "isDefaultedInTheory",
      "outputs": [
        {
          "internalType": "bool",
          "name": "",
          "type": "bool"
        }
      ],
      "stateMutability": "view",
      "type": "function"
    },
    {
      "inputs": [
        {
          "internalType": "uint256",
          "name": "id",
          "type": "uint256"
        }
      ],
      "name": "isFulfilled",
      "outputs": [
        {
          "internalType": "bool",
          "name": "",
          "type": "bool"
        }
      ],
      "stateMutability": "view",
      "type": "function"
    },
    {
      "inputs": [
        {
          "internalType": "uint256",
          "name": "id",
          "type": "uint256"
        }
      ],
      "name": "isFullyRedeemed",
      "outputs": [
        {
          "internalType": "bool",
          "name": "",
          "type": "bool"
        }
      ],
      "stateMutability": "view",
      "type": "function"
    },
    {
      "inputs": [
        {
          "internalType": "uint256",
          "name": "bondQuantity",
          "type": "uint256"
        },
        {
          "internalType": "uint256",
          "name": "minPurchasedQuantity",
          "type": "uint256"
        },
        {
          "internalType": "uint256",
          "name": "tokenAAmountPerBond",
          "type": "uint256"
        },
        {
          "internalType": "string",
          "name": "ticker",
          "type": "string"
        },
        {
          "internalType": "uint256",
          "name": "durationDays",
          "type": "uint256"
        },
        {
          "internalType": "uint256",
          "name": "activeDurationInDays",
          "type": "uint256"
        },
        {
          "internalType": "uint256",
          "name": "rate",
          "type": "uint256"
        },
        {
          "internalType": "bytes",
          "name": "data",
          "type": "bytes"
        }
      ],
      "name": "issue",
      "outputs": [
        {
          "internalType": "uint256",
          "name": "id",
          "type": "uint256"
        }
      ],
      "stateMutability": "nonpayable",
      "type": "function"
    },
    {
      "inputs": [
        {
          "internalType": "uint256",
          "name": "id",
          "type": "uint256"
        }
      ],
      "name": "markAsCompleted",
      "outputs": [],
      "stateMutability": "nonpayable",
      "type": "function"
    },
    {
      "inputs": [
        {
          "internalType": "uint256",
          "name": "id",
          "type": "uint256"
        }
      ],
      "name": "markAsDefaulted",
      "outputs": [],
      "stateMutability": "nonpayable",
      "type": "function"
    },
    {
      "inputs": [
        {
          "internalType": "uint256",
          "name": "id",
          "type": "uint256"
        }
      ],
      "name": "poolAAmount",
      "outputs": [
        {
          "internalType": "uint256",
          "name": "",
          "type": "uint256"
        }
      ],
      "stateMutability": "view",
      "type": "function"
    },
    {
      "inputs": [
        {
          "internalType": "uint256",
          "name": "id",
          "type": "uint256"
        }
      ],
      "name": "poolBAmount",
      "outputs": [
        {
          "internalType": "uint256",
          "name": "",
          "type": "uint256"
        }
      ],
      "stateMutability": "view",
      "type": "function"
    },
    {
      "inputs": [
        {
          "internalType": "uint256",
          "name": "id",
          "type": "uint256"
        }
      ],
      "name": "principal",
      "outputs": [
        {
          "internalType": "uint256",
          "name": "",
          "type": "uint256"
        }
      ],
      "stateMutability": "view",
      "type": "function"
    },
    {
      "inputs": [
        {
          "internalType": "uint256",
          "name": "id",
          "type": "uint256"
        }
      ],
      "name": "principalWithInterest",
      "outputs": [
        {
          "internalType": "uint256",
          "name": "",
          "type": "uint256"
        }
      ],
      "stateMutability": "view",
      "type": "function"
    },
    {
      "inputs": [
        {
          "internalType": "uint256",
          "name": "id",
          "type": "uint256"
        },
        {
          "internalType": "uint256",
          "name": "bondQuantity",
          "type": "uint256"
        }
      ],
      "name": "purchase",
      "outputs": [],
      "stateMutability": "nonpayable",
      "type": "function"
    },
    {
      "inputs": [
        {
          "internalType": "uint256",
          "name": "id",
          "type": "uint256"
        },
        {
          "internalType": "uint256",
          "name": "bondQuantity",
          "type": "uint256"
        }
      ],
      "name": "redeem",
      "outputs": [],
      "stateMutability": "nonpayable",
      "type": "function"
    },
    {
      "inputs": [
        {
          "internalType": "uint256",
          "name": "id",
          "type": "uint256"
        },
        {
          "internalType": "uint256",
          "name": "bondQuantity",
          "type": "uint256"
        }
      ],
      "name": "redeemCanceled",
      "outputs": [],
      "stateMutability": "nonpayable",
      "type": "function"
    },
    {
      "inputs": [
        {
          "internalType": "uint256",
          "name": "id",
          "type": "uint256"
        },
        {
          "internalType": "uint256",
          "name": "bondQuantity",
          "type": "uint256"
        }
      ],
      "name": "redeemDefaulted",
      "outputs": [],
      "stateMutability": "nonpayable",
      "type": "function"
    },
    {
      "inputs": [
        {
          "internalType": "uint256",
          "name": "id",
          "type": "uint256"
        }
      ],
      "name": "remainingQuantity",
      "outputs": [
        {
          "internalType": "uint256",
          "name": "",
          "type": "uint256"
        }
      ],
      "stateMutability": "view",
      "type": "function"
    },
    {
      "inputs": [
        {
          "internalType": "address",
          "name": "from",
          "type": "address"
        },
        {
          "internalType": "address",
          "name": "to",
          "type": "address"
        },
        {
          "internalType": "uint256[]",
          "name": "ids",
          "type": "uint256[]"
        },
        {
          "internalType": "uint256[]",
          "name": "amounts",
          "type": "uint256[]"
        },
        {
          "internalType": "bytes",
          "name": "data",
          "type": "bytes"
        }
      ],
      "name": "safeBatchTransferFrom",
      "outputs": [],
      "stateMutability": "nonpayable",
      "type": "function"
    },
    {
      "inputs": [
        {
          "internalType": "address",
          "name": "from",
          "type": "address"
        },
        {
          "internalType": "address",
          "name": "to",
          "type": "address"
        },
        {
          "internalType": "uint256",
          "name": "id",
          "type": "uint256"
        },
        {
          "internalType": "uint256",
          "name": "amount",
          "type": "uint256"
        },
        {
          "internalType": "bytes",
          "name": "data",
          "type": "bytes"
        }
      ],
      "name": "safeTransferFrom",
      "outputs": [],
      "stateMutability": "nonpayable",
      "type": "function"
    },
    {
      "inputs": [
        {
          "internalType": "address",
          "name": "operator",
          "type": "address"
        },
        {
          "internalType": "bool",
          "name": "approved",
          "type": "bool"
        }
      ],
      "name": "setApprovalForAll",
      "outputs": [],
      "stateMutability": "nonpayable",
      "type": "function"
    },
    {
      "inputs": [
        {
          "internalType": "bytes4",
          "name": "interfaceId",
          "type": "bytes4"
        }
      ],
      "name": "supportsInterface",
      "outputs": [
        {
          "internalType": "bool",
          "name": "",
          "type": "bool"
        }
      ],
      "stateMutability": "view",
      "type": "function"
    },
    {
      "inputs": [
        {
          "internalType": "uint256",
          "name": "id",
          "type": "uint256"
        }
      ],
      "name": "timeElapsed",
      "outputs": [
        {
          "internalType": "uint256",
          "name": "",
          "type": "uint256"
        }
      ],
      "stateMutability": "view",
      "type": "function"
    },
    {
      "inputs": [
        {
          "internalType": "uint256",
          "name": "id",
          "type": "uint256"
        }
      ],
      "name": "timeRemainingToEndOfActive",
      "outputs": [
        {
          "internalType": "uint256",
          "name": "",
          "type": "uint256"
        }
      ],
      "stateMutability": "view",
      "type": "function"
    },
    {
      "inputs": [
        {
          "internalType": "uint256",
          "name": "id",
          "type": "uint256"
        }
      ],
      "name": "timeRemainingToMaturity",
      "outputs": [
        {
          "internalType": "uint256",
          "name": "",
          "type": "uint256"
        }
      ],
      "stateMutability": "view",
      "type": "function"
    },
    {
      "inputs": [],
      "name": "tvlA",
      "outputs": [
        {
          "internalType": "uint256",
          "name": "",
          "type": "uint256"
        }
      ],
      "stateMutability": "view",
      "type": "function"
    },
    {
      "inputs": [],
      "name": "tvlB",
      "outputs": [
        {
          "internalType": "uint256",
          "name": "",
          "type": "uint256"
        }
      ],
      "stateMutability": "view",
      "type": "function"
    },
    {
      "inputs": [
        {
          "internalType": "uint256",
          "name": "",
          "type": "uint256"
        }
      ],
      "name": "uri",
      "outputs": [
        {
          "internalType": "string",
          "name": "",
          "type": "string"
        }
      ],
      "stateMutability": "view",
      "type": "function"
    },
    {
      "inputs": [
        {
          "internalType": "uint256",
          "name": "id",
          "type": "uint256"
        },
        {
          "internalType": "uint256",
          "name": "tokenAmount",
          "type": "uint256"
        }
      ],
      "name": "withdraw",
      "outputs": [],
      "stateMutability": "nonpayable",
      "type": "function"
    },
    {
      "inputs": [
        {
          "internalType": "uint256",
          "name": "id",
          "type": "uint256"
        }
      ],
      "name": "withdrawExcess",
      "outputs": [],
      "stateMutability": "nonpayable",
      "type": "function"
    }
  ],
  "bytecode": "0x60e060405260006005553480156200001657600080fd5b50604051620069e7380380620069e783398181016040528101906200003c919062000386565b856200004e816200017960201b60201c565b508073ffffffffffffffffffffffffffffffffffffffff1660808173ffffffffffffffffffffffffffffffffffffffff16815250508473ffffffffffffffffffffffffffffffffffffffff1660a08173ffffffffffffffffffffffffffffffffffffffff16815250508373ffffffffffffffffffffffffffffffffffffffff1660c08173ffffffffffffffffffffffffffffffffffffffff168152505082600360006101000a81548173ffffffffffffffffffffffffffffffffffffffff021916908373ffffffffffffffffffffffffffffffffffffffff16021790555081600460006101000a81548173ffffffffffffffffffffffffffffffffffffffff021916908373ffffffffffffffffffffffffffffffffffffffff16021790555050505050505062000773565b80600290816200018a91906200068c565b5050565b6000604051905090565b600080fd5b600080fd5b600080fd5b600080fd5b6000601f19601f8301169050919050565b7f4e487b7100000000000000000000000000000000000000000000000000000000600052604160045260246000fd5b620001f782620001ac565b810181811067ffffffffffffffff82111715620002195762000218620001bd565b5b80604052505050565b60006200022e6200018e565b90506200023c8282620001ec565b919050565b600067ffffffffffffffff8211156200025f576200025e620001bd565b5b6200026a82620001ac565b9050602081019050919050565b60005b83811015620002975780820151818401526020810190506200027a565b60008484015250505050565b6000620002ba620002b48462000241565b62000222565b905082815260208101848484011115620002d957620002d8620001a7565b5b620002e684828562000277565b509392505050565b600082601f830112620003065762000305620001a2565b5b815162000318848260208601620002a3565b91505092915050565b600073ffffffffffffffffffffffffffffffffffffffff82169050919050565b60006200034e8262000321565b9050919050565b620003608162000341565b81146200036c57600080fd5b50565b600081519050620003808162000355565b92915050565b60008060008060008060c08789031215620003a657620003a562000198565b5b600087015167ffffffffffffffff811115620003c757620003c66200019d565b5b620003d589828a01620002ee565b9650506020620003e889828a016200036f565b9550506040620003fb89828a016200036f565b94505060606200040e89828a016200036f565b93505060806200042189828a016200036f565b92505060a06200043489828a016200036f565b9150509295509295509295565b600081519050919050565b7f4e487b7100000000000000000000000000000000000000000000000000000000600052602260045260246000fd5b600060028204905060018216806200049457607f821691505b602082108103620004aa57620004a96200044c565b5b50919050565b60008190508160005260206000209050919050565b60006020601f8301049050919050565b600082821b905092915050565b600060088302620005147fffffffffffffffffffffffffffffffffffffffffffffffffffffffffffffffff82620004d5565b620005208683620004d5565b95508019841693508086168417925050509392505050565b6000819050919050565b6000819050919050565b60006200056d62000567620005618462000538565b62000542565b62000538565b9050919050565b6000819050919050565b62000589836200054c565b620005a1620005988262000574565b848454620004e2565b825550505050565b600090565b620005b8620005a9565b620005c58184846200057e565b505050565b5b81811015620005ed57620005e1600082620005ae565b600181019050620005cb565b5050565b601f8211156200063c576200060681620004b0565b6200061184620004c5565b8101602085101562000621578190505b620006396200063085620004c5565b830182620005ca565b50505b505050565b600082821c905092915050565b6000620006616000198460080262000641565b1980831691505092915050565b60006200067c83836200064e565b9150826002028217905092915050565b620006978262000441565b67ffffffffffffffff811115620006b357620006b2620001bd565b5b620006bf82546200047b565b620006cc828285620005f1565b600060209050601f831160018114620007045760008415620006ef578287015190505b620006fb85826200066e565b8655506200076b565b601f1984166200071486620004b0565b60005b828110156200073e5784890151825560018201915060208501945060208101905062000717565b868310156200075e57848901516200075a601f8916826200064e565b8355505b6001600288020188555050505b505050505050565b60805160a05160c0516161e262000805600039600081816116a80152818161183301528181611d0301528181611f980152818161240301528181612ab70152612cb2015260008181610f96015281816114db01528181611c6401528181611ef9015281816121bd0152612dfd015260008181610d9d015281816124e60152818161295d0152612b5c01526161e26000f3fe608060405234801561001057600080fd5b50600436106102735760003560e01c80637a41984b11610151578063abac75e1116100c3578063d3b7811b11610087578063d3b7811b146108a6578063e2bbb158146108d6578063e755ddd7146108f2578063e985e9c51461090e578063f0f3d7de1461093e578063f242432a1461095c57610273565b8063abac75e1146107d4578063b09f2b1c14610804578063c0a6026c14610820578063c7bc57301461083c578063d32fe02e1461086c57610273565b80638f0dbf77116101155780638f0dbf77146106f0578063932a8de014610720578063a22cb46514610750578063a87430221461076c578063a996ef0814610788578063aa81106c146107a457610273565b80637a41984b146106265780637bf24456146106565780637cbc23731461067457806382afd23b1461069057806388bdc083146106c057610273565b8063441a3e70116101ea57806364893aaf116101ae57806364893aaf1461052c578063697e8c8c1461055c5780636ff80d931461058c57806370876c98146105bc578063769d96eb146105d857806377e2a08b146105f657610273565b8063441a3e70146104745780634556e49b146104905780634e1273f4146104ae578063549493bb146104de578063634ef3031461050e57610273565b806314f294931161023c57806314f29493146103685780632eb2c2d6146103985780632f2c6b32146103b45780632f3ad61f146103e45780633097afb81461041457806339e3af9b1461044457610273565b8062fdd58e1461027857806301ffc9a7146102a857806308913ce8146102d857806309149020146103085780630e89341c14610338575b600080fd5b610292600480360381019061028d9190613fce565b610978565b60405161029f919061401d565b60405180910390f35b6102c260048036038101906102bd9190614090565b610a40565b6040516102cf91906140d8565b60405180910390f35b6102f260048036038101906102ed91906140f3565b610b22565b6040516102ff919061401d565b60405180910390f35b610322600480360381019061031d91906140f3565b610b4d565b60405161032f91906140d8565b60405180910390f35b610352600480360381019061034d91906140f3565b610b83565b60405161035f91906141b0565b60405180910390f35b610382600480360381019061037d91906140f3565b610c17565b60405161038f919061401d565b60405180910390f35b6103b260048036038101906103ad91906143cf565b610c55565b005b6103ce60048036038101906103c991906140f3565b610cf6565b6040516103db919061401d565b60405180910390f35b6103fe60048036038101906103f991906140f3565b610d13565b60405161040b91906140d8565b60405180910390f35b61042e600480360381019061042991906140f3565b610d3d565b60405161043b91906140d8565b60405180910390f35b61045e600480360381019061045991906140f3565b610d76565b60405161046b91906140d8565b60405180910390f35b61048e6004803603810190610489919061449e565b610d9b565b005b610498611037565b6040516104a5919061401d565b60405180910390f35b6104c860048036038101906104c391906145a1565b611067565b6040516104d591906146d7565b60405180910390f35b6104f860048036038101906104f391906140f3565b611180565b60405161050591906140d8565b60405180910390f35b6105166111b2565b6040516105239190614712565b60405180910390f35b610546600480360381019061054191906140f3565b611253565b604051610553919061401d565b60405180910390f35b610576600480360381019061057191906140f3565b611270565b604051610583919061401d565b60405180910390f35b6105a660048036038101906105a191906140f3565b61128d565b6040516105b391906140d8565b60405180910390f35b6105d660048036038101906105d1919061449e565b6112c5565b005b6105e0611580565b6040516105ed9190614712565b60405180910390f35b610610600480360381019061060b91906140f3565b611621565b60405161061d919061401d565b60405180910390f35b610640600480360381019061063b91906140f3565b61167a565b60405161064d91906140d8565b60405180910390f35b61065e6116a4565b60405161066b919061401d565b60405180910390f35b61068e6004803603810190610689919061449e565b611745565b005b6106aa60048036038101906106a591906140f3565b6118ff565b6040516106b791906140d8565b60405180910390f35b6106da60048036038101906106d591906140f3565b611922565b6040516106e7919061401d565b60405180910390f35b61070a600480360381019061070591906140f3565b611955565b60405161071791906140d8565b60405180910390f35b61073a600480360381019061073591906140f3565b611977565b604051610747919061401d565b60405180910390f35b61076a60048036038101906107659190614759565b6119b5565b005b610786600480360381019061078191906140f3565b6119cb565b005b6107a2600480360381019061079d919061449e565b611de8565b005b6107be60048036038101906107b991906140f3565b61208f565b6040516107cb919061401d565b60405180910390f35b6107ee60048036038101906107e991906140f3565b6120ac565b6040516107fb919061401d565b60405180910390f35b61081e6004803603810190610819919061449e565b6120cc565b005b61083a600480360381019061083591906140f3565b612289565b005b610856600480360381019061085191906147f4565b6124e2565b604051610863919061401d565b60405180910390f35b610886600480360381019061088191906140f3565b61279e565b60405161089d9b9a999897969594939291906148e6565b60405180910390f35b6108c060048036038101906108bb91906140f3565b612928565b6040516108cd919061401d565b60405180910390f35b6108f060048036038101906108eb919061449e565b61295b565b005b61090c600480360381019061090791906140f3565b612b5a565b005b61092860048036038101906109239190614998565b612d65565b60405161093591906140d8565b60405180910390f35b610946612df9565b604051610953919061401d565b60405180910390f35b610976600480360381019061097191906149d8565b612e9a565b005b60008073ffffffffffffffffffffffffffffffffffffffff168373ffffffffffffffffffffffffffffffffffffffff16036109e8576040517f08c379a00000000000000000000000000000000000000000000000000000000081526004016109df90614ae1565b60405180910390fd5b60008083815260200190815260200160002060008473ffffffffffffffffffffffffffffffffffffffff1673ffffffffffffffffffffffffffffffffffffffff16815260200190815260200160002054905092915050565b60007fd9b67a26000000000000000000000000000000000000000000000000000000007bffffffffffffffffffffffffffffffffffffffffffffffffffffffff1916827bffffffffffffffffffffffffffffffffffffffffffffffffffffffff19161480610b0b57507f0e89341c000000000000000000000000000000000000000000000000000000007bffffffffffffffffffffffffffffffffffffffffffffffffffffffff1916827bffffffffffffffffffffffffffffffffffffffffffffffffffffffff1916145b80610b1b5750610b1a82612f3b565b5b9050919050565b6000600660008381526020019081526020016000206003015442610b469190614b30565b9050919050565b60006006600083815260200190815260200160002060090154600760008481526020019081526020016000205410159050919050565b606060028054610b9290614b93565b80601f0160208091040260200160405190810160405280929190818152602001828054610bbe90614b93565b8015610c0b5780601f10610be057610100808354040283529160200191610c0b565b820191906000526020600020905b815481529060010190602001808311610bee57829003601f168201915b50505050509050919050565b600060076000838152602001908152602001600020546006600084815260200190815260200160002060020154610c4e9190614bc4565b9050919050565b610c5d612fa5565b73ffffffffffffffffffffffffffffffffffffffff168573ffffffffffffffffffffffffffffffffffffffff161480610ca35750610ca285610c9d612fa5565b612d65565b5b610ce2576040517f08c379a0000000000000000000000000000000000000000000000000000000008152600401610cd990614c78565b60405180910390fd5b610cef8585858585612fad565b5050505050565b600060096000838152602001908152602001600020549050919050565b6000600e600083815260200190815260200160002060009054906101000a900460ff169050919050565b6000610d4882611955565b8015610d6f5750610d5882611621565b600a60008481526020019081526020016000205410155b9050919050565b6000610d81826118ff565b158015610d945750610d9282610b4d565b155b9050919050565b7f000000000000000000000000000000000000000000000000000000000000000073ffffffffffffffffffffffffffffffffffffffff163373ffffffffffffffffffffffffffffffffffffffff1614610e29576040517f08c379a0000000000000000000000000000000000000000000000000000000008152600401610e2090614ce4565b60405180910390fd5b610e32826118ff565b15610e72576040517f08c379a0000000000000000000000000000000000000000000000000000000008152600401610e6990614d50565b60405180910390fd5b610e7b82610d76565b15610ebb576040517f08c379a0000000000000000000000000000000000000000000000000000000008152600401610eb290614d50565b60405180910390fd5b610ec482610d13565b80610ed45750610ed38261128d565b5b15610f14576040517f08c379a0000000000000000000000000000000000000000000000000000000008152600401610f0b90614de2565b60405180910390fd5b6009600083815260200190815260200160002054811115610f6a576040517f08c379a0000000000000000000000000000000000000000000000000000000008152600401610f6190614e74565b60405180910390fd5b80600960008481526020019081526020016000206000828254610f8d9190614b30565b925050819055507f000000000000000000000000000000000000000000000000000000000000000073ffffffffffffffffffffffffffffffffffffffff1663a9059cbb33836040518363ffffffff1660e01b8152600401610fef929190614ea3565b6020604051808303816000875af115801561100e573d6000803e3d6000fd5b505050506040513d601f19601f820116820180604052508101906110329190614ee1565b505050565b6000611041611580565b633b9aca0061104e6111b2565b6110589190614bc4565b6110629190614f3d565b905090565b606081518351146110ad576040517f08c379a00000000000000000000000000000000000000000000000000000000081526004016110a490614fe0565b60405180910390fd5b6000835167ffffffffffffffff8111156110ca576110c96141d7565b5b6040519080825280602002602001820160405280156110f85781602001602082028036833780820191505090505b50905060005b84518110156111755761114585828151811061111d5761111c615000565b5b602002602001015185838151811061113857611137615000565b5b6020026020010151610978565b82828151811061115857611157615000565b5b6020026020010181815250508061116e9061502f565b90506110fe565b508091505092915050565b600060076000838152602001908152602001600020546008600084815260200190815260200160002054149050919050565b600080600360009054906101000a900473ffffffffffffffffffffffffffffffffffffffff1673ffffffffffffffffffffffffffffffffffffffff1663feaf968c6040518163ffffffff1660e01b815260040160a060405180830381865afa158015611222573d6000803e3d6000fd5b505050506040513d601f19601f8201168201806040525081019061124691906150fa565b5050509150508091505090565b6000600a6000838152602001908152602001600020549050919050565b600060096000838152602001908152602001600020549050919050565b600061129882611955565b80156112be57506112a882611621565b600a600084815260200190815260200160002054105b9050919050565b6112ce826118ff565b61130d576040517f08c379a0000000000000000000000000000000000000000000000000000000008152600401611304906151c1565b60405180910390fd5b8061131783611977565b1015611358576040517f08c379a000000000000000000000000000000000000000000000000000000000815260040161134f90615253565b60405180910390fd5b6000600660008481526020019081526020016000206040518061016001604052908160008201805461138990614b93565b80601f01602080910402602001604051908101604052809291908181526020018280546113b590614b93565b80156114025780601f106113d757610100808354040283529160200191611402565b820191906000526020600020905b8154815290600101906020018083116113e557829003601f168201915b50505050508152602001600182015481526020016002820154815260200160038201548152602001600482015481526020016005820154815260200160068201548152602001600782015481526020016008820154815260200160098201548152602001600a82015481525050905060008160200151836114839190614bc4565b9050826007600086815260200190815260200160002060008282546114a89190615273565b92505081905550806009600086815260200190815260200160002060008282546114d29190615273565b925050819055507f000000000000000000000000000000000000000000000000000000000000000073ffffffffffffffffffffffffffffffffffffffff166323b872dd3330846040518463ffffffff1660e01b8152600401611536939291906152a7565b6020604051808303816000875af1158015611555573d6000803e3d6000fd5b505050506040513d601f19601f820116820180604052508101906115799190614ee1565b5050505050565b600080600460009054906101000a900473ffffffffffffffffffffffffffffffffffffffff1673ffffffffffffffffffffffffffffffffffffffff1663feaf968c6040518163ffffffff1660e01b815260040160a060405180830381865afa1580156115f0573d6000803e3d6000fd5b505050506040513d601f19601f8201168201806040525081019061161491906150fa565b5050509150508091505090565b6000670de0b6b3a764000060066000848152602001908152602001600020600a015461164c84610c17565b6116569190614bc4565b6116609190614f3d565b61166983610c17565b6116739190615273565b9050919050565b6000600f600083815260200190815260200160002060009054906101000a900460ff169050919050565b60007f000000000000000000000000000000000000000000000000000000000000000073ffffffffffffffffffffffffffffffffffffffff166370a08231306040518263ffffffff1660e01b81526004016116ff91906152de565b602060405180830381865afa15801561171c573d6000803e3d6000fd5b505050506040513d601f19601f8201168201806040525081019061174091906152f9565b905090565b61174e8261167a565b61178d576040517f08c379a000000000000000000000000000000000000000000000000000000000815260040161178490615372565b60405180910390fd5b806117983384610978565b10156117d9576040517f08c379a00000000000000000000000000000000000000000000000000000000081526004016117d0906153de565b60405180910390fd5b6117e43383836132ce565b806008600084815260200190815260200160002060008282546118079190615273565b925050819055506000600d6000848152602001908152602001600020548261182f9190614bc4565b90507f000000000000000000000000000000000000000000000000000000000000000073ffffffffffffffffffffffffffffffffffffffff1663a9059cbb33836040518363ffffffff1660e01b815260040161188c929190614ea3565b6020604051808303816000875af11580156118ab573d6000803e3d6000fd5b505050506040513d601f19601f820116820180604052508101906118cf9190614ee1565b5080600a600085815260200190815260200160002060008282546118f39190614b30565b92505081905550505050565b600060066000838152602001908152602001600020600501544211159050919050565b600061192d82610b22565b600660008481526020019081526020016000206006015461194e9190614b30565b9050919050565b6000600660008381526020019081526020016000206004015442119050919050565b6000600760008381526020019081526020016000205460066000848152602001908152602001600020600801546119ae9190614b30565b9050919050565b6119c76119c0612fa5565b8383613514565b5050565b6119d48161167a565b1580156119e757506119e581610d13565b155b80156119f857506119f78161128d565b5b611a37576040517f08c379a0000000000000000000000000000000000000000000000000000000008152600401611a2e9061544a565b60405180910390fd5b6000611a4282611621565b905060006103e86009600085815260200190815260200160002054611a679190614f3d565b905060006103e8600a600086815260200190815260200160002054611a8c9190614f3d565b90506000826009600087815260200190815260200160002054611aaf9190614b30565b9050600082600a600088815260200190815260200160002054611ad29190614b30565b9050600760008781526020019081526020016000205482611af39190614f3d565b600b600088815260200190815260200160002081905550600760008781526020019081526020016000205481611b299190614f3d565b600c60008881526020019081526020016000208190555060006007600088815260200190815260200160002054600b600089815260200190815260200160002054611b749190614bc4565b83611b7f9190614b30565b905060006007600089815260200190815260200160002054600c60008a815260200190815260200160002054611bb59190614bc4565b83611bc09190614b30565b905060008287611bd09190615273565b905060008287611be09190615273565b905081600960008c81526020019081526020016000206000828254611c059190614b30565b9250508190555080600a60008c81526020019081526020016000206000828254611c2f9190614b30565b925050819055506001600e60008c815260200190815260200160002060006101000a81548160ff0219169083151502179055507f000000000000000000000000000000000000000000000000000000000000000073ffffffffffffffffffffffffffffffffffffffff1663a9059cbb33846040518363ffffffff1660e01b8152600401611cbd929190614ea3565b6020604051808303816000875af1158015611cdc573d6000803e3d6000fd5b505050506040513d601f19601f82011682018060405250810190611d009190614ee1565b507f000000000000000000000000000000000000000000000000000000000000000073ffffffffffffffffffffffffffffffffffffffff1663a9059cbb33836040518363ffffffff1660e01b8152600401611d5c929190614ea3565b6020604051808303816000875af1158015611d7b573d6000803e3d6000fd5b505050506040513d601f19601f82011682018060405250810190611d9f9190614ee1565b50897fcd2c25949e23ea2647ca2c5809b025ee3aca0d82cfcb1d22a715398f5cf8db8e8a8789604051611dd49392919061546a565b60405180910390a250505050505050505050565b611df182610d13565b611e30576040517f08c379a0000000000000000000000000000000000000000000000000000000008152600401611e279061544a565b60405180910390fd5b80611e3b3384610978565b1015611e7c576040517f08c379a0000000000000000000000000000000000000000000000000000000008152600401611e73906153de565b60405180910390fd5b611e873383836132ce565b80600860008481526020019081526020016000206000828254611eaa9190615273565b925050819055506000600b60008481526020019081526020016000205482611ed29190614bc4565b90506000600c60008581526020019081526020016000205483611ef59190614bc4565b90507f000000000000000000000000000000000000000000000000000000000000000073ffffffffffffffffffffffffffffffffffffffff1663a9059cbb33846040518363ffffffff1660e01b8152600401611f52929190614ea3565b6020604051808303816000875af1158015611f71573d6000803e3d6000fd5b505050506040513d601f19601f82011682018060405250810190611f959190614ee1565b507f000000000000000000000000000000000000000000000000000000000000000073ffffffffffffffffffffffffffffffffffffffff1663a9059cbb33836040518363ffffffff1660e01b8152600401611ff1929190614ea3565b6020604051808303816000875af1158015612010573d6000803e3d6000fd5b505050506040513d601f19601f820116820180604052508101906120349190614ee1565b50816009600086815260200190815260200160002060008282546120589190614b30565b9250508190555080600a600086815260200190815260200160002060008282546120829190614b30565b9250508190555050505050565b6000600a6000838152602001908152602001600020549050919050565b600060066000838152602001908152602001600020600a01549050919050565b6120d582610d76565b612114576040517f08c379a000000000000000000000000000000000000000000000000000000000815260040161210b906154ed565b60405180910390fd5b8061211f3384610978565b1015612160576040517f08c379a0000000000000000000000000000000000000000000000000000000008152600401612157906153de565b60405180910390fd5b61216b3383836132ce565b8060086000848152602001908152602001600020600082825461218e9190615273565b9250508190555060006006600084815260200190815260200160002060010154826121b99190614bc4565b90507f000000000000000000000000000000000000000000000000000000000000000073ffffffffffffffffffffffffffffffffffffffff1663a9059cbb33836040518363ffffffff1660e01b8152600401612216929190614ea3565b6020604051808303816000875af1158015612235573d6000803e3d6000fd5b505050506040513d601f19601f820116820180604052508101906122599190614ee1565b508060096000858152602001908152602001600020600082825461227d9190614b30565b92505081905550505050565b61229281610d13565b1580156122a557506122a38161167a565b155b80156122b657506122b581610d3d565b5b6122f5576040517f08c379a00000000000000000000000000000000000000000000000000000000081526004016122ec90615372565b60405180910390fd5b600061230082611621565b905060006103e8826123129190614f3d565b9050600081836123229190614b30565b90506007600085815260200190815260200160002054816123439190614f3d565b600d60008681526020019081526020016000208190555060006007600086815260200190815260200160002054600d60008781526020019081526020016000205461238e9190614bc4565b826123999190614b30565b9050600081846123a99190615273565b905080600a600088815260200190815260200160002060008282546123ce9190614b30565b925050819055506001600f600088815260200190815260200160002060006101000a81548160ff0219169083151502179055507f000000000000000000000000000000000000000000000000000000000000000073ffffffffffffffffffffffffffffffffffffffff1663a9059cbb33836040518363ffffffff1660e01b815260040161245c929190614ea3565b6020604051808303816000875af115801561247b573d6000803e3d6000fd5b505050506040513d601f19601f8201168201806040525081019061249f9190614ee1565b50857fac2eeaf45d1b75aed6b3285cda3efb3c382cce02ba313558bbb90be57f8843e486856040516124d292919061550d565b60405180910390a2505050505050565b60007f000000000000000000000000000000000000000000000000000000000000000073ffffffffffffffffffffffffffffffffffffffff163373ffffffffffffffffffffffffffffffffffffffff1614612572576040517f08c379a000000000000000000000000000000000000000000000000000000000815260040161256990614ce4565b60405180910390fd5b8484106125b4576040517f08c379a00000000000000000000000000000000000000000000000000000000081526004016125ab906155a8565b60405180910390fd5b60016005546125c39190615273565b90506125d133828c85613680565b60006125db611037565b90506000633b9aca008a836125f09190614bc4565b6125fa9190614f3d565b90506040518061016001604052808a8a8080601f016020809104026020016040519081016040528093929190818152602001838380828437600081840152601f19601f8201169050808301925050505050505081526020018b815260200182815260200142815260200162015180896126739190614bc4565b4261267e9190615273565b815260200162015180886126929190614bc4565b4261269d9190615273565b81526020018781526020018881526020018d81526020018c8152602001868152506006600085815260200190815260200160002060008201518160000190816126e69190615774565b506020820151816001015560408201518160020155606082015181600301556080820151816004015560a0820151816005015560c0820151816006015560e082015181600701556101008201518160080155610120820151816009015561014082015181600a0155905050827ff73e436c94925e1e8b2f0b16de0a2c56aea7fb27878f7815811bc05bc6c335e88d8c84896040516127879493929190615846565b60405180910390a250509998505050505050505050565b60606000806000806000806000806000806000600660008e8152602001908152602001600020604051806101600160405290816000820180546127e090614b93565b80601f016020809104026020016040519081016040528092919081815260200182805461280c90614b93565b80156128595780601f1061282e57610100808354040283529160200191612859565b820191906000526020600020905b81548152906001019060200180831161283c57829003601f168201915b50505050508152602001600182015481526020016002820154815260200160038201548152602001600482015481526020016005820154815260200160068201548152602001600782015481526020016008820154815260200160098201548152602001600a820154815250509050806000015181602001518260400151836060015184608001518560a001518660c001518760e001518861010001518961012001518a61014001519b509b509b509b509b509b509b509b509b509b509b505091939597999b90929496989a50565b600061293382610b22565b60066000848152602001908152602001600020600701546129549190614b30565b9050919050565b7f000000000000000000000000000000000000000000000000000000000000000073ffffffffffffffffffffffffffffffffffffffff163373ffffffffffffffffffffffffffffffffffffffff16146129e9576040517f08c379a00000000000000000000000000000000000000000000000000000000081526004016129e090614ce4565b60405180910390fd5b6129f282610d13565b80612a025750612a018261128d565b5b15612a42576040517f08c379a0000000000000000000000000000000000000000000000000000000008152600401612a39906158d7565b60405180910390fd5b612a4b8261167a565b15612a8b576040517f08c379a0000000000000000000000000000000000000000000000000000000008152600401612a8290615943565b60405180910390fd5b80600a60008481526020019081526020016000206000828254612aae9190615273565b925050819055507f000000000000000000000000000000000000000000000000000000000000000073ffffffffffffffffffffffffffffffffffffffff166323b872dd3330846040518463ffffffff1660e01b8152600401612b12939291906152a7565b6020604051808303816000875af1158015612b31573d6000803e3d6000fd5b505050506040513d601f19601f82011682018060405250810190612b559190614ee1565b505050565b7f000000000000000000000000000000000000000000000000000000000000000073ffffffffffffffffffffffffffffffffffffffff163373ffffffffffffffffffffffffffffffffffffffff1614612be8576040517f08c379a0000000000000000000000000000000000000000000000000000000008152600401612bdf90614ce4565b60405180910390fd5b612bf18161167a565b8015612c025750612c0181611180565b5b612c41576040517f08c379a0000000000000000000000000000000000000000000000000000000008152600401612c38906159af565b60405180910390fd5b6000600a60008381526020019081526020016000205411612c97576040517f08c379a0000000000000000000000000000000000000000000000000000000008152600401612c8e90615a1b565b60405180910390fd5b6000600a6000838152602001908152602001600020819055507f000000000000000000000000000000000000000000000000000000000000000073ffffffffffffffffffffffffffffffffffffffff1663a9059cbb33600a6000858152602001908152602001600020546040518363ffffffff1660e01b8152600401612d1e929190614ea3565b6020604051808303816000875af1158015612d3d573d6000803e3d6000fd5b505050506040513d601f19601f82011682018060405250810190612d619190614ee1565b5050565b6000600160008473ffffffffffffffffffffffffffffffffffffffff1673ffffffffffffffffffffffffffffffffffffffff16815260200190815260200160002060008373ffffffffffffffffffffffffffffffffffffffff1673ffffffffffffffffffffffffffffffffffffffff16815260200190815260200160002060009054906101000a900460ff16905092915050565b60007f000000000000000000000000000000000000000000000000000000000000000073ffffffffffffffffffffffffffffffffffffffff166370a08231306040518263ffffffff1660e01b8152600401612e5491906152de565b602060405180830381865afa158015612e71573d6000803e3d6000fd5b505050506040513d601f19601f82011682018060405250810190612e9591906152f9565b905090565b612ea2612fa5565b73ffffffffffffffffffffffffffffffffffffffff168573ffffffffffffffffffffffffffffffffffffffff161480612ee85750612ee785612ee2612fa5565b612d65565b5b612f27576040517f08c379a0000000000000000000000000000000000000000000000000000000008152600401612f1e90614c78565b60405180910390fd5b612f348585858585613830565b5050505050565b60007f01ffc9a7000000000000000000000000000000000000000000000000000000007bffffffffffffffffffffffffffffffffffffffffffffffffffffffff1916827bffffffffffffffffffffffffffffffffffffffffffffffffffffffff1916149050919050565b600033905090565b8151835114612ff1576040517f08c379a0000000000000000000000000000000000000000000000000000000008152600401612fe890615aad565b60405180910390fd5b600073ffffffffffffffffffffffffffffffffffffffff168473ffffffffffffffffffffffffffffffffffffffff1603613060576040517f08c379a000000000000000000000000000000000000000000000000000000000815260040161305790615b3f565b60405180910390fd5b600061306a612fa5565b905061307a818787878787613acb565b60005b845181101561322b57600085828151811061309b5761309a615000565b5b6020026020010151905060008583815181106130ba576130b9615000565b5b60200260200101519050600080600084815260200190815260200160002060008b73ffffffffffffffffffffffffffffffffffffffff1673ffffffffffffffffffffffffffffffffffffffff1681526020019081526020016000205490508181101561315b576040517f08c379a000000000000000000000000000000000000000000000000000000000815260040161315290615bd1565b60405180910390fd5b81810360008085815260200190815260200160002060008c73ffffffffffffffffffffffffffffffffffffffff1673ffffffffffffffffffffffffffffffffffffffff168152602001908152602001600020819055508160008085815260200190815260200160002060008b73ffffffffffffffffffffffffffffffffffffffff1673ffffffffffffffffffffffffffffffffffffffff16815260200190815260200160002060008282546132109190615273565b92505081905550505050806132249061502f565b905061307d565b508473ffffffffffffffffffffffffffffffffffffffff168673ffffffffffffffffffffffffffffffffffffffff168273ffffffffffffffffffffffffffffffffffffffff167f4a39dc06d4c0dbc64b70af90fd698a233a518aa5d07e595d983b8c0526c8f7fb87876040516132a2929190615bf1565b60405180910390a46132b8818787878787613ad3565b6132c6818787878787613adb565b505050505050565b600073ffffffffffffffffffffffffffffffffffffffff168373ffffffffffffffffffffffffffffffffffffffff160361333d576040517f08c379a000000000000000000000000000000000000000000000000000000000815260040161333490615c9a565b60405180910390fd5b6000613347612fa5565b9050600061335484613cb2565b9050600061336184613cb2565b905061338183876000858560405180602001604052806000815250613acb565b600080600087815260200190815260200160002060008873ffffffffffffffffffffffffffffffffffffffff1673ffffffffffffffffffffffffffffffffffffffff16815260200190815260200160002054905084811015613418576040517f08c379a000000000000000000000000000000000000000000000000000000000815260040161340f90615d2c565b60405180910390fd5b84810360008088815260200190815260200160002060008973ffffffffffffffffffffffffffffffffffffffff1673ffffffffffffffffffffffffffffffffffffffff16815260200190815260200160002081905550600073ffffffffffffffffffffffffffffffffffffffff168773ffffffffffffffffffffffffffffffffffffffff168573ffffffffffffffffffffffffffffffffffffffff167fc3d58168c5ae7397731d063d5bbf3d657854427343f4c083240f7aacaa2d0f6289896040516134e592919061550d565b60405180910390a461350b84886000868660405180602001604052806000815250613ad3565b50505050505050565b8173ffffffffffffffffffffffffffffffffffffffff168373ffffffffffffffffffffffffffffffffffffffff1603613582576040517f08c379a000000000000000000000000000000000000000000000000000000000815260040161357990615dbe565b60405180910390fd5b80600160008573ffffffffffffffffffffffffffffffffffffffff1673ffffffffffffffffffffffffffffffffffffffff16815260200190815260200160002060008473ffffffffffffffffffffffffffffffffffffffff1673ffffffffffffffffffffffffffffffffffffffff16815260200190815260200160002060006101000a81548160ff0219169083151502179055508173ffffffffffffffffffffffffffffffffffffffff168373ffffffffffffffffffffffffffffffffffffffff167f17307eab39ab6107e8899845ad3d59bd9653f200f220920489ca2b5937696c318360405161367391906140d8565b60405180910390a3505050565b600073ffffffffffffffffffffffffffffffffffffffff168473ffffffffffffffffffffffffffffffffffffffff16036136ef576040517f08c379a00000000000000000000000000000000000000000000000000000000081526004016136e690615e50565b60405180910390fd5b60006136f9612fa5565b9050600061370685613cb2565b9050600061371385613cb2565b905061372483600089858589613acb565b8460008088815260200190815260200160002060008973ffffffffffffffffffffffffffffffffffffffff1673ffffffffffffffffffffffffffffffffffffffff16815260200190815260200160002060008282546137839190615273565b925050819055508673ffffffffffffffffffffffffffffffffffffffff16600073ffffffffffffffffffffffffffffffffffffffff168473ffffffffffffffffffffffffffffffffffffffff167fc3d58168c5ae7397731d063d5bbf3d657854427343f4c083240f7aacaa2d0f62898960405161380192919061550d565b60405180910390a461381883600089858589613ad3565b61382783600089898989613d2c565b50505050505050565b600073ffffffffffffffffffffffffffffffffffffffff168473ffffffffffffffffffffffffffffffffffffffff160361389f576040517f08c379a000000000000000000000000000000000000000000000000000000000815260040161389690615b3f565b60405180910390fd5b60006138a9612fa5565b905060006138b685613cb2565b905060006138c385613cb2565b90506138d3838989858589613acb565b600080600088815260200190815260200160002060008a73ffffffffffffffffffffffffffffffffffffffff1673ffffffffffffffffffffffffffffffffffffffff1681526020019081526020016000205490508581101561396a576040517f08c379a000000000000000000000000000000000000000000000000000000000815260040161396190615bd1565b60405180910390fd5b85810360008089815260200190815260200160002060008b73ffffffffffffffffffffffffffffffffffffffff1673ffffffffffffffffffffffffffffffffffffffff168152602001908152602001600020819055508560008089815260200190815260200160002060008a73ffffffffffffffffffffffffffffffffffffffff1673ffffffffffffffffffffffffffffffffffffffff1681526020019081526020016000206000828254613a1f9190615273565b925050819055508773ffffffffffffffffffffffffffffffffffffffff168973ffffffffffffffffffffffffffffffffffffffff168573ffffffffffffffffffffffffffffffffffffffff167fc3d58168c5ae7397731d063d5bbf3d657854427343f4c083240f7aacaa2d0f628a8a604051613a9c92919061550d565b60405180910390a4613ab2848a8a86868a613ad3565b613ac0848a8a8a8a8a613d2c565b505050505050505050565b505050505050565b505050505050565b613afa8473ffffffffffffffffffffffffffffffffffffffff16613f03565b15613caa578373ffffffffffffffffffffffffffffffffffffffff1663bc197c8187878686866040518663ffffffff1660e01b8152600401613b40959493929190615ec5565b6020604051808303816000875af1925050508015613b7c57506040513d601f19601f82011682018060405250810190613b799190615f42565b60015b613c2157613b88615f7c565b806308c379a003613be45750613b9c615f9e565b80613ba75750613be6565b806040517f08c379a0000000000000000000000000000000000000000000000000000000008152600401613bdb91906141b0565b60405180910390fd5b505b6040517f08c379a0000000000000000000000000000000000000000000000000000000008152600401613c18906160a0565b60405180910390fd5b63bc197c8160e01b7bffffffffffffffffffffffffffffffffffffffffffffffffffffffff1916817bffffffffffffffffffffffffffffffffffffffffffffffffffffffff191614613ca8576040517f08c379a0000000000000000000000000000000000000000000000000000000008152600401613c9f90616132565b60405180910390fd5b505b505050505050565b60606000600167ffffffffffffffff811115613cd157613cd06141d7565b5b604051908082528060200260200182016040528015613cff5781602001602082028036833780820191505090505b5090508281600081518110613d1757613d16615000565b5b60200260200101818152505080915050919050565b613d4b8473ffffffffffffffffffffffffffffffffffffffff16613f03565b15613efb578373ffffffffffffffffffffffffffffffffffffffff1663f23a6e6187878686866040518663ffffffff1660e01b8152600401613d91959493929190616152565b6020604051808303816000875af1925050508015613dcd57506040513d601f19601f82011682018060405250810190613dca9190615f42565b60015b613e7257613dd9615f7c565b806308c379a003613e355750613ded615f9e565b80613df85750613e37565b806040517f08c379a0000000000000000000000000000000000000000000000000000000008152600401613e2c91906141b0565b60405180910390fd5b505b6040517f08c379a0000000000000000000000000000000000000000000000000000000008152600401613e69906160a0565b60405180910390fd5b63f23a6e6160e01b7bffffffffffffffffffffffffffffffffffffffffffffffffffffffff1916817bffffffffffffffffffffffffffffffffffffffffffffffffffffffff191614613ef9576040517f08c379a0000000000000000000000000000000000000000000000000000000008152600401613ef090616132565b60405180910390fd5b505b505050505050565b6000808273ffffffffffffffffffffffffffffffffffffffff163b119050919050565b6000604051905090565b600080fd5b600080fd5b600073ffffffffffffffffffffffffffffffffffffffff82169050919050565b6000613f6582613f3a565b9050919050565b613f7581613f5a565b8114613f8057600080fd5b50565b600081359050613f9281613f6c565b92915050565b6000819050919050565b613fab81613f98565b8114613fb657600080fd5b50565b600081359050613fc881613fa2565b92915050565b60008060408385031215613fe557613fe4613f30565b5b6000613ff385828601613f83565b925050602061400485828601613fb9565b9150509250929050565b61401781613f98565b82525050565b6000602082019050614032600083018461400e565b92915050565b60007fffffffff0000000000000000000000000000000000000000000000000000000082169050919050565b61406d81614038565b811461407857600080fd5b50565b60008135905061408a81614064565b92915050565b6000602082840312156140a6576140a5613f30565b5b60006140b48482850161407b565b91505092915050565b60008115159050919050565b6140d2816140bd565b82525050565b60006020820190506140ed60008301846140c9565b92915050565b60006020828403121561410957614108613f30565b5b600061411784828501613fb9565b91505092915050565b600081519050919050565b600082825260208201905092915050565b60005b8381101561415a57808201518184015260208101905061413f565b60008484015250505050565b6000601f19601f8301169050919050565b600061418282614120565b61418c818561412b565b935061419c81856020860161413c565b6141a581614166565b840191505092915050565b600060208201905081810360008301526141ca8184614177565b905092915050565b600080fd5b7f4e487b7100000000000000000000000000000000000000000000000000000000600052604160045260246000fd5b61420f82614166565b810181811067ffffffffffffffff8211171561422e5761422d6141d7565b5b80604052505050565b6000614241613f26565b905061424d8282614206565b919050565b600067ffffffffffffffff82111561426d5761426c6141d7565b5b602082029050602081019050919050565b600080fd5b600061429661429184614252565b614237565b905080838252602082019050602084028301858111156142b9576142b861427e565b5b835b818110156142e257806142ce8882613fb9565b8452602084019350506020810190506142bb565b5050509392505050565b600082601f830112614301576143006141d2565b5b8135614311848260208601614283565b91505092915050565b600080fd5b600067ffffffffffffffff82111561433a576143396141d7565b5b61434382614166565b9050602081019050919050565b82818337600083830152505050565b600061437261436d8461431f565b614237565b90508281526020810184848401111561438e5761438d61431a565b5b614399848285614350565b509392505050565b600082601f8301126143b6576143b56141d2565b5b81356143c684826020860161435f565b91505092915050565b600080600080600060a086880312156143eb576143ea613f30565b5b60006143f988828901613f83565b955050602061440a88828901613f83565b945050604086013567ffffffffffffffff81111561442b5761442a613f35565b5b614437888289016142ec565b935050606086013567ffffffffffffffff81111561445857614457613f35565b5b614464888289016142ec565b925050608086013567ffffffffffffffff81111561448557614484613f35565b5b614491888289016143a1565b9150509295509295909350565b600080604083850312156144b5576144b4613f30565b5b60006144c385828601613fb9565b92505060206144d485828601613fb9565b9150509250929050565b600067ffffffffffffffff8211156144f9576144f86141d7565b5b602082029050602081019050919050565b600061451d614518846144de565b614237565b905080838252602082019050602084028301858111156145405761453f61427e565b5b835b8181101561456957806145558882613f83565b845260208401935050602081019050614542565b5050509392505050565b600082601f830112614588576145876141d2565b5b813561459884826020860161450a565b91505092915050565b600080604083850312156145b8576145b7613f30565b5b600083013567ffffffffffffffff8111156145d6576145d5613f35565b5b6145e285828601614573565b925050602083013567ffffffffffffffff81111561460357614602613f35565b5b61460f858286016142ec565b9150509250929050565b600081519050919050565b600082825260208201905092915050565b6000819050602082019050919050565b61464e81613f98565b82525050565b60006146608383614645565b60208301905092915050565b6000602082019050919050565b600061468482614619565b61468e8185614624565b935061469983614635565b8060005b838110156146ca5781516146b18882614654565b97506146bc8361466c565b92505060018101905061469d565b5085935050505092915050565b600060208201905081810360008301526146f18184614679565b905092915050565b6000819050919050565b61470c816146f9565b82525050565b60006020820190506147276000830184614703565b92915050565b614736816140bd565b811461474157600080fd5b50565b6000813590506147538161472d565b92915050565b600080604083850312156147705761476f613f30565b5b600061477e85828601613f83565b925050602061478f85828601614744565b9150509250929050565b600080fd5b60008083601f8401126147b4576147b36141d2565b5b8235905067ffffffffffffffff8111156147d1576147d0614799565b5b6020830191508360018202830111156147ed576147ec61427e565b5b9250929050565b60008060008060008060008060006101008a8c03121561481757614816613f30565b5b60006148258c828d01613fb9565b99505060206148368c828d01613fb9565b98505060406148478c828d01613fb9565b97505060608a013567ffffffffffffffff81111561486857614867613f35565b5b6148748c828d0161479e565b965096505060806148878c828d01613fb9565b94505060a06148988c828d01613fb9565b93505060c06148a98c828d01613fb9565b92505060e08a013567ffffffffffffffff8111156148ca576148c9613f35565b5b6148d68c828d016143a1565b9150509295985092959850929598565b6000610160820190508181036000830152614901818e614177565b9050614910602083018d61400e565b61491d604083018c61400e565b61492a606083018b61400e565b614937608083018a61400e565b61494460a083018961400e565b61495160c083018861400e565b61495e60e083018761400e565b61496c61010083018661400e565b61497a61012083018561400e565b61498861014083018461400e565b9c9b505050505050505050505050565b600080604083850312156149af576149ae613f30565b5b60006149bd85828601613f83565b92505060206149ce85828601613f83565b9150509250929050565b600080600080600060a086880312156149f4576149f3613f30565b5b6000614a0288828901613f83565b9550506020614a1388828901613f83565b9450506040614a2488828901613fb9565b9350506060614a3588828901613fb9565b925050608086013567ffffffffffffffff811115614a5657614a55613f35565b5b614a62888289016143a1565b9150509295509295909350565b7f455243313135353a2061646472657373207a65726f206973206e6f742061207660008201527f616c6964206f776e657200000000000000000000000000000000000000000000602082015250565b6000614acb602a8361412b565b9150614ad682614a6f565b604082019050919050565b60006020820190508181036000830152614afa81614abe565b9050919050565b7f4e487b7100000000000000000000000000000000000000000000000000000000600052601160045260246000fd5b6000614b3b82613f98565b9150614b4683613f98565b9250828203905081811115614b5e57614b5d614b01565b5b92915050565b7f4e487b7100000000000000000000000000000000000000000000000000000000600052602260045260246000fd5b60006002820490506001821680614bab57607f821691505b602082108103614bbe57614bbd614b64565b5b50919050565b6000614bcf82613f98565b9150614bda83613f98565b9250828202614be881613f98565b91508282048414831517614bff57614bfe614b01565b5b5092915050565b7f455243313135353a2063616c6c6572206973206e6f7420746f6b656e206f776e60008201527f6572206f7220617070726f766564000000000000000000000000000000000000602082015250565b6000614c62602e8361412b565b9150614c6d82614c06565b604082019050919050565b60006020820190508181036000830152614c9181614c55565b9050919050565b7f43616c6c6572206973206e6f7420746865206f776e6572000000000000000000600082015250565b6000614cce60178361412b565b9150614cd982614c98565b602082019050919050565b60006020820190508181036000830152614cfd81614cc1565b9050919050565b7f5769746864726177206e6f7420616c6c6f776564207768656e20616374697665600082015250565b6000614d3a60208361412b565b9150614d4582614d04565b602082019050919050565b60006020820190508181036000830152614d6981614d2d565b9050919050565b7f5769746864726177206e6f7420616c6c6f776564207768656e2064656661756c60008201527f7465640000000000000000000000000000000000000000000000000000000000602082015250565b6000614dcc60238361412b565b9150614dd782614d70565b604082019050919050565b60006020820190508181036000830152614dfb81614dbf565b9050919050565b7f5769746864726177616c20746f6b656e20616d6f756e7420657863656564732060008201527f746f6b656e20616d6f756e7420696e20636f6e74726163740000000000000000602082015250565b6000614e5e60388361412b565b9150614e6982614e02565b604082019050919050565b60006020820190508181036000830152614e8d81614e51565b9050919050565b614e9d81613f5a565b82525050565b6000604082019050614eb86000830185614e94565b614ec5602083018461400e565b9392505050565b600081519050614edb8161472d565b92915050565b600060208284031215614ef757614ef6613f30565b5b6000614f0584828501614ecc565b91505092915050565b7f4e487b7100000000000000000000000000000000000000000000000000000000600052601260045260246000fd5b6000614f4882613f98565b9150614f5383613f98565b925082614f6357614f62614f0e565b5b828204905092915050565b7f455243313135353a206163636f756e747320616e6420696473206c656e67746860008201527f206d69736d617463680000000000000000000000000000000000000000000000602082015250565b6000614fca60298361412b565b9150614fd582614f6e565b604082019050919050565b60006020820190508181036000830152614ff981614fbd565b9050919050565b7f4e487b7100000000000000000000000000000000000000000000000000000000600052603260045260246000fd5b600061503a82613f98565b91507fffffffffffffffffffffffffffffffffffffffffffffffffffffffffffffffff820361506c5761506b614b01565b5b600182019050919050565b600069ffffffffffffffffffff82169050919050565b61509681615077565b81146150a157600080fd5b50565b6000815190506150b38161508d565b92915050565b6150c2816146f9565b81146150cd57600080fd5b50565b6000815190506150df816150b9565b92915050565b6000815190506150f481613fa2565b92915050565b600080600080600060a0868803121561511657615115613f30565b5b6000615124888289016150a4565b9550506020615135888289016150d0565b9450506040615146888289016150e5565b9350506060615157888289016150e5565b9250506080615168888289016150a4565b9150509295509295909350565b7f426f6e6420697320696e61637469766500000000000000000000000000000000600082015250565b60006151ab60108361412b565b91506151b682615175565b602082019050919050565b600060208201905081810360008301526151da8161519e565b9050919050565b7f496e73756666696369656e7420626f6e64207175616e746974792072656d616960008201527f6e696e6700000000000000000000000000000000000000000000000000000000602082015250565b600061523d60248361412b565b9150615248826151e1565b604082019050919050565b6000602082019050818103600083015261526c81615230565b9050919050565b600061527e82613f98565b915061528983613f98565b92508282019050808211156152a1576152a0614b01565b5b92915050565b60006060820190506152bc6000830186614e94565b6152c96020830185614e94565b6152d6604083018461400e565b949350505050565b60006020820190506152f36000830184614e94565b92915050565b60006020828403121561530f5761530e613f30565b5b600061531d848285016150e5565b91505092915050565b7f426f6e64206973206e6f7420636f6d706c657465640000000000000000000000600082015250565b600061535c60158361412b565b915061536782615326565b602082019050919050565b6000602082019050818103600083015261538b8161534f565b9050919050565b7f496e73756666696369656e7420626f6e64207175616e74697479000000000000600082015250565b60006153c8601a8361412b565b91506153d382615392565b602082019050919050565b600060208201905081810360008301526153f7816153bb565b9050919050565b7f426f6e64206973206e6f742064656661756c7465640000000000000000000000600082015250565b600061543460158361412b565b915061543f826153fe565b602082019050919050565b6000602082019050818103600083015261546381615427565b9050919050565b600060608201905061547f600083018661400e565b61548c602083018561400e565b615499604083018461400e565b949350505050565b7f426f6e64206973206e6f742063616e63656c6564000000000000000000000000600082015250565b60006154d760148361412b565b91506154e2826154a1565b602082019050919050565b60006020820190508181036000830152615506816154ca565b9050919050565b6000604082019050615522600083018561400e565b61552f602083018461400e565b9392505050565b7f416374697665206475726174696f6e2073686f756c642062652073686f72746560008201527f72207468616e206475726174696f6e0000000000000000000000000000000000602082015250565b6000615592602f8361412b565b915061559d82615536565b604082019050919050565b600060208201905081810360008301526155c181615585565b9050919050565b60008190508160005260206000209050919050565b60006020601f8301049050919050565b600082821b905092915050565b60006008830261562a7fffffffffffffffffffffffffffffffffffffffffffffffffffffffffffffffff826155ed565b61563486836155ed565b95508019841693508086168417925050509392505050565b6000819050919050565b600061567161566c61566784613f98565b61564c565b613f98565b9050919050565b6000819050919050565b61568b83615656565b61569f61569782615678565b8484546155fa565b825550505050565b600090565b6156b46156a7565b6156bf818484615682565b505050565b5b818110156156e3576156d86000826156ac565b6001810190506156c5565b5050565b601f821115615728576156f9816155c8565b615702846155dd565b81016020851015615711578190505b61572561571d856155dd565b8301826156c4565b50505b505050565b600082821c905092915050565b600061574b6000198460080261572d565b1980831691505092915050565b6000615764838361573a565b9150826002028217905092915050565b61577d82614120565b67ffffffffffffffff811115615796576157956141d7565b5b6157a08254614b93565b6157ab8282856156e7565b600060209050601f8311600181146157de57600084156157cc578287015190505b6157d68582615758565b86555061583e565b601f1984166157ec866155c8565b60005b82811015615814578489015182556001820191506020850194506020810190506157ef565b86831015615831578489015161582d601f89168261573a565b8355505b6001600288020188555050505b505050505050565b600060808201905061585b600083018761400e565b615868602083018661400e565b615875604083018561400e565b615882606083018461400e565b95945050505050565b7f626f6e642069732064656661756c746564000000000000000000000000000000600082015250565b60006158c160118361412b565b91506158cc8261588b565b602082019050919050565b600060208201905081810360008301526158f0816158b4565b9050919050565b7f626f6e6420697320636f6d706c65746564000000000000000000000000000000600082015250565b600061592d60118361412b565b9150615938826158f7565b602082019050919050565b6000602082019050818103600083015261595c81615920565b9050919050565b7f43616e6e6f742077697468647261772065786365737300000000000000000000600082015250565b600061599960168361412b565b91506159a482615963565b602082019050919050565b600060208201905081810360008301526159c88161598c565b9050919050565b7f43616e6e6f742077697468647261772066726f6d20656d70747920706f6f6c00600082015250565b6000615a05601f8361412b565b9150615a10826159cf565b602082019050919050565b60006020820190508181036000830152615a34816159f8565b9050919050565b7f455243313135353a2069647320616e6420616d6f756e7473206c656e6774682060008201527f6d69736d61746368000000000000000000000000000000000000000000000000602082015250565b6000615a9760288361412b565b9150615aa282615a3b565b604082019050919050565b60006020820190508181036000830152615ac681615a8a565b9050919050565b7f455243313135353a207472616e7366657220746f20746865207a65726f20616460008201527f6472657373000000000000000000000000000000000000000000000000000000602082015250565b6000615b2960258361412b565b9150615b3482615acd565b604082019050919050565b60006020820190508181036000830152615b5881615b1c565b9050919050565b7f455243313135353a20696e73756666696369656e742062616c616e636520666f60008201527f72207472616e7366657200000000000000000000000000000000000000000000602082015250565b6000615bbb602a8361412b565b9150615bc682615b5f565b604082019050919050565b60006020820190508181036000830152615bea81615bae565b9050919050565b60006040820190508181036000830152615c0b8185614679565b90508181036020830152615c1f8184614679565b90509392505050565b7f455243313135353a206275726e2066726f6d20746865207a65726f206164647260008201527f6573730000000000000000000000000000000000000000000000000000000000602082015250565b6000615c8460238361412b565b9150615c8f82615c28565b604082019050919050565b60006020820190508181036000830152615cb381615c77565b9050919050565b7f455243313135353a206275726e20616d6f756e7420657863656564732062616c60008201527f616e636500000000000000000000000000000000000000000000000000000000602082015250565b6000615d1660248361412b565b9150615d2182615cba565b604082019050919050565b60006020820190508181036000830152615d4581615d09565b9050919050565b7f455243313135353a2073657474696e6720617070726f76616c2073746174757360008201527f20666f722073656c660000000000000000000000000000000000000000000000602082015250565b6000615da860298361412b565b9150615db382615d4c565b604082019050919050565b60006020820190508181036000830152615dd781615d9b565b9050919050565b7f455243313135353a206d696e7420746f20746865207a65726f2061646472657360008201527f7300000000000000000000000000000000000000000000000000000000000000602082015250565b6000615e3a60218361412b565b9150615e4582615dde565b604082019050919050565b60006020820190508181036000830152615e6981615e2d565b9050919050565b600081519050919050565b600082825260208201905092915050565b6000615e9782615e70565b615ea18185615e7b565b9350615eb181856020860161413c565b615eba81614166565b840191505092915050565b600060a082019050615eda6000830188614e94565b615ee76020830187614e94565b8181036040830152615ef98186614679565b90508181036060830152615f0d8185614679565b90508181036080830152615f218184615e8c565b90509695505050505050565b600081519050615f3c81614064565b92915050565b600060208284031215615f5857615f57613f30565b5b6000615f6684828501615f2d565b91505092915050565b60008160e01c9050919050565b600060033d1115615f9b5760046000803e615f98600051615f6f565b90505b90565b600060443d1061602b57615fb0613f26565b60043d036004823e80513d602482011167ffffffffffffffff82111715615fd857505061602b565b808201805167ffffffffffffffff811115615ff6575050505061602b565b80602083010160043d03850181111561601357505050505061602b565b61602282602001850186614206565b82955050505050505b90565b7f455243313135353a207472616e7366657220746f206e6f6e2d4552433131353560008201527f526563656976657220696d706c656d656e746572000000000000000000000000602082015250565b600061608a60348361412b565b91506160958261602e565b604082019050919050565b600060208201905081810360008301526160b98161607d565b9050919050565b7f455243313135353a204552433131353552656365697665722072656a6563746560008201527f6420746f6b656e73000000000000000000000000000000000000000000000000602082015250565b600061611c60288361412b565b9150616127826160c0565b604082019050919050565b6000602082019050818103600083015261614b8161610f565b9050919050565b600060a0820190506161676000830188614e94565b6161746020830187614e94565b616181604083018661400e565b61618e606083018561400e565b81810360808301526161a08184615e8c565b9050969550505050505056fea2646970667358221220039154f138025c184abb1cd217705f4e403d57943cd7e8490a190bf7bf224d9764736f6c63430008110033",
  "linkReferences": {},
  "deployedLinkReferences": {}
}