{
  "_format": "hh-sol-artifact-1",
  "contractName": "DualCurrencyBondFactory",
  "sourceName": "contracts/DualCurrencyBondFactory.sol",
  "abi": [
    {
      "inputs": [
        {
          "internalType": "string",
          "name": "uri",
          "type": "string"
        },
        {
          "internalType": "address",
          "name": "tokenA",
          "type": "address"
        },
        {
          "internalType": "address",
          "name": "tokenB",
          "type": "address"
        },
        {
          "internalType": "address",
          "name": "priceFeedA",
          "type": "address"
        },
        {
          "internalType": "address",
          "name": "priceFeedB",
          "type": "address"
        },
        {
          "internalType": "address",
          "name": "deployer",
          "type": "address"
        }
      ],
      "stateMutability": "nonpayable",
      "type": "constructor"
    },
    {
      "anonymous": false,
      "inputs": [
        {
          "indexed": true,
          "internalType": "address",
          "name": "account",
          "type": "address"
        },
        {
          "indexed": true,
          "internalType": "address",
          "name": "operator",
          "type": "address"
        },
        {
          "indexed": false,
          "internalType": "bool",
          "name": "approved",
          "type": "bool"
        }
      ],
      "name": "ApprovalForAll",
      "type": "event"
    },
    {
      "anonymous": false,
      "inputs": [
        {
          "indexed": true,
          "internalType": "uint256",
          "name": "id",
          "type": "uint256"
        },
        {
          "indexed": false,
          "internalType": "uint256",
          "name": "totalDebt",
          "type": "uint256"
        },
        {
          "indexed": false,
          "internalType": "uint256",
          "name": "paidDebt",
          "type": "uint256"
        }
      ],
      "name": "Completed",
      "type": "event"
    },
    {
      "anonymous": false,
      "inputs": [
        {
          "indexed": true,
          "internalType": "uint256",
          "name": "id",
          "type": "uint256"
        },
        {
          "indexed": false,
          "internalType": "uint256",
          "name": "totalDebt",
          "type": "uint256"
        },
        {
          "indexed": false,
          "internalType": "uint256",
          "name": "paidDebtA",
          "type": "uint256"
        },
        {
          "indexed": false,
          "internalType": "uint256",
          "name": "paidDebtB",
          "type": "uint256"
        }
      ],
      "name": "Defaulted",
      "type": "event"
    },
    {
      "anonymous": false,
      "inputs": [
        {
          "indexed": true,
          "internalType": "uint256",
          "name": "id",
          "type": "uint256"
        },
        {
          "indexed": false,
          "internalType": "uint256",
          "name": "bondQuantity",
          "type": "uint256"
        },
        {
          "indexed": false,
          "internalType": "uint256",
          "name": "tokenAAmountPerBond",
          "type": "uint256"
        },
        {
          "indexed": false,
          "internalType": "uint256",
          "name": "tokenBAmountPerBond",
          "type": "uint256"
        },
        {
          "indexed": false,
          "internalType": "uint256",
          "name": "couponRate",
          "type": "uint256"
        },
        {
          "indexed": false,
          "internalType": "uint256",
          "name": "maturityDate",
          "type": "uint256"
        }
      ],
      "name": "Issued",
      "type": "event"
    },
    {
      "anonymous": false,
      "inputs": [
        {
          "indexed": true,
          "internalType": "address",
          "name": "operator",
          "type": "address"
        },
        {
          "indexed": true,
          "internalType": "address",
          "name": "from",
          "type": "address"
        },
        {
          "indexed": true,
          "internalType": "address",
          "name": "to",
          "type": "address"
        },
        {
          "indexed": false,
          "internalType": "uint256[]",
          "name": "ids",
          "type": "uint256[]"
        },
        {
          "indexed": false,
          "internalType": "uint256[]",
          "name": "values",
          "type": "uint256[]"
        }
      ],
      "name": "TransferBatch",
      "type": "event"
    },
    {
      "anonymous": false,
      "inputs": [
        {
          "indexed": true,
          "internalType": "address",
          "name": "operator",
          "type": "address"
        },
        {
          "indexed": true,
          "internalType": "address",
          "name": "from",
          "type": "address"
        },
        {
          "indexed": true,
          "internalType": "address",
          "name": "to",
          "type": "address"
        },
        {
          "indexed": false,
          "internalType": "uint256",
          "name": "id",
          "type": "uint256"
        },
        {
          "indexed": false,
          "internalType": "uint256",
          "name": "value",
          "type": "uint256"
        }
      ],
      "name": "TransferSingle",
      "type": "event"
    },
    {
      "anonymous": false,
      "inputs": [
        {
          "indexed": false,
          "internalType": "string",
          "name": "value",
          "type": "string"
        },
        {
          "indexed": true,
          "internalType": "uint256",
          "name": "id",
          "type": "uint256"
        }
      ],
      "name": "URI",
      "type": "event"
    },
    {
      "inputs": [
        {
          "internalType": "address",
          "name": "account",
          "type": "address"
        },
        {
          "internalType": "uint256",
          "name": "id",
          "type": "uint256"
        }
      ],
      "name": "balanceOf",
      "outputs": [
        {
          "internalType": "uint256",
          "name": "",
          "type": "uint256"
        }
      ],
      "stateMutability": "view",
      "type": "function"
    },
    {
      "inputs": [
        {
          "internalType": "address[]",
          "name": "accounts",
          "type": "address[]"
        },
        {
          "internalType": "uint256[]",
          "name": "ids",
          "type": "uint256[]"
        }
      ],
      "name": "balanceOfBatch",
      "outputs": [
        {
          "internalType": "uint256[]",
          "name": "",
          "type": "uint256[]"
        }
      ],
      "stateMutability": "view",
      "type": "function"
    },
    {
      "inputs": [
        {
          "internalType": "uint256",
          "name": "id",
          "type": "uint256"
        }
      ],
      "name": "bondmetaData",
      "outputs": [
        {
          "internalType": "string",
          "name": "",
          "type": "string"
        },
        {
          "internalType": "uint256",
          "name": "",
          "type": "uint256"
        },
        {
          "internalType": "uint256",
          "name": "",
          "type": "uint256"
        },
        {
          "internalType": "uint256",
          "name": "",
          "type": "uint256"
        },
        {
          "internalType": "uint256",
          "name": "",
          "type": "uint256"
        },
        {
          "internalType": "uint256",
          "name": "",
          "type": "uint256"
        },
        {
          "internalType": "uint256",
          "name": "",
          "type": "uint256"
        },
        {
          "internalType": "uint256",
          "name": "",
          "type": "uint256"
        },
        {
          "internalType": "uint256",
          "name": "",
          "type": "uint256"
        },
        {
          "internalType": "uint256",
          "name": "",
          "type": "uint256"
        },
        {
          "internalType": "uint256",
          "name": "",
          "type": "uint256"
        }
      ],
      "stateMutability": "view",
      "type": "function"
    },
    {
      "inputs": [
        {
          "internalType": "uint256",
          "name": "id",
          "type": "uint256"
        }
      ],
      "name": "couponRate",
      "outputs": [
        {
          "internalType": "uint256",
          "name": "",
          "type": "uint256"
        }
      ],
      "stateMutability": "view",
      "type": "function"
    },
    {
      "inputs": [
        {
          "internalType": "uint256",
          "name": "id",
          "type": "uint256"
        },
        {
          "internalType": "uint256",
          "name": "tokenAmount",
          "type": "uint256"
        }
      ],
      "name": "deposit",
      "outputs": [],
      "stateMutability": "nonpayable",
      "type": "function"
    },
    {
      "inputs": [
        {
          "internalType": "uint256",
          "name": "id",
          "type": "uint256"
        }
      ],
      "name": "designatedTokenAPool",
      "outputs": [
        {
          "internalType": "uint256",
          "name": "",
          "type": "uint256"
        }
      ],
      "stateMutability": "view",
      "type": "function"
    },
    {
      "inputs": [
        {
          "internalType": "uint256",
          "name": "id",
          "type": "uint256"
        }
      ],
      "name": "designatedTokenBPool",
      "outputs": [
        {
          "internalType": "uint256",
          "name": "",
          "type": "uint256"
        }
      ],
      "stateMutability": "view",
      "type": "function"
    },
    {
      "inputs": [],
      "name": "getAtoBExchangeRate",
      "outputs": [
        {
          "internalType": "uint256",
          "name": "",
          "type": "uint256"
        }
      ],
      "stateMutability": "view",
      "type": "function"
    },
    {
      "inputs": [],
      "name": "getLatestPriceA",
      "outputs": [
        {
          "internalType": "int256",
          "name": "",
          "type": "int256"
        }
      ],
      "stateMutability": "view",
      "type": "function"
    },
    {
      "inputs": [],
      "name": "getLatestPriceB",
      "outputs": [
        {
          "internalType": "int256",
          "name": "",
          "type": "int256"
        }
      ],
      "stateMutability": "view",
      "type": "function"
    },
    {
      "inputs": [
        {
          "internalType": "uint256",
          "name": "id",
          "type": "uint256"
        }
      ],
      "name": "hasReachedMaturity",
      "outputs": [
        {
          "internalType": "bool",
          "name": "",
          "type": "bool"
        }
      ],
      "stateMutability": "view",
      "type": "function"
    },
    {
      "inputs": [
        {
          "internalType": "uint256",
          "name": "id",
          "type": "uint256"
        }
      ],
      "name": "isActive",
      "outputs": [
        {
          "internalType": "bool",
          "name": "",
          "type": "bool"
        }
      ],
      "stateMutability": "view",
      "type": "function"
    },
    {
      "inputs": [
        {
          "internalType": "address",
          "name": "account",
          "type": "address"
        },
        {
          "internalType": "address",
          "name": "operator",
          "type": "address"
        }
      ],
      "name": "isApprovedForAll",
      "outputs": [
        {
          "internalType": "bool",
          "name": "",
          "type": "bool"
        }
      ],
      "stateMutability": "view",
      "type": "function"
    },
    {
      "inputs": [
        {
          "internalType": "uint256",
          "name": "id",
          "type": "uint256"
        }
      ],
      "name": "isCanceled",
      "outputs": [
        {
          "internalType": "bool",
          "name": "",
          "type": "bool"
        }
      ],
      "stateMutability": "view",
      "type": "function"
    },
    {
      "inputs": [
        {
          "internalType": "uint256",
          "name": "id",
          "type": "uint256"
        }
      ],
      "name": "isCompleted",
      "outputs": [
        {
          "internalType": "bool",
          "name": "",
          "type": "bool"
        }
      ],
      "stateMutability": "view",
      "type": "function"
    },
    {
      "inputs": [
        {
          "internalType": "uint256",
          "name": "id",
          "type": "uint256"
        }
      ],
      "name": "isCompletedInTheory",
      "outputs": [
        {
          "internalType": "bool",
          "name": "",
          "type": "bool"
        }
      ],
      "stateMutability": "view",
      "type": "function"
    },
    {
      "inputs": [
        {
          "internalType": "uint256",
          "name": "id",
          "type": "uint256"
        }
      ],
      "name": "isDefaulted",
      "outputs": [
        {
          "internalType": "bool",
          "name": "",
          "type": "bool"
        }
      ],
      "stateMutability": "view",
      "type": "function"
    },
    {
      "inputs": [
        {
          "internalType": "uint256",
          "name": "id",
          "type": "uint256"
        }
      ],
      "name": "isDefaultedInTheory",
      "outputs": [
        {
          "internalType": "bool",
          "name": "",
          "type": "bool"
        }
      ],
      "stateMutability": "view",
      "type": "function"
    },
    {
      "inputs": [
        {
          "internalType": "uint256",
          "name": "id",
          "type": "uint256"
        }
      ],
      "name": "isFulfilled",
      "outputs": [
        {
          "internalType": "bool",
          "name": "",
          "type": "bool"
        }
      ],
      "stateMutability": "view",
      "type": "function"
    },
    {
      "inputs": [
        {
          "internalType": "uint256",
          "name": "id",
          "type": "uint256"
        }
      ],
      "name": "isFullyRedeemed",
      "outputs": [
        {
          "internalType": "bool",
          "name": "",
          "type": "bool"
        }
      ],
      "stateMutability": "view",
      "type": "function"
    },
    {
      "inputs": [
        {
          "internalType": "uint256",
          "name": "bondQuantity",
          "type": "uint256"
        },
        {
          "internalType": "uint256",
          "name": "minPurchasedQuantity",
          "type": "uint256"
        },
        {
          "internalType": "uint256",
          "name": "tokenAAmountPerBond",
          "type": "uint256"
        },
        {
          "internalType": "string",
          "name": "ticker",
          "type": "string"
        },
        {
          "internalType": "uint256",
          "name": "durationDays",
          "type": "uint256"
        },
        {
          "internalType": "uint256",
          "name": "activeDurationInDays",
          "type": "uint256"
        },
        {
          "internalType": "uint256",
          "name": "rate",
          "type": "uint256"
        },
        {
          "internalType": "bytes",
          "name": "data",
          "type": "bytes"
        }
      ],
      "name": "issue",
      "outputs": [
        {
          "internalType": "uint256",
          "name": "id",
          "type": "uint256"
        }
      ],
      "stateMutability": "nonpayable",
      "type": "function"
    },
    {
      "inputs": [
        {
          "internalType": "uint256",
          "name": "id",
          "type": "uint256"
        }
      ],
      "name": "markAsCompleted",
      "outputs": [],
      "stateMutability": "nonpayable",
      "type": "function"
    },
    {
      "inputs": [
        {
          "internalType": "uint256",
          "name": "id",
          "type": "uint256"
        }
      ],
      "name": "markAsDefaulted",
      "outputs": [],
      "stateMutability": "nonpayable",
      "type": "function"
    },
    {
      "inputs": [
        {
          "internalType": "uint256",
          "name": "id",
          "type": "uint256"
        }
      ],
      "name": "poolAAmount",
      "outputs": [
        {
          "internalType": "uint256",
          "name": "",
          "type": "uint256"
        }
      ],
      "stateMutability": "view",
      "type": "function"
    },
    {
      "inputs": [
        {
          "internalType": "uint256",
          "name": "id",
          "type": "uint256"
        }
      ],
      "name": "poolBAmount",
      "outputs": [
        {
          "internalType": "uint256",
          "name": "",
          "type": "uint256"
        }
      ],
      "stateMutability": "view",
      "type": "function"
    },
    {
      "inputs": [
        {
          "internalType": "uint256",
          "name": "id",
          "type": "uint256"
        }
      ],
      "name": "principal",
      "outputs": [
        {
          "internalType": "uint256",
          "name": "",
          "type": "uint256"
        }
      ],
      "stateMutability": "view",
      "type": "function"
    },
    {
      "inputs": [
        {
          "internalType": "uint256",
          "name": "id",
          "type": "uint256"
        }
      ],
      "name": "principalWithInterest",
      "outputs": [
        {
          "internalType": "uint256",
          "name": "",
          "type": "uint256"
        }
      ],
      "stateMutability": "view",
      "type": "function"
    },
    {
      "inputs": [
        {
          "internalType": "uint256",
          "name": "id",
          "type": "uint256"
        },
        {
          "internalType": "uint256",
          "name": "bondQuantity",
          "type": "uint256"
        }
      ],
      "name": "purchase",
      "outputs": [],
      "stateMutability": "nonpayable",
      "type": "function"
    },
    {
      "inputs": [
        {
          "internalType": "uint256",
          "name": "id",
          "type": "uint256"
        },
        {
          "internalType": "uint256",
          "name": "bondQuantity",
          "type": "uint256"
        }
      ],
      "name": "redeem",
      "outputs": [],
      "stateMutability": "nonpayable",
      "type": "function"
    },
    {
      "inputs": [
        {
          "internalType": "uint256",
          "name": "id",
          "type": "uint256"
        },
        {
          "internalType": "uint256",
          "name": "bondQuantity",
          "type": "uint256"
        }
      ],
      "name": "redeemCanceled",
      "outputs": [],
      "stateMutability": "nonpayable",
      "type": "function"
    },
    {
      "inputs": [
        {
          "internalType": "uint256",
          "name": "id",
          "type": "uint256"
        },
        {
          "internalType": "uint256",
          "name": "bondQuantity",
          "type": "uint256"
        }
      ],
      "name": "redeemDefaulted",
      "outputs": [],
      "stateMutability": "nonpayable",
      "type": "function"
    },
    {
      "inputs": [
        {
          "internalType": "uint256",
          "name": "id",
          "type": "uint256"
        }
      ],
      "name": "remainingQuantity",
      "outputs": [
        {
          "internalType": "uint256",
          "name": "",
          "type": "uint256"
        }
      ],
      "stateMutability": "view",
      "type": "function"
    },
    {
      "inputs": [
        {
          "internalType": "address",
          "name": "from",
          "type": "address"
        },
        {
          "internalType": "address",
          "name": "to",
          "type": "address"
        },
        {
          "internalType": "uint256[]",
          "name": "ids",
          "type": "uint256[]"
        },
        {
          "internalType": "uint256[]",
          "name": "amounts",
          "type": "uint256[]"
        },
        {
          "internalType": "bytes",
          "name": "data",
          "type": "bytes"
        }
      ],
      "name": "safeBatchTransferFrom",
      "outputs": [],
      "stateMutability": "nonpayable",
      "type": "function"
    },
    {
      "inputs": [
        {
          "internalType": "address",
          "name": "from",
          "type": "address"
        },
        {
          "internalType": "address",
          "name": "to",
          "type": "address"
        },
        {
          "internalType": "uint256",
          "name": "id",
          "type": "uint256"
        },
        {
          "internalType": "uint256",
          "name": "amount",
          "type": "uint256"
        },
        {
          "internalType": "bytes",
          "name": "data",
          "type": "bytes"
        }
      ],
      "name": "safeTransferFrom",
      "outputs": [],
      "stateMutability": "nonpayable",
      "type": "function"
    },
    {
      "inputs": [
        {
          "internalType": "address",
          "name": "operator",
          "type": "address"
        },
        {
          "internalType": "bool",
          "name": "approved",
          "type": "bool"
        }
      ],
      "name": "setApprovalForAll",
      "outputs": [],
      "stateMutability": "nonpayable",
      "type": "function"
    },
    {
      "inputs": [
        {
          "internalType": "bytes4",
          "name": "interfaceId",
          "type": "bytes4"
        }
      ],
      "name": "supportsInterface",
      "outputs": [
        {
          "internalType": "bool",
          "name": "",
          "type": "bool"
        }
      ],
      "stateMutability": "view",
      "type": "function"
    },
    {
      "inputs": [
        {
          "internalType": "uint256",
          "name": "id",
          "type": "uint256"
        }
      ],
      "name": "timeElapsed",
      "outputs": [
        {
          "internalType": "uint256",
          "name": "",
          "type": "uint256"
        }
      ],
      "stateMutability": "view",
      "type": "function"
    },
    {
      "inputs": [
        {
          "internalType": "uint256",
          "name": "id",
          "type": "uint256"
        }
      ],
      "name": "timeRemainingToEndOfActive",
      "outputs": [
        {
          "internalType": "uint256",
          "name": "",
          "type": "uint256"
        }
      ],
      "stateMutability": "view",
      "type": "function"
    },
    {
      "inputs": [
        {
          "internalType": "uint256",
          "name": "id",
          "type": "uint256"
        }
      ],
      "name": "timeRemainingToMaturity",
      "outputs": [
        {
          "internalType": "uint256",
          "name": "",
          "type": "uint256"
        }
      ],
      "stateMutability": "view",
      "type": "function"
    },
    {
      "inputs": [],
      "name": "tvlA",
      "outputs": [
        {
          "internalType": "uint256",
          "name": "",
          "type": "uint256"
        }
      ],
      "stateMutability": "view",
      "type": "function"
    },
    {
      "inputs": [],
      "name": "tvlB",
      "outputs": [
        {
          "internalType": "uint256",
          "name": "",
          "type": "uint256"
        }
      ],
      "stateMutability": "view",
      "type": "function"
    },
    {
      "inputs": [
        {
          "internalType": "uint256",
          "name": "",
          "type": "uint256"
        }
      ],
      "name": "uri",
      "outputs": [
        {
          "internalType": "string",
          "name": "",
          "type": "string"
        }
      ],
      "stateMutability": "view",
      "type": "function"
    },
    {
      "inputs": [
        {
          "internalType": "uint256",
          "name": "id",
          "type": "uint256"
        },
        {
          "internalType": "uint256",
          "name": "tokenAmount",
          "type": "uint256"
        }
      ],
      "name": "withdraw",
      "outputs": [],
      "stateMutability": "nonpayable",
      "type": "function"
    },
    {
      "inputs": [
        {
          "internalType": "uint256",
          "name": "id",
          "type": "uint256"
        }
      ],
      "name": "withdrawExcess",
      "outputs": [],
      "stateMutability": "nonpayable",
      "type": "function"
    }
  ],
  "bytecode": "0x61012060405260006003553480156200001757600080fd5b5060405162006a2338038062006a2383398181016040528101906200003d91906200036e565b856200004f816200016160201b60201c565b508073ffffffffffffffffffffffffffffffffffffffff1660c08173ffffffffffffffffffffffffffffffffffffffff16815250508473ffffffffffffffffffffffffffffffffffffffff1660e08173ffffffffffffffffffffffffffffffffffffffff16815250508373ffffffffffffffffffffffffffffffffffffffff166101008173ffffffffffffffffffffffffffffffffffffffff16815250508273ffffffffffffffffffffffffffffffffffffffff1660808173ffffffffffffffffffffffffffffffffffffffff16815250508173ffffffffffffffffffffffffffffffffffffffff1660a08173ffffffffffffffffffffffffffffffffffffffff16815250505050505050506200075b565b806002908162000172919062000674565b5050565b6000604051905090565b600080fd5b600080fd5b600080fd5b600080fd5b6000601f19601f8301169050919050565b7f4e487b7100000000000000000000000000000000000000000000000000000000600052604160045260246000fd5b620001df8262000194565b810181811067ffffffffffffffff82111715620002015762000200620001a5565b5b80604052505050565b60006200021662000176565b9050620002248282620001d4565b919050565b600067ffffffffffffffff821115620002475762000246620001a5565b5b620002528262000194565b9050602081019050919050565b60005b838110156200027f57808201518184015260208101905062000262565b60008484015250505050565b6000620002a26200029c8462000229565b6200020a565b905082815260208101848484011115620002c157620002c06200018f565b5b620002ce8482856200025f565b509392505050565b600082601f830112620002ee57620002ed6200018a565b5b8151620003008482602086016200028b565b91505092915050565b600073ffffffffffffffffffffffffffffffffffffffff82169050919050565b6000620003368262000309565b9050919050565b620003488162000329565b81146200035457600080fd5b50565b60008151905062000368816200033d565b92915050565b60008060008060008060c087890312156200038e576200038d62000180565b5b600087015167ffffffffffffffff811115620003af57620003ae62000185565b5b620003bd89828a01620002d6565b9650506020620003d089828a0162000357565b9550506040620003e389828a0162000357565b9450506060620003f689828a0162000357565b93505060806200040989828a0162000357565b92505060a06200041c89828a0162000357565b9150509295509295509295565b600081519050919050565b7f4e487b7100000000000000000000000000000000000000000000000000000000600052602260045260246000fd5b600060028204905060018216806200047c57607f821691505b60208210810362000492576200049162000434565b5b50919050565b60008190508160005260206000209050919050565b60006020601f8301049050919050565b600082821b905092915050565b600060088302620004fc7fffffffffffffffffffffffffffffffffffffffffffffffffffffffffffffffff82620004bd565b620005088683620004bd565b95508019841693508086168417925050509392505050565b6000819050919050565b6000819050919050565b6000620005556200054f620005498462000520565b6200052a565b62000520565b9050919050565b6000819050919050565b620005718362000534565b6200058962000580826200055c565b848454620004ca565b825550505050565b600090565b620005a062000591565b620005ad81848462000566565b505050565b5b81811015620005d557620005c960008262000596565b600181019050620005b3565b5050565b601f8211156200062457620005ee8162000498565b620005f984620004ad565b8101602085101562000609578190505b620006216200061885620004ad565b830182620005b2565b50505b505050565b600082821c905092915050565b6000620006496000198460080262000629565b1980831691505092915050565b600062000664838362000636565b9150826002028217905092915050565b6200067f8262000429565b67ffffffffffffffff8111156200069b576200069a620001a5565b5b620006a7825462000463565b620006b4828285620005d9565b600060209050601f831160018114620006ec5760008415620006d7578287015190505b620006e3858262000656565b86555062000753565b601f198416620006fc8662000498565b60005b828110156200072657848901518255600182019150602085019450602081019050620006ff565b8683101562000746578489015162000742601f89168262000636565b8355505b6001600288020188555050505b505050505050565b60805160a05160c05160e0516101005161622162000802600039600081816116a40152818161182f01528181611cff01528181611f94015281816123ff01528181612ae80152612ce3015260008181610f96015281816114d901528181611c6001528181611ef5015281816121b90152612e2e015260008181610d9d015281816124e20152818161298e0152612b8d01526000611583015260006111b701526162216000f3fe608060405234801561001057600080fd5b50600436106102735760003560e01c80637a41984b11610151578063abac75e1116100c3578063d3b7811b11610087578063d3b7811b146108a6578063e2bbb158146108d6578063e755ddd7146108f2578063e985e9c51461090e578063f0f3d7de1461093e578063f242432a1461095c57610273565b8063abac75e1146107d4578063b09f2b1c14610804578063c0a6026c14610820578063c7bc57301461083c578063d32fe02e1461086c57610273565b80638f0dbf77116101155780638f0dbf77146106f0578063932a8de014610720578063a22cb46514610750578063a87430221461076c578063a996ef0814610788578063aa81106c146107a457610273565b80637a41984b146106265780637bf24456146106565780637cbc23731461067457806382afd23b1461069057806388bdc083146106c057610273565b8063441a3e70116101ea57806364893aaf116101ae57806364893aaf1461052c578063697e8c8c1461055c5780636ff80d931461058c57806370876c98146105bc578063769d96eb146105d857806377e2a08b146105f657610273565b8063441a3e70146104745780634556e49b146104905780634e1273f4146104ae578063549493bb146104de578063634ef3031461050e57610273565b806314f294931161023c57806314f29493146103685780632eb2c2d6146103985780632f2c6b32146103b45780632f3ad61f146103e45780633097afb81461041457806339e3af9b1461044457610273565b8062fdd58e1461027857806301ffc9a7146102a857806308913ce8146102d857806309149020146103085780630e89341c14610338575b600080fd5b610292600480360381019061028d9190613fff565b610978565b60405161029f919061404e565b60405180910390f35b6102c260048036038101906102bd91906140c1565b610a40565b6040516102cf9190614109565b60405180910390f35b6102f260048036038101906102ed9190614124565b610b22565b6040516102ff919061404e565b60405180910390f35b610322600480360381019061031d9190614124565b610b4d565b60405161032f9190614109565b60405180910390f35b610352600480360381019061034d9190614124565b610b83565b60405161035f91906141e1565b60405180910390f35b610382600480360381019061037d9190614124565b610c17565b60405161038f919061404e565b60405180910390f35b6103b260048036038101906103ad9190614400565b610c55565b005b6103ce60048036038101906103c99190614124565b610cf6565b6040516103db919061404e565b60405180910390f35b6103fe60048036038101906103f99190614124565b610d13565b60405161040b9190614109565b60405180910390f35b61042e60048036038101906104299190614124565b610d3d565b60405161043b9190614109565b60405180910390f35b61045e60048036038101906104599190614124565b610d76565b60405161046b9190614109565b60405180910390f35b61048e600480360381019061048991906144cf565b610d9b565b005b610498611037565b6040516104a5919061404e565b60405180910390f35b6104c860048036038101906104c391906145d2565b611067565b6040516104d59190614708565b60405180910390f35b6104f860048036038101906104f39190614124565b611180565b6040516105059190614109565b60405180910390f35b6105166111b2565b6040516105239190614743565b60405180910390f35b61054660048036038101906105419190614124565b611251565b604051610553919061404e565b60405180910390f35b61057660048036038101906105719190614124565b61126e565b604051610583919061404e565b60405180910390f35b6105a660048036038101906105a19190614124565b61128b565b6040516105b39190614109565b60405180910390f35b6105d660048036038101906105d191906144cf565b6112c3565b005b6105e061157e565b6040516105ed9190614743565b60405180910390f35b610610600480360381019061060b9190614124565b61161d565b60405161061d919061404e565b60405180910390f35b610640600480360381019061063b9190614124565b611676565b60405161064d9190614109565b60405180910390f35b61065e6116a0565b60405161066b919061404e565b60405180910390f35b61068e600480360381019061068991906144cf565b611741565b005b6106aa60048036038101906106a59190614124565b6118fb565b6040516106b79190614109565b60405180910390f35b6106da60048036038101906106d59190614124565b61191e565b6040516106e7919061404e565b60405180910390f35b61070a60048036038101906107059190614124565b611951565b6040516107179190614109565b60405180910390f35b61073a60048036038101906107359190614124565b611973565b604051610747919061404e565b60405180910390f35b61076a6004803603810190610765919061478a565b6119b1565b005b61078660048036038101906107819190614124565b6119c7565b005b6107a2600480360381019061079d91906144cf565b611de4565b005b6107be60048036038101906107b99190614124565b61208b565b6040516107cb919061404e565b60405180910390f35b6107ee60048036038101906107e99190614124565b6120a8565b6040516107fb919061404e565b60405180910390f35b61081e600480360381019061081991906144cf565b6120c8565b005b61083a60048036038101906108359190614124565b612285565b005b61085660048036038101906108519190614825565b6124de565b604051610863919061404e565b60405180910390f35b61088660048036038101906108819190614124565b6127cf565b60405161089d9b9a99989796959493929190614917565b60405180910390f35b6108c060048036038101906108bb9190614124565b612959565b6040516108cd919061404e565b60405180910390f35b6108f060048036038101906108eb91906144cf565b61298c565b005b61090c60048036038101906109079190614124565b612b8b565b005b610928600480360381019061092391906149c9565b612d96565b6040516109359190614109565b60405180910390f35b610946612e2a565b604051610953919061404e565b60405180910390f35b61097660048036038101906109719190614a09565b612ecb565b005b60008073ffffffffffffffffffffffffffffffffffffffff168373ffffffffffffffffffffffffffffffffffffffff16036109e8576040517f08c379a00000000000000000000000000000000000000000000000000000000081526004016109df90614b12565b60405180910390fd5b60008083815260200190815260200160002060008473ffffffffffffffffffffffffffffffffffffffff1673ffffffffffffffffffffffffffffffffffffffff16815260200190815260200160002054905092915050565b60007fd9b67a26000000000000000000000000000000000000000000000000000000007bffffffffffffffffffffffffffffffffffffffffffffffffffffffff1916827bffffffffffffffffffffffffffffffffffffffffffffffffffffffff19161480610b0b57507f0e89341c000000000000000000000000000000000000000000000000000000007bffffffffffffffffffffffffffffffffffffffffffffffffffffffff1916827bffffffffffffffffffffffffffffffffffffffffffffffffffffffff1916145b80610b1b5750610b1a82612f6c565b5b9050919050565b6000600460008381526020019081526020016000206003015442610b469190614b61565b9050919050565b60006004600083815260200190815260200160002060090154600560008481526020019081526020016000205410159050919050565b606060028054610b9290614bc4565b80601f0160208091040260200160405190810160405280929190818152602001828054610bbe90614bc4565b8015610c0b5780601f10610be057610100808354040283529160200191610c0b565b820191906000526020600020905b815481529060010190602001808311610bee57829003601f168201915b50505050509050919050565b600060056000838152602001908152602001600020546004600084815260200190815260200160002060020154610c4e9190614bf5565b9050919050565b610c5d612fd6565b73ffffffffffffffffffffffffffffffffffffffff168573ffffffffffffffffffffffffffffffffffffffff161480610ca35750610ca285610c9d612fd6565b612d96565b5b610ce2576040517f08c379a0000000000000000000000000000000000000000000000000000000008152600401610cd990614ca9565b60405180910390fd5b610cef8585858585612fde565b5050505050565b600060076000838152602001908152602001600020549050919050565b6000600c600083815260200190815260200160002060009054906101000a900460ff169050919050565b6000610d4882611951565b8015610d6f5750610d588261161d565b600860008481526020019081526020016000205410155b9050919050565b6000610d81826118fb565b158015610d945750610d9282610b4d565b155b9050919050565b7f000000000000000000000000000000000000000000000000000000000000000073ffffffffffffffffffffffffffffffffffffffff163373ffffffffffffffffffffffffffffffffffffffff1614610e29576040517f08c379a0000000000000000000000000000000000000000000000000000000008152600401610e2090614d15565b60405180910390fd5b610e32826118fb565b15610e72576040517f08c379a0000000000000000000000000000000000000000000000000000000008152600401610e6990614d81565b60405180910390fd5b610e7b82610d76565b15610ebb576040517f08c379a0000000000000000000000000000000000000000000000000000000008152600401610eb290614d81565b60405180910390fd5b610ec482610d13565b80610ed45750610ed38261128b565b5b15610f14576040517f08c379a0000000000000000000000000000000000000000000000000000000008152600401610f0b90614e13565b60405180910390fd5b6007600083815260200190815260200160002054811115610f6a576040517f08c379a0000000000000000000000000000000000000000000000000000000008152600401610f6190614ea5565b60405180910390fd5b80600760008481526020019081526020016000206000828254610f8d9190614b61565b925050819055507f000000000000000000000000000000000000000000000000000000000000000073ffffffffffffffffffffffffffffffffffffffff1663a9059cbb33836040518363ffffffff1660e01b8152600401610fef929190614ed4565b6020604051808303816000875af115801561100e573d6000803e3d6000fd5b505050506040513d601f19601f820116820180604052508101906110329190614f12565b505050565b600061104161157e565b633b9aca0061104e6111b2565b6110589190614bf5565b6110629190614f6e565b905090565b606081518351146110ad576040517f08c379a00000000000000000000000000000000000000000000000000000000081526004016110a490615011565b60405180910390fd5b6000835167ffffffffffffffff8111156110ca576110c9614208565b5b6040519080825280602002602001820160405280156110f85781602001602082028036833780820191505090505b50905060005b84518110156111755761114585828151811061111d5761111c615031565b5b602002602001015185838151811061113857611137615031565b5b6020026020010151610978565b82828151811061115857611157615031565b5b6020026020010181815250508061116e90615060565b90506110fe565b508091505092915050565b600060056000838152602001908152602001600020546006600084815260200190815260200160002054149050919050565b6000807f000000000000000000000000000000000000000000000000000000000000000073ffffffffffffffffffffffffffffffffffffffff1663feaf968c6040518163ffffffff1660e01b815260040160a060405180830381865afa158015611220573d6000803e3d6000fd5b505050506040513d601f19601f82011682018060405250810190611244919061512b565b5050509150508091505090565b600060086000838152602001908152602001600020549050919050565b600060076000838152602001908152602001600020549050919050565b600061129682611951565b80156112bc57506112a68261161d565b6008600084815260200190815260200160002054105b9050919050565b6112cc826118fb565b61130b576040517f08c379a0000000000000000000000000000000000000000000000000000000008152600401611302906151f2565b60405180910390fd5b8061131583611973565b1015611356576040517f08c379a000000000000000000000000000000000000000000000000000000000815260040161134d90615284565b60405180910390fd5b6000600460008481526020019081526020016000206040518061016001604052908160008201805461138790614bc4565b80601f01602080910402602001604051908101604052809291908181526020018280546113b390614bc4565b80156114005780601f106113d557610100808354040283529160200191611400565b820191906000526020600020905b8154815290600101906020018083116113e357829003601f168201915b50505050508152602001600182015481526020016002820154815260200160038201548152602001600482015481526020016005820154815260200160068201548152602001600782015481526020016008820154815260200160098201548152602001600a82015481525050905060008160200151836114819190614bf5565b9050826005600086815260200190815260200160002060008282546114a691906152a4565b92505081905550806007600086815260200190815260200160002060008282546114d091906152a4565b925050819055507f000000000000000000000000000000000000000000000000000000000000000073ffffffffffffffffffffffffffffffffffffffff166323b872dd3330846040518463ffffffff1660e01b8152600401611534939291906152d8565b6020604051808303816000875af1158015611553573d6000803e3d6000fd5b505050506040513d601f19601f820116820180604052508101906115779190614f12565b5050505050565b6000807f000000000000000000000000000000000000000000000000000000000000000073ffffffffffffffffffffffffffffffffffffffff1663feaf968c6040518163ffffffff1660e01b815260040160a060405180830381865afa1580156115ec573d6000803e3d6000fd5b505050506040513d601f19601f82011682018060405250810190611610919061512b565b5050509150508091505090565b6000670de0b6b3a764000060046000848152602001908152602001600020600a015461164884610c17565b6116529190614bf5565b61165c9190614f6e565b61166583610c17565b61166f91906152a4565b9050919050565b6000600d600083815260200190815260200160002060009054906101000a900460ff169050919050565b60007f000000000000000000000000000000000000000000000000000000000000000073ffffffffffffffffffffffffffffffffffffffff166370a08231306040518263ffffffff1660e01b81526004016116fb919061530f565b602060405180830381865afa158015611718573d6000803e3d6000fd5b505050506040513d601f19601f8201168201806040525081019061173c919061532a565b905090565b61174a82611676565b611789576040517f08c379a0000000000000000000000000000000000000000000000000000000008152600401611780906153a3565b60405180910390fd5b806117943384610978565b10156117d5576040517f08c379a00000000000000000000000000000000000000000000000000000000081526004016117cc9061540f565b60405180910390fd5b6117e03383836132ff565b8060066000848152602001908152602001600020600082825461180391906152a4565b925050819055506000600b6000848152602001908152602001600020548261182b9190614bf5565b90507f000000000000000000000000000000000000000000000000000000000000000073ffffffffffffffffffffffffffffffffffffffff1663a9059cbb33836040518363ffffffff1660e01b8152600401611888929190614ed4565b6020604051808303816000875af11580156118a7573d6000803e3d6000fd5b505050506040513d601f19601f820116820180604052508101906118cb9190614f12565b50806008600085815260200190815260200160002060008282546118ef9190614b61565b92505081905550505050565b600060046000838152602001908152602001600020600501544211159050919050565b600061192982610b22565b600460008481526020019081526020016000206006015461194a9190614b61565b9050919050565b6000600460008381526020019081526020016000206004015442119050919050565b6000600560008381526020019081526020016000205460046000848152602001908152602001600020600801546119aa9190614b61565b9050919050565b6119c36119bc612fd6565b8383613545565b5050565b6119d081611676565b1580156119e357506119e181610d13565b155b80156119f457506119f38161128b565b5b611a33576040517f08c379a0000000000000000000000000000000000000000000000000000000008152600401611a2a9061547b565b60405180910390fd5b6000611a3e8261161d565b905060006103e86007600085815260200190815260200160002054611a639190614f6e565b905060006103e86008600086815260200190815260200160002054611a889190614f6e565b90506000826007600087815260200190815260200160002054611aab9190614b61565b90506000826008600088815260200190815260200160002054611ace9190614b61565b9050600560008781526020019081526020016000205482611aef9190614f6e565b6009600088815260200190815260200160002081905550600560008781526020019081526020016000205481611b259190614f6e565b600a600088815260200190815260200160002081905550600060056000888152602001908152602001600020546009600089815260200190815260200160002054611b709190614bf5565b83611b7b9190614b61565b905060006005600089815260200190815260200160002054600a60008a815260200190815260200160002054611bb19190614bf5565b83611bbc9190614b61565b905060008287611bcc91906152a4565b905060008287611bdc91906152a4565b905081600760008c81526020019081526020016000206000828254611c019190614b61565b9250508190555080600860008c81526020019081526020016000206000828254611c2b9190614b61565b925050819055506001600c60008c815260200190815260200160002060006101000a81548160ff0219169083151502179055507f000000000000000000000000000000000000000000000000000000000000000073ffffffffffffffffffffffffffffffffffffffff1663a9059cbb33846040518363ffffffff1660e01b8152600401611cb9929190614ed4565b6020604051808303816000875af1158015611cd8573d6000803e3d6000fd5b505050506040513d601f19601f82011682018060405250810190611cfc9190614f12565b507f000000000000000000000000000000000000000000000000000000000000000073ffffffffffffffffffffffffffffffffffffffff1663a9059cbb33836040518363ffffffff1660e01b8152600401611d58929190614ed4565b6020604051808303816000875af1158015611d77573d6000803e3d6000fd5b505050506040513d601f19601f82011682018060405250810190611d9b9190614f12565b50897fcd2c25949e23ea2647ca2c5809b025ee3aca0d82cfcb1d22a715398f5cf8db8e8a8789604051611dd09392919061549b565b60405180910390a250505050505050505050565b611ded82610d13565b611e2c576040517f08c379a0000000000000000000000000000000000000000000000000000000008152600401611e239061547b565b60405180910390fd5b80611e373384610978565b1015611e78576040517f08c379a0000000000000000000000000000000000000000000000000000000008152600401611e6f9061540f565b60405180910390fd5b611e833383836132ff565b80600660008481526020019081526020016000206000828254611ea691906152a4565b925050819055506000600960008481526020019081526020016000205482611ece9190614bf5565b90506000600a60008581526020019081526020016000205483611ef19190614bf5565b90507f000000000000000000000000000000000000000000000000000000000000000073ffffffffffffffffffffffffffffffffffffffff1663a9059cbb33846040518363ffffffff1660e01b8152600401611f4e929190614ed4565b6020604051808303816000875af1158015611f6d573d6000803e3d6000fd5b505050506040513d601f19601f82011682018060405250810190611f919190614f12565b507f000000000000000000000000000000000000000000000000000000000000000073ffffffffffffffffffffffffffffffffffffffff1663a9059cbb33836040518363ffffffff1660e01b8152600401611fed929190614ed4565b6020604051808303816000875af115801561200c573d6000803e3d6000fd5b505050506040513d601f19601f820116820180604052508101906120309190614f12565b50816007600086815260200190815260200160002060008282546120549190614b61565b925050819055508060086000868152602001908152602001600020600082825461207e9190614b61565b9250508190555050505050565b600060086000838152602001908152602001600020549050919050565b600060046000838152602001908152602001600020600a01549050919050565b6120d182610d76565b612110576040517f08c379a00000000000000000000000000000000000000000000000000000000081526004016121079061551e565b60405180910390fd5b8061211b3384610978565b101561215c576040517f08c379a00000000000000000000000000000000000000000000000000000000081526004016121539061540f565b60405180910390fd5b6121673383836132ff565b8060066000848152602001908152602001600020600082825461218a91906152a4565b9250508190555060006004600084815260200190815260200160002060010154826121b59190614bf5565b90507f000000000000000000000000000000000000000000000000000000000000000073ffffffffffffffffffffffffffffffffffffffff1663a9059cbb33836040518363ffffffff1660e01b8152600401612212929190614ed4565b6020604051808303816000875af1158015612231573d6000803e3d6000fd5b505050506040513d601f19601f820116820180604052508101906122559190614f12565b50806007600085815260200190815260200160002060008282546122799190614b61565b92505081905550505050565b61228e81610d13565b1580156122a1575061229f81611676565b155b80156122b257506122b181610d3d565b5b6122f1576040517f08c379a00000000000000000000000000000000000000000000000000000000081526004016122e8906153a3565b60405180910390fd5b60006122fc8261161d565b905060006103e88261230e9190614f6e565b90506000818361231e9190614b61565b905060056000858152602001908152602001600020548161233f9190614f6e565b600b60008681526020019081526020016000208190555060006005600086815260200190815260200160002054600b60008781526020019081526020016000205461238a9190614bf5565b826123959190614b61565b9050600081846123a591906152a4565b9050806008600088815260200190815260200160002060008282546123ca9190614b61565b925050819055506001600d600088815260200190815260200160002060006101000a81548160ff0219169083151502179055507f000000000000000000000000000000000000000000000000000000000000000073ffffffffffffffffffffffffffffffffffffffff1663a9059cbb33836040518363ffffffff1660e01b8152600401612458929190614ed4565b6020604051808303816000875af1158015612477573d6000803e3d6000fd5b505050506040513d601f19601f8201168201806040525081019061249b9190614f12565b50857fac2eeaf45d1b75aed6b3285cda3efb3c382cce02ba313558bbb90be57f8843e486856040516124ce92919061553e565b60405180910390a2505050505050565b60007f000000000000000000000000000000000000000000000000000000000000000073ffffffffffffffffffffffffffffffffffffffff163373ffffffffffffffffffffffffffffffffffffffff161461256e576040517f08c379a000000000000000000000000000000000000000000000000000000000815260040161256590614d15565b60405180910390fd5b8484106125b0576040517f08c379a00000000000000000000000000000000000000000000000000000000081526004016125a7906155d9565b60405180910390fd5b60016003546125bf91906152a4565b90506001600360008282546125d491906152a4565b925050819055506125e733828c856136b1565b60006125f1611037565b90506000633b9aca008a836126069190614bf5565b6126109190614f6e565b90506040518061016001604052808a8a8080601f016020809104026020016040519081016040528093929190818152602001838380828437600081840152601f19601f8201169050808301925050505050505081526020018b815260200182815260200142815260200162015180896126899190614bf5565b4261269491906152a4565b815260200162015180886126a89190614bf5565b426126b391906152a4565b81526020018781526020018881526020018d81526020018c8152602001868152506004600085815260200190815260200160002060008201518160000190816126fc91906157a5565b506020820151816001015560408201518160020155606082015181600301556080820151816004015560a0820151816005015560c0820151816006015560e082015181600701556101008201518160080155610120820151816009015561014082015181600a0155905050827f3a10e10c16b4416f991fa4c931bcd0520986a7357f6ba95c4d92f806a4c1ebf38d8c8489620151808d61279c9190614bf5565b426127a791906152a4565b6040516127b8959493929190615877565b60405180910390a250509998505050505050505050565b60606000806000806000806000806000806000600460008e81526020019081526020016000206040518061016001604052908160008201805461281190614bc4565b80601f016020809104026020016040519081016040528092919081815260200182805461283d90614bc4565b801561288a5780601f1061285f5761010080835404028352916020019161288a565b820191906000526020600020905b81548152906001019060200180831161286d57829003601f168201915b50505050508152602001600182015481526020016002820154815260200160038201548152602001600482015481526020016005820154815260200160068201548152602001600782015481526020016008820154815260200160098201548152602001600a820154815250509050806000015181602001518260400151836060015184608001518560a001518660c001518760e001518861010001518961012001518a61014001519b509b509b509b509b509b509b509b509b509b509b505091939597999b90929496989a50565b600061296482610b22565b60046000848152602001908152602001600020600701546129859190614b61565b9050919050565b7f000000000000000000000000000000000000000000000000000000000000000073ffffffffffffffffffffffffffffffffffffffff163373ffffffffffffffffffffffffffffffffffffffff1614612a1a576040517f08c379a0000000000000000000000000000000000000000000000000000000008152600401612a1190614d15565b60405180910390fd5b612a2382610d13565b80612a335750612a328261128b565b5b15612a73576040517f08c379a0000000000000000000000000000000000000000000000000000000008152600401612a6a90615916565b60405180910390fd5b612a7c82611676565b15612abc576040517f08c379a0000000000000000000000000000000000000000000000000000000008152600401612ab390615982565b60405180910390fd5b80600860008481526020019081526020016000206000828254612adf91906152a4565b925050819055507f000000000000000000000000000000000000000000000000000000000000000073ffffffffffffffffffffffffffffffffffffffff166323b872dd3330846040518463ffffffff1660e01b8152600401612b43939291906152d8565b6020604051808303816000875af1158015612b62573d6000803e3d6000fd5b505050506040513d601f19601f82011682018060405250810190612b869190614f12565b505050565b7f000000000000000000000000000000000000000000000000000000000000000073ffffffffffffffffffffffffffffffffffffffff163373ffffffffffffffffffffffffffffffffffffffff1614612c19576040517f08c379a0000000000000000000000000000000000000000000000000000000008152600401612c1090614d15565b60405180910390fd5b612c2281611676565b8015612c335750612c3281611180565b5b612c72576040517f08c379a0000000000000000000000000000000000000000000000000000000008152600401612c69906159ee565b60405180910390fd5b6000600860008381526020019081526020016000205411612cc8576040517f08c379a0000000000000000000000000000000000000000000000000000000008152600401612cbf90615a5a565b60405180910390fd5b600060086000838152602001908152602001600020819055507f000000000000000000000000000000000000000000000000000000000000000073ffffffffffffffffffffffffffffffffffffffff1663a9059cbb3360086000858152602001908152602001600020546040518363ffffffff1660e01b8152600401612d4f929190614ed4565b6020604051808303816000875af1158015612d6e573d6000803e3d6000fd5b505050506040513d601f19601f82011682018060405250810190612d929190614f12565b5050565b6000600160008473ffffffffffffffffffffffffffffffffffffffff1673ffffffffffffffffffffffffffffffffffffffff16815260200190815260200160002060008373ffffffffffffffffffffffffffffffffffffffff1673ffffffffffffffffffffffffffffffffffffffff16815260200190815260200160002060009054906101000a900460ff16905092915050565b60007f000000000000000000000000000000000000000000000000000000000000000073ffffffffffffffffffffffffffffffffffffffff166370a08231306040518263ffffffff1660e01b8152600401612e85919061530f565b602060405180830381865afa158015612ea2573d6000803e3d6000fd5b505050506040513d601f19601f82011682018060405250810190612ec6919061532a565b905090565b612ed3612fd6565b73ffffffffffffffffffffffffffffffffffffffff168573ffffffffffffffffffffffffffffffffffffffff161480612f195750612f1885612f13612fd6565b612d96565b5b612f58576040517f08c379a0000000000000000000000000000000000000000000000000000000008152600401612f4f90614ca9565b60405180910390fd5b612f658585858585613861565b5050505050565b60007f01ffc9a7000000000000000000000000000000000000000000000000000000007bffffffffffffffffffffffffffffffffffffffffffffffffffffffff1916827bffffffffffffffffffffffffffffffffffffffffffffffffffffffff1916149050919050565b600033905090565b8151835114613022576040517f08c379a000000000000000000000000000000000000000000000000000000000815260040161301990615aec565b60405180910390fd5b600073ffffffffffffffffffffffffffffffffffffffff168473ffffffffffffffffffffffffffffffffffffffff1603613091576040517f08c379a000000000000000000000000000000000000000000000000000000000815260040161308890615b7e565b60405180910390fd5b600061309b612fd6565b90506130ab818787878787613afc565b60005b845181101561325c5760008582815181106130cc576130cb615031565b5b6020026020010151905060008583815181106130eb576130ea615031565b5b60200260200101519050600080600084815260200190815260200160002060008b73ffffffffffffffffffffffffffffffffffffffff1673ffffffffffffffffffffffffffffffffffffffff1681526020019081526020016000205490508181101561318c576040517f08c379a000000000000000000000000000000000000000000000000000000000815260040161318390615c10565b60405180910390fd5b81810360008085815260200190815260200160002060008c73ffffffffffffffffffffffffffffffffffffffff1673ffffffffffffffffffffffffffffffffffffffff168152602001908152602001600020819055508160008085815260200190815260200160002060008b73ffffffffffffffffffffffffffffffffffffffff1673ffffffffffffffffffffffffffffffffffffffff168152602001908152602001600020600082825461324191906152a4565b925050819055505050508061325590615060565b90506130ae565b508473ffffffffffffffffffffffffffffffffffffffff168673ffffffffffffffffffffffffffffffffffffffff168273ffffffffffffffffffffffffffffffffffffffff167f4a39dc06d4c0dbc64b70af90fd698a233a518aa5d07e595d983b8c0526c8f7fb87876040516132d3929190615c30565b60405180910390a46132e9818787878787613b04565b6132f7818787878787613b0c565b505050505050565b600073ffffffffffffffffffffffffffffffffffffffff168373ffffffffffffffffffffffffffffffffffffffff160361336e576040517f08c379a000000000000000000000000000000000000000000000000000000000815260040161336590615cd9565b60405180910390fd5b6000613378612fd6565b9050600061338584613ce3565b9050600061339284613ce3565b90506133b283876000858560405180602001604052806000815250613afc565b600080600087815260200190815260200160002060008873ffffffffffffffffffffffffffffffffffffffff1673ffffffffffffffffffffffffffffffffffffffff16815260200190815260200160002054905084811015613449576040517f08c379a000000000000000000000000000000000000000000000000000000000815260040161344090615d6b565b60405180910390fd5b84810360008088815260200190815260200160002060008973ffffffffffffffffffffffffffffffffffffffff1673ffffffffffffffffffffffffffffffffffffffff16815260200190815260200160002081905550600073ffffffffffffffffffffffffffffffffffffffff168773ffffffffffffffffffffffffffffffffffffffff168573ffffffffffffffffffffffffffffffffffffffff167fc3d58168c5ae7397731d063d5bbf3d657854427343f4c083240f7aacaa2d0f62898960405161351692919061553e565b60405180910390a461353c84886000868660405180602001604052806000815250613b04565b50505050505050565b8173ffffffffffffffffffffffffffffffffffffffff168373ffffffffffffffffffffffffffffffffffffffff16036135b3576040517f08c379a00000000000000000000000000000000000000000000000000000000081526004016135aa90615dfd565b60405180910390fd5b80600160008573ffffffffffffffffffffffffffffffffffffffff1673ffffffffffffffffffffffffffffffffffffffff16815260200190815260200160002060008473ffffffffffffffffffffffffffffffffffffffff1673ffffffffffffffffffffffffffffffffffffffff16815260200190815260200160002060006101000a81548160ff0219169083151502179055508173ffffffffffffffffffffffffffffffffffffffff168373ffffffffffffffffffffffffffffffffffffffff167f17307eab39ab6107e8899845ad3d59bd9653f200f220920489ca2b5937696c31836040516136a49190614109565b60405180910390a3505050565b600073ffffffffffffffffffffffffffffffffffffffff168473ffffffffffffffffffffffffffffffffffffffff1603613720576040517f08c379a000000000000000000000000000000000000000000000000000000000815260040161371790615e8f565b60405180910390fd5b600061372a612fd6565b9050600061373785613ce3565b9050600061374485613ce3565b905061375583600089858589613afc565b8460008088815260200190815260200160002060008973ffffffffffffffffffffffffffffffffffffffff1673ffffffffffffffffffffffffffffffffffffffff16815260200190815260200160002060008282546137b491906152a4565b925050819055508673ffffffffffffffffffffffffffffffffffffffff16600073ffffffffffffffffffffffffffffffffffffffff168473ffffffffffffffffffffffffffffffffffffffff167fc3d58168c5ae7397731d063d5bbf3d657854427343f4c083240f7aacaa2d0f62898960405161383292919061553e565b60405180910390a461384983600089858589613b04565b61385883600089898989613d5d565b50505050505050565b600073ffffffffffffffffffffffffffffffffffffffff168473ffffffffffffffffffffffffffffffffffffffff16036138d0576040517f08c379a00000000000000000000000000000000000000000000000000000000081526004016138c790615b7e565b60405180910390fd5b60006138da612fd6565b905060006138e785613ce3565b905060006138f485613ce3565b9050613904838989858589613afc565b600080600088815260200190815260200160002060008a73ffffffffffffffffffffffffffffffffffffffff1673ffffffffffffffffffffffffffffffffffffffff1681526020019081526020016000205490508581101561399b576040517f08c379a000000000000000000000000000000000000000000000000000000000815260040161399290615c10565b60405180910390fd5b85810360008089815260200190815260200160002060008b73ffffffffffffffffffffffffffffffffffffffff1673ffffffffffffffffffffffffffffffffffffffff168152602001908152602001600020819055508560008089815260200190815260200160002060008a73ffffffffffffffffffffffffffffffffffffffff1673ffffffffffffffffffffffffffffffffffffffff1681526020019081526020016000206000828254613a5091906152a4565b925050819055508773ffffffffffffffffffffffffffffffffffffffff168973ffffffffffffffffffffffffffffffffffffffff168573ffffffffffffffffffffffffffffffffffffffff167fc3d58168c5ae7397731d063d5bbf3d657854427343f4c083240f7aacaa2d0f628a8a604051613acd92919061553e565b60405180910390a4613ae3848a8a86868a613b04565b613af1848a8a8a8a8a613d5d565b505050505050505050565b505050505050565b505050505050565b613b2b8473ffffffffffffffffffffffffffffffffffffffff16613f34565b15613cdb578373ffffffffffffffffffffffffffffffffffffffff1663bc197c8187878686866040518663ffffffff1660e01b8152600401613b71959493929190615f04565b6020604051808303816000875af1925050508015613bad57506040513d601f19601f82011682018060405250810190613baa9190615f81565b60015b613c5257613bb9615fbb565b806308c379a003613c155750613bcd615fdd565b80613bd85750613c17565b806040517f08c379a0000000000000000000000000000000000000000000000000000000008152600401613c0c91906141e1565b60405180910390fd5b505b6040517f08c379a0000000000000000000000000000000000000000000000000000000008152600401613c49906160df565b60405180910390fd5b63bc197c8160e01b7bffffffffffffffffffffffffffffffffffffffffffffffffffffffff1916817bffffffffffffffffffffffffffffffffffffffffffffffffffffffff191614613cd9576040517f08c379a0000000000000000000000000000000000000000000000000000000008152600401613cd090616171565b60405180910390fd5b505b505050505050565b60606000600167ffffffffffffffff811115613d0257613d01614208565b5b604051908082528060200260200182016040528015613d305781602001602082028036833780820191505090505b5090508281600081518110613d4857613d47615031565b5b60200260200101818152505080915050919050565b613d7c8473ffffffffffffffffffffffffffffffffffffffff16613f34565b15613f2c578373ffffffffffffffffffffffffffffffffffffffff1663f23a6e6187878686866040518663ffffffff1660e01b8152600401613dc2959493929190616191565b6020604051808303816000875af1925050508015613dfe57506040513d601f19601f82011682018060405250810190613dfb9190615f81565b60015b613ea357613e0a615fbb565b806308c379a003613e665750613e1e615fdd565b80613e295750613e68565b806040517f08c379a0000000000000000000000000000000000000000000000000000000008152600401613e5d91906141e1565b60405180910390fd5b505b6040517f08c379a0000000000000000000000000000000000000000000000000000000008152600401613e9a906160df565b60405180910390fd5b63f23a6e6160e01b7bffffffffffffffffffffffffffffffffffffffffffffffffffffffff1916817bffffffffffffffffffffffffffffffffffffffffffffffffffffffff191614613f2a576040517f08c379a0000000000000000000000000000000000000000000000000000000008152600401613f2190616171565b60405180910390fd5b505b505050505050565b6000808273ffffffffffffffffffffffffffffffffffffffff163b119050919050565b6000604051905090565b600080fd5b600080fd5b600073ffffffffffffffffffffffffffffffffffffffff82169050919050565b6000613f9682613f6b565b9050919050565b613fa681613f8b565b8114613fb157600080fd5b50565b600081359050613fc381613f9d565b92915050565b6000819050919050565b613fdc81613fc9565b8114613fe757600080fd5b50565b600081359050613ff981613fd3565b92915050565b6000806040838503121561401657614015613f61565b5b600061402485828601613fb4565b925050602061403585828601613fea565b9150509250929050565b61404881613fc9565b82525050565b6000602082019050614063600083018461403f565b92915050565b60007fffffffff0000000000000000000000000000000000000000000000000000000082169050919050565b61409e81614069565b81146140a957600080fd5b50565b6000813590506140bb81614095565b92915050565b6000602082840312156140d7576140d6613f61565b5b60006140e5848285016140ac565b91505092915050565b60008115159050919050565b614103816140ee565b82525050565b600060208201905061411e60008301846140fa565b92915050565b60006020828403121561413a57614139613f61565b5b600061414884828501613fea565b91505092915050565b600081519050919050565b600082825260208201905092915050565b60005b8381101561418b578082015181840152602081019050614170565b60008484015250505050565b6000601f19601f8301169050919050565b60006141b382614151565b6141bd818561415c565b93506141cd81856020860161416d565b6141d681614197565b840191505092915050565b600060208201905081810360008301526141fb81846141a8565b905092915050565b600080fd5b7f4e487b7100000000000000000000000000000000000000000000000000000000600052604160045260246000fd5b61424082614197565b810181811067ffffffffffffffff8211171561425f5761425e614208565b5b80604052505050565b6000614272613f57565b905061427e8282614237565b919050565b600067ffffffffffffffff82111561429e5761429d614208565b5b602082029050602081019050919050565b600080fd5b60006142c76142c284614283565b614268565b905080838252602082019050602084028301858111156142ea576142e96142af565b5b835b8181101561431357806142ff8882613fea565b8452602084019350506020810190506142ec565b5050509392505050565b600082601f83011261433257614331614203565b5b81356143428482602086016142b4565b91505092915050565b600080fd5b600067ffffffffffffffff82111561436b5761436a614208565b5b61437482614197565b9050602081019050919050565b82818337600083830152505050565b60006143a361439e84614350565b614268565b9050828152602081018484840111156143bf576143be61434b565b5b6143ca848285614381565b509392505050565b600082601f8301126143e7576143e6614203565b5b81356143f7848260208601614390565b91505092915050565b600080600080600060a0868803121561441c5761441b613f61565b5b600061442a88828901613fb4565b955050602061443b88828901613fb4565b945050604086013567ffffffffffffffff81111561445c5761445b613f66565b5b6144688882890161431d565b935050606086013567ffffffffffffffff81111561448957614488613f66565b5b6144958882890161431d565b925050608086013567ffffffffffffffff8111156144b6576144b5613f66565b5b6144c2888289016143d2565b9150509295509295909350565b600080604083850312156144e6576144e5613f61565b5b60006144f485828601613fea565b925050602061450585828601613fea565b9150509250929050565b600067ffffffffffffffff82111561452a57614529614208565b5b602082029050602081019050919050565b600061454e6145498461450f565b614268565b90508083825260208201905060208402830185811115614571576145706142af565b5b835b8181101561459a57806145868882613fb4565b845260208401935050602081019050614573565b5050509392505050565b600082601f8301126145b9576145b8614203565b5b81356145c984826020860161453b565b91505092915050565b600080604083850312156145e9576145e8613f61565b5b600083013567ffffffffffffffff81111561460757614606613f66565b5b614613858286016145a4565b925050602083013567ffffffffffffffff81111561463457614633613f66565b5b6146408582860161431d565b9150509250929050565b600081519050919050565b600082825260208201905092915050565b6000819050602082019050919050565b61467f81613fc9565b82525050565b60006146918383614676565b60208301905092915050565b6000602082019050919050565b60006146b58261464a565b6146bf8185614655565b93506146ca83614666565b8060005b838110156146fb5781516146e28882614685565b97506146ed8361469d565b9250506001810190506146ce565b5085935050505092915050565b6000602082019050818103600083015261472281846146aa565b905092915050565b6000819050919050565b61473d8161472a565b82525050565b60006020820190506147586000830184614734565b92915050565b614767816140ee565b811461477257600080fd5b50565b6000813590506147848161475e565b92915050565b600080604083850312156147a1576147a0613f61565b5b60006147af85828601613fb4565b92505060206147c085828601614775565b9150509250929050565b600080fd5b60008083601f8401126147e5576147e4614203565b5b8235905067ffffffffffffffff811115614802576148016147ca565b5b60208301915083600182028301111561481e5761481d6142af565b5b9250929050565b60008060008060008060008060006101008a8c03121561484857614847613f61565b5b60006148568c828d01613fea565b99505060206148678c828d01613fea565b98505060406148788c828d01613fea565b97505060608a013567ffffffffffffffff81111561489957614898613f66565b5b6148a58c828d016147cf565b965096505060806148b88c828d01613fea565b94505060a06148c98c828d01613fea565b93505060c06148da8c828d01613fea565b92505060e08a013567ffffffffffffffff8111156148fb576148fa613f66565b5b6149078c828d016143d2565b9150509295985092959850929598565b6000610160820190508181036000830152614932818e6141a8565b9050614941602083018d61403f565b61494e604083018c61403f565b61495b606083018b61403f565b614968608083018a61403f565b61497560a083018961403f565b61498260c083018861403f565b61498f60e083018761403f565b61499d61010083018661403f565b6149ab61012083018561403f565b6149b961014083018461403f565b9c9b505050505050505050505050565b600080604083850312156149e0576149df613f61565b5b60006149ee85828601613fb4565b92505060206149ff85828601613fb4565b9150509250929050565b600080600080600060a08688031215614a2557614a24613f61565b5b6000614a3388828901613fb4565b9550506020614a4488828901613fb4565b9450506040614a5588828901613fea565b9350506060614a6688828901613fea565b925050608086013567ffffffffffffffff811115614a8757614a86613f66565b5b614a93888289016143d2565b9150509295509295909350565b7f455243313135353a2061646472657373207a65726f206973206e6f742061207660008201527f616c6964206f776e657200000000000000000000000000000000000000000000602082015250565b6000614afc602a8361415c565b9150614b0782614aa0565b604082019050919050565b60006020820190508181036000830152614b2b81614aef565b9050919050565b7f4e487b7100000000000000000000000000000000000000000000000000000000600052601160045260246000fd5b6000614b6c82613fc9565b9150614b7783613fc9565b9250828203905081811115614b8f57614b8e614b32565b5b92915050565b7f4e487b7100000000000000000000000000000000000000000000000000000000600052602260045260246000fd5b60006002820490506001821680614bdc57607f821691505b602082108103614bef57614bee614b95565b5b50919050565b6000614c0082613fc9565b9150614c0b83613fc9565b9250828202614c1981613fc9565b91508282048414831517614c3057614c2f614b32565b5b5092915050565b7f455243313135353a2063616c6c6572206973206e6f7420746f6b656e206f776e60008201527f6572206f7220617070726f766564000000000000000000000000000000000000602082015250565b6000614c93602e8361415c565b9150614c9e82614c37565b604082019050919050565b60006020820190508181036000830152614cc281614c86565b9050919050565b7f43616c6c6572206973206e6f7420746865206f776e6572000000000000000000600082015250565b6000614cff60178361415c565b9150614d0a82614cc9565b602082019050919050565b60006020820190508181036000830152614d2e81614cf2565b9050919050565b7f5769746864726177206e6f7420616c6c6f776564207768656e20616374697665600082015250565b6000614d6b60208361415c565b9150614d7682614d35565b602082019050919050565b60006020820190508181036000830152614d9a81614d5e565b9050919050565b7f5769746864726177206e6f7420616c6c6f776564207768656e2064656661756c60008201527f7465640000000000000000000000000000000000000000000000000000000000602082015250565b6000614dfd60238361415c565b9150614e0882614da1565b604082019050919050565b60006020820190508181036000830152614e2c81614df0565b9050919050565b7f5769746864726177616c20746f6b656e20616d6f756e7420657863656564732060008201527f746f6b656e20616d6f756e7420696e20636f6e74726163740000000000000000602082015250565b6000614e8f60388361415c565b9150614e9a82614e33565b604082019050919050565b60006020820190508181036000830152614ebe81614e82565b9050919050565b614ece81613f8b565b82525050565b6000604082019050614ee96000830185614ec5565b614ef6602083018461403f565b9392505050565b600081519050614f0c8161475e565b92915050565b600060208284031215614f2857614f27613f61565b5b6000614f3684828501614efd565b91505092915050565b7f4e487b7100000000000000000000000000000000000000000000000000000000600052601260045260246000fd5b6000614f7982613fc9565b9150614f8483613fc9565b925082614f9457614f93614f3f565b5b828204905092915050565b7f455243313135353a206163636f756e747320616e6420696473206c656e67746860008201527f206d69736d617463680000000000000000000000000000000000000000000000602082015250565b6000614ffb60298361415c565b915061500682614f9f565b604082019050919050565b6000602082019050818103600083015261502a81614fee565b9050919050565b7f4e487b7100000000000000000000000000000000000000000000000000000000600052603260045260246000fd5b600061506b82613fc9565b91507fffffffffffffffffffffffffffffffffffffffffffffffffffffffffffffffff820361509d5761509c614b32565b5b600182019050919050565b600069ffffffffffffffffffff82169050919050565b6150c7816150a8565b81146150d257600080fd5b50565b6000815190506150e4816150be565b92915050565b6150f38161472a565b81146150fe57600080fd5b50565b600081519050615110816150ea565b92915050565b60008151905061512581613fd3565b92915050565b600080600080600060a0868803121561514757615146613f61565b5b6000615155888289016150d5565b955050602061516688828901615101565b945050604061517788828901615116565b935050606061518888828901615116565b9250506080615199888289016150d5565b9150509295509295909350565b7f426f6e6420697320696e61637469766500000000000000000000000000000000600082015250565b60006151dc60108361415c565b91506151e7826151a6565b602082019050919050565b6000602082019050818103600083015261520b816151cf565b9050919050565b7f496e73756666696369656e7420626f6e64207175616e746974792072656d616960008201527f6e696e6700000000000000000000000000000000000000000000000000000000602082015250565b600061526e60248361415c565b915061527982615212565b604082019050919050565b6000602082019050818103600083015261529d81615261565b9050919050565b60006152af82613fc9565b91506152ba83613fc9565b92508282019050808211156152d2576152d1614b32565b5b92915050565b60006060820190506152ed6000830186614ec5565b6152fa6020830185614ec5565b615307604083018461403f565b949350505050565b60006020820190506153246000830184614ec5565b92915050565b6000602082840312156153405761533f613f61565b5b600061534e84828501615116565b91505092915050565b7f426f6e64206973206e6f7420636f6d706c657465640000000000000000000000600082015250565b600061538d60158361415c565b915061539882615357565b602082019050919050565b600060208201905081810360008301526153bc81615380565b9050919050565b7f496e73756666696369656e7420626f6e64207175616e74697479000000000000600082015250565b60006153f9601a8361415c565b9150615404826153c3565b602082019050919050565b60006020820190508181036000830152615428816153ec565b9050919050565b7f426f6e64206973206e6f742064656661756c7465640000000000000000000000600082015250565b600061546560158361415c565b91506154708261542f565b602082019050919050565b6000602082019050818103600083015261549481615458565b9050919050565b60006060820190506154b0600083018661403f565b6154bd602083018561403f565b6154ca604083018461403f565b949350505050565b7f426f6e64206973206e6f742063616e63656c6564000000000000000000000000600082015250565b600061550860148361415c565b9150615513826154d2565b602082019050919050565b60006020820190508181036000830152615537816154fb565b9050919050565b6000604082019050615553600083018561403f565b615560602083018461403f565b9392505050565b7f416374697665206475726174696f6e2073686f756c642062652073686f72746560008201527f72207468616e206475726174696f6e0000000000000000000000000000000000602082015250565b60006155c3602f8361415c565b91506155ce82615567565b604082019050919050565b600060208201905081810360008301526155f2816155b6565b9050919050565b60008190508160005260206000209050919050565b60006020601f8301049050919050565b600082821b905092915050565b60006008830261565b7fffffffffffffffffffffffffffffffffffffffffffffffffffffffffffffffff8261561e565b615665868361561e565b95508019841693508086168417925050509392505050565b6000819050919050565b60006156a261569d61569884613fc9565b61567d565b613fc9565b9050919050565b6000819050919050565b6156bc83615687565b6156d06156c8826156a9565b84845461562b565b825550505050565b600090565b6156e56156d8565b6156f08184846156b3565b505050565b5b81811015615714576157096000826156dd565b6001810190506156f6565b5050565b601f8211156157595761572a816155f9565b6157338461560e565b81016020851015615742578190505b61575661574e8561560e565b8301826156f5565b50505b505050565b600082821c905092915050565b600061577c6000198460080261575e565b1980831691505092915050565b6000615795838361576b565b9150826002028217905092915050565b6157ae82614151565b67ffffffffffffffff8111156157c7576157c6614208565b5b6157d18254614bc4565b6157dc828285615718565b600060209050601f83116001811461580f57600084156157fd578287015190505b6158078582615789565b86555061586f565b601f19841661581d866155f9565b60005b8281101561584557848901518255600182019150602085019450602081019050615820565b86831015615862578489015161585e601f89168261576b565b8355505b6001600288020188555050505b505050505050565b600060a08201905061588c600083018861403f565b615899602083018761403f565b6158a6604083018661403f565b6158b3606083018561403f565b6158c0608083018461403f565b9695505050505050565b7f626f6e642069732064656661756c746564000000000000000000000000000000600082015250565b600061590060118361415c565b915061590b826158ca565b602082019050919050565b6000602082019050818103600083015261592f816158f3565b9050919050565b7f626f6e6420697320636f6d706c65746564000000000000000000000000000000600082015250565b600061596c60118361415c565b915061597782615936565b602082019050919050565b6000602082019050818103600083015261599b8161595f565b9050919050565b7f43616e6e6f742077697468647261772065786365737300000000000000000000600082015250565b60006159d860168361415c565b91506159e3826159a2565b602082019050919050565b60006020820190508181036000830152615a07816159cb565b9050919050565b7f43616e6e6f742077697468647261772066726f6d20656d70747920706f6f6c00600082015250565b6000615a44601f8361415c565b9150615a4f82615a0e565b602082019050919050565b60006020820190508181036000830152615a7381615a37565b9050919050565b7f455243313135353a2069647320616e6420616d6f756e7473206c656e6774682060008201527f6d69736d61746368000000000000000000000000000000000000000000000000602082015250565b6000615ad660288361415c565b9150615ae182615a7a565b604082019050919050565b60006020820190508181036000830152615b0581615ac9565b9050919050565b7f455243313135353a207472616e7366657220746f20746865207a65726f20616460008201527f6472657373000000000000000000000000000000000000000000000000000000602082015250565b6000615b6860258361415c565b9150615b7382615b0c565b604082019050919050565b60006020820190508181036000830152615b9781615b5b565b9050919050565b7f455243313135353a20696e73756666696369656e742062616c616e636520666f60008201527f72207472616e7366657200000000000000000000000000000000000000000000602082015250565b6000615bfa602a8361415c565b9150615c0582615b9e565b604082019050919050565b60006020820190508181036000830152615c2981615bed565b9050919050565b60006040820190508181036000830152615c4a81856146aa565b90508181036020830152615c5e81846146aa565b90509392505050565b7f455243313135353a206275726e2066726f6d20746865207a65726f206164647260008201527f6573730000000000000000000000000000000000000000000000000000000000602082015250565b6000615cc360238361415c565b9150615cce82615c67565b604082019050919050565b60006020820190508181036000830152615cf281615cb6565b9050919050565b7f455243313135353a206275726e20616d6f756e7420657863656564732062616c60008201527f616e636500000000000000000000000000000000000000000000000000000000602082015250565b6000615d5560248361415c565b9150615d6082615cf9565b604082019050919050565b60006020820190508181036000830152615d8481615d48565b9050919050565b7f455243313135353a2073657474696e6720617070726f76616c2073746174757360008201527f20666f722073656c660000000000000000000000000000000000000000000000602082015250565b6000615de760298361415c565b9150615df282615d8b565b604082019050919050565b60006020820190508181036000830152615e1681615dda565b9050919050565b7f455243313135353a206d696e7420746f20746865207a65726f2061646472657360008201527f7300000000000000000000000000000000000000000000000000000000000000602082015250565b6000615e7960218361415c565b9150615e8482615e1d565b604082019050919050565b60006020820190508181036000830152615ea881615e6c565b9050919050565b600081519050919050565b600082825260208201905092915050565b6000615ed682615eaf565b615ee08185615eba565b9350615ef081856020860161416d565b615ef981614197565b840191505092915050565b600060a082019050615f196000830188614ec5565b615f266020830187614ec5565b8181036040830152615f3881866146aa565b90508181036060830152615f4c81856146aa565b90508181036080830152615f608184615ecb565b90509695505050505050565b600081519050615f7b81614095565b92915050565b600060208284031215615f9757615f96613f61565b5b6000615fa584828501615f6c565b91505092915050565b60008160e01c9050919050565b600060033d1115615fda5760046000803e615fd7600051615fae565b90505b90565b600060443d1061606a57615fef613f57565b60043d036004823e80513d602482011167ffffffffffffffff8211171561601757505061606a565b808201805167ffffffffffffffff811115616035575050505061606a565b80602083010160043d03850181111561605257505050505061606a565b61606182602001850186614237565b82955050505050505b90565b7f455243313135353a207472616e7366657220746f206e6f6e2d4552433131353560008201527f526563656976657220696d706c656d656e746572000000000000000000000000602082015250565b60006160c960348361415c565b91506160d48261606d565b604082019050919050565b600060208201905081810360008301526160f8816160bc565b9050919050565b7f455243313135353a204552433131353552656365697665722072656a6563746560008201527f6420746f6b656e73000000000000000000000000000000000000000000000000602082015250565b600061615b60288361415c565b9150616166826160ff565b604082019050919050565b6000602082019050818103600083015261618a8161614e565b9050919050565b600060a0820190506161a66000830188614ec5565b6161b36020830187614ec5565b6161c0604083018661403f565b6161cd606083018561403f565b81810360808301526161df8184615ecb565b9050969550505050505056fea2646970667358221220e8a05838d9ae7c4904dc6be9c7b02f45e7bab6f52e4e94d86bd7f167c4038f1264736f6c63430008110033",
  "linkReferences": {},
  "deployedLinkReferences": {}
}