{
  "_format": "hh-sol-artifact-1",
  "contractName": "DualCurrencyBondFactory",
  "sourceName": "contracts/DualCurrencyBondFactory.sol",
  "abi": [
    {
      "inputs": [
        {
          "internalType": "string",
          "name": "uri",
          "type": "string"
        },
        {
          "internalType": "address",
          "name": "tokenA",
          "type": "address"
        },
        {
          "internalType": "address",
          "name": "tokenB",
          "type": "address"
        },
        {
          "internalType": "address",
          "name": "priceFeedA",
          "type": "address"
        },
        {
          "internalType": "address",
          "name": "priceFeedB",
          "type": "address"
        }
      ],
      "stateMutability": "nonpayable",
      "type": "constructor"
    },
    {
      "anonymous": false,
      "inputs": [
        {
          "indexed": true,
          "internalType": "address",
          "name": "account",
          "type": "address"
        },
        {
          "indexed": true,
          "internalType": "address",
          "name": "operator",
          "type": "address"
        },
        {
          "indexed": false,
          "internalType": "bool",
          "name": "approved",
          "type": "bool"
        }
      ],
      "name": "ApprovalForAll",
      "type": "event"
    },
    {
      "anonymous": false,
      "inputs": [
        {
          "indexed": true,
          "internalType": "uint256",
          "name": "id",
          "type": "uint256"
        },
        {
          "indexed": false,
          "internalType": "uint256",
          "name": "totalDebt",
          "type": "uint256"
        },
        {
          "indexed": false,
          "internalType": "uint256",
          "name": "paidDebt",
          "type": "uint256"
        }
      ],
      "name": "Completed",
      "type": "event"
    },
    {
      "anonymous": false,
      "inputs": [
        {
          "indexed": true,
          "internalType": "uint256",
          "name": "id",
          "type": "uint256"
        },
        {
          "indexed": false,
          "internalType": "uint256",
          "name": "totalDebt",
          "type": "uint256"
        },
        {
          "indexed": false,
          "internalType": "uint256",
          "name": "paidDebtA",
          "type": "uint256"
        },
        {
          "indexed": false,
          "internalType": "uint256",
          "name": "paidDebtB",
          "type": "uint256"
        }
      ],
      "name": "Defaulted",
      "type": "event"
    },
    {
      "anonymous": false,
      "inputs": [
        {
          "indexed": true,
          "internalType": "uint256",
          "name": "id",
          "type": "uint256"
        },
        {
          "indexed": false,
          "internalType": "uint256",
          "name": "bondQuantity",
          "type": "uint256"
        },
        {
          "indexed": false,
          "internalType": "uint256",
          "name": "tokenAAmountPerBond",
          "type": "uint256"
        },
        {
          "indexed": false,
          "internalType": "uint256",
          "name": "tokenBAmountPerBond",
          "type": "uint256"
        },
        {
          "indexed": false,
          "internalType": "uint256",
          "name": "couponRate",
          "type": "uint256"
        }
      ],
      "name": "Issued",
      "type": "event"
    },
    {
      "anonymous": false,
      "inputs": [
        {
          "indexed": true,
          "internalType": "address",
          "name": "operator",
          "type": "address"
        },
        {
          "indexed": true,
          "internalType": "address",
          "name": "from",
          "type": "address"
        },
        {
          "indexed": true,
          "internalType": "address",
          "name": "to",
          "type": "address"
        },
        {
          "indexed": false,
          "internalType": "uint256[]",
          "name": "ids",
          "type": "uint256[]"
        },
        {
          "indexed": false,
          "internalType": "uint256[]",
          "name": "values",
          "type": "uint256[]"
        }
      ],
      "name": "TransferBatch",
      "type": "event"
    },
    {
      "anonymous": false,
      "inputs": [
        {
          "indexed": true,
          "internalType": "address",
          "name": "operator",
          "type": "address"
        },
        {
          "indexed": true,
          "internalType": "address",
          "name": "from",
          "type": "address"
        },
        {
          "indexed": true,
          "internalType": "address",
          "name": "to",
          "type": "address"
        },
        {
          "indexed": false,
          "internalType": "uint256",
          "name": "id",
          "type": "uint256"
        },
        {
          "indexed": false,
          "internalType": "uint256",
          "name": "value",
          "type": "uint256"
        }
      ],
      "name": "TransferSingle",
      "type": "event"
    },
    {
      "anonymous": false,
      "inputs": [
        {
          "indexed": false,
          "internalType": "string",
          "name": "value",
          "type": "string"
        },
        {
          "indexed": true,
          "internalType": "uint256",
          "name": "id",
          "type": "uint256"
        }
      ],
      "name": "URI",
      "type": "event"
    },
    {
      "inputs": [
        {
          "internalType": "address",
          "name": "account",
          "type": "address"
        },
        {
          "internalType": "uint256",
          "name": "id",
          "type": "uint256"
        }
      ],
      "name": "balanceOf",
      "outputs": [
        {
          "internalType": "uint256",
          "name": "",
          "type": "uint256"
        }
      ],
      "stateMutability": "view",
      "type": "function"
    },
    {
      "inputs": [
        {
          "internalType": "address[]",
          "name": "accounts",
          "type": "address[]"
        },
        {
          "internalType": "uint256[]",
          "name": "ids",
          "type": "uint256[]"
        }
      ],
      "name": "balanceOfBatch",
      "outputs": [
        {
          "internalType": "uint256[]",
          "name": "",
          "type": "uint256[]"
        }
      ],
      "stateMutability": "view",
      "type": "function"
    },
    {
      "inputs": [
        {
          "internalType": "uint256",
          "name": "id",
          "type": "uint256"
        }
      ],
      "name": "bondmetaData",
      "outputs": [
        {
          "internalType": "string",
          "name": "",
          "type": "string"
        },
        {
          "internalType": "uint256",
          "name": "",
          "type": "uint256"
        },
        {
          "internalType": "uint256",
          "name": "",
          "type": "uint256"
        },
        {
          "internalType": "uint256",
          "name": "",
          "type": "uint256"
        },
        {
          "internalType": "uint256",
          "name": "",
          "type": "uint256"
        },
        {
          "internalType": "uint256",
          "name": "",
          "type": "uint256"
        },
        {
          "internalType": "uint256",
          "name": "",
          "type": "uint256"
        },
        {
          "internalType": "uint256",
          "name": "",
          "type": "uint256"
        },
        {
          "internalType": "uint256",
          "name": "",
          "type": "uint256"
        },
        {
          "internalType": "uint256",
          "name": "",
          "type": "uint256"
        },
        {
          "internalType": "uint256",
          "name": "",
          "type": "uint256"
        }
      ],
      "stateMutability": "view",
      "type": "function"
    },
    {
      "inputs": [
        {
          "internalType": "uint256",
          "name": "id",
          "type": "uint256"
        }
      ],
      "name": "couponRate",
      "outputs": [
        {
          "internalType": "uint256",
          "name": "",
          "type": "uint256"
        }
      ],
      "stateMutability": "view",
      "type": "function"
    },
    {
      "inputs": [
        {
          "internalType": "uint256",
          "name": "id",
          "type": "uint256"
        },
        {
          "internalType": "uint256",
          "name": "tokenAmount",
          "type": "uint256"
        }
      ],
      "name": "deposit",
      "outputs": [],
      "stateMutability": "nonpayable",
      "type": "function"
    },
    {
      "inputs": [],
      "name": "getAtoBExchangeRate",
      "outputs": [
        {
          "internalType": "uint256",
          "name": "",
          "type": "uint256"
        }
      ],
      "stateMutability": "view",
      "type": "function"
    },
    {
      "inputs": [],
      "name": "getLatestPriceA",
      "outputs": [
        {
          "internalType": "int256",
          "name": "",
          "type": "int256"
        }
      ],
      "stateMutability": "view",
      "type": "function"
    },
    {
      "inputs": [],
      "name": "getLatestPriceB",
      "outputs": [
        {
          "internalType": "int256",
          "name": "",
          "type": "int256"
        }
      ],
      "stateMutability": "view",
      "type": "function"
    },
    {
      "inputs": [
        {
          "internalType": "uint256",
          "name": "id",
          "type": "uint256"
        }
      ],
      "name": "hasReachedMaturity",
      "outputs": [
        {
          "internalType": "bool",
          "name": "",
          "type": "bool"
        }
      ],
      "stateMutability": "view",
      "type": "function"
    },
    {
      "inputs": [
        {
          "internalType": "uint256",
          "name": "id",
          "type": "uint256"
        }
      ],
      "name": "isActive",
      "outputs": [
        {
          "internalType": "bool",
          "name": "",
          "type": "bool"
        }
      ],
      "stateMutability": "view",
      "type": "function"
    },
    {
      "inputs": [
        {
          "internalType": "address",
          "name": "account",
          "type": "address"
        },
        {
          "internalType": "address",
          "name": "operator",
          "type": "address"
        }
      ],
      "name": "isApprovedForAll",
      "outputs": [
        {
          "internalType": "bool",
          "name": "",
          "type": "bool"
        }
      ],
      "stateMutability": "view",
      "type": "function"
    },
    {
      "inputs": [
        {
          "internalType": "uint256",
          "name": "id",
          "type": "uint256"
        }
      ],
      "name": "isCanceled",
      "outputs": [
        {
          "internalType": "bool",
          "name": "",
          "type": "bool"
        }
      ],
      "stateMutability": "view",
      "type": "function"
    },
    {
      "inputs": [
        {
          "internalType": "uint256",
          "name": "id",
          "type": "uint256"
        }
      ],
      "name": "isCompleted",
      "outputs": [
        {
          "internalType": "bool",
          "name": "",
          "type": "bool"
        }
      ],
      "stateMutability": "view",
      "type": "function"
    },
    {
      "inputs": [
        {
          "internalType": "uint256",
          "name": "id",
          "type": "uint256"
        }
      ],
      "name": "isCompletedInTheory",
      "outputs": [
        {
          "internalType": "bool",
          "name": "",
          "type": "bool"
        }
      ],
      "stateMutability": "view",
      "type": "function"
    },
    {
      "inputs": [
        {
          "internalType": "uint256",
          "name": "id",
          "type": "uint256"
        }
      ],
      "name": "isDefaulted",
      "outputs": [
        {
          "internalType": "bool",
          "name": "",
          "type": "bool"
        }
      ],
      "stateMutability": "view",
      "type": "function"
    },
    {
      "inputs": [
        {
          "internalType": "uint256",
          "name": "id",
          "type": "uint256"
        }
      ],
      "name": "isDefaultedInTheory",
      "outputs": [
        {
          "internalType": "bool",
          "name": "",
          "type": "bool"
        }
      ],
      "stateMutability": "view",
      "type": "function"
    },
    {
      "inputs": [
        {
          "internalType": "uint256",
          "name": "id",
          "type": "uint256"
        }
      ],
      "name": "isFulfilled",
      "outputs": [
        {
          "internalType": "bool",
          "name": "",
          "type": "bool"
        }
      ],
      "stateMutability": "view",
      "type": "function"
    },
    {
      "inputs": [
        {
          "internalType": "uint256",
          "name": "id",
          "type": "uint256"
        }
      ],
      "name": "isFullyRedeemed",
      "outputs": [
        {
          "internalType": "bool",
          "name": "",
          "type": "bool"
        }
      ],
      "stateMutability": "view",
      "type": "function"
    },
    {
      "inputs": [
        {
          "internalType": "uint256",
          "name": "bondQuantity",
          "type": "uint256"
        },
        {
          "internalType": "uint256",
          "name": "minPurchasedQuantity",
          "type": "uint256"
        },
        {
          "internalType": "uint256",
          "name": "tokenAAmountPerBond",
          "type": "uint256"
        },
        {
          "internalType": "string",
          "name": "ticker",
          "type": "string"
        },
        {
          "internalType": "uint256",
          "name": "durationDays",
          "type": "uint256"
        },
        {
          "internalType": "uint256",
          "name": "activeDurationInDays",
          "type": "uint256"
        },
        {
          "internalType": "uint256",
          "name": "rate",
          "type": "uint256"
        },
        {
          "internalType": "bytes",
          "name": "data",
          "type": "bytes"
        }
      ],
      "name": "issue",
      "outputs": [
        {
          "internalType": "uint256",
          "name": "id",
          "type": "uint256"
        }
      ],
      "stateMutability": "nonpayable",
      "type": "function"
    },
    {
      "inputs": [
        {
          "internalType": "uint256",
          "name": "id",
          "type": "uint256"
        }
      ],
      "name": "markAsCompleted",
      "outputs": [],
      "stateMutability": "nonpayable",
      "type": "function"
    },
    {
      "inputs": [
        {
          "internalType": "uint256",
          "name": "id",
          "type": "uint256"
        }
      ],
      "name": "markAsDefaulted",
      "outputs": [],
      "stateMutability": "nonpayable",
      "type": "function"
    },
    {
      "inputs": [
        {
          "internalType": "uint256",
          "name": "id",
          "type": "uint256"
        }
      ],
      "name": "poolAAmount",
      "outputs": [
        {
          "internalType": "uint256",
          "name": "",
          "type": "uint256"
        }
      ],
      "stateMutability": "view",
      "type": "function"
    },
    {
      "inputs": [
        {
          "internalType": "uint256",
          "name": "id",
          "type": "uint256"
        }
      ],
      "name": "poolBAmount",
      "outputs": [
        {
          "internalType": "uint256",
          "name": "",
          "type": "uint256"
        }
      ],
      "stateMutability": "view",
      "type": "function"
    },
    {
      "inputs": [
        {
          "internalType": "uint256",
          "name": "id",
          "type": "uint256"
        }
      ],
      "name": "principal",
      "outputs": [
        {
          "internalType": "uint256",
          "name": "",
          "type": "uint256"
        }
      ],
      "stateMutability": "view",
      "type": "function"
    },
    {
      "inputs": [
        {
          "internalType": "uint256",
          "name": "id",
          "type": "uint256"
        }
      ],
      "name": "principalWithInterest",
      "outputs": [
        {
          "internalType": "uint256",
          "name": "",
          "type": "uint256"
        }
      ],
      "stateMutability": "view",
      "type": "function"
    },
    {
      "inputs": [
        {
          "internalType": "uint256",
          "name": "id",
          "type": "uint256"
        },
        {
          "internalType": "uint256",
          "name": "bondQuantity",
          "type": "uint256"
        }
      ],
      "name": "purchase",
      "outputs": [],
      "stateMutability": "nonpayable",
      "type": "function"
    },
    {
      "inputs": [
        {
          "internalType": "uint256",
          "name": "id",
          "type": "uint256"
        },
        {
          "internalType": "uint256",
          "name": "bondQuantity",
          "type": "uint256"
        }
      ],
      "name": "redeem",
      "outputs": [],
      "stateMutability": "nonpayable",
      "type": "function"
    },
    {
      "inputs": [
        {
          "internalType": "uint256",
          "name": "id",
          "type": "uint256"
        },
        {
          "internalType": "uint256",
          "name": "bondQuantity",
          "type": "uint256"
        }
      ],
      "name": "redeemCanceled",
      "outputs": [],
      "stateMutability": "nonpayable",
      "type": "function"
    },
    {
      "inputs": [
        {
          "internalType": "uint256",
          "name": "id",
          "type": "uint256"
        },
        {
          "internalType": "uint256",
          "name": "bondQuantity",
          "type": "uint256"
        }
      ],
      "name": "redeemDefaulted",
      "outputs": [],
      "stateMutability": "nonpayable",
      "type": "function"
    },
    {
      "inputs": [
        {
          "internalType": "uint256",
          "name": "id",
          "type": "uint256"
        }
      ],
      "name": "remainingQuantity",
      "outputs": [
        {
          "internalType": "uint256",
          "name": "",
          "type": "uint256"
        }
      ],
      "stateMutability": "view",
      "type": "function"
    },
    {
      "inputs": [
        {
          "internalType": "address",
          "name": "from",
          "type": "address"
        },
        {
          "internalType": "address",
          "name": "to",
          "type": "address"
        },
        {
          "internalType": "uint256[]",
          "name": "ids",
          "type": "uint256[]"
        },
        {
          "internalType": "uint256[]",
          "name": "amounts",
          "type": "uint256[]"
        },
        {
          "internalType": "bytes",
          "name": "data",
          "type": "bytes"
        }
      ],
      "name": "safeBatchTransferFrom",
      "outputs": [],
      "stateMutability": "nonpayable",
      "type": "function"
    },
    {
      "inputs": [
        {
          "internalType": "address",
          "name": "from",
          "type": "address"
        },
        {
          "internalType": "address",
          "name": "to",
          "type": "address"
        },
        {
          "internalType": "uint256",
          "name": "id",
          "type": "uint256"
        },
        {
          "internalType": "uint256",
          "name": "amount",
          "type": "uint256"
        },
        {
          "internalType": "bytes",
          "name": "data",
          "type": "bytes"
        }
      ],
      "name": "safeTransferFrom",
      "outputs": [],
      "stateMutability": "nonpayable",
      "type": "function"
    },
    {
      "inputs": [
        {
          "internalType": "address",
          "name": "operator",
          "type": "address"
        },
        {
          "internalType": "bool",
          "name": "approved",
          "type": "bool"
        }
      ],
      "name": "setApprovalForAll",
      "outputs": [],
      "stateMutability": "nonpayable",
      "type": "function"
    },
    {
      "inputs": [
        {
          "internalType": "bytes4",
          "name": "interfaceId",
          "type": "bytes4"
        }
      ],
      "name": "supportsInterface",
      "outputs": [
        {
          "internalType": "bool",
          "name": "",
          "type": "bool"
        }
      ],
      "stateMutability": "view",
      "type": "function"
    },
    {
      "inputs": [
        {
          "internalType": "uint256",
          "name": "id",
          "type": "uint256"
        }
      ],
      "name": "timeElapsed",
      "outputs": [
        {
          "internalType": "uint256",
          "name": "",
          "type": "uint256"
        }
      ],
      "stateMutability": "view",
      "type": "function"
    },
    {
      "inputs": [
        {
          "internalType": "uint256",
          "name": "id",
          "type": "uint256"
        }
      ],
      "name": "timeRemainingToEndOfActive",
      "outputs": [
        {
          "internalType": "uint256",
          "name": "",
          "type": "uint256"
        }
      ],
      "stateMutability": "view",
      "type": "function"
    },
    {
      "inputs": [
        {
          "internalType": "uint256",
          "name": "id",
          "type": "uint256"
        }
      ],
      "name": "timeRemainingToMaturity",
      "outputs": [
        {
          "internalType": "uint256",
          "name": "",
          "type": "uint256"
        }
      ],
      "stateMutability": "view",
      "type": "function"
    },
    {
      "inputs": [],
      "name": "tvlA",
      "outputs": [
        {
          "internalType": "uint256",
          "name": "",
          "type": "uint256"
        }
      ],
      "stateMutability": "view",
      "type": "function"
    },
    {
      "inputs": [],
      "name": "tvlB",
      "outputs": [
        {
          "internalType": "uint256",
          "name": "",
          "type": "uint256"
        }
      ],
      "stateMutability": "view",
      "type": "function"
    },
    {
      "inputs": [
        {
          "internalType": "uint256",
          "name": "",
          "type": "uint256"
        }
      ],
      "name": "uri",
      "outputs": [
        {
          "internalType": "string",
          "name": "",
          "type": "string"
        }
      ],
      "stateMutability": "view",
      "type": "function"
    },
    {
      "inputs": [
        {
          "internalType": "uint256",
          "name": "id",
          "type": "uint256"
        },
        {
          "internalType": "uint256",
          "name": "tokenAmount",
          "type": "uint256"
        }
      ],
      "name": "withdraw",
      "outputs": [],
      "stateMutability": "nonpayable",
      "type": "function"
    },
    {
      "inputs": [
        {
          "internalType": "uint256",
          "name": "id",
          "type": "uint256"
        }
      ],
      "name": "withdrawExcess",
      "outputs": [],
      "stateMutability": "nonpayable",
      "type": "function"
    }
  ],
  "bytecode": "0x60e060405260006005553480156200001657600080fd5b50604051620069223803806200692283398181016040528101906200003c919062000385565b846200004e816200017860201b60201c565b503373ffffffffffffffffffffffffffffffffffffffff1660808173ffffffffffffffffffffffffffffffffffffffff16815250508373ffffffffffffffffffffffffffffffffffffffff1660a08173ffffffffffffffffffffffffffffffffffffffff16815250508273ffffffffffffffffffffffffffffffffffffffff1660c08173ffffffffffffffffffffffffffffffffffffffff168152505081600360006101000a81548173ffffffffffffffffffffffffffffffffffffffff021916908373ffffffffffffffffffffffffffffffffffffffff16021790555080600460006101000a81548173ffffffffffffffffffffffffffffffffffffffff021916908373ffffffffffffffffffffffffffffffffffffffff16021790555050505050506200075e565b806002908162000189919062000677565b5050565b6000604051905090565b600080fd5b600080fd5b600080fd5b600080fd5b6000601f19601f8301169050919050565b7f4e487b7100000000000000000000000000000000000000000000000000000000600052604160045260246000fd5b620001f682620001ab565b810181811067ffffffffffffffff82111715620002185762000217620001bc565b5b80604052505050565b60006200022d6200018d565b90506200023b8282620001eb565b919050565b600067ffffffffffffffff8211156200025e576200025d620001bc565b5b6200026982620001ab565b9050602081019050919050565b60005b838110156200029657808201518184015260208101905062000279565b60008484015250505050565b6000620002b9620002b38462000240565b62000221565b905082815260208101848484011115620002d857620002d7620001a6565b5b620002e584828562000276565b509392505050565b600082601f830112620003055762000304620001a1565b5b815162000317848260208601620002a2565b91505092915050565b600073ffffffffffffffffffffffffffffffffffffffff82169050919050565b60006200034d8262000320565b9050919050565b6200035f8162000340565b81146200036b57600080fd5b50565b6000815190506200037f8162000354565b92915050565b600080600080600060a08688031215620003a457620003a362000197565b5b600086015167ffffffffffffffff811115620003c557620003c46200019c565b5b620003d388828901620002ed565b9550506020620003e6888289016200036e565b9450506040620003f9888289016200036e565b93505060606200040c888289016200036e565b92505060806200041f888289016200036e565b9150509295509295909350565b600081519050919050565b7f4e487b7100000000000000000000000000000000000000000000000000000000600052602260045260246000fd5b600060028204905060018216806200047f57607f821691505b60208210810362000495576200049462000437565b5b50919050565b60008190508160005260206000209050919050565b60006020601f8301049050919050565b600082821b905092915050565b600060088302620004ff7fffffffffffffffffffffffffffffffffffffffffffffffffffffffffffffffff82620004c0565b6200050b8683620004c0565b95508019841693508086168417925050509392505050565b6000819050919050565b6000819050919050565b600062000558620005526200054c8462000523565b6200052d565b62000523565b9050919050565b6000819050919050565b620005748362000537565b6200058c62000583826200055f565b848454620004cd565b825550505050565b600090565b620005a362000594565b620005b081848462000569565b505050565b5b81811015620005d857620005cc60008262000599565b600181019050620005b6565b5050565b601f8211156200062757620005f1816200049b565b620005fc84620004b0565b810160208510156200060c578190505b620006246200061b85620004b0565b830182620005b5565b50505b505050565b600082821c905092915050565b60006200064c600019846008026200062c565b1980831691505092915050565b600062000667838362000639565b9150826002028217905092915050565b62000682826200042c565b67ffffffffffffffff8111156200069e576200069d620001bc565b5b620006aa825462000466565b620006b7828285620005dc565b600060209050601f831160018114620006ef5760008415620006da578287015190505b620006e6858262000659565b86555062000756565b601f198416620006ff866200049b565b60005b82811015620007295784890151825560018201915060208501945060208101905062000702565b8683101562000749578489015162000745601f89168262000639565b8355505b6001600288020188555050505b505050505050565b60805160a05160c051616132620007f060003960008181611615015281816117a001528181611c7001528181611f050152818161235301528181612a070152612c02015260008181610f200152818161144801528181611bd101528181611e660152818161210d0152612d4d015260008181610d2701528181612436015281816128ad0152612aac01526161326000f3fe608060405234801561001057600080fd5b506004361061025d5760003560e01c80637a41984b11610146578063abac75e1116100c3578063d3b7811b11610087578063d3b7811b14610830578063e2bbb15814610860578063e755ddd71461087c578063e985e9c514610898578063f0f3d7de146108c8578063f242432a146108e65761025d565b8063abac75e11461075e578063b09f2b1c1461078e578063c0a6026c146107aa578063c7bc5730146107c6578063d32fe02e146107f65761025d565b80638f0dbf771161010a5780638f0dbf77146106aa578063932a8de0146106da578063a22cb4651461070a578063a874302214610726578063a996ef08146107425761025d565b80637a41984b146105e05780637bf24456146106105780637cbc23731461062e57806382afd23b1461064a57806388bdc0831461067a5761025d565b806339e3af9b116101df578063634ef303116101a3578063634ef303146104f857806364893aaf146105165780636ff80d931461054657806370876c9814610576578063769d96eb1461059257806377e2a08b146105b05761025d565b806339e3af9b1461042e578063441a3e701461045e5780634556e49b1461047a5780634e1273f414610498578063549493bb146104c85761025d565b806314f294931161022657806314f29493146103525780632eb2c2d6146103825780632f2c6b321461039e5780632f3ad61f146103ce5780633097afb8146103fe5761025d565b8062fdd58e1461026257806301ffc9a71461029257806308913ce8146102c257806309149020146102f25780630e89341c14610322575b600080fd5b61027c60048036038101906102779190613f1e565b610902565b6040516102899190613f6d565b60405180910390f35b6102ac60048036038101906102a79190613fe0565b6109ca565b6040516102b99190614028565b60405180910390f35b6102dc60048036038101906102d79190614043565b610aac565b6040516102e99190613f6d565b60405180910390f35b61030c60048036038101906103079190614043565b610ad7565b6040516103199190614028565b60405180910390f35b61033c60048036038101906103379190614043565b610b0d565b6040516103499190614100565b60405180910390f35b61036c60048036038101906103679190614043565b610ba1565b6040516103799190613f6d565b60405180910390f35b61039c6004803603810190610397919061431f565b610bdf565b005b6103b860048036038101906103b39190614043565b610c80565b6040516103c59190613f6d565b60405180910390f35b6103e860048036038101906103e39190614043565b610c9d565b6040516103f59190614028565b60405180910390f35b61041860048036038101906104139190614043565b610cc7565b6040516104259190614028565b60405180910390f35b61044860048036038101906104439190614043565b610d00565b6040516104559190614028565b60405180910390f35b610478600480360381019061047391906143ee565b610d25565b005b610482610fc1565b60405161048f9190613f6d565b60405180910390f35b6104b260048036038101906104ad91906144f1565b610ff1565b6040516104bf9190614627565b60405180910390f35b6104e260048036038101906104dd9190614043565b61110a565b6040516104ef9190614028565b60405180910390f35b61050061113c565b60405161050d9190614662565b60405180910390f35b610530600480360381019061052b9190614043565b6111dd565b60405161053d9190613f6d565b60405180910390f35b610560600480360381019061055b9190614043565b6111fa565b60405161056d9190614028565b60405180910390f35b610590600480360381019061058b91906143ee565b611232565b005b61059a6114ed565b6040516105a79190614662565b60405180910390f35b6105ca60048036038101906105c59190614043565b61158e565b6040516105d79190613f6d565b60405180910390f35b6105fa60048036038101906105f59190614043565b6115e7565b6040516106079190614028565b60405180910390f35b610618611611565b6040516106259190613f6d565b60405180910390f35b610648600480360381019061064391906143ee565b6116b2565b005b610664600480360381019061065f9190614043565b61186c565b6040516106719190614028565b60405180910390f35b610694600480360381019061068f9190614043565b61188f565b6040516106a19190613f6d565b60405180910390f35b6106c460048036038101906106bf9190614043565b6118c2565b6040516106d19190614028565b60405180910390f35b6106f460048036038101906106ef9190614043565b6118e4565b6040516107019190613f6d565b60405180910390f35b610724600480360381019061071f91906146a9565b611922565b005b610740600480360381019061073b9190614043565b611938565b005b61075c600480360381019061075791906143ee565b611d55565b005b61077860048036038101906107739190614043565b611ffc565b6040516107859190613f6d565b60405180910390f35b6107a860048036038101906107a391906143ee565b61201c565b005b6107c460048036038101906107bf9190614043565b6121d9565b005b6107e060048036038101906107db9190614744565b612432565b6040516107ed9190613f6d565b60405180910390f35b610810600480360381019061080b9190614043565b6126ee565b6040516108279b9a99989796959493929190614836565b60405180910390f35b61084a60048036038101906108459190614043565b612878565b6040516108579190613f6d565b60405180910390f35b61087a600480360381019061087591906143ee565b6128ab565b005b61089660048036038101906108919190614043565b612aaa565b005b6108b260048036038101906108ad91906148e8565b612cb5565b6040516108bf9190614028565b60405180910390f35b6108d0612d49565b6040516108dd9190613f6d565b60405180910390f35b61090060048036038101906108fb9190614928565b612dea565b005b60008073ffffffffffffffffffffffffffffffffffffffff168373ffffffffffffffffffffffffffffffffffffffff1603610972576040517f08c379a000000000000000000000000000000000000000000000000000000000815260040161096990614a31565b60405180910390fd5b60008083815260200190815260200160002060008473ffffffffffffffffffffffffffffffffffffffff1673ffffffffffffffffffffffffffffffffffffffff16815260200190815260200160002054905092915050565b60007fd9b67a26000000000000000000000000000000000000000000000000000000007bffffffffffffffffffffffffffffffffffffffffffffffffffffffff1916827bffffffffffffffffffffffffffffffffffffffffffffffffffffffff19161480610a9557507f0e89341c000000000000000000000000000000000000000000000000000000007bffffffffffffffffffffffffffffffffffffffffffffffffffffffff1916827bffffffffffffffffffffffffffffffffffffffffffffffffffffffff1916145b80610aa55750610aa482612e8b565b5b9050919050565b6000600660008381526020019081526020016000206003015442610ad09190614a80565b9050919050565b60006006600083815260200190815260200160002060090154600760008481526020019081526020016000205410159050919050565b606060028054610b1c90614ae3565b80601f0160208091040260200160405190810160405280929190818152602001828054610b4890614ae3565b8015610b955780601f10610b6a57610100808354040283529160200191610b95565b820191906000526020600020905b815481529060010190602001808311610b7857829003601f168201915b50505050509050919050565b600060076000838152602001908152602001600020546006600084815260200190815260200160002060020154610bd89190614b14565b9050919050565b610be7612ef5565b73ffffffffffffffffffffffffffffffffffffffff168573ffffffffffffffffffffffffffffffffffffffff161480610c2d5750610c2c85610c27612ef5565b612cb5565b5b610c6c576040517f08c379a0000000000000000000000000000000000000000000000000000000008152600401610c6390614bc8565b60405180910390fd5b610c798585858585612efd565b5050505050565b600060096000838152602001908152602001600020549050919050565b6000600e600083815260200190815260200160002060009054906101000a900460ff169050919050565b6000610cd2826118c2565b8015610cf95750610ce28261158e565b600a60008481526020019081526020016000205410155b9050919050565b6000610d0b8261186c565b158015610d1e5750610d1c82610ad7565b155b9050919050565b7f000000000000000000000000000000000000000000000000000000000000000073ffffffffffffffffffffffffffffffffffffffff163373ffffffffffffffffffffffffffffffffffffffff1614610db3576040517f08c379a0000000000000000000000000000000000000000000000000000000008152600401610daa90614c34565b60405180910390fd5b610dbc8261186c565b15610dfc576040517f08c379a0000000000000000000000000000000000000000000000000000000008152600401610df390614ca0565b60405180910390fd5b610e0582610d00565b15610e45576040517f08c379a0000000000000000000000000000000000000000000000000000000008152600401610e3c90614ca0565b60405180910390fd5b610e4e82610c9d565b80610e5e5750610e5d826111fa565b5b15610e9e576040517f08c379a0000000000000000000000000000000000000000000000000000000008152600401610e9590614d32565b60405180910390fd5b6009600083815260200190815260200160002054811115610ef4576040517f08c379a0000000000000000000000000000000000000000000000000000000008152600401610eeb90614dc4565b60405180910390fd5b80600960008481526020019081526020016000206000828254610f179190614a80565b925050819055507f000000000000000000000000000000000000000000000000000000000000000073ffffffffffffffffffffffffffffffffffffffff1663a9059cbb33836040518363ffffffff1660e01b8152600401610f79929190614df3565b6020604051808303816000875af1158015610f98573d6000803e3d6000fd5b505050506040513d601f19601f82011682018060405250810190610fbc9190614e31565b505050565b6000610fcb6114ed565b633b9aca00610fd861113c565b610fe29190614b14565b610fec9190614e8d565b905090565b60608151835114611037576040517f08c379a000000000000000000000000000000000000000000000000000000000815260040161102e90614f30565b60405180910390fd5b6000835167ffffffffffffffff81111561105457611053614127565b5b6040519080825280602002602001820160405280156110825781602001602082028036833780820191505090505b50905060005b84518110156110ff576110cf8582815181106110a7576110a6614f50565b5b60200260200101518583815181106110c2576110c1614f50565b5b6020026020010151610902565b8282815181106110e2576110e1614f50565b5b602002602001018181525050806110f890614f7f565b9050611088565b508091505092915050565b600060076000838152602001908152602001600020546008600084815260200190815260200160002054149050919050565b600080600360009054906101000a900473ffffffffffffffffffffffffffffffffffffffff1673ffffffffffffffffffffffffffffffffffffffff1663feaf968c6040518163ffffffff1660e01b815260040160a060405180830381865afa1580156111ac573d6000803e3d6000fd5b505050506040513d601f19601f820116820180604052508101906111d0919061504a565b5050509150508091505090565b6000600a6000838152602001908152602001600020549050919050565b6000611205826118c2565b801561122b57506112158261158e565b600a600084815260200190815260200160002054105b9050919050565b61123b8261186c565b61127a576040517f08c379a000000000000000000000000000000000000000000000000000000000815260040161127190615111565b60405180910390fd5b80611284836118e4565b10156112c5576040517f08c379a00000000000000000000000000000000000000000000000000000000081526004016112bc906151a3565b60405180910390fd5b600060066000848152602001908152602001600020604051806101600160405290816000820180546112f690614ae3565b80601f016020809104026020016040519081016040528092919081815260200182805461132290614ae3565b801561136f5780601f106113445761010080835404028352916020019161136f565b820191906000526020600020905b81548152906001019060200180831161135257829003601f168201915b50505050508152602001600182015481526020016002820154815260200160038201548152602001600482015481526020016005820154815260200160068201548152602001600782015481526020016008820154815260200160098201548152602001600a82015481525050905060008160200151836113f09190614b14565b90508260076000868152602001908152602001600020600082825461141591906151c3565b925050819055508060096000868152602001908152602001600020600082825461143f91906151c3565b925050819055507f000000000000000000000000000000000000000000000000000000000000000073ffffffffffffffffffffffffffffffffffffffff166323b872dd3330846040518463ffffffff1660e01b81526004016114a3939291906151f7565b6020604051808303816000875af11580156114c2573d6000803e3d6000fd5b505050506040513d601f19601f820116820180604052508101906114e69190614e31565b5050505050565b600080600460009054906101000a900473ffffffffffffffffffffffffffffffffffffffff1673ffffffffffffffffffffffffffffffffffffffff1663feaf968c6040518163ffffffff1660e01b815260040160a060405180830381865afa15801561155d573d6000803e3d6000fd5b505050506040513d601f19601f82011682018060405250810190611581919061504a565b5050509150508091505090565b6000670de0b6b3a764000060066000848152602001908152602001600020600a01546115b984610ba1565b6115c39190614b14565b6115cd9190614e8d565b6115d683610ba1565b6115e091906151c3565b9050919050565b6000600f600083815260200190815260200160002060009054906101000a900460ff169050919050565b60007f000000000000000000000000000000000000000000000000000000000000000073ffffffffffffffffffffffffffffffffffffffff166370a08231306040518263ffffffff1660e01b815260040161166c919061522e565b602060405180830381865afa158015611689573d6000803e3d6000fd5b505050506040513d601f19601f820116820180604052508101906116ad9190615249565b905090565b6116bb826115e7565b6116fa576040517f08c379a00000000000000000000000000000000000000000000000000000000081526004016116f1906152c2565b60405180910390fd5b806117053384610902565b1015611746576040517f08c379a000000000000000000000000000000000000000000000000000000000815260040161173d9061532e565b60405180910390fd5b61175133838361321e565b8060086000848152602001908152602001600020600082825461177491906151c3565b925050819055506000600d6000848152602001908152602001600020548261179c9190614b14565b90507f000000000000000000000000000000000000000000000000000000000000000073ffffffffffffffffffffffffffffffffffffffff1663a9059cbb33836040518363ffffffff1660e01b81526004016117f9929190614df3565b6020604051808303816000875af1158015611818573d6000803e3d6000fd5b505050506040513d601f19601f8201168201806040525081019061183c9190614e31565b5080600a600085815260200190815260200160002060008282546118609190614a80565b92505081905550505050565b600060066000838152602001908152602001600020600501544211159050919050565b600061189a82610aac565b60066000848152602001908152602001600020600601546118bb9190614a80565b9050919050565b6000600660008381526020019081526020016000206004015442119050919050565b60006007600083815260200190815260200160002054600660008481526020019081526020016000206008015461191b9190614a80565b9050919050565b61193461192d612ef5565b8383613464565b5050565b611941816115e7565b158015611954575061195281610c9d565b155b80156119655750611964816111fa565b5b6119a4576040517f08c379a000000000000000000000000000000000000000000000000000000000815260040161199b9061539a565b60405180910390fd5b60006119af8261158e565b905060006103e860096000858152602001908152602001600020546119d49190614e8d565b905060006103e8600a6000868152602001908152602001600020546119f99190614e8d565b90506000826009600087815260200190815260200160002054611a1c9190614a80565b9050600082600a600088815260200190815260200160002054611a3f9190614a80565b9050600760008781526020019081526020016000205482611a609190614e8d565b600b600088815260200190815260200160002081905550600760008781526020019081526020016000205481611a969190614e8d565b600c60008881526020019081526020016000208190555060006007600088815260200190815260200160002054600b600089815260200190815260200160002054611ae19190614b14565b83611aec9190614a80565b905060006007600089815260200190815260200160002054600c60008a815260200190815260200160002054611b229190614b14565b83611b2d9190614a80565b905060008287611b3d91906151c3565b905060008287611b4d91906151c3565b905081600960008c81526020019081526020016000206000828254611b729190614a80565b9250508190555080600a60008c81526020019081526020016000206000828254611b9c9190614a80565b925050819055506001600e60008c815260200190815260200160002060006101000a81548160ff0219169083151502179055507f000000000000000000000000000000000000000000000000000000000000000073ffffffffffffffffffffffffffffffffffffffff1663a9059cbb33846040518363ffffffff1660e01b8152600401611c2a929190614df3565b6020604051808303816000875af1158015611c49573d6000803e3d6000fd5b505050506040513d601f19601f82011682018060405250810190611c6d9190614e31565b507f000000000000000000000000000000000000000000000000000000000000000073ffffffffffffffffffffffffffffffffffffffff1663a9059cbb33836040518363ffffffff1660e01b8152600401611cc9929190614df3565b6020604051808303816000875af1158015611ce8573d6000803e3d6000fd5b505050506040513d601f19601f82011682018060405250810190611d0c9190614e31565b50897fcd2c25949e23ea2647ca2c5809b025ee3aca0d82cfcb1d22a715398f5cf8db8e8a8789604051611d41939291906153ba565b60405180910390a250505050505050505050565b611d5e82610c9d565b611d9d576040517f08c379a0000000000000000000000000000000000000000000000000000000008152600401611d949061539a565b60405180910390fd5b80611da83384610902565b1015611de9576040517f08c379a0000000000000000000000000000000000000000000000000000000008152600401611de09061532e565b60405180910390fd5b611df433838361321e565b80600860008481526020019081526020016000206000828254611e1791906151c3565b925050819055506000600b60008481526020019081526020016000205482611e3f9190614b14565b90506000600c60008581526020019081526020016000205483611e629190614b14565b90507f000000000000000000000000000000000000000000000000000000000000000073ffffffffffffffffffffffffffffffffffffffff1663a9059cbb33846040518363ffffffff1660e01b8152600401611ebf929190614df3565b6020604051808303816000875af1158015611ede573d6000803e3d6000fd5b505050506040513d601f19601f82011682018060405250810190611f029190614e31565b507f000000000000000000000000000000000000000000000000000000000000000073ffffffffffffffffffffffffffffffffffffffff1663a9059cbb33836040518363ffffffff1660e01b8152600401611f5e929190614df3565b6020604051808303816000875af1158015611f7d573d6000803e3d6000fd5b505050506040513d601f19601f82011682018060405250810190611fa19190614e31565b5081600960008681526020019081526020016000206000828254611fc59190614a80565b9250508190555080600a60008681526020019081526020016000206000828254611fef9190614a80565b9250508190555050505050565b600060066000838152602001908152602001600020600a01549050919050565b61202582610d00565b612064576040517f08c379a000000000000000000000000000000000000000000000000000000000815260040161205b9061543d565b60405180910390fd5b8061206f3384610902565b10156120b0576040517f08c379a00000000000000000000000000000000000000000000000000000000081526004016120a79061532e565b60405180910390fd5b6120bb33838361321e565b806008600084815260200190815260200160002060008282546120de91906151c3565b9250508190555060006006600084815260200190815260200160002060010154826121099190614b14565b90507f000000000000000000000000000000000000000000000000000000000000000073ffffffffffffffffffffffffffffffffffffffff1663a9059cbb33836040518363ffffffff1660e01b8152600401612166929190614df3565b6020604051808303816000875af1158015612185573d6000803e3d6000fd5b505050506040513d601f19601f820116820180604052508101906121a99190614e31565b50806009600085815260200190815260200160002060008282546121cd9190614a80565b92505081905550505050565b6121e281610c9d565b1580156121f557506121f3816115e7565b155b8015612206575061220581610cc7565b5b612245576040517f08c379a000000000000000000000000000000000000000000000000000000000815260040161223c906152c2565b60405180910390fd5b60006122508261158e565b905060006103e8826122629190614e8d565b9050600081836122729190614a80565b90506007600085815260200190815260200160002054816122939190614e8d565b600d60008681526020019081526020016000208190555060006007600086815260200190815260200160002054600d6000878152602001908152602001600020546122de9190614b14565b826122e99190614a80565b9050600081846122f991906151c3565b905080600a6000888152602001908152602001600020600082825461231e9190614a80565b925050819055506001600f600088815260200190815260200160002060006101000a81548160ff0219169083151502179055507f000000000000000000000000000000000000000000000000000000000000000073ffffffffffffffffffffffffffffffffffffffff1663a9059cbb33836040518363ffffffff1660e01b81526004016123ac929190614df3565b6020604051808303816000875af11580156123cb573d6000803e3d6000fd5b505050506040513d601f19601f820116820180604052508101906123ef9190614e31565b50857fac2eeaf45d1b75aed6b3285cda3efb3c382cce02ba313558bbb90be57f8843e4868560405161242292919061545d565b60405180910390a2505050505050565b60007f000000000000000000000000000000000000000000000000000000000000000073ffffffffffffffffffffffffffffffffffffffff163373ffffffffffffffffffffffffffffffffffffffff16146124c2576040517f08c379a00000000000000000000000000000000000000000000000000000000081526004016124b990614c34565b60405180910390fd5b848410612504576040517f08c379a00000000000000000000000000000000000000000000000000000000081526004016124fb906154f8565b60405180910390fd5b600160055461251391906151c3565b905061252133828c856135d0565b600061252b610fc1565b90506000633b9aca008a836125409190614b14565b61254a9190614e8d565b90506040518061016001604052808a8a8080601f016020809104026020016040519081016040528093929190818152602001838380828437600081840152601f19601f8201169050808301925050505050505081526020018b815260200182815260200142815260200162015180896125c39190614b14565b426125ce91906151c3565b815260200162015180886125e29190614b14565b426125ed91906151c3565b81526020018781526020018881526020018d81526020018c81526020018681525060066000858152602001908152602001600020600082015181600001908161263691906156c4565b506020820151816001015560408201518160020155606082015181600301556080820151816004015560a0820151816005015560c0820151816006015560e082015181600701556101008201518160080155610120820151816009015561014082015181600a0155905050827ff73e436c94925e1e8b2f0b16de0a2c56aea7fb27878f7815811bc05bc6c335e88d8c84896040516126d79493929190615796565b60405180910390a250509998505050505050505050565b60606000806000806000806000806000806000600660008e81526020019081526020016000206040518061016001604052908160008201805461273090614ae3565b80601f016020809104026020016040519081016040528092919081815260200182805461275c90614ae3565b80156127a95780601f1061277e576101008083540402835291602001916127a9565b820191906000526020600020905b81548152906001019060200180831161278c57829003601f168201915b50505050508152602001600182015481526020016002820154815260200160038201548152602001600482015481526020016005820154815260200160068201548152602001600782015481526020016008820154815260200160098201548152602001600a820154815250509050806000015181602001518260400151836060015184608001518560a001518660c001518760e001518861010001518961012001518a61014001519b509b509b509b509b509b509b509b509b509b509b505091939597999b90929496989a50565b600061288382610aac565b60066000848152602001908152602001600020600701546128a49190614a80565b9050919050565b7f000000000000000000000000000000000000000000000000000000000000000073ffffffffffffffffffffffffffffffffffffffff163373ffffffffffffffffffffffffffffffffffffffff1614612939576040517f08c379a000000000000000000000000000000000000000000000000000000000815260040161293090614c34565b60405180910390fd5b61294282610c9d565b806129525750612951826111fa565b5b15612992576040517f08c379a000000000000000000000000000000000000000000000000000000000815260040161298990615827565b60405180910390fd5b61299b826115e7565b156129db576040517f08c379a00000000000000000000000000000000000000000000000000000000081526004016129d290615893565b60405180910390fd5b80600a600084815260200190815260200160002060008282546129fe91906151c3565b925050819055507f000000000000000000000000000000000000000000000000000000000000000073ffffffffffffffffffffffffffffffffffffffff166323b872dd3330846040518463ffffffff1660e01b8152600401612a62939291906151f7565b6020604051808303816000875af1158015612a81573d6000803e3d6000fd5b505050506040513d601f19601f82011682018060405250810190612aa59190614e31565b505050565b7f000000000000000000000000000000000000000000000000000000000000000073ffffffffffffffffffffffffffffffffffffffff163373ffffffffffffffffffffffffffffffffffffffff1614612b38576040517f08c379a0000000000000000000000000000000000000000000000000000000008152600401612b2f90614c34565b60405180910390fd5b612b41816115e7565b8015612b525750612b518161110a565b5b612b91576040517f08c379a0000000000000000000000000000000000000000000000000000000008152600401612b88906158ff565b60405180910390fd5b6000600a60008381526020019081526020016000205411612be7576040517f08c379a0000000000000000000000000000000000000000000000000000000008152600401612bde9061596b565b60405180910390fd5b6000600a6000838152602001908152602001600020819055507f000000000000000000000000000000000000000000000000000000000000000073ffffffffffffffffffffffffffffffffffffffff1663a9059cbb33600a6000858152602001908152602001600020546040518363ffffffff1660e01b8152600401612c6e929190614df3565b6020604051808303816000875af1158015612c8d573d6000803e3d6000fd5b505050506040513d601f19601f82011682018060405250810190612cb19190614e31565b5050565b6000600160008473ffffffffffffffffffffffffffffffffffffffff1673ffffffffffffffffffffffffffffffffffffffff16815260200190815260200160002060008373ffffffffffffffffffffffffffffffffffffffff1673ffffffffffffffffffffffffffffffffffffffff16815260200190815260200160002060009054906101000a900460ff16905092915050565b60007f000000000000000000000000000000000000000000000000000000000000000073ffffffffffffffffffffffffffffffffffffffff166370a08231306040518263ffffffff1660e01b8152600401612da4919061522e565b602060405180830381865afa158015612dc1573d6000803e3d6000fd5b505050506040513d601f19601f82011682018060405250810190612de59190615249565b905090565b612df2612ef5565b73ffffffffffffffffffffffffffffffffffffffff168573ffffffffffffffffffffffffffffffffffffffff161480612e385750612e3785612e32612ef5565b612cb5565b5b612e77576040517f08c379a0000000000000000000000000000000000000000000000000000000008152600401612e6e90614bc8565b60405180910390fd5b612e848585858585613780565b5050505050565b60007f01ffc9a7000000000000000000000000000000000000000000000000000000007bffffffffffffffffffffffffffffffffffffffffffffffffffffffff1916827bffffffffffffffffffffffffffffffffffffffffffffffffffffffff1916149050919050565b600033905090565b8151835114612f41576040517f08c379a0000000000000000000000000000000000000000000000000000000008152600401612f38906159fd565b60405180910390fd5b600073ffffffffffffffffffffffffffffffffffffffff168473ffffffffffffffffffffffffffffffffffffffff1603612fb0576040517f08c379a0000000000000000000000000000000000000000000000000000000008152600401612fa790615a8f565b60405180910390fd5b6000612fba612ef5565b9050612fca818787878787613a1b565b60005b845181101561317b576000858281518110612feb57612fea614f50565b5b60200260200101519050600085838151811061300a57613009614f50565b5b60200260200101519050600080600084815260200190815260200160002060008b73ffffffffffffffffffffffffffffffffffffffff1673ffffffffffffffffffffffffffffffffffffffff168152602001908152602001600020549050818110156130ab576040517f08c379a00000000000000000000000000000000000000000000000000000000081526004016130a290615b21565b60405180910390fd5b81810360008085815260200190815260200160002060008c73ffffffffffffffffffffffffffffffffffffffff1673ffffffffffffffffffffffffffffffffffffffff168152602001908152602001600020819055508160008085815260200190815260200160002060008b73ffffffffffffffffffffffffffffffffffffffff1673ffffffffffffffffffffffffffffffffffffffff168152602001908152602001600020600082825461316091906151c3565b925050819055505050508061317490614f7f565b9050612fcd565b508473ffffffffffffffffffffffffffffffffffffffff168673ffffffffffffffffffffffffffffffffffffffff168273ffffffffffffffffffffffffffffffffffffffff167f4a39dc06d4c0dbc64b70af90fd698a233a518aa5d07e595d983b8c0526c8f7fb87876040516131f2929190615b41565b60405180910390a4613208818787878787613a23565b613216818787878787613a2b565b505050505050565b600073ffffffffffffffffffffffffffffffffffffffff168373ffffffffffffffffffffffffffffffffffffffff160361328d576040517f08c379a000000000000000000000000000000000000000000000000000000000815260040161328490615bea565b60405180910390fd5b6000613297612ef5565b905060006132a484613c02565b905060006132b184613c02565b90506132d183876000858560405180602001604052806000815250613a1b565b600080600087815260200190815260200160002060008873ffffffffffffffffffffffffffffffffffffffff1673ffffffffffffffffffffffffffffffffffffffff16815260200190815260200160002054905084811015613368576040517f08c379a000000000000000000000000000000000000000000000000000000000815260040161335f90615c7c565b60405180910390fd5b84810360008088815260200190815260200160002060008973ffffffffffffffffffffffffffffffffffffffff1673ffffffffffffffffffffffffffffffffffffffff16815260200190815260200160002081905550600073ffffffffffffffffffffffffffffffffffffffff168773ffffffffffffffffffffffffffffffffffffffff168573ffffffffffffffffffffffffffffffffffffffff167fc3d58168c5ae7397731d063d5bbf3d657854427343f4c083240f7aacaa2d0f62898960405161343592919061545d565b60405180910390a461345b84886000868660405180602001604052806000815250613a23565b50505050505050565b8173ffffffffffffffffffffffffffffffffffffffff168373ffffffffffffffffffffffffffffffffffffffff16036134d2576040517f08c379a00000000000000000000000000000000000000000000000000000000081526004016134c990615d0e565b60405180910390fd5b80600160008573ffffffffffffffffffffffffffffffffffffffff1673ffffffffffffffffffffffffffffffffffffffff16815260200190815260200160002060008473ffffffffffffffffffffffffffffffffffffffff1673ffffffffffffffffffffffffffffffffffffffff16815260200190815260200160002060006101000a81548160ff0219169083151502179055508173ffffffffffffffffffffffffffffffffffffffff168373ffffffffffffffffffffffffffffffffffffffff167f17307eab39ab6107e8899845ad3d59bd9653f200f220920489ca2b5937696c31836040516135c39190614028565b60405180910390a3505050565b600073ffffffffffffffffffffffffffffffffffffffff168473ffffffffffffffffffffffffffffffffffffffff160361363f576040517f08c379a000000000000000000000000000000000000000000000000000000000815260040161363690615da0565b60405180910390fd5b6000613649612ef5565b9050600061365685613c02565b9050600061366385613c02565b905061367483600089858589613a1b565b8460008088815260200190815260200160002060008973ffffffffffffffffffffffffffffffffffffffff1673ffffffffffffffffffffffffffffffffffffffff16815260200190815260200160002060008282546136d391906151c3565b925050819055508673ffffffffffffffffffffffffffffffffffffffff16600073ffffffffffffffffffffffffffffffffffffffff168473ffffffffffffffffffffffffffffffffffffffff167fc3d58168c5ae7397731d063d5bbf3d657854427343f4c083240f7aacaa2d0f62898960405161375192919061545d565b60405180910390a461376883600089858589613a23565b61377783600089898989613c7c565b50505050505050565b600073ffffffffffffffffffffffffffffffffffffffff168473ffffffffffffffffffffffffffffffffffffffff16036137ef576040517f08c379a00000000000000000000000000000000000000000000000000000000081526004016137e690615a8f565b60405180910390fd5b60006137f9612ef5565b9050600061380685613c02565b9050600061381385613c02565b9050613823838989858589613a1b565b600080600088815260200190815260200160002060008a73ffffffffffffffffffffffffffffffffffffffff1673ffffffffffffffffffffffffffffffffffffffff168152602001908152602001600020549050858110156138ba576040517f08c379a00000000000000000000000000000000000000000000000000000000081526004016138b190615b21565b60405180910390fd5b85810360008089815260200190815260200160002060008b73ffffffffffffffffffffffffffffffffffffffff1673ffffffffffffffffffffffffffffffffffffffff168152602001908152602001600020819055508560008089815260200190815260200160002060008a73ffffffffffffffffffffffffffffffffffffffff1673ffffffffffffffffffffffffffffffffffffffff168152602001908152602001600020600082825461396f91906151c3565b925050819055508773ffffffffffffffffffffffffffffffffffffffff168973ffffffffffffffffffffffffffffffffffffffff168573ffffffffffffffffffffffffffffffffffffffff167fc3d58168c5ae7397731d063d5bbf3d657854427343f4c083240f7aacaa2d0f628a8a6040516139ec92919061545d565b60405180910390a4613a02848a8a86868a613a23565b613a10848a8a8a8a8a613c7c565b505050505050505050565b505050505050565b505050505050565b613a4a8473ffffffffffffffffffffffffffffffffffffffff16613e53565b15613bfa578373ffffffffffffffffffffffffffffffffffffffff1663bc197c8187878686866040518663ffffffff1660e01b8152600401613a90959493929190615e15565b6020604051808303816000875af1925050508015613acc57506040513d601f19601f82011682018060405250810190613ac99190615e92565b60015b613b7157613ad8615ecc565b806308c379a003613b345750613aec615eee565b80613af75750613b36565b806040517f08c379a0000000000000000000000000000000000000000000000000000000008152600401613b2b9190614100565b60405180910390fd5b505b6040517f08c379a0000000000000000000000000000000000000000000000000000000008152600401613b6890615ff0565b60405180910390fd5b63bc197c8160e01b7bffffffffffffffffffffffffffffffffffffffffffffffffffffffff1916817bffffffffffffffffffffffffffffffffffffffffffffffffffffffff191614613bf8576040517f08c379a0000000000000000000000000000000000000000000000000000000008152600401613bef90616082565b60405180910390fd5b505b505050505050565b60606000600167ffffffffffffffff811115613c2157613c20614127565b5b604051908082528060200260200182016040528015613c4f5781602001602082028036833780820191505090505b5090508281600081518110613c6757613c66614f50565b5b60200260200101818152505080915050919050565b613c9b8473ffffffffffffffffffffffffffffffffffffffff16613e53565b15613e4b578373ffffffffffffffffffffffffffffffffffffffff1663f23a6e6187878686866040518663ffffffff1660e01b8152600401613ce19594939291906160a2565b6020604051808303816000875af1925050508015613d1d57506040513d601f19601f82011682018060405250810190613d1a9190615e92565b60015b613dc257613d29615ecc565b806308c379a003613d855750613d3d615eee565b80613d485750613d87565b806040517f08c379a0000000000000000000000000000000000000000000000000000000008152600401613d7c9190614100565b60405180910390fd5b505b6040517f08c379a0000000000000000000000000000000000000000000000000000000008152600401613db990615ff0565b60405180910390fd5b63f23a6e6160e01b7bffffffffffffffffffffffffffffffffffffffffffffffffffffffff1916817bffffffffffffffffffffffffffffffffffffffffffffffffffffffff191614613e49576040517f08c379a0000000000000000000000000000000000000000000000000000000008152600401613e4090616082565b60405180910390fd5b505b505050505050565b6000808273ffffffffffffffffffffffffffffffffffffffff163b119050919050565b6000604051905090565b600080fd5b600080fd5b600073ffffffffffffffffffffffffffffffffffffffff82169050919050565b6000613eb582613e8a565b9050919050565b613ec581613eaa565b8114613ed057600080fd5b50565b600081359050613ee281613ebc565b92915050565b6000819050919050565b613efb81613ee8565b8114613f0657600080fd5b50565b600081359050613f1881613ef2565b92915050565b60008060408385031215613f3557613f34613e80565b5b6000613f4385828601613ed3565b9250506020613f5485828601613f09565b9150509250929050565b613f6781613ee8565b82525050565b6000602082019050613f826000830184613f5e565b92915050565b60007fffffffff0000000000000000000000000000000000000000000000000000000082169050919050565b613fbd81613f88565b8114613fc857600080fd5b50565b600081359050613fda81613fb4565b92915050565b600060208284031215613ff657613ff5613e80565b5b600061400484828501613fcb565b91505092915050565b60008115159050919050565b6140228161400d565b82525050565b600060208201905061403d6000830184614019565b92915050565b60006020828403121561405957614058613e80565b5b600061406784828501613f09565b91505092915050565b600081519050919050565b600082825260208201905092915050565b60005b838110156140aa57808201518184015260208101905061408f565b60008484015250505050565b6000601f19601f8301169050919050565b60006140d282614070565b6140dc818561407b565b93506140ec81856020860161408c565b6140f5816140b6565b840191505092915050565b6000602082019050818103600083015261411a81846140c7565b905092915050565b600080fd5b7f4e487b7100000000000000000000000000000000000000000000000000000000600052604160045260246000fd5b61415f826140b6565b810181811067ffffffffffffffff8211171561417e5761417d614127565b5b80604052505050565b6000614191613e76565b905061419d8282614156565b919050565b600067ffffffffffffffff8211156141bd576141bc614127565b5b602082029050602081019050919050565b600080fd5b60006141e66141e1846141a2565b614187565b90508083825260208201905060208402830185811115614209576142086141ce565b5b835b81811015614232578061421e8882613f09565b84526020840193505060208101905061420b565b5050509392505050565b600082601f83011261425157614250614122565b5b81356142618482602086016141d3565b91505092915050565b600080fd5b600067ffffffffffffffff82111561428a57614289614127565b5b614293826140b6565b9050602081019050919050565b82818337600083830152505050565b60006142c26142bd8461426f565b614187565b9050828152602081018484840111156142de576142dd61426a565b5b6142e98482856142a0565b509392505050565b600082601f83011261430657614305614122565b5b81356143168482602086016142af565b91505092915050565b600080600080600060a0868803121561433b5761433a613e80565b5b600061434988828901613ed3565b955050602061435a88828901613ed3565b945050604086013567ffffffffffffffff81111561437b5761437a613e85565b5b6143878882890161423c565b935050606086013567ffffffffffffffff8111156143a8576143a7613e85565b5b6143b48882890161423c565b925050608086013567ffffffffffffffff8111156143d5576143d4613e85565b5b6143e1888289016142f1565b9150509295509295909350565b6000806040838503121561440557614404613e80565b5b600061441385828601613f09565b925050602061442485828601613f09565b9150509250929050565b600067ffffffffffffffff82111561444957614448614127565b5b602082029050602081019050919050565b600061446d6144688461442e565b614187565b905080838252602082019050602084028301858111156144905761448f6141ce565b5b835b818110156144b957806144a58882613ed3565b845260208401935050602081019050614492565b5050509392505050565b600082601f8301126144d8576144d7614122565b5b81356144e884826020860161445a565b91505092915050565b6000806040838503121561450857614507613e80565b5b600083013567ffffffffffffffff81111561452657614525613e85565b5b614532858286016144c3565b925050602083013567ffffffffffffffff81111561455357614552613e85565b5b61455f8582860161423c565b9150509250929050565b600081519050919050565b600082825260208201905092915050565b6000819050602082019050919050565b61459e81613ee8565b82525050565b60006145b08383614595565b60208301905092915050565b6000602082019050919050565b60006145d482614569565b6145de8185614574565b93506145e983614585565b8060005b8381101561461a57815161460188826145a4565b975061460c836145bc565b9250506001810190506145ed565b5085935050505092915050565b6000602082019050818103600083015261464181846145c9565b905092915050565b6000819050919050565b61465c81614649565b82525050565b60006020820190506146776000830184614653565b92915050565b6146868161400d565b811461469157600080fd5b50565b6000813590506146a38161467d565b92915050565b600080604083850312156146c0576146bf613e80565b5b60006146ce85828601613ed3565b92505060206146df85828601614694565b9150509250929050565b600080fd5b60008083601f84011261470457614703614122565b5b8235905067ffffffffffffffff811115614721576147206146e9565b5b60208301915083600182028301111561473d5761473c6141ce565b5b9250929050565b60008060008060008060008060006101008a8c03121561476757614766613e80565b5b60006147758c828d01613f09565b99505060206147868c828d01613f09565b98505060406147978c828d01613f09565b97505060608a013567ffffffffffffffff8111156147b8576147b7613e85565b5b6147c48c828d016146ee565b965096505060806147d78c828d01613f09565b94505060a06147e88c828d01613f09565b93505060c06147f98c828d01613f09565b92505060e08a013567ffffffffffffffff81111561481a57614819613e85565b5b6148268c828d016142f1565b9150509295985092959850929598565b6000610160820190508181036000830152614851818e6140c7565b9050614860602083018d613f5e565b61486d604083018c613f5e565b61487a606083018b613f5e565b614887608083018a613f5e565b61489460a0830189613f5e565b6148a160c0830188613f5e565b6148ae60e0830187613f5e565b6148bc610100830186613f5e565b6148ca610120830185613f5e565b6148d8610140830184613f5e565b9c9b505050505050505050505050565b600080604083850312156148ff576148fe613e80565b5b600061490d85828601613ed3565b925050602061491e85828601613ed3565b9150509250929050565b600080600080600060a0868803121561494457614943613e80565b5b600061495288828901613ed3565b955050602061496388828901613ed3565b945050604061497488828901613f09565b935050606061498588828901613f09565b925050608086013567ffffffffffffffff8111156149a6576149a5613e85565b5b6149b2888289016142f1565b9150509295509295909350565b7f455243313135353a2061646472657373207a65726f206973206e6f742061207660008201527f616c6964206f776e657200000000000000000000000000000000000000000000602082015250565b6000614a1b602a8361407b565b9150614a26826149bf565b604082019050919050565b60006020820190508181036000830152614a4a81614a0e565b9050919050565b7f4e487b7100000000000000000000000000000000000000000000000000000000600052601160045260246000fd5b6000614a8b82613ee8565b9150614a9683613ee8565b9250828203905081811115614aae57614aad614a51565b5b92915050565b7f4e487b7100000000000000000000000000000000000000000000000000000000600052602260045260246000fd5b60006002820490506001821680614afb57607f821691505b602082108103614b0e57614b0d614ab4565b5b50919050565b6000614b1f82613ee8565b9150614b2a83613ee8565b9250828202614b3881613ee8565b91508282048414831517614b4f57614b4e614a51565b5b5092915050565b7f455243313135353a2063616c6c6572206973206e6f7420746f6b656e206f776e60008201527f6572206f7220617070726f766564000000000000000000000000000000000000602082015250565b6000614bb2602e8361407b565b9150614bbd82614b56565b604082019050919050565b60006020820190508181036000830152614be181614ba5565b9050919050565b7f43616c6c6572206973206e6f7420746865206f776e6572000000000000000000600082015250565b6000614c1e60178361407b565b9150614c2982614be8565b602082019050919050565b60006020820190508181036000830152614c4d81614c11565b9050919050565b7f5769746864726177206e6f7420616c6c6f776564207768656e20616374697665600082015250565b6000614c8a60208361407b565b9150614c9582614c54565b602082019050919050565b60006020820190508181036000830152614cb981614c7d565b9050919050565b7f5769746864726177206e6f7420616c6c6f776564207768656e2064656661756c60008201527f7465640000000000000000000000000000000000000000000000000000000000602082015250565b6000614d1c60238361407b565b9150614d2782614cc0565b604082019050919050565b60006020820190508181036000830152614d4b81614d0f565b9050919050565b7f5769746864726177616c20746f6b656e20616d6f756e7420657863656564732060008201527f746f6b656e20616d6f756e7420696e20636f6e74726163740000000000000000602082015250565b6000614dae60388361407b565b9150614db982614d52565b604082019050919050565b60006020820190508181036000830152614ddd81614da1565b9050919050565b614ded81613eaa565b82525050565b6000604082019050614e086000830185614de4565b614e156020830184613f5e565b9392505050565b600081519050614e2b8161467d565b92915050565b600060208284031215614e4757614e46613e80565b5b6000614e5584828501614e1c565b91505092915050565b7f4e487b7100000000000000000000000000000000000000000000000000000000600052601260045260246000fd5b6000614e9882613ee8565b9150614ea383613ee8565b925082614eb357614eb2614e5e565b5b828204905092915050565b7f455243313135353a206163636f756e747320616e6420696473206c656e67746860008201527f206d69736d617463680000000000000000000000000000000000000000000000602082015250565b6000614f1a60298361407b565b9150614f2582614ebe565b604082019050919050565b60006020820190508181036000830152614f4981614f0d565b9050919050565b7f4e487b7100000000000000000000000000000000000000000000000000000000600052603260045260246000fd5b6000614f8a82613ee8565b91507fffffffffffffffffffffffffffffffffffffffffffffffffffffffffffffffff8203614fbc57614fbb614a51565b5b600182019050919050565b600069ffffffffffffffffffff82169050919050565b614fe681614fc7565b8114614ff157600080fd5b50565b60008151905061500381614fdd565b92915050565b61501281614649565b811461501d57600080fd5b50565b60008151905061502f81615009565b92915050565b60008151905061504481613ef2565b92915050565b600080600080600060a0868803121561506657615065613e80565b5b600061507488828901614ff4565b955050602061508588828901615020565b945050604061509688828901615035565b93505060606150a788828901615035565b92505060806150b888828901614ff4565b9150509295509295909350565b7f426f6e6420697320696e61637469766500000000000000000000000000000000600082015250565b60006150fb60108361407b565b9150615106826150c5565b602082019050919050565b6000602082019050818103600083015261512a816150ee565b9050919050565b7f496e73756666696369656e7420626f6e64207175616e746974792072656d616960008201527f6e696e6700000000000000000000000000000000000000000000000000000000602082015250565b600061518d60248361407b565b915061519882615131565b604082019050919050565b600060208201905081810360008301526151bc81615180565b9050919050565b60006151ce82613ee8565b91506151d983613ee8565b92508282019050808211156151f1576151f0614a51565b5b92915050565b600060608201905061520c6000830186614de4565b6152196020830185614de4565b6152266040830184613f5e565b949350505050565b60006020820190506152436000830184614de4565b92915050565b60006020828403121561525f5761525e613e80565b5b600061526d84828501615035565b91505092915050565b7f426f6e64206973206e6f7420636f6d706c657465640000000000000000000000600082015250565b60006152ac60158361407b565b91506152b782615276565b602082019050919050565b600060208201905081810360008301526152db8161529f565b9050919050565b7f496e73756666696369656e7420626f6e64207175616e74697479000000000000600082015250565b6000615318601a8361407b565b9150615323826152e2565b602082019050919050565b600060208201905081810360008301526153478161530b565b9050919050565b7f426f6e64206973206e6f742064656661756c7465640000000000000000000000600082015250565b600061538460158361407b565b915061538f8261534e565b602082019050919050565b600060208201905081810360008301526153b381615377565b9050919050565b60006060820190506153cf6000830186613f5e565b6153dc6020830185613f5e565b6153e96040830184613f5e565b949350505050565b7f426f6e64206973206e6f742063616e63656c6564000000000000000000000000600082015250565b600061542760148361407b565b9150615432826153f1565b602082019050919050565b600060208201905081810360008301526154568161541a565b9050919050565b60006040820190506154726000830185613f5e565b61547f6020830184613f5e565b9392505050565b7f416374697665206475726174696f6e2073686f756c642062652073686f72746560008201527f72207468616e206475726174696f6e0000000000000000000000000000000000602082015250565b60006154e2602f8361407b565b91506154ed82615486565b604082019050919050565b60006020820190508181036000830152615511816154d5565b9050919050565b60008190508160005260206000209050919050565b60006020601f8301049050919050565b600082821b905092915050565b60006008830261557a7fffffffffffffffffffffffffffffffffffffffffffffffffffffffffffffffff8261553d565b615584868361553d565b95508019841693508086168417925050509392505050565b6000819050919050565b60006155c16155bc6155b784613ee8565b61559c565b613ee8565b9050919050565b6000819050919050565b6155db836155a6565b6155ef6155e7826155c8565b84845461554a565b825550505050565b600090565b6156046155f7565b61560f8184846155d2565b505050565b5b81811015615633576156286000826155fc565b600181019050615615565b5050565b601f8211156156785761564981615518565b6156528461552d565b81016020851015615661578190505b61567561566d8561552d565b830182615614565b50505b505050565b600082821c905092915050565b600061569b6000198460080261567d565b1980831691505092915050565b60006156b4838361568a565b9150826002028217905092915050565b6156cd82614070565b67ffffffffffffffff8111156156e6576156e5614127565b5b6156f08254614ae3565b6156fb828285615637565b600060209050601f83116001811461572e576000841561571c578287015190505b61572685826156a8565b86555061578e565b601f19841661573c86615518565b60005b828110156157645784890151825560018201915060208501945060208101905061573f565b86831015615781578489015161577d601f89168261568a565b8355505b6001600288020188555050505b505050505050565b60006080820190506157ab6000830187613f5e565b6157b86020830186613f5e565b6157c56040830185613f5e565b6157d26060830184613f5e565b95945050505050565b7f626f6e642069732064656661756c746564000000000000000000000000000000600082015250565b600061581160118361407b565b915061581c826157db565b602082019050919050565b6000602082019050818103600083015261584081615804565b9050919050565b7f626f6e6420697320636f6d706c65746564000000000000000000000000000000600082015250565b600061587d60118361407b565b915061588882615847565b602082019050919050565b600060208201905081810360008301526158ac81615870565b9050919050565b7f43616e6e6f742077697468647261772065786365737300000000000000000000600082015250565b60006158e960168361407b565b91506158f4826158b3565b602082019050919050565b60006020820190508181036000830152615918816158dc565b9050919050565b7f43616e6e6f742077697468647261772066726f6d20656d70747920706f6f6c00600082015250565b6000615955601f8361407b565b91506159608261591f565b602082019050919050565b6000602082019050818103600083015261598481615948565b9050919050565b7f455243313135353a2069647320616e6420616d6f756e7473206c656e6774682060008201527f6d69736d61746368000000000000000000000000000000000000000000000000602082015250565b60006159e760288361407b565b91506159f28261598b565b604082019050919050565b60006020820190508181036000830152615a16816159da565b9050919050565b7f455243313135353a207472616e7366657220746f20746865207a65726f20616460008201527f6472657373000000000000000000000000000000000000000000000000000000602082015250565b6000615a7960258361407b565b9150615a8482615a1d565b604082019050919050565b60006020820190508181036000830152615aa881615a6c565b9050919050565b7f455243313135353a20696e73756666696369656e742062616c616e636520666f60008201527f72207472616e7366657200000000000000000000000000000000000000000000602082015250565b6000615b0b602a8361407b565b9150615b1682615aaf565b604082019050919050565b60006020820190508181036000830152615b3a81615afe565b9050919050565b60006040820190508181036000830152615b5b81856145c9565b90508181036020830152615b6f81846145c9565b90509392505050565b7f455243313135353a206275726e2066726f6d20746865207a65726f206164647260008201527f6573730000000000000000000000000000000000000000000000000000000000602082015250565b6000615bd460238361407b565b9150615bdf82615b78565b604082019050919050565b60006020820190508181036000830152615c0381615bc7565b9050919050565b7f455243313135353a206275726e20616d6f756e7420657863656564732062616c60008201527f616e636500000000000000000000000000000000000000000000000000000000602082015250565b6000615c6660248361407b565b9150615c7182615c0a565b604082019050919050565b60006020820190508181036000830152615c9581615c59565b9050919050565b7f455243313135353a2073657474696e6720617070726f76616c2073746174757360008201527f20666f722073656c660000000000000000000000000000000000000000000000602082015250565b6000615cf860298361407b565b9150615d0382615c9c565b604082019050919050565b60006020820190508181036000830152615d2781615ceb565b9050919050565b7f455243313135353a206d696e7420746f20746865207a65726f2061646472657360008201527f7300000000000000000000000000000000000000000000000000000000000000602082015250565b6000615d8a60218361407b565b9150615d9582615d2e565b604082019050919050565b60006020820190508181036000830152615db981615d7d565b9050919050565b600081519050919050565b600082825260208201905092915050565b6000615de782615dc0565b615df18185615dcb565b9350615e0181856020860161408c565b615e0a816140b6565b840191505092915050565b600060a082019050615e2a6000830188614de4565b615e376020830187614de4565b8181036040830152615e4981866145c9565b90508181036060830152615e5d81856145c9565b90508181036080830152615e718184615ddc565b90509695505050505050565b600081519050615e8c81613fb4565b92915050565b600060208284031215615ea857615ea7613e80565b5b6000615eb684828501615e7d565b91505092915050565b60008160e01c9050919050565b600060033d1115615eeb5760046000803e615ee8600051615ebf565b90505b90565b600060443d10615f7b57615f00613e76565b60043d036004823e80513d602482011167ffffffffffffffff82111715615f28575050615f7b565b808201805167ffffffffffffffff811115615f465750505050615f7b565b80602083010160043d038501811115615f63575050505050615f7b565b615f7282602001850186614156565b82955050505050505b90565b7f455243313135353a207472616e7366657220746f206e6f6e2d4552433131353560008201527f526563656976657220696d706c656d656e746572000000000000000000000000602082015250565b6000615fda60348361407b565b9150615fe582615f7e565b604082019050919050565b6000602082019050818103600083015261600981615fcd565b9050919050565b7f455243313135353a204552433131353552656365697665722072656a6563746560008201527f6420746f6b656e73000000000000000000000000000000000000000000000000602082015250565b600061606c60288361407b565b915061607782616010565b604082019050919050565b6000602082019050818103600083015261609b8161605f565b9050919050565b600060a0820190506160b76000830188614de4565b6160c46020830187614de4565b6160d16040830186613f5e565b6160de6060830185613f5e565b81810360808301526160f08184615ddc565b9050969550505050505056fea2646970667358221220d2f8e6a018a9d1ca4ebda46f1018bdada9388f1e6f5e74c64ab181e0d73b30d064736f6c63430008110033",
  "linkReferences": {},
  "deployedLinkReferences": {}
}