{
  "_format": "hh-sol-artifact-1",
  "contractName": "DualCurrencyBondFactory",
  "sourceName": "contracts/DualCurrencyBondFactory.sol",
  "abi": [
    {
      "inputs": [
        {
          "internalType": "address",
          "name": "a",
          "type": "address"
        },
        {
          "internalType": "address",
          "name": "b",
          "type": "address"
        },
        {
          "internalType": "address",
          "name": "bondToken",
          "type": "address"
        },
        {
          "internalType": "address",
          "name": "priceFeedA",
          "type": "address"
        },
        {
          "internalType": "address",
          "name": "priceFeedB",
          "type": "address"
        },
        {
          "internalType": "address",
          "name": "db",
          "type": "address"
        },
        {
          "internalType": "address",
          "name": "deployer",
          "type": "address"
        }
      ],
      "stateMutability": "nonpayable",
      "type": "constructor"
    },
    {
      "anonymous": false,
      "inputs": [
        {
          "indexed": true,
          "internalType": "uint256",
          "name": "id",
          "type": "uint256"
        },
        {
          "indexed": false,
          "internalType": "uint256",
          "name": "totalDebt",
          "type": "uint256"
        },
        {
          "indexed": false,
          "internalType": "uint256",
          "name": "paidDebt",
          "type": "uint256"
        }
      ],
      "name": "Completed",
      "type": "event"
    },
    {
      "anonymous": false,
      "inputs": [
        {
          "indexed": true,
          "internalType": "uint256",
          "name": "id",
          "type": "uint256"
        },
        {
          "indexed": false,
          "internalType": "uint256",
          "name": "totalDebt",
          "type": "uint256"
        },
        {
          "indexed": false,
          "internalType": "uint256",
          "name": "paidDebtA",
          "type": "uint256"
        },
        {
          "indexed": false,
          "internalType": "uint256",
          "name": "paidDebtB",
          "type": "uint256"
        }
      ],
      "name": "Defaulted",
      "type": "event"
    },
    {
      "anonymous": false,
      "inputs": [
        {
          "indexed": true,
          "internalType": "uint256",
          "name": "id",
          "type": "uint256"
        },
        {
          "indexed": false,
          "internalType": "uint256",
          "name": "bondQuantity",
          "type": "uint256"
        },
        {
          "indexed": false,
          "internalType": "uint256",
          "name": "tokenAAmountPerBond",
          "type": "uint256"
        },
        {
          "indexed": false,
          "internalType": "uint256",
          "name": "tokenBAmountPerBond",
          "type": "uint256"
        },
        {
          "indexed": false,
          "internalType": "uint256",
          "name": "couponRate",
          "type": "uint256"
        },
        {
          "indexed": false,
          "internalType": "uint256",
          "name": "maturityDate",
          "type": "uint256"
        }
      ],
      "name": "Issued",
      "type": "event"
    },
    {
      "anonymous": false,
      "inputs": [
        {
          "indexed": true,
          "internalType": "uint256",
          "name": "id",
          "type": "uint256"
        },
        {
          "indexed": false,
          "internalType": "address",
          "name": "buyer",
          "type": "address"
        },
        {
          "indexed": false,
          "internalType": "uint256",
          "name": "bondQuantity",
          "type": "uint256"
        },
        {
          "indexed": false,
          "internalType": "uint256",
          "name": "state",
          "type": "uint256"
        }
      ],
      "name": "Redeemed",
      "type": "event"
    },
    {
      "inputs": [],
      "name": "bonds",
      "outputs": [
        {
          "internalType": "uint256[]",
          "name": "",
          "type": "uint256[]"
        }
      ],
      "stateMutability": "view",
      "type": "function"
    },
    {
      "inputs": [
        {
          "internalType": "uint256",
          "name": "id",
          "type": "uint256"
        }
      ],
      "name": "couponRate",
      "outputs": [
        {
          "internalType": "uint256",
          "name": "",
          "type": "uint256"
        }
      ],
      "stateMutability": "view",
      "type": "function"
    },
    {
      "inputs": [
        {
          "internalType": "uint256",
          "name": "id",
          "type": "uint256"
        },
        {
          "internalType": "uint256",
          "name": "tokenAmount",
          "type": "uint256"
        }
      ],
      "name": "deposit",
      "outputs": [],
      "stateMutability": "nonpayable",
      "type": "function"
    },
    {
      "inputs": [
        {
          "internalType": "uint256",
          "name": "id",
          "type": "uint256"
        }
      ],
      "name": "designatedTokenAPool",
      "outputs": [
        {
          "internalType": "uint256",
          "name": "",
          "type": "uint256"
        }
      ],
      "stateMutability": "view",
      "type": "function"
    },
    {
      "inputs": [
        {
          "internalType": "uint256",
          "name": "id",
          "type": "uint256"
        }
      ],
      "name": "designatedTokenBPool",
      "outputs": [
        {
          "internalType": "uint256",
          "name": "",
          "type": "uint256"
        }
      ],
      "stateMutability": "view",
      "type": "function"
    },
    {
      "inputs": [],
      "name": "getAtoBExchangeRate",
      "outputs": [
        {
          "internalType": "uint256",
          "name": "",
          "type": "uint256"
        }
      ],
      "stateMutability": "view",
      "type": "function"
    },
    {
      "inputs": [],
      "name": "getLatestPriceA",
      "outputs": [
        {
          "internalType": "int256",
          "name": "",
          "type": "int256"
        }
      ],
      "stateMutability": "view",
      "type": "function"
    },
    {
      "inputs": [],
      "name": "getLatestPriceB",
      "outputs": [
        {
          "internalType": "int256",
          "name": "",
          "type": "int256"
        }
      ],
      "stateMutability": "view",
      "type": "function"
    },
    {
      "inputs": [
        {
          "internalType": "uint256",
          "name": "id",
          "type": "uint256"
        }
      ],
      "name": "hasReachedMaturity",
      "outputs": [
        {
          "internalType": "bool",
          "name": "",
          "type": "bool"
        }
      ],
      "stateMutability": "view",
      "type": "function"
    },
    {
      "inputs": [
        {
          "internalType": "uint256",
          "name": "id",
          "type": "uint256"
        }
      ],
      "name": "isActive",
      "outputs": [
        {
          "internalType": "bool",
          "name": "",
          "type": "bool"
        }
      ],
      "stateMutability": "view",
      "type": "function"
    },
    {
      "inputs": [
        {
          "internalType": "uint256",
          "name": "id",
          "type": "uint256"
        }
      ],
      "name": "isCanceled",
      "outputs": [
        {
          "internalType": "bool",
          "name": "",
          "type": "bool"
        }
      ],
      "stateMutability": "view",
      "type": "function"
    },
    {
      "inputs": [
        {
          "internalType": "uint256",
          "name": "id",
          "type": "uint256"
        }
      ],
      "name": "isCompleted",
      "outputs": [
        {
          "internalType": "bool",
          "name": "",
          "type": "bool"
        }
      ],
      "stateMutability": "view",
      "type": "function"
    },
    {
      "inputs": [
        {
          "internalType": "uint256",
          "name": "id",
          "type": "uint256"
        }
      ],
      "name": "isCompletedInTheory",
      "outputs": [
        {
          "internalType": "bool",
          "name": "",
          "type": "bool"
        }
      ],
      "stateMutability": "view",
      "type": "function"
    },
    {
      "inputs": [
        {
          "internalType": "uint256",
          "name": "id",
          "type": "uint256"
        }
      ],
      "name": "isDefaulted",
      "outputs": [
        {
          "internalType": "bool",
          "name": "",
          "type": "bool"
        }
      ],
      "stateMutability": "view",
      "type": "function"
    },
    {
      "inputs": [
        {
          "internalType": "uint256",
          "name": "id",
          "type": "uint256"
        }
      ],
      "name": "isDefaultedInTheory",
      "outputs": [
        {
          "internalType": "bool",
          "name": "",
          "type": "bool"
        }
      ],
      "stateMutability": "view",
      "type": "function"
    },
    {
      "inputs": [
        {
          "internalType": "uint256",
          "name": "id",
          "type": "uint256"
        }
      ],
      "name": "isFulfilled",
      "outputs": [
        {
          "internalType": "bool",
          "name": "",
          "type": "bool"
        }
      ],
      "stateMutability": "view",
      "type": "function"
    },
    {
      "inputs": [
        {
          "internalType": "uint256",
          "name": "id",
          "type": "uint256"
        }
      ],
      "name": "isFullyRedeemed",
      "outputs": [
        {
          "internalType": "bool",
          "name": "",
          "type": "bool"
        }
      ],
      "stateMutability": "view",
      "type": "function"
    },
    {
      "inputs": [
        {
          "internalType": "uint256",
          "name": "id",
          "type": "uint256"
        }
      ],
      "name": "isIssuedByFactory",
      "outputs": [
        {
          "internalType": "bool",
          "name": "",
          "type": "bool"
        }
      ],
      "stateMutability": "view",
      "type": "function"
    },
    {
      "inputs": [
        {
          "internalType": "uint256",
          "name": "bondQuantity",
          "type": "uint256"
        },
        {
          "internalType": "uint256",
          "name": "minPurchasedQuantity",
          "type": "uint256"
        },
        {
          "internalType": "uint256",
          "name": "tokenAAmountPerBond",
          "type": "uint256"
        },
        {
          "internalType": "string",
          "name": "ticker",
          "type": "string"
        },
        {
          "internalType": "uint256",
          "name": "durationInDays",
          "type": "uint256"
        },
        {
          "internalType": "uint256",
          "name": "activeDurationInDays",
          "type": "uint256"
        },
        {
          "internalType": "uint256",
          "name": "rate",
          "type": "uint256"
        }
      ],
      "name": "issue",
      "outputs": [
        {
          "internalType": "uint256",
          "name": "id",
          "type": "uint256"
        }
      ],
      "stateMutability": "nonpayable",
      "type": "function"
    },
    {
      "inputs": [
        {
          "internalType": "uint256",
          "name": "id",
          "type": "uint256"
        }
      ],
      "name": "markAsCompleted",
      "outputs": [],
      "stateMutability": "nonpayable",
      "type": "function"
    },
    {
      "inputs": [
        {
          "internalType": "uint256",
          "name": "id",
          "type": "uint256"
        }
      ],
      "name": "markAsDefaulted",
      "outputs": [],
      "stateMutability": "nonpayable",
      "type": "function"
    },
    {
      "inputs": [
        {
          "internalType": "address",
          "name": "",
          "type": "address"
        },
        {
          "internalType": "address",
          "name": "",
          "type": "address"
        },
        {
          "internalType": "uint256[]",
          "name": "",
          "type": "uint256[]"
        },
        {
          "internalType": "uint256[]",
          "name": "",
          "type": "uint256[]"
        },
        {
          "internalType": "bytes",
          "name": "",
          "type": "bytes"
        }
      ],
      "name": "onERC1155BatchReceived",
      "outputs": [
        {
          "internalType": "bytes4",
          "name": "",
          "type": "bytes4"
        }
      ],
      "stateMutability": "nonpayable",
      "type": "function"
    },
    {
      "inputs": [
        {
          "internalType": "address",
          "name": "",
          "type": "address"
        },
        {
          "internalType": "address",
          "name": "",
          "type": "address"
        },
        {
          "internalType": "uint256",
          "name": "",
          "type": "uint256"
        },
        {
          "internalType": "uint256",
          "name": "",
          "type": "uint256"
        },
        {
          "internalType": "bytes",
          "name": "",
          "type": "bytes"
        }
      ],
      "name": "onERC1155Received",
      "outputs": [
        {
          "internalType": "bytes4",
          "name": "",
          "type": "bytes4"
        }
      ],
      "stateMutability": "nonpayable",
      "type": "function"
    },
    {
      "inputs": [],
      "name": "owner",
      "outputs": [
        {
          "internalType": "address",
          "name": "",
          "type": "address"
        }
      ],
      "stateMutability": "view",
      "type": "function"
    },
    {
      "inputs": [
        {
          "internalType": "uint256",
          "name": "id",
          "type": "uint256"
        }
      ],
      "name": "poolAAmount",
      "outputs": [
        {
          "internalType": "uint256",
          "name": "",
          "type": "uint256"
        }
      ],
      "stateMutability": "view",
      "type": "function"
    },
    {
      "inputs": [
        {
          "internalType": "uint256",
          "name": "id",
          "type": "uint256"
        }
      ],
      "name": "poolBAmount",
      "outputs": [
        {
          "internalType": "uint256",
          "name": "",
          "type": "uint256"
        }
      ],
      "stateMutability": "view",
      "type": "function"
    },
    {
      "inputs": [
        {
          "internalType": "uint256",
          "name": "id",
          "type": "uint256"
        }
      ],
      "name": "preMaturityDefault",
      "outputs": [],
      "stateMutability": "nonpayable",
      "type": "function"
    },
    {
      "inputs": [
        {
          "internalType": "uint256",
          "name": "id",
          "type": "uint256"
        }
      ],
      "name": "principal",
      "outputs": [
        {
          "internalType": "uint256",
          "name": "",
          "type": "uint256"
        }
      ],
      "stateMutability": "view",
      "type": "function"
    },
    {
      "inputs": [
        {
          "internalType": "uint256",
          "name": "id",
          "type": "uint256"
        }
      ],
      "name": "principalWithInterest",
      "outputs": [
        {
          "internalType": "uint256",
          "name": "",
          "type": "uint256"
        }
      ],
      "stateMutability": "view",
      "type": "function"
    },
    {
      "inputs": [
        {
          "internalType": "uint256",
          "name": "id",
          "type": "uint256"
        },
        {
          "internalType": "uint256",
          "name": "bondQuantity",
          "type": "uint256"
        }
      ],
      "name": "purchase",
      "outputs": [],
      "stateMutability": "nonpayable",
      "type": "function"
    },
    {
      "inputs": [
        {
          "internalType": "uint256",
          "name": "id",
          "type": "uint256"
        },
        {
          "internalType": "uint256",
          "name": "bondQuantity",
          "type": "uint256"
        }
      ],
      "name": "redeem",
      "outputs": [],
      "stateMutability": "nonpayable",
      "type": "function"
    },
    {
      "inputs": [
        {
          "internalType": "uint256",
          "name": "id",
          "type": "uint256"
        }
      ],
      "name": "remainingQuantity",
      "outputs": [
        {
          "internalType": "uint256",
          "name": "",
          "type": "uint256"
        }
      ],
      "stateMutability": "view",
      "type": "function"
    },
    {
      "inputs": [
        {
          "internalType": "bytes4",
          "name": "interfaceId",
          "type": "bytes4"
        }
      ],
      "name": "supportsInterface",
      "outputs": [
        {
          "internalType": "bool",
          "name": "",
          "type": "bool"
        }
      ],
      "stateMutability": "view",
      "type": "function"
    },
    {
      "inputs": [
        {
          "internalType": "uint256",
          "name": "id",
          "type": "uint256"
        }
      ],
      "name": "timeElapsed",
      "outputs": [
        {
          "internalType": "uint256",
          "name": "",
          "type": "uint256"
        }
      ],
      "stateMutability": "view",
      "type": "function"
    },
    {
      "inputs": [
        {
          "internalType": "uint256",
          "name": "id",
          "type": "uint256"
        }
      ],
      "name": "timeRemainingToEndOfActive",
      "outputs": [
        {
          "internalType": "uint256",
          "name": "",
          "type": "uint256"
        }
      ],
      "stateMutability": "view",
      "type": "function"
    },
    {
      "inputs": [
        {
          "internalType": "uint256",
          "name": "id",
          "type": "uint256"
        }
      ],
      "name": "timeRemainingToMaturity",
      "outputs": [
        {
          "internalType": "uint256",
          "name": "",
          "type": "uint256"
        }
      ],
      "stateMutability": "view",
      "type": "function"
    },
    {
      "inputs": [],
      "name": "tokenA",
      "outputs": [
        {
          "internalType": "address",
          "name": "",
          "type": "address"
        }
      ],
      "stateMutability": "view",
      "type": "function"
    },
    {
      "inputs": [],
      "name": "tokenB",
      "outputs": [
        {
          "internalType": "address",
          "name": "",
          "type": "address"
        }
      ],
      "stateMutability": "view",
      "type": "function"
    },
    {
      "inputs": [],
      "name": "tvlA",
      "outputs": [
        {
          "internalType": "uint256",
          "name": "",
          "type": "uint256"
        }
      ],
      "stateMutability": "view",
      "type": "function"
    },
    {
      "inputs": [],
      "name": "tvlB",
      "outputs": [
        {
          "internalType": "uint256",
          "name": "",
          "type": "uint256"
        }
      ],
      "stateMutability": "view",
      "type": "function"
    },
    {
      "inputs": [
        {
          "internalType": "uint256",
          "name": "id",
          "type": "uint256"
        },
        {
          "internalType": "uint256",
          "name": "tokenAmount",
          "type": "uint256"
        }
      ],
      "name": "withdraw",
      "outputs": [],
      "stateMutability": "nonpayable",
      "type": "function"
    },
    {
      "inputs": [
        {
          "internalType": "uint256",
          "name": "id",
          "type": "uint256"
        }
      ],
      "name": "withdrawExcess",
      "outputs": [],
      "stateMutability": "nonpayable",
      "type": "function"
    }
  ],
  "bytecode": "0x6101606040523480156200001257600080fd5b50604051620056de380380620056de83398181016040528101906200003891906200021e565b8073ffffffffffffffffffffffffffffffffffffffff1660c08173ffffffffffffffffffffffffffffffffffffffff16815250508673ffffffffffffffffffffffffffffffffffffffff1660e08173ffffffffffffffffffffffffffffffffffffffff16815250508573ffffffffffffffffffffffffffffffffffffffff166101008173ffffffffffffffffffffffffffffffffffffffff16815250508173ffffffffffffffffffffffffffffffffffffffff166101208173ffffffffffffffffffffffffffffffffffffffff16815250508473ffffffffffffffffffffffffffffffffffffffff166101408173ffffffffffffffffffffffffffffffffffffffff16815250508373ffffffffffffffffffffffffffffffffffffffff1660808173ffffffffffffffffffffffffffffffffffffffff16815250508273ffffffffffffffffffffffffffffffffffffffff1660a08173ffffffffffffffffffffffffffffffffffffffff168152505050505050505050620002d1565b600080fd5b600073ffffffffffffffffffffffffffffffffffffffff82169050919050565b6000620001e682620001b9565b9050919050565b620001f881620001d9565b81146200020457600080fd5b50565b6000815190506200021881620001ed565b92915050565b600080600080600080600060e0888a03121562000240576200023f620001b4565b5b6000620002508a828b0162000207565b9750506020620002638a828b0162000207565b9650506040620002768a828b0162000207565b9550506060620002898a828b0162000207565b94505060806200029c8a828b0162000207565b93505060a0620002af8a828b0162000207565b92505060c0620002c28a828b0162000207565b91505092959891949750929550565b60805160a05160c05160e051610100516101205161014051615223620004bb6000396000818161097f01528181610a3201528181610b85015281816114b1015281816118a401528181611a8501528181611c2801528181611dac01528181611ea0015281816120b0015281816121bb015281816124f6015281816125a20152818161267c0152818161273a01528181612cd3015281816130150152613800015260008181611225015281816112d0015281816115a60152818161165301528181611722015281816117f4015281816129d201528181612a7d015281816138f90152613985015260008181610f6c01528181611b8801528181611f610152818161235801528181612bca01528181612f31015281816131e8015281816133e301526137a8015260008181610af101528181610e65015281816115e3015281816116b1015281816117800152818161183101528181611935015281816120730152818161229b01528181612b2b0152818161349a015261376c015260008181610cda0152818161104e015281816112610152818161130c015281816116900152818161175f0152818161265401528181612a0e01528181612ab9015281816130c50152818161328d0152818161355001526139c1015260006119de01526000610f9501526152236000f3fe608060405234801561001057600080fd5b506004361061025e5760003560e01c806377e2a08b11610146578063aa81106c116100c3578063d3b7811b11610087578063d3b7811b1461081b578063e2bbb1581461084b578063e755ddd714610867578063f0f3d7de14610883578063f23a6e61146108a1578063fcbc669a146108d15761025e565b8063aa81106c1461073f578063abac75e11461076f578063b1a1a1651461079f578063bc197c81146107cf578063c0a6026c146107ff5761025e565b806388bdc0831161010a57806388bdc083146106755780638da5cb5b146106a55780638f0dbf77146106c3578063932a8de0146106f3578063a8743022146107235761025e565b806377e2a08b146105ab5780637a41984b146105db5780637bf244561461060b5780637cbc23731461062957806382afd23b146106455761025e565b8063441a3e70116101df57806364893aaf116101a357806364893aaf146104c55780636567dc4d146104f5578063697e8c8c146105115780636ff80d931461054157806370876c9814610571578063769d96eb1461058d5761025e565b8063441a3e701461041f5780634556e49b1461043b578063549493bb146104595780635f64b55b14610489578063634ef303146104a75761025e565b806314f294931161022657806314f294931461032f5780632f2c6b321461035f5780632f3ad61f1461038f5780633097afb8146103bf57806339e3af9b146103ef5761025e565b806301ffc9a71461026357806308913ce81461029357806309149020146102c35780630fc63d10146102f3578063135c404e14610311575b600080fd5b61027d60048036038101906102789190613b85565b610901565b60405161028a9190613bcd565b60405180910390f35b6102ad60048036038101906102a89190613c1e565b61097b565b6040516102ba9190613c5a565b60405180910390f35b6102dd60048036038101906102d89190613c1e565b610a2e565b6040516102ea9190613bcd565b60405180910390f35b6102fb610aed565b6040516103089190613cb6565b60405180910390f35b610319610b15565b6040516103269190613d8f565b60405180910390f35b61034960048036038101906103449190613c1e565b610b6d565b6040516103569190613c5a565b60405180910390f35b61037960048036038101906103749190613c1e565b610c33565b6040516103869190613c5a565b60405180910390f35b6103a960048036038101906103a49190613c1e565b610c50565b6040516103b69190613bcd565b60405180910390f35b6103d960048036038101906103d49190613c1e565b610c7a565b6040516103e69190613bcd565b60405180910390f35b61040960048036038101906104049190613c1e565b610cb3565b6040516104169190613bcd565b60405180910390f35b61043960048036038101906104349190613db1565b610cd8565b005b610443610f06565b6040516104509190613c5a565b60405180910390f35b610473600480360381019061046e9190613c1e565b610f36565b6040516104809190613bcd565b60405180910390f35b610491610f68565b60405161049e9190613cb6565b60405180910390f35b6104af610f90565b6040516104bc9190613e0a565b60405180910390f35b6104df60048036038101906104da9190613c1e565b61102f565b6040516104ec9190613c5a565b60405180910390f35b61050f600480360381019061050a9190613c1e565b61104c565b005b61052b60048036038101906105269190613c1e565b6113c5565b6040516105389190613c5a565b60405180910390f35b61055b60048036038101906105569190613c1e565b6113e2565b6040516105689190613bcd565b60405180910390f35b61058b60048036038101906105869190613db1565b61141a565b005b6105956119d9565b6040516105a29190613e0a565b60405180910390f35b6105c560048036038101906105c09190613c1e565b611a78565b6040516105d29190613c5a565b60405180910390f35b6105f560048036038101906105f09190613c1e565b611b5a565b6040516106029190613bcd565b60405180910390f35b610613611b84565b6040516106209190613c5a565b60405180910390f35b610643600480360381019061063e9190613db1565b611c25565b005b61065f600480360381019061065a9190613c1e565b6124f2565b60405161066c9190613bcd565b60405180910390f35b61068f600480360381019061068a9190613c1e565b61259d565b60405161069c9190613c5a565b60405180910390f35b6106ad612650565b6040516106ba9190613cb6565b60405180910390f35b6106dd60048036038101906106d89190613c1e565b612678565b6040516106ea9190613bcd565b60405180910390f35b61070d60048036038101906107089190613c1e565b612722565b60405161071a9190613c5a565b60405180910390f35b61073d60048036038101906107389190613c1e565b6127e8565b005b61075960048036038101906107549190613c1e565b612cb2565b6040516107669190613c5a565b60405180910390f35b61078960048036038101906107849190613c1e565b612ccf565b6040516107969190613c5a565b60405180910390f35b6107b960048036038101906107b49190613c1e565b612d78565b6040516107c69190613bcd565b60405180910390f35b6107e960048036038101906107e4919061405f565b612da2565b6040516107f6919061413d565b60405180910390f35b61081960048036038101906108149190613c1e565b612db7565b005b61083560048036038101906108309190613c1e565b613010565b6040516108429190613c5a565b60405180910390f35b61086560048036038101906108609190613db1565b6130c3565b005b610881600480360381019061087c9190613c1e565b61328b565b005b61088b613496565b6040516108989190613c5a565b60405180910390f35b6108bb60048036038101906108b69190614158565b613537565b6040516108c8919061413d565b60405180910390f35b6108eb60048036038101906108e69190614290565b61354c565b6040516108f89190613c5a565b60405180910390f35b60007f4e2312e0000000000000000000000000000000000000000000000000000000007bffffffffffffffffffffffffffffffffffffffffffffffffffffffff1916827bffffffffffffffffffffffffffffffffffffffffffffffffffffffff19161480610974575061097382613a99565b5b9050919050565b60007f000000000000000000000000000000000000000000000000000000000000000073ffffffffffffffffffffffffffffffffffffffff16634dd9c9c7836040518263ffffffff1660e01b81526004016109d69190613c5a565b61014060405180830381865afa1580156109f4573d6000803e3d6000fd5b505050506040513d601f19601f82011682018060405250810190610a18919061445e565b6040015142610a2791906144bb565b9050919050565b60007f000000000000000000000000000000000000000000000000000000000000000073ffffffffffffffffffffffffffffffffffffffff16634dd9c9c7836040518263ffffffff1660e01b8152600401610a899190613c5a565b61014060405180830381865afa158015610aa7573d6000803e3d6000fd5b505050506040513d601f19601f82011682018060405250810190610acb919061445e565b6101000151600260008481526020019081526020016000205410159050919050565b60007f0000000000000000000000000000000000000000000000000000000000000000905090565b60606001805480602002602001604051908101604052809291908181526020018280548015610b6357602002820191906000526020600020905b815481526020019060010190808311610b4f575b5050505050905090565b600060026000838152602001908152602001600020547f000000000000000000000000000000000000000000000000000000000000000073ffffffffffffffffffffffffffffffffffffffff16634dd9c9c7846040518263ffffffff1660e01b8152600401610bdc9190613c5a565b61014060405180830381865afa158015610bfa573d6000803e3d6000fd5b505050506040513d601f19601f82011682018060405250810190610c1e919061445e565b60200151610c2c91906144ef565b9050919050565b600060046000838152602001908152602001600020549050919050565b6000600a600083815260200190815260200160002060009054906101000a900460ff169050919050565b6000610c8582612678565b8015610cac5750610c9582611a78565b600560008481526020019081526020016000205410155b9050919050565b6000610cbe826124f2565b158015610cd15750610ccf82610a2e565b155b9050919050565b7f000000000000000000000000000000000000000000000000000000000000000073ffffffffffffffffffffffffffffffffffffffff163373ffffffffffffffffffffffffffffffffffffffff1614610d66576040517f08c379a0000000000000000000000000000000000000000000000000000000008152600401610d5d9061458e565b60405180910390fd5b610d6f826124f2565b158015610d825750610d8082610cb3565b155b8015610da45750610d9282610c50565b80610da25750610da1826113e2565b5b155b610de3576040517f08c379a0000000000000000000000000000000000000000000000000000000008152600401610dda906145fa565b60405180910390fd5b6004600083815260200190815260200160002054811115610e39576040517f08c379a0000000000000000000000000000000000000000000000000000000008152600401610e3090614666565b60405180910390fd5b80600460008481526020019081526020016000206000828254610e5c91906144bb565b925050819055507f000000000000000000000000000000000000000000000000000000000000000073ffffffffffffffffffffffffffffffffffffffff1663a9059cbb33836040518363ffffffff1660e01b8152600401610ebe929190614686565b6020604051808303816000875af1158015610edd573d6000803e3d6000fd5b505050506040513d601f19601f82011682018060405250810190610f0191906146db565b505050565b6000610f106119d9565b633b9aca00610f1d610f90565b610f2791906144ef565b610f319190614737565b905090565b600060026000838152602001908152602001600020546003600084815260200190815260200160002054149050919050565b60007f0000000000000000000000000000000000000000000000000000000000000000905090565b6000807f000000000000000000000000000000000000000000000000000000000000000073ffffffffffffffffffffffffffffffffffffffff1663feaf968c6040518163ffffffff1660e01b815260040160a060405180830381865afa158015610ffe573d6000803e3d6000fd5b505050506040513d601f19601f8201168201806040525081019061102291906147d6565b5050509150508091505090565b600060056000838152602001908152602001600020549050919050565b7f000000000000000000000000000000000000000000000000000000000000000073ffffffffffffffffffffffffffffffffffffffff163373ffffffffffffffffffffffffffffffffffffffff16146110da576040517f08c379a00000000000000000000000000000000000000000000000000000000081526004016110d19061458e565b60405180910390fd5b6110e381611b5a565b1580156110f657506110f481610c50565b155b801561111c575061110681611a78565b6005600083815260200190815260200160002054105b61115b576040517f08c379a00000000000000000000000000000000000000000000000000000000081526004016111529061489d565b60405180910390fd5b6000600460008381526020019081526020016000205490506000600560008481526020019081526020016000205490506002600084815260200190815260200160002054826111aa9190614737565b60066000858152602001908152602001600020819055506002600084815260200190815260200160002054816111e09190614737565b60076000858152602001908152602001600020819055506001600a600085815260200190815260200160002060006101000a81548160ff0219169083151502179055507f000000000000000000000000000000000000000000000000000000000000000073ffffffffffffffffffffffffffffffffffffffff1663dae382d67f00000000000000000000000000000000000000000000000000000000000000006040518263ffffffff1660e01b815260040161129c9190613cb6565b600060405180830381600087803b1580156112b657600080fd5b505af11580156112ca573d6000803e3d6000fd5b505050507f000000000000000000000000000000000000000000000000000000000000000073ffffffffffffffffffffffffffffffffffffffff1663d050a7c87f000000000000000000000000000000000000000000000000000000000000000060046040518363ffffffff1660e01b815260040161134a929190614686565b600060405180830381600087803b15801561136457600080fd5b505af1158015611378573d6000803e3d6000fd5b50505050827fcd2c25949e23ea2647ca2c5809b025ee3aca0d82cfcb1d22a715398f5cf8db8e6113a785611a78565b83856040516113b8939291906148bd565b60405180910390a2505050565b600060046000838152602001908152602001600020549050919050565b60006113ed82612678565b801561141357506113fd82611a78565b6005600084815260200190815260200160002054105b9050919050565b611423826124f2565b611462576040517f08c379a000000000000000000000000000000000000000000000000000000000815260040161145990614940565b60405180910390fd5b8061146c83612722565b10156114ad576040517f08c379a00000000000000000000000000000000000000000000000000000000081526004016114a4906149ac565b60405180910390fd5b60007f000000000000000000000000000000000000000000000000000000000000000073ffffffffffffffffffffffffffffffffffffffff16634dd9c9c7846040518263ffffffff1660e01b81526004016115089190613c5a565b61014060405180830381865afa158015611526573d6000803e3d6000fd5b505050506040513d601f19601f8201168201806040525081019061154a919061445e565b6000015190508160026000858152602001908152602001600020600082825461157391906149cc565b925050819055508060046000858152602001908152602001600020600082825461159d91906149cc565b925050819055507f000000000000000000000000000000000000000000000000000000000000000073ffffffffffffffffffffffffffffffffffffffff1663576ff163827f00000000000000000000000000000000000000000000000000000000000000006040518363ffffffff1660e01b815260040161161f929190614a00565b600060405180830381600087803b15801561163957600080fd5b505af115801561164d573d6000803e3d6000fd5b505050507f000000000000000000000000000000000000000000000000000000000000000073ffffffffffffffffffffffffffffffffffffffff1663b8c2e4f3827f00000000000000000000000000000000000000000000000000000000000000007f00000000000000000000000000000000000000000000000000000000000000006040518463ffffffff1660e01b81526004016116ee93929190614a29565b600060405180830381600087803b15801561170857600080fd5b505af115801561171c573d6000803e3d6000fd5b505050507f000000000000000000000000000000000000000000000000000000000000000073ffffffffffffffffffffffffffffffffffffffff16637db79a3d827f00000000000000000000000000000000000000000000000000000000000000007f000000000000000000000000000000000000000000000000000000000000000060046040518563ffffffff1660e01b81526004016117c09493929190614a60565b600060405180830381600087803b1580156117da57600080fd5b505af11580156117ee573d6000803e3d6000fd5b505050507f000000000000000000000000000000000000000000000000000000000000000073ffffffffffffffffffffffffffffffffffffffff1663b0b4dfaa827f000000000000000000000000000000000000000000000000000000000000000060046040518463ffffffff1660e01b815260040161187093929190614aa5565b600060405180830381600087803b15801561188a57600080fd5b505af115801561189e573d6000803e3d6000fd5b505050507f000000000000000000000000000000000000000000000000000000000000000073ffffffffffffffffffffffffffffffffffffffff1663f242432a303386866040518563ffffffff1660e01b81526004016119019493929190614b13565b600060405180830381600087803b15801561191b57600080fd5b505af115801561192f573d6000803e3d6000fd5b505050507f000000000000000000000000000000000000000000000000000000000000000073ffffffffffffffffffffffffffffffffffffffff166323b872dd3330846040518463ffffffff1660e01b815260040161199093929190614b6b565b6020604051808303816000875af11580156119af573d6000803e3d6000fd5b505050506040513d601f19601f820116820180604052508101906119d391906146db565b50505050565b6000807f000000000000000000000000000000000000000000000000000000000000000073ffffffffffffffffffffffffffffffffffffffff1663feaf968c6040518163ffffffff1660e01b815260040160a060405180830381865afa158015611a47573d6000803e3d6000fd5b505050506040513d601f19601f82011682018060405250810190611a6b91906147d6565b5050509150508091505090565b6000670de0b6b3a76400007f000000000000000000000000000000000000000000000000000000000000000073ffffffffffffffffffffffffffffffffffffffff16634dd9c9c7846040518263ffffffff1660e01b8152600401611adc9190613c5a565b61014060405180830381865afa158015611afa573d6000803e3d6000fd5b505050506040513d601f19601f82011682018060405250810190611b1e919061445e565b6101200151611b2c84610b6d565b611b3691906144ef565b611b409190614737565b611b4983610b6d565b611b5391906149cc565b9050919050565b6000600b600083815260200190815260200160002060009054906101000a900460ff169050919050565b60007f000000000000000000000000000000000000000000000000000000000000000073ffffffffffffffffffffffffffffffffffffffff166370a08231306040518263ffffffff1660e01b8152600401611bdf9190613cb6565b602060405180830381865afa158015611bfc573d6000803e3d6000fd5b505050506040513d601f19601f82011682018060405250810190611c209190614ba2565b905090565b807f000000000000000000000000000000000000000000000000000000000000000073ffffffffffffffffffffffffffffffffffffffff1662fdd58e33856040518363ffffffff1660e01b8152600401611c80929190614686565b602060405180830381865afa158015611c9d573d6000803e3d6000fd5b505050506040513d601f19601f82011682018060405250810190611cc19190614ba2565b1015611d02576040517f08c379a0000000000000000000000000000000000000000000000000000000008152600401611cf9906149ac565b60405180910390fd5b611d0b82611b5a565b80611d1b5750611d1a82610cb3565b5b80611d2b5750611d2a82610c50565b5b611d6a576040517f08c379a0000000000000000000000000000000000000000000000000000000008152600401611d6190614c1b565b60405180910390fd5b6000806000611d7885611b5a565b15611d9c576008600086815260200190815260200160002054915060009050611e9e565b611da585610cb3565b15611e54577f000000000000000000000000000000000000000000000000000000000000000073ffffffffffffffffffffffffffffffffffffffff16634dd9c9c7866040518263ffffffff1660e01b8152600401611e039190613c5a565b61014060405180830381865afa158015611e21573d6000803e3d6000fd5b505050506040513d601f19601f82011682018060405250810190611e45919061445e565b60000151925060019050611e9d565b611e5d85610c50565b15611e9757600660008681526020019081526020016000205492506007600086815260200190815260200160002054915060029050611e9c565b600080fd5b5b5b7f000000000000000000000000000000000000000000000000000000000000000073ffffffffffffffffffffffffffffffffffffffff1663f5298aca3387876040518463ffffffff1660e01b8152600401611efb93929190614c3b565b600060405180830381600087803b158015611f1557600080fd5b505af1158015611f29573d6000803e3d6000fd5b5050505083600360008781526020019081526020016000206000828254611f5091906149cc565b9250508190555060008103612069577f000000000000000000000000000000000000000000000000000000000000000073ffffffffffffffffffffffffffffffffffffffff1663a9059cbb33600860008981526020019081526020016000205487611fbb91906144ef565b6040518363ffffffff1660e01b8152600401611fd8929190614686565b6020604051808303816000875af1158015611ff7573d6000803e3d6000fd5b505050506040513d601f19601f8201168201806040525081019061201b91906146db565b5060086000868152602001908152602001600020548461203b91906144ef565b60056000878152602001908152602001600020600082825461205d91906144bb565b925050819055506124af565b60018103612291577f000000000000000000000000000000000000000000000000000000000000000073ffffffffffffffffffffffffffffffffffffffff1663a9059cbb337f000000000000000000000000000000000000000000000000000000000000000073ffffffffffffffffffffffffffffffffffffffff16634dd9c9c7896040518263ffffffff1660e01b81526004016121079190613c5a565b61014060405180830381865afa158015612125573d6000803e3d6000fd5b505050506040513d601f19601f82011682018060405250810190612149919061445e565b600001518761215891906144ef565b6040518363ffffffff1660e01b8152600401612175929190614686565b6020604051808303816000875af1158015612194573d6000803e3d6000fd5b505050506040513d601f19601f820116820180604052508101906121b891906146db565b507f000000000000000000000000000000000000000000000000000000000000000073ffffffffffffffffffffffffffffffffffffffff16634dd9c9c7866040518263ffffffff1660e01b81526004016122129190613c5a565b61014060405180830381865afa158015612230573d6000803e3d6000fd5b505050506040513d601f19601f82011682018060405250810190612254919061445e565b600001518461226391906144ef565b60046000878152602001908152602001600020600082825461228591906144bb565b925050819055506124ae565b600281036124a8577f000000000000000000000000000000000000000000000000000000000000000073ffffffffffffffffffffffffffffffffffffffff1663a9059cbb336006600089815260200190815260200160002054876122f591906144ef565b6040518363ffffffff1660e01b8152600401612312929190614686565b6020604051808303816000875af1158015612331573d6000803e3d6000fd5b505050506040513d601f19601f8201168201806040525081019061235591906146db565b507f000000000000000000000000000000000000000000000000000000000000000073ffffffffffffffffffffffffffffffffffffffff1663a9059cbb336007600089815260200190815260200160002054876123b291906144ef565b6040518363ffffffff1660e01b81526004016123cf929190614686565b6020604051808303816000875af11580156123ee573d6000803e3d6000fd5b505050506040513d601f19601f8201168201806040525081019061241291906146db565b5060066000868152602001908152602001600020548461243291906144ef565b60046000878152602001908152602001600020600082825461245491906144bb565b9250508190555060076000868152602001908152602001600020548461247a91906144ef565b60056000878152602001908152602001600020600082825461249c91906144bb565b925050819055506124ad565b600080fd5b5b5b847fa5851b0172fdafd3dafe0e52ce051747548a4c642a2f22793c01faf228e130623386846040516124e393929190614c3b565b60405180910390a25050505050565b60007f000000000000000000000000000000000000000000000000000000000000000073ffffffffffffffffffffffffffffffffffffffff16634dd9c9c7836040518263ffffffff1660e01b815260040161254d9190613c5a565b61014060405180830381865afa15801561256b573d6000803e3d6000fd5b505050506040513d601f19601f8201168201806040525081019061258f919061445e565b608001514211159050919050565b6000427f000000000000000000000000000000000000000000000000000000000000000073ffffffffffffffffffffffffffffffffffffffff16634dd9c9c7846040518263ffffffff1660e01b81526004016125f99190613c5a565b61014060405180830381865afa158015612617573d6000803e3d6000fd5b505050506040513d601f19601f8201168201806040525081019061263b919061445e565b6080015161264991906144bb565b9050919050565b60007f0000000000000000000000000000000000000000000000000000000000000000905090565b60007f000000000000000000000000000000000000000000000000000000000000000073ffffffffffffffffffffffffffffffffffffffff16634dd9c9c7836040518263ffffffff1660e01b81526004016126d39190613c5a565b61014060405180830381865afa1580156126f1573d6000803e3d6000fd5b505050506040513d601f19601f82011682018060405250810190612715919061445e565b6060015142119050919050565b600060026000838152602001908152602001600020547f000000000000000000000000000000000000000000000000000000000000000073ffffffffffffffffffffffffffffffffffffffff16634dd9c9c7846040518263ffffffff1660e01b81526004016127919190613c5a565b61014060405180830381865afa1580156127af573d6000803e3d6000fd5b505050506040513d601f19601f820116820180604052508101906127d3919061445e565b60e001516127e191906144bb565b9050919050565b6127f181611b5a565b158015612804575061280281610c50565b155b80156128155750612814816113e2565b5b612854576040517f08c379a000000000000000000000000000000000000000000000000000000000815260040161284b90614cbe565b60405180910390fd5b60006107d060046000848152602001908152602001600020546128779190614737565b905060006107d0600560008581526020019081526020016000205461289c9190614737565b905060008260046000868152602001908152602001600020546128bf91906144bb565b905060008260056000878152602001908152602001600020546128e291906144bb565b90506002600086815260200190815260200160002054826129039190614737565b60066000878152602001908152602001600020819055506002600086815260200190815260200160002054816129399190614737565b60076000878152602001908152602001600020819055508360046000878152602001908152602001600020600082825461297391906144bb565b925050819055508260056000878152602001908152602001600020600082825461299d91906144bb565b925050819055506001600a600087815260200190815260200160002060006101000a81548160ff0219169083151502179055507f000000000000000000000000000000000000000000000000000000000000000073ffffffffffffffffffffffffffffffffffffffff1663dae382d67f00000000000000000000000000000000000000000000000000000000000000006040518263ffffffff1660e01b8152600401612a499190613cb6565b600060405180830381600087803b158015612a6357600080fd5b505af1158015612a77573d6000803e3d6000fd5b505050507f000000000000000000000000000000000000000000000000000000000000000073ffffffffffffffffffffffffffffffffffffffff1663d050a7c87f000000000000000000000000000000000000000000000000000000000000000060046040518363ffffffff1660e01b8152600401612af7929190614686565b600060405180830381600087803b158015612b1157600080fd5b505af1158015612b25573d6000803e3d6000fd5b505050507f000000000000000000000000000000000000000000000000000000000000000073ffffffffffffffffffffffffffffffffffffffff1663a9059cbb33866040518363ffffffff1660e01b8152600401612b84929190614686565b6020604051808303816000875af1158015612ba3573d6000803e3d6000fd5b505050506040513d601f19601f82011682018060405250810190612bc791906146db565b507f000000000000000000000000000000000000000000000000000000000000000073ffffffffffffffffffffffffffffffffffffffff1663a9059cbb33856040518363ffffffff1660e01b8152600401612c23929190614686565b6020604051808303816000875af1158015612c42573d6000803e3d6000fd5b505050506040513d601f19601f82011682018060405250810190612c6691906146db565b50847fcd2c25949e23ea2647ca2c5809b025ee3aca0d82cfcb1d22a715398f5cf8db8e612c9287611a78565b8385604051612ca3939291906148bd565b60405180910390a25050505050565b600060056000838152602001908152602001600020549050919050565b60007f000000000000000000000000000000000000000000000000000000000000000073ffffffffffffffffffffffffffffffffffffffff16634dd9c9c7836040518263ffffffff1660e01b8152600401612d2a9190613c5a565b61014060405180830381865afa158015612d48573d6000803e3d6000fd5b505050506040513d601f19601f82011682018060405250810190612d6c919061445e565b61012001519050919050565b60006009600083815260200190815260200160002060009054906101000a900460ff169050919050565b600063bc197c8160e01b905095945050505050565b612dc081610c50565b158015612dd35750612dd181611b5a565b155b8015612de45750612de381610c7a565b5b612e23576040517f08c379a0000000000000000000000000000000000000000000000000000000008152600401612e1a90614d2a565b60405180910390fd5b6000612e2e82611a78565b905060006103e882612e409190614737565b905060008183612e5091906144bb565b9050600260008581526020019081526020016000205481612e719190614737565b6008600086815260200190815260200160002081905550600060026000868152602001908152602001600020546008600087815260200190815260200160002054612ebc91906144ef565b82612ec791906144bb565b905060008184612ed791906149cc565b905080600560008881526020019081526020016000206000828254612efc91906144bb565b925050819055506001600b600088815260200190815260200160002060006101000a81548160ff0219169083151502179055507f000000000000000000000000000000000000000000000000000000000000000073ffffffffffffffffffffffffffffffffffffffff1663a9059cbb33836040518363ffffffff1660e01b8152600401612f8a929190614686565b6020604051808303816000875af1158015612fa9573d6000803e3d6000fd5b505050506040513d601f19601f82011682018060405250810190612fcd91906146db565b50857fac2eeaf45d1b75aed6b3285cda3efb3c382cce02ba313558bbb90be57f8843e48685604051613000929190614d4a565b60405180910390a2505050505050565b6000427f000000000000000000000000000000000000000000000000000000000000000073ffffffffffffffffffffffffffffffffffffffff16634dd9c9c7846040518263ffffffff1660e01b815260040161306c9190613c5a565b61014060405180830381865afa15801561308a573d6000803e3d6000fd5b505050506040513d601f19601f820116820180604052508101906130ae919061445e565b606001516130bc91906144bb565b9050919050565b7f000000000000000000000000000000000000000000000000000000000000000073ffffffffffffffffffffffffffffffffffffffff163373ffffffffffffffffffffffffffffffffffffffff1614613151576040517f08c379a00000000000000000000000000000000000000000000000000000000081526004016131489061458e565b60405180910390fd5b61315a82610c50565b8061316a5750613169826113e2565b5b15801561317d575061317b82611b5a565b155b6131bc576040517f08c379a00000000000000000000000000000000000000000000000000000000081526004016131b390614dbf565b60405180910390fd5b806005600084815260200190815260200160002060008282546131df91906149cc565b925050819055507f000000000000000000000000000000000000000000000000000000000000000073ffffffffffffffffffffffffffffffffffffffff166323b872dd3330846040518463ffffffff1660e01b815260040161324393929190614b6b565b6020604051808303816000875af1158015613262573d6000803e3d6000fd5b505050506040513d601f19601f8201168201806040525081019061328691906146db565b505050565b7f000000000000000000000000000000000000000000000000000000000000000073ffffffffffffffffffffffffffffffffffffffff163373ffffffffffffffffffffffffffffffffffffffff1614613319576040517f08c379a00000000000000000000000000000000000000000000000000000000081526004016133109061458e565b60405180910390fd5b61332281611b5a565b8015613333575061333281610f36565b5b613372576040517f08c379a0000000000000000000000000000000000000000000000000000000008152600401613369906145fa565b60405180910390fd5b60006005600083815260200190815260200160002054116133c8576040517f08c379a00000000000000000000000000000000000000000000000000000000081526004016133bf90614e2b565b60405180910390fd5b600060056000838152602001908152602001600020819055507f000000000000000000000000000000000000000000000000000000000000000073ffffffffffffffffffffffffffffffffffffffff1663a9059cbb3360056000858152602001908152602001600020546040518363ffffffff1660e01b815260040161344f929190614686565b6020604051808303816000875af115801561346e573d6000803e3d6000fd5b505050506040513d601f19601f8201168201806040525081019061349291906146db565b5050565b60007f000000000000000000000000000000000000000000000000000000000000000073ffffffffffffffffffffffffffffffffffffffff166370a08231306040518263ffffffff1660e01b81526004016134f19190613cb6565b602060405180830381865afa15801561350e573d6000803e3d6000fd5b505050506040513d601f19601f820116820180604052508101906135329190614ba2565b905090565b600063f23a6e6160e01b905095945050505050565b60007f000000000000000000000000000000000000000000000000000000000000000073ffffffffffffffffffffffffffffffffffffffff163373ffffffffffffffffffffffffffffffffffffffff16146135dc576040517f08c379a00000000000000000000000000000000000000000000000000000000081526004016135d39061458e565b60405180910390fd5b87871061361e576040517f08c379a000000000000000000000000000000000000000000000000000000000815260040161361590614e97565b60405180910390fd5b60b4841015613662576040517f08c379a000000000000000000000000000000000000000000000000000000000815260040161365990614f03565b60405180910390fd5b60078311156136a6576040517f08c379a000000000000000000000000000000000000000000000000000000000815260040161369d90614f6f565b60405180910390fd5b6136b06000613b03565b60006136ba610f06565b90506000633b9aca0088836136cf91906144ef565b6136d99190614737565b905060006040518061014001604052808a8152602001838152602001428152602001620151808961370a91906144ef565b4261371591906149cc565b8152602001620151808861372991906144ef565b4261373491906149cc565b81526020018781526020018881526020018c81526020018b8152602001868152509050600060405180608001604052808a81526020017f000000000000000000000000000000000000000000000000000000000000000073ffffffffffffffffffffffffffffffffffffffff1681526020017f000000000000000000000000000000000000000000000000000000000000000073ffffffffffffffffffffffffffffffffffffffff1681526020013373ffffffffffffffffffffffffffffffffffffffff1681525090507f000000000000000000000000000000000000000000000000000000000000000073ffffffffffffffffffffffffffffffffffffffff1663455ceace308e85856040518563ffffffff1660e01b815260040161385d949392919061514c565b6020604051808303816000875af115801561387c573d6000803e3d6000fd5b505050506040513d601f19601f820116820180604052508101906138a09190614ba2565b9450600185908060018154018082558091505060019003906000526020600020016000909190919091505560016009600087815260200190815260200160002060006101000a81548160ff0219169083151502179055507f000000000000000000000000000000000000000000000000000000000000000073ffffffffffffffffffffffffffffffffffffffff1663b54cb16560046040518263ffffffff1660e01b81526004016139519190613c5a565b600060405180830381600087803b15801561396b57600080fd5b505af115801561397f573d6000803e3d6000fd5b505050507f000000000000000000000000000000000000000000000000000000000000000073ffffffffffffffffffffffffffffffffffffffff1663bea75cf47f000000000000000000000000000000000000000000000000000000000000000060046040518363ffffffff1660e01b81526004016139ff929190614686565b600060405180830381600087803b158015613a1957600080fd5b505af1158015613a2d573d6000803e3d6000fd5b50505050847f3a10e10c16b4416f991fa4c931bcd0520986a7357f6ba95c4d92f806a4c1ebf38d8c868a620151808e613a6691906144ef565b42613a7191906149cc565b604051613a8295949392919061519a565b60405180910390a250505050979650505050505050565b60007f01ffc9a7000000000000000000000000000000000000000000000000000000007bffffffffffffffffffffffffffffffffffffffffffffffffffffffff1916827bffffffffffffffffffffffffffffffffffffffffffffffffffffffff1916149050919050565b6001816000016000828254019250508190555050565b6000604051905090565b600080fd5b600080fd5b60007fffffffff0000000000000000000000000000000000000000000000000000000082169050919050565b613b6281613b2d565b8114613b6d57600080fd5b50565b600081359050613b7f81613b59565b92915050565b600060208284031215613b9b57613b9a613b23565b5b6000613ba984828501613b70565b91505092915050565b60008115159050919050565b613bc781613bb2565b82525050565b6000602082019050613be26000830184613bbe565b92915050565b6000819050919050565b613bfb81613be8565b8114613c0657600080fd5b50565b600081359050613c1881613bf2565b92915050565b600060208284031215613c3457613c33613b23565b5b6000613c4284828501613c09565b91505092915050565b613c5481613be8565b82525050565b6000602082019050613c6f6000830184613c4b565b92915050565b600073ffffffffffffffffffffffffffffffffffffffff82169050919050565b6000613ca082613c75565b9050919050565b613cb081613c95565b82525050565b6000602082019050613ccb6000830184613ca7565b92915050565b600081519050919050565b600082825260208201905092915050565b6000819050602082019050919050565b613d0681613be8565b82525050565b6000613d188383613cfd565b60208301905092915050565b6000602082019050919050565b6000613d3c82613cd1565b613d468185613cdc565b9350613d5183613ced565b8060005b83811015613d82578151613d698882613d0c565b9750613d7483613d24565b925050600181019050613d55565b5085935050505092915050565b60006020820190508181036000830152613da98184613d31565b905092915050565b60008060408385031215613dc857613dc7613b23565b5b6000613dd685828601613c09565b9250506020613de785828601613c09565b9150509250929050565b6000819050919050565b613e0481613df1565b82525050565b6000602082019050613e1f6000830184613dfb565b92915050565b613e2e81613c95565b8114613e3957600080fd5b50565b600081359050613e4b81613e25565b92915050565b600080fd5b6000601f19601f8301169050919050565b7f4e487b7100000000000000000000000000000000000000000000000000000000600052604160045260246000fd5b613e9f82613e56565b810181811067ffffffffffffffff82111715613ebe57613ebd613e67565b5b80604052505050565b6000613ed1613b19565b9050613edd8282613e96565b919050565b600067ffffffffffffffff821115613efd57613efc613e67565b5b602082029050602081019050919050565b600080fd5b6000613f26613f2184613ee2565b613ec7565b90508083825260208201905060208402830185811115613f4957613f48613f0e565b5b835b81811015613f725780613f5e8882613c09565b845260208401935050602081019050613f4b565b5050509392505050565b600082601f830112613f9157613f90613e51565b5b8135613fa1848260208601613f13565b91505092915050565b600080fd5b600067ffffffffffffffff821115613fca57613fc9613e67565b5b613fd382613e56565b9050602081019050919050565b82818337600083830152505050565b6000614002613ffd84613faf565b613ec7565b90508281526020810184848401111561401e5761401d613faa565b5b614029848285613fe0565b509392505050565b600082601f83011261404657614045613e51565b5b8135614056848260208601613fef565b91505092915050565b600080600080600060a0868803121561407b5761407a613b23565b5b600061408988828901613e3c565b955050602061409a88828901613e3c565b945050604086013567ffffffffffffffff8111156140bb576140ba613b28565b5b6140c788828901613f7c565b935050606086013567ffffffffffffffff8111156140e8576140e7613b28565b5b6140f488828901613f7c565b925050608086013567ffffffffffffffff81111561411557614114613b28565b5b61412188828901614031565b9150509295509295909350565b61413781613b2d565b82525050565b6000602082019050614152600083018461412e565b92915050565b600080600080600060a0868803121561417457614173613b23565b5b600061418288828901613e3c565b955050602061419388828901613e3c565b94505060406141a488828901613c09565b93505060606141b588828901613c09565b925050608086013567ffffffffffffffff8111156141d6576141d5613b28565b5b6141e288828901614031565b9150509295509295909350565b600067ffffffffffffffff82111561420a57614209613e67565b5b61421382613e56565b9050602081019050919050565b600061423361422e846141ef565b613ec7565b90508281526020810184848401111561424f5761424e613faa565b5b61425a848285613fe0565b509392505050565b600082601f83011261427757614276613e51565b5b8135614287848260208601614220565b91505092915050565b600080600080600080600060e0888a0312156142af576142ae613b23565b5b60006142bd8a828b01613c09565b97505060206142ce8a828b01613c09565b96505060406142df8a828b01613c09565b955050606088013567ffffffffffffffff811115614300576142ff613b28565b5b61430c8a828b01614262565b945050608061431d8a828b01613c09565b93505060a061432e8a828b01613c09565b92505060c061433f8a828b01613c09565b91505092959891949750929550565b600080fd5b60008151905061436281613bf2565b92915050565b6000610140828403121561437f5761437e61434e565b5b61438a610140613ec7565b9050600061439a84828501614353565b60008301525060206143ae84828501614353565b60208301525060406143c284828501614353565b60408301525060606143d684828501614353565b60608301525060806143ea84828501614353565b60808301525060a06143fe84828501614353565b60a08301525060c061441284828501614353565b60c08301525060e061442684828501614353565b60e08301525061010061443b84828501614353565b6101008301525061012061445184828501614353565b6101208301525092915050565b6000610140828403121561447557614474613b23565b5b600061448384828501614368565b91505092915050565b7f4e487b7100000000000000000000000000000000000000000000000000000000600052601160045260246000fd5b60006144c682613be8565b91506144d183613be8565b92508282039050818111156144e9576144e861448c565b5b92915050565b60006144fa82613be8565b915061450583613be8565b925082820261451381613be8565b9150828204841483151761452a5761452961448c565b5b5092915050565b600082825260208201905092915050565b7f4e544f0000000000000000000000000000000000000000000000000000000000600082015250565b6000614578600383614531565b915061458382614542565b602082019050919050565b600060208201905081810360008301526145a78161456b565b9050919050565b7f574e410000000000000000000000000000000000000000000000000000000000600082015250565b60006145e4600383614531565b91506145ef826145ae565b602082019050919050565b60006020820190508181036000830152614613816145d7565b9050919050565b7f5741450000000000000000000000000000000000000000000000000000000000600082015250565b6000614650600383614531565b915061465b8261461a565b602082019050919050565b6000602082019050818103600083015261467f81614643565b9050919050565b600060408201905061469b6000830185613ca7565b6146a86020830184613c4b565b9392505050565b6146b881613bb2565b81146146c357600080fd5b50565b6000815190506146d5816146af565b92915050565b6000602082840312156146f1576146f0613b23565b5b60006146ff848285016146c6565b91505092915050565b7f4e487b7100000000000000000000000000000000000000000000000000000000600052601260045260246000fd5b600061474282613be8565b915061474d83613be8565b92508261475d5761475c614708565b5b828204905092915050565b600069ffffffffffffffffffff82169050919050565b61478781614768565b811461479257600080fd5b50565b6000815190506147a48161477e565b92915050565b6147b381613df1565b81146147be57600080fd5b50565b6000815190506147d0816147aa565b92915050565b600080600080600060a086880312156147f2576147f1613b23565b5b600061480088828901614795565b9550506020614811888289016147c1565b945050604061482288828901614353565b935050606061483388828901614353565b925050608061484488828901614795565b9150509295509295909350565b7f504d444e41000000000000000000000000000000000000000000000000000000600082015250565b6000614887600583614531565b915061489282614851565b602082019050919050565b600060208201905081810360008301526148b68161487a565b9050919050565b60006060820190506148d26000830186613c4b565b6148df6020830185613c4b565b6148ec6040830184613c4b565b949350505050565b7f4942000000000000000000000000000000000000000000000000000000000000600082015250565b600061492a600283614531565b9150614935826148f4565b602082019050919050565b600060208201905081810360008301526149598161491d565b9050919050565b7f4951000000000000000000000000000000000000000000000000000000000000600082015250565b6000614996600283614531565b91506149a182614960565b602082019050919050565b600060208201905081810360008301526149c581614989565b9050919050565b60006149d782613be8565b91506149e283613be8565b92508282019050808211156149fa576149f961448c565b5b92915050565b6000604082019050614a156000830185613c4b565b614a226020830184613ca7565b9392505050565b6000606082019050614a3e6000830186613c4b565b614a4b6020830185613ca7565b614a586040830184613ca7565b949350505050565b6000608082019050614a756000830187613c4b565b614a826020830186613ca7565b614a8f6040830185613ca7565b614a9c6060830184613c4b565b95945050505050565b6000606082019050614aba6000830186613c4b565b614ac76020830185613ca7565b614ad46040830184613c4b565b949350505050565b600082825260208201905092915050565b50565b6000614afd600083614adc565b9150614b0882614aed565b600082019050919050565b600060a082019050614b286000830187613ca7565b614b356020830186613ca7565b614b426040830185613c4b565b614b4f6060830184613c4b565b8181036080830152614b6081614af0565b905095945050505050565b6000606082019050614b806000830186613ca7565b614b8d6020830185613ca7565b614b9a6040830184613c4b565b949350505050565b600060208284031215614bb857614bb7613b23565b5b6000614bc684828501614353565b91505092915050565b7f524e410000000000000000000000000000000000000000000000000000000000600082015250565b6000614c05600383614531565b9150614c1082614bcf565b602082019050919050565b60006020820190508181036000830152614c3481614bf8565b9050919050565b6000606082019050614c506000830186613ca7565b614c5d6020830185613c4b565b614c6a6040830184613c4b565b949350505050565b7f4d41444e41000000000000000000000000000000000000000000000000000000600082015250565b6000614ca8600583614531565b9150614cb382614c72565b602082019050919050565b60006020820190508181036000830152614cd781614c9b565b9050919050565b7f4d41434e41000000000000000000000000000000000000000000000000000000600082015250565b6000614d14600583614531565b9150614d1f82614cde565b602082019050919050565b60006020820190508181036000830152614d4381614d07565b9050919050565b6000604082019050614d5f6000830185613c4b565b614d6c6020830184613c4b565b9392505050565b7f444e410000000000000000000000000000000000000000000000000000000000600082015250565b6000614da9600383614531565b9150614db482614d73565b602082019050919050565b60006020820190508181036000830152614dd881614d9c565b9050919050565b7f5746450000000000000000000000000000000000000000000000000000000000600082015250565b6000614e15600383614531565b9150614e2082614ddf565b602082019050919050565b60006020820190508181036000830152614e4481614e08565b9050919050565b7f4d50514754425100000000000000000000000000000000000000000000000000600082015250565b6000614e81600783614531565b9150614e8c82614e4b565b602082019050919050565b60006020820190508181036000830152614eb081614e74565b9050919050565b7f4442364d00000000000000000000000000000000000000000000000000000000600082015250565b6000614eed600483614531565b9150614ef882614eb7565b602082019050919050565b60006020820190508181036000830152614f1c81614ee0565b9050919050565b7f4144413744000000000000000000000000000000000000000000000000000000600082015250565b6000614f59600583614531565b9150614f6482614f23565b602082019050919050565b60006020820190508181036000830152614f8881614f4c565b9050919050565b61014082016000820151614fa66000850182613cfd565b506020820151614fb96020850182613cfd565b506040820151614fcc6040850182613cfd565b506060820151614fdf6060850182613cfd565b506080820151614ff26080850182613cfd565b5060a082015161500560a0850182613cfd565b5060c082015161501860c0850182613cfd565b5060e082015161502b60e0850182613cfd565b50610100820151615040610100850182613cfd565b50610120820151615055610120850182613cfd565b50505050565b600081519050919050565b600082825260208201905092915050565b60005b8381101561509557808201518184015260208101905061507a565b60008484015250505050565b60006150ac8261505b565b6150b68185615066565b93506150c6818560208601615077565b6150cf81613e56565b840191505092915050565b6150e381613c95565b82525050565b6000608083016000830151848203600086015261510682826150a1565b915050602083015161511b60208601826150da565b50604083015161512e60408601826150da565b50606083015161514160608601826150da565b508091505092915050565b60006101a0820190506151626000830187613ca7565b61516f6020830186613c4b565b61517c6040830185614f8f565b81810361018083015261518f81846150e9565b905095945050505050565b600060a0820190506151af6000830188613c4b565b6151bc6020830187613c4b565b6151c96040830186613c4b565b6151d66060830185613c4b565b6151e36080830184613c4b565b969550505050505056fea2646970667358221220dc95c36d6f267819879c57bf1d78b64148453468870507c62890616fa97efc5f64736f6c63430008110033",
  "linkReferences": {},
  "deployedLinkReferences": {}
}