{
  "_format": "hh-sol-artifact-1",
  "contractName": "DualCurrencyBondPeriphery",
  "sourceName": "contracts/DualCurrencyBondPeriphery.sol",
  "abi": [
    {
      "inputs": [
        {
          "internalType": "address",
          "name": "sbt",
          "type": "address"
        }
      ],
      "stateMutability": "nonpayable",
      "type": "constructor"
    },
    {
      "anonymous": false,
      "inputs": [
        {
          "indexed": true,
          "internalType": "address",
          "name": "owner",
          "type": "address"
        },
        {
          "indexed": false,
          "internalType": "address",
          "name": "tokenA",
          "type": "address"
        },
        {
          "indexed": false,
          "internalType": "address",
          "name": "tokenB",
          "type": "address"
        }
      ],
      "name": "DualCurrencyBondFactoryInitialized",
      "type": "event"
    },
    {
      "inputs": [
        {
          "internalType": "string",
          "name": "uri",
          "type": "string"
        },
        {
          "internalType": "address",
          "name": "tokenA",
          "type": "address"
        },
        {
          "internalType": "address",
          "name": "tokenB",
          "type": "address"
        }
      ],
      "name": "createDualCurrencyBondFactory",
      "outputs": [
        {
          "internalType": "address",
          "name": "factory",
          "type": "address"
        }
      ],
      "stateMutability": "nonpayable",
      "type": "function"
    },
    {
      "inputs": [
        {
          "internalType": "address",
          "name": "token",
          "type": "address"
        }
      ],
      "name": "deregisterPriceFeed",
      "outputs": [],
      "stateMutability": "nonpayable",
      "type": "function"
    },
    {
      "inputs": [
        {
          "internalType": "address",
          "name": "caller",
          "type": "address"
        }
      ],
      "name": "dualCurrencyBondFactories",
      "outputs": [
        {
          "internalType": "address[]",
          "name": "",
          "type": "address[]"
        }
      ],
      "stateMutability": "view",
      "type": "function"
    },
    {
      "inputs": [
        {
          "internalType": "address",
          "name": "caller",
          "type": "address"
        },
        {
          "internalType": "address",
          "name": "tokenA",
          "type": "address"
        },
        {
          "internalType": "address",
          "name": "tokenB",
          "type": "address"
        }
      ],
      "name": "dualCurrencyBondFactoryIsInitialized",
      "outputs": [
        {
          "internalType": "bool",
          "name": "",
          "type": "bool"
        }
      ],
      "stateMutability": "view",
      "type": "function"
    },
    {
      "inputs": [],
      "name": "entities",
      "outputs": [
        {
          "internalType": "address[]",
          "name": "",
          "type": "address[]"
        }
      ],
      "stateMutability": "view",
      "type": "function"
    },
    {
      "inputs": [
        {
          "internalType": "address",
          "name": "caller",
          "type": "address"
        }
      ],
      "name": "isRegistered",
      "outputs": [
        {
          "internalType": "bool",
          "name": "",
          "type": "bool"
        }
      ],
      "stateMutability": "view",
      "type": "function"
    },
    {
      "inputs": [],
      "name": "owner",
      "outputs": [
        {
          "internalType": "address",
          "name": "",
          "type": "address"
        }
      ],
      "stateMutability": "view",
      "type": "function"
    },
    {
      "inputs": [],
      "name": "register",
      "outputs": [],
      "stateMutability": "nonpayable",
      "type": "function"
    },
    {
      "inputs": [
        {
          "internalType": "address",
          "name": "token",
          "type": "address"
        },
        {
          "internalType": "address",
          "name": "feed",
          "type": "address"
        }
      ],
      "name": "registerPriceFeed",
      "outputs": [],
      "stateMutability": "nonpayable",
      "type": "function"
    }
  ],
  "bytecode": "0x60c06040523480156200001157600080fd5b5060405162008c4b38038062008c4b83398181016040528101906200003791906200044e565b3373ffffffffffffffffffffffffffffffffffffffff1660808173ffffffffffffffffffffffffffffffffffffffff16815250508073ffffffffffffffffffffffffffffffffffffffff1660a08173ffffffffffffffffffffffffffffffffffffffff1681525050730d79df66be487753b02d015fb622ded7f0e9798d600160007321c8a148933e6ca502b47d729a485579c22e8a6973ffffffffffffffffffffffffffffffffffffffff1673ffffffffffffffffffffffffffffffffffffffff16815260200190815260200160002060006101000a81548173ffffffffffffffffffffffffffffffffffffffff021916908373ffffffffffffffffffffffffffffffffffffffff16021790555073ab5c49580294aff77670f839ea425f5b78ab3ae7600160007307865c6e87b9f70255377e024ace6630c1eaa37f73ffffffffffffffffffffffffffffffffffffffff1673ffffffffffffffffffffffffffffffffffffffff16815260200190815260200160002060006101000a81548173ffffffffffffffffffffffffffffffffffffffff021916908373ffffffffffffffffffffffffffffffffffffffff16021790555073d4a33860578de61dbabdc8bfdb98fd742fa7028e6001600073b4fbf271143f4fbf7b91a5ded31805e42b2208d673ffffffffffffffffffffffffffffffffffffffff1673ffffffffffffffffffffffffffffffffffffffff16815260200190815260200160002060006101000a81548173ffffffffffffffffffffffffffffffffffffffff021916908373ffffffffffffffffffffffffffffffffffffffff1602179055507348731cf7e84dc94c5f84577882c14be11a5b74566001600073326c977e6efc84e512bb9c30f76e30c160ed06fb73ffffffffffffffffffffffffffffffffffffffff1673ffffffffffffffffffffffffffffffffffffffff16815260200190815260200160002060006101000a81548173ffffffffffffffffffffffffffffffffffffffff021916908373ffffffffffffffffffffffffffffffffffffffff16021790555073a39434a63a52e749f02807ae27335515ba4b07f760016000739c556b18d2370d4c44f3b3153d340d9abfd8d99573ffffffffffffffffffffffffffffffffffffffff1673ffffffffffffffffffffffffffffffffffffffff16815260200190815260200160002060006101000a81548173ffffffffffffffffffffffffffffffffffffffff021916908373ffffffffffffffffffffffffffffffffffffffff1602179055505062000480565b600080fd5b600073ffffffffffffffffffffffffffffffffffffffff82169050919050565b60006200041682620003e9565b9050919050565b620004288162000409565b81146200043457600080fd5b50565b60008151905062000448816200041d565b92915050565b600060208284031215620004675762000466620003e4565b5b6000620004778482850162000437565b91505092915050565b60805160a051618782620004c9600039600081816102a00152818161038301528181610a3c0152610baf015260008181610e2401528181610f37015261104c01526187826000f3fe60806040523480156200001157600080fd5b5060043610620000a05760003560e01c80635166bc04116200006f5780635166bc04146200013f57806373cef189146200015f5780638da5cb5b146200017f578063c3298dec14620001a1578063c3c5a54714620001d757620000a0565b80631259ba2f14620000a55780631615fd0314620000db5780631aa3a00814620000fd578063310f72ec1462000109575b600080fd5b620000c36004803603810190620000bd91906200137e565b6200020d565b604051620000d291906200140a565b60405180910390f35b620000e5620009aa565b604051620000f49190620014f5565b60405180910390f35b6200010762000a3a565b005b62000127600480360381019062000121919062001519565b62000d50565b60405162000136919062001592565b60405180910390f35b6200015d6004803603810190620001579190620015af565b62000e22565b005b6200017d6004803603810190620001779190620015f6565b62000f35565b005b6200018962001048565b6040516200019891906200140a565b60405180910390f35b620001bf6004803603810190620001b99190620015f6565b62001070565b604051620001ce9190620014f5565b60405180910390f35b620001f56004803603810190620001ef9190620015f6565b6200113f565b60405162000204919062001592565b60405180910390f35b6000600260003373ffffffffffffffffffffffffffffffffffffffff1673ffffffffffffffffffffffffffffffffffffffff16815260200190815260200160002060009054906101000a900460ff166200029e576040517f08c379a0000000000000000000000000000000000000000000000000000000008152600401620002959062001689565b60405180910390fd5b7f000000000000000000000000000000000000000000000000000000000000000073ffffffffffffffffffffffffffffffffffffffff166339f920ab336040518263ffffffff1660e01b8152600401620002f991906200140a565b602060405180830381865afa15801562000317573d6000803e3d6000fd5b505050506040513d601f19601f820116820180604052508101906200033d9190620016dc565b6200037f576040517f08c379a000000000000000000000000000000000000000000000000000000000815260040162000376906200175e565b60405180910390fd5b60037f000000000000000000000000000000000000000000000000000000000000000073ffffffffffffffffffffffffffffffffffffffff1663b7caec87336040518263ffffffff1660e01b8152600401620003dc91906200140a565b602060405180830381865afa158015620003fa573d6000803e3d6000fd5b505050506040513d601f19601f82011682018060405250810190620004209190620017be565b60ff16101562000467576040517f08c379a00000000000000000000000000000000000000000000000000000000081526004016200045e9062001840565b60405180910390fd5b600073ffffffffffffffffffffffffffffffffffffffff16600160008573ffffffffffffffffffffffffffffffffffffffff1673ffffffffffffffffffffffffffffffffffffffff16815260200190815260200160002060009054906101000a900473ffffffffffffffffffffffffffffffffffffffff1673ffffffffffffffffffffffffffffffffffffffff1614158015620005905750600073ffffffffffffffffffffffffffffffffffffffff16600160008473ffffffffffffffffffffffffffffffffffffffff1673ffffffffffffffffffffffffffffffffffffffff16815260200190815260200160002060009054906101000a900473ffffffffffffffffffffffffffffffffffffffff1673ffffffffffffffffffffffffffffffffffffffff1614155b620005d2576040517f08c379a0000000000000000000000000000000000000000000000000000000008152600401620005c990620018b2565b60405180910390fd5b600460003373ffffffffffffffffffffffffffffffffffffffff1673ffffffffffffffffffffffffffffffffffffffff16815260200190815260200160002060008473ffffffffffffffffffffffffffffffffffffffff1673ffffffffffffffffffffffffffffffffffffffff16815260200190815260200160002060008373ffffffffffffffffffffffffffffffffffffffff1673ffffffffffffffffffffffffffffffffffffffff16815260200190815260200160002060009054906101000a900460ff1615620006dc576040517f08c379a0000000000000000000000000000000000000000000000000000000008152600401620006d39062001924565b60405180910390fd5b838383600160008773ffffffffffffffffffffffffffffffffffffffff1673ffffffffffffffffffffffffffffffffffffffff16815260200190815260200160002060009054906101000a900473ffffffffffffffffffffffffffffffffffffffff16600160008773ffffffffffffffffffffffffffffffffffffffff1673ffffffffffffffffffffffffffffffffffffffff16815260200190815260200160002060009054906101000a900473ffffffffffffffffffffffffffffffffffffffff1633604051620007ae9062001195565b620007bf96959493929190620019be565b604051809103906000f080158015620007dc573d6000803e3d6000fd5b509050600360003373ffffffffffffffffffffffffffffffffffffffff1673ffffffffffffffffffffffffffffffffffffffff168152602001908152602001600020819080600181540180825580915050600190039060005260206000200160009091909190916101000a81548173ffffffffffffffffffffffffffffffffffffffff021916908373ffffffffffffffffffffffffffffffffffffffff1602179055506001600460003373ffffffffffffffffffffffffffffffffffffffff1673ffffffffffffffffffffffffffffffffffffffff16815260200190815260200160002060008573ffffffffffffffffffffffffffffffffffffffff1673ffffffffffffffffffffffffffffffffffffffff16815260200190815260200160002060008473ffffffffffffffffffffffffffffffffffffffff1673ffffffffffffffffffffffffffffffffffffffff16815260200190815260200160002060006101000a81548160ff0219169083151502179055503373ffffffffffffffffffffffffffffffffffffffff167f21e8e58c9349a1cd30757f271c2466f1c34414f17db8d9d5e7948ef9947d762484846040516200099b92919062001a32565b60405180910390a29392505050565b6060600080548060200260200160405190810160405280929190818152602001828054801562000a3057602002820191906000526020600020905b8160009054906101000a900473ffffffffffffffffffffffffffffffffffffffff1673ffffffffffffffffffffffffffffffffffffffff1681526020019060010190808311620009e5575b5050505050905090565b7f000000000000000000000000000000000000000000000000000000000000000073ffffffffffffffffffffffffffffffffffffffff166339f920ab336040518263ffffffff1660e01b815260040162000a9591906200140a565b602060405180830381865afa15801562000ab3573d6000803e3d6000fd5b505050506040513d601f19601f8201168201806040525081019062000ad99190620016dc565b62000b1b576040517f08c379a000000000000000000000000000000000000000000000000000000000815260040162000b12906200175e565b60405180910390fd5b600260003373ffffffffffffffffffffffffffffffffffffffff1673ffffffffffffffffffffffffffffffffffffffff16815260200190815260200160002060009054906101000a900460ff161562000bab576040517f08c379a000000000000000000000000000000000000000000000000000000000815260040162000ba29062001aaf565b60405180910390fd5b60037f000000000000000000000000000000000000000000000000000000000000000073ffffffffffffffffffffffffffffffffffffffff1663b7caec87336040518263ffffffff1660e01b815260040162000c0891906200140a565b602060405180830381865afa15801562000c26573d6000803e3d6000fd5b505050506040513d601f19601f8201168201806040525081019062000c4c9190620017be565b60ff16101562000c93576040517f08c379a000000000000000000000000000000000000000000000000000000000815260040162000c8a9062001840565b60405180910390fd5b6001600260003373ffffffffffffffffffffffffffffffffffffffff1673ffffffffffffffffffffffffffffffffffffffff16815260200190815260200160002060006101000a81548160ff0219169083151502179055506000339080600181540180825580915050600190039060005260206000200160009091909190916101000a81548173ffffffffffffffffffffffffffffffffffffffff021916908373ffffffffffffffffffffffffffffffffffffffff160217905550565b6000600460008573ffffffffffffffffffffffffffffffffffffffff1673ffffffffffffffffffffffffffffffffffffffff16815260200190815260200160002060008473ffffffffffffffffffffffffffffffffffffffff1673ffffffffffffffffffffffffffffffffffffffff16815260200190815260200160002060008373ffffffffffffffffffffffffffffffffffffffff1673ffffffffffffffffffffffffffffffffffffffff16815260200190815260200160002060009054906101000a900460ff1690509392505050565b7f000000000000000000000000000000000000000000000000000000000000000073ffffffffffffffffffffffffffffffffffffffff163373ffffffffffffffffffffffffffffffffffffffff161462000eb3576040517f08c379a000000000000000000000000000000000000000000000000000000000815260040162000eaa9062001b21565b60405180910390fd5b80600160008473ffffffffffffffffffffffffffffffffffffffff1673ffffffffffffffffffffffffffffffffffffffff16815260200190815260200160002060006101000a81548173ffffffffffffffffffffffffffffffffffffffff021916908373ffffffffffffffffffffffffffffffffffffffff1602179055505050565b7f000000000000000000000000000000000000000000000000000000000000000073ffffffffffffffffffffffffffffffffffffffff163373ffffffffffffffffffffffffffffffffffffffff161462000fc6576040517f08c379a000000000000000000000000000000000000000000000000000000000815260040162000fbd9062001b21565b60405180910390fd5b6000600160008373ffffffffffffffffffffffffffffffffffffffff1673ffffffffffffffffffffffffffffffffffffffff16815260200190815260200160002060006101000a81548173ffffffffffffffffffffffffffffffffffffffff021916908373ffffffffffffffffffffffffffffffffffffffff16021790555050565b60007f0000000000000000000000000000000000000000000000000000000000000000905090565b6060600360008373ffffffffffffffffffffffffffffffffffffffff1673ffffffffffffffffffffffffffffffffffffffff1681526020019081526020016000208054806020026020016040519081016040528092919081815260200182805480156200113357602002820191906000526020600020905b8160009054906101000a900473ffffffffffffffffffffffffffffffffffffffff1673ffffffffffffffffffffffffffffffffffffffff1681526020019060010190808311620010e8575b50505050509050919050565b6000600260008373ffffffffffffffffffffffffffffffffffffffff1673ffffffffffffffffffffffffffffffffffffffff16815260200190815260200160002060009054906101000a900460ff169050919050565b616c098062001b4483390190565b6000604051905090565b600080fd5b600080fd5b600080fd5b600080fd5b6000601f19601f8301169050919050565b7f4e487b7100000000000000000000000000000000000000000000000000000000600052604160045260246000fd5b6200120c82620011c1565b810181811067ffffffffffffffff821117156200122e576200122d620011d2565b5b80604052505050565b600062001243620011a3565b905062001251828262001201565b919050565b600067ffffffffffffffff821115620012745762001273620011d2565b5b6200127f82620011c1565b9050602081019050919050565b82818337600083830152505050565b6000620012b2620012ac8462001256565b62001237565b905082815260208101848484011115620012d157620012d0620011bc565b5b620012de8482856200128c565b509392505050565b600082601f830112620012fe57620012fd620011b7565b5b8135620013108482602086016200129b565b91505092915050565b600073ffffffffffffffffffffffffffffffffffffffff82169050919050565b6000620013468262001319565b9050919050565b620013588162001339565b81146200136457600080fd5b50565b60008135905062001378816200134d565b92915050565b6000806000606084860312156200139a5762001399620011ad565b5b600084013567ffffffffffffffff811115620013bb57620013ba620011b2565b5b620013c986828701620012e6565b9350506020620013dc8682870162001367565b9250506040620013ef8682870162001367565b9150509250925092565b620014048162001339565b82525050565b6000602082019050620014216000830184620013f9565b92915050565b600081519050919050565b600082825260208201905092915050565b6000819050602082019050919050565b6200145e8162001339565b82525050565b600062001472838362001453565b60208301905092915050565b6000602082019050919050565b6000620014988262001427565b620014a4818562001432565b9350620014b18362001443565b8060005b83811015620014e8578151620014cc888262001464565b9750620014d9836200147e565b925050600181019050620014b5565b5085935050505092915050565b600060208201905081810360008301526200151181846200148b565b905092915050565b600080600060608486031215620015355762001534620011ad565b5b6000620015458682870162001367565b9350506020620015588682870162001367565b92505060406200156b8682870162001367565b9150509250925092565b60008115159050919050565b6200158c8162001575565b82525050565b6000602082019050620015a9600083018462001581565b92915050565b60008060408385031215620015c957620015c8620011ad565b5b6000620015d98582860162001367565b9250506020620015ec8582860162001367565b9150509250929050565b6000602082840312156200160f576200160e620011ad565b5b60006200161f8482850162001367565b91505092915050565b600082825260208201905092915050565b7f4e52000000000000000000000000000000000000000000000000000000000000600082015250565b60006200167160028362001628565b91506200167e8262001639565b602082019050919050565b60006020820190508181036000830152620016a48162001662565b9050919050565b620016b68162001575565b8114620016c257600080fd5b50565b600081519050620016d681620016ab565b92915050565b600060208284031215620016f557620016f4620011ad565b5b60006200170584828501620016c5565b91505092915050565b7f4e41535400000000000000000000000000000000000000000000000000000000600082015250565b60006200174660048362001628565b915062001753826200170e565b602082019050919050565b60006020820190508181036000830152620017798162001737565b9050919050565b600060ff82169050919050565b620017988162001780565b8114620017a457600080fd5b50565b600081519050620017b8816200178d565b92915050565b600060208284031215620017d757620017d6620011ad565b5b6000620017e784828501620017a7565b91505092915050565b7f4e56415400000000000000000000000000000000000000000000000000000000600082015250565b60006200182860048362001628565b91506200183582620017f0565b602082019050919050565b600060208201905081810360008301526200185b8162001819565b9050919050565b7f4943500000000000000000000000000000000000000000000000000000000000600082015250565b60006200189a60038362001628565b9150620018a78262001862565b602082019050919050565b60006020820190508181036000830152620018cd816200188b565b9050919050565b7f4149000000000000000000000000000000000000000000000000000000000000600082015250565b60006200190c60028362001628565b91506200191982620018d4565b602082019050919050565b600060208201905081810360008301526200193f81620018fd565b9050919050565b600081519050919050565b60005b838110156200197157808201518184015260208101905062001954565b60008484015250505050565b60006200198a8262001946565b62001996818562001628565b9350620019a881856020860162001951565b620019b381620011c1565b840191505092915050565b600060c0820190508181036000830152620019da81896200197d565b9050620019eb6020830188620013f9565b620019fa6040830187620013f9565b62001a096060830186620013f9565b62001a186080830185620013f9565b62001a2760a0830184620013f9565b979650505050505050565b600060408201905062001a496000830185620013f9565b62001a586020830184620013f9565b9392505050565b7f4152000000000000000000000000000000000000000000000000000000000000600082015250565b600062001a9760028362001628565b915062001aa48262001a5f565b602082019050919050565b6000602082019050818103600083015262001aca8162001a88565b9050919050565b7f4e544f0000000000000000000000000000000000000000000000000000000000600082015250565b600062001b0960038362001628565b915062001b168262001ad1565b602082019050919050565b6000602082019050818103600083015262001b3c8162001afa565b905091905056fe61012060405260006003553480156200001757600080fd5b5060405162006c0938038062006c0983398181016040528101906200003d91906200036e565b856200004f816200016160201b60201c565b508073ffffffffffffffffffffffffffffffffffffffff1660c08173ffffffffffffffffffffffffffffffffffffffff16815250508473ffffffffffffffffffffffffffffffffffffffff1660e08173ffffffffffffffffffffffffffffffffffffffff16815250508373ffffffffffffffffffffffffffffffffffffffff166101008173ffffffffffffffffffffffffffffffffffffffff16815250508273ffffffffffffffffffffffffffffffffffffffff1660808173ffffffffffffffffffffffffffffffffffffffff16815250508173ffffffffffffffffffffffffffffffffffffffff1660a08173ffffffffffffffffffffffffffffffffffffffff16815250505050505050506200075b565b806002908162000172919062000674565b5050565b6000604051905090565b600080fd5b600080fd5b600080fd5b600080fd5b6000601f19601f8301169050919050565b7f4e487b7100000000000000000000000000000000000000000000000000000000600052604160045260246000fd5b620001df8262000194565b810181811067ffffffffffffffff82111715620002015762000200620001a5565b5b80604052505050565b60006200021662000176565b9050620002248282620001d4565b919050565b600067ffffffffffffffff821115620002475762000246620001a5565b5b620002528262000194565b9050602081019050919050565b60005b838110156200027f57808201518184015260208101905062000262565b60008484015250505050565b6000620002a26200029c8462000229565b6200020a565b905082815260208101848484011115620002c157620002c06200018f565b5b620002ce8482856200025f565b509392505050565b600082601f830112620002ee57620002ed6200018a565b5b8151620003008482602086016200028b565b91505092915050565b600073ffffffffffffffffffffffffffffffffffffffff82169050919050565b6000620003368262000309565b9050919050565b620003488162000329565b81146200035457600080fd5b50565b60008151905062000368816200033d565b92915050565b60008060008060008060c087890312156200038e576200038d62000180565b5b600087015167ffffffffffffffff811115620003af57620003ae62000185565b5b620003bd89828a01620002d6565b9650506020620003d089828a0162000357565b9550506040620003e389828a0162000357565b9450506060620003f689828a0162000357565b93505060806200040989828a0162000357565b92505060a06200041c89828a0162000357565b9150509295509295509295565b600081519050919050565b7f4e487b7100000000000000000000000000000000000000000000000000000000600052602260045260246000fd5b600060028204905060018216806200047c57607f821691505b60208210810362000492576200049162000434565b5b50919050565b60008190508160005260206000209050919050565b60006020601f8301049050919050565b600082821b905092915050565b600060088302620004fc7fffffffffffffffffffffffffffffffffffffffffffffffffffffffffffffffff82620004bd565b620005088683620004bd565b95508019841693508086168417925050509392505050565b6000819050919050565b6000819050919050565b6000620005556200054f620005498462000520565b6200052a565b62000520565b9050919050565b6000819050919050565b620005718362000534565b6200058962000580826200055c565b848454620004ca565b825550505050565b600090565b620005a062000591565b620005ad81848462000566565b505050565b5b81811015620005d557620005c960008262000596565b600181019050620005b3565b5050565b601f8211156200062457620005ee8162000498565b620005f984620004ad565b8101602085101562000609578190505b620006216200061885620004ad565b830182620005b2565b50505b505050565b600082821c905092915050565b6000620006496000198460080262000629565b1980831691505092915050565b600062000664838362000636565b9150826002028217905092915050565b6200067f8262000429565b67ffffffffffffffff8111156200069b576200069a620001a5565b5b620006a7825462000463565b620006b4828285620005d9565b600060209050601f831160018114620006ec5760008415620006d7578287015190505b620006e3858262000656565b86555062000753565b601f198416620006fc8662000498565b60005b828110156200072657848901518255600182019150602085019450602081019050620006ff565b8683101562000746578489015162000742601f89168262000636565b8355505b6001600288020188555050505b505050505050565b60805160a05160c05160e051610100516163eb6200081e60003960008181611273015281816119e801528181611c2401528181611f0b01528181612422015281816126d601528181612a970152612c92015260008181610d1e015281816110530152818161180101528181611d3601528181611e4e015281816123830152612ddd015260008181610ec801528181611355015281816120ff0152818161297401528181612b3c0152612f34015260006118c70152600061129c01526163eb6000f3fe608060405234801561001057600080fd5b50600436106102ba5760003560e01c8063769d96eb11610182578063aa81106c116100e9578063e2bbb158116100a2578063f0f3d7de1161007c578063f0f3d7de146109e1578063f23a6e61146109ff578063f242432a14610a2f578063fcbc669a14610a4b576102ba565b8063e2bbb15814610979578063e755ddd714610995578063e985e9c5146109b1576102ba565b8063aa81106c14610863578063abac75e114610893578063bc197c81146108c3578063c0a6026c146108f3578063d32fe02e1461090f578063d3b7811b14610949576102ba565b806388bdc0831161013b57806388bdc0831461077d5780638da5cb5b146107ad5780638f0dbf77146107cb578063932a8de0146107fb578063a22cb4651461082b578063a874302214610847576102ba565b8063769d96eb1461069557806377e2a08b146106b35780637a41984b146106e35780637bf24456146107135780637cbc23731461073157806382afd23b1461074d576102ba565b8063441a3e701161022657806364893aaf116101df57806364893aaf146105af5780636567dc4d146105df5780636681b9fd146105fb578063697e8c8c146106195780636ff80d931461064957806370876c9814610679576102ba565b8063441a3e70146104d95780634556e49b146104f55780634e1273f414610513578063549493bb146105435780635f64b55b14610573578063634ef30314610591576102ba565b806314f294931161027857806314f29493146103cd5780632eb2c2d6146103fd5780632f2c6b32146104195780632f3ad61f146104495780633097afb81461047957806339e3af9b146104a9576102ba565b8062fdd58e146102bf57806301ffc9a7146102ef57806308913ce81461031f578063091490201461034f5780630e89341c1461037f5780630fc63d10146103af575b600080fd5b6102d960048036038101906102d49190614308565b610a7b565b6040516102e69190614357565b60405180910390f35b610309600480360381019061030491906143ca565b610b43565b6040516103169190614412565b60405180910390f35b6103396004803603810190610334919061442d565b610c25565b6040516103469190614357565b60405180910390f35b6103696004803603810190610364919061442d565b610c50565b6040516103769190614412565b60405180910390f35b6103996004803603810190610394919061442d565b610c86565b6040516103a691906144ea565b60405180910390f35b6103b7610d1a565b6040516103c4919061451b565b60405180910390f35b6103e760048036038101906103e2919061442d565b610d42565b6040516103f49190614357565b60405180910390f35b61041760048036038101906104129190614733565b610d80565b005b610433600480360381019061042e919061442d565b610e21565b6040516104409190614357565b60405180910390f35b610463600480360381019061045e919061442d565b610e3e565b6040516104709190614412565b60405180910390f35b610493600480360381019061048e919061442d565b610e68565b6040516104a09190614412565b60405180910390f35b6104c360048036038101906104be919061442d565b610ea1565b6040516104d09190614412565b60405180910390f35b6104f360048036038101906104ee9190614802565b610ec6565b005b6104fd6110f4565b60405161050a9190614357565b60405180910390f35b61052d60048036038101906105289190614905565b611124565b60405161053a9190614a3b565b60405180910390f35b61055d6004803603810190610558919061442d565b61123d565b60405161056a9190614412565b60405180910390f35b61057b61126f565b604051610588919061451b565b60405180910390f35b610599611297565b6040516105a69190614a76565b60405180910390f35b6105c960048036038101906105c4919061442d565b611336565b6040516105d69190614357565b60405180910390f35b6105f960048036038101906105f4919061442d565b611353565b005b610603611573565b6040516106109190614357565b60405180910390f35b610633600480360381019061062e919061442d565b61157d565b6040516106409190614357565b60405180910390f35b610663600480360381019061065e919061442d565b61159a565b6040516106709190614412565b60405180910390f35b610693600480360381019061068e9190614802565b6115d2565b005b61069d6118c2565b6040516106aa9190614a76565b60405180910390f35b6106cd60048036038101906106c8919061442d565b611961565b6040516106da9190614357565b60405180910390f35b6106fd60048036038101906106f8919061442d565b6119ba565b60405161070a9190614412565b60405180910390f35b61071b6119e4565b6040516107289190614357565b60405180910390f35b61074b60048036038101906107469190614802565b611a85565b005b6107676004803603810190610762919061442d565b6120a5565b6040516107749190614412565b60405180910390f35b6107976004803603810190610792919061442d565b6120c8565b6040516107a49190614357565b60405180910390f35b6107b56120fb565b6040516107c2919061451b565b60405180910390f35b6107e560048036038101906107e0919061442d565b612123565b6040516107f29190614412565b60405180910390f35b6108156004803603810190610810919061442d565b612145565b6040516108229190614357565b60405180910390f35b61084560048036038101906108409190614abd565b612183565b005b610861600480360381019061085c919061442d565b612199565b005b61087d6004803603810190610878919061442d565b61250a565b60405161088a9190614357565b60405180910390f35b6108ad60048036038101906108a8919061442d565b612527565b6040516108ba9190614357565b60405180910390f35b6108dd60048036038101906108d89190614733565b612547565b6040516108ea9190614b0c565b60405180910390f35b61090d6004803603810190610908919061442d565b61255c565b005b6109296004803603810190610924919061442d565b6127b5565b6040516109409b9a99989796959493929190614b27565b60405180910390f35b610963600480360381019061095e919061442d565b61293f565b6040516109709190614357565b60405180910390f35b610993600480360381019061098e9190614802565b612972565b005b6109af60048036038101906109aa919061442d565b612b3a565b005b6109cb60048036038101906109c69190614bd9565b612d45565b6040516109d89190614412565b60405180910390f35b6109e9612dd9565b6040516109f69190614357565b60405180910390f35b610a196004803603810190610a149190614c19565b612e7a565b604051610a269190614b0c565b60405180910390f35b610a496004803603810190610a449190614c19565b612e8f565b005b610a656004803603810190610a609190614d0b565b612f30565b604051610a729190614357565b60405180910390f35b60008073ffffffffffffffffffffffffffffffffffffffff168373ffffffffffffffffffffffffffffffffffffffff1603610aeb576040517f08c379a0000000000000000000000000000000000000000000000000000000008152600401610ae290614e3f565b60405180910390fd5b60008083815260200190815260200160002060008473ffffffffffffffffffffffffffffffffffffffff1673ffffffffffffffffffffffffffffffffffffffff16815260200190815260200160002054905092915050565b60007fd9b67a26000000000000000000000000000000000000000000000000000000007bffffffffffffffffffffffffffffffffffffffffffffffffffffffff1916827bffffffffffffffffffffffffffffffffffffffffffffffffffffffff19161480610c0e57507f0e89341c000000000000000000000000000000000000000000000000000000007bffffffffffffffffffffffffffffffffffffffffffffffffffffffff1916827bffffffffffffffffffffffffffffffffffffffffffffffffffffffff1916145b80610c1e5750610c1d82613275565b5b9050919050565b6000600560008381526020019081526020016000206003015442610c499190614e8e565b9050919050565b60006005600083815260200190815260200160002060090154600660008481526020019081526020016000205410159050919050565b606060028054610c9590614ef1565b80601f0160208091040260200160405190810160405280929190818152602001828054610cc190614ef1565b8015610d0e5780601f10610ce357610100808354040283529160200191610d0e565b820191906000526020600020905b815481529060010190602001808311610cf157829003601f168201915b50505050509050919050565b60007f0000000000000000000000000000000000000000000000000000000000000000905090565b600060066000838152602001908152602001600020546005600084815260200190815260200160002060020154610d799190614f22565b9050919050565b610d886132df565b73ffffffffffffffffffffffffffffffffffffffff168573ffffffffffffffffffffffffffffffffffffffff161480610dce5750610dcd85610dc86132df565b612d45565b5b610e0d576040517f08c379a0000000000000000000000000000000000000000000000000000000008152600401610e0490614fd6565b60405180910390fd5b610e1a85858585856132e7565b5050505050565b600060086000838152602001908152602001600020549050919050565b6000600d600083815260200190815260200160002060009054906101000a900460ff169050919050565b6000610e7382612123565b8015610e9a5750610e8382611961565b600960008481526020019081526020016000205410155b9050919050565b6000610eac826120a5565b158015610ebf5750610ebd82610c50565b155b9050919050565b7f000000000000000000000000000000000000000000000000000000000000000073ffffffffffffffffffffffffffffffffffffffff163373ffffffffffffffffffffffffffffffffffffffff1614610f54576040517f08c379a0000000000000000000000000000000000000000000000000000000008152600401610f4b90615042565b60405180910390fd5b610f5d826120a5565b158015610f705750610f6e82610ea1565b155b8015610f925750610f8082610e3e565b80610f905750610f8f8261159a565b5b155b610fd1576040517f08c379a0000000000000000000000000000000000000000000000000000000008152600401610fc8906150ae565b60405180910390fd5b6008600083815260200190815260200160002054811115611027576040517f08c379a000000000000000000000000000000000000000000000000000000000815260040161101e9061511a565b60405180910390fd5b8060086000848152602001908152602001600020600082825461104a9190614e8e565b925050819055507f000000000000000000000000000000000000000000000000000000000000000073ffffffffffffffffffffffffffffffffffffffff1663a9059cbb33836040518363ffffffff1660e01b81526004016110ac92919061513a565b6020604051808303816000875af11580156110cb573d6000803e3d6000fd5b505050506040513d601f19601f820116820180604052508101906110ef9190615178565b505050565b60006110fe6118c2565b633b9aca0061110b611297565b6111159190614f22565b61111f91906151d4565b905090565b6060815183511461116a576040517f08c379a000000000000000000000000000000000000000000000000000000000815260040161116190615277565b60405180910390fd5b6000835167ffffffffffffffff8111156111875761118661453b565b5b6040519080825280602002602001820160405280156111b55781602001602082028036833780820191505090505b50905060005b8451811015611232576112028582815181106111da576111d9615297565b5b60200260200101518583815181106111f5576111f4615297565b5b6020026020010151610a7b565b82828151811061121557611214615297565b5b6020026020010181815250508061122b906152c6565b90506111bb565b508091505092915050565b600060066000838152602001908152602001600020546007600084815260200190815260200160002054149050919050565b60007f0000000000000000000000000000000000000000000000000000000000000000905090565b6000807f000000000000000000000000000000000000000000000000000000000000000073ffffffffffffffffffffffffffffffffffffffff1663feaf968c6040518163ffffffff1660e01b815260040160a060405180830381865afa158015611305573d6000803e3d6000fd5b505050506040513d601f19601f820116820180604052508101906113299190615391565b5050509150508091505090565b600060096000838152602001908152602001600020549050919050565b7f000000000000000000000000000000000000000000000000000000000000000073ffffffffffffffffffffffffffffffffffffffff163373ffffffffffffffffffffffffffffffffffffffff16146113e1576040517f08c379a00000000000000000000000000000000000000000000000000000000081526004016113d890615042565b60405180910390fd5b6113ea816119ba565b1580156113fd57506113fb81610e3e565b155b8015611423575061140d81611961565b6009600083815260200190815260200160002054105b611462576040517f08c379a000000000000000000000000000000000000000000000000000000000815260040161145990615458565b60405180910390fd5b6000600860008381526020019081526020016000205490506000600960008481526020019081526020016000205490506006600084815260200190815260200160002054826114b191906151d4565b600a6000858152602001908152602001600020819055506006600084815260200190815260200160002054816114e791906151d4565b600b6000858152602001908152602001600020819055506001600d600085815260200190815260200160002060006101000a81548160ff021916908315150217905550827fcd2c25949e23ea2647ca2c5809b025ee3aca0d82cfcb1d22a715398f5cf8db8e61155585611961565b838560405161156693929190615478565b60405180910390a2505050565b6000600454905090565b600060086000838152602001908152602001600020549050919050565b60006115a582612123565b80156115cb57506115b582611961565b6009600084815260200190815260200160002054105b9050919050565b6115db826120a5565b61161a576040517f08c379a0000000000000000000000000000000000000000000000000000000008152600401611611906154fb565b60405180910390fd5b8061162483612145565b1015611665576040517f08c379a000000000000000000000000000000000000000000000000000000000815260040161165c90615567565b60405180910390fd5b6000600560008481526020019081526020016000206040518061016001604052908160008201805461169690614ef1565b80601f01602080910402602001604051908101604052809291908181526020018280546116c290614ef1565b801561170f5780601f106116e45761010080835404028352916020019161170f565b820191906000526020600020905b8154815290600101906020018083116116f257829003601f168201915b50505050508152602001600182015481526020016002820154815260200160038201548152602001600482015481526020016005820154815260200160068201548152602001600782015481526020016008820154815260200160098201548152602001600a82015481525050905060008160200151836117909190614f22565b9050826006600086815260200190815260200160002060008282546117b59190615587565b92505081905550806008600086815260200190815260200160002060008282546117df9190615587565b9250508190555080600460008282546117f89190615587565b925050819055507f000000000000000000000000000000000000000000000000000000000000000073ffffffffffffffffffffffffffffffffffffffff166323b872dd3330846040518463ffffffff1660e01b815260040161185c939291906155bb565b6020604051808303816000875af115801561187b573d6000803e3d6000fd5b505050506040513d601f19601f8201168201806040525081019061189f9190615178565b506118bc3033868660405180602001604052806000815250612e8f565b50505050565b6000807f000000000000000000000000000000000000000000000000000000000000000073ffffffffffffffffffffffffffffffffffffffff1663feaf968c6040518163ffffffff1660e01b815260040160a060405180830381865afa158015611930573d6000803e3d6000fd5b505050506040513d601f19601f820116820180604052508101906119549190615391565b5050509150508091505090565b6000670de0b6b3a764000060056000848152602001908152602001600020600a015461198c84610d42565b6119969190614f22565b6119a091906151d4565b6119a983610d42565b6119b39190615587565b9050919050565b6000600e600083815260200190815260200160002060009054906101000a900460ff169050919050565b60007f000000000000000000000000000000000000000000000000000000000000000073ffffffffffffffffffffffffffffffffffffffff166370a08231306040518263ffffffff1660e01b8152600401611a3f919061451b565b602060405180830381865afa158015611a5c573d6000803e3d6000fd5b505050506040513d601f19601f82011682018060405250810190611a8091906155f2565b905090565b80611a903384610a7b565b1015611ad1576040517f08c379a0000000000000000000000000000000000000000000000000000000008152600401611ac890615567565b60405180910390fd5b611ada826119ba565b80611aea5750611ae982610ea1565b5b80611afa5750611af982610e3e565b5b611b39576040517f08c379a0000000000000000000000000000000000000000000000000000000008152600401611b309061566b565b60405180910390fd5b6000806000611b47856119ba565b15611b6b57600c600086815260200190815260200160002054915060009050611be5565b611b7485610ea1565b15611b9b576005600086815260200190815260200160002060010154925060019050611be4565b611ba485610e3e565b15611bde57600a6000868152602001908152602001600020549250600b600086815260200190815260200160002054915060029050611be3565b600080fd5b5b5b611bf0338686613608565b83600760008781526020019081526020016000206000828254611c139190615587565b9250508190555060008103611d2c577f000000000000000000000000000000000000000000000000000000000000000073ffffffffffffffffffffffffffffffffffffffff1663a9059cbb33600c60008981526020019081526020016000205487611c7e9190614f22565b6040518363ffffffff1660e01b8152600401611c9b92919061513a565b6020604051808303816000875af1158015611cba573d6000803e3d6000fd5b505050506040513d601f19601f82011682018060405250810190611cde9190615178565b50600c60008681526020019081526020016000205484611cfe9190614f22565b600960008781526020019081526020016000206000828254611d209190614e8e565b92505081905550612062565b60018103611e44577f000000000000000000000000000000000000000000000000000000000000000073ffffffffffffffffffffffffffffffffffffffff1663a9059cbb33600560008981526020019081526020016000206001015487611d939190614f22565b6040518363ffffffff1660e01b8152600401611db092919061513a565b6020604051808303816000875af1158015611dcf573d6000803e3d6000fd5b505050506040513d601f19601f82011682018060405250810190611df39190615178565b50600560008681526020019081526020016000206001015484611e169190614f22565b600860008781526020019081526020016000206000828254611e389190614e8e565b92505081905550612061565b6002810361205b577f000000000000000000000000000000000000000000000000000000000000000073ffffffffffffffffffffffffffffffffffffffff1663a9059cbb33600a60008981526020019081526020016000205487611ea89190614f22565b6040518363ffffffff1660e01b8152600401611ec592919061513a565b6020604051808303816000875af1158015611ee4573d6000803e3d6000fd5b505050506040513d601f19601f82011682018060405250810190611f089190615178565b507f000000000000000000000000000000000000000000000000000000000000000073ffffffffffffffffffffffffffffffffffffffff1663a9059cbb33600b60008981526020019081526020016000205487611f659190614f22565b6040518363ffffffff1660e01b8152600401611f8292919061513a565b6020604051808303816000875af1158015611fa1573d6000803e3d6000fd5b505050506040513d601f19601f82011682018060405250810190611fc59190615178565b50600a60008681526020019081526020016000205484611fe59190614f22565b6008600087815260200190815260200160002060008282546120079190614e8e565b92505081905550600b6000868152602001908152602001600020548461202d9190614f22565b60096000878152602001908152602001600020600082825461204f9190614e8e565b92505081905550612060565b600080fd5b5b5b847fa5851b0172fdafd3dafe0e52ce051747548a4c642a2f22793c01faf228e130623386846040516120969392919061568b565b60405180910390a25050505050565b600060056000838152602001908152602001600020600501544211159050919050565b60006120d382610c25565b60056000848152602001908152602001600020600501546120f49190614e8e565b9050919050565b60007f0000000000000000000000000000000000000000000000000000000000000000905090565b6000600560008381526020019081526020016000206004015442119050919050565b60006006600083815260200190815260200160002054600560008481526020019081526020016000206008015461217c9190614e8e565b9050919050565b61219561218e6132df565b838361384e565b5050565b6121a2816119ba565b1580156121b557506121b381610e3e565b155b80156121c657506121c58161159a565b5b612205576040517f08c379a00000000000000000000000000000000000000000000000000000000081526004016121fc9061570e565b60405180910390fd5b60006107d0600860008481526020019081526020016000205461222891906151d4565b905060006107d0600960008581526020019081526020016000205461224d91906151d4565b905060008260086000868152602001908152602001600020546122709190614e8e565b905060008260096000878152602001908152602001600020546122939190614e8e565b90506006600086815260200190815260200160002054826122b491906151d4565b600a6000878152602001908152602001600020819055506006600086815260200190815260200160002054816122ea91906151d4565b600b600087815260200190815260200160002081905550836008600087815260200190815260200160002060008282546123249190614e8e565b925050819055508260096000878152602001908152602001600020600082825461234e9190614e8e565b925050819055506001600d600087815260200190815260200160002060006101000a81548160ff0219169083151502179055507f000000000000000000000000000000000000000000000000000000000000000073ffffffffffffffffffffffffffffffffffffffff1663a9059cbb33866040518363ffffffff1660e01b81526004016123dc92919061513a565b6020604051808303816000875af11580156123fb573d6000803e3d6000fd5b505050506040513d601f19601f8201168201806040525081019061241f9190615178565b507f000000000000000000000000000000000000000000000000000000000000000073ffffffffffffffffffffffffffffffffffffffff1663a9059cbb33856040518363ffffffff1660e01b815260040161247b92919061513a565b6020604051808303816000875af115801561249a573d6000803e3d6000fd5b505050506040513d601f19601f820116820180604052508101906124be9190615178565b50847fcd2c25949e23ea2647ca2c5809b025ee3aca0d82cfcb1d22a715398f5cf8db8e6124ea87611961565b83856040516124fb93929190615478565b60405180910390a25050505050565b600060096000838152602001908152602001600020549050919050565b600060056000838152602001908152602001600020600a01549050919050565b600063bc197c8160e01b905095945050505050565b61256581610e3e565b1580156125785750612576816119ba565b155b8015612589575061258881610e68565b5b6125c8576040517f08c379a00000000000000000000000000000000000000000000000000000000081526004016125bf9061577a565b60405180910390fd5b60006125d382611961565b905060006103e8826125e591906151d4565b9050600081836125f59190614e8e565b905060066000858152602001908152602001600020548161261691906151d4565b600c60008681526020019081526020016000208190555060006006600086815260200190815260200160002054600c6000878152602001908152602001600020546126619190614f22565b8261266c9190614e8e565b90506000818461267c9190615587565b9050806009600088815260200190815260200160002060008282546126a19190614e8e565b925050819055506001600e600088815260200190815260200160002060006101000a81548160ff0219169083151502179055507f000000000000000000000000000000000000000000000000000000000000000073ffffffffffffffffffffffffffffffffffffffff1663a9059cbb33836040518363ffffffff1660e01b815260040161272f92919061513a565b6020604051808303816000875af115801561274e573d6000803e3d6000fd5b505050506040513d601f19601f820116820180604052508101906127729190615178565b50857fac2eeaf45d1b75aed6b3285cda3efb3c382cce02ba313558bbb90be57f8843e486856040516127a592919061579a565b60405180910390a2505050505050565b60606000806000806000806000806000806000600560008e8152602001908152602001600020604051806101600160405290816000820180546127f790614ef1565b80601f016020809104026020016040519081016040528092919081815260200182805461282390614ef1565b80156128705780601f1061284557610100808354040283529160200191612870565b820191906000526020600020905b81548152906001019060200180831161285357829003601f168201915b50505050508152602001600182015481526020016002820154815260200160038201548152602001600482015481526020016005820154815260200160068201548152602001600782015481526020016008820154815260200160098201548152602001600a820154815250509050806000015181602001518260400151836060015184608001518560a001518660c001518760e001518861010001518961012001518a61014001519b509b509b509b509b509b509b509b509b509b509b505091939597999b90929496989a50565b600061294a82610c25565b600560008481526020019081526020016000206004015461296b9190614e8e565b9050919050565b7f000000000000000000000000000000000000000000000000000000000000000073ffffffffffffffffffffffffffffffffffffffff163373ffffffffffffffffffffffffffffffffffffffff1614612a00576040517f08c379a00000000000000000000000000000000000000000000000000000000081526004016129f790615042565b60405180910390fd5b612a0982610e3e565b80612a195750612a188261159a565b5b158015612a2c5750612a2a826119ba565b155b612a6b576040517f08c379a0000000000000000000000000000000000000000000000000000000008152600401612a629061580f565b60405180910390fd5b80600960008481526020019081526020016000206000828254612a8e9190615587565b925050819055507f000000000000000000000000000000000000000000000000000000000000000073ffffffffffffffffffffffffffffffffffffffff166323b872dd3330846040518463ffffffff1660e01b8152600401612af2939291906155bb565b6020604051808303816000875af1158015612b11573d6000803e3d6000fd5b505050506040513d601f19601f82011682018060405250810190612b359190615178565b505050565b7f000000000000000000000000000000000000000000000000000000000000000073ffffffffffffffffffffffffffffffffffffffff163373ffffffffffffffffffffffffffffffffffffffff1614612bc8576040517f08c379a0000000000000000000000000000000000000000000000000000000008152600401612bbf90615042565b60405180910390fd5b612bd1816119ba565b8015612be25750612be18161123d565b5b612c21576040517f08c379a0000000000000000000000000000000000000000000000000000000008152600401612c18906150ae565b60405180910390fd5b6000600960008381526020019081526020016000205411612c77576040517f08c379a0000000000000000000000000000000000000000000000000000000008152600401612c6e9061587b565b60405180910390fd5b600060096000838152602001908152602001600020819055507f000000000000000000000000000000000000000000000000000000000000000073ffffffffffffffffffffffffffffffffffffffff1663a9059cbb3360096000858152602001908152602001600020546040518363ffffffff1660e01b8152600401612cfe92919061513a565b6020604051808303816000875af1158015612d1d573d6000803e3d6000fd5b505050506040513d601f19601f82011682018060405250810190612d419190615178565b5050565b6000600160008473ffffffffffffffffffffffffffffffffffffffff1673ffffffffffffffffffffffffffffffffffffffff16815260200190815260200160002060008373ffffffffffffffffffffffffffffffffffffffff1673ffffffffffffffffffffffffffffffffffffffff16815260200190815260200160002060009054906101000a900460ff16905092915050565b60007f000000000000000000000000000000000000000000000000000000000000000073ffffffffffffffffffffffffffffffffffffffff166370a08231306040518263ffffffff1660e01b8152600401612e34919061451b565b602060405180830381865afa158015612e51573d6000803e3d6000fd5b505050506040513d601f19601f82011682018060405250810190612e7591906155f2565b905090565b600063f23a6e6160e01b905095945050505050565b612e976132df565b73ffffffffffffffffffffffffffffffffffffffff168573ffffffffffffffffffffffffffffffffffffffff161480612edd5750612edc85612ed76132df565b612d45565b5b612f1c576040517f08c379a0000000000000000000000000000000000000000000000000000000008152600401612f1390614fd6565b60405180910390fd5b612f2985858585856139ba565b5050505050565b60007f000000000000000000000000000000000000000000000000000000000000000073ffffffffffffffffffffffffffffffffffffffff163373ffffffffffffffffffffffffffffffffffffffff1614612fc0576040517f08c379a0000000000000000000000000000000000000000000000000000000008152600401612fb790615042565b60405180910390fd5b60b4841015613004576040517f08c379a0000000000000000000000000000000000000000000000000000000008152600401612ffb906158e7565b60405180910390fd5b6007831115613048576040517f08c379a000000000000000000000000000000000000000000000000000000000815260040161303f90615953565b60405180910390fd5b60016003546130579190615587565b905060016003600082825461306c9190615587565b9250508190555061308e30828b60405180602001604052806000815250613c55565b60006130986110f4565b90506000633b9aca0089836130ad9190614f22565b6130b791906151d4565b905060405180610160016040528089898080601f016020809104026020016040519081016040528093929190818152602001838380828437600081840152601f19601f8201169050808301925050505050505081526020018a815260200182815260200142815260200162015180886131309190614f22565b4261313b9190615587565b8152602001620151808761314f9190614f22565b4261315a9190615587565b81526020018681526020018781526020018c81526020018b8152602001858152506005600085815260200190815260200160002060008201518160000190816131a39190615b1f565b506020820151816001015560408201518160020155606082015181600301556080820151816004015560a0820151816005015560c0820151816006015560e082015181600701556101008201518160080155610120820151816009015561014082015181600a0155905050827f3a10e10c16b4416f991fa4c931bcd0520986a7357f6ba95c4d92f806a4c1ebf38c8b8488620151808c6132439190614f22565b4261324e9190615587565b60405161325f959493929190615bf1565b60405180910390a2505098975050505050505050565b60007f01ffc9a7000000000000000000000000000000000000000000000000000000007bffffffffffffffffffffffffffffffffffffffffffffffffffffffff1916827bffffffffffffffffffffffffffffffffffffffffffffffffffffffff1916149050919050565b600033905090565b815183511461332b576040517f08c379a000000000000000000000000000000000000000000000000000000000815260040161332290615cb6565b60405180910390fd5b600073ffffffffffffffffffffffffffffffffffffffff168473ffffffffffffffffffffffffffffffffffffffff160361339a576040517f08c379a000000000000000000000000000000000000000000000000000000000815260040161339190615d48565b60405180910390fd5b60006133a46132df565b90506133b4818787878787613e05565b60005b84518110156135655760008582815181106133d5576133d4615297565b5b6020026020010151905060008583815181106133f4576133f3615297565b5b60200260200101519050600080600084815260200190815260200160002060008b73ffffffffffffffffffffffffffffffffffffffff1673ffffffffffffffffffffffffffffffffffffffff16815260200190815260200160002054905081811015613495576040517f08c379a000000000000000000000000000000000000000000000000000000000815260040161348c90615dda565b60405180910390fd5b81810360008085815260200190815260200160002060008c73ffffffffffffffffffffffffffffffffffffffff1673ffffffffffffffffffffffffffffffffffffffff168152602001908152602001600020819055508160008085815260200190815260200160002060008b73ffffffffffffffffffffffffffffffffffffffff1673ffffffffffffffffffffffffffffffffffffffff168152602001908152602001600020600082825461354a9190615587565b925050819055505050508061355e906152c6565b90506133b7565b508473ffffffffffffffffffffffffffffffffffffffff168673ffffffffffffffffffffffffffffffffffffffff168273ffffffffffffffffffffffffffffffffffffffff167f4a39dc06d4c0dbc64b70af90fd698a233a518aa5d07e595d983b8c0526c8f7fb87876040516135dc929190615dfa565b60405180910390a46135f2818787878787613e0d565b613600818787878787613e15565b505050505050565b600073ffffffffffffffffffffffffffffffffffffffff168373ffffffffffffffffffffffffffffffffffffffff1603613677576040517f08c379a000000000000000000000000000000000000000000000000000000000815260040161366e90615ea3565b60405180910390fd5b60006136816132df565b9050600061368e84613fec565b9050600061369b84613fec565b90506136bb83876000858560405180602001604052806000815250613e05565b600080600087815260200190815260200160002060008873ffffffffffffffffffffffffffffffffffffffff1673ffffffffffffffffffffffffffffffffffffffff16815260200190815260200160002054905084811015613752576040517f08c379a000000000000000000000000000000000000000000000000000000000815260040161374990615f35565b60405180910390fd5b84810360008088815260200190815260200160002060008973ffffffffffffffffffffffffffffffffffffffff1673ffffffffffffffffffffffffffffffffffffffff16815260200190815260200160002081905550600073ffffffffffffffffffffffffffffffffffffffff168773ffffffffffffffffffffffffffffffffffffffff168573ffffffffffffffffffffffffffffffffffffffff167fc3d58168c5ae7397731d063d5bbf3d657854427343f4c083240f7aacaa2d0f62898960405161381f92919061579a565b60405180910390a461384584886000868660405180602001604052806000815250613e0d565b50505050505050565b8173ffffffffffffffffffffffffffffffffffffffff168373ffffffffffffffffffffffffffffffffffffffff16036138bc576040517f08c379a00000000000000000000000000000000000000000000000000000000081526004016138b390615fc7565b60405180910390fd5b80600160008573ffffffffffffffffffffffffffffffffffffffff1673ffffffffffffffffffffffffffffffffffffffff16815260200190815260200160002060008473ffffffffffffffffffffffffffffffffffffffff1673ffffffffffffffffffffffffffffffffffffffff16815260200190815260200160002060006101000a81548160ff0219169083151502179055508173ffffffffffffffffffffffffffffffffffffffff168373ffffffffffffffffffffffffffffffffffffffff167f17307eab39ab6107e8899845ad3d59bd9653f200f220920489ca2b5937696c31836040516139ad9190614412565b60405180910390a3505050565b600073ffffffffffffffffffffffffffffffffffffffff168473ffffffffffffffffffffffffffffffffffffffff1603613a29576040517f08c379a0000000000000000000000000000000000000000000000000000000008152600401613a2090615d48565b60405180910390fd5b6000613a336132df565b90506000613a4085613fec565b90506000613a4d85613fec565b9050613a5d838989858589613e05565b600080600088815260200190815260200160002060008a73ffffffffffffffffffffffffffffffffffffffff1673ffffffffffffffffffffffffffffffffffffffff16815260200190815260200160002054905085811015613af4576040517f08c379a0000000000000000000000000000000000000000000000000000000008152600401613aeb90615dda565b60405180910390fd5b85810360008089815260200190815260200160002060008b73ffffffffffffffffffffffffffffffffffffffff1673ffffffffffffffffffffffffffffffffffffffff168152602001908152602001600020819055508560008089815260200190815260200160002060008a73ffffffffffffffffffffffffffffffffffffffff1673ffffffffffffffffffffffffffffffffffffffff1681526020019081526020016000206000828254613ba99190615587565b925050819055508773ffffffffffffffffffffffffffffffffffffffff168973ffffffffffffffffffffffffffffffffffffffff168573ffffffffffffffffffffffffffffffffffffffff167fc3d58168c5ae7397731d063d5bbf3d657854427343f4c083240f7aacaa2d0f628a8a604051613c2692919061579a565b60405180910390a4613c3c848a8a86868a613e0d565b613c4a848a8a8a8a8a614066565b505050505050505050565b600073ffffffffffffffffffffffffffffffffffffffff168473ffffffffffffffffffffffffffffffffffffffff1603613cc4576040517f08c379a0000000000000000000000000000000000000000000000000000000008152600401613cbb90616059565b60405180910390fd5b6000613cce6132df565b90506000613cdb85613fec565b90506000613ce885613fec565b9050613cf983600089858589613e05565b8460008088815260200190815260200160002060008973ffffffffffffffffffffffffffffffffffffffff1673ffffffffffffffffffffffffffffffffffffffff1681526020019081526020016000206000828254613d589190615587565b925050819055508673ffffffffffffffffffffffffffffffffffffffff16600073ffffffffffffffffffffffffffffffffffffffff168473ffffffffffffffffffffffffffffffffffffffff167fc3d58168c5ae7397731d063d5bbf3d657854427343f4c083240f7aacaa2d0f628989604051613dd692919061579a565b60405180910390a4613ded83600089858589613e0d565b613dfc83600089898989614066565b50505050505050565b505050505050565b505050505050565b613e348473ffffffffffffffffffffffffffffffffffffffff1661423d565b15613fe4578373ffffffffffffffffffffffffffffffffffffffff1663bc197c8187878686866040518663ffffffff1660e01b8152600401613e7a9594939291906160ce565b6020604051808303816000875af1925050508015613eb657506040513d601f19601f82011682018060405250810190613eb3919061614b565b60015b613f5b57613ec2616185565b806308c379a003613f1e5750613ed66161a7565b80613ee15750613f20565b806040517f08c379a0000000000000000000000000000000000000000000000000000000008152600401613f1591906144ea565b60405180910390fd5b505b6040517f08c379a0000000000000000000000000000000000000000000000000000000008152600401613f52906162a9565b60405180910390fd5b63bc197c8160e01b7bffffffffffffffffffffffffffffffffffffffffffffffffffffffff1916817bffffffffffffffffffffffffffffffffffffffffffffffffffffffff191614613fe2576040517f08c379a0000000000000000000000000000000000000000000000000000000008152600401613fd99061633b565b60405180910390fd5b505b505050505050565b60606000600167ffffffffffffffff81111561400b5761400a61453b565b5b6040519080825280602002602001820160405280156140395781602001602082028036833780820191505090505b509050828160008151811061405157614050615297565b5b60200260200101818152505080915050919050565b6140858473ffffffffffffffffffffffffffffffffffffffff1661423d565b15614235578373ffffffffffffffffffffffffffffffffffffffff1663f23a6e6187878686866040518663ffffffff1660e01b81526004016140cb95949392919061635b565b6020604051808303816000875af192505050801561410757506040513d601f19601f82011682018060405250810190614104919061614b565b60015b6141ac57614113616185565b806308c379a00361416f57506141276161a7565b806141325750614171565b806040517f08c379a000000000000000000000000000000000000000000000000000000000815260040161416691906144ea565b60405180910390fd5b505b6040517f08c379a00000000000000000000000000000000000000000000000000000000081526004016141a3906162a9565b60405180910390fd5b63f23a6e6160e01b7bffffffffffffffffffffffffffffffffffffffffffffffffffffffff1916817bffffffffffffffffffffffffffffffffffffffffffffffffffffffff191614614233576040517f08c379a000000000000000000000000000000000000000000000000000000000815260040161422a9061633b565b60405180910390fd5b505b505050505050565b6000808273ffffffffffffffffffffffffffffffffffffffff163b119050919050565b6000604051905090565b600080fd5b600080fd5b600073ffffffffffffffffffffffffffffffffffffffff82169050919050565b600061429f82614274565b9050919050565b6142af81614294565b81146142ba57600080fd5b50565b6000813590506142cc816142a6565b92915050565b6000819050919050565b6142e5816142d2565b81146142f057600080fd5b50565b600081359050614302816142dc565b92915050565b6000806040838503121561431f5761431e61426a565b5b600061432d858286016142bd565b925050602061433e858286016142f3565b9150509250929050565b614351816142d2565b82525050565b600060208201905061436c6000830184614348565b92915050565b60007fffffffff0000000000000000000000000000000000000000000000000000000082169050919050565b6143a781614372565b81146143b257600080fd5b50565b6000813590506143c48161439e565b92915050565b6000602082840312156143e0576143df61426a565b5b60006143ee848285016143b5565b91505092915050565b60008115159050919050565b61440c816143f7565b82525050565b60006020820190506144276000830184614403565b92915050565b6000602082840312156144435761444261426a565b5b6000614451848285016142f3565b91505092915050565b600081519050919050565b600082825260208201905092915050565b60005b83811015614494578082015181840152602081019050614479565b60008484015250505050565b6000601f19601f8301169050919050565b60006144bc8261445a565b6144c68185614465565b93506144d6818560208601614476565b6144df816144a0565b840191505092915050565b6000602082019050818103600083015261450481846144b1565b905092915050565b61451581614294565b82525050565b6000602082019050614530600083018461450c565b92915050565b600080fd5b7f4e487b7100000000000000000000000000000000000000000000000000000000600052604160045260246000fd5b614573826144a0565b810181811067ffffffffffffffff821117156145925761459161453b565b5b80604052505050565b60006145a5614260565b90506145b1828261456a565b919050565b600067ffffffffffffffff8211156145d1576145d061453b565b5b602082029050602081019050919050565b600080fd5b60006145fa6145f5846145b6565b61459b565b9050808382526020820190506020840283018581111561461d5761461c6145e2565b5b835b81811015614646578061463288826142f3565b84526020840193505060208101905061461f565b5050509392505050565b600082601f83011261466557614664614536565b5b81356146758482602086016145e7565b91505092915050565b600080fd5b600067ffffffffffffffff82111561469e5761469d61453b565b5b6146a7826144a0565b9050602081019050919050565b82818337600083830152505050565b60006146d66146d184614683565b61459b565b9050828152602081018484840111156146f2576146f161467e565b5b6146fd8482856146b4565b509392505050565b600082601f83011261471a57614719614536565b5b813561472a8482602086016146c3565b91505092915050565b600080600080600060a0868803121561474f5761474e61426a565b5b600061475d888289016142bd565b955050602061476e888289016142bd565b945050604086013567ffffffffffffffff81111561478f5761478e61426f565b5b61479b88828901614650565b935050606086013567ffffffffffffffff8111156147bc576147bb61426f565b5b6147c888828901614650565b925050608086013567ffffffffffffffff8111156147e9576147e861426f565b5b6147f588828901614705565b9150509295509295909350565b600080604083850312156148195761481861426a565b5b6000614827858286016142f3565b9250506020614838858286016142f3565b9150509250929050565b600067ffffffffffffffff82111561485d5761485c61453b565b5b602082029050602081019050919050565b600061488161487c84614842565b61459b565b905080838252602082019050602084028301858111156148a4576148a36145e2565b5b835b818110156148cd57806148b988826142bd565b8452602084019350506020810190506148a6565b5050509392505050565b600082601f8301126148ec576148eb614536565b5b81356148fc84826020860161486e565b91505092915050565b6000806040838503121561491c5761491b61426a565b5b600083013567ffffffffffffffff81111561493a5761493961426f565b5b614946858286016148d7565b925050602083013567ffffffffffffffff8111156149675761496661426f565b5b61497385828601614650565b9150509250929050565b600081519050919050565b600082825260208201905092915050565b6000819050602082019050919050565b6149b2816142d2565b82525050565b60006149c483836149a9565b60208301905092915050565b6000602082019050919050565b60006149e88261497d565b6149f28185614988565b93506149fd83614999565b8060005b83811015614a2e578151614a1588826149b8565b9750614a20836149d0565b925050600181019050614a01565b5085935050505092915050565b60006020820190508181036000830152614a5581846149dd565b905092915050565b6000819050919050565b614a7081614a5d565b82525050565b6000602082019050614a8b6000830184614a67565b92915050565b614a9a816143f7565b8114614aa557600080fd5b50565b600081359050614ab781614a91565b92915050565b60008060408385031215614ad457614ad361426a565b5b6000614ae2858286016142bd565b9250506020614af385828601614aa8565b9150509250929050565b614b0681614372565b82525050565b6000602082019050614b216000830184614afd565b92915050565b6000610160820190508181036000830152614b42818e6144b1565b9050614b51602083018d614348565b614b5e604083018c614348565b614b6b606083018b614348565b614b78608083018a614348565b614b8560a0830189614348565b614b9260c0830188614348565b614b9f60e0830187614348565b614bad610100830186614348565b614bbb610120830185614348565b614bc9610140830184614348565b9c9b505050505050505050505050565b60008060408385031215614bf057614bef61426a565b5b6000614bfe858286016142bd565b9250506020614c0f858286016142bd565b9150509250929050565b600080600080600060a08688031215614c3557614c3461426a565b5b6000614c43888289016142bd565b9550506020614c54888289016142bd565b9450506040614c65888289016142f3565b9350506060614c76888289016142f3565b925050608086013567ffffffffffffffff811115614c9757614c9661426f565b5b614ca388828901614705565b9150509295509295909350565b600080fd5b60008083601f840112614ccb57614cca614536565b5b8235905067ffffffffffffffff811115614ce857614ce7614cb0565b5b602083019150836001820283011115614d0457614d036145e2565b5b9250929050565b60008060008060008060008060e0898b031215614d2b57614d2a61426a565b5b6000614d398b828c016142f3565b9850506020614d4a8b828c016142f3565b9750506040614d5b8b828c016142f3565b965050606089013567ffffffffffffffff811115614d7c57614d7b61426f565b5b614d888b828c01614cb5565b95509550506080614d9b8b828c016142f3565b93505060a0614dac8b828c016142f3565b92505060c0614dbd8b828c016142f3565b9150509295985092959890939650565b7f455243313135353a2061646472657373207a65726f206973206e6f742061207660008201527f616c6964206f776e657200000000000000000000000000000000000000000000602082015250565b6000614e29602a83614465565b9150614e3482614dcd565b604082019050919050565b60006020820190508181036000830152614e5881614e1c565b9050919050565b7f4e487b7100000000000000000000000000000000000000000000000000000000600052601160045260246000fd5b6000614e99826142d2565b9150614ea4836142d2565b9250828203905081811115614ebc57614ebb614e5f565b5b92915050565b7f4e487b7100000000000000000000000000000000000000000000000000000000600052602260045260246000fd5b60006002820490506001821680614f0957607f821691505b602082108103614f1c57614f1b614ec2565b5b50919050565b6000614f2d826142d2565b9150614f38836142d2565b9250828202614f46816142d2565b91508282048414831517614f5d57614f5c614e5f565b5b5092915050565b7f455243313135353a2063616c6c6572206973206e6f7420746f6b656e206f776e60008201527f6572206f7220617070726f766564000000000000000000000000000000000000602082015250565b6000614fc0602e83614465565b9150614fcb82614f64565b604082019050919050565b60006020820190508181036000830152614fef81614fb3565b9050919050565b7f4e544f0000000000000000000000000000000000000000000000000000000000600082015250565b600061502c600383614465565b915061503782614ff6565b602082019050919050565b6000602082019050818103600083015261505b8161501f565b9050919050565b7f574e410000000000000000000000000000000000000000000000000000000000600082015250565b6000615098600383614465565b91506150a382615062565b602082019050919050565b600060208201905081810360008301526150c78161508b565b9050919050565b7f5741450000000000000000000000000000000000000000000000000000000000600082015250565b6000615104600383614465565b915061510f826150ce565b602082019050919050565b60006020820190508181036000830152615133816150f7565b9050919050565b600060408201905061514f600083018561450c565b61515c6020830184614348565b9392505050565b60008151905061517281614a91565b92915050565b60006020828403121561518e5761518d61426a565b5b600061519c84828501615163565b91505092915050565b7f4e487b7100000000000000000000000000000000000000000000000000000000600052601260045260246000fd5b60006151df826142d2565b91506151ea836142d2565b9250826151fa576151f96151a5565b5b828204905092915050565b7f455243313135353a206163636f756e747320616e6420696473206c656e67746860008201527f206d69736d617463680000000000000000000000000000000000000000000000602082015250565b6000615261602983614465565b915061526c82615205565b604082019050919050565b6000602082019050818103600083015261529081615254565b9050919050565b7f4e487b7100000000000000000000000000000000000000000000000000000000600052603260045260246000fd5b60006152d1826142d2565b91507fffffffffffffffffffffffffffffffffffffffffffffffffffffffffffffffff820361530357615302614e5f565b5b600182019050919050565b600069ffffffffffffffffffff82169050919050565b61532d8161530e565b811461533857600080fd5b50565b60008151905061534a81615324565b92915050565b61535981614a5d565b811461536457600080fd5b50565b60008151905061537681615350565b92915050565b60008151905061538b816142dc565b92915050565b600080600080600060a086880312156153ad576153ac61426a565b5b60006153bb8882890161533b565b95505060206153cc88828901615367565b94505060406153dd8882890161537c565b93505060606153ee8882890161537c565b92505060806153ff8882890161533b565b9150509295509295909350565b7f504d444e41000000000000000000000000000000000000000000000000000000600082015250565b6000615442600583614465565b915061544d8261540c565b602082019050919050565b6000602082019050818103600083015261547181615435565b9050919050565b600060608201905061548d6000830186614348565b61549a6020830185614348565b6154a76040830184614348565b949350505050565b7f4942000000000000000000000000000000000000000000000000000000000000600082015250565b60006154e5600283614465565b91506154f0826154af565b602082019050919050565b60006020820190508181036000830152615514816154d8565b9050919050565b7f4951000000000000000000000000000000000000000000000000000000000000600082015250565b6000615551600283614465565b915061555c8261551b565b602082019050919050565b6000602082019050818103600083015261558081615544565b9050919050565b6000615592826142d2565b915061559d836142d2565b92508282019050808211156155b5576155b4614e5f565b5b92915050565b60006060820190506155d0600083018661450c565b6155dd602083018561450c565b6155ea6040830184614348565b949350505050565b6000602082840312156156085761560761426a565b5b60006156168482850161537c565b91505092915050565b7f524e410000000000000000000000000000000000000000000000000000000000600082015250565b6000615655600383614465565b91506156608261561f565b602082019050919050565b6000602082019050818103600083015261568481615648565b9050919050565b60006060820190506156a0600083018661450c565b6156ad6020830185614348565b6156ba6040830184614348565b949350505050565b7f4d41444e41000000000000000000000000000000000000000000000000000000600082015250565b60006156f8600583614465565b9150615703826156c2565b602082019050919050565b60006020820190508181036000830152615727816156eb565b9050919050565b7f4d41434e41000000000000000000000000000000000000000000000000000000600082015250565b6000615764600583614465565b915061576f8261572e565b602082019050919050565b6000602082019050818103600083015261579381615757565b9050919050565b60006040820190506157af6000830185614348565b6157bc6020830184614348565b9392505050565b7f444e410000000000000000000000000000000000000000000000000000000000600082015250565b60006157f9600383614465565b9150615804826157c3565b602082019050919050565b60006020820190508181036000830152615828816157ec565b9050919050565b7f5746450000000000000000000000000000000000000000000000000000000000600082015250565b6000615865600383614465565b91506158708261582f565b602082019050919050565b6000602082019050818103600083015261589481615858565b9050919050565b7f4442364d00000000000000000000000000000000000000000000000000000000600082015250565b60006158d1600483614465565b91506158dc8261589b565b602082019050919050565b60006020820190508181036000830152615900816158c4565b9050919050565b7f4144413744000000000000000000000000000000000000000000000000000000600082015250565b600061593d600583614465565b915061594882615907565b602082019050919050565b6000602082019050818103600083015261596c81615930565b9050919050565b60008190508160005260206000209050919050565b60006020601f8301049050919050565b600082821b905092915050565b6000600883026159d57fffffffffffffffffffffffffffffffffffffffffffffffffffffffffffffffff82615998565b6159df8683615998565b95508019841693508086168417925050509392505050565b6000819050919050565b6000615a1c615a17615a12846142d2565b6159f7565b6142d2565b9050919050565b6000819050919050565b615a3683615a01565b615a4a615a4282615a23565b8484546159a5565b825550505050565b600090565b615a5f615a52565b615a6a818484615a2d565b505050565b5b81811015615a8e57615a83600082615a57565b600181019050615a70565b5050565b601f821115615ad357615aa481615973565b615aad84615988565b81016020851015615abc578190505b615ad0615ac885615988565b830182615a6f565b50505b505050565b600082821c905092915050565b6000615af660001984600802615ad8565b1980831691505092915050565b6000615b0f8383615ae5565b9150826002028217905092915050565b615b288261445a565b67ffffffffffffffff811115615b4157615b4061453b565b5b615b4b8254614ef1565b615b56828285615a92565b600060209050601f831160018114615b895760008415615b77578287015190505b615b818582615b03565b865550615be9565b601f198416615b9786615973565b60005b82811015615bbf57848901518255600182019150602085019450602081019050615b9a565b86831015615bdc5784890151615bd8601f891682615ae5565b8355505b6001600288020188555050505b505050505050565b600060a082019050615c066000830188614348565b615c136020830187614348565b615c206040830186614348565b615c2d6060830185614348565b615c3a6080830184614348565b9695505050505050565b7f455243313135353a2069647320616e6420616d6f756e7473206c656e6774682060008201527f6d69736d61746368000000000000000000000000000000000000000000000000602082015250565b6000615ca0602883614465565b9150615cab82615c44565b604082019050919050565b60006020820190508181036000830152615ccf81615c93565b9050919050565b7f455243313135353a207472616e7366657220746f20746865207a65726f20616460008201527f6472657373000000000000000000000000000000000000000000000000000000602082015250565b6000615d32602583614465565b9150615d3d82615cd6565b604082019050919050565b60006020820190508181036000830152615d6181615d25565b9050919050565b7f455243313135353a20696e73756666696369656e742062616c616e636520666f60008201527f72207472616e7366657200000000000000000000000000000000000000000000602082015250565b6000615dc4602a83614465565b9150615dcf82615d68565b604082019050919050565b60006020820190508181036000830152615df381615db7565b9050919050565b60006040820190508181036000830152615e1481856149dd565b90508181036020830152615e2881846149dd565b90509392505050565b7f455243313135353a206275726e2066726f6d20746865207a65726f206164647260008201527f6573730000000000000000000000000000000000000000000000000000000000602082015250565b6000615e8d602383614465565b9150615e9882615e31565b604082019050919050565b60006020820190508181036000830152615ebc81615e80565b9050919050565b7f455243313135353a206275726e20616d6f756e7420657863656564732062616c60008201527f616e636500000000000000000000000000000000000000000000000000000000602082015250565b6000615f1f602483614465565b9150615f2a82615ec3565b604082019050919050565b60006020820190508181036000830152615f4e81615f12565b9050919050565b7f455243313135353a2073657474696e6720617070726f76616c2073746174757360008201527f20666f722073656c660000000000000000000000000000000000000000000000602082015250565b6000615fb1602983614465565b9150615fbc82615f55565b604082019050919050565b60006020820190508181036000830152615fe081615fa4565b9050919050565b7f455243313135353a206d696e7420746f20746865207a65726f2061646472657360008201527f7300000000000000000000000000000000000000000000000000000000000000602082015250565b6000616043602183614465565b915061604e82615fe7565b604082019050919050565b6000602082019050818103600083015261607281616036565b9050919050565b600081519050919050565b600082825260208201905092915050565b60006160a082616079565b6160aa8185616084565b93506160ba818560208601614476565b6160c3816144a0565b840191505092915050565b600060a0820190506160e3600083018861450c565b6160f0602083018761450c565b818103604083015261610281866149dd565b9050818103606083015261611681856149dd565b9050818103608083015261612a8184616095565b90509695505050505050565b6000815190506161458161439e565b92915050565b6000602082840312156161615761616061426a565b5b600061616f84828501616136565b91505092915050565b60008160e01c9050919050565b600060033d11156161a45760046000803e6161a1600051616178565b90505b90565b600060443d10616234576161b9614260565b60043d036004823e80513d602482011167ffffffffffffffff821117156161e1575050616234565b808201805167ffffffffffffffff8111156161ff5750505050616234565b80602083010160043d03850181111561621c575050505050616234565b61622b8260200185018661456a565b82955050505050505b90565b7f455243313135353a207472616e7366657220746f206e6f6e2d4552433131353560008201527f526563656976657220696d706c656d656e746572000000000000000000000000602082015250565b6000616293603483614465565b915061629e82616237565b604082019050919050565b600060208201905081810360008301526162c281616286565b9050919050565b7f455243313135353a204552433131353552656365697665722072656a6563746560008201527f6420746f6b656e73000000000000000000000000000000000000000000000000602082015250565b6000616325602883614465565b9150616330826162c9565b604082019050919050565b6000602082019050818103600083015261635481616318565b9050919050565b600060a082019050616370600083018861450c565b61637d602083018761450c565b61638a6040830186614348565b6163976060830185614348565b81810360808301526163a98184616095565b9050969550505050505056fea26469706673582212206b6624af6b2df76a985d8786f0e84fbb65faeaea888bacb9bcac8d678cc778f564736f6c63430008110033a26469706673582212209d6dfb3501126f1100c189b3d734971eac0424e34f3fe9547c4eac40f5083a2c64736f6c63430008110033",
  "linkReferences": {},
  "deployedLinkReferences": {}
}