{
  "_format": "hh-sol-artifact-1",
  "contractName": "DualCurrencyBondPeriphery",
  "sourceName": "contracts/DualCurrencyBondPeriphery.sol",
  "abi": [
    {
      "inputs": [
        {
          "internalType": "address",
          "name": "sbt",
          "type": "address"
        },
        {
          "internalType": "address",
          "name": "db",
          "type": "address"
        }
      ],
      "stateMutability": "nonpayable",
      "type": "constructor"
    },
    {
      "anonymous": false,
      "inputs": [
        {
          "indexed": true,
          "internalType": "address",
          "name": "owner",
          "type": "address"
        },
        {
          "indexed": false,
          "internalType": "address",
          "name": "tokenA",
          "type": "address"
        },
        {
          "indexed": false,
          "internalType": "address",
          "name": "tokenB",
          "type": "address"
        }
      ],
      "name": "DualCurrencyBondFactoryInitialized",
      "type": "event"
    },
    {
      "inputs": [
        {
          "internalType": "string",
          "name": "uri",
          "type": "string"
        },
        {
          "internalType": "address",
          "name": "tokenA",
          "type": "address"
        },
        {
          "internalType": "address",
          "name": "tokenB",
          "type": "address"
        }
      ],
      "name": "createDualCurrencyBondFactory",
      "outputs": [
        {
          "internalType": "address",
          "name": "factory",
          "type": "address"
        }
      ],
      "stateMutability": "nonpayable",
      "type": "function"
    },
    {
      "inputs": [
        {
          "internalType": "address",
          "name": "token",
          "type": "address"
        }
      ],
      "name": "deregisterPriceFeed",
      "outputs": [],
      "stateMutability": "nonpayable",
      "type": "function"
    },
    {
      "inputs": [
        {
          "internalType": "address",
          "name": "caller",
          "type": "address"
        }
      ],
      "name": "dualCurrencyBondFactories",
      "outputs": [
        {
          "internalType": "address[]",
          "name": "",
          "type": "address[]"
        }
      ],
      "stateMutability": "view",
      "type": "function"
    },
    {
      "inputs": [
        {
          "internalType": "address",
          "name": "caller",
          "type": "address"
        },
        {
          "internalType": "address",
          "name": "tokenA",
          "type": "address"
        },
        {
          "internalType": "address",
          "name": "tokenB",
          "type": "address"
        }
      ],
      "name": "dualCurrencyBondFactoryIsInitialized",
      "outputs": [
        {
          "internalType": "bool",
          "name": "",
          "type": "bool"
        }
      ],
      "stateMutability": "view",
      "type": "function"
    },
    {
      "inputs": [],
      "name": "entities",
      "outputs": [
        {
          "internalType": "address[]",
          "name": "",
          "type": "address[]"
        }
      ],
      "stateMutability": "view",
      "type": "function"
    },
    {
      "inputs": [
        {
          "internalType": "address",
          "name": "caller",
          "type": "address"
        }
      ],
      "name": "isRegistered",
      "outputs": [
        {
          "internalType": "bool",
          "name": "",
          "type": "bool"
        }
      ],
      "stateMutability": "view",
      "type": "function"
    },
    {
      "inputs": [],
      "name": "owner",
      "outputs": [
        {
          "internalType": "address",
          "name": "",
          "type": "address"
        }
      ],
      "stateMutability": "view",
      "type": "function"
    },
    {
      "inputs": [],
      "name": "register",
      "outputs": [],
      "stateMutability": "nonpayable",
      "type": "function"
    },
    {
      "inputs": [
        {
          "internalType": "address",
          "name": "token",
          "type": "address"
        },
        {
          "internalType": "address",
          "name": "feed",
          "type": "address"
        }
      ],
      "name": "registerPriceFeed",
      "outputs": [],
      "stateMutability": "nonpayable",
      "type": "function"
    }
  ],
  "bytecode": "0x60e06040523480156200001157600080fd5b50604051620096e0380380620096e0833981810160405281019062000037919062000483565b3373ffffffffffffffffffffffffffffffffffffffff1660808173ffffffffffffffffffffffffffffffffffffffff16815250508173ffffffffffffffffffffffffffffffffffffffff1660a08173ffffffffffffffffffffffffffffffffffffffff16815250508073ffffffffffffffffffffffffffffffffffffffff1660c08173ffffffffffffffffffffffffffffffffffffffff1681525050730d79df66be487753b02d015fb622ded7f0e9798d600160007321c8a148933e6ca502b47d729a485579c22e8a6973ffffffffffffffffffffffffffffffffffffffff1673ffffffffffffffffffffffffffffffffffffffff16815260200190815260200160002060006101000a81548173ffffffffffffffffffffffffffffffffffffffff021916908373ffffffffffffffffffffffffffffffffffffffff16021790555073ab5c49580294aff77670f839ea425f5b78ab3ae7600160007307865c6e87b9f70255377e024ace6630c1eaa37f73ffffffffffffffffffffffffffffffffffffffff1673ffffffffffffffffffffffffffffffffffffffff16815260200190815260200160002060006101000a81548173ffffffffffffffffffffffffffffffffffffffff021916908373ffffffffffffffffffffffffffffffffffffffff16021790555073d4a33860578de61dbabdc8bfdb98fd742fa7028e6001600073b4fbf271143f4fbf7b91a5ded31805e42b2208d673ffffffffffffffffffffffffffffffffffffffff1673ffffffffffffffffffffffffffffffffffffffff16815260200190815260200160002060006101000a81548173ffffffffffffffffffffffffffffffffffffffff021916908373ffffffffffffffffffffffffffffffffffffffff1602179055507348731cf7e84dc94c5f84577882c14be11a5b74566001600073326c977e6efc84e512bb9c30f76e30c160ed06fb73ffffffffffffffffffffffffffffffffffffffff1673ffffffffffffffffffffffffffffffffffffffff16815260200190815260200160002060006101000a81548173ffffffffffffffffffffffffffffffffffffffff021916908373ffffffffffffffffffffffffffffffffffffffff16021790555073a39434a63a52e749f02807ae27335515ba4b07f760016000739c556b18d2370d4c44f3b3153d340d9abfd8d99573ffffffffffffffffffffffffffffffffffffffff1673ffffffffffffffffffffffffffffffffffffffff16815260200190815260200160002060006101000a81548173ffffffffffffffffffffffffffffffffffffffff021916908373ffffffffffffffffffffffffffffffffffffffff1602179055505050620004ca565b600080fd5b600073ffffffffffffffffffffffffffffffffffffffff82169050919050565b60006200044b826200041e565b9050919050565b6200045d816200043e565b81146200046957600080fd5b50565b6000815190506200047d8162000452565b92915050565b600080604083850312156200049d576200049c62000419565b5b6000620004ad858286016200046c565b9250506020620004c0858286016200046c565b9150509250929050565b60805160a05160c0516191bc62000524600039600081816107a101526109750152600081816102a00152818161038301528181610aed0152610c60015260008181610ed501528181610fe801526110fd01526191bc6000f3fe60806040523480156200001157600080fd5b5060043610620000a05760003560e01c80635166bc04116200006f5780635166bc04146200013f57806373cef189146200015f5780638da5cb5b146200017f578063c3298dec14620001a1578063c3c5a54714620001d757620000a0565b80631259ba2f14620000a55780631615fd0314620000db5780631aa3a00814620000fd578063310f72ec1462000109575b600080fd5b620000c36004803603810190620000bd91906200142f565b6200020d565b604051620000d29190620014bb565b60405180910390f35b620000e562000a5b565b604051620000f49190620015a6565b60405180910390f35b6200010762000aeb565b005b620001276004803603810190620001219190620015ca565b62000e01565b60405162000136919062001643565b60405180910390f35b6200015d600480360381019062000157919062001660565b62000ed3565b005b6200017d6004803603810190620001779190620016a7565b62000fe6565b005b62000189620010f9565b604051620001989190620014bb565b60405180910390f35b620001bf6004803603810190620001b99190620016a7565b62001121565b604051620001ce9190620015a6565b60405180910390f35b620001f56004803603810190620001ef9190620016a7565b620011f0565b60405162000204919062001643565b60405180910390f35b6000600260003373ffffffffffffffffffffffffffffffffffffffff1673ffffffffffffffffffffffffffffffffffffffff16815260200190815260200160002060009054906101000a900460ff166200029e576040517f08c379a000000000000000000000000000000000000000000000000000000000815260040162000295906200173a565b60405180910390fd5b7f000000000000000000000000000000000000000000000000000000000000000073ffffffffffffffffffffffffffffffffffffffff166339f920ab336040518263ffffffff1660e01b8152600401620002f99190620014bb565b602060405180830381865afa15801562000317573d6000803e3d6000fd5b505050506040513d601f19601f820116820180604052508101906200033d91906200178d565b6200037f576040517f08c379a000000000000000000000000000000000000000000000000000000000815260040162000376906200180f565b60405180910390fd5b60037f000000000000000000000000000000000000000000000000000000000000000073ffffffffffffffffffffffffffffffffffffffff1663b7caec87336040518263ffffffff1660e01b8152600401620003dc9190620014bb565b602060405180830381865afa158015620003fa573d6000803e3d6000fd5b505050506040513d601f19601f820116820180604052508101906200042091906200186f565b60ff16101562000467576040517f08c379a00000000000000000000000000000000000000000000000000000000081526004016200045e90620018f1565b60405180910390fd5b600073ffffffffffffffffffffffffffffffffffffffff16600160008573ffffffffffffffffffffffffffffffffffffffff1673ffffffffffffffffffffffffffffffffffffffff16815260200190815260200160002060009054906101000a900473ffffffffffffffffffffffffffffffffffffffff1673ffffffffffffffffffffffffffffffffffffffff1614158015620005905750600073ffffffffffffffffffffffffffffffffffffffff16600160008473ffffffffffffffffffffffffffffffffffffffff1673ffffffffffffffffffffffffffffffffffffffff16815260200190815260200160002060009054906101000a900473ffffffffffffffffffffffffffffffffffffffff1673ffffffffffffffffffffffffffffffffffffffff1614155b620005d2576040517f08c379a0000000000000000000000000000000000000000000000000000000008152600401620005c99062001963565b60405180910390fd5b600460003373ffffffffffffffffffffffffffffffffffffffff1673ffffffffffffffffffffffffffffffffffffffff16815260200190815260200160002060008473ffffffffffffffffffffffffffffffffffffffff1673ffffffffffffffffffffffffffffffffffffffff16815260200190815260200160002060008373ffffffffffffffffffffffffffffffffffffffff1673ffffffffffffffffffffffffffffffffffffffff16815260200190815260200160002060009054906101000a900460ff1615620006dc576040517f08c379a0000000000000000000000000000000000000000000000000000000008152600401620006d390620019d5565b60405180910390fd5b838383600160008773ffffffffffffffffffffffffffffffffffffffff1673ffffffffffffffffffffffffffffffffffffffff16815260200190815260200160002060009054906101000a900473ffffffffffffffffffffffffffffffffffffffff16600160008773ffffffffffffffffffffffffffffffffffffffff1673ffffffffffffffffffffffffffffffffffffffff16815260200190815260200160002060009054906101000a900473ffffffffffffffffffffffffffffffffffffffff167f000000000000000000000000000000000000000000000000000000000000000033604051620007cf9062001246565b620007e1979695949392919062001a6f565b604051809103906000f080158015620007fe573d6000803e3d6000fd5b509050600360003373ffffffffffffffffffffffffffffffffffffffff1673ffffffffffffffffffffffffffffffffffffffff168152602001908152602001600020819080600181540180825580915050600190039060005260206000200160009091909190916101000a81548173ffffffffffffffffffffffffffffffffffffffff021916908373ffffffffffffffffffffffffffffffffffffffff1602179055506001600460003373ffffffffffffffffffffffffffffffffffffffff1673ffffffffffffffffffffffffffffffffffffffff16815260200190815260200160002060008573ffffffffffffffffffffffffffffffffffffffff1673ffffffffffffffffffffffffffffffffffffffff16815260200190815260200160002060008473ffffffffffffffffffffffffffffffffffffffff1673ffffffffffffffffffffffffffffffffffffffff16815260200190815260200160002060006101000a81548160ff0219169083151502179055507f000000000000000000000000000000000000000000000000000000000000000073ffffffffffffffffffffffffffffffffffffffff1663783ff1f1826040518263ffffffff1660e01b8152600401620009ce9190620014bb565b600060405180830381600087803b158015620009e957600080fd5b505af1158015620009fe573d6000803e3d6000fd5b505050503373ffffffffffffffffffffffffffffffffffffffff167f21e8e58c9349a1cd30757f271c2466f1c34414f17db8d9d5e7948ef9947d7624848460405162000a4c92919062001af3565b60405180910390a29392505050565b6060600080548060200260200160405190810160405280929190818152602001828054801562000ae157602002820191906000526020600020905b8160009054906101000a900473ffffffffffffffffffffffffffffffffffffffff1673ffffffffffffffffffffffffffffffffffffffff168152602001906001019080831162000a96575b5050505050905090565b7f000000000000000000000000000000000000000000000000000000000000000073ffffffffffffffffffffffffffffffffffffffff166339f920ab336040518263ffffffff1660e01b815260040162000b469190620014bb565b602060405180830381865afa15801562000b64573d6000803e3d6000fd5b505050506040513d601f19601f8201168201806040525081019062000b8a91906200178d565b62000bcc576040517f08c379a000000000000000000000000000000000000000000000000000000000815260040162000bc3906200180f565b60405180910390fd5b600260003373ffffffffffffffffffffffffffffffffffffffff1673ffffffffffffffffffffffffffffffffffffffff16815260200190815260200160002060009054906101000a900460ff161562000c5c576040517f08c379a000000000000000000000000000000000000000000000000000000000815260040162000c539062001b70565b60405180910390fd5b60037f000000000000000000000000000000000000000000000000000000000000000073ffffffffffffffffffffffffffffffffffffffff1663b7caec87336040518263ffffffff1660e01b815260040162000cb99190620014bb565b602060405180830381865afa15801562000cd7573d6000803e3d6000fd5b505050506040513d601f19601f8201168201806040525081019062000cfd91906200186f565b60ff16101562000d44576040517f08c379a000000000000000000000000000000000000000000000000000000000815260040162000d3b90620018f1565b60405180910390fd5b6001600260003373ffffffffffffffffffffffffffffffffffffffff1673ffffffffffffffffffffffffffffffffffffffff16815260200190815260200160002060006101000a81548160ff0219169083151502179055506000339080600181540180825580915050600190039060005260206000200160009091909190916101000a81548173ffffffffffffffffffffffffffffffffffffffff021916908373ffffffffffffffffffffffffffffffffffffffff160217905550565b6000600460008573ffffffffffffffffffffffffffffffffffffffff1673ffffffffffffffffffffffffffffffffffffffff16815260200190815260200160002060008473ffffffffffffffffffffffffffffffffffffffff1673ffffffffffffffffffffffffffffffffffffffff16815260200190815260200160002060008373ffffffffffffffffffffffffffffffffffffffff1673ffffffffffffffffffffffffffffffffffffffff16815260200190815260200160002060009054906101000a900460ff1690509392505050565b7f000000000000000000000000000000000000000000000000000000000000000073ffffffffffffffffffffffffffffffffffffffff163373ffffffffffffffffffffffffffffffffffffffff161462000f64576040517f08c379a000000000000000000000000000000000000000000000000000000000815260040162000f5b9062001be2565b60405180910390fd5b80600160008473ffffffffffffffffffffffffffffffffffffffff1673ffffffffffffffffffffffffffffffffffffffff16815260200190815260200160002060006101000a81548173ffffffffffffffffffffffffffffffffffffffff021916908373ffffffffffffffffffffffffffffffffffffffff1602179055505050565b7f000000000000000000000000000000000000000000000000000000000000000073ffffffffffffffffffffffffffffffffffffffff163373ffffffffffffffffffffffffffffffffffffffff161462001077576040517f08c379a00000000000000000000000000000000000000000000000000000000081526004016200106e9062001be2565b60405180910390fd5b6000600160008373ffffffffffffffffffffffffffffffffffffffff1673ffffffffffffffffffffffffffffffffffffffff16815260200190815260200160002060006101000a81548173ffffffffffffffffffffffffffffffffffffffff021916908373ffffffffffffffffffffffffffffffffffffffff16021790555050565b60007f0000000000000000000000000000000000000000000000000000000000000000905090565b6060600360008373ffffffffffffffffffffffffffffffffffffffff1673ffffffffffffffffffffffffffffffffffffffff168152602001908152602001600020805480602002602001604051908101604052809291908181526020018280548015620011e457602002820191906000526020600020905b8160009054906101000a900473ffffffffffffffffffffffffffffffffffffffff1673ffffffffffffffffffffffffffffffffffffffff168152602001906001019080831162001199575b50505050509050919050565b6000600260008373ffffffffffffffffffffffffffffffffffffffff1673ffffffffffffffffffffffffffffffffffffffff16815260200190815260200160002060009054906101000a900460ff169050919050565b6175828062001c0583390190565b6000604051905090565b600080fd5b600080fd5b600080fd5b600080fd5b6000601f19601f8301169050919050565b7f4e487b7100000000000000000000000000000000000000000000000000000000600052604160045260246000fd5b620012bd8262001272565b810181811067ffffffffffffffff82111715620012df57620012de62001283565b5b80604052505050565b6000620012f462001254565b9050620013028282620012b2565b919050565b600067ffffffffffffffff82111562001325576200132462001283565b5b620013308262001272565b9050602081019050919050565b82818337600083830152505050565b6000620013636200135d8462001307565b620012e8565b9050828152602081018484840111156200138257620013816200126d565b5b6200138f8482856200133d565b509392505050565b600082601f830112620013af57620013ae62001268565b5b8135620013c18482602086016200134c565b91505092915050565b600073ffffffffffffffffffffffffffffffffffffffff82169050919050565b6000620013f782620013ca565b9050919050565b6200140981620013ea565b81146200141557600080fd5b50565b6000813590506200142981620013fe565b92915050565b6000806000606084860312156200144b576200144a6200125e565b5b600084013567ffffffffffffffff8111156200146c576200146b62001263565b5b6200147a8682870162001397565b93505060206200148d8682870162001418565b9250506040620014a08682870162001418565b9150509250925092565b620014b581620013ea565b82525050565b6000602082019050620014d26000830184620014aa565b92915050565b600081519050919050565b600082825260208201905092915050565b6000819050602082019050919050565b6200150f81620013ea565b82525050565b600062001523838362001504565b60208301905092915050565b6000602082019050919050565b60006200154982620014d8565b620015558185620014e3565b93506200156283620014f4565b8060005b83811015620015995781516200157d888262001515565b97506200158a836200152f565b92505060018101905062001566565b5085935050505092915050565b60006020820190508181036000830152620015c281846200153c565b905092915050565b600080600060608486031215620015e657620015e56200125e565b5b6000620015f68682870162001418565b9350506020620016098682870162001418565b92505060406200161c8682870162001418565b9150509250925092565b60008115159050919050565b6200163d8162001626565b82525050565b60006020820190506200165a600083018462001632565b92915050565b600080604083850312156200167a57620016796200125e565b5b60006200168a8582860162001418565b92505060206200169d8582860162001418565b9150509250929050565b600060208284031215620016c057620016bf6200125e565b5b6000620016d08482850162001418565b91505092915050565b600082825260208201905092915050565b7f4e52000000000000000000000000000000000000000000000000000000000000600082015250565b600062001722600283620016d9565b91506200172f82620016ea565b602082019050919050565b60006020820190508181036000830152620017558162001713565b9050919050565b620017678162001626565b81146200177357600080fd5b50565b60008151905062001787816200175c565b92915050565b600060208284031215620017a657620017a56200125e565b5b6000620017b68482850162001776565b91505092915050565b7f4e41535400000000000000000000000000000000000000000000000000000000600082015250565b6000620017f7600483620016d9565b91506200180482620017bf565b602082019050919050565b600060208201905081810360008301526200182a81620017e8565b9050919050565b600060ff82169050919050565b620018498162001831565b81146200185557600080fd5b50565b60008151905062001869816200183e565b92915050565b6000602082840312156200188857620018876200125e565b5b6000620018988482850162001858565b91505092915050565b7f4e56415400000000000000000000000000000000000000000000000000000000600082015250565b6000620018d9600483620016d9565b9150620018e682620018a1565b602082019050919050565b600060208201905081810360008301526200190c81620018ca565b9050919050565b7f4943500000000000000000000000000000000000000000000000000000000000600082015250565b60006200194b600383620016d9565b9150620019588262001913565b602082019050919050565b600060208201905081810360008301526200197e816200193c565b9050919050565b7f4149000000000000000000000000000000000000000000000000000000000000600082015250565b6000620019bd600283620016d9565b9150620019ca8262001985565b602082019050919050565b60006020820190508181036000830152620019f081620019ae565b9050919050565b600081519050919050565b60005b8381101562001a2257808201518184015260208101905062001a05565b60008484015250505050565b600062001a3b82620019f7565b62001a478185620016d9565b935062001a5981856020860162001a02565b62001a648162001272565b840191505092915050565b600060e082019050818103600083015262001a8b818a62001a2e565b905062001a9c6020830189620014aa565b62001aab6040830188620014aa565b62001aba6060830187620014aa565b62001ac96080830186620014aa565b62001ad860a0830185620014aa565b62001ae760c0830184620014aa565b98975050505050505050565b600060408201905062001b0a6000830185620014aa565b62001b196020830184620014aa565b9392505050565b7f4152000000000000000000000000000000000000000000000000000000000000600082015250565b600062001b58600283620016d9565b915062001b658262001b20565b602082019050919050565b6000602082019050818103600083015262001b8b8162001b49565b9050919050565b7f4e544f0000000000000000000000000000000000000000000000000000000000600082015250565b600062001bca600383620016d9565b915062001bd78262001b92565b602082019050919050565b6000602082019050818103600083015262001bfd8162001bbb565b905091905056fe6101406040523480156200001257600080fd5b5060405162007582380380620075828339818101604052810190620000389190620003cc565b866200004a81620001a960201b60201c565b508073ffffffffffffffffffffffffffffffffffffffff1660c08173ffffffffffffffffffffffffffffffffffffffff16815250508573ffffffffffffffffffffffffffffffffffffffff1660e08173ffffffffffffffffffffffffffffffffffffffff16815250508473ffffffffffffffffffffffffffffffffffffffff166101008173ffffffffffffffffffffffffffffffffffffffff16815250508173ffffffffffffffffffffffffffffffffffffffff166101208173ffffffffffffffffffffffffffffffffffffffff16815250508373ffffffffffffffffffffffffffffffffffffffff1660808173ffffffffffffffffffffffffffffffffffffffff16815250508273ffffffffffffffffffffffffffffffffffffffff1660a08173ffffffffffffffffffffffffffffffffffffffff16815250506200019c6003620001be60201b620039761760201c565b50505050505050620007d0565b8060029081620001ba9190620006e9565b5050565b6001816000016000828254019250508190555050565b6000604051905090565b600080fd5b600080fd5b600080fd5b600080fd5b6000601f19601f8301169050919050565b7f4e487b7100000000000000000000000000000000000000000000000000000000600052604160045260246000fd5b6200023d82620001f2565b810181811067ffffffffffffffff821117156200025f576200025e62000203565b5b80604052505050565b600062000274620001d4565b905062000282828262000232565b919050565b600067ffffffffffffffff821115620002a557620002a462000203565b5b620002b082620001f2565b9050602081019050919050565b60005b83811015620002dd578082015181840152602081019050620002c0565b60008484015250505050565b600062000300620002fa8462000287565b62000268565b9050828152602081018484840111156200031f576200031e620001ed565b5b6200032c848285620002bd565b509392505050565b600082601f8301126200034c576200034b620001e8565b5b81516200035e848260208601620002e9565b91505092915050565b600073ffffffffffffffffffffffffffffffffffffffff82169050919050565b6000620003948262000367565b9050919050565b620003a68162000387565b8114620003b257600080fd5b50565b600081519050620003c6816200039b565b92915050565b600080600080600080600060e0888a031215620003ee57620003ed620001de565b5b600088015167ffffffffffffffff8111156200040f576200040e620001e3565b5b6200041d8a828b0162000334565b9750506020620004308a828b01620003b5565b9650506040620004438a828b01620003b5565b9550506060620004568a828b01620003b5565b9450506080620004698a828b01620003b5565b93505060a06200047c8a828b01620003b5565b92505060c06200048f8a828b01620003b5565b91505092959891949750929550565b600081519050919050565b7f4e487b7100000000000000000000000000000000000000000000000000000000600052602260045260246000fd5b60006002820490506001821680620004f157607f821691505b602082108103620005075762000506620004a9565b5b50919050565b60008190508160005260206000209050919050565b60006020601f8301049050919050565b600082821b905092915050565b600060088302620005717fffffffffffffffffffffffffffffffffffffffffffffffffffffffffffffffff8262000532565b6200057d868362000532565b95508019841693508086168417925050509392505050565b6000819050919050565b6000819050919050565b6000620005ca620005c4620005be8462000595565b6200059f565b62000595565b9050919050565b6000819050919050565b620005e683620005a9565b620005fe620005f582620005d1565b8484546200053f565b825550505050565b600090565b6200061562000606565b62000622818484620005db565b505050565b5b818110156200064a576200063e6000826200060b565b60018101905062000628565b5050565b601f821115620006995762000663816200050d565b6200066e8462000522565b810160208510156200067e578190505b620006966200068d8562000522565b83018262000627565b50505b505050565b600082821c905092915050565b6000620006be600019846008026200069e565b1980831691505092915050565b6000620006d98383620006ab565b9150826002028217905092915050565b620006f4826200049e565b67ffffffffffffffff81111562000710576200070f62000203565b5b6200071c8254620004d8565b620007298282856200064e565b600060209050601f8311600181146200076157600084156200074c578287015190505b620007588582620006cb565b865550620007c8565b601f19841662000771866200050d565b60005b828110156200079b5784890151825560018201915060208501945060208101905062000774565b86831015620007bb5784890151620007b7601f891682620006ab565b8355505b6001600288020188555050505b505050505050565b60805160a05160c05160e0516101005161012051616c586200092a6000396000818161152c015281816115d701528181611937015281816119e401528181611ab301528181611b85015281816127cc01528181612877015281816137d7015261386301526000818161127301528181611e1c015281816120580152818161233f015281816129c401528181612c7801528181613031015261322c015260008181610d1e015281816110530152818161197401528181611a4201528181611b1101528181611bc201528181611c350152818161216a01528181612282015281816129250152613377015260008181610ec801528181611355015281816115680152818161161301528181611a2101528181611af00152818161252b01528181612808015281816128b301528181612f0e015281816130d6015281816134ce015261389f01526000611cfb0152600061129c0152616c586000f3fe608060405234801561001057600080fd5b50600436106102ba5760003560e01c806377e2a08b11610182578063aa81106c116100e9578063e2bbb158116100a2578063f0f3d7de1161007c578063f0f3d7de146109e1578063f23a6e61146109ff578063f242432a14610a2f578063fcbc669a14610a4b576102ba565b8063e2bbb15814610979578063e755ddd714610995578063e985e9c5146109b1576102ba565b8063aa81106c14610863578063abac75e114610893578063bc197c81146108c3578063c0a6026c146108f3578063d32fe02e1461090f578063d3b7811b14610949576102ba565b80638da5cb5b1161013b5780638da5cb5b1461078f5780638f0dbf77146107ad578063932a8de0146107dd5780639a3cee8e1461080d578063a22cb4651461082b578063a874302214610847576102ba565b806377e2a08b146106955780637a41984b146106c55780637bf24456146106f55780637cbc23731461071357806382afd23b1461072f57806388bdc0831461075f576102ba565b8063441a3e701161022657806364893aaf116101df57806364893aaf146105af5780636567dc4d146105df578063697e8c8c146105fb5780636ff80d931461062b57806370876c981461065b578063769d96eb14610677576102ba565b8063441a3e70146104d95780634556e49b146104f55780634e1273f414610513578063549493bb146105435780635f64b55b14610573578063634ef30314610591576102ba565b806314f294931161027857806314f29493146103cd5780632eb2c2d6146103fd5780632f2c6b32146104195780632f3ad61f146104495780633097afb81461047957806339e3af9b146104a9576102ba565b8062fdd58e146102bf57806301ffc9a7146102ef57806308913ce81461031f578063091490201461034f5780630e89341c1461037f5780630fc63d10146103af575b600080fd5b6102d960048036038101906102d49190614a2d565b610a7b565b6040516102e69190614a7c565b60405180910390f35b61030960048036038101906103049190614aef565b610b43565b6040516103169190614b37565b60405180910390f35b61033960048036038101906103349190614b52565b610c25565b6040516103469190614a7c565b60405180910390f35b61036960048036038101906103649190614b52565b610c50565b6040516103769190614b37565b60405180910390f35b61039960048036038101906103949190614b52565b610c86565b6040516103a69190614c0f565b60405180910390f35b6103b7610d1a565b6040516103c49190614c40565b60405180910390f35b6103e760048036038101906103e29190614b52565b610d42565b6040516103f49190614a7c565b60405180910390f35b61041760048036038101906104129190614e58565b610d80565b005b610433600480360381019061042e9190614b52565b610e21565b6040516104409190614a7c565b60405180910390f35b610463600480360381019061045e9190614b52565b610e3e565b6040516104709190614b37565b60405180910390f35b610493600480360381019061048e9190614b52565b610e68565b6040516104a09190614b37565b60405180910390f35b6104c360048036038101906104be9190614b52565b610ea1565b6040516104d09190614b37565b60405180910390f35b6104f360048036038101906104ee9190614f27565b610ec6565b005b6104fd6110f4565b60405161050a9190614a7c565b60405180910390f35b61052d6004803603810190610528919061502a565b611124565b60405161053a9190615160565b60405180910390f35b61055d60048036038101906105589190614b52565b61123d565b60405161056a9190614b37565b60405180910390f35b61057b61126f565b6040516105889190614c40565b60405180910390f35b610599611297565b6040516105a6919061519b565b60405180910390f35b6105c960048036038101906105c49190614b52565b611336565b6040516105d69190614a7c565b60405180910390f35b6105f960048036038101906105f49190614b52565b611353565b005b61061560048036038101906106109190614b52565b6116cc565b6040516106229190614a7c565b60405180910390f35b61064560048036038101906106409190614b52565b6116e9565b6040516106529190614b37565b60405180910390f35b61067560048036038101906106709190614f27565b611721565b005b61067f611cf6565b60405161068c919061519b565b60405180910390f35b6106af60048036038101906106aa9190614b52565b611d95565b6040516106bc9190614a7c565b60405180910390f35b6106df60048036038101906106da9190614b52565b611dee565b6040516106ec9190614b37565b60405180910390f35b6106fd611e18565b60405161070a9190614a7c565b60405180910390f35b61072d60048036038101906107289190614f27565b611eb9565b005b61074960048036038101906107449190614b52565b6124d9565b6040516107569190614b37565b60405180910390f35b61077960048036038101906107749190614b52565b6124fc565b6040516107869190614a7c565b60405180910390f35b610797612527565b6040516107a49190614c40565b60405180910390f35b6107c760048036038101906107c29190614b52565b61254f565b6040516107d49190614b37565b60405180910390f35b6107f760048036038101906107f29190614b52565b612571565b6040516108049190614a7c565b60405180910390f35b6108156125af565b6040516108229190614a7c565b60405180910390f35b610845600480360381019061084091906151e2565b6125cc565b005b610861600480360381019061085c9190614b52565b6125e2565b005b61087d60048036038101906108789190614b52565b612aac565b60405161088a9190614a7c565b60405180910390f35b6108ad60048036038101906108a89190614b52565b612ac9565b6040516108ba9190614a7c565b60405180910390f35b6108dd60048036038101906108d89190614e58565b612ae9565b6040516108ea9190615231565b60405180910390f35b61090d60048036038101906109089190614b52565b612afe565b005b61092960048036038101906109249190614b52565b612d57565b6040516109409b9a9998979695949392919061524c565b60405180910390f35b610963600480360381019061095e9190614b52565b612ee1565b6040516109709190614a7c565b60405180910390f35b610993600480360381019061098e9190614f27565b612f0c565b005b6109af60048036038101906109aa9190614b52565b6130d4565b005b6109cb60048036038101906109c691906152fe565b6132df565b6040516109d89190614b37565b60405180910390f35b6109e9613373565b6040516109f69190614a7c565b60405180910390f35b610a196004803603810190610a14919061533e565b613414565b604051610a269190615231565b60405180910390f35b610a496004803603810190610a44919061533e565b613429565b005b610a656004803603810190610a609190615430565b6134ca565b604051610a729190614a7c565b60405180910390f35b60008073ffffffffffffffffffffffffffffffffffffffff168373ffffffffffffffffffffffffffffffffffffffff1603610aeb576040517f08c379a0000000000000000000000000000000000000000000000000000000008152600401610ae290615564565b60405180910390fd5b60008083815260200190815260200160002060008473ffffffffffffffffffffffffffffffffffffffff1673ffffffffffffffffffffffffffffffffffffffff16815260200190815260200160002054905092915050565b60007fd9b67a26000000000000000000000000000000000000000000000000000000007bffffffffffffffffffffffffffffffffffffffffffffffffffffffff1916827bffffffffffffffffffffffffffffffffffffffffffffffffffffffff19161480610c0e57507f0e89341c000000000000000000000000000000000000000000000000000000007bffffffffffffffffffffffffffffffffffffffffffffffffffffffff1916827bffffffffffffffffffffffffffffffffffffffffffffffffffffffff1916145b80610c1e5750610c1d8261398c565b5b9050919050565b6000600460008381526020019081526020016000206003015442610c4991906155b3565b9050919050565b60006004600083815260200190815260200160002060090154600560008481526020019081526020016000205410159050919050565b606060028054610c9590615616565b80601f0160208091040260200160405190810160405280929190818152602001828054610cc190615616565b8015610d0e5780601f10610ce357610100808354040283529160200191610d0e565b820191906000526020600020905b815481529060010190602001808311610cf157829003601f168201915b50505050509050919050565b60007f0000000000000000000000000000000000000000000000000000000000000000905090565b600060056000838152602001908152602001600020546004600084815260200190815260200160002060020154610d799190615647565b9050919050565b610d886139f6565b73ffffffffffffffffffffffffffffffffffffffff168573ffffffffffffffffffffffffffffffffffffffff161480610dce5750610dcd85610dc86139f6565b6132df565b5b610e0d576040517f08c379a0000000000000000000000000000000000000000000000000000000008152600401610e04906156fb565b60405180910390fd5b610e1a85858585856139fe565b5050505050565b600060076000838152602001908152602001600020549050919050565b6000600c600083815260200190815260200160002060009054906101000a900460ff169050919050565b6000610e738261254f565b8015610e9a5750610e8382611d95565b600860008481526020019081526020016000205410155b9050919050565b6000610eac826124d9565b158015610ebf5750610ebd82610c50565b155b9050919050565b7f000000000000000000000000000000000000000000000000000000000000000073ffffffffffffffffffffffffffffffffffffffff163373ffffffffffffffffffffffffffffffffffffffff1614610f54576040517f08c379a0000000000000000000000000000000000000000000000000000000008152600401610f4b90615767565b60405180910390fd5b610f5d826124d9565b158015610f705750610f6e82610ea1565b155b8015610f925750610f8082610e3e565b80610f905750610f8f826116e9565b5b155b610fd1576040517f08c379a0000000000000000000000000000000000000000000000000000000008152600401610fc8906157d3565b60405180910390fd5b6007600083815260200190815260200160002054811115611027576040517f08c379a000000000000000000000000000000000000000000000000000000000815260040161101e9061583f565b60405180910390fd5b8060076000848152602001908152602001600020600082825461104a91906155b3565b925050819055507f000000000000000000000000000000000000000000000000000000000000000073ffffffffffffffffffffffffffffffffffffffff1663a9059cbb33836040518363ffffffff1660e01b81526004016110ac92919061585f565b6020604051808303816000875af11580156110cb573d6000803e3d6000fd5b505050506040513d601f19601f820116820180604052508101906110ef919061589d565b505050565b60006110fe611cf6565b633b9aca0061110b611297565b6111159190615647565b61111f91906158f9565b905090565b6060815183511461116a576040517f08c379a00000000000000000000000000000000000000000000000000000000081526004016111619061599c565b60405180910390fd5b6000835167ffffffffffffffff81111561118757611186614c60565b5b6040519080825280602002602001820160405280156111b55781602001602082028036833780820191505090505b50905060005b8451811015611232576112028582815181106111da576111d96159bc565b5b60200260200101518583815181106111f5576111f46159bc565b5b6020026020010151610a7b565b828281518110611215576112146159bc565b5b6020026020010181815250508061122b906159eb565b90506111bb565b508091505092915050565b600060056000838152602001908152602001600020546006600084815260200190815260200160002054149050919050565b60007f0000000000000000000000000000000000000000000000000000000000000000905090565b6000807f000000000000000000000000000000000000000000000000000000000000000073ffffffffffffffffffffffffffffffffffffffff1663feaf968c6040518163ffffffff1660e01b815260040160a060405180830381865afa158015611305573d6000803e3d6000fd5b505050506040513d601f19601f820116820180604052508101906113299190615ab6565b5050509150508091505090565b600060086000838152602001908152602001600020549050919050565b7f000000000000000000000000000000000000000000000000000000000000000073ffffffffffffffffffffffffffffffffffffffff163373ffffffffffffffffffffffffffffffffffffffff16146113e1576040517f08c379a00000000000000000000000000000000000000000000000000000000081526004016113d890615767565b60405180910390fd5b6113ea81611dee565b1580156113fd57506113fb81610e3e565b155b8015611423575061140d81611d95565b6008600083815260200190815260200160002054105b611462576040517f08c379a000000000000000000000000000000000000000000000000000000000815260040161145990615b7d565b60405180910390fd5b6000600760008381526020019081526020016000205490506000600860008481526020019081526020016000205490506005600084815260200190815260200160002054826114b191906158f9565b60096000858152602001908152602001600020819055506005600084815260200190815260200160002054816114e791906158f9565b600a6000858152602001908152602001600020819055506001600c600085815260200190815260200160002060006101000a81548160ff0219169083151502179055507f000000000000000000000000000000000000000000000000000000000000000073ffffffffffffffffffffffffffffffffffffffff1663dae382d67f00000000000000000000000000000000000000000000000000000000000000006040518263ffffffff1660e01b81526004016115a39190614c40565b600060405180830381600087803b1580156115bd57600080fd5b505af11580156115d1573d6000803e3d6000fd5b505050507f000000000000000000000000000000000000000000000000000000000000000073ffffffffffffffffffffffffffffffffffffffff1663d050a7c87f000000000000000000000000000000000000000000000000000000000000000060046040518363ffffffff1660e01b815260040161165192919061585f565b600060405180830381600087803b15801561166b57600080fd5b505af115801561167f573d6000803e3d6000fd5b50505050827fcd2c25949e23ea2647ca2c5809b025ee3aca0d82cfcb1d22a715398f5cf8db8e6116ae85611d95565b83856040516116bf93929190615b9d565b60405180910390a2505050565b600060076000838152602001908152602001600020549050919050565b60006116f48261254f565b801561171a575061170482611d95565b6008600084815260200190815260200160002054105b9050919050565b61172a826124d9565b611769576040517f08c379a000000000000000000000000000000000000000000000000000000000815260040161176090615c20565b60405180910390fd5b8061177383612571565b10156117b4576040517f08c379a00000000000000000000000000000000000000000000000000000000081526004016117ab90615c8c565b60405180910390fd5b600060046000848152602001908152602001600020604051806101600160405290816000820180546117e590615616565b80601f016020809104026020016040519081016040528092919081815260200182805461181190615616565b801561185e5780601f106118335761010080835404028352916020019161185e565b820191906000526020600020905b81548152906001019060200180831161184157829003601f168201915b50505050508152602001600182015481526020016002820154815260200160038201548152602001600482015481526020016005820154815260200160068201548152602001600782015481526020016008820154815260200160098201548152602001600a82015481525050905060008160200151836118df9190615647565b9050826005600086815260200190815260200160002060008282546119049190615cac565b925050819055508060076000868152602001908152602001600020600082825461192e9190615cac565b925050819055507f000000000000000000000000000000000000000000000000000000000000000073ffffffffffffffffffffffffffffffffffffffff1663576ff163827f00000000000000000000000000000000000000000000000000000000000000006040518363ffffffff1660e01b81526004016119b0929190615ce0565b600060405180830381600087803b1580156119ca57600080fd5b505af11580156119de573d6000803e3d6000fd5b505050507f000000000000000000000000000000000000000000000000000000000000000073ffffffffffffffffffffffffffffffffffffffff1663b8c2e4f3827f00000000000000000000000000000000000000000000000000000000000000007f00000000000000000000000000000000000000000000000000000000000000006040518463ffffffff1660e01b8152600401611a7f93929190615d09565b600060405180830381600087803b158015611a9957600080fd5b505af1158015611aad573d6000803e3d6000fd5b505050507f000000000000000000000000000000000000000000000000000000000000000073ffffffffffffffffffffffffffffffffffffffff16637db79a3d827f00000000000000000000000000000000000000000000000000000000000000007f000000000000000000000000000000000000000000000000000000000000000060046040518563ffffffff1660e01b8152600401611b519493929190615d40565b600060405180830381600087803b158015611b6b57600080fd5b505af1158015611b7f573d6000803e3d6000fd5b505050507f000000000000000000000000000000000000000000000000000000000000000073ffffffffffffffffffffffffffffffffffffffff1663b0b4dfaa827f000000000000000000000000000000000000000000000000000000000000000060046040518463ffffffff1660e01b8152600401611c0193929190615d85565b600060405180830381600087803b158015611c1b57600080fd5b505af1158015611c2f573d6000803e3d6000fd5b505050507f000000000000000000000000000000000000000000000000000000000000000073ffffffffffffffffffffffffffffffffffffffff166323b872dd3330846040518463ffffffff1660e01b8152600401611c9093929190615dbc565b6020604051808303816000875af1158015611caf573d6000803e3d6000fd5b505050506040513d601f19601f82011682018060405250810190611cd3919061589d565b50611cf03033868660405180602001604052806000815250613429565b50505050565b6000807f000000000000000000000000000000000000000000000000000000000000000073ffffffffffffffffffffffffffffffffffffffff1663feaf968c6040518163ffffffff1660e01b815260040160a060405180830381865afa158015611d64573d6000803e3d6000fd5b505050506040513d601f19601f82011682018060405250810190611d889190615ab6565b5050509150508091505090565b6000670de0b6b3a764000060046000848152602001908152602001600020600a0154611dc084610d42565b611dca9190615647565b611dd491906158f9565b611ddd83610d42565b611de79190615cac565b9050919050565b6000600d600083815260200190815260200160002060009054906101000a900460ff169050919050565b60007f000000000000000000000000000000000000000000000000000000000000000073ffffffffffffffffffffffffffffffffffffffff166370a08231306040518263ffffffff1660e01b8152600401611e739190614c40565b602060405180830381865afa158015611e90573d6000803e3d6000fd5b505050506040513d601f19601f82011682018060405250810190611eb49190615df3565b905090565b80611ec43384610a7b565b1015611f05576040517f08c379a0000000000000000000000000000000000000000000000000000000008152600401611efc90615c8c565b60405180910390fd5b611f0e82611dee565b80611f1e5750611f1d82610ea1565b5b80611f2e5750611f2d82610e3e565b5b611f6d576040517f08c379a0000000000000000000000000000000000000000000000000000000008152600401611f6490615e6c565b60405180910390fd5b6000806000611f7b85611dee565b15611f9f57600b600086815260200190815260200160002054915060009050612019565b611fa885610ea1565b15611fcf576004600086815260200190815260200160002060010154925060019050612018565b611fd885610e3e565b156120125760096000868152602001908152602001600020549250600a600086815260200190815260200160002054915060029050612017565b600080fd5b5b5b612024338686613d1f565b836006600087815260200190815260200160002060008282546120479190615cac565b9250508190555060008103612160577f000000000000000000000000000000000000000000000000000000000000000073ffffffffffffffffffffffffffffffffffffffff1663a9059cbb33600b600089815260200190815260200160002054876120b29190615647565b6040518363ffffffff1660e01b81526004016120cf92919061585f565b6020604051808303816000875af11580156120ee573d6000803e3d6000fd5b505050506040513d601f19601f82011682018060405250810190612112919061589d565b50600b600086815260200190815260200160002054846121329190615647565b60086000878152602001908152602001600020600082825461215491906155b3565b92505081905550612496565b60018103612278577f000000000000000000000000000000000000000000000000000000000000000073ffffffffffffffffffffffffffffffffffffffff1663a9059cbb336004600089815260200190815260200160002060010154876121c79190615647565b6040518363ffffffff1660e01b81526004016121e492919061585f565b6020604051808303816000875af1158015612203573d6000803e3d6000fd5b505050506040513d601f19601f82011682018060405250810190612227919061589d565b5060046000868152602001908152602001600020600101548461224a9190615647565b60076000878152602001908152602001600020600082825461226c91906155b3565b92505081905550612495565b6002810361248f577f000000000000000000000000000000000000000000000000000000000000000073ffffffffffffffffffffffffffffffffffffffff1663a9059cbb336009600089815260200190815260200160002054876122dc9190615647565b6040518363ffffffff1660e01b81526004016122f992919061585f565b6020604051808303816000875af1158015612318573d6000803e3d6000fd5b505050506040513d601f19601f8201168201806040525081019061233c919061589d565b507f000000000000000000000000000000000000000000000000000000000000000073ffffffffffffffffffffffffffffffffffffffff1663a9059cbb33600a600089815260200190815260200160002054876123999190615647565b6040518363ffffffff1660e01b81526004016123b692919061585f565b6020604051808303816000875af11580156123d5573d6000803e3d6000fd5b505050506040513d601f19601f820116820180604052508101906123f9919061589d565b506009600086815260200190815260200160002054846124199190615647565b60076000878152602001908152602001600020600082825461243b91906155b3565b92505081905550600a600086815260200190815260200160002054846124619190615647565b60086000878152602001908152602001600020600082825461248391906155b3565b92505081905550612494565b600080fd5b5b5b847fa5851b0172fdafd3dafe0e52ce051747548a4c642a2f22793c01faf228e130623386846040516124ca93929190615e8c565b60405180910390a25050505050565b600060046000838152602001908152602001600020600501544211159050919050565b600042600460008481526020019081526020016000206005015461252091906155b3565b9050919050565b60007f0000000000000000000000000000000000000000000000000000000000000000905090565b6000600460008381526020019081526020016000206004015442119050919050565b6000600560008381526020019081526020016000205460046000848152602001908152602001600020600801546125a891906155b3565b9050919050565b600060016125bd6003613f65565b6125c791906155b3565b905090565b6125de6125d76139f6565b8383613f73565b5050565b6125eb81611dee565b1580156125fe57506125fc81610e3e565b155b801561260f575061260e816116e9565b5b61264e576040517f08c379a000000000000000000000000000000000000000000000000000000000815260040161264590615f0f565b60405180910390fd5b60006107d0600760008481526020019081526020016000205461267191906158f9565b905060006107d0600860008581526020019081526020016000205461269691906158f9565b905060008260076000868152602001908152602001600020546126b991906155b3565b905060008260086000878152602001908152602001600020546126dc91906155b3565b90506005600086815260200190815260200160002054826126fd91906158f9565b600960008781526020019081526020016000208190555060056000868152602001908152602001600020548161273391906158f9565b600a6000878152602001908152602001600020819055508360076000878152602001908152602001600020600082825461276d91906155b3565b925050819055508260086000878152602001908152602001600020600082825461279791906155b3565b925050819055506001600c600087815260200190815260200160002060006101000a81548160ff0219169083151502179055507f000000000000000000000000000000000000000000000000000000000000000073ffffffffffffffffffffffffffffffffffffffff1663dae382d67f00000000000000000000000000000000000000000000000000000000000000006040518263ffffffff1660e01b81526004016128439190614c40565b600060405180830381600087803b15801561285d57600080fd5b505af1158015612871573d6000803e3d6000fd5b505050507f000000000000000000000000000000000000000000000000000000000000000073ffffffffffffffffffffffffffffffffffffffff1663d050a7c87f000000000000000000000000000000000000000000000000000000000000000060046040518363ffffffff1660e01b81526004016128f192919061585f565b600060405180830381600087803b15801561290b57600080fd5b505af115801561291f573d6000803e3d6000fd5b505050507f000000000000000000000000000000000000000000000000000000000000000073ffffffffffffffffffffffffffffffffffffffff1663a9059cbb33866040518363ffffffff1660e01b815260040161297e92919061585f565b6020604051808303816000875af115801561299d573d6000803e3d6000fd5b505050506040513d601f19601f820116820180604052508101906129c1919061589d565b507f000000000000000000000000000000000000000000000000000000000000000073ffffffffffffffffffffffffffffffffffffffff1663a9059cbb33856040518363ffffffff1660e01b8152600401612a1d92919061585f565b6020604051808303816000875af1158015612a3c573d6000803e3d6000fd5b505050506040513d601f19601f82011682018060405250810190612a60919061589d565b50847fcd2c25949e23ea2647ca2c5809b025ee3aca0d82cfcb1d22a715398f5cf8db8e612a8c87611d95565b8385604051612a9d93929190615b9d565b60405180910390a25050505050565b600060086000838152602001908152602001600020549050919050565b600060046000838152602001908152602001600020600a01549050919050565b600063bc197c8160e01b905095945050505050565b612b0781610e3e565b158015612b1a5750612b1881611dee565b155b8015612b2b5750612b2a81610e68565b5b612b6a576040517f08c379a0000000000000000000000000000000000000000000000000000000008152600401612b6190615f7b565b60405180910390fd5b6000612b7582611d95565b905060006103e882612b8791906158f9565b905060008183612b9791906155b3565b9050600560008581526020019081526020016000205481612bb891906158f9565b600b60008681526020019081526020016000208190555060006005600086815260200190815260200160002054600b600087815260200190815260200160002054612c039190615647565b82612c0e91906155b3565b905060008184612c1e9190615cac565b905080600860008881526020019081526020016000206000828254612c4391906155b3565b925050819055506001600d600088815260200190815260200160002060006101000a81548160ff0219169083151502179055507f000000000000000000000000000000000000000000000000000000000000000073ffffffffffffffffffffffffffffffffffffffff1663a9059cbb33836040518363ffffffff1660e01b8152600401612cd192919061585f565b6020604051808303816000875af1158015612cf0573d6000803e3d6000fd5b505050506040513d601f19601f82011682018060405250810190612d14919061589d565b50857fac2eeaf45d1b75aed6b3285cda3efb3c382cce02ba313558bbb90be57f8843e48685604051612d47929190615f9b565b60405180910390a2505050505050565b60606000806000806000806000806000806000600460008e815260200190815260200160002060405180610160016040529081600082018054612d9990615616565b80601f0160208091040260200160405190810160405280929190818152602001828054612dc590615616565b8015612e125780601f10612de757610100808354040283529160200191612e12565b820191906000526020600020905b815481529060010190602001808311612df557829003601f168201915b50505050508152602001600182015481526020016002820154815260200160038201548152602001600482015481526020016005820154815260200160068201548152602001600782015481526020016008820154815260200160098201548152602001600a820154815250509050806000015181602001518260400151836060015184608001518560a001518660c001518760e001518861010001518961012001518a61014001519b509b509b509b509b509b509b509b509b509b509b505091939597999b90929496989a50565b6000426004600084815260200190815260200160002060040154612f0591906155b3565b9050919050565b7f000000000000000000000000000000000000000000000000000000000000000073ffffffffffffffffffffffffffffffffffffffff163373ffffffffffffffffffffffffffffffffffffffff1614612f9a576040517f08c379a0000000000000000000000000000000000000000000000000000000008152600401612f9190615767565b60405180910390fd5b612fa382610e3e565b80612fb35750612fb2826116e9565b5b158015612fc65750612fc482611dee565b155b613005576040517f08c379a0000000000000000000000000000000000000000000000000000000008152600401612ffc90616010565b60405180910390fd5b806008600084815260200190815260200160002060008282546130289190615cac565b925050819055507f000000000000000000000000000000000000000000000000000000000000000073ffffffffffffffffffffffffffffffffffffffff166323b872dd3330846040518463ffffffff1660e01b815260040161308c93929190615dbc565b6020604051808303816000875af11580156130ab573d6000803e3d6000fd5b505050506040513d601f19601f820116820180604052508101906130cf919061589d565b505050565b7f000000000000000000000000000000000000000000000000000000000000000073ffffffffffffffffffffffffffffffffffffffff163373ffffffffffffffffffffffffffffffffffffffff1614613162576040517f08c379a000000000000000000000000000000000000000000000000000000000815260040161315990615767565b60405180910390fd5b61316b81611dee565b801561317c575061317b8161123d565b5b6131bb576040517f08c379a00000000000000000000000000000000000000000000000000000000081526004016131b2906157d3565b60405180910390fd5b6000600860008381526020019081526020016000205411613211576040517f08c379a00000000000000000000000000000000000000000000000000000000081526004016132089061607c565b60405180910390fd5b600060086000838152602001908152602001600020819055507f000000000000000000000000000000000000000000000000000000000000000073ffffffffffffffffffffffffffffffffffffffff1663a9059cbb3360086000858152602001908152602001600020546040518363ffffffff1660e01b815260040161329892919061585f565b6020604051808303816000875af11580156132b7573d6000803e3d6000fd5b505050506040513d601f19601f820116820180604052508101906132db919061589d565b5050565b6000600160008473ffffffffffffffffffffffffffffffffffffffff1673ffffffffffffffffffffffffffffffffffffffff16815260200190815260200160002060008373ffffffffffffffffffffffffffffffffffffffff1673ffffffffffffffffffffffffffffffffffffffff16815260200190815260200160002060009054906101000a900460ff16905092915050565b60007f000000000000000000000000000000000000000000000000000000000000000073ffffffffffffffffffffffffffffffffffffffff166370a08231306040518263ffffffff1660e01b81526004016133ce9190614c40565b602060405180830381865afa1580156133eb573d6000803e3d6000fd5b505050506040513d601f19601f8201168201806040525081019061340f9190615df3565b905090565b600063f23a6e6160e01b905095945050505050565b6134316139f6565b73ffffffffffffffffffffffffffffffffffffffff168573ffffffffffffffffffffffffffffffffffffffff1614806134775750613476856134716139f6565b6132df565b5b6134b6576040517f08c379a00000000000000000000000000000000000000000000000000000000081526004016134ad906156fb565b60405180910390fd5b6134c385858585856140df565b5050505050565b60007f000000000000000000000000000000000000000000000000000000000000000073ffffffffffffffffffffffffffffffffffffffff163373ffffffffffffffffffffffffffffffffffffffff161461355a576040517f08c379a000000000000000000000000000000000000000000000000000000000815260040161355190615767565b60405180910390fd5b88881061359c576040517f08c379a0000000000000000000000000000000000000000000000000000000008152600401613593906160e8565b60405180910390fd5b60b48410156135e0576040517f08c379a00000000000000000000000000000000000000000000000000000000081526004016135d790616154565b60405180910390fd5b6007831115613624576040517f08c379a000000000000000000000000000000000000000000000000000000000815260040161361b906161c0565b60405180910390fd5b61362e6003613f65565b905061363a6003613976565b61365530828b6040518060200160405280600081525061437a565b600061365f6110f4565b90506000633b9aca0089836136749190615647565b61367e91906158f9565b905060405180610160016040528089898080601f016020809104026020016040519081016040528093929190818152602001838380828437600081840152601f19601f8201169050808301925050505050505081526020018a815260200182815260200142815260200162015180886136f79190615647565b426137029190615cac565b815260200162015180876137169190615647565b426137219190615cac565b81526020018681526020018781526020018c81526020018b81526020018581525060046000858152602001908152602001600020600082015181600001908161376a919061638c565b506020820151816001015560408201518160020155606082015181600301556080820151816004015560a0820151816005015560c0820151816006015560e082015181600701556101008201518160080155610120820151816009015561014082015181600a01559050507f000000000000000000000000000000000000000000000000000000000000000073ffffffffffffffffffffffffffffffffffffffff1663b54cb16560046040518263ffffffff1660e01b815260040161382f9190614a7c565b600060405180830381600087803b15801561384957600080fd5b505af115801561385d573d6000803e3d6000fd5b505050507f000000000000000000000000000000000000000000000000000000000000000073ffffffffffffffffffffffffffffffffffffffff1663bea75cf47f000000000000000000000000000000000000000000000000000000000000000060046040518363ffffffff1660e01b81526004016138dd92919061585f565b600060405180830381600087803b1580156138f757600080fd5b505af115801561390b573d6000803e3d6000fd5b50505050827f3a10e10c16b4416f991fa4c931bcd0520986a7357f6ba95c4d92f806a4c1ebf38c8b8488620151808c6139449190615647565b4261394f9190615cac565b60405161396095949392919061645e565b60405180910390a2505098975050505050505050565b6001816000016000828254019250508190555050565b60007f01ffc9a7000000000000000000000000000000000000000000000000000000007bffffffffffffffffffffffffffffffffffffffffffffffffffffffff1916827bffffffffffffffffffffffffffffffffffffffffffffffffffffffff1916149050919050565b600033905090565b8151835114613a42576040517f08c379a0000000000000000000000000000000000000000000000000000000008152600401613a3990616523565b60405180910390fd5b600073ffffffffffffffffffffffffffffffffffffffff168473ffffffffffffffffffffffffffffffffffffffff1603613ab1576040517f08c379a0000000000000000000000000000000000000000000000000000000008152600401613aa8906165b5565b60405180910390fd5b6000613abb6139f6565b9050613acb81878787878761452a565b60005b8451811015613c7c576000858281518110613aec57613aeb6159bc565b5b602002602001015190506000858381518110613b0b57613b0a6159bc565b5b60200260200101519050600080600084815260200190815260200160002060008b73ffffffffffffffffffffffffffffffffffffffff1673ffffffffffffffffffffffffffffffffffffffff16815260200190815260200160002054905081811015613bac576040517f08c379a0000000000000000000000000000000000000000000000000000000008152600401613ba390616647565b60405180910390fd5b81810360008085815260200190815260200160002060008c73ffffffffffffffffffffffffffffffffffffffff1673ffffffffffffffffffffffffffffffffffffffff168152602001908152602001600020819055508160008085815260200190815260200160002060008b73ffffffffffffffffffffffffffffffffffffffff1673ffffffffffffffffffffffffffffffffffffffff1681526020019081526020016000206000828254613c619190615cac565b9250508190555050505080613c75906159eb565b9050613ace565b508473ffffffffffffffffffffffffffffffffffffffff168673ffffffffffffffffffffffffffffffffffffffff168273ffffffffffffffffffffffffffffffffffffffff167f4a39dc06d4c0dbc64b70af90fd698a233a518aa5d07e595d983b8c0526c8f7fb8787604051613cf3929190616667565b60405180910390a4613d09818787878787614532565b613d1781878787878761453a565b505050505050565b600073ffffffffffffffffffffffffffffffffffffffff168373ffffffffffffffffffffffffffffffffffffffff1603613d8e576040517f08c379a0000000000000000000000000000000000000000000000000000000008152600401613d8590616710565b60405180910390fd5b6000613d986139f6565b90506000613da584614711565b90506000613db284614711565b9050613dd28387600085856040518060200160405280600081525061452a565b600080600087815260200190815260200160002060008873ffffffffffffffffffffffffffffffffffffffff1673ffffffffffffffffffffffffffffffffffffffff16815260200190815260200160002054905084811015613e69576040517f08c379a0000000000000000000000000000000000000000000000000000000008152600401613e60906167a2565b60405180910390fd5b84810360008088815260200190815260200160002060008973ffffffffffffffffffffffffffffffffffffffff1673ffffffffffffffffffffffffffffffffffffffff16815260200190815260200160002081905550600073ffffffffffffffffffffffffffffffffffffffff168773ffffffffffffffffffffffffffffffffffffffff168573ffffffffffffffffffffffffffffffffffffffff167fc3d58168c5ae7397731d063d5bbf3d657854427343f4c083240f7aacaa2d0f628989604051613f36929190615f9b565b60405180910390a4613f5c84886000868660405180602001604052806000815250614532565b50505050505050565b600081600001549050919050565b8173ffffffffffffffffffffffffffffffffffffffff168373ffffffffffffffffffffffffffffffffffffffff1603613fe1576040517f08c379a0000000000000000000000000000000000000000000000000000000008152600401613fd890616834565b60405180910390fd5b80600160008573ffffffffffffffffffffffffffffffffffffffff1673ffffffffffffffffffffffffffffffffffffffff16815260200190815260200160002060008473ffffffffffffffffffffffffffffffffffffffff1673ffffffffffffffffffffffffffffffffffffffff16815260200190815260200160002060006101000a81548160ff0219169083151502179055508173ffffffffffffffffffffffffffffffffffffffff168373ffffffffffffffffffffffffffffffffffffffff167f17307eab39ab6107e8899845ad3d59bd9653f200f220920489ca2b5937696c31836040516140d29190614b37565b60405180910390a3505050565b600073ffffffffffffffffffffffffffffffffffffffff168473ffffffffffffffffffffffffffffffffffffffff160361414e576040517f08c379a0000000000000000000000000000000000000000000000000000000008152600401614145906165b5565b60405180910390fd5b60006141586139f6565b9050600061416585614711565b9050600061417285614711565b905061418283898985858961452a565b600080600088815260200190815260200160002060008a73ffffffffffffffffffffffffffffffffffffffff1673ffffffffffffffffffffffffffffffffffffffff16815260200190815260200160002054905085811015614219576040517f08c379a000000000000000000000000000000000000000000000000000000000815260040161421090616647565b60405180910390fd5b85810360008089815260200190815260200160002060008b73ffffffffffffffffffffffffffffffffffffffff1673ffffffffffffffffffffffffffffffffffffffff168152602001908152602001600020819055508560008089815260200190815260200160002060008a73ffffffffffffffffffffffffffffffffffffffff1673ffffffffffffffffffffffffffffffffffffffff16815260200190815260200160002060008282546142ce9190615cac565b925050819055508773ffffffffffffffffffffffffffffffffffffffff168973ffffffffffffffffffffffffffffffffffffffff168573ffffffffffffffffffffffffffffffffffffffff167fc3d58168c5ae7397731d063d5bbf3d657854427343f4c083240f7aacaa2d0f628a8a60405161434b929190615f9b565b60405180910390a4614361848a8a86868a614532565b61436f848a8a8a8a8a61478b565b505050505050505050565b600073ffffffffffffffffffffffffffffffffffffffff168473ffffffffffffffffffffffffffffffffffffffff16036143e9576040517f08c379a00000000000000000000000000000000000000000000000000000000081526004016143e0906168c6565b60405180910390fd5b60006143f36139f6565b9050600061440085614711565b9050600061440d85614711565b905061441e8360008985858961452a565b8460008088815260200190815260200160002060008973ffffffffffffffffffffffffffffffffffffffff1673ffffffffffffffffffffffffffffffffffffffff168152602001908152602001600020600082825461447d9190615cac565b925050819055508673ffffffffffffffffffffffffffffffffffffffff16600073ffffffffffffffffffffffffffffffffffffffff168473ffffffffffffffffffffffffffffffffffffffff167fc3d58168c5ae7397731d063d5bbf3d657854427343f4c083240f7aacaa2d0f6289896040516144fb929190615f9b565b60405180910390a461451283600089858589614532565b6145218360008989898961478b565b50505050505050565b505050505050565b505050505050565b6145598473ffffffffffffffffffffffffffffffffffffffff16614962565b15614709578373ffffffffffffffffffffffffffffffffffffffff1663bc197c8187878686866040518663ffffffff1660e01b815260040161459f95949392919061693b565b6020604051808303816000875af19250505080156145db57506040513d601f19601f820116820180604052508101906145d891906169b8565b60015b614680576145e76169f2565b806308c379a00361464357506145fb616a14565b806146065750614645565b806040517f08c379a000000000000000000000000000000000000000000000000000000000815260040161463a9190614c0f565b60405180910390fd5b505b6040517f08c379a000000000000000000000000000000000000000000000000000000000815260040161467790616b16565b60405180910390fd5b63bc197c8160e01b7bffffffffffffffffffffffffffffffffffffffffffffffffffffffff1916817bffffffffffffffffffffffffffffffffffffffffffffffffffffffff191614614707576040517f08c379a00000000000000000000000000000000000000000000000000000000081526004016146fe90616ba8565b60405180910390fd5b505b505050505050565b60606000600167ffffffffffffffff8111156147305761472f614c60565b5b60405190808252806020026020018201604052801561475e5781602001602082028036833780820191505090505b5090508281600081518110614776576147756159bc565b5b60200260200101818152505080915050919050565b6147aa8473ffffffffffffffffffffffffffffffffffffffff16614962565b1561495a578373ffffffffffffffffffffffffffffffffffffffff1663f23a6e6187878686866040518663ffffffff1660e01b81526004016147f0959493929190616bc8565b6020604051808303816000875af192505050801561482c57506040513d601f19601f8201168201806040525081019061482991906169b8565b60015b6148d1576148386169f2565b806308c379a003614894575061484c616a14565b806148575750614896565b806040517f08c379a000000000000000000000000000000000000000000000000000000000815260040161488b9190614c0f565b60405180910390fd5b505b6040517f08c379a00000000000000000000000000000000000000000000000000000000081526004016148c890616b16565b60405180910390fd5b63f23a6e6160e01b7bffffffffffffffffffffffffffffffffffffffffffffffffffffffff1916817bffffffffffffffffffffffffffffffffffffffffffffffffffffffff191614614958576040517f08c379a000000000000000000000000000000000000000000000000000000000815260040161494f90616ba8565b60405180910390fd5b505b505050505050565b6000808273ffffffffffffffffffffffffffffffffffffffff163b119050919050565b6000604051905090565b600080fd5b600080fd5b600073ffffffffffffffffffffffffffffffffffffffff82169050919050565b60006149c482614999565b9050919050565b6149d4816149b9565b81146149df57600080fd5b50565b6000813590506149f1816149cb565b92915050565b6000819050919050565b614a0a816149f7565b8114614a1557600080fd5b50565b600081359050614a2781614a01565b92915050565b60008060408385031215614a4457614a4361498f565b5b6000614a52858286016149e2565b9250506020614a6385828601614a18565b9150509250929050565b614a76816149f7565b82525050565b6000602082019050614a916000830184614a6d565b92915050565b60007fffffffff0000000000000000000000000000000000000000000000000000000082169050919050565b614acc81614a97565b8114614ad757600080fd5b50565b600081359050614ae981614ac3565b92915050565b600060208284031215614b0557614b0461498f565b5b6000614b1384828501614ada565b91505092915050565b60008115159050919050565b614b3181614b1c565b82525050565b6000602082019050614b4c6000830184614b28565b92915050565b600060208284031215614b6857614b6761498f565b5b6000614b7684828501614a18565b91505092915050565b600081519050919050565b600082825260208201905092915050565b60005b83811015614bb9578082015181840152602081019050614b9e565b60008484015250505050565b6000601f19601f8301169050919050565b6000614be182614b7f565b614beb8185614b8a565b9350614bfb818560208601614b9b565b614c0481614bc5565b840191505092915050565b60006020820190508181036000830152614c298184614bd6565b905092915050565b614c3a816149b9565b82525050565b6000602082019050614c556000830184614c31565b92915050565b600080fd5b7f4e487b7100000000000000000000000000000000000000000000000000000000600052604160045260246000fd5b614c9882614bc5565b810181811067ffffffffffffffff82111715614cb757614cb6614c60565b5b80604052505050565b6000614cca614985565b9050614cd68282614c8f565b919050565b600067ffffffffffffffff821115614cf657614cf5614c60565b5b602082029050602081019050919050565b600080fd5b6000614d1f614d1a84614cdb565b614cc0565b90508083825260208201905060208402830185811115614d4257614d41614d07565b5b835b81811015614d6b5780614d578882614a18565b845260208401935050602081019050614d44565b5050509392505050565b600082601f830112614d8a57614d89614c5b565b5b8135614d9a848260208601614d0c565b91505092915050565b600080fd5b600067ffffffffffffffff821115614dc357614dc2614c60565b5b614dcc82614bc5565b9050602081019050919050565b82818337600083830152505050565b6000614dfb614df684614da8565b614cc0565b905082815260208101848484011115614e1757614e16614da3565b5b614e22848285614dd9565b509392505050565b600082601f830112614e3f57614e3e614c5b565b5b8135614e4f848260208601614de8565b91505092915050565b600080600080600060a08688031215614e7457614e7361498f565b5b6000614e82888289016149e2565b9550506020614e93888289016149e2565b945050604086013567ffffffffffffffff811115614eb457614eb3614994565b5b614ec088828901614d75565b935050606086013567ffffffffffffffff811115614ee157614ee0614994565b5b614eed88828901614d75565b925050608086013567ffffffffffffffff811115614f0e57614f0d614994565b5b614f1a88828901614e2a565b9150509295509295909350565b60008060408385031215614f3e57614f3d61498f565b5b6000614f4c85828601614a18565b9250506020614f5d85828601614a18565b9150509250929050565b600067ffffffffffffffff821115614f8257614f81614c60565b5b602082029050602081019050919050565b6000614fa6614fa184614f67565b614cc0565b90508083825260208201905060208402830185811115614fc957614fc8614d07565b5b835b81811015614ff25780614fde88826149e2565b845260208401935050602081019050614fcb565b5050509392505050565b600082601f83011261501157615010614c5b565b5b8135615021848260208601614f93565b91505092915050565b600080604083850312156150415761504061498f565b5b600083013567ffffffffffffffff81111561505f5761505e614994565b5b61506b85828601614ffc565b925050602083013567ffffffffffffffff81111561508c5761508b614994565b5b61509885828601614d75565b9150509250929050565b600081519050919050565b600082825260208201905092915050565b6000819050602082019050919050565b6150d7816149f7565b82525050565b60006150e983836150ce565b60208301905092915050565b6000602082019050919050565b600061510d826150a2565b61511781856150ad565b9350615122836150be565b8060005b8381101561515357815161513a88826150dd565b9750615145836150f5565b925050600181019050615126565b5085935050505092915050565b6000602082019050818103600083015261517a8184615102565b905092915050565b6000819050919050565b61519581615182565b82525050565b60006020820190506151b0600083018461518c565b92915050565b6151bf81614b1c565b81146151ca57600080fd5b50565b6000813590506151dc816151b6565b92915050565b600080604083850312156151f9576151f861498f565b5b6000615207858286016149e2565b9250506020615218858286016151cd565b9150509250929050565b61522b81614a97565b82525050565b60006020820190506152466000830184615222565b92915050565b6000610160820190508181036000830152615267818e614bd6565b9050615276602083018d614a6d565b615283604083018c614a6d565b615290606083018b614a6d565b61529d608083018a614a6d565b6152aa60a0830189614a6d565b6152b760c0830188614a6d565b6152c460e0830187614a6d565b6152d2610100830186614a6d565b6152e0610120830185614a6d565b6152ee610140830184614a6d565b9c9b505050505050505050505050565b600080604083850312156153155761531461498f565b5b6000615323858286016149e2565b9250506020615334858286016149e2565b9150509250929050565b600080600080600060a0868803121561535a5761535961498f565b5b6000615368888289016149e2565b9550506020615379888289016149e2565b945050604061538a88828901614a18565b935050606061539b88828901614a18565b925050608086013567ffffffffffffffff8111156153bc576153bb614994565b5b6153c888828901614e2a565b9150509295509295909350565b600080fd5b60008083601f8401126153f0576153ef614c5b565b5b8235905067ffffffffffffffff81111561540d5761540c6153d5565b5b60208301915083600182028301111561542957615428614d07565b5b9250929050565b60008060008060008060008060e0898b0312156154505761544f61498f565b5b600061545e8b828c01614a18565b985050602061546f8b828c01614a18565b97505060406154808b828c01614a18565b965050606089013567ffffffffffffffff8111156154a1576154a0614994565b5b6154ad8b828c016153da565b955095505060806154c08b828c01614a18565b93505060a06154d18b828c01614a18565b92505060c06154e28b828c01614a18565b9150509295985092959890939650565b7f455243313135353a2061646472657373207a65726f206973206e6f742061207660008201527f616c6964206f776e657200000000000000000000000000000000000000000000602082015250565b600061554e602a83614b8a565b9150615559826154f2565b604082019050919050565b6000602082019050818103600083015261557d81615541565b9050919050565b7f4e487b7100000000000000000000000000000000000000000000000000000000600052601160045260246000fd5b60006155be826149f7565b91506155c9836149f7565b92508282039050818111156155e1576155e0615584565b5b92915050565b7f4e487b7100000000000000000000000000000000000000000000000000000000600052602260045260246000fd5b6000600282049050600182168061562e57607f821691505b602082108103615641576156406155e7565b5b50919050565b6000615652826149f7565b915061565d836149f7565b925082820261566b816149f7565b9150828204841483151761568257615681615584565b5b5092915050565b7f455243313135353a2063616c6c6572206973206e6f7420746f6b656e206f776e60008201527f6572206f7220617070726f766564000000000000000000000000000000000000602082015250565b60006156e5602e83614b8a565b91506156f082615689565b604082019050919050565b60006020820190508181036000830152615714816156d8565b9050919050565b7f4e544f0000000000000000000000000000000000000000000000000000000000600082015250565b6000615751600383614b8a565b915061575c8261571b565b602082019050919050565b6000602082019050818103600083015261578081615744565b9050919050565b7f574e410000000000000000000000000000000000000000000000000000000000600082015250565b60006157bd600383614b8a565b91506157c882615787565b602082019050919050565b600060208201905081810360008301526157ec816157b0565b9050919050565b7f5741450000000000000000000000000000000000000000000000000000000000600082015250565b6000615829600383614b8a565b9150615834826157f3565b602082019050919050565b600060208201905081810360008301526158588161581c565b9050919050565b60006040820190506158746000830185614c31565b6158816020830184614a6d565b9392505050565b600081519050615897816151b6565b92915050565b6000602082840312156158b3576158b261498f565b5b60006158c184828501615888565b91505092915050565b7f4e487b7100000000000000000000000000000000000000000000000000000000600052601260045260246000fd5b6000615904826149f7565b915061590f836149f7565b92508261591f5761591e6158ca565b5b828204905092915050565b7f455243313135353a206163636f756e747320616e6420696473206c656e67746860008201527f206d69736d617463680000000000000000000000000000000000000000000000602082015250565b6000615986602983614b8a565b91506159918261592a565b604082019050919050565b600060208201905081810360008301526159b581615979565b9050919050565b7f4e487b7100000000000000000000000000000000000000000000000000000000600052603260045260246000fd5b60006159f6826149f7565b91507fffffffffffffffffffffffffffffffffffffffffffffffffffffffffffffffff8203615a2857615a27615584565b5b600182019050919050565b600069ffffffffffffffffffff82169050919050565b615a5281615a33565b8114615a5d57600080fd5b50565b600081519050615a6f81615a49565b92915050565b615a7e81615182565b8114615a8957600080fd5b50565b600081519050615a9b81615a75565b92915050565b600081519050615ab081614a01565b92915050565b600080600080600060a08688031215615ad257615ad161498f565b5b6000615ae088828901615a60565b9550506020615af188828901615a8c565b9450506040615b0288828901615aa1565b9350506060615b1388828901615aa1565b9250506080615b2488828901615a60565b9150509295509295909350565b7f504d444e41000000000000000000000000000000000000000000000000000000600082015250565b6000615b67600583614b8a565b9150615b7282615b31565b602082019050919050565b60006020820190508181036000830152615b9681615b5a565b9050919050565b6000606082019050615bb26000830186614a6d565b615bbf6020830185614a6d565b615bcc6040830184614a6d565b949350505050565b7f4942000000000000000000000000000000000000000000000000000000000000600082015250565b6000615c0a600283614b8a565b9150615c1582615bd4565b602082019050919050565b60006020820190508181036000830152615c3981615bfd565b9050919050565b7f4951000000000000000000000000000000000000000000000000000000000000600082015250565b6000615c76600283614b8a565b9150615c8182615c40565b602082019050919050565b60006020820190508181036000830152615ca581615c69565b9050919050565b6000615cb7826149f7565b9150615cc2836149f7565b9250828201905080821115615cda57615cd9615584565b5b92915050565b6000604082019050615cf56000830185614a6d565b615d026020830184614c31565b9392505050565b6000606082019050615d1e6000830186614a6d565b615d2b6020830185614c31565b615d386040830184614c31565b949350505050565b6000608082019050615d556000830187614a6d565b615d626020830186614c31565b615d6f6040830185614c31565b615d7c6060830184614a6d565b95945050505050565b6000606082019050615d9a6000830186614a6d565b615da76020830185614c31565b615db46040830184614a6d565b949350505050565b6000606082019050615dd16000830186614c31565b615dde6020830185614c31565b615deb6040830184614a6d565b949350505050565b600060208284031215615e0957615e0861498f565b5b6000615e1784828501615aa1565b91505092915050565b7f524e410000000000000000000000000000000000000000000000000000000000600082015250565b6000615e56600383614b8a565b9150615e6182615e20565b602082019050919050565b60006020820190508181036000830152615e8581615e49565b9050919050565b6000606082019050615ea16000830186614c31565b615eae6020830185614a6d565b615ebb6040830184614a6d565b949350505050565b7f4d41444e41000000000000000000000000000000000000000000000000000000600082015250565b6000615ef9600583614b8a565b9150615f0482615ec3565b602082019050919050565b60006020820190508181036000830152615f2881615eec565b9050919050565b7f4d41434e41000000000000000000000000000000000000000000000000000000600082015250565b6000615f65600583614b8a565b9150615f7082615f2f565b602082019050919050565b60006020820190508181036000830152615f9481615f58565b9050919050565b6000604082019050615fb06000830185614a6d565b615fbd6020830184614a6d565b9392505050565b7f444e410000000000000000000000000000000000000000000000000000000000600082015250565b6000615ffa600383614b8a565b915061600582615fc4565b602082019050919050565b6000602082019050818103600083015261602981615fed565b9050919050565b7f5746450000000000000000000000000000000000000000000000000000000000600082015250565b6000616066600383614b8a565b915061607182616030565b602082019050919050565b6000602082019050818103600083015261609581616059565b9050919050565b7f4d50514754425100000000000000000000000000000000000000000000000000600082015250565b60006160d2600783614b8a565b91506160dd8261609c565b602082019050919050565b60006020820190508181036000830152616101816160c5565b9050919050565b7f4442364d00000000000000000000000000000000000000000000000000000000600082015250565b600061613e600483614b8a565b915061614982616108565b602082019050919050565b6000602082019050818103600083015261616d81616131565b9050919050565b7f4144413744000000000000000000000000000000000000000000000000000000600082015250565b60006161aa600583614b8a565b91506161b582616174565b602082019050919050565b600060208201905081810360008301526161d98161619d565b9050919050565b60008190508160005260206000209050919050565b60006020601f8301049050919050565b600082821b905092915050565b6000600883026162427fffffffffffffffffffffffffffffffffffffffffffffffffffffffffffffffff82616205565b61624c8683616205565b95508019841693508086168417925050509392505050565b6000819050919050565b600061628961628461627f846149f7565b616264565b6149f7565b9050919050565b6000819050919050565b6162a38361626e565b6162b76162af82616290565b848454616212565b825550505050565b600090565b6162cc6162bf565b6162d781848461629a565b505050565b5b818110156162fb576162f06000826162c4565b6001810190506162dd565b5050565b601f82111561634057616311816161e0565b61631a846161f5565b81016020851015616329578190505b61633d616335856161f5565b8301826162dc565b50505b505050565b600082821c905092915050565b600061636360001984600802616345565b1980831691505092915050565b600061637c8383616352565b9150826002028217905092915050565b61639582614b7f565b67ffffffffffffffff8111156163ae576163ad614c60565b5b6163b88254615616565b6163c38282856162ff565b600060209050601f8311600181146163f657600084156163e4578287015190505b6163ee8582616370565b865550616456565b601f198416616404866161e0565b60005b8281101561642c57848901518255600182019150602085019450602081019050616407565b868310156164495784890151616445601f891682616352565b8355505b6001600288020188555050505b505050505050565b600060a0820190506164736000830188614a6d565b6164806020830187614a6d565b61648d6040830186614a6d565b61649a6060830185614a6d565b6164a76080830184614a6d565b9695505050505050565b7f455243313135353a2069647320616e6420616d6f756e7473206c656e6774682060008201527f6d69736d61746368000000000000000000000000000000000000000000000000602082015250565b600061650d602883614b8a565b9150616518826164b1565b604082019050919050565b6000602082019050818103600083015261653c81616500565b9050919050565b7f455243313135353a207472616e7366657220746f20746865207a65726f20616460008201527f6472657373000000000000000000000000000000000000000000000000000000602082015250565b600061659f602583614b8a565b91506165aa82616543565b604082019050919050565b600060208201905081810360008301526165ce81616592565b9050919050565b7f455243313135353a20696e73756666696369656e742062616c616e636520666f60008201527f72207472616e7366657200000000000000000000000000000000000000000000602082015250565b6000616631602a83614b8a565b915061663c826165d5565b604082019050919050565b6000602082019050818103600083015261666081616624565b9050919050565b600060408201905081810360008301526166818185615102565b905081810360208301526166958184615102565b90509392505050565b7f455243313135353a206275726e2066726f6d20746865207a65726f206164647260008201527f6573730000000000000000000000000000000000000000000000000000000000602082015250565b60006166fa602383614b8a565b91506167058261669e565b604082019050919050565b60006020820190508181036000830152616729816166ed565b9050919050565b7f455243313135353a206275726e20616d6f756e7420657863656564732062616c60008201527f616e636500000000000000000000000000000000000000000000000000000000602082015250565b600061678c602483614b8a565b915061679782616730565b604082019050919050565b600060208201905081810360008301526167bb8161677f565b9050919050565b7f455243313135353a2073657474696e6720617070726f76616c2073746174757360008201527f20666f722073656c660000000000000000000000000000000000000000000000602082015250565b600061681e602983614b8a565b9150616829826167c2565b604082019050919050565b6000602082019050818103600083015261684d81616811565b9050919050565b7f455243313135353a206d696e7420746f20746865207a65726f2061646472657360008201527f7300000000000000000000000000000000000000000000000000000000000000602082015250565b60006168b0602183614b8a565b91506168bb82616854565b604082019050919050565b600060208201905081810360008301526168df816168a3565b9050919050565b600081519050919050565b600082825260208201905092915050565b600061690d826168e6565b61691781856168f1565b9350616927818560208601614b9b565b61693081614bc5565b840191505092915050565b600060a0820190506169506000830188614c31565b61695d6020830187614c31565b818103604083015261696f8186615102565b905081810360608301526169838185615102565b905081810360808301526169978184616902565b90509695505050505050565b6000815190506169b281614ac3565b92915050565b6000602082840312156169ce576169cd61498f565b5b60006169dc848285016169a3565b91505092915050565b60008160e01c9050919050565b600060033d1115616a115760046000803e616a0e6000516169e5565b90505b90565b600060443d10616aa157616a26614985565b60043d036004823e80513d602482011167ffffffffffffffff82111715616a4e575050616aa1565b808201805167ffffffffffffffff811115616a6c5750505050616aa1565b80602083010160043d038501811115616a89575050505050616aa1565b616a9882602001850186614c8f565b82955050505050505b90565b7f455243313135353a207472616e7366657220746f206e6f6e2d4552433131353560008201527f526563656976657220696d706c656d656e746572000000000000000000000000602082015250565b6000616b00603483614b8a565b9150616b0b82616aa4565b604082019050919050565b60006020820190508181036000830152616b2f81616af3565b9050919050565b7f455243313135353a204552433131353552656365697665722072656a6563746560008201527f6420746f6b656e73000000000000000000000000000000000000000000000000602082015250565b6000616b92602883614b8a565b9150616b9d82616b36565b604082019050919050565b60006020820190508181036000830152616bc181616b85565b9050919050565b600060a082019050616bdd6000830188614c31565b616bea6020830187614c31565b616bf76040830186614a6d565b616c046060830185614a6d565b8181036080830152616c168184616902565b9050969550505050505056fea264697066735822122081a89db54462c66f9fdc71f1483abbbfe0cae72e2d823e1a7c37d9d027263d2f64736f6c63430008110033a264697066735822122014b3fb5e29966ac637959313942cddd244db9a07a844863a9275a80b71bce4a564736f6c63430008110033",
  "linkReferences": {},
  "deployedLinkReferences": {}
}