{
	"contracts/BondDB.sol": {
		"BondDB": {
			"abi": [
				{
					"inputs": [],
					"stateMutability": "nonpayable",
					"type": "constructor"
				},
				{
					"inputs": [
						{
							"internalType": "address",
							"name": "company",
							"type": "address"
						},
						{
							"internalType": "address",
							"name": "token",
							"type": "address"
						}
					],
					"name": "fundsRaisedByCompanyAndToken",
					"outputs": [
						{
							"internalType": "uint256",
							"name": "",
							"type": "uint256"
						}
					],
					"stateMutability": "view",
					"type": "function"
				},
				{
					"inputs": [
						{
							"internalType": "address",
							"name": "company",
							"type": "address"
						},
						{
							"internalType": "address",
							"name": "token",
							"type": "address"
						},
						{
							"internalType": "uint256",
							"name": "category",
							"type": "uint256"
						}
					],
					"name": "fundsRaisedByCompanyAndTokenAndCategory",
					"outputs": [
						{
							"internalType": "uint256",
							"name": "",
							"type": "uint256"
						}
					],
					"stateMutability": "view",
					"type": "function"
				},
				{
					"inputs": [
						{
							"internalType": "address",
							"name": "token",
							"type": "address"
						}
					],
					"name": "fundsRaisedByToken",
					"outputs": [
						{
							"internalType": "uint256",
							"name": "",
							"type": "uint256"
						}
					],
					"stateMutability": "view",
					"type": "function"
				},
				{
					"inputs": [
						{
							"internalType": "address",
							"name": "token",
							"type": "address"
						},
						{
							"internalType": "uint256",
							"name": "category",
							"type": "uint256"
						}
					],
					"name": "fundsRaisedByTokenAndCategory",
					"outputs": [
						{
							"internalType": "uint256",
							"name": "",
							"type": "uint256"
						}
					],
					"stateMutability": "view",
					"type": "function"
				},
				{
					"inputs": [
						{
							"internalType": "uint256",
							"name": "amount",
							"type": "uint256"
						},
						{
							"internalType": "address",
							"name": "company",
							"type": "address"
						},
						{
							"internalType": "address",
							"name": "token",
							"type": "address"
						}
					],
					"name": "incrementFundsRaisedByCompanyAndToken",
					"outputs": [],
					"stateMutability": "nonpayable",
					"type": "function"
				},
				{
					"inputs": [
						{
							"internalType": "uint256",
							"name": "amount",
							"type": "uint256"
						},
						{
							"internalType": "address",
							"name": "company",
							"type": "address"
						},
						{
							"internalType": "address",
							"name": "token",
							"type": "address"
						},
						{
							"internalType": "uint256",
							"name": "category",
							"type": "uint256"
						}
					],
					"name": "incrementFundsRaisedByCompanyAndTokenAndCategory",
					"outputs": [],
					"stateMutability": "nonpayable",
					"type": "function"
				},
				{
					"inputs": [
						{
							"internalType": "uint256",
							"name": "amount",
							"type": "uint256"
						},
						{
							"internalType": "address",
							"name": "token",
							"type": "address"
						}
					],
					"name": "incrementFundsRaisedByToken",
					"outputs": [],
					"stateMutability": "nonpayable",
					"type": "function"
				},
				{
					"inputs": [
						{
							"internalType": "uint256",
							"name": "amount",
							"type": "uint256"
						},
						{
							"internalType": "address",
							"name": "token",
							"type": "address"
						},
						{
							"internalType": "uint256",
							"name": "category",
							"type": "uint256"
						}
					],
					"name": "incrementFundsRaisedByTokenAndCategory",
					"outputs": [],
					"stateMutability": "nonpayable",
					"type": "function"
				},
				{
					"inputs": [
						{
							"internalType": "uint256",
							"name": "category",
							"type": "uint256"
						}
					],
					"name": "incrementNumberOfIssuedBondsByCategory",
					"outputs": [],
					"stateMutability": "nonpayable",
					"type": "function"
				},
				{
					"inputs": [
						{
							"internalType": "address",
							"name": "company",
							"type": "address"
						},
						{
							"internalType": "uint256",
							"name": "category",
							"type": "uint256"
						}
					],
					"name": "incrementNumberOfIssuedBondsByCompanyAndCategory",
					"outputs": [],
					"stateMutability": "nonpayable",
					"type": "function"
				},
				{
					"inputs": [
						{
							"internalType": "address",
							"name": "company",
							"type": "address"
						}
					],
					"name": "incrementNumberOfTimesDefaultedByCompany",
					"outputs": [],
					"stateMutability": "nonpayable",
					"type": "function"
				},
				{
					"inputs": [
						{
							"internalType": "address",
							"name": "company",
							"type": "address"
						},
						{
							"internalType": "uint256",
							"name": "category",
							"type": "uint256"
						}
					],
					"name": "incrementNumberOfTimesDefaultedByCompanyAndCategory",
					"outputs": [],
					"stateMutability": "nonpayable",
					"type": "function"
				},
				{
					"inputs": [
						{
							"internalType": "address",
							"name": "account",
							"type": "address"
						}
					],
					"name": "isFactory",
					"outputs": [
						{
							"internalType": "bool",
							"name": "",
							"type": "bool"
						}
					],
					"stateMutability": "view",
					"type": "function"
				},
				{
					"inputs": [
						{
							"internalType": "address",
							"name": "account",
							"type": "address"
						}
					],
					"name": "isPeriphery",
					"outputs": [
						{
							"internalType": "bool",
							"name": "",
							"type": "bool"
						}
					],
					"stateMutability": "view",
					"type": "function"
				},
				{
					"inputs": [
						{
							"internalType": "uint256",
							"name": "category",
							"type": "uint256"
						}
					],
					"name": "numberOfIssuedBondsByCategory",
					"outputs": [
						{
							"internalType": "uint256",
							"name": "",
							"type": "uint256"
						}
					],
					"stateMutability": "view",
					"type": "function"
				},
				{
					"inputs": [
						{
							"internalType": "address",
							"name": "company",
							"type": "address"
						},
						{
							"internalType": "uint256",
							"name": "category",
							"type": "uint256"
						}
					],
					"name": "numberOfIssuedBondsByCompanyAndCategory",
					"outputs": [
						{
							"internalType": "uint256",
							"name": "",
							"type": "uint256"
						}
					],
					"stateMutability": "view",
					"type": "function"
				},
				{
					"inputs": [
						{
							"internalType": "address",
							"name": "company",
							"type": "address"
						}
					],
					"name": "numberOfTimesDefaultedByCompany",
					"outputs": [
						{
							"internalType": "uint256",
							"name": "",
							"type": "uint256"
						}
					],
					"stateMutability": "view",
					"type": "function"
				},
				{
					"inputs": [
						{
							"internalType": "address",
							"name": "company",
							"type": "address"
						},
						{
							"internalType": "uint256",
							"name": "category",
							"type": "uint256"
						}
					],
					"name": "numberOfTimesDefaultedByCompanyAndCategory",
					"outputs": [
						{
							"internalType": "uint256",
							"name": "",
							"type": "uint256"
						}
					],
					"stateMutability": "view",
					"type": "function"
				},
				{
					"inputs": [],
					"name": "owner",
					"outputs": [
						{
							"internalType": "address",
							"name": "",
							"type": "address"
						}
					],
					"stateMutability": "view",
					"type": "function"
				},
				{
					"inputs": [
						{
							"internalType": "address",
							"name": "factory",
							"type": "address"
						}
					],
					"name": "registerFactory",
					"outputs": [],
					"stateMutability": "nonpayable",
					"type": "function"
				},
				{
					"inputs": [
						{
							"internalType": "address[]",
							"name": "peripheries",
							"type": "address[]"
						}
					],
					"name": "registerPeriphery",
					"outputs": [],
					"stateMutability": "nonpayable",
					"type": "function"
				}
			],
			"devdoc": {
				"kind": "dev",
				"methods": {},
				"version": 1
			},
			"evm": {
				"assembly": "    /* \"contracts/BondDB.sol\":769:6086  contract BondDB {... */\n  mstore(0x40, 0xa0)\n    /* \"contracts/BondDB.sol\":1563:1613  constructor() {... */\n  callvalue\n  dup1\n  iszero\n  tag_1\n  jumpi\n  0x00\n  dup1\n  revert\ntag_1:\n  pop\n    /* \"contracts/BondDB.sol\":1596:1606  msg.sender */\n  caller\n    /* \"contracts/BondDB.sol\":1587:1606  _owner = msg.sender */\n  0x80\n  mstore\n    /* \"contracts/BondDB.sol\":769:6086  contract BondDB {... */\n  mload(0x80)\n  codecopy(0x00, dataOffset(sub_0), dataSize(sub_0))\n  0x00\n  assignImmutable(\"0x13600b294191fc92924bb3ce4b969c1e7e2bab8f4c93c3fc6d0a51733df3c060\")\n  return(0x00, dataSize(sub_0))\nstop\n\nsub_0: assembly {\n        /* \"contracts/BondDB.sol\":769:6086  contract BondDB {... */\n      mstore(0x40, 0x80)\n      callvalue\n      dup1\n      iszero\n      tag_1\n      jumpi\n      0x00\n      dup1\n      revert\n    tag_1:\n      pop\n      jumpi(tag_2, lt(calldatasize, 0x04))\n      shr(0xe0, calldataload(0x00))\n      dup1\n      0x8fcfa775\n      gt\n      tag_24\n      jumpi\n      dup1\n      0xba6b8973\n      gt\n      tag_25\n      jumpi\n      dup1\n      0xba6b8973\n      eq\n      tag_18\n      jumpi\n      dup1\n      0xbea75cf4\n      eq\n      tag_19\n      jumpi\n      dup1\n      0xd050a7c8\n      eq\n      tag_20\n      jumpi\n      dup1\n      0xdaa30298\n      eq\n      tag_21\n      jumpi\n      dup1\n      0xdae382d6\n      eq\n      tag_22\n      jumpi\n      dup1\n      0xe4cdc1ad\n      eq\n      tag_23\n      jumpi\n      0x00\n      dup1\n      revert\n    tag_25:\n      dup1\n      0x8fcfa775\n      eq\n      tag_13\n      jumpi\n      dup1\n      0x94fb7881\n      eq\n      tag_14\n      jumpi\n      dup1\n      0xb0b4dfaa\n      eq\n      tag_15\n      jumpi\n      dup1\n      0xb54cb165\n      eq\n      tag_16\n      jumpi\n      dup1\n      0xb8c2e4f3\n      eq\n      tag_17\n      jumpi\n      0x00\n      dup1\n      revert\n    tag_24:\n      dup1\n      0x7c1edb9d\n      gt\n      tag_26\n      jumpi\n      dup1\n      0x7c1edb9d\n      eq\n      tag_8\n      jumpi\n      dup1\n      0x7db79a3d\n      eq\n      tag_9\n      jumpi\n      dup1\n      0x7edd4d4d\n      eq\n      tag_10\n      jumpi\n      dup1\n      0x8052ce11\n      eq\n      tag_11\n      jumpi\n      dup1\n      0x8da5cb5b\n      eq\n      tag_12\n      jumpi\n      0x00\n      dup1\n      revert\n    tag_26:\n      dup1\n      0x0f04ba67\n      eq\n      tag_3\n      jumpi\n      dup1\n      0x36721cd4\n      eq\n      tag_4\n      jumpi\n      dup1\n      0x576ff163\n      eq\n      tag_5\n      jumpi\n      dup1\n      0x59ed43e2\n      eq\n      tag_6\n      jumpi\n      dup1\n      0x783ff1f1\n      eq\n      tag_7\n      jumpi\n    tag_2:\n      0x00\n      dup1\n      revert\n        /* \"contracts/BondDB.sol\":4384:4490  function isFactory(address account) public view returns (bool) {... */\n    tag_3:\n      tag_27\n      tag_28\n      calldatasize\n      0x04\n      tag_29\n      jump\t// in\n    tag_28:\n      sub(shl(0xa0, 0x01), 0x01)\n        /* \"contracts/BondDB.sol\":4464:4483  _isFactory[account] */\n      and\n        /* \"contracts/BondDB.sol\":4441:4445  bool */\n      0x00\n        /* \"contracts/BondDB.sol\":4464:4483  _isFactory[account] */\n      swap1\n      dup2\n      mstore\n        /* \"contracts/BondDB.sol\":4464:4474  _isFactory */\n      0x01\n        /* \"contracts/BondDB.sol\":4464:4483  _isFactory[account] */\n      0x20\n      mstore\n      0x40\n      swap1\n      keccak256\n      sload\n      0xff\n      and\n      swap1\n        /* \"contracts/BondDB.sol\":4384:4490  function isFactory(address account) public view returns (bool) {... */\n      jump\n    tag_27:\n      mload(0x40)\n        /* \"#utility.yul\":548:562   */\n      swap1\n      iszero\n        /* \"#utility.yul\":541:563   */\n      iszero\n        /* \"#utility.yul\":523:564   */\n      dup2\n      mstore\n        /* \"#utility.yul\":511:513   */\n      0x20\n        /* \"#utility.yul\":496:514   */\n      add\n        /* \"contracts/BondDB.sol\":4384:4490  function isFactory(address account) public view returns (bool) {... */\n    tag_31:\n      mload(0x40)\n      dup1\n      swap2\n      sub\n      swap1\n      return\n        /* \"contracts/BondDB.sol\":4496:4619  function fundsRaisedByToken(address token) public view returns (uint256) {... */\n    tag_4:\n      tag_33\n      tag_34\n      calldatasize\n      0x04\n      tag_29\n      jump\t// in\n    tag_34:\n      sub(shl(0xa0, 0x01), 0x01)\n        /* \"contracts/BondDB.sol\":4586:4612  _fundsRaisedByToken[token] */\n      and\n        /* \"contracts/BondDB.sol\":4560:4567  uint256 */\n      0x00\n        /* \"contracts/BondDB.sol\":4586:4612  _fundsRaisedByToken[token] */\n      swap1\n      dup2\n      mstore\n        /* \"contracts/BondDB.sol\":4586:4605  _fundsRaisedByToken */\n      0x02\n        /* \"contracts/BondDB.sol\":4586:4612  _fundsRaisedByToken[token] */\n      0x20\n      mstore\n      0x40\n      swap1\n      keccak256\n      sload\n      swap1\n        /* \"contracts/BondDB.sol\":4496:4619  function fundsRaisedByToken(address token) public view returns (uint256) {... */\n      jump\n    tag_33:\n      mload(0x40)\n        /* \"#utility.yul\":721:746   */\n      swap1\n      dup2\n      mstore\n        /* \"#utility.yul\":709:711   */\n      0x20\n        /* \"#utility.yul\":694:712   */\n      add\n        /* \"contracts/BondDB.sol\":4496:4619  function fundsRaisedByToken(address token) public view returns (uint256) {... */\n      tag_31\n        /* \"#utility.yul\":575:752   */\n      jump\n        /* \"contracts/BondDB.sol\":2005:2211  function incrementFundsRaisedByToken(uint256 amount, address token) public {... */\n    tag_5:\n      tag_38\n      tag_39\n      calldatasize\n      0x04\n      tag_40\n      jump\t// in\n    tag_39:\n      tag_41\n      jump\t// in\n    tag_38:\n      stop\n        /* \"contracts/BondDB.sol\":5859:6084  function numberOfTimesDefaultedByCompanyAndCategory(... */\n    tag_6:\n      tag_33\n      tag_43\n      calldatasize\n      0x04\n      tag_44\n      jump\t// in\n    tag_43:\n      tag_45\n      jump\t// in\n        /* \"contracts/BondDB.sol\":1857:1999  function registerFactory(address factory) public {... */\n    tag_7:\n      tag_38\n      tag_48\n      calldatasize\n      0x04\n      tag_29\n      jump\t// in\n    tag_48:\n      tag_49\n      jump\t// in\n        /* \"contracts/BondDB.sol\":4625:4820  function fundsRaisedByTokenAndCategory(... */\n    tag_8:\n      tag_33\n      tag_51\n      calldatasize\n      0x04\n      tag_44\n      jump\t// in\n    tag_51:\n      sub(shl(0xa0, 0x01), 0x01)\n        /* \"contracts/BondDB.sol\":4766:4803  _fundsRaisedByTokenAndCategory[token] */\n      swap2\n      swap1\n      swap2\n      and\n        /* \"contracts/BondDB.sol\":4740:4747  uint256 */\n      0x00\n        /* \"contracts/BondDB.sol\":4766:4803  _fundsRaisedByTokenAndCategory[token] */\n      swap1\n      dup2\n      mstore\n        /* \"contracts/BondDB.sol\":4766:4796  _fundsRaisedByTokenAndCategory */\n      0x03\n        /* \"contracts/BondDB.sol\":4766:4803  _fundsRaisedByTokenAndCategory[token] */\n      0x20\n      swap1\n      dup2\n      mstore\n      0x40\n      dup1\n      dup4\n      keccak256\n        /* \"contracts/BondDB.sol\":4766:4813  _fundsRaisedByTokenAndCategory[token][category] */\n      swap4\n      dup4\n      mstore\n      swap3\n      swap1\n      mstore\n      keccak256\n      sload\n      swap1\n        /* \"contracts/BondDB.sol\":4625:4820  function fundsRaisedByTokenAndCategory(... */\n      jump\n        /* \"contracts/BondDB.sol\":2797:3159  function incrementFundsRaisedByCompanyAndTokenAndCategory(... */\n    tag_9:\n      tag_38\n      tag_55\n      calldatasize\n      0x04\n      tag_56\n      jump\t// in\n    tag_55:\n      tag_57\n      jump\t// in\n        /* \"contracts/BondDB.sol\":4826:5017  function fundsRaisedByCompanyAndToken(... */\n    tag_10:\n      tag_33\n      tag_59\n      calldatasize\n      0x04\n      tag_60\n      jump\t// in\n    tag_59:\n      sub(shl(0xa0, 0x01), 0x01)\n        /* \"contracts/BondDB.sol\":4965:5003  _fundsRaisedByCompanyAndToken[company] */\n      swap2\n      dup3\n      and\n        /* \"contracts/BondDB.sol\":4939:4946  uint256 */\n      0x00\n        /* \"contracts/BondDB.sol\":4965:5003  _fundsRaisedByCompanyAndToken[company] */\n      swap1\n      dup2\n      mstore\n        /* \"contracts/BondDB.sol\":4965:4994  _fundsRaisedByCompanyAndToken */\n      0x04\n        /* \"contracts/BondDB.sol\":4965:5003  _fundsRaisedByCompanyAndToken[company] */\n      0x20\n      swap1\n      dup2\n      mstore\n      0x40\n      dup1\n      dup4\n      keccak256\n        /* \"contracts/BondDB.sol\":4965:5010  _fundsRaisedByCompanyAndToken[company][token] */\n      swap4\n      swap1\n      swap5\n      and\n      dup3\n      mstore\n      swap2\n      swap1\n      swap2\n      mstore\n      keccak256\n      sload\n      swap1\n        /* \"contracts/BondDB.sol\":4826:5017  function fundsRaisedByCompanyAndToken(... */\n      jump\n        /* \"contracts/BondDB.sol\":5290:5455  function numberOfIssuedBondsByCategory(... */\n    tag_11:\n      tag_33\n      tag_64\n      calldatasize\n      0x04\n      tag_65\n      jump\t// in\n    tag_64:\n        /* \"contracts/BondDB.sol\":5382:5389  uint256 */\n      0x00\n        /* \"contracts/BondDB.sol\":5408:5448  _numberOfIssuedBondsByCategory[category] */\n      swap1\n      dup2\n      mstore\n        /* \"contracts/BondDB.sol\":5408:5438  _numberOfIssuedBondsByCategory */\n      0x06\n        /* \"contracts/BondDB.sol\":5408:5448  _numberOfIssuedBondsByCategory[category] */\n      0x20\n      mstore\n      0x40\n      swap1\n      keccak256\n      sload\n      swap1\n        /* \"contracts/BondDB.sol\":5290:5455  function numberOfIssuedBondsByCategory(... */\n      jump\n        /* \"contracts/BondDB.sol\":4185:4262  function owner() public view returns (address) {... */\n    tag_12:\n      mload(0x40)\n      sub(shl(0xa0, 0x01), 0x01)\n        /* \"contracts/BondDB.sol\":4249:4255  _owner */\n      immutable(\"0x13600b294191fc92924bb3ce4b969c1e7e2bab8f4c93c3fc6d0a51733df3c060\")\n        /* \"#utility.yul\":2291:2323   */\n      and\n        /* \"#utility.yul\":2273:2324   */\n      dup2\n      mstore\n        /* \"#utility.yul\":2261:2263   */\n      0x20\n        /* \"#utility.yul\":2246:2264   */\n      add\n        /* \"contracts/BondDB.sol\":4185:4262  function owner() public view returns (address) {... */\n      tag_31\n        /* \"#utility.yul\":2127:2330   */\n      jump\n        /* \"contracts/BondDB.sol\":4268:4378  function isPeriphery(address account) public view returns (bool) {... */\n    tag_13:\n      tag_27\n      tag_73\n      calldatasize\n      0x04\n      tag_29\n      jump\t// in\n    tag_73:\n      sub(shl(0xa0, 0x01), 0x01)\n        /* \"contracts/BondDB.sol\":4350:4371  _isPeriphery[account] */\n      and\n        /* \"contracts/BondDB.sol\":4327:4331  bool */\n      0x00\n        /* \"contracts/BondDB.sol\":4350:4371  _isPeriphery[account] */\n      swap1\n      dup2\n      mstore\n      0x20\n      dup2\n      swap1\n      mstore\n      0x40\n      swap1\n      keccak256\n      sload\n      0xff\n      and\n      swap1\n        /* \"contracts/BondDB.sol\":4268:4378  function isPeriphery(address account) public view returns (bool) {... */\n      jump\n        /* \"contracts/BondDB.sol\":5686:5853  function numberOfTimesDefaultedByCompany(... */\n    tag_14:\n      tag_33\n      tag_77\n      calldatasize\n      0x04\n      tag_29\n      jump\t// in\n    tag_77:\n      sub(shl(0xa0, 0x01), 0x01)\n        /* \"contracts/BondDB.sol\":5805:5846  _numberOfTimesDefaultedByCompany[company] */\n      and\n        /* \"contracts/BondDB.sol\":5779:5786  uint256 */\n      0x00\n        /* \"contracts/BondDB.sol\":5805:5846  _numberOfTimesDefaultedByCompany[company] */\n      swap1\n      dup2\n      mstore\n        /* \"contracts/BondDB.sol\":5805:5837  _numberOfTimesDefaultedByCompany */\n      0x08\n        /* \"contracts/BondDB.sol\":5805:5846  _numberOfTimesDefaultedByCompany[company] */\n      0x20\n      mstore\n      0x40\n      swap1\n      keccak256\n      sload\n      swap1\n        /* \"contracts/BondDB.sol\":5686:5853  function numberOfTimesDefaultedByCompany(... */\n      jump\n        /* \"contracts/BondDB.sol\":2217:2503  function incrementFundsRaisedByTokenAndCategory(... */\n    tag_15:\n      tag_38\n      tag_81\n      calldatasize\n      0x04\n      tag_82\n      jump\t// in\n    tag_81:\n      tag_83\n      jump\t// in\n        /* \"contracts/BondDB.sol\":3165:3378  function incrementNumberOfIssuedBondsByCategory(uint256 category) public {... */\n    tag_16:\n      tag_38\n      tag_85\n      calldatasize\n      0x04\n      tag_65\n      jump\t// in\n    tag_85:\n      tag_86\n      jump\t// in\n        /* \"contracts/BondDB.sol\":2509:2791  function incrementFundsRaisedByCompanyAndToken(... */\n    tag_17:\n      tag_38\n      tag_88\n      calldatasize\n      0x04\n      tag_89\n      jump\t// in\n    tag_88:\n      tag_90\n      jump\t// in\n        /* \"contracts/BondDB.sol\":5461:5680  function numberOfIssuedBondsByCompanyAndCategory(... */\n    tag_18:\n      tag_33\n      tag_92\n      calldatasize\n      0x04\n      tag_44\n      jump\t// in\n    tag_92:\n      sub(shl(0xa0, 0x01), 0x01)\n        /* \"contracts/BondDB.sol\":5614:5663  _numberOfIssuedBondsByCompanyAndCategory[company] */\n      swap2\n      swap1\n      swap2\n      and\n        /* \"contracts/BondDB.sol\":5588:5595  uint256 */\n      0x00\n        /* \"contracts/BondDB.sol\":5614:5663  _numberOfIssuedBondsByCompanyAndCategory[company] */\n      swap1\n      dup2\n      mstore\n        /* \"contracts/BondDB.sol\":5614:5654  _numberOfIssuedBondsByCompanyAndCategory */\n      0x07\n        /* \"contracts/BondDB.sol\":5614:5663  _numberOfIssuedBondsByCompanyAndCategory[company] */\n      0x20\n      swap1\n      dup2\n      mstore\n      0x40\n      dup1\n      dup4\n      keccak256\n        /* \"contracts/BondDB.sol\":5614:5673  _numberOfIssuedBondsByCompanyAndCategory[company][category] */\n      swap4\n      dup4\n      mstore\n      swap3\n      swap1\n      mstore\n      keccak256\n      sload\n      swap1\n        /* \"contracts/BondDB.sol\":5461:5680  function numberOfIssuedBondsByCompanyAndCategory(... */\n      jump\n        /* \"contracts/BondDB.sol\":3384:3665  function incrementNumberOfIssuedBondsByCompanyAndCategory(... */\n    tag_19:\n      tag_38\n      tag_96\n      calldatasize\n      0x04\n      tag_44\n      jump\t// in\n    tag_96:\n      tag_97\n      jump\t// in\n        /* \"contracts/BondDB.sol\":3892:4179  function incrementNumberOfTimesDefaultedByCompanyAndCategory(... */\n    tag_20:\n      tag_38\n      tag_99\n      calldatasize\n      0x04\n      tag_44\n      jump\t// in\n    tag_99:\n      tag_100\n      jump\t// in\n        /* \"contracts/BondDB.sol\":5023:5284  function fundsRaisedByCompanyAndTokenAndCategory(... */\n    tag_21:\n      tag_33\n      tag_102\n      calldatasize\n      0x04\n      tag_103\n      jump\t// in\n    tag_102:\n      sub(shl(0xa0, 0x01), 0x01)\n        /* \"contracts/BondDB.sol\":5211:5260  _fundsRaisedByCompanyAndTokenAndCategory[company] */\n      swap3\n      dup4\n      and\n        /* \"contracts/BondDB.sol\":5173:5180  uint256 */\n      0x00\n        /* \"contracts/BondDB.sol\":5211:5260  _fundsRaisedByCompanyAndTokenAndCategory[company] */\n      swap1\n      dup2\n      mstore\n        /* \"contracts/BondDB.sol\":5211:5251  _fundsRaisedByCompanyAndTokenAndCategory */\n      0x05\n        /* \"contracts/BondDB.sol\":5211:5260  _fundsRaisedByCompanyAndTokenAndCategory[company] */\n      0x20\n      swap1\n      dup2\n      mstore\n      0x40\n      dup1\n      dup4\n      keccak256\n        /* \"contracts/BondDB.sol\":5211:5267  _fundsRaisedByCompanyAndTokenAndCategory[company][token] */\n      swap5\n      swap1\n      swap6\n      and\n      dup3\n      mstore\n      swap3\n      dup4\n      mstore\n      dup4\n      dup2\n      keccak256\n        /* \"contracts/BondDB.sol\":5211:5277  _fundsRaisedByCompanyAndTokenAndCategory[company][token][category] */\n      swap2\n      dup2\n      mstore\n      swap2\n      mstore\n      keccak256\n      sload\n      swap1\n        /* \"contracts/BondDB.sol\":5023:5284  function fundsRaisedByCompanyAndTokenAndCategory(... */\n      jump\n        /* \"contracts/BondDB.sol\":3671:3886  function incrementNumberOfTimesDefaultedByCompany(address company) public {... */\n    tag_22:\n      tag_38\n      tag_107\n      calldatasize\n      0x04\n      tag_29\n      jump\t// in\n    tag_107:\n      tag_108\n      jump\t// in\n        /* \"contracts/BondDB.sol\":1619:1851  function registerPeriphery(address[] memory peripheries) public {... */\n    tag_23:\n      tag_38\n      tag_110\n      calldatasize\n      0x04\n      tag_111\n      jump\t// in\n    tag_110:\n      tag_112\n      jump\t// in\n        /* \"contracts/BondDB.sol\":2005:2211  function incrementFundsRaisedByToken(uint256 amount, address token) public {... */\n    tag_41:\n        /* \"contracts/BondDB.sol\":2109:2119  msg.sender */\n      caller\n        /* \"contracts/BondDB.sol\":2098:2120  _isFactory[msg.sender] */\n      0x00\n      swap1\n      dup2\n      mstore\n        /* \"contracts/BondDB.sol\":2098:2108  _isFactory */\n      0x01\n        /* \"contracts/BondDB.sol\":2098:2120  _isFactory[msg.sender] */\n      0x20\n      mstore\n      0x40\n      swap1\n      keccak256\n      sload\n      0xff\n      and\n      dup1\n        /* \"contracts/BondDB.sol\":2098:2148  _isFactory[msg.sender] || _isPeriphery[msg.sender] */\n      tag_116\n      jumpi\n      pop\n        /* \"contracts/BondDB.sol\":2137:2147  msg.sender */\n      caller\n        /* \"contracts/BondDB.sol\":2124:2136  _isPeriphery */\n      0x00\n        /* \"contracts/BondDB.sol\":2124:2148  _isPeriphery[msg.sender] */\n      swap1\n      dup2\n      mstore\n      0x20\n      dup2\n      swap1\n      mstore\n      0x40\n      swap1\n      keccak256\n      sload\n      0xff\n      and\n        /* \"contracts/BondDB.sol\":2098:2148  _isFactory[msg.sender] || _isPeriphery[msg.sender] */\n    tag_116:\n        /* \"contracts/BondDB.sol\":2090:2158  require(_isFactory[msg.sender] || _isPeriphery[msg.sender], \"NAPOF\") */\n      tag_117\n      jumpi\n      mload(0x40)\n      shl(0xe5, 0x461bcd)\n      dup2\n      mstore\n      0x04\n      add\n      tag_118\n      swap1\n      tag_119\n      jump\t// in\n    tag_118:\n      mload(0x40)\n      dup1\n      swap2\n      sub\n      swap1\n      revert\n    tag_117:\n      sub(shl(0xa0, 0x01), 0x01)\n        /* \"contracts/BondDB.sol\":2168:2194  _fundsRaisedByToken[token] */\n      dup2\n      and\n      0x00\n      swap1\n      dup2\n      mstore\n        /* \"contracts/BondDB.sol\":2168:2187  _fundsRaisedByToken */\n      0x02\n        /* \"contracts/BondDB.sol\":2168:2194  _fundsRaisedByToken[token] */\n      0x20\n      mstore\n      0x40\n      dup2\n      keccak256\n        /* \"contracts/BondDB.sol\":2168:2204  _fundsRaisedByToken[token] += amount */\n      dup1\n      sload\n        /* \"contracts/BondDB.sol\":2198:2204  amount */\n      dup5\n      swap3\n        /* \"contracts/BondDB.sol\":2168:2194  _fundsRaisedByToken[token] */\n      swap1\n        /* \"contracts/BondDB.sol\":2168:2204  _fundsRaisedByToken[token] += amount */\n      tag_120\n      swap1\n        /* \"contracts/BondDB.sol\":2198:2204  amount */\n      dup5\n      swap1\n        /* \"contracts/BondDB.sol\":2168:2204  _fundsRaisedByToken[token] += amount */\n      tag_121\n      jump\t// in\n    tag_120:\n      swap1\n      swap2\n      sstore\n      pop\n      pop\n      pop\n      pop\n        /* \"contracts/BondDB.sol\":2005:2211  function incrementFundsRaisedByToken(uint256 amount, address token) public {... */\n      jump\t// out\n        /* \"contracts/BondDB.sol\":5859:6084  function numberOfTimesDefaultedByCompanyAndCategory(... */\n    tag_45:\n      sub(shl(0xa0, 0x01), 0x01)\n        /* \"contracts/BondDB.sol\":6015:6067  _numberOfTimesDefaultedByCompanyAndCategory[company] */\n      dup3\n      and\n        /* \"contracts/BondDB.sol\":5989:5996  uint256 */\n      0x00\n        /* \"contracts/BondDB.sol\":6015:6067  _numberOfTimesDefaultedByCompanyAndCategory[company] */\n      swap1\n      dup2\n      mstore\n        /* \"contracts/BondDB.sol\":6015:6058  _numberOfTimesDefaultedByCompanyAndCategory */\n      0x09\n        /* \"contracts/BondDB.sol\":6015:6067  _numberOfTimesDefaultedByCompanyAndCategory[company] */\n      0x20\n      swap1\n      dup2\n      mstore\n      0x40\n      dup1\n      dup4\n      keccak256\n        /* \"contracts/BondDB.sol\":6015:6077  _numberOfTimesDefaultedByCompanyAndCategory[company][category] */\n      dup5\n      dup5\n      mstore\n      swap1\n      swap2\n      mstore\n      swap1\n      keccak256\n      sload\n        /* \"contracts/BondDB.sol\":5859:6084  function numberOfTimesDefaultedByCompanyAndCategory(... */\n    tag_122:\n      swap3\n      swap2\n      pop\n      pop\n      jump\t// out\n        /* \"contracts/BondDB.sol\":1857:1999  function registerFactory(address factory) public {... */\n    tag_49:\n        /* \"contracts/BondDB.sol\":1937:1947  msg.sender */\n      caller\n        /* \"contracts/BondDB.sol\":1924:1936  _isPeriphery */\n      0x00\n        /* \"contracts/BondDB.sol\":1924:1948  _isPeriphery[msg.sender] */\n      swap1\n      dup2\n      mstore\n      0x20\n      dup2\n      swap1\n      mstore\n      0x40\n      swap1\n      keccak256\n      sload\n      0xff\n      and\n        /* \"contracts/BondDB.sol\":1916:1956  require(_isPeriphery[msg.sender], \"NAP\") */\n      tag_124\n      jumpi\n      mload(0x40)\n      shl(0xe5, 0x461bcd)\n      dup2\n      mstore\n        /* \"#utility.yul\":5383:5385   */\n      0x20\n        /* \"contracts/BondDB.sol\":1916:1956  require(_isPeriphery[msg.sender], \"NAP\") */\n      0x04\n      dup3\n      add\n        /* \"#utility.yul\":5365:5386   */\n      mstore\n        /* \"#utility.yul\":5422:5423   */\n      0x03\n        /* \"#utility.yul\":5402:5420   */\n      0x24\n      dup3\n      add\n        /* \"#utility.yul\":5395:5424   */\n      mstore\n      shl(0xec, 0x04e415)\n        /* \"#utility.yul\":5440:5458   */\n      0x44\n      dup3\n      add\n        /* \"#utility.yul\":5433:5466   */\n      mstore\n        /* \"#utility.yul\":5483:5501   */\n      0x64\n      add\n        /* \"contracts/BondDB.sol\":1916:1956  require(_isPeriphery[msg.sender], \"NAP\") */\n      tag_118\n        /* \"#utility.yul\":5181:5507   */\n      jump\n        /* \"contracts/BondDB.sol\":1916:1956  require(_isPeriphery[msg.sender], \"NAP\") */\n    tag_124:\n      sub(shl(0xa0, 0x01), 0x01)\n        /* \"contracts/BondDB.sol\":1966:1985  _isFactory[factory] */\n      and\n      0x00\n      swap1\n      dup2\n      mstore\n        /* \"contracts/BondDB.sol\":1988:1992  true */\n      0x01\n        /* \"contracts/BondDB.sol\":1966:1985  _isFactory[factory] */\n      0x20\n      dup2\n      swap1\n      mstore\n      0x40\n      swap1\n      swap2\n      keccak256\n        /* \"contracts/BondDB.sol\":1966:1992  _isFactory[factory] = true */\n      dup1\n      sload\n      not(0xff)\n      and\n      swap1\n      swap2\n      or\n      swap1\n      sstore\n        /* \"contracts/BondDB.sol\":1857:1999  function registerFactory(address factory) public {... */\n      jump\t// out\n        /* \"contracts/BondDB.sol\":2797:3159  function incrementFundsRaisedByCompanyAndTokenAndCategory(... */\n    tag_57:\n        /* \"contracts/BondDB.sol\":2995:3005  msg.sender */\n      caller\n        /* \"contracts/BondDB.sol\":2984:3006  _isFactory[msg.sender] */\n      0x00\n      swap1\n      dup2\n      mstore\n        /* \"contracts/BondDB.sol\":2984:2994  _isFactory */\n      0x01\n        /* \"contracts/BondDB.sol\":2984:3006  _isFactory[msg.sender] */\n      0x20\n      mstore\n      0x40\n      swap1\n      keccak256\n      sload\n      0xff\n      and\n      dup1\n        /* \"contracts/BondDB.sol\":2984:3034  _isFactory[msg.sender] || _isPeriphery[msg.sender] */\n      tag_129\n      jumpi\n      pop\n        /* \"contracts/BondDB.sol\":3023:3033  msg.sender */\n      caller\n        /* \"contracts/BondDB.sol\":3010:3022  _isPeriphery */\n      0x00\n        /* \"contracts/BondDB.sol\":3010:3034  _isPeriphery[msg.sender] */\n      swap1\n      dup2\n      mstore\n      0x20\n      dup2\n      swap1\n      mstore\n      0x40\n      swap1\n      keccak256\n      sload\n      0xff\n      and\n        /* \"contracts/BondDB.sol\":2984:3034  _isFactory[msg.sender] || _isPeriphery[msg.sender] */\n    tag_129:\n        /* \"contracts/BondDB.sol\":2976:3044  require(_isFactory[msg.sender] || _isPeriphery[msg.sender], \"NAPOF\") */\n      tag_130\n      jumpi\n      mload(0x40)\n      shl(0xe5, 0x461bcd)\n      dup2\n      mstore\n      0x04\n      add\n      tag_118\n      swap1\n      tag_119\n      jump\t// in\n    tag_130:\n      sub(shl(0xa0, 0x01), 0x01)\n        /* \"contracts/BondDB.sol\":3054:3103  _fundsRaisedByCompanyAndTokenAndCategory[company] */\n      dup1\n      dup5\n      and\n      0x00\n      swap1\n      dup2\n      mstore\n        /* \"contracts/BondDB.sol\":3054:3094  _fundsRaisedByCompanyAndTokenAndCategory */\n      0x05\n        /* \"contracts/BondDB.sol\":3054:3103  _fundsRaisedByCompanyAndTokenAndCategory[company] */\n      0x20\n      swap1\n      dup2\n      mstore\n      0x40\n      dup1\n      dup4\n      keccak256\n        /* \"contracts/BondDB.sol\":3054:3110  _fundsRaisedByCompanyAndTokenAndCategory[company][token] */\n      swap4\n      dup7\n      and\n      dup4\n      mstore\n      swap3\n      dup2\n      mstore\n      dup3\n      dup3\n      keccak256\n        /* \"contracts/BondDB.sol\":3054:3142  _fundsRaisedByCompanyAndTokenAndCategory[company][token][... */\n      dup5\n      dup4\n      mstore\n      swap1\n      mstore\n      swap1\n      dup2\n      keccak256\n        /* \"contracts/BondDB.sol\":3054:3152  _fundsRaisedByCompanyAndTokenAndCategory[company][token][... */\n      dup1\n      sload\n        /* \"contracts/BondDB.sol\":3146:3152  amount */\n      dup7\n      swap3\n        /* \"contracts/BondDB.sol\":3054:3103  _fundsRaisedByCompanyAndTokenAndCategory[company] */\n      swap1\n        /* \"contracts/BondDB.sol\":3054:3152  _fundsRaisedByCompanyAndTokenAndCategory[company][token][... */\n      tag_132\n      swap1\n        /* \"contracts/BondDB.sol\":3146:3152  amount */\n      dup5\n      swap1\n        /* \"contracts/BondDB.sol\":3054:3152  _fundsRaisedByCompanyAndTokenAndCategory[company][token][... */\n      tag_121\n      jump\t// in\n    tag_132:\n      swap1\n      swap2\n      sstore\n      pop\n      pop\n      pop\n      pop\n      pop\n      pop\n        /* \"contracts/BondDB.sol\":2797:3159  function incrementFundsRaisedByCompanyAndTokenAndCategory(... */\n      jump\t// out\n        /* \"contracts/BondDB.sol\":2217:2503  function incrementFundsRaisedByTokenAndCategory(... */\n    tag_83:\n        /* \"contracts/BondDB.sol\":2380:2390  msg.sender */\n      caller\n        /* \"contracts/BondDB.sol\":2369:2391  _isFactory[msg.sender] */\n      0x00\n      swap1\n      dup2\n      mstore\n        /* \"contracts/BondDB.sol\":2369:2379  _isFactory */\n      0x01\n        /* \"contracts/BondDB.sol\":2369:2391  _isFactory[msg.sender] */\n      0x20\n      mstore\n      0x40\n      swap1\n      keccak256\n      sload\n      0xff\n      and\n      dup1\n        /* \"contracts/BondDB.sol\":2369:2419  _isFactory[msg.sender] || _isPeriphery[msg.sender] */\n      tag_139\n      jumpi\n      pop\n        /* \"contracts/BondDB.sol\":2408:2418  msg.sender */\n      caller\n        /* \"contracts/BondDB.sol\":2395:2407  _isPeriphery */\n      0x00\n        /* \"contracts/BondDB.sol\":2395:2419  _isPeriphery[msg.sender] */\n      swap1\n      dup2\n      mstore\n      0x20\n      dup2\n      swap1\n      mstore\n      0x40\n      swap1\n      keccak256\n      sload\n      0xff\n      and\n        /* \"contracts/BondDB.sol\":2369:2419  _isFactory[msg.sender] || _isPeriphery[msg.sender] */\n    tag_139:\n        /* \"contracts/BondDB.sol\":2361:2429  require(_isFactory[msg.sender] || _isPeriphery[msg.sender], \"NAPOF\") */\n      tag_140\n      jumpi\n      mload(0x40)\n      shl(0xe5, 0x461bcd)\n      dup2\n      mstore\n      0x04\n      add\n      tag_118\n      swap1\n      tag_119\n      jump\t// in\n    tag_140:\n      sub(shl(0xa0, 0x01), 0x01)\n        /* \"contracts/BondDB.sol\":2439:2476  _fundsRaisedByTokenAndCategory[token] */\n      dup3\n      and\n      0x00\n      swap1\n      dup2\n      mstore\n        /* \"contracts/BondDB.sol\":2439:2469  _fundsRaisedByTokenAndCategory */\n      0x03\n        /* \"contracts/BondDB.sol\":2439:2476  _fundsRaisedByTokenAndCategory[token] */\n      0x20\n      swap1\n      dup2\n      mstore\n      0x40\n      dup1\n      dup4\n      keccak256\n        /* \"contracts/BondDB.sol\":2439:2486  _fundsRaisedByTokenAndCategory[token][category] */\n      dup5\n      dup5\n      mstore\n      swap1\n      swap2\n      mstore\n      dup2\n      keccak256\n        /* \"contracts/BondDB.sol\":2439:2496  _fundsRaisedByTokenAndCategory[token][category] += amount */\n      dup1\n      sload\n        /* \"contracts/BondDB.sol\":2490:2496  amount */\n      dup6\n      swap3\n        /* \"contracts/BondDB.sol\":2439:2476  _fundsRaisedByTokenAndCategory[token] */\n      swap1\n        /* \"contracts/BondDB.sol\":2439:2496  _fundsRaisedByTokenAndCategory[token][category] += amount */\n      tag_142\n      swap1\n        /* \"contracts/BondDB.sol\":2490:2496  amount */\n      dup5\n      swap1\n        /* \"contracts/BondDB.sol\":2439:2496  _fundsRaisedByTokenAndCategory[token][category] += amount */\n      tag_121\n      jump\t// in\n    tag_142:\n      swap1\n      swap2\n      sstore\n      pop\n      pop\n      pop\n      pop\n      pop\n        /* \"contracts/BondDB.sol\":2217:2503  function incrementFundsRaisedByTokenAndCategory(... */\n      jump\t// out\n        /* \"contracts/BondDB.sol\":3165:3378  function incrementNumberOfIssuedBondsByCategory(uint256 category) public {... */\n    tag_86:\n        /* \"contracts/BondDB.sol\":3267:3277  msg.sender */\n      caller\n        /* \"contracts/BondDB.sol\":3256:3278  _isFactory[msg.sender] */\n      0x00\n      swap1\n      dup2\n      mstore\n        /* \"contracts/BondDB.sol\":3256:3266  _isFactory */\n      0x01\n        /* \"contracts/BondDB.sol\":3256:3278  _isFactory[msg.sender] */\n      0x20\n      mstore\n      0x40\n      swap1\n      keccak256\n      sload\n      0xff\n      and\n      dup1\n        /* \"contracts/BondDB.sol\":3256:3306  _isFactory[msg.sender] || _isPeriphery[msg.sender] */\n      tag_144\n      jumpi\n      pop\n        /* \"contracts/BondDB.sol\":3295:3305  msg.sender */\n      caller\n        /* \"contracts/BondDB.sol\":3282:3294  _isPeriphery */\n      0x00\n        /* \"contracts/BondDB.sol\":3282:3306  _isPeriphery[msg.sender] */\n      swap1\n      dup2\n      mstore\n      0x20\n      dup2\n      swap1\n      mstore\n      0x40\n      swap1\n      keccak256\n      sload\n      0xff\n      and\n        /* \"contracts/BondDB.sol\":3256:3306  _isFactory[msg.sender] || _isPeriphery[msg.sender] */\n    tag_144:\n        /* \"contracts/BondDB.sol\":3248:3316  require(_isFactory[msg.sender] || _isPeriphery[msg.sender], \"NAPOF\") */\n      tag_145\n      jumpi\n      mload(0x40)\n      shl(0xe5, 0x461bcd)\n      dup2\n      mstore\n      0x04\n      add\n      tag_118\n      swap1\n      tag_119\n      jump\t// in\n    tag_145:\n        /* \"contracts/BondDB.sol\":3326:3366  _numberOfIssuedBondsByCategory[category] */\n      0x00\n      dup2\n      dup2\n      mstore\n        /* \"contracts/BondDB.sol\":3326:3356  _numberOfIssuedBondsByCategory */\n      0x06\n        /* \"contracts/BondDB.sol\":3326:3366  _numberOfIssuedBondsByCategory[category] */\n      0x20\n      mstore\n      0x40\n      dup2\n      keccak256\n        /* \"contracts/BondDB.sol\":3326:3371  _numberOfIssuedBondsByCategory[category] += 1 */\n      dup1\n      sload\n        /* \"contracts/BondDB.sol\":3370:3371  1 */\n      0x01\n      swap3\n        /* \"contracts/BondDB.sol\":3326:3366  _numberOfIssuedBondsByCategory[category] */\n      swap1\n        /* \"contracts/BondDB.sol\":3326:3371  _numberOfIssuedBondsByCategory[category] += 1 */\n      tag_147\n      swap1\n        /* \"contracts/BondDB.sol\":3370:3371  1 */\n      dup5\n      swap1\n        /* \"contracts/BondDB.sol\":3326:3371  _numberOfIssuedBondsByCategory[category] += 1 */\n      tag_121\n      jump\t// in\n    tag_147:\n      swap1\n      swap2\n      sstore\n      pop\n      pop\n      pop\n        /* \"contracts/BondDB.sol\":3165:3378  function incrementNumberOfIssuedBondsByCategory(uint256 category) public {... */\n      jump\t// out\n        /* \"contracts/BondDB.sol\":2509:2791  function incrementFundsRaisedByCompanyAndToken(... */\n    tag_90:\n        /* \"contracts/BondDB.sol\":2670:2680  msg.sender */\n      caller\n        /* \"contracts/BondDB.sol\":2659:2681  _isFactory[msg.sender] */\n      0x00\n      swap1\n      dup2\n      mstore\n        /* \"contracts/BondDB.sol\":2659:2669  _isFactory */\n      0x01\n        /* \"contracts/BondDB.sol\":2659:2681  _isFactory[msg.sender] */\n      0x20\n      mstore\n      0x40\n      swap1\n      keccak256\n      sload\n      0xff\n      and\n      dup1\n        /* \"contracts/BondDB.sol\":2659:2709  _isFactory[msg.sender] || _isPeriphery[msg.sender] */\n      tag_149\n      jumpi\n      pop\n        /* \"contracts/BondDB.sol\":2698:2708  msg.sender */\n      caller\n        /* \"contracts/BondDB.sol\":2685:2697  _isPeriphery */\n      0x00\n        /* \"contracts/BondDB.sol\":2685:2709  _isPeriphery[msg.sender] */\n      swap1\n      dup2\n      mstore\n      0x20\n      dup2\n      swap1\n      mstore\n      0x40\n      swap1\n      keccak256\n      sload\n      0xff\n      and\n        /* \"contracts/BondDB.sol\":2659:2709  _isFactory[msg.sender] || _isPeriphery[msg.sender] */\n    tag_149:\n        /* \"contracts/BondDB.sol\":2651:2719  require(_isFactory[msg.sender] || _isPeriphery[msg.sender], \"NAPOF\") */\n      tag_150\n      jumpi\n      mload(0x40)\n      shl(0xe5, 0x461bcd)\n      dup2\n      mstore\n      0x04\n      add\n      tag_118\n      swap1\n      tag_119\n      jump\t// in\n    tag_150:\n      sub(shl(0xa0, 0x01), 0x01)\n        /* \"contracts/BondDB.sol\":2729:2767  _fundsRaisedByCompanyAndToken[company] */\n      dup1\n      dup4\n      and\n      0x00\n      swap1\n      dup2\n      mstore\n        /* \"contracts/BondDB.sol\":2729:2758  _fundsRaisedByCompanyAndToken */\n      0x04\n        /* \"contracts/BondDB.sol\":2729:2767  _fundsRaisedByCompanyAndToken[company] */\n      0x20\n      swap1\n      dup2\n      mstore\n      0x40\n      dup1\n      dup4\n      keccak256\n        /* \"contracts/BondDB.sol\":2729:2774  _fundsRaisedByCompanyAndToken[company][token] */\n      swap4\n      dup6\n      and\n      dup4\n      mstore\n      swap3\n      swap1\n      mstore\n      swap1\n      dup2\n      keccak256\n        /* \"contracts/BondDB.sol\":2729:2784  _fundsRaisedByCompanyAndToken[company][token] += amount */\n      dup1\n      sload\n        /* \"contracts/BondDB.sol\":2778:2784  amount */\n      dup6\n      swap3\n        /* \"contracts/BondDB.sol\":2729:2767  _fundsRaisedByCompanyAndToken[company] */\n      swap1\n        /* \"contracts/BondDB.sol\":2729:2784  _fundsRaisedByCompanyAndToken[company][token] += amount */\n      tag_142\n      swap1\n        /* \"contracts/BondDB.sol\":2778:2784  amount */\n      dup5\n      swap1\n        /* \"contracts/BondDB.sol\":2729:2784  _fundsRaisedByCompanyAndToken[company][token] += amount */\n      tag_121\n      jump\t// in\n        /* \"contracts/BondDB.sol\":3384:3665  function incrementNumberOfIssuedBondsByCompanyAndCategory(... */\n    tag_97:\n        /* \"contracts/BondDB.sol\":3535:3545  msg.sender */\n      caller\n        /* \"contracts/BondDB.sol\":3524:3546  _isFactory[msg.sender] */\n      0x00\n      swap1\n      dup2\n      mstore\n        /* \"contracts/BondDB.sol\":3524:3534  _isFactory */\n      0x01\n        /* \"contracts/BondDB.sol\":3524:3546  _isFactory[msg.sender] */\n      0x20\n      mstore\n      0x40\n      swap1\n      keccak256\n      sload\n      0xff\n      and\n      dup1\n        /* \"contracts/BondDB.sol\":3524:3574  _isFactory[msg.sender] || _isPeriphery[msg.sender] */\n      tag_155\n      jumpi\n      pop\n        /* \"contracts/BondDB.sol\":3563:3573  msg.sender */\n      caller\n        /* \"contracts/BondDB.sol\":3550:3562  _isPeriphery */\n      0x00\n        /* \"contracts/BondDB.sol\":3550:3574  _isPeriphery[msg.sender] */\n      swap1\n      dup2\n      mstore\n      0x20\n      dup2\n      swap1\n      mstore\n      0x40\n      swap1\n      keccak256\n      sload\n      0xff\n      and\n        /* \"contracts/BondDB.sol\":3524:3574  _isFactory[msg.sender] || _isPeriphery[msg.sender] */\n    tag_155:\n        /* \"contracts/BondDB.sol\":3516:3584  require(_isFactory[msg.sender] || _isPeriphery[msg.sender], \"NAPOF\") */\n      tag_156\n      jumpi\n      mload(0x40)\n      shl(0xe5, 0x461bcd)\n      dup2\n      mstore\n      0x04\n      add\n      tag_118\n      swap1\n      tag_119\n      jump\t// in\n    tag_156:\n      sub(shl(0xa0, 0x01), 0x01)\n        /* \"contracts/BondDB.sol\":3594:3643  _numberOfIssuedBondsByCompanyAndCategory[company] */\n      dup3\n      and\n      0x00\n      swap1\n      dup2\n      mstore\n        /* \"contracts/BondDB.sol\":3594:3634  _numberOfIssuedBondsByCompanyAndCategory */\n      0x07\n        /* \"contracts/BondDB.sol\":3594:3643  _numberOfIssuedBondsByCompanyAndCategory[company] */\n      0x20\n      swap1\n      dup2\n      mstore\n      0x40\n      dup1\n      dup4\n      keccak256\n        /* \"contracts/BondDB.sol\":3594:3653  _numberOfIssuedBondsByCompanyAndCategory[company][category] */\n      dup5\n      dup5\n      mstore\n      swap1\n      swap2\n      mstore\n      dup2\n      keccak256\n        /* \"contracts/BondDB.sol\":3594:3658  _numberOfIssuedBondsByCompanyAndCategory[company][category] += 1 */\n      dup1\n      sload\n        /* \"contracts/BondDB.sol\":3657:3658  1 */\n      0x01\n      swap3\n        /* \"contracts/BondDB.sol\":3594:3643  _numberOfIssuedBondsByCompanyAndCategory[company] */\n      swap1\n        /* \"contracts/BondDB.sol\":3594:3658  _numberOfIssuedBondsByCompanyAndCategory[company][category] += 1 */\n      tag_120\n      swap1\n        /* \"contracts/BondDB.sol\":3657:3658  1 */\n      dup5\n      swap1\n        /* \"contracts/BondDB.sol\":3594:3658  _numberOfIssuedBondsByCompanyAndCategory[company][category] += 1 */\n      tag_121\n      jump\t// in\n        /* \"contracts/BondDB.sol\":3892:4179  function incrementNumberOfTimesDefaultedByCompanyAndCategory(... */\n    tag_100:\n        /* \"contracts/BondDB.sol\":4046:4056  msg.sender */\n      caller\n        /* \"contracts/BondDB.sol\":4035:4057  _isFactory[msg.sender] */\n      0x00\n      swap1\n      dup2\n      mstore\n        /* \"contracts/BondDB.sol\":4035:4045  _isFactory */\n      0x01\n        /* \"contracts/BondDB.sol\":4035:4057  _isFactory[msg.sender] */\n      0x20\n      mstore\n      0x40\n      swap1\n      keccak256\n      sload\n      0xff\n      and\n      dup1\n        /* \"contracts/BondDB.sol\":4035:4085  _isFactory[msg.sender] || _isPeriphery[msg.sender] */\n      tag_160\n      jumpi\n      pop\n        /* \"contracts/BondDB.sol\":4074:4084  msg.sender */\n      caller\n        /* \"contracts/BondDB.sol\":4061:4073  _isPeriphery */\n      0x00\n        /* \"contracts/BondDB.sol\":4061:4085  _isPeriphery[msg.sender] */\n      swap1\n      dup2\n      mstore\n      0x20\n      dup2\n      swap1\n      mstore\n      0x40\n      swap1\n      keccak256\n      sload\n      0xff\n      and\n        /* \"contracts/BondDB.sol\":4035:4085  _isFactory[msg.sender] || _isPeriphery[msg.sender] */\n    tag_160:\n        /* \"contracts/BondDB.sol\":4027:4095  require(_isFactory[msg.sender] || _isPeriphery[msg.sender], \"NAPOF\") */\n      tag_161\n      jumpi\n      mload(0x40)\n      shl(0xe5, 0x461bcd)\n      dup2\n      mstore\n      0x04\n      add\n      tag_118\n      swap1\n      tag_119\n      jump\t// in\n    tag_161:\n      sub(shl(0xa0, 0x01), 0x01)\n        /* \"contracts/BondDB.sol\":4105:4157  _numberOfTimesDefaultedByCompanyAndCategory[company] */\n      dup3\n      and\n      0x00\n      swap1\n      dup2\n      mstore\n        /* \"contracts/BondDB.sol\":4105:4148  _numberOfTimesDefaultedByCompanyAndCategory */\n      0x09\n        /* \"contracts/BondDB.sol\":4105:4157  _numberOfTimesDefaultedByCompanyAndCategory[company] */\n      0x20\n      swap1\n      dup2\n      mstore\n      0x40\n      dup1\n      dup4\n      keccak256\n        /* \"contracts/BondDB.sol\":4105:4167  _numberOfTimesDefaultedByCompanyAndCategory[company][category] */\n      dup5\n      dup5\n      mstore\n      swap1\n      swap2\n      mstore\n      dup2\n      keccak256\n        /* \"contracts/BondDB.sol\":4105:4172  _numberOfTimesDefaultedByCompanyAndCategory[company][category] += 1 */\n      dup1\n      sload\n        /* \"contracts/BondDB.sol\":4171:4172  1 */\n      0x01\n      swap3\n        /* \"contracts/BondDB.sol\":4105:4157  _numberOfTimesDefaultedByCompanyAndCategory[company] */\n      swap1\n        /* \"contracts/BondDB.sol\":4105:4172  _numberOfTimesDefaultedByCompanyAndCategory[company][category] += 1 */\n      tag_120\n      swap1\n        /* \"contracts/BondDB.sol\":4171:4172  1 */\n      dup5\n      swap1\n        /* \"contracts/BondDB.sol\":4105:4172  _numberOfTimesDefaultedByCompanyAndCategory[company][category] += 1 */\n      tag_121\n      jump\t// in\n        /* \"contracts/BondDB.sol\":3671:3886  function incrementNumberOfTimesDefaultedByCompany(address company) public {... */\n    tag_108:\n        /* \"contracts/BondDB.sol\":3774:3784  msg.sender */\n      caller\n        /* \"contracts/BondDB.sol\":3763:3785  _isFactory[msg.sender] */\n      0x00\n      swap1\n      dup2\n      mstore\n        /* \"contracts/BondDB.sol\":3763:3773  _isFactory */\n      0x01\n        /* \"contracts/BondDB.sol\":3763:3785  _isFactory[msg.sender] */\n      0x20\n      mstore\n      0x40\n      swap1\n      keccak256\n      sload\n      0xff\n      and\n      dup1\n        /* \"contracts/BondDB.sol\":3763:3813  _isFactory[msg.sender] || _isPeriphery[msg.sender] */\n      tag_166\n      jumpi\n      pop\n        /* \"contracts/BondDB.sol\":3802:3812  msg.sender */\n      caller\n        /* \"contracts/BondDB.sol\":3789:3801  _isPeriphery */\n      0x00\n        /* \"contracts/BondDB.sol\":3789:3813  _isPeriphery[msg.sender] */\n      swap1\n      dup2\n      mstore\n      0x20\n      dup2\n      swap1\n      mstore\n      0x40\n      swap1\n      keccak256\n      sload\n      0xff\n      and\n        /* \"contracts/BondDB.sol\":3763:3813  _isFactory[msg.sender] || _isPeriphery[msg.sender] */\n    tag_166:\n        /* \"contracts/BondDB.sol\":3755:3823  require(_isFactory[msg.sender] || _isPeriphery[msg.sender], \"NAPOF\") */\n      tag_167\n      jumpi\n      mload(0x40)\n      shl(0xe5, 0x461bcd)\n      dup2\n      mstore\n      0x04\n      add\n      tag_118\n      swap1\n      tag_119\n      jump\t// in\n    tag_167:\n      sub(shl(0xa0, 0x01), 0x01)\n        /* \"contracts/BondDB.sol\":3833:3874  _numberOfTimesDefaultedByCompany[company] */\n      dup2\n      and\n      0x00\n      swap1\n      dup2\n      mstore\n        /* \"contracts/BondDB.sol\":3833:3865  _numberOfTimesDefaultedByCompany */\n      0x08\n        /* \"contracts/BondDB.sol\":3833:3874  _numberOfTimesDefaultedByCompany[company] */\n      0x20\n      mstore\n      0x40\n      dup2\n      keccak256\n        /* \"contracts/BondDB.sol\":3833:3879  _numberOfTimesDefaultedByCompany[company] += 1 */\n      dup1\n      sload\n        /* \"contracts/BondDB.sol\":3878:3879  1 */\n      0x01\n      swap3\n        /* \"contracts/BondDB.sol\":3833:3874  _numberOfTimesDefaultedByCompany[company] */\n      swap1\n        /* \"contracts/BondDB.sol\":3833:3879  _numberOfTimesDefaultedByCompany[company] += 1 */\n      tag_147\n      swap1\n        /* \"contracts/BondDB.sol\":3878:3879  1 */\n      dup5\n      swap1\n        /* \"contracts/BondDB.sol\":3833:3879  _numberOfTimesDefaultedByCompany[company] += 1 */\n      tag_121\n      jump\t// in\n        /* \"contracts/BondDB.sol\":1619:1851  function registerPeriphery(address[] memory peripheries) public {... */\n    tag_112:\n        /* \"contracts/BondDB.sol\":1701:1707  _owner */\n      immutable(\"0x13600b294191fc92924bb3ce4b969c1e7e2bab8f4c93c3fc6d0a51733df3c060\")\n      sub(shl(0xa0, 0x01), 0x01)\n        /* \"contracts/BondDB.sol\":1701:1721  _owner == msg.sender */\n      and\n        /* \"contracts/BondDB.sol\":1711:1721  msg.sender */\n      caller\n        /* \"contracts/BondDB.sol\":1701:1721  _owner == msg.sender */\n      eq\n        /* \"contracts/BondDB.sol\":1693:1729  require(_owner == msg.sender, \"NTO\") */\n      tag_171\n      jumpi\n      mload(0x40)\n      shl(0xe5, 0x461bcd)\n      dup2\n      mstore\n        /* \"#utility.yul\":5714:5716   */\n      0x20\n        /* \"contracts/BondDB.sol\":1693:1729  require(_owner == msg.sender, \"NTO\") */\n      0x04\n      dup3\n      add\n        /* \"#utility.yul\":5696:5717   */\n      mstore\n        /* \"#utility.yul\":5753:5754   */\n      0x03\n        /* \"#utility.yul\":5733:5751   */\n      0x24\n      dup3\n      add\n        /* \"#utility.yul\":5726:5755   */\n      mstore\n      shl(0xe8, 0x4e544f)\n        /* \"#utility.yul\":5771:5789   */\n      0x44\n      dup3\n      add\n        /* \"#utility.yul\":5764:5797   */\n      mstore\n        /* \"#utility.yul\":5814:5832   */\n      0x64\n      add\n        /* \"contracts/BondDB.sol\":1693:1729  require(_owner == msg.sender, \"NTO\") */\n      tag_118\n        /* \"#utility.yul\":5512:5838   */\n      jump\n        /* \"contracts/BondDB.sol\":1693:1729  require(_owner == msg.sender, \"NTO\") */\n    tag_171:\n        /* \"contracts/BondDB.sol\":1744:1750  uint i */\n      0x00\n        /* \"contracts/BondDB.sol\":1739:1845  for (uint i = 0; i < peripheries.length; i++) {... */\n    tag_174:\n        /* \"contracts/BondDB.sol\":1760:1771  peripheries */\n      dup2\n        /* \"contracts/BondDB.sol\":1760:1778  peripheries.length */\n      mload\n        /* \"contracts/BondDB.sol\":1756:1757  i */\n      dup2\n        /* \"contracts/BondDB.sol\":1756:1778  i < peripheries.length */\n      lt\n        /* \"contracts/BondDB.sol\":1739:1845  for (uint i = 0; i < peripheries.length; i++) {... */\n      iszero\n      tag_175\n      jumpi\n        /* \"contracts/BondDB.sol\":1830:1834  true */\n      0x01\n        /* \"contracts/BondDB.sol\":1799:1811  _isPeriphery */\n      0x00\n        /* \"contracts/BondDB.sol\":1799:1827  _isPeriphery[peripheries[i]] */\n      dup1\n        /* \"contracts/BondDB.sol\":1812:1823  peripheries */\n      dup5\n        /* \"contracts/BondDB.sol\":1824:1825  i */\n      dup5\n        /* \"contracts/BondDB.sol\":1812:1826  peripheries[i] */\n      dup2\n      mload\n      dup2\n      lt\n      tag_178\n      jumpi\n      tag_178\n      tag_179\n      jump\t// in\n    tag_178:\n      0x20\n      swap1\n      dup2\n      mul\n      swap2\n      swap1\n      swap2\n      add\n      dup2\n      add\n      mload\n      sub(shl(0xa0, 0x01), 0x01)\n        /* \"contracts/BondDB.sol\":1799:1827  _isPeriphery[peripheries[i]] */\n      and\n      dup3\n      mstore\n      dup2\n      add\n      swap2\n      swap1\n      swap2\n      mstore\n      0x40\n      add\n      0x00\n      keccak256\n        /* \"contracts/BondDB.sol\":1799:1834  _isPeriphery[peripheries[i]] = true */\n      dup1\n      sload\n      not(0xff)\n      and\n      swap2\n      iszero\n      iszero\n      swap2\n      swap1\n      swap2\n      or\n      swap1\n      sstore\n        /* \"contracts/BondDB.sol\":1780:1783  i++ */\n      dup1\n      tag_180\n      dup2\n      tag_181\n      jump\t// in\n    tag_180:\n      swap2\n      pop\n      pop\n        /* \"contracts/BondDB.sol\":1739:1845  for (uint i = 0; i < peripheries.length; i++) {... */\n      jump(tag_174)\n    tag_175:\n      pop\n        /* \"contracts/BondDB.sol\":1619:1851  function registerPeriphery(address[] memory peripheries) public {... */\n      pop\n      jump\t// out\n        /* \"#utility.yul\":14:187   */\n    tag_182:\n        /* \"#utility.yul\":82:102   */\n      dup1\n      calldataload\n      sub(shl(0xa0, 0x01), 0x01)\n        /* \"#utility.yul\":131:162   */\n      dup2\n      and\n        /* \"#utility.yul\":121:163   */\n      dup2\n      eq\n        /* \"#utility.yul\":111:181   */\n      tag_187\n      jumpi\n        /* \"#utility.yul\":177:178   */\n      0x00\n        /* \"#utility.yul\":174:175   */\n      dup1\n        /* \"#utility.yul\":167:179   */\n      revert\n        /* \"#utility.yul\":111:181   */\n    tag_187:\n        /* \"#utility.yul\":14:187   */\n      swap2\n      swap1\n      pop\n      jump\t// out\n        /* \"#utility.yul\":192:378   */\n    tag_29:\n        /* \"#utility.yul\":251:257   */\n      0x00\n        /* \"#utility.yul\":304:306   */\n      0x20\n        /* \"#utility.yul\":292:301   */\n      dup3\n        /* \"#utility.yul\":283:290   */\n      dup5\n        /* \"#utility.yul\":279:302   */\n      sub\n        /* \"#utility.yul\":275:307   */\n      slt\n        /* \"#utility.yul\":272:324   */\n      iszero\n      tag_189\n      jumpi\n        /* \"#utility.yul\":320:321   */\n      0x00\n        /* \"#utility.yul\":317:318   */\n      dup1\n        /* \"#utility.yul\":310:322   */\n      revert\n        /* \"#utility.yul\":272:324   */\n    tag_189:\n        /* \"#utility.yul\":343:372   */\n      tag_190\n        /* \"#utility.yul\":362:371   */\n      dup3\n        /* \"#utility.yul\":343:372   */\n      tag_182\n      jump\t// in\n    tag_190:\n        /* \"#utility.yul\":333:372   */\n      swap4\n        /* \"#utility.yul\":192:378   */\n      swap3\n      pop\n      pop\n      pop\n      jump\t// out\n        /* \"#utility.yul\":757:1011   */\n    tag_40:\n        /* \"#utility.yul\":825:831   */\n      0x00\n        /* \"#utility.yul\":833:839   */\n      dup1\n        /* \"#utility.yul\":886:888   */\n      0x40\n        /* \"#utility.yul\":874:883   */\n      dup4\n        /* \"#utility.yul\":865:872   */\n      dup6\n        /* \"#utility.yul\":861:884   */\n      sub\n        /* \"#utility.yul\":857:889   */\n      slt\n        /* \"#utility.yul\":854:906   */\n      iszero\n      tag_194\n      jumpi\n        /* \"#utility.yul\":902:903   */\n      0x00\n        /* \"#utility.yul\":899:900   */\n      dup1\n        /* \"#utility.yul\":892:904   */\n      revert\n        /* \"#utility.yul\":854:906   */\n    tag_194:\n        /* \"#utility.yul\":938:947   */\n      dup3\n        /* \"#utility.yul\":925:948   */\n      calldataload\n        /* \"#utility.yul\":915:948   */\n      swap2\n      pop\n        /* \"#utility.yul\":967:1005   */\n      tag_195\n        /* \"#utility.yul\":1001:1003   */\n      0x20\n        /* \"#utility.yul\":990:999   */\n      dup5\n        /* \"#utility.yul\":986:1004   */\n      add\n        /* \"#utility.yul\":967:1005   */\n      tag_182\n      jump\t// in\n    tag_195:\n        /* \"#utility.yul\":957:1005   */\n      swap1\n      pop\n        /* \"#utility.yul\":757:1011   */\n      swap3\n      pop\n      swap3\n      swap1\n      pop\n      jump\t// out\n        /* \"#utility.yul\":1016:1270   */\n    tag_44:\n        /* \"#utility.yul\":1084:1090   */\n      0x00\n        /* \"#utility.yul\":1092:1098   */\n      dup1\n        /* \"#utility.yul\":1145:1147   */\n      0x40\n        /* \"#utility.yul\":1133:1142   */\n      dup4\n        /* \"#utility.yul\":1124:1131   */\n      dup6\n        /* \"#utility.yul\":1120:1143   */\n      sub\n        /* \"#utility.yul\":1116:1148   */\n      slt\n        /* \"#utility.yul\":1113:1165   */\n      iszero\n      tag_197\n      jumpi\n        /* \"#utility.yul\":1161:1162   */\n      0x00\n        /* \"#utility.yul\":1158:1159   */\n      dup1\n        /* \"#utility.yul\":1151:1163   */\n      revert\n        /* \"#utility.yul\":1113:1165   */\n    tag_197:\n        /* \"#utility.yul\":1184:1213   */\n      tag_198\n        /* \"#utility.yul\":1203:1212   */\n      dup4\n        /* \"#utility.yul\":1184:1213   */\n      tag_182\n      jump\t// in\n    tag_198:\n        /* \"#utility.yul\":1174:1213   */\n      swap5\n        /* \"#utility.yul\":1260:1262   */\n      0x20\n        /* \"#utility.yul\":1245:1263   */\n      swap4\n      swap1\n      swap4\n      add\n        /* \"#utility.yul\":1232:1264   */\n      calldataload\n      swap4\n      pop\n      pop\n      pop\n        /* \"#utility.yul\":1016:1270   */\n      jump\t// out\n        /* \"#utility.yul\":1275:1672   */\n    tag_56:\n        /* \"#utility.yul\":1361:1367   */\n      0x00\n        /* \"#utility.yul\":1369:1375   */\n      dup1\n        /* \"#utility.yul\":1377:1383   */\n      0x00\n        /* \"#utility.yul\":1385:1391   */\n      dup1\n        /* \"#utility.yul\":1438:1441   */\n      0x80\n        /* \"#utility.yul\":1426:1435   */\n      dup6\n        /* \"#utility.yul\":1417:1424   */\n      dup8\n        /* \"#utility.yul\":1413:1436   */\n      sub\n        /* \"#utility.yul\":1409:1442   */\n      slt\n        /* \"#utility.yul\":1406:1459   */\n      iszero\n      tag_200\n      jumpi\n        /* \"#utility.yul\":1455:1456   */\n      0x00\n        /* \"#utility.yul\":1452:1453   */\n      dup1\n        /* \"#utility.yul\":1445:1457   */\n      revert\n        /* \"#utility.yul\":1406:1459   */\n    tag_200:\n        /* \"#utility.yul\":1491:1500   */\n      dup5\n        /* \"#utility.yul\":1478:1501   */\n      calldataload\n        /* \"#utility.yul\":1468:1501   */\n      swap4\n      pop\n        /* \"#utility.yul\":1520:1558   */\n      tag_201\n        /* \"#utility.yul\":1554:1556   */\n      0x20\n        /* \"#utility.yul\":1543:1552   */\n      dup7\n        /* \"#utility.yul\":1539:1557   */\n      add\n        /* \"#utility.yul\":1520:1558   */\n      tag_182\n      jump\t// in\n    tag_201:\n        /* \"#utility.yul\":1510:1558   */\n      swap3\n      pop\n        /* \"#utility.yul\":1577:1615   */\n      tag_202\n        /* \"#utility.yul\":1611:1613   */\n      0x40\n        /* \"#utility.yul\":1600:1609   */\n      dup7\n        /* \"#utility.yul\":1596:1614   */\n      add\n        /* \"#utility.yul\":1577:1615   */\n      tag_182\n      jump\t// in\n    tag_202:\n        /* \"#utility.yul\":1275:1672   */\n      swap4\n      swap7\n      swap3\n      swap6\n      pop\n        /* \"#utility.yul\":1567:1615   */\n      swap3\n      swap4\n        /* \"#utility.yul\":1662:1664   */\n      0x60\n        /* \"#utility.yul\":1647:1665   */\n      add\n        /* \"#utility.yul\":1634:1666   */\n      calldataload\n      swap3\n      pop\n      pop\n        /* \"#utility.yul\":1275:1672   */\n      jump\t// out\n        /* \"#utility.yul\":1677:1937   */\n    tag_60:\n        /* \"#utility.yul\":1745:1751   */\n      0x00\n        /* \"#utility.yul\":1753:1759   */\n      dup1\n        /* \"#utility.yul\":1806:1808   */\n      0x40\n        /* \"#utility.yul\":1794:1803   */\n      dup4\n        /* \"#utility.yul\":1785:1792   */\n      dup6\n        /* \"#utility.yul\":1781:1804   */\n      sub\n        /* \"#utility.yul\":1777:1809   */\n      slt\n        /* \"#utility.yul\":1774:1826   */\n      iszero\n      tag_204\n      jumpi\n        /* \"#utility.yul\":1822:1823   */\n      0x00\n        /* \"#utility.yul\":1819:1820   */\n      dup1\n        /* \"#utility.yul\":1812:1824   */\n      revert\n        /* \"#utility.yul\":1774:1826   */\n    tag_204:\n        /* \"#utility.yul\":1845:1874   */\n      tag_205\n        /* \"#utility.yul\":1864:1873   */\n      dup4\n        /* \"#utility.yul\":1845:1874   */\n      tag_182\n      jump\t// in\n    tag_205:\n        /* \"#utility.yul\":1835:1874   */\n      swap2\n      pop\n        /* \"#utility.yul\":1893:1931   */\n      tag_195\n        /* \"#utility.yul\":1927:1929   */\n      0x20\n        /* \"#utility.yul\":1916:1925   */\n      dup5\n        /* \"#utility.yul\":1912:1930   */\n      add\n        /* \"#utility.yul\":1893:1931   */\n      tag_182\n      jump\t// in\n        /* \"#utility.yul\":1942:2122   */\n    tag_65:\n        /* \"#utility.yul\":2001:2007   */\n      0x00\n        /* \"#utility.yul\":2054:2056   */\n      0x20\n        /* \"#utility.yul\":2042:2051   */\n      dup3\n        /* \"#utility.yul\":2033:2040   */\n      dup5\n        /* \"#utility.yul\":2029:2052   */\n      sub\n        /* \"#utility.yul\":2025:2057   */\n      slt\n        /* \"#utility.yul\":2022:2074   */\n      iszero\n      tag_208\n      jumpi\n        /* \"#utility.yul\":2070:2071   */\n      0x00\n        /* \"#utility.yul\":2067:2068   */\n      dup1\n        /* \"#utility.yul\":2060:2072   */\n      revert\n        /* \"#utility.yul\":2022:2074   */\n    tag_208:\n      pop\n        /* \"#utility.yul\":2093:2116   */\n      calldataload\n      swap2\n        /* \"#utility.yul\":1942:2122   */\n      swap1\n      pop\n      jump\t// out\n        /* \"#utility.yul\":2335:2657   */\n    tag_82:\n        /* \"#utility.yul\":2412:2418   */\n      0x00\n        /* \"#utility.yul\":2420:2426   */\n      dup1\n        /* \"#utility.yul\":2428:2434   */\n      0x00\n        /* \"#utility.yul\":2481:2483   */\n      0x60\n        /* \"#utility.yul\":2469:2478   */\n      dup5\n        /* \"#utility.yul\":2460:2467   */\n      dup7\n        /* \"#utility.yul\":2456:2479   */\n      sub\n        /* \"#utility.yul\":2452:2484   */\n      slt\n        /* \"#utility.yul\":2449:2501   */\n      iszero\n      tag_211\n      jumpi\n        /* \"#utility.yul\":2497:2498   */\n      0x00\n        /* \"#utility.yul\":2494:2495   */\n      dup1\n        /* \"#utility.yul\":2487:2499   */\n      revert\n        /* \"#utility.yul\":2449:2501   */\n    tag_211:\n        /* \"#utility.yul\":2533:2542   */\n      dup4\n        /* \"#utility.yul\":2520:2543   */\n      calldataload\n        /* \"#utility.yul\":2510:2543   */\n      swap3\n      pop\n        /* \"#utility.yul\":2562:2600   */\n      tag_212\n        /* \"#utility.yul\":2596:2598   */\n      0x20\n        /* \"#utility.yul\":2585:2594   */\n      dup6\n        /* \"#utility.yul\":2581:2599   */\n      add\n        /* \"#utility.yul\":2562:2600   */\n      tag_182\n      jump\t// in\n    tag_212:\n        /* \"#utility.yul\":2552:2600   */\n      swap2\n      pop\n        /* \"#utility.yul\":2647:2649   */\n      0x40\n        /* \"#utility.yul\":2636:2645   */\n      dup5\n        /* \"#utility.yul\":2632:2650   */\n      add\n        /* \"#utility.yul\":2619:2651   */\n      calldataload\n        /* \"#utility.yul\":2609:2651   */\n      swap1\n      pop\n        /* \"#utility.yul\":2335:2657   */\n      swap3\n      pop\n      swap3\n      pop\n      swap3\n      jump\t// out\n        /* \"#utility.yul\":2662:2990   */\n    tag_89:\n        /* \"#utility.yul\":2739:2745   */\n      0x00\n        /* \"#utility.yul\":2747:2753   */\n      dup1\n        /* \"#utility.yul\":2755:2761   */\n      0x00\n        /* \"#utility.yul\":2808:2810   */\n      0x60\n        /* \"#utility.yul\":2796:2805   */\n      dup5\n        /* \"#utility.yul\":2787:2794   */\n      dup7\n        /* \"#utility.yul\":2783:2806   */\n      sub\n        /* \"#utility.yul\":2779:2811   */\n      slt\n        /* \"#utility.yul\":2776:2828   */\n      iszero\n      tag_214\n      jumpi\n        /* \"#utility.yul\":2824:2825   */\n      0x00\n        /* \"#utility.yul\":2821:2822   */\n      dup1\n        /* \"#utility.yul\":2814:2826   */\n      revert\n        /* \"#utility.yul\":2776:2828   */\n    tag_214:\n        /* \"#utility.yul\":2860:2869   */\n      dup4\n        /* \"#utility.yul\":2847:2870   */\n      calldataload\n        /* \"#utility.yul\":2837:2870   */\n      swap3\n      pop\n        /* \"#utility.yul\":2889:2927   */\n      tag_215\n        /* \"#utility.yul\":2923:2925   */\n      0x20\n        /* \"#utility.yul\":2912:2921   */\n      dup6\n        /* \"#utility.yul\":2908:2926   */\n      add\n        /* \"#utility.yul\":2889:2927   */\n      tag_182\n      jump\t// in\n    tag_215:\n        /* \"#utility.yul\":2879:2927   */\n      swap2\n      pop\n        /* \"#utility.yul\":2946:2984   */\n      tag_216\n        /* \"#utility.yul\":2980:2982   */\n      0x40\n        /* \"#utility.yul\":2969:2978   */\n      dup6\n        /* \"#utility.yul\":2965:2983   */\n      add\n        /* \"#utility.yul\":2946:2984   */\n      tag_182\n      jump\t// in\n    tag_216:\n        /* \"#utility.yul\":2936:2984   */\n      swap1\n      pop\n        /* \"#utility.yul\":2662:2990   */\n      swap3\n      pop\n      swap3\n      pop\n      swap3\n      jump\t// out\n        /* \"#utility.yul\":2995:3323   */\n    tag_103:\n        /* \"#utility.yul\":3072:3078   */\n      0x00\n        /* \"#utility.yul\":3080:3086   */\n      dup1\n        /* \"#utility.yul\":3088:3094   */\n      0x00\n        /* \"#utility.yul\":3141:3143   */\n      0x60\n        /* \"#utility.yul\":3129:3138   */\n      dup5\n        /* \"#utility.yul\":3120:3127   */\n      dup7\n        /* \"#utility.yul\":3116:3139   */\n      sub\n        /* \"#utility.yul\":3112:3144   */\n      slt\n        /* \"#utility.yul\":3109:3161   */\n      iszero\n      tag_218\n      jumpi\n        /* \"#utility.yul\":3157:3158   */\n      0x00\n        /* \"#utility.yul\":3154:3155   */\n      dup1\n        /* \"#utility.yul\":3147:3159   */\n      revert\n        /* \"#utility.yul\":3109:3161   */\n    tag_218:\n        /* \"#utility.yul\":3180:3209   */\n      tag_219\n        /* \"#utility.yul\":3199:3208   */\n      dup5\n        /* \"#utility.yul\":3180:3209   */\n      tag_182\n      jump\t// in\n    tag_219:\n        /* \"#utility.yul\":3170:3209   */\n      swap3\n      pop\n        /* \"#utility.yul\":3228:3266   */\n      tag_212\n        /* \"#utility.yul\":3262:3264   */\n      0x20\n        /* \"#utility.yul\":3251:3260   */\n      dup6\n        /* \"#utility.yul\":3247:3265   */\n      add\n        /* \"#utility.yul\":3228:3266   */\n      tag_182\n      jump\t// in\n        /* \"#utility.yul\":3328:3455   */\n    tag_183:\n        /* \"#utility.yul\":3389:3399   */\n      0x4e487b71\n        /* \"#utility.yul\":3384:3387   */\n      0xe0\n        /* \"#utility.yul\":3380:3400   */\n      shl\n        /* \"#utility.yul\":3377:3378   */\n      0x00\n        /* \"#utility.yul\":3370:3401   */\n      mstore\n        /* \"#utility.yul\":3420:3424   */\n      0x41\n        /* \"#utility.yul\":3417:3418   */\n      0x04\n        /* \"#utility.yul\":3410:3425   */\n      mstore\n        /* \"#utility.yul\":3444:3448   */\n      0x24\n        /* \"#utility.yul\":3441:3442   */\n      0x00\n        /* \"#utility.yul\":3434:3449   */\n      revert\n        /* \"#utility.yul\":3460:4581   */\n    tag_111:\n        /* \"#utility.yul\":3544:3550   */\n      0x00\n        /* \"#utility.yul\":3575:3577   */\n      0x20\n        /* \"#utility.yul\":3618:3620   */\n      dup1\n        /* \"#utility.yul\":3606:3615   */\n      dup4\n        /* \"#utility.yul\":3597:3604   */\n      dup6\n        /* \"#utility.yul\":3593:3616   */\n      sub\n        /* \"#utility.yul\":3589:3621   */\n      slt\n        /* \"#utility.yul\":3586:3638   */\n      iszero\n      tag_223\n      jumpi\n        /* \"#utility.yul\":3634:3635   */\n      0x00\n        /* \"#utility.yul\":3631:3632   */\n      dup1\n        /* \"#utility.yul\":3624:3636   */\n      revert\n        /* \"#utility.yul\":3586:3638   */\n    tag_223:\n        /* \"#utility.yul\":3674:3683   */\n      dup3\n        /* \"#utility.yul\":3661:3684   */\n      calldataload\n        /* \"#utility.yul\":3703:3721   */\n      0xffffffffffffffff\n        /* \"#utility.yul\":3744:3746   */\n      dup1\n        /* \"#utility.yul\":3736:3742   */\n      dup3\n        /* \"#utility.yul\":3733:3747   */\n      gt\n        /* \"#utility.yul\":3730:3764   */\n      iszero\n      tag_224\n      jumpi\n        /* \"#utility.yul\":3760:3761   */\n      0x00\n        /* \"#utility.yul\":3757:3758   */\n      dup1\n        /* \"#utility.yul\":3750:3762   */\n      revert\n        /* \"#utility.yul\":3730:3764   */\n    tag_224:\n        /* \"#utility.yul\":3798:3804   */\n      dup2\n        /* \"#utility.yul\":3787:3796   */\n      dup6\n        /* \"#utility.yul\":3783:3805   */\n      add\n        /* \"#utility.yul\":3773:3805   */\n      swap2\n      pop\n        /* \"#utility.yul\":3843:3850   */\n      dup6\n        /* \"#utility.yul\":3836:3840   */\n      0x1f\n        /* \"#utility.yul\":3832:3834   */\n      dup4\n        /* \"#utility.yul\":3828:3841   */\n      add\n        /* \"#utility.yul\":3824:3851   */\n      slt\n        /* \"#utility.yul\":3814:3869   */\n      tag_225\n      jumpi\n        /* \"#utility.yul\":3865:3866   */\n      0x00\n        /* \"#utility.yul\":3862:3863   */\n      dup1\n        /* \"#utility.yul\":3855:3867   */\n      revert\n        /* \"#utility.yul\":3814:3869   */\n    tag_225:\n        /* \"#utility.yul\":3901:3903   */\n      dup2\n        /* \"#utility.yul\":3888:3904   */\n      calldataload\n        /* \"#utility.yul\":3923:3925   */\n      dup2\n        /* \"#utility.yul\":3919:3921   */\n      dup2\n        /* \"#utility.yul\":3916:3926   */\n      gt\n        /* \"#utility.yul\":3913:3949   */\n      iszero\n      tag_227\n      jumpi\n        /* \"#utility.yul\":3929:3947   */\n      tag_227\n      tag_183\n      jump\t// in\n    tag_227:\n        /* \"#utility.yul\":3975:3977   */\n      dup1\n        /* \"#utility.yul\":3972:3973   */\n      0x05\n        /* \"#utility.yul\":3968:3978   */\n      shl\n        /* \"#utility.yul\":4007:4009   */\n      0x40\n        /* \"#utility.yul\":4001:4010   */\n      mload\n        /* \"#utility.yul\":4070:4072   */\n      0x1f\n        /* \"#utility.yul\":4066:4073   */\n      not\n        /* \"#utility.yul\":4061:4063   */\n      0x3f\n        /* \"#utility.yul\":4057:4059   */\n      dup4\n        /* \"#utility.yul\":4053:4064   */\n      add\n        /* \"#utility.yul\":4049:4074   */\n      and\n        /* \"#utility.yul\":4041:4047   */\n      dup2\n        /* \"#utility.yul\":4037:4075   */\n      add\n        /* \"#utility.yul\":4125:4131   */\n      dup2\n        /* \"#utility.yul\":4113:4123   */\n      dup2\n        /* \"#utility.yul\":4110:4132   */\n      lt\n        /* \"#utility.yul\":4105:4107   */\n      dup6\n        /* \"#utility.yul\":4093:4103   */\n      dup3\n        /* \"#utility.yul\":4090:4108   */\n      gt\n        /* \"#utility.yul\":4087:4133   */\n      or\n        /* \"#utility.yul\":4084:4156   */\n      iszero\n      tag_229\n      jumpi\n        /* \"#utility.yul\":4136:4154   */\n      tag_229\n      tag_183\n      jump\t// in\n    tag_229:\n        /* \"#utility.yul\":4172:4174   */\n      0x40\n        /* \"#utility.yul\":4165:4187   */\n      mstore\n        /* \"#utility.yul\":4222:4240   */\n      swap2\n      dup3\n      mstore\n        /* \"#utility.yul\":4256:4271   */\n      dup5\n      dup3\n      add\n      swap3\n      pop\n        /* \"#utility.yul\":4298:4309   */\n      dup4\n      dup2\n      add\n        /* \"#utility.yul\":4294:4314   */\n      dup6\n      add\n      swap2\n        /* \"#utility.yul\":4326:4345   */\n      dup9\n      dup4\n      gt\n        /* \"#utility.yul\":4323:4362   */\n      iszero\n      tag_230\n      jumpi\n        /* \"#utility.yul\":4358:4359   */\n      0x00\n        /* \"#utility.yul\":4355:4356   */\n      dup1\n        /* \"#utility.yul\":4348:4360   */\n      revert\n        /* \"#utility.yul\":4323:4362   */\n    tag_230:\n        /* \"#utility.yul\":4382:4393   */\n      swap4\n      dup6\n      add\n      swap4\n        /* \"#utility.yul\":4402:4550   */\n    tag_231:\n        /* \"#utility.yul\":4418:4424   */\n      dup3\n        /* \"#utility.yul\":4413:4416   */\n      dup6\n        /* \"#utility.yul\":4410:4425   */\n      lt\n        /* \"#utility.yul\":4402:4550   */\n      iszero\n      tag_233\n      jumpi\n        /* \"#utility.yul\":4484:4507   */\n      tag_234\n        /* \"#utility.yul\":4503:4506   */\n      dup6\n        /* \"#utility.yul\":4484:4507   */\n      tag_182\n      jump\t// in\n    tag_234:\n        /* \"#utility.yul\":4472:4508   */\n      dup5\n      mstore\n        /* \"#utility.yul\":4435:4447   */\n      swap4\n      dup6\n      add\n      swap4\n        /* \"#utility.yul\":4528:4540   */\n      swap3\n      dup6\n      add\n      swap3\n        /* \"#utility.yul\":4402:4550   */\n      jump(tag_231)\n    tag_233:\n        /* \"#utility.yul\":4569:4575   */\n      swap9\n        /* \"#utility.yul\":3460:4581   */\n      swap8\n      pop\n      pop\n      pop\n      pop\n      pop\n      pop\n      pop\n      pop\n      jump\t// out\n        /* \"#utility.yul\":4586:4914   */\n    tag_119:\n        /* \"#utility.yul\":4788:4790   */\n      0x20\n        /* \"#utility.yul\":4770:4791   */\n      dup1\n      dup3\n      mstore\n        /* \"#utility.yul\":4827:4828   */\n      0x05\n        /* \"#utility.yul\":4807:4825   */\n      swap1\n      dup3\n      add\n        /* \"#utility.yul\":4800:4829   */\n      mstore\n      shl(0xd9, 0x2720a827a3)\n        /* \"#utility.yul\":4860:4862   */\n      0x40\n        /* \"#utility.yul\":4845:4863   */\n      dup3\n      add\n        /* \"#utility.yul\":4838:4873   */\n      mstore\n        /* \"#utility.yul\":4905:4907   */\n      0x60\n        /* \"#utility.yul\":4890:4908   */\n      add\n      swap1\n        /* \"#utility.yul\":4586:4914   */\n      jump\t// out\n        /* \"#utility.yul\":4919:5046   */\n    tag_184:\n        /* \"#utility.yul\":4980:4990   */\n      0x4e487b71\n        /* \"#utility.yul\":4975:4978   */\n      0xe0\n        /* \"#utility.yul\":4971:4991   */\n      shl\n        /* \"#utility.yul\":4968:4969   */\n      0x00\n        /* \"#utility.yul\":4961:4992   */\n      mstore\n        /* \"#utility.yul\":5011:5015   */\n      0x11\n        /* \"#utility.yul\":5008:5009   */\n      0x04\n        /* \"#utility.yul\":5001:5016   */\n      mstore\n        /* \"#utility.yul\":5035:5039   */\n      0x24\n        /* \"#utility.yul\":5032:5033   */\n      0x00\n        /* \"#utility.yul\":5025:5040   */\n      revert\n        /* \"#utility.yul\":5051:5176   */\n    tag_121:\n        /* \"#utility.yul\":5116:5125   */\n      dup1\n      dup3\n      add\n        /* \"#utility.yul\":5137:5147   */\n      dup1\n      dup3\n      gt\n        /* \"#utility.yul\":5134:5170   */\n      iszero\n      tag_122\n      jumpi\n        /* \"#utility.yul\":5150:5168   */\n      tag_122\n      tag_184\n      jump\t// in\n        /* \"#utility.yul\":5843:5970   */\n    tag_179:\n        /* \"#utility.yul\":5904:5914   */\n      0x4e487b71\n        /* \"#utility.yul\":5899:5902   */\n      0xe0\n        /* \"#utility.yul\":5895:5915   */\n      shl\n        /* \"#utility.yul\":5892:5893   */\n      0x00\n        /* \"#utility.yul\":5885:5916   */\n      mstore\n        /* \"#utility.yul\":5935:5939   */\n      0x32\n        /* \"#utility.yul\":5932:5933   */\n      0x04\n        /* \"#utility.yul\":5925:5940   */\n      mstore\n        /* \"#utility.yul\":5959:5963   */\n      0x24\n        /* \"#utility.yul\":5956:5957   */\n      0x00\n        /* \"#utility.yul\":5949:5964   */\n      revert\n        /* \"#utility.yul\":5975:6110   */\n    tag_181:\n        /* \"#utility.yul\":6014:6017   */\n      0x00\n        /* \"#utility.yul\":6035:6052   */\n      0x01\n      dup3\n      add\n        /* \"#utility.yul\":6032:6075   */\n      tag_245\n      jumpi\n        /* \"#utility.yul\":6055:6073   */\n      tag_245\n      tag_184\n      jump\t// in\n    tag_245:\n      pop\n        /* \"#utility.yul\":6102:6103   */\n      0x01\n        /* \"#utility.yul\":6091:6104   */\n      add\n      swap1\n        /* \"#utility.yul\":5975:6110   */\n      jump\t// out\n\n    auxdata: 0xa26469706673582212209da19dc2ec7b71f8f4226734c883439aff4feaa05fd2e2cc6df67e689747182c64736f6c63430008110033\n}\n",
				"bytecode": {
					"linkReferences": {},
					"object": "60a060405234801561001057600080fd5b5033608052608051610cb06100376000396000818161029e01526108a90152610cb06000f3fe608060405234801561001057600080fd5b50600436106101375760003560e01c80638fcfa775116100b8578063ba6b89731161007c578063ba6b897314610356578063bea75cf41461038c578063d050a7c81461039f578063daa30298146103b2578063dae382d6146103f2578063e4cdc1ad1461040557600080fd5b80638fcfa775146102c857806394fb7881146102f4578063b0b4dfaa1461031d578063b54cb16514610330578063b8c2e4f31461034357600080fd5b80637c1edb9d116100ff5780637c1edb9d146101ef5780637db79a3d146102255780637edd4d4d146102385780638052ce11146102715780638da5cb5b1461029157600080fd5b80630f04ba671461013c57806336721cd41461017d578063576ff163146101b457806359ed43e2146101c9578063783ff1f1146101dc575b600080fd5b61016861014a36600461098c565b6001600160a01b031660009081526001602052604090205460ff1690565b60405190151581526020015b60405180910390f35b6101a661018b36600461098c565b6001600160a01b031660009081526002602052604090205490565b604051908152602001610174565b6101c76101c23660046109ae565b610418565b005b6101a66101d73660046109da565b61049b565b6101c76101ea36600461098c565b6104c6565b6101a66101fd3660046109da565b6001600160a01b03919091166000908152600360209081526040808320938352929052205490565b6101c7610233366004610a04565b610532565b6101a6610246366004610a48565b6001600160a01b03918216600090815260046020908152604080832093909416825291909152205490565b6101a661027f366004610a72565b60009081526006602052604090205490565b6040516001600160a01b037f0000000000000000000000000000000000000000000000000000000000000000168152602001610174565b6101686102d636600461098c565b6001600160a01b031660009081526020819052604090205460ff1690565b6101a661030236600461098c565b6001600160a01b031660009081526008602052604090205490565b6101c761032b366004610a8b565b6105c5565b6101c761033e366004610a72565b61064b565b6101c7610351366004610ac0565b6106bb565b6101a66103643660046109da565b6001600160a01b03919091166000908152600760209081526040808320938352929052205490565b6101c761039a3660046109da565b61073b565b6101c76103ad3660046109da565b6107b8565b6101a66103c0366004610afc565b6001600160a01b0392831660009081526005602090815260408083209490951682529283528381209181529152205490565b6101c761040036600461098c565b610835565b6101c7610413366004610b3e565b6108a7565b3360009081526001602052604090205460ff168061044557503360009081526020819052604090205460ff165b61046a5760405162461bcd60e51b815260040161046190610c03565b60405180910390fd5b6001600160a01b03811660009081526002602052604081208054849290610492908490610c38565b90915550505050565b6001600160a01b03821660009081526009602090815260408083208484529091529020545b92915050565b3360009081526020819052604090205460ff1661050b5760405162461bcd60e51b815260206004820152600360248201526204e41560ec1b6044820152606401610461565b6001600160a01b03166000908152600160208190526040909120805460ff19169091179055565b3360009081526001602052604090205460ff168061055f57503360009081526020819052604090205460ff165b61057b5760405162461bcd60e51b815260040161046190610c03565b6001600160a01b0380841660009081526005602090815260408083209386168352928152828220848352905290812080548692906105ba908490610c38565b909155505050505050565b3360009081526001602052604090205460ff16806105f257503360009081526020819052604090205460ff165b61060e5760405162461bcd60e51b815260040161046190610c03565b6001600160a01b038216600090815260036020908152604080832084845290915281208054859290610641908490610c38565b9091555050505050565b3360009081526001602052604090205460ff168061067857503360009081526020819052604090205460ff165b6106945760405162461bcd60e51b815260040161046190610c03565b60008181526006602052604081208054600192906106b3908490610c38565b909155505050565b3360009081526001602052604090205460ff16806106e857503360009081526020819052604090205460ff165b6107045760405162461bcd60e51b815260040161046190610c03565b6001600160a01b03808316600090815260046020908152604080832093851683529290529081208054859290610641908490610c38565b3360009081526001602052604090205460ff168061076857503360009081526020819052604090205460ff165b6107845760405162461bcd60e51b815260040161046190610c03565b6001600160a01b03821660009081526007602090815260408083208484529091528120805460019290610492908490610c38565b3360009081526001602052604090205460ff16806107e557503360009081526020819052604090205460ff165b6108015760405162461bcd60e51b815260040161046190610c03565b6001600160a01b03821660009081526009602090815260408083208484529091528120805460019290610492908490610c38565b3360009081526001602052604090205460ff168061086257503360009081526020819052604090205460ff165b61087e5760405162461bcd60e51b815260040161046190610c03565b6001600160a01b03811660009081526008602052604081208054600192906106b3908490610c38565b7f00000000000000000000000000000000000000000000000000000000000000006001600160a01b031633146109055760405162461bcd60e51b81526020600482015260036024820152624e544f60e81b6044820152606401610461565b60005b815181101561096c57600160008084848151811061092857610928610c4b565b6020908102919091018101516001600160a01b03168252810191909152604001600020805460ff19169115159190911790558061096481610c61565b915050610908565b5050565b80356001600160a01b038116811461098757600080fd5b919050565b60006020828403121561099e57600080fd5b6109a782610970565b9392505050565b600080604083850312156109c157600080fd5b823591506109d160208401610970565b90509250929050565b600080604083850312156109ed57600080fd5b6109f683610970565b946020939093013593505050565b60008060008060808587031215610a1a57600080fd5b84359350610a2a60208601610970565b9250610a3860408601610970565b9396929550929360600135925050565b60008060408385031215610a5b57600080fd5b610a6483610970565b91506109d160208401610970565b600060208284031215610a8457600080fd5b5035919050565b600080600060608486031215610aa057600080fd5b83359250610ab060208501610970565b9150604084013590509250925092565b600080600060608486031215610ad557600080fd5b83359250610ae560208501610970565b9150610af360408501610970565b90509250925092565b600080600060608486031215610b1157600080fd5b610b1a84610970565b9250610ab060208501610970565b634e487b7160e01b600052604160045260246000fd5b60006020808385031215610b5157600080fd5b823567ffffffffffffffff80821115610b6957600080fd5b818501915085601f830112610b7d57600080fd5b813581811115610b8f57610b8f610b28565b8060051b604051601f19603f83011681018181108582111715610bb457610bb4610b28565b604052918252848201925083810185019188831115610bd257600080fd5b938501935b82851015610bf757610be885610970565b84529385019392850192610bd7565b98975050505050505050565b6020808252600590820152642720a827a360d91b604082015260600190565b634e487b7160e01b600052601160045260246000fd5b808201808211156104c0576104c0610c22565b634e487b7160e01b600052603260045260246000fd5b600060018201610c7357610c73610c22565b506001019056fea26469706673582212209da19dc2ec7b71f8f4226734c883439aff4feaa05fd2e2cc6df67e689747182c64736f6c63430008110033",
					"opcodes": "PUSH1 0xA0 PUSH1 0x40 MSTORE CALLVALUE DUP1 ISZERO PUSH2 0x10 JUMPI PUSH1 0x0 DUP1 REVERT JUMPDEST POP CALLER PUSH1 0x80 MSTORE PUSH1 0x80 MLOAD PUSH2 0xCB0 PUSH2 0x37 PUSH1 0x0 CODECOPY PUSH1 0x0 DUP2 DUP2 PUSH2 0x29E ADD MSTORE PUSH2 0x8A9 ADD MSTORE PUSH2 0xCB0 PUSH1 0x0 RETURN INVALID PUSH1 0x80 PUSH1 0x40 MSTORE CALLVALUE DUP1 ISZERO PUSH2 0x10 JUMPI PUSH1 0x0 DUP1 REVERT JUMPDEST POP PUSH1 0x4 CALLDATASIZE LT PUSH2 0x137 JUMPI PUSH1 0x0 CALLDATALOAD PUSH1 0xE0 SHR DUP1 PUSH4 0x8FCFA775 GT PUSH2 0xB8 JUMPI DUP1 PUSH4 0xBA6B8973 GT PUSH2 0x7C JUMPI DUP1 PUSH4 0xBA6B8973 EQ PUSH2 0x356 JUMPI DUP1 PUSH4 0xBEA75CF4 EQ PUSH2 0x38C JUMPI DUP1 PUSH4 0xD050A7C8 EQ PUSH2 0x39F JUMPI DUP1 PUSH4 0xDAA30298 EQ PUSH2 0x3B2 JUMPI DUP1 PUSH4 0xDAE382D6 EQ PUSH2 0x3F2 JUMPI DUP1 PUSH4 0xE4CDC1AD EQ PUSH2 0x405 JUMPI PUSH1 0x0 DUP1 REVERT JUMPDEST DUP1 PUSH4 0x8FCFA775 EQ PUSH2 0x2C8 JUMPI DUP1 PUSH4 0x94FB7881 EQ PUSH2 0x2F4 JUMPI DUP1 PUSH4 0xB0B4DFAA EQ PUSH2 0x31D JUMPI DUP1 PUSH4 0xB54CB165 EQ PUSH2 0x330 JUMPI DUP1 PUSH4 0xB8C2E4F3 EQ PUSH2 0x343 JUMPI PUSH1 0x0 DUP1 REVERT JUMPDEST DUP1 PUSH4 0x7C1EDB9D GT PUSH2 0xFF JUMPI DUP1 PUSH4 0x7C1EDB9D EQ PUSH2 0x1EF JUMPI DUP1 PUSH4 0x7DB79A3D EQ PUSH2 0x225 JUMPI DUP1 PUSH4 0x7EDD4D4D EQ PUSH2 0x238 JUMPI DUP1 PUSH4 0x8052CE11 EQ PUSH2 0x271 JUMPI DUP1 PUSH4 0x8DA5CB5B EQ PUSH2 0x291 JUMPI PUSH1 0x0 DUP1 REVERT JUMPDEST DUP1 PUSH4 0xF04BA67 EQ PUSH2 0x13C JUMPI DUP1 PUSH4 0x36721CD4 EQ PUSH2 0x17D JUMPI DUP1 PUSH4 0x576FF163 EQ PUSH2 0x1B4 JUMPI DUP1 PUSH4 0x59ED43E2 EQ PUSH2 0x1C9 JUMPI DUP1 PUSH4 0x783FF1F1 EQ PUSH2 0x1DC JUMPI JUMPDEST PUSH1 0x0 DUP1 REVERT JUMPDEST PUSH2 0x168 PUSH2 0x14A CALLDATASIZE PUSH1 0x4 PUSH2 0x98C JUMP JUMPDEST PUSH1 0x1 PUSH1 0x1 PUSH1 0xA0 SHL SUB AND PUSH1 0x0 SWAP1 DUP2 MSTORE PUSH1 0x1 PUSH1 0x20 MSTORE PUSH1 0x40 SWAP1 KECCAK256 SLOAD PUSH1 0xFF AND SWAP1 JUMP JUMPDEST PUSH1 0x40 MLOAD SWAP1 ISZERO ISZERO DUP2 MSTORE PUSH1 0x20 ADD JUMPDEST PUSH1 0x40 MLOAD DUP1 SWAP2 SUB SWAP1 RETURN JUMPDEST PUSH2 0x1A6 PUSH2 0x18B CALLDATASIZE PUSH1 0x4 PUSH2 0x98C JUMP JUMPDEST PUSH1 0x1 PUSH1 0x1 PUSH1 0xA0 SHL SUB AND PUSH1 0x0 SWAP1 DUP2 MSTORE PUSH1 0x2 PUSH1 0x20 MSTORE PUSH1 0x40 SWAP1 KECCAK256 SLOAD SWAP1 JUMP JUMPDEST PUSH1 0x40 MLOAD SWAP1 DUP2 MSTORE PUSH1 0x20 ADD PUSH2 0x174 JUMP JUMPDEST PUSH2 0x1C7 PUSH2 0x1C2 CALLDATASIZE PUSH1 0x4 PUSH2 0x9AE JUMP JUMPDEST PUSH2 0x418 JUMP JUMPDEST STOP JUMPDEST PUSH2 0x1A6 PUSH2 0x1D7 CALLDATASIZE PUSH1 0x4 PUSH2 0x9DA JUMP JUMPDEST PUSH2 0x49B JUMP JUMPDEST PUSH2 0x1C7 PUSH2 0x1EA CALLDATASIZE PUSH1 0x4 PUSH2 0x98C JUMP JUMPDEST PUSH2 0x4C6 JUMP JUMPDEST PUSH2 0x1A6 PUSH2 0x1FD CALLDATASIZE PUSH1 0x4 PUSH2 0x9DA JUMP JUMPDEST PUSH1 0x1 PUSH1 0x1 PUSH1 0xA0 SHL SUB SWAP2 SWAP1 SWAP2 AND PUSH1 0x0 SWAP1 DUP2 MSTORE PUSH1 0x3 PUSH1 0x20 SWAP1 DUP2 MSTORE PUSH1 0x40 DUP1 DUP4 KECCAK256 SWAP4 DUP4 MSTORE SWAP3 SWAP1 MSTORE KECCAK256 SLOAD SWAP1 JUMP JUMPDEST PUSH2 0x1C7 PUSH2 0x233 CALLDATASIZE PUSH1 0x4 PUSH2 0xA04 JUMP JUMPDEST PUSH2 0x532 JUMP JUMPDEST PUSH2 0x1A6 PUSH2 0x246 CALLDATASIZE PUSH1 0x4 PUSH2 0xA48 JUMP JUMPDEST PUSH1 0x1 PUSH1 0x1 PUSH1 0xA0 SHL SUB SWAP2 DUP3 AND PUSH1 0x0 SWAP1 DUP2 MSTORE PUSH1 0x4 PUSH1 0x20 SWAP1 DUP2 MSTORE PUSH1 0x40 DUP1 DUP4 KECCAK256 SWAP4 SWAP1 SWAP5 AND DUP3 MSTORE SWAP2 SWAP1 SWAP2 MSTORE KECCAK256 SLOAD SWAP1 JUMP JUMPDEST PUSH2 0x1A6 PUSH2 0x27F CALLDATASIZE PUSH1 0x4 PUSH2 0xA72 JUMP JUMPDEST PUSH1 0x0 SWAP1 DUP2 MSTORE PUSH1 0x6 PUSH1 0x20 MSTORE PUSH1 0x40 SWAP1 KECCAK256 SLOAD SWAP1 JUMP JUMPDEST PUSH1 0x40 MLOAD PUSH1 0x1 PUSH1 0x1 PUSH1 0xA0 SHL SUB PUSH32 0x0 AND DUP2 MSTORE PUSH1 0x20 ADD PUSH2 0x174 JUMP JUMPDEST PUSH2 0x168 PUSH2 0x2D6 CALLDATASIZE PUSH1 0x4 PUSH2 0x98C JUMP JUMPDEST PUSH1 0x1 PUSH1 0x1 PUSH1 0xA0 SHL SUB AND PUSH1 0x0 SWAP1 DUP2 MSTORE PUSH1 0x20 DUP2 SWAP1 MSTORE PUSH1 0x40 SWAP1 KECCAK256 SLOAD PUSH1 0xFF AND SWAP1 JUMP JUMPDEST PUSH2 0x1A6 PUSH2 0x302 CALLDATASIZE PUSH1 0x4 PUSH2 0x98C JUMP JUMPDEST PUSH1 0x1 PUSH1 0x1 PUSH1 0xA0 SHL SUB AND PUSH1 0x0 SWAP1 DUP2 MSTORE PUSH1 0x8 PUSH1 0x20 MSTORE PUSH1 0x40 SWAP1 KECCAK256 SLOAD SWAP1 JUMP JUMPDEST PUSH2 0x1C7 PUSH2 0x32B CALLDATASIZE PUSH1 0x4 PUSH2 0xA8B JUMP JUMPDEST PUSH2 0x5C5 JUMP JUMPDEST PUSH2 0x1C7 PUSH2 0x33E CALLDATASIZE PUSH1 0x4 PUSH2 0xA72 JUMP JUMPDEST PUSH2 0x64B JUMP JUMPDEST PUSH2 0x1C7 PUSH2 0x351 CALLDATASIZE PUSH1 0x4 PUSH2 0xAC0 JUMP JUMPDEST PUSH2 0x6BB JUMP JUMPDEST PUSH2 0x1A6 PUSH2 0x364 CALLDATASIZE PUSH1 0x4 PUSH2 0x9DA JUMP JUMPDEST PUSH1 0x1 PUSH1 0x1 PUSH1 0xA0 SHL SUB SWAP2 SWAP1 SWAP2 AND PUSH1 0x0 SWAP1 DUP2 MSTORE PUSH1 0x7 PUSH1 0x20 SWAP1 DUP2 MSTORE PUSH1 0x40 DUP1 DUP4 KECCAK256 SWAP4 DUP4 MSTORE SWAP3 SWAP1 MSTORE KECCAK256 SLOAD SWAP1 JUMP JUMPDEST PUSH2 0x1C7 PUSH2 0x39A CALLDATASIZE PUSH1 0x4 PUSH2 0x9DA JUMP JUMPDEST PUSH2 0x73B JUMP JUMPDEST PUSH2 0x1C7 PUSH2 0x3AD CALLDATASIZE PUSH1 0x4 PUSH2 0x9DA JUMP JUMPDEST PUSH2 0x7B8 JUMP JUMPDEST PUSH2 0x1A6 PUSH2 0x3C0 CALLDATASIZE PUSH1 0x4 PUSH2 0xAFC JUMP JUMPDEST PUSH1 0x1 PUSH1 0x1 PUSH1 0xA0 SHL SUB SWAP3 DUP4 AND PUSH1 0x0 SWAP1 DUP2 MSTORE PUSH1 0x5 PUSH1 0x20 SWAP1 DUP2 MSTORE PUSH1 0x40 DUP1 DUP4 KECCAK256 SWAP5 SWAP1 SWAP6 AND DUP3 MSTORE SWAP3 DUP4 MSTORE DUP4 DUP2 KECCAK256 SWAP2 DUP2 MSTORE SWAP2 MSTORE KECCAK256 SLOAD SWAP1 JUMP JUMPDEST PUSH2 0x1C7 PUSH2 0x400 CALLDATASIZE PUSH1 0x4 PUSH2 0x98C JUMP JUMPDEST PUSH2 0x835 JUMP JUMPDEST PUSH2 0x1C7 PUSH2 0x413 CALLDATASIZE PUSH1 0x4 PUSH2 0xB3E JUMP JUMPDEST PUSH2 0x8A7 JUMP JUMPDEST CALLER PUSH1 0x0 SWAP1 DUP2 MSTORE PUSH1 0x1 PUSH1 0x20 MSTORE PUSH1 0x40 SWAP1 KECCAK256 SLOAD PUSH1 0xFF AND DUP1 PUSH2 0x445 JUMPI POP CALLER PUSH1 0x0 SWAP1 DUP2 MSTORE PUSH1 0x20 DUP2 SWAP1 MSTORE PUSH1 0x40 SWAP1 KECCAK256 SLOAD PUSH1 0xFF AND JUMPDEST PUSH2 0x46A JUMPI PUSH1 0x40 MLOAD PUSH3 0x461BCD PUSH1 0xE5 SHL DUP2 MSTORE PUSH1 0x4 ADD PUSH2 0x461 SWAP1 PUSH2 0xC03 JUMP JUMPDEST PUSH1 0x40 MLOAD DUP1 SWAP2 SUB SWAP1 REVERT JUMPDEST PUSH1 0x1 PUSH1 0x1 PUSH1 0xA0 SHL SUB DUP2 AND PUSH1 0x0 SWAP1 DUP2 MSTORE PUSH1 0x2 PUSH1 0x20 MSTORE PUSH1 0x40 DUP2 KECCAK256 DUP1 SLOAD DUP5 SWAP3 SWAP1 PUSH2 0x492 SWAP1 DUP5 SWAP1 PUSH2 0xC38 JUMP JUMPDEST SWAP1 SWAP2 SSTORE POP POP POP POP JUMP JUMPDEST PUSH1 0x1 PUSH1 0x1 PUSH1 0xA0 SHL SUB DUP3 AND PUSH1 0x0 SWAP1 DUP2 MSTORE PUSH1 0x9 PUSH1 0x20 SWAP1 DUP2 MSTORE PUSH1 0x40 DUP1 DUP4 KECCAK256 DUP5 DUP5 MSTORE SWAP1 SWAP2 MSTORE SWAP1 KECCAK256 SLOAD JUMPDEST SWAP3 SWAP2 POP POP JUMP JUMPDEST CALLER PUSH1 0x0 SWAP1 DUP2 MSTORE PUSH1 0x20 DUP2 SWAP1 MSTORE PUSH1 0x40 SWAP1 KECCAK256 SLOAD PUSH1 0xFF AND PUSH2 0x50B JUMPI PUSH1 0x40 MLOAD PUSH3 0x461BCD PUSH1 0xE5 SHL DUP2 MSTORE PUSH1 0x20 PUSH1 0x4 DUP3 ADD MSTORE PUSH1 0x3 PUSH1 0x24 DUP3 ADD MSTORE PUSH3 0x4E415 PUSH1 0xEC SHL PUSH1 0x44 DUP3 ADD MSTORE PUSH1 0x64 ADD PUSH2 0x461 JUMP JUMPDEST PUSH1 0x1 PUSH1 0x1 PUSH1 0xA0 SHL SUB AND PUSH1 0x0 SWAP1 DUP2 MSTORE PUSH1 0x1 PUSH1 0x20 DUP2 SWAP1 MSTORE PUSH1 0x40 SWAP1 SWAP2 KECCAK256 DUP1 SLOAD PUSH1 0xFF NOT AND SWAP1 SWAP2 OR SWAP1 SSTORE JUMP JUMPDEST CALLER PUSH1 0x0 SWAP1 DUP2 MSTORE PUSH1 0x1 PUSH1 0x20 MSTORE PUSH1 0x40 SWAP1 KECCAK256 SLOAD PUSH1 0xFF AND DUP1 PUSH2 0x55F JUMPI POP CALLER PUSH1 0x0 SWAP1 DUP2 MSTORE PUSH1 0x20 DUP2 SWAP1 MSTORE PUSH1 0x40 SWAP1 KECCAK256 SLOAD PUSH1 0xFF AND JUMPDEST PUSH2 0x57B JUMPI PUSH1 0x40 MLOAD PUSH3 0x461BCD PUSH1 0xE5 SHL DUP2 MSTORE PUSH1 0x4 ADD PUSH2 0x461 SWAP1 PUSH2 0xC03 JUMP JUMPDEST PUSH1 0x1 PUSH1 0x1 PUSH1 0xA0 SHL SUB DUP1 DUP5 AND PUSH1 0x0 SWAP1 DUP2 MSTORE PUSH1 0x5 PUSH1 0x20 SWAP1 DUP2 MSTORE PUSH1 0x40 DUP1 DUP4 KECCAK256 SWAP4 DUP7 AND DUP4 MSTORE SWAP3 DUP2 MSTORE DUP3 DUP3 KECCAK256 DUP5 DUP4 MSTORE SWAP1 MSTORE SWAP1 DUP2 KECCAK256 DUP1 SLOAD DUP7 SWAP3 SWAP1 PUSH2 0x5BA SWAP1 DUP5 SWAP1 PUSH2 0xC38 JUMP JUMPDEST SWAP1 SWAP2 SSTORE POP POP POP POP POP POP JUMP JUMPDEST CALLER PUSH1 0x0 SWAP1 DUP2 MSTORE PUSH1 0x1 PUSH1 0x20 MSTORE PUSH1 0x40 SWAP1 KECCAK256 SLOAD PUSH1 0xFF AND DUP1 PUSH2 0x5F2 JUMPI POP CALLER PUSH1 0x0 SWAP1 DUP2 MSTORE PUSH1 0x20 DUP2 SWAP1 MSTORE PUSH1 0x40 SWAP1 KECCAK256 SLOAD PUSH1 0xFF AND JUMPDEST PUSH2 0x60E JUMPI PUSH1 0x40 MLOAD PUSH3 0x461BCD PUSH1 0xE5 SHL DUP2 MSTORE PUSH1 0x4 ADD PUSH2 0x461 SWAP1 PUSH2 0xC03 JUMP JUMPDEST PUSH1 0x1 PUSH1 0x1 PUSH1 0xA0 SHL SUB DUP3 AND PUSH1 0x0 SWAP1 DUP2 MSTORE PUSH1 0x3 PUSH1 0x20 SWAP1 DUP2 MSTORE PUSH1 0x40 DUP1 DUP4 KECCAK256 DUP5 DUP5 MSTORE SWAP1 SWAP2 MSTORE DUP2 KECCAK256 DUP1 SLOAD DUP6 SWAP3 SWAP1 PUSH2 0x641 SWAP1 DUP5 SWAP1 PUSH2 0xC38 JUMP JUMPDEST SWAP1 SWAP2 SSTORE POP POP POP POP POP JUMP JUMPDEST CALLER PUSH1 0x0 SWAP1 DUP2 MSTORE PUSH1 0x1 PUSH1 0x20 MSTORE PUSH1 0x40 SWAP1 KECCAK256 SLOAD PUSH1 0xFF AND DUP1 PUSH2 0x678 JUMPI POP CALLER PUSH1 0x0 SWAP1 DUP2 MSTORE PUSH1 0x20 DUP2 SWAP1 MSTORE PUSH1 0x40 SWAP1 KECCAK256 SLOAD PUSH1 0xFF AND JUMPDEST PUSH2 0x694 JUMPI PUSH1 0x40 MLOAD PUSH3 0x461BCD PUSH1 0xE5 SHL DUP2 MSTORE PUSH1 0x4 ADD PUSH2 0x461 SWAP1 PUSH2 0xC03 JUMP JUMPDEST PUSH1 0x0 DUP2 DUP2 MSTORE PUSH1 0x6 PUSH1 0x20 MSTORE PUSH1 0x40 DUP2 KECCAK256 DUP1 SLOAD PUSH1 0x1 SWAP3 SWAP1 PUSH2 0x6B3 SWAP1 DUP5 SWAP1 PUSH2 0xC38 JUMP JUMPDEST SWAP1 SWAP2 SSTORE POP POP POP JUMP JUMPDEST CALLER PUSH1 0x0 SWAP1 DUP2 MSTORE PUSH1 0x1 PUSH1 0x20 MSTORE PUSH1 0x40 SWAP1 KECCAK256 SLOAD PUSH1 0xFF AND DUP1 PUSH2 0x6E8 JUMPI POP CALLER PUSH1 0x0 SWAP1 DUP2 MSTORE PUSH1 0x20 DUP2 SWAP1 MSTORE PUSH1 0x40 SWAP1 KECCAK256 SLOAD PUSH1 0xFF AND JUMPDEST PUSH2 0x704 JUMPI PUSH1 0x40 MLOAD PUSH3 0x461BCD PUSH1 0xE5 SHL DUP2 MSTORE PUSH1 0x4 ADD PUSH2 0x461 SWAP1 PUSH2 0xC03 JUMP JUMPDEST PUSH1 0x1 PUSH1 0x1 PUSH1 0xA0 SHL SUB DUP1 DUP4 AND PUSH1 0x0 SWAP1 DUP2 MSTORE PUSH1 0x4 PUSH1 0x20 SWAP1 DUP2 MSTORE PUSH1 0x40 DUP1 DUP4 KECCAK256 SWAP4 DUP6 AND DUP4 MSTORE SWAP3 SWAP1 MSTORE SWAP1 DUP2 KECCAK256 DUP1 SLOAD DUP6 SWAP3 SWAP1 PUSH2 0x641 SWAP1 DUP5 SWAP1 PUSH2 0xC38 JUMP JUMPDEST CALLER PUSH1 0x0 SWAP1 DUP2 MSTORE PUSH1 0x1 PUSH1 0x20 MSTORE PUSH1 0x40 SWAP1 KECCAK256 SLOAD PUSH1 0xFF AND DUP1 PUSH2 0x768 JUMPI POP CALLER PUSH1 0x0 SWAP1 DUP2 MSTORE PUSH1 0x20 DUP2 SWAP1 MSTORE PUSH1 0x40 SWAP1 KECCAK256 SLOAD PUSH1 0xFF AND JUMPDEST PUSH2 0x784 JUMPI PUSH1 0x40 MLOAD PUSH3 0x461BCD PUSH1 0xE5 SHL DUP2 MSTORE PUSH1 0x4 ADD PUSH2 0x461 SWAP1 PUSH2 0xC03 JUMP JUMPDEST PUSH1 0x1 PUSH1 0x1 PUSH1 0xA0 SHL SUB DUP3 AND PUSH1 0x0 SWAP1 DUP2 MSTORE PUSH1 0x7 PUSH1 0x20 SWAP1 DUP2 MSTORE PUSH1 0x40 DUP1 DUP4 KECCAK256 DUP5 DUP5 MSTORE SWAP1 SWAP2 MSTORE DUP2 KECCAK256 DUP1 SLOAD PUSH1 0x1 SWAP3 SWAP1 PUSH2 0x492 SWAP1 DUP5 SWAP1 PUSH2 0xC38 JUMP JUMPDEST CALLER PUSH1 0x0 SWAP1 DUP2 MSTORE PUSH1 0x1 PUSH1 0x20 MSTORE PUSH1 0x40 SWAP1 KECCAK256 SLOAD PUSH1 0xFF AND DUP1 PUSH2 0x7E5 JUMPI POP CALLER PUSH1 0x0 SWAP1 DUP2 MSTORE PUSH1 0x20 DUP2 SWAP1 MSTORE PUSH1 0x40 SWAP1 KECCAK256 SLOAD PUSH1 0xFF AND JUMPDEST PUSH2 0x801 JUMPI PUSH1 0x40 MLOAD PUSH3 0x461BCD PUSH1 0xE5 SHL DUP2 MSTORE PUSH1 0x4 ADD PUSH2 0x461 SWAP1 PUSH2 0xC03 JUMP JUMPDEST PUSH1 0x1 PUSH1 0x1 PUSH1 0xA0 SHL SUB DUP3 AND PUSH1 0x0 SWAP1 DUP2 MSTORE PUSH1 0x9 PUSH1 0x20 SWAP1 DUP2 MSTORE PUSH1 0x40 DUP1 DUP4 KECCAK256 DUP5 DUP5 MSTORE SWAP1 SWAP2 MSTORE DUP2 KECCAK256 DUP1 SLOAD PUSH1 0x1 SWAP3 SWAP1 PUSH2 0x492 SWAP1 DUP5 SWAP1 PUSH2 0xC38 JUMP JUMPDEST CALLER PUSH1 0x0 SWAP1 DUP2 MSTORE PUSH1 0x1 PUSH1 0x20 MSTORE PUSH1 0x40 SWAP1 KECCAK256 SLOAD PUSH1 0xFF AND DUP1 PUSH2 0x862 JUMPI POP CALLER PUSH1 0x0 SWAP1 DUP2 MSTORE PUSH1 0x20 DUP2 SWAP1 MSTORE PUSH1 0x40 SWAP1 KECCAK256 SLOAD PUSH1 0xFF AND JUMPDEST PUSH2 0x87E JUMPI PUSH1 0x40 MLOAD PUSH3 0x461BCD PUSH1 0xE5 SHL DUP2 MSTORE PUSH1 0x4 ADD PUSH2 0x461 SWAP1 PUSH2 0xC03 JUMP JUMPDEST PUSH1 0x1 PUSH1 0x1 PUSH1 0xA0 SHL SUB DUP2 AND PUSH1 0x0 SWAP1 DUP2 MSTORE PUSH1 0x8 PUSH1 0x20 MSTORE PUSH1 0x40 DUP2 KECCAK256 DUP1 SLOAD PUSH1 0x1 SWAP3 SWAP1 PUSH2 0x6B3 SWAP1 DUP5 SWAP1 PUSH2 0xC38 JUMP JUMPDEST PUSH32 0x0 PUSH1 0x1 PUSH1 0x1 PUSH1 0xA0 SHL SUB AND CALLER EQ PUSH2 0x905 JUMPI PUSH1 0x40 MLOAD PUSH3 0x461BCD PUSH1 0xE5 SHL DUP2 MSTORE PUSH1 0x20 PUSH1 0x4 DUP3 ADD MSTORE PUSH1 0x3 PUSH1 0x24 DUP3 ADD MSTORE PUSH3 0x4E544F PUSH1 0xE8 SHL PUSH1 0x44 DUP3 ADD MSTORE PUSH1 0x64 ADD PUSH2 0x461 JUMP JUMPDEST PUSH1 0x0 JUMPDEST DUP2 MLOAD DUP2 LT ISZERO PUSH2 0x96C JUMPI PUSH1 0x1 PUSH1 0x0 DUP1 DUP5 DUP5 DUP2 MLOAD DUP2 LT PUSH2 0x928 JUMPI PUSH2 0x928 PUSH2 0xC4B JUMP JUMPDEST PUSH1 0x20 SWAP1 DUP2 MUL SWAP2 SWAP1 SWAP2 ADD DUP2 ADD MLOAD PUSH1 0x1 PUSH1 0x1 PUSH1 0xA0 SHL SUB AND DUP3 MSTORE DUP2 ADD SWAP2 SWAP1 SWAP2 MSTORE PUSH1 0x40 ADD PUSH1 0x0 KECCAK256 DUP1 SLOAD PUSH1 0xFF NOT AND SWAP2 ISZERO ISZERO SWAP2 SWAP1 SWAP2 OR SWAP1 SSTORE DUP1 PUSH2 0x964 DUP2 PUSH2 0xC61 JUMP JUMPDEST SWAP2 POP POP PUSH2 0x908 JUMP JUMPDEST POP POP JUMP JUMPDEST DUP1 CALLDATALOAD PUSH1 0x1 PUSH1 0x1 PUSH1 0xA0 SHL SUB DUP2 AND DUP2 EQ PUSH2 0x987 JUMPI PUSH1 0x0 DUP1 REVERT JUMPDEST SWAP2 SWAP1 POP JUMP JUMPDEST PUSH1 0x0 PUSH1 0x20 DUP3 DUP5 SUB SLT ISZERO PUSH2 0x99E JUMPI PUSH1 0x0 DUP1 REVERT JUMPDEST PUSH2 0x9A7 DUP3 PUSH2 0x970 JUMP JUMPDEST SWAP4 SWAP3 POP POP POP JUMP JUMPDEST PUSH1 0x0 DUP1 PUSH1 0x40 DUP4 DUP6 SUB SLT ISZERO PUSH2 0x9C1 JUMPI PUSH1 0x0 DUP1 REVERT JUMPDEST DUP3 CALLDATALOAD SWAP2 POP PUSH2 0x9D1 PUSH1 0x20 DUP5 ADD PUSH2 0x970 JUMP JUMPDEST SWAP1 POP SWAP3 POP SWAP3 SWAP1 POP JUMP JUMPDEST PUSH1 0x0 DUP1 PUSH1 0x40 DUP4 DUP6 SUB SLT ISZERO PUSH2 0x9ED JUMPI PUSH1 0x0 DUP1 REVERT JUMPDEST PUSH2 0x9F6 DUP4 PUSH2 0x970 JUMP JUMPDEST SWAP5 PUSH1 0x20 SWAP4 SWAP1 SWAP4 ADD CALLDATALOAD SWAP4 POP POP POP JUMP JUMPDEST PUSH1 0x0 DUP1 PUSH1 0x0 DUP1 PUSH1 0x80 DUP6 DUP8 SUB SLT ISZERO PUSH2 0xA1A JUMPI PUSH1 0x0 DUP1 REVERT JUMPDEST DUP5 CALLDATALOAD SWAP4 POP PUSH2 0xA2A PUSH1 0x20 DUP7 ADD PUSH2 0x970 JUMP JUMPDEST SWAP3 POP PUSH2 0xA38 PUSH1 0x40 DUP7 ADD PUSH2 0x970 JUMP JUMPDEST SWAP4 SWAP7 SWAP3 SWAP6 POP SWAP3 SWAP4 PUSH1 0x60 ADD CALLDATALOAD SWAP3 POP POP JUMP JUMPDEST PUSH1 0x0 DUP1 PUSH1 0x40 DUP4 DUP6 SUB SLT ISZERO PUSH2 0xA5B JUMPI PUSH1 0x0 DUP1 REVERT JUMPDEST PUSH2 0xA64 DUP4 PUSH2 0x970 JUMP JUMPDEST SWAP2 POP PUSH2 0x9D1 PUSH1 0x20 DUP5 ADD PUSH2 0x970 JUMP JUMPDEST PUSH1 0x0 PUSH1 0x20 DUP3 DUP5 SUB SLT ISZERO PUSH2 0xA84 JUMPI PUSH1 0x0 DUP1 REVERT JUMPDEST POP CALLDATALOAD SWAP2 SWAP1 POP JUMP JUMPDEST PUSH1 0x0 DUP1 PUSH1 0x0 PUSH1 0x60 DUP5 DUP7 SUB SLT ISZERO PUSH2 0xAA0 JUMPI PUSH1 0x0 DUP1 REVERT JUMPDEST DUP4 CALLDATALOAD SWAP3 POP PUSH2 0xAB0 PUSH1 0x20 DUP6 ADD PUSH2 0x970 JUMP JUMPDEST SWAP2 POP PUSH1 0x40 DUP5 ADD CALLDATALOAD SWAP1 POP SWAP3 POP SWAP3 POP SWAP3 JUMP JUMPDEST PUSH1 0x0 DUP1 PUSH1 0x0 PUSH1 0x60 DUP5 DUP7 SUB SLT ISZERO PUSH2 0xAD5 JUMPI PUSH1 0x0 DUP1 REVERT JUMPDEST DUP4 CALLDATALOAD SWAP3 POP PUSH2 0xAE5 PUSH1 0x20 DUP6 ADD PUSH2 0x970 JUMP JUMPDEST SWAP2 POP PUSH2 0xAF3 PUSH1 0x40 DUP6 ADD PUSH2 0x970 JUMP JUMPDEST SWAP1 POP SWAP3 POP SWAP3 POP SWAP3 JUMP JUMPDEST PUSH1 0x0 DUP1 PUSH1 0x0 PUSH1 0x60 DUP5 DUP7 SUB SLT ISZERO PUSH2 0xB11 JUMPI PUSH1 0x0 DUP1 REVERT JUMPDEST PUSH2 0xB1A DUP5 PUSH2 0x970 JUMP JUMPDEST SWAP3 POP PUSH2 0xAB0 PUSH1 0x20 DUP6 ADD PUSH2 0x970 JUMP JUMPDEST PUSH4 0x4E487B71 PUSH1 0xE0 SHL PUSH1 0x0 MSTORE PUSH1 0x41 PUSH1 0x4 MSTORE PUSH1 0x24 PUSH1 0x0 REVERT JUMPDEST PUSH1 0x0 PUSH1 0x20 DUP1 DUP4 DUP6 SUB SLT ISZERO PUSH2 0xB51 JUMPI PUSH1 0x0 DUP1 REVERT JUMPDEST DUP3 CALLDATALOAD PUSH8 0xFFFFFFFFFFFFFFFF DUP1 DUP3 GT ISZERO PUSH2 0xB69 JUMPI PUSH1 0x0 DUP1 REVERT JUMPDEST DUP2 DUP6 ADD SWAP2 POP DUP6 PUSH1 0x1F DUP4 ADD SLT PUSH2 0xB7D JUMPI PUSH1 0x0 DUP1 REVERT JUMPDEST DUP2 CALLDATALOAD DUP2 DUP2 GT ISZERO PUSH2 0xB8F JUMPI PUSH2 0xB8F PUSH2 0xB28 JUMP JUMPDEST DUP1 PUSH1 0x5 SHL PUSH1 0x40 MLOAD PUSH1 0x1F NOT PUSH1 0x3F DUP4 ADD AND DUP2 ADD DUP2 DUP2 LT DUP6 DUP3 GT OR ISZERO PUSH2 0xBB4 JUMPI PUSH2 0xBB4 PUSH2 0xB28 JUMP JUMPDEST PUSH1 0x40 MSTORE SWAP2 DUP3 MSTORE DUP5 DUP3 ADD SWAP3 POP DUP4 DUP2 ADD DUP6 ADD SWAP2 DUP9 DUP4 GT ISZERO PUSH2 0xBD2 JUMPI PUSH1 0x0 DUP1 REVERT JUMPDEST SWAP4 DUP6 ADD SWAP4 JUMPDEST DUP3 DUP6 LT ISZERO PUSH2 0xBF7 JUMPI PUSH2 0xBE8 DUP6 PUSH2 0x970 JUMP JUMPDEST DUP5 MSTORE SWAP4 DUP6 ADD SWAP4 SWAP3 DUP6 ADD SWAP3 PUSH2 0xBD7 JUMP JUMPDEST SWAP9 SWAP8 POP POP POP POP POP POP POP POP JUMP JUMPDEST PUSH1 0x20 DUP1 DUP3 MSTORE PUSH1 0x5 SWAP1 DUP3 ADD MSTORE PUSH5 0x2720A827A3 PUSH1 0xD9 SHL PUSH1 0x40 DUP3 ADD MSTORE PUSH1 0x60 ADD SWAP1 JUMP JUMPDEST PUSH4 0x4E487B71 PUSH1 0xE0 SHL PUSH1 0x0 MSTORE PUSH1 0x11 PUSH1 0x4 MSTORE PUSH1 0x24 PUSH1 0x0 REVERT JUMPDEST DUP1 DUP3 ADD DUP1 DUP3 GT ISZERO PUSH2 0x4C0 JUMPI PUSH2 0x4C0 PUSH2 0xC22 JUMP JUMPDEST PUSH4 0x4E487B71 PUSH1 0xE0 SHL PUSH1 0x0 MSTORE PUSH1 0x32 PUSH1 0x4 MSTORE PUSH1 0x24 PUSH1 0x0 REVERT JUMPDEST PUSH1 0x0 PUSH1 0x1 DUP3 ADD PUSH2 0xC73 JUMPI PUSH2 0xC73 PUSH2 0xC22 JUMP JUMPDEST POP PUSH1 0x1 ADD SWAP1 JUMP INVALID LOG2 PUSH5 0x6970667358 0x22 SLT KECCAK256 SWAP14 LOG1 SWAP14 0xC2 0xEC PUSH28 0x71F8F4226734C883439AFF4FEAA05FD2E2CC6DF67E689747182C6473 PUSH16 0x6C634300081100330000000000000000 "
				},
				"gasEstimates": {
					"creation": {
						"codeDepositCost": "649600",
						"executionCost": "infinite",
						"totalCost": "infinite"
					},
					"external": {
						"fundsRaisedByCompanyAndToken(address,address)": "infinite",
						"fundsRaisedByCompanyAndTokenAndCategory(address,address,uint256)": "infinite",
						"fundsRaisedByToken(address)": "2583",
						"fundsRaisedByTokenAndCategory(address,uint256)": "2659",
						"incrementFundsRaisedByCompanyAndToken(uint256,address,address)": "infinite",
						"incrementFundsRaisedByCompanyAndTokenAndCategory(uint256,address,address,uint256)": "infinite",
						"incrementFundsRaisedByToken(uint256,address)": "29180",
						"incrementFundsRaisedByTokenAndCategory(uint256,address,uint256)": "29273",
						"incrementNumberOfIssuedBondsByCategory(uint256)": "29071",
						"incrementNumberOfIssuedBondsByCompanyAndCategory(address,uint256)": "29223",
						"incrementNumberOfTimesDefaultedByCompany(address)": "29194",
						"incrementNumberOfTimesDefaultedByCompanyAndCategory(address,uint256)": "29245",
						"isFactory(address)": "2562",
						"isPeriphery(address)": "2564",
						"numberOfIssuedBondsByCategory(uint256)": "2527",
						"numberOfIssuedBondsByCompanyAndCategory(address,uint256)": "2658",
						"numberOfTimesDefaultedByCompany(address)": "2582",
						"numberOfTimesDefaultedByCompanyAndCategory(address,uint256)": "2743",
						"owner()": "infinite",
						"registerFactory(address)": "26928",
						"registerPeriphery(address[])": "infinite"
					}
				},
				"methodIdentifiers": {
					"fundsRaisedByCompanyAndToken(address,address)": "7edd4d4d",
					"fundsRaisedByCompanyAndTokenAndCategory(address,address,uint256)": "daa30298",
					"fundsRaisedByToken(address)": "36721cd4",
					"fundsRaisedByTokenAndCategory(address,uint256)": "7c1edb9d",
					"incrementFundsRaisedByCompanyAndToken(uint256,address,address)": "b8c2e4f3",
					"incrementFundsRaisedByCompanyAndTokenAndCategory(uint256,address,address,uint256)": "7db79a3d",
					"incrementFundsRaisedByToken(uint256,address)": "576ff163",
					"incrementFundsRaisedByTokenAndCategory(uint256,address,uint256)": "b0b4dfaa",
					"incrementNumberOfIssuedBondsByCategory(uint256)": "b54cb165",
					"incrementNumberOfIssuedBondsByCompanyAndCategory(address,uint256)": "bea75cf4",
					"incrementNumberOfTimesDefaultedByCompany(address)": "dae382d6",
					"incrementNumberOfTimesDefaultedByCompanyAndCategory(address,uint256)": "d050a7c8",
					"isFactory(address)": "0f04ba67",
					"isPeriphery(address)": "8fcfa775",
					"numberOfIssuedBondsByCategory(uint256)": "8052ce11",
					"numberOfIssuedBondsByCompanyAndCategory(address,uint256)": "ba6b8973",
					"numberOfTimesDefaultedByCompany(address)": "94fb7881",
					"numberOfTimesDefaultedByCompanyAndCategory(address,uint256)": "59ed43e2",
					"owner()": "8da5cb5b",
					"registerFactory(address)": "783ff1f1",
					"registerPeriphery(address[])": "e4cdc1ad"
				}
			},
			"storageLayout": {
				"storage": [
					{
						"astId": 8,
						"contract": "contracts/BondDB.sol:BondDB",
						"label": "_isPeriphery",
						"offset": 0,
						"slot": "0",
						"type": "t_mapping(t_address,t_bool)"
					},
					{
						"astId": 12,
						"contract": "contracts/BondDB.sol:BondDB",
						"label": "_isFactory",
						"offset": 0,
						"slot": "1",
						"type": "t_mapping(t_address,t_bool)"
					},
					{
						"astId": 16,
						"contract": "contracts/BondDB.sol:BondDB",
						"label": "_fundsRaisedByToken",
						"offset": 0,
						"slot": "2",
						"type": "t_mapping(t_address,t_uint256)"
					},
					{
						"astId": 22,
						"contract": "contracts/BondDB.sol:BondDB",
						"label": "_fundsRaisedByTokenAndCategory",
						"offset": 0,
						"slot": "3",
						"type": "t_mapping(t_address,t_mapping(t_uint256,t_uint256))"
					},
					{
						"astId": 28,
						"contract": "contracts/BondDB.sol:BondDB",
						"label": "_fundsRaisedByCompanyAndToken",
						"offset": 0,
						"slot": "4",
						"type": "t_mapping(t_address,t_mapping(t_address,t_uint256))"
					},
					{
						"astId": 36,
						"contract": "contracts/BondDB.sol:BondDB",
						"label": "_fundsRaisedByCompanyAndTokenAndCategory",
						"offset": 0,
						"slot": "5",
						"type": "t_mapping(t_address,t_mapping(t_address,t_mapping(t_uint256,t_uint256)))"
					},
					{
						"astId": 40,
						"contract": "contracts/BondDB.sol:BondDB",
						"label": "_numberOfIssuedBondsByCategory",
						"offset": 0,
						"slot": "6",
						"type": "t_mapping(t_uint256,t_uint256)"
					},
					{
						"astId": 46,
						"contract": "contracts/BondDB.sol:BondDB",
						"label": "_numberOfIssuedBondsByCompanyAndCategory",
						"offset": 0,
						"slot": "7",
						"type": "t_mapping(t_address,t_mapping(t_uint256,t_uint256))"
					},
					{
						"astId": 50,
						"contract": "contracts/BondDB.sol:BondDB",
						"label": "_numberOfTimesDefaultedByCompany",
						"offset": 0,
						"slot": "8",
						"type": "t_mapping(t_address,t_uint256)"
					},
					{
						"astId": 56,
						"contract": "contracts/BondDB.sol:BondDB",
						"label": "_numberOfTimesDefaultedByCompanyAndCategory",
						"offset": 0,
						"slot": "9",
						"type": "t_mapping(t_address,t_mapping(t_uint256,t_uint256))"
					}
				],
				"types": {
					"t_address": {
						"encoding": "inplace",
						"label": "address",
						"numberOfBytes": "20"
					},
					"t_bool": {
						"encoding": "inplace",
						"label": "bool",
						"numberOfBytes": "1"
					},
					"t_mapping(t_address,t_bool)": {
						"encoding": "mapping",
						"key": "t_address",
						"label": "mapping(address => bool)",
						"numberOfBytes": "32",
						"value": "t_bool"
					},
					"t_mapping(t_address,t_mapping(t_address,t_mapping(t_uint256,t_uint256)))": {
						"encoding": "mapping",
						"key": "t_address",
						"label": "mapping(address => mapping(address => mapping(uint256 => uint256)))",
						"numberOfBytes": "32",
						"value": "t_mapping(t_address,t_mapping(t_uint256,t_uint256))"
					},
					"t_mapping(t_address,t_mapping(t_address,t_uint256))": {
						"encoding": "mapping",
						"key": "t_address",
						"label": "mapping(address => mapping(address => uint256))",
						"numberOfBytes": "32",
						"value": "t_mapping(t_address,t_uint256)"
					},
					"t_mapping(t_address,t_mapping(t_uint256,t_uint256))": {
						"encoding": "mapping",
						"key": "t_address",
						"label": "mapping(address => mapping(uint256 => uint256))",
						"numberOfBytes": "32",
						"value": "t_mapping(t_uint256,t_uint256)"
					},
					"t_mapping(t_address,t_uint256)": {
						"encoding": "mapping",
						"key": "t_address",
						"label": "mapping(address => uint256)",
						"numberOfBytes": "32",
						"value": "t_uint256"
					},
					"t_mapping(t_uint256,t_uint256)": {
						"encoding": "mapping",
						"key": "t_uint256",
						"label": "mapping(uint256 => uint256)",
						"numberOfBytes": "32",
						"value": "t_uint256"
					},
					"t_uint256": {
						"encoding": "inplace",
						"label": "uint256",
						"numberOfBytes": "32"
					}
				}
			},
			"userdoc": {
				"kind": "user",
				"methods": {},
				"notice": "PandaBond Data Aggregator Includes: Total Funds Raised in each currency: _fundsRaisedByToken Total Funds Raised in each currency by category: _fundsRaisedByTokenAndCategory Total Funds Raised in each currency by company: _fundsRaisedByCompanyAndToken Total Funds Raised in each currency by company and category: _fundsRaisedByCompanyAndTokenAndCategory Number of Issued Bonds by category: _numberOfIssuedBondsByCategory Number of Issued Bonds by company and category: _numberOfIssuedBondsByCompanyAndCategory Number of times defaulted by company: _numberOfTimesDefaultedByCompany Number of times defaulted by company and category: _numberOfTimesDefaultedByCompanyAndCategory",
				"version": 1
			}
		}
	}
}