{
	"contracts/CompanyDB.sol": {
		"CompanyDB": {
			"abi": [
				{
					"inputs": [
						{
							"internalType": "address",
							"name": "sbt",
							"type": "address"
						}
					],
					"stateMutability": "nonpayable",
					"type": "constructor"
				},
				{
					"inputs": [
						{
							"internalType": "address",
							"name": "account",
							"type": "address"
						}
					],
					"name": "activateSBT",
					"outputs": [],
					"stateMutability": "nonpayable",
					"type": "function"
				},
				{
					"inputs": [
						{
							"internalType": "address",
							"name": "account",
							"type": "address"
						}
					],
					"name": "companyMetadata",
					"outputs": [
						{
							"internalType": "string",
							"name": "",
							"type": "string"
						},
						{
							"internalType": "bytes32",
							"name": "",
							"type": "bytes32"
						},
						{
							"internalType": "uint8",
							"name": "",
							"type": "uint8"
						}
					],
					"stateMutability": "view",
					"type": "function"
				},
				{
					"inputs": [
						{
							"internalType": "address",
							"name": "account",
							"type": "address"
						}
					],
					"name": "deactivateSBT",
					"outputs": [],
					"stateMutability": "nonpayable",
					"type": "function"
				},
				{
					"inputs": [
						{
							"internalType": "address",
							"name": "account",
							"type": "address"
						}
					],
					"name": "isRegisteredCompany",
					"outputs": [
						{
							"internalType": "bool",
							"name": "",
							"type": "bool"
						}
					],
					"stateMutability": "view",
					"type": "function"
				},
				{
					"inputs": [
						{
							"internalType": "address",
							"name": "account",
							"type": "address"
						},
						{
							"internalType": "uint8",
							"name": "tier",
							"type": "uint8"
						}
					],
					"name": "modifyTier",
					"outputs": [],
					"stateMutability": "nonpayable",
					"type": "function"
				},
				{
					"inputs": [],
					"name": "owner",
					"outputs": [
						{
							"internalType": "address",
							"name": "",
							"type": "address"
						}
					],
					"stateMutability": "view",
					"type": "function"
				},
				{
					"inputs": [
						{
							"internalType": "address",
							"name": "account",
							"type": "address"
						},
						{
							"internalType": "string",
							"name": "name",
							"type": "string"
						},
						{
							"internalType": "bytes32",
							"name": "hashedIdentity",
							"type": "bytes32"
						},
						{
							"internalType": "uint8",
							"name": "tier",
							"type": "uint8"
						}
					],
					"name": "registerCompany",
					"outputs": [
						{
							"internalType": "uint256",
							"name": "sbtId",
							"type": "uint256"
						}
					],
					"stateMutability": "nonpayable",
					"type": "function"
				},
				{
					"inputs": [],
					"name": "registeredCompanies",
					"outputs": [
						{
							"internalType": "address[]",
							"name": "",
							"type": "address[]"
						}
					],
					"stateMutability": "view",
					"type": "function"
				},
				{
					"inputs": [
						{
							"internalType": "address",
							"name": "account",
							"type": "address"
						},
						{
							"internalType": "bytes32",
							"name": "hashedIdentity",
							"type": "bytes32"
						},
						{
							"internalType": "uint8",
							"name": "tier",
							"type": "uint8"
						}
					],
					"name": "reissueSBT",
					"outputs": [
						{
							"internalType": "uint256",
							"name": "sbtId",
							"type": "uint256"
						}
					],
					"stateMutability": "nonpayable",
					"type": "function"
				},
				{
					"inputs": [],
					"name": "soulBoundToken",
					"outputs": [
						{
							"internalType": "address",
							"name": "",
							"type": "address"
						}
					],
					"stateMutability": "view",
					"type": "function"
				}
			],
			"devdoc": {
				"kind": "dev",
				"methods": {},
				"version": 1
			},
			"evm": {
				"assembly": "    /* \"contracts/CompanyDB.sol\":102:3164  contract CompanyDB {... */\n  mstore(0x40, 0xc0)\n    /* \"contracts/CompanyDB.sol\":653:762  constructor(address sbt) {... */\n  callvalue\n  dup1\n  iszero\n  tag_1\n  jumpi\n  0x00\n  dup1\n  revert\ntag_1:\n  pop\n  mload(0x40)\n  sub(codesize, bytecodeSize)\n  dup1\n  bytecodeSize\n  dup4\n  codecopy\n  dup2\n  add\n  0x40\n  dup2\n  swap1\n  mstore\n  tag_2\n  swap2\n  tag_3\n  jump\t// in\ntag_2:\n    /* \"contracts/CompanyDB.sol\":697:707  msg.sender */\n  caller\n    /* \"contracts/CompanyDB.sol\":688:707  _owner = msg.sender */\n  0x80\n  mstore\n  sub(shl(0xa0, 0x01), 0x01)\n    /* \"contracts/CompanyDB.sol\":717:755  _soulBoundToken = ISoulBoundToken(sbt) */\n  and\n  0xa0\n  mstore\n    /* \"contracts/CompanyDB.sol\":102:3164  contract CompanyDB {... */\n  jump(tag_7)\n    /* \"#utility.yul\":14:304   */\ntag_3:\n    /* \"#utility.yul\":84:90   */\n  0x00\n    /* \"#utility.yul\":137:139   */\n  0x20\n    /* \"#utility.yul\":125:134   */\n  dup3\n    /* \"#utility.yul\":116:123   */\n  dup5\n    /* \"#utility.yul\":112:135   */\n  sub\n    /* \"#utility.yul\":108:140   */\n  slt\n    /* \"#utility.yul\":105:157   */\n  iszero\n  tag_9\n  jumpi\n    /* \"#utility.yul\":153:154   */\n  0x00\n    /* \"#utility.yul\":150:151   */\n  dup1\n    /* \"#utility.yul\":143:155   */\n  revert\n    /* \"#utility.yul\":105:157   */\ntag_9:\n    /* \"#utility.yul\":179:195   */\n  dup2\n  mload\n  sub(shl(0xa0, 0x01), 0x01)\n    /* \"#utility.yul\":224:255   */\n  dup2\n  and\n    /* \"#utility.yul\":214:256   */\n  dup2\n  eq\n    /* \"#utility.yul\":204:274   */\n  tag_10\n  jumpi\n    /* \"#utility.yul\":270:271   */\n  0x00\n    /* \"#utility.yul\":267:268   */\n  dup1\n    /* \"#utility.yul\":260:272   */\n  revert\n    /* \"#utility.yul\":204:274   */\ntag_10:\n    /* \"#utility.yul\":293:298   */\n  swap4\n    /* \"#utility.yul\":14:304   */\n  swap3\n  pop\n  pop\n  pop\n  jump\t// out\ntag_7:\n    /* \"contracts/CompanyDB.sol\":102:3164  contract CompanyDB {... */\n  mload(0x80)\n  mload(0xa0)\n  codecopy(0x00, dataOffset(sub_0), dataSize(sub_0))\n  0x00\n  assignImmutable(\"0x9cce9eb03c9f29c6481fca9f0f942b15bef0bbbc47fda0ddb44df157019835d9\")\n  0x00\n  assignImmutable(\"0x1572b593c53d839d80004aa4b8c51211864104f06ace9e22be9c4365b50655ea\")\n  return(0x00, dataSize(sub_0))\nstop\n\nsub_0: assembly {\n        /* \"contracts/CompanyDB.sol\":102:3164  contract CompanyDB {... */\n      mstore(0x40, 0x80)\n      callvalue\n      dup1\n      iszero\n      tag_1\n      jumpi\n      0x00\n      dup1\n      revert\n    tag_1:\n      pop\n      jumpi(tag_2, lt(calldatasize, 0x04))\n      shr(0xe0, calldataload(0x00))\n      dup1\n      0x90159c94\n      gt\n      tag_13\n      jumpi\n      dup1\n      0x90159c94\n      eq\n      tag_8\n      jumpi\n      dup1\n      0xa8158ea8\n      eq\n      tag_9\n      jumpi\n      dup1\n      0xb57bd629\n      eq\n      tag_10\n      jumpi\n      dup1\n      0xd200abf4\n      eq\n      tag_11\n      jumpi\n      dup1\n      0xf66122e6\n      eq\n      tag_12\n      jumpi\n      0x00\n      dup1\n      revert\n    tag_13:\n      dup1\n      0x4290ba90\n      eq\n      tag_3\n      jumpi\n      dup1\n      0x4a607444\n      eq\n      tag_4\n      jumpi\n      dup1\n      0x5d33967c\n      eq\n      tag_5\n      jumpi\n      dup1\n      0x7795bb9d\n      eq\n      tag_6\n      jumpi\n      dup1\n      0x8da5cb5b\n      eq\n      tag_7\n      jumpi\n    tag_2:\n      0x00\n      dup1\n      revert\n        /* \"contracts/CompanyDB.sol\":3058:3162  function soulBoundToken() public view returns (address) {... */\n    tag_3:\n        /* \"contracts/CompanyDB.sol\":3139:3154  _soulBoundToken */\n      immutable(\"0x9cce9eb03c9f29c6481fca9f0f942b15bef0bbbc47fda0ddb44df157019835d9\")\n        /* \"contracts/CompanyDB.sol\":3058:3162  function soulBoundToken() public view returns (address) {... */\n    tag_14:\n      mload(0x40)\n      sub(shl(0xa0, 0x01), 0x01)\n        /* \"#utility.yul\":178:210   */\n      swap1\n      swap2\n      and\n        /* \"#utility.yul\":160:211   */\n      dup2\n      mstore\n        /* \"#utility.yul\":148:150   */\n      0x20\n        /* \"#utility.yul\":133:151   */\n      add\n        /* \"contracts/CompanyDB.sol\":3058:3162  function soulBoundToken() public view returns (address) {... */\n    tag_16:\n      mload(0x40)\n      dup1\n      swap2\n      sub\n      swap1\n      return\n        /* \"contracts/CompanyDB.sol\":1277:1559  function reissueSBT(... */\n    tag_4:\n      tag_18\n      tag_19\n      calldatasize\n      0x04\n      tag_20\n      jump\t// in\n    tag_19:\n      tag_21\n      jump\t// in\n    tag_18:\n      mload(0x40)\n        /* \"#utility.yul\":1036:1061   */\n      swap1\n      dup2\n      mstore\n        /* \"#utility.yul\":1024:1026   */\n      0x20\n        /* \"#utility.yul\":1009:1027   */\n      add\n        /* \"contracts/CompanyDB.sol\":1277:1559  function reissueSBT(... */\n      tag_16\n        /* \"#utility.yul\":890:1067   */\n      jump\n        /* \"contracts/CompanyDB.sol\":1565:1771  function deactivateSBT(address account) public onlyOwner {... */\n    tag_5:\n      tag_24\n      tag_25\n      calldatasize\n      0x04\n      tag_26\n      jump\t// in\n    tag_25:\n      tag_27\n      jump\t// in\n    tag_24:\n      stop\n        /* \"contracts/CompanyDB.sol\":1777:2051  function activateSBT(address account) public onlyOwner {... */\n    tag_6:\n      tag_24\n      tag_29\n      calldatasize\n      0x04\n      tag_26\n      jump\t// in\n    tag_29:\n      tag_30\n      jump\t// in\n        /* \"contracts/CompanyDB.sol\":2975:3052  function owner() public view returns (address) {... */\n    tag_7:\n        /* \"contracts/CompanyDB.sol\":3039:3045  _owner */\n      immutable(\"0x1572b593c53d839d80004aa4b8c51211864104f06ace9e22be9c4365b50655ea\")\n        /* \"contracts/CompanyDB.sol\":2975:3052  function owner() public view returns (address) {... */\n      jump(tag_14)\n        /* \"contracts/CompanyDB.sol\":2433:2559  function isRegisteredCompany(address account) public view returns (bool) {... */\n    tag_8:\n      tag_34\n      tag_35\n      calldatasize\n      0x04\n      tag_26\n      jump\t// in\n    tag_35:\n      sub(shl(0xa0, 0x01), 0x01)\n        /* \"contracts/CompanyDB.sol\":2523:2552  _isRegisteredCompany[account] */\n      and\n        /* \"contracts/CompanyDB.sol\":2500:2504  bool */\n      0x00\n        /* \"contracts/CompanyDB.sol\":2523:2552  _isRegisteredCompany[account] */\n      swap1\n      dup2\n      mstore\n        /* \"contracts/CompanyDB.sol\":2523:2543  _isRegisteredCompany */\n      0x01\n        /* \"contracts/CompanyDB.sol\":2523:2552  _isRegisteredCompany[account] */\n      0x20\n      mstore\n      0x40\n      swap1\n      keccak256\n      sload\n      0xff\n      and\n      swap1\n        /* \"contracts/CompanyDB.sol\":2433:2559  function isRegisteredCompany(address account) public view returns (bool) {... */\n      jump\n    tag_34:\n      mload(0x40)\n        /* \"#utility.yul\":1428:1442   */\n      swap1\n      iszero\n        /* \"#utility.yul\":1421:1443   */\n      iszero\n        /* \"#utility.yul\":1403:1444   */\n      dup2\n      mstore\n        /* \"#utility.yul\":1391:1393   */\n      0x20\n        /* \"#utility.yul\":1376:1394   */\n      add\n        /* \"contracts/CompanyDB.sol\":2433:2559  function isRegisteredCompany(address account) public view returns (bool) {... */\n      tag_16\n        /* \"#utility.yul\":1263:1450   */\n      jump\n        /* \"contracts/CompanyDB.sol\":2685:2969  function companyMetadata(... */\n    tag_9:\n      tag_39\n      tag_40\n      calldatasize\n      0x04\n      tag_26\n      jump\t// in\n    tag_40:\n      tag_41\n      jump\t// in\n    tag_39:\n      mload(0x40)\n      tag_16\n      swap4\n      swap3\n      swap2\n      swap1\n      tag_43\n      jump\t// in\n        /* \"contracts/CompanyDB.sol\":768:1271  function registerCompany(... */\n    tag_10:\n      tag_18\n      tag_45\n      calldatasize\n      0x04\n      tag_46\n      jump\t// in\n    tag_45:\n      tag_47\n      jump\t// in\n        /* \"contracts/CompanyDB.sol\":2057:2427  function modifyTier(address account, uint8 tier) external onlyOwner {... */\n    tag_11:\n      tag_24\n      tag_50\n      calldatasize\n      0x04\n      tag_51\n      jump\t// in\n    tag_50:\n      tag_52\n      jump\t// in\n        /* \"contracts/CompanyDB.sol\":2565:2679  function registeredCompanies() public view returns (address[] memory) {... */\n    tag_12:\n      tag_53\n      tag_54\n      jump\t// in\n    tag_53:\n      mload(0x40)\n      tag_16\n      swap2\n      swap1\n      tag_56\n      jump\t// in\n        /* \"contracts/CompanyDB.sol\":1277:1559  function reissueSBT(... */\n    tag_21:\n        /* \"contracts/CompanyDB.sol\":1408:1421  uint256 sbtId */\n      0x00\n        /* \"contracts/CompanyDB.sol\":499:505  _owner */\n      immutable(\"0x1572b593c53d839d80004aa4b8c51211864104f06ace9e22be9c4365b50655ea\")\n      sub(shl(0xa0, 0x01), 0x01)\n        /* \"contracts/CompanyDB.sol\":499:519  _owner == msg.sender */\n      and\n        /* \"contracts/CompanyDB.sol\":509:519  msg.sender */\n      caller\n        /* \"contracts/CompanyDB.sol\":499:519  _owner == msg.sender */\n      eq\n        /* \"contracts/CompanyDB.sol\":491:527  require(_owner == msg.sender, \"NTO\") */\n      tag_59\n      jumpi\n      mload(0x40)\n      shl(0xe5, 0x461bcd)\n      dup2\n      mstore\n      0x04\n      add\n      tag_60\n      swap1\n      tag_61\n      jump\t// in\n    tag_60:\n      mload(0x40)\n      dup1\n      swap2\n      sub\n      swap1\n      revert\n    tag_59:\n      sub(shl(0xa0, 0x01), 0x01)\n        /* \"contracts/CompanyDB.sol\":1441:1470  _isRegisteredCompany[account] */\n      dup5\n      and\n      0x00\n      swap1\n      dup2\n      mstore\n        /* \"contracts/CompanyDB.sol\":1441:1461  _isRegisteredCompany */\n      0x01\n        /* \"contracts/CompanyDB.sol\":1441:1470  _isRegisteredCompany[account] */\n      0x20\n      mstore\n      0x40\n      swap1\n      keccak256\n      sload\n      0xff\n      and\n        /* \"contracts/CompanyDB.sol\":1433:1479  require(_isRegisteredCompany[account], \"CINR\") */\n      tag_63\n      jumpi\n      mload(0x40)\n      shl(0xe5, 0x461bcd)\n      dup2\n      mstore\n      0x04\n      add\n      tag_60\n      swap1\n        /* \"#utility.yul\":4874:4876   */\n      0x20\n        /* \"#utility.yul\":4856:4877   */\n      dup1\n      dup3\n      mstore\n        /* \"#utility.yul\":4913:4914   */\n      0x04\n        /* \"#utility.yul\":4893:4911   */\n      swap1\n      dup3\n      add\n        /* \"#utility.yul\":4886:4915   */\n      mstore\n      shl(0xe1, 0x21a4a729)\n        /* \"#utility.yul\":4946:4948   */\n      0x40\n        /* \"#utility.yul\":4931:4949   */\n      dup3\n      add\n        /* \"#utility.yul\":4924:4958   */\n      mstore\n        /* \"#utility.yul\":4990:4992   */\n      0x60\n        /* \"#utility.yul\":4975:4993   */\n      add\n      swap1\n        /* \"#utility.yul\":4672:4999   */\n      jump\n        /* \"contracts/CompanyDB.sol\":1433:1479  require(_isRegisteredCompany[account], \"CINR\") */\n    tag_63:\n        /* \"contracts/CompanyDB.sol\":1497:1552  _soulBoundToken.safeMint(account, tier, hashedIdentity) */\n      mload(0x40)\n      shl(0xe1, 0x60914869)\n      dup2\n      mstore\n      sub(shl(0xa0, 0x01), 0x01)\n        /* \"#utility.yul\":5220:5252   */\n      dup6\n      dup2\n      and\n        /* \"contracts/CompanyDB.sol\":1497:1552  _soulBoundToken.safeMint(account, tier, hashedIdentity) */\n      0x04\n      dup4\n      add\n        /* \"#utility.yul\":5202:5253   */\n      mstore\n        /* \"#utility.yul\":5301:5305   */\n      0xff\n        /* \"#utility.yul\":5289:5306   */\n      dup5\n      and\n        /* \"#utility.yul\":5269:5287   */\n      0x24\n      dup4\n      add\n        /* \"#utility.yul\":5262:5307   */\n      mstore\n        /* \"#utility.yul\":5323:5341   */\n      0x44\n      dup3\n      add\n        /* \"#utility.yul\":5316:5350   */\n      dup6\n      swap1\n      mstore\n        /* \"contracts/CompanyDB.sol\":1497:1512  _soulBoundToken */\n      immutable(\"0x9cce9eb03c9f29c6481fca9f0f942b15bef0bbbc47fda0ddb44df157019835d9\")\n        /* \"contracts/CompanyDB.sol\":1497:1521  _soulBoundToken.safeMint */\n      and\n      swap1\n      0xc12290d2\n      swap1\n        /* \"#utility.yul\":5175:5193   */\n      0x64\n      add\n        /* \"contracts/CompanyDB.sol\":1497:1552  _soulBoundToken.safeMint(account, tier, hashedIdentity) */\n      0x20\n      mload(0x40)\n      dup1\n      dup4\n      sub\n      dup2\n      0x00\n      dup8\n      gas\n      call\n      iszero\n      dup1\n      iszero\n      tag_69\n      jumpi\n      returndatasize\n      0x00\n      dup1\n      returndatacopy\n      revert(0x00, returndatasize)\n    tag_69:\n      pop\n      pop\n      pop\n      pop\n      mload(0x40)\n      returndatasize\n      not(0x1f)\n      0x1f\n      dup3\n      add\n      and\n      dup3\n      add\n      dup1\n      0x40\n      mstore\n      pop\n      dup2\n      add\n      swap1\n      tag_70\n      swap2\n      swap1\n      tag_71\n      jump\t// in\n    tag_70:\n        /* \"contracts/CompanyDB.sol\":1489:1552  sbtId = _soulBoundToken.safeMint(account, tier, hashedIdentity) */\n      swap5\n        /* \"contracts/CompanyDB.sol\":1277:1559  function reissueSBT(... */\n      swap4\n      pop\n      pop\n      pop\n      pop\n      jump\t// out\n        /* \"contracts/CompanyDB.sol\":1565:1771  function deactivateSBT(address account) public onlyOwner {... */\n    tag_27:\n        /* \"contracts/CompanyDB.sol\":499:505  _owner */\n      immutable(\"0x1572b593c53d839d80004aa4b8c51211864104f06ace9e22be9c4365b50655ea\")\n      sub(shl(0xa0, 0x01), 0x01)\n        /* \"contracts/CompanyDB.sol\":499:519  _owner == msg.sender */\n      and\n        /* \"contracts/CompanyDB.sol\":509:519  msg.sender */\n      caller\n        /* \"contracts/CompanyDB.sol\":499:519  _owner == msg.sender */\n      eq\n        /* \"contracts/CompanyDB.sol\":491:527  require(_owner == msg.sender, \"NTO\") */\n      tag_73\n      jumpi\n      mload(0x40)\n      shl(0xe5, 0x461bcd)\n      dup2\n      mstore\n      0x04\n      add\n      tag_60\n      swap1\n      tag_61\n      jump\t// in\n    tag_73:\n        /* \"contracts/CompanyDB.sol\":1640:1677  _soulBoundToken.hasActiveSBT(account) */\n      mload(0x40)\n      shl(0xe0, 0x39f920ab)\n      dup2\n      mstore\n      sub(shl(0xa0, 0x01), 0x01)\n        /* \"#utility.yul\":178:210   */\n      dup3\n      dup2\n      and\n        /* \"contracts/CompanyDB.sol\":1640:1677  _soulBoundToken.hasActiveSBT(account) */\n      0x04\n      dup4\n      add\n        /* \"#utility.yul\":160:211   */\n      mstore\n        /* \"contracts/CompanyDB.sol\":1640:1655  _soulBoundToken */\n      immutable(\"0x9cce9eb03c9f29c6481fca9f0f942b15bef0bbbc47fda0ddb44df157019835d9\")\n        /* \"contracts/CompanyDB.sol\":1640:1668  _soulBoundToken.hasActiveSBT */\n      and\n      swap1\n      0x39f920ab\n      swap1\n        /* \"#utility.yul\":133:151   */\n      0x24\n      add\n        /* \"contracts/CompanyDB.sol\":1640:1677  _soulBoundToken.hasActiveSBT(account) */\n      0x20\n      mload(0x40)\n      dup1\n      dup4\n      sub\n      dup2\n      dup7\n      gas\n      staticcall\n      iszero\n      dup1\n      iszero\n      tag_78\n      jumpi\n      returndatasize\n      0x00\n      dup1\n      returndatacopy\n      revert(0x00, returndatasize)\n    tag_78:\n      pop\n      pop\n      pop\n      pop\n      mload(0x40)\n      returndatasize\n      not(0x1f)\n      0x1f\n      dup3\n      add\n      and\n      dup3\n      add\n      dup1\n      0x40\n      mstore\n      pop\n      dup2\n      add\n      swap1\n      tag_79\n      swap2\n      swap1\n      tag_80\n      jump\t// in\n    tag_79:\n        /* \"contracts/CompanyDB.sol\":1632:1687  require(_soulBoundToken.hasActiveSBT(account), \"NASBT\") */\n      tag_81\n      jumpi\n      mload(0x40)\n      shl(0xe5, 0x461bcd)\n      dup2\n      mstore\n        /* \"#utility.yul\":6034:6036   */\n      0x20\n        /* \"contracts/CompanyDB.sol\":1632:1687  require(_soulBoundToken.hasActiveSBT(account), \"NASBT\") */\n      0x04\n      dup3\n      add\n        /* \"#utility.yul\":6016:6037   */\n      mstore\n        /* \"#utility.yul\":6073:6074   */\n      0x05\n        /* \"#utility.yul\":6053:6071   */\n      0x24\n      dup3\n      add\n        /* \"#utility.yul\":6046:6075   */\n      mstore\n      shl(0xda, 0x139054d095)\n        /* \"#utility.yul\":6091:6109   */\n      0x44\n      dup3\n      add\n        /* \"#utility.yul\":6084:6119   */\n      mstore\n        /* \"#utility.yul\":6136:6154   */\n      0x64\n      add\n        /* \"contracts/CompanyDB.sol\":1632:1687  require(_soulBoundToken.hasActiveSBT(account), \"NASBT\") */\n      tag_60\n        /* \"#utility.yul\":5832:6160   */\n      jump\n        /* \"contracts/CompanyDB.sol\":1632:1687  require(_soulBoundToken.hasActiveSBT(account), \"NASBT\") */\n    tag_81:\n        /* \"contracts/CompanyDB.sol\":1724:1763  _soulBoundToken.ownerToTokenId(account) */\n      mload(0x40)\n      shl(0xe0, 0x4814f035)\n      dup2\n      mstore\n      sub(shl(0xa0, 0x01), 0x01)\n        /* \"#utility.yul\":178:210   */\n      dup3\n      dup2\n      and\n        /* \"contracts/CompanyDB.sol\":1724:1763  _soulBoundToken.ownerToTokenId(account) */\n      0x04\n      dup4\n      add\n        /* \"#utility.yul\":160:211   */\n      mstore\n        /* \"contracts/CompanyDB.sol\":1697:1712  _soulBoundToken */\n      immutable(\"0x9cce9eb03c9f29c6481fca9f0f942b15bef0bbbc47fda0ddb44df157019835d9\")\n        /* \"contracts/CompanyDB.sol\":1697:1723  _soulBoundToken.deactivate */\n      and\n      swap1\n      0x916b9bef\n      swap1\n      dup3\n      swap1\n        /* \"contracts/CompanyDB.sol\":1724:1754  _soulBoundToken.ownerToTokenId */\n      0x4814f035\n      swap1\n        /* \"#utility.yul\":133:151   */\n      0x24\n      add\n        /* \"contracts/CompanyDB.sol\":1724:1763  _soulBoundToken.ownerToTokenId(account) */\n    tag_84:\n      0x20\n      mload(0x40)\n      dup1\n      dup4\n      sub\n      dup2\n      dup7\n      gas\n      staticcall\n      iszero\n      dup1\n      iszero\n      tag_86\n      jumpi\n      returndatasize\n      0x00\n      dup1\n      returndatacopy\n      revert(0x00, returndatasize)\n    tag_86:\n      pop\n      pop\n      pop\n      pop\n      mload(0x40)\n      returndatasize\n      not(0x1f)\n      0x1f\n      dup3\n      add\n      and\n      dup3\n      add\n      dup1\n      0x40\n      mstore\n      pop\n      dup2\n      add\n      swap1\n      tag_87\n      swap2\n      swap1\n      tag_71\n      jump\t// in\n    tag_87:\n        /* \"contracts/CompanyDB.sol\":1697:1764  _soulBoundToken.deactivate(_soulBoundToken.ownerToTokenId(account)) */\n      mload(0x40)\n      dup3\n      0xffffffff\n      and\n      0xe0\n      shl\n      dup2\n      mstore\n      0x04\n      add\n      tag_88\n      swap2\n        /* \"#utility.yul\":1036:1061   */\n      dup2\n      mstore\n        /* \"#utility.yul\":1024:1026   */\n      0x20\n        /* \"#utility.yul\":1009:1027   */\n      add\n      swap1\n        /* \"#utility.yul\":890:1067   */\n      jump\n        /* \"contracts/CompanyDB.sol\":1697:1764  _soulBoundToken.deactivate(_soulBoundToken.ownerToTokenId(account)) */\n    tag_88:\n      0x00\n      mload(0x40)\n      dup1\n      dup4\n      sub\n      dup2\n      0x00\n      dup8\n      dup1\n      extcodesize\n      iszero\n      dup1\n      iszero\n      tag_89\n      jumpi\n      0x00\n      dup1\n      revert\n    tag_89:\n      pop\n      gas\n      call\n      iszero\n      dup1\n      iszero\n      tag_91\n      jumpi\n      returndatasize\n      0x00\n      dup1\n      returndatacopy\n      revert(0x00, returndatasize)\n    tag_91:\n      pop\n      pop\n      pop\n      pop\n        /* \"contracts/CompanyDB.sol\":1565:1771  function deactivateSBT(address account) public onlyOwner {... */\n      pop\n      jump\t// out\n        /* \"contracts/CompanyDB.sol\":1777:2051  function activateSBT(address account) public onlyOwner {... */\n    tag_30:\n        /* \"contracts/CompanyDB.sol\":499:505  _owner */\n      immutable(\"0x1572b593c53d839d80004aa4b8c51211864104f06ace9e22be9c4365b50655ea\")\n      sub(shl(0xa0, 0x01), 0x01)\n        /* \"contracts/CompanyDB.sol\":499:519  _owner == msg.sender */\n      and\n        /* \"contracts/CompanyDB.sol\":509:519  msg.sender */\n      caller\n        /* \"contracts/CompanyDB.sol\":499:519  _owner == msg.sender */\n      eq\n        /* \"contracts/CompanyDB.sol\":491:527  require(_owner == msg.sender, \"NTO\") */\n      tag_93\n      jumpi\n      mload(0x40)\n      shl(0xe5, 0x461bcd)\n      dup2\n      mstore\n      0x04\n      add\n      tag_60\n      swap1\n      tag_61\n      jump\t// in\n    tag_93:\n        /* \"contracts/CompanyDB.sol\":1851:1888  _soulBoundToken.hasActiveSBT(account) */\n      mload(0x40)\n      shl(0xe0, 0x39f920ab)\n      dup2\n      mstore\n      sub(shl(0xa0, 0x01), 0x01)\n        /* \"#utility.yul\":178:210   */\n      dup3\n      dup2\n      and\n        /* \"contracts/CompanyDB.sol\":1851:1888  _soulBoundToken.hasActiveSBT(account) */\n      0x04\n      dup4\n      add\n        /* \"#utility.yul\":160:211   */\n      mstore\n        /* \"contracts/CompanyDB.sol\":1851:1866  _soulBoundToken */\n      immutable(\"0x9cce9eb03c9f29c6481fca9f0f942b15bef0bbbc47fda0ddb44df157019835d9\")\n        /* \"contracts/CompanyDB.sol\":1851:1879  _soulBoundToken.hasActiveSBT */\n      and\n      swap1\n      0x39f920ab\n      swap1\n        /* \"#utility.yul\":133:151   */\n      0x24\n      add\n        /* \"contracts/CompanyDB.sol\":1851:1888  _soulBoundToken.hasActiveSBT(account) */\n      0x20\n      mload(0x40)\n      dup1\n      dup4\n      sub\n      dup2\n      dup7\n      gas\n      staticcall\n      iszero\n      dup1\n      iszero\n      tag_98\n      jumpi\n      returndatasize\n      0x00\n      dup1\n      returndatacopy\n      revert(0x00, returndatasize)\n    tag_98:\n      pop\n      pop\n      pop\n      pop\n      mload(0x40)\n      returndatasize\n      not(0x1f)\n      0x1f\n      dup3\n      add\n      and\n      dup3\n      add\n      dup1\n      0x40\n      mstore\n      pop\n      dup2\n      add\n      swap1\n      tag_99\n      swap2\n      swap1\n      tag_80\n      jump\t// in\n    tag_99:\n        /* \"contracts/CompanyDB.sol\":1850:1888  !_soulBoundToken.hasActiveSBT(account) */\n      iszero\n        /* \"contracts/CompanyDB.sol\":1842:1898  require(!_soulBoundToken.hasActiveSBT(account), \"IASBT\") */\n      tag_100\n      jumpi\n      mload(0x40)\n      shl(0xe5, 0x461bcd)\n      dup2\n      mstore\n        /* \"#utility.yul\":6367:6369   */\n      0x20\n        /* \"contracts/CompanyDB.sol\":1842:1898  require(!_soulBoundToken.hasActiveSBT(account), \"IASBT\") */\n      0x04\n      dup3\n      add\n        /* \"#utility.yul\":6349:6370   */\n      mstore\n        /* \"#utility.yul\":6406:6407   */\n      0x05\n        /* \"#utility.yul\":6386:6404   */\n      0x24\n      dup3\n      add\n        /* \"#utility.yul\":6379:6408   */\n      mstore\n      shl(0xda, 0x125054d095)\n        /* \"#utility.yul\":6424:6442   */\n      0x44\n      dup3\n      add\n        /* \"#utility.yul\":6417:6452   */\n      mstore\n        /* \"#utility.yul\":6469:6487   */\n      0x64\n      add\n        /* \"contracts/CompanyDB.sol\":1842:1898  require(!_soulBoundToken.hasActiveSBT(account), \"IASBT\") */\n      tag_60\n        /* \"#utility.yul\":6165:6493   */\n      jump\n        /* \"contracts/CompanyDB.sol\":1842:1898  require(!_soulBoundToken.hasActiveSBT(account), \"IASBT\") */\n    tag_100:\n        /* \"contracts/CompanyDB.sol\":1916:1955  _soulBoundToken.ownerToTokenId(account) */\n      mload(0x40)\n      shl(0xe0, 0x4814f035)\n      dup2\n      mstore\n      sub(shl(0xa0, 0x01), 0x01)\n        /* \"#utility.yul\":178:210   */\n      dup3\n      dup2\n      and\n        /* \"contracts/CompanyDB.sol\":1916:1955  _soulBoundToken.ownerToTokenId(account) */\n      0x04\n      dup4\n      add\n        /* \"#utility.yul\":160:211   */\n      mstore\n        /* \"contracts/CompanyDB.sol\":1916:1931  _soulBoundToken */\n      immutable(\"0x9cce9eb03c9f29c6481fca9f0f942b15bef0bbbc47fda0ddb44df157019835d9\")\n        /* \"contracts/CompanyDB.sol\":1916:1946  _soulBoundToken.ownerToTokenId */\n      and\n      swap1\n      0x4814f035\n      swap1\n        /* \"#utility.yul\":133:151   */\n      0x24\n      add\n        /* \"contracts/CompanyDB.sol\":1916:1955  _soulBoundToken.ownerToTokenId(account) */\n      0x20\n      mload(0x40)\n      dup1\n      dup4\n      sub\n      dup2\n      dup7\n      gas\n      staticcall\n      iszero\n      dup1\n      iszero\n      tag_105\n      jumpi\n      returndatasize\n      0x00\n      dup1\n      returndatacopy\n      revert(0x00, returndatasize)\n    tag_105:\n      pop\n      pop\n      pop\n      pop\n      mload(0x40)\n      returndatasize\n      not(0x1f)\n      0x1f\n      dup3\n      add\n      and\n      dup3\n      add\n      dup1\n      0x40\n      mstore\n      pop\n      dup2\n      add\n      swap1\n      tag_106\n      swap2\n      swap1\n      tag_71\n      jump\t// in\n    tag_106:\n        /* \"contracts/CompanyDB.sol\":1959:1960  0 */\n      0x00\n        /* \"contracts/CompanyDB.sol\":1916:1960  _soulBoundToken.ownerToTokenId(account) != 0 */\n      sub\n        /* \"contracts/CompanyDB.sol\":1908:1969  require(_soulBoundToken.ownerToTokenId(account) != 0, \"NSBT\") */\n      tag_107\n      jumpi\n      mload(0x40)\n      shl(0xe5, 0x461bcd)\n      dup2\n      mstore\n      0x04\n      add\n      tag_60\n      swap1\n        /* \"#utility.yul\":6700:6702   */\n      0x20\n        /* \"#utility.yul\":6682:6703   */\n      dup1\n      dup3\n      mstore\n        /* \"#utility.yul\":6739:6740   */\n      0x04\n        /* \"#utility.yul\":6719:6737   */\n      swap1\n      dup3\n      add\n        /* \"#utility.yul\":6712:6741   */\n      mstore\n      shl(0xe2, 0x1394d095)\n        /* \"#utility.yul\":6772:6774   */\n      0x40\n        /* \"#utility.yul\":6757:6775   */\n      dup3\n      add\n        /* \"#utility.yul\":6750:6784   */\n      mstore\n        /* \"#utility.yul\":6816:6818   */\n      0x60\n        /* \"#utility.yul\":6801:6819   */\n      add\n      swap1\n        /* \"#utility.yul\":6498:6825   */\n      jump\n        /* \"contracts/CompanyDB.sol\":1908:1969  require(_soulBoundToken.ownerToTokenId(account) != 0, \"NSBT\") */\n    tag_107:\n        /* \"contracts/CompanyDB.sol\":2004:2043  _soulBoundToken.ownerToTokenId(account) */\n      mload(0x40)\n      shl(0xe0, 0x4814f035)\n      dup2\n      mstore\n      sub(shl(0xa0, 0x01), 0x01)\n        /* \"#utility.yul\":178:210   */\n      dup3\n      dup2\n      and\n        /* \"contracts/CompanyDB.sol\":2004:2043  _soulBoundToken.ownerToTokenId(account) */\n      0x04\n      dup4\n      add\n        /* \"#utility.yul\":160:211   */\n      mstore\n        /* \"contracts/CompanyDB.sol\":1979:1994  _soulBoundToken */\n      immutable(\"0x9cce9eb03c9f29c6481fca9f0f942b15bef0bbbc47fda0ddb44df157019835d9\")\n        /* \"contracts/CompanyDB.sol\":1979:2003  _soulBoundToken.activate */\n      and\n      swap1\n      0xb260c42a\n      swap1\n      dup3\n      swap1\n        /* \"contracts/CompanyDB.sol\":2004:2034  _soulBoundToken.ownerToTokenId */\n      0x4814f035\n      swap1\n        /* \"#utility.yul\":133:151   */\n      0x24\n      add\n        /* \"contracts/CompanyDB.sol\":2004:2043  _soulBoundToken.ownerToTokenId(account) */\n      tag_84\n        /* \"#utility.yul\":14:217   */\n      jump\n        /* \"contracts/CompanyDB.sol\":2685:2969  function companyMetadata(... */\n    tag_41:\n      sub(shl(0xa0, 0x01), 0x01)\n        /* \"contracts/CompanyDB.sol\":2824:2849  _companyMetadata[account] */\n      dup2\n      and\n        /* \"contracts/CompanyDB.sol\":2777:2784  bytes32 */\n      0x00\n        /* \"contracts/CompanyDB.sol\":2824:2849  _companyMetadata[account] */\n      swap1\n      dup2\n      mstore\n        /* \"contracts/CompanyDB.sol\":2824:2840  _companyMetadata */\n      0x02\n        /* \"contracts/CompanyDB.sol\":2824:2849  _companyMetadata[account] */\n      0x20\n      dup2\n      swap1\n      mstore\n      0x40\n      dup3\n      keccak256\n        /* \"contracts/CompanyDB.sol\":2868:2908  _companyMetadata[account].hashedIdentity */\n      0x01\n      dup2\n      add\n      sload\n        /* \"contracts/CompanyDB.sol\":2922:2952  _companyMetadata[account].tier */\n      swap2\n      dup2\n      add\n      sload\n        /* \"contracts/CompanyDB.sol\":2803:2962  return (... */\n      dup2\n      sload\n        /* \"contracts/CompanyDB.sol\":2762:2775  string memory */\n      0x60\n      swap5\n        /* \"contracts/CompanyDB.sol\":2777:2784  bytes32 */\n      swap4\n      dup5\n      swap4\n        /* \"contracts/CompanyDB.sol\":2824:2849  _companyMetadata[account] */\n      swap3\n        /* \"contracts/CompanyDB.sol\":2868:2908  _companyMetadata[account].hashedIdentity */\n      swap1\n      swap2\n        /* \"contracts/CompanyDB.sol\":2922:2952  _companyMetadata[account].tier */\n      0xff\n      swap1\n      swap2\n      and\n      swap1\n        /* \"contracts/CompanyDB.sol\":2824:2849  _companyMetadata[account] */\n      dup4\n      swap1\n        /* \"contracts/CompanyDB.sol\":2803:2962  return (... */\n      tag_121\n      swap1\n      tag_122\n      jump\t// in\n    tag_121:\n      dup1\n      0x1f\n      add\n      0x20\n      dup1\n      swap2\n      div\n      mul\n      0x20\n      add\n      mload(0x40)\n      swap1\n      dup2\n      add\n      0x40\n      mstore\n      dup1\n      swap3\n      swap2\n      swap1\n      dup2\n      dup2\n      mstore\n      0x20\n      add\n      dup3\n      dup1\n      sload\n      tag_123\n      swap1\n      tag_122\n      jump\t// in\n    tag_123:\n      dup1\n      iszero\n      tag_124\n      jumpi\n      dup1\n      0x1f\n      lt\n      tag_125\n      jumpi\n      0x0100\n      dup1\n      dup4\n      sload\n      div\n      mul\n      dup4\n      mstore\n      swap2\n      0x20\n      add\n      swap2\n      jump(tag_124)\n    tag_125:\n      dup3\n      add\n      swap2\n      swap1\n      0x00\n      mstore\n      keccak256(0x00, 0x20)\n      swap1\n    tag_126:\n      dup2\n      sload\n      dup2\n      mstore\n      swap1\n      0x01\n      add\n      swap1\n      0x20\n      add\n      dup1\n      dup4\n      gt\n      tag_126\n      jumpi\n      dup3\n      swap1\n      sub\n      0x1f\n      and\n      dup3\n      add\n      swap2\n    tag_124:\n      pop\n      pop\n      pop\n      pop\n      pop\n      swap3\n      pop\n      swap3\n      pop\n      swap3\n      pop\n      swap3\n      pop\n        /* \"contracts/CompanyDB.sol\":2685:2969  function companyMetadata(... */\n      swap2\n      swap4\n      swap1\n      swap3\n      pop\n      jump\t// out\n        /* \"contracts/CompanyDB.sol\":768:1271  function registerCompany(... */\n    tag_47:\n        /* \"contracts/CompanyDB.sol\":948:961  uint256 sbtId */\n      0x00\n        /* \"contracts/CompanyDB.sol\":499:505  _owner */\n      immutable(\"0x1572b593c53d839d80004aa4b8c51211864104f06ace9e22be9c4365b50655ea\")\n      sub(shl(0xa0, 0x01), 0x01)\n        /* \"contracts/CompanyDB.sol\":499:519  _owner == msg.sender */\n      and\n        /* \"contracts/CompanyDB.sol\":509:519  msg.sender */\n      caller\n        /* \"contracts/CompanyDB.sol\":499:519  _owner == msg.sender */\n      eq\n        /* \"contracts/CompanyDB.sol\":491:527  require(_owner == msg.sender, \"NTO\") */\n      tag_128\n      jumpi\n      mload(0x40)\n      shl(0xe5, 0x461bcd)\n      dup2\n      mstore\n      0x04\n      add\n      tag_60\n      swap1\n      tag_61\n      jump\t// in\n    tag_128:\n        /* \"contracts/CompanyDB.sol\":933:937  tier */\n      dup2\n        /* \"contracts/CompanyDB.sol\":608:609  1 */\n      0x01\n        /* \"contracts/CompanyDB.sol\":600:604  tier */\n      dup2\n        /* \"contracts/CompanyDB.sol\":600:609  tier >= 1 */\n      0xff\n      and\n      lt\n      iszero\n        /* \"contracts/CompanyDB.sol\":600:622  tier >= 1 && tier <= 3 */\n      dup1\n      iszero\n      tag_131\n      jumpi\n      pop\n        /* \"contracts/CompanyDB.sol\":621:622  3 */\n      0x03\n        /* \"contracts/CompanyDB.sol\":613:617  tier */\n      dup2\n        /* \"contracts/CompanyDB.sol\":613:622  tier <= 3 */\n      0xff\n      and\n      gt\n      iszero\n        /* \"contracts/CompanyDB.sol\":600:622  tier >= 1 && tier <= 3 */\n    tag_131:\n        /* \"contracts/CompanyDB.sol\":592:629  require(tier >= 1 && tier <= 3, \"IT\") */\n      tag_132\n      jumpi\n      mload(0x40)\n      shl(0xe5, 0x461bcd)\n      dup2\n      mstore\n        /* \"#utility.yul\":7417:7419   */\n      0x20\n        /* \"contracts/CompanyDB.sol\":592:629  require(tier >= 1 && tier <= 3, \"IT\") */\n      0x04\n      dup3\n      add\n        /* \"#utility.yul\":7399:7420   */\n      mstore\n        /* \"#utility.yul\":7456:7457   */\n      0x02\n        /* \"#utility.yul\":7436:7454   */\n      0x24\n      dup3\n      add\n        /* \"#utility.yul\":7429:7458   */\n      mstore\n      shl(0xf2, 0x1255)\n        /* \"#utility.yul\":7474:7492   */\n      0x44\n      dup3\n      add\n        /* \"#utility.yul\":7467:7499   */\n      mstore\n        /* \"#utility.yul\":7516:7534   */\n      0x64\n      add\n        /* \"contracts/CompanyDB.sol\":592:629  require(tier >= 1 && tier <= 3, \"IT\") */\n      tag_60\n        /* \"#utility.yul\":7215:7540   */\n      jump\n        /* \"contracts/CompanyDB.sol\":592:629  require(tier >= 1 && tier <= 3, \"IT\") */\n    tag_132:\n      sub(shl(0xa0, 0x01), 0x01)\n        /* \"contracts/CompanyDB.sol\":982:1011  _isRegisteredCompany[account] */\n      dup7\n      and\n      0x00\n      swap1\n      dup2\n      mstore\n        /* \"contracts/CompanyDB.sol\":982:1002  _isRegisteredCompany */\n      0x01\n        /* \"contracts/CompanyDB.sol\":982:1011  _isRegisteredCompany[account] */\n      0x20\n      mstore\n      0x40\n      swap1\n      keccak256\n      sload\n      0xff\n      and\n        /* \"contracts/CompanyDB.sol\":981:1011  !_isRegisteredCompany[account] */\n      iszero\n        /* \"contracts/CompanyDB.sol\":973:1020  require(!_isRegisteredCompany[account], \"CIAR\") */\n      tag_136\n      jumpi\n      mload(0x40)\n      shl(0xe5, 0x461bcd)\n      dup2\n      mstore\n      0x04\n      add\n      tag_60\n      swap1\n        /* \"#utility.yul\":7747:7749   */\n      0x20\n        /* \"#utility.yul\":7729:7750   */\n      dup1\n      dup3\n      mstore\n        /* \"#utility.yul\":7786:7787   */\n      0x04\n        /* \"#utility.yul\":7766:7784   */\n      swap1\n      dup3\n      add\n        /* \"#utility.yul\":7759:7788   */\n      mstore\n      shl(0xe1, 0x21a4a0a9)\n        /* \"#utility.yul\":7819:7821   */\n      0x40\n        /* \"#utility.yul\":7804:7822   */\n      dup3\n      add\n        /* \"#utility.yul\":7797:7831   */\n      mstore\n        /* \"#utility.yul\":7863:7865   */\n      0x60\n        /* \"#utility.yul\":7848:7866   */\n      add\n      swap1\n        /* \"#utility.yul\":7545:7872   */\n      jump\n        /* \"contracts/CompanyDB.sol\":973:1020  require(!_isRegisteredCompany[account], \"CIAR\") */\n    tag_136:\n        /* \"contracts/CompanyDB.sol\":1030:1050  _registeredCompanies */\n      0x00\n        /* \"contracts/CompanyDB.sol\":1030:1064  _registeredCompanies.push(account) */\n      dup1\n      sload\n      0x01\n      dup1\n      dup3\n      add\n      dup4\n      sstore\n      0x290decd9548b62a8d60345a988386fc84ba6bc95484008f6362f93160ef3e563\n      swap1\n      swap2\n      add\n      dup1\n      sload\n      not(sub(shl(0xa0, 0x01), 0x01))\n      and\n      sub(shl(0xa0, 0x01), 0x01)\n      dup11\n      and\n      swap1\n      dup2\n      or\n      swap1\n      swap2\n      sstore\n        /* \"contracts/CompanyDB.sol\":1074:1103  _isRegisteredCompany[account] */\n      dup1\n      dup4\n      mstore\n        /* \"contracts/CompanyDB.sol\":1030:1064  _registeredCompanies.push(account) */\n      0x20\n        /* \"contracts/CompanyDB.sol\":1074:1103  _isRegisteredCompany[account] */\n      dup3\n      dup2\n      mstore\n      0x40\n      dup1\n      dup6\n      keccak256\n        /* \"contracts/CompanyDB.sol\":1074:1110  _isRegisteredCompany[account] = true */\n      dup1\n      sload\n      not(0xff)\n      and\n      swap1\n      swap5\n      or\n      swap1\n      swap4\n      sstore\n        /* \"contracts/CompanyDB.sol\":1148:1191  CompanyMetadata(name, hashedIdentity, tier) */\n      dup3\n      mload\n      0x60\n      dup2\n      add\n      dup5\n      mstore\n      dup10\n      dup2\n      mstore\n      dup1\n      dup3\n      add\n      dup10\n      swap1\n      mstore\n        /* \"contracts/CompanyDB.sol\":1074:1110  _isRegisteredCompany[account] = true */\n      0xff\n        /* \"contracts/CompanyDB.sol\":1148:1191  CompanyMetadata(name, hashedIdentity, tier) */\n      dup9\n      and\n      dup2\n      dup6\n      add\n      mstore\n        /* \"contracts/CompanyDB.sol\":1120:1145  _companyMetadata[account] */\n      swap2\n      dup5\n      mstore\n        /* \"contracts/CompanyDB.sol\":1120:1136  _companyMetadata */\n      0x02\n        /* \"contracts/CompanyDB.sol\":1120:1145  _companyMetadata[account] */\n      swap1\n      mstore\n      swap2\n      keccak256\n        /* \"contracts/CompanyDB.sol\":1120:1191  _companyMetadata[account] = CompanyMetadata(name, hashedIdentity, tier) */\n      dup2\n      mload\n        /* \"contracts/CompanyDB.sol\":1120:1145  _companyMetadata[account] */\n      dup2\n      swap1\n        /* \"contracts/CompanyDB.sol\":1120:1191  _companyMetadata[account] = CompanyMetadata(name, hashedIdentity, tier) */\n      tag_140\n      swap1\n        /* \"contracts/CompanyDB.sol\":1120:1145  _companyMetadata[account] */\n      dup3\n        /* \"contracts/CompanyDB.sol\":1120:1191  _companyMetadata[account] = CompanyMetadata(name, hashedIdentity, tier) */\n      tag_141\n      jump\t// in\n    tag_140:\n      pop\n      0x20\n      dup3\n      add\n      mload\n      0x01\n      dup3\n      add\n      sstore\n      0x40\n      swap2\n      dup3\n      add\n      mload\n      0x02\n      swap1\n      swap2\n      add\n      dup1\n      sload\n      not(0xff)\n      and\n      0xff\n      swap3\n      dup4\n      and\n      or\n      swap1\n      sstore\n        /* \"contracts/CompanyDB.sol\":1209:1264  _soulBoundToken.safeMint(account, tier, hashedIdentity) */\n      swap1\n      mload\n      shl(0xe1, 0x60914869)\n      dup2\n      mstore\n      sub(shl(0xa0, 0x01), 0x01)\n        /* \"#utility.yul\":5220:5252   */\n      dup9\n      dup2\n      and\n        /* \"contracts/CompanyDB.sol\":1209:1264  _soulBoundToken.safeMint(account, tier, hashedIdentity) */\n      0x04\n      dup4\n      add\n        /* \"#utility.yul\":5202:5253   */\n      mstore\n        /* \"#utility.yul\":5289:5306   */\n      swap2\n      dup6\n      and\n        /* \"#utility.yul\":5269:5287   */\n      0x24\n      dup3\n      add\n        /* \"#utility.yul\":5262:5307   */\n      mstore\n        /* \"#utility.yul\":5323:5341   */\n      0x44\n      dup2\n      add\n        /* \"#utility.yul\":5316:5350   */\n      dup7\n      swap1\n      mstore\n        /* \"contracts/CompanyDB.sol\":1209:1224  _soulBoundToken */\n      immutable(\"0x9cce9eb03c9f29c6481fca9f0f942b15bef0bbbc47fda0ddb44df157019835d9\")\n        /* \"contracts/CompanyDB.sol\":1209:1233  _soulBoundToken.safeMint */\n      swap1\n      swap2\n      and\n      swap1\n      0xc12290d2\n      swap1\n        /* \"#utility.yul\":5175:5193   */\n      0x64\n      add\n        /* \"contracts/CompanyDB.sol\":1209:1264  _soulBoundToken.safeMint(account, tier, hashedIdentity) */\n      0x20\n      mload(0x40)\n      dup1\n      dup4\n      sub\n      dup2\n      0x00\n      dup8\n      gas\n      call\n      iszero\n      dup1\n      iszero\n      tag_144\n      jumpi\n      returndatasize\n      0x00\n      dup1\n      returndatacopy\n      revert(0x00, returndatasize)\n    tag_144:\n      pop\n      pop\n      pop\n      pop\n      mload(0x40)\n      returndatasize\n      not(0x1f)\n      0x1f\n      dup3\n      add\n      and\n      dup3\n      add\n      dup1\n      0x40\n      mstore\n      pop\n      dup2\n      add\n      swap1\n      tag_145\n      swap2\n      swap1\n      tag_71\n      jump\t// in\n    tag_145:\n        /* \"contracts/CompanyDB.sol\":1201:1264  sbtId = _soulBoundToken.safeMint(account, tier, hashedIdentity) */\n      swap7\n        /* \"contracts/CompanyDB.sol\":768:1271  function registerCompany(... */\n      swap6\n      pop\n      pop\n      pop\n      pop\n      pop\n      pop\n      jump\t// out\n        /* \"contracts/CompanyDB.sol\":2057:2427  function modifyTier(address account, uint8 tier) external onlyOwner {... */\n    tag_52:\n        /* \"contracts/CompanyDB.sol\":499:505  _owner */\n      immutable(\"0x1572b593c53d839d80004aa4b8c51211864104f06ace9e22be9c4365b50655ea\")\n      sub(shl(0xa0, 0x01), 0x01)\n        /* \"contracts/CompanyDB.sol\":499:519  _owner == msg.sender */\n      and\n        /* \"contracts/CompanyDB.sol\":509:519  msg.sender */\n      caller\n        /* \"contracts/CompanyDB.sol\":499:519  _owner == msg.sender */\n      eq\n        /* \"contracts/CompanyDB.sol\":491:527  require(_owner == msg.sender, \"NTO\") */\n      tag_147\n      jumpi\n      mload(0x40)\n      shl(0xe5, 0x461bcd)\n      dup2\n      mstore\n      0x04\n      add\n      tag_60\n      swap1\n      tag_61\n      jump\t// in\n    tag_147:\n        /* \"contracts/CompanyDB.sol\":2143:2180  _soulBoundToken.hasActiveSBT(account) */\n      mload(0x40)\n      shl(0xe0, 0x39f920ab)\n      dup2\n      mstore\n      sub(shl(0xa0, 0x01), 0x01)\n        /* \"#utility.yul\":178:210   */\n      dup4\n      dup2\n      and\n        /* \"contracts/CompanyDB.sol\":2143:2180  _soulBoundToken.hasActiveSBT(account) */\n      0x04\n      dup4\n      add\n        /* \"#utility.yul\":160:211   */\n      mstore\n        /* \"contracts/CompanyDB.sol\":2143:2158  _soulBoundToken */\n      immutable(\"0x9cce9eb03c9f29c6481fca9f0f942b15bef0bbbc47fda0ddb44df157019835d9\")\n        /* \"contracts/CompanyDB.sol\":2143:2171  _soulBoundToken.hasActiveSBT */\n      and\n      swap1\n      0x39f920ab\n      swap1\n        /* \"#utility.yul\":133:151   */\n      0x24\n      add\n        /* \"contracts/CompanyDB.sol\":2143:2180  _soulBoundToken.hasActiveSBT(account) */\n      0x20\n      mload(0x40)\n      dup1\n      dup4\n      sub\n      dup2\n      dup7\n      gas\n      staticcall\n      iszero\n      dup1\n      iszero\n      tag_152\n      jumpi\n      returndatasize\n      0x00\n      dup1\n      returndatacopy\n      revert(0x00, returndatasize)\n    tag_152:\n      pop\n      pop\n      pop\n      pop\n      mload(0x40)\n      returndatasize\n      not(0x1f)\n      0x1f\n      dup3\n      add\n      and\n      dup3\n      add\n      dup1\n      0x40\n      mstore\n      pop\n      dup2\n      add\n      swap1\n      tag_153\n      swap2\n      swap1\n      tag_80\n      jump\t// in\n    tag_153:\n        /* \"contracts/CompanyDB.sol\":2135:2190  require(_soulBoundToken.hasActiveSBT(account), \"NASBT\") */\n      tag_154\n      jumpi\n      mload(0x40)\n      shl(0xe5, 0x461bcd)\n      dup2\n      mstore\n        /* \"#utility.yul\":6034:6036   */\n      0x20\n        /* \"contracts/CompanyDB.sol\":2135:2190  require(_soulBoundToken.hasActiveSBT(account), \"NASBT\") */\n      0x04\n      dup3\n      add\n        /* \"#utility.yul\":6016:6037   */\n      mstore\n        /* \"#utility.yul\":6073:6074   */\n      0x05\n        /* \"#utility.yul\":6053:6071   */\n      0x24\n      dup3\n      add\n        /* \"#utility.yul\":6046:6075   */\n      mstore\n      shl(0xda, 0x139054d095)\n        /* \"#utility.yul\":6091:6109   */\n      0x44\n      dup3\n      add\n        /* \"#utility.yul\":6084:6119   */\n      mstore\n        /* \"#utility.yul\":6136:6154   */\n      0x64\n      add\n        /* \"contracts/CompanyDB.sol\":2135:2190  require(_soulBoundToken.hasActiveSBT(account), \"NASBT\") */\n      tag_60\n        /* \"#utility.yul\":5832:6160   */\n      jump\n        /* \"contracts/CompanyDB.sol\":2135:2190  require(_soulBoundToken.hasActiveSBT(account), \"NASBT\") */\n    tag_154:\n      sub(shl(0xa0, 0x01), 0x01)\n        /* \"contracts/CompanyDB.sol\":2216:2241  _companyMetadata[account] */\n      dup3\n      and\n      0x00\n      swap1\n      dup2\n      mstore\n        /* \"contracts/CompanyDB.sol\":2216:2232  _companyMetadata */\n      0x02\n        /* \"contracts/CompanyDB.sol\":2216:2241  _companyMetadata[account] */\n      0x20\n      dup2\n      swap1\n      mstore\n      0x40\n      swap1\n      swap2\n      keccak256\n        /* \"contracts/CompanyDB.sol\":2216:2246  _companyMetadata[account].tier */\n      add\n      sload\n      0xff\n      swap1\n      dup2\n      and\n        /* \"contracts/CompanyDB.sol\":2208:2246  tier != _companyMetadata[account].tier */\n      swap1\n      dup3\n      and\n      sub\n        /* \"contracts/CompanyDB.sol\":2200:2256  require(tier != _companyMetadata[account].tier, \"ATCST\") */\n      tag_156\n      jumpi\n      mload(0x40)\n      shl(0xe5, 0x461bcd)\n      dup2\n      mstore\n        /* \"#utility.yul\":10283:10285   */\n      0x20\n        /* \"contracts/CompanyDB.sol\":2200:2256  require(tier != _companyMetadata[account].tier, \"ATCST\") */\n      0x04\n      dup3\n      add\n        /* \"#utility.yul\":10265:10286   */\n      mstore\n        /* \"#utility.yul\":10322:10323   */\n      0x05\n        /* \"#utility.yul\":10302:10320   */\n      0x24\n      dup3\n      add\n        /* \"#utility.yul\":10295:10324   */\n      mstore\n      shl(0xda, 0x105510d4d5)\n        /* \"#utility.yul\":10340:10358   */\n      0x44\n      dup3\n      add\n        /* \"#utility.yul\":10333:10368   */\n      mstore\n        /* \"#utility.yul\":10385:10403   */\n      0x64\n      add\n        /* \"contracts/CompanyDB.sol\":2200:2256  require(tier != _companyMetadata[account].tier, \"ATCST\") */\n      tag_60\n        /* \"#utility.yul\":10081:10409   */\n      jump\n        /* \"contracts/CompanyDB.sol\":2200:2256  require(tier != _companyMetadata[account].tier, \"ATCST\") */\n    tag_156:\n      sub(shl(0xa0, 0x01), 0x01)\n        /* \"contracts/CompanyDB.sol\":2266:2291  _companyMetadata[account] */\n      dup3\n      dup2\n      and\n      0x00\n      dup2\n      dup2\n      mstore\n        /* \"contracts/CompanyDB.sol\":2266:2282  _companyMetadata */\n      0x02\n        /* \"contracts/CompanyDB.sol\":2266:2291  _companyMetadata[account] */\n      0x20\n      dup2\n      swap1\n      mstore\n      0x40\n      swap2\n      dup3\n      swap1\n      keccak256\n        /* \"contracts/CompanyDB.sol\":2266:2296  _companyMetadata[account].tier */\n      add\n        /* \"contracts/CompanyDB.sol\":2266:2303  _companyMetadata[account].tier = tier */\n      dup1\n      sload\n      not(0xff)\n      and\n      0xff\n      dup7\n      and\n      or\n      swap1\n      sstore\n        /* \"contracts/CompanyDB.sol\":2353:2392  _soulBoundToken.ownerToTokenId(account) */\n      mload\n      shl(0xe0, 0x4814f035)\n      dup2\n      mstore\n      0x04\n      dup2\n      add\n        /* \"#utility.yul\":160:211   */\n      swap2\n      swap1\n      swap2\n      mstore\n        /* \"contracts/CompanyDB.sol\":2313:2328  _soulBoundToken */\n      immutable(\"0x9cce9eb03c9f29c6481fca9f0f942b15bef0bbbc47fda0ddb44df157019835d9\")\n        /* \"contracts/CompanyDB.sol\":2313:2339  _soulBoundToken.modifyTier */\n      swap1\n      swap2\n      and\n      swap1\n      0x37b05d8d\n      swap1\n      dup3\n      swap1\n        /* \"contracts/CompanyDB.sol\":2353:2383  _soulBoundToken.ownerToTokenId */\n      0x4814f035\n      swap1\n        /* \"#utility.yul\":133:151   */\n      0x24\n      add\n        /* \"contracts/CompanyDB.sol\":2353:2392  _soulBoundToken.ownerToTokenId(account) */\n      0x20\n      mload(0x40)\n      dup1\n      dup4\n      sub\n      dup2\n      dup7\n      gas\n      staticcall\n      iszero\n      dup1\n      iszero\n      tag_161\n      jumpi\n      returndatasize\n      0x00\n      dup1\n      returndatacopy\n      revert(0x00, returndatasize)\n    tag_161:\n      pop\n      pop\n      pop\n      pop\n      mload(0x40)\n      returndatasize\n      not(0x1f)\n      0x1f\n      dup3\n      add\n      and\n      dup3\n      add\n      dup1\n      0x40\n      mstore\n      pop\n      dup2\n      add\n      swap1\n      tag_162\n      swap2\n      swap1\n      tag_71\n      jump\t// in\n    tag_162:\n        /* \"contracts/CompanyDB.sol\":2313:2420  _soulBoundToken.modifyTier(... */\n      mload(0x40)\n      not(sub(shl(0xe0, 0x01), 0x01))\n      0xe0\n      dup5\n      swap1\n      shl\n      and\n      dup2\n      mstore\n      0x04\n      dup2\n      add\n        /* \"#utility.yul\":10584:10609   */\n      swap2\n      swap1\n      swap2\n      mstore\n        /* \"#utility.yul\":10657:10661   */\n      0xff\n        /* \"#utility.yul\":10645:10662   */\n      dup5\n      and\n        /* \"#utility.yul\":10625:10643   */\n      0x24\n      dup3\n      add\n        /* \"#utility.yul\":10618:10663   */\n      mstore\n        /* \"#utility.yul\":10557:10575   */\n      0x44\n      add\n        /* \"contracts/CompanyDB.sol\":2313:2420  _soulBoundToken.modifyTier(... */\n      0x00\n      mload(0x40)\n      dup1\n      dup4\n      sub\n      dup2\n      0x00\n      dup8\n      dup1\n      extcodesize\n      iszero\n      dup1\n      iszero\n      tag_165\n      jumpi\n      0x00\n      dup1\n      revert\n    tag_165:\n      pop\n      gas\n      call\n      iszero\n      dup1\n      iszero\n      tag_167\n      jumpi\n      returndatasize\n      0x00\n      dup1\n      returndatacopy\n      revert(0x00, returndatasize)\n    tag_167:\n      pop\n      pop\n      pop\n      pop\n        /* \"contracts/CompanyDB.sol\":2057:2427  function modifyTier(address account, uint8 tier) external onlyOwner {... */\n      pop\n      pop\n      jump\t// out\n        /* \"contracts/CompanyDB.sol\":2565:2679  function registeredCompanies() public view returns (address[] memory) {... */\n    tag_54:\n        /* \"contracts/CompanyDB.sol\":2617:2633  address[] memory */\n      0x60\n        /* \"contracts/CompanyDB.sol\":2652:2672  _registeredCompanies */\n      0x00\n        /* \"contracts/CompanyDB.sol\":2645:2672  return _registeredCompanies */\n      dup1\n      sload\n      dup1\n      0x20\n      mul\n      0x20\n      add\n      mload(0x40)\n      swap1\n      dup2\n      add\n      0x40\n      mstore\n      dup1\n      swap3\n      swap2\n      swap1\n      dup2\n      dup2\n      mstore\n      0x20\n      add\n      dup3\n      dup1\n      sload\n      dup1\n      iszero\n      tag_169\n      jumpi\n      0x20\n      mul\n      dup3\n      add\n      swap2\n      swap1\n      0x00\n      mstore\n      keccak256(0x00, 0x20)\n      swap1\n    tag_170:\n      dup2\n      sload\n      sub(shl(0xa0, 0x01), 0x01)\n      and\n      dup2\n      mstore\n      0x01\n      swap1\n      swap2\n      add\n      swap1\n      0x20\n      add\n      dup1\n      dup4\n      gt\n      tag_170\n      jumpi\n    tag_169:\n      pop\n      pop\n      pop\n      pop\n      pop\n      swap1\n      pop\n        /* \"contracts/CompanyDB.sol\":2565:2679  function registeredCompanies() public view returns (address[] memory) {... */\n      swap1\n      jump\t// out\n        /* \"#utility.yul\":222:395   */\n    tag_171:\n        /* \"#utility.yul\":290:310   */\n      dup1\n      calldataload\n      sub(shl(0xa0, 0x01), 0x01)\n        /* \"#utility.yul\":339:370   */\n      dup2\n      and\n        /* \"#utility.yul\":329:371   */\n      dup2\n      eq\n        /* \"#utility.yul\":319:389   */\n      tag_180\n      jumpi\n        /* \"#utility.yul\":385:386   */\n      0x00\n        /* \"#utility.yul\":382:383   */\n      dup1\n        /* \"#utility.yul\":375:387   */\n      revert\n        /* \"#utility.yul\":319:389   */\n    tag_180:\n        /* \"#utility.yul\":222:395   */\n      swap2\n      swap1\n      pop\n      jump\t// out\n        /* \"#utility.yul\":400:556   */\n    tag_172:\n        /* \"#utility.yul\":466:486   */\n      dup1\n      calldataload\n        /* \"#utility.yul\":526:530   */\n      0xff\n        /* \"#utility.yul\":515:531   */\n      dup2\n      and\n        /* \"#utility.yul\":505:532   */\n      dup2\n      eq\n        /* \"#utility.yul\":495:550   */\n      tag_180\n      jumpi\n        /* \"#utility.yul\":546:547   */\n      0x00\n        /* \"#utility.yul\":543:544   */\n      dup1\n        /* \"#utility.yul\":536:548   */\n      revert\n        /* \"#utility.yul\":561:885   */\n    tag_20:\n        /* \"#utility.yul\":636:642   */\n      0x00\n        /* \"#utility.yul\":644:650   */\n      dup1\n        /* \"#utility.yul\":652:658   */\n      0x00\n        /* \"#utility.yul\":705:707   */\n      0x60\n        /* \"#utility.yul\":693:702   */\n      dup5\n        /* \"#utility.yul\":684:691   */\n      dup7\n        /* \"#utility.yul\":680:703   */\n      sub\n        /* \"#utility.yul\":676:708   */\n      slt\n        /* \"#utility.yul\":673:725   */\n      iszero\n      tag_184\n      jumpi\n        /* \"#utility.yul\":721:722   */\n      0x00\n        /* \"#utility.yul\":718:719   */\n      dup1\n        /* \"#utility.yul\":711:723   */\n      revert\n        /* \"#utility.yul\":673:725   */\n    tag_184:\n        /* \"#utility.yul\":744:773   */\n      tag_185\n        /* \"#utility.yul\":763:772   */\n      dup5\n        /* \"#utility.yul\":744:773   */\n      tag_171\n      jump\t// in\n    tag_185:\n        /* \"#utility.yul\":734:773   */\n      swap3\n      pop\n        /* \"#utility.yul\":820:822   */\n      0x20\n        /* \"#utility.yul\":809:818   */\n      dup5\n        /* \"#utility.yul\":805:823   */\n      add\n        /* \"#utility.yul\":792:824   */\n      calldataload\n        /* \"#utility.yul\":782:824   */\n      swap2\n      pop\n        /* \"#utility.yul\":843:879   */\n      tag_186\n        /* \"#utility.yul\":875:877   */\n      0x40\n        /* \"#utility.yul\":864:873   */\n      dup6\n        /* \"#utility.yul\":860:878   */\n      add\n        /* \"#utility.yul\":843:879   */\n      tag_172\n      jump\t// in\n    tag_186:\n        /* \"#utility.yul\":833:879   */\n      swap1\n      pop\n        /* \"#utility.yul\":561:885   */\n      swap3\n      pop\n      swap3\n      pop\n      swap3\n      jump\t// out\n        /* \"#utility.yul\":1072:1258   */\n    tag_26:\n        /* \"#utility.yul\":1131:1137   */\n      0x00\n        /* \"#utility.yul\":1184:1186   */\n      0x20\n        /* \"#utility.yul\":1172:1181   */\n      dup3\n        /* \"#utility.yul\":1163:1170   */\n      dup5\n        /* \"#utility.yul\":1159:1182   */\n      sub\n        /* \"#utility.yul\":1155:1187   */\n      slt\n        /* \"#utility.yul\":1152:1204   */\n      iszero\n      tag_189\n      jumpi\n        /* \"#utility.yul\":1200:1201   */\n      0x00\n        /* \"#utility.yul\":1197:1198   */\n      dup1\n        /* \"#utility.yul\":1190:1202   */\n      revert\n        /* \"#utility.yul\":1152:1204   */\n    tag_189:\n        /* \"#utility.yul\":1223:1252   */\n      tag_190\n        /* \"#utility.yul\":1242:1251   */\n      dup3\n        /* \"#utility.yul\":1223:1252   */\n      tag_171\n      jump\t// in\n    tag_190:\n        /* \"#utility.yul\":1213:1252   */\n      swap4\n        /* \"#utility.yul\":1072:1258   */\n      swap3\n      pop\n      pop\n      pop\n      jump\t// out\n        /* \"#utility.yul\":1455:2140   */\n    tag_43:\n        /* \"#utility.yul\":1656:1658   */\n      0x60\n        /* \"#utility.yul\":1645:1654   */\n      dup2\n        /* \"#utility.yul\":1638:1659   */\n      mstore\n        /* \"#utility.yul\":1619:1623   */\n      0x00\n        /* \"#utility.yul\":1688:1694   */\n      dup5\n        /* \"#utility.yul\":1682:1695   */\n      mload\n        /* \"#utility.yul\":1731:1737   */\n      dup1\n        /* \"#utility.yul\":1726:1728   */\n      0x60\n        /* \"#utility.yul\":1715:1724   */\n      dup5\n        /* \"#utility.yul\":1711:1729   */\n      add\n        /* \"#utility.yul\":1704:1738   */\n      mstore\n        /* \"#utility.yul\":1756:1757   */\n      0x00\n        /* \"#utility.yul\":1766:1911   */\n    tag_193:\n        /* \"#utility.yul\":1780:1786   */\n      dup2\n        /* \"#utility.yul\":1777:1778   */\n      dup2\n        /* \"#utility.yul\":1774:1787   */\n      lt\n        /* \"#utility.yul\":1766:1911   */\n      iszero\n      tag_195\n      jumpi\n        /* \"#utility.yul\":1894:1898   */\n      0x20\n        /* \"#utility.yul\":1878:1892   */\n      dup2\n      dup9\n      add\n        /* \"#utility.yul\":1874:1899   */\n      dup2\n      add\n        /* \"#utility.yul\":1868:1900   */\n      mload\n        /* \"#utility.yul\":1862:1865   */\n      0x80\n        /* \"#utility.yul\":1843:1860   */\n      dup7\n      dup5\n      add\n        /* \"#utility.yul\":1839:1866   */\n      add\n        /* \"#utility.yul\":1832:1901   */\n      mstore\n        /* \"#utility.yul\":1795:1807   */\n      add\n        /* \"#utility.yul\":1766:1911   */\n      jump(tag_193)\n    tag_195:\n        /* \"#utility.yul\":1770:1773   */\n      pop\n        /* \"#utility.yul\":1961:1962   */\n      0x00\n        /* \"#utility.yul\":1955:1958   */\n      0x80\n        /* \"#utility.yul\":1946:1952   */\n      dup3\n        /* \"#utility.yul\":1935:1944   */\n      dup6\n        /* \"#utility.yul\":1931:1953   */\n      add\n        /* \"#utility.yul\":1927:1959   */\n      add\n        /* \"#utility.yul\":1920:1963   */\n      mstore\n        /* \"#utility.yul\":2031:2034   */\n      0x80\n        /* \"#utility.yul\":2024:2026   */\n      0x1f\n        /* \"#utility.yul\":2020:2027   */\n      not\n        /* \"#utility.yul\":2015:2017   */\n      0x1f\n        /* \"#utility.yul\":2007:2013   */\n      dup4\n        /* \"#utility.yul\":2003:2018   */\n      add\n        /* \"#utility.yul\":1999:2028   */\n      and\n        /* \"#utility.yul\":1988:1997   */\n      dup5\n        /* \"#utility.yul\":1984:2029   */\n      add\n        /* \"#utility.yul\":1980:2035   */\n      add\n        /* \"#utility.yul\":1972:2035   */\n      swap2\n      pop\n      pop\n        /* \"#utility.yul\":2073:2079   */\n      dup4\n        /* \"#utility.yul\":2066:2070   */\n      0x20\n        /* \"#utility.yul\":2055:2064   */\n      dup4\n        /* \"#utility.yul\":2051:2071   */\n      add\n        /* \"#utility.yul\":2044:2080   */\n      mstore\n        /* \"#utility.yul\":2128:2132   */\n      0xff\n        /* \"#utility.yul\":2120:2126   */\n      dup4\n        /* \"#utility.yul\":2116:2133   */\n      and\n        /* \"#utility.yul\":2111:2113   */\n      0x40\n        /* \"#utility.yul\":2100:2109   */\n      dup4\n        /* \"#utility.yul\":2096:2114   */\n      add\n        /* \"#utility.yul\":2089:2134   */\n      mstore\n        /* \"#utility.yul\":1455:2140   */\n      swap5\n      swap4\n      pop\n      pop\n      pop\n      pop\n      jump\t// out\n        /* \"#utility.yul\":2145:2272   */\n    tag_173:\n        /* \"#utility.yul\":2206:2216   */\n      0x4e487b71\n        /* \"#utility.yul\":2201:2204   */\n      0xe0\n        /* \"#utility.yul\":2197:2217   */\n      shl\n        /* \"#utility.yul\":2194:2195   */\n      0x00\n        /* \"#utility.yul\":2187:2218   */\n      mstore\n        /* \"#utility.yul\":2237:2241   */\n      0x41\n        /* \"#utility.yul\":2234:2235   */\n      0x04\n        /* \"#utility.yul\":2227:2242   */\n      mstore\n        /* \"#utility.yul\":2261:2265   */\n      0x24\n        /* \"#utility.yul\":2258:2259   */\n      0x00\n        /* \"#utility.yul\":2251:2266   */\n      revert\n        /* \"#utility.yul\":2277:3412   */\n    tag_46:\n        /* \"#utility.yul\":2371:2377   */\n      0x00\n        /* \"#utility.yul\":2379:2385   */\n      dup1\n        /* \"#utility.yul\":2387:2393   */\n      0x00\n        /* \"#utility.yul\":2395:2401   */\n      dup1\n        /* \"#utility.yul\":2448:2451   */\n      0x80\n        /* \"#utility.yul\":2436:2445   */\n      dup6\n        /* \"#utility.yul\":2427:2434   */\n      dup8\n        /* \"#utility.yul\":2423:2446   */\n      sub\n        /* \"#utility.yul\":2419:2452   */\n      slt\n        /* \"#utility.yul\":2416:2469   */\n      iszero\n      tag_198\n      jumpi\n        /* \"#utility.yul\":2465:2466   */\n      0x00\n        /* \"#utility.yul\":2462:2463   */\n      dup1\n        /* \"#utility.yul\":2455:2467   */\n      revert\n        /* \"#utility.yul\":2416:2469   */\n    tag_198:\n        /* \"#utility.yul\":2488:2517   */\n      tag_199\n        /* \"#utility.yul\":2507:2516   */\n      dup6\n        /* \"#utility.yul\":2488:2517   */\n      tag_171\n      jump\t// in\n    tag_199:\n        /* \"#utility.yul\":2478:2517   */\n      swap4\n      pop\n        /* \"#utility.yul\":2568:2570   */\n      0x20\n        /* \"#utility.yul\":2557:2566   */\n      dup6\n        /* \"#utility.yul\":2553:2571   */\n      add\n        /* \"#utility.yul\":2540:2572   */\n      calldataload\n        /* \"#utility.yul\":2591:2609   */\n      0xffffffffffffffff\n        /* \"#utility.yul\":2632:2634   */\n      dup1\n        /* \"#utility.yul\":2624:2630   */\n      dup3\n        /* \"#utility.yul\":2621:2635   */\n      gt\n        /* \"#utility.yul\":2618:2652   */\n      iszero\n      tag_200\n      jumpi\n        /* \"#utility.yul\":2648:2649   */\n      0x00\n        /* \"#utility.yul\":2645:2646   */\n      dup1\n        /* \"#utility.yul\":2638:2650   */\n      revert\n        /* \"#utility.yul\":2618:2652   */\n    tag_200:\n        /* \"#utility.yul\":2686:2692   */\n      dup2\n        /* \"#utility.yul\":2675:2684   */\n      dup8\n        /* \"#utility.yul\":2671:2693   */\n      add\n        /* \"#utility.yul\":2661:2693   */\n      swap2\n      pop\n        /* \"#utility.yul\":2731:2738   */\n      dup8\n        /* \"#utility.yul\":2724:2728   */\n      0x1f\n        /* \"#utility.yul\":2720:2722   */\n      dup4\n        /* \"#utility.yul\":2716:2729   */\n      add\n        /* \"#utility.yul\":2712:2739   */\n      slt\n        /* \"#utility.yul\":2702:2757   */\n      tag_201\n      jumpi\n        /* \"#utility.yul\":2753:2754   */\n      0x00\n        /* \"#utility.yul\":2750:2751   */\n      dup1\n        /* \"#utility.yul\":2743:2755   */\n      revert\n        /* \"#utility.yul\":2702:2757   */\n    tag_201:\n        /* \"#utility.yul\":2789:2791   */\n      dup2\n        /* \"#utility.yul\":2776:2792   */\n      calldataload\n        /* \"#utility.yul\":2811:2813   */\n      dup2\n        /* \"#utility.yul\":2807:2809   */\n      dup2\n        /* \"#utility.yul\":2804:2814   */\n      gt\n        /* \"#utility.yul\":2801:2837   */\n      iszero\n      tag_203\n      jumpi\n        /* \"#utility.yul\":2817:2835   */\n      tag_203\n      tag_173\n      jump\t// in\n    tag_203:\n        /* \"#utility.yul\":2892:2894   */\n      0x40\n        /* \"#utility.yul\":2886:2895   */\n      mload\n        /* \"#utility.yul\":2860:2862   */\n      0x1f\n        /* \"#utility.yul\":2946:2959   */\n      dup3\n      add\n      not(0x1f)\n        /* \"#utility.yul\":2942:2964   */\n      swap1\n      dup2\n      and\n        /* \"#utility.yul\":2966:2968   */\n      0x3f\n        /* \"#utility.yul\":2938:2969   */\n      add\n        /* \"#utility.yul\":2934:2974   */\n      and\n        /* \"#utility.yul\":2922:2975   */\n      dup2\n      add\n      swap1\n        /* \"#utility.yul\":2990:3008   */\n      dup4\n      dup3\n      gt\n        /* \"#utility.yul\":3010:3032   */\n      dup2\n      dup4\n      lt\n        /* \"#utility.yul\":2987:3033   */\n      or\n        /* \"#utility.yul\":2984:3056   */\n      iszero\n      tag_205\n      jumpi\n        /* \"#utility.yul\":3036:3054   */\n      tag_205\n      tag_173\n      jump\t// in\n    tag_205:\n        /* \"#utility.yul\":3076:3086   */\n      dup2\n        /* \"#utility.yul\":3072:3074   */\n      0x40\n        /* \"#utility.yul\":3065:3087   */\n      mstore\n        /* \"#utility.yul\":3111:3113   */\n      dup3\n        /* \"#utility.yul\":3103:3109   */\n      dup2\n        /* \"#utility.yul\":3096:3114   */\n      mstore\n        /* \"#utility.yul\":3151:3158   */\n      dup11\n        /* \"#utility.yul\":3146:3148   */\n      0x20\n        /* \"#utility.yul\":3141:3143   */\n      dup5\n        /* \"#utility.yul\":3137:3139   */\n      dup8\n        /* \"#utility.yul\":3133:3144   */\n      add\n        /* \"#utility.yul\":3129:3149   */\n      add\n        /* \"#utility.yul\":3126:3159   */\n      gt\n        /* \"#utility.yul\":3123:3176   */\n      iszero\n      tag_206\n      jumpi\n        /* \"#utility.yul\":3172:3173   */\n      0x00\n        /* \"#utility.yul\":3169:3170   */\n      dup1\n        /* \"#utility.yul\":3162:3174   */\n      revert\n        /* \"#utility.yul\":3123:3176   */\n    tag_206:\n        /* \"#utility.yul\":3228:3230   */\n      dup3\n        /* \"#utility.yul\":3223:3225   */\n      0x20\n        /* \"#utility.yul\":3219:3221   */\n      dup7\n        /* \"#utility.yul\":3215:3226   */\n      add\n        /* \"#utility.yul\":3210:3212   */\n      0x20\n        /* \"#utility.yul\":3202:3208   */\n      dup4\n        /* \"#utility.yul\":3198:3213   */\n      add\n        /* \"#utility.yul\":3185:3231   */\n      calldatacopy\n        /* \"#utility.yul\":3273:3274   */\n      0x00\n        /* \"#utility.yul\":3268:3270   */\n      0x20\n        /* \"#utility.yul\":3263:3265   */\n      dup5\n        /* \"#utility.yul\":3255:3261   */\n      dup4\n        /* \"#utility.yul\":3251:3266   */\n      add\n        /* \"#utility.yul\":3247:3271   */\n      add\n        /* \"#utility.yul\":3240:3275   */\n      mstore\n        /* \"#utility.yul\":3294:3300   */\n      dup1\n        /* \"#utility.yul\":3284:3300   */\n      swap8\n      pop\n      pop\n      pop\n      pop\n      pop\n      pop\n        /* \"#utility.yul\":3347:3349   */\n      0x40\n        /* \"#utility.yul\":3336:3345   */\n      dup6\n        /* \"#utility.yul\":3332:3350   */\n      add\n        /* \"#utility.yul\":3319:3351   */\n      calldataload\n        /* \"#utility.yul\":3309:3351   */\n      swap2\n      pop\n        /* \"#utility.yul\":3370:3406   */\n      tag_207\n        /* \"#utility.yul\":3402:3404   */\n      0x60\n        /* \"#utility.yul\":3391:3400   */\n      dup7\n        /* \"#utility.yul\":3387:3405   */\n      add\n        /* \"#utility.yul\":3370:3406   */\n      tag_172\n      jump\t// in\n    tag_207:\n        /* \"#utility.yul\":3360:3406   */\n      swap1\n      pop\n        /* \"#utility.yul\":2277:3412   */\n      swap3\n      swap6\n      swap2\n      swap5\n      pop\n      swap3\n      pop\n      jump\t// out\n        /* \"#utility.yul\":3417:3673   */\n    tag_51:\n        /* \"#utility.yul\":3483:3489   */\n      0x00\n        /* \"#utility.yul\":3491:3497   */\n      dup1\n        /* \"#utility.yul\":3544:3546   */\n      0x40\n        /* \"#utility.yul\":3532:3541   */\n      dup4\n        /* \"#utility.yul\":3523:3530   */\n      dup6\n        /* \"#utility.yul\":3519:3542   */\n      sub\n        /* \"#utility.yul\":3515:3547   */\n      slt\n        /* \"#utility.yul\":3512:3564   */\n      iszero\n      tag_209\n      jumpi\n        /* \"#utility.yul\":3560:3561   */\n      0x00\n        /* \"#utility.yul\":3557:3558   */\n      dup1\n        /* \"#utility.yul\":3550:3562   */\n      revert\n        /* \"#utility.yul\":3512:3564   */\n    tag_209:\n        /* \"#utility.yul\":3583:3612   */\n      tag_210\n        /* \"#utility.yul\":3602:3611   */\n      dup4\n        /* \"#utility.yul\":3583:3612   */\n      tag_171\n      jump\t// in\n    tag_210:\n        /* \"#utility.yul\":3573:3612   */\n      swap2\n      pop\n        /* \"#utility.yul\":3631:3667   */\n      tag_211\n        /* \"#utility.yul\":3663:3665   */\n      0x20\n        /* \"#utility.yul\":3652:3661   */\n      dup5\n        /* \"#utility.yul\":3648:3666   */\n      add\n        /* \"#utility.yul\":3631:3667   */\n      tag_172\n      jump\t// in\n    tag_211:\n        /* \"#utility.yul\":3621:3667   */\n      swap1\n      pop\n        /* \"#utility.yul\":3417:3673   */\n      swap3\n      pop\n      swap3\n      swap1\n      pop\n      jump\t// out\n        /* \"#utility.yul\":3678:4336   */\n    tag_56:\n        /* \"#utility.yul\":3849:3851   */\n      0x20\n        /* \"#utility.yul\":3901:3922   */\n      dup1\n      dup3\n      mstore\n        /* \"#utility.yul\":3971:3984   */\n      dup3\n      mload\n        /* \"#utility.yul\":3874:3892   */\n      dup3\n      dup3\n      add\n        /* \"#utility.yul\":3993:4015   */\n      dup2\n      swap1\n      mstore\n        /* \"#utility.yul\":3820:3824   */\n      0x00\n      swap2\n        /* \"#utility.yul\":3849:3851   */\n      swap1\n        /* \"#utility.yul\":4072:4087   */\n      dup5\n      dup3\n      add\n      swap1\n        /* \"#utility.yul\":4046:4048   */\n      0x40\n        /* \"#utility.yul\":4031:4049   */\n      dup6\n      add\n      swap1\n        /* \"#utility.yul\":3820:3824   */\n      dup5\n        /* \"#utility.yul\":4115:4310   */\n    tag_213:\n        /* \"#utility.yul\":4129:4135   */\n      dup2\n        /* \"#utility.yul\":4126:4127   */\n      dup2\n        /* \"#utility.yul\":4123:4136   */\n      lt\n        /* \"#utility.yul\":4115:4310   */\n      iszero\n      tag_215\n      jumpi\n        /* \"#utility.yul\":4194:4207   */\n      dup4\n      mload\n      sub(shl(0xa0, 0x01), 0x01)\n        /* \"#utility.yul\":4190:4229   */\n      and\n        /* \"#utility.yul\":4178:4230   */\n      dup4\n      mstore\n        /* \"#utility.yul\":4285:4300   */\n      swap3\n      dup5\n      add\n      swap3\n        /* \"#utility.yul\":4250:4262   */\n      swap2\n      dup5\n      add\n      swap2\n        /* \"#utility.yul\":4226:4227   */\n      0x01\n        /* \"#utility.yul\":4144:4153   */\n      add\n        /* \"#utility.yul\":4115:4310   */\n      jump(tag_213)\n    tag_215:\n      pop\n        /* \"#utility.yul\":4327:4330   */\n      swap1\n      swap7\n        /* \"#utility.yul\":3678:4336   */\n      swap6\n      pop\n      pop\n      pop\n      pop\n      pop\n      pop\n      jump\t// out\n        /* \"#utility.yul\":4341:4667   */\n    tag_61:\n        /* \"#utility.yul\":4543:4545   */\n      0x20\n        /* \"#utility.yul\":4525:4546   */\n      dup1\n      dup3\n      mstore\n        /* \"#utility.yul\":4582:4583   */\n      0x03\n        /* \"#utility.yul\":4562:4580   */\n      swap1\n      dup3\n      add\n        /* \"#utility.yul\":4555:4584   */\n      mstore\n      shl(0xe8, 0x4e544f)\n        /* \"#utility.yul\":4615:4617   */\n      0x40\n        /* \"#utility.yul\":4600:4618   */\n      dup3\n      add\n        /* \"#utility.yul\":4593:4626   */\n      mstore\n        /* \"#utility.yul\":4658:4660   */\n      0x60\n        /* \"#utility.yul\":4643:4661   */\n      add\n      swap1\n        /* \"#utility.yul\":4341:4667   */\n      jump\t// out\n        /* \"#utility.yul\":5361:5545   */\n    tag_71:\n        /* \"#utility.yul\":5431:5437   */\n      0x00\n        /* \"#utility.yul\":5484:5486   */\n      0x20\n        /* \"#utility.yul\":5472:5481   */\n      dup3\n        /* \"#utility.yul\":5463:5470   */\n      dup5\n        /* \"#utility.yul\":5459:5482   */\n      sub\n        /* \"#utility.yul\":5455:5487   */\n      slt\n        /* \"#utility.yul\":5452:5504   */\n      iszero\n      tag_220\n      jumpi\n        /* \"#utility.yul\":5500:5501   */\n      0x00\n        /* \"#utility.yul\":5497:5498   */\n      dup1\n        /* \"#utility.yul\":5490:5502   */\n      revert\n        /* \"#utility.yul\":5452:5504   */\n    tag_220:\n      pop\n        /* \"#utility.yul\":5523:5539   */\n      mload\n      swap2\n        /* \"#utility.yul\":5361:5545   */\n      swap1\n      pop\n      jump\t// out\n        /* \"#utility.yul\":5550:5827   */\n    tag_80:\n        /* \"#utility.yul\":5617:5623   */\n      0x00\n        /* \"#utility.yul\":5670:5672   */\n      0x20\n        /* \"#utility.yul\":5658:5667   */\n      dup3\n        /* \"#utility.yul\":5649:5656   */\n      dup5\n        /* \"#utility.yul\":5645:5668   */\n      sub\n        /* \"#utility.yul\":5641:5673   */\n      slt\n        /* \"#utility.yul\":5638:5690   */\n      iszero\n      tag_222\n      jumpi\n        /* \"#utility.yul\":5686:5687   */\n      0x00\n        /* \"#utility.yul\":5683:5684   */\n      dup1\n        /* \"#utility.yul\":5676:5688   */\n      revert\n        /* \"#utility.yul\":5638:5690   */\n    tag_222:\n        /* \"#utility.yul\":5718:5727   */\n      dup2\n        /* \"#utility.yul\":5712:5728   */\n      mload\n        /* \"#utility.yul\":5771:5776   */\n      dup1\n        /* \"#utility.yul\":5764:5777   */\n      iszero\n        /* \"#utility.yul\":5757:5778   */\n      iszero\n        /* \"#utility.yul\":5750:5755   */\n      dup2\n        /* \"#utility.yul\":5747:5779   */\n      eq\n        /* \"#utility.yul\":5737:5797   */\n      tag_190\n      jumpi\n        /* \"#utility.yul\":5793:5794   */\n      0x00\n        /* \"#utility.yul\":5790:5791   */\n      dup1\n        /* \"#utility.yul\":5783:5795   */\n      revert\n        /* \"#utility.yul\":6830:7210   */\n    tag_122:\n        /* \"#utility.yul\":6909:6910   */\n      0x01\n        /* \"#utility.yul\":6905:6917   */\n      dup2\n      dup2\n      shr\n      swap1\n        /* \"#utility.yul\":6952:6964   */\n      dup3\n      and\n      dup1\n        /* \"#utility.yul\":6973:7034   */\n      tag_228\n      jumpi\n        /* \"#utility.yul\":7027:7031   */\n      0x7f\n        /* \"#utility.yul\":7019:7025   */\n      dup3\n        /* \"#utility.yul\":7015:7032   */\n      and\n        /* \"#utility.yul\":7005:7032   */\n      swap2\n      pop\n        /* \"#utility.yul\":6973:7034   */\n    tag_228:\n        /* \"#utility.yul\":7080:7082   */\n      0x20\n        /* \"#utility.yul\":7072:7078   */\n      dup3\n        /* \"#utility.yul\":7069:7083   */\n      lt\n        /* \"#utility.yul\":7049:7067   */\n      dup2\n        /* \"#utility.yul\":7046:7084   */\n      sub\n        /* \"#utility.yul\":7043:7204   */\n      tag_229\n      jumpi\n        /* \"#utility.yul\":7126:7136   */\n      0x4e487b71\n        /* \"#utility.yul\":7121:7124   */\n      0xe0\n        /* \"#utility.yul\":7117:7137   */\n      shl\n        /* \"#utility.yul\":7114:7115   */\n      0x00\n        /* \"#utility.yul\":7107:7138   */\n      mstore\n        /* \"#utility.yul\":7161:7165   */\n      0x22\n        /* \"#utility.yul\":7158:7159   */\n      0x04\n        /* \"#utility.yul\":7151:7166   */\n      mstore\n        /* \"#utility.yul\":7189:7193   */\n      0x24\n        /* \"#utility.yul\":7186:7187   */\n      0x00\n        /* \"#utility.yul\":7179:7194   */\n      revert\n        /* \"#utility.yul\":7043:7204   */\n    tag_229:\n      pop\n        /* \"#utility.yul\":6830:7210   */\n      swap2\n      swap1\n      pop\n      jump\t// out\n        /* \"#utility.yul\":8003:8548   */\n    tag_175:\n        /* \"#utility.yul\":8105:8107   */\n      0x1f\n        /* \"#utility.yul\":8100:8103   */\n      dup3\n        /* \"#utility.yul\":8097:8108   */\n      gt\n        /* \"#utility.yul\":8094:8542   */\n      iszero\n      tag_234\n      jumpi\n        /* \"#utility.yul\":8141:8142   */\n      0x00\n        /* \"#utility.yul\":8166:8171   */\n      dup2\n        /* \"#utility.yul\":8162:8164   */\n      dup2\n        /* \"#utility.yul\":8155:8172   */\n      mstore\n        /* \"#utility.yul\":8211:8215   */\n      0x20\n        /* \"#utility.yul\":8207:8209   */\n      dup2\n        /* \"#utility.yul\":8197:8216   */\n      keccak256\n        /* \"#utility.yul\":8281:8283   */\n      0x1f\n        /* \"#utility.yul\":8269:8279   */\n      dup6\n        /* \"#utility.yul\":8265:8284   */\n      add\n        /* \"#utility.yul\":8262:8263   */\n      0x05\n        /* \"#utility.yul\":8258:8285   */\n      shr\n        /* \"#utility.yul\":8252:8256   */\n      dup2\n        /* \"#utility.yul\":8248:8286   */\n      add\n        /* \"#utility.yul\":8317:8321   */\n      0x20\n        /* \"#utility.yul\":8305:8315   */\n      dup7\n        /* \"#utility.yul\":8302:8322   */\n      lt\n        /* \"#utility.yul\":8299:8346   */\n      iszero\n      tag_235\n      jumpi\n      pop\n        /* \"#utility.yul\":8340:8344   */\n      dup1\n        /* \"#utility.yul\":8299:8346   */\n    tag_235:\n        /* \"#utility.yul\":8395:8397   */\n      0x1f\n        /* \"#utility.yul\":8390:8393   */\n      dup6\n        /* \"#utility.yul\":8386:8398   */\n      add\n        /* \"#utility.yul\":8383:8384   */\n      0x05\n        /* \"#utility.yul\":8379:8399   */\n      shr\n        /* \"#utility.yul\":8373:8377   */\n      dup3\n        /* \"#utility.yul\":8369:8400   */\n      add\n        /* \"#utility.yul\":8359:8400   */\n      swap2\n      pop\n        /* \"#utility.yul\":8450:8532   */\n    tag_236:\n        /* \"#utility.yul\":8468:8470   */\n      dup2\n        /* \"#utility.yul\":8461:8466   */\n      dup2\n        /* \"#utility.yul\":8458:8471   */\n      lt\n        /* \"#utility.yul\":8450:8532   */\n      iszero\n      tag_167\n      jumpi\n        /* \"#utility.yul\":8513:8530   */\n      dup3\n      dup2\n      sstore\n        /* \"#utility.yul\":8494:8495   */\n      0x01\n        /* \"#utility.yul\":8483:8496   */\n      add\n        /* \"#utility.yul\":8450:8532   */\n      jump(tag_236)\n        /* \"#utility.yul\":8094:8542   */\n    tag_234:\n        /* \"#utility.yul\":8003:8548   */\n      pop\n      pop\n      pop\n      jump\t// out\n        /* \"#utility.yul\":8724:10076   */\n    tag_141:\n        /* \"#utility.yul\":8850:8853   */\n      dup2\n        /* \"#utility.yul\":8844:8854   */\n      mload\n        /* \"#utility.yul\":8877:8895   */\n      0xffffffffffffffff\n        /* \"#utility.yul\":8869:8875   */\n      dup2\n        /* \"#utility.yul\":8866:8896   */\n      gt\n        /* \"#utility.yul\":8863:8919   */\n      iszero\n      tag_242\n      jumpi\n        /* \"#utility.yul\":8899:8917   */\n      tag_242\n      tag_173\n      jump\t// in\n    tag_242:\n        /* \"#utility.yul\":8928:9025   */\n      tag_243\n        /* \"#utility.yul\":9018:9024   */\n      dup2\n        /* \"#utility.yul\":8978:9016   */\n      tag_244\n        /* \"#utility.yul\":9010:9014   */\n      dup5\n        /* \"#utility.yul\":9004:9015   */\n      sload\n        /* \"#utility.yul\":8978:9016   */\n      tag_122\n      jump\t// in\n    tag_244:\n        /* \"#utility.yul\":8972:8976   */\n      dup5\n        /* \"#utility.yul\":8928:9025   */\n      tag_175\n      jump\t// in\n    tag_243:\n        /* \"#utility.yul\":9080:9084   */\n      0x20\n      dup1\n        /* \"#utility.yul\":9144:9146   */\n      0x1f\n        /* \"#utility.yul\":9133:9147   */\n      dup4\n      gt\n        /* \"#utility.yul\":9161:9162   */\n      0x01\n        /* \"#utility.yul\":9156:9819   */\n      dup2\n      eq\n      tag_246\n      jumpi\n        /* \"#utility.yul\":9863:9864   */\n      0x00\n        /* \"#utility.yul\":9880:9886   */\n      dup5\n        /* \"#utility.yul\":9877:9966   */\n      iszero\n      tag_247\n      jumpi\n      pop\n        /* \"#utility.yul\":9932:9951   */\n      dup6\n      dup4\n      add\n        /* \"#utility.yul\":9926:9952   */\n      mload\n        /* \"#utility.yul\":9877:9966   */\n    tag_247:\n      not(0x00)\n        /* \"#utility.yul\":8681:8682   */\n      0x03\n        /* \"#utility.yul\":8677:8688   */\n      dup7\n      swap1\n      shl\n        /* \"#utility.yul\":8673:8697   */\n      shr\n        /* \"#utility.yul\":8669:8698   */\n      not\n        /* \"#utility.yul\":8659:8699   */\n      and\n        /* \"#utility.yul\":8705:8706   */\n      0x01\n        /* \"#utility.yul\":8701:8712   */\n      dup6\n      swap1\n      shl\n        /* \"#utility.yul\":8656:8713   */\n      or\n        /* \"#utility.yul\":9979:10060   */\n      dup6\n      sstore\n        /* \"#utility.yul\":9126:10070   */\n      jump(tag_167)\n        /* \"#utility.yul\":9156:9819   */\n    tag_246:\n        /* \"#utility.yul\":7950:7951   */\n      0x00\n        /* \"#utility.yul\":7943:7957   */\n      dup6\n      dup2\n      mstore\n        /* \"#utility.yul\":7987:7991   */\n      0x20\n        /* \"#utility.yul\":7974:7992   */\n      dup2\n      keccak256\n      not(0x1f)\n        /* \"#utility.yul\":9192:9212   */\n      dup7\n      and\n      swap2\n        /* \"#utility.yul\":9310:9546   */\n    tag_250:\n        /* \"#utility.yul\":9324:9331   */\n      dup3\n        /* \"#utility.yul\":9321:9322   */\n      dup2\n        /* \"#utility.yul\":9318:9332   */\n      lt\n        /* \"#utility.yul\":9310:9546   */\n      iszero\n      tag_252\n      jumpi\n        /* \"#utility.yul\":9413:9432   */\n      dup9\n      dup7\n      add\n        /* \"#utility.yul\":9407:9433   */\n      mload\n        /* \"#utility.yul\":9392:9434   */\n      dup3\n      sstore\n        /* \"#utility.yul\":9505:9532   */\n      swap5\n      dup5\n      add\n      swap5\n        /* \"#utility.yul\":9473:9474   */\n      0x01\n        /* \"#utility.yul\":9461:9475   */\n      swap1\n      swap2\n      add\n      swap1\n        /* \"#utility.yul\":9340:9359   */\n      dup5\n      add\n        /* \"#utility.yul\":9310:9546   */\n      jump(tag_250)\n    tag_252:\n        /* \"#utility.yul\":9314:9317   */\n      pop\n        /* \"#utility.yul\":9574:9580   */\n      dup6\n        /* \"#utility.yul\":9565:9572   */\n      dup3\n        /* \"#utility.yul\":9562:9581   */\n      lt\n        /* \"#utility.yul\":9559:9760   */\n      iszero\n      tag_253\n      jumpi\n        /* \"#utility.yul\":9635:9654   */\n      dup8\n      dup6\n      add\n        /* \"#utility.yul\":9629:9655   */\n      mload\n      not(0x00)\n        /* \"#utility.yul\":9718:9719   */\n      0x03\n        /* \"#utility.yul\":9714:9728   */\n      dup9\n      swap1\n      shl\n        /* \"#utility.yul\":9730:9733   */\n      0xf8\n        /* \"#utility.yul\":9710:9734   */\n      and\n        /* \"#utility.yul\":9706:9743   */\n      shr\n        /* \"#utility.yul\":9702:9744   */\n      not\n        /* \"#utility.yul\":9687:9745   */\n      and\n        /* \"#utility.yul\":9672:9746   */\n      dup2\n      sstore\n        /* \"#utility.yul\":9559:9760   */\n    tag_253:\n      pop\n      pop\n      pop\n      pop\n      pop\n        /* \"#utility.yul\":9806:9807   */\n      0x01\n        /* \"#utility.yul\":9790:9804   */\n      swap1\n      dup2\n      shl\n        /* \"#utility.yul\":9786:9808   */\n      add\n        /* \"#utility.yul\":9773:9809   */\n      swap1\n      sstore\n      pop\n        /* \"#utility.yul\":8724:10076   */\n      jump\t// out\n\n    auxdata: 0xa264697066735822122000f2c395d0359ca2231231d84fe524d1616ddb931c51c9fbcf42b478ef67614764736f6c63430008110033\n}\n",
				"bytecode": {
					"linkReferences": {},
					"object": "60c060405234801561001057600080fd5b5060405161124b38038061124b83398101604081905261002f91610044565b336080526001600160a01b031660a052610074565b60006020828403121561005657600080fd5b81516001600160a01b038116811461006d57600080fd5b9392505050565b60805160a0516111516100fa6000396000818160a5015281816102bd0152818161039901528181610457015281816105850152818161064401528181610706015281816109d401528181610ab40152610bed01526000818161012d015281816101ee01528181610334015281816105200152818161080d0152610a4f01526111516000f3fe608060405234801561001057600080fd5b506004361061009e5760003560e01c806390159c941161006657806390159c9414610151578063a8158ea81461018d578063b57bd629146101af578063d200abf4146101c2578063f66122e6146101d557600080fd5b80634290ba90146100a35780634a607444146100e25780635d33967c146101035780637795bb9d146101185780638da5cb5b1461012b575b600080fd5b7f00000000000000000000000000000000000000000000000000000000000000005b6040516001600160a01b0390911681526020015b60405180910390f35b6100f56100f0366004610d4f565b6101ea565b6040519081526020016100d9565b610116610111366004610d8b565b610332565b005b610116610126366004610d8b565b61051e565b7f00000000000000000000000000000000000000000000000000000000000000006100c5565b61017d61015f366004610d8b565b6001600160a01b031660009081526001602052604090205460ff1690565b60405190151581526020016100d9565b6101a061019b366004610d8b565b61073d565b6040516100d993929190610dad565b6100f56101bd366004610e22565b610809565b6101166101d0366004610efe565b610a4d565b6101dd610cc0565b6040516100d99190610f31565b60007f00000000000000000000000000000000000000000000000000000000000000006001600160a01b0316331461023d5760405162461bcd60e51b815260040161023490610f7e565b60405180910390fd5b6001600160a01b03841660009081526001602052604090205460ff1661028e5760405162461bcd60e51b81526004016102349060208082526004908201526321a4a72960e11b604082015260600190565b604051636091486960e11b81526001600160a01b03858116600483015260ff84166024830152604482018590527f0000000000000000000000000000000000000000000000000000000000000000169063c12290d2906064016020604051808303816000875af1158015610306573d6000803e3d6000fd5b505050506040513d601f19601f8201168201806040525081019061032a9190610f9b565b949350505050565b7f00000000000000000000000000000000000000000000000000000000000000006001600160a01b0316331461037a5760405162461bcd60e51b815260040161023490610f7e565b6040516339f920ab60e01b81526001600160a01b0382811660048301527f000000000000000000000000000000000000000000000000000000000000000016906339f920ab90602401602060405180830381865afa1580156103e0573d6000803e3d6000fd5b505050506040513d601f19601f820116820180604052508101906104049190610fb4565b6104385760405162461bcd60e51b8152602060048201526005602482015264139054d09560da1b6044820152606401610234565b604051634814f03560e01b81526001600160a01b0382811660048301527f0000000000000000000000000000000000000000000000000000000000000000169063916b9bef908290634814f035906024015b602060405180830381865afa1580156104a7573d6000803e3d6000fd5b505050506040513d601f19601f820116820180604052508101906104cb9190610f9b565b6040518263ffffffff1660e01b81526004016104e991815260200190565b600060405180830381600087803b15801561050357600080fd5b505af1158015610517573d6000803e3d6000fd5b5050505050565b7f00000000000000000000000000000000000000000000000000000000000000006001600160a01b031633146105665760405162461bcd60e51b815260040161023490610f7e565b6040516339f920ab60e01b81526001600160a01b0382811660048301527f000000000000000000000000000000000000000000000000000000000000000016906339f920ab90602401602060405180830381865afa1580156105cc573d6000803e3d6000fd5b505050506040513d601f19601f820116820180604052508101906105f09190610fb4565b156106255760405162461bcd60e51b8152602060048201526005602482015264125054d09560da1b6044820152606401610234565b604051634814f03560e01b81526001600160a01b0382811660048301527f00000000000000000000000000000000000000000000000000000000000000001690634814f03590602401602060405180830381865afa15801561068b573d6000803e3d6000fd5b505050506040513d601f19601f820116820180604052508101906106af9190610f9b565b6000036106e75760405162461bcd60e51b8152600401610234906020808252600490820152631394d09560e21b604082015260600190565b604051634814f03560e01b81526001600160a01b0382811660048301527f0000000000000000000000000000000000000000000000000000000000000000169063b260c42a908290634814f0359060240161048a565b6001600160a01b03811660009081526002602081905260408220600181015491810154815460609493849392909160ff90911690839061077c90610fd6565b80601f01602080910402602001604051908101604052809291908181526020018280546107a890610fd6565b80156107f55780601f106107ca576101008083540402835291602001916107f5565b820191906000526020600020905b8154815290600101906020018083116107d857829003601f168201915b505050505092509250925092509193909250565b60007f00000000000000000000000000000000000000000000000000000000000000006001600160a01b031633146108535760405162461bcd60e51b815260040161023490610f7e565b8160018160ff161015801561086c575060038160ff1611155b61089d5760405162461bcd60e51b8152602060048201526002602482015261125560f21b6044820152606401610234565b6001600160a01b03861660009081526001602052604090205460ff16156108ef5760405162461bcd60e51b81526004016102349060208082526004908201526321a4a0a960e11b604082015260600190565b60008054600180820183557f290decd9548b62a8d60345a988386fc84ba6bc95484008f6362f93160ef3e56390910180546001600160a01b0319166001600160a01b038a1690811790915580835260208281526040808520805460ff1916909417909355825160608101845289815280820189905260ff88168185015291845260029052912081518190610983908261105b565b50602082015160018201556040918201516002909101805460ff191660ff9283161790559051636091486960e11b81526001600160a01b0388811660048301529185166024820152604481018690527f00000000000000000000000000000000000000000000000000000000000000009091169063c12290d2906064016020604051808303816000875af1158015610a1f573d6000803e3d6000fd5b505050506040513d601f19601f82011682018060405250810190610a439190610f9b565b9695505050505050565b7f00000000000000000000000000000000000000000000000000000000000000006001600160a01b03163314610a955760405162461bcd60e51b815260040161023490610f7e565b6040516339f920ab60e01b81526001600160a01b0383811660048301527f000000000000000000000000000000000000000000000000000000000000000016906339f920ab90602401602060405180830381865afa158015610afb573d6000803e3d6000fd5b505050506040513d601f19601f82011682018060405250810190610b1f9190610fb4565b610b535760405162461bcd60e51b8152602060048201526005602482015264139054d09560da1b6044820152606401610234565b6001600160a01b0382166000908152600260208190526040909120015460ff90811690821603610bad5760405162461bcd60e51b8152602060048201526005602482015264105510d4d560da1b6044820152606401610234565b6001600160a01b0382811660008181526002602081905260409182902001805460ff191660ff861617905551634814f03560e01b815260048101919091527f0000000000000000000000000000000000000000000000000000000000000000909116906337b05d8d908290634814f03590602401602060405180830381865afa158015610c3e573d6000803e3d6000fd5b505050506040513d601f19601f82011682018060405250810190610c629190610f9b565b6040516001600160e01b031960e084901b168152600481019190915260ff84166024820152604401600060405180830381600087803b158015610ca457600080fd5b505af1158015610cb8573d6000803e3d6000fd5b505050505050565b60606000805480602002602001604051908101604052809291908181526020018280548015610d1857602002820191906000526020600020905b81546001600160a01b03168152600190910190602001808311610cfa575b5050505050905090565b80356001600160a01b0381168114610d3957600080fd5b919050565b803560ff81168114610d3957600080fd5b600080600060608486031215610d6457600080fd5b610d6d84610d22565b925060208401359150610d8260408501610d3e565b90509250925092565b600060208284031215610d9d57600080fd5b610da682610d22565b9392505050565b606081526000845180606084015260005b81811015610ddb5760208188018101516080868401015201610dbe565b506000608082850101526080601f19601f83011684010191505083602083015260ff83166040830152949350505050565b634e487b7160e01b600052604160045260246000fd5b60008060008060808587031215610e3857600080fd5b610e4185610d22565b9350602085013567ffffffffffffffff80821115610e5e57600080fd5b818701915087601f830112610e7257600080fd5b813581811115610e8457610e84610e0c565b604051601f8201601f19908116603f01168101908382118183101715610eac57610eac610e0c565b816040528281528a6020848701011115610ec557600080fd5b82602086016020830137600060208483010152809750505050505060408501359150610ef360608601610d3e565b905092959194509250565b60008060408385031215610f1157600080fd5b610f1a83610d22565b9150610f2860208401610d3e565b90509250929050565b6020808252825182820181905260009190848201906040850190845b81811015610f725783516001600160a01b031683529284019291840191600101610f4d565b50909695505050505050565b6020808252600390820152624e544f60e81b604082015260600190565b600060208284031215610fad57600080fd5b5051919050565b600060208284031215610fc657600080fd5b81518015158114610da657600080fd5b600181811c90821680610fea57607f821691505b60208210810361100a57634e487b7160e01b600052602260045260246000fd5b50919050565b601f82111561105657600081815260208120601f850160051c810160208610156110375750805b601f850160051c820191505b81811015610cb857828155600101611043565b505050565b815167ffffffffffffffff81111561107557611075610e0c565b611089816110838454610fd6565b84611010565b602080601f8311600181146110be57600084156110a65750858301515b600019600386901b1c1916600185901b178555610cb8565b600085815260208120601f198616915b828110156110ed578886015182559484019460019091019084016110ce565b508582101561110b5787850151600019600388901b60f8161c191681555b5050505050600190811b0190555056fea264697066735822122000f2c395d0359ca2231231d84fe524d1616ddb931c51c9fbcf42b478ef67614764736f6c63430008110033",
					"opcodes": "PUSH1 0xC0 PUSH1 0x40 MSTORE CALLVALUE DUP1 ISZERO PUSH2 0x10 JUMPI PUSH1 0x0 DUP1 REVERT JUMPDEST POP PUSH1 0x40 MLOAD PUSH2 0x124B CODESIZE SUB DUP1 PUSH2 0x124B DUP4 CODECOPY DUP2 ADD PUSH1 0x40 DUP2 SWAP1 MSTORE PUSH2 0x2F SWAP2 PUSH2 0x44 JUMP JUMPDEST CALLER PUSH1 0x80 MSTORE PUSH1 0x1 PUSH1 0x1 PUSH1 0xA0 SHL SUB AND PUSH1 0xA0 MSTORE PUSH2 0x74 JUMP JUMPDEST PUSH1 0x0 PUSH1 0x20 DUP3 DUP5 SUB SLT ISZERO PUSH2 0x56 JUMPI PUSH1 0x0 DUP1 REVERT JUMPDEST DUP2 MLOAD PUSH1 0x1 PUSH1 0x1 PUSH1 0xA0 SHL SUB DUP2 AND DUP2 EQ PUSH2 0x6D JUMPI PUSH1 0x0 DUP1 REVERT JUMPDEST SWAP4 SWAP3 POP POP POP JUMP JUMPDEST PUSH1 0x80 MLOAD PUSH1 0xA0 MLOAD PUSH2 0x1151 PUSH2 0xFA PUSH1 0x0 CODECOPY PUSH1 0x0 DUP2 DUP2 PUSH1 0xA5 ADD MSTORE DUP2 DUP2 PUSH2 0x2BD ADD MSTORE DUP2 DUP2 PUSH2 0x399 ADD MSTORE DUP2 DUP2 PUSH2 0x457 ADD MSTORE DUP2 DUP2 PUSH2 0x585 ADD MSTORE DUP2 DUP2 PUSH2 0x644 ADD MSTORE DUP2 DUP2 PUSH2 0x706 ADD MSTORE DUP2 DUP2 PUSH2 0x9D4 ADD MSTORE DUP2 DUP2 PUSH2 0xAB4 ADD MSTORE PUSH2 0xBED ADD MSTORE PUSH1 0x0 DUP2 DUP2 PUSH2 0x12D ADD MSTORE DUP2 DUP2 PUSH2 0x1EE ADD MSTORE DUP2 DUP2 PUSH2 0x334 ADD MSTORE DUP2 DUP2 PUSH2 0x520 ADD MSTORE DUP2 DUP2 PUSH2 0x80D ADD MSTORE PUSH2 0xA4F ADD MSTORE PUSH2 0x1151 PUSH1 0x0 RETURN INVALID PUSH1 0x80 PUSH1 0x40 MSTORE CALLVALUE DUP1 ISZERO PUSH2 0x10 JUMPI PUSH1 0x0 DUP1 REVERT JUMPDEST POP PUSH1 0x4 CALLDATASIZE LT PUSH2 0x9E JUMPI PUSH1 0x0 CALLDATALOAD PUSH1 0xE0 SHR DUP1 PUSH4 0x90159C94 GT PUSH2 0x66 JUMPI DUP1 PUSH4 0x90159C94 EQ PUSH2 0x151 JUMPI DUP1 PUSH4 0xA8158EA8 EQ PUSH2 0x18D JUMPI DUP1 PUSH4 0xB57BD629 EQ PUSH2 0x1AF JUMPI DUP1 PUSH4 0xD200ABF4 EQ PUSH2 0x1C2 JUMPI DUP1 PUSH4 0xF66122E6 EQ PUSH2 0x1D5 JUMPI PUSH1 0x0 DUP1 REVERT JUMPDEST DUP1 PUSH4 0x4290BA90 EQ PUSH2 0xA3 JUMPI DUP1 PUSH4 0x4A607444 EQ PUSH2 0xE2 JUMPI DUP1 PUSH4 0x5D33967C EQ PUSH2 0x103 JUMPI DUP1 PUSH4 0x7795BB9D EQ PUSH2 0x118 JUMPI DUP1 PUSH4 0x8DA5CB5B EQ PUSH2 0x12B JUMPI JUMPDEST PUSH1 0x0 DUP1 REVERT JUMPDEST PUSH32 0x0 JUMPDEST PUSH1 0x40 MLOAD PUSH1 0x1 PUSH1 0x1 PUSH1 0xA0 SHL SUB SWAP1 SWAP2 AND DUP2 MSTORE PUSH1 0x20 ADD JUMPDEST PUSH1 0x40 MLOAD DUP1 SWAP2 SUB SWAP1 RETURN JUMPDEST PUSH2 0xF5 PUSH2 0xF0 CALLDATASIZE PUSH1 0x4 PUSH2 0xD4F JUMP JUMPDEST PUSH2 0x1EA JUMP JUMPDEST PUSH1 0x40 MLOAD SWAP1 DUP2 MSTORE PUSH1 0x20 ADD PUSH2 0xD9 JUMP JUMPDEST PUSH2 0x116 PUSH2 0x111 CALLDATASIZE PUSH1 0x4 PUSH2 0xD8B JUMP JUMPDEST PUSH2 0x332 JUMP JUMPDEST STOP JUMPDEST PUSH2 0x116 PUSH2 0x126 CALLDATASIZE PUSH1 0x4 PUSH2 0xD8B JUMP JUMPDEST PUSH2 0x51E JUMP JUMPDEST PUSH32 0x0 PUSH2 0xC5 JUMP JUMPDEST PUSH2 0x17D PUSH2 0x15F CALLDATASIZE PUSH1 0x4 PUSH2 0xD8B JUMP JUMPDEST PUSH1 0x1 PUSH1 0x1 PUSH1 0xA0 SHL SUB AND PUSH1 0x0 SWAP1 DUP2 MSTORE PUSH1 0x1 PUSH1 0x20 MSTORE PUSH1 0x40 SWAP1 KECCAK256 SLOAD PUSH1 0xFF AND SWAP1 JUMP JUMPDEST PUSH1 0x40 MLOAD SWAP1 ISZERO ISZERO DUP2 MSTORE PUSH1 0x20 ADD PUSH2 0xD9 JUMP JUMPDEST PUSH2 0x1A0 PUSH2 0x19B CALLDATASIZE PUSH1 0x4 PUSH2 0xD8B JUMP JUMPDEST PUSH2 0x73D JUMP JUMPDEST PUSH1 0x40 MLOAD PUSH2 0xD9 SWAP4 SWAP3 SWAP2 SWAP1 PUSH2 0xDAD JUMP JUMPDEST PUSH2 0xF5 PUSH2 0x1BD CALLDATASIZE PUSH1 0x4 PUSH2 0xE22 JUMP JUMPDEST PUSH2 0x809 JUMP JUMPDEST PUSH2 0x116 PUSH2 0x1D0 CALLDATASIZE PUSH1 0x4 PUSH2 0xEFE JUMP JUMPDEST PUSH2 0xA4D JUMP JUMPDEST PUSH2 0x1DD PUSH2 0xCC0 JUMP JUMPDEST PUSH1 0x40 MLOAD PUSH2 0xD9 SWAP2 SWAP1 PUSH2 0xF31 JUMP JUMPDEST PUSH1 0x0 PUSH32 0x0 PUSH1 0x1 PUSH1 0x1 PUSH1 0xA0 SHL SUB AND CALLER EQ PUSH2 0x23D JUMPI PUSH1 0x40 MLOAD PUSH3 0x461BCD PUSH1 0xE5 SHL DUP2 MSTORE PUSH1 0x4 ADD PUSH2 0x234 SWAP1 PUSH2 0xF7E JUMP JUMPDEST PUSH1 0x40 MLOAD DUP1 SWAP2 SUB SWAP1 REVERT JUMPDEST PUSH1 0x1 PUSH1 0x1 PUSH1 0xA0 SHL SUB DUP5 AND PUSH1 0x0 SWAP1 DUP2 MSTORE PUSH1 0x1 PUSH1 0x20 MSTORE PUSH1 0x40 SWAP1 KECCAK256 SLOAD PUSH1 0xFF AND PUSH2 0x28E JUMPI PUSH1 0x40 MLOAD PUSH3 0x461BCD PUSH1 0xE5 SHL DUP2 MSTORE PUSH1 0x4 ADD PUSH2 0x234 SWAP1 PUSH1 0x20 DUP1 DUP3 MSTORE PUSH1 0x4 SWAP1 DUP3 ADD MSTORE PUSH4 0x21A4A729 PUSH1 0xE1 SHL PUSH1 0x40 DUP3 ADD MSTORE PUSH1 0x60 ADD SWAP1 JUMP JUMPDEST PUSH1 0x40 MLOAD PUSH4 0x60914869 PUSH1 0xE1 SHL DUP2 MSTORE PUSH1 0x1 PUSH1 0x1 PUSH1 0xA0 SHL SUB DUP6 DUP2 AND PUSH1 0x4 DUP4 ADD MSTORE PUSH1 0xFF DUP5 AND PUSH1 0x24 DUP4 ADD MSTORE PUSH1 0x44 DUP3 ADD DUP6 SWAP1 MSTORE PUSH32 0x0 AND SWAP1 PUSH4 0xC12290D2 SWAP1 PUSH1 0x64 ADD PUSH1 0x20 PUSH1 0x40 MLOAD DUP1 DUP4 SUB DUP2 PUSH1 0x0 DUP8 GAS CALL ISZERO DUP1 ISZERO PUSH2 0x306 JUMPI RETURNDATASIZE PUSH1 0x0 DUP1 RETURNDATACOPY RETURNDATASIZE PUSH1 0x0 REVERT JUMPDEST POP POP POP POP PUSH1 0x40 MLOAD RETURNDATASIZE PUSH1 0x1F NOT PUSH1 0x1F DUP3 ADD AND DUP3 ADD DUP1 PUSH1 0x40 MSTORE POP DUP2 ADD SWAP1 PUSH2 0x32A SWAP2 SWAP1 PUSH2 0xF9B JUMP JUMPDEST SWAP5 SWAP4 POP POP POP POP JUMP JUMPDEST PUSH32 0x0 PUSH1 0x1 PUSH1 0x1 PUSH1 0xA0 SHL SUB AND CALLER EQ PUSH2 0x37A JUMPI PUSH1 0x40 MLOAD PUSH3 0x461BCD PUSH1 0xE5 SHL DUP2 MSTORE PUSH1 0x4 ADD PUSH2 0x234 SWAP1 PUSH2 0xF7E JUMP JUMPDEST PUSH1 0x40 MLOAD PUSH4 0x39F920AB PUSH1 0xE0 SHL DUP2 MSTORE PUSH1 0x1 PUSH1 0x1 PUSH1 0xA0 SHL SUB DUP3 DUP2 AND PUSH1 0x4 DUP4 ADD MSTORE PUSH32 0x0 AND SWAP1 PUSH4 0x39F920AB SWAP1 PUSH1 0x24 ADD PUSH1 0x20 PUSH1 0x40 MLOAD DUP1 DUP4 SUB DUP2 DUP7 GAS STATICCALL ISZERO DUP1 ISZERO PUSH2 0x3E0 JUMPI RETURNDATASIZE PUSH1 0x0 DUP1 RETURNDATACOPY RETURNDATASIZE PUSH1 0x0 REVERT JUMPDEST POP POP POP POP PUSH1 0x40 MLOAD RETURNDATASIZE PUSH1 0x1F NOT PUSH1 0x1F DUP3 ADD AND DUP3 ADD DUP1 PUSH1 0x40 MSTORE POP DUP2 ADD SWAP1 PUSH2 0x404 SWAP2 SWAP1 PUSH2 0xFB4 JUMP JUMPDEST PUSH2 0x438 JUMPI PUSH1 0x40 MLOAD PUSH3 0x461BCD PUSH1 0xE5 SHL DUP2 MSTORE PUSH1 0x20 PUSH1 0x4 DUP3 ADD MSTORE PUSH1 0x5 PUSH1 0x24 DUP3 ADD MSTORE PUSH5 0x139054D095 PUSH1 0xDA SHL PUSH1 0x44 DUP3 ADD MSTORE PUSH1 0x64 ADD PUSH2 0x234 JUMP JUMPDEST PUSH1 0x40 MLOAD PUSH4 0x4814F035 PUSH1 0xE0 SHL DUP2 MSTORE PUSH1 0x1 PUSH1 0x1 PUSH1 0xA0 SHL SUB DUP3 DUP2 AND PUSH1 0x4 DUP4 ADD MSTORE PUSH32 0x0 AND SWAP1 PUSH4 0x916B9BEF SWAP1 DUP3 SWAP1 PUSH4 0x4814F035 SWAP1 PUSH1 0x24 ADD JUMPDEST PUSH1 0x20 PUSH1 0x40 MLOAD DUP1 DUP4 SUB DUP2 DUP7 GAS STATICCALL ISZERO DUP1 ISZERO PUSH2 0x4A7 JUMPI RETURNDATASIZE PUSH1 0x0 DUP1 RETURNDATACOPY RETURNDATASIZE PUSH1 0x0 REVERT JUMPDEST POP POP POP POP PUSH1 0x40 MLOAD RETURNDATASIZE PUSH1 0x1F NOT PUSH1 0x1F DUP3 ADD AND DUP3 ADD DUP1 PUSH1 0x40 MSTORE POP DUP2 ADD SWAP1 PUSH2 0x4CB SWAP2 SWAP1 PUSH2 0xF9B JUMP JUMPDEST PUSH1 0x40 MLOAD DUP3 PUSH4 0xFFFFFFFF AND PUSH1 0xE0 SHL DUP2 MSTORE PUSH1 0x4 ADD PUSH2 0x4E9 SWAP2 DUP2 MSTORE PUSH1 0x20 ADD SWAP1 JUMP JUMPDEST PUSH1 0x0 PUSH1 0x40 MLOAD DUP1 DUP4 SUB DUP2 PUSH1 0x0 DUP8 DUP1 EXTCODESIZE ISZERO DUP1 ISZERO PUSH2 0x503 JUMPI PUSH1 0x0 DUP1 REVERT JUMPDEST POP GAS CALL ISZERO DUP1 ISZERO PUSH2 0x517 JUMPI RETURNDATASIZE PUSH1 0x0 DUP1 RETURNDATACOPY RETURNDATASIZE PUSH1 0x0 REVERT JUMPDEST POP POP POP POP POP JUMP JUMPDEST PUSH32 0x0 PUSH1 0x1 PUSH1 0x1 PUSH1 0xA0 SHL SUB AND CALLER EQ PUSH2 0x566 JUMPI PUSH1 0x40 MLOAD PUSH3 0x461BCD PUSH1 0xE5 SHL DUP2 MSTORE PUSH1 0x4 ADD PUSH2 0x234 SWAP1 PUSH2 0xF7E JUMP JUMPDEST PUSH1 0x40 MLOAD PUSH4 0x39F920AB PUSH1 0xE0 SHL DUP2 MSTORE PUSH1 0x1 PUSH1 0x1 PUSH1 0xA0 SHL SUB DUP3 DUP2 AND PUSH1 0x4 DUP4 ADD MSTORE PUSH32 0x0 AND SWAP1 PUSH4 0x39F920AB SWAP1 PUSH1 0x24 ADD PUSH1 0x20 PUSH1 0x40 MLOAD DUP1 DUP4 SUB DUP2 DUP7 GAS STATICCALL ISZERO DUP1 ISZERO PUSH2 0x5CC JUMPI RETURNDATASIZE PUSH1 0x0 DUP1 RETURNDATACOPY RETURNDATASIZE PUSH1 0x0 REVERT JUMPDEST POP POP POP POP PUSH1 0x40 MLOAD RETURNDATASIZE PUSH1 0x1F NOT PUSH1 0x1F DUP3 ADD AND DUP3 ADD DUP1 PUSH1 0x40 MSTORE POP DUP2 ADD SWAP1 PUSH2 0x5F0 SWAP2 SWAP1 PUSH2 0xFB4 JUMP JUMPDEST ISZERO PUSH2 0x625 JUMPI PUSH1 0x40 MLOAD PUSH3 0x461BCD PUSH1 0xE5 SHL DUP2 MSTORE PUSH1 0x20 PUSH1 0x4 DUP3 ADD MSTORE PUSH1 0x5 PUSH1 0x24 DUP3 ADD MSTORE PUSH5 0x125054D095 PUSH1 0xDA SHL PUSH1 0x44 DUP3 ADD MSTORE PUSH1 0x64 ADD PUSH2 0x234 JUMP JUMPDEST PUSH1 0x40 MLOAD PUSH4 0x4814F035 PUSH1 0xE0 SHL DUP2 MSTORE PUSH1 0x1 PUSH1 0x1 PUSH1 0xA0 SHL SUB DUP3 DUP2 AND PUSH1 0x4 DUP4 ADD MSTORE PUSH32 0x0 AND SWAP1 PUSH4 0x4814F035 SWAP1 PUSH1 0x24 ADD PUSH1 0x20 PUSH1 0x40 MLOAD DUP1 DUP4 SUB DUP2 DUP7 GAS STATICCALL ISZERO DUP1 ISZERO PUSH2 0x68B JUMPI RETURNDATASIZE PUSH1 0x0 DUP1 RETURNDATACOPY RETURNDATASIZE PUSH1 0x0 REVERT JUMPDEST POP POP POP POP PUSH1 0x40 MLOAD RETURNDATASIZE PUSH1 0x1F NOT PUSH1 0x1F DUP3 ADD AND DUP3 ADD DUP1 PUSH1 0x40 MSTORE POP DUP2 ADD SWAP1 PUSH2 0x6AF SWAP2 SWAP1 PUSH2 0xF9B JUMP JUMPDEST PUSH1 0x0 SUB PUSH2 0x6E7 JUMPI PUSH1 0x40 MLOAD PUSH3 0x461BCD PUSH1 0xE5 SHL DUP2 MSTORE PUSH1 0x4 ADD PUSH2 0x234 SWAP1 PUSH1 0x20 DUP1 DUP3 MSTORE PUSH1 0x4 SWAP1 DUP3 ADD MSTORE PUSH4 0x1394D095 PUSH1 0xE2 SHL PUSH1 0x40 DUP3 ADD MSTORE PUSH1 0x60 ADD SWAP1 JUMP JUMPDEST PUSH1 0x40 MLOAD PUSH4 0x4814F035 PUSH1 0xE0 SHL DUP2 MSTORE PUSH1 0x1 PUSH1 0x1 PUSH1 0xA0 SHL SUB DUP3 DUP2 AND PUSH1 0x4 DUP4 ADD MSTORE PUSH32 0x0 AND SWAP1 PUSH4 0xB260C42A SWAP1 DUP3 SWAP1 PUSH4 0x4814F035 SWAP1 PUSH1 0x24 ADD PUSH2 0x48A JUMP JUMPDEST PUSH1 0x1 PUSH1 0x1 PUSH1 0xA0 SHL SUB DUP2 AND PUSH1 0x0 SWAP1 DUP2 MSTORE PUSH1 0x2 PUSH1 0x20 DUP2 SWAP1 MSTORE PUSH1 0x40 DUP3 KECCAK256 PUSH1 0x1 DUP2 ADD SLOAD SWAP2 DUP2 ADD SLOAD DUP2 SLOAD PUSH1 0x60 SWAP5 SWAP4 DUP5 SWAP4 SWAP3 SWAP1 SWAP2 PUSH1 0xFF SWAP1 SWAP2 AND SWAP1 DUP4 SWAP1 PUSH2 0x77C SWAP1 PUSH2 0xFD6 JUMP JUMPDEST DUP1 PUSH1 0x1F ADD PUSH1 0x20 DUP1 SWAP2 DIV MUL PUSH1 0x20 ADD PUSH1 0x40 MLOAD SWAP1 DUP2 ADD PUSH1 0x40 MSTORE DUP1 SWAP3 SWAP2 SWAP1 DUP2 DUP2 MSTORE PUSH1 0x20 ADD DUP3 DUP1 SLOAD PUSH2 0x7A8 SWAP1 PUSH2 0xFD6 JUMP JUMPDEST DUP1 ISZERO PUSH2 0x7F5 JUMPI DUP1 PUSH1 0x1F LT PUSH2 0x7CA JUMPI PUSH2 0x100 DUP1 DUP4 SLOAD DIV MUL DUP4 MSTORE SWAP2 PUSH1 0x20 ADD SWAP2 PUSH2 0x7F5 JUMP JUMPDEST DUP3 ADD SWAP2 SWAP1 PUSH1 0x0 MSTORE PUSH1 0x20 PUSH1 0x0 KECCAK256 SWAP1 JUMPDEST DUP2 SLOAD DUP2 MSTORE SWAP1 PUSH1 0x1 ADD SWAP1 PUSH1 0x20 ADD DUP1 DUP4 GT PUSH2 0x7D8 JUMPI DUP3 SWAP1 SUB PUSH1 0x1F AND DUP3 ADD SWAP2 JUMPDEST POP POP POP POP POP SWAP3 POP SWAP3 POP SWAP3 POP SWAP3 POP SWAP2 SWAP4 SWAP1 SWAP3 POP JUMP JUMPDEST PUSH1 0x0 PUSH32 0x0 PUSH1 0x1 PUSH1 0x1 PUSH1 0xA0 SHL SUB AND CALLER EQ PUSH2 0x853 JUMPI PUSH1 0x40 MLOAD PUSH3 0x461BCD PUSH1 0xE5 SHL DUP2 MSTORE PUSH1 0x4 ADD PUSH2 0x234 SWAP1 PUSH2 0xF7E JUMP JUMPDEST DUP2 PUSH1 0x1 DUP2 PUSH1 0xFF AND LT ISZERO DUP1 ISZERO PUSH2 0x86C JUMPI POP PUSH1 0x3 DUP2 PUSH1 0xFF AND GT ISZERO JUMPDEST PUSH2 0x89D JUMPI PUSH1 0x40 MLOAD PUSH3 0x461BCD PUSH1 0xE5 SHL DUP2 MSTORE PUSH1 0x20 PUSH1 0x4 DUP3 ADD MSTORE PUSH1 0x2 PUSH1 0x24 DUP3 ADD MSTORE PUSH2 0x1255 PUSH1 0xF2 SHL PUSH1 0x44 DUP3 ADD MSTORE PUSH1 0x64 ADD PUSH2 0x234 JUMP JUMPDEST PUSH1 0x1 PUSH1 0x1 PUSH1 0xA0 SHL SUB DUP7 AND PUSH1 0x0 SWAP1 DUP2 MSTORE PUSH1 0x1 PUSH1 0x20 MSTORE PUSH1 0x40 SWAP1 KECCAK256 SLOAD PUSH1 0xFF AND ISZERO PUSH2 0x8EF JUMPI PUSH1 0x40 MLOAD PUSH3 0x461BCD PUSH1 0xE5 SHL DUP2 MSTORE PUSH1 0x4 ADD PUSH2 0x234 SWAP1 PUSH1 0x20 DUP1 DUP3 MSTORE PUSH1 0x4 SWAP1 DUP3 ADD MSTORE PUSH4 0x21A4A0A9 PUSH1 0xE1 SHL PUSH1 0x40 DUP3 ADD MSTORE PUSH1 0x60 ADD SWAP1 JUMP JUMPDEST PUSH1 0x0 DUP1 SLOAD PUSH1 0x1 DUP1 DUP3 ADD DUP4 SSTORE PUSH32 0x290DECD9548B62A8D60345A988386FC84BA6BC95484008F6362F93160EF3E563 SWAP1 SWAP2 ADD DUP1 SLOAD PUSH1 0x1 PUSH1 0x1 PUSH1 0xA0 SHL SUB NOT AND PUSH1 0x1 PUSH1 0x1 PUSH1 0xA0 SHL SUB DUP11 AND SWAP1 DUP2 OR SWAP1 SWAP2 SSTORE DUP1 DUP4 MSTORE PUSH1 0x20 DUP3 DUP2 MSTORE PUSH1 0x40 DUP1 DUP6 KECCAK256 DUP1 SLOAD PUSH1 0xFF NOT AND SWAP1 SWAP5 OR SWAP1 SWAP4 SSTORE DUP3 MLOAD PUSH1 0x60 DUP2 ADD DUP5 MSTORE DUP10 DUP2 MSTORE DUP1 DUP3 ADD DUP10 SWAP1 MSTORE PUSH1 0xFF DUP9 AND DUP2 DUP6 ADD MSTORE SWAP2 DUP5 MSTORE PUSH1 0x2 SWAP1 MSTORE SWAP2 KECCAK256 DUP2 MLOAD DUP2 SWAP1 PUSH2 0x983 SWAP1 DUP3 PUSH2 0x105B JUMP JUMPDEST POP PUSH1 0x20 DUP3 ADD MLOAD PUSH1 0x1 DUP3 ADD SSTORE PUSH1 0x40 SWAP2 DUP3 ADD MLOAD PUSH1 0x2 SWAP1 SWAP2 ADD DUP1 SLOAD PUSH1 0xFF NOT AND PUSH1 0xFF SWAP3 DUP4 AND OR SWAP1 SSTORE SWAP1 MLOAD PUSH4 0x60914869 PUSH1 0xE1 SHL DUP2 MSTORE PUSH1 0x1 PUSH1 0x1 PUSH1 0xA0 SHL SUB DUP9 DUP2 AND PUSH1 0x4 DUP4 ADD MSTORE SWAP2 DUP6 AND PUSH1 0x24 DUP3 ADD MSTORE PUSH1 0x44 DUP2 ADD DUP7 SWAP1 MSTORE PUSH32 0x0 SWAP1 SWAP2 AND SWAP1 PUSH4 0xC12290D2 SWAP1 PUSH1 0x64 ADD PUSH1 0x20 PUSH1 0x40 MLOAD DUP1 DUP4 SUB DUP2 PUSH1 0x0 DUP8 GAS CALL ISZERO DUP1 ISZERO PUSH2 0xA1F JUMPI RETURNDATASIZE PUSH1 0x0 DUP1 RETURNDATACOPY RETURNDATASIZE PUSH1 0x0 REVERT JUMPDEST POP POP POP POP PUSH1 0x40 MLOAD RETURNDATASIZE PUSH1 0x1F NOT PUSH1 0x1F DUP3 ADD AND DUP3 ADD DUP1 PUSH1 0x40 MSTORE POP DUP2 ADD SWAP1 PUSH2 0xA43 SWAP2 SWAP1 PUSH2 0xF9B JUMP JUMPDEST SWAP7 SWAP6 POP POP POP POP POP POP JUMP JUMPDEST PUSH32 0x0 PUSH1 0x1 PUSH1 0x1 PUSH1 0xA0 SHL SUB AND CALLER EQ PUSH2 0xA95 JUMPI PUSH1 0x40 MLOAD PUSH3 0x461BCD PUSH1 0xE5 SHL DUP2 MSTORE PUSH1 0x4 ADD PUSH2 0x234 SWAP1 PUSH2 0xF7E JUMP JUMPDEST PUSH1 0x40 MLOAD PUSH4 0x39F920AB PUSH1 0xE0 SHL DUP2 MSTORE PUSH1 0x1 PUSH1 0x1 PUSH1 0xA0 SHL SUB DUP4 DUP2 AND PUSH1 0x4 DUP4 ADD MSTORE PUSH32 0x0 AND SWAP1 PUSH4 0x39F920AB SWAP1 PUSH1 0x24 ADD PUSH1 0x20 PUSH1 0x40 MLOAD DUP1 DUP4 SUB DUP2 DUP7 GAS STATICCALL ISZERO DUP1 ISZERO PUSH2 0xAFB JUMPI RETURNDATASIZE PUSH1 0x0 DUP1 RETURNDATACOPY RETURNDATASIZE PUSH1 0x0 REVERT JUMPDEST POP POP POP POP PUSH1 0x40 MLOAD RETURNDATASIZE PUSH1 0x1F NOT PUSH1 0x1F DUP3 ADD AND DUP3 ADD DUP1 PUSH1 0x40 MSTORE POP DUP2 ADD SWAP1 PUSH2 0xB1F SWAP2 SWAP1 PUSH2 0xFB4 JUMP JUMPDEST PUSH2 0xB53 JUMPI PUSH1 0x40 MLOAD PUSH3 0x461BCD PUSH1 0xE5 SHL DUP2 MSTORE PUSH1 0x20 PUSH1 0x4 DUP3 ADD MSTORE PUSH1 0x5 PUSH1 0x24 DUP3 ADD MSTORE PUSH5 0x139054D095 PUSH1 0xDA SHL PUSH1 0x44 DUP3 ADD MSTORE PUSH1 0x64 ADD PUSH2 0x234 JUMP JUMPDEST PUSH1 0x1 PUSH1 0x1 PUSH1 0xA0 SHL SUB DUP3 AND PUSH1 0x0 SWAP1 DUP2 MSTORE PUSH1 0x2 PUSH1 0x20 DUP2 SWAP1 MSTORE PUSH1 0x40 SWAP1 SWAP2 KECCAK256 ADD SLOAD PUSH1 0xFF SWAP1 DUP2 AND SWAP1 DUP3 AND SUB PUSH2 0xBAD JUMPI PUSH1 0x40 MLOAD PUSH3 0x461BCD PUSH1 0xE5 SHL DUP2 MSTORE PUSH1 0x20 PUSH1 0x4 DUP3 ADD MSTORE PUSH1 0x5 PUSH1 0x24 DUP3 ADD MSTORE PUSH5 0x105510D4D5 PUSH1 0xDA SHL PUSH1 0x44 DUP3 ADD MSTORE PUSH1 0x64 ADD PUSH2 0x234 JUMP JUMPDEST PUSH1 0x1 PUSH1 0x1 PUSH1 0xA0 SHL SUB DUP3 DUP2 AND PUSH1 0x0 DUP2 DUP2 MSTORE PUSH1 0x2 PUSH1 0x20 DUP2 SWAP1 MSTORE PUSH1 0x40 SWAP2 DUP3 SWAP1 KECCAK256 ADD DUP1 SLOAD PUSH1 0xFF NOT AND PUSH1 0xFF DUP7 AND OR SWAP1 SSTORE MLOAD PUSH4 0x4814F035 PUSH1 0xE0 SHL DUP2 MSTORE PUSH1 0x4 DUP2 ADD SWAP2 SWAP1 SWAP2 MSTORE PUSH32 0x0 SWAP1 SWAP2 AND SWAP1 PUSH4 0x37B05D8D SWAP1 DUP3 SWAP1 PUSH4 0x4814F035 SWAP1 PUSH1 0x24 ADD PUSH1 0x20 PUSH1 0x40 MLOAD DUP1 DUP4 SUB DUP2 DUP7 GAS STATICCALL ISZERO DUP1 ISZERO PUSH2 0xC3E JUMPI RETURNDATASIZE PUSH1 0x0 DUP1 RETURNDATACOPY RETURNDATASIZE PUSH1 0x0 REVERT JUMPDEST POP POP POP POP PUSH1 0x40 MLOAD RETURNDATASIZE PUSH1 0x1F NOT PUSH1 0x1F DUP3 ADD AND DUP3 ADD DUP1 PUSH1 0x40 MSTORE POP DUP2 ADD SWAP1 PUSH2 0xC62 SWAP2 SWAP1 PUSH2 0xF9B JUMP JUMPDEST PUSH1 0x40 MLOAD PUSH1 0x1 PUSH1 0x1 PUSH1 0xE0 SHL SUB NOT PUSH1 0xE0 DUP5 SWAP1 SHL AND DUP2 MSTORE PUSH1 0x4 DUP2 ADD SWAP2 SWAP1 SWAP2 MSTORE PUSH1 0xFF DUP5 AND PUSH1 0x24 DUP3 ADD MSTORE PUSH1 0x44 ADD PUSH1 0x0 PUSH1 0x40 MLOAD DUP1 DUP4 SUB DUP2 PUSH1 0x0 DUP8 DUP1 EXTCODESIZE ISZERO DUP1 ISZERO PUSH2 0xCA4 JUMPI PUSH1 0x0 DUP1 REVERT JUMPDEST POP GAS CALL ISZERO DUP1 ISZERO PUSH2 0xCB8 JUMPI RETURNDATASIZE PUSH1 0x0 DUP1 RETURNDATACOPY RETURNDATASIZE PUSH1 0x0 REVERT JUMPDEST POP POP POP POP POP POP JUMP JUMPDEST PUSH1 0x60 PUSH1 0x0 DUP1 SLOAD DUP1 PUSH1 0x20 MUL PUSH1 0x20 ADD PUSH1 0x40 MLOAD SWAP1 DUP2 ADD PUSH1 0x40 MSTORE DUP1 SWAP3 SWAP2 SWAP1 DUP2 DUP2 MSTORE PUSH1 0x20 ADD DUP3 DUP1 SLOAD DUP1 ISZERO PUSH2 0xD18 JUMPI PUSH1 0x20 MUL DUP3 ADD SWAP2 SWAP1 PUSH1 0x0 MSTORE PUSH1 0x20 PUSH1 0x0 KECCAK256 SWAP1 JUMPDEST DUP2 SLOAD PUSH1 0x1 PUSH1 0x1 PUSH1 0xA0 SHL SUB AND DUP2 MSTORE PUSH1 0x1 SWAP1 SWAP2 ADD SWAP1 PUSH1 0x20 ADD DUP1 DUP4 GT PUSH2 0xCFA JUMPI JUMPDEST POP POP POP POP POP SWAP1 POP SWAP1 JUMP JUMPDEST DUP1 CALLDATALOAD PUSH1 0x1 PUSH1 0x1 PUSH1 0xA0 SHL SUB DUP2 AND DUP2 EQ PUSH2 0xD39 JUMPI PUSH1 0x0 DUP1 REVERT JUMPDEST SWAP2 SWAP1 POP JUMP JUMPDEST DUP1 CALLDATALOAD PUSH1 0xFF DUP2 AND DUP2 EQ PUSH2 0xD39 JUMPI PUSH1 0x0 DUP1 REVERT JUMPDEST PUSH1 0x0 DUP1 PUSH1 0x0 PUSH1 0x60 DUP5 DUP7 SUB SLT ISZERO PUSH2 0xD64 JUMPI PUSH1 0x0 DUP1 REVERT JUMPDEST PUSH2 0xD6D DUP5 PUSH2 0xD22 JUMP JUMPDEST SWAP3 POP PUSH1 0x20 DUP5 ADD CALLDATALOAD SWAP2 POP PUSH2 0xD82 PUSH1 0x40 DUP6 ADD PUSH2 0xD3E JUMP JUMPDEST SWAP1 POP SWAP3 POP SWAP3 POP SWAP3 JUMP JUMPDEST PUSH1 0x0 PUSH1 0x20 DUP3 DUP5 SUB SLT ISZERO PUSH2 0xD9D JUMPI PUSH1 0x0 DUP1 REVERT JUMPDEST PUSH2 0xDA6 DUP3 PUSH2 0xD22 JUMP JUMPDEST SWAP4 SWAP3 POP POP POP JUMP JUMPDEST PUSH1 0x60 DUP2 MSTORE PUSH1 0x0 DUP5 MLOAD DUP1 PUSH1 0x60 DUP5 ADD MSTORE PUSH1 0x0 JUMPDEST DUP2 DUP2 LT ISZERO PUSH2 0xDDB JUMPI PUSH1 0x20 DUP2 DUP9 ADD DUP2 ADD MLOAD PUSH1 0x80 DUP7 DUP5 ADD ADD MSTORE ADD PUSH2 0xDBE JUMP JUMPDEST POP PUSH1 0x0 PUSH1 0x80 DUP3 DUP6 ADD ADD MSTORE PUSH1 0x80 PUSH1 0x1F NOT PUSH1 0x1F DUP4 ADD AND DUP5 ADD ADD SWAP2 POP POP DUP4 PUSH1 0x20 DUP4 ADD MSTORE PUSH1 0xFF DUP4 AND PUSH1 0x40 DUP4 ADD MSTORE SWAP5 SWAP4 POP POP POP POP JUMP JUMPDEST PUSH4 0x4E487B71 PUSH1 0xE0 SHL PUSH1 0x0 MSTORE PUSH1 0x41 PUSH1 0x4 MSTORE PUSH1 0x24 PUSH1 0x0 REVERT JUMPDEST PUSH1 0x0 DUP1 PUSH1 0x0 DUP1 PUSH1 0x80 DUP6 DUP8 SUB SLT ISZERO PUSH2 0xE38 JUMPI PUSH1 0x0 DUP1 REVERT JUMPDEST PUSH2 0xE41 DUP6 PUSH2 0xD22 JUMP JUMPDEST SWAP4 POP PUSH1 0x20 DUP6 ADD CALLDATALOAD PUSH8 0xFFFFFFFFFFFFFFFF DUP1 DUP3 GT ISZERO PUSH2 0xE5E JUMPI PUSH1 0x0 DUP1 REVERT JUMPDEST DUP2 DUP8 ADD SWAP2 POP DUP8 PUSH1 0x1F DUP4 ADD SLT PUSH2 0xE72 JUMPI PUSH1 0x0 DUP1 REVERT JUMPDEST DUP2 CALLDATALOAD DUP2 DUP2 GT ISZERO PUSH2 0xE84 JUMPI PUSH2 0xE84 PUSH2 0xE0C JUMP JUMPDEST PUSH1 0x40 MLOAD PUSH1 0x1F DUP3 ADD PUSH1 0x1F NOT SWAP1 DUP2 AND PUSH1 0x3F ADD AND DUP2 ADD SWAP1 DUP4 DUP3 GT DUP2 DUP4 LT OR ISZERO PUSH2 0xEAC JUMPI PUSH2 0xEAC PUSH2 0xE0C JUMP JUMPDEST DUP2 PUSH1 0x40 MSTORE DUP3 DUP2 MSTORE DUP11 PUSH1 0x20 DUP5 DUP8 ADD ADD GT ISZERO PUSH2 0xEC5 JUMPI PUSH1 0x0 DUP1 REVERT JUMPDEST DUP3 PUSH1 0x20 DUP7 ADD PUSH1 0x20 DUP4 ADD CALLDATACOPY PUSH1 0x0 PUSH1 0x20 DUP5 DUP4 ADD ADD MSTORE DUP1 SWAP8 POP POP POP POP POP POP PUSH1 0x40 DUP6 ADD CALLDATALOAD SWAP2 POP PUSH2 0xEF3 PUSH1 0x60 DUP7 ADD PUSH2 0xD3E JUMP JUMPDEST SWAP1 POP SWAP3 SWAP6 SWAP2 SWAP5 POP SWAP3 POP JUMP JUMPDEST PUSH1 0x0 DUP1 PUSH1 0x40 DUP4 DUP6 SUB SLT ISZERO PUSH2 0xF11 JUMPI PUSH1 0x0 DUP1 REVERT JUMPDEST PUSH2 0xF1A DUP4 PUSH2 0xD22 JUMP JUMPDEST SWAP2 POP PUSH2 0xF28 PUSH1 0x20 DUP5 ADD PUSH2 0xD3E JUMP JUMPDEST SWAP1 POP SWAP3 POP SWAP3 SWAP1 POP JUMP JUMPDEST PUSH1 0x20 DUP1 DUP3 MSTORE DUP3 MLOAD DUP3 DUP3 ADD DUP2 SWAP1 MSTORE PUSH1 0x0 SWAP2 SWAP1 DUP5 DUP3 ADD SWAP1 PUSH1 0x40 DUP6 ADD SWAP1 DUP5 JUMPDEST DUP2 DUP2 LT ISZERO PUSH2 0xF72 JUMPI DUP4 MLOAD PUSH1 0x1 PUSH1 0x1 PUSH1 0xA0 SHL SUB AND DUP4 MSTORE SWAP3 DUP5 ADD SWAP3 SWAP2 DUP5 ADD SWAP2 PUSH1 0x1 ADD PUSH2 0xF4D JUMP JUMPDEST POP SWAP1 SWAP7 SWAP6 POP POP POP POP POP POP JUMP JUMPDEST PUSH1 0x20 DUP1 DUP3 MSTORE PUSH1 0x3 SWAP1 DUP3 ADD MSTORE PUSH3 0x4E544F PUSH1 0xE8 SHL PUSH1 0x40 DUP3 ADD MSTORE PUSH1 0x60 ADD SWAP1 JUMP JUMPDEST PUSH1 0x0 PUSH1 0x20 DUP3 DUP5 SUB SLT ISZERO PUSH2 0xFAD JUMPI PUSH1 0x0 DUP1 REVERT JUMPDEST POP MLOAD SWAP2 SWAP1 POP JUMP JUMPDEST PUSH1 0x0 PUSH1 0x20 DUP3 DUP5 SUB SLT ISZERO PUSH2 0xFC6 JUMPI PUSH1 0x0 DUP1 REVERT JUMPDEST DUP2 MLOAD DUP1 ISZERO ISZERO DUP2 EQ PUSH2 0xDA6 JUMPI PUSH1 0x0 DUP1 REVERT JUMPDEST PUSH1 0x1 DUP2 DUP2 SHR SWAP1 DUP3 AND DUP1 PUSH2 0xFEA JUMPI PUSH1 0x7F DUP3 AND SWAP2 POP JUMPDEST PUSH1 0x20 DUP3 LT DUP2 SUB PUSH2 0x100A JUMPI PUSH4 0x4E487B71 PUSH1 0xE0 SHL PUSH1 0x0 MSTORE PUSH1 0x22 PUSH1 0x4 MSTORE PUSH1 0x24 PUSH1 0x0 REVERT JUMPDEST POP SWAP2 SWAP1 POP JUMP JUMPDEST PUSH1 0x1F DUP3 GT ISZERO PUSH2 0x1056 JUMPI PUSH1 0x0 DUP2 DUP2 MSTORE PUSH1 0x20 DUP2 KECCAK256 PUSH1 0x1F DUP6 ADD PUSH1 0x5 SHR DUP2 ADD PUSH1 0x20 DUP7 LT ISZERO PUSH2 0x1037 JUMPI POP DUP1 JUMPDEST PUSH1 0x1F DUP6 ADD PUSH1 0x5 SHR DUP3 ADD SWAP2 POP JUMPDEST DUP2 DUP2 LT ISZERO PUSH2 0xCB8 JUMPI DUP3 DUP2 SSTORE PUSH1 0x1 ADD PUSH2 0x1043 JUMP JUMPDEST POP POP POP JUMP JUMPDEST DUP2 MLOAD PUSH8 0xFFFFFFFFFFFFFFFF DUP2 GT ISZERO PUSH2 0x1075 JUMPI PUSH2 0x1075 PUSH2 0xE0C JUMP JUMPDEST PUSH2 0x1089 DUP2 PUSH2 0x1083 DUP5 SLOAD PUSH2 0xFD6 JUMP JUMPDEST DUP5 PUSH2 0x1010 JUMP JUMPDEST PUSH1 0x20 DUP1 PUSH1 0x1F DUP4 GT PUSH1 0x1 DUP2 EQ PUSH2 0x10BE JUMPI PUSH1 0x0 DUP5 ISZERO PUSH2 0x10A6 JUMPI POP DUP6 DUP4 ADD MLOAD JUMPDEST PUSH1 0x0 NOT PUSH1 0x3 DUP7 SWAP1 SHL SHR NOT AND PUSH1 0x1 DUP6 SWAP1 SHL OR DUP6 SSTORE PUSH2 0xCB8 JUMP JUMPDEST PUSH1 0x0 DUP6 DUP2 MSTORE PUSH1 0x20 DUP2 KECCAK256 PUSH1 0x1F NOT DUP7 AND SWAP2 JUMPDEST DUP3 DUP2 LT ISZERO PUSH2 0x10ED JUMPI DUP9 DUP7 ADD MLOAD DUP3 SSTORE SWAP5 DUP5 ADD SWAP5 PUSH1 0x1 SWAP1 SWAP2 ADD SWAP1 DUP5 ADD PUSH2 0x10CE JUMP JUMPDEST POP DUP6 DUP3 LT ISZERO PUSH2 0x110B JUMPI DUP8 DUP6 ADD MLOAD PUSH1 0x0 NOT PUSH1 0x3 DUP9 SWAP1 SHL PUSH1 0xF8 AND SHR NOT AND DUP2 SSTORE JUMPDEST POP POP POP POP POP PUSH1 0x1 SWAP1 DUP2 SHL ADD SWAP1 SSTORE POP JUMP INVALID LOG2 PUSH5 0x6970667358 0x22 SLT KECCAK256 STOP CALLCODE 0xC3 SWAP6 0xD0 CALLDATALOAD SWAP13 LOG2 0x23 SLT BALANCE 0xD8 0x4F 0xE5 0x24 0xD1 PUSH2 0x6DDB SWAP4 SHR MLOAD 0xC9 0xFB 0xCF TIMESTAMP 0xB4 PUSH25 0xEF67614764736F6C6343000811003300000000000000000000 "
				},
				"gasEstimates": {
					"creation": {
						"codeDepositCost": "886600",
						"executionCost": "infinite",
						"totalCost": "infinite"
					},
					"external": {
						"activateSBT(address)": "infinite",
						"companyMetadata(address)": "infinite",
						"deactivateSBT(address)": "infinite",
						"isRegisteredCompany(address)": "2549",
						"modifyTier(address,uint8)": "infinite",
						"owner()": "infinite",
						"registerCompany(address,string,bytes32,uint8)": "infinite",
						"registeredCompanies()": "infinite",
						"reissueSBT(address,bytes32,uint8)": "infinite",
						"soulBoundToken()": "infinite"
					}
				},
				"methodIdentifiers": {
					"activateSBT(address)": "7795bb9d",
					"companyMetadata(address)": "a8158ea8",
					"deactivateSBT(address)": "5d33967c",
					"isRegisteredCompany(address)": "90159c94",
					"modifyTier(address,uint8)": "d200abf4",
					"owner()": "8da5cb5b",
					"registerCompany(address,string,bytes32,uint8)": "b57bd629",
					"registeredCompanies()": "f66122e6",
					"reissueSBT(address,bytes32,uint8)": "4a607444",
					"soulBoundToken()": "4290ba90"
				}
			},
			"storageLayout": {
				"storage": [
					{
						"astId": 12,
						"contract": "contracts/CompanyDB.sol:CompanyDB",
						"label": "_registeredCompanies",
						"offset": 0,
						"slot": "0",
						"type": "t_array(t_address)dyn_storage"
					},
					{
						"astId": 16,
						"contract": "contracts/CompanyDB.sol:CompanyDB",
						"label": "_isRegisteredCompany",
						"offset": 0,
						"slot": "1",
						"type": "t_mapping(t_address,t_bool)"
					},
					{
						"astId": 21,
						"contract": "contracts/CompanyDB.sol:CompanyDB",
						"label": "_companyMetadata",
						"offset": 0,
						"slot": "2",
						"type": "t_mapping(t_address,t_struct(CompanyMetadata)9_storage)"
					}
				],
				"types": {
					"t_address": {
						"encoding": "inplace",
						"label": "address",
						"numberOfBytes": "20"
					},
					"t_array(t_address)dyn_storage": {
						"base": "t_address",
						"encoding": "dynamic_array",
						"label": "address[]",
						"numberOfBytes": "32"
					},
					"t_bool": {
						"encoding": "inplace",
						"label": "bool",
						"numberOfBytes": "1"
					},
					"t_bytes32": {
						"encoding": "inplace",
						"label": "bytes32",
						"numberOfBytes": "32"
					},
					"t_mapping(t_address,t_bool)": {
						"encoding": "mapping",
						"key": "t_address",
						"label": "mapping(address => bool)",
						"numberOfBytes": "32",
						"value": "t_bool"
					},
					"t_mapping(t_address,t_struct(CompanyMetadata)9_storage)": {
						"encoding": "mapping",
						"key": "t_address",
						"label": "mapping(address => struct CompanyDB.CompanyMetadata)",
						"numberOfBytes": "32",
						"value": "t_struct(CompanyMetadata)9_storage"
					},
					"t_string_storage": {
						"encoding": "bytes",
						"label": "string",
						"numberOfBytes": "32"
					},
					"t_struct(CompanyMetadata)9_storage": {
						"encoding": "inplace",
						"label": "struct CompanyDB.CompanyMetadata",
						"members": [
							{
								"astId": 4,
								"contract": "contracts/CompanyDB.sol:CompanyDB",
								"label": "name",
								"offset": 0,
								"slot": "0",
								"type": "t_string_storage"
							},
							{
								"astId": 6,
								"contract": "contracts/CompanyDB.sol:CompanyDB",
								"label": "hashedIdentity",
								"offset": 0,
								"slot": "1",
								"type": "t_bytes32"
							},
							{
								"astId": 8,
								"contract": "contracts/CompanyDB.sol:CompanyDB",
								"label": "tier",
								"offset": 0,
								"slot": "2",
								"type": "t_uint8"
							}
						],
						"numberOfBytes": "96"
					},
					"t_uint8": {
						"encoding": "inplace",
						"label": "uint8",
						"numberOfBytes": "1"
					}
				}
			},
			"userdoc": {
				"kind": "user",
				"methods": {},
				"version": 1
			}
		}
	}
}