{
	"contracts/BondDB.sol": {
		"BondDB": {
			"abi": [
				{
					"inputs": [],
					"stateMutability": "nonpayable",
					"type": "constructor"
				},
				{
					"inputs": [
						{
							"internalType": "address",
							"name": "account",
							"type": "address"
						}
					],
					"name": "companyMetadata",
					"outputs": [
						{
							"internalType": "string",
							"name": "",
							"type": "string"
						},
						{
							"internalType": "bytes32",
							"name": "",
							"type": "bytes32"
						},
						{
							"internalType": "uint8",
							"name": "",
							"type": "uint8"
						}
					],
					"stateMutability": "view",
					"type": "function"
				},
				{
					"inputs": [
						{
							"internalType": "address",
							"name": "account",
							"type": "address"
						}
					],
					"name": "isRegisteredCompany",
					"outputs": [
						{
							"internalType": "bool",
							"name": "",
							"type": "bool"
						}
					],
					"stateMutability": "view",
					"type": "function"
				},
				{
					"inputs": [],
					"name": "owner",
					"outputs": [
						{
							"internalType": "address",
							"name": "",
							"type": "address"
						}
					],
					"stateMutability": "view",
					"type": "function"
				},
				{
					"inputs": [
						{
							"internalType": "address",
							"name": "account",
							"type": "address"
						},
						{
							"internalType": "string",
							"name": "name",
							"type": "string"
						},
						{
							"internalType": "bytes32",
							"name": "hashedIdentity",
							"type": "bytes32"
						},
						{
							"internalType": "uint8",
							"name": "tier",
							"type": "uint8"
						}
					],
					"name": "registerCompany",
					"outputs": [],
					"stateMutability": "nonpayable",
					"type": "function"
				},
				{
					"inputs": [],
					"name": "registeredCompanies",
					"outputs": [
						{
							"internalType": "address[]",
							"name": "",
							"type": "address[]"
						}
					],
					"stateMutability": "view",
					"type": "function"
				}
			],
			"devdoc": {
				"kind": "dev",
				"methods": {},
				"version": 1
			},
			"evm": {
				"assembly": "    /* \"contracts/BondDB.sol\":58:1418  contract BondDB {... */\n  mstore(0x40, 0xa0)\n    /* \"contracts/BondDB.sol\":366:416  constructor() {... */\n  callvalue\n  dup1\n  iszero\n  tag_1\n  jumpi\n  0x00\n  dup1\n  revert\ntag_1:\n  pop\n    /* \"contracts/BondDB.sol\":399:409  msg.sender */\n  caller\n    /* \"contracts/BondDB.sol\":390:409  _owner = msg.sender */\n  0x80\n  mstore\n    /* \"contracts/BondDB.sol\":58:1418  contract BondDB {... */\n  mload(0x80)\n  codecopy(0x00, dataOffset(sub_0), dataSize(sub_0))\n  0x00\n  assignImmutable(\"0xd4d1a59767271eefdc7830a772b9732a11d503531d972ab8c981a6b1c0e666e5\")\n  return(0x00, dataSize(sub_0))\nstop\n\nsub_0: assembly {\n        /* \"contracts/BondDB.sol\":58:1418  contract BondDB {... */\n      mstore(0x40, 0x80)\n      callvalue\n      dup1\n      iszero\n      tag_1\n      jumpi\n      0x00\n      dup1\n      revert\n    tag_1:\n      pop\n      jumpi(tag_2, lt(calldatasize, 0x04))\n      shr(0xe0, calldataload(0x00))\n      dup1\n      0x8da5cb5b\n      eq\n      tag_3\n      jumpi\n      dup1\n      0x90159c94\n      eq\n      tag_4\n      jumpi\n      dup1\n      0xa8158ea8\n      eq\n      tag_5\n      jumpi\n      dup1\n      0xb57bd629\n      eq\n      tag_6\n      jumpi\n      dup1\n      0xf66122e6\n      eq\n      tag_7\n      jumpi\n    tag_2:\n      0x00\n      dup1\n      revert\n        /* \"contracts/BondDB.sol\":1339:1416  function owner() public view returns (address) {... */\n    tag_3:\n      mload(0x40)\n      sub(shl(0xa0, 0x01), 0x01)\n        /* \"contracts/BondDB.sol\":1403:1409  _owner */\n      immutable(\"0xd4d1a59767271eefdc7830a772b9732a11d503531d972ab8c981a6b1c0e666e5\")\n        /* \"#utility.yul\":178:210   */\n      and\n        /* \"#utility.yul\":160:211   */\n      dup2\n      mstore\n        /* \"#utility.yul\":148:150   */\n      0x20\n        /* \"#utility.yul\":133:151   */\n      add\n        /* \"contracts/BondDB.sol\":1339:1416  function owner() public view returns (address) {... */\n    tag_10:\n      mload(0x40)\n      dup1\n      swap2\n      sub\n      swap1\n      return\n        /* \"contracts/BondDB.sol\":797:923  function isRegisteredCompany(address account) public view returns (bool) {... */\n    tag_4:\n      tag_12\n      tag_13\n      calldatasize\n      0x04\n      tag_14\n      jump\t// in\n    tag_13:\n      sub(shl(0xa0, 0x01), 0x01)\n        /* \"contracts/BondDB.sol\":887:916  _isRegisteredCompany[account] */\n      and\n        /* \"contracts/BondDB.sol\":864:868  bool */\n      0x00\n        /* \"contracts/BondDB.sol\":887:916  _isRegisteredCompany[account] */\n      swap1\n      dup2\n      mstore\n        /* \"contracts/BondDB.sol\":887:907  _isRegisteredCompany */\n      0x01\n        /* \"contracts/BondDB.sol\":887:916  _isRegisteredCompany[account] */\n      0x20\n      mstore\n      0x40\n      swap1\n      keccak256\n      sload\n      0xff\n      and\n      swap1\n        /* \"contracts/BondDB.sol\":797:923  function isRegisteredCompany(address account) public view returns (bool) {... */\n      jump\n    tag_12:\n      mload(0x40)\n        /* \"#utility.yul\":756:770   */\n      swap1\n      iszero\n        /* \"#utility.yul\":749:771   */\n      iszero\n        /* \"#utility.yul\":731:772   */\n      dup2\n      mstore\n        /* \"#utility.yul\":719:721   */\n      0x20\n        /* \"#utility.yul\":704:722   */\n      add\n        /* \"contracts/BondDB.sol\":797:923  function isRegisteredCompany(address account) public view returns (bool) {... */\n      tag_10\n        /* \"#utility.yul\":591:778   */\n      jump\n        /* \"contracts/BondDB.sol\":1049:1333  function companyMetadata(... */\n    tag_5:\n      tag_18\n      tag_19\n      calldatasize\n      0x04\n      tag_14\n      jump\t// in\n    tag_19:\n      tag_20\n      jump\t// in\n    tag_18:\n      mload(0x40)\n      tag_10\n      swap4\n      swap3\n      swap2\n      swap1\n      tag_22\n      jump\t// in\n        /* \"contracts/BondDB.sol\":422:791  function registerCompany(... */\n    tag_6:\n      tag_23\n      tag_24\n      calldatasize\n      0x04\n      tag_25\n      jump\t// in\n    tag_24:\n      tag_26\n      jump\t// in\n    tag_23:\n      stop\n        /* \"contracts/BondDB.sol\":929:1043  function registeredCompanies() public view returns (address[] memory) {... */\n    tag_7:\n      tag_27\n      tag_28\n      jump\t// in\n    tag_27:\n      mload(0x40)\n      tag_10\n      swap2\n      swap1\n      tag_30\n      jump\t// in\n        /* \"contracts/BondDB.sol\":1049:1333  function companyMetadata(... */\n    tag_20:\n      sub(shl(0xa0, 0x01), 0x01)\n        /* \"contracts/BondDB.sol\":1188:1213  _companyMetadata[account] */\n      dup2\n      and\n        /* \"contracts/BondDB.sol\":1141:1148  bytes32 */\n      0x00\n        /* \"contracts/BondDB.sol\":1188:1213  _companyMetadata[account] */\n      swap1\n      dup2\n      mstore\n        /* \"contracts/BondDB.sol\":1188:1204  _companyMetadata */\n      0x02\n        /* \"contracts/BondDB.sol\":1188:1213  _companyMetadata[account] */\n      0x20\n      dup2\n      swap1\n      mstore\n      0x40\n      dup3\n      keccak256\n        /* \"contracts/BondDB.sol\":1232:1272  _companyMetadata[account].hashedIdentity */\n      0x01\n      dup2\n      add\n      sload\n        /* \"contracts/BondDB.sol\":1286:1316  _companyMetadata[account].tier */\n      swap2\n      dup2\n      add\n      sload\n        /* \"contracts/BondDB.sol\":1167:1326  return (... */\n      dup2\n      sload\n        /* \"contracts/BondDB.sol\":1126:1139  string memory */\n      0x60\n      swap5\n        /* \"contracts/BondDB.sol\":1141:1148  bytes32 */\n      swap4\n      dup5\n      swap4\n        /* \"contracts/BondDB.sol\":1188:1213  _companyMetadata[account] */\n      swap3\n        /* \"contracts/BondDB.sol\":1232:1272  _companyMetadata[account].hashedIdentity */\n      swap1\n      swap2\n        /* \"contracts/BondDB.sol\":1286:1316  _companyMetadata[account].tier */\n      0xff\n      swap1\n      swap2\n      and\n      swap1\n        /* \"contracts/BondDB.sol\":1188:1213  _companyMetadata[account] */\n      dup4\n      swap1\n        /* \"contracts/BondDB.sol\":1167:1326  return (... */\n      tag_34\n      swap1\n      tag_35\n      jump\t// in\n    tag_34:\n      dup1\n      0x1f\n      add\n      0x20\n      dup1\n      swap2\n      div\n      mul\n      0x20\n      add\n      mload(0x40)\n      swap1\n      dup2\n      add\n      0x40\n      mstore\n      dup1\n      swap3\n      swap2\n      swap1\n      dup2\n      dup2\n      mstore\n      0x20\n      add\n      dup3\n      dup1\n      sload\n      tag_36\n      swap1\n      tag_35\n      jump\t// in\n    tag_36:\n      dup1\n      iszero\n      tag_37\n      jumpi\n      dup1\n      0x1f\n      lt\n      tag_38\n      jumpi\n      0x0100\n      dup1\n      dup4\n      sload\n      div\n      mul\n      dup4\n      mstore\n      swap2\n      0x20\n      add\n      swap2\n      jump(tag_37)\n    tag_38:\n      dup3\n      add\n      swap2\n      swap1\n      0x00\n      mstore\n      keccak256(0x00, 0x20)\n      swap1\n    tag_39:\n      dup2\n      sload\n      dup2\n      mstore\n      swap1\n      0x01\n      add\n      swap1\n      0x20\n      add\n      dup1\n      dup4\n      gt\n      tag_39\n      jumpi\n      dup3\n      swap1\n      sub\n      0x1f\n      and\n      dup3\n      add\n      swap2\n    tag_37:\n      pop\n      pop\n      pop\n      pop\n      pop\n      swap3\n      pop\n      swap3\n      pop\n      swap3\n      pop\n      swap3\n      pop\n        /* \"contracts/BondDB.sol\":1049:1333  function companyMetadata(... */\n      swap2\n      swap4\n      swap1\n      swap3\n      pop\n      jump\t// out\n        /* \"contracts/BondDB.sol\":422:791  function registerCompany(... */\n    tag_26:\n        /* \"contracts/BondDB.sol\":585:591  _owner */\n      immutable(\"0xd4d1a59767271eefdc7830a772b9732a11d503531d972ab8c981a6b1c0e666e5\")\n      sub(shl(0xa0, 0x01), 0x01)\n        /* \"contracts/BondDB.sol\":585:605  _owner == msg.sender */\n      and\n        /* \"contracts/BondDB.sol\":595:605  msg.sender */\n      caller\n        /* \"contracts/BondDB.sol\":585:605  _owner == msg.sender */\n      eq\n        /* \"contracts/BondDB.sol\":577:613  require(_owner == msg.sender, \"NTO\") */\n      tag_41\n      jumpi\n      mload(0x40)\n      shl(0xe5, 0x461bcd)\n      dup2\n      mstore\n        /* \"#utility.yul\":4156:4158   */\n      0x20\n        /* \"contracts/BondDB.sol\":577:613  require(_owner == msg.sender, \"NTO\") */\n      0x04\n      dup3\n      add\n        /* \"#utility.yul\":4138:4159   */\n      mstore\n        /* \"#utility.yul\":4195:4196   */\n      0x03\n        /* \"#utility.yul\":4175:4193   */\n      0x24\n      dup3\n      add\n        /* \"#utility.yul\":4168:4197   */\n      mstore\n      shl(0xe8, 0x4e544f)\n        /* \"#utility.yul\":4213:4231   */\n      0x44\n      dup3\n      add\n        /* \"#utility.yul\":4206:4239   */\n      mstore\n        /* \"#utility.yul\":4256:4274   */\n      0x64\n      add\n        /* \"contracts/BondDB.sol\":577:613  require(_owner == msg.sender, \"NTO\") */\n      mload(0x40)\n      dup1\n      swap2\n      sub\n      swap1\n      revert\n    tag_41:\n        /* \"contracts/BondDB.sol\":623:643  _registeredCompanies */\n      0x00\n        /* \"contracts/BondDB.sol\":623:657  _registeredCompanies.push(account) */\n      dup1\n      sload\n      0x01\n      dup1\n      dup3\n      add\n      dup4\n      sstore\n      0x290decd9548b62a8d60345a988386fc84ba6bc95484008f6362f93160ef3e563\n      swap1\n      swap2\n      add\n      dup1\n      sload\n      not(sub(shl(0xa0, 0x01), 0x01))\n      and\n      sub(shl(0xa0, 0x01), 0x01)\n      dup9\n      and\n      swap1\n      dup2\n      or\n      swap1\n      swap2\n      sstore\n        /* \"contracts/BondDB.sol\":667:696  _isRegisteredCompany[account] */\n      dup1\n      dup4\n      mstore\n        /* \"contracts/BondDB.sol\":623:657  _registeredCompanies.push(account) */\n      0x20\n        /* \"contracts/BondDB.sol\":667:696  _isRegisteredCompany[account] */\n      dup3\n      dup2\n      mstore\n      0x40\n      dup1\n      dup6\n      keccak256\n        /* \"contracts/BondDB.sol\":667:703  _isRegisteredCompany[account] = true */\n      dup1\n      sload\n      not(0xff)\n      and\n      swap1\n      swap5\n      or\n      swap1\n      swap4\n      sstore\n        /* \"contracts/BondDB.sol\":741:784  CompanyMetadata(name, hashedIdentity, tier) */\n      dup3\n      mload\n      0x60\n      dup2\n      add\n      dup5\n      mstore\n      dup8\n      dup2\n      mstore\n      dup1\n      dup3\n      add\n      dup8\n      swap1\n      mstore\n        /* \"contracts/BondDB.sol\":667:703  _isRegisteredCompany[account] = true */\n      0xff\n        /* \"contracts/BondDB.sol\":741:784  CompanyMetadata(name, hashedIdentity, tier) */\n      dup7\n      and\n      dup2\n      dup6\n      add\n      mstore\n        /* \"contracts/BondDB.sol\":713:738  _companyMetadata[account] */\n      swap2\n      dup5\n      mstore\n        /* \"contracts/BondDB.sol\":713:729  _companyMetadata */\n      0x02\n        /* \"contracts/BondDB.sol\":713:738  _companyMetadata[account] */\n      swap1\n      mstore\n      swap2\n      keccak256\n        /* \"contracts/BondDB.sol\":713:784  _companyMetadata[account] = CompanyMetadata(name, hashedIdentity, tier) */\n      dup2\n      mload\n        /* \"contracts/BondDB.sol\":713:738  _companyMetadata[account] */\n      dup2\n      swap1\n        /* \"contracts/BondDB.sol\":713:784  _companyMetadata[account] = CompanyMetadata(name, hashedIdentity, tier) */\n      tag_45\n      swap1\n        /* \"contracts/BondDB.sol\":713:738  _companyMetadata[account] */\n      dup3\n        /* \"contracts/BondDB.sol\":713:784  _companyMetadata[account] = CompanyMetadata(name, hashedIdentity, tier) */\n      tag_46\n      jump\t// in\n    tag_45:\n      pop\n      0x20\n      dup3\n      add\n      mload\n      0x01\n      dup3\n      add\n      sstore\n      0x40\n      swap1\n      swap2\n      add\n      mload\n      0x02\n      swap1\n      swap2\n      add\n      dup1\n      sload\n      not(0xff)\n      and\n      0xff\n      swap1\n      swap3\n      and\n      swap2\n      swap1\n      swap2\n      or\n      swap1\n      sstore\n      pop\n      pop\n      pop\n      pop\n        /* \"contracts/BondDB.sol\":422:791  function registerCompany(... */\n      jump\t// out\n        /* \"contracts/BondDB.sol\":929:1043  function registeredCompanies() public view returns (address[] memory) {... */\n    tag_28:\n        /* \"contracts/BondDB.sol\":981:997  address[] memory */\n      0x60\n        /* \"contracts/BondDB.sol\":1016:1036  _registeredCompanies */\n      0x00\n        /* \"contracts/BondDB.sol\":1009:1036  return _registeredCompanies */\n      dup1\n      sload\n      dup1\n      0x20\n      mul\n      0x20\n      add\n      mload(0x40)\n      swap1\n      dup2\n      add\n      0x40\n      mstore\n      dup1\n      swap3\n      swap2\n      swap1\n      dup2\n      dup2\n      mstore\n      0x20\n      add\n      dup3\n      dup1\n      sload\n      dup1\n      iszero\n      tag_48\n      jumpi\n      0x20\n      mul\n      dup3\n      add\n      swap2\n      swap1\n      0x00\n      mstore\n      keccak256(0x00, 0x20)\n      swap1\n    tag_49:\n      dup2\n      sload\n      sub(shl(0xa0, 0x01), 0x01)\n      and\n      dup2\n      mstore\n      0x01\n      swap1\n      swap2\n      add\n      swap1\n      0x20\n      add\n      dup1\n      dup4\n      gt\n      tag_49\n      jumpi\n    tag_48:\n      pop\n      pop\n      pop\n      pop\n      pop\n      swap1\n      pop\n        /* \"contracts/BondDB.sol\":929:1043  function registeredCompanies() public view returns (address[] memory) {... */\n      swap1\n      jump\t// out\n        /* \"#utility.yul\":222:395   */\n    tag_50:\n        /* \"#utility.yul\":290:310   */\n      dup1\n      calldataload\n      sub(shl(0xa0, 0x01), 0x01)\n        /* \"#utility.yul\":339:370   */\n      dup2\n      and\n        /* \"#utility.yul\":329:371   */\n      dup2\n      eq\n        /* \"#utility.yul\":319:389   */\n      tag_59\n      jumpi\n        /* \"#utility.yul\":385:386   */\n      0x00\n        /* \"#utility.yul\":382:383   */\n      dup1\n        /* \"#utility.yul\":375:387   */\n      revert\n        /* \"#utility.yul\":319:389   */\n    tag_59:\n        /* \"#utility.yul\":222:395   */\n      swap2\n      swap1\n      pop\n      jump\t// out\n        /* \"#utility.yul\":400:586   */\n    tag_14:\n        /* \"#utility.yul\":459:465   */\n      0x00\n        /* \"#utility.yul\":512:514   */\n      0x20\n        /* \"#utility.yul\":500:509   */\n      dup3\n        /* \"#utility.yul\":491:498   */\n      dup5\n        /* \"#utility.yul\":487:510   */\n      sub\n        /* \"#utility.yul\":483:515   */\n      slt\n        /* \"#utility.yul\":480:532   */\n      iszero\n      tag_61\n      jumpi\n        /* \"#utility.yul\":528:529   */\n      0x00\n        /* \"#utility.yul\":525:526   */\n      dup1\n        /* \"#utility.yul\":518:530   */\n      revert\n        /* \"#utility.yul\":480:532   */\n    tag_61:\n        /* \"#utility.yul\":551:580   */\n      tag_62\n        /* \"#utility.yul\":570:579   */\n      dup3\n        /* \"#utility.yul\":551:580   */\n      tag_50\n      jump\t// in\n    tag_62:\n        /* \"#utility.yul\":541:580   */\n      swap4\n        /* \"#utility.yul\":400:586   */\n      swap3\n      pop\n      pop\n      pop\n      jump\t// out\n        /* \"#utility.yul\":783:1468   */\n    tag_22:\n        /* \"#utility.yul\":984:986   */\n      0x60\n        /* \"#utility.yul\":973:982   */\n      dup2\n        /* \"#utility.yul\":966:987   */\n      mstore\n        /* \"#utility.yul\":947:951   */\n      0x00\n        /* \"#utility.yul\":1016:1022   */\n      dup5\n        /* \"#utility.yul\":1010:1023   */\n      mload\n        /* \"#utility.yul\":1059:1065   */\n      dup1\n        /* \"#utility.yul\":1054:1056   */\n      0x60\n        /* \"#utility.yul\":1043:1052   */\n      dup5\n        /* \"#utility.yul\":1039:1057   */\n      add\n        /* \"#utility.yul\":1032:1066   */\n      mstore\n        /* \"#utility.yul\":1084:1085   */\n      0x00\n        /* \"#utility.yul\":1094:1239   */\n    tag_65:\n        /* \"#utility.yul\":1108:1114   */\n      dup2\n        /* \"#utility.yul\":1105:1106   */\n      dup2\n        /* \"#utility.yul\":1102:1115   */\n      lt\n        /* \"#utility.yul\":1094:1239   */\n      iszero\n      tag_67\n      jumpi\n        /* \"#utility.yul\":1222:1226   */\n      0x20\n        /* \"#utility.yul\":1206:1220   */\n      dup2\n      dup9\n      add\n        /* \"#utility.yul\":1202:1227   */\n      dup2\n      add\n        /* \"#utility.yul\":1196:1228   */\n      mload\n        /* \"#utility.yul\":1190:1193   */\n      0x80\n        /* \"#utility.yul\":1171:1188   */\n      dup7\n      dup5\n      add\n        /* \"#utility.yul\":1167:1194   */\n      add\n        /* \"#utility.yul\":1160:1229   */\n      mstore\n        /* \"#utility.yul\":1123:1135   */\n      add\n        /* \"#utility.yul\":1094:1239   */\n      jump(tag_65)\n    tag_67:\n        /* \"#utility.yul\":1098:1101   */\n      pop\n        /* \"#utility.yul\":1289:1290   */\n      0x00\n        /* \"#utility.yul\":1283:1286   */\n      0x80\n        /* \"#utility.yul\":1274:1280   */\n      dup3\n        /* \"#utility.yul\":1263:1272   */\n      dup6\n        /* \"#utility.yul\":1259:1281   */\n      add\n        /* \"#utility.yul\":1255:1287   */\n      add\n        /* \"#utility.yul\":1248:1291   */\n      mstore\n        /* \"#utility.yul\":1359:1362   */\n      0x80\n        /* \"#utility.yul\":1352:1354   */\n      0x1f\n        /* \"#utility.yul\":1348:1355   */\n      not\n        /* \"#utility.yul\":1343:1345   */\n      0x1f\n        /* \"#utility.yul\":1335:1341   */\n      dup4\n        /* \"#utility.yul\":1331:1346   */\n      add\n        /* \"#utility.yul\":1327:1356   */\n      and\n        /* \"#utility.yul\":1316:1325   */\n      dup5\n        /* \"#utility.yul\":1312:1357   */\n      add\n        /* \"#utility.yul\":1308:1363   */\n      add\n        /* \"#utility.yul\":1300:1363   */\n      swap2\n      pop\n      pop\n        /* \"#utility.yul\":1401:1407   */\n      dup4\n        /* \"#utility.yul\":1394:1398   */\n      0x20\n        /* \"#utility.yul\":1383:1392   */\n      dup4\n        /* \"#utility.yul\":1379:1399   */\n      add\n        /* \"#utility.yul\":1372:1408   */\n      mstore\n        /* \"#utility.yul\":1456:1460   */\n      0xff\n        /* \"#utility.yul\":1448:1454   */\n      dup4\n        /* \"#utility.yul\":1444:1461   */\n      and\n        /* \"#utility.yul\":1439:1441   */\n      0x40\n        /* \"#utility.yul\":1428:1437   */\n      dup4\n        /* \"#utility.yul\":1424:1442   */\n      add\n        /* \"#utility.yul\":1417:1462   */\n      mstore\n        /* \"#utility.yul\":783:1468   */\n      swap5\n      swap4\n      pop\n      pop\n      pop\n      pop\n      jump\t// out\n        /* \"#utility.yul\":1473:1600   */\n    tag_51:\n        /* \"#utility.yul\":1534:1544   */\n      0x4e487b71\n        /* \"#utility.yul\":1529:1532   */\n      0xe0\n        /* \"#utility.yul\":1525:1545   */\n      shl\n        /* \"#utility.yul\":1522:1523   */\n      0x00\n        /* \"#utility.yul\":1515:1546   */\n      mstore\n        /* \"#utility.yul\":1565:1569   */\n      0x41\n        /* \"#utility.yul\":1562:1563   */\n      0x04\n        /* \"#utility.yul\":1555:1570   */\n      mstore\n        /* \"#utility.yul\":1589:1593   */\n      0x24\n        /* \"#utility.yul\":1586:1587   */\n      0x00\n        /* \"#utility.yul\":1579:1594   */\n      revert\n        /* \"#utility.yul\":1605:1761   */\n    tag_52:\n        /* \"#utility.yul\":1671:1691   */\n      dup1\n      calldataload\n        /* \"#utility.yul\":1731:1735   */\n      0xff\n        /* \"#utility.yul\":1720:1736   */\n      dup2\n      and\n        /* \"#utility.yul\":1710:1737   */\n      dup2\n      eq\n        /* \"#utility.yul\":1700:1755   */\n      tag_59\n      jumpi\n        /* \"#utility.yul\":1751:1752   */\n      0x00\n        /* \"#utility.yul\":1748:1749   */\n      dup1\n        /* \"#utility.yul\":1741:1753   */\n      revert\n        /* \"#utility.yul\":1766:2901   */\n    tag_25:\n        /* \"#utility.yul\":1860:1866   */\n      0x00\n        /* \"#utility.yul\":1868:1874   */\n      dup1\n        /* \"#utility.yul\":1876:1882   */\n      0x00\n        /* \"#utility.yul\":1884:1890   */\n      dup1\n        /* \"#utility.yul\":1937:1940   */\n      0x80\n        /* \"#utility.yul\":1925:1934   */\n      dup6\n        /* \"#utility.yul\":1916:1923   */\n      dup8\n        /* \"#utility.yul\":1912:1935   */\n      sub\n        /* \"#utility.yul\":1908:1941   */\n      slt\n        /* \"#utility.yul\":1905:1958   */\n      iszero\n      tag_72\n      jumpi\n        /* \"#utility.yul\":1954:1955   */\n      0x00\n        /* \"#utility.yul\":1951:1952   */\n      dup1\n        /* \"#utility.yul\":1944:1956   */\n      revert\n        /* \"#utility.yul\":1905:1958   */\n    tag_72:\n        /* \"#utility.yul\":1977:2006   */\n      tag_73\n        /* \"#utility.yul\":1996:2005   */\n      dup6\n        /* \"#utility.yul\":1977:2006   */\n      tag_50\n      jump\t// in\n    tag_73:\n        /* \"#utility.yul\":1967:2006   */\n      swap4\n      pop\n        /* \"#utility.yul\":2057:2059   */\n      0x20\n        /* \"#utility.yul\":2046:2055   */\n      dup6\n        /* \"#utility.yul\":2042:2060   */\n      add\n        /* \"#utility.yul\":2029:2061   */\n      calldataload\n        /* \"#utility.yul\":2080:2098   */\n      0xffffffffffffffff\n        /* \"#utility.yul\":2121:2123   */\n      dup1\n        /* \"#utility.yul\":2113:2119   */\n      dup3\n        /* \"#utility.yul\":2110:2124   */\n      gt\n        /* \"#utility.yul\":2107:2141   */\n      iszero\n      tag_74\n      jumpi\n        /* \"#utility.yul\":2137:2138   */\n      0x00\n        /* \"#utility.yul\":2134:2135   */\n      dup1\n        /* \"#utility.yul\":2127:2139   */\n      revert\n        /* \"#utility.yul\":2107:2141   */\n    tag_74:\n        /* \"#utility.yul\":2175:2181   */\n      dup2\n        /* \"#utility.yul\":2164:2173   */\n      dup8\n        /* \"#utility.yul\":2160:2182   */\n      add\n        /* \"#utility.yul\":2150:2182   */\n      swap2\n      pop\n        /* \"#utility.yul\":2220:2227   */\n      dup8\n        /* \"#utility.yul\":2213:2217   */\n      0x1f\n        /* \"#utility.yul\":2209:2211   */\n      dup4\n        /* \"#utility.yul\":2205:2218   */\n      add\n        /* \"#utility.yul\":2201:2228   */\n      slt\n        /* \"#utility.yul\":2191:2246   */\n      tag_75\n      jumpi\n        /* \"#utility.yul\":2242:2243   */\n      0x00\n        /* \"#utility.yul\":2239:2240   */\n      dup1\n        /* \"#utility.yul\":2232:2244   */\n      revert\n        /* \"#utility.yul\":2191:2246   */\n    tag_75:\n        /* \"#utility.yul\":2278:2280   */\n      dup2\n        /* \"#utility.yul\":2265:2281   */\n      calldataload\n        /* \"#utility.yul\":2300:2302   */\n      dup2\n        /* \"#utility.yul\":2296:2298   */\n      dup2\n        /* \"#utility.yul\":2293:2303   */\n      gt\n        /* \"#utility.yul\":2290:2326   */\n      iszero\n      tag_77\n      jumpi\n        /* \"#utility.yul\":2306:2324   */\n      tag_77\n      tag_51\n      jump\t// in\n    tag_77:\n        /* \"#utility.yul\":2381:2383   */\n      0x40\n        /* \"#utility.yul\":2375:2384   */\n      mload\n        /* \"#utility.yul\":2349:2351   */\n      0x1f\n        /* \"#utility.yul\":2435:2448   */\n      dup3\n      add\n      not(0x1f)\n        /* \"#utility.yul\":2431:2453   */\n      swap1\n      dup2\n      and\n        /* \"#utility.yul\":2455:2457   */\n      0x3f\n        /* \"#utility.yul\":2427:2458   */\n      add\n        /* \"#utility.yul\":2423:2463   */\n      and\n        /* \"#utility.yul\":2411:2464   */\n      dup2\n      add\n      swap1\n        /* \"#utility.yul\":2479:2497   */\n      dup4\n      dup3\n      gt\n        /* \"#utility.yul\":2499:2521   */\n      dup2\n      dup4\n      lt\n        /* \"#utility.yul\":2476:2522   */\n      or\n        /* \"#utility.yul\":2473:2545   */\n      iszero\n      tag_79\n      jumpi\n        /* \"#utility.yul\":2525:2543   */\n      tag_79\n      tag_51\n      jump\t// in\n    tag_79:\n        /* \"#utility.yul\":2565:2575   */\n      dup2\n        /* \"#utility.yul\":2561:2563   */\n      0x40\n        /* \"#utility.yul\":2554:2576   */\n      mstore\n        /* \"#utility.yul\":2600:2602   */\n      dup3\n        /* \"#utility.yul\":2592:2598   */\n      dup2\n        /* \"#utility.yul\":2585:2603   */\n      mstore\n        /* \"#utility.yul\":2640:2647   */\n      dup11\n        /* \"#utility.yul\":2635:2637   */\n      0x20\n        /* \"#utility.yul\":2630:2632   */\n      dup5\n        /* \"#utility.yul\":2626:2628   */\n      dup8\n        /* \"#utility.yul\":2622:2633   */\n      add\n        /* \"#utility.yul\":2618:2638   */\n      add\n        /* \"#utility.yul\":2615:2648   */\n      gt\n        /* \"#utility.yul\":2612:2665   */\n      iszero\n      tag_80\n      jumpi\n        /* \"#utility.yul\":2661:2662   */\n      0x00\n        /* \"#utility.yul\":2658:2659   */\n      dup1\n        /* \"#utility.yul\":2651:2663   */\n      revert\n        /* \"#utility.yul\":2612:2665   */\n    tag_80:\n        /* \"#utility.yul\":2717:2719   */\n      dup3\n        /* \"#utility.yul\":2712:2714   */\n      0x20\n        /* \"#utility.yul\":2708:2710   */\n      dup7\n        /* \"#utility.yul\":2704:2715   */\n      add\n        /* \"#utility.yul\":2699:2701   */\n      0x20\n        /* \"#utility.yul\":2691:2697   */\n      dup4\n        /* \"#utility.yul\":2687:2702   */\n      add\n        /* \"#utility.yul\":2674:2720   */\n      calldatacopy\n        /* \"#utility.yul\":2762:2763   */\n      0x00\n        /* \"#utility.yul\":2757:2759   */\n      0x20\n        /* \"#utility.yul\":2752:2754   */\n      dup5\n        /* \"#utility.yul\":2744:2750   */\n      dup4\n        /* \"#utility.yul\":2740:2755   */\n      add\n        /* \"#utility.yul\":2736:2760   */\n      add\n        /* \"#utility.yul\":2729:2764   */\n      mstore\n        /* \"#utility.yul\":2783:2789   */\n      dup1\n        /* \"#utility.yul\":2773:2789   */\n      swap8\n      pop\n      pop\n      pop\n      pop\n      pop\n      pop\n        /* \"#utility.yul\":2836:2838   */\n      0x40\n        /* \"#utility.yul\":2825:2834   */\n      dup6\n        /* \"#utility.yul\":2821:2839   */\n      add\n        /* \"#utility.yul\":2808:2840   */\n      calldataload\n        /* \"#utility.yul\":2798:2840   */\n      swap2\n      pop\n        /* \"#utility.yul\":2859:2895   */\n      tag_81\n        /* \"#utility.yul\":2891:2893   */\n      0x60\n        /* \"#utility.yul\":2880:2889   */\n      dup7\n        /* \"#utility.yul\":2876:2894   */\n      add\n        /* \"#utility.yul\":2859:2895   */\n      tag_52\n      jump\t// in\n    tag_81:\n        /* \"#utility.yul\":2849:2895   */\n      swap1\n      pop\n        /* \"#utility.yul\":1766:2901   */\n      swap3\n      swap6\n      swap2\n      swap5\n      pop\n      swap3\n      pop\n      jump\t// out\n        /* \"#utility.yul\":2906:3564   */\n    tag_30:\n        /* \"#utility.yul\":3077:3079   */\n      0x20\n        /* \"#utility.yul\":3129:3150   */\n      dup1\n      dup3\n      mstore\n        /* \"#utility.yul\":3199:3212   */\n      dup3\n      mload\n        /* \"#utility.yul\":3102:3120   */\n      dup3\n      dup3\n      add\n        /* \"#utility.yul\":3221:3243   */\n      dup2\n      swap1\n      mstore\n        /* \"#utility.yul\":3048:3052   */\n      0x00\n      swap2\n        /* \"#utility.yul\":3077:3079   */\n      swap1\n        /* \"#utility.yul\":3300:3315   */\n      dup5\n      dup3\n      add\n      swap1\n        /* \"#utility.yul\":3274:3276   */\n      0x40\n        /* \"#utility.yul\":3259:3277   */\n      dup6\n      add\n      swap1\n        /* \"#utility.yul\":3048:3052   */\n      dup5\n        /* \"#utility.yul\":3343:3538   */\n    tag_83:\n        /* \"#utility.yul\":3357:3363   */\n      dup2\n        /* \"#utility.yul\":3354:3355   */\n      dup2\n        /* \"#utility.yul\":3351:3364   */\n      lt\n        /* \"#utility.yul\":3343:3538   */\n      iszero\n      tag_85\n      jumpi\n        /* \"#utility.yul\":3422:3435   */\n      dup4\n      mload\n      sub(shl(0xa0, 0x01), 0x01)\n        /* \"#utility.yul\":3418:3457   */\n      and\n        /* \"#utility.yul\":3406:3458   */\n      dup4\n      mstore\n        /* \"#utility.yul\":3513:3528   */\n      swap3\n      dup5\n      add\n      swap3\n        /* \"#utility.yul\":3478:3490   */\n      swap2\n      dup5\n      add\n      swap2\n        /* \"#utility.yul\":3454:3455   */\n      0x01\n        /* \"#utility.yul\":3372:3381   */\n      add\n        /* \"#utility.yul\":3343:3538   */\n      jump(tag_83)\n    tag_85:\n      pop\n        /* \"#utility.yul\":3555:3558   */\n      swap1\n      swap7\n        /* \"#utility.yul\":2906:3564   */\n      swap6\n      pop\n      pop\n      pop\n      pop\n      pop\n      pop\n      jump\t// out\n        /* \"#utility.yul\":3569:3949   */\n    tag_35:\n        /* \"#utility.yul\":3648:3649   */\n      0x01\n        /* \"#utility.yul\":3644:3656   */\n      dup2\n      dup2\n      shr\n      swap1\n        /* \"#utility.yul\":3691:3703   */\n      dup3\n      and\n      dup1\n        /* \"#utility.yul\":3712:3773   */\n      tag_87\n      jumpi\n        /* \"#utility.yul\":3766:3770   */\n      0x7f\n        /* \"#utility.yul\":3758:3764   */\n      dup3\n        /* \"#utility.yul\":3754:3771   */\n      and\n        /* \"#utility.yul\":3744:3771   */\n      swap2\n      pop\n        /* \"#utility.yul\":3712:3773   */\n    tag_87:\n        /* \"#utility.yul\":3819:3821   */\n      0x20\n        /* \"#utility.yul\":3811:3817   */\n      dup3\n        /* \"#utility.yul\":3808:3822   */\n      lt\n        /* \"#utility.yul\":3788:3806   */\n      dup2\n        /* \"#utility.yul\":3785:3823   */\n      sub\n        /* \"#utility.yul\":3782:3943   */\n      tag_88\n      jumpi\n        /* \"#utility.yul\":3865:3875   */\n      0x4e487b71\n        /* \"#utility.yul\":3860:3863   */\n      0xe0\n        /* \"#utility.yul\":3856:3876   */\n      shl\n        /* \"#utility.yul\":3853:3854   */\n      0x00\n        /* \"#utility.yul\":3846:3877   */\n      mstore\n        /* \"#utility.yul\":3900:3904   */\n      0x22\n        /* \"#utility.yul\":3897:3898   */\n      0x04\n        /* \"#utility.yul\":3890:3905   */\n      mstore\n        /* \"#utility.yul\":3928:3932   */\n      0x24\n        /* \"#utility.yul\":3925:3926   */\n      0x00\n        /* \"#utility.yul\":3918:3933   */\n      revert\n        /* \"#utility.yul\":3782:3943   */\n    tag_88:\n      pop\n        /* \"#utility.yul\":3569:3949   */\n      swap2\n      swap1\n      pop\n      jump\t// out\n        /* \"#utility.yul\":4411:4956   */\n    tag_54:\n        /* \"#utility.yul\":4513:4515   */\n      0x1f\n        /* \"#utility.yul\":4508:4511   */\n      dup3\n        /* \"#utility.yul\":4505:4516   */\n      gt\n        /* \"#utility.yul\":4502:4950   */\n      iszero\n      tag_92\n      jumpi\n        /* \"#utility.yul\":4549:4550   */\n      0x00\n        /* \"#utility.yul\":4574:4579   */\n      dup2\n        /* \"#utility.yul\":4570:4572   */\n      dup2\n        /* \"#utility.yul\":4563:4580   */\n      mstore\n        /* \"#utility.yul\":4619:4623   */\n      0x20\n        /* \"#utility.yul\":4615:4617   */\n      dup2\n        /* \"#utility.yul\":4605:4624   */\n      keccak256\n        /* \"#utility.yul\":4689:4691   */\n      0x1f\n        /* \"#utility.yul\":4677:4687   */\n      dup6\n        /* \"#utility.yul\":4673:4692   */\n      add\n        /* \"#utility.yul\":4670:4671   */\n      0x05\n        /* \"#utility.yul\":4666:4693   */\n      shr\n        /* \"#utility.yul\":4660:4664   */\n      dup2\n        /* \"#utility.yul\":4656:4694   */\n      add\n        /* \"#utility.yul\":4725:4729   */\n      0x20\n        /* \"#utility.yul\":4713:4723   */\n      dup7\n        /* \"#utility.yul\":4710:4730   */\n      lt\n        /* \"#utility.yul\":4707:4754   */\n      iszero\n      tag_93\n      jumpi\n      pop\n        /* \"#utility.yul\":4748:4752   */\n      dup1\n        /* \"#utility.yul\":4707:4754   */\n    tag_93:\n        /* \"#utility.yul\":4803:4805   */\n      0x1f\n        /* \"#utility.yul\":4798:4801   */\n      dup6\n        /* \"#utility.yul\":4794:4806   */\n      add\n        /* \"#utility.yul\":4791:4792   */\n      0x05\n        /* \"#utility.yul\":4787:4807   */\n      shr\n        /* \"#utility.yul\":4781:4785   */\n      dup3\n        /* \"#utility.yul\":4777:4808   */\n      add\n        /* \"#utility.yul\":4767:4808   */\n      swap2\n      pop\n        /* \"#utility.yul\":4858:4940   */\n    tag_94:\n        /* \"#utility.yul\":4876:4878   */\n      dup2\n        /* \"#utility.yul\":4869:4874   */\n      dup2\n        /* \"#utility.yul\":4866:4879   */\n      lt\n        /* \"#utility.yul\":4858:4940   */\n      iszero\n      tag_96\n      jumpi\n        /* \"#utility.yul\":4921:4938   */\n      dup3\n      dup2\n      sstore\n        /* \"#utility.yul\":4902:4903   */\n      0x01\n        /* \"#utility.yul\":4891:4904   */\n      add\n        /* \"#utility.yul\":4858:4940   */\n      jump(tag_94)\n    tag_96:\n        /* \"#utility.yul\":4862:4865   */\n      pop\n      pop\n      pop\n        /* \"#utility.yul\":4502:4950   */\n    tag_92:\n        /* \"#utility.yul\":4411:4956   */\n      pop\n      pop\n      pop\n      jump\t// out\n        /* \"#utility.yul\":5132:6484   */\n    tag_46:\n        /* \"#utility.yul\":5258:5261   */\n      dup2\n        /* \"#utility.yul\":5252:5262   */\n      mload\n        /* \"#utility.yul\":5285:5303   */\n      0xffffffffffffffff\n        /* \"#utility.yul\":5277:5283   */\n      dup2\n        /* \"#utility.yul\":5274:5304   */\n      gt\n        /* \"#utility.yul\":5271:5327   */\n      iszero\n      tag_100\n      jumpi\n        /* \"#utility.yul\":5307:5325   */\n      tag_100\n      tag_51\n      jump\t// in\n    tag_100:\n        /* \"#utility.yul\":5336:5433   */\n      tag_101\n        /* \"#utility.yul\":5426:5432   */\n      dup2\n        /* \"#utility.yul\":5386:5424   */\n      tag_102\n        /* \"#utility.yul\":5418:5422   */\n      dup5\n        /* \"#utility.yul\":5412:5423   */\n      sload\n        /* \"#utility.yul\":5386:5424   */\n      tag_35\n      jump\t// in\n    tag_102:\n        /* \"#utility.yul\":5380:5384   */\n      dup5\n        /* \"#utility.yul\":5336:5433   */\n      tag_54\n      jump\t// in\n    tag_101:\n        /* \"#utility.yul\":5488:5492   */\n      0x20\n      dup1\n        /* \"#utility.yul\":5552:5554   */\n      0x1f\n        /* \"#utility.yul\":5541:5555   */\n      dup4\n      gt\n        /* \"#utility.yul\":5569:5570   */\n      0x01\n        /* \"#utility.yul\":5564:6227   */\n      dup2\n      eq\n      tag_104\n      jumpi\n        /* \"#utility.yul\":6271:6272   */\n      0x00\n        /* \"#utility.yul\":6288:6294   */\n      dup5\n        /* \"#utility.yul\":6285:6374   */\n      iszero\n      tag_105\n      jumpi\n      pop\n        /* \"#utility.yul\":6340:6359   */\n      dup6\n      dup4\n      add\n        /* \"#utility.yul\":6334:6360   */\n      mload\n        /* \"#utility.yul\":6285:6374   */\n    tag_105:\n      not(0x00)\n        /* \"#utility.yul\":5089:5090   */\n      0x03\n        /* \"#utility.yul\":5085:5096   */\n      dup7\n      swap1\n      shl\n        /* \"#utility.yul\":5081:5105   */\n      shr\n        /* \"#utility.yul\":5077:5106   */\n      not\n        /* \"#utility.yul\":5067:5107   */\n      and\n        /* \"#utility.yul\":5113:5114   */\n      0x01\n        /* \"#utility.yul\":5109:5120   */\n      dup6\n      swap1\n      shl\n        /* \"#utility.yul\":5064:5121   */\n      or\n        /* \"#utility.yul\":6387:6468   */\n      dup6\n      sstore\n        /* \"#utility.yul\":5534:6478   */\n      jump(tag_96)\n        /* \"#utility.yul\":5564:6227   */\n    tag_104:\n        /* \"#utility.yul\":4358:4359   */\n      0x00\n        /* \"#utility.yul\":4351:4365   */\n      dup6\n      dup2\n      mstore\n        /* \"#utility.yul\":4395:4399   */\n      0x20\n        /* \"#utility.yul\":4382:4400   */\n      dup2\n      keccak256\n      not(0x1f)\n        /* \"#utility.yul\":5600:5620   */\n      dup7\n      and\n      swap2\n        /* \"#utility.yul\":5718:5954   */\n    tag_108:\n        /* \"#utility.yul\":5732:5739   */\n      dup3\n        /* \"#utility.yul\":5729:5730   */\n      dup2\n        /* \"#utility.yul\":5726:5740   */\n      lt\n        /* \"#utility.yul\":5718:5954   */\n      iszero\n      tag_110\n      jumpi\n        /* \"#utility.yul\":5821:5840   */\n      dup9\n      dup7\n      add\n        /* \"#utility.yul\":5815:5841   */\n      mload\n        /* \"#utility.yul\":5800:5842   */\n      dup3\n      sstore\n        /* \"#utility.yul\":5913:5940   */\n      swap5\n      dup5\n      add\n      swap5\n        /* \"#utility.yul\":5881:5882   */\n      0x01\n        /* \"#utility.yul\":5869:5883   */\n      swap1\n      swap2\n      add\n      swap1\n        /* \"#utility.yul\":5748:5767   */\n      dup5\n      add\n        /* \"#utility.yul\":5718:5954   */\n      jump(tag_108)\n    tag_110:\n        /* \"#utility.yul\":5722:5725   */\n      pop\n        /* \"#utility.yul\":5982:5988   */\n      dup6\n        /* \"#utility.yul\":5973:5980   */\n      dup3\n        /* \"#utility.yul\":5970:5989   */\n      lt\n        /* \"#utility.yul\":5967:6168   */\n      iszero\n      tag_111\n      jumpi\n        /* \"#utility.yul\":6043:6062   */\n      dup8\n      dup6\n      add\n        /* \"#utility.yul\":6037:6063   */\n      mload\n      not(0x00)\n        /* \"#utility.yul\":6126:6127   */\n      0x03\n        /* \"#utility.yul\":6122:6136   */\n      dup9\n      swap1\n      shl\n        /* \"#utility.yul\":6138:6141   */\n      0xf8\n        /* \"#utility.yul\":6118:6142   */\n      and\n        /* \"#utility.yul\":6114:6151   */\n      shr\n        /* \"#utility.yul\":6110:6152   */\n      not\n        /* \"#utility.yul\":6095:6153   */\n      and\n        /* \"#utility.yul\":6080:6154   */\n      dup2\n      sstore\n        /* \"#utility.yul\":5967:6168   */\n    tag_111:\n      pop\n      pop\n      pop\n      pop\n      pop\n        /* \"#utility.yul\":6214:6215   */\n      0x01\n        /* \"#utility.yul\":6198:6212   */\n      swap1\n      dup2\n      shl\n        /* \"#utility.yul\":6194:6216   */\n      add\n        /* \"#utility.yul\":6181:6217   */\n      swap1\n      sstore\n      pop\n        /* \"#utility.yul\":5132:6484   */\n      jump\t// out\n\n    auxdata: 0xa26469706673582212205a3fbd376d7f963fb948d0090f3dec0e87ad42cfef6dafd20658573bdba68d8464736f6c63430008110033\n}\n",
				"bytecode": {
					"linkReferences": {},
					"object": "60a060405234801561001057600080fd5b50336080526080516106dd61003660003960008181606901526101ee01526106dd6000f3fe608060405234801561001057600080fd5b50600436106100575760003560e01c80638da5cb5b1461005c57806390159c9414610098578063a8158ea8146100d4578063b57bd629146100f6578063f66122e61461010b575b600080fd5b6040516001600160a01b037f00000000000000000000000000000000000000000000000000000000000000001681526020015b60405180910390f35b6100c46100a636600461038d565b6001600160a01b031660009081526001602052604090205460ff1690565b604051901515815260200161008f565b6100e76100e236600461038d565b610120565b60405161008f939291906103af565b610109610104366004610435565b6101ec565b005b61011361030f565b60405161008f9190610511565b6001600160a01b03811660009081526002602081905260408220600181015491810154815460609493849392909160ff90911690839061015f9061055e565b80601f016020809104026020016040519081016040528092919081815260200182805461018b9061055e565b80156101d85780601f106101ad576101008083540402835291602001916101d8565b820191906000526020600020905b8154815290600101906020018083116101bb57829003601f168201915b505050505092509250925092509193909250565b7f00000000000000000000000000000000000000000000000000000000000000006001600160a01b0316331461024e5760405162461bcd60e51b81526020600482015260036024820152624e544f60e81b604482015260640160405180910390fd5b60008054600180820183557f290decd9548b62a8d60345a988386fc84ba6bc95484008f6362f93160ef3e56390910180546001600160a01b0319166001600160a01b03881690811790915580835260208281526040808520805460ff1916909417909355825160608101845287815280820187905260ff861681850152918452600290529120815181906102e290826105e7565b50602082015160018201556040909101516002909101805460ff191660ff90921691909117905550505050565b6060600080548060200260200160405190810160405280929190818152602001828054801561036757602002820191906000526020600020905b81546001600160a01b03168152600190910190602001808311610349575b5050505050905090565b80356001600160a01b038116811461038857600080fd5b919050565b60006020828403121561039f57600080fd5b6103a882610371565b9392505050565b606081526000845180606084015260005b818110156103dd57602081880181015160808684010152016103c0565b506000608082850101526080601f19601f83011684010191505083602083015260ff83166040830152949350505050565b634e487b7160e01b600052604160045260246000fd5b803560ff8116811461038857600080fd5b6000806000806080858703121561044b57600080fd5b61045485610371565b9350602085013567ffffffffffffffff8082111561047157600080fd5b818701915087601f83011261048557600080fd5b8135818111156104975761049761040e565b604051601f8201601f19908116603f011681019083821181831017156104bf576104bf61040e565b816040528281528a60208487010111156104d857600080fd5b8260208601602083013760006020848301015280975050505050506040850135915061050660608601610424565b905092959194509250565b6020808252825182820181905260009190848201906040850190845b818110156105525783516001600160a01b03168352928401929184019160010161052d565b50909695505050505050565b600181811c9082168061057257607f821691505b60208210810361059257634e487b7160e01b600052602260045260246000fd5b50919050565b601f8211156105e257600081815260208120601f850160051c810160208610156105bf5750805b601f850160051c820191505b818110156105de578281556001016105cb565b5050505b505050565b815167ffffffffffffffff8111156106015761060161040e565b6106158161060f845461055e565b84610598565b602080601f83116001811461064a57600084156106325750858301515b600019600386901b1c1916600185901b1785556105de565b600085815260208120601f198616915b828110156106795788860151825594840194600190910190840161065a565b50858210156106975787850151600019600388901b60f8161c191681555b5050505050600190811b0190555056fea26469706673582212205a3fbd376d7f963fb948d0090f3dec0e87ad42cfef6dafd20658573bdba68d8464736f6c63430008110033",
					"opcodes": "PUSH1 0xA0 PUSH1 0x40 MSTORE CALLVALUE DUP1 ISZERO PUSH2 0x10 JUMPI PUSH1 0x0 DUP1 REVERT JUMPDEST POP CALLER PUSH1 0x80 MSTORE PUSH1 0x80 MLOAD PUSH2 0x6DD PUSH2 0x36 PUSH1 0x0 CODECOPY PUSH1 0x0 DUP2 DUP2 PUSH1 0x69 ADD MSTORE PUSH2 0x1EE ADD MSTORE PUSH2 0x6DD PUSH1 0x0 RETURN INVALID PUSH1 0x80 PUSH1 0x40 MSTORE CALLVALUE DUP1 ISZERO PUSH2 0x10 JUMPI PUSH1 0x0 DUP1 REVERT JUMPDEST POP PUSH1 0x4 CALLDATASIZE LT PUSH2 0x57 JUMPI PUSH1 0x0 CALLDATALOAD PUSH1 0xE0 SHR DUP1 PUSH4 0x8DA5CB5B EQ PUSH2 0x5C JUMPI DUP1 PUSH4 0x90159C94 EQ PUSH2 0x98 JUMPI DUP1 PUSH4 0xA8158EA8 EQ PUSH2 0xD4 JUMPI DUP1 PUSH4 0xB57BD629 EQ PUSH2 0xF6 JUMPI DUP1 PUSH4 0xF66122E6 EQ PUSH2 0x10B JUMPI JUMPDEST PUSH1 0x0 DUP1 REVERT JUMPDEST PUSH1 0x40 MLOAD PUSH1 0x1 PUSH1 0x1 PUSH1 0xA0 SHL SUB PUSH32 0x0 AND DUP2 MSTORE PUSH1 0x20 ADD JUMPDEST PUSH1 0x40 MLOAD DUP1 SWAP2 SUB SWAP1 RETURN JUMPDEST PUSH2 0xC4 PUSH2 0xA6 CALLDATASIZE PUSH1 0x4 PUSH2 0x38D JUMP JUMPDEST PUSH1 0x1 PUSH1 0x1 PUSH1 0xA0 SHL SUB AND PUSH1 0x0 SWAP1 DUP2 MSTORE PUSH1 0x1 PUSH1 0x20 MSTORE PUSH1 0x40 SWAP1 KECCAK256 SLOAD PUSH1 0xFF AND SWAP1 JUMP JUMPDEST PUSH1 0x40 MLOAD SWAP1 ISZERO ISZERO DUP2 MSTORE PUSH1 0x20 ADD PUSH2 0x8F JUMP JUMPDEST PUSH2 0xE7 PUSH2 0xE2 CALLDATASIZE PUSH1 0x4 PUSH2 0x38D JUMP JUMPDEST PUSH2 0x120 JUMP JUMPDEST PUSH1 0x40 MLOAD PUSH2 0x8F SWAP4 SWAP3 SWAP2 SWAP1 PUSH2 0x3AF JUMP JUMPDEST PUSH2 0x109 PUSH2 0x104 CALLDATASIZE PUSH1 0x4 PUSH2 0x435 JUMP JUMPDEST PUSH2 0x1EC JUMP JUMPDEST STOP JUMPDEST PUSH2 0x113 PUSH2 0x30F JUMP JUMPDEST PUSH1 0x40 MLOAD PUSH2 0x8F SWAP2 SWAP1 PUSH2 0x511 JUMP JUMPDEST PUSH1 0x1 PUSH1 0x1 PUSH1 0xA0 SHL SUB DUP2 AND PUSH1 0x0 SWAP1 DUP2 MSTORE PUSH1 0x2 PUSH1 0x20 DUP2 SWAP1 MSTORE PUSH1 0x40 DUP3 KECCAK256 PUSH1 0x1 DUP2 ADD SLOAD SWAP2 DUP2 ADD SLOAD DUP2 SLOAD PUSH1 0x60 SWAP5 SWAP4 DUP5 SWAP4 SWAP3 SWAP1 SWAP2 PUSH1 0xFF SWAP1 SWAP2 AND SWAP1 DUP4 SWAP1 PUSH2 0x15F SWAP1 PUSH2 0x55E JUMP JUMPDEST DUP1 PUSH1 0x1F ADD PUSH1 0x20 DUP1 SWAP2 DIV MUL PUSH1 0x20 ADD PUSH1 0x40 MLOAD SWAP1 DUP2 ADD PUSH1 0x40 MSTORE DUP1 SWAP3 SWAP2 SWAP1 DUP2 DUP2 MSTORE PUSH1 0x20 ADD DUP3 DUP1 SLOAD PUSH2 0x18B SWAP1 PUSH2 0x55E JUMP JUMPDEST DUP1 ISZERO PUSH2 0x1D8 JUMPI DUP1 PUSH1 0x1F LT PUSH2 0x1AD JUMPI PUSH2 0x100 DUP1 DUP4 SLOAD DIV MUL DUP4 MSTORE SWAP2 PUSH1 0x20 ADD SWAP2 PUSH2 0x1D8 JUMP JUMPDEST DUP3 ADD SWAP2 SWAP1 PUSH1 0x0 MSTORE PUSH1 0x20 PUSH1 0x0 KECCAK256 SWAP1 JUMPDEST DUP2 SLOAD DUP2 MSTORE SWAP1 PUSH1 0x1 ADD SWAP1 PUSH1 0x20 ADD DUP1 DUP4 GT PUSH2 0x1BB JUMPI DUP3 SWAP1 SUB PUSH1 0x1F AND DUP3 ADD SWAP2 JUMPDEST POP POP POP POP POP SWAP3 POP SWAP3 POP SWAP3 POP SWAP3 POP SWAP2 SWAP4 SWAP1 SWAP3 POP JUMP JUMPDEST PUSH32 0x0 PUSH1 0x1 PUSH1 0x1 PUSH1 0xA0 SHL SUB AND CALLER EQ PUSH2 0x24E JUMPI PUSH1 0x40 MLOAD PUSH3 0x461BCD PUSH1 0xE5 SHL DUP2 MSTORE PUSH1 0x20 PUSH1 0x4 DUP3 ADD MSTORE PUSH1 0x3 PUSH1 0x24 DUP3 ADD MSTORE PUSH3 0x4E544F PUSH1 0xE8 SHL PUSH1 0x44 DUP3 ADD MSTORE PUSH1 0x64 ADD PUSH1 0x40 MLOAD DUP1 SWAP2 SUB SWAP1 REVERT JUMPDEST PUSH1 0x0 DUP1 SLOAD PUSH1 0x1 DUP1 DUP3 ADD DUP4 SSTORE PUSH32 0x290DECD9548B62A8D60345A988386FC84BA6BC95484008F6362F93160EF3E563 SWAP1 SWAP2 ADD DUP1 SLOAD PUSH1 0x1 PUSH1 0x1 PUSH1 0xA0 SHL SUB NOT AND PUSH1 0x1 PUSH1 0x1 PUSH1 0xA0 SHL SUB DUP9 AND SWAP1 DUP2 OR SWAP1 SWAP2 SSTORE DUP1 DUP4 MSTORE PUSH1 0x20 DUP3 DUP2 MSTORE PUSH1 0x40 DUP1 DUP6 KECCAK256 DUP1 SLOAD PUSH1 0xFF NOT AND SWAP1 SWAP5 OR SWAP1 SWAP4 SSTORE DUP3 MLOAD PUSH1 0x60 DUP2 ADD DUP5 MSTORE DUP8 DUP2 MSTORE DUP1 DUP3 ADD DUP8 SWAP1 MSTORE PUSH1 0xFF DUP7 AND DUP2 DUP6 ADD MSTORE SWAP2 DUP5 MSTORE PUSH1 0x2 SWAP1 MSTORE SWAP2 KECCAK256 DUP2 MLOAD DUP2 SWAP1 PUSH2 0x2E2 SWAP1 DUP3 PUSH2 0x5E7 JUMP JUMPDEST POP PUSH1 0x20 DUP3 ADD MLOAD PUSH1 0x1 DUP3 ADD SSTORE PUSH1 0x40 SWAP1 SWAP2 ADD MLOAD PUSH1 0x2 SWAP1 SWAP2 ADD DUP1 SLOAD PUSH1 0xFF NOT AND PUSH1 0xFF SWAP1 SWAP3 AND SWAP2 SWAP1 SWAP2 OR SWAP1 SSTORE POP POP POP POP JUMP JUMPDEST PUSH1 0x60 PUSH1 0x0 DUP1 SLOAD DUP1 PUSH1 0x20 MUL PUSH1 0x20 ADD PUSH1 0x40 MLOAD SWAP1 DUP2 ADD PUSH1 0x40 MSTORE DUP1 SWAP3 SWAP2 SWAP1 DUP2 DUP2 MSTORE PUSH1 0x20 ADD DUP3 DUP1 SLOAD DUP1 ISZERO PUSH2 0x367 JUMPI PUSH1 0x20 MUL DUP3 ADD SWAP2 SWAP1 PUSH1 0x0 MSTORE PUSH1 0x20 PUSH1 0x0 KECCAK256 SWAP1 JUMPDEST DUP2 SLOAD PUSH1 0x1 PUSH1 0x1 PUSH1 0xA0 SHL SUB AND DUP2 MSTORE PUSH1 0x1 SWAP1 SWAP2 ADD SWAP1 PUSH1 0x20 ADD DUP1 DUP4 GT PUSH2 0x349 JUMPI JUMPDEST POP POP POP POP POP SWAP1 POP SWAP1 JUMP JUMPDEST DUP1 CALLDATALOAD PUSH1 0x1 PUSH1 0x1 PUSH1 0xA0 SHL SUB DUP2 AND DUP2 EQ PUSH2 0x388 JUMPI PUSH1 0x0 DUP1 REVERT JUMPDEST SWAP2 SWAP1 POP JUMP JUMPDEST PUSH1 0x0 PUSH1 0x20 DUP3 DUP5 SUB SLT ISZERO PUSH2 0x39F JUMPI PUSH1 0x0 DUP1 REVERT JUMPDEST PUSH2 0x3A8 DUP3 PUSH2 0x371 JUMP JUMPDEST SWAP4 SWAP3 POP POP POP JUMP JUMPDEST PUSH1 0x60 DUP2 MSTORE PUSH1 0x0 DUP5 MLOAD DUP1 PUSH1 0x60 DUP5 ADD MSTORE PUSH1 0x0 JUMPDEST DUP2 DUP2 LT ISZERO PUSH2 0x3DD JUMPI PUSH1 0x20 DUP2 DUP9 ADD DUP2 ADD MLOAD PUSH1 0x80 DUP7 DUP5 ADD ADD MSTORE ADD PUSH2 0x3C0 JUMP JUMPDEST POP PUSH1 0x0 PUSH1 0x80 DUP3 DUP6 ADD ADD MSTORE PUSH1 0x80 PUSH1 0x1F NOT PUSH1 0x1F DUP4 ADD AND DUP5 ADD ADD SWAP2 POP POP DUP4 PUSH1 0x20 DUP4 ADD MSTORE PUSH1 0xFF DUP4 AND PUSH1 0x40 DUP4 ADD MSTORE SWAP5 SWAP4 POP POP POP POP JUMP JUMPDEST PUSH4 0x4E487B71 PUSH1 0xE0 SHL PUSH1 0x0 MSTORE PUSH1 0x41 PUSH1 0x4 MSTORE PUSH1 0x24 PUSH1 0x0 REVERT JUMPDEST DUP1 CALLDATALOAD PUSH1 0xFF DUP2 AND DUP2 EQ PUSH2 0x388 JUMPI PUSH1 0x0 DUP1 REVERT JUMPDEST PUSH1 0x0 DUP1 PUSH1 0x0 DUP1 PUSH1 0x80 DUP6 DUP8 SUB SLT ISZERO PUSH2 0x44B JUMPI PUSH1 0x0 DUP1 REVERT JUMPDEST PUSH2 0x454 DUP6 PUSH2 0x371 JUMP JUMPDEST SWAP4 POP PUSH1 0x20 DUP6 ADD CALLDATALOAD PUSH8 0xFFFFFFFFFFFFFFFF DUP1 DUP3 GT ISZERO PUSH2 0x471 JUMPI PUSH1 0x0 DUP1 REVERT JUMPDEST DUP2 DUP8 ADD SWAP2 POP DUP8 PUSH1 0x1F DUP4 ADD SLT PUSH2 0x485 JUMPI PUSH1 0x0 DUP1 REVERT JUMPDEST DUP2 CALLDATALOAD DUP2 DUP2 GT ISZERO PUSH2 0x497 JUMPI PUSH2 0x497 PUSH2 0x40E JUMP JUMPDEST PUSH1 0x40 MLOAD PUSH1 0x1F DUP3 ADD PUSH1 0x1F NOT SWAP1 DUP2 AND PUSH1 0x3F ADD AND DUP2 ADD SWAP1 DUP4 DUP3 GT DUP2 DUP4 LT OR ISZERO PUSH2 0x4BF JUMPI PUSH2 0x4BF PUSH2 0x40E JUMP JUMPDEST DUP2 PUSH1 0x40 MSTORE DUP3 DUP2 MSTORE DUP11 PUSH1 0x20 DUP5 DUP8 ADD ADD GT ISZERO PUSH2 0x4D8 JUMPI PUSH1 0x0 DUP1 REVERT JUMPDEST DUP3 PUSH1 0x20 DUP7 ADD PUSH1 0x20 DUP4 ADD CALLDATACOPY PUSH1 0x0 PUSH1 0x20 DUP5 DUP4 ADD ADD MSTORE DUP1 SWAP8 POP POP POP POP POP POP PUSH1 0x40 DUP6 ADD CALLDATALOAD SWAP2 POP PUSH2 0x506 PUSH1 0x60 DUP7 ADD PUSH2 0x424 JUMP JUMPDEST SWAP1 POP SWAP3 SWAP6 SWAP2 SWAP5 POP SWAP3 POP JUMP JUMPDEST PUSH1 0x20 DUP1 DUP3 MSTORE DUP3 MLOAD DUP3 DUP3 ADD DUP2 SWAP1 MSTORE PUSH1 0x0 SWAP2 SWAP1 DUP5 DUP3 ADD SWAP1 PUSH1 0x40 DUP6 ADD SWAP1 DUP5 JUMPDEST DUP2 DUP2 LT ISZERO PUSH2 0x552 JUMPI DUP4 MLOAD PUSH1 0x1 PUSH1 0x1 PUSH1 0xA0 SHL SUB AND DUP4 MSTORE SWAP3 DUP5 ADD SWAP3 SWAP2 DUP5 ADD SWAP2 PUSH1 0x1 ADD PUSH2 0x52D JUMP JUMPDEST POP SWAP1 SWAP7 SWAP6 POP POP POP POP POP POP JUMP JUMPDEST PUSH1 0x1 DUP2 DUP2 SHR SWAP1 DUP3 AND DUP1 PUSH2 0x572 JUMPI PUSH1 0x7F DUP3 AND SWAP2 POP JUMPDEST PUSH1 0x20 DUP3 LT DUP2 SUB PUSH2 0x592 JUMPI PUSH4 0x4E487B71 PUSH1 0xE0 SHL PUSH1 0x0 MSTORE PUSH1 0x22 PUSH1 0x4 MSTORE PUSH1 0x24 PUSH1 0x0 REVERT JUMPDEST POP SWAP2 SWAP1 POP JUMP JUMPDEST PUSH1 0x1F DUP3 GT ISZERO PUSH2 0x5E2 JUMPI PUSH1 0x0 DUP2 DUP2 MSTORE PUSH1 0x20 DUP2 KECCAK256 PUSH1 0x1F DUP6 ADD PUSH1 0x5 SHR DUP2 ADD PUSH1 0x20 DUP7 LT ISZERO PUSH2 0x5BF JUMPI POP DUP1 JUMPDEST PUSH1 0x1F DUP6 ADD PUSH1 0x5 SHR DUP3 ADD SWAP2 POP JUMPDEST DUP2 DUP2 LT ISZERO PUSH2 0x5DE JUMPI DUP3 DUP2 SSTORE PUSH1 0x1 ADD PUSH2 0x5CB JUMP JUMPDEST POP POP POP JUMPDEST POP POP POP JUMP JUMPDEST DUP2 MLOAD PUSH8 0xFFFFFFFFFFFFFFFF DUP2 GT ISZERO PUSH2 0x601 JUMPI PUSH2 0x601 PUSH2 0x40E JUMP JUMPDEST PUSH2 0x615 DUP2 PUSH2 0x60F DUP5 SLOAD PUSH2 0x55E JUMP JUMPDEST DUP5 PUSH2 0x598 JUMP JUMPDEST PUSH1 0x20 DUP1 PUSH1 0x1F DUP4 GT PUSH1 0x1 DUP2 EQ PUSH2 0x64A JUMPI PUSH1 0x0 DUP5 ISZERO PUSH2 0x632 JUMPI POP DUP6 DUP4 ADD MLOAD JUMPDEST PUSH1 0x0 NOT PUSH1 0x3 DUP7 SWAP1 SHL SHR NOT AND PUSH1 0x1 DUP6 SWAP1 SHL OR DUP6 SSTORE PUSH2 0x5DE JUMP JUMPDEST PUSH1 0x0 DUP6 DUP2 MSTORE PUSH1 0x20 DUP2 KECCAK256 PUSH1 0x1F NOT DUP7 AND SWAP2 JUMPDEST DUP3 DUP2 LT ISZERO PUSH2 0x679 JUMPI DUP9 DUP7 ADD MLOAD DUP3 SSTORE SWAP5 DUP5 ADD SWAP5 PUSH1 0x1 SWAP1 SWAP2 ADD SWAP1 DUP5 ADD PUSH2 0x65A JUMP JUMPDEST POP DUP6 DUP3 LT ISZERO PUSH2 0x697 JUMPI DUP8 DUP6 ADD MLOAD PUSH1 0x0 NOT PUSH1 0x3 DUP9 SWAP1 SHL PUSH1 0xF8 AND SHR NOT AND DUP2 SSTORE JUMPDEST POP POP POP POP POP PUSH1 0x1 SWAP1 DUP2 SHL ADD SWAP1 SSTORE POP JUMP INVALID LOG2 PUSH5 0x6970667358 0x22 SLT KECCAK256 GAS EXTCODEHASH 0xBD CALLDATACOPY PUSH14 0x7F963FB948D0090F3DEC0E87AD42 0xCF 0xEF PUSH14 0xAFD20658573BDBA68D8464736F6C PUSH4 0x43000811 STOP CALLER "
				},
				"gasEstimates": {
					"creation": {
						"codeDepositCost": "351400",
						"executionCost": "infinite",
						"totalCost": "infinite"
					},
					"external": {
						"companyMetadata(address)": "infinite",
						"isRegisteredCompany(address)": "2549",
						"owner()": "infinite",
						"registerCompany(address,string,bytes32,uint8)": "infinite",
						"registeredCompanies()": "infinite"
					}
				},
				"methodIdentifiers": {
					"companyMetadata(address)": "a8158ea8",
					"isRegisteredCompany(address)": "90159c94",
					"owner()": "8da5cb5b",
					"registerCompany(address,string,bytes32,uint8)": "b57bd629",
					"registeredCompanies()": "f66122e6"
				}
			},
			"storageLayout": {
				"storage": [
					{
						"astId": 11,
						"contract": "contracts/BondDB.sol:BondDB",
						"label": "_registeredCompanies",
						"offset": 0,
						"slot": "0",
						"type": "t_array(t_address)dyn_storage"
					},
					{
						"astId": 15,
						"contract": "contracts/BondDB.sol:BondDB",
						"label": "_isRegisteredCompany",
						"offset": 0,
						"slot": "1",
						"type": "t_mapping(t_address,t_bool)"
					},
					{
						"astId": 20,
						"contract": "contracts/BondDB.sol:BondDB",
						"label": "_companyMetadata",
						"offset": 0,
						"slot": "2",
						"type": "t_mapping(t_address,t_struct(CompanyMetadata)8_storage)"
					}
				],
				"types": {
					"t_address": {
						"encoding": "inplace",
						"label": "address",
						"numberOfBytes": "20"
					},
					"t_array(t_address)dyn_storage": {
						"base": "t_address",
						"encoding": "dynamic_array",
						"label": "address[]",
						"numberOfBytes": "32"
					},
					"t_bool": {
						"encoding": "inplace",
						"label": "bool",
						"numberOfBytes": "1"
					},
					"t_bytes32": {
						"encoding": "inplace",
						"label": "bytes32",
						"numberOfBytes": "32"
					},
					"t_mapping(t_address,t_bool)": {
						"encoding": "mapping",
						"key": "t_address",
						"label": "mapping(address => bool)",
						"numberOfBytes": "32",
						"value": "t_bool"
					},
					"t_mapping(t_address,t_struct(CompanyMetadata)8_storage)": {
						"encoding": "mapping",
						"key": "t_address",
						"label": "mapping(address => struct BondDB.CompanyMetadata)",
						"numberOfBytes": "32",
						"value": "t_struct(CompanyMetadata)8_storage"
					},
					"t_string_storage": {
						"encoding": "bytes",
						"label": "string",
						"numberOfBytes": "32"
					},
					"t_struct(CompanyMetadata)8_storage": {
						"encoding": "inplace",
						"label": "struct BondDB.CompanyMetadata",
						"members": [
							{
								"astId": 3,
								"contract": "contracts/BondDB.sol:BondDB",
								"label": "name",
								"offset": 0,
								"slot": "0",
								"type": "t_string_storage"
							},
							{
								"astId": 5,
								"contract": "contracts/BondDB.sol:BondDB",
								"label": "hashedIdentity",
								"offset": 0,
								"slot": "1",
								"type": "t_bytes32"
							},
							{
								"astId": 7,
								"contract": "contracts/BondDB.sol:BondDB",
								"label": "tier",
								"offset": 0,
								"slot": "2",
								"type": "t_uint8"
							}
						],
						"numberOfBytes": "96"
					},
					"t_uint8": {
						"encoding": "inplace",
						"label": "uint8",
						"numberOfBytes": "1"
					}
				}
			},
			"userdoc": {
				"kind": "user",
				"methods": {},
				"version": 1
			}
		}
	}
}