{
	"contracts/SoulBoundToken.sol": {
		"SoulBoundToken": {
			"abi": [
				{
					"inputs": [],
					"stateMutability": "nonpayable",
					"type": "constructor"
				},
				{
					"anonymous": false,
					"inputs": [
						{
							"indexed": true,
							"internalType": "address",
							"name": "owner",
							"type": "address"
						},
						{
							"indexed": true,
							"internalType": "address",
							"name": "approved",
							"type": "address"
						},
						{
							"indexed": true,
							"internalType": "uint256",
							"name": "tokenId",
							"type": "uint256"
						}
					],
					"name": "Approval",
					"type": "event"
				},
				{
					"anonymous": false,
					"inputs": [
						{
							"indexed": true,
							"internalType": "address",
							"name": "owner",
							"type": "address"
						},
						{
							"indexed": true,
							"internalType": "address",
							"name": "operator",
							"type": "address"
						},
						{
							"indexed": false,
							"internalType": "bool",
							"name": "approved",
							"type": "bool"
						}
					],
					"name": "ApprovalForAll",
					"type": "event"
				},
				{
					"anonymous": false,
					"inputs": [
						{
							"indexed": true,
							"internalType": "address",
							"name": "previousOwner",
							"type": "address"
						},
						{
							"indexed": true,
							"internalType": "address",
							"name": "newOwner",
							"type": "address"
						}
					],
					"name": "OwnershipTransferred",
					"type": "event"
				},
				{
					"anonymous": false,
					"inputs": [
						{
							"indexed": true,
							"internalType": "address",
							"name": "from",
							"type": "address"
						},
						{
							"indexed": true,
							"internalType": "address",
							"name": "to",
							"type": "address"
						},
						{
							"indexed": true,
							"internalType": "uint256",
							"name": "tokenId",
							"type": "uint256"
						}
					],
					"name": "Transfer",
					"type": "event"
				},
				{
					"inputs": [
						{
							"internalType": "uint256",
							"name": "id",
							"type": "uint256"
						}
					],
					"name": "accessTier",
					"outputs": [
						{
							"internalType": "uint8",
							"name": "",
							"type": "uint8"
						}
					],
					"stateMutability": "view",
					"type": "function"
				},
				{
					"inputs": [
						{
							"internalType": "address",
							"name": "owner",
							"type": "address"
						}
					],
					"name": "accessTier",
					"outputs": [
						{
							"internalType": "uint8",
							"name": "",
							"type": "uint8"
						}
					],
					"stateMutability": "view",
					"type": "function"
				},
				{
					"inputs": [
						{
							"internalType": "address",
							"name": "to",
							"type": "address"
						},
						{
							"internalType": "uint256",
							"name": "tokenId",
							"type": "uint256"
						}
					],
					"name": "approve",
					"outputs": [],
					"stateMutability": "nonpayable",
					"type": "function"
				},
				{
					"inputs": [
						{
							"internalType": "address",
							"name": "owner",
							"type": "address"
						}
					],
					"name": "balanceOf",
					"outputs": [
						{
							"internalType": "uint256",
							"name": "",
							"type": "uint256"
						}
					],
					"stateMutability": "view",
					"type": "function"
				},
				{
					"inputs": [
						{
							"internalType": "uint256",
							"name": "tokenId",
							"type": "uint256"
						}
					],
					"name": "burn",
					"outputs": [],
					"stateMutability": "nonpayable",
					"type": "function"
				},
				{
					"inputs": [
						{
							"internalType": "uint256",
							"name": "id",
							"type": "uint256"
						}
					],
					"name": "deactivate",
					"outputs": [],
					"stateMutability": "nonpayable",
					"type": "function"
				},
				{
					"inputs": [
						{
							"internalType": "uint256",
							"name": "tokenId",
							"type": "uint256"
						}
					],
					"name": "getApproved",
					"outputs": [
						{
							"internalType": "address",
							"name": "",
							"type": "address"
						}
					],
					"stateMutability": "view",
					"type": "function"
				},
				{
					"inputs": [
						{
							"internalType": "address",
							"name": "owner",
							"type": "address"
						}
					],
					"name": "hasActiveSBT",
					"outputs": [
						{
							"internalType": "bool",
							"name": "",
							"type": "bool"
						}
					],
					"stateMutability": "view",
					"type": "function"
				},
				{
					"inputs": [
						{
							"internalType": "uint256",
							"name": "id",
							"type": "uint256"
						}
					],
					"name": "hashedIdentity",
					"outputs": [
						{
							"internalType": "bytes32",
							"name": "",
							"type": "bytes32"
						}
					],
					"stateMutability": "view",
					"type": "function"
				},
				{
					"inputs": [
						{
							"internalType": "uint256",
							"name": "id",
							"type": "uint256"
						}
					],
					"name": "isActive",
					"outputs": [
						{
							"internalType": "bool",
							"name": "",
							"type": "bool"
						}
					],
					"stateMutability": "view",
					"type": "function"
				},
				{
					"inputs": [
						{
							"internalType": "address",
							"name": "owner",
							"type": "address"
						},
						{
							"internalType": "address",
							"name": "operator",
							"type": "address"
						}
					],
					"name": "isApprovedForAll",
					"outputs": [
						{
							"internalType": "bool",
							"name": "",
							"type": "bool"
						}
					],
					"stateMutability": "view",
					"type": "function"
				},
				{
					"inputs": [
						{
							"internalType": "uint256",
							"name": "id",
							"type": "uint256"
						},
						{
							"internalType": "uint8",
							"name": "tier",
							"type": "uint8"
						}
					],
					"name": "modifyLevel",
					"outputs": [],
					"stateMutability": "nonpayable",
					"type": "function"
				},
				{
					"inputs": [],
					"name": "name",
					"outputs": [
						{
							"internalType": "string",
							"name": "",
							"type": "string"
						}
					],
					"stateMutability": "view",
					"type": "function"
				},
				{
					"inputs": [],
					"name": "owner",
					"outputs": [
						{
							"internalType": "address",
							"name": "",
							"type": "address"
						}
					],
					"stateMutability": "view",
					"type": "function"
				},
				{
					"inputs": [
						{
							"internalType": "uint256",
							"name": "tokenId",
							"type": "uint256"
						}
					],
					"name": "ownerOf",
					"outputs": [
						{
							"internalType": "address",
							"name": "",
							"type": "address"
						}
					],
					"stateMutability": "view",
					"type": "function"
				},
				{
					"inputs": [
						{
							"internalType": "address",
							"name": "owner",
							"type": "address"
						}
					],
					"name": "ownerToTokenId",
					"outputs": [
						{
							"internalType": "uint256",
							"name": "",
							"type": "uint256"
						}
					],
					"stateMutability": "view",
					"type": "function"
				},
				{
					"inputs": [
						{
							"internalType": "uint256",
							"name": "id",
							"type": "uint256"
						}
					],
					"name": "reactivate",
					"outputs": [],
					"stateMutability": "nonpayable",
					"type": "function"
				},
				{
					"inputs": [],
					"name": "renounceOwnership",
					"outputs": [],
					"stateMutability": "nonpayable",
					"type": "function"
				},
				{
					"inputs": [
						{
							"internalType": "address",
							"name": "to",
							"type": "address"
						},
						{
							"internalType": "uint8",
							"name": "tier",
							"type": "uint8"
						},
						{
							"internalType": "bytes32",
							"name": "hashed",
							"type": "bytes32"
						}
					],
					"name": "safeMint",
					"outputs": [],
					"stateMutability": "nonpayable",
					"type": "function"
				},
				{
					"inputs": [
						{
							"internalType": "address",
							"name": "from",
							"type": "address"
						},
						{
							"internalType": "address",
							"name": "to",
							"type": "address"
						},
						{
							"internalType": "uint256",
							"name": "tokenId",
							"type": "uint256"
						}
					],
					"name": "safeTransferFrom",
					"outputs": [],
					"stateMutability": "nonpayable",
					"type": "function"
				},
				{
					"inputs": [
						{
							"internalType": "address",
							"name": "from",
							"type": "address"
						},
						{
							"internalType": "address",
							"name": "to",
							"type": "address"
						},
						{
							"internalType": "uint256",
							"name": "tokenId",
							"type": "uint256"
						},
						{
							"internalType": "bytes",
							"name": "data",
							"type": "bytes"
						}
					],
					"name": "safeTransferFrom",
					"outputs": [],
					"stateMutability": "nonpayable",
					"type": "function"
				},
				{
					"inputs": [
						{
							"internalType": "address",
							"name": "operator",
							"type": "address"
						},
						{
							"internalType": "bool",
							"name": "approved",
							"type": "bool"
						}
					],
					"name": "setApprovalForAll",
					"outputs": [],
					"stateMutability": "nonpayable",
					"type": "function"
				},
				{
					"inputs": [
						{
							"internalType": "bytes4",
							"name": "interfaceId",
							"type": "bytes4"
						}
					],
					"name": "supportsInterface",
					"outputs": [
						{
							"internalType": "bool",
							"name": "",
							"type": "bool"
						}
					],
					"stateMutability": "view",
					"type": "function"
				},
				{
					"inputs": [],
					"name": "symbol",
					"outputs": [
						{
							"internalType": "string",
							"name": "",
							"type": "string"
						}
					],
					"stateMutability": "view",
					"type": "function"
				},
				{
					"inputs": [
						{
							"internalType": "uint256",
							"name": "tokenId",
							"type": "uint256"
						}
					],
					"name": "tokenURI",
					"outputs": [
						{
							"internalType": "string",
							"name": "",
							"type": "string"
						}
					],
					"stateMutability": "view",
					"type": "function"
				},
				{
					"inputs": [
						{
							"internalType": "address",
							"name": "from",
							"type": "address"
						},
						{
							"internalType": "address",
							"name": "to",
							"type": "address"
						},
						{
							"internalType": "uint256",
							"name": "tokenId",
							"type": "uint256"
						}
					],
					"name": "transferFrom",
					"outputs": [],
					"stateMutability": "nonpayable",
					"type": "function"
				},
				{
					"inputs": [
						{
							"internalType": "address",
							"name": "newOwner",
							"type": "address"
						}
					],
					"name": "transferOwnership",
					"outputs": [],
					"stateMutability": "nonpayable",
					"type": "function"
				}
			],
			"devdoc": {
				"kind": "dev",
				"methods": {
					"approve(address,uint256)": {
						"details": "See {IERC721-approve}."
					},
					"balanceOf(address)": {
						"details": "See {IERC721-balanceOf}."
					},
					"getApproved(uint256)": {
						"details": "See {IERC721-getApproved}."
					},
					"isApprovedForAll(address,address)": {
						"details": "See {IERC721-isApprovedForAll}."
					},
					"name()": {
						"details": "See {IERC721Metadata-name}."
					},
					"owner()": {
						"details": "Returns the address of the current owner."
					},
					"ownerOf(uint256)": {
						"details": "See {IERC721-ownerOf}."
					},
					"renounceOwnership()": {
						"details": "Leaves the contract without owner. It will not be possible to call `onlyOwner` functions anymore. Can only be called by the current owner. NOTE: Renouncing ownership will leave the contract without an owner, thereby removing any functionality that is only available to the owner."
					},
					"safeTransferFrom(address,address,uint256)": {
						"details": "See {IERC721-safeTransferFrom}."
					},
					"safeTransferFrom(address,address,uint256,bytes)": {
						"details": "See {IERC721-safeTransferFrom}."
					},
					"setApprovalForAll(address,bool)": {
						"details": "See {IERC721-setApprovalForAll}."
					},
					"supportsInterface(bytes4)": {
						"details": "See {IERC165-supportsInterface}."
					},
					"symbol()": {
						"details": "See {IERC721Metadata-symbol}."
					},
					"tokenURI(uint256)": {
						"details": "See {IERC721Metadata-tokenURI}."
					},
					"transferFrom(address,address,uint256)": {
						"details": "See {IERC721-transferFrom}."
					},
					"transferOwnership(address)": {
						"details": "Transfers ownership of the contract to a new account (`newOwner`). Can only be called by the current owner."
					}
				},
				"version": 1
			},
			"evm": {
				"assembly": "    /* \"contracts/SoulBoundToken.sol\":266:2813  contract SoulBoundToken is ERC721, Ownable, ISoulBoundToken {... */\n  mstore(0x40, 0x80)\n    /* \"contracts/SoulBoundToken.sol\":706:796  constructor() ERC721(\"SoulBoundToken\", \"SBT\") {... */\n  callvalue\n  dup1\n  iszero\n  tag_1\n  jumpi\n  0x00\n  dup1\n  revert\ntag_1:\n  pop\n    /* \"@openzeppelin/contracts/token/ERC721/ERC721.sol\":1390:1503  constructor(string memory name_, string memory symbol_) {... */\n  mload(0x40)\n  dup1\n  0x40\n  add\n  0x40\n  mstore\n  dup1\n  0x0e\n  dup2\n  mstore\n  0x20\n  add\n  shl(0x91, 0x29b7bab62137bab7322a37b5b2b7)\n  dup2\n  mstore\n  pop\n  mload(0x40)\n  dup1\n  0x40\n  add\n  0x40\n  mstore\n  dup1\n  0x03\n  dup2\n  mstore\n  0x20\n  add\n  shl(0xea, 0x14d095)\n  dup2\n  mstore\n  pop\n    /* \"@openzeppelin/contracts/token/ERC721/ERC721.sol\":1464:1469  name_ */\n  dup2\n    /* \"@openzeppelin/contracts/token/ERC721/ERC721.sol\":1456:1461  _name */\n  0x00\n    /* \"@openzeppelin/contracts/token/ERC721/ERC721.sol\":1456:1469  _name = name_ */\n  swap1\n  dup2\n  tag_6\n  swap2\n  swap1\n  tag_7\n  jump\t// in\ntag_6:\n  pop\n    /* \"@openzeppelin/contracts/token/ERC721/ERC721.sol\":1479:1486  _symbol */\n  0x01\n    /* \"@openzeppelin/contracts/token/ERC721/ERC721.sol\":1479:1496  _symbol = symbol_ */\n  tag_8\n    /* \"@openzeppelin/contracts/token/ERC721/ERC721.sol\":1489:1496  symbol_ */\n  dup3\n    /* \"@openzeppelin/contracts/token/ERC721/ERC721.sol\":1479:1486  _symbol */\n  dup3\n    /* \"@openzeppelin/contracts/token/ERC721/ERC721.sol\":1479:1496  _symbol = symbol_ */\n  tag_7\n  jump\t// in\ntag_8:\n  pop\n    /* \"@openzeppelin/contracts/token/ERC721/ERC721.sol\":1390:1503  constructor(string memory name_, string memory symbol_) {... */\n  pop\n  pop\n    /* \"@openzeppelin/contracts/access/Ownable.sol\":936:968  _transferOwnership(_msgSender()) */\n  tag_10\n    /* \"@openzeppelin/contracts/access/Ownable.sol\":955:967  _msgSender() */\n  tag_11\n    /* \"@openzeppelin/contracts/access/Ownable.sol\":955:965  _msgSender */\n  shl(0x20, tag_12)\n    /* \"@openzeppelin/contracts/access/Ownable.sol\":955:967  _msgSender() */\n  0x20\n  shr\n  jump\t// in\ntag_11:\n    /* \"@openzeppelin/contracts/access/Ownable.sol\":936:954  _transferOwnership */\n  tag_13\n    /* \"@openzeppelin/contracts/access/Ownable.sol\":936:968  _transferOwnership(_msgSender()) */\n  jump\t// in\ntag_10:\n    /* \"contracts/SoulBoundToken.sol\":762:789  _tokenIdCounter.increment() */\n  tag_15\n    /* \"contracts/SoulBoundToken.sol\":762:777  _tokenIdCounter */\n  0x07\n    /* \"contracts/SoulBoundToken.sol\":762:787  _tokenIdCounter.increment */\n  or(tag_0_144, shl(0x20, tag_16))\n    /* \"contracts/SoulBoundToken.sol\":762:789  _tokenIdCounter.increment() */\n  0x20\n  shr\n  jump\t// in\ntag_15:\n    /* \"contracts/SoulBoundToken.sol\":266:2813  contract SoulBoundToken is ERC721, Ownable, ISoulBoundToken {... */\n  jump(tag_26)\n    /* \"@openzeppelin/contracts/utils/Context.sol\":640:736  function _msgSender() internal view virtual returns (address) {... */\ntag_12:\n    /* \"@openzeppelin/contracts/utils/Context.sol\":719:729  msg.sender */\n  caller\n  swap1\n    /* \"@openzeppelin/contracts/utils/Context.sol\":640:736  function _msgSender() internal view virtual returns (address) {... */\n  jump\t// out\n    /* \"@openzeppelin/contracts/access/Ownable.sol\":2433:2620  function _transferOwnership(address newOwner) internal virtual {... */\ntag_13:\n    /* \"@openzeppelin/contracts/access/Ownable.sol\":2525:2531  _owner */\n  0x06\n  dup1\n  sload\n  sub(shl(0xa0, 0x01), 0x01)\n    /* \"@openzeppelin/contracts/access/Ownable.sol\":2541:2558  _owner = newOwner */\n  dup4\n  dup2\n  and\n  not(sub(shl(0xa0, 0x01), 0x01))\n  dup4\n  and\n  dup2\n  or\n  swap1\n  swap4\n  sstore\n    /* \"@openzeppelin/contracts/access/Ownable.sol\":2573:2613  OwnershipTransferred(oldOwner, newOwner) */\n  mload(0x40)\n    /* \"@openzeppelin/contracts/access/Ownable.sol\":2525:2531  _owner */\n  swap2\n  and\n  swap2\n    /* \"@openzeppelin/contracts/access/Ownable.sol\":2541:2558  _owner = newOwner */\n  swap1\n    /* \"@openzeppelin/contracts/access/Ownable.sol\":2525:2531  _owner */\n  dup3\n  swap1\n    /* \"@openzeppelin/contracts/access/Ownable.sol\":2573:2613  OwnershipTransferred(oldOwner, newOwner) */\n  0x8be0079c531659141344cd1fd0a4f28419497f9722a3daafe3b4186f6b6457e0\n  swap1\n    /* \"@openzeppelin/contracts/access/Ownable.sol\":2506:2522  address oldOwner */\n  0x00\n  swap1\n    /* \"@openzeppelin/contracts/access/Ownable.sol\":2573:2613  OwnershipTransferred(oldOwner, newOwner) */\n  log3\n    /* \"@openzeppelin/contracts/access/Ownable.sol\":2496:2620  {... */\n  pop\n    /* \"@openzeppelin/contracts/access/Ownable.sol\":2433:2620  function _transferOwnership(address newOwner) internal virtual {... */\n  pop\n  jump\t// out\n    /* \"@openzeppelin/contracts/utils/Counters.sol\":945:1068  function increment(Counter storage counter) internal {... */\ntag_16:\n    /* \"@openzeppelin/contracts/utils/Counters.sol\":1032:1051  counter._value += 1 */\n  dup1\n  sload\n    /* \"@openzeppelin/contracts/utils/Counters.sol\":1050:1051  1 */\n  0x01\n    /* \"@openzeppelin/contracts/utils/Counters.sol\":1032:1051  counter._value += 1 */\n  add\n  swap1\n  sstore\n    /* \"@openzeppelin/contracts/utils/Counters.sol\":945:1068  function increment(Counter storage counter) internal {... */\n  jump\t// out\n    /* \"#utility.yul\":14:141   */\ntag_21:\n    /* \"#utility.yul\":75:85   */\n  0x4e487b71\n    /* \"#utility.yul\":70:73   */\n  0xe0\n    /* \"#utility.yul\":66:86   */\n  shl\n    /* \"#utility.yul\":63:64   */\n  0x00\n    /* \"#utility.yul\":56:87   */\n  mstore\n    /* \"#utility.yul\":106:110   */\n  0x41\n    /* \"#utility.yul\":103:104   */\n  0x04\n    /* \"#utility.yul\":96:111   */\n  mstore\n    /* \"#utility.yul\":130:134   */\n  0x24\n    /* \"#utility.yul\":127:128   */\n  0x00\n    /* \"#utility.yul\":120:135   */\n  revert\n    /* \"#utility.yul\":146:526   */\ntag_22:\n    /* \"#utility.yul\":225:226   */\n  0x01\n    /* \"#utility.yul\":221:233   */\n  dup2\n  dup2\n  shr\n  swap1\n    /* \"#utility.yul\":268:280   */\n  dup3\n  and\n  dup1\n    /* \"#utility.yul\":289:350   */\n  tag_29\n  jumpi\n    /* \"#utility.yul\":343:347   */\n  0x7f\n    /* \"#utility.yul\":335:341   */\n  dup3\n    /* \"#utility.yul\":331:348   */\n  and\n    /* \"#utility.yul\":321:348   */\n  swap2\n  pop\n    /* \"#utility.yul\":289:350   */\ntag_29:\n    /* \"#utility.yul\":396:398   */\n  0x20\n    /* \"#utility.yul\":388:394   */\n  dup3\n    /* \"#utility.yul\":385:399   */\n  lt\n    /* \"#utility.yul\":365:383   */\n  dup2\n    /* \"#utility.yul\":362:400   */\n  sub\n    /* \"#utility.yul\":359:520   */\n  tag_30\n  jumpi\n    /* \"#utility.yul\":442:452   */\n  0x4e487b71\n    /* \"#utility.yul\":437:440   */\n  0xe0\n    /* \"#utility.yul\":433:453   */\n  shl\n    /* \"#utility.yul\":430:431   */\n  0x00\n    /* \"#utility.yul\":423:454   */\n  mstore\n    /* \"#utility.yul\":477:481   */\n  0x22\n    /* \"#utility.yul\":474:475   */\n  0x04\n    /* \"#utility.yul\":467:482   */\n  mstore\n    /* \"#utility.yul\":505:509   */\n  0x24\n    /* \"#utility.yul\":502:503   */\n  0x00\n    /* \"#utility.yul\":495:510   */\n  revert\n    /* \"#utility.yul\":359:520   */\ntag_30:\n  pop\n    /* \"#utility.yul\":146:526   */\n  swap2\n  swap1\n  pop\n  jump\t// out\n    /* \"#utility.yul\":657:1202   */\ntag_24:\n    /* \"#utility.yul\":759:761   */\n  0x1f\n    /* \"#utility.yul\":754:757   */\n  dup3\n    /* \"#utility.yul\":751:762   */\n  gt\n    /* \"#utility.yul\":748:1196   */\n  iszero\n  tag_33\n  jumpi\n    /* \"#utility.yul\":795:796   */\n  0x00\n    /* \"#utility.yul\":820:825   */\n  dup2\n    /* \"#utility.yul\":816:818   */\n  dup2\n    /* \"#utility.yul\":809:826   */\n  mstore\n    /* \"#utility.yul\":865:869   */\n  0x20\n    /* \"#utility.yul\":861:863   */\n  dup2\n    /* \"#utility.yul\":851:870   */\n  keccak256\n    /* \"#utility.yul\":935:937   */\n  0x1f\n    /* \"#utility.yul\":923:933   */\n  dup6\n    /* \"#utility.yul\":919:938   */\n  add\n    /* \"#utility.yul\":916:917   */\n  0x05\n    /* \"#utility.yul\":912:939   */\n  shr\n    /* \"#utility.yul\":906:910   */\n  dup2\n    /* \"#utility.yul\":902:940   */\n  add\n    /* \"#utility.yul\":971:975   */\n  0x20\n    /* \"#utility.yul\":959:969   */\n  dup7\n    /* \"#utility.yul\":956:976   */\n  lt\n    /* \"#utility.yul\":953:1000   */\n  iszero\n  tag_34\n  jumpi\n  pop\n    /* \"#utility.yul\":994:998   */\n  dup1\n    /* \"#utility.yul\":953:1000   */\ntag_34:\n    /* \"#utility.yul\":1049:1051   */\n  0x1f\n    /* \"#utility.yul\":1044:1047   */\n  dup6\n    /* \"#utility.yul\":1040:1052   */\n  add\n    /* \"#utility.yul\":1037:1038   */\n  0x05\n    /* \"#utility.yul\":1033:1053   */\n  shr\n    /* \"#utility.yul\":1027:1031   */\n  dup3\n    /* \"#utility.yul\":1023:1054   */\n  add\n    /* \"#utility.yul\":1013:1054   */\n  swap2\n  pop\n    /* \"#utility.yul\":1104:1186   */\ntag_35:\n    /* \"#utility.yul\":1122:1124   */\n  dup2\n    /* \"#utility.yul\":1115:1120   */\n  dup2\n    /* \"#utility.yul\":1112:1125   */\n  lt\n    /* \"#utility.yul\":1104:1186   */\n  iszero\n  tag_37\n  jumpi\n    /* \"#utility.yul\":1167:1184   */\n  dup3\n  dup2\n  sstore\n    /* \"#utility.yul\":1148:1149   */\n  0x01\n    /* \"#utility.yul\":1137:1150   */\n  add\n    /* \"#utility.yul\":1104:1186   */\n  jump(tag_35)\ntag_37:\n    /* \"#utility.yul\":1108:1111   */\n  pop\n  pop\n  pop\n    /* \"#utility.yul\":748:1196   */\ntag_33:\n    /* \"#utility.yul\":657:1202   */\n  pop\n  pop\n  pop\n  jump\t// out\n    /* \"#utility.yul\":1378:2730   */\ntag_7:\n    /* \"#utility.yul\":1498:1508   */\n  dup2\n  mload\n  sub(shl(0x40, 0x01), 0x01)\n    /* \"#utility.yul\":1520:1550   */\n  dup2\n  gt\n    /* \"#utility.yul\":1517:1573   */\n  iszero\n  tag_41\n  jumpi\n    /* \"#utility.yul\":1553:1571   */\n  tag_41\n  tag_21\n  jump\t// in\ntag_41:\n    /* \"#utility.yul\":1582:1679   */\n  tag_42\n    /* \"#utility.yul\":1672:1678   */\n  dup2\n    /* \"#utility.yul\":1632:1670   */\n  tag_43\n    /* \"#utility.yul\":1664:1668   */\n  dup5\n    /* \"#utility.yul\":1658:1669   */\n  sload\n    /* \"#utility.yul\":1632:1670   */\n  tag_22\n  jump\t// in\ntag_43:\n    /* \"#utility.yul\":1626:1630   */\n  dup5\n    /* \"#utility.yul\":1582:1679   */\n  tag_24\n  jump\t// in\ntag_42:\n    /* \"#utility.yul\":1734:1738   */\n  0x20\n  dup1\n    /* \"#utility.yul\":1798:1800   */\n  0x1f\n    /* \"#utility.yul\":1787:1801   */\n  dup4\n  gt\n    /* \"#utility.yul\":1815:1816   */\n  0x01\n    /* \"#utility.yul\":1810:2473   */\n  dup2\n  eq\n  tag_45\n  jumpi\n    /* \"#utility.yul\":2517:2518   */\n  0x00\n    /* \"#utility.yul\":2534:2540   */\n  dup5\n    /* \"#utility.yul\":2531:2620   */\n  iszero\n  tag_46\n  jumpi\n  pop\n    /* \"#utility.yul\":2586:2605   */\n  dup6\n  dup4\n  add\n    /* \"#utility.yul\":2580:2606   */\n  mload\n    /* \"#utility.yul\":2531:2620   */\ntag_46:\n  not(0x00)\n    /* \"#utility.yul\":1335:1336   */\n  0x03\n    /* \"#utility.yul\":1331:1342   */\n  dup7\n  swap1\n  shl\n    /* \"#utility.yul\":1327:1351   */\n  shr\n    /* \"#utility.yul\":1323:1352   */\n  not\n    /* \"#utility.yul\":1313:1353   */\n  and\n    /* \"#utility.yul\":1359:1360   */\n  0x01\n    /* \"#utility.yul\":1355:1366   */\n  dup6\n  swap1\n  shl\n    /* \"#utility.yul\":1310:1367   */\n  or\n    /* \"#utility.yul\":2633:2714   */\n  dup6\n  sstore\n    /* \"#utility.yul\":1780:2724   */\n  jump(tag_37)\n    /* \"#utility.yul\":1810:2473   */\ntag_45:\n    /* \"#utility.yul\":604:605   */\n  0x00\n    /* \"#utility.yul\":597:611   */\n  dup6\n  dup2\n  mstore\n    /* \"#utility.yul\":641:645   */\n  0x20\n    /* \"#utility.yul\":628:646   */\n  dup2\n  keccak256\n  not(0x1f)\n    /* \"#utility.yul\":1846:1866   */\n  dup7\n  and\n  swap2\n    /* \"#utility.yul\":1964:2200   */\ntag_49:\n    /* \"#utility.yul\":1978:1985   */\n  dup3\n    /* \"#utility.yul\":1975:1976   */\n  dup2\n    /* \"#utility.yul\":1972:1986   */\n  lt\n    /* \"#utility.yul\":1964:2200   */\n  iszero\n  tag_51\n  jumpi\n    /* \"#utility.yul\":2067:2086   */\n  dup9\n  dup7\n  add\n    /* \"#utility.yul\":2061:2087   */\n  mload\n    /* \"#utility.yul\":2046:2088   */\n  dup3\n  sstore\n    /* \"#utility.yul\":2159:2186   */\n  swap5\n  dup5\n  add\n  swap5\n    /* \"#utility.yul\":2127:2128   */\n  0x01\n    /* \"#utility.yul\":2115:2129   */\n  swap1\n  swap2\n  add\n  swap1\n    /* \"#utility.yul\":1994:2013   */\n  dup5\n  add\n    /* \"#utility.yul\":1964:2200   */\n  jump(tag_49)\ntag_51:\n    /* \"#utility.yul\":1968:1971   */\n  pop\n    /* \"#utility.yul\":2228:2234   */\n  dup6\n    /* \"#utility.yul\":2219:2226   */\n  dup3\n    /* \"#utility.yul\":2216:2235   */\n  lt\n    /* \"#utility.yul\":2213:2414   */\n  iszero\n  tag_52\n  jumpi\n    /* \"#utility.yul\":2289:2308   */\n  dup8\n  dup6\n  add\n    /* \"#utility.yul\":2283:2309   */\n  mload\n  not(0x00)\n    /* \"#utility.yul\":2372:2373   */\n  0x03\n    /* \"#utility.yul\":2368:2382   */\n  dup9\n  swap1\n  shl\n    /* \"#utility.yul\":2384:2387   */\n  0xf8\n    /* \"#utility.yul\":2364:2388   */\n  and\n    /* \"#utility.yul\":2360:2397   */\n  shr\n    /* \"#utility.yul\":2356:2398   */\n  not\n    /* \"#utility.yul\":2341:2399   */\n  and\n    /* \"#utility.yul\":2326:2400   */\n  dup2\n  sstore\n    /* \"#utility.yul\":2213:2414   */\ntag_52:\n  pop\n  pop\n  pop\n  pop\n  pop\n    /* \"#utility.yul\":2460:2461   */\n  0x01\n    /* \"#utility.yul\":2444:2458   */\n  swap1\n  dup2\n  shl\n    /* \"#utility.yul\":2440:2462   */\n  add\n    /* \"#utility.yul\":2427:2463   */\n  swap1\n  sstore\n  pop\n    /* \"#utility.yul\":1378:2730   */\n  jump\t// out\ntag_26:\n    /* \"contracts/SoulBoundToken.sol\":266:2813  contract SoulBoundToken is ERC721, Ownable, ISoulBoundToken {... */\n  dataSize(sub_0)\n  dup1\n  dataOffset(sub_0)\n  0x00\n  codecopy\n  0x00\n  return\nstop\n\nsub_0: assembly {\n        /* \"contracts/SoulBoundToken.sol\":266:2813  contract SoulBoundToken is ERC721, Ownable, ISoulBoundToken {... */\n      mstore(0x40, 0x80)\n      callvalue\n      dup1\n      iszero\n      tag_1\n      jumpi\n      0x00\n      dup1\n      revert\n    tag_1:\n      pop\n      jumpi(tag_2, lt(calldatasize, 0x04))\n      shr(0xe0, calldataload(0x00))\n      dup1\n      0x70a08231\n      gt\n      tag_30\n      jumpi\n      dup1\n      0xb7caec87\n      gt\n      tag_31\n      jumpi\n      dup1\n      0xc12290d2\n      gt\n      tag_32\n      jumpi\n      dup1\n      0xc12290d2\n      eq\n      tag_26\n      jumpi\n      dup1\n      0xc87b56dd\n      eq\n      tag_27\n      jumpi\n      dup1\n      0xe985e9c5\n      eq\n      tag_28\n      jumpi\n      dup1\n      0xf2fde38b\n      eq\n      tag_29\n      jumpi\n      0x00\n      dup1\n      revert\n    tag_32:\n      dup1\n      0xb7caec87\n      eq\n      tag_23\n      jumpi\n      dup1\n      0xb88d4fde\n      eq\n      tag_24\n      jumpi\n      dup1\n      0xbdca14cf\n      eq\n      tag_25\n      jumpi\n      0x00\n      dup1\n      revert\n    tag_31:\n      dup1\n      0x8da5cb5b\n      gt\n      tag_33\n      jumpi\n      dup1\n      0x8da5cb5b\n      eq\n      tag_19\n      jumpi\n      dup1\n      0x916b9bef\n      eq\n      tag_20\n      jumpi\n      dup1\n      0x95d89b41\n      eq\n      tag_21\n      jumpi\n      dup1\n      0xa22cb465\n      eq\n      tag_22\n      jumpi\n      0x00\n      dup1\n      revert\n    tag_33:\n      dup1\n      0x70a08231\n      eq\n      tag_16\n      jumpi\n      dup1\n      0x715018a6\n      eq\n      tag_17\n      jumpi\n      dup1\n      0x82afd23b\n      eq\n      tag_18\n      jumpi\n      0x00\n      dup1\n      revert\n    tag_30:\n      dup1\n      0x3355594a\n      gt\n      tag_34\n      jumpi\n      dup1\n      0x42842e0e\n      gt\n      tag_35\n      jumpi\n      dup1\n      0x42842e0e\n      eq\n      tag_12\n      jumpi\n      dup1\n      0x42966c68\n      eq\n      tag_13\n      jumpi\n      dup1\n      0x4814f035\n      eq\n      tag_14\n      jumpi\n      dup1\n      0x6352211e\n      eq\n      tag_15\n      jumpi\n      0x00\n      dup1\n      revert\n    tag_35:\n      dup1\n      0x3355594a\n      eq\n      tag_9\n      jumpi\n      dup1\n      0x34566cdf\n      eq\n      tag_10\n      jumpi\n      dup1\n      0x39f920ab\n      eq\n      tag_11\n      jumpi\n      0x00\n      dup1\n      revert\n    tag_34:\n      dup1\n      0x01ffc9a7\n      eq\n      tag_3\n      jumpi\n      dup1\n      0x06fdde03\n      eq\n      tag_4\n      jumpi\n      dup1\n      0x081812fc\n      eq\n      tag_5\n      jumpi\n      dup1\n      0x095ea7b3\n      eq\n      tag_6\n      jumpi\n      dup1\n      0x09df30ec\n      eq\n      tag_7\n      jumpi\n      dup1\n      0x23b872dd\n      eq\n      tag_8\n      jumpi\n    tag_2:\n      0x00\n      dup1\n      revert\n        /* \"@openzeppelin/contracts/token/ERC721/ERC721.sol\":1570:1870  function supportsInterface(bytes4 interfaceId) public view virtual override(ERC165, IERC165) returns (bool) {... */\n    tag_3:\n      tag_36\n      tag_37\n      calldatasize\n      0x04\n      tag_38\n      jump\t// in\n    tag_37:\n      tag_39\n      jump\t// in\n    tag_36:\n      mload(0x40)\n        /* \"#utility.yul\":565:579   */\n      swap1\n      iszero\n        /* \"#utility.yul\":558:580   */\n      iszero\n        /* \"#utility.yul\":540:581   */\n      dup2\n      mstore\n        /* \"#utility.yul\":528:530   */\n      0x20\n        /* \"#utility.yul\":513:531   */\n      add\n        /* \"@openzeppelin/contracts/token/ERC721/ERC721.sol\":1570:1870  function supportsInterface(bytes4 interfaceId) public view virtual override(ERC165, IERC165) returns (bool) {... */\n    tag_40:\n      mload(0x40)\n      dup1\n      swap2\n      sub\n      swap1\n      return\n        /* \"@openzeppelin/contracts/token/ERC721/ERC721.sol\":2471:2569  function name() public view virtual override returns (string memory) {... */\n    tag_4:\n      tag_42\n      tag_43\n      jump\t// in\n    tag_42:\n      mload(0x40)\n      tag_40\n      swap2\n      swap1\n      tag_45\n      jump\t// in\n        /* \"@openzeppelin/contracts/token/ERC721/ERC721.sol\":3935:4102  function getApproved(uint256 tokenId) public view virtual override returns (address) {... */\n    tag_5:\n      tag_46\n      tag_47\n      calldatasize\n      0x04\n      tag_48\n      jump\t// in\n    tag_47:\n      tag_49\n      jump\t// in\n    tag_46:\n      mload(0x40)\n      sub(shl(0xa0, 0x01), 0x01)\n        /* \"#utility.yul\":1697:1729   */\n      swap1\n      swap2\n      and\n        /* \"#utility.yul\":1679:1730   */\n      dup2\n      mstore\n        /* \"#utility.yul\":1667:1669   */\n      0x20\n        /* \"#utility.yul\":1652:1670   */\n      add\n        /* \"@openzeppelin/contracts/token/ERC721/ERC721.sol\":3935:4102  function getApproved(uint256 tokenId) public view virtual override returns (address) {... */\n      tag_40\n        /* \"#utility.yul\":1533:1736   */\n      jump\n        /* \"@openzeppelin/contracts/token/ERC721/ERC721.sol\":3468:3874  function approve(address to, uint256 tokenId) public virtual override {... */\n    tag_6:\n      tag_52\n      tag_53\n      calldatasize\n      0x04\n      tag_54\n      jump\t// in\n    tag_53:\n      tag_55\n      jump\t// in\n    tag_52:\n      stop\n        /* \"contracts/SoulBoundToken.sol\":2018:2104  function reactivate(uint256 id) public onlyOwner {... */\n    tag_7:\n      tag_52\n      tag_57\n      calldatasize\n      0x04\n      tag_48\n      jump\t// in\n    tag_57:\n      tag_58\n      jump\t// in\n        /* \"@openzeppelin/contracts/token/ERC721/ERC721.sol\":4612:4938  function transferFrom(... */\n    tag_8:\n      tag_52\n      tag_60\n      calldatasize\n      0x04\n      tag_61\n      jump\t// in\n    tag_60:\n      tag_62\n      jump\t// in\n        /* \"contracts/SoulBoundToken.sol\":2455:2564  function hashedIdentity(uint256 id) public view returns (bytes32) {... */\n    tag_9:\n      tag_63\n      tag_64\n      calldatasize\n      0x04\n      tag_48\n      jump\t// in\n    tag_64:\n        /* \"contracts/SoulBoundToken.sol\":2512:2519  bytes32 */\n      0x00\n        /* \"contracts/SoulBoundToken.sol\":2538:2557  _hashedIdentity[id] */\n      swap1\n      dup2\n      mstore\n        /* \"contracts/SoulBoundToken.sol\":2538:2553  _hashedIdentity */\n      0x0a\n        /* \"contracts/SoulBoundToken.sol\":2538:2557  _hashedIdentity[id] */\n      0x20\n      mstore\n      0x40\n      swap1\n      keccak256\n      sload\n      swap1\n        /* \"contracts/SoulBoundToken.sol\":2455:2564  function hashedIdentity(uint256 id) public view returns (bytes32) {... */\n      jump\n    tag_63:\n      mload(0x40)\n        /* \"#utility.yul\":2657:2682   */\n      swap1\n      dup2\n      mstore\n        /* \"#utility.yul\":2645:2647   */\n      0x20\n        /* \"#utility.yul\":2630:2648   */\n      add\n        /* \"contracts/SoulBoundToken.sol\":2455:2564  function hashedIdentity(uint256 id) public view returns (bytes32) {... */\n      tag_40\n        /* \"#utility.yul\":2511:2688   */\n      jump\n        /* \"contracts/SoulBoundToken.sol\":2124:2223  function accessTier(uint256 id) public view returns (uint8) {... */\n    tag_10:\n      tag_68\n      tag_69\n      calldatasize\n      0x04\n      tag_48\n      jump\t// in\n    tag_69:\n        /* \"contracts/SoulBoundToken.sol\":2177:2182  uint8 */\n      0x00\n        /* \"contracts/SoulBoundToken.sol\":2201:2216  _accessTier[id] */\n      swap1\n      dup2\n      mstore\n        /* \"contracts/SoulBoundToken.sol\":2201:2212  _accessTier */\n      0x08\n        /* \"contracts/SoulBoundToken.sol\":2201:2216  _accessTier[id] */\n      0x20\n      mstore\n      0x40\n      swap1\n      keccak256\n      sload\n      0xff\n      and\n      swap1\n        /* \"contracts/SoulBoundToken.sol\":2124:2223  function accessTier(uint256 id) public view returns (uint8) {... */\n      jump\n    tag_68:\n      mload(0x40)\n        /* \"#utility.yul\":2865:2869   */\n      0xff\n        /* \"#utility.yul\":2853:2870   */\n      swap1\n      swap2\n      and\n        /* \"#utility.yul\":2835:2871   */\n      dup2\n      mstore\n        /* \"#utility.yul\":2823:2825   */\n      0x20\n        /* \"#utility.yul\":2808:2826   */\n      add\n        /* \"contracts/SoulBoundToken.sol\":2124:2223  function accessTier(uint256 id) public view returns (uint8) {... */\n      tag_40\n        /* \"#utility.yul\":2693:2877   */\n      jump\n        /* \"contracts/SoulBoundToken.sol\":2570:2690  function hasActiveSBT(address owner) public view returns (bool) {... */\n    tag_11:\n      tag_36\n      tag_74\n      calldatasize\n      0x04\n      tag_75\n      jump\t// in\n    tag_74:\n      tag_76\n      jump\t// in\n        /* \"@openzeppelin/contracts/token/ERC721/ERC721.sol\":5004:5183  function safeTransferFrom(... */\n    tag_12:\n      tag_52\n      tag_79\n      calldatasize\n      0x04\n      tag_61\n      jump\t// in\n    tag_79:\n      tag_80\n      jump\t// in\n        /* \"contracts/SoulBoundToken.sol\":1264:1424  function burn(uint256 tokenId) external {... */\n    tag_13:\n      tag_52\n      tag_82\n      calldatasize\n      0x04\n      tag_48\n      jump\t// in\n    tag_82:\n      tag_83\n      jump\t// in\n        /* \"contracts/SoulBoundToken.sol\":2696:2811  function ownerToTokenId(address owner) public view returns (uint256) {... */\n    tag_14:\n      tag_63\n      tag_85\n      calldatasize\n      0x04\n      tag_75\n      jump\t// in\n    tag_85:\n      sub(shl(0xa0, 0x01), 0x01)\n        /* \"contracts/SoulBoundToken.sol\":2782:2804  _ownerToTokenId[owner] */\n      and\n        /* \"contracts/SoulBoundToken.sol\":2756:2763  uint256 */\n      0x00\n        /* \"contracts/SoulBoundToken.sol\":2782:2804  _ownerToTokenId[owner] */\n      swap1\n      dup2\n      mstore\n        /* \"contracts/SoulBoundToken.sol\":2782:2797  _ownerToTokenId */\n      0x0b\n        /* \"contracts/SoulBoundToken.sol\":2782:2804  _ownerToTokenId[owner] */\n      0x20\n      mstore\n      0x40\n      swap1\n      keccak256\n      sload\n      swap1\n        /* \"contracts/SoulBoundToken.sol\":2696:2811  function ownerToTokenId(address owner) public view returns (uint256) {... */\n      jump\n        /* \"@openzeppelin/contracts/token/ERC721/ERC721.sol\":2190:2409  function ownerOf(uint256 tokenId) public view virtual override returns (address) {... */\n    tag_15:\n      tag_46\n      tag_90\n      calldatasize\n      0x04\n      tag_48\n      jump\t// in\n    tag_90:\n      tag_91\n      jump\t// in\n        /* \"@openzeppelin/contracts/token/ERC721/ERC721.sol\":1929:2133  function balanceOf(address owner) public view virtual override returns (uint256) {... */\n    tag_16:\n      tag_63\n      tag_94\n      calldatasize\n      0x04\n      tag_75\n      jump\t// in\n    tag_94:\n      tag_95\n      jump\t// in\n        /* \"@openzeppelin/contracts/access/Ownable.sol\":1831:1932  function renounceOwnership() public virtual onlyOwner {... */\n    tag_17:\n      tag_52\n      tag_98\n      jump\t// in\n        /* \"contracts/SoulBoundToken.sol\":2355:2449  function isActive(uint256 id) public view returns (bool) {... */\n    tag_18:\n      tag_36\n      tag_100\n      calldatasize\n      0x04\n      tag_48\n      jump\t// in\n    tag_100:\n        /* \"contracts/SoulBoundToken.sol\":2406:2410  bool */\n      0x00\n        /* \"contracts/SoulBoundToken.sol\":2429:2442  _isActive[id] */\n      swap1\n      dup2\n      mstore\n        /* \"contracts/SoulBoundToken.sol\":2429:2438  _isActive */\n      0x09\n        /* \"contracts/SoulBoundToken.sol\":2429:2442  _isActive[id] */\n      0x20\n      mstore\n      0x40\n      swap1\n      keccak256\n      sload\n      0xff\n      and\n      swap1\n        /* \"contracts/SoulBoundToken.sol\":2355:2449  function isActive(uint256 id) public view returns (bool) {... */\n      jump\n        /* \"@openzeppelin/contracts/access/Ownable.sol\":1201:1286  function owner() public view virtual returns (address) {... */\n    tag_19:\n        /* \"@openzeppelin/contracts/access/Ownable.sol\":1273:1279  _owner */\n      and(sub(shl(0xa0, 0x01), 0x01), sload(0x06))\n        /* \"@openzeppelin/contracts/access/Ownable.sol\":1201:1286  function owner() public view virtual returns (address) {... */\n      jump(tag_46)\n        /* \"contracts/SoulBoundToken.sol\":1925:2012  function deactivate(uint256 id) public onlyOwner {... */\n    tag_20:\n      tag_52\n      tag_107\n      calldatasize\n      0x04\n      tag_48\n      jump\t// in\n    tag_107:\n      tag_108\n      jump\t// in\n        /* \"@openzeppelin/contracts/token/ERC721/ERC721.sol\":2633:2735  function symbol() public view virtual override returns (string memory) {... */\n    tag_21:\n      tag_42\n      tag_110\n      jump\t// in\n        /* \"@openzeppelin/contracts/token/ERC721/ERC721.sol\":4169:4322  function setApprovalForAll(address operator, bool approved) public virtual override {... */\n    tag_22:\n      tag_52\n      tag_113\n      calldatasize\n      0x04\n      tag_114\n      jump\t// in\n    tag_113:\n      tag_115\n      jump\t// in\n        /* \"contracts/SoulBoundToken.sol\":2229:2349  function accessTier(address owner) public view returns (uint8) {... */\n    tag_23:\n      tag_68\n      tag_117\n      calldatasize\n      0x04\n      tag_75\n      jump\t// in\n    tag_117:\n      tag_118\n      jump\t// in\n        /* \"@openzeppelin/contracts/token/ERC721/ERC721.sol\":5249:5563  function safeTransferFrom(... */\n    tag_24:\n      tag_52\n      tag_121\n      calldatasize\n      0x04\n      tag_122\n      jump\t// in\n    tag_121:\n      tag_123\n      jump\t// in\n        /* \"contracts/SoulBoundToken.sol\":1779:1919  function modifyLevel(... */\n    tag_25:\n      tag_52\n      tag_125\n      calldatasize\n      0x04\n      tag_126\n      jump\t// in\n    tag_125:\n      tag_127\n      jump\t// in\n        /* \"contracts/SoulBoundToken.sol\":802:1258  function safeMint(... */\n    tag_26:\n      tag_52\n      tag_129\n      calldatasize\n      0x04\n      tag_130\n      jump\t// in\n    tag_129:\n      tag_131\n      jump\t// in\n        /* \"@openzeppelin/contracts/token/ERC721/ERC721.sol\":2801:3077  function tokenURI(uint256 tokenId) public view virtual override returns (string memory) {... */\n    tag_27:\n      tag_42\n      tag_133\n      calldatasize\n      0x04\n      tag_48\n      jump\t// in\n    tag_133:\n      tag_134\n      jump\t// in\n        /* \"@openzeppelin/contracts/token/ERC721/ERC721.sol\":4388:4550  function isApprovedForAll(address owner, address operator) public view virtual override returns (bool) {... */\n    tag_28:\n      tag_36\n      tag_137\n      calldatasize\n      0x04\n      tag_138\n      jump\t// in\n    tag_137:\n      sub(shl(0xa0, 0x01), 0x01)\n        /* \"@openzeppelin/contracts/token/ERC721/ERC721.sol\":4508:4533  _operatorApprovals[owner] */\n      swap2\n      dup3\n      and\n        /* \"@openzeppelin/contracts/token/ERC721/ERC721.sol\":4485:4489  bool */\n      0x00\n        /* \"@openzeppelin/contracts/token/ERC721/ERC721.sol\":4508:4533  _operatorApprovals[owner] */\n      swap1\n      dup2\n      mstore\n        /* \"@openzeppelin/contracts/token/ERC721/ERC721.sol\":4508:4526  _operatorApprovals */\n      0x05\n        /* \"@openzeppelin/contracts/token/ERC721/ERC721.sol\":4508:4533  _operatorApprovals[owner] */\n      0x20\n      swap1\n      dup2\n      mstore\n      0x40\n      dup1\n      dup4\n      keccak256\n        /* \"@openzeppelin/contracts/token/ERC721/ERC721.sol\":4508:4543  _operatorApprovals[owner][operator] */\n      swap4\n      swap1\n      swap5\n      and\n      dup3\n      mstore\n      swap2\n      swap1\n      swap2\n      mstore\n      keccak256\n      sload\n      0xff\n      and\n      swap1\n        /* \"@openzeppelin/contracts/token/ERC721/ERC721.sol\":4388:4550  function isApprovedForAll(address owner, address operator) public view virtual override returns (bool) {... */\n      jump\n        /* \"@openzeppelin/contracts/access/Ownable.sol\":2081:2279  function transferOwnership(address newOwner) public virtual onlyOwner {... */\n    tag_29:\n      tag_52\n      tag_142\n      calldatasize\n      0x04\n      tag_75\n      jump\t// in\n    tag_142:\n      tag_143\n      jump\t// in\n        /* \"@openzeppelin/contracts/token/ERC721/ERC721.sol\":1570:1870  function supportsInterface(bytes4 interfaceId) public view virtual override(ERC165, IERC165) returns (bool) {... */\n    tag_39:\n        /* \"@openzeppelin/contracts/token/ERC721/ERC721.sol\":1672:1676  bool */\n      0x00\n      not(sub(shl(0xe0, 0x01), 0x01))\n        /* \"@openzeppelin/contracts/token/ERC721/ERC721.sol\":1707:1747  interfaceId == type(IERC721).interfaceId */\n      dup3\n      and\n      shl(0xe0, 0x80ac58cd)\n      eq\n      dup1\n        /* \"@openzeppelin/contracts/token/ERC721/ERC721.sol\":1707:1811  interfaceId == type(IERC721).interfaceId ||... */\n      tag_146\n      jumpi\n      pop\n      not(sub(shl(0xe0, 0x01), 0x01))\n        /* \"@openzeppelin/contracts/token/ERC721/ERC721.sol\":1763:1811  interfaceId == type(IERC721Metadata).interfaceId */\n      dup3\n      and\n      shl(0xe0, 0x5b5e139f)\n      eq\n        /* \"@openzeppelin/contracts/token/ERC721/ERC721.sol\":1707:1811  interfaceId == type(IERC721).interfaceId ||... */\n    tag_146:\n        /* \"@openzeppelin/contracts/token/ERC721/ERC721.sol\":1707:1863  interfaceId == type(IERC721).interfaceId ||... */\n      dup1\n      tag_148\n      jumpi\n      pop\n      shl(0xe0, 0x01ffc9a7)\n      not(sub(shl(0xe0, 0x01), 0x01))\n        /* \"@openzeppelin/contracts/utils/introspection/ERC165.sol\":937:977  interfaceId == type(IERC165).interfaceId */\n      dup4\n      and\n      eq\n        /* \"@openzeppelin/contracts/token/ERC721/ERC721.sol\":1827:1863  super.supportsInterface(interfaceId) */\n    tag_148:\n        /* \"@openzeppelin/contracts/token/ERC721/ERC721.sol\":1688:1863  return... */\n      swap3\n        /* \"@openzeppelin/contracts/token/ERC721/ERC721.sol\":1570:1870  function supportsInterface(bytes4 interfaceId) public view virtual override(ERC165, IERC165) returns (bool) {... */\n      swap2\n      pop\n      pop\n      jump\t// out\n        /* \"@openzeppelin/contracts/token/ERC721/ERC721.sol\":2471:2569  function name() public view virtual override returns (string memory) {... */\n    tag_43:\n        /* \"@openzeppelin/contracts/token/ERC721/ERC721.sol\":2525:2538  string memory */\n      0x60\n        /* \"@openzeppelin/contracts/token/ERC721/ERC721.sol\":2557:2562  _name */\n      0x00\n        /* \"@openzeppelin/contracts/token/ERC721/ERC721.sol\":2550:2562  return _name */\n      dup1\n      sload\n      tag_151\n      swap1\n      tag_152\n      jump\t// in\n    tag_151:\n      dup1\n      0x1f\n      add\n      0x20\n      dup1\n      swap2\n      div\n      mul\n      0x20\n      add\n      mload(0x40)\n      swap1\n      dup2\n      add\n      0x40\n      mstore\n      dup1\n      swap3\n      swap2\n      swap1\n      dup2\n      dup2\n      mstore\n      0x20\n      add\n      dup3\n      dup1\n      sload\n      tag_153\n      swap1\n      tag_152\n      jump\t// in\n    tag_153:\n      dup1\n      iszero\n      tag_154\n      jumpi\n      dup1\n      0x1f\n      lt\n      tag_155\n      jumpi\n      0x0100\n      dup1\n      dup4\n      sload\n      div\n      mul\n      dup4\n      mstore\n      swap2\n      0x20\n      add\n      swap2\n      jump(tag_154)\n    tag_155:\n      dup3\n      add\n      swap2\n      swap1\n      0x00\n      mstore\n      keccak256(0x00, 0x20)\n      swap1\n    tag_156:\n      dup2\n      sload\n      dup2\n      mstore\n      swap1\n      0x01\n      add\n      swap1\n      0x20\n      add\n      dup1\n      dup4\n      gt\n      tag_156\n      jumpi\n      dup3\n      swap1\n      sub\n      0x1f\n      and\n      dup3\n      add\n      swap2\n    tag_154:\n      pop\n      pop\n      pop\n      pop\n      pop\n      swap1\n      pop\n        /* \"@openzeppelin/contracts/token/ERC721/ERC721.sol\":2471:2569  function name() public view virtual override returns (string memory) {... */\n      swap1\n      jump\t// out\n        /* \"@openzeppelin/contracts/token/ERC721/ERC721.sol\":3935:4102  function getApproved(uint256 tokenId) public view virtual override returns (address) {... */\n    tag_49:\n        /* \"@openzeppelin/contracts/token/ERC721/ERC721.sol\":4011:4018  address */\n      0x00\n        /* \"@openzeppelin/contracts/token/ERC721/ERC721.sol\":4030:4053  _requireMinted(tokenId) */\n      tag_158\n        /* \"@openzeppelin/contracts/token/ERC721/ERC721.sol\":4045:4052  tokenId */\n      dup3\n        /* \"@openzeppelin/contracts/token/ERC721/ERC721.sol\":4030:4044  _requireMinted */\n      tag_159\n        /* \"@openzeppelin/contracts/token/ERC721/ERC721.sol\":4030:4053  _requireMinted(tokenId) */\n      jump\t// in\n    tag_158:\n      pop\n        /* \"@openzeppelin/contracts/token/ERC721/ERC721.sol\":4071:4095  _tokenApprovals[tokenId] */\n      0x00\n      swap1\n      dup2\n      mstore\n        /* \"@openzeppelin/contracts/token/ERC721/ERC721.sol\":4071:4086  _tokenApprovals */\n      0x04\n        /* \"@openzeppelin/contracts/token/ERC721/ERC721.sol\":4071:4095  _tokenApprovals[tokenId] */\n      0x20\n      mstore\n      0x40\n      swap1\n      keccak256\n      sload\n      sub(shl(0xa0, 0x01), 0x01)\n      and\n      swap1\n        /* \"@openzeppelin/contracts/token/ERC721/ERC721.sol\":3935:4102  function getApproved(uint256 tokenId) public view virtual override returns (address) {... */\n      jump\t// out\n        /* \"@openzeppelin/contracts/token/ERC721/ERC721.sol\":3468:3874  function approve(address to, uint256 tokenId) public virtual override {... */\n    tag_55:\n        /* \"@openzeppelin/contracts/token/ERC721/ERC721.sol\":3548:3561  address owner */\n      0x00\n        /* \"@openzeppelin/contracts/token/ERC721/ERC721.sol\":3564:3587  ERC721.ownerOf(tokenId) */\n      tag_161\n        /* \"@openzeppelin/contracts/token/ERC721/ERC721.sol\":3579:3586  tokenId */\n      dup3\n        /* \"@openzeppelin/contracts/token/ERC721/ERC721.sol\":3564:3578  ERC721.ownerOf */\n      tag_91\n        /* \"@openzeppelin/contracts/token/ERC721/ERC721.sol\":3564:3587  ERC721.ownerOf(tokenId) */\n      jump\t// in\n    tag_161:\n        /* \"@openzeppelin/contracts/token/ERC721/ERC721.sol\":3548:3587  address owner = ERC721.ownerOf(tokenId) */\n      swap1\n      pop\n        /* \"@openzeppelin/contracts/token/ERC721/ERC721.sol\":3611:3616  owner */\n      dup1\n      sub(shl(0xa0, 0x01), 0x01)\n        /* \"@openzeppelin/contracts/token/ERC721/ERC721.sol\":3605:3616  to != owner */\n      and\n        /* \"@openzeppelin/contracts/token/ERC721/ERC721.sol\":3605:3607  to */\n      dup4\n      sub(shl(0xa0, 0x01), 0x01)\n        /* \"@openzeppelin/contracts/token/ERC721/ERC721.sol\":3605:3616  to != owner */\n      and\n      sub\n        /* \"@openzeppelin/contracts/token/ERC721/ERC721.sol\":3597:3654  require(to != owner, \"ERC721: approval to current owner\") */\n      tag_162\n      jumpi\n      mload(0x40)\n      shl(0xe5, 0x461bcd)\n      dup2\n      mstore\n        /* \"#utility.yul\":6479:6481   */\n      0x20\n        /* \"@openzeppelin/contracts/token/ERC721/ERC721.sol\":3597:3654  require(to != owner, \"ERC721: approval to current owner\") */\n      0x04\n      dup3\n      add\n        /* \"#utility.yul\":6461:6482   */\n      mstore\n        /* \"#utility.yul\":6518:6520   */\n      0x21\n        /* \"#utility.yul\":6498:6516   */\n      0x24\n      dup3\n      add\n        /* \"#utility.yul\":6491:6521   */\n      mstore\n        /* \"#utility.yul\":6557:6591   */\n      0x4552433732313a20617070726f76616c20746f2063757272656e74206f776e65\n        /* \"#utility.yul\":6537:6555   */\n      0x44\n      dup3\n      add\n        /* \"#utility.yul\":6530:6592   */\n      mstore\n      shl(0xf9, 0x39)\n        /* \"#utility.yul\":6608:6626   */\n      0x64\n      dup3\n      add\n        /* \"#utility.yul\":6601:6632   */\n      mstore\n        /* \"#utility.yul\":6649:6668   */\n      0x84\n      add\n        /* \"@openzeppelin/contracts/token/ERC721/ERC721.sol\":3597:3654  require(to != owner, \"ERC721: approval to current owner\") */\n    tag_163:\n      mload(0x40)\n      dup1\n      swap2\n      sub\n      swap1\n      revert\n    tag_162:\n        /* \"@openzeppelin/contracts/utils/Context.sol\":719:729  msg.sender */\n      caller\n      sub(shl(0xa0, 0x01), 0x01)\n        /* \"@openzeppelin/contracts/token/ERC721/ERC721.sol\":3686:3707  _msgSender() == owner */\n      dup3\n      and\n      eq\n      dup1\n        /* \"@openzeppelin/contracts/token/ERC721/ERC721.sol\":3686:3748  _msgSender() == owner || isApprovedForAll(owner, _msgSender()) */\n      tag_168\n      jumpi\n      pop\n        /* \"@openzeppelin/contracts/token/ERC721/ERC721.sol\":3711:3748  isApprovedForAll(owner, _msgSender()) */\n      tag_168\n        /* \"@openzeppelin/contracts/token/ERC721/ERC721.sol\":3728:3733  owner */\n      dup2\n        /* \"@openzeppelin/contracts/utils/Context.sol\":719:729  msg.sender */\n      caller\n        /* \"@openzeppelin/contracts/token/ERC721/ERC721.sol\":4388:4550  function isApprovedForAll(address owner, address operator) public view virtual override returns (bool) {... */\n      tag_137\n      jump\t// in\n        /* \"@openzeppelin/contracts/token/ERC721/ERC721.sol\":3711:3748  isApprovedForAll(owner, _msgSender()) */\n    tag_168:\n        /* \"@openzeppelin/contracts/token/ERC721/ERC721.sol\":3665:3835  require(... */\n      tag_170\n      jumpi\n      mload(0x40)\n      shl(0xe5, 0x461bcd)\n      dup2\n      mstore\n        /* \"#utility.yul\":6881:6883   */\n      0x20\n        /* \"@openzeppelin/contracts/token/ERC721/ERC721.sol\":3665:3835  require(... */\n      0x04\n      dup3\n      add\n        /* \"#utility.yul\":6863:6884   */\n      mstore\n        /* \"#utility.yul\":6920:6922   */\n      0x3d\n        /* \"#utility.yul\":6900:6918   */\n      0x24\n      dup3\n      add\n        /* \"#utility.yul\":6893:6923   */\n      mstore\n        /* \"#utility.yul\":6959:6993   */\n      0x4552433732313a20617070726f76652063616c6c6572206973206e6f7420746f\n        /* \"#utility.yul\":6939:6957   */\n      0x44\n      dup3\n      add\n        /* \"#utility.yul\":6932:6994   */\n      mstore\n        /* \"#utility.yul\":7030:7061   */\n      0x6b656e206f776e6572206f7220617070726f76656420666f7220616c6c000000\n        /* \"#utility.yul\":7010:7028   */\n      0x64\n      dup3\n      add\n        /* \"#utility.yul\":7003:7062   */\n      mstore\n        /* \"#utility.yul\":7079:7098   */\n      0x84\n      add\n        /* \"@openzeppelin/contracts/token/ERC721/ERC721.sol\":3665:3835  require(... */\n      tag_163\n        /* \"#utility.yul\":6679:7104   */\n      jump\n        /* \"@openzeppelin/contracts/token/ERC721/ERC721.sol\":3665:3835  require(... */\n    tag_170:\n        /* \"@openzeppelin/contracts/token/ERC721/ERC721.sol\":3846:3867  _approve(to, tokenId) */\n      tag_173\n        /* \"@openzeppelin/contracts/token/ERC721/ERC721.sol\":3855:3857  to */\n      dup4\n        /* \"@openzeppelin/contracts/token/ERC721/ERC721.sol\":3859:3866  tokenId */\n      dup4\n        /* \"@openzeppelin/contracts/token/ERC721/ERC721.sol\":3846:3854  _approve */\n      tag_174\n        /* \"@openzeppelin/contracts/token/ERC721/ERC721.sol\":3846:3867  _approve(to, tokenId) */\n      jump\t// in\n    tag_173:\n        /* \"@openzeppelin/contracts/token/ERC721/ERC721.sol\":3538:3874  {... */\n      pop\n        /* \"@openzeppelin/contracts/token/ERC721/ERC721.sol\":3468:3874  function approve(address to, uint256 tokenId) public virtual override {... */\n      pop\n      pop\n      jump\t// out\n        /* \"contracts/SoulBoundToken.sol\":2018:2104  function reactivate(uint256 id) public onlyOwner {... */\n    tag_58:\n        /* \"@openzeppelin/contracts/access/Ownable.sol\":1094:1107  _checkOwner() */\n      tag_176\n        /* \"@openzeppelin/contracts/access/Ownable.sol\":1094:1105  _checkOwner */\n      tag_177\n        /* \"@openzeppelin/contracts/access/Ownable.sol\":1094:1107  _checkOwner() */\n      jump\t// in\n    tag_176:\n        /* \"contracts/SoulBoundToken.sol\":2077:2090  _isActive[id] */\n      0x00\n      swap1\n      dup2\n      mstore\n        /* \"contracts/SoulBoundToken.sol\":2077:2086  _isActive */\n      0x09\n        /* \"contracts/SoulBoundToken.sol\":2077:2090  _isActive[id] */\n      0x20\n      mstore\n      0x40\n      swap1\n      keccak256\n        /* \"contracts/SoulBoundToken.sol\":2077:2097  _isActive[id] = true */\n      dup1\n      sload\n      not(0xff)\n      and\n        /* \"contracts/SoulBoundToken.sol\":2093:2097  true */\n      0x01\n        /* \"contracts/SoulBoundToken.sol\":2077:2097  _isActive[id] = true */\n      or\n      swap1\n      sstore\n        /* \"contracts/SoulBoundToken.sol\":2018:2104  function reactivate(uint256 id) public onlyOwner {... */\n      jump\t// out\n        /* \"@openzeppelin/contracts/token/ERC721/ERC721.sol\":4612:4938  function transferFrom(... */\n    tag_62:\n        /* \"@openzeppelin/contracts/token/ERC721/ERC721.sol\":4801:4842  _isApprovedOrOwner(_msgSender(), tokenId) */\n      tag_180\n        /* \"@openzeppelin/contracts/utils/Context.sol\":719:729  msg.sender */\n      caller\n        /* \"@openzeppelin/contracts/token/ERC721/ERC721.sol\":4834:4841  tokenId */\n      dup3\n        /* \"@openzeppelin/contracts/token/ERC721/ERC721.sol\":4801:4819  _isApprovedOrOwner */\n      tag_182\n        /* \"@openzeppelin/contracts/token/ERC721/ERC721.sol\":4801:4842  _isApprovedOrOwner(_msgSender(), tokenId) */\n      jump\t// in\n    tag_180:\n        /* \"@openzeppelin/contracts/token/ERC721/ERC721.sol\":4793:4892  require(_isApprovedOrOwner(_msgSender(), tokenId), \"ERC721: caller is not token owner or approved\") */\n      tag_183\n      jumpi\n      mload(0x40)\n      shl(0xe5, 0x461bcd)\n      dup2\n      mstore\n      0x04\n      add\n      tag_163\n      swap1\n      tag_185\n      jump\t// in\n    tag_183:\n        /* \"@openzeppelin/contracts/token/ERC721/ERC721.sol\":4903:4931  _transfer(from, to, tokenId) */\n      tag_173\n        /* \"@openzeppelin/contracts/token/ERC721/ERC721.sol\":4913:4917  from */\n      dup4\n        /* \"@openzeppelin/contracts/token/ERC721/ERC721.sol\":4919:4921  to */\n      dup4\n        /* \"@openzeppelin/contracts/token/ERC721/ERC721.sol\":4923:4930  tokenId */\n      dup4\n        /* \"@openzeppelin/contracts/token/ERC721/ERC721.sol\":4903:4912  _transfer */\n      tag_187\n        /* \"@openzeppelin/contracts/token/ERC721/ERC721.sol\":4903:4931  _transfer(from, to, tokenId) */\n      jump\t// in\n        /* \"contracts/SoulBoundToken.sol\":2570:2690  function hasActiveSBT(address owner) public view returns (bool) {... */\n    tag_76:\n        /* \"contracts/SoulBoundToken.sol\":2628:2632  bool */\n      0x00\n        /* \"contracts/SoulBoundToken.sol\":2651:2660  _isActive */\n      0x09\n        /* \"contracts/SoulBoundToken.sol\":2651:2683  _isActive[ownerToTokenId(owner)] */\n      0x00\n        /* \"contracts/SoulBoundToken.sol\":2661:2682  ownerToTokenId(owner) */\n      tag_191\n        /* \"contracts/SoulBoundToken.sol\":2676:2681  owner */\n      dup5\n      sub(shl(0xa0, 0x01), 0x01)\n        /* \"contracts/SoulBoundToken.sol\":2782:2804  _ownerToTokenId[owner] */\n      and\n        /* \"contracts/SoulBoundToken.sol\":2756:2763  uint256 */\n      0x00\n        /* \"contracts/SoulBoundToken.sol\":2782:2804  _ownerToTokenId[owner] */\n      swap1\n      dup2\n      mstore\n        /* \"contracts/SoulBoundToken.sol\":2782:2797  _ownerToTokenId */\n      0x0b\n        /* \"contracts/SoulBoundToken.sol\":2782:2804  _ownerToTokenId[owner] */\n      0x20\n      mstore\n      0x40\n      swap1\n      keccak256\n      sload\n      swap1\n        /* \"contracts/SoulBoundToken.sol\":2696:2811  function ownerToTokenId(address owner) public view returns (uint256) {... */\n      jump\n        /* \"contracts/SoulBoundToken.sol\":2661:2682  ownerToTokenId(owner) */\n    tag_191:\n        /* \"contracts/SoulBoundToken.sol\":2651:2683  _isActive[ownerToTokenId(owner)] */\n      dup2\n      mstore\n      0x20\n      dup2\n      add\n      swap2\n      swap1\n      swap2\n      mstore\n      0x40\n      add\n      0x00\n      keccak256\n      sload\n      0xff\n      and\n      swap3\n        /* \"contracts/SoulBoundToken.sol\":2570:2690  function hasActiveSBT(address owner) public view returns (bool) {... */\n      swap2\n      pop\n      pop\n      jump\t// out\n        /* \"@openzeppelin/contracts/token/ERC721/ERC721.sol\":5004:5183  function safeTransferFrom(... */\n    tag_80:\n        /* \"@openzeppelin/contracts/token/ERC721/ERC721.sol\":5137:5176  safeTransferFrom(from, to, tokenId, \"\") */\n      tag_173\n        /* \"@openzeppelin/contracts/token/ERC721/ERC721.sol\":5154:5158  from */\n      dup4\n        /* \"@openzeppelin/contracts/token/ERC721/ERC721.sol\":5160:5162  to */\n      dup4\n        /* \"@openzeppelin/contracts/token/ERC721/ERC721.sol\":5164:5171  tokenId */\n      dup4\n        /* \"@openzeppelin/contracts/token/ERC721/ERC721.sol\":5137:5176  safeTransferFrom(from, to, tokenId, \"\") */\n      mload(0x40)\n      dup1\n      0x20\n      add\n      0x40\n      mstore\n      dup1\n      0x00\n      dup2\n      mstore\n      pop\n        /* \"@openzeppelin/contracts/token/ERC721/ERC721.sol\":5137:5153  safeTransferFrom */\n      tag_123\n        /* \"@openzeppelin/contracts/token/ERC721/ERC721.sol\":5137:5176  safeTransferFrom(from, to, tokenId, \"\") */\n      jump\t// in\n        /* \"contracts/SoulBoundToken.sol\":1264:1424  function burn(uint256 tokenId) external {... */\n    tag_83:\n        /* \"contracts/SoulBoundToken.sol\":1355:1365  msg.sender */\n      caller\n        /* \"contracts/SoulBoundToken.sol\":1335:1351  ownerOf(tokenId) */\n      tag_195\n        /* \"contracts/SoulBoundToken.sol\":1343:1350  tokenId */\n      dup3\n        /* \"contracts/SoulBoundToken.sol\":1335:1342  ownerOf */\n      tag_91\n        /* \"contracts/SoulBoundToken.sol\":1335:1351  ownerOf(tokenId) */\n      jump\t// in\n    tag_195:\n      sub(shl(0xa0, 0x01), 0x01)\n        /* \"contracts/SoulBoundToken.sol\":1335:1365  ownerOf(tokenId) == msg.sender */\n      and\n      eq\n        /* \"contracts/SoulBoundToken.sol\":1314:1393  require(... */\n      tag_196\n      jumpi\n      mload(0x40)\n      shl(0xe5, 0x461bcd)\n      dup2\n      mstore\n        /* \"#utility.yul\":7725:7727   */\n      0x20\n        /* \"contracts/SoulBoundToken.sol\":1314:1393  require(... */\n      0x04\n      dup3\n      add\n        /* \"#utility.yul\":7707:7728   */\n      mstore\n        /* \"#utility.yul\":7764:7765   */\n      0x02\n        /* \"#utility.yul\":7744:7762   */\n      0x24\n      dup3\n      add\n        /* \"#utility.yul\":7737:7766   */\n      mstore\n      shl(0xf0, 0x4e4f)\n        /* \"#utility.yul\":7782:7800   */\n      0x44\n      dup3\n      add\n        /* \"#utility.yul\":7775:7807   */\n      mstore\n        /* \"#utility.yul\":7824:7842   */\n      0x64\n      add\n        /* \"contracts/SoulBoundToken.sol\":1314:1393  require(... */\n      tag_163\n        /* \"#utility.yul\":7523:7848   */\n      jump\n        /* \"contracts/SoulBoundToken.sol\":1314:1393  require(... */\n    tag_196:\n        /* \"contracts/SoulBoundToken.sol\":1403:1417  _burn(tokenId) */\n      tag_199\n        /* \"contracts/SoulBoundToken.sol\":1409:1416  tokenId */\n      dup2\n        /* \"contracts/SoulBoundToken.sol\":1403:1408  _burn */\n      tag_200\n        /* \"contracts/SoulBoundToken.sol\":1403:1417  _burn(tokenId) */\n      jump\t// in\n    tag_199:\n        /* \"contracts/SoulBoundToken.sol\":1264:1424  function burn(uint256 tokenId) external {... */\n      pop\n      jump\t// out\n        /* \"@openzeppelin/contracts/token/ERC721/ERC721.sol\":2190:2409  function ownerOf(uint256 tokenId) public view virtual override returns (address) {... */\n    tag_91:\n        /* \"@openzeppelin/contracts/token/ERC721/ERC721.sol\":2262:2269  address */\n      0x00\n        /* \"@openzeppelin/contracts/token/ERC721/ERC721.sol\":6930:6946  _owners[tokenId] */\n      dup2\n      dup2\n      mstore\n        /* \"@openzeppelin/contracts/token/ERC721/ERC721.sol\":6930:6937  _owners */\n      0x02\n        /* \"@openzeppelin/contracts/token/ERC721/ERC721.sol\":6930:6946  _owners[tokenId] */\n      0x20\n      mstore\n      0x40\n      dup2\n      keccak256\n      sload\n      sub(shl(0xa0, 0x01), 0x01)\n      and\n      dup1\n        /* \"@openzeppelin/contracts/token/ERC721/ERC721.sol\":2324:2380  require(owner != address(0), \"ERC721: invalid token ID\") */\n      tag_148\n      jumpi\n      mload(0x40)\n      shl(0xe5, 0x461bcd)\n      dup2\n      mstore\n        /* \"#utility.yul\":8055:8057   */\n      0x20\n        /* \"@openzeppelin/contracts/token/ERC721/ERC721.sol\":2324:2380  require(owner != address(0), \"ERC721: invalid token ID\") */\n      0x04\n      dup3\n      add\n        /* \"#utility.yul\":8037:8058   */\n      mstore\n        /* \"#utility.yul\":8094:8096   */\n      0x18\n        /* \"#utility.yul\":8074:8092   */\n      0x24\n      dup3\n      add\n        /* \"#utility.yul\":8067:8097   */\n      mstore\n      shl(0x42, 0x115490cdcc8c4e881a5b9d985b1a59081d1bdad95b881251)\n        /* \"#utility.yul\":8113:8131   */\n      0x44\n      dup3\n      add\n        /* \"#utility.yul\":8106:8160   */\n      mstore\n        /* \"#utility.yul\":8177:8195   */\n      0x64\n      add\n        /* \"@openzeppelin/contracts/token/ERC721/ERC721.sol\":2324:2380  require(owner != address(0), \"ERC721: invalid token ID\") */\n      tag_163\n        /* \"#utility.yul\":7853:8201   */\n      jump\n        /* \"@openzeppelin/contracts/token/ERC721/ERC721.sol\":1929:2133  function balanceOf(address owner) public view virtual override returns (uint256) {... */\n    tag_95:\n        /* \"@openzeppelin/contracts/token/ERC721/ERC721.sol\":2001:2008  uint256 */\n      0x00\n      sub(shl(0xa0, 0x01), 0x01)\n        /* \"@openzeppelin/contracts/token/ERC721/ERC721.sol\":2028:2047  owner != address(0) */\n      dup3\n      and\n        /* \"@openzeppelin/contracts/token/ERC721/ERC721.sol\":2020:2093  require(owner != address(0), \"ERC721: address zero is not a valid owner\") */\n      tag_209\n      jumpi\n      mload(0x40)\n      shl(0xe5, 0x461bcd)\n      dup2\n      mstore\n        /* \"#utility.yul\":8408:8410   */\n      0x20\n        /* \"@openzeppelin/contracts/token/ERC721/ERC721.sol\":2020:2093  require(owner != address(0), \"ERC721: address zero is not a valid owner\") */\n      0x04\n      dup3\n      add\n        /* \"#utility.yul\":8390:8411   */\n      mstore\n        /* \"#utility.yul\":8447:8449   */\n      0x29\n        /* \"#utility.yul\":8427:8445   */\n      0x24\n      dup3\n      add\n        /* \"#utility.yul\":8420:8450   */\n      mstore\n        /* \"#utility.yul\":8486:8520   */\n      0x4552433732313a2061646472657373207a65726f206973206e6f742061207661\n        /* \"#utility.yul\":8466:8484   */\n      0x44\n      dup3\n      add\n        /* \"#utility.yul\":8459:8521   */\n      mstore\n      shl(0xb9, 0x3634b21037bbb732b9)\n        /* \"#utility.yul\":8537:8555   */\n      0x64\n      dup3\n      add\n        /* \"#utility.yul\":8530:8569   */\n      mstore\n        /* \"#utility.yul\":8586:8605   */\n      0x84\n      add\n        /* \"@openzeppelin/contracts/token/ERC721/ERC721.sol\":2020:2093  require(owner != address(0), \"ERC721: address zero is not a valid owner\") */\n      tag_163\n        /* \"#utility.yul\":8206:8611   */\n      jump\n        /* \"@openzeppelin/contracts/token/ERC721/ERC721.sol\":2020:2093  require(owner != address(0), \"ERC721: address zero is not a valid owner\") */\n    tag_209:\n      pop\n      sub(shl(0xa0, 0x01), 0x01)\n        /* \"@openzeppelin/contracts/token/ERC721/ERC721.sol\":2110:2126  _balances[owner] */\n      and\n      0x00\n      swap1\n      dup2\n      mstore\n        /* \"@openzeppelin/contracts/token/ERC721/ERC721.sol\":2110:2119  _balances */\n      0x03\n        /* \"@openzeppelin/contracts/token/ERC721/ERC721.sol\":2110:2126  _balances[owner] */\n      0x20\n      mstore\n      0x40\n      swap1\n      keccak256\n      sload\n      swap1\n        /* \"@openzeppelin/contracts/token/ERC721/ERC721.sol\":1929:2133  function balanceOf(address owner) public view virtual override returns (uint256) {... */\n      jump\t// out\n        /* \"@openzeppelin/contracts/access/Ownable.sol\":1831:1932  function renounceOwnership() public virtual onlyOwner {... */\n    tag_98:\n        /* \"@openzeppelin/contracts/access/Ownable.sol\":1094:1107  _checkOwner() */\n      tag_213\n        /* \"@openzeppelin/contracts/access/Ownable.sol\":1094:1105  _checkOwner */\n      tag_177\n        /* \"@openzeppelin/contracts/access/Ownable.sol\":1094:1107  _checkOwner() */\n      jump\t// in\n    tag_213:\n        /* \"@openzeppelin/contracts/access/Ownable.sol\":1895:1925  _transferOwnership(address(0)) */\n      tag_215\n        /* \"@openzeppelin/contracts/access/Ownable.sol\":1922:1923  0 */\n      0x00\n        /* \"@openzeppelin/contracts/access/Ownable.sol\":1895:1913  _transferOwnership */\n      tag_216\n        /* \"@openzeppelin/contracts/access/Ownable.sol\":1895:1925  _transferOwnership(address(0)) */\n      jump\t// in\n    tag_215:\n        /* \"@openzeppelin/contracts/access/Ownable.sol\":1831:1932  function renounceOwnership() public virtual onlyOwner {... */\n      jump\t// out\n        /* \"contracts/SoulBoundToken.sol\":1925:2012  function deactivate(uint256 id) public onlyOwner {... */\n    tag_108:\n        /* \"@openzeppelin/contracts/access/Ownable.sol\":1094:1107  _checkOwner() */\n      tag_220\n        /* \"@openzeppelin/contracts/access/Ownable.sol\":1094:1105  _checkOwner */\n      tag_177\n        /* \"@openzeppelin/contracts/access/Ownable.sol\":1094:1107  _checkOwner() */\n      jump\t// in\n    tag_220:\n        /* \"contracts/SoulBoundToken.sol\":2000:2005  false */\n      0x00\n        /* \"contracts/SoulBoundToken.sol\":1984:1997  _isActive[id] */\n      swap1\n      dup2\n      mstore\n        /* \"contracts/SoulBoundToken.sol\":1984:1993  _isActive */\n      0x09\n        /* \"contracts/SoulBoundToken.sol\":1984:1997  _isActive[id] */\n      0x20\n      mstore\n      0x40\n      swap1\n      keccak256\n        /* \"contracts/SoulBoundToken.sol\":1984:2005  _isActive[id] = false */\n      dup1\n      sload\n      not(0xff)\n      and\n      swap1\n      sstore\n        /* \"contracts/SoulBoundToken.sol\":1925:2012  function deactivate(uint256 id) public onlyOwner {... */\n      jump\t// out\n        /* \"@openzeppelin/contracts/token/ERC721/ERC721.sol\":2633:2735  function symbol() public view virtual override returns (string memory) {... */\n    tag_110:\n        /* \"@openzeppelin/contracts/token/ERC721/ERC721.sol\":2689:2702  string memory */\n      0x60\n        /* \"@openzeppelin/contracts/token/ERC721/ERC721.sol\":2721:2728  _symbol */\n      0x01\n        /* \"@openzeppelin/contracts/token/ERC721/ERC721.sol\":2714:2728  return _symbol */\n      dup1\n      sload\n      tag_151\n      swap1\n      tag_152\n      jump\t// in\n        /* \"@openzeppelin/contracts/token/ERC721/ERC721.sol\":4169:4322  function setApprovalForAll(address operator, bool approved) public virtual override {... */\n    tag_115:\n        /* \"@openzeppelin/contracts/token/ERC721/ERC721.sol\":4263:4315  _setApprovalForAll(_msgSender(), operator, approved) */\n      tag_229\n        /* \"@openzeppelin/contracts/utils/Context.sol\":719:729  msg.sender */\n      caller\n        /* \"@openzeppelin/contracts/token/ERC721/ERC721.sol\":4296:4304  operator */\n      dup4\n        /* \"@openzeppelin/contracts/token/ERC721/ERC721.sol\":4306:4314  approved */\n      dup4\n        /* \"@openzeppelin/contracts/token/ERC721/ERC721.sol\":4263:4281  _setApprovalForAll */\n      tag_231\n        /* \"@openzeppelin/contracts/token/ERC721/ERC721.sol\":4263:4315  _setApprovalForAll(_msgSender(), operator, approved) */\n      jump\t// in\n    tag_229:\n        /* \"@openzeppelin/contracts/token/ERC721/ERC721.sol\":4169:4322  function setApprovalForAll(address operator, bool approved) public virtual override {... */\n      pop\n      pop\n      jump\t// out\n        /* \"contracts/SoulBoundToken.sol\":2229:2349  function accessTier(address owner) public view returns (uint8) {... */\n    tag_118:\n      sub(shl(0xa0, 0x01), 0x01)\n        /* \"contracts/SoulBoundToken.sol\":2782:2804  _ownerToTokenId[owner] */\n      dup2\n      and\n        /* \"contracts/SoulBoundToken.sol\":2285:2290  uint8 */\n      0x00\n        /* \"contracts/SoulBoundToken.sol\":2782:2804  _ownerToTokenId[owner] */\n      swap1\n      dup2\n      mstore\n        /* \"contracts/SoulBoundToken.sol\":2782:2797  _ownerToTokenId */\n      0x0b\n        /* \"contracts/SoulBoundToken.sol\":2782:2804  _ownerToTokenId[owner] */\n      0x20\n      mstore\n      0x40\n      dup2\n      keccak256\n      sload\n        /* \"contracts/SoulBoundToken.sol\":2309:2342  accessTier(ownerToTokenId(owner)) */\n      tag_148\n      swap1\n        /* \"contracts/SoulBoundToken.sol\":2320:2341  ownerToTokenId(owner) */\n      tag_69\n        /* \"contracts/SoulBoundToken.sol\":2696:2811  function ownerToTokenId(address owner) public view returns (uint256) {... */\n      jump\n        /* \"@openzeppelin/contracts/token/ERC721/ERC721.sol\":5249:5563  function safeTransferFrom(... */\n    tag_123:\n        /* \"@openzeppelin/contracts/token/ERC721/ERC721.sol\":5417:5458  _isApprovedOrOwner(_msgSender(), tokenId) */\n      tag_236\n        /* \"@openzeppelin/contracts/utils/Context.sol\":719:729  msg.sender */\n      caller\n        /* \"@openzeppelin/contracts/token/ERC721/ERC721.sol\":5450:5457  tokenId */\n      dup4\n        /* \"@openzeppelin/contracts/token/ERC721/ERC721.sol\":5417:5435  _isApprovedOrOwner */\n      tag_182\n        /* \"@openzeppelin/contracts/token/ERC721/ERC721.sol\":5417:5458  _isApprovedOrOwner(_msgSender(), tokenId) */\n      jump\t// in\n    tag_236:\n        /* \"@openzeppelin/contracts/token/ERC721/ERC721.sol\":5409:5508  require(_isApprovedOrOwner(_msgSender(), tokenId), \"ERC721: caller is not token owner or approved\") */\n      tag_238\n      jumpi\n      mload(0x40)\n      shl(0xe5, 0x461bcd)\n      dup2\n      mstore\n      0x04\n      add\n      tag_163\n      swap1\n      tag_185\n      jump\t// in\n    tag_238:\n        /* \"@openzeppelin/contracts/token/ERC721/ERC721.sol\":5518:5556  _safeTransfer(from, to, tokenId, data) */\n      tag_240\n        /* \"@openzeppelin/contracts/token/ERC721/ERC721.sol\":5532:5536  from */\n      dup5\n        /* \"@openzeppelin/contracts/token/ERC721/ERC721.sol\":5538:5540  to */\n      dup5\n        /* \"@openzeppelin/contracts/token/ERC721/ERC721.sol\":5542:5549  tokenId */\n      dup5\n        /* \"@openzeppelin/contracts/token/ERC721/ERC721.sol\":5551:5555  data */\n      dup5\n        /* \"@openzeppelin/contracts/token/ERC721/ERC721.sol\":5518:5531  _safeTransfer */\n      tag_241\n        /* \"@openzeppelin/contracts/token/ERC721/ERC721.sol\":5518:5556  _safeTransfer(from, to, tokenId, data) */\n      jump\t// in\n    tag_240:\n        /* \"@openzeppelin/contracts/token/ERC721/ERC721.sol\":5249:5563  function safeTransferFrom(... */\n      pop\n      pop\n      pop\n      pop\n      jump\t// out\n        /* \"contracts/SoulBoundToken.sol\":1779:1919  function modifyLevel(... */\n    tag_127:\n        /* \"@openzeppelin/contracts/access/Ownable.sol\":1094:1107  _checkOwner() */\n      tag_243\n        /* \"@openzeppelin/contracts/access/Ownable.sol\":1094:1105  _checkOwner */\n      tag_177\n        /* \"@openzeppelin/contracts/access/Ownable.sol\":1094:1107  _checkOwner() */\n      jump\t// in\n    tag_243:\n        /* \"contracts/SoulBoundToken.sol\":1874:1878  tier */\n      dup1\n        /* \"contracts/SoulBoundToken.sol\":661:662  1 */\n      0x01\n        /* \"contracts/SoulBoundToken.sol\":653:657  tier */\n      dup2\n        /* \"contracts/SoulBoundToken.sol\":653:662  tier >= 1 */\n      0xff\n      and\n      lt\n      iszero\n        /* \"contracts/SoulBoundToken.sol\":653:675  tier >= 1 && tier <= 3 */\n      dup1\n      iszero\n      tag_245\n      jumpi\n      pop\n        /* \"contracts/SoulBoundToken.sol\":674:675  3 */\n      0x03\n        /* \"contracts/SoulBoundToken.sol\":666:670  tier */\n      dup2\n        /* \"contracts/SoulBoundToken.sol\":666:675  tier <= 3 */\n      0xff\n      and\n      gt\n      iszero\n        /* \"contracts/SoulBoundToken.sol\":653:675  tier >= 1 && tier <= 3 */\n    tag_245:\n        /* \"contracts/SoulBoundToken.sol\":645:682  require(tier >= 1 && tier <= 3, \"IT\") */\n      tag_246\n      jumpi\n      mload(0x40)\n      shl(0xe5, 0x461bcd)\n      dup2\n      mstore\n        /* \"#utility.yul\":8818:8820   */\n      0x20\n        /* \"contracts/SoulBoundToken.sol\":645:682  require(tier >= 1 && tier <= 3, \"IT\") */\n      0x04\n      dup3\n      add\n        /* \"#utility.yul\":8800:8821   */\n      mstore\n        /* \"#utility.yul\":8857:8858   */\n      0x02\n        /* \"#utility.yul\":8837:8855   */\n      0x24\n      dup3\n      add\n        /* \"#utility.yul\":8830:8859   */\n      mstore\n      shl(0xf2, 0x1255)\n        /* \"#utility.yul\":8875:8893   */\n      0x44\n      dup3\n      add\n        /* \"#utility.yul\":8868:8900   */\n      mstore\n        /* \"#utility.yul\":8917:8935   */\n      0x64\n      add\n        /* \"contracts/SoulBoundToken.sol\":645:682  require(tier >= 1 && tier <= 3, \"IT\") */\n      tag_163\n        /* \"#utility.yul\":8616:8941   */\n      jump\n        /* \"contracts/SoulBoundToken.sol\":645:682  require(tier >= 1 && tier <= 3, \"IT\") */\n    tag_246:\n      pop\n        /* \"contracts/SoulBoundToken.sol\":1890:1905  _accessTier[id] */\n      0x00\n      swap2\n      dup3\n      mstore\n        /* \"contracts/SoulBoundToken.sol\":1890:1901  _accessTier */\n      0x08\n        /* \"contracts/SoulBoundToken.sol\":1890:1905  _accessTier[id] */\n      0x20\n      mstore\n      0x40\n      swap1\n      swap2\n      keccak256\n        /* \"contracts/SoulBoundToken.sol\":1890:1912  _accessTier[id] = tier */\n      dup1\n      sload\n      not(0xff)\n      and\n      0xff\n      swap1\n      swap3\n      and\n      swap2\n      swap1\n      swap2\n      or\n      swap1\n      sstore\n        /* \"contracts/SoulBoundToken.sol\":1779:1919  function modifyLevel(... */\n      jump\t// out\n        /* \"contracts/SoulBoundToken.sol\":802:1258  function safeMint(... */\n    tag_131:\n        /* \"@openzeppelin/contracts/access/Ownable.sol\":1094:1107  _checkOwner() */\n      tag_251\n        /* \"@openzeppelin/contracts/access/Ownable.sol\":1094:1105  _checkOwner */\n      tag_177\n        /* \"@openzeppelin/contracts/access/Ownable.sol\":1094:1107  _checkOwner() */\n      jump\t// in\n    tag_251:\n        /* \"contracts/SoulBoundToken.sol\":918:922  tier */\n      dup2\n        /* \"contracts/SoulBoundToken.sol\":661:662  1 */\n      0x01\n        /* \"contracts/SoulBoundToken.sol\":653:657  tier */\n      dup2\n        /* \"contracts/SoulBoundToken.sol\":653:662  tier >= 1 */\n      0xff\n      and\n      lt\n      iszero\n        /* \"contracts/SoulBoundToken.sol\":653:675  tier >= 1 && tier <= 3 */\n      dup1\n      iszero\n      tag_253\n      jumpi\n      pop\n        /* \"contracts/SoulBoundToken.sol\":674:675  3 */\n      0x03\n        /* \"contracts/SoulBoundToken.sol\":666:670  tier */\n      dup2\n        /* \"contracts/SoulBoundToken.sol\":666:675  tier <= 3 */\n      0xff\n      and\n      gt\n      iszero\n        /* \"contracts/SoulBoundToken.sol\":653:675  tier >= 1 && tier <= 3 */\n    tag_253:\n        /* \"contracts/SoulBoundToken.sol\":645:682  require(tier >= 1 && tier <= 3, \"IT\") */\n      tag_254\n      jumpi\n      mload(0x40)\n      shl(0xe5, 0x461bcd)\n      dup2\n      mstore\n        /* \"#utility.yul\":8818:8820   */\n      0x20\n        /* \"contracts/SoulBoundToken.sol\":645:682  require(tier >= 1 && tier <= 3, \"IT\") */\n      0x04\n      dup3\n      add\n        /* \"#utility.yul\":8800:8821   */\n      mstore\n        /* \"#utility.yul\":8857:8858   */\n      0x02\n        /* \"#utility.yul\":8837:8855   */\n      0x24\n      dup3\n      add\n        /* \"#utility.yul\":8830:8859   */\n      mstore\n      shl(0xf2, 0x1255)\n        /* \"#utility.yul\":8875:8893   */\n      0x44\n      dup3\n      add\n        /* \"#utility.yul\":8868:8900   */\n      mstore\n        /* \"#utility.yul\":8917:8935   */\n      0x64\n      add\n        /* \"contracts/SoulBoundToken.sol\":645:682  require(tier >= 1 && tier <= 3, \"IT\") */\n      tag_163\n        /* \"#utility.yul\":8616:8941   */\n      jump\n        /* \"contracts/SoulBoundToken.sol\":645:682  require(tier >= 1 && tier <= 3, \"IT\") */\n    tag_254:\n      sub(shl(0xa0, 0x01), 0x01)\n        /* \"contracts/SoulBoundToken.sol\":942:961  _ownerToTokenId[to] */\n      dup5\n      and\n      0x00\n      swap1\n      dup2\n      mstore\n        /* \"contracts/SoulBoundToken.sol\":942:957  _ownerToTokenId */\n      0x0b\n        /* \"contracts/SoulBoundToken.sol\":942:961  _ownerToTokenId[to] */\n      0x20\n      mstore\n      0x40\n      swap1\n      keccak256\n      sload\n        /* \"contracts/SoulBoundToken.sol\":942:966  _ownerToTokenId[to] == 0 */\n      iszero\n        /* \"contracts/SoulBoundToken.sol\":934:975  require(_ownerToTokenId[to] == 0, \"STAE\") */\n      tag_257\n      jumpi\n      mload(0x40)\n      shl(0xe5, 0x461bcd)\n      dup2\n      mstore\n      0x04\n      add\n      tag_163\n      swap1\n        /* \"#utility.yul\":9148:9150   */\n      0x20\n        /* \"#utility.yul\":9130:9151   */\n      dup1\n      dup3\n      mstore\n        /* \"#utility.yul\":9187:9188   */\n      0x04\n        /* \"#utility.yul\":9167:9185   */\n      swap1\n      dup3\n      add\n        /* \"#utility.yul\":9160:9189   */\n      mstore\n      shl(0xe0, 0x53544145)\n        /* \"#utility.yul\":9220:9222   */\n      0x40\n        /* \"#utility.yul\":9205:9223   */\n      dup3\n      add\n        /* \"#utility.yul\":9198:9232   */\n      mstore\n        /* \"#utility.yul\":9264:9266   */\n      0x60\n        /* \"#utility.yul\":9249:9267   */\n      add\n      swap1\n        /* \"#utility.yul\":8946:9273   */\n      jump\n        /* \"contracts/SoulBoundToken.sol\":934:975  require(_ownerToTokenId[to] == 0, \"STAE\") */\n    tag_257:\n        /* \"contracts/SoulBoundToken.sol\":985:1000  uint256 tokenId */\n      0x00\n        /* \"contracts/SoulBoundToken.sol\":1003:1028  _tokenIdCounter.current() */\n      tag_260\n        /* \"contracts/SoulBoundToken.sol\":1003:1018  _tokenIdCounter */\n      0x07\n        /* \"@openzeppelin/contracts/utils/Counters.sol\":918:932  counter._value */\n      sload\n      swap1\n        /* \"@openzeppelin/contracts/utils/Counters.sol\":827:939  function current(Counter storage counter) internal view returns (uint256) {... */\n      jump\n        /* \"contracts/SoulBoundToken.sol\":1003:1028  _tokenIdCounter.current() */\n    tag_260:\n        /* \"contracts/SoulBoundToken.sol\":985:1028  uint256 tokenId = _tokenIdCounter.current() */\n      swap1\n      pop\n        /* \"contracts/SoulBoundToken.sol\":1038:1065  _tokenIdCounter.increment() */\n      tag_262\n        /* \"contracts/SoulBoundToken.sol\":1038:1053  _tokenIdCounter */\n      0x07\n        /* \"@openzeppelin/contracts/utils/Counters.sol\":1032:1051  counter._value += 1 */\n      dup1\n      sload\n        /* \"@openzeppelin/contracts/utils/Counters.sol\":1050:1051  1 */\n      0x01\n        /* \"@openzeppelin/contracts/utils/Counters.sol\":1032:1051  counter._value += 1 */\n      add\n      swap1\n      sstore\n        /* \"@openzeppelin/contracts/utils/Counters.sol\":945:1068  function increment(Counter storage counter) internal {... */\n      jump\n        /* \"contracts/SoulBoundToken.sol\":1038:1065  _tokenIdCounter.increment() */\n    tag_262:\n        /* \"contracts/SoulBoundToken.sol\":1075:1093  _isActive[tokenId] */\n      0x00\n      dup2\n      dup2\n      mstore\n        /* \"contracts/SoulBoundToken.sol\":1075:1084  _isActive */\n      0x09\n        /* \"contracts/SoulBoundToken.sol\":1075:1093  _isActive[tokenId] */\n      0x20\n      swap1\n      dup2\n      mstore\n      0x40\n      dup1\n      dup4\n      keccak256\n        /* \"contracts/SoulBoundToken.sol\":1075:1100  _isActive[tokenId] = true */\n      dup1\n      sload\n        /* \"contracts/SoulBoundToken.sol\":1096:1100  true */\n      0x01\n      not(0xff)\n        /* \"contracts/SoulBoundToken.sol\":1075:1100  _isActive[tokenId] = true */\n      swap2\n      dup3\n      and\n      or\n      swap1\n      swap2\n      sstore\n        /* \"contracts/SoulBoundToken.sol\":1110:1121  _accessTier */\n      0x08\n        /* \"contracts/SoulBoundToken.sol\":1110:1130  _accessTier[tokenId] */\n      dup4\n      mstore\n      dup2\n      dup5\n      keccak256\n        /* \"contracts/SoulBoundToken.sol\":1110:1137  _accessTier[tokenId] = tier */\n      dup1\n      sload\n      swap1\n      swap2\n      and\n        /* \"contracts/SoulBoundToken.sol\":1075:1100  _isActive[tokenId] = true */\n      0xff\n        /* \"contracts/SoulBoundToken.sol\":1110:1137  _accessTier[tokenId] = tier */\n      dup10\n      and\n      or\n      swap1\n      sstore\n        /* \"contracts/SoulBoundToken.sol\":1147:1162  _hashedIdentity */\n      0x0a\n        /* \"contracts/SoulBoundToken.sol\":1147:1171  _hashedIdentity[tokenId] */\n      dup3\n      mstore\n      dup1\n      dup4\n      keccak256\n        /* \"contracts/SoulBoundToken.sol\":1147:1180  _hashedIdentity[tokenId] = hashed */\n      dup7\n      swap1\n      sstore\n      sub(shl(0xa0, 0x01), 0x01)\n        /* \"contracts/SoulBoundToken.sol\":1190:1209  _ownerToTokenId[to] */\n      dup9\n      and\n      dup4\n      mstore\n        /* \"contracts/SoulBoundToken.sol\":1190:1205  _ownerToTokenId */\n      0x0b\n        /* \"contracts/SoulBoundToken.sol\":1190:1209  _ownerToTokenId[to] */\n      swap1\n      swap2\n      mstore\n      swap1\n      keccak256\n        /* \"contracts/SoulBoundToken.sol\":1190:1219  _ownerToTokenId[to] = tokenId */\n      dup2\n      swap1\n      sstore\n        /* \"contracts/SoulBoundToken.sol\":1229:1251  _safeMint(to, tokenId) */\n      tag_263\n        /* \"contracts/SoulBoundToken.sol\":1190:1209  _ownerToTokenId[to] */\n      dup6\n        /* \"contracts/SoulBoundToken.sol\":1075:1093  _isActive[tokenId] */\n      dup3\n        /* \"contracts/SoulBoundToken.sol\":1229:1238  _safeMint */\n      tag_264\n        /* \"contracts/SoulBoundToken.sol\":1229:1251  _safeMint(to, tokenId) */\n      jump\t// in\n    tag_263:\n        /* \"contracts/SoulBoundToken.sol\":924:1258  {... */\n      pop\n        /* \"@openzeppelin/contracts/access/Ownable.sol\":1117:1118  _ */\n      pop\n        /* \"contracts/SoulBoundToken.sol\":802:1258  function safeMint(... */\n      pop\n      pop\n      pop\n      jump\t// out\n        /* \"@openzeppelin/contracts/token/ERC721/ERC721.sol\":2801:3077  function tokenURI(uint256 tokenId) public view virtual override returns (string memory) {... */\n    tag_134:\n        /* \"@openzeppelin/contracts/token/ERC721/ERC721.sol\":2874:2887  string memory */\n      0x60\n        /* \"@openzeppelin/contracts/token/ERC721/ERC721.sol\":2899:2922  _requireMinted(tokenId) */\n      tag_266\n        /* \"@openzeppelin/contracts/token/ERC721/ERC721.sol\":2914:2921  tokenId */\n      dup3\n        /* \"@openzeppelin/contracts/token/ERC721/ERC721.sol\":2899:2913  _requireMinted */\n      tag_159\n        /* \"@openzeppelin/contracts/token/ERC721/ERC721.sol\":2899:2922  _requireMinted(tokenId) */\n      jump\t// in\n    tag_266:\n        /* \"@openzeppelin/contracts/token/ERC721/ERC721.sol\":2933:2954  string memory baseURI */\n      0x00\n        /* \"@openzeppelin/contracts/token/ERC721/ERC721.sol\":2957:2967  _baseURI() */\n      tag_267\n        /* \"@openzeppelin/contracts/token/ERC721/ERC721.sol\":3395:3404  return \"\" */\n      0x40\n      dup1\n      mload\n      0x20\n      dup2\n      add\n      swap1\n      swap2\n      mstore\n      0x00\n      dup2\n      mstore\n      swap1\n        /* \"@openzeppelin/contracts/token/ERC721/ERC721.sol\":3319:3411  function _baseURI() internal view virtual returns (string memory) {... */\n      jump\n        /* \"@openzeppelin/contracts/token/ERC721/ERC721.sol\":2957:2967  _baseURI() */\n    tag_267:\n        /* \"@openzeppelin/contracts/token/ERC721/ERC721.sol\":2933:2967  string memory baseURI = _baseURI() */\n      swap1\n      pop\n        /* \"@openzeppelin/contracts/token/ERC721/ERC721.sol\":3008:3009  0 */\n      0x00\n        /* \"@openzeppelin/contracts/token/ERC721/ERC721.sol\":2990:2997  baseURI */\n      dup2\n        /* \"@openzeppelin/contracts/token/ERC721/ERC721.sol\":2984:3005  bytes(baseURI).length */\n      mload\n        /* \"@openzeppelin/contracts/token/ERC721/ERC721.sol\":2984:3009  bytes(baseURI).length > 0 */\n      gt\n        /* \"@openzeppelin/contracts/token/ERC721/ERC721.sol\":2984:3070  bytes(baseURI).length > 0 ? string(abi.encodePacked(baseURI, tokenId.toString())) : \"\" */\n      tag_269\n      jumpi\n      mload(0x40)\n      dup1\n      0x20\n      add\n      0x40\n      mstore\n      dup1\n      0x00\n      dup2\n      mstore\n      pop\n      jump(tag_270)\n    tag_269:\n        /* \"@openzeppelin/contracts/token/ERC721/ERC721.sol\":3036:3043  baseURI */\n      dup1\n        /* \"@openzeppelin/contracts/token/ERC721/ERC721.sol\":3045:3063  tokenId.toString() */\n      tag_271\n        /* \"@openzeppelin/contracts/token/ERC721/ERC721.sol\":3045:3052  tokenId */\n      dup5\n        /* \"@openzeppelin/contracts/token/ERC721/ERC721.sol\":3045:3061  tokenId.toString */\n      tag_272\n        /* \"@openzeppelin/contracts/token/ERC721/ERC721.sol\":3045:3063  tokenId.toString() */\n      jump\t// in\n    tag_271:\n        /* \"@openzeppelin/contracts/token/ERC721/ERC721.sol\":3019:3064  abi.encodePacked(baseURI, tokenId.toString()) */\n      add(0x20, mload(0x40))\n      tag_273\n      swap3\n      swap2\n      swap1\n      tag_274\n      jump\t// in\n    tag_273:\n      mload(0x40)\n      0x20\n      dup2\n      dup4\n      sub\n      sub\n      dup2\n      mstore\n      swap1\n      0x40\n      mstore\n        /* \"@openzeppelin/contracts/token/ERC721/ERC721.sol\":2984:3070  bytes(baseURI).length > 0 ? string(abi.encodePacked(baseURI, tokenId.toString())) : \"\" */\n    tag_270:\n        /* \"@openzeppelin/contracts/token/ERC721/ERC721.sol\":2977:3070  return bytes(baseURI).length > 0 ? string(abi.encodePacked(baseURI, tokenId.toString())) : \"\" */\n      swap4\n        /* \"@openzeppelin/contracts/token/ERC721/ERC721.sol\":2801:3077  function tokenURI(uint256 tokenId) public view virtual override returns (string memory) {... */\n      swap3\n      pop\n      pop\n      pop\n      jump\t// out\n        /* \"@openzeppelin/contracts/access/Ownable.sol\":2081:2279  function transferOwnership(address newOwner) public virtual onlyOwner {... */\n    tag_143:\n        /* \"@openzeppelin/contracts/access/Ownable.sol\":1094:1107  _checkOwner() */\n      tag_277\n        /* \"@openzeppelin/contracts/access/Ownable.sol\":1094:1105  _checkOwner */\n      tag_177\n        /* \"@openzeppelin/contracts/access/Ownable.sol\":1094:1107  _checkOwner() */\n      jump\t// in\n    tag_277:\n      sub(shl(0xa0, 0x01), 0x01)\n        /* \"@openzeppelin/contracts/access/Ownable.sol\":2169:2191  newOwner != address(0) */\n      dup2\n      and\n        /* \"@openzeppelin/contracts/access/Ownable.sol\":2161:2234  require(newOwner != address(0), \"Ownable: new owner is the zero address\") */\n      tag_279\n      jumpi\n      mload(0x40)\n      shl(0xe5, 0x461bcd)\n      dup2\n      mstore\n        /* \"#utility.yul\":9981:9983   */\n      0x20\n        /* \"@openzeppelin/contracts/access/Ownable.sol\":2161:2234  require(newOwner != address(0), \"Ownable: new owner is the zero address\") */\n      0x04\n      dup3\n      add\n        /* \"#utility.yul\":9963:9984   */\n      mstore\n        /* \"#utility.yul\":10020:10022   */\n      0x26\n        /* \"#utility.yul\":10000:10018   */\n      0x24\n      dup3\n      add\n        /* \"#utility.yul\":9993:10023   */\n      mstore\n        /* \"#utility.yul\":10059:10093   */\n      0x4f776e61626c653a206e6577206f776e657220697320746865207a65726f2061\n        /* \"#utility.yul\":10039:10057   */\n      0x44\n      dup3\n      add\n        /* \"#utility.yul\":10032:10094   */\n      mstore\n      shl(0xd0, 0x646472657373)\n        /* \"#utility.yul\":10110:10128   */\n      0x64\n      dup3\n      add\n        /* \"#utility.yul\":10103:10139   */\n      mstore\n        /* \"#utility.yul\":10156:10175   */\n      0x84\n      add\n        /* \"@openzeppelin/contracts/access/Ownable.sol\":2161:2234  require(newOwner != address(0), \"Ownable: new owner is the zero address\") */\n      tag_163\n        /* \"#utility.yul\":9779:10181   */\n      jump\n        /* \"@openzeppelin/contracts/access/Ownable.sol\":2161:2234  require(newOwner != address(0), \"Ownable: new owner is the zero address\") */\n    tag_279:\n        /* \"@openzeppelin/contracts/access/Ownable.sol\":2244:2272  _transferOwnership(newOwner) */\n      tag_199\n        /* \"@openzeppelin/contracts/access/Ownable.sol\":2263:2271  newOwner */\n      dup2\n        /* \"@openzeppelin/contracts/access/Ownable.sol\":2244:2262  _transferOwnership */\n      tag_216\n        /* \"@openzeppelin/contracts/access/Ownable.sol\":2244:2272  _transferOwnership(newOwner) */\n      jump\t// in\n        /* \"@openzeppelin/contracts/utils/Counters.sol\":945:1068  function increment(Counter storage counter) internal {... */\n    tag_144:\n        /* \"@openzeppelin/contracts/utils/Counters.sol\":1032:1051  counter._value += 1 */\n      dup1\n      sload\n        /* \"@openzeppelin/contracts/utils/Counters.sol\":1050:1051  1 */\n      0x01\n        /* \"@openzeppelin/contracts/utils/Counters.sol\":1032:1051  counter._value += 1 */\n      add\n      swap1\n      sstore\n        /* \"@openzeppelin/contracts/utils/Counters.sol\":945:1068  function increment(Counter storage counter) internal {... */\n      jump\t// out\n        /* \"@openzeppelin/contracts/token/ERC721/ERC721.sol\":13466:13599  function _requireMinted(uint256 tokenId) internal view virtual {... */\n    tag_159:\n        /* \"@openzeppelin/contracts/token/ERC721/ERC721.sol\":7321:7325  bool */\n      0x00\n        /* \"@openzeppelin/contracts/token/ERC721/ERC721.sol\":6930:6946  _owners[tokenId] */\n      dup2\n      dup2\n      mstore\n        /* \"@openzeppelin/contracts/token/ERC721/ERC721.sol\":6930:6937  _owners */\n      0x02\n        /* \"@openzeppelin/contracts/token/ERC721/ERC721.sol\":6930:6946  _owners[tokenId] */\n      0x20\n      mstore\n      0x40\n      swap1\n      keccak256\n      sload\n      sub(shl(0xa0, 0x01), 0x01)\n      and\n        /* \"@openzeppelin/contracts/token/ERC721/ERC721.sol\":13539:13592  require(_exists(tokenId), \"ERC721: invalid token ID\") */\n      tag_199\n      jumpi\n      mload(0x40)\n      shl(0xe5, 0x461bcd)\n      dup2\n      mstore\n        /* \"#utility.yul\":8055:8057   */\n      0x20\n        /* \"@openzeppelin/contracts/token/ERC721/ERC721.sol\":13539:13592  require(_exists(tokenId), \"ERC721: invalid token ID\") */\n      0x04\n      dup3\n      add\n        /* \"#utility.yul\":8037:8058   */\n      mstore\n        /* \"#utility.yul\":8094:8096   */\n      0x18\n        /* \"#utility.yul\":8074:8092   */\n      0x24\n      dup3\n      add\n        /* \"#utility.yul\":8067:8097   */\n      mstore\n      shl(0x42, 0x115490cdcc8c4e881a5b9d985b1a59081d1bdad95b881251)\n        /* \"#utility.yul\":8113:8131   */\n      0x44\n      dup3\n      add\n        /* \"#utility.yul\":8106:8160   */\n      mstore\n        /* \"#utility.yul\":8177:8195   */\n      0x64\n      add\n        /* \"@openzeppelin/contracts/token/ERC721/ERC721.sol\":13539:13592  require(_exists(tokenId), \"ERC721: invalid token ID\") */\n      tag_163\n        /* \"#utility.yul\":7853:8201   */\n      jump\n        /* \"@openzeppelin/contracts/token/ERC721/ERC721.sol\":12768:12939  function _approve(address to, uint256 tokenId) internal virtual {... */\n    tag_174:\n        /* \"@openzeppelin/contracts/token/ERC721/ERC721.sol\":12842:12866  _tokenApprovals[tokenId] */\n      0x00\n      dup2\n      dup2\n      mstore\n        /* \"@openzeppelin/contracts/token/ERC721/ERC721.sol\":12842:12857  _tokenApprovals */\n      0x04\n        /* \"@openzeppelin/contracts/token/ERC721/ERC721.sol\":12842:12866  _tokenApprovals[tokenId] */\n      0x20\n      mstore\n      0x40\n      swap1\n      keccak256\n        /* \"@openzeppelin/contracts/token/ERC721/ERC721.sol\":12842:12871  _tokenApprovals[tokenId] = to */\n      dup1\n      sload\n      not(sub(shl(0xa0, 0x01), 0x01))\n      and\n      sub(shl(0xa0, 0x01), 0x01)\n      dup5\n      and\n      swap1\n      dup2\n      or\n      swap1\n      swap2\n      sstore\n        /* \"@openzeppelin/contracts/token/ERC721/ERC721.sol\":12842:12866  _tokenApprovals[tokenId] */\n      dup2\n      swap1\n        /* \"@openzeppelin/contracts/token/ERC721/ERC721.sol\":12895:12918  ERC721.ownerOf(tokenId) */\n      tag_292\n        /* \"@openzeppelin/contracts/token/ERC721/ERC721.sol\":12842:12866  _tokenApprovals[tokenId] */\n      dup3\n        /* \"@openzeppelin/contracts/token/ERC721/ERC721.sol\":12895:12909  ERC721.ownerOf */\n      tag_91\n        /* \"@openzeppelin/contracts/token/ERC721/ERC721.sol\":12895:12918  ERC721.ownerOf(tokenId) */\n      jump\t// in\n    tag_292:\n      sub(shl(0xa0, 0x01), 0x01)\n        /* \"@openzeppelin/contracts/token/ERC721/ERC721.sol\":12886:12932  Approval(ERC721.ownerOf(tokenId), to, tokenId) */\n      and\n      0x8c5be1e5ebec7d5bd14f71427d1e84f3dd0314c0f7b2291e5b200ac8c7c3b925\n      mload(0x40)\n      mload(0x40)\n      dup1\n      swap2\n      sub\n      swap1\n      log4\n        /* \"@openzeppelin/contracts/token/ERC721/ERC721.sol\":12768:12939  function _approve(address to, uint256 tokenId) internal virtual {... */\n      pop\n      pop\n      jump\t// out\n        /* \"@openzeppelin/contracts/access/Ownable.sol\":1359:1489  function _checkOwner() internal view virtual {... */\n    tag_177:\n        /* \"@openzeppelin/contracts/access/Ownable.sol\":1273:1279  _owner */\n      and(sub(shl(0xa0, 0x01), 0x01), sload(0x06))\n        /* \"@openzeppelin/contracts/utils/Context.sol\":719:729  msg.sender */\n      caller\n        /* \"@openzeppelin/contracts/access/Ownable.sol\":1422:1445  owner() == _msgSender() */\n      eq\n        /* \"@openzeppelin/contracts/access/Ownable.sol\":1414:1482  require(owner() == _msgSender(), \"Ownable: caller is not the owner\") */\n      tag_215\n      jumpi\n      mload(0x40)\n      shl(0xe5, 0x461bcd)\n      dup2\n      mstore\n        /* \"#utility.yul\":10388:10390   */\n      0x20\n        /* \"@openzeppelin/contracts/access/Ownable.sol\":1414:1482  require(owner() == _msgSender(), \"Ownable: caller is not the owner\") */\n      0x04\n      dup3\n      add\n        /* \"#utility.yul\":10370:10391   */\n      dup2\n      swap1\n      mstore\n        /* \"#utility.yul\":10407:10425   */\n      0x24\n      dup3\n      add\n        /* \"#utility.yul\":10400:10430   */\n      mstore\n        /* \"#utility.yul\":10466:10500   */\n      0x4f776e61626c653a2063616c6c6572206973206e6f7420746865206f776e6572\n        /* \"#utility.yul\":10446:10464   */\n      0x44\n      dup3\n      add\n        /* \"#utility.yul\":10439:10501   */\n      mstore\n        /* \"#utility.yul\":10518:10536   */\n      0x64\n      add\n        /* \"@openzeppelin/contracts/access/Ownable.sol\":1414:1482  require(owner() == _msgSender(), \"Ownable: caller is not the owner\") */\n      tag_163\n        /* \"#utility.yul\":10186:10542   */\n      jump\n        /* \"@openzeppelin/contracts/token/ERC721/ERC721.sol\":7540:7801  function _isApprovedOrOwner(address spender, uint256 tokenId) internal view virtual returns (bool) {... */\n    tag_182:\n        /* \"@openzeppelin/contracts/token/ERC721/ERC721.sol\":7633:7637  bool */\n      0x00\n        /* \"@openzeppelin/contracts/token/ERC721/ERC721.sol\":7649:7662  address owner */\n      dup1\n        /* \"@openzeppelin/contracts/token/ERC721/ERC721.sol\":7665:7688  ERC721.ownerOf(tokenId) */\n      tag_300\n        /* \"@openzeppelin/contracts/token/ERC721/ERC721.sol\":7680:7687  tokenId */\n      dup4\n        /* \"@openzeppelin/contracts/token/ERC721/ERC721.sol\":7665:7679  ERC721.ownerOf */\n      tag_91\n        /* \"@openzeppelin/contracts/token/ERC721/ERC721.sol\":7665:7688  ERC721.ownerOf(tokenId) */\n      jump\t// in\n    tag_300:\n        /* \"@openzeppelin/contracts/token/ERC721/ERC721.sol\":7649:7688  address owner = ERC721.ownerOf(tokenId) */\n      swap1\n      pop\n        /* \"@openzeppelin/contracts/token/ERC721/ERC721.sol\":7717:7722  owner */\n      dup1\n      sub(shl(0xa0, 0x01), 0x01)\n        /* \"@openzeppelin/contracts/token/ERC721/ERC721.sol\":7706:7722  spender == owner */\n      and\n        /* \"@openzeppelin/contracts/token/ERC721/ERC721.sol\":7706:7713  spender */\n      dup5\n      sub(shl(0xa0, 0x01), 0x01)\n        /* \"@openzeppelin/contracts/token/ERC721/ERC721.sol\":7706:7722  spender == owner */\n      and\n      eq\n        /* \"@openzeppelin/contracts/token/ERC721/ERC721.sol\":7706:7758  spender == owner || isApprovedForAll(owner, spender) */\n      dup1\n      tag_302\n      jumpi\n      pop\n      sub(shl(0xa0, 0x01), 0x01)\n        /* \"@openzeppelin/contracts/token/ERC721/ERC721.sol\":4508:4533  _operatorApprovals[owner] */\n      dup1\n      dup3\n      and\n        /* \"@openzeppelin/contracts/token/ERC721/ERC721.sol\":4485:4489  bool */\n      0x00\n        /* \"@openzeppelin/contracts/token/ERC721/ERC721.sol\":4508:4533  _operatorApprovals[owner] */\n      swap1\n      dup2\n      mstore\n        /* \"@openzeppelin/contracts/token/ERC721/ERC721.sol\":4508:4526  _operatorApprovals */\n      0x05\n        /* \"@openzeppelin/contracts/token/ERC721/ERC721.sol\":4508:4533  _operatorApprovals[owner] */\n      0x20\n      swap1\n      dup2\n      mstore\n      0x40\n      dup1\n      dup4\n      keccak256\n        /* \"@openzeppelin/contracts/token/ERC721/ERC721.sol\":4508:4543  _operatorApprovals[owner][operator] */\n      swap4\n      dup9\n      and\n      dup4\n      mstore\n      swap3\n      swap1\n      mstore\n      keccak256\n      sload\n      0xff\n      and\n        /* \"@openzeppelin/contracts/token/ERC721/ERC721.sol\":7726:7758  isApprovedForAll(owner, spender) */\n    tag_302:\n        /* \"@openzeppelin/contracts/token/ERC721/ERC721.sol\":7706:7793  spender == owner || isApprovedForAll(owner, spender) || getApproved(tokenId) == spender */\n      dup1\n      tag_303\n      jumpi\n      pop\n        /* \"@openzeppelin/contracts/token/ERC721/ERC721.sol\":7786:7793  spender */\n      dup4\n      sub(shl(0xa0, 0x01), 0x01)\n        /* \"@openzeppelin/contracts/token/ERC721/ERC721.sol\":7762:7793  getApproved(tokenId) == spender */\n      and\n        /* \"@openzeppelin/contracts/token/ERC721/ERC721.sol\":7762:7782  getApproved(tokenId) */\n      tag_304\n        /* \"@openzeppelin/contracts/token/ERC721/ERC721.sol\":7774:7781  tokenId */\n      dup5\n        /* \"@openzeppelin/contracts/token/ERC721/ERC721.sol\":7762:7773  getApproved */\n      tag_49\n        /* \"@openzeppelin/contracts/token/ERC721/ERC721.sol\":7762:7782  getApproved(tokenId) */\n      jump\t// in\n    tag_304:\n      sub(shl(0xa0, 0x01), 0x01)\n        /* \"@openzeppelin/contracts/token/ERC721/ERC721.sol\":7762:7793  getApproved(tokenId) == spender */\n      and\n      eq\n        /* \"@openzeppelin/contracts/token/ERC721/ERC721.sol\":7706:7793  spender == owner || isApprovedForAll(owner, spender) || getApproved(tokenId) == spender */\n    tag_303:\n        /* \"@openzeppelin/contracts/token/ERC721/ERC721.sol\":7698:7794  return (spender == owner || isApprovedForAll(owner, spender) || getApproved(tokenId) == spender) */\n      swap5\n        /* \"@openzeppelin/contracts/token/ERC721/ERC721.sol\":7540:7801  function _isApprovedOrOwner(address spender, uint256 tokenId) internal view virtual returns (bool) {... */\n      swap4\n      pop\n      pop\n      pop\n      pop\n      jump\t// out\n        /* \"@openzeppelin/contracts/token/ERC721/ERC721.sol\":11423:12656  function _transfer(... */\n    tag_187:\n        /* \"@openzeppelin/contracts/token/ERC721/ERC721.sol\":11577:11581  from */\n      dup3\n      sub(shl(0xa0, 0x01), 0x01)\n        /* \"@openzeppelin/contracts/token/ERC721/ERC721.sol\":11550:11581  ERC721.ownerOf(tokenId) == from */\n      and\n        /* \"@openzeppelin/contracts/token/ERC721/ERC721.sol\":11550:11573  ERC721.ownerOf(tokenId) */\n      tag_306\n        /* \"@openzeppelin/contracts/token/ERC721/ERC721.sol\":11565:11572  tokenId */\n      dup3\n        /* \"@openzeppelin/contracts/token/ERC721/ERC721.sol\":11550:11564  ERC721.ownerOf */\n      tag_91\n        /* \"@openzeppelin/contracts/token/ERC721/ERC721.sol\":11550:11573  ERC721.ownerOf(tokenId) */\n      jump\t// in\n    tag_306:\n      sub(shl(0xa0, 0x01), 0x01)\n        /* \"@openzeppelin/contracts/token/ERC721/ERC721.sol\":11550:11581  ERC721.ownerOf(tokenId) == from */\n      and\n      eq\n        /* \"@openzeppelin/contracts/token/ERC721/ERC721.sol\":11542:11623  require(ERC721.ownerOf(tokenId) == from, \"ERC721: transfer from incorrect owner\") */\n      tag_307\n      jumpi\n      mload(0x40)\n      shl(0xe5, 0x461bcd)\n      dup2\n      mstore\n      0x04\n      add\n      tag_163\n      swap1\n      tag_309\n      jump\t// in\n    tag_307:\n      sub(shl(0xa0, 0x01), 0x01)\n        /* \"@openzeppelin/contracts/token/ERC721/ERC721.sol\":11641:11657  to != address(0) */\n      dup3\n      and\n        /* \"@openzeppelin/contracts/token/ERC721/ERC721.sol\":11633:11698  require(to != address(0), \"ERC721: transfer to the zero address\") */\n      tag_310\n      jumpi\n      mload(0x40)\n      shl(0xe5, 0x461bcd)\n      dup2\n      mstore\n        /* \"#utility.yul\":11155:11157   */\n      0x20\n        /* \"@openzeppelin/contracts/token/ERC721/ERC721.sol\":11633:11698  require(to != address(0), \"ERC721: transfer to the zero address\") */\n      0x04\n      dup3\n      add\n        /* \"#utility.yul\":11137:11158   */\n      mstore\n        /* \"#utility.yul\":11194:11196   */\n      0x24\n        /* \"#utility.yul\":11174:11192   */\n      dup1\n      dup3\n      add\n        /* \"#utility.yul\":11167:11197   */\n      mstore\n        /* \"#utility.yul\":11233:11267   */\n      0x4552433732313a207472616e7366657220746f20746865207a65726f20616464\n        /* \"#utility.yul\":11213:11231   */\n      0x44\n      dup3\n      add\n        /* \"#utility.yul\":11206:11268   */\n      mstore\n      shl(0xe0, 0x72657373)\n        /* \"#utility.yul\":11284:11302   */\n      0x64\n      dup3\n      add\n        /* \"#utility.yul\":11277:11311   */\n      mstore\n        /* \"#utility.yul\":11328:11347   */\n      0x84\n      add\n        /* \"@openzeppelin/contracts/token/ERC721/ERC721.sol\":11633:11698  require(to != address(0), \"ERC721: transfer to the zero address\") */\n      tag_163\n        /* \"#utility.yul\":10953:11353   */\n      jump\n        /* \"@openzeppelin/contracts/token/ERC721/ERC721.sol\":11633:11698  require(to != address(0), \"ERC721: transfer to the zero address\") */\n    tag_310:\n        /* \"@openzeppelin/contracts/token/ERC721/ERC721.sol\":11709:11751  _beforeTokenTransfer(from, to, tokenId, 1) */\n      tag_313\n        /* \"@openzeppelin/contracts/token/ERC721/ERC721.sol\":11730:11734  from */\n      dup4\n        /* \"@openzeppelin/contracts/token/ERC721/ERC721.sol\":11736:11738  to */\n      dup4\n        /* \"@openzeppelin/contracts/token/ERC721/ERC721.sol\":11740:11747  tokenId */\n      dup4\n        /* \"@openzeppelin/contracts/token/ERC721/ERC721.sol\":11749:11750  1 */\n      0x01\n        /* \"@openzeppelin/contracts/token/ERC721/ERC721.sol\":11709:11729  _beforeTokenTransfer */\n      tag_314\n        /* \"@openzeppelin/contracts/token/ERC721/ERC721.sol\":11709:11751  _beforeTokenTransfer(from, to, tokenId, 1) */\n      jump\t// in\n    tag_313:\n        /* \"@openzeppelin/contracts/token/ERC721/ERC721.sol\":11878:11882  from */\n      dup3\n      sub(shl(0xa0, 0x01), 0x01)\n        /* \"@openzeppelin/contracts/token/ERC721/ERC721.sol\":11851:11882  ERC721.ownerOf(tokenId) == from */\n      and\n        /* \"@openzeppelin/contracts/token/ERC721/ERC721.sol\":11851:11874  ERC721.ownerOf(tokenId) */\n      tag_315\n        /* \"@openzeppelin/contracts/token/ERC721/ERC721.sol\":11866:11873  tokenId */\n      dup3\n        /* \"@openzeppelin/contracts/token/ERC721/ERC721.sol\":11851:11865  ERC721.ownerOf */\n      tag_91\n        /* \"@openzeppelin/contracts/token/ERC721/ERC721.sol\":11851:11874  ERC721.ownerOf(tokenId) */\n      jump\t// in\n    tag_315:\n      sub(shl(0xa0, 0x01), 0x01)\n        /* \"@openzeppelin/contracts/token/ERC721/ERC721.sol\":11851:11882  ERC721.ownerOf(tokenId) == from */\n      and\n      eq\n        /* \"@openzeppelin/contracts/token/ERC721/ERC721.sol\":11843:11924  require(ERC721.ownerOf(tokenId) == from, \"ERC721: transfer from incorrect owner\") */\n      tag_316\n      jumpi\n      mload(0x40)\n      shl(0xe5, 0x461bcd)\n      dup2\n      mstore\n      0x04\n      add\n      tag_163\n      swap1\n      tag_309\n      jump\t// in\n    tag_316:\n        /* \"@openzeppelin/contracts/token/ERC721/ERC721.sol\":11993:12017  _tokenApprovals[tokenId] */\n      0x00\n      dup2\n      dup2\n      mstore\n        /* \"@openzeppelin/contracts/token/ERC721/ERC721.sol\":11993:12008  _tokenApprovals */\n      0x04\n        /* \"@openzeppelin/contracts/token/ERC721/ERC721.sol\":11993:12017  _tokenApprovals[tokenId] */\n      0x20\n      swap1\n      dup2\n      mstore\n      0x40\n      dup1\n      dup4\n      keccak256\n        /* \"@openzeppelin/contracts/token/ERC721/ERC721.sol\":11986:12017  delete _tokenApprovals[tokenId] */\n      dup1\n      sload\n      not(sub(shl(0xa0, 0x01), 0x01))\n      swap1\n      dup2\n      and\n      swap1\n      swap2\n      sstore\n      sub(shl(0xa0, 0x01), 0x01)\n        /* \"@openzeppelin/contracts/token/ERC721/ERC721.sol\":12461:12476  _balances[from] */\n      dup8\n      dup2\n      and\n      dup1\n      dup7\n      mstore\n        /* \"@openzeppelin/contracts/token/ERC721/ERC721.sol\":12461:12470  _balances */\n      0x03\n        /* \"@openzeppelin/contracts/token/ERC721/ERC721.sol\":12461:12476  _balances[from] */\n      dup6\n      mstore\n      dup4\n      dup7\n      keccak256\n        /* \"@openzeppelin/contracts/token/ERC721/ERC721.sol\":12461:12481  _balances[from] -= 1 */\n      dup1\n      sload\n      not(0x00)\n      add\n      swap1\n      sstore\n        /* \"@openzeppelin/contracts/token/ERC721/ERC721.sol\":12495:12508  _balances[to] */\n      swap1\n      dup8\n      and\n      dup1\n      dup7\n      mstore\n      dup4\n      dup7\n      keccak256\n        /* \"@openzeppelin/contracts/token/ERC721/ERC721.sol\":12495:12513  _balances[to] += 1 */\n      dup1\n      sload\n        /* \"@openzeppelin/contracts/token/ERC721/ERC721.sol\":11986:12017  delete _tokenApprovals[tokenId] */\n      0x01\n        /* \"@openzeppelin/contracts/token/ERC721/ERC721.sol\":12495:12513  _balances[to] += 1 */\n      add\n      swap1\n      sstore\n        /* \"@openzeppelin/contracts/token/ERC721/ERC721.sol\":12533:12549  _owners[tokenId] */\n      dup7\n      dup7\n      mstore\n        /* \"@openzeppelin/contracts/token/ERC721/ERC721.sol\":12533:12540  _owners */\n      0x02\n        /* \"@openzeppelin/contracts/token/ERC721/ERC721.sol\":12533:12549  _owners[tokenId] */\n      swap1\n      swap5\n      mstore\n      dup3\n      dup6\n      keccak256\n        /* \"@openzeppelin/contracts/token/ERC721/ERC721.sol\":12533:12554  _owners[tokenId] = to */\n      dup1\n      sload\n      swap1\n      swap3\n      and\n      dup5\n      or\n      swap1\n      swap2\n      sstore\n        /* \"@openzeppelin/contracts/token/ERC721/ERC721.sol\":12570:12597  Transfer(from, to, tokenId) */\n      swap1\n      mload\n        /* \"@openzeppelin/contracts/token/ERC721/ERC721.sol\":12009:12016  tokenId */\n      dup5\n      swap4\n        /* \"@openzeppelin/contracts/token/ERC721/ERC721.sol\":12570:12597  Transfer(from, to, tokenId) */\n      0xddf252ad1be2c89b69c2b068fc378daa952ba7f163c4a11628f55a4df523b3ef\n      swap2\n      log4\n        /* \"@openzeppelin/contracts/token/ERC721/ERC721.sol\":3538:3874  {... */\n      pop\n        /* \"@openzeppelin/contracts/token/ERC721/ERC721.sol\":3468:3874  function approve(address to, uint256 tokenId) public virtual override {... */\n      pop\n      pop\n      jump\t// out\n        /* \"contracts/SoulBoundToken.sol\":1678:1773  function _burn(uint256 tokenId) internal override(ERC721) {... */\n    tag_200:\n        /* \"contracts/SoulBoundToken.sol\":1746:1766  super._burn(tokenId) */\n      tag_199\n        /* \"contracts/SoulBoundToken.sol\":1758:1765  tokenId */\n      dup2\n        /* \"contracts/SoulBoundToken.sol\":1746:1757  super._burn */\n      tag_322\n        /* \"contracts/SoulBoundToken.sol\":1746:1766  super._burn(tokenId) */\n      jump\t// in\n        /* \"@openzeppelin/contracts/access/Ownable.sol\":2433:2620  function _transferOwnership(address newOwner) internal virtual {... */\n    tag_216:\n        /* \"@openzeppelin/contracts/access/Ownable.sol\":2525:2531  _owner */\n      0x06\n      dup1\n      sload\n      sub(shl(0xa0, 0x01), 0x01)\n        /* \"@openzeppelin/contracts/access/Ownable.sol\":2541:2558  _owner = newOwner */\n      dup4\n      dup2\n      and\n      not(sub(shl(0xa0, 0x01), 0x01))\n      dup4\n      and\n      dup2\n      or\n      swap1\n      swap4\n      sstore\n        /* \"@openzeppelin/contracts/access/Ownable.sol\":2573:2613  OwnershipTransferred(oldOwner, newOwner) */\n      mload(0x40)\n        /* \"@openzeppelin/contracts/access/Ownable.sol\":2525:2531  _owner */\n      swap2\n      and\n      swap2\n        /* \"@openzeppelin/contracts/access/Ownable.sol\":2541:2558  _owner = newOwner */\n      swap1\n        /* \"@openzeppelin/contracts/access/Ownable.sol\":2525:2531  _owner */\n      dup3\n      swap1\n        /* \"@openzeppelin/contracts/access/Ownable.sol\":2573:2613  OwnershipTransferred(oldOwner, newOwner) */\n      0x8be0079c531659141344cd1fd0a4f28419497f9722a3daafe3b4186f6b6457e0\n      swap1\n        /* \"@openzeppelin/contracts/access/Ownable.sol\":2506:2522  address oldOwner */\n      0x00\n      swap1\n        /* \"@openzeppelin/contracts/access/Ownable.sol\":2573:2613  OwnershipTransferred(oldOwner, newOwner) */\n      log3\n        /* \"@openzeppelin/contracts/access/Ownable.sol\":2496:2620  {... */\n      pop\n        /* \"@openzeppelin/contracts/access/Ownable.sol\":2433:2620  function _transferOwnership(address newOwner) internal virtual {... */\n      pop\n      jump\t// out\n        /* \"@openzeppelin/contracts/token/ERC721/ERC721.sol\":13075:13382  function _setApprovalForAll(... */\n    tag_231:\n        /* \"@openzeppelin/contracts/token/ERC721/ERC721.sol\":13225:13233  operator */\n      dup2\n      sub(shl(0xa0, 0x01), 0x01)\n        /* \"@openzeppelin/contracts/token/ERC721/ERC721.sol\":13216:13233  owner != operator */\n      and\n        /* \"@openzeppelin/contracts/token/ERC721/ERC721.sol\":13216:13221  owner */\n      dup4\n      sub(shl(0xa0, 0x01), 0x01)\n        /* \"@openzeppelin/contracts/token/ERC721/ERC721.sol\":13216:13233  owner != operator */\n      and\n      sub\n        /* \"@openzeppelin/contracts/token/ERC721/ERC721.sol\":13208:13263  require(owner != operator, \"ERC721: approve to caller\") */\n      tag_326\n      jumpi\n      mload(0x40)\n      shl(0xe5, 0x461bcd)\n      dup2\n      mstore\n        /* \"#utility.yul\":11560:11562   */\n      0x20\n        /* \"@openzeppelin/contracts/token/ERC721/ERC721.sol\":13208:13263  require(owner != operator, \"ERC721: approve to caller\") */\n      0x04\n      dup3\n      add\n        /* \"#utility.yul\":11542:11563   */\n      mstore\n        /* \"#utility.yul\":11599:11601   */\n      0x19\n        /* \"#utility.yul\":11579:11597   */\n      0x24\n      dup3\n      add\n        /* \"#utility.yul\":11572:11602   */\n      mstore\n        /* \"#utility.yul\":11638:11665   */\n      0x4552433732313a20617070726f766520746f2063616c6c657200000000000000\n        /* \"#utility.yul\":11618:11636   */\n      0x44\n      dup3\n      add\n        /* \"#utility.yul\":11611:11666   */\n      mstore\n        /* \"#utility.yul\":11683:11701   */\n      0x64\n      add\n        /* \"@openzeppelin/contracts/token/ERC721/ERC721.sol\":13208:13263  require(owner != operator, \"ERC721: approve to caller\") */\n      tag_163\n        /* \"#utility.yul\":11358:11707   */\n      jump\n        /* \"@openzeppelin/contracts/token/ERC721/ERC721.sol\":13208:13263  require(owner != operator, \"ERC721: approve to caller\") */\n    tag_326:\n      sub(shl(0xa0, 0x01), 0x01)\n        /* \"@openzeppelin/contracts/token/ERC721/ERC721.sol\":13273:13298  _operatorApprovals[owner] */\n      dup4\n      dup2\n      and\n      0x00\n      dup2\n      dup2\n      mstore\n        /* \"@openzeppelin/contracts/token/ERC721/ERC721.sol\":13273:13291  _operatorApprovals */\n      0x05\n        /* \"@openzeppelin/contracts/token/ERC721/ERC721.sol\":13273:13298  _operatorApprovals[owner] */\n      0x20\n      swap1\n      dup2\n      mstore\n      0x40\n      dup1\n      dup4\n      keccak256\n        /* \"@openzeppelin/contracts/token/ERC721/ERC721.sol\":13273:13308  _operatorApprovals[owner][operator] */\n      swap5\n      dup8\n      and\n      dup1\n      dup5\n      mstore\n      swap5\n      dup3\n      mstore\n      swap2\n      dup3\n      swap1\n      keccak256\n        /* \"@openzeppelin/contracts/token/ERC721/ERC721.sol\":13273:13319  _operatorApprovals[owner][operator] = approved */\n      dup1\n      sload\n      not(0xff)\n      and\n      dup7\n      iszero\n      iszero\n      swap1\n      dup2\n      or\n      swap1\n      swap2\n      sstore\n        /* \"@openzeppelin/contracts/token/ERC721/ERC721.sol\":13334:13375  ApprovalForAll(owner, operator, approved) */\n      swap2\n      mload\n        /* \"#utility.yul\":540:581   */\n      swap2\n      dup3\n      mstore\n        /* \"@openzeppelin/contracts/token/ERC721/ERC721.sol\":13334:13375  ApprovalForAll(owner, operator, approved) */\n      0x17307eab39ab6107e8899845ad3d59bd9653f200f220920489ca2b5937696c31\n      swap2\n        /* \"#utility.yul\":513:531   */\n      add\n        /* \"@openzeppelin/contracts/token/ERC721/ERC721.sol\":13334:13375  ApprovalForAll(owner, operator, approved) */\n      mload(0x40)\n      dup1\n      swap2\n      sub\n      swap1\n      log3\n        /* \"@openzeppelin/contracts/token/ERC721/ERC721.sol\":13075:13382  function _setApprovalForAll(... */\n      pop\n      pop\n      pop\n      jump\t// out\n        /* \"@openzeppelin/contracts/token/ERC721/ERC721.sol\":6424:6729  function _safeTransfer(... */\n    tag_241:\n        /* \"@openzeppelin/contracts/token/ERC721/ERC721.sol\":6574:6602  _transfer(from, to, tokenId) */\n      tag_331\n        /* \"@openzeppelin/contracts/token/ERC721/ERC721.sol\":6584:6588  from */\n      dup5\n        /* \"@openzeppelin/contracts/token/ERC721/ERC721.sol\":6590:6592  to */\n      dup5\n        /* \"@openzeppelin/contracts/token/ERC721/ERC721.sol\":6594:6601  tokenId */\n      dup5\n        /* \"@openzeppelin/contracts/token/ERC721/ERC721.sol\":6574:6583  _transfer */\n      tag_187\n        /* \"@openzeppelin/contracts/token/ERC721/ERC721.sol\":6574:6602  _transfer(from, to, tokenId) */\n      jump\t// in\n    tag_331:\n        /* \"@openzeppelin/contracts/token/ERC721/ERC721.sol\":6620:6667  _checkOnERC721Received(from, to, tokenId, data) */\n      tag_332\n        /* \"@openzeppelin/contracts/token/ERC721/ERC721.sol\":6643:6647  from */\n      dup5\n        /* \"@openzeppelin/contracts/token/ERC721/ERC721.sol\":6649:6651  to */\n      dup5\n        /* \"@openzeppelin/contracts/token/ERC721/ERC721.sol\":6653:6660  tokenId */\n      dup5\n        /* \"@openzeppelin/contracts/token/ERC721/ERC721.sol\":6662:6666  data */\n      dup5\n        /* \"@openzeppelin/contracts/token/ERC721/ERC721.sol\":6620:6642  _checkOnERC721Received */\n      tag_333\n        /* \"@openzeppelin/contracts/token/ERC721/ERC721.sol\":6620:6667  _checkOnERC721Received(from, to, tokenId, data) */\n      jump\t// in\n    tag_332:\n        /* \"@openzeppelin/contracts/token/ERC721/ERC721.sol\":6612:6722  require(_checkOnERC721Received(from, to, tokenId, data), \"ERC721: transfer to non ERC721Receiver implementer\") */\n      tag_240\n      jumpi\n      mload(0x40)\n      shl(0xe5, 0x461bcd)\n      dup2\n      mstore\n      0x04\n      add\n      tag_163\n      swap1\n      tag_336\n      jump\t// in\n        /* \"@openzeppelin/contracts/token/ERC721/ERC721.sol\":8131:8239  function _safeMint(address to, uint256 tokenId) internal virtual {... */\n    tag_264:\n        /* \"@openzeppelin/contracts/token/ERC721/ERC721.sol\":8206:8232  _safeMint(to, tokenId, \"\") */\n      tag_229\n        /* \"@openzeppelin/contracts/token/ERC721/ERC721.sol\":8216:8218  to */\n      dup3\n        /* \"@openzeppelin/contracts/token/ERC721/ERC721.sol\":8220:8227  tokenId */\n      dup3\n        /* \"@openzeppelin/contracts/token/ERC721/ERC721.sol\":8206:8232  _safeMint(to, tokenId, \"\") */\n      mload(0x40)\n      dup1\n      0x20\n      add\n      0x40\n      mstore\n      dup1\n      0x00\n      dup2\n      mstore\n      pop\n        /* \"@openzeppelin/contracts/token/ERC721/ERC721.sol\":8206:8215  _safeMint */\n      tag_340\n        /* \"@openzeppelin/contracts/token/ERC721/ERC721.sol\":8206:8232  _safeMint(to, tokenId, \"\") */\n      jump\t// in\n        /* \"@openzeppelin/contracts/utils/Strings.sol\":415:1111  function toString(uint256 value) internal pure returns (string memory) {... */\n    tag_272:\n        /* \"@openzeppelin/contracts/utils/Strings.sol\":471:484  string memory */\n      0x60\n        /* \"@openzeppelin/contracts/utils/Strings.sol\":520:534  uint256 length */\n      0x00\n        /* \"@openzeppelin/contracts/utils/Strings.sol\":537:554  Math.log10(value) */\n      tag_343\n        /* \"@openzeppelin/contracts/utils/Strings.sol\":548:553  value */\n      dup4\n        /* \"@openzeppelin/contracts/utils/Strings.sol\":537:547  Math.log10 */\n      tag_344\n        /* \"@openzeppelin/contracts/utils/Strings.sol\":537:554  Math.log10(value) */\n      jump\t// in\n    tag_343:\n        /* \"@openzeppelin/contracts/utils/Strings.sol\":557:558  1 */\n      0x01\n        /* \"@openzeppelin/contracts/utils/Strings.sol\":537:558  Math.log10(value) + 1 */\n      add\n        /* \"@openzeppelin/contracts/utils/Strings.sol\":520:558  uint256 length = Math.log10(value) + 1 */\n      swap1\n      pop\n        /* \"@openzeppelin/contracts/utils/Strings.sol\":572:592  string memory buffer */\n      0x00\n        /* \"@openzeppelin/contracts/utils/Strings.sol\":606:612  length */\n      dup2\n        /* \"@openzeppelin/contracts/utils/Strings.sol\":595:613  new string(length) */\n      0xffffffffffffffff\n      dup2\n      gt\n      iszero\n      tag_346\n      jumpi\n      tag_346\n      tag_347\n      jump\t// in\n    tag_346:\n      mload(0x40)\n      swap1\n      dup1\n      dup3\n      mstore\n      dup1\n      0x1f\n      add\n      not(0x1f)\n      and\n      0x20\n      add\n      dup3\n      add\n      0x40\n      mstore\n      dup1\n      iszero\n      tag_348\n      jumpi\n      0x20\n      dup3\n      add\n      dup2\n      dup1\n      calldatasize\n      dup4\n      calldatacopy\n      add\n      swap1\n      pop\n    tag_348:\n      pop\n        /* \"@openzeppelin/contracts/utils/Strings.sol\":572:613  string memory buffer = new string(length) */\n      swap1\n      pop\n        /* \"@openzeppelin/contracts/utils/Strings.sol\":733:761  add(buffer, add(32, length)) */\n      dup2\n      dup2\n      add\n        /* \"@openzeppelin/contracts/utils/Strings.sol\":749:751  32 */\n      0x20\n        /* \"@openzeppelin/contracts/utils/Strings.sol\":733:761  add(buffer, add(32, length)) */\n      add\n        /* \"@openzeppelin/contracts/utils/Strings.sol\":788:1068  while (true) {... */\n    tag_349:\n      not(0x00)\n        /* \"@openzeppelin/contracts/utils/Strings.sol\":819:824  ptr-- */\n      add\n      shl(0x81, 0x181899199a1a9b1b9c1cb0b131b232b3)\n        /* \"@openzeppelin/contracts/utils/Strings.sol\":953:955  10 */\n      0x0a\n        /* \"@openzeppelin/contracts/utils/Strings.sol\":942:956  mod(value, 10) */\n      dup7\n      mod\n        /* \"@openzeppelin/contracts/utils/Strings.sol\":937:967  byte(mod(value, 10), _SYMBOLS) */\n      byte\n        /* \"@openzeppelin/contracts/utils/Strings.sol\":819:824  ptr-- */\n      dup2\n        /* \"@openzeppelin/contracts/utils/Strings.sol\":924:968  mstore8(ptr, byte(mod(value, 10), _SYMBOLS)) */\n      mstore8\n        /* \"@openzeppelin/contracts/utils/Strings.sol\":1012:1014  10 */\n      0x0a\n        /* \"@openzeppelin/contracts/utils/Strings.sol\":1003:1014  value /= 10 */\n      dup6\n      div\n      swap5\n      pop\n        /* \"@openzeppelin/contracts/utils/Strings.sol\":1032:1053  if (value == 0) break */\n      dup5\n        /* \"@openzeppelin/contracts/utils/Strings.sol\":788:1068  while (true) {... */\n      tag_349\n        /* \"@openzeppelin/contracts/utils/Strings.sol\":1032:1053  if (value == 0) break */\n      jumpi\n      pop\n        /* \"@openzeppelin/contracts/utils/Strings.sol\":1088:1094  buffer */\n      swap4\n        /* \"@openzeppelin/contracts/utils/Strings.sol\":415:1111  function toString(uint256 value) internal pure returns (string memory) {... */\n      swap3\n      pop\n      pop\n      pop\n      jump\t// out\n        /* \"contracts/SoulBoundToken.sol\":1430:1672  function _beforeTokenTransfer(... */\n    tag_314:\n      sub(shl(0xa0, 0x01), 0x01)\n        /* \"contracts/SoulBoundToken.sol\":1596:1614  from == address(0) */\n      dup5\n      and\n      iszero\n      dup1\n        /* \"contracts/SoulBoundToken.sol\":1596:1634  from == address(0) || to == address(0) */\n      tag_358\n      jumpi\n      pop\n      sub(shl(0xa0, 0x01), 0x01)\n        /* \"contracts/SoulBoundToken.sol\":1618:1634  to == address(0) */\n      dup4\n      and\n      iszero\n        /* \"contracts/SoulBoundToken.sol\":1596:1634  from == address(0) || to == address(0) */\n    tag_358:\n        /* \"contracts/SoulBoundToken.sol\":1575:1665  require(... */\n      tag_240\n      jumpi\n      mload(0x40)\n      shl(0xe5, 0x461bcd)\n      dup2\n      mstore\n        /* \"#utility.yul\":12465:12467   */\n      0x20\n        /* \"contracts/SoulBoundToken.sol\":1575:1665  require(... */\n      0x04\n      dup3\n      add\n        /* \"#utility.yul\":12447:12468   */\n      mstore\n        /* \"#utility.yul\":12504:12505   */\n      0x05\n        /* \"#utility.yul\":12484:12502   */\n      0x24\n      dup3\n      add\n        /* \"#utility.yul\":12477:12506   */\n      mstore\n      shl(0xda, 0x14d09510d5)\n        /* \"#utility.yul\":12522:12540   */\n      0x44\n      dup3\n      add\n        /* \"#utility.yul\":12515:12550   */\n      mstore\n        /* \"#utility.yul\":12567:12585   */\n      0x64\n      add\n        /* \"contracts/SoulBoundToken.sol\":1575:1665  require(... */\n      tag_163\n        /* \"#utility.yul\":12263:12591   */\n      jump\n        /* \"@openzeppelin/contracts/token/ERC721/ERC721.sol\":10337:11099  function _burn(uint256 tokenId) internal virtual {... */\n    tag_322:\n        /* \"@openzeppelin/contracts/token/ERC721/ERC721.sol\":10396:10409  address owner */\n      0x00\n        /* \"@openzeppelin/contracts/token/ERC721/ERC721.sol\":10412:10435  ERC721.ownerOf(tokenId) */\n      tag_364\n        /* \"@openzeppelin/contracts/token/ERC721/ERC721.sol\":10427:10434  tokenId */\n      dup3\n        /* \"@openzeppelin/contracts/token/ERC721/ERC721.sol\":10412:10426  ERC721.ownerOf */\n      tag_91\n        /* \"@openzeppelin/contracts/token/ERC721/ERC721.sol\":10412:10435  ERC721.ownerOf(tokenId) */\n      jump\t// in\n    tag_364:\n        /* \"@openzeppelin/contracts/token/ERC721/ERC721.sol\":10396:10435  address owner = ERC721.ownerOf(tokenId) */\n      swap1\n      pop\n        /* \"@openzeppelin/contracts/token/ERC721/ERC721.sol\":10446:10497  _beforeTokenTransfer(owner, address(0), tokenId, 1) */\n      tag_365\n        /* \"@openzeppelin/contracts/token/ERC721/ERC721.sol\":10467:10472  owner */\n      dup2\n        /* \"@openzeppelin/contracts/token/ERC721/ERC721.sol\":10482:10483  0 */\n      0x00\n        /* \"@openzeppelin/contracts/token/ERC721/ERC721.sol\":10486:10493  tokenId */\n      dup5\n        /* \"@openzeppelin/contracts/token/ERC721/ERC721.sol\":10495:10496  1 */\n      0x01\n        /* \"@openzeppelin/contracts/token/ERC721/ERC721.sol\":10446:10466  _beforeTokenTransfer */\n      tag_314\n        /* \"@openzeppelin/contracts/token/ERC721/ERC721.sol\":10446:10497  _beforeTokenTransfer(owner, address(0), tokenId, 1) */\n      jump\t// in\n    tag_365:\n        /* \"@openzeppelin/contracts/token/ERC721/ERC721.sol\":10607:10630  ERC721.ownerOf(tokenId) */\n      tag_366\n        /* \"@openzeppelin/contracts/token/ERC721/ERC721.sol\":10622:10629  tokenId */\n      dup3\n        /* \"@openzeppelin/contracts/token/ERC721/ERC721.sol\":10607:10621  ERC721.ownerOf */\n      tag_91\n        /* \"@openzeppelin/contracts/token/ERC721/ERC721.sol\":10607:10630  ERC721.ownerOf(tokenId) */\n      jump\t// in\n    tag_366:\n        /* \"@openzeppelin/contracts/token/ERC721/ERC721.sol\":10675:10699  _tokenApprovals[tokenId] */\n      0x00\n      dup4\n      dup2\n      mstore\n        /* \"@openzeppelin/contracts/token/ERC721/ERC721.sol\":10675:10690  _tokenApprovals */\n      0x04\n        /* \"@openzeppelin/contracts/token/ERC721/ERC721.sol\":10675:10699  _tokenApprovals[tokenId] */\n      0x20\n      swap1\n      dup2\n      mstore\n      0x40\n      dup1\n      dup4\n      keccak256\n        /* \"@openzeppelin/contracts/token/ERC721/ERC721.sol\":10668:10699  delete _tokenApprovals[tokenId] */\n      dup1\n      sload\n      not(sub(shl(0xa0, 0x01), 0x01))\n      swap1\n      dup2\n      and\n      swap1\n      swap2\n      sstore\n      sub(shl(0xa0, 0x01), 0x01)\n        /* \"@openzeppelin/contracts/token/ERC721/ERC721.sol\":10915:10931  _balances[owner] */\n      dup6\n      and\n      dup1\n      dup6\n      mstore\n        /* \"@openzeppelin/contracts/token/ERC721/ERC721.sol\":10915:10924  _balances */\n      0x03\n        /* \"@openzeppelin/contracts/token/ERC721/ERC721.sol\":10915:10931  _balances[owner] */\n      dup5\n      mstore\n      dup3\n      dup6\n      keccak256\n        /* \"@openzeppelin/contracts/token/ERC721/ERC721.sol\":10915:10936  _balances[owner] -= 1 */\n      dup1\n      sload\n      not(0x00)\n      add\n      swap1\n      sstore\n        /* \"@openzeppelin/contracts/token/ERC721/ERC721.sol\":10963:10979  _owners[tokenId] */\n      dup8\n      dup6\n      mstore\n        /* \"@openzeppelin/contracts/token/ERC721/ERC721.sol\":10963:10970  _owners */\n      0x02\n        /* \"@openzeppelin/contracts/token/ERC721/ERC721.sol\":10963:10979  _owners[tokenId] */\n      swap1\n      swap4\n      mstore\n      dup2\n      dup5\n      keccak256\n        /* \"@openzeppelin/contracts/token/ERC721/ERC721.sol\":10956:10979  delete _owners[tokenId] */\n      dup1\n      sload\n      swap1\n      swap2\n      and\n      swap1\n      sstore\n        /* \"@openzeppelin/contracts/token/ERC721/ERC721.sol\":10995:11031  Transfer(owner, address(0), tokenId) */\n      mload\n        /* \"@openzeppelin/contracts/token/ERC721/ERC721.sol\":10599:10630  owner = ERC721.ownerOf(tokenId) */\n      swap3\n      swap4\n      pop\n        /* \"@openzeppelin/contracts/token/ERC721/ERC721.sol\":10691:10698  tokenId */\n      dup5\n      swap3\n        /* \"@openzeppelin/contracts/token/ERC721/ERC721.sol\":10995:11031  Transfer(owner, address(0), tokenId) */\n      0xddf252ad1be2c89b69c2b068fc378daa952ba7f163c4a11628f55a4df523b3ef\n      swap1\n        /* \"@openzeppelin/contracts/token/ERC721/ERC721.sol\":10675:10699  _tokenApprovals[tokenId] */\n      dup4\n      swap1\n        /* \"@openzeppelin/contracts/token/ERC721/ERC721.sol\":10995:11031  Transfer(owner, address(0), tokenId) */\n      log4\n        /* \"@openzeppelin/contracts/token/ERC721/ERC721.sol\":4169:4322  function setApprovalForAll(address operator, bool approved) public virtual override {... */\n      pop\n      pop\n      jump\t// out\n        /* \"@openzeppelin/contracts/token/ERC721/ERC721.sol\":14151:14982  function _checkOnERC721Received(... */\n    tag_333:\n        /* \"@openzeppelin/contracts/token/ERC721/ERC721.sol\":14300:14304  bool */\n      0x00\n      sub(shl(0xa0, 0x01), 0x01)\n        /* \"@openzeppelin/contracts/token/ERC721/ERC721.sol\":14320:14333  to.isContract */\n      dup5\n      and\n        /* \"@openzeppelin/contracts/utils/Address.sol\":1465:1484  account.code.length */\n      extcodesize\n        /* \"@openzeppelin/contracts/utils/Address.sol\":1465:1488  account.code.length > 0 */\n      iszero\n        /* \"@openzeppelin/contracts/token/ERC721/ERC721.sol\":14316:14976  if (to.isContract()) {... */\n      tag_371\n      jumpi\n        /* \"@openzeppelin/contracts/token/ERC721/ERC721.sol\":14355:14426  IERC721Receiver(to).onERC721Received(_msgSender(), from, tokenId, data) */\n      mload(0x40)\n      shl(0xe1, 0x0a85bd01)\n      dup2\n      mstore\n      sub(shl(0xa0, 0x01), 0x01)\n        /* \"@openzeppelin/contracts/token/ERC721/ERC721.sol\":14355:14391  IERC721Receiver(to).onERC721Received */\n      dup6\n      and\n      swap1\n      0x150b7a02\n      swap1\n        /* \"@openzeppelin/contracts/token/ERC721/ERC721.sol\":14355:14426  IERC721Receiver(to).onERC721Received(_msgSender(), from, tokenId, data) */\n      tag_373\n      swap1\n        /* \"@openzeppelin/contracts/utils/Context.sol\":719:729  msg.sender */\n      caller\n      swap1\n        /* \"@openzeppelin/contracts/token/ERC721/ERC721.sol\":14406:14410  from */\n      dup10\n      swap1\n        /* \"@openzeppelin/contracts/token/ERC721/ERC721.sol\":14412:14419  tokenId */\n      dup9\n      swap1\n        /* \"@openzeppelin/contracts/token/ERC721/ERC721.sol\":14421:14425  data */\n      dup9\n      swap1\n        /* \"@openzeppelin/contracts/token/ERC721/ERC721.sol\":14355:14426  IERC721Receiver(to).onERC721Received(_msgSender(), from, tokenId, data) */\n      0x04\n      add\n      tag_374\n      jump\t// in\n    tag_373:\n      0x20\n      mload(0x40)\n      dup1\n      dup4\n      sub\n      dup2\n      0x00\n      dup8\n      gas\n      call\n      swap3\n      pop\n      pop\n      pop\n      dup1\n      iszero\n      tag_375\n      jumpi\n      pop\n      0x40\n      dup1\n      mload\n      0x1f\n      returndatasize\n      swap1\n      dup2\n      add\n      not(0x1f)\n      and\n      dup3\n      add\n      swap1\n      swap3\n      mstore\n      tag_376\n      swap2\n      dup2\n      add\n      swap1\n      tag_377\n      jump\t// in\n    tag_376:\n      0x01\n    tag_375:\n        /* \"@openzeppelin/contracts/token/ERC721/ERC721.sol\":14351:14924  try IERC721Receiver(to).onERC721Received(_msgSender(), from, tokenId, data) returns (bytes4 retval) {... */\n      tag_378\n      jumpi\n      returndatasize\n      dup1\n      dup1\n      iszero\n      tag_383\n      jumpi\n      mload(0x40)\n      swap2\n      pop\n      and(add(returndatasize, 0x3f), not(0x1f))\n      dup3\n      add\n      0x40\n      mstore\n      returndatasize\n      dup3\n      mstore\n      returndatasize\n      0x00\n      0x20\n      dup5\n      add\n      returndatacopy\n      jump(tag_382)\n    tag_383:\n      0x60\n      swap2\n      pop\n    tag_382:\n      pop\n        /* \"@openzeppelin/contracts/token/ERC721/ERC721.sol\":14593:14599  reason */\n      dup1\n        /* \"@openzeppelin/contracts/token/ERC721/ERC721.sol\":14593:14606  reason.length */\n      mload\n        /* \"@openzeppelin/contracts/token/ERC721/ERC721.sol\":14610:14611  0 */\n      0x00\n        /* \"@openzeppelin/contracts/token/ERC721/ERC721.sol\":14593:14611  reason.length == 0 */\n      sub\n        /* \"@openzeppelin/contracts/token/ERC721/ERC721.sol\":14589:14910  if (reason.length == 0) {... */\n      tag_384\n      jumpi\n        /* \"@openzeppelin/contracts/token/ERC721/ERC721.sol\":14635:14695  revert(\"ERC721: transfer to non ERC721Receiver implementer\") */\n      mload(0x40)\n      shl(0xe5, 0x461bcd)\n      dup2\n      mstore\n      0x04\n      add\n      tag_163\n      swap1\n      tag_336\n      jump\t// in\n        /* \"@openzeppelin/contracts/token/ERC721/ERC721.sol\":14589:14910  if (reason.length == 0) {... */\n    tag_384:\n        /* \"@openzeppelin/contracts/token/ERC721/ERC721.sol\":14862:14868  reason */\n      dup1\n        /* \"@openzeppelin/contracts/token/ERC721/ERC721.sol\":14856:14869  mload(reason) */\n      mload\n        /* \"@openzeppelin/contracts/token/ERC721/ERC721.sol\":14847:14853  reason */\n      dup2\n        /* \"@openzeppelin/contracts/token/ERC721/ERC721.sol\":14843:14845  32 */\n      0x20\n        /* \"@openzeppelin/contracts/token/ERC721/ERC721.sol\":14839:14854  add(32, reason) */\n      add\n        /* \"@openzeppelin/contracts/token/ERC721/ERC721.sol\":14832:14870  revert(add(32, reason), mload(reason)) */\n      revert\n        /* \"@openzeppelin/contracts/token/ERC721/ERC721.sol\":14351:14924  try IERC721Receiver(to).onERC721Received(_msgSender(), from, tokenId, data) returns (bytes4 retval) {... */\n    tag_378:\n      not(sub(shl(0xe0, 0x01), 0x01))\n        /* \"@openzeppelin/contracts/token/ERC721/ERC721.sol\":14476:14527  retval == IERC721Receiver.onERC721Received.selector */\n      and\n      shl(0xe1, 0x0a85bd01)\n      eq\n      swap1\n      pop\n        /* \"@openzeppelin/contracts/token/ERC721/ERC721.sol\":14469:14527  return retval == IERC721Receiver.onERC721Received.selector */\n      jump(tag_303)\n        /* \"@openzeppelin/contracts/token/ERC721/ERC721.sol\":14316:14976  if (to.isContract()) {... */\n    tag_371:\n      pop\n        /* \"@openzeppelin/contracts/token/ERC721/ERC721.sol\":14961:14965  true */\n      0x01\n        /* \"@openzeppelin/contracts/token/ERC721/ERC721.sol\":14151:14982  function _checkOnERC721Received(... */\n      swap5\n      swap4\n      pop\n      pop\n      pop\n      pop\n      jump\t// out\n        /* \"@openzeppelin/contracts/token/ERC721/ERC721.sol\":8460:8769  function _safeMint(... */\n    tag_340:\n        /* \"@openzeppelin/contracts/token/ERC721/ERC721.sol\":8584:8602  _mint(to, tokenId) */\n      tag_390\n        /* \"@openzeppelin/contracts/token/ERC721/ERC721.sol\":8590:8592  to */\n      dup4\n        /* \"@openzeppelin/contracts/token/ERC721/ERC721.sol\":8594:8601  tokenId */\n      dup4\n        /* \"@openzeppelin/contracts/token/ERC721/ERC721.sol\":8584:8589  _mint */\n      tag_391\n        /* \"@openzeppelin/contracts/token/ERC721/ERC721.sol\":8584:8602  _mint(to, tokenId) */\n      jump\t// in\n    tag_390:\n        /* \"@openzeppelin/contracts/token/ERC721/ERC721.sol\":8633:8686  _checkOnERC721Received(address(0), to, tokenId, data) */\n      tag_392\n        /* \"@openzeppelin/contracts/token/ERC721/ERC721.sol\":8664:8665  0 */\n      0x00\n        /* \"@openzeppelin/contracts/token/ERC721/ERC721.sol\":8668:8670  to */\n      dup5\n        /* \"@openzeppelin/contracts/token/ERC721/ERC721.sol\":8672:8679  tokenId */\n      dup5\n        /* \"@openzeppelin/contracts/token/ERC721/ERC721.sol\":8681:8685  data */\n      dup5\n        /* \"@openzeppelin/contracts/token/ERC721/ERC721.sol\":8633:8655  _checkOnERC721Received */\n      tag_333\n        /* \"@openzeppelin/contracts/token/ERC721/ERC721.sol\":8633:8686  _checkOnERC721Received(address(0), to, tokenId, data) */\n      jump\t// in\n    tag_392:\n        /* \"@openzeppelin/contracts/token/ERC721/ERC721.sol\":8612:8762  require(... */\n      tag_173\n      jumpi\n      mload(0x40)\n      shl(0xe5, 0x461bcd)\n      dup2\n      mstore\n      0x04\n      add\n      tag_163\n      swap1\n      tag_336\n      jump\t// in\n        /* \"@openzeppelin/contracts/utils/math/Math.sol\":9889:10779  function log10(uint256 value) internal pure returns (uint256) {... */\n    tag_344:\n        /* \"@openzeppelin/contracts/utils/math/Math.sol\":9942:9949  uint256 */\n      0x00\n      dup1\n      shl(0x40, 0x184f03e93ff9f4daa797ed6e38ed64bf6a1f01)\n        /* \"@openzeppelin/contracts/utils/math/Math.sol\":10017:10032  value >= 10**64 */\n      dup4\n      lt\n        /* \"@openzeppelin/contracts/utils/math/Math.sol\":10013:10112  if (value >= 10**64) {... */\n      tag_396\n      jumpi\n      shl(0x40, 0x184f03e93ff9f4daa797ed6e38ed64bf6a1f01)\n        /* \"@openzeppelin/contracts/utils/math/Math.sol\":10052:10067  value /= 10**64 */\n      dup4\n      div\n      swap3\n      pop\n        /* \"@openzeppelin/contracts/utils/math/Math.sol\":10095:10097  64 */\n      0x40\n        /* \"@openzeppelin/contracts/utils/math/Math.sol\":10085:10097  result += 64 */\n      add\n        /* \"@openzeppelin/contracts/utils/math/Math.sol\":10013:10112  if (value >= 10**64) {... */\n    tag_396:\n        /* \"@openzeppelin/contracts/utils/math/Math.sol\":10138:10144  10**32 */\n      0x04ee2d6d415b85acef8100000000\n        /* \"@openzeppelin/contracts/utils/math/Math.sol\":10129:10134  value */\n      dup4\n        /* \"@openzeppelin/contracts/utils/math/Math.sol\":10129:10144  value >= 10**32 */\n      lt\n        /* \"@openzeppelin/contracts/utils/math/Math.sol\":10125:10224  if (value >= 10**32) {... */\n      tag_399\n      jumpi\n        /* \"@openzeppelin/contracts/utils/math/Math.sol\":10173:10179  10**32 */\n      0x04ee2d6d415b85acef8100000000\n        /* \"@openzeppelin/contracts/utils/math/Math.sol\":10164:10179  value /= 10**32 */\n      dup4\n      div\n      swap3\n      pop\n        /* \"@openzeppelin/contracts/utils/math/Math.sol\":10207:10209  32 */\n      0x20\n        /* \"@openzeppelin/contracts/utils/math/Math.sol\":10197:10209  result += 32 */\n      add\n        /* \"@openzeppelin/contracts/utils/math/Math.sol\":10125:10224  if (value >= 10**32) {... */\n    tag_399:\n        /* \"@openzeppelin/contracts/utils/math/Math.sol\":10250:10256  10**16 */\n      0x2386f26fc10000\n        /* \"@openzeppelin/contracts/utils/math/Math.sol\":10241:10246  value */\n      dup4\n        /* \"@openzeppelin/contracts/utils/math/Math.sol\":10241:10256  value >= 10**16 */\n      lt\n        /* \"@openzeppelin/contracts/utils/math/Math.sol\":10237:10336  if (value >= 10**16) {... */\n      tag_402\n      jumpi\n        /* \"@openzeppelin/contracts/utils/math/Math.sol\":10285:10291  10**16 */\n      0x2386f26fc10000\n        /* \"@openzeppelin/contracts/utils/math/Math.sol\":10276:10291  value /= 10**16 */\n      dup4\n      div\n      swap3\n      pop\n        /* \"@openzeppelin/contracts/utils/math/Math.sol\":10319:10321  16 */\n      0x10\n        /* \"@openzeppelin/contracts/utils/math/Math.sol\":10309:10321  result += 16 */\n      add\n        /* \"@openzeppelin/contracts/utils/math/Math.sol\":10237:10336  if (value >= 10**16) {... */\n    tag_402:\n        /* \"@openzeppelin/contracts/utils/math/Math.sol\":10362:10367  10**8 */\n      0x05f5e100\n        /* \"@openzeppelin/contracts/utils/math/Math.sol\":10353:10358  value */\n      dup4\n        /* \"@openzeppelin/contracts/utils/math/Math.sol\":10353:10367  value >= 10**8 */\n      lt\n        /* \"@openzeppelin/contracts/utils/math/Math.sol\":10349:10445  if (value >= 10**8) {... */\n      tag_405\n      jumpi\n        /* \"@openzeppelin/contracts/utils/math/Math.sol\":10396:10401  10**8 */\n      0x05f5e100\n        /* \"@openzeppelin/contracts/utils/math/Math.sol\":10387:10401  value /= 10**8 */\n      dup4\n      div\n      swap3\n      pop\n        /* \"@openzeppelin/contracts/utils/math/Math.sol\":10429:10430  8 */\n      0x08\n        /* \"@openzeppelin/contracts/utils/math/Math.sol\":10419:10430  result += 8 */\n      add\n        /* \"@openzeppelin/contracts/utils/math/Math.sol\":10349:10445  if (value >= 10**8) {... */\n    tag_405:\n        /* \"@openzeppelin/contracts/utils/math/Math.sol\":10471:10476  10**4 */\n      0x2710\n        /* \"@openzeppelin/contracts/utils/math/Math.sol\":10462:10467  value */\n      dup4\n        /* \"@openzeppelin/contracts/utils/math/Math.sol\":10462:10476  value >= 10**4 */\n      lt\n        /* \"@openzeppelin/contracts/utils/math/Math.sol\":10458:10554  if (value >= 10**4) {... */\n      tag_408\n      jumpi\n        /* \"@openzeppelin/contracts/utils/math/Math.sol\":10505:10510  10**4 */\n      0x2710\n        /* \"@openzeppelin/contracts/utils/math/Math.sol\":10496:10510  value /= 10**4 */\n      dup4\n      div\n      swap3\n      pop\n        /* \"@openzeppelin/contracts/utils/math/Math.sol\":10538:10539  4 */\n      0x04\n        /* \"@openzeppelin/contracts/utils/math/Math.sol\":10528:10539  result += 4 */\n      add\n        /* \"@openzeppelin/contracts/utils/math/Math.sol\":10458:10554  if (value >= 10**4) {... */\n    tag_408:\n        /* \"@openzeppelin/contracts/utils/math/Math.sol\":10580:10585  10**2 */\n      0x64\n        /* \"@openzeppelin/contracts/utils/math/Math.sol\":10571:10576  value */\n      dup4\n        /* \"@openzeppelin/contracts/utils/math/Math.sol\":10571:10585  value >= 10**2 */\n      lt\n        /* \"@openzeppelin/contracts/utils/math/Math.sol\":10567:10663  if (value >= 10**2) {... */\n      tag_411\n      jumpi\n        /* \"@openzeppelin/contracts/utils/math/Math.sol\":10614:10619  10**2 */\n      0x64\n        /* \"@openzeppelin/contracts/utils/math/Math.sol\":10605:10619  value /= 10**2 */\n      dup4\n      div\n      swap3\n      pop\n        /* \"@openzeppelin/contracts/utils/math/Math.sol\":10647:10648  2 */\n      0x02\n        /* \"@openzeppelin/contracts/utils/math/Math.sol\":10637:10648  result += 2 */\n      add\n        /* \"@openzeppelin/contracts/utils/math/Math.sol\":10567:10663  if (value >= 10**2) {... */\n    tag_411:\n        /* \"@openzeppelin/contracts/utils/math/Math.sol\":10689:10694  10**1 */\n      0x0a\n        /* \"@openzeppelin/contracts/utils/math/Math.sol\":10680:10685  value */\n      dup4\n        /* \"@openzeppelin/contracts/utils/math/Math.sol\":10680:10694  value >= 10**1 */\n      lt\n        /* \"@openzeppelin/contracts/utils/math/Math.sol\":10676:10740  if (value >= 10**1) {... */\n      tag_148\n      jumpi\n        /* \"@openzeppelin/contracts/utils/math/Math.sol\":10724:10725  1 */\n      0x01\n        /* \"@openzeppelin/contracts/utils/math/Math.sol\":10714:10725  result += 1 */\n      add\n        /* \"@openzeppelin/contracts/utils/math/Math.sol\":10766:10772  result */\n      swap3\n        /* \"@openzeppelin/contracts/utils/math/Math.sol\":9889:10779  function log10(uint256 value) internal pure returns (uint256) {... */\n      swap2\n      pop\n      pop\n      jump\t// out\n        /* \"@openzeppelin/contracts/token/ERC721/ERC721.sol\":9091:10011  function _mint(address to, uint256 tokenId) internal virtual {... */\n    tag_391:\n      sub(shl(0xa0, 0x01), 0x01)\n        /* \"@openzeppelin/contracts/token/ERC721/ERC721.sol\":9170:9186  to != address(0) */\n      dup3\n      and\n        /* \"@openzeppelin/contracts/token/ERC721/ERC721.sol\":9162:9223  require(to != address(0), \"ERC721: mint to the zero address\") */\n      tag_417\n      jumpi\n      mload(0x40)\n      shl(0xe5, 0x461bcd)\n      dup2\n      mstore\n        /* \"#utility.yul\":13546:13548   */\n      0x20\n        /* \"@openzeppelin/contracts/token/ERC721/ERC721.sol\":9162:9223  require(to != address(0), \"ERC721: mint to the zero address\") */\n      0x04\n      dup3\n      add\n        /* \"#utility.yul\":13528:13549   */\n      dup2\n      swap1\n      mstore\n        /* \"#utility.yul\":13565:13583   */\n      0x24\n      dup3\n      add\n        /* \"#utility.yul\":13558:13588   */\n      mstore\n        /* \"#utility.yul\":13624:13658   */\n      0x4552433732313a206d696e7420746f20746865207a65726f2061646472657373\n        /* \"#utility.yul\":13604:13622   */\n      0x44\n      dup3\n      add\n        /* \"#utility.yul\":13597:13659   */\n      mstore\n        /* \"#utility.yul\":13676:13694   */\n      0x64\n      add\n        /* \"@openzeppelin/contracts/token/ERC721/ERC721.sol\":9162:9223  require(to != address(0), \"ERC721: mint to the zero address\") */\n      tag_163\n        /* \"#utility.yul\":13344:13700   */\n      jump\n        /* \"@openzeppelin/contracts/token/ERC721/ERC721.sol\":9162:9223  require(to != address(0), \"ERC721: mint to the zero address\") */\n    tag_417:\n        /* \"@openzeppelin/contracts/token/ERC721/ERC721.sol\":7321:7325  bool */\n      0x00\n        /* \"@openzeppelin/contracts/token/ERC721/ERC721.sol\":6930:6946  _owners[tokenId] */\n      dup2\n      dup2\n      mstore\n        /* \"@openzeppelin/contracts/token/ERC721/ERC721.sol\":6930:6937  _owners */\n      0x02\n        /* \"@openzeppelin/contracts/token/ERC721/ERC721.sol\":6930:6946  _owners[tokenId] */\n      0x20\n      mstore\n      0x40\n      swap1\n      keccak256\n      sload\n      sub(shl(0xa0, 0x01), 0x01)\n      and\n        /* \"@openzeppelin/contracts/token/ERC721/ERC721.sol\":7344:7375  _ownerOf(tokenId) != address(0) */\n      iszero\n        /* \"@openzeppelin/contracts/token/ERC721/ERC721.sol\":9233:9291  require(!_exists(tokenId), \"ERC721: token already minted\") */\n      tag_421\n      jumpi\n      mload(0x40)\n      shl(0xe5, 0x461bcd)\n      dup2\n      mstore\n        /* \"#utility.yul\":13907:13909   */\n      0x20\n        /* \"@openzeppelin/contracts/token/ERC721/ERC721.sol\":9233:9291  require(!_exists(tokenId), \"ERC721: token already minted\") */\n      0x04\n      dup3\n      add\n        /* \"#utility.yul\":13889:13910   */\n      mstore\n        /* \"#utility.yul\":13946:13948   */\n      0x1c\n        /* \"#utility.yul\":13926:13944   */\n      0x24\n      dup3\n      add\n        /* \"#utility.yul\":13919:13949   */\n      mstore\n        /* \"#utility.yul\":13985:14015   */\n      0x4552433732313a20746f6b656e20616c7265616479206d696e74656400000000\n        /* \"#utility.yul\":13965:13983   */\n      0x44\n      dup3\n      add\n        /* \"#utility.yul\":13958:14016   */\n      mstore\n        /* \"#utility.yul\":14033:14051   */\n      0x64\n      add\n        /* \"@openzeppelin/contracts/token/ERC721/ERC721.sol\":9233:9291  require(!_exists(tokenId), \"ERC721: token already minted\") */\n      tag_163\n        /* \"#utility.yul\":13705:14057   */\n      jump\n        /* \"@openzeppelin/contracts/token/ERC721/ERC721.sol\":9233:9291  require(!_exists(tokenId), \"ERC721: token already minted\") */\n    tag_421:\n        /* \"@openzeppelin/contracts/token/ERC721/ERC721.sol\":9302:9350  _beforeTokenTransfer(address(0), to, tokenId, 1) */\n      tag_424\n        /* \"@openzeppelin/contracts/token/ERC721/ERC721.sol\":9331:9332  0 */\n      0x00\n        /* \"@openzeppelin/contracts/token/ERC721/ERC721.sol\":9335:9337  to */\n      dup4\n        /* \"@openzeppelin/contracts/token/ERC721/ERC721.sol\":9339:9346  tokenId */\n      dup4\n        /* \"@openzeppelin/contracts/token/ERC721/ERC721.sol\":9348:9349  1 */\n      0x01\n        /* \"@openzeppelin/contracts/token/ERC721/ERC721.sol\":9302:9322  _beforeTokenTransfer */\n      tag_314\n        /* \"@openzeppelin/contracts/token/ERC721/ERC721.sol\":9302:9350  _beforeTokenTransfer(address(0), to, tokenId, 1) */\n      jump\t// in\n    tag_424:\n        /* \"@openzeppelin/contracts/token/ERC721/ERC721.sol\":7321:7325  bool */\n      0x00\n        /* \"@openzeppelin/contracts/token/ERC721/ERC721.sol\":6930:6946  _owners[tokenId] */\n      dup2\n      dup2\n      mstore\n        /* \"@openzeppelin/contracts/token/ERC721/ERC721.sol\":6930:6937  _owners */\n      0x02\n        /* \"@openzeppelin/contracts/token/ERC721/ERC721.sol\":6930:6946  _owners[tokenId] */\n      0x20\n      mstore\n      0x40\n      swap1\n      keccak256\n      sload\n      sub(shl(0xa0, 0x01), 0x01)\n      and\n        /* \"@openzeppelin/contracts/token/ERC721/ERC721.sol\":7344:7375  _ownerOf(tokenId) != address(0) */\n      iszero\n        /* \"@openzeppelin/contracts/token/ERC721/ERC721.sol\":9437:9495  require(!_exists(tokenId), \"ERC721: token already minted\") */\n      tag_426\n      jumpi\n      mload(0x40)\n      shl(0xe5, 0x461bcd)\n      dup2\n      mstore\n        /* \"#utility.yul\":13907:13909   */\n      0x20\n        /* \"@openzeppelin/contracts/token/ERC721/ERC721.sol\":9437:9495  require(!_exists(tokenId), \"ERC721: token already minted\") */\n      0x04\n      dup3\n      add\n        /* \"#utility.yul\":13889:13910   */\n      mstore\n        /* \"#utility.yul\":13946:13948   */\n      0x1c\n        /* \"#utility.yul\":13926:13944   */\n      0x24\n      dup3\n      add\n        /* \"#utility.yul\":13919:13949   */\n      mstore\n        /* \"#utility.yul\":13985:14015   */\n      0x4552433732313a20746f6b656e20616c7265616479206d696e74656400000000\n        /* \"#utility.yul\":13965:13983   */\n      0x44\n      dup3\n      add\n        /* \"#utility.yul\":13958:14016   */\n      mstore\n        /* \"#utility.yul\":14033:14051   */\n      0x64\n      add\n        /* \"@openzeppelin/contracts/token/ERC721/ERC721.sol\":9437:9495  require(!_exists(tokenId), \"ERC721: token already minted\") */\n      tag_163\n        /* \"#utility.yul\":13705:14057   */\n      jump\n        /* \"@openzeppelin/contracts/token/ERC721/ERC721.sol\":9437:9495  require(!_exists(tokenId), \"ERC721: token already minted\") */\n    tag_426:\n      sub(shl(0xa0, 0x01), 0x01)\n        /* \"@openzeppelin/contracts/token/ERC721/ERC721.sol\":9837:9850  _balances[to] */\n      dup3\n      and\n      0x00\n      dup2\n      dup2\n      mstore\n        /* \"@openzeppelin/contracts/token/ERC721/ERC721.sol\":9837:9846  _balances */\n      0x03\n        /* \"@openzeppelin/contracts/token/ERC721/ERC721.sol\":9837:9850  _balances[to] */\n      0x20\n      swap1\n      dup2\n      mstore\n      0x40\n      dup1\n      dup4\n      keccak256\n        /* \"@openzeppelin/contracts/token/ERC721/ERC721.sol\":9837:9855  _balances[to] += 1 */\n      dup1\n      sload\n        /* \"@openzeppelin/contracts/token/ERC721/ERC721.sol\":9854:9855  1 */\n      0x01\n        /* \"@openzeppelin/contracts/token/ERC721/ERC721.sol\":9837:9855  _balances[to] += 1 */\n      add\n      swap1\n      sstore\n        /* \"@openzeppelin/contracts/token/ERC721/ERC721.sol\":9876:9892  _owners[tokenId] */\n      dup5\n      dup4\n      mstore\n        /* \"@openzeppelin/contracts/token/ERC721/ERC721.sol\":9876:9883  _owners */\n      0x02\n        /* \"@openzeppelin/contracts/token/ERC721/ERC721.sol\":9876:9892  _owners[tokenId] */\n      swap1\n      swap2\n      mstore\n      dup1\n      dup3\n      keccak256\n        /* \"@openzeppelin/contracts/token/ERC721/ERC721.sol\":9876:9897  _owners[tokenId] = to */\n      dup1\n      sload\n      not(sub(shl(0xa0, 0x01), 0x01))\n      and\n      dup5\n      or\n      swap1\n      sstore\n        /* \"@openzeppelin/contracts/token/ERC721/ERC721.sol\":9913:9946  Transfer(address(0), to, tokenId) */\n      mload\n        /* \"@openzeppelin/contracts/token/ERC721/ERC721.sol\":9884:9891  tokenId */\n      dup4\n      swap3\n        /* \"@openzeppelin/contracts/token/ERC721/ERC721.sol\":9837:9850  _balances[to] */\n      swap2\n      swap1\n        /* \"@openzeppelin/contracts/token/ERC721/ERC721.sol\":9913:9946  Transfer(address(0), to, tokenId) */\n      0xddf252ad1be2c89b69c2b068fc378daa952ba7f163c4a11628f55a4df523b3ef\n      swap1\n        /* \"@openzeppelin/contracts/token/ERC721/ERC721.sol\":9837:9850  _balances[to] */\n      dup3\n      swap1\n        /* \"@openzeppelin/contracts/token/ERC721/ERC721.sol\":9913:9946  Transfer(address(0), to, tokenId) */\n      log4\n        /* \"@openzeppelin/contracts/token/ERC721/ERC721.sol\":4169:4322  function setApprovalForAll(address operator, bool approved) public virtual override {... */\n      pop\n      pop\n      jump\t// out\n        /* \"#utility.yul\":14:145   */\n    tag_429:\n      not(sub(shl(0xe0, 0x01), 0x01))\n        /* \"#utility.yul\":88:120   */\n      dup2\n      and\n        /* \"#utility.yul\":78:121   */\n      dup2\n      eq\n        /* \"#utility.yul\":68:139   */\n      tag_199\n      jumpi\n        /* \"#utility.yul\":135:136   */\n      0x00\n        /* \"#utility.yul\":132:133   */\n      dup1\n        /* \"#utility.yul\":125:137   */\n      revert\n        /* \"#utility.yul\":150:395   */\n    tag_38:\n        /* \"#utility.yul\":208:214   */\n      0x00\n        /* \"#utility.yul\":261:263   */\n      0x20\n        /* \"#utility.yul\":249:258   */\n      dup3\n        /* \"#utility.yul\":240:247   */\n      dup5\n        /* \"#utility.yul\":236:259   */\n      sub\n        /* \"#utility.yul\":232:264   */\n      slt\n        /* \"#utility.yul\":229:281   */\n      iszero\n      tag_438\n      jumpi\n        /* \"#utility.yul\":277:278   */\n      0x00\n        /* \"#utility.yul\":274:275   */\n      dup1\n        /* \"#utility.yul\":267:279   */\n      revert\n        /* \"#utility.yul\":229:281   */\n    tag_438:\n        /* \"#utility.yul\":316:325   */\n      dup2\n        /* \"#utility.yul\":303:326   */\n      calldataload\n        /* \"#utility.yul\":335:365   */\n      tag_270\n        /* \"#utility.yul\":359:364   */\n      dup2\n        /* \"#utility.yul\":335:365   */\n      tag_429\n      jump\t// in\n        /* \"#utility.yul\":592:842   */\n    tag_430:\n        /* \"#utility.yul\":677:678   */\n      0x00\n        /* \"#utility.yul\":687:800   */\n    tag_442:\n        /* \"#utility.yul\":701:707   */\n      dup4\n        /* \"#utility.yul\":698:699   */\n      dup2\n        /* \"#utility.yul\":695:708   */\n      lt\n        /* \"#utility.yul\":687:800   */\n      iszero\n      tag_444\n      jumpi\n        /* \"#utility.yul\":777:788   */\n      dup2\n      dup2\n      add\n        /* \"#utility.yul\":771:789   */\n      mload\n        /* \"#utility.yul\":758:769   */\n      dup4\n      dup3\n      add\n        /* \"#utility.yul\":751:790   */\n      mstore\n        /* \"#utility.yul\":723:725   */\n      0x20\n        /* \"#utility.yul\":716:726   */\n      add\n        /* \"#utility.yul\":687:800   */\n      jump(tag_442)\n    tag_444:\n      pop\n      pop\n        /* \"#utility.yul\":834:835   */\n      0x00\n        /* \"#utility.yul\":816:832   */\n      swap2\n      add\n        /* \"#utility.yul\":809:836   */\n      mstore\n        /* \"#utility.yul\":592:842   */\n      jump\t// out\n        /* \"#utility.yul\":847:1118   */\n    tag_431:\n        /* \"#utility.yul\":889:892   */\n      0x00\n        /* \"#utility.yul\":927:932   */\n      dup2\n        /* \"#utility.yul\":921:933   */\n      mload\n        /* \"#utility.yul\":954:960   */\n      dup1\n        /* \"#utility.yul\":949:952   */\n      dup5\n        /* \"#utility.yul\":942:961   */\n      mstore\n        /* \"#utility.yul\":970:1046   */\n      tag_446\n        /* \"#utility.yul\":1039:1045   */\n      dup2\n        /* \"#utility.yul\":1032:1036   */\n      0x20\n        /* \"#utility.yul\":1027:1030   */\n      dup7\n        /* \"#utility.yul\":1023:1037   */\n      add\n        /* \"#utility.yul\":1016:1020   */\n      0x20\n        /* \"#utility.yul\":1009:1014   */\n      dup7\n        /* \"#utility.yul\":1005:1021   */\n      add\n        /* \"#utility.yul\":970:1046   */\n      tag_430\n      jump\t// in\n    tag_446:\n        /* \"#utility.yul\":1100:1102   */\n      0x1f\n        /* \"#utility.yul\":1079:1094   */\n      add\n      not(0x1f)\n        /* \"#utility.yul\":1075:1104   */\n      and\n        /* \"#utility.yul\":1066:1105   */\n      swap3\n      swap1\n      swap3\n      add\n        /* \"#utility.yul\":1107:1111   */\n      0x20\n        /* \"#utility.yul\":1062:1112   */\n      add\n      swap3\n        /* \"#utility.yul\":847:1118   */\n      swap2\n      pop\n      pop\n      jump\t// out\n        /* \"#utility.yul\":1123:1343   */\n    tag_45:\n        /* \"#utility.yul\":1272:1274   */\n      0x20\n        /* \"#utility.yul\":1261:1270   */\n      dup2\n        /* \"#utility.yul\":1254:1275   */\n      mstore\n        /* \"#utility.yul\":1235:1239   */\n      0x00\n        /* \"#utility.yul\":1292:1337   */\n      tag_270\n        /* \"#utility.yul\":1333:1335   */\n      0x20\n        /* \"#utility.yul\":1322:1331   */\n      dup4\n        /* \"#utility.yul\":1318:1336   */\n      add\n        /* \"#utility.yul\":1310:1316   */\n      dup5\n        /* \"#utility.yul\":1292:1337   */\n      tag_431\n      jump\t// in\n        /* \"#utility.yul\":1348:1528   */\n    tag_48:\n        /* \"#utility.yul\":1407:1413   */\n      0x00\n        /* \"#utility.yul\":1460:1462   */\n      0x20\n        /* \"#utility.yul\":1448:1457   */\n      dup3\n        /* \"#utility.yul\":1439:1446   */\n      dup5\n        /* \"#utility.yul\":1435:1458   */\n      sub\n        /* \"#utility.yul\":1431:1463   */\n      slt\n        /* \"#utility.yul\":1428:1480   */\n      iszero\n      tag_450\n      jumpi\n        /* \"#utility.yul\":1476:1477   */\n      0x00\n        /* \"#utility.yul\":1473:1474   */\n      dup1\n        /* \"#utility.yul\":1466:1478   */\n      revert\n        /* \"#utility.yul\":1428:1480   */\n    tag_450:\n      pop\n        /* \"#utility.yul\":1499:1522   */\n      calldataload\n      swap2\n        /* \"#utility.yul\":1348:1528   */\n      swap1\n      pop\n      jump\t// out\n        /* \"#utility.yul\":1741:1914   */\n    tag_432:\n        /* \"#utility.yul\":1809:1829   */\n      dup1\n      calldataload\n      sub(shl(0xa0, 0x01), 0x01)\n        /* \"#utility.yul\":1858:1889   */\n      dup2\n      and\n        /* \"#utility.yul\":1848:1890   */\n      dup2\n      eq\n        /* \"#utility.yul\":1838:1908   */\n      tag_453\n      jumpi\n        /* \"#utility.yul\":1904:1905   */\n      0x00\n        /* \"#utility.yul\":1901:1902   */\n      dup1\n        /* \"#utility.yul\":1894:1906   */\n      revert\n        /* \"#utility.yul\":1838:1908   */\n    tag_453:\n        /* \"#utility.yul\":1741:1914   */\n      swap2\n      swap1\n      pop\n      jump\t// out\n        /* \"#utility.yul\":1919:2173   */\n    tag_54:\n        /* \"#utility.yul\":1987:1993   */\n      0x00\n        /* \"#utility.yul\":1995:2001   */\n      dup1\n        /* \"#utility.yul\":2048:2050   */\n      0x40\n        /* \"#utility.yul\":2036:2045   */\n      dup4\n        /* \"#utility.yul\":2027:2034   */\n      dup6\n        /* \"#utility.yul\":2023:2046   */\n      sub\n        /* \"#utility.yul\":2019:2051   */\n      slt\n        /* \"#utility.yul\":2016:2068   */\n      iszero\n      tag_455\n      jumpi\n        /* \"#utility.yul\":2064:2065   */\n      0x00\n        /* \"#utility.yul\":2061:2062   */\n      dup1\n        /* \"#utility.yul\":2054:2066   */\n      revert\n        /* \"#utility.yul\":2016:2068   */\n    tag_455:\n        /* \"#utility.yul\":2087:2116   */\n      tag_456\n        /* \"#utility.yul\":2106:2115   */\n      dup4\n        /* \"#utility.yul\":2087:2116   */\n      tag_432\n      jump\t// in\n    tag_456:\n        /* \"#utility.yul\":2077:2116   */\n      swap5\n        /* \"#utility.yul\":2163:2165   */\n      0x20\n        /* \"#utility.yul\":2148:2166   */\n      swap4\n      swap1\n      swap4\n      add\n        /* \"#utility.yul\":2135:2167   */\n      calldataload\n      swap4\n      pop\n      pop\n      pop\n        /* \"#utility.yul\":1919:2173   */\n      jump\t// out\n        /* \"#utility.yul\":2178:2506   */\n    tag_61:\n        /* \"#utility.yul\":2255:2261   */\n      0x00\n        /* \"#utility.yul\":2263:2269   */\n      dup1\n        /* \"#utility.yul\":2271:2277   */\n      0x00\n        /* \"#utility.yul\":2324:2326   */\n      0x60\n        /* \"#utility.yul\":2312:2321   */\n      dup5\n        /* \"#utility.yul\":2303:2310   */\n      dup7\n        /* \"#utility.yul\":2299:2322   */\n      sub\n        /* \"#utility.yul\":2295:2327   */\n      slt\n        /* \"#utility.yul\":2292:2344   */\n      iszero\n      tag_458\n      jumpi\n        /* \"#utility.yul\":2340:2341   */\n      0x00\n        /* \"#utility.yul\":2337:2338   */\n      dup1\n        /* \"#utility.yul\":2330:2342   */\n      revert\n        /* \"#utility.yul\":2292:2344   */\n    tag_458:\n        /* \"#utility.yul\":2363:2392   */\n      tag_459\n        /* \"#utility.yul\":2382:2391   */\n      dup5\n        /* \"#utility.yul\":2363:2392   */\n      tag_432\n      jump\t// in\n    tag_459:\n        /* \"#utility.yul\":2353:2392   */\n      swap3\n      pop\n        /* \"#utility.yul\":2411:2449   */\n      tag_460\n        /* \"#utility.yul\":2445:2447   */\n      0x20\n        /* \"#utility.yul\":2434:2443   */\n      dup6\n        /* \"#utility.yul\":2430:2448   */\n      add\n        /* \"#utility.yul\":2411:2449   */\n      tag_432\n      jump\t// in\n    tag_460:\n        /* \"#utility.yul\":2401:2449   */\n      swap2\n      pop\n        /* \"#utility.yul\":2496:2498   */\n      0x40\n        /* \"#utility.yul\":2485:2494   */\n      dup5\n        /* \"#utility.yul\":2481:2499   */\n      add\n        /* \"#utility.yul\":2468:2500   */\n      calldataload\n        /* \"#utility.yul\":2458:2500   */\n      swap1\n      pop\n        /* \"#utility.yul\":2178:2506   */\n      swap3\n      pop\n      swap3\n      pop\n      swap3\n      jump\t// out\n        /* \"#utility.yul\":2882:3068   */\n    tag_75:\n        /* \"#utility.yul\":2941:2947   */\n      0x00\n        /* \"#utility.yul\":2994:2996   */\n      0x20\n        /* \"#utility.yul\":2982:2991   */\n      dup3\n        /* \"#utility.yul\":2973:2980   */\n      dup5\n        /* \"#utility.yul\":2969:2992   */\n      sub\n        /* \"#utility.yul\":2965:2997   */\n      slt\n        /* \"#utility.yul\":2962:3014   */\n      iszero\n      tag_464\n      jumpi\n        /* \"#utility.yul\":3010:3011   */\n      0x00\n        /* \"#utility.yul\":3007:3008   */\n      dup1\n        /* \"#utility.yul\":3000:3012   */\n      revert\n        /* \"#utility.yul\":2962:3014   */\n    tag_464:\n        /* \"#utility.yul\":3033:3062   */\n      tag_270\n        /* \"#utility.yul\":3052:3061   */\n      dup3\n        /* \"#utility.yul\":3033:3062   */\n      tag_432\n      jump\t// in\n        /* \"#utility.yul\":3255:3602   */\n    tag_114:\n        /* \"#utility.yul\":3320:3326   */\n      0x00\n        /* \"#utility.yul\":3328:3334   */\n      dup1\n        /* \"#utility.yul\":3381:3383   */\n      0x40\n        /* \"#utility.yul\":3369:3378   */\n      dup4\n        /* \"#utility.yul\":3360:3367   */\n      dup6\n        /* \"#utility.yul\":3356:3379   */\n      sub\n        /* \"#utility.yul\":3352:3384   */\n      slt\n        /* \"#utility.yul\":3349:3401   */\n      iszero\n      tag_468\n      jumpi\n        /* \"#utility.yul\":3397:3398   */\n      0x00\n        /* \"#utility.yul\":3394:3395   */\n      dup1\n        /* \"#utility.yul\":3387:3399   */\n      revert\n        /* \"#utility.yul\":3349:3401   */\n    tag_468:\n        /* \"#utility.yul\":3420:3449   */\n      tag_469\n        /* \"#utility.yul\":3439:3448   */\n      dup4\n        /* \"#utility.yul\":3420:3449   */\n      tag_432\n      jump\t// in\n    tag_469:\n        /* \"#utility.yul\":3410:3449   */\n      swap2\n      pop\n        /* \"#utility.yul\":3499:3501   */\n      0x20\n        /* \"#utility.yul\":3488:3497   */\n      dup4\n        /* \"#utility.yul\":3484:3502   */\n      add\n        /* \"#utility.yul\":3471:3503   */\n      calldataload\n        /* \"#utility.yul\":3546:3551   */\n      dup1\n        /* \"#utility.yul\":3539:3552   */\n      iszero\n        /* \"#utility.yul\":3532:3553   */\n      iszero\n        /* \"#utility.yul\":3525:3530   */\n      dup2\n        /* \"#utility.yul\":3522:3554   */\n      eq\n        /* \"#utility.yul\":3512:3572   */\n      tag_470\n      jumpi\n        /* \"#utility.yul\":3568:3569   */\n      0x00\n        /* \"#utility.yul\":3565:3566   */\n      dup1\n        /* \"#utility.yul\":3558:3570   */\n      revert\n        /* \"#utility.yul\":3512:3572   */\n    tag_470:\n        /* \"#utility.yul\":3591:3596   */\n      dup1\n        /* \"#utility.yul\":3581:3596   */\n      swap2\n      pop\n      pop\n        /* \"#utility.yul\":3255:3602   */\n      swap3\n      pop\n      swap3\n      swap1\n      pop\n      jump\t// out\n        /* \"#utility.yul\":3607:3734   */\n    tag_347:\n        /* \"#utility.yul\":3668:3678   */\n      0x4e487b71\n        /* \"#utility.yul\":3663:3666   */\n      0xe0\n        /* \"#utility.yul\":3659:3679   */\n      shl\n        /* \"#utility.yul\":3656:3657   */\n      0x00\n        /* \"#utility.yul\":3649:3680   */\n      mstore\n        /* \"#utility.yul\":3699:3703   */\n      0x41\n        /* \"#utility.yul\":3696:3697   */\n      0x04\n        /* \"#utility.yul\":3689:3704   */\n      mstore\n        /* \"#utility.yul\":3723:3727   */\n      0x24\n        /* \"#utility.yul\":3720:3721   */\n      0x00\n        /* \"#utility.yul\":3713:3728   */\n      revert\n        /* \"#utility.yul\":3739:4877   */\n    tag_122:\n        /* \"#utility.yul\":3834:3840   */\n      0x00\n        /* \"#utility.yul\":3842:3848   */\n      dup1\n        /* \"#utility.yul\":3850:3856   */\n      0x00\n        /* \"#utility.yul\":3858:3864   */\n      dup1\n        /* \"#utility.yul\":3911:3914   */\n      0x80\n        /* \"#utility.yul\":3899:3908   */\n      dup6\n        /* \"#utility.yul\":3890:3897   */\n      dup8\n        /* \"#utility.yul\":3886:3909   */\n      sub\n        /* \"#utility.yul\":3882:3915   */\n      slt\n        /* \"#utility.yul\":3879:3932   */\n      iszero\n      tag_473\n      jumpi\n        /* \"#utility.yul\":3928:3929   */\n      0x00\n        /* \"#utility.yul\":3925:3926   */\n      dup1\n        /* \"#utility.yul\":3918:3930   */\n      revert\n        /* \"#utility.yul\":3879:3932   */\n    tag_473:\n        /* \"#utility.yul\":3951:3980   */\n      tag_474\n        /* \"#utility.yul\":3970:3979   */\n      dup6\n        /* \"#utility.yul\":3951:3980   */\n      tag_432\n      jump\t// in\n    tag_474:\n        /* \"#utility.yul\":3941:3980   */\n      swap4\n      pop\n        /* \"#utility.yul\":3999:4037   */\n      tag_475\n        /* \"#utility.yul\":4033:4035   */\n      0x20\n        /* \"#utility.yul\":4022:4031   */\n      dup7\n        /* \"#utility.yul\":4018:4036   */\n      add\n        /* \"#utility.yul\":3999:4037   */\n      tag_432\n      jump\t// in\n    tag_475:\n        /* \"#utility.yul\":3989:4037   */\n      swap3\n      pop\n        /* \"#utility.yul\":4084:4086   */\n      0x40\n        /* \"#utility.yul\":4073:4082   */\n      dup6\n        /* \"#utility.yul\":4069:4087   */\n      add\n        /* \"#utility.yul\":4056:4088   */\n      calldataload\n        /* \"#utility.yul\":4046:4088   */\n      swap2\n      pop\n        /* \"#utility.yul\":4139:4141   */\n      0x60\n        /* \"#utility.yul\":4128:4137   */\n      dup6\n        /* \"#utility.yul\":4124:4142   */\n      add\n        /* \"#utility.yul\":4111:4143   */\n      calldataload\n        /* \"#utility.yul\":4162:4180   */\n      0xffffffffffffffff\n        /* \"#utility.yul\":4203:4205   */\n      dup1\n        /* \"#utility.yul\":4195:4201   */\n      dup3\n        /* \"#utility.yul\":4192:4206   */\n      gt\n        /* \"#utility.yul\":4189:4223   */\n      iszero\n      tag_476\n      jumpi\n        /* \"#utility.yul\":4219:4220   */\n      0x00\n        /* \"#utility.yul\":4216:4217   */\n      dup1\n        /* \"#utility.yul\":4209:4221   */\n      revert\n        /* \"#utility.yul\":4189:4223   */\n    tag_476:\n        /* \"#utility.yul\":4257:4263   */\n      dup2\n        /* \"#utility.yul\":4246:4255   */\n      dup8\n        /* \"#utility.yul\":4242:4264   */\n      add\n        /* \"#utility.yul\":4232:4264   */\n      swap2\n      pop\n        /* \"#utility.yul\":4302:4309   */\n      dup8\n        /* \"#utility.yul\":4295:4299   */\n      0x1f\n        /* \"#utility.yul\":4291:4293   */\n      dup4\n        /* \"#utility.yul\":4287:4300   */\n      add\n        /* \"#utility.yul\":4283:4310   */\n      slt\n        /* \"#utility.yul\":4273:4328   */\n      tag_477\n      jumpi\n        /* \"#utility.yul\":4324:4325   */\n      0x00\n        /* \"#utility.yul\":4321:4322   */\n      dup1\n        /* \"#utility.yul\":4314:4326   */\n      revert\n        /* \"#utility.yul\":4273:4328   */\n    tag_477:\n        /* \"#utility.yul\":4360:4362   */\n      dup2\n        /* \"#utility.yul\":4347:4363   */\n      calldataload\n        /* \"#utility.yul\":4382:4384   */\n      dup2\n        /* \"#utility.yul\":4378:4380   */\n      dup2\n        /* \"#utility.yul\":4375:4385   */\n      gt\n        /* \"#utility.yul\":4372:4408   */\n      iszero\n      tag_479\n      jumpi\n        /* \"#utility.yul\":4388:4406   */\n      tag_479\n      tag_347\n      jump\t// in\n    tag_479:\n        /* \"#utility.yul\":4463:4465   */\n      0x40\n        /* \"#utility.yul\":4457:4466   */\n      mload\n        /* \"#utility.yul\":4431:4433   */\n      0x1f\n        /* \"#utility.yul\":4517:4530   */\n      dup3\n      add\n      not(0x1f)\n        /* \"#utility.yul\":4513:4535   */\n      swap1\n      dup2\n      and\n        /* \"#utility.yul\":4537:4539   */\n      0x3f\n        /* \"#utility.yul\":4509:4540   */\n      add\n        /* \"#utility.yul\":4505:4545   */\n      and\n        /* \"#utility.yul\":4493:4546   */\n      dup2\n      add\n      swap1\n        /* \"#utility.yul\":4561:4579   */\n      dup4\n      dup3\n      gt\n        /* \"#utility.yul\":4581:4603   */\n      dup2\n      dup4\n      lt\n        /* \"#utility.yul\":4558:4604   */\n      or\n        /* \"#utility.yul\":4555:4627   */\n      iszero\n      tag_481\n      jumpi\n        /* \"#utility.yul\":4607:4625   */\n      tag_481\n      tag_347\n      jump\t// in\n    tag_481:\n        /* \"#utility.yul\":4647:4657   */\n      dup2\n        /* \"#utility.yul\":4643:4645   */\n      0x40\n        /* \"#utility.yul\":4636:4658   */\n      mstore\n        /* \"#utility.yul\":4682:4684   */\n      dup3\n        /* \"#utility.yul\":4674:4680   */\n      dup2\n        /* \"#utility.yul\":4667:4685   */\n      mstore\n        /* \"#utility.yul\":4722:4729   */\n      dup11\n        /* \"#utility.yul\":4717:4719   */\n      0x20\n        /* \"#utility.yul\":4712:4714   */\n      dup5\n        /* \"#utility.yul\":4708:4710   */\n      dup8\n        /* \"#utility.yul\":4704:4715   */\n      add\n        /* \"#utility.yul\":4700:4720   */\n      add\n        /* \"#utility.yul\":4697:4730   */\n      gt\n        /* \"#utility.yul\":4694:4747   */\n      iszero\n      tag_482\n      jumpi\n        /* \"#utility.yul\":4743:4744   */\n      0x00\n        /* \"#utility.yul\":4740:4741   */\n      dup1\n        /* \"#utility.yul\":4733:4745   */\n      revert\n        /* \"#utility.yul\":4694:4747   */\n    tag_482:\n        /* \"#utility.yul\":4799:4801   */\n      dup3\n        /* \"#utility.yul\":4794:4796   */\n      0x20\n        /* \"#utility.yul\":4790:4792   */\n      dup7\n        /* \"#utility.yul\":4786:4797   */\n      add\n        /* \"#utility.yul\":4781:4783   */\n      0x20\n        /* \"#utility.yul\":4773:4779   */\n      dup4\n        /* \"#utility.yul\":4769:4784   */\n      add\n        /* \"#utility.yul\":4756:4802   */\n      calldatacopy\n        /* \"#utility.yul\":4844:4845   */\n      0x00\n        /* \"#utility.yul\":4839:4841   */\n      0x20\n        /* \"#utility.yul\":4834:4836   */\n      dup5\n        /* \"#utility.yul\":4826:4832   */\n      dup4\n        /* \"#utility.yul\":4822:4837   */\n      add\n        /* \"#utility.yul\":4818:4842   */\n      add\n        /* \"#utility.yul\":4811:4846   */\n      mstore\n        /* \"#utility.yul\":4865:4871   */\n      dup1\n        /* \"#utility.yul\":4855:4871   */\n      swap6\n      pop\n      pop\n      pop\n      pop\n      pop\n      pop\n        /* \"#utility.yul\":3739:4877   */\n      swap3\n      swap6\n      swap2\n      swap5\n      pop\n      swap3\n      pop\n      jump\t// out\n        /* \"#utility.yul\":4882:5038   */\n    tag_433:\n        /* \"#utility.yul\":4948:4968   */\n      dup1\n      calldataload\n        /* \"#utility.yul\":5008:5012   */\n      0xff\n        /* \"#utility.yul\":4997:5013   */\n      dup2\n      and\n        /* \"#utility.yul\":4987:5014   */\n      dup2\n      eq\n        /* \"#utility.yul\":4977:5032   */\n      tag_453\n      jumpi\n        /* \"#utility.yul\":5028:5029   */\n      0x00\n        /* \"#utility.yul\":5025:5026   */\n      dup1\n        /* \"#utility.yul\":5018:5030   */\n      revert\n        /* \"#utility.yul\":5043:5293   */\n    tag_126:\n        /* \"#utility.yul\":5109:5115   */\n      0x00\n        /* \"#utility.yul\":5117:5123   */\n      dup1\n        /* \"#utility.yul\":5170:5172   */\n      0x40\n        /* \"#utility.yul\":5158:5167   */\n      dup4\n        /* \"#utility.yul\":5149:5156   */\n      dup6\n        /* \"#utility.yul\":5145:5168   */\n      sub\n        /* \"#utility.yul\":5141:5173   */\n      slt\n        /* \"#utility.yul\":5138:5190   */\n      iszero\n      tag_486\n      jumpi\n        /* \"#utility.yul\":5186:5187   */\n      0x00\n        /* \"#utility.yul\":5183:5184   */\n      dup1\n        /* \"#utility.yul\":5176:5188   */\n      revert\n        /* \"#utility.yul\":5138:5190   */\n    tag_486:\n        /* \"#utility.yul\":5222:5231   */\n      dup3\n        /* \"#utility.yul\":5209:5232   */\n      calldataload\n        /* \"#utility.yul\":5199:5232   */\n      swap2\n      pop\n        /* \"#utility.yul\":5251:5287   */\n      tag_487\n        /* \"#utility.yul\":5283:5285   */\n      0x20\n        /* \"#utility.yul\":5272:5281   */\n      dup5\n        /* \"#utility.yul\":5268:5286   */\n      add\n        /* \"#utility.yul\":5251:5287   */\n      tag_433\n      jump\t// in\n    tag_487:\n        /* \"#utility.yul\":5241:5287   */\n      swap1\n      pop\n        /* \"#utility.yul\":5043:5293   */\n      swap3\n      pop\n      swap3\n      swap1\n      pop\n      jump\t// out\n        /* \"#utility.yul\":5298:5622   */\n    tag_130:\n        /* \"#utility.yul\":5373:5379   */\n      0x00\n        /* \"#utility.yul\":5381:5387   */\n      dup1\n        /* \"#utility.yul\":5389:5395   */\n      0x00\n        /* \"#utility.yul\":5442:5444   */\n      0x60\n        /* \"#utility.yul\":5430:5439   */\n      dup5\n        /* \"#utility.yul\":5421:5428   */\n      dup7\n        /* \"#utility.yul\":5417:5440   */\n      sub\n        /* \"#utility.yul\":5413:5445   */\n      slt\n        /* \"#utility.yul\":5410:5462   */\n      iszero\n      tag_489\n      jumpi\n        /* \"#utility.yul\":5458:5459   */\n      0x00\n        /* \"#utility.yul\":5455:5456   */\n      dup1\n        /* \"#utility.yul\":5448:5460   */\n      revert\n        /* \"#utility.yul\":5410:5462   */\n    tag_489:\n        /* \"#utility.yul\":5481:5510   */\n      tag_490\n        /* \"#utility.yul\":5500:5509   */\n      dup5\n        /* \"#utility.yul\":5481:5510   */\n      tag_432\n      jump\t// in\n    tag_490:\n        /* \"#utility.yul\":5471:5510   */\n      swap3\n      pop\n        /* \"#utility.yul\":5529:5565   */\n      tag_460\n        /* \"#utility.yul\":5561:5563   */\n      0x20\n        /* \"#utility.yul\":5550:5559   */\n      dup6\n        /* \"#utility.yul\":5546:5564   */\n      add\n        /* \"#utility.yul\":5529:5565   */\n      tag_433\n      jump\t// in\n        /* \"#utility.yul\":5627:5887   */\n    tag_138:\n        /* \"#utility.yul\":5695:5701   */\n      0x00\n        /* \"#utility.yul\":5703:5709   */\n      dup1\n        /* \"#utility.yul\":5756:5758   */\n      0x40\n        /* \"#utility.yul\":5744:5753   */\n      dup4\n        /* \"#utility.yul\":5735:5742   */\n      dup6\n        /* \"#utility.yul\":5731:5754   */\n      sub\n        /* \"#utility.yul\":5727:5759   */\n      slt\n        /* \"#utility.yul\":5724:5776   */\n      iszero\n      tag_493\n      jumpi\n        /* \"#utility.yul\":5772:5773   */\n      0x00\n        /* \"#utility.yul\":5769:5770   */\n      dup1\n        /* \"#utility.yul\":5762:5774   */\n      revert\n        /* \"#utility.yul\":5724:5776   */\n    tag_493:\n        /* \"#utility.yul\":5795:5824   */\n      tag_494\n        /* \"#utility.yul\":5814:5823   */\n      dup4\n        /* \"#utility.yul\":5795:5824   */\n      tag_432\n      jump\t// in\n    tag_494:\n        /* \"#utility.yul\":5785:5824   */\n      swap2\n      pop\n        /* \"#utility.yul\":5843:5881   */\n      tag_487\n        /* \"#utility.yul\":5877:5879   */\n      0x20\n        /* \"#utility.yul\":5866:5875   */\n      dup5\n        /* \"#utility.yul\":5862:5880   */\n      add\n        /* \"#utility.yul\":5843:5881   */\n      tag_432\n      jump\t// in\n        /* \"#utility.yul\":5892:6272   */\n    tag_152:\n        /* \"#utility.yul\":5971:5972   */\n      0x01\n        /* \"#utility.yul\":5967:5979   */\n      dup2\n      dup2\n      shr\n      swap1\n        /* \"#utility.yul\":6014:6026   */\n      dup3\n      and\n      dup1\n        /* \"#utility.yul\":6035:6096   */\n      tag_497\n      jumpi\n        /* \"#utility.yul\":6089:6093   */\n      0x7f\n        /* \"#utility.yul\":6081:6087   */\n      dup3\n        /* \"#utility.yul\":6077:6094   */\n      and\n        /* \"#utility.yul\":6067:6094   */\n      swap2\n      pop\n        /* \"#utility.yul\":6035:6096   */\n    tag_497:\n        /* \"#utility.yul\":6142:6144   */\n      0x20\n        /* \"#utility.yul\":6134:6140   */\n      dup3\n        /* \"#utility.yul\":6131:6145   */\n      lt\n        /* \"#utility.yul\":6111:6129   */\n      dup2\n        /* \"#utility.yul\":6108:6146   */\n      sub\n        /* \"#utility.yul\":6105:6266   */\n      tag_498\n      jumpi\n        /* \"#utility.yul\":6188:6198   */\n      0x4e487b71\n        /* \"#utility.yul\":6183:6186   */\n      0xe0\n        /* \"#utility.yul\":6179:6199   */\n      shl\n        /* \"#utility.yul\":6176:6177   */\n      0x00\n        /* \"#utility.yul\":6169:6200   */\n      mstore\n        /* \"#utility.yul\":6223:6227   */\n      0x22\n        /* \"#utility.yul\":6220:6221   */\n      0x04\n        /* \"#utility.yul\":6213:6228   */\n      mstore\n        /* \"#utility.yul\":6251:6255   */\n      0x24\n        /* \"#utility.yul\":6248:6249   */\n      0x00\n        /* \"#utility.yul\":6241:6256   */\n      revert\n        /* \"#utility.yul\":6105:6266   */\n    tag_498:\n      pop\n        /* \"#utility.yul\":5892:6272   */\n      swap2\n      swap1\n      pop\n      jump\t// out\n        /* \"#utility.yul\":7109:7518   */\n    tag_185:\n        /* \"#utility.yul\":7311:7313   */\n      0x20\n        /* \"#utility.yul\":7293:7314   */\n      dup1\n      dup3\n      mstore\n        /* \"#utility.yul\":7350:7352   */\n      0x2d\n        /* \"#utility.yul\":7330:7348   */\n      swap1\n      dup3\n      add\n        /* \"#utility.yul\":7323:7353   */\n      mstore\n        /* \"#utility.yul\":7389:7423   */\n      0x4552433732313a2063616c6c6572206973206e6f7420746f6b656e206f776e65\n        /* \"#utility.yul\":7384:7386   */\n      0x40\n        /* \"#utility.yul\":7369:7387   */\n      dup3\n      add\n        /* \"#utility.yul\":7362:7424   */\n      mstore\n      shl(0x9a, 0x1c881bdc88185c1c1c9bdd9959)\n        /* \"#utility.yul\":7455:7457   */\n      0x60\n        /* \"#utility.yul\":7440:7458   */\n      dup3\n      add\n        /* \"#utility.yul\":7433:7476   */\n      mstore\n        /* \"#utility.yul\":7508:7511   */\n      0x80\n        /* \"#utility.yul\":7493:7512   */\n      add\n      swap1\n        /* \"#utility.yul\":7109:7518   */\n      jump\t// out\n        /* \"#utility.yul\":9278:9774   */\n    tag_274:\n        /* \"#utility.yul\":9457:9460   */\n      0x00\n        /* \"#utility.yul\":9495:9501   */\n      dup4\n        /* \"#utility.yul\":9489:9502   */\n      mload\n        /* \"#utility.yul\":9511:9577   */\n      tag_508\n        /* \"#utility.yul\":9570:9576   */\n      dup2\n        /* \"#utility.yul\":9565:9568   */\n      dup5\n        /* \"#utility.yul\":9558:9562   */\n      0x20\n        /* \"#utility.yul\":9550:9556   */\n      dup9\n        /* \"#utility.yul\":9546:9563   */\n      add\n        /* \"#utility.yul\":9511:9577   */\n      tag_430\n      jump\t// in\n    tag_508:\n        /* \"#utility.yul\":9640:9653   */\n      dup4\n      mload\n        /* \"#utility.yul\":9599:9615   */\n      swap1\n      dup4\n      add\n      swap1\n        /* \"#utility.yul\":9662:9732   */\n      tag_509\n        /* \"#utility.yul\":9640:9653   */\n      dup2\n        /* \"#utility.yul\":9599:9615   */\n      dup4\n        /* \"#utility.yul\":9709:9713   */\n      0x20\n        /* \"#utility.yul\":9697:9714   */\n      dup9\n      add\n        /* \"#utility.yul\":9662:9732   */\n      tag_430\n      jump\t// in\n    tag_509:\n        /* \"#utility.yul\":9748:9768   */\n      add\n      swap5\n        /* \"#utility.yul\":9278:9774   */\n      swap4\n      pop\n      pop\n      pop\n      pop\n      jump\t// out\n        /* \"#utility.yul\":10547:10948   */\n    tag_309:\n        /* \"#utility.yul\":10749:10751   */\n      0x20\n        /* \"#utility.yul\":10731:10752   */\n      dup1\n      dup3\n      mstore\n        /* \"#utility.yul\":10788:10790   */\n      0x25\n        /* \"#utility.yul\":10768:10786   */\n      swap1\n      dup3\n      add\n        /* \"#utility.yul\":10761:10791   */\n      mstore\n        /* \"#utility.yul\":10827:10861   */\n      0x4552433732313a207472616e736665722066726f6d20696e636f727265637420\n        /* \"#utility.yul\":10822:10824   */\n      0x40\n        /* \"#utility.yul\":10807:10825   */\n      dup3\n      add\n        /* \"#utility.yul\":10800:10862   */\n      mstore\n      shl(0xd9, 0x37bbb732b9)\n        /* \"#utility.yul\":10893:10895   */\n      0x60\n        /* \"#utility.yul\":10878:10896   */\n      dup3\n      add\n        /* \"#utility.yul\":10871:10906   */\n      mstore\n        /* \"#utility.yul\":10938:10941   */\n      0x80\n        /* \"#utility.yul\":10923:10942   */\n      add\n      swap1\n        /* \"#utility.yul\":10547:10948   */\n      jump\t// out\n        /* \"#utility.yul\":11712:12126   */\n    tag_336:\n        /* \"#utility.yul\":11914:11916   */\n      0x20\n        /* \"#utility.yul\":11896:11917   */\n      dup1\n      dup3\n      mstore\n        /* \"#utility.yul\":11953:11955   */\n      0x32\n        /* \"#utility.yul\":11933:11951   */\n      swap1\n      dup3\n      add\n        /* \"#utility.yul\":11926:11956   */\n      mstore\n        /* \"#utility.yul\":11992:12026   */\n      0x4552433732313a207472616e7366657220746f206e6f6e204552433732315265\n        /* \"#utility.yul\":11987:11989   */\n      0x40\n        /* \"#utility.yul\":11972:11990   */\n      dup3\n      add\n        /* \"#utility.yul\":11965:12027   */\n      mstore\n      shl(0x71, 0x31b2b4bb32b91034b6b83632b6b2b73a32b9)\n        /* \"#utility.yul\":12058:12060   */\n      0x60\n        /* \"#utility.yul\":12043:12061   */\n      dup3\n      add\n        /* \"#utility.yul\":12036:12084   */\n      mstore\n        /* \"#utility.yul\":12116:12119   */\n      0x80\n        /* \"#utility.yul\":12101:12120   */\n      add\n      swap1\n        /* \"#utility.yul\":11712:12126   */\n      jump\t// out\n        /* \"#utility.yul\":12596:13085   */\n    tag_374:\n      sub(shl(0xa0, 0x01), 0x01)\n        /* \"#utility.yul\":12865:12880   */\n      dup6\n      dup2\n      and\n        /* \"#utility.yul\":12847:12881   */\n      dup3\n      mstore\n        /* \"#utility.yul\":12917:12932   */\n      dup5\n      and\n        /* \"#utility.yul\":12912:12914   */\n      0x20\n        /* \"#utility.yul\":12897:12915   */\n      dup3\n      add\n        /* \"#utility.yul\":12890:12933   */\n      mstore\n        /* \"#utility.yul\":12964:12966   */\n      0x40\n        /* \"#utility.yul\":12949:12967   */\n      dup2\n      add\n        /* \"#utility.yul\":12942:12976   */\n      dup4\n      swap1\n      mstore\n        /* \"#utility.yul\":13012:13015   */\n      0x80\n        /* \"#utility.yul\":13007:13009   */\n      0x60\n        /* \"#utility.yul\":12992:13010   */\n      dup3\n      add\n        /* \"#utility.yul\":12985:13016   */\n      dup2\n      swap1\n      mstore\n        /* \"#utility.yul\":12790:12794   */\n      0x00\n      swap1\n        /* \"#utility.yul\":13033:13079   */\n      tag_519\n      swap1\n        /* \"#utility.yul\":13059:13078   */\n      dup4\n      add\n        /* \"#utility.yul\":13051:13057   */\n      dup5\n        /* \"#utility.yul\":13033:13079   */\n      tag_431\n      jump\t// in\n    tag_519:\n        /* \"#utility.yul\":13025:13079   */\n      swap7\n        /* \"#utility.yul\":12596:13085   */\n      swap6\n      pop\n      pop\n      pop\n      pop\n      pop\n      pop\n      jump\t// out\n        /* \"#utility.yul\":13090:13339   */\n    tag_377:\n        /* \"#utility.yul\":13159:13165   */\n      0x00\n        /* \"#utility.yul\":13212:13214   */\n      0x20\n        /* \"#utility.yul\":13200:13209   */\n      dup3\n        /* \"#utility.yul\":13191:13198   */\n      dup5\n        /* \"#utility.yul\":13187:13210   */\n      sub\n        /* \"#utility.yul\":13183:13215   */\n      slt\n        /* \"#utility.yul\":13180:13232   */\n      iszero\n      tag_521\n      jumpi\n        /* \"#utility.yul\":13228:13229   */\n      0x00\n        /* \"#utility.yul\":13225:13226   */\n      dup1\n        /* \"#utility.yul\":13218:13230   */\n      revert\n        /* \"#utility.yul\":13180:13232   */\n    tag_521:\n        /* \"#utility.yul\":13260:13269   */\n      dup2\n        /* \"#utility.yul\":13254:13270   */\n      mload\n        /* \"#utility.yul\":13279:13309   */\n      tag_270\n        /* \"#utility.yul\":13303:13308   */\n      dup2\n        /* \"#utility.yul\":13279:13309   */\n      tag_429\n      jump\t// in\n\n    auxdata: 0xa264697066735822122020c41a66b35513ad7a7ea87403220fb33aee9741a4bf904b412c5a8b7a0b507d64736f6c63430008110033\n}\n",
				"bytecode": {
					"linkReferences": {},
					"object": "60806040523480156200001157600080fd5b506040518060400160405280600e81526020016d29b7bab62137bab7322a37b5b2b760911b8152506040518060400160405280600381526020016214d09560ea1b8152508160009081620000669190620001b3565b506001620000758282620001b3565b505050620000926200008c620000af60201b60201c565b620000b3565b620000a960076200010560201b62000b881760201c565b6200027f565b3390565b600680546001600160a01b038381166001600160a01b0319831681179093556040519116919082907f8be0079c531659141344cd1fd0a4f28419497f9722a3daafe3b4186f6b6457e090600090a35050565b80546001019055565b634e487b7160e01b600052604160045260246000fd5b600181811c908216806200013957607f821691505b6020821081036200015a57634e487b7160e01b600052602260045260246000fd5b50919050565b601f821115620001ae57600081815260208120601f850160051c81016020861015620001895750805b601f850160051c820191505b81811015620001aa5782815560010162000195565b5050505b505050565b81516001600160401b03811115620001cf57620001cf6200010e565b620001e781620001e0845462000124565b8462000160565b602080601f8311600181146200021f5760008415620002065750858301515b600019600386901b1c1916600185901b178555620001aa565b600085815260208120601f198616915b8281101562000250578886015182559484019460019091019084016200022f565b50858210156200026f5787850151600019600388901b60f8161c191681555b5050505050600190811b01905550565b611a34806200028f6000396000f3fe608060405234801561001057600080fd5b50600436106101a95760003560e01c806370a08231116100f9578063b7caec8711610097578063c12290d211610071578063c12290d2146103df578063c87b56dd146103f2578063e985e9c514610405578063f2fde38b1461044157600080fd5b8063b7caec87146103a6578063b88d4fde146103b9578063bdca14cf146103cc57600080fd5b80638da5cb5b116100d35780638da5cb5b14610367578063916b9bef1461037857806395d89b411461038b578063a22cb4651461039357600080fd5b806370a0823114610329578063715018a61461033c57806382afd23b1461034457600080fd5b80633355594a1161016657806342842e0e1161014057806342842e0e146102c757806342966c68146102da5780634814f035146102ed5780636352211e1461031657600080fd5b80633355594a1461025157806334566cdf1461027f57806339f920ab146102b457600080fd5b806301ffc9a7146101ae57806306fdde03146101d6578063081812fc146101eb578063095ea7b31461021657806309df30ec1461022b57806323b872dd1461023e575b600080fd5b6101c16101bc366004611560565b610454565b60405190151581526020015b60405180910390f35b6101de6104a6565b6040516101cd91906115cd565b6101fe6101f93660046115e0565b610538565b6040516001600160a01b0390911681526020016101cd565b610229610224366004611615565b61055f565b005b6102296102393660046115e0565b610679565b61022961024c36600461163f565b61069c565b61027161025f3660046115e0565b6000908152600a602052604090205490565b6040519081526020016101cd565b6102a261028d3660046115e0565b60009081526008602052604090205460ff1690565b60405160ff90911681526020016101cd565b6101c16102c236600461167b565b6106cd565b6102296102d536600461163f565b61070c565b6102296102e83660046115e0565b610727565b6102716102fb36600461167b565b6001600160a01b03166000908152600b602052604090205490565b6101fe6103243660046115e0565b610778565b61027161033736600461167b565b6107d8565b61022961085e565b6101c16103523660046115e0565b60009081526009602052604090205460ff1690565b6006546001600160a01b03166101fe565b6102296103863660046115e0565b610872565b6101de610892565b6102296103a1366004611696565b6108a1565b6102a26103b436600461167b565b6108b0565b6102296103c73660046116e8565b6108d2565b6102296103da3660046117d5565b61090a565b6102296103ed366004611801565b61097f565b6101de6104003660046115e0565b610a9e565b6101c161041336600461182d565b6001600160a01b03918216600090815260056020908152604080832093909416825291909152205460ff1690565b61022961044f36600461167b565b610b12565b60006001600160e01b031982166380ac58cd60e01b148061048557506001600160e01b03198216635b5e139f60e01b145b806104a057506301ffc9a760e01b6001600160e01b03198316145b92915050565b6060600080546104b590611857565b80601f01602080910402602001604051908101604052809291908181526020018280546104e190611857565b801561052e5780601f106105035761010080835404028352916020019161052e565b820191906000526020600020905b81548152906001019060200180831161051157829003601f168201915b5050505050905090565b600061054382610b91565b506000908152600460205260409020546001600160a01b031690565b600061056a82610778565b9050806001600160a01b0316836001600160a01b0316036105dc5760405162461bcd60e51b815260206004820152602160248201527f4552433732313a20617070726f76616c20746f2063757272656e74206f776e656044820152603960f91b60648201526084015b60405180910390fd5b336001600160a01b03821614806105f857506105f88133610413565b61066a5760405162461bcd60e51b815260206004820152603d60248201527f4552433732313a20617070726f76652063616c6c6572206973206e6f7420746f60448201527f6b656e206f776e6572206f7220617070726f76656420666f7220616c6c00000060648201526084016105d3565b6106748383610bf0565b505050565b610681610c5e565b6000908152600960205260409020805460ff19166001179055565b6106a63382610cb8565b6106c25760405162461bcd60e51b81526004016105d390611891565b610674838383610d37565b6000600960006106f2846001600160a01b03166000908152600b602052604090205490565b815260208101919091526040016000205460ff1692915050565b610674838383604051806020016040528060008152506108d2565b3361073182610778565b6001600160a01b03161461076c5760405162461bcd60e51b81526020600482015260026024820152614e4f60f01b60448201526064016105d3565b61077581610ea8565b50565b6000818152600260205260408120546001600160a01b0316806104a05760405162461bcd60e51b8152602060048201526018602482015277115490cdcc8c4e881a5b9d985b1a59081d1bdad95b88125160421b60448201526064016105d3565b60006001600160a01b0382166108425760405162461bcd60e51b815260206004820152602960248201527f4552433732313a2061646472657373207a65726f206973206e6f7420612076616044820152683634b21037bbb732b960b91b60648201526084016105d3565b506001600160a01b031660009081526003602052604090205490565b610866610c5e565b6108706000610eb1565b565b61087a610c5e565b6000908152600960205260409020805460ff19169055565b6060600180546104b590611857565b6108ac338383610f03565b5050565b6001600160a01b0381166000908152600b60205260408120546104a09061028d565b6108dc3383610cb8565b6108f85760405162461bcd60e51b81526004016105d390611891565b61090484848484610fd1565b50505050565b610912610c5e565b8060018160ff161015801561092b575060038160ff1611155b61095c5760405162461bcd60e51b8152602060048201526002602482015261125560f21b60448201526064016105d3565b50600091825260086020526040909120805460ff191660ff909216919091179055565b610987610c5e565b8160018160ff16101580156109a0575060038160ff1611155b6109d15760405162461bcd60e51b8152602060048201526002602482015261125560f21b60448201526064016105d3565b6001600160a01b0384166000908152600b602052604090205415610a205760405162461bcd60e51b81526004016105d3906020808252600490820152635354414560e01b604082015260600190565b6000610a2b60075490565b9050610a3b600780546001019055565b60008181526009602090815260408083208054600160ff199182161790915560088352818420805490911660ff8916179055600a82528083208690556001600160a01b0388168352600b9091529020819055610a978582611004565b5050505050565b6060610aa982610b91565b6000610ac060408051602081019091526000815290565b90506000815111610ae05760405180602001604052806000815250610b0b565b80610aea8461101e565b604051602001610afb9291906118de565b6040516020818303038152906040525b9392505050565b610b1a610c5e565b6001600160a01b038116610b7f5760405162461bcd60e51b815260206004820152602660248201527f4f776e61626c653a206e6577206f776e657220697320746865207a65726f206160448201526564647265737360d01b60648201526084016105d3565b61077581610eb1565b80546001019055565b6000818152600260205260409020546001600160a01b03166107755760405162461bcd60e51b8152602060048201526018602482015277115490cdcc8c4e881a5b9d985b1a59081d1bdad95b88125160421b60448201526064016105d3565b600081815260046020526040902080546001600160a01b0319166001600160a01b0384169081179091558190610c2582610778565b6001600160a01b03167f8c5be1e5ebec7d5bd14f71427d1e84f3dd0314c0f7b2291e5b200ac8c7c3b92560405160405180910390a45050565b6006546001600160a01b031633146108705760405162461bcd60e51b815260206004820181905260248201527f4f776e61626c653a2063616c6c6572206973206e6f7420746865206f776e657260448201526064016105d3565b600080610cc483610778565b9050806001600160a01b0316846001600160a01b03161480610d0b57506001600160a01b0380821660009081526005602090815260408083209388168352929052205460ff165b80610d2f5750836001600160a01b0316610d2484610538565b6001600160a01b0316145b949350505050565b826001600160a01b0316610d4a82610778565b6001600160a01b031614610d705760405162461bcd60e51b81526004016105d39061190d565b6001600160a01b038216610dd25760405162461bcd60e51b8152602060048201526024808201527f4552433732313a207472616e7366657220746f20746865207a65726f206164646044820152637265737360e01b60648201526084016105d3565b610ddf83838360016110b1565b826001600160a01b0316610df282610778565b6001600160a01b031614610e185760405162461bcd60e51b81526004016105d39061190d565b600081815260046020908152604080832080546001600160a01b03199081169091556001600160a01b0387811680865260038552838620805460001901905590871680865283862080546001019055868652600290945282852080549092168417909155905184937fddf252ad1be2c89b69c2b068fc378daa952ba7f163c4a11628f55a4df523b3ef91a4505050565b61077581611102565b600680546001600160a01b038381166001600160a01b0319831681179093556040519116919082907f8be0079c531659141344cd1fd0a4f28419497f9722a3daafe3b4186f6b6457e090600090a35050565b816001600160a01b0316836001600160a01b031603610f645760405162461bcd60e51b815260206004820152601960248201527f4552433732313a20617070726f766520746f2063616c6c65720000000000000060448201526064016105d3565b6001600160a01b03838116600081815260056020908152604080832094871680845294825291829020805460ff191686151590811790915591519182527f17307eab39ab6107e8899845ad3d59bd9653f200f220920489ca2b5937696c31910160405180910390a3505050565b610fdc848484610d37565b610fe8848484846111a5565b6109045760405162461bcd60e51b81526004016105d390611952565b6108ac8282604051806020016040528060008152506112a6565b6060600061102b836112d9565b600101905060008167ffffffffffffffff81111561104b5761104b6116d2565b6040519080825280601f01601f191660200182016040528015611075576020820181803683370190505b5090508181016020015b600019016f181899199a1a9b1b9c1cb0b131b232b360811b600a86061a8153600a850494508461107f57509392505050565b6001600160a01b03841615806110ce57506001600160a01b038316155b6109045760405162461bcd60e51b815260206004820152600560248201526414d09510d560da1b60448201526064016105d3565b600061110d82610778565b905061111d8160008460016110b1565b61112682610778565b600083815260046020908152604080832080546001600160a01b03199081169091556001600160a01b0385168085526003845282852080546000190190558785526002909352818420805490911690555192935084927fddf252ad1be2c89b69c2b068fc378daa952ba7f163c4a11628f55a4df523b3ef908390a45050565b60006001600160a01b0384163b1561129b57604051630a85bd0160e11b81526001600160a01b0385169063150b7a02906111e99033908990889088906004016119a4565b6020604051808303816000875af1925050508015611224575060408051601f3d908101601f19168201909252611221918101906119e1565b60015b611281573d808015611252576040519150601f19603f3d011682016040523d82523d6000602084013e611257565b606091505b5080516000036112795760405162461bcd60e51b81526004016105d390611952565b805181602001fd5b6001600160e01b031916630a85bd0160e11b149050610d2f565b506001949350505050565b6112b083836113b1565b6112bd60008484846111a5565b6106745760405162461bcd60e51b81526004016105d390611952565b60008072184f03e93ff9f4daa797ed6e38ed64bf6a1f0160401b83106113185772184f03e93ff9f4daa797ed6e38ed64bf6a1f0160401b830492506040015b6d04ee2d6d415b85acef81000000008310611344576d04ee2d6d415b85acef8100000000830492506020015b662386f26fc10000831061136257662386f26fc10000830492506010015b6305f5e100831061137a576305f5e100830492506008015b612710831061138e57612710830492506004015b606483106113a0576064830492506002015b600a83106104a05760010192915050565b6001600160a01b0382166114075760405162461bcd60e51b815260206004820181905260248201527f4552433732313a206d696e7420746f20746865207a65726f206164647265737360448201526064016105d3565b6000818152600260205260409020546001600160a01b03161561146c5760405162461bcd60e51b815260206004820152601c60248201527f4552433732313a20746f6b656e20616c7265616479206d696e7465640000000060448201526064016105d3565b61147a6000838360016110b1565b6000818152600260205260409020546001600160a01b0316156114df5760405162461bcd60e51b815260206004820152601c60248201527f4552433732313a20746f6b656e20616c7265616479206d696e7465640000000060448201526064016105d3565b6001600160a01b038216600081815260036020908152604080832080546001019055848352600290915280822080546001600160a01b0319168417905551839291907fddf252ad1be2c89b69c2b068fc378daa952ba7f163c4a11628f55a4df523b3ef908290a45050565b6001600160e01b03198116811461077557600080fd5b60006020828403121561157257600080fd5b8135610b0b8161154a565b60005b83811015611598578181015183820152602001611580565b50506000910152565b600081518084526115b981602086016020860161157d565b601f01601f19169290920160200192915050565b602081526000610b0b60208301846115a1565b6000602082840312156115f257600080fd5b5035919050565b80356001600160a01b038116811461161057600080fd5b919050565b6000806040838503121561162857600080fd5b611631836115f9565b946020939093013593505050565b60008060006060848603121561165457600080fd5b61165d846115f9565b925061166b602085016115f9565b9150604084013590509250925092565b60006020828403121561168d57600080fd5b610b0b826115f9565b600080604083850312156116a957600080fd5b6116b2836115f9565b9150602083013580151581146116c757600080fd5b809150509250929050565b634e487b7160e01b600052604160045260246000fd5b600080600080608085870312156116fe57600080fd5b611707856115f9565b9350611715602086016115f9565b925060408501359150606085013567ffffffffffffffff8082111561173957600080fd5b818701915087601f83011261174d57600080fd5b81358181111561175f5761175f6116d2565b604051601f8201601f19908116603f01168101908382118183101715611787576117876116d2565b816040528281528a60208487010111156117a057600080fd5b82602086016020830137600060208483010152809550505050505092959194509250565b803560ff8116811461161057600080fd5b600080604083850312156117e857600080fd5b823591506117f8602084016117c4565b90509250929050565b60008060006060848603121561181657600080fd5b61181f846115f9565b925061166b602085016117c4565b6000806040838503121561184057600080fd5b611849836115f9565b91506117f8602084016115f9565b600181811c9082168061186b57607f821691505b60208210810361188b57634e487b7160e01b600052602260045260246000fd5b50919050565b6020808252602d908201527f4552433732313a2063616c6c6572206973206e6f7420746f6b656e206f776e6560408201526c1c881bdc88185c1c1c9bdd9959609a1b606082015260800190565b600083516118f081846020880161157d565b83519083019061190481836020880161157d565b01949350505050565b60208082526025908201527f4552433732313a207472616e736665722066726f6d20696e636f72726563742060408201526437bbb732b960d91b606082015260800190565b60208082526032908201527f4552433732313a207472616e7366657220746f206e6f6e20455243373231526560408201527131b2b4bb32b91034b6b83632b6b2b73a32b960711b606082015260800190565b6001600160a01b03858116825284166020820152604081018390526080606082018190526000906119d7908301846115a1565b9695505050505050565b6000602082840312156119f357600080fd5b8151610b0b8161154a56fea264697066735822122020c41a66b35513ad7a7ea87403220fb33aee9741a4bf904b412c5a8b7a0b507d64736f6c63430008110033",
					"opcodes": "PUSH1 0x80 PUSH1 0x40 MSTORE CALLVALUE DUP1 ISZERO PUSH3 0x11 JUMPI PUSH1 0x0 DUP1 REVERT JUMPDEST POP PUSH1 0x40 MLOAD DUP1 PUSH1 0x40 ADD PUSH1 0x40 MSTORE DUP1 PUSH1 0xE DUP2 MSTORE PUSH1 0x20 ADD PUSH14 0x29B7BAB62137BAB7322A37B5B2B7 PUSH1 0x91 SHL DUP2 MSTORE POP PUSH1 0x40 MLOAD DUP1 PUSH1 0x40 ADD PUSH1 0x40 MSTORE DUP1 PUSH1 0x3 DUP2 MSTORE PUSH1 0x20 ADD PUSH3 0x14D095 PUSH1 0xEA SHL DUP2 MSTORE POP DUP2 PUSH1 0x0 SWAP1 DUP2 PUSH3 0x66 SWAP2 SWAP1 PUSH3 0x1B3 JUMP JUMPDEST POP PUSH1 0x1 PUSH3 0x75 DUP3 DUP3 PUSH3 0x1B3 JUMP JUMPDEST POP POP POP PUSH3 0x92 PUSH3 0x8C PUSH3 0xAF PUSH1 0x20 SHL PUSH1 0x20 SHR JUMP JUMPDEST PUSH3 0xB3 JUMP JUMPDEST PUSH3 0xA9 PUSH1 0x7 PUSH3 0x105 PUSH1 0x20 SHL PUSH3 0xB88 OR PUSH1 0x20 SHR JUMP JUMPDEST PUSH3 0x27F JUMP JUMPDEST CALLER SWAP1 JUMP JUMPDEST PUSH1 0x6 DUP1 SLOAD PUSH1 0x1 PUSH1 0x1 PUSH1 0xA0 SHL SUB DUP4 DUP2 AND PUSH1 0x1 PUSH1 0x1 PUSH1 0xA0 SHL SUB NOT DUP4 AND DUP2 OR SWAP1 SWAP4 SSTORE PUSH1 0x40 MLOAD SWAP2 AND SWAP2 SWAP1 DUP3 SWAP1 PUSH32 0x8BE0079C531659141344CD1FD0A4F28419497F9722A3DAAFE3B4186F6B6457E0 SWAP1 PUSH1 0x0 SWAP1 LOG3 POP POP JUMP JUMPDEST DUP1 SLOAD PUSH1 0x1 ADD SWAP1 SSTORE JUMP JUMPDEST PUSH4 0x4E487B71 PUSH1 0xE0 SHL PUSH1 0x0 MSTORE PUSH1 0x41 PUSH1 0x4 MSTORE PUSH1 0x24 PUSH1 0x0 REVERT JUMPDEST PUSH1 0x1 DUP2 DUP2 SHR SWAP1 DUP3 AND DUP1 PUSH3 0x139 JUMPI PUSH1 0x7F DUP3 AND SWAP2 POP JUMPDEST PUSH1 0x20 DUP3 LT DUP2 SUB PUSH3 0x15A JUMPI PUSH4 0x4E487B71 PUSH1 0xE0 SHL PUSH1 0x0 MSTORE PUSH1 0x22 PUSH1 0x4 MSTORE PUSH1 0x24 PUSH1 0x0 REVERT JUMPDEST POP SWAP2 SWAP1 POP JUMP JUMPDEST PUSH1 0x1F DUP3 GT ISZERO PUSH3 0x1AE JUMPI PUSH1 0x0 DUP2 DUP2 MSTORE PUSH1 0x20 DUP2 KECCAK256 PUSH1 0x1F DUP6 ADD PUSH1 0x5 SHR DUP2 ADD PUSH1 0x20 DUP7 LT ISZERO PUSH3 0x189 JUMPI POP DUP1 JUMPDEST PUSH1 0x1F DUP6 ADD PUSH1 0x5 SHR DUP3 ADD SWAP2 POP JUMPDEST DUP2 DUP2 LT ISZERO PUSH3 0x1AA JUMPI DUP3 DUP2 SSTORE PUSH1 0x1 ADD PUSH3 0x195 JUMP JUMPDEST POP POP POP JUMPDEST POP POP POP JUMP JUMPDEST DUP2 MLOAD PUSH1 0x1 PUSH1 0x1 PUSH1 0x40 SHL SUB DUP2 GT ISZERO PUSH3 0x1CF JUMPI PUSH3 0x1CF PUSH3 0x10E JUMP JUMPDEST PUSH3 0x1E7 DUP2 PUSH3 0x1E0 DUP5 SLOAD PUSH3 0x124 JUMP JUMPDEST DUP5 PUSH3 0x160 JUMP JUMPDEST PUSH1 0x20 DUP1 PUSH1 0x1F DUP4 GT PUSH1 0x1 DUP2 EQ PUSH3 0x21F JUMPI PUSH1 0x0 DUP5 ISZERO PUSH3 0x206 JUMPI POP DUP6 DUP4 ADD MLOAD JUMPDEST PUSH1 0x0 NOT PUSH1 0x3 DUP7 SWAP1 SHL SHR NOT AND PUSH1 0x1 DUP6 SWAP1 SHL OR DUP6 SSTORE PUSH3 0x1AA JUMP JUMPDEST PUSH1 0x0 DUP6 DUP2 MSTORE PUSH1 0x20 DUP2 KECCAK256 PUSH1 0x1F NOT DUP7 AND SWAP2 JUMPDEST DUP3 DUP2 LT ISZERO PUSH3 0x250 JUMPI DUP9 DUP7 ADD MLOAD DUP3 SSTORE SWAP5 DUP5 ADD SWAP5 PUSH1 0x1 SWAP1 SWAP2 ADD SWAP1 DUP5 ADD PUSH3 0x22F JUMP JUMPDEST POP DUP6 DUP3 LT ISZERO PUSH3 0x26F JUMPI DUP8 DUP6 ADD MLOAD PUSH1 0x0 NOT PUSH1 0x3 DUP9 SWAP1 SHL PUSH1 0xF8 AND SHR NOT AND DUP2 SSTORE JUMPDEST POP POP POP POP POP PUSH1 0x1 SWAP1 DUP2 SHL ADD SWAP1 SSTORE POP JUMP JUMPDEST PUSH2 0x1A34 DUP1 PUSH3 0x28F PUSH1 0x0 CODECOPY PUSH1 0x0 RETURN INVALID PUSH1 0x80 PUSH1 0x40 MSTORE CALLVALUE DUP1 ISZERO PUSH2 0x10 JUMPI PUSH1 0x0 DUP1 REVERT JUMPDEST POP PUSH1 0x4 CALLDATASIZE LT PUSH2 0x1A9 JUMPI PUSH1 0x0 CALLDATALOAD PUSH1 0xE0 SHR DUP1 PUSH4 0x70A08231 GT PUSH2 0xF9 JUMPI DUP1 PUSH4 0xB7CAEC87 GT PUSH2 0x97 JUMPI DUP1 PUSH4 0xC12290D2 GT PUSH2 0x71 JUMPI DUP1 PUSH4 0xC12290D2 EQ PUSH2 0x3DF JUMPI DUP1 PUSH4 0xC87B56DD EQ PUSH2 0x3F2 JUMPI DUP1 PUSH4 0xE985E9C5 EQ PUSH2 0x405 JUMPI DUP1 PUSH4 0xF2FDE38B EQ PUSH2 0x441 JUMPI PUSH1 0x0 DUP1 REVERT JUMPDEST DUP1 PUSH4 0xB7CAEC87 EQ PUSH2 0x3A6 JUMPI DUP1 PUSH4 0xB88D4FDE EQ PUSH2 0x3B9 JUMPI DUP1 PUSH4 0xBDCA14CF EQ PUSH2 0x3CC JUMPI PUSH1 0x0 DUP1 REVERT JUMPDEST DUP1 PUSH4 0x8DA5CB5B GT PUSH2 0xD3 JUMPI DUP1 PUSH4 0x8DA5CB5B EQ PUSH2 0x367 JUMPI DUP1 PUSH4 0x916B9BEF EQ PUSH2 0x378 JUMPI DUP1 PUSH4 0x95D89B41 EQ PUSH2 0x38B JUMPI DUP1 PUSH4 0xA22CB465 EQ PUSH2 0x393 JUMPI PUSH1 0x0 DUP1 REVERT JUMPDEST DUP1 PUSH4 0x70A08231 EQ PUSH2 0x329 JUMPI DUP1 PUSH4 0x715018A6 EQ PUSH2 0x33C JUMPI DUP1 PUSH4 0x82AFD23B EQ PUSH2 0x344 JUMPI PUSH1 0x0 DUP1 REVERT JUMPDEST DUP1 PUSH4 0x3355594A GT PUSH2 0x166 JUMPI DUP1 PUSH4 0x42842E0E GT PUSH2 0x140 JUMPI DUP1 PUSH4 0x42842E0E EQ PUSH2 0x2C7 JUMPI DUP1 PUSH4 0x42966C68 EQ PUSH2 0x2DA JUMPI DUP1 PUSH4 0x4814F035 EQ PUSH2 0x2ED JUMPI DUP1 PUSH4 0x6352211E EQ PUSH2 0x316 JUMPI PUSH1 0x0 DUP1 REVERT JUMPDEST DUP1 PUSH4 0x3355594A EQ PUSH2 0x251 JUMPI DUP1 PUSH4 0x34566CDF EQ PUSH2 0x27F JUMPI DUP1 PUSH4 0x39F920AB EQ PUSH2 0x2B4 JUMPI PUSH1 0x0 DUP1 REVERT JUMPDEST DUP1 PUSH4 0x1FFC9A7 EQ PUSH2 0x1AE JUMPI DUP1 PUSH4 0x6FDDE03 EQ PUSH2 0x1D6 JUMPI DUP1 PUSH4 0x81812FC EQ PUSH2 0x1EB JUMPI DUP1 PUSH4 0x95EA7B3 EQ PUSH2 0x216 JUMPI DUP1 PUSH4 0x9DF30EC EQ PUSH2 0x22B JUMPI DUP1 PUSH4 0x23B872DD EQ PUSH2 0x23E JUMPI JUMPDEST PUSH1 0x0 DUP1 REVERT JUMPDEST PUSH2 0x1C1 PUSH2 0x1BC CALLDATASIZE PUSH1 0x4 PUSH2 0x1560 JUMP JUMPDEST PUSH2 0x454 JUMP JUMPDEST PUSH1 0x40 MLOAD SWAP1 ISZERO ISZERO DUP2 MSTORE PUSH1 0x20 ADD JUMPDEST PUSH1 0x40 MLOAD DUP1 SWAP2 SUB SWAP1 RETURN JUMPDEST PUSH2 0x1DE PUSH2 0x4A6 JUMP JUMPDEST PUSH1 0x40 MLOAD PUSH2 0x1CD SWAP2 SWAP1 PUSH2 0x15CD JUMP JUMPDEST PUSH2 0x1FE PUSH2 0x1F9 CALLDATASIZE PUSH1 0x4 PUSH2 0x15E0 JUMP JUMPDEST PUSH2 0x538 JUMP JUMPDEST PUSH1 0x40 MLOAD PUSH1 0x1 PUSH1 0x1 PUSH1 0xA0 SHL SUB SWAP1 SWAP2 AND DUP2 MSTORE PUSH1 0x20 ADD PUSH2 0x1CD JUMP JUMPDEST PUSH2 0x229 PUSH2 0x224 CALLDATASIZE PUSH1 0x4 PUSH2 0x1615 JUMP JUMPDEST PUSH2 0x55F JUMP JUMPDEST STOP JUMPDEST PUSH2 0x229 PUSH2 0x239 CALLDATASIZE PUSH1 0x4 PUSH2 0x15E0 JUMP JUMPDEST PUSH2 0x679 JUMP JUMPDEST PUSH2 0x229 PUSH2 0x24C CALLDATASIZE PUSH1 0x4 PUSH2 0x163F JUMP JUMPDEST PUSH2 0x69C JUMP JUMPDEST PUSH2 0x271 PUSH2 0x25F CALLDATASIZE PUSH1 0x4 PUSH2 0x15E0 JUMP JUMPDEST PUSH1 0x0 SWAP1 DUP2 MSTORE PUSH1 0xA PUSH1 0x20 MSTORE PUSH1 0x40 SWAP1 KECCAK256 SLOAD SWAP1 JUMP JUMPDEST PUSH1 0x40 MLOAD SWAP1 DUP2 MSTORE PUSH1 0x20 ADD PUSH2 0x1CD JUMP JUMPDEST PUSH2 0x2A2 PUSH2 0x28D CALLDATASIZE PUSH1 0x4 PUSH2 0x15E0 JUMP JUMPDEST PUSH1 0x0 SWAP1 DUP2 MSTORE PUSH1 0x8 PUSH1 0x20 MSTORE PUSH1 0x40 SWAP1 KECCAK256 SLOAD PUSH1 0xFF AND SWAP1 JUMP JUMPDEST PUSH1 0x40 MLOAD PUSH1 0xFF SWAP1 SWAP2 AND DUP2 MSTORE PUSH1 0x20 ADD PUSH2 0x1CD JUMP JUMPDEST PUSH2 0x1C1 PUSH2 0x2C2 CALLDATASIZE PUSH1 0x4 PUSH2 0x167B JUMP JUMPDEST PUSH2 0x6CD JUMP JUMPDEST PUSH2 0x229 PUSH2 0x2D5 CALLDATASIZE PUSH1 0x4 PUSH2 0x163F JUMP JUMPDEST PUSH2 0x70C JUMP JUMPDEST PUSH2 0x229 PUSH2 0x2E8 CALLDATASIZE PUSH1 0x4 PUSH2 0x15E0 JUMP JUMPDEST PUSH2 0x727 JUMP JUMPDEST PUSH2 0x271 PUSH2 0x2FB CALLDATASIZE PUSH1 0x4 PUSH2 0x167B JUMP JUMPDEST PUSH1 0x1 PUSH1 0x1 PUSH1 0xA0 SHL SUB AND PUSH1 0x0 SWAP1 DUP2 MSTORE PUSH1 0xB PUSH1 0x20 MSTORE PUSH1 0x40 SWAP1 KECCAK256 SLOAD SWAP1 JUMP JUMPDEST PUSH2 0x1FE PUSH2 0x324 CALLDATASIZE PUSH1 0x4 PUSH2 0x15E0 JUMP JUMPDEST PUSH2 0x778 JUMP JUMPDEST PUSH2 0x271 PUSH2 0x337 CALLDATASIZE PUSH1 0x4 PUSH2 0x167B JUMP JUMPDEST PUSH2 0x7D8 JUMP JUMPDEST PUSH2 0x229 PUSH2 0x85E JUMP JUMPDEST PUSH2 0x1C1 PUSH2 0x352 CALLDATASIZE PUSH1 0x4 PUSH2 0x15E0 JUMP JUMPDEST PUSH1 0x0 SWAP1 DUP2 MSTORE PUSH1 0x9 PUSH1 0x20 MSTORE PUSH1 0x40 SWAP1 KECCAK256 SLOAD PUSH1 0xFF AND SWAP1 JUMP JUMPDEST PUSH1 0x6 SLOAD PUSH1 0x1 PUSH1 0x1 PUSH1 0xA0 SHL SUB AND PUSH2 0x1FE JUMP JUMPDEST PUSH2 0x229 PUSH2 0x386 CALLDATASIZE PUSH1 0x4 PUSH2 0x15E0 JUMP JUMPDEST PUSH2 0x872 JUMP JUMPDEST PUSH2 0x1DE PUSH2 0x892 JUMP JUMPDEST PUSH2 0x229 PUSH2 0x3A1 CALLDATASIZE PUSH1 0x4 PUSH2 0x1696 JUMP JUMPDEST PUSH2 0x8A1 JUMP JUMPDEST PUSH2 0x2A2 PUSH2 0x3B4 CALLDATASIZE PUSH1 0x4 PUSH2 0x167B JUMP JUMPDEST PUSH2 0x8B0 JUMP JUMPDEST PUSH2 0x229 PUSH2 0x3C7 CALLDATASIZE PUSH1 0x4 PUSH2 0x16E8 JUMP JUMPDEST PUSH2 0x8D2 JUMP JUMPDEST PUSH2 0x229 PUSH2 0x3DA CALLDATASIZE PUSH1 0x4 PUSH2 0x17D5 JUMP JUMPDEST PUSH2 0x90A JUMP JUMPDEST PUSH2 0x229 PUSH2 0x3ED CALLDATASIZE PUSH1 0x4 PUSH2 0x1801 JUMP JUMPDEST PUSH2 0x97F JUMP JUMPDEST PUSH2 0x1DE PUSH2 0x400 CALLDATASIZE PUSH1 0x4 PUSH2 0x15E0 JUMP JUMPDEST PUSH2 0xA9E JUMP JUMPDEST PUSH2 0x1C1 PUSH2 0x413 CALLDATASIZE PUSH1 0x4 PUSH2 0x182D JUMP JUMPDEST PUSH1 0x1 PUSH1 0x1 PUSH1 0xA0 SHL SUB SWAP2 DUP3 AND PUSH1 0x0 SWAP1 DUP2 MSTORE PUSH1 0x5 PUSH1 0x20 SWAP1 DUP2 MSTORE PUSH1 0x40 DUP1 DUP4 KECCAK256 SWAP4 SWAP1 SWAP5 AND DUP3 MSTORE SWAP2 SWAP1 SWAP2 MSTORE KECCAK256 SLOAD PUSH1 0xFF AND SWAP1 JUMP JUMPDEST PUSH2 0x229 PUSH2 0x44F CALLDATASIZE PUSH1 0x4 PUSH2 0x167B JUMP JUMPDEST PUSH2 0xB12 JUMP JUMPDEST PUSH1 0x0 PUSH1 0x1 PUSH1 0x1 PUSH1 0xE0 SHL SUB NOT DUP3 AND PUSH4 0x80AC58CD PUSH1 0xE0 SHL EQ DUP1 PUSH2 0x485 JUMPI POP PUSH1 0x1 PUSH1 0x1 PUSH1 0xE0 SHL SUB NOT DUP3 AND PUSH4 0x5B5E139F PUSH1 0xE0 SHL EQ JUMPDEST DUP1 PUSH2 0x4A0 JUMPI POP PUSH4 0x1FFC9A7 PUSH1 0xE0 SHL PUSH1 0x1 PUSH1 0x1 PUSH1 0xE0 SHL SUB NOT DUP4 AND EQ JUMPDEST SWAP3 SWAP2 POP POP JUMP JUMPDEST PUSH1 0x60 PUSH1 0x0 DUP1 SLOAD PUSH2 0x4B5 SWAP1 PUSH2 0x1857 JUMP JUMPDEST DUP1 PUSH1 0x1F ADD PUSH1 0x20 DUP1 SWAP2 DIV MUL PUSH1 0x20 ADD PUSH1 0x40 MLOAD SWAP1 DUP2 ADD PUSH1 0x40 MSTORE DUP1 SWAP3 SWAP2 SWAP1 DUP2 DUP2 MSTORE PUSH1 0x20 ADD DUP3 DUP1 SLOAD PUSH2 0x4E1 SWAP1 PUSH2 0x1857 JUMP JUMPDEST DUP1 ISZERO PUSH2 0x52E JUMPI DUP1 PUSH1 0x1F LT PUSH2 0x503 JUMPI PUSH2 0x100 DUP1 DUP4 SLOAD DIV MUL DUP4 MSTORE SWAP2 PUSH1 0x20 ADD SWAP2 PUSH2 0x52E JUMP JUMPDEST DUP3 ADD SWAP2 SWAP1 PUSH1 0x0 MSTORE PUSH1 0x20 PUSH1 0x0 KECCAK256 SWAP1 JUMPDEST DUP2 SLOAD DUP2 MSTORE SWAP1 PUSH1 0x1 ADD SWAP1 PUSH1 0x20 ADD DUP1 DUP4 GT PUSH2 0x511 JUMPI DUP3 SWAP1 SUB PUSH1 0x1F AND DUP3 ADD SWAP2 JUMPDEST POP POP POP POP POP SWAP1 POP SWAP1 JUMP JUMPDEST PUSH1 0x0 PUSH2 0x543 DUP3 PUSH2 0xB91 JUMP JUMPDEST POP PUSH1 0x0 SWAP1 DUP2 MSTORE PUSH1 0x4 PUSH1 0x20 MSTORE PUSH1 0x40 SWAP1 KECCAK256 SLOAD PUSH1 0x1 PUSH1 0x1 PUSH1 0xA0 SHL SUB AND SWAP1 JUMP JUMPDEST PUSH1 0x0 PUSH2 0x56A DUP3 PUSH2 0x778 JUMP JUMPDEST SWAP1 POP DUP1 PUSH1 0x1 PUSH1 0x1 PUSH1 0xA0 SHL SUB AND DUP4 PUSH1 0x1 PUSH1 0x1 PUSH1 0xA0 SHL SUB AND SUB PUSH2 0x5DC JUMPI PUSH1 0x40 MLOAD PUSH3 0x461BCD PUSH1 0xE5 SHL DUP2 MSTORE PUSH1 0x20 PUSH1 0x4 DUP3 ADD MSTORE PUSH1 0x21 PUSH1 0x24 DUP3 ADD MSTORE PUSH32 0x4552433732313A20617070726F76616C20746F2063757272656E74206F776E65 PUSH1 0x44 DUP3 ADD MSTORE PUSH1 0x39 PUSH1 0xF9 SHL PUSH1 0x64 DUP3 ADD MSTORE PUSH1 0x84 ADD JUMPDEST PUSH1 0x40 MLOAD DUP1 SWAP2 SUB SWAP1 REVERT JUMPDEST CALLER PUSH1 0x1 PUSH1 0x1 PUSH1 0xA0 SHL SUB DUP3 AND EQ DUP1 PUSH2 0x5F8 JUMPI POP PUSH2 0x5F8 DUP2 CALLER PUSH2 0x413 JUMP JUMPDEST PUSH2 0x66A JUMPI PUSH1 0x40 MLOAD PUSH3 0x461BCD PUSH1 0xE5 SHL DUP2 MSTORE PUSH1 0x20 PUSH1 0x4 DUP3 ADD MSTORE PUSH1 0x3D PUSH1 0x24 DUP3 ADD MSTORE PUSH32 0x4552433732313A20617070726F76652063616C6C6572206973206E6F7420746F PUSH1 0x44 DUP3 ADD MSTORE PUSH32 0x6B656E206F776E6572206F7220617070726F76656420666F7220616C6C000000 PUSH1 0x64 DUP3 ADD MSTORE PUSH1 0x84 ADD PUSH2 0x5D3 JUMP JUMPDEST PUSH2 0x674 DUP4 DUP4 PUSH2 0xBF0 JUMP JUMPDEST POP POP POP JUMP JUMPDEST PUSH2 0x681 PUSH2 0xC5E JUMP JUMPDEST PUSH1 0x0 SWAP1 DUP2 MSTORE PUSH1 0x9 PUSH1 0x20 MSTORE PUSH1 0x40 SWAP1 KECCAK256 DUP1 SLOAD PUSH1 0xFF NOT AND PUSH1 0x1 OR SWAP1 SSTORE JUMP JUMPDEST PUSH2 0x6A6 CALLER DUP3 PUSH2 0xCB8 JUMP JUMPDEST PUSH2 0x6C2 JUMPI PUSH1 0x40 MLOAD PUSH3 0x461BCD PUSH1 0xE5 SHL DUP2 MSTORE PUSH1 0x4 ADD PUSH2 0x5D3 SWAP1 PUSH2 0x1891 JUMP JUMPDEST PUSH2 0x674 DUP4 DUP4 DUP4 PUSH2 0xD37 JUMP JUMPDEST PUSH1 0x0 PUSH1 0x9 PUSH1 0x0 PUSH2 0x6F2 DUP5 PUSH1 0x1 PUSH1 0x1 PUSH1 0xA0 SHL SUB AND PUSH1 0x0 SWAP1 DUP2 MSTORE PUSH1 0xB PUSH1 0x20 MSTORE PUSH1 0x40 SWAP1 KECCAK256 SLOAD SWAP1 JUMP JUMPDEST DUP2 MSTORE PUSH1 0x20 DUP2 ADD SWAP2 SWAP1 SWAP2 MSTORE PUSH1 0x40 ADD PUSH1 0x0 KECCAK256 SLOAD PUSH1 0xFF AND SWAP3 SWAP2 POP POP JUMP JUMPDEST PUSH2 0x674 DUP4 DUP4 DUP4 PUSH1 0x40 MLOAD DUP1 PUSH1 0x20 ADD PUSH1 0x40 MSTORE DUP1 PUSH1 0x0 DUP2 MSTORE POP PUSH2 0x8D2 JUMP JUMPDEST CALLER PUSH2 0x731 DUP3 PUSH2 0x778 JUMP JUMPDEST PUSH1 0x1 PUSH1 0x1 PUSH1 0xA0 SHL SUB AND EQ PUSH2 0x76C JUMPI PUSH1 0x40 MLOAD PUSH3 0x461BCD PUSH1 0xE5 SHL DUP2 MSTORE PUSH1 0x20 PUSH1 0x4 DUP3 ADD MSTORE PUSH1 0x2 PUSH1 0x24 DUP3 ADD MSTORE PUSH2 0x4E4F PUSH1 0xF0 SHL PUSH1 0x44 DUP3 ADD MSTORE PUSH1 0x64 ADD PUSH2 0x5D3 JUMP JUMPDEST PUSH2 0x775 DUP2 PUSH2 0xEA8 JUMP JUMPDEST POP JUMP JUMPDEST PUSH1 0x0 DUP2 DUP2 MSTORE PUSH1 0x2 PUSH1 0x20 MSTORE PUSH1 0x40 DUP2 KECCAK256 SLOAD PUSH1 0x1 PUSH1 0x1 PUSH1 0xA0 SHL SUB AND DUP1 PUSH2 0x4A0 JUMPI PUSH1 0x40 MLOAD PUSH3 0x461BCD PUSH1 0xE5 SHL DUP2 MSTORE PUSH1 0x20 PUSH1 0x4 DUP3 ADD MSTORE PUSH1 0x18 PUSH1 0x24 DUP3 ADD MSTORE PUSH24 0x115490CDCC8C4E881A5B9D985B1A59081D1BDAD95B881251 PUSH1 0x42 SHL PUSH1 0x44 DUP3 ADD MSTORE PUSH1 0x64 ADD PUSH2 0x5D3 JUMP JUMPDEST PUSH1 0x0 PUSH1 0x1 PUSH1 0x1 PUSH1 0xA0 SHL SUB DUP3 AND PUSH2 0x842 JUMPI PUSH1 0x40 MLOAD PUSH3 0x461BCD PUSH1 0xE5 SHL DUP2 MSTORE PUSH1 0x20 PUSH1 0x4 DUP3 ADD MSTORE PUSH1 0x29 PUSH1 0x24 DUP3 ADD MSTORE PUSH32 0x4552433732313A2061646472657373207A65726F206973206E6F742061207661 PUSH1 0x44 DUP3 ADD MSTORE PUSH9 0x3634B21037BBB732B9 PUSH1 0xB9 SHL PUSH1 0x64 DUP3 ADD MSTORE PUSH1 0x84 ADD PUSH2 0x5D3 JUMP JUMPDEST POP PUSH1 0x1 PUSH1 0x1 PUSH1 0xA0 SHL SUB AND PUSH1 0x0 SWAP1 DUP2 MSTORE PUSH1 0x3 PUSH1 0x20 MSTORE PUSH1 0x40 SWAP1 KECCAK256 SLOAD SWAP1 JUMP JUMPDEST PUSH2 0x866 PUSH2 0xC5E JUMP JUMPDEST PUSH2 0x870 PUSH1 0x0 PUSH2 0xEB1 JUMP JUMPDEST JUMP JUMPDEST PUSH2 0x87A PUSH2 0xC5E JUMP JUMPDEST PUSH1 0x0 SWAP1 DUP2 MSTORE PUSH1 0x9 PUSH1 0x20 MSTORE PUSH1 0x40 SWAP1 KECCAK256 DUP1 SLOAD PUSH1 0xFF NOT AND SWAP1 SSTORE JUMP JUMPDEST PUSH1 0x60 PUSH1 0x1 DUP1 SLOAD PUSH2 0x4B5 SWAP1 PUSH2 0x1857 JUMP JUMPDEST PUSH2 0x8AC CALLER DUP4 DUP4 PUSH2 0xF03 JUMP JUMPDEST POP POP JUMP JUMPDEST PUSH1 0x1 PUSH1 0x1 PUSH1 0xA0 SHL SUB DUP2 AND PUSH1 0x0 SWAP1 DUP2 MSTORE PUSH1 0xB PUSH1 0x20 MSTORE PUSH1 0x40 DUP2 KECCAK256 SLOAD PUSH2 0x4A0 SWAP1 PUSH2 0x28D JUMP JUMPDEST PUSH2 0x8DC CALLER DUP4 PUSH2 0xCB8 JUMP JUMPDEST PUSH2 0x8F8 JUMPI PUSH1 0x40 MLOAD PUSH3 0x461BCD PUSH1 0xE5 SHL DUP2 MSTORE PUSH1 0x4 ADD PUSH2 0x5D3 SWAP1 PUSH2 0x1891 JUMP JUMPDEST PUSH2 0x904 DUP5 DUP5 DUP5 DUP5 PUSH2 0xFD1 JUMP JUMPDEST POP POP POP POP JUMP JUMPDEST PUSH2 0x912 PUSH2 0xC5E JUMP JUMPDEST DUP1 PUSH1 0x1 DUP2 PUSH1 0xFF AND LT ISZERO DUP1 ISZERO PUSH2 0x92B JUMPI POP PUSH1 0x3 DUP2 PUSH1 0xFF AND GT ISZERO JUMPDEST PUSH2 0x95C JUMPI PUSH1 0x40 MLOAD PUSH3 0x461BCD PUSH1 0xE5 SHL DUP2 MSTORE PUSH1 0x20 PUSH1 0x4 DUP3 ADD MSTORE PUSH1 0x2 PUSH1 0x24 DUP3 ADD MSTORE PUSH2 0x1255 PUSH1 0xF2 SHL PUSH1 0x44 DUP3 ADD MSTORE PUSH1 0x64 ADD PUSH2 0x5D3 JUMP JUMPDEST POP PUSH1 0x0 SWAP2 DUP3 MSTORE PUSH1 0x8 PUSH1 0x20 MSTORE PUSH1 0x40 SWAP1 SWAP2 KECCAK256 DUP1 SLOAD PUSH1 0xFF NOT AND PUSH1 0xFF SWAP1 SWAP3 AND SWAP2 SWAP1 SWAP2 OR SWAP1 SSTORE JUMP JUMPDEST PUSH2 0x987 PUSH2 0xC5E JUMP JUMPDEST DUP2 PUSH1 0x1 DUP2 PUSH1 0xFF AND LT ISZERO DUP1 ISZERO PUSH2 0x9A0 JUMPI POP PUSH1 0x3 DUP2 PUSH1 0xFF AND GT ISZERO JUMPDEST PUSH2 0x9D1 JUMPI PUSH1 0x40 MLOAD PUSH3 0x461BCD PUSH1 0xE5 SHL DUP2 MSTORE PUSH1 0x20 PUSH1 0x4 DUP3 ADD MSTORE PUSH1 0x2 PUSH1 0x24 DUP3 ADD MSTORE PUSH2 0x1255 PUSH1 0xF2 SHL PUSH1 0x44 DUP3 ADD MSTORE PUSH1 0x64 ADD PUSH2 0x5D3 JUMP JUMPDEST PUSH1 0x1 PUSH1 0x1 PUSH1 0xA0 SHL SUB DUP5 AND PUSH1 0x0 SWAP1 DUP2 MSTORE PUSH1 0xB PUSH1 0x20 MSTORE PUSH1 0x40 SWAP1 KECCAK256 SLOAD ISZERO PUSH2 0xA20 JUMPI PUSH1 0x40 MLOAD PUSH3 0x461BCD PUSH1 0xE5 SHL DUP2 MSTORE PUSH1 0x4 ADD PUSH2 0x5D3 SWAP1 PUSH1 0x20 DUP1 DUP3 MSTORE PUSH1 0x4 SWAP1 DUP3 ADD MSTORE PUSH4 0x53544145 PUSH1 0xE0 SHL PUSH1 0x40 DUP3 ADD MSTORE PUSH1 0x60 ADD SWAP1 JUMP JUMPDEST PUSH1 0x0 PUSH2 0xA2B PUSH1 0x7 SLOAD SWAP1 JUMP JUMPDEST SWAP1 POP PUSH2 0xA3B PUSH1 0x7 DUP1 SLOAD PUSH1 0x1 ADD SWAP1 SSTORE JUMP JUMPDEST PUSH1 0x0 DUP2 DUP2 MSTORE PUSH1 0x9 PUSH1 0x20 SWAP1 DUP2 MSTORE PUSH1 0x40 DUP1 DUP4 KECCAK256 DUP1 SLOAD PUSH1 0x1 PUSH1 0xFF NOT SWAP2 DUP3 AND OR SWAP1 SWAP2 SSTORE PUSH1 0x8 DUP4 MSTORE DUP2 DUP5 KECCAK256 DUP1 SLOAD SWAP1 SWAP2 AND PUSH1 0xFF DUP10 AND OR SWAP1 SSTORE PUSH1 0xA DUP3 MSTORE DUP1 DUP4 KECCAK256 DUP7 SWAP1 SSTORE PUSH1 0x1 PUSH1 0x1 PUSH1 0xA0 SHL SUB DUP9 AND DUP4 MSTORE PUSH1 0xB SWAP1 SWAP2 MSTORE SWAP1 KECCAK256 DUP2 SWAP1 SSTORE PUSH2 0xA97 DUP6 DUP3 PUSH2 0x1004 JUMP JUMPDEST POP POP POP POP POP JUMP JUMPDEST PUSH1 0x60 PUSH2 0xAA9 DUP3 PUSH2 0xB91 JUMP JUMPDEST PUSH1 0x0 PUSH2 0xAC0 PUSH1 0x40 DUP1 MLOAD PUSH1 0x20 DUP2 ADD SWAP1 SWAP2 MSTORE PUSH1 0x0 DUP2 MSTORE SWAP1 JUMP JUMPDEST SWAP1 POP PUSH1 0x0 DUP2 MLOAD GT PUSH2 0xAE0 JUMPI PUSH1 0x40 MLOAD DUP1 PUSH1 0x20 ADD PUSH1 0x40 MSTORE DUP1 PUSH1 0x0 DUP2 MSTORE POP PUSH2 0xB0B JUMP JUMPDEST DUP1 PUSH2 0xAEA DUP5 PUSH2 0x101E JUMP JUMPDEST PUSH1 0x40 MLOAD PUSH1 0x20 ADD PUSH2 0xAFB SWAP3 SWAP2 SWAP1 PUSH2 0x18DE JUMP JUMPDEST PUSH1 0x40 MLOAD PUSH1 0x20 DUP2 DUP4 SUB SUB DUP2 MSTORE SWAP1 PUSH1 0x40 MSTORE JUMPDEST SWAP4 SWAP3 POP POP POP JUMP JUMPDEST PUSH2 0xB1A PUSH2 0xC5E JUMP JUMPDEST PUSH1 0x1 PUSH1 0x1 PUSH1 0xA0 SHL SUB DUP2 AND PUSH2 0xB7F JUMPI PUSH1 0x40 MLOAD PUSH3 0x461BCD PUSH1 0xE5 SHL DUP2 MSTORE PUSH1 0x20 PUSH1 0x4 DUP3 ADD MSTORE PUSH1 0x26 PUSH1 0x24 DUP3 ADD MSTORE PUSH32 0x4F776E61626C653A206E6577206F776E657220697320746865207A65726F2061 PUSH1 0x44 DUP3 ADD MSTORE PUSH6 0x646472657373 PUSH1 0xD0 SHL PUSH1 0x64 DUP3 ADD MSTORE PUSH1 0x84 ADD PUSH2 0x5D3 JUMP JUMPDEST PUSH2 0x775 DUP2 PUSH2 0xEB1 JUMP JUMPDEST DUP1 SLOAD PUSH1 0x1 ADD SWAP1 SSTORE JUMP JUMPDEST PUSH1 0x0 DUP2 DUP2 MSTORE PUSH1 0x2 PUSH1 0x20 MSTORE PUSH1 0x40 SWAP1 KECCAK256 SLOAD PUSH1 0x1 PUSH1 0x1 PUSH1 0xA0 SHL SUB AND PUSH2 0x775 JUMPI PUSH1 0x40 MLOAD PUSH3 0x461BCD PUSH1 0xE5 SHL DUP2 MSTORE PUSH1 0x20 PUSH1 0x4 DUP3 ADD MSTORE PUSH1 0x18 PUSH1 0x24 DUP3 ADD MSTORE PUSH24 0x115490CDCC8C4E881A5B9D985B1A59081D1BDAD95B881251 PUSH1 0x42 SHL PUSH1 0x44 DUP3 ADD MSTORE PUSH1 0x64 ADD PUSH2 0x5D3 JUMP JUMPDEST PUSH1 0x0 DUP2 DUP2 MSTORE PUSH1 0x4 PUSH1 0x20 MSTORE PUSH1 0x40 SWAP1 KECCAK256 DUP1 SLOAD PUSH1 0x1 PUSH1 0x1 PUSH1 0xA0 SHL SUB NOT AND PUSH1 0x1 PUSH1 0x1 PUSH1 0xA0 SHL SUB DUP5 AND SWAP1 DUP2 OR SWAP1 SWAP2 SSTORE DUP2 SWAP1 PUSH2 0xC25 DUP3 PUSH2 0x778 JUMP JUMPDEST PUSH1 0x1 PUSH1 0x1 PUSH1 0xA0 SHL SUB AND PUSH32 0x8C5BE1E5EBEC7D5BD14F71427D1E84F3DD0314C0F7B2291E5B200AC8C7C3B925 PUSH1 0x40 MLOAD PUSH1 0x40 MLOAD DUP1 SWAP2 SUB SWAP1 LOG4 POP POP JUMP JUMPDEST PUSH1 0x6 SLOAD PUSH1 0x1 PUSH1 0x1 PUSH1 0xA0 SHL SUB AND CALLER EQ PUSH2 0x870 JUMPI PUSH1 0x40 MLOAD PUSH3 0x461BCD PUSH1 0xE5 SHL DUP2 MSTORE PUSH1 0x20 PUSH1 0x4 DUP3 ADD DUP2 SWAP1 MSTORE PUSH1 0x24 DUP3 ADD MSTORE PUSH32 0x4F776E61626C653A2063616C6C6572206973206E6F7420746865206F776E6572 PUSH1 0x44 DUP3 ADD MSTORE PUSH1 0x64 ADD PUSH2 0x5D3 JUMP JUMPDEST PUSH1 0x0 DUP1 PUSH2 0xCC4 DUP4 PUSH2 0x778 JUMP JUMPDEST SWAP1 POP DUP1 PUSH1 0x1 PUSH1 0x1 PUSH1 0xA0 SHL SUB AND DUP5 PUSH1 0x1 PUSH1 0x1 PUSH1 0xA0 SHL SUB AND EQ DUP1 PUSH2 0xD0B JUMPI POP PUSH1 0x1 PUSH1 0x1 PUSH1 0xA0 SHL SUB DUP1 DUP3 AND PUSH1 0x0 SWAP1 DUP2 MSTORE PUSH1 0x5 PUSH1 0x20 SWAP1 DUP2 MSTORE PUSH1 0x40 DUP1 DUP4 KECCAK256 SWAP4 DUP9 AND DUP4 MSTORE SWAP3 SWAP1 MSTORE KECCAK256 SLOAD PUSH1 0xFF AND JUMPDEST DUP1 PUSH2 0xD2F JUMPI POP DUP4 PUSH1 0x1 PUSH1 0x1 PUSH1 0xA0 SHL SUB AND PUSH2 0xD24 DUP5 PUSH2 0x538 JUMP JUMPDEST PUSH1 0x1 PUSH1 0x1 PUSH1 0xA0 SHL SUB AND EQ JUMPDEST SWAP5 SWAP4 POP POP POP POP JUMP JUMPDEST DUP3 PUSH1 0x1 PUSH1 0x1 PUSH1 0xA0 SHL SUB AND PUSH2 0xD4A DUP3 PUSH2 0x778 JUMP JUMPDEST PUSH1 0x1 PUSH1 0x1 PUSH1 0xA0 SHL SUB AND EQ PUSH2 0xD70 JUMPI PUSH1 0x40 MLOAD PUSH3 0x461BCD PUSH1 0xE5 SHL DUP2 MSTORE PUSH1 0x4 ADD PUSH2 0x5D3 SWAP1 PUSH2 0x190D JUMP JUMPDEST PUSH1 0x1 PUSH1 0x1 PUSH1 0xA0 SHL SUB DUP3 AND PUSH2 0xDD2 JUMPI PUSH1 0x40 MLOAD PUSH3 0x461BCD PUSH1 0xE5 SHL DUP2 MSTORE PUSH1 0x20 PUSH1 0x4 DUP3 ADD MSTORE PUSH1 0x24 DUP1 DUP3 ADD MSTORE PUSH32 0x4552433732313A207472616E7366657220746F20746865207A65726F20616464 PUSH1 0x44 DUP3 ADD MSTORE PUSH4 0x72657373 PUSH1 0xE0 SHL PUSH1 0x64 DUP3 ADD MSTORE PUSH1 0x84 ADD PUSH2 0x5D3 JUMP JUMPDEST PUSH2 0xDDF DUP4 DUP4 DUP4 PUSH1 0x1 PUSH2 0x10B1 JUMP JUMPDEST DUP3 PUSH1 0x1 PUSH1 0x1 PUSH1 0xA0 SHL SUB AND PUSH2 0xDF2 DUP3 PUSH2 0x778 JUMP JUMPDEST PUSH1 0x1 PUSH1 0x1 PUSH1 0xA0 SHL SUB AND EQ PUSH2 0xE18 JUMPI PUSH1 0x40 MLOAD PUSH3 0x461BCD PUSH1 0xE5 SHL DUP2 MSTORE PUSH1 0x4 ADD PUSH2 0x5D3 SWAP1 PUSH2 0x190D JUMP JUMPDEST PUSH1 0x0 DUP2 DUP2 MSTORE PUSH1 0x4 PUSH1 0x20 SWAP1 DUP2 MSTORE PUSH1 0x40 DUP1 DUP4 KECCAK256 DUP1 SLOAD PUSH1 0x1 PUSH1 0x1 PUSH1 0xA0 SHL SUB NOT SWAP1 DUP2 AND SWAP1 SWAP2 SSTORE PUSH1 0x1 PUSH1 0x1 PUSH1 0xA0 SHL SUB DUP8 DUP2 AND DUP1 DUP7 MSTORE PUSH1 0x3 DUP6 MSTORE DUP4 DUP7 KECCAK256 DUP1 SLOAD PUSH1 0x0 NOT ADD SWAP1 SSTORE SWAP1 DUP8 AND DUP1 DUP7 MSTORE DUP4 DUP7 KECCAK256 DUP1 SLOAD PUSH1 0x1 ADD SWAP1 SSTORE DUP7 DUP7 MSTORE PUSH1 0x2 SWAP1 SWAP5 MSTORE DUP3 DUP6 KECCAK256 DUP1 SLOAD SWAP1 SWAP3 AND DUP5 OR SWAP1 SWAP2 SSTORE SWAP1 MLOAD DUP5 SWAP4 PUSH32 0xDDF252AD1BE2C89B69C2B068FC378DAA952BA7F163C4A11628F55A4DF523B3EF SWAP2 LOG4 POP POP POP JUMP JUMPDEST PUSH2 0x775 DUP2 PUSH2 0x1102 JUMP JUMPDEST PUSH1 0x6 DUP1 SLOAD PUSH1 0x1 PUSH1 0x1 PUSH1 0xA0 SHL SUB DUP4 DUP2 AND PUSH1 0x1 PUSH1 0x1 PUSH1 0xA0 SHL SUB NOT DUP4 AND DUP2 OR SWAP1 SWAP4 SSTORE PUSH1 0x40 MLOAD SWAP2 AND SWAP2 SWAP1 DUP3 SWAP1 PUSH32 0x8BE0079C531659141344CD1FD0A4F28419497F9722A3DAAFE3B4186F6B6457E0 SWAP1 PUSH1 0x0 SWAP1 LOG3 POP POP JUMP JUMPDEST DUP2 PUSH1 0x1 PUSH1 0x1 PUSH1 0xA0 SHL SUB AND DUP4 PUSH1 0x1 PUSH1 0x1 PUSH1 0xA0 SHL SUB AND SUB PUSH2 0xF64 JUMPI PUSH1 0x40 MLOAD PUSH3 0x461BCD PUSH1 0xE5 SHL DUP2 MSTORE PUSH1 0x20 PUSH1 0x4 DUP3 ADD MSTORE PUSH1 0x19 PUSH1 0x24 DUP3 ADD MSTORE PUSH32 0x4552433732313A20617070726F766520746F2063616C6C657200000000000000 PUSH1 0x44 DUP3 ADD MSTORE PUSH1 0x64 ADD PUSH2 0x5D3 JUMP JUMPDEST PUSH1 0x1 PUSH1 0x1 PUSH1 0xA0 SHL SUB DUP4 DUP2 AND PUSH1 0x0 DUP2 DUP2 MSTORE PUSH1 0x5 PUSH1 0x20 SWAP1 DUP2 MSTORE PUSH1 0x40 DUP1 DUP4 KECCAK256 SWAP5 DUP8 AND DUP1 DUP5 MSTORE SWAP5 DUP3 MSTORE SWAP2 DUP3 SWAP1 KECCAK256 DUP1 SLOAD PUSH1 0xFF NOT AND DUP7 ISZERO ISZERO SWAP1 DUP2 OR SWAP1 SWAP2 SSTORE SWAP2 MLOAD SWAP2 DUP3 MSTORE PUSH32 0x17307EAB39AB6107E8899845AD3D59BD9653F200F220920489CA2B5937696C31 SWAP2 ADD PUSH1 0x40 MLOAD DUP1 SWAP2 SUB SWAP1 LOG3 POP POP POP JUMP JUMPDEST PUSH2 0xFDC DUP5 DUP5 DUP5 PUSH2 0xD37 JUMP JUMPDEST PUSH2 0xFE8 DUP5 DUP5 DUP5 DUP5 PUSH2 0x11A5 JUMP JUMPDEST PUSH2 0x904 JUMPI PUSH1 0x40 MLOAD PUSH3 0x461BCD PUSH1 0xE5 SHL DUP2 MSTORE PUSH1 0x4 ADD PUSH2 0x5D3 SWAP1 PUSH2 0x1952 JUMP JUMPDEST PUSH2 0x8AC DUP3 DUP3 PUSH1 0x40 MLOAD DUP1 PUSH1 0x20 ADD PUSH1 0x40 MSTORE DUP1 PUSH1 0x0 DUP2 MSTORE POP PUSH2 0x12A6 JUMP JUMPDEST PUSH1 0x60 PUSH1 0x0 PUSH2 0x102B DUP4 PUSH2 0x12D9 JUMP JUMPDEST PUSH1 0x1 ADD SWAP1 POP PUSH1 0x0 DUP2 PUSH8 0xFFFFFFFFFFFFFFFF DUP2 GT ISZERO PUSH2 0x104B JUMPI PUSH2 0x104B PUSH2 0x16D2 JUMP JUMPDEST PUSH1 0x40 MLOAD SWAP1 DUP1 DUP3 MSTORE DUP1 PUSH1 0x1F ADD PUSH1 0x1F NOT AND PUSH1 0x20 ADD DUP3 ADD PUSH1 0x40 MSTORE DUP1 ISZERO PUSH2 0x1075 JUMPI PUSH1 0x20 DUP3 ADD DUP2 DUP1 CALLDATASIZE DUP4 CALLDATACOPY ADD SWAP1 POP JUMPDEST POP SWAP1 POP DUP2 DUP2 ADD PUSH1 0x20 ADD JUMPDEST PUSH1 0x0 NOT ADD PUSH16 0x181899199A1A9B1B9C1CB0B131B232B3 PUSH1 0x81 SHL PUSH1 0xA DUP7 MOD BYTE DUP2 MSTORE8 PUSH1 0xA DUP6 DIV SWAP5 POP DUP5 PUSH2 0x107F JUMPI POP SWAP4 SWAP3 POP POP POP JUMP JUMPDEST PUSH1 0x1 PUSH1 0x1 PUSH1 0xA0 SHL SUB DUP5 AND ISZERO DUP1 PUSH2 0x10CE JUMPI POP PUSH1 0x1 PUSH1 0x1 PUSH1 0xA0 SHL SUB DUP4 AND ISZERO JUMPDEST PUSH2 0x904 JUMPI PUSH1 0x40 MLOAD PUSH3 0x461BCD PUSH1 0xE5 SHL DUP2 MSTORE PUSH1 0x20 PUSH1 0x4 DUP3 ADD MSTORE PUSH1 0x5 PUSH1 0x24 DUP3 ADD MSTORE PUSH5 0x14D09510D5 PUSH1 0xDA SHL PUSH1 0x44 DUP3 ADD MSTORE PUSH1 0x64 ADD PUSH2 0x5D3 JUMP JUMPDEST PUSH1 0x0 PUSH2 0x110D DUP3 PUSH2 0x778 JUMP JUMPDEST SWAP1 POP PUSH2 0x111D DUP2 PUSH1 0x0 DUP5 PUSH1 0x1 PUSH2 0x10B1 JUMP JUMPDEST PUSH2 0x1126 DUP3 PUSH2 0x778 JUMP JUMPDEST PUSH1 0x0 DUP4 DUP2 MSTORE PUSH1 0x4 PUSH1 0x20 SWAP1 DUP2 MSTORE PUSH1 0x40 DUP1 DUP4 KECCAK256 DUP1 SLOAD PUSH1 0x1 PUSH1 0x1 PUSH1 0xA0 SHL SUB NOT SWAP1 DUP2 AND SWAP1 SWAP2 SSTORE PUSH1 0x1 PUSH1 0x1 PUSH1 0xA0 SHL SUB DUP6 AND DUP1 DUP6 MSTORE PUSH1 0x3 DUP5 MSTORE DUP3 DUP6 KECCAK256 DUP1 SLOAD PUSH1 0x0 NOT ADD SWAP1 SSTORE DUP8 DUP6 MSTORE PUSH1 0x2 SWAP1 SWAP4 MSTORE DUP2 DUP5 KECCAK256 DUP1 SLOAD SWAP1 SWAP2 AND SWAP1 SSTORE MLOAD SWAP3 SWAP4 POP DUP5 SWAP3 PUSH32 0xDDF252AD1BE2C89B69C2B068FC378DAA952BA7F163C4A11628F55A4DF523B3EF SWAP1 DUP4 SWAP1 LOG4 POP POP JUMP JUMPDEST PUSH1 0x0 PUSH1 0x1 PUSH1 0x1 PUSH1 0xA0 SHL SUB DUP5 AND EXTCODESIZE ISZERO PUSH2 0x129B JUMPI PUSH1 0x40 MLOAD PUSH4 0xA85BD01 PUSH1 0xE1 SHL DUP2 MSTORE PUSH1 0x1 PUSH1 0x1 PUSH1 0xA0 SHL SUB DUP6 AND SWAP1 PUSH4 0x150B7A02 SWAP1 PUSH2 0x11E9 SWAP1 CALLER SWAP1 DUP10 SWAP1 DUP9 SWAP1 DUP9 SWAP1 PUSH1 0x4 ADD PUSH2 0x19A4 JUMP JUMPDEST PUSH1 0x20 PUSH1 0x40 MLOAD DUP1 DUP4 SUB DUP2 PUSH1 0x0 DUP8 GAS CALL SWAP3 POP POP POP DUP1 ISZERO PUSH2 0x1224 JUMPI POP PUSH1 0x40 DUP1 MLOAD PUSH1 0x1F RETURNDATASIZE SWAP1 DUP2 ADD PUSH1 0x1F NOT AND DUP3 ADD SWAP1 SWAP3 MSTORE PUSH2 0x1221 SWAP2 DUP2 ADD SWAP1 PUSH2 0x19E1 JUMP JUMPDEST PUSH1 0x1 JUMPDEST PUSH2 0x1281 JUMPI RETURNDATASIZE DUP1 DUP1 ISZERO PUSH2 0x1252 JUMPI PUSH1 0x40 MLOAD SWAP2 POP PUSH1 0x1F NOT PUSH1 0x3F RETURNDATASIZE ADD AND DUP3 ADD PUSH1 0x40 MSTORE RETURNDATASIZE DUP3 MSTORE RETURNDATASIZE PUSH1 0x0 PUSH1 0x20 DUP5 ADD RETURNDATACOPY PUSH2 0x1257 JUMP JUMPDEST PUSH1 0x60 SWAP2 POP JUMPDEST POP DUP1 MLOAD PUSH1 0x0 SUB PUSH2 0x1279 JUMPI PUSH1 0x40 MLOAD PUSH3 0x461BCD PUSH1 0xE5 SHL DUP2 MSTORE PUSH1 0x4 ADD PUSH2 0x5D3 SWAP1 PUSH2 0x1952 JUMP JUMPDEST DUP1 MLOAD DUP2 PUSH1 0x20 ADD REVERT JUMPDEST PUSH1 0x1 PUSH1 0x1 PUSH1 0xE0 SHL SUB NOT AND PUSH4 0xA85BD01 PUSH1 0xE1 SHL EQ SWAP1 POP PUSH2 0xD2F JUMP JUMPDEST POP PUSH1 0x1 SWAP5 SWAP4 POP POP POP POP JUMP JUMPDEST PUSH2 0x12B0 DUP4 DUP4 PUSH2 0x13B1 JUMP JUMPDEST PUSH2 0x12BD PUSH1 0x0 DUP5 DUP5 DUP5 PUSH2 0x11A5 JUMP JUMPDEST PUSH2 0x674 JUMPI PUSH1 0x40 MLOAD PUSH3 0x461BCD PUSH1 0xE5 SHL DUP2 MSTORE PUSH1 0x4 ADD PUSH2 0x5D3 SWAP1 PUSH2 0x1952 JUMP JUMPDEST PUSH1 0x0 DUP1 PUSH19 0x184F03E93FF9F4DAA797ED6E38ED64BF6A1F01 PUSH1 0x40 SHL DUP4 LT PUSH2 0x1318 JUMPI PUSH19 0x184F03E93FF9F4DAA797ED6E38ED64BF6A1F01 PUSH1 0x40 SHL DUP4 DIV SWAP3 POP PUSH1 0x40 ADD JUMPDEST PUSH14 0x4EE2D6D415B85ACEF8100000000 DUP4 LT PUSH2 0x1344 JUMPI PUSH14 0x4EE2D6D415B85ACEF8100000000 DUP4 DIV SWAP3 POP PUSH1 0x20 ADD JUMPDEST PUSH7 0x2386F26FC10000 DUP4 LT PUSH2 0x1362 JUMPI PUSH7 0x2386F26FC10000 DUP4 DIV SWAP3 POP PUSH1 0x10 ADD JUMPDEST PUSH4 0x5F5E100 DUP4 LT PUSH2 0x137A JUMPI PUSH4 0x5F5E100 DUP4 DIV SWAP3 POP PUSH1 0x8 ADD JUMPDEST PUSH2 0x2710 DUP4 LT PUSH2 0x138E JUMPI PUSH2 0x2710 DUP4 DIV SWAP3 POP PUSH1 0x4 ADD JUMPDEST PUSH1 0x64 DUP4 LT PUSH2 0x13A0 JUMPI PUSH1 0x64 DUP4 DIV SWAP3 POP PUSH1 0x2 ADD JUMPDEST PUSH1 0xA DUP4 LT PUSH2 0x4A0 JUMPI PUSH1 0x1 ADD SWAP3 SWAP2 POP POP JUMP JUMPDEST PUSH1 0x1 PUSH1 0x1 PUSH1 0xA0 SHL SUB DUP3 AND PUSH2 0x1407 JUMPI PUSH1 0x40 MLOAD PUSH3 0x461BCD PUSH1 0xE5 SHL DUP2 MSTORE PUSH1 0x20 PUSH1 0x4 DUP3 ADD DUP2 SWAP1 MSTORE PUSH1 0x24 DUP3 ADD MSTORE PUSH32 0x4552433732313A206D696E7420746F20746865207A65726F2061646472657373 PUSH1 0x44 DUP3 ADD MSTORE PUSH1 0x64 ADD PUSH2 0x5D3 JUMP JUMPDEST PUSH1 0x0 DUP2 DUP2 MSTORE PUSH1 0x2 PUSH1 0x20 MSTORE PUSH1 0x40 SWAP1 KECCAK256 SLOAD PUSH1 0x1 PUSH1 0x1 PUSH1 0xA0 SHL SUB AND ISZERO PUSH2 0x146C JUMPI PUSH1 0x40 MLOAD PUSH3 0x461BCD PUSH1 0xE5 SHL DUP2 MSTORE PUSH1 0x20 PUSH1 0x4 DUP3 ADD MSTORE PUSH1 0x1C PUSH1 0x24 DUP3 ADD MSTORE PUSH32 0x4552433732313A20746F6B656E20616C7265616479206D696E74656400000000 PUSH1 0x44 DUP3 ADD MSTORE PUSH1 0x64 ADD PUSH2 0x5D3 JUMP JUMPDEST PUSH2 0x147A PUSH1 0x0 DUP4 DUP4 PUSH1 0x1 PUSH2 0x10B1 JUMP JUMPDEST PUSH1 0x0 DUP2 DUP2 MSTORE PUSH1 0x2 PUSH1 0x20 MSTORE PUSH1 0x40 SWAP1 KECCAK256 SLOAD PUSH1 0x1 PUSH1 0x1 PUSH1 0xA0 SHL SUB AND ISZERO PUSH2 0x14DF JUMPI PUSH1 0x40 MLOAD PUSH3 0x461BCD PUSH1 0xE5 SHL DUP2 MSTORE PUSH1 0x20 PUSH1 0x4 DUP3 ADD MSTORE PUSH1 0x1C PUSH1 0x24 DUP3 ADD MSTORE PUSH32 0x4552433732313A20746F6B656E20616C7265616479206D696E74656400000000 PUSH1 0x44 DUP3 ADD MSTORE PUSH1 0x64 ADD PUSH2 0x5D3 JUMP JUMPDEST PUSH1 0x1 PUSH1 0x1 PUSH1 0xA0 SHL SUB DUP3 AND PUSH1 0x0 DUP2 DUP2 MSTORE PUSH1 0x3 PUSH1 0x20 SWAP1 DUP2 MSTORE PUSH1 0x40 DUP1 DUP4 KECCAK256 DUP1 SLOAD PUSH1 0x1 ADD SWAP1 SSTORE DUP5 DUP4 MSTORE PUSH1 0x2 SWAP1 SWAP2 MSTORE DUP1 DUP3 KECCAK256 DUP1 SLOAD PUSH1 0x1 PUSH1 0x1 PUSH1 0xA0 SHL SUB NOT AND DUP5 OR SWAP1 SSTORE MLOAD DUP4 SWAP3 SWAP2 SWAP1 PUSH32 0xDDF252AD1BE2C89B69C2B068FC378DAA952BA7F163C4A11628F55A4DF523B3EF SWAP1 DUP3 SWAP1 LOG4 POP POP JUMP JUMPDEST PUSH1 0x1 PUSH1 0x1 PUSH1 0xE0 SHL SUB NOT DUP2 AND DUP2 EQ PUSH2 0x775 JUMPI PUSH1 0x0 DUP1 REVERT JUMPDEST PUSH1 0x0 PUSH1 0x20 DUP3 DUP5 SUB SLT ISZERO PUSH2 0x1572 JUMPI PUSH1 0x0 DUP1 REVERT JUMPDEST DUP2 CALLDATALOAD PUSH2 0xB0B DUP2 PUSH2 0x154A JUMP JUMPDEST PUSH1 0x0 JUMPDEST DUP4 DUP2 LT ISZERO PUSH2 0x1598 JUMPI DUP2 DUP2 ADD MLOAD DUP4 DUP3 ADD MSTORE PUSH1 0x20 ADD PUSH2 0x1580 JUMP JUMPDEST POP POP PUSH1 0x0 SWAP2 ADD MSTORE JUMP JUMPDEST PUSH1 0x0 DUP2 MLOAD DUP1 DUP5 MSTORE PUSH2 0x15B9 DUP2 PUSH1 0x20 DUP7 ADD PUSH1 0x20 DUP7 ADD PUSH2 0x157D JUMP JUMPDEST PUSH1 0x1F ADD PUSH1 0x1F NOT AND SWAP3 SWAP1 SWAP3 ADD PUSH1 0x20 ADD SWAP3 SWAP2 POP POP JUMP JUMPDEST PUSH1 0x20 DUP2 MSTORE PUSH1 0x0 PUSH2 0xB0B PUSH1 0x20 DUP4 ADD DUP5 PUSH2 0x15A1 JUMP JUMPDEST PUSH1 0x0 PUSH1 0x20 DUP3 DUP5 SUB SLT ISZERO PUSH2 0x15F2 JUMPI PUSH1 0x0 DUP1 REVERT JUMPDEST POP CALLDATALOAD SWAP2 SWAP1 POP JUMP JUMPDEST DUP1 CALLDATALOAD PUSH1 0x1 PUSH1 0x1 PUSH1 0xA0 SHL SUB DUP2 AND DUP2 EQ PUSH2 0x1610 JUMPI PUSH1 0x0 DUP1 REVERT JUMPDEST SWAP2 SWAP1 POP JUMP JUMPDEST PUSH1 0x0 DUP1 PUSH1 0x40 DUP4 DUP6 SUB SLT ISZERO PUSH2 0x1628 JUMPI PUSH1 0x0 DUP1 REVERT JUMPDEST PUSH2 0x1631 DUP4 PUSH2 0x15F9 JUMP JUMPDEST SWAP5 PUSH1 0x20 SWAP4 SWAP1 SWAP4 ADD CALLDATALOAD SWAP4 POP POP POP JUMP JUMPDEST PUSH1 0x0 DUP1 PUSH1 0x0 PUSH1 0x60 DUP5 DUP7 SUB SLT ISZERO PUSH2 0x1654 JUMPI PUSH1 0x0 DUP1 REVERT JUMPDEST PUSH2 0x165D DUP5 PUSH2 0x15F9 JUMP JUMPDEST SWAP3 POP PUSH2 0x166B PUSH1 0x20 DUP6 ADD PUSH2 0x15F9 JUMP JUMPDEST SWAP2 POP PUSH1 0x40 DUP5 ADD CALLDATALOAD SWAP1 POP SWAP3 POP SWAP3 POP SWAP3 JUMP JUMPDEST PUSH1 0x0 PUSH1 0x20 DUP3 DUP5 SUB SLT ISZERO PUSH2 0x168D JUMPI PUSH1 0x0 DUP1 REVERT JUMPDEST PUSH2 0xB0B DUP3 PUSH2 0x15F9 JUMP JUMPDEST PUSH1 0x0 DUP1 PUSH1 0x40 DUP4 DUP6 SUB SLT ISZERO PUSH2 0x16A9 JUMPI PUSH1 0x0 DUP1 REVERT JUMPDEST PUSH2 0x16B2 DUP4 PUSH2 0x15F9 JUMP JUMPDEST SWAP2 POP PUSH1 0x20 DUP4 ADD CALLDATALOAD DUP1 ISZERO ISZERO DUP2 EQ PUSH2 0x16C7 JUMPI PUSH1 0x0 DUP1 REVERT JUMPDEST DUP1 SWAP2 POP POP SWAP3 POP SWAP3 SWAP1 POP JUMP JUMPDEST PUSH4 0x4E487B71 PUSH1 0xE0 SHL PUSH1 0x0 MSTORE PUSH1 0x41 PUSH1 0x4 MSTORE PUSH1 0x24 PUSH1 0x0 REVERT JUMPDEST PUSH1 0x0 DUP1 PUSH1 0x0 DUP1 PUSH1 0x80 DUP6 DUP8 SUB SLT ISZERO PUSH2 0x16FE JUMPI PUSH1 0x0 DUP1 REVERT JUMPDEST PUSH2 0x1707 DUP6 PUSH2 0x15F9 JUMP JUMPDEST SWAP4 POP PUSH2 0x1715 PUSH1 0x20 DUP7 ADD PUSH2 0x15F9 JUMP JUMPDEST SWAP3 POP PUSH1 0x40 DUP6 ADD CALLDATALOAD SWAP2 POP PUSH1 0x60 DUP6 ADD CALLDATALOAD PUSH8 0xFFFFFFFFFFFFFFFF DUP1 DUP3 GT ISZERO PUSH2 0x1739 JUMPI PUSH1 0x0 DUP1 REVERT JUMPDEST DUP2 DUP8 ADD SWAP2 POP DUP8 PUSH1 0x1F DUP4 ADD SLT PUSH2 0x174D JUMPI PUSH1 0x0 DUP1 REVERT JUMPDEST DUP2 CALLDATALOAD DUP2 DUP2 GT ISZERO PUSH2 0x175F JUMPI PUSH2 0x175F PUSH2 0x16D2 JUMP JUMPDEST PUSH1 0x40 MLOAD PUSH1 0x1F DUP3 ADD PUSH1 0x1F NOT SWAP1 DUP2 AND PUSH1 0x3F ADD AND DUP2 ADD SWAP1 DUP4 DUP3 GT DUP2 DUP4 LT OR ISZERO PUSH2 0x1787 JUMPI PUSH2 0x1787 PUSH2 0x16D2 JUMP JUMPDEST DUP2 PUSH1 0x40 MSTORE DUP3 DUP2 MSTORE DUP11 PUSH1 0x20 DUP5 DUP8 ADD ADD GT ISZERO PUSH2 0x17A0 JUMPI PUSH1 0x0 DUP1 REVERT JUMPDEST DUP3 PUSH1 0x20 DUP7 ADD PUSH1 0x20 DUP4 ADD CALLDATACOPY PUSH1 0x0 PUSH1 0x20 DUP5 DUP4 ADD ADD MSTORE DUP1 SWAP6 POP POP POP POP POP POP SWAP3 SWAP6 SWAP2 SWAP5 POP SWAP3 POP JUMP JUMPDEST DUP1 CALLDATALOAD PUSH1 0xFF DUP2 AND DUP2 EQ PUSH2 0x1610 JUMPI PUSH1 0x0 DUP1 REVERT JUMPDEST PUSH1 0x0 DUP1 PUSH1 0x40 DUP4 DUP6 SUB SLT ISZERO PUSH2 0x17E8 JUMPI PUSH1 0x0 DUP1 REVERT JUMPDEST DUP3 CALLDATALOAD SWAP2 POP PUSH2 0x17F8 PUSH1 0x20 DUP5 ADD PUSH2 0x17C4 JUMP JUMPDEST SWAP1 POP SWAP3 POP SWAP3 SWAP1 POP JUMP JUMPDEST PUSH1 0x0 DUP1 PUSH1 0x0 PUSH1 0x60 DUP5 DUP7 SUB SLT ISZERO PUSH2 0x1816 JUMPI PUSH1 0x0 DUP1 REVERT JUMPDEST PUSH2 0x181F DUP5 PUSH2 0x15F9 JUMP JUMPDEST SWAP3 POP PUSH2 0x166B PUSH1 0x20 DUP6 ADD PUSH2 0x17C4 JUMP JUMPDEST PUSH1 0x0 DUP1 PUSH1 0x40 DUP4 DUP6 SUB SLT ISZERO PUSH2 0x1840 JUMPI PUSH1 0x0 DUP1 REVERT JUMPDEST PUSH2 0x1849 DUP4 PUSH2 0x15F9 JUMP JUMPDEST SWAP2 POP PUSH2 0x17F8 PUSH1 0x20 DUP5 ADD PUSH2 0x15F9 JUMP JUMPDEST PUSH1 0x1 DUP2 DUP2 SHR SWAP1 DUP3 AND DUP1 PUSH2 0x186B JUMPI PUSH1 0x7F DUP3 AND SWAP2 POP JUMPDEST PUSH1 0x20 DUP3 LT DUP2 SUB PUSH2 0x188B JUMPI PUSH4 0x4E487B71 PUSH1 0xE0 SHL PUSH1 0x0 MSTORE PUSH1 0x22 PUSH1 0x4 MSTORE PUSH1 0x24 PUSH1 0x0 REVERT JUMPDEST POP SWAP2 SWAP1 POP JUMP JUMPDEST PUSH1 0x20 DUP1 DUP3 MSTORE PUSH1 0x2D SWAP1 DUP3 ADD MSTORE PUSH32 0x4552433732313A2063616C6C6572206973206E6F7420746F6B656E206F776E65 PUSH1 0x40 DUP3 ADD MSTORE PUSH13 0x1C881BDC88185C1C1C9BDD9959 PUSH1 0x9A SHL PUSH1 0x60 DUP3 ADD MSTORE PUSH1 0x80 ADD SWAP1 JUMP JUMPDEST PUSH1 0x0 DUP4 MLOAD PUSH2 0x18F0 DUP2 DUP5 PUSH1 0x20 DUP9 ADD PUSH2 0x157D JUMP JUMPDEST DUP4 MLOAD SWAP1 DUP4 ADD SWAP1 PUSH2 0x1904 DUP2 DUP4 PUSH1 0x20 DUP9 ADD PUSH2 0x157D JUMP JUMPDEST ADD SWAP5 SWAP4 POP POP POP POP JUMP JUMPDEST PUSH1 0x20 DUP1 DUP3 MSTORE PUSH1 0x25 SWAP1 DUP3 ADD MSTORE PUSH32 0x4552433732313A207472616E736665722066726F6D20696E636F727265637420 PUSH1 0x40 DUP3 ADD MSTORE PUSH5 0x37BBB732B9 PUSH1 0xD9 SHL PUSH1 0x60 DUP3 ADD MSTORE PUSH1 0x80 ADD SWAP1 JUMP JUMPDEST PUSH1 0x20 DUP1 DUP3 MSTORE PUSH1 0x32 SWAP1 DUP3 ADD MSTORE PUSH32 0x4552433732313A207472616E7366657220746F206E6F6E204552433732315265 PUSH1 0x40 DUP3 ADD MSTORE PUSH18 0x31B2B4BB32B91034B6B83632B6B2B73A32B9 PUSH1 0x71 SHL PUSH1 0x60 DUP3 ADD MSTORE PUSH1 0x80 ADD SWAP1 JUMP JUMPDEST PUSH1 0x1 PUSH1 0x1 PUSH1 0xA0 SHL SUB DUP6 DUP2 AND DUP3 MSTORE DUP5 AND PUSH1 0x20 DUP3 ADD MSTORE PUSH1 0x40 DUP2 ADD DUP4 SWAP1 MSTORE PUSH1 0x80 PUSH1 0x60 DUP3 ADD DUP2 SWAP1 MSTORE PUSH1 0x0 SWAP1 PUSH2 0x19D7 SWAP1 DUP4 ADD DUP5 PUSH2 0x15A1 JUMP JUMPDEST SWAP7 SWAP6 POP POP POP POP POP POP JUMP JUMPDEST PUSH1 0x0 PUSH1 0x20 DUP3 DUP5 SUB SLT ISZERO PUSH2 0x19F3 JUMPI PUSH1 0x0 DUP1 REVERT JUMPDEST DUP2 MLOAD PUSH2 0xB0B DUP2 PUSH2 0x154A JUMP INVALID LOG2 PUSH5 0x6970667358 0x22 SLT KECCAK256 KECCAK256 0xC4 BYTE PUSH7 0xB35513AD7A7EA8 PUSH21 0x3220FB33AEE9741A4BF904B412C5A8B7A0B507D64 PUSH20 0x6F6C634300081100330000000000000000000000 "
				},
				"gasEstimates": {
					"creation": {
						"codeDepositCost": "1341600",
						"executionCost": "infinite",
						"totalCost": "infinite"
					},
					"external": {
						"accessTier(address)": "4818",
						"accessTier(uint256)": "2521",
						"approve(address,uint256)": "infinite",
						"balanceOf(address)": "2635",
						"burn(uint256)": "infinite",
						"deactivate(uint256)": "26736",
						"getApproved(uint256)": "4792",
						"hasActiveSBT(address)": "4852",
						"hashedIdentity(uint256)": "2484",
						"isActive(uint256)": "2529",
						"isApprovedForAll(address,address)": "infinite",
						"modifyLevel(uint256,uint8)": "26957",
						"name()": "infinite",
						"owner()": "2376",
						"ownerOf(uint256)": "2649",
						"ownerToTokenId(address)": "2626",
						"reactivate(uint256)": "26787",
						"renounceOwnership()": "infinite",
						"safeMint(address,uint8,bytes32)": "infinite",
						"safeTransferFrom(address,address,uint256)": "infinite",
						"safeTransferFrom(address,address,uint256,bytes)": "infinite",
						"setApprovalForAll(address,bool)": "26794",
						"supportsInterface(bytes4)": "534",
						"symbol()": "infinite",
						"tokenURI(uint256)": "infinite",
						"transferFrom(address,address,uint256)": "infinite",
						"transferOwnership(address)": "28446"
					},
					"internal": {
						"_beforeTokenTransfer(address,address,uint256,uint256)": "infinite",
						"_burn(uint256)": "infinite"
					}
				},
				"methodIdentifiers": {
					"accessTier(address)": "b7caec87",
					"accessTier(uint256)": "34566cdf",
					"approve(address,uint256)": "095ea7b3",
					"balanceOf(address)": "70a08231",
					"burn(uint256)": "42966c68",
					"deactivate(uint256)": "916b9bef",
					"getApproved(uint256)": "081812fc",
					"hasActiveSBT(address)": "39f920ab",
					"hashedIdentity(uint256)": "3355594a",
					"isActive(uint256)": "82afd23b",
					"isApprovedForAll(address,address)": "e985e9c5",
					"modifyLevel(uint256,uint8)": "bdca14cf",
					"name()": "06fdde03",
					"owner()": "8da5cb5b",
					"ownerOf(uint256)": "6352211e",
					"ownerToTokenId(address)": "4814f035",
					"reactivate(uint256)": "09df30ec",
					"renounceOwnership()": "715018a6",
					"safeMint(address,uint8,bytes32)": "c12290d2",
					"safeTransferFrom(address,address,uint256)": "42842e0e",
					"safeTransferFrom(address,address,uint256,bytes)": "b88d4fde",
					"setApprovalForAll(address,bool)": "a22cb465",
					"supportsInterface(bytes4)": "01ffc9a7",
					"symbol()": "95d89b41",
					"tokenURI(uint256)": "c87b56dd",
					"transferFrom(address,address,uint256)": "23b872dd",
					"transferOwnership(address)": "f2fde38b"
				}
			},
			"storageLayout": {
				"storage": [
					{
						"astId": 138,
						"contract": "contracts/SoulBoundToken.sol:SoulBoundToken",
						"label": "_name",
						"offset": 0,
						"slot": "0",
						"type": "t_string_storage"
					},
					{
						"astId": 140,
						"contract": "contracts/SoulBoundToken.sol:SoulBoundToken",
						"label": "_symbol",
						"offset": 0,
						"slot": "1",
						"type": "t_string_storage"
					},
					{
						"astId": 144,
						"contract": "contracts/SoulBoundToken.sol:SoulBoundToken",
						"label": "_owners",
						"offset": 0,
						"slot": "2",
						"type": "t_mapping(t_uint256,t_address)"
					},
					{
						"astId": 148,
						"contract": "contracts/SoulBoundToken.sol:SoulBoundToken",
						"label": "_balances",
						"offset": 0,
						"slot": "3",
						"type": "t_mapping(t_address,t_uint256)"
					},
					{
						"astId": 152,
						"contract": "contracts/SoulBoundToken.sol:SoulBoundToken",
						"label": "_tokenApprovals",
						"offset": 0,
						"slot": "4",
						"type": "t_mapping(t_uint256,t_address)"
					},
					{
						"astId": 158,
						"contract": "contracts/SoulBoundToken.sol:SoulBoundToken",
						"label": "_operatorApprovals",
						"offset": 0,
						"slot": "5",
						"type": "t_mapping(t_address,t_mapping(t_address,t_bool))"
					},
					{
						"astId": 7,
						"contract": "contracts/SoulBoundToken.sol:SoulBoundToken",
						"label": "_owner",
						"offset": 0,
						"slot": "6",
						"type": "t_address"
					},
					{
						"astId": 2739,
						"contract": "contracts/SoulBoundToken.sol:SoulBoundToken",
						"label": "_tokenIdCounter",
						"offset": 0,
						"slot": "7",
						"type": "t_struct(Counter)1576_storage"
					},
					{
						"astId": 2743,
						"contract": "contracts/SoulBoundToken.sol:SoulBoundToken",
						"label": "_accessTier",
						"offset": 0,
						"slot": "8",
						"type": "t_mapping(t_uint256,t_uint8)"
					},
					{
						"astId": 2747,
						"contract": "contracts/SoulBoundToken.sol:SoulBoundToken",
						"label": "_isActive",
						"offset": 0,
						"slot": "9",
						"type": "t_mapping(t_uint256,t_bool)"
					},
					{
						"astId": 2751,
						"contract": "contracts/SoulBoundToken.sol:SoulBoundToken",
						"label": "_hashedIdentity",
						"offset": 0,
						"slot": "10",
						"type": "t_mapping(t_uint256,t_bytes32)"
					},
					{
						"astId": 2755,
						"contract": "contracts/SoulBoundToken.sol:SoulBoundToken",
						"label": "_ownerToTokenId",
						"offset": 0,
						"slot": "11",
						"type": "t_mapping(t_address,t_uint256)"
					}
				],
				"types": {
					"t_address": {
						"encoding": "inplace",
						"label": "address",
						"numberOfBytes": "20"
					},
					"t_bool": {
						"encoding": "inplace",
						"label": "bool",
						"numberOfBytes": "1"
					},
					"t_bytes32": {
						"encoding": "inplace",
						"label": "bytes32",
						"numberOfBytes": "32"
					},
					"t_mapping(t_address,t_bool)": {
						"encoding": "mapping",
						"key": "t_address",
						"label": "mapping(address => bool)",
						"numberOfBytes": "32",
						"value": "t_bool"
					},
					"t_mapping(t_address,t_mapping(t_address,t_bool))": {
						"encoding": "mapping",
						"key": "t_address",
						"label": "mapping(address => mapping(address => bool))",
						"numberOfBytes": "32",
						"value": "t_mapping(t_address,t_bool)"
					},
					"t_mapping(t_address,t_uint256)": {
						"encoding": "mapping",
						"key": "t_address",
						"label": "mapping(address => uint256)",
						"numberOfBytes": "32",
						"value": "t_uint256"
					},
					"t_mapping(t_uint256,t_address)": {
						"encoding": "mapping",
						"key": "t_uint256",
						"label": "mapping(uint256 => address)",
						"numberOfBytes": "32",
						"value": "t_address"
					},
					"t_mapping(t_uint256,t_bool)": {
						"encoding": "mapping",
						"key": "t_uint256",
						"label": "mapping(uint256 => bool)",
						"numberOfBytes": "32",
						"value": "t_bool"
					},
					"t_mapping(t_uint256,t_bytes32)": {
						"encoding": "mapping",
						"key": "t_uint256",
						"label": "mapping(uint256 => bytes32)",
						"numberOfBytes": "32",
						"value": "t_bytes32"
					},
					"t_mapping(t_uint256,t_uint8)": {
						"encoding": "mapping",
						"key": "t_uint256",
						"label": "mapping(uint256 => uint8)",
						"numberOfBytes": "32",
						"value": "t_uint8"
					},
					"t_string_storage": {
						"encoding": "bytes",
						"label": "string",
						"numberOfBytes": "32"
					},
					"t_struct(Counter)1576_storage": {
						"encoding": "inplace",
						"label": "struct Counters.Counter",
						"members": [
							{
								"astId": 1575,
								"contract": "contracts/SoulBoundToken.sol:SoulBoundToken",
								"label": "_value",
								"offset": 0,
								"slot": "0",
								"type": "t_uint256"
							}
						],
						"numberOfBytes": "32"
					},
					"t_uint256": {
						"encoding": "inplace",
						"label": "uint256",
						"numberOfBytes": "32"
					},
					"t_uint8": {
						"encoding": "inplace",
						"label": "uint8",
						"numberOfBytes": "1"
					}
				}
			},
			"userdoc": {
				"kind": "user",
				"methods": {},
				"version": 1
			}
		}
	}
}