{
	"contracts/BondDB.sol": {
		"BondDB": {
			"abi": [
				{
					"inputs": [],
					"stateMutability": "nonpayable",
					"type": "constructor"
				},
				{
					"inputs": [
						{
							"internalType": "uint256",
							"name": "amount",
							"type": "uint256"
						},
						{
							"internalType": "address",
							"name": "token",
							"type": "address"
						}
					],
					"name": "decrementTVLByToken",
					"outputs": [],
					"stateMutability": "nonpayable",
					"type": "function"
				},
				{
					"inputs": [
						{
							"internalType": "address",
							"name": "company",
							"type": "address"
						},
						{
							"internalType": "address",
							"name": "token",
							"type": "address"
						}
					],
					"name": "fundsRaisedByCompanyAndToken",
					"outputs": [
						{
							"internalType": "uint256",
							"name": "",
							"type": "uint256"
						}
					],
					"stateMutability": "view",
					"type": "function"
				},
				{
					"inputs": [
						{
							"internalType": "address",
							"name": "company",
							"type": "address"
						},
						{
							"internalType": "address",
							"name": "token",
							"type": "address"
						},
						{
							"internalType": "uint256",
							"name": "category",
							"type": "uint256"
						}
					],
					"name": "fundsRaisedByCompanyAndTokenAndCategory",
					"outputs": [
						{
							"internalType": "uint256",
							"name": "",
							"type": "uint256"
						}
					],
					"stateMutability": "view",
					"type": "function"
				},
				{
					"inputs": [
						{
							"internalType": "address",
							"name": "token",
							"type": "address"
						}
					],
					"name": "fundsRaisedByToken",
					"outputs": [
						{
							"internalType": "uint256",
							"name": "",
							"type": "uint256"
						}
					],
					"stateMutability": "view",
					"type": "function"
				},
				{
					"inputs": [
						{
							"internalType": "address",
							"name": "token",
							"type": "address"
						},
						{
							"internalType": "uint256",
							"name": "category",
							"type": "uint256"
						}
					],
					"name": "fundsRaisedByTokenAndCategory",
					"outputs": [
						{
							"internalType": "uint256",
							"name": "",
							"type": "uint256"
						}
					],
					"stateMutability": "view",
					"type": "function"
				},
				{
					"inputs": [
						{
							"internalType": "uint256",
							"name": "amount",
							"type": "uint256"
						},
						{
							"internalType": "address",
							"name": "company",
							"type": "address"
						},
						{
							"internalType": "address",
							"name": "token",
							"type": "address"
						}
					],
					"name": "incrementFundsRaisedByCompanyAndToken",
					"outputs": [],
					"stateMutability": "nonpayable",
					"type": "function"
				},
				{
					"inputs": [
						{
							"internalType": "uint256",
							"name": "amount",
							"type": "uint256"
						},
						{
							"internalType": "address",
							"name": "company",
							"type": "address"
						},
						{
							"internalType": "address",
							"name": "token",
							"type": "address"
						},
						{
							"internalType": "uint256",
							"name": "category",
							"type": "uint256"
						}
					],
					"name": "incrementFundsRaisedByCompanyAndTokenAndCategory",
					"outputs": [],
					"stateMutability": "nonpayable",
					"type": "function"
				},
				{
					"inputs": [
						{
							"internalType": "uint256",
							"name": "amount",
							"type": "uint256"
						},
						{
							"internalType": "address",
							"name": "token",
							"type": "address"
						}
					],
					"name": "incrementFundsRaisedByToken",
					"outputs": [],
					"stateMutability": "nonpayable",
					"type": "function"
				},
				{
					"inputs": [
						{
							"internalType": "uint256",
							"name": "amount",
							"type": "uint256"
						},
						{
							"internalType": "address",
							"name": "token",
							"type": "address"
						},
						{
							"internalType": "uint256",
							"name": "category",
							"type": "uint256"
						}
					],
					"name": "incrementFundsRaisedByTokenAndCategory",
					"outputs": [],
					"stateMutability": "nonpayable",
					"type": "function"
				},
				{
					"inputs": [
						{
							"internalType": "uint256",
							"name": "category",
							"type": "uint256"
						}
					],
					"name": "incrementNumberOfIssuedBondsByCategory",
					"outputs": [],
					"stateMutability": "nonpayable",
					"type": "function"
				},
				{
					"inputs": [
						{
							"internalType": "address",
							"name": "company",
							"type": "address"
						},
						{
							"internalType": "uint256",
							"name": "category",
							"type": "uint256"
						}
					],
					"name": "incrementNumberOfIssuedBondsByCompanyAndCategory",
					"outputs": [],
					"stateMutability": "nonpayable",
					"type": "function"
				},
				{
					"inputs": [
						{
							"internalType": "address",
							"name": "company",
							"type": "address"
						}
					],
					"name": "incrementNumberOfTimesDefaultedByCompany",
					"outputs": [],
					"stateMutability": "nonpayable",
					"type": "function"
				},
				{
					"inputs": [
						{
							"internalType": "address",
							"name": "company",
							"type": "address"
						},
						{
							"internalType": "uint256",
							"name": "category",
							"type": "uint256"
						}
					],
					"name": "incrementNumberOfTimesDefaultedByCompanyAndCategory",
					"outputs": [],
					"stateMutability": "nonpayable",
					"type": "function"
				},
				{
					"inputs": [
						{
							"internalType": "uint256",
							"name": "amount",
							"type": "uint256"
						},
						{
							"internalType": "address",
							"name": "token",
							"type": "address"
						}
					],
					"name": "incrementTVLByToken",
					"outputs": [],
					"stateMutability": "nonpayable",
					"type": "function"
				},
				{
					"inputs": [
						{
							"internalType": "address",
							"name": "account",
							"type": "address"
						}
					],
					"name": "isFactory",
					"outputs": [
						{
							"internalType": "bool",
							"name": "",
							"type": "bool"
						}
					],
					"stateMutability": "view",
					"type": "function"
				},
				{
					"inputs": [
						{
							"internalType": "address",
							"name": "account",
							"type": "address"
						}
					],
					"name": "isPeriphery",
					"outputs": [
						{
							"internalType": "bool",
							"name": "",
							"type": "bool"
						}
					],
					"stateMutability": "view",
					"type": "function"
				},
				{
					"inputs": [
						{
							"internalType": "uint256",
							"name": "category",
							"type": "uint256"
						}
					],
					"name": "numberOfIssuedBondsByCategory",
					"outputs": [
						{
							"internalType": "uint256",
							"name": "",
							"type": "uint256"
						}
					],
					"stateMutability": "view",
					"type": "function"
				},
				{
					"inputs": [
						{
							"internalType": "address",
							"name": "company",
							"type": "address"
						},
						{
							"internalType": "uint256",
							"name": "category",
							"type": "uint256"
						}
					],
					"name": "numberOfIssuedBondsByCompanyAndCategory",
					"outputs": [
						{
							"internalType": "uint256",
							"name": "",
							"type": "uint256"
						}
					],
					"stateMutability": "view",
					"type": "function"
				},
				{
					"inputs": [
						{
							"internalType": "address",
							"name": "company",
							"type": "address"
						}
					],
					"name": "numberOfTimesDefaultedByCompany",
					"outputs": [
						{
							"internalType": "uint256",
							"name": "",
							"type": "uint256"
						}
					],
					"stateMutability": "view",
					"type": "function"
				},
				{
					"inputs": [
						{
							"internalType": "address",
							"name": "company",
							"type": "address"
						},
						{
							"internalType": "uint256",
							"name": "category",
							"type": "uint256"
						}
					],
					"name": "numberOfTimesDefaultedByCompanyAndCategory",
					"outputs": [
						{
							"internalType": "uint256",
							"name": "",
							"type": "uint256"
						}
					],
					"stateMutability": "view",
					"type": "function"
				},
				{
					"inputs": [],
					"name": "owner",
					"outputs": [
						{
							"internalType": "address",
							"name": "",
							"type": "address"
						}
					],
					"stateMutability": "view",
					"type": "function"
				},
				{
					"inputs": [
						{
							"internalType": "address",
							"name": "factory",
							"type": "address"
						}
					],
					"name": "registerFactory",
					"outputs": [],
					"stateMutability": "nonpayable",
					"type": "function"
				},
				{
					"inputs": [
						{
							"internalType": "address[]",
							"name": "peripheries",
							"type": "address[]"
						}
					],
					"name": "registerPeriphery",
					"outputs": [],
					"stateMutability": "nonpayable",
					"type": "function"
				},
				{
					"inputs": [
						{
							"internalType": "address",
							"name": "token",
							"type": "address"
						}
					],
					"name": "tvlByToken",
					"outputs": [
						{
							"internalType": "uint256",
							"name": "",
							"type": "uint256"
						}
					],
					"stateMutability": "view",
					"type": "function"
				}
			],
			"devdoc": {
				"kind": "dev",
				"methods": {},
				"version": 1
			},
			"evm": {
				"assembly": "    /* \"contracts/BondDB.sol\":805:6823  contract BondDB is IBondDB {... */\n  mstore(0x40, 0xa0)\n    /* \"contracts/BondDB.sol\":1655:1705  constructor() {... */\n  callvalue\n  dup1\n  iszero\n  tag_1\n  jumpi\n  0x00\n  dup1\n  revert\ntag_1:\n  pop\n    /* \"contracts/BondDB.sol\":1688:1698  msg.sender */\n  caller\n    /* \"contracts/BondDB.sol\":1679:1698  _owner = msg.sender */\n  0x80\n  mstore\n    /* \"contracts/BondDB.sol\":805:6823  contract BondDB is IBondDB {... */\n  mload(0x80)\n  codecopy(0x00, dataOffset(sub_0), dataSize(sub_0))\n  0x00\n  assignImmutable(\"0x52f1a9b320cab38e5da8a8f97989383aab0a49165fc91c737310e4f7e9821021\")\n  return(0x00, dataSize(sub_0))\nstop\n\nsub_0: assembly {\n        /* \"contracts/BondDB.sol\":805:6823  contract BondDB is IBondDB {... */\n      mstore(0x40, 0x80)\n      callvalue\n      dup1\n      iszero\n      tag_1\n      jumpi\n      0x00\n      dup1\n      revert\n    tag_1:\n      pop\n      jumpi(tag_2, lt(calldatasize, 0x04))\n      shr(0xe0, calldataload(0x00))\n      dup1\n      0x94fb7881\n      gt\n      tag_27\n      jumpi\n      dup1\n      0xbcae6824\n      gt\n      tag_28\n      jumpi\n      dup1\n      0xbcae6824\n      eq\n      tag_21\n      jumpi\n      dup1\n      0xbea75cf4\n      eq\n      tag_22\n      jumpi\n      dup1\n      0xd050a7c8\n      eq\n      tag_23\n      jumpi\n      dup1\n      0xdaa30298\n      eq\n      tag_24\n      jumpi\n      dup1\n      0xdae382d6\n      eq\n      tag_25\n      jumpi\n      dup1\n      0xe4cdc1ad\n      eq\n      tag_26\n      jumpi\n      0x00\n      dup1\n      revert\n    tag_28:\n      dup1\n      0x94fb7881\n      eq\n      tag_15\n      jumpi\n      dup1\n      0xb0b4dfaa\n      eq\n      tag_16\n      jumpi\n      dup1\n      0xb54cb165\n      eq\n      tag_17\n      jumpi\n      dup1\n      0xb8c2e4f3\n      eq\n      tag_18\n      jumpi\n      dup1\n      0xba6b8973\n      eq\n      tag_19\n      jumpi\n      dup1\n      0xbabeac63\n      eq\n      tag_20\n      jumpi\n      0x00\n      dup1\n      revert\n    tag_27:\n      dup1\n      0x7db79a3d\n      gt\n      tag_29\n      jumpi\n      dup1\n      0x7db79a3d\n      eq\n      tag_9\n      jumpi\n      dup1\n      0x7edd4d4d\n      eq\n      tag_10\n      jumpi\n      dup1\n      0x8052ce11\n      eq\n      tag_11\n      jumpi\n      dup1\n      0x83883fe3\n      eq\n      tag_12\n      jumpi\n      dup1\n      0x8da5cb5b\n      eq\n      tag_13\n      jumpi\n      dup1\n      0x8fcfa775\n      eq\n      tag_14\n      jumpi\n      0x00\n      dup1\n      revert\n    tag_29:\n      dup1\n      0x0f04ba67\n      eq\n      tag_3\n      jumpi\n      dup1\n      0x36721cd4\n      eq\n      tag_4\n      jumpi\n      dup1\n      0x576ff163\n      eq\n      tag_5\n      jumpi\n      dup1\n      0x59ed43e2\n      eq\n      tag_6\n      jumpi\n      dup1\n      0x783ff1f1\n      eq\n      tag_7\n      jumpi\n      dup1\n      0x7c1edb9d\n      eq\n      tag_8\n      jumpi\n    tag_2:\n      0x00\n      dup1\n      revert\n        /* \"contracts/BondDB.sol\":4988:5096  function isFactory(address account) external view returns (bool) {... */\n    tag_3:\n      tag_30\n      tag_31\n      calldatasize\n      0x04\n      tag_32\n      jump\t// in\n    tag_31:\n      sub(shl(0xa0, 0x01), 0x01)\n        /* \"contracts/BondDB.sol\":5070:5089  _isFactory[account] */\n      and\n        /* \"contracts/BondDB.sol\":5047:5051  bool */\n      0x00\n        /* \"contracts/BondDB.sol\":5070:5089  _isFactory[account] */\n      swap1\n      dup2\n      mstore\n        /* \"contracts/BondDB.sol\":5070:5080  _isFactory */\n      0x01\n        /* \"contracts/BondDB.sol\":5070:5089  _isFactory[account] */\n      0x20\n      mstore\n      0x40\n      swap1\n      keccak256\n      sload\n      0xff\n      and\n      swap1\n        /* \"contracts/BondDB.sol\":4988:5096  function isFactory(address account) external view returns (bool) {... */\n      jump\n    tag_30:\n      mload(0x40)\n        /* \"#utility.yul\":548:562   */\n      swap1\n      iszero\n        /* \"#utility.yul\":541:563   */\n      iszero\n        /* \"#utility.yul\":523:564   */\n      dup2\n      mstore\n        /* \"#utility.yul\":511:513   */\n      0x20\n        /* \"#utility.yul\":496:514   */\n      add\n        /* \"contracts/BondDB.sol\":4988:5096  function isFactory(address account) external view returns (bool) {... */\n    tag_34:\n      mload(0x40)\n      dup1\n      swap2\n      sub\n      swap1\n      return\n        /* \"contracts/BondDB.sol\":5102:5227  function fundsRaisedByToken(address token) external view returns (uint256) {... */\n    tag_4:\n      tag_36\n      tag_37\n      calldatasize\n      0x04\n      tag_32\n      jump\t// in\n    tag_37:\n      sub(shl(0xa0, 0x01), 0x01)\n        /* \"contracts/BondDB.sol\":5194:5220  _fundsRaisedByToken[token] */\n      and\n        /* \"contracts/BondDB.sol\":5168:5175  uint256 */\n      0x00\n        /* \"contracts/BondDB.sol\":5194:5220  _fundsRaisedByToken[token] */\n      swap1\n      dup2\n      mstore\n        /* \"contracts/BondDB.sol\":5194:5213  _fundsRaisedByToken */\n      0x02\n        /* \"contracts/BondDB.sol\":5194:5220  _fundsRaisedByToken[token] */\n      0x20\n      mstore\n      0x40\n      swap1\n      keccak256\n      sload\n      swap1\n        /* \"contracts/BondDB.sol\":5102:5227  function fundsRaisedByToken(address token) external view returns (uint256) {... */\n      jump\n    tag_36:\n      mload(0x40)\n        /* \"#utility.yul\":721:746   */\n      swap1\n      dup2\n      mstore\n        /* \"#utility.yul\":709:711   */\n      0x20\n        /* \"#utility.yul\":694:712   */\n      add\n        /* \"contracts/BondDB.sol\":5102:5227  function fundsRaisedByToken(address token) external view returns (uint256) {... */\n      tag_34\n        /* \"#utility.yul\":575:752   */\n      jump\n        /* \"contracts/BondDB.sol\":2101:2331  function incrementFundsRaisedByToken(... */\n    tag_5:\n      tag_41\n      tag_42\n      calldatasize\n      0x04\n      tag_43\n      jump\t// in\n    tag_42:\n      tag_44\n      jump\t// in\n    tag_41:\n      stop\n        /* \"contracts/BondDB.sol\":6479:6706  function numberOfTimesDefaultedByCompanyAndCategory(... */\n    tag_6:\n      tag_36\n      tag_46\n      calldatasize\n      0x04\n      tag_47\n      jump\t// in\n    tag_46:\n      tag_48\n      jump\t// in\n        /* \"contracts/BondDB.sol\":1951:2095  function registerFactory(address factory) external {... */\n    tag_7:\n      tag_41\n      tag_51\n      calldatasize\n      0x04\n      tag_32\n      jump\t// in\n    tag_51:\n      tag_52\n      jump\t// in\n        /* \"contracts/BondDB.sol\":5233:5430  function fundsRaisedByTokenAndCategory(... */\n    tag_8:\n      tag_36\n      tag_54\n      calldatasize\n      0x04\n      tag_47\n      jump\t// in\n    tag_54:\n      sub(shl(0xa0, 0x01), 0x01)\n        /* \"contracts/BondDB.sol\":5376:5413  _fundsRaisedByTokenAndCategory[token] */\n      swap2\n      swap1\n      swap2\n      and\n        /* \"contracts/BondDB.sol\":5350:5357  uint256 */\n      0x00\n        /* \"contracts/BondDB.sol\":5376:5413  _fundsRaisedByTokenAndCategory[token] */\n      swap1\n      dup2\n      mstore\n        /* \"contracts/BondDB.sol\":5376:5406  _fundsRaisedByTokenAndCategory */\n      0x03\n        /* \"contracts/BondDB.sol\":5376:5413  _fundsRaisedByTokenAndCategory[token] */\n      0x20\n      swap1\n      dup2\n      mstore\n      0x40\n      dup1\n      dup4\n      keccak256\n        /* \"contracts/BondDB.sol\":5376:5423  _fundsRaisedByTokenAndCategory[token][category] */\n      swap4\n      dup4\n      mstore\n      swap3\n      swap1\n      mstore\n      keccak256\n      sload\n      swap1\n        /* \"contracts/BondDB.sol\":5233:5430  function fundsRaisedByTokenAndCategory(... */\n      jump\n        /* \"contracts/BondDB.sol\":2921:3285  function incrementFundsRaisedByCompanyAndTokenAndCategory(... */\n    tag_9:\n      tag_41\n      tag_58\n      calldatasize\n      0x04\n      tag_59\n      jump\t// in\n    tag_58:\n      tag_60\n      jump\t// in\n        /* \"contracts/BondDB.sol\":5436:5629  function fundsRaisedByCompanyAndToken(... */\n    tag_10:\n      tag_36\n      tag_62\n      calldatasize\n      0x04\n      tag_63\n      jump\t// in\n    tag_62:\n      sub(shl(0xa0, 0x01), 0x01)\n        /* \"contracts/BondDB.sol\":5577:5615  _fundsRaisedByCompanyAndToken[company] */\n      swap2\n      dup3\n      and\n        /* \"contracts/BondDB.sol\":5551:5558  uint256 */\n      0x00\n        /* \"contracts/BondDB.sol\":5577:5615  _fundsRaisedByCompanyAndToken[company] */\n      swap1\n      dup2\n      mstore\n        /* \"contracts/BondDB.sol\":5577:5606  _fundsRaisedByCompanyAndToken */\n      0x04\n        /* \"contracts/BondDB.sol\":5577:5615  _fundsRaisedByCompanyAndToken[company] */\n      0x20\n      swap1\n      dup2\n      mstore\n      0x40\n      dup1\n      dup4\n      keccak256\n        /* \"contracts/BondDB.sol\":5577:5622  _fundsRaisedByCompanyAndToken[company][token] */\n      swap4\n      swap1\n      swap5\n      and\n      dup3\n      mstore\n      swap2\n      swap1\n      swap2\n      mstore\n      keccak256\n      sload\n      swap1\n        /* \"contracts/BondDB.sol\":5436:5629  function fundsRaisedByCompanyAndToken(... */\n      jump\n        /* \"contracts/BondDB.sol\":5904:6071  function numberOfIssuedBondsByCategory(... */\n    tag_11:\n      tag_36\n      tag_67\n      calldatasize\n      0x04\n      tag_68\n      jump\t// in\n    tag_67:\n        /* \"contracts/BondDB.sol\":5998:6005  uint256 */\n      0x00\n        /* \"contracts/BondDB.sol\":6024:6064  _numberOfIssuedBondsByCategory[category] */\n      swap1\n      dup2\n      mstore\n        /* \"contracts/BondDB.sol\":6024:6054  _numberOfIssuedBondsByCategory */\n      0x06\n        /* \"contracts/BondDB.sol\":6024:6064  _numberOfIssuedBondsByCategory[category] */\n      0x20\n      mstore\n      0x40\n      swap1\n      keccak256\n      sload\n      swap1\n        /* \"contracts/BondDB.sol\":5904:6071  function numberOfIssuedBondsByCategory(... */\n      jump\n        /* \"contracts/BondDB.sol\":4333:4525  function incrementTVLByToken(uint256 amount, address token) external {... */\n    tag_12:\n      tag_41\n      tag_72\n      calldatasize\n      0x04\n      tag_43\n      jump\t// in\n    tag_72:\n      tag_73\n      jump\t// in\n        /* \"contracts/BondDB.sol\":4785:4864  function owner() external view returns (address) {... */\n    tag_13:\n      mload(0x40)\n      sub(shl(0xa0, 0x01), 0x01)\n        /* \"contracts/BondDB.sol\":4851:4857  _owner */\n      immutable(\"0x52f1a9b320cab38e5da8a8f97989383aab0a49165fc91c737310e4f7e9821021\")\n        /* \"#utility.yul\":2291:2323   */\n      and\n        /* \"#utility.yul\":2273:2324   */\n      dup2\n      mstore\n        /* \"#utility.yul\":2261:2263   */\n      0x20\n        /* \"#utility.yul\":2246:2264   */\n      add\n        /* \"contracts/BondDB.sol\":4785:4864  function owner() external view returns (address) {... */\n      tag_34\n        /* \"#utility.yul\":2127:2330   */\n      jump\n        /* \"contracts/BondDB.sol\":4870:4982  function isPeriphery(address account) external view returns (bool) {... */\n    tag_14:\n      tag_30\n      tag_79\n      calldatasize\n      0x04\n      tag_32\n      jump\t// in\n    tag_79:\n      sub(shl(0xa0, 0x01), 0x01)\n        /* \"contracts/BondDB.sol\":4954:4975  _isPeriphery[account] */\n      and\n        /* \"contracts/BondDB.sol\":4931:4935  bool */\n      0x00\n        /* \"contracts/BondDB.sol\":4954:4975  _isPeriphery[account] */\n      swap1\n      dup2\n      mstore\n      0x20\n      dup2\n      swap1\n      mstore\n      0x40\n      swap1\n      keccak256\n      sload\n      0xff\n      and\n      swap1\n        /* \"contracts/BondDB.sol\":4870:4982  function isPeriphery(address account) external view returns (bool) {... */\n      jump\n        /* \"contracts/BondDB.sol\":6304:6473  function numberOfTimesDefaultedByCompany(... */\n    tag_15:\n      tag_36\n      tag_83\n      calldatasize\n      0x04\n      tag_32\n      jump\t// in\n    tag_83:\n      sub(shl(0xa0, 0x01), 0x01)\n        /* \"contracts/BondDB.sol\":6425:6466  _numberOfTimesDefaultedByCompany[company] */\n      and\n        /* \"contracts/BondDB.sol\":6399:6406  uint256 */\n      0x00\n        /* \"contracts/BondDB.sol\":6425:6466  _numberOfTimesDefaultedByCompany[company] */\n      swap1\n      dup2\n      mstore\n        /* \"contracts/BondDB.sol\":6425:6457  _numberOfTimesDefaultedByCompany */\n      0x08\n        /* \"contracts/BondDB.sol\":6425:6466  _numberOfTimesDefaultedByCompany[company] */\n      0x20\n      mstore\n      0x40\n      swap1\n      keccak256\n      sload\n      swap1\n        /* \"contracts/BondDB.sol\":6304:6473  function numberOfTimesDefaultedByCompany(... */\n      jump\n        /* \"contracts/BondDB.sol\":2337:2625  function incrementFundsRaisedByTokenAndCategory(... */\n    tag_16:\n      tag_41\n      tag_87\n      calldatasize\n      0x04\n      tag_88\n      jump\t// in\n    tag_87:\n      tag_89\n      jump\t// in\n        /* \"contracts/BondDB.sol\":3291:3506  function incrementNumberOfIssuedBondsByCategory(uint256 category) external {... */\n    tag_17:\n      tag_41\n      tag_91\n      calldatasize\n      0x04\n      tag_68\n      jump\t// in\n    tag_91:\n      tag_92\n      jump\t// in\n        /* \"contracts/BondDB.sol\":2631:2915  function incrementFundsRaisedByCompanyAndToken(... */\n    tag_18:\n      tag_41\n      tag_94\n      calldatasize\n      0x04\n      tag_95\n      jump\t// in\n    tag_94:\n      tag_96\n      jump\t// in\n        /* \"contracts/BondDB.sol\":6077:6298  function numberOfIssuedBondsByCompanyAndCategory(... */\n    tag_19:\n      tag_36\n      tag_98\n      calldatasize\n      0x04\n      tag_47\n      jump\t// in\n    tag_98:\n      sub(shl(0xa0, 0x01), 0x01)\n        /* \"contracts/BondDB.sol\":6232:6281  _numberOfIssuedBondsByCompanyAndCategory[company] */\n      swap2\n      swap1\n      swap2\n      and\n        /* \"contracts/BondDB.sol\":6206:6213  uint256 */\n      0x00\n        /* \"contracts/BondDB.sol\":6232:6281  _numberOfIssuedBondsByCompanyAndCategory[company] */\n      swap1\n      dup2\n      mstore\n        /* \"contracts/BondDB.sol\":6232:6272  _numberOfIssuedBondsByCompanyAndCategory */\n      0x07\n        /* \"contracts/BondDB.sol\":6232:6281  _numberOfIssuedBondsByCompanyAndCategory[company] */\n      0x20\n      swap1\n      dup2\n      mstore\n      0x40\n      dup1\n      dup4\n      keccak256\n        /* \"contracts/BondDB.sol\":6232:6291  _numberOfIssuedBondsByCompanyAndCategory[company][category] */\n      swap4\n      dup4\n      mstore\n      swap3\n      swap1\n      mstore\n      keccak256\n      sload\n      swap1\n        /* \"contracts/BondDB.sol\":6077:6298  function numberOfIssuedBondsByCompanyAndCategory(... */\n      jump\n        /* \"contracts/BondDB.sol\":6712:6821  function tvlByToken(address token) external view returns (uint256) {... */\n    tag_20:\n      tag_36\n      tag_102\n      calldatasize\n      0x04\n      tag_32\n      jump\t// in\n    tag_102:\n      sub(shl(0xa0, 0x01), 0x01)\n        /* \"contracts/BondDB.sol\":6796:6814  _tvlByToken[token] */\n      and\n        /* \"contracts/BondDB.sol\":6770:6777  uint256 */\n      0x00\n        /* \"contracts/BondDB.sol\":6796:6814  _tvlByToken[token] */\n      swap1\n      dup2\n      mstore\n        /* \"contracts/BondDB.sol\":6796:6807  _tvlByToken */\n      0x0a\n        /* \"contracts/BondDB.sol\":6796:6814  _tvlByToken[token] */\n      0x20\n      mstore\n      0x40\n      swap1\n      keccak256\n      sload\n      swap1\n        /* \"contracts/BondDB.sol\":6712:6821  function tvlByToken(address token) external view returns (uint256) {... */\n      jump\n        /* \"contracts/BondDB.sol\":4531:4779  function decrementTVLByToken(uint256 amount, address token) external {... */\n    tag_21:\n      tag_41\n      tag_106\n      calldatasize\n      0x04\n      tag_43\n      jump\t// in\n    tag_106:\n      tag_107\n      jump\t// in\n        /* \"contracts/BondDB.sol\":3512:3795  function incrementNumberOfIssuedBondsByCompanyAndCategory(... */\n    tag_22:\n      tag_41\n      tag_109\n      calldatasize\n      0x04\n      tag_47\n      jump\t// in\n    tag_109:\n      tag_110\n      jump\t// in\n        /* \"contracts/BondDB.sol\":4038:4327  function incrementNumberOfTimesDefaultedByCompanyAndCategory(... */\n    tag_23:\n      tag_41\n      tag_112\n      calldatasize\n      0x04\n      tag_47\n      jump\t// in\n    tag_112:\n      tag_113\n      jump\t// in\n        /* \"contracts/BondDB.sol\":5635:5898  function fundsRaisedByCompanyAndTokenAndCategory(... */\n    tag_24:\n      tag_36\n      tag_115\n      calldatasize\n      0x04\n      tag_116\n      jump\t// in\n    tag_115:\n      sub(shl(0xa0, 0x01), 0x01)\n        /* \"contracts/BondDB.sol\":5825:5874  _fundsRaisedByCompanyAndTokenAndCategory[company] */\n      swap3\n      dup4\n      and\n        /* \"contracts/BondDB.sol\":5787:5794  uint256 */\n      0x00\n        /* \"contracts/BondDB.sol\":5825:5874  _fundsRaisedByCompanyAndTokenAndCategory[company] */\n      swap1\n      dup2\n      mstore\n        /* \"contracts/BondDB.sol\":5825:5865  _fundsRaisedByCompanyAndTokenAndCategory */\n      0x05\n        /* \"contracts/BondDB.sol\":5825:5874  _fundsRaisedByCompanyAndTokenAndCategory[company] */\n      0x20\n      swap1\n      dup2\n      mstore\n      0x40\n      dup1\n      dup4\n      keccak256\n        /* \"contracts/BondDB.sol\":5825:5881  _fundsRaisedByCompanyAndTokenAndCategory[company][token] */\n      swap5\n      swap1\n      swap6\n      and\n      dup3\n      mstore\n      swap3\n      dup4\n      mstore\n      dup4\n      dup2\n      keccak256\n        /* \"contracts/BondDB.sol\":5825:5891  _fundsRaisedByCompanyAndTokenAndCategory[company][token][category] */\n      swap2\n      dup2\n      mstore\n      swap2\n      mstore\n      keccak256\n      sload\n      swap1\n        /* \"contracts/BondDB.sol\":5635:5898  function fundsRaisedByCompanyAndTokenAndCategory(... */\n      jump\n        /* \"contracts/BondDB.sol\":3801:4032  function incrementNumberOfTimesDefaultedByCompany(... */\n    tag_25:\n      tag_41\n      tag_120\n      calldatasize\n      0x04\n      tag_32\n      jump\t// in\n    tag_120:\n      tag_121\n      jump\t// in\n        /* \"contracts/BondDB.sol\":1711:1945  function registerPeriphery(address[] memory peripheries) external {... */\n    tag_26:\n      tag_41\n      tag_123\n      calldatasize\n      0x04\n      tag_124\n      jump\t// in\n    tag_123:\n      tag_125\n      jump\t// in\n        /* \"contracts/BondDB.sol\":2101:2331  function incrementFundsRaisedByToken(... */\n    tag_44:\n        /* \"contracts/BondDB.sol\":2229:2239  msg.sender */\n      caller\n        /* \"contracts/BondDB.sol\":2218:2240  _isFactory[msg.sender] */\n      0x00\n      swap1\n      dup2\n      mstore\n        /* \"contracts/BondDB.sol\":2218:2228  _isFactory */\n      0x01\n        /* \"contracts/BondDB.sol\":2218:2240  _isFactory[msg.sender] */\n      0x20\n      mstore\n      0x40\n      swap1\n      keccak256\n      sload\n      0xff\n      and\n      dup1\n        /* \"contracts/BondDB.sol\":2218:2268  _isFactory[msg.sender] || _isPeriphery[msg.sender] */\n      tag_129\n      jumpi\n      pop\n        /* \"contracts/BondDB.sol\":2257:2267  msg.sender */\n      caller\n        /* \"contracts/BondDB.sol\":2244:2256  _isPeriphery */\n      0x00\n        /* \"contracts/BondDB.sol\":2244:2268  _isPeriphery[msg.sender] */\n      swap1\n      dup2\n      mstore\n      0x20\n      dup2\n      swap1\n      mstore\n      0x40\n      swap1\n      keccak256\n      sload\n      0xff\n      and\n        /* \"contracts/BondDB.sol\":2218:2268  _isFactory[msg.sender] || _isPeriphery[msg.sender] */\n    tag_129:\n        /* \"contracts/BondDB.sol\":2210:2278  require(_isFactory[msg.sender] || _isPeriphery[msg.sender], \"NAPOF\") */\n      tag_130\n      jumpi\n      mload(0x40)\n      shl(0xe5, 0x461bcd)\n      dup2\n      mstore\n      0x04\n      add\n      tag_131\n      swap1\n      tag_132\n      jump\t// in\n    tag_131:\n      mload(0x40)\n      dup1\n      swap2\n      sub\n      swap1\n      revert\n    tag_130:\n      sub(shl(0xa0, 0x01), 0x01)\n        /* \"contracts/BondDB.sol\":2288:2314  _fundsRaisedByToken[token] */\n      dup2\n      and\n      0x00\n      swap1\n      dup2\n      mstore\n        /* \"contracts/BondDB.sol\":2288:2307  _fundsRaisedByToken */\n      0x02\n        /* \"contracts/BondDB.sol\":2288:2314  _fundsRaisedByToken[token] */\n      0x20\n      mstore\n      0x40\n      dup2\n      keccak256\n        /* \"contracts/BondDB.sol\":2288:2324  _fundsRaisedByToken[token] += amount */\n      dup1\n      sload\n        /* \"contracts/BondDB.sol\":2318:2324  amount */\n      dup5\n      swap3\n        /* \"contracts/BondDB.sol\":2288:2314  _fundsRaisedByToken[token] */\n      swap1\n        /* \"contracts/BondDB.sol\":2288:2324  _fundsRaisedByToken[token] += amount */\n      tag_133\n      swap1\n        /* \"contracts/BondDB.sol\":2318:2324  amount */\n      dup5\n      swap1\n        /* \"contracts/BondDB.sol\":2288:2324  _fundsRaisedByToken[token] += amount */\n      tag_134\n      jump\t// in\n    tag_133:\n      swap1\n      swap2\n      sstore\n      pop\n      pop\n      pop\n      pop\n        /* \"contracts/BondDB.sol\":2101:2331  function incrementFundsRaisedByToken(... */\n      jump\t// out\n        /* \"contracts/BondDB.sol\":6479:6706  function numberOfTimesDefaultedByCompanyAndCategory(... */\n    tag_48:\n      sub(shl(0xa0, 0x01), 0x01)\n        /* \"contracts/BondDB.sol\":6637:6689  _numberOfTimesDefaultedByCompanyAndCategory[company] */\n      dup3\n      and\n        /* \"contracts/BondDB.sol\":6611:6618  uint256 */\n      0x00\n        /* \"contracts/BondDB.sol\":6637:6689  _numberOfTimesDefaultedByCompanyAndCategory[company] */\n      swap1\n      dup2\n      mstore\n        /* \"contracts/BondDB.sol\":6637:6680  _numberOfTimesDefaultedByCompanyAndCategory */\n      0x09\n        /* \"contracts/BondDB.sol\":6637:6689  _numberOfTimesDefaultedByCompanyAndCategory[company] */\n      0x20\n      swap1\n      dup2\n      mstore\n      0x40\n      dup1\n      dup4\n      keccak256\n        /* \"contracts/BondDB.sol\":6637:6699  _numberOfTimesDefaultedByCompanyAndCategory[company][category] */\n      dup5\n      dup5\n      mstore\n      swap1\n      swap2\n      mstore\n      swap1\n      keccak256\n      sload\n        /* \"contracts/BondDB.sol\":6479:6706  function numberOfTimesDefaultedByCompanyAndCategory(... */\n    tag_135:\n      swap3\n      swap2\n      pop\n      pop\n      jump\t// out\n        /* \"contracts/BondDB.sol\":1951:2095  function registerFactory(address factory) external {... */\n    tag_52:\n        /* \"contracts/BondDB.sol\":2033:2043  msg.sender */\n      caller\n        /* \"contracts/BondDB.sol\":2020:2032  _isPeriphery */\n      0x00\n        /* \"contracts/BondDB.sol\":2020:2044  _isPeriphery[msg.sender] */\n      swap1\n      dup2\n      mstore\n      0x20\n      dup2\n      swap1\n      mstore\n      0x40\n      swap1\n      keccak256\n      sload\n      0xff\n      and\n        /* \"contracts/BondDB.sol\":2012:2052  require(_isPeriphery[msg.sender], \"NAP\") */\n      tag_137\n      jumpi\n      mload(0x40)\n      shl(0xe5, 0x461bcd)\n      dup2\n      mstore\n        /* \"#utility.yul\":5383:5385   */\n      0x20\n        /* \"contracts/BondDB.sol\":2012:2052  require(_isPeriphery[msg.sender], \"NAP\") */\n      0x04\n      dup3\n      add\n        /* \"#utility.yul\":5365:5386   */\n      mstore\n        /* \"#utility.yul\":5422:5423   */\n      0x03\n        /* \"#utility.yul\":5402:5420   */\n      0x24\n      dup3\n      add\n        /* \"#utility.yul\":5395:5424   */\n      mstore\n      shl(0xec, 0x04e415)\n        /* \"#utility.yul\":5440:5458   */\n      0x44\n      dup3\n      add\n        /* \"#utility.yul\":5433:5466   */\n      mstore\n        /* \"#utility.yul\":5483:5501   */\n      0x64\n      add\n        /* \"contracts/BondDB.sol\":2012:2052  require(_isPeriphery[msg.sender], \"NAP\") */\n      tag_131\n        /* \"#utility.yul\":5181:5507   */\n      jump\n        /* \"contracts/BondDB.sol\":2012:2052  require(_isPeriphery[msg.sender], \"NAP\") */\n    tag_137:\n      sub(shl(0xa0, 0x01), 0x01)\n        /* \"contracts/BondDB.sol\":2062:2081  _isFactory[factory] */\n      and\n      0x00\n      swap1\n      dup2\n      mstore\n        /* \"contracts/BondDB.sol\":2084:2088  true */\n      0x01\n        /* \"contracts/BondDB.sol\":2062:2081  _isFactory[factory] */\n      0x20\n      dup2\n      swap1\n      mstore\n      0x40\n      swap1\n      swap2\n      keccak256\n        /* \"contracts/BondDB.sol\":2062:2088  _isFactory[factory] = true */\n      dup1\n      sload\n      not(0xff)\n      and\n      swap1\n      swap2\n      or\n      swap1\n      sstore\n        /* \"contracts/BondDB.sol\":1951:2095  function registerFactory(address factory) external {... */\n      jump\t// out\n        /* \"contracts/BondDB.sol\":2921:3285  function incrementFundsRaisedByCompanyAndTokenAndCategory(... */\n    tag_60:\n        /* \"contracts/BondDB.sol\":3121:3131  msg.sender */\n      caller\n        /* \"contracts/BondDB.sol\":3110:3132  _isFactory[msg.sender] */\n      0x00\n      swap1\n      dup2\n      mstore\n        /* \"contracts/BondDB.sol\":3110:3120  _isFactory */\n      0x01\n        /* \"contracts/BondDB.sol\":3110:3132  _isFactory[msg.sender] */\n      0x20\n      mstore\n      0x40\n      swap1\n      keccak256\n      sload\n      0xff\n      and\n      dup1\n        /* \"contracts/BondDB.sol\":3110:3160  _isFactory[msg.sender] || _isPeriphery[msg.sender] */\n      tag_142\n      jumpi\n      pop\n        /* \"contracts/BondDB.sol\":3149:3159  msg.sender */\n      caller\n        /* \"contracts/BondDB.sol\":3136:3148  _isPeriphery */\n      0x00\n        /* \"contracts/BondDB.sol\":3136:3160  _isPeriphery[msg.sender] */\n      swap1\n      dup2\n      mstore\n      0x20\n      dup2\n      swap1\n      mstore\n      0x40\n      swap1\n      keccak256\n      sload\n      0xff\n      and\n        /* \"contracts/BondDB.sol\":3110:3160  _isFactory[msg.sender] || _isPeriphery[msg.sender] */\n    tag_142:\n        /* \"contracts/BondDB.sol\":3102:3170  require(_isFactory[msg.sender] || _isPeriphery[msg.sender], \"NAPOF\") */\n      tag_143\n      jumpi\n      mload(0x40)\n      shl(0xe5, 0x461bcd)\n      dup2\n      mstore\n      0x04\n      add\n      tag_131\n      swap1\n      tag_132\n      jump\t// in\n    tag_143:\n      sub(shl(0xa0, 0x01), 0x01)\n        /* \"contracts/BondDB.sol\":3180:3229  _fundsRaisedByCompanyAndTokenAndCategory[company] */\n      dup1\n      dup5\n      and\n      0x00\n      swap1\n      dup2\n      mstore\n        /* \"contracts/BondDB.sol\":3180:3220  _fundsRaisedByCompanyAndTokenAndCategory */\n      0x05\n        /* \"contracts/BondDB.sol\":3180:3229  _fundsRaisedByCompanyAndTokenAndCategory[company] */\n      0x20\n      swap1\n      dup2\n      mstore\n      0x40\n      dup1\n      dup4\n      keccak256\n        /* \"contracts/BondDB.sol\":3180:3236  _fundsRaisedByCompanyAndTokenAndCategory[company][token] */\n      swap4\n      dup7\n      and\n      dup4\n      mstore\n      swap3\n      dup2\n      mstore\n      dup3\n      dup3\n      keccak256\n        /* \"contracts/BondDB.sol\":3180:3268  _fundsRaisedByCompanyAndTokenAndCategory[company][token][... */\n      dup5\n      dup4\n      mstore\n      swap1\n      mstore\n      swap1\n      dup2\n      keccak256\n        /* \"contracts/BondDB.sol\":3180:3278  _fundsRaisedByCompanyAndTokenAndCategory[company][token][... */\n      dup1\n      sload\n        /* \"contracts/BondDB.sol\":3272:3278  amount */\n      dup7\n      swap3\n        /* \"contracts/BondDB.sol\":3180:3229  _fundsRaisedByCompanyAndTokenAndCategory[company] */\n      swap1\n        /* \"contracts/BondDB.sol\":3180:3278  _fundsRaisedByCompanyAndTokenAndCategory[company][token][... */\n      tag_145\n      swap1\n        /* \"contracts/BondDB.sol\":3272:3278  amount */\n      dup5\n      swap1\n        /* \"contracts/BondDB.sol\":3180:3278  _fundsRaisedByCompanyAndTokenAndCategory[company][token][... */\n      tag_134\n      jump\t// in\n    tag_145:\n      swap1\n      swap2\n      sstore\n      pop\n      pop\n      pop\n      pop\n      pop\n      pop\n        /* \"contracts/BondDB.sol\":2921:3285  function incrementFundsRaisedByCompanyAndTokenAndCategory(... */\n      jump\t// out\n        /* \"contracts/BondDB.sol\":4333:4525  function incrementTVLByToken(uint256 amount, address token) external {... */\n    tag_73:\n        /* \"contracts/BondDB.sol\":4431:4441  msg.sender */\n      caller\n        /* \"contracts/BondDB.sol\":4420:4442  _isFactory[msg.sender] */\n      0x00\n      swap1\n      dup2\n      mstore\n        /* \"contracts/BondDB.sol\":4420:4430  _isFactory */\n      0x01\n        /* \"contracts/BondDB.sol\":4420:4442  _isFactory[msg.sender] */\n      0x20\n      mstore\n      0x40\n      swap1\n      keccak256\n      sload\n      0xff\n      and\n      dup1\n        /* \"contracts/BondDB.sol\":4420:4470  _isFactory[msg.sender] || _isPeriphery[msg.sender] */\n      tag_149\n      jumpi\n      pop\n        /* \"contracts/BondDB.sol\":4459:4469  msg.sender */\n      caller\n        /* \"contracts/BondDB.sol\":4446:4458  _isPeriphery */\n      0x00\n        /* \"contracts/BondDB.sol\":4446:4470  _isPeriphery[msg.sender] */\n      swap1\n      dup2\n      mstore\n      0x20\n      dup2\n      swap1\n      mstore\n      0x40\n      swap1\n      keccak256\n      sload\n      0xff\n      and\n        /* \"contracts/BondDB.sol\":4420:4470  _isFactory[msg.sender] || _isPeriphery[msg.sender] */\n    tag_149:\n        /* \"contracts/BondDB.sol\":4412:4480  require(_isFactory[msg.sender] || _isPeriphery[msg.sender], \"NAPOF\") */\n      tag_150\n      jumpi\n      mload(0x40)\n      shl(0xe5, 0x461bcd)\n      dup2\n      mstore\n      0x04\n      add\n      tag_131\n      swap1\n      tag_132\n      jump\t// in\n    tag_150:\n      sub(shl(0xa0, 0x01), 0x01)\n        /* \"contracts/BondDB.sol\":4490:4508  _tvlByToken[token] */\n      dup2\n      and\n      0x00\n      swap1\n      dup2\n      mstore\n        /* \"contracts/BondDB.sol\":4490:4501  _tvlByToken */\n      0x0a\n        /* \"contracts/BondDB.sol\":4490:4508  _tvlByToken[token] */\n      0x20\n      mstore\n      0x40\n      dup2\n      keccak256\n        /* \"contracts/BondDB.sol\":4490:4518  _tvlByToken[token] += amount */\n      dup1\n      sload\n        /* \"contracts/BondDB.sol\":4512:4518  amount */\n      dup5\n      swap3\n        /* \"contracts/BondDB.sol\":4490:4508  _tvlByToken[token] */\n      swap1\n        /* \"contracts/BondDB.sol\":4490:4518  _tvlByToken[token] += amount */\n      tag_133\n      swap1\n        /* \"contracts/BondDB.sol\":4512:4518  amount */\n      dup5\n      swap1\n        /* \"contracts/BondDB.sol\":4490:4518  _tvlByToken[token] += amount */\n      tag_134\n      jump\t// in\n        /* \"contracts/BondDB.sol\":2337:2625  function incrementFundsRaisedByTokenAndCategory(... */\n    tag_89:\n        /* \"contracts/BondDB.sol\":2502:2512  msg.sender */\n      caller\n        /* \"contracts/BondDB.sol\":2491:2513  _isFactory[msg.sender] */\n      0x00\n      swap1\n      dup2\n      mstore\n        /* \"contracts/BondDB.sol\":2491:2501  _isFactory */\n      0x01\n        /* \"contracts/BondDB.sol\":2491:2513  _isFactory[msg.sender] */\n      0x20\n      mstore\n      0x40\n      swap1\n      keccak256\n      sload\n      0xff\n      and\n      dup1\n        /* \"contracts/BondDB.sol\":2491:2541  _isFactory[msg.sender] || _isPeriphery[msg.sender] */\n      tag_157\n      jumpi\n      pop\n        /* \"contracts/BondDB.sol\":2530:2540  msg.sender */\n      caller\n        /* \"contracts/BondDB.sol\":2517:2529  _isPeriphery */\n      0x00\n        /* \"contracts/BondDB.sol\":2517:2541  _isPeriphery[msg.sender] */\n      swap1\n      dup2\n      mstore\n      0x20\n      dup2\n      swap1\n      mstore\n      0x40\n      swap1\n      keccak256\n      sload\n      0xff\n      and\n        /* \"contracts/BondDB.sol\":2491:2541  _isFactory[msg.sender] || _isPeriphery[msg.sender] */\n    tag_157:\n        /* \"contracts/BondDB.sol\":2483:2551  require(_isFactory[msg.sender] || _isPeriphery[msg.sender], \"NAPOF\") */\n      tag_158\n      jumpi\n      mload(0x40)\n      shl(0xe5, 0x461bcd)\n      dup2\n      mstore\n      0x04\n      add\n      tag_131\n      swap1\n      tag_132\n      jump\t// in\n    tag_158:\n      sub(shl(0xa0, 0x01), 0x01)\n        /* \"contracts/BondDB.sol\":2561:2598  _fundsRaisedByTokenAndCategory[token] */\n      dup3\n      and\n      0x00\n      swap1\n      dup2\n      mstore\n        /* \"contracts/BondDB.sol\":2561:2591  _fundsRaisedByTokenAndCategory */\n      0x03\n        /* \"contracts/BondDB.sol\":2561:2598  _fundsRaisedByTokenAndCategory[token] */\n      0x20\n      swap1\n      dup2\n      mstore\n      0x40\n      dup1\n      dup4\n      keccak256\n        /* \"contracts/BondDB.sol\":2561:2608  _fundsRaisedByTokenAndCategory[token][category] */\n      dup5\n      dup5\n      mstore\n      swap1\n      swap2\n      mstore\n      dup2\n      keccak256\n        /* \"contracts/BondDB.sol\":2561:2618  _fundsRaisedByTokenAndCategory[token][category] += amount */\n      dup1\n      sload\n        /* \"contracts/BondDB.sol\":2612:2618  amount */\n      dup6\n      swap3\n        /* \"contracts/BondDB.sol\":2561:2598  _fundsRaisedByTokenAndCategory[token] */\n      swap1\n        /* \"contracts/BondDB.sol\":2561:2618  _fundsRaisedByTokenAndCategory[token][category] += amount */\n      tag_160\n      swap1\n        /* \"contracts/BondDB.sol\":2612:2618  amount */\n      dup5\n      swap1\n        /* \"contracts/BondDB.sol\":2561:2618  _fundsRaisedByTokenAndCategory[token][category] += amount */\n      tag_134\n      jump\t// in\n    tag_160:\n      swap1\n      swap2\n      sstore\n      pop\n      pop\n      pop\n      pop\n      pop\n        /* \"contracts/BondDB.sol\":2337:2625  function incrementFundsRaisedByTokenAndCategory(... */\n      jump\t// out\n        /* \"contracts/BondDB.sol\":3291:3506  function incrementNumberOfIssuedBondsByCategory(uint256 category) external {... */\n    tag_92:\n        /* \"contracts/BondDB.sol\":3395:3405  msg.sender */\n      caller\n        /* \"contracts/BondDB.sol\":3384:3406  _isFactory[msg.sender] */\n      0x00\n      swap1\n      dup2\n      mstore\n        /* \"contracts/BondDB.sol\":3384:3394  _isFactory */\n      0x01\n        /* \"contracts/BondDB.sol\":3384:3406  _isFactory[msg.sender] */\n      0x20\n      mstore\n      0x40\n      swap1\n      keccak256\n      sload\n      0xff\n      and\n      dup1\n        /* \"contracts/BondDB.sol\":3384:3434  _isFactory[msg.sender] || _isPeriphery[msg.sender] */\n      tag_162\n      jumpi\n      pop\n        /* \"contracts/BondDB.sol\":3423:3433  msg.sender */\n      caller\n        /* \"contracts/BondDB.sol\":3410:3422  _isPeriphery */\n      0x00\n        /* \"contracts/BondDB.sol\":3410:3434  _isPeriphery[msg.sender] */\n      swap1\n      dup2\n      mstore\n      0x20\n      dup2\n      swap1\n      mstore\n      0x40\n      swap1\n      keccak256\n      sload\n      0xff\n      and\n        /* \"contracts/BondDB.sol\":3384:3434  _isFactory[msg.sender] || _isPeriphery[msg.sender] */\n    tag_162:\n        /* \"contracts/BondDB.sol\":3376:3444  require(_isFactory[msg.sender] || _isPeriphery[msg.sender], \"NAPOF\") */\n      tag_163\n      jumpi\n      mload(0x40)\n      shl(0xe5, 0x461bcd)\n      dup2\n      mstore\n      0x04\n      add\n      tag_131\n      swap1\n      tag_132\n      jump\t// in\n    tag_163:\n        /* \"contracts/BondDB.sol\":3454:3494  _numberOfIssuedBondsByCategory[category] */\n      0x00\n      dup2\n      dup2\n      mstore\n        /* \"contracts/BondDB.sol\":3454:3484  _numberOfIssuedBondsByCategory */\n      0x06\n        /* \"contracts/BondDB.sol\":3454:3494  _numberOfIssuedBondsByCategory[category] */\n      0x20\n      mstore\n      0x40\n      dup2\n      keccak256\n        /* \"contracts/BondDB.sol\":3454:3499  _numberOfIssuedBondsByCategory[category] += 1 */\n      dup1\n      sload\n        /* \"contracts/BondDB.sol\":3498:3499  1 */\n      0x01\n      swap3\n        /* \"contracts/BondDB.sol\":3454:3494  _numberOfIssuedBondsByCategory[category] */\n      swap1\n        /* \"contracts/BondDB.sol\":3454:3499  _numberOfIssuedBondsByCategory[category] += 1 */\n      tag_165\n      swap1\n        /* \"contracts/BondDB.sol\":3498:3499  1 */\n      dup5\n      swap1\n        /* \"contracts/BondDB.sol\":3454:3499  _numberOfIssuedBondsByCategory[category] += 1 */\n      tag_134\n      jump\t// in\n    tag_165:\n      swap1\n      swap2\n      sstore\n      pop\n      pop\n      pop\n        /* \"contracts/BondDB.sol\":3291:3506  function incrementNumberOfIssuedBondsByCategory(uint256 category) external {... */\n      jump\t// out\n        /* \"contracts/BondDB.sol\":2631:2915  function incrementFundsRaisedByCompanyAndToken(... */\n    tag_96:\n        /* \"contracts/BondDB.sol\":2794:2804  msg.sender */\n      caller\n        /* \"contracts/BondDB.sol\":2783:2805  _isFactory[msg.sender] */\n      0x00\n      swap1\n      dup2\n      mstore\n        /* \"contracts/BondDB.sol\":2783:2793  _isFactory */\n      0x01\n        /* \"contracts/BondDB.sol\":2783:2805  _isFactory[msg.sender] */\n      0x20\n      mstore\n      0x40\n      swap1\n      keccak256\n      sload\n      0xff\n      and\n      dup1\n        /* \"contracts/BondDB.sol\":2783:2833  _isFactory[msg.sender] || _isPeriphery[msg.sender] */\n      tag_167\n      jumpi\n      pop\n        /* \"contracts/BondDB.sol\":2822:2832  msg.sender */\n      caller\n        /* \"contracts/BondDB.sol\":2809:2821  _isPeriphery */\n      0x00\n        /* \"contracts/BondDB.sol\":2809:2833  _isPeriphery[msg.sender] */\n      swap1\n      dup2\n      mstore\n      0x20\n      dup2\n      swap1\n      mstore\n      0x40\n      swap1\n      keccak256\n      sload\n      0xff\n      and\n        /* \"contracts/BondDB.sol\":2783:2833  _isFactory[msg.sender] || _isPeriphery[msg.sender] */\n    tag_167:\n        /* \"contracts/BondDB.sol\":2775:2843  require(_isFactory[msg.sender] || _isPeriphery[msg.sender], \"NAPOF\") */\n      tag_168\n      jumpi\n      mload(0x40)\n      shl(0xe5, 0x461bcd)\n      dup2\n      mstore\n      0x04\n      add\n      tag_131\n      swap1\n      tag_132\n      jump\t// in\n    tag_168:\n      sub(shl(0xa0, 0x01), 0x01)\n        /* \"contracts/BondDB.sol\":2853:2891  _fundsRaisedByCompanyAndToken[company] */\n      dup1\n      dup4\n      and\n      0x00\n      swap1\n      dup2\n      mstore\n        /* \"contracts/BondDB.sol\":2853:2882  _fundsRaisedByCompanyAndToken */\n      0x04\n        /* \"contracts/BondDB.sol\":2853:2891  _fundsRaisedByCompanyAndToken[company] */\n      0x20\n      swap1\n      dup2\n      mstore\n      0x40\n      dup1\n      dup4\n      keccak256\n        /* \"contracts/BondDB.sol\":2853:2898  _fundsRaisedByCompanyAndToken[company][token] */\n      swap4\n      dup6\n      and\n      dup4\n      mstore\n      swap3\n      swap1\n      mstore\n      swap1\n      dup2\n      keccak256\n        /* \"contracts/BondDB.sol\":2853:2908  _fundsRaisedByCompanyAndToken[company][token] += amount */\n      dup1\n      sload\n        /* \"contracts/BondDB.sol\":2902:2908  amount */\n      dup6\n      swap3\n        /* \"contracts/BondDB.sol\":2853:2891  _fundsRaisedByCompanyAndToken[company] */\n      swap1\n        /* \"contracts/BondDB.sol\":2853:2908  _fundsRaisedByCompanyAndToken[company][token] += amount */\n      tag_160\n      swap1\n        /* \"contracts/BondDB.sol\":2902:2908  amount */\n      dup5\n      swap1\n        /* \"contracts/BondDB.sol\":2853:2908  _fundsRaisedByCompanyAndToken[company][token] += amount */\n      tag_134\n      jump\t// in\n        /* \"contracts/BondDB.sol\":4531:4779  function decrementTVLByToken(uint256 amount, address token) external {... */\n    tag_107:\n        /* \"contracts/BondDB.sol\":4629:4639  msg.sender */\n      caller\n        /* \"contracts/BondDB.sol\":4618:4640  _isFactory[msg.sender] */\n      0x00\n      swap1\n      dup2\n      mstore\n        /* \"contracts/BondDB.sol\":4618:4628  _isFactory */\n      0x01\n        /* \"contracts/BondDB.sol\":4618:4640  _isFactory[msg.sender] */\n      0x20\n      mstore\n      0x40\n      swap1\n      keccak256\n      sload\n      0xff\n      and\n      dup1\n        /* \"contracts/BondDB.sol\":4618:4668  _isFactory[msg.sender] || _isPeriphery[msg.sender] */\n      tag_174\n      jumpi\n      pop\n        /* \"contracts/BondDB.sol\":4657:4667  msg.sender */\n      caller\n        /* \"contracts/BondDB.sol\":4644:4656  _isPeriphery */\n      0x00\n        /* \"contracts/BondDB.sol\":4644:4668  _isPeriphery[msg.sender] */\n      swap1\n      dup2\n      mstore\n      0x20\n      dup2\n      swap1\n      mstore\n      0x40\n      swap1\n      keccak256\n      sload\n      0xff\n      and\n        /* \"contracts/BondDB.sol\":4618:4668  _isFactory[msg.sender] || _isPeriphery[msg.sender] */\n    tag_174:\n        /* \"contracts/BondDB.sol\":4610:4678  require(_isFactory[msg.sender] || _isPeriphery[msg.sender], \"NAPOF\") */\n      tag_175\n      jumpi\n      mload(0x40)\n      shl(0xe5, 0x461bcd)\n      dup2\n      mstore\n      0x04\n      add\n      tag_131\n      swap1\n      tag_132\n      jump\t// in\n    tag_175:\n      sub(shl(0xa0, 0x01), 0x01)\n        /* \"contracts/BondDB.sol\":4696:4714  _tvlByToken[token] */\n      dup2\n      and\n      0x00\n      swap1\n      dup2\n      mstore\n        /* \"contracts/BondDB.sol\":4696:4707  _tvlByToken */\n      0x0a\n        /* \"contracts/BondDB.sol\":4696:4714  _tvlByToken[token] */\n      0x20\n      mstore\n      0x40\n      swap1\n      keccak256\n      sload\n        /* \"contracts/BondDB.sol\":4696:4724  _tvlByToken[token] >= amount */\n      dup3\n      gt\n      iszero\n        /* \"contracts/BondDB.sol\":4688:4734  require(_tvlByToken[token] >= amount, \"AETVL\") */\n      tag_177\n      jumpi\n      mload(0x40)\n      shl(0xe5, 0x461bcd)\n      dup2\n      mstore\n        /* \"#utility.yul\":5714:5716   */\n      0x20\n        /* \"contracts/BondDB.sol\":4688:4734  require(_tvlByToken[token] >= amount, \"AETVL\") */\n      0x04\n      dup3\n      add\n        /* \"#utility.yul\":5696:5717   */\n      mstore\n        /* \"#utility.yul\":5753:5754   */\n      0x05\n        /* \"#utility.yul\":5733:5751   */\n      0x24\n      dup3\n      add\n        /* \"#utility.yul\":5726:5755   */\n      mstore\n      shl(0xda, 0x1051551593)\n        /* \"#utility.yul\":5771:5789   */\n      0x44\n      dup3\n      add\n        /* \"#utility.yul\":5764:5799   */\n      mstore\n        /* \"#utility.yul\":5816:5834   */\n      0x64\n      add\n        /* \"contracts/BondDB.sol\":4688:4734  require(_tvlByToken[token] >= amount, \"AETVL\") */\n      tag_131\n        /* \"#utility.yul\":5512:5840   */\n      jump\n        /* \"contracts/BondDB.sol\":4688:4734  require(_tvlByToken[token] >= amount, \"AETVL\") */\n    tag_177:\n      sub(shl(0xa0, 0x01), 0x01)\n        /* \"contracts/BondDB.sol\":4744:4762  _tvlByToken[token] */\n      dup2\n      and\n      0x00\n      swap1\n      dup2\n      mstore\n        /* \"contracts/BondDB.sol\":4744:4755  _tvlByToken */\n      0x0a\n        /* \"contracts/BondDB.sol\":4744:4762  _tvlByToken[token] */\n      0x20\n      mstore\n      0x40\n      dup2\n      keccak256\n        /* \"contracts/BondDB.sol\":4744:4772  _tvlByToken[token] -= amount */\n      dup1\n      sload\n        /* \"contracts/BondDB.sol\":4766:4772  amount */\n      dup5\n      swap3\n        /* \"contracts/BondDB.sol\":4744:4762  _tvlByToken[token] */\n      swap1\n        /* \"contracts/BondDB.sol\":4744:4772  _tvlByToken[token] -= amount */\n      tag_133\n      swap1\n        /* \"contracts/BondDB.sol\":4766:4772  amount */\n      dup5\n      swap1\n        /* \"contracts/BondDB.sol\":4744:4772  _tvlByToken[token] -= amount */\n      tag_181\n      jump\t// in\n        /* \"contracts/BondDB.sol\":3512:3795  function incrementNumberOfIssuedBondsByCompanyAndCategory(... */\n    tag_110:\n        /* \"contracts/BondDB.sol\":3665:3675  msg.sender */\n      caller\n        /* \"contracts/BondDB.sol\":3654:3676  _isFactory[msg.sender] */\n      0x00\n      swap1\n      dup2\n      mstore\n        /* \"contracts/BondDB.sol\":3654:3664  _isFactory */\n      0x01\n        /* \"contracts/BondDB.sol\":3654:3676  _isFactory[msg.sender] */\n      0x20\n      mstore\n      0x40\n      swap1\n      keccak256\n      sload\n      0xff\n      and\n      dup1\n        /* \"contracts/BondDB.sol\":3654:3704  _isFactory[msg.sender] || _isPeriphery[msg.sender] */\n      tag_183\n      jumpi\n      pop\n        /* \"contracts/BondDB.sol\":3693:3703  msg.sender */\n      caller\n        /* \"contracts/BondDB.sol\":3680:3692  _isPeriphery */\n      0x00\n        /* \"contracts/BondDB.sol\":3680:3704  _isPeriphery[msg.sender] */\n      swap1\n      dup2\n      mstore\n      0x20\n      dup2\n      swap1\n      mstore\n      0x40\n      swap1\n      keccak256\n      sload\n      0xff\n      and\n        /* \"contracts/BondDB.sol\":3654:3704  _isFactory[msg.sender] || _isPeriphery[msg.sender] */\n    tag_183:\n        /* \"contracts/BondDB.sol\":3646:3714  require(_isFactory[msg.sender] || _isPeriphery[msg.sender], \"NAPOF\") */\n      tag_184\n      jumpi\n      mload(0x40)\n      shl(0xe5, 0x461bcd)\n      dup2\n      mstore\n      0x04\n      add\n      tag_131\n      swap1\n      tag_132\n      jump\t// in\n    tag_184:\n      sub(shl(0xa0, 0x01), 0x01)\n        /* \"contracts/BondDB.sol\":3724:3773  _numberOfIssuedBondsByCompanyAndCategory[company] */\n      dup3\n      and\n      0x00\n      swap1\n      dup2\n      mstore\n        /* \"contracts/BondDB.sol\":3724:3764  _numberOfIssuedBondsByCompanyAndCategory */\n      0x07\n        /* \"contracts/BondDB.sol\":3724:3773  _numberOfIssuedBondsByCompanyAndCategory[company] */\n      0x20\n      swap1\n      dup2\n      mstore\n      0x40\n      dup1\n      dup4\n      keccak256\n        /* \"contracts/BondDB.sol\":3724:3783  _numberOfIssuedBondsByCompanyAndCategory[company][category] */\n      dup5\n      dup5\n      mstore\n      swap1\n      swap2\n      mstore\n      dup2\n      keccak256\n        /* \"contracts/BondDB.sol\":3724:3788  _numberOfIssuedBondsByCompanyAndCategory[company][category] += 1 */\n      dup1\n      sload\n        /* \"contracts/BondDB.sol\":3787:3788  1 */\n      0x01\n      swap3\n        /* \"contracts/BondDB.sol\":3724:3773  _numberOfIssuedBondsByCompanyAndCategory[company] */\n      swap1\n        /* \"contracts/BondDB.sol\":3724:3788  _numberOfIssuedBondsByCompanyAndCategory[company][category] += 1 */\n      tag_133\n      swap1\n        /* \"contracts/BondDB.sol\":3787:3788  1 */\n      dup5\n      swap1\n        /* \"contracts/BondDB.sol\":3724:3788  _numberOfIssuedBondsByCompanyAndCategory[company][category] += 1 */\n      tag_134\n      jump\t// in\n        /* \"contracts/BondDB.sol\":4038:4327  function incrementNumberOfTimesDefaultedByCompanyAndCategory(... */\n    tag_113:\n        /* \"contracts/BondDB.sol\":4194:4204  msg.sender */\n      caller\n        /* \"contracts/BondDB.sol\":4183:4205  _isFactory[msg.sender] */\n      0x00\n      swap1\n      dup2\n      mstore\n        /* \"contracts/BondDB.sol\":4183:4193  _isFactory */\n      0x01\n        /* \"contracts/BondDB.sol\":4183:4205  _isFactory[msg.sender] */\n      0x20\n      mstore\n      0x40\n      swap1\n      keccak256\n      sload\n      0xff\n      and\n      dup1\n        /* \"contracts/BondDB.sol\":4183:4233  _isFactory[msg.sender] || _isPeriphery[msg.sender] */\n      tag_188\n      jumpi\n      pop\n        /* \"contracts/BondDB.sol\":4222:4232  msg.sender */\n      caller\n        /* \"contracts/BondDB.sol\":4209:4221  _isPeriphery */\n      0x00\n        /* \"contracts/BondDB.sol\":4209:4233  _isPeriphery[msg.sender] */\n      swap1\n      dup2\n      mstore\n      0x20\n      dup2\n      swap1\n      mstore\n      0x40\n      swap1\n      keccak256\n      sload\n      0xff\n      and\n        /* \"contracts/BondDB.sol\":4183:4233  _isFactory[msg.sender] || _isPeriphery[msg.sender] */\n    tag_188:\n        /* \"contracts/BondDB.sol\":4175:4243  require(_isFactory[msg.sender] || _isPeriphery[msg.sender], \"NAPOF\") */\n      tag_189\n      jumpi\n      mload(0x40)\n      shl(0xe5, 0x461bcd)\n      dup2\n      mstore\n      0x04\n      add\n      tag_131\n      swap1\n      tag_132\n      jump\t// in\n    tag_189:\n      sub(shl(0xa0, 0x01), 0x01)\n        /* \"contracts/BondDB.sol\":4253:4305  _numberOfTimesDefaultedByCompanyAndCategory[company] */\n      dup3\n      and\n      0x00\n      swap1\n      dup2\n      mstore\n        /* \"contracts/BondDB.sol\":4253:4296  _numberOfTimesDefaultedByCompanyAndCategory */\n      0x09\n        /* \"contracts/BondDB.sol\":4253:4305  _numberOfTimesDefaultedByCompanyAndCategory[company] */\n      0x20\n      swap1\n      dup2\n      mstore\n      0x40\n      dup1\n      dup4\n      keccak256\n        /* \"contracts/BondDB.sol\":4253:4315  _numberOfTimesDefaultedByCompanyAndCategory[company][category] */\n      dup5\n      dup5\n      mstore\n      swap1\n      swap2\n      mstore\n      dup2\n      keccak256\n        /* \"contracts/BondDB.sol\":4253:4320  _numberOfTimesDefaultedByCompanyAndCategory[company][category] += 1 */\n      dup1\n      sload\n        /* \"contracts/BondDB.sol\":4319:4320  1 */\n      0x01\n      swap3\n        /* \"contracts/BondDB.sol\":4253:4305  _numberOfTimesDefaultedByCompanyAndCategory[company] */\n      swap1\n        /* \"contracts/BondDB.sol\":4253:4320  _numberOfTimesDefaultedByCompanyAndCategory[company][category] += 1 */\n      tag_133\n      swap1\n        /* \"contracts/BondDB.sol\":4319:4320  1 */\n      dup5\n      swap1\n        /* \"contracts/BondDB.sol\":4253:4320  _numberOfTimesDefaultedByCompanyAndCategory[company][category] += 1 */\n      tag_134\n      jump\t// in\n        /* \"contracts/BondDB.sol\":3801:4032  function incrementNumberOfTimesDefaultedByCompany(... */\n    tag_121:\n        /* \"contracts/BondDB.sol\":3920:3930  msg.sender */\n      caller\n        /* \"contracts/BondDB.sol\":3909:3931  _isFactory[msg.sender] */\n      0x00\n      swap1\n      dup2\n      mstore\n        /* \"contracts/BondDB.sol\":3909:3919  _isFactory */\n      0x01\n        /* \"contracts/BondDB.sol\":3909:3931  _isFactory[msg.sender] */\n      0x20\n      mstore\n      0x40\n      swap1\n      keccak256\n      sload\n      0xff\n      and\n      dup1\n        /* \"contracts/BondDB.sol\":3909:3959  _isFactory[msg.sender] || _isPeriphery[msg.sender] */\n      tag_194\n      jumpi\n      pop\n        /* \"contracts/BondDB.sol\":3948:3958  msg.sender */\n      caller\n        /* \"contracts/BondDB.sol\":3935:3947  _isPeriphery */\n      0x00\n        /* \"contracts/BondDB.sol\":3935:3959  _isPeriphery[msg.sender] */\n      swap1\n      dup2\n      mstore\n      0x20\n      dup2\n      swap1\n      mstore\n      0x40\n      swap1\n      keccak256\n      sload\n      0xff\n      and\n        /* \"contracts/BondDB.sol\":3909:3959  _isFactory[msg.sender] || _isPeriphery[msg.sender] */\n    tag_194:\n        /* \"contracts/BondDB.sol\":3901:3969  require(_isFactory[msg.sender] || _isPeriphery[msg.sender], \"NAPOF\") */\n      tag_195\n      jumpi\n      mload(0x40)\n      shl(0xe5, 0x461bcd)\n      dup2\n      mstore\n      0x04\n      add\n      tag_131\n      swap1\n      tag_132\n      jump\t// in\n    tag_195:\n      sub(shl(0xa0, 0x01), 0x01)\n        /* \"contracts/BondDB.sol\":3979:4020  _numberOfTimesDefaultedByCompany[company] */\n      dup2\n      and\n      0x00\n      swap1\n      dup2\n      mstore\n        /* \"contracts/BondDB.sol\":3979:4011  _numberOfTimesDefaultedByCompany */\n      0x08\n        /* \"contracts/BondDB.sol\":3979:4020  _numberOfTimesDefaultedByCompany[company] */\n      0x20\n      mstore\n      0x40\n      dup2\n      keccak256\n        /* \"contracts/BondDB.sol\":3979:4025  _numberOfTimesDefaultedByCompany[company] += 1 */\n      dup1\n      sload\n        /* \"contracts/BondDB.sol\":4024:4025  1 */\n      0x01\n      swap3\n        /* \"contracts/BondDB.sol\":3979:4020  _numberOfTimesDefaultedByCompany[company] */\n      swap1\n        /* \"contracts/BondDB.sol\":3979:4025  _numberOfTimesDefaultedByCompany[company] += 1 */\n      tag_165\n      swap1\n        /* \"contracts/BondDB.sol\":4024:4025  1 */\n      dup5\n      swap1\n        /* \"contracts/BondDB.sol\":3979:4025  _numberOfTimesDefaultedByCompany[company] += 1 */\n      tag_134\n      jump\t// in\n        /* \"contracts/BondDB.sol\":1711:1945  function registerPeriphery(address[] memory peripheries) external {... */\n    tag_125:\n        /* \"contracts/BondDB.sol\":1795:1801  _owner */\n      immutable(\"0x52f1a9b320cab38e5da8a8f97989383aab0a49165fc91c737310e4f7e9821021\")\n      sub(shl(0xa0, 0x01), 0x01)\n        /* \"contracts/BondDB.sol\":1795:1815  _owner == msg.sender */\n      and\n        /* \"contracts/BondDB.sol\":1805:1815  msg.sender */\n      caller\n        /* \"contracts/BondDB.sol\":1795:1815  _owner == msg.sender */\n      eq\n        /* \"contracts/BondDB.sol\":1787:1823  require(_owner == msg.sender, \"NTO\") */\n      tag_199\n      jumpi\n      mload(0x40)\n      shl(0xe5, 0x461bcd)\n      dup2\n      mstore\n        /* \"#utility.yul\":6180:6182   */\n      0x20\n        /* \"contracts/BondDB.sol\":1787:1823  require(_owner == msg.sender, \"NTO\") */\n      0x04\n      dup3\n      add\n        /* \"#utility.yul\":6162:6183   */\n      mstore\n        /* \"#utility.yul\":6219:6220   */\n      0x03\n        /* \"#utility.yul\":6199:6217   */\n      0x24\n      dup3\n      add\n        /* \"#utility.yul\":6192:6221   */\n      mstore\n      shl(0xe8, 0x4e544f)\n        /* \"#utility.yul\":6237:6255   */\n      0x44\n      dup3\n      add\n        /* \"#utility.yul\":6230:6263   */\n      mstore\n        /* \"#utility.yul\":6280:6298   */\n      0x64\n      add\n        /* \"contracts/BondDB.sol\":1787:1823  require(_owner == msg.sender, \"NTO\") */\n      tag_131\n        /* \"#utility.yul\":5978:6304   */\n      jump\n        /* \"contracts/BondDB.sol\":1787:1823  require(_owner == msg.sender, \"NTO\") */\n    tag_199:\n        /* \"contracts/BondDB.sol\":1838:1844  uint i */\n      0x00\n        /* \"contracts/BondDB.sol\":1833:1939  for (uint i = 0; i < peripheries.length; i++) {... */\n    tag_202:\n        /* \"contracts/BondDB.sol\":1854:1865  peripheries */\n      dup2\n        /* \"contracts/BondDB.sol\":1854:1872  peripheries.length */\n      mload\n        /* \"contracts/BondDB.sol\":1850:1851  i */\n      dup2\n        /* \"contracts/BondDB.sol\":1850:1872  i < peripheries.length */\n      lt\n        /* \"contracts/BondDB.sol\":1833:1939  for (uint i = 0; i < peripheries.length; i++) {... */\n      iszero\n      tag_203\n      jumpi\n        /* \"contracts/BondDB.sol\":1924:1928  true */\n      0x01\n        /* \"contracts/BondDB.sol\":1893:1905  _isPeriphery */\n      0x00\n        /* \"contracts/BondDB.sol\":1893:1921  _isPeriphery[peripheries[i]] */\n      dup1\n        /* \"contracts/BondDB.sol\":1906:1917  peripheries */\n      dup5\n        /* \"contracts/BondDB.sol\":1918:1919  i */\n      dup5\n        /* \"contracts/BondDB.sol\":1906:1920  peripheries[i] */\n      dup2\n      mload\n      dup2\n      lt\n      tag_206\n      jumpi\n      tag_206\n      tag_207\n      jump\t// in\n    tag_206:\n      0x20\n      swap1\n      dup2\n      mul\n      swap2\n      swap1\n      swap2\n      add\n      dup2\n      add\n      mload\n      sub(shl(0xa0, 0x01), 0x01)\n        /* \"contracts/BondDB.sol\":1893:1921  _isPeriphery[peripheries[i]] */\n      and\n      dup3\n      mstore\n      dup2\n      add\n      swap2\n      swap1\n      swap2\n      mstore\n      0x40\n      add\n      0x00\n      keccak256\n        /* \"contracts/BondDB.sol\":1893:1928  _isPeriphery[peripheries[i]] = true */\n      dup1\n      sload\n      not(0xff)\n      and\n      swap2\n      iszero\n      iszero\n      swap2\n      swap1\n      swap2\n      or\n      swap1\n      sstore\n        /* \"contracts/BondDB.sol\":1874:1877  i++ */\n      dup1\n      tag_208\n      dup2\n      tag_209\n      jump\t// in\n    tag_208:\n      swap2\n      pop\n      pop\n        /* \"contracts/BondDB.sol\":1833:1939  for (uint i = 0; i < peripheries.length; i++) {... */\n      jump(tag_202)\n    tag_203:\n      pop\n        /* \"contracts/BondDB.sol\":1711:1945  function registerPeriphery(address[] memory peripheries) external {... */\n      pop\n      jump\t// out\n        /* \"#utility.yul\":14:187   */\n    tag_210:\n        /* \"#utility.yul\":82:102   */\n      dup1\n      calldataload\n      sub(shl(0xa0, 0x01), 0x01)\n        /* \"#utility.yul\":131:162   */\n      dup2\n      and\n        /* \"#utility.yul\":121:163   */\n      dup2\n      eq\n        /* \"#utility.yul\":111:181   */\n      tag_215\n      jumpi\n        /* \"#utility.yul\":177:178   */\n      0x00\n        /* \"#utility.yul\":174:175   */\n      dup1\n        /* \"#utility.yul\":167:179   */\n      revert\n        /* \"#utility.yul\":111:181   */\n    tag_215:\n        /* \"#utility.yul\":14:187   */\n      swap2\n      swap1\n      pop\n      jump\t// out\n        /* \"#utility.yul\":192:378   */\n    tag_32:\n        /* \"#utility.yul\":251:257   */\n      0x00\n        /* \"#utility.yul\":304:306   */\n      0x20\n        /* \"#utility.yul\":292:301   */\n      dup3\n        /* \"#utility.yul\":283:290   */\n      dup5\n        /* \"#utility.yul\":279:302   */\n      sub\n        /* \"#utility.yul\":275:307   */\n      slt\n        /* \"#utility.yul\":272:324   */\n      iszero\n      tag_217\n      jumpi\n        /* \"#utility.yul\":320:321   */\n      0x00\n        /* \"#utility.yul\":317:318   */\n      dup1\n        /* \"#utility.yul\":310:322   */\n      revert\n        /* \"#utility.yul\":272:324   */\n    tag_217:\n        /* \"#utility.yul\":343:372   */\n      tag_218\n        /* \"#utility.yul\":362:371   */\n      dup3\n        /* \"#utility.yul\":343:372   */\n      tag_210\n      jump\t// in\n    tag_218:\n        /* \"#utility.yul\":333:372   */\n      swap4\n        /* \"#utility.yul\":192:378   */\n      swap3\n      pop\n      pop\n      pop\n      jump\t// out\n        /* \"#utility.yul\":757:1011   */\n    tag_43:\n        /* \"#utility.yul\":825:831   */\n      0x00\n        /* \"#utility.yul\":833:839   */\n      dup1\n        /* \"#utility.yul\":886:888   */\n      0x40\n        /* \"#utility.yul\":874:883   */\n      dup4\n        /* \"#utility.yul\":865:872   */\n      dup6\n        /* \"#utility.yul\":861:884   */\n      sub\n        /* \"#utility.yul\":857:889   */\n      slt\n        /* \"#utility.yul\":854:906   */\n      iszero\n      tag_222\n      jumpi\n        /* \"#utility.yul\":902:903   */\n      0x00\n        /* \"#utility.yul\":899:900   */\n      dup1\n        /* \"#utility.yul\":892:904   */\n      revert\n        /* \"#utility.yul\":854:906   */\n    tag_222:\n        /* \"#utility.yul\":938:947   */\n      dup3\n        /* \"#utility.yul\":925:948   */\n      calldataload\n        /* \"#utility.yul\":915:948   */\n      swap2\n      pop\n        /* \"#utility.yul\":967:1005   */\n      tag_223\n        /* \"#utility.yul\":1001:1003   */\n      0x20\n        /* \"#utility.yul\":990:999   */\n      dup5\n        /* \"#utility.yul\":986:1004   */\n      add\n        /* \"#utility.yul\":967:1005   */\n      tag_210\n      jump\t// in\n    tag_223:\n        /* \"#utility.yul\":957:1005   */\n      swap1\n      pop\n        /* \"#utility.yul\":757:1011   */\n      swap3\n      pop\n      swap3\n      swap1\n      pop\n      jump\t// out\n        /* \"#utility.yul\":1016:1270   */\n    tag_47:\n        /* \"#utility.yul\":1084:1090   */\n      0x00\n        /* \"#utility.yul\":1092:1098   */\n      dup1\n        /* \"#utility.yul\":1145:1147   */\n      0x40\n        /* \"#utility.yul\":1133:1142   */\n      dup4\n        /* \"#utility.yul\":1124:1131   */\n      dup6\n        /* \"#utility.yul\":1120:1143   */\n      sub\n        /* \"#utility.yul\":1116:1148   */\n      slt\n        /* \"#utility.yul\":1113:1165   */\n      iszero\n      tag_225\n      jumpi\n        /* \"#utility.yul\":1161:1162   */\n      0x00\n        /* \"#utility.yul\":1158:1159   */\n      dup1\n        /* \"#utility.yul\":1151:1163   */\n      revert\n        /* \"#utility.yul\":1113:1165   */\n    tag_225:\n        /* \"#utility.yul\":1184:1213   */\n      tag_226\n        /* \"#utility.yul\":1203:1212   */\n      dup4\n        /* \"#utility.yul\":1184:1213   */\n      tag_210\n      jump\t// in\n    tag_226:\n        /* \"#utility.yul\":1174:1213   */\n      swap5\n        /* \"#utility.yul\":1260:1262   */\n      0x20\n        /* \"#utility.yul\":1245:1263   */\n      swap4\n      swap1\n      swap4\n      add\n        /* \"#utility.yul\":1232:1264   */\n      calldataload\n      swap4\n      pop\n      pop\n      pop\n        /* \"#utility.yul\":1016:1270   */\n      jump\t// out\n        /* \"#utility.yul\":1275:1672   */\n    tag_59:\n        /* \"#utility.yul\":1361:1367   */\n      0x00\n        /* \"#utility.yul\":1369:1375   */\n      dup1\n        /* \"#utility.yul\":1377:1383   */\n      0x00\n        /* \"#utility.yul\":1385:1391   */\n      dup1\n        /* \"#utility.yul\":1438:1441   */\n      0x80\n        /* \"#utility.yul\":1426:1435   */\n      dup6\n        /* \"#utility.yul\":1417:1424   */\n      dup8\n        /* \"#utility.yul\":1413:1436   */\n      sub\n        /* \"#utility.yul\":1409:1442   */\n      slt\n        /* \"#utility.yul\":1406:1459   */\n      iszero\n      tag_228\n      jumpi\n        /* \"#utility.yul\":1455:1456   */\n      0x00\n        /* \"#utility.yul\":1452:1453   */\n      dup1\n        /* \"#utility.yul\":1445:1457   */\n      revert\n        /* \"#utility.yul\":1406:1459   */\n    tag_228:\n        /* \"#utility.yul\":1491:1500   */\n      dup5\n        /* \"#utility.yul\":1478:1501   */\n      calldataload\n        /* \"#utility.yul\":1468:1501   */\n      swap4\n      pop\n        /* \"#utility.yul\":1520:1558   */\n      tag_229\n        /* \"#utility.yul\":1554:1556   */\n      0x20\n        /* \"#utility.yul\":1543:1552   */\n      dup7\n        /* \"#utility.yul\":1539:1557   */\n      add\n        /* \"#utility.yul\":1520:1558   */\n      tag_210\n      jump\t// in\n    tag_229:\n        /* \"#utility.yul\":1510:1558   */\n      swap3\n      pop\n        /* \"#utility.yul\":1577:1615   */\n      tag_230\n        /* \"#utility.yul\":1611:1613   */\n      0x40\n        /* \"#utility.yul\":1600:1609   */\n      dup7\n        /* \"#utility.yul\":1596:1614   */\n      add\n        /* \"#utility.yul\":1577:1615   */\n      tag_210\n      jump\t// in\n    tag_230:\n        /* \"#utility.yul\":1275:1672   */\n      swap4\n      swap7\n      swap3\n      swap6\n      pop\n        /* \"#utility.yul\":1567:1615   */\n      swap3\n      swap4\n        /* \"#utility.yul\":1662:1664   */\n      0x60\n        /* \"#utility.yul\":1647:1665   */\n      add\n        /* \"#utility.yul\":1634:1666   */\n      calldataload\n      swap3\n      pop\n      pop\n        /* \"#utility.yul\":1275:1672   */\n      jump\t// out\n        /* \"#utility.yul\":1677:1937   */\n    tag_63:\n        /* \"#utility.yul\":1745:1751   */\n      0x00\n        /* \"#utility.yul\":1753:1759   */\n      dup1\n        /* \"#utility.yul\":1806:1808   */\n      0x40\n        /* \"#utility.yul\":1794:1803   */\n      dup4\n        /* \"#utility.yul\":1785:1792   */\n      dup6\n        /* \"#utility.yul\":1781:1804   */\n      sub\n        /* \"#utility.yul\":1777:1809   */\n      slt\n        /* \"#utility.yul\":1774:1826   */\n      iszero\n      tag_232\n      jumpi\n        /* \"#utility.yul\":1822:1823   */\n      0x00\n        /* \"#utility.yul\":1819:1820   */\n      dup1\n        /* \"#utility.yul\":1812:1824   */\n      revert\n        /* \"#utility.yul\":1774:1826   */\n    tag_232:\n        /* \"#utility.yul\":1845:1874   */\n      tag_233\n        /* \"#utility.yul\":1864:1873   */\n      dup4\n        /* \"#utility.yul\":1845:1874   */\n      tag_210\n      jump\t// in\n    tag_233:\n        /* \"#utility.yul\":1835:1874   */\n      swap2\n      pop\n        /* \"#utility.yul\":1893:1931   */\n      tag_223\n        /* \"#utility.yul\":1927:1929   */\n      0x20\n        /* \"#utility.yul\":1916:1925   */\n      dup5\n        /* \"#utility.yul\":1912:1930   */\n      add\n        /* \"#utility.yul\":1893:1931   */\n      tag_210\n      jump\t// in\n        /* \"#utility.yul\":1942:2122   */\n    tag_68:\n        /* \"#utility.yul\":2001:2007   */\n      0x00\n        /* \"#utility.yul\":2054:2056   */\n      0x20\n        /* \"#utility.yul\":2042:2051   */\n      dup3\n        /* \"#utility.yul\":2033:2040   */\n      dup5\n        /* \"#utility.yul\":2029:2052   */\n      sub\n        /* \"#utility.yul\":2025:2057   */\n      slt\n        /* \"#utility.yul\":2022:2074   */\n      iszero\n      tag_236\n      jumpi\n        /* \"#utility.yul\":2070:2071   */\n      0x00\n        /* \"#utility.yul\":2067:2068   */\n      dup1\n        /* \"#utility.yul\":2060:2072   */\n      revert\n        /* \"#utility.yul\":2022:2074   */\n    tag_236:\n      pop\n        /* \"#utility.yul\":2093:2116   */\n      calldataload\n      swap2\n        /* \"#utility.yul\":1942:2122   */\n      swap1\n      pop\n      jump\t// out\n        /* \"#utility.yul\":2335:2657   */\n    tag_88:\n        /* \"#utility.yul\":2412:2418   */\n      0x00\n        /* \"#utility.yul\":2420:2426   */\n      dup1\n        /* \"#utility.yul\":2428:2434   */\n      0x00\n        /* \"#utility.yul\":2481:2483   */\n      0x60\n        /* \"#utility.yul\":2469:2478   */\n      dup5\n        /* \"#utility.yul\":2460:2467   */\n      dup7\n        /* \"#utility.yul\":2456:2479   */\n      sub\n        /* \"#utility.yul\":2452:2484   */\n      slt\n        /* \"#utility.yul\":2449:2501   */\n      iszero\n      tag_239\n      jumpi\n        /* \"#utility.yul\":2497:2498   */\n      0x00\n        /* \"#utility.yul\":2494:2495   */\n      dup1\n        /* \"#utility.yul\":2487:2499   */\n      revert\n        /* \"#utility.yul\":2449:2501   */\n    tag_239:\n        /* \"#utility.yul\":2533:2542   */\n      dup4\n        /* \"#utility.yul\":2520:2543   */\n      calldataload\n        /* \"#utility.yul\":2510:2543   */\n      swap3\n      pop\n        /* \"#utility.yul\":2562:2600   */\n      tag_240\n        /* \"#utility.yul\":2596:2598   */\n      0x20\n        /* \"#utility.yul\":2585:2594   */\n      dup6\n        /* \"#utility.yul\":2581:2599   */\n      add\n        /* \"#utility.yul\":2562:2600   */\n      tag_210\n      jump\t// in\n    tag_240:\n        /* \"#utility.yul\":2552:2600   */\n      swap2\n      pop\n        /* \"#utility.yul\":2647:2649   */\n      0x40\n        /* \"#utility.yul\":2636:2645   */\n      dup5\n        /* \"#utility.yul\":2632:2650   */\n      add\n        /* \"#utility.yul\":2619:2651   */\n      calldataload\n        /* \"#utility.yul\":2609:2651   */\n      swap1\n      pop\n        /* \"#utility.yul\":2335:2657   */\n      swap3\n      pop\n      swap3\n      pop\n      swap3\n      jump\t// out\n        /* \"#utility.yul\":2662:2990   */\n    tag_95:\n        /* \"#utility.yul\":2739:2745   */\n      0x00\n        /* \"#utility.yul\":2747:2753   */\n      dup1\n        /* \"#utility.yul\":2755:2761   */\n      0x00\n        /* \"#utility.yul\":2808:2810   */\n      0x60\n        /* \"#utility.yul\":2796:2805   */\n      dup5\n        /* \"#utility.yul\":2787:2794   */\n      dup7\n        /* \"#utility.yul\":2783:2806   */\n      sub\n        /* \"#utility.yul\":2779:2811   */\n      slt\n        /* \"#utility.yul\":2776:2828   */\n      iszero\n      tag_242\n      jumpi\n        /* \"#utility.yul\":2824:2825   */\n      0x00\n        /* \"#utility.yul\":2821:2822   */\n      dup1\n        /* \"#utility.yul\":2814:2826   */\n      revert\n        /* \"#utility.yul\":2776:2828   */\n    tag_242:\n        /* \"#utility.yul\":2860:2869   */\n      dup4\n        /* \"#utility.yul\":2847:2870   */\n      calldataload\n        /* \"#utility.yul\":2837:2870   */\n      swap3\n      pop\n        /* \"#utility.yul\":2889:2927   */\n      tag_243\n        /* \"#utility.yul\":2923:2925   */\n      0x20\n        /* \"#utility.yul\":2912:2921   */\n      dup6\n        /* \"#utility.yul\":2908:2926   */\n      add\n        /* \"#utility.yul\":2889:2927   */\n      tag_210\n      jump\t// in\n    tag_243:\n        /* \"#utility.yul\":2879:2927   */\n      swap2\n      pop\n        /* \"#utility.yul\":2946:2984   */\n      tag_244\n        /* \"#utility.yul\":2980:2982   */\n      0x40\n        /* \"#utility.yul\":2969:2978   */\n      dup6\n        /* \"#utility.yul\":2965:2983   */\n      add\n        /* \"#utility.yul\":2946:2984   */\n      tag_210\n      jump\t// in\n    tag_244:\n        /* \"#utility.yul\":2936:2984   */\n      swap1\n      pop\n        /* \"#utility.yul\":2662:2990   */\n      swap3\n      pop\n      swap3\n      pop\n      swap3\n      jump\t// out\n        /* \"#utility.yul\":2995:3323   */\n    tag_116:\n        /* \"#utility.yul\":3072:3078   */\n      0x00\n        /* \"#utility.yul\":3080:3086   */\n      dup1\n        /* \"#utility.yul\":3088:3094   */\n      0x00\n        /* \"#utility.yul\":3141:3143   */\n      0x60\n        /* \"#utility.yul\":3129:3138   */\n      dup5\n        /* \"#utility.yul\":3120:3127   */\n      dup7\n        /* \"#utility.yul\":3116:3139   */\n      sub\n        /* \"#utility.yul\":3112:3144   */\n      slt\n        /* \"#utility.yul\":3109:3161   */\n      iszero\n      tag_246\n      jumpi\n        /* \"#utility.yul\":3157:3158   */\n      0x00\n        /* \"#utility.yul\":3154:3155   */\n      dup1\n        /* \"#utility.yul\":3147:3159   */\n      revert\n        /* \"#utility.yul\":3109:3161   */\n    tag_246:\n        /* \"#utility.yul\":3180:3209   */\n      tag_247\n        /* \"#utility.yul\":3199:3208   */\n      dup5\n        /* \"#utility.yul\":3180:3209   */\n      tag_210\n      jump\t// in\n    tag_247:\n        /* \"#utility.yul\":3170:3209   */\n      swap3\n      pop\n        /* \"#utility.yul\":3228:3266   */\n      tag_240\n        /* \"#utility.yul\":3262:3264   */\n      0x20\n        /* \"#utility.yul\":3251:3260   */\n      dup6\n        /* \"#utility.yul\":3247:3265   */\n      add\n        /* \"#utility.yul\":3228:3266   */\n      tag_210\n      jump\t// in\n        /* \"#utility.yul\":3328:3455   */\n    tag_211:\n        /* \"#utility.yul\":3389:3399   */\n      0x4e487b71\n        /* \"#utility.yul\":3384:3387   */\n      0xe0\n        /* \"#utility.yul\":3380:3400   */\n      shl\n        /* \"#utility.yul\":3377:3378   */\n      0x00\n        /* \"#utility.yul\":3370:3401   */\n      mstore\n        /* \"#utility.yul\":3420:3424   */\n      0x41\n        /* \"#utility.yul\":3417:3418   */\n      0x04\n        /* \"#utility.yul\":3410:3425   */\n      mstore\n        /* \"#utility.yul\":3444:3448   */\n      0x24\n        /* \"#utility.yul\":3441:3442   */\n      0x00\n        /* \"#utility.yul\":3434:3449   */\n      revert\n        /* \"#utility.yul\":3460:4581   */\n    tag_124:\n        /* \"#utility.yul\":3544:3550   */\n      0x00\n        /* \"#utility.yul\":3575:3577   */\n      0x20\n        /* \"#utility.yul\":3618:3620   */\n      dup1\n        /* \"#utility.yul\":3606:3615   */\n      dup4\n        /* \"#utility.yul\":3597:3604   */\n      dup6\n        /* \"#utility.yul\":3593:3616   */\n      sub\n        /* \"#utility.yul\":3589:3621   */\n      slt\n        /* \"#utility.yul\":3586:3638   */\n      iszero\n      tag_251\n      jumpi\n        /* \"#utility.yul\":3634:3635   */\n      0x00\n        /* \"#utility.yul\":3631:3632   */\n      dup1\n        /* \"#utility.yul\":3624:3636   */\n      revert\n        /* \"#utility.yul\":3586:3638   */\n    tag_251:\n        /* \"#utility.yul\":3674:3683   */\n      dup3\n        /* \"#utility.yul\":3661:3684   */\n      calldataload\n        /* \"#utility.yul\":3703:3721   */\n      0xffffffffffffffff\n        /* \"#utility.yul\":3744:3746   */\n      dup1\n        /* \"#utility.yul\":3736:3742   */\n      dup3\n        /* \"#utility.yul\":3733:3747   */\n      gt\n        /* \"#utility.yul\":3730:3764   */\n      iszero\n      tag_252\n      jumpi\n        /* \"#utility.yul\":3760:3761   */\n      0x00\n        /* \"#utility.yul\":3757:3758   */\n      dup1\n        /* \"#utility.yul\":3750:3762   */\n      revert\n        /* \"#utility.yul\":3730:3764   */\n    tag_252:\n        /* \"#utility.yul\":3798:3804   */\n      dup2\n        /* \"#utility.yul\":3787:3796   */\n      dup6\n        /* \"#utility.yul\":3783:3805   */\n      add\n        /* \"#utility.yul\":3773:3805   */\n      swap2\n      pop\n        /* \"#utility.yul\":3843:3850   */\n      dup6\n        /* \"#utility.yul\":3836:3840   */\n      0x1f\n        /* \"#utility.yul\":3832:3834   */\n      dup4\n        /* \"#utility.yul\":3828:3841   */\n      add\n        /* \"#utility.yul\":3824:3851   */\n      slt\n        /* \"#utility.yul\":3814:3869   */\n      tag_253\n      jumpi\n        /* \"#utility.yul\":3865:3866   */\n      0x00\n        /* \"#utility.yul\":3862:3863   */\n      dup1\n        /* \"#utility.yul\":3855:3867   */\n      revert\n        /* \"#utility.yul\":3814:3869   */\n    tag_253:\n        /* \"#utility.yul\":3901:3903   */\n      dup2\n        /* \"#utility.yul\":3888:3904   */\n      calldataload\n        /* \"#utility.yul\":3923:3925   */\n      dup2\n        /* \"#utility.yul\":3919:3921   */\n      dup2\n        /* \"#utility.yul\":3916:3926   */\n      gt\n        /* \"#utility.yul\":3913:3949   */\n      iszero\n      tag_255\n      jumpi\n        /* \"#utility.yul\":3929:3947   */\n      tag_255\n      tag_211\n      jump\t// in\n    tag_255:\n        /* \"#utility.yul\":3975:3977   */\n      dup1\n        /* \"#utility.yul\":3972:3973   */\n      0x05\n        /* \"#utility.yul\":3968:3978   */\n      shl\n        /* \"#utility.yul\":4007:4009   */\n      0x40\n        /* \"#utility.yul\":4001:4010   */\n      mload\n        /* \"#utility.yul\":4070:4072   */\n      0x1f\n        /* \"#utility.yul\":4066:4073   */\n      not\n        /* \"#utility.yul\":4061:4063   */\n      0x3f\n        /* \"#utility.yul\":4057:4059   */\n      dup4\n        /* \"#utility.yul\":4053:4064   */\n      add\n        /* \"#utility.yul\":4049:4074   */\n      and\n        /* \"#utility.yul\":4041:4047   */\n      dup2\n        /* \"#utility.yul\":4037:4075   */\n      add\n        /* \"#utility.yul\":4125:4131   */\n      dup2\n        /* \"#utility.yul\":4113:4123   */\n      dup2\n        /* \"#utility.yul\":4110:4132   */\n      lt\n        /* \"#utility.yul\":4105:4107   */\n      dup6\n        /* \"#utility.yul\":4093:4103   */\n      dup3\n        /* \"#utility.yul\":4090:4108   */\n      gt\n        /* \"#utility.yul\":4087:4133   */\n      or\n        /* \"#utility.yul\":4084:4156   */\n      iszero\n      tag_257\n      jumpi\n        /* \"#utility.yul\":4136:4154   */\n      tag_257\n      tag_211\n      jump\t// in\n    tag_257:\n        /* \"#utility.yul\":4172:4174   */\n      0x40\n        /* \"#utility.yul\":4165:4187   */\n      mstore\n        /* \"#utility.yul\":4222:4240   */\n      swap2\n      dup3\n      mstore\n        /* \"#utility.yul\":4256:4271   */\n      dup5\n      dup3\n      add\n      swap3\n      pop\n        /* \"#utility.yul\":4298:4309   */\n      dup4\n      dup2\n      add\n        /* \"#utility.yul\":4294:4314   */\n      dup6\n      add\n      swap2\n        /* \"#utility.yul\":4326:4345   */\n      dup9\n      dup4\n      gt\n        /* \"#utility.yul\":4323:4362   */\n      iszero\n      tag_258\n      jumpi\n        /* \"#utility.yul\":4358:4359   */\n      0x00\n        /* \"#utility.yul\":4355:4356   */\n      dup1\n        /* \"#utility.yul\":4348:4360   */\n      revert\n        /* \"#utility.yul\":4323:4362   */\n    tag_258:\n        /* \"#utility.yul\":4382:4393   */\n      swap4\n      dup6\n      add\n      swap4\n        /* \"#utility.yul\":4402:4550   */\n    tag_259:\n        /* \"#utility.yul\":4418:4424   */\n      dup3\n        /* \"#utility.yul\":4413:4416   */\n      dup6\n        /* \"#utility.yul\":4410:4425   */\n      lt\n        /* \"#utility.yul\":4402:4550   */\n      iszero\n      tag_261\n      jumpi\n        /* \"#utility.yul\":4484:4507   */\n      tag_262\n        /* \"#utility.yul\":4503:4506   */\n      dup6\n        /* \"#utility.yul\":4484:4507   */\n      tag_210\n      jump\t// in\n    tag_262:\n        /* \"#utility.yul\":4472:4508   */\n      dup5\n      mstore\n        /* \"#utility.yul\":4435:4447   */\n      swap4\n      dup6\n      add\n      swap4\n        /* \"#utility.yul\":4528:4540   */\n      swap3\n      dup6\n      add\n      swap3\n        /* \"#utility.yul\":4402:4550   */\n      jump(tag_259)\n    tag_261:\n        /* \"#utility.yul\":4569:4575   */\n      swap9\n        /* \"#utility.yul\":3460:4581   */\n      swap8\n      pop\n      pop\n      pop\n      pop\n      pop\n      pop\n      pop\n      pop\n      jump\t// out\n        /* \"#utility.yul\":4586:4914   */\n    tag_132:\n        /* \"#utility.yul\":4788:4790   */\n      0x20\n        /* \"#utility.yul\":4770:4791   */\n      dup1\n      dup3\n      mstore\n        /* \"#utility.yul\":4827:4828   */\n      0x05\n        /* \"#utility.yul\":4807:4825   */\n      swap1\n      dup3\n      add\n        /* \"#utility.yul\":4800:4829   */\n      mstore\n      shl(0xd9, 0x2720a827a3)\n        /* \"#utility.yul\":4860:4862   */\n      0x40\n        /* \"#utility.yul\":4845:4863   */\n      dup3\n      add\n        /* \"#utility.yul\":4838:4873   */\n      mstore\n        /* \"#utility.yul\":4905:4907   */\n      0x60\n        /* \"#utility.yul\":4890:4908   */\n      add\n      swap1\n        /* \"#utility.yul\":4586:4914   */\n      jump\t// out\n        /* \"#utility.yul\":4919:5046   */\n    tag_212:\n        /* \"#utility.yul\":4980:4990   */\n      0x4e487b71\n        /* \"#utility.yul\":4975:4978   */\n      0xe0\n        /* \"#utility.yul\":4971:4991   */\n      shl\n        /* \"#utility.yul\":4968:4969   */\n      0x00\n        /* \"#utility.yul\":4961:4992   */\n      mstore\n        /* \"#utility.yul\":5011:5015   */\n      0x11\n        /* \"#utility.yul\":5008:5009   */\n      0x04\n        /* \"#utility.yul\":5001:5016   */\n      mstore\n        /* \"#utility.yul\":5035:5039   */\n      0x24\n        /* \"#utility.yul\":5032:5033   */\n      0x00\n        /* \"#utility.yul\":5025:5040   */\n      revert\n        /* \"#utility.yul\":5051:5176   */\n    tag_134:\n        /* \"#utility.yul\":5116:5125   */\n      dup1\n      dup3\n      add\n        /* \"#utility.yul\":5137:5147   */\n      dup1\n      dup3\n      gt\n        /* \"#utility.yul\":5134:5170   */\n      iszero\n      tag_135\n      jumpi\n        /* \"#utility.yul\":5150:5168   */\n      tag_135\n      tag_212\n      jump\t// in\n        /* \"#utility.yul\":5845:5973   */\n    tag_181:\n        /* \"#utility.yul\":5912:5921   */\n      dup2\n      dup2\n      sub\n        /* \"#utility.yul\":5933:5944   */\n      dup2\n      dup2\n      gt\n        /* \"#utility.yul\":5930:5967   */\n      iszero\n      tag_135\n      jumpi\n        /* \"#utility.yul\":5947:5965   */\n      tag_135\n      tag_212\n      jump\t// in\n        /* \"#utility.yul\":6309:6436   */\n    tag_207:\n        /* \"#utility.yul\":6370:6380   */\n      0x4e487b71\n        /* \"#utility.yul\":6365:6368   */\n      0xe0\n        /* \"#utility.yul\":6361:6381   */\n      shl\n        /* \"#utility.yul\":6358:6359   */\n      0x00\n        /* \"#utility.yul\":6351:6382   */\n      mstore\n        /* \"#utility.yul\":6401:6405   */\n      0x32\n        /* \"#utility.yul\":6398:6399   */\n      0x04\n        /* \"#utility.yul\":6391:6406   */\n      mstore\n        /* \"#utility.yul\":6425:6429   */\n      0x24\n        /* \"#utility.yul\":6422:6423   */\n      0x00\n        /* \"#utility.yul\":6415:6430   */\n      revert\n        /* \"#utility.yul\":6441:6576   */\n    tag_209:\n        /* \"#utility.yul\":6480:6483   */\n      0x00\n        /* \"#utility.yul\":6501:6518   */\n      0x01\n      dup3\n      add\n        /* \"#utility.yul\":6498:6541   */\n      tag_277\n      jumpi\n        /* \"#utility.yul\":6521:6539   */\n      tag_277\n      tag_212\n      jump\t// in\n    tag_277:\n      pop\n        /* \"#utility.yul\":6568:6569   */\n      0x01\n        /* \"#utility.yul\":6557:6570   */\n      add\n      swap1\n        /* \"#utility.yul\":6441:6576   */\n      jump\t// out\n\n    auxdata: 0xa2646970667358221220b2ec30255e99a93b655de1cbc9f9ec8a1dcaeac9a63eaa2bb1b6d18ced9d136864736f6c63430008110033\n}\n",
				"bytecode": {
					"linkReferences": {},
					"object": "60a060405234801561001057600080fd5b5033608052608051610e65610037600039600081816102d20152610a4b0152610e656000f3fe608060405234801561001057600080fd5b50600436106101585760003560e01c806394fb7881116100c3578063bcae68241161007c578063bcae6824146103e9578063bea75cf4146103fc578063d050a7c81461040f578063daa3029814610422578063dae382d614610462578063e4cdc1ad1461047557600080fd5b806394fb788114610328578063b0b4dfaa14610351578063b54cb16514610364578063b8c2e4f314610377578063ba6b89731461038a578063babeac63146103c057600080fd5b80637db79a3d116101155780637db79a3d146102465780637edd4d4d146102595780638052ce111461029257806383883fe3146102b25780638da5cb5b146102c55780638fcfa775146102fc57600080fd5b80630f04ba671461015d57806336721cd41461019e578063576ff163146101d557806359ed43e2146101ea578063783ff1f1146101fd5780637c1edb9d14610210575b600080fd5b61018961016b366004610b2e565b6001600160a01b031660009081526001602052604090205460ff1690565b60405190151581526020015b60405180910390f35b6101c76101ac366004610b2e565b6001600160a01b031660009081526002602052604090205490565b604051908152602001610195565b6101e86101e3366004610b50565b610488565b005b6101c76101f8366004610b7c565b61050b565b6101e861020b366004610b2e565b610536565b6101c761021e366004610b7c565b6001600160a01b03919091166000908152600360209081526040808320938352929052205490565b6101e8610254366004610ba6565b6105a2565b6101c7610267366004610bea565b6001600160a01b03918216600090815260046020908152604080832093909416825291909152205490565b6101c76102a0366004610c14565b60009081526006602052604090205490565b6101e86102c0366004610b50565b610635565b6040516001600160a01b037f0000000000000000000000000000000000000000000000000000000000000000168152602001610195565b61018961030a366004610b2e565b6001600160a01b031660009081526020819052604090205460ff1690565b6101c7610336366004610b2e565b6001600160a01b031660009081526008602052604090205490565b6101e861035f366004610c2d565b6106a6565b6101e8610372366004610c14565b61072c565b6101e8610385366004610c62565b61079c565b6101c7610398366004610b7c565b6001600160a01b03919091166000908152600760209081526040808320938352929052205490565b6101c76103ce366004610b2e565b6001600160a01b03166000908152600a602052604090205490565b6101e86103f7366004610b50565b61081c565b6101e861040a366004610b7c565b6108dd565b6101e861041d366004610b7c565b61095a565b6101c7610430366004610c9e565b6001600160a01b0392831660009081526005602090815260408083209490951682529283528381209181529152205490565b6101e8610470366004610b2e565b6109d7565b6101e8610483366004610ce0565b610a49565b3360009081526001602052604090205460ff16806104b557503360009081526020819052604090205460ff165b6104da5760405162461bcd60e51b81526004016104d190610da5565b60405180910390fd5b6001600160a01b03811660009081526002602052604081208054849290610502908490610dda565b90915550505050565b6001600160a01b03821660009081526009602090815260408083208484529091529020545b92915050565b3360009081526020819052604090205460ff1661057b5760405162461bcd60e51b815260206004820152600360248201526204e41560ec1b60448201526064016104d1565b6001600160a01b03166000908152600160208190526040909120805460ff19169091179055565b3360009081526001602052604090205460ff16806105cf57503360009081526020819052604090205460ff165b6105eb5760405162461bcd60e51b81526004016104d190610da5565b6001600160a01b03808416600090815260056020908152604080832093861683529281528282208483529052908120805486929061062a908490610dda565b909155505050505050565b3360009081526001602052604090205460ff168061066257503360009081526020819052604090205460ff165b61067e5760405162461bcd60e51b81526004016104d190610da5565b6001600160a01b0381166000908152600a602052604081208054849290610502908490610dda565b3360009081526001602052604090205460ff16806106d357503360009081526020819052604090205460ff165b6106ef5760405162461bcd60e51b81526004016104d190610da5565b6001600160a01b038216600090815260036020908152604080832084845290915281208054859290610722908490610dda565b9091555050505050565b3360009081526001602052604090205460ff168061075957503360009081526020819052604090205460ff165b6107755760405162461bcd60e51b81526004016104d190610da5565b6000818152600660205260408120805460019290610794908490610dda565b909155505050565b3360009081526001602052604090205460ff16806107c957503360009081526020819052604090205460ff165b6107e55760405162461bcd60e51b81526004016104d190610da5565b6001600160a01b03808316600090815260046020908152604080832093851683529290529081208054859290610722908490610dda565b3360009081526001602052604090205460ff168061084957503360009081526020819052604090205460ff165b6108655760405162461bcd60e51b81526004016104d190610da5565b6001600160a01b0381166000908152600a60205260409020548211156108b55760405162461bcd60e51b8152602060048201526005602482015264105155159360da1b60448201526064016104d1565b6001600160a01b0381166000908152600a602052604081208054849290610502908490610ded565b3360009081526001602052604090205460ff168061090a57503360009081526020819052604090205460ff165b6109265760405162461bcd60e51b81526004016104d190610da5565b6001600160a01b03821660009081526007602090815260408083208484529091528120805460019290610502908490610dda565b3360009081526001602052604090205460ff168061098757503360009081526020819052604090205460ff165b6109a35760405162461bcd60e51b81526004016104d190610da5565b6001600160a01b03821660009081526009602090815260408083208484529091528120805460019290610502908490610dda565b3360009081526001602052604090205460ff1680610a0457503360009081526020819052604090205460ff165b610a205760405162461bcd60e51b81526004016104d190610da5565b6001600160a01b0381166000908152600860205260408120805460019290610794908490610dda565b7f00000000000000000000000000000000000000000000000000000000000000006001600160a01b03163314610aa75760405162461bcd60e51b81526020600482015260036024820152624e544f60e81b60448201526064016104d1565b60005b8151811015610b0e576001600080848481518110610aca57610aca610e00565b6020908102919091018101516001600160a01b03168252810191909152604001600020805460ff191691151591909117905580610b0681610e16565b915050610aaa565b5050565b80356001600160a01b0381168114610b2957600080fd5b919050565b600060208284031215610b4057600080fd5b610b4982610b12565b9392505050565b60008060408385031215610b6357600080fd5b82359150610b7360208401610b12565b90509250929050565b60008060408385031215610b8f57600080fd5b610b9883610b12565b946020939093013593505050565b60008060008060808587031215610bbc57600080fd5b84359350610bcc60208601610b12565b9250610bda60408601610b12565b9396929550929360600135925050565b60008060408385031215610bfd57600080fd5b610c0683610b12565b9150610b7360208401610b12565b600060208284031215610c2657600080fd5b5035919050565b600080600060608486031215610c4257600080fd5b83359250610c5260208501610b12565b9150604084013590509250925092565b600080600060608486031215610c7757600080fd5b83359250610c8760208501610b12565b9150610c9560408501610b12565b90509250925092565b600080600060608486031215610cb357600080fd5b610cbc84610b12565b9250610c5260208501610b12565b634e487b7160e01b600052604160045260246000fd5b60006020808385031215610cf357600080fd5b823567ffffffffffffffff80821115610d0b57600080fd5b818501915085601f830112610d1f57600080fd5b813581811115610d3157610d31610cca565b8060051b604051601f19603f83011681018181108582111715610d5657610d56610cca565b604052918252848201925083810185019188831115610d7457600080fd5b938501935b82851015610d9957610d8a85610b12565b84529385019392850192610d79565b98975050505050505050565b6020808252600590820152642720a827a360d91b604082015260600190565b634e487b7160e01b600052601160045260246000fd5b8082018082111561053057610530610dc4565b8181038181111561053057610530610dc4565b634e487b7160e01b600052603260045260246000fd5b600060018201610e2857610e28610dc4565b506001019056fea2646970667358221220b2ec30255e99a93b655de1cbc9f9ec8a1dcaeac9a63eaa2bb1b6d18ced9d136864736f6c63430008110033",
					"opcodes": "PUSH1 0xA0 PUSH1 0x40 MSTORE CALLVALUE DUP1 ISZERO PUSH2 0x10 JUMPI PUSH1 0x0 DUP1 REVERT JUMPDEST POP CALLER PUSH1 0x80 MSTORE PUSH1 0x80 MLOAD PUSH2 0xE65 PUSH2 0x37 PUSH1 0x0 CODECOPY PUSH1 0x0 DUP2 DUP2 PUSH2 0x2D2 ADD MSTORE PUSH2 0xA4B ADD MSTORE PUSH2 0xE65 PUSH1 0x0 RETURN INVALID PUSH1 0x80 PUSH1 0x40 MSTORE CALLVALUE DUP1 ISZERO PUSH2 0x10 JUMPI PUSH1 0x0 DUP1 REVERT JUMPDEST POP PUSH1 0x4 CALLDATASIZE LT PUSH2 0x158 JUMPI PUSH1 0x0 CALLDATALOAD PUSH1 0xE0 SHR DUP1 PUSH4 0x94FB7881 GT PUSH2 0xC3 JUMPI DUP1 PUSH4 0xBCAE6824 GT PUSH2 0x7C JUMPI DUP1 PUSH4 0xBCAE6824 EQ PUSH2 0x3E9 JUMPI DUP1 PUSH4 0xBEA75CF4 EQ PUSH2 0x3FC JUMPI DUP1 PUSH4 0xD050A7C8 EQ PUSH2 0x40F JUMPI DUP1 PUSH4 0xDAA30298 EQ PUSH2 0x422 JUMPI DUP1 PUSH4 0xDAE382D6 EQ PUSH2 0x462 JUMPI DUP1 PUSH4 0xE4CDC1AD EQ PUSH2 0x475 JUMPI PUSH1 0x0 DUP1 REVERT JUMPDEST DUP1 PUSH4 0x94FB7881 EQ PUSH2 0x328 JUMPI DUP1 PUSH4 0xB0B4DFAA EQ PUSH2 0x351 JUMPI DUP1 PUSH4 0xB54CB165 EQ PUSH2 0x364 JUMPI DUP1 PUSH4 0xB8C2E4F3 EQ PUSH2 0x377 JUMPI DUP1 PUSH4 0xBA6B8973 EQ PUSH2 0x38A JUMPI DUP1 PUSH4 0xBABEAC63 EQ PUSH2 0x3C0 JUMPI PUSH1 0x0 DUP1 REVERT JUMPDEST DUP1 PUSH4 0x7DB79A3D GT PUSH2 0x115 JUMPI DUP1 PUSH4 0x7DB79A3D EQ PUSH2 0x246 JUMPI DUP1 PUSH4 0x7EDD4D4D EQ PUSH2 0x259 JUMPI DUP1 PUSH4 0x8052CE11 EQ PUSH2 0x292 JUMPI DUP1 PUSH4 0x83883FE3 EQ PUSH2 0x2B2 JUMPI DUP1 PUSH4 0x8DA5CB5B EQ PUSH2 0x2C5 JUMPI DUP1 PUSH4 0x8FCFA775 EQ PUSH2 0x2FC JUMPI PUSH1 0x0 DUP1 REVERT JUMPDEST DUP1 PUSH4 0xF04BA67 EQ PUSH2 0x15D JUMPI DUP1 PUSH4 0x36721CD4 EQ PUSH2 0x19E JUMPI DUP1 PUSH4 0x576FF163 EQ PUSH2 0x1D5 JUMPI DUP1 PUSH4 0x59ED43E2 EQ PUSH2 0x1EA JUMPI DUP1 PUSH4 0x783FF1F1 EQ PUSH2 0x1FD JUMPI DUP1 PUSH4 0x7C1EDB9D EQ PUSH2 0x210 JUMPI JUMPDEST PUSH1 0x0 DUP1 REVERT JUMPDEST PUSH2 0x189 PUSH2 0x16B CALLDATASIZE PUSH1 0x4 PUSH2 0xB2E JUMP JUMPDEST PUSH1 0x1 PUSH1 0x1 PUSH1 0xA0 SHL SUB AND PUSH1 0x0 SWAP1 DUP2 MSTORE PUSH1 0x1 PUSH1 0x20 MSTORE PUSH1 0x40 SWAP1 KECCAK256 SLOAD PUSH1 0xFF AND SWAP1 JUMP JUMPDEST PUSH1 0x40 MLOAD SWAP1 ISZERO ISZERO DUP2 MSTORE PUSH1 0x20 ADD JUMPDEST PUSH1 0x40 MLOAD DUP1 SWAP2 SUB SWAP1 RETURN JUMPDEST PUSH2 0x1C7 PUSH2 0x1AC CALLDATASIZE PUSH1 0x4 PUSH2 0xB2E JUMP JUMPDEST PUSH1 0x1 PUSH1 0x1 PUSH1 0xA0 SHL SUB AND PUSH1 0x0 SWAP1 DUP2 MSTORE PUSH1 0x2 PUSH1 0x20 MSTORE PUSH1 0x40 SWAP1 KECCAK256 SLOAD SWAP1 JUMP JUMPDEST PUSH1 0x40 MLOAD SWAP1 DUP2 MSTORE PUSH1 0x20 ADD PUSH2 0x195 JUMP JUMPDEST PUSH2 0x1E8 PUSH2 0x1E3 CALLDATASIZE PUSH1 0x4 PUSH2 0xB50 JUMP JUMPDEST PUSH2 0x488 JUMP JUMPDEST STOP JUMPDEST PUSH2 0x1C7 PUSH2 0x1F8 CALLDATASIZE PUSH1 0x4 PUSH2 0xB7C JUMP JUMPDEST PUSH2 0x50B JUMP JUMPDEST PUSH2 0x1E8 PUSH2 0x20B CALLDATASIZE PUSH1 0x4 PUSH2 0xB2E JUMP JUMPDEST PUSH2 0x536 JUMP JUMPDEST PUSH2 0x1C7 PUSH2 0x21E CALLDATASIZE PUSH1 0x4 PUSH2 0xB7C JUMP JUMPDEST PUSH1 0x1 PUSH1 0x1 PUSH1 0xA0 SHL SUB SWAP2 SWAP1 SWAP2 AND PUSH1 0x0 SWAP1 DUP2 MSTORE PUSH1 0x3 PUSH1 0x20 SWAP1 DUP2 MSTORE PUSH1 0x40 DUP1 DUP4 KECCAK256 SWAP4 DUP4 MSTORE SWAP3 SWAP1 MSTORE KECCAK256 SLOAD SWAP1 JUMP JUMPDEST PUSH2 0x1E8 PUSH2 0x254 CALLDATASIZE PUSH1 0x4 PUSH2 0xBA6 JUMP JUMPDEST PUSH2 0x5A2 JUMP JUMPDEST PUSH2 0x1C7 PUSH2 0x267 CALLDATASIZE PUSH1 0x4 PUSH2 0xBEA JUMP JUMPDEST PUSH1 0x1 PUSH1 0x1 PUSH1 0xA0 SHL SUB SWAP2 DUP3 AND PUSH1 0x0 SWAP1 DUP2 MSTORE PUSH1 0x4 PUSH1 0x20 SWAP1 DUP2 MSTORE PUSH1 0x40 DUP1 DUP4 KECCAK256 SWAP4 SWAP1 SWAP5 AND DUP3 MSTORE SWAP2 SWAP1 SWAP2 MSTORE KECCAK256 SLOAD SWAP1 JUMP JUMPDEST PUSH2 0x1C7 PUSH2 0x2A0 CALLDATASIZE PUSH1 0x4 PUSH2 0xC14 JUMP JUMPDEST PUSH1 0x0 SWAP1 DUP2 MSTORE PUSH1 0x6 PUSH1 0x20 MSTORE PUSH1 0x40 SWAP1 KECCAK256 SLOAD SWAP1 JUMP JUMPDEST PUSH2 0x1E8 PUSH2 0x2C0 CALLDATASIZE PUSH1 0x4 PUSH2 0xB50 JUMP JUMPDEST PUSH2 0x635 JUMP JUMPDEST PUSH1 0x40 MLOAD PUSH1 0x1 PUSH1 0x1 PUSH1 0xA0 SHL SUB PUSH32 0x0 AND DUP2 MSTORE PUSH1 0x20 ADD PUSH2 0x195 JUMP JUMPDEST PUSH2 0x189 PUSH2 0x30A CALLDATASIZE PUSH1 0x4 PUSH2 0xB2E JUMP JUMPDEST PUSH1 0x1 PUSH1 0x1 PUSH1 0xA0 SHL SUB AND PUSH1 0x0 SWAP1 DUP2 MSTORE PUSH1 0x20 DUP2 SWAP1 MSTORE PUSH1 0x40 SWAP1 KECCAK256 SLOAD PUSH1 0xFF AND SWAP1 JUMP JUMPDEST PUSH2 0x1C7 PUSH2 0x336 CALLDATASIZE PUSH1 0x4 PUSH2 0xB2E JUMP JUMPDEST PUSH1 0x1 PUSH1 0x1 PUSH1 0xA0 SHL SUB AND PUSH1 0x0 SWAP1 DUP2 MSTORE PUSH1 0x8 PUSH1 0x20 MSTORE PUSH1 0x40 SWAP1 KECCAK256 SLOAD SWAP1 JUMP JUMPDEST PUSH2 0x1E8 PUSH2 0x35F CALLDATASIZE PUSH1 0x4 PUSH2 0xC2D JUMP JUMPDEST PUSH2 0x6A6 JUMP JUMPDEST PUSH2 0x1E8 PUSH2 0x372 CALLDATASIZE PUSH1 0x4 PUSH2 0xC14 JUMP JUMPDEST PUSH2 0x72C JUMP JUMPDEST PUSH2 0x1E8 PUSH2 0x385 CALLDATASIZE PUSH1 0x4 PUSH2 0xC62 JUMP JUMPDEST PUSH2 0x79C JUMP JUMPDEST PUSH2 0x1C7 PUSH2 0x398 CALLDATASIZE PUSH1 0x4 PUSH2 0xB7C JUMP JUMPDEST PUSH1 0x1 PUSH1 0x1 PUSH1 0xA0 SHL SUB SWAP2 SWAP1 SWAP2 AND PUSH1 0x0 SWAP1 DUP2 MSTORE PUSH1 0x7 PUSH1 0x20 SWAP1 DUP2 MSTORE PUSH1 0x40 DUP1 DUP4 KECCAK256 SWAP4 DUP4 MSTORE SWAP3 SWAP1 MSTORE KECCAK256 SLOAD SWAP1 JUMP JUMPDEST PUSH2 0x1C7 PUSH2 0x3CE CALLDATASIZE PUSH1 0x4 PUSH2 0xB2E JUMP JUMPDEST PUSH1 0x1 PUSH1 0x1 PUSH1 0xA0 SHL SUB AND PUSH1 0x0 SWAP1 DUP2 MSTORE PUSH1 0xA PUSH1 0x20 MSTORE PUSH1 0x40 SWAP1 KECCAK256 SLOAD SWAP1 JUMP JUMPDEST PUSH2 0x1E8 PUSH2 0x3F7 CALLDATASIZE PUSH1 0x4 PUSH2 0xB50 JUMP JUMPDEST PUSH2 0x81C JUMP JUMPDEST PUSH2 0x1E8 PUSH2 0x40A CALLDATASIZE PUSH1 0x4 PUSH2 0xB7C JUMP JUMPDEST PUSH2 0x8DD JUMP JUMPDEST PUSH2 0x1E8 PUSH2 0x41D CALLDATASIZE PUSH1 0x4 PUSH2 0xB7C JUMP JUMPDEST PUSH2 0x95A JUMP JUMPDEST PUSH2 0x1C7 PUSH2 0x430 CALLDATASIZE PUSH1 0x4 PUSH2 0xC9E JUMP JUMPDEST PUSH1 0x1 PUSH1 0x1 PUSH1 0xA0 SHL SUB SWAP3 DUP4 AND PUSH1 0x0 SWAP1 DUP2 MSTORE PUSH1 0x5 PUSH1 0x20 SWAP1 DUP2 MSTORE PUSH1 0x40 DUP1 DUP4 KECCAK256 SWAP5 SWAP1 SWAP6 AND DUP3 MSTORE SWAP3 DUP4 MSTORE DUP4 DUP2 KECCAK256 SWAP2 DUP2 MSTORE SWAP2 MSTORE KECCAK256 SLOAD SWAP1 JUMP JUMPDEST PUSH2 0x1E8 PUSH2 0x470 CALLDATASIZE PUSH1 0x4 PUSH2 0xB2E JUMP JUMPDEST PUSH2 0x9D7 JUMP JUMPDEST PUSH2 0x1E8 PUSH2 0x483 CALLDATASIZE PUSH1 0x4 PUSH2 0xCE0 JUMP JUMPDEST PUSH2 0xA49 JUMP JUMPDEST CALLER PUSH1 0x0 SWAP1 DUP2 MSTORE PUSH1 0x1 PUSH1 0x20 MSTORE PUSH1 0x40 SWAP1 KECCAK256 SLOAD PUSH1 0xFF AND DUP1 PUSH2 0x4B5 JUMPI POP CALLER PUSH1 0x0 SWAP1 DUP2 MSTORE PUSH1 0x20 DUP2 SWAP1 MSTORE PUSH1 0x40 SWAP1 KECCAK256 SLOAD PUSH1 0xFF AND JUMPDEST PUSH2 0x4DA JUMPI PUSH1 0x40 MLOAD PUSH3 0x461BCD PUSH1 0xE5 SHL DUP2 MSTORE PUSH1 0x4 ADD PUSH2 0x4D1 SWAP1 PUSH2 0xDA5 JUMP JUMPDEST PUSH1 0x40 MLOAD DUP1 SWAP2 SUB SWAP1 REVERT JUMPDEST PUSH1 0x1 PUSH1 0x1 PUSH1 0xA0 SHL SUB DUP2 AND PUSH1 0x0 SWAP1 DUP2 MSTORE PUSH1 0x2 PUSH1 0x20 MSTORE PUSH1 0x40 DUP2 KECCAK256 DUP1 SLOAD DUP5 SWAP3 SWAP1 PUSH2 0x502 SWAP1 DUP5 SWAP1 PUSH2 0xDDA JUMP JUMPDEST SWAP1 SWAP2 SSTORE POP POP POP POP JUMP JUMPDEST PUSH1 0x1 PUSH1 0x1 PUSH1 0xA0 SHL SUB DUP3 AND PUSH1 0x0 SWAP1 DUP2 MSTORE PUSH1 0x9 PUSH1 0x20 SWAP1 DUP2 MSTORE PUSH1 0x40 DUP1 DUP4 KECCAK256 DUP5 DUP5 MSTORE SWAP1 SWAP2 MSTORE SWAP1 KECCAK256 SLOAD JUMPDEST SWAP3 SWAP2 POP POP JUMP JUMPDEST CALLER PUSH1 0x0 SWAP1 DUP2 MSTORE PUSH1 0x20 DUP2 SWAP1 MSTORE PUSH1 0x40 SWAP1 KECCAK256 SLOAD PUSH1 0xFF AND PUSH2 0x57B JUMPI PUSH1 0x40 MLOAD PUSH3 0x461BCD PUSH1 0xE5 SHL DUP2 MSTORE PUSH1 0x20 PUSH1 0x4 DUP3 ADD MSTORE PUSH1 0x3 PUSH1 0x24 DUP3 ADD MSTORE PUSH3 0x4E415 PUSH1 0xEC SHL PUSH1 0x44 DUP3 ADD MSTORE PUSH1 0x64 ADD PUSH2 0x4D1 JUMP JUMPDEST PUSH1 0x1 PUSH1 0x1 PUSH1 0xA0 SHL SUB AND PUSH1 0x0 SWAP1 DUP2 MSTORE PUSH1 0x1 PUSH1 0x20 DUP2 SWAP1 MSTORE PUSH1 0x40 SWAP1 SWAP2 KECCAK256 DUP1 SLOAD PUSH1 0xFF NOT AND SWAP1 SWAP2 OR SWAP1 SSTORE JUMP JUMPDEST CALLER PUSH1 0x0 SWAP1 DUP2 MSTORE PUSH1 0x1 PUSH1 0x20 MSTORE PUSH1 0x40 SWAP1 KECCAK256 SLOAD PUSH1 0xFF AND DUP1 PUSH2 0x5CF JUMPI POP CALLER PUSH1 0x0 SWAP1 DUP2 MSTORE PUSH1 0x20 DUP2 SWAP1 MSTORE PUSH1 0x40 SWAP1 KECCAK256 SLOAD PUSH1 0xFF AND JUMPDEST PUSH2 0x5EB JUMPI PUSH1 0x40 MLOAD PUSH3 0x461BCD PUSH1 0xE5 SHL DUP2 MSTORE PUSH1 0x4 ADD PUSH2 0x4D1 SWAP1 PUSH2 0xDA5 JUMP JUMPDEST PUSH1 0x1 PUSH1 0x1 PUSH1 0xA0 SHL SUB DUP1 DUP5 AND PUSH1 0x0 SWAP1 DUP2 MSTORE PUSH1 0x5 PUSH1 0x20 SWAP1 DUP2 MSTORE PUSH1 0x40 DUP1 DUP4 KECCAK256 SWAP4 DUP7 AND DUP4 MSTORE SWAP3 DUP2 MSTORE DUP3 DUP3 KECCAK256 DUP5 DUP4 MSTORE SWAP1 MSTORE SWAP1 DUP2 KECCAK256 DUP1 SLOAD DUP7 SWAP3 SWAP1 PUSH2 0x62A SWAP1 DUP5 SWAP1 PUSH2 0xDDA JUMP JUMPDEST SWAP1 SWAP2 SSTORE POP POP POP POP POP POP JUMP JUMPDEST CALLER PUSH1 0x0 SWAP1 DUP2 MSTORE PUSH1 0x1 PUSH1 0x20 MSTORE PUSH1 0x40 SWAP1 KECCAK256 SLOAD PUSH1 0xFF AND DUP1 PUSH2 0x662 JUMPI POP CALLER PUSH1 0x0 SWAP1 DUP2 MSTORE PUSH1 0x20 DUP2 SWAP1 MSTORE PUSH1 0x40 SWAP1 KECCAK256 SLOAD PUSH1 0xFF AND JUMPDEST PUSH2 0x67E JUMPI PUSH1 0x40 MLOAD PUSH3 0x461BCD PUSH1 0xE5 SHL DUP2 MSTORE PUSH1 0x4 ADD PUSH2 0x4D1 SWAP1 PUSH2 0xDA5 JUMP JUMPDEST PUSH1 0x1 PUSH1 0x1 PUSH1 0xA0 SHL SUB DUP2 AND PUSH1 0x0 SWAP1 DUP2 MSTORE PUSH1 0xA PUSH1 0x20 MSTORE PUSH1 0x40 DUP2 KECCAK256 DUP1 SLOAD DUP5 SWAP3 SWAP1 PUSH2 0x502 SWAP1 DUP5 SWAP1 PUSH2 0xDDA JUMP JUMPDEST CALLER PUSH1 0x0 SWAP1 DUP2 MSTORE PUSH1 0x1 PUSH1 0x20 MSTORE PUSH1 0x40 SWAP1 KECCAK256 SLOAD PUSH1 0xFF AND DUP1 PUSH2 0x6D3 JUMPI POP CALLER PUSH1 0x0 SWAP1 DUP2 MSTORE PUSH1 0x20 DUP2 SWAP1 MSTORE PUSH1 0x40 SWAP1 KECCAK256 SLOAD PUSH1 0xFF AND JUMPDEST PUSH2 0x6EF JUMPI PUSH1 0x40 MLOAD PUSH3 0x461BCD PUSH1 0xE5 SHL DUP2 MSTORE PUSH1 0x4 ADD PUSH2 0x4D1 SWAP1 PUSH2 0xDA5 JUMP JUMPDEST PUSH1 0x1 PUSH1 0x1 PUSH1 0xA0 SHL SUB DUP3 AND PUSH1 0x0 SWAP1 DUP2 MSTORE PUSH1 0x3 PUSH1 0x20 SWAP1 DUP2 MSTORE PUSH1 0x40 DUP1 DUP4 KECCAK256 DUP5 DUP5 MSTORE SWAP1 SWAP2 MSTORE DUP2 KECCAK256 DUP1 SLOAD DUP6 SWAP3 SWAP1 PUSH2 0x722 SWAP1 DUP5 SWAP1 PUSH2 0xDDA JUMP JUMPDEST SWAP1 SWAP2 SSTORE POP POP POP POP POP JUMP JUMPDEST CALLER PUSH1 0x0 SWAP1 DUP2 MSTORE PUSH1 0x1 PUSH1 0x20 MSTORE PUSH1 0x40 SWAP1 KECCAK256 SLOAD PUSH1 0xFF AND DUP1 PUSH2 0x759 JUMPI POP CALLER PUSH1 0x0 SWAP1 DUP2 MSTORE PUSH1 0x20 DUP2 SWAP1 MSTORE PUSH1 0x40 SWAP1 KECCAK256 SLOAD PUSH1 0xFF AND JUMPDEST PUSH2 0x775 JUMPI PUSH1 0x40 MLOAD PUSH3 0x461BCD PUSH1 0xE5 SHL DUP2 MSTORE PUSH1 0x4 ADD PUSH2 0x4D1 SWAP1 PUSH2 0xDA5 JUMP JUMPDEST PUSH1 0x0 DUP2 DUP2 MSTORE PUSH1 0x6 PUSH1 0x20 MSTORE PUSH1 0x40 DUP2 KECCAK256 DUP1 SLOAD PUSH1 0x1 SWAP3 SWAP1 PUSH2 0x794 SWAP1 DUP5 SWAP1 PUSH2 0xDDA JUMP JUMPDEST SWAP1 SWAP2 SSTORE POP POP POP JUMP JUMPDEST CALLER PUSH1 0x0 SWAP1 DUP2 MSTORE PUSH1 0x1 PUSH1 0x20 MSTORE PUSH1 0x40 SWAP1 KECCAK256 SLOAD PUSH1 0xFF AND DUP1 PUSH2 0x7C9 JUMPI POP CALLER PUSH1 0x0 SWAP1 DUP2 MSTORE PUSH1 0x20 DUP2 SWAP1 MSTORE PUSH1 0x40 SWAP1 KECCAK256 SLOAD PUSH1 0xFF AND JUMPDEST PUSH2 0x7E5 JUMPI PUSH1 0x40 MLOAD PUSH3 0x461BCD PUSH1 0xE5 SHL DUP2 MSTORE PUSH1 0x4 ADD PUSH2 0x4D1 SWAP1 PUSH2 0xDA5 JUMP JUMPDEST PUSH1 0x1 PUSH1 0x1 PUSH1 0xA0 SHL SUB DUP1 DUP4 AND PUSH1 0x0 SWAP1 DUP2 MSTORE PUSH1 0x4 PUSH1 0x20 SWAP1 DUP2 MSTORE PUSH1 0x40 DUP1 DUP4 KECCAK256 SWAP4 DUP6 AND DUP4 MSTORE SWAP3 SWAP1 MSTORE SWAP1 DUP2 KECCAK256 DUP1 SLOAD DUP6 SWAP3 SWAP1 PUSH2 0x722 SWAP1 DUP5 SWAP1 PUSH2 0xDDA JUMP JUMPDEST CALLER PUSH1 0x0 SWAP1 DUP2 MSTORE PUSH1 0x1 PUSH1 0x20 MSTORE PUSH1 0x40 SWAP1 KECCAK256 SLOAD PUSH1 0xFF AND DUP1 PUSH2 0x849 JUMPI POP CALLER PUSH1 0x0 SWAP1 DUP2 MSTORE PUSH1 0x20 DUP2 SWAP1 MSTORE PUSH1 0x40 SWAP1 KECCAK256 SLOAD PUSH1 0xFF AND JUMPDEST PUSH2 0x865 JUMPI PUSH1 0x40 MLOAD PUSH3 0x461BCD PUSH1 0xE5 SHL DUP2 MSTORE PUSH1 0x4 ADD PUSH2 0x4D1 SWAP1 PUSH2 0xDA5 JUMP JUMPDEST PUSH1 0x1 PUSH1 0x1 PUSH1 0xA0 SHL SUB DUP2 AND PUSH1 0x0 SWAP1 DUP2 MSTORE PUSH1 0xA PUSH1 0x20 MSTORE PUSH1 0x40 SWAP1 KECCAK256 SLOAD DUP3 GT ISZERO PUSH2 0x8B5 JUMPI PUSH1 0x40 MLOAD PUSH3 0x461BCD PUSH1 0xE5 SHL DUP2 MSTORE PUSH1 0x20 PUSH1 0x4 DUP3 ADD MSTORE PUSH1 0x5 PUSH1 0x24 DUP3 ADD MSTORE PUSH5 0x1051551593 PUSH1 0xDA SHL PUSH1 0x44 DUP3 ADD MSTORE PUSH1 0x64 ADD PUSH2 0x4D1 JUMP JUMPDEST PUSH1 0x1 PUSH1 0x1 PUSH1 0xA0 SHL SUB DUP2 AND PUSH1 0x0 SWAP1 DUP2 MSTORE PUSH1 0xA PUSH1 0x20 MSTORE PUSH1 0x40 DUP2 KECCAK256 DUP1 SLOAD DUP5 SWAP3 SWAP1 PUSH2 0x502 SWAP1 DUP5 SWAP1 PUSH2 0xDED JUMP JUMPDEST CALLER PUSH1 0x0 SWAP1 DUP2 MSTORE PUSH1 0x1 PUSH1 0x20 MSTORE PUSH1 0x40 SWAP1 KECCAK256 SLOAD PUSH1 0xFF AND DUP1 PUSH2 0x90A JUMPI POP CALLER PUSH1 0x0 SWAP1 DUP2 MSTORE PUSH1 0x20 DUP2 SWAP1 MSTORE PUSH1 0x40 SWAP1 KECCAK256 SLOAD PUSH1 0xFF AND JUMPDEST PUSH2 0x926 JUMPI PUSH1 0x40 MLOAD PUSH3 0x461BCD PUSH1 0xE5 SHL DUP2 MSTORE PUSH1 0x4 ADD PUSH2 0x4D1 SWAP1 PUSH2 0xDA5 JUMP JUMPDEST PUSH1 0x1 PUSH1 0x1 PUSH1 0xA0 SHL SUB DUP3 AND PUSH1 0x0 SWAP1 DUP2 MSTORE PUSH1 0x7 PUSH1 0x20 SWAP1 DUP2 MSTORE PUSH1 0x40 DUP1 DUP4 KECCAK256 DUP5 DUP5 MSTORE SWAP1 SWAP2 MSTORE DUP2 KECCAK256 DUP1 SLOAD PUSH1 0x1 SWAP3 SWAP1 PUSH2 0x502 SWAP1 DUP5 SWAP1 PUSH2 0xDDA JUMP JUMPDEST CALLER PUSH1 0x0 SWAP1 DUP2 MSTORE PUSH1 0x1 PUSH1 0x20 MSTORE PUSH1 0x40 SWAP1 KECCAK256 SLOAD PUSH1 0xFF AND DUP1 PUSH2 0x987 JUMPI POP CALLER PUSH1 0x0 SWAP1 DUP2 MSTORE PUSH1 0x20 DUP2 SWAP1 MSTORE PUSH1 0x40 SWAP1 KECCAK256 SLOAD PUSH1 0xFF AND JUMPDEST PUSH2 0x9A3 JUMPI PUSH1 0x40 MLOAD PUSH3 0x461BCD PUSH1 0xE5 SHL DUP2 MSTORE PUSH1 0x4 ADD PUSH2 0x4D1 SWAP1 PUSH2 0xDA5 JUMP JUMPDEST PUSH1 0x1 PUSH1 0x1 PUSH1 0xA0 SHL SUB DUP3 AND PUSH1 0x0 SWAP1 DUP2 MSTORE PUSH1 0x9 PUSH1 0x20 SWAP1 DUP2 MSTORE PUSH1 0x40 DUP1 DUP4 KECCAK256 DUP5 DUP5 MSTORE SWAP1 SWAP2 MSTORE DUP2 KECCAK256 DUP1 SLOAD PUSH1 0x1 SWAP3 SWAP1 PUSH2 0x502 SWAP1 DUP5 SWAP1 PUSH2 0xDDA JUMP JUMPDEST CALLER PUSH1 0x0 SWAP1 DUP2 MSTORE PUSH1 0x1 PUSH1 0x20 MSTORE PUSH1 0x40 SWAP1 KECCAK256 SLOAD PUSH1 0xFF AND DUP1 PUSH2 0xA04 JUMPI POP CALLER PUSH1 0x0 SWAP1 DUP2 MSTORE PUSH1 0x20 DUP2 SWAP1 MSTORE PUSH1 0x40 SWAP1 KECCAK256 SLOAD PUSH1 0xFF AND JUMPDEST PUSH2 0xA20 JUMPI PUSH1 0x40 MLOAD PUSH3 0x461BCD PUSH1 0xE5 SHL DUP2 MSTORE PUSH1 0x4 ADD PUSH2 0x4D1 SWAP1 PUSH2 0xDA5 JUMP JUMPDEST PUSH1 0x1 PUSH1 0x1 PUSH1 0xA0 SHL SUB DUP2 AND PUSH1 0x0 SWAP1 DUP2 MSTORE PUSH1 0x8 PUSH1 0x20 MSTORE PUSH1 0x40 DUP2 KECCAK256 DUP1 SLOAD PUSH1 0x1 SWAP3 SWAP1 PUSH2 0x794 SWAP1 DUP5 SWAP1 PUSH2 0xDDA JUMP JUMPDEST PUSH32 0x0 PUSH1 0x1 PUSH1 0x1 PUSH1 0xA0 SHL SUB AND CALLER EQ PUSH2 0xAA7 JUMPI PUSH1 0x40 MLOAD PUSH3 0x461BCD PUSH1 0xE5 SHL DUP2 MSTORE PUSH1 0x20 PUSH1 0x4 DUP3 ADD MSTORE PUSH1 0x3 PUSH1 0x24 DUP3 ADD MSTORE PUSH3 0x4E544F PUSH1 0xE8 SHL PUSH1 0x44 DUP3 ADD MSTORE PUSH1 0x64 ADD PUSH2 0x4D1 JUMP JUMPDEST PUSH1 0x0 JUMPDEST DUP2 MLOAD DUP2 LT ISZERO PUSH2 0xB0E JUMPI PUSH1 0x1 PUSH1 0x0 DUP1 DUP5 DUP5 DUP2 MLOAD DUP2 LT PUSH2 0xACA JUMPI PUSH2 0xACA PUSH2 0xE00 JUMP JUMPDEST PUSH1 0x20 SWAP1 DUP2 MUL SWAP2 SWAP1 SWAP2 ADD DUP2 ADD MLOAD PUSH1 0x1 PUSH1 0x1 PUSH1 0xA0 SHL SUB AND DUP3 MSTORE DUP2 ADD SWAP2 SWAP1 SWAP2 MSTORE PUSH1 0x40 ADD PUSH1 0x0 KECCAK256 DUP1 SLOAD PUSH1 0xFF NOT AND SWAP2 ISZERO ISZERO SWAP2 SWAP1 SWAP2 OR SWAP1 SSTORE DUP1 PUSH2 0xB06 DUP2 PUSH2 0xE16 JUMP JUMPDEST SWAP2 POP POP PUSH2 0xAAA JUMP JUMPDEST POP POP JUMP JUMPDEST DUP1 CALLDATALOAD PUSH1 0x1 PUSH1 0x1 PUSH1 0xA0 SHL SUB DUP2 AND DUP2 EQ PUSH2 0xB29 JUMPI PUSH1 0x0 DUP1 REVERT JUMPDEST SWAP2 SWAP1 POP JUMP JUMPDEST PUSH1 0x0 PUSH1 0x20 DUP3 DUP5 SUB SLT ISZERO PUSH2 0xB40 JUMPI PUSH1 0x0 DUP1 REVERT JUMPDEST PUSH2 0xB49 DUP3 PUSH2 0xB12 JUMP JUMPDEST SWAP4 SWAP3 POP POP POP JUMP JUMPDEST PUSH1 0x0 DUP1 PUSH1 0x40 DUP4 DUP6 SUB SLT ISZERO PUSH2 0xB63 JUMPI PUSH1 0x0 DUP1 REVERT JUMPDEST DUP3 CALLDATALOAD SWAP2 POP PUSH2 0xB73 PUSH1 0x20 DUP5 ADD PUSH2 0xB12 JUMP JUMPDEST SWAP1 POP SWAP3 POP SWAP3 SWAP1 POP JUMP JUMPDEST PUSH1 0x0 DUP1 PUSH1 0x40 DUP4 DUP6 SUB SLT ISZERO PUSH2 0xB8F JUMPI PUSH1 0x0 DUP1 REVERT JUMPDEST PUSH2 0xB98 DUP4 PUSH2 0xB12 JUMP JUMPDEST SWAP5 PUSH1 0x20 SWAP4 SWAP1 SWAP4 ADD CALLDATALOAD SWAP4 POP POP POP JUMP JUMPDEST PUSH1 0x0 DUP1 PUSH1 0x0 DUP1 PUSH1 0x80 DUP6 DUP8 SUB SLT ISZERO PUSH2 0xBBC JUMPI PUSH1 0x0 DUP1 REVERT JUMPDEST DUP5 CALLDATALOAD SWAP4 POP PUSH2 0xBCC PUSH1 0x20 DUP7 ADD PUSH2 0xB12 JUMP JUMPDEST SWAP3 POP PUSH2 0xBDA PUSH1 0x40 DUP7 ADD PUSH2 0xB12 JUMP JUMPDEST SWAP4 SWAP7 SWAP3 SWAP6 POP SWAP3 SWAP4 PUSH1 0x60 ADD CALLDATALOAD SWAP3 POP POP JUMP JUMPDEST PUSH1 0x0 DUP1 PUSH1 0x40 DUP4 DUP6 SUB SLT ISZERO PUSH2 0xBFD JUMPI PUSH1 0x0 DUP1 REVERT JUMPDEST PUSH2 0xC06 DUP4 PUSH2 0xB12 JUMP JUMPDEST SWAP2 POP PUSH2 0xB73 PUSH1 0x20 DUP5 ADD PUSH2 0xB12 JUMP JUMPDEST PUSH1 0x0 PUSH1 0x20 DUP3 DUP5 SUB SLT ISZERO PUSH2 0xC26 JUMPI PUSH1 0x0 DUP1 REVERT JUMPDEST POP CALLDATALOAD SWAP2 SWAP1 POP JUMP JUMPDEST PUSH1 0x0 DUP1 PUSH1 0x0 PUSH1 0x60 DUP5 DUP7 SUB SLT ISZERO PUSH2 0xC42 JUMPI PUSH1 0x0 DUP1 REVERT JUMPDEST DUP4 CALLDATALOAD SWAP3 POP PUSH2 0xC52 PUSH1 0x20 DUP6 ADD PUSH2 0xB12 JUMP JUMPDEST SWAP2 POP PUSH1 0x40 DUP5 ADD CALLDATALOAD SWAP1 POP SWAP3 POP SWAP3 POP SWAP3 JUMP JUMPDEST PUSH1 0x0 DUP1 PUSH1 0x0 PUSH1 0x60 DUP5 DUP7 SUB SLT ISZERO PUSH2 0xC77 JUMPI PUSH1 0x0 DUP1 REVERT JUMPDEST DUP4 CALLDATALOAD SWAP3 POP PUSH2 0xC87 PUSH1 0x20 DUP6 ADD PUSH2 0xB12 JUMP JUMPDEST SWAP2 POP PUSH2 0xC95 PUSH1 0x40 DUP6 ADD PUSH2 0xB12 JUMP JUMPDEST SWAP1 POP SWAP3 POP SWAP3 POP SWAP3 JUMP JUMPDEST PUSH1 0x0 DUP1 PUSH1 0x0 PUSH1 0x60 DUP5 DUP7 SUB SLT ISZERO PUSH2 0xCB3 JUMPI PUSH1 0x0 DUP1 REVERT JUMPDEST PUSH2 0xCBC DUP5 PUSH2 0xB12 JUMP JUMPDEST SWAP3 POP PUSH2 0xC52 PUSH1 0x20 DUP6 ADD PUSH2 0xB12 JUMP JUMPDEST PUSH4 0x4E487B71 PUSH1 0xE0 SHL PUSH1 0x0 MSTORE PUSH1 0x41 PUSH1 0x4 MSTORE PUSH1 0x24 PUSH1 0x0 REVERT JUMPDEST PUSH1 0x0 PUSH1 0x20 DUP1 DUP4 DUP6 SUB SLT ISZERO PUSH2 0xCF3 JUMPI PUSH1 0x0 DUP1 REVERT JUMPDEST DUP3 CALLDATALOAD PUSH8 0xFFFFFFFFFFFFFFFF DUP1 DUP3 GT ISZERO PUSH2 0xD0B JUMPI PUSH1 0x0 DUP1 REVERT JUMPDEST DUP2 DUP6 ADD SWAP2 POP DUP6 PUSH1 0x1F DUP4 ADD SLT PUSH2 0xD1F JUMPI PUSH1 0x0 DUP1 REVERT JUMPDEST DUP2 CALLDATALOAD DUP2 DUP2 GT ISZERO PUSH2 0xD31 JUMPI PUSH2 0xD31 PUSH2 0xCCA JUMP JUMPDEST DUP1 PUSH1 0x5 SHL PUSH1 0x40 MLOAD PUSH1 0x1F NOT PUSH1 0x3F DUP4 ADD AND DUP2 ADD DUP2 DUP2 LT DUP6 DUP3 GT OR ISZERO PUSH2 0xD56 JUMPI PUSH2 0xD56 PUSH2 0xCCA JUMP JUMPDEST PUSH1 0x40 MSTORE SWAP2 DUP3 MSTORE DUP5 DUP3 ADD SWAP3 POP DUP4 DUP2 ADD DUP6 ADD SWAP2 DUP9 DUP4 GT ISZERO PUSH2 0xD74 JUMPI PUSH1 0x0 DUP1 REVERT JUMPDEST SWAP4 DUP6 ADD SWAP4 JUMPDEST DUP3 DUP6 LT ISZERO PUSH2 0xD99 JUMPI PUSH2 0xD8A DUP6 PUSH2 0xB12 JUMP JUMPDEST DUP5 MSTORE SWAP4 DUP6 ADD SWAP4 SWAP3 DUP6 ADD SWAP3 PUSH2 0xD79 JUMP JUMPDEST SWAP9 SWAP8 POP POP POP POP POP POP POP POP JUMP JUMPDEST PUSH1 0x20 DUP1 DUP3 MSTORE PUSH1 0x5 SWAP1 DUP3 ADD MSTORE PUSH5 0x2720A827A3 PUSH1 0xD9 SHL PUSH1 0x40 DUP3 ADD MSTORE PUSH1 0x60 ADD SWAP1 JUMP JUMPDEST PUSH4 0x4E487B71 PUSH1 0xE0 SHL PUSH1 0x0 MSTORE PUSH1 0x11 PUSH1 0x4 MSTORE PUSH1 0x24 PUSH1 0x0 REVERT JUMPDEST DUP1 DUP3 ADD DUP1 DUP3 GT ISZERO PUSH2 0x530 JUMPI PUSH2 0x530 PUSH2 0xDC4 JUMP JUMPDEST DUP2 DUP2 SUB DUP2 DUP2 GT ISZERO PUSH2 0x530 JUMPI PUSH2 0x530 PUSH2 0xDC4 JUMP JUMPDEST PUSH4 0x4E487B71 PUSH1 0xE0 SHL PUSH1 0x0 MSTORE PUSH1 0x32 PUSH1 0x4 MSTORE PUSH1 0x24 PUSH1 0x0 REVERT JUMPDEST PUSH1 0x0 PUSH1 0x1 DUP3 ADD PUSH2 0xE28 JUMPI PUSH2 0xE28 PUSH2 0xDC4 JUMP JUMPDEST POP PUSH1 0x1 ADD SWAP1 JUMP INVALID LOG2 PUSH5 0x6970667358 0x22 SLT KECCAK256 0xB2 0xEC ADDRESS 0x25 0x5E SWAP10 0xA9 EXTCODESIZE PUSH6 0x5DE1CBC9F9EC DUP11 SAR 0xCA 0xEA 0xC9 0xA6 RETURNDATACOPY 0xAA 0x2B 0xB1 0xB6 0xD1 DUP13 0xED SWAP14 SGT PUSH9 0x64736F6C6343000811 STOP CALLER "
				},
				"gasEstimates": {
					"creation": {
						"codeDepositCost": "737000",
						"executionCost": "infinite",
						"totalCost": "infinite"
					},
					"external": {
						"decrementTVLByToken(uint256,address)": "31347",
						"fundsRaisedByCompanyAndToken(address,address)": "infinite",
						"fundsRaisedByCompanyAndTokenAndCategory(address,address,uint256)": "infinite",
						"fundsRaisedByToken(address)": "2583",
						"fundsRaisedByTokenAndCategory(address,uint256)": "2770",
						"incrementFundsRaisedByCompanyAndToken(uint256,address,address)": "infinite",
						"incrementFundsRaisedByCompanyAndTokenAndCategory(uint256,address,address,uint256)": "infinite",
						"incrementFundsRaisedByToken(uint256,address)": "29180",
						"incrementFundsRaisedByTokenAndCategory(uint256,address,uint256)": "29251",
						"incrementNumberOfIssuedBondsByCategory(uint256)": "29049",
						"incrementNumberOfIssuedBondsByCompanyAndCategory(address,uint256)": "29223",
						"incrementNumberOfTimesDefaultedByCompany(address)": "29194",
						"incrementNumberOfTimesDefaultedByCompanyAndCategory(address,uint256)": "29245",
						"incrementTVLByToken(uint256,address)": "29201",
						"isFactory(address)": "2562",
						"isPeriphery(address)": "2674",
						"numberOfIssuedBondsByCategory(uint256)": "2505",
						"numberOfIssuedBondsByCompanyAndCategory(address,uint256)": "2747",
						"numberOfTimesDefaultedByCompany(address)": "2560",
						"numberOfTimesDefaultedByCompanyAndCategory(address,uint256)": "2743",
						"owner()": "infinite",
						"registerFactory(address)": "26928",
						"registerPeriphery(address[])": "infinite",
						"tvlByToken(address)": "2670"
					}
				},
				"methodIdentifiers": {
					"decrementTVLByToken(uint256,address)": "bcae6824",
					"fundsRaisedByCompanyAndToken(address,address)": "7edd4d4d",
					"fundsRaisedByCompanyAndTokenAndCategory(address,address,uint256)": "daa30298",
					"fundsRaisedByToken(address)": "36721cd4",
					"fundsRaisedByTokenAndCategory(address,uint256)": "7c1edb9d",
					"incrementFundsRaisedByCompanyAndToken(uint256,address,address)": "b8c2e4f3",
					"incrementFundsRaisedByCompanyAndTokenAndCategory(uint256,address,address,uint256)": "7db79a3d",
					"incrementFundsRaisedByToken(uint256,address)": "576ff163",
					"incrementFundsRaisedByTokenAndCategory(uint256,address,uint256)": "b0b4dfaa",
					"incrementNumberOfIssuedBondsByCategory(uint256)": "b54cb165",
					"incrementNumberOfIssuedBondsByCompanyAndCategory(address,uint256)": "bea75cf4",
					"incrementNumberOfTimesDefaultedByCompany(address)": "dae382d6",
					"incrementNumberOfTimesDefaultedByCompanyAndCategory(address,uint256)": "d050a7c8",
					"incrementTVLByToken(uint256,address)": "83883fe3",
					"isFactory(address)": "0f04ba67",
					"isPeriphery(address)": "8fcfa775",
					"numberOfIssuedBondsByCategory(uint256)": "8052ce11",
					"numberOfIssuedBondsByCompanyAndCategory(address,uint256)": "ba6b8973",
					"numberOfTimesDefaultedByCompany(address)": "94fb7881",
					"numberOfTimesDefaultedByCompanyAndCategory(address,uint256)": "59ed43e2",
					"owner()": "8da5cb5b",
					"registerFactory(address)": "783ff1f1",
					"registerPeriphery(address[])": "e4cdc1ad",
					"tvlByToken(address)": "babeac63"
				}
			},
			"storageLayout": {
				"storage": [
					{
						"astId": 11,
						"contract": "contracts/BondDB.sol:BondDB",
						"label": "_isPeriphery",
						"offset": 0,
						"slot": "0",
						"type": "t_mapping(t_address,t_bool)"
					},
					{
						"astId": 15,
						"contract": "contracts/BondDB.sol:BondDB",
						"label": "_isFactory",
						"offset": 0,
						"slot": "1",
						"type": "t_mapping(t_address,t_bool)"
					},
					{
						"astId": 19,
						"contract": "contracts/BondDB.sol:BondDB",
						"label": "_fundsRaisedByToken",
						"offset": 0,
						"slot": "2",
						"type": "t_mapping(t_address,t_uint256)"
					},
					{
						"astId": 25,
						"contract": "contracts/BondDB.sol:BondDB",
						"label": "_fundsRaisedByTokenAndCategory",
						"offset": 0,
						"slot": "3",
						"type": "t_mapping(t_address,t_mapping(t_uint256,t_uint256))"
					},
					{
						"astId": 31,
						"contract": "contracts/BondDB.sol:BondDB",
						"label": "_fundsRaisedByCompanyAndToken",
						"offset": 0,
						"slot": "4",
						"type": "t_mapping(t_address,t_mapping(t_address,t_uint256))"
					},
					{
						"astId": 39,
						"contract": "contracts/BondDB.sol:BondDB",
						"label": "_fundsRaisedByCompanyAndTokenAndCategory",
						"offset": 0,
						"slot": "5",
						"type": "t_mapping(t_address,t_mapping(t_address,t_mapping(t_uint256,t_uint256)))"
					},
					{
						"astId": 43,
						"contract": "contracts/BondDB.sol:BondDB",
						"label": "_numberOfIssuedBondsByCategory",
						"offset": 0,
						"slot": "6",
						"type": "t_mapping(t_uint256,t_uint256)"
					},
					{
						"astId": 49,
						"contract": "contracts/BondDB.sol:BondDB",
						"label": "_numberOfIssuedBondsByCompanyAndCategory",
						"offset": 0,
						"slot": "7",
						"type": "t_mapping(t_address,t_mapping(t_uint256,t_uint256))"
					},
					{
						"astId": 53,
						"contract": "contracts/BondDB.sol:BondDB",
						"label": "_numberOfTimesDefaultedByCompany",
						"offset": 0,
						"slot": "8",
						"type": "t_mapping(t_address,t_uint256)"
					},
					{
						"astId": 59,
						"contract": "contracts/BondDB.sol:BondDB",
						"label": "_numberOfTimesDefaultedByCompanyAndCategory",
						"offset": 0,
						"slot": "9",
						"type": "t_mapping(t_address,t_mapping(t_uint256,t_uint256))"
					},
					{
						"astId": 63,
						"contract": "contracts/BondDB.sol:BondDB",
						"label": "_tvlByToken",
						"offset": 0,
						"slot": "10",
						"type": "t_mapping(t_address,t_uint256)"
					}
				],
				"types": {
					"t_address": {
						"encoding": "inplace",
						"label": "address",
						"numberOfBytes": "20"
					},
					"t_bool": {
						"encoding": "inplace",
						"label": "bool",
						"numberOfBytes": "1"
					},
					"t_mapping(t_address,t_bool)": {
						"encoding": "mapping",
						"key": "t_address",
						"label": "mapping(address => bool)",
						"numberOfBytes": "32",
						"value": "t_bool"
					},
					"t_mapping(t_address,t_mapping(t_address,t_mapping(t_uint256,t_uint256)))": {
						"encoding": "mapping",
						"key": "t_address",
						"label": "mapping(address => mapping(address => mapping(uint256 => uint256)))",
						"numberOfBytes": "32",
						"value": "t_mapping(t_address,t_mapping(t_uint256,t_uint256))"
					},
					"t_mapping(t_address,t_mapping(t_address,t_uint256))": {
						"encoding": "mapping",
						"key": "t_address",
						"label": "mapping(address => mapping(address => uint256))",
						"numberOfBytes": "32",
						"value": "t_mapping(t_address,t_uint256)"
					},
					"t_mapping(t_address,t_mapping(t_uint256,t_uint256))": {
						"encoding": "mapping",
						"key": "t_address",
						"label": "mapping(address => mapping(uint256 => uint256))",
						"numberOfBytes": "32",
						"value": "t_mapping(t_uint256,t_uint256)"
					},
					"t_mapping(t_address,t_uint256)": {
						"encoding": "mapping",
						"key": "t_address",
						"label": "mapping(address => uint256)",
						"numberOfBytes": "32",
						"value": "t_uint256"
					},
					"t_mapping(t_uint256,t_uint256)": {
						"encoding": "mapping",
						"key": "t_uint256",
						"label": "mapping(uint256 => uint256)",
						"numberOfBytes": "32",
						"value": "t_uint256"
					},
					"t_uint256": {
						"encoding": "inplace",
						"label": "uint256",
						"numberOfBytes": "32"
					}
				}
			},
			"userdoc": {
				"kind": "user",
				"methods": {},
				"notice": "PandaBond Data Aggregator Includes: Total Funds Raised in each currency: _fundsRaisedByToken Total Funds Raised in each currency by category: _fundsRaisedByTokenAndCategory Total Funds Raised in each currency by company: _fundsRaisedByCompanyAndToken Total Funds Raised in each currency by company and category: _fundsRaisedByCompanyAndTokenAndCategory Number of Issued Bonds by category: _numberOfIssuedBondsByCategory Number of Issued Bonds by company and category: _numberOfIssuedBondsByCompanyAndCategory Number of times defaulted by company: _numberOfTimesDefaultedByCompany Number of times defaulted by company and category: _numberOfTimesDefaultedByCompanyAndCategory",
				"version": 1
			}
		}
	}
}