{
  "_format": "hh-sol-artifact-1",
  "contractName": "DualCurrencyBond",
  "sourceName": "contracts/DualCurrencyBond.sol",
  "abi": [
    {
      "inputs": [
        {
          "internalType": "address",
          "name": "bondDB",
          "type": "address"
        },
        {
          "internalType": "string",
          "name": "uri",
          "type": "string"
        }
      ],
      "stateMutability": "nonpayable",
      "type": "constructor"
    },
    {
      "anonymous": false,
      "inputs": [
        {
          "indexed": true,
          "internalType": "address",
          "name": "account",
          "type": "address"
        },
        {
          "indexed": true,
          "internalType": "address",
          "name": "operator",
          "type": "address"
        },
        {
          "indexed": false,
          "internalType": "bool",
          "name": "approved",
          "type": "bool"
        }
      ],
      "name": "ApprovalForAll",
      "type": "event"
    },
    {
      "anonymous": false,
      "inputs": [
        {
          "indexed": true,
          "internalType": "address",
          "name": "operator",
          "type": "address"
        },
        {
          "indexed": true,
          "internalType": "address",
          "name": "from",
          "type": "address"
        },
        {
          "indexed": true,
          "internalType": "address",
          "name": "to",
          "type": "address"
        },
        {
          "indexed": false,
          "internalType": "uint256[]",
          "name": "ids",
          "type": "uint256[]"
        },
        {
          "indexed": false,
          "internalType": "uint256[]",
          "name": "values",
          "type": "uint256[]"
        }
      ],
      "name": "TransferBatch",
      "type": "event"
    },
    {
      "anonymous": false,
      "inputs": [
        {
          "indexed": true,
          "internalType": "address",
          "name": "operator",
          "type": "address"
        },
        {
          "indexed": true,
          "internalType": "address",
          "name": "from",
          "type": "address"
        },
        {
          "indexed": true,
          "internalType": "address",
          "name": "to",
          "type": "address"
        },
        {
          "indexed": false,
          "internalType": "uint256",
          "name": "id",
          "type": "uint256"
        },
        {
          "indexed": false,
          "internalType": "uint256",
          "name": "value",
          "type": "uint256"
        }
      ],
      "name": "TransferSingle",
      "type": "event"
    },
    {
      "anonymous": false,
      "inputs": [
        {
          "indexed": false,
          "internalType": "string",
          "name": "value",
          "type": "string"
        },
        {
          "indexed": true,
          "internalType": "uint256",
          "name": "id",
          "type": "uint256"
        }
      ],
      "name": "URI",
      "type": "event"
    },
    {
      "inputs": [
        {
          "internalType": "address",
          "name": "account",
          "type": "address"
        },
        {
          "internalType": "uint256",
          "name": "id",
          "type": "uint256"
        }
      ],
      "name": "balanceOf",
      "outputs": [
        {
          "internalType": "uint256",
          "name": "",
          "type": "uint256"
        }
      ],
      "stateMutability": "view",
      "type": "function"
    },
    {
      "inputs": [
        {
          "internalType": "address[]",
          "name": "accounts",
          "type": "address[]"
        },
        {
          "internalType": "uint256[]",
          "name": "ids",
          "type": "uint256[]"
        }
      ],
      "name": "balanceOfBatch",
      "outputs": [
        {
          "internalType": "uint256[]",
          "name": "",
          "type": "uint256[]"
        }
      ],
      "stateMutability": "view",
      "type": "function"
    },
    {
      "inputs": [
        {
          "internalType": "uint256",
          "name": "id",
          "type": "uint256"
        }
      ],
      "name": "bondData",
      "outputs": [
        {
          "internalType": "uint256",
          "name": "",
          "type": "uint256"
        },
        {
          "internalType": "uint256",
          "name": "",
          "type": "uint256"
        },
        {
          "internalType": "uint256",
          "name": "",
          "type": "uint256"
        },
        {
          "internalType": "uint256",
          "name": "",
          "type": "uint256"
        },
        {
          "internalType": "uint256",
          "name": "",
          "type": "uint256"
        },
        {
          "internalType": "uint256",
          "name": "",
          "type": "uint256"
        },
        {
          "internalType": "uint256",
          "name": "",
          "type": "uint256"
        },
        {
          "internalType": "uint256",
          "name": "",
          "type": "uint256"
        },
        {
          "internalType": "uint256",
          "name": "",
          "type": "uint256"
        },
        {
          "internalType": "uint256",
          "name": "",
          "type": "uint256"
        }
      ],
      "stateMutability": "view",
      "type": "function"
    },
    {
      "inputs": [
        {
          "internalType": "uint256",
          "name": "id",
          "type": "uint256"
        }
      ],
      "name": "bondDataAsStruct",
      "outputs": [
        {
          "components": [
            {
              "internalType": "uint256",
              "name": "tokenAAmountPerBond",
              "type": "uint256"
            },
            {
              "internalType": "uint256",
              "name": "tokenBAmountPerBond",
              "type": "uint256"
            },
            {
              "internalType": "uint256",
              "name": "initBlock",
              "type": "uint256"
            },
            {
              "internalType": "uint256",
              "name": "maturityBlock",
              "type": "uint256"
            },
            {
              "internalType": "uint256",
              "name": "endOfActiveBlock",
              "type": "uint256"
            },
            {
              "internalType": "uint256",
              "name": "activeDurationInDays",
              "type": "uint256"
            },
            {
              "internalType": "uint256",
              "name": "durationInDays",
              "type": "uint256"
            },
            {
              "internalType": "uint256",
              "name": "issuedQuantity",
              "type": "uint256"
            },
            {
              "internalType": "uint256",
              "name": "minPurchasedQuantity",
              "type": "uint256"
            },
            {
              "internalType": "uint256",
              "name": "couponRate",
              "type": "uint256"
            }
          ],
          "internalType": "struct IDualCurrencyBond.BondData",
          "name": "",
          "type": "tuple"
        }
      ],
      "stateMutability": "view",
      "type": "function"
    },
    {
      "inputs": [
        {
          "internalType": "uint256",
          "name": "id",
          "type": "uint256"
        }
      ],
      "name": "bondMetadata",
      "outputs": [
        {
          "internalType": "string",
          "name": "",
          "type": "string"
        },
        {
          "internalType": "address",
          "name": "",
          "type": "address"
        },
        {
          "internalType": "address",
          "name": "",
          "type": "address"
        },
        {
          "internalType": "address",
          "name": "",
          "type": "address"
        }
      ],
      "stateMutability": "view",
      "type": "function"
    },
    {
      "inputs": [
        {
          "internalType": "uint256",
          "name": "id",
          "type": "uint256"
        }
      ],
      "name": "bondMetadataAsStruct",
      "outputs": [
        {
          "components": [
            {
              "internalType": "string",
              "name": "ticker",
              "type": "string"
            },
            {
              "internalType": "address",
              "name": "currencyA",
              "type": "address"
            },
            {
              "internalType": "address",
              "name": "currencyB",
              "type": "address"
            },
            {
              "internalType": "address",
              "name": "issuer",
              "type": "address"
            }
          ],
          "internalType": "struct IDualCurrencyBond.BondMetadata",
          "name": "",
          "type": "tuple"
        }
      ],
      "stateMutability": "view",
      "type": "function"
    },
    {
      "inputs": [
        {
          "internalType": "address",
          "name": "account",
          "type": "address"
        },
        {
          "internalType": "uint256",
          "name": "id",
          "type": "uint256"
        },
        {
          "internalType": "uint256",
          "name": "quantity",
          "type": "uint256"
        }
      ],
      "name": "burn",
      "outputs": [],
      "stateMutability": "nonpayable",
      "type": "function"
    },
    {
      "inputs": [
        {
          "internalType": "uint256",
          "name": "id",
          "type": "uint256"
        }
      ],
      "name": "hasReachedMaturity",
      "outputs": [
        {
          "internalType": "bool",
          "name": "",
          "type": "bool"
        }
      ],
      "stateMutability": "view",
      "type": "function"
    },
    {
      "inputs": [
        {
          "internalType": "uint256",
          "name": "id",
          "type": "uint256"
        }
      ],
      "name": "isActive",
      "outputs": [
        {
          "internalType": "bool",
          "name": "",
          "type": "bool"
        }
      ],
      "stateMutability": "view",
      "type": "function"
    },
    {
      "inputs": [
        {
          "internalType": "address",
          "name": "account",
          "type": "address"
        },
        {
          "internalType": "address",
          "name": "operator",
          "type": "address"
        }
      ],
      "name": "isApprovedForAll",
      "outputs": [
        {
          "internalType": "bool",
          "name": "",
          "type": "bool"
        }
      ],
      "stateMutability": "view",
      "type": "function"
    },
    {
      "inputs": [
        {
          "internalType": "address",
          "name": "to",
          "type": "address"
        },
        {
          "internalType": "uint256",
          "name": "bondQuantity",
          "type": "uint256"
        },
        {
          "components": [
            {
              "internalType": "uint256",
              "name": "tokenAAmountPerBond",
              "type": "uint256"
            },
            {
              "internalType": "uint256",
              "name": "tokenBAmountPerBond",
              "type": "uint256"
            },
            {
              "internalType": "uint256",
              "name": "initBlock",
              "type": "uint256"
            },
            {
              "internalType": "uint256",
              "name": "maturityBlock",
              "type": "uint256"
            },
            {
              "internalType": "uint256",
              "name": "endOfActiveBlock",
              "type": "uint256"
            },
            {
              "internalType": "uint256",
              "name": "activeDurationInDays",
              "type": "uint256"
            },
            {
              "internalType": "uint256",
              "name": "durationInDays",
              "type": "uint256"
            },
            {
              "internalType": "uint256",
              "name": "issuedQuantity",
              "type": "uint256"
            },
            {
              "internalType": "uint256",
              "name": "minPurchasedQuantity",
              "type": "uint256"
            },
            {
              "internalType": "uint256",
              "name": "couponRate",
              "type": "uint256"
            }
          ],
          "internalType": "struct IDualCurrencyBond.BondData",
          "name": "data",
          "type": "tuple"
        },
        {
          "components": [
            {
              "internalType": "string",
              "name": "ticker",
              "type": "string"
            },
            {
              "internalType": "address",
              "name": "currencyA",
              "type": "address"
            },
            {
              "internalType": "address",
              "name": "currencyB",
              "type": "address"
            },
            {
              "internalType": "address",
              "name": "issuer",
              "type": "address"
            }
          ],
          "internalType": "struct IDualCurrencyBond.BondMetadata",
          "name": "metadata",
          "type": "tuple"
        }
      ],
      "name": "mint",
      "outputs": [
        {
          "internalType": "uint256",
          "name": "id",
          "type": "uint256"
        }
      ],
      "stateMutability": "nonpayable",
      "type": "function"
    },
    {
      "inputs": [],
      "name": "numBondsIssued",
      "outputs": [
        {
          "internalType": "uint256",
          "name": "",
          "type": "uint256"
        }
      ],
      "stateMutability": "view",
      "type": "function"
    },
    {
      "inputs": [
        {
          "internalType": "address",
          "name": "from",
          "type": "address"
        },
        {
          "internalType": "address",
          "name": "to",
          "type": "address"
        },
        {
          "internalType": "uint256[]",
          "name": "ids",
          "type": "uint256[]"
        },
        {
          "internalType": "uint256[]",
          "name": "amounts",
          "type": "uint256[]"
        },
        {
          "internalType": "bytes",
          "name": "data",
          "type": "bytes"
        }
      ],
      "name": "safeBatchTransferFrom",
      "outputs": [],
      "stateMutability": "nonpayable",
      "type": "function"
    },
    {
      "inputs": [
        {
          "internalType": "address",
          "name": "from",
          "type": "address"
        },
        {
          "internalType": "address",
          "name": "to",
          "type": "address"
        },
        {
          "internalType": "uint256",
          "name": "id",
          "type": "uint256"
        },
        {
          "internalType": "uint256",
          "name": "amount",
          "type": "uint256"
        },
        {
          "internalType": "bytes",
          "name": "data",
          "type": "bytes"
        }
      ],
      "name": "safeTransferFrom",
      "outputs": [],
      "stateMutability": "nonpayable",
      "type": "function"
    },
    {
      "inputs": [
        {
          "internalType": "address",
          "name": "operator",
          "type": "address"
        },
        {
          "internalType": "bool",
          "name": "approved",
          "type": "bool"
        }
      ],
      "name": "setApprovalForAll",
      "outputs": [],
      "stateMutability": "nonpayable",
      "type": "function"
    },
    {
      "inputs": [
        {
          "internalType": "bytes4",
          "name": "interfaceId",
          "type": "bytes4"
        }
      ],
      "name": "supportsInterface",
      "outputs": [
        {
          "internalType": "bool",
          "name": "",
          "type": "bool"
        }
      ],
      "stateMutability": "view",
      "type": "function"
    },
    {
      "inputs": [
        {
          "internalType": "uint256",
          "name": "id",
          "type": "uint256"
        }
      ],
      "name": "timeElapsed",
      "outputs": [
        {
          "internalType": "uint256",
          "name": "",
          "type": "uint256"
        }
      ],
      "stateMutability": "view",
      "type": "function"
    },
    {
      "inputs": [
        {
          "internalType": "uint256",
          "name": "id",
          "type": "uint256"
        }
      ],
      "name": "timeRemainingToEndOfActive",
      "outputs": [
        {
          "internalType": "uint256",
          "name": "",
          "type": "uint256"
        }
      ],
      "stateMutability": "view",
      "type": "function"
    },
    {
      "inputs": [
        {
          "internalType": "uint256",
          "name": "id",
          "type": "uint256"
        }
      ],
      "name": "timeRemainingToMaturity",
      "outputs": [
        {
          "internalType": "uint256",
          "name": "",
          "type": "uint256"
        }
      ],
      "stateMutability": "view",
      "type": "function"
    },
    {
      "inputs": [
        {
          "internalType": "uint256",
          "name": "",
          "type": "uint256"
        }
      ],
      "name": "uri",
      "outputs": [
        {
          "internalType": "string",
          "name": "",
          "type": "string"
        }
      ],
      "stateMutability": "view",
      "type": "function"
    }
  ],
  "bytecode": "0x60c06040523480156200001157600080fd5b5060405162004765380380620047658339818101604052810190620000379190620002f4565b806200004981620000d160201b60201c565b503373ffffffffffffffffffffffffffffffffffffffff1660808173ffffffffffffffffffffffffffffffffffffffff16815250508173ffffffffffffffffffffffffffffffffffffffff1660a08173ffffffffffffffffffffffffffffffffffffffff1681525050620000c96005620000e660201b6200130f1760201c565b50506200068c565b8060029081620000e29190620005a5565b5050565b6001816000016000828254019250508190555050565b6000604051905090565b600080fd5b600080fd5b600073ffffffffffffffffffffffffffffffffffffffff82169050919050565b60006200013d8262000110565b9050919050565b6200014f8162000130565b81146200015b57600080fd5b50565b6000815190506200016f8162000144565b92915050565b600080fd5b600080fd5b6000601f19601f8301169050919050565b7f4e487b7100000000000000000000000000000000000000000000000000000000600052604160045260246000fd5b620001ca826200017f565b810181811067ffffffffffffffff82111715620001ec57620001eb62000190565b5b80604052505050565b600062000201620000fc565b90506200020f8282620001bf565b919050565b600067ffffffffffffffff82111562000232576200023162000190565b5b6200023d826200017f565b9050602081019050919050565b60005b838110156200026a5780820151818401526020810190506200024d565b60008484015250505050565b60006200028d620002878462000214565b620001f5565b905082815260208101848484011115620002ac57620002ab6200017a565b5b620002b98482856200024a565b509392505050565b600082601f830112620002d957620002d862000175565b5b8151620002eb84826020860162000276565b91505092915050565b600080604083850312156200030e576200030d62000106565b5b60006200031e858286016200015e565b925050602083015167ffffffffffffffff8111156200034257620003416200010b565b5b6200035085828601620002c1565b9150509250929050565b600081519050919050565b7f4e487b7100000000000000000000000000000000000000000000000000000000600052602260045260246000fd5b60006002820490506001821680620003ad57607f821691505b602082108103620003c357620003c262000365565b5b50919050565b60008190508160005260206000209050919050565b60006020601f8301049050919050565b600082821b905092915050565b6000600883026200042d7fffffffffffffffffffffffffffffffffffffffffffffffffffffffffffffffff82620003ee565b620004398683620003ee565b95508019841693508086168417925050509392505050565b6000819050919050565b6000819050919050565b600062000486620004806200047a8462000451565b6200045b565b62000451565b9050919050565b6000819050919050565b620004a28362000465565b620004ba620004b1826200048d565b848454620003fb565b825550505050565b600090565b620004d1620004c2565b620004de81848462000497565b505050565b5b818110156200050657620004fa600082620004c7565b600181019050620004e4565b5050565b601f82111562000555576200051f81620003c9565b6200052a84620003de565b810160208510156200053a578190505b620005526200054985620003de565b830182620004e3565b50505b505050565b600082821c905092915050565b60006200057a600019846008026200055a565b1980831691505092915050565b600062000595838362000567565b9150826002028217905092915050565b620005b0826200035a565b67ffffffffffffffff811115620005cc57620005cb62000190565b5b620005d8825462000394565b620005e58282856200050a565b600060209050601f8311600181146200061d576000841562000608578287015190505b62000614858262000587565b86555062000684565b601f1984166200062d86620003c9565b60005b82811015620006575784890151825560018201915060208501945060208101905062000630565b8683101562000677578489015162000673601f89168262000567565b8355505b6001600288020188555050505b505050505050565b60805160a0516140b6620006af60003960006107a80152600050506140b66000f3fe608060405234801561001057600080fd5b506004361061012b5760003560e01c80638c3526c2116100ad578063c3ada2ed11610071578063c3ada2ed146103d2578063d3b7811b14610402578063e985e9c514610432578063f242432a14610462578063f5298aca1461047e5761012b565b80638c3526c2146102fc5780638f0dbf771461032f5780639a3cee8e1461035f5780639eade4811461037d578063a22cb465146103b65761012b565b8063455ceace116100f4578063455ceace1461020c5780634dd9c9c71461023c5780634e1273f41461026c57806382afd23b1461029c57806388bdc083146102cc5761012b565b8062fdd58e1461013057806301ffc9a71461016057806308913ce8146101905780630e89341c146101c05780632eb2c2d6146101f0575b600080fd5b61014a60048036038101906101459190612483565b61049a565b60405161015791906124d2565b60405180910390f35b61017a60048036038101906101759190612545565b610562565b604051610187919061258d565b60405180910390f35b6101aa60048036038101906101a591906125a8565b610644565b6040516101b791906124d2565b60405180910390f35b6101da60048036038101906101d591906125a8565b61066f565b6040516101e79190612665565b60405180910390f35b61020a60048036038101906102059190612884565b610703565b005b61022660048036038101906102219190612b88565b6107a4565b60405161023391906124d2565b60405180910390f35b610256600480360381019061025191906125a8565b610a37565b6040516102639190612ce8565b60405180910390f35b61028660048036038101906102819190612dc7565b610ac9565b6040516102939190612eee565b60405180910390f35b6102b660048036038101906102b191906125a8565b610be2565b6040516102c3919061258d565b60405180910390f35b6102e660048036038101906102e191906125a8565b610c05565b6040516102f391906124d2565b60405180910390f35b610316600480360381019061031191906125a8565b610c30565b6040516103269493929190612f1f565b60405180910390f35b610349600480360381019061034491906125a8565b610e10565b604051610356919061258d565b60405180910390f35b610367610e32565b60405161037491906124d2565b60405180910390f35b610397600480360381019061039291906125a8565b610e4f565b6040516103ad9a99989796959493929190612f6b565b60405180910390f35b6103d060048036038101906103cb9190613033565b610f3b565b005b6103ec60048036038101906103e791906125a8565b610f51565b6040516103f9919061312f565b60405180910390f35b61041c600480360381019061041791906125a8565b611112565b60405161042991906124d2565b60405180910390f35b61044c60048036038101906104479190613151565b61113d565b604051610459919061258d565b60405180910390f35b61047c60048036038101906104779190613191565b6111d1565b005b61049860048036038101906104939190613228565b611272565b005b60008073ffffffffffffffffffffffffffffffffffffffff168373ffffffffffffffffffffffffffffffffffffffff160361050a576040517f08c379a0000000000000000000000000000000000000000000000000000000008152600401610501906132ed565b60405180910390fd5b60008083815260200190815260200160002060008473ffffffffffffffffffffffffffffffffffffffff1673ffffffffffffffffffffffffffffffffffffffff16815260200190815260200160002054905092915050565b60007fd9b67a26000000000000000000000000000000000000000000000000000000007bffffffffffffffffffffffffffffffffffffffffffffffffffffffff1916827bffffffffffffffffffffffffffffffffffffffffffffffffffffffff1916148061062d57507f0e89341c000000000000000000000000000000000000000000000000000000007bffffffffffffffffffffffffffffffffffffffffffffffffffffffff1916827bffffffffffffffffffffffffffffffffffffffffffffffffffffffff1916145b8061063d575061063c82611325565b5b9050919050565b6000600460008381526020019081526020016000206002015442610668919061333c565b9050919050565b60606002805461067e9061339f565b80601f01602080910402602001604051908101604052809291908181526020018280546106aa9061339f565b80156106f75780601f106106cc576101008083540402835291602001916106f7565b820191906000526020600020905b8154815290600101906020018083116106da57829003601f168201915b50505050509050919050565b61070b61138f565b73ffffffffffffffffffffffffffffffffffffffff168573ffffffffffffffffffffffffffffffffffffffff16148061075157506107508561074b61138f565b61113d565b5b610790576040517f08c379a000000000000000000000000000000000000000000000000000000000815260040161078790613442565b60405180910390fd5b61079d8585858585611397565b5050505050565b60007f000000000000000000000000000000000000000000000000000000000000000073ffffffffffffffffffffffffffffffffffffffff16630f04ba67336040518263ffffffff1660e01b81526004016107ff9190613462565b602060405180830381865afa15801561081c573d6000803e3d6000fd5b505050506040513d601f19601f820116820180604052508101906108409190613492565b61087f576040517f08c379a00000000000000000000000000000000000000000000000000000000081526004016108769061350b565b60405180910390fd5b61088960056116b8565b9050610895600561130f565b816003600083815260200190815260200160002060008201518160000190816108be91906136d7565b5060208201518160010160006101000a81548173ffffffffffffffffffffffffffffffffffffffff021916908373ffffffffffffffffffffffffffffffffffffffff16021790555060408201518160020160006101000a81548173ffffffffffffffffffffffffffffffffffffffff021916908373ffffffffffffffffffffffffffffffffffffffff16021790555060608201518160030160006101000a81548173ffffffffffffffffffffffffffffffffffffffff021916908373ffffffffffffffffffffffffffffffffffffffff1602179055509050508260046000838152602001908152602001600020600082015181600001556020820151816001015560408201518160020155606082015181600301556080820151816004015560a0820151816005015560c0820151816006015560e0820151816007015561010082015181600801556101208201518160090155905050610a2f858286604051806020016040528060008152506116c6565b949350505050565b610a3f61231e565b60046000838152602001908152602001600020604051806101400160405290816000820154815260200160018201548152602001600282015481526020016003820154815260200160048201548152602001600582015481526020016006820154815260200160078201548152602001600882015481526020016009820154815250509050919050565b60608151835114610b0f576040517f08c379a0000000000000000000000000000000000000000000000000000000008152600401610b069061381b565b60405180910390fd5b6000835167ffffffffffffffff811115610b2c57610b2b61268c565b5b604051908082528060200260200182016040528015610b5a5781602001602082028036833780820191505090505b50905060005b8451811015610bd757610ba7858281518110610b7f57610b7e61383b565b5b6020026020010151858381518110610b9a57610b9961383b565b5b602002602001015161049a565b828281518110610bba57610bb961383b565b5b60200260200101818152505080610bd09061386a565b9050610b60565b508091505092915050565b600060046000838152602001908152602001600020600401544211159050919050565b6000426004600084815260200190815260200160002060040154610c29919061333c565b9050919050565b606060008060008060036000878152602001908152602001600020604051806080016040529081600082018054610c669061339f565b80601f0160208091040260200160405190810160405280929190818152602001828054610c929061339f565b8015610cdf5780601f10610cb457610100808354040283529160200191610cdf565b820191906000526020600020905b815481529060010190602001808311610cc257829003601f168201915b505050505081526020016001820160009054906101000a900473ffffffffffffffffffffffffffffffffffffffff1673ffffffffffffffffffffffffffffffffffffffff1673ffffffffffffffffffffffffffffffffffffffff1681526020016002820160009054906101000a900473ffffffffffffffffffffffffffffffffffffffff1673ffffffffffffffffffffffffffffffffffffffff1673ffffffffffffffffffffffffffffffffffffffff1681526020016003820160009054906101000a900473ffffffffffffffffffffffffffffffffffffffff1673ffffffffffffffffffffffffffffffffffffffff1673ffffffffffffffffffffffffffffffffffffffff1681525050905080600001518160200151826040015183606001519450945094509450509193509193565b6000600460008381526020019081526020016000206003015442119050919050565b60006001610e4060056116b8565b610e4a919061333c565b905090565b6000806000806000806000806000806000600460008d8152602001908152602001600020604051806101400160405290816000820154815260200160018201548152602001600282015481526020016003820154815260200160048201548152602001600582015481526020016006820154815260200160078201548152602001600882015481526020016009820154815250509050806000015181602001518260400151836060015184608001518560a001518660c001518760e001518861010001518961012001519a509a509a509a509a509a509a509a509a509a50509193959799509193959799565b610f4d610f4661138f565b8383611876565b5050565b610f59612371565b60036000838152602001908152602001600020604051806080016040529081600082018054610f879061339f565b80601f0160208091040260200160405190810160405280929190818152602001828054610fb39061339f565b80156110005780601f10610fd557610100808354040283529160200191611000565b820191906000526020600020905b815481529060010190602001808311610fe357829003601f168201915b505050505081526020016001820160009054906101000a900473ffffffffffffffffffffffffffffffffffffffff1673ffffffffffffffffffffffffffffffffffffffff1673ffffffffffffffffffffffffffffffffffffffff1681526020016002820160009054906101000a900473ffffffffffffffffffffffffffffffffffffffff1673ffffffffffffffffffffffffffffffffffffffff1673ffffffffffffffffffffffffffffffffffffffff1681526020016003820160009054906101000a900473ffffffffffffffffffffffffffffffffffffffff1673ffffffffffffffffffffffffffffffffffffffff1673ffffffffffffffffffffffffffffffffffffffff16815250509050919050565b6000426004600084815260200190815260200160002060030154611136919061333c565b9050919050565b6000600160008473ffffffffffffffffffffffffffffffffffffffff1673ffffffffffffffffffffffffffffffffffffffff16815260200190815260200160002060008373ffffffffffffffffffffffffffffffffffffffff1673ffffffffffffffffffffffffffffffffffffffff16815260200190815260200160002060009054906101000a900460ff16905092915050565b6111d961138f565b73ffffffffffffffffffffffffffffffffffffffff168573ffffffffffffffffffffffffffffffffffffffff16148061121f575061121e8561121961138f565b61113d565b5b61125e576040517f08c379a000000000000000000000000000000000000000000000000000000000815260040161125590613442565b60405180910390fd5b61126b85858585856119e2565b5050505050565b61127a61138f565b73ffffffffffffffffffffffffffffffffffffffff168373ffffffffffffffffffffffffffffffffffffffff1614806112c057506112bf836112ba61138f565b61113d565b5b6112ff576040517f08c379a00000000000000000000000000000000000000000000000000000000081526004016112f690613442565b60405180910390fd5b61130a838383611c7d565b505050565b6001816000016000828254019250508190555050565b60007f01ffc9a7000000000000000000000000000000000000000000000000000000007bffffffffffffffffffffffffffffffffffffffffffffffffffffffff1916827bffffffffffffffffffffffffffffffffffffffffffffffffffffffff1916149050919050565b600033905090565b81518351146113db576040517f08c379a00000000000000000000000000000000000000000000000000000000081526004016113d290613924565b60405180910390fd5b600073ffffffffffffffffffffffffffffffffffffffff168473ffffffffffffffffffffffffffffffffffffffff160361144a576040517f08c379a0000000000000000000000000000000000000000000000000000000008152600401611441906139b6565b60405180910390fd5b600061145461138f565b9050611464818787878787611ec3565b60005b84518110156116155760008582815181106114855761148461383b565b5b6020026020010151905060008583815181106114a4576114a361383b565b5b60200260200101519050600080600084815260200190815260200160002060008b73ffffffffffffffffffffffffffffffffffffffff1673ffffffffffffffffffffffffffffffffffffffff16815260200190815260200160002054905081811015611545576040517f08c379a000000000000000000000000000000000000000000000000000000000815260040161153c90613a48565b60405180910390fd5b81810360008085815260200190815260200160002060008c73ffffffffffffffffffffffffffffffffffffffff1673ffffffffffffffffffffffffffffffffffffffff168152602001908152602001600020819055508160008085815260200190815260200160002060008b73ffffffffffffffffffffffffffffffffffffffff1673ffffffffffffffffffffffffffffffffffffffff16815260200190815260200160002060008282546115fa9190613a68565b925050819055505050508061160e9061386a565b9050611467565b508473ffffffffffffffffffffffffffffffffffffffff168673ffffffffffffffffffffffffffffffffffffffff168273ffffffffffffffffffffffffffffffffffffffff167f4a39dc06d4c0dbc64b70af90fd698a233a518aa5d07e595d983b8c0526c8f7fb878760405161168c929190613a9c565b60405180910390a46116a2818787878787611ecb565b6116b0818787878787611ed3565b505050505050565b600081600001549050919050565b600073ffffffffffffffffffffffffffffffffffffffff168473ffffffffffffffffffffffffffffffffffffffff1603611735576040517f08c379a000000000000000000000000000000000000000000000000000000000815260040161172c90613b45565b60405180910390fd5b600061173f61138f565b9050600061174c856120aa565b90506000611759856120aa565b905061176a83600089858589611ec3565b8460008088815260200190815260200160002060008973ffffffffffffffffffffffffffffffffffffffff1673ffffffffffffffffffffffffffffffffffffffff16815260200190815260200160002060008282546117c99190613a68565b925050819055508673ffffffffffffffffffffffffffffffffffffffff16600073ffffffffffffffffffffffffffffffffffffffff168473ffffffffffffffffffffffffffffffffffffffff167fc3d58168c5ae7397731d063d5bbf3d657854427343f4c083240f7aacaa2d0f628989604051611847929190613b65565b60405180910390a461185e83600089858589611ecb565b61186d83600089898989612124565b50505050505050565b8173ffffffffffffffffffffffffffffffffffffffff168373ffffffffffffffffffffffffffffffffffffffff16036118e4576040517f08c379a00000000000000000000000000000000000000000000000000000000081526004016118db90613c00565b60405180910390fd5b80600160008573ffffffffffffffffffffffffffffffffffffffff1673ffffffffffffffffffffffffffffffffffffffff16815260200190815260200160002060008473ffffffffffffffffffffffffffffffffffffffff1673ffffffffffffffffffffffffffffffffffffffff16815260200190815260200160002060006101000a81548160ff0219169083151502179055508173ffffffffffffffffffffffffffffffffffffffff168373ffffffffffffffffffffffffffffffffffffffff167f17307eab39ab6107e8899845ad3d59bd9653f200f220920489ca2b5937696c31836040516119d5919061258d565b60405180910390a3505050565b600073ffffffffffffffffffffffffffffffffffffffff168473ffffffffffffffffffffffffffffffffffffffff1603611a51576040517f08c379a0000000000000000000000000000000000000000000000000000000008152600401611a48906139b6565b60405180910390fd5b6000611a5b61138f565b90506000611a68856120aa565b90506000611a75856120aa565b9050611a85838989858589611ec3565b600080600088815260200190815260200160002060008a73ffffffffffffffffffffffffffffffffffffffff1673ffffffffffffffffffffffffffffffffffffffff16815260200190815260200160002054905085811015611b1c576040517f08c379a0000000000000000000000000000000000000000000000000000000008152600401611b1390613a48565b60405180910390fd5b85810360008089815260200190815260200160002060008b73ffffffffffffffffffffffffffffffffffffffff1673ffffffffffffffffffffffffffffffffffffffff168152602001908152602001600020819055508560008089815260200190815260200160002060008a73ffffffffffffffffffffffffffffffffffffffff1673ffffffffffffffffffffffffffffffffffffffff1681526020019081526020016000206000828254611bd19190613a68565b925050819055508773ffffffffffffffffffffffffffffffffffffffff168973ffffffffffffffffffffffffffffffffffffffff168573ffffffffffffffffffffffffffffffffffffffff167fc3d58168c5ae7397731d063d5bbf3d657854427343f4c083240f7aacaa2d0f628a8a604051611c4e929190613b65565b60405180910390a4611c64848a8a86868a611ecb565b611c72848a8a8a8a8a612124565b505050505050505050565b600073ffffffffffffffffffffffffffffffffffffffff168373ffffffffffffffffffffffffffffffffffffffff1603611cec576040517f08c379a0000000000000000000000000000000000000000000000000000000008152600401611ce390613c92565b60405180910390fd5b6000611cf661138f565b90506000611d03846120aa565b90506000611d10846120aa565b9050611d3083876000858560405180602001604052806000815250611ec3565b600080600087815260200190815260200160002060008873ffffffffffffffffffffffffffffffffffffffff1673ffffffffffffffffffffffffffffffffffffffff16815260200190815260200160002054905084811015611dc7576040517f08c379a0000000000000000000000000000000000000000000000000000000008152600401611dbe90613d24565b60405180910390fd5b84810360008088815260200190815260200160002060008973ffffffffffffffffffffffffffffffffffffffff1673ffffffffffffffffffffffffffffffffffffffff16815260200190815260200160002081905550600073ffffffffffffffffffffffffffffffffffffffff168773ffffffffffffffffffffffffffffffffffffffff168573ffffffffffffffffffffffffffffffffffffffff167fc3d58168c5ae7397731d063d5bbf3d657854427343f4c083240f7aacaa2d0f628989604051611e94929190613b65565b60405180910390a4611eba84886000868660405180602001604052806000815250611ecb565b50505050505050565b505050505050565b505050505050565b611ef28473ffffffffffffffffffffffffffffffffffffffff166122fb565b156120a2578373ffffffffffffffffffffffffffffffffffffffff1663bc197c8187878686866040518663ffffffff1660e01b8152600401611f38959493929190613d99565b6020604051808303816000875af1925050508015611f7457506040513d601f19601f82011682018060405250810190611f719190613e16565b60015b61201957611f80613e50565b806308c379a003611fdc5750611f94613e72565b80611f9f5750611fde565b806040517f08c379a0000000000000000000000000000000000000000000000000000000008152600401611fd39190612665565b60405180910390fd5b505b6040517f08c379a000000000000000000000000000000000000000000000000000000000815260040161201090613f74565b60405180910390fd5b63bc197c8160e01b7bffffffffffffffffffffffffffffffffffffffffffffffffffffffff1916817bffffffffffffffffffffffffffffffffffffffffffffffffffffffff1916146120a0576040517f08c379a000000000000000000000000000000000000000000000000000000000815260040161209790614006565b60405180910390fd5b505b505050505050565b60606000600167ffffffffffffffff8111156120c9576120c861268c565b5b6040519080825280602002602001820160405280156120f75781602001602082028036833780820191505090505b509050828160008151811061210f5761210e61383b565b5b60200260200101818152505080915050919050565b6121438473ffffffffffffffffffffffffffffffffffffffff166122fb565b156122f3578373ffffffffffffffffffffffffffffffffffffffff1663f23a6e6187878686866040518663ffffffff1660e01b8152600401612189959493929190614026565b6020604051808303816000875af19250505080156121c557506040513d601f19601f820116820180604052508101906121c29190613e16565b60015b61226a576121d1613e50565b806308c379a00361222d57506121e5613e72565b806121f0575061222f565b806040517f08c379a00000000000000000000000000000000000000000000000000000000081526004016122249190612665565b60405180910390fd5b505b6040517f08c379a000000000000000000000000000000000000000000000000000000000815260040161226190613f74565b60405180910390fd5b63f23a6e6160e01b7bffffffffffffffffffffffffffffffffffffffffffffffffffffffff1916817bffffffffffffffffffffffffffffffffffffffffffffffffffffffff1916146122f1576040517f08c379a00000000000000000000000000000000000000000000000000000000081526004016122e890614006565b60405180910390fd5b505b505050505050565b6000808273ffffffffffffffffffffffffffffffffffffffff163b119050919050565b604051806101400160405280600081526020016000815260200160008152602001600081526020016000815260200160008152602001600081526020016000815260200160008152602001600081525090565b604051806080016040528060608152602001600073ffffffffffffffffffffffffffffffffffffffff168152602001600073ffffffffffffffffffffffffffffffffffffffff168152602001600073ffffffffffffffffffffffffffffffffffffffff1681525090565b6000604051905090565b600080fd5b600080fd5b600073ffffffffffffffffffffffffffffffffffffffff82169050919050565b600061241a826123ef565b9050919050565b61242a8161240f565b811461243557600080fd5b50565b60008135905061244781612421565b92915050565b6000819050919050565b6124608161244d565b811461246b57600080fd5b50565b60008135905061247d81612457565b92915050565b6000806040838503121561249a576124996123e5565b5b60006124a885828601612438565b92505060206124b98582860161246e565b9150509250929050565b6124cc8161244d565b82525050565b60006020820190506124e760008301846124c3565b92915050565b60007fffffffff0000000000000000000000000000000000000000000000000000000082169050919050565b612522816124ed565b811461252d57600080fd5b50565b60008135905061253f81612519565b92915050565b60006020828403121561255b5761255a6123e5565b5b600061256984828501612530565b91505092915050565b60008115159050919050565b61258781612572565b82525050565b60006020820190506125a2600083018461257e565b92915050565b6000602082840312156125be576125bd6123e5565b5b60006125cc8482850161246e565b91505092915050565b600081519050919050565b600082825260208201905092915050565b60005b8381101561260f5780820151818401526020810190506125f4565b60008484015250505050565b6000601f19601f8301169050919050565b6000612637826125d5565b61264181856125e0565b93506126518185602086016125f1565b61265a8161261b565b840191505092915050565b6000602082019050818103600083015261267f818461262c565b905092915050565b600080fd5b7f4e487b7100000000000000000000000000000000000000000000000000000000600052604160045260246000fd5b6126c48261261b565b810181811067ffffffffffffffff821117156126e3576126e261268c565b5b80604052505050565b60006126f66123db565b905061270282826126bb565b919050565b600067ffffffffffffffff8211156127225761272161268c565b5b602082029050602081019050919050565b600080fd5b600061274b61274684612707565b6126ec565b9050808382526020820190506020840283018581111561276e5761276d612733565b5b835b818110156127975780612783888261246e565b845260208401935050602081019050612770565b5050509392505050565b600082601f8301126127b6576127b5612687565b5b81356127c6848260208601612738565b91505092915050565b600080fd5b600067ffffffffffffffff8211156127ef576127ee61268c565b5b6127f88261261b565b9050602081019050919050565b82818337600083830152505050565b6000612827612822846127d4565b6126ec565b905082815260208101848484011115612843576128426127cf565b5b61284e848285612805565b509392505050565b600082601f83011261286b5761286a612687565b5b813561287b848260208601612814565b91505092915050565b600080600080600060a086880312156128a05761289f6123e5565b5b60006128ae88828901612438565b95505060206128bf88828901612438565b945050604086013567ffffffffffffffff8111156128e0576128df6123ea565b5b6128ec888289016127a1565b935050606086013567ffffffffffffffff81111561290d5761290c6123ea565b5b612919888289016127a1565b925050608086013567ffffffffffffffff81111561293a576129396123ea565b5b61294688828901612856565b9150509295509295909350565b600080fd5b600080fd5b6000610140828403121561297457612973612953565b5b61297f6101406126ec565b9050600061298f8482850161246e565b60008301525060206129a38482850161246e565b60208301525060406129b78482850161246e565b60408301525060606129cb8482850161246e565b60608301525060806129df8482850161246e565b60808301525060a06129f38482850161246e565b60a08301525060c0612a078482850161246e565b60c08301525060e0612a1b8482850161246e565b60e083015250610100612a308482850161246e565b61010083015250610120612a468482850161246e565b6101208301525092915050565b600067ffffffffffffffff821115612a6e57612a6d61268c565b5b612a778261261b565b9050602081019050919050565b6000612a97612a9284612a53565b6126ec565b905082815260208101848484011115612ab357612ab26127cf565b5b612abe848285612805565b509392505050565b600082601f830112612adb57612ada612687565b5b8135612aeb848260208601612a84565b91505092915050565b600060808284031215612b0a57612b09612953565b5b612b1460806126ec565b9050600082013567ffffffffffffffff811115612b3457612b33612958565b5b612b4084828501612ac6565b6000830152506020612b5484828501612438565b6020830152506040612b6884828501612438565b6040830152506060612b7c84828501612438565b60608301525092915050565b6000806000806101a08587031215612ba357612ba26123e5565b5b6000612bb187828801612438565b9450506020612bc28782880161246e565b9350506040612bd38782880161295d565b92505061018085013567ffffffffffffffff811115612bf557612bf46123ea565b5b612c0187828801612af4565b91505092959194509250565b612c168161244d565b82525050565b61014082016000820151612c336000850182612c0d565b506020820151612c466020850182612c0d565b506040820151612c596040850182612c0d565b506060820151612c6c6060850182612c0d565b506080820151612c7f6080850182612c0d565b5060a0820151612c9260a0850182612c0d565b5060c0820151612ca560c0850182612c0d565b5060e0820151612cb860e0850182612c0d565b50610100820151612ccd610100850182612c0d565b50610120820151612ce2610120850182612c0d565b50505050565b600061014082019050612cfe6000830184612c1c565b92915050565b600067ffffffffffffffff821115612d1f57612d1e61268c565b5b602082029050602081019050919050565b6000612d43612d3e84612d04565b6126ec565b90508083825260208201905060208402830185811115612d6657612d65612733565b5b835b81811015612d8f5780612d7b8882612438565b845260208401935050602081019050612d68565b5050509392505050565b600082601f830112612dae57612dad612687565b5b8135612dbe848260208601612d30565b91505092915050565b60008060408385031215612dde57612ddd6123e5565b5b600083013567ffffffffffffffff811115612dfc57612dfb6123ea565b5b612e0885828601612d99565b925050602083013567ffffffffffffffff811115612e2957612e286123ea565b5b612e35858286016127a1565b9150509250929050565b600081519050919050565b600082825260208201905092915050565b6000819050602082019050919050565b6000612e778383612c0d565b60208301905092915050565b6000602082019050919050565b6000612e9b82612e3f565b612ea58185612e4a565b9350612eb083612e5b565b8060005b83811015612ee1578151612ec88882612e6b565b9750612ed383612e83565b925050600181019050612eb4565b5085935050505092915050565b60006020820190508181036000830152612f088184612e90565b905092915050565b612f198161240f565b82525050565b60006080820190508181036000830152612f39818761262c565b9050612f486020830186612f10565b612f556040830185612f10565b612f626060830184612f10565b95945050505050565b600061014082019050612f81600083018d6124c3565b612f8e602083018c6124c3565b612f9b604083018b6124c3565b612fa8606083018a6124c3565b612fb560808301896124c3565b612fc260a08301886124c3565b612fcf60c08301876124c3565b612fdc60e08301866124c3565b612fea6101008301856124c3565b612ff86101208301846124c3565b9b9a5050505050505050505050565b61301081612572565b811461301b57600080fd5b50565b60008135905061302d81613007565b92915050565b6000806040838503121561304a576130496123e5565b5b600061305885828601612438565b92505060206130698582860161301e565b9150509250929050565b600082825260208201905092915050565b600061308f826125d5565b6130998185613073565b93506130a98185602086016125f1565b6130b28161261b565b840191505092915050565b6130c68161240f565b82525050565b600060808301600083015184820360008601526130e98282613084565b91505060208301516130fe60208601826130bd565b50604083015161311160408601826130bd565b50606083015161312460608601826130bd565b508091505092915050565b6000602082019050818103600083015261314981846130cc565b905092915050565b60008060408385031215613168576131676123e5565b5b600061317685828601612438565b925050602061318785828601612438565b9150509250929050565b600080600080600060a086880312156131ad576131ac6123e5565b5b60006131bb88828901612438565b95505060206131cc88828901612438565b94505060406131dd8882890161246e565b93505060606131ee8882890161246e565b925050608086013567ffffffffffffffff81111561320f5761320e6123ea565b5b61321b88828901612856565b9150509295509295909350565b600080600060608486031215613241576132406123e5565b5b600061324f86828701612438565b93505060206132608682870161246e565b92505060406132718682870161246e565b9150509250925092565b7f455243313135353a2061646472657373207a65726f206973206e6f742061207660008201527f616c6964206f776e657200000000000000000000000000000000000000000000602082015250565b60006132d7602a836125e0565b91506132e28261327b565b604082019050919050565b60006020820190508181036000830152613306816132ca565b9050919050565b7f4e487b7100000000000000000000000000000000000000000000000000000000600052601160045260246000fd5b60006133478261244d565b91506133528361244d565b925082820390508181111561336a5761336961330d565b5b92915050565b7f4e487b7100000000000000000000000000000000000000000000000000000000600052602260045260246000fd5b600060028204905060018216806133b757607f821691505b6020821081036133ca576133c9613370565b5b50919050565b7f455243313135353a2063616c6c6572206973206e6f7420746f6b656e206f776e60008201527f6572206f7220617070726f766564000000000000000000000000000000000000602082015250565b600061342c602e836125e0565b9150613437826133d0565b604082019050919050565b6000602082019050818103600083015261345b8161341f565b9050919050565b60006020820190506134776000830184612f10565b92915050565b60008151905061348c81613007565b92915050565b6000602082840312156134a8576134a76123e5565b5b60006134b68482850161347d565b91505092915050565b7f43616c6c6572206973206e6f74206120466163746f727920436f6e7472616374600082015250565b60006134f56020836125e0565b9150613500826134bf565b602082019050919050565b60006020820190508181036000830152613524816134e8565b9050919050565b60008190508160005260206000209050919050565b60006020601f8301049050919050565b600082821b905092915050565b60006008830261358d7fffffffffffffffffffffffffffffffffffffffffffffffffffffffffffffffff82613550565b6135978683613550565b95508019841693508086168417925050509392505050565b6000819050919050565b60006135d46135cf6135ca8461244d565b6135af565b61244d565b9050919050565b6000819050919050565b6135ee836135b9565b6136026135fa826135db565b84845461355d565b825550505050565b600090565b61361761360a565b6136228184846135e5565b505050565b5b818110156136465761363b60008261360f565b600181019050613628565b5050565b601f82111561368b5761365c8161352b565b61366584613540565b81016020851015613674578190505b61368861368085613540565b830182613627565b50505b505050565b600082821c905092915050565b60006136ae60001984600802613690565b1980831691505092915050565b60006136c7838361369d565b9150826002028217905092915050565b6136e0826125d5565b67ffffffffffffffff8111156136f9576136f861268c565b5b613703825461339f565b61370e82828561364a565b600060209050601f831160018114613741576000841561372f578287015190505b61373985826136bb565b8655506137a1565b601f19841661374f8661352b565b60005b8281101561377757848901518255600182019150602085019450602081019050613752565b868310156137945784890151613790601f89168261369d565b8355505b6001600288020188555050505b505050505050565b7f455243313135353a206163636f756e747320616e6420696473206c656e67746860008201527f206d69736d617463680000000000000000000000000000000000000000000000602082015250565b60006138056029836125e0565b9150613810826137a9565b604082019050919050565b60006020820190508181036000830152613834816137f8565b9050919050565b7f4e487b7100000000000000000000000000000000000000000000000000000000600052603260045260246000fd5b60006138758261244d565b91507fffffffffffffffffffffffffffffffffffffffffffffffffffffffffffffffff82036138a7576138a661330d565b5b600182019050919050565b7f455243313135353a2069647320616e6420616d6f756e7473206c656e6774682060008201527f6d69736d61746368000000000000000000000000000000000000000000000000602082015250565b600061390e6028836125e0565b9150613919826138b2565b604082019050919050565b6000602082019050818103600083015261393d81613901565b9050919050565b7f455243313135353a207472616e7366657220746f20746865207a65726f20616460008201527f6472657373000000000000000000000000000000000000000000000000000000602082015250565b60006139a06025836125e0565b91506139ab82613944565b604082019050919050565b600060208201905081810360008301526139cf81613993565b9050919050565b7f455243313135353a20696e73756666696369656e742062616c616e636520666f60008201527f72207472616e7366657200000000000000000000000000000000000000000000602082015250565b6000613a32602a836125e0565b9150613a3d826139d6565b604082019050919050565b60006020820190508181036000830152613a6181613a25565b9050919050565b6000613a738261244d565b9150613a7e8361244d565b9250828201905080821115613a9657613a9561330d565b5b92915050565b60006040820190508181036000830152613ab68185612e90565b90508181036020830152613aca8184612e90565b90509392505050565b7f455243313135353a206d696e7420746f20746865207a65726f2061646472657360008201527f7300000000000000000000000000000000000000000000000000000000000000602082015250565b6000613b2f6021836125e0565b9150613b3a82613ad3565b604082019050919050565b60006020820190508181036000830152613b5e81613b22565b9050919050565b6000604082019050613b7a60008301856124c3565b613b8760208301846124c3565b9392505050565b7f455243313135353a2073657474696e6720617070726f76616c2073746174757360008201527f20666f722073656c660000000000000000000000000000000000000000000000602082015250565b6000613bea6029836125e0565b9150613bf582613b8e565b604082019050919050565b60006020820190508181036000830152613c1981613bdd565b9050919050565b7f455243313135353a206275726e2066726f6d20746865207a65726f206164647260008201527f6573730000000000000000000000000000000000000000000000000000000000602082015250565b6000613c7c6023836125e0565b9150613c8782613c20565b604082019050919050565b60006020820190508181036000830152613cab81613c6f565b9050919050565b7f455243313135353a206275726e20616d6f756e7420657863656564732062616c60008201527f616e636500000000000000000000000000000000000000000000000000000000602082015250565b6000613d0e6024836125e0565b9150613d1982613cb2565b604082019050919050565b60006020820190508181036000830152613d3d81613d01565b9050919050565b600081519050919050565b600082825260208201905092915050565b6000613d6b82613d44565b613d758185613d4f565b9350613d858185602086016125f1565b613d8e8161261b565b840191505092915050565b600060a082019050613dae6000830188612f10565b613dbb6020830187612f10565b8181036040830152613dcd8186612e90565b90508181036060830152613de18185612e90565b90508181036080830152613df58184613d60565b90509695505050505050565b600081519050613e1081612519565b92915050565b600060208284031215613e2c57613e2b6123e5565b5b6000613e3a84828501613e01565b91505092915050565b60008160e01c9050919050565b600060033d1115613e6f5760046000803e613e6c600051613e43565b90505b90565b600060443d10613eff57613e846123db565b60043d036004823e80513d602482011167ffffffffffffffff82111715613eac575050613eff565b808201805167ffffffffffffffff811115613eca5750505050613eff565b80602083010160043d038501811115613ee7575050505050613eff565b613ef6826020018501866126bb565b82955050505050505b90565b7f455243313135353a207472616e7366657220746f206e6f6e2d4552433131353560008201527f526563656976657220696d706c656d656e746572000000000000000000000000602082015250565b6000613f5e6034836125e0565b9150613f6982613f02565b604082019050919050565b60006020820190508181036000830152613f8d81613f51565b9050919050565b7f455243313135353a204552433131353552656365697665722072656a6563746560008201527f6420746f6b656e73000000000000000000000000000000000000000000000000602082015250565b6000613ff06028836125e0565b9150613ffb82613f94565b604082019050919050565b6000602082019050818103600083015261401f81613fe3565b9050919050565b600060a08201905061403b6000830188612f10565b6140486020830187612f10565b61405560408301866124c3565b61406260608301856124c3565b81810360808301526140748184613d60565b9050969550505050505056fea2646970667358221220b35e301a618f3654636f7847b3cc271935ccf4f3eebf4e7c1e1d33167234c9fb64736f6c63430008110033",
  "linkReferences": {},
  "deployedLinkReferences": {}
}