{
  "_format": "hh-sol-artifact-1",
  "contractName": "DualCurrencyBond",
  "sourceName": "contracts/DualCurrencyBond.sol",
  "abi": [
    {
      "inputs": [
        {
          "internalType": "address",
          "name": "bondDB",
          "type": "address"
        },
        {
          "internalType": "string",
          "name": "uri",
          "type": "string"
        }
      ],
      "stateMutability": "nonpayable",
      "type": "constructor"
    },
    {
      "anonymous": false,
      "inputs": [
        {
          "indexed": true,
          "internalType": "address",
          "name": "account",
          "type": "address"
        },
        {
          "indexed": true,
          "internalType": "address",
          "name": "operator",
          "type": "address"
        },
        {
          "indexed": false,
          "internalType": "bool",
          "name": "approved",
          "type": "bool"
        }
      ],
      "name": "ApprovalForAll",
      "type": "event"
    },
    {
      "anonymous": false,
      "inputs": [
        {
          "indexed": true,
          "internalType": "address",
          "name": "operator",
          "type": "address"
        },
        {
          "indexed": true,
          "internalType": "address",
          "name": "from",
          "type": "address"
        },
        {
          "indexed": true,
          "internalType": "address",
          "name": "to",
          "type": "address"
        },
        {
          "indexed": false,
          "internalType": "uint256[]",
          "name": "ids",
          "type": "uint256[]"
        },
        {
          "indexed": false,
          "internalType": "uint256[]",
          "name": "values",
          "type": "uint256[]"
        }
      ],
      "name": "TransferBatch",
      "type": "event"
    },
    {
      "anonymous": false,
      "inputs": [
        {
          "indexed": true,
          "internalType": "address",
          "name": "operator",
          "type": "address"
        },
        {
          "indexed": true,
          "internalType": "address",
          "name": "from",
          "type": "address"
        },
        {
          "indexed": true,
          "internalType": "address",
          "name": "to",
          "type": "address"
        },
        {
          "indexed": false,
          "internalType": "uint256",
          "name": "id",
          "type": "uint256"
        },
        {
          "indexed": false,
          "internalType": "uint256",
          "name": "value",
          "type": "uint256"
        }
      ],
      "name": "TransferSingle",
      "type": "event"
    },
    {
      "anonymous": false,
      "inputs": [
        {
          "indexed": false,
          "internalType": "string",
          "name": "value",
          "type": "string"
        },
        {
          "indexed": true,
          "internalType": "uint256",
          "name": "id",
          "type": "uint256"
        }
      ],
      "name": "URI",
      "type": "event"
    },
    {
      "inputs": [
        {
          "internalType": "address",
          "name": "account",
          "type": "address"
        },
        {
          "internalType": "uint256",
          "name": "id",
          "type": "uint256"
        }
      ],
      "name": "balanceOf",
      "outputs": [
        {
          "internalType": "uint256",
          "name": "",
          "type": "uint256"
        }
      ],
      "stateMutability": "view",
      "type": "function"
    },
    {
      "inputs": [
        {
          "internalType": "address[]",
          "name": "accounts",
          "type": "address[]"
        },
        {
          "internalType": "uint256[]",
          "name": "ids",
          "type": "uint256[]"
        }
      ],
      "name": "balanceOfBatch",
      "outputs": [
        {
          "internalType": "uint256[]",
          "name": "",
          "type": "uint256[]"
        }
      ],
      "stateMutability": "view",
      "type": "function"
    },
    {
      "inputs": [
        {
          "internalType": "uint256",
          "name": "id",
          "type": "uint256"
        }
      ],
      "name": "bondData",
      "outputs": [
        {
          "internalType": "uint256",
          "name": "",
          "type": "uint256"
        },
        {
          "internalType": "uint256",
          "name": "",
          "type": "uint256"
        },
        {
          "internalType": "uint256",
          "name": "",
          "type": "uint256"
        },
        {
          "internalType": "uint256",
          "name": "",
          "type": "uint256"
        },
        {
          "internalType": "uint256",
          "name": "",
          "type": "uint256"
        },
        {
          "internalType": "uint256",
          "name": "",
          "type": "uint256"
        },
        {
          "internalType": "uint256",
          "name": "",
          "type": "uint256"
        },
        {
          "internalType": "uint256",
          "name": "",
          "type": "uint256"
        },
        {
          "internalType": "uint256",
          "name": "",
          "type": "uint256"
        },
        {
          "internalType": "uint256",
          "name": "",
          "type": "uint256"
        }
      ],
      "stateMutability": "view",
      "type": "function"
    },
    {
      "inputs": [
        {
          "internalType": "uint256",
          "name": "id",
          "type": "uint256"
        }
      ],
      "name": "bondDataAsStruct",
      "outputs": [
        {
          "components": [
            {
              "internalType": "uint256",
              "name": "tokenAAmountPerBond",
              "type": "uint256"
            },
            {
              "internalType": "uint256",
              "name": "tokenBAmountPerBond",
              "type": "uint256"
            },
            {
              "internalType": "uint256",
              "name": "initBlock",
              "type": "uint256"
            },
            {
              "internalType": "uint256",
              "name": "maturityBlock",
              "type": "uint256"
            },
            {
              "internalType": "uint256",
              "name": "endOfActiveBlock",
              "type": "uint256"
            },
            {
              "internalType": "uint256",
              "name": "activeDurationInDays",
              "type": "uint256"
            },
            {
              "internalType": "uint256",
              "name": "durationInDays",
              "type": "uint256"
            },
            {
              "internalType": "uint256",
              "name": "issuedQuantity",
              "type": "uint256"
            },
            {
              "internalType": "uint256",
              "name": "minPurchasedQuantity",
              "type": "uint256"
            },
            {
              "internalType": "uint256",
              "name": "couponRate",
              "type": "uint256"
            }
          ],
          "internalType": "struct IDualCurrencyBond.BondData",
          "name": "",
          "type": "tuple"
        }
      ],
      "stateMutability": "view",
      "type": "function"
    },
    {
      "inputs": [
        {
          "internalType": "uint256",
          "name": "id",
          "type": "uint256"
        }
      ],
      "name": "bondMetadata",
      "outputs": [
        {
          "internalType": "string",
          "name": "",
          "type": "string"
        },
        {
          "internalType": "address",
          "name": "",
          "type": "address"
        },
        {
          "internalType": "address",
          "name": "",
          "type": "address"
        },
        {
          "internalType": "address",
          "name": "",
          "type": "address"
        }
      ],
      "stateMutability": "view",
      "type": "function"
    },
    {
      "inputs": [
        {
          "internalType": "uint256",
          "name": "id",
          "type": "uint256"
        }
      ],
      "name": "bondMetadataAsStruct",
      "outputs": [
        {
          "components": [
            {
              "internalType": "string",
              "name": "ticker",
              "type": "string"
            },
            {
              "internalType": "address",
              "name": "currencyA",
              "type": "address"
            },
            {
              "internalType": "address",
              "name": "currencyB",
              "type": "address"
            },
            {
              "internalType": "address",
              "name": "issuer",
              "type": "address"
            }
          ],
          "internalType": "struct IDualCurrencyBond.BondMetadata",
          "name": "",
          "type": "tuple"
        }
      ],
      "stateMutability": "view",
      "type": "function"
    },
    {
      "inputs": [
        {
          "internalType": "address",
          "name": "account",
          "type": "address"
        },
        {
          "internalType": "uint256",
          "name": "id",
          "type": "uint256"
        },
        {
          "internalType": "uint256",
          "name": "quantity",
          "type": "uint256"
        }
      ],
      "name": "burn",
      "outputs": [],
      "stateMutability": "nonpayable",
      "type": "function"
    },
    {
      "inputs": [
        {
          "internalType": "address",
          "name": "account",
          "type": "address"
        },
        {
          "internalType": "address",
          "name": "operator",
          "type": "address"
        }
      ],
      "name": "isApprovedForAll",
      "outputs": [
        {
          "internalType": "bool",
          "name": "",
          "type": "bool"
        }
      ],
      "stateMutability": "view",
      "type": "function"
    },
    {
      "inputs": [
        {
          "internalType": "address",
          "name": "to",
          "type": "address"
        },
        {
          "internalType": "uint256",
          "name": "bondQuantity",
          "type": "uint256"
        },
        {
          "components": [
            {
              "internalType": "uint256",
              "name": "tokenAAmountPerBond",
              "type": "uint256"
            },
            {
              "internalType": "uint256",
              "name": "tokenBAmountPerBond",
              "type": "uint256"
            },
            {
              "internalType": "uint256",
              "name": "initBlock",
              "type": "uint256"
            },
            {
              "internalType": "uint256",
              "name": "maturityBlock",
              "type": "uint256"
            },
            {
              "internalType": "uint256",
              "name": "endOfActiveBlock",
              "type": "uint256"
            },
            {
              "internalType": "uint256",
              "name": "activeDurationInDays",
              "type": "uint256"
            },
            {
              "internalType": "uint256",
              "name": "durationInDays",
              "type": "uint256"
            },
            {
              "internalType": "uint256",
              "name": "issuedQuantity",
              "type": "uint256"
            },
            {
              "internalType": "uint256",
              "name": "minPurchasedQuantity",
              "type": "uint256"
            },
            {
              "internalType": "uint256",
              "name": "couponRate",
              "type": "uint256"
            }
          ],
          "internalType": "struct IDualCurrencyBond.BondData",
          "name": "data",
          "type": "tuple"
        },
        {
          "components": [
            {
              "internalType": "string",
              "name": "ticker",
              "type": "string"
            },
            {
              "internalType": "address",
              "name": "currencyA",
              "type": "address"
            },
            {
              "internalType": "address",
              "name": "currencyB",
              "type": "address"
            },
            {
              "internalType": "address",
              "name": "issuer",
              "type": "address"
            }
          ],
          "internalType": "struct IDualCurrencyBond.BondMetadata",
          "name": "metadata",
          "type": "tuple"
        }
      ],
      "name": "mint",
      "outputs": [
        {
          "internalType": "uint256",
          "name": "id",
          "type": "uint256"
        }
      ],
      "stateMutability": "nonpayable",
      "type": "function"
    },
    {
      "inputs": [],
      "name": "numBondsIssued",
      "outputs": [
        {
          "internalType": "uint256",
          "name": "",
          "type": "uint256"
        }
      ],
      "stateMutability": "view",
      "type": "function"
    },
    {
      "inputs": [
        {
          "internalType": "address",
          "name": "from",
          "type": "address"
        },
        {
          "internalType": "address",
          "name": "to",
          "type": "address"
        },
        {
          "internalType": "uint256[]",
          "name": "ids",
          "type": "uint256[]"
        },
        {
          "internalType": "uint256[]",
          "name": "amounts",
          "type": "uint256[]"
        },
        {
          "internalType": "bytes",
          "name": "data",
          "type": "bytes"
        }
      ],
      "name": "safeBatchTransferFrom",
      "outputs": [],
      "stateMutability": "nonpayable",
      "type": "function"
    },
    {
      "inputs": [
        {
          "internalType": "address",
          "name": "from",
          "type": "address"
        },
        {
          "internalType": "address",
          "name": "to",
          "type": "address"
        },
        {
          "internalType": "uint256",
          "name": "id",
          "type": "uint256"
        },
        {
          "internalType": "uint256",
          "name": "amount",
          "type": "uint256"
        },
        {
          "internalType": "bytes",
          "name": "data",
          "type": "bytes"
        }
      ],
      "name": "safeTransferFrom",
      "outputs": [],
      "stateMutability": "nonpayable",
      "type": "function"
    },
    {
      "inputs": [
        {
          "internalType": "address",
          "name": "operator",
          "type": "address"
        },
        {
          "internalType": "bool",
          "name": "approved",
          "type": "bool"
        }
      ],
      "name": "setApprovalForAll",
      "outputs": [],
      "stateMutability": "nonpayable",
      "type": "function"
    },
    {
      "inputs": [
        {
          "internalType": "bytes4",
          "name": "interfaceId",
          "type": "bytes4"
        }
      ],
      "name": "supportsInterface",
      "outputs": [
        {
          "internalType": "bool",
          "name": "",
          "type": "bool"
        }
      ],
      "stateMutability": "view",
      "type": "function"
    },
    {
      "inputs": [
        {
          "internalType": "uint256",
          "name": "",
          "type": "uint256"
        }
      ],
      "name": "uri",
      "outputs": [
        {
          "internalType": "string",
          "name": "",
          "type": "string"
        }
      ],
      "stateMutability": "view",
      "type": "function"
    }
  ],
  "bytecode": "0x60c06040523480156200001157600080fd5b5060405162004578380380620045788339818101604052810190620000379190620002f4565b806200004981620000d160201b60201c565b503373ffffffffffffffffffffffffffffffffffffffff1660808173ffffffffffffffffffffffffffffffffffffffff16815250508173ffffffffffffffffffffffffffffffffffffffff1660a08173ffffffffffffffffffffffffffffffffffffffff1681525050620000c96005620000e660201b620011221760201c565b50506200068c565b8060029081620000e29190620005a5565b5050565b6001816000016000828254019250508190555050565b6000604051905090565b600080fd5b600080fd5b600073ffffffffffffffffffffffffffffffffffffffff82169050919050565b60006200013d8262000110565b9050919050565b6200014f8162000130565b81146200015b57600080fd5b50565b6000815190506200016f8162000144565b92915050565b600080fd5b600080fd5b6000601f19601f8301169050919050565b7f4e487b7100000000000000000000000000000000000000000000000000000000600052604160045260246000fd5b620001ca826200017f565b810181811067ffffffffffffffff82111715620001ec57620001eb62000190565b5b80604052505050565b600062000201620000fc565b90506200020f8282620001bf565b919050565b600067ffffffffffffffff82111562000232576200023162000190565b5b6200023d826200017f565b9050602081019050919050565b60005b838110156200026a5780820151818401526020810190506200024d565b60008484015250505050565b60006200028d620002878462000214565b620001f5565b905082815260208101848484011115620002ac57620002ab6200017a565b5b620002b98482856200024a565b509392505050565b600082601f830112620002d957620002d862000175565b5b8151620002eb84826020860162000276565b91505092915050565b600080604083850312156200030e576200030d62000106565b5b60006200031e858286016200015e565b925050602083015167ffffffffffffffff8111156200034257620003416200010b565b5b6200035085828601620002c1565b9150509250929050565b600081519050919050565b7f4e487b7100000000000000000000000000000000000000000000000000000000600052602260045260246000fd5b60006002820490506001821680620003ad57607f821691505b602082108103620003c357620003c262000365565b5b50919050565b60008190508160005260206000209050919050565b60006020601f8301049050919050565b600082821b905092915050565b6000600883026200042d7fffffffffffffffffffffffffffffffffffffffffffffffffffffffffffffffff82620003ee565b620004398683620003ee565b95508019841693508086168417925050509392505050565b6000819050919050565b6000819050919050565b600062000486620004806200047a8462000451565b6200045b565b62000451565b9050919050565b6000819050919050565b620004a28362000465565b620004ba620004b1826200048d565b848454620003fb565b825550505050565b600090565b620004d1620004c2565b620004de81848462000497565b505050565b5b818110156200050657620004fa600082620004c7565b600181019050620004e4565b5050565b601f82111562000555576200051f81620003c9565b6200052a84620003de565b810160208510156200053a578190505b620005526200054985620003de565b830182620004e3565b50505b505050565b600082821c905092915050565b60006200057a600019846008026200055a565b1980831691505092915050565b600062000595838362000567565b9150826002028217905092915050565b620005b0826200035a565b67ffffffffffffffff811115620005cc57620005cb62000190565b5b620005d8825462000394565b620005e58282856200050a565b600060209050601f8311600181146200061d576000841562000608578287015190505b62000614858262000587565b86555062000684565b601f1984166200062d86620003c9565b60005b82811015620006575784890151825560018201915060208501945060208101905062000630565b8683101562000677578489015162000673601f89168262000567565b8355505b6001600288020188555050505b505050505050565b60805160a051613ec9620006af6000396000610656015260005050613ec96000f3fe608060405234801561001057600080fd5b50600436106100f45760003560e01c80638c3526c211610097578063c3ada2ed11610066578063c3ada2ed146102db578063e985e9c51461030b578063f242432a1461033b578063f5298aca14610357576100f4565b80638c3526c2146102355780639a3cee8e146102685780639eade48114610286578063a22cb465146102bf576100f4565b80632eb2c2d6116100d35780632eb2c2d614610189578063455ceace146101a55780634dd9c9c7146101d55780634e1273f414610205576100f4565b8062fdd58e146100f957806301ffc9a7146101295780630e89341c14610159575b600080fd5b610113600480360381019061010e9190612296565b610373565b60405161012091906122e5565b60405180910390f35b610143600480360381019061013e9190612358565b61043b565b60405161015091906123a0565b60405180910390f35b610173600480360381019061016e91906123bb565b61051d565b6040516101809190612478565b60405180910390f35b6101a3600480360381019061019e9190612697565b6105b1565b005b6101bf60048036038101906101ba919061299b565b610652565b6040516101cc91906122e5565b60405180910390f35b6101ef60048036038101906101ea91906123bb565b6108e5565b6040516101fc9190612afb565b60405180910390f35b61021f600480360381019061021a9190612bda565b610977565b60405161022c9190612d01565b60405180910390f35b61024f600480360381019061024a91906123bb565b610a90565b60405161025f9493929190612d32565b60405180910390f35b610270610c70565b60405161027d91906122e5565b60405180910390f35b6102a0600480360381019061029b91906123bb565b610c8d565b6040516102b69a99989796959493929190612d7e565b60405180910390f35b6102d960048036038101906102d49190612e46565b610d79565b005b6102f560048036038101906102f091906123bb565b610d8f565b6040516103029190612f42565b60405180910390f35b61032560048036038101906103209190612f64565b610f50565b60405161033291906123a0565b60405180910390f35b61035560048036038101906103509190612fa4565b610fe4565b005b610371600480360381019061036c919061303b565b611085565b005b60008073ffffffffffffffffffffffffffffffffffffffff168373ffffffffffffffffffffffffffffffffffffffff16036103e3576040517f08c379a00000000000000000000000000000000000000000000000000000000081526004016103da90613100565b60405180910390fd5b60008083815260200190815260200160002060008473ffffffffffffffffffffffffffffffffffffffff1673ffffffffffffffffffffffffffffffffffffffff16815260200190815260200160002054905092915050565b60007fd9b67a26000000000000000000000000000000000000000000000000000000007bffffffffffffffffffffffffffffffffffffffffffffffffffffffff1916827bffffffffffffffffffffffffffffffffffffffffffffffffffffffff1916148061050657507f0e89341c000000000000000000000000000000000000000000000000000000007bffffffffffffffffffffffffffffffffffffffffffffffffffffffff1916827bffffffffffffffffffffffffffffffffffffffffffffffffffffffff1916145b80610516575061051582611138565b5b9050919050565b60606002805461052c9061314f565b80601f01602080910402602001604051908101604052809291908181526020018280546105589061314f565b80156105a55780601f1061057a576101008083540402835291602001916105a5565b820191906000526020600020905b81548152906001019060200180831161058857829003601f168201915b50505050509050919050565b6105b96111a2565b73ffffffffffffffffffffffffffffffffffffffff168573ffffffffffffffffffffffffffffffffffffffff1614806105ff57506105fe856105f96111a2565b610f50565b5b61063e576040517f08c379a0000000000000000000000000000000000000000000000000000000008152600401610635906131f2565b60405180910390fd5b61064b85858585856111aa565b5050505050565b60007f000000000000000000000000000000000000000000000000000000000000000073ffffffffffffffffffffffffffffffffffffffff16630f04ba67336040518263ffffffff1660e01b81526004016106ad9190613212565b602060405180830381865afa1580156106ca573d6000803e3d6000fd5b505050506040513d601f19601f820116820180604052508101906106ee9190613242565b61072d576040517f08c379a0000000000000000000000000000000000000000000000000000000008152600401610724906132bb565b60405180910390fd5b61073760056114cb565b90506107436005611122565b8160036000838152602001908152602001600020600082015181600001908161076c9190613487565b5060208201518160010160006101000a81548173ffffffffffffffffffffffffffffffffffffffff021916908373ffffffffffffffffffffffffffffffffffffffff16021790555060408201518160020160006101000a81548173ffffffffffffffffffffffffffffffffffffffff021916908373ffffffffffffffffffffffffffffffffffffffff16021790555060608201518160030160006101000a81548173ffffffffffffffffffffffffffffffffffffffff021916908373ffffffffffffffffffffffffffffffffffffffff1602179055509050508260046000838152602001908152602001600020600082015181600001556020820151816001015560408201518160020155606082015181600301556080820151816004015560a0820151816005015560c0820151816006015560e08201518160070155610100820151816008015561012082015181600901559050506108dd858286604051806020016040528060008152506114d9565b949350505050565b6108ed612131565b60046000838152602001908152602001600020604051806101400160405290816000820154815260200160018201548152602001600282015481526020016003820154815260200160048201548152602001600582015481526020016006820154815260200160078201548152602001600882015481526020016009820154815250509050919050565b606081518351146109bd576040517f08c379a00000000000000000000000000000000000000000000000000000000081526004016109b4906135cb565b60405180910390fd5b6000835167ffffffffffffffff8111156109da576109d961249f565b5b604051908082528060200260200182016040528015610a085781602001602082028036833780820191505090505b50905060005b8451811015610a8557610a55858281518110610a2d57610a2c6135eb565b5b6020026020010151858381518110610a4857610a476135eb565b5b6020026020010151610373565b828281518110610a6857610a676135eb565b5b60200260200101818152505080610a7e90613649565b9050610a0e565b508091505092915050565b606060008060008060036000878152602001908152602001600020604051806080016040529081600082018054610ac69061314f565b80601f0160208091040260200160405190810160405280929190818152602001828054610af29061314f565b8015610b3f5780601f10610b1457610100808354040283529160200191610b3f565b820191906000526020600020905b815481529060010190602001808311610b2257829003601f168201915b505050505081526020016001820160009054906101000a900473ffffffffffffffffffffffffffffffffffffffff1673ffffffffffffffffffffffffffffffffffffffff1673ffffffffffffffffffffffffffffffffffffffff1681526020016002820160009054906101000a900473ffffffffffffffffffffffffffffffffffffffff1673ffffffffffffffffffffffffffffffffffffffff1673ffffffffffffffffffffffffffffffffffffffff1681526020016003820160009054906101000a900473ffffffffffffffffffffffffffffffffffffffff1673ffffffffffffffffffffffffffffffffffffffff1673ffffffffffffffffffffffffffffffffffffffff1681525050905080600001518160200151826040015183606001519450945094509450509193509193565b60006001610c7e60056114cb565b610c889190613691565b905090565b6000806000806000806000806000806000600460008d8152602001908152602001600020604051806101400160405290816000820154815260200160018201548152602001600282015481526020016003820154815260200160048201548152602001600582015481526020016006820154815260200160078201548152602001600882015481526020016009820154815250509050806000015181602001518260400151836060015184608001518560a001518660c001518760e001518861010001518961012001519a509a509a509a509a509a509a509a509a509a50509193959799509193959799565b610d8b610d846111a2565b8383611689565b5050565b610d97612184565b60036000838152602001908152602001600020604051806080016040529081600082018054610dc59061314f565b80601f0160208091040260200160405190810160405280929190818152602001828054610df19061314f565b8015610e3e5780601f10610e1357610100808354040283529160200191610e3e565b820191906000526020600020905b815481529060010190602001808311610e2157829003601f168201915b505050505081526020016001820160009054906101000a900473ffffffffffffffffffffffffffffffffffffffff1673ffffffffffffffffffffffffffffffffffffffff1673ffffffffffffffffffffffffffffffffffffffff1681526020016002820160009054906101000a900473ffffffffffffffffffffffffffffffffffffffff1673ffffffffffffffffffffffffffffffffffffffff1673ffffffffffffffffffffffffffffffffffffffff1681526020016003820160009054906101000a900473ffffffffffffffffffffffffffffffffffffffff1673ffffffffffffffffffffffffffffffffffffffff1673ffffffffffffffffffffffffffffffffffffffff16815250509050919050565b6000600160008473ffffffffffffffffffffffffffffffffffffffff1673ffffffffffffffffffffffffffffffffffffffff16815260200190815260200160002060008373ffffffffffffffffffffffffffffffffffffffff1673ffffffffffffffffffffffffffffffffffffffff16815260200190815260200160002060009054906101000a900460ff16905092915050565b610fec6111a2565b73ffffffffffffffffffffffffffffffffffffffff168573ffffffffffffffffffffffffffffffffffffffff16148061103257506110318561102c6111a2565b610f50565b5b611071576040517f08c379a0000000000000000000000000000000000000000000000000000000008152600401611068906131f2565b60405180910390fd5b61107e85858585856117f5565b5050505050565b61108d6111a2565b73ffffffffffffffffffffffffffffffffffffffff168373ffffffffffffffffffffffffffffffffffffffff1614806110d357506110d2836110cd6111a2565b610f50565b5b611112576040517f08c379a0000000000000000000000000000000000000000000000000000000008152600401611109906131f2565b60405180910390fd5b61111d838383611a90565b505050565b6001816000016000828254019250508190555050565b60007f01ffc9a7000000000000000000000000000000000000000000000000000000007bffffffffffffffffffffffffffffffffffffffffffffffffffffffff1916827bffffffffffffffffffffffffffffffffffffffffffffffffffffffff1916149050919050565b600033905090565b81518351146111ee576040517f08c379a00000000000000000000000000000000000000000000000000000000081526004016111e590613737565b60405180910390fd5b600073ffffffffffffffffffffffffffffffffffffffff168473ffffffffffffffffffffffffffffffffffffffff160361125d576040517f08c379a0000000000000000000000000000000000000000000000000000000008152600401611254906137c9565b60405180910390fd5b60006112676111a2565b9050611277818787878787611cd6565b60005b8451811015611428576000858281518110611298576112976135eb565b5b6020026020010151905060008583815181106112b7576112b66135eb565b5b60200260200101519050600080600084815260200190815260200160002060008b73ffffffffffffffffffffffffffffffffffffffff1673ffffffffffffffffffffffffffffffffffffffff16815260200190815260200160002054905081811015611358576040517f08c379a000000000000000000000000000000000000000000000000000000000815260040161134f9061385b565b60405180910390fd5b81810360008085815260200190815260200160002060008c73ffffffffffffffffffffffffffffffffffffffff1673ffffffffffffffffffffffffffffffffffffffff168152602001908152602001600020819055508160008085815260200190815260200160002060008b73ffffffffffffffffffffffffffffffffffffffff1673ffffffffffffffffffffffffffffffffffffffff168152602001908152602001600020600082825461140d919061387b565b925050819055505050508061142190613649565b905061127a565b508473ffffffffffffffffffffffffffffffffffffffff168673ffffffffffffffffffffffffffffffffffffffff168273ffffffffffffffffffffffffffffffffffffffff167f4a39dc06d4c0dbc64b70af90fd698a233a518aa5d07e595d983b8c0526c8f7fb878760405161149f9291906138af565b60405180910390a46114b5818787878787611cde565b6114c3818787878787611ce6565b505050505050565b600081600001549050919050565b600073ffffffffffffffffffffffffffffffffffffffff168473ffffffffffffffffffffffffffffffffffffffff1603611548576040517f08c379a000000000000000000000000000000000000000000000000000000000815260040161153f90613958565b60405180910390fd5b60006115526111a2565b9050600061155f85611ebd565b9050600061156c85611ebd565b905061157d83600089858589611cd6565b8460008088815260200190815260200160002060008973ffffffffffffffffffffffffffffffffffffffff1673ffffffffffffffffffffffffffffffffffffffff16815260200190815260200160002060008282546115dc919061387b565b925050819055508673ffffffffffffffffffffffffffffffffffffffff16600073ffffffffffffffffffffffffffffffffffffffff168473ffffffffffffffffffffffffffffffffffffffff167fc3d58168c5ae7397731d063d5bbf3d657854427343f4c083240f7aacaa2d0f62898960405161165a929190613978565b60405180910390a461167183600089858589611cde565b61168083600089898989611f37565b50505050505050565b8173ffffffffffffffffffffffffffffffffffffffff168373ffffffffffffffffffffffffffffffffffffffff16036116f7576040517f08c379a00000000000000000000000000000000000000000000000000000000081526004016116ee90613a13565b60405180910390fd5b80600160008573ffffffffffffffffffffffffffffffffffffffff1673ffffffffffffffffffffffffffffffffffffffff16815260200190815260200160002060008473ffffffffffffffffffffffffffffffffffffffff1673ffffffffffffffffffffffffffffffffffffffff16815260200190815260200160002060006101000a81548160ff0219169083151502179055508173ffffffffffffffffffffffffffffffffffffffff168373ffffffffffffffffffffffffffffffffffffffff167f17307eab39ab6107e8899845ad3d59bd9653f200f220920489ca2b5937696c31836040516117e891906123a0565b60405180910390a3505050565b600073ffffffffffffffffffffffffffffffffffffffff168473ffffffffffffffffffffffffffffffffffffffff1603611864576040517f08c379a000000000000000000000000000000000000000000000000000000000815260040161185b906137c9565b60405180910390fd5b600061186e6111a2565b9050600061187b85611ebd565b9050600061188885611ebd565b9050611898838989858589611cd6565b600080600088815260200190815260200160002060008a73ffffffffffffffffffffffffffffffffffffffff1673ffffffffffffffffffffffffffffffffffffffff1681526020019081526020016000205490508581101561192f576040517f08c379a00000000000000000000000000000000000000000000000000000000081526004016119269061385b565b60405180910390fd5b85810360008089815260200190815260200160002060008b73ffffffffffffffffffffffffffffffffffffffff1673ffffffffffffffffffffffffffffffffffffffff168152602001908152602001600020819055508560008089815260200190815260200160002060008a73ffffffffffffffffffffffffffffffffffffffff1673ffffffffffffffffffffffffffffffffffffffff16815260200190815260200160002060008282546119e4919061387b565b925050819055508773ffffffffffffffffffffffffffffffffffffffff168973ffffffffffffffffffffffffffffffffffffffff168573ffffffffffffffffffffffffffffffffffffffff167fc3d58168c5ae7397731d063d5bbf3d657854427343f4c083240f7aacaa2d0f628a8a604051611a61929190613978565b60405180910390a4611a77848a8a86868a611cde565b611a85848a8a8a8a8a611f37565b505050505050505050565b600073ffffffffffffffffffffffffffffffffffffffff168373ffffffffffffffffffffffffffffffffffffffff1603611aff576040517f08c379a0000000000000000000000000000000000000000000000000000000008152600401611af690613aa5565b60405180910390fd5b6000611b096111a2565b90506000611b1684611ebd565b90506000611b2384611ebd565b9050611b4383876000858560405180602001604052806000815250611cd6565b600080600087815260200190815260200160002060008873ffffffffffffffffffffffffffffffffffffffff1673ffffffffffffffffffffffffffffffffffffffff16815260200190815260200160002054905084811015611bda576040517f08c379a0000000000000000000000000000000000000000000000000000000008152600401611bd190613b37565b60405180910390fd5b84810360008088815260200190815260200160002060008973ffffffffffffffffffffffffffffffffffffffff1673ffffffffffffffffffffffffffffffffffffffff16815260200190815260200160002081905550600073ffffffffffffffffffffffffffffffffffffffff168773ffffffffffffffffffffffffffffffffffffffff168573ffffffffffffffffffffffffffffffffffffffff167fc3d58168c5ae7397731d063d5bbf3d657854427343f4c083240f7aacaa2d0f628989604051611ca7929190613978565b60405180910390a4611ccd84886000868660405180602001604052806000815250611cde565b50505050505050565b505050505050565b505050505050565b611d058473ffffffffffffffffffffffffffffffffffffffff1661210e565b15611eb5578373ffffffffffffffffffffffffffffffffffffffff1663bc197c8187878686866040518663ffffffff1660e01b8152600401611d4b959493929190613bac565b6020604051808303816000875af1925050508015611d8757506040513d601f19601f82011682018060405250810190611d849190613c29565b60015b611e2c57611d93613c63565b806308c379a003611def5750611da7613c85565b80611db25750611df1565b806040517f08c379a0000000000000000000000000000000000000000000000000000000008152600401611de69190612478565b60405180910390fd5b505b6040517f08c379a0000000000000000000000000000000000000000000000000000000008152600401611e2390613d87565b60405180910390fd5b63bc197c8160e01b7bffffffffffffffffffffffffffffffffffffffffffffffffffffffff1916817bffffffffffffffffffffffffffffffffffffffffffffffffffffffff191614611eb3576040517f08c379a0000000000000000000000000000000000000000000000000000000008152600401611eaa90613e19565b60405180910390fd5b505b505050505050565b60606000600167ffffffffffffffff811115611edc57611edb61249f565b5b604051908082528060200260200182016040528015611f0a5781602001602082028036833780820191505090505b5090508281600081518110611f2257611f216135eb565b5b60200260200101818152505080915050919050565b611f568473ffffffffffffffffffffffffffffffffffffffff1661210e565b15612106578373ffffffffffffffffffffffffffffffffffffffff1663f23a6e6187878686866040518663ffffffff1660e01b8152600401611f9c959493929190613e39565b6020604051808303816000875af1925050508015611fd857506040513d601f19601f82011682018060405250810190611fd59190613c29565b60015b61207d57611fe4613c63565b806308c379a0036120405750611ff8613c85565b806120035750612042565b806040517f08c379a00000000000000000000000000000000000000000000000000000000081526004016120379190612478565b60405180910390fd5b505b6040517f08c379a000000000000000000000000000000000000000000000000000000000815260040161207490613d87565b60405180910390fd5b63f23a6e6160e01b7bffffffffffffffffffffffffffffffffffffffffffffffffffffffff1916817bffffffffffffffffffffffffffffffffffffffffffffffffffffffff191614612104576040517f08c379a00000000000000000000000000000000000000000000000000000000081526004016120fb90613e19565b60405180910390fd5b505b505050505050565b6000808273ffffffffffffffffffffffffffffffffffffffff163b119050919050565b604051806101400160405280600081526020016000815260200160008152602001600081526020016000815260200160008152602001600081526020016000815260200160008152602001600081525090565b604051806080016040528060608152602001600073ffffffffffffffffffffffffffffffffffffffff168152602001600073ffffffffffffffffffffffffffffffffffffffff168152602001600073ffffffffffffffffffffffffffffffffffffffff1681525090565b6000604051905090565b600080fd5b600080fd5b600073ffffffffffffffffffffffffffffffffffffffff82169050919050565b600061222d82612202565b9050919050565b61223d81612222565b811461224857600080fd5b50565b60008135905061225a81612234565b92915050565b6000819050919050565b61227381612260565b811461227e57600080fd5b50565b6000813590506122908161226a565b92915050565b600080604083850312156122ad576122ac6121f8565b5b60006122bb8582860161224b565b92505060206122cc85828601612281565b9150509250929050565b6122df81612260565b82525050565b60006020820190506122fa60008301846122d6565b92915050565b60007fffffffff0000000000000000000000000000000000000000000000000000000082169050919050565b61233581612300565b811461234057600080fd5b50565b6000813590506123528161232c565b92915050565b60006020828403121561236e5761236d6121f8565b5b600061237c84828501612343565b91505092915050565b60008115159050919050565b61239a81612385565b82525050565b60006020820190506123b56000830184612391565b92915050565b6000602082840312156123d1576123d06121f8565b5b60006123df84828501612281565b91505092915050565b600081519050919050565b600082825260208201905092915050565b60005b83811015612422578082015181840152602081019050612407565b60008484015250505050565b6000601f19601f8301169050919050565b600061244a826123e8565b61245481856123f3565b9350612464818560208601612404565b61246d8161242e565b840191505092915050565b60006020820190508181036000830152612492818461243f565b905092915050565b600080fd5b7f4e487b7100000000000000000000000000000000000000000000000000000000600052604160045260246000fd5b6124d78261242e565b810181811067ffffffffffffffff821117156124f6576124f561249f565b5b80604052505050565b60006125096121ee565b905061251582826124ce565b919050565b600067ffffffffffffffff8211156125355761253461249f565b5b602082029050602081019050919050565b600080fd5b600061255e6125598461251a565b6124ff565b9050808382526020820190506020840283018581111561258157612580612546565b5b835b818110156125aa57806125968882612281565b845260208401935050602081019050612583565b5050509392505050565b600082601f8301126125c9576125c861249a565b5b81356125d984826020860161254b565b91505092915050565b600080fd5b600067ffffffffffffffff8211156126025761260161249f565b5b61260b8261242e565b9050602081019050919050565b82818337600083830152505050565b600061263a612635846125e7565b6124ff565b905082815260208101848484011115612656576126556125e2565b5b612661848285612618565b509392505050565b600082601f83011261267e5761267d61249a565b5b813561268e848260208601612627565b91505092915050565b600080600080600060a086880312156126b3576126b26121f8565b5b60006126c18882890161224b565b95505060206126d28882890161224b565b945050604086013567ffffffffffffffff8111156126f3576126f26121fd565b5b6126ff888289016125b4565b935050606086013567ffffffffffffffff8111156127205761271f6121fd565b5b61272c888289016125b4565b925050608086013567ffffffffffffffff81111561274d5761274c6121fd565b5b61275988828901612669565b9150509295509295909350565b600080fd5b600080fd5b6000610140828403121561278757612786612766565b5b6127926101406124ff565b905060006127a284828501612281565b60008301525060206127b684828501612281565b60208301525060406127ca84828501612281565b60408301525060606127de84828501612281565b60608301525060806127f284828501612281565b60808301525060a061280684828501612281565b60a08301525060c061281a84828501612281565b60c08301525060e061282e84828501612281565b60e08301525061010061284384828501612281565b6101008301525061012061285984828501612281565b6101208301525092915050565b600067ffffffffffffffff8211156128815761288061249f565b5b61288a8261242e565b9050602081019050919050565b60006128aa6128a584612866565b6124ff565b9050828152602081018484840111156128c6576128c56125e2565b5b6128d1848285612618565b509392505050565b600082601f8301126128ee576128ed61249a565b5b81356128fe848260208601612897565b91505092915050565b60006080828403121561291d5761291c612766565b5b61292760806124ff565b9050600082013567ffffffffffffffff8111156129475761294661276b565b5b612953848285016128d9565b60008301525060206129678482850161224b565b602083015250604061297b8482850161224b565b604083015250606061298f8482850161224b565b60608301525092915050565b6000806000806101a085870312156129b6576129b56121f8565b5b60006129c48782880161224b565b94505060206129d587828801612281565b93505060406129e687828801612770565b92505061018085013567ffffffffffffffff811115612a0857612a076121fd565b5b612a1487828801612907565b91505092959194509250565b612a2981612260565b82525050565b61014082016000820151612a466000850182612a20565b506020820151612a596020850182612a20565b506040820151612a6c6040850182612a20565b506060820151612a7f6060850182612a20565b506080820151612a926080850182612a20565b5060a0820151612aa560a0850182612a20565b5060c0820151612ab860c0850182612a20565b5060e0820151612acb60e0850182612a20565b50610100820151612ae0610100850182612a20565b50610120820151612af5610120850182612a20565b50505050565b600061014082019050612b116000830184612a2f565b92915050565b600067ffffffffffffffff821115612b3257612b3161249f565b5b602082029050602081019050919050565b6000612b56612b5184612b17565b6124ff565b90508083825260208201905060208402830185811115612b7957612b78612546565b5b835b81811015612ba25780612b8e888261224b565b845260208401935050602081019050612b7b565b5050509392505050565b600082601f830112612bc157612bc061249a565b5b8135612bd1848260208601612b43565b91505092915050565b60008060408385031215612bf157612bf06121f8565b5b600083013567ffffffffffffffff811115612c0f57612c0e6121fd565b5b612c1b85828601612bac565b925050602083013567ffffffffffffffff811115612c3c57612c3b6121fd565b5b612c48858286016125b4565b9150509250929050565b600081519050919050565b600082825260208201905092915050565b6000819050602082019050919050565b6000612c8a8383612a20565b60208301905092915050565b6000602082019050919050565b6000612cae82612c52565b612cb88185612c5d565b9350612cc383612c6e565b8060005b83811015612cf4578151612cdb8882612c7e565b9750612ce683612c96565b925050600181019050612cc7565b5085935050505092915050565b60006020820190508181036000830152612d1b8184612ca3565b905092915050565b612d2c81612222565b82525050565b60006080820190508181036000830152612d4c818761243f565b9050612d5b6020830186612d23565b612d686040830185612d23565b612d756060830184612d23565b95945050505050565b600061014082019050612d94600083018d6122d6565b612da1602083018c6122d6565b612dae604083018b6122d6565b612dbb606083018a6122d6565b612dc860808301896122d6565b612dd560a08301886122d6565b612de260c08301876122d6565b612def60e08301866122d6565b612dfd6101008301856122d6565b612e0b6101208301846122d6565b9b9a5050505050505050505050565b612e2381612385565b8114612e2e57600080fd5b50565b600081359050612e4081612e1a565b92915050565b60008060408385031215612e5d57612e5c6121f8565b5b6000612e6b8582860161224b565b9250506020612e7c85828601612e31565b9150509250929050565b600082825260208201905092915050565b6000612ea2826123e8565b612eac8185612e86565b9350612ebc818560208601612404565b612ec58161242e565b840191505092915050565b612ed981612222565b82525050565b60006080830160008301518482036000860152612efc8282612e97565b9150506020830151612f116020860182612ed0565b506040830151612f246040860182612ed0565b506060830151612f376060860182612ed0565b508091505092915050565b60006020820190508181036000830152612f5c8184612edf565b905092915050565b60008060408385031215612f7b57612f7a6121f8565b5b6000612f898582860161224b565b9250506020612f9a8582860161224b565b9150509250929050565b600080600080600060a08688031215612fc057612fbf6121f8565b5b6000612fce8882890161224b565b9550506020612fdf8882890161224b565b9450506040612ff088828901612281565b935050606061300188828901612281565b925050608086013567ffffffffffffffff811115613022576130216121fd565b5b61302e88828901612669565b9150509295509295909350565b600080600060608486031215613054576130536121f8565b5b60006130628682870161224b565b935050602061307386828701612281565b925050604061308486828701612281565b9150509250925092565b7f455243313135353a2061646472657373207a65726f206973206e6f742061207660008201527f616c6964206f776e657200000000000000000000000000000000000000000000602082015250565b60006130ea602a836123f3565b91506130f58261308e565b604082019050919050565b60006020820190508181036000830152613119816130dd565b9050919050565b7f4e487b7100000000000000000000000000000000000000000000000000000000600052602260045260246000fd5b6000600282049050600182168061316757607f821691505b60208210810361317a57613179613120565b5b50919050565b7f455243313135353a2063616c6c6572206973206e6f7420746f6b656e206f776e60008201527f6572206f7220617070726f766564000000000000000000000000000000000000602082015250565b60006131dc602e836123f3565b91506131e782613180565b604082019050919050565b6000602082019050818103600083015261320b816131cf565b9050919050565b60006020820190506132276000830184612d23565b92915050565b60008151905061323c81612e1a565b92915050565b600060208284031215613258576132576121f8565b5b60006132668482850161322d565b91505092915050565b7f43616c6c6572206973206e6f74206120466163746f727920436f6e7472616374600082015250565b60006132a56020836123f3565b91506132b08261326f565b602082019050919050565b600060208201905081810360008301526132d481613298565b9050919050565b60008190508160005260206000209050919050565b60006020601f8301049050919050565b600082821b905092915050565b60006008830261333d7fffffffffffffffffffffffffffffffffffffffffffffffffffffffffffffffff82613300565b6133478683613300565b95508019841693508086168417925050509392505050565b6000819050919050565b600061338461337f61337a84612260565b61335f565b612260565b9050919050565b6000819050919050565b61339e83613369565b6133b26133aa8261338b565b84845461330d565b825550505050565b600090565b6133c76133ba565b6133d2818484613395565b505050565b5b818110156133f6576133eb6000826133bf565b6001810190506133d8565b5050565b601f82111561343b5761340c816132db565b613415846132f0565b81016020851015613424578190505b613438613430856132f0565b8301826133d7565b50505b505050565b600082821c905092915050565b600061345e60001984600802613440565b1980831691505092915050565b6000613477838361344d565b9150826002028217905092915050565b613490826123e8565b67ffffffffffffffff8111156134a9576134a861249f565b5b6134b3825461314f565b6134be8282856133fa565b600060209050601f8311600181146134f157600084156134df578287015190505b6134e9858261346b565b865550613551565b601f1984166134ff866132db565b60005b8281101561352757848901518255600182019150602085019450602081019050613502565b868310156135445784890151613540601f89168261344d565b8355505b6001600288020188555050505b505050505050565b7f455243313135353a206163636f756e747320616e6420696473206c656e67746860008201527f206d69736d617463680000000000000000000000000000000000000000000000602082015250565b60006135b56029836123f3565b91506135c082613559565b604082019050919050565b600060208201905081810360008301526135e4816135a8565b9050919050565b7f4e487b7100000000000000000000000000000000000000000000000000000000600052603260045260246000fd5b7f4e487b7100000000000000000000000000000000000000000000000000000000600052601160045260246000fd5b600061365482612260565b91507fffffffffffffffffffffffffffffffffffffffffffffffffffffffffffffffff82036136865761368561361a565b5b600182019050919050565b600061369c82612260565b91506136a783612260565b92508282039050818111156136bf576136be61361a565b5b92915050565b7f455243313135353a2069647320616e6420616d6f756e7473206c656e6774682060008201527f6d69736d61746368000000000000000000000000000000000000000000000000602082015250565b60006137216028836123f3565b915061372c826136c5565b604082019050919050565b6000602082019050818103600083015261375081613714565b9050919050565b7f455243313135353a207472616e7366657220746f20746865207a65726f20616460008201527f6472657373000000000000000000000000000000000000000000000000000000602082015250565b60006137b36025836123f3565b91506137be82613757565b604082019050919050565b600060208201905081810360008301526137e2816137a6565b9050919050565b7f455243313135353a20696e73756666696369656e742062616c616e636520666f60008201527f72207472616e7366657200000000000000000000000000000000000000000000602082015250565b6000613845602a836123f3565b9150613850826137e9565b604082019050919050565b6000602082019050818103600083015261387481613838565b9050919050565b600061388682612260565b915061389183612260565b92508282019050808211156138a9576138a861361a565b5b92915050565b600060408201905081810360008301526138c98185612ca3565b905081810360208301526138dd8184612ca3565b90509392505050565b7f455243313135353a206d696e7420746f20746865207a65726f2061646472657360008201527f7300000000000000000000000000000000000000000000000000000000000000602082015250565b60006139426021836123f3565b915061394d826138e6565b604082019050919050565b6000602082019050818103600083015261397181613935565b9050919050565b600060408201905061398d60008301856122d6565b61399a60208301846122d6565b9392505050565b7f455243313135353a2073657474696e6720617070726f76616c2073746174757360008201527f20666f722073656c660000000000000000000000000000000000000000000000602082015250565b60006139fd6029836123f3565b9150613a08826139a1565b604082019050919050565b60006020820190508181036000830152613a2c816139f0565b9050919050565b7f455243313135353a206275726e2066726f6d20746865207a65726f206164647260008201527f6573730000000000000000000000000000000000000000000000000000000000602082015250565b6000613a8f6023836123f3565b9150613a9a82613a33565b604082019050919050565b60006020820190508181036000830152613abe81613a82565b9050919050565b7f455243313135353a206275726e20616d6f756e7420657863656564732062616c60008201527f616e636500000000000000000000000000000000000000000000000000000000602082015250565b6000613b216024836123f3565b9150613b2c82613ac5565b604082019050919050565b60006020820190508181036000830152613b5081613b14565b9050919050565b600081519050919050565b600082825260208201905092915050565b6000613b7e82613b57565b613b888185613b62565b9350613b98818560208601612404565b613ba18161242e565b840191505092915050565b600060a082019050613bc16000830188612d23565b613bce6020830187612d23565b8181036040830152613be08186612ca3565b90508181036060830152613bf48185612ca3565b90508181036080830152613c088184613b73565b90509695505050505050565b600081519050613c238161232c565b92915050565b600060208284031215613c3f57613c3e6121f8565b5b6000613c4d84828501613c14565b91505092915050565b60008160e01c9050919050565b600060033d1115613c825760046000803e613c7f600051613c56565b90505b90565b600060443d10613d1257613c976121ee565b60043d036004823e80513d602482011167ffffffffffffffff82111715613cbf575050613d12565b808201805167ffffffffffffffff811115613cdd5750505050613d12565b80602083010160043d038501811115613cfa575050505050613d12565b613d09826020018501866124ce565b82955050505050505b90565b7f455243313135353a207472616e7366657220746f206e6f6e2d4552433131353560008201527f526563656976657220696d706c656d656e746572000000000000000000000000602082015250565b6000613d716034836123f3565b9150613d7c82613d15565b604082019050919050565b60006020820190508181036000830152613da081613d64565b9050919050565b7f455243313135353a204552433131353552656365697665722072656a6563746560008201527f6420746f6b656e73000000000000000000000000000000000000000000000000602082015250565b6000613e036028836123f3565b9150613e0e82613da7565b604082019050919050565b60006020820190508181036000830152613e3281613df6565b9050919050565b600060a082019050613e4e6000830188612d23565b613e5b6020830187612d23565b613e6860408301866122d6565b613e7560608301856122d6565b8181036080830152613e878184613b73565b9050969550505050505056fea26469706673582212204fd323ff60327197fe5f35652919aad10fd9da45c41814c320e18cf6fd7526d564736f6c63430008110033",
  "linkReferences": {},
  "deployedLinkReferences": {}
}