{
	"data": {
		"bytecode": {
			"linkReferences": {},
			"object": "60a060405234801561001057600080fd5b5033608052608051610e65610037600039600081816102d20152610a4b0152610e656000f3fe608060405234801561001057600080fd5b50600436106101585760003560e01c806394fb7881116100c3578063bcae68241161007c578063bcae6824146103e9578063bea75cf4146103fc578063d050a7c81461040f578063daa3029814610422578063dae382d614610462578063e4cdc1ad1461047557600080fd5b806394fb788114610328578063b0b4dfaa14610351578063b54cb16514610364578063b8c2e4f314610377578063ba6b89731461038a578063babeac63146103c057600080fd5b80637db79a3d116101155780637db79a3d146102465780637edd4d4d146102595780638052ce111461029257806383883fe3146102b25780638da5cb5b146102c55780638fcfa775146102fc57600080fd5b80630f04ba671461015d57806336721cd41461019e578063576ff163146101d557806359ed43e2146101ea578063783ff1f1146101fd5780637c1edb9d14610210575b600080fd5b61018961016b366004610b2e565b6001600160a01b031660009081526001602052604090205460ff1690565b60405190151581526020015b60405180910390f35b6101c76101ac366004610b2e565b6001600160a01b031660009081526002602052604090205490565b604051908152602001610195565b6101e86101e3366004610b50565b610488565b005b6101c76101f8366004610b7c565b61050b565b6101e861020b366004610b2e565b610536565b6101c761021e366004610b7c565b6001600160a01b03919091166000908152600360209081526040808320938352929052205490565b6101e8610254366004610ba6565b6105a2565b6101c7610267366004610bea565b6001600160a01b03918216600090815260046020908152604080832093909416825291909152205490565b6101c76102a0366004610c14565b60009081526006602052604090205490565b6101e86102c0366004610b50565b610635565b6040516001600160a01b037f0000000000000000000000000000000000000000000000000000000000000000168152602001610195565b61018961030a366004610b2e565b6001600160a01b031660009081526020819052604090205460ff1690565b6101c7610336366004610b2e565b6001600160a01b031660009081526008602052604090205490565b6101e861035f366004610c2d565b6106a6565b6101e8610372366004610c14565b61072c565b6101e8610385366004610c62565b61079c565b6101c7610398366004610b7c565b6001600160a01b03919091166000908152600760209081526040808320938352929052205490565b6101c76103ce366004610b2e565b6001600160a01b03166000908152600a602052604090205490565b6101e86103f7366004610b50565b61081c565b6101e861040a366004610b7c565b6108dd565b6101e861041d366004610b7c565b61095a565b6101c7610430366004610c9e565b6001600160a01b0392831660009081526005602090815260408083209490951682529283528381209181529152205490565b6101e8610470366004610b2e565b6109d7565b6101e8610483366004610ce0565b610a49565b3360009081526001602052604090205460ff16806104b557503360009081526020819052604090205460ff165b6104da5760405162461bcd60e51b81526004016104d190610da5565b60405180910390fd5b6001600160a01b03811660009081526002602052604081208054849290610502908490610dda565b90915550505050565b6001600160a01b03821660009081526009602090815260408083208484529091529020545b92915050565b3360009081526020819052604090205460ff1661057b5760405162461bcd60e51b815260206004820152600360248201526204e41560ec1b60448201526064016104d1565b6001600160a01b03166000908152600160208190526040909120805460ff19169091179055565b3360009081526001602052604090205460ff16806105cf57503360009081526020819052604090205460ff165b6105eb5760405162461bcd60e51b81526004016104d190610da5565b6001600160a01b03808416600090815260056020908152604080832093861683529281528282208483529052908120805486929061062a908490610dda565b909155505050505050565b3360009081526001602052604090205460ff168061066257503360009081526020819052604090205460ff165b61067e5760405162461bcd60e51b81526004016104d190610da5565b6001600160a01b0381166000908152600a602052604081208054849290610502908490610dda565b3360009081526001602052604090205460ff16806106d357503360009081526020819052604090205460ff165b6106ef5760405162461bcd60e51b81526004016104d190610da5565b6001600160a01b038216600090815260036020908152604080832084845290915281208054859290610722908490610dda565b9091555050505050565b3360009081526001602052604090205460ff168061075957503360009081526020819052604090205460ff165b6107755760405162461bcd60e51b81526004016104d190610da5565b6000818152600660205260408120805460019290610794908490610dda565b909155505050565b3360009081526001602052604090205460ff16806107c957503360009081526020819052604090205460ff165b6107e55760405162461bcd60e51b81526004016104d190610da5565b6001600160a01b03808316600090815260046020908152604080832093851683529290529081208054859290610722908490610dda565b3360009081526001602052604090205460ff168061084957503360009081526020819052604090205460ff165b6108655760405162461bcd60e51b81526004016104d190610da5565b6001600160a01b0381166000908152600a60205260409020548211156108b55760405162461bcd60e51b8152602060048201526005602482015264105155159360da1b60448201526064016104d1565b6001600160a01b0381166000908152600a602052604081208054849290610502908490610ded565b3360009081526001602052604090205460ff168061090a57503360009081526020819052604090205460ff165b6109265760405162461bcd60e51b81526004016104d190610da5565b6001600160a01b03821660009081526007602090815260408083208484529091528120805460019290610502908490610dda565b3360009081526001602052604090205460ff168061098757503360009081526020819052604090205460ff165b6109a35760405162461bcd60e51b81526004016104d190610da5565b6001600160a01b03821660009081526009602090815260408083208484529091528120805460019290610502908490610dda565b3360009081526001602052604090205460ff1680610a0457503360009081526020819052604090205460ff165b610a205760405162461bcd60e51b81526004016104d190610da5565b6001600160a01b0381166000908152600860205260408120805460019290610794908490610dda565b7f00000000000000000000000000000000000000000000000000000000000000006001600160a01b03163314610aa75760405162461bcd60e51b81526020600482015260036024820152624e544f60e81b60448201526064016104d1565b60005b8151811015610b0e576001600080848481518110610aca57610aca610e00565b6020908102919091018101516001600160a01b03168252810191909152604001600020805460ff191691151591909117905580610b0681610e16565b915050610aaa565b5050565b80356001600160a01b0381168114610b2957600080fd5b919050565b600060208284031215610b4057600080fd5b610b4982610b12565b9392505050565b60008060408385031215610b6357600080fd5b82359150610b7360208401610b12565b90509250929050565b60008060408385031215610b8f57600080fd5b610b9883610b12565b946020939093013593505050565b60008060008060808587031215610bbc57600080fd5b84359350610bcc60208601610b12565b9250610bda60408601610b12565b9396929550929360600135925050565b60008060408385031215610bfd57600080fd5b610c0683610b12565b9150610b7360208401610b12565b600060208284031215610c2657600080fd5b5035919050565b600080600060608486031215610c4257600080fd5b83359250610c5260208501610b12565b9150604084013590509250925092565b600080600060608486031215610c7757600080fd5b83359250610c8760208501610b12565b9150610c9560408501610b12565b90509250925092565b600080600060608486031215610cb357600080fd5b610cbc84610b12565b9250610c5260208501610b12565b634e487b7160e01b600052604160045260246000fd5b60006020808385031215610cf357600080fd5b823567ffffffffffffffff80821115610d0b57600080fd5b818501915085601f830112610d1f57600080fd5b813581811115610d3157610d31610cca565b8060051b604051601f19603f83011681018181108582111715610d5657610d56610cca565b604052918252848201925083810185019188831115610d7457600080fd5b938501935b82851015610d9957610d8a85610b12565b84529385019392850192610d79565b98975050505050505050565b6020808252600590820152642720a827a360d91b604082015260600190565b634e487b7160e01b600052601160045260246000fd5b8082018082111561053057610530610dc4565b8181038181111561053057610530610dc4565b634e487b7160e01b600052603260045260246000fd5b600060018201610e2857610e28610dc4565b506001019056fea2646970667358221220b2ec30255e99a93b655de1cbc9f9ec8a1dcaeac9a63eaa2bb1b6d18ced9d136864736f6c63430008110033",
			"opcodes": "PUSH1 0xA0 PUSH1 0x40 MSTORE CALLVALUE DUP1 ISZERO PUSH2 0x10 JUMPI PUSH1 0x0 DUP1 REVERT JUMPDEST POP CALLER PUSH1 0x80 MSTORE PUSH1 0x80 MLOAD PUSH2 0xE65 PUSH2 0x37 PUSH1 0x0 CODECOPY PUSH1 0x0 DUP2 DUP2 PUSH2 0x2D2 ADD MSTORE PUSH2 0xA4B ADD MSTORE PUSH2 0xE65 PUSH1 0x0 RETURN INVALID PUSH1 0x80 PUSH1 0x40 MSTORE CALLVALUE DUP1 ISZERO PUSH2 0x10 JUMPI PUSH1 0x0 DUP1 REVERT JUMPDEST POP PUSH1 0x4 CALLDATASIZE LT PUSH2 0x158 JUMPI PUSH1 0x0 CALLDATALOAD PUSH1 0xE0 SHR DUP1 PUSH4 0x94FB7881 GT PUSH2 0xC3 JUMPI DUP1 PUSH4 0xBCAE6824 GT PUSH2 0x7C JUMPI DUP1 PUSH4 0xBCAE6824 EQ PUSH2 0x3E9 JUMPI DUP1 PUSH4 0xBEA75CF4 EQ PUSH2 0x3FC JUMPI DUP1 PUSH4 0xD050A7C8 EQ PUSH2 0x40F JUMPI DUP1 PUSH4 0xDAA30298 EQ PUSH2 0x422 JUMPI DUP1 PUSH4 0xDAE382D6 EQ PUSH2 0x462 JUMPI DUP1 PUSH4 0xE4CDC1AD EQ PUSH2 0x475 JUMPI PUSH1 0x0 DUP1 REVERT JUMPDEST DUP1 PUSH4 0x94FB7881 EQ PUSH2 0x328 JUMPI DUP1 PUSH4 0xB0B4DFAA EQ PUSH2 0x351 JUMPI DUP1 PUSH4 0xB54CB165 EQ PUSH2 0x364 JUMPI DUP1 PUSH4 0xB8C2E4F3 EQ PUSH2 0x377 JUMPI DUP1 PUSH4 0xBA6B8973 EQ PUSH2 0x38A JUMPI DUP1 PUSH4 0xBABEAC63 EQ PUSH2 0x3C0 JUMPI PUSH1 0x0 DUP1 REVERT JUMPDEST DUP1 PUSH4 0x7DB79A3D GT PUSH2 0x115 JUMPI DUP1 PUSH4 0x7DB79A3D EQ PUSH2 0x246 JUMPI DUP1 PUSH4 0x7EDD4D4D EQ PUSH2 0x259 JUMPI DUP1 PUSH4 0x8052CE11 EQ PUSH2 0x292 JUMPI DUP1 PUSH4 0x83883FE3 EQ PUSH2 0x2B2 JUMPI DUP1 PUSH4 0x8DA5CB5B EQ PUSH2 0x2C5 JUMPI DUP1 PUSH4 0x8FCFA775 EQ PUSH2 0x2FC JUMPI PUSH1 0x0 DUP1 REVERT JUMPDEST DUP1 PUSH4 0xF04BA67 EQ PUSH2 0x15D JUMPI DUP1 PUSH4 0x36721CD4 EQ PUSH2 0x19E JUMPI DUP1 PUSH4 0x576FF163 EQ PUSH2 0x1D5 JUMPI DUP1 PUSH4 0x59ED43E2 EQ PUSH2 0x1EA JUMPI DUP1 PUSH4 0x783FF1F1 EQ PUSH2 0x1FD JUMPI DUP1 PUSH4 0x7C1EDB9D EQ PUSH2 0x210 JUMPI JUMPDEST PUSH1 0x0 DUP1 REVERT JUMPDEST PUSH2 0x189 PUSH2 0x16B CALLDATASIZE PUSH1 0x4 PUSH2 0xB2E JUMP JUMPDEST PUSH1 0x1 PUSH1 0x1 PUSH1 0xA0 SHL SUB AND PUSH1 0x0 SWAP1 DUP2 MSTORE PUSH1 0x1 PUSH1 0x20 MSTORE PUSH1 0x40 SWAP1 KECCAK256 SLOAD PUSH1 0xFF AND SWAP1 JUMP JUMPDEST PUSH1 0x40 MLOAD SWAP1 ISZERO ISZERO DUP2 MSTORE PUSH1 0x20 ADD JUMPDEST PUSH1 0x40 MLOAD DUP1 SWAP2 SUB SWAP1 RETURN JUMPDEST PUSH2 0x1C7 PUSH2 0x1AC CALLDATASIZE PUSH1 0x4 PUSH2 0xB2E JUMP JUMPDEST PUSH1 0x1 PUSH1 0x1 PUSH1 0xA0 SHL SUB AND PUSH1 0x0 SWAP1 DUP2 MSTORE PUSH1 0x2 PUSH1 0x20 MSTORE PUSH1 0x40 SWAP1 KECCAK256 SLOAD SWAP1 JUMP JUMPDEST PUSH1 0x40 MLOAD SWAP1 DUP2 MSTORE PUSH1 0x20 ADD PUSH2 0x195 JUMP JUMPDEST PUSH2 0x1E8 PUSH2 0x1E3 CALLDATASIZE PUSH1 0x4 PUSH2 0xB50 JUMP JUMPDEST PUSH2 0x488 JUMP JUMPDEST STOP JUMPDEST PUSH2 0x1C7 PUSH2 0x1F8 CALLDATASIZE PUSH1 0x4 PUSH2 0xB7C JUMP JUMPDEST PUSH2 0x50B JUMP JUMPDEST PUSH2 0x1E8 PUSH2 0x20B CALLDATASIZE PUSH1 0x4 PUSH2 0xB2E JUMP JUMPDEST PUSH2 0x536 JUMP JUMPDEST PUSH2 0x1C7 PUSH2 0x21E CALLDATASIZE PUSH1 0x4 PUSH2 0xB7C JUMP JUMPDEST PUSH1 0x1 PUSH1 0x1 PUSH1 0xA0 SHL SUB SWAP2 SWAP1 SWAP2 AND PUSH1 0x0 SWAP1 DUP2 MSTORE PUSH1 0x3 PUSH1 0x20 SWAP1 DUP2 MSTORE PUSH1 0x40 DUP1 DUP4 KECCAK256 SWAP4 DUP4 MSTORE SWAP3 SWAP1 MSTORE KECCAK256 SLOAD SWAP1 JUMP JUMPDEST PUSH2 0x1E8 PUSH2 0x254 CALLDATASIZE PUSH1 0x4 PUSH2 0xBA6 JUMP JUMPDEST PUSH2 0x5A2 JUMP JUMPDEST PUSH2 0x1C7 PUSH2 0x267 CALLDATASIZE PUSH1 0x4 PUSH2 0xBEA JUMP JUMPDEST PUSH1 0x1 PUSH1 0x1 PUSH1 0xA0 SHL SUB SWAP2 DUP3 AND PUSH1 0x0 SWAP1 DUP2 MSTORE PUSH1 0x4 PUSH1 0x20 SWAP1 DUP2 MSTORE PUSH1 0x40 DUP1 DUP4 KECCAK256 SWAP4 SWAP1 SWAP5 AND DUP3 MSTORE SWAP2 SWAP1 SWAP2 MSTORE KECCAK256 SLOAD SWAP1 JUMP JUMPDEST PUSH2 0x1C7 PUSH2 0x2A0 CALLDATASIZE PUSH1 0x4 PUSH2 0xC14 JUMP JUMPDEST PUSH1 0x0 SWAP1 DUP2 MSTORE PUSH1 0x6 PUSH1 0x20 MSTORE PUSH1 0x40 SWAP1 KECCAK256 SLOAD SWAP1 JUMP JUMPDEST PUSH2 0x1E8 PUSH2 0x2C0 CALLDATASIZE PUSH1 0x4 PUSH2 0xB50 JUMP JUMPDEST PUSH2 0x635 JUMP JUMPDEST PUSH1 0x40 MLOAD PUSH1 0x1 PUSH1 0x1 PUSH1 0xA0 SHL SUB PUSH32 0x0 AND DUP2 MSTORE PUSH1 0x20 ADD PUSH2 0x195 JUMP JUMPDEST PUSH2 0x189 PUSH2 0x30A CALLDATASIZE PUSH1 0x4 PUSH2 0xB2E JUMP JUMPDEST PUSH1 0x1 PUSH1 0x1 PUSH1 0xA0 SHL SUB AND PUSH1 0x0 SWAP1 DUP2 MSTORE PUSH1 0x20 DUP2 SWAP1 MSTORE PUSH1 0x40 SWAP1 KECCAK256 SLOAD PUSH1 0xFF AND SWAP1 JUMP JUMPDEST PUSH2 0x1C7 PUSH2 0x336 CALLDATASIZE PUSH1 0x4 PUSH2 0xB2E JUMP JUMPDEST PUSH1 0x1 PUSH1 0x1 PUSH1 0xA0 SHL SUB AND PUSH1 0x0 SWAP1 DUP2 MSTORE PUSH1 0x8 PUSH1 0x20 MSTORE PUSH1 0x40 SWAP1 KECCAK256 SLOAD SWAP1 JUMP JUMPDEST PUSH2 0x1E8 PUSH2 0x35F CALLDATASIZE PUSH1 0x4 PUSH2 0xC2D JUMP JUMPDEST PUSH2 0x6A6 JUMP JUMPDEST PUSH2 0x1E8 PUSH2 0x372 CALLDATASIZE PUSH1 0x4 PUSH2 0xC14 JUMP JUMPDEST PUSH2 0x72C JUMP JUMPDEST PUSH2 0x1E8 PUSH2 0x385 CALLDATASIZE PUSH1 0x4 PUSH2 0xC62 JUMP JUMPDEST PUSH2 0x79C JUMP JUMPDEST PUSH2 0x1C7 PUSH2 0x398 CALLDATASIZE PUSH1 0x4 PUSH2 0xB7C JUMP JUMPDEST PUSH1 0x1 PUSH1 0x1 PUSH1 0xA0 SHL SUB SWAP2 SWAP1 SWAP2 AND PUSH1 0x0 SWAP1 DUP2 MSTORE PUSH1 0x7 PUSH1 0x20 SWAP1 DUP2 MSTORE PUSH1 0x40 DUP1 DUP4 KECCAK256 SWAP4 DUP4 MSTORE SWAP3 SWAP1 MSTORE KECCAK256 SLOAD SWAP1 JUMP JUMPDEST PUSH2 0x1C7 PUSH2 0x3CE CALLDATASIZE PUSH1 0x4 PUSH2 0xB2E JUMP JUMPDEST PUSH1 0x1 PUSH1 0x1 PUSH1 0xA0 SHL SUB AND PUSH1 0x0 SWAP1 DUP2 MSTORE PUSH1 0xA PUSH1 0x20 MSTORE PUSH1 0x40 SWAP1 KECCAK256 SLOAD SWAP1 JUMP JUMPDEST PUSH2 0x1E8 PUSH2 0x3F7 CALLDATASIZE PUSH1 0x4 PUSH2 0xB50 JUMP JUMPDEST PUSH2 0x81C JUMP JUMPDEST PUSH2 0x1E8 PUSH2 0x40A CALLDATASIZE PUSH1 0x4 PUSH2 0xB7C JUMP JUMPDEST PUSH2 0x8DD JUMP JUMPDEST PUSH2 0x1E8 PUSH2 0x41D CALLDATASIZE PUSH1 0x4 PUSH2 0xB7C JUMP JUMPDEST PUSH2 0x95A JUMP JUMPDEST PUSH2 0x1C7 PUSH2 0x430 CALLDATASIZE PUSH1 0x4 PUSH2 0xC9E JUMP JUMPDEST PUSH1 0x1 PUSH1 0x1 PUSH1 0xA0 SHL SUB SWAP3 DUP4 AND PUSH1 0x0 SWAP1 DUP2 MSTORE PUSH1 0x5 PUSH1 0x20 SWAP1 DUP2 MSTORE PUSH1 0x40 DUP1 DUP4 KECCAK256 SWAP5 SWAP1 SWAP6 AND DUP3 MSTORE SWAP3 DUP4 MSTORE DUP4 DUP2 KECCAK256 SWAP2 DUP2 MSTORE SWAP2 MSTORE KECCAK256 SLOAD SWAP1 JUMP JUMPDEST PUSH2 0x1E8 PUSH2 0x470 CALLDATASIZE PUSH1 0x4 PUSH2 0xB2E JUMP JUMPDEST PUSH2 0x9D7 JUMP JUMPDEST PUSH2 0x1E8 PUSH2 0x483 CALLDATASIZE PUSH1 0x4 PUSH2 0xCE0 JUMP JUMPDEST PUSH2 0xA49 JUMP JUMPDEST CALLER PUSH1 0x0 SWAP1 DUP2 MSTORE PUSH1 0x1 PUSH1 0x20 MSTORE PUSH1 0x40 SWAP1 KECCAK256 SLOAD PUSH1 0xFF AND DUP1 PUSH2 0x4B5 JUMPI POP CALLER PUSH1 0x0 SWAP1 DUP2 MSTORE PUSH1 0x20 DUP2 SWAP1 MSTORE PUSH1 0x40 SWAP1 KECCAK256 SLOAD PUSH1 0xFF AND JUMPDEST PUSH2 0x4DA JUMPI PUSH1 0x40 MLOAD PUSH3 0x461BCD PUSH1 0xE5 SHL DUP2 MSTORE PUSH1 0x4 ADD PUSH2 0x4D1 SWAP1 PUSH2 0xDA5 JUMP JUMPDEST PUSH1 0x40 MLOAD DUP1 SWAP2 SUB SWAP1 REVERT JUMPDEST PUSH1 0x1 PUSH1 0x1 PUSH1 0xA0 SHL SUB DUP2 AND PUSH1 0x0 SWAP1 DUP2 MSTORE PUSH1 0x2 PUSH1 0x20 MSTORE PUSH1 0x40 DUP2 KECCAK256 DUP1 SLOAD DUP5 SWAP3 SWAP1 PUSH2 0x502 SWAP1 DUP5 SWAP1 PUSH2 0xDDA JUMP JUMPDEST SWAP1 SWAP2 SSTORE POP POP POP POP JUMP JUMPDEST PUSH1 0x1 PUSH1 0x1 PUSH1 0xA0 SHL SUB DUP3 AND PUSH1 0x0 SWAP1 DUP2 MSTORE PUSH1 0x9 PUSH1 0x20 SWAP1 DUP2 MSTORE PUSH1 0x40 DUP1 DUP4 KECCAK256 DUP5 DUP5 MSTORE SWAP1 SWAP2 MSTORE SWAP1 KECCAK256 SLOAD JUMPDEST SWAP3 SWAP2 POP POP JUMP JUMPDEST CALLER PUSH1 0x0 SWAP1 DUP2 MSTORE PUSH1 0x20 DUP2 SWAP1 MSTORE PUSH1 0x40 SWAP1 KECCAK256 SLOAD PUSH1 0xFF AND PUSH2 0x57B JUMPI PUSH1 0x40 MLOAD PUSH3 0x461BCD PUSH1 0xE5 SHL DUP2 MSTORE PUSH1 0x20 PUSH1 0x4 DUP3 ADD MSTORE PUSH1 0x3 PUSH1 0x24 DUP3 ADD MSTORE PUSH3 0x4E415 PUSH1 0xEC SHL PUSH1 0x44 DUP3 ADD MSTORE PUSH1 0x64 ADD PUSH2 0x4D1 JUMP JUMPDEST PUSH1 0x1 PUSH1 0x1 PUSH1 0xA0 SHL SUB AND PUSH1 0x0 SWAP1 DUP2 MSTORE PUSH1 0x1 PUSH1 0x20 DUP2 SWAP1 MSTORE PUSH1 0x40 SWAP1 SWAP2 KECCAK256 DUP1 SLOAD PUSH1 0xFF NOT AND SWAP1 SWAP2 OR SWAP1 SSTORE JUMP JUMPDEST CALLER PUSH1 0x0 SWAP1 DUP2 MSTORE PUSH1 0x1 PUSH1 0x20 MSTORE PUSH1 0x40 SWAP1 KECCAK256 SLOAD PUSH1 0xFF AND DUP1 PUSH2 0x5CF JUMPI POP CALLER PUSH1 0x0 SWAP1 DUP2 MSTORE PUSH1 0x20 DUP2 SWAP1 MSTORE PUSH1 0x40 SWAP1 KECCAK256 SLOAD PUSH1 0xFF AND JUMPDEST PUSH2 0x5EB JUMPI PUSH1 0x40 MLOAD PUSH3 0x461BCD PUSH1 0xE5 SHL DUP2 MSTORE PUSH1 0x4 ADD PUSH2 0x4D1 SWAP1 PUSH2 0xDA5 JUMP JUMPDEST PUSH1 0x1 PUSH1 0x1 PUSH1 0xA0 SHL SUB DUP1 DUP5 AND PUSH1 0x0 SWAP1 DUP2 MSTORE PUSH1 0x5 PUSH1 0x20 SWAP1 DUP2 MSTORE PUSH1 0x40 DUP1 DUP4 KECCAK256 SWAP4 DUP7 AND DUP4 MSTORE SWAP3 DUP2 MSTORE DUP3 DUP3 KECCAK256 DUP5 DUP4 MSTORE SWAP1 MSTORE SWAP1 DUP2 KECCAK256 DUP1 SLOAD DUP7 SWAP3 SWAP1 PUSH2 0x62A SWAP1 DUP5 SWAP1 PUSH2 0xDDA JUMP JUMPDEST SWAP1 SWAP2 SSTORE POP POP POP POP POP POP JUMP JUMPDEST CALLER PUSH1 0x0 SWAP1 DUP2 MSTORE PUSH1 0x1 PUSH1 0x20 MSTORE PUSH1 0x40 SWAP1 KECCAK256 SLOAD PUSH1 0xFF AND DUP1 PUSH2 0x662 JUMPI POP CALLER PUSH1 0x0 SWAP1 DUP2 MSTORE PUSH1 0x20 DUP2 SWAP1 MSTORE PUSH1 0x40 SWAP1 KECCAK256 SLOAD PUSH1 0xFF AND JUMPDEST PUSH2 0x67E JUMPI PUSH1 0x40 MLOAD PUSH3 0x461BCD PUSH1 0xE5 SHL DUP2 MSTORE PUSH1 0x4 ADD PUSH2 0x4D1 SWAP1 PUSH2 0xDA5 JUMP JUMPDEST PUSH1 0x1 PUSH1 0x1 PUSH1 0xA0 SHL SUB DUP2 AND PUSH1 0x0 SWAP1 DUP2 MSTORE PUSH1 0xA PUSH1 0x20 MSTORE PUSH1 0x40 DUP2 KECCAK256 DUP1 SLOAD DUP5 SWAP3 SWAP1 PUSH2 0x502 SWAP1 DUP5 SWAP1 PUSH2 0xDDA JUMP JUMPDEST CALLER PUSH1 0x0 SWAP1 DUP2 MSTORE PUSH1 0x1 PUSH1 0x20 MSTORE PUSH1 0x40 SWAP1 KECCAK256 SLOAD PUSH1 0xFF AND DUP1 PUSH2 0x6D3 JUMPI POP CALLER PUSH1 0x0 SWAP1 DUP2 MSTORE PUSH1 0x20 DUP2 SWAP1 MSTORE PUSH1 0x40 SWAP1 KECCAK256 SLOAD PUSH1 0xFF AND JUMPDEST PUSH2 0x6EF JUMPI PUSH1 0x40 MLOAD PUSH3 0x461BCD PUSH1 0xE5 SHL DUP2 MSTORE PUSH1 0x4 ADD PUSH2 0x4D1 SWAP1 PUSH2 0xDA5 JUMP JUMPDEST PUSH1 0x1 PUSH1 0x1 PUSH1 0xA0 SHL SUB DUP3 AND PUSH1 0x0 SWAP1 DUP2 MSTORE PUSH1 0x3 PUSH1 0x20 SWAP1 DUP2 MSTORE PUSH1 0x40 DUP1 DUP4 KECCAK256 DUP5 DUP5 MSTORE SWAP1 SWAP2 MSTORE DUP2 KECCAK256 DUP1 SLOAD DUP6 SWAP3 SWAP1 PUSH2 0x722 SWAP1 DUP5 SWAP1 PUSH2 0xDDA JUMP JUMPDEST SWAP1 SWAP2 SSTORE POP POP POP POP POP JUMP JUMPDEST CALLER PUSH1 0x0 SWAP1 DUP2 MSTORE PUSH1 0x1 PUSH1 0x20 MSTORE PUSH1 0x40 SWAP1 KECCAK256 SLOAD PUSH1 0xFF AND DUP1 PUSH2 0x759 JUMPI POP CALLER PUSH1 0x0 SWAP1 DUP2 MSTORE PUSH1 0x20 DUP2 SWAP1 MSTORE PUSH1 0x40 SWAP1 KECCAK256 SLOAD PUSH1 0xFF AND JUMPDEST PUSH2 0x775 JUMPI PUSH1 0x40 MLOAD PUSH3 0x461BCD PUSH1 0xE5 SHL DUP2 MSTORE PUSH1 0x4 ADD PUSH2 0x4D1 SWAP1 PUSH2 0xDA5 JUMP JUMPDEST PUSH1 0x0 DUP2 DUP2 MSTORE PUSH1 0x6 PUSH1 0x20 MSTORE PUSH1 0x40 DUP2 KECCAK256 DUP1 SLOAD PUSH1 0x1 SWAP3 SWAP1 PUSH2 0x794 SWAP1 DUP5 SWAP1 PUSH2 0xDDA JUMP JUMPDEST SWAP1 SWAP2 SSTORE POP POP POP JUMP JUMPDEST CALLER PUSH1 0x0 SWAP1 DUP2 MSTORE PUSH1 0x1 PUSH1 0x20 MSTORE PUSH1 0x40 SWAP1 KECCAK256 SLOAD PUSH1 0xFF AND DUP1 PUSH2 0x7C9 JUMPI POP CALLER PUSH1 0x0 SWAP1 DUP2 MSTORE PUSH1 0x20 DUP2 SWAP1 MSTORE PUSH1 0x40 SWAP1 KECCAK256 SLOAD PUSH1 0xFF AND JUMPDEST PUSH2 0x7E5 JUMPI PUSH1 0x40 MLOAD PUSH3 0x461BCD PUSH1 0xE5 SHL DUP2 MSTORE PUSH1 0x4 ADD PUSH2 0x4D1 SWAP1 PUSH2 0xDA5 JUMP JUMPDEST PUSH1 0x1 PUSH1 0x1 PUSH1 0xA0 SHL SUB DUP1 DUP4 AND PUSH1 0x0 SWAP1 DUP2 MSTORE PUSH1 0x4 PUSH1 0x20 SWAP1 DUP2 MSTORE PUSH1 0x40 DUP1 DUP4 KECCAK256 SWAP4 DUP6 AND DUP4 MSTORE SWAP3 SWAP1 MSTORE SWAP1 DUP2 KECCAK256 DUP1 SLOAD DUP6 SWAP3 SWAP1 PUSH2 0x722 SWAP1 DUP5 SWAP1 PUSH2 0xDDA JUMP JUMPDEST CALLER PUSH1 0x0 SWAP1 DUP2 MSTORE PUSH1 0x1 PUSH1 0x20 MSTORE PUSH1 0x40 SWAP1 KECCAK256 SLOAD PUSH1 0xFF AND DUP1 PUSH2 0x849 JUMPI POP CALLER PUSH1 0x0 SWAP1 DUP2 MSTORE PUSH1 0x20 DUP2 SWAP1 MSTORE PUSH1 0x40 SWAP1 KECCAK256 SLOAD PUSH1 0xFF AND JUMPDEST PUSH2 0x865 JUMPI PUSH1 0x40 MLOAD PUSH3 0x461BCD PUSH1 0xE5 SHL DUP2 MSTORE PUSH1 0x4 ADD PUSH2 0x4D1 SWAP1 PUSH2 0xDA5 JUMP JUMPDEST PUSH1 0x1 PUSH1 0x1 PUSH1 0xA0 SHL SUB DUP2 AND PUSH1 0x0 SWAP1 DUP2 MSTORE PUSH1 0xA PUSH1 0x20 MSTORE PUSH1 0x40 SWAP1 KECCAK256 SLOAD DUP3 GT ISZERO PUSH2 0x8B5 JUMPI PUSH1 0x40 MLOAD PUSH3 0x461BCD PUSH1 0xE5 SHL DUP2 MSTORE PUSH1 0x20 PUSH1 0x4 DUP3 ADD MSTORE PUSH1 0x5 PUSH1 0x24 DUP3 ADD MSTORE PUSH5 0x1051551593 PUSH1 0xDA SHL PUSH1 0x44 DUP3 ADD MSTORE PUSH1 0x64 ADD PUSH2 0x4D1 JUMP JUMPDEST PUSH1 0x1 PUSH1 0x1 PUSH1 0xA0 SHL SUB DUP2 AND PUSH1 0x0 SWAP1 DUP2 MSTORE PUSH1 0xA PUSH1 0x20 MSTORE PUSH1 0x40 DUP2 KECCAK256 DUP1 SLOAD DUP5 SWAP3 SWAP1 PUSH2 0x502 SWAP1 DUP5 SWAP1 PUSH2 0xDED JUMP JUMPDEST CALLER PUSH1 0x0 SWAP1 DUP2 MSTORE PUSH1 0x1 PUSH1 0x20 MSTORE PUSH1 0x40 SWAP1 KECCAK256 SLOAD PUSH1 0xFF AND DUP1 PUSH2 0x90A JUMPI POP CALLER PUSH1 0x0 SWAP1 DUP2 MSTORE PUSH1 0x20 DUP2 SWAP1 MSTORE PUSH1 0x40 SWAP1 KECCAK256 SLOAD PUSH1 0xFF AND JUMPDEST PUSH2 0x926 JUMPI PUSH1 0x40 MLOAD PUSH3 0x461BCD PUSH1 0xE5 SHL DUP2 MSTORE PUSH1 0x4 ADD PUSH2 0x4D1 SWAP1 PUSH2 0xDA5 JUMP JUMPDEST PUSH1 0x1 PUSH1 0x1 PUSH1 0xA0 SHL SUB DUP3 AND PUSH1 0x0 SWAP1 DUP2 MSTORE PUSH1 0x7 PUSH1 0x20 SWAP1 DUP2 MSTORE PUSH1 0x40 DUP1 DUP4 KECCAK256 DUP5 DUP5 MSTORE SWAP1 SWAP2 MSTORE DUP2 KECCAK256 DUP1 SLOAD PUSH1 0x1 SWAP3 SWAP1 PUSH2 0x502 SWAP1 DUP5 SWAP1 PUSH2 0xDDA JUMP JUMPDEST CALLER PUSH1 0x0 SWAP1 DUP2 MSTORE PUSH1 0x1 PUSH1 0x20 MSTORE PUSH1 0x40 SWAP1 KECCAK256 SLOAD PUSH1 0xFF AND DUP1 PUSH2 0x987 JUMPI POP CALLER PUSH1 0x0 SWAP1 DUP2 MSTORE PUSH1 0x20 DUP2 SWAP1 MSTORE PUSH1 0x40 SWAP1 KECCAK256 SLOAD PUSH1 0xFF AND JUMPDEST PUSH2 0x9A3 JUMPI PUSH1 0x40 MLOAD PUSH3 0x461BCD PUSH1 0xE5 SHL DUP2 MSTORE PUSH1 0x4 ADD PUSH2 0x4D1 SWAP1 PUSH2 0xDA5 JUMP JUMPDEST PUSH1 0x1 PUSH1 0x1 PUSH1 0xA0 SHL SUB DUP3 AND PUSH1 0x0 SWAP1 DUP2 MSTORE PUSH1 0x9 PUSH1 0x20 SWAP1 DUP2 MSTORE PUSH1 0x40 DUP1 DUP4 KECCAK256 DUP5 DUP5 MSTORE SWAP1 SWAP2 MSTORE DUP2 KECCAK256 DUP1 SLOAD PUSH1 0x1 SWAP3 SWAP1 PUSH2 0x502 SWAP1 DUP5 SWAP1 PUSH2 0xDDA JUMP JUMPDEST CALLER PUSH1 0x0 SWAP1 DUP2 MSTORE PUSH1 0x1 PUSH1 0x20 MSTORE PUSH1 0x40 SWAP1 KECCAK256 SLOAD PUSH1 0xFF AND DUP1 PUSH2 0xA04 JUMPI POP CALLER PUSH1 0x0 SWAP1 DUP2 MSTORE PUSH1 0x20 DUP2 SWAP1 MSTORE PUSH1 0x40 SWAP1 KECCAK256 SLOAD PUSH1 0xFF AND JUMPDEST PUSH2 0xA20 JUMPI PUSH1 0x40 MLOAD PUSH3 0x461BCD PUSH1 0xE5 SHL DUP2 MSTORE PUSH1 0x4 ADD PUSH2 0x4D1 SWAP1 PUSH2 0xDA5 JUMP JUMPDEST PUSH1 0x1 PUSH1 0x1 PUSH1 0xA0 SHL SUB DUP2 AND PUSH1 0x0 SWAP1 DUP2 MSTORE PUSH1 0x8 PUSH1 0x20 MSTORE PUSH1 0x40 DUP2 KECCAK256 DUP1 SLOAD PUSH1 0x1 SWAP3 SWAP1 PUSH2 0x794 SWAP1 DUP5 SWAP1 PUSH2 0xDDA JUMP JUMPDEST PUSH32 0x0 PUSH1 0x1 PUSH1 0x1 PUSH1 0xA0 SHL SUB AND CALLER EQ PUSH2 0xAA7 JUMPI PUSH1 0x40 MLOAD PUSH3 0x461BCD PUSH1 0xE5 SHL DUP2 MSTORE PUSH1 0x20 PUSH1 0x4 DUP3 ADD MSTORE PUSH1 0x3 PUSH1 0x24 DUP3 ADD MSTORE PUSH3 0x4E544F PUSH1 0xE8 SHL PUSH1 0x44 DUP3 ADD MSTORE PUSH1 0x64 ADD PUSH2 0x4D1 JUMP JUMPDEST PUSH1 0x0 JUMPDEST DUP2 MLOAD DUP2 LT ISZERO PUSH2 0xB0E JUMPI PUSH1 0x1 PUSH1 0x0 DUP1 DUP5 DUP5 DUP2 MLOAD DUP2 LT PUSH2 0xACA JUMPI PUSH2 0xACA PUSH2 0xE00 JUMP JUMPDEST PUSH1 0x20 SWAP1 DUP2 MUL SWAP2 SWAP1 SWAP2 ADD DUP2 ADD MLOAD PUSH1 0x1 PUSH1 0x1 PUSH1 0xA0 SHL SUB AND DUP3 MSTORE DUP2 ADD SWAP2 SWAP1 SWAP2 MSTORE PUSH1 0x40 ADD PUSH1 0x0 KECCAK256 DUP1 SLOAD PUSH1 0xFF NOT AND SWAP2 ISZERO ISZERO SWAP2 SWAP1 SWAP2 OR SWAP1 SSTORE DUP1 PUSH2 0xB06 DUP2 PUSH2 0xE16 JUMP JUMPDEST SWAP2 POP POP PUSH2 0xAAA JUMP JUMPDEST POP POP JUMP JUMPDEST DUP1 CALLDATALOAD PUSH1 0x1 PUSH1 0x1 PUSH1 0xA0 SHL SUB DUP2 AND DUP2 EQ PUSH2 0xB29 JUMPI PUSH1 0x0 DUP1 REVERT JUMPDEST SWAP2 SWAP1 POP JUMP JUMPDEST PUSH1 0x0 PUSH1 0x20 DUP3 DUP5 SUB SLT ISZERO PUSH2 0xB40 JUMPI PUSH1 0x0 DUP1 REVERT JUMPDEST PUSH2 0xB49 DUP3 PUSH2 0xB12 JUMP JUMPDEST SWAP4 SWAP3 POP POP POP JUMP JUMPDEST PUSH1 0x0 DUP1 PUSH1 0x40 DUP4 DUP6 SUB SLT ISZERO PUSH2 0xB63 JUMPI PUSH1 0x0 DUP1 REVERT JUMPDEST DUP3 CALLDATALOAD SWAP2 POP PUSH2 0xB73 PUSH1 0x20 DUP5 ADD PUSH2 0xB12 JUMP JUMPDEST SWAP1 POP SWAP3 POP SWAP3 SWAP1 POP JUMP JUMPDEST PUSH1 0x0 DUP1 PUSH1 0x40 DUP4 DUP6 SUB SLT ISZERO PUSH2 0xB8F JUMPI PUSH1 0x0 DUP1 REVERT JUMPDEST PUSH2 0xB98 DUP4 PUSH2 0xB12 JUMP JUMPDEST SWAP5 PUSH1 0x20 SWAP4 SWAP1 SWAP4 ADD CALLDATALOAD SWAP4 POP POP POP JUMP JUMPDEST PUSH1 0x0 DUP1 PUSH1 0x0 DUP1 PUSH1 0x80 DUP6 DUP8 SUB SLT ISZERO PUSH2 0xBBC JUMPI PUSH1 0x0 DUP1 REVERT JUMPDEST DUP5 CALLDATALOAD SWAP4 POP PUSH2 0xBCC PUSH1 0x20 DUP7 ADD PUSH2 0xB12 JUMP JUMPDEST SWAP3 POP PUSH2 0xBDA PUSH1 0x40 DUP7 ADD PUSH2 0xB12 JUMP JUMPDEST SWAP4 SWAP7 SWAP3 SWAP6 POP SWAP3 SWAP4 PUSH1 0x60 ADD CALLDATALOAD SWAP3 POP POP JUMP JUMPDEST PUSH1 0x0 DUP1 PUSH1 0x40 DUP4 DUP6 SUB SLT ISZERO PUSH2 0xBFD JUMPI PUSH1 0x0 DUP1 REVERT JUMPDEST PUSH2 0xC06 DUP4 PUSH2 0xB12 JUMP JUMPDEST SWAP2 POP PUSH2 0xB73 PUSH1 0x20 DUP5 ADD PUSH2 0xB12 JUMP JUMPDEST PUSH1 0x0 PUSH1 0x20 DUP3 DUP5 SUB SLT ISZERO PUSH2 0xC26 JUMPI PUSH1 0x0 DUP1 REVERT JUMPDEST POP CALLDATALOAD SWAP2 SWAP1 POP JUMP JUMPDEST PUSH1 0x0 DUP1 PUSH1 0x0 PUSH1 0x60 DUP5 DUP7 SUB SLT ISZERO PUSH2 0xC42 JUMPI PUSH1 0x0 DUP1 REVERT JUMPDEST DUP4 CALLDATALOAD SWAP3 POP PUSH2 0xC52 PUSH1 0x20 DUP6 ADD PUSH2 0xB12 JUMP JUMPDEST SWAP2 POP PUSH1 0x40 DUP5 ADD CALLDATALOAD SWAP1 POP SWAP3 POP SWAP3 POP SWAP3 JUMP JUMPDEST PUSH1 0x0 DUP1 PUSH1 0x0 PUSH1 0x60 DUP5 DUP7 SUB SLT ISZERO PUSH2 0xC77 JUMPI PUSH1 0x0 DUP1 REVERT JUMPDEST DUP4 CALLDATALOAD SWAP3 POP PUSH2 0xC87 PUSH1 0x20 DUP6 ADD PUSH2 0xB12 JUMP JUMPDEST SWAP2 POP PUSH2 0xC95 PUSH1 0x40 DUP6 ADD PUSH2 0xB12 JUMP JUMPDEST SWAP1 POP SWAP3 POP SWAP3 POP SWAP3 JUMP JUMPDEST PUSH1 0x0 DUP1 PUSH1 0x0 PUSH1 0x60 DUP5 DUP7 SUB SLT ISZERO PUSH2 0xCB3 JUMPI PUSH1 0x0 DUP1 REVERT JUMPDEST PUSH2 0xCBC DUP5 PUSH2 0xB12 JUMP JUMPDEST SWAP3 POP PUSH2 0xC52 PUSH1 0x20 DUP6 ADD PUSH2 0xB12 JUMP JUMPDEST PUSH4 0x4E487B71 PUSH1 0xE0 SHL PUSH1 0x0 MSTORE PUSH1 0x41 PUSH1 0x4 MSTORE PUSH1 0x24 PUSH1 0x0 REVERT JUMPDEST PUSH1 0x0 PUSH1 0x20 DUP1 DUP4 DUP6 SUB SLT ISZERO PUSH2 0xCF3 JUMPI PUSH1 0x0 DUP1 REVERT JUMPDEST DUP3 CALLDATALOAD PUSH8 0xFFFFFFFFFFFFFFFF DUP1 DUP3 GT ISZERO PUSH2 0xD0B JUMPI PUSH1 0x0 DUP1 REVERT JUMPDEST DUP2 DUP6 ADD SWAP2 POP DUP6 PUSH1 0x1F DUP4 ADD SLT PUSH2 0xD1F JUMPI PUSH1 0x0 DUP1 REVERT JUMPDEST DUP2 CALLDATALOAD DUP2 DUP2 GT ISZERO PUSH2 0xD31 JUMPI PUSH2 0xD31 PUSH2 0xCCA JUMP JUMPDEST DUP1 PUSH1 0x5 SHL PUSH1 0x40 MLOAD PUSH1 0x1F NOT PUSH1 0x3F DUP4 ADD AND DUP2 ADD DUP2 DUP2 LT DUP6 DUP3 GT OR ISZERO PUSH2 0xD56 JUMPI PUSH2 0xD56 PUSH2 0xCCA JUMP JUMPDEST PUSH1 0x40 MSTORE SWAP2 DUP3 MSTORE DUP5 DUP3 ADD SWAP3 POP DUP4 DUP2 ADD DUP6 ADD SWAP2 DUP9 DUP4 GT ISZERO PUSH2 0xD74 JUMPI PUSH1 0x0 DUP1 REVERT JUMPDEST SWAP4 DUP6 ADD SWAP4 JUMPDEST DUP3 DUP6 LT ISZERO PUSH2 0xD99 JUMPI PUSH2 0xD8A DUP6 PUSH2 0xB12 JUMP JUMPDEST DUP5 MSTORE SWAP4 DUP6 ADD SWAP4 SWAP3 DUP6 ADD SWAP3 PUSH2 0xD79 JUMP JUMPDEST SWAP9 SWAP8 POP POP POP POP POP POP POP POP JUMP JUMPDEST PUSH1 0x20 DUP1 DUP3 MSTORE PUSH1 0x5 SWAP1 DUP3 ADD MSTORE PUSH5 0x2720A827A3 PUSH1 0xD9 SHL PUSH1 0x40 DUP3 ADD MSTORE PUSH1 0x60 ADD SWAP1 JUMP JUMPDEST PUSH4 0x4E487B71 PUSH1 0xE0 SHL PUSH1 0x0 MSTORE PUSH1 0x11 PUSH1 0x4 MSTORE PUSH1 0x24 PUSH1 0x0 REVERT JUMPDEST DUP1 DUP3 ADD DUP1 DUP3 GT ISZERO PUSH2 0x530 JUMPI PUSH2 0x530 PUSH2 0xDC4 JUMP JUMPDEST DUP2 DUP2 SUB DUP2 DUP2 GT ISZERO PUSH2 0x530 JUMPI PUSH2 0x530 PUSH2 0xDC4 JUMP JUMPDEST PUSH4 0x4E487B71 PUSH1 0xE0 SHL PUSH1 0x0 MSTORE PUSH1 0x32 PUSH1 0x4 MSTORE PUSH1 0x24 PUSH1 0x0 REVERT JUMPDEST PUSH1 0x0 PUSH1 0x1 DUP3 ADD PUSH2 0xE28 JUMPI PUSH2 0xE28 PUSH2 0xDC4 JUMP JUMPDEST POP PUSH1 0x1 ADD SWAP1 JUMP INVALID LOG2 PUSH5 0x6970667358 0x22 SLT KECCAK256 0xB2 0xEC ADDRESS 0x25 0x5E SWAP10 0xA9 EXTCODESIZE PUSH6 0x5DE1CBC9F9EC DUP11 SAR 0xCA 0xEA 0xC9 0xA6 RETURNDATACOPY 0xAA 0x2B 0xB1 0xB6 0xD1 DUP13 0xED SWAP14 SGT PUSH9 0x64736F6C6343000811 STOP CALLER "
		},
		"gasEstimates": {
			"creation": {
				"codeDepositCost": "737000",
				"executionCost": "infinite",
				"totalCost": "infinite"
			},
			"external": {
				"decrementTVLByToken(uint256,address)": "31347",
				"fundsRaisedByCompanyAndToken(address,address)": "infinite",
				"fundsRaisedByCompanyAndTokenAndCategory(address,address,uint256)": "infinite",
				"fundsRaisedByToken(address)": "2583",
				"fundsRaisedByTokenAndCategory(address,uint256)": "2770",
				"incrementFundsRaisedByCompanyAndToken(uint256,address,address)": "infinite",
				"incrementFundsRaisedByCompanyAndTokenAndCategory(uint256,address,address,uint256)": "infinite",
				"incrementFundsRaisedByToken(uint256,address)": "29180",
				"incrementFundsRaisedByTokenAndCategory(uint256,address,uint256)": "29251",
				"incrementNumberOfIssuedBondsByCategory(uint256)": "29049",
				"incrementNumberOfIssuedBondsByCompanyAndCategory(address,uint256)": "29223",
				"incrementNumberOfTimesDefaultedByCompany(address)": "29194",
				"incrementNumberOfTimesDefaultedByCompanyAndCategory(address,uint256)": "29245",
				"incrementTVLByToken(uint256,address)": "29201",
				"isFactory(address)": "2562",
				"isPeriphery(address)": "2674",
				"numberOfIssuedBondsByCategory(uint256)": "2505",
				"numberOfIssuedBondsByCompanyAndCategory(address,uint256)": "2747",
				"numberOfTimesDefaultedByCompany(address)": "2560",
				"numberOfTimesDefaultedByCompanyAndCategory(address,uint256)": "2743",
				"owner()": "infinite",
				"registerFactory(address)": "26928",
				"registerPeriphery(address[])": "infinite",
				"tvlByToken(address)": "2670"
			}
		},
		"methodIdentifiers": {
			"decrementTVLByToken(uint256,address)": "bcae6824",
			"fundsRaisedByCompanyAndToken(address,address)": "7edd4d4d",
			"fundsRaisedByCompanyAndTokenAndCategory(address,address,uint256)": "daa30298",
			"fundsRaisedByToken(address)": "36721cd4",
			"fundsRaisedByTokenAndCategory(address,uint256)": "7c1edb9d",
			"incrementFundsRaisedByCompanyAndToken(uint256,address,address)": "b8c2e4f3",
			"incrementFundsRaisedByCompanyAndTokenAndCategory(uint256,address,address,uint256)": "7db79a3d",
			"incrementFundsRaisedByToken(uint256,address)": "576ff163",
			"incrementFundsRaisedByTokenAndCategory(uint256,address,uint256)": "b0b4dfaa",
			"incrementNumberOfIssuedBondsByCategory(uint256)": "b54cb165",
			"incrementNumberOfIssuedBondsByCompanyAndCategory(address,uint256)": "bea75cf4",
			"incrementNumberOfTimesDefaultedByCompany(address)": "dae382d6",
			"incrementNumberOfTimesDefaultedByCompanyAndCategory(address,uint256)": "d050a7c8",
			"incrementTVLByToken(uint256,address)": "83883fe3",
			"isFactory(address)": "0f04ba67",
			"isPeriphery(address)": "8fcfa775",
			"numberOfIssuedBondsByCategory(uint256)": "8052ce11",
			"numberOfIssuedBondsByCompanyAndCategory(address,uint256)": "ba6b8973",
			"numberOfTimesDefaultedByCompany(address)": "94fb7881",
			"numberOfTimesDefaultedByCompanyAndCategory(address,uint256)": "59ed43e2",
			"owner()": "8da5cb5b",
			"registerFactory(address)": "783ff1f1",
			"registerPeriphery(address[])": "e4cdc1ad",
			"tvlByToken(address)": "babeac63"
		}
	},
	"abi": [
		{
			"inputs": [],
			"stateMutability": "nonpayable",
			"type": "constructor"
		},
		{
			"inputs": [
				{
					"internalType": "uint256",
					"name": "amount",
					"type": "uint256"
				},
				{
					"internalType": "address",
					"name": "token",
					"type": "address"
				}
			],
			"name": "decrementTVLByToken",
			"outputs": [],
			"stateMutability": "nonpayable",
			"type": "function"
		},
		{
			"inputs": [
				{
					"internalType": "address",
					"name": "company",
					"type": "address"
				},
				{
					"internalType": "address",
					"name": "token",
					"type": "address"
				}
			],
			"name": "fundsRaisedByCompanyAndToken",
			"outputs": [
				{
					"internalType": "uint256",
					"name": "",
					"type": "uint256"
				}
			],
			"stateMutability": "view",
			"type": "function"
		},
		{
			"inputs": [
				{
					"internalType": "address",
					"name": "company",
					"type": "address"
				},
				{
					"internalType": "address",
					"name": "token",
					"type": "address"
				},
				{
					"internalType": "uint256",
					"name": "category",
					"type": "uint256"
				}
			],
			"name": "fundsRaisedByCompanyAndTokenAndCategory",
			"outputs": [
				{
					"internalType": "uint256",
					"name": "",
					"type": "uint256"
				}
			],
			"stateMutability": "view",
			"type": "function"
		},
		{
			"inputs": [
				{
					"internalType": "address",
					"name": "token",
					"type": "address"
				}
			],
			"name": "fundsRaisedByToken",
			"outputs": [
				{
					"internalType": "uint256",
					"name": "",
					"type": "uint256"
				}
			],
			"stateMutability": "view",
			"type": "function"
		},
		{
			"inputs": [
				{
					"internalType": "address",
					"name": "token",
					"type": "address"
				},
				{
					"internalType": "uint256",
					"name": "category",
					"type": "uint256"
				}
			],
			"name": "fundsRaisedByTokenAndCategory",
			"outputs": [
				{
					"internalType": "uint256",
					"name": "",
					"type": "uint256"
				}
			],
			"stateMutability": "view",
			"type": "function"
		},
		{
			"inputs": [
				{
					"internalType": "uint256",
					"name": "amount",
					"type": "uint256"
				},
				{
					"internalType": "address",
					"name": "company",
					"type": "address"
				},
				{
					"internalType": "address",
					"name": "token",
					"type": "address"
				}
			],
			"name": "incrementFundsRaisedByCompanyAndToken",
			"outputs": [],
			"stateMutability": "nonpayable",
			"type": "function"
		},
		{
			"inputs": [
				{
					"internalType": "uint256",
					"name": "amount",
					"type": "uint256"
				},
				{
					"internalType": "address",
					"name": "company",
					"type": "address"
				},
				{
					"internalType": "address",
					"name": "token",
					"type": "address"
				},
				{
					"internalType": "uint256",
					"name": "category",
					"type": "uint256"
				}
			],
			"name": "incrementFundsRaisedByCompanyAndTokenAndCategory",
			"outputs": [],
			"stateMutability": "nonpayable",
			"type": "function"
		},
		{
			"inputs": [
				{
					"internalType": "uint256",
					"name": "amount",
					"type": "uint256"
				},
				{
					"internalType": "address",
					"name": "token",
					"type": "address"
				}
			],
			"name": "incrementFundsRaisedByToken",
			"outputs": [],
			"stateMutability": "nonpayable",
			"type": "function"
		},
		{
			"inputs": [
				{
					"internalType": "uint256",
					"name": "amount",
					"type": "uint256"
				},
				{
					"internalType": "address",
					"name": "token",
					"type": "address"
				},
				{
					"internalType": "uint256",
					"name": "category",
					"type": "uint256"
				}
			],
			"name": "incrementFundsRaisedByTokenAndCategory",
			"outputs": [],
			"stateMutability": "nonpayable",
			"type": "function"
		},
		{
			"inputs": [
				{
					"internalType": "uint256",
					"name": "category",
					"type": "uint256"
				}
			],
			"name": "incrementNumberOfIssuedBondsByCategory",
			"outputs": [],
			"stateMutability": "nonpayable",
			"type": "function"
		},
		{
			"inputs": [
				{
					"internalType": "address",
					"name": "company",
					"type": "address"
				},
				{
					"internalType": "uint256",
					"name": "category",
					"type": "uint256"
				}
			],
			"name": "incrementNumberOfIssuedBondsByCompanyAndCategory",
			"outputs": [],
			"stateMutability": "nonpayable",
			"type": "function"
		},
		{
			"inputs": [
				{
					"internalType": "address",
					"name": "company",
					"type": "address"
				}
			],
			"name": "incrementNumberOfTimesDefaultedByCompany",
			"outputs": [],
			"stateMutability": "nonpayable",
			"type": "function"
		},
		{
			"inputs": [
				{
					"internalType": "address",
					"name": "company",
					"type": "address"
				},
				{
					"internalType": "uint256",
					"name": "category",
					"type": "uint256"
				}
			],
			"name": "incrementNumberOfTimesDefaultedByCompanyAndCategory",
			"outputs": [],
			"stateMutability": "nonpayable",
			"type": "function"
		},
		{
			"inputs": [
				{
					"internalType": "uint256",
					"name": "amount",
					"type": "uint256"
				},
				{
					"internalType": "address",
					"name": "token",
					"type": "address"
				}
			],
			"name": "incrementTVLByToken",
			"outputs": [],
			"stateMutability": "nonpayable",
			"type": "function"
		},
		{
			"inputs": [
				{
					"internalType": "address",
					"name": "account",
					"type": "address"
				}
			],
			"name": "isFactory",
			"outputs": [
				{
					"internalType": "bool",
					"name": "",
					"type": "bool"
				}
			],
			"stateMutability": "view",
			"type": "function"
		},
		{
			"inputs": [
				{
					"internalType": "address",
					"name": "account",
					"type": "address"
				}
			],
			"name": "isPeriphery",
			"outputs": [
				{
					"internalType": "bool",
					"name": "",
					"type": "bool"
				}
			],
			"stateMutability": "view",
			"type": "function"
		},
		{
			"inputs": [
				{
					"internalType": "uint256",
					"name": "category",
					"type": "uint256"
				}
			],
			"name": "numberOfIssuedBondsByCategory",
			"outputs": [
				{
					"internalType": "uint256",
					"name": "",
					"type": "uint256"
				}
			],
			"stateMutability": "view",
			"type": "function"
		},
		{
			"inputs": [
				{
					"internalType": "address",
					"name": "company",
					"type": "address"
				},
				{
					"internalType": "uint256",
					"name": "category",
					"type": "uint256"
				}
			],
			"name": "numberOfIssuedBondsByCompanyAndCategory",
			"outputs": [
				{
					"internalType": "uint256",
					"name": "",
					"type": "uint256"
				}
			],
			"stateMutability": "view",
			"type": "function"
		},
		{
			"inputs": [
				{
					"internalType": "address",
					"name": "company",
					"type": "address"
				}
			],
			"name": "numberOfTimesDefaultedByCompany",
			"outputs": [
				{
					"internalType": "uint256",
					"name": "",
					"type": "uint256"
				}
			],
			"stateMutability": "view",
			"type": "function"
		},
		{
			"inputs": [
				{
					"internalType": "address",
					"name": "company",
					"type": "address"
				},
				{
					"internalType": "uint256",
					"name": "category",
					"type": "uint256"
				}
			],
			"name": "numberOfTimesDefaultedByCompanyAndCategory",
			"outputs": [
				{
					"internalType": "uint256",
					"name": "",
					"type": "uint256"
				}
			],
			"stateMutability": "view",
			"type": "function"
		},
		{
			"inputs": [],
			"name": "owner",
			"outputs": [
				{
					"internalType": "address",
					"name": "",
					"type": "address"
				}
			],
			"stateMutability": "view",
			"type": "function"
		},
		{
			"inputs": [
				{
					"internalType": "address",
					"name": "factory",
					"type": "address"
				}
			],
			"name": "registerFactory",
			"outputs": [],
			"stateMutability": "nonpayable",
			"type": "function"
		},
		{
			"inputs": [
				{
					"internalType": "address[]",
					"name": "peripheries",
					"type": "address[]"
				}
			],
			"name": "registerPeriphery",
			"outputs": [],
			"stateMutability": "nonpayable",
			"type": "function"
		},
		{
			"inputs": [
				{
					"internalType": "address",
					"name": "token",
					"type": "address"
				}
			],
			"name": "tvlByToken",
			"outputs": [
				{
					"internalType": "uint256",
					"name": "",
					"type": "uint256"
				}
			],
			"stateMutability": "view",
			"type": "function"
		}
	]
}