{
	"data": {
		"bytecode": {
			"linkReferences": {},
			"object": "60e060405234801561001057600080fd5b50604051614e20380380614e2083398101604081905261002f91610159565b336080526001600160a01b0391821660a0521660c05260026020527f1eb44a1381b2858e3cf64da7e3e83209aa80f8d96ac8937f8b717b4285a410e88054600160ff1991821681179092557f235fa5e7c7148162da162edcaf0328210fc466b10ee308b8e1373c142617d78c80548216831790557fa4e4028036a6258222c986d8dc177d59e3d7870180e9f3b76f2253cbc5db69e980548216831790557f03e749d1cafb8f448cc3ce7034f3fac1b64dfeccee07fec4200e79ac77c042188054821683179055739c556b18d2370d4c44f3b3153d340d9abfd8d9956000527fda5be07038d25e40699fc142f83e4592374121c28cd83805540602d93d836db88054909116909117905561018c565b80516001600160a01b038116811461015457600080fd5b919050565b6000806040838503121561016c57600080fd5b6101758361013d565b91506101836020840161013d565b90509250929050565b60805160a05160c051614c426101de600039600081816101b001528181610769015261083c01526000818161024e015281816103630152818161054201526106580152600061012f0152614c426000f3fe60806040523480156200001157600080fd5b5060043610620000935760003560e01c80638da5cb5b11620000625780638da5cb5b146200012d578063c3c5a5471462000168578063ca5ad27c1462000197578063efc7935614620001ae57600080fd5b80631615fd0314620000985780631aa3a00814620000ba578063417590da14620000c6578063487c5cdf14620000dd575b600080fd5b620000a2620001d5565b604051620000b19190620008ef565b60405180910390f35b620000c462000239565b005b620000a2620000d73660046200095b565b6200046f565b6200011c620000ee36600462000980565b6001600160a01b03918216600090815260046020908152604080832093909416825291909152205460ff1690565b6040519015158152602001620000b1565b7f00000000000000000000000000000000000000000000000000000000000000005b6040516001600160a01b039091168152602001620000b1565b6200011c620001793660046200095b565b6001600160a01b031660009081526001602052604090205460ff1690565b6200014f620001a8366004620009ce565b620004e7565b7f00000000000000000000000000000000000000000000000000000000000000006200014f565b606060008054806020026020016040519081016040528092919081815260200182805480156200022f57602002820191906000526020600020905b81546001600160a01b0316815260019091019060200180831162000210575b5050505050905090565b6040516339f920ab60e01b81523360048201527f00000000000000000000000000000000000000000000000000000000000000006001600160a01b0316906339f920ab90602401602060405180830381865afa1580156200029e573d6000803e3d6000fd5b505050506040513d601f19601f82011682018060405250810190620002c4919062000a93565b620003045760405162461bcd60e51b8152600401620002fb90602080825260049082015263139054d560e21b604082015260600190565b60405180910390fd5b3360009081526001602052604090205460ff16156200034b5760405162461bcd60e51b815260206004820152600260248201526120a960f11b6044820152606401620002fb565b60405163b7caec8760e01b81523360048201526001907f00000000000000000000000000000000000000000000000000000000000000006001600160a01b03169063b7caec8790602401602060405180830381865afa158015620003b3573d6000803e3d6000fd5b505050506040513d601f19601f82011682018060405250810190620003d9919062000ab7565b60ff161015620004155760405162461bcd60e51b8152600401620002fb906020808252600490820152631395905560e21b604082015260600190565b3360008181526001602081905260408220805460ff191682179055815490810182559080527f290decd9548b62a8d60345a988386fc84ba6bc95484008f6362f93160ef3e5630180546001600160a01b0319169091179055565b6001600160a01b038116600090815260036020908152604091829020805483518184028101840190945280845260609392830182828015620004db57602002820191906000526020600020905b81546001600160a01b03168152600190910190602001808311620004bc575b50505050509050919050565b3360009081526001602052604081205460ff166200052d5760405162461bcd60e51b8152602060048201526002602482015261272960f11b6044820152606401620002fb565b6040516339f920ab60e01b81523360048201527f00000000000000000000000000000000000000000000000000000000000000006001600160a01b0316906339f920ab90602401602060405180830381865afa15801562000592573d6000803e3d6000fd5b505050506040513d601f19601f82011682018060405250810190620005b8919062000a93565b620005ef5760405162461bcd60e51b8152600401620002fb90602080825260049082015263139054d560e21b604082015260600190565b6001600160a01b038216600090815260026020526040902054829060ff16620006405760405162461bcd60e51b8152602060048201526002602482015261494360f01b6044820152606401620002fb565b60405163b7caec8760e01b81523360048201526001907f00000000000000000000000000000000000000000000000000000000000000006001600160a01b03169063b7caec8790602401602060405180830381865afa158015620006a8573d6000803e3d6000fd5b505050506040513d601f19601f82011682018060405250810190620006ce919062000ab7565b60ff1610156200070a5760405162461bcd60e51b8152600401620002fb906020808252600490820152631395905560e21b604082015260600190565b3360009081526004602090815260408083206001600160a01b038716845290915290205460ff1615620007655760405162461bcd60e51b8152602060048201526002602482015261414960f01b6044820152606401620002fb565b83837f0000000000000000000000000000000000000000000000000000000000000000336040516200079790620008e1565b620007a6949392919062000adc565b604051809103906000f080158015620007c3573d6000803e3d6000fd5b503360008181526003602090815260408083208054600180820183559185528385200180546001600160a01b0319166001600160a01b0388811691821790925595855260048085528386208b8316875290945293829020805460ff191690911790555163783ff1f160e01b8152908101929092529193507f00000000000000000000000000000000000000000000000000000000000000009091169063783ff1f190602401600060405180830381600087803b1580156200088357600080fd5b505af115801562000898573d6000803e3d6000fd5b50506040516001600160a01b03861681523392507f80e5d607e143b547134294afbce2c48623473eb90d7a68d64fa88273b9452936915060200160405180910390a25092915050565b6140c08062000b4d83390190565b6020808252825182820181905260009190848201906040850190845b81811015620009325783516001600160a01b0316835292840192918401916001016200090b565b50909695505050505050565b80356001600160a01b03811681146200095657600080fd5b919050565b6000602082840312156200096e57600080fd5b62000979826200093e565b9392505050565b600080604083850312156200099457600080fd5b6200099f836200093e565b9150620009af602084016200093e565b90509250929050565b634e487b7160e01b600052604160045260246000fd5b60008060408385031215620009e257600080fd5b823567ffffffffffffffff80821115620009fb57600080fd5b818501915085601f83011262000a1057600080fd5b81358181111562000a255762000a25620009b8565b604051601f8201601f19908116603f0116810190838211818310171562000a505762000a50620009b8565b8160405282815288602084870101111562000a6a57600080fd5b826020860160208301376000602084830101528096505050505050620009af602084016200093e565b60006020828403121562000aa657600080fd5b815180151581146200097957600080fd5b60006020828403121562000aca57600080fd5b815160ff811681146200097957600080fd5b608081526000855180608084015260005b8181101562000b0c57602081890181015160a086840101520162000aed565b50600060a08285018101919091526001600160a01b0396871660208501529486166040840152929094166060820152601f909101601f191601019291505056fe60e06040523480156200001157600080fd5b50604051620040c0380380620040c08339810160408190526200003491620000d2565b8383838383620000448162000084565b506001600160a01b0381811660805283811660a052821660c05262000076600362000096602090811b6200286d17901c565b50505050505050506200033a565b60026200009282826200026e565b5050565b80546001019055565b634e487b7160e01b600052604160045260246000fd5b80516001600160a01b0381168114620000cd57600080fd5b919050565b60008060008060808587031215620000e957600080fd5b84516001600160401b03808211156200010157600080fd5b818701915087601f8301126200011657600080fd5b8151818111156200012b576200012b6200009f565b604051601f8201601f19908116603f011681019083821181831017156200015657620001566200009f565b81604052828152602093508a848487010111156200017357600080fd5b600091505b8282101562000197578482018401518183018501529083019062000178565b6000848483010152809850505050620001b2818801620000b5565b94505050620001c460408601620000b5565b9150620001d460608601620000b5565b905092959194509250565b600181811c90821680620001f457607f821691505b6020821081036200021557634e487b7160e01b600052602260045260246000fd5b50919050565b601f8211156200026957600081815260208120601f850160051c81016020861015620002445750805b601f850160051c820191505b81811015620002655782815560010162000250565b5050505b505050565b81516001600160401b038111156200028a576200028a6200009f565b620002a2816200029b8454620001df565b846200021b565b602080601f831160018114620002da5760008415620002c15750858301515b600019600386901b1c1916600185901b17855562000265565b600085815260208120601f198616915b828110156200030b57888601518255948401946001909101908401620002ea565b50858210156200032a5787850151600019600388901b60f8161c191681555b5050505050600190811b01905550565b60805160a05160c051613c6f6200045160003960008181611006015281816110a6015281816113b30152818161147b0152818161154c015281816115f501528181611d2101528181611dc1015281816126fa01526127a201526000818161069701528181610d0d0152818161138b015281816114530152818161151d015281816115c6015281816116910152818161192d01528181611e390152818161201d015281816121e50152818161223401526123c501526000818161054601528181610baf01528181610ebd01528181610fde015281816110770152818161142b015281816114f501528181611cf901528181611d92015281816120f4015281816122b20152818161248c01526127730152613c6f6000f3fe608060405234801561001057600080fd5b50600436106102895760003560e01c806389c2bb1f1161015c578063c0a6026c116100ce578063e755ddd711610087578063e755ddd7146106e9578063e985e9c5146106fc578063f0d8100a146102d7578063f23a6e6114610738578063f242432a14610757578063fcbc669a1461076a57600080fd5b8063c0a6026c14610662578063c365301014610675578063c55dae6314610695578063d3b7811b146106bb578063e2bbb158146106ce578063e5328e06146106e157600080fd5b80639a3cee8e116101205780639a3cee8e146105b6578063a22cb465146105be578063a53e17b0146105d1578063a8743022146105f4578063abac75e114610607578063bc197c811461062a57600080fd5b806389c2bb1f146104fb5780638c3526c21461051b5780638da5cb5b146105445780638f0dbf771461057e578063932a8de0146105a357600080fd5b806339e3af9b1161020057806370876c98116101b957806370876c981461046557806377e2a08b146104785780637a41984b1461048b5780637cbc2373146104ae57806382afd23b146104c157806388bdc083146104e857600080fd5b806339e3af9b146103cc578063441a3e70146103df5780634e1273f4146103f2578063549493bb146104125780636567dc4d1461043f5780636ff80d931461045257600080fd5b80630e89341c116102525780630e89341c1461033b57806314f294931461035b5780632b0969261461036e5780632eb2c2d6146103835780632f3ad61f146103965780633097afb8146103b957600080fd5b8062fdd58e1461028e57806301ffc9a7146102b457806302159497146102d757806308913ce8146102f7578063091490201461030a575b600080fd5b6102a161029c366004613166565b61077d565b6040519081526020015b60405180910390f35b6102c76102c23660046131a9565b610816565b60405190151581526020016102ab565b6102a16102e53660046131c6565b60009081526007602052604090205490565b6102a16103053660046131c6565b610866565b6102c76103183660046131c6565b600090815260046020908152604080832060080154600590925290912054101590565b61034e6103493660046131c6565b610882565b6040516102ab9190613225565b6102a16103693660046131c6565b610916565b61038161037c3660046131c6565b61093d565b005b610381610391366004613384565b610adf565b6102c76103a43660046131c6565b6000908152600a602052604090205460ff1690565b6102c76103c73660046131c6565b610b2b565b6102c76103da3660046131c6565b610b66565b6103816103ed36600461342e565b610ba4565b610405610400366004613450565b610d88565b6040516102ab9190613556565b6102c76104203660046131c6565b6000908152600560209081526040808320546006909252909120541490565b61038161044d3660046131c6565b610eb2565b6102c76104603660046131c6565b61114a565b61038161047336600461342e565b611184565b6102a16104863660046131c6565b611706565b6102c76104993660046131c6565b6000908152600b602052604090205460ff1690565b6103816104bc36600461342e565b61177d565b6102c76104cf3660046131c6565b6000908152600460208190526040909120015442111590565b6102a16104f63660046131c6565b6119ed565b6102a16105093660046131c6565b6000908152600e602052604090205490565b61052e6105293660046131c6565b611a0a565b6040516102ab9a99989796959493929190613569565b7f00000000000000000000000000000000000000000000000000000000000000005b6040516001600160a01b0390911681526020016102ab565b6102c761058c3660046131c6565b600090815260046020526040902060030154421190565b6102a16105b13660046131c6565b611b7e565b6102a1611ba5565b6103816105cc3660046135d1565b611bc1565b6102c76105df3660046131c6565b6000908152600f602052604090205460ff1690565b6103816106023660046131c6565b611bd0565b6102a16106153660046131c6565b60009081526004602052604090206009015490565b610649610638366004613384565b63bc197c8160e01b95945050505050565b6040516001600160e01b031990911681526020016102ab565b6103816106703660046131c6565b611ef8565b6102a16106833660046131c6565b6000908152600d602052604090205490565b7f0000000000000000000000000000000000000000000000000000000000000000610566565b6102a16106c93660046131c6565b6120cc565b6103816106dc36600461342e565b6120e9565b6102a161221c565b6103816106f73660046131c6565b6122a7565b6102c761070a366004613608565b6001600160a01b03918216600090815260016020908152604080832093909416825291909152205460ff1690565b61064961074636600461363b565b63f23a6e6160e01b95945050505050565b61038161076536600461363b565b61243a565b6102a16107783660046136a0565b61247f565b60006001600160a01b0383166107ed5760405162461bcd60e51b815260206004820152602a60248201527f455243313135353a2061646472657373207a65726f206973206e6f742061207660448201526930b634b21037bbb732b960b11b60648201526084015b60405180910390fd5b506000818152602081815260408083206001600160a01b03861684529091529020545b92915050565b60006001600160e01b03198216636cdb3d1360e11b148061084757506001600160e01b031982166303a24d0760e21b145b8061081057506301ffc9a760e01b6001600160e01b0319831614610810565b600081815260046020526040812060020154610810904261375f565b60606002805461089190613772565b80601f01602080910402602001604051908101604052809291908181526020018280546108bd90613772565b801561090a5780601f106108df5761010080835404028352916020019161090a565b820191906000526020600020905b8154815290600101906020018083116108ed57829003601f168201915b50505050509050919050565b600081815260056020908152604080832054600490925282206001015461081091906137ac565b6000818152600b602052604090205460ff16158015610962575061096081610b66565b155b801561097d57506000818152600a602052604090205460ff16155b6109af5760405162461bcd60e51b815260206004820152600360248201526243424360e81b60448201526064016107e4565b6000818152600d60205260409020546109cb90620151806137ac565b6109d482610866565b11610a095760405162461bcd60e51b81526020600482015260056024820152644d4f504e5760d81b60448201526064016107e4565b600081815260046020526040902060060154610a2890620151806137ac565b610a3182610866565b600083815260046020526040902060090154610a4d91906137ac565b610a5791906137c3565b6000828152600e60208181526040808420948555600f82528084208054600160ff199182168117909255600b845282862080549091169091179055600482529283902060090154918152925482519182529281019290925282917fb580a16317cf9efa50cf987c976c3fb7de7eaf3149b9dd5b8a576a043042f44c910160405180910390a250565b6001600160a01b038516331480610afb5750610afb853361070a565b610b175760405162461bcd60e51b81526004016107e4906137e5565b610b248585858585612876565b5050505050565b600081815260046020526040812060030154421180156108105750610b4f82611706565b600083815260076020526040902054101592915050565b600081815260046020819052604082200154421180156108105750506000908152600460209081526040808320600801546005909252909120541090565b336001600160a01b037f00000000000000000000000000000000000000000000000000000000000000001614610bec5760405162461bcd60e51b81526004016107e490613833565b6000828152600460208190526040909120015442118015610c135750610c1182610b66565b155b8015610c2e57506000828152600b602052604090205460ff16155b8015610c5857506000828152600a602052604090205460ff1680610c565750610c568261114a565b155b610c8a5760405162461bcd60e51b8152602060048201526003602482015262574e4160e81b60448201526064016107e4565b600082815260076020526040902054811115610cce5760405162461bcd60e51b815260206004820152600360248201526257414560e81b60448201526064016107e4565b60008281526007602052604081208054839290610cec90849061375f565b909155505060405163a9059cbb60e01b8152336004820152602481018290527f00000000000000000000000000000000000000000000000000000000000000006001600160a01b03169063a9059cbb906044015b6020604051808303816000875af1158015610d5f573d6000803e3d6000fd5b505050506040513d601f19601f82011682018060405250810190610d839190613850565b505050565b60608151835114610ded5760405162461bcd60e51b815260206004820152602960248201527f455243313135353a206163636f756e747320616e6420696473206c656e677468604482015268040dad2e6dac2e8c6d60bb1b60648201526084016107e4565b6000835167ffffffffffffffff811115610e0957610e09613238565b604051908082528060200260200182016040528015610e32578160200160208202803683370190505b50905060005b8451811015610eaa57610e7d858281518110610e5657610e5661386d565b6020026020010151858381518110610e7057610e7061386d565b602002602001015161077d565b828281518110610e8f57610e8f61386d565b6020908102919091010152610ea381613883565b9050610e38565b509392505050565b336001600160a01b037f00000000000000000000000000000000000000000000000000000000000000001614610efa5760405162461bcd60e51b81526004016107e490613833565b6000818152600b602052604090205460ff16158015610f2857506000818152600a602052604090205460ff16155b8015610f495750610f3881611706565b600082815260076020526040902054105b610f7d5760405162461bcd60e51b8152602060048201526005602482015264504d444e4160d81b60448201526064016107e4565b600081815260076020908152604080832054600590925290912054610fa290826137c3565b600083815260086020908152604080832093909355600a9052819020805460ff1916600117905551636d71c16b60e11b81526001600160a01b037f0000000000000000000000000000000000000000000000000000000000000000811660048301527f0000000000000000000000000000000000000000000000000000000000000000169063dae382d690602401600060405180830381600087803b15801561104a57600080fd5b505af115801561105e573d6000803e3d6000fd5b5050604051631a0a14f960e31b81526001600160a01b037f000000000000000000000000000000000000000000000000000000000000000081166004830152600160248301527f000000000000000000000000000000000000000000000000000000000000000016925063d050a7c89150604401600060405180830381600087803b1580156110ec57600080fd5b505af1158015611100573d6000803e3d6000fd5b50505050817fc4f17a65d54873d57229ea5f59c4ddec592d095bc17581372676402c8228b9cd61112f84611706565b60408051918252602082018590520160405180910390a25050565b60008181526004602052604081206003015442118015610810575061116e82611706565b6000838152600760205260409020541092915050565b600082815260046020819052604090912001544211156111cb5760405162461bcd60e51b815260206004820152600260248201526124a160f11b60448201526064016107e4565b806111d583611b7e565b10156112085760405162461bcd60e51b8152602060048201526002602482015261495160f01b60448201526064016107e4565b6000828152600460205260408082208151610140810190925280548290829061123090613772565b80601f016020809104026020016040519081016040528092919081815260200182805461125c90613772565b80156112a95780601f1061127e576101008083540402835291602001916112a9565b820191906000526020600020905b81548152906001019060200180831161128c57829003601f168201915b5050505050815260200160018201548152602001600282015481526020016003820154815260200160048201548152602001600582015481526020016006820154815260200160078201548152602001600882015481526020016009820154815250509050600081602001518361132091906137ac565b905082600560008681526020019081526020016000206000828254611345919061389c565b90915550506000848152600760205260408120805483929061136890849061389c565b909155505060405163576ff16360e01b8152600481018290526001600160a01b037f0000000000000000000000000000000000000000000000000000000000000000811660248301527f0000000000000000000000000000000000000000000000000000000000000000169063576ff16390604401600060405180830381600087803b1580156113f757600080fd5b505af115801561140b573d6000803e3d6000fd5b505060405163b8c2e4f360e01b8152600481018490526001600160a01b037f0000000000000000000000000000000000000000000000000000000000000000811660248301527f0000000000000000000000000000000000000000000000000000000000000000811660448301527f000000000000000000000000000000000000000000000000000000000000000016925063b8c2e4f39150606401600060405180830381600087803b1580156114c157600080fd5b505af11580156114d5573d6000803e3d6000fd5b5050604051637db79a3d60e01b8152600481018490526001600160a01b037f0000000000000000000000000000000000000000000000000000000000000000811660248301527f000000000000000000000000000000000000000000000000000000000000000081166044830152600160648301527f0000000000000000000000000000000000000000000000000000000000000000169250637db79a3d9150608401600060405180830381600087803b15801561159257600080fd5b505af11580156115a6573d6000803e3d6000fd5b505060405163585a6fd560e11b8152600481018490526001600160a01b037f000000000000000000000000000000000000000000000000000000000000000081166024830152600160448301527f000000000000000000000000000000000000000000000000000000000000000016925063b0b4dfaa9150606401600060405180830381600087803b15801561163b57600080fd5b505af115801561164f573d6000803e3d6000fd5b5050505061166f303386866040518060200160405280600081525061243a565b6040516323b872dd60e01b8152336004820152306024820152604481018290527f00000000000000000000000000000000000000000000000000000000000000006001600160a01b0316906323b872dd906064016020604051808303816000875af11580156116e2573d6000803e3d6000fd5b505050506040513d601f19601f82011682018060405250810190610b249190613850565b600081815260046020908152604080832060090154600f90925282205460ff161561173c57506000828152600e60205260409020545b670de0b6b3a76400008161174f85610916565b61175991906137ac565b61176391906137c3565b61176c84610916565b611776919061389c565b9392505050565b80611788338461077d565b10156117bb5760405162461bcd60e51b8152602060048201526002602482015261495160f01b60448201526064016107e4565b6000828152600b602052604090205460ff16806117dc57506117dc82610b66565b806117f557506000828152600a602052604090205460ff165b6118275760405162461bcd60e51b8152602060048201526003602482015262524e4160e81b60448201526064016107e4565b6000828152600b6020526040812054819060ff1615611857575050600082815260096020526040812054906118ac565b61186084610b66565b156118815750506000828152600460205260409020600190810154906118ac565b6000848152600a602052604090205460ff161561028957505060008281526008602052604090205460025b6118b7338585612a53565b600084815260066020526040812080548592906118d590849061389c565b90915550600090506118e783856137ac565b90508060076000878152602001908152602001600020600082825461190c919061375f565b909155505060405163a9059cbb60e01b8152336004820152602481018290527f00000000000000000000000000000000000000000000000000000000000000006001600160a01b03169063a9059cbb906044016020604051808303816000875af115801561197e573d6000803e3d6000fd5b505050506040513d601f19601f820116820180604052508101906119a29190613850565b50604080513381526020810186905290810183905285907fa5851b0172fdafd3dafe0e52ce051747548a4c642a2f22793c01faf228e130629060600160405180910390a25050505050565b60008181526004602081905260408220015461081090429061375f565b6060600080600080600080600080600080600460008d815260200190815260200160002060405180610140016040529081600082018054611a4a90613772565b80601f0160208091040260200160405190810160405280929190818152602001828054611a7690613772565b8015611ac35780601f10611a9857610100808354040283529160200191611ac3565b820191906000526020600020905b815481529060010190602001808311611aa657829003601f168201915b5050505050815260200160018201548152602001600282015481526020016003820154815260200160048201548152602001600582015481526020016006820154815260200160078201548152602001600882015481526020016009820154815250509050806000015181602001518260400151836060015184608001518560a001518660c001518760e001518861010001518961012001519a509a509a509a509a509a509a509a509a509a50509193959799509193959799565b6000818152600560209081526040808320546004909252822060070154610810919061375f565b60006001611bb260035490565b611bbc919061375f565b905090565b611bcc338383612bd4565b5050565b6000818152600b602052604090205460ff16158015611bfe57506000818152600a602052604090205460ff16155b8015611c0e5750611c0e8161114a565b611c425760405162461bcd60e51b81526020600482015260056024820152644d41444e4160d81b60448201526064016107e4565b600081815260076020526040812054611c5e906103e8906137c3565b60008381526007602052604081205491925090611c7c90839061375f565b600084815260056020526040902054909150611c9890826137c3565b600084815260086020908152604080832093909355600790529081208054849290611cc490849061375f565b90915550506000838152600a602052604090819020805460ff1916600117905551636d71c16b60e11b81526001600160a01b037f0000000000000000000000000000000000000000000000000000000000000000811660048301527f0000000000000000000000000000000000000000000000000000000000000000169063dae382d690602401600060405180830381600087803b158015611d6557600080fd5b505af1158015611d79573d6000803e3d6000fd5b5050604051631a0a14f960e31b81526001600160a01b037f000000000000000000000000000000000000000000000000000000000000000081166004830152600160248301527f000000000000000000000000000000000000000000000000000000000000000016925063d050a7c89150604401600060405180830381600087803b158015611e0757600080fd5b505af1158015611e1b573d6000803e3d6000fd5b505060405163a9059cbb60e01b8152336004820152602481018590527f00000000000000000000000000000000000000000000000000000000000000006001600160a01b0316925063a9059cbb91506044016020604051808303816000875af1158015611e8c573d6000803e3d6000fd5b505050506040513d601f19601f82011682018060405250810190611eb09190613850565b50827fc4f17a65d54873d57229ea5f59c4ddec592d095bc17581372676402c8228b9cd611edc85611706565b60408051918252602082018590520160405180910390a2505050565b6000818152600a602052604090205460ff16158015611f2657506000818152600b602052604090205460ff16155b8015611f365750611f3681610b2b565b611f6a5760405162461bcd60e51b81526020600482015260056024820152644d41434e4160d81b60448201526064016107e4565b6000611f7582611706565b90506000611f856103e8836137c3565b90506000611f93828461375f565b600085815260056020526040902054909150611faf90826137c3565b600085815260096020908152604080832093909355600790529081208054849290611fdb90849061375f565b90915550506000848152600b602052604090819020805460ff191660011790555163a9059cbb60e01b8152336004820152602481018390526001600160a01b037f0000000000000000000000000000000000000000000000000000000000000000169063a9059cbb906044016020604051808303816000875af1158015612066573d6000803e3d6000fd5b505050506040513d601f19601f8201168201806040525081019061208a9190613850565b50604080518481526020810183905285917fac2eeaf45d1b75aed6b3285cda3efb3c382cce02ba313558bbb90be57f8843e4910160405180910390a250505050565b60008181526004602052604081206003015461081090429061375f565b336001600160a01b037f000000000000000000000000000000000000000000000000000000000000000016146121315760405162461bcd60e51b81526004016107e490613833565b6000828152600a602052604090205460ff168061215257506121528261114a565b15801561216e57506000828152600b602052604090205460ff16155b6121a05760405162461bcd60e51b8152602060048201526003602482015262444e4160e81b60448201526064016107e4565b600082815260076020526040812080548392906121be90849061389c565b90915550506040516323b872dd60e01b8152336004820152306024820152604481018290527f00000000000000000000000000000000000000000000000000000000000000006001600160a01b0316906323b872dd90606401610d40565b6040516370a0823160e01b81523060048201526000907f00000000000000000000000000000000000000000000000000000000000000006001600160a01b0316906370a0823190602401602060405180830381865afa158015612283573d6000803e3d6000fd5b505050506040513d601f19601f82011682018060405250810190611bbc91906138af565b336001600160a01b037f000000000000000000000000000000000000000000000000000000000000000016146122ef5760405162461bcd60e51b81526004016107e490613833565b6000818152600b602052604090205460ff1680156123255750600081815260056020908152604080832054600690925290912054145b6123575760405162461bcd60e51b8152602060048201526003602482015262574e4160e81b60448201526064016107e4565b6000818152600760205260409020546123985760405162461bcd60e51b815260206004820152600360248201526257464560e81b60448201526064016107e4565b6000818152600760205260408082208290555163a9059cbb60e01b815233600482015260248101919091527f00000000000000000000000000000000000000000000000000000000000000006001600160a01b03169063a9059cbb906044016020604051808303816000875af1158015612416573d6000803e3d6000fd5b505050506040513d601f19601f82011682018060405250810190611bcc9190613850565b6001600160a01b0385163314806124565750612456853361070a565b6124725760405162461bcd60e51b81526004016107e4906137e5565b610b248585858585612cb4565b6000336001600160a01b037f000000000000000000000000000000000000000000000000000000000000000016146124c95760405162461bcd60e51b81526004016107e490613833565b8888106125025760405162461bcd60e51b81526020600482015260076024820152664d50514754425160c81b60448201526064016107e4565b60b484101561253c5760405162461bcd60e51b81526004016107e4906020808252600490820152634442364d60e01b604082015260600190565b60078311156125755760405162461bcd60e51b81526020600482015260056024820152641051104dd160da1b60448201526064016107e4565b50600c80546001810190915561259c33828b60405180602001604052806000815250612dde565b60405180610140016040528087878080601f016020809104026020016040519081016040528093929190818152602001838380828437600092019190915250505090825250602081018990524260408201526060016125fe86620151806137ac565b612608904261389c565b815260200161261a85620151806137ac565b612624904261389c565b815260208082018690526040808301889052606083018d9052608083018c905260a0909201859052600084815260049091522081518190612665908261390e565b506020820151816001015560408201518160020155606082015181600301556080820151816004015560a0820151816005015560c0820151816006015560e08201518160070155610100820151816008015561012082015181600901559050506002846126d291906137c3565b6000828152600d602052604090819020919091555163b54cb16560e01b8152600260048201527f00000000000000000000000000000000000000000000000000000000000000006001600160a01b03169063b54cb16590602401600060405180830381600087803b15801561274657600080fd5b505af115801561275a573d6000803e3d6000fd5b5050604051632fa9d73d60e21b81526001600160a01b037f000000000000000000000000000000000000000000000000000000000000000081166004830152600260248301527f000000000000000000000000000000000000000000000000000000000000000016925063bea75cf49150604401600060405180830381600087803b1580156127e857600080fd5b505af11580156127fc573d6000803e3d6000fd5b50505050807ff73e436c94925e1e8b2f0b16de0a2c56aea7fb27878f7815811bc05bc6c335e88a8985886201518061283491906137ac565b61283e904261389c565b60408051948552602085019390935291830152606082015260800160405180910390a298975050505050505050565b80546001019055565b81518351146128d85760405162461bcd60e51b815260206004820152602860248201527f455243313135353a2069647320616e6420616d6f756e7473206c656e677468206044820152670dad2e6dac2e8c6d60c31b60648201526084016107e4565b6001600160a01b0384166128fe5760405162461bcd60e51b81526004016107e4906139ce565b3360005b84518110156129e557600085828151811061291f5761291f61386d565b60200260200101519050600085838151811061293d5761293d61386d565b602090810291909101810151600084815280835260408082206001600160a01b038e16835290935291909120549091508181101561298d5760405162461bcd60e51b81526004016107e490613a13565b6000838152602081815260408083206001600160a01b038e8116855292528083208585039055908b168252812080548492906129ca90849061389c565b92505081905550505050806129de90613883565b9050612902565b50846001600160a01b0316866001600160a01b0316826001600160a01b03167f4a39dc06d4c0dbc64b70af90fd698a233a518aa5d07e595d983b8c0526c8f7fb8787604051612a35929190613a5d565b60405180910390a4612a4b818787878787612ee9565b505050505050565b6001600160a01b038316612ab55760405162461bcd60e51b815260206004820152602360248201527f455243313135353a206275726e2066726f6d20746865207a65726f206164647260448201526265737360e81b60648201526084016107e4565b336000612ac184613044565b90506000612ace84613044565b60408051602080820183526000918290528882528181528282206001600160a01b038b1683529052205490915084811015612b575760405162461bcd60e51b8152602060048201526024808201527f455243313135353a206275726e20616d6f756e7420657863656564732062616c604482015263616e636560e01b60648201526084016107e4565b6000868152602081815260408083206001600160a01b038b81168086529184528285208a8703905582518b81529384018a90529092908816917fc3d58168c5ae7397731d063d5bbf3d657854427343f4c083240f7aacaa2d0f62910160405180910390a46040805160208101909152600090525b50505050505050565b816001600160a01b0316836001600160a01b031603612c475760405162461bcd60e51b815260206004820152602960248201527f455243313135353a2073657474696e6720617070726f76616c20737461747573604482015268103337b91039b2b63360b91b60648201526084016107e4565b6001600160a01b03838116600081815260016020908152604080832094871680845294825291829020805460ff191686151590811790915591519182527f17307eab39ab6107e8899845ad3d59bd9653f200f220920489ca2b5937696c31910160405180910390a3505050565b6001600160a01b038416612cda5760405162461bcd60e51b81526004016107e4906139ce565b336000612ce685613044565b90506000612cf385613044565b90506000868152602081815260408083206001600160a01b038c16845290915290205485811015612d365760405162461bcd60e51b81526004016107e490613a13565b6000878152602081815260408083206001600160a01b038d8116855292528083208985039055908a16825281208054889290612d7390849061389c565b909155505060408051888152602081018890526001600160a01b03808b16928c821692918816917fc3d58168c5ae7397731d063d5bbf3d657854427343f4c083240f7aacaa2d0f62910160405180910390a4612dd3848a8a8a8a8a61308f565b505050505050505050565b6001600160a01b038416612e3e5760405162461bcd60e51b815260206004820152602160248201527f455243313135353a206d696e7420746f20746865207a65726f206164647265736044820152607360f81b60648201526084016107e4565b336000612e4a85613044565b90506000612e5785613044565b90506000868152602081815260408083206001600160a01b038b16845290915281208054879290612e8990849061389c565b909155505060408051878152602081018790526001600160a01b03808a1692600092918716917fc3d58168c5ae7397731d063d5bbf3d657854427343f4c083240f7aacaa2d0f62910160405180910390a4612bcb8360008989898961308f565b6001600160a01b0384163b15612a4b5760405163bc197c8160e01b81526001600160a01b0385169063bc197c8190612f2d9089908990889088908890600401613a8b565b6020604051808303816000875af1925050508015612f68575060408051601f3d908101601f19168201909252612f6591810190613ae9565b60015b61301457612f74613b06565b806308c379a003612fad5750612f88613b22565b80612f935750612faf565b8060405162461bcd60e51b81526004016107e49190613225565b505b60405162461bcd60e51b815260206004820152603460248201527f455243313135353a207472616e7366657220746f206e6f6e2d455243313135356044820152732932b1b2b4bb32b91034b6b83632b6b2b73a32b960611b60648201526084016107e4565b6001600160e01b0319811663bc197c8160e01b14612bcb5760405162461bcd60e51b81526004016107e490613bac565b6040805160018082528183019092526060916000919060208083019080368337019050509050828160008151811061307e5761307e61386d565b602090810291909101015292915050565b6001600160a01b0384163b15612a4b5760405163f23a6e6160e01b81526001600160a01b0385169063f23a6e61906130d39089908990889088908890600401613bf4565b6020604051808303816000875af192505050801561310e575060408051601f3d908101601f1916820190925261310b91810190613ae9565b60015b61311a57612f74613b06565b6001600160e01b0319811663f23a6e6160e01b14612bcb5760405162461bcd60e51b81526004016107e490613bac565b80356001600160a01b038116811461316157600080fd5b919050565b6000806040838503121561317957600080fd5b6131828361314a565b946020939093013593505050565b6001600160e01b0319811681146131a657600080fd5b50565b6000602082840312156131bb57600080fd5b813561177681613190565b6000602082840312156131d857600080fd5b5035919050565b6000815180845260005b81811015613205576020818501810151868301820152016131e9565b506000602082860101526020601f19601f83011685010191505092915050565b60208152600061177660208301846131df565b634e487b7160e01b600052604160045260246000fd5b601f8201601f1916810167ffffffffffffffff8111828210171561327457613274613238565b6040525050565b600067ffffffffffffffff82111561329557613295613238565b5060051b60200190565b600082601f8301126132b057600080fd5b813560206132bd8261327b565b6040516132ca828261324e565b83815260059390931b85018201928281019150868411156132ea57600080fd5b8286015b8481101561330557803583529183019183016132ee565b509695505050505050565b600082601f83011261332157600080fd5b813567ffffffffffffffff81111561333b5761333b613238565b604051613352601f8301601f19166020018261324e565b81815284602083860101111561336757600080fd5b816020850160208301376000918101602001919091529392505050565b600080600080600060a0868803121561339c57600080fd5b6133a58661314a565b94506133b36020870161314a565b9350604086013567ffffffffffffffff808211156133d057600080fd5b6133dc89838a0161329f565b945060608801359150808211156133f257600080fd5b6133fe89838a0161329f565b9350608088013591508082111561341457600080fd5b5061342188828901613310565b9150509295509295909350565b6000806040838503121561344157600080fd5b50508035926020909101359150565b6000806040838503121561346357600080fd5b823567ffffffffffffffff8082111561347b57600080fd5b818501915085601f83011261348f57600080fd5b8135602061349c8261327b565b6040516134a9828261324e565b83815260059390931b85018201928281019150898411156134c957600080fd5b948201945b838610156134ee576134df8661314a565b825294820194908201906134ce565b9650508601359250508082111561350457600080fd5b506135118582860161329f565b9150509250929050565b600081518084526020808501945080840160005b8381101561354b5781518752958201959082019060010161352f565b509495945050505050565b602081526000611776602083018461351b565b600061014080835261357d8184018e6131df565b602084019c909c52505060408101989098526060880196909652608087019490945260a086019290925260c085015260e084015261010083015261012090910152919050565b80151581146131a657600080fd5b600080604083850312156135e457600080fd5b6135ed8361314a565b915060208301356135fd816135c3565b809150509250929050565b6000806040838503121561361b57600080fd5b6136248361314a565b91506136326020840161314a565b90509250929050565b600080600080600060a0868803121561365357600080fd5b61365c8661314a565b945061366a6020870161314a565b93506040860135925060608601359150608086013567ffffffffffffffff81111561369457600080fd5b61342188828901613310565b60008060008060008060008060e0898b0312156136bc57600080fd5b883597506020890135965060408901359550606089013567ffffffffffffffff808211156136e957600080fd5b818b0191508b601f8301126136fd57600080fd5b81358181111561370c57600080fd5b8c602082850101111561371e57600080fd5b999c989b50969960209190910198976080820135975060a0820135965060c090910135945092505050565b634e487b7160e01b600052601160045260246000fd5b8181038181111561081057610810613749565b600181811c9082168061378657607f821691505b6020821081036137a657634e487b7160e01b600052602260045260246000fd5b50919050565b808202811582820484141761081057610810613749565b6000826137e057634e487b7160e01b600052601260045260246000fd5b500490565b6020808252602e908201527f455243313135353a2063616c6c6572206973206e6f7420746f6b656e206f776e60408201526d195c881bdc88185c1c1c9bdd995960921b606082015260800190565b6020808252600390820152624e544f60e81b604082015260600190565b60006020828403121561386257600080fd5b8151611776816135c3565b634e487b7160e01b600052603260045260246000fd5b60006001820161389557613895613749565b5060010190565b8082018082111561081057610810613749565b6000602082840312156138c157600080fd5b5051919050565b601f821115610d8357600081815260208120601f850160051c810160208610156138ef5750805b601f850160051c820191505b81811015612a4b578281556001016138fb565b815167ffffffffffffffff81111561392857613928613238565b61393c816139368454613772565b846138c8565b602080601f83116001811461397157600084156139595750858301515b600019600386901b1c1916600185901b178555612a4b565b600085815260208120601f198616915b828110156139a057888601518255948401946001909101908401613981565b50858210156139be5787850151600019600388901b60f8161c191681555b5050505050600190811b01905550565b60208082526025908201527f455243313135353a207472616e7366657220746f20746865207a65726f206164604082015264647265737360d81b606082015260800190565b6020808252602a908201527f455243313135353a20696e73756666696369656e742062616c616e636520666f60408201526939103a3930b739b332b960b11b606082015260800190565b604081526000613a70604083018561351b565b8281036020840152613a82818561351b565b95945050505050565b6001600160a01b0386811682528516602082015260a060408201819052600090613ab79083018661351b565b8281036060840152613ac9818661351b565b90508281036080840152613add81856131df565b98975050505050505050565b600060208284031215613afb57600080fd5b815161177681613190565b600060033d1115613b1f5760046000803e5060005160e01c5b90565b600060443d1015613b305790565b6040516003193d81016004833e81513d67ffffffffffffffff8160248401118184111715613b6057505050505090565b8285019150815181811115613b785750505050505090565b843d8701016020828501011115613b925750505050505090565b613ba16020828601018761324e565b509095945050505050565b60208082526028908201527f455243313135353a204552433131353552656365697665722072656a656374656040820152676420746f6b656e7360c01b606082015260800190565b6001600160a01b03868116825285166020820152604081018490526060810183905260a060808201819052600090613c2e908301846131df565b97965050505050505056fea2646970667358221220c2a780080070f95beded85bdfa0cf6eb6be61ecb127615027dfe2335bcc0501f64736f6c63430008110033a264697066735822122092202f41f47a1b1d72a666d88d26408662534845bfd2f93f2a362b9abd5a72ea64736f6c63430008110033",
			"opcodes": "PUSH1 0xE0 PUSH1 0x40 MSTORE CALLVALUE DUP1 ISZERO PUSH2 0x10 JUMPI PUSH1 0x0 DUP1 REVERT JUMPDEST POP PUSH1 0x40 MLOAD PUSH2 0x4E20 CODESIZE SUB DUP1 PUSH2 0x4E20 DUP4 CODECOPY DUP2 ADD PUSH1 0x40 DUP2 SWAP1 MSTORE PUSH2 0x2F SWAP2 PUSH2 0x159 JUMP JUMPDEST CALLER PUSH1 0x80 MSTORE PUSH1 0x1 PUSH1 0x1 PUSH1 0xA0 SHL SUB SWAP2 DUP3 AND PUSH1 0xA0 MSTORE AND PUSH1 0xC0 MSTORE PUSH1 0x2 PUSH1 0x20 MSTORE PUSH32 0x1EB44A1381B2858E3CF64DA7E3E83209AA80F8D96AC8937F8B717B4285A410E8 DUP1 SLOAD PUSH1 0x1 PUSH1 0xFF NOT SWAP2 DUP3 AND DUP2 OR SWAP1 SWAP3 SSTORE PUSH32 0x235FA5E7C7148162DA162EDCAF0328210FC466B10EE308B8E1373C142617D78C DUP1 SLOAD DUP3 AND DUP4 OR SWAP1 SSTORE PUSH32 0xA4E4028036A6258222C986D8DC177D59E3D7870180E9F3B76F2253CBC5DB69E9 DUP1 SLOAD DUP3 AND DUP4 OR SWAP1 SSTORE PUSH32 0x3E749D1CAFB8F448CC3CE7034F3FAC1B64DFECCEE07FEC4200E79AC77C04218 DUP1 SLOAD DUP3 AND DUP4 OR SWAP1 SSTORE PUSH20 0x9C556B18D2370D4C44F3B3153D340D9ABFD8D995 PUSH1 0x0 MSTORE PUSH32 0xDA5BE07038D25E40699FC142F83E4592374121C28CD83805540602D93D836DB8 DUP1 SLOAD SWAP1 SWAP2 AND SWAP1 SWAP2 OR SWAP1 SSTORE PUSH2 0x18C JUMP JUMPDEST DUP1 MLOAD PUSH1 0x1 PUSH1 0x1 PUSH1 0xA0 SHL SUB DUP2 AND DUP2 EQ PUSH2 0x154 JUMPI PUSH1 0x0 DUP1 REVERT JUMPDEST SWAP2 SWAP1 POP JUMP JUMPDEST PUSH1 0x0 DUP1 PUSH1 0x40 DUP4 DUP6 SUB SLT ISZERO PUSH2 0x16C JUMPI PUSH1 0x0 DUP1 REVERT JUMPDEST PUSH2 0x175 DUP4 PUSH2 0x13D JUMP JUMPDEST SWAP2 POP PUSH2 0x183 PUSH1 0x20 DUP5 ADD PUSH2 0x13D JUMP JUMPDEST SWAP1 POP SWAP3 POP SWAP3 SWAP1 POP JUMP JUMPDEST PUSH1 0x80 MLOAD PUSH1 0xA0 MLOAD PUSH1 0xC0 MLOAD PUSH2 0x4C42 PUSH2 0x1DE PUSH1 0x0 CODECOPY PUSH1 0x0 DUP2 DUP2 PUSH2 0x1B0 ADD MSTORE DUP2 DUP2 PUSH2 0x769 ADD MSTORE PUSH2 0x83C ADD MSTORE PUSH1 0x0 DUP2 DUP2 PUSH2 0x24E ADD MSTORE DUP2 DUP2 PUSH2 0x363 ADD MSTORE DUP2 DUP2 PUSH2 0x542 ADD MSTORE PUSH2 0x658 ADD MSTORE PUSH1 0x0 PUSH2 0x12F ADD MSTORE PUSH2 0x4C42 PUSH1 0x0 RETURN INVALID PUSH1 0x80 PUSH1 0x40 MSTORE CALLVALUE DUP1 ISZERO PUSH3 0x11 JUMPI PUSH1 0x0 DUP1 REVERT JUMPDEST POP PUSH1 0x4 CALLDATASIZE LT PUSH3 0x93 JUMPI PUSH1 0x0 CALLDATALOAD PUSH1 0xE0 SHR DUP1 PUSH4 0x8DA5CB5B GT PUSH3 0x62 JUMPI DUP1 PUSH4 0x8DA5CB5B EQ PUSH3 0x12D JUMPI DUP1 PUSH4 0xC3C5A547 EQ PUSH3 0x168 JUMPI DUP1 PUSH4 0xCA5AD27C EQ PUSH3 0x197 JUMPI DUP1 PUSH4 0xEFC79356 EQ PUSH3 0x1AE JUMPI PUSH1 0x0 DUP1 REVERT JUMPDEST DUP1 PUSH4 0x1615FD03 EQ PUSH3 0x98 JUMPI DUP1 PUSH4 0x1AA3A008 EQ PUSH3 0xBA JUMPI DUP1 PUSH4 0x417590DA EQ PUSH3 0xC6 JUMPI DUP1 PUSH4 0x487C5CDF EQ PUSH3 0xDD JUMPI JUMPDEST PUSH1 0x0 DUP1 REVERT JUMPDEST PUSH3 0xA2 PUSH3 0x1D5 JUMP JUMPDEST PUSH1 0x40 MLOAD PUSH3 0xB1 SWAP2 SWAP1 PUSH3 0x8EF JUMP JUMPDEST PUSH1 0x40 MLOAD DUP1 SWAP2 SUB SWAP1 RETURN JUMPDEST PUSH3 0xC4 PUSH3 0x239 JUMP JUMPDEST STOP JUMPDEST PUSH3 0xA2 PUSH3 0xD7 CALLDATASIZE PUSH1 0x4 PUSH3 0x95B JUMP JUMPDEST PUSH3 0x46F JUMP JUMPDEST PUSH3 0x11C PUSH3 0xEE CALLDATASIZE PUSH1 0x4 PUSH3 0x980 JUMP JUMPDEST PUSH1 0x1 PUSH1 0x1 PUSH1 0xA0 SHL SUB SWAP2 DUP3 AND PUSH1 0x0 SWAP1 DUP2 MSTORE PUSH1 0x4 PUSH1 0x20 SWAP1 DUP2 MSTORE PUSH1 0x40 DUP1 DUP4 KECCAK256 SWAP4 SWAP1 SWAP5 AND DUP3 MSTORE SWAP2 SWAP1 SWAP2 MSTORE KECCAK256 SLOAD PUSH1 0xFF AND SWAP1 JUMP JUMPDEST PUSH1 0x40 MLOAD SWAP1 ISZERO ISZERO DUP2 MSTORE PUSH1 0x20 ADD PUSH3 0xB1 JUMP JUMPDEST PUSH32 0x0 JUMPDEST PUSH1 0x40 MLOAD PUSH1 0x1 PUSH1 0x1 PUSH1 0xA0 SHL SUB SWAP1 SWAP2 AND DUP2 MSTORE PUSH1 0x20 ADD PUSH3 0xB1 JUMP JUMPDEST PUSH3 0x11C PUSH3 0x179 CALLDATASIZE PUSH1 0x4 PUSH3 0x95B JUMP JUMPDEST PUSH1 0x1 PUSH1 0x1 PUSH1 0xA0 SHL SUB AND PUSH1 0x0 SWAP1 DUP2 MSTORE PUSH1 0x1 PUSH1 0x20 MSTORE PUSH1 0x40 SWAP1 KECCAK256 SLOAD PUSH1 0xFF AND SWAP1 JUMP JUMPDEST PUSH3 0x14F PUSH3 0x1A8 CALLDATASIZE PUSH1 0x4 PUSH3 0x9CE JUMP JUMPDEST PUSH3 0x4E7 JUMP JUMPDEST PUSH32 0x0 PUSH3 0x14F JUMP JUMPDEST PUSH1 0x60 PUSH1 0x0 DUP1 SLOAD DUP1 PUSH1 0x20 MUL PUSH1 0x20 ADD PUSH1 0x40 MLOAD SWAP1 DUP2 ADD PUSH1 0x40 MSTORE DUP1 SWAP3 SWAP2 SWAP1 DUP2 DUP2 MSTORE PUSH1 0x20 ADD DUP3 DUP1 SLOAD DUP1 ISZERO PUSH3 0x22F JUMPI PUSH1 0x20 MUL DUP3 ADD SWAP2 SWAP1 PUSH1 0x0 MSTORE PUSH1 0x20 PUSH1 0x0 KECCAK256 SWAP1 JUMPDEST DUP2 SLOAD PUSH1 0x1 PUSH1 0x1 PUSH1 0xA0 SHL SUB AND DUP2 MSTORE PUSH1 0x1 SWAP1 SWAP2 ADD SWAP1 PUSH1 0x20 ADD DUP1 DUP4 GT PUSH3 0x210 JUMPI JUMPDEST POP POP POP POP POP SWAP1 POP SWAP1 JUMP JUMPDEST PUSH1 0x40 MLOAD PUSH4 0x39F920AB PUSH1 0xE0 SHL DUP2 MSTORE CALLER PUSH1 0x4 DUP3 ADD MSTORE PUSH32 0x0 PUSH1 0x1 PUSH1 0x1 PUSH1 0xA0 SHL SUB AND SWAP1 PUSH4 0x39F920AB SWAP1 PUSH1 0x24 ADD PUSH1 0x20 PUSH1 0x40 MLOAD DUP1 DUP4 SUB DUP2 DUP7 GAS STATICCALL ISZERO DUP1 ISZERO PUSH3 0x29E JUMPI RETURNDATASIZE PUSH1 0x0 DUP1 RETURNDATACOPY RETURNDATASIZE PUSH1 0x0 REVERT JUMPDEST POP POP POP POP PUSH1 0x40 MLOAD RETURNDATASIZE PUSH1 0x1F NOT PUSH1 0x1F DUP3 ADD AND DUP3 ADD DUP1 PUSH1 0x40 MSTORE POP DUP2 ADD SWAP1 PUSH3 0x2C4 SWAP2 SWAP1 PUSH3 0xA93 JUMP JUMPDEST PUSH3 0x304 JUMPI PUSH1 0x40 MLOAD PUSH3 0x461BCD PUSH1 0xE5 SHL DUP2 MSTORE PUSH1 0x4 ADD PUSH3 0x2FB SWAP1 PUSH1 0x20 DUP1 DUP3 MSTORE PUSH1 0x4 SWAP1 DUP3 ADD MSTORE PUSH4 0x139054D5 PUSH1 0xE2 SHL PUSH1 0x40 DUP3 ADD MSTORE PUSH1 0x60 ADD SWAP1 JUMP JUMPDEST PUSH1 0x40 MLOAD DUP1 SWAP2 SUB SWAP1 REVERT JUMPDEST CALLER PUSH1 0x0 SWAP1 DUP2 MSTORE PUSH1 0x1 PUSH1 0x20 MSTORE PUSH1 0x40 SWAP1 KECCAK256 SLOAD PUSH1 0xFF AND ISZERO PUSH3 0x34B JUMPI PUSH1 0x40 MLOAD PUSH3 0x461BCD PUSH1 0xE5 SHL DUP2 MSTORE PUSH1 0x20 PUSH1 0x4 DUP3 ADD MSTORE PUSH1 0x2 PUSH1 0x24 DUP3 ADD MSTORE PUSH2 0x20A9 PUSH1 0xF1 SHL PUSH1 0x44 DUP3 ADD MSTORE PUSH1 0x64 ADD PUSH3 0x2FB JUMP JUMPDEST PUSH1 0x40 MLOAD PUSH4 0xB7CAEC87 PUSH1 0xE0 SHL DUP2 MSTORE CALLER PUSH1 0x4 DUP3 ADD MSTORE PUSH1 0x1 SWAP1 PUSH32 0x0 PUSH1 0x1 PUSH1 0x1 PUSH1 0xA0 SHL SUB AND SWAP1 PUSH4 0xB7CAEC87 SWAP1 PUSH1 0x24 ADD PUSH1 0x20 PUSH1 0x40 MLOAD DUP1 DUP4 SUB DUP2 DUP7 GAS STATICCALL ISZERO DUP1 ISZERO PUSH3 0x3B3 JUMPI RETURNDATASIZE PUSH1 0x0 DUP1 RETURNDATACOPY RETURNDATASIZE PUSH1 0x0 REVERT JUMPDEST POP POP POP POP PUSH1 0x40 MLOAD RETURNDATASIZE PUSH1 0x1F NOT PUSH1 0x1F DUP3 ADD AND DUP3 ADD DUP1 PUSH1 0x40 MSTORE POP DUP2 ADD SWAP1 PUSH3 0x3D9 SWAP2 SWAP1 PUSH3 0xAB7 JUMP JUMPDEST PUSH1 0xFF AND LT ISZERO PUSH3 0x415 JUMPI PUSH1 0x40 MLOAD PUSH3 0x461BCD PUSH1 0xE5 SHL DUP2 MSTORE PUSH1 0x4 ADD PUSH3 0x2FB SWAP1 PUSH1 0x20 DUP1 DUP3 MSTORE PUSH1 0x4 SWAP1 DUP3 ADD MSTORE PUSH4 0x13959055 PUSH1 0xE2 SHL PUSH1 0x40 DUP3 ADD MSTORE PUSH1 0x60 ADD SWAP1 JUMP JUMPDEST CALLER PUSH1 0x0 DUP2 DUP2 MSTORE PUSH1 0x1 PUSH1 0x20 DUP2 SWAP1 MSTORE PUSH1 0x40 DUP3 KECCAK256 DUP1 SLOAD PUSH1 0xFF NOT AND DUP3 OR SWAP1 SSTORE DUP2 SLOAD SWAP1 DUP2 ADD DUP3 SSTORE SWAP1 DUP1 MSTORE PUSH32 0x290DECD9548B62A8D60345A988386FC84BA6BC95484008F6362F93160EF3E563 ADD DUP1 SLOAD PUSH1 0x1 PUSH1 0x1 PUSH1 0xA0 SHL SUB NOT AND SWAP1 SWAP2 OR SWAP1 SSTORE JUMP JUMPDEST PUSH1 0x1 PUSH1 0x1 PUSH1 0xA0 SHL SUB DUP2 AND PUSH1 0x0 SWAP1 DUP2 MSTORE PUSH1 0x3 PUSH1 0x20 SWAP1 DUP2 MSTORE PUSH1 0x40 SWAP2 DUP3 SWAP1 KECCAK256 DUP1 SLOAD DUP4 MLOAD DUP2 DUP5 MUL DUP2 ADD DUP5 ADD SWAP1 SWAP5 MSTORE DUP1 DUP5 MSTORE PUSH1 0x60 SWAP4 SWAP3 DUP4 ADD DUP3 DUP3 DUP1 ISZERO PUSH3 0x4DB JUMPI PUSH1 0x20 MUL DUP3 ADD SWAP2 SWAP1 PUSH1 0x0 MSTORE PUSH1 0x20 PUSH1 0x0 KECCAK256 SWAP1 JUMPDEST DUP2 SLOAD PUSH1 0x1 PUSH1 0x1 PUSH1 0xA0 SHL SUB AND DUP2 MSTORE PUSH1 0x1 SWAP1 SWAP2 ADD SWAP1 PUSH1 0x20 ADD DUP1 DUP4 GT PUSH3 0x4BC JUMPI JUMPDEST POP POP POP POP POP SWAP1 POP SWAP2 SWAP1 POP JUMP JUMPDEST CALLER PUSH1 0x0 SWAP1 DUP2 MSTORE PUSH1 0x1 PUSH1 0x20 MSTORE PUSH1 0x40 DUP2 KECCAK256 SLOAD PUSH1 0xFF AND PUSH3 0x52D JUMPI PUSH1 0x40 MLOAD PUSH3 0x461BCD PUSH1 0xE5 SHL DUP2 MSTORE PUSH1 0x20 PUSH1 0x4 DUP3 ADD MSTORE PUSH1 0x2 PUSH1 0x24 DUP3 ADD MSTORE PUSH2 0x2729 PUSH1 0xF1 SHL PUSH1 0x44 DUP3 ADD MSTORE PUSH1 0x64 ADD PUSH3 0x2FB JUMP JUMPDEST PUSH1 0x40 MLOAD PUSH4 0x39F920AB PUSH1 0xE0 SHL DUP2 MSTORE CALLER PUSH1 0x4 DUP3 ADD MSTORE PUSH32 0x0 PUSH1 0x1 PUSH1 0x1 PUSH1 0xA0 SHL SUB AND SWAP1 PUSH4 0x39F920AB SWAP1 PUSH1 0x24 ADD PUSH1 0x20 PUSH1 0x40 MLOAD DUP1 DUP4 SUB DUP2 DUP7 GAS STATICCALL ISZERO DUP1 ISZERO PUSH3 0x592 JUMPI RETURNDATASIZE PUSH1 0x0 DUP1 RETURNDATACOPY RETURNDATASIZE PUSH1 0x0 REVERT JUMPDEST POP POP POP POP PUSH1 0x40 MLOAD RETURNDATASIZE PUSH1 0x1F NOT PUSH1 0x1F DUP3 ADD AND DUP3 ADD DUP1 PUSH1 0x40 MSTORE POP DUP2 ADD SWAP1 PUSH3 0x5B8 SWAP2 SWAP1 PUSH3 0xA93 JUMP JUMPDEST PUSH3 0x5EF JUMPI PUSH1 0x40 MLOAD PUSH3 0x461BCD PUSH1 0xE5 SHL DUP2 MSTORE PUSH1 0x4 ADD PUSH3 0x2FB SWAP1 PUSH1 0x20 DUP1 DUP3 MSTORE PUSH1 0x4 SWAP1 DUP3 ADD MSTORE PUSH4 0x139054D5 PUSH1 0xE2 SHL PUSH1 0x40 DUP3 ADD MSTORE PUSH1 0x60 ADD SWAP1 JUMP JUMPDEST PUSH1 0x1 PUSH1 0x1 PUSH1 0xA0 SHL SUB DUP3 AND PUSH1 0x0 SWAP1 DUP2 MSTORE PUSH1 0x2 PUSH1 0x20 MSTORE PUSH1 0x40 SWAP1 KECCAK256 SLOAD DUP3 SWAP1 PUSH1 0xFF AND PUSH3 0x640 JUMPI PUSH1 0x40 MLOAD PUSH3 0x461BCD PUSH1 0xE5 SHL DUP2 MSTORE PUSH1 0x20 PUSH1 0x4 DUP3 ADD MSTORE PUSH1 0x2 PUSH1 0x24 DUP3 ADD MSTORE PUSH2 0x4943 PUSH1 0xF0 SHL PUSH1 0x44 DUP3 ADD MSTORE PUSH1 0x64 ADD PUSH3 0x2FB JUMP JUMPDEST PUSH1 0x40 MLOAD PUSH4 0xB7CAEC87 PUSH1 0xE0 SHL DUP2 MSTORE CALLER PUSH1 0x4 DUP3 ADD MSTORE PUSH1 0x1 SWAP1 PUSH32 0x0 PUSH1 0x1 PUSH1 0x1 PUSH1 0xA0 SHL SUB AND SWAP1 PUSH4 0xB7CAEC87 SWAP1 PUSH1 0x24 ADD PUSH1 0x20 PUSH1 0x40 MLOAD DUP1 DUP4 SUB DUP2 DUP7 GAS STATICCALL ISZERO DUP1 ISZERO PUSH3 0x6A8 JUMPI RETURNDATASIZE PUSH1 0x0 DUP1 RETURNDATACOPY RETURNDATASIZE PUSH1 0x0 REVERT JUMPDEST POP POP POP POP PUSH1 0x40 MLOAD RETURNDATASIZE PUSH1 0x1F NOT PUSH1 0x1F DUP3 ADD AND DUP3 ADD DUP1 PUSH1 0x40 MSTORE POP DUP2 ADD SWAP1 PUSH3 0x6CE SWAP2 SWAP1 PUSH3 0xAB7 JUMP JUMPDEST PUSH1 0xFF AND LT ISZERO PUSH3 0x70A JUMPI PUSH1 0x40 MLOAD PUSH3 0x461BCD PUSH1 0xE5 SHL DUP2 MSTORE PUSH1 0x4 ADD PUSH3 0x2FB SWAP1 PUSH1 0x20 DUP1 DUP3 MSTORE PUSH1 0x4 SWAP1 DUP3 ADD MSTORE PUSH4 0x13959055 PUSH1 0xE2 SHL PUSH1 0x40 DUP3 ADD MSTORE PUSH1 0x60 ADD SWAP1 JUMP JUMPDEST CALLER PUSH1 0x0 SWAP1 DUP2 MSTORE PUSH1 0x4 PUSH1 0x20 SWAP1 DUP2 MSTORE PUSH1 0x40 DUP1 DUP4 KECCAK256 PUSH1 0x1 PUSH1 0x1 PUSH1 0xA0 SHL SUB DUP8 AND DUP5 MSTORE SWAP1 SWAP2 MSTORE SWAP1 KECCAK256 SLOAD PUSH1 0xFF AND ISZERO PUSH3 0x765 JUMPI PUSH1 0x40 MLOAD PUSH3 0x461BCD PUSH1 0xE5 SHL DUP2 MSTORE PUSH1 0x20 PUSH1 0x4 DUP3 ADD MSTORE PUSH1 0x2 PUSH1 0x24 DUP3 ADD MSTORE PUSH2 0x4149 PUSH1 0xF0 SHL PUSH1 0x44 DUP3 ADD MSTORE PUSH1 0x64 ADD PUSH3 0x2FB JUMP JUMPDEST DUP4 DUP4 PUSH32 0x0 CALLER PUSH1 0x40 MLOAD PUSH3 0x797 SWAP1 PUSH3 0x8E1 JUMP JUMPDEST PUSH3 0x7A6 SWAP5 SWAP4 SWAP3 SWAP2 SWAP1 PUSH3 0xADC JUMP JUMPDEST PUSH1 0x40 MLOAD DUP1 SWAP2 SUB SWAP1 PUSH1 0x0 CREATE DUP1 ISZERO DUP1 ISZERO PUSH3 0x7C3 JUMPI RETURNDATASIZE PUSH1 0x0 DUP1 RETURNDATACOPY RETURNDATASIZE PUSH1 0x0 REVERT JUMPDEST POP CALLER PUSH1 0x0 DUP2 DUP2 MSTORE PUSH1 0x3 PUSH1 0x20 SWAP1 DUP2 MSTORE PUSH1 0x40 DUP1 DUP4 KECCAK256 DUP1 SLOAD PUSH1 0x1 DUP1 DUP3 ADD DUP4 SSTORE SWAP2 DUP6 MSTORE DUP4 DUP6 KECCAK256 ADD DUP1 SLOAD PUSH1 0x1 PUSH1 0x1 PUSH1 0xA0 SHL SUB NOT AND PUSH1 0x1 PUSH1 0x1 PUSH1 0xA0 SHL SUB DUP9 DUP2 AND SWAP2 DUP3 OR SWAP1 SWAP3 SSTORE SWAP6 DUP6 MSTORE PUSH1 0x4 DUP1 DUP6 MSTORE DUP4 DUP7 KECCAK256 DUP12 DUP4 AND DUP8 MSTORE SWAP1 SWAP5 MSTORE SWAP4 DUP3 SWAP1 KECCAK256 DUP1 SLOAD PUSH1 0xFF NOT AND SWAP1 SWAP2 OR SWAP1 SSTORE MLOAD PUSH4 0x783FF1F1 PUSH1 0xE0 SHL DUP2 MSTORE SWAP1 DUP2 ADD SWAP3 SWAP1 SWAP3 MSTORE SWAP2 SWAP4 POP PUSH32 0x0 SWAP1 SWAP2 AND SWAP1 PUSH4 0x783FF1F1 SWAP1 PUSH1 0x24 ADD PUSH1 0x0 PUSH1 0x40 MLOAD DUP1 DUP4 SUB DUP2 PUSH1 0x0 DUP8 DUP1 EXTCODESIZE ISZERO DUP1 ISZERO PUSH3 0x883 JUMPI PUSH1 0x0 DUP1 REVERT JUMPDEST POP GAS CALL ISZERO DUP1 ISZERO PUSH3 0x898 JUMPI RETURNDATASIZE PUSH1 0x0 DUP1 RETURNDATACOPY RETURNDATASIZE PUSH1 0x0 REVERT JUMPDEST POP POP PUSH1 0x40 MLOAD PUSH1 0x1 PUSH1 0x1 PUSH1 0xA0 SHL SUB DUP7 AND DUP2 MSTORE CALLER SWAP3 POP PUSH32 0x80E5D607E143B547134294AFBCE2C48623473EB90D7A68D64FA88273B9452936 SWAP2 POP PUSH1 0x20 ADD PUSH1 0x40 MLOAD DUP1 SWAP2 SUB SWAP1 LOG2 POP SWAP3 SWAP2 POP POP JUMP JUMPDEST PUSH2 0x40C0 DUP1 PUSH3 0xB4D DUP4 CODECOPY ADD SWAP1 JUMP JUMPDEST PUSH1 0x20 DUP1 DUP3 MSTORE DUP3 MLOAD DUP3 DUP3 ADD DUP2 SWAP1 MSTORE PUSH1 0x0 SWAP2 SWAP1 DUP5 DUP3 ADD SWAP1 PUSH1 0x40 DUP6 ADD SWAP1 DUP5 JUMPDEST DUP2 DUP2 LT ISZERO PUSH3 0x932 JUMPI DUP4 MLOAD PUSH1 0x1 PUSH1 0x1 PUSH1 0xA0 SHL SUB AND DUP4 MSTORE SWAP3 DUP5 ADD SWAP3 SWAP2 DUP5 ADD SWAP2 PUSH1 0x1 ADD PUSH3 0x90B JUMP JUMPDEST POP SWAP1 SWAP7 SWAP6 POP POP POP POP POP POP JUMP JUMPDEST DUP1 CALLDATALOAD PUSH1 0x1 PUSH1 0x1 PUSH1 0xA0 SHL SUB DUP2 AND DUP2 EQ PUSH3 0x956 JUMPI PUSH1 0x0 DUP1 REVERT JUMPDEST SWAP2 SWAP1 POP JUMP JUMPDEST PUSH1 0x0 PUSH1 0x20 DUP3 DUP5 SUB SLT ISZERO PUSH3 0x96E JUMPI PUSH1 0x0 DUP1 REVERT JUMPDEST PUSH3 0x979 DUP3 PUSH3 0x93E JUMP JUMPDEST SWAP4 SWAP3 POP POP POP JUMP JUMPDEST PUSH1 0x0 DUP1 PUSH1 0x40 DUP4 DUP6 SUB SLT ISZERO PUSH3 0x994 JUMPI PUSH1 0x0 DUP1 REVERT JUMPDEST PUSH3 0x99F DUP4 PUSH3 0x93E JUMP JUMPDEST SWAP2 POP PUSH3 0x9AF PUSH1 0x20 DUP5 ADD PUSH3 0x93E JUMP JUMPDEST SWAP1 POP SWAP3 POP SWAP3 SWAP1 POP JUMP JUMPDEST PUSH4 0x4E487B71 PUSH1 0xE0 SHL PUSH1 0x0 MSTORE PUSH1 0x41 PUSH1 0x4 MSTORE PUSH1 0x24 PUSH1 0x0 REVERT JUMPDEST PUSH1 0x0 DUP1 PUSH1 0x40 DUP4 DUP6 SUB SLT ISZERO PUSH3 0x9E2 JUMPI PUSH1 0x0 DUP1 REVERT JUMPDEST DUP3 CALLDATALOAD PUSH8 0xFFFFFFFFFFFFFFFF DUP1 DUP3 GT ISZERO PUSH3 0x9FB JUMPI PUSH1 0x0 DUP1 REVERT JUMPDEST DUP2 DUP6 ADD SWAP2 POP DUP6 PUSH1 0x1F DUP4 ADD SLT PUSH3 0xA10 JUMPI PUSH1 0x0 DUP1 REVERT JUMPDEST DUP2 CALLDATALOAD DUP2 DUP2 GT ISZERO PUSH3 0xA25 JUMPI PUSH3 0xA25 PUSH3 0x9B8 JUMP JUMPDEST PUSH1 0x40 MLOAD PUSH1 0x1F DUP3 ADD PUSH1 0x1F NOT SWAP1 DUP2 AND PUSH1 0x3F ADD AND DUP2 ADD SWAP1 DUP4 DUP3 GT DUP2 DUP4 LT OR ISZERO PUSH3 0xA50 JUMPI PUSH3 0xA50 PUSH3 0x9B8 JUMP JUMPDEST DUP2 PUSH1 0x40 MSTORE DUP3 DUP2 MSTORE DUP9 PUSH1 0x20 DUP5 DUP8 ADD ADD GT ISZERO PUSH3 0xA6A JUMPI PUSH1 0x0 DUP1 REVERT JUMPDEST DUP3 PUSH1 0x20 DUP7 ADD PUSH1 0x20 DUP4 ADD CALLDATACOPY PUSH1 0x0 PUSH1 0x20 DUP5 DUP4 ADD ADD MSTORE DUP1 SWAP7 POP POP POP POP POP POP PUSH3 0x9AF PUSH1 0x20 DUP5 ADD PUSH3 0x93E JUMP JUMPDEST PUSH1 0x0 PUSH1 0x20 DUP3 DUP5 SUB SLT ISZERO PUSH3 0xAA6 JUMPI PUSH1 0x0 DUP1 REVERT JUMPDEST DUP2 MLOAD DUP1 ISZERO ISZERO DUP2 EQ PUSH3 0x979 JUMPI PUSH1 0x0 DUP1 REVERT JUMPDEST PUSH1 0x0 PUSH1 0x20 DUP3 DUP5 SUB SLT ISZERO PUSH3 0xACA JUMPI PUSH1 0x0 DUP1 REVERT JUMPDEST DUP2 MLOAD PUSH1 0xFF DUP2 AND DUP2 EQ PUSH3 0x979 JUMPI PUSH1 0x0 DUP1 REVERT JUMPDEST PUSH1 0x80 DUP2 MSTORE PUSH1 0x0 DUP6 MLOAD DUP1 PUSH1 0x80 DUP5 ADD MSTORE PUSH1 0x0 JUMPDEST DUP2 DUP2 LT ISZERO PUSH3 0xB0C JUMPI PUSH1 0x20 DUP2 DUP10 ADD DUP2 ADD MLOAD PUSH1 0xA0 DUP7 DUP5 ADD ADD MSTORE ADD PUSH3 0xAED JUMP JUMPDEST POP PUSH1 0x0 PUSH1 0xA0 DUP3 DUP6 ADD DUP2 ADD SWAP2 SWAP1 SWAP2 MSTORE PUSH1 0x1 PUSH1 0x1 PUSH1 0xA0 SHL SUB SWAP7 DUP8 AND PUSH1 0x20 DUP6 ADD MSTORE SWAP5 DUP7 AND PUSH1 0x40 DUP5 ADD MSTORE SWAP3 SWAP1 SWAP5 AND PUSH1 0x60 DUP3 ADD MSTORE PUSH1 0x1F SWAP1 SWAP2 ADD PUSH1 0x1F NOT AND ADD ADD SWAP3 SWAP2 POP POP JUMP INVALID PUSH1 0xE0 PUSH1 0x40 MSTORE CALLVALUE DUP1 ISZERO PUSH3 0x11 JUMPI PUSH1 0x0 DUP1 REVERT JUMPDEST POP PUSH1 0x40 MLOAD PUSH3 0x40C0 CODESIZE SUB DUP1 PUSH3 0x40C0 DUP4 CODECOPY DUP2 ADD PUSH1 0x40 DUP2 SWAP1 MSTORE PUSH3 0x34 SWAP2 PUSH3 0xD2 JUMP JUMPDEST DUP4 DUP4 DUP4 DUP4 DUP4 PUSH3 0x44 DUP2 PUSH3 0x84 JUMP JUMPDEST POP PUSH1 0x1 PUSH1 0x1 PUSH1 0xA0 SHL SUB DUP2 DUP2 AND PUSH1 0x80 MSTORE DUP4 DUP2 AND PUSH1 0xA0 MSTORE DUP3 AND PUSH1 0xC0 MSTORE PUSH3 0x76 PUSH1 0x3 PUSH3 0x96 PUSH1 0x20 SWAP1 DUP2 SHL PUSH3 0x286D OR SWAP1 SHR JUMP JUMPDEST POP POP POP POP POP POP POP POP PUSH3 0x33A JUMP JUMPDEST PUSH1 0x2 PUSH3 0x92 DUP3 DUP3 PUSH3 0x26E JUMP JUMPDEST POP POP JUMP JUMPDEST DUP1 SLOAD PUSH1 0x1 ADD SWAP1 SSTORE JUMP JUMPDEST PUSH4 0x4E487B71 PUSH1 0xE0 SHL PUSH1 0x0 MSTORE PUSH1 0x41 PUSH1 0x4 MSTORE PUSH1 0x24 PUSH1 0x0 REVERT JUMPDEST DUP1 MLOAD PUSH1 0x1 PUSH1 0x1 PUSH1 0xA0 SHL SUB DUP2 AND DUP2 EQ PUSH3 0xCD JUMPI PUSH1 0x0 DUP1 REVERT JUMPDEST SWAP2 SWAP1 POP JUMP JUMPDEST PUSH1 0x0 DUP1 PUSH1 0x0 DUP1 PUSH1 0x80 DUP6 DUP8 SUB SLT ISZERO PUSH3 0xE9 JUMPI PUSH1 0x0 DUP1 REVERT JUMPDEST DUP5 MLOAD PUSH1 0x1 PUSH1 0x1 PUSH1 0x40 SHL SUB DUP1 DUP3 GT ISZERO PUSH3 0x101 JUMPI PUSH1 0x0 DUP1 REVERT JUMPDEST DUP2 DUP8 ADD SWAP2 POP DUP8 PUSH1 0x1F DUP4 ADD SLT PUSH3 0x116 JUMPI PUSH1 0x0 DUP1 REVERT JUMPDEST DUP2 MLOAD DUP2 DUP2 GT ISZERO PUSH3 0x12B JUMPI PUSH3 0x12B PUSH3 0x9F JUMP JUMPDEST PUSH1 0x40 MLOAD PUSH1 0x1F DUP3 ADD PUSH1 0x1F NOT SWAP1 DUP2 AND PUSH1 0x3F ADD AND DUP2 ADD SWAP1 DUP4 DUP3 GT DUP2 DUP4 LT OR ISZERO PUSH3 0x156 JUMPI PUSH3 0x156 PUSH3 0x9F JUMP JUMPDEST DUP2 PUSH1 0x40 MSTORE DUP3 DUP2 MSTORE PUSH1 0x20 SWAP4 POP DUP11 DUP5 DUP5 DUP8 ADD ADD GT ISZERO PUSH3 0x173 JUMPI PUSH1 0x0 DUP1 REVERT JUMPDEST PUSH1 0x0 SWAP2 POP JUMPDEST DUP3 DUP3 LT ISZERO PUSH3 0x197 JUMPI DUP5 DUP3 ADD DUP5 ADD MLOAD DUP2 DUP4 ADD DUP6 ADD MSTORE SWAP1 DUP4 ADD SWAP1 PUSH3 0x178 JUMP JUMPDEST PUSH1 0x0 DUP5 DUP5 DUP4 ADD ADD MSTORE DUP1 SWAP9 POP POP POP POP PUSH3 0x1B2 DUP2 DUP9 ADD PUSH3 0xB5 JUMP JUMPDEST SWAP5 POP POP POP PUSH3 0x1C4 PUSH1 0x40 DUP7 ADD PUSH3 0xB5 JUMP JUMPDEST SWAP2 POP PUSH3 0x1D4 PUSH1 0x60 DUP7 ADD PUSH3 0xB5 JUMP JUMPDEST SWAP1 POP SWAP3 SWAP6 SWAP2 SWAP5 POP SWAP3 POP JUMP JUMPDEST PUSH1 0x1 DUP2 DUP2 SHR SWAP1 DUP3 AND DUP1 PUSH3 0x1F4 JUMPI PUSH1 0x7F DUP3 AND SWAP2 POP JUMPDEST PUSH1 0x20 DUP3 LT DUP2 SUB PUSH3 0x215 JUMPI PUSH4 0x4E487B71 PUSH1 0xE0 SHL PUSH1 0x0 MSTORE PUSH1 0x22 PUSH1 0x4 MSTORE PUSH1 0x24 PUSH1 0x0 REVERT JUMPDEST POP SWAP2 SWAP1 POP JUMP JUMPDEST PUSH1 0x1F DUP3 GT ISZERO PUSH3 0x269 JUMPI PUSH1 0x0 DUP2 DUP2 MSTORE PUSH1 0x20 DUP2 KECCAK256 PUSH1 0x1F DUP6 ADD PUSH1 0x5 SHR DUP2 ADD PUSH1 0x20 DUP7 LT ISZERO PUSH3 0x244 JUMPI POP DUP1 JUMPDEST PUSH1 0x1F DUP6 ADD PUSH1 0x5 SHR DUP3 ADD SWAP2 POP JUMPDEST DUP2 DUP2 LT ISZERO PUSH3 0x265 JUMPI DUP3 DUP2 SSTORE PUSH1 0x1 ADD PUSH3 0x250 JUMP JUMPDEST POP POP POP JUMPDEST POP POP POP JUMP JUMPDEST DUP2 MLOAD PUSH1 0x1 PUSH1 0x1 PUSH1 0x40 SHL SUB DUP2 GT ISZERO PUSH3 0x28A JUMPI PUSH3 0x28A PUSH3 0x9F JUMP JUMPDEST PUSH3 0x2A2 DUP2 PUSH3 0x29B DUP5 SLOAD PUSH3 0x1DF JUMP JUMPDEST DUP5 PUSH3 0x21B JUMP JUMPDEST PUSH1 0x20 DUP1 PUSH1 0x1F DUP4 GT PUSH1 0x1 DUP2 EQ PUSH3 0x2DA JUMPI PUSH1 0x0 DUP5 ISZERO PUSH3 0x2C1 JUMPI POP DUP6 DUP4 ADD MLOAD JUMPDEST PUSH1 0x0 NOT PUSH1 0x3 DUP7 SWAP1 SHL SHR NOT AND PUSH1 0x1 DUP6 SWAP1 SHL OR DUP6 SSTORE PUSH3 0x265 JUMP JUMPDEST PUSH1 0x0 DUP6 DUP2 MSTORE PUSH1 0x20 DUP2 KECCAK256 PUSH1 0x1F NOT DUP7 AND SWAP2 JUMPDEST DUP3 DUP2 LT ISZERO PUSH3 0x30B JUMPI DUP9 DUP7 ADD MLOAD DUP3 SSTORE SWAP5 DUP5 ADD SWAP5 PUSH1 0x1 SWAP1 SWAP2 ADD SWAP1 DUP5 ADD PUSH3 0x2EA JUMP JUMPDEST POP DUP6 DUP3 LT ISZERO PUSH3 0x32A JUMPI DUP8 DUP6 ADD MLOAD PUSH1 0x0 NOT PUSH1 0x3 DUP9 SWAP1 SHL PUSH1 0xF8 AND SHR NOT AND DUP2 SSTORE JUMPDEST POP POP POP POP POP PUSH1 0x1 SWAP1 DUP2 SHL ADD SWAP1 SSTORE POP JUMP JUMPDEST PUSH1 0x80 MLOAD PUSH1 0xA0 MLOAD PUSH1 0xC0 MLOAD PUSH2 0x3C6F PUSH3 0x451 PUSH1 0x0 CODECOPY PUSH1 0x0 DUP2 DUP2 PUSH2 0x1006 ADD MSTORE DUP2 DUP2 PUSH2 0x10A6 ADD MSTORE DUP2 DUP2 PUSH2 0x13B3 ADD MSTORE DUP2 DUP2 PUSH2 0x147B ADD MSTORE DUP2 DUP2 PUSH2 0x154C ADD MSTORE DUP2 DUP2 PUSH2 0x15F5 ADD MSTORE DUP2 DUP2 PUSH2 0x1D21 ADD MSTORE DUP2 DUP2 PUSH2 0x1DC1 ADD MSTORE DUP2 DUP2 PUSH2 0x26FA ADD MSTORE PUSH2 0x27A2 ADD MSTORE PUSH1 0x0 DUP2 DUP2 PUSH2 0x697 ADD MSTORE DUP2 DUP2 PUSH2 0xD0D ADD MSTORE DUP2 DUP2 PUSH2 0x138B ADD MSTORE DUP2 DUP2 PUSH2 0x1453 ADD MSTORE DUP2 DUP2 PUSH2 0x151D ADD MSTORE DUP2 DUP2 PUSH2 0x15C6 ADD MSTORE DUP2 DUP2 PUSH2 0x1691 ADD MSTORE DUP2 DUP2 PUSH2 0x192D ADD MSTORE DUP2 DUP2 PUSH2 0x1E39 ADD MSTORE DUP2 DUP2 PUSH2 0x201D ADD MSTORE DUP2 DUP2 PUSH2 0x21E5 ADD MSTORE DUP2 DUP2 PUSH2 0x2234 ADD MSTORE PUSH2 0x23C5 ADD MSTORE PUSH1 0x0 DUP2 DUP2 PUSH2 0x546 ADD MSTORE DUP2 DUP2 PUSH2 0xBAF ADD MSTORE DUP2 DUP2 PUSH2 0xEBD ADD MSTORE DUP2 DUP2 PUSH2 0xFDE ADD MSTORE DUP2 DUP2 PUSH2 0x1077 ADD MSTORE DUP2 DUP2 PUSH2 0x142B ADD MSTORE DUP2 DUP2 PUSH2 0x14F5 ADD MSTORE DUP2 DUP2 PUSH2 0x1CF9 ADD MSTORE DUP2 DUP2 PUSH2 0x1D92 ADD MSTORE DUP2 DUP2 PUSH2 0x20F4 ADD MSTORE DUP2 DUP2 PUSH2 0x22B2 ADD MSTORE DUP2 DUP2 PUSH2 0x248C ADD MSTORE PUSH2 0x2773 ADD MSTORE PUSH2 0x3C6F PUSH1 0x0 RETURN INVALID PUSH1 0x80 PUSH1 0x40 MSTORE CALLVALUE DUP1 ISZERO PUSH2 0x10 JUMPI PUSH1 0x0 DUP1 REVERT JUMPDEST POP PUSH1 0x4 CALLDATASIZE LT PUSH2 0x289 JUMPI PUSH1 0x0 CALLDATALOAD PUSH1 0xE0 SHR DUP1 PUSH4 0x89C2BB1F GT PUSH2 0x15C JUMPI DUP1 PUSH4 0xC0A6026C GT PUSH2 0xCE JUMPI DUP1 PUSH4 0xE755DDD7 GT PUSH2 0x87 JUMPI DUP1 PUSH4 0xE755DDD7 EQ PUSH2 0x6E9 JUMPI DUP1 PUSH4 0xE985E9C5 EQ PUSH2 0x6FC JUMPI DUP1 PUSH4 0xF0D8100A EQ PUSH2 0x2D7 JUMPI DUP1 PUSH4 0xF23A6E61 EQ PUSH2 0x738 JUMPI DUP1 PUSH4 0xF242432A EQ PUSH2 0x757 JUMPI DUP1 PUSH4 0xFCBC669A EQ PUSH2 0x76A JUMPI PUSH1 0x0 DUP1 REVERT JUMPDEST DUP1 PUSH4 0xC0A6026C EQ PUSH2 0x662 JUMPI DUP1 PUSH4 0xC3653010 EQ PUSH2 0x675 JUMPI DUP1 PUSH4 0xC55DAE63 EQ PUSH2 0x695 JUMPI DUP1 PUSH4 0xD3B7811B EQ PUSH2 0x6BB JUMPI DUP1 PUSH4 0xE2BBB158 EQ PUSH2 0x6CE JUMPI DUP1 PUSH4 0xE5328E06 EQ PUSH2 0x6E1 JUMPI PUSH1 0x0 DUP1 REVERT JUMPDEST DUP1 PUSH4 0x9A3CEE8E GT PUSH2 0x120 JUMPI DUP1 PUSH4 0x9A3CEE8E EQ PUSH2 0x5B6 JUMPI DUP1 PUSH4 0xA22CB465 EQ PUSH2 0x5BE JUMPI DUP1 PUSH4 0xA53E17B0 EQ PUSH2 0x5D1 JUMPI DUP1 PUSH4 0xA8743022 EQ PUSH2 0x5F4 JUMPI DUP1 PUSH4 0xABAC75E1 EQ PUSH2 0x607 JUMPI DUP1 PUSH4 0xBC197C81 EQ PUSH2 0x62A JUMPI PUSH1 0x0 DUP1 REVERT JUMPDEST DUP1 PUSH4 0x89C2BB1F EQ PUSH2 0x4FB JUMPI DUP1 PUSH4 0x8C3526C2 EQ PUSH2 0x51B JUMPI DUP1 PUSH4 0x8DA5CB5B EQ PUSH2 0x544 JUMPI DUP1 PUSH4 0x8F0DBF77 EQ PUSH2 0x57E JUMPI DUP1 PUSH4 0x932A8DE0 EQ PUSH2 0x5A3 JUMPI PUSH1 0x0 DUP1 REVERT JUMPDEST DUP1 PUSH4 0x39E3AF9B GT PUSH2 0x200 JUMPI DUP1 PUSH4 0x70876C98 GT PUSH2 0x1B9 JUMPI DUP1 PUSH4 0x70876C98 EQ PUSH2 0x465 JUMPI DUP1 PUSH4 0x77E2A08B EQ PUSH2 0x478 JUMPI DUP1 PUSH4 0x7A41984B EQ PUSH2 0x48B JUMPI DUP1 PUSH4 0x7CBC2373 EQ PUSH2 0x4AE JUMPI DUP1 PUSH4 0x82AFD23B EQ PUSH2 0x4C1 JUMPI DUP1 PUSH4 0x88BDC083 EQ PUSH2 0x4E8 JUMPI PUSH1 0x0 DUP1 REVERT JUMPDEST DUP1 PUSH4 0x39E3AF9B EQ PUSH2 0x3CC JUMPI DUP1 PUSH4 0x441A3E70 EQ PUSH2 0x3DF JUMPI DUP1 PUSH4 0x4E1273F4 EQ PUSH2 0x3F2 JUMPI DUP1 PUSH4 0x549493BB EQ PUSH2 0x412 JUMPI DUP1 PUSH4 0x6567DC4D EQ PUSH2 0x43F JUMPI DUP1 PUSH4 0x6FF80D93 EQ PUSH2 0x452 JUMPI PUSH1 0x0 DUP1 REVERT JUMPDEST DUP1 PUSH4 0xE89341C GT PUSH2 0x252 JUMPI DUP1 PUSH4 0xE89341C EQ PUSH2 0x33B JUMPI DUP1 PUSH4 0x14F29493 EQ PUSH2 0x35B JUMPI DUP1 PUSH4 0x2B096926 EQ PUSH2 0x36E JUMPI DUP1 PUSH4 0x2EB2C2D6 EQ PUSH2 0x383 JUMPI DUP1 PUSH4 0x2F3AD61F EQ PUSH2 0x396 JUMPI DUP1 PUSH4 0x3097AFB8 EQ PUSH2 0x3B9 JUMPI PUSH1 0x0 DUP1 REVERT JUMPDEST DUP1 PUSH3 0xFDD58E EQ PUSH2 0x28E JUMPI DUP1 PUSH4 0x1FFC9A7 EQ PUSH2 0x2B4 JUMPI DUP1 PUSH4 0x2159497 EQ PUSH2 0x2D7 JUMPI DUP1 PUSH4 0x8913CE8 EQ PUSH2 0x2F7 JUMPI DUP1 PUSH4 0x9149020 EQ PUSH2 0x30A JUMPI JUMPDEST PUSH1 0x0 DUP1 REVERT JUMPDEST PUSH2 0x2A1 PUSH2 0x29C CALLDATASIZE PUSH1 0x4 PUSH2 0x3166 JUMP JUMPDEST PUSH2 0x77D JUMP JUMPDEST PUSH1 0x40 MLOAD SWAP1 DUP2 MSTORE PUSH1 0x20 ADD JUMPDEST PUSH1 0x40 MLOAD DUP1 SWAP2 SUB SWAP1 RETURN JUMPDEST PUSH2 0x2C7 PUSH2 0x2C2 CALLDATASIZE PUSH1 0x4 PUSH2 0x31A9 JUMP JUMPDEST PUSH2 0x816 JUMP JUMPDEST PUSH1 0x40 MLOAD SWAP1 ISZERO ISZERO DUP2 MSTORE PUSH1 0x20 ADD PUSH2 0x2AB JUMP JUMPDEST PUSH2 0x2A1 PUSH2 0x2E5 CALLDATASIZE PUSH1 0x4 PUSH2 0x31C6 JUMP JUMPDEST PUSH1 0x0 SWAP1 DUP2 MSTORE PUSH1 0x7 PUSH1 0x20 MSTORE PUSH1 0x40 SWAP1 KECCAK256 SLOAD SWAP1 JUMP JUMPDEST PUSH2 0x2A1 PUSH2 0x305 CALLDATASIZE PUSH1 0x4 PUSH2 0x31C6 JUMP JUMPDEST PUSH2 0x866 JUMP JUMPDEST PUSH2 0x2C7 PUSH2 0x318 CALLDATASIZE PUSH1 0x4 PUSH2 0x31C6 JUMP JUMPDEST PUSH1 0x0 SWAP1 DUP2 MSTORE PUSH1 0x4 PUSH1 0x20 SWAP1 DUP2 MSTORE PUSH1 0x40 DUP1 DUP4 KECCAK256 PUSH1 0x8 ADD SLOAD PUSH1 0x5 SWAP1 SWAP3 MSTORE SWAP1 SWAP2 KECCAK256 SLOAD LT ISZERO SWAP1 JUMP JUMPDEST PUSH2 0x34E PUSH2 0x349 CALLDATASIZE PUSH1 0x4 PUSH2 0x31C6 JUMP JUMPDEST PUSH2 0x882 JUMP JUMPDEST PUSH1 0x40 MLOAD PUSH2 0x2AB SWAP2 SWAP1 PUSH2 0x3225 JUMP JUMPDEST PUSH2 0x2A1 PUSH2 0x369 CALLDATASIZE PUSH1 0x4 PUSH2 0x31C6 JUMP JUMPDEST PUSH2 0x916 JUMP JUMPDEST PUSH2 0x381 PUSH2 0x37C CALLDATASIZE PUSH1 0x4 PUSH2 0x31C6 JUMP JUMPDEST PUSH2 0x93D JUMP JUMPDEST STOP JUMPDEST PUSH2 0x381 PUSH2 0x391 CALLDATASIZE PUSH1 0x4 PUSH2 0x3384 JUMP JUMPDEST PUSH2 0xADF JUMP JUMPDEST PUSH2 0x2C7 PUSH2 0x3A4 CALLDATASIZE PUSH1 0x4 PUSH2 0x31C6 JUMP JUMPDEST PUSH1 0x0 SWAP1 DUP2 MSTORE PUSH1 0xA PUSH1 0x20 MSTORE PUSH1 0x40 SWAP1 KECCAK256 SLOAD PUSH1 0xFF AND SWAP1 JUMP JUMPDEST PUSH2 0x2C7 PUSH2 0x3C7 CALLDATASIZE PUSH1 0x4 PUSH2 0x31C6 JUMP JUMPDEST PUSH2 0xB2B JUMP JUMPDEST PUSH2 0x2C7 PUSH2 0x3DA CALLDATASIZE PUSH1 0x4 PUSH2 0x31C6 JUMP JUMPDEST PUSH2 0xB66 JUMP JUMPDEST PUSH2 0x381 PUSH2 0x3ED CALLDATASIZE PUSH1 0x4 PUSH2 0x342E JUMP JUMPDEST PUSH2 0xBA4 JUMP JUMPDEST PUSH2 0x405 PUSH2 0x400 CALLDATASIZE PUSH1 0x4 PUSH2 0x3450 JUMP JUMPDEST PUSH2 0xD88 JUMP JUMPDEST PUSH1 0x40 MLOAD PUSH2 0x2AB SWAP2 SWAP1 PUSH2 0x3556 JUMP JUMPDEST PUSH2 0x2C7 PUSH2 0x420 CALLDATASIZE PUSH1 0x4 PUSH2 0x31C6 JUMP JUMPDEST PUSH1 0x0 SWAP1 DUP2 MSTORE PUSH1 0x5 PUSH1 0x20 SWAP1 DUP2 MSTORE PUSH1 0x40 DUP1 DUP4 KECCAK256 SLOAD PUSH1 0x6 SWAP1 SWAP3 MSTORE SWAP1 SWAP2 KECCAK256 SLOAD EQ SWAP1 JUMP JUMPDEST PUSH2 0x381 PUSH2 0x44D CALLDATASIZE PUSH1 0x4 PUSH2 0x31C6 JUMP JUMPDEST PUSH2 0xEB2 JUMP JUMPDEST PUSH2 0x2C7 PUSH2 0x460 CALLDATASIZE PUSH1 0x4 PUSH2 0x31C6 JUMP JUMPDEST PUSH2 0x114A JUMP JUMPDEST PUSH2 0x381 PUSH2 0x473 CALLDATASIZE PUSH1 0x4 PUSH2 0x342E JUMP JUMPDEST PUSH2 0x1184 JUMP JUMPDEST PUSH2 0x2A1 PUSH2 0x486 CALLDATASIZE PUSH1 0x4 PUSH2 0x31C6 JUMP JUMPDEST PUSH2 0x1706 JUMP JUMPDEST PUSH2 0x2C7 PUSH2 0x499 CALLDATASIZE PUSH1 0x4 PUSH2 0x31C6 JUMP JUMPDEST PUSH1 0x0 SWAP1 DUP2 MSTORE PUSH1 0xB PUSH1 0x20 MSTORE PUSH1 0x40 SWAP1 KECCAK256 SLOAD PUSH1 0xFF AND SWAP1 JUMP JUMPDEST PUSH2 0x381 PUSH2 0x4BC CALLDATASIZE PUSH1 0x4 PUSH2 0x342E JUMP JUMPDEST PUSH2 0x177D JUMP JUMPDEST PUSH2 0x2C7 PUSH2 0x4CF CALLDATASIZE PUSH1 0x4 PUSH2 0x31C6 JUMP JUMPDEST PUSH1 0x0 SWAP1 DUP2 MSTORE PUSH1 0x4 PUSH1 0x20 DUP2 SWAP1 MSTORE PUSH1 0x40 SWAP1 SWAP2 KECCAK256 ADD SLOAD TIMESTAMP GT ISZERO SWAP1 JUMP JUMPDEST PUSH2 0x2A1 PUSH2 0x4F6 CALLDATASIZE PUSH1 0x4 PUSH2 0x31C6 JUMP JUMPDEST PUSH2 0x19ED JUMP JUMPDEST PUSH2 0x2A1 PUSH2 0x509 CALLDATASIZE PUSH1 0x4 PUSH2 0x31C6 JUMP JUMPDEST PUSH1 0x0 SWAP1 DUP2 MSTORE PUSH1 0xE PUSH1 0x20 MSTORE PUSH1 0x40 SWAP1 KECCAK256 SLOAD SWAP1 JUMP JUMPDEST PUSH2 0x52E PUSH2 0x529 CALLDATASIZE PUSH1 0x4 PUSH2 0x31C6 JUMP JUMPDEST PUSH2 0x1A0A JUMP JUMPDEST PUSH1 0x40 MLOAD PUSH2 0x2AB SWAP11 SWAP10 SWAP9 SWAP8 SWAP7 SWAP6 SWAP5 SWAP4 SWAP3 SWAP2 SWAP1 PUSH2 0x3569 JUMP JUMPDEST PUSH32 0x0 JUMPDEST PUSH1 0x40 MLOAD PUSH1 0x1 PUSH1 0x1 PUSH1 0xA0 SHL SUB SWAP1 SWAP2 AND DUP2 MSTORE PUSH1 0x20 ADD PUSH2 0x2AB JUMP JUMPDEST PUSH2 0x2C7 PUSH2 0x58C CALLDATASIZE PUSH1 0x4 PUSH2 0x31C6 JUMP JUMPDEST PUSH1 0x0 SWAP1 DUP2 MSTORE PUSH1 0x4 PUSH1 0x20 MSTORE PUSH1 0x40 SWAP1 KECCAK256 PUSH1 0x3 ADD SLOAD TIMESTAMP GT SWAP1 JUMP JUMPDEST PUSH2 0x2A1 PUSH2 0x5B1 CALLDATASIZE PUSH1 0x4 PUSH2 0x31C6 JUMP JUMPDEST PUSH2 0x1B7E JUMP JUMPDEST PUSH2 0x2A1 PUSH2 0x1BA5 JUMP JUMPDEST PUSH2 0x381 PUSH2 0x5CC CALLDATASIZE PUSH1 0x4 PUSH2 0x35D1 JUMP JUMPDEST PUSH2 0x1BC1 JUMP JUMPDEST PUSH2 0x2C7 PUSH2 0x5DF CALLDATASIZE PUSH1 0x4 PUSH2 0x31C6 JUMP JUMPDEST PUSH1 0x0 SWAP1 DUP2 MSTORE PUSH1 0xF PUSH1 0x20 MSTORE PUSH1 0x40 SWAP1 KECCAK256 SLOAD PUSH1 0xFF AND SWAP1 JUMP JUMPDEST PUSH2 0x381 PUSH2 0x602 CALLDATASIZE PUSH1 0x4 PUSH2 0x31C6 JUMP JUMPDEST PUSH2 0x1BD0 JUMP JUMPDEST PUSH2 0x2A1 PUSH2 0x615 CALLDATASIZE PUSH1 0x4 PUSH2 0x31C6 JUMP JUMPDEST PUSH1 0x0 SWAP1 DUP2 MSTORE PUSH1 0x4 PUSH1 0x20 MSTORE PUSH1 0x40 SWAP1 KECCAK256 PUSH1 0x9 ADD SLOAD SWAP1 JUMP JUMPDEST PUSH2 0x649 PUSH2 0x638 CALLDATASIZE PUSH1 0x4 PUSH2 0x3384 JUMP JUMPDEST PUSH4 0xBC197C81 PUSH1 0xE0 SHL SWAP6 SWAP5 POP POP POP POP POP JUMP JUMPDEST PUSH1 0x40 MLOAD PUSH1 0x1 PUSH1 0x1 PUSH1 0xE0 SHL SUB NOT SWAP1 SWAP2 AND DUP2 MSTORE PUSH1 0x20 ADD PUSH2 0x2AB JUMP JUMPDEST PUSH2 0x381 PUSH2 0x670 CALLDATASIZE PUSH1 0x4 PUSH2 0x31C6 JUMP JUMPDEST PUSH2 0x1EF8 JUMP JUMPDEST PUSH2 0x2A1 PUSH2 0x683 CALLDATASIZE PUSH1 0x4 PUSH2 0x31C6 JUMP JUMPDEST PUSH1 0x0 SWAP1 DUP2 MSTORE PUSH1 0xD PUSH1 0x20 MSTORE PUSH1 0x40 SWAP1 KECCAK256 SLOAD SWAP1 JUMP JUMPDEST PUSH32 0x0 PUSH2 0x566 JUMP JUMPDEST PUSH2 0x2A1 PUSH2 0x6C9 CALLDATASIZE PUSH1 0x4 PUSH2 0x31C6 JUMP JUMPDEST PUSH2 0x20CC JUMP JUMPDEST PUSH2 0x381 PUSH2 0x6DC CALLDATASIZE PUSH1 0x4 PUSH2 0x342E JUMP JUMPDEST PUSH2 0x20E9 JUMP JUMPDEST PUSH2 0x2A1 PUSH2 0x221C JUMP JUMPDEST PUSH2 0x381 PUSH2 0x6F7 CALLDATASIZE PUSH1 0x4 PUSH2 0x31C6 JUMP JUMPDEST PUSH2 0x22A7 JUMP JUMPDEST PUSH2 0x2C7 PUSH2 0x70A CALLDATASIZE PUSH1 0x4 PUSH2 0x3608 JUMP JUMPDEST PUSH1 0x1 PUSH1 0x1 PUSH1 0xA0 SHL SUB SWAP2 DUP3 AND PUSH1 0x0 SWAP1 DUP2 MSTORE PUSH1 0x1 PUSH1 0x20 SWAP1 DUP2 MSTORE PUSH1 0x40 DUP1 DUP4 KECCAK256 SWAP4 SWAP1 SWAP5 AND DUP3 MSTORE SWAP2 SWAP1 SWAP2 MSTORE KECCAK256 SLOAD PUSH1 0xFF AND SWAP1 JUMP JUMPDEST PUSH2 0x649 PUSH2 0x746 CALLDATASIZE PUSH1 0x4 PUSH2 0x363B JUMP JUMPDEST PUSH4 0xF23A6E61 PUSH1 0xE0 SHL SWAP6 SWAP5 POP POP POP POP POP JUMP JUMPDEST PUSH2 0x381 PUSH2 0x765 CALLDATASIZE PUSH1 0x4 PUSH2 0x363B JUMP JUMPDEST PUSH2 0x243A JUMP JUMPDEST PUSH2 0x2A1 PUSH2 0x778 CALLDATASIZE PUSH1 0x4 PUSH2 0x36A0 JUMP JUMPDEST PUSH2 0x247F JUMP JUMPDEST PUSH1 0x0 PUSH1 0x1 PUSH1 0x1 PUSH1 0xA0 SHL SUB DUP4 AND PUSH2 0x7ED JUMPI PUSH1 0x40 MLOAD PUSH3 0x461BCD PUSH1 0xE5 SHL DUP2 MSTORE PUSH1 0x20 PUSH1 0x4 DUP3 ADD MSTORE PUSH1 0x2A PUSH1 0x24 DUP3 ADD MSTORE PUSH32 0x455243313135353A2061646472657373207A65726F206973206E6F7420612076 PUSH1 0x44 DUP3 ADD MSTORE PUSH10 0x30B634B21037BBB732B9 PUSH1 0xB1 SHL PUSH1 0x64 DUP3 ADD MSTORE PUSH1 0x84 ADD JUMPDEST PUSH1 0x40 MLOAD DUP1 SWAP2 SUB SWAP1 REVERT JUMPDEST POP PUSH1 0x0 DUP2 DUP2 MSTORE PUSH1 0x20 DUP2 DUP2 MSTORE PUSH1 0x40 DUP1 DUP4 KECCAK256 PUSH1 0x1 PUSH1 0x1 PUSH1 0xA0 SHL SUB DUP7 AND DUP5 MSTORE SWAP1 SWAP2 MSTORE SWAP1 KECCAK256 SLOAD JUMPDEST SWAP3 SWAP2 POP POP JUMP JUMPDEST PUSH1 0x0 PUSH1 0x1 PUSH1 0x1 PUSH1 0xE0 SHL SUB NOT DUP3 AND PUSH4 0x6CDB3D13 PUSH1 0xE1 SHL EQ DUP1 PUSH2 0x847 JUMPI POP PUSH1 0x1 PUSH1 0x1 PUSH1 0xE0 SHL SUB NOT DUP3 AND PUSH4 0x3A24D07 PUSH1 0xE2 SHL EQ JUMPDEST DUP1 PUSH2 0x810 JUMPI POP PUSH4 0x1FFC9A7 PUSH1 0xE0 SHL PUSH1 0x1 PUSH1 0x1 PUSH1 0xE0 SHL SUB NOT DUP4 AND EQ PUSH2 0x810 JUMP JUMPDEST PUSH1 0x0 DUP2 DUP2 MSTORE PUSH1 0x4 PUSH1 0x20 MSTORE PUSH1 0x40 DUP2 KECCAK256 PUSH1 0x2 ADD SLOAD PUSH2 0x810 SWAP1 TIMESTAMP PUSH2 0x375F JUMP JUMPDEST PUSH1 0x60 PUSH1 0x2 DUP1 SLOAD PUSH2 0x891 SWAP1 PUSH2 0x3772 JUMP JUMPDEST DUP1 PUSH1 0x1F ADD PUSH1 0x20 DUP1 SWAP2 DIV MUL PUSH1 0x20 ADD PUSH1 0x40 MLOAD SWAP1 DUP2 ADD PUSH1 0x40 MSTORE DUP1 SWAP3 SWAP2 SWAP1 DUP2 DUP2 MSTORE PUSH1 0x20 ADD DUP3 DUP1 SLOAD PUSH2 0x8BD SWAP1 PUSH2 0x3772 JUMP JUMPDEST DUP1 ISZERO PUSH2 0x90A JUMPI DUP1 PUSH1 0x1F LT PUSH2 0x8DF JUMPI PUSH2 0x100 DUP1 DUP4 SLOAD DIV MUL DUP4 MSTORE SWAP2 PUSH1 0x20 ADD SWAP2 PUSH2 0x90A JUMP JUMPDEST DUP3 ADD SWAP2 SWAP1 PUSH1 0x0 MSTORE PUSH1 0x20 PUSH1 0x0 KECCAK256 SWAP1 JUMPDEST DUP2 SLOAD DUP2 MSTORE SWAP1 PUSH1 0x1 ADD SWAP1 PUSH1 0x20 ADD DUP1 DUP4 GT PUSH2 0x8ED JUMPI DUP3 SWAP1 SUB PUSH1 0x1F AND DUP3 ADD SWAP2 JUMPDEST POP POP POP POP POP SWAP1 POP SWAP2 SWAP1 POP JUMP JUMPDEST PUSH1 0x0 DUP2 DUP2 MSTORE PUSH1 0x5 PUSH1 0x20 SWAP1 DUP2 MSTORE PUSH1 0x40 DUP1 DUP4 KECCAK256 SLOAD PUSH1 0x4 SWAP1 SWAP3 MSTORE DUP3 KECCAK256 PUSH1 0x1 ADD SLOAD PUSH2 0x810 SWAP2 SWAP1 PUSH2 0x37AC JUMP JUMPDEST PUSH1 0x0 DUP2 DUP2 MSTORE PUSH1 0xB PUSH1 0x20 MSTORE PUSH1 0x40 SWAP1 KECCAK256 SLOAD PUSH1 0xFF AND ISZERO DUP1 ISZERO PUSH2 0x962 JUMPI POP PUSH2 0x960 DUP2 PUSH2 0xB66 JUMP JUMPDEST ISZERO JUMPDEST DUP1 ISZERO PUSH2 0x97D JUMPI POP PUSH1 0x0 DUP2 DUP2 MSTORE PUSH1 0xA PUSH1 0x20 MSTORE PUSH1 0x40 SWAP1 KECCAK256 SLOAD PUSH1 0xFF AND ISZERO JUMPDEST PUSH2 0x9AF JUMPI PUSH1 0x40 MLOAD PUSH3 0x461BCD PUSH1 0xE5 SHL DUP2 MSTORE PUSH1 0x20 PUSH1 0x4 DUP3 ADD MSTORE PUSH1 0x3 PUSH1 0x24 DUP3 ADD MSTORE PUSH3 0x434243 PUSH1 0xE8 SHL PUSH1 0x44 DUP3 ADD MSTORE PUSH1 0x64 ADD PUSH2 0x7E4 JUMP JUMPDEST PUSH1 0x0 DUP2 DUP2 MSTORE PUSH1 0xD PUSH1 0x20 MSTORE PUSH1 0x40 SWAP1 KECCAK256 SLOAD PUSH2 0x9CB SWAP1 PUSH3 0x15180 PUSH2 0x37AC JUMP JUMPDEST PUSH2 0x9D4 DUP3 PUSH2 0x866 JUMP JUMPDEST GT PUSH2 0xA09 JUMPI PUSH1 0x40 MLOAD PUSH3 0x461BCD PUSH1 0xE5 SHL DUP2 MSTORE PUSH1 0x20 PUSH1 0x4 DUP3 ADD MSTORE PUSH1 0x5 PUSH1 0x24 DUP3 ADD MSTORE PUSH5 0x4D4F504E57 PUSH1 0xD8 SHL PUSH1 0x44 DUP3 ADD MSTORE PUSH1 0x64 ADD PUSH2 0x7E4 JUMP JUMPDEST PUSH1 0x0 DUP2 DUP2 MSTORE PUSH1 0x4 PUSH1 0x20 MSTORE PUSH1 0x40 SWAP1 KECCAK256 PUSH1 0x6 ADD SLOAD PUSH2 0xA28 SWAP1 PUSH3 0x15180 PUSH2 0x37AC JUMP JUMPDEST PUSH2 0xA31 DUP3 PUSH2 0x866 JUMP JUMPDEST PUSH1 0x0 DUP4 DUP2 MSTORE PUSH1 0x4 PUSH1 0x20 MSTORE PUSH1 0x40 SWAP1 KECCAK256 PUSH1 0x9 ADD SLOAD PUSH2 0xA4D SWAP2 SWAP1 PUSH2 0x37AC JUMP JUMPDEST PUSH2 0xA57 SWAP2 SWAP1 PUSH2 0x37C3 JUMP JUMPDEST PUSH1 0x0 DUP3 DUP2 MSTORE PUSH1 0xE PUSH1 0x20 DUP2 DUP2 MSTORE PUSH1 0x40 DUP1 DUP5 KECCAK256 SWAP5 DUP6 SSTORE PUSH1 0xF DUP3 MSTORE DUP1 DUP5 KECCAK256 DUP1 SLOAD PUSH1 0x1 PUSH1 0xFF NOT SWAP2 DUP3 AND DUP2 OR SWAP1 SWAP3 SSTORE PUSH1 0xB DUP5 MSTORE DUP3 DUP7 KECCAK256 DUP1 SLOAD SWAP1 SWAP2 AND SWAP1 SWAP2 OR SWAP1 SSTORE PUSH1 0x4 DUP3 MSTORE SWAP3 DUP4 SWAP1 KECCAK256 PUSH1 0x9 ADD SLOAD SWAP2 DUP2 MSTORE SWAP3 SLOAD DUP3 MLOAD SWAP2 DUP3 MSTORE SWAP3 DUP2 ADD SWAP3 SWAP1 SWAP3 MSTORE DUP3 SWAP2 PUSH32 0xB580A16317CF9EFA50CF987C976C3FB7DE7EAF3149B9DD5B8A576A043042F44C SWAP2 ADD PUSH1 0x40 MLOAD DUP1 SWAP2 SUB SWAP1 LOG2 POP JUMP JUMPDEST PUSH1 0x1 PUSH1 0x1 PUSH1 0xA0 SHL SUB DUP6 AND CALLER EQ DUP1 PUSH2 0xAFB JUMPI POP PUSH2 0xAFB DUP6 CALLER PUSH2 0x70A JUMP JUMPDEST PUSH2 0xB17 JUMPI PUSH1 0x40 MLOAD PUSH3 0x461BCD PUSH1 0xE5 SHL DUP2 MSTORE PUSH1 0x4 ADD PUSH2 0x7E4 SWAP1 PUSH2 0x37E5 JUMP JUMPDEST PUSH2 0xB24 DUP6 DUP6 DUP6 DUP6 DUP6 PUSH2 0x2876 JUMP JUMPDEST POP POP POP POP POP JUMP JUMPDEST PUSH1 0x0 DUP2 DUP2 MSTORE PUSH1 0x4 PUSH1 0x20 MSTORE PUSH1 0x40 DUP2 KECCAK256 PUSH1 0x3 ADD SLOAD TIMESTAMP GT DUP1 ISZERO PUSH2 0x810 JUMPI POP PUSH2 0xB4F DUP3 PUSH2 0x1706 JUMP JUMPDEST PUSH1 0x0 DUP4 DUP2 MSTORE PUSH1 0x7 PUSH1 0x20 MSTORE PUSH1 0x40 SWAP1 KECCAK256 SLOAD LT ISZERO SWAP3 SWAP2 POP POP JUMP JUMPDEST PUSH1 0x0 DUP2 DUP2 MSTORE PUSH1 0x4 PUSH1 0x20 DUP2 SWAP1 MSTORE PUSH1 0x40 DUP3 KECCAK256 ADD SLOAD TIMESTAMP GT DUP1 ISZERO PUSH2 0x810 JUMPI POP POP PUSH1 0x0 SWAP1 DUP2 MSTORE PUSH1 0x4 PUSH1 0x20 SWAP1 DUP2 MSTORE PUSH1 0x40 DUP1 DUP4 KECCAK256 PUSH1 0x8 ADD SLOAD PUSH1 0x5 SWAP1 SWAP3 MSTORE SWAP1 SWAP2 KECCAK256 SLOAD LT SWAP1 JUMP JUMPDEST CALLER PUSH1 0x1 PUSH1 0x1 PUSH1 0xA0 SHL SUB PUSH32 0x0 AND EQ PUSH2 0xBEC JUMPI PUSH1 0x40 MLOAD PUSH3 0x461BCD PUSH1 0xE5 SHL DUP2 MSTORE PUSH1 0x4 ADD PUSH2 0x7E4 SWAP1 PUSH2 0x3833 JUMP JUMPDEST PUSH1 0x0 DUP3 DUP2 MSTORE PUSH1 0x4 PUSH1 0x20 DUP2 SWAP1 MSTORE PUSH1 0x40 SWAP1 SWAP2 KECCAK256 ADD SLOAD TIMESTAMP GT DUP1 ISZERO PUSH2 0xC13 JUMPI POP PUSH2 0xC11 DUP3 PUSH2 0xB66 JUMP JUMPDEST ISZERO JUMPDEST DUP1 ISZERO PUSH2 0xC2E JUMPI POP PUSH1 0x0 DUP3 DUP2 MSTORE PUSH1 0xB PUSH1 0x20 MSTORE PUSH1 0x40 SWAP1 KECCAK256 SLOAD PUSH1 0xFF AND ISZERO JUMPDEST DUP1 ISZERO PUSH2 0xC58 JUMPI POP PUSH1 0x0 DUP3 DUP2 MSTORE PUSH1 0xA PUSH1 0x20 MSTORE PUSH1 0x40 SWAP1 KECCAK256 SLOAD PUSH1 0xFF AND DUP1 PUSH2 0xC56 JUMPI POP PUSH2 0xC56 DUP3 PUSH2 0x114A JUMP JUMPDEST ISZERO JUMPDEST PUSH2 0xC8A JUMPI PUSH1 0x40 MLOAD PUSH3 0x461BCD PUSH1 0xE5 SHL DUP2 MSTORE PUSH1 0x20 PUSH1 0x4 DUP3 ADD MSTORE PUSH1 0x3 PUSH1 0x24 DUP3 ADD MSTORE PUSH3 0x574E41 PUSH1 0xE8 SHL PUSH1 0x44 DUP3 ADD MSTORE PUSH1 0x64 ADD PUSH2 0x7E4 JUMP JUMPDEST PUSH1 0x0 DUP3 DUP2 MSTORE PUSH1 0x7 PUSH1 0x20 MSTORE PUSH1 0x40 SWAP1 KECCAK256 SLOAD DUP2 GT ISZERO PUSH2 0xCCE JUMPI PUSH1 0x40 MLOAD PUSH3 0x461BCD PUSH1 0xE5 SHL DUP2 MSTORE PUSH1 0x20 PUSH1 0x4 DUP3 ADD MSTORE PUSH1 0x3 PUSH1 0x24 DUP3 ADD MSTORE PUSH3 0x574145 PUSH1 0xE8 SHL PUSH1 0x44 DUP3 ADD MSTORE PUSH1 0x64 ADD PUSH2 0x7E4 JUMP JUMPDEST PUSH1 0x0 DUP3 DUP2 MSTORE PUSH1 0x7 PUSH1 0x20 MSTORE PUSH1 0x40 DUP2 KECCAK256 DUP1 SLOAD DUP4 SWAP3 SWAP1 PUSH2 0xCEC SWAP1 DUP5 SWAP1 PUSH2 0x375F JUMP JUMPDEST SWAP1 SWAP2 SSTORE POP POP PUSH1 0x40 MLOAD PUSH4 0xA9059CBB PUSH1 0xE0 SHL DUP2 MSTORE CALLER PUSH1 0x4 DUP3 ADD MSTORE PUSH1 0x24 DUP2 ADD DUP3 SWAP1 MSTORE PUSH32 0x0 PUSH1 0x1 PUSH1 0x1 PUSH1 0xA0 SHL SUB AND SWAP1 PUSH4 0xA9059CBB SWAP1 PUSH1 0x44 ADD JUMPDEST PUSH1 0x20 PUSH1 0x40 MLOAD DUP1 DUP4 SUB DUP2 PUSH1 0x0 DUP8 GAS CALL ISZERO DUP1 ISZERO PUSH2 0xD5F JUMPI RETURNDATASIZE PUSH1 0x0 DUP1 RETURNDATACOPY RETURNDATASIZE PUSH1 0x0 REVERT JUMPDEST POP POP POP POP PUSH1 0x40 MLOAD RETURNDATASIZE PUSH1 0x1F NOT PUSH1 0x1F DUP3 ADD AND DUP3 ADD DUP1 PUSH1 0x40 MSTORE POP DUP2 ADD SWAP1 PUSH2 0xD83 SWAP2 SWAP1 PUSH2 0x3850 JUMP JUMPDEST POP POP POP JUMP JUMPDEST PUSH1 0x60 DUP2 MLOAD DUP4 MLOAD EQ PUSH2 0xDED JUMPI PUSH1 0x40 MLOAD PUSH3 0x461BCD PUSH1 0xE5 SHL DUP2 MSTORE PUSH1 0x20 PUSH1 0x4 DUP3 ADD MSTORE PUSH1 0x29 PUSH1 0x24 DUP3 ADD MSTORE PUSH32 0x455243313135353A206163636F756E747320616E6420696473206C656E677468 PUSH1 0x44 DUP3 ADD MSTORE PUSH9 0x40DAD2E6DAC2E8C6D PUSH1 0xBB SHL PUSH1 0x64 DUP3 ADD MSTORE PUSH1 0x84 ADD PUSH2 0x7E4 JUMP JUMPDEST PUSH1 0x0 DUP4 MLOAD PUSH8 0xFFFFFFFFFFFFFFFF DUP2 GT ISZERO PUSH2 0xE09 JUMPI PUSH2 0xE09 PUSH2 0x3238 JUMP JUMPDEST PUSH1 0x40 MLOAD SWAP1 DUP1 DUP3 MSTORE DUP1 PUSH1 0x20 MUL PUSH1 0x20 ADD DUP3 ADD PUSH1 0x40 MSTORE DUP1 ISZERO PUSH2 0xE32 JUMPI DUP2 PUSH1 0x20 ADD PUSH1 0x20 DUP3 MUL DUP1 CALLDATASIZE DUP4 CALLDATACOPY ADD SWAP1 POP JUMPDEST POP SWAP1 POP PUSH1 0x0 JUMPDEST DUP5 MLOAD DUP2 LT ISZERO PUSH2 0xEAA JUMPI PUSH2 0xE7D DUP6 DUP3 DUP2 MLOAD DUP2 LT PUSH2 0xE56 JUMPI PUSH2 0xE56 PUSH2 0x386D JUMP JUMPDEST PUSH1 0x20 MUL PUSH1 0x20 ADD ADD MLOAD DUP6 DUP4 DUP2 MLOAD DUP2 LT PUSH2 0xE70 JUMPI PUSH2 0xE70 PUSH2 0x386D JUMP JUMPDEST PUSH1 0x20 MUL PUSH1 0x20 ADD ADD MLOAD PUSH2 0x77D JUMP JUMPDEST DUP3 DUP3 DUP2 MLOAD DUP2 LT PUSH2 0xE8F JUMPI PUSH2 0xE8F PUSH2 0x386D JUMP JUMPDEST PUSH1 0x20 SWAP1 DUP2 MUL SWAP2 SWAP1 SWAP2 ADD ADD MSTORE PUSH2 0xEA3 DUP2 PUSH2 0x3883 JUMP JUMPDEST SWAP1 POP PUSH2 0xE38 JUMP JUMPDEST POP SWAP4 SWAP3 POP POP POP JUMP JUMPDEST CALLER PUSH1 0x1 PUSH1 0x1 PUSH1 0xA0 SHL SUB PUSH32 0x0 AND EQ PUSH2 0xEFA JUMPI PUSH1 0x40 MLOAD PUSH3 0x461BCD PUSH1 0xE5 SHL DUP2 MSTORE PUSH1 0x4 ADD PUSH2 0x7E4 SWAP1 PUSH2 0x3833 JUMP JUMPDEST PUSH1 0x0 DUP2 DUP2 MSTORE PUSH1 0xB PUSH1 0x20 MSTORE PUSH1 0x40 SWAP1 KECCAK256 SLOAD PUSH1 0xFF AND ISZERO DUP1 ISZERO PUSH2 0xF28 JUMPI POP PUSH1 0x0 DUP2 DUP2 MSTORE PUSH1 0xA PUSH1 0x20 MSTORE PUSH1 0x40 SWAP1 KECCAK256 SLOAD PUSH1 0xFF AND ISZERO JUMPDEST DUP1 ISZERO PUSH2 0xF49 JUMPI POP PUSH2 0xF38 DUP2 PUSH2 0x1706 JUMP JUMPDEST PUSH1 0x0 DUP3 DUP2 MSTORE PUSH1 0x7 PUSH1 0x20 MSTORE PUSH1 0x40 SWAP1 KECCAK256 SLOAD LT JUMPDEST PUSH2 0xF7D JUMPI PUSH1 0x40 MLOAD PUSH3 0x461BCD PUSH1 0xE5 SHL DUP2 MSTORE PUSH1 0x20 PUSH1 0x4 DUP3 ADD MSTORE PUSH1 0x5 PUSH1 0x24 DUP3 ADD MSTORE PUSH5 0x504D444E41 PUSH1 0xD8 SHL PUSH1 0x44 DUP3 ADD MSTORE PUSH1 0x64 ADD PUSH2 0x7E4 JUMP JUMPDEST PUSH1 0x0 DUP2 DUP2 MSTORE PUSH1 0x7 PUSH1 0x20 SWAP1 DUP2 MSTORE PUSH1 0x40 DUP1 DUP4 KECCAK256 SLOAD PUSH1 0x5 SWAP1 SWAP3 MSTORE SWAP1 SWAP2 KECCAK256 SLOAD PUSH2 0xFA2 SWAP1 DUP3 PUSH2 0x37C3 JUMP JUMPDEST PUSH1 0x0 DUP4 DUP2 MSTORE PUSH1 0x8 PUSH1 0x20 SWAP1 DUP2 MSTORE PUSH1 0x40 DUP1 DUP4 KECCAK256 SWAP4 SWAP1 SWAP4 SSTORE PUSH1 0xA SWAP1 MSTORE DUP2 SWAP1 KECCAK256 DUP1 SLOAD PUSH1 0xFF NOT AND PUSH1 0x1 OR SWAP1 SSTORE MLOAD PUSH4 0x6D71C16B PUSH1 0xE1 SHL DUP2 MSTORE PUSH1 0x1 PUSH1 0x1 PUSH1 0xA0 SHL SUB PUSH32 0x0 DUP2 AND PUSH1 0x4 DUP4 ADD MSTORE PUSH32 0x0 AND SWAP1 PUSH4 0xDAE382D6 SWAP1 PUSH1 0x24 ADD PUSH1 0x0 PUSH1 0x40 MLOAD DUP1 DUP4 SUB DUP2 PUSH1 0x0 DUP8 DUP1 EXTCODESIZE ISZERO DUP1 ISZERO PUSH2 0x104A JUMPI PUSH1 0x0 DUP1 REVERT JUMPDEST POP GAS CALL ISZERO DUP1 ISZERO PUSH2 0x105E JUMPI RETURNDATASIZE PUSH1 0x0 DUP1 RETURNDATACOPY RETURNDATASIZE PUSH1 0x0 REVERT JUMPDEST POP POP PUSH1 0x40 MLOAD PUSH4 0x1A0A14F9 PUSH1 0xE3 SHL DUP2 MSTORE PUSH1 0x1 PUSH1 0x1 PUSH1 0xA0 SHL SUB PUSH32 0x0 DUP2 AND PUSH1 0x4 DUP4 ADD MSTORE PUSH1 0x1 PUSH1 0x24 DUP4 ADD MSTORE PUSH32 0x0 AND SWAP3 POP PUSH4 0xD050A7C8 SWAP2 POP PUSH1 0x44 ADD PUSH1 0x0 PUSH1 0x40 MLOAD DUP1 DUP4 SUB DUP2 PUSH1 0x0 DUP8 DUP1 EXTCODESIZE ISZERO DUP1 ISZERO PUSH2 0x10EC JUMPI PUSH1 0x0 DUP1 REVERT JUMPDEST POP GAS CALL ISZERO DUP1 ISZERO PUSH2 0x1100 JUMPI RETURNDATASIZE PUSH1 0x0 DUP1 RETURNDATACOPY RETURNDATASIZE PUSH1 0x0 REVERT JUMPDEST POP POP POP POP DUP2 PUSH32 0xC4F17A65D54873D57229EA5F59C4DDEC592D095BC17581372676402C8228B9CD PUSH2 0x112F DUP5 PUSH2 0x1706 JUMP JUMPDEST PUSH1 0x40 DUP1 MLOAD SWAP2 DUP3 MSTORE PUSH1 0x20 DUP3 ADD DUP6 SWAP1 MSTORE ADD PUSH1 0x40 MLOAD DUP1 SWAP2 SUB SWAP1 LOG2 POP POP JUMP JUMPDEST PUSH1 0x0 DUP2 DUP2 MSTORE PUSH1 0x4 PUSH1 0x20 MSTORE PUSH1 0x40 DUP2 KECCAK256 PUSH1 0x3 ADD SLOAD TIMESTAMP GT DUP1 ISZERO PUSH2 0x810 JUMPI POP PUSH2 0x116E DUP3 PUSH2 0x1706 JUMP JUMPDEST PUSH1 0x0 DUP4 DUP2 MSTORE PUSH1 0x7 PUSH1 0x20 MSTORE PUSH1 0x40 SWAP1 KECCAK256 SLOAD LT SWAP3 SWAP2 POP POP JUMP JUMPDEST PUSH1 0x0 DUP3 DUP2 MSTORE PUSH1 0x4 PUSH1 0x20 DUP2 SWAP1 MSTORE PUSH1 0x40 SWAP1 SWAP2 KECCAK256 ADD SLOAD TIMESTAMP GT ISZERO PUSH2 0x11CB JUMPI PUSH1 0x40 MLOAD PUSH3 0x461BCD PUSH1 0xE5 SHL DUP2 MSTORE PUSH1 0x20 PUSH1 0x4 DUP3 ADD MSTORE PUSH1 0x2 PUSH1 0x24 DUP3 ADD MSTORE PUSH2 0x24A1 PUSH1 0xF1 SHL PUSH1 0x44 DUP3 ADD MSTORE PUSH1 0x64 ADD PUSH2 0x7E4 JUMP JUMPDEST DUP1 PUSH2 0x11D5 DUP4 PUSH2 0x1B7E JUMP JUMPDEST LT ISZERO PUSH2 0x1208 JUMPI PUSH1 0x40 MLOAD PUSH3 0x461BCD PUSH1 0xE5 SHL DUP2 MSTORE PUSH1 0x20 PUSH1 0x4 DUP3 ADD MSTORE PUSH1 0x2 PUSH1 0x24 DUP3 ADD MSTORE PUSH2 0x4951 PUSH1 0xF0 SHL PUSH1 0x44 DUP3 ADD MSTORE PUSH1 0x64 ADD PUSH2 0x7E4 JUMP JUMPDEST PUSH1 0x0 DUP3 DUP2 MSTORE PUSH1 0x4 PUSH1 0x20 MSTORE PUSH1 0x40 DUP1 DUP3 KECCAK256 DUP2 MLOAD PUSH2 0x140 DUP2 ADD SWAP1 SWAP3 MSTORE DUP1 SLOAD DUP3 SWAP1 DUP3 SWAP1 PUSH2 0x1230 SWAP1 PUSH2 0x3772 JUMP JUMPDEST DUP1 PUSH1 0x1F ADD PUSH1 0x20 DUP1 SWAP2 DIV MUL PUSH1 0x20 ADD PUSH1 0x40 MLOAD SWAP1 DUP2 ADD PUSH1 0x40 MSTORE DUP1 SWAP3 SWAP2 SWAP1 DUP2 DUP2 MSTORE PUSH1 0x20 ADD DUP3 DUP1 SLOAD PUSH2 0x125C SWAP1 PUSH2 0x3772 JUMP JUMPDEST DUP1 ISZERO PUSH2 0x12A9 JUMPI DUP1 PUSH1 0x1F LT PUSH2 0x127E JUMPI PUSH2 0x100 DUP1 DUP4 SLOAD DIV MUL DUP4 MSTORE SWAP2 PUSH1 0x20 ADD SWAP2 PUSH2 0x12A9 JUMP JUMPDEST DUP3 ADD SWAP2 SWAP1 PUSH1 0x0 MSTORE PUSH1 0x20 PUSH1 0x0 KECCAK256 SWAP1 JUMPDEST DUP2 SLOAD DUP2 MSTORE SWAP1 PUSH1 0x1 ADD SWAP1 PUSH1 0x20 ADD DUP1 DUP4 GT PUSH2 0x128C JUMPI DUP3 SWAP1 SUB PUSH1 0x1F AND DUP3 ADD SWAP2 JUMPDEST POP POP POP POP POP DUP2 MSTORE PUSH1 0x20 ADD PUSH1 0x1 DUP3 ADD SLOAD DUP2 MSTORE PUSH1 0x20 ADD PUSH1 0x2 DUP3 ADD SLOAD DUP2 MSTORE PUSH1 0x20 ADD PUSH1 0x3 DUP3 ADD SLOAD DUP2 MSTORE PUSH1 0x20 ADD PUSH1 0x4 DUP3 ADD SLOAD DUP2 MSTORE PUSH1 0x20 ADD PUSH1 0x5 DUP3 ADD SLOAD DUP2 MSTORE PUSH1 0x20 ADD PUSH1 0x6 DUP3 ADD SLOAD DUP2 MSTORE PUSH1 0x20 ADD PUSH1 0x7 DUP3 ADD SLOAD DUP2 MSTORE PUSH1 0x20 ADD PUSH1 0x8 DUP3 ADD SLOAD DUP2 MSTORE PUSH1 0x20 ADD PUSH1 0x9 DUP3 ADD SLOAD DUP2 MSTORE POP POP SWAP1 POP PUSH1 0x0 DUP2 PUSH1 0x20 ADD MLOAD DUP4 PUSH2 0x1320 SWAP2 SWAP1 PUSH2 0x37AC JUMP JUMPDEST SWAP1 POP DUP3 PUSH1 0x5 PUSH1 0x0 DUP7 DUP2 MSTORE PUSH1 0x20 ADD SWAP1 DUP2 MSTORE PUSH1 0x20 ADD PUSH1 0x0 KECCAK256 PUSH1 0x0 DUP3 DUP3 SLOAD PUSH2 0x1345 SWAP2 SWAP1 PUSH2 0x389C JUMP JUMPDEST SWAP1 SWAP2 SSTORE POP POP PUSH1 0x0 DUP5 DUP2 MSTORE PUSH1 0x7 PUSH1 0x20 MSTORE PUSH1 0x40 DUP2 KECCAK256 DUP1 SLOAD DUP4 SWAP3 SWAP1 PUSH2 0x1368 SWAP1 DUP5 SWAP1 PUSH2 0x389C JUMP JUMPDEST SWAP1 SWAP2 SSTORE POP POP PUSH1 0x40 MLOAD PUSH4 0x576FF163 PUSH1 0xE0 SHL DUP2 MSTORE PUSH1 0x4 DUP2 ADD DUP3 SWAP1 MSTORE PUSH1 0x1 PUSH1 0x1 PUSH1 0xA0 SHL SUB PUSH32 0x0 DUP2 AND PUSH1 0x24 DUP4 ADD MSTORE PUSH32 0x0 AND SWAP1 PUSH4 0x576FF163 SWAP1 PUSH1 0x44 ADD PUSH1 0x0 PUSH1 0x40 MLOAD DUP1 DUP4 SUB DUP2 PUSH1 0x0 DUP8 DUP1 EXTCODESIZE ISZERO DUP1 ISZERO PUSH2 0x13F7 JUMPI PUSH1 0x0 DUP1 REVERT JUMPDEST POP GAS CALL ISZERO DUP1 ISZERO PUSH2 0x140B JUMPI RETURNDATASIZE PUSH1 0x0 DUP1 RETURNDATACOPY RETURNDATASIZE PUSH1 0x0 REVERT JUMPDEST POP POP PUSH1 0x40 MLOAD PUSH4 0xB8C2E4F3 PUSH1 0xE0 SHL DUP2 MSTORE PUSH1 0x4 DUP2 ADD DUP5 SWAP1 MSTORE PUSH1 0x1 PUSH1 0x1 PUSH1 0xA0 SHL SUB PUSH32 0x0 DUP2 AND PUSH1 0x24 DUP4 ADD MSTORE PUSH32 0x0 DUP2 AND PUSH1 0x44 DUP4 ADD MSTORE PUSH32 0x0 AND SWAP3 POP PUSH4 0xB8C2E4F3 SWAP2 POP PUSH1 0x64 ADD PUSH1 0x0 PUSH1 0x40 MLOAD DUP1 DUP4 SUB DUP2 PUSH1 0x0 DUP8 DUP1 EXTCODESIZE ISZERO DUP1 ISZERO PUSH2 0x14C1 JUMPI PUSH1 0x0 DUP1 REVERT JUMPDEST POP GAS CALL ISZERO DUP1 ISZERO PUSH2 0x14D5 JUMPI RETURNDATASIZE PUSH1 0x0 DUP1 RETURNDATACOPY RETURNDATASIZE PUSH1 0x0 REVERT JUMPDEST POP POP PUSH1 0x40 MLOAD PUSH4 0x7DB79A3D PUSH1 0xE0 SHL DUP2 MSTORE PUSH1 0x4 DUP2 ADD DUP5 SWAP1 MSTORE PUSH1 0x1 PUSH1 0x1 PUSH1 0xA0 SHL SUB PUSH32 0x0 DUP2 AND PUSH1 0x24 DUP4 ADD MSTORE PUSH32 0x0 DUP2 AND PUSH1 0x44 DUP4 ADD MSTORE PUSH1 0x1 PUSH1 0x64 DUP4 ADD MSTORE PUSH32 0x0 AND SWAP3 POP PUSH4 0x7DB79A3D SWAP2 POP PUSH1 0x84 ADD PUSH1 0x0 PUSH1 0x40 MLOAD DUP1 DUP4 SUB DUP2 PUSH1 0x0 DUP8 DUP1 EXTCODESIZE ISZERO DUP1 ISZERO PUSH2 0x1592 JUMPI PUSH1 0x0 DUP1 REVERT JUMPDEST POP GAS CALL ISZERO DUP1 ISZERO PUSH2 0x15A6 JUMPI RETURNDATASIZE PUSH1 0x0 DUP1 RETURNDATACOPY RETURNDATASIZE PUSH1 0x0 REVERT JUMPDEST POP POP PUSH1 0x40 MLOAD PUSH4 0x585A6FD5 PUSH1 0xE1 SHL DUP2 MSTORE PUSH1 0x4 DUP2 ADD DUP5 SWAP1 MSTORE PUSH1 0x1 PUSH1 0x1 PUSH1 0xA0 SHL SUB PUSH32 0x0 DUP2 AND PUSH1 0x24 DUP4 ADD MSTORE PUSH1 0x1 PUSH1 0x44 DUP4 ADD MSTORE PUSH32 0x0 AND SWAP3 POP PUSH4 0xB0B4DFAA SWAP2 POP PUSH1 0x64 ADD PUSH1 0x0 PUSH1 0x40 MLOAD DUP1 DUP4 SUB DUP2 PUSH1 0x0 DUP8 DUP1 EXTCODESIZE ISZERO DUP1 ISZERO PUSH2 0x163B JUMPI PUSH1 0x0 DUP1 REVERT JUMPDEST POP GAS CALL ISZERO DUP1 ISZERO PUSH2 0x164F JUMPI RETURNDATASIZE PUSH1 0x0 DUP1 RETURNDATACOPY RETURNDATASIZE PUSH1 0x0 REVERT JUMPDEST POP POP POP POP PUSH2 0x166F ADDRESS CALLER DUP7 DUP7 PUSH1 0x40 MLOAD DUP1 PUSH1 0x20 ADD PUSH1 0x40 MSTORE DUP1 PUSH1 0x0 DUP2 MSTORE POP PUSH2 0x243A JUMP JUMPDEST PUSH1 0x40 MLOAD PUSH4 0x23B872DD PUSH1 0xE0 SHL DUP2 MSTORE CALLER PUSH1 0x4 DUP3 ADD MSTORE ADDRESS PUSH1 0x24 DUP3 ADD MSTORE PUSH1 0x44 DUP2 ADD DUP3 SWAP1 MSTORE PUSH32 0x0 PUSH1 0x1 PUSH1 0x1 PUSH1 0xA0 SHL SUB AND SWAP1 PUSH4 0x23B872DD SWAP1 PUSH1 0x64 ADD PUSH1 0x20 PUSH1 0x40 MLOAD DUP1 DUP4 SUB DUP2 PUSH1 0x0 DUP8 GAS CALL ISZERO DUP1 ISZERO PUSH2 0x16E2 JUMPI RETURNDATASIZE PUSH1 0x0 DUP1 RETURNDATACOPY RETURNDATASIZE PUSH1 0x0 REVERT JUMPDEST POP POP POP POP PUSH1 0x40 MLOAD RETURNDATASIZE PUSH1 0x1F NOT PUSH1 0x1F DUP3 ADD AND DUP3 ADD DUP1 PUSH1 0x40 MSTORE POP DUP2 ADD SWAP1 PUSH2 0xB24 SWAP2 SWAP1 PUSH2 0x3850 JUMP JUMPDEST PUSH1 0x0 DUP2 DUP2 MSTORE PUSH1 0x4 PUSH1 0x20 SWAP1 DUP2 MSTORE PUSH1 0x40 DUP1 DUP4 KECCAK256 PUSH1 0x9 ADD SLOAD PUSH1 0xF SWAP1 SWAP3 MSTORE DUP3 KECCAK256 SLOAD PUSH1 0xFF AND ISZERO PUSH2 0x173C JUMPI POP PUSH1 0x0 DUP3 DUP2 MSTORE PUSH1 0xE PUSH1 0x20 MSTORE PUSH1 0x40 SWAP1 KECCAK256 SLOAD JUMPDEST PUSH8 0xDE0B6B3A7640000 DUP2 PUSH2 0x174F DUP6 PUSH2 0x916 JUMP JUMPDEST PUSH2 0x1759 SWAP2 SWAP1 PUSH2 0x37AC JUMP JUMPDEST PUSH2 0x1763 SWAP2 SWAP1 PUSH2 0x37C3 JUMP JUMPDEST PUSH2 0x176C DUP5 PUSH2 0x916 JUMP JUMPDEST PUSH2 0x1776 SWAP2 SWAP1 PUSH2 0x389C JUMP JUMPDEST SWAP4 SWAP3 POP POP POP JUMP JUMPDEST DUP1 PUSH2 0x1788 CALLER DUP5 PUSH2 0x77D JUMP JUMPDEST LT ISZERO PUSH2 0x17BB JUMPI PUSH1 0x40 MLOAD PUSH3 0x461BCD PUSH1 0xE5 SHL DUP2 MSTORE PUSH1 0x20 PUSH1 0x4 DUP3 ADD MSTORE PUSH1 0x2 PUSH1 0x24 DUP3 ADD MSTORE PUSH2 0x4951 PUSH1 0xF0 SHL PUSH1 0x44 DUP3 ADD MSTORE PUSH1 0x64 ADD PUSH2 0x7E4 JUMP JUMPDEST PUSH1 0x0 DUP3 DUP2 MSTORE PUSH1 0xB PUSH1 0x20 MSTORE PUSH1 0x40 SWAP1 KECCAK256 SLOAD PUSH1 0xFF AND DUP1 PUSH2 0x17DC JUMPI POP PUSH2 0x17DC DUP3 PUSH2 0xB66 JUMP JUMPDEST DUP1 PUSH2 0x17F5 JUMPI POP PUSH1 0x0 DUP3 DUP2 MSTORE PUSH1 0xA PUSH1 0x20 MSTORE PUSH1 0x40 SWAP1 KECCAK256 SLOAD PUSH1 0xFF AND JUMPDEST PUSH2 0x1827 JUMPI PUSH1 0x40 MLOAD PUSH3 0x461BCD PUSH1 0xE5 SHL DUP2 MSTORE PUSH1 0x20 PUSH1 0x4 DUP3 ADD MSTORE PUSH1 0x3 PUSH1 0x24 DUP3 ADD MSTORE PUSH3 0x524E41 PUSH1 0xE8 SHL PUSH1 0x44 DUP3 ADD MSTORE PUSH1 0x64 ADD PUSH2 0x7E4 JUMP JUMPDEST PUSH1 0x0 DUP3 DUP2 MSTORE PUSH1 0xB PUSH1 0x20 MSTORE PUSH1 0x40 DUP2 KECCAK256 SLOAD DUP2 SWAP1 PUSH1 0xFF AND ISZERO PUSH2 0x1857 JUMPI POP POP PUSH1 0x0 DUP3 DUP2 MSTORE PUSH1 0x9 PUSH1 0x20 MSTORE PUSH1 0x40 DUP2 KECCAK256 SLOAD SWAP1 PUSH2 0x18AC JUMP JUMPDEST PUSH2 0x1860 DUP5 PUSH2 0xB66 JUMP JUMPDEST ISZERO PUSH2 0x1881 JUMPI POP POP PUSH1 0x0 DUP3 DUP2 MSTORE PUSH1 0x4 PUSH1 0x20 MSTORE PUSH1 0x40 SWAP1 KECCAK256 PUSH1 0x1 SWAP1 DUP2 ADD SLOAD SWAP1 PUSH2 0x18AC JUMP JUMPDEST PUSH1 0x0 DUP5 DUP2 MSTORE PUSH1 0xA PUSH1 0x20 MSTORE PUSH1 0x40 SWAP1 KECCAK256 SLOAD PUSH1 0xFF AND ISZERO PUSH2 0x289 JUMPI POP POP PUSH1 0x0 DUP3 DUP2 MSTORE PUSH1 0x8 PUSH1 0x20 MSTORE PUSH1 0x40 SWAP1 KECCAK256 SLOAD PUSH1 0x2 JUMPDEST PUSH2 0x18B7 CALLER DUP6 DUP6 PUSH2 0x2A53 JUMP JUMPDEST PUSH1 0x0 DUP5 DUP2 MSTORE PUSH1 0x6 PUSH1 0x20 MSTORE PUSH1 0x40 DUP2 KECCAK256 DUP1 SLOAD DUP6 SWAP3 SWAP1 PUSH2 0x18D5 SWAP1 DUP5 SWAP1 PUSH2 0x389C JUMP JUMPDEST SWAP1 SWAP2 SSTORE POP PUSH1 0x0 SWAP1 POP PUSH2 0x18E7 DUP4 DUP6 PUSH2 0x37AC JUMP JUMPDEST SWAP1 POP DUP1 PUSH1 0x7 PUSH1 0x0 DUP8 DUP2 MSTORE PUSH1 0x20 ADD SWAP1 DUP2 MSTORE PUSH1 0x20 ADD PUSH1 0x0 KECCAK256 PUSH1 0x0 DUP3 DUP3 SLOAD PUSH2 0x190C SWAP2 SWAP1 PUSH2 0x375F JUMP JUMPDEST SWAP1 SWAP2 SSTORE POP POP PUSH1 0x40 MLOAD PUSH4 0xA9059CBB PUSH1 0xE0 SHL DUP2 MSTORE CALLER PUSH1 0x4 DUP3 ADD MSTORE PUSH1 0x24 DUP2 ADD DUP3 SWAP1 MSTORE PUSH32 0x0 PUSH1 0x1 PUSH1 0x1 PUSH1 0xA0 SHL SUB AND SWAP1 PUSH4 0xA9059CBB SWAP1 PUSH1 0x44 ADD PUSH1 0x20 PUSH1 0x40 MLOAD DUP1 DUP4 SUB DUP2 PUSH1 0x0 DUP8 GAS CALL ISZERO DUP1 ISZERO PUSH2 0x197E JUMPI RETURNDATASIZE PUSH1 0x0 DUP1 RETURNDATACOPY RETURNDATASIZE PUSH1 0x0 REVERT JUMPDEST POP POP POP POP PUSH1 0x40 MLOAD RETURNDATASIZE PUSH1 0x1F NOT PUSH1 0x1F DUP3 ADD AND DUP3 ADD DUP1 PUSH1 0x40 MSTORE POP DUP2 ADD SWAP1 PUSH2 0x19A2 SWAP2 SWAP1 PUSH2 0x3850 JUMP JUMPDEST POP PUSH1 0x40 DUP1 MLOAD CALLER DUP2 MSTORE PUSH1 0x20 DUP2 ADD DUP7 SWAP1 MSTORE SWAP1 DUP2 ADD DUP4 SWAP1 MSTORE DUP6 SWAP1 PUSH32 0xA5851B0172FDAFD3DAFE0E52CE051747548A4C642A2F22793C01FAF228E13062 SWAP1 PUSH1 0x60 ADD PUSH1 0x40 MLOAD DUP1 SWAP2 SUB SWAP1 LOG2 POP POP POP POP POP JUMP JUMPDEST PUSH1 0x0 DUP2 DUP2 MSTORE PUSH1 0x4 PUSH1 0x20 DUP2 SWAP1 MSTORE PUSH1 0x40 DUP3 KECCAK256 ADD SLOAD PUSH2 0x810 SWAP1 TIMESTAMP SWAP1 PUSH2 0x375F JUMP JUMPDEST PUSH1 0x60 PUSH1 0x0 DUP1 PUSH1 0x0 DUP1 PUSH1 0x0 DUP1 PUSH1 0x0 DUP1 PUSH1 0x0 DUP1 PUSH1 0x4 PUSH1 0x0 DUP14 DUP2 MSTORE PUSH1 0x20 ADD SWAP1 DUP2 MSTORE PUSH1 0x20 ADD PUSH1 0x0 KECCAK256 PUSH1 0x40 MLOAD DUP1 PUSH2 0x140 ADD PUSH1 0x40 MSTORE SWAP1 DUP2 PUSH1 0x0 DUP3 ADD DUP1 SLOAD PUSH2 0x1A4A SWAP1 PUSH2 0x3772 JUMP JUMPDEST DUP1 PUSH1 0x1F ADD PUSH1 0x20 DUP1 SWAP2 DIV MUL PUSH1 0x20 ADD PUSH1 0x40 MLOAD SWAP1 DUP2 ADD PUSH1 0x40 MSTORE DUP1 SWAP3 SWAP2 SWAP1 DUP2 DUP2 MSTORE PUSH1 0x20 ADD DUP3 DUP1 SLOAD PUSH2 0x1A76 SWAP1 PUSH2 0x3772 JUMP JUMPDEST DUP1 ISZERO PUSH2 0x1AC3 JUMPI DUP1 PUSH1 0x1F LT PUSH2 0x1A98 JUMPI PUSH2 0x100 DUP1 DUP4 SLOAD DIV MUL DUP4 MSTORE SWAP2 PUSH1 0x20 ADD SWAP2 PUSH2 0x1AC3 JUMP JUMPDEST DUP3 ADD SWAP2 SWAP1 PUSH1 0x0 MSTORE PUSH1 0x20 PUSH1 0x0 KECCAK256 SWAP1 JUMPDEST DUP2 SLOAD DUP2 MSTORE SWAP1 PUSH1 0x1 ADD SWAP1 PUSH1 0x20 ADD DUP1 DUP4 GT PUSH2 0x1AA6 JUMPI DUP3 SWAP1 SUB PUSH1 0x1F AND DUP3 ADD SWAP2 JUMPDEST POP POP POP POP POP DUP2 MSTORE PUSH1 0x20 ADD PUSH1 0x1 DUP3 ADD SLOAD DUP2 MSTORE PUSH1 0x20 ADD PUSH1 0x2 DUP3 ADD SLOAD DUP2 MSTORE PUSH1 0x20 ADD PUSH1 0x3 DUP3 ADD SLOAD DUP2 MSTORE PUSH1 0x20 ADD PUSH1 0x4 DUP3 ADD SLOAD DUP2 MSTORE PUSH1 0x20 ADD PUSH1 0x5 DUP3 ADD SLOAD DUP2 MSTORE PUSH1 0x20 ADD PUSH1 0x6 DUP3 ADD SLOAD DUP2 MSTORE PUSH1 0x20 ADD PUSH1 0x7 DUP3 ADD SLOAD DUP2 MSTORE PUSH1 0x20 ADD PUSH1 0x8 DUP3 ADD SLOAD DUP2 MSTORE PUSH1 0x20 ADD PUSH1 0x9 DUP3 ADD SLOAD DUP2 MSTORE POP POP SWAP1 POP DUP1 PUSH1 0x0 ADD MLOAD DUP2 PUSH1 0x20 ADD MLOAD DUP3 PUSH1 0x40 ADD MLOAD DUP4 PUSH1 0x60 ADD MLOAD DUP5 PUSH1 0x80 ADD MLOAD DUP6 PUSH1 0xA0 ADD MLOAD DUP7 PUSH1 0xC0 ADD MLOAD DUP8 PUSH1 0xE0 ADD MLOAD DUP9 PUSH2 0x100 ADD MLOAD DUP10 PUSH2 0x120 ADD MLOAD SWAP11 POP SWAP11 POP SWAP11 POP SWAP11 POP SWAP11 POP SWAP11 POP SWAP11 POP SWAP11 POP SWAP11 POP SWAP11 POP POP SWAP2 SWAP4 SWAP6 SWAP8 SWAP10 POP SWAP2 SWAP4 SWAP6 SWAP8 SWAP10 JUMP JUMPDEST PUSH1 0x0 DUP2 DUP2 MSTORE PUSH1 0x5 PUSH1 0x20 SWAP1 DUP2 MSTORE PUSH1 0x40 DUP1 DUP4 KECCAK256 SLOAD PUSH1 0x4 SWAP1 SWAP3 MSTORE DUP3 KECCAK256 PUSH1 0x7 ADD SLOAD PUSH2 0x810 SWAP2 SWAP1 PUSH2 0x375F JUMP JUMPDEST PUSH1 0x0 PUSH1 0x1 PUSH2 0x1BB2 PUSH1 0x3 SLOAD SWAP1 JUMP JUMPDEST PUSH2 0x1BBC SWAP2 SWAP1 PUSH2 0x375F JUMP JUMPDEST SWAP1 POP SWAP1 JUMP JUMPDEST PUSH2 0x1BCC CALLER DUP4 DUP4 PUSH2 0x2BD4 JUMP JUMPDEST POP POP JUMP JUMPDEST PUSH1 0x0 DUP2 DUP2 MSTORE PUSH1 0xB PUSH1 0x20 MSTORE PUSH1 0x40 SWAP1 KECCAK256 SLOAD PUSH1 0xFF AND ISZERO DUP1 ISZERO PUSH2 0x1BFE JUMPI POP PUSH1 0x0 DUP2 DUP2 MSTORE PUSH1 0xA PUSH1 0x20 MSTORE PUSH1 0x40 SWAP1 KECCAK256 SLOAD PUSH1 0xFF AND ISZERO JUMPDEST DUP1 ISZERO PUSH2 0x1C0E JUMPI POP PUSH2 0x1C0E DUP2 PUSH2 0x114A JUMP JUMPDEST PUSH2 0x1C42 JUMPI PUSH1 0x40 MLOAD PUSH3 0x461BCD PUSH1 0xE5 SHL DUP2 MSTORE PUSH1 0x20 PUSH1 0x4 DUP3 ADD MSTORE PUSH1 0x5 PUSH1 0x24 DUP3 ADD MSTORE PUSH5 0x4D41444E41 PUSH1 0xD8 SHL PUSH1 0x44 DUP3 ADD MSTORE PUSH1 0x64 ADD PUSH2 0x7E4 JUMP JUMPDEST PUSH1 0x0 DUP2 DUP2 MSTORE PUSH1 0x7 PUSH1 0x20 MSTORE PUSH1 0x40 DUP2 KECCAK256 SLOAD PUSH2 0x1C5E SWAP1 PUSH2 0x3E8 SWAP1 PUSH2 0x37C3 JUMP JUMPDEST PUSH1 0x0 DUP4 DUP2 MSTORE PUSH1 0x7 PUSH1 0x20 MSTORE PUSH1 0x40 DUP2 KECCAK256 SLOAD SWAP2 SWAP3 POP SWAP1 PUSH2 0x1C7C SWAP1 DUP4 SWAP1 PUSH2 0x375F JUMP JUMPDEST PUSH1 0x0 DUP5 DUP2 MSTORE PUSH1 0x5 PUSH1 0x20 MSTORE PUSH1 0x40 SWAP1 KECCAK256 SLOAD SWAP1 SWAP2 POP PUSH2 0x1C98 SWAP1 DUP3 PUSH2 0x37C3 JUMP JUMPDEST PUSH1 0x0 DUP5 DUP2 MSTORE PUSH1 0x8 PUSH1 0x20 SWAP1 DUP2 MSTORE PUSH1 0x40 DUP1 DUP4 KECCAK256 SWAP4 SWAP1 SWAP4 SSTORE PUSH1 0x7 SWAP1 MSTORE SWAP1 DUP2 KECCAK256 DUP1 SLOAD DUP5 SWAP3 SWAP1 PUSH2 0x1CC4 SWAP1 DUP5 SWAP1 PUSH2 0x375F JUMP JUMPDEST SWAP1 SWAP2 SSTORE POP POP PUSH1 0x0 DUP4 DUP2 MSTORE PUSH1 0xA PUSH1 0x20 MSTORE PUSH1 0x40 SWAP1 DUP2 SWAP1 KECCAK256 DUP1 SLOAD PUSH1 0xFF NOT AND PUSH1 0x1 OR SWAP1 SSTORE MLOAD PUSH4 0x6D71C16B PUSH1 0xE1 SHL DUP2 MSTORE PUSH1 0x1 PUSH1 0x1 PUSH1 0xA0 SHL SUB PUSH32 0x0 DUP2 AND PUSH1 0x4 DUP4 ADD MSTORE PUSH32 0x0 AND SWAP1 PUSH4 0xDAE382D6 SWAP1 PUSH1 0x24 ADD PUSH1 0x0 PUSH1 0x40 MLOAD DUP1 DUP4 SUB DUP2 PUSH1 0x0 DUP8 DUP1 EXTCODESIZE ISZERO DUP1 ISZERO PUSH2 0x1D65 JUMPI PUSH1 0x0 DUP1 REVERT JUMPDEST POP GAS CALL ISZERO DUP1 ISZERO PUSH2 0x1D79 JUMPI RETURNDATASIZE PUSH1 0x0 DUP1 RETURNDATACOPY RETURNDATASIZE PUSH1 0x0 REVERT JUMPDEST POP POP PUSH1 0x40 MLOAD PUSH4 0x1A0A14F9 PUSH1 0xE3 SHL DUP2 MSTORE PUSH1 0x1 PUSH1 0x1 PUSH1 0xA0 SHL SUB PUSH32 0x0 DUP2 AND PUSH1 0x4 DUP4 ADD MSTORE PUSH1 0x1 PUSH1 0x24 DUP4 ADD MSTORE PUSH32 0x0 AND SWAP3 POP PUSH4 0xD050A7C8 SWAP2 POP PUSH1 0x44 ADD PUSH1 0x0 PUSH1 0x40 MLOAD DUP1 DUP4 SUB DUP2 PUSH1 0x0 DUP8 DUP1 EXTCODESIZE ISZERO DUP1 ISZERO PUSH2 0x1E07 JUMPI PUSH1 0x0 DUP1 REVERT JUMPDEST POP GAS CALL ISZERO DUP1 ISZERO PUSH2 0x1E1B JUMPI RETURNDATASIZE PUSH1 0x0 DUP1 RETURNDATACOPY RETURNDATASIZE PUSH1 0x0 REVERT JUMPDEST POP POP PUSH1 0x40 MLOAD PUSH4 0xA9059CBB PUSH1 0xE0 SHL DUP2 MSTORE CALLER PUSH1 0x4 DUP3 ADD MSTORE PUSH1 0x24 DUP2 ADD DUP6 SWAP1 MSTORE PUSH32 0x0 PUSH1 0x1 PUSH1 0x1 PUSH1 0xA0 SHL SUB AND SWAP3 POP PUSH4 0xA9059CBB SWAP2 POP PUSH1 0x44 ADD PUSH1 0x20 PUSH1 0x40 MLOAD DUP1 DUP4 SUB DUP2 PUSH1 0x0 DUP8 GAS CALL ISZERO DUP1 ISZERO PUSH2 0x1E8C JUMPI RETURNDATASIZE PUSH1 0x0 DUP1 RETURNDATACOPY RETURNDATASIZE PUSH1 0x0 REVERT JUMPDEST POP POP POP POP PUSH1 0x40 MLOAD RETURNDATASIZE PUSH1 0x1F NOT PUSH1 0x1F DUP3 ADD AND DUP3 ADD DUP1 PUSH1 0x40 MSTORE POP DUP2 ADD SWAP1 PUSH2 0x1EB0 SWAP2 SWAP1 PUSH2 0x3850 JUMP JUMPDEST POP DUP3 PUSH32 0xC4F17A65D54873D57229EA5F59C4DDEC592D095BC17581372676402C8228B9CD PUSH2 0x1EDC DUP6 PUSH2 0x1706 JUMP JUMPDEST PUSH1 0x40 DUP1 MLOAD SWAP2 DUP3 MSTORE PUSH1 0x20 DUP3 ADD DUP6 SWAP1 MSTORE ADD PUSH1 0x40 MLOAD DUP1 SWAP2 SUB SWAP1 LOG2 POP POP POP JUMP JUMPDEST PUSH1 0x0 DUP2 DUP2 MSTORE PUSH1 0xA PUSH1 0x20 MSTORE PUSH1 0x40 SWAP1 KECCAK256 SLOAD PUSH1 0xFF AND ISZERO DUP1 ISZERO PUSH2 0x1F26 JUMPI POP PUSH1 0x0 DUP2 DUP2 MSTORE PUSH1 0xB PUSH1 0x20 MSTORE PUSH1 0x40 SWAP1 KECCAK256 SLOAD PUSH1 0xFF AND ISZERO JUMPDEST DUP1 ISZERO PUSH2 0x1F36 JUMPI POP PUSH2 0x1F36 DUP2 PUSH2 0xB2B JUMP JUMPDEST PUSH2 0x1F6A JUMPI PUSH1 0x40 MLOAD PUSH3 0x461BCD PUSH1 0xE5 SHL DUP2 MSTORE PUSH1 0x20 PUSH1 0x4 DUP3 ADD MSTORE PUSH1 0x5 PUSH1 0x24 DUP3 ADD MSTORE PUSH5 0x4D41434E41 PUSH1 0xD8 SHL PUSH1 0x44 DUP3 ADD MSTORE PUSH1 0x64 ADD PUSH2 0x7E4 JUMP JUMPDEST PUSH1 0x0 PUSH2 0x1F75 DUP3 PUSH2 0x1706 JUMP JUMPDEST SWAP1 POP PUSH1 0x0 PUSH2 0x1F85 PUSH2 0x3E8 DUP4 PUSH2 0x37C3 JUMP JUMPDEST SWAP1 POP PUSH1 0x0 PUSH2 0x1F93 DUP3 DUP5 PUSH2 0x375F JUMP JUMPDEST PUSH1 0x0 DUP6 DUP2 MSTORE PUSH1 0x5 PUSH1 0x20 MSTORE PUSH1 0x40 SWAP1 KECCAK256 SLOAD SWAP1 SWAP2 POP PUSH2 0x1FAF SWAP1 DUP3 PUSH2 0x37C3 JUMP JUMPDEST PUSH1 0x0 DUP6 DUP2 MSTORE PUSH1 0x9 PUSH1 0x20 SWAP1 DUP2 MSTORE PUSH1 0x40 DUP1 DUP4 KECCAK256 SWAP4 SWAP1 SWAP4 SSTORE PUSH1 0x7 SWAP1 MSTORE SWAP1 DUP2 KECCAK256 DUP1 SLOAD DUP5 SWAP3 SWAP1 PUSH2 0x1FDB SWAP1 DUP5 SWAP1 PUSH2 0x375F JUMP JUMPDEST SWAP1 SWAP2 SSTORE POP POP PUSH1 0x0 DUP5 DUP2 MSTORE PUSH1 0xB PUSH1 0x20 MSTORE PUSH1 0x40 SWAP1 DUP2 SWAP1 KECCAK256 DUP1 SLOAD PUSH1 0xFF NOT AND PUSH1 0x1 OR SWAP1 SSTORE MLOAD PUSH4 0xA9059CBB PUSH1 0xE0 SHL DUP2 MSTORE CALLER PUSH1 0x4 DUP3 ADD MSTORE PUSH1 0x24 DUP2 ADD DUP4 SWAP1 MSTORE PUSH1 0x1 PUSH1 0x1 PUSH1 0xA0 SHL SUB PUSH32 0x0 AND SWAP1 PUSH4 0xA9059CBB SWAP1 PUSH1 0x44 ADD PUSH1 0x20 PUSH1 0x40 MLOAD DUP1 DUP4 SUB DUP2 PUSH1 0x0 DUP8 GAS CALL ISZERO DUP1 ISZERO PUSH2 0x2066 JUMPI RETURNDATASIZE PUSH1 0x0 DUP1 RETURNDATACOPY RETURNDATASIZE PUSH1 0x0 REVERT JUMPDEST POP POP POP POP PUSH1 0x40 MLOAD RETURNDATASIZE PUSH1 0x1F NOT PUSH1 0x1F DUP3 ADD AND DUP3 ADD DUP1 PUSH1 0x40 MSTORE POP DUP2 ADD SWAP1 PUSH2 0x208A SWAP2 SWAP1 PUSH2 0x3850 JUMP JUMPDEST POP PUSH1 0x40 DUP1 MLOAD DUP5 DUP2 MSTORE PUSH1 0x20 DUP2 ADD DUP4 SWAP1 MSTORE DUP6 SWAP2 PUSH32 0xAC2EEAF45D1B75AED6B3285CDA3EFB3C382CCE02BA313558BBB90BE57F8843E4 SWAP2 ADD PUSH1 0x40 MLOAD DUP1 SWAP2 SUB SWAP1 LOG2 POP POP POP POP JUMP JUMPDEST PUSH1 0x0 DUP2 DUP2 MSTORE PUSH1 0x4 PUSH1 0x20 MSTORE PUSH1 0x40 DUP2 KECCAK256 PUSH1 0x3 ADD SLOAD PUSH2 0x810 SWAP1 TIMESTAMP SWAP1 PUSH2 0x375F JUMP JUMPDEST CALLER PUSH1 0x1 PUSH1 0x1 PUSH1 0xA0 SHL SUB PUSH32 0x0 AND EQ PUSH2 0x2131 JUMPI PUSH1 0x40 MLOAD PUSH3 0x461BCD PUSH1 0xE5 SHL DUP2 MSTORE PUSH1 0x4 ADD PUSH2 0x7E4 SWAP1 PUSH2 0x3833 JUMP JUMPDEST PUSH1 0x0 DUP3 DUP2 MSTORE PUSH1 0xA PUSH1 0x20 MSTORE PUSH1 0x40 SWAP1 KECCAK256 SLOAD PUSH1 0xFF AND DUP1 PUSH2 0x2152 JUMPI POP PUSH2 0x2152 DUP3 PUSH2 0x114A JUMP JUMPDEST ISZERO DUP1 ISZERO PUSH2 0x216E JUMPI POP PUSH1 0x0 DUP3 DUP2 MSTORE PUSH1 0xB PUSH1 0x20 MSTORE PUSH1 0x40 SWAP1 KECCAK256 SLOAD PUSH1 0xFF AND ISZERO JUMPDEST PUSH2 0x21A0 JUMPI PUSH1 0x40 MLOAD PUSH3 0x461BCD PUSH1 0xE5 SHL DUP2 MSTORE PUSH1 0x20 PUSH1 0x4 DUP3 ADD MSTORE PUSH1 0x3 PUSH1 0x24 DUP3 ADD MSTORE PUSH3 0x444E41 PUSH1 0xE8 SHL PUSH1 0x44 DUP3 ADD MSTORE PUSH1 0x64 ADD PUSH2 0x7E4 JUMP JUMPDEST PUSH1 0x0 DUP3 DUP2 MSTORE PUSH1 0x7 PUSH1 0x20 MSTORE PUSH1 0x40 DUP2 KECCAK256 DUP1 SLOAD DUP4 SWAP3 SWAP1 PUSH2 0x21BE SWAP1 DUP5 SWAP1 PUSH2 0x389C JUMP JUMPDEST SWAP1 SWAP2 SSTORE POP POP PUSH1 0x40 MLOAD PUSH4 0x23B872DD PUSH1 0xE0 SHL DUP2 MSTORE CALLER PUSH1 0x4 DUP3 ADD MSTORE ADDRESS PUSH1 0x24 DUP3 ADD MSTORE PUSH1 0x44 DUP2 ADD DUP3 SWAP1 MSTORE PUSH32 0x0 PUSH1 0x1 PUSH1 0x1 PUSH1 0xA0 SHL SUB AND SWAP1 PUSH4 0x23B872DD SWAP1 PUSH1 0x64 ADD PUSH2 0xD40 JUMP JUMPDEST PUSH1 0x40 MLOAD PUSH4 0x70A08231 PUSH1 0xE0 SHL DUP2 MSTORE ADDRESS PUSH1 0x4 DUP3 ADD MSTORE PUSH1 0x0 SWAP1 PUSH32 0x0 PUSH1 0x1 PUSH1 0x1 PUSH1 0xA0 SHL SUB AND SWAP1 PUSH4 0x70A08231 SWAP1 PUSH1 0x24 ADD PUSH1 0x20 PUSH1 0x40 MLOAD DUP1 DUP4 SUB DUP2 DUP7 GAS STATICCALL ISZERO DUP1 ISZERO PUSH2 0x2283 JUMPI RETURNDATASIZE PUSH1 0x0 DUP1 RETURNDATACOPY RETURNDATASIZE PUSH1 0x0 REVERT JUMPDEST POP POP POP POP PUSH1 0x40 MLOAD RETURNDATASIZE PUSH1 0x1F NOT PUSH1 0x1F DUP3 ADD AND DUP3 ADD DUP1 PUSH1 0x40 MSTORE POP DUP2 ADD SWAP1 PUSH2 0x1BBC SWAP2 SWAP1 PUSH2 0x38AF JUMP JUMPDEST CALLER PUSH1 0x1 PUSH1 0x1 PUSH1 0xA0 SHL SUB PUSH32 0x0 AND EQ PUSH2 0x22EF JUMPI PUSH1 0x40 MLOAD PUSH3 0x461BCD PUSH1 0xE5 SHL DUP2 MSTORE PUSH1 0x4 ADD PUSH2 0x7E4 SWAP1 PUSH2 0x3833 JUMP JUMPDEST PUSH1 0x0 DUP2 DUP2 MSTORE PUSH1 0xB PUSH1 0x20 MSTORE PUSH1 0x40 SWAP1 KECCAK256 SLOAD PUSH1 0xFF AND DUP1 ISZERO PUSH2 0x2325 JUMPI POP PUSH1 0x0 DUP2 DUP2 MSTORE PUSH1 0x5 PUSH1 0x20 SWAP1 DUP2 MSTORE PUSH1 0x40 DUP1 DUP4 KECCAK256 SLOAD PUSH1 0x6 SWAP1 SWAP3 MSTORE SWAP1 SWAP2 KECCAK256 SLOAD EQ JUMPDEST PUSH2 0x2357 JUMPI PUSH1 0x40 MLOAD PUSH3 0x461BCD PUSH1 0xE5 SHL DUP2 MSTORE PUSH1 0x20 PUSH1 0x4 DUP3 ADD MSTORE PUSH1 0x3 PUSH1 0x24 DUP3 ADD MSTORE PUSH3 0x574E41 PUSH1 0xE8 SHL PUSH1 0x44 DUP3 ADD MSTORE PUSH1 0x64 ADD PUSH2 0x7E4 JUMP JUMPDEST PUSH1 0x0 DUP2 DUP2 MSTORE PUSH1 0x7 PUSH1 0x20 MSTORE PUSH1 0x40 SWAP1 KECCAK256 SLOAD PUSH2 0x2398 JUMPI PUSH1 0x40 MLOAD PUSH3 0x461BCD PUSH1 0xE5 SHL DUP2 MSTORE PUSH1 0x20 PUSH1 0x4 DUP3 ADD MSTORE PUSH1 0x3 PUSH1 0x24 DUP3 ADD MSTORE PUSH3 0x574645 PUSH1 0xE8 SHL PUSH1 0x44 DUP3 ADD MSTORE PUSH1 0x64 ADD PUSH2 0x7E4 JUMP JUMPDEST PUSH1 0x0 DUP2 DUP2 MSTORE PUSH1 0x7 PUSH1 0x20 MSTORE PUSH1 0x40 DUP1 DUP3 KECCAK256 DUP3 SWAP1 SSTORE MLOAD PUSH4 0xA9059CBB PUSH1 0xE0 SHL DUP2 MSTORE CALLER PUSH1 0x4 DUP3 ADD MSTORE PUSH1 0x24 DUP2 ADD SWAP2 SWAP1 SWAP2 MSTORE PUSH32 0x0 PUSH1 0x1 PUSH1 0x1 PUSH1 0xA0 SHL SUB AND SWAP1 PUSH4 0xA9059CBB SWAP1 PUSH1 0x44 ADD PUSH1 0x20 PUSH1 0x40 MLOAD DUP1 DUP4 SUB DUP2 PUSH1 0x0 DUP8 GAS CALL ISZERO DUP1 ISZERO PUSH2 0x2416 JUMPI RETURNDATASIZE PUSH1 0x0 DUP1 RETURNDATACOPY RETURNDATASIZE PUSH1 0x0 REVERT JUMPDEST POP POP POP POP PUSH1 0x40 MLOAD RETURNDATASIZE PUSH1 0x1F NOT PUSH1 0x1F DUP3 ADD AND DUP3 ADD DUP1 PUSH1 0x40 MSTORE POP DUP2 ADD SWAP1 PUSH2 0x1BCC SWAP2 SWAP1 PUSH2 0x3850 JUMP JUMPDEST PUSH1 0x1 PUSH1 0x1 PUSH1 0xA0 SHL SUB DUP6 AND CALLER EQ DUP1 PUSH2 0x2456 JUMPI POP PUSH2 0x2456 DUP6 CALLER PUSH2 0x70A JUMP JUMPDEST PUSH2 0x2472 JUMPI PUSH1 0x40 MLOAD PUSH3 0x461BCD PUSH1 0xE5 SHL DUP2 MSTORE PUSH1 0x4 ADD PUSH2 0x7E4 SWAP1 PUSH2 0x37E5 JUMP JUMPDEST PUSH2 0xB24 DUP6 DUP6 DUP6 DUP6 DUP6 PUSH2 0x2CB4 JUMP JUMPDEST PUSH1 0x0 CALLER PUSH1 0x1 PUSH1 0x1 PUSH1 0xA0 SHL SUB PUSH32 0x0 AND EQ PUSH2 0x24C9 JUMPI PUSH1 0x40 MLOAD PUSH3 0x461BCD PUSH1 0xE5 SHL DUP2 MSTORE PUSH1 0x4 ADD PUSH2 0x7E4 SWAP1 PUSH2 0x3833 JUMP JUMPDEST DUP9 DUP9 LT PUSH2 0x2502 JUMPI PUSH1 0x40 MLOAD PUSH3 0x461BCD PUSH1 0xE5 SHL DUP2 MSTORE PUSH1 0x20 PUSH1 0x4 DUP3 ADD MSTORE PUSH1 0x7 PUSH1 0x24 DUP3 ADD MSTORE PUSH7 0x4D505147544251 PUSH1 0xC8 SHL PUSH1 0x44 DUP3 ADD MSTORE PUSH1 0x64 ADD PUSH2 0x7E4 JUMP JUMPDEST PUSH1 0xB4 DUP5 LT ISZERO PUSH2 0x253C JUMPI PUSH1 0x40 MLOAD PUSH3 0x461BCD PUSH1 0xE5 SHL DUP2 MSTORE PUSH1 0x4 ADD PUSH2 0x7E4 SWAP1 PUSH1 0x20 DUP1 DUP3 MSTORE PUSH1 0x4 SWAP1 DUP3 ADD MSTORE PUSH4 0x4442364D PUSH1 0xE0 SHL PUSH1 0x40 DUP3 ADD MSTORE PUSH1 0x60 ADD SWAP1 JUMP JUMPDEST PUSH1 0x7 DUP4 GT ISZERO PUSH2 0x2575 JUMPI PUSH1 0x40 MLOAD PUSH3 0x461BCD PUSH1 0xE5 SHL DUP2 MSTORE PUSH1 0x20 PUSH1 0x4 DUP3 ADD MSTORE PUSH1 0x5 PUSH1 0x24 DUP3 ADD MSTORE PUSH5 0x1051104DD1 PUSH1 0xDA SHL PUSH1 0x44 DUP3 ADD MSTORE PUSH1 0x64 ADD PUSH2 0x7E4 JUMP JUMPDEST POP PUSH1 0xC DUP1 SLOAD PUSH1 0x1 DUP2 ADD SWAP1 SWAP2 SSTORE PUSH2 0x259C CALLER DUP3 DUP12 PUSH1 0x40 MLOAD DUP1 PUSH1 0x20 ADD PUSH1 0x40 MSTORE DUP1 PUSH1 0x0 DUP2 MSTORE POP PUSH2 0x2DDE JUMP JUMPDEST PUSH1 0x40 MLOAD DUP1 PUSH2 0x140 ADD PUSH1 0x40 MSTORE DUP1 DUP8 DUP8 DUP1 DUP1 PUSH1 0x1F ADD PUSH1 0x20 DUP1 SWAP2 DIV MUL PUSH1 0x20 ADD PUSH1 0x40 MLOAD SWAP1 DUP2 ADD PUSH1 0x40 MSTORE DUP1 SWAP4 SWAP3 SWAP2 SWAP1 DUP2 DUP2 MSTORE PUSH1 0x20 ADD DUP4 DUP4 DUP1 DUP3 DUP5 CALLDATACOPY PUSH1 0x0 SWAP3 ADD SWAP2 SWAP1 SWAP2 MSTORE POP POP POP SWAP1 DUP3 MSTORE POP PUSH1 0x20 DUP2 ADD DUP10 SWAP1 MSTORE TIMESTAMP PUSH1 0x40 DUP3 ADD MSTORE PUSH1 0x60 ADD PUSH2 0x25FE DUP7 PUSH3 0x15180 PUSH2 0x37AC JUMP JUMPDEST PUSH2 0x2608 SWAP1 TIMESTAMP PUSH2 0x389C JUMP JUMPDEST DUP2 MSTORE PUSH1 0x20 ADD PUSH2 0x261A DUP6 PUSH3 0x15180 PUSH2 0x37AC JUMP JUMPDEST PUSH2 0x2624 SWAP1 TIMESTAMP PUSH2 0x389C JUMP JUMPDEST DUP2 MSTORE PUSH1 0x20 DUP1 DUP3 ADD DUP7 SWAP1 MSTORE PUSH1 0x40 DUP1 DUP4 ADD DUP9 SWAP1 MSTORE PUSH1 0x60 DUP4 ADD DUP14 SWAP1 MSTORE PUSH1 0x80 DUP4 ADD DUP13 SWAP1 MSTORE PUSH1 0xA0 SWAP1 SWAP3 ADD DUP6 SWAP1 MSTORE PUSH1 0x0 DUP5 DUP2 MSTORE PUSH1 0x4 SWAP1 SWAP2 MSTORE KECCAK256 DUP2 MLOAD DUP2 SWAP1 PUSH2 0x2665 SWAP1 DUP3 PUSH2 0x390E JUMP JUMPDEST POP PUSH1 0x20 DUP3 ADD MLOAD DUP2 PUSH1 0x1 ADD SSTORE PUSH1 0x40 DUP3 ADD MLOAD DUP2 PUSH1 0x2 ADD SSTORE PUSH1 0x60 DUP3 ADD MLOAD DUP2 PUSH1 0x3 ADD SSTORE PUSH1 0x80 DUP3 ADD MLOAD DUP2 PUSH1 0x4 ADD SSTORE PUSH1 0xA0 DUP3 ADD MLOAD DUP2 PUSH1 0x5 ADD SSTORE PUSH1 0xC0 DUP3 ADD MLOAD DUP2 PUSH1 0x6 ADD SSTORE PUSH1 0xE0 DUP3 ADD MLOAD DUP2 PUSH1 0x7 ADD SSTORE PUSH2 0x100 DUP3 ADD MLOAD DUP2 PUSH1 0x8 ADD SSTORE PUSH2 0x120 DUP3 ADD MLOAD DUP2 PUSH1 0x9 ADD SSTORE SWAP1 POP POP PUSH1 0x2 DUP5 PUSH2 0x26D2 SWAP2 SWAP1 PUSH2 0x37C3 JUMP JUMPDEST PUSH1 0x0 DUP3 DUP2 MSTORE PUSH1 0xD PUSH1 0x20 MSTORE PUSH1 0x40 SWAP1 DUP2 SWAP1 KECCAK256 SWAP2 SWAP1 SWAP2 SSTORE MLOAD PUSH4 0xB54CB165 PUSH1 0xE0 SHL DUP2 MSTORE PUSH1 0x2 PUSH1 0x4 DUP3 ADD MSTORE PUSH32 0x0 PUSH1 0x1 PUSH1 0x1 PUSH1 0xA0 SHL SUB AND SWAP1 PUSH4 0xB54CB165 SWAP1 PUSH1 0x24 ADD PUSH1 0x0 PUSH1 0x40 MLOAD DUP1 DUP4 SUB DUP2 PUSH1 0x0 DUP8 DUP1 EXTCODESIZE ISZERO DUP1 ISZERO PUSH2 0x2746 JUMPI PUSH1 0x0 DUP1 REVERT JUMPDEST POP GAS CALL ISZERO DUP1 ISZERO PUSH2 0x275A JUMPI RETURNDATASIZE PUSH1 0x0 DUP1 RETURNDATACOPY RETURNDATASIZE PUSH1 0x0 REVERT JUMPDEST POP POP PUSH1 0x40 MLOAD PUSH4 0x2FA9D73D PUSH1 0xE2 SHL DUP2 MSTORE PUSH1 0x1 PUSH1 0x1 PUSH1 0xA0 SHL SUB PUSH32 0x0 DUP2 AND PUSH1 0x4 DUP4 ADD MSTORE PUSH1 0x2 PUSH1 0x24 DUP4 ADD MSTORE PUSH32 0x0 AND SWAP3 POP PUSH4 0xBEA75CF4 SWAP2 POP PUSH1 0x44 ADD PUSH1 0x0 PUSH1 0x40 MLOAD DUP1 DUP4 SUB DUP2 PUSH1 0x0 DUP8 DUP1 EXTCODESIZE ISZERO DUP1 ISZERO PUSH2 0x27E8 JUMPI PUSH1 0x0 DUP1 REVERT JUMPDEST POP GAS CALL ISZERO DUP1 ISZERO PUSH2 0x27FC JUMPI RETURNDATASIZE PUSH1 0x0 DUP1 RETURNDATACOPY RETURNDATASIZE PUSH1 0x0 REVERT JUMPDEST POP POP POP POP DUP1 PUSH32 0xF73E436C94925E1E8B2F0B16DE0A2C56AEA7FB27878F7815811BC05BC6C335E8 DUP11 DUP10 DUP6 DUP9 PUSH3 0x15180 PUSH2 0x2834 SWAP2 SWAP1 PUSH2 0x37AC JUMP JUMPDEST PUSH2 0x283E SWAP1 TIMESTAMP PUSH2 0x389C JUMP JUMPDEST PUSH1 0x40 DUP1 MLOAD SWAP5 DUP6 MSTORE PUSH1 0x20 DUP6 ADD SWAP4 SWAP1 SWAP4 MSTORE SWAP2 DUP4 ADD MSTORE PUSH1 0x60 DUP3 ADD MSTORE PUSH1 0x80 ADD PUSH1 0x40 MLOAD DUP1 SWAP2 SUB SWAP1 LOG2 SWAP9 SWAP8 POP POP POP POP POP POP POP POP JUMP JUMPDEST DUP1 SLOAD PUSH1 0x1 ADD SWAP1 SSTORE JUMP JUMPDEST DUP2 MLOAD DUP4 MLOAD EQ PUSH2 0x28D8 JUMPI PUSH1 0x40 MLOAD PUSH3 0x461BCD PUSH1 0xE5 SHL DUP2 MSTORE PUSH1 0x20 PUSH1 0x4 DUP3 ADD MSTORE PUSH1 0x28 PUSH1 0x24 DUP3 ADD MSTORE PUSH32 0x455243313135353A2069647320616E6420616D6F756E7473206C656E67746820 PUSH1 0x44 DUP3 ADD MSTORE PUSH8 0xDAD2E6DAC2E8C6D PUSH1 0xC3 SHL PUSH1 0x64 DUP3 ADD MSTORE PUSH1 0x84 ADD PUSH2 0x7E4 JUMP JUMPDEST PUSH1 0x1 PUSH1 0x1 PUSH1 0xA0 SHL SUB DUP5 AND PUSH2 0x28FE JUMPI PUSH1 0x40 MLOAD PUSH3 0x461BCD PUSH1 0xE5 SHL DUP2 MSTORE PUSH1 0x4 ADD PUSH2 0x7E4 SWAP1 PUSH2 0x39CE JUMP JUMPDEST CALLER PUSH1 0x0 JUMPDEST DUP5 MLOAD DUP2 LT ISZERO PUSH2 0x29E5 JUMPI PUSH1 0x0 DUP6 DUP3 DUP2 MLOAD DUP2 LT PUSH2 0x291F JUMPI PUSH2 0x291F PUSH2 0x386D JUMP JUMPDEST PUSH1 0x20 MUL PUSH1 0x20 ADD ADD MLOAD SWAP1 POP PUSH1 0x0 DUP6 DUP4 DUP2 MLOAD DUP2 LT PUSH2 0x293D JUMPI PUSH2 0x293D PUSH2 0x386D JUMP JUMPDEST PUSH1 0x20 SWAP1 DUP2 MUL SWAP2 SWAP1 SWAP2 ADD DUP2 ADD MLOAD PUSH1 0x0 DUP5 DUP2 MSTORE DUP1 DUP4 MSTORE PUSH1 0x40 DUP1 DUP3 KECCAK256 PUSH1 0x1 PUSH1 0x1 PUSH1 0xA0 SHL SUB DUP15 AND DUP4 MSTORE SWAP1 SWAP4 MSTORE SWAP2 SWAP1 SWAP2 KECCAK256 SLOAD SWAP1 SWAP2 POP DUP2 DUP2 LT ISZERO PUSH2 0x298D JUMPI PUSH1 0x40 MLOAD PUSH3 0x461BCD PUSH1 0xE5 SHL DUP2 MSTORE PUSH1 0x4 ADD PUSH2 0x7E4 SWAP1 PUSH2 0x3A13 JUMP JUMPDEST PUSH1 0x0 DUP4 DUP2 MSTORE PUSH1 0x20 DUP2 DUP2 MSTORE PUSH1 0x40 DUP1 DUP4 KECCAK256 PUSH1 0x1 PUSH1 0x1 PUSH1 0xA0 SHL SUB DUP15 DUP2 AND DUP6 MSTORE SWAP3 MSTORE DUP1 DUP4 KECCAK256 DUP6 DUP6 SUB SWAP1 SSTORE SWAP1 DUP12 AND DUP3 MSTORE DUP2 KECCAK256 DUP1 SLOAD DUP5 SWAP3 SWAP1 PUSH2 0x29CA SWAP1 DUP5 SWAP1 PUSH2 0x389C JUMP JUMPDEST SWAP3 POP POP DUP2 SWAP1 SSTORE POP POP POP POP DUP1 PUSH2 0x29DE SWAP1 PUSH2 0x3883 JUMP JUMPDEST SWAP1 POP PUSH2 0x2902 JUMP JUMPDEST POP DUP5 PUSH1 0x1 PUSH1 0x1 PUSH1 0xA0 SHL SUB AND DUP7 PUSH1 0x1 PUSH1 0x1 PUSH1 0xA0 SHL SUB AND DUP3 PUSH1 0x1 PUSH1 0x1 PUSH1 0xA0 SHL SUB AND PUSH32 0x4A39DC06D4C0DBC64B70AF90FD698A233A518AA5D07E595D983B8C0526C8F7FB DUP8 DUP8 PUSH1 0x40 MLOAD PUSH2 0x2A35 SWAP3 SWAP2 SWAP1 PUSH2 0x3A5D JUMP JUMPDEST PUSH1 0x40 MLOAD DUP1 SWAP2 SUB SWAP1 LOG4 PUSH2 0x2A4B DUP2 DUP8 DUP8 DUP8 DUP8 DUP8 PUSH2 0x2EE9 JUMP JUMPDEST POP POP POP POP POP POP JUMP JUMPDEST PUSH1 0x1 PUSH1 0x1 PUSH1 0xA0 SHL SUB DUP4 AND PUSH2 0x2AB5 JUMPI PUSH1 0x40 MLOAD PUSH3 0x461BCD PUSH1 0xE5 SHL DUP2 MSTORE PUSH1 0x20 PUSH1 0x4 DUP3 ADD MSTORE PUSH1 0x23 PUSH1 0x24 DUP3 ADD MSTORE PUSH32 0x455243313135353A206275726E2066726F6D20746865207A65726F2061646472 PUSH1 0x44 DUP3 ADD MSTORE PUSH3 0x657373 PUSH1 0xE8 SHL PUSH1 0x64 DUP3 ADD MSTORE PUSH1 0x84 ADD PUSH2 0x7E4 JUMP JUMPDEST CALLER PUSH1 0x0 PUSH2 0x2AC1 DUP5 PUSH2 0x3044 JUMP JUMPDEST SWAP1 POP PUSH1 0x0 PUSH2 0x2ACE DUP5 PUSH2 0x3044 JUMP JUMPDEST PUSH1 0x40 DUP1 MLOAD PUSH1 0x20 DUP1 DUP3 ADD DUP4 MSTORE PUSH1 0x0 SWAP2 DUP3 SWAP1 MSTORE DUP9 DUP3 MSTORE DUP2 DUP2 MSTORE DUP3 DUP3 KECCAK256 PUSH1 0x1 PUSH1 0x1 PUSH1 0xA0 SHL SUB DUP12 AND DUP4 MSTORE SWAP1 MSTORE KECCAK256 SLOAD SWAP1 SWAP2 POP DUP5 DUP2 LT ISZERO PUSH2 0x2B57 JUMPI PUSH1 0x40 MLOAD PUSH3 0x461BCD PUSH1 0xE5 SHL DUP2 MSTORE PUSH1 0x20 PUSH1 0x4 DUP3 ADD MSTORE PUSH1 0x24 DUP1 DUP3 ADD MSTORE PUSH32 0x455243313135353A206275726E20616D6F756E7420657863656564732062616C PUSH1 0x44 DUP3 ADD MSTORE PUSH4 0x616E6365 PUSH1 0xE0 SHL PUSH1 0x64 DUP3 ADD MSTORE PUSH1 0x84 ADD PUSH2 0x7E4 JUMP JUMPDEST PUSH1 0x0 DUP7 DUP2 MSTORE PUSH1 0x20 DUP2 DUP2 MSTORE PUSH1 0x40 DUP1 DUP4 KECCAK256 PUSH1 0x1 PUSH1 0x1 PUSH1 0xA0 SHL SUB DUP12 DUP2 AND DUP1 DUP7 MSTORE SWAP2 DUP5 MSTORE DUP3 DUP6 KECCAK256 DUP11 DUP8 SUB SWAP1 SSTORE DUP3 MLOAD DUP12 DUP2 MSTORE SWAP4 DUP5 ADD DUP11 SWAP1 MSTORE SWAP1 SWAP3 SWAP1 DUP9 AND SWAP2 PUSH32 0xC3D58168C5AE7397731D063D5BBF3D657854427343F4C083240F7AACAA2D0F62 SWAP2 ADD PUSH1 0x40 MLOAD DUP1 SWAP2 SUB SWAP1 LOG4 PUSH1 0x40 DUP1 MLOAD PUSH1 0x20 DUP2 ADD SWAP1 SWAP2 MSTORE PUSH1 0x0 SWAP1 MSTORE JUMPDEST POP POP POP POP POP POP POP JUMP JUMPDEST DUP2 PUSH1 0x1 PUSH1 0x1 PUSH1 0xA0 SHL SUB AND DUP4 PUSH1 0x1 PUSH1 0x1 PUSH1 0xA0 SHL SUB AND SUB PUSH2 0x2C47 JUMPI PUSH1 0x40 MLOAD PUSH3 0x461BCD PUSH1 0xE5 SHL DUP2 MSTORE PUSH1 0x20 PUSH1 0x4 DUP3 ADD MSTORE PUSH1 0x29 PUSH1 0x24 DUP3 ADD MSTORE PUSH32 0x455243313135353A2073657474696E6720617070726F76616C20737461747573 PUSH1 0x44 DUP3 ADD MSTORE PUSH9 0x103337B91039B2B633 PUSH1 0xB9 SHL PUSH1 0x64 DUP3 ADD MSTORE PUSH1 0x84 ADD PUSH2 0x7E4 JUMP JUMPDEST PUSH1 0x1 PUSH1 0x1 PUSH1 0xA0 SHL SUB DUP4 DUP2 AND PUSH1 0x0 DUP2 DUP2 MSTORE PUSH1 0x1 PUSH1 0x20 SWAP1 DUP2 MSTORE PUSH1 0x40 DUP1 DUP4 KECCAK256 SWAP5 DUP8 AND DUP1 DUP5 MSTORE SWAP5 DUP3 MSTORE SWAP2 DUP3 SWAP1 KECCAK256 DUP1 SLOAD PUSH1 0xFF NOT AND DUP7 ISZERO ISZERO SWAP1 DUP2 OR SWAP1 SWAP2 SSTORE SWAP2 MLOAD SWAP2 DUP3 MSTORE PUSH32 0x17307EAB39AB6107E8899845AD3D59BD9653F200F220920489CA2B5937696C31 SWAP2 ADD PUSH1 0x40 MLOAD DUP1 SWAP2 SUB SWAP1 LOG3 POP POP POP JUMP JUMPDEST PUSH1 0x1 PUSH1 0x1 PUSH1 0xA0 SHL SUB DUP5 AND PUSH2 0x2CDA JUMPI PUSH1 0x40 MLOAD PUSH3 0x461BCD PUSH1 0xE5 SHL DUP2 MSTORE PUSH1 0x4 ADD PUSH2 0x7E4 SWAP1 PUSH2 0x39CE JUMP JUMPDEST CALLER PUSH1 0x0 PUSH2 0x2CE6 DUP6 PUSH2 0x3044 JUMP JUMPDEST SWAP1 POP PUSH1 0x0 PUSH2 0x2CF3 DUP6 PUSH2 0x3044 JUMP JUMPDEST SWAP1 POP PUSH1 0x0 DUP7 DUP2 MSTORE PUSH1 0x20 DUP2 DUP2 MSTORE PUSH1 0x40 DUP1 DUP4 KECCAK256 PUSH1 0x1 PUSH1 0x1 PUSH1 0xA0 SHL SUB DUP13 AND DUP5 MSTORE SWAP1 SWAP2 MSTORE SWAP1 KECCAK256 SLOAD DUP6 DUP2 LT ISZERO PUSH2 0x2D36 JUMPI PUSH1 0x40 MLOAD PUSH3 0x461BCD PUSH1 0xE5 SHL DUP2 MSTORE PUSH1 0x4 ADD PUSH2 0x7E4 SWAP1 PUSH2 0x3A13 JUMP JUMPDEST PUSH1 0x0 DUP8 DUP2 MSTORE PUSH1 0x20 DUP2 DUP2 MSTORE PUSH1 0x40 DUP1 DUP4 KECCAK256 PUSH1 0x1 PUSH1 0x1 PUSH1 0xA0 SHL SUB DUP14 DUP2 AND DUP6 MSTORE SWAP3 MSTORE DUP1 DUP4 KECCAK256 DUP10 DUP6 SUB SWAP1 SSTORE SWAP1 DUP11 AND DUP3 MSTORE DUP2 KECCAK256 DUP1 SLOAD DUP9 SWAP3 SWAP1 PUSH2 0x2D73 SWAP1 DUP5 SWAP1 PUSH2 0x389C JUMP JUMPDEST SWAP1 SWAP2 SSTORE POP POP PUSH1 0x40 DUP1 MLOAD DUP9 DUP2 MSTORE PUSH1 0x20 DUP2 ADD DUP9 SWAP1 MSTORE PUSH1 0x1 PUSH1 0x1 PUSH1 0xA0 SHL SUB DUP1 DUP12 AND SWAP3 DUP13 DUP3 AND SWAP3 SWAP2 DUP9 AND SWAP2 PUSH32 0xC3D58168C5AE7397731D063D5BBF3D657854427343F4C083240F7AACAA2D0F62 SWAP2 ADD PUSH1 0x40 MLOAD DUP1 SWAP2 SUB SWAP1 LOG4 PUSH2 0x2DD3 DUP5 DUP11 DUP11 DUP11 DUP11 DUP11 PUSH2 0x308F JUMP JUMPDEST POP POP POP POP POP POP POP POP POP JUMP JUMPDEST PUSH1 0x1 PUSH1 0x1 PUSH1 0xA0 SHL SUB DUP5 AND PUSH2 0x2E3E JUMPI PUSH1 0x40 MLOAD PUSH3 0x461BCD PUSH1 0xE5 SHL DUP2 MSTORE PUSH1 0x20 PUSH1 0x4 DUP3 ADD MSTORE PUSH1 0x21 PUSH1 0x24 DUP3 ADD MSTORE PUSH32 0x455243313135353A206D696E7420746F20746865207A65726F20616464726573 PUSH1 0x44 DUP3 ADD MSTORE PUSH1 0x73 PUSH1 0xF8 SHL PUSH1 0x64 DUP3 ADD MSTORE PUSH1 0x84 ADD PUSH2 0x7E4 JUMP JUMPDEST CALLER PUSH1 0x0 PUSH2 0x2E4A DUP6 PUSH2 0x3044 JUMP JUMPDEST SWAP1 POP PUSH1 0x0 PUSH2 0x2E57 DUP6 PUSH2 0x3044 JUMP JUMPDEST SWAP1 POP PUSH1 0x0 DUP7 DUP2 MSTORE PUSH1 0x20 DUP2 DUP2 MSTORE PUSH1 0x40 DUP1 DUP4 KECCAK256 PUSH1 0x1 PUSH1 0x1 PUSH1 0xA0 SHL SUB DUP12 AND DUP5 MSTORE SWAP1 SWAP2 MSTORE DUP2 KECCAK256 DUP1 SLOAD DUP8 SWAP3 SWAP1 PUSH2 0x2E89 SWAP1 DUP5 SWAP1 PUSH2 0x389C JUMP JUMPDEST SWAP1 SWAP2 SSTORE POP POP PUSH1 0x40 DUP1 MLOAD DUP8 DUP2 MSTORE PUSH1 0x20 DUP2 ADD DUP8 SWAP1 MSTORE PUSH1 0x1 PUSH1 0x1 PUSH1 0xA0 SHL SUB DUP1 DUP11 AND SWAP3 PUSH1 0x0 SWAP3 SWAP2 DUP8 AND SWAP2 PUSH32 0xC3D58168C5AE7397731D063D5BBF3D657854427343F4C083240F7AACAA2D0F62 SWAP2 ADD PUSH1 0x40 MLOAD DUP1 SWAP2 SUB SWAP1 LOG4 PUSH2 0x2BCB DUP4 PUSH1 0x0 DUP10 DUP10 DUP10 DUP10 PUSH2 0x308F JUMP JUMPDEST PUSH1 0x1 PUSH1 0x1 PUSH1 0xA0 SHL SUB DUP5 AND EXTCODESIZE ISZERO PUSH2 0x2A4B JUMPI PUSH1 0x40 MLOAD PUSH4 0xBC197C81 PUSH1 0xE0 SHL DUP2 MSTORE PUSH1 0x1 PUSH1 0x1 PUSH1 0xA0 SHL SUB DUP6 AND SWAP1 PUSH4 0xBC197C81 SWAP1 PUSH2 0x2F2D SWAP1 DUP10 SWAP1 DUP10 SWAP1 DUP9 SWAP1 DUP9 SWAP1 DUP9 SWAP1 PUSH1 0x4 ADD PUSH2 0x3A8B JUMP JUMPDEST PUSH1 0x20 PUSH1 0x40 MLOAD DUP1 DUP4 SUB DUP2 PUSH1 0x0 DUP8 GAS CALL SWAP3 POP POP POP DUP1 ISZERO PUSH2 0x2F68 JUMPI POP PUSH1 0x40 DUP1 MLOAD PUSH1 0x1F RETURNDATASIZE SWAP1 DUP2 ADD PUSH1 0x1F NOT AND DUP3 ADD SWAP1 SWAP3 MSTORE PUSH2 0x2F65 SWAP2 DUP2 ADD SWAP1 PUSH2 0x3AE9 JUMP JUMPDEST PUSH1 0x1 JUMPDEST PUSH2 0x3014 JUMPI PUSH2 0x2F74 PUSH2 0x3B06 JUMP JUMPDEST DUP1 PUSH4 0x8C379A0 SUB PUSH2 0x2FAD JUMPI POP PUSH2 0x2F88 PUSH2 0x3B22 JUMP JUMPDEST DUP1 PUSH2 0x2F93 JUMPI POP PUSH2 0x2FAF JUMP JUMPDEST DUP1 PUSH1 0x40 MLOAD PUSH3 0x461BCD PUSH1 0xE5 SHL DUP2 MSTORE PUSH1 0x4 ADD PUSH2 0x7E4 SWAP2 SWAP1 PUSH2 0x3225 JUMP JUMPDEST POP JUMPDEST PUSH1 0x40 MLOAD PUSH3 0x461BCD PUSH1 0xE5 SHL DUP2 MSTORE PUSH1 0x20 PUSH1 0x4 DUP3 ADD MSTORE PUSH1 0x34 PUSH1 0x24 DUP3 ADD MSTORE PUSH32 0x455243313135353A207472616E7366657220746F206E6F6E2D45524331313535 PUSH1 0x44 DUP3 ADD MSTORE PUSH20 0x2932B1B2B4BB32B91034B6B83632B6B2B73A32B9 PUSH1 0x61 SHL PUSH1 0x64 DUP3 ADD MSTORE PUSH1 0x84 ADD PUSH2 0x7E4 JUMP JUMPDEST PUSH1 0x1 PUSH1 0x1 PUSH1 0xE0 SHL SUB NOT DUP2 AND PUSH4 0xBC197C81 PUSH1 0xE0 SHL EQ PUSH2 0x2BCB JUMPI PUSH1 0x40 MLOAD PUSH3 0x461BCD PUSH1 0xE5 SHL DUP2 MSTORE PUSH1 0x4 ADD PUSH2 0x7E4 SWAP1 PUSH2 0x3BAC JUMP JUMPDEST PUSH1 0x40 DUP1 MLOAD PUSH1 0x1 DUP1 DUP3 MSTORE DUP2 DUP4 ADD SWAP1 SWAP3 MSTORE PUSH1 0x60 SWAP2 PUSH1 0x0 SWAP2 SWAP1 PUSH1 0x20 DUP1 DUP4 ADD SWAP1 DUP1 CALLDATASIZE DUP4 CALLDATACOPY ADD SWAP1 POP POP SWAP1 POP DUP3 DUP2 PUSH1 0x0 DUP2 MLOAD DUP2 LT PUSH2 0x307E JUMPI PUSH2 0x307E PUSH2 0x386D JUMP JUMPDEST PUSH1 0x20 SWAP1 DUP2 MUL SWAP2 SWAP1 SWAP2 ADD ADD MSTORE SWAP3 SWAP2 POP POP JUMP JUMPDEST PUSH1 0x1 PUSH1 0x1 PUSH1 0xA0 SHL SUB DUP5 AND EXTCODESIZE ISZERO PUSH2 0x2A4B JUMPI PUSH1 0x40 MLOAD PUSH4 0xF23A6E61 PUSH1 0xE0 SHL DUP2 MSTORE PUSH1 0x1 PUSH1 0x1 PUSH1 0xA0 SHL SUB DUP6 AND SWAP1 PUSH4 0xF23A6E61 SWAP1 PUSH2 0x30D3 SWAP1 DUP10 SWAP1 DUP10 SWAP1 DUP9 SWAP1 DUP9 SWAP1 DUP9 SWAP1 PUSH1 0x4 ADD PUSH2 0x3BF4 JUMP JUMPDEST PUSH1 0x20 PUSH1 0x40 MLOAD DUP1 DUP4 SUB DUP2 PUSH1 0x0 DUP8 GAS CALL SWAP3 POP POP POP DUP1 ISZERO PUSH2 0x310E JUMPI POP PUSH1 0x40 DUP1 MLOAD PUSH1 0x1F RETURNDATASIZE SWAP1 DUP2 ADD PUSH1 0x1F NOT AND DUP3 ADD SWAP1 SWAP3 MSTORE PUSH2 0x310B SWAP2 DUP2 ADD SWAP1 PUSH2 0x3AE9 JUMP JUMPDEST PUSH1 0x1 JUMPDEST PUSH2 0x311A JUMPI PUSH2 0x2F74 PUSH2 0x3B06 JUMP JUMPDEST PUSH1 0x1 PUSH1 0x1 PUSH1 0xE0 SHL SUB NOT DUP2 AND PUSH4 0xF23A6E61 PUSH1 0xE0 SHL EQ PUSH2 0x2BCB JUMPI PUSH1 0x40 MLOAD PUSH3 0x461BCD PUSH1 0xE5 SHL DUP2 MSTORE PUSH1 0x4 ADD PUSH2 0x7E4 SWAP1 PUSH2 0x3BAC JUMP JUMPDEST DUP1 CALLDATALOAD PUSH1 0x1 PUSH1 0x1 PUSH1 0xA0 SHL SUB DUP2 AND DUP2 EQ PUSH2 0x3161 JUMPI PUSH1 0x0 DUP1 REVERT JUMPDEST SWAP2 SWAP1 POP JUMP JUMPDEST PUSH1 0x0 DUP1 PUSH1 0x40 DUP4 DUP6 SUB SLT ISZERO PUSH2 0x3179 JUMPI PUSH1 0x0 DUP1 REVERT JUMPDEST PUSH2 0x3182 DUP4 PUSH2 0x314A JUMP JUMPDEST SWAP5 PUSH1 0x20 SWAP4 SWAP1 SWAP4 ADD CALLDATALOAD SWAP4 POP POP POP JUMP JUMPDEST PUSH1 0x1 PUSH1 0x1 PUSH1 0xE0 SHL SUB NOT DUP2 AND DUP2 EQ PUSH2 0x31A6 JUMPI PUSH1 0x0 DUP1 REVERT JUMPDEST POP JUMP JUMPDEST PUSH1 0x0 PUSH1 0x20 DUP3 DUP5 SUB SLT ISZERO PUSH2 0x31BB JUMPI PUSH1 0x0 DUP1 REVERT JUMPDEST DUP2 CALLDATALOAD PUSH2 0x1776 DUP2 PUSH2 0x3190 JUMP JUMPDEST PUSH1 0x0 PUSH1 0x20 DUP3 DUP5 SUB SLT ISZERO PUSH2 0x31D8 JUMPI PUSH1 0x0 DUP1 REVERT JUMPDEST POP CALLDATALOAD SWAP2 SWAP1 POP JUMP JUMPDEST PUSH1 0x0 DUP2 MLOAD DUP1 DUP5 MSTORE PUSH1 0x0 JUMPDEST DUP2 DUP2 LT ISZERO PUSH2 0x3205 JUMPI PUSH1 0x20 DUP2 DUP6 ADD DUP2 ADD MLOAD DUP7 DUP4 ADD DUP3 ADD MSTORE ADD PUSH2 0x31E9 JUMP JUMPDEST POP PUSH1 0x0 PUSH1 0x20 DUP3 DUP7 ADD ADD MSTORE PUSH1 0x20 PUSH1 0x1F NOT PUSH1 0x1F DUP4 ADD AND DUP6 ADD ADD SWAP2 POP POP SWAP3 SWAP2 POP POP JUMP JUMPDEST PUSH1 0x20 DUP2 MSTORE PUSH1 0x0 PUSH2 0x1776 PUSH1 0x20 DUP4 ADD DUP5 PUSH2 0x31DF JUMP JUMPDEST PUSH4 0x4E487B71 PUSH1 0xE0 SHL PUSH1 0x0 MSTORE PUSH1 0x41 PUSH1 0x4 MSTORE PUSH1 0x24 PUSH1 0x0 REVERT JUMPDEST PUSH1 0x1F DUP3 ADD PUSH1 0x1F NOT AND DUP2 ADD PUSH8 0xFFFFFFFFFFFFFFFF DUP2 GT DUP3 DUP3 LT OR ISZERO PUSH2 0x3274 JUMPI PUSH2 0x3274 PUSH2 0x3238 JUMP JUMPDEST PUSH1 0x40 MSTORE POP POP JUMP JUMPDEST PUSH1 0x0 PUSH8 0xFFFFFFFFFFFFFFFF DUP3 GT ISZERO PUSH2 0x3295 JUMPI PUSH2 0x3295 PUSH2 0x3238 JUMP JUMPDEST POP PUSH1 0x5 SHL PUSH1 0x20 ADD SWAP1 JUMP JUMPDEST PUSH1 0x0 DUP3 PUSH1 0x1F DUP4 ADD SLT PUSH2 0x32B0 JUMPI PUSH1 0x0 DUP1 REVERT JUMPDEST DUP2 CALLDATALOAD PUSH1 0x20 PUSH2 0x32BD DUP3 PUSH2 0x327B JUMP JUMPDEST PUSH1 0x40 MLOAD PUSH2 0x32CA DUP3 DUP3 PUSH2 0x324E JUMP JUMPDEST DUP4 DUP2 MSTORE PUSH1 0x5 SWAP4 SWAP1 SWAP4 SHL DUP6 ADD DUP3 ADD SWAP3 DUP3 DUP2 ADD SWAP2 POP DUP7 DUP5 GT ISZERO PUSH2 0x32EA JUMPI PUSH1 0x0 DUP1 REVERT JUMPDEST DUP3 DUP7 ADD JUMPDEST DUP5 DUP2 LT ISZERO PUSH2 0x3305 JUMPI DUP1 CALLDATALOAD DUP4 MSTORE SWAP2 DUP4 ADD SWAP2 DUP4 ADD PUSH2 0x32EE JUMP JUMPDEST POP SWAP7 SWAP6 POP POP POP POP POP POP JUMP JUMPDEST PUSH1 0x0 DUP3 PUSH1 0x1F DUP4 ADD SLT PUSH2 0x3321 JUMPI PUSH1 0x0 DUP1 REVERT JUMPDEST DUP2 CALLDATALOAD PUSH8 0xFFFFFFFFFFFFFFFF DUP2 GT ISZERO PUSH2 0x333B JUMPI PUSH2 0x333B PUSH2 0x3238 JUMP JUMPDEST PUSH1 0x40 MLOAD PUSH2 0x3352 PUSH1 0x1F DUP4 ADD PUSH1 0x1F NOT AND PUSH1 0x20 ADD DUP3 PUSH2 0x324E JUMP JUMPDEST DUP2 DUP2 MSTORE DUP5 PUSH1 0x20 DUP4 DUP7 ADD ADD GT ISZERO PUSH2 0x3367 JUMPI PUSH1 0x0 DUP1 REVERT JUMPDEST DUP2 PUSH1 0x20 DUP6 ADD PUSH1 0x20 DUP4 ADD CALLDATACOPY PUSH1 0x0 SWAP2 DUP2 ADD PUSH1 0x20 ADD SWAP2 SWAP1 SWAP2 MSTORE SWAP4 SWAP3 POP POP POP JUMP JUMPDEST PUSH1 0x0 DUP1 PUSH1 0x0 DUP1 PUSH1 0x0 PUSH1 0xA0 DUP7 DUP9 SUB SLT ISZERO PUSH2 0x339C JUMPI PUSH1 0x0 DUP1 REVERT JUMPDEST PUSH2 0x33A5 DUP7 PUSH2 0x314A JUMP JUMPDEST SWAP5 POP PUSH2 0x33B3 PUSH1 0x20 DUP8 ADD PUSH2 0x314A JUMP JUMPDEST SWAP4 POP PUSH1 0x40 DUP7 ADD CALLDATALOAD PUSH8 0xFFFFFFFFFFFFFFFF DUP1 DUP3 GT ISZERO PUSH2 0x33D0 JUMPI PUSH1 0x0 DUP1 REVERT JUMPDEST PUSH2 0x33DC DUP10 DUP4 DUP11 ADD PUSH2 0x329F JUMP JUMPDEST SWAP5 POP PUSH1 0x60 DUP9 ADD CALLDATALOAD SWAP2 POP DUP1 DUP3 GT ISZERO PUSH2 0x33F2 JUMPI PUSH1 0x0 DUP1 REVERT JUMPDEST PUSH2 0x33FE DUP10 DUP4 DUP11 ADD PUSH2 0x329F JUMP JUMPDEST SWAP4 POP PUSH1 0x80 DUP9 ADD CALLDATALOAD SWAP2 POP DUP1 DUP3 GT ISZERO PUSH2 0x3414 JUMPI PUSH1 0x0 DUP1 REVERT JUMPDEST POP PUSH2 0x3421 DUP9 DUP3 DUP10 ADD PUSH2 0x3310 JUMP JUMPDEST SWAP2 POP POP SWAP3 SWAP6 POP SWAP3 SWAP6 SWAP1 SWAP4 POP JUMP JUMPDEST PUSH1 0x0 DUP1 PUSH1 0x40 DUP4 DUP6 SUB SLT ISZERO PUSH2 0x3441 JUMPI PUSH1 0x0 DUP1 REVERT JUMPDEST POP POP DUP1 CALLDATALOAD SWAP3 PUSH1 0x20 SWAP1 SWAP2 ADD CALLDATALOAD SWAP2 POP JUMP JUMPDEST PUSH1 0x0 DUP1 PUSH1 0x40 DUP4 DUP6 SUB SLT ISZERO PUSH2 0x3463 JUMPI PUSH1 0x0 DUP1 REVERT JUMPDEST DUP3 CALLDATALOAD PUSH8 0xFFFFFFFFFFFFFFFF DUP1 DUP3 GT ISZERO PUSH2 0x347B JUMPI PUSH1 0x0 DUP1 REVERT JUMPDEST DUP2 DUP6 ADD SWAP2 POP DUP6 PUSH1 0x1F DUP4 ADD SLT PUSH2 0x348F JUMPI PUSH1 0x0 DUP1 REVERT JUMPDEST DUP2 CALLDATALOAD PUSH1 0x20 PUSH2 0x349C DUP3 PUSH2 0x327B JUMP JUMPDEST PUSH1 0x40 MLOAD PUSH2 0x34A9 DUP3 DUP3 PUSH2 0x324E JUMP JUMPDEST DUP4 DUP2 MSTORE PUSH1 0x5 SWAP4 SWAP1 SWAP4 SHL DUP6 ADD DUP3 ADD SWAP3 DUP3 DUP2 ADD SWAP2 POP DUP10 DUP5 GT ISZERO PUSH2 0x34C9 JUMPI PUSH1 0x0 DUP1 REVERT JUMPDEST SWAP5 DUP3 ADD SWAP5 JUMPDEST DUP4 DUP7 LT ISZERO PUSH2 0x34EE JUMPI PUSH2 0x34DF DUP7 PUSH2 0x314A JUMP JUMPDEST DUP3 MSTORE SWAP5 DUP3 ADD SWAP5 SWAP1 DUP3 ADD SWAP1 PUSH2 0x34CE JUMP JUMPDEST SWAP7 POP POP DUP7 ADD CALLDATALOAD SWAP3 POP POP DUP1 DUP3 GT ISZERO PUSH2 0x3504 JUMPI PUSH1 0x0 DUP1 REVERT JUMPDEST POP PUSH2 0x3511 DUP6 DUP3 DUP7 ADD PUSH2 0x329F JUMP JUMPDEST SWAP2 POP POP SWAP3 POP SWAP3 SWAP1 POP JUMP JUMPDEST PUSH1 0x0 DUP2 MLOAD DUP1 DUP5 MSTORE PUSH1 0x20 DUP1 DUP6 ADD SWAP5 POP DUP1 DUP5 ADD PUSH1 0x0 JUMPDEST DUP4 DUP2 LT ISZERO PUSH2 0x354B JUMPI DUP2 MLOAD DUP8 MSTORE SWAP6 DUP3 ADD SWAP6 SWAP1 DUP3 ADD SWAP1 PUSH1 0x1 ADD PUSH2 0x352F JUMP JUMPDEST POP SWAP5 SWAP6 SWAP5 POP POP POP POP POP JUMP JUMPDEST PUSH1 0x20 DUP2 MSTORE PUSH1 0x0 PUSH2 0x1776 PUSH1 0x20 DUP4 ADD DUP5 PUSH2 0x351B JUMP JUMPDEST PUSH1 0x0 PUSH2 0x140 DUP1 DUP4 MSTORE PUSH2 0x357D DUP2 DUP5 ADD DUP15 PUSH2 0x31DF JUMP JUMPDEST PUSH1 0x20 DUP5 ADD SWAP13 SWAP1 SWAP13 MSTORE POP POP PUSH1 0x40 DUP2 ADD SWAP9 SWAP1 SWAP9 MSTORE PUSH1 0x60 DUP9 ADD SWAP7 SWAP1 SWAP7 MSTORE PUSH1 0x80 DUP8 ADD SWAP5 SWAP1 SWAP5 MSTORE PUSH1 0xA0 DUP7 ADD SWAP3 SWAP1 SWAP3 MSTORE PUSH1 0xC0 DUP6 ADD MSTORE PUSH1 0xE0 DUP5 ADD MSTORE PUSH2 0x100 DUP4 ADD MSTORE PUSH2 0x120 SWAP1 SWAP2 ADD MSTORE SWAP2 SWAP1 POP JUMP JUMPDEST DUP1 ISZERO ISZERO DUP2 EQ PUSH2 0x31A6 JUMPI PUSH1 0x0 DUP1 REVERT JUMPDEST PUSH1 0x0 DUP1 PUSH1 0x40 DUP4 DUP6 SUB SLT ISZERO PUSH2 0x35E4 JUMPI PUSH1 0x0 DUP1 REVERT JUMPDEST PUSH2 0x35ED DUP4 PUSH2 0x314A JUMP JUMPDEST SWAP2 POP PUSH1 0x20 DUP4 ADD CALLDATALOAD PUSH2 0x35FD DUP2 PUSH2 0x35C3 JUMP JUMPDEST DUP1 SWAP2 POP POP SWAP3 POP SWAP3 SWAP1 POP JUMP JUMPDEST PUSH1 0x0 DUP1 PUSH1 0x40 DUP4 DUP6 SUB SLT ISZERO PUSH2 0x361B JUMPI PUSH1 0x0 DUP1 REVERT JUMPDEST PUSH2 0x3624 DUP4 PUSH2 0x314A JUMP JUMPDEST SWAP2 POP PUSH2 0x3632 PUSH1 0x20 DUP5 ADD PUSH2 0x314A JUMP JUMPDEST SWAP1 POP SWAP3 POP SWAP3 SWAP1 POP JUMP JUMPDEST PUSH1 0x0 DUP1 PUSH1 0x0 DUP1 PUSH1 0x0 PUSH1 0xA0 DUP7 DUP9 SUB SLT ISZERO PUSH2 0x3653 JUMPI PUSH1 0x0 DUP1 REVERT JUMPDEST PUSH2 0x365C DUP7 PUSH2 0x314A JUMP JUMPDEST SWAP5 POP PUSH2 0x366A PUSH1 0x20 DUP8 ADD PUSH2 0x314A JUMP JUMPDEST SWAP4 POP PUSH1 0x40 DUP7 ADD CALLDATALOAD SWAP3 POP PUSH1 0x60 DUP7 ADD CALLDATALOAD SWAP2 POP PUSH1 0x80 DUP7 ADD CALLDATALOAD PUSH8 0xFFFFFFFFFFFFFFFF DUP2 GT ISZERO PUSH2 0x3694 JUMPI PUSH1 0x0 DUP1 REVERT JUMPDEST PUSH2 0x3421 DUP9 DUP3 DUP10 ADD PUSH2 0x3310 JUMP JUMPDEST PUSH1 0x0 DUP1 PUSH1 0x0 DUP1 PUSH1 0x0 DUP1 PUSH1 0x0 DUP1 PUSH1 0xE0 DUP10 DUP12 SUB SLT ISZERO PUSH2 0x36BC JUMPI PUSH1 0x0 DUP1 REVERT JUMPDEST DUP9 CALLDATALOAD SWAP8 POP PUSH1 0x20 DUP10 ADD CALLDATALOAD SWAP7 POP PUSH1 0x40 DUP10 ADD CALLDATALOAD SWAP6 POP PUSH1 0x60 DUP10 ADD CALLDATALOAD PUSH8 0xFFFFFFFFFFFFFFFF DUP1 DUP3 GT ISZERO PUSH2 0x36E9 JUMPI PUSH1 0x0 DUP1 REVERT JUMPDEST DUP2 DUP12 ADD SWAP2 POP DUP12 PUSH1 0x1F DUP4 ADD SLT PUSH2 0x36FD JUMPI PUSH1 0x0 DUP1 REVERT JUMPDEST DUP2 CALLDATALOAD DUP2 DUP2 GT ISZERO PUSH2 0x370C JUMPI PUSH1 0x0 DUP1 REVERT JUMPDEST DUP13 PUSH1 0x20 DUP3 DUP6 ADD ADD GT ISZERO PUSH2 0x371E JUMPI PUSH1 0x0 DUP1 REVERT JUMPDEST SWAP10 SWAP13 SWAP9 SWAP12 POP SWAP7 SWAP10 PUSH1 0x20 SWAP2 SWAP1 SWAP2 ADD SWAP9 SWAP8 PUSH1 0x80 DUP3 ADD CALLDATALOAD SWAP8 POP PUSH1 0xA0 DUP3 ADD CALLDATALOAD SWAP7 POP PUSH1 0xC0 SWAP1 SWAP2 ADD CALLDATALOAD SWAP5 POP SWAP3 POP POP POP JUMP JUMPDEST PUSH4 0x4E487B71 PUSH1 0xE0 SHL PUSH1 0x0 MSTORE PUSH1 0x11 PUSH1 0x4 MSTORE PUSH1 0x24 PUSH1 0x0 REVERT JUMPDEST DUP2 DUP2 SUB DUP2 DUP2 GT ISZERO PUSH2 0x810 JUMPI PUSH2 0x810 PUSH2 0x3749 JUMP JUMPDEST PUSH1 0x1 DUP2 DUP2 SHR SWAP1 DUP3 AND DUP1 PUSH2 0x3786 JUMPI PUSH1 0x7F DUP3 AND SWAP2 POP JUMPDEST PUSH1 0x20 DUP3 LT DUP2 SUB PUSH2 0x37A6 JUMPI PUSH4 0x4E487B71 PUSH1 0xE0 SHL PUSH1 0x0 MSTORE PUSH1 0x22 PUSH1 0x4 MSTORE PUSH1 0x24 PUSH1 0x0 REVERT JUMPDEST POP SWAP2 SWAP1 POP JUMP JUMPDEST DUP1 DUP3 MUL DUP2 ISZERO DUP3 DUP3 DIV DUP5 EQ OR PUSH2 0x810 JUMPI PUSH2 0x810 PUSH2 0x3749 JUMP JUMPDEST PUSH1 0x0 DUP3 PUSH2 0x37E0 JUMPI PUSH4 0x4E487B71 PUSH1 0xE0 SHL PUSH1 0x0 MSTORE PUSH1 0x12 PUSH1 0x4 MSTORE PUSH1 0x24 PUSH1 0x0 REVERT JUMPDEST POP DIV SWAP1 JUMP JUMPDEST PUSH1 0x20 DUP1 DUP3 MSTORE PUSH1 0x2E SWAP1 DUP3 ADD MSTORE PUSH32 0x455243313135353A2063616C6C6572206973206E6F7420746F6B656E206F776E PUSH1 0x40 DUP3 ADD MSTORE PUSH14 0x195C881BDC88185C1C1C9BDD9959 PUSH1 0x92 SHL PUSH1 0x60 DUP3 ADD MSTORE PUSH1 0x80 ADD SWAP1 JUMP JUMPDEST PUSH1 0x20 DUP1 DUP3 MSTORE PUSH1 0x3 SWAP1 DUP3 ADD MSTORE PUSH3 0x4E544F PUSH1 0xE8 SHL PUSH1 0x40 DUP3 ADD MSTORE PUSH1 0x60 ADD SWAP1 JUMP JUMPDEST PUSH1 0x0 PUSH1 0x20 DUP3 DUP5 SUB SLT ISZERO PUSH2 0x3862 JUMPI PUSH1 0x0 DUP1 REVERT JUMPDEST DUP2 MLOAD PUSH2 0x1776 DUP2 PUSH2 0x35C3 JUMP JUMPDEST PUSH4 0x4E487B71 PUSH1 0xE0 SHL PUSH1 0x0 MSTORE PUSH1 0x32 PUSH1 0x4 MSTORE PUSH1 0x24 PUSH1 0x0 REVERT JUMPDEST PUSH1 0x0 PUSH1 0x1 DUP3 ADD PUSH2 0x3895 JUMPI PUSH2 0x3895 PUSH2 0x3749 JUMP JUMPDEST POP PUSH1 0x1 ADD SWAP1 JUMP JUMPDEST DUP1 DUP3 ADD DUP1 DUP3 GT ISZERO PUSH2 0x810 JUMPI PUSH2 0x810 PUSH2 0x3749 JUMP JUMPDEST PUSH1 0x0 PUSH1 0x20 DUP3 DUP5 SUB SLT ISZERO PUSH2 0x38C1 JUMPI PUSH1 0x0 DUP1 REVERT JUMPDEST POP MLOAD SWAP2 SWAP1 POP JUMP JUMPDEST PUSH1 0x1F DUP3 GT ISZERO PUSH2 0xD83 JUMPI PUSH1 0x0 DUP2 DUP2 MSTORE PUSH1 0x20 DUP2 KECCAK256 PUSH1 0x1F DUP6 ADD PUSH1 0x5 SHR DUP2 ADD PUSH1 0x20 DUP7 LT ISZERO PUSH2 0x38EF JUMPI POP DUP1 JUMPDEST PUSH1 0x1F DUP6 ADD PUSH1 0x5 SHR DUP3 ADD SWAP2 POP JUMPDEST DUP2 DUP2 LT ISZERO PUSH2 0x2A4B JUMPI DUP3 DUP2 SSTORE PUSH1 0x1 ADD PUSH2 0x38FB JUMP JUMPDEST DUP2 MLOAD PUSH8 0xFFFFFFFFFFFFFFFF DUP2 GT ISZERO PUSH2 0x3928 JUMPI PUSH2 0x3928 PUSH2 0x3238 JUMP JUMPDEST PUSH2 0x393C DUP2 PUSH2 0x3936 DUP5 SLOAD PUSH2 0x3772 JUMP JUMPDEST DUP5 PUSH2 0x38C8 JUMP JUMPDEST PUSH1 0x20 DUP1 PUSH1 0x1F DUP4 GT PUSH1 0x1 DUP2 EQ PUSH2 0x3971 JUMPI PUSH1 0x0 DUP5 ISZERO PUSH2 0x3959 JUMPI POP DUP6 DUP4 ADD MLOAD JUMPDEST PUSH1 0x0 NOT PUSH1 0x3 DUP7 SWAP1 SHL SHR NOT AND PUSH1 0x1 DUP6 SWAP1 SHL OR DUP6 SSTORE PUSH2 0x2A4B JUMP JUMPDEST PUSH1 0x0 DUP6 DUP2 MSTORE PUSH1 0x20 DUP2 KECCAK256 PUSH1 0x1F NOT DUP7 AND SWAP2 JUMPDEST DUP3 DUP2 LT ISZERO PUSH2 0x39A0 JUMPI DUP9 DUP7 ADD MLOAD DUP3 SSTORE SWAP5 DUP5 ADD SWAP5 PUSH1 0x1 SWAP1 SWAP2 ADD SWAP1 DUP5 ADD PUSH2 0x3981 JUMP JUMPDEST POP DUP6 DUP3 LT ISZERO PUSH2 0x39BE JUMPI DUP8 DUP6 ADD MLOAD PUSH1 0x0 NOT PUSH1 0x3 DUP9 SWAP1 SHL PUSH1 0xF8 AND SHR NOT AND DUP2 SSTORE JUMPDEST POP POP POP POP POP PUSH1 0x1 SWAP1 DUP2 SHL ADD SWAP1 SSTORE POP JUMP JUMPDEST PUSH1 0x20 DUP1 DUP3 MSTORE PUSH1 0x25 SWAP1 DUP3 ADD MSTORE PUSH32 0x455243313135353A207472616E7366657220746F20746865207A65726F206164 PUSH1 0x40 DUP3 ADD MSTORE PUSH5 0x6472657373 PUSH1 0xD8 SHL PUSH1 0x60 DUP3 ADD MSTORE PUSH1 0x80 ADD SWAP1 JUMP JUMPDEST PUSH1 0x20 DUP1 DUP3 MSTORE PUSH1 0x2A SWAP1 DUP3 ADD MSTORE PUSH32 0x455243313135353A20696E73756666696369656E742062616C616E636520666F PUSH1 0x40 DUP3 ADD MSTORE PUSH10 0x39103A3930B739B332B9 PUSH1 0xB1 SHL PUSH1 0x60 DUP3 ADD MSTORE PUSH1 0x80 ADD SWAP1 JUMP JUMPDEST PUSH1 0x40 DUP2 MSTORE PUSH1 0x0 PUSH2 0x3A70 PUSH1 0x40 DUP4 ADD DUP6 PUSH2 0x351B JUMP JUMPDEST DUP3 DUP2 SUB PUSH1 0x20 DUP5 ADD MSTORE PUSH2 0x3A82 DUP2 DUP6 PUSH2 0x351B JUMP JUMPDEST SWAP6 SWAP5 POP POP POP POP POP JUMP JUMPDEST PUSH1 0x1 PUSH1 0x1 PUSH1 0xA0 SHL SUB DUP7 DUP2 AND DUP3 MSTORE DUP6 AND PUSH1 0x20 DUP3 ADD MSTORE PUSH1 0xA0 PUSH1 0x40 DUP3 ADD DUP2 SWAP1 MSTORE PUSH1 0x0 SWAP1 PUSH2 0x3AB7 SWAP1 DUP4 ADD DUP7 PUSH2 0x351B JUMP JUMPDEST DUP3 DUP2 SUB PUSH1 0x60 DUP5 ADD MSTORE PUSH2 0x3AC9 DUP2 DUP7 PUSH2 0x351B JUMP JUMPDEST SWAP1 POP DUP3 DUP2 SUB PUSH1 0x80 DUP5 ADD MSTORE PUSH2 0x3ADD DUP2 DUP6 PUSH2 0x31DF JUMP JUMPDEST SWAP9 SWAP8 POP POP POP POP POP POP POP POP JUMP JUMPDEST PUSH1 0x0 PUSH1 0x20 DUP3 DUP5 SUB SLT ISZERO PUSH2 0x3AFB JUMPI PUSH1 0x0 DUP1 REVERT JUMPDEST DUP2 MLOAD PUSH2 0x1776 DUP2 PUSH2 0x3190 JUMP JUMPDEST PUSH1 0x0 PUSH1 0x3 RETURNDATASIZE GT ISZERO PUSH2 0x3B1F JUMPI PUSH1 0x4 PUSH1 0x0 DUP1 RETURNDATACOPY POP PUSH1 0x0 MLOAD PUSH1 0xE0 SHR JUMPDEST SWAP1 JUMP JUMPDEST PUSH1 0x0 PUSH1 0x44 RETURNDATASIZE LT ISZERO PUSH2 0x3B30 JUMPI SWAP1 JUMP JUMPDEST PUSH1 0x40 MLOAD PUSH1 0x3 NOT RETURNDATASIZE DUP2 ADD PUSH1 0x4 DUP4 RETURNDATACOPY DUP2 MLOAD RETURNDATASIZE PUSH8 0xFFFFFFFFFFFFFFFF DUP2 PUSH1 0x24 DUP5 ADD GT DUP2 DUP5 GT OR ISZERO PUSH2 0x3B60 JUMPI POP POP POP POP POP SWAP1 JUMP JUMPDEST DUP3 DUP6 ADD SWAP2 POP DUP2 MLOAD DUP2 DUP2 GT ISZERO PUSH2 0x3B78 JUMPI POP POP POP POP POP POP SWAP1 JUMP JUMPDEST DUP5 RETURNDATASIZE DUP8 ADD ADD PUSH1 0x20 DUP3 DUP6 ADD ADD GT ISZERO PUSH2 0x3B92 JUMPI POP POP POP POP POP POP SWAP1 JUMP JUMPDEST PUSH2 0x3BA1 PUSH1 0x20 DUP3 DUP7 ADD ADD DUP8 PUSH2 0x324E JUMP JUMPDEST POP SWAP1 SWAP6 SWAP5 POP POP POP POP POP JUMP JUMPDEST PUSH1 0x20 DUP1 DUP3 MSTORE PUSH1 0x28 SWAP1 DUP3 ADD MSTORE PUSH32 0x455243313135353A204552433131353552656365697665722072656A65637465 PUSH1 0x40 DUP3 ADD MSTORE PUSH8 0x6420746F6B656E73 PUSH1 0xC0 SHL PUSH1 0x60 DUP3 ADD MSTORE PUSH1 0x80 ADD SWAP1 JUMP JUMPDEST PUSH1 0x1 PUSH1 0x1 PUSH1 0xA0 SHL SUB DUP7 DUP2 AND DUP3 MSTORE DUP6 AND PUSH1 0x20 DUP3 ADD MSTORE PUSH1 0x40 DUP2 ADD DUP5 SWAP1 MSTORE PUSH1 0x60 DUP2 ADD DUP4 SWAP1 MSTORE PUSH1 0xA0 PUSH1 0x80 DUP3 ADD DUP2 SWAP1 MSTORE PUSH1 0x0 SWAP1 PUSH2 0x3C2E SWAP1 DUP4 ADD DUP5 PUSH2 0x31DF JUMP JUMPDEST SWAP8 SWAP7 POP POP POP POP POP POP POP JUMP INVALID LOG2 PUSH5 0x6970667358 0x22 SLT KECCAK256 0xC2 0xA7 DUP1 ADDMOD STOP PUSH17 0xF95BEDED85BDFA0CF6EB6BE61ECB127615 MUL PUSH30 0xFE2335BCC0501F64736F6C63430008110033A26469706673582212209220 0x2F COINBASE DELEGATECALL PUSH27 0x1B1D72A666D88D26408662534845BFD2F93F2A362B9ABD5A72EA64 PUSH20 0x6F6C634300081100330000000000000000000000 "
		},
		"gasEstimates": {
			"creation": {
				"codeDepositCost": "3904400",
				"executionCost": "infinite",
				"totalCost": "infinite"
			},
			"external": {
				"bondDB()": "infinite",
				"bondFactories(address)": "infinite",
				"bondFactoryIsInitialized(address,address)": "infinite",
				"createBondFactory(string,address)": "infinite",
				"entities()": "infinite",
				"isRegistered(address)": "2571",
				"owner()": "infinite",
				"register()": "infinite"
			}
		},
		"methodIdentifiers": {
			"bondDB()": "efc79356",
			"bondFactories(address)": "417590da",
			"bondFactoryIsInitialized(address,address)": "487c5cdf",
			"createBondFactory(string,address)": "ca5ad27c",
			"entities()": "1615fd03",
			"isRegistered(address)": "c3c5a547",
			"owner()": "8da5cb5b",
			"register()": "1aa3a008"
		}
	},
	"abi": [
		{
			"inputs": [
				{
					"internalType": "address",
					"name": "sbt",
					"type": "address"
				},
				{
					"internalType": "address",
					"name": "db",
					"type": "address"
				}
			],
			"stateMutability": "nonpayable",
			"type": "constructor"
		},
		{
			"anonymous": false,
			"inputs": [
				{
					"indexed": true,
					"internalType": "address",
					"name": "owner",
					"type": "address"
				},
				{
					"indexed": false,
					"internalType": "address",
					"name": "token",
					"type": "address"
				}
			],
			"name": "FactoryInitialized",
			"type": "event"
		},
		{
			"inputs": [],
			"name": "bondDB",
			"outputs": [
				{
					"internalType": "address",
					"name": "",
					"type": "address"
				}
			],
			"stateMutability": "view",
			"type": "function"
		},
		{
			"inputs": [
				{
					"internalType": "address",
					"name": "caller",
					"type": "address"
				}
			],
			"name": "bondFactories",
			"outputs": [
				{
					"internalType": "address[]",
					"name": "",
					"type": "address[]"
				}
			],
			"stateMutability": "view",
			"type": "function"
		},
		{
			"inputs": [
				{
					"internalType": "address",
					"name": "caller",
					"type": "address"
				},
				{
					"internalType": "address",
					"name": "token",
					"type": "address"
				}
			],
			"name": "bondFactoryIsInitialized",
			"outputs": [
				{
					"internalType": "bool",
					"name": "",
					"type": "bool"
				}
			],
			"stateMutability": "view",
			"type": "function"
		},
		{
			"inputs": [
				{
					"internalType": "string",
					"name": "uri",
					"type": "string"
				},
				{
					"internalType": "address",
					"name": "token",
					"type": "address"
				}
			],
			"name": "createBondFactory",
			"outputs": [
				{
					"internalType": "address",
					"name": "factory",
					"type": "address"
				}
			],
			"stateMutability": "nonpayable",
			"type": "function"
		},
		{
			"inputs": [],
			"name": "entities",
			"outputs": [
				{
					"internalType": "address[]",
					"name": "",
					"type": "address[]"
				}
			],
			"stateMutability": "view",
			"type": "function"
		},
		{
			"inputs": [
				{
					"internalType": "address",
					"name": "caller",
					"type": "address"
				}
			],
			"name": "isRegistered",
			"outputs": [
				{
					"internalType": "bool",
					"name": "",
					"type": "bool"
				}
			],
			"stateMutability": "view",
			"type": "function"
		},
		{
			"inputs": [],
			"name": "owner",
			"outputs": [
				{
					"internalType": "address",
					"name": "",
					"type": "address"
				}
			],
			"stateMutability": "view",
			"type": "function"
		},
		{
			"inputs": [],
			"name": "register",
			"outputs": [],
			"stateMutability": "nonpayable",
			"type": "function"
		}
	]
}