{
  "_format": "hh-sol-artifact-1",
  "contractName": "CompanyDB",
  "sourceName": "contracts/CompanyDB.sol",
  "abi": [
    {
      "inputs": [
        {
          "internalType": "address",
          "name": "sbt",
          "type": "address"
        }
      ],
      "stateMutability": "nonpayable",
      "type": "constructor"
    },
    {
      "inputs": [
        {
          "internalType": "address",
          "name": "account",
          "type": "address"
        }
      ],
      "name": "activateSBT",
      "outputs": [],
      "stateMutability": "nonpayable",
      "type": "function"
    },
    {
      "inputs": [
        {
          "internalType": "address",
          "name": "account",
          "type": "address"
        }
      ],
      "name": "companyMetadata",
      "outputs": [
        {
          "internalType": "string",
          "name": "",
          "type": "string"
        },
        {
          "internalType": "bytes32",
          "name": "",
          "type": "bytes32"
        },
        {
          "internalType": "uint8",
          "name": "",
          "type": "uint8"
        }
      ],
      "stateMutability": "view",
      "type": "function"
    },
    {
      "inputs": [
        {
          "internalType": "address",
          "name": "account",
          "type": "address"
        }
      ],
      "name": "deactivateSBT",
      "outputs": [],
      "stateMutability": "nonpayable",
      "type": "function"
    },
    {
      "inputs": [
        {
          "internalType": "address",
          "name": "account",
          "type": "address"
        }
      ],
      "name": "isRegisteredCompany",
      "outputs": [
        {
          "internalType": "bool",
          "name": "",
          "type": "bool"
        }
      ],
      "stateMutability": "view",
      "type": "function"
    },
    {
      "inputs": [
        {
          "internalType": "address",
          "name": "account",
          "type": "address"
        },
        {
          "internalType": "uint8",
          "name": "tier",
          "type": "uint8"
        }
      ],
      "name": "modifyTier",
      "outputs": [],
      "stateMutability": "nonpayable",
      "type": "function"
    },
    {
      "inputs": [],
      "name": "owner",
      "outputs": [
        {
          "internalType": "address",
          "name": "",
          "type": "address"
        }
      ],
      "stateMutability": "view",
      "type": "function"
    },
    {
      "inputs": [
        {
          "internalType": "address",
          "name": "account",
          "type": "address"
        },
        {
          "internalType": "string",
          "name": "name",
          "type": "string"
        },
        {
          "internalType": "bytes32",
          "name": "hashedIdentity",
          "type": "bytes32"
        },
        {
          "internalType": "uint8",
          "name": "tier",
          "type": "uint8"
        }
      ],
      "name": "registerCompany",
      "outputs": [
        {
          "internalType": "uint256",
          "name": "sbtId",
          "type": "uint256"
        }
      ],
      "stateMutability": "nonpayable",
      "type": "function"
    },
    {
      "inputs": [],
      "name": "registeredCompanies",
      "outputs": [
        {
          "internalType": "address[]",
          "name": "",
          "type": "address[]"
        }
      ],
      "stateMutability": "view",
      "type": "function"
    },
    {
      "inputs": [
        {
          "internalType": "address",
          "name": "account",
          "type": "address"
        },
        {
          "internalType": "bytes32",
          "name": "hashedIdentity",
          "type": "bytes32"
        },
        {
          "internalType": "uint8",
          "name": "tier",
          "type": "uint8"
        }
      ],
      "name": "reissueSBT",
      "outputs": [
        {
          "internalType": "uint256",
          "name": "sbtId",
          "type": "uint256"
        }
      ],
      "stateMutability": "nonpayable",
      "type": "function"
    },
    {
      "inputs": [],
      "name": "soulBoundToken",
      "outputs": [
        {
          "internalType": "address",
          "name": "",
          "type": "address"
        }
      ],
      "stateMutability": "view",
      "type": "function"
    }
  ],
  "bytecode": "0x60c06040523480156200001157600080fd5b506040516200229438038062002294833981810160405281019062000037919062000110565b3373ffffffffffffffffffffffffffffffffffffffff1660808173ffffffffffffffffffffffffffffffffffffffff16815250508073ffffffffffffffffffffffffffffffffffffffff1660a08173ffffffffffffffffffffffffffffffffffffffff16815250505062000142565b600080fd5b600073ffffffffffffffffffffffffffffffffffffffff82169050919050565b6000620000d882620000ab565b9050919050565b620000ea81620000cb565b8114620000f657600080fd5b50565b6000815190506200010a81620000df565b92915050565b600060208284031215620001295762000128620000a6565b5b60006200013984828501620000f9565b91505092915050565b60805160a0516120b5620001df60003960008181610217015281816103590152818161049001528181610569015281816105a50152818161071e015281816107fa015281816108d40152818161091001528181610ebc01528181610ff5015281816111c001526111fc01526000818161025601528181610419015281816106a7015281816109fd01528181610c050152610f7e01526120b56000f3fe608060405234801561001057600080fd5b506004361061009e5760003560e01c806390159c941161006657806390159c9414610147578063a8158ea814610177578063b57bd629146101a9578063d200abf4146101d9578063f66122e6146101f55761009e565b80634290ba90146100a35780634a607444146100c15780635d33967c146100f15780637795bb9d1461010d5780638da5cb5b14610129575b600080fd5b6100ab610213565b6040516100b891906113b7565b60405180910390f35b6100db60048036038101906100d69190611481565b61023b565b6040516100e891906114ed565b60405180910390f35b61010b60048036038101906101069190611508565b610400565b005b61012760048036038101906101229190611508565b61068e565b005b6101316109f9565b60405161013e91906113b7565b60405180910390f35b610161600480360381019061015c9190611508565b610a21565b60405161016e9190611550565b60405180910390f35b610191600480360381019061018c9190611508565b610a77565b6040516101a093929190611619565b60405180910390f35b6101c360048036038101906101be919061178c565b610bea565b6040516101d091906114ed565b60405180910390f35b6101f360048036038101906101ee919061180f565b610f65565b005b6101fd6112e8565b60405161020a919061190d565b60405180910390f35b60007f0000000000000000000000000000000000000000000000000000000000000000905090565b60003373ffffffffffffffffffffffffffffffffffffffff167f000000000000000000000000000000000000000000000000000000000000000073ffffffffffffffffffffffffffffffffffffffff16146102cb576040517f08c379a00000000000000000000000000000000000000000000000000000000081526004016102c29061197b565b60405180910390fd5b600160008573ffffffffffffffffffffffffffffffffffffffff1673ffffffffffffffffffffffffffffffffffffffff16815260200190815260200160002060009054906101000a900460ff16610357576040517f08c379a000000000000000000000000000000000000000000000000000000000815260040161034e906119e7565b60405180910390fd5b7f000000000000000000000000000000000000000000000000000000000000000073ffffffffffffffffffffffffffffffffffffffff1663c12290d28584866040518463ffffffff1660e01b81526004016103b493929190611a07565b6020604051808303816000875af11580156103d3573d6000803e3d6000fd5b505050506040513d601f19601f820116820180604052508101906103f79190611a6a565b90509392505050565b3373ffffffffffffffffffffffffffffffffffffffff167f000000000000000000000000000000000000000000000000000000000000000073ffffffffffffffffffffffffffffffffffffffff161461048e576040517f08c379a00000000000000000000000000000000000000000000000000000000081526004016104859061197b565b60405180910390fd5b7f000000000000000000000000000000000000000000000000000000000000000073ffffffffffffffffffffffffffffffffffffffff166339f920ab826040518263ffffffff1660e01b81526004016104e791906113b7565b602060405180830381865afa158015610504573d6000803e3d6000fd5b505050506040513d601f19601f820116820180604052508101906105289190611ac3565b610567576040517f08c379a000000000000000000000000000000000000000000000000000000000815260040161055e90611b3c565b60405180910390fd5b7f000000000000000000000000000000000000000000000000000000000000000073ffffffffffffffffffffffffffffffffffffffff1663916b9bef7f000000000000000000000000000000000000000000000000000000000000000073ffffffffffffffffffffffffffffffffffffffff16634814f035846040518263ffffffff1660e01b81526004016105fc91906113b7565b602060405180830381865afa158015610619573d6000803e3d6000fd5b505050506040513d601f19601f8201168201806040525081019061063d9190611a6a565b6040518263ffffffff1660e01b815260040161065991906114ed565b600060405180830381600087803b15801561067357600080fd5b505af1158015610687573d6000803e3d6000fd5b5050505050565b3373ffffffffffffffffffffffffffffffffffffffff167f000000000000000000000000000000000000000000000000000000000000000073ffffffffffffffffffffffffffffffffffffffff161461071c576040517f08c379a00000000000000000000000000000000000000000000000000000000081526004016107139061197b565b60405180910390fd5b7f000000000000000000000000000000000000000000000000000000000000000073ffffffffffffffffffffffffffffffffffffffff166339f920ab826040518263ffffffff1660e01b815260040161077591906113b7565b602060405180830381865afa158015610792573d6000803e3d6000fd5b505050506040513d601f19601f820116820180604052508101906107b69190611ac3565b156107f6576040517f08c379a00000000000000000000000000000000000000000000000000000000081526004016107ed90611ba8565b60405180910390fd5b60007f000000000000000000000000000000000000000000000000000000000000000073ffffffffffffffffffffffffffffffffffffffff16634814f035836040518263ffffffff1660e01b815260040161085191906113b7565b602060405180830381865afa15801561086e573d6000803e3d6000fd5b505050506040513d601f19601f820116820180604052508101906108929190611a6a565b036108d2576040517f08c379a00000000000000000000000000000000000000000000000000000000081526004016108c990611c14565b60405180910390fd5b7f000000000000000000000000000000000000000000000000000000000000000073ffffffffffffffffffffffffffffffffffffffff1663b260c42a7f000000000000000000000000000000000000000000000000000000000000000073ffffffffffffffffffffffffffffffffffffffff16634814f035846040518263ffffffff1660e01b815260040161096791906113b7565b602060405180830381865afa158015610984573d6000803e3d6000fd5b505050506040513d601f19601f820116820180604052508101906109a89190611a6a565b6040518263ffffffff1660e01b81526004016109c491906114ed565b600060405180830381600087803b1580156109de57600080fd5b505af11580156109f2573d6000803e3d6000fd5b5050505050565b60007f0000000000000000000000000000000000000000000000000000000000000000905090565b6000600160008373ffffffffffffffffffffffffffffffffffffffff1673ffffffffffffffffffffffffffffffffffffffff16815260200190815260200160002060009054906101000a900460ff169050919050565b6060600080600260008573ffffffffffffffffffffffffffffffffffffffff1673ffffffffffffffffffffffffffffffffffffffff168152602001908152602001600020600001600260008673ffffffffffffffffffffffffffffffffffffffff1673ffffffffffffffffffffffffffffffffffffffff16815260200190815260200160002060010154600260008773ffffffffffffffffffffffffffffffffffffffff1673ffffffffffffffffffffffffffffffffffffffff16815260200190815260200160002060020160009054906101000a900460ff16828054610b5d90611c63565b80601f0160208091040260200160405190810160405280929190818152602001828054610b8990611c63565b8015610bd65780601f10610bab57610100808354040283529160200191610bd6565b820191906000526020600020905b815481529060010190602001808311610bb957829003601f168201915b505050505092509250925092509193909250565b60003373ffffffffffffffffffffffffffffffffffffffff167f000000000000000000000000000000000000000000000000000000000000000073ffffffffffffffffffffffffffffffffffffffff1614610c7a576040517f08c379a0000000000000000000000000000000000000000000000000000000008152600401610c719061197b565b60405180910390fd5b8160018160ff1610158015610c93575060038160ff1611155b610cd2576040517f08c379a0000000000000000000000000000000000000000000000000000000008152600401610cc990611ce0565b60405180910390fd5b600160008773ffffffffffffffffffffffffffffffffffffffff1673ffffffffffffffffffffffffffffffffffffffff16815260200190815260200160002060009054906101000a900460ff1615610d5f576040517f08c379a0000000000000000000000000000000000000000000000000000000008152600401610d5690611d4c565b60405180910390fd5b6000869080600181540180825580915050600190039060005260206000200160009091909190916101000a81548173ffffffffffffffffffffffffffffffffffffffff021916908373ffffffffffffffffffffffffffffffffffffffff16021790555060018060008873ffffffffffffffffffffffffffffffffffffffff1673ffffffffffffffffffffffffffffffffffffffff16815260200190815260200160002060006101000a81548160ff02191690831515021790555060405180606001604052808681526020018581526020018460ff16815250600260008873ffffffffffffffffffffffffffffffffffffffff1673ffffffffffffffffffffffffffffffffffffffff1681526020019081526020016000206000820151816000019081610e8b9190611f18565b506020820151816001015560408201518160020160006101000a81548160ff021916908360ff1602179055509050507f000000000000000000000000000000000000000000000000000000000000000073ffffffffffffffffffffffffffffffffffffffff1663c12290d28785876040518463ffffffff1660e01b8152600401610f1793929190611a07565b6020604051808303816000875af1158015610f36573d6000803e3d6000fd5b505050506040513d601f19601f82011682018060405250810190610f5a9190611a6a565b915050949350505050565b3373ffffffffffffffffffffffffffffffffffffffff167f000000000000000000000000000000000000000000000000000000000000000073ffffffffffffffffffffffffffffffffffffffff1614610ff3576040517f08c379a0000000000000000000000000000000000000000000000000000000008152600401610fea9061197b565b60405180910390fd5b7f000000000000000000000000000000000000000000000000000000000000000073ffffffffffffffffffffffffffffffffffffffff166339f920ab836040518263ffffffff1660e01b815260040161104c91906113b7565b602060405180830381865afa158015611069573d6000803e3d6000fd5b505050506040513d601f19601f8201168201806040525081019061108d9190611ac3565b6110cc576040517f08c379a00000000000000000000000000000000000000000000000000000000081526004016110c390611b3c565b60405180910390fd5b600260008373ffffffffffffffffffffffffffffffffffffffff1673ffffffffffffffffffffffffffffffffffffffff16815260200190815260200160002060020160009054906101000a900460ff1660ff168160ff1603611163576040517f08c379a000000000000000000000000000000000000000000000000000000000815260040161115a90612036565b60405180910390fd5b80600260008473ffffffffffffffffffffffffffffffffffffffff1673ffffffffffffffffffffffffffffffffffffffff16815260200190815260200160002060020160006101000a81548160ff021916908360ff1602179055507f000000000000000000000000000000000000000000000000000000000000000073ffffffffffffffffffffffffffffffffffffffff166337b05d8d7f000000000000000000000000000000000000000000000000000000000000000073ffffffffffffffffffffffffffffffffffffffff16634814f035856040518263ffffffff1660e01b815260040161125391906113b7565b602060405180830381865afa158015611270573d6000803e3d6000fd5b505050506040513d601f19601f820116820180604052508101906112949190611a6a565b836040518363ffffffff1660e01b81526004016112b2929190612056565b600060405180830381600087803b1580156112cc57600080fd5b505af11580156112e0573d6000803e3d6000fd5b505050505050565b6060600080548060200260200160405190810160405280929190818152602001828054801561136c57602002820191906000526020600020905b8160009054906101000a900473ffffffffffffffffffffffffffffffffffffffff1673ffffffffffffffffffffffffffffffffffffffff1681526020019060010190808311611322575b5050505050905090565b600073ffffffffffffffffffffffffffffffffffffffff82169050919050565b60006113a182611376565b9050919050565b6113b181611396565b82525050565b60006020820190506113cc60008301846113a8565b92915050565b6000604051905090565b600080fd5b600080fd5b6113ef81611396565b81146113fa57600080fd5b50565b60008135905061140c816113e6565b92915050565b6000819050919050565b61142581611412565b811461143057600080fd5b50565b6000813590506114428161141c565b92915050565b600060ff82169050919050565b61145e81611448565b811461146957600080fd5b50565b60008135905061147b81611455565b92915050565b60008060006060848603121561149a576114996113dc565b5b60006114a8868287016113fd565b93505060206114b986828701611433565b92505060406114ca8682870161146c565b9150509250925092565b6000819050919050565b6114e7816114d4565b82525050565b600060208201905061150260008301846114de565b92915050565b60006020828403121561151e5761151d6113dc565b5b600061152c848285016113fd565b91505092915050565b60008115159050919050565b61154a81611535565b82525050565b60006020820190506115656000830184611541565b92915050565b600081519050919050565b600082825260208201905092915050565b60005b838110156115a557808201518184015260208101905061158a565b60008484015250505050565b6000601f19601f8301169050919050565b60006115cd8261156b565b6115d78185611576565b93506115e7818560208601611587565b6115f0816115b1565b840191505092915050565b61160481611412565b82525050565b61161381611448565b82525050565b6000606082019050818103600083015261163381866115c2565b905061164260208301856115fb565b61164f604083018461160a565b949350505050565b600080fd5b600080fd5b7f4e487b7100000000000000000000000000000000000000000000000000000000600052604160045260246000fd5b611699826115b1565b810181811067ffffffffffffffff821117156116b8576116b7611661565b5b80604052505050565b60006116cb6113d2565b90506116d78282611690565b919050565b600067ffffffffffffffff8211156116f7576116f6611661565b5b611700826115b1565b9050602081019050919050565b82818337600083830152505050565b600061172f61172a846116dc565b6116c1565b90508281526020810184848401111561174b5761174a61165c565b5b61175684828561170d565b509392505050565b600082601f83011261177357611772611657565b5b813561178384826020860161171c565b91505092915050565b600080600080608085870312156117a6576117a56113dc565b5b60006117b4878288016113fd565b945050602085013567ffffffffffffffff8111156117d5576117d46113e1565b5b6117e18782880161175e565b93505060406117f287828801611433565b92505060606118038782880161146c565b91505092959194509250565b60008060408385031215611826576118256113dc565b5b6000611834858286016113fd565b92505060206118458582860161146c565b9150509250929050565b600081519050919050565b600082825260208201905092915050565b6000819050602082019050919050565b61188481611396565b82525050565b6000611896838361187b565b60208301905092915050565b6000602082019050919050565b60006118ba8261184f565b6118c4818561185a565b93506118cf8361186b565b8060005b838110156119005781516118e7888261188a565b97506118f2836118a2565b9250506001810190506118d3565b5085935050505092915050565b6000602082019050818103600083015261192781846118af565b905092915050565b7f4e544f0000000000000000000000000000000000000000000000000000000000600082015250565b6000611965600383611576565b91506119708261192f565b602082019050919050565b6000602082019050818103600083015261199481611958565b9050919050565b7f43494e5200000000000000000000000000000000000000000000000000000000600082015250565b60006119d1600483611576565b91506119dc8261199b565b602082019050919050565b60006020820190508181036000830152611a00816119c4565b9050919050565b6000606082019050611a1c60008301866113a8565b611a29602083018561160a565b611a3660408301846115fb565b949350505050565b611a47816114d4565b8114611a5257600080fd5b50565b600081519050611a6481611a3e565b92915050565b600060208284031215611a8057611a7f6113dc565b5b6000611a8e84828501611a55565b91505092915050565b611aa081611535565b8114611aab57600080fd5b50565b600081519050611abd81611a97565b92915050565b600060208284031215611ad957611ad86113dc565b5b6000611ae784828501611aae565b91505092915050565b7f4e41534254000000000000000000000000000000000000000000000000000000600082015250565b6000611b26600583611576565b9150611b3182611af0565b602082019050919050565b60006020820190508181036000830152611b5581611b19565b9050919050565b7f4941534254000000000000000000000000000000000000000000000000000000600082015250565b6000611b92600583611576565b9150611b9d82611b5c565b602082019050919050565b60006020820190508181036000830152611bc181611b85565b9050919050565b7f4e53425400000000000000000000000000000000000000000000000000000000600082015250565b6000611bfe600483611576565b9150611c0982611bc8565b602082019050919050565b60006020820190508181036000830152611c2d81611bf1565b9050919050565b7f4e487b7100000000000000000000000000000000000000000000000000000000600052602260045260246000fd5b60006002820490506001821680611c7b57607f821691505b602082108103611c8e57611c8d611c34565b5b50919050565b7f4954000000000000000000000000000000000000000000000000000000000000600082015250565b6000611cca600283611576565b9150611cd582611c94565b602082019050919050565b60006020820190508181036000830152611cf981611cbd565b9050919050565b7f4349415200000000000000000000000000000000000000000000000000000000600082015250565b6000611d36600483611576565b9150611d4182611d00565b602082019050919050565b60006020820190508181036000830152611d6581611d29565b9050919050565b60008190508160005260206000209050919050565b60006020601f8301049050919050565b600082821b905092915050565b600060088302611dce7fffffffffffffffffffffffffffffffffffffffffffffffffffffffffffffffff82611d91565b611dd88683611d91565b95508019841693508086168417925050509392505050565b6000819050919050565b6000611e15611e10611e0b846114d4565b611df0565b6114d4565b9050919050565b6000819050919050565b611e2f83611dfa565b611e43611e3b82611e1c565b848454611d9e565b825550505050565b600090565b611e58611e4b565b611e63818484611e26565b505050565b5b81811015611e8757611e7c600082611e50565b600181019050611e69565b5050565b601f821115611ecc57611e9d81611d6c565b611ea684611d81565b81016020851015611eb5578190505b611ec9611ec185611d81565b830182611e68565b50505b505050565b600082821c905092915050565b6000611eef60001984600802611ed1565b1980831691505092915050565b6000611f088383611ede565b9150826002028217905092915050565b611f218261156b565b67ffffffffffffffff811115611f3a57611f39611661565b5b611f448254611c63565b611f4f828285611e8b565b600060209050601f831160018114611f825760008415611f70578287015190505b611f7a8582611efc565b865550611fe2565b601f198416611f9086611d6c565b60005b82811015611fb857848901518255600182019150602085019450602081019050611f93565b86831015611fd55784890151611fd1601f891682611ede565b8355505b6001600288020188555050505b505050505050565b7f4154435354000000000000000000000000000000000000000000000000000000600082015250565b6000612020600583611576565b915061202b82611fea565b602082019050919050565b6000602082019050818103600083015261204f81612013565b9050919050565b600060408201905061206b60008301856114de565b612078602083018461160a565b939250505056fea26469706673582212204219e1cd3efe8ff9af44f6daedb8856a2b19c0a4bb34a28ab67842132f3ec44564736f6c63430008110033",
  "linkReferences": {},
  "deployedLinkReferences": {}
}