{
  "_format": "hh-sol-artifact-1",
  "contractName": "BondFactory",
  "sourceName": "contracts/BondFactory.sol",
  "abi": [
    {
      "inputs": [
        {
          "internalType": "string",
          "name": "uri",
          "type": "string"
        },
        {
          "internalType": "address",
          "name": "token",
          "type": "address"
        }
      ],
      "stateMutability": "nonpayable",
      "type": "constructor"
    },
    {
      "anonymous": false,
      "inputs": [
        {
          "indexed": true,
          "internalType": "address",
          "name": "account",
          "type": "address"
        },
        {
          "indexed": true,
          "internalType": "address",
          "name": "operator",
          "type": "address"
        },
        {
          "indexed": false,
          "internalType": "bool",
          "name": "approved",
          "type": "bool"
        }
      ],
      "name": "ApprovalForAll",
      "type": "event"
    },
    {
      "anonymous": false,
      "inputs": [
        {
          "indexed": true,
          "internalType": "uint256",
          "name": "id",
          "type": "uint256"
        },
        {
          "indexed": false,
          "internalType": "uint256",
          "name": "totalDebt",
          "type": "uint256"
        },
        {
          "indexed": false,
          "internalType": "uint256",
          "name": "paidDebt",
          "type": "uint256"
        }
      ],
      "name": "Completed",
      "type": "event"
    },
    {
      "anonymous": false,
      "inputs": [
        {
          "indexed": true,
          "internalType": "uint256",
          "name": "id",
          "type": "uint256"
        },
        {
          "indexed": false,
          "internalType": "uint256",
          "name": "totalDebt",
          "type": "uint256"
        },
        {
          "indexed": false,
          "internalType": "uint256",
          "name": "paidDebt",
          "type": "uint256"
        }
      ],
      "name": "Defaulted",
      "type": "event"
    },
    {
      "anonymous": false,
      "inputs": [
        {
          "indexed": true,
          "internalType": "uint256",
          "name": "id",
          "type": "uint256"
        },
        {
          "indexed": false,
          "internalType": "uint256",
          "name": "bondQuantity",
          "type": "uint256"
        },
        {
          "indexed": false,
          "internalType": "uint256",
          "name": "tokenAmountPerBond",
          "type": "uint256"
        },
        {
          "indexed": false,
          "internalType": "uint256",
          "name": "couponRate",
          "type": "uint256"
        }
      ],
      "name": "Issued",
      "type": "event"
    },
    {
      "anonymous": false,
      "inputs": [
        {
          "indexed": true,
          "internalType": "address",
          "name": "operator",
          "type": "address"
        },
        {
          "indexed": true,
          "internalType": "address",
          "name": "from",
          "type": "address"
        },
        {
          "indexed": true,
          "internalType": "address",
          "name": "to",
          "type": "address"
        },
        {
          "indexed": false,
          "internalType": "uint256[]",
          "name": "ids",
          "type": "uint256[]"
        },
        {
          "indexed": false,
          "internalType": "uint256[]",
          "name": "values",
          "type": "uint256[]"
        }
      ],
      "name": "TransferBatch",
      "type": "event"
    },
    {
      "anonymous": false,
      "inputs": [
        {
          "indexed": true,
          "internalType": "address",
          "name": "operator",
          "type": "address"
        },
        {
          "indexed": true,
          "internalType": "address",
          "name": "from",
          "type": "address"
        },
        {
          "indexed": true,
          "internalType": "address",
          "name": "to",
          "type": "address"
        },
        {
          "indexed": false,
          "internalType": "uint256",
          "name": "id",
          "type": "uint256"
        },
        {
          "indexed": false,
          "internalType": "uint256",
          "name": "value",
          "type": "uint256"
        }
      ],
      "name": "TransferSingle",
      "type": "event"
    },
    {
      "anonymous": false,
      "inputs": [
        {
          "indexed": false,
          "internalType": "string",
          "name": "value",
          "type": "string"
        },
        {
          "indexed": true,
          "internalType": "uint256",
          "name": "id",
          "type": "uint256"
        }
      ],
      "name": "URI",
      "type": "event"
    },
    {
      "inputs": [
        {
          "internalType": "address",
          "name": "account",
          "type": "address"
        },
        {
          "internalType": "uint256",
          "name": "id",
          "type": "uint256"
        }
      ],
      "name": "balanceOf",
      "outputs": [
        {
          "internalType": "uint256",
          "name": "",
          "type": "uint256"
        }
      ],
      "stateMutability": "view",
      "type": "function"
    },
    {
      "inputs": [
        {
          "internalType": "address[]",
          "name": "accounts",
          "type": "address[]"
        },
        {
          "internalType": "uint256[]",
          "name": "ids",
          "type": "uint256[]"
        }
      ],
      "name": "balanceOfBatch",
      "outputs": [
        {
          "internalType": "uint256[]",
          "name": "",
          "type": "uint256[]"
        }
      ],
      "stateMutability": "view",
      "type": "function"
    },
    {
      "inputs": [
        {
          "internalType": "uint256",
          "name": "id",
          "type": "uint256"
        }
      ],
      "name": "bondmetaData",
      "outputs": [
        {
          "internalType": "string",
          "name": "",
          "type": "string"
        },
        {
          "internalType": "uint256",
          "name": "",
          "type": "uint256"
        },
        {
          "internalType": "uint256",
          "name": "",
          "type": "uint256"
        },
        {
          "internalType": "uint256",
          "name": "",
          "type": "uint256"
        },
        {
          "internalType": "uint256",
          "name": "",
          "type": "uint256"
        },
        {
          "internalType": "uint256",
          "name": "",
          "type": "uint256"
        },
        {
          "internalType": "uint256",
          "name": "",
          "type": "uint256"
        },
        {
          "internalType": "uint256",
          "name": "",
          "type": "uint256"
        },
        {
          "internalType": "uint256",
          "name": "",
          "type": "uint256"
        },
        {
          "internalType": "uint256",
          "name": "",
          "type": "uint256"
        }
      ],
      "stateMutability": "view",
      "type": "function"
    },
    {
      "inputs": [
        {
          "internalType": "uint256",
          "name": "id",
          "type": "uint256"
        }
      ],
      "name": "couponRate",
      "outputs": [
        {
          "internalType": "uint256",
          "name": "",
          "type": "uint256"
        }
      ],
      "stateMutability": "view",
      "type": "function"
    },
    {
      "inputs": [
        {
          "internalType": "uint256",
          "name": "id",
          "type": "uint256"
        },
        {
          "internalType": "uint256",
          "name": "tokenAmount",
          "type": "uint256"
        }
      ],
      "name": "deposit",
      "outputs": [],
      "stateMutability": "nonpayable",
      "type": "function"
    },
    {
      "inputs": [
        {
          "internalType": "uint256",
          "name": "id",
          "type": "uint256"
        }
      ],
      "name": "hasReachedMaturity",
      "outputs": [
        {
          "internalType": "bool",
          "name": "",
          "type": "bool"
        }
      ],
      "stateMutability": "view",
      "type": "function"
    },
    {
      "inputs": [
        {
          "internalType": "uint256",
          "name": "id",
          "type": "uint256"
        }
      ],
      "name": "isActive",
      "outputs": [
        {
          "internalType": "bool",
          "name": "",
          "type": "bool"
        }
      ],
      "stateMutability": "view",
      "type": "function"
    },
    {
      "inputs": [
        {
          "internalType": "address",
          "name": "account",
          "type": "address"
        },
        {
          "internalType": "address",
          "name": "operator",
          "type": "address"
        }
      ],
      "name": "isApprovedForAll",
      "outputs": [
        {
          "internalType": "bool",
          "name": "",
          "type": "bool"
        }
      ],
      "stateMutability": "view",
      "type": "function"
    },
    {
      "inputs": [
        {
          "internalType": "uint256",
          "name": "id",
          "type": "uint256"
        }
      ],
      "name": "isCanceled",
      "outputs": [
        {
          "internalType": "bool",
          "name": "",
          "type": "bool"
        }
      ],
      "stateMutability": "view",
      "type": "function"
    },
    {
      "inputs": [
        {
          "internalType": "uint256",
          "name": "id",
          "type": "uint256"
        }
      ],
      "name": "isCompleted",
      "outputs": [
        {
          "internalType": "bool",
          "name": "",
          "type": "bool"
        }
      ],
      "stateMutability": "view",
      "type": "function"
    },
    {
      "inputs": [
        {
          "internalType": "uint256",
          "name": "id",
          "type": "uint256"
        }
      ],
      "name": "isCompletedInTheory",
      "outputs": [
        {
          "internalType": "bool",
          "name": "",
          "type": "bool"
        }
      ],
      "stateMutability": "view",
      "type": "function"
    },
    {
      "inputs": [
        {
          "internalType": "uint256",
          "name": "id",
          "type": "uint256"
        }
      ],
      "name": "isDefaulted",
      "outputs": [
        {
          "internalType": "bool",
          "name": "",
          "type": "bool"
        }
      ],
      "stateMutability": "view",
      "type": "function"
    },
    {
      "inputs": [
        {
          "internalType": "uint256",
          "name": "id",
          "type": "uint256"
        }
      ],
      "name": "isDefaultedInTheory",
      "outputs": [
        {
          "internalType": "bool",
          "name": "",
          "type": "bool"
        }
      ],
      "stateMutability": "view",
      "type": "function"
    },
    {
      "inputs": [
        {
          "internalType": "uint256",
          "name": "id",
          "type": "uint256"
        }
      ],
      "name": "isFulfilled",
      "outputs": [
        {
          "internalType": "bool",
          "name": "",
          "type": "bool"
        }
      ],
      "stateMutability": "view",
      "type": "function"
    },
    {
      "inputs": [
        {
          "internalType": "uint256",
          "name": "id",
          "type": "uint256"
        }
      ],
      "name": "isFullyRedeemed",
      "outputs": [
        {
          "internalType": "bool",
          "name": "",
          "type": "bool"
        }
      ],
      "stateMutability": "view",
      "type": "function"
    },
    {
      "inputs": [
        {
          "internalType": "uint256",
          "name": "bondQuantity",
          "type": "uint256"
        },
        {
          "internalType": "uint256",
          "name": "minPurchasedQuantity",
          "type": "uint256"
        },
        {
          "internalType": "uint256",
          "name": "tokenAmountPerBond",
          "type": "uint256"
        },
        {
          "internalType": "string",
          "name": "ticker",
          "type": "string"
        },
        {
          "internalType": "uint256",
          "name": "durationDays",
          "type": "uint256"
        },
        {
          "internalType": "uint256",
          "name": "activeDurationInDays",
          "type": "uint256"
        },
        {
          "internalType": "uint256",
          "name": "rate",
          "type": "uint256"
        },
        {
          "internalType": "bytes",
          "name": "data",
          "type": "bytes"
        }
      ],
      "name": "issue",
      "outputs": [
        {
          "internalType": "uint256",
          "name": "id",
          "type": "uint256"
        }
      ],
      "stateMutability": "nonpayable",
      "type": "function"
    },
    {
      "inputs": [
        {
          "internalType": "uint256",
          "name": "id",
          "type": "uint256"
        }
      ],
      "name": "markAsCompleted",
      "outputs": [],
      "stateMutability": "nonpayable",
      "type": "function"
    },
    {
      "inputs": [
        {
          "internalType": "uint256",
          "name": "id",
          "type": "uint256"
        }
      ],
      "name": "markAsDefaulted",
      "outputs": [],
      "stateMutability": "nonpayable",
      "type": "function"
    },
    {
      "inputs": [
        {
          "internalType": "uint256",
          "name": "id",
          "type": "uint256"
        }
      ],
      "name": "poolAmount",
      "outputs": [
        {
          "internalType": "uint256",
          "name": "",
          "type": "uint256"
        }
      ],
      "stateMutability": "view",
      "type": "function"
    },
    {
      "inputs": [
        {
          "internalType": "uint256",
          "name": "id",
          "type": "uint256"
        }
      ],
      "name": "principal",
      "outputs": [
        {
          "internalType": "uint256",
          "name": "",
          "type": "uint256"
        }
      ],
      "stateMutability": "view",
      "type": "function"
    },
    {
      "inputs": [
        {
          "internalType": "uint256",
          "name": "id",
          "type": "uint256"
        }
      ],
      "name": "principalWithInterest",
      "outputs": [
        {
          "internalType": "uint256",
          "name": "",
          "type": "uint256"
        }
      ],
      "stateMutability": "view",
      "type": "function"
    },
    {
      "inputs": [
        {
          "internalType": "uint256",
          "name": "id",
          "type": "uint256"
        },
        {
          "internalType": "uint256",
          "name": "bondQuantity",
          "type": "uint256"
        }
      ],
      "name": "purchase",
      "outputs": [],
      "stateMutability": "nonpayable",
      "type": "function"
    },
    {
      "inputs": [
        {
          "internalType": "uint256",
          "name": "id",
          "type": "uint256"
        },
        {
          "internalType": "uint256",
          "name": "bondQuantity",
          "type": "uint256"
        }
      ],
      "name": "redeem",
      "outputs": [],
      "stateMutability": "nonpayable",
      "type": "function"
    },
    {
      "inputs": [
        {
          "internalType": "uint256",
          "name": "id",
          "type": "uint256"
        },
        {
          "internalType": "uint256",
          "name": "bondQuantity",
          "type": "uint256"
        }
      ],
      "name": "redeemCanceled",
      "outputs": [],
      "stateMutability": "nonpayable",
      "type": "function"
    },
    {
      "inputs": [
        {
          "internalType": "uint256",
          "name": "id",
          "type": "uint256"
        },
        {
          "internalType": "uint256",
          "name": "bondQuantity",
          "type": "uint256"
        }
      ],
      "name": "redeemDefaulted",
      "outputs": [],
      "stateMutability": "nonpayable",
      "type": "function"
    },
    {
      "inputs": [
        {
          "internalType": "uint256",
          "name": "id",
          "type": "uint256"
        }
      ],
      "name": "remainingQuantity",
      "outputs": [
        {
          "internalType": "uint256",
          "name": "",
          "type": "uint256"
        }
      ],
      "stateMutability": "view",
      "type": "function"
    },
    {
      "inputs": [
        {
          "internalType": "address",
          "name": "from",
          "type": "address"
        },
        {
          "internalType": "address",
          "name": "to",
          "type": "address"
        },
        {
          "internalType": "uint256[]",
          "name": "ids",
          "type": "uint256[]"
        },
        {
          "internalType": "uint256[]",
          "name": "amounts",
          "type": "uint256[]"
        },
        {
          "internalType": "bytes",
          "name": "data",
          "type": "bytes"
        }
      ],
      "name": "safeBatchTransferFrom",
      "outputs": [],
      "stateMutability": "nonpayable",
      "type": "function"
    },
    {
      "inputs": [
        {
          "internalType": "address",
          "name": "from",
          "type": "address"
        },
        {
          "internalType": "address",
          "name": "to",
          "type": "address"
        },
        {
          "internalType": "uint256",
          "name": "id",
          "type": "uint256"
        },
        {
          "internalType": "uint256",
          "name": "amount",
          "type": "uint256"
        },
        {
          "internalType": "bytes",
          "name": "data",
          "type": "bytes"
        }
      ],
      "name": "safeTransferFrom",
      "outputs": [],
      "stateMutability": "nonpayable",
      "type": "function"
    },
    {
      "inputs": [
        {
          "internalType": "address",
          "name": "operator",
          "type": "address"
        },
        {
          "internalType": "bool",
          "name": "approved",
          "type": "bool"
        }
      ],
      "name": "setApprovalForAll",
      "outputs": [],
      "stateMutability": "nonpayable",
      "type": "function"
    },
    {
      "inputs": [
        {
          "internalType": "bytes4",
          "name": "interfaceId",
          "type": "bytes4"
        }
      ],
      "name": "supportsInterface",
      "outputs": [
        {
          "internalType": "bool",
          "name": "",
          "type": "bool"
        }
      ],
      "stateMutability": "view",
      "type": "function"
    },
    {
      "inputs": [
        {
          "internalType": "uint256",
          "name": "id",
          "type": "uint256"
        }
      ],
      "name": "timeElapsed",
      "outputs": [
        {
          "internalType": "uint256",
          "name": "",
          "type": "uint256"
        }
      ],
      "stateMutability": "view",
      "type": "function"
    },
    {
      "inputs": [
        {
          "internalType": "uint256",
          "name": "id",
          "type": "uint256"
        }
      ],
      "name": "timeRemainingToEndOfActive",
      "outputs": [
        {
          "internalType": "uint256",
          "name": "",
          "type": "uint256"
        }
      ],
      "stateMutability": "view",
      "type": "function"
    },
    {
      "inputs": [
        {
          "internalType": "uint256",
          "name": "id",
          "type": "uint256"
        }
      ],
      "name": "timeRemainingToMaturity",
      "outputs": [
        {
          "internalType": "uint256",
          "name": "",
          "type": "uint256"
        }
      ],
      "stateMutability": "view",
      "type": "function"
    },
    {
      "inputs": [],
      "name": "tvl",
      "outputs": [
        {
          "internalType": "uint256",
          "name": "",
          "type": "uint256"
        }
      ],
      "stateMutability": "view",
      "type": "function"
    },
    {
      "inputs": [
        {
          "internalType": "uint256",
          "name": "",
          "type": "uint256"
        }
      ],
      "name": "uri",
      "outputs": [
        {
          "internalType": "string",
          "name": "",
          "type": "string"
        }
      ],
      "stateMutability": "view",
      "type": "function"
    },
    {
      "inputs": [
        {
          "internalType": "uint256",
          "name": "id",
          "type": "uint256"
        },
        {
          "internalType": "uint256",
          "name": "tokenAmount",
          "type": "uint256"
        }
      ],
      "name": "withdraw",
      "outputs": [],
      "stateMutability": "nonpayable",
      "type": "function"
    },
    {
      "inputs": [
        {
          "internalType": "uint256",
          "name": "id",
          "type": "uint256"
        }
      ],
      "name": "withdrawExcess",
      "outputs": [],
      "stateMutability": "nonpayable",
      "type": "function"
    }
  ],
  "bytecode": "0x60c060405260006003553480156200001657600080fd5b50604051620061c7380380620061c783398181016040528101906200003c9190620002cc565b816200004e81620000bf60201b60201c565b503373ffffffffffffffffffffffffffffffffffffffff1660808173ffffffffffffffffffffffffffffffffffffffff16815250508073ffffffffffffffffffffffffffffffffffffffff1660a08173ffffffffffffffffffffffffffffffffffffffff1681525050505062000664565b8060029081620000d091906200057d565b5050565b6000604051905090565b600080fd5b600080fd5b600080fd5b600080fd5b6000601f19601f8301169050919050565b7f4e487b7100000000000000000000000000000000000000000000000000000000600052604160045260246000fd5b6200013d82620000f2565b810181811067ffffffffffffffff821117156200015f576200015e62000103565b5b80604052505050565b600062000174620000d4565b905062000182828262000132565b919050565b600067ffffffffffffffff821115620001a557620001a462000103565b5b620001b082620000f2565b9050602081019050919050565b60005b83811015620001dd578082015181840152602081019050620001c0565b60008484015250505050565b600062000200620001fa8462000187565b62000168565b9050828152602081018484840111156200021f576200021e620000ed565b5b6200022c848285620001bd565b509392505050565b600082601f8301126200024c576200024b620000e8565b5b81516200025e848260208601620001e9565b91505092915050565b600073ffffffffffffffffffffffffffffffffffffffff82169050919050565b6000620002948262000267565b9050919050565b620002a68162000287565b8114620002b257600080fd5b50565b600081519050620002c6816200029b565b92915050565b60008060408385031215620002e657620002e5620000de565b5b600083015167ffffffffffffffff811115620003075762000306620000e3565b5b620003158582860162000234565b92505060206200032885828601620002b5565b9150509250929050565b600081519050919050565b7f4e487b7100000000000000000000000000000000000000000000000000000000600052602260045260246000fd5b600060028204905060018216806200038557607f821691505b6020821081036200039b576200039a6200033d565b5b50919050565b60008190508160005260206000209050919050565b60006020601f8301049050919050565b600082821b905092915050565b600060088302620004057fffffffffffffffffffffffffffffffffffffffffffffffffffffffffffffffff82620003c6565b620004118683620003c6565b95508019841693508086168417925050509392505050565b6000819050919050565b6000819050919050565b60006200045e62000458620004528462000429565b62000433565b62000429565b9050919050565b6000819050919050565b6200047a836200043d565b62000492620004898262000465565b848454620003d3565b825550505050565b600090565b620004a96200049a565b620004b68184846200046f565b505050565b5b81811015620004de57620004d26000826200049f565b600181019050620004bc565b5050565b601f8211156200052d57620004f781620003a1565b6200050284620003b6565b8101602085101562000512578190505b6200052a6200052185620003b6565b830182620004bb565b50505b505050565b600082821c905092915050565b6000620005526000198460080262000532565b1980831691505092915050565b60006200056d83836200053f565b9150826002028217905092915050565b620005888262000332565b67ffffffffffffffff811115620005a457620005a362000103565b5b620005b082546200036c565b620005bd828285620004e2565b600060209050601f831160018114620005f55760008415620005e0578287015190505b620005ec85826200055f565b8655506200065c565b601f1984166200060586620003a1565b60005b828110156200062f5784890151825560018201915060208501945060208101905062000608565b868310156200064f57848901516200064b601f8916826200053f565b8355505b6001600288020188555050505b505050505050565b60805160a051615ae9620006de60003960008181610e8901528181611265015281816114cf015281816117f5015281816119c201528181611b9f01528181611dd301528181612431015281816124d801526126cd015260008181610c4701528181611eb6015281816122d701526125770152615ae96000f3fe608060405234801561001057600080fd5b50600436106102265760003560e01c80637cbc237311610130578063b09f2b1c116100b8578063e2bbb1581161007c578063e2bbb15814610780578063e5328e061461079c578063e755ddd7146107ba578063e985e9c5146107d6578063f242432a1461080657610226565b8063b09f2b1c146106af578063c0a6026c146106cb578063c7bc5730146106e7578063d32fe02e14610717578063d3b7811b1461075057610226565b8063932a8de0116100ff578063932a8de0146105fb578063a22cb4651461062b578063a874302214610647578063a996ef0814610663578063abac75e11461067f57610226565b80637cbc23731461054f57806382afd23b1461056b57806388bdc0831461059b5780638f0dbf77146105cb57610226565b80633097afb8116101b3578063549493bb11610182578063549493bb146104735780636ff80d93146104a357806370876c98146104d357806377e2a08b146104ef5780637a41984b1461051f57610226565b80633097afb8146103c757806339e3af9b146103f7578063441a3e70146104275780634e1273f41461044357610226565b806309149020116101fa57806309149020146102eb5780630e89341c1461031b57806314f294931461034b5780632eb2c2d61461037b5780632f3ad61f1461039757610226565b8062fdd58e1461022b57806301ffc9a71461025b578063021594971461028b57806308913ce8146102bb575b600080fd5b61024560048036038101906102409190613948565b610822565b6040516102529190613997565b60405180910390f35b61027560048036038101906102709190613a0a565b6108ea565b6040516102829190613a52565b60405180910390f35b6102a560048036038101906102a09190613a6d565b6109cc565b6040516102b29190613997565b60405180910390f35b6102d560048036038101906102d09190613a6d565b6109e9565b6040516102e29190613997565b60405180910390f35b61030560048036038101906103009190613a6d565b610a14565b6040516103129190613a52565b60405180910390f35b61033560048036038101906103309190613a6d565b610a4a565b6040516103429190613b2a565b60405180910390f35b61036560048036038101906103609190613a6d565b610ade565b6040516103729190613997565b60405180910390f35b61039560048036038101906103909190613d49565b610b1c565b005b6103b160048036038101906103ac9190613a6d565b610bbd565b6040516103be9190613a52565b60405180910390f35b6103e160048036038101906103dc9190613a6d565b610be7565b6040516103ee9190613a52565b60405180910390f35b610411600480360381019061040c9190613a6d565b610c20565b60405161041e9190613a52565b60405180910390f35b610441600480360381019061043c9190613e18565b610c45565b005b61045d60048036038101906104589190613f1b565b610f2a565b60405161046a9190614051565b60405180910390f35b61048d60048036038101906104889190613a6d565b611043565b60405161049a9190613a52565b60405180910390f35b6104bd60048036038101906104b89190613a6d565b611075565b6040516104ca9190613a52565b60405180910390f35b6104ed60048036038101906104e89190613e18565b6110ad565b005b61050960048036038101906105049190613a6d565b61135e565b6040516105169190613997565b60405180910390f35b61053960048036038101906105349190613a6d565b6113b7565b6040516105469190613a52565b60405180910390f35b61056960048036038101906105649190613e18565b6113e1565b005b61058560048036038101906105809190613a6d565b61159b565b6040516105929190613a52565b60405180910390f35b6105b560048036038101906105b09190613a6d565b6115be565b6040516105c29190613997565b60405180910390f35b6105e560048036038101906105e09190613a6d565b6115f1565b6040516105f29190613a52565b60405180910390f35b61061560048036038101906106109190613a6d565b611613565b6040516106229190613997565b60405180910390f35b6106456004803603810190610640919061409f565b611651565b005b610661600480360381019061065c9190613a6d565b611667565b005b61067d60048036038101906106789190613e18565b6118d4565b005b61069960048036038101906106949190613a6d565b611a8e565b6040516106a69190613997565b60405180910390f35b6106c960048036038101906106c49190613e18565b611aae565b005b6106e560048036038101906106e09190613a6d565b611c6b565b005b61070160048036038101906106fc919061413a565b611eb2565b60405161070e9190613997565b60405180910390f35b610731600480360381019061072c9190613a6d565b61212e565b6040516107479a9998979695949392919061422c565b60405180910390f35b61076a60048036038101906107659190613a6d565b6122a2565b6040516107779190613997565b60405180910390f35b61079a60048036038101906107959190613e18565b6122d5565b005b6107a46124d4565b6040516107b19190613997565b60405180910390f35b6107d460048036038101906107cf9190613a6d565b612575565b005b6107f060048036038101906107eb91906142cf565b612780565b6040516107fd9190613a52565b60405180910390f35b610820600480360381019061081b919061430f565b612814565b005b60008073ffffffffffffffffffffffffffffffffffffffff168373ffffffffffffffffffffffffffffffffffffffff1603610892576040517f08c379a000000000000000000000000000000000000000000000000000000000815260040161088990614418565b60405180910390fd5b60008083815260200190815260200160002060008473ffffffffffffffffffffffffffffffffffffffff1673ffffffffffffffffffffffffffffffffffffffff16815260200190815260200160002054905092915050565b60007fd9b67a26000000000000000000000000000000000000000000000000000000007bffffffffffffffffffffffffffffffffffffffffffffffffffffffff1916827bffffffffffffffffffffffffffffffffffffffffffffffffffffffff191614806109b557507f0e89341c000000000000000000000000000000000000000000000000000000007bffffffffffffffffffffffffffffffffffffffffffffffffffffffff1916827bffffffffffffffffffffffffffffffffffffffffffffffffffffffff1916145b806109c557506109c4826128b5565b5b9050919050565b600060076000838152602001908152602001600020549050919050565b6000600460008381526020019081526020016000206002015442610a0d9190614467565b9050919050565b60006004600083815260200190815260200160002060080154600560008481526020019081526020016000205410159050919050565b606060028054610a59906144ca565b80601f0160208091040260200160405190810160405280929190818152602001828054610a85906144ca565b8015610ad25780601f10610aa757610100808354040283529160200191610ad2565b820191906000526020600020905b815481529060010190602001808311610ab557829003601f168201915b50505050509050919050565b600060056000838152602001908152602001600020546004600084815260200190815260200160002060010154610b1591906144fb565b9050919050565b610b2461291f565b73ffffffffffffffffffffffffffffffffffffffff168573ffffffffffffffffffffffffffffffffffffffff161480610b6a5750610b6985610b6461291f565b612780565b5b610ba9576040517f08c379a0000000000000000000000000000000000000000000000000000000008152600401610ba0906145af565b60405180910390fd5b610bb68585858585612927565b5050505050565b6000600a600083815260200190815260200160002060009054906101000a900460ff169050919050565b6000610bf2826115f1565b8015610c195750610c028261135e565b600760008481526020019081526020016000205410155b9050919050565b6000610c2b8261159b565b158015610c3e5750610c3c82610a14565b155b9050919050565b7f000000000000000000000000000000000000000000000000000000000000000073ffffffffffffffffffffffffffffffffffffffff163373ffffffffffffffffffffffffffffffffffffffff1614610cd3576040517f08c379a0000000000000000000000000000000000000000000000000000000008152600401610cca9061461b565b60405180910390fd5b610cdc8261159b565b15610d1c576040517f08c379a0000000000000000000000000000000000000000000000000000000008152600401610d1390614687565b60405180910390fd5b610d2582610c20565b15610d65576040517f08c379a0000000000000000000000000000000000000000000000000000000008152600401610d5c90614687565b60405180910390fd5b610d6e826113b7565b15610dae576040517f08c379a0000000000000000000000000000000000000000000000000000000008152600401610da590614719565b60405180910390fd5b610db782610bbd565b80610dc75750610dc682611075565b5b15610e07576040517f08c379a0000000000000000000000000000000000000000000000000000000008152600401610dfe906147ab565b60405180910390fd5b6007600083815260200190815260200160002054811115610e5d576040517f08c379a0000000000000000000000000000000000000000000000000000000008152600401610e549061483d565b60405180910390fd5b80600760008481526020019081526020016000206000828254610e809190614467565b925050819055507f000000000000000000000000000000000000000000000000000000000000000073ffffffffffffffffffffffffffffffffffffffff1663a9059cbb33836040518363ffffffff1660e01b8152600401610ee292919061486c565b6020604051808303816000875af1158015610f01573d6000803e3d6000fd5b505050506040513d601f19601f82011682018060405250810190610f2591906148aa565b505050565b60608151835114610f70576040517f08c379a0000000000000000000000000000000000000000000000000000000008152600401610f6790614949565b60405180910390fd5b6000835167ffffffffffffffff811115610f8d57610f8c613b51565b5b604051908082528060200260200182016040528015610fbb5781602001602082028036833780820191505090505b50905060005b845181101561103857611008858281518110610fe057610fdf614969565b5b6020026020010151858381518110610ffb57610ffa614969565b5b6020026020010151610822565b82828151811061101b5761101a614969565b5b6020026020010181815250508061103190614998565b9050610fc1565b508091505092915050565b600060056000838152602001908152602001600020546006600084815260200190815260200160002054149050919050565b6000611080826115f1565b80156110a657506110908261135e565b6007600084815260200190815260200160002054105b9050919050565b6110b68261159b565b6110f5576040517f08c379a00000000000000000000000000000000000000000000000000000000081526004016110ec90614a2c565b60405180910390fd5b806110ff83611613565b1015611140576040517f08c379a000000000000000000000000000000000000000000000000000000000815260040161113790614abe565b60405180910390fd5b60006004600084815260200190815260200160002060405180610140016040529081600082018054611171906144ca565b80601f016020809104026020016040519081016040528092919081815260200182805461119d906144ca565b80156111ea5780601f106111bf576101008083540402835291602001916111ea565b820191906000526020600020905b8154815290600101906020018083116111cd57829003601f168201915b5050505050815260200160018201548152602001600282015481526020016003820154815260200160048201548152602001600582015481526020016006820154815260200160078201548152602001600882015481526020016009820154815250509050600081602001518361126191906144fb565b90507f000000000000000000000000000000000000000000000000000000000000000073ffffffffffffffffffffffffffffffffffffffff166323b872dd3330846040518463ffffffff1660e01b81526004016112c093929190614ade565b6020604051808303816000875af11580156112df573d6000803e3d6000fd5b505050506040513d601f19601f8201168201806040525081019061130391906148aa565b50826005600086815260200190815260200160002060008282546113279190614b15565b92505081905550806007600086815260200190815260200160002060008282546113519190614b15565b9250508190555050505050565b6000670de0b6b3a7640000600460008481526020019081526020016000206009015461138984610ade565b61139391906144fb565b61139d9190614b78565b6113a683610ade565b6113b09190614b15565b9050919050565b6000600b600083815260200190815260200160002060009054906101000a900460ff169050919050565b6113ea826113b7565b611429576040517f08c379a000000000000000000000000000000000000000000000000000000000815260040161142090614bf5565b60405180910390fd5b806114343384610822565b1015611475576040517f08c379a000000000000000000000000000000000000000000000000000000000815260040161146c90614c61565b60405180910390fd5b611480338383612c48565b806006600084815260200190815260200160002060008282546114a39190614b15565b9250508190555060006009600084815260200190815260200160002054826114cb91906144fb565b90507f000000000000000000000000000000000000000000000000000000000000000073ffffffffffffffffffffffffffffffffffffffff1663a9059cbb33836040518363ffffffff1660e01b815260040161152892919061486c565b6020604051808303816000875af1158015611547573d6000803e3d6000fd5b505050506040513d601f19601f8201168201806040525081019061156b91906148aa565b508060076000858152602001908152602001600020600082825461158f9190614467565b92505081905550505050565b600060046000838152602001908152602001600020600401544211159050919050565b60006115c9826109e9565b60046000848152602001908152602001600020600501546115ea9190614467565b9050919050565b6000600460008381526020019081526020016000206003015442119050919050565b60006005600083815260200190815260200160002054600460008481526020019081526020016000206007015461164a9190614467565b9050919050565b61166361165c61291f565b8383612e8e565b5050565b61167081610bbd565b158015611682575061168181611075565b5b6116c1576040517f08c379a00000000000000000000000000000000000000000000000000000000081526004016116b890614ccd565b60405180910390fd5b60006116cc8261135e565b905060006103e860076000858152602001908152602001600020546116f19190614b78565b905060008160076000868152602001908152602001600020546117149190614467565b90506005600085815260200190815260200160002054816117359190614b78565b600860008681526020019081526020016000208190555060006005600086815260200190815260200160002054600860008781526020019081526020016000205461178091906144fb565b8261178b9190614467565b90506000818461179b9190614b15565b9050806007600088815260200190815260200160002060008282546117c09190614467565b925050819055506001600a600088815260200190815260200160002060006101000a81548160ff0219169083151502179055507f000000000000000000000000000000000000000000000000000000000000000073ffffffffffffffffffffffffffffffffffffffff1663a9059cbb33836040518363ffffffff1660e01b815260040161184e92919061486c565b6020604051808303816000875af115801561186d573d6000803e3d6000fd5b505050506040513d601f19601f8201168201806040525081019061189191906148aa565b50857fc4f17a65d54873d57229ea5f59c4ddec592d095bc17581372676402c8228b9cd86856040516118c4929190614ced565b60405180910390a2505050505050565b6118dd82610bbd565b61191c576040517f08c379a000000000000000000000000000000000000000000000000000000000815260040161191390614ccd565b60405180910390fd5b806119273384610822565b1015611968576040517f08c379a000000000000000000000000000000000000000000000000000000000815260040161195f90614c61565b60405180910390fd5b611973338383612c48565b806006600084815260200190815260200160002060008282546119969190614b15565b9250508190555060006008600084815260200190815260200160002054826119be91906144fb565b90507f000000000000000000000000000000000000000000000000000000000000000073ffffffffffffffffffffffffffffffffffffffff1663a9059cbb33836040518363ffffffff1660e01b8152600401611a1b92919061486c565b6020604051808303816000875af1158015611a3a573d6000803e3d6000fd5b505050506040513d601f19601f82011682018060405250810190611a5e91906148aa565b5080600760008581526020019081526020016000206000828254611a829190614467565b92505081905550505050565b600060046000838152602001908152602001600020600901549050919050565b611ab782610c20565b611af6576040517f08c379a0000000000000000000000000000000000000000000000000000000008152600401611aed90614d62565b60405180910390fd5b80611b013384610822565b1015611b42576040517f08c379a0000000000000000000000000000000000000000000000000000000008152600401611b3990614c61565b60405180910390fd5b611b4d338383612c48565b80600660008481526020019081526020016000206000828254611b709190614b15565b925050819055506000600460008481526020019081526020016000206001015482611b9b91906144fb565b90507f000000000000000000000000000000000000000000000000000000000000000073ffffffffffffffffffffffffffffffffffffffff1663a9059cbb33836040518363ffffffff1660e01b8152600401611bf892919061486c565b6020604051808303816000875af1158015611c17573d6000803e3d6000fd5b505050506040513d601f19601f82011682018060405250810190611c3b91906148aa565b5080600760008581526020019081526020016000206000828254611c5f9190614467565b92505081905550505050565b611c74816113b7565b158015611c865750611c8581610be7565b5b611cc5576040517f08c379a0000000000000000000000000000000000000000000000000000000008152600401611cbc90614dce565b60405180910390fd5b6000611cd08261135e565b905060006103e882611ce29190614b78565b905060008183611cf29190614467565b9050600560008581526020019081526020016000205481611d139190614b78565b6009600086815260200190815260200160002081905550600060056000868152602001908152602001600020546009600087815260200190815260200160002054611d5e91906144fb565b82611d699190614467565b905060008184611d799190614b15565b905080600760008881526020019081526020016000206000828254611d9e9190614467565b925050819055506001600b600088815260200190815260200160002060006101000a81548160ff0219169083151502179055507f000000000000000000000000000000000000000000000000000000000000000073ffffffffffffffffffffffffffffffffffffffff1663a9059cbb33836040518363ffffffff1660e01b8152600401611e2c92919061486c565b6020604051808303816000875af1158015611e4b573d6000803e3d6000fd5b505050506040513d601f19601f82011682018060405250810190611e6f91906148aa565b50857fac2eeaf45d1b75aed6b3285cda3efb3c382cce02ba313558bbb90be57f8843e48685604051611ea2929190614ced565b60405180910390a2505050505050565b60007f000000000000000000000000000000000000000000000000000000000000000073ffffffffffffffffffffffffffffffffffffffff163373ffffffffffffffffffffffffffffffffffffffff1614611f42576040517f08c379a0000000000000000000000000000000000000000000000000000000008152600401611f399061461b565b60405180910390fd5b848410611f84576040517f08c379a0000000000000000000000000000000000000000000000000000000008152600401611f7b90614e60565b60405180910390fd5b6001600354611f939190614b15565b9050611fa133828c85612ffa565b60405180610140016040528088888080601f016020809104026020016040519081016040528093929190818152602001838380828437600081840152601f19601f820116905080830192505050505050508152602001898152602001428152602001620151808761201291906144fb565b4261201d9190614b15565b8152602001620151808661203191906144fb565b4261203c9190614b15565b81526020018581526020018681526020018b81526020018a815260200184815250600460008381526020019081526020016000206000820151816000019081612085919061502c565b506020820151816001015560408201518160020155606082015181600301556080820151816004015560a0820151816005015560c0820151816006015560e0820151816007015561010082015181600801556101208201518160090155905050807f3e5b89bff97cb92eafe4cd460ef4aa43d6feef1428595fe038182876515968fd8b8a86604051612119939291906150fe565b60405180910390a29998505050505050505050565b6060600080600080600080600080600080600460008d81526020019081526020016000206040518061014001604052908160008201805461216e906144ca565b80601f016020809104026020016040519081016040528092919081815260200182805461219a906144ca565b80156121e75780601f106121bc576101008083540402835291602001916121e7565b820191906000526020600020905b8154815290600101906020018083116121ca57829003601f168201915b5050505050815260200160018201548152602001600282015481526020016003820154815260200160048201548152602001600582015481526020016006820154815260200160078201548152602001600882015481526020016009820154815250509050806000015181602001518260400151836060015184608001518560a001518660c001518760e001518861010001518961012001519a509a509a509a509a509a509a509a509a509a50509193959799509193959799565b60006122ad826109e9565b60046000848152602001908152602001600020600601546122ce9190614467565b9050919050565b7f000000000000000000000000000000000000000000000000000000000000000073ffffffffffffffffffffffffffffffffffffffff163373ffffffffffffffffffffffffffffffffffffffff1614612363576040517f08c379a000000000000000000000000000000000000000000000000000000000815260040161235a9061461b565b60405180910390fd5b61236c82610bbd565b8061237c575061237b82611075565b5b156123bc576040517f08c379a00000000000000000000000000000000000000000000000000000000081526004016123b390615181565b60405180910390fd5b6123c5826113b7565b15612405576040517f08c379a00000000000000000000000000000000000000000000000000000000081526004016123fc906151ed565b60405180910390fd5b806007600084815260200190815260200160002060008282546124289190614b15565b925050819055507f000000000000000000000000000000000000000000000000000000000000000073ffffffffffffffffffffffffffffffffffffffff166323b872dd3330846040518463ffffffff1660e01b815260040161248c93929190614ade565b6020604051808303816000875af11580156124ab573d6000803e3d6000fd5b505050506040513d601f19601f820116820180604052508101906124cf91906148aa565b505050565b60007f000000000000000000000000000000000000000000000000000000000000000073ffffffffffffffffffffffffffffffffffffffff166370a08231306040518263ffffffff1660e01b815260040161252f919061520d565b602060405180830381865afa15801561254c573d6000803e3d6000fd5b505050506040513d601f19601f82011682018060405250810190612570919061523d565b905090565b7f000000000000000000000000000000000000000000000000000000000000000073ffffffffffffffffffffffffffffffffffffffff163373ffffffffffffffffffffffffffffffffffffffff1614612603576040517f08c379a00000000000000000000000000000000000000000000000000000000081526004016125fa9061461b565b60405180910390fd5b61260c816113b7565b801561261d575061261c81611043565b5b61265c576040517f08c379a0000000000000000000000000000000000000000000000000000000008152600401612653906152b6565b60405180910390fd5b60006007600083815260200190815260200160002054116126b2576040517f08c379a00000000000000000000000000000000000000000000000000000000081526004016126a990615322565b60405180910390fd5b600060076000838152602001908152602001600020819055507f000000000000000000000000000000000000000000000000000000000000000073ffffffffffffffffffffffffffffffffffffffff1663a9059cbb3360076000858152602001908152602001600020546040518363ffffffff1660e01b815260040161273992919061486c565b6020604051808303816000875af1158015612758573d6000803e3d6000fd5b505050506040513d601f19601f8201168201806040525081019061277c91906148aa565b5050565b6000600160008473ffffffffffffffffffffffffffffffffffffffff1673ffffffffffffffffffffffffffffffffffffffff16815260200190815260200160002060008373ffffffffffffffffffffffffffffffffffffffff1673ffffffffffffffffffffffffffffffffffffffff16815260200190815260200160002060009054906101000a900460ff16905092915050565b61281c61291f565b73ffffffffffffffffffffffffffffffffffffffff168573ffffffffffffffffffffffffffffffffffffffff16148061286257506128618561285c61291f565b612780565b5b6128a1576040517f08c379a0000000000000000000000000000000000000000000000000000000008152600401612898906145af565b60405180910390fd5b6128ae85858585856131aa565b5050505050565b60007f01ffc9a7000000000000000000000000000000000000000000000000000000007bffffffffffffffffffffffffffffffffffffffffffffffffffffffff1916827bffffffffffffffffffffffffffffffffffffffffffffffffffffffff1916149050919050565b600033905090565b815183511461296b576040517f08c379a0000000000000000000000000000000000000000000000000000000008152600401612962906153b4565b60405180910390fd5b600073ffffffffffffffffffffffffffffffffffffffff168473ffffffffffffffffffffffffffffffffffffffff16036129da576040517f08c379a00000000000000000000000000000000000000000000000000000000081526004016129d190615446565b60405180910390fd5b60006129e461291f565b90506129f4818787878787613445565b60005b8451811015612ba5576000858281518110612a1557612a14614969565b5b602002602001015190506000858381518110612a3457612a33614969565b5b60200260200101519050600080600084815260200190815260200160002060008b73ffffffffffffffffffffffffffffffffffffffff1673ffffffffffffffffffffffffffffffffffffffff16815260200190815260200160002054905081811015612ad5576040517f08c379a0000000000000000000000000000000000000000000000000000000008152600401612acc906154d8565b60405180910390fd5b81810360008085815260200190815260200160002060008c73ffffffffffffffffffffffffffffffffffffffff1673ffffffffffffffffffffffffffffffffffffffff168152602001908152602001600020819055508160008085815260200190815260200160002060008b73ffffffffffffffffffffffffffffffffffffffff1673ffffffffffffffffffffffffffffffffffffffff1681526020019081526020016000206000828254612b8a9190614b15565b9250508190555050505080612b9e90614998565b90506129f7565b508473ffffffffffffffffffffffffffffffffffffffff168673ffffffffffffffffffffffffffffffffffffffff168273ffffffffffffffffffffffffffffffffffffffff167f4a39dc06d4c0dbc64b70af90fd698a233a518aa5d07e595d983b8c0526c8f7fb8787604051612c1c9291906154f8565b60405180910390a4612c3281878787878761344d565b612c40818787878787613455565b505050505050565b600073ffffffffffffffffffffffffffffffffffffffff168373ffffffffffffffffffffffffffffffffffffffff1603612cb7576040517f08c379a0000000000000000000000000000000000000000000000000000000008152600401612cae906155a1565b60405180910390fd5b6000612cc161291f565b90506000612cce8461362c565b90506000612cdb8461362c565b9050612cfb83876000858560405180602001604052806000815250613445565b600080600087815260200190815260200160002060008873ffffffffffffffffffffffffffffffffffffffff1673ffffffffffffffffffffffffffffffffffffffff16815260200190815260200160002054905084811015612d92576040517f08c379a0000000000000000000000000000000000000000000000000000000008152600401612d8990615633565b60405180910390fd5b84810360008088815260200190815260200160002060008973ffffffffffffffffffffffffffffffffffffffff1673ffffffffffffffffffffffffffffffffffffffff16815260200190815260200160002081905550600073ffffffffffffffffffffffffffffffffffffffff168773ffffffffffffffffffffffffffffffffffffffff168573ffffffffffffffffffffffffffffffffffffffff167fc3d58168c5ae7397731d063d5bbf3d657854427343f4c083240f7aacaa2d0f628989604051612e5f929190614ced565b60405180910390a4612e858488600086866040518060200160405280600081525061344d565b50505050505050565b8173ffffffffffffffffffffffffffffffffffffffff168373ffffffffffffffffffffffffffffffffffffffff1603612efc576040517f08c379a0000000000000000000000000000000000000000000000000000000008152600401612ef3906156c5565b60405180910390fd5b80600160008573ffffffffffffffffffffffffffffffffffffffff1673ffffffffffffffffffffffffffffffffffffffff16815260200190815260200160002060008473ffffffffffffffffffffffffffffffffffffffff1673ffffffffffffffffffffffffffffffffffffffff16815260200190815260200160002060006101000a81548160ff0219169083151502179055508173ffffffffffffffffffffffffffffffffffffffff168373ffffffffffffffffffffffffffffffffffffffff167f17307eab39ab6107e8899845ad3d59bd9653f200f220920489ca2b5937696c3183604051612fed9190613a52565b60405180910390a3505050565b600073ffffffffffffffffffffffffffffffffffffffff168473ffffffffffffffffffffffffffffffffffffffff1603613069576040517f08c379a000000000000000000000000000000000000000000000000000000000815260040161306090615757565b60405180910390fd5b600061307361291f565b905060006130808561362c565b9050600061308d8561362c565b905061309e83600089858589613445565b8460008088815260200190815260200160002060008973ffffffffffffffffffffffffffffffffffffffff1673ffffffffffffffffffffffffffffffffffffffff16815260200190815260200160002060008282546130fd9190614b15565b925050819055508673ffffffffffffffffffffffffffffffffffffffff16600073ffffffffffffffffffffffffffffffffffffffff168473ffffffffffffffffffffffffffffffffffffffff167fc3d58168c5ae7397731d063d5bbf3d657854427343f4c083240f7aacaa2d0f62898960405161317b929190614ced565b60405180910390a46131928360008985858961344d565b6131a1836000898989896136a6565b50505050505050565b600073ffffffffffffffffffffffffffffffffffffffff168473ffffffffffffffffffffffffffffffffffffffff1603613219576040517f08c379a000000000000000000000000000000000000000000000000000000000815260040161321090615446565b60405180910390fd5b600061322361291f565b905060006132308561362c565b9050600061323d8561362c565b905061324d838989858589613445565b600080600088815260200190815260200160002060008a73ffffffffffffffffffffffffffffffffffffffff1673ffffffffffffffffffffffffffffffffffffffff168152602001908152602001600020549050858110156132e4576040517f08c379a00000000000000000000000000000000000000000000000000000000081526004016132db906154d8565b60405180910390fd5b85810360008089815260200190815260200160002060008b73ffffffffffffffffffffffffffffffffffffffff1673ffffffffffffffffffffffffffffffffffffffff168152602001908152602001600020819055508560008089815260200190815260200160002060008a73ffffffffffffffffffffffffffffffffffffffff1673ffffffffffffffffffffffffffffffffffffffff16815260200190815260200160002060008282546133999190614b15565b925050819055508773ffffffffffffffffffffffffffffffffffffffff168973ffffffffffffffffffffffffffffffffffffffff168573ffffffffffffffffffffffffffffffffffffffff167fc3d58168c5ae7397731d063d5bbf3d657854427343f4c083240f7aacaa2d0f628a8a604051613416929190614ced565b60405180910390a461342c848a8a86868a61344d565b61343a848a8a8a8a8a6136a6565b505050505050505050565b505050505050565b505050505050565b6134748473ffffffffffffffffffffffffffffffffffffffff1661387d565b15613624578373ffffffffffffffffffffffffffffffffffffffff1663bc197c8187878686866040518663ffffffff1660e01b81526004016134ba9594939291906157cc565b6020604051808303816000875af19250505080156134f657506040513d601f19601f820116820180604052508101906134f39190615849565b60015b61359b57613502615883565b806308c379a00361355e57506135166158a5565b806135215750613560565b806040517f08c379a00000000000000000000000000000000000000000000000000000000081526004016135559190613b2a565b60405180910390fd5b505b6040517f08c379a0000000000000000000000000000000000000000000000000000000008152600401613592906159a7565b60405180910390fd5b63bc197c8160e01b7bffffffffffffffffffffffffffffffffffffffffffffffffffffffff1916817bffffffffffffffffffffffffffffffffffffffffffffffffffffffff191614613622576040517f08c379a000000000000000000000000000000000000000000000000000000000815260040161361990615a39565b60405180910390fd5b505b505050505050565b60606000600167ffffffffffffffff81111561364b5761364a613b51565b5b6040519080825280602002602001820160405280156136795781602001602082028036833780820191505090505b509050828160008151811061369157613690614969565b5b60200260200101818152505080915050919050565b6136c58473ffffffffffffffffffffffffffffffffffffffff1661387d565b15613875578373ffffffffffffffffffffffffffffffffffffffff1663f23a6e6187878686866040518663ffffffff1660e01b815260040161370b959493929190615a59565b6020604051808303816000875af192505050801561374757506040513d601f19601f820116820180604052508101906137449190615849565b60015b6137ec57613753615883565b806308c379a0036137af57506137676158a5565b8061377257506137b1565b806040517f08c379a00000000000000000000000000000000000000000000000000000000081526004016137a69190613b2a565b60405180910390fd5b505b6040517f08c379a00000000000000000000000000000000000000000000000000000000081526004016137e3906159a7565b60405180910390fd5b63f23a6e6160e01b7bffffffffffffffffffffffffffffffffffffffffffffffffffffffff1916817bffffffffffffffffffffffffffffffffffffffffffffffffffffffff191614613873576040517f08c379a000000000000000000000000000000000000000000000000000000000815260040161386a90615a39565b60405180910390fd5b505b505050505050565b6000808273ffffffffffffffffffffffffffffffffffffffff163b119050919050565b6000604051905090565b600080fd5b600080fd5b600073ffffffffffffffffffffffffffffffffffffffff82169050919050565b60006138df826138b4565b9050919050565b6138ef816138d4565b81146138fa57600080fd5b50565b60008135905061390c816138e6565b92915050565b6000819050919050565b61392581613912565b811461393057600080fd5b50565b6000813590506139428161391c565b92915050565b6000806040838503121561395f5761395e6138aa565b5b600061396d858286016138fd565b925050602061397e85828601613933565b9150509250929050565b61399181613912565b82525050565b60006020820190506139ac6000830184613988565b92915050565b60007fffffffff0000000000000000000000000000000000000000000000000000000082169050919050565b6139e7816139b2565b81146139f257600080fd5b50565b600081359050613a04816139de565b92915050565b600060208284031215613a2057613a1f6138aa565b5b6000613a2e848285016139f5565b91505092915050565b60008115159050919050565b613a4c81613a37565b82525050565b6000602082019050613a676000830184613a43565b92915050565b600060208284031215613a8357613a826138aa565b5b6000613a9184828501613933565b91505092915050565b600081519050919050565b600082825260208201905092915050565b60005b83811015613ad4578082015181840152602081019050613ab9565b60008484015250505050565b6000601f19601f8301169050919050565b6000613afc82613a9a565b613b068185613aa5565b9350613b16818560208601613ab6565b613b1f81613ae0565b840191505092915050565b60006020820190508181036000830152613b448184613af1565b905092915050565b600080fd5b7f4e487b7100000000000000000000000000000000000000000000000000000000600052604160045260246000fd5b613b8982613ae0565b810181811067ffffffffffffffff82111715613ba857613ba7613b51565b5b80604052505050565b6000613bbb6138a0565b9050613bc78282613b80565b919050565b600067ffffffffffffffff821115613be757613be6613b51565b5b602082029050602081019050919050565b600080fd5b6000613c10613c0b84613bcc565b613bb1565b90508083825260208201905060208402830185811115613c3357613c32613bf8565b5b835b81811015613c5c5780613c488882613933565b845260208401935050602081019050613c35565b5050509392505050565b600082601f830112613c7b57613c7a613b4c565b5b8135613c8b848260208601613bfd565b91505092915050565b600080fd5b600067ffffffffffffffff821115613cb457613cb3613b51565b5b613cbd82613ae0565b9050602081019050919050565b82818337600083830152505050565b6000613cec613ce784613c99565b613bb1565b905082815260208101848484011115613d0857613d07613c94565b5b613d13848285613cca565b509392505050565b600082601f830112613d3057613d2f613b4c565b5b8135613d40848260208601613cd9565b91505092915050565b600080600080600060a08688031215613d6557613d646138aa565b5b6000613d73888289016138fd565b9550506020613d84888289016138fd565b945050604086013567ffffffffffffffff811115613da557613da46138af565b5b613db188828901613c66565b935050606086013567ffffffffffffffff811115613dd257613dd16138af565b5b613dde88828901613c66565b925050608086013567ffffffffffffffff811115613dff57613dfe6138af565b5b613e0b88828901613d1b565b9150509295509295909350565b60008060408385031215613e2f57613e2e6138aa565b5b6000613e3d85828601613933565b9250506020613e4e85828601613933565b9150509250929050565b600067ffffffffffffffff821115613e7357613e72613b51565b5b602082029050602081019050919050565b6000613e97613e9284613e58565b613bb1565b90508083825260208201905060208402830185811115613eba57613eb9613bf8565b5b835b81811015613ee35780613ecf88826138fd565b845260208401935050602081019050613ebc565b5050509392505050565b600082601f830112613f0257613f01613b4c565b5b8135613f12848260208601613e84565b91505092915050565b60008060408385031215613f3257613f316138aa565b5b600083013567ffffffffffffffff811115613f5057613f4f6138af565b5b613f5c85828601613eed565b925050602083013567ffffffffffffffff811115613f7d57613f7c6138af565b5b613f8985828601613c66565b9150509250929050565b600081519050919050565b600082825260208201905092915050565b6000819050602082019050919050565b613fc881613912565b82525050565b6000613fda8383613fbf565b60208301905092915050565b6000602082019050919050565b6000613ffe82613f93565b6140088185613f9e565b935061401383613faf565b8060005b8381101561404457815161402b8882613fce565b975061403683613fe6565b925050600181019050614017565b5085935050505092915050565b6000602082019050818103600083015261406b8184613ff3565b905092915050565b61407c81613a37565b811461408757600080fd5b50565b60008135905061409981614073565b92915050565b600080604083850312156140b6576140b56138aa565b5b60006140c4858286016138fd565b92505060206140d58582860161408a565b9150509250929050565b600080fd5b60008083601f8401126140fa576140f9613b4c565b5b8235905067ffffffffffffffff811115614117576141166140df565b5b60208301915083600182028301111561413357614132613bf8565b5b9250929050565b60008060008060008060008060006101008a8c03121561415d5761415c6138aa565b5b600061416b8c828d01613933565b995050602061417c8c828d01613933565b985050604061418d8c828d01613933565b97505060608a013567ffffffffffffffff8111156141ae576141ad6138af565b5b6141ba8c828d016140e4565b965096505060806141cd8c828d01613933565b94505060a06141de8c828d01613933565b93505060c06141ef8c828d01613933565b92505060e08a013567ffffffffffffffff8111156142105761420f6138af565b5b61421c8c828d01613d1b565b9150509295985092959850929598565b6000610140820190508181036000830152614247818d613af1565b9050614256602083018c613988565b614263604083018b613988565b614270606083018a613988565b61427d6080830189613988565b61428a60a0830188613988565b61429760c0830187613988565b6142a460e0830186613988565b6142b2610100830185613988565b6142c0610120830184613988565b9b9a5050505050505050505050565b600080604083850312156142e6576142e56138aa565b5b60006142f4858286016138fd565b9250506020614305858286016138fd565b9150509250929050565b600080600080600060a0868803121561432b5761432a6138aa565b5b6000614339888289016138fd565b955050602061434a888289016138fd565b945050604061435b88828901613933565b935050606061436c88828901613933565b925050608086013567ffffffffffffffff81111561438d5761438c6138af565b5b61439988828901613d1b565b9150509295509295909350565b7f455243313135353a2061646472657373207a65726f206973206e6f742061207660008201527f616c6964206f776e657200000000000000000000000000000000000000000000602082015250565b6000614402602a83613aa5565b915061440d826143a6565b604082019050919050565b60006020820190508181036000830152614431816143f5565b9050919050565b7f4e487b7100000000000000000000000000000000000000000000000000000000600052601160045260246000fd5b600061447282613912565b915061447d83613912565b925082820390508181111561449557614494614438565b5b92915050565b7f4e487b7100000000000000000000000000000000000000000000000000000000600052602260045260246000fd5b600060028204905060018216806144e257607f821691505b6020821081036144f5576144f461449b565b5b50919050565b600061450682613912565b915061451183613912565b925082820261451f81613912565b9150828204841483151761453657614535614438565b5b5092915050565b7f455243313135353a2063616c6c6572206973206e6f7420746f6b656e206f776e60008201527f6572206f7220617070726f766564000000000000000000000000000000000000602082015250565b6000614599602e83613aa5565b91506145a48261453d565b604082019050919050565b600060208201905081810360008301526145c88161458c565b9050919050565b7f43616c6c6572206973206e6f7420746865206f776e6572000000000000000000600082015250565b6000614605601783613aa5565b9150614610826145cf565b602082019050919050565b60006020820190508181036000830152614634816145f8565b9050919050565b7f5769746864726177206e6f7420616c6c6f776564207768656e20616374697665600082015250565b6000614671602083613aa5565b915061467c8261463b565b602082019050919050565b600060208201905081810360008301526146a081614664565b9050919050565b7f5769746864726177206e6f7420616c6c6f77656420616674657220636f6d706c60008201527f6574696f6e000000000000000000000000000000000000000000000000000000602082015250565b6000614703602583613aa5565b915061470e826146a7565b604082019050919050565b60006020820190508181036000830152614732816146f6565b9050919050565b7f5769746864726177206e6f7420616c6c6f776564207768656e2064656661756c60008201527f7465640000000000000000000000000000000000000000000000000000000000602082015250565b6000614795602383613aa5565b91506147a082614739565b604082019050919050565b600060208201905081810360008301526147c481614788565b9050919050565b7f5769746864726177616c20746f6b656e20616d6f756e7420657863656564732060008201527f746f6b656e20616d6f756e7420696e20636f6e74726163740000000000000000602082015250565b6000614827603883613aa5565b9150614832826147cb565b604082019050919050565b600060208201905081810360008301526148568161481a565b9050919050565b614866816138d4565b82525050565b6000604082019050614881600083018561485d565b61488e6020830184613988565b9392505050565b6000815190506148a481614073565b92915050565b6000602082840312156148c0576148bf6138aa565b5b60006148ce84828501614895565b91505092915050565b7f455243313135353a206163636f756e747320616e6420696473206c656e67746860008201527f206d69736d617463680000000000000000000000000000000000000000000000602082015250565b6000614933602983613aa5565b915061493e826148d7565b604082019050919050565b6000602082019050818103600083015261496281614926565b9050919050565b7f4e487b7100000000000000000000000000000000000000000000000000000000600052603260045260246000fd5b60006149a382613912565b91507fffffffffffffffffffffffffffffffffffffffffffffffffffffffffffffffff82036149d5576149d4614438565b5b600182019050919050565b7f426f6e6420697320696e61637469766500000000000000000000000000000000600082015250565b6000614a16601083613aa5565b9150614a21826149e0565b602082019050919050565b60006020820190508181036000830152614a4581614a09565b9050919050565b7f496e73756666696369656e7420626f6e64207175616e746974792072656d616960008201527f6e696e6700000000000000000000000000000000000000000000000000000000602082015250565b6000614aa8602483613aa5565b9150614ab382614a4c565b604082019050919050565b60006020820190508181036000830152614ad781614a9b565b9050919050565b6000606082019050614af3600083018661485d565b614b00602083018561485d565b614b0d6040830184613988565b949350505050565b6000614b2082613912565b9150614b2b83613912565b9250828201905080821115614b4357614b42614438565b5b92915050565b7f4e487b7100000000000000000000000000000000000000000000000000000000600052601260045260246000fd5b6000614b8382613912565b9150614b8e83613912565b925082614b9e57614b9d614b49565b5b828204905092915050565b7f426f6e64206973206e6f7420636f6d706c657465640000000000000000000000600082015250565b6000614bdf601583613aa5565b9150614bea82614ba9565b602082019050919050565b60006020820190508181036000830152614c0e81614bd2565b9050919050565b7f496e73756666696369656e7420626f6e64207175616e74697479000000000000600082015250565b6000614c4b601a83613aa5565b9150614c5682614c15565b602082019050919050565b60006020820190508181036000830152614c7a81614c3e565b9050919050565b7f426f6e64206973206e6f742064656661756c7465640000000000000000000000600082015250565b6000614cb7601583613aa5565b9150614cc282614c81565b602082019050919050565b60006020820190508181036000830152614ce681614caa565b9050919050565b6000604082019050614d026000830185613988565b614d0f6020830184613988565b9392505050565b7f426f6e64206973206e6f742063616e63656c6564000000000000000000000000600082015250565b6000614d4c601483613aa5565b9150614d5782614d16565b602082019050919050565b60006020820190508181036000830152614d7b81614d3f565b9050919050565b7f426f6e6420697320616c726561647920636f6d706c6574656400000000000000600082015250565b6000614db8601983613aa5565b9150614dc382614d82565b602082019050919050565b60006020820190508181036000830152614de781614dab565b9050919050565b7f416374697665206475726174696f6e2073686f756c642062652073686f72746560008201527f72207468616e206475726174696f6e0000000000000000000000000000000000602082015250565b6000614e4a602f83613aa5565b9150614e5582614dee565b604082019050919050565b60006020820190508181036000830152614e7981614e3d565b9050919050565b60008190508160005260206000209050919050565b60006020601f8301049050919050565b600082821b905092915050565b600060088302614ee27fffffffffffffffffffffffffffffffffffffffffffffffffffffffffffffffff82614ea5565b614eec8683614ea5565b95508019841693508086168417925050509392505050565b6000819050919050565b6000614f29614f24614f1f84613912565b614f04565b613912565b9050919050565b6000819050919050565b614f4383614f0e565b614f57614f4f82614f30565b848454614eb2565b825550505050565b600090565b614f6c614f5f565b614f77818484614f3a565b505050565b5b81811015614f9b57614f90600082614f64565b600181019050614f7d565b5050565b601f821115614fe057614fb181614e80565b614fba84614e95565b81016020851015614fc9578190505b614fdd614fd585614e95565b830182614f7c565b50505b505050565b600082821c905092915050565b600061500360001984600802614fe5565b1980831691505092915050565b600061501c8383614ff2565b9150826002028217905092915050565b61503582613a9a565b67ffffffffffffffff81111561504e5761504d613b51565b5b61505882546144ca565b615063828285614f9f565b600060209050601f8311600181146150965760008415615084578287015190505b61508e8582615010565b8655506150f6565b601f1984166150a486614e80565b60005b828110156150cc578489015182556001820191506020850194506020810190506150a7565b868310156150e957848901516150e5601f891682614ff2565b8355505b6001600288020188555050505b505050505050565b60006060820190506151136000830186613988565b6151206020830185613988565b61512d6040830184613988565b949350505050565b7f626f6e642069732064656661756c746564000000000000000000000000000000600082015250565b600061516b601183613aa5565b915061517682615135565b602082019050919050565b6000602082019050818103600083015261519a8161515e565b9050919050565b7f626f6e6420697320636f6d706c65746564000000000000000000000000000000600082015250565b60006151d7601183613aa5565b91506151e2826151a1565b602082019050919050565b60006020820190508181036000830152615206816151ca565b9050919050565b6000602082019050615222600083018461485d565b92915050565b6000815190506152378161391c565b92915050565b600060208284031215615253576152526138aa565b5b600061526184828501615228565b91505092915050565b7f43616e6e6f742077697468647261772065786365737300000000000000000000600082015250565b60006152a0601683613aa5565b91506152ab8261526a565b602082019050919050565b600060208201905081810360008301526152cf81615293565b9050919050565b7f43616e6e6f742077697468647261772066726f6d20656d70747920706f6f6c00600082015250565b600061530c601f83613aa5565b9150615317826152d6565b602082019050919050565b6000602082019050818103600083015261533b816152ff565b9050919050565b7f455243313135353a2069647320616e6420616d6f756e7473206c656e6774682060008201527f6d69736d61746368000000000000000000000000000000000000000000000000602082015250565b600061539e602883613aa5565b91506153a982615342565b604082019050919050565b600060208201905081810360008301526153cd81615391565b9050919050565b7f455243313135353a207472616e7366657220746f20746865207a65726f20616460008201527f6472657373000000000000000000000000000000000000000000000000000000602082015250565b6000615430602583613aa5565b915061543b826153d4565b604082019050919050565b6000602082019050818103600083015261545f81615423565b9050919050565b7f455243313135353a20696e73756666696369656e742062616c616e636520666f60008201527f72207472616e7366657200000000000000000000000000000000000000000000602082015250565b60006154c2602a83613aa5565b91506154cd82615466565b604082019050919050565b600060208201905081810360008301526154f1816154b5565b9050919050565b600060408201905081810360008301526155128185613ff3565b905081810360208301526155268184613ff3565b90509392505050565b7f455243313135353a206275726e2066726f6d20746865207a65726f206164647260008201527f6573730000000000000000000000000000000000000000000000000000000000602082015250565b600061558b602383613aa5565b91506155968261552f565b604082019050919050565b600060208201905081810360008301526155ba8161557e565b9050919050565b7f455243313135353a206275726e20616d6f756e7420657863656564732062616c60008201527f616e636500000000000000000000000000000000000000000000000000000000602082015250565b600061561d602483613aa5565b9150615628826155c1565b604082019050919050565b6000602082019050818103600083015261564c81615610565b9050919050565b7f455243313135353a2073657474696e6720617070726f76616c2073746174757360008201527f20666f722073656c660000000000000000000000000000000000000000000000602082015250565b60006156af602983613aa5565b91506156ba82615653565b604082019050919050565b600060208201905081810360008301526156de816156a2565b9050919050565b7f455243313135353a206d696e7420746f20746865207a65726f2061646472657360008201527f7300000000000000000000000000000000000000000000000000000000000000602082015250565b6000615741602183613aa5565b915061574c826156e5565b604082019050919050565b6000602082019050818103600083015261577081615734565b9050919050565b600081519050919050565b600082825260208201905092915050565b600061579e82615777565b6157a88185615782565b93506157b8818560208601613ab6565b6157c181613ae0565b840191505092915050565b600060a0820190506157e1600083018861485d565b6157ee602083018761485d565b81810360408301526158008186613ff3565b905081810360608301526158148185613ff3565b905081810360808301526158288184615793565b90509695505050505050565b600081519050615843816139de565b92915050565b60006020828403121561585f5761585e6138aa565b5b600061586d84828501615834565b91505092915050565b60008160e01c9050919050565b600060033d11156158a25760046000803e61589f600051615876565b90505b90565b600060443d10615932576158b76138a0565b60043d036004823e80513d602482011167ffffffffffffffff821117156158df575050615932565b808201805167ffffffffffffffff8111156158fd5750505050615932565b80602083010160043d03850181111561591a575050505050615932565b61592982602001850186613b80565b82955050505050505b90565b7f455243313135353a207472616e7366657220746f206e6f6e2d4552433131353560008201527f526563656976657220696d706c656d656e746572000000000000000000000000602082015250565b6000615991603483613aa5565b915061599c82615935565b604082019050919050565b600060208201905081810360008301526159c081615984565b9050919050565b7f455243313135353a204552433131353552656365697665722072656a6563746560008201527f6420746f6b656e73000000000000000000000000000000000000000000000000602082015250565b6000615a23602883613aa5565b9150615a2e826159c7565b604082019050919050565b60006020820190508181036000830152615a5281615a16565b9050919050565b600060a082019050615a6e600083018861485d565b615a7b602083018761485d565b615a886040830186613988565b615a956060830185613988565b8181036080830152615aa78184615793565b9050969550505050505056fea264697066735822122021b0f07fefe6de84f08c4f775004ac0d4fa5d784b4c074e53d7b9147cd8f32c464736f6c63430008110033",
  "linkReferences": {},
  "deployedLinkReferences": {}
}