{
  "_format": "hh-sol-artifact-1",
  "contractName": "BondFactory",
  "sourceName": "contracts/BondFactory.sol",
  "abi": [
    {
      "inputs": [
        {
          "internalType": "string",
          "name": "uri",
          "type": "string"
        },
        {
          "internalType": "address",
          "name": "token",
          "type": "address"
        },
        {
          "internalType": "address",
          "name": "deployer",
          "type": "address"
        }
      ],
      "stateMutability": "nonpayable",
      "type": "constructor"
    },
    {
      "anonymous": false,
      "inputs": [
        {
          "indexed": true,
          "internalType": "address",
          "name": "account",
          "type": "address"
        },
        {
          "indexed": true,
          "internalType": "address",
          "name": "operator",
          "type": "address"
        },
        {
          "indexed": false,
          "internalType": "bool",
          "name": "approved",
          "type": "bool"
        }
      ],
      "name": "ApprovalForAll",
      "type": "event"
    },
    {
      "anonymous": false,
      "inputs": [
        {
          "indexed": true,
          "internalType": "uint256",
          "name": "id",
          "type": "uint256"
        },
        {
          "indexed": false,
          "internalType": "uint256",
          "name": "totalDebt",
          "type": "uint256"
        },
        {
          "indexed": false,
          "internalType": "uint256",
          "name": "paidDebt",
          "type": "uint256"
        }
      ],
      "name": "Completed",
      "type": "event"
    },
    {
      "anonymous": false,
      "inputs": [
        {
          "indexed": true,
          "internalType": "uint256",
          "name": "id",
          "type": "uint256"
        },
        {
          "indexed": false,
          "internalType": "uint256",
          "name": "totalDebt",
          "type": "uint256"
        },
        {
          "indexed": false,
          "internalType": "uint256",
          "name": "paidDebt",
          "type": "uint256"
        }
      ],
      "name": "Defaulted",
      "type": "event"
    },
    {
      "anonymous": false,
      "inputs": [
        {
          "indexed": true,
          "internalType": "uint256",
          "name": "id",
          "type": "uint256"
        },
        {
          "indexed": false,
          "internalType": "uint256",
          "name": "bondQuantity",
          "type": "uint256"
        },
        {
          "indexed": false,
          "internalType": "uint256",
          "name": "tokenAmountPerBond",
          "type": "uint256"
        },
        {
          "indexed": false,
          "internalType": "uint256",
          "name": "couponRate",
          "type": "uint256"
        },
        {
          "indexed": false,
          "internalType": "uint256",
          "name": "maturityDate",
          "type": "uint256"
        }
      ],
      "name": "Issued",
      "type": "event"
    },
    {
      "anonymous": false,
      "inputs": [
        {
          "indexed": true,
          "internalType": "address",
          "name": "operator",
          "type": "address"
        },
        {
          "indexed": true,
          "internalType": "address",
          "name": "from",
          "type": "address"
        },
        {
          "indexed": true,
          "internalType": "address",
          "name": "to",
          "type": "address"
        },
        {
          "indexed": false,
          "internalType": "uint256[]",
          "name": "ids",
          "type": "uint256[]"
        },
        {
          "indexed": false,
          "internalType": "uint256[]",
          "name": "values",
          "type": "uint256[]"
        }
      ],
      "name": "TransferBatch",
      "type": "event"
    },
    {
      "anonymous": false,
      "inputs": [
        {
          "indexed": true,
          "internalType": "address",
          "name": "operator",
          "type": "address"
        },
        {
          "indexed": true,
          "internalType": "address",
          "name": "from",
          "type": "address"
        },
        {
          "indexed": true,
          "internalType": "address",
          "name": "to",
          "type": "address"
        },
        {
          "indexed": false,
          "internalType": "uint256",
          "name": "id",
          "type": "uint256"
        },
        {
          "indexed": false,
          "internalType": "uint256",
          "name": "value",
          "type": "uint256"
        }
      ],
      "name": "TransferSingle",
      "type": "event"
    },
    {
      "anonymous": false,
      "inputs": [
        {
          "indexed": false,
          "internalType": "string",
          "name": "value",
          "type": "string"
        },
        {
          "indexed": true,
          "internalType": "uint256",
          "name": "id",
          "type": "uint256"
        }
      ],
      "name": "URI",
      "type": "event"
    },
    {
      "inputs": [
        {
          "internalType": "address",
          "name": "account",
          "type": "address"
        },
        {
          "internalType": "uint256",
          "name": "id",
          "type": "uint256"
        }
      ],
      "name": "balanceOf",
      "outputs": [
        {
          "internalType": "uint256",
          "name": "",
          "type": "uint256"
        }
      ],
      "stateMutability": "view",
      "type": "function"
    },
    {
      "inputs": [
        {
          "internalType": "address[]",
          "name": "accounts",
          "type": "address[]"
        },
        {
          "internalType": "uint256[]",
          "name": "ids",
          "type": "uint256[]"
        }
      ],
      "name": "balanceOfBatch",
      "outputs": [
        {
          "internalType": "uint256[]",
          "name": "",
          "type": "uint256[]"
        }
      ],
      "stateMutability": "view",
      "type": "function"
    },
    {
      "inputs": [],
      "name": "baseToken",
      "outputs": [
        {
          "internalType": "address",
          "name": "",
          "type": "address"
        }
      ],
      "stateMutability": "view",
      "type": "function"
    },
    {
      "inputs": [
        {
          "internalType": "uint256",
          "name": "id",
          "type": "uint256"
        }
      ],
      "name": "bondMetadata",
      "outputs": [
        {
          "internalType": "string",
          "name": "",
          "type": "string"
        },
        {
          "internalType": "uint256",
          "name": "",
          "type": "uint256"
        },
        {
          "internalType": "uint256",
          "name": "",
          "type": "uint256"
        },
        {
          "internalType": "uint256",
          "name": "",
          "type": "uint256"
        },
        {
          "internalType": "uint256",
          "name": "",
          "type": "uint256"
        },
        {
          "internalType": "uint256",
          "name": "",
          "type": "uint256"
        },
        {
          "internalType": "uint256",
          "name": "",
          "type": "uint256"
        },
        {
          "internalType": "uint256",
          "name": "",
          "type": "uint256"
        },
        {
          "internalType": "uint256",
          "name": "",
          "type": "uint256"
        },
        {
          "internalType": "uint256",
          "name": "",
          "type": "uint256"
        }
      ],
      "stateMutability": "view",
      "type": "function"
    },
    {
      "inputs": [
        {
          "internalType": "uint256",
          "name": "id",
          "type": "uint256"
        }
      ],
      "name": "couponRate",
      "outputs": [
        {
          "internalType": "uint256",
          "name": "",
          "type": "uint256"
        }
      ],
      "stateMutability": "view",
      "type": "function"
    },
    {
      "inputs": [
        {
          "internalType": "uint256",
          "name": "id",
          "type": "uint256"
        },
        {
          "internalType": "uint256",
          "name": "tokenAmount",
          "type": "uint256"
        }
      ],
      "name": "deposit",
      "outputs": [],
      "stateMutability": "nonpayable",
      "type": "function"
    },
    {
      "inputs": [
        {
          "internalType": "uint256",
          "name": "id",
          "type": "uint256"
        }
      ],
      "name": "designatedTokenPool",
      "outputs": [
        {
          "internalType": "uint256",
          "name": "",
          "type": "uint256"
        }
      ],
      "stateMutability": "view",
      "type": "function"
    },
    {
      "inputs": [],
      "name": "fundsRaised",
      "outputs": [
        {
          "internalType": "uint256",
          "name": "",
          "type": "uint256"
        }
      ],
      "stateMutability": "view",
      "type": "function"
    },
    {
      "inputs": [
        {
          "internalType": "uint256",
          "name": "id",
          "type": "uint256"
        }
      ],
      "name": "hasReachedMaturity",
      "outputs": [
        {
          "internalType": "bool",
          "name": "",
          "type": "bool"
        }
      ],
      "stateMutability": "view",
      "type": "function"
    },
    {
      "inputs": [
        {
          "internalType": "uint256",
          "name": "id",
          "type": "uint256"
        }
      ],
      "name": "isActive",
      "outputs": [
        {
          "internalType": "bool",
          "name": "",
          "type": "bool"
        }
      ],
      "stateMutability": "view",
      "type": "function"
    },
    {
      "inputs": [
        {
          "internalType": "address",
          "name": "account",
          "type": "address"
        },
        {
          "internalType": "address",
          "name": "operator",
          "type": "address"
        }
      ],
      "name": "isApprovedForAll",
      "outputs": [
        {
          "internalType": "bool",
          "name": "",
          "type": "bool"
        }
      ],
      "stateMutability": "view",
      "type": "function"
    },
    {
      "inputs": [
        {
          "internalType": "uint256",
          "name": "id",
          "type": "uint256"
        }
      ],
      "name": "isCanceled",
      "outputs": [
        {
          "internalType": "bool",
          "name": "",
          "type": "bool"
        }
      ],
      "stateMutability": "view",
      "type": "function"
    },
    {
      "inputs": [
        {
          "internalType": "uint256",
          "name": "id",
          "type": "uint256"
        }
      ],
      "name": "isCompleted",
      "outputs": [
        {
          "internalType": "bool",
          "name": "",
          "type": "bool"
        }
      ],
      "stateMutability": "view",
      "type": "function"
    },
    {
      "inputs": [
        {
          "internalType": "uint256",
          "name": "id",
          "type": "uint256"
        }
      ],
      "name": "isCompletedInTheory",
      "outputs": [
        {
          "internalType": "bool",
          "name": "",
          "type": "bool"
        }
      ],
      "stateMutability": "view",
      "type": "function"
    },
    {
      "inputs": [
        {
          "internalType": "uint256",
          "name": "id",
          "type": "uint256"
        }
      ],
      "name": "isDefaulted",
      "outputs": [
        {
          "internalType": "bool",
          "name": "",
          "type": "bool"
        }
      ],
      "stateMutability": "view",
      "type": "function"
    },
    {
      "inputs": [
        {
          "internalType": "uint256",
          "name": "id",
          "type": "uint256"
        }
      ],
      "name": "isDefaultedInTheory",
      "outputs": [
        {
          "internalType": "bool",
          "name": "",
          "type": "bool"
        }
      ],
      "stateMutability": "view",
      "type": "function"
    },
    {
      "inputs": [
        {
          "internalType": "uint256",
          "name": "id",
          "type": "uint256"
        }
      ],
      "name": "isFulfilled",
      "outputs": [
        {
          "internalType": "bool",
          "name": "",
          "type": "bool"
        }
      ],
      "stateMutability": "view",
      "type": "function"
    },
    {
      "inputs": [
        {
          "internalType": "uint256",
          "name": "id",
          "type": "uint256"
        }
      ],
      "name": "isFullyRedeemed",
      "outputs": [
        {
          "internalType": "bool",
          "name": "",
          "type": "bool"
        }
      ],
      "stateMutability": "view",
      "type": "function"
    },
    {
      "inputs": [
        {
          "internalType": "uint256",
          "name": "bondQuantity",
          "type": "uint256"
        },
        {
          "internalType": "uint256",
          "name": "minPurchasedQuantity",
          "type": "uint256"
        },
        {
          "internalType": "uint256",
          "name": "tokenAmountPerBond",
          "type": "uint256"
        },
        {
          "internalType": "string",
          "name": "ticker",
          "type": "string"
        },
        {
          "internalType": "uint256",
          "name": "durationDays",
          "type": "uint256"
        },
        {
          "internalType": "uint256",
          "name": "activeDurationInDays",
          "type": "uint256"
        },
        {
          "internalType": "uint256",
          "name": "rate",
          "type": "uint256"
        },
        {
          "internalType": "bytes",
          "name": "data",
          "type": "bytes"
        }
      ],
      "name": "issue",
      "outputs": [
        {
          "internalType": "uint256",
          "name": "id",
          "type": "uint256"
        }
      ],
      "stateMutability": "nonpayable",
      "type": "function"
    },
    {
      "inputs": [
        {
          "internalType": "uint256",
          "name": "id",
          "type": "uint256"
        }
      ],
      "name": "markAsCompleted",
      "outputs": [],
      "stateMutability": "nonpayable",
      "type": "function"
    },
    {
      "inputs": [
        {
          "internalType": "uint256",
          "name": "id",
          "type": "uint256"
        }
      ],
      "name": "markAsDefaulted",
      "outputs": [],
      "stateMutability": "nonpayable",
      "type": "function"
    },
    {
      "inputs": [],
      "name": "owner",
      "outputs": [
        {
          "internalType": "address",
          "name": "",
          "type": "address"
        }
      ],
      "stateMutability": "view",
      "type": "function"
    },
    {
      "inputs": [
        {
          "internalType": "uint256",
          "name": "id",
          "type": "uint256"
        }
      ],
      "name": "poolAmount",
      "outputs": [
        {
          "internalType": "uint256",
          "name": "",
          "type": "uint256"
        }
      ],
      "stateMutability": "view",
      "type": "function"
    },
    {
      "inputs": [
        {
          "internalType": "uint256",
          "name": "id",
          "type": "uint256"
        }
      ],
      "name": "principal",
      "outputs": [
        {
          "internalType": "uint256",
          "name": "",
          "type": "uint256"
        }
      ],
      "stateMutability": "view",
      "type": "function"
    },
    {
      "inputs": [
        {
          "internalType": "uint256",
          "name": "id",
          "type": "uint256"
        }
      ],
      "name": "principalWithInterest",
      "outputs": [
        {
          "internalType": "uint256",
          "name": "",
          "type": "uint256"
        }
      ],
      "stateMutability": "view",
      "type": "function"
    },
    {
      "inputs": [
        {
          "internalType": "uint256",
          "name": "id",
          "type": "uint256"
        },
        {
          "internalType": "uint256",
          "name": "bondQuantity",
          "type": "uint256"
        }
      ],
      "name": "purchase",
      "outputs": [],
      "stateMutability": "nonpayable",
      "type": "function"
    },
    {
      "inputs": [
        {
          "internalType": "uint256",
          "name": "id",
          "type": "uint256"
        },
        {
          "internalType": "uint256",
          "name": "bondQuantity",
          "type": "uint256"
        }
      ],
      "name": "redeem",
      "outputs": [],
      "stateMutability": "nonpayable",
      "type": "function"
    },
    {
      "inputs": [
        {
          "internalType": "uint256",
          "name": "id",
          "type": "uint256"
        },
        {
          "internalType": "uint256",
          "name": "bondQuantity",
          "type": "uint256"
        }
      ],
      "name": "redeemCanceled",
      "outputs": [],
      "stateMutability": "nonpayable",
      "type": "function"
    },
    {
      "inputs": [
        {
          "internalType": "uint256",
          "name": "id",
          "type": "uint256"
        },
        {
          "internalType": "uint256",
          "name": "bondQuantity",
          "type": "uint256"
        }
      ],
      "name": "redeemDefaulted",
      "outputs": [],
      "stateMutability": "nonpayable",
      "type": "function"
    },
    {
      "inputs": [
        {
          "internalType": "uint256",
          "name": "id",
          "type": "uint256"
        }
      ],
      "name": "remainingQuantity",
      "outputs": [
        {
          "internalType": "uint256",
          "name": "",
          "type": "uint256"
        }
      ],
      "stateMutability": "view",
      "type": "function"
    },
    {
      "inputs": [
        {
          "internalType": "address",
          "name": "from",
          "type": "address"
        },
        {
          "internalType": "address",
          "name": "to",
          "type": "address"
        },
        {
          "internalType": "uint256[]",
          "name": "ids",
          "type": "uint256[]"
        },
        {
          "internalType": "uint256[]",
          "name": "amounts",
          "type": "uint256[]"
        },
        {
          "internalType": "bytes",
          "name": "data",
          "type": "bytes"
        }
      ],
      "name": "safeBatchTransferFrom",
      "outputs": [],
      "stateMutability": "nonpayable",
      "type": "function"
    },
    {
      "inputs": [
        {
          "internalType": "address",
          "name": "from",
          "type": "address"
        },
        {
          "internalType": "address",
          "name": "to",
          "type": "address"
        },
        {
          "internalType": "uint256",
          "name": "id",
          "type": "uint256"
        },
        {
          "internalType": "uint256",
          "name": "amount",
          "type": "uint256"
        },
        {
          "internalType": "bytes",
          "name": "data",
          "type": "bytes"
        }
      ],
      "name": "safeTransferFrom",
      "outputs": [],
      "stateMutability": "nonpayable",
      "type": "function"
    },
    {
      "inputs": [
        {
          "internalType": "address",
          "name": "operator",
          "type": "address"
        },
        {
          "internalType": "bool",
          "name": "approved",
          "type": "bool"
        }
      ],
      "name": "setApprovalForAll",
      "outputs": [],
      "stateMutability": "nonpayable",
      "type": "function"
    },
    {
      "inputs": [
        {
          "internalType": "bytes4",
          "name": "interfaceId",
          "type": "bytes4"
        }
      ],
      "name": "supportsInterface",
      "outputs": [
        {
          "internalType": "bool",
          "name": "",
          "type": "bool"
        }
      ],
      "stateMutability": "view",
      "type": "function"
    },
    {
      "inputs": [
        {
          "internalType": "uint256",
          "name": "id",
          "type": "uint256"
        }
      ],
      "name": "timeElapsed",
      "outputs": [
        {
          "internalType": "uint256",
          "name": "",
          "type": "uint256"
        }
      ],
      "stateMutability": "view",
      "type": "function"
    },
    {
      "inputs": [
        {
          "internalType": "uint256",
          "name": "id",
          "type": "uint256"
        }
      ],
      "name": "timeRemainingToEndOfActive",
      "outputs": [
        {
          "internalType": "uint256",
          "name": "",
          "type": "uint256"
        }
      ],
      "stateMutability": "view",
      "type": "function"
    },
    {
      "inputs": [
        {
          "internalType": "uint256",
          "name": "id",
          "type": "uint256"
        }
      ],
      "name": "timeRemainingToMaturity",
      "outputs": [
        {
          "internalType": "uint256",
          "name": "",
          "type": "uint256"
        }
      ],
      "stateMutability": "view",
      "type": "function"
    },
    {
      "inputs": [],
      "name": "tvl",
      "outputs": [
        {
          "internalType": "uint256",
          "name": "",
          "type": "uint256"
        }
      ],
      "stateMutability": "view",
      "type": "function"
    },
    {
      "inputs": [
        {
          "internalType": "uint256",
          "name": "",
          "type": "uint256"
        }
      ],
      "name": "uri",
      "outputs": [
        {
          "internalType": "string",
          "name": "",
          "type": "string"
        }
      ],
      "stateMutability": "view",
      "type": "function"
    },
    {
      "inputs": [
        {
          "internalType": "uint256",
          "name": "id",
          "type": "uint256"
        },
        {
          "internalType": "uint256",
          "name": "tokenAmount",
          "type": "uint256"
        }
      ],
      "name": "withdraw",
      "outputs": [],
      "stateMutability": "nonpayable",
      "type": "function"
    },
    {
      "inputs": [
        {
          "internalType": "uint256",
          "name": "id",
          "type": "uint256"
        }
      ],
      "name": "withdrawExcess",
      "outputs": [],
      "stateMutability": "nonpayable",
      "type": "function"
    }
  ],
  "bytecode": "0x60c060405260006003553480156200001657600080fd5b50604051620063953803806200639583398181016040528101906200003c9190620002cd565b826200004e81620000c060201b60201c565b508073ffffffffffffffffffffffffffffffffffffffff1660808173ffffffffffffffffffffffffffffffffffffffff16815250508173ffffffffffffffffffffffffffffffffffffffff1660a08173ffffffffffffffffffffffffffffffffffffffff16815250505050506200067a565b8060029081620000d1919062000593565b5050565b6000604051905090565b600080fd5b600080fd5b600080fd5b600080fd5b6000601f19601f8301169050919050565b7f4e487b7100000000000000000000000000000000000000000000000000000000600052604160045260246000fd5b6200013e82620000f3565b810181811067ffffffffffffffff8211171562000160576200015f62000104565b5b80604052505050565b600062000175620000d5565b905062000183828262000133565b919050565b600067ffffffffffffffff821115620001a657620001a562000104565b5b620001b182620000f3565b9050602081019050919050565b60005b83811015620001de578082015181840152602081019050620001c1565b60008484015250505050565b600062000201620001fb8462000188565b62000169565b90508281526020810184848401111562000220576200021f620000ee565b5b6200022d848285620001be565b509392505050565b600082601f8301126200024d576200024c620000e9565b5b81516200025f848260208601620001ea565b91505092915050565b600073ffffffffffffffffffffffffffffffffffffffff82169050919050565b6000620002958262000268565b9050919050565b620002a78162000288565b8114620002b357600080fd5b50565b600081519050620002c7816200029c565b92915050565b600080600060608486031215620002e957620002e8620000df565b5b600084015167ffffffffffffffff8111156200030a5762000309620000e4565b5b620003188682870162000235565b93505060206200032b86828701620002b6565b92505060406200033e86828701620002b6565b9150509250925092565b600081519050919050565b7f4e487b7100000000000000000000000000000000000000000000000000000000600052602260045260246000fd5b600060028204905060018216806200039b57607f821691505b602082108103620003b157620003b062000353565b5b50919050565b60008190508160005260206000209050919050565b60006020601f8301049050919050565b600082821b905092915050565b6000600883026200041b7fffffffffffffffffffffffffffffffffffffffffffffffffffffffffffffffff82620003dc565b620004278683620003dc565b95508019841693508086168417925050509392505050565b6000819050919050565b6000819050919050565b6000620004746200046e62000468846200043f565b62000449565b6200043f565b9050919050565b6000819050919050565b620004908362000453565b620004a86200049f826200047b565b848454620003e9565b825550505050565b600090565b620004bf620004b0565b620004cc81848462000485565b505050565b5b81811015620004f457620004e8600082620004b5565b600181019050620004d2565b5050565b601f82111562000543576200050d81620003b7565b6200051884620003cc565b8101602085101562000528578190505b620005406200053785620003cc565b830182620004d1565b50505b505050565b600082821c905092915050565b6000620005686000198460080262000548565b1980831691505092915050565b600062000583838362000555565b9150826002028217905092915050565b6200059e8262000348565b67ffffffffffffffff811115620005ba57620005b962000104565b5b620005c6825462000382565b620005d3828285620004f8565b600060209050601f8311600181146200060b5760008415620005f6578287015190505b62000602858262000575565b86555062000672565b601f1984166200061b86620003b7565b60005b8281101562000645578489015182556001820191506020850194506020810190506200061e565b8683101562000665578489015162000661601f89168262000555565b8355505b6001600288020188555050505b505050505050565b60805160a051615c936200070260003960008181610f3f01528181611392015281816115a801528181611a7c01528181611c4901528181611e260152818161206c0152818161214f0152818161256e01528181612615015261280a015260008181610cfd01528181611842015281816121770152818161241401526126b40152615c936000f3fe608060405234801561001057600080fd5b50600436106102525760003560e01c806382afd23b11610146578063b09f2b1c116100c3578063e2bbb15811610087578063e2bbb15814610806578063e5328e0614610822578063e755ddd714610840578063e985e9c51461085c578063f0d8100a1461088c578063f242432a146108bc57610252565b8063b09f2b1c14610750578063c0a6026c1461076c578063c55dae6314610788578063c7bc5730146107a6578063d3b7811b146107d657610252565b8063932a8de01161010a578063932a8de01461069c578063a22cb465146106cc578063a8743022146106e8578063a996ef0814610704578063abac75e11461072057610252565b806382afd23b146105b557806388bdc083146105e55780638c3526c2146106155780638da5cb5b1461064e5780638f0dbf771461066c57610252565b806339e3af9b116101d45780636ff80d93116101985780636ff80d93146104ed57806370876c981461051d57806377e2a08b146105395780637a41984b146105695780637cbc23731461059957610252565b806339e3af9b14610423578063441a3e70146104535780634e1273f41461046f578063549493bb1461049f5780636681b9fd146104cf57610252565b80630e89341c1161021b5780630e89341c1461034757806314f29493146103775780632eb2c2d6146103a75780632f3ad61f146103c35780633097afb8146103f357610252565b8062fdd58e1461025757806301ffc9a71461028757806302159497146102b757806308913ce8146102e75780630914902014610317575b600080fd5b610271600480360381019061026c9190613aa2565b6108d8565b60405161027e9190613af1565b60405180910390f35b6102a1600480360381019061029c9190613b64565b6109a0565b6040516102ae9190613bac565b60405180910390f35b6102d160048036038101906102cc9190613bc7565b610a82565b6040516102de9190613af1565b60405180910390f35b61030160048036038101906102fc9190613bc7565b610a9f565b60405161030e9190613af1565b60405180910390f35b610331600480360381019061032c9190613bc7565b610aca565b60405161033e9190613bac565b60405180910390f35b610361600480360381019061035c9190613bc7565b610b00565b60405161036e9190613c84565b60405180910390f35b610391600480360381019061038c9190613bc7565b610b94565b60405161039e9190613af1565b60405180910390f35b6103c160048036038101906103bc9190613ea3565b610bd2565b005b6103dd60048036038101906103d89190613bc7565b610c73565b6040516103ea9190613bac565b60405180910390f35b61040d60048036038101906104089190613bc7565b610c9d565b60405161041a9190613bac565b60405180910390f35b61043d60048036038101906104389190613bc7565b610cd6565b60405161044a9190613bac565b60405180910390f35b61046d60048036038101906104689190613f72565b610cfb565b005b61048960048036038101906104849190614075565b610fe0565b60405161049691906141ab565b60405180910390f35b6104b960048036038101906104b49190613bc7565b6110f9565b6040516104c69190613bac565b60405180910390f35b6104d761112b565b6040516104e49190613af1565b60405180910390f35b61050760048036038101906105029190613bc7565b611135565b6040516105149190613bac565b60405180910390f35b61053760048036038101906105329190613f72565b61116d565b005b610553600480360381019061054e9190613bc7565b611437565b6040516105609190613af1565b60405180910390f35b610583600480360381019061057e9190613bc7565b611490565b6040516105909190613bac565b60405180910390f35b6105b360048036038101906105ae9190613f72565b6114ba565b005b6105cf60048036038101906105ca9190613bc7565b611674565b6040516105dc9190613bac565b60405180910390f35b6105ff60048036038101906105fa9190613bc7565b611697565b60405161060c9190613af1565b60405180910390f35b61062f600480360381019061062a9190613bc7565b6116ca565b6040516106459a999897969594939291906141cd565b60405180910390f35b61065661183e565b604051610663919061427f565b60405180910390f35b61068660048036038101906106819190613bc7565b611866565b6040516106939190613bac565b60405180910390f35b6106b660048036038101906106b19190613bc7565b611888565b6040516106c39190613af1565b60405180910390f35b6106e660048036038101906106e191906142c6565b6118c6565b005b61070260048036038101906106fd9190613bc7565b6118dc565b005b61071e60048036038101906107199190613f72565b611b5b565b005b61073a60048036038101906107359190613bc7565b611d15565b6040516107479190613af1565b60405180910390f35b61076a60048036038101906107659190613f72565b611d35565b005b61078660048036038101906107819190613bc7565b611ef2565b005b61079061214b565b60405161079d919061427f565b60405180910390f35b6107c060048036038101906107bb91906143a7565b612173565b6040516107cd9190613af1565b60405180910390f35b6107f060048036038101906107eb9190613bc7565b6123df565b6040516107fd9190613af1565b60405180910390f35b610820600480360381019061081b9190613f72565b612412565b005b61082a612611565b6040516108379190613af1565b60405180910390f35b61085a60048036038101906108559190613bc7565b6126b2565b005b61087660048036038101906108719190614495565b6128bd565b6040516108839190613bac565b60405180910390f35b6108a660048036038101906108a19190613bc7565b612951565b6040516108b39190613af1565b60405180910390f35b6108d660048036038101906108d191906144d5565b61296e565b005b60008073ffffffffffffffffffffffffffffffffffffffff168373ffffffffffffffffffffffffffffffffffffffff1603610948576040517f08c379a000000000000000000000000000000000000000000000000000000000815260040161093f906145de565b60405180910390fd5b60008083815260200190815260200160002060008473ffffffffffffffffffffffffffffffffffffffff1673ffffffffffffffffffffffffffffffffffffffff16815260200190815260200160002054905092915050565b60007fd9b67a26000000000000000000000000000000000000000000000000000000007bffffffffffffffffffffffffffffffffffffffffffffffffffffffff1916827bffffffffffffffffffffffffffffffffffffffffffffffffffffffff19161480610a6b57507f0e89341c000000000000000000000000000000000000000000000000000000007bffffffffffffffffffffffffffffffffffffffffffffffffffffffff1916827bffffffffffffffffffffffffffffffffffffffffffffffffffffffff1916145b80610a7b5750610a7a82612a0f565b5b9050919050565b600060086000838152602001908152602001600020549050919050565b6000600560008381526020019081526020016000206002015442610ac3919061462d565b9050919050565b60006005600083815260200190815260200160002060080154600660008481526020019081526020016000205410159050919050565b606060028054610b0f90614690565b80601f0160208091040260200160405190810160405280929190818152602001828054610b3b90614690565b8015610b885780601f10610b5d57610100808354040283529160200191610b88565b820191906000526020600020905b815481529060010190602001808311610b6b57829003601f168201915b50505050509050919050565b600060066000838152602001908152602001600020546005600084815260200190815260200160002060010154610bcb91906146c1565b9050919050565b610bda612a79565b73ffffffffffffffffffffffffffffffffffffffff168573ffffffffffffffffffffffffffffffffffffffff161480610c205750610c1f85610c1a612a79565b6128bd565b5b610c5f576040517f08c379a0000000000000000000000000000000000000000000000000000000008152600401610c5690614775565b60405180910390fd5b610c6c8585858585612a81565b5050505050565b6000600b600083815260200190815260200160002060009054906101000a900460ff169050919050565b6000610ca882611866565b8015610ccf5750610cb882611437565b600860008481526020019081526020016000205410155b9050919050565b6000610ce182611674565b158015610cf45750610cf282610aca565b155b9050919050565b7f000000000000000000000000000000000000000000000000000000000000000073ffffffffffffffffffffffffffffffffffffffff163373ffffffffffffffffffffffffffffffffffffffff1614610d89576040517f08c379a0000000000000000000000000000000000000000000000000000000008152600401610d80906147e1565b60405180910390fd5b610d9282611674565b15610dd2576040517f08c379a0000000000000000000000000000000000000000000000000000000008152600401610dc99061484d565b60405180910390fd5b610ddb82610cd6565b15610e1b576040517f08c379a0000000000000000000000000000000000000000000000000000000008152600401610e129061484d565b60405180910390fd5b610e2482611490565b15610e64576040517f08c379a0000000000000000000000000000000000000000000000000000000008152600401610e5b906148df565b60405180910390fd5b610e6d82610c73565b80610e7d5750610e7c82611135565b5b15610ebd576040517f08c379a0000000000000000000000000000000000000000000000000000000008152600401610eb490614971565b60405180910390fd5b6008600083815260200190815260200160002054811115610f13576040517f08c379a0000000000000000000000000000000000000000000000000000000008152600401610f0a90614a03565b60405180910390fd5b80600860008481526020019081526020016000206000828254610f36919061462d565b925050819055507f000000000000000000000000000000000000000000000000000000000000000073ffffffffffffffffffffffffffffffffffffffff1663a9059cbb33836040518363ffffffff1660e01b8152600401610f98929190614a23565b6020604051808303816000875af1158015610fb7573d6000803e3d6000fd5b505050506040513d601f19601f82011682018060405250810190610fdb9190614a61565b505050565b60608151835114611026576040517f08c379a000000000000000000000000000000000000000000000000000000000815260040161101d90614b00565b60405180910390fd5b6000835167ffffffffffffffff81111561104357611042613cab565b5b6040519080825280602002602001820160405280156110715781602001602082028036833780820191505090505b50905060005b84518110156110ee576110be85828151811061109657611095614b20565b5b60200260200101518583815181106110b1576110b0614b20565b5b60200260200101516108d8565b8282815181106110d1576110d0614b20565b5b602002602001018181525050806110e790614b4f565b9050611077565b508091505092915050565b600060066000838152602001908152602001600020546007600084815260200190815260200160002054149050919050565b6000600454905090565b600061114082611866565b8015611166575061115082611437565b6008600084815260200190815260200160002054105b9050919050565b61117682611674565b6111b5576040517f08c379a00000000000000000000000000000000000000000000000000000000081526004016111ac90614be3565b60405180910390fd5b806111bf83611888565b1015611200576040517f08c379a00000000000000000000000000000000000000000000000000000000081526004016111f790614c75565b60405180910390fd5b6000600560008481526020019081526020016000206040518061014001604052908160008201805461123190614690565b80601f016020809104026020016040519081016040528092919081815260200182805461125d90614690565b80156112aa5780601f1061127f576101008083540402835291602001916112aa565b820191906000526020600020905b81548152906001019060200180831161128d57829003601f168201915b5050505050815260200160018201548152602001600282015481526020016003820154815260200160048201548152602001600582015481526020016006820154815260200160078201548152602001600882015481526020016009820154815250509050600081602001518361132191906146c1565b9050826006600086815260200190815260200160002060008282546113469190614c95565b92505081905550806008600086815260200190815260200160002060008282546113709190614c95565b9250508190555080600460008282546113899190614c95565b925050819055507f000000000000000000000000000000000000000000000000000000000000000073ffffffffffffffffffffffffffffffffffffffff166323b872dd3330846040518463ffffffff1660e01b81526004016113ed93929190614cc9565b6020604051808303816000875af115801561140c573d6000803e3d6000fd5b505050506040513d601f19601f820116820180604052508101906114309190614a61565b5050505050565b6000670de0b6b3a7640000600560008481526020019081526020016000206009015461146284610b94565b61146c91906146c1565b6114769190614d2f565b61147f83610b94565b6114899190614c95565b9050919050565b6000600c600083815260200190815260200160002060009054906101000a900460ff169050919050565b6114c382611490565b611502576040517f08c379a00000000000000000000000000000000000000000000000000000000081526004016114f990614dac565b60405180910390fd5b8061150d33846108d8565b101561154e576040517f08c379a000000000000000000000000000000000000000000000000000000000815260040161154590614e18565b60405180910390fd5b611559338383612da2565b8060076000848152602001908152602001600020600082825461157c9190614c95565b925050819055506000600a600084815260200190815260200160002054826115a491906146c1565b90507f000000000000000000000000000000000000000000000000000000000000000073ffffffffffffffffffffffffffffffffffffffff1663a9059cbb33836040518363ffffffff1660e01b8152600401611601929190614a23565b6020604051808303816000875af1158015611620573d6000803e3d6000fd5b505050506040513d601f19601f820116820180604052508101906116449190614a61565b5080600860008581526020019081526020016000206000828254611668919061462d565b92505081905550505050565b600060056000838152602001908152602001600020600401544211159050919050565b60006116a282610a9f565b60056000848152602001908152602001600020600501546116c3919061462d565b9050919050565b6060600080600080600080600080600080600560008d81526020019081526020016000206040518061014001604052908160008201805461170a90614690565b80601f016020809104026020016040519081016040528092919081815260200182805461173690614690565b80156117835780601f1061175857610100808354040283529160200191611783565b820191906000526020600020905b81548152906001019060200180831161176657829003601f168201915b5050505050815260200160018201548152602001600282015481526020016003820154815260200160048201548152602001600582015481526020016006820154815260200160078201548152602001600882015481526020016009820154815250509050806000015181602001518260400151836060015184608001518560a001518660c001518760e001518861010001518961012001519a509a509a509a509a509a509a509a509a509a50509193959799509193959799565b60007f0000000000000000000000000000000000000000000000000000000000000000905090565b6000600560008381526020019081526020016000206003015442119050919050565b6000600660008381526020019081526020016000205460056000848152602001908152602001600020600701546118bf919061462d565b9050919050565b6118d86118d1612a79565b8383612fe8565b5050565b6118e581611490565b1580156118f857506118f681610c73565b155b8015611909575061190881611135565b5b611948576040517f08c379a000000000000000000000000000000000000000000000000000000000815260040161193f90614e84565b60405180910390fd5b600061195382611437565b905060006103e860086000858152602001908152602001600020546119789190614d2f565b9050600081600860008681526020019081526020016000205461199b919061462d565b90506006600085815260200190815260200160002054816119bc9190614d2f565b6009600086815260200190815260200160002081905550600060066000868152602001908152602001600020546009600087815260200190815260200160002054611a0791906146c1565b82611a12919061462d565b905060008184611a229190614c95565b905080600860008881526020019081526020016000206000828254611a47919061462d565b925050819055506001600b600088815260200190815260200160002060006101000a81548160ff0219169083151502179055507f000000000000000000000000000000000000000000000000000000000000000073ffffffffffffffffffffffffffffffffffffffff1663a9059cbb33836040518363ffffffff1660e01b8152600401611ad5929190614a23565b6020604051808303816000875af1158015611af4573d6000803e3d6000fd5b505050506040513d601f19601f82011682018060405250810190611b189190614a61565b50857fc4f17a65d54873d57229ea5f59c4ddec592d095bc17581372676402c8228b9cd8685604051611b4b929190614ea4565b60405180910390a2505050505050565b611b6482610c73565b611ba3576040517f08c379a0000000000000000000000000000000000000000000000000000000008152600401611b9a90614e84565b60405180910390fd5b80611bae33846108d8565b1015611bef576040517f08c379a0000000000000000000000000000000000000000000000000000000008152600401611be690614e18565b60405180910390fd5b611bfa338383612da2565b80600760008481526020019081526020016000206000828254611c1d9190614c95565b925050819055506000600960008481526020019081526020016000205482611c4591906146c1565b90507f000000000000000000000000000000000000000000000000000000000000000073ffffffffffffffffffffffffffffffffffffffff1663a9059cbb33836040518363ffffffff1660e01b8152600401611ca2929190614a23565b6020604051808303816000875af1158015611cc1573d6000803e3d6000fd5b505050506040513d601f19601f82011682018060405250810190611ce59190614a61565b5080600860008581526020019081526020016000206000828254611d09919061462d565b92505081905550505050565b600060056000838152602001908152602001600020600901549050919050565b611d3e82610cd6565b611d7d576040517f08c379a0000000000000000000000000000000000000000000000000000000008152600401611d7490614f19565b60405180910390fd5b80611d8833846108d8565b1015611dc9576040517f08c379a0000000000000000000000000000000000000000000000000000000008152600401611dc090614e18565b60405180910390fd5b611dd4338383612da2565b80600760008481526020019081526020016000206000828254611df79190614c95565b925050819055506000600560008481526020019081526020016000206001015482611e2291906146c1565b90507f000000000000000000000000000000000000000000000000000000000000000073ffffffffffffffffffffffffffffffffffffffff1663a9059cbb33836040518363ffffffff1660e01b8152600401611e7f929190614a23565b6020604051808303816000875af1158015611e9e573d6000803e3d6000fd5b505050506040513d601f19601f82011682018060405250810190611ec29190614a61565b5080600860008581526020019081526020016000206000828254611ee6919061462d565b92505081905550505050565b611efb81610c73565b158015611f0e5750611f0c81611490565b155b8015611f1f5750611f1e81610c9d565b5b611f5e576040517f08c379a0000000000000000000000000000000000000000000000000000000008152600401611f5590614f85565b60405180910390fd5b6000611f6982611437565b905060006103e882611f7b9190614d2f565b905060008183611f8b919061462d565b9050600660008581526020019081526020016000205481611fac9190614d2f565b600a60008681526020019081526020016000208190555060006006600086815260200190815260200160002054600a600087815260200190815260200160002054611ff791906146c1565b82612002919061462d565b9050600081846120129190614c95565b905080600860008881526020019081526020016000206000828254612037919061462d565b925050819055506001600c600088815260200190815260200160002060006101000a81548160ff0219169083151502179055507f000000000000000000000000000000000000000000000000000000000000000073ffffffffffffffffffffffffffffffffffffffff1663a9059cbb33836040518363ffffffff1660e01b81526004016120c5929190614a23565b6020604051808303816000875af11580156120e4573d6000803e3d6000fd5b505050506040513d601f19601f820116820180604052508101906121089190614a61565b50857fac2eeaf45d1b75aed6b3285cda3efb3c382cce02ba313558bbb90be57f8843e4868560405161213b929190614ea4565b60405180910390a2505050505050565b60007f0000000000000000000000000000000000000000000000000000000000000000905090565b60007f000000000000000000000000000000000000000000000000000000000000000073ffffffffffffffffffffffffffffffffffffffff163373ffffffffffffffffffffffffffffffffffffffff1614612203576040517f08c379a00000000000000000000000000000000000000000000000000000000081526004016121fa906147e1565b60405180910390fd5b848410612245576040517f08c379a000000000000000000000000000000000000000000000000000000000815260040161223c90615017565b60405180910390fd5b60016003546122549190614c95565b90506001600360008282546122699190614c95565b9250508190555061227c33828b85613154565b60405180610140016040528087815260200188815260200142815260200162015180876122a991906146c1565b426122b49190614c95565b815260200162015180866122c891906146c1565b426122d39190614c95565b81526020018581526020018681526020018a81526020018981526020018481525060056000838152602001908152602001600020600082015181600001908161231c91906151e3565b506020820151816001015560408201518160020155606082015181600301556080820151816004015560a0820151816005015560c0820151816006015560e0820151816007015561010082015181600801556101208201518160090155905050807ff73e436c94925e1e8b2f0b16de0a2c56aea7fb27878f7815811bc05bc6c335e88a8986620151808a6123b091906146c1565b426123bb9190614c95565b6040516123cb94939291906152b5565b60405180910390a298975050505050505050565b60006123ea82610a9f565b600560008481526020019081526020016000206006015461240b919061462d565b9050919050565b7f000000000000000000000000000000000000000000000000000000000000000073ffffffffffffffffffffffffffffffffffffffff163373ffffffffffffffffffffffffffffffffffffffff16146124a0576040517f08c379a0000000000000000000000000000000000000000000000000000000008152600401612497906147e1565b60405180910390fd5b6124a982610c73565b806124b957506124b882611135565b5b156124f9576040517f08c379a00000000000000000000000000000000000000000000000000000000081526004016124f090615346565b60405180910390fd5b61250282611490565b15612542576040517f08c379a0000000000000000000000000000000000000000000000000000000008152600401612539906153b2565b60405180910390fd5b806008600084815260200190815260200160002060008282546125659190614c95565b925050819055507f000000000000000000000000000000000000000000000000000000000000000073ffffffffffffffffffffffffffffffffffffffff166323b872dd3330846040518463ffffffff1660e01b81526004016125c993929190614cc9565b6020604051808303816000875af11580156125e8573d6000803e3d6000fd5b505050506040513d601f19601f8201168201806040525081019061260c9190614a61565b505050565b60007f000000000000000000000000000000000000000000000000000000000000000073ffffffffffffffffffffffffffffffffffffffff166370a08231306040518263ffffffff1660e01b815260040161266c919061427f565b602060405180830381865afa158015612689573d6000803e3d6000fd5b505050506040513d601f19601f820116820180604052508101906126ad91906153e7565b905090565b7f000000000000000000000000000000000000000000000000000000000000000073ffffffffffffffffffffffffffffffffffffffff163373ffffffffffffffffffffffffffffffffffffffff1614612740576040517f08c379a0000000000000000000000000000000000000000000000000000000008152600401612737906147e1565b60405180910390fd5b61274981611490565b801561275a5750612759816110f9565b5b612799576040517f08c379a000000000000000000000000000000000000000000000000000000000815260040161279090615460565b60405180910390fd5b60006008600083815260200190815260200160002054116127ef576040517f08c379a00000000000000000000000000000000000000000000000000000000081526004016127e6906154cc565b60405180910390fd5b600060086000838152602001908152602001600020819055507f000000000000000000000000000000000000000000000000000000000000000073ffffffffffffffffffffffffffffffffffffffff1663a9059cbb3360086000858152602001908152602001600020546040518363ffffffff1660e01b8152600401612876929190614a23565b6020604051808303816000875af1158015612895573d6000803e3d6000fd5b505050506040513d601f19601f820116820180604052508101906128b99190614a61565b5050565b6000600160008473ffffffffffffffffffffffffffffffffffffffff1673ffffffffffffffffffffffffffffffffffffffff16815260200190815260200160002060008373ffffffffffffffffffffffffffffffffffffffff1673ffffffffffffffffffffffffffffffffffffffff16815260200190815260200160002060009054906101000a900460ff16905092915050565b600060086000838152602001908152602001600020549050919050565b612976612a79565b73ffffffffffffffffffffffffffffffffffffffff168573ffffffffffffffffffffffffffffffffffffffff1614806129bc57506129bb856129b6612a79565b6128bd565b5b6129fb576040517f08c379a00000000000000000000000000000000000000000000000000000000081526004016129f290614775565b60405180910390fd5b612a088585858585613304565b5050505050565b60007f01ffc9a7000000000000000000000000000000000000000000000000000000007bffffffffffffffffffffffffffffffffffffffffffffffffffffffff1916827bffffffffffffffffffffffffffffffffffffffffffffffffffffffff1916149050919050565b600033905090565b8151835114612ac5576040517f08c379a0000000000000000000000000000000000000000000000000000000008152600401612abc9061555e565b60405180910390fd5b600073ffffffffffffffffffffffffffffffffffffffff168473ffffffffffffffffffffffffffffffffffffffff1603612b34576040517f08c379a0000000000000000000000000000000000000000000000000000000008152600401612b2b906155f0565b60405180910390fd5b6000612b3e612a79565b9050612b4e81878787878761359f565b60005b8451811015612cff576000858281518110612b6f57612b6e614b20565b5b602002602001015190506000858381518110612b8e57612b8d614b20565b5b60200260200101519050600080600084815260200190815260200160002060008b73ffffffffffffffffffffffffffffffffffffffff1673ffffffffffffffffffffffffffffffffffffffff16815260200190815260200160002054905081811015612c2f576040517f08c379a0000000000000000000000000000000000000000000000000000000008152600401612c2690615682565b60405180910390fd5b81810360008085815260200190815260200160002060008c73ffffffffffffffffffffffffffffffffffffffff1673ffffffffffffffffffffffffffffffffffffffff168152602001908152602001600020819055508160008085815260200190815260200160002060008b73ffffffffffffffffffffffffffffffffffffffff1673ffffffffffffffffffffffffffffffffffffffff1681526020019081526020016000206000828254612ce49190614c95565b9250508190555050505080612cf890614b4f565b9050612b51565b508473ffffffffffffffffffffffffffffffffffffffff168673ffffffffffffffffffffffffffffffffffffffff168273ffffffffffffffffffffffffffffffffffffffff167f4a39dc06d4c0dbc64b70af90fd698a233a518aa5d07e595d983b8c0526c8f7fb8787604051612d769291906156a2565b60405180910390a4612d8c8187878787876135a7565b612d9a8187878787876135af565b505050505050565b600073ffffffffffffffffffffffffffffffffffffffff168373ffffffffffffffffffffffffffffffffffffffff1603612e11576040517f08c379a0000000000000000000000000000000000000000000000000000000008152600401612e089061574b565b60405180910390fd5b6000612e1b612a79565b90506000612e2884613786565b90506000612e3584613786565b9050612e558387600085856040518060200160405280600081525061359f565b600080600087815260200190815260200160002060008873ffffffffffffffffffffffffffffffffffffffff1673ffffffffffffffffffffffffffffffffffffffff16815260200190815260200160002054905084811015612eec576040517f08c379a0000000000000000000000000000000000000000000000000000000008152600401612ee3906157dd565b60405180910390fd5b84810360008088815260200190815260200160002060008973ffffffffffffffffffffffffffffffffffffffff1673ffffffffffffffffffffffffffffffffffffffff16815260200190815260200160002081905550600073ffffffffffffffffffffffffffffffffffffffff168773ffffffffffffffffffffffffffffffffffffffff168573ffffffffffffffffffffffffffffffffffffffff167fc3d58168c5ae7397731d063d5bbf3d657854427343f4c083240f7aacaa2d0f628989604051612fb9929190614ea4565b60405180910390a4612fdf848860008686604051806020016040528060008152506135a7565b50505050505050565b8173ffffffffffffffffffffffffffffffffffffffff168373ffffffffffffffffffffffffffffffffffffffff1603613056576040517f08c379a000000000000000000000000000000000000000000000000000000000815260040161304d9061586f565b60405180910390fd5b80600160008573ffffffffffffffffffffffffffffffffffffffff1673ffffffffffffffffffffffffffffffffffffffff16815260200190815260200160002060008473ffffffffffffffffffffffffffffffffffffffff1673ffffffffffffffffffffffffffffffffffffffff16815260200190815260200160002060006101000a81548160ff0219169083151502179055508173ffffffffffffffffffffffffffffffffffffffff168373ffffffffffffffffffffffffffffffffffffffff167f17307eab39ab6107e8899845ad3d59bd9653f200f220920489ca2b5937696c31836040516131479190613bac565b60405180910390a3505050565b600073ffffffffffffffffffffffffffffffffffffffff168473ffffffffffffffffffffffffffffffffffffffff16036131c3576040517f08c379a00000000000000000000000000000000000000000000000000000000081526004016131ba90615901565b60405180910390fd5b60006131cd612a79565b905060006131da85613786565b905060006131e785613786565b90506131f88360008985858961359f565b8460008088815260200190815260200160002060008973ffffffffffffffffffffffffffffffffffffffff1673ffffffffffffffffffffffffffffffffffffffff16815260200190815260200160002060008282546132579190614c95565b925050819055508673ffffffffffffffffffffffffffffffffffffffff16600073ffffffffffffffffffffffffffffffffffffffff168473ffffffffffffffffffffffffffffffffffffffff167fc3d58168c5ae7397731d063d5bbf3d657854427343f4c083240f7aacaa2d0f6289896040516132d5929190614ea4565b60405180910390a46132ec836000898585896135a7565b6132fb83600089898989613800565b50505050505050565b600073ffffffffffffffffffffffffffffffffffffffff168473ffffffffffffffffffffffffffffffffffffffff1603613373576040517f08c379a000000000000000000000000000000000000000000000000000000000815260040161336a906155f0565b60405180910390fd5b600061337d612a79565b9050600061338a85613786565b9050600061339785613786565b90506133a783898985858961359f565b600080600088815260200190815260200160002060008a73ffffffffffffffffffffffffffffffffffffffff1673ffffffffffffffffffffffffffffffffffffffff1681526020019081526020016000205490508581101561343e576040517f08c379a000000000000000000000000000000000000000000000000000000000815260040161343590615682565b60405180910390fd5b85810360008089815260200190815260200160002060008b73ffffffffffffffffffffffffffffffffffffffff1673ffffffffffffffffffffffffffffffffffffffff168152602001908152602001600020819055508560008089815260200190815260200160002060008a73ffffffffffffffffffffffffffffffffffffffff1673ffffffffffffffffffffffffffffffffffffffff16815260200190815260200160002060008282546134f39190614c95565b925050819055508773ffffffffffffffffffffffffffffffffffffffff168973ffffffffffffffffffffffffffffffffffffffff168573ffffffffffffffffffffffffffffffffffffffff167fc3d58168c5ae7397731d063d5bbf3d657854427343f4c083240f7aacaa2d0f628a8a604051613570929190614ea4565b60405180910390a4613586848a8a86868a6135a7565b613594848a8a8a8a8a613800565b505050505050505050565b505050505050565b505050505050565b6135ce8473ffffffffffffffffffffffffffffffffffffffff166139d7565b1561377e578373ffffffffffffffffffffffffffffffffffffffff1663bc197c8187878686866040518663ffffffff1660e01b8152600401613614959493929190615976565b6020604051808303816000875af192505050801561365057506040513d601f19601f8201168201806040525081019061364d91906159f3565b60015b6136f55761365c615a2d565b806308c379a0036136b85750613670615a4f565b8061367b57506136ba565b806040517f08c379a00000000000000000000000000000000000000000000000000000000081526004016136af9190613c84565b60405180910390fd5b505b6040517f08c379a00000000000000000000000000000000000000000000000000000000081526004016136ec90615b51565b60405180910390fd5b63bc197c8160e01b7bffffffffffffffffffffffffffffffffffffffffffffffffffffffff1916817bffffffffffffffffffffffffffffffffffffffffffffffffffffffff19161461377c576040517f08c379a000000000000000000000000000000000000000000000000000000000815260040161377390615be3565b60405180910390fd5b505b505050505050565b60606000600167ffffffffffffffff8111156137a5576137a4613cab565b5b6040519080825280602002602001820160405280156137d35781602001602082028036833780820191505090505b50905082816000815181106137eb576137ea614b20565b5b60200260200101818152505080915050919050565b61381f8473ffffffffffffffffffffffffffffffffffffffff166139d7565b156139cf578373ffffffffffffffffffffffffffffffffffffffff1663f23a6e6187878686866040518663ffffffff1660e01b8152600401613865959493929190615c03565b6020604051808303816000875af19250505080156138a157506040513d601f19601f8201168201806040525081019061389e91906159f3565b60015b613946576138ad615a2d565b806308c379a00361390957506138c1615a4f565b806138cc575061390b565b806040517f08c379a00000000000000000000000000000000000000000000000000000000081526004016139009190613c84565b60405180910390fd5b505b6040517f08c379a000000000000000000000000000000000000000000000000000000000815260040161393d90615b51565b60405180910390fd5b63f23a6e6160e01b7bffffffffffffffffffffffffffffffffffffffffffffffffffffffff1916817bffffffffffffffffffffffffffffffffffffffffffffffffffffffff1916146139cd576040517f08c379a00000000000000000000000000000000000000000000000000000000081526004016139c490615be3565b60405180910390fd5b505b505050505050565b6000808273ffffffffffffffffffffffffffffffffffffffff163b119050919050565b6000604051905090565b600080fd5b600080fd5b600073ffffffffffffffffffffffffffffffffffffffff82169050919050565b6000613a3982613a0e565b9050919050565b613a4981613a2e565b8114613a5457600080fd5b50565b600081359050613a6681613a40565b92915050565b6000819050919050565b613a7f81613a6c565b8114613a8a57600080fd5b50565b600081359050613a9c81613a76565b92915050565b60008060408385031215613ab957613ab8613a04565b5b6000613ac785828601613a57565b9250506020613ad885828601613a8d565b9150509250929050565b613aeb81613a6c565b82525050565b6000602082019050613b066000830184613ae2565b92915050565b60007fffffffff0000000000000000000000000000000000000000000000000000000082169050919050565b613b4181613b0c565b8114613b4c57600080fd5b50565b600081359050613b5e81613b38565b92915050565b600060208284031215613b7a57613b79613a04565b5b6000613b8884828501613b4f565b91505092915050565b60008115159050919050565b613ba681613b91565b82525050565b6000602082019050613bc16000830184613b9d565b92915050565b600060208284031215613bdd57613bdc613a04565b5b6000613beb84828501613a8d565b91505092915050565b600081519050919050565b600082825260208201905092915050565b60005b83811015613c2e578082015181840152602081019050613c13565b60008484015250505050565b6000601f19601f8301169050919050565b6000613c5682613bf4565b613c608185613bff565b9350613c70818560208601613c10565b613c7981613c3a565b840191505092915050565b60006020820190508181036000830152613c9e8184613c4b565b905092915050565b600080fd5b7f4e487b7100000000000000000000000000000000000000000000000000000000600052604160045260246000fd5b613ce382613c3a565b810181811067ffffffffffffffff82111715613d0257613d01613cab565b5b80604052505050565b6000613d156139fa565b9050613d218282613cda565b919050565b600067ffffffffffffffff821115613d4157613d40613cab565b5b602082029050602081019050919050565b600080fd5b6000613d6a613d6584613d26565b613d0b565b90508083825260208201905060208402830185811115613d8d57613d8c613d52565b5b835b81811015613db65780613da28882613a8d565b845260208401935050602081019050613d8f565b5050509392505050565b600082601f830112613dd557613dd4613ca6565b5b8135613de5848260208601613d57565b91505092915050565b600080fd5b600067ffffffffffffffff821115613e0e57613e0d613cab565b5b613e1782613c3a565b9050602081019050919050565b82818337600083830152505050565b6000613e46613e4184613df3565b613d0b565b905082815260208101848484011115613e6257613e61613dee565b5b613e6d848285613e24565b509392505050565b600082601f830112613e8a57613e89613ca6565b5b8135613e9a848260208601613e33565b91505092915050565b600080600080600060a08688031215613ebf57613ebe613a04565b5b6000613ecd88828901613a57565b9550506020613ede88828901613a57565b945050604086013567ffffffffffffffff811115613eff57613efe613a09565b5b613f0b88828901613dc0565b935050606086013567ffffffffffffffff811115613f2c57613f2b613a09565b5b613f3888828901613dc0565b925050608086013567ffffffffffffffff811115613f5957613f58613a09565b5b613f6588828901613e75565b9150509295509295909350565b60008060408385031215613f8957613f88613a04565b5b6000613f9785828601613a8d565b9250506020613fa885828601613a8d565b9150509250929050565b600067ffffffffffffffff821115613fcd57613fcc613cab565b5b602082029050602081019050919050565b6000613ff1613fec84613fb2565b613d0b565b9050808382526020820190506020840283018581111561401457614013613d52565b5b835b8181101561403d57806140298882613a57565b845260208401935050602081019050614016565b5050509392505050565b600082601f83011261405c5761405b613ca6565b5b813561406c848260208601613fde565b91505092915050565b6000806040838503121561408c5761408b613a04565b5b600083013567ffffffffffffffff8111156140aa576140a9613a09565b5b6140b685828601614047565b925050602083013567ffffffffffffffff8111156140d7576140d6613a09565b5b6140e385828601613dc0565b9150509250929050565b600081519050919050565b600082825260208201905092915050565b6000819050602082019050919050565b61412281613a6c565b82525050565b60006141348383614119565b60208301905092915050565b6000602082019050919050565b6000614158826140ed565b61416281856140f8565b935061416d83614109565b8060005b8381101561419e5781516141858882614128565b975061419083614140565b925050600181019050614171565b5085935050505092915050565b600060208201905081810360008301526141c5818461414d565b905092915050565b60006101408201905081810360008301526141e8818d613c4b565b90506141f7602083018c613ae2565b614204604083018b613ae2565b614211606083018a613ae2565b61421e6080830189613ae2565b61422b60a0830188613ae2565b61423860c0830187613ae2565b61424560e0830186613ae2565b614253610100830185613ae2565b614261610120830184613ae2565b9b9a5050505050505050505050565b61427981613a2e565b82525050565b60006020820190506142946000830184614270565b92915050565b6142a381613b91565b81146142ae57600080fd5b50565b6000813590506142c08161429a565b92915050565b600080604083850312156142dd576142dc613a04565b5b60006142eb85828601613a57565b92505060206142fc858286016142b1565b9150509250929050565b600067ffffffffffffffff82111561432157614320613cab565b5b61432a82613c3a565b9050602081019050919050565b600061434a61434584614306565b613d0b565b90508281526020810184848401111561436657614365613dee565b5b614371848285613e24565b509392505050565b600082601f83011261438e5761438d613ca6565b5b813561439e848260208601614337565b91505092915050565b600080600080600080600080610100898b0312156143c8576143c7613a04565b5b60006143d68b828c01613a8d565b98505060206143e78b828c01613a8d565b97505060406143f88b828c01613a8d565b965050606089013567ffffffffffffffff81111561441957614418613a09565b5b6144258b828c01614379565b95505060806144368b828c01613a8d565b94505060a06144478b828c01613a8d565b93505060c06144588b828c01613a8d565b92505060e089013567ffffffffffffffff81111561447957614478613a09565b5b6144858b828c01613e75565b9150509295985092959890939650565b600080604083850312156144ac576144ab613a04565b5b60006144ba85828601613a57565b92505060206144cb85828601613a57565b9150509250929050565b600080600080600060a086880312156144f1576144f0613a04565b5b60006144ff88828901613a57565b955050602061451088828901613a57565b945050604061452188828901613a8d565b935050606061453288828901613a8d565b925050608086013567ffffffffffffffff81111561455357614552613a09565b5b61455f88828901613e75565b9150509295509295909350565b7f455243313135353a2061646472657373207a65726f206973206e6f742061207660008201527f616c6964206f776e657200000000000000000000000000000000000000000000602082015250565b60006145c8602a83613bff565b91506145d38261456c565b604082019050919050565b600060208201905081810360008301526145f7816145bb565b9050919050565b7f4e487b7100000000000000000000000000000000000000000000000000000000600052601160045260246000fd5b600061463882613a6c565b915061464383613a6c565b925082820390508181111561465b5761465a6145fe565b5b92915050565b7f4e487b7100000000000000000000000000000000000000000000000000000000600052602260045260246000fd5b600060028204905060018216806146a857607f821691505b6020821081036146bb576146ba614661565b5b50919050565b60006146cc82613a6c565b91506146d783613a6c565b92508282026146e581613a6c565b915082820484148315176146fc576146fb6145fe565b5b5092915050565b7f455243313135353a2063616c6c6572206973206e6f7420746f6b656e206f776e60008201527f6572206f7220617070726f766564000000000000000000000000000000000000602082015250565b600061475f602e83613bff565b915061476a82614703565b604082019050919050565b6000602082019050818103600083015261478e81614752565b9050919050565b7f43616c6c6572206973206e6f7420746865206f776e6572000000000000000000600082015250565b60006147cb601783613bff565b91506147d682614795565b602082019050919050565b600060208201905081810360008301526147fa816147be565b9050919050565b7f5769746864726177206e6f7420616c6c6f776564207768656e20616374697665600082015250565b6000614837602083613bff565b915061484282614801565b602082019050919050565b600060208201905081810360008301526148668161482a565b9050919050565b7f5769746864726177206e6f7420616c6c6f77656420616674657220636f6d706c60008201527f6574696f6e000000000000000000000000000000000000000000000000000000602082015250565b60006148c9602583613bff565b91506148d48261486d565b604082019050919050565b600060208201905081810360008301526148f8816148bc565b9050919050565b7f5769746864726177206e6f7420616c6c6f776564207768656e2064656661756c60008201527f7465640000000000000000000000000000000000000000000000000000000000602082015250565b600061495b602383613bff565b9150614966826148ff565b604082019050919050565b6000602082019050818103600083015261498a8161494e565b9050919050565b7f5769746864726177616c20746f6b656e20616d6f756e7420657863656564732060008201527f746f6b656e20616d6f756e7420696e20636f6e74726163740000000000000000602082015250565b60006149ed603883613bff565b91506149f882614991565b604082019050919050565b60006020820190508181036000830152614a1c816149e0565b9050919050565b6000604082019050614a386000830185614270565b614a456020830184613ae2565b9392505050565b600081519050614a5b8161429a565b92915050565b600060208284031215614a7757614a76613a04565b5b6000614a8584828501614a4c565b91505092915050565b7f455243313135353a206163636f756e747320616e6420696473206c656e67746860008201527f206d69736d617463680000000000000000000000000000000000000000000000602082015250565b6000614aea602983613bff565b9150614af582614a8e565b604082019050919050565b60006020820190508181036000830152614b1981614add565b9050919050565b7f4e487b7100000000000000000000000000000000000000000000000000000000600052603260045260246000fd5b6000614b5a82613a6c565b91507fffffffffffffffffffffffffffffffffffffffffffffffffffffffffffffffff8203614b8c57614b8b6145fe565b5b600182019050919050565b7f426f6e6420697320696e61637469766500000000000000000000000000000000600082015250565b6000614bcd601083613bff565b9150614bd882614b97565b602082019050919050565b60006020820190508181036000830152614bfc81614bc0565b9050919050565b7f496e73756666696369656e7420626f6e64207175616e746974792072656d616960008201527f6e696e6700000000000000000000000000000000000000000000000000000000602082015250565b6000614c5f602483613bff565b9150614c6a82614c03565b604082019050919050565b60006020820190508181036000830152614c8e81614c52565b9050919050565b6000614ca082613a6c565b9150614cab83613a6c565b9250828201905080821115614cc357614cc26145fe565b5b92915050565b6000606082019050614cde6000830186614270565b614ceb6020830185614270565b614cf86040830184613ae2565b949350505050565b7f4e487b7100000000000000000000000000000000000000000000000000000000600052601260045260246000fd5b6000614d3a82613a6c565b9150614d4583613a6c565b925082614d5557614d54614d00565b5b828204905092915050565b7f426f6e64206973206e6f7420636f6d706c657465640000000000000000000000600082015250565b6000614d96601583613bff565b9150614da182614d60565b602082019050919050565b60006020820190508181036000830152614dc581614d89565b9050919050565b7f496e73756666696369656e7420626f6e64207175616e74697479000000000000600082015250565b6000614e02601a83613bff565b9150614e0d82614dcc565b602082019050919050565b60006020820190508181036000830152614e3181614df5565b9050919050565b7f426f6e64206973206e6f742064656661756c7465640000000000000000000000600082015250565b6000614e6e601583613bff565b9150614e7982614e38565b602082019050919050565b60006020820190508181036000830152614e9d81614e61565b9050919050565b6000604082019050614eb96000830185613ae2565b614ec66020830184613ae2565b9392505050565b7f426f6e64206973206e6f742063616e63656c6564000000000000000000000000600082015250565b6000614f03601483613bff565b9150614f0e82614ecd565b602082019050919050565b60006020820190508181036000830152614f3281614ef6565b9050919050565b7f426f6e6420697320616c726561647920636f6d706c6574656400000000000000600082015250565b6000614f6f601983613bff565b9150614f7a82614f39565b602082019050919050565b60006020820190508181036000830152614f9e81614f62565b9050919050565b7f416374697665206475726174696f6e2073686f756c642062652073686f72746560008201527f72207468616e206475726174696f6e0000000000000000000000000000000000602082015250565b6000615001602f83613bff565b915061500c82614fa5565b604082019050919050565b6000602082019050818103600083015261503081614ff4565b9050919050565b60008190508160005260206000209050919050565b60006020601f8301049050919050565b600082821b905092915050565b6000600883026150997fffffffffffffffffffffffffffffffffffffffffffffffffffffffffffffffff8261505c565b6150a3868361505c565b95508019841693508086168417925050509392505050565b6000819050919050565b60006150e06150db6150d684613a6c565b6150bb565b613a6c565b9050919050565b6000819050919050565b6150fa836150c5565b61510e615106826150e7565b848454615069565b825550505050565b600090565b615123615116565b61512e8184846150f1565b505050565b5b818110156151525761514760008261511b565b600181019050615134565b5050565b601f8211156151975761516881615037565b6151718461504c565b81016020851015615180578190505b61519461518c8561504c565b830182615133565b50505b505050565b600082821c905092915050565b60006151ba6000198460080261519c565b1980831691505092915050565b60006151d383836151a9565b9150826002028217905092915050565b6151ec82613bf4565b67ffffffffffffffff81111561520557615204613cab565b5b61520f8254614690565b61521a828285615156565b600060209050601f83116001811461524d576000841561523b578287015190505b61524585826151c7565b8655506152ad565b601f19841661525b86615037565b60005b828110156152835784890151825560018201915060208501945060208101905061525e565b868310156152a0578489015161529c601f8916826151a9565b8355505b6001600288020188555050505b505050505050565b60006080820190506152ca6000830187613ae2565b6152d76020830186613ae2565b6152e46040830185613ae2565b6152f16060830184613ae2565b95945050505050565b7f626f6e642069732064656661756c746564000000000000000000000000000000600082015250565b6000615330601183613bff565b915061533b826152fa565b602082019050919050565b6000602082019050818103600083015261535f81615323565b9050919050565b7f626f6e6420697320636f6d706c65746564000000000000000000000000000000600082015250565b600061539c601183613bff565b91506153a782615366565b602082019050919050565b600060208201905081810360008301526153cb8161538f565b9050919050565b6000815190506153e181613a76565b92915050565b6000602082840312156153fd576153fc613a04565b5b600061540b848285016153d2565b91505092915050565b7f43616e6e6f742077697468647261772065786365737300000000000000000000600082015250565b600061544a601683613bff565b915061545582615414565b602082019050919050565b600060208201905081810360008301526154798161543d565b9050919050565b7f43616e6e6f742077697468647261772066726f6d20656d70747920706f6f6c00600082015250565b60006154b6601f83613bff565b91506154c182615480565b602082019050919050565b600060208201905081810360008301526154e5816154a9565b9050919050565b7f455243313135353a2069647320616e6420616d6f756e7473206c656e6774682060008201527f6d69736d61746368000000000000000000000000000000000000000000000000602082015250565b6000615548602883613bff565b9150615553826154ec565b604082019050919050565b600060208201905081810360008301526155778161553b565b9050919050565b7f455243313135353a207472616e7366657220746f20746865207a65726f20616460008201527f6472657373000000000000000000000000000000000000000000000000000000602082015250565b60006155da602583613bff565b91506155e58261557e565b604082019050919050565b60006020820190508181036000830152615609816155cd565b9050919050565b7f455243313135353a20696e73756666696369656e742062616c616e636520666f60008201527f72207472616e7366657200000000000000000000000000000000000000000000602082015250565b600061566c602a83613bff565b915061567782615610565b604082019050919050565b6000602082019050818103600083015261569b8161565f565b9050919050565b600060408201905081810360008301526156bc818561414d565b905081810360208301526156d0818461414d565b90509392505050565b7f455243313135353a206275726e2066726f6d20746865207a65726f206164647260008201527f6573730000000000000000000000000000000000000000000000000000000000602082015250565b6000615735602383613bff565b9150615740826156d9565b604082019050919050565b6000602082019050818103600083015261576481615728565b9050919050565b7f455243313135353a206275726e20616d6f756e7420657863656564732062616c60008201527f616e636500000000000000000000000000000000000000000000000000000000602082015250565b60006157c7602483613bff565b91506157d28261576b565b604082019050919050565b600060208201905081810360008301526157f6816157ba565b9050919050565b7f455243313135353a2073657474696e6720617070726f76616c2073746174757360008201527f20666f722073656c660000000000000000000000000000000000000000000000602082015250565b6000615859602983613bff565b9150615864826157fd565b604082019050919050565b600060208201905081810360008301526158888161584c565b9050919050565b7f455243313135353a206d696e7420746f20746865207a65726f2061646472657360008201527f7300000000000000000000000000000000000000000000000000000000000000602082015250565b60006158eb602183613bff565b91506158f68261588f565b604082019050919050565b6000602082019050818103600083015261591a816158de565b9050919050565b600081519050919050565b600082825260208201905092915050565b600061594882615921565b615952818561592c565b9350615962818560208601613c10565b61596b81613c3a565b840191505092915050565b600060a08201905061598b6000830188614270565b6159986020830187614270565b81810360408301526159aa818661414d565b905081810360608301526159be818561414d565b905081810360808301526159d2818461593d565b90509695505050505050565b6000815190506159ed81613b38565b92915050565b600060208284031215615a0957615a08613a04565b5b6000615a17848285016159de565b91505092915050565b60008160e01c9050919050565b600060033d1115615a4c5760046000803e615a49600051615a20565b90505b90565b600060443d10615adc57615a616139fa565b60043d036004823e80513d602482011167ffffffffffffffff82111715615a89575050615adc565b808201805167ffffffffffffffff811115615aa75750505050615adc565b80602083010160043d038501811115615ac4575050505050615adc565b615ad382602001850186613cda565b82955050505050505b90565b7f455243313135353a207472616e7366657220746f206e6f6e2d4552433131353560008201527f526563656976657220696d706c656d656e746572000000000000000000000000602082015250565b6000615b3b603483613bff565b9150615b4682615adf565b604082019050919050565b60006020820190508181036000830152615b6a81615b2e565b9050919050565b7f455243313135353a204552433131353552656365697665722072656a6563746560008201527f6420746f6b656e73000000000000000000000000000000000000000000000000602082015250565b6000615bcd602883613bff565b9150615bd882615b71565b604082019050919050565b60006020820190508181036000830152615bfc81615bc0565b9050919050565b600060a082019050615c186000830188614270565b615c256020830187614270565b615c326040830186613ae2565b615c3f6060830185613ae2565b8181036080830152615c51818461593d565b9050969550505050505056fea26469706673582212200dfca1b4562f8d431d44136bb1ddb5071543af290922a8b206f7436159cb34d264736f6c63430008110033",
  "linkReferences": {},
  "deployedLinkReferences": {}
}