{
  "_format": "hh-sol-artifact-1",
  "contractName": "BondFactory",
  "sourceName": "contracts/BondFactory.sol",
  "abi": [
    {
      "inputs": [
        {
          "internalType": "string",
          "name": "uri",
          "type": "string"
        },
        {
          "internalType": "address",
          "name": "token",
          "type": "address"
        },
        {
          "internalType": "address",
          "name": "deployer",
          "type": "address"
        }
      ],
      "stateMutability": "nonpayable",
      "type": "constructor"
    },
    {
      "anonymous": false,
      "inputs": [
        {
          "indexed": true,
          "internalType": "address",
          "name": "account",
          "type": "address"
        },
        {
          "indexed": true,
          "internalType": "address",
          "name": "operator",
          "type": "address"
        },
        {
          "indexed": false,
          "internalType": "bool",
          "name": "approved",
          "type": "bool"
        }
      ],
      "name": "ApprovalForAll",
      "type": "event"
    },
    {
      "anonymous": false,
      "inputs": [
        {
          "indexed": true,
          "internalType": "uint256",
          "name": "id",
          "type": "uint256"
        },
        {
          "indexed": false,
          "internalType": "uint256",
          "name": "totalDebt",
          "type": "uint256"
        },
        {
          "indexed": false,
          "internalType": "uint256",
          "name": "paidDebt",
          "type": "uint256"
        }
      ],
      "name": "Completed",
      "type": "event"
    },
    {
      "anonymous": false,
      "inputs": [
        {
          "indexed": true,
          "internalType": "uint256",
          "name": "id",
          "type": "uint256"
        },
        {
          "indexed": false,
          "internalType": "uint256",
          "name": "totalDebt",
          "type": "uint256"
        },
        {
          "indexed": false,
          "internalType": "uint256",
          "name": "paidDebt",
          "type": "uint256"
        }
      ],
      "name": "Defaulted",
      "type": "event"
    },
    {
      "anonymous": false,
      "inputs": [
        {
          "indexed": true,
          "internalType": "uint256",
          "name": "id",
          "type": "uint256"
        },
        {
          "indexed": false,
          "internalType": "uint256",
          "name": "bondQuantity",
          "type": "uint256"
        },
        {
          "indexed": false,
          "internalType": "uint256",
          "name": "tokenAmountPerBond",
          "type": "uint256"
        },
        {
          "indexed": false,
          "internalType": "uint256",
          "name": "couponRate",
          "type": "uint256"
        },
        {
          "indexed": false,
          "internalType": "uint256",
          "name": "maturityDate",
          "type": "uint256"
        }
      ],
      "name": "Issued",
      "type": "event"
    },
    {
      "anonymous": false,
      "inputs": [
        {
          "indexed": true,
          "internalType": "address",
          "name": "operator",
          "type": "address"
        },
        {
          "indexed": true,
          "internalType": "address",
          "name": "from",
          "type": "address"
        },
        {
          "indexed": true,
          "internalType": "address",
          "name": "to",
          "type": "address"
        },
        {
          "indexed": false,
          "internalType": "uint256[]",
          "name": "ids",
          "type": "uint256[]"
        },
        {
          "indexed": false,
          "internalType": "uint256[]",
          "name": "values",
          "type": "uint256[]"
        }
      ],
      "name": "TransferBatch",
      "type": "event"
    },
    {
      "anonymous": false,
      "inputs": [
        {
          "indexed": true,
          "internalType": "address",
          "name": "operator",
          "type": "address"
        },
        {
          "indexed": true,
          "internalType": "address",
          "name": "from",
          "type": "address"
        },
        {
          "indexed": true,
          "internalType": "address",
          "name": "to",
          "type": "address"
        },
        {
          "indexed": false,
          "internalType": "uint256",
          "name": "id",
          "type": "uint256"
        },
        {
          "indexed": false,
          "internalType": "uint256",
          "name": "value",
          "type": "uint256"
        }
      ],
      "name": "TransferSingle",
      "type": "event"
    },
    {
      "anonymous": false,
      "inputs": [
        {
          "indexed": false,
          "internalType": "string",
          "name": "value",
          "type": "string"
        },
        {
          "indexed": true,
          "internalType": "uint256",
          "name": "id",
          "type": "uint256"
        }
      ],
      "name": "URI",
      "type": "event"
    },
    {
      "inputs": [
        {
          "internalType": "address",
          "name": "account",
          "type": "address"
        },
        {
          "internalType": "uint256",
          "name": "id",
          "type": "uint256"
        }
      ],
      "name": "balanceOf",
      "outputs": [
        {
          "internalType": "uint256",
          "name": "",
          "type": "uint256"
        }
      ],
      "stateMutability": "view",
      "type": "function"
    },
    {
      "inputs": [
        {
          "internalType": "address[]",
          "name": "accounts",
          "type": "address[]"
        },
        {
          "internalType": "uint256[]",
          "name": "ids",
          "type": "uint256[]"
        }
      ],
      "name": "balanceOfBatch",
      "outputs": [
        {
          "internalType": "uint256[]",
          "name": "",
          "type": "uint256[]"
        }
      ],
      "stateMutability": "view",
      "type": "function"
    },
    {
      "inputs": [],
      "name": "baseToken",
      "outputs": [
        {
          "internalType": "address",
          "name": "",
          "type": "address"
        }
      ],
      "stateMutability": "view",
      "type": "function"
    },
    {
      "inputs": [
        {
          "internalType": "uint256",
          "name": "id",
          "type": "uint256"
        }
      ],
      "name": "bondMetadata",
      "outputs": [
        {
          "internalType": "string",
          "name": "",
          "type": "string"
        },
        {
          "internalType": "uint256",
          "name": "",
          "type": "uint256"
        },
        {
          "internalType": "uint256",
          "name": "",
          "type": "uint256"
        },
        {
          "internalType": "uint256",
          "name": "",
          "type": "uint256"
        },
        {
          "internalType": "uint256",
          "name": "",
          "type": "uint256"
        },
        {
          "internalType": "uint256",
          "name": "",
          "type": "uint256"
        },
        {
          "internalType": "uint256",
          "name": "",
          "type": "uint256"
        },
        {
          "internalType": "uint256",
          "name": "",
          "type": "uint256"
        },
        {
          "internalType": "uint256",
          "name": "",
          "type": "uint256"
        },
        {
          "internalType": "uint256",
          "name": "",
          "type": "uint256"
        }
      ],
      "stateMutability": "view",
      "type": "function"
    },
    {
      "inputs": [
        {
          "internalType": "uint256",
          "name": "id",
          "type": "uint256"
        }
      ],
      "name": "couponRate",
      "outputs": [
        {
          "internalType": "uint256",
          "name": "",
          "type": "uint256"
        }
      ],
      "stateMutability": "view",
      "type": "function"
    },
    {
      "inputs": [
        {
          "internalType": "uint256",
          "name": "id",
          "type": "uint256"
        },
        {
          "internalType": "uint256",
          "name": "tokenAmount",
          "type": "uint256"
        }
      ],
      "name": "deposit",
      "outputs": [],
      "stateMutability": "nonpayable",
      "type": "function"
    },
    {
      "inputs": [
        {
          "internalType": "uint256",
          "name": "id",
          "type": "uint256"
        }
      ],
      "name": "designatedTokenPool",
      "outputs": [
        {
          "internalType": "uint256",
          "name": "",
          "type": "uint256"
        }
      ],
      "stateMutability": "view",
      "type": "function"
    },
    {
      "inputs": [],
      "name": "fundsRaised",
      "outputs": [
        {
          "internalType": "uint256",
          "name": "",
          "type": "uint256"
        }
      ],
      "stateMutability": "view",
      "type": "function"
    },
    {
      "inputs": [
        {
          "internalType": "uint256",
          "name": "id",
          "type": "uint256"
        }
      ],
      "name": "hasReachedMaturity",
      "outputs": [
        {
          "internalType": "bool",
          "name": "",
          "type": "bool"
        }
      ],
      "stateMutability": "view",
      "type": "function"
    },
    {
      "inputs": [
        {
          "internalType": "uint256",
          "name": "id",
          "type": "uint256"
        }
      ],
      "name": "isActive",
      "outputs": [
        {
          "internalType": "bool",
          "name": "",
          "type": "bool"
        }
      ],
      "stateMutability": "view",
      "type": "function"
    },
    {
      "inputs": [
        {
          "internalType": "address",
          "name": "account",
          "type": "address"
        },
        {
          "internalType": "address",
          "name": "operator",
          "type": "address"
        }
      ],
      "name": "isApprovedForAll",
      "outputs": [
        {
          "internalType": "bool",
          "name": "",
          "type": "bool"
        }
      ],
      "stateMutability": "view",
      "type": "function"
    },
    {
      "inputs": [
        {
          "internalType": "uint256",
          "name": "id",
          "type": "uint256"
        }
      ],
      "name": "isCanceled",
      "outputs": [
        {
          "internalType": "bool",
          "name": "",
          "type": "bool"
        }
      ],
      "stateMutability": "view",
      "type": "function"
    },
    {
      "inputs": [
        {
          "internalType": "uint256",
          "name": "id",
          "type": "uint256"
        }
      ],
      "name": "isCompleted",
      "outputs": [
        {
          "internalType": "bool",
          "name": "",
          "type": "bool"
        }
      ],
      "stateMutability": "view",
      "type": "function"
    },
    {
      "inputs": [
        {
          "internalType": "uint256",
          "name": "id",
          "type": "uint256"
        }
      ],
      "name": "isCompletedInTheory",
      "outputs": [
        {
          "internalType": "bool",
          "name": "",
          "type": "bool"
        }
      ],
      "stateMutability": "view",
      "type": "function"
    },
    {
      "inputs": [
        {
          "internalType": "uint256",
          "name": "id",
          "type": "uint256"
        }
      ],
      "name": "isDefaulted",
      "outputs": [
        {
          "internalType": "bool",
          "name": "",
          "type": "bool"
        }
      ],
      "stateMutability": "view",
      "type": "function"
    },
    {
      "inputs": [
        {
          "internalType": "uint256",
          "name": "id",
          "type": "uint256"
        }
      ],
      "name": "isDefaultedInTheory",
      "outputs": [
        {
          "internalType": "bool",
          "name": "",
          "type": "bool"
        }
      ],
      "stateMutability": "view",
      "type": "function"
    },
    {
      "inputs": [
        {
          "internalType": "uint256",
          "name": "id",
          "type": "uint256"
        }
      ],
      "name": "isFulfilled",
      "outputs": [
        {
          "internalType": "bool",
          "name": "",
          "type": "bool"
        }
      ],
      "stateMutability": "view",
      "type": "function"
    },
    {
      "inputs": [
        {
          "internalType": "uint256",
          "name": "id",
          "type": "uint256"
        }
      ],
      "name": "isFullyRedeemed",
      "outputs": [
        {
          "internalType": "bool",
          "name": "",
          "type": "bool"
        }
      ],
      "stateMutability": "view",
      "type": "function"
    },
    {
      "inputs": [
        {
          "internalType": "uint256",
          "name": "bondQuantity",
          "type": "uint256"
        },
        {
          "internalType": "uint256",
          "name": "minPurchasedQuantity",
          "type": "uint256"
        },
        {
          "internalType": "uint256",
          "name": "tokenAmountPerBond",
          "type": "uint256"
        },
        {
          "internalType": "string",
          "name": "ticker",
          "type": "string"
        },
        {
          "internalType": "uint256",
          "name": "durationDays",
          "type": "uint256"
        },
        {
          "internalType": "uint256",
          "name": "activeDurationInDays",
          "type": "uint256"
        },
        {
          "internalType": "uint256",
          "name": "rate",
          "type": "uint256"
        }
      ],
      "name": "issue",
      "outputs": [
        {
          "internalType": "uint256",
          "name": "id",
          "type": "uint256"
        }
      ],
      "stateMutability": "nonpayable",
      "type": "function"
    },
    {
      "inputs": [
        {
          "internalType": "uint256",
          "name": "id",
          "type": "uint256"
        }
      ],
      "name": "markAsCompleted",
      "outputs": [],
      "stateMutability": "nonpayable",
      "type": "function"
    },
    {
      "inputs": [
        {
          "internalType": "uint256",
          "name": "id",
          "type": "uint256"
        }
      ],
      "name": "markAsDefaulted",
      "outputs": [],
      "stateMutability": "nonpayable",
      "type": "function"
    },
    {
      "inputs": [],
      "name": "owner",
      "outputs": [
        {
          "internalType": "address",
          "name": "",
          "type": "address"
        }
      ],
      "stateMutability": "view",
      "type": "function"
    },
    {
      "inputs": [
        {
          "internalType": "uint256",
          "name": "id",
          "type": "uint256"
        }
      ],
      "name": "poolAmount",
      "outputs": [
        {
          "internalType": "uint256",
          "name": "",
          "type": "uint256"
        }
      ],
      "stateMutability": "view",
      "type": "function"
    },
    {
      "inputs": [
        {
          "internalType": "uint256",
          "name": "id",
          "type": "uint256"
        }
      ],
      "name": "principal",
      "outputs": [
        {
          "internalType": "uint256",
          "name": "",
          "type": "uint256"
        }
      ],
      "stateMutability": "view",
      "type": "function"
    },
    {
      "inputs": [
        {
          "internalType": "uint256",
          "name": "id",
          "type": "uint256"
        }
      ],
      "name": "principalWithInterest",
      "outputs": [
        {
          "internalType": "uint256",
          "name": "",
          "type": "uint256"
        }
      ],
      "stateMutability": "view",
      "type": "function"
    },
    {
      "inputs": [
        {
          "internalType": "uint256",
          "name": "id",
          "type": "uint256"
        },
        {
          "internalType": "uint256",
          "name": "bondQuantity",
          "type": "uint256"
        }
      ],
      "name": "purchase",
      "outputs": [],
      "stateMutability": "nonpayable",
      "type": "function"
    },
    {
      "inputs": [
        {
          "internalType": "uint256",
          "name": "id",
          "type": "uint256"
        },
        {
          "internalType": "uint256",
          "name": "bondQuantity",
          "type": "uint256"
        }
      ],
      "name": "redeem",
      "outputs": [],
      "stateMutability": "nonpayable",
      "type": "function"
    },
    {
      "inputs": [
        {
          "internalType": "uint256",
          "name": "id",
          "type": "uint256"
        },
        {
          "internalType": "uint256",
          "name": "bondQuantity",
          "type": "uint256"
        }
      ],
      "name": "redeemCanceled",
      "outputs": [],
      "stateMutability": "nonpayable",
      "type": "function"
    },
    {
      "inputs": [
        {
          "internalType": "uint256",
          "name": "id",
          "type": "uint256"
        },
        {
          "internalType": "uint256",
          "name": "bondQuantity",
          "type": "uint256"
        }
      ],
      "name": "redeemDefaulted",
      "outputs": [],
      "stateMutability": "nonpayable",
      "type": "function"
    },
    {
      "inputs": [
        {
          "internalType": "uint256",
          "name": "id",
          "type": "uint256"
        }
      ],
      "name": "remainingQuantity",
      "outputs": [
        {
          "internalType": "uint256",
          "name": "",
          "type": "uint256"
        }
      ],
      "stateMutability": "view",
      "type": "function"
    },
    {
      "inputs": [
        {
          "internalType": "address",
          "name": "from",
          "type": "address"
        },
        {
          "internalType": "address",
          "name": "to",
          "type": "address"
        },
        {
          "internalType": "uint256[]",
          "name": "ids",
          "type": "uint256[]"
        },
        {
          "internalType": "uint256[]",
          "name": "amounts",
          "type": "uint256[]"
        },
        {
          "internalType": "bytes",
          "name": "data",
          "type": "bytes"
        }
      ],
      "name": "safeBatchTransferFrom",
      "outputs": [],
      "stateMutability": "nonpayable",
      "type": "function"
    },
    {
      "inputs": [
        {
          "internalType": "address",
          "name": "from",
          "type": "address"
        },
        {
          "internalType": "address",
          "name": "to",
          "type": "address"
        },
        {
          "internalType": "uint256",
          "name": "id",
          "type": "uint256"
        },
        {
          "internalType": "uint256",
          "name": "amount",
          "type": "uint256"
        },
        {
          "internalType": "bytes",
          "name": "data",
          "type": "bytes"
        }
      ],
      "name": "safeTransferFrom",
      "outputs": [],
      "stateMutability": "nonpayable",
      "type": "function"
    },
    {
      "inputs": [
        {
          "internalType": "address",
          "name": "operator",
          "type": "address"
        },
        {
          "internalType": "bool",
          "name": "approved",
          "type": "bool"
        }
      ],
      "name": "setApprovalForAll",
      "outputs": [],
      "stateMutability": "nonpayable",
      "type": "function"
    },
    {
      "inputs": [
        {
          "internalType": "bytes4",
          "name": "interfaceId",
          "type": "bytes4"
        }
      ],
      "name": "supportsInterface",
      "outputs": [
        {
          "internalType": "bool",
          "name": "",
          "type": "bool"
        }
      ],
      "stateMutability": "view",
      "type": "function"
    },
    {
      "inputs": [
        {
          "internalType": "uint256",
          "name": "id",
          "type": "uint256"
        }
      ],
      "name": "timeElapsed",
      "outputs": [
        {
          "internalType": "uint256",
          "name": "",
          "type": "uint256"
        }
      ],
      "stateMutability": "view",
      "type": "function"
    },
    {
      "inputs": [
        {
          "internalType": "uint256",
          "name": "id",
          "type": "uint256"
        }
      ],
      "name": "timeRemainingToEndOfActive",
      "outputs": [
        {
          "internalType": "uint256",
          "name": "",
          "type": "uint256"
        }
      ],
      "stateMutability": "view",
      "type": "function"
    },
    {
      "inputs": [
        {
          "internalType": "uint256",
          "name": "id",
          "type": "uint256"
        }
      ],
      "name": "timeRemainingToMaturity",
      "outputs": [
        {
          "internalType": "uint256",
          "name": "",
          "type": "uint256"
        }
      ],
      "stateMutability": "view",
      "type": "function"
    },
    {
      "inputs": [],
      "name": "tvl",
      "outputs": [
        {
          "internalType": "uint256",
          "name": "",
          "type": "uint256"
        }
      ],
      "stateMutability": "view",
      "type": "function"
    },
    {
      "inputs": [
        {
          "internalType": "uint256",
          "name": "",
          "type": "uint256"
        }
      ],
      "name": "uri",
      "outputs": [
        {
          "internalType": "string",
          "name": "",
          "type": "string"
        }
      ],
      "stateMutability": "view",
      "type": "function"
    },
    {
      "inputs": [
        {
          "internalType": "uint256",
          "name": "id",
          "type": "uint256"
        },
        {
          "internalType": "uint256",
          "name": "tokenAmount",
          "type": "uint256"
        }
      ],
      "name": "withdraw",
      "outputs": [],
      "stateMutability": "nonpayable",
      "type": "function"
    },
    {
      "inputs": [
        {
          "internalType": "uint256",
          "name": "id",
          "type": "uint256"
        }
      ],
      "name": "withdrawExcess",
      "outputs": [],
      "stateMutability": "nonpayable",
      "type": "function"
    }
  ],
  "bytecode": "0x60c060405260006003553480156200001657600080fd5b506040516200638f3803806200638f83398181016040528101906200003c9190620002cd565b826200004e81620000c060201b60201c565b508073ffffffffffffffffffffffffffffffffffffffff1660808173ffffffffffffffffffffffffffffffffffffffff16815250508173ffffffffffffffffffffffffffffffffffffffff1660a08173ffffffffffffffffffffffffffffffffffffffff16815250505050506200067a565b8060029081620000d1919062000593565b5050565b6000604051905090565b600080fd5b600080fd5b600080fd5b600080fd5b6000601f19601f8301169050919050565b7f4e487b7100000000000000000000000000000000000000000000000000000000600052604160045260246000fd5b6200013e82620000f3565b810181811067ffffffffffffffff8211171562000160576200015f62000104565b5b80604052505050565b600062000175620000d5565b905062000183828262000133565b919050565b600067ffffffffffffffff821115620001a657620001a562000104565b5b620001b182620000f3565b9050602081019050919050565b60005b83811015620001de578082015181840152602081019050620001c1565b60008484015250505050565b600062000201620001fb8462000188565b62000169565b90508281526020810184848401111562000220576200021f620000ee565b5b6200022d848285620001be565b509392505050565b600082601f8301126200024d576200024c620000e9565b5b81516200025f848260208601620001ea565b91505092915050565b600073ffffffffffffffffffffffffffffffffffffffff82169050919050565b6000620002958262000268565b9050919050565b620002a78162000288565b8114620002b357600080fd5b50565b600081519050620002c7816200029c565b92915050565b600080600060608486031215620002e957620002e8620000df565b5b600084015167ffffffffffffffff8111156200030a5762000309620000e4565b5b620003188682870162000235565b93505060206200032b86828701620002b6565b92505060406200033e86828701620002b6565b9150509250925092565b600081519050919050565b7f4e487b7100000000000000000000000000000000000000000000000000000000600052602260045260246000fd5b600060028204905060018216806200039b57607f821691505b602082108103620003b157620003b062000353565b5b50919050565b60008190508160005260206000209050919050565b60006020601f8301049050919050565b600082821b905092915050565b6000600883026200041b7fffffffffffffffffffffffffffffffffffffffffffffffffffffffffffffffff82620003dc565b620004278683620003dc565b95508019841693508086168417925050509392505050565b6000819050919050565b6000819050919050565b6000620004746200046e62000468846200043f565b62000449565b6200043f565b9050919050565b6000819050919050565b620004908362000453565b620004a86200049f826200047b565b848454620003e9565b825550505050565b600090565b620004bf620004b0565b620004cc81848462000485565b505050565b5b81811015620004f457620004e8600082620004b5565b600181019050620004d2565b5050565b601f82111562000543576200050d81620003b7565b6200051884620003cc565b8101602085101562000528578190505b620005406200053785620003cc565b830182620004d1565b50505b505050565b600082821c905092915050565b6000620005686000198460080262000548565b1980831691505092915050565b600062000583838362000555565b9150826002028217905092915050565b6200059e8262000348565b67ffffffffffffffff811115620005ba57620005b962000104565b5b620005c6825462000382565b620005d3828285620004f8565b600060209050601f8311600181146200060b5760008415620005f6578287015190505b62000602858262000575565b86555062000672565b601f1984166200061b86620003b7565b60005b8281101562000645578489015182556001820191506020850194506020810190506200061e565b8683101562000665578489015162000661601f89168262000555565b8355505b6001600288020188555050505b505050505050565b60805160a051615c8d6200070260003960008181610f3f015281816113ae015281816115c401528181611a9801528181611c6501528181611e42015281816120880152818161216b0152818161231e015281816123c501526125ba015260008181610cfd0152818161185e015281816121c40152818161246401526127c30152615c8d6000f3fe608060405234801561001057600080fd5b50600436106102525760003560e01c806382afd23b11610146578063b09f2b1c116100c3578063e5328e0611610087578063e5328e06146107f2578063e755ddd714610810578063e985e9c51461082c578063f0d8100a1461085c578063f242432a1461088c578063fcbc669a146108a857610252565b8063b09f2b1c14610750578063c0a6026c1461076c578063c55dae6314610788578063d3b7811b146107a6578063e2bbb158146107d657610252565b8063932a8de01161010a578063932a8de01461069c578063a22cb465146106cc578063a8743022146106e8578063a996ef0814610704578063abac75e11461072057610252565b806382afd23b146105b557806388bdc083146105e55780638c3526c2146106155780638da5cb5b1461064e5780638f0dbf771461066c57610252565b806339e3af9b116101d45780636ff80d93116101985780636ff80d93146104ed57806370876c981461051d57806377e2a08b146105395780637a41984b146105695780637cbc23731461059957610252565b806339e3af9b14610423578063441a3e70146104535780634e1273f41461046f578063549493bb1461049f5780636681b9fd146104cf57610252565b80630e89341c1161021b5780630e89341c1461034757806314f29493146103775780632eb2c2d6146103a75780632f3ad61f146103c35780633097afb8146103f357610252565b8062fdd58e1461025757806301ffc9a71461028757806302159497146102b757806308913ce8146102e75780630914902014610317575b600080fd5b610271600480360381019061026c9190613acc565b6108d8565b60405161027e9190613b1b565b60405180910390f35b6102a1600480360381019061029c9190613b8e565b6109a0565b6040516102ae9190613bd6565b60405180910390f35b6102d160048036038101906102cc9190613bf1565b610a82565b6040516102de9190613b1b565b60405180910390f35b61030160048036038101906102fc9190613bf1565b610a9f565b60405161030e9190613b1b565b60405180910390f35b610331600480360381019061032c9190613bf1565b610aca565b60405161033e9190613bd6565b60405180910390f35b610361600480360381019061035c9190613bf1565b610b00565b60405161036e9190613cae565b60405180910390f35b610391600480360381019061038c9190613bf1565b610b94565b60405161039e9190613b1b565b60405180910390f35b6103c160048036038101906103bc9190613ecd565b610bd2565b005b6103dd60048036038101906103d89190613bf1565b610c73565b6040516103ea9190613bd6565b60405180910390f35b61040d60048036038101906104089190613bf1565b610c9d565b60405161041a9190613bd6565b60405180910390f35b61043d60048036038101906104389190613bf1565b610cd6565b60405161044a9190613bd6565b60405180910390f35b61046d60048036038101906104689190613f9c565b610cfb565b005b6104896004803603810190610484919061409f565b610fe0565b60405161049691906141d5565b60405180910390f35b6104b960048036038101906104b49190613bf1565b6110f9565b6040516104c69190613bd6565b60405180910390f35b6104d761112b565b6040516104e49190613b1b565b60405180910390f35b61050760048036038101906105029190613bf1565b611135565b6040516105149190613bd6565b60405180910390f35b61053760048036038101906105329190613f9c565b61116d565b005b610553600480360381019061054e9190613bf1565b611453565b6040516105609190613b1b565b60405180910390f35b610583600480360381019061057e9190613bf1565b6114ac565b6040516105909190613bd6565b60405180910390f35b6105b360048036038101906105ae9190613f9c565b6114d6565b005b6105cf60048036038101906105ca9190613bf1565b611690565b6040516105dc9190613bd6565b60405180910390f35b6105ff60048036038101906105fa9190613bf1565b6116b3565b60405161060c9190613b1b565b60405180910390f35b61062f600480360381019061062a9190613bf1565b6116e6565b6040516106459a999897969594939291906141f7565b60405180910390f35b61065661185a565b60405161066391906142a9565b60405180910390f35b61068660048036038101906106819190613bf1565b611882565b6040516106939190613bd6565b60405180910390f35b6106b660048036038101906106b19190613bf1565b6118a4565b6040516106c39190613b1b565b60405180910390f35b6106e660048036038101906106e191906142f0565b6118e2565b005b61070260048036038101906106fd9190613bf1565b6118f8565b005b61071e60048036038101906107199190613f9c565b611b77565b005b61073a60048036038101906107359190613bf1565b611d31565b6040516107479190613b1b565b60405180910390f35b61076a60048036038101906107659190613f9c565b611d51565b005b61078660048036038101906107819190613bf1565b611f0e565b005b610790612167565b60405161079d91906142a9565b60405180910390f35b6107c060048036038101906107bb9190613bf1565b61218f565b6040516107cd9190613b1b565b60405180910390f35b6107f060048036038101906107eb9190613f9c565b6121c2565b005b6107fa6123c1565b6040516108079190613b1b565b60405180910390f35b61082a60048036038101906108259190613bf1565b612462565b005b61084660048036038101906108419190614330565b61266d565b6040516108539190613bd6565b60405180910390f35b61087660048036038101906108719190613bf1565b612701565b6040516108839190613b1b565b60405180910390f35b6108a660048036038101906108a19190614370565b61271e565b005b6108c260048036038101906108bd91906144a8565b6127bf565b6040516108cf9190613b1b565b60405180910390f35b60008073ffffffffffffffffffffffffffffffffffffffff168373ffffffffffffffffffffffffffffffffffffffff1603610948576040517f08c379a000000000000000000000000000000000000000000000000000000000815260040161093f906145d8565b60405180910390fd5b60008083815260200190815260200160002060008473ffffffffffffffffffffffffffffffffffffffff1673ffffffffffffffffffffffffffffffffffffffff16815260200190815260200160002054905092915050565b60007fd9b67a26000000000000000000000000000000000000000000000000000000007bffffffffffffffffffffffffffffffffffffffffffffffffffffffff1916827bffffffffffffffffffffffffffffffffffffffffffffffffffffffff19161480610a6b57507f0e89341c000000000000000000000000000000000000000000000000000000007bffffffffffffffffffffffffffffffffffffffffffffffffffffffff1916827bffffffffffffffffffffffffffffffffffffffffffffffffffffffff1916145b80610a7b5750610a7a82612a39565b5b9050919050565b600060086000838152602001908152602001600020549050919050565b6000600560008381526020019081526020016000206002015442610ac39190614627565b9050919050565b60006005600083815260200190815260200160002060080154600660008481526020019081526020016000205410159050919050565b606060028054610b0f9061468a565b80601f0160208091040260200160405190810160405280929190818152602001828054610b3b9061468a565b8015610b885780601f10610b5d57610100808354040283529160200191610b88565b820191906000526020600020905b815481529060010190602001808311610b6b57829003601f168201915b50505050509050919050565b600060066000838152602001908152602001600020546005600084815260200190815260200160002060010154610bcb91906146bb565b9050919050565b610bda612aa3565b73ffffffffffffffffffffffffffffffffffffffff168573ffffffffffffffffffffffffffffffffffffffff161480610c205750610c1f85610c1a612aa3565b61266d565b5b610c5f576040517f08c379a0000000000000000000000000000000000000000000000000000000008152600401610c569061476f565b60405180910390fd5b610c6c8585858585612aab565b5050505050565b6000600b600083815260200190815260200160002060009054906101000a900460ff169050919050565b6000610ca882611882565b8015610ccf5750610cb882611453565b600860008481526020019081526020016000205410155b9050919050565b6000610ce182611690565b158015610cf45750610cf282610aca565b155b9050919050565b7f000000000000000000000000000000000000000000000000000000000000000073ffffffffffffffffffffffffffffffffffffffff163373ffffffffffffffffffffffffffffffffffffffff1614610d89576040517f08c379a0000000000000000000000000000000000000000000000000000000008152600401610d80906147db565b60405180910390fd5b610d9282611690565b15610dd2576040517f08c379a0000000000000000000000000000000000000000000000000000000008152600401610dc990614847565b60405180910390fd5b610ddb82610cd6565b15610e1b576040517f08c379a0000000000000000000000000000000000000000000000000000000008152600401610e1290614847565b60405180910390fd5b610e24826114ac565b15610e64576040517f08c379a0000000000000000000000000000000000000000000000000000000008152600401610e5b906148d9565b60405180910390fd5b610e6d82610c73565b80610e7d5750610e7c82611135565b5b15610ebd576040517f08c379a0000000000000000000000000000000000000000000000000000000008152600401610eb49061496b565b60405180910390fd5b6008600083815260200190815260200160002054811115610f13576040517f08c379a0000000000000000000000000000000000000000000000000000000008152600401610f0a906149fd565b60405180910390fd5b80600860008481526020019081526020016000206000828254610f369190614627565b925050819055507f000000000000000000000000000000000000000000000000000000000000000073ffffffffffffffffffffffffffffffffffffffff1663a9059cbb33836040518363ffffffff1660e01b8152600401610f98929190614a1d565b6020604051808303816000875af1158015610fb7573d6000803e3d6000fd5b505050506040513d601f19601f82011682018060405250810190610fdb9190614a5b565b505050565b60608151835114611026576040517f08c379a000000000000000000000000000000000000000000000000000000000815260040161101d90614afa565b60405180910390fd5b6000835167ffffffffffffffff81111561104357611042613cd5565b5b6040519080825280602002602001820160405280156110715781602001602082028036833780820191505090505b50905060005b84518110156110ee576110be85828151811061109657611095614b1a565b5b60200260200101518583815181106110b1576110b0614b1a565b5b60200260200101516108d8565b8282815181106110d1576110d0614b1a565b5b602002602001018181525050806110e790614b49565b9050611077565b508091505092915050565b600060066000838152602001908152602001600020546007600084815260200190815260200160002054149050919050565b6000600454905090565b600061114082611882565b8015611166575061115082611453565b6008600084815260200190815260200160002054105b9050919050565b61117682611690565b6111b5576040517f08c379a00000000000000000000000000000000000000000000000000000000081526004016111ac90614bdd565b60405180910390fd5b806111bf836118a4565b1015611200576040517f08c379a00000000000000000000000000000000000000000000000000000000081526004016111f790614c6f565b60405180910390fd5b600060056000848152602001908152602001600020604051806101400160405290816000820180546112319061468a565b80601f016020809104026020016040519081016040528092919081815260200182805461125d9061468a565b80156112aa5780601f1061127f576101008083540402835291602001916112aa565b820191906000526020600020905b81548152906001019060200180831161128d57829003601f168201915b5050505050815260200160018201548152602001600282015481526020016003820154815260200160048201548152602001600582015481526020016006820154815260200160078201548152602001600882015481526020016009820154815250509050600081602001518361132191906146bb565b9050826006600086815260200190815260200160002060008282546113469190614c8f565b92505081905550806008600086815260200190815260200160002060008282546113709190614c8f565b9250508190555080600460008282546113899190614c8f565b925050819055506113ac303386866040518060200160405280600081525061271e565b7f000000000000000000000000000000000000000000000000000000000000000073ffffffffffffffffffffffffffffffffffffffff166323b872dd3330846040518463ffffffff1660e01b815260040161140993929190614cc3565b6020604051808303816000875af1158015611428573d6000803e3d6000fd5b505050506040513d601f19601f8201168201806040525081019061144c9190614a5b565b5050505050565b6000670de0b6b3a7640000600560008481526020019081526020016000206009015461147e84610b94565b61148891906146bb565b6114929190614d29565b61149b83610b94565b6114a59190614c8f565b9050919050565b6000600c600083815260200190815260200160002060009054906101000a900460ff169050919050565b6114df826114ac565b61151e576040517f08c379a000000000000000000000000000000000000000000000000000000000815260040161151590614da6565b60405180910390fd5b8061152933846108d8565b101561156a576040517f08c379a000000000000000000000000000000000000000000000000000000000815260040161156190614e12565b60405180910390fd5b611575338383612dcc565b806007600084815260200190815260200160002060008282546115989190614c8f565b925050819055506000600a600084815260200190815260200160002054826115c091906146bb565b90507f000000000000000000000000000000000000000000000000000000000000000073ffffffffffffffffffffffffffffffffffffffff1663a9059cbb33836040518363ffffffff1660e01b815260040161161d929190614a1d565b6020604051808303816000875af115801561163c573d6000803e3d6000fd5b505050506040513d601f19601f820116820180604052508101906116609190614a5b565b50806008600085815260200190815260200160002060008282546116849190614627565b92505081905550505050565b600060056000838152602001908152602001600020600401544211159050919050565b60006116be82610a9f565b60056000848152602001908152602001600020600501546116df9190614627565b9050919050565b6060600080600080600080600080600080600560008d8152602001908152602001600020604051806101400160405290816000820180546117269061468a565b80601f01602080910402602001604051908101604052809291908181526020018280546117529061468a565b801561179f5780601f106117745761010080835404028352916020019161179f565b820191906000526020600020905b81548152906001019060200180831161178257829003601f168201915b5050505050815260200160018201548152602001600282015481526020016003820154815260200160048201548152602001600582015481526020016006820154815260200160078201548152602001600882015481526020016009820154815250509050806000015181602001518260400151836060015184608001518560a001518660c001518760e001518861010001518961012001519a509a509a509a509a509a509a509a509a509a50509193959799509193959799565b60007f0000000000000000000000000000000000000000000000000000000000000000905090565b6000600560008381526020019081526020016000206003015442119050919050565b6000600660008381526020019081526020016000205460056000848152602001908152602001600020600701546118db9190614627565b9050919050565b6118f46118ed612aa3565b8383613012565b5050565b611901816114ac565b158015611914575061191281610c73565b155b8015611925575061192481611135565b5b611964576040517f08c379a000000000000000000000000000000000000000000000000000000000815260040161195b90614e7e565b60405180910390fd5b600061196f82611453565b905060006103e860086000858152602001908152602001600020546119949190614d29565b905060008160086000868152602001908152602001600020546119b79190614627565b90506006600085815260200190815260200160002054816119d89190614d29565b6009600086815260200190815260200160002081905550600060066000868152602001908152602001600020546009600087815260200190815260200160002054611a2391906146bb565b82611a2e9190614627565b905060008184611a3e9190614c8f565b905080600860008881526020019081526020016000206000828254611a639190614627565b925050819055506001600b600088815260200190815260200160002060006101000a81548160ff0219169083151502179055507f000000000000000000000000000000000000000000000000000000000000000073ffffffffffffffffffffffffffffffffffffffff1663a9059cbb33836040518363ffffffff1660e01b8152600401611af1929190614a1d565b6020604051808303816000875af1158015611b10573d6000803e3d6000fd5b505050506040513d601f19601f82011682018060405250810190611b349190614a5b565b50857fc4f17a65d54873d57229ea5f59c4ddec592d095bc17581372676402c8228b9cd8685604051611b67929190614e9e565b60405180910390a2505050505050565b611b8082610c73565b611bbf576040517f08c379a0000000000000000000000000000000000000000000000000000000008152600401611bb690614e7e565b60405180910390fd5b80611bca33846108d8565b1015611c0b576040517f08c379a0000000000000000000000000000000000000000000000000000000008152600401611c0290614e12565b60405180910390fd5b611c16338383612dcc565b80600760008481526020019081526020016000206000828254611c399190614c8f565b925050819055506000600960008481526020019081526020016000205482611c6191906146bb565b90507f000000000000000000000000000000000000000000000000000000000000000073ffffffffffffffffffffffffffffffffffffffff1663a9059cbb33836040518363ffffffff1660e01b8152600401611cbe929190614a1d565b6020604051808303816000875af1158015611cdd573d6000803e3d6000fd5b505050506040513d601f19601f82011682018060405250810190611d019190614a5b565b5080600860008581526020019081526020016000206000828254611d259190614627565b92505081905550505050565b600060056000838152602001908152602001600020600901549050919050565b611d5a82610cd6565b611d99576040517f08c379a0000000000000000000000000000000000000000000000000000000008152600401611d9090614f13565b60405180910390fd5b80611da433846108d8565b1015611de5576040517f08c379a0000000000000000000000000000000000000000000000000000000008152600401611ddc90614e12565b60405180910390fd5b611df0338383612dcc565b80600760008481526020019081526020016000206000828254611e139190614c8f565b925050819055506000600560008481526020019081526020016000206001015482611e3e91906146bb565b90507f000000000000000000000000000000000000000000000000000000000000000073ffffffffffffffffffffffffffffffffffffffff1663a9059cbb33836040518363ffffffff1660e01b8152600401611e9b929190614a1d565b6020604051808303816000875af1158015611eba573d6000803e3d6000fd5b505050506040513d601f19601f82011682018060405250810190611ede9190614a5b565b5080600860008581526020019081526020016000206000828254611f029190614627565b92505081905550505050565b611f1781610c73565b158015611f2a5750611f28816114ac565b155b8015611f3b5750611f3a81610c9d565b5b611f7a576040517f08c379a0000000000000000000000000000000000000000000000000000000008152600401611f7190614f7f565b60405180910390fd5b6000611f8582611453565b905060006103e882611f979190614d29565b905060008183611fa79190614627565b9050600660008581526020019081526020016000205481611fc89190614d29565b600a60008681526020019081526020016000208190555060006006600086815260200190815260200160002054600a60008781526020019081526020016000205461201391906146bb565b8261201e9190614627565b90506000818461202e9190614c8f565b9050806008600088815260200190815260200160002060008282546120539190614627565b925050819055506001600c600088815260200190815260200160002060006101000a81548160ff0219169083151502179055507f000000000000000000000000000000000000000000000000000000000000000073ffffffffffffffffffffffffffffffffffffffff1663a9059cbb33836040518363ffffffff1660e01b81526004016120e1929190614a1d565b6020604051808303816000875af1158015612100573d6000803e3d6000fd5b505050506040513d601f19601f820116820180604052508101906121249190614a5b565b50857fac2eeaf45d1b75aed6b3285cda3efb3c382cce02ba313558bbb90be57f8843e48685604051612157929190614e9e565b60405180910390a2505050505050565b60007f0000000000000000000000000000000000000000000000000000000000000000905090565b600061219a82610a9f565b60056000848152602001908152602001600020600601546121bb9190614627565b9050919050565b7f000000000000000000000000000000000000000000000000000000000000000073ffffffffffffffffffffffffffffffffffffffff163373ffffffffffffffffffffffffffffffffffffffff1614612250576040517f08c379a0000000000000000000000000000000000000000000000000000000008152600401612247906147db565b60405180910390fd5b61225982610c73565b80612269575061226882611135565b5b156122a9576040517f08c379a00000000000000000000000000000000000000000000000000000000081526004016122a090614feb565b60405180910390fd5b6122b2826114ac565b156122f2576040517f08c379a00000000000000000000000000000000000000000000000000000000081526004016122e990615057565b60405180910390fd5b806008600084815260200190815260200160002060008282546123159190614c8f565b925050819055507f000000000000000000000000000000000000000000000000000000000000000073ffffffffffffffffffffffffffffffffffffffff166323b872dd3330846040518463ffffffff1660e01b815260040161237993929190614cc3565b6020604051808303816000875af1158015612398573d6000803e3d6000fd5b505050506040513d601f19601f820116820180604052508101906123bc9190614a5b565b505050565b60007f000000000000000000000000000000000000000000000000000000000000000073ffffffffffffffffffffffffffffffffffffffff166370a08231306040518263ffffffff1660e01b815260040161241c91906142a9565b602060405180830381865afa158015612439573d6000803e3d6000fd5b505050506040513d601f19601f8201168201806040525081019061245d919061508c565b905090565b7f000000000000000000000000000000000000000000000000000000000000000073ffffffffffffffffffffffffffffffffffffffff163373ffffffffffffffffffffffffffffffffffffffff16146124f0576040517f08c379a00000000000000000000000000000000000000000000000000000000081526004016124e7906147db565b60405180910390fd5b6124f9816114ac565b801561250a5750612509816110f9565b5b612549576040517f08c379a000000000000000000000000000000000000000000000000000000000815260040161254090615105565b60405180910390fd5b600060086000838152602001908152602001600020541161259f576040517f08c379a000000000000000000000000000000000000000000000000000000000815260040161259690615171565b60405180910390fd5b600060086000838152602001908152602001600020819055507f000000000000000000000000000000000000000000000000000000000000000073ffffffffffffffffffffffffffffffffffffffff1663a9059cbb3360086000858152602001908152602001600020546040518363ffffffff1660e01b8152600401612626929190614a1d565b6020604051808303816000875af1158015612645573d6000803e3d6000fd5b505050506040513d601f19601f820116820180604052508101906126699190614a5b565b5050565b6000600160008473ffffffffffffffffffffffffffffffffffffffff1673ffffffffffffffffffffffffffffffffffffffff16815260200190815260200160002060008373ffffffffffffffffffffffffffffffffffffffff1673ffffffffffffffffffffffffffffffffffffffff16815260200190815260200160002060009054906101000a900460ff16905092915050565b600060086000838152602001908152602001600020549050919050565b612726612aa3565b73ffffffffffffffffffffffffffffffffffffffff168573ffffffffffffffffffffffffffffffffffffffff16148061276c575061276b85612766612aa3565b61266d565b5b6127ab576040517f08c379a00000000000000000000000000000000000000000000000000000000081526004016127a29061476f565b60405180910390fd5b6127b8858585858561317e565b5050505050565b60007f000000000000000000000000000000000000000000000000000000000000000073ffffffffffffffffffffffffffffffffffffffff163373ffffffffffffffffffffffffffffffffffffffff161461284f576040517f08c379a0000000000000000000000000000000000000000000000000000000008152600401612846906147db565b60405180910390fd5b838310612891576040517f08c379a000000000000000000000000000000000000000000000000000000000815260040161288890615203565b60405180910390fd5b60016003546128a09190614c8f565b90506001600360008282546128b59190614c8f565b925050819055506128d730828a60405180602001604052806000815250613419565b604051806101400160405280868152602001878152602001428152602001620151808661290491906146bb565b4261290f9190614c8f565b8152602001620151808561292391906146bb565b4261292e9190614c8f565b81526020018481526020018581526020018981526020018881526020018381525060056000838152602001908152602001600020600082015181600001908161297791906153cf565b506020820151816001015560408201518160020155606082015181600301556080820151816004015560a0820151816005015560c0820151816006015560e0820151816007015561010082015181600801556101208201518160090155905050807ff73e436c94925e1e8b2f0b16de0a2c56aea7fb27878f7815811bc05bc6c335e88988856201518089612a0b91906146bb565b42612a169190614c8f565b604051612a2694939291906154a1565b60405180910390a2979650505050505050565b60007f01ffc9a7000000000000000000000000000000000000000000000000000000007bffffffffffffffffffffffffffffffffffffffffffffffffffffffff1916827bffffffffffffffffffffffffffffffffffffffffffffffffffffffff1916149050919050565b600033905090565b8151835114612aef576040517f08c379a0000000000000000000000000000000000000000000000000000000008152600401612ae690615558565b60405180910390fd5b600073ffffffffffffffffffffffffffffffffffffffff168473ffffffffffffffffffffffffffffffffffffffff1603612b5e576040517f08c379a0000000000000000000000000000000000000000000000000000000008152600401612b55906155ea565b60405180910390fd5b6000612b68612aa3565b9050612b788187878787876135c9565b60005b8451811015612d29576000858281518110612b9957612b98614b1a565b5b602002602001015190506000858381518110612bb857612bb7614b1a565b5b60200260200101519050600080600084815260200190815260200160002060008b73ffffffffffffffffffffffffffffffffffffffff1673ffffffffffffffffffffffffffffffffffffffff16815260200190815260200160002054905081811015612c59576040517f08c379a0000000000000000000000000000000000000000000000000000000008152600401612c509061567c565b60405180910390fd5b81810360008085815260200190815260200160002060008c73ffffffffffffffffffffffffffffffffffffffff1673ffffffffffffffffffffffffffffffffffffffff168152602001908152602001600020819055508160008085815260200190815260200160002060008b73ffffffffffffffffffffffffffffffffffffffff1673ffffffffffffffffffffffffffffffffffffffff1681526020019081526020016000206000828254612d0e9190614c8f565b9250508190555050505080612d2290614b49565b9050612b7b565b508473ffffffffffffffffffffffffffffffffffffffff168673ffffffffffffffffffffffffffffffffffffffff168273ffffffffffffffffffffffffffffffffffffffff167f4a39dc06d4c0dbc64b70af90fd698a233a518aa5d07e595d983b8c0526c8f7fb8787604051612da092919061569c565b60405180910390a4612db68187878787876135d1565b612dc48187878787876135d9565b505050505050565b600073ffffffffffffffffffffffffffffffffffffffff168373ffffffffffffffffffffffffffffffffffffffff1603612e3b576040517f08c379a0000000000000000000000000000000000000000000000000000000008152600401612e3290615745565b60405180910390fd5b6000612e45612aa3565b90506000612e52846137b0565b90506000612e5f846137b0565b9050612e7f838760008585604051806020016040528060008152506135c9565b600080600087815260200190815260200160002060008873ffffffffffffffffffffffffffffffffffffffff1673ffffffffffffffffffffffffffffffffffffffff16815260200190815260200160002054905084811015612f16576040517f08c379a0000000000000000000000000000000000000000000000000000000008152600401612f0d906157d7565b60405180910390fd5b84810360008088815260200190815260200160002060008973ffffffffffffffffffffffffffffffffffffffff1673ffffffffffffffffffffffffffffffffffffffff16815260200190815260200160002081905550600073ffffffffffffffffffffffffffffffffffffffff168773ffffffffffffffffffffffffffffffffffffffff168573ffffffffffffffffffffffffffffffffffffffff167fc3d58168c5ae7397731d063d5bbf3d657854427343f4c083240f7aacaa2d0f628989604051612fe3929190614e9e565b60405180910390a4613009848860008686604051806020016040528060008152506135d1565b50505050505050565b8173ffffffffffffffffffffffffffffffffffffffff168373ffffffffffffffffffffffffffffffffffffffff1603613080576040517f08c379a000000000000000000000000000000000000000000000000000000000815260040161307790615869565b60405180910390fd5b80600160008573ffffffffffffffffffffffffffffffffffffffff1673ffffffffffffffffffffffffffffffffffffffff16815260200190815260200160002060008473ffffffffffffffffffffffffffffffffffffffff1673ffffffffffffffffffffffffffffffffffffffff16815260200190815260200160002060006101000a81548160ff0219169083151502179055508173ffffffffffffffffffffffffffffffffffffffff168373ffffffffffffffffffffffffffffffffffffffff167f17307eab39ab6107e8899845ad3d59bd9653f200f220920489ca2b5937696c31836040516131719190613bd6565b60405180910390a3505050565b600073ffffffffffffffffffffffffffffffffffffffff168473ffffffffffffffffffffffffffffffffffffffff16036131ed576040517f08c379a00000000000000000000000000000000000000000000000000000000081526004016131e4906155ea565b60405180910390fd5b60006131f7612aa3565b90506000613204856137b0565b90506000613211856137b0565b90506132218389898585896135c9565b600080600088815260200190815260200160002060008a73ffffffffffffffffffffffffffffffffffffffff1673ffffffffffffffffffffffffffffffffffffffff168152602001908152602001600020549050858110156132b8576040517f08c379a00000000000000000000000000000000000000000000000000000000081526004016132af9061567c565b60405180910390fd5b85810360008089815260200190815260200160002060008b73ffffffffffffffffffffffffffffffffffffffff1673ffffffffffffffffffffffffffffffffffffffff168152602001908152602001600020819055508560008089815260200190815260200160002060008a73ffffffffffffffffffffffffffffffffffffffff1673ffffffffffffffffffffffffffffffffffffffff168152602001908152602001600020600082825461336d9190614c8f565b925050819055508773ffffffffffffffffffffffffffffffffffffffff168973ffffffffffffffffffffffffffffffffffffffff168573ffffffffffffffffffffffffffffffffffffffff167fc3d58168c5ae7397731d063d5bbf3d657854427343f4c083240f7aacaa2d0f628a8a6040516133ea929190614e9e565b60405180910390a4613400848a8a86868a6135d1565b61340e848a8a8a8a8a61382a565b505050505050505050565b600073ffffffffffffffffffffffffffffffffffffffff168473ffffffffffffffffffffffffffffffffffffffff1603613488576040517f08c379a000000000000000000000000000000000000000000000000000000000815260040161347f906158fb565b60405180910390fd5b6000613492612aa3565b9050600061349f856137b0565b905060006134ac856137b0565b90506134bd836000898585896135c9565b8460008088815260200190815260200160002060008973ffffffffffffffffffffffffffffffffffffffff1673ffffffffffffffffffffffffffffffffffffffff168152602001908152602001600020600082825461351c9190614c8f565b925050819055508673ffffffffffffffffffffffffffffffffffffffff16600073ffffffffffffffffffffffffffffffffffffffff168473ffffffffffffffffffffffffffffffffffffffff167fc3d58168c5ae7397731d063d5bbf3d657854427343f4c083240f7aacaa2d0f62898960405161359a929190614e9e565b60405180910390a46135b1836000898585896135d1565b6135c08360008989898961382a565b50505050505050565b505050505050565b505050505050565b6135f88473ffffffffffffffffffffffffffffffffffffffff16613a01565b156137a8578373ffffffffffffffffffffffffffffffffffffffff1663bc197c8187878686866040518663ffffffff1660e01b815260040161363e959493929190615970565b6020604051808303816000875af192505050801561367a57506040513d601f19601f8201168201806040525081019061367791906159ed565b60015b61371f57613686615a27565b806308c379a0036136e2575061369a615a49565b806136a557506136e4565b806040517f08c379a00000000000000000000000000000000000000000000000000000000081526004016136d99190613cae565b60405180910390fd5b505b6040517f08c379a000000000000000000000000000000000000000000000000000000000815260040161371690615b4b565b60405180910390fd5b63bc197c8160e01b7bffffffffffffffffffffffffffffffffffffffffffffffffffffffff1916817bffffffffffffffffffffffffffffffffffffffffffffffffffffffff1916146137a6576040517f08c379a000000000000000000000000000000000000000000000000000000000815260040161379d90615bdd565b60405180910390fd5b505b505050505050565b60606000600167ffffffffffffffff8111156137cf576137ce613cd5565b5b6040519080825280602002602001820160405280156137fd5781602001602082028036833780820191505090505b509050828160008151811061381557613814614b1a565b5b60200260200101818152505080915050919050565b6138498473ffffffffffffffffffffffffffffffffffffffff16613a01565b156139f9578373ffffffffffffffffffffffffffffffffffffffff1663f23a6e6187878686866040518663ffffffff1660e01b815260040161388f959493929190615bfd565b6020604051808303816000875af19250505080156138cb57506040513d601f19601f820116820180604052508101906138c891906159ed565b60015b613970576138d7615a27565b806308c379a00361393357506138eb615a49565b806138f65750613935565b806040517f08c379a000000000000000000000000000000000000000000000000000000000815260040161392a9190613cae565b60405180910390fd5b505b6040517f08c379a000000000000000000000000000000000000000000000000000000000815260040161396790615b4b565b60405180910390fd5b63f23a6e6160e01b7bffffffffffffffffffffffffffffffffffffffffffffffffffffffff1916817bffffffffffffffffffffffffffffffffffffffffffffffffffffffff1916146139f7576040517f08c379a00000000000000000000000000000000000000000000000000000000081526004016139ee90615bdd565b60405180910390fd5b505b505050505050565b6000808273ffffffffffffffffffffffffffffffffffffffff163b119050919050565b6000604051905090565b600080fd5b600080fd5b600073ffffffffffffffffffffffffffffffffffffffff82169050919050565b6000613a6382613a38565b9050919050565b613a7381613a58565b8114613a7e57600080fd5b50565b600081359050613a9081613a6a565b92915050565b6000819050919050565b613aa981613a96565b8114613ab457600080fd5b50565b600081359050613ac681613aa0565b92915050565b60008060408385031215613ae357613ae2613a2e565b5b6000613af185828601613a81565b9250506020613b0285828601613ab7565b9150509250929050565b613b1581613a96565b82525050565b6000602082019050613b306000830184613b0c565b92915050565b60007fffffffff0000000000000000000000000000000000000000000000000000000082169050919050565b613b6b81613b36565b8114613b7657600080fd5b50565b600081359050613b8881613b62565b92915050565b600060208284031215613ba457613ba3613a2e565b5b6000613bb284828501613b79565b91505092915050565b60008115159050919050565b613bd081613bbb565b82525050565b6000602082019050613beb6000830184613bc7565b92915050565b600060208284031215613c0757613c06613a2e565b5b6000613c1584828501613ab7565b91505092915050565b600081519050919050565b600082825260208201905092915050565b60005b83811015613c58578082015181840152602081019050613c3d565b60008484015250505050565b6000601f19601f8301169050919050565b6000613c8082613c1e565b613c8a8185613c29565b9350613c9a818560208601613c3a565b613ca381613c64565b840191505092915050565b60006020820190508181036000830152613cc88184613c75565b905092915050565b600080fd5b7f4e487b7100000000000000000000000000000000000000000000000000000000600052604160045260246000fd5b613d0d82613c64565b810181811067ffffffffffffffff82111715613d2c57613d2b613cd5565b5b80604052505050565b6000613d3f613a24565b9050613d4b8282613d04565b919050565b600067ffffffffffffffff821115613d6b57613d6a613cd5565b5b602082029050602081019050919050565b600080fd5b6000613d94613d8f84613d50565b613d35565b90508083825260208201905060208402830185811115613db757613db6613d7c565b5b835b81811015613de05780613dcc8882613ab7565b845260208401935050602081019050613db9565b5050509392505050565b600082601f830112613dff57613dfe613cd0565b5b8135613e0f848260208601613d81565b91505092915050565b600080fd5b600067ffffffffffffffff821115613e3857613e37613cd5565b5b613e4182613c64565b9050602081019050919050565b82818337600083830152505050565b6000613e70613e6b84613e1d565b613d35565b905082815260208101848484011115613e8c57613e8b613e18565b5b613e97848285613e4e565b509392505050565b600082601f830112613eb457613eb3613cd0565b5b8135613ec4848260208601613e5d565b91505092915050565b600080600080600060a08688031215613ee957613ee8613a2e565b5b6000613ef788828901613a81565b9550506020613f0888828901613a81565b945050604086013567ffffffffffffffff811115613f2957613f28613a33565b5b613f3588828901613dea565b935050606086013567ffffffffffffffff811115613f5657613f55613a33565b5b613f6288828901613dea565b925050608086013567ffffffffffffffff811115613f8357613f82613a33565b5b613f8f88828901613e9f565b9150509295509295909350565b60008060408385031215613fb357613fb2613a2e565b5b6000613fc185828601613ab7565b9250506020613fd285828601613ab7565b9150509250929050565b600067ffffffffffffffff821115613ff757613ff6613cd5565b5b602082029050602081019050919050565b600061401b61401684613fdc565b613d35565b9050808382526020820190506020840283018581111561403e5761403d613d7c565b5b835b8181101561406757806140538882613a81565b845260208401935050602081019050614040565b5050509392505050565b600082601f83011261408657614085613cd0565b5b8135614096848260208601614008565b91505092915050565b600080604083850312156140b6576140b5613a2e565b5b600083013567ffffffffffffffff8111156140d4576140d3613a33565b5b6140e085828601614071565b925050602083013567ffffffffffffffff81111561410157614100613a33565b5b61410d85828601613dea565b9150509250929050565b600081519050919050565b600082825260208201905092915050565b6000819050602082019050919050565b61414c81613a96565b82525050565b600061415e8383614143565b60208301905092915050565b6000602082019050919050565b600061418282614117565b61418c8185614122565b935061419783614133565b8060005b838110156141c85781516141af8882614152565b97506141ba8361416a565b92505060018101905061419b565b5085935050505092915050565b600060208201905081810360008301526141ef8184614177565b905092915050565b6000610140820190508181036000830152614212818d613c75565b9050614221602083018c613b0c565b61422e604083018b613b0c565b61423b606083018a613b0c565b6142486080830189613b0c565b61425560a0830188613b0c565b61426260c0830187613b0c565b61426f60e0830186613b0c565b61427d610100830185613b0c565b61428b610120830184613b0c565b9b9a5050505050505050505050565b6142a381613a58565b82525050565b60006020820190506142be600083018461429a565b92915050565b6142cd81613bbb565b81146142d857600080fd5b50565b6000813590506142ea816142c4565b92915050565b6000806040838503121561430757614306613a2e565b5b600061431585828601613a81565b9250506020614326858286016142db565b9150509250929050565b6000806040838503121561434757614346613a2e565b5b600061435585828601613a81565b925050602061436685828601613a81565b9150509250929050565b600080600080600060a0868803121561438c5761438b613a2e565b5b600061439a88828901613a81565b95505060206143ab88828901613a81565b94505060406143bc88828901613ab7565b93505060606143cd88828901613ab7565b925050608086013567ffffffffffffffff8111156143ee576143ed613a33565b5b6143fa88828901613e9f565b9150509295509295909350565b600067ffffffffffffffff82111561442257614421613cd5565b5b61442b82613c64565b9050602081019050919050565b600061444b61444684614407565b613d35565b90508281526020810184848401111561446757614466613e18565b5b614472848285613e4e565b509392505050565b600082601f83011261448f5761448e613cd0565b5b813561449f848260208601614438565b91505092915050565b600080600080600080600060e0888a0312156144c7576144c6613a2e565b5b60006144d58a828b01613ab7565b97505060206144e68a828b01613ab7565b96505060406144f78a828b01613ab7565b955050606088013567ffffffffffffffff81111561451857614517613a33565b5b6145248a828b0161447a565b94505060806145358a828b01613ab7565b93505060a06145468a828b01613ab7565b92505060c06145578a828b01613ab7565b91505092959891949750929550565b7f455243313135353a2061646472657373207a65726f206973206e6f742061207660008201527f616c6964206f776e657200000000000000000000000000000000000000000000602082015250565b60006145c2602a83613c29565b91506145cd82614566565b604082019050919050565b600060208201905081810360008301526145f1816145b5565b9050919050565b7f4e487b7100000000000000000000000000000000000000000000000000000000600052601160045260246000fd5b600061463282613a96565b915061463d83613a96565b9250828203905081811115614655576146546145f8565b5b92915050565b7f4e487b7100000000000000000000000000000000000000000000000000000000600052602260045260246000fd5b600060028204905060018216806146a257607f821691505b6020821081036146b5576146b461465b565b5b50919050565b60006146c682613a96565b91506146d183613a96565b92508282026146df81613a96565b915082820484148315176146f6576146f56145f8565b5b5092915050565b7f455243313135353a2063616c6c6572206973206e6f7420746f6b656e206f776e60008201527f6572206f7220617070726f766564000000000000000000000000000000000000602082015250565b6000614759602e83613c29565b9150614764826146fd565b604082019050919050565b600060208201905081810360008301526147888161474c565b9050919050565b7f43616c6c6572206973206e6f7420746865206f776e6572000000000000000000600082015250565b60006147c5601783613c29565b91506147d08261478f565b602082019050919050565b600060208201905081810360008301526147f4816147b8565b9050919050565b7f5769746864726177206e6f7420616c6c6f776564207768656e20616374697665600082015250565b6000614831602083613c29565b915061483c826147fb565b602082019050919050565b6000602082019050818103600083015261486081614824565b9050919050565b7f5769746864726177206e6f7420616c6c6f77656420616674657220636f6d706c60008201527f6574696f6e000000000000000000000000000000000000000000000000000000602082015250565b60006148c3602583613c29565b91506148ce82614867565b604082019050919050565b600060208201905081810360008301526148f2816148b6565b9050919050565b7f5769746864726177206e6f7420616c6c6f776564207768656e2064656661756c60008201527f7465640000000000000000000000000000000000000000000000000000000000602082015250565b6000614955602383613c29565b9150614960826148f9565b604082019050919050565b6000602082019050818103600083015261498481614948565b9050919050565b7f5769746864726177616c20746f6b656e20616d6f756e7420657863656564732060008201527f746f6b656e20616d6f756e7420696e20636f6e74726163740000000000000000602082015250565b60006149e7603883613c29565b91506149f28261498b565b604082019050919050565b60006020820190508181036000830152614a16816149da565b9050919050565b6000604082019050614a32600083018561429a565b614a3f6020830184613b0c565b9392505050565b600081519050614a55816142c4565b92915050565b600060208284031215614a7157614a70613a2e565b5b6000614a7f84828501614a46565b91505092915050565b7f455243313135353a206163636f756e747320616e6420696473206c656e67746860008201527f206d69736d617463680000000000000000000000000000000000000000000000602082015250565b6000614ae4602983613c29565b9150614aef82614a88565b604082019050919050565b60006020820190508181036000830152614b1381614ad7565b9050919050565b7f4e487b7100000000000000000000000000000000000000000000000000000000600052603260045260246000fd5b6000614b5482613a96565b91507fffffffffffffffffffffffffffffffffffffffffffffffffffffffffffffffff8203614b8657614b856145f8565b5b600182019050919050565b7f426f6e6420697320696e61637469766500000000000000000000000000000000600082015250565b6000614bc7601083613c29565b9150614bd282614b91565b602082019050919050565b60006020820190508181036000830152614bf681614bba565b9050919050565b7f496e73756666696369656e7420626f6e64207175616e746974792072656d616960008201527f6e696e6700000000000000000000000000000000000000000000000000000000602082015250565b6000614c59602483613c29565b9150614c6482614bfd565b604082019050919050565b60006020820190508181036000830152614c8881614c4c565b9050919050565b6000614c9a82613a96565b9150614ca583613a96565b9250828201905080821115614cbd57614cbc6145f8565b5b92915050565b6000606082019050614cd8600083018661429a565b614ce5602083018561429a565b614cf26040830184613b0c565b949350505050565b7f4e487b7100000000000000000000000000000000000000000000000000000000600052601260045260246000fd5b6000614d3482613a96565b9150614d3f83613a96565b925082614d4f57614d4e614cfa565b5b828204905092915050565b7f426f6e64206973206e6f7420636f6d706c657465640000000000000000000000600082015250565b6000614d90601583613c29565b9150614d9b82614d5a565b602082019050919050565b60006020820190508181036000830152614dbf81614d83565b9050919050565b7f496e73756666696369656e7420626f6e64207175616e74697479000000000000600082015250565b6000614dfc601a83613c29565b9150614e0782614dc6565b602082019050919050565b60006020820190508181036000830152614e2b81614def565b9050919050565b7f426f6e64206973206e6f742064656661756c7465640000000000000000000000600082015250565b6000614e68601583613c29565b9150614e7382614e32565b602082019050919050565b60006020820190508181036000830152614e9781614e5b565b9050919050565b6000604082019050614eb36000830185613b0c565b614ec06020830184613b0c565b9392505050565b7f426f6e64206973206e6f742063616e63656c6564000000000000000000000000600082015250565b6000614efd601483613c29565b9150614f0882614ec7565b602082019050919050565b60006020820190508181036000830152614f2c81614ef0565b9050919050565b7f426f6e6420697320616c726561647920636f6d706c6574656400000000000000600082015250565b6000614f69601983613c29565b9150614f7482614f33565b602082019050919050565b60006020820190508181036000830152614f9881614f5c565b9050919050565b7f626f6e642069732064656661756c746564000000000000000000000000000000600082015250565b6000614fd5601183613c29565b9150614fe082614f9f565b602082019050919050565b6000602082019050818103600083015261500481614fc8565b9050919050565b7f626f6e6420697320636f6d706c65746564000000000000000000000000000000600082015250565b6000615041601183613c29565b915061504c8261500b565b602082019050919050565b6000602082019050818103600083015261507081615034565b9050919050565b60008151905061508681613aa0565b92915050565b6000602082840312156150a2576150a1613a2e565b5b60006150b084828501615077565b91505092915050565b7f43616e6e6f742077697468647261772065786365737300000000000000000000600082015250565b60006150ef601683613c29565b91506150fa826150b9565b602082019050919050565b6000602082019050818103600083015261511e816150e2565b9050919050565b7f43616e6e6f742077697468647261772066726f6d20656d70747920706f6f6c00600082015250565b600061515b601f83613c29565b915061516682615125565b602082019050919050565b6000602082019050818103600083015261518a8161514e565b9050919050565b7f416374697665206475726174696f6e2073686f756c642062652073686f72746560008201527f72207468616e206475726174696f6e0000000000000000000000000000000000602082015250565b60006151ed602f83613c29565b91506151f882615191565b604082019050919050565b6000602082019050818103600083015261521c816151e0565b9050919050565b60008190508160005260206000209050919050565b60006020601f8301049050919050565b600082821b905092915050565b6000600883026152857fffffffffffffffffffffffffffffffffffffffffffffffffffffffffffffffff82615248565b61528f8683615248565b95508019841693508086168417925050509392505050565b6000819050919050565b60006152cc6152c76152c284613a96565b6152a7565b613a96565b9050919050565b6000819050919050565b6152e6836152b1565b6152fa6152f2826152d3565b848454615255565b825550505050565b600090565b61530f615302565b61531a8184846152dd565b505050565b5b8181101561533e57615333600082615307565b600181019050615320565b5050565b601f8211156153835761535481615223565b61535d84615238565b8101602085101561536c578190505b61538061537885615238565b83018261531f565b50505b505050565b600082821c905092915050565b60006153a660001984600802615388565b1980831691505092915050565b60006153bf8383615395565b9150826002028217905092915050565b6153d882613c1e565b67ffffffffffffffff8111156153f1576153f0613cd5565b5b6153fb825461468a565b615406828285615342565b600060209050601f8311600181146154395760008415615427578287015190505b61543185826153b3565b865550615499565b601f19841661544786615223565b60005b8281101561546f5784890151825560018201915060208501945060208101905061544a565b8683101561548c5784890151615488601f891682615395565b8355505b6001600288020188555050505b505050505050565b60006080820190506154b66000830187613b0c565b6154c36020830186613b0c565b6154d06040830185613b0c565b6154dd6060830184613b0c565b95945050505050565b7f455243313135353a2069647320616e6420616d6f756e7473206c656e6774682060008201527f6d69736d61746368000000000000000000000000000000000000000000000000602082015250565b6000615542602883613c29565b915061554d826154e6565b604082019050919050565b6000602082019050818103600083015261557181615535565b9050919050565b7f455243313135353a207472616e7366657220746f20746865207a65726f20616460008201527f6472657373000000000000000000000000000000000000000000000000000000602082015250565b60006155d4602583613c29565b91506155df82615578565b604082019050919050565b60006020820190508181036000830152615603816155c7565b9050919050565b7f455243313135353a20696e73756666696369656e742062616c616e636520666f60008201527f72207472616e7366657200000000000000000000000000000000000000000000602082015250565b6000615666602a83613c29565b91506156718261560a565b604082019050919050565b6000602082019050818103600083015261569581615659565b9050919050565b600060408201905081810360008301526156b68185614177565b905081810360208301526156ca8184614177565b90509392505050565b7f455243313135353a206275726e2066726f6d20746865207a65726f206164647260008201527f6573730000000000000000000000000000000000000000000000000000000000602082015250565b600061572f602383613c29565b915061573a826156d3565b604082019050919050565b6000602082019050818103600083015261575e81615722565b9050919050565b7f455243313135353a206275726e20616d6f756e7420657863656564732062616c60008201527f616e636500000000000000000000000000000000000000000000000000000000602082015250565b60006157c1602483613c29565b91506157cc82615765565b604082019050919050565b600060208201905081810360008301526157f0816157b4565b9050919050565b7f455243313135353a2073657474696e6720617070726f76616c2073746174757360008201527f20666f722073656c660000000000000000000000000000000000000000000000602082015250565b6000615853602983613c29565b915061585e826157f7565b604082019050919050565b6000602082019050818103600083015261588281615846565b9050919050565b7f455243313135353a206d696e7420746f20746865207a65726f2061646472657360008201527f7300000000000000000000000000000000000000000000000000000000000000602082015250565b60006158e5602183613c29565b91506158f082615889565b604082019050919050565b60006020820190508181036000830152615914816158d8565b9050919050565b600081519050919050565b600082825260208201905092915050565b60006159428261591b565b61594c8185615926565b935061595c818560208601613c3a565b61596581613c64565b840191505092915050565b600060a082019050615985600083018861429a565b615992602083018761429a565b81810360408301526159a48186614177565b905081810360608301526159b88185614177565b905081810360808301526159cc8184615937565b90509695505050505050565b6000815190506159e781613b62565b92915050565b600060208284031215615a0357615a02613a2e565b5b6000615a11848285016159d8565b91505092915050565b60008160e01c9050919050565b600060033d1115615a465760046000803e615a43600051615a1a565b90505b90565b600060443d10615ad657615a5b613a24565b60043d036004823e80513d602482011167ffffffffffffffff82111715615a83575050615ad6565b808201805167ffffffffffffffff811115615aa15750505050615ad6565b80602083010160043d038501811115615abe575050505050615ad6565b615acd82602001850186613d04565b82955050505050505b90565b7f455243313135353a207472616e7366657220746f206e6f6e2d4552433131353560008201527f526563656976657220696d706c656d656e746572000000000000000000000000602082015250565b6000615b35603483613c29565b9150615b4082615ad9565b604082019050919050565b60006020820190508181036000830152615b6481615b28565b9050919050565b7f455243313135353a204552433131353552656365697665722072656a6563746560008201527f6420746f6b656e73000000000000000000000000000000000000000000000000602082015250565b6000615bc7602883613c29565b9150615bd282615b6b565b604082019050919050565b60006020820190508181036000830152615bf681615bba565b9050919050565b600060a082019050615c12600083018861429a565b615c1f602083018761429a565b615c2c6040830186613b0c565b615c396060830185613b0c565b8181036080830152615c4b8184615937565b9050969550505050505056fea2646970667358221220cb139b41f9c0e2b665db85f5e1eb4822924956cc7672540db0710e5b09fd196c64736f6c63430008110033",
  "linkReferences": {},
  "deployedLinkReferences": {}
}