{
  "_format": "hh-sol-artifact-1",
  "contractName": "BondFactory",
  "sourceName": "contracts/BondFactory.sol",
  "abi": [
    {
      "inputs": [
        {
          "internalType": "string",
          "name": "uri",
          "type": "string"
        },
        {
          "internalType": "address",
          "name": "token",
          "type": "address"
        },
        {
          "internalType": "address",
          "name": "deployer",
          "type": "address"
        }
      ],
      "stateMutability": "nonpayable",
      "type": "constructor"
    },
    {
      "anonymous": false,
      "inputs": [
        {
          "indexed": true,
          "internalType": "address",
          "name": "account",
          "type": "address"
        },
        {
          "indexed": true,
          "internalType": "address",
          "name": "operator",
          "type": "address"
        },
        {
          "indexed": false,
          "internalType": "bool",
          "name": "approved",
          "type": "bool"
        }
      ],
      "name": "ApprovalForAll",
      "type": "event"
    },
    {
      "anonymous": false,
      "inputs": [
        {
          "indexed": true,
          "internalType": "uint256",
          "name": "id",
          "type": "uint256"
        },
        {
          "indexed": false,
          "internalType": "uint256",
          "name": "totalDebt",
          "type": "uint256"
        },
        {
          "indexed": false,
          "internalType": "uint256",
          "name": "paidDebt",
          "type": "uint256"
        }
      ],
      "name": "Completed",
      "type": "event"
    },
    {
      "anonymous": false,
      "inputs": [
        {
          "indexed": true,
          "internalType": "uint256",
          "name": "id",
          "type": "uint256"
        },
        {
          "indexed": false,
          "internalType": "uint256",
          "name": "totalDebt",
          "type": "uint256"
        },
        {
          "indexed": false,
          "internalType": "uint256",
          "name": "paidDebt",
          "type": "uint256"
        }
      ],
      "name": "Defaulted",
      "type": "event"
    },
    {
      "anonymous": false,
      "inputs": [
        {
          "indexed": true,
          "internalType": "uint256",
          "name": "id",
          "type": "uint256"
        },
        {
          "indexed": false,
          "internalType": "uint256",
          "name": "bondQuantity",
          "type": "uint256"
        },
        {
          "indexed": false,
          "internalType": "uint256",
          "name": "tokenAmountPerBond",
          "type": "uint256"
        },
        {
          "indexed": false,
          "internalType": "uint256",
          "name": "couponRate",
          "type": "uint256"
        }
      ],
      "name": "Issued",
      "type": "event"
    },
    {
      "anonymous": false,
      "inputs": [
        {
          "indexed": true,
          "internalType": "address",
          "name": "operator",
          "type": "address"
        },
        {
          "indexed": true,
          "internalType": "address",
          "name": "from",
          "type": "address"
        },
        {
          "indexed": true,
          "internalType": "address",
          "name": "to",
          "type": "address"
        },
        {
          "indexed": false,
          "internalType": "uint256[]",
          "name": "ids",
          "type": "uint256[]"
        },
        {
          "indexed": false,
          "internalType": "uint256[]",
          "name": "values",
          "type": "uint256[]"
        }
      ],
      "name": "TransferBatch",
      "type": "event"
    },
    {
      "anonymous": false,
      "inputs": [
        {
          "indexed": true,
          "internalType": "address",
          "name": "operator",
          "type": "address"
        },
        {
          "indexed": true,
          "internalType": "address",
          "name": "from",
          "type": "address"
        },
        {
          "indexed": true,
          "internalType": "address",
          "name": "to",
          "type": "address"
        },
        {
          "indexed": false,
          "internalType": "uint256",
          "name": "id",
          "type": "uint256"
        },
        {
          "indexed": false,
          "internalType": "uint256",
          "name": "value",
          "type": "uint256"
        }
      ],
      "name": "TransferSingle",
      "type": "event"
    },
    {
      "anonymous": false,
      "inputs": [
        {
          "indexed": false,
          "internalType": "string",
          "name": "value",
          "type": "string"
        },
        {
          "indexed": true,
          "internalType": "uint256",
          "name": "id",
          "type": "uint256"
        }
      ],
      "name": "URI",
      "type": "event"
    },
    {
      "inputs": [
        {
          "internalType": "address",
          "name": "account",
          "type": "address"
        },
        {
          "internalType": "uint256",
          "name": "id",
          "type": "uint256"
        }
      ],
      "name": "balanceOf",
      "outputs": [
        {
          "internalType": "uint256",
          "name": "",
          "type": "uint256"
        }
      ],
      "stateMutability": "view",
      "type": "function"
    },
    {
      "inputs": [
        {
          "internalType": "address[]",
          "name": "accounts",
          "type": "address[]"
        },
        {
          "internalType": "uint256[]",
          "name": "ids",
          "type": "uint256[]"
        }
      ],
      "name": "balanceOfBatch",
      "outputs": [
        {
          "internalType": "uint256[]",
          "name": "",
          "type": "uint256[]"
        }
      ],
      "stateMutability": "view",
      "type": "function"
    },
    {
      "inputs": [],
      "name": "baseToken",
      "outputs": [
        {
          "internalType": "address",
          "name": "",
          "type": "address"
        }
      ],
      "stateMutability": "view",
      "type": "function"
    },
    {
      "inputs": [
        {
          "internalType": "uint256",
          "name": "id",
          "type": "uint256"
        }
      ],
      "name": "bondMetadata",
      "outputs": [
        {
          "internalType": "string",
          "name": "",
          "type": "string"
        },
        {
          "internalType": "uint256",
          "name": "",
          "type": "uint256"
        },
        {
          "internalType": "uint256",
          "name": "",
          "type": "uint256"
        },
        {
          "internalType": "uint256",
          "name": "",
          "type": "uint256"
        },
        {
          "internalType": "uint256",
          "name": "",
          "type": "uint256"
        },
        {
          "internalType": "uint256",
          "name": "",
          "type": "uint256"
        },
        {
          "internalType": "uint256",
          "name": "",
          "type": "uint256"
        },
        {
          "internalType": "uint256",
          "name": "",
          "type": "uint256"
        },
        {
          "internalType": "uint256",
          "name": "",
          "type": "uint256"
        },
        {
          "internalType": "uint256",
          "name": "",
          "type": "uint256"
        }
      ],
      "stateMutability": "view",
      "type": "function"
    },
    {
      "inputs": [
        {
          "internalType": "uint256",
          "name": "id",
          "type": "uint256"
        }
      ],
      "name": "couponRate",
      "outputs": [
        {
          "internalType": "uint256",
          "name": "",
          "type": "uint256"
        }
      ],
      "stateMutability": "view",
      "type": "function"
    },
    {
      "inputs": [
        {
          "internalType": "uint256",
          "name": "id",
          "type": "uint256"
        },
        {
          "internalType": "uint256",
          "name": "tokenAmount",
          "type": "uint256"
        }
      ],
      "name": "deposit",
      "outputs": [],
      "stateMutability": "nonpayable",
      "type": "function"
    },
    {
      "inputs": [
        {
          "internalType": "uint256",
          "name": "id",
          "type": "uint256"
        }
      ],
      "name": "designatedTokenPool",
      "outputs": [
        {
          "internalType": "uint256",
          "name": "",
          "type": "uint256"
        }
      ],
      "stateMutability": "view",
      "type": "function"
    },
    {
      "inputs": [],
      "name": "fundsRaised",
      "outputs": [
        {
          "internalType": "uint256",
          "name": "",
          "type": "uint256"
        }
      ],
      "stateMutability": "view",
      "type": "function"
    },
    {
      "inputs": [
        {
          "internalType": "uint256",
          "name": "id",
          "type": "uint256"
        }
      ],
      "name": "hasReachedMaturity",
      "outputs": [
        {
          "internalType": "bool",
          "name": "",
          "type": "bool"
        }
      ],
      "stateMutability": "view",
      "type": "function"
    },
    {
      "inputs": [
        {
          "internalType": "uint256",
          "name": "id",
          "type": "uint256"
        }
      ],
      "name": "isActive",
      "outputs": [
        {
          "internalType": "bool",
          "name": "",
          "type": "bool"
        }
      ],
      "stateMutability": "view",
      "type": "function"
    },
    {
      "inputs": [
        {
          "internalType": "address",
          "name": "account",
          "type": "address"
        },
        {
          "internalType": "address",
          "name": "operator",
          "type": "address"
        }
      ],
      "name": "isApprovedForAll",
      "outputs": [
        {
          "internalType": "bool",
          "name": "",
          "type": "bool"
        }
      ],
      "stateMutability": "view",
      "type": "function"
    },
    {
      "inputs": [
        {
          "internalType": "uint256",
          "name": "id",
          "type": "uint256"
        }
      ],
      "name": "isCanceled",
      "outputs": [
        {
          "internalType": "bool",
          "name": "",
          "type": "bool"
        }
      ],
      "stateMutability": "view",
      "type": "function"
    },
    {
      "inputs": [
        {
          "internalType": "uint256",
          "name": "id",
          "type": "uint256"
        }
      ],
      "name": "isCompleted",
      "outputs": [
        {
          "internalType": "bool",
          "name": "",
          "type": "bool"
        }
      ],
      "stateMutability": "view",
      "type": "function"
    },
    {
      "inputs": [
        {
          "internalType": "uint256",
          "name": "id",
          "type": "uint256"
        }
      ],
      "name": "isCompletedInTheory",
      "outputs": [
        {
          "internalType": "bool",
          "name": "",
          "type": "bool"
        }
      ],
      "stateMutability": "view",
      "type": "function"
    },
    {
      "inputs": [
        {
          "internalType": "uint256",
          "name": "id",
          "type": "uint256"
        }
      ],
      "name": "isDefaulted",
      "outputs": [
        {
          "internalType": "bool",
          "name": "",
          "type": "bool"
        }
      ],
      "stateMutability": "view",
      "type": "function"
    },
    {
      "inputs": [
        {
          "internalType": "uint256",
          "name": "id",
          "type": "uint256"
        }
      ],
      "name": "isDefaultedInTheory",
      "outputs": [
        {
          "internalType": "bool",
          "name": "",
          "type": "bool"
        }
      ],
      "stateMutability": "view",
      "type": "function"
    },
    {
      "inputs": [
        {
          "internalType": "uint256",
          "name": "id",
          "type": "uint256"
        }
      ],
      "name": "isFulfilled",
      "outputs": [
        {
          "internalType": "bool",
          "name": "",
          "type": "bool"
        }
      ],
      "stateMutability": "view",
      "type": "function"
    },
    {
      "inputs": [
        {
          "internalType": "uint256",
          "name": "id",
          "type": "uint256"
        }
      ],
      "name": "isFullyRedeemed",
      "outputs": [
        {
          "internalType": "bool",
          "name": "",
          "type": "bool"
        }
      ],
      "stateMutability": "view",
      "type": "function"
    },
    {
      "inputs": [
        {
          "internalType": "uint256",
          "name": "bondQuantity",
          "type": "uint256"
        },
        {
          "internalType": "uint256",
          "name": "minPurchasedQuantity",
          "type": "uint256"
        },
        {
          "internalType": "uint256",
          "name": "tokenAmountPerBond",
          "type": "uint256"
        },
        {
          "internalType": "string",
          "name": "ticker",
          "type": "string"
        },
        {
          "internalType": "uint256",
          "name": "durationDays",
          "type": "uint256"
        },
        {
          "internalType": "uint256",
          "name": "activeDurationInDays",
          "type": "uint256"
        },
        {
          "internalType": "uint256",
          "name": "rate",
          "type": "uint256"
        },
        {
          "internalType": "bytes",
          "name": "data",
          "type": "bytes"
        }
      ],
      "name": "issue",
      "outputs": [
        {
          "internalType": "uint256",
          "name": "id",
          "type": "uint256"
        }
      ],
      "stateMutability": "nonpayable",
      "type": "function"
    },
    {
      "inputs": [
        {
          "internalType": "uint256",
          "name": "id",
          "type": "uint256"
        }
      ],
      "name": "markAsCompleted",
      "outputs": [],
      "stateMutability": "nonpayable",
      "type": "function"
    },
    {
      "inputs": [
        {
          "internalType": "uint256",
          "name": "id",
          "type": "uint256"
        }
      ],
      "name": "markAsDefaulted",
      "outputs": [],
      "stateMutability": "nonpayable",
      "type": "function"
    },
    {
      "inputs": [],
      "name": "owner",
      "outputs": [
        {
          "internalType": "address",
          "name": "",
          "type": "address"
        }
      ],
      "stateMutability": "view",
      "type": "function"
    },
    {
      "inputs": [
        {
          "internalType": "uint256",
          "name": "id",
          "type": "uint256"
        }
      ],
      "name": "poolAmount",
      "outputs": [
        {
          "internalType": "uint256",
          "name": "",
          "type": "uint256"
        }
      ],
      "stateMutability": "view",
      "type": "function"
    },
    {
      "inputs": [
        {
          "internalType": "uint256",
          "name": "id",
          "type": "uint256"
        }
      ],
      "name": "principal",
      "outputs": [
        {
          "internalType": "uint256",
          "name": "",
          "type": "uint256"
        }
      ],
      "stateMutability": "view",
      "type": "function"
    },
    {
      "inputs": [
        {
          "internalType": "uint256",
          "name": "id",
          "type": "uint256"
        }
      ],
      "name": "principalWithInterest",
      "outputs": [
        {
          "internalType": "uint256",
          "name": "",
          "type": "uint256"
        }
      ],
      "stateMutability": "view",
      "type": "function"
    },
    {
      "inputs": [
        {
          "internalType": "uint256",
          "name": "id",
          "type": "uint256"
        },
        {
          "internalType": "uint256",
          "name": "bondQuantity",
          "type": "uint256"
        }
      ],
      "name": "purchase",
      "outputs": [],
      "stateMutability": "nonpayable",
      "type": "function"
    },
    {
      "inputs": [
        {
          "internalType": "uint256",
          "name": "id",
          "type": "uint256"
        },
        {
          "internalType": "uint256",
          "name": "bondQuantity",
          "type": "uint256"
        }
      ],
      "name": "redeem",
      "outputs": [],
      "stateMutability": "nonpayable",
      "type": "function"
    },
    {
      "inputs": [
        {
          "internalType": "uint256",
          "name": "id",
          "type": "uint256"
        },
        {
          "internalType": "uint256",
          "name": "bondQuantity",
          "type": "uint256"
        }
      ],
      "name": "redeemCanceled",
      "outputs": [],
      "stateMutability": "nonpayable",
      "type": "function"
    },
    {
      "inputs": [
        {
          "internalType": "uint256",
          "name": "id",
          "type": "uint256"
        },
        {
          "internalType": "uint256",
          "name": "bondQuantity",
          "type": "uint256"
        }
      ],
      "name": "redeemDefaulted",
      "outputs": [],
      "stateMutability": "nonpayable",
      "type": "function"
    },
    {
      "inputs": [
        {
          "internalType": "uint256",
          "name": "id",
          "type": "uint256"
        }
      ],
      "name": "remainingQuantity",
      "outputs": [
        {
          "internalType": "uint256",
          "name": "",
          "type": "uint256"
        }
      ],
      "stateMutability": "view",
      "type": "function"
    },
    {
      "inputs": [
        {
          "internalType": "address",
          "name": "from",
          "type": "address"
        },
        {
          "internalType": "address",
          "name": "to",
          "type": "address"
        },
        {
          "internalType": "uint256[]",
          "name": "ids",
          "type": "uint256[]"
        },
        {
          "internalType": "uint256[]",
          "name": "amounts",
          "type": "uint256[]"
        },
        {
          "internalType": "bytes",
          "name": "data",
          "type": "bytes"
        }
      ],
      "name": "safeBatchTransferFrom",
      "outputs": [],
      "stateMutability": "nonpayable",
      "type": "function"
    },
    {
      "inputs": [
        {
          "internalType": "address",
          "name": "from",
          "type": "address"
        },
        {
          "internalType": "address",
          "name": "to",
          "type": "address"
        },
        {
          "internalType": "uint256",
          "name": "id",
          "type": "uint256"
        },
        {
          "internalType": "uint256",
          "name": "amount",
          "type": "uint256"
        },
        {
          "internalType": "bytes",
          "name": "data",
          "type": "bytes"
        }
      ],
      "name": "safeTransferFrom",
      "outputs": [],
      "stateMutability": "nonpayable",
      "type": "function"
    },
    {
      "inputs": [
        {
          "internalType": "address",
          "name": "operator",
          "type": "address"
        },
        {
          "internalType": "bool",
          "name": "approved",
          "type": "bool"
        }
      ],
      "name": "setApprovalForAll",
      "outputs": [],
      "stateMutability": "nonpayable",
      "type": "function"
    },
    {
      "inputs": [
        {
          "internalType": "bytes4",
          "name": "interfaceId",
          "type": "bytes4"
        }
      ],
      "name": "supportsInterface",
      "outputs": [
        {
          "internalType": "bool",
          "name": "",
          "type": "bool"
        }
      ],
      "stateMutability": "view",
      "type": "function"
    },
    {
      "inputs": [
        {
          "internalType": "uint256",
          "name": "id",
          "type": "uint256"
        }
      ],
      "name": "timeElapsed",
      "outputs": [
        {
          "internalType": "uint256",
          "name": "",
          "type": "uint256"
        }
      ],
      "stateMutability": "view",
      "type": "function"
    },
    {
      "inputs": [
        {
          "internalType": "uint256",
          "name": "id",
          "type": "uint256"
        }
      ],
      "name": "timeRemainingToEndOfActive",
      "outputs": [
        {
          "internalType": "uint256",
          "name": "",
          "type": "uint256"
        }
      ],
      "stateMutability": "view",
      "type": "function"
    },
    {
      "inputs": [
        {
          "internalType": "uint256",
          "name": "id",
          "type": "uint256"
        }
      ],
      "name": "timeRemainingToMaturity",
      "outputs": [
        {
          "internalType": "uint256",
          "name": "",
          "type": "uint256"
        }
      ],
      "stateMutability": "view",
      "type": "function"
    },
    {
      "inputs": [],
      "name": "tvl",
      "outputs": [
        {
          "internalType": "uint256",
          "name": "",
          "type": "uint256"
        }
      ],
      "stateMutability": "view",
      "type": "function"
    },
    {
      "inputs": [
        {
          "internalType": "uint256",
          "name": "",
          "type": "uint256"
        }
      ],
      "name": "uri",
      "outputs": [
        {
          "internalType": "string",
          "name": "",
          "type": "string"
        }
      ],
      "stateMutability": "view",
      "type": "function"
    },
    {
      "inputs": [
        {
          "internalType": "uint256",
          "name": "id",
          "type": "uint256"
        },
        {
          "internalType": "uint256",
          "name": "tokenAmount",
          "type": "uint256"
        }
      ],
      "name": "withdraw",
      "outputs": [],
      "stateMutability": "nonpayable",
      "type": "function"
    },
    {
      "inputs": [
        {
          "internalType": "uint256",
          "name": "id",
          "type": "uint256"
        }
      ],
      "name": "withdrawExcess",
      "outputs": [],
      "stateMutability": "nonpayable",
      "type": "function"
    }
  ],
  "bytecode": "0x60c060405260006003553480156200001657600080fd5b50604051620063523803806200635283398181016040528101906200003c9190620002cd565b826200004e81620000c060201b60201c565b508073ffffffffffffffffffffffffffffffffffffffff1660808173ffffffffffffffffffffffffffffffffffffffff16815250508173ffffffffffffffffffffffffffffffffffffffff1660a08173ffffffffffffffffffffffffffffffffffffffff16815250505050506200067a565b8060029081620000d1919062000593565b5050565b6000604051905090565b600080fd5b600080fd5b600080fd5b600080fd5b6000601f19601f8301169050919050565b7f4e487b7100000000000000000000000000000000000000000000000000000000600052604160045260246000fd5b6200013e82620000f3565b810181811067ffffffffffffffff8211171562000160576200015f62000104565b5b80604052505050565b600062000175620000d5565b905062000183828262000133565b919050565b600067ffffffffffffffff821115620001a657620001a562000104565b5b620001b182620000f3565b9050602081019050919050565b60005b83811015620001de578082015181840152602081019050620001c1565b60008484015250505050565b600062000201620001fb8462000188565b62000169565b90508281526020810184848401111562000220576200021f620000ee565b5b6200022d848285620001be565b509392505050565b600082601f8301126200024d576200024c620000e9565b5b81516200025f848260208601620001ea565b91505092915050565b600073ffffffffffffffffffffffffffffffffffffffff82169050919050565b6000620002958262000268565b9050919050565b620002a78162000288565b8114620002b357600080fd5b50565b600081519050620002c7816200029c565b92915050565b600080600060608486031215620002e957620002e8620000df565b5b600084015167ffffffffffffffff8111156200030a5762000309620000e4565b5b620003188682870162000235565b93505060206200032b86828701620002b6565b92505060406200033e86828701620002b6565b9150509250925092565b600081519050919050565b7f4e487b7100000000000000000000000000000000000000000000000000000000600052602260045260246000fd5b600060028204905060018216806200039b57607f821691505b602082108103620003b157620003b062000353565b5b50919050565b60008190508160005260206000209050919050565b60006020601f8301049050919050565b600082821b905092915050565b6000600883026200041b7fffffffffffffffffffffffffffffffffffffffffffffffffffffffffffffffff82620003dc565b620004278683620003dc565b95508019841693508086168417925050509392505050565b6000819050919050565b6000819050919050565b6000620004746200046e62000468846200043f565b62000449565b6200043f565b9050919050565b6000819050919050565b620004908362000453565b620004a86200049f826200047b565b848454620003e9565b825550505050565b600090565b620004bf620004b0565b620004cc81848462000485565b505050565b5b81811015620004f457620004e8600082620004b5565b600181019050620004d2565b5050565b601f82111562000543576200050d81620003b7565b6200051884620003cc565b8101602085101562000528578190505b620005406200053785620003cc565b830182620004d1565b50505b505050565b600082821c905092915050565b6000620005686000198460080262000548565b1980831691505092915050565b600062000583838362000555565b9150826002028217905092915050565b6200059e8262000348565b67ffffffffffffffff811115620005ba57620005b962000104565b5b620005c6825462000382565b620005d3828285620004f8565b600060209050601f8311600181146200060b5760008415620005f6578287015190505b62000602858262000575565b86555062000672565b601f1984166200061b86620003b7565b60005b8281101562000645578489015182556001820191506020850194506020810190506200061e565b8683101562000665578489015162000661601f89168262000555565b8355505b6001600288020188555050505b505050505050565b60805160a051615c506200070260003960008181610f3f01528181611392015281816115a801528181611a7c01528181611c4901528181611e260152818161206c0152818161214f01528181612539015281816125e001526127d5015260008181610cfd0152818161184201528181612177015281816123df015261267f0152615c506000f3fe608060405234801561001057600080fd5b50600436106102525760003560e01c806382afd23b11610146578063b09f2b1c116100c3578063e2bbb15811610087578063e2bbb15814610806578063e5328e0614610822578063e755ddd714610840578063e985e9c51461085c578063f0d8100a1461088c578063f242432a146108bc57610252565b8063b09f2b1c14610750578063c0a6026c1461076c578063c55dae6314610788578063c7bc5730146107a6578063d3b7811b146107d657610252565b8063932a8de01161010a578063932a8de01461069c578063a22cb465146106cc578063a8743022146106e8578063a996ef0814610704578063abac75e11461072057610252565b806382afd23b146105b557806388bdc083146105e55780638c3526c2146106155780638da5cb5b1461064e5780638f0dbf771461066c57610252565b806339e3af9b116101d45780636ff80d93116101985780636ff80d93146104ed57806370876c981461051d57806377e2a08b146105395780637a41984b146105695780637cbc23731461059957610252565b806339e3af9b14610423578063441a3e70146104535780634e1273f41461046f578063549493bb1461049f5780636681b9fd146104cf57610252565b80630e89341c1161021b5780630e89341c1461034757806314f29493146103775780632eb2c2d6146103a75780632f3ad61f146103c35780633097afb8146103f357610252565b8062fdd58e1461025757806301ffc9a71461028757806302159497146102b757806308913ce8146102e75780630914902014610317575b600080fd5b610271600480360381019061026c9190613a6d565b6108d8565b60405161027e9190613abc565b60405180910390f35b6102a1600480360381019061029c9190613b2f565b6109a0565b6040516102ae9190613b77565b60405180910390f35b6102d160048036038101906102cc9190613b92565b610a82565b6040516102de9190613abc565b60405180910390f35b61030160048036038101906102fc9190613b92565b610a9f565b60405161030e9190613abc565b60405180910390f35b610331600480360381019061032c9190613b92565b610aca565b60405161033e9190613b77565b60405180910390f35b610361600480360381019061035c9190613b92565b610b00565b60405161036e9190613c4f565b60405180910390f35b610391600480360381019061038c9190613b92565b610b94565b60405161039e9190613abc565b60405180910390f35b6103c160048036038101906103bc9190613e6e565b610bd2565b005b6103dd60048036038101906103d89190613b92565b610c73565b6040516103ea9190613b77565b60405180910390f35b61040d60048036038101906104089190613b92565b610c9d565b60405161041a9190613b77565b60405180910390f35b61043d60048036038101906104389190613b92565b610cd6565b60405161044a9190613b77565b60405180910390f35b61046d60048036038101906104689190613f3d565b610cfb565b005b61048960048036038101906104849190614040565b610fe0565b6040516104969190614176565b60405180910390f35b6104b960048036038101906104b49190613b92565b6110f9565b6040516104c69190613b77565b60405180910390f35b6104d761112b565b6040516104e49190613abc565b60405180910390f35b61050760048036038101906105029190613b92565b611135565b6040516105149190613b77565b60405180910390f35b61053760048036038101906105329190613f3d565b61116d565b005b610553600480360381019061054e9190613b92565b611437565b6040516105609190613abc565b60405180910390f35b610583600480360381019061057e9190613b92565b611490565b6040516105909190613b77565b60405180910390f35b6105b360048036038101906105ae9190613f3d565b6114ba565b005b6105cf60048036038101906105ca9190613b92565b611674565b6040516105dc9190613b77565b60405180910390f35b6105ff60048036038101906105fa9190613b92565b611697565b60405161060c9190613abc565b60405180910390f35b61062f600480360381019061062a9190613b92565b6116ca565b6040516106459a99989796959493929190614198565b60405180910390f35b61065661183e565b604051610663919061424a565b60405180910390f35b61068660048036038101906106819190613b92565b611866565b6040516106939190613b77565b60405180910390f35b6106b660048036038101906106b19190613b92565b611888565b6040516106c39190613abc565b60405180910390f35b6106e660048036038101906106e19190614291565b6118c6565b005b61070260048036038101906106fd9190613b92565b6118dc565b005b61071e60048036038101906107199190613f3d565b611b5b565b005b61073a60048036038101906107359190613b92565b611d15565b6040516107479190613abc565b60405180910390f35b61076a60048036038101906107659190613f3d565b611d35565b005b61078660048036038101906107819190613b92565b611ef2565b005b61079061214b565b60405161079d919061424a565b60405180910390f35b6107c060048036038101906107bb9190614372565b612173565b6040516107cd9190613abc565b60405180910390f35b6107f060048036038101906107eb9190613b92565b6123aa565b6040516107fd9190613abc565b60405180910390f35b610820600480360381019061081b9190613f3d565b6123dd565b005b61082a6125dc565b6040516108379190613abc565b60405180910390f35b61085a60048036038101906108559190613b92565b61267d565b005b61087660048036038101906108719190614460565b612888565b6040516108839190613b77565b60405180910390f35b6108a660048036038101906108a19190613b92565b61291c565b6040516108b39190613abc565b60405180910390f35b6108d660048036038101906108d191906144a0565b612939565b005b60008073ffffffffffffffffffffffffffffffffffffffff168373ffffffffffffffffffffffffffffffffffffffff1603610948576040517f08c379a000000000000000000000000000000000000000000000000000000000815260040161093f906145a9565b60405180910390fd5b60008083815260200190815260200160002060008473ffffffffffffffffffffffffffffffffffffffff1673ffffffffffffffffffffffffffffffffffffffff16815260200190815260200160002054905092915050565b60007fd9b67a26000000000000000000000000000000000000000000000000000000007bffffffffffffffffffffffffffffffffffffffffffffffffffffffff1916827bffffffffffffffffffffffffffffffffffffffffffffffffffffffff19161480610a6b57507f0e89341c000000000000000000000000000000000000000000000000000000007bffffffffffffffffffffffffffffffffffffffffffffffffffffffff1916827bffffffffffffffffffffffffffffffffffffffffffffffffffffffff1916145b80610a7b5750610a7a826129da565b5b9050919050565b600060086000838152602001908152602001600020549050919050565b6000600560008381526020019081526020016000206002015442610ac391906145f8565b9050919050565b60006005600083815260200190815260200160002060080154600660008481526020019081526020016000205410159050919050565b606060028054610b0f9061465b565b80601f0160208091040260200160405190810160405280929190818152602001828054610b3b9061465b565b8015610b885780601f10610b5d57610100808354040283529160200191610b88565b820191906000526020600020905b815481529060010190602001808311610b6b57829003601f168201915b50505050509050919050565b600060066000838152602001908152602001600020546005600084815260200190815260200160002060010154610bcb919061468c565b9050919050565b610bda612a44565b73ffffffffffffffffffffffffffffffffffffffff168573ffffffffffffffffffffffffffffffffffffffff161480610c205750610c1f85610c1a612a44565b612888565b5b610c5f576040517f08c379a0000000000000000000000000000000000000000000000000000000008152600401610c5690614740565b60405180910390fd5b610c6c8585858585612a4c565b5050505050565b6000600b600083815260200190815260200160002060009054906101000a900460ff169050919050565b6000610ca882611866565b8015610ccf5750610cb882611437565b600860008481526020019081526020016000205410155b9050919050565b6000610ce182611674565b158015610cf45750610cf282610aca565b155b9050919050565b7f000000000000000000000000000000000000000000000000000000000000000073ffffffffffffffffffffffffffffffffffffffff163373ffffffffffffffffffffffffffffffffffffffff1614610d89576040517f08c379a0000000000000000000000000000000000000000000000000000000008152600401610d80906147ac565b60405180910390fd5b610d9282611674565b15610dd2576040517f08c379a0000000000000000000000000000000000000000000000000000000008152600401610dc990614818565b60405180910390fd5b610ddb82610cd6565b15610e1b576040517f08c379a0000000000000000000000000000000000000000000000000000000008152600401610e1290614818565b60405180910390fd5b610e2482611490565b15610e64576040517f08c379a0000000000000000000000000000000000000000000000000000000008152600401610e5b906148aa565b60405180910390fd5b610e6d82610c73565b80610e7d5750610e7c82611135565b5b15610ebd576040517f08c379a0000000000000000000000000000000000000000000000000000000008152600401610eb49061493c565b60405180910390fd5b6008600083815260200190815260200160002054811115610f13576040517f08c379a0000000000000000000000000000000000000000000000000000000008152600401610f0a906149ce565b60405180910390fd5b80600860008481526020019081526020016000206000828254610f3691906145f8565b925050819055507f000000000000000000000000000000000000000000000000000000000000000073ffffffffffffffffffffffffffffffffffffffff1663a9059cbb33836040518363ffffffff1660e01b8152600401610f989291906149ee565b6020604051808303816000875af1158015610fb7573d6000803e3d6000fd5b505050506040513d601f19601f82011682018060405250810190610fdb9190614a2c565b505050565b60608151835114611026576040517f08c379a000000000000000000000000000000000000000000000000000000000815260040161101d90614acb565b60405180910390fd5b6000835167ffffffffffffffff81111561104357611042613c76565b5b6040519080825280602002602001820160405280156110715781602001602082028036833780820191505090505b50905060005b84518110156110ee576110be85828151811061109657611095614aeb565b5b60200260200101518583815181106110b1576110b0614aeb565b5b60200260200101516108d8565b8282815181106110d1576110d0614aeb565b5b602002602001018181525050806110e790614b1a565b9050611077565b508091505092915050565b600060066000838152602001908152602001600020546007600084815260200190815260200160002054149050919050565b6000600454905090565b600061114082611866565b8015611166575061115082611437565b6008600084815260200190815260200160002054105b9050919050565b61117682611674565b6111b5576040517f08c379a00000000000000000000000000000000000000000000000000000000081526004016111ac90614bae565b60405180910390fd5b806111bf83611888565b1015611200576040517f08c379a00000000000000000000000000000000000000000000000000000000081526004016111f790614c40565b60405180910390fd5b600060056000848152602001908152602001600020604051806101400160405290816000820180546112319061465b565b80601f016020809104026020016040519081016040528092919081815260200182805461125d9061465b565b80156112aa5780601f1061127f576101008083540402835291602001916112aa565b820191906000526020600020905b81548152906001019060200180831161128d57829003601f168201915b50505050508152602001600182015481526020016002820154815260200160038201548152602001600482015481526020016005820154815260200160068201548152602001600782015481526020016008820154815260200160098201548152505090506000816020015183611321919061468c565b9050826006600086815260200190815260200160002060008282546113469190614c60565b92505081905550806008600086815260200190815260200160002060008282546113709190614c60565b9250508190555080600460008282546113899190614c60565b925050819055507f000000000000000000000000000000000000000000000000000000000000000073ffffffffffffffffffffffffffffffffffffffff166323b872dd3330846040518463ffffffff1660e01b81526004016113ed93929190614c94565b6020604051808303816000875af115801561140c573d6000803e3d6000fd5b505050506040513d601f19601f820116820180604052508101906114309190614a2c565b5050505050565b6000670de0b6b3a7640000600560008481526020019081526020016000206009015461146284610b94565b61146c919061468c565b6114769190614cfa565b61147f83610b94565b6114899190614c60565b9050919050565b6000600c600083815260200190815260200160002060009054906101000a900460ff169050919050565b6114c382611490565b611502576040517f08c379a00000000000000000000000000000000000000000000000000000000081526004016114f990614d77565b60405180910390fd5b8061150d33846108d8565b101561154e576040517f08c379a000000000000000000000000000000000000000000000000000000000815260040161154590614de3565b60405180910390fd5b611559338383612d6d565b8060076000848152602001908152602001600020600082825461157c9190614c60565b925050819055506000600a600084815260200190815260200160002054826115a4919061468c565b90507f000000000000000000000000000000000000000000000000000000000000000073ffffffffffffffffffffffffffffffffffffffff1663a9059cbb33836040518363ffffffff1660e01b81526004016116019291906149ee565b6020604051808303816000875af1158015611620573d6000803e3d6000fd5b505050506040513d601f19601f820116820180604052508101906116449190614a2c565b508060086000858152602001908152602001600020600082825461166891906145f8565b92505081905550505050565b600060056000838152602001908152602001600020600401544211159050919050565b60006116a282610a9f565b60056000848152602001908152602001600020600501546116c391906145f8565b9050919050565b6060600080600080600080600080600080600560008d81526020019081526020016000206040518061014001604052908160008201805461170a9061465b565b80601f01602080910402602001604051908101604052809291908181526020018280546117369061465b565b80156117835780601f1061175857610100808354040283529160200191611783565b820191906000526020600020905b81548152906001019060200180831161176657829003601f168201915b5050505050815260200160018201548152602001600282015481526020016003820154815260200160048201548152602001600582015481526020016006820154815260200160078201548152602001600882015481526020016009820154815250509050806000015181602001518260400151836060015184608001518560a001518660c001518760e001518861010001518961012001519a509a509a509a509a509a509a509a509a509a50509193959799509193959799565b60007f0000000000000000000000000000000000000000000000000000000000000000905090565b6000600560008381526020019081526020016000206003015442119050919050565b6000600660008381526020019081526020016000205460056000848152602001908152602001600020600701546118bf91906145f8565b9050919050565b6118d86118d1612a44565b8383612fb3565b5050565b6118e581611490565b1580156118f857506118f681610c73565b155b8015611909575061190881611135565b5b611948576040517f08c379a000000000000000000000000000000000000000000000000000000000815260040161193f90614e4f565b60405180910390fd5b600061195382611437565b905060006103e860086000858152602001908152602001600020546119789190614cfa565b9050600081600860008681526020019081526020016000205461199b91906145f8565b90506006600085815260200190815260200160002054816119bc9190614cfa565b6009600086815260200190815260200160002081905550600060066000868152602001908152602001600020546009600087815260200190815260200160002054611a07919061468c565b82611a1291906145f8565b905060008184611a229190614c60565b905080600860008881526020019081526020016000206000828254611a4791906145f8565b925050819055506001600b600088815260200190815260200160002060006101000a81548160ff0219169083151502179055507f000000000000000000000000000000000000000000000000000000000000000073ffffffffffffffffffffffffffffffffffffffff1663a9059cbb33836040518363ffffffff1660e01b8152600401611ad59291906149ee565b6020604051808303816000875af1158015611af4573d6000803e3d6000fd5b505050506040513d601f19601f82011682018060405250810190611b189190614a2c565b50857fc4f17a65d54873d57229ea5f59c4ddec592d095bc17581372676402c8228b9cd8685604051611b4b929190614e6f565b60405180910390a2505050505050565b611b6482610c73565b611ba3576040517f08c379a0000000000000000000000000000000000000000000000000000000008152600401611b9a90614e4f565b60405180910390fd5b80611bae33846108d8565b1015611bef576040517f08c379a0000000000000000000000000000000000000000000000000000000008152600401611be690614de3565b60405180910390fd5b611bfa338383612d6d565b80600760008481526020019081526020016000206000828254611c1d9190614c60565b925050819055506000600960008481526020019081526020016000205482611c45919061468c565b90507f000000000000000000000000000000000000000000000000000000000000000073ffffffffffffffffffffffffffffffffffffffff1663a9059cbb33836040518363ffffffff1660e01b8152600401611ca29291906149ee565b6020604051808303816000875af1158015611cc1573d6000803e3d6000fd5b505050506040513d601f19601f82011682018060405250810190611ce59190614a2c565b5080600860008581526020019081526020016000206000828254611d0991906145f8565b92505081905550505050565b600060056000838152602001908152602001600020600901549050919050565b611d3e82610cd6565b611d7d576040517f08c379a0000000000000000000000000000000000000000000000000000000008152600401611d7490614ee4565b60405180910390fd5b80611d8833846108d8565b1015611dc9576040517f08c379a0000000000000000000000000000000000000000000000000000000008152600401611dc090614de3565b60405180910390fd5b611dd4338383612d6d565b80600760008481526020019081526020016000206000828254611df79190614c60565b925050819055506000600560008481526020019081526020016000206001015482611e22919061468c565b90507f000000000000000000000000000000000000000000000000000000000000000073ffffffffffffffffffffffffffffffffffffffff1663a9059cbb33836040518363ffffffff1660e01b8152600401611e7f9291906149ee565b6020604051808303816000875af1158015611e9e573d6000803e3d6000fd5b505050506040513d601f19601f82011682018060405250810190611ec29190614a2c565b5080600860008581526020019081526020016000206000828254611ee691906145f8565b92505081905550505050565b611efb81610c73565b158015611f0e5750611f0c81611490565b155b8015611f1f5750611f1e81610c9d565b5b611f5e576040517f08c379a0000000000000000000000000000000000000000000000000000000008152600401611f5590614f50565b60405180910390fd5b6000611f6982611437565b905060006103e882611f7b9190614cfa565b905060008183611f8b91906145f8565b9050600660008581526020019081526020016000205481611fac9190614cfa565b600a60008681526020019081526020016000208190555060006006600086815260200190815260200160002054600a600087815260200190815260200160002054611ff7919061468c565b8261200291906145f8565b9050600081846120129190614c60565b90508060086000888152602001908152602001600020600082825461203791906145f8565b925050819055506001600c600088815260200190815260200160002060006101000a81548160ff0219169083151502179055507f000000000000000000000000000000000000000000000000000000000000000073ffffffffffffffffffffffffffffffffffffffff1663a9059cbb33836040518363ffffffff1660e01b81526004016120c59291906149ee565b6020604051808303816000875af11580156120e4573d6000803e3d6000fd5b505050506040513d601f19601f820116820180604052508101906121089190614a2c565b50857fac2eeaf45d1b75aed6b3285cda3efb3c382cce02ba313558bbb90be57f8843e4868560405161213b929190614e6f565b60405180910390a2505050505050565b60007f0000000000000000000000000000000000000000000000000000000000000000905090565b60007f000000000000000000000000000000000000000000000000000000000000000073ffffffffffffffffffffffffffffffffffffffff163373ffffffffffffffffffffffffffffffffffffffff1614612203576040517f08c379a00000000000000000000000000000000000000000000000000000000081526004016121fa906147ac565b60405180910390fd5b848410612245576040517f08c379a000000000000000000000000000000000000000000000000000000000815260040161223c90614fe2565b60405180910390fd5b60016003546122549190614c60565b905061226233828b8561311f565b604051806101400160405280878152602001888152602001428152602001620151808761228f919061468c565b4261229a9190614c60565b815260200162015180866122ae919061468c565b426122b99190614c60565b81526020018581526020018681526020018a81526020018981526020018481525060056000838152602001908152602001600020600082015181600001908161230291906151ae565b506020820151816001015560408201518160020155606082015181600301556080820151816004015560a0820151816005015560c0820151816006015560e0820151816007015561010082015181600801556101208201518160090155905050807f3e5b89bff97cb92eafe4cd460ef4aa43d6feef1428595fe038182876515968fd8a898660405161239693929190615280565b60405180910390a298975050505050505050565b60006123b582610a9f565b60056000848152602001908152602001600020600601546123d691906145f8565b9050919050565b7f000000000000000000000000000000000000000000000000000000000000000073ffffffffffffffffffffffffffffffffffffffff163373ffffffffffffffffffffffffffffffffffffffff161461246b576040517f08c379a0000000000000000000000000000000000000000000000000000000008152600401612462906147ac565b60405180910390fd5b61247482610c73565b80612484575061248382611135565b5b156124c4576040517f08c379a00000000000000000000000000000000000000000000000000000000081526004016124bb90615303565b60405180910390fd5b6124cd82611490565b1561250d576040517f08c379a00000000000000000000000000000000000000000000000000000000081526004016125049061536f565b60405180910390fd5b806008600084815260200190815260200160002060008282546125309190614c60565b925050819055507f000000000000000000000000000000000000000000000000000000000000000073ffffffffffffffffffffffffffffffffffffffff166323b872dd3330846040518463ffffffff1660e01b815260040161259493929190614c94565b6020604051808303816000875af11580156125b3573d6000803e3d6000fd5b505050506040513d601f19601f820116820180604052508101906125d79190614a2c565b505050565b60007f000000000000000000000000000000000000000000000000000000000000000073ffffffffffffffffffffffffffffffffffffffff166370a08231306040518263ffffffff1660e01b8152600401612637919061424a565b602060405180830381865afa158015612654573d6000803e3d6000fd5b505050506040513d601f19601f8201168201806040525081019061267891906153a4565b905090565b7f000000000000000000000000000000000000000000000000000000000000000073ffffffffffffffffffffffffffffffffffffffff163373ffffffffffffffffffffffffffffffffffffffff161461270b576040517f08c379a0000000000000000000000000000000000000000000000000000000008152600401612702906147ac565b60405180910390fd5b61271481611490565b80156127255750612724816110f9565b5b612764576040517f08c379a000000000000000000000000000000000000000000000000000000000815260040161275b9061541d565b60405180910390fd5b60006008600083815260200190815260200160002054116127ba576040517f08c379a00000000000000000000000000000000000000000000000000000000081526004016127b190615489565b60405180910390fd5b600060086000838152602001908152602001600020819055507f000000000000000000000000000000000000000000000000000000000000000073ffffffffffffffffffffffffffffffffffffffff1663a9059cbb3360086000858152602001908152602001600020546040518363ffffffff1660e01b81526004016128419291906149ee565b6020604051808303816000875af1158015612860573d6000803e3d6000fd5b505050506040513d601f19601f820116820180604052508101906128849190614a2c565b5050565b6000600160008473ffffffffffffffffffffffffffffffffffffffff1673ffffffffffffffffffffffffffffffffffffffff16815260200190815260200160002060008373ffffffffffffffffffffffffffffffffffffffff1673ffffffffffffffffffffffffffffffffffffffff16815260200190815260200160002060009054906101000a900460ff16905092915050565b600060086000838152602001908152602001600020549050919050565b612941612a44565b73ffffffffffffffffffffffffffffffffffffffff168573ffffffffffffffffffffffffffffffffffffffff161480612987575061298685612981612a44565b612888565b5b6129c6576040517f08c379a00000000000000000000000000000000000000000000000000000000081526004016129bd90614740565b60405180910390fd5b6129d385858585856132cf565b5050505050565b60007f01ffc9a7000000000000000000000000000000000000000000000000000000007bffffffffffffffffffffffffffffffffffffffffffffffffffffffff1916827bffffffffffffffffffffffffffffffffffffffffffffffffffffffff1916149050919050565b600033905090565b8151835114612a90576040517f08c379a0000000000000000000000000000000000000000000000000000000008152600401612a879061551b565b60405180910390fd5b600073ffffffffffffffffffffffffffffffffffffffff168473ffffffffffffffffffffffffffffffffffffffff1603612aff576040517f08c379a0000000000000000000000000000000000000000000000000000000008152600401612af6906155ad565b60405180910390fd5b6000612b09612a44565b9050612b1981878787878761356a565b60005b8451811015612cca576000858281518110612b3a57612b39614aeb565b5b602002602001015190506000858381518110612b5957612b58614aeb565b5b60200260200101519050600080600084815260200190815260200160002060008b73ffffffffffffffffffffffffffffffffffffffff1673ffffffffffffffffffffffffffffffffffffffff16815260200190815260200160002054905081811015612bfa576040517f08c379a0000000000000000000000000000000000000000000000000000000008152600401612bf19061563f565b60405180910390fd5b81810360008085815260200190815260200160002060008c73ffffffffffffffffffffffffffffffffffffffff1673ffffffffffffffffffffffffffffffffffffffff168152602001908152602001600020819055508160008085815260200190815260200160002060008b73ffffffffffffffffffffffffffffffffffffffff1673ffffffffffffffffffffffffffffffffffffffff1681526020019081526020016000206000828254612caf9190614c60565b9250508190555050505080612cc390614b1a565b9050612b1c565b508473ffffffffffffffffffffffffffffffffffffffff168673ffffffffffffffffffffffffffffffffffffffff168273ffffffffffffffffffffffffffffffffffffffff167f4a39dc06d4c0dbc64b70af90fd698a233a518aa5d07e595d983b8c0526c8f7fb8787604051612d4192919061565f565b60405180910390a4612d57818787878787613572565b612d6581878787878761357a565b505050505050565b600073ffffffffffffffffffffffffffffffffffffffff168373ffffffffffffffffffffffffffffffffffffffff1603612ddc576040517f08c379a0000000000000000000000000000000000000000000000000000000008152600401612dd390615708565b60405180910390fd5b6000612de6612a44565b90506000612df384613751565b90506000612e0084613751565b9050612e208387600085856040518060200160405280600081525061356a565b600080600087815260200190815260200160002060008873ffffffffffffffffffffffffffffffffffffffff1673ffffffffffffffffffffffffffffffffffffffff16815260200190815260200160002054905084811015612eb7576040517f08c379a0000000000000000000000000000000000000000000000000000000008152600401612eae9061579a565b60405180910390fd5b84810360008088815260200190815260200160002060008973ffffffffffffffffffffffffffffffffffffffff1673ffffffffffffffffffffffffffffffffffffffff16815260200190815260200160002081905550600073ffffffffffffffffffffffffffffffffffffffff168773ffffffffffffffffffffffffffffffffffffffff168573ffffffffffffffffffffffffffffffffffffffff167fc3d58168c5ae7397731d063d5bbf3d657854427343f4c083240f7aacaa2d0f628989604051612f84929190614e6f565b60405180910390a4612faa84886000868660405180602001604052806000815250613572565b50505050505050565b8173ffffffffffffffffffffffffffffffffffffffff168373ffffffffffffffffffffffffffffffffffffffff1603613021576040517f08c379a00000000000000000000000000000000000000000000000000000000081526004016130189061582c565b60405180910390fd5b80600160008573ffffffffffffffffffffffffffffffffffffffff1673ffffffffffffffffffffffffffffffffffffffff16815260200190815260200160002060008473ffffffffffffffffffffffffffffffffffffffff1673ffffffffffffffffffffffffffffffffffffffff16815260200190815260200160002060006101000a81548160ff0219169083151502179055508173ffffffffffffffffffffffffffffffffffffffff168373ffffffffffffffffffffffffffffffffffffffff167f17307eab39ab6107e8899845ad3d59bd9653f200f220920489ca2b5937696c31836040516131129190613b77565b60405180910390a3505050565b600073ffffffffffffffffffffffffffffffffffffffff168473ffffffffffffffffffffffffffffffffffffffff160361318e576040517f08c379a0000000000000000000000000000000000000000000000000000000008152600401613185906158be565b60405180910390fd5b6000613198612a44565b905060006131a585613751565b905060006131b285613751565b90506131c38360008985858961356a565b8460008088815260200190815260200160002060008973ffffffffffffffffffffffffffffffffffffffff1673ffffffffffffffffffffffffffffffffffffffff16815260200190815260200160002060008282546132229190614c60565b925050819055508673ffffffffffffffffffffffffffffffffffffffff16600073ffffffffffffffffffffffffffffffffffffffff168473ffffffffffffffffffffffffffffffffffffffff167fc3d58168c5ae7397731d063d5bbf3d657854427343f4c083240f7aacaa2d0f6289896040516132a0929190614e6f565b60405180910390a46132b783600089858589613572565b6132c6836000898989896137cb565b50505050505050565b600073ffffffffffffffffffffffffffffffffffffffff168473ffffffffffffffffffffffffffffffffffffffff160361333e576040517f08c379a0000000000000000000000000000000000000000000000000000000008152600401613335906155ad565b60405180910390fd5b6000613348612a44565b9050600061335585613751565b9050600061336285613751565b905061337283898985858961356a565b600080600088815260200190815260200160002060008a73ffffffffffffffffffffffffffffffffffffffff1673ffffffffffffffffffffffffffffffffffffffff16815260200190815260200160002054905085811015613409576040517f08c379a00000000000000000000000000000000000000000000000000000000081526004016134009061563f565b60405180910390fd5b85810360008089815260200190815260200160002060008b73ffffffffffffffffffffffffffffffffffffffff1673ffffffffffffffffffffffffffffffffffffffff168152602001908152602001600020819055508560008089815260200190815260200160002060008a73ffffffffffffffffffffffffffffffffffffffff1673ffffffffffffffffffffffffffffffffffffffff16815260200190815260200160002060008282546134be9190614c60565b925050819055508773ffffffffffffffffffffffffffffffffffffffff168973ffffffffffffffffffffffffffffffffffffffff168573ffffffffffffffffffffffffffffffffffffffff167fc3d58168c5ae7397731d063d5bbf3d657854427343f4c083240f7aacaa2d0f628a8a60405161353b929190614e6f565b60405180910390a4613551848a8a86868a613572565b61355f848a8a8a8a8a6137cb565b505050505050505050565b505050505050565b505050505050565b6135998473ffffffffffffffffffffffffffffffffffffffff166139a2565b15613749578373ffffffffffffffffffffffffffffffffffffffff1663bc197c8187878686866040518663ffffffff1660e01b81526004016135df959493929190615933565b6020604051808303816000875af192505050801561361b57506040513d601f19601f8201168201806040525081019061361891906159b0565b60015b6136c0576136276159ea565b806308c379a003613683575061363b615a0c565b806136465750613685565b806040517f08c379a000000000000000000000000000000000000000000000000000000000815260040161367a9190613c4f565b60405180910390fd5b505b6040517f08c379a00000000000000000000000000000000000000000000000000000000081526004016136b790615b0e565b60405180910390fd5b63bc197c8160e01b7bffffffffffffffffffffffffffffffffffffffffffffffffffffffff1916817bffffffffffffffffffffffffffffffffffffffffffffffffffffffff191614613747576040517f08c379a000000000000000000000000000000000000000000000000000000000815260040161373e90615ba0565b60405180910390fd5b505b505050505050565b60606000600167ffffffffffffffff8111156137705761376f613c76565b5b60405190808252806020026020018201604052801561379e5781602001602082028036833780820191505090505b50905082816000815181106137b6576137b5614aeb565b5b60200260200101818152505080915050919050565b6137ea8473ffffffffffffffffffffffffffffffffffffffff166139a2565b1561399a578373ffffffffffffffffffffffffffffffffffffffff1663f23a6e6187878686866040518663ffffffff1660e01b8152600401613830959493929190615bc0565b6020604051808303816000875af192505050801561386c57506040513d601f19601f8201168201806040525081019061386991906159b0565b60015b613911576138786159ea565b806308c379a0036138d4575061388c615a0c565b8061389757506138d6565b806040517f08c379a00000000000000000000000000000000000000000000000000000000081526004016138cb9190613c4f565b60405180910390fd5b505b6040517f08c379a000000000000000000000000000000000000000000000000000000000815260040161390890615b0e565b60405180910390fd5b63f23a6e6160e01b7bffffffffffffffffffffffffffffffffffffffffffffffffffffffff1916817bffffffffffffffffffffffffffffffffffffffffffffffffffffffff191614613998576040517f08c379a000000000000000000000000000000000000000000000000000000000815260040161398f90615ba0565b60405180910390fd5b505b505050505050565b6000808273ffffffffffffffffffffffffffffffffffffffff163b119050919050565b6000604051905090565b600080fd5b600080fd5b600073ffffffffffffffffffffffffffffffffffffffff82169050919050565b6000613a04826139d9565b9050919050565b613a14816139f9565b8114613a1f57600080fd5b50565b600081359050613a3181613a0b565b92915050565b6000819050919050565b613a4a81613a37565b8114613a5557600080fd5b50565b600081359050613a6781613a41565b92915050565b60008060408385031215613a8457613a836139cf565b5b6000613a9285828601613a22565b9250506020613aa385828601613a58565b9150509250929050565b613ab681613a37565b82525050565b6000602082019050613ad16000830184613aad565b92915050565b60007fffffffff0000000000000000000000000000000000000000000000000000000082169050919050565b613b0c81613ad7565b8114613b1757600080fd5b50565b600081359050613b2981613b03565b92915050565b600060208284031215613b4557613b446139cf565b5b6000613b5384828501613b1a565b91505092915050565b60008115159050919050565b613b7181613b5c565b82525050565b6000602082019050613b8c6000830184613b68565b92915050565b600060208284031215613ba857613ba76139cf565b5b6000613bb684828501613a58565b91505092915050565b600081519050919050565b600082825260208201905092915050565b60005b83811015613bf9578082015181840152602081019050613bde565b60008484015250505050565b6000601f19601f8301169050919050565b6000613c2182613bbf565b613c2b8185613bca565b9350613c3b818560208601613bdb565b613c4481613c05565b840191505092915050565b60006020820190508181036000830152613c698184613c16565b905092915050565b600080fd5b7f4e487b7100000000000000000000000000000000000000000000000000000000600052604160045260246000fd5b613cae82613c05565b810181811067ffffffffffffffff82111715613ccd57613ccc613c76565b5b80604052505050565b6000613ce06139c5565b9050613cec8282613ca5565b919050565b600067ffffffffffffffff821115613d0c57613d0b613c76565b5b602082029050602081019050919050565b600080fd5b6000613d35613d3084613cf1565b613cd6565b90508083825260208201905060208402830185811115613d5857613d57613d1d565b5b835b81811015613d815780613d6d8882613a58565b845260208401935050602081019050613d5a565b5050509392505050565b600082601f830112613da057613d9f613c71565b5b8135613db0848260208601613d22565b91505092915050565b600080fd5b600067ffffffffffffffff821115613dd957613dd8613c76565b5b613de282613c05565b9050602081019050919050565b82818337600083830152505050565b6000613e11613e0c84613dbe565b613cd6565b905082815260208101848484011115613e2d57613e2c613db9565b5b613e38848285613def565b509392505050565b600082601f830112613e5557613e54613c71565b5b8135613e65848260208601613dfe565b91505092915050565b600080600080600060a08688031215613e8a57613e896139cf565b5b6000613e9888828901613a22565b9550506020613ea988828901613a22565b945050604086013567ffffffffffffffff811115613eca57613ec96139d4565b5b613ed688828901613d8b565b935050606086013567ffffffffffffffff811115613ef757613ef66139d4565b5b613f0388828901613d8b565b925050608086013567ffffffffffffffff811115613f2457613f236139d4565b5b613f3088828901613e40565b9150509295509295909350565b60008060408385031215613f5457613f536139cf565b5b6000613f6285828601613a58565b9250506020613f7385828601613a58565b9150509250929050565b600067ffffffffffffffff821115613f9857613f97613c76565b5b602082029050602081019050919050565b6000613fbc613fb784613f7d565b613cd6565b90508083825260208201905060208402830185811115613fdf57613fde613d1d565b5b835b818110156140085780613ff48882613a22565b845260208401935050602081019050613fe1565b5050509392505050565b600082601f83011261402757614026613c71565b5b8135614037848260208601613fa9565b91505092915050565b60008060408385031215614057576140566139cf565b5b600083013567ffffffffffffffff811115614075576140746139d4565b5b61408185828601614012565b925050602083013567ffffffffffffffff8111156140a2576140a16139d4565b5b6140ae85828601613d8b565b9150509250929050565b600081519050919050565b600082825260208201905092915050565b6000819050602082019050919050565b6140ed81613a37565b82525050565b60006140ff83836140e4565b60208301905092915050565b6000602082019050919050565b6000614123826140b8565b61412d81856140c3565b9350614138836140d4565b8060005b8381101561416957815161415088826140f3565b975061415b8361410b565b92505060018101905061413c565b5085935050505092915050565b600060208201905081810360008301526141908184614118565b905092915050565b60006101408201905081810360008301526141b3818d613c16565b90506141c2602083018c613aad565b6141cf604083018b613aad565b6141dc606083018a613aad565b6141e96080830189613aad565b6141f660a0830188613aad565b61420360c0830187613aad565b61421060e0830186613aad565b61421e610100830185613aad565b61422c610120830184613aad565b9b9a5050505050505050505050565b614244816139f9565b82525050565b600060208201905061425f600083018461423b565b92915050565b61426e81613b5c565b811461427957600080fd5b50565b60008135905061428b81614265565b92915050565b600080604083850312156142a8576142a76139cf565b5b60006142b685828601613a22565b92505060206142c78582860161427c565b9150509250929050565b600067ffffffffffffffff8211156142ec576142eb613c76565b5b6142f582613c05565b9050602081019050919050565b6000614315614310846142d1565b613cd6565b90508281526020810184848401111561433157614330613db9565b5b61433c848285613def565b509392505050565b600082601f83011261435957614358613c71565b5b8135614369848260208601614302565b91505092915050565b600080600080600080600080610100898b031215614393576143926139cf565b5b60006143a18b828c01613a58565b98505060206143b28b828c01613a58565b97505060406143c38b828c01613a58565b965050606089013567ffffffffffffffff8111156143e4576143e36139d4565b5b6143f08b828c01614344565b95505060806144018b828c01613a58565b94505060a06144128b828c01613a58565b93505060c06144238b828c01613a58565b92505060e089013567ffffffffffffffff811115614444576144436139d4565b5b6144508b828c01613e40565b9150509295985092959890939650565b60008060408385031215614477576144766139cf565b5b600061448585828601613a22565b925050602061449685828601613a22565b9150509250929050565b600080600080600060a086880312156144bc576144bb6139cf565b5b60006144ca88828901613a22565b95505060206144db88828901613a22565b94505060406144ec88828901613a58565b93505060606144fd88828901613a58565b925050608086013567ffffffffffffffff81111561451e5761451d6139d4565b5b61452a88828901613e40565b9150509295509295909350565b7f455243313135353a2061646472657373207a65726f206973206e6f742061207660008201527f616c6964206f776e657200000000000000000000000000000000000000000000602082015250565b6000614593602a83613bca565b915061459e82614537565b604082019050919050565b600060208201905081810360008301526145c281614586565b9050919050565b7f4e487b7100000000000000000000000000000000000000000000000000000000600052601160045260246000fd5b600061460382613a37565b915061460e83613a37565b9250828203905081811115614626576146256145c9565b5b92915050565b7f4e487b7100000000000000000000000000000000000000000000000000000000600052602260045260246000fd5b6000600282049050600182168061467357607f821691505b6020821081036146865761468561462c565b5b50919050565b600061469782613a37565b91506146a283613a37565b92508282026146b081613a37565b915082820484148315176146c7576146c66145c9565b5b5092915050565b7f455243313135353a2063616c6c6572206973206e6f7420746f6b656e206f776e60008201527f6572206f7220617070726f766564000000000000000000000000000000000000602082015250565b600061472a602e83613bca565b9150614735826146ce565b604082019050919050565b600060208201905081810360008301526147598161471d565b9050919050565b7f43616c6c6572206973206e6f7420746865206f776e6572000000000000000000600082015250565b6000614796601783613bca565b91506147a182614760565b602082019050919050565b600060208201905081810360008301526147c581614789565b9050919050565b7f5769746864726177206e6f7420616c6c6f776564207768656e20616374697665600082015250565b6000614802602083613bca565b915061480d826147cc565b602082019050919050565b60006020820190508181036000830152614831816147f5565b9050919050565b7f5769746864726177206e6f7420616c6c6f77656420616674657220636f6d706c60008201527f6574696f6e000000000000000000000000000000000000000000000000000000602082015250565b6000614894602583613bca565b915061489f82614838565b604082019050919050565b600060208201905081810360008301526148c381614887565b9050919050565b7f5769746864726177206e6f7420616c6c6f776564207768656e2064656661756c60008201527f7465640000000000000000000000000000000000000000000000000000000000602082015250565b6000614926602383613bca565b9150614931826148ca565b604082019050919050565b6000602082019050818103600083015261495581614919565b9050919050565b7f5769746864726177616c20746f6b656e20616d6f756e7420657863656564732060008201527f746f6b656e20616d6f756e7420696e20636f6e74726163740000000000000000602082015250565b60006149b8603883613bca565b91506149c38261495c565b604082019050919050565b600060208201905081810360008301526149e7816149ab565b9050919050565b6000604082019050614a03600083018561423b565b614a106020830184613aad565b9392505050565b600081519050614a2681614265565b92915050565b600060208284031215614a4257614a416139cf565b5b6000614a5084828501614a17565b91505092915050565b7f455243313135353a206163636f756e747320616e6420696473206c656e67746860008201527f206d69736d617463680000000000000000000000000000000000000000000000602082015250565b6000614ab5602983613bca565b9150614ac082614a59565b604082019050919050565b60006020820190508181036000830152614ae481614aa8565b9050919050565b7f4e487b7100000000000000000000000000000000000000000000000000000000600052603260045260246000fd5b6000614b2582613a37565b91507fffffffffffffffffffffffffffffffffffffffffffffffffffffffffffffffff8203614b5757614b566145c9565b5b600182019050919050565b7f426f6e6420697320696e61637469766500000000000000000000000000000000600082015250565b6000614b98601083613bca565b9150614ba382614b62565b602082019050919050565b60006020820190508181036000830152614bc781614b8b565b9050919050565b7f496e73756666696369656e7420626f6e64207175616e746974792072656d616960008201527f6e696e6700000000000000000000000000000000000000000000000000000000602082015250565b6000614c2a602483613bca565b9150614c3582614bce565b604082019050919050565b60006020820190508181036000830152614c5981614c1d565b9050919050565b6000614c6b82613a37565b9150614c7683613a37565b9250828201905080821115614c8e57614c8d6145c9565b5b92915050565b6000606082019050614ca9600083018661423b565b614cb6602083018561423b565b614cc36040830184613aad565b949350505050565b7f4e487b7100000000000000000000000000000000000000000000000000000000600052601260045260246000fd5b6000614d0582613a37565b9150614d1083613a37565b925082614d2057614d1f614ccb565b5b828204905092915050565b7f426f6e64206973206e6f7420636f6d706c657465640000000000000000000000600082015250565b6000614d61601583613bca565b9150614d6c82614d2b565b602082019050919050565b60006020820190508181036000830152614d9081614d54565b9050919050565b7f496e73756666696369656e7420626f6e64207175616e74697479000000000000600082015250565b6000614dcd601a83613bca565b9150614dd882614d97565b602082019050919050565b60006020820190508181036000830152614dfc81614dc0565b9050919050565b7f426f6e64206973206e6f742064656661756c7465640000000000000000000000600082015250565b6000614e39601583613bca565b9150614e4482614e03565b602082019050919050565b60006020820190508181036000830152614e6881614e2c565b9050919050565b6000604082019050614e846000830185613aad565b614e916020830184613aad565b9392505050565b7f426f6e64206973206e6f742063616e63656c6564000000000000000000000000600082015250565b6000614ece601483613bca565b9150614ed982614e98565b602082019050919050565b60006020820190508181036000830152614efd81614ec1565b9050919050565b7f426f6e6420697320616c726561647920636f6d706c6574656400000000000000600082015250565b6000614f3a601983613bca565b9150614f4582614f04565b602082019050919050565b60006020820190508181036000830152614f6981614f2d565b9050919050565b7f416374697665206475726174696f6e2073686f756c642062652073686f72746560008201527f72207468616e206475726174696f6e0000000000000000000000000000000000602082015250565b6000614fcc602f83613bca565b9150614fd782614f70565b604082019050919050565b60006020820190508181036000830152614ffb81614fbf565b9050919050565b60008190508160005260206000209050919050565b60006020601f8301049050919050565b600082821b905092915050565b6000600883026150647fffffffffffffffffffffffffffffffffffffffffffffffffffffffffffffffff82615027565b61506e8683615027565b95508019841693508086168417925050509392505050565b6000819050919050565b60006150ab6150a66150a184613a37565b615086565b613a37565b9050919050565b6000819050919050565b6150c583615090565b6150d96150d1826150b2565b848454615034565b825550505050565b600090565b6150ee6150e1565b6150f98184846150bc565b505050565b5b8181101561511d576151126000826150e6565b6001810190506150ff565b5050565b601f8211156151625761513381615002565b61513c84615017565b8101602085101561514b578190505b61515f61515785615017565b8301826150fe565b50505b505050565b600082821c905092915050565b600061518560001984600802615167565b1980831691505092915050565b600061519e8383615174565b9150826002028217905092915050565b6151b782613bbf565b67ffffffffffffffff8111156151d0576151cf613c76565b5b6151da825461465b565b6151e5828285615121565b600060209050601f8311600181146152185760008415615206578287015190505b6152108582615192565b865550615278565b601f19841661522686615002565b60005b8281101561524e57848901518255600182019150602085019450602081019050615229565b8683101561526b5784890151615267601f891682615174565b8355505b6001600288020188555050505b505050505050565b60006060820190506152956000830186613aad565b6152a26020830185613aad565b6152af6040830184613aad565b949350505050565b7f626f6e642069732064656661756c746564000000000000000000000000000000600082015250565b60006152ed601183613bca565b91506152f8826152b7565b602082019050919050565b6000602082019050818103600083015261531c816152e0565b9050919050565b7f626f6e6420697320636f6d706c65746564000000000000000000000000000000600082015250565b6000615359601183613bca565b915061536482615323565b602082019050919050565b600060208201905081810360008301526153888161534c565b9050919050565b60008151905061539e81613a41565b92915050565b6000602082840312156153ba576153b96139cf565b5b60006153c88482850161538f565b91505092915050565b7f43616e6e6f742077697468647261772065786365737300000000000000000000600082015250565b6000615407601683613bca565b9150615412826153d1565b602082019050919050565b60006020820190508181036000830152615436816153fa565b9050919050565b7f43616e6e6f742077697468647261772066726f6d20656d70747920706f6f6c00600082015250565b6000615473601f83613bca565b915061547e8261543d565b602082019050919050565b600060208201905081810360008301526154a281615466565b9050919050565b7f455243313135353a2069647320616e6420616d6f756e7473206c656e6774682060008201527f6d69736d61746368000000000000000000000000000000000000000000000000602082015250565b6000615505602883613bca565b9150615510826154a9565b604082019050919050565b60006020820190508181036000830152615534816154f8565b9050919050565b7f455243313135353a207472616e7366657220746f20746865207a65726f20616460008201527f6472657373000000000000000000000000000000000000000000000000000000602082015250565b6000615597602583613bca565b91506155a28261553b565b604082019050919050565b600060208201905081810360008301526155c68161558a565b9050919050565b7f455243313135353a20696e73756666696369656e742062616c616e636520666f60008201527f72207472616e7366657200000000000000000000000000000000000000000000602082015250565b6000615629602a83613bca565b9150615634826155cd565b604082019050919050565b600060208201905081810360008301526156588161561c565b9050919050565b600060408201905081810360008301526156798185614118565b9050818103602083015261568d8184614118565b90509392505050565b7f455243313135353a206275726e2066726f6d20746865207a65726f206164647260008201527f6573730000000000000000000000000000000000000000000000000000000000602082015250565b60006156f2602383613bca565b91506156fd82615696565b604082019050919050565b60006020820190508181036000830152615721816156e5565b9050919050565b7f455243313135353a206275726e20616d6f756e7420657863656564732062616c60008201527f616e636500000000000000000000000000000000000000000000000000000000602082015250565b6000615784602483613bca565b915061578f82615728565b604082019050919050565b600060208201905081810360008301526157b381615777565b9050919050565b7f455243313135353a2073657474696e6720617070726f76616c2073746174757360008201527f20666f722073656c660000000000000000000000000000000000000000000000602082015250565b6000615816602983613bca565b9150615821826157ba565b604082019050919050565b6000602082019050818103600083015261584581615809565b9050919050565b7f455243313135353a206d696e7420746f20746865207a65726f2061646472657360008201527f7300000000000000000000000000000000000000000000000000000000000000602082015250565b60006158a8602183613bca565b91506158b38261584c565b604082019050919050565b600060208201905081810360008301526158d78161589b565b9050919050565b600081519050919050565b600082825260208201905092915050565b6000615905826158de565b61590f81856158e9565b935061591f818560208601613bdb565b61592881613c05565b840191505092915050565b600060a082019050615948600083018861423b565b615955602083018761423b565b81810360408301526159678186614118565b9050818103606083015261597b8185614118565b9050818103608083015261598f81846158fa565b90509695505050505050565b6000815190506159aa81613b03565b92915050565b6000602082840312156159c6576159c56139cf565b5b60006159d48482850161599b565b91505092915050565b60008160e01c9050919050565b600060033d1115615a095760046000803e615a066000516159dd565b90505b90565b600060443d10615a9957615a1e6139c5565b60043d036004823e80513d602482011167ffffffffffffffff82111715615a46575050615a99565b808201805167ffffffffffffffff811115615a645750505050615a99565b80602083010160043d038501811115615a81575050505050615a99565b615a9082602001850186613ca5565b82955050505050505b90565b7f455243313135353a207472616e7366657220746f206e6f6e2d4552433131353560008201527f526563656976657220696d706c656d656e746572000000000000000000000000602082015250565b6000615af8603483613bca565b9150615b0382615a9c565b604082019050919050565b60006020820190508181036000830152615b2781615aeb565b9050919050565b7f455243313135353a204552433131353552656365697665722072656a6563746560008201527f6420746f6b656e73000000000000000000000000000000000000000000000000602082015250565b6000615b8a602883613bca565b9150615b9582615b2e565b604082019050919050565b60006020820190508181036000830152615bb981615b7d565b9050919050565b600060a082019050615bd5600083018861423b565b615be2602083018761423b565b615bef6040830186613aad565b615bfc6060830185613aad565b8181036080830152615c0e81846158fa565b9050969550505050505056fea26469706673582212208f5fca21ab646901642c46336e0940a244daf6158549eda10d044e1d102f877964736f6c63430008110033",
  "linkReferences": {},
  "deployedLinkReferences": {}
}