{
  "_format": "hh-sol-artifact-1",
  "contractName": "BondFactory",
  "sourceName": "contracts/BondFactory.sol",
  "abi": [
    {
      "inputs": [
        {
          "internalType": "string",
          "name": "uri",
          "type": "string"
        },
        {
          "internalType": "address",
          "name": "token",
          "type": "address"
        },
        {
          "internalType": "address",
          "name": "deployer",
          "type": "address"
        }
      ],
      "stateMutability": "nonpayable",
      "type": "constructor"
    },
    {
      "anonymous": false,
      "inputs": [
        {
          "indexed": true,
          "internalType": "address",
          "name": "account",
          "type": "address"
        },
        {
          "indexed": true,
          "internalType": "address",
          "name": "operator",
          "type": "address"
        },
        {
          "indexed": false,
          "internalType": "bool",
          "name": "approved",
          "type": "bool"
        }
      ],
      "name": "ApprovalForAll",
      "type": "event"
    },
    {
      "anonymous": false,
      "inputs": [
        {
          "indexed": true,
          "internalType": "uint256",
          "name": "id",
          "type": "uint256"
        },
        {
          "indexed": false,
          "internalType": "uint256",
          "name": "totalDebt",
          "type": "uint256"
        },
        {
          "indexed": false,
          "internalType": "uint256",
          "name": "paidDebt",
          "type": "uint256"
        }
      ],
      "name": "Completed",
      "type": "event"
    },
    {
      "anonymous": false,
      "inputs": [
        {
          "indexed": true,
          "internalType": "uint256",
          "name": "id",
          "type": "uint256"
        },
        {
          "indexed": false,
          "internalType": "uint256",
          "name": "totalDebt",
          "type": "uint256"
        },
        {
          "indexed": false,
          "internalType": "uint256",
          "name": "paidDebt",
          "type": "uint256"
        }
      ],
      "name": "Defaulted",
      "type": "event"
    },
    {
      "anonymous": false,
      "inputs": [
        {
          "indexed": true,
          "internalType": "uint256",
          "name": "id",
          "type": "uint256"
        },
        {
          "indexed": false,
          "internalType": "uint256",
          "name": "bondQuantity",
          "type": "uint256"
        },
        {
          "indexed": false,
          "internalType": "uint256",
          "name": "tokenAmountPerBond",
          "type": "uint256"
        },
        {
          "indexed": false,
          "internalType": "uint256",
          "name": "couponRate",
          "type": "uint256"
        },
        {
          "indexed": false,
          "internalType": "uint256",
          "name": "maturityDate",
          "type": "uint256"
        }
      ],
      "name": "Issued",
      "type": "event"
    },
    {
      "anonymous": false,
      "inputs": [
        {
          "indexed": true,
          "internalType": "uint256",
          "name": "id",
          "type": "uint256"
        },
        {
          "indexed": false,
          "internalType": "address",
          "name": "buyer",
          "type": "address"
        },
        {
          "indexed": false,
          "internalType": "uint256",
          "name": "bondQuantity",
          "type": "uint256"
        },
        {
          "indexed": false,
          "internalType": "uint256",
          "name": "state",
          "type": "uint256"
        }
      ],
      "name": "Redeemed",
      "type": "event"
    },
    {
      "anonymous": false,
      "inputs": [
        {
          "indexed": true,
          "internalType": "address",
          "name": "operator",
          "type": "address"
        },
        {
          "indexed": true,
          "internalType": "address",
          "name": "from",
          "type": "address"
        },
        {
          "indexed": true,
          "internalType": "address",
          "name": "to",
          "type": "address"
        },
        {
          "indexed": false,
          "internalType": "uint256[]",
          "name": "ids",
          "type": "uint256[]"
        },
        {
          "indexed": false,
          "internalType": "uint256[]",
          "name": "values",
          "type": "uint256[]"
        }
      ],
      "name": "TransferBatch",
      "type": "event"
    },
    {
      "anonymous": false,
      "inputs": [
        {
          "indexed": true,
          "internalType": "address",
          "name": "operator",
          "type": "address"
        },
        {
          "indexed": true,
          "internalType": "address",
          "name": "from",
          "type": "address"
        },
        {
          "indexed": true,
          "internalType": "address",
          "name": "to",
          "type": "address"
        },
        {
          "indexed": false,
          "internalType": "uint256",
          "name": "id",
          "type": "uint256"
        },
        {
          "indexed": false,
          "internalType": "uint256",
          "name": "value",
          "type": "uint256"
        }
      ],
      "name": "TransferSingle",
      "type": "event"
    },
    {
      "anonymous": false,
      "inputs": [
        {
          "indexed": false,
          "internalType": "string",
          "name": "value",
          "type": "string"
        },
        {
          "indexed": true,
          "internalType": "uint256",
          "name": "id",
          "type": "uint256"
        }
      ],
      "name": "URI",
      "type": "event"
    },
    {
      "inputs": [
        {
          "internalType": "address",
          "name": "account",
          "type": "address"
        },
        {
          "internalType": "uint256",
          "name": "id",
          "type": "uint256"
        }
      ],
      "name": "balanceOf",
      "outputs": [
        {
          "internalType": "uint256",
          "name": "",
          "type": "uint256"
        }
      ],
      "stateMutability": "view",
      "type": "function"
    },
    {
      "inputs": [
        {
          "internalType": "address[]",
          "name": "accounts",
          "type": "address[]"
        },
        {
          "internalType": "uint256[]",
          "name": "ids",
          "type": "uint256[]"
        }
      ],
      "name": "balanceOfBatch",
      "outputs": [
        {
          "internalType": "uint256[]",
          "name": "",
          "type": "uint256[]"
        }
      ],
      "stateMutability": "view",
      "type": "function"
    },
    {
      "inputs": [],
      "name": "baseToken",
      "outputs": [
        {
          "internalType": "address",
          "name": "",
          "type": "address"
        }
      ],
      "stateMutability": "view",
      "type": "function"
    },
    {
      "inputs": [
        {
          "internalType": "uint256",
          "name": "id",
          "type": "uint256"
        }
      ],
      "name": "bondMetadata",
      "outputs": [
        {
          "internalType": "string",
          "name": "",
          "type": "string"
        },
        {
          "internalType": "uint256",
          "name": "",
          "type": "uint256"
        },
        {
          "internalType": "uint256",
          "name": "",
          "type": "uint256"
        },
        {
          "internalType": "uint256",
          "name": "",
          "type": "uint256"
        },
        {
          "internalType": "uint256",
          "name": "",
          "type": "uint256"
        },
        {
          "internalType": "uint256",
          "name": "",
          "type": "uint256"
        },
        {
          "internalType": "uint256",
          "name": "",
          "type": "uint256"
        },
        {
          "internalType": "uint256",
          "name": "",
          "type": "uint256"
        },
        {
          "internalType": "uint256",
          "name": "",
          "type": "uint256"
        },
        {
          "internalType": "uint256",
          "name": "",
          "type": "uint256"
        }
      ],
      "stateMutability": "view",
      "type": "function"
    },
    {
      "inputs": [
        {
          "internalType": "uint256",
          "name": "id",
          "type": "uint256"
        }
      ],
      "name": "couponRate",
      "outputs": [
        {
          "internalType": "uint256",
          "name": "",
          "type": "uint256"
        }
      ],
      "stateMutability": "view",
      "type": "function"
    },
    {
      "inputs": [
        {
          "internalType": "uint256",
          "name": "id",
          "type": "uint256"
        },
        {
          "internalType": "uint256",
          "name": "tokenAmount",
          "type": "uint256"
        }
      ],
      "name": "deposit",
      "outputs": [],
      "stateMutability": "nonpayable",
      "type": "function"
    },
    {
      "inputs": [
        {
          "internalType": "uint256",
          "name": "id",
          "type": "uint256"
        }
      ],
      "name": "designatedTokenPool",
      "outputs": [
        {
          "internalType": "uint256",
          "name": "",
          "type": "uint256"
        }
      ],
      "stateMutability": "view",
      "type": "function"
    },
    {
      "inputs": [],
      "name": "fundsRaised",
      "outputs": [
        {
          "internalType": "uint256",
          "name": "",
          "type": "uint256"
        }
      ],
      "stateMutability": "view",
      "type": "function"
    },
    {
      "inputs": [
        {
          "internalType": "uint256",
          "name": "id",
          "type": "uint256"
        }
      ],
      "name": "hasReachedMaturity",
      "outputs": [
        {
          "internalType": "bool",
          "name": "",
          "type": "bool"
        }
      ],
      "stateMutability": "view",
      "type": "function"
    },
    {
      "inputs": [
        {
          "internalType": "uint256",
          "name": "id",
          "type": "uint256"
        }
      ],
      "name": "isActive",
      "outputs": [
        {
          "internalType": "bool",
          "name": "",
          "type": "bool"
        }
      ],
      "stateMutability": "view",
      "type": "function"
    },
    {
      "inputs": [
        {
          "internalType": "address",
          "name": "account",
          "type": "address"
        },
        {
          "internalType": "address",
          "name": "operator",
          "type": "address"
        }
      ],
      "name": "isApprovedForAll",
      "outputs": [
        {
          "internalType": "bool",
          "name": "",
          "type": "bool"
        }
      ],
      "stateMutability": "view",
      "type": "function"
    },
    {
      "inputs": [
        {
          "internalType": "uint256",
          "name": "id",
          "type": "uint256"
        }
      ],
      "name": "isCanceled",
      "outputs": [
        {
          "internalType": "bool",
          "name": "",
          "type": "bool"
        }
      ],
      "stateMutability": "view",
      "type": "function"
    },
    {
      "inputs": [
        {
          "internalType": "uint256",
          "name": "id",
          "type": "uint256"
        }
      ],
      "name": "isCompleted",
      "outputs": [
        {
          "internalType": "bool",
          "name": "",
          "type": "bool"
        }
      ],
      "stateMutability": "view",
      "type": "function"
    },
    {
      "inputs": [
        {
          "internalType": "uint256",
          "name": "id",
          "type": "uint256"
        }
      ],
      "name": "isCompletedInTheory",
      "outputs": [
        {
          "internalType": "bool",
          "name": "",
          "type": "bool"
        }
      ],
      "stateMutability": "view",
      "type": "function"
    },
    {
      "inputs": [
        {
          "internalType": "uint256",
          "name": "id",
          "type": "uint256"
        }
      ],
      "name": "isDefaulted",
      "outputs": [
        {
          "internalType": "bool",
          "name": "",
          "type": "bool"
        }
      ],
      "stateMutability": "view",
      "type": "function"
    },
    {
      "inputs": [
        {
          "internalType": "uint256",
          "name": "id",
          "type": "uint256"
        }
      ],
      "name": "isDefaultedInTheory",
      "outputs": [
        {
          "internalType": "bool",
          "name": "",
          "type": "bool"
        }
      ],
      "stateMutability": "view",
      "type": "function"
    },
    {
      "inputs": [
        {
          "internalType": "uint256",
          "name": "id",
          "type": "uint256"
        }
      ],
      "name": "isFulfilled",
      "outputs": [
        {
          "internalType": "bool",
          "name": "",
          "type": "bool"
        }
      ],
      "stateMutability": "view",
      "type": "function"
    },
    {
      "inputs": [
        {
          "internalType": "uint256",
          "name": "id",
          "type": "uint256"
        }
      ],
      "name": "isFullyRedeemed",
      "outputs": [
        {
          "internalType": "bool",
          "name": "",
          "type": "bool"
        }
      ],
      "stateMutability": "view",
      "type": "function"
    },
    {
      "inputs": [
        {
          "internalType": "uint256",
          "name": "bondQuantity",
          "type": "uint256"
        },
        {
          "internalType": "uint256",
          "name": "minPurchasedQuantity",
          "type": "uint256"
        },
        {
          "internalType": "uint256",
          "name": "tokenAmountPerBond",
          "type": "uint256"
        },
        {
          "internalType": "string",
          "name": "ticker",
          "type": "string"
        },
        {
          "internalType": "uint256",
          "name": "durationDays",
          "type": "uint256"
        },
        {
          "internalType": "uint256",
          "name": "activeDurationInDays",
          "type": "uint256"
        },
        {
          "internalType": "uint256",
          "name": "rate",
          "type": "uint256"
        }
      ],
      "name": "issue",
      "outputs": [
        {
          "internalType": "uint256",
          "name": "id",
          "type": "uint256"
        }
      ],
      "stateMutability": "nonpayable",
      "type": "function"
    },
    {
      "inputs": [
        {
          "internalType": "uint256",
          "name": "id",
          "type": "uint256"
        }
      ],
      "name": "markAsCompleted",
      "outputs": [],
      "stateMutability": "nonpayable",
      "type": "function"
    },
    {
      "inputs": [
        {
          "internalType": "uint256",
          "name": "id",
          "type": "uint256"
        }
      ],
      "name": "markAsDefaulted",
      "outputs": [],
      "stateMutability": "nonpayable",
      "type": "function"
    },
    {
      "inputs": [],
      "name": "numBondsIssued",
      "outputs": [
        {
          "internalType": "uint256",
          "name": "",
          "type": "uint256"
        }
      ],
      "stateMutability": "view",
      "type": "function"
    },
    {
      "inputs": [
        {
          "internalType": "address",
          "name": "",
          "type": "address"
        },
        {
          "internalType": "address",
          "name": "",
          "type": "address"
        },
        {
          "internalType": "uint256[]",
          "name": "",
          "type": "uint256[]"
        },
        {
          "internalType": "uint256[]",
          "name": "",
          "type": "uint256[]"
        },
        {
          "internalType": "bytes",
          "name": "",
          "type": "bytes"
        }
      ],
      "name": "onERC1155BatchReceived",
      "outputs": [
        {
          "internalType": "bytes4",
          "name": "",
          "type": "bytes4"
        }
      ],
      "stateMutability": "nonpayable",
      "type": "function"
    },
    {
      "inputs": [
        {
          "internalType": "address",
          "name": "",
          "type": "address"
        },
        {
          "internalType": "address",
          "name": "",
          "type": "address"
        },
        {
          "internalType": "uint256",
          "name": "",
          "type": "uint256"
        },
        {
          "internalType": "uint256",
          "name": "",
          "type": "uint256"
        },
        {
          "internalType": "bytes",
          "name": "",
          "type": "bytes"
        }
      ],
      "name": "onERC1155Received",
      "outputs": [
        {
          "internalType": "bytes4",
          "name": "",
          "type": "bytes4"
        }
      ],
      "stateMutability": "nonpayable",
      "type": "function"
    },
    {
      "inputs": [],
      "name": "owner",
      "outputs": [
        {
          "internalType": "address",
          "name": "",
          "type": "address"
        }
      ],
      "stateMutability": "view",
      "type": "function"
    },
    {
      "inputs": [
        {
          "internalType": "uint256",
          "name": "id",
          "type": "uint256"
        }
      ],
      "name": "poolAmount",
      "outputs": [
        {
          "internalType": "uint256",
          "name": "",
          "type": "uint256"
        }
      ],
      "stateMutability": "view",
      "type": "function"
    },
    {
      "inputs": [
        {
          "internalType": "uint256",
          "name": "id",
          "type": "uint256"
        }
      ],
      "name": "preMaturityDefault",
      "outputs": [],
      "stateMutability": "nonpayable",
      "type": "function"
    },
    {
      "inputs": [
        {
          "internalType": "uint256",
          "name": "id",
          "type": "uint256"
        }
      ],
      "name": "principal",
      "outputs": [
        {
          "internalType": "uint256",
          "name": "",
          "type": "uint256"
        }
      ],
      "stateMutability": "view",
      "type": "function"
    },
    {
      "inputs": [
        {
          "internalType": "uint256",
          "name": "id",
          "type": "uint256"
        }
      ],
      "name": "principalWithInterest",
      "outputs": [
        {
          "internalType": "uint256",
          "name": "",
          "type": "uint256"
        }
      ],
      "stateMutability": "view",
      "type": "function"
    },
    {
      "inputs": [
        {
          "internalType": "uint256",
          "name": "id",
          "type": "uint256"
        },
        {
          "internalType": "uint256",
          "name": "bondQuantity",
          "type": "uint256"
        }
      ],
      "name": "purchase",
      "outputs": [],
      "stateMutability": "nonpayable",
      "type": "function"
    },
    {
      "inputs": [
        {
          "internalType": "uint256",
          "name": "id",
          "type": "uint256"
        },
        {
          "internalType": "uint256",
          "name": "bondQuantity",
          "type": "uint256"
        }
      ],
      "name": "redeem",
      "outputs": [],
      "stateMutability": "nonpayable",
      "type": "function"
    },
    {
      "inputs": [
        {
          "internalType": "uint256",
          "name": "id",
          "type": "uint256"
        }
      ],
      "name": "remainingQuantity",
      "outputs": [
        {
          "internalType": "uint256",
          "name": "",
          "type": "uint256"
        }
      ],
      "stateMutability": "view",
      "type": "function"
    },
    {
      "inputs": [
        {
          "internalType": "address",
          "name": "from",
          "type": "address"
        },
        {
          "internalType": "address",
          "name": "to",
          "type": "address"
        },
        {
          "internalType": "uint256[]",
          "name": "ids",
          "type": "uint256[]"
        },
        {
          "internalType": "uint256[]",
          "name": "amounts",
          "type": "uint256[]"
        },
        {
          "internalType": "bytes",
          "name": "data",
          "type": "bytes"
        }
      ],
      "name": "safeBatchTransferFrom",
      "outputs": [],
      "stateMutability": "nonpayable",
      "type": "function"
    },
    {
      "inputs": [
        {
          "internalType": "address",
          "name": "from",
          "type": "address"
        },
        {
          "internalType": "address",
          "name": "to",
          "type": "address"
        },
        {
          "internalType": "uint256",
          "name": "id",
          "type": "uint256"
        },
        {
          "internalType": "uint256",
          "name": "amount",
          "type": "uint256"
        },
        {
          "internalType": "bytes",
          "name": "data",
          "type": "bytes"
        }
      ],
      "name": "safeTransferFrom",
      "outputs": [],
      "stateMutability": "nonpayable",
      "type": "function"
    },
    {
      "inputs": [
        {
          "internalType": "address",
          "name": "operator",
          "type": "address"
        },
        {
          "internalType": "bool",
          "name": "approved",
          "type": "bool"
        }
      ],
      "name": "setApprovalForAll",
      "outputs": [],
      "stateMutability": "nonpayable",
      "type": "function"
    },
    {
      "inputs": [
        {
          "internalType": "bytes4",
          "name": "interfaceId",
          "type": "bytes4"
        }
      ],
      "name": "supportsInterface",
      "outputs": [
        {
          "internalType": "bool",
          "name": "",
          "type": "bool"
        }
      ],
      "stateMutability": "view",
      "type": "function"
    },
    {
      "inputs": [
        {
          "internalType": "uint256",
          "name": "id",
          "type": "uint256"
        }
      ],
      "name": "timeElapsed",
      "outputs": [
        {
          "internalType": "uint256",
          "name": "",
          "type": "uint256"
        }
      ],
      "stateMutability": "view",
      "type": "function"
    },
    {
      "inputs": [
        {
          "internalType": "uint256",
          "name": "id",
          "type": "uint256"
        }
      ],
      "name": "timeRemainingToEndOfActive",
      "outputs": [
        {
          "internalType": "uint256",
          "name": "",
          "type": "uint256"
        }
      ],
      "stateMutability": "view",
      "type": "function"
    },
    {
      "inputs": [
        {
          "internalType": "uint256",
          "name": "id",
          "type": "uint256"
        }
      ],
      "name": "timeRemainingToMaturity",
      "outputs": [
        {
          "internalType": "uint256",
          "name": "",
          "type": "uint256"
        }
      ],
      "stateMutability": "view",
      "type": "function"
    },
    {
      "inputs": [],
      "name": "tvl",
      "outputs": [
        {
          "internalType": "uint256",
          "name": "",
          "type": "uint256"
        }
      ],
      "stateMutability": "view",
      "type": "function"
    },
    {
      "inputs": [
        {
          "internalType": "uint256",
          "name": "",
          "type": "uint256"
        }
      ],
      "name": "uri",
      "outputs": [
        {
          "internalType": "string",
          "name": "",
          "type": "string"
        }
      ],
      "stateMutability": "view",
      "type": "function"
    },
    {
      "inputs": [
        {
          "internalType": "uint256",
          "name": "id",
          "type": "uint256"
        },
        {
          "internalType": "uint256",
          "name": "tokenAmount",
          "type": "uint256"
        }
      ],
      "name": "withdraw",
      "outputs": [],
      "stateMutability": "nonpayable",
      "type": "function"
    },
    {
      "inputs": [
        {
          "internalType": "uint256",
          "name": "id",
          "type": "uint256"
        }
      ],
      "name": "withdrawExcess",
      "outputs": [],
      "stateMutability": "nonpayable",
      "type": "function"
    }
  ],
  "bytecode": "0x60c060405260006003553480156200001657600080fd5b50604051620060ba380380620060ba83398181016040528101906200003c9190620002cd565b826200004e81620000c060201b60201c565b508073ffffffffffffffffffffffffffffffffffffffff1660808173ffffffffffffffffffffffffffffffffffffffff16815250508173ffffffffffffffffffffffffffffffffffffffff1660a08173ffffffffffffffffffffffffffffffffffffffff16815250505050506200067a565b8060029081620000d1919062000593565b5050565b6000604051905090565b600080fd5b600080fd5b600080fd5b600080fd5b6000601f19601f8301169050919050565b7f4e487b7100000000000000000000000000000000000000000000000000000000600052604160045260246000fd5b6200013e82620000f3565b810181811067ffffffffffffffff8211171562000160576200015f62000104565b5b80604052505050565b600062000175620000d5565b905062000183828262000133565b919050565b600067ffffffffffffffff821115620001a657620001a562000104565b5b620001b182620000f3565b9050602081019050919050565b60005b83811015620001de578082015181840152602081019050620001c1565b60008484015250505050565b600062000201620001fb8462000188565b62000169565b90508281526020810184848401111562000220576200021f620000ee565b5b6200022d848285620001be565b509392505050565b600082601f8301126200024d576200024c620000e9565b5b81516200025f848260208601620001ea565b91505092915050565b600073ffffffffffffffffffffffffffffffffffffffff82169050919050565b6000620002958262000268565b9050919050565b620002a78162000288565b8114620002b357600080fd5b50565b600081519050620002c7816200029c565b92915050565b600080600060608486031215620002e957620002e8620000df565b5b600084015167ffffffffffffffff8111156200030a5762000309620000e4565b5b620003188682870162000235565b93505060206200032b86828701620002b6565b92505060406200033e86828701620002b6565b9150509250925092565b600081519050919050565b7f4e487b7100000000000000000000000000000000000000000000000000000000600052602260045260246000fd5b600060028204905060018216806200039b57607f821691505b602082108103620003b157620003b062000353565b5b50919050565b60008190508160005260206000209050919050565b60006020601f8301049050919050565b600082821b905092915050565b6000600883026200041b7fffffffffffffffffffffffffffffffffffffffffffffffffffffffffffffffff82620003dc565b620004278683620003dc565b95508019841693508086168417925050509392505050565b6000819050919050565b6000819050919050565b6000620004746200046e62000468846200043f565b62000449565b6200043f565b9050919050565b6000819050919050565b620004908362000453565b620004a86200049f826200047b565b848454620003e9565b825550505050565b600090565b620004bf620004b0565b620004cc81848462000485565b505050565b5b81811015620004f457620004e8600082620004b5565b600181019050620004d2565b5050565b601f82111562000543576200050d81620003b7565b6200051884620003cc565b8101602085101562000528578190505b620005406200053785620003cc565b830182620004d1565b50505b505050565b600082821c905092915050565b6000620005686000198460080262000548565b1980831691505092915050565b600062000583838362000555565b9150826002028217905092915050565b6200059e8262000348565b67ffffffffffffffff811115620005ba57620005b962000104565b5b620005c6825462000382565b620005d3828285620004f8565b600060209050601f8311600181146200060b5760008415620005f6578287015190505b62000602858262000575565b86555062000672565b601f1984166200061b86620003b7565b60005b8281101562000645578489015182556001820191506020850194506020810190506200061e565b8683101562000665578489015162000661601f89168262000555565b8355505b6001600288020188555050505b505050505050565b60805160a0516159bf620006fb60003960008181610f12015281816115500152818161183101528181611cbd01528181611eff01528181611fe001528181612154015281816121fb01526123f0015260008181610d750152818161110001528181611ad7015281816120310152818161229a015261260e01526159bf6000f3fe608060405234801561001057600080fd5b50600436106102685760003560e01c806382afd23b11610151578063c0a6026c116100c3578063e755ddd711610087578063e755ddd714610858578063e985e9c514610874578063f0d8100a146108a4578063f23a6e61146108d4578063f242432a14610904578063fcbc669a1461092057610268565b8063c0a6026c146107b4578063c55dae63146107d0578063d3b7811b146107ee578063e2bbb1581461081e578063e5328e061461083a57610268565b8063932a8de011610115578063932a8de0146106ce5780639a3cee8e146106fe578063a22cb4651461071c578063a874302214610738578063abac75e114610754578063bc197c811461078457610268565b806382afd23b146105e757806388bdc083146106175780638c3526c2146106475780638da5cb5b146106805780638f0dbf771461069e57610268565b806339e3af9b116101ea5780636681b9fd116101ae5780636681b9fd146105015780636ff80d931461051f57806370876c981461054f57806377e2a08b1461056b5780637a41984b1461059b5780637cbc2373146105cb57610268565b806339e3af9b14610439578063441a3e70146104695780634e1273f414610485578063549493bb146104b55780636567dc4d146104e557610268565b80630e89341c116102315780630e89341c1461035d57806314f294931461038d5780632eb2c2d6146103bd5780632f3ad61f146103d95780633097afb81461040957610268565b8062fdd58e1461026d57806301ffc9a71461029d57806302159497146102cd57806308913ce8146102fd578063091490201461032d575b600080fd5b6102876004803603810190610282919061399f565b610950565b60405161029491906139ee565b60405180910390f35b6102b760048036038101906102b29190613a61565b610a18565b6040516102c49190613aa9565b60405180910390f35b6102e760048036038101906102e29190613ac4565b610afa565b6040516102f491906139ee565b60405180910390f35b61031760048036038101906103129190613ac4565b610b17565b60405161032491906139ee565b60405180910390f35b61034760048036038101906103429190613ac4565b610b42565b6040516103549190613aa9565b60405180910390f35b61037760048036038101906103729190613ac4565b610b78565b6040516103849190613b81565b60405180910390f35b6103a760048036038101906103a29190613ac4565b610c0c565b6040516103b491906139ee565b60405180910390f35b6103d760048036038101906103d29190613da0565b610c4a565b005b6103f360048036038101906103ee9190613ac4565b610ceb565b6040516104009190613aa9565b60405180910390f35b610423600480360381019061041e9190613ac4565b610d15565b6040516104309190613aa9565b60405180910390f35b610453600480360381019061044e9190613ac4565b610d4e565b6040516104609190613aa9565b60405180910390f35b610483600480360381019061047e9190613e6f565b610d73565b005b61049f600480360381019061049a9190613f72565b610fb3565b6040516104ac91906140a8565b60405180910390f35b6104cf60048036038101906104ca9190613ac4565b6110cc565b6040516104dc9190613aa9565b60405180910390f35b6104ff60048036038101906104fa9190613ac4565b6110fe565b005b6105096112cd565b60405161051691906139ee565b60405180910390f35b61053960048036038101906105349190613ac4565b6112d7565b6040516105469190613aa9565b60405180910390f35b61056960048036038101906105649190613e6f565b61130f565b005b61058560048036038101906105809190613ac4565b6115f5565b60405161059291906139ee565b60405180910390f35b6105b560048036038101906105b09190613ac4565b61164e565b6040516105c29190613aa9565b60405180910390f35b6105e560048036038101906105e09190613e6f565b611678565b005b61060160048036038101906105fc9190613ac4565b611911565b60405161060e9190613aa9565b60405180910390f35b610631600480360381019061062c9190613ac4565b611934565b60405161063e91906139ee565b60405180910390f35b610661600480360381019061065c9190613ac4565b61195f565b6040516106779a999897969594939291906140ca565b60405180910390f35b610688611ad3565b604051610695919061417c565b60405180910390f35b6106b860048036038101906106b39190613ac4565b611afb565b6040516106c59190613aa9565b60405180910390f35b6106e860048036038101906106e39190613ac4565b611b1d565b6040516106f591906139ee565b60405180910390f35b610706611b5b565b60405161071391906139ee565b60405180910390f35b610736600480360381019061073191906141c3565b611b65565b005b610752600480360381019061074d9190613ac4565b611b7b565b005b61076e60048036038101906107699190613ac4565b611da1565b60405161077b91906139ee565b60405180910390f35b61079e60048036038101906107999190613da0565b611dc1565b6040516107ab9190614212565b60405180910390f35b6107ce60048036038101906107c99190613ac4565b611dd6565b005b6107d8611fdc565b6040516107e5919061417c565b60405180910390f35b61080860048036038101906108039190613ac4565b612004565b60405161081591906139ee565b60405180910390f35b61083860048036038101906108339190613e6f565b61202f565b005b6108426121f7565b60405161084f91906139ee565b60405180910390f35b610872600480360381019061086d9190613ac4565b612298565b005b61088e6004803603810190610889919061422d565b6124a3565b60405161089b9190613aa9565b60405180910390f35b6108be60048036038101906108b99190613ac4565b612537565b6040516108cb91906139ee565b60405180910390f35b6108ee60048036038101906108e9919061426d565b612554565b6040516108fb9190614212565b60405180910390f35b61091e6004803603810190610919919061426d565b612569565b005b61093a600480360381019061093591906143a5565b61260a565b60405161094791906139ee565b60405180910390f35b60008073ffffffffffffffffffffffffffffffffffffffff168373ffffffffffffffffffffffffffffffffffffffff16036109c0576040517f08c379a00000000000000000000000000000000000000000000000000000000081526004016109b7906144d5565b60405180910390fd5b60008083815260200190815260200160002060008473ffffffffffffffffffffffffffffffffffffffff1673ffffffffffffffffffffffffffffffffffffffff16815260200190815260200160002054905092915050565b60007fd9b67a26000000000000000000000000000000000000000000000000000000007bffffffffffffffffffffffffffffffffffffffffffffffffffffffff1916827bffffffffffffffffffffffffffffffffffffffffffffffffffffffff19161480610ae357507f0e89341c000000000000000000000000000000000000000000000000000000007bffffffffffffffffffffffffffffffffffffffffffffffffffffffff1916827bffffffffffffffffffffffffffffffffffffffffffffffffffffffff1916145b80610af35750610af28261290c565b5b9050919050565b600060086000838152602001908152602001600020549050919050565b6000600560008381526020019081526020016000206002015442610b3b9190614524565b9050919050565b60006005600083815260200190815260200160002060080154600660008481526020019081526020016000205410159050919050565b606060028054610b8790614587565b80601f0160208091040260200160405190810160405280929190818152602001828054610bb390614587565b8015610c005780601f10610bd557610100808354040283529160200191610c00565b820191906000526020600020905b815481529060010190602001808311610be357829003601f168201915b50505050509050919050565b600060066000838152602001908152602001600020546005600084815260200190815260200160002060010154610c4391906145b8565b9050919050565b610c52612976565b73ffffffffffffffffffffffffffffffffffffffff168573ffffffffffffffffffffffffffffffffffffffff161480610c985750610c9785610c92612976565b6124a3565b5b610cd7576040517f08c379a0000000000000000000000000000000000000000000000000000000008152600401610cce9061466c565b60405180910390fd5b610ce4858585858561297e565b5050505050565b6000600b600083815260200190815260200160002060009054906101000a900460ff169050919050565b6000610d2082611afb565b8015610d475750610d30826115f5565b600860008481526020019081526020016000205410155b9050919050565b6000610d5982611911565b158015610d6c5750610d6a82610b42565b155b9050919050565b7f000000000000000000000000000000000000000000000000000000000000000073ffffffffffffffffffffffffffffffffffffffff163373ffffffffffffffffffffffffffffffffffffffff1614610e01576040517f08c379a0000000000000000000000000000000000000000000000000000000008152600401610df8906146d8565b60405180910390fd5b610e0a82611911565b158015610e1d5750610e1b82610d4e565b155b8015610e2f5750610e2d8261164e565b155b8015610e515750610e3f82610ceb565b80610e4f5750610e4e826112d7565b5b155b610e90576040517f08c379a0000000000000000000000000000000000000000000000000000000008152600401610e8790614744565b60405180910390fd5b6008600083815260200190815260200160002054811115610ee6576040517f08c379a0000000000000000000000000000000000000000000000000000000008152600401610edd906147b0565b60405180910390fd5b80600860008481526020019081526020016000206000828254610f099190614524565b925050819055507f000000000000000000000000000000000000000000000000000000000000000073ffffffffffffffffffffffffffffffffffffffff1663a9059cbb33836040518363ffffffff1660e01b8152600401610f6b9291906147d0565b6020604051808303816000875af1158015610f8a573d6000803e3d6000fd5b505050506040513d601f19601f82011682018060405250810190610fae919061480e565b505050565b60608151835114610ff9576040517f08c379a0000000000000000000000000000000000000000000000000000000008152600401610ff0906148ad565b60405180910390fd5b6000835167ffffffffffffffff81111561101657611015613ba8565b5b6040519080825280602002602001820160405280156110445781602001602082028036833780820191505090505b50905060005b84518110156110c157611091858281518110611069576110686148cd565b5b6020026020010151858381518110611084576110836148cd565b5b6020026020010151610950565b8282815181106110a4576110a36148cd565b5b602002602001018181525050806110ba906148fc565b905061104a565b508091505092915050565b600060066000838152602001908152602001600020546007600084815260200190815260200160002054149050919050565b7f000000000000000000000000000000000000000000000000000000000000000073ffffffffffffffffffffffffffffffffffffffff163373ffffffffffffffffffffffffffffffffffffffff161461118c576040517f08c379a0000000000000000000000000000000000000000000000000000000008152600401611183906146d8565b60405180910390fd5b6111958161164e565b1580156111a857506111a681610ceb565b155b80156111ce57506111b8816115f5565b6008600083815260200190815260200160002054105b61120d576040517f08c379a000000000000000000000000000000000000000000000000000000000815260040161120490614990565b60405180910390fd5b60006008600083815260200190815260200160002054905060066000838152602001908152602001600020548161124491906149df565b60096000848152602001908152602001600020819055506001600b600084815260200190815260200160002060006101000a81548160ff021916908315150217905550817fc4f17a65d54873d57229ea5f59c4ddec592d095bc17581372676402c8228b9cd6112b2846115f5565b836040516112c1929190614a10565b60405180910390a25050565b6000600454905090565b60006112e282611afb565b801561130857506112f2826115f5565b6008600084815260200190815260200160002054105b9050919050565b61131882611911565b611357576040517f08c379a000000000000000000000000000000000000000000000000000000000815260040161134e90614a85565b60405180910390fd5b8061136183611b1d565b10156113a2576040517f08c379a000000000000000000000000000000000000000000000000000000000815260040161139990614af1565b60405180910390fd5b600060056000848152602001908152602001600020604051806101400160405290816000820180546113d390614587565b80601f01602080910402602001604051908101604052809291908181526020018280546113ff90614587565b801561144c5780601f106114215761010080835404028352916020019161144c565b820191906000526020600020905b81548152906001019060200180831161142f57829003601f168201915b505050505081526020016001820154815260200160028201548152602001600382015481526020016004820154815260200160058201548152602001600682015481526020016007820154815260200160088201548152602001600982015481525050905060008160200151836114c391906145b8565b9050826006600086815260200190815260200160002060008282546114e89190614b11565b92505081905550806008600086815260200190815260200160002060008282546115129190614b11565b92505081905550806004600082825461152b9190614b11565b9250508190555061154e3033868660405180602001604052806000815250612569565b7f000000000000000000000000000000000000000000000000000000000000000073ffffffffffffffffffffffffffffffffffffffff166323b872dd3330846040518463ffffffff1660e01b81526004016115ab93929190614b45565b6020604051808303816000875af11580156115ca573d6000803e3d6000fd5b505050506040513d601f19601f820116820180604052508101906115ee919061480e565b5050505050565b6000670de0b6b3a7640000600560008481526020019081526020016000206009015461162084610c0c565b61162a91906145b8565b61163491906149df565b61163d83610c0c565b6116479190614b11565b9050919050565b6000600c600083815260200190815260200160002060009054906101000a900460ff169050919050565b806116833384610950565b10156116c4576040517f08c379a00000000000000000000000000000000000000000000000000000000081526004016116bb90614af1565b60405180910390fd5b6116cd8261164e565b806116dd57506116dc82610d4e565b5b806116ed57506116ec82610ceb565b5b61172c576040517f08c379a000000000000000000000000000000000000000000000000000000000815260040161172390614bc8565b60405180910390fd5b6000806117388461164e565b1561175c57600a6000858152602001908152602001600020549150600090506117c0565b61176584610d4e565b1561178c5760056000858152602001908152602001600020600101549150600190506117bf565b61179584610ceb565b156117b95760096000858152602001908152602001600020549150600290506117be565b600080fd5b5b5b6117cb338585612c9f565b826007600086815260200190815260200160002060008282546117ee9190614b11565b925050819055506000828461180391906145b8565b9050806008600087815260200190815260200160002060008282546118289190614524565b925050819055507f000000000000000000000000000000000000000000000000000000000000000073ffffffffffffffffffffffffffffffffffffffff1663a9059cbb33836040518363ffffffff1660e01b815260040161188a9291906147d0565b6020604051808303816000875af11580156118a9573d6000803e3d6000fd5b505050506040513d601f19601f820116820180604052508101906118cd919061480e565b50847fa5851b0172fdafd3dafe0e52ce051747548a4c642a2f22793c01faf228e1306233868560405161190293929190614be8565b60405180910390a25050505050565b600060056000838152602001908152602001600020600401544211159050919050565b60004260056000848152602001908152602001600020600401546119589190614524565b9050919050565b6060600080600080600080600080600080600560008d81526020019081526020016000206040518061014001604052908160008201805461199f90614587565b80601f01602080910402602001604051908101604052809291908181526020018280546119cb90614587565b8015611a185780601f106119ed57610100808354040283529160200191611a18565b820191906000526020600020905b8154815290600101906020018083116119fb57829003601f168201915b5050505050815260200160018201548152602001600282015481526020016003820154815260200160048201548152602001600582015481526020016006820154815260200160078201548152602001600882015481526020016009820154815250509050806000015181602001518260400151836060015184608001518560a001518660c001518760e001518861010001518961012001519a509a509a509a509a509a509a509a509a509a50509193959799509193959799565b60007f0000000000000000000000000000000000000000000000000000000000000000905090565b6000600560008381526020019081526020016000206003015442119050919050565b600060066000838152602001908152602001600020546005600084815260200190815260200160002060070154611b549190614524565b9050919050565b6000600354905090565b611b77611b70612976565b8383612ee5565b5050565b611b848161164e565b158015611b975750611b9581610ceb565b155b8015611ba85750611ba7816112d7565b5b611be7576040517f08c379a0000000000000000000000000000000000000000000000000000000008152600401611bde90614c6b565b60405180910390fd5b60006103e86008600084815260200190815260200160002054611c0a91906149df565b90506000816008600085815260200190815260200160002054611c2d9190614524565b9050600660008481526020019081526020016000205481611c4e91906149df565b600960008581526020019081526020016000208190555081600860008581526020019081526020016000206000828254611c889190614524565b925050819055506001600b600085815260200190815260200160002060006101000a81548160ff0219169083151502179055507f000000000000000000000000000000000000000000000000000000000000000073ffffffffffffffffffffffffffffffffffffffff1663a9059cbb33846040518363ffffffff1660e01b8152600401611d169291906147d0565b6020604051808303816000875af1158015611d35573d6000803e3d6000fd5b505050506040513d601f19601f82011682018060405250810190611d59919061480e565b50827fc4f17a65d54873d57229ea5f59c4ddec592d095bc17581372676402c8228b9cd611d85856115f5565b83604051611d94929190614a10565b60405180910390a2505050565b600060056000838152602001908152602001600020600901549050919050565b600063bc197c8160e01b905095945050505050565b611ddf81610ceb565b158015611df25750611df08161164e565b155b8015611e035750611e0281610d15565b5b611e42576040517f08c379a0000000000000000000000000000000000000000000000000000000008152600401611e3990614cd7565b60405180910390fd5b6000611e4d826115f5565b905060006103e882611e5f91906149df565b905060008183611e6f9190614524565b9050600660008581526020019081526020016000205481611e9091906149df565b600a60008681526020019081526020016000208190555081600860008681526020019081526020016000206000828254611eca9190614524565b925050819055506001600c600086815260200190815260200160002060006101000a81548160ff0219169083151502179055507f000000000000000000000000000000000000000000000000000000000000000073ffffffffffffffffffffffffffffffffffffffff1663a9059cbb33846040518363ffffffff1660e01b8152600401611f589291906147d0565b6020604051808303816000875af1158015611f77573d6000803e3d6000fd5b505050506040513d601f19601f82011682018060405250810190611f9b919061480e565b50837fac2eeaf45d1b75aed6b3285cda3efb3c382cce02ba313558bbb90be57f8843e48483604051611fce929190614a10565b60405180910390a250505050565b60007f0000000000000000000000000000000000000000000000000000000000000000905090565b60004260056000848152602001908152602001600020600301546120289190614524565b9050919050565b7f000000000000000000000000000000000000000000000000000000000000000073ffffffffffffffffffffffffffffffffffffffff163373ffffffffffffffffffffffffffffffffffffffff16146120bd576040517f08c379a00000000000000000000000000000000000000000000000000000000081526004016120b4906146d8565b60405180910390fd5b6120c682610ceb565b806120d657506120d5826112d7565b5b1580156120e957506120e78261164e565b155b612128576040517f08c379a000000000000000000000000000000000000000000000000000000000815260040161211f90614d43565b60405180910390fd5b8060086000848152602001908152602001600020600082825461214b9190614b11565b925050819055507f000000000000000000000000000000000000000000000000000000000000000073ffffffffffffffffffffffffffffffffffffffff166323b872dd3330846040518463ffffffff1660e01b81526004016121af93929190614b45565b6020604051808303816000875af11580156121ce573d6000803e3d6000fd5b505050506040513d601f19601f820116820180604052508101906121f2919061480e565b505050565b60007f000000000000000000000000000000000000000000000000000000000000000073ffffffffffffffffffffffffffffffffffffffff166370a08231306040518263ffffffff1660e01b8152600401612252919061417c565b602060405180830381865afa15801561226f573d6000803e3d6000fd5b505050506040513d601f19601f820116820180604052508101906122939190614d78565b905090565b7f000000000000000000000000000000000000000000000000000000000000000073ffffffffffffffffffffffffffffffffffffffff163373ffffffffffffffffffffffffffffffffffffffff1614612326576040517f08c379a000000000000000000000000000000000000000000000000000000000815260040161231d906146d8565b60405180910390fd5b61232f8161164e565b8015612340575061233f816110cc565b5b61237f576040517f08c379a000000000000000000000000000000000000000000000000000000000815260040161237690614744565b60405180910390fd5b60006008600083815260200190815260200160002054116123d5576040517f08c379a00000000000000000000000000000000000000000000000000000000081526004016123cc90614df1565b60405180910390fd5b600060086000838152602001908152602001600020819055507f000000000000000000000000000000000000000000000000000000000000000073ffffffffffffffffffffffffffffffffffffffff1663a9059cbb3360086000858152602001908152602001600020546040518363ffffffff1660e01b815260040161245c9291906147d0565b6020604051808303816000875af115801561247b573d6000803e3d6000fd5b505050506040513d601f19601f8201168201806040525081019061249f919061480e565b5050565b6000600160008473ffffffffffffffffffffffffffffffffffffffff1673ffffffffffffffffffffffffffffffffffffffff16815260200190815260200160002060008373ffffffffffffffffffffffffffffffffffffffff1673ffffffffffffffffffffffffffffffffffffffff16815260200190815260200160002060009054906101000a900460ff16905092915050565b600060086000838152602001908152602001600020549050919050565b600063f23a6e6160e01b905095945050505050565b612571612976565b73ffffffffffffffffffffffffffffffffffffffff168573ffffffffffffffffffffffffffffffffffffffff1614806125b757506125b6856125b1612976565b6124a3565b5b6125f6576040517f08c379a00000000000000000000000000000000000000000000000000000000081526004016125ed9061466c565b60405180910390fd5b6126038585858585613051565b5050505050565b60007f000000000000000000000000000000000000000000000000000000000000000073ffffffffffffffffffffffffffffffffffffffff163373ffffffffffffffffffffffffffffffffffffffff161461269a576040517f08c379a0000000000000000000000000000000000000000000000000000000008152600401612691906146d8565b60405180910390fd5b8787106126dc576040517f08c379a00000000000000000000000000000000000000000000000000000000081526004016126d390614e5d565b60405180910390fd5b60b4841015612720576040517f08c379a000000000000000000000000000000000000000000000000000000000815260040161271790614ec9565b60405180910390fd5b6007831115612764576040517f08c379a000000000000000000000000000000000000000000000000000000000815260040161275b90614f35565b60405180910390fd5b60016003546127739190614b11565b90506001600360008282546127889190614b11565b925050819055506127aa30828a604051806020016040528060008152506132ec565b60405180610140016040528086815260200187815260200142815260200162015180866127d791906145b8565b426127e29190614b11565b815260200162015180856127f691906145b8565b426128019190614b11565b81526020018481526020018581526020018981526020018881526020018381525060056000838152602001908152602001600020600082015181600001908161284a9190615101565b506020820151816001015560408201518160020155606082015181600301556080820151816004015560a0820151816005015560c0820151816006015560e0820151816007015561010082015181600801556101208201518160090155905050807ff73e436c94925e1e8b2f0b16de0a2c56aea7fb27878f7815811bc05bc6c335e889888562015180896128de91906145b8565b426128e99190614b11565b6040516128f994939291906151d3565b60405180910390a2979650505050505050565b60007f01ffc9a7000000000000000000000000000000000000000000000000000000007bffffffffffffffffffffffffffffffffffffffffffffffffffffffff1916827bffffffffffffffffffffffffffffffffffffffffffffffffffffffff1916149050919050565b600033905090565b81518351146129c2576040517f08c379a00000000000000000000000000000000000000000000000000000000081526004016129b99061528a565b60405180910390fd5b600073ffffffffffffffffffffffffffffffffffffffff168473ffffffffffffffffffffffffffffffffffffffff1603612a31576040517f08c379a0000000000000000000000000000000000000000000000000000000008152600401612a289061531c565b60405180910390fd5b6000612a3b612976565b9050612a4b81878787878761349c565b60005b8451811015612bfc576000858281518110612a6c57612a6b6148cd565b5b602002602001015190506000858381518110612a8b57612a8a6148cd565b5b60200260200101519050600080600084815260200190815260200160002060008b73ffffffffffffffffffffffffffffffffffffffff1673ffffffffffffffffffffffffffffffffffffffff16815260200190815260200160002054905081811015612b2c576040517f08c379a0000000000000000000000000000000000000000000000000000000008152600401612b23906153ae565b60405180910390fd5b81810360008085815260200190815260200160002060008c73ffffffffffffffffffffffffffffffffffffffff1673ffffffffffffffffffffffffffffffffffffffff168152602001908152602001600020819055508160008085815260200190815260200160002060008b73ffffffffffffffffffffffffffffffffffffffff1673ffffffffffffffffffffffffffffffffffffffff1681526020019081526020016000206000828254612be19190614b11565b9250508190555050505080612bf5906148fc565b9050612a4e565b508473ffffffffffffffffffffffffffffffffffffffff168673ffffffffffffffffffffffffffffffffffffffff168273ffffffffffffffffffffffffffffffffffffffff167f4a39dc06d4c0dbc64b70af90fd698a233a518aa5d07e595d983b8c0526c8f7fb8787604051612c739291906153ce565b60405180910390a4612c898187878787876134a4565b612c978187878787876134ac565b505050505050565b600073ffffffffffffffffffffffffffffffffffffffff168373ffffffffffffffffffffffffffffffffffffffff1603612d0e576040517f08c379a0000000000000000000000000000000000000000000000000000000008152600401612d0590615477565b60405180910390fd5b6000612d18612976565b90506000612d2584613683565b90506000612d3284613683565b9050612d528387600085856040518060200160405280600081525061349c565b600080600087815260200190815260200160002060008873ffffffffffffffffffffffffffffffffffffffff1673ffffffffffffffffffffffffffffffffffffffff16815260200190815260200160002054905084811015612de9576040517f08c379a0000000000000000000000000000000000000000000000000000000008152600401612de090615509565b60405180910390fd5b84810360008088815260200190815260200160002060008973ffffffffffffffffffffffffffffffffffffffff1673ffffffffffffffffffffffffffffffffffffffff16815260200190815260200160002081905550600073ffffffffffffffffffffffffffffffffffffffff168773ffffffffffffffffffffffffffffffffffffffff168573ffffffffffffffffffffffffffffffffffffffff167fc3d58168c5ae7397731d063d5bbf3d657854427343f4c083240f7aacaa2d0f628989604051612eb6929190614a10565b60405180910390a4612edc848860008686604051806020016040528060008152506134a4565b50505050505050565b8173ffffffffffffffffffffffffffffffffffffffff168373ffffffffffffffffffffffffffffffffffffffff1603612f53576040517f08c379a0000000000000000000000000000000000000000000000000000000008152600401612f4a9061559b565b60405180910390fd5b80600160008573ffffffffffffffffffffffffffffffffffffffff1673ffffffffffffffffffffffffffffffffffffffff16815260200190815260200160002060008473ffffffffffffffffffffffffffffffffffffffff1673ffffffffffffffffffffffffffffffffffffffff16815260200190815260200160002060006101000a81548160ff0219169083151502179055508173ffffffffffffffffffffffffffffffffffffffff168373ffffffffffffffffffffffffffffffffffffffff167f17307eab39ab6107e8899845ad3d59bd9653f200f220920489ca2b5937696c31836040516130449190613aa9565b60405180910390a3505050565b600073ffffffffffffffffffffffffffffffffffffffff168473ffffffffffffffffffffffffffffffffffffffff16036130c0576040517f08c379a00000000000000000000000000000000000000000000000000000000081526004016130b79061531c565b60405180910390fd5b60006130ca612976565b905060006130d785613683565b905060006130e485613683565b90506130f483898985858961349c565b600080600088815260200190815260200160002060008a73ffffffffffffffffffffffffffffffffffffffff1673ffffffffffffffffffffffffffffffffffffffff1681526020019081526020016000205490508581101561318b576040517f08c379a0000000000000000000000000000000000000000000000000000000008152600401613182906153ae565b60405180910390fd5b85810360008089815260200190815260200160002060008b73ffffffffffffffffffffffffffffffffffffffff1673ffffffffffffffffffffffffffffffffffffffff168152602001908152602001600020819055508560008089815260200190815260200160002060008a73ffffffffffffffffffffffffffffffffffffffff1673ffffffffffffffffffffffffffffffffffffffff16815260200190815260200160002060008282546132409190614b11565b925050819055508773ffffffffffffffffffffffffffffffffffffffff168973ffffffffffffffffffffffffffffffffffffffff168573ffffffffffffffffffffffffffffffffffffffff167fc3d58168c5ae7397731d063d5bbf3d657854427343f4c083240f7aacaa2d0f628a8a6040516132bd929190614a10565b60405180910390a46132d3848a8a86868a6134a4565b6132e1848a8a8a8a8a6136fd565b505050505050505050565b600073ffffffffffffffffffffffffffffffffffffffff168473ffffffffffffffffffffffffffffffffffffffff160361335b576040517f08c379a00000000000000000000000000000000000000000000000000000000081526004016133529061562d565b60405180910390fd5b6000613365612976565b9050600061337285613683565b9050600061337f85613683565b90506133908360008985858961349c565b8460008088815260200190815260200160002060008973ffffffffffffffffffffffffffffffffffffffff1673ffffffffffffffffffffffffffffffffffffffff16815260200190815260200160002060008282546133ef9190614b11565b925050819055508673ffffffffffffffffffffffffffffffffffffffff16600073ffffffffffffffffffffffffffffffffffffffff168473ffffffffffffffffffffffffffffffffffffffff167fc3d58168c5ae7397731d063d5bbf3d657854427343f4c083240f7aacaa2d0f62898960405161346d929190614a10565b60405180910390a4613484836000898585896134a4565b613493836000898989896136fd565b50505050505050565b505050505050565b505050505050565b6134cb8473ffffffffffffffffffffffffffffffffffffffff166138d4565b1561367b578373ffffffffffffffffffffffffffffffffffffffff1663bc197c8187878686866040518663ffffffff1660e01b81526004016135119594939291906156a2565b6020604051808303816000875af192505050801561354d57506040513d601f19601f8201168201806040525081019061354a919061571f565b60015b6135f257613559615759565b806308c379a0036135b5575061356d61577b565b8061357857506135b7565b806040517f08c379a00000000000000000000000000000000000000000000000000000000081526004016135ac9190613b81565b60405180910390fd5b505b6040517f08c379a00000000000000000000000000000000000000000000000000000000081526004016135e99061587d565b60405180910390fd5b63bc197c8160e01b7bffffffffffffffffffffffffffffffffffffffffffffffffffffffff1916817bffffffffffffffffffffffffffffffffffffffffffffffffffffffff191614613679576040517f08c379a00000000000000000000000000000000000000000000000000000000081526004016136709061590f565b60405180910390fd5b505b505050505050565b60606000600167ffffffffffffffff8111156136a2576136a1613ba8565b5b6040519080825280602002602001820160405280156136d05781602001602082028036833780820191505090505b50905082816000815181106136e8576136e76148cd565b5b60200260200101818152505080915050919050565b61371c8473ffffffffffffffffffffffffffffffffffffffff166138d4565b156138cc578373ffffffffffffffffffffffffffffffffffffffff1663f23a6e6187878686866040518663ffffffff1660e01b815260040161376295949392919061592f565b6020604051808303816000875af192505050801561379e57506040513d601f19601f8201168201806040525081019061379b919061571f565b60015b613843576137aa615759565b806308c379a00361380657506137be61577b565b806137c95750613808565b806040517f08c379a00000000000000000000000000000000000000000000000000000000081526004016137fd9190613b81565b60405180910390fd5b505b6040517f08c379a000000000000000000000000000000000000000000000000000000000815260040161383a9061587d565b60405180910390fd5b63f23a6e6160e01b7bffffffffffffffffffffffffffffffffffffffffffffffffffffffff1916817bffffffffffffffffffffffffffffffffffffffffffffffffffffffff1916146138ca576040517f08c379a00000000000000000000000000000000000000000000000000000000081526004016138c19061590f565b60405180910390fd5b505b505050505050565b6000808273ffffffffffffffffffffffffffffffffffffffff163b119050919050565b6000604051905090565b600080fd5b600080fd5b600073ffffffffffffffffffffffffffffffffffffffff82169050919050565b60006139368261390b565b9050919050565b6139468161392b565b811461395157600080fd5b50565b6000813590506139638161393d565b92915050565b6000819050919050565b61397c81613969565b811461398757600080fd5b50565b60008135905061399981613973565b92915050565b600080604083850312156139b6576139b5613901565b5b60006139c485828601613954565b92505060206139d58582860161398a565b9150509250929050565b6139e881613969565b82525050565b6000602082019050613a0360008301846139df565b92915050565b60007fffffffff0000000000000000000000000000000000000000000000000000000082169050919050565b613a3e81613a09565b8114613a4957600080fd5b50565b600081359050613a5b81613a35565b92915050565b600060208284031215613a7757613a76613901565b5b6000613a8584828501613a4c565b91505092915050565b60008115159050919050565b613aa381613a8e565b82525050565b6000602082019050613abe6000830184613a9a565b92915050565b600060208284031215613ada57613ad9613901565b5b6000613ae88482850161398a565b91505092915050565b600081519050919050565b600082825260208201905092915050565b60005b83811015613b2b578082015181840152602081019050613b10565b60008484015250505050565b6000601f19601f8301169050919050565b6000613b5382613af1565b613b5d8185613afc565b9350613b6d818560208601613b0d565b613b7681613b37565b840191505092915050565b60006020820190508181036000830152613b9b8184613b48565b905092915050565b600080fd5b7f4e487b7100000000000000000000000000000000000000000000000000000000600052604160045260246000fd5b613be082613b37565b810181811067ffffffffffffffff82111715613bff57613bfe613ba8565b5b80604052505050565b6000613c126138f7565b9050613c1e8282613bd7565b919050565b600067ffffffffffffffff821115613c3e57613c3d613ba8565b5b602082029050602081019050919050565b600080fd5b6000613c67613c6284613c23565b613c08565b90508083825260208201905060208402830185811115613c8a57613c89613c4f565b5b835b81811015613cb35780613c9f888261398a565b845260208401935050602081019050613c8c565b5050509392505050565b600082601f830112613cd257613cd1613ba3565b5b8135613ce2848260208601613c54565b91505092915050565b600080fd5b600067ffffffffffffffff821115613d0b57613d0a613ba8565b5b613d1482613b37565b9050602081019050919050565b82818337600083830152505050565b6000613d43613d3e84613cf0565b613c08565b905082815260208101848484011115613d5f57613d5e613ceb565b5b613d6a848285613d21565b509392505050565b600082601f830112613d8757613d86613ba3565b5b8135613d97848260208601613d30565b91505092915050565b600080600080600060a08688031215613dbc57613dbb613901565b5b6000613dca88828901613954565b9550506020613ddb88828901613954565b945050604086013567ffffffffffffffff811115613dfc57613dfb613906565b5b613e0888828901613cbd565b935050606086013567ffffffffffffffff811115613e2957613e28613906565b5b613e3588828901613cbd565b925050608086013567ffffffffffffffff811115613e5657613e55613906565b5b613e6288828901613d72565b9150509295509295909350565b60008060408385031215613e8657613e85613901565b5b6000613e948582860161398a565b9250506020613ea58582860161398a565b9150509250929050565b600067ffffffffffffffff821115613eca57613ec9613ba8565b5b602082029050602081019050919050565b6000613eee613ee984613eaf565b613c08565b90508083825260208201905060208402830185811115613f1157613f10613c4f565b5b835b81811015613f3a5780613f268882613954565b845260208401935050602081019050613f13565b5050509392505050565b600082601f830112613f5957613f58613ba3565b5b8135613f69848260208601613edb565b91505092915050565b60008060408385031215613f8957613f88613901565b5b600083013567ffffffffffffffff811115613fa757613fa6613906565b5b613fb385828601613f44565b925050602083013567ffffffffffffffff811115613fd457613fd3613906565b5b613fe085828601613cbd565b9150509250929050565b600081519050919050565b600082825260208201905092915050565b6000819050602082019050919050565b61401f81613969565b82525050565b60006140318383614016565b60208301905092915050565b6000602082019050919050565b600061405582613fea565b61405f8185613ff5565b935061406a83614006565b8060005b8381101561409b5781516140828882614025565b975061408d8361403d565b92505060018101905061406e565b5085935050505092915050565b600060208201905081810360008301526140c2818461404a565b905092915050565b60006101408201905081810360008301526140e5818d613b48565b90506140f4602083018c6139df565b614101604083018b6139df565b61410e606083018a6139df565b61411b60808301896139df565b61412860a08301886139df565b61413560c08301876139df565b61414260e08301866139df565b6141506101008301856139df565b61415e6101208301846139df565b9b9a5050505050505050505050565b6141768161392b565b82525050565b6000602082019050614191600083018461416d565b92915050565b6141a081613a8e565b81146141ab57600080fd5b50565b6000813590506141bd81614197565b92915050565b600080604083850312156141da576141d9613901565b5b60006141e885828601613954565b92505060206141f9858286016141ae565b9150509250929050565b61420c81613a09565b82525050565b60006020820190506142276000830184614203565b92915050565b6000806040838503121561424457614243613901565b5b600061425285828601613954565b925050602061426385828601613954565b9150509250929050565b600080600080600060a0868803121561428957614288613901565b5b600061429788828901613954565b95505060206142a888828901613954565b94505060406142b98882890161398a565b93505060606142ca8882890161398a565b925050608086013567ffffffffffffffff8111156142eb576142ea613906565b5b6142f788828901613d72565b9150509295509295909350565b600067ffffffffffffffff82111561431f5761431e613ba8565b5b61432882613b37565b9050602081019050919050565b600061434861434384614304565b613c08565b90508281526020810184848401111561436457614363613ceb565b5b61436f848285613d21565b509392505050565b600082601f83011261438c5761438b613ba3565b5b813561439c848260208601614335565b91505092915050565b600080600080600080600060e0888a0312156143c4576143c3613901565b5b60006143d28a828b0161398a565b97505060206143e38a828b0161398a565b96505060406143f48a828b0161398a565b955050606088013567ffffffffffffffff81111561441557614414613906565b5b6144218a828b01614377565b94505060806144328a828b0161398a565b93505060a06144438a828b0161398a565b92505060c06144548a828b0161398a565b91505092959891949750929550565b7f455243313135353a2061646472657373207a65726f206973206e6f742061207660008201527f616c6964206f776e657200000000000000000000000000000000000000000000602082015250565b60006144bf602a83613afc565b91506144ca82614463565b604082019050919050565b600060208201905081810360008301526144ee816144b2565b9050919050565b7f4e487b7100000000000000000000000000000000000000000000000000000000600052601160045260246000fd5b600061452f82613969565b915061453a83613969565b9250828203905081811115614552576145516144f5565b5b92915050565b7f4e487b7100000000000000000000000000000000000000000000000000000000600052602260045260246000fd5b6000600282049050600182168061459f57607f821691505b6020821081036145b2576145b1614558565b5b50919050565b60006145c382613969565b91506145ce83613969565b92508282026145dc81613969565b915082820484148315176145f3576145f26144f5565b5b5092915050565b7f455243313135353a2063616c6c6572206973206e6f7420746f6b656e206f776e60008201527f6572206f7220617070726f766564000000000000000000000000000000000000602082015250565b6000614656602e83613afc565b9150614661826145fa565b604082019050919050565b6000602082019050818103600083015261468581614649565b9050919050565b7f4e544f0000000000000000000000000000000000000000000000000000000000600082015250565b60006146c2600383613afc565b91506146cd8261468c565b602082019050919050565b600060208201905081810360008301526146f1816146b5565b9050919050565b7f574e410000000000000000000000000000000000000000000000000000000000600082015250565b600061472e600383613afc565b9150614739826146f8565b602082019050919050565b6000602082019050818103600083015261475d81614721565b9050919050565b7f5741450000000000000000000000000000000000000000000000000000000000600082015250565b600061479a600383613afc565b91506147a582614764565b602082019050919050565b600060208201905081810360008301526147c98161478d565b9050919050565b60006040820190506147e5600083018561416d565b6147f260208301846139df565b9392505050565b60008151905061480881614197565b92915050565b60006020828403121561482457614823613901565b5b6000614832848285016147f9565b91505092915050565b7f455243313135353a206163636f756e747320616e6420696473206c656e67746860008201527f206d69736d617463680000000000000000000000000000000000000000000000602082015250565b6000614897602983613afc565b91506148a28261483b565b604082019050919050565b600060208201905081810360008301526148c68161488a565b9050919050565b7f4e487b7100000000000000000000000000000000000000000000000000000000600052603260045260246000fd5b600061490782613969565b91507fffffffffffffffffffffffffffffffffffffffffffffffffffffffffffffffff8203614939576149386144f5565b5b600182019050919050565b7f504d444e41000000000000000000000000000000000000000000000000000000600082015250565b600061497a600583613afc565b915061498582614944565b602082019050919050565b600060208201905081810360008301526149a98161496d565b9050919050565b7f4e487b7100000000000000000000000000000000000000000000000000000000600052601260045260246000fd5b60006149ea82613969565b91506149f583613969565b925082614a0557614a046149b0565b5b828204905092915050565b6000604082019050614a2560008301856139df565b614a3260208301846139df565b9392505050565b7f4942000000000000000000000000000000000000000000000000000000000000600082015250565b6000614a6f600283613afc565b9150614a7a82614a39565b602082019050919050565b60006020820190508181036000830152614a9e81614a62565b9050919050565b7f4951000000000000000000000000000000000000000000000000000000000000600082015250565b6000614adb600283613afc565b9150614ae682614aa5565b602082019050919050565b60006020820190508181036000830152614b0a81614ace565b9050919050565b6000614b1c82613969565b9150614b2783613969565b9250828201905080821115614b3f57614b3e6144f5565b5b92915050565b6000606082019050614b5a600083018661416d565b614b67602083018561416d565b614b7460408301846139df565b949350505050565b7f524e410000000000000000000000000000000000000000000000000000000000600082015250565b6000614bb2600383613afc565b9150614bbd82614b7c565b602082019050919050565b60006020820190508181036000830152614be181614ba5565b9050919050565b6000606082019050614bfd600083018661416d565b614c0a60208301856139df565b614c1760408301846139df565b949350505050565b7f4d41444e41000000000000000000000000000000000000000000000000000000600082015250565b6000614c55600583613afc565b9150614c6082614c1f565b602082019050919050565b60006020820190508181036000830152614c8481614c48565b9050919050565b7f4d41434e41000000000000000000000000000000000000000000000000000000600082015250565b6000614cc1600583613afc565b9150614ccc82614c8b565b602082019050919050565b60006020820190508181036000830152614cf081614cb4565b9050919050565b7f444e410000000000000000000000000000000000000000000000000000000000600082015250565b6000614d2d600383613afc565b9150614d3882614cf7565b602082019050919050565b60006020820190508181036000830152614d5c81614d20565b9050919050565b600081519050614d7281613973565b92915050565b600060208284031215614d8e57614d8d613901565b5b6000614d9c84828501614d63565b91505092915050565b7f5746450000000000000000000000000000000000000000000000000000000000600082015250565b6000614ddb600383613afc565b9150614de682614da5565b602082019050919050565b60006020820190508181036000830152614e0a81614dce565b9050919050565b7f4d50514754425100000000000000000000000000000000000000000000000000600082015250565b6000614e47600783613afc565b9150614e5282614e11565b602082019050919050565b60006020820190508181036000830152614e7681614e3a565b9050919050565b7f4442364d00000000000000000000000000000000000000000000000000000000600082015250565b6000614eb3600483613afc565b9150614ebe82614e7d565b602082019050919050565b60006020820190508181036000830152614ee281614ea6565b9050919050565b7f4144413744000000000000000000000000000000000000000000000000000000600082015250565b6000614f1f600583613afc565b9150614f2a82614ee9565b602082019050919050565b60006020820190508181036000830152614f4e81614f12565b9050919050565b60008190508160005260206000209050919050565b60006020601f8301049050919050565b600082821b905092915050565b600060088302614fb77fffffffffffffffffffffffffffffffffffffffffffffffffffffffffffffffff82614f7a565b614fc18683614f7a565b95508019841693508086168417925050509392505050565b6000819050919050565b6000614ffe614ff9614ff484613969565b614fd9565b613969565b9050919050565b6000819050919050565b61501883614fe3565b61502c61502482615005565b848454614f87565b825550505050565b600090565b615041615034565b61504c81848461500f565b505050565b5b8181101561507057615065600082615039565b600181019050615052565b5050565b601f8211156150b55761508681614f55565b61508f84614f6a565b8101602085101561509e578190505b6150b26150aa85614f6a565b830182615051565b50505b505050565b600082821c905092915050565b60006150d8600019846008026150ba565b1980831691505092915050565b60006150f183836150c7565b9150826002028217905092915050565b61510a82613af1565b67ffffffffffffffff81111561512357615122613ba8565b5b61512d8254614587565b615138828285615074565b600060209050601f83116001811461516b5760008415615159578287015190505b61516385826150e5565b8655506151cb565b601f19841661517986614f55565b60005b828110156151a15784890151825560018201915060208501945060208101905061517c565b868310156151be57848901516151ba601f8916826150c7565b8355505b6001600288020188555050505b505050505050565b60006080820190506151e860008301876139df565b6151f560208301866139df565b61520260408301856139df565b61520f60608301846139df565b95945050505050565b7f455243313135353a2069647320616e6420616d6f756e7473206c656e6774682060008201527f6d69736d61746368000000000000000000000000000000000000000000000000602082015250565b6000615274602883613afc565b915061527f82615218565b604082019050919050565b600060208201905081810360008301526152a381615267565b9050919050565b7f455243313135353a207472616e7366657220746f20746865207a65726f20616460008201527f6472657373000000000000000000000000000000000000000000000000000000602082015250565b6000615306602583613afc565b9150615311826152aa565b604082019050919050565b60006020820190508181036000830152615335816152f9565b9050919050565b7f455243313135353a20696e73756666696369656e742062616c616e636520666f60008201527f72207472616e7366657200000000000000000000000000000000000000000000602082015250565b6000615398602a83613afc565b91506153a38261533c565b604082019050919050565b600060208201905081810360008301526153c78161538b565b9050919050565b600060408201905081810360008301526153e8818561404a565b905081810360208301526153fc818461404a565b90509392505050565b7f455243313135353a206275726e2066726f6d20746865207a65726f206164647260008201527f6573730000000000000000000000000000000000000000000000000000000000602082015250565b6000615461602383613afc565b915061546c82615405565b604082019050919050565b6000602082019050818103600083015261549081615454565b9050919050565b7f455243313135353a206275726e20616d6f756e7420657863656564732062616c60008201527f616e636500000000000000000000000000000000000000000000000000000000602082015250565b60006154f3602483613afc565b91506154fe82615497565b604082019050919050565b60006020820190508181036000830152615522816154e6565b9050919050565b7f455243313135353a2073657474696e6720617070726f76616c2073746174757360008201527f20666f722073656c660000000000000000000000000000000000000000000000602082015250565b6000615585602983613afc565b915061559082615529565b604082019050919050565b600060208201905081810360008301526155b481615578565b9050919050565b7f455243313135353a206d696e7420746f20746865207a65726f2061646472657360008201527f7300000000000000000000000000000000000000000000000000000000000000602082015250565b6000615617602183613afc565b9150615622826155bb565b604082019050919050565b600060208201905081810360008301526156468161560a565b9050919050565b600081519050919050565b600082825260208201905092915050565b60006156748261564d565b61567e8185615658565b935061568e818560208601613b0d565b61569781613b37565b840191505092915050565b600060a0820190506156b7600083018861416d565b6156c4602083018761416d565b81810360408301526156d6818661404a565b905081810360608301526156ea818561404a565b905081810360808301526156fe8184615669565b90509695505050505050565b60008151905061571981613a35565b92915050565b60006020828403121561573557615734613901565b5b60006157438482850161570a565b91505092915050565b60008160e01c9050919050565b600060033d11156157785760046000803e61577560005161574c565b90505b90565b600060443d106158085761578d6138f7565b60043d036004823e80513d602482011167ffffffffffffffff821117156157b5575050615808565b808201805167ffffffffffffffff8111156157d35750505050615808565b80602083010160043d0385018111156157f0575050505050615808565b6157ff82602001850186613bd7565b82955050505050505b90565b7f455243313135353a207472616e7366657220746f206e6f6e2d4552433131353560008201527f526563656976657220696d706c656d656e746572000000000000000000000000602082015250565b6000615867603483613afc565b91506158728261580b565b604082019050919050565b600060208201905081810360008301526158968161585a565b9050919050565b7f455243313135353a204552433131353552656365697665722072656a6563746560008201527f6420746f6b656e73000000000000000000000000000000000000000000000000602082015250565b60006158f9602883613afc565b91506159048261589d565b604082019050919050565b60006020820190508181036000830152615928816158ec565b9050919050565b600060a082019050615944600083018861416d565b615951602083018761416d565b61595e60408301866139df565b61596b60608301856139df565b818103608083015261597d8184615669565b9050969550505050505056fea26469706673582212209ab33ba648a2457dbc1154b64762aefaf3ccf694dee81d895a69d1f274f34e7d64736f6c63430008110033",
  "linkReferences": {},
  "deployedLinkReferences": {}
}