{
  "_format": "hh-sol-artifact-1",
  "contractName": "BondFactory",
  "sourceName": "contracts/BondFactory.sol",
  "abi": [
    {
      "inputs": [
        {
          "internalType": "string",
          "name": "uri",
          "type": "string"
        },
        {
          "internalType": "address",
          "name": "token",
          "type": "address"
        }
      ],
      "stateMutability": "nonpayable",
      "type": "constructor"
    },
    {
      "anonymous": false,
      "inputs": [
        {
          "indexed": true,
          "internalType": "address",
          "name": "account",
          "type": "address"
        },
        {
          "indexed": true,
          "internalType": "address",
          "name": "operator",
          "type": "address"
        },
        {
          "indexed": false,
          "internalType": "bool",
          "name": "approved",
          "type": "bool"
        }
      ],
      "name": "ApprovalForAll",
      "type": "event"
    },
    {
      "anonymous": false,
      "inputs": [
        {
          "indexed": true,
          "internalType": "uint256",
          "name": "id",
          "type": "uint256"
        },
        {
          "indexed": false,
          "internalType": "uint256",
          "name": "totalDebt",
          "type": "uint256"
        },
        {
          "indexed": false,
          "internalType": "uint256",
          "name": "paidDebt",
          "type": "uint256"
        }
      ],
      "name": "Completed",
      "type": "event"
    },
    {
      "anonymous": false,
      "inputs": [
        {
          "indexed": true,
          "internalType": "uint256",
          "name": "id",
          "type": "uint256"
        },
        {
          "indexed": false,
          "internalType": "uint256",
          "name": "totalDebt",
          "type": "uint256"
        },
        {
          "indexed": false,
          "internalType": "uint256",
          "name": "paidDebt",
          "type": "uint256"
        }
      ],
      "name": "Defaulted",
      "type": "event"
    },
    {
      "anonymous": false,
      "inputs": [
        {
          "indexed": true,
          "internalType": "uint256",
          "name": "id",
          "type": "uint256"
        },
        {
          "indexed": false,
          "internalType": "uint256",
          "name": "bondQuantity",
          "type": "uint256"
        },
        {
          "indexed": false,
          "internalType": "uint256",
          "name": "tokenAmountPerBond",
          "type": "uint256"
        },
        {
          "indexed": false,
          "internalType": "uint256",
          "name": "couponRate",
          "type": "uint256"
        }
      ],
      "name": "Issued",
      "type": "event"
    },
    {
      "anonymous": false,
      "inputs": [
        {
          "indexed": true,
          "internalType": "address",
          "name": "operator",
          "type": "address"
        },
        {
          "indexed": true,
          "internalType": "address",
          "name": "from",
          "type": "address"
        },
        {
          "indexed": true,
          "internalType": "address",
          "name": "to",
          "type": "address"
        },
        {
          "indexed": false,
          "internalType": "uint256[]",
          "name": "ids",
          "type": "uint256[]"
        },
        {
          "indexed": false,
          "internalType": "uint256[]",
          "name": "values",
          "type": "uint256[]"
        }
      ],
      "name": "TransferBatch",
      "type": "event"
    },
    {
      "anonymous": false,
      "inputs": [
        {
          "indexed": true,
          "internalType": "address",
          "name": "operator",
          "type": "address"
        },
        {
          "indexed": true,
          "internalType": "address",
          "name": "from",
          "type": "address"
        },
        {
          "indexed": true,
          "internalType": "address",
          "name": "to",
          "type": "address"
        },
        {
          "indexed": false,
          "internalType": "uint256",
          "name": "id",
          "type": "uint256"
        },
        {
          "indexed": false,
          "internalType": "uint256",
          "name": "value",
          "type": "uint256"
        }
      ],
      "name": "TransferSingle",
      "type": "event"
    },
    {
      "anonymous": false,
      "inputs": [
        {
          "indexed": false,
          "internalType": "string",
          "name": "value",
          "type": "string"
        },
        {
          "indexed": true,
          "internalType": "uint256",
          "name": "id",
          "type": "uint256"
        }
      ],
      "name": "URI",
      "type": "event"
    },
    {
      "inputs": [
        {
          "internalType": "address",
          "name": "account",
          "type": "address"
        },
        {
          "internalType": "uint256",
          "name": "id",
          "type": "uint256"
        }
      ],
      "name": "balanceOf",
      "outputs": [
        {
          "internalType": "uint256",
          "name": "",
          "type": "uint256"
        }
      ],
      "stateMutability": "view",
      "type": "function"
    },
    {
      "inputs": [
        {
          "internalType": "address[]",
          "name": "accounts",
          "type": "address[]"
        },
        {
          "internalType": "uint256[]",
          "name": "ids",
          "type": "uint256[]"
        }
      ],
      "name": "balanceOfBatch",
      "outputs": [
        {
          "internalType": "uint256[]",
          "name": "",
          "type": "uint256[]"
        }
      ],
      "stateMutability": "view",
      "type": "function"
    },
    {
      "inputs": [
        {
          "internalType": "uint256",
          "name": "id",
          "type": "uint256"
        }
      ],
      "name": "bondmetaData",
      "outputs": [
        {
          "internalType": "string",
          "name": "",
          "type": "string"
        },
        {
          "internalType": "uint256",
          "name": "",
          "type": "uint256"
        },
        {
          "internalType": "uint256",
          "name": "",
          "type": "uint256"
        },
        {
          "internalType": "uint256",
          "name": "",
          "type": "uint256"
        },
        {
          "internalType": "uint256",
          "name": "",
          "type": "uint256"
        },
        {
          "internalType": "uint256",
          "name": "",
          "type": "uint256"
        },
        {
          "internalType": "uint256",
          "name": "",
          "type": "uint256"
        },
        {
          "internalType": "uint256",
          "name": "",
          "type": "uint256"
        },
        {
          "internalType": "uint256",
          "name": "",
          "type": "uint256"
        },
        {
          "internalType": "uint256",
          "name": "",
          "type": "uint256"
        }
      ],
      "stateMutability": "view",
      "type": "function"
    },
    {
      "inputs": [
        {
          "internalType": "uint256",
          "name": "id",
          "type": "uint256"
        }
      ],
      "name": "couponRate",
      "outputs": [
        {
          "internalType": "uint256",
          "name": "",
          "type": "uint256"
        }
      ],
      "stateMutability": "view",
      "type": "function"
    },
    {
      "inputs": [
        {
          "internalType": "uint256",
          "name": "id",
          "type": "uint256"
        },
        {
          "internalType": "uint256",
          "name": "tokenAmount",
          "type": "uint256"
        }
      ],
      "name": "deposit",
      "outputs": [],
      "stateMutability": "nonpayable",
      "type": "function"
    },
    {
      "inputs": [
        {
          "internalType": "uint256",
          "name": "id",
          "type": "uint256"
        }
      ],
      "name": "hasReachedMaturity",
      "outputs": [
        {
          "internalType": "bool",
          "name": "",
          "type": "bool"
        }
      ],
      "stateMutability": "view",
      "type": "function"
    },
    {
      "inputs": [
        {
          "internalType": "uint256",
          "name": "id",
          "type": "uint256"
        }
      ],
      "name": "isActive",
      "outputs": [
        {
          "internalType": "bool",
          "name": "",
          "type": "bool"
        }
      ],
      "stateMutability": "view",
      "type": "function"
    },
    {
      "inputs": [
        {
          "internalType": "address",
          "name": "account",
          "type": "address"
        },
        {
          "internalType": "address",
          "name": "operator",
          "type": "address"
        }
      ],
      "name": "isApprovedForAll",
      "outputs": [
        {
          "internalType": "bool",
          "name": "",
          "type": "bool"
        }
      ],
      "stateMutability": "view",
      "type": "function"
    },
    {
      "inputs": [
        {
          "internalType": "uint256",
          "name": "id",
          "type": "uint256"
        }
      ],
      "name": "isCanceled",
      "outputs": [
        {
          "internalType": "bool",
          "name": "",
          "type": "bool"
        }
      ],
      "stateMutability": "view",
      "type": "function"
    },
    {
      "inputs": [
        {
          "internalType": "uint256",
          "name": "id",
          "type": "uint256"
        }
      ],
      "name": "isCompleted",
      "outputs": [
        {
          "internalType": "bool",
          "name": "",
          "type": "bool"
        }
      ],
      "stateMutability": "view",
      "type": "function"
    },
    {
      "inputs": [
        {
          "internalType": "uint256",
          "name": "id",
          "type": "uint256"
        }
      ],
      "name": "isCompletedInTheory",
      "outputs": [
        {
          "internalType": "bool",
          "name": "",
          "type": "bool"
        }
      ],
      "stateMutability": "view",
      "type": "function"
    },
    {
      "inputs": [
        {
          "internalType": "uint256",
          "name": "id",
          "type": "uint256"
        }
      ],
      "name": "isDefaulted",
      "outputs": [
        {
          "internalType": "bool",
          "name": "",
          "type": "bool"
        }
      ],
      "stateMutability": "view",
      "type": "function"
    },
    {
      "inputs": [
        {
          "internalType": "uint256",
          "name": "id",
          "type": "uint256"
        }
      ],
      "name": "isDefaultedInTheory",
      "outputs": [
        {
          "internalType": "bool",
          "name": "",
          "type": "bool"
        }
      ],
      "stateMutability": "view",
      "type": "function"
    },
    {
      "inputs": [
        {
          "internalType": "uint256",
          "name": "id",
          "type": "uint256"
        }
      ],
      "name": "isFulfilled",
      "outputs": [
        {
          "internalType": "bool",
          "name": "",
          "type": "bool"
        }
      ],
      "stateMutability": "view",
      "type": "function"
    },
    {
      "inputs": [
        {
          "internalType": "uint256",
          "name": "id",
          "type": "uint256"
        }
      ],
      "name": "isFullyRedeemed",
      "outputs": [
        {
          "internalType": "bool",
          "name": "",
          "type": "bool"
        }
      ],
      "stateMutability": "view",
      "type": "function"
    },
    {
      "inputs": [
        {
          "internalType": "uint256",
          "name": "bondQuantity",
          "type": "uint256"
        },
        {
          "internalType": "uint256",
          "name": "minPurchasedQuantity",
          "type": "uint256"
        },
        {
          "internalType": "uint256",
          "name": "tokenAmountPerBond",
          "type": "uint256"
        },
        {
          "internalType": "string",
          "name": "ticker",
          "type": "string"
        },
        {
          "internalType": "uint256",
          "name": "durationDays",
          "type": "uint256"
        },
        {
          "internalType": "uint256",
          "name": "activeDurationInDays",
          "type": "uint256"
        },
        {
          "internalType": "uint256",
          "name": "rate",
          "type": "uint256"
        },
        {
          "internalType": "bytes",
          "name": "data",
          "type": "bytes"
        }
      ],
      "name": "issue",
      "outputs": [
        {
          "internalType": "uint256",
          "name": "id",
          "type": "uint256"
        }
      ],
      "stateMutability": "nonpayable",
      "type": "function"
    },
    {
      "inputs": [
        {
          "internalType": "uint256",
          "name": "id",
          "type": "uint256"
        }
      ],
      "name": "markAsCompleted",
      "outputs": [],
      "stateMutability": "nonpayable",
      "type": "function"
    },
    {
      "inputs": [
        {
          "internalType": "uint256",
          "name": "id",
          "type": "uint256"
        }
      ],
      "name": "markAsDefaulted",
      "outputs": [],
      "stateMutability": "nonpayable",
      "type": "function"
    },
    {
      "inputs": [
        {
          "internalType": "uint256",
          "name": "id",
          "type": "uint256"
        }
      ],
      "name": "poolAmount",
      "outputs": [
        {
          "internalType": "uint256",
          "name": "",
          "type": "uint256"
        }
      ],
      "stateMutability": "view",
      "type": "function"
    },
    {
      "inputs": [
        {
          "internalType": "uint256",
          "name": "id",
          "type": "uint256"
        }
      ],
      "name": "principal",
      "outputs": [
        {
          "internalType": "uint256",
          "name": "",
          "type": "uint256"
        }
      ],
      "stateMutability": "view",
      "type": "function"
    },
    {
      "inputs": [
        {
          "internalType": "uint256",
          "name": "id",
          "type": "uint256"
        }
      ],
      "name": "principalWithInterest",
      "outputs": [
        {
          "internalType": "uint256",
          "name": "",
          "type": "uint256"
        }
      ],
      "stateMutability": "view",
      "type": "function"
    },
    {
      "inputs": [
        {
          "internalType": "uint256",
          "name": "id",
          "type": "uint256"
        },
        {
          "internalType": "uint256",
          "name": "bondQuantity",
          "type": "uint256"
        }
      ],
      "name": "purchase",
      "outputs": [],
      "stateMutability": "nonpayable",
      "type": "function"
    },
    {
      "inputs": [
        {
          "internalType": "uint256",
          "name": "id",
          "type": "uint256"
        },
        {
          "internalType": "uint256",
          "name": "bondQuantity",
          "type": "uint256"
        }
      ],
      "name": "redeem",
      "outputs": [],
      "stateMutability": "nonpayable",
      "type": "function"
    },
    {
      "inputs": [
        {
          "internalType": "uint256",
          "name": "id",
          "type": "uint256"
        },
        {
          "internalType": "uint256",
          "name": "bondQuantity",
          "type": "uint256"
        }
      ],
      "name": "redeemCanceled",
      "outputs": [],
      "stateMutability": "nonpayable",
      "type": "function"
    },
    {
      "inputs": [
        {
          "internalType": "uint256",
          "name": "id",
          "type": "uint256"
        },
        {
          "internalType": "uint256",
          "name": "bondQuantity",
          "type": "uint256"
        }
      ],
      "name": "redeemDefaulted",
      "outputs": [],
      "stateMutability": "nonpayable",
      "type": "function"
    },
    {
      "inputs": [
        {
          "internalType": "uint256",
          "name": "id",
          "type": "uint256"
        }
      ],
      "name": "remainingQuantity",
      "outputs": [
        {
          "internalType": "uint256",
          "name": "",
          "type": "uint256"
        }
      ],
      "stateMutability": "view",
      "type": "function"
    },
    {
      "inputs": [
        {
          "internalType": "address",
          "name": "from",
          "type": "address"
        },
        {
          "internalType": "address",
          "name": "to",
          "type": "address"
        },
        {
          "internalType": "uint256[]",
          "name": "ids",
          "type": "uint256[]"
        },
        {
          "internalType": "uint256[]",
          "name": "amounts",
          "type": "uint256[]"
        },
        {
          "internalType": "bytes",
          "name": "data",
          "type": "bytes"
        }
      ],
      "name": "safeBatchTransferFrom",
      "outputs": [],
      "stateMutability": "nonpayable",
      "type": "function"
    },
    {
      "inputs": [
        {
          "internalType": "address",
          "name": "from",
          "type": "address"
        },
        {
          "internalType": "address",
          "name": "to",
          "type": "address"
        },
        {
          "internalType": "uint256",
          "name": "id",
          "type": "uint256"
        },
        {
          "internalType": "uint256",
          "name": "amount",
          "type": "uint256"
        },
        {
          "internalType": "bytes",
          "name": "data",
          "type": "bytes"
        }
      ],
      "name": "safeTransferFrom",
      "outputs": [],
      "stateMutability": "nonpayable",
      "type": "function"
    },
    {
      "inputs": [
        {
          "internalType": "address",
          "name": "operator",
          "type": "address"
        },
        {
          "internalType": "bool",
          "name": "approved",
          "type": "bool"
        }
      ],
      "name": "setApprovalForAll",
      "outputs": [],
      "stateMutability": "nonpayable",
      "type": "function"
    },
    {
      "inputs": [
        {
          "internalType": "bytes4",
          "name": "interfaceId",
          "type": "bytes4"
        }
      ],
      "name": "supportsInterface",
      "outputs": [
        {
          "internalType": "bool",
          "name": "",
          "type": "bool"
        }
      ],
      "stateMutability": "view",
      "type": "function"
    },
    {
      "inputs": [
        {
          "internalType": "uint256",
          "name": "id",
          "type": "uint256"
        }
      ],
      "name": "timeElapsed",
      "outputs": [
        {
          "internalType": "uint256",
          "name": "",
          "type": "uint256"
        }
      ],
      "stateMutability": "view",
      "type": "function"
    },
    {
      "inputs": [
        {
          "internalType": "uint256",
          "name": "id",
          "type": "uint256"
        }
      ],
      "name": "timeRemainingToEndOfActive",
      "outputs": [
        {
          "internalType": "uint256",
          "name": "",
          "type": "uint256"
        }
      ],
      "stateMutability": "view",
      "type": "function"
    },
    {
      "inputs": [
        {
          "internalType": "uint256",
          "name": "id",
          "type": "uint256"
        }
      ],
      "name": "timeRemainingToMaturity",
      "outputs": [
        {
          "internalType": "uint256",
          "name": "",
          "type": "uint256"
        }
      ],
      "stateMutability": "view",
      "type": "function"
    },
    {
      "inputs": [],
      "name": "tvl",
      "outputs": [
        {
          "internalType": "uint256",
          "name": "",
          "type": "uint256"
        }
      ],
      "stateMutability": "view",
      "type": "function"
    },
    {
      "inputs": [
        {
          "internalType": "uint256",
          "name": "",
          "type": "uint256"
        }
      ],
      "name": "uri",
      "outputs": [
        {
          "internalType": "string",
          "name": "",
          "type": "string"
        }
      ],
      "stateMutability": "view",
      "type": "function"
    },
    {
      "inputs": [
        {
          "internalType": "uint256",
          "name": "id",
          "type": "uint256"
        },
        {
          "internalType": "uint256",
          "name": "tokenAmount",
          "type": "uint256"
        }
      ],
      "name": "withdraw",
      "outputs": [],
      "stateMutability": "nonpayable",
      "type": "function"
    },
    {
      "inputs": [
        {
          "internalType": "uint256",
          "name": "id",
          "type": "uint256"
        }
      ],
      "name": "withdrawExcess",
      "outputs": [],
      "stateMutability": "nonpayable",
      "type": "function"
    }
  ],
  "bytecode": "0x60c060405260006003553480156200001657600080fd5b50604051620061eb380380620061eb83398181016040528101906200003c9190620002cc565b816200004e81620000bf60201b60201c565b503373ffffffffffffffffffffffffffffffffffffffff1660808173ffffffffffffffffffffffffffffffffffffffff16815250508073ffffffffffffffffffffffffffffffffffffffff1660a08173ffffffffffffffffffffffffffffffffffffffff1681525050505062000664565b8060029081620000d091906200057d565b5050565b6000604051905090565b600080fd5b600080fd5b600080fd5b600080fd5b6000601f19601f8301169050919050565b7f4e487b7100000000000000000000000000000000000000000000000000000000600052604160045260246000fd5b6200013d82620000f2565b810181811067ffffffffffffffff821117156200015f576200015e62000103565b5b80604052505050565b600062000174620000d4565b905062000182828262000132565b919050565b600067ffffffffffffffff821115620001a557620001a462000103565b5b620001b082620000f2565b9050602081019050919050565b60005b83811015620001dd578082015181840152602081019050620001c0565b60008484015250505050565b600062000200620001fa8462000187565b62000168565b9050828152602081018484840111156200021f576200021e620000ed565b5b6200022c848285620001bd565b509392505050565b600082601f8301126200024c576200024b620000e8565b5b81516200025e848260208601620001e9565b91505092915050565b600073ffffffffffffffffffffffffffffffffffffffff82169050919050565b6000620002948262000267565b9050919050565b620002a68162000287565b8114620002b257600080fd5b50565b600081519050620002c6816200029b565b92915050565b60008060408385031215620002e657620002e5620000de565b5b600083015167ffffffffffffffff811115620003075762000306620000e3565b5b620003158582860162000234565b92505060206200032885828601620002b5565b9150509250929050565b600081519050919050565b7f4e487b7100000000000000000000000000000000000000000000000000000000600052602260045260246000fd5b600060028204905060018216806200038557607f821691505b6020821081036200039b576200039a6200033d565b5b50919050565b60008190508160005260206000209050919050565b60006020601f8301049050919050565b600082821b905092915050565b600060088302620004057fffffffffffffffffffffffffffffffffffffffffffffffffffffffffffffffff82620003c6565b620004118683620003c6565b95508019841693508086168417925050509392505050565b6000819050919050565b6000819050919050565b60006200045e62000458620004528462000429565b62000433565b62000429565b9050919050565b6000819050919050565b6200047a836200043d565b62000492620004898262000465565b848454620003d3565b825550505050565b600090565b620004a96200049a565b620004b68184846200046f565b505050565b5b81811015620004de57620004d26000826200049f565b600181019050620004bc565b5050565b601f8211156200052d57620004f781620003a1565b6200050284620003b6565b8101602085101562000512578190505b6200052a6200052185620003b6565b830182620004bb565b50505b505050565b600082821c905092915050565b6000620005526000198460080262000532565b1980831691505092915050565b60006200056d83836200053f565b9150826002028217905092915050565b620005888262000332565b67ffffffffffffffff811115620005a457620005a362000103565b5b620005b082546200036c565b620005bd828285620004e2565b600060209050601f831160018114620005f55760008415620005e0578287015190505b620005ec85826200055f565b8655506200065c565b601f1984166200060586620003a1565b60005b828110156200062f5784890151825560018201915060208501945060208101905062000608565b868310156200064f57848901516200064b601f8916826200053f565b8355505b6001600288020188555050505b505050505050565b60805160a051615b0d620006de60003960008181610e89015281816112b9015281816114cf01528181611807015281816119d401528181611bb101528181611df701528181612455015281816124fc01526126f1015260008181610c4701528181611eda015281816122fb015261259b0152615b0d6000f3fe608060405234801561001057600080fd5b50600436106102265760003560e01c80637cbc237311610130578063b09f2b1c116100b8578063e2bbb1581161007c578063e2bbb15814610780578063e5328e061461079c578063e755ddd7146107ba578063e985e9c5146107d6578063f242432a1461080657610226565b8063b09f2b1c146106af578063c0a6026c146106cb578063c7bc5730146106e7578063d32fe02e14610717578063d3b7811b1461075057610226565b8063932a8de0116100ff578063932a8de0146105fb578063a22cb4651461062b578063a874302214610647578063a996ef0814610663578063abac75e11461067f57610226565b80637cbc23731461054f57806382afd23b1461056b57806388bdc0831461059b5780638f0dbf77146105cb57610226565b80633097afb8116101b3578063549493bb11610182578063549493bb146104735780636ff80d93146104a357806370876c98146104d357806377e2a08b146104ef5780637a41984b1461051f57610226565b80633097afb8146103c757806339e3af9b146103f7578063441a3e70146104275780634e1273f41461044357610226565b806309149020116101fa57806309149020146102eb5780630e89341c1461031b57806314f294931461034b5780632eb2c2d61461037b5780632f3ad61f1461039757610226565b8062fdd58e1461022b57806301ffc9a71461025b578063021594971461028b57806308913ce8146102bb575b600080fd5b6102456004803603810190610240919061396c565b610822565b60405161025291906139bb565b60405180910390f35b61027560048036038101906102709190613a2e565b6108ea565b6040516102829190613a76565b60405180910390f35b6102a560048036038101906102a09190613a91565b6109cc565b6040516102b291906139bb565b60405180910390f35b6102d560048036038101906102d09190613a91565b6109e9565b6040516102e291906139bb565b60405180910390f35b61030560048036038101906103009190613a91565b610a14565b6040516103129190613a76565b60405180910390f35b61033560048036038101906103309190613a91565b610a4a565b6040516103429190613b4e565b60405180910390f35b61036560048036038101906103609190613a91565b610ade565b60405161037291906139bb565b60405180910390f35b61039560048036038101906103909190613d6d565b610b1c565b005b6103b160048036038101906103ac9190613a91565b610bbd565b6040516103be9190613a76565b60405180910390f35b6103e160048036038101906103dc9190613a91565b610be7565b6040516103ee9190613a76565b60405180910390f35b610411600480360381019061040c9190613a91565b610c20565b60405161041e9190613a76565b60405180910390f35b610441600480360381019061043c9190613e3c565b610c45565b005b61045d60048036038101906104589190613f3f565b610f2a565b60405161046a9190614075565b60405180910390f35b61048d60048036038101906104889190613a91565b611043565b60405161049a9190613a76565b60405180910390f35b6104bd60048036038101906104b89190613a91565b611075565b6040516104ca9190613a76565b60405180910390f35b6104ed60048036038101906104e89190613e3c565b6110ad565b005b61050960048036038101906105049190613a91565b61135e565b60405161051691906139bb565b60405180910390f35b61053960048036038101906105349190613a91565b6113b7565b6040516105469190613a76565b60405180910390f35b61056960048036038101906105649190613e3c565b6113e1565b005b61058560048036038101906105809190613a91565b61159b565b6040516105929190613a76565b60405180910390f35b6105b560048036038101906105b09190613a91565b6115be565b6040516105c291906139bb565b60405180910390f35b6105e560048036038101906105e09190613a91565b6115f1565b6040516105f29190613a76565b60405180910390f35b61061560048036038101906106109190613a91565b611613565b60405161062291906139bb565b60405180910390f35b610645600480360381019061064091906140c3565b611651565b005b610661600480360381019061065c9190613a91565b611667565b005b61067d60048036038101906106789190613e3c565b6118e6565b005b61069960048036038101906106949190613a91565b611aa0565b6040516106a691906139bb565b60405180910390f35b6106c960048036038101906106c49190613e3c565b611ac0565b005b6106e560048036038101906106e09190613a91565b611c7d565b005b61070160048036038101906106fc919061415e565b611ed6565b60405161070e91906139bb565b60405180910390f35b610731600480360381019061072c9190613a91565b612152565b6040516107479a99989796959493929190614250565b60405180910390f35b61076a60048036038101906107659190613a91565b6122c6565b60405161077791906139bb565b60405180910390f35b61079a60048036038101906107959190613e3c565b6122f9565b005b6107a46124f8565b6040516107b191906139bb565b60405180910390f35b6107d460048036038101906107cf9190613a91565b612599565b005b6107f060048036038101906107eb91906142f3565b6127a4565b6040516107fd9190613a76565b60405180910390f35b610820600480360381019061081b9190614333565b612838565b005b60008073ffffffffffffffffffffffffffffffffffffffff168373ffffffffffffffffffffffffffffffffffffffff1603610892576040517f08c379a00000000000000000000000000000000000000000000000000000000081526004016108899061443c565b60405180910390fd5b60008083815260200190815260200160002060008473ffffffffffffffffffffffffffffffffffffffff1673ffffffffffffffffffffffffffffffffffffffff16815260200190815260200160002054905092915050565b60007fd9b67a26000000000000000000000000000000000000000000000000000000007bffffffffffffffffffffffffffffffffffffffffffffffffffffffff1916827bffffffffffffffffffffffffffffffffffffffffffffffffffffffff191614806109b557507f0e89341c000000000000000000000000000000000000000000000000000000007bffffffffffffffffffffffffffffffffffffffffffffffffffffffff1916827bffffffffffffffffffffffffffffffffffffffffffffffffffffffff1916145b806109c557506109c4826128d9565b5b9050919050565b600060076000838152602001908152602001600020549050919050565b6000600460008381526020019081526020016000206002015442610a0d919061448b565b9050919050565b60006004600083815260200190815260200160002060080154600560008481526020019081526020016000205410159050919050565b606060028054610a59906144ee565b80601f0160208091040260200160405190810160405280929190818152602001828054610a85906144ee565b8015610ad25780601f10610aa757610100808354040283529160200191610ad2565b820191906000526020600020905b815481529060010190602001808311610ab557829003601f168201915b50505050509050919050565b600060056000838152602001908152602001600020546004600084815260200190815260200160002060010154610b15919061451f565b9050919050565b610b24612943565b73ffffffffffffffffffffffffffffffffffffffff168573ffffffffffffffffffffffffffffffffffffffff161480610b6a5750610b6985610b64612943565b6127a4565b5b610ba9576040517f08c379a0000000000000000000000000000000000000000000000000000000008152600401610ba0906145d3565b60405180910390fd5b610bb6858585858561294b565b5050505050565b6000600a600083815260200190815260200160002060009054906101000a900460ff169050919050565b6000610bf2826115f1565b8015610c195750610c028261135e565b600760008481526020019081526020016000205410155b9050919050565b6000610c2b8261159b565b158015610c3e5750610c3c82610a14565b155b9050919050565b7f000000000000000000000000000000000000000000000000000000000000000073ffffffffffffffffffffffffffffffffffffffff163373ffffffffffffffffffffffffffffffffffffffff1614610cd3576040517f08c379a0000000000000000000000000000000000000000000000000000000008152600401610cca9061463f565b60405180910390fd5b610cdc8261159b565b15610d1c576040517f08c379a0000000000000000000000000000000000000000000000000000000008152600401610d13906146ab565b60405180910390fd5b610d2582610c20565b15610d65576040517f08c379a0000000000000000000000000000000000000000000000000000000008152600401610d5c906146ab565b60405180910390fd5b610d6e826113b7565b15610dae576040517f08c379a0000000000000000000000000000000000000000000000000000000008152600401610da59061473d565b60405180910390fd5b610db782610bbd565b80610dc75750610dc682611075565b5b15610e07576040517f08c379a0000000000000000000000000000000000000000000000000000000008152600401610dfe906147cf565b60405180910390fd5b6007600083815260200190815260200160002054811115610e5d576040517f08c379a0000000000000000000000000000000000000000000000000000000008152600401610e5490614861565b60405180910390fd5b80600760008481526020019081526020016000206000828254610e80919061448b565b925050819055507f000000000000000000000000000000000000000000000000000000000000000073ffffffffffffffffffffffffffffffffffffffff1663a9059cbb33836040518363ffffffff1660e01b8152600401610ee2929190614890565b6020604051808303816000875af1158015610f01573d6000803e3d6000fd5b505050506040513d601f19601f82011682018060405250810190610f2591906148ce565b505050565b60608151835114610f70576040517f08c379a0000000000000000000000000000000000000000000000000000000008152600401610f679061496d565b60405180910390fd5b6000835167ffffffffffffffff811115610f8d57610f8c613b75565b5b604051908082528060200260200182016040528015610fbb5781602001602082028036833780820191505090505b50905060005b845181101561103857611008858281518110610fe057610fdf61498d565b5b6020026020010151858381518110610ffb57610ffa61498d565b5b6020026020010151610822565b82828151811061101b5761101a61498d565b5b60200260200101818152505080611031906149bc565b9050610fc1565b508091505092915050565b600060056000838152602001908152602001600020546006600084815260200190815260200160002054149050919050565b6000611080826115f1565b80156110a657506110908261135e565b6007600084815260200190815260200160002054105b9050919050565b6110b68261159b565b6110f5576040517f08c379a00000000000000000000000000000000000000000000000000000000081526004016110ec90614a50565b60405180910390fd5b806110ff83611613565b1015611140576040517f08c379a000000000000000000000000000000000000000000000000000000000815260040161113790614ae2565b60405180910390fd5b60006004600084815260200190815260200160002060405180610140016040529081600082018054611171906144ee565b80601f016020809104026020016040519081016040528092919081815260200182805461119d906144ee565b80156111ea5780601f106111bf576101008083540402835291602001916111ea565b820191906000526020600020905b8154815290600101906020018083116111cd57829003601f168201915b50505050508152602001600182015481526020016002820154815260200160038201548152602001600482015481526020016005820154815260200160068201548152602001600782015481526020016008820154815260200160098201548152505090506000816020015183611261919061451f565b9050826005600086815260200190815260200160002060008282546112869190614b02565b92505081905550806007600086815260200190815260200160002060008282546112b09190614b02565b925050819055507f000000000000000000000000000000000000000000000000000000000000000073ffffffffffffffffffffffffffffffffffffffff166323b872dd3330846040518463ffffffff1660e01b815260040161131493929190614b36565b6020604051808303816000875af1158015611333573d6000803e3d6000fd5b505050506040513d601f19601f8201168201806040525081019061135791906148ce565b5050505050565b6000670de0b6b3a7640000600460008481526020019081526020016000206009015461138984610ade565b611393919061451f565b61139d9190614b9c565b6113a683610ade565b6113b09190614b02565b9050919050565b6000600b600083815260200190815260200160002060009054906101000a900460ff169050919050565b6113ea826113b7565b611429576040517f08c379a000000000000000000000000000000000000000000000000000000000815260040161142090614c19565b60405180910390fd5b806114343384610822565b1015611475576040517f08c379a000000000000000000000000000000000000000000000000000000000815260040161146c90614c85565b60405180910390fd5b611480338383612c6c565b806006600084815260200190815260200160002060008282546114a39190614b02565b9250508190555060006009600084815260200190815260200160002054826114cb919061451f565b90507f000000000000000000000000000000000000000000000000000000000000000073ffffffffffffffffffffffffffffffffffffffff1663a9059cbb33836040518363ffffffff1660e01b8152600401611528929190614890565b6020604051808303816000875af1158015611547573d6000803e3d6000fd5b505050506040513d601f19601f8201168201806040525081019061156b91906148ce565b508060076000858152602001908152602001600020600082825461158f919061448b565b92505081905550505050565b600060046000838152602001908152602001600020600401544211159050919050565b60006115c9826109e9565b60046000848152602001908152602001600020600501546115ea919061448b565b9050919050565b6000600460008381526020019081526020016000206003015442119050919050565b60006005600083815260200190815260200160002054600460008481526020019081526020016000206007015461164a919061448b565b9050919050565b61166361165c612943565b8383612eb2565b5050565b611670816113b7565b158015611683575061168181610bbd565b155b8015611694575061169381611075565b5b6116d3576040517f08c379a00000000000000000000000000000000000000000000000000000000081526004016116ca90614cf1565b60405180910390fd5b60006116de8261135e565b905060006103e860076000858152602001908152602001600020546117039190614b9c565b90506000816007600086815260200190815260200160002054611726919061448b565b90506005600085815260200190815260200160002054816117479190614b9c565b6008600086815260200190815260200160002081905550600060056000868152602001908152602001600020546008600087815260200190815260200160002054611792919061451f565b8261179d919061448b565b9050600081846117ad9190614b02565b9050806007600088815260200190815260200160002060008282546117d2919061448b565b925050819055506001600a600088815260200190815260200160002060006101000a81548160ff0219169083151502179055507f000000000000000000000000000000000000000000000000000000000000000073ffffffffffffffffffffffffffffffffffffffff1663a9059cbb33836040518363ffffffff1660e01b8152600401611860929190614890565b6020604051808303816000875af115801561187f573d6000803e3d6000fd5b505050506040513d601f19601f820116820180604052508101906118a391906148ce565b50857fc4f17a65d54873d57229ea5f59c4ddec592d095bc17581372676402c8228b9cd86856040516118d6929190614d11565b60405180910390a2505050505050565b6118ef82610bbd565b61192e576040517f08c379a000000000000000000000000000000000000000000000000000000000815260040161192590614cf1565b60405180910390fd5b806119393384610822565b101561197a576040517f08c379a000000000000000000000000000000000000000000000000000000000815260040161197190614c85565b60405180910390fd5b611985338383612c6c565b806006600084815260200190815260200160002060008282546119a89190614b02565b9250508190555060006008600084815260200190815260200160002054826119d0919061451f565b90507f000000000000000000000000000000000000000000000000000000000000000073ffffffffffffffffffffffffffffffffffffffff1663a9059cbb33836040518363ffffffff1660e01b8152600401611a2d929190614890565b6020604051808303816000875af1158015611a4c573d6000803e3d6000fd5b505050506040513d601f19601f82011682018060405250810190611a7091906148ce565b5080600760008581526020019081526020016000206000828254611a94919061448b565b92505081905550505050565b600060046000838152602001908152602001600020600901549050919050565b611ac982610c20565b611b08576040517f08c379a0000000000000000000000000000000000000000000000000000000008152600401611aff90614d86565b60405180910390fd5b80611b133384610822565b1015611b54576040517f08c379a0000000000000000000000000000000000000000000000000000000008152600401611b4b90614c85565b60405180910390fd5b611b5f338383612c6c565b80600660008481526020019081526020016000206000828254611b829190614b02565b925050819055506000600460008481526020019081526020016000206001015482611bad919061451f565b90507f000000000000000000000000000000000000000000000000000000000000000073ffffffffffffffffffffffffffffffffffffffff1663a9059cbb33836040518363ffffffff1660e01b8152600401611c0a929190614890565b6020604051808303816000875af1158015611c29573d6000803e3d6000fd5b505050506040513d601f19601f82011682018060405250810190611c4d91906148ce565b5080600760008581526020019081526020016000206000828254611c71919061448b565b92505081905550505050565b611c8681610bbd565b158015611c995750611c97816113b7565b155b8015611caa5750611ca981610be7565b5b611ce9576040517f08c379a0000000000000000000000000000000000000000000000000000000008152600401611ce090614df2565b60405180910390fd5b6000611cf48261135e565b905060006103e882611d069190614b9c565b905060008183611d16919061448b565b9050600560008581526020019081526020016000205481611d379190614b9c565b6009600086815260200190815260200160002081905550600060056000868152602001908152602001600020546009600087815260200190815260200160002054611d82919061451f565b82611d8d919061448b565b905060008184611d9d9190614b02565b905080600760008881526020019081526020016000206000828254611dc2919061448b565b925050819055506001600b600088815260200190815260200160002060006101000a81548160ff0219169083151502179055507f000000000000000000000000000000000000000000000000000000000000000073ffffffffffffffffffffffffffffffffffffffff1663a9059cbb33836040518363ffffffff1660e01b8152600401611e50929190614890565b6020604051808303816000875af1158015611e6f573d6000803e3d6000fd5b505050506040513d601f19601f82011682018060405250810190611e9391906148ce565b50857fac2eeaf45d1b75aed6b3285cda3efb3c382cce02ba313558bbb90be57f8843e48685604051611ec6929190614d11565b60405180910390a2505050505050565b60007f000000000000000000000000000000000000000000000000000000000000000073ffffffffffffffffffffffffffffffffffffffff163373ffffffffffffffffffffffffffffffffffffffff1614611f66576040517f08c379a0000000000000000000000000000000000000000000000000000000008152600401611f5d9061463f565b60405180910390fd5b848410611fa8576040517f08c379a0000000000000000000000000000000000000000000000000000000008152600401611f9f90614e84565b60405180910390fd5b6001600354611fb79190614b02565b9050611fc533828c8561301e565b60405180610140016040528088888080601f016020809104026020016040519081016040528093929190818152602001838380828437600081840152601f19601f8201169050808301925050505050505081526020018981526020014281526020016201518087612036919061451f565b426120419190614b02565b81526020016201518086612055919061451f565b426120609190614b02565b81526020018581526020018681526020018b81526020018a8152602001848152506004600083815260200190815260200160002060008201518160000190816120a99190615050565b506020820151816001015560408201518160020155606082015181600301556080820151816004015560a0820151816005015560c0820151816006015560e0820151816007015561010082015181600801556101208201518160090155905050807f3e5b89bff97cb92eafe4cd460ef4aa43d6feef1428595fe038182876515968fd8b8a8660405161213d93929190615122565b60405180910390a29998505050505050505050565b6060600080600080600080600080600080600460008d815260200190815260200160002060405180610140016040529081600082018054612192906144ee565b80601f01602080910402602001604051908101604052809291908181526020018280546121be906144ee565b801561220b5780601f106121e05761010080835404028352916020019161220b565b820191906000526020600020905b8154815290600101906020018083116121ee57829003601f168201915b5050505050815260200160018201548152602001600282015481526020016003820154815260200160048201548152602001600582015481526020016006820154815260200160078201548152602001600882015481526020016009820154815250509050806000015181602001518260400151836060015184608001518560a001518660c001518760e001518861010001518961012001519a509a509a509a509a509a509a509a509a509a50509193959799509193959799565b60006122d1826109e9565b60046000848152602001908152602001600020600601546122f2919061448b565b9050919050565b7f000000000000000000000000000000000000000000000000000000000000000073ffffffffffffffffffffffffffffffffffffffff163373ffffffffffffffffffffffffffffffffffffffff1614612387576040517f08c379a000000000000000000000000000000000000000000000000000000000815260040161237e9061463f565b60405180910390fd5b61239082610bbd565b806123a0575061239f82611075565b5b156123e0576040517f08c379a00000000000000000000000000000000000000000000000000000000081526004016123d7906151a5565b60405180910390fd5b6123e9826113b7565b15612429576040517f08c379a000000000000000000000000000000000000000000000000000000000815260040161242090615211565b60405180910390fd5b8060076000848152602001908152602001600020600082825461244c9190614b02565b925050819055507f000000000000000000000000000000000000000000000000000000000000000073ffffffffffffffffffffffffffffffffffffffff166323b872dd3330846040518463ffffffff1660e01b81526004016124b093929190614b36565b6020604051808303816000875af11580156124cf573d6000803e3d6000fd5b505050506040513d601f19601f820116820180604052508101906124f391906148ce565b505050565b60007f000000000000000000000000000000000000000000000000000000000000000073ffffffffffffffffffffffffffffffffffffffff166370a08231306040518263ffffffff1660e01b81526004016125539190615231565b602060405180830381865afa158015612570573d6000803e3d6000fd5b505050506040513d601f19601f820116820180604052508101906125949190615261565b905090565b7f000000000000000000000000000000000000000000000000000000000000000073ffffffffffffffffffffffffffffffffffffffff163373ffffffffffffffffffffffffffffffffffffffff1614612627576040517f08c379a000000000000000000000000000000000000000000000000000000000815260040161261e9061463f565b60405180910390fd5b612630816113b7565b8015612641575061264081611043565b5b612680576040517f08c379a0000000000000000000000000000000000000000000000000000000008152600401612677906152da565b60405180910390fd5b60006007600083815260200190815260200160002054116126d6576040517f08c379a00000000000000000000000000000000000000000000000000000000081526004016126cd90615346565b60405180910390fd5b600060076000838152602001908152602001600020819055507f000000000000000000000000000000000000000000000000000000000000000073ffffffffffffffffffffffffffffffffffffffff1663a9059cbb3360076000858152602001908152602001600020546040518363ffffffff1660e01b815260040161275d929190614890565b6020604051808303816000875af115801561277c573d6000803e3d6000fd5b505050506040513d601f19601f820116820180604052508101906127a091906148ce565b5050565b6000600160008473ffffffffffffffffffffffffffffffffffffffff1673ffffffffffffffffffffffffffffffffffffffff16815260200190815260200160002060008373ffffffffffffffffffffffffffffffffffffffff1673ffffffffffffffffffffffffffffffffffffffff16815260200190815260200160002060009054906101000a900460ff16905092915050565b612840612943565b73ffffffffffffffffffffffffffffffffffffffff168573ffffffffffffffffffffffffffffffffffffffff161480612886575061288585612880612943565b6127a4565b5b6128c5576040517f08c379a00000000000000000000000000000000000000000000000000000000081526004016128bc906145d3565b60405180910390fd5b6128d285858585856131ce565b5050505050565b60007f01ffc9a7000000000000000000000000000000000000000000000000000000007bffffffffffffffffffffffffffffffffffffffffffffffffffffffff1916827bffffffffffffffffffffffffffffffffffffffffffffffffffffffff1916149050919050565b600033905090565b815183511461298f576040517f08c379a0000000000000000000000000000000000000000000000000000000008152600401612986906153d8565b60405180910390fd5b600073ffffffffffffffffffffffffffffffffffffffff168473ffffffffffffffffffffffffffffffffffffffff16036129fe576040517f08c379a00000000000000000000000000000000000000000000000000000000081526004016129f59061546a565b60405180910390fd5b6000612a08612943565b9050612a18818787878787613469565b60005b8451811015612bc9576000858281518110612a3957612a3861498d565b5b602002602001015190506000858381518110612a5857612a5761498d565b5b60200260200101519050600080600084815260200190815260200160002060008b73ffffffffffffffffffffffffffffffffffffffff1673ffffffffffffffffffffffffffffffffffffffff16815260200190815260200160002054905081811015612af9576040517f08c379a0000000000000000000000000000000000000000000000000000000008152600401612af0906154fc565b60405180910390fd5b81810360008085815260200190815260200160002060008c73ffffffffffffffffffffffffffffffffffffffff1673ffffffffffffffffffffffffffffffffffffffff168152602001908152602001600020819055508160008085815260200190815260200160002060008b73ffffffffffffffffffffffffffffffffffffffff1673ffffffffffffffffffffffffffffffffffffffff1681526020019081526020016000206000828254612bae9190614b02565b9250508190555050505080612bc2906149bc565b9050612a1b565b508473ffffffffffffffffffffffffffffffffffffffff168673ffffffffffffffffffffffffffffffffffffffff168273ffffffffffffffffffffffffffffffffffffffff167f4a39dc06d4c0dbc64b70af90fd698a233a518aa5d07e595d983b8c0526c8f7fb8787604051612c4092919061551c565b60405180910390a4612c56818787878787613471565b612c64818787878787613479565b505050505050565b600073ffffffffffffffffffffffffffffffffffffffff168373ffffffffffffffffffffffffffffffffffffffff1603612cdb576040517f08c379a0000000000000000000000000000000000000000000000000000000008152600401612cd2906155c5565b60405180910390fd5b6000612ce5612943565b90506000612cf284613650565b90506000612cff84613650565b9050612d1f83876000858560405180602001604052806000815250613469565b600080600087815260200190815260200160002060008873ffffffffffffffffffffffffffffffffffffffff1673ffffffffffffffffffffffffffffffffffffffff16815260200190815260200160002054905084811015612db6576040517f08c379a0000000000000000000000000000000000000000000000000000000008152600401612dad90615657565b60405180910390fd5b84810360008088815260200190815260200160002060008973ffffffffffffffffffffffffffffffffffffffff1673ffffffffffffffffffffffffffffffffffffffff16815260200190815260200160002081905550600073ffffffffffffffffffffffffffffffffffffffff168773ffffffffffffffffffffffffffffffffffffffff168573ffffffffffffffffffffffffffffffffffffffff167fc3d58168c5ae7397731d063d5bbf3d657854427343f4c083240f7aacaa2d0f628989604051612e83929190614d11565b60405180910390a4612ea984886000868660405180602001604052806000815250613471565b50505050505050565b8173ffffffffffffffffffffffffffffffffffffffff168373ffffffffffffffffffffffffffffffffffffffff1603612f20576040517f08c379a0000000000000000000000000000000000000000000000000000000008152600401612f17906156e9565b60405180910390fd5b80600160008573ffffffffffffffffffffffffffffffffffffffff1673ffffffffffffffffffffffffffffffffffffffff16815260200190815260200160002060008473ffffffffffffffffffffffffffffffffffffffff1673ffffffffffffffffffffffffffffffffffffffff16815260200190815260200160002060006101000a81548160ff0219169083151502179055508173ffffffffffffffffffffffffffffffffffffffff168373ffffffffffffffffffffffffffffffffffffffff167f17307eab39ab6107e8899845ad3d59bd9653f200f220920489ca2b5937696c31836040516130119190613a76565b60405180910390a3505050565b600073ffffffffffffffffffffffffffffffffffffffff168473ffffffffffffffffffffffffffffffffffffffff160361308d576040517f08c379a00000000000000000000000000000000000000000000000000000000081526004016130849061577b565b60405180910390fd5b6000613097612943565b905060006130a485613650565b905060006130b185613650565b90506130c283600089858589613469565b8460008088815260200190815260200160002060008973ffffffffffffffffffffffffffffffffffffffff1673ffffffffffffffffffffffffffffffffffffffff16815260200190815260200160002060008282546131219190614b02565b925050819055508673ffffffffffffffffffffffffffffffffffffffff16600073ffffffffffffffffffffffffffffffffffffffff168473ffffffffffffffffffffffffffffffffffffffff167fc3d58168c5ae7397731d063d5bbf3d657854427343f4c083240f7aacaa2d0f62898960405161319f929190614d11565b60405180910390a46131b683600089858589613471565b6131c5836000898989896136ca565b50505050505050565b600073ffffffffffffffffffffffffffffffffffffffff168473ffffffffffffffffffffffffffffffffffffffff160361323d576040517f08c379a00000000000000000000000000000000000000000000000000000000081526004016132349061546a565b60405180910390fd5b6000613247612943565b9050600061325485613650565b9050600061326185613650565b9050613271838989858589613469565b600080600088815260200190815260200160002060008a73ffffffffffffffffffffffffffffffffffffffff1673ffffffffffffffffffffffffffffffffffffffff16815260200190815260200160002054905085811015613308576040517f08c379a00000000000000000000000000000000000000000000000000000000081526004016132ff906154fc565b60405180910390fd5b85810360008089815260200190815260200160002060008b73ffffffffffffffffffffffffffffffffffffffff1673ffffffffffffffffffffffffffffffffffffffff168152602001908152602001600020819055508560008089815260200190815260200160002060008a73ffffffffffffffffffffffffffffffffffffffff1673ffffffffffffffffffffffffffffffffffffffff16815260200190815260200160002060008282546133bd9190614b02565b925050819055508773ffffffffffffffffffffffffffffffffffffffff168973ffffffffffffffffffffffffffffffffffffffff168573ffffffffffffffffffffffffffffffffffffffff167fc3d58168c5ae7397731d063d5bbf3d657854427343f4c083240f7aacaa2d0f628a8a60405161343a929190614d11565b60405180910390a4613450848a8a86868a613471565b61345e848a8a8a8a8a6136ca565b505050505050505050565b505050505050565b505050505050565b6134988473ffffffffffffffffffffffffffffffffffffffff166138a1565b15613648578373ffffffffffffffffffffffffffffffffffffffff1663bc197c8187878686866040518663ffffffff1660e01b81526004016134de9594939291906157f0565b6020604051808303816000875af192505050801561351a57506040513d601f19601f82011682018060405250810190613517919061586d565b60015b6135bf576135266158a7565b806308c379a003613582575061353a6158c9565b806135455750613584565b806040517f08c379a00000000000000000000000000000000000000000000000000000000081526004016135799190613b4e565b60405180910390fd5b505b6040517f08c379a00000000000000000000000000000000000000000000000000000000081526004016135b6906159cb565b60405180910390fd5b63bc197c8160e01b7bffffffffffffffffffffffffffffffffffffffffffffffffffffffff1916817bffffffffffffffffffffffffffffffffffffffffffffffffffffffff191614613646576040517f08c379a000000000000000000000000000000000000000000000000000000000815260040161363d90615a5d565b60405180910390fd5b505b505050505050565b60606000600167ffffffffffffffff81111561366f5761366e613b75565b5b60405190808252806020026020018201604052801561369d5781602001602082028036833780820191505090505b50905082816000815181106136b5576136b461498d565b5b60200260200101818152505080915050919050565b6136e98473ffffffffffffffffffffffffffffffffffffffff166138a1565b15613899578373ffffffffffffffffffffffffffffffffffffffff1663f23a6e6187878686866040518663ffffffff1660e01b815260040161372f959493929190615a7d565b6020604051808303816000875af192505050801561376b57506040513d601f19601f82011682018060405250810190613768919061586d565b60015b613810576137776158a7565b806308c379a0036137d3575061378b6158c9565b8061379657506137d5565b806040517f08c379a00000000000000000000000000000000000000000000000000000000081526004016137ca9190613b4e565b60405180910390fd5b505b6040517f08c379a0000000000000000000000000000000000000000000000000000000008152600401613807906159cb565b60405180910390fd5b63f23a6e6160e01b7bffffffffffffffffffffffffffffffffffffffffffffffffffffffff1916817bffffffffffffffffffffffffffffffffffffffffffffffffffffffff191614613897576040517f08c379a000000000000000000000000000000000000000000000000000000000815260040161388e90615a5d565b60405180910390fd5b505b505050505050565b6000808273ffffffffffffffffffffffffffffffffffffffff163b119050919050565b6000604051905090565b600080fd5b600080fd5b600073ffffffffffffffffffffffffffffffffffffffff82169050919050565b6000613903826138d8565b9050919050565b613913816138f8565b811461391e57600080fd5b50565b6000813590506139308161390a565b92915050565b6000819050919050565b61394981613936565b811461395457600080fd5b50565b60008135905061396681613940565b92915050565b60008060408385031215613983576139826138ce565b5b600061399185828601613921565b92505060206139a285828601613957565b9150509250929050565b6139b581613936565b82525050565b60006020820190506139d060008301846139ac565b92915050565b60007fffffffff0000000000000000000000000000000000000000000000000000000082169050919050565b613a0b816139d6565b8114613a1657600080fd5b50565b600081359050613a2881613a02565b92915050565b600060208284031215613a4457613a436138ce565b5b6000613a5284828501613a19565b91505092915050565b60008115159050919050565b613a7081613a5b565b82525050565b6000602082019050613a8b6000830184613a67565b92915050565b600060208284031215613aa757613aa66138ce565b5b6000613ab584828501613957565b91505092915050565b600081519050919050565b600082825260208201905092915050565b60005b83811015613af8578082015181840152602081019050613add565b60008484015250505050565b6000601f19601f8301169050919050565b6000613b2082613abe565b613b2a8185613ac9565b9350613b3a818560208601613ada565b613b4381613b04565b840191505092915050565b60006020820190508181036000830152613b688184613b15565b905092915050565b600080fd5b7f4e487b7100000000000000000000000000000000000000000000000000000000600052604160045260246000fd5b613bad82613b04565b810181811067ffffffffffffffff82111715613bcc57613bcb613b75565b5b80604052505050565b6000613bdf6138c4565b9050613beb8282613ba4565b919050565b600067ffffffffffffffff821115613c0b57613c0a613b75565b5b602082029050602081019050919050565b600080fd5b6000613c34613c2f84613bf0565b613bd5565b90508083825260208201905060208402830185811115613c5757613c56613c1c565b5b835b81811015613c805780613c6c8882613957565b845260208401935050602081019050613c59565b5050509392505050565b600082601f830112613c9f57613c9e613b70565b5b8135613caf848260208601613c21565b91505092915050565b600080fd5b600067ffffffffffffffff821115613cd857613cd7613b75565b5b613ce182613b04565b9050602081019050919050565b82818337600083830152505050565b6000613d10613d0b84613cbd565b613bd5565b905082815260208101848484011115613d2c57613d2b613cb8565b5b613d37848285613cee565b509392505050565b600082601f830112613d5457613d53613b70565b5b8135613d64848260208601613cfd565b91505092915050565b600080600080600060a08688031215613d8957613d886138ce565b5b6000613d9788828901613921565b9550506020613da888828901613921565b945050604086013567ffffffffffffffff811115613dc957613dc86138d3565b5b613dd588828901613c8a565b935050606086013567ffffffffffffffff811115613df657613df56138d3565b5b613e0288828901613c8a565b925050608086013567ffffffffffffffff811115613e2357613e226138d3565b5b613e2f88828901613d3f565b9150509295509295909350565b60008060408385031215613e5357613e526138ce565b5b6000613e6185828601613957565b9250506020613e7285828601613957565b9150509250929050565b600067ffffffffffffffff821115613e9757613e96613b75565b5b602082029050602081019050919050565b6000613ebb613eb684613e7c565b613bd5565b90508083825260208201905060208402830185811115613ede57613edd613c1c565b5b835b81811015613f075780613ef38882613921565b845260208401935050602081019050613ee0565b5050509392505050565b600082601f830112613f2657613f25613b70565b5b8135613f36848260208601613ea8565b91505092915050565b60008060408385031215613f5657613f556138ce565b5b600083013567ffffffffffffffff811115613f7457613f736138d3565b5b613f8085828601613f11565b925050602083013567ffffffffffffffff811115613fa157613fa06138d3565b5b613fad85828601613c8a565b9150509250929050565b600081519050919050565b600082825260208201905092915050565b6000819050602082019050919050565b613fec81613936565b82525050565b6000613ffe8383613fe3565b60208301905092915050565b6000602082019050919050565b600061402282613fb7565b61402c8185613fc2565b935061403783613fd3565b8060005b8381101561406857815161404f8882613ff2565b975061405a8361400a565b92505060018101905061403b565b5085935050505092915050565b6000602082019050818103600083015261408f8184614017565b905092915050565b6140a081613a5b565b81146140ab57600080fd5b50565b6000813590506140bd81614097565b92915050565b600080604083850312156140da576140d96138ce565b5b60006140e885828601613921565b92505060206140f9858286016140ae565b9150509250929050565b600080fd5b60008083601f84011261411e5761411d613b70565b5b8235905067ffffffffffffffff81111561413b5761413a614103565b5b60208301915083600182028301111561415757614156613c1c565b5b9250929050565b60008060008060008060008060006101008a8c031215614181576141806138ce565b5b600061418f8c828d01613957565b99505060206141a08c828d01613957565b98505060406141b18c828d01613957565b97505060608a013567ffffffffffffffff8111156141d2576141d16138d3565b5b6141de8c828d01614108565b965096505060806141f18c828d01613957565b94505060a06142028c828d01613957565b93505060c06142138c828d01613957565b92505060e08a013567ffffffffffffffff811115614234576142336138d3565b5b6142408c828d01613d3f565b9150509295985092959850929598565b600061014082019050818103600083015261426b818d613b15565b905061427a602083018c6139ac565b614287604083018b6139ac565b614294606083018a6139ac565b6142a160808301896139ac565b6142ae60a08301886139ac565b6142bb60c08301876139ac565b6142c860e08301866139ac565b6142d66101008301856139ac565b6142e46101208301846139ac565b9b9a5050505050505050505050565b6000806040838503121561430a576143096138ce565b5b600061431885828601613921565b925050602061432985828601613921565b9150509250929050565b600080600080600060a0868803121561434f5761434e6138ce565b5b600061435d88828901613921565b955050602061436e88828901613921565b945050604061437f88828901613957565b935050606061439088828901613957565b925050608086013567ffffffffffffffff8111156143b1576143b06138d3565b5b6143bd88828901613d3f565b9150509295509295909350565b7f455243313135353a2061646472657373207a65726f206973206e6f742061207660008201527f616c6964206f776e657200000000000000000000000000000000000000000000602082015250565b6000614426602a83613ac9565b9150614431826143ca565b604082019050919050565b6000602082019050818103600083015261445581614419565b9050919050565b7f4e487b7100000000000000000000000000000000000000000000000000000000600052601160045260246000fd5b600061449682613936565b91506144a183613936565b92508282039050818111156144b9576144b861445c565b5b92915050565b7f4e487b7100000000000000000000000000000000000000000000000000000000600052602260045260246000fd5b6000600282049050600182168061450657607f821691505b602082108103614519576145186144bf565b5b50919050565b600061452a82613936565b915061453583613936565b925082820261454381613936565b9150828204841483151761455a5761455961445c565b5b5092915050565b7f455243313135353a2063616c6c6572206973206e6f7420746f6b656e206f776e60008201527f6572206f7220617070726f766564000000000000000000000000000000000000602082015250565b60006145bd602e83613ac9565b91506145c882614561565b604082019050919050565b600060208201905081810360008301526145ec816145b0565b9050919050565b7f43616c6c6572206973206e6f7420746865206f776e6572000000000000000000600082015250565b6000614629601783613ac9565b9150614634826145f3565b602082019050919050565b600060208201905081810360008301526146588161461c565b9050919050565b7f5769746864726177206e6f7420616c6c6f776564207768656e20616374697665600082015250565b6000614695602083613ac9565b91506146a08261465f565b602082019050919050565b600060208201905081810360008301526146c481614688565b9050919050565b7f5769746864726177206e6f7420616c6c6f77656420616674657220636f6d706c60008201527f6574696f6e000000000000000000000000000000000000000000000000000000602082015250565b6000614727602583613ac9565b9150614732826146cb565b604082019050919050565b600060208201905081810360008301526147568161471a565b9050919050565b7f5769746864726177206e6f7420616c6c6f776564207768656e2064656661756c60008201527f7465640000000000000000000000000000000000000000000000000000000000602082015250565b60006147b9602383613ac9565b91506147c48261475d565b604082019050919050565b600060208201905081810360008301526147e8816147ac565b9050919050565b7f5769746864726177616c20746f6b656e20616d6f756e7420657863656564732060008201527f746f6b656e20616d6f756e7420696e20636f6e74726163740000000000000000602082015250565b600061484b603883613ac9565b9150614856826147ef565b604082019050919050565b6000602082019050818103600083015261487a8161483e565b9050919050565b61488a816138f8565b82525050565b60006040820190506148a56000830185614881565b6148b260208301846139ac565b9392505050565b6000815190506148c881614097565b92915050565b6000602082840312156148e4576148e36138ce565b5b60006148f2848285016148b9565b91505092915050565b7f455243313135353a206163636f756e747320616e6420696473206c656e67746860008201527f206d69736d617463680000000000000000000000000000000000000000000000602082015250565b6000614957602983613ac9565b9150614962826148fb565b604082019050919050565b600060208201905081810360008301526149868161494a565b9050919050565b7f4e487b7100000000000000000000000000000000000000000000000000000000600052603260045260246000fd5b60006149c782613936565b91507fffffffffffffffffffffffffffffffffffffffffffffffffffffffffffffffff82036149f9576149f861445c565b5b600182019050919050565b7f426f6e6420697320696e61637469766500000000000000000000000000000000600082015250565b6000614a3a601083613ac9565b9150614a4582614a04565b602082019050919050565b60006020820190508181036000830152614a6981614a2d565b9050919050565b7f496e73756666696369656e7420626f6e64207175616e746974792072656d616960008201527f6e696e6700000000000000000000000000000000000000000000000000000000602082015250565b6000614acc602483613ac9565b9150614ad782614a70565b604082019050919050565b60006020820190508181036000830152614afb81614abf565b9050919050565b6000614b0d82613936565b9150614b1883613936565b9250828201905080821115614b3057614b2f61445c565b5b92915050565b6000606082019050614b4b6000830186614881565b614b586020830185614881565b614b6560408301846139ac565b949350505050565b7f4e487b7100000000000000000000000000000000000000000000000000000000600052601260045260246000fd5b6000614ba782613936565b9150614bb283613936565b925082614bc257614bc1614b6d565b5b828204905092915050565b7f426f6e64206973206e6f7420636f6d706c657465640000000000000000000000600082015250565b6000614c03601583613ac9565b9150614c0e82614bcd565b602082019050919050565b60006020820190508181036000830152614c3281614bf6565b9050919050565b7f496e73756666696369656e7420626f6e64207175616e74697479000000000000600082015250565b6000614c6f601a83613ac9565b9150614c7a82614c39565b602082019050919050565b60006020820190508181036000830152614c9e81614c62565b9050919050565b7f426f6e64206973206e6f742064656661756c7465640000000000000000000000600082015250565b6000614cdb601583613ac9565b9150614ce682614ca5565b602082019050919050565b60006020820190508181036000830152614d0a81614cce565b9050919050565b6000604082019050614d2660008301856139ac565b614d3360208301846139ac565b9392505050565b7f426f6e64206973206e6f742063616e63656c6564000000000000000000000000600082015250565b6000614d70601483613ac9565b9150614d7b82614d3a565b602082019050919050565b60006020820190508181036000830152614d9f81614d63565b9050919050565b7f426f6e6420697320616c726561647920636f6d706c6574656400000000000000600082015250565b6000614ddc601983613ac9565b9150614de782614da6565b602082019050919050565b60006020820190508181036000830152614e0b81614dcf565b9050919050565b7f416374697665206475726174696f6e2073686f756c642062652073686f72746560008201527f72207468616e206475726174696f6e0000000000000000000000000000000000602082015250565b6000614e6e602f83613ac9565b9150614e7982614e12565b604082019050919050565b60006020820190508181036000830152614e9d81614e61565b9050919050565b60008190508160005260206000209050919050565b60006020601f8301049050919050565b600082821b905092915050565b600060088302614f067fffffffffffffffffffffffffffffffffffffffffffffffffffffffffffffffff82614ec9565b614f108683614ec9565b95508019841693508086168417925050509392505050565b6000819050919050565b6000614f4d614f48614f4384613936565b614f28565b613936565b9050919050565b6000819050919050565b614f6783614f32565b614f7b614f7382614f54565b848454614ed6565b825550505050565b600090565b614f90614f83565b614f9b818484614f5e565b505050565b5b81811015614fbf57614fb4600082614f88565b600181019050614fa1565b5050565b601f82111561500457614fd581614ea4565b614fde84614eb9565b81016020851015614fed578190505b615001614ff985614eb9565b830182614fa0565b50505b505050565b600082821c905092915050565b600061502760001984600802615009565b1980831691505092915050565b60006150408383615016565b9150826002028217905092915050565b61505982613abe565b67ffffffffffffffff81111561507257615071613b75565b5b61507c82546144ee565b615087828285614fc3565b600060209050601f8311600181146150ba57600084156150a8578287015190505b6150b28582615034565b86555061511a565b601f1984166150c886614ea4565b60005b828110156150f0578489015182556001820191506020850194506020810190506150cb565b8683101561510d5784890151615109601f891682615016565b8355505b6001600288020188555050505b505050505050565b600060608201905061513760008301866139ac565b61514460208301856139ac565b61515160408301846139ac565b949350505050565b7f626f6e642069732064656661756c746564000000000000000000000000000000600082015250565b600061518f601183613ac9565b915061519a82615159565b602082019050919050565b600060208201905081810360008301526151be81615182565b9050919050565b7f626f6e6420697320636f6d706c65746564000000000000000000000000000000600082015250565b60006151fb601183613ac9565b9150615206826151c5565b602082019050919050565b6000602082019050818103600083015261522a816151ee565b9050919050565b60006020820190506152466000830184614881565b92915050565b60008151905061525b81613940565b92915050565b600060208284031215615277576152766138ce565b5b60006152858482850161524c565b91505092915050565b7f43616e6e6f742077697468647261772065786365737300000000000000000000600082015250565b60006152c4601683613ac9565b91506152cf8261528e565b602082019050919050565b600060208201905081810360008301526152f3816152b7565b9050919050565b7f43616e6e6f742077697468647261772066726f6d20656d70747920706f6f6c00600082015250565b6000615330601f83613ac9565b915061533b826152fa565b602082019050919050565b6000602082019050818103600083015261535f81615323565b9050919050565b7f455243313135353a2069647320616e6420616d6f756e7473206c656e6774682060008201527f6d69736d61746368000000000000000000000000000000000000000000000000602082015250565b60006153c2602883613ac9565b91506153cd82615366565b604082019050919050565b600060208201905081810360008301526153f1816153b5565b9050919050565b7f455243313135353a207472616e7366657220746f20746865207a65726f20616460008201527f6472657373000000000000000000000000000000000000000000000000000000602082015250565b6000615454602583613ac9565b915061545f826153f8565b604082019050919050565b6000602082019050818103600083015261548381615447565b9050919050565b7f455243313135353a20696e73756666696369656e742062616c616e636520666f60008201527f72207472616e7366657200000000000000000000000000000000000000000000602082015250565b60006154e6602a83613ac9565b91506154f18261548a565b604082019050919050565b60006020820190508181036000830152615515816154d9565b9050919050565b600060408201905081810360008301526155368185614017565b9050818103602083015261554a8184614017565b90509392505050565b7f455243313135353a206275726e2066726f6d20746865207a65726f206164647260008201527f6573730000000000000000000000000000000000000000000000000000000000602082015250565b60006155af602383613ac9565b91506155ba82615553565b604082019050919050565b600060208201905081810360008301526155de816155a2565b9050919050565b7f455243313135353a206275726e20616d6f756e7420657863656564732062616c60008201527f616e636500000000000000000000000000000000000000000000000000000000602082015250565b6000615641602483613ac9565b915061564c826155e5565b604082019050919050565b6000602082019050818103600083015261567081615634565b9050919050565b7f455243313135353a2073657474696e6720617070726f76616c2073746174757360008201527f20666f722073656c660000000000000000000000000000000000000000000000602082015250565b60006156d3602983613ac9565b91506156de82615677565b604082019050919050565b60006020820190508181036000830152615702816156c6565b9050919050565b7f455243313135353a206d696e7420746f20746865207a65726f2061646472657360008201527f7300000000000000000000000000000000000000000000000000000000000000602082015250565b6000615765602183613ac9565b915061577082615709565b604082019050919050565b6000602082019050818103600083015261579481615758565b9050919050565b600081519050919050565b600082825260208201905092915050565b60006157c28261579b565b6157cc81856157a6565b93506157dc818560208601613ada565b6157e581613b04565b840191505092915050565b600060a0820190506158056000830188614881565b6158126020830187614881565b81810360408301526158248186614017565b905081810360608301526158388185614017565b9050818103608083015261584c81846157b7565b90509695505050505050565b60008151905061586781613a02565b92915050565b600060208284031215615883576158826138ce565b5b600061589184828501615858565b91505092915050565b60008160e01c9050919050565b600060033d11156158c65760046000803e6158c360005161589a565b90505b90565b600060443d10615956576158db6138c4565b60043d036004823e80513d602482011167ffffffffffffffff82111715615903575050615956565b808201805167ffffffffffffffff8111156159215750505050615956565b80602083010160043d03850181111561593e575050505050615956565b61594d82602001850186613ba4565b82955050505050505b90565b7f455243313135353a207472616e7366657220746f206e6f6e2d4552433131353560008201527f526563656976657220696d706c656d656e746572000000000000000000000000602082015250565b60006159b5603483613ac9565b91506159c082615959565b604082019050919050565b600060208201905081810360008301526159e4816159a8565b9050919050565b7f455243313135353a204552433131353552656365697665722072656a6563746560008201527f6420746f6b656e73000000000000000000000000000000000000000000000000602082015250565b6000615a47602883613ac9565b9150615a52826159eb565b604082019050919050565b60006020820190508181036000830152615a7681615a3a565b9050919050565b600060a082019050615a926000830188614881565b615a9f6020830187614881565b615aac60408301866139ac565b615ab960608301856139ac565b8181036080830152615acb81846157b7565b9050969550505050505056fea26469706673582212208d76d30cc4c9a6f32b6d5f42c166c221b3ff50a4573faeb0d3e4c9dae5f3623d64736f6c63430008110033",
  "linkReferences": {},
  "deployedLinkReferences": {}
}