{
  "_format": "hh-sol-artifact-1",
  "contractName": "InstallmentBondFactory",
  "sourceName": "contracts/InstallmentBondFactory.sol",
  "abi": [
    {
      "inputs": [
        {
          "internalType": "address",
          "name": "token",
          "type": "address"
        },
        {
          "internalType": "address",
          "name": "bondToken",
          "type": "address"
        },
        {
          "internalType": "address",
          "name": "db",
          "type": "address"
        },
        {
          "internalType": "address",
          "name": "deployer",
          "type": "address"
        }
      ],
      "stateMutability": "nonpayable",
      "type": "constructor"
    },
    {
      "anonymous": false,
      "inputs": [
        {
          "indexed": true,
          "internalType": "uint256",
          "name": "id",
          "type": "uint256"
        },
        {
          "indexed": false,
          "internalType": "uint256",
          "name": "totalDebt",
          "type": "uint256"
        },
        {
          "indexed": false,
          "internalType": "uint256",
          "name": "paidDebt",
          "type": "uint256"
        }
      ],
      "name": "Completed",
      "type": "event"
    },
    {
      "anonymous": false,
      "inputs": [
        {
          "indexed": true,
          "internalType": "uint256",
          "name": "id",
          "type": "uint256"
        },
        {
          "indexed": false,
          "internalType": "uint256",
          "name": "totalDebt",
          "type": "uint256"
        },
        {
          "indexed": false,
          "internalType": "uint256",
          "name": "paidDebt",
          "type": "uint256"
        }
      ],
      "name": "Defaulted",
      "type": "event"
    },
    {
      "anonymous": false,
      "inputs": [
        {
          "indexed": true,
          "internalType": "uint256",
          "name": "id",
          "type": "uint256"
        },
        {
          "indexed": false,
          "internalType": "uint256",
          "name": "bondQuantity",
          "type": "uint256"
        },
        {
          "indexed": false,
          "internalType": "uint256",
          "name": "tokenAmountPerBond",
          "type": "uint256"
        },
        {
          "indexed": false,
          "internalType": "uint256",
          "name": "couponRate",
          "type": "uint256"
        },
        {
          "indexed": false,
          "internalType": "uint256",
          "name": "maturityDate",
          "type": "uint256"
        }
      ],
      "name": "Issued",
      "type": "event"
    },
    {
      "anonymous": false,
      "inputs": [
        {
          "indexed": true,
          "internalType": "uint256",
          "name": "id",
          "type": "uint256"
        },
        {
          "indexed": false,
          "internalType": "address",
          "name": "buyer",
          "type": "address"
        },
        {
          "indexed": false,
          "internalType": "uint256",
          "name": "bondQuantity",
          "type": "uint256"
        },
        {
          "indexed": false,
          "internalType": "uint256",
          "name": "state",
          "type": "uint256"
        }
      ],
      "name": "Redeemed",
      "type": "event"
    },
    {
      "inputs": [],
      "name": "baseToken",
      "outputs": [
        {
          "internalType": "address",
          "name": "",
          "type": "address"
        }
      ],
      "stateMutability": "view",
      "type": "function"
    },
    {
      "inputs": [
        {
          "internalType": "uint256",
          "name": "id",
          "type": "uint256"
        },
        {
          "internalType": "uint256",
          "name": "tokenAmount",
          "type": "uint256"
        }
      ],
      "name": "deposit",
      "outputs": [],
      "stateMutability": "nonpayable",
      "type": "function"
    },
    {
      "inputs": [
        {
          "internalType": "uint256",
          "name": "id",
          "type": "uint256"
        }
      ],
      "name": "designatedTokenPool",
      "outputs": [
        {
          "internalType": "uint256",
          "name": "",
          "type": "uint256"
        }
      ],
      "stateMutability": "view",
      "type": "function"
    },
    {
      "inputs": [
        {
          "internalType": "uint256",
          "name": "id",
          "type": "uint256"
        },
        {
          "internalType": "uint256",
          "name": "tokenAmountPerBond",
          "type": "uint256"
        }
      ],
      "name": "fulfillObligationsAndLock",
      "outputs": [],
      "stateMutability": "nonpayable",
      "type": "function"
    },
    {
      "inputs": [
        {
          "internalType": "uint256",
          "name": "id",
          "type": "uint256"
        }
      ],
      "name": "hasReachedMaturity",
      "outputs": [
        {
          "internalType": "bool",
          "name": "",
          "type": "bool"
        }
      ],
      "stateMutability": "view",
      "type": "function"
    },
    {
      "inputs": [
        {
          "internalType": "uint256",
          "name": "id",
          "type": "uint256"
        }
      ],
      "name": "isActive",
      "outputs": [
        {
          "internalType": "bool",
          "name": "",
          "type": "bool"
        }
      ],
      "stateMutability": "view",
      "type": "function"
    },
    {
      "inputs": [
        {
          "internalType": "uint256",
          "name": "id",
          "type": "uint256"
        }
      ],
      "name": "isCanceled",
      "outputs": [
        {
          "internalType": "bool",
          "name": "",
          "type": "bool"
        }
      ],
      "stateMutability": "view",
      "type": "function"
    },
    {
      "inputs": [
        {
          "internalType": "uint256",
          "name": "id",
          "type": "uint256"
        }
      ],
      "name": "isCompleted",
      "outputs": [
        {
          "internalType": "bool",
          "name": "",
          "type": "bool"
        }
      ],
      "stateMutability": "view",
      "type": "function"
    },
    {
      "inputs": [
        {
          "internalType": "uint256",
          "name": "id",
          "type": "uint256"
        }
      ],
      "name": "isCompletedInTheory",
      "outputs": [
        {
          "internalType": "bool",
          "name": "",
          "type": "bool"
        }
      ],
      "stateMutability": "view",
      "type": "function"
    },
    {
      "inputs": [
        {
          "internalType": "uint256",
          "name": "id",
          "type": "uint256"
        }
      ],
      "name": "isDefaulted",
      "outputs": [
        {
          "internalType": "bool",
          "name": "",
          "type": "bool"
        }
      ],
      "stateMutability": "view",
      "type": "function"
    },
    {
      "inputs": [
        {
          "internalType": "uint256",
          "name": "id",
          "type": "uint256"
        }
      ],
      "name": "isDefaultedInTheory",
      "outputs": [
        {
          "internalType": "bool",
          "name": "",
          "type": "bool"
        }
      ],
      "stateMutability": "view",
      "type": "function"
    },
    {
      "inputs": [
        {
          "internalType": "uint256",
          "name": "id",
          "type": "uint256"
        }
      ],
      "name": "isFulfilled",
      "outputs": [
        {
          "internalType": "bool",
          "name": "",
          "type": "bool"
        }
      ],
      "stateMutability": "view",
      "type": "function"
    },
    {
      "inputs": [
        {
          "internalType": "uint256",
          "name": "id",
          "type": "uint256"
        }
      ],
      "name": "isFullyRedeemed",
      "outputs": [
        {
          "internalType": "bool",
          "name": "",
          "type": "bool"
        }
      ],
      "stateMutability": "view",
      "type": "function"
    },
    {
      "inputs": [
        {
          "internalType": "uint256",
          "name": "bondQuantity",
          "type": "uint256"
        },
        {
          "internalType": "uint256",
          "name": "minPurchasedQuantity",
          "type": "uint256"
        },
        {
          "internalType": "uint256",
          "name": "tokenAmountPerBond",
          "type": "uint256"
        },
        {
          "internalType": "string",
          "name": "ticker",
          "type": "string"
        },
        {
          "internalType": "uint256",
          "name": "yearOption",
          "type": "uint256"
        },
        {
          "internalType": "uint256",
          "name": "activeDurationInDays",
          "type": "uint256"
        },
        {
          "internalType": "uint256",
          "name": "rate",
          "type": "uint256"
        }
      ],
      "name": "issue",
      "outputs": [
        {
          "internalType": "uint256",
          "name": "id",
          "type": "uint256"
        }
      ],
      "stateMutability": "nonpayable",
      "type": "function"
    },
    {
      "inputs": [
        {
          "internalType": "uint256",
          "name": "id",
          "type": "uint256"
        }
      ],
      "name": "lockedTokenAmount",
      "outputs": [
        {
          "internalType": "uint256",
          "name": "",
          "type": "uint256"
        }
      ],
      "stateMutability": "view",
      "type": "function"
    },
    {
      "inputs": [
        {
          "internalType": "uint256",
          "name": "id",
          "type": "uint256"
        }
      ],
      "name": "lockedTokenAmountPerBond",
      "outputs": [
        {
          "internalType": "uint256",
          "name": "",
          "type": "uint256"
        }
      ],
      "stateMutability": "view",
      "type": "function"
    },
    {
      "inputs": [
        {
          "internalType": "uint256",
          "name": "id",
          "type": "uint256"
        }
      ],
      "name": "markAsCompleted",
      "outputs": [],
      "stateMutability": "nonpayable",
      "type": "function"
    },
    {
      "inputs": [
        {
          "internalType": "uint256",
          "name": "id",
          "type": "uint256"
        }
      ],
      "name": "markAsDefaulted",
      "outputs": [],
      "stateMutability": "nonpayable",
      "type": "function"
    },
    {
      "inputs": [
        {
          "internalType": "uint256",
          "name": "id",
          "type": "uint256"
        }
      ],
      "name": "minObligationTokenAmountPerBondList",
      "outputs": [
        {
          "internalType": "uint256[]",
          "name": "",
          "type": "uint256[]"
        }
      ],
      "stateMutability": "view",
      "type": "function"
    },
    {
      "inputs": [
        {
          "internalType": "uint256",
          "name": "id",
          "type": "uint256"
        }
      ],
      "name": "nextObligationDate",
      "outputs": [
        {
          "internalType": "uint256",
          "name": "",
          "type": "uint256"
        }
      ],
      "stateMutability": "view",
      "type": "function"
    },
    {
      "inputs": [
        {
          "internalType": "uint256",
          "name": "id",
          "type": "uint256"
        }
      ],
      "name": "numberOfTimesFulfilled",
      "outputs": [
        {
          "internalType": "uint256",
          "name": "",
          "type": "uint256"
        }
      ],
      "stateMutability": "view",
      "type": "function"
    },
    {
      "inputs": [
        {
          "internalType": "address",
          "name": "",
          "type": "address"
        },
        {
          "internalType": "address",
          "name": "",
          "type": "address"
        },
        {
          "internalType": "uint256[]",
          "name": "",
          "type": "uint256[]"
        },
        {
          "internalType": "uint256[]",
          "name": "",
          "type": "uint256[]"
        },
        {
          "internalType": "bytes",
          "name": "",
          "type": "bytes"
        }
      ],
      "name": "onERC1155BatchReceived",
      "outputs": [
        {
          "internalType": "bytes4",
          "name": "",
          "type": "bytes4"
        }
      ],
      "stateMutability": "nonpayable",
      "type": "function"
    },
    {
      "inputs": [
        {
          "internalType": "address",
          "name": "",
          "type": "address"
        },
        {
          "internalType": "address",
          "name": "",
          "type": "address"
        },
        {
          "internalType": "uint256",
          "name": "",
          "type": "uint256"
        },
        {
          "internalType": "uint256",
          "name": "",
          "type": "uint256"
        },
        {
          "internalType": "bytes",
          "name": "",
          "type": "bytes"
        }
      ],
      "name": "onERC1155Received",
      "outputs": [
        {
          "internalType": "bytes4",
          "name": "",
          "type": "bytes4"
        }
      ],
      "stateMutability": "nonpayable",
      "type": "function"
    },
    {
      "inputs": [],
      "name": "owner",
      "outputs": [
        {
          "internalType": "address",
          "name": "",
          "type": "address"
        }
      ],
      "stateMutability": "view",
      "type": "function"
    },
    {
      "inputs": [
        {
          "internalType": "uint256",
          "name": "id",
          "type": "uint256"
        }
      ],
      "name": "poolAmount",
      "outputs": [
        {
          "internalType": "uint256",
          "name": "",
          "type": "uint256"
        }
      ],
      "stateMutability": "view",
      "type": "function"
    },
    {
      "inputs": [
        {
          "internalType": "uint256",
          "name": "id",
          "type": "uint256"
        }
      ],
      "name": "preMaturityDefault",
      "outputs": [],
      "stateMutability": "nonpayable",
      "type": "function"
    },
    {
      "inputs": [
        {
          "internalType": "uint256",
          "name": "id",
          "type": "uint256"
        }
      ],
      "name": "principal",
      "outputs": [
        {
          "internalType": "uint256",
          "name": "",
          "type": "uint256"
        }
      ],
      "stateMutability": "view",
      "type": "function"
    },
    {
      "inputs": [
        {
          "internalType": "uint256",
          "name": "id",
          "type": "uint256"
        }
      ],
      "name": "principalWithInterest",
      "outputs": [
        {
          "internalType": "uint256",
          "name": "",
          "type": "uint256"
        }
      ],
      "stateMutability": "view",
      "type": "function"
    },
    {
      "inputs": [
        {
          "internalType": "uint256",
          "name": "id",
          "type": "uint256"
        },
        {
          "internalType": "uint256",
          "name": "bondQuantity",
          "type": "uint256"
        }
      ],
      "name": "purchase",
      "outputs": [],
      "stateMutability": "nonpayable",
      "type": "function"
    },
    {
      "inputs": [
        {
          "internalType": "uint256",
          "name": "id",
          "type": "uint256"
        },
        {
          "internalType": "uint256",
          "name": "bondQuantity",
          "type": "uint256"
        }
      ],
      "name": "redeem",
      "outputs": [],
      "stateMutability": "nonpayable",
      "type": "function"
    },
    {
      "inputs": [
        {
          "internalType": "uint256",
          "name": "id",
          "type": "uint256"
        }
      ],
      "name": "remainingQuantity",
      "outputs": [
        {
          "internalType": "uint256",
          "name": "",
          "type": "uint256"
        }
      ],
      "stateMutability": "view",
      "type": "function"
    },
    {
      "inputs": [
        {
          "internalType": "uint256",
          "name": "tokenAmountPerBond",
          "type": "uint256"
        },
        {
          "internalType": "uint256",
          "name": "yearOption",
          "type": "uint256"
        }
      ],
      "name": "retrieveMinObligationList",
      "outputs": [
        {
          "internalType": "uint256[]",
          "name": "",
          "type": "uint256[]"
        }
      ],
      "stateMutability": "view",
      "type": "function"
    },
    {
      "inputs": [
        {
          "internalType": "bytes4",
          "name": "interfaceId",
          "type": "bytes4"
        }
      ],
      "name": "supportsInterface",
      "outputs": [
        {
          "internalType": "bool",
          "name": "",
          "type": "bool"
        }
      ],
      "stateMutability": "view",
      "type": "function"
    },
    {
      "inputs": [
        {
          "internalType": "uint256",
          "name": "id",
          "type": "uint256"
        }
      ],
      "name": "timeElapsed",
      "outputs": [
        {
          "internalType": "uint256",
          "name": "",
          "type": "uint256"
        }
      ],
      "stateMutability": "view",
      "type": "function"
    },
    {
      "inputs": [
        {
          "internalType": "uint256",
          "name": "id",
          "type": "uint256"
        }
      ],
      "name": "timeRemainingToEndOfActive",
      "outputs": [
        {
          "internalType": "uint256",
          "name": "",
          "type": "uint256"
        }
      ],
      "stateMutability": "view",
      "type": "function"
    },
    {
      "inputs": [
        {
          "internalType": "uint256",
          "name": "id",
          "type": "uint256"
        }
      ],
      "name": "timeRemainingToMaturity",
      "outputs": [
        {
          "internalType": "uint256",
          "name": "",
          "type": "uint256"
        }
      ],
      "stateMutability": "view",
      "type": "function"
    },
    {
      "inputs": [],
      "name": "tvl",
      "outputs": [
        {
          "internalType": "uint256",
          "name": "",
          "type": "uint256"
        }
      ],
      "stateMutability": "view",
      "type": "function"
    },
    {
      "inputs": [
        {
          "internalType": "uint256",
          "name": "id",
          "type": "uint256"
        },
        {
          "internalType": "uint256",
          "name": "tokenAmount",
          "type": "uint256"
        }
      ],
      "name": "withdraw",
      "outputs": [],
      "stateMutability": "nonpayable",
      "type": "function"
    },
    {
      "inputs": [
        {
          "internalType": "uint256",
          "name": "id",
          "type": "uint256"
        }
      ],
      "name": "withdrawExcess",
      "outputs": [],
      "stateMutability": "nonpayable",
      "type": "function"
    },
    {
      "inputs": [
        {
          "internalType": "uint256",
          "name": "option",
          "type": "uint256"
        }
      ],
      "name": "yearOptionToDays",
      "outputs": [
        {
          "internalType": "uint256",
          "name": "",
          "type": "uint256"
        }
      ],
      "stateMutability": "pure",
      "type": "function"
    },
    {
      "inputs": [
        {
          "internalType": "uint256",
          "name": "option",
          "type": "uint256"
        }
      ],
      "name": "yearOptionToObligationRateList",
      "outputs": [
        {
          "internalType": "uint256[]",
          "name": "",
          "type": "uint256[]"
        }
      ],
      "stateMutability": "view",
      "type": "function"
    }
  ],
  "bytecode": "0x6101006040526040518060a00160405280600560ff168152602001600560ff168152602001600a60ff168152602001600f60ff168152602001600f60ff16815250600b90600562000052929190620002ba565b50604051806101200160405280600260ff168152602001600260ff168152602001600260ff168152602001600260ff168152602001600260ff168152602001600560ff168152602001600a60ff168152602001600a60ff168152602001600f60ff16815250600c906009620000c992919062000311565b50604051806102600160405280600260ff168152602001600260ff168152602001600260ff168152602001600260ff168152602001600260ff168152602001600260ff168152602001600260ff168152602001600260ff168152602001600260ff168152602001600260ff168152602001600260ff168152602001600260ff168152602001600260ff168152602001600260ff168152602001600260ff168152602001600560ff168152602001600560ff168152602001600560ff168152602001600560ff16815250600d906013620001a492919062000368565b50348015620001b257600080fd5b5060405162005b5938038062005b598339818101604052810190620001d8919062000448565b838383838073ffffffffffffffffffffffffffffffffffffffff1660808173ffffffffffffffffffffffffffffffffffffffff16815250508373ffffffffffffffffffffffffffffffffffffffff1660a08173ffffffffffffffffffffffffffffffffffffffff16815250508173ffffffffffffffffffffffffffffffffffffffff1660c08173ffffffffffffffffffffffffffffffffffffffff16815250508273ffffffffffffffffffffffffffffffffffffffff1660e08173ffffffffffffffffffffffffffffffffffffffff16815250505050505050505050620004ba565b828054828255906000526020600020908101928215620002fe579160200282015b82811115620002fd578251829060ff16905591602001919060010190620002db565b5b5090506200030d9190620003bf565b5090565b82805482825590600052602060002090810192821562000355579160200282015b8281111562000354578251829060ff1690559160200191906001019062000332565b5b509050620003649190620003bf565b5090565b828054828255906000526020600020908101928215620003ac579160200282015b82811115620003ab578251829060ff1690559160200191906001019062000389565b5b509050620003bb9190620003bf565b5090565b5b80821115620003da576000816000905550600101620003c0565b5090565b600080fd5b600073ffffffffffffffffffffffffffffffffffffffff82169050919050565b60006200041082620003e3565b9050919050565b620004228162000403565b81146200042e57600080fd5b50565b600081519050620004428162000417565b92915050565b60008060008060808587031215620004655762000464620003de565b5b6000620004758782880162000431565b9450506020620004888782880162000431565b93505060406200049b8782880162000431565b9250506060620004ae8782880162000431565b91505092959194509250565b60805160a05160c05160e0516154f262000667600039600081816109b901528181610a7001528181610b4701528181610c060152818161146b0152818161186d015281816119af01528181611ab501528181611c3701528181611d1901528181611ef001528181611fa00152818161207e0152818161214001528181612712015281816129a001528181612f90015261390c01526000818161119f0152818161124a0152818161156f0152818161161c015281816116eb015281816117bd01528181612335015281816123e001528181613a660152613af2015260008181610f41015281816115ac0152818161167a01528181611749015281816117fa015281816118fe01528181611e0c0152818161248e01528181612aeb01528181612d3801528181612f67015281816131670152818161337c01528181613571015261384c015260008181610d8601528181611016015281816111db01528181611286015281816116590152818161172801528181612056015281816123710152818161241c0152818161262b015281816130440152818161341b015281816136770152613b2e01526154f26000f3fe608060405234801561001057600080fd5b50600436106102535760003560e01c80638da5cb5b11610146578063c372fb91116100c3578063e5328e0611610087578063e5328e0614610824578063e755ddd714610842578063e88580901461085e578063f0d8100a1461088e578063f23a6e61146108be578063fcbc669a146108ee57610253565b8063c372fb911461075a578063c55dae631461078a578063d3b7811b146107a8578063e2bbb158146107d8578063e52270e0146107f457610253565b8063af73e2c91161010a578063af73e2c914610692578063bc197c81146106ae578063be5ba490146106de578063c0a6026c1461070e578063c36177fc1461072a57610253565b80638da5cb5b146105c85780638f0dbf77146105e6578063932a8de014610616578063a874302214610646578063a9385a5c1461066257610253565b8063441a3e70116101d457806377e2a08b1161019857806377e2a08b146104ec5780637a41984b1461051c5780637cbc23731461054c57806382afd23b1461056857806388bdc0831461059857610253565b8063441a3e7014610438578063549493bb146104545780636567dc4d146104845780636ff80d93146104a057806370876c98146104d057610253565b80631add02711161021b5780631add027114610348578063239f60da146103785780632f3ad61f146103a85780633097afb8146103d857806339e3af9b1461040857610253565b806301ffc9a714610258578063021594971461028857806308913ce8146102b857806309149020146102e857806314f2949314610318575b600080fd5b610272600480360381019061026d9190613d5a565b61091e565b60405161027f9190613da2565b60405180910390f35b6102a2600480360381019061029d9190613df3565b610998565b6040516102af9190613e2f565b60405180910390f35b6102d260048036038101906102cd9190613df3565b6109b5565b6040516102df9190613e2f565b60405180910390f35b61030260048036038101906102fd9190613df3565b610a6c565b60405161030f9190613da2565b60405180910390f35b610332600480360381019061032d9190613df3565b610b2f565b60405161033f9190613e2f565b60405180910390f35b610362600480360381019061035d9190613df3565b610bf9565b60405161036f9190613e2f565b60405180910390f35b610392600480360381019061038d9190613df3565b610cdf565b60405161039f9190613e2f565b60405180910390f35b6103c260048036038101906103bd9190613df3565b610cfc565b6040516103cf9190613da2565b60405180910390f35b6103f260048036038101906103ed9190613df3565b610d26565b6040516103ff9190613da2565b60405180910390f35b610422600480360381019061041d9190613df3565b610d5f565b60405161042f9190613da2565b60405180910390f35b610452600480360381019061044d9190613e4a565b610d84565b005b61046e60048036038101906104699190613df3565b610fe2565b60405161047b9190613da2565b60405180910390f35b61049e60048036038101906104999190613df3565b611014565b005b6104ba60048036038101906104b59190613df3565b61133c565b6040516104c79190613da2565b60405180910390f35b6104ea60048036038101906104e59190613e4a565b6113d4565b005b61050660048036038101906105019190613df3565b6119a2565b6040516105139190613e2f565b60405180910390f35b61053660048036038101906105319190613df3565b611a88565b6040516105439190613da2565b60405180910390f35b61056660048036038101906105619190613e4a565b611ab2565b005b610582600480360381019061057d9190613df3565b611eec565b60405161058f9190613da2565b60405180910390f35b6105b260048036038101906105ad9190613df3565b611f9b565b6040516105bf9190613e2f565b60405180910390f35b6105d0612052565b6040516105dd9190613ecb565b60405180910390f35b61060060048036038101906105fb9190613df3565b61207a565b60405161060d9190613da2565b60405180910390f35b610630600480360381019061062b9190613df3565b612128565b60405161063d9190613e2f565b60405180910390f35b610660600480360381019061065b9190613df3565b6121f3565b005b61067c60048036038101906106779190613df3565b612572565b6040516106899190613e2f565b60405180910390f35b6106ac60048036038101906106a79190613e4a565b612629565b005b6106c860048036038101906106c39190614120565b612b8f565b6040516106d591906141fe565b60405180910390f35b6106f860048036038101906106f39190613df3565b612ba4565b60405161070591906142d7565b60405180910390f35b61072860048036038101906107239190613df3565b612c0f565b005b610744600480360381019061073f9190613e4a565b612e15565b60405161075191906142d7565b60405180910390f35b610774600480360381019061076f9190613df3565b612f46565b6040516107819190613e2f565b60405180910390f35b610792612f63565b60405161079f9190613ecb565b60405180910390f35b6107c260048036038101906107bd9190613df3565b612f8b565b6040516107cf9190613e2f565b60405180910390f35b6107f260048036038101906107ed9190613e4a565b613042565b005b61080e60048036038101906108099190613df3565b61320a565b60405161081b91906142d7565b60405180910390f35b61082c613378565b6040516108399190613e2f565b60405180910390f35b61085c60048036038101906108579190613df3565b613419565b005b61087860048036038101906108739190613df3565b613624565b6040516108859190613e2f565b60405180910390f35b6108a860048036038101906108a39190613df3565b613641565b6040516108b59190613e2f565b60405180910390f35b6108d860048036038101906108d391906142f9565b61365e565b6040516108e591906141fe565b60405180910390f35b610908600480360381019061090391906143eb565b613673565b6040516109159190613e2f565b60405180910390f35b60007f4e2312e0000000000000000000000000000000000000000000000000000000007bffffffffffffffffffffffffffffffffffffffffffffffffffffffff1916827bffffffffffffffffffffffffffffffffffffffffffffffffffffffff19161480610991575061099082613c04565b5b9050919050565b600060046000838152602001908152602001600020549050919050565b60007f000000000000000000000000000000000000000000000000000000000000000073ffffffffffffffffffffffffffffffffffffffff1663c3ada2ed836040518263ffffffff1660e01b8152600401610a109190613e2f565b600060405180830381865afa158015610a2d573d6000803e3d6000fd5b505050506040513d6000823e3d601f19601f82011682018060405250810190610a5691906146ea565b6080015142610a659190614762565b9050919050565b60007f000000000000000000000000000000000000000000000000000000000000000073ffffffffffffffffffffffffffffffffffffffff1663c3ada2ed836040518263ffffffff1660e01b8152600401610ac79190613e2f565b600060405180830381865afa158015610ae4573d6000803e3d6000fd5b505050506040513d6000823e3d601f19601f82011682018060405250810190610b0d91906146ea565b6101400151600260008481526020019081526020016000205410159050919050565b600060026000838152602001908152602001600020547f000000000000000000000000000000000000000000000000000000000000000073ffffffffffffffffffffffffffffffffffffffff1663c3ada2ed846040518263ffffffff1660e01b8152600401610b9e9190613e2f565b600060405180830381865afa158015610bbb573d6000803e3d6000fd5b505050506040513d6000823e3d601f19601f82011682018060405250810190610be491906146ea565b60600151610bf29190614796565b9050919050565b6000670de0b6b3a76400007f000000000000000000000000000000000000000000000000000000000000000073ffffffffffffffffffffffffffffffffffffffff1663c3ada2ed846040518263ffffffff1660e01b8152600401610c5d9190613e2f565b600060405180830381865afa158015610c7a573d6000803e3d6000fd5b505050506040513d6000823e3d601f19601f82011682018060405250810190610ca391906146ea565b6101200151670de0b6b3a7640000610cba85613624565b610cc49190614796565b610cce9190614807565b610cd89190614807565b9050919050565b600060116000838152602001908152602001600020549050919050565b60006008600083815260200190815260200160002060009054906101000a900460ff169050919050565b6000610d318261207a565b8015610d585750610d41826119a2565b600460008481526020019081526020016000205410155b9050919050565b6000610d6a82611eec565b158015610d7d5750610d7b82610a6c565b155b9050919050565b7f000000000000000000000000000000000000000000000000000000000000000073ffffffffffffffffffffffffffffffffffffffff163373ffffffffffffffffffffffffffffffffffffffff1614610e12576040517f08c379a0000000000000000000000000000000000000000000000000000000008152600401610e0990614895565b60405180910390fd5b610e1b82611eec565b158015610e2e5750610e2c82610d5f565b155b8015610e405750610e3e82611a88565b155b8015610e625750610e5082610cfc565b80610e605750610e5f8261133c565b5b155b610ea1576040517f08c379a0000000000000000000000000000000000000000000000000000000008152600401610e9890614901565b60405180910390fd5b60106000838152602001908152602001600020546004600084815260200190815260200160002054610ed39190614762565b811115610f15576040517f08c379a0000000000000000000000000000000000000000000000000000000008152600401610f0c9061496d565b60405180910390fd5b80600460008481526020019081526020016000206000828254610f389190614762565b925050819055507f000000000000000000000000000000000000000000000000000000000000000073ffffffffffffffffffffffffffffffffffffffff1663a9059cbb33836040518363ffffffff1660e01b8152600401610f9a92919061498d565b6020604051808303816000875af1158015610fb9573d6000803e3d6000fd5b505050506040513d601f19601f82011682018060405250810190610fdd91906149e2565b505050565b600060026000838152602001908152602001600020546003600084815260200190815260200160002054149050919050565b7f000000000000000000000000000000000000000000000000000000000000000073ffffffffffffffffffffffffffffffffffffffff163373ffffffffffffffffffffffffffffffffffffffff16146110a2576040517f08c379a000000000000000000000000000000000000000000000000000000000815260040161109990614895565b60405180910390fd5b6110ab81611a88565b1580156110be57506110bc81610cfc565b155b80156110e457506110ce816119a2565b6004600083815260200190815260200160002054105b611123576040517f08c379a000000000000000000000000000000000000000000000000000000000815260040161111a90614a5b565b60405180910390fd5b60006004600083815260200190815260200160002054905060026000838152602001908152602001600020548161115a9190614807565b600560008481526020019081526020016000208190555060016008600084815260200190815260200160002060006101000a81548160ff0219169083151502179055507f000000000000000000000000000000000000000000000000000000000000000073ffffffffffffffffffffffffffffffffffffffff1663dae382d67f00000000000000000000000000000000000000000000000000000000000000006040518263ffffffff1660e01b81526004016112169190613ecb565b600060405180830381600087803b15801561123057600080fd5b505af1158015611244573d6000803e3d6000fd5b505050507f000000000000000000000000000000000000000000000000000000000000000073ffffffffffffffffffffffffffffffffffffffff1663d050a7c87f000000000000000000000000000000000000000000000000000000000000000060016040518363ffffffff1660e01b81526004016112c492919061498d565b600060405180830381600087803b1580156112de57600080fd5b505af11580156112f2573d6000803e3d6000fd5b50505050817fc4f17a65d54873d57229ea5f59c4ddec592d095bc17581372676402c8228b9cd611321846119a2565b83604051611330929190614a7b565b60405180910390a25050565b6000806113488361207a565b801561136e5750611358836119a2565b6004600085815260200190815260200160002054105b9050600061137b8461207a565b1580156113c057506201518060b4600160116000888152602001908152602001600020546113a99190614aa4565b6113b39190614796565b6113bd9190614796565b42115b905081806113cb5750805b92505050919050565b6113dd82611eec565b61141c576040517f08c379a000000000000000000000000000000000000000000000000000000000815260040161141390614b24565b60405180910390fd5b8061142683612128565b1015611467576040517f08c379a000000000000000000000000000000000000000000000000000000000815260040161145e90614b90565b60405180910390fd5b60007f000000000000000000000000000000000000000000000000000000000000000073ffffffffffffffffffffffffffffffffffffffff1663c3ada2ed846040518263ffffffff1660e01b81526004016114c29190613e2f565b600060405180830381865afa1580156114df573d6000803e3d6000fd5b505050506040513d6000823e3d601f19601f8201168201806040525081019061150891906146ea565b60600151826115179190614796565b90508160026000858152602001908152602001600020600082825461153c9190614aa4565b92505081905550806004600085815260200190815260200160002060008282546115669190614aa4565b925050819055507f000000000000000000000000000000000000000000000000000000000000000073ffffffffffffffffffffffffffffffffffffffff1663576ff163827f00000000000000000000000000000000000000000000000000000000000000006040518363ffffffff1660e01b81526004016115e8929190614bb0565b600060405180830381600087803b15801561160257600080fd5b505af1158015611616573d6000803e3d6000fd5b505050507f000000000000000000000000000000000000000000000000000000000000000073ffffffffffffffffffffffffffffffffffffffff1663b8c2e4f3827f00000000000000000000000000000000000000000000000000000000000000007f00000000000000000000000000000000000000000000000000000000000000006040518463ffffffff1660e01b81526004016116b793929190614bd9565b600060405180830381600087803b1580156116d157600080fd5b505af11580156116e5573d6000803e3d6000fd5b505050507f000000000000000000000000000000000000000000000000000000000000000073ffffffffffffffffffffffffffffffffffffffff16637db79a3d827f00000000000000000000000000000000000000000000000000000000000000007f000000000000000000000000000000000000000000000000000000000000000060016040518563ffffffff1660e01b81526004016117899493929190614c10565b600060405180830381600087803b1580156117a357600080fd5b505af11580156117b7573d6000803e3d6000fd5b505050507f000000000000000000000000000000000000000000000000000000000000000073ffffffffffffffffffffffffffffffffffffffff1663b0b4dfaa827f000000000000000000000000000000000000000000000000000000000000000060016040518463ffffffff1660e01b815260040161183993929190614c55565b600060405180830381600087803b15801561185357600080fd5b505af1158015611867573d6000803e3d6000fd5b505050507f000000000000000000000000000000000000000000000000000000000000000073ffffffffffffffffffffffffffffffffffffffff1663f242432a303386866040518563ffffffff1660e01b81526004016118ca9493929190614cc3565b600060405180830381600087803b1580156118e457600080fd5b505af11580156118f8573d6000803e3d6000fd5b505050507f000000000000000000000000000000000000000000000000000000000000000073ffffffffffffffffffffffffffffffffffffffff166323b872dd3330846040518463ffffffff1660e01b815260040161195993929190614d1b565b6020604051808303816000875af1158015611978573d6000803e3d6000fd5b505050506040513d601f19601f8201168201806040525081019061199c91906149e2565b50505050565b6000670de0b6b3a76400007f000000000000000000000000000000000000000000000000000000000000000073ffffffffffffffffffffffffffffffffffffffff1663c3ada2ed846040518263ffffffff1660e01b8152600401611a069190613e2f565b600060405180830381865afa158015611a23573d6000803e3d6000fd5b505050506040513d6000823e3d601f19601f82011682018060405250810190611a4c91906146ea565b6101600151611a5a84610b2f565b611a649190614796565b611a6e9190614807565b611a7783610b2f565b611a819190614aa4565b9050919050565b60006009600083815260200190815260200160002060009054906101000a900460ff169050919050565b807f000000000000000000000000000000000000000000000000000000000000000073ffffffffffffffffffffffffffffffffffffffff1662fdd58e33856040518363ffffffff1660e01b8152600401611b0d92919061498d565b602060405180830381865afa158015611b2a573d6000803e3d6000fd5b505050506040513d601f19601f82011682018060405250810190611b4e9190614d52565b1015611b8f576040517f08c379a0000000000000000000000000000000000000000000000000000000008152600401611b8690614b90565b60405180910390fd5b611b9882611a88565b80611ba85750611ba782610d5f565b5b80611bb85750611bb782610cfc565b5b611bf7576040517f08c379a0000000000000000000000000000000000000000000000000000000008152600401611bee90614dcb565b60405180910390fd5b600080611c0384611a88565b15611c27576006600085815260200190815260200160002054915060009050611d17565b611c3084610d5f565b15611ce3577f000000000000000000000000000000000000000000000000000000000000000073ffffffffffffffffffffffffffffffffffffffff1663c3ada2ed856040518263ffffffff1660e01b8152600401611c8e9190613e2f565b600060405180830381865afa158015611cab573d6000803e3d6000fd5b505050506040513d6000823e3d601f19601f82011682018060405250810190611cd491906146ea565b60600151915060019050611d16565b611cec84610cfc565b15611d10576005600085815260200190815260200160002054915060029050611d15565b600080fd5b5b5b7f000000000000000000000000000000000000000000000000000000000000000073ffffffffffffffffffffffffffffffffffffffff1663f5298aca3386866040518463ffffffff1660e01b8152600401611d7493929190614deb565b600060405180830381600087803b158015611d8e57600080fd5b505af1158015611da2573d6000803e3d6000fd5b5050505082600360008681526020019081526020016000206000828254611dc99190614aa4565b9250508190555060008284611dde9190614796565b905080600460008781526020019081526020016000206000828254611e039190614762565b925050819055507f000000000000000000000000000000000000000000000000000000000000000073ffffffffffffffffffffffffffffffffffffffff1663a9059cbb33836040518363ffffffff1660e01b8152600401611e6592919061498d565b6020604051808303816000875af1158015611e84573d6000803e3d6000fd5b505050506040513d601f19601f82011682018060405250810190611ea891906149e2565b50847fa5851b0172fdafd3dafe0e52ce051747548a4c642a2f22793c01faf228e13062338685604051611edd93929190614deb565b60405180910390a25050505050565b60007f000000000000000000000000000000000000000000000000000000000000000073ffffffffffffffffffffffffffffffffffffffff1663c3ada2ed836040518263ffffffff1660e01b8152600401611f479190613e2f565b600060405180830381865afa158015611f64573d6000803e3d6000fd5b505050506040513d6000823e3d601f19601f82011682018060405250810190611f8d91906146ea565b60c001514211159050919050565b6000427f000000000000000000000000000000000000000000000000000000000000000073ffffffffffffffffffffffffffffffffffffffff1663c3ada2ed846040518263ffffffff1660e01b8152600401611ff79190613e2f565b600060405180830381865afa158015612014573d6000803e3d6000fd5b505050506040513d6000823e3d601f19601f8201168201806040525081019061203d91906146ea565b60c0015161204b9190614762565b9050919050565b60007f0000000000000000000000000000000000000000000000000000000000000000905090565b60007f000000000000000000000000000000000000000000000000000000000000000073ffffffffffffffffffffffffffffffffffffffff1663c3ada2ed836040518263ffffffff1660e01b81526004016120d59190613e2f565b600060405180830381865afa1580156120f2573d6000803e3d6000fd5b505050506040513d6000823e3d601f19601f8201168201806040525081019061211b91906146ea565b60a0015142119050919050565b600060026000838152602001908152602001600020547f000000000000000000000000000000000000000000000000000000000000000073ffffffffffffffffffffffffffffffffffffffff1663c3ada2ed846040518263ffffffff1660e01b81526004016121979190613e2f565b600060405180830381865afa1580156121b4573d6000803e3d6000fd5b505050506040513d6000823e3d601f19601f820116820180604052508101906121dd91906146ea565b61012001516121ec9190614762565b9050919050565b6121fc81611a88565b15801561220f575061220d81610cfc565b155b8015612220575061221f8161133c565b5b61225f576040517f08c379a000000000000000000000000000000000000000000000000000000000815260040161225690614e6e565b60405180910390fd5b60006103e860046000848152602001908152602001600020546122829190614807565b905060008160046000858152602001908152602001600020546122a59190614762565b90506002600084815260200190815260200160002054816122c69190614807565b6005600085815260200190815260200160002081905550816004600085815260200190815260200160002060008282546123009190614762565b9250508190555060016008600085815260200190815260200160002060006101000a81548160ff0219169083151502179055507f000000000000000000000000000000000000000000000000000000000000000073ffffffffffffffffffffffffffffffffffffffff1663dae382d67f00000000000000000000000000000000000000000000000000000000000000006040518263ffffffff1660e01b81526004016123ac9190613ecb565b600060405180830381600087803b1580156123c657600080fd5b505af11580156123da573d6000803e3d6000fd5b505050507f000000000000000000000000000000000000000000000000000000000000000073ffffffffffffffffffffffffffffffffffffffff1663d050a7c87f000000000000000000000000000000000000000000000000000000000000000060016040518363ffffffff1660e01b815260040161245a92919061498d565b600060405180830381600087803b15801561247457600080fd5b505af1158015612488573d6000803e3d6000fd5b505050507f000000000000000000000000000000000000000000000000000000000000000073ffffffffffffffffffffffffffffffffffffffff1663a9059cbb33846040518363ffffffff1660e01b81526004016124e792919061498d565b6020604051808303816000875af1158015612506573d6000803e3d6000fd5b505050506040513d601f19601f8201168201806040525081019061252a91906149e2565b50827fc4f17a65d54873d57229ea5f59c4ddec592d095bc17581372676402c8228b9cd612556856119a2565b83604051612565929190614a7b565b60405180910390a2505050565b60008160008110158015612587575060028111155b6125c6576040517f08c379a00000000000000000000000000000000000000000000000000000000081526004016125bd90614eda565b60405180910390fd5b600060b460026125d69190614796565b9050600084036125f5578060036125ed9190614796565b925050612623565b600184036126125780600561260a9190614796565b925050612623565b80600a61261f9190614796565b9250505b50919050565b7f000000000000000000000000000000000000000000000000000000000000000073ffffffffffffffffffffffffffffffffffffffff163373ffffffffffffffffffffffffffffffffffffffff16146126b7576040517f08c379a00000000000000000000000000000000000000000000000000000000081526004016126ae90614895565b60405180910390fd5b6126c082610cfc565b806126d057506126cf8261133c565b5b15612710576040517f08c379a000000000000000000000000000000000000000000000000000000000815260040161270790614901565b60405180910390fd5b7f000000000000000000000000000000000000000000000000000000000000000073ffffffffffffffffffffffffffffffffffffffff1663c3ada2ed836040518263ffffffff1660e01b81526004016127699190613e2f565b600060405180830381865afa158015612786573d6000803e3d6000fd5b505050506040513d6000823e3d601f19601f820116820180604052508101906127af91906146ea565b610100015160b4600160116000868152602001908152602001600020546127d69190614aa4565b6127e09190614796565b03612820576040517f08c379a000000000000000000000000000000000000000000000000000000000815260040161281790614f46565b60405180910390fd5b600f600083815260200190815260200160002060116000848152602001908152602001600020548154811061285857612857614f66565b5b90600052602060002001548110156128a5576040517f08c379a000000000000000000000000000000000000000000000000000000000815260040161289c90614fe1565b60405180910390fd5b66b1a2bc2ec50000600f60008481526020019081526020016000206011600085815260200190815260200160002054815481106128e5576128e4614f66565b5b9060005260206000200154670de0b6b3a7640000600f600086815260200190815260200160002060116000878152602001908152602001600020548154811061293157612930614f66565b5b9060005260206000200154846129479190614762565b6129519190614796565b61295b9190614807565b111561299c576040517f08c379a00000000000000000000000000000000000000000000000000000000081526004016129939061504d565b60405180910390fd5b60007f000000000000000000000000000000000000000000000000000000000000000073ffffffffffffffffffffffffffffffffffffffff1663c3ada2ed846040518263ffffffff1660e01b81526004016129f79190613e2f565b600060405180830381865afa158015612a14573d6000803e3d6000fd5b505050506040513d6000823e3d601f19601f82011682018060405250810190612a3d91906146ea565b610120015182612a4d9190614796565b905080601060008581526020019081526020016000206000828254612a729190614aa4565b925050819055506201518060b4612a899190614796565b600e600085815260200190815260200160002054612aa79190614aa4565b600e6000858152602001908152602001600020819055506001601160008581526020019081526020016000206000828254612ae29190614aa4565b925050819055507f000000000000000000000000000000000000000000000000000000000000000073ffffffffffffffffffffffffffffffffffffffff166323b872dd3330846040518463ffffffff1660e01b8152600401612b4693929190614d1b565b6020604051808303816000875af1158015612b65573d6000803e3d6000fd5b505050506040513d601f19601f82011682018060405250810190612b8991906149e2565b50505050565b600063bc197c8160e01b905095945050505050565b6060600f6000838152602001908152602001600020805480602002602001604051908101604052809291908181526020018280548015612c0357602002820191906000526020600020905b815481526020019060010190808311612bef575b50505050509050919050565b612c1881610cfc565b158015612c2b5750612c2981611a88565b155b8015612c3c5750612c3b81610d26565b5b612c7b576040517f08c379a0000000000000000000000000000000000000000000000000000000008152600401612c72906150b9565b60405180910390fd5b6000612c86826119a2565b905060006103e882612c989190614807565b905060008183612ca89190614762565b9050600260008581526020019081526020016000205481612cc99190614807565b600660008681526020019081526020016000208190555081600460008681526020019081526020016000206000828254612d039190614762565b9250508190555060016009600086815260200190815260200160002060006101000a81548160ff0219169083151502179055507f000000000000000000000000000000000000000000000000000000000000000073ffffffffffffffffffffffffffffffffffffffff1663a9059cbb33846040518363ffffffff1660e01b8152600401612d9192919061498d565b6020604051808303816000875af1158015612db0573d6000803e3d6000fd5b505050506040513d601f19601f82011682018060405250810190612dd491906149e2565b50837fac2eeaf45d1b75aed6b3285cda3efb3c382cce02ba313558bbb90be57f8843e48483604051612e07929190614a7b565b60405180910390a250505050565b60608160008110158015612e2a575060028111155b612e69576040517f08c379a0000000000000000000000000000000000000000000000000000000008152600401612e6090614eda565b60405180910390fd5b6000612e748461320a565b905060008151905060008167ffffffffffffffff811115612e9857612e97613f28565b5b604051908082528060200260200182016040528015612ec65781602001602082028036833780820191505090505b50905060005b82811015612f38576064848281518110612ee957612ee8614f66565b5b602002602001015189612efc9190614796565b612f069190614807565b828281518110612f1957612f18614f66565b5b6020026020010181815250508080612f30906150d9565b915050612ecc565b508094505050505092915050565b6000600e6000838152602001908152602001600020549050919050565b60007f0000000000000000000000000000000000000000000000000000000000000000905090565b6000427f000000000000000000000000000000000000000000000000000000000000000073ffffffffffffffffffffffffffffffffffffffff1663c3ada2ed846040518263ffffffff1660e01b8152600401612fe79190613e2f565b600060405180830381865afa158015613004573d6000803e3d6000fd5b505050506040513d6000823e3d601f19601f8201168201806040525081019061302d91906146ea565b60a0015161303b9190614762565b9050919050565b7f000000000000000000000000000000000000000000000000000000000000000073ffffffffffffffffffffffffffffffffffffffff163373ffffffffffffffffffffffffffffffffffffffff16146130d0576040517f08c379a00000000000000000000000000000000000000000000000000000000081526004016130c790614895565b60405180910390fd5b6130d982610cfc565b806130e957506130e88261133c565b5b1580156130fc57506130fa82611a88565b155b61313b576040517f08c379a00000000000000000000000000000000000000000000000000000000081526004016131329061516d565b60405180910390fd5b8060046000848152602001908152602001600020600082825461315e9190614aa4565b925050819055507f000000000000000000000000000000000000000000000000000000000000000073ffffffffffffffffffffffffffffffffffffffff166323b872dd3330846040518463ffffffff1660e01b81526004016131c293929190614d1b565b6020604051808303816000875af11580156131e1573d6000803e3d6000fd5b505050506040513d601f19601f8201168201806040525081019061320591906149e2565b505050565b6060816000811015801561321f575060028111155b61325e576040517f08c379a000000000000000000000000000000000000000000000000000000000815260040161325590614eda565b60405180910390fd5b600083036132be57600b8054806020026020016040519081016040528092919081815260200182805480156132b257602002820191906000526020600020905b81548152602001906001019080831161329e575b50505050509150613372565b6001830361331e57600c80548060200260200160405190810160405280929190818152602001828054801561331257602002820191906000526020600020905b8154815260200190600101908083116132fe575b50505050509150613372565b600d80548060200260200160405190810160405280929190818152602001828054801561336a57602002820191906000526020600020905b815481526020019060010190808311613356575b505050505091505b50919050565b60007f000000000000000000000000000000000000000000000000000000000000000073ffffffffffffffffffffffffffffffffffffffff166370a08231306040518263ffffffff1660e01b81526004016133d39190613ecb565b602060405180830381865afa1580156133f0573d6000803e3d6000fd5b505050506040513d601f19601f820116820180604052508101906134149190614d52565b905090565b7f000000000000000000000000000000000000000000000000000000000000000073ffffffffffffffffffffffffffffffffffffffff163373ffffffffffffffffffffffffffffffffffffffff16146134a7576040517f08c379a000000000000000000000000000000000000000000000000000000000815260040161349e90614895565b60405180910390fd5b6134b081611a88565b80156134c157506134c081610fe2565b5b613500576040517f08c379a00000000000000000000000000000000000000000000000000000000081526004016134f790614901565b60405180910390fd5b6000600460008381526020019081526020016000205411613556576040517f08c379a000000000000000000000000000000000000000000000000000000000815260040161354d906151d9565b60405180910390fd5b600060046000838152602001908152602001600020819055507f000000000000000000000000000000000000000000000000000000000000000073ffffffffffffffffffffffffffffffffffffffff1663a9059cbb3360046000858152602001908152602001600020546040518363ffffffff1660e01b81526004016135dd92919061498d565b6020604051808303816000875af11580156135fc573d6000803e3d6000fd5b505050506040513d601f19601f8201168201806040525081019061362091906149e2565b5050565b600060106000838152602001908152602001600020549050919050565b600060046000838152602001908152602001600020549050919050565b600063f23a6e6160e01b905095945050505050565b60007f000000000000000000000000000000000000000000000000000000000000000073ffffffffffffffffffffffffffffffffffffffff163373ffffffffffffffffffffffffffffffffffffffff1614613703576040517f08c379a00000000000000000000000000000000000000000000000000000000081526004016136fa90614895565b60405180910390fd5b8360008110158015613716575060028111155b613755576040517f08c379a000000000000000000000000000000000000000000000000000000000815260040161374c90614eda565b60405180910390fd5b898910613797576040517f08c379a000000000000000000000000000000000000000000000000000000000815260040161378e90615245565b60405180910390fd5b60078411156137db576040517f08c379a00000000000000000000000000000000000000000000000000000000081526004016137d2906152b1565b60405180910390fd5b60006137e686612572565b90506137f2600a613c6e565b60006040518061018001604052808a8a8080601f016020809104026020016040519081016040528093929190818152602001838380828437600081840152601f19601f8201169050808301925050505050505081526020017f000000000000000000000000000000000000000000000000000000000000000073ffffffffffffffffffffffffffffffffffffffff1681526020013373ffffffffffffffffffffffffffffffffffffffff1681526020018b815260200142815260200162015180846138bd9190614796565b426138c89190614aa4565b815260200162015180886138dc9190614796565b426138e79190614aa4565b81526020018781526020018381526020018d81526020018c81526020018681525090507f000000000000000000000000000000000000000000000000000000000000000073ffffffffffffffffffffffffffffffffffffffff166310e28d47308e846040518463ffffffff1660e01b815260040161396793929190615439565b6020604051808303816000875af1158015613986573d6000803e3d6000fd5b505050506040513d601f19601f820116820180604052508101906139aa9190614d52565b9350600184908060018154018082558091505060019003906000526020600020016000909190919091505560016007600086815260200190815260200160002060006101000a81548160ff0219169083151502179055506201518060b4613a119190614796565b42613a1c9190614aa4565b600e600086815260200190815260200160002081905550613a3d8a88612e15565b600f60008681526020019081526020016000209080519060200190613a63929190613c84565b507f000000000000000000000000000000000000000000000000000000000000000073ffffffffffffffffffffffffffffffffffffffff1663b54cb16560036040518263ffffffff1660e01b8152600401613abe9190613e2f565b600060405180830381600087803b158015613ad857600080fd5b505af1158015613aec573d6000803e3d6000fd5b505050507f000000000000000000000000000000000000000000000000000000000000000073ffffffffffffffffffffffffffffffffffffffff1663bea75cf47f000000000000000000000000000000000000000000000000000000000000000060036040518363ffffffff1660e01b8152600401613b6c92919061498d565b600060405180830381600087803b158015613b8657600080fd5b505af1158015613b9a573d6000803e3d6000fd5b50505050837ff73e436c94925e1e8b2f0b16de0a2c56aea7fb27878f7815811bc05bc6c335e88d8c886201518087613bd29190614796565b42613bdd9190614aa4565b604051613bed9493929190615477565b60405180910390a250505098975050505050505050565b60007f01ffc9a7000000000000000000000000000000000000000000000000000000007bffffffffffffffffffffffffffffffffffffffffffffffffffffffff1916827bffffffffffffffffffffffffffffffffffffffffffffffffffffffff1916149050919050565b6001816000016000828254019250508190555050565b828054828255906000526020600020908101928215613cc0579160200282015b82811115613cbf578251825591602001919060010190613ca4565b5b509050613ccd9190613cd1565b5090565b5b80821115613cea576000816000905550600101613cd2565b5090565b6000604051905090565b600080fd5b600080fd5b60007fffffffff0000000000000000000000000000000000000000000000000000000082169050919050565b613d3781613d02565b8114613d4257600080fd5b50565b600081359050613d5481613d2e565b92915050565b600060208284031215613d7057613d6f613cf8565b5b6000613d7e84828501613d45565b91505092915050565b60008115159050919050565b613d9c81613d87565b82525050565b6000602082019050613db76000830184613d93565b92915050565b6000819050919050565b613dd081613dbd565b8114613ddb57600080fd5b50565b600081359050613ded81613dc7565b92915050565b600060208284031215613e0957613e08613cf8565b5b6000613e1784828501613dde565b91505092915050565b613e2981613dbd565b82525050565b6000602082019050613e446000830184613e20565b92915050565b60008060408385031215613e6157613e60613cf8565b5b6000613e6f85828601613dde565b9250506020613e8085828601613dde565b9150509250929050565b600073ffffffffffffffffffffffffffffffffffffffff82169050919050565b6000613eb582613e8a565b9050919050565b613ec581613eaa565b82525050565b6000602082019050613ee06000830184613ebc565b92915050565b613eef81613eaa565b8114613efa57600080fd5b50565b600081359050613f0c81613ee6565b92915050565b600080fd5b6000601f19601f8301169050919050565b7f4e487b7100000000000000000000000000000000000000000000000000000000600052604160045260246000fd5b613f6082613f17565b810181811067ffffffffffffffff82111715613f7f57613f7e613f28565b5b80604052505050565b6000613f92613cee565b9050613f9e8282613f57565b919050565b600067ffffffffffffffff821115613fbe57613fbd613f28565b5b602082029050602081019050919050565b600080fd5b6000613fe7613fe284613fa3565b613f88565b9050808382526020820190506020840283018581111561400a57614009613fcf565b5b835b81811015614033578061401f8882613dde565b84526020840193505060208101905061400c565b5050509392505050565b600082601f83011261405257614051613f12565b5b8135614062848260208601613fd4565b91505092915050565b600080fd5b600067ffffffffffffffff82111561408b5761408a613f28565b5b61409482613f17565b9050602081019050919050565b82818337600083830152505050565b60006140c36140be84614070565b613f88565b9050828152602081018484840111156140df576140de61406b565b5b6140ea8482856140a1565b509392505050565b600082601f83011261410757614106613f12565b5b81356141178482602086016140b0565b91505092915050565b600080600080600060a0868803121561413c5761413b613cf8565b5b600061414a88828901613efd565b955050602061415b88828901613efd565b945050604086013567ffffffffffffffff81111561417c5761417b613cfd565b5b6141888882890161403d565b935050606086013567ffffffffffffffff8111156141a9576141a8613cfd565b5b6141b58882890161403d565b925050608086013567ffffffffffffffff8111156141d6576141d5613cfd565b5b6141e2888289016140f2565b9150509295509295909350565b6141f881613d02565b82525050565b600060208201905061421360008301846141ef565b92915050565b600081519050919050565b600082825260208201905092915050565b6000819050602082019050919050565b61424e81613dbd565b82525050565b60006142608383614245565b60208301905092915050565b6000602082019050919050565b600061428482614219565b61428e8185614224565b935061429983614235565b8060005b838110156142ca5781516142b18882614254565b97506142bc8361426c565b92505060018101905061429d565b5085935050505092915050565b600060208201905081810360008301526142f18184614279565b905092915050565b600080600080600060a0868803121561431557614314613cf8565b5b600061432388828901613efd565b955050602061433488828901613efd565b945050604061434588828901613dde565b935050606061435688828901613dde565b925050608086013567ffffffffffffffff81111561437757614376613cfd565b5b614383888289016140f2565b9150509295509295909350565b600080fd5b60008083601f8401126143ab576143aa613f12565b5b8235905067ffffffffffffffff8111156143c8576143c7614390565b5b6020830191508360018202830111156143e4576143e3613fcf565b5b9250929050565b60008060008060008060008060e0898b03121561440b5761440a613cf8565b5b60006144198b828c01613dde565b985050602061442a8b828c01613dde565b975050604061443b8b828c01613dde565b965050606089013567ffffffffffffffff81111561445c5761445b613cfd565b5b6144688b828c01614395565b9550955050608061447b8b828c01613dde565b93505060a061448c8b828c01613dde565b92505060c061449d8b828c01613dde565b9150509295985092959890939650565b600080fd5b600080fd5b600067ffffffffffffffff8211156144d2576144d1613f28565b5b6144db82613f17565b9050602081019050919050565b60005b838110156145065780820151818401526020810190506144eb565b60008484015250505050565b6000614525614520846144b7565b613f88565b9050828152602081018484840111156145415761454061406b565b5b61454c8482856144e8565b509392505050565b600082601f83011261456957614568613f12565b5b8151614579848260208601614512565b91505092915050565b60008151905061459181613ee6565b92915050565b6000815190506145a681613dc7565b92915050565b600061018082840312156145c3576145c26144ad565b5b6145ce610180613f88565b9050600082015167ffffffffffffffff8111156145ee576145ed6144b2565b5b6145fa84828501614554565b600083015250602061460e84828501614582565b602083015250604061462284828501614582565b604083015250606061463684828501614597565b606083015250608061464a84828501614597565b60808301525060a061465e84828501614597565b60a08301525060c061467284828501614597565b60c08301525060e061468684828501614597565b60e08301525061010061469b84828501614597565b610100830152506101206146b184828501614597565b610120830152506101406146c784828501614597565b610140830152506101606146dd84828501614597565b6101608301525092915050565b600060208284031215614700576146ff613cf8565b5b600082015167ffffffffffffffff81111561471e5761471d613cfd565b5b61472a848285016145ac565b91505092915050565b7f4e487b7100000000000000000000000000000000000000000000000000000000600052601160045260246000fd5b600061476d82613dbd565b915061477883613dbd565b92508282039050818111156147905761478f614733565b5b92915050565b60006147a182613dbd565b91506147ac83613dbd565b92508282026147ba81613dbd565b915082820484148315176147d1576147d0614733565b5b5092915050565b7f4e487b7100000000000000000000000000000000000000000000000000000000600052601260045260246000fd5b600061481282613dbd565b915061481d83613dbd565b92508261482d5761482c6147d8565b5b828204905092915050565b600082825260208201905092915050565b7f4e544f0000000000000000000000000000000000000000000000000000000000600082015250565b600061487f600383614838565b915061488a82614849565b602082019050919050565b600060208201905081810360008301526148ae81614872565b9050919050565b7f574e410000000000000000000000000000000000000000000000000000000000600082015250565b60006148eb600383614838565b91506148f6826148b5565b602082019050919050565b6000602082019050818103600083015261491a816148de565b9050919050565b7f5741450000000000000000000000000000000000000000000000000000000000600082015250565b6000614957600383614838565b915061496282614921565b602082019050919050565b600060208201905081810360008301526149868161494a565b9050919050565b60006040820190506149a26000830185613ebc565b6149af6020830184613e20565b9392505050565b6149bf81613d87565b81146149ca57600080fd5b50565b6000815190506149dc816149b6565b92915050565b6000602082840312156149f8576149f7613cf8565b5b6000614a06848285016149cd565b91505092915050565b7f504d444e41000000000000000000000000000000000000000000000000000000600082015250565b6000614a45600583614838565b9150614a5082614a0f565b602082019050919050565b60006020820190508181036000830152614a7481614a38565b9050919050565b6000604082019050614a906000830185613e20565b614a9d6020830184613e20565b9392505050565b6000614aaf82613dbd565b9150614aba83613dbd565b9250828201905080821115614ad257614ad1614733565b5b92915050565b7f4942000000000000000000000000000000000000000000000000000000000000600082015250565b6000614b0e600283614838565b9150614b1982614ad8565b602082019050919050565b60006020820190508181036000830152614b3d81614b01565b9050919050565b7f4951000000000000000000000000000000000000000000000000000000000000600082015250565b6000614b7a600283614838565b9150614b8582614b44565b602082019050919050565b60006020820190508181036000830152614ba981614b6d565b9050919050565b6000604082019050614bc56000830185613e20565b614bd26020830184613ebc565b9392505050565b6000606082019050614bee6000830186613e20565b614bfb6020830185613ebc565b614c086040830184613ebc565b949350505050565b6000608082019050614c256000830187613e20565b614c326020830186613ebc565b614c3f6040830185613ebc565b614c4c6060830184613e20565b95945050505050565b6000606082019050614c6a6000830186613e20565b614c776020830185613ebc565b614c846040830184613e20565b949350505050565b600082825260208201905092915050565b50565b6000614cad600083614c8c565b9150614cb882614c9d565b600082019050919050565b600060a082019050614cd86000830187613ebc565b614ce56020830186613ebc565b614cf26040830185613e20565b614cff6060830184613e20565b8181036080830152614d1081614ca0565b905095945050505050565b6000606082019050614d306000830186613ebc565b614d3d6020830185613ebc565b614d4a6040830184613e20565b949350505050565b600060208284031215614d6857614d67613cf8565b5b6000614d7684828501614597565b91505092915050565b7f524e410000000000000000000000000000000000000000000000000000000000600082015250565b6000614db5600383614838565b9150614dc082614d7f565b602082019050919050565b60006020820190508181036000830152614de481614da8565b9050919050565b6000606082019050614e006000830186613ebc565b614e0d6020830185613e20565b614e1a6040830184613e20565b949350505050565b7f4d41444e41000000000000000000000000000000000000000000000000000000600082015250565b6000614e58600583614838565b9150614e6382614e22565b602082019050919050565b60006020820190508181036000830152614e8781614e4b565b9050919050565b7f49594f0000000000000000000000000000000000000000000000000000000000600082015250565b6000614ec4600383614838565b9150614ecf82614e8e565b602082019050919050565b60006020820190508181036000830152614ef381614eb7565b9050919050565b7f4f41460000000000000000000000000000000000000000000000000000000000600082015250565b6000614f30600383614838565b9150614f3b82614efa565b602082019050919050565b60006020820190508181036000830152614f5f81614f23565b9050919050565b7f4e487b7100000000000000000000000000000000000000000000000000000000600052603260045260246000fd5b7f4d4f4e4600000000000000000000000000000000000000000000000000000000600082015250565b6000614fcb600483614838565b9150614fd682614f95565b602082019050919050565b60006020820190508181036000830152614ffa81614fbe565b9050919050565b7f454d460000000000000000000000000000000000000000000000000000000000600082015250565b6000615037600383614838565b915061504282615001565b602082019050919050565b600060208201905081810360008301526150668161502a565b9050919050565b7f4d41434e41000000000000000000000000000000000000000000000000000000600082015250565b60006150a3600583614838565b91506150ae8261506d565b602082019050919050565b600060208201905081810360008301526150d281615096565b9050919050565b60006150e482613dbd565b91507fffffffffffffffffffffffffffffffffffffffffffffffffffffffffffffffff820361511657615115614733565b5b600182019050919050565b7f444e410000000000000000000000000000000000000000000000000000000000600082015250565b6000615157600383614838565b915061516282615121565b602082019050919050565b600060208201905081810360008301526151868161514a565b9050919050565b7f5746450000000000000000000000000000000000000000000000000000000000600082015250565b60006151c3600383614838565b91506151ce8261518d565b602082019050919050565b600060208201905081810360008301526151f2816151b6565b9050919050565b7f4d50514754425100000000000000000000000000000000000000000000000000600082015250565b600061522f600783614838565b915061523a826151f9565b602082019050919050565b6000602082019050818103600083015261525e81615222565b9050919050565b7f4144413744000000000000000000000000000000000000000000000000000000600082015250565b600061529b600583614838565b91506152a682615265565b602082019050919050565b600060208201905081810360008301526152ca8161528e565b9050919050565b600081519050919050565b600082825260208201905092915050565b60006152f8826152d1565b61530281856152dc565b93506153128185602086016144e8565b61531b81613f17565b840191505092915050565b61532f81613eaa565b82525050565b600061018083016000830151848203600086015261535382826152ed565b91505060208301516153686020860182615326565b50604083015161537b6040860182615326565b50606083015161538e6060860182614245565b5060808301516153a16080860182614245565b5060a08301516153b460a0860182614245565b5060c08301516153c760c0860182614245565b5060e08301516153da60e0860182614245565b506101008301516153ef610100860182614245565b50610120830151615404610120860182614245565b50610140830151615419610140860182614245565b5061016083015161542e610160860182614245565b508091505092915050565b600060608201905061544e6000830186613ebc565b61545b6020830185613e20565b818103604083015261546d8184615335565b9050949350505050565b600060808201905061548c6000830187613e20565b6154996020830186613e20565b6154a66040830185613e20565b6154b36060830184613e20565b9594505050505056fea264697066735822122085da3ed7ca3cad86212b16aafcc12a357e2a4465975d1d01b9c18b10ce0e4e2764736f6c63430008110033",
  "linkReferences": {},
  "deployedLinkReferences": {}
}