{
  "_format": "hh-sol-artifact-1",
  "contractName": "InstallmentBondFactory",
  "sourceName": "contracts/InstallmentBondFactory.sol",
  "abi": [
    {
      "inputs": [
        {
          "internalType": "string",
          "name": "uri",
          "type": "string"
        },
        {
          "internalType": "address",
          "name": "token",
          "type": "address"
        },
        {
          "internalType": "address",
          "name": "deployer",
          "type": "address"
        }
      ],
      "stateMutability": "nonpayable",
      "type": "constructor"
    },
    {
      "anonymous": false,
      "inputs": [
        {
          "indexed": true,
          "internalType": "address",
          "name": "account",
          "type": "address"
        },
        {
          "indexed": true,
          "internalType": "address",
          "name": "operator",
          "type": "address"
        },
        {
          "indexed": false,
          "internalType": "bool",
          "name": "approved",
          "type": "bool"
        }
      ],
      "name": "ApprovalForAll",
      "type": "event"
    },
    {
      "anonymous": false,
      "inputs": [
        {
          "indexed": true,
          "internalType": "uint256",
          "name": "id",
          "type": "uint256"
        },
        {
          "indexed": false,
          "internalType": "uint256",
          "name": "totalDebt",
          "type": "uint256"
        },
        {
          "indexed": false,
          "internalType": "uint256",
          "name": "paidDebt",
          "type": "uint256"
        }
      ],
      "name": "Completed",
      "type": "event"
    },
    {
      "anonymous": false,
      "inputs": [
        {
          "indexed": true,
          "internalType": "uint256",
          "name": "id",
          "type": "uint256"
        },
        {
          "indexed": false,
          "internalType": "uint256",
          "name": "totalDebt",
          "type": "uint256"
        },
        {
          "indexed": false,
          "internalType": "uint256",
          "name": "paidDebt",
          "type": "uint256"
        }
      ],
      "name": "Defaulted",
      "type": "event"
    },
    {
      "anonymous": false,
      "inputs": [
        {
          "indexed": true,
          "internalType": "uint256",
          "name": "id",
          "type": "uint256"
        },
        {
          "indexed": false,
          "internalType": "uint256",
          "name": "bondQuantity",
          "type": "uint256"
        },
        {
          "indexed": false,
          "internalType": "uint256",
          "name": "tokenAmountPerBond",
          "type": "uint256"
        },
        {
          "indexed": false,
          "internalType": "uint256",
          "name": "couponRate",
          "type": "uint256"
        },
        {
          "indexed": false,
          "internalType": "uint256",
          "name": "maturityDate",
          "type": "uint256"
        }
      ],
      "name": "Issued",
      "type": "event"
    },
    {
      "anonymous": false,
      "inputs": [
        {
          "indexed": true,
          "internalType": "address",
          "name": "operator",
          "type": "address"
        },
        {
          "indexed": true,
          "internalType": "address",
          "name": "from",
          "type": "address"
        },
        {
          "indexed": true,
          "internalType": "address",
          "name": "to",
          "type": "address"
        },
        {
          "indexed": false,
          "internalType": "uint256[]",
          "name": "ids",
          "type": "uint256[]"
        },
        {
          "indexed": false,
          "internalType": "uint256[]",
          "name": "values",
          "type": "uint256[]"
        }
      ],
      "name": "TransferBatch",
      "type": "event"
    },
    {
      "anonymous": false,
      "inputs": [
        {
          "indexed": true,
          "internalType": "address",
          "name": "operator",
          "type": "address"
        },
        {
          "indexed": true,
          "internalType": "address",
          "name": "from",
          "type": "address"
        },
        {
          "indexed": true,
          "internalType": "address",
          "name": "to",
          "type": "address"
        },
        {
          "indexed": false,
          "internalType": "uint256",
          "name": "id",
          "type": "uint256"
        },
        {
          "indexed": false,
          "internalType": "uint256",
          "name": "value",
          "type": "uint256"
        }
      ],
      "name": "TransferSingle",
      "type": "event"
    },
    {
      "anonymous": false,
      "inputs": [
        {
          "indexed": false,
          "internalType": "string",
          "name": "value",
          "type": "string"
        },
        {
          "indexed": true,
          "internalType": "uint256",
          "name": "id",
          "type": "uint256"
        }
      ],
      "name": "URI",
      "type": "event"
    },
    {
      "inputs": [
        {
          "internalType": "address",
          "name": "account",
          "type": "address"
        },
        {
          "internalType": "uint256",
          "name": "id",
          "type": "uint256"
        }
      ],
      "name": "balanceOf",
      "outputs": [
        {
          "internalType": "uint256",
          "name": "",
          "type": "uint256"
        }
      ],
      "stateMutability": "view",
      "type": "function"
    },
    {
      "inputs": [
        {
          "internalType": "address[]",
          "name": "accounts",
          "type": "address[]"
        },
        {
          "internalType": "uint256[]",
          "name": "ids",
          "type": "uint256[]"
        }
      ],
      "name": "balanceOfBatch",
      "outputs": [
        {
          "internalType": "uint256[]",
          "name": "",
          "type": "uint256[]"
        }
      ],
      "stateMutability": "view",
      "type": "function"
    },
    {
      "inputs": [],
      "name": "baseToken",
      "outputs": [
        {
          "internalType": "address",
          "name": "",
          "type": "address"
        }
      ],
      "stateMutability": "view",
      "type": "function"
    },
    {
      "inputs": [
        {
          "internalType": "uint256",
          "name": "id",
          "type": "uint256"
        }
      ],
      "name": "bondMetadata",
      "outputs": [
        {
          "internalType": "string",
          "name": "",
          "type": "string"
        },
        {
          "internalType": "uint256",
          "name": "",
          "type": "uint256"
        },
        {
          "internalType": "uint256",
          "name": "",
          "type": "uint256"
        },
        {
          "internalType": "uint256",
          "name": "",
          "type": "uint256"
        },
        {
          "internalType": "uint256",
          "name": "",
          "type": "uint256"
        },
        {
          "internalType": "uint256",
          "name": "",
          "type": "uint256"
        },
        {
          "internalType": "uint256",
          "name": "",
          "type": "uint256"
        },
        {
          "internalType": "uint256",
          "name": "",
          "type": "uint256"
        },
        {
          "internalType": "uint256",
          "name": "",
          "type": "uint256"
        },
        {
          "internalType": "uint256",
          "name": "",
          "type": "uint256"
        }
      ],
      "stateMutability": "view",
      "type": "function"
    },
    {
      "inputs": [
        {
          "internalType": "uint256",
          "name": "id",
          "type": "uint256"
        }
      ],
      "name": "couponRate",
      "outputs": [
        {
          "internalType": "uint256",
          "name": "",
          "type": "uint256"
        }
      ],
      "stateMutability": "view",
      "type": "function"
    },
    {
      "inputs": [
        {
          "internalType": "uint256",
          "name": "id",
          "type": "uint256"
        },
        {
          "internalType": "uint256",
          "name": "tokenAmount",
          "type": "uint256"
        }
      ],
      "name": "deposit",
      "outputs": [],
      "stateMutability": "nonpayable",
      "type": "function"
    },
    {
      "inputs": [
        {
          "internalType": "uint256",
          "name": "id",
          "type": "uint256"
        }
      ],
      "name": "designatedTokenPool",
      "outputs": [
        {
          "internalType": "uint256",
          "name": "",
          "type": "uint256"
        }
      ],
      "stateMutability": "view",
      "type": "function"
    },
    {
      "inputs": [
        {
          "internalType": "uint256",
          "name": "id",
          "type": "uint256"
        },
        {
          "internalType": "uint256",
          "name": "tokenAmountPerBond",
          "type": "uint256"
        }
      ],
      "name": "fulfillObligationsAndLock",
      "outputs": [],
      "stateMutability": "nonpayable",
      "type": "function"
    },
    {
      "inputs": [],
      "name": "fundsRaised",
      "outputs": [
        {
          "internalType": "uint256",
          "name": "",
          "type": "uint256"
        }
      ],
      "stateMutability": "view",
      "type": "function"
    },
    {
      "inputs": [
        {
          "internalType": "uint256",
          "name": "id",
          "type": "uint256"
        }
      ],
      "name": "hasReachedMaturity",
      "outputs": [
        {
          "internalType": "bool",
          "name": "",
          "type": "bool"
        }
      ],
      "stateMutability": "view",
      "type": "function"
    },
    {
      "inputs": [
        {
          "internalType": "uint256",
          "name": "id",
          "type": "uint256"
        }
      ],
      "name": "isActive",
      "outputs": [
        {
          "internalType": "bool",
          "name": "",
          "type": "bool"
        }
      ],
      "stateMutability": "view",
      "type": "function"
    },
    {
      "inputs": [
        {
          "internalType": "address",
          "name": "account",
          "type": "address"
        },
        {
          "internalType": "address",
          "name": "operator",
          "type": "address"
        }
      ],
      "name": "isApprovedForAll",
      "outputs": [
        {
          "internalType": "bool",
          "name": "",
          "type": "bool"
        }
      ],
      "stateMutability": "view",
      "type": "function"
    },
    {
      "inputs": [
        {
          "internalType": "uint256",
          "name": "id",
          "type": "uint256"
        }
      ],
      "name": "isCanceled",
      "outputs": [
        {
          "internalType": "bool",
          "name": "",
          "type": "bool"
        }
      ],
      "stateMutability": "view",
      "type": "function"
    },
    {
      "inputs": [
        {
          "internalType": "uint256",
          "name": "id",
          "type": "uint256"
        }
      ],
      "name": "isCompleted",
      "outputs": [
        {
          "internalType": "bool",
          "name": "",
          "type": "bool"
        }
      ],
      "stateMutability": "view",
      "type": "function"
    },
    {
      "inputs": [
        {
          "internalType": "uint256",
          "name": "id",
          "type": "uint256"
        }
      ],
      "name": "isCompletedInTheory",
      "outputs": [
        {
          "internalType": "bool",
          "name": "",
          "type": "bool"
        }
      ],
      "stateMutability": "view",
      "type": "function"
    },
    {
      "inputs": [
        {
          "internalType": "uint256",
          "name": "id",
          "type": "uint256"
        }
      ],
      "name": "isDefaulted",
      "outputs": [
        {
          "internalType": "bool",
          "name": "",
          "type": "bool"
        }
      ],
      "stateMutability": "view",
      "type": "function"
    },
    {
      "inputs": [
        {
          "internalType": "uint256",
          "name": "id",
          "type": "uint256"
        }
      ],
      "name": "isDefaultedInTheory",
      "outputs": [
        {
          "internalType": "bool",
          "name": "",
          "type": "bool"
        }
      ],
      "stateMutability": "view",
      "type": "function"
    },
    {
      "inputs": [
        {
          "internalType": "uint256",
          "name": "id",
          "type": "uint256"
        }
      ],
      "name": "isFulfilled",
      "outputs": [
        {
          "internalType": "bool",
          "name": "",
          "type": "bool"
        }
      ],
      "stateMutability": "view",
      "type": "function"
    },
    {
      "inputs": [
        {
          "internalType": "uint256",
          "name": "id",
          "type": "uint256"
        }
      ],
      "name": "isFullyRedeemed",
      "outputs": [
        {
          "internalType": "bool",
          "name": "",
          "type": "bool"
        }
      ],
      "stateMutability": "view",
      "type": "function"
    },
    {
      "inputs": [
        {
          "internalType": "uint256",
          "name": "bondQuantity",
          "type": "uint256"
        },
        {
          "internalType": "uint256",
          "name": "minPurchasedQuantity",
          "type": "uint256"
        },
        {
          "internalType": "uint256",
          "name": "tokenAmountPerBond",
          "type": "uint256"
        },
        {
          "internalType": "string",
          "name": "ticker",
          "type": "string"
        },
        {
          "internalType": "uint256",
          "name": "yearOption",
          "type": "uint256"
        },
        {
          "internalType": "uint256",
          "name": "activeDurationInDays",
          "type": "uint256"
        },
        {
          "internalType": "uint256",
          "name": "rate",
          "type": "uint256"
        },
        {
          "internalType": "bytes",
          "name": "data",
          "type": "bytes"
        }
      ],
      "name": "issue",
      "outputs": [
        {
          "internalType": "uint256",
          "name": "id",
          "type": "uint256"
        }
      ],
      "stateMutability": "nonpayable",
      "type": "function"
    },
    {
      "inputs": [
        {
          "internalType": "uint256",
          "name": "id",
          "type": "uint256"
        }
      ],
      "name": "lockedTokenAmount",
      "outputs": [
        {
          "internalType": "uint256",
          "name": "",
          "type": "uint256"
        }
      ],
      "stateMutability": "view",
      "type": "function"
    },
    {
      "inputs": [
        {
          "internalType": "uint256",
          "name": "id",
          "type": "uint256"
        }
      ],
      "name": "lockedTokenAmountPerBond",
      "outputs": [
        {
          "internalType": "uint256",
          "name": "",
          "type": "uint256"
        }
      ],
      "stateMutability": "view",
      "type": "function"
    },
    {
      "inputs": [
        {
          "internalType": "uint256",
          "name": "id",
          "type": "uint256"
        }
      ],
      "name": "markAsCompleted",
      "outputs": [],
      "stateMutability": "nonpayable",
      "type": "function"
    },
    {
      "inputs": [
        {
          "internalType": "uint256",
          "name": "id",
          "type": "uint256"
        }
      ],
      "name": "markAsDefaulted",
      "outputs": [],
      "stateMutability": "nonpayable",
      "type": "function"
    },
    {
      "inputs": [
        {
          "internalType": "uint256",
          "name": "id",
          "type": "uint256"
        }
      ],
      "name": "minObligationTokenAmountPerBondList",
      "outputs": [
        {
          "internalType": "uint256[]",
          "name": "",
          "type": "uint256[]"
        }
      ],
      "stateMutability": "view",
      "type": "function"
    },
    {
      "inputs": [
        {
          "internalType": "uint256",
          "name": "id",
          "type": "uint256"
        }
      ],
      "name": "nextObligationDate",
      "outputs": [
        {
          "internalType": "uint256",
          "name": "",
          "type": "uint256"
        }
      ],
      "stateMutability": "view",
      "type": "function"
    },
    {
      "inputs": [
        {
          "internalType": "uint256",
          "name": "id",
          "type": "uint256"
        }
      ],
      "name": "numberOfTimesFulfilled",
      "outputs": [
        {
          "internalType": "uint256",
          "name": "",
          "type": "uint256"
        }
      ],
      "stateMutability": "view",
      "type": "function"
    },
    {
      "inputs": [],
      "name": "owner",
      "outputs": [
        {
          "internalType": "address",
          "name": "",
          "type": "address"
        }
      ],
      "stateMutability": "view",
      "type": "function"
    },
    {
      "inputs": [
        {
          "internalType": "uint256",
          "name": "id",
          "type": "uint256"
        }
      ],
      "name": "poolAmount",
      "outputs": [
        {
          "internalType": "uint256",
          "name": "",
          "type": "uint256"
        }
      ],
      "stateMutability": "view",
      "type": "function"
    },
    {
      "inputs": [
        {
          "internalType": "uint256",
          "name": "id",
          "type": "uint256"
        }
      ],
      "name": "principal",
      "outputs": [
        {
          "internalType": "uint256",
          "name": "",
          "type": "uint256"
        }
      ],
      "stateMutability": "view",
      "type": "function"
    },
    {
      "inputs": [
        {
          "internalType": "uint256",
          "name": "id",
          "type": "uint256"
        }
      ],
      "name": "principalWithInterest",
      "outputs": [
        {
          "internalType": "uint256",
          "name": "",
          "type": "uint256"
        }
      ],
      "stateMutability": "view",
      "type": "function"
    },
    {
      "inputs": [
        {
          "internalType": "uint256",
          "name": "id",
          "type": "uint256"
        },
        {
          "internalType": "uint256",
          "name": "bondQuantity",
          "type": "uint256"
        }
      ],
      "name": "purchase",
      "outputs": [],
      "stateMutability": "nonpayable",
      "type": "function"
    },
    {
      "inputs": [
        {
          "internalType": "uint256",
          "name": "id",
          "type": "uint256"
        },
        {
          "internalType": "uint256",
          "name": "bondQuantity",
          "type": "uint256"
        }
      ],
      "name": "redeem",
      "outputs": [],
      "stateMutability": "nonpayable",
      "type": "function"
    },
    {
      "inputs": [
        {
          "internalType": "uint256",
          "name": "id",
          "type": "uint256"
        },
        {
          "internalType": "uint256",
          "name": "bondQuantity",
          "type": "uint256"
        }
      ],
      "name": "redeemCanceled",
      "outputs": [],
      "stateMutability": "nonpayable",
      "type": "function"
    },
    {
      "inputs": [
        {
          "internalType": "uint256",
          "name": "id",
          "type": "uint256"
        },
        {
          "internalType": "uint256",
          "name": "bondQuantity",
          "type": "uint256"
        }
      ],
      "name": "redeemDefaulted",
      "outputs": [],
      "stateMutability": "nonpayable",
      "type": "function"
    },
    {
      "inputs": [
        {
          "internalType": "uint256",
          "name": "id",
          "type": "uint256"
        }
      ],
      "name": "remainingQuantity",
      "outputs": [
        {
          "internalType": "uint256",
          "name": "",
          "type": "uint256"
        }
      ],
      "stateMutability": "view",
      "type": "function"
    },
    {
      "inputs": [
        {
          "internalType": "uint256",
          "name": "tokenAmountPerBond",
          "type": "uint256"
        },
        {
          "internalType": "uint256",
          "name": "yearOption",
          "type": "uint256"
        }
      ],
      "name": "retrieveMinObligationList",
      "outputs": [
        {
          "internalType": "uint256[]",
          "name": "",
          "type": "uint256[]"
        }
      ],
      "stateMutability": "view",
      "type": "function"
    },
    {
      "inputs": [
        {
          "internalType": "address",
          "name": "from",
          "type": "address"
        },
        {
          "internalType": "address",
          "name": "to",
          "type": "address"
        },
        {
          "internalType": "uint256[]",
          "name": "ids",
          "type": "uint256[]"
        },
        {
          "internalType": "uint256[]",
          "name": "amounts",
          "type": "uint256[]"
        },
        {
          "internalType": "bytes",
          "name": "data",
          "type": "bytes"
        }
      ],
      "name": "safeBatchTransferFrom",
      "outputs": [],
      "stateMutability": "nonpayable",
      "type": "function"
    },
    {
      "inputs": [
        {
          "internalType": "address",
          "name": "from",
          "type": "address"
        },
        {
          "internalType": "address",
          "name": "to",
          "type": "address"
        },
        {
          "internalType": "uint256",
          "name": "id",
          "type": "uint256"
        },
        {
          "internalType": "uint256",
          "name": "amount",
          "type": "uint256"
        },
        {
          "internalType": "bytes",
          "name": "data",
          "type": "bytes"
        }
      ],
      "name": "safeTransferFrom",
      "outputs": [],
      "stateMutability": "nonpayable",
      "type": "function"
    },
    {
      "inputs": [
        {
          "internalType": "address",
          "name": "operator",
          "type": "address"
        },
        {
          "internalType": "bool",
          "name": "approved",
          "type": "bool"
        }
      ],
      "name": "setApprovalForAll",
      "outputs": [],
      "stateMutability": "nonpayable",
      "type": "function"
    },
    {
      "inputs": [
        {
          "internalType": "bytes4",
          "name": "interfaceId",
          "type": "bytes4"
        }
      ],
      "name": "supportsInterface",
      "outputs": [
        {
          "internalType": "bool",
          "name": "",
          "type": "bool"
        }
      ],
      "stateMutability": "view",
      "type": "function"
    },
    {
      "inputs": [
        {
          "internalType": "uint256",
          "name": "id",
          "type": "uint256"
        }
      ],
      "name": "timeElapsed",
      "outputs": [
        {
          "internalType": "uint256",
          "name": "",
          "type": "uint256"
        }
      ],
      "stateMutability": "view",
      "type": "function"
    },
    {
      "inputs": [
        {
          "internalType": "uint256",
          "name": "id",
          "type": "uint256"
        }
      ],
      "name": "timeRemainingToEndOfActive",
      "outputs": [
        {
          "internalType": "uint256",
          "name": "",
          "type": "uint256"
        }
      ],
      "stateMutability": "view",
      "type": "function"
    },
    {
      "inputs": [
        {
          "internalType": "uint256",
          "name": "id",
          "type": "uint256"
        }
      ],
      "name": "timeRemainingToMaturity",
      "outputs": [
        {
          "internalType": "uint256",
          "name": "",
          "type": "uint256"
        }
      ],
      "stateMutability": "view",
      "type": "function"
    },
    {
      "inputs": [],
      "name": "tvl",
      "outputs": [
        {
          "internalType": "uint256",
          "name": "",
          "type": "uint256"
        }
      ],
      "stateMutability": "view",
      "type": "function"
    },
    {
      "inputs": [
        {
          "internalType": "uint256",
          "name": "",
          "type": "uint256"
        }
      ],
      "name": "uri",
      "outputs": [
        {
          "internalType": "string",
          "name": "",
          "type": "string"
        }
      ],
      "stateMutability": "view",
      "type": "function"
    },
    {
      "inputs": [
        {
          "internalType": "uint256",
          "name": "id",
          "type": "uint256"
        },
        {
          "internalType": "uint256",
          "name": "tokenAmount",
          "type": "uint256"
        }
      ],
      "name": "withdraw",
      "outputs": [],
      "stateMutability": "nonpayable",
      "type": "function"
    },
    {
      "inputs": [
        {
          "internalType": "uint256",
          "name": "id",
          "type": "uint256"
        }
      ],
      "name": "withdrawExcess",
      "outputs": [],
      "stateMutability": "nonpayable",
      "type": "function"
    },
    {
      "inputs": [
        {
          "internalType": "uint256",
          "name": "option",
          "type": "uint256"
        }
      ],
      "name": "yearOptionToDays",
      "outputs": [
        {
          "internalType": "uint256",
          "name": "",
          "type": "uint256"
        }
      ],
      "stateMutability": "pure",
      "type": "function"
    },
    {
      "inputs": [
        {
          "internalType": "uint256",
          "name": "option",
          "type": "uint256"
        }
      ],
      "name": "yearOptionToObligationRateList",
      "outputs": [
        {
          "internalType": "uint256[]",
          "name": "",
          "type": "uint256[]"
        }
      ],
      "stateMutability": "view",
      "type": "function"
    }
  ],
  "bytecode": "0x60c060405260006003556040518060a00160405280600560ff168152602001600560ff168152602001600a60ff168152602001600f60ff168152602001600f60ff16815250600d906005620000569291906200027b565b50604051806101200160405280600260ff168152602001600360ff168152602001600560ff168152602001600560ff168152602001600560ff168152602001600a60ff168152602001600a60ff168152602001600f60ff168152602001600f60ff16815250600e906009620000cd929190620002d2565b50604051806102600160405280600260ff168152602001600260ff168152602001600260ff168152602001600460ff168152602001600560ff168152602001600560ff168152602001600560ff168152602001600560ff168152602001600560ff168152602001600560ff168152602001600560ff168152602001600560ff168152602001600560ff168152602001600560ff168152602001600560ff168152602001600560ff168152602001600560ff168152602001600560ff168152602001600a60ff16815250600f906013620001a892919062000329565b50348015620001b657600080fd5b50604051620074b5380380620074b58339818101604052810190620001dc919062000597565b82828282620001f1816200026660201b60201c565b508073ffffffffffffffffffffffffffffffffffffffff1660808173ffffffffffffffffffffffffffffffffffffffff16815250508173ffffffffffffffffffffffffffffffffffffffff1660a08173ffffffffffffffffffffffffffffffffffffffff168152505050505050505062000944565b80600290816200027791906200085d565b5050565b828054828255906000526020600020908101928215620002bf579160200282015b82811115620002be578251829060ff169055916020019190600101906200029c565b5b509050620002ce919062000380565b5090565b82805482825590600052602060002090810192821562000316579160200282015b8281111562000315578251829060ff16905591602001919060010190620002f3565b5b50905062000325919062000380565b5090565b8280548282559060005260206000209081019282156200036d579160200282015b828111156200036c578251829060ff169055916020019190600101906200034a565b5b5090506200037c919062000380565b5090565b5b808211156200039b57600081600090555060010162000381565b5090565b6000604051905090565b600080fd5b600080fd5b600080fd5b600080fd5b6000601f19601f8301169050919050565b7f4e487b7100000000000000000000000000000000000000000000000000000000600052604160045260246000fd5b6200040882620003bd565b810181811067ffffffffffffffff821117156200042a5762000429620003ce565b5b80604052505050565b60006200043f6200039f565b90506200044d8282620003fd565b919050565b600067ffffffffffffffff82111562000470576200046f620003ce565b5b6200047b82620003bd565b9050602081019050919050565b60005b83811015620004a85780820151818401526020810190506200048b565b60008484015250505050565b6000620004cb620004c58462000452565b62000433565b905082815260208101848484011115620004ea57620004e9620003b8565b5b620004f784828562000488565b509392505050565b600082601f830112620005175762000516620003b3565b5b815162000529848260208601620004b4565b91505092915050565b600073ffffffffffffffffffffffffffffffffffffffff82169050919050565b60006200055f8262000532565b9050919050565b620005718162000552565b81146200057d57600080fd5b50565b600081519050620005918162000566565b92915050565b600080600060608486031215620005b357620005b2620003a9565b5b600084015167ffffffffffffffff811115620005d457620005d3620003ae565b5b620005e286828701620004ff565b9350506020620005f58682870162000580565b9250506040620006088682870162000580565b9150509250925092565b600081519050919050565b7f4e487b7100000000000000000000000000000000000000000000000000000000600052602260045260246000fd5b600060028204905060018216806200066557607f821691505b6020821081036200067b576200067a6200061d565b5b50919050565b60008190508160005260206000209050919050565b60006020601f8301049050919050565b600082821b905092915050565b600060088302620006e57fffffffffffffffffffffffffffffffffffffffffffffffffffffffffffffffff82620006a6565b620006f18683620006a6565b95508019841693508086168417925050509392505050565b6000819050919050565b6000819050919050565b60006200073e62000738620007328462000709565b62000713565b62000709565b9050919050565b6000819050919050565b6200075a836200071d565b62000772620007698262000745565b848454620006b3565b825550505050565b600090565b620007896200077a565b620007968184846200074f565b505050565b5b81811015620007be57620007b26000826200077f565b6001810190506200079c565b5050565b601f8211156200080d57620007d78162000681565b620007e28462000696565b81016020851015620007f2578190505b6200080a620008018562000696565b8301826200079b565b50505b505050565b600082821c905092915050565b6000620008326000198460080262000812565b1980831691505092915050565b60006200084d83836200081f565b9150826002028217905092915050565b620008688262000612565b67ffffffffffffffff811115620008845762000883620003ce565b5b6200089082546200064c565b6200089d828285620007c2565b600060209050601f831160018114620008d55760008415620008c0578287015190505b620008cc85826200083f565b8655506200093c565b601f198416620008e58662000681565b60005b828110156200090f57848901518255600182019150602085019450602081019050620008e8565b868310156200092f57848901516200092b601f8916826200081f565b8355505b6001600288020188555050505b505050505050565b60805160a051616adb620009da600039600081816111f2015281816116a5015281816118bb01528181611d8f01528181612013015281816124a70152818161263c015281816128ed01528181612b1e0152818161302d015281816132420152613437015260008181610f9201528181611b550152818161210101528181612b4601528181612ed301526132e10152616adb6000f3fe608060405234801561001057600080fd5b50600436106102d55760003560e01c80638da5cb5b11610182578063c36177fc116100e9578063e52270e0116100a2578063e88580901161007c578063e885809014610a4b578063e985e9c514610a7b578063f0d8100a14610aab578063f242432a14610adb576102d5565b8063e52270e0146109e1578063e5328e0614610a11578063e755ddd714610a2f576102d5565b8063c36177fc146108e7578063c372fb9114610917578063c55dae6314610947578063c7bc573014610965578063d3b7811b14610995578063e2bbb158146109c5576102d5565b8063a996ef081161013b578063a996ef0814610817578063abac75e114610833578063af73e2c914610863578063b09f2b1c1461087f578063be5ba4901461089b578063c0a6026c146108cb576102d5565b80638da5cb5b146107315780638f0dbf771461074f578063932a8de01461077f578063a22cb465146107af578063a8743022146107cb578063a9385a5c146107e7576102d5565b806339e3af9b1161024157806370876c98116101fa5780637cbc2373116101d45780637cbc23731461067c57806382afd23b1461069857806388bdc083146106c85780638c3526c2146106f8576102d5565b806370876c981461060057806377e2a08b1461061c5780637a41984b1461064c576102d5565b806339e3af9b14610506578063441a3e70146105365780634e1273f414610552578063549493bb146105825780636681b9fd146105b25780636ff80d93146105d0576102d5565b806314f294931161029357806314f29493146103fa5780631add02711461042a578063239f60da1461045a5780632eb2c2d61461048a5780632f3ad61f146104a65780633097afb8146104d6576102d5565b8062fdd58e146102da57806301ffc9a71461030a578063021594971461033a57806308913ce81461036a578063091490201461039a5780630e89341c146103ca575b600080fd5b6102f460048036038101906102ef9190614756565b610af7565b60405161030191906147a5565b60405180910390f35b610324600480360381019061031f9190614818565b610bbf565b6040516103319190614860565b60405180910390f35b610354600480360381019061034f919061487b565b610ca1565b60405161036191906147a5565b60405180910390f35b610384600480360381019061037f919061487b565b610cbe565b60405161039191906147a5565b60405180910390f35b6103b460048036038101906103af919061487b565b610ce9565b6040516103c19190614860565b60405180910390f35b6103e460048036038101906103df919061487b565b610d1f565b6040516103f19190614938565b60405180910390f35b610414600480360381019061040f919061487b565b610db3565b60405161042191906147a5565b60405180910390f35b610444600480360381019061043f919061487b565b610df1565b60405161045191906147a5565b60405180910390f35b610474600480360381019061046f919061487b565b610e4a565b60405161048191906147a5565b60405180910390f35b6104a4600480360381019061049f9190614b57565b610e67565b005b6104c060048036038101906104bb919061487b565b610f08565b6040516104cd9190614860565b60405180910390f35b6104f060048036038101906104eb919061487b565b610f32565b6040516104fd9190614860565b60405180910390f35b610520600480360381019061051b919061487b565b610f6b565b60405161052d9190614860565b60405180910390f35b610550600480360381019061054b9190614c26565b610f90565b005b61056c60048036038101906105679190614d29565b611293565b6040516105799190614e5f565b60405180910390f35b61059c6004803603810190610597919061487b565b6113ac565b6040516105a99190614860565b60405180910390f35b6105ba6113de565b6040516105c791906147a5565b60405180910390f35b6105ea60048036038101906105e5919061487b565b6113e8565b6040516105f79190614860565b60405180910390f35b61061a60048036038101906106159190614c26565b611480565b005b6106366004803603810190610631919061487b565b61174a565b60405161064391906147a5565b60405180910390f35b6106666004803603810190610661919061487b565b6117a3565b6040516106739190614860565b60405180910390f35b61069660048036038101906106919190614c26565b6117cd565b005b6106b260048036038101906106ad919061487b565b611987565b6040516106bf9190614860565b60405180910390f35b6106e260048036038101906106dd919061487b565b6119aa565b6040516106ef91906147a5565b60405180910390f35b610712600480360381019061070d919061487b565b6119dd565b6040516107289a99989796959493929190614e81565b60405180910390f35b610739611b51565b6040516107469190614f33565b60405180910390f35b6107696004803603810190610764919061487b565b611b79565b6040516107769190614860565b60405180910390f35b6107996004803603810190610794919061487b565b611b9b565b6040516107a691906147a5565b60405180910390f35b6107c960048036038101906107c49190614f7a565b611bd9565b005b6107e560048036038101906107e0919061487b565b611bef565b005b61080160048036038101906107fc919061487b565b611e6e565b60405161080e91906147a5565b60405180910390f35b610831600480360381019061082c9190614c26565b611f25565b005b61084d6004803603810190610848919061487b565b6120df565b60405161085a91906147a5565b60405180910390f35b61087d60048036038101906108789190614c26565b6120ff565b005b61089960048036038101906108949190614c26565b61254b565b005b6108b560048036038101906108b0919061487b565b612708565b6040516108c29190614e5f565b60405180910390f35b6108e560048036038101906108e0919061487b565b612773565b005b61090160048036038101906108fc9190614c26565b6129cc565b60405161090e9190614e5f565b60405180910390f35b610931600480360381019061092c919061487b565b612afd565b60405161093e91906147a5565b60405180910390f35b61094f612b1a565b60405161095c9190614f33565b60405180910390f35b61097f600480360381019061097a9190615015565b612b42565b60405161098c91906147a5565b60405180910390f35b6109af60048036038101906109aa919061487b565b612e9e565b6040516109bc91906147a5565b60405180910390f35b6109df60048036038101906109da9190614c26565b612ed1565b005b6109fb60048036038101906109f6919061487b565b6130d0565b604051610a089190614e5f565b60405180910390f35b610a1961323e565b604051610a2691906147a5565b60405180910390f35b610a496004803603810190610a44919061487b565b6132df565b005b610a656004803603810190610a60919061487b565b6134ea565b604051610a7291906147a5565b60405180910390f35b610a956004803603810190610a909190615107565b613507565b604051610aa29190614860565b60405180910390f35b610ac56004803603810190610ac0919061487b565b61359b565b604051610ad291906147a5565b60405180910390f35b610af56004803603810190610af09190615147565b6135b8565b005b60008073ffffffffffffffffffffffffffffffffffffffff168373ffffffffffffffffffffffffffffffffffffffff1603610b67576040517f08c379a0000000000000000000000000000000000000000000000000000000008152600401610b5e90615250565b60405180910390fd5b60008083815260200190815260200160002060008473ffffffffffffffffffffffffffffffffffffffff1673ffffffffffffffffffffffffffffffffffffffff16815260200190815260200160002054905092915050565b60007fd9b67a26000000000000000000000000000000000000000000000000000000007bffffffffffffffffffffffffffffffffffffffffffffffffffffffff1916827bffffffffffffffffffffffffffffffffffffffffffffffffffffffff19161480610c8a57507f0e89341c000000000000000000000000000000000000000000000000000000007bffffffffffffffffffffffffffffffffffffffffffffffffffffffff1916827bffffffffffffffffffffffffffffffffffffffffffffffffffffffff1916145b80610c9a5750610c9982613659565b5b9050919050565b600060086000838152602001908152602001600020549050919050565b6000600560008381526020019081526020016000206002015442610ce2919061529f565b9050919050565b60006005600083815260200190815260200160002060080154600660008481526020019081526020016000205410159050919050565b606060028054610d2e90615302565b80601f0160208091040260200160405190810160405280929190818152602001828054610d5a90615302565b8015610da75780601f10610d7c57610100808354040283529160200191610da7565b820191906000526020600020905b815481529060010190602001808311610d8a57829003601f168201915b50505050509050919050565b600060066000838152602001908152602001600020546005600084815260200190815260200160002060010154610dea9190615333565b9050919050565b6000670de0b6b3a76400006005600084815260200190815260200160002060070154670de0b6b3a7640000610e25856134ea565b610e2f9190615333565b610e3991906153a4565b610e4391906153a4565b9050919050565b600060136000838152602001908152602001600020549050919050565b610e6f6136c3565b73ffffffffffffffffffffffffffffffffffffffff168573ffffffffffffffffffffffffffffffffffffffff161480610eb55750610eb485610eaf6136c3565b613507565b5b610ef4576040517f08c379a0000000000000000000000000000000000000000000000000000000008152600401610eeb90615447565b60405180910390fd5b610f0185858585856136cb565b5050505050565b6000600b600083815260200190815260200160002060009054906101000a900460ff169050919050565b6000610f3d82611b79565b8015610f645750610f4d8261174a565b600860008481526020019081526020016000205410155b9050919050565b6000610f7682611987565b158015610f895750610f8782610ce9565b155b9050919050565b7f000000000000000000000000000000000000000000000000000000000000000073ffffffffffffffffffffffffffffffffffffffff163373ffffffffffffffffffffffffffffffffffffffff161461101e576040517f08c379a0000000000000000000000000000000000000000000000000000000008152600401611015906154b3565b60405180910390fd5b61102782611987565b15611067576040517f08c379a000000000000000000000000000000000000000000000000000000000815260040161105e9061551f565b60405180910390fd5b61107082610f6b565b156110b0576040517f08c379a00000000000000000000000000000000000000000000000000000000081526004016110a79061551f565b60405180910390fd5b6110b9826117a3565b156110f9576040517f08c379a00000000000000000000000000000000000000000000000000000000081526004016110f0906155b1565b60405180910390fd5b61110282610f08565b806111125750611111826113e8565b5b15611152576040517f08c379a000000000000000000000000000000000000000000000000000000000815260040161114990615643565b60405180910390fd5b60126000838152602001908152602001600020546008600084815260200190815260200160002054611184919061529f565b8111156111c6576040517f08c379a00000000000000000000000000000000000000000000000000000000081526004016111bd906156d5565b60405180910390fd5b806008600084815260200190815260200160002060008282546111e9919061529f565b925050819055507f000000000000000000000000000000000000000000000000000000000000000073ffffffffffffffffffffffffffffffffffffffff1663a9059cbb33836040518363ffffffff1660e01b815260040161124b9291906156f5565b6020604051808303816000875af115801561126a573d6000803e3d6000fd5b505050506040513d601f19601f8201168201806040525081019061128e9190615733565b505050565b606081518351146112d9576040517f08c379a00000000000000000000000000000000000000000000000000000000081526004016112d0906157d2565b60405180910390fd5b6000835167ffffffffffffffff8111156112f6576112f561495f565b5b6040519080825280602002602001820160405280156113245781602001602082028036833780820191505090505b50905060005b84518110156113a157611371858281518110611349576113486157f2565b5b6020026020010151858381518110611364576113636157f2565b5b6020026020010151610af7565b828281518110611384576113836157f2565b5b6020026020010181815250508061139a90615821565b905061132a565b508091505092915050565b600060066000838152602001908152602001600020546007600084815260200190815260200160002054149050919050565b6000600454905090565b6000806113f483611b79565b801561141a57506114048361174a565b6008600085815260200190815260200160002054105b9050600061142784611b79565b15801561146c57506201518060b4600160136000888152602001908152602001600020546114559190615869565b61145f9190615333565b6114699190615333565b42115b905081806114775750805b92505050919050565b61148982611987565b6114c8576040517f08c379a00000000000000000000000000000000000000000000000000000000081526004016114bf906158e9565b60405180910390fd5b806114d283611b9b565b1015611513576040517f08c379a000000000000000000000000000000000000000000000000000000000815260040161150a9061597b565b60405180910390fd5b6000600560008481526020019081526020016000206040518061014001604052908160008201805461154490615302565b80601f016020809104026020016040519081016040528092919081815260200182805461157090615302565b80156115bd5780601f10611592576101008083540402835291602001916115bd565b820191906000526020600020905b8154815290600101906020018083116115a057829003601f168201915b505050505081526020016001820154815260200160028201548152602001600382015481526020016004820154815260200160058201548152602001600682015481526020016007820154815260200160088201548152602001600982015481525050905060008160200151836116349190615333565b9050826006600086815260200190815260200160002060008282546116599190615869565b92505081905550806008600086815260200190815260200160002060008282546116839190615869565b92505081905550806004600082825461169c9190615869565b925050819055507f000000000000000000000000000000000000000000000000000000000000000073ffffffffffffffffffffffffffffffffffffffff166323b872dd3330846040518463ffffffff1660e01b81526004016117009392919061599b565b6020604051808303816000875af115801561171f573d6000803e3d6000fd5b505050506040513d601f19601f820116820180604052508101906117439190615733565b5050505050565b6000670de0b6b3a7640000600560008481526020019081526020016000206009015461177584610db3565b61177f9190615333565b61178991906153a4565b61179283610db3565b61179c9190615869565b9050919050565b6000600c600083815260200190815260200160002060009054906101000a900460ff169050919050565b6117d6826117a3565b611815576040517f08c379a000000000000000000000000000000000000000000000000000000000815260040161180c90615a1e565b60405180910390fd5b806118203384610af7565b1015611861576040517f08c379a000000000000000000000000000000000000000000000000000000000815260040161185890615a8a565b60405180910390fd5b61186c3383836139ec565b8060076000848152602001908152602001600020600082825461188f9190615869565b925050819055506000600a600084815260200190815260200160002054826118b79190615333565b90507f000000000000000000000000000000000000000000000000000000000000000073ffffffffffffffffffffffffffffffffffffffff1663a9059cbb33836040518363ffffffff1660e01b81526004016119149291906156f5565b6020604051808303816000875af1158015611933573d6000803e3d6000fd5b505050506040513d601f19601f820116820180604052508101906119579190615733565b508060086000858152602001908152602001600020600082825461197b919061529f565b92505081905550505050565b600060056000838152602001908152602001600020600401544211159050919050565b60006119b582610cbe565b60056000848152602001908152602001600020600501546119d6919061529f565b9050919050565b6060600080600080600080600080600080600560008d815260200190815260200160002060405180610140016040529081600082018054611a1d90615302565b80601f0160208091040260200160405190810160405280929190818152602001828054611a4990615302565b8015611a965780601f10611a6b57610100808354040283529160200191611a96565b820191906000526020600020905b815481529060010190602001808311611a7957829003601f168201915b5050505050815260200160018201548152602001600282015481526020016003820154815260200160048201548152602001600582015481526020016006820154815260200160078201548152602001600882015481526020016009820154815250509050806000015181602001518260400151836060015184608001518560a001518660c001518760e001518861010001518961012001519a509a509a509a509a509a509a509a509a509a50509193959799509193959799565b60007f0000000000000000000000000000000000000000000000000000000000000000905090565b6000600560008381526020019081526020016000206003015442119050919050565b600060066000838152602001908152602001600020546005600084815260200190815260200160002060070154611bd2919061529f565b9050919050565b611beb611be46136c3565b8383613c32565b5050565b611bf8816117a3565b158015611c0b5750611c0981610f08565b155b8015611c1c5750611c1b816113e8565b5b611c5b576040517f08c379a0000000000000000000000000000000000000000000000000000000008152600401611c5290615af6565b60405180910390fd5b6000611c668261174a565b905060006103e86008600085815260200190815260200160002054611c8b91906153a4565b90506000816008600086815260200190815260200160002054611cae919061529f565b9050600660008581526020019081526020016000205481611ccf91906153a4565b6009600086815260200190815260200160002081905550600060066000868152602001908152602001600020546009600087815260200190815260200160002054611d1a9190615333565b82611d25919061529f565b905060008184611d359190615869565b905080600860008881526020019081526020016000206000828254611d5a919061529f565b925050819055506001600b600088815260200190815260200160002060006101000a81548160ff0219169083151502179055507f000000000000000000000000000000000000000000000000000000000000000073ffffffffffffffffffffffffffffffffffffffff1663a9059cbb33836040518363ffffffff1660e01b8152600401611de89291906156f5565b6020604051808303816000875af1158015611e07573d6000803e3d6000fd5b505050506040513d601f19601f82011682018060405250810190611e2b9190615733565b50857fc4f17a65d54873d57229ea5f59c4ddec592d095bc17581372676402c8228b9cd8685604051611e5e929190615b16565b60405180910390a2505050505050565b60008160008110158015611e83575060028111155b611ec2576040517f08c379a0000000000000000000000000000000000000000000000000000000008152600401611eb990615b8b565b60405180910390fd5b600060b46002611ed29190615333565b905060008403611ef157806003611ee99190615333565b925050611f1f565b60018403611f0e57806005611f069190615333565b925050611f1f565b80600a611f1b9190615333565b9250505b50919050565b611f2e82610f08565b611f6d576040517f08c379a0000000000000000000000000000000000000000000000000000000008152600401611f6490615af6565b60405180910390fd5b80611f783384610af7565b1015611fb9576040517f08c379a0000000000000000000000000000000000000000000000000000000008152600401611fb090615a8a565b60405180910390fd5b611fc43383836139ec565b80600760008481526020019081526020016000206000828254611fe79190615869565b92505081905550600060096000848152602001908152602001600020548261200f9190615333565b90507f000000000000000000000000000000000000000000000000000000000000000073ffffffffffffffffffffffffffffffffffffffff1663a9059cbb33836040518363ffffffff1660e01b815260040161206c9291906156f5565b6020604051808303816000875af115801561208b573d6000803e3d6000fd5b505050506040513d601f19601f820116820180604052508101906120af9190615733565b50806008600085815260200190815260200160002060008282546120d3919061529f565b92505081905550505050565b600060056000838152602001908152602001600020600901549050919050565b7f000000000000000000000000000000000000000000000000000000000000000073ffffffffffffffffffffffffffffffffffffffff163373ffffffffffffffffffffffffffffffffffffffff161461218d576040517f08c379a0000000000000000000000000000000000000000000000000000000008152600401612184906154b3565b60405180910390fd5b61219682610f08565b806121a657506121a5826113e8565b5b156121e6576040517f08c379a00000000000000000000000000000000000000000000000000000000081526004016121dd90615643565b60405180910390fd5b600560008381526020019081526020016000206006015460b46001601360008681526020019081526020016000205461221f9190615869565b6122299190615333565b03612269576040517f08c379a000000000000000000000000000000000000000000000000000000000815260040161226090615bf7565b60405180910390fd5b601160008381526020019081526020016000206013600084815260200190815260200160002054815481106122a1576122a06157f2565b5b90600052602060002001548110156122ee576040517f08c379a00000000000000000000000000000000000000000000000000000000081526004016122e590615c63565b60405180910390fd5b66b1a2bc2ec500006011600084815260200190815260200160002060136000858152602001908152602001600020548154811061232e5761232d6157f2565b5b9060005260206000200154670de0b6b3a76400006011600086815260200190815260200160002060136000878152602001908152602001600020548154811061237a576123796157f2565b5b906000526020600020015484612390919061529f565b61239a9190615333565b6123a491906153a4565b11156123e5576040517f08c379a00000000000000000000000000000000000000000000000000000000081526004016123dc90615cf5565b60405180910390fd5b60006005600084815260200190815260200160002060070154826124099190615333565b90508060126000858152602001908152602001600020600082825461242e9190615869565b925050819055506201518060b46124459190615333565b60106000858152602001908152602001600020546124639190615869565b6010600085815260200190815260200160002081905550600160136000858152602001908152602001600020600082825461249e9190615869565b925050819055507f000000000000000000000000000000000000000000000000000000000000000073ffffffffffffffffffffffffffffffffffffffff166323b872dd3330846040518463ffffffff1660e01b81526004016125029392919061599b565b6020604051808303816000875af1158015612521573d6000803e3d6000fd5b505050506040513d601f19601f820116820180604052508101906125459190615733565b50505050565b61255482610f6b565b612593576040517f08c379a000000000000000000000000000000000000000000000000000000000815260040161258a90615d61565b60405180910390fd5b8061259e3384610af7565b10156125df576040517f08c379a00000000000000000000000000000000000000000000000000000000081526004016125d690615a8a565b60405180910390fd5b6125ea3383836139ec565b8060076000848152602001908152602001600020600082825461260d9190615869565b9250508190555060006005600084815260200190815260200160002060010154826126389190615333565b90507f000000000000000000000000000000000000000000000000000000000000000073ffffffffffffffffffffffffffffffffffffffff1663a9059cbb33836040518363ffffffff1660e01b81526004016126959291906156f5565b6020604051808303816000875af11580156126b4573d6000803e3d6000fd5b505050506040513d601f19601f820116820180604052508101906126d89190615733565b50806008600085815260200190815260200160002060008282546126fc919061529f565b92505081905550505050565b60606011600083815260200190815260200160002080548060200260200160405190810160405280929190818152602001828054801561276757602002820191906000526020600020905b815481526020019060010190808311612753575b50505050509050919050565b61277c81610f08565b15801561278f575061278d816117a3565b155b80156127a0575061279f81610f32565b5b6127df576040517f08c379a00000000000000000000000000000000000000000000000000000000081526004016127d690615dcd565b60405180910390fd5b60006127ea8261174a565b905060006103e8826127fc91906153a4565b90506000818361280c919061529f565b905060066000858152602001908152602001600020548161282d91906153a4565b600a60008681526020019081526020016000208190555060006006600086815260200190815260200160002054600a6000878152602001908152602001600020546128789190615333565b82612883919061529f565b9050600081846128939190615869565b9050806008600088815260200190815260200160002060008282546128b8919061529f565b925050819055506001600c600088815260200190815260200160002060006101000a81548160ff0219169083151502179055507f000000000000000000000000000000000000000000000000000000000000000073ffffffffffffffffffffffffffffffffffffffff1663a9059cbb33836040518363ffffffff1660e01b81526004016129469291906156f5565b6020604051808303816000875af1158015612965573d6000803e3d6000fd5b505050506040513d601f19601f820116820180604052508101906129899190615733565b50857fac2eeaf45d1b75aed6b3285cda3efb3c382cce02ba313558bbb90be57f8843e486856040516129bc929190615b16565b60405180910390a2505050505050565b606081600081101580156129e1575060028111155b612a20576040517f08c379a0000000000000000000000000000000000000000000000000000000008152600401612a1790615b8b565b60405180910390fd5b6000612a2b846130d0565b905060008151905060008167ffffffffffffffff811115612a4f57612a4e61495f565b5b604051908082528060200260200182016040528015612a7d5781602001602082028036833780820191505090505b50905060005b82811015612aef576064848281518110612aa057612a9f6157f2565b5b602002602001015189612ab39190615333565b612abd91906153a4565b828281518110612ad057612acf6157f2565b5b6020026020010181815250508080612ae790615821565b915050612a83565b508094505050505092915050565b600060106000838152602001908152602001600020549050919050565b60007f0000000000000000000000000000000000000000000000000000000000000000905090565b60007f000000000000000000000000000000000000000000000000000000000000000073ffffffffffffffffffffffffffffffffffffffff163373ffffffffffffffffffffffffffffffffffffffff1614612bd2576040517f08c379a0000000000000000000000000000000000000000000000000000000008152600401612bc9906154b3565b60405180910390fd5b8460008110158015612be5575060028111155b612c24576040517f08c379a0000000000000000000000000000000000000000000000000000000008152600401612c1b90615b8b565b60405180910390fd5b60b48510612c67576040517f08c379a0000000000000000000000000000000000000000000000000000000008152600401612c5e90615e5f565b60405180910390fd5b6000612c7287611e6e565b90506001600354612c839190615869565b9250612c9133848e87613d9e565b6040518061014001604052808a8a8080601f016020809104026020016040519081016040528093929190818152602001838380828437600081840152601f19601f8201169050808301925050505050505081526020018b81526020014281526020016201518083612d029190615333565b42612d0d9190615869565b81526020016201518088612d219190615333565b42612d2c9190615869565b81526020018781526020018281526020018d81526020018c815260200186815250600560008581526020019081526020016000206000820151816000019081612d75919061602b565b506020820151816001015560408201518160020155606082015181600301556080820151816004015560a0820151816005015560c0820151816006015560e08201518160070155610100820151816008015561012082015181600901559050506201518060b4612de59190615333565b42612df09190615869565b6010600085815260200190815260200160002081905550612e118a886129cc565b601160008581526020019081526020016000209080519060200190612e37929190614644565b50827ff73e436c94925e1e8b2f0b16de0a2c56aea7fb27878f7815811bc05bc6c335e88d8c886201518086612e6c9190615333565b42612e779190615869565b604051612e8794939291906160fd565b60405180910390a250509998505050505050505050565b6000612ea982610cbe565b6005600084815260200190815260200160002060060154612eca919061529f565b9050919050565b7f000000000000000000000000000000000000000000000000000000000000000073ffffffffffffffffffffffffffffffffffffffff163373ffffffffffffffffffffffffffffffffffffffff1614612f5f576040517f08c379a0000000000000000000000000000000000000000000000000000000008152600401612f56906154b3565b60405180910390fd5b612f6882610f08565b80612f785750612f77826113e8565b5b15612fb8576040517f08c379a0000000000000000000000000000000000000000000000000000000008152600401612faf9061618e565b60405180910390fd5b612fc1826117a3565b15613001576040517f08c379a0000000000000000000000000000000000000000000000000000000008152600401612ff8906161fa565b60405180910390fd5b806008600084815260200190815260200160002060008282546130249190615869565b925050819055507f000000000000000000000000000000000000000000000000000000000000000073ffffffffffffffffffffffffffffffffffffffff166323b872dd3330846040518463ffffffff1660e01b81526004016130889392919061599b565b6020604051808303816000875af11580156130a7573d6000803e3d6000fd5b505050506040513d601f19601f820116820180604052508101906130cb9190615733565b505050565b606081600081101580156130e5575060028111155b613124576040517f08c379a000000000000000000000000000000000000000000000000000000000815260040161311b90615b8b565b60405180910390fd5b6000830361318457600d80548060200260200160405190810160405280929190818152602001828054801561317857602002820191906000526020600020905b815481526020019060010190808311613164575b50505050509150613238565b600183036131e457600e8054806020026020016040519081016040528092919081815260200182805480156131d857602002820191906000526020600020905b8154815260200190600101908083116131c4575b50505050509150613238565b600f80548060200260200160405190810160405280929190818152602001828054801561323057602002820191906000526020600020905b81548152602001906001019080831161321c575b505050505091505b50919050565b60007f000000000000000000000000000000000000000000000000000000000000000073ffffffffffffffffffffffffffffffffffffffff166370a08231306040518263ffffffff1660e01b81526004016132999190614f33565b602060405180830381865afa1580156132b6573d6000803e3d6000fd5b505050506040513d601f19601f820116820180604052508101906132da919061622f565b905090565b7f000000000000000000000000000000000000000000000000000000000000000073ffffffffffffffffffffffffffffffffffffffff163373ffffffffffffffffffffffffffffffffffffffff161461336d576040517f08c379a0000000000000000000000000000000000000000000000000000000008152600401613364906154b3565b60405180910390fd5b613376816117a3565b80156133875750613386816113ac565b5b6133c6576040517f08c379a00000000000000000000000000000000000000000000000000000000081526004016133bd906162a8565b60405180910390fd5b600060086000838152602001908152602001600020541161341c576040517f08c379a000000000000000000000000000000000000000000000000000000000815260040161341390616314565b60405180910390fd5b600060086000838152602001908152602001600020819055507f000000000000000000000000000000000000000000000000000000000000000073ffffffffffffffffffffffffffffffffffffffff1663a9059cbb3360086000858152602001908152602001600020546040518363ffffffff1660e01b81526004016134a39291906156f5565b6020604051808303816000875af11580156134c2573d6000803e3d6000fd5b505050506040513d601f19601f820116820180604052508101906134e69190615733565b5050565b600060126000838152602001908152602001600020549050919050565b6000600160008473ffffffffffffffffffffffffffffffffffffffff1673ffffffffffffffffffffffffffffffffffffffff16815260200190815260200160002060008373ffffffffffffffffffffffffffffffffffffffff1673ffffffffffffffffffffffffffffffffffffffff16815260200190815260200160002060009054906101000a900460ff16905092915050565b600060086000838152602001908152602001600020549050919050565b6135c06136c3565b73ffffffffffffffffffffffffffffffffffffffff168573ffffffffffffffffffffffffffffffffffffffff1614806136065750613605856136006136c3565b613507565b5b613645576040517f08c379a000000000000000000000000000000000000000000000000000000000815260040161363c90615447565b60405180910390fd5b6136528585858585613f4e565b5050505050565b60007f01ffc9a7000000000000000000000000000000000000000000000000000000007bffffffffffffffffffffffffffffffffffffffffffffffffffffffff1916827bffffffffffffffffffffffffffffffffffffffffffffffffffffffff1916149050919050565b600033905090565b815183511461370f576040517f08c379a0000000000000000000000000000000000000000000000000000000008152600401613706906163a6565b60405180910390fd5b600073ffffffffffffffffffffffffffffffffffffffff168473ffffffffffffffffffffffffffffffffffffffff160361377e576040517f08c379a000000000000000000000000000000000000000000000000000000000815260040161377590616438565b60405180910390fd5b60006137886136c3565b90506137988187878787876141e9565b60005b84518110156139495760008582815181106137b9576137b86157f2565b5b6020026020010151905060008583815181106137d8576137d76157f2565b5b60200260200101519050600080600084815260200190815260200160002060008b73ffffffffffffffffffffffffffffffffffffffff1673ffffffffffffffffffffffffffffffffffffffff16815260200190815260200160002054905081811015613879576040517f08c379a0000000000000000000000000000000000000000000000000000000008152600401613870906164ca565b60405180910390fd5b81810360008085815260200190815260200160002060008c73ffffffffffffffffffffffffffffffffffffffff1673ffffffffffffffffffffffffffffffffffffffff168152602001908152602001600020819055508160008085815260200190815260200160002060008b73ffffffffffffffffffffffffffffffffffffffff1673ffffffffffffffffffffffffffffffffffffffff168152602001908152602001600020600082825461392e9190615869565b925050819055505050508061394290615821565b905061379b565b508473ffffffffffffffffffffffffffffffffffffffff168673ffffffffffffffffffffffffffffffffffffffff168273ffffffffffffffffffffffffffffffffffffffff167f4a39dc06d4c0dbc64b70af90fd698a233a518aa5d07e595d983b8c0526c8f7fb87876040516139c09291906164ea565b60405180910390a46139d68187878787876141f1565b6139e48187878787876141f9565b505050505050565b600073ffffffffffffffffffffffffffffffffffffffff168373ffffffffffffffffffffffffffffffffffffffff1603613a5b576040517f08c379a0000000000000000000000000000000000000000000000000000000008152600401613a5290616593565b60405180910390fd5b6000613a656136c3565b90506000613a72846143d0565b90506000613a7f846143d0565b9050613a9f838760008585604051806020016040528060008152506141e9565b600080600087815260200190815260200160002060008873ffffffffffffffffffffffffffffffffffffffff1673ffffffffffffffffffffffffffffffffffffffff16815260200190815260200160002054905084811015613b36576040517f08c379a0000000000000000000000000000000000000000000000000000000008152600401613b2d90616625565b60405180910390fd5b84810360008088815260200190815260200160002060008973ffffffffffffffffffffffffffffffffffffffff1673ffffffffffffffffffffffffffffffffffffffff16815260200190815260200160002081905550600073ffffffffffffffffffffffffffffffffffffffff168773ffffffffffffffffffffffffffffffffffffffff168573ffffffffffffffffffffffffffffffffffffffff167fc3d58168c5ae7397731d063d5bbf3d657854427343f4c083240f7aacaa2d0f628989604051613c03929190615b16565b60405180910390a4613c29848860008686604051806020016040528060008152506141f1565b50505050505050565b8173ffffffffffffffffffffffffffffffffffffffff168373ffffffffffffffffffffffffffffffffffffffff1603613ca0576040517f08c379a0000000000000000000000000000000000000000000000000000000008152600401613c97906166b7565b60405180910390fd5b80600160008573ffffffffffffffffffffffffffffffffffffffff1673ffffffffffffffffffffffffffffffffffffffff16815260200190815260200160002060008473ffffffffffffffffffffffffffffffffffffffff1673ffffffffffffffffffffffffffffffffffffffff16815260200190815260200160002060006101000a81548160ff0219169083151502179055508173ffffffffffffffffffffffffffffffffffffffff168373ffffffffffffffffffffffffffffffffffffffff167f17307eab39ab6107e8899845ad3d59bd9653f200f220920489ca2b5937696c3183604051613d919190614860565b60405180910390a3505050565b600073ffffffffffffffffffffffffffffffffffffffff168473ffffffffffffffffffffffffffffffffffffffff1603613e0d576040517f08c379a0000000000000000000000000000000000000000000000000000000008152600401613e0490616749565b60405180910390fd5b6000613e176136c3565b90506000613e24856143d0565b90506000613e31856143d0565b9050613e42836000898585896141e9565b8460008088815260200190815260200160002060008973ffffffffffffffffffffffffffffffffffffffff1673ffffffffffffffffffffffffffffffffffffffff1681526020019081526020016000206000828254613ea19190615869565b925050819055508673ffffffffffffffffffffffffffffffffffffffff16600073ffffffffffffffffffffffffffffffffffffffff168473ffffffffffffffffffffffffffffffffffffffff167fc3d58168c5ae7397731d063d5bbf3d657854427343f4c083240f7aacaa2d0f628989604051613f1f929190615b16565b60405180910390a4613f36836000898585896141f1565b613f458360008989898961444a565b50505050505050565b600073ffffffffffffffffffffffffffffffffffffffff168473ffffffffffffffffffffffffffffffffffffffff1603613fbd576040517f08c379a0000000000000000000000000000000000000000000000000000000008152600401613fb490616438565b60405180910390fd5b6000613fc76136c3565b90506000613fd4856143d0565b90506000613fe1856143d0565b9050613ff18389898585896141e9565b600080600088815260200190815260200160002060008a73ffffffffffffffffffffffffffffffffffffffff1673ffffffffffffffffffffffffffffffffffffffff16815260200190815260200160002054905085811015614088576040517f08c379a000000000000000000000000000000000000000000000000000000000815260040161407f906164ca565b60405180910390fd5b85810360008089815260200190815260200160002060008b73ffffffffffffffffffffffffffffffffffffffff1673ffffffffffffffffffffffffffffffffffffffff168152602001908152602001600020819055508560008089815260200190815260200160002060008a73ffffffffffffffffffffffffffffffffffffffff1673ffffffffffffffffffffffffffffffffffffffff168152602001908152602001600020600082825461413d9190615869565b925050819055508773ffffffffffffffffffffffffffffffffffffffff168973ffffffffffffffffffffffffffffffffffffffff168573ffffffffffffffffffffffffffffffffffffffff167fc3d58168c5ae7397731d063d5bbf3d657854427343f4c083240f7aacaa2d0f628a8a6040516141ba929190615b16565b60405180910390a46141d0848a8a86868a6141f1565b6141de848a8a8a8a8a61444a565b505050505050505050565b505050505050565b505050505050565b6142188473ffffffffffffffffffffffffffffffffffffffff16614621565b156143c8578373ffffffffffffffffffffffffffffffffffffffff1663bc197c8187878686866040518663ffffffff1660e01b815260040161425e9594939291906167be565b6020604051808303816000875af192505050801561429a57506040513d601f19601f82011682018060405250810190614297919061683b565b60015b61433f576142a6616875565b806308c379a00361430257506142ba616897565b806142c55750614304565b806040517f08c379a00000000000000000000000000000000000000000000000000000000081526004016142f99190614938565b60405180910390fd5b505b6040517f08c379a000000000000000000000000000000000000000000000000000000000815260040161433690616999565b60405180910390fd5b63bc197c8160e01b7bffffffffffffffffffffffffffffffffffffffffffffffffffffffff1916817bffffffffffffffffffffffffffffffffffffffffffffffffffffffff1916146143c6576040517f08c379a00000000000000000000000000000000000000000000000000000000081526004016143bd90616a2b565b60405180910390fd5b505b505050505050565b60606000600167ffffffffffffffff8111156143ef576143ee61495f565b5b60405190808252806020026020018201604052801561441d5781602001602082028036833780820191505090505b5090508281600081518110614435576144346157f2565b5b60200260200101818152505080915050919050565b6144698473ffffffffffffffffffffffffffffffffffffffff16614621565b15614619578373ffffffffffffffffffffffffffffffffffffffff1663f23a6e6187878686866040518663ffffffff1660e01b81526004016144af959493929190616a4b565b6020604051808303816000875af19250505080156144eb57506040513d601f19601f820116820180604052508101906144e8919061683b565b60015b614590576144f7616875565b806308c379a003614553575061450b616897565b806145165750614555565b806040517f08c379a000000000000000000000000000000000000000000000000000000000815260040161454a9190614938565b60405180910390fd5b505b6040517f08c379a000000000000000000000000000000000000000000000000000000000815260040161458790616999565b60405180910390fd5b63f23a6e6160e01b7bffffffffffffffffffffffffffffffffffffffffffffffffffffffff1916817bffffffffffffffffffffffffffffffffffffffffffffffffffffffff191614614617576040517f08c379a000000000000000000000000000000000000000000000000000000000815260040161460e90616a2b565b60405180910390fd5b505b505050505050565b6000808273ffffffffffffffffffffffffffffffffffffffff163b119050919050565b828054828255906000526020600020908101928215614680579160200282015b8281111561467f578251825591602001919060010190614664565b5b50905061468d9190614691565b5090565b5b808211156146aa576000816000905550600101614692565b5090565b6000604051905090565b600080fd5b600080fd5b600073ffffffffffffffffffffffffffffffffffffffff82169050919050565b60006146ed826146c2565b9050919050565b6146fd816146e2565b811461470857600080fd5b50565b60008135905061471a816146f4565b92915050565b6000819050919050565b61473381614720565b811461473e57600080fd5b50565b6000813590506147508161472a565b92915050565b6000806040838503121561476d5761476c6146b8565b5b600061477b8582860161470b565b925050602061478c85828601614741565b9150509250929050565b61479f81614720565b82525050565b60006020820190506147ba6000830184614796565b92915050565b60007fffffffff0000000000000000000000000000000000000000000000000000000082169050919050565b6147f5816147c0565b811461480057600080fd5b50565b600081359050614812816147ec565b92915050565b60006020828403121561482e5761482d6146b8565b5b600061483c84828501614803565b91505092915050565b60008115159050919050565b61485a81614845565b82525050565b60006020820190506148756000830184614851565b92915050565b600060208284031215614891576148906146b8565b5b600061489f84828501614741565b91505092915050565b600081519050919050565b600082825260208201905092915050565b60005b838110156148e25780820151818401526020810190506148c7565b60008484015250505050565b6000601f19601f8301169050919050565b600061490a826148a8565b61491481856148b3565b93506149248185602086016148c4565b61492d816148ee565b840191505092915050565b6000602082019050818103600083015261495281846148ff565b905092915050565b600080fd5b7f4e487b7100000000000000000000000000000000000000000000000000000000600052604160045260246000fd5b614997826148ee565b810181811067ffffffffffffffff821117156149b6576149b561495f565b5b80604052505050565b60006149c96146ae565b90506149d5828261498e565b919050565b600067ffffffffffffffff8211156149f5576149f461495f565b5b602082029050602081019050919050565b600080fd5b6000614a1e614a19846149da565b6149bf565b90508083825260208201905060208402830185811115614a4157614a40614a06565b5b835b81811015614a6a5780614a568882614741565b845260208401935050602081019050614a43565b5050509392505050565b600082601f830112614a8957614a8861495a565b5b8135614a99848260208601614a0b565b91505092915050565b600080fd5b600067ffffffffffffffff821115614ac257614ac161495f565b5b614acb826148ee565b9050602081019050919050565b82818337600083830152505050565b6000614afa614af584614aa7565b6149bf565b905082815260208101848484011115614b1657614b15614aa2565b5b614b21848285614ad8565b509392505050565b600082601f830112614b3e57614b3d61495a565b5b8135614b4e848260208601614ae7565b91505092915050565b600080600080600060a08688031215614b7357614b726146b8565b5b6000614b818882890161470b565b9550506020614b928882890161470b565b945050604086013567ffffffffffffffff811115614bb357614bb26146bd565b5b614bbf88828901614a74565b935050606086013567ffffffffffffffff811115614be057614bdf6146bd565b5b614bec88828901614a74565b925050608086013567ffffffffffffffff811115614c0d57614c0c6146bd565b5b614c1988828901614b29565b9150509295509295909350565b60008060408385031215614c3d57614c3c6146b8565b5b6000614c4b85828601614741565b9250506020614c5c85828601614741565b9150509250929050565b600067ffffffffffffffff821115614c8157614c8061495f565b5b602082029050602081019050919050565b6000614ca5614ca084614c66565b6149bf565b90508083825260208201905060208402830185811115614cc857614cc7614a06565b5b835b81811015614cf15780614cdd888261470b565b845260208401935050602081019050614cca565b5050509392505050565b600082601f830112614d1057614d0f61495a565b5b8135614d20848260208601614c92565b91505092915050565b60008060408385031215614d4057614d3f6146b8565b5b600083013567ffffffffffffffff811115614d5e57614d5d6146bd565b5b614d6a85828601614cfb565b925050602083013567ffffffffffffffff811115614d8b57614d8a6146bd565b5b614d9785828601614a74565b9150509250929050565b600081519050919050565b600082825260208201905092915050565b6000819050602082019050919050565b614dd681614720565b82525050565b6000614de88383614dcd565b60208301905092915050565b6000602082019050919050565b6000614e0c82614da1565b614e168185614dac565b9350614e2183614dbd565b8060005b83811015614e52578151614e398882614ddc565b9750614e4483614df4565b925050600181019050614e25565b5085935050505092915050565b60006020820190508181036000830152614e798184614e01565b905092915050565b6000610140820190508181036000830152614e9c818d6148ff565b9050614eab602083018c614796565b614eb8604083018b614796565b614ec5606083018a614796565b614ed26080830189614796565b614edf60a0830188614796565b614eec60c0830187614796565b614ef960e0830186614796565b614f07610100830185614796565b614f15610120830184614796565b9b9a5050505050505050505050565b614f2d816146e2565b82525050565b6000602082019050614f486000830184614f24565b92915050565b614f5781614845565b8114614f6257600080fd5b50565b600081359050614f7481614f4e565b92915050565b60008060408385031215614f9157614f906146b8565b5b6000614f9f8582860161470b565b9250506020614fb085828601614f65565b9150509250929050565b600080fd5b60008083601f840112614fd557614fd461495a565b5b8235905067ffffffffffffffff811115614ff257614ff1614fba565b5b60208301915083600182028301111561500e5761500d614a06565b5b9250929050565b60008060008060008060008060006101008a8c031215615038576150376146b8565b5b60006150468c828d01614741565b99505060206150578c828d01614741565b98505060406150688c828d01614741565b97505060608a013567ffffffffffffffff811115615089576150886146bd565b5b6150958c828d01614fbf565b965096505060806150a88c828d01614741565b94505060a06150b98c828d01614741565b93505060c06150ca8c828d01614741565b92505060e08a013567ffffffffffffffff8111156150eb576150ea6146bd565b5b6150f78c828d01614b29565b9150509295985092959850929598565b6000806040838503121561511e5761511d6146b8565b5b600061512c8582860161470b565b925050602061513d8582860161470b565b9150509250929050565b600080600080600060a08688031215615163576151626146b8565b5b60006151718882890161470b565b95505060206151828882890161470b565b945050604061519388828901614741565b93505060606151a488828901614741565b925050608086013567ffffffffffffffff8111156151c5576151c46146bd565b5b6151d188828901614b29565b9150509295509295909350565b7f455243313135353a2061646472657373207a65726f206973206e6f742061207660008201527f616c6964206f776e657200000000000000000000000000000000000000000000602082015250565b600061523a602a836148b3565b9150615245826151de565b604082019050919050565b600060208201905081810360008301526152698161522d565b9050919050565b7f4e487b7100000000000000000000000000000000000000000000000000000000600052601160045260246000fd5b60006152aa82614720565b91506152b583614720565b92508282039050818111156152cd576152cc615270565b5b92915050565b7f4e487b7100000000000000000000000000000000000000000000000000000000600052602260045260246000fd5b6000600282049050600182168061531a57607f821691505b60208210810361532d5761532c6152d3565b5b50919050565b600061533e82614720565b915061534983614720565b925082820261535781614720565b9150828204841483151761536e5761536d615270565b5b5092915050565b7f4e487b7100000000000000000000000000000000000000000000000000000000600052601260045260246000fd5b60006153af82614720565b91506153ba83614720565b9250826153ca576153c9615375565b5b828204905092915050565b7f455243313135353a2063616c6c6572206973206e6f7420746f6b656e206f776e60008201527f6572206f7220617070726f766564000000000000000000000000000000000000602082015250565b6000615431602e836148b3565b915061543c826153d5565b604082019050919050565b6000602082019050818103600083015261546081615424565b9050919050565b7f43616c6c6572206973206e6f7420746865206f776e6572000000000000000000600082015250565b600061549d6017836148b3565b91506154a882615467565b602082019050919050565b600060208201905081810360008301526154cc81615490565b9050919050565b7f5769746864726177206e6f7420616c6c6f776564207768656e20616374697665600082015250565b60006155096020836148b3565b9150615514826154d3565b602082019050919050565b60006020820190508181036000830152615538816154fc565b9050919050565b7f5769746864726177206e6f7420616c6c6f77656420616674657220636f6d706c60008201527f6574696f6e000000000000000000000000000000000000000000000000000000602082015250565b600061559b6025836148b3565b91506155a68261553f565b604082019050919050565b600060208201905081810360008301526155ca8161558e565b9050919050565b7f5769746864726177206e6f7420616c6c6f776564207768656e2064656661756c60008201527f7465640000000000000000000000000000000000000000000000000000000000602082015250565b600061562d6023836148b3565b9150615638826155d1565b604082019050919050565b6000602082019050818103600083015261565c81615620565b9050919050565b7f5769746864726177616c20746f6b656e20616d6f756e7420657863656564732060008201527f746f6b656e20616d6f756e7420696e20636f6e74726163740000000000000000602082015250565b60006156bf6038836148b3565b91506156ca82615663565b604082019050919050565b600060208201905081810360008301526156ee816156b2565b9050919050565b600060408201905061570a6000830185614f24565b6157176020830184614796565b9392505050565b60008151905061572d81614f4e565b92915050565b600060208284031215615749576157486146b8565b5b60006157578482850161571e565b91505092915050565b7f455243313135353a206163636f756e747320616e6420696473206c656e67746860008201527f206d69736d617463680000000000000000000000000000000000000000000000602082015250565b60006157bc6029836148b3565b91506157c782615760565b604082019050919050565b600060208201905081810360008301526157eb816157af565b9050919050565b7f4e487b7100000000000000000000000000000000000000000000000000000000600052603260045260246000fd5b600061582c82614720565b91507fffffffffffffffffffffffffffffffffffffffffffffffffffffffffffffffff820361585e5761585d615270565b5b600182019050919050565b600061587482614720565b915061587f83614720565b925082820190508082111561589757615896615270565b5b92915050565b7f426f6e6420697320696e61637469766500000000000000000000000000000000600082015250565b60006158d36010836148b3565b91506158de8261589d565b602082019050919050565b60006020820190508181036000830152615902816158c6565b9050919050565b7f496e73756666696369656e7420626f6e64207175616e746974792072656d616960008201527f6e696e6700000000000000000000000000000000000000000000000000000000602082015250565b60006159656024836148b3565b915061597082615909565b604082019050919050565b6000602082019050818103600083015261599481615958565b9050919050565b60006060820190506159b06000830186614f24565b6159bd6020830185614f24565b6159ca6040830184614796565b949350505050565b7f426f6e64206973206e6f7420636f6d706c657465640000000000000000000000600082015250565b6000615a086015836148b3565b9150615a13826159d2565b602082019050919050565b60006020820190508181036000830152615a37816159fb565b9050919050565b7f496e73756666696369656e7420626f6e64207175616e74697479000000000000600082015250565b6000615a74601a836148b3565b9150615a7f82615a3e565b602082019050919050565b60006020820190508181036000830152615aa381615a67565b9050919050565b7f426f6e64206973206e6f742064656661756c7465640000000000000000000000600082015250565b6000615ae06015836148b3565b9150615aeb82615aaa565b602082019050919050565b60006020820190508181036000830152615b0f81615ad3565b9050919050565b6000604082019050615b2b6000830185614796565b615b386020830184614796565b9392505050565b7f59656172206f7074696f6e206f7574206f662072616e67650000000000000000600082015250565b6000615b756018836148b3565b9150615b8082615b3f565b602082019050919050565b60006020820190508181036000830152615ba481615b68565b9050919050565b7f416c6c206f626c69676174696f6e732066756c66696c6c656400000000000000600082015250565b6000615be16019836148b3565b9150615bec82615bab565b602082019050919050565b60006020820190508181036000830152615c1081615bd4565b9050919050565b7f4d696e696d756d206f626c69676174696f6e206e6f742066756c66696c6c6564600082015250565b6000615c4d6020836148b3565b9150615c5882615c17565b602082019050919050565b60006020820190508181036000830152615c7c81615c40565b9050919050565b7f46756c66696c6c6d656e742073686f756c64206e6f742065786365656420352560008201527f2061626f7665206f626c69676174696f6e000000000000000000000000000000602082015250565b6000615cdf6031836148b3565b9150615cea82615c83565b604082019050919050565b60006020820190508181036000830152615d0e81615cd2565b9050919050565b7f426f6e64206973206e6f742063616e63656c6564000000000000000000000000600082015250565b6000615d4b6014836148b3565b9150615d5682615d15565b602082019050919050565b60006020820190508181036000830152615d7a81615d3e565b9050919050565b7f426f6e6420697320616c726561647920636f6d706c6574656400000000000000600082015250565b6000615db76019836148b3565b9150615dc282615d81565b602082019050919050565b60006020820190508181036000830152615de681615daa565b9050919050565b7f416374697665206475726174696f6e2073686f756c642062652073686f72746560008201527f72207468616e2031383020646179730000000000000000000000000000000000602082015250565b6000615e49602f836148b3565b9150615e5482615ded565b604082019050919050565b60006020820190508181036000830152615e7881615e3c565b9050919050565b60008190508160005260206000209050919050565b60006020601f8301049050919050565b600082821b905092915050565b600060088302615ee17fffffffffffffffffffffffffffffffffffffffffffffffffffffffffffffffff82615ea4565b615eeb8683615ea4565b95508019841693508086168417925050509392505050565b6000819050919050565b6000615f28615f23615f1e84614720565b615f03565b614720565b9050919050565b6000819050919050565b615f4283615f0d565b615f56615f4e82615f2f565b848454615eb1565b825550505050565b600090565b615f6b615f5e565b615f76818484615f39565b505050565b5b81811015615f9a57615f8f600082615f63565b600181019050615f7c565b5050565b601f821115615fdf57615fb081615e7f565b615fb984615e94565b81016020851015615fc8578190505b615fdc615fd485615e94565b830182615f7b565b50505b505050565b600082821c905092915050565b600061600260001984600802615fe4565b1980831691505092915050565b600061601b8383615ff1565b9150826002028217905092915050565b616034826148a8565b67ffffffffffffffff81111561604d5761604c61495f565b5b6160578254615302565b616062828285615f9e565b600060209050601f8311600181146160955760008415616083578287015190505b61608d858261600f565b8655506160f5565b601f1984166160a386615e7f565b60005b828110156160cb578489015182556001820191506020850194506020810190506160a6565b868310156160e857848901516160e4601f891682615ff1565b8355505b6001600288020188555050505b505050505050565b60006080820190506161126000830187614796565b61611f6020830186614796565b61612c6040830185614796565b6161396060830184614796565b95945050505050565b7f626f6e642069732064656661756c746564000000000000000000000000000000600082015250565b60006161786011836148b3565b915061618382616142565b602082019050919050565b600060208201905081810360008301526161a78161616b565b9050919050565b7f626f6e6420697320636f6d706c65746564000000000000000000000000000000600082015250565b60006161e46011836148b3565b91506161ef826161ae565b602082019050919050565b60006020820190508181036000830152616213816161d7565b9050919050565b6000815190506162298161472a565b92915050565b600060208284031215616245576162446146b8565b5b60006162538482850161621a565b91505092915050565b7f43616e6e6f742077697468647261772065786365737300000000000000000000600082015250565b60006162926016836148b3565b915061629d8261625c565b602082019050919050565b600060208201905081810360008301526162c181616285565b9050919050565b7f43616e6e6f742077697468647261772066726f6d20656d70747920706f6f6c00600082015250565b60006162fe601f836148b3565b9150616309826162c8565b602082019050919050565b6000602082019050818103600083015261632d816162f1565b9050919050565b7f455243313135353a2069647320616e6420616d6f756e7473206c656e6774682060008201527f6d69736d61746368000000000000000000000000000000000000000000000000602082015250565b60006163906028836148b3565b915061639b82616334565b604082019050919050565b600060208201905081810360008301526163bf81616383565b9050919050565b7f455243313135353a207472616e7366657220746f20746865207a65726f20616460008201527f6472657373000000000000000000000000000000000000000000000000000000602082015250565b60006164226025836148b3565b915061642d826163c6565b604082019050919050565b6000602082019050818103600083015261645181616415565b9050919050565b7f455243313135353a20696e73756666696369656e742062616c616e636520666f60008201527f72207472616e7366657200000000000000000000000000000000000000000000602082015250565b60006164b4602a836148b3565b91506164bf82616458565b604082019050919050565b600060208201905081810360008301526164e3816164a7565b9050919050565b600060408201905081810360008301526165048185614e01565b905081810360208301526165188184614e01565b90509392505050565b7f455243313135353a206275726e2066726f6d20746865207a65726f206164647260008201527f6573730000000000000000000000000000000000000000000000000000000000602082015250565b600061657d6023836148b3565b915061658882616521565b604082019050919050565b600060208201905081810360008301526165ac81616570565b9050919050565b7f455243313135353a206275726e20616d6f756e7420657863656564732062616c60008201527f616e636500000000000000000000000000000000000000000000000000000000602082015250565b600061660f6024836148b3565b915061661a826165b3565b604082019050919050565b6000602082019050818103600083015261663e81616602565b9050919050565b7f455243313135353a2073657474696e6720617070726f76616c2073746174757360008201527f20666f722073656c660000000000000000000000000000000000000000000000602082015250565b60006166a16029836148b3565b91506166ac82616645565b604082019050919050565b600060208201905081810360008301526166d081616694565b9050919050565b7f455243313135353a206d696e7420746f20746865207a65726f2061646472657360008201527f7300000000000000000000000000000000000000000000000000000000000000602082015250565b60006167336021836148b3565b915061673e826166d7565b604082019050919050565b6000602082019050818103600083015261676281616726565b9050919050565b600081519050919050565b600082825260208201905092915050565b600061679082616769565b61679a8185616774565b93506167aa8185602086016148c4565b6167b3816148ee565b840191505092915050565b600060a0820190506167d36000830188614f24565b6167e06020830187614f24565b81810360408301526167f28186614e01565b905081810360608301526168068185614e01565b9050818103608083015261681a8184616785565b90509695505050505050565b600081519050616835816147ec565b92915050565b600060208284031215616851576168506146b8565b5b600061685f84828501616826565b91505092915050565b60008160e01c9050919050565b600060033d11156168945760046000803e616891600051616868565b90505b90565b600060443d10616924576168a96146ae565b60043d036004823e80513d602482011167ffffffffffffffff821117156168d1575050616924565b808201805167ffffffffffffffff8111156168ef5750505050616924565b80602083010160043d03850181111561690c575050505050616924565b61691b8260200185018661498e565b82955050505050505b90565b7f455243313135353a207472616e7366657220746f206e6f6e2d4552433131353560008201527f526563656976657220696d706c656d656e746572000000000000000000000000602082015250565b60006169836034836148b3565b915061698e82616927565b604082019050919050565b600060208201905081810360008301526169b281616976565b9050919050565b7f455243313135353a204552433131353552656365697665722072656a6563746560008201527f6420746f6b656e73000000000000000000000000000000000000000000000000602082015250565b6000616a156028836148b3565b9150616a20826169b9565b604082019050919050565b60006020820190508181036000830152616a4481616a08565b9050919050565b600060a082019050616a606000830188614f24565b616a6d6020830187614f24565b616a7a6040830186614796565b616a876060830185614796565b8181036080830152616a998184616785565b9050969550505050505056fea264697066735822122092a28a37bd54830d727071621f848f2bd3ff02074ccf3278f704c76f74084cf864736f6c63430008110033",
  "linkReferences": {},
  "deployedLinkReferences": {}
}