{
  "_format": "hh-sol-artifact-1",
  "contractName": "InstallmentBondFactory",
  "sourceName": "contracts/InstallmentBondFactory.sol",
  "abi": [
    {
      "inputs": [
        {
          "internalType": "string",
          "name": "uri",
          "type": "string"
        },
        {
          "internalType": "address",
          "name": "token",
          "type": "address"
        }
      ],
      "stateMutability": "nonpayable",
      "type": "constructor"
    },
    {
      "anonymous": false,
      "inputs": [
        {
          "indexed": true,
          "internalType": "address",
          "name": "account",
          "type": "address"
        },
        {
          "indexed": true,
          "internalType": "address",
          "name": "operator",
          "type": "address"
        },
        {
          "indexed": false,
          "internalType": "bool",
          "name": "approved",
          "type": "bool"
        }
      ],
      "name": "ApprovalForAll",
      "type": "event"
    },
    {
      "anonymous": false,
      "inputs": [
        {
          "indexed": true,
          "internalType": "uint256",
          "name": "id",
          "type": "uint256"
        },
        {
          "indexed": false,
          "internalType": "uint256",
          "name": "totalDebt",
          "type": "uint256"
        },
        {
          "indexed": false,
          "internalType": "uint256",
          "name": "paidDebt",
          "type": "uint256"
        }
      ],
      "name": "Completed",
      "type": "event"
    },
    {
      "anonymous": false,
      "inputs": [
        {
          "indexed": true,
          "internalType": "uint256",
          "name": "id",
          "type": "uint256"
        },
        {
          "indexed": false,
          "internalType": "uint256",
          "name": "totalDebt",
          "type": "uint256"
        },
        {
          "indexed": false,
          "internalType": "uint256",
          "name": "paidDebt",
          "type": "uint256"
        }
      ],
      "name": "Defaulted",
      "type": "event"
    },
    {
      "anonymous": false,
      "inputs": [
        {
          "indexed": true,
          "internalType": "uint256",
          "name": "id",
          "type": "uint256"
        },
        {
          "indexed": false,
          "internalType": "uint256",
          "name": "bondQuantity",
          "type": "uint256"
        },
        {
          "indexed": false,
          "internalType": "uint256",
          "name": "tokenAmountPerBond",
          "type": "uint256"
        },
        {
          "indexed": false,
          "internalType": "uint256",
          "name": "couponRate",
          "type": "uint256"
        }
      ],
      "name": "Issued",
      "type": "event"
    },
    {
      "anonymous": false,
      "inputs": [
        {
          "indexed": true,
          "internalType": "address",
          "name": "operator",
          "type": "address"
        },
        {
          "indexed": true,
          "internalType": "address",
          "name": "from",
          "type": "address"
        },
        {
          "indexed": true,
          "internalType": "address",
          "name": "to",
          "type": "address"
        },
        {
          "indexed": false,
          "internalType": "uint256[]",
          "name": "ids",
          "type": "uint256[]"
        },
        {
          "indexed": false,
          "internalType": "uint256[]",
          "name": "values",
          "type": "uint256[]"
        }
      ],
      "name": "TransferBatch",
      "type": "event"
    },
    {
      "anonymous": false,
      "inputs": [
        {
          "indexed": true,
          "internalType": "address",
          "name": "operator",
          "type": "address"
        },
        {
          "indexed": true,
          "internalType": "address",
          "name": "from",
          "type": "address"
        },
        {
          "indexed": true,
          "internalType": "address",
          "name": "to",
          "type": "address"
        },
        {
          "indexed": false,
          "internalType": "uint256",
          "name": "id",
          "type": "uint256"
        },
        {
          "indexed": false,
          "internalType": "uint256",
          "name": "value",
          "type": "uint256"
        }
      ],
      "name": "TransferSingle",
      "type": "event"
    },
    {
      "anonymous": false,
      "inputs": [
        {
          "indexed": false,
          "internalType": "string",
          "name": "value",
          "type": "string"
        },
        {
          "indexed": true,
          "internalType": "uint256",
          "name": "id",
          "type": "uint256"
        }
      ],
      "name": "URI",
      "type": "event"
    },
    {
      "inputs": [
        {
          "internalType": "address",
          "name": "account",
          "type": "address"
        },
        {
          "internalType": "uint256",
          "name": "id",
          "type": "uint256"
        }
      ],
      "name": "balanceOf",
      "outputs": [
        {
          "internalType": "uint256",
          "name": "",
          "type": "uint256"
        }
      ],
      "stateMutability": "view",
      "type": "function"
    },
    {
      "inputs": [
        {
          "internalType": "address[]",
          "name": "accounts",
          "type": "address[]"
        },
        {
          "internalType": "uint256[]",
          "name": "ids",
          "type": "uint256[]"
        }
      ],
      "name": "balanceOfBatch",
      "outputs": [
        {
          "internalType": "uint256[]",
          "name": "",
          "type": "uint256[]"
        }
      ],
      "stateMutability": "view",
      "type": "function"
    },
    {
      "inputs": [
        {
          "internalType": "uint256",
          "name": "id",
          "type": "uint256"
        }
      ],
      "name": "bondmetaData",
      "outputs": [
        {
          "internalType": "string",
          "name": "",
          "type": "string"
        },
        {
          "internalType": "uint256",
          "name": "",
          "type": "uint256"
        },
        {
          "internalType": "uint256",
          "name": "",
          "type": "uint256"
        },
        {
          "internalType": "uint256",
          "name": "",
          "type": "uint256"
        },
        {
          "internalType": "uint256",
          "name": "",
          "type": "uint256"
        },
        {
          "internalType": "uint256",
          "name": "",
          "type": "uint256"
        },
        {
          "internalType": "uint256",
          "name": "",
          "type": "uint256"
        },
        {
          "internalType": "uint256",
          "name": "",
          "type": "uint256"
        },
        {
          "internalType": "uint256",
          "name": "",
          "type": "uint256"
        },
        {
          "internalType": "uint256",
          "name": "",
          "type": "uint256"
        }
      ],
      "stateMutability": "view",
      "type": "function"
    },
    {
      "inputs": [
        {
          "internalType": "uint256",
          "name": "id",
          "type": "uint256"
        }
      ],
      "name": "couponRate",
      "outputs": [
        {
          "internalType": "uint256",
          "name": "",
          "type": "uint256"
        }
      ],
      "stateMutability": "view",
      "type": "function"
    },
    {
      "inputs": [
        {
          "internalType": "uint256",
          "name": "id",
          "type": "uint256"
        },
        {
          "internalType": "uint256",
          "name": "tokenAmount",
          "type": "uint256"
        }
      ],
      "name": "deposit",
      "outputs": [],
      "stateMutability": "nonpayable",
      "type": "function"
    },
    {
      "inputs": [
        {
          "internalType": "uint256",
          "name": "id",
          "type": "uint256"
        },
        {
          "internalType": "uint256",
          "name": "tokenAmountPerBond",
          "type": "uint256"
        }
      ],
      "name": "fulfillObligationsAndLock",
      "outputs": [],
      "stateMutability": "nonpayable",
      "type": "function"
    },
    {
      "inputs": [
        {
          "internalType": "uint256",
          "name": "id",
          "type": "uint256"
        }
      ],
      "name": "hasReachedMaturity",
      "outputs": [
        {
          "internalType": "bool",
          "name": "",
          "type": "bool"
        }
      ],
      "stateMutability": "view",
      "type": "function"
    },
    {
      "inputs": [
        {
          "internalType": "uint256",
          "name": "id",
          "type": "uint256"
        }
      ],
      "name": "isActive",
      "outputs": [
        {
          "internalType": "bool",
          "name": "",
          "type": "bool"
        }
      ],
      "stateMutability": "view",
      "type": "function"
    },
    {
      "inputs": [
        {
          "internalType": "address",
          "name": "account",
          "type": "address"
        },
        {
          "internalType": "address",
          "name": "operator",
          "type": "address"
        }
      ],
      "name": "isApprovedForAll",
      "outputs": [
        {
          "internalType": "bool",
          "name": "",
          "type": "bool"
        }
      ],
      "stateMutability": "view",
      "type": "function"
    },
    {
      "inputs": [
        {
          "internalType": "uint256",
          "name": "id",
          "type": "uint256"
        }
      ],
      "name": "isCanceled",
      "outputs": [
        {
          "internalType": "bool",
          "name": "",
          "type": "bool"
        }
      ],
      "stateMutability": "view",
      "type": "function"
    },
    {
      "inputs": [
        {
          "internalType": "uint256",
          "name": "id",
          "type": "uint256"
        }
      ],
      "name": "isCompleted",
      "outputs": [
        {
          "internalType": "bool",
          "name": "",
          "type": "bool"
        }
      ],
      "stateMutability": "view",
      "type": "function"
    },
    {
      "inputs": [
        {
          "internalType": "uint256",
          "name": "id",
          "type": "uint256"
        }
      ],
      "name": "isCompletedInTheory",
      "outputs": [
        {
          "internalType": "bool",
          "name": "",
          "type": "bool"
        }
      ],
      "stateMutability": "view",
      "type": "function"
    },
    {
      "inputs": [
        {
          "internalType": "uint256",
          "name": "id",
          "type": "uint256"
        }
      ],
      "name": "isDefaulted",
      "outputs": [
        {
          "internalType": "bool",
          "name": "",
          "type": "bool"
        }
      ],
      "stateMutability": "view",
      "type": "function"
    },
    {
      "inputs": [
        {
          "internalType": "uint256",
          "name": "id",
          "type": "uint256"
        }
      ],
      "name": "isDefaultedInTheory",
      "outputs": [
        {
          "internalType": "bool",
          "name": "",
          "type": "bool"
        }
      ],
      "stateMutability": "view",
      "type": "function"
    },
    {
      "inputs": [
        {
          "internalType": "uint256",
          "name": "id",
          "type": "uint256"
        }
      ],
      "name": "isFulfilled",
      "outputs": [
        {
          "internalType": "bool",
          "name": "",
          "type": "bool"
        }
      ],
      "stateMutability": "view",
      "type": "function"
    },
    {
      "inputs": [
        {
          "internalType": "uint256",
          "name": "id",
          "type": "uint256"
        }
      ],
      "name": "isFullyRedeemed",
      "outputs": [
        {
          "internalType": "bool",
          "name": "",
          "type": "bool"
        }
      ],
      "stateMutability": "view",
      "type": "function"
    },
    {
      "inputs": [
        {
          "internalType": "uint256",
          "name": "bondQuantity",
          "type": "uint256"
        },
        {
          "internalType": "uint256",
          "name": "minPurchasedQuantity",
          "type": "uint256"
        },
        {
          "internalType": "uint256",
          "name": "tokenAmountPerBond",
          "type": "uint256"
        },
        {
          "internalType": "string",
          "name": "ticker",
          "type": "string"
        },
        {
          "internalType": "uint256",
          "name": "yearOption",
          "type": "uint256"
        },
        {
          "internalType": "uint256",
          "name": "activeDurationInDays",
          "type": "uint256"
        },
        {
          "internalType": "uint256",
          "name": "rate",
          "type": "uint256"
        },
        {
          "internalType": "bytes",
          "name": "data",
          "type": "bytes"
        }
      ],
      "name": "issue",
      "outputs": [
        {
          "internalType": "uint256",
          "name": "id",
          "type": "uint256"
        }
      ],
      "stateMutability": "nonpayable",
      "type": "function"
    },
    {
      "inputs": [
        {
          "internalType": "uint256",
          "name": "id",
          "type": "uint256"
        }
      ],
      "name": "lockedTokenAmount",
      "outputs": [
        {
          "internalType": "uint256",
          "name": "",
          "type": "uint256"
        }
      ],
      "stateMutability": "view",
      "type": "function"
    },
    {
      "inputs": [
        {
          "internalType": "uint256",
          "name": "id",
          "type": "uint256"
        }
      ],
      "name": "lockedTokenAmountPerBond",
      "outputs": [
        {
          "internalType": "uint256",
          "name": "",
          "type": "uint256"
        }
      ],
      "stateMutability": "view",
      "type": "function"
    },
    {
      "inputs": [
        {
          "internalType": "uint256",
          "name": "id",
          "type": "uint256"
        }
      ],
      "name": "markAsCompleted",
      "outputs": [],
      "stateMutability": "nonpayable",
      "type": "function"
    },
    {
      "inputs": [
        {
          "internalType": "uint256",
          "name": "id",
          "type": "uint256"
        }
      ],
      "name": "markAsDefaulted",
      "outputs": [],
      "stateMutability": "nonpayable",
      "type": "function"
    },
    {
      "inputs": [
        {
          "internalType": "uint256",
          "name": "id",
          "type": "uint256"
        }
      ],
      "name": "poolAmount",
      "outputs": [
        {
          "internalType": "uint256",
          "name": "",
          "type": "uint256"
        }
      ],
      "stateMutability": "view",
      "type": "function"
    },
    {
      "inputs": [
        {
          "internalType": "uint256",
          "name": "id",
          "type": "uint256"
        }
      ],
      "name": "principal",
      "outputs": [
        {
          "internalType": "uint256",
          "name": "",
          "type": "uint256"
        }
      ],
      "stateMutability": "view",
      "type": "function"
    },
    {
      "inputs": [
        {
          "internalType": "uint256",
          "name": "id",
          "type": "uint256"
        }
      ],
      "name": "principalWithInterest",
      "outputs": [
        {
          "internalType": "uint256",
          "name": "",
          "type": "uint256"
        }
      ],
      "stateMutability": "view",
      "type": "function"
    },
    {
      "inputs": [
        {
          "internalType": "uint256",
          "name": "id",
          "type": "uint256"
        },
        {
          "internalType": "uint256",
          "name": "bondQuantity",
          "type": "uint256"
        }
      ],
      "name": "purchase",
      "outputs": [],
      "stateMutability": "nonpayable",
      "type": "function"
    },
    {
      "inputs": [
        {
          "internalType": "uint256",
          "name": "id",
          "type": "uint256"
        },
        {
          "internalType": "uint256",
          "name": "bondQuantity",
          "type": "uint256"
        }
      ],
      "name": "redeem",
      "outputs": [],
      "stateMutability": "nonpayable",
      "type": "function"
    },
    {
      "inputs": [
        {
          "internalType": "uint256",
          "name": "id",
          "type": "uint256"
        },
        {
          "internalType": "uint256",
          "name": "bondQuantity",
          "type": "uint256"
        }
      ],
      "name": "redeemCanceled",
      "outputs": [],
      "stateMutability": "nonpayable",
      "type": "function"
    },
    {
      "inputs": [
        {
          "internalType": "uint256",
          "name": "id",
          "type": "uint256"
        },
        {
          "internalType": "uint256",
          "name": "bondQuantity",
          "type": "uint256"
        }
      ],
      "name": "redeemDefaulted",
      "outputs": [],
      "stateMutability": "nonpayable",
      "type": "function"
    },
    {
      "inputs": [
        {
          "internalType": "uint256",
          "name": "id",
          "type": "uint256"
        }
      ],
      "name": "remainingQuantity",
      "outputs": [
        {
          "internalType": "uint256",
          "name": "",
          "type": "uint256"
        }
      ],
      "stateMutability": "view",
      "type": "function"
    },
    {
      "inputs": [
        {
          "internalType": "uint256",
          "name": "tokenAmountPerBond",
          "type": "uint256"
        },
        {
          "internalType": "uint256",
          "name": "yearOption",
          "type": "uint256"
        }
      ],
      "name": "retrieveMinObligationList",
      "outputs": [
        {
          "internalType": "uint256[]",
          "name": "",
          "type": "uint256[]"
        }
      ],
      "stateMutability": "view",
      "type": "function"
    },
    {
      "inputs": [
        {
          "internalType": "address",
          "name": "from",
          "type": "address"
        },
        {
          "internalType": "address",
          "name": "to",
          "type": "address"
        },
        {
          "internalType": "uint256[]",
          "name": "ids",
          "type": "uint256[]"
        },
        {
          "internalType": "uint256[]",
          "name": "amounts",
          "type": "uint256[]"
        },
        {
          "internalType": "bytes",
          "name": "data",
          "type": "bytes"
        }
      ],
      "name": "safeBatchTransferFrom",
      "outputs": [],
      "stateMutability": "nonpayable",
      "type": "function"
    },
    {
      "inputs": [
        {
          "internalType": "address",
          "name": "from",
          "type": "address"
        },
        {
          "internalType": "address",
          "name": "to",
          "type": "address"
        },
        {
          "internalType": "uint256",
          "name": "id",
          "type": "uint256"
        },
        {
          "internalType": "uint256",
          "name": "amount",
          "type": "uint256"
        },
        {
          "internalType": "bytes",
          "name": "data",
          "type": "bytes"
        }
      ],
      "name": "safeTransferFrom",
      "outputs": [],
      "stateMutability": "nonpayable",
      "type": "function"
    },
    {
      "inputs": [
        {
          "internalType": "address",
          "name": "operator",
          "type": "address"
        },
        {
          "internalType": "bool",
          "name": "approved",
          "type": "bool"
        }
      ],
      "name": "setApprovalForAll",
      "outputs": [],
      "stateMutability": "nonpayable",
      "type": "function"
    },
    {
      "inputs": [
        {
          "internalType": "bytes4",
          "name": "interfaceId",
          "type": "bytes4"
        }
      ],
      "name": "supportsInterface",
      "outputs": [
        {
          "internalType": "bool",
          "name": "",
          "type": "bool"
        }
      ],
      "stateMutability": "view",
      "type": "function"
    },
    {
      "inputs": [
        {
          "internalType": "uint256",
          "name": "id",
          "type": "uint256"
        }
      ],
      "name": "timeElapsed",
      "outputs": [
        {
          "internalType": "uint256",
          "name": "",
          "type": "uint256"
        }
      ],
      "stateMutability": "view",
      "type": "function"
    },
    {
      "inputs": [
        {
          "internalType": "uint256",
          "name": "id",
          "type": "uint256"
        }
      ],
      "name": "timeRemainingToEndOfActive",
      "outputs": [
        {
          "internalType": "uint256",
          "name": "",
          "type": "uint256"
        }
      ],
      "stateMutability": "view",
      "type": "function"
    },
    {
      "inputs": [
        {
          "internalType": "uint256",
          "name": "id",
          "type": "uint256"
        }
      ],
      "name": "timeRemainingToMaturity",
      "outputs": [
        {
          "internalType": "uint256",
          "name": "",
          "type": "uint256"
        }
      ],
      "stateMutability": "view",
      "type": "function"
    },
    {
      "inputs": [],
      "name": "tvl",
      "outputs": [
        {
          "internalType": "uint256",
          "name": "",
          "type": "uint256"
        }
      ],
      "stateMutability": "view",
      "type": "function"
    },
    {
      "inputs": [
        {
          "internalType": "uint256",
          "name": "",
          "type": "uint256"
        }
      ],
      "name": "uri",
      "outputs": [
        {
          "internalType": "string",
          "name": "",
          "type": "string"
        }
      ],
      "stateMutability": "view",
      "type": "function"
    },
    {
      "inputs": [
        {
          "internalType": "uint256",
          "name": "id",
          "type": "uint256"
        },
        {
          "internalType": "uint256",
          "name": "tokenAmount",
          "type": "uint256"
        }
      ],
      "name": "withdraw",
      "outputs": [],
      "stateMutability": "nonpayable",
      "type": "function"
    },
    {
      "inputs": [
        {
          "internalType": "uint256",
          "name": "id",
          "type": "uint256"
        }
      ],
      "name": "withdrawExcess",
      "outputs": [],
      "stateMutability": "nonpayable",
      "type": "function"
    },
    {
      "inputs": [
        {
          "internalType": "uint256",
          "name": "option",
          "type": "uint256"
        }
      ],
      "name": "yearOptionToDays",
      "outputs": [
        {
          "internalType": "uint256",
          "name": "",
          "type": "uint256"
        }
      ],
      "stateMutability": "pure",
      "type": "function"
    },
    {
      "inputs": [
        {
          "internalType": "uint256",
          "name": "option",
          "type": "uint256"
        }
      ],
      "name": "yearOptionToObligationRateList",
      "outputs": [
        {
          "internalType": "uint256[]",
          "name": "",
          "type": "uint256[]"
        }
      ],
      "stateMutability": "view",
      "type": "function"
    }
  ],
  "bytecode": "0x60c060405260006003556040518060a00160405280600560ff168152602001600560ff168152602001600a60ff168152602001600f60ff168152602001600f60ff16815250600c9060056200005692919062000278565b50604051806101200160405280600260ff168152602001600360ff168152602001600560ff168152602001600560ff168152602001600560ff168152602001600a60ff168152602001600a60ff168152602001600f60ff168152602001600f60ff16815250600d906009620000cd929190620002cf565b50604051806102600160405280600260ff168152602001600260ff168152602001600260ff168152602001600460ff168152602001600560ff168152602001600560ff168152602001600560ff168152602001600560ff168152602001600560ff168152602001600560ff168152602001600560ff168152602001600560ff168152602001600560ff168152602001600560ff168152602001600560ff168152602001600560ff168152602001600560ff168152602001600560ff168152602001600a60ff16815250600e906013620001a892919062000326565b50348015620001b657600080fd5b50604051620071aa380380620071aa8339818101604052810190620001dc919062000594565b818181620001f0816200026360201b60201c565b503373ffffffffffffffffffffffffffffffffffffffff1660808173ffffffffffffffffffffffffffffffffffffffff16815250508073ffffffffffffffffffffffffffffffffffffffff1660a08173ffffffffffffffffffffffffffffffffffffffff1681525050505050506200092c565b806002908162000274919062000845565b5050565b828054828255906000526020600020908101928215620002bc579160200282015b82811115620002bb578251829060ff1690559160200191906001019062000299565b5b509050620002cb91906200037d565b5090565b82805482825590600052602060002090810192821562000313579160200282015b8281111562000312578251829060ff16905591602001919060010190620002f0565b5b5090506200032291906200037d565b5090565b8280548282559060005260206000209081019282156200036a579160200282015b8281111562000369578251829060ff1690559160200191906001019062000347565b5b5090506200037991906200037d565b5090565b5b80821115620003985760008160009055506001016200037e565b5090565b6000604051905090565b600080fd5b600080fd5b600080fd5b600080fd5b6000601f19601f8301169050919050565b7f4e487b7100000000000000000000000000000000000000000000000000000000600052604160045260246000fd5b6200040582620003ba565b810181811067ffffffffffffffff82111715620004275762000426620003cb565b5b80604052505050565b60006200043c6200039c565b90506200044a8282620003fa565b919050565b600067ffffffffffffffff8211156200046d576200046c620003cb565b5b6200047882620003ba565b9050602081019050919050565b60005b83811015620004a557808201518184015260208101905062000488565b60008484015250505050565b6000620004c8620004c2846200044f565b62000430565b905082815260208101848484011115620004e757620004e6620003b5565b5b620004f484828562000485565b509392505050565b600082601f830112620005145762000513620003b0565b5b815162000526848260208601620004b1565b91505092915050565b600073ffffffffffffffffffffffffffffffffffffffff82169050919050565b60006200055c826200052f565b9050919050565b6200056e816200054f565b81146200057a57600080fd5b50565b6000815190506200058e8162000563565b92915050565b60008060408385031215620005ae57620005ad620003a6565b5b600083015167ffffffffffffffff811115620005cf57620005ce620003ab565b5b620005dd85828601620004fc565b9250506020620005f0858286016200057d565b9150509250929050565b600081519050919050565b7f4e487b7100000000000000000000000000000000000000000000000000000000600052602260045260246000fd5b600060028204905060018216806200064d57607f821691505b60208210810362000663576200066262000605565b5b50919050565b60008190508160005260206000209050919050565b60006020601f8301049050919050565b600082821b905092915050565b600060088302620006cd7fffffffffffffffffffffffffffffffffffffffffffffffffffffffffffffffff826200068e565b620006d986836200068e565b95508019841693508086168417925050509392505050565b6000819050919050565b6000819050919050565b600062000726620007206200071a84620006f1565b620006fb565b620006f1565b9050919050565b6000819050919050565b620007428362000705565b6200075a62000751826200072d565b8484546200069b565b825550505050565b600090565b6200077162000762565b6200077e81848462000737565b505050565b5b81811015620007a6576200079a60008262000767565b60018101905062000784565b5050565b601f821115620007f557620007bf8162000669565b620007ca846200067e565b81016020851015620007da578190505b620007f2620007e9856200067e565b83018262000783565b50505b505050565b600082821c905092915050565b60006200081a60001984600802620007fa565b1980831691505092915050565b600062000835838362000807565b9150826002028217905092915050565b6200085082620005fa565b67ffffffffffffffff8111156200086c576200086b620003cb565b5b62000878825462000634565b62000885828285620007aa565b600060209050601f831160018114620008bd5760008415620008a8578287015190505b620008b4858262000827565b86555062000924565b601f198416620008cd8662000669565b60005b82811015620008f757848901518255600182019150602085019450602081019050620008d0565b8683101562000917578489015162000913601f89168262000807565b8355505b6001600288020188555050505b505050505050565b60805160a0516167f6620009b46000396000818161104e015281816114de015281816116f401528181611a2c01528181611cb001528181612144015281816122d90152818161251f01528181612d7301528181612f88015261317d015260008181610dee01528181611d9e0152818161273301528181612c19015261302701526167f66000f3fe608060405234801561001057600080fd5b50600436106102685760003560e01c806388bdc08311610151578063c36177fc116100c3578063e52270e011610087578063e52270e01461088a578063e5328e06146108ba578063e755ddd7146108d8578063e8858090146108f4578063e985e9c514610924578063f242432a1461095457610268565b8063c36177fc146107a5578063c7bc5730146107d5578063d32fe02e14610805578063d3b7811b1461083e578063e2bbb1581461086e57610268565b8063a9385a5c11610115578063a9385a5c146106d5578063a996ef0814610705578063abac75e114610721578063af73e2c914610751578063b09f2b1c1461076d578063c0a6026c1461078957610268565b806388bdc0831461060d5780638f0dbf771461063d578063932a8de01461066d578063a22cb4651461069d578063a8743022146106b957610268565b80633097afb8116101ea5780636ff80d93116101ae5780636ff80d931461051557806370876c981461054557806377e2a08b146105615780637a41984b146105915780637cbc2373146105c157806382afd23b146105dd57610268565b80633097afb81461043957806339e3af9b14610469578063441a3e70146104995780634e1273f4146104b5578063549493bb146104e557610268565b80630e89341c116102315780630e89341c1461035d57806314f294931461038d5780631add0271146103bd5780632eb2c2d6146103ed5780632f3ad61f1461040957610268565b8062fdd58e1461026d57806301ffc9a71461029d57806302159497146102cd57806308913ce8146102fd578063091490201461032d575b600080fd5b6102876004803603810190610282919061447f565b610970565b60405161029491906144ce565b60405180910390f35b6102b760048036038101906102b29190614541565b610a38565b6040516102c49190614589565b60405180910390f35b6102e760048036038101906102e291906145a4565b610b1a565b6040516102f491906144ce565b60405180910390f35b610317600480360381019061031291906145a4565b610b37565b60405161032491906144ce565b60405180910390f35b610347600480360381019061034291906145a4565b610b62565b6040516103549190614589565b60405180910390f35b610377600480360381019061037291906145a4565b610b98565b6040516103849190614661565b60405180910390f35b6103a760048036038101906103a291906145a4565b610c2c565b6040516103b491906144ce565b60405180910390f35b6103d760048036038101906103d291906145a4565b610c6a565b6040516103e491906144ce565b60405180910390f35b61040760048036038101906104029190614880565b610cc3565b005b610423600480360381019061041e91906145a4565b610d64565b6040516104309190614589565b60405180910390f35b610453600480360381019061044e91906145a4565b610d8e565b6040516104609190614589565b60405180910390f35b610483600480360381019061047e91906145a4565b610dc7565b6040516104909190614589565b60405180910390f35b6104b360048036038101906104ae919061494f565b610dec565b005b6104cf60048036038101906104ca9190614a52565b6110ef565b6040516104dc9190614b88565b60405180910390f35b6104ff60048036038101906104fa91906145a4565b611208565b60405161050c9190614589565b60405180910390f35b61052f600480360381019061052a91906145a4565b61123a565b60405161053c9190614589565b60405180910390f35b61055f600480360381019061055a919061494f565b6112d2565b005b61057b600480360381019061057691906145a4565b611583565b60405161058891906144ce565b60405180910390f35b6105ab60048036038101906105a691906145a4565b6115dc565b6040516105b89190614589565b60405180910390f35b6105db60048036038101906105d6919061494f565b611606565b005b6105f760048036038101906105f291906145a4565b6117c0565b6040516106049190614589565b60405180910390f35b610627600480360381019061062291906145a4565b6117e3565b60405161063491906144ce565b60405180910390f35b610657600480360381019061065291906145a4565b611816565b6040516106649190614589565b60405180910390f35b610687600480360381019061068291906145a4565b611838565b60405161069491906144ce565b60405180910390f35b6106b760048036038101906106b29190614bd6565b611876565b005b6106d360048036038101906106ce91906145a4565b61188c565b005b6106ef60048036038101906106ea91906145a4565b611b0b565b6040516106fc91906144ce565b60405180910390f35b61071f600480360381019061071a919061494f565b611bc2565b005b61073b600480360381019061073691906145a4565b611d7c565b60405161074891906144ce565b60405180910390f35b61076b6004803603810190610766919061494f565b611d9c565b005b6107876004803603810190610782919061494f565b6121e8565b005b6107a3600480360381019061079e91906145a4565b6123a5565b005b6107bf60048036038101906107ba919061494f565b6125fe565b6040516107cc9190614b88565b60405180910390f35b6107ef60048036038101906107ea9190614c71565b61272f565b6040516107fc91906144ce565b60405180910390f35b61081f600480360381019061081a91906145a4565b612a70565b6040516108359a99989796959493929190614d63565b60405180910390f35b610858600480360381019061085391906145a4565b612be4565b60405161086591906144ce565b60405180910390f35b6108886004803603810190610883919061494f565b612c17565b005b6108a4600480360381019061089f91906145a4565b612e16565b6040516108b19190614b88565b60405180910390f35b6108c2612f84565b6040516108cf91906144ce565b60405180910390f35b6108f260048036038101906108ed91906145a4565b613025565b005b61090e600480360381019061090991906145a4565b613230565b60405161091b91906144ce565b60405180910390f35b61093e60048036038101906109399190614e06565b61324d565b60405161094b9190614589565b60405180910390f35b61096e60048036038101906109699190614e46565b6132e1565b005b60008073ffffffffffffffffffffffffffffffffffffffff168373ffffffffffffffffffffffffffffffffffffffff16036109e0576040517f08c379a00000000000000000000000000000000000000000000000000000000081526004016109d790614f4f565b60405180910390fd5b60008083815260200190815260200160002060008473ffffffffffffffffffffffffffffffffffffffff1673ffffffffffffffffffffffffffffffffffffffff16815260200190815260200160002054905092915050565b60007fd9b67a26000000000000000000000000000000000000000000000000000000007bffffffffffffffffffffffffffffffffffffffffffffffffffffffff1916827bffffffffffffffffffffffffffffffffffffffffffffffffffffffff19161480610b0357507f0e89341c000000000000000000000000000000000000000000000000000000007bffffffffffffffffffffffffffffffffffffffffffffffffffffffff1916827bffffffffffffffffffffffffffffffffffffffffffffffffffffffff1916145b80610b135750610b1282613382565b5b9050919050565b600060076000838152602001908152602001600020549050919050565b6000600460008381526020019081526020016000206002015442610b5b9190614f9e565b9050919050565b60006004600083815260200190815260200160002060080154600560008481526020019081526020016000205410159050919050565b606060028054610ba790615001565b80601f0160208091040260200160405190810160405280929190818152602001828054610bd390615001565b8015610c205780601f10610bf557610100808354040283529160200191610c20565b820191906000526020600020905b815481529060010190602001808311610c0357829003601f168201915b50505050509050919050565b600060056000838152602001908152602001600020546004600084815260200190815260200160002060010154610c639190615032565b9050919050565b6000670de0b6b3a76400006004600084815260200190815260200160002060070154670de0b6b3a7640000610c9e85613230565b610ca89190615032565b610cb291906150a3565b610cbc91906150a3565b9050919050565b610ccb6133ec565b73ffffffffffffffffffffffffffffffffffffffff168573ffffffffffffffffffffffffffffffffffffffff161480610d115750610d1085610d0b6133ec565b61324d565b5b610d50576040517f08c379a0000000000000000000000000000000000000000000000000000000008152600401610d4790615146565b60405180910390fd5b610d5d85858585856133f4565b5050505050565b6000600a600083815260200190815260200160002060009054906101000a900460ff169050919050565b6000610d9982611816565b8015610dc05750610da982611583565b600760008481526020019081526020016000205410155b9050919050565b6000610dd2826117c0565b158015610de55750610de382610b62565b155b9050919050565b7f000000000000000000000000000000000000000000000000000000000000000073ffffffffffffffffffffffffffffffffffffffff163373ffffffffffffffffffffffffffffffffffffffff1614610e7a576040517f08c379a0000000000000000000000000000000000000000000000000000000008152600401610e71906151b2565b60405180910390fd5b610e83826117c0565b15610ec3576040517f08c379a0000000000000000000000000000000000000000000000000000000008152600401610eba9061521e565b60405180910390fd5b610ecc82610dc7565b15610f0c576040517f08c379a0000000000000000000000000000000000000000000000000000000008152600401610f039061521e565b60405180910390fd5b610f15826115dc565b15610f55576040517f08c379a0000000000000000000000000000000000000000000000000000000008152600401610f4c906152b0565b60405180910390fd5b610f5e82610d64565b80610f6e5750610f6d8261123a565b5b15610fae576040517f08c379a0000000000000000000000000000000000000000000000000000000008152600401610fa590615342565b60405180910390fd5b60116000838152602001908152602001600020546007600084815260200190815260200160002054610fe09190614f9e565b811115611022576040517f08c379a0000000000000000000000000000000000000000000000000000000008152600401611019906153d4565b60405180910390fd5b806007600084815260200190815260200160002060008282546110459190614f9e565b925050819055507f000000000000000000000000000000000000000000000000000000000000000073ffffffffffffffffffffffffffffffffffffffff1663a9059cbb33836040518363ffffffff1660e01b81526004016110a7929190615403565b6020604051808303816000875af11580156110c6573d6000803e3d6000fd5b505050506040513d601f19601f820116820180604052508101906110ea9190615441565b505050565b60608151835114611135576040517f08c379a000000000000000000000000000000000000000000000000000000000815260040161112c906154e0565b60405180910390fd5b6000835167ffffffffffffffff81111561115257611151614688565b5b6040519080825280602002602001820160405280156111805781602001602082028036833780820191505090505b50905060005b84518110156111fd576111cd8582815181106111a5576111a4615500565b5b60200260200101518583815181106111c0576111bf615500565b5b6020026020010151610970565b8282815181106111e0576111df615500565b5b602002602001018181525050806111f69061552f565b9050611186565b508091505092915050565b600060056000838152602001908152602001600020546006600084815260200190815260200160002054149050919050565b60008061124683611816565b801561126c575061125683611583565b6007600085815260200190815260200160002054105b9050600061127984611816565b1580156112be57506201518060b4600160126000888152602001908152602001600020546112a79190615577565b6112b19190615032565b6112bb9190615032565b42115b905081806112c95750805b92505050919050565b6112db826117c0565b61131a576040517f08c379a0000000000000000000000000000000000000000000000000000000008152600401611311906155f7565b60405180910390fd5b8061132483611838565b1015611365576040517f08c379a000000000000000000000000000000000000000000000000000000000815260040161135c90615689565b60405180910390fd5b6000600460008481526020019081526020016000206040518061014001604052908160008201805461139690615001565b80601f01602080910402602001604051908101604052809291908181526020018280546113c290615001565b801561140f5780601f106113e45761010080835404028352916020019161140f565b820191906000526020600020905b8154815290600101906020018083116113f257829003601f168201915b505050505081526020016001820154815260200160028201548152602001600382015481526020016004820154815260200160058201548152602001600682015481526020016007820154815260200160088201548152602001600982015481525050905060008160200151836114869190615032565b9050826005600086815260200190815260200160002060008282546114ab9190615577565b92505081905550806007600086815260200190815260200160002060008282546114d59190615577565b925050819055507f000000000000000000000000000000000000000000000000000000000000000073ffffffffffffffffffffffffffffffffffffffff166323b872dd3330846040518463ffffffff1660e01b8152600401611539939291906156a9565b6020604051808303816000875af1158015611558573d6000803e3d6000fd5b505050506040513d601f19601f8201168201806040525081019061157c9190615441565b5050505050565b6000670de0b6b3a764000060046000848152602001908152602001600020600901546115ae84610c2c565b6115b89190615032565b6115c291906150a3565b6115cb83610c2c565b6115d59190615577565b9050919050565b6000600b600083815260200190815260200160002060009054906101000a900460ff169050919050565b61160f826115dc565b61164e576040517f08c379a00000000000000000000000000000000000000000000000000000000081526004016116459061572c565b60405180910390fd5b806116593384610970565b101561169a576040517f08c379a000000000000000000000000000000000000000000000000000000000815260040161169190615798565b60405180910390fd5b6116a5338383613715565b806006600084815260200190815260200160002060008282546116c89190615577565b9250508190555060006009600084815260200190815260200160002054826116f09190615032565b90507f000000000000000000000000000000000000000000000000000000000000000073ffffffffffffffffffffffffffffffffffffffff1663a9059cbb33836040518363ffffffff1660e01b815260040161174d929190615403565b6020604051808303816000875af115801561176c573d6000803e3d6000fd5b505050506040513d601f19601f820116820180604052508101906117909190615441565b50806007600085815260200190815260200160002060008282546117b49190614f9e565b92505081905550505050565b600060046000838152602001908152602001600020600401544211159050919050565b60006117ee82610b37565b600460008481526020019081526020016000206005015461180f9190614f9e565b9050919050565b6000600460008381526020019081526020016000206003015442119050919050565b60006005600083815260200190815260200160002054600460008481526020019081526020016000206007015461186f9190614f9e565b9050919050565b6118886118816133ec565b838361395b565b5050565b611895816115dc565b1580156118a857506118a681610d64565b155b80156118b957506118b88161123a565b5b6118f8576040517f08c379a00000000000000000000000000000000000000000000000000000000081526004016118ef90615804565b60405180910390fd5b600061190382611583565b905060006103e8600760008581526020019081526020016000205461192891906150a3565b9050600081600760008681526020019081526020016000205461194b9190614f9e565b905060056000858152602001908152602001600020548161196c91906150a3565b60086000868152602001908152602001600020819055506000600560008681526020019081526020016000205460086000878152602001908152602001600020546119b79190615032565b826119c29190614f9e565b9050600081846119d29190615577565b9050806007600088815260200190815260200160002060008282546119f79190614f9e565b925050819055506001600a600088815260200190815260200160002060006101000a81548160ff0219169083151502179055507f000000000000000000000000000000000000000000000000000000000000000073ffffffffffffffffffffffffffffffffffffffff1663a9059cbb33836040518363ffffffff1660e01b8152600401611a85929190615403565b6020604051808303816000875af1158015611aa4573d6000803e3d6000fd5b505050506040513d601f19601f82011682018060405250810190611ac89190615441565b50857fc4f17a65d54873d57229ea5f59c4ddec592d095bc17581372676402c8228b9cd8685604051611afb929190615824565b60405180910390a2505050505050565b60008160008110158015611b20575060028111155b611b5f576040517f08c379a0000000000000000000000000000000000000000000000000000000008152600401611b5690615899565b60405180910390fd5b600060b46002611b6f9190615032565b905060008403611b8e57806003611b869190615032565b925050611bbc565b60018403611bab57806005611ba39190615032565b925050611bbc565b80600a611bb89190615032565b9250505b50919050565b611bcb82610d64565b611c0a576040517f08c379a0000000000000000000000000000000000000000000000000000000008152600401611c0190615804565b60405180910390fd5b80611c153384610970565b1015611c56576040517f08c379a0000000000000000000000000000000000000000000000000000000008152600401611c4d90615798565b60405180910390fd5b611c61338383613715565b80600660008481526020019081526020016000206000828254611c849190615577565b925050819055506000600860008481526020019081526020016000205482611cac9190615032565b90507f000000000000000000000000000000000000000000000000000000000000000073ffffffffffffffffffffffffffffffffffffffff1663a9059cbb33836040518363ffffffff1660e01b8152600401611d09929190615403565b6020604051808303816000875af1158015611d28573d6000803e3d6000fd5b505050506040513d601f19601f82011682018060405250810190611d4c9190615441565b5080600760008581526020019081526020016000206000828254611d709190614f9e565b92505081905550505050565b600060046000838152602001908152602001600020600901549050919050565b7f000000000000000000000000000000000000000000000000000000000000000073ffffffffffffffffffffffffffffffffffffffff163373ffffffffffffffffffffffffffffffffffffffff1614611e2a576040517f08c379a0000000000000000000000000000000000000000000000000000000008152600401611e21906151b2565b60405180910390fd5b611e3382610d64565b80611e435750611e428261123a565b5b15611e83576040517f08c379a0000000000000000000000000000000000000000000000000000000008152600401611e7a90615342565b60405180910390fd5b600460008381526020019081526020016000206006015460b460016012600086815260200190815260200160002054611ebc9190615577565b611ec69190615032565b03611f06576040517f08c379a0000000000000000000000000000000000000000000000000000000008152600401611efd90615905565b60405180910390fd5b60106000838152602001908152602001600020601260008481526020019081526020016000205481548110611f3e57611f3d615500565b5b9060005260206000200154811015611f8b576040517f08c379a0000000000000000000000000000000000000000000000000000000008152600401611f8290615971565b60405180910390fd5b66b1a2bc2ec5000060106000848152602001908152602001600020601260008581526020019081526020016000205481548110611fcb57611fca615500565b5b9060005260206000200154670de0b6b3a76400006010600086815260200190815260200160002060126000878152602001908152602001600020548154811061201757612016615500565b5b90600052602060002001548461202d9190614f9e565b6120379190615032565b61204191906150a3565b1115612082576040517f08c379a000000000000000000000000000000000000000000000000000000000815260040161207990615a03565b60405180910390fd5b60006004600084815260200190815260200160002060070154826120a69190615032565b9050806011600085815260200190815260200160002060008282546120cb9190615577565b925050819055506201518060b46120e29190615032565b600f6000858152602001908152602001600020546121009190615577565b600f600085815260200190815260200160002081905550600160126000858152602001908152602001600020600082825461213b9190615577565b925050819055507f000000000000000000000000000000000000000000000000000000000000000073ffffffffffffffffffffffffffffffffffffffff166323b872dd3330846040518463ffffffff1660e01b815260040161219f939291906156a9565b6020604051808303816000875af11580156121be573d6000803e3d6000fd5b505050506040513d601f19601f820116820180604052508101906121e29190615441565b50505050565b6121f182610dc7565b612230576040517f08c379a000000000000000000000000000000000000000000000000000000000815260040161222790615a6f565b60405180910390fd5b8061223b3384610970565b101561227c576040517f08c379a000000000000000000000000000000000000000000000000000000000815260040161227390615798565b60405180910390fd5b612287338383613715565b806006600084815260200190815260200160002060008282546122aa9190615577565b9250508190555060006004600084815260200190815260200160002060010154826122d59190615032565b90507f000000000000000000000000000000000000000000000000000000000000000073ffffffffffffffffffffffffffffffffffffffff1663a9059cbb33836040518363ffffffff1660e01b8152600401612332929190615403565b6020604051808303816000875af1158015612351573d6000803e3d6000fd5b505050506040513d601f19601f820116820180604052508101906123759190615441565b50806007600085815260200190815260200160002060008282546123999190614f9e565b92505081905550505050565b6123ae81610d64565b1580156123c157506123bf816115dc565b155b80156123d257506123d181610d8e565b5b612411576040517f08c379a000000000000000000000000000000000000000000000000000000000815260040161240890615adb565b60405180910390fd5b600061241c82611583565b905060006103e88261242e91906150a3565b90506000818361243e9190614f9e565b905060056000858152602001908152602001600020548161245f91906150a3565b60096000868152602001908152602001600020819055506000600560008681526020019081526020016000205460096000878152602001908152602001600020546124aa9190615032565b826124b59190614f9e565b9050600081846124c59190615577565b9050806007600088815260200190815260200160002060008282546124ea9190614f9e565b925050819055506001600b600088815260200190815260200160002060006101000a81548160ff0219169083151502179055507f000000000000000000000000000000000000000000000000000000000000000073ffffffffffffffffffffffffffffffffffffffff1663a9059cbb33836040518363ffffffff1660e01b8152600401612578929190615403565b6020604051808303816000875af1158015612597573d6000803e3d6000fd5b505050506040513d601f19601f820116820180604052508101906125bb9190615441565b50857fac2eeaf45d1b75aed6b3285cda3efb3c382cce02ba313558bbb90be57f8843e486856040516125ee929190615824565b60405180910390a2505050505050565b60608160008110158015612613575060028111155b612652576040517f08c379a000000000000000000000000000000000000000000000000000000000815260040161264990615899565b60405180910390fd5b600061265d84612e16565b905060008151905060008167ffffffffffffffff81111561268157612680614688565b5b6040519080825280602002602001820160405280156126af5781602001602082028036833780820191505090505b50905060005b828110156127215760648482815181106126d2576126d1615500565b5b6020026020010151896126e59190615032565b6126ef91906150a3565b82828151811061270257612701615500565b5b60200260200101818152505080806127199061552f565b9150506126b5565b508094505050505092915050565b60007f000000000000000000000000000000000000000000000000000000000000000073ffffffffffffffffffffffffffffffffffffffff163373ffffffffffffffffffffffffffffffffffffffff16146127bf576040517f08c379a00000000000000000000000000000000000000000000000000000000081526004016127b6906151b2565b60405180910390fd5b84600081101580156127d2575060028111155b612811576040517f08c379a000000000000000000000000000000000000000000000000000000000815260040161280890615899565b60405180910390fd5b60b48510612854576040517f08c379a000000000000000000000000000000000000000000000000000000000815260040161284b90615b6d565b60405180910390fd5b600061285f87611b0b565b905060016003546128709190615577565b925061287e33848e87613ac7565b6040518061014001604052808a8a8080601f016020809104026020016040519081016040528093929190818152602001838380828437600081840152601f19601f8201169050808301925050505050505081526020018b815260200142815260200162015180836128ef9190615032565b426128fa9190615577565b8152602001620151808861290e9190615032565b426129199190615577565b81526020018781526020018281526020018d81526020018c8152602001868152506004600085815260200190815260200160002060008201518160000190816129629190615d39565b506020820151816001015560408201518160020155606082015181600301556080820151816004015560a0820151816005015560c0820151816006015560e08201518160070155610100820151816008015561012082015181600901559050506201518060b46129d29190615032565b426129dd9190615577565b600f6000858152602001908152602001600020819055506129fe8a886125fe565b601060008581526020019081526020016000209080519060200190612a2492919061436d565b50827f3e5b89bff97cb92eafe4cd460ef4aa43d6feef1428595fe038182876515968fd8d8c88604051612a5993929190615e0b565b60405180910390a250509998505050505050505050565b6060600080600080600080600080600080600460008d815260200190815260200160002060405180610140016040529081600082018054612ab090615001565b80601f0160208091040260200160405190810160405280929190818152602001828054612adc90615001565b8015612b295780601f10612afe57610100808354040283529160200191612b29565b820191906000526020600020905b815481529060010190602001808311612b0c57829003601f168201915b5050505050815260200160018201548152602001600282015481526020016003820154815260200160048201548152602001600582015481526020016006820154815260200160078201548152602001600882015481526020016009820154815250509050806000015181602001518260400151836060015184608001518560a001518660c001518760e001518861010001518961012001519a509a509a509a509a509a509a509a509a509a50509193959799509193959799565b6000612bef82610b37565b6004600084815260200190815260200160002060060154612c109190614f9e565b9050919050565b7f000000000000000000000000000000000000000000000000000000000000000073ffffffffffffffffffffffffffffffffffffffff163373ffffffffffffffffffffffffffffffffffffffff1614612ca5576040517f08c379a0000000000000000000000000000000000000000000000000000000008152600401612c9c906151b2565b60405180910390fd5b612cae82610d64565b80612cbe5750612cbd8261123a565b5b15612cfe576040517f08c379a0000000000000000000000000000000000000000000000000000000008152600401612cf590615e8e565b60405180910390fd5b612d07826115dc565b15612d47576040517f08c379a0000000000000000000000000000000000000000000000000000000008152600401612d3e90615efa565b60405180910390fd5b80600760008481526020019081526020016000206000828254612d6a9190615577565b925050819055507f000000000000000000000000000000000000000000000000000000000000000073ffffffffffffffffffffffffffffffffffffffff166323b872dd3330846040518463ffffffff1660e01b8152600401612dce939291906156a9565b6020604051808303816000875af1158015612ded573d6000803e3d6000fd5b505050506040513d601f19601f82011682018060405250810190612e119190615441565b505050565b60608160008110158015612e2b575060028111155b612e6a576040517f08c379a0000000000000000000000000000000000000000000000000000000008152600401612e6190615899565b60405180910390fd5b60008303612eca57600c805480602002602001604051908101604052809291908181526020018280548015612ebe57602002820191906000526020600020905b815481526020019060010190808311612eaa575b50505050509150612f7e565b60018303612f2a57600d805480602002602001604051908101604052809291908181526020018280548015612f1e57602002820191906000526020600020905b815481526020019060010190808311612f0a575b50505050509150612f7e565b600e805480602002602001604051908101604052809291908181526020018280548015612f7657602002820191906000526020600020905b815481526020019060010190808311612f62575b505050505091505b50919050565b60007f000000000000000000000000000000000000000000000000000000000000000073ffffffffffffffffffffffffffffffffffffffff166370a08231306040518263ffffffff1660e01b8152600401612fdf9190615f1a565b602060405180830381865afa158015612ffc573d6000803e3d6000fd5b505050506040513d601f19601f820116820180604052508101906130209190615f4a565b905090565b7f000000000000000000000000000000000000000000000000000000000000000073ffffffffffffffffffffffffffffffffffffffff163373ffffffffffffffffffffffffffffffffffffffff16146130b3576040517f08c379a00000000000000000000000000000000000000000000000000000000081526004016130aa906151b2565b60405180910390fd5b6130bc816115dc565b80156130cd57506130cc81611208565b5b61310c576040517f08c379a000000000000000000000000000000000000000000000000000000000815260040161310390615fc3565b60405180910390fd5b6000600760008381526020019081526020016000205411613162576040517f08c379a00000000000000000000000000000000000000000000000000000000081526004016131599061602f565b60405180910390fd5b600060076000838152602001908152602001600020819055507f000000000000000000000000000000000000000000000000000000000000000073ffffffffffffffffffffffffffffffffffffffff1663a9059cbb3360076000858152602001908152602001600020546040518363ffffffff1660e01b81526004016131e9929190615403565b6020604051808303816000875af1158015613208573d6000803e3d6000fd5b505050506040513d601f19601f8201168201806040525081019061322c9190615441565b5050565b600060116000838152602001908152602001600020549050919050565b6000600160008473ffffffffffffffffffffffffffffffffffffffff1673ffffffffffffffffffffffffffffffffffffffff16815260200190815260200160002060008373ffffffffffffffffffffffffffffffffffffffff1673ffffffffffffffffffffffffffffffffffffffff16815260200190815260200160002060009054906101000a900460ff16905092915050565b6132e96133ec565b73ffffffffffffffffffffffffffffffffffffffff168573ffffffffffffffffffffffffffffffffffffffff16148061332f575061332e856133296133ec565b61324d565b5b61336e576040517f08c379a000000000000000000000000000000000000000000000000000000000815260040161336590615146565b60405180910390fd5b61337b8585858585613c77565b5050505050565b60007f01ffc9a7000000000000000000000000000000000000000000000000000000007bffffffffffffffffffffffffffffffffffffffffffffffffffffffff1916827bffffffffffffffffffffffffffffffffffffffffffffffffffffffff1916149050919050565b600033905090565b8151835114613438576040517f08c379a000000000000000000000000000000000000000000000000000000000815260040161342f906160c1565b60405180910390fd5b600073ffffffffffffffffffffffffffffffffffffffff168473ffffffffffffffffffffffffffffffffffffffff16036134a7576040517f08c379a000000000000000000000000000000000000000000000000000000000815260040161349e90616153565b60405180910390fd5b60006134b16133ec565b90506134c1818787878787613f12565b60005b84518110156136725760008582815181106134e2576134e1615500565b5b60200260200101519050600085838151811061350157613500615500565b5b60200260200101519050600080600084815260200190815260200160002060008b73ffffffffffffffffffffffffffffffffffffffff1673ffffffffffffffffffffffffffffffffffffffff168152602001908152602001600020549050818110156135a2576040517f08c379a0000000000000000000000000000000000000000000000000000000008152600401613599906161e5565b60405180910390fd5b81810360008085815260200190815260200160002060008c73ffffffffffffffffffffffffffffffffffffffff1673ffffffffffffffffffffffffffffffffffffffff168152602001908152602001600020819055508160008085815260200190815260200160002060008b73ffffffffffffffffffffffffffffffffffffffff1673ffffffffffffffffffffffffffffffffffffffff16815260200190815260200160002060008282546136579190615577565b925050819055505050508061366b9061552f565b90506134c4565b508473ffffffffffffffffffffffffffffffffffffffff168673ffffffffffffffffffffffffffffffffffffffff168273ffffffffffffffffffffffffffffffffffffffff167f4a39dc06d4c0dbc64b70af90fd698a233a518aa5d07e595d983b8c0526c8f7fb87876040516136e9929190616205565b60405180910390a46136ff818787878787613f1a565b61370d818787878787613f22565b505050505050565b600073ffffffffffffffffffffffffffffffffffffffff168373ffffffffffffffffffffffffffffffffffffffff1603613784576040517f08c379a000000000000000000000000000000000000000000000000000000000815260040161377b906162ae565b60405180910390fd5b600061378e6133ec565b9050600061379b846140f9565b905060006137a8846140f9565b90506137c883876000858560405180602001604052806000815250613f12565b600080600087815260200190815260200160002060008873ffffffffffffffffffffffffffffffffffffffff1673ffffffffffffffffffffffffffffffffffffffff1681526020019081526020016000205490508481101561385f576040517f08c379a000000000000000000000000000000000000000000000000000000000815260040161385690616340565b60405180910390fd5b84810360008088815260200190815260200160002060008973ffffffffffffffffffffffffffffffffffffffff1673ffffffffffffffffffffffffffffffffffffffff16815260200190815260200160002081905550600073ffffffffffffffffffffffffffffffffffffffff168773ffffffffffffffffffffffffffffffffffffffff168573ffffffffffffffffffffffffffffffffffffffff167fc3d58168c5ae7397731d063d5bbf3d657854427343f4c083240f7aacaa2d0f62898960405161392c929190615824565b60405180910390a461395284886000868660405180602001604052806000815250613f1a565b50505050505050565b8173ffffffffffffffffffffffffffffffffffffffff168373ffffffffffffffffffffffffffffffffffffffff16036139c9576040517f08c379a00000000000000000000000000000000000000000000000000000000081526004016139c0906163d2565b60405180910390fd5b80600160008573ffffffffffffffffffffffffffffffffffffffff1673ffffffffffffffffffffffffffffffffffffffff16815260200190815260200160002060008473ffffffffffffffffffffffffffffffffffffffff1673ffffffffffffffffffffffffffffffffffffffff16815260200190815260200160002060006101000a81548160ff0219169083151502179055508173ffffffffffffffffffffffffffffffffffffffff168373ffffffffffffffffffffffffffffffffffffffff167f17307eab39ab6107e8899845ad3d59bd9653f200f220920489ca2b5937696c3183604051613aba9190614589565b60405180910390a3505050565b600073ffffffffffffffffffffffffffffffffffffffff168473ffffffffffffffffffffffffffffffffffffffff1603613b36576040517f08c379a0000000000000000000000000000000000000000000000000000000008152600401613b2d90616464565b60405180910390fd5b6000613b406133ec565b90506000613b4d856140f9565b90506000613b5a856140f9565b9050613b6b83600089858589613f12565b8460008088815260200190815260200160002060008973ffffffffffffffffffffffffffffffffffffffff1673ffffffffffffffffffffffffffffffffffffffff1681526020019081526020016000206000828254613bca9190615577565b925050819055508673ffffffffffffffffffffffffffffffffffffffff16600073ffffffffffffffffffffffffffffffffffffffff168473ffffffffffffffffffffffffffffffffffffffff167fc3d58168c5ae7397731d063d5bbf3d657854427343f4c083240f7aacaa2d0f628989604051613c48929190615824565b60405180910390a4613c5f83600089858589613f1a565b613c6e83600089898989614173565b50505050505050565b600073ffffffffffffffffffffffffffffffffffffffff168473ffffffffffffffffffffffffffffffffffffffff1603613ce6576040517f08c379a0000000000000000000000000000000000000000000000000000000008152600401613cdd90616153565b60405180910390fd5b6000613cf06133ec565b90506000613cfd856140f9565b90506000613d0a856140f9565b9050613d1a838989858589613f12565b600080600088815260200190815260200160002060008a73ffffffffffffffffffffffffffffffffffffffff1673ffffffffffffffffffffffffffffffffffffffff16815260200190815260200160002054905085811015613db1576040517f08c379a0000000000000000000000000000000000000000000000000000000008152600401613da8906161e5565b60405180910390fd5b85810360008089815260200190815260200160002060008b73ffffffffffffffffffffffffffffffffffffffff1673ffffffffffffffffffffffffffffffffffffffff168152602001908152602001600020819055508560008089815260200190815260200160002060008a73ffffffffffffffffffffffffffffffffffffffff1673ffffffffffffffffffffffffffffffffffffffff1681526020019081526020016000206000828254613e669190615577565b925050819055508773ffffffffffffffffffffffffffffffffffffffff168973ffffffffffffffffffffffffffffffffffffffff168573ffffffffffffffffffffffffffffffffffffffff167fc3d58168c5ae7397731d063d5bbf3d657854427343f4c083240f7aacaa2d0f628a8a604051613ee3929190615824565b60405180910390a4613ef9848a8a86868a613f1a565b613f07848a8a8a8a8a614173565b505050505050505050565b505050505050565b505050505050565b613f418473ffffffffffffffffffffffffffffffffffffffff1661434a565b156140f1578373ffffffffffffffffffffffffffffffffffffffff1663bc197c8187878686866040518663ffffffff1660e01b8152600401613f879594939291906164d9565b6020604051808303816000875af1925050508015613fc357506040513d601f19601f82011682018060405250810190613fc09190616556565b60015b61406857613fcf616590565b806308c379a00361402b5750613fe36165b2565b80613fee575061402d565b806040517f08c379a00000000000000000000000000000000000000000000000000000000081526004016140229190614661565b60405180910390fd5b505b6040517f08c379a000000000000000000000000000000000000000000000000000000000815260040161405f906166b4565b60405180910390fd5b63bc197c8160e01b7bffffffffffffffffffffffffffffffffffffffffffffffffffffffff1916817bffffffffffffffffffffffffffffffffffffffffffffffffffffffff1916146140ef576040517f08c379a00000000000000000000000000000000000000000000000000000000081526004016140e690616746565b60405180910390fd5b505b505050505050565b60606000600167ffffffffffffffff81111561411857614117614688565b5b6040519080825280602002602001820160405280156141465781602001602082028036833780820191505090505b509050828160008151811061415e5761415d615500565b5b60200260200101818152505080915050919050565b6141928473ffffffffffffffffffffffffffffffffffffffff1661434a565b15614342578373ffffffffffffffffffffffffffffffffffffffff1663f23a6e6187878686866040518663ffffffff1660e01b81526004016141d8959493929190616766565b6020604051808303816000875af192505050801561421457506040513d601f19601f820116820180604052508101906142119190616556565b60015b6142b957614220616590565b806308c379a00361427c57506142346165b2565b8061423f575061427e565b806040517f08c379a00000000000000000000000000000000000000000000000000000000081526004016142739190614661565b60405180910390fd5b505b6040517f08c379a00000000000000000000000000000000000000000000000000000000081526004016142b0906166b4565b60405180910390fd5b63f23a6e6160e01b7bffffffffffffffffffffffffffffffffffffffffffffffffffffffff1916817bffffffffffffffffffffffffffffffffffffffffffffffffffffffff191614614340576040517f08c379a000000000000000000000000000000000000000000000000000000000815260040161433790616746565b60405180910390fd5b505b505050505050565b6000808273ffffffffffffffffffffffffffffffffffffffff163b119050919050565b8280548282559060005260206000209081019282156143a9579160200282015b828111156143a857825182559160200191906001019061438d565b5b5090506143b691906143ba565b5090565b5b808211156143d35760008160009055506001016143bb565b5090565b6000604051905090565b600080fd5b600080fd5b600073ffffffffffffffffffffffffffffffffffffffff82169050919050565b6000614416826143eb565b9050919050565b6144268161440b565b811461443157600080fd5b50565b6000813590506144438161441d565b92915050565b6000819050919050565b61445c81614449565b811461446757600080fd5b50565b60008135905061447981614453565b92915050565b60008060408385031215614496576144956143e1565b5b60006144a485828601614434565b92505060206144b58582860161446a565b9150509250929050565b6144c881614449565b82525050565b60006020820190506144e360008301846144bf565b92915050565b60007fffffffff0000000000000000000000000000000000000000000000000000000082169050919050565b61451e816144e9565b811461452957600080fd5b50565b60008135905061453b81614515565b92915050565b600060208284031215614557576145566143e1565b5b60006145658482850161452c565b91505092915050565b60008115159050919050565b6145838161456e565b82525050565b600060208201905061459e600083018461457a565b92915050565b6000602082840312156145ba576145b96143e1565b5b60006145c88482850161446a565b91505092915050565b600081519050919050565b600082825260208201905092915050565b60005b8381101561460b5780820151818401526020810190506145f0565b60008484015250505050565b6000601f19601f8301169050919050565b6000614633826145d1565b61463d81856145dc565b935061464d8185602086016145ed565b61465681614617565b840191505092915050565b6000602082019050818103600083015261467b8184614628565b905092915050565b600080fd5b7f4e487b7100000000000000000000000000000000000000000000000000000000600052604160045260246000fd5b6146c082614617565b810181811067ffffffffffffffff821117156146df576146de614688565b5b80604052505050565b60006146f26143d7565b90506146fe82826146b7565b919050565b600067ffffffffffffffff82111561471e5761471d614688565b5b602082029050602081019050919050565b600080fd5b600061474761474284614703565b6146e8565b9050808382526020820190506020840283018581111561476a5761476961472f565b5b835b81811015614793578061477f888261446a565b84526020840193505060208101905061476c565b5050509392505050565b600082601f8301126147b2576147b1614683565b5b81356147c2848260208601614734565b91505092915050565b600080fd5b600067ffffffffffffffff8211156147eb576147ea614688565b5b6147f482614617565b9050602081019050919050565b82818337600083830152505050565b600061482361481e846147d0565b6146e8565b90508281526020810184848401111561483f5761483e6147cb565b5b61484a848285614801565b509392505050565b600082601f83011261486757614866614683565b5b8135614877848260208601614810565b91505092915050565b600080600080600060a0868803121561489c5761489b6143e1565b5b60006148aa88828901614434565b95505060206148bb88828901614434565b945050604086013567ffffffffffffffff8111156148dc576148db6143e6565b5b6148e88882890161479d565b935050606086013567ffffffffffffffff811115614909576149086143e6565b5b6149158882890161479d565b925050608086013567ffffffffffffffff811115614936576149356143e6565b5b61494288828901614852565b9150509295509295909350565b60008060408385031215614966576149656143e1565b5b60006149748582860161446a565b92505060206149858582860161446a565b9150509250929050565b600067ffffffffffffffff8211156149aa576149a9614688565b5b602082029050602081019050919050565b60006149ce6149c98461498f565b6146e8565b905080838252602082019050602084028301858111156149f1576149f061472f565b5b835b81811015614a1a5780614a068882614434565b8452602084019350506020810190506149f3565b5050509392505050565b600082601f830112614a3957614a38614683565b5b8135614a498482602086016149bb565b91505092915050565b60008060408385031215614a6957614a686143e1565b5b600083013567ffffffffffffffff811115614a8757614a866143e6565b5b614a9385828601614a24565b925050602083013567ffffffffffffffff811115614ab457614ab36143e6565b5b614ac08582860161479d565b9150509250929050565b600081519050919050565b600082825260208201905092915050565b6000819050602082019050919050565b614aff81614449565b82525050565b6000614b118383614af6565b60208301905092915050565b6000602082019050919050565b6000614b3582614aca565b614b3f8185614ad5565b9350614b4a83614ae6565b8060005b83811015614b7b578151614b628882614b05565b9750614b6d83614b1d565b925050600181019050614b4e565b5085935050505092915050565b60006020820190508181036000830152614ba28184614b2a565b905092915050565b614bb38161456e565b8114614bbe57600080fd5b50565b600081359050614bd081614baa565b92915050565b60008060408385031215614bed57614bec6143e1565b5b6000614bfb85828601614434565b9250506020614c0c85828601614bc1565b9150509250929050565b600080fd5b60008083601f840112614c3157614c30614683565b5b8235905067ffffffffffffffff811115614c4e57614c4d614c16565b5b602083019150836001820283011115614c6a57614c6961472f565b5b9250929050565b60008060008060008060008060006101008a8c031215614c9457614c936143e1565b5b6000614ca28c828d0161446a565b9950506020614cb38c828d0161446a565b9850506040614cc48c828d0161446a565b97505060608a013567ffffffffffffffff811115614ce557614ce46143e6565b5b614cf18c828d01614c1b565b96509650506080614d048c828d0161446a565b94505060a0614d158c828d0161446a565b93505060c0614d268c828d0161446a565b92505060e08a013567ffffffffffffffff811115614d4757614d466143e6565b5b614d538c828d01614852565b9150509295985092959850929598565b6000610140820190508181036000830152614d7e818d614628565b9050614d8d602083018c6144bf565b614d9a604083018b6144bf565b614da7606083018a6144bf565b614db460808301896144bf565b614dc160a08301886144bf565b614dce60c08301876144bf565b614ddb60e08301866144bf565b614de96101008301856144bf565b614df76101208301846144bf565b9b9a5050505050505050505050565b60008060408385031215614e1d57614e1c6143e1565b5b6000614e2b85828601614434565b9250506020614e3c85828601614434565b9150509250929050565b600080600080600060a08688031215614e6257614e616143e1565b5b6000614e7088828901614434565b9550506020614e8188828901614434565b9450506040614e928882890161446a565b9350506060614ea38882890161446a565b925050608086013567ffffffffffffffff811115614ec457614ec36143e6565b5b614ed088828901614852565b9150509295509295909350565b7f455243313135353a2061646472657373207a65726f206973206e6f742061207660008201527f616c6964206f776e657200000000000000000000000000000000000000000000602082015250565b6000614f39602a836145dc565b9150614f4482614edd565b604082019050919050565b60006020820190508181036000830152614f6881614f2c565b9050919050565b7f4e487b7100000000000000000000000000000000000000000000000000000000600052601160045260246000fd5b6000614fa982614449565b9150614fb483614449565b9250828203905081811115614fcc57614fcb614f6f565b5b92915050565b7f4e487b7100000000000000000000000000000000000000000000000000000000600052602260045260246000fd5b6000600282049050600182168061501957607f821691505b60208210810361502c5761502b614fd2565b5b50919050565b600061503d82614449565b915061504883614449565b925082820261505681614449565b9150828204841483151761506d5761506c614f6f565b5b5092915050565b7f4e487b7100000000000000000000000000000000000000000000000000000000600052601260045260246000fd5b60006150ae82614449565b91506150b983614449565b9250826150c9576150c8615074565b5b828204905092915050565b7f455243313135353a2063616c6c6572206973206e6f7420746f6b656e206f776e60008201527f6572206f7220617070726f766564000000000000000000000000000000000000602082015250565b6000615130602e836145dc565b915061513b826150d4565b604082019050919050565b6000602082019050818103600083015261515f81615123565b9050919050565b7f43616c6c6572206973206e6f7420746865206f776e6572000000000000000000600082015250565b600061519c6017836145dc565b91506151a782615166565b602082019050919050565b600060208201905081810360008301526151cb8161518f565b9050919050565b7f5769746864726177206e6f7420616c6c6f776564207768656e20616374697665600082015250565b60006152086020836145dc565b9150615213826151d2565b602082019050919050565b60006020820190508181036000830152615237816151fb565b9050919050565b7f5769746864726177206e6f7420616c6c6f77656420616674657220636f6d706c60008201527f6574696f6e000000000000000000000000000000000000000000000000000000602082015250565b600061529a6025836145dc565b91506152a58261523e565b604082019050919050565b600060208201905081810360008301526152c98161528d565b9050919050565b7f5769746864726177206e6f7420616c6c6f776564207768656e2064656661756c60008201527f7465640000000000000000000000000000000000000000000000000000000000602082015250565b600061532c6023836145dc565b9150615337826152d0565b604082019050919050565b6000602082019050818103600083015261535b8161531f565b9050919050565b7f5769746864726177616c20746f6b656e20616d6f756e7420657863656564732060008201527f746f6b656e20616d6f756e7420696e20636f6e74726163740000000000000000602082015250565b60006153be6038836145dc565b91506153c982615362565b604082019050919050565b600060208201905081810360008301526153ed816153b1565b9050919050565b6153fd8161440b565b82525050565b600060408201905061541860008301856153f4565b61542560208301846144bf565b9392505050565b60008151905061543b81614baa565b92915050565b600060208284031215615457576154566143e1565b5b60006154658482850161542c565b91505092915050565b7f455243313135353a206163636f756e747320616e6420696473206c656e67746860008201527f206d69736d617463680000000000000000000000000000000000000000000000602082015250565b60006154ca6029836145dc565b91506154d58261546e565b604082019050919050565b600060208201905081810360008301526154f9816154bd565b9050919050565b7f4e487b7100000000000000000000000000000000000000000000000000000000600052603260045260246000fd5b600061553a82614449565b91507fffffffffffffffffffffffffffffffffffffffffffffffffffffffffffffffff820361556c5761556b614f6f565b5b600182019050919050565b600061558282614449565b915061558d83614449565b92508282019050808211156155a5576155a4614f6f565b5b92915050565b7f426f6e6420697320696e61637469766500000000000000000000000000000000600082015250565b60006155e16010836145dc565b91506155ec826155ab565b602082019050919050565b60006020820190508181036000830152615610816155d4565b9050919050565b7f496e73756666696369656e7420626f6e64207175616e746974792072656d616960008201527f6e696e6700000000000000000000000000000000000000000000000000000000602082015250565b60006156736024836145dc565b915061567e82615617565b604082019050919050565b600060208201905081810360008301526156a281615666565b9050919050565b60006060820190506156be60008301866153f4565b6156cb60208301856153f4565b6156d860408301846144bf565b949350505050565b7f426f6e64206973206e6f7420636f6d706c657465640000000000000000000000600082015250565b60006157166015836145dc565b9150615721826156e0565b602082019050919050565b6000602082019050818103600083015261574581615709565b9050919050565b7f496e73756666696369656e7420626f6e64207175616e74697479000000000000600082015250565b6000615782601a836145dc565b915061578d8261574c565b602082019050919050565b600060208201905081810360008301526157b181615775565b9050919050565b7f426f6e64206973206e6f742064656661756c7465640000000000000000000000600082015250565b60006157ee6015836145dc565b91506157f9826157b8565b602082019050919050565b6000602082019050818103600083015261581d816157e1565b9050919050565b600060408201905061583960008301856144bf565b61584660208301846144bf565b9392505050565b7f59656172206f7074696f6e206f7574206f662072616e67650000000000000000600082015250565b60006158836018836145dc565b915061588e8261584d565b602082019050919050565b600060208201905081810360008301526158b281615876565b9050919050565b7f416c6c206f626c69676174696f6e732066756c66696c6c656400000000000000600082015250565b60006158ef6019836145dc565b91506158fa826158b9565b602082019050919050565b6000602082019050818103600083015261591e816158e2565b9050919050565b7f4d696e696d756d206f626c69676174696f6e206e6f742066756c66696c6c6564600082015250565b600061595b6020836145dc565b915061596682615925565b602082019050919050565b6000602082019050818103600083015261598a8161594e565b9050919050565b7f46756c66696c6c6d656e742073686f756c64206e6f742065786365656420352560008201527f2061626f7665206f626c69676174696f6e000000000000000000000000000000602082015250565b60006159ed6031836145dc565b91506159f882615991565b604082019050919050565b60006020820190508181036000830152615a1c816159e0565b9050919050565b7f426f6e64206973206e6f742063616e63656c6564000000000000000000000000600082015250565b6000615a596014836145dc565b9150615a6482615a23565b602082019050919050565b60006020820190508181036000830152615a8881615a4c565b9050919050565b7f426f6e6420697320616c726561647920636f6d706c6574656400000000000000600082015250565b6000615ac56019836145dc565b9150615ad082615a8f565b602082019050919050565b60006020820190508181036000830152615af481615ab8565b9050919050565b7f416374697665206475726174696f6e2073686f756c642062652073686f72746560008201527f72207468616e2031383020646179730000000000000000000000000000000000602082015250565b6000615b57602f836145dc565b9150615b6282615afb565b604082019050919050565b60006020820190508181036000830152615b8681615b4a565b9050919050565b60008190508160005260206000209050919050565b60006020601f8301049050919050565b600082821b905092915050565b600060088302615bef7fffffffffffffffffffffffffffffffffffffffffffffffffffffffffffffffff82615bb2565b615bf98683615bb2565b95508019841693508086168417925050509392505050565b6000819050919050565b6000615c36615c31615c2c84614449565b615c11565b614449565b9050919050565b6000819050919050565b615c5083615c1b565b615c64615c5c82615c3d565b848454615bbf565b825550505050565b600090565b615c79615c6c565b615c84818484615c47565b505050565b5b81811015615ca857615c9d600082615c71565b600181019050615c8a565b5050565b601f821115615ced57615cbe81615b8d565b615cc784615ba2565b81016020851015615cd6578190505b615cea615ce285615ba2565b830182615c89565b50505b505050565b600082821c905092915050565b6000615d1060001984600802615cf2565b1980831691505092915050565b6000615d298383615cff565b9150826002028217905092915050565b615d42826145d1565b67ffffffffffffffff811115615d5b57615d5a614688565b5b615d658254615001565b615d70828285615cac565b600060209050601f831160018114615da35760008415615d91578287015190505b615d9b8582615d1d565b865550615e03565b601f198416615db186615b8d565b60005b82811015615dd957848901518255600182019150602085019450602081019050615db4565b86831015615df65784890151615df2601f891682615cff565b8355505b6001600288020188555050505b505050505050565b6000606082019050615e2060008301866144bf565b615e2d60208301856144bf565b615e3a60408301846144bf565b949350505050565b7f626f6e642069732064656661756c746564000000000000000000000000000000600082015250565b6000615e786011836145dc565b9150615e8382615e42565b602082019050919050565b60006020820190508181036000830152615ea781615e6b565b9050919050565b7f626f6e6420697320636f6d706c65746564000000000000000000000000000000600082015250565b6000615ee46011836145dc565b9150615eef82615eae565b602082019050919050565b60006020820190508181036000830152615f1381615ed7565b9050919050565b6000602082019050615f2f60008301846153f4565b92915050565b600081519050615f4481614453565b92915050565b600060208284031215615f6057615f5f6143e1565b5b6000615f6e84828501615f35565b91505092915050565b7f43616e6e6f742077697468647261772065786365737300000000000000000000600082015250565b6000615fad6016836145dc565b9150615fb882615f77565b602082019050919050565b60006020820190508181036000830152615fdc81615fa0565b9050919050565b7f43616e6e6f742077697468647261772066726f6d20656d70747920706f6f6c00600082015250565b6000616019601f836145dc565b915061602482615fe3565b602082019050919050565b600060208201905081810360008301526160488161600c565b9050919050565b7f455243313135353a2069647320616e6420616d6f756e7473206c656e6774682060008201527f6d69736d61746368000000000000000000000000000000000000000000000000602082015250565b60006160ab6028836145dc565b91506160b68261604f565b604082019050919050565b600060208201905081810360008301526160da8161609e565b9050919050565b7f455243313135353a207472616e7366657220746f20746865207a65726f20616460008201527f6472657373000000000000000000000000000000000000000000000000000000602082015250565b600061613d6025836145dc565b9150616148826160e1565b604082019050919050565b6000602082019050818103600083015261616c81616130565b9050919050565b7f455243313135353a20696e73756666696369656e742062616c616e636520666f60008201527f72207472616e7366657200000000000000000000000000000000000000000000602082015250565b60006161cf602a836145dc565b91506161da82616173565b604082019050919050565b600060208201905081810360008301526161fe816161c2565b9050919050565b6000604082019050818103600083015261621f8185614b2a565b905081810360208301526162338184614b2a565b90509392505050565b7f455243313135353a206275726e2066726f6d20746865207a65726f206164647260008201527f6573730000000000000000000000000000000000000000000000000000000000602082015250565b60006162986023836145dc565b91506162a38261623c565b604082019050919050565b600060208201905081810360008301526162c78161628b565b9050919050565b7f455243313135353a206275726e20616d6f756e7420657863656564732062616c60008201527f616e636500000000000000000000000000000000000000000000000000000000602082015250565b600061632a6024836145dc565b9150616335826162ce565b604082019050919050565b600060208201905081810360008301526163598161631d565b9050919050565b7f455243313135353a2073657474696e6720617070726f76616c2073746174757360008201527f20666f722073656c660000000000000000000000000000000000000000000000602082015250565b60006163bc6029836145dc565b91506163c782616360565b604082019050919050565b600060208201905081810360008301526163eb816163af565b9050919050565b7f455243313135353a206d696e7420746f20746865207a65726f2061646472657360008201527f7300000000000000000000000000000000000000000000000000000000000000602082015250565b600061644e6021836145dc565b9150616459826163f2565b604082019050919050565b6000602082019050818103600083015261647d81616441565b9050919050565b600081519050919050565b600082825260208201905092915050565b60006164ab82616484565b6164b5818561648f565b93506164c58185602086016145ed565b6164ce81614617565b840191505092915050565b600060a0820190506164ee60008301886153f4565b6164fb60208301876153f4565b818103604083015261650d8186614b2a565b905081810360608301526165218185614b2a565b9050818103608083015261653581846164a0565b90509695505050505050565b60008151905061655081614515565b92915050565b60006020828403121561656c5761656b6143e1565b5b600061657a84828501616541565b91505092915050565b60008160e01c9050919050565b600060033d11156165af5760046000803e6165ac600051616583565b90505b90565b600060443d1061663f576165c46143d7565b60043d036004823e80513d602482011167ffffffffffffffff821117156165ec57505061663f565b808201805167ffffffffffffffff81111561660a575050505061663f565b80602083010160043d03850181111561662757505050505061663f565b616636826020018501866146b7565b82955050505050505b90565b7f455243313135353a207472616e7366657220746f206e6f6e2d4552433131353560008201527f526563656976657220696d706c656d656e746572000000000000000000000000602082015250565b600061669e6034836145dc565b91506166a982616642565b604082019050919050565b600060208201905081810360008301526166cd81616691565b9050919050565b7f455243313135353a204552433131353552656365697665722072656a6563746560008201527f6420746f6b656e73000000000000000000000000000000000000000000000000602082015250565b60006167306028836145dc565b915061673b826166d4565b604082019050919050565b6000602082019050818103600083015261675f81616723565b9050919050565b600060a08201905061677b60008301886153f4565b61678860208301876153f4565b61679560408301866144bf565b6167a260608301856144bf565b81810360808301526167b481846164a0565b9050969550505050505056fea2646970667358221220d6e8bb66888d6762728b1c38788aaa184288ef594b529787ba8717b2481ea5c164736f6c63430008110033",
  "linkReferences": {},
  "deployedLinkReferences": {}
}