{
  "_format": "hh-sol-artifact-1",
  "contractName": "InstallmentBondFactory",
  "sourceName": "contracts/InstallmentBondFactory.sol",
  "abi": [
    {
      "inputs": [
        {
          "internalType": "string",
          "name": "uri",
          "type": "string"
        },
        {
          "internalType": "address",
          "name": "token",
          "type": "address"
        },
        {
          "internalType": "address",
          "name": "deployer",
          "type": "address"
        }
      ],
      "stateMutability": "nonpayable",
      "type": "constructor"
    },
    {
      "anonymous": false,
      "inputs": [
        {
          "indexed": true,
          "internalType": "address",
          "name": "account",
          "type": "address"
        },
        {
          "indexed": true,
          "internalType": "address",
          "name": "operator",
          "type": "address"
        },
        {
          "indexed": false,
          "internalType": "bool",
          "name": "approved",
          "type": "bool"
        }
      ],
      "name": "ApprovalForAll",
      "type": "event"
    },
    {
      "anonymous": false,
      "inputs": [
        {
          "indexed": true,
          "internalType": "uint256",
          "name": "id",
          "type": "uint256"
        },
        {
          "indexed": false,
          "internalType": "uint256",
          "name": "totalDebt",
          "type": "uint256"
        },
        {
          "indexed": false,
          "internalType": "uint256",
          "name": "paidDebt",
          "type": "uint256"
        }
      ],
      "name": "Completed",
      "type": "event"
    },
    {
      "anonymous": false,
      "inputs": [
        {
          "indexed": true,
          "internalType": "uint256",
          "name": "id",
          "type": "uint256"
        },
        {
          "indexed": false,
          "internalType": "uint256",
          "name": "totalDebt",
          "type": "uint256"
        },
        {
          "indexed": false,
          "internalType": "uint256",
          "name": "paidDebt",
          "type": "uint256"
        }
      ],
      "name": "Defaulted",
      "type": "event"
    },
    {
      "anonymous": false,
      "inputs": [
        {
          "indexed": true,
          "internalType": "uint256",
          "name": "id",
          "type": "uint256"
        },
        {
          "indexed": false,
          "internalType": "uint256",
          "name": "bondQuantity",
          "type": "uint256"
        },
        {
          "indexed": false,
          "internalType": "uint256",
          "name": "tokenAmountPerBond",
          "type": "uint256"
        },
        {
          "indexed": false,
          "internalType": "uint256",
          "name": "couponRate",
          "type": "uint256"
        },
        {
          "indexed": false,
          "internalType": "uint256",
          "name": "maturityDate",
          "type": "uint256"
        }
      ],
      "name": "Issued",
      "type": "event"
    },
    {
      "anonymous": false,
      "inputs": [
        {
          "indexed": true,
          "internalType": "uint256",
          "name": "id",
          "type": "uint256"
        },
        {
          "indexed": false,
          "internalType": "address",
          "name": "buyer",
          "type": "address"
        },
        {
          "indexed": false,
          "internalType": "uint256",
          "name": "bondQuantity",
          "type": "uint256"
        },
        {
          "indexed": false,
          "internalType": "uint256",
          "name": "state",
          "type": "uint256"
        }
      ],
      "name": "Redeemed",
      "type": "event"
    },
    {
      "anonymous": false,
      "inputs": [
        {
          "indexed": true,
          "internalType": "address",
          "name": "operator",
          "type": "address"
        },
        {
          "indexed": true,
          "internalType": "address",
          "name": "from",
          "type": "address"
        },
        {
          "indexed": true,
          "internalType": "address",
          "name": "to",
          "type": "address"
        },
        {
          "indexed": false,
          "internalType": "uint256[]",
          "name": "ids",
          "type": "uint256[]"
        },
        {
          "indexed": false,
          "internalType": "uint256[]",
          "name": "values",
          "type": "uint256[]"
        }
      ],
      "name": "TransferBatch",
      "type": "event"
    },
    {
      "anonymous": false,
      "inputs": [
        {
          "indexed": true,
          "internalType": "address",
          "name": "operator",
          "type": "address"
        },
        {
          "indexed": true,
          "internalType": "address",
          "name": "from",
          "type": "address"
        },
        {
          "indexed": true,
          "internalType": "address",
          "name": "to",
          "type": "address"
        },
        {
          "indexed": false,
          "internalType": "uint256",
          "name": "id",
          "type": "uint256"
        },
        {
          "indexed": false,
          "internalType": "uint256",
          "name": "value",
          "type": "uint256"
        }
      ],
      "name": "TransferSingle",
      "type": "event"
    },
    {
      "anonymous": false,
      "inputs": [
        {
          "indexed": false,
          "internalType": "string",
          "name": "value",
          "type": "string"
        },
        {
          "indexed": true,
          "internalType": "uint256",
          "name": "id",
          "type": "uint256"
        }
      ],
      "name": "URI",
      "type": "event"
    },
    {
      "inputs": [
        {
          "internalType": "address",
          "name": "account",
          "type": "address"
        },
        {
          "internalType": "uint256",
          "name": "id",
          "type": "uint256"
        }
      ],
      "name": "balanceOf",
      "outputs": [
        {
          "internalType": "uint256",
          "name": "",
          "type": "uint256"
        }
      ],
      "stateMutability": "view",
      "type": "function"
    },
    {
      "inputs": [
        {
          "internalType": "address[]",
          "name": "accounts",
          "type": "address[]"
        },
        {
          "internalType": "uint256[]",
          "name": "ids",
          "type": "uint256[]"
        }
      ],
      "name": "balanceOfBatch",
      "outputs": [
        {
          "internalType": "uint256[]",
          "name": "",
          "type": "uint256[]"
        }
      ],
      "stateMutability": "view",
      "type": "function"
    },
    {
      "inputs": [],
      "name": "baseToken",
      "outputs": [
        {
          "internalType": "address",
          "name": "",
          "type": "address"
        }
      ],
      "stateMutability": "view",
      "type": "function"
    },
    {
      "inputs": [
        {
          "internalType": "uint256",
          "name": "id",
          "type": "uint256"
        }
      ],
      "name": "bondMetadata",
      "outputs": [
        {
          "internalType": "string",
          "name": "",
          "type": "string"
        },
        {
          "internalType": "uint256",
          "name": "",
          "type": "uint256"
        },
        {
          "internalType": "uint256",
          "name": "",
          "type": "uint256"
        },
        {
          "internalType": "uint256",
          "name": "",
          "type": "uint256"
        },
        {
          "internalType": "uint256",
          "name": "",
          "type": "uint256"
        },
        {
          "internalType": "uint256",
          "name": "",
          "type": "uint256"
        },
        {
          "internalType": "uint256",
          "name": "",
          "type": "uint256"
        },
        {
          "internalType": "uint256",
          "name": "",
          "type": "uint256"
        },
        {
          "internalType": "uint256",
          "name": "",
          "type": "uint256"
        },
        {
          "internalType": "uint256",
          "name": "",
          "type": "uint256"
        }
      ],
      "stateMutability": "view",
      "type": "function"
    },
    {
      "inputs": [
        {
          "internalType": "uint256",
          "name": "id",
          "type": "uint256"
        }
      ],
      "name": "couponRate",
      "outputs": [
        {
          "internalType": "uint256",
          "name": "",
          "type": "uint256"
        }
      ],
      "stateMutability": "view",
      "type": "function"
    },
    {
      "inputs": [
        {
          "internalType": "uint256",
          "name": "id",
          "type": "uint256"
        },
        {
          "internalType": "uint256",
          "name": "tokenAmount",
          "type": "uint256"
        }
      ],
      "name": "deposit",
      "outputs": [],
      "stateMutability": "nonpayable",
      "type": "function"
    },
    {
      "inputs": [
        {
          "internalType": "uint256",
          "name": "id",
          "type": "uint256"
        }
      ],
      "name": "designatedTokenPool",
      "outputs": [
        {
          "internalType": "uint256",
          "name": "",
          "type": "uint256"
        }
      ],
      "stateMutability": "view",
      "type": "function"
    },
    {
      "inputs": [
        {
          "internalType": "uint256",
          "name": "id",
          "type": "uint256"
        },
        {
          "internalType": "uint256",
          "name": "tokenAmountPerBond",
          "type": "uint256"
        }
      ],
      "name": "fulfillObligationsAndLock",
      "outputs": [],
      "stateMutability": "nonpayable",
      "type": "function"
    },
    {
      "inputs": [],
      "name": "fundsRaised",
      "outputs": [
        {
          "internalType": "uint256",
          "name": "",
          "type": "uint256"
        }
      ],
      "stateMutability": "view",
      "type": "function"
    },
    {
      "inputs": [
        {
          "internalType": "uint256",
          "name": "id",
          "type": "uint256"
        }
      ],
      "name": "hasReachedMaturity",
      "outputs": [
        {
          "internalType": "bool",
          "name": "",
          "type": "bool"
        }
      ],
      "stateMutability": "view",
      "type": "function"
    },
    {
      "inputs": [
        {
          "internalType": "uint256",
          "name": "id",
          "type": "uint256"
        }
      ],
      "name": "isActive",
      "outputs": [
        {
          "internalType": "bool",
          "name": "",
          "type": "bool"
        }
      ],
      "stateMutability": "view",
      "type": "function"
    },
    {
      "inputs": [
        {
          "internalType": "address",
          "name": "account",
          "type": "address"
        },
        {
          "internalType": "address",
          "name": "operator",
          "type": "address"
        }
      ],
      "name": "isApprovedForAll",
      "outputs": [
        {
          "internalType": "bool",
          "name": "",
          "type": "bool"
        }
      ],
      "stateMutability": "view",
      "type": "function"
    },
    {
      "inputs": [
        {
          "internalType": "uint256",
          "name": "id",
          "type": "uint256"
        }
      ],
      "name": "isCanceled",
      "outputs": [
        {
          "internalType": "bool",
          "name": "",
          "type": "bool"
        }
      ],
      "stateMutability": "view",
      "type": "function"
    },
    {
      "inputs": [
        {
          "internalType": "uint256",
          "name": "id",
          "type": "uint256"
        }
      ],
      "name": "isCompleted",
      "outputs": [
        {
          "internalType": "bool",
          "name": "",
          "type": "bool"
        }
      ],
      "stateMutability": "view",
      "type": "function"
    },
    {
      "inputs": [
        {
          "internalType": "uint256",
          "name": "id",
          "type": "uint256"
        }
      ],
      "name": "isCompletedInTheory",
      "outputs": [
        {
          "internalType": "bool",
          "name": "",
          "type": "bool"
        }
      ],
      "stateMutability": "view",
      "type": "function"
    },
    {
      "inputs": [
        {
          "internalType": "uint256",
          "name": "id",
          "type": "uint256"
        }
      ],
      "name": "isDefaulted",
      "outputs": [
        {
          "internalType": "bool",
          "name": "",
          "type": "bool"
        }
      ],
      "stateMutability": "view",
      "type": "function"
    },
    {
      "inputs": [
        {
          "internalType": "uint256",
          "name": "id",
          "type": "uint256"
        }
      ],
      "name": "isDefaultedInTheory",
      "outputs": [
        {
          "internalType": "bool",
          "name": "",
          "type": "bool"
        }
      ],
      "stateMutability": "view",
      "type": "function"
    },
    {
      "inputs": [
        {
          "internalType": "uint256",
          "name": "id",
          "type": "uint256"
        }
      ],
      "name": "isFulfilled",
      "outputs": [
        {
          "internalType": "bool",
          "name": "",
          "type": "bool"
        }
      ],
      "stateMutability": "view",
      "type": "function"
    },
    {
      "inputs": [
        {
          "internalType": "uint256",
          "name": "id",
          "type": "uint256"
        }
      ],
      "name": "isFullyRedeemed",
      "outputs": [
        {
          "internalType": "bool",
          "name": "",
          "type": "bool"
        }
      ],
      "stateMutability": "view",
      "type": "function"
    },
    {
      "inputs": [
        {
          "internalType": "uint256",
          "name": "bondQuantity",
          "type": "uint256"
        },
        {
          "internalType": "uint256",
          "name": "minPurchasedQuantity",
          "type": "uint256"
        },
        {
          "internalType": "uint256",
          "name": "tokenAmountPerBond",
          "type": "uint256"
        },
        {
          "internalType": "string",
          "name": "ticker",
          "type": "string"
        },
        {
          "internalType": "uint256",
          "name": "yearOption",
          "type": "uint256"
        },
        {
          "internalType": "uint256",
          "name": "activeDurationInDays",
          "type": "uint256"
        },
        {
          "internalType": "uint256",
          "name": "rate",
          "type": "uint256"
        }
      ],
      "name": "issue",
      "outputs": [
        {
          "internalType": "uint256",
          "name": "id",
          "type": "uint256"
        }
      ],
      "stateMutability": "nonpayable",
      "type": "function"
    },
    {
      "inputs": [
        {
          "internalType": "uint256",
          "name": "id",
          "type": "uint256"
        }
      ],
      "name": "lockedTokenAmount",
      "outputs": [
        {
          "internalType": "uint256",
          "name": "",
          "type": "uint256"
        }
      ],
      "stateMutability": "view",
      "type": "function"
    },
    {
      "inputs": [
        {
          "internalType": "uint256",
          "name": "id",
          "type": "uint256"
        }
      ],
      "name": "lockedTokenAmountPerBond",
      "outputs": [
        {
          "internalType": "uint256",
          "name": "",
          "type": "uint256"
        }
      ],
      "stateMutability": "view",
      "type": "function"
    },
    {
      "inputs": [
        {
          "internalType": "uint256",
          "name": "id",
          "type": "uint256"
        }
      ],
      "name": "markAsCompleted",
      "outputs": [],
      "stateMutability": "nonpayable",
      "type": "function"
    },
    {
      "inputs": [
        {
          "internalType": "uint256",
          "name": "id",
          "type": "uint256"
        }
      ],
      "name": "markAsDefaulted",
      "outputs": [],
      "stateMutability": "nonpayable",
      "type": "function"
    },
    {
      "inputs": [
        {
          "internalType": "uint256",
          "name": "id",
          "type": "uint256"
        }
      ],
      "name": "minObligationTokenAmountPerBondList",
      "outputs": [
        {
          "internalType": "uint256[]",
          "name": "",
          "type": "uint256[]"
        }
      ],
      "stateMutability": "view",
      "type": "function"
    },
    {
      "inputs": [
        {
          "internalType": "uint256",
          "name": "id",
          "type": "uint256"
        }
      ],
      "name": "nextObligationDate",
      "outputs": [
        {
          "internalType": "uint256",
          "name": "",
          "type": "uint256"
        }
      ],
      "stateMutability": "view",
      "type": "function"
    },
    {
      "inputs": [],
      "name": "numBondsIssued",
      "outputs": [
        {
          "internalType": "uint256",
          "name": "",
          "type": "uint256"
        }
      ],
      "stateMutability": "view",
      "type": "function"
    },
    {
      "inputs": [
        {
          "internalType": "uint256",
          "name": "id",
          "type": "uint256"
        }
      ],
      "name": "numberOfTimesFulfilled",
      "outputs": [
        {
          "internalType": "uint256",
          "name": "",
          "type": "uint256"
        }
      ],
      "stateMutability": "view",
      "type": "function"
    },
    {
      "inputs": [
        {
          "internalType": "address",
          "name": "",
          "type": "address"
        },
        {
          "internalType": "address",
          "name": "",
          "type": "address"
        },
        {
          "internalType": "uint256[]",
          "name": "",
          "type": "uint256[]"
        },
        {
          "internalType": "uint256[]",
          "name": "",
          "type": "uint256[]"
        },
        {
          "internalType": "bytes",
          "name": "",
          "type": "bytes"
        }
      ],
      "name": "onERC1155BatchReceived",
      "outputs": [
        {
          "internalType": "bytes4",
          "name": "",
          "type": "bytes4"
        }
      ],
      "stateMutability": "nonpayable",
      "type": "function"
    },
    {
      "inputs": [
        {
          "internalType": "address",
          "name": "",
          "type": "address"
        },
        {
          "internalType": "address",
          "name": "",
          "type": "address"
        },
        {
          "internalType": "uint256",
          "name": "",
          "type": "uint256"
        },
        {
          "internalType": "uint256",
          "name": "",
          "type": "uint256"
        },
        {
          "internalType": "bytes",
          "name": "",
          "type": "bytes"
        }
      ],
      "name": "onERC1155Received",
      "outputs": [
        {
          "internalType": "bytes4",
          "name": "",
          "type": "bytes4"
        }
      ],
      "stateMutability": "nonpayable",
      "type": "function"
    },
    {
      "inputs": [],
      "name": "owner",
      "outputs": [
        {
          "internalType": "address",
          "name": "",
          "type": "address"
        }
      ],
      "stateMutability": "view",
      "type": "function"
    },
    {
      "inputs": [
        {
          "internalType": "uint256",
          "name": "id",
          "type": "uint256"
        }
      ],
      "name": "poolAmount",
      "outputs": [
        {
          "internalType": "uint256",
          "name": "",
          "type": "uint256"
        }
      ],
      "stateMutability": "view",
      "type": "function"
    },
    {
      "inputs": [
        {
          "internalType": "uint256",
          "name": "id",
          "type": "uint256"
        }
      ],
      "name": "preMaturityDefault",
      "outputs": [],
      "stateMutability": "nonpayable",
      "type": "function"
    },
    {
      "inputs": [
        {
          "internalType": "uint256",
          "name": "id",
          "type": "uint256"
        }
      ],
      "name": "principal",
      "outputs": [
        {
          "internalType": "uint256",
          "name": "",
          "type": "uint256"
        }
      ],
      "stateMutability": "view",
      "type": "function"
    },
    {
      "inputs": [
        {
          "internalType": "uint256",
          "name": "id",
          "type": "uint256"
        }
      ],
      "name": "principalWithInterest",
      "outputs": [
        {
          "internalType": "uint256",
          "name": "",
          "type": "uint256"
        }
      ],
      "stateMutability": "view",
      "type": "function"
    },
    {
      "inputs": [
        {
          "internalType": "uint256",
          "name": "id",
          "type": "uint256"
        },
        {
          "internalType": "uint256",
          "name": "bondQuantity",
          "type": "uint256"
        }
      ],
      "name": "purchase",
      "outputs": [],
      "stateMutability": "nonpayable",
      "type": "function"
    },
    {
      "inputs": [
        {
          "internalType": "uint256",
          "name": "id",
          "type": "uint256"
        },
        {
          "internalType": "uint256",
          "name": "bondQuantity",
          "type": "uint256"
        }
      ],
      "name": "redeem",
      "outputs": [],
      "stateMutability": "nonpayable",
      "type": "function"
    },
    {
      "inputs": [
        {
          "internalType": "uint256",
          "name": "id",
          "type": "uint256"
        }
      ],
      "name": "remainingQuantity",
      "outputs": [
        {
          "internalType": "uint256",
          "name": "",
          "type": "uint256"
        }
      ],
      "stateMutability": "view",
      "type": "function"
    },
    {
      "inputs": [
        {
          "internalType": "uint256",
          "name": "tokenAmountPerBond",
          "type": "uint256"
        },
        {
          "internalType": "uint256",
          "name": "yearOption",
          "type": "uint256"
        }
      ],
      "name": "retrieveMinObligationList",
      "outputs": [
        {
          "internalType": "uint256[]",
          "name": "",
          "type": "uint256[]"
        }
      ],
      "stateMutability": "view",
      "type": "function"
    },
    {
      "inputs": [
        {
          "internalType": "address",
          "name": "from",
          "type": "address"
        },
        {
          "internalType": "address",
          "name": "to",
          "type": "address"
        },
        {
          "internalType": "uint256[]",
          "name": "ids",
          "type": "uint256[]"
        },
        {
          "internalType": "uint256[]",
          "name": "amounts",
          "type": "uint256[]"
        },
        {
          "internalType": "bytes",
          "name": "data",
          "type": "bytes"
        }
      ],
      "name": "safeBatchTransferFrom",
      "outputs": [],
      "stateMutability": "nonpayable",
      "type": "function"
    },
    {
      "inputs": [
        {
          "internalType": "address",
          "name": "from",
          "type": "address"
        },
        {
          "internalType": "address",
          "name": "to",
          "type": "address"
        },
        {
          "internalType": "uint256",
          "name": "id",
          "type": "uint256"
        },
        {
          "internalType": "uint256",
          "name": "amount",
          "type": "uint256"
        },
        {
          "internalType": "bytes",
          "name": "data",
          "type": "bytes"
        }
      ],
      "name": "safeTransferFrom",
      "outputs": [],
      "stateMutability": "nonpayable",
      "type": "function"
    },
    {
      "inputs": [
        {
          "internalType": "address",
          "name": "operator",
          "type": "address"
        },
        {
          "internalType": "bool",
          "name": "approved",
          "type": "bool"
        }
      ],
      "name": "setApprovalForAll",
      "outputs": [],
      "stateMutability": "nonpayable",
      "type": "function"
    },
    {
      "inputs": [
        {
          "internalType": "bytes4",
          "name": "interfaceId",
          "type": "bytes4"
        }
      ],
      "name": "supportsInterface",
      "outputs": [
        {
          "internalType": "bool",
          "name": "",
          "type": "bool"
        }
      ],
      "stateMutability": "view",
      "type": "function"
    },
    {
      "inputs": [
        {
          "internalType": "uint256",
          "name": "id",
          "type": "uint256"
        }
      ],
      "name": "timeElapsed",
      "outputs": [
        {
          "internalType": "uint256",
          "name": "",
          "type": "uint256"
        }
      ],
      "stateMutability": "view",
      "type": "function"
    },
    {
      "inputs": [
        {
          "internalType": "uint256",
          "name": "id",
          "type": "uint256"
        }
      ],
      "name": "timeRemainingToEndOfActive",
      "outputs": [
        {
          "internalType": "uint256",
          "name": "",
          "type": "uint256"
        }
      ],
      "stateMutability": "view",
      "type": "function"
    },
    {
      "inputs": [
        {
          "internalType": "uint256",
          "name": "id",
          "type": "uint256"
        }
      ],
      "name": "timeRemainingToMaturity",
      "outputs": [
        {
          "internalType": "uint256",
          "name": "",
          "type": "uint256"
        }
      ],
      "stateMutability": "view",
      "type": "function"
    },
    {
      "inputs": [],
      "name": "tvl",
      "outputs": [
        {
          "internalType": "uint256",
          "name": "",
          "type": "uint256"
        }
      ],
      "stateMutability": "view",
      "type": "function"
    },
    {
      "inputs": [
        {
          "internalType": "uint256",
          "name": "",
          "type": "uint256"
        }
      ],
      "name": "uri",
      "outputs": [
        {
          "internalType": "string",
          "name": "",
          "type": "string"
        }
      ],
      "stateMutability": "view",
      "type": "function"
    },
    {
      "inputs": [
        {
          "internalType": "uint256",
          "name": "id",
          "type": "uint256"
        },
        {
          "internalType": "uint256",
          "name": "tokenAmount",
          "type": "uint256"
        }
      ],
      "name": "withdraw",
      "outputs": [],
      "stateMutability": "nonpayable",
      "type": "function"
    },
    {
      "inputs": [
        {
          "internalType": "uint256",
          "name": "id",
          "type": "uint256"
        }
      ],
      "name": "withdrawExcess",
      "outputs": [],
      "stateMutability": "nonpayable",
      "type": "function"
    },
    {
      "inputs": [
        {
          "internalType": "uint256",
          "name": "option",
          "type": "uint256"
        }
      ],
      "name": "yearOptionToDays",
      "outputs": [
        {
          "internalType": "uint256",
          "name": "",
          "type": "uint256"
        }
      ],
      "stateMutability": "pure",
      "type": "function"
    },
    {
      "inputs": [
        {
          "internalType": "uint256",
          "name": "option",
          "type": "uint256"
        }
      ],
      "name": "yearOptionToObligationRateList",
      "outputs": [
        {
          "internalType": "uint256[]",
          "name": "",
          "type": "uint256[]"
        }
      ],
      "stateMutability": "view",
      "type": "function"
    }
  ],
  "bytecode": "0x60c060405260006003556040518060a00160405280600560ff168152602001600560ff168152602001600a60ff168152602001600f60ff168152602001600f60ff16815250600d906005620000569291906200027b565b50604051806101200160405280600260ff168152602001600260ff168152602001600260ff168152602001600260ff168152602001600260ff168152602001600560ff168152602001600a60ff168152602001600a60ff168152602001600f60ff16815250600e906009620000cd929190620002d2565b50604051806102600160405280600260ff168152602001600260ff168152602001600260ff168152602001600260ff168152602001600260ff168152602001600260ff168152602001600260ff168152602001600260ff168152602001600260ff168152602001600260ff168152602001600260ff168152602001600260ff168152602001600260ff168152602001600260ff168152602001600260ff168152602001600560ff168152602001600560ff168152602001600560ff168152602001600560ff16815250600f906013620001a892919062000329565b50348015620001b657600080fd5b5060405162007123380380620071238339818101604052810190620001dc919062000597565b82828282620001f1816200026660201b60201c565b508073ffffffffffffffffffffffffffffffffffffffff1660808173ffffffffffffffffffffffffffffffffffffffff16815250508173ffffffffffffffffffffffffffffffffffffffff1660a08173ffffffffffffffffffffffffffffffffffffffff168152505050505050505062000944565b80600290816200027791906200085d565b5050565b828054828255906000526020600020908101928215620002bf579160200282015b82811115620002be578251829060ff169055916020019190600101906200029c565b5b509050620002ce919062000380565b5090565b82805482825590600052602060002090810192821562000316579160200282015b8281111562000315578251829060ff16905591602001919060010190620002f3565b5b50905062000325919062000380565b5090565b8280548282559060005260206000209081019282156200036d579160200282015b828111156200036c578251829060ff169055916020019190600101906200034a565b5b5090506200037c919062000380565b5090565b5b808211156200039b57600081600090555060010162000381565b5090565b6000604051905090565b600080fd5b600080fd5b600080fd5b600080fd5b6000601f19601f8301169050919050565b7f4e487b7100000000000000000000000000000000000000000000000000000000600052604160045260246000fd5b6200040882620003bd565b810181811067ffffffffffffffff821117156200042a5762000429620003ce565b5b80604052505050565b60006200043f6200039f565b90506200044d8282620003fd565b919050565b600067ffffffffffffffff82111562000470576200046f620003ce565b5b6200047b82620003bd565b9050602081019050919050565b60005b83811015620004a85780820151818401526020810190506200048b565b60008484015250505050565b6000620004cb620004c58462000452565b62000433565b905082815260208101848484011115620004ea57620004e9620003b8565b5b620004f784828562000488565b509392505050565b600082601f830112620005175762000516620003b3565b5b815162000529848260208601620004b4565b91505092915050565b600073ffffffffffffffffffffffffffffffffffffffff82169050919050565b60006200055f8262000532565b9050919050565b620005718162000552565b81146200057d57600080fd5b50565b600081519050620005918162000566565b92915050565b600080600060608486031215620005b357620005b2620003a9565b5b600084015167ffffffffffffffff811115620005d457620005d3620003ae565b5b620005e286828701620004ff565b9350506020620005f58682870162000580565b9250506040620006088682870162000580565b9150509250925092565b600081519050919050565b7f4e487b7100000000000000000000000000000000000000000000000000000000600052602260045260246000fd5b600060028204905060018216806200066557607f821691505b6020821081036200067b576200067a6200061d565b5b50919050565b60008190508160005260206000209050919050565b60006020601f8301049050919050565b600082821b905092915050565b600060088302620006e57fffffffffffffffffffffffffffffffffffffffffffffffffffffffffffffffff82620006a6565b620006f18683620006a6565b95508019841693508086168417925050509392505050565b6000819050919050565b6000819050919050565b60006200073e62000738620007328462000709565b62000713565b62000709565b9050919050565b6000819050919050565b6200075a836200071d565b62000772620007698262000745565b848454620006b3565b825550505050565b600090565b620007896200077a565b620007968184846200074f565b505050565b5b81811015620007be57620007b26000826200077f565b6001810190506200079c565b5050565b601f8211156200080d57620007d78162000681565b620007e28462000696565b81016020851015620007f2578190505b6200080a620008018562000696565b8301826200079b565b50505b505050565b600082821c905092915050565b6000620008326000198460080262000812565b1980831691505092915050565b60006200084d83836200081f565b9150826002028217905092915050565b620008688262000612565b67ffffffffffffffff811115620008845762000883620003ce565b5b6200089082546200064c565b6200089d828285620007c2565b600060209050601f831160018114620008d55760008415620008c0578287015190505b620008cc85826200083f565b8655506200093c565b601f198416620008e58662000681565b60005b828110156200090f57848901518255600182019150602085019450602081019050620008e8565b868310156200092f57848901516200092b601f8916826200081f565b8355505b6001600288020188555050505b505050505050565b60805160a051616750620009d3600039600081816111e50152818161188301528181611b6401528181611ff001528181612553015281816127a0015281816129cf01528181612b4301528181612d580152612f4d01526000818161102a015281816113d301528181611e0a015281816121ad01528181612a2001528181612df7015261318801526167506000f3fe608060405234801561001057600080fd5b506004361061030b5760003560e01c80638da5cb5b1161019d578063c372fb91116100e9578063e755ddd7116100a2578063f0d8100a1161007c578063f0d8100a14610ae3578063f23a6e6114610b13578063f242432a14610b43578063fcbc669a14610b5f5761030b565b8063e755ddd714610a67578063e885809014610a83578063e985e9c514610ab35761030b565b8063c372fb911461097f578063c55dae63146109af578063d3b7811b146109cd578063e2bbb158146109fd578063e52270e014610a19578063e5328e0614610a495761030b565b8063a9385a5c11610156578063bc197c8111610130578063bc197c81146108d3578063be5ba49014610903578063c0a6026c14610933578063c36177fc1461094f5761030b565b8063a9385a5c14610857578063abac75e114610887578063af73e2c9146108b75761030b565b80638da5cb5b146107835780638f0dbf77146107a1578063932a8de0146107d15780639a3cee8e14610801578063a22cb4651461081f578063a87430221461083b5761030b565b8063441a3e701161025c57806370876c98116102155780637cbc2373116101ef5780637cbc2373146106ce57806382afd23b146106ea57806388bdc0831461071a5780638c3526c21461074a5761030b565b806370876c981461065257806377e2a08b1461066e5780637a41984b1461069e5761030b565b8063441a3e701461056c5780634e1273f414610588578063549493bb146105b85780636567dc4d146105e85780636681b9fd146106045780636ff80d93146106225761030b565b806314f29493116102c95780632eb2c2d6116102a35780632eb2c2d6146104c05780632f3ad61f146104dc5780633097afb81461050c57806339e3af9b1461053c5761030b565b806314f29493146104305780631add027114610460578063239f60da146104905761030b565b8062fdd58e1461031057806301ffc9a714610340578063021594971461037057806308913ce8146103a057806309149020146103d05780630e89341c14610400575b600080fd5b61032a6004803603810190610325919061462e565b610b8f565b604051610337919061467d565b60405180910390f35b61035a600480360381019061035591906146f0565b610c57565b6040516103679190614738565b60405180910390f35b61038a60048036038101906103859190614753565b610d39565b604051610397919061467d565b60405180910390f35b6103ba60048036038101906103b59190614753565b610d56565b6040516103c7919061467d565b60405180910390f35b6103ea60048036038101906103e59190614753565b610d81565b6040516103f79190614738565b60405180910390f35b61041a60048036038101906104159190614753565b610db7565b6040516104279190614810565b60405180910390f35b61044a60048036038101906104459190614753565b610e4b565b604051610457919061467d565b60405180910390f35b61047a60048036038101906104759190614753565b610e89565b604051610487919061467d565b60405180910390f35b6104aa60048036038101906104a59190614753565b610ee2565b6040516104b7919061467d565b60405180910390f35b6104da60048036038101906104d59190614a2f565b610eff565b005b6104f660048036038101906104f19190614753565b610fa0565b6040516105039190614738565b60405180910390f35b61052660048036038101906105219190614753565b610fca565b6040516105339190614738565b60405180910390f35b61055660048036038101906105519190614753565b611003565b6040516105639190614738565b60405180910390f35b61058660048036038101906105819190614afe565b611028565b005b6105a2600480360381019061059d9190614c01565b611286565b6040516105af9190614d37565b60405180910390f35b6105d260048036038101906105cd9190614753565b61139f565b6040516105df9190614738565b60405180910390f35b61060260048036038101906105fd9190614753565b6113d1565b005b61060c6115a0565b604051610619919061467d565b60405180910390f35b61063c60048036038101906106379190614753565b6115aa565b6040516106499190614738565b60405180910390f35b61066c60048036038101906106679190614afe565b611642565b005b61068860048036038101906106839190614753565b611928565b604051610695919061467d565b60405180910390f35b6106b860048036038101906106b39190614753565b611981565b6040516106c59190614738565b60405180910390f35b6106e860048036038101906106e39190614afe565b6119ab565b005b61070460048036038101906106ff9190614753565b611c44565b6040516107119190614738565b60405180910390f35b610734600480360381019061072f9190614753565b611c67565b604051610741919061467d565b60405180910390f35b610764600480360381019061075f9190614753565b611c92565b60405161077a9a99989796959493929190614d59565b60405180910390f35b61078b611e06565b6040516107989190614e0b565b60405180910390f35b6107bb60048036038101906107b69190614753565b611e2e565b6040516107c89190614738565b60405180910390f35b6107eb60048036038101906107e69190614753565b611e50565b6040516107f8919061467d565b60405180910390f35b610809611e8e565b604051610816919061467d565b60405180910390f35b61083960048036038101906108349190614e52565b611e98565b005b61085560048036038101906108509190614753565b611eae565b005b610871600480360381019061086c9190614753565b6120d4565b60405161087e919061467d565b60405180910390f35b6108a1600480360381019061089c9190614753565b61218b565b6040516108ae919061467d565b60405180910390f35b6108d160048036038101906108cc9190614afe565b6121ab565b005b6108ed60048036038101906108e89190614a2f565b6125f7565b6040516108fa9190614ea1565b60405180910390f35b61091d60048036038101906109189190614753565b61260c565b60405161092a9190614d37565b60405180910390f35b61094d60048036038101906109489190614753565b612677565b005b61096960048036038101906109649190614afe565b61287d565b6040516109769190614d37565b60405180910390f35b61099960048036038101906109949190614753565b6129ae565b6040516109a6919061467d565b60405180910390f35b6109b76129cb565b6040516109c49190614e0b565b60405180910390f35b6109e760048036038101906109e29190614753565b6129f3565b6040516109f4919061467d565b60405180910390f35b610a176004803603810190610a129190614afe565b612a1e565b005b610a336004803603810190610a2e9190614753565b612be6565b604051610a409190614d37565b60405180910390f35b610a51612d54565b604051610a5e919061467d565b60405180910390f35b610a816004803603810190610a7c9190614753565b612df5565b005b610a9d6004803603810190610a989190614753565b613000565b604051610aaa919061467d565b60405180910390f35b610acd6004803603810190610ac89190614ebc565b61301d565b604051610ada9190614738565b60405180910390f35b610afd6004803603810190610af89190614753565b6130b1565b604051610b0a919061467d565b60405180910390f35b610b2d6004803603810190610b289190614efc565b6130ce565b604051610b3a9190614ea1565b60405180910390f35b610b5d6004803603810190610b589190614efc565b6130e3565b005b610b796004803603810190610b749190614fee565b613184565b604051610b86919061467d565b60405180910390f35b60008073ffffffffffffffffffffffffffffffffffffffff168373ffffffffffffffffffffffffffffffffffffffff1603610bff576040517f08c379a0000000000000000000000000000000000000000000000000000000008152600401610bf690615122565b60405180910390fd5b60008083815260200190815260200160002060008473ffffffffffffffffffffffffffffffffffffffff1673ffffffffffffffffffffffffffffffffffffffff16815260200190815260200160002054905092915050565b60007fd9b67a26000000000000000000000000000000000000000000000000000000007bffffffffffffffffffffffffffffffffffffffffffffffffffffffff1916827bffffffffffffffffffffffffffffffffffffffffffffffffffffffff19161480610d2257507f0e89341c000000000000000000000000000000000000000000000000000000007bffffffffffffffffffffffffffffffffffffffffffffffffffffffff1916827bffffffffffffffffffffffffffffffffffffffffffffffffffffffff1916145b80610d325750610d3182613531565b5b9050919050565b600060086000838152602001908152602001600020549050919050565b6000600560008381526020019081526020016000206002015442610d7a9190615171565b9050919050565b60006005600083815260200190815260200160002060080154600660008481526020019081526020016000205410159050919050565b606060028054610dc6906151d4565b80601f0160208091040260200160405190810160405280929190818152602001828054610df2906151d4565b8015610e3f5780601f10610e1457610100808354040283529160200191610e3f565b820191906000526020600020905b815481529060010190602001808311610e2257829003601f168201915b50505050509050919050565b600060066000838152602001908152602001600020546005600084815260200190815260200160002060010154610e829190615205565b9050919050565b6000670de0b6b3a76400006005600084815260200190815260200160002060070154670de0b6b3a7640000610ebd85613000565b610ec79190615205565b610ed19190615276565b610edb9190615276565b9050919050565b600060136000838152602001908152602001600020549050919050565b610f0761359b565b73ffffffffffffffffffffffffffffffffffffffff168573ffffffffffffffffffffffffffffffffffffffff161480610f4d5750610f4c85610f4761359b565b61301d565b5b610f8c576040517f08c379a0000000000000000000000000000000000000000000000000000000008152600401610f8390615319565b60405180910390fd5b610f9985858585856135a3565b5050505050565b6000600b600083815260200190815260200160002060009054906101000a900460ff169050919050565b6000610fd582611e2e565b8015610ffc5750610fe582611928565b600860008481526020019081526020016000205410155b9050919050565b600061100e82611c44565b158015611021575061101f82610d81565b155b9050919050565b7f000000000000000000000000000000000000000000000000000000000000000073ffffffffffffffffffffffffffffffffffffffff163373ffffffffffffffffffffffffffffffffffffffff16146110b6576040517f08c379a00000000000000000000000000000000000000000000000000000000081526004016110ad90615385565b60405180910390fd5b6110bf82611c44565b1580156110d257506110d082611003565b155b80156110e457506110e282611981565b155b801561110657506110f482610fa0565b806111045750611103826115aa565b5b155b611145576040517f08c379a000000000000000000000000000000000000000000000000000000000815260040161113c906153f1565b60405180910390fd5b601260008381526020019081526020016000205460086000848152602001908152602001600020546111779190615171565b8111156111b9576040517f08c379a00000000000000000000000000000000000000000000000000000000081526004016111b09061545d565b60405180910390fd5b806008600084815260200190815260200160002060008282546111dc9190615171565b925050819055507f000000000000000000000000000000000000000000000000000000000000000073ffffffffffffffffffffffffffffffffffffffff1663a9059cbb33836040518363ffffffff1660e01b815260040161123e92919061547d565b6020604051808303816000875af115801561125d573d6000803e3d6000fd5b505050506040513d601f19601f8201168201806040525081019061128191906154bb565b505050565b606081518351146112cc576040517f08c379a00000000000000000000000000000000000000000000000000000000081526004016112c39061555a565b60405180910390fd5b6000835167ffffffffffffffff8111156112e9576112e8614837565b5b6040519080825280602002602001820160405280156113175781602001602082028036833780820191505090505b50905060005b84518110156113945761136485828151811061133c5761133b61557a565b5b60200260200101518583815181106113575761135661557a565b5b6020026020010151610b8f565b8282815181106113775761137661557a565b5b6020026020010181815250508061138d906155a9565b905061131d565b508091505092915050565b600060066000838152602001908152602001600020546007600084815260200190815260200160002054149050919050565b7f000000000000000000000000000000000000000000000000000000000000000073ffffffffffffffffffffffffffffffffffffffff163373ffffffffffffffffffffffffffffffffffffffff161461145f576040517f08c379a000000000000000000000000000000000000000000000000000000000815260040161145690615385565b60405180910390fd5b61146881611981565b15801561147b575061147981610fa0565b155b80156114a1575061148b81611928565b6008600083815260200190815260200160002054105b6114e0576040517f08c379a00000000000000000000000000000000000000000000000000000000081526004016114d79061563d565b60405180910390fd5b6000600860008381526020019081526020016000205490506006600083815260200190815260200160002054816115179190615276565b60096000848152602001908152602001600020819055506001600b600084815260200190815260200160002060006101000a81548160ff021916908315150217905550817fc4f17a65d54873d57229ea5f59c4ddec592d095bc17581372676402c8228b9cd61158584611928565b8360405161159492919061565d565b60405180910390a25050565b6000600454905090565b6000806115b683611e2e565b80156115dc57506115c683611928565b6008600085815260200190815260200160002054105b905060006115e984611e2e565b15801561162e57506201518060b4600160136000888152602001908152602001600020546116179190615686565b6116219190615205565b61162b9190615205565b42115b905081806116395750805b92505050919050565b61164b82611c44565b61168a576040517f08c379a000000000000000000000000000000000000000000000000000000000815260040161168190615706565b60405180910390fd5b8061169483611e50565b10156116d5576040517f08c379a00000000000000000000000000000000000000000000000000000000081526004016116cc90615772565b60405180910390fd5b60006005600084815260200190815260200160002060405180610140016040529081600082018054611706906151d4565b80601f0160208091040260200160405190810160405280929190818152602001828054611732906151d4565b801561177f5780601f106117545761010080835404028352916020019161177f565b820191906000526020600020905b81548152906001019060200180831161176257829003601f168201915b505050505081526020016001820154815260200160028201548152602001600382015481526020016004820154815260200160058201548152602001600682015481526020016007820154815260200160088201548152602001600982015481525050905060008160200151836117f69190615205565b90508260066000868152602001908152602001600020600082825461181b9190615686565b92505081905550806008600086815260200190815260200160002060008282546118459190615686565b92505081905550806004600082825461185e9190615686565b9250508190555061188130338686604051806020016040528060008152506130e3565b7f000000000000000000000000000000000000000000000000000000000000000073ffffffffffffffffffffffffffffffffffffffff166323b872dd3330846040518463ffffffff1660e01b81526004016118de93929190615792565b6020604051808303816000875af11580156118fd573d6000803e3d6000fd5b505050506040513d601f19601f8201168201806040525081019061192191906154bb565b5050505050565b6000670de0b6b3a7640000600560008481526020019081526020016000206009015461195384610e4b565b61195d9190615205565b6119679190615276565b61197083610e4b565b61197a9190615686565b9050919050565b6000600c600083815260200190815260200160002060009054906101000a900460ff169050919050565b806119b63384610b8f565b10156119f7576040517f08c379a00000000000000000000000000000000000000000000000000000000081526004016119ee90615772565b60405180910390fd5b611a0082611981565b80611a105750611a0f82611003565b5b80611a205750611a1f82610fa0565b5b611a5f576040517f08c379a0000000000000000000000000000000000000000000000000000000008152600401611a5690615815565b60405180910390fd5b600080611a6b84611981565b15611a8f57600a600085815260200190815260200160002054915060009050611af3565b611a9884611003565b15611abf576005600085815260200190815260200160002060010154915060019050611af2565b611ac884610fa0565b15611aec576009600085815260200190815260200160002054915060029050611af1565b600080fd5b5b5b611afe3385856138c4565b82600760008681526020019081526020016000206000828254611b219190615686565b9250508190555060008284611b369190615205565b905080600860008781526020019081526020016000206000828254611b5b9190615171565b925050819055507f000000000000000000000000000000000000000000000000000000000000000073ffffffffffffffffffffffffffffffffffffffff1663a9059cbb33836040518363ffffffff1660e01b8152600401611bbd92919061547d565b6020604051808303816000875af1158015611bdc573d6000803e3d6000fd5b505050506040513d601f19601f82011682018060405250810190611c0091906154bb565b50847fa5851b0172fdafd3dafe0e52ce051747548a4c642a2f22793c01faf228e13062338685604051611c3593929190615835565b60405180910390a25050505050565b600060056000838152602001908152602001600020600401544211159050919050565b6000426005600084815260200190815260200160002060040154611c8b9190615171565b9050919050565b6060600080600080600080600080600080600560008d815260200190815260200160002060405180610140016040529081600082018054611cd2906151d4565b80601f0160208091040260200160405190810160405280929190818152602001828054611cfe906151d4565b8015611d4b5780601f10611d2057610100808354040283529160200191611d4b565b820191906000526020600020905b815481529060010190602001808311611d2e57829003601f168201915b5050505050815260200160018201548152602001600282015481526020016003820154815260200160048201548152602001600582015481526020016006820154815260200160078201548152602001600882015481526020016009820154815250509050806000015181602001518260400151836060015184608001518560a001518660c001518760e001518861010001518961012001519a509a509a509a509a509a509a509a509a509a50509193959799509193959799565b60007f0000000000000000000000000000000000000000000000000000000000000000905090565b6000600560008381526020019081526020016000206003015442119050919050565b600060066000838152602001908152602001600020546005600084815260200190815260200160002060070154611e879190615171565b9050919050565b6000600354905090565b611eaa611ea361359b565b8383613b0a565b5050565b611eb781611981565b158015611eca5750611ec881610fa0565b155b8015611edb5750611eda816115aa565b5b611f1a576040517f08c379a0000000000000000000000000000000000000000000000000000000008152600401611f11906158b8565b60405180910390fd5b60006103e86008600084815260200190815260200160002054611f3d9190615276565b90506000816008600085815260200190815260200160002054611f609190615171565b9050600660008481526020019081526020016000205481611f819190615276565b600960008581526020019081526020016000208190555081600860008581526020019081526020016000206000828254611fbb9190615171565b925050819055506001600b600085815260200190815260200160002060006101000a81548160ff0219169083151502179055507f000000000000000000000000000000000000000000000000000000000000000073ffffffffffffffffffffffffffffffffffffffff1663a9059cbb33846040518363ffffffff1660e01b815260040161204992919061547d565b6020604051808303816000875af1158015612068573d6000803e3d6000fd5b505050506040513d601f19601f8201168201806040525081019061208c91906154bb565b50827fc4f17a65d54873d57229ea5f59c4ddec592d095bc17581372676402c8228b9cd6120b885611928565b836040516120c792919061565d565b60405180910390a2505050565b600081600081101580156120e9575060028111155b612128576040517f08c379a000000000000000000000000000000000000000000000000000000000815260040161211f90615924565b60405180910390fd5b600060b460026121389190615205565b9050600084036121575780600361214f9190615205565b925050612185565b600184036121745780600561216c9190615205565b925050612185565b80600a6121819190615205565b9250505b50919050565b600060056000838152602001908152602001600020600901549050919050565b7f000000000000000000000000000000000000000000000000000000000000000073ffffffffffffffffffffffffffffffffffffffff163373ffffffffffffffffffffffffffffffffffffffff1614612239576040517f08c379a000000000000000000000000000000000000000000000000000000000815260040161223090615385565b60405180910390fd5b61224282610fa0565b806122525750612251826115aa565b5b15612292576040517f08c379a0000000000000000000000000000000000000000000000000000000008152600401612289906153f1565b60405180910390fd5b600560008381526020019081526020016000206006015460b4600160136000868152602001908152602001600020546122cb9190615686565b6122d59190615205565b03612315576040517f08c379a000000000000000000000000000000000000000000000000000000000815260040161230c90615990565b60405180910390fd5b6011600083815260200190815260200160002060136000848152602001908152602001600020548154811061234d5761234c61557a565b5b906000526020600020015481101561239a576040517f08c379a0000000000000000000000000000000000000000000000000000000008152600401612391906159fc565b60405180910390fd5b66b1a2bc2ec50000601160008481526020019081526020016000206013600085815260200190815260200160002054815481106123da576123d961557a565b5b9060005260206000200154670de0b6b3a7640000601160008681526020019081526020016000206013600087815260200190815260200160002054815481106124265761242561557a565b5b90600052602060002001548461243c9190615171565b6124469190615205565b6124509190615276565b1115612491576040517f08c379a000000000000000000000000000000000000000000000000000000000815260040161248890615a68565b60405180910390fd5b60006005600084815260200190815260200160002060070154826124b59190615205565b9050806012600085815260200190815260200160002060008282546124da9190615686565b925050819055506201518060b46124f19190615205565b601060008581526020019081526020016000205461250f9190615686565b6010600085815260200190815260200160002081905550600160136000858152602001908152602001600020600082825461254a9190615686565b925050819055507f000000000000000000000000000000000000000000000000000000000000000073ffffffffffffffffffffffffffffffffffffffff166323b872dd3330846040518463ffffffff1660e01b81526004016125ae93929190615792565b6020604051808303816000875af11580156125cd573d6000803e3d6000fd5b505050506040513d601f19601f820116820180604052508101906125f191906154bb565b50505050565b600063bc197c8160e01b905095945050505050565b60606011600083815260200190815260200160002080548060200260200160405190810160405280929190818152602001828054801561266b57602002820191906000526020600020905b815481526020019060010190808311612657575b50505050509050919050565b61268081610fa0565b158015612693575061269181611981565b155b80156126a457506126a381610fca565b5b6126e3576040517f08c379a00000000000000000000000000000000000000000000000000000000081526004016126da90615ad4565b60405180910390fd5b60006126ee82611928565b905060006103e8826127009190615276565b9050600081836127109190615171565b90506006600085815260200190815260200160002054816127319190615276565b600a6000868152602001908152602001600020819055508160086000868152602001908152602001600020600082825461276b9190615171565b925050819055506001600c600086815260200190815260200160002060006101000a81548160ff0219169083151502179055507f000000000000000000000000000000000000000000000000000000000000000073ffffffffffffffffffffffffffffffffffffffff1663a9059cbb33846040518363ffffffff1660e01b81526004016127f992919061547d565b6020604051808303816000875af1158015612818573d6000803e3d6000fd5b505050506040513d601f19601f8201168201806040525081019061283c91906154bb565b50837fac2eeaf45d1b75aed6b3285cda3efb3c382cce02ba313558bbb90be57f8843e4848360405161286f92919061565d565b60405180910390a250505050565b60608160008110158015612892575060028111155b6128d1576040517f08c379a00000000000000000000000000000000000000000000000000000000081526004016128c890615924565b60405180910390fd5b60006128dc84612be6565b905060008151905060008167ffffffffffffffff811115612900576128ff614837565b5b60405190808252806020026020018201604052801561292e5781602001602082028036833780820191505090505b50905060005b828110156129a05760648482815181106129515761295061557a565b5b6020026020010151896129649190615205565b61296e9190615276565b8282815181106129815761298061557a565b5b6020026020010181815250508080612998906155a9565b915050612934565b508094505050505092915050565b600060106000838152602001908152602001600020549050919050565b60007f0000000000000000000000000000000000000000000000000000000000000000905090565b6000426005600084815260200190815260200160002060030154612a179190615171565b9050919050565b7f000000000000000000000000000000000000000000000000000000000000000073ffffffffffffffffffffffffffffffffffffffff163373ffffffffffffffffffffffffffffffffffffffff1614612aac576040517f08c379a0000000000000000000000000000000000000000000000000000000008152600401612aa390615385565b60405180910390fd5b612ab582610fa0565b80612ac55750612ac4826115aa565b5b158015612ad85750612ad682611981565b155b612b17576040517f08c379a0000000000000000000000000000000000000000000000000000000008152600401612b0e90615b40565b60405180910390fd5b80600860008481526020019081526020016000206000828254612b3a9190615686565b925050819055507f000000000000000000000000000000000000000000000000000000000000000073ffffffffffffffffffffffffffffffffffffffff166323b872dd3330846040518463ffffffff1660e01b8152600401612b9e93929190615792565b6020604051808303816000875af1158015612bbd573d6000803e3d6000fd5b505050506040513d601f19601f82011682018060405250810190612be191906154bb565b505050565b60608160008110158015612bfb575060028111155b612c3a576040517f08c379a0000000000000000000000000000000000000000000000000000000008152600401612c3190615924565b60405180910390fd5b60008303612c9a57600d805480602002602001604051908101604052809291908181526020018280548015612c8e57602002820191906000526020600020905b815481526020019060010190808311612c7a575b50505050509150612d4e565b60018303612cfa57600e805480602002602001604051908101604052809291908181526020018280548015612cee57602002820191906000526020600020905b815481526020019060010190808311612cda575b50505050509150612d4e565b600f805480602002602001604051908101604052809291908181526020018280548015612d4657602002820191906000526020600020905b815481526020019060010190808311612d32575b505050505091505b50919050565b60007f000000000000000000000000000000000000000000000000000000000000000073ffffffffffffffffffffffffffffffffffffffff166370a08231306040518263ffffffff1660e01b8152600401612daf9190614e0b565b602060405180830381865afa158015612dcc573d6000803e3d6000fd5b505050506040513d601f19601f82011682018060405250810190612df09190615b75565b905090565b7f000000000000000000000000000000000000000000000000000000000000000073ffffffffffffffffffffffffffffffffffffffff163373ffffffffffffffffffffffffffffffffffffffff1614612e83576040517f08c379a0000000000000000000000000000000000000000000000000000000008152600401612e7a90615385565b60405180910390fd5b612e8c81611981565b8015612e9d5750612e9c8161139f565b5b612edc576040517f08c379a0000000000000000000000000000000000000000000000000000000008152600401612ed3906153f1565b60405180910390fd5b6000600860008381526020019081526020016000205411612f32576040517f08c379a0000000000000000000000000000000000000000000000000000000008152600401612f2990615bee565b60405180910390fd5b600060086000838152602001908152602001600020819055507f000000000000000000000000000000000000000000000000000000000000000073ffffffffffffffffffffffffffffffffffffffff1663a9059cbb3360086000858152602001908152602001600020546040518363ffffffff1660e01b8152600401612fb992919061547d565b6020604051808303816000875af1158015612fd8573d6000803e3d6000fd5b505050506040513d601f19601f82011682018060405250810190612ffc91906154bb565b5050565b600060126000838152602001908152602001600020549050919050565b6000600160008473ffffffffffffffffffffffffffffffffffffffff1673ffffffffffffffffffffffffffffffffffffffff16815260200190815260200160002060008373ffffffffffffffffffffffffffffffffffffffff1673ffffffffffffffffffffffffffffffffffffffff16815260200190815260200160002060009054906101000a900460ff16905092915050565b600060086000838152602001908152602001600020549050919050565b600063f23a6e6160e01b905095945050505050565b6130eb61359b565b73ffffffffffffffffffffffffffffffffffffffff168573ffffffffffffffffffffffffffffffffffffffff16148061313157506131308561312b61359b565b61301d565b5b613170576040517f08c379a000000000000000000000000000000000000000000000000000000000815260040161316790615319565b60405180910390fd5b61317d8585858585613c76565b5050505050565b60007f000000000000000000000000000000000000000000000000000000000000000073ffffffffffffffffffffffffffffffffffffffff163373ffffffffffffffffffffffffffffffffffffffff1614613214576040517f08c379a000000000000000000000000000000000000000000000000000000000815260040161320b90615385565b60405180910390fd5b8360008110158015613227575060028111155b613266576040517f08c379a000000000000000000000000000000000000000000000000000000000815260040161325d90615924565b60405180910390fd5b8989106132a8576040517f08c379a000000000000000000000000000000000000000000000000000000000815260040161329f90615c5a565b60405180910390fd5b60078411156132ec576040517f08c379a00000000000000000000000000000000000000000000000000000000081526004016132e390615cc6565b60405180910390fd5b60006132f7866120d4565b905060016003546133089190615686565b925061332533848d60405180602001604052806000815250613f11565b60405180610140016040528089898080601f016020809104026020016040519081016040528093929190818152602001838380828437600081840152601f19601f8201169050808301925050505050505081526020018a815260200142815260200162015180836133969190615205565b426133a19190615686565b815260200162015180876133b59190615205565b426133c09190615686565b81526020018681526020018281526020018c81526020018b8152602001858152506005600085815260200190815260200160002060008201518160000190816134099190615e92565b506020820151816001015560408201518160020155606082015181600301556080820151816004015560a0820151816005015560c0820151816006015560e08201518160070155610100820151816008015561012082015181600901559050506201518060b46134799190615205565b426134849190615686565b60106000858152602001908152602001600020819055506134a5898761287d565b6011600085815260200190815260200160002090805190602001906134cb92919061451c565b50827ff73e436c94925e1e8b2f0b16de0a2c56aea7fb27878f7815811bc05bc6c335e88c8b8762015180866135009190615205565b4261350b9190615686565b60405161351b9493929190615f64565b60405180910390a2505098975050505050505050565b60007f01ffc9a7000000000000000000000000000000000000000000000000000000007bffffffffffffffffffffffffffffffffffffffffffffffffffffffff1916827bffffffffffffffffffffffffffffffffffffffffffffffffffffffff1916149050919050565b600033905090565b81518351146135e7576040517f08c379a00000000000000000000000000000000000000000000000000000000081526004016135de9061601b565b60405180910390fd5b600073ffffffffffffffffffffffffffffffffffffffff168473ffffffffffffffffffffffffffffffffffffffff1603613656576040517f08c379a000000000000000000000000000000000000000000000000000000000815260040161364d906160ad565b60405180910390fd5b600061366061359b565b90506136708187878787876140c1565b60005b84518110156138215760008582815181106136915761369061557a565b5b6020026020010151905060008583815181106136b0576136af61557a565b5b60200260200101519050600080600084815260200190815260200160002060008b73ffffffffffffffffffffffffffffffffffffffff1673ffffffffffffffffffffffffffffffffffffffff16815260200190815260200160002054905081811015613751576040517f08c379a00000000000000000000000000000000000000000000000000000000081526004016137489061613f565b60405180910390fd5b81810360008085815260200190815260200160002060008c73ffffffffffffffffffffffffffffffffffffffff1673ffffffffffffffffffffffffffffffffffffffff168152602001908152602001600020819055508160008085815260200190815260200160002060008b73ffffffffffffffffffffffffffffffffffffffff1673ffffffffffffffffffffffffffffffffffffffff16815260200190815260200160002060008282546138069190615686565b925050819055505050508061381a906155a9565b9050613673565b508473ffffffffffffffffffffffffffffffffffffffff168673ffffffffffffffffffffffffffffffffffffffff168273ffffffffffffffffffffffffffffffffffffffff167f4a39dc06d4c0dbc64b70af90fd698a233a518aa5d07e595d983b8c0526c8f7fb878760405161389892919061615f565b60405180910390a46138ae8187878787876140c9565b6138bc8187878787876140d1565b505050505050565b600073ffffffffffffffffffffffffffffffffffffffff168373ffffffffffffffffffffffffffffffffffffffff1603613933576040517f08c379a000000000000000000000000000000000000000000000000000000000815260040161392a90616208565b60405180910390fd5b600061393d61359b565b9050600061394a846142a8565b90506000613957846142a8565b9050613977838760008585604051806020016040528060008152506140c1565b600080600087815260200190815260200160002060008873ffffffffffffffffffffffffffffffffffffffff1673ffffffffffffffffffffffffffffffffffffffff16815260200190815260200160002054905084811015613a0e576040517f08c379a0000000000000000000000000000000000000000000000000000000008152600401613a059061629a565b60405180910390fd5b84810360008088815260200190815260200160002060008973ffffffffffffffffffffffffffffffffffffffff1673ffffffffffffffffffffffffffffffffffffffff16815260200190815260200160002081905550600073ffffffffffffffffffffffffffffffffffffffff168773ffffffffffffffffffffffffffffffffffffffff168573ffffffffffffffffffffffffffffffffffffffff167fc3d58168c5ae7397731d063d5bbf3d657854427343f4c083240f7aacaa2d0f628989604051613adb92919061565d565b60405180910390a4613b01848860008686604051806020016040528060008152506140c9565b50505050505050565b8173ffffffffffffffffffffffffffffffffffffffff168373ffffffffffffffffffffffffffffffffffffffff1603613b78576040517f08c379a0000000000000000000000000000000000000000000000000000000008152600401613b6f9061632c565b60405180910390fd5b80600160008573ffffffffffffffffffffffffffffffffffffffff1673ffffffffffffffffffffffffffffffffffffffff16815260200190815260200160002060008473ffffffffffffffffffffffffffffffffffffffff1673ffffffffffffffffffffffffffffffffffffffff16815260200190815260200160002060006101000a81548160ff0219169083151502179055508173ffffffffffffffffffffffffffffffffffffffff168373ffffffffffffffffffffffffffffffffffffffff167f17307eab39ab6107e8899845ad3d59bd9653f200f220920489ca2b5937696c3183604051613c699190614738565b60405180910390a3505050565b600073ffffffffffffffffffffffffffffffffffffffff168473ffffffffffffffffffffffffffffffffffffffff1603613ce5576040517f08c379a0000000000000000000000000000000000000000000000000000000008152600401613cdc906160ad565b60405180910390fd5b6000613cef61359b565b90506000613cfc856142a8565b90506000613d09856142a8565b9050613d198389898585896140c1565b600080600088815260200190815260200160002060008a73ffffffffffffffffffffffffffffffffffffffff1673ffffffffffffffffffffffffffffffffffffffff16815260200190815260200160002054905085811015613db0576040517f08c379a0000000000000000000000000000000000000000000000000000000008152600401613da79061613f565b60405180910390fd5b85810360008089815260200190815260200160002060008b73ffffffffffffffffffffffffffffffffffffffff1673ffffffffffffffffffffffffffffffffffffffff168152602001908152602001600020819055508560008089815260200190815260200160002060008a73ffffffffffffffffffffffffffffffffffffffff1673ffffffffffffffffffffffffffffffffffffffff1681526020019081526020016000206000828254613e659190615686565b925050819055508773ffffffffffffffffffffffffffffffffffffffff168973ffffffffffffffffffffffffffffffffffffffff168573ffffffffffffffffffffffffffffffffffffffff167fc3d58168c5ae7397731d063d5bbf3d657854427343f4c083240f7aacaa2d0f628a8a604051613ee292919061565d565b60405180910390a4613ef8848a8a86868a6140c9565b613f06848a8a8a8a8a614322565b505050505050505050565b600073ffffffffffffffffffffffffffffffffffffffff168473ffffffffffffffffffffffffffffffffffffffff1603613f80576040517f08c379a0000000000000000000000000000000000000000000000000000000008152600401613f77906163be565b60405180910390fd5b6000613f8a61359b565b90506000613f97856142a8565b90506000613fa4856142a8565b9050613fb5836000898585896140c1565b8460008088815260200190815260200160002060008973ffffffffffffffffffffffffffffffffffffffff1673ffffffffffffffffffffffffffffffffffffffff16815260200190815260200160002060008282546140149190615686565b925050819055508673ffffffffffffffffffffffffffffffffffffffff16600073ffffffffffffffffffffffffffffffffffffffff168473ffffffffffffffffffffffffffffffffffffffff167fc3d58168c5ae7397731d063d5bbf3d657854427343f4c083240f7aacaa2d0f62898960405161409292919061565d565b60405180910390a46140a9836000898585896140c9565b6140b883600089898989614322565b50505050505050565b505050505050565b505050505050565b6140f08473ffffffffffffffffffffffffffffffffffffffff166144f9565b156142a0578373ffffffffffffffffffffffffffffffffffffffff1663bc197c8187878686866040518663ffffffff1660e01b8152600401614136959493929190616433565b6020604051808303816000875af192505050801561417257506040513d601f19601f8201168201806040525081019061416f91906164b0565b60015b6142175761417e6164ea565b806308c379a0036141da575061419261650c565b8061419d57506141dc565b806040517f08c379a00000000000000000000000000000000000000000000000000000000081526004016141d19190614810565b60405180910390fd5b505b6040517f08c379a000000000000000000000000000000000000000000000000000000000815260040161420e9061660e565b60405180910390fd5b63bc197c8160e01b7bffffffffffffffffffffffffffffffffffffffffffffffffffffffff1916817bffffffffffffffffffffffffffffffffffffffffffffffffffffffff19161461429e576040517f08c379a0000000000000000000000000000000000000000000000000000000008152600401614295906166a0565b60405180910390fd5b505b505050505050565b60606000600167ffffffffffffffff8111156142c7576142c6614837565b5b6040519080825280602002602001820160405280156142f55781602001602082028036833780820191505090505b509050828160008151811061430d5761430c61557a565b5b60200260200101818152505080915050919050565b6143418473ffffffffffffffffffffffffffffffffffffffff166144f9565b156144f1578373ffffffffffffffffffffffffffffffffffffffff1663f23a6e6187878686866040518663ffffffff1660e01b81526004016143879594939291906166c0565b6020604051808303816000875af19250505080156143c357506040513d601f19601f820116820180604052508101906143c091906164b0565b60015b614468576143cf6164ea565b806308c379a00361442b57506143e361650c565b806143ee575061442d565b806040517f08c379a00000000000000000000000000000000000000000000000000000000081526004016144229190614810565b60405180910390fd5b505b6040517f08c379a000000000000000000000000000000000000000000000000000000000815260040161445f9061660e565b60405180910390fd5b63f23a6e6160e01b7bffffffffffffffffffffffffffffffffffffffffffffffffffffffff1916817bffffffffffffffffffffffffffffffffffffffffffffffffffffffff1916146144ef576040517f08c379a00000000000000000000000000000000000000000000000000000000081526004016144e6906166a0565b60405180910390fd5b505b505050505050565b6000808273ffffffffffffffffffffffffffffffffffffffff163b119050919050565b828054828255906000526020600020908101928215614558579160200282015b8281111561455757825182559160200191906001019061453c565b5b5090506145659190614569565b5090565b5b8082111561458257600081600090555060010161456a565b5090565b6000604051905090565b600080fd5b600080fd5b600073ffffffffffffffffffffffffffffffffffffffff82169050919050565b60006145c58261459a565b9050919050565b6145d5816145ba565b81146145e057600080fd5b50565b6000813590506145f2816145cc565b92915050565b6000819050919050565b61460b816145f8565b811461461657600080fd5b50565b60008135905061462881614602565b92915050565b6000806040838503121561464557614644614590565b5b6000614653858286016145e3565b925050602061466485828601614619565b9150509250929050565b614677816145f8565b82525050565b6000602082019050614692600083018461466e565b92915050565b60007fffffffff0000000000000000000000000000000000000000000000000000000082169050919050565b6146cd81614698565b81146146d857600080fd5b50565b6000813590506146ea816146c4565b92915050565b60006020828403121561470657614705614590565b5b6000614714848285016146db565b91505092915050565b60008115159050919050565b6147328161471d565b82525050565b600060208201905061474d6000830184614729565b92915050565b60006020828403121561476957614768614590565b5b600061477784828501614619565b91505092915050565b600081519050919050565b600082825260208201905092915050565b60005b838110156147ba57808201518184015260208101905061479f565b60008484015250505050565b6000601f19601f8301169050919050565b60006147e282614780565b6147ec818561478b565b93506147fc81856020860161479c565b614805816147c6565b840191505092915050565b6000602082019050818103600083015261482a81846147d7565b905092915050565b600080fd5b7f4e487b7100000000000000000000000000000000000000000000000000000000600052604160045260246000fd5b61486f826147c6565b810181811067ffffffffffffffff8211171561488e5761488d614837565b5b80604052505050565b60006148a1614586565b90506148ad8282614866565b919050565b600067ffffffffffffffff8211156148cd576148cc614837565b5b602082029050602081019050919050565b600080fd5b60006148f66148f1846148b2565b614897565b90508083825260208201905060208402830185811115614919576149186148de565b5b835b81811015614942578061492e8882614619565b84526020840193505060208101905061491b565b5050509392505050565b600082601f83011261496157614960614832565b5b81356149718482602086016148e3565b91505092915050565b600080fd5b600067ffffffffffffffff82111561499a57614999614837565b5b6149a3826147c6565b9050602081019050919050565b82818337600083830152505050565b60006149d26149cd8461497f565b614897565b9050828152602081018484840111156149ee576149ed61497a565b5b6149f98482856149b0565b509392505050565b600082601f830112614a1657614a15614832565b5b8135614a268482602086016149bf565b91505092915050565b600080600080600060a08688031215614a4b57614a4a614590565b5b6000614a59888289016145e3565b9550506020614a6a888289016145e3565b945050604086013567ffffffffffffffff811115614a8b57614a8a614595565b5b614a978882890161494c565b935050606086013567ffffffffffffffff811115614ab857614ab7614595565b5b614ac48882890161494c565b925050608086013567ffffffffffffffff811115614ae557614ae4614595565b5b614af188828901614a01565b9150509295509295909350565b60008060408385031215614b1557614b14614590565b5b6000614b2385828601614619565b9250506020614b3485828601614619565b9150509250929050565b600067ffffffffffffffff821115614b5957614b58614837565b5b602082029050602081019050919050565b6000614b7d614b7884614b3e565b614897565b90508083825260208201905060208402830185811115614ba057614b9f6148de565b5b835b81811015614bc95780614bb588826145e3565b845260208401935050602081019050614ba2565b5050509392505050565b600082601f830112614be857614be7614832565b5b8135614bf8848260208601614b6a565b91505092915050565b60008060408385031215614c1857614c17614590565b5b600083013567ffffffffffffffff811115614c3657614c35614595565b5b614c4285828601614bd3565b925050602083013567ffffffffffffffff811115614c6357614c62614595565b5b614c6f8582860161494c565b9150509250929050565b600081519050919050565b600082825260208201905092915050565b6000819050602082019050919050565b614cae816145f8565b82525050565b6000614cc08383614ca5565b60208301905092915050565b6000602082019050919050565b6000614ce482614c79565b614cee8185614c84565b9350614cf983614c95565b8060005b83811015614d2a578151614d118882614cb4565b9750614d1c83614ccc565b925050600181019050614cfd565b5085935050505092915050565b60006020820190508181036000830152614d518184614cd9565b905092915050565b6000610140820190508181036000830152614d74818d6147d7565b9050614d83602083018c61466e565b614d90604083018b61466e565b614d9d606083018a61466e565b614daa608083018961466e565b614db760a083018861466e565b614dc460c083018761466e565b614dd160e083018661466e565b614ddf61010083018561466e565b614ded61012083018461466e565b9b9a5050505050505050505050565b614e05816145ba565b82525050565b6000602082019050614e206000830184614dfc565b92915050565b614e2f8161471d565b8114614e3a57600080fd5b50565b600081359050614e4c81614e26565b92915050565b60008060408385031215614e6957614e68614590565b5b6000614e77858286016145e3565b9250506020614e8885828601614e3d565b9150509250929050565b614e9b81614698565b82525050565b6000602082019050614eb66000830184614e92565b92915050565b60008060408385031215614ed357614ed2614590565b5b6000614ee1858286016145e3565b9250506020614ef2858286016145e3565b9150509250929050565b600080600080600060a08688031215614f1857614f17614590565b5b6000614f26888289016145e3565b9550506020614f37888289016145e3565b9450506040614f4888828901614619565b9350506060614f5988828901614619565b925050608086013567ffffffffffffffff811115614f7a57614f79614595565b5b614f8688828901614a01565b9150509295509295909350565b600080fd5b60008083601f840112614fae57614fad614832565b5b8235905067ffffffffffffffff811115614fcb57614fca614f93565b5b602083019150836001820283011115614fe757614fe66148de565b5b9250929050565b60008060008060008060008060e0898b03121561500e5761500d614590565b5b600061501c8b828c01614619565b985050602061502d8b828c01614619565b975050604061503e8b828c01614619565b965050606089013567ffffffffffffffff81111561505f5761505e614595565b5b61506b8b828c01614f98565b9550955050608061507e8b828c01614619565b93505060a061508f8b828c01614619565b92505060c06150a08b828c01614619565b9150509295985092959890939650565b7f455243313135353a2061646472657373207a65726f206973206e6f742061207660008201527f616c6964206f776e657200000000000000000000000000000000000000000000602082015250565b600061510c602a8361478b565b9150615117826150b0565b604082019050919050565b6000602082019050818103600083015261513b816150ff565b9050919050565b7f4e487b7100000000000000000000000000000000000000000000000000000000600052601160045260246000fd5b600061517c826145f8565b9150615187836145f8565b925082820390508181111561519f5761519e615142565b5b92915050565b7f4e487b7100000000000000000000000000000000000000000000000000000000600052602260045260246000fd5b600060028204905060018216806151ec57607f821691505b6020821081036151ff576151fe6151a5565b5b50919050565b6000615210826145f8565b915061521b836145f8565b9250828202615229816145f8565b915082820484148315176152405761523f615142565b5b5092915050565b7f4e487b7100000000000000000000000000000000000000000000000000000000600052601260045260246000fd5b6000615281826145f8565b915061528c836145f8565b92508261529c5761529b615247565b5b828204905092915050565b7f455243313135353a2063616c6c6572206973206e6f7420746f6b656e206f776e60008201527f6572206f7220617070726f766564000000000000000000000000000000000000602082015250565b6000615303602e8361478b565b915061530e826152a7565b604082019050919050565b60006020820190508181036000830152615332816152f6565b9050919050565b7f4e544f0000000000000000000000000000000000000000000000000000000000600082015250565b600061536f60038361478b565b915061537a82615339565b602082019050919050565b6000602082019050818103600083015261539e81615362565b9050919050565b7f574e410000000000000000000000000000000000000000000000000000000000600082015250565b60006153db60038361478b565b91506153e6826153a5565b602082019050919050565b6000602082019050818103600083015261540a816153ce565b9050919050565b7f5741450000000000000000000000000000000000000000000000000000000000600082015250565b600061544760038361478b565b915061545282615411565b602082019050919050565b600060208201905081810360008301526154768161543a565b9050919050565b60006040820190506154926000830185614dfc565b61549f602083018461466e565b9392505050565b6000815190506154b581614e26565b92915050565b6000602082840312156154d1576154d0614590565b5b60006154df848285016154a6565b91505092915050565b7f455243313135353a206163636f756e747320616e6420696473206c656e67746860008201527f206d69736d617463680000000000000000000000000000000000000000000000602082015250565b600061554460298361478b565b915061554f826154e8565b604082019050919050565b6000602082019050818103600083015261557381615537565b9050919050565b7f4e487b7100000000000000000000000000000000000000000000000000000000600052603260045260246000fd5b60006155b4826145f8565b91507fffffffffffffffffffffffffffffffffffffffffffffffffffffffffffffffff82036155e6576155e5615142565b5b600182019050919050565b7f504d444e41000000000000000000000000000000000000000000000000000000600082015250565b600061562760058361478b565b9150615632826155f1565b602082019050919050565b600060208201905081810360008301526156568161561a565b9050919050565b6000604082019050615672600083018561466e565b61567f602083018461466e565b9392505050565b6000615691826145f8565b915061569c836145f8565b92508282019050808211156156b4576156b3615142565b5b92915050565b7f4942000000000000000000000000000000000000000000000000000000000000600082015250565b60006156f060028361478b565b91506156fb826156ba565b602082019050919050565b6000602082019050818103600083015261571f816156e3565b9050919050565b7f4951000000000000000000000000000000000000000000000000000000000000600082015250565b600061575c60028361478b565b915061576782615726565b602082019050919050565b6000602082019050818103600083015261578b8161574f565b9050919050565b60006060820190506157a76000830186614dfc565b6157b46020830185614dfc565b6157c1604083018461466e565b949350505050565b7f524e410000000000000000000000000000000000000000000000000000000000600082015250565b60006157ff60038361478b565b915061580a826157c9565b602082019050919050565b6000602082019050818103600083015261582e816157f2565b9050919050565b600060608201905061584a6000830186614dfc565b615857602083018561466e565b615864604083018461466e565b949350505050565b7f4d41444e41000000000000000000000000000000000000000000000000000000600082015250565b60006158a260058361478b565b91506158ad8261586c565b602082019050919050565b600060208201905081810360008301526158d181615895565b9050919050565b7f49594f0000000000000000000000000000000000000000000000000000000000600082015250565b600061590e60038361478b565b9150615919826158d8565b602082019050919050565b6000602082019050818103600083015261593d81615901565b9050919050565b7f4f41460000000000000000000000000000000000000000000000000000000000600082015250565b600061597a60038361478b565b915061598582615944565b602082019050919050565b600060208201905081810360008301526159a98161596d565b9050919050565b7f4d4f4e4600000000000000000000000000000000000000000000000000000000600082015250565b60006159e660048361478b565b91506159f1826159b0565b602082019050919050565b60006020820190508181036000830152615a15816159d9565b9050919050565b7f454d460000000000000000000000000000000000000000000000000000000000600082015250565b6000615a5260038361478b565b9150615a5d82615a1c565b602082019050919050565b60006020820190508181036000830152615a8181615a45565b9050919050565b7f4d41434e41000000000000000000000000000000000000000000000000000000600082015250565b6000615abe60058361478b565b9150615ac982615a88565b602082019050919050565b60006020820190508181036000830152615aed81615ab1565b9050919050565b7f444e410000000000000000000000000000000000000000000000000000000000600082015250565b6000615b2a60038361478b565b9150615b3582615af4565b602082019050919050565b60006020820190508181036000830152615b5981615b1d565b9050919050565b600081519050615b6f81614602565b92915050565b600060208284031215615b8b57615b8a614590565b5b6000615b9984828501615b60565b91505092915050565b7f5746450000000000000000000000000000000000000000000000000000000000600082015250565b6000615bd860038361478b565b9150615be382615ba2565b602082019050919050565b60006020820190508181036000830152615c0781615bcb565b9050919050565b7f4d50514754425100000000000000000000000000000000000000000000000000600082015250565b6000615c4460078361478b565b9150615c4f82615c0e565b602082019050919050565b60006020820190508181036000830152615c7381615c37565b9050919050565b7f4144413744000000000000000000000000000000000000000000000000000000600082015250565b6000615cb060058361478b565b9150615cbb82615c7a565b602082019050919050565b60006020820190508181036000830152615cdf81615ca3565b9050919050565b60008190508160005260206000209050919050565b60006020601f8301049050919050565b600082821b905092915050565b600060088302615d487fffffffffffffffffffffffffffffffffffffffffffffffffffffffffffffffff82615d0b565b615d528683615d0b565b95508019841693508086168417925050509392505050565b6000819050919050565b6000615d8f615d8a615d85846145f8565b615d6a565b6145f8565b9050919050565b6000819050919050565b615da983615d74565b615dbd615db582615d96565b848454615d18565b825550505050565b600090565b615dd2615dc5565b615ddd818484615da0565b505050565b5b81811015615e0157615df6600082615dca565b600181019050615de3565b5050565b601f821115615e4657615e1781615ce6565b615e2084615cfb565b81016020851015615e2f578190505b615e43615e3b85615cfb565b830182615de2565b50505b505050565b600082821c905092915050565b6000615e6960001984600802615e4b565b1980831691505092915050565b6000615e828383615e58565b9150826002028217905092915050565b615e9b82614780565b67ffffffffffffffff811115615eb457615eb3614837565b5b615ebe82546151d4565b615ec9828285615e05565b600060209050601f831160018114615efc5760008415615eea578287015190505b615ef48582615e76565b865550615f5c565b601f198416615f0a86615ce6565b60005b82811015615f3257848901518255600182019150602085019450602081019050615f0d565b86831015615f4f5784890151615f4b601f891682615e58565b8355505b6001600288020188555050505b505050505050565b6000608082019050615f79600083018761466e565b615f86602083018661466e565b615f93604083018561466e565b615fa0606083018461466e565b95945050505050565b7f455243313135353a2069647320616e6420616d6f756e7473206c656e6774682060008201527f6d69736d61746368000000000000000000000000000000000000000000000000602082015250565b600061600560288361478b565b915061601082615fa9565b604082019050919050565b6000602082019050818103600083015261603481615ff8565b9050919050565b7f455243313135353a207472616e7366657220746f20746865207a65726f20616460008201527f6472657373000000000000000000000000000000000000000000000000000000602082015250565b600061609760258361478b565b91506160a28261603b565b604082019050919050565b600060208201905081810360008301526160c68161608a565b9050919050565b7f455243313135353a20696e73756666696369656e742062616c616e636520666f60008201527f72207472616e7366657200000000000000000000000000000000000000000000602082015250565b6000616129602a8361478b565b9150616134826160cd565b604082019050919050565b600060208201905081810360008301526161588161611c565b9050919050565b600060408201905081810360008301526161798185614cd9565b9050818103602083015261618d8184614cd9565b90509392505050565b7f455243313135353a206275726e2066726f6d20746865207a65726f206164647260008201527f6573730000000000000000000000000000000000000000000000000000000000602082015250565b60006161f260238361478b565b91506161fd82616196565b604082019050919050565b60006020820190508181036000830152616221816161e5565b9050919050565b7f455243313135353a206275726e20616d6f756e7420657863656564732062616c60008201527f616e636500000000000000000000000000000000000000000000000000000000602082015250565b600061628460248361478b565b915061628f82616228565b604082019050919050565b600060208201905081810360008301526162b381616277565b9050919050565b7f455243313135353a2073657474696e6720617070726f76616c2073746174757360008201527f20666f722073656c660000000000000000000000000000000000000000000000602082015250565b600061631660298361478b565b9150616321826162ba565b604082019050919050565b6000602082019050818103600083015261634581616309565b9050919050565b7f455243313135353a206d696e7420746f20746865207a65726f2061646472657360008201527f7300000000000000000000000000000000000000000000000000000000000000602082015250565b60006163a860218361478b565b91506163b38261634c565b604082019050919050565b600060208201905081810360008301526163d78161639b565b9050919050565b600081519050919050565b600082825260208201905092915050565b6000616405826163de565b61640f81856163e9565b935061641f81856020860161479c565b616428816147c6565b840191505092915050565b600060a0820190506164486000830188614dfc565b6164556020830187614dfc565b81810360408301526164678186614cd9565b9050818103606083015261647b8185614cd9565b9050818103608083015261648f81846163fa565b90509695505050505050565b6000815190506164aa816146c4565b92915050565b6000602082840312156164c6576164c5614590565b5b60006164d48482850161649b565b91505092915050565b60008160e01c9050919050565b600060033d11156165095760046000803e6165066000516164dd565b90505b90565b600060443d106165995761651e614586565b60043d036004823e80513d602482011167ffffffffffffffff82111715616546575050616599565b808201805167ffffffffffffffff8111156165645750505050616599565b80602083010160043d038501811115616581575050505050616599565b61659082602001850186614866565b82955050505050505b90565b7f455243313135353a207472616e7366657220746f206e6f6e2d4552433131353560008201527f526563656976657220696d706c656d656e746572000000000000000000000000602082015250565b60006165f860348361478b565b91506166038261659c565b604082019050919050565b60006020820190508181036000830152616627816165eb565b9050919050565b7f455243313135353a204552433131353552656365697665722072656a6563746560008201527f6420746f6b656e73000000000000000000000000000000000000000000000000602082015250565b600061668a60288361478b565b91506166958261662e565b604082019050919050565b600060208201905081810360008301526166b98161667d565b9050919050565b600060a0820190506166d56000830188614dfc565b6166e26020830187614dfc565b6166ef604083018661466e565b6166fc606083018561466e565b818103608083015261670e81846163fa565b9050969550505050505056fea26469706673582212206f793767c1879ebefa79278d3013f6a3c77696df9549efe0da2fccd1fdc3cce064736f6c63430008110033",
  "linkReferences": {},
  "deployedLinkReferences": {}
}