{
  "_format": "hh-sol-artifact-1",
  "contractName": "InstallmentBondFactory",
  "sourceName": "contracts/InstallmentBondFactory.sol",
  "abi": [
    {
      "inputs": [
        {
          "internalType": "string",
          "name": "uri",
          "type": "string"
        },
        {
          "internalType": "address",
          "name": "token",
          "type": "address"
        },
        {
          "internalType": "address",
          "name": "deployer",
          "type": "address"
        }
      ],
      "stateMutability": "nonpayable",
      "type": "constructor"
    },
    {
      "anonymous": false,
      "inputs": [
        {
          "indexed": true,
          "internalType": "address",
          "name": "account",
          "type": "address"
        },
        {
          "indexed": true,
          "internalType": "address",
          "name": "operator",
          "type": "address"
        },
        {
          "indexed": false,
          "internalType": "bool",
          "name": "approved",
          "type": "bool"
        }
      ],
      "name": "ApprovalForAll",
      "type": "event"
    },
    {
      "anonymous": false,
      "inputs": [
        {
          "indexed": true,
          "internalType": "uint256",
          "name": "id",
          "type": "uint256"
        },
        {
          "indexed": false,
          "internalType": "uint256",
          "name": "totalDebt",
          "type": "uint256"
        },
        {
          "indexed": false,
          "internalType": "uint256",
          "name": "paidDebt",
          "type": "uint256"
        }
      ],
      "name": "Completed",
      "type": "event"
    },
    {
      "anonymous": false,
      "inputs": [
        {
          "indexed": true,
          "internalType": "uint256",
          "name": "id",
          "type": "uint256"
        },
        {
          "indexed": false,
          "internalType": "uint256",
          "name": "totalDebt",
          "type": "uint256"
        },
        {
          "indexed": false,
          "internalType": "uint256",
          "name": "paidDebt",
          "type": "uint256"
        }
      ],
      "name": "Defaulted",
      "type": "event"
    },
    {
      "anonymous": false,
      "inputs": [
        {
          "indexed": true,
          "internalType": "uint256",
          "name": "id",
          "type": "uint256"
        },
        {
          "indexed": false,
          "internalType": "uint256",
          "name": "bondQuantity",
          "type": "uint256"
        },
        {
          "indexed": false,
          "internalType": "uint256",
          "name": "tokenAmountPerBond",
          "type": "uint256"
        },
        {
          "indexed": false,
          "internalType": "uint256",
          "name": "couponRate",
          "type": "uint256"
        }
      ],
      "name": "Issued",
      "type": "event"
    },
    {
      "anonymous": false,
      "inputs": [
        {
          "indexed": true,
          "internalType": "address",
          "name": "operator",
          "type": "address"
        },
        {
          "indexed": true,
          "internalType": "address",
          "name": "from",
          "type": "address"
        },
        {
          "indexed": true,
          "internalType": "address",
          "name": "to",
          "type": "address"
        },
        {
          "indexed": false,
          "internalType": "uint256[]",
          "name": "ids",
          "type": "uint256[]"
        },
        {
          "indexed": false,
          "internalType": "uint256[]",
          "name": "values",
          "type": "uint256[]"
        }
      ],
      "name": "TransferBatch",
      "type": "event"
    },
    {
      "anonymous": false,
      "inputs": [
        {
          "indexed": true,
          "internalType": "address",
          "name": "operator",
          "type": "address"
        },
        {
          "indexed": true,
          "internalType": "address",
          "name": "from",
          "type": "address"
        },
        {
          "indexed": true,
          "internalType": "address",
          "name": "to",
          "type": "address"
        },
        {
          "indexed": false,
          "internalType": "uint256",
          "name": "id",
          "type": "uint256"
        },
        {
          "indexed": false,
          "internalType": "uint256",
          "name": "value",
          "type": "uint256"
        }
      ],
      "name": "TransferSingle",
      "type": "event"
    },
    {
      "anonymous": false,
      "inputs": [
        {
          "indexed": false,
          "internalType": "string",
          "name": "value",
          "type": "string"
        },
        {
          "indexed": true,
          "internalType": "uint256",
          "name": "id",
          "type": "uint256"
        }
      ],
      "name": "URI",
      "type": "event"
    },
    {
      "inputs": [
        {
          "internalType": "address",
          "name": "account",
          "type": "address"
        },
        {
          "internalType": "uint256",
          "name": "id",
          "type": "uint256"
        }
      ],
      "name": "balanceOf",
      "outputs": [
        {
          "internalType": "uint256",
          "name": "",
          "type": "uint256"
        }
      ],
      "stateMutability": "view",
      "type": "function"
    },
    {
      "inputs": [
        {
          "internalType": "address[]",
          "name": "accounts",
          "type": "address[]"
        },
        {
          "internalType": "uint256[]",
          "name": "ids",
          "type": "uint256[]"
        }
      ],
      "name": "balanceOfBatch",
      "outputs": [
        {
          "internalType": "uint256[]",
          "name": "",
          "type": "uint256[]"
        }
      ],
      "stateMutability": "view",
      "type": "function"
    },
    {
      "inputs": [],
      "name": "baseToken",
      "outputs": [
        {
          "internalType": "address",
          "name": "",
          "type": "address"
        }
      ],
      "stateMutability": "view",
      "type": "function"
    },
    {
      "inputs": [
        {
          "internalType": "uint256",
          "name": "id",
          "type": "uint256"
        }
      ],
      "name": "bondMetadata",
      "outputs": [
        {
          "internalType": "string",
          "name": "",
          "type": "string"
        },
        {
          "internalType": "uint256",
          "name": "",
          "type": "uint256"
        },
        {
          "internalType": "uint256",
          "name": "",
          "type": "uint256"
        },
        {
          "internalType": "uint256",
          "name": "",
          "type": "uint256"
        },
        {
          "internalType": "uint256",
          "name": "",
          "type": "uint256"
        },
        {
          "internalType": "uint256",
          "name": "",
          "type": "uint256"
        },
        {
          "internalType": "uint256",
          "name": "",
          "type": "uint256"
        },
        {
          "internalType": "uint256",
          "name": "",
          "type": "uint256"
        },
        {
          "internalType": "uint256",
          "name": "",
          "type": "uint256"
        },
        {
          "internalType": "uint256",
          "name": "",
          "type": "uint256"
        }
      ],
      "stateMutability": "view",
      "type": "function"
    },
    {
      "inputs": [
        {
          "internalType": "uint256",
          "name": "id",
          "type": "uint256"
        }
      ],
      "name": "couponRate",
      "outputs": [
        {
          "internalType": "uint256",
          "name": "",
          "type": "uint256"
        }
      ],
      "stateMutability": "view",
      "type": "function"
    },
    {
      "inputs": [
        {
          "internalType": "uint256",
          "name": "id",
          "type": "uint256"
        },
        {
          "internalType": "uint256",
          "name": "tokenAmount",
          "type": "uint256"
        }
      ],
      "name": "deposit",
      "outputs": [],
      "stateMutability": "nonpayable",
      "type": "function"
    },
    {
      "inputs": [
        {
          "internalType": "uint256",
          "name": "id",
          "type": "uint256"
        }
      ],
      "name": "designatedTokenPool",
      "outputs": [
        {
          "internalType": "uint256",
          "name": "",
          "type": "uint256"
        }
      ],
      "stateMutability": "view",
      "type": "function"
    },
    {
      "inputs": [
        {
          "internalType": "uint256",
          "name": "id",
          "type": "uint256"
        },
        {
          "internalType": "uint256",
          "name": "tokenAmountPerBond",
          "type": "uint256"
        }
      ],
      "name": "fulfillObligationsAndLock",
      "outputs": [],
      "stateMutability": "nonpayable",
      "type": "function"
    },
    {
      "inputs": [],
      "name": "fundsRaised",
      "outputs": [
        {
          "internalType": "uint256",
          "name": "",
          "type": "uint256"
        }
      ],
      "stateMutability": "view",
      "type": "function"
    },
    {
      "inputs": [
        {
          "internalType": "uint256",
          "name": "id",
          "type": "uint256"
        }
      ],
      "name": "hasReachedMaturity",
      "outputs": [
        {
          "internalType": "bool",
          "name": "",
          "type": "bool"
        }
      ],
      "stateMutability": "view",
      "type": "function"
    },
    {
      "inputs": [
        {
          "internalType": "uint256",
          "name": "id",
          "type": "uint256"
        }
      ],
      "name": "isActive",
      "outputs": [
        {
          "internalType": "bool",
          "name": "",
          "type": "bool"
        }
      ],
      "stateMutability": "view",
      "type": "function"
    },
    {
      "inputs": [
        {
          "internalType": "address",
          "name": "account",
          "type": "address"
        },
        {
          "internalType": "address",
          "name": "operator",
          "type": "address"
        }
      ],
      "name": "isApprovedForAll",
      "outputs": [
        {
          "internalType": "bool",
          "name": "",
          "type": "bool"
        }
      ],
      "stateMutability": "view",
      "type": "function"
    },
    {
      "inputs": [
        {
          "internalType": "uint256",
          "name": "id",
          "type": "uint256"
        }
      ],
      "name": "isCanceled",
      "outputs": [
        {
          "internalType": "bool",
          "name": "",
          "type": "bool"
        }
      ],
      "stateMutability": "view",
      "type": "function"
    },
    {
      "inputs": [
        {
          "internalType": "uint256",
          "name": "id",
          "type": "uint256"
        }
      ],
      "name": "isCompleted",
      "outputs": [
        {
          "internalType": "bool",
          "name": "",
          "type": "bool"
        }
      ],
      "stateMutability": "view",
      "type": "function"
    },
    {
      "inputs": [
        {
          "internalType": "uint256",
          "name": "id",
          "type": "uint256"
        }
      ],
      "name": "isCompletedInTheory",
      "outputs": [
        {
          "internalType": "bool",
          "name": "",
          "type": "bool"
        }
      ],
      "stateMutability": "view",
      "type": "function"
    },
    {
      "inputs": [
        {
          "internalType": "uint256",
          "name": "id",
          "type": "uint256"
        }
      ],
      "name": "isDefaulted",
      "outputs": [
        {
          "internalType": "bool",
          "name": "",
          "type": "bool"
        }
      ],
      "stateMutability": "view",
      "type": "function"
    },
    {
      "inputs": [
        {
          "internalType": "uint256",
          "name": "id",
          "type": "uint256"
        }
      ],
      "name": "isDefaultedInTheory",
      "outputs": [
        {
          "internalType": "bool",
          "name": "",
          "type": "bool"
        }
      ],
      "stateMutability": "view",
      "type": "function"
    },
    {
      "inputs": [
        {
          "internalType": "uint256",
          "name": "id",
          "type": "uint256"
        }
      ],
      "name": "isFulfilled",
      "outputs": [
        {
          "internalType": "bool",
          "name": "",
          "type": "bool"
        }
      ],
      "stateMutability": "view",
      "type": "function"
    },
    {
      "inputs": [
        {
          "internalType": "uint256",
          "name": "id",
          "type": "uint256"
        }
      ],
      "name": "isFullyRedeemed",
      "outputs": [
        {
          "internalType": "bool",
          "name": "",
          "type": "bool"
        }
      ],
      "stateMutability": "view",
      "type": "function"
    },
    {
      "inputs": [
        {
          "internalType": "uint256",
          "name": "bondQuantity",
          "type": "uint256"
        },
        {
          "internalType": "uint256",
          "name": "minPurchasedQuantity",
          "type": "uint256"
        },
        {
          "internalType": "uint256",
          "name": "tokenAmountPerBond",
          "type": "uint256"
        },
        {
          "internalType": "string",
          "name": "ticker",
          "type": "string"
        },
        {
          "internalType": "uint256",
          "name": "yearOption",
          "type": "uint256"
        },
        {
          "internalType": "uint256",
          "name": "activeDurationInDays",
          "type": "uint256"
        },
        {
          "internalType": "uint256",
          "name": "rate",
          "type": "uint256"
        },
        {
          "internalType": "bytes",
          "name": "data",
          "type": "bytes"
        }
      ],
      "name": "issue",
      "outputs": [
        {
          "internalType": "uint256",
          "name": "id",
          "type": "uint256"
        }
      ],
      "stateMutability": "nonpayable",
      "type": "function"
    },
    {
      "inputs": [
        {
          "internalType": "uint256",
          "name": "id",
          "type": "uint256"
        }
      ],
      "name": "lockedTokenAmount",
      "outputs": [
        {
          "internalType": "uint256",
          "name": "",
          "type": "uint256"
        }
      ],
      "stateMutability": "view",
      "type": "function"
    },
    {
      "inputs": [
        {
          "internalType": "uint256",
          "name": "id",
          "type": "uint256"
        }
      ],
      "name": "lockedTokenAmountPerBond",
      "outputs": [
        {
          "internalType": "uint256",
          "name": "",
          "type": "uint256"
        }
      ],
      "stateMutability": "view",
      "type": "function"
    },
    {
      "inputs": [
        {
          "internalType": "uint256",
          "name": "id",
          "type": "uint256"
        }
      ],
      "name": "markAsCompleted",
      "outputs": [],
      "stateMutability": "nonpayable",
      "type": "function"
    },
    {
      "inputs": [
        {
          "internalType": "uint256",
          "name": "id",
          "type": "uint256"
        }
      ],
      "name": "markAsDefaulted",
      "outputs": [],
      "stateMutability": "nonpayable",
      "type": "function"
    },
    {
      "inputs": [
        {
          "internalType": "uint256",
          "name": "id",
          "type": "uint256"
        }
      ],
      "name": "minObligationTokenAmountPerBondList",
      "outputs": [
        {
          "internalType": "uint256[]",
          "name": "",
          "type": "uint256[]"
        }
      ],
      "stateMutability": "view",
      "type": "function"
    },
    {
      "inputs": [
        {
          "internalType": "uint256",
          "name": "id",
          "type": "uint256"
        }
      ],
      "name": "nextObligationDate",
      "outputs": [
        {
          "internalType": "uint256",
          "name": "",
          "type": "uint256"
        }
      ],
      "stateMutability": "view",
      "type": "function"
    },
    {
      "inputs": [
        {
          "internalType": "uint256",
          "name": "id",
          "type": "uint256"
        }
      ],
      "name": "numberOfTimesFulfilled",
      "outputs": [
        {
          "internalType": "uint256",
          "name": "",
          "type": "uint256"
        }
      ],
      "stateMutability": "view",
      "type": "function"
    },
    {
      "inputs": [],
      "name": "owner",
      "outputs": [
        {
          "internalType": "address",
          "name": "",
          "type": "address"
        }
      ],
      "stateMutability": "view",
      "type": "function"
    },
    {
      "inputs": [
        {
          "internalType": "uint256",
          "name": "id",
          "type": "uint256"
        }
      ],
      "name": "poolAmount",
      "outputs": [
        {
          "internalType": "uint256",
          "name": "",
          "type": "uint256"
        }
      ],
      "stateMutability": "view",
      "type": "function"
    },
    {
      "inputs": [
        {
          "internalType": "uint256",
          "name": "id",
          "type": "uint256"
        }
      ],
      "name": "principal",
      "outputs": [
        {
          "internalType": "uint256",
          "name": "",
          "type": "uint256"
        }
      ],
      "stateMutability": "view",
      "type": "function"
    },
    {
      "inputs": [
        {
          "internalType": "uint256",
          "name": "id",
          "type": "uint256"
        }
      ],
      "name": "principalWithInterest",
      "outputs": [
        {
          "internalType": "uint256",
          "name": "",
          "type": "uint256"
        }
      ],
      "stateMutability": "view",
      "type": "function"
    },
    {
      "inputs": [
        {
          "internalType": "uint256",
          "name": "id",
          "type": "uint256"
        },
        {
          "internalType": "uint256",
          "name": "bondQuantity",
          "type": "uint256"
        }
      ],
      "name": "purchase",
      "outputs": [],
      "stateMutability": "nonpayable",
      "type": "function"
    },
    {
      "inputs": [
        {
          "internalType": "uint256",
          "name": "id",
          "type": "uint256"
        },
        {
          "internalType": "uint256",
          "name": "bondQuantity",
          "type": "uint256"
        }
      ],
      "name": "redeem",
      "outputs": [],
      "stateMutability": "nonpayable",
      "type": "function"
    },
    {
      "inputs": [
        {
          "internalType": "uint256",
          "name": "id",
          "type": "uint256"
        },
        {
          "internalType": "uint256",
          "name": "bondQuantity",
          "type": "uint256"
        }
      ],
      "name": "redeemCanceled",
      "outputs": [],
      "stateMutability": "nonpayable",
      "type": "function"
    },
    {
      "inputs": [
        {
          "internalType": "uint256",
          "name": "id",
          "type": "uint256"
        },
        {
          "internalType": "uint256",
          "name": "bondQuantity",
          "type": "uint256"
        }
      ],
      "name": "redeemDefaulted",
      "outputs": [],
      "stateMutability": "nonpayable",
      "type": "function"
    },
    {
      "inputs": [
        {
          "internalType": "uint256",
          "name": "id",
          "type": "uint256"
        }
      ],
      "name": "remainingQuantity",
      "outputs": [
        {
          "internalType": "uint256",
          "name": "",
          "type": "uint256"
        }
      ],
      "stateMutability": "view",
      "type": "function"
    },
    {
      "inputs": [
        {
          "internalType": "uint256",
          "name": "tokenAmountPerBond",
          "type": "uint256"
        },
        {
          "internalType": "uint256",
          "name": "yearOption",
          "type": "uint256"
        }
      ],
      "name": "retrieveMinObligationList",
      "outputs": [
        {
          "internalType": "uint256[]",
          "name": "",
          "type": "uint256[]"
        }
      ],
      "stateMutability": "view",
      "type": "function"
    },
    {
      "inputs": [
        {
          "internalType": "address",
          "name": "from",
          "type": "address"
        },
        {
          "internalType": "address",
          "name": "to",
          "type": "address"
        },
        {
          "internalType": "uint256[]",
          "name": "ids",
          "type": "uint256[]"
        },
        {
          "internalType": "uint256[]",
          "name": "amounts",
          "type": "uint256[]"
        },
        {
          "internalType": "bytes",
          "name": "data",
          "type": "bytes"
        }
      ],
      "name": "safeBatchTransferFrom",
      "outputs": [],
      "stateMutability": "nonpayable",
      "type": "function"
    },
    {
      "inputs": [
        {
          "internalType": "address",
          "name": "from",
          "type": "address"
        },
        {
          "internalType": "address",
          "name": "to",
          "type": "address"
        },
        {
          "internalType": "uint256",
          "name": "id",
          "type": "uint256"
        },
        {
          "internalType": "uint256",
          "name": "amount",
          "type": "uint256"
        },
        {
          "internalType": "bytes",
          "name": "data",
          "type": "bytes"
        }
      ],
      "name": "safeTransferFrom",
      "outputs": [],
      "stateMutability": "nonpayable",
      "type": "function"
    },
    {
      "inputs": [
        {
          "internalType": "address",
          "name": "operator",
          "type": "address"
        },
        {
          "internalType": "bool",
          "name": "approved",
          "type": "bool"
        }
      ],
      "name": "setApprovalForAll",
      "outputs": [],
      "stateMutability": "nonpayable",
      "type": "function"
    },
    {
      "inputs": [
        {
          "internalType": "bytes4",
          "name": "interfaceId",
          "type": "bytes4"
        }
      ],
      "name": "supportsInterface",
      "outputs": [
        {
          "internalType": "bool",
          "name": "",
          "type": "bool"
        }
      ],
      "stateMutability": "view",
      "type": "function"
    },
    {
      "inputs": [
        {
          "internalType": "uint256",
          "name": "id",
          "type": "uint256"
        }
      ],
      "name": "timeElapsed",
      "outputs": [
        {
          "internalType": "uint256",
          "name": "",
          "type": "uint256"
        }
      ],
      "stateMutability": "view",
      "type": "function"
    },
    {
      "inputs": [
        {
          "internalType": "uint256",
          "name": "id",
          "type": "uint256"
        }
      ],
      "name": "timeRemainingToEndOfActive",
      "outputs": [
        {
          "internalType": "uint256",
          "name": "",
          "type": "uint256"
        }
      ],
      "stateMutability": "view",
      "type": "function"
    },
    {
      "inputs": [
        {
          "internalType": "uint256",
          "name": "id",
          "type": "uint256"
        }
      ],
      "name": "timeRemainingToMaturity",
      "outputs": [
        {
          "internalType": "uint256",
          "name": "",
          "type": "uint256"
        }
      ],
      "stateMutability": "view",
      "type": "function"
    },
    {
      "inputs": [],
      "name": "tvl",
      "outputs": [
        {
          "internalType": "uint256",
          "name": "",
          "type": "uint256"
        }
      ],
      "stateMutability": "view",
      "type": "function"
    },
    {
      "inputs": [
        {
          "internalType": "uint256",
          "name": "",
          "type": "uint256"
        }
      ],
      "name": "uri",
      "outputs": [
        {
          "internalType": "string",
          "name": "",
          "type": "string"
        }
      ],
      "stateMutability": "view",
      "type": "function"
    },
    {
      "inputs": [
        {
          "internalType": "uint256",
          "name": "id",
          "type": "uint256"
        },
        {
          "internalType": "uint256",
          "name": "tokenAmount",
          "type": "uint256"
        }
      ],
      "name": "withdraw",
      "outputs": [],
      "stateMutability": "nonpayable",
      "type": "function"
    },
    {
      "inputs": [
        {
          "internalType": "uint256",
          "name": "id",
          "type": "uint256"
        }
      ],
      "name": "withdrawExcess",
      "outputs": [],
      "stateMutability": "nonpayable",
      "type": "function"
    },
    {
      "inputs": [
        {
          "internalType": "uint256",
          "name": "option",
          "type": "uint256"
        }
      ],
      "name": "yearOptionToDays",
      "outputs": [
        {
          "internalType": "uint256",
          "name": "",
          "type": "uint256"
        }
      ],
      "stateMutability": "pure",
      "type": "function"
    },
    {
      "inputs": [
        {
          "internalType": "uint256",
          "name": "option",
          "type": "uint256"
        }
      ],
      "name": "yearOptionToObligationRateList",
      "outputs": [
        {
          "internalType": "uint256[]",
          "name": "",
          "type": "uint256[]"
        }
      ],
      "stateMutability": "view",
      "type": "function"
    }
  ],
  "bytecode": "0x60c060405260006003556040518060a00160405280600560ff168152602001600560ff168152602001600a60ff168152602001600f60ff168152602001600f60ff16815250600d906005620000569291906200027b565b50604051806101200160405280600260ff168152602001600360ff168152602001600560ff168152602001600560ff168152602001600560ff168152602001600a60ff168152602001600a60ff168152602001600f60ff168152602001600f60ff16815250600e906009620000cd929190620002d2565b50604051806102600160405280600260ff168152602001600260ff168152602001600260ff168152602001600460ff168152602001600560ff168152602001600560ff168152602001600560ff168152602001600560ff168152602001600560ff168152602001600560ff168152602001600560ff168152602001600560ff168152602001600560ff168152602001600560ff168152602001600560ff168152602001600560ff168152602001600560ff168152602001600560ff168152602001600a60ff16815250600f906013620001a892919062000329565b50348015620001b657600080fd5b506040516200748c3803806200748c8339818101604052810190620001dc919062000597565b82828282620001f1816200026660201b60201c565b508073ffffffffffffffffffffffffffffffffffffffff1660808173ffffffffffffffffffffffffffffffffffffffff16815250508173ffffffffffffffffffffffffffffffffffffffff1660a08173ffffffffffffffffffffffffffffffffffffffff168152505050505050505062000944565b80600290816200027791906200085d565b5050565b828054828255906000526020600020908101928215620002bf579160200282015b82811115620002be578251829060ff169055916020019190600101906200029c565b5b509050620002ce919062000380565b5090565b82805482825590600052602060002090810192821562000316579160200282015b8281111562000315578251829060ff16905591602001919060010190620002f3565b5b50905062000325919062000380565b5090565b8280548282559060005260206000209081019282156200036d579160200282015b828111156200036c578251829060ff169055916020019190600101906200034a565b5b5090506200037c919062000380565b5090565b5b808211156200039b57600081600090555060010162000381565b5090565b6000604051905090565b600080fd5b600080fd5b600080fd5b600080fd5b6000601f19601f8301169050919050565b7f4e487b7100000000000000000000000000000000000000000000000000000000600052604160045260246000fd5b6200040882620003bd565b810181811067ffffffffffffffff821117156200042a5762000429620003ce565b5b80604052505050565b60006200043f6200039f565b90506200044d8282620003fd565b919050565b600067ffffffffffffffff82111562000470576200046f620003ce565b5b6200047b82620003bd565b9050602081019050919050565b60005b83811015620004a85780820151818401526020810190506200048b565b60008484015250505050565b6000620004cb620004c58462000452565b62000433565b905082815260208101848484011115620004ea57620004e9620003b8565b5b620004f784828562000488565b509392505050565b600082601f830112620005175762000516620003b3565b5b815162000529848260208601620004b4565b91505092915050565b600073ffffffffffffffffffffffffffffffffffffffff82169050919050565b60006200055f8262000532565b9050919050565b620005718162000552565b81146200057d57600080fd5b50565b600081519050620005918162000566565b92915050565b600080600060608486031215620005b357620005b2620003a9565b5b600084015167ffffffffffffffff811115620005d457620005d3620003ae565b5b620005e286828701620004ff565b9350506020620005f58682870162000580565b9250506040620006088682870162000580565b9150509250925092565b600081519050919050565b7f4e487b7100000000000000000000000000000000000000000000000000000000600052602260045260246000fd5b600060028204905060018216806200066557607f821691505b6020821081036200067b576200067a6200061d565b5b50919050565b60008190508160005260206000209050919050565b60006020601f8301049050919050565b600082821b905092915050565b600060088302620006e57fffffffffffffffffffffffffffffffffffffffffffffffffffffffffffffffff82620006a6565b620006f18683620006a6565b95508019841693508086168417925050509392505050565b6000819050919050565b6000819050919050565b60006200073e62000738620007328462000709565b62000713565b62000709565b9050919050565b6000819050919050565b6200075a836200071d565b62000772620007698262000745565b848454620006b3565b825550505050565b600090565b620007896200077a565b620007968184846200074f565b505050565b5b81811015620007be57620007b26000826200077f565b6001810190506200079c565b5050565b601f8211156200080d57620007d78162000681565b620007e28462000696565b81016020851015620007f2578190505b6200080a620008018562000696565b8301826200079b565b50505b505050565b600082821c905092915050565b6000620008326000198460080262000812565b1980831691505092915050565b60006200084d83836200081f565b9150826002028217905092915050565b620008688262000612565b67ffffffffffffffff811115620008845762000883620003ce565b5b6200089082546200064c565b6200089d828285620007c2565b600060209050601f831160018114620008d55760008415620008c0578287015190505b620008cc85826200083f565b8655506200093c565b601f198416620008e58662000681565b60005b828110156200090f57848901518255600182019150602085019450602081019050620008e8565b868310156200092f57848901516200092b601f8916826200081f565b8355505b6001600288020188555050505b505050505050565b60805160a051616ab2620009da600039600081816111f2015281816116a5015281816118bb01528181611d8f01528181612013015281816124a70152818161263c015281816128ed01528181612b1e0152818161301201528181613227015261341c015260008181610f9201528181611b550152818161210101528181612b4601528181612eb801526132c60152616ab26000f3fe608060405234801561001057600080fd5b50600436106102d55760003560e01c80638da5cb5b11610182578063c36177fc116100e9578063e52270e0116100a2578063e88580901161007c578063e885809014610a4b578063e985e9c514610a7b578063f0d8100a14610aab578063f242432a14610adb576102d5565b8063e52270e0146109e1578063e5328e0614610a11578063e755ddd714610a2f576102d5565b8063c36177fc146108e7578063c372fb9114610917578063c55dae6314610947578063c7bc573014610965578063d3b7811b14610995578063e2bbb158146109c5576102d5565b8063a996ef081161013b578063a996ef0814610817578063abac75e114610833578063af73e2c914610863578063b09f2b1c1461087f578063be5ba4901461089b578063c0a6026c146108cb576102d5565b80638da5cb5b146107315780638f0dbf771461074f578063932a8de01461077f578063a22cb465146107af578063a8743022146107cb578063a9385a5c146107e7576102d5565b806339e3af9b1161024157806370876c98116101fa5780637cbc2373116101d45780637cbc23731461067c57806382afd23b1461069857806388bdc083146106c85780638c3526c2146106f8576102d5565b806370876c981461060057806377e2a08b1461061c5780637a41984b1461064c576102d5565b806339e3af9b14610506578063441a3e70146105365780634e1273f414610552578063549493bb146105825780636681b9fd146105b25780636ff80d93146105d0576102d5565b806314f294931161029357806314f29493146103fa5780631add02711461042a578063239f60da1461045a5780632eb2c2d61461048a5780632f3ad61f146104a65780633097afb8146104d6576102d5565b8062fdd58e146102da57806301ffc9a71461030a578063021594971461033a57806308913ce81461036a578063091490201461039a5780630e89341c146103ca575b600080fd5b6102f460048036038101906102ef919061473b565b610af7565b604051610301919061478a565b60405180910390f35b610324600480360381019061031f91906147fd565b610bbf565b6040516103319190614845565b60405180910390f35b610354600480360381019061034f9190614860565b610ca1565b604051610361919061478a565b60405180910390f35b610384600480360381019061037f9190614860565b610cbe565b604051610391919061478a565b60405180910390f35b6103b460048036038101906103af9190614860565b610ce9565b6040516103c19190614845565b60405180910390f35b6103e460048036038101906103df9190614860565b610d1f565b6040516103f1919061491d565b60405180910390f35b610414600480360381019061040f9190614860565b610db3565b604051610421919061478a565b60405180910390f35b610444600480360381019061043f9190614860565b610df1565b604051610451919061478a565b60405180910390f35b610474600480360381019061046f9190614860565b610e4a565b604051610481919061478a565b60405180910390f35b6104a4600480360381019061049f9190614b3c565b610e67565b005b6104c060048036038101906104bb9190614860565b610f08565b6040516104cd9190614845565b60405180910390f35b6104f060048036038101906104eb9190614860565b610f32565b6040516104fd9190614845565b60405180910390f35b610520600480360381019061051b9190614860565b610f6b565b60405161052d9190614845565b60405180910390f35b610550600480360381019061054b9190614c0b565b610f90565b005b61056c60048036038101906105679190614d0e565b611293565b6040516105799190614e44565b60405180910390f35b61059c60048036038101906105979190614860565b6113ac565b6040516105a99190614845565b60405180910390f35b6105ba6113de565b6040516105c7919061478a565b60405180910390f35b6105ea60048036038101906105e59190614860565b6113e8565b6040516105f79190614845565b60405180910390f35b61061a60048036038101906106159190614c0b565b611480565b005b61063660048036038101906106319190614860565b61174a565b604051610643919061478a565b60405180910390f35b61066660048036038101906106619190614860565b6117a3565b6040516106739190614845565b60405180910390f35b61069660048036038101906106919190614c0b565b6117cd565b005b6106b260048036038101906106ad9190614860565b611987565b6040516106bf9190614845565b60405180910390f35b6106e260048036038101906106dd9190614860565b6119aa565b6040516106ef919061478a565b60405180910390f35b610712600480360381019061070d9190614860565b6119dd565b6040516107289a99989796959493929190614e66565b60405180910390f35b610739611b51565b6040516107469190614f18565b60405180910390f35b61076960048036038101906107649190614860565b611b79565b6040516107769190614845565b60405180910390f35b61079960048036038101906107949190614860565b611b9b565b6040516107a6919061478a565b60405180910390f35b6107c960048036038101906107c49190614f5f565b611bd9565b005b6107e560048036038101906107e09190614860565b611bef565b005b61080160048036038101906107fc9190614860565b611e6e565b60405161080e919061478a565b60405180910390f35b610831600480360381019061082c9190614c0b565b611f25565b005b61084d60048036038101906108489190614860565b6120df565b60405161085a919061478a565b60405180910390f35b61087d60048036038101906108789190614c0b565b6120ff565b005b61089960048036038101906108949190614c0b565b61254b565b005b6108b560048036038101906108b09190614860565b612708565b6040516108c29190614e44565b60405180910390f35b6108e560048036038101906108e09190614860565b612773565b005b61090160048036038101906108fc9190614c0b565b6129cc565b60405161090e9190614e44565b60405180910390f35b610931600480360381019061092c9190614860565b612afd565b60405161093e919061478a565b60405180910390f35b61094f612b1a565b60405161095c9190614f18565b60405180910390f35b61097f600480360381019061097a9190614ffa565b612b42565b60405161098c919061478a565b60405180910390f35b6109af60048036038101906109aa9190614860565b612e83565b6040516109bc919061478a565b60405180910390f35b6109df60048036038101906109da9190614c0b565b612eb6565b005b6109fb60048036038101906109f69190614860565b6130b5565b604051610a089190614e44565b60405180910390f35b610a19613223565b604051610a26919061478a565b60405180910390f35b610a496004803603810190610a449190614860565b6132c4565b005b610a656004803603810190610a609190614860565b6134cf565b604051610a72919061478a565b60405180910390f35b610a956004803603810190610a9091906150ec565b6134ec565b604051610aa29190614845565b60405180910390f35b610ac56004803603810190610ac09190614860565b613580565b604051610ad2919061478a565b60405180910390f35b610af56004803603810190610af0919061512c565b61359d565b005b60008073ffffffffffffffffffffffffffffffffffffffff168373ffffffffffffffffffffffffffffffffffffffff1603610b67576040517f08c379a0000000000000000000000000000000000000000000000000000000008152600401610b5e90615235565b60405180910390fd5b60008083815260200190815260200160002060008473ffffffffffffffffffffffffffffffffffffffff1673ffffffffffffffffffffffffffffffffffffffff16815260200190815260200160002054905092915050565b60007fd9b67a26000000000000000000000000000000000000000000000000000000007bffffffffffffffffffffffffffffffffffffffffffffffffffffffff1916827bffffffffffffffffffffffffffffffffffffffffffffffffffffffff19161480610c8a57507f0e89341c000000000000000000000000000000000000000000000000000000007bffffffffffffffffffffffffffffffffffffffffffffffffffffffff1916827bffffffffffffffffffffffffffffffffffffffffffffffffffffffff1916145b80610c9a5750610c998261363e565b5b9050919050565b600060086000838152602001908152602001600020549050919050565b6000600560008381526020019081526020016000206002015442610ce29190615284565b9050919050565b60006005600083815260200190815260200160002060080154600660008481526020019081526020016000205410159050919050565b606060028054610d2e906152e7565b80601f0160208091040260200160405190810160405280929190818152602001828054610d5a906152e7565b8015610da75780601f10610d7c57610100808354040283529160200191610da7565b820191906000526020600020905b815481529060010190602001808311610d8a57829003601f168201915b50505050509050919050565b600060066000838152602001908152602001600020546005600084815260200190815260200160002060010154610dea9190615318565b9050919050565b6000670de0b6b3a76400006005600084815260200190815260200160002060070154670de0b6b3a7640000610e25856134cf565b610e2f9190615318565b610e399190615389565b610e439190615389565b9050919050565b600060136000838152602001908152602001600020549050919050565b610e6f6136a8565b73ffffffffffffffffffffffffffffffffffffffff168573ffffffffffffffffffffffffffffffffffffffff161480610eb55750610eb485610eaf6136a8565b6134ec565b5b610ef4576040517f08c379a0000000000000000000000000000000000000000000000000000000008152600401610eeb9061542c565b60405180910390fd5b610f0185858585856136b0565b5050505050565b6000600b600083815260200190815260200160002060009054906101000a900460ff169050919050565b6000610f3d82611b79565b8015610f645750610f4d8261174a565b600860008481526020019081526020016000205410155b9050919050565b6000610f7682611987565b158015610f895750610f8782610ce9565b155b9050919050565b7f000000000000000000000000000000000000000000000000000000000000000073ffffffffffffffffffffffffffffffffffffffff163373ffffffffffffffffffffffffffffffffffffffff161461101e576040517f08c379a000000000000000000000000000000000000000000000000000000000815260040161101590615498565b60405180910390fd5b61102782611987565b15611067576040517f08c379a000000000000000000000000000000000000000000000000000000000815260040161105e90615504565b60405180910390fd5b61107082610f6b565b156110b0576040517f08c379a00000000000000000000000000000000000000000000000000000000081526004016110a790615504565b60405180910390fd5b6110b9826117a3565b156110f9576040517f08c379a00000000000000000000000000000000000000000000000000000000081526004016110f090615596565b60405180910390fd5b61110282610f08565b806111125750611111826113e8565b5b15611152576040517f08c379a000000000000000000000000000000000000000000000000000000000815260040161114990615628565b60405180910390fd5b601260008381526020019081526020016000205460086000848152602001908152602001600020546111849190615284565b8111156111c6576040517f08c379a00000000000000000000000000000000000000000000000000000000081526004016111bd906156ba565b60405180910390fd5b806008600084815260200190815260200160002060008282546111e99190615284565b925050819055507f000000000000000000000000000000000000000000000000000000000000000073ffffffffffffffffffffffffffffffffffffffff1663a9059cbb33836040518363ffffffff1660e01b815260040161124b9291906156da565b6020604051808303816000875af115801561126a573d6000803e3d6000fd5b505050506040513d601f19601f8201168201806040525081019061128e9190615718565b505050565b606081518351146112d9576040517f08c379a00000000000000000000000000000000000000000000000000000000081526004016112d0906157b7565b60405180910390fd5b6000835167ffffffffffffffff8111156112f6576112f5614944565b5b6040519080825280602002602001820160405280156113245781602001602082028036833780820191505090505b50905060005b84518110156113a157611371858281518110611349576113486157d7565b5b6020026020010151858381518110611364576113636157d7565b5b6020026020010151610af7565b828281518110611384576113836157d7565b5b6020026020010181815250508061139a90615806565b905061132a565b508091505092915050565b600060066000838152602001908152602001600020546007600084815260200190815260200160002054149050919050565b6000600454905090565b6000806113f483611b79565b801561141a57506114048361174a565b6008600085815260200190815260200160002054105b9050600061142784611b79565b15801561146c57506201518060b460016013600088815260200190815260200160002054611455919061584e565b61145f9190615318565b6114699190615318565b42115b905081806114775750805b92505050919050565b61148982611987565b6114c8576040517f08c379a00000000000000000000000000000000000000000000000000000000081526004016114bf906158ce565b60405180910390fd5b806114d283611b9b565b1015611513576040517f08c379a000000000000000000000000000000000000000000000000000000000815260040161150a90615960565b60405180910390fd5b60006005600084815260200190815260200160002060405180610140016040529081600082018054611544906152e7565b80601f0160208091040260200160405190810160405280929190818152602001828054611570906152e7565b80156115bd5780601f10611592576101008083540402835291602001916115bd565b820191906000526020600020905b8154815290600101906020018083116115a057829003601f168201915b505050505081526020016001820154815260200160028201548152602001600382015481526020016004820154815260200160058201548152602001600682015481526020016007820154815260200160088201548152602001600982015481525050905060008160200151836116349190615318565b905082600660008681526020019081526020016000206000828254611659919061584e565b9250508190555080600860008681526020019081526020016000206000828254611683919061584e565b92505081905550806004600082825461169c919061584e565b925050819055507f000000000000000000000000000000000000000000000000000000000000000073ffffffffffffffffffffffffffffffffffffffff166323b872dd3330846040518463ffffffff1660e01b815260040161170093929190615980565b6020604051808303816000875af115801561171f573d6000803e3d6000fd5b505050506040513d601f19601f820116820180604052508101906117439190615718565b5050505050565b6000670de0b6b3a7640000600560008481526020019081526020016000206009015461177584610db3565b61177f9190615318565b6117899190615389565b61179283610db3565b61179c919061584e565b9050919050565b6000600c600083815260200190815260200160002060009054906101000a900460ff169050919050565b6117d6826117a3565b611815576040517f08c379a000000000000000000000000000000000000000000000000000000000815260040161180c90615a03565b60405180910390fd5b806118203384610af7565b1015611861576040517f08c379a000000000000000000000000000000000000000000000000000000000815260040161185890615a6f565b60405180910390fd5b61186c3383836139d1565b8060076000848152602001908152602001600020600082825461188f919061584e565b925050819055506000600a600084815260200190815260200160002054826118b79190615318565b90507f000000000000000000000000000000000000000000000000000000000000000073ffffffffffffffffffffffffffffffffffffffff1663a9059cbb33836040518363ffffffff1660e01b81526004016119149291906156da565b6020604051808303816000875af1158015611933573d6000803e3d6000fd5b505050506040513d601f19601f820116820180604052508101906119579190615718565b508060086000858152602001908152602001600020600082825461197b9190615284565b92505081905550505050565b600060056000838152602001908152602001600020600401544211159050919050565b60006119b582610cbe565b60056000848152602001908152602001600020600501546119d69190615284565b9050919050565b6060600080600080600080600080600080600560008d815260200190815260200160002060405180610140016040529081600082018054611a1d906152e7565b80601f0160208091040260200160405190810160405280929190818152602001828054611a49906152e7565b8015611a965780601f10611a6b57610100808354040283529160200191611a96565b820191906000526020600020905b815481529060010190602001808311611a7957829003601f168201915b5050505050815260200160018201548152602001600282015481526020016003820154815260200160048201548152602001600582015481526020016006820154815260200160078201548152602001600882015481526020016009820154815250509050806000015181602001518260400151836060015184608001518560a001518660c001518760e001518861010001518961012001519a509a509a509a509a509a509a509a509a509a50509193959799509193959799565b60007f0000000000000000000000000000000000000000000000000000000000000000905090565b6000600560008381526020019081526020016000206003015442119050919050565b600060066000838152602001908152602001600020546005600084815260200190815260200160002060070154611bd29190615284565b9050919050565b611beb611be46136a8565b8383613c17565b5050565b611bf8816117a3565b158015611c0b5750611c0981610f08565b155b8015611c1c5750611c1b816113e8565b5b611c5b576040517f08c379a0000000000000000000000000000000000000000000000000000000008152600401611c5290615adb565b60405180910390fd5b6000611c668261174a565b905060006103e86008600085815260200190815260200160002054611c8b9190615389565b90506000816008600086815260200190815260200160002054611cae9190615284565b9050600660008581526020019081526020016000205481611ccf9190615389565b6009600086815260200190815260200160002081905550600060066000868152602001908152602001600020546009600087815260200190815260200160002054611d1a9190615318565b82611d259190615284565b905060008184611d35919061584e565b905080600860008881526020019081526020016000206000828254611d5a9190615284565b925050819055506001600b600088815260200190815260200160002060006101000a81548160ff0219169083151502179055507f000000000000000000000000000000000000000000000000000000000000000073ffffffffffffffffffffffffffffffffffffffff1663a9059cbb33836040518363ffffffff1660e01b8152600401611de89291906156da565b6020604051808303816000875af1158015611e07573d6000803e3d6000fd5b505050506040513d601f19601f82011682018060405250810190611e2b9190615718565b50857fc4f17a65d54873d57229ea5f59c4ddec592d095bc17581372676402c8228b9cd8685604051611e5e929190615afb565b60405180910390a2505050505050565b60008160008110158015611e83575060028111155b611ec2576040517f08c379a0000000000000000000000000000000000000000000000000000000008152600401611eb990615b70565b60405180910390fd5b600060b46002611ed29190615318565b905060008403611ef157806003611ee99190615318565b925050611f1f565b60018403611f0e57806005611f069190615318565b925050611f1f565b80600a611f1b9190615318565b9250505b50919050565b611f2e82610f08565b611f6d576040517f08c379a0000000000000000000000000000000000000000000000000000000008152600401611f6490615adb565b60405180910390fd5b80611f783384610af7565b1015611fb9576040517f08c379a0000000000000000000000000000000000000000000000000000000008152600401611fb090615a6f565b60405180910390fd5b611fc43383836139d1565b80600760008481526020019081526020016000206000828254611fe7919061584e565b92505081905550600060096000848152602001908152602001600020548261200f9190615318565b90507f000000000000000000000000000000000000000000000000000000000000000073ffffffffffffffffffffffffffffffffffffffff1663a9059cbb33836040518363ffffffff1660e01b815260040161206c9291906156da565b6020604051808303816000875af115801561208b573d6000803e3d6000fd5b505050506040513d601f19601f820116820180604052508101906120af9190615718565b50806008600085815260200190815260200160002060008282546120d39190615284565b92505081905550505050565b600060056000838152602001908152602001600020600901549050919050565b7f000000000000000000000000000000000000000000000000000000000000000073ffffffffffffffffffffffffffffffffffffffff163373ffffffffffffffffffffffffffffffffffffffff161461218d576040517f08c379a000000000000000000000000000000000000000000000000000000000815260040161218490615498565b60405180910390fd5b61219682610f08565b806121a657506121a5826113e8565b5b156121e6576040517f08c379a00000000000000000000000000000000000000000000000000000000081526004016121dd90615628565b60405180910390fd5b600560008381526020019081526020016000206006015460b46001601360008681526020019081526020016000205461221f919061584e565b6122299190615318565b03612269576040517f08c379a000000000000000000000000000000000000000000000000000000000815260040161226090615bdc565b60405180910390fd5b601160008381526020019081526020016000206013600084815260200190815260200160002054815481106122a1576122a06157d7565b5b90600052602060002001548110156122ee576040517f08c379a00000000000000000000000000000000000000000000000000000000081526004016122e590615c48565b60405180910390fd5b66b1a2bc2ec500006011600084815260200190815260200160002060136000858152602001908152602001600020548154811061232e5761232d6157d7565b5b9060005260206000200154670de0b6b3a76400006011600086815260200190815260200160002060136000878152602001908152602001600020548154811061237a576123796157d7565b5b9060005260206000200154846123909190615284565b61239a9190615318565b6123a49190615389565b11156123e5576040517f08c379a00000000000000000000000000000000000000000000000000000000081526004016123dc90615cda565b60405180910390fd5b60006005600084815260200190815260200160002060070154826124099190615318565b90508060126000858152602001908152602001600020600082825461242e919061584e565b925050819055506201518060b46124459190615318565b6010600085815260200190815260200160002054612463919061584e565b6010600085815260200190815260200160002081905550600160136000858152602001908152602001600020600082825461249e919061584e565b925050819055507f000000000000000000000000000000000000000000000000000000000000000073ffffffffffffffffffffffffffffffffffffffff166323b872dd3330846040518463ffffffff1660e01b815260040161250293929190615980565b6020604051808303816000875af1158015612521573d6000803e3d6000fd5b505050506040513d601f19601f820116820180604052508101906125459190615718565b50505050565b61255482610f6b565b612593576040517f08c379a000000000000000000000000000000000000000000000000000000000815260040161258a90615d46565b60405180910390fd5b8061259e3384610af7565b10156125df576040517f08c379a00000000000000000000000000000000000000000000000000000000081526004016125d690615a6f565b60405180910390fd5b6125ea3383836139d1565b8060076000848152602001908152602001600020600082825461260d919061584e565b9250508190555060006005600084815260200190815260200160002060010154826126389190615318565b90507f000000000000000000000000000000000000000000000000000000000000000073ffffffffffffffffffffffffffffffffffffffff1663a9059cbb33836040518363ffffffff1660e01b81526004016126959291906156da565b6020604051808303816000875af11580156126b4573d6000803e3d6000fd5b505050506040513d601f19601f820116820180604052508101906126d89190615718565b50806008600085815260200190815260200160002060008282546126fc9190615284565b92505081905550505050565b60606011600083815260200190815260200160002080548060200260200160405190810160405280929190818152602001828054801561276757602002820191906000526020600020905b815481526020019060010190808311612753575b50505050509050919050565b61277c81610f08565b15801561278f575061278d816117a3565b155b80156127a0575061279f81610f32565b5b6127df576040517f08c379a00000000000000000000000000000000000000000000000000000000081526004016127d690615db2565b60405180910390fd5b60006127ea8261174a565b905060006103e8826127fc9190615389565b90506000818361280c9190615284565b905060066000858152602001908152602001600020548161282d9190615389565b600a60008681526020019081526020016000208190555060006006600086815260200190815260200160002054600a6000878152602001908152602001600020546128789190615318565b826128839190615284565b905060008184612893919061584e565b9050806008600088815260200190815260200160002060008282546128b89190615284565b925050819055506001600c600088815260200190815260200160002060006101000a81548160ff0219169083151502179055507f000000000000000000000000000000000000000000000000000000000000000073ffffffffffffffffffffffffffffffffffffffff1663a9059cbb33836040518363ffffffff1660e01b81526004016129469291906156da565b6020604051808303816000875af1158015612965573d6000803e3d6000fd5b505050506040513d601f19601f820116820180604052508101906129899190615718565b50857fac2eeaf45d1b75aed6b3285cda3efb3c382cce02ba313558bbb90be57f8843e486856040516129bc929190615afb565b60405180910390a2505050505050565b606081600081101580156129e1575060028111155b612a20576040517f08c379a0000000000000000000000000000000000000000000000000000000008152600401612a1790615b70565b60405180910390fd5b6000612a2b846130b5565b905060008151905060008167ffffffffffffffff811115612a4f57612a4e614944565b5b604051908082528060200260200182016040528015612a7d5781602001602082028036833780820191505090505b50905060005b82811015612aef576064848281518110612aa057612a9f6157d7565b5b602002602001015189612ab39190615318565b612abd9190615389565b828281518110612ad057612acf6157d7565b5b6020026020010181815250508080612ae790615806565b915050612a83565b508094505050505092915050565b600060106000838152602001908152602001600020549050919050565b60007f0000000000000000000000000000000000000000000000000000000000000000905090565b60007f000000000000000000000000000000000000000000000000000000000000000073ffffffffffffffffffffffffffffffffffffffff163373ffffffffffffffffffffffffffffffffffffffff1614612bd2576040517f08c379a0000000000000000000000000000000000000000000000000000000008152600401612bc990615498565b60405180910390fd5b8460008110158015612be5575060028111155b612c24576040517f08c379a0000000000000000000000000000000000000000000000000000000008152600401612c1b90615b70565b60405180910390fd5b60b48510612c67576040517f08c379a0000000000000000000000000000000000000000000000000000000008152600401612c5e90615e44565b60405180910390fd5b6000612c7287611e6e565b90506001600354612c83919061584e565b9250612c9133848e87613d83565b6040518061014001604052808a8a8080601f016020809104026020016040519081016040528093929190818152602001838380828437600081840152601f19601f8201169050808301925050505050505081526020018b81526020014281526020016201518083612d029190615318565b42612d0d919061584e565b81526020016201518088612d219190615318565b42612d2c919061584e565b81526020018781526020018281526020018d81526020018c815260200186815250600560008581526020019081526020016000206000820151816000019081612d759190616010565b506020820151816001015560408201518160020155606082015181600301556080820151816004015560a0820151816005015560c0820151816006015560e08201518160070155610100820151816008015561012082015181600901559050506201518060b4612de59190615318565b42612df0919061584e565b6010600085815260200190815260200160002081905550612e118a886129cc565b601160008581526020019081526020016000209080519060200190612e37929190614629565b50827f3e5b89bff97cb92eafe4cd460ef4aa43d6feef1428595fe038182876515968fd8d8c88604051612e6c939291906160e2565b60405180910390a250509998505050505050505050565b6000612e8e82610cbe565b6005600084815260200190815260200160002060060154612eaf9190615284565b9050919050565b7f000000000000000000000000000000000000000000000000000000000000000073ffffffffffffffffffffffffffffffffffffffff163373ffffffffffffffffffffffffffffffffffffffff1614612f44576040517f08c379a0000000000000000000000000000000000000000000000000000000008152600401612f3b90615498565b60405180910390fd5b612f4d82610f08565b80612f5d5750612f5c826113e8565b5b15612f9d576040517f08c379a0000000000000000000000000000000000000000000000000000000008152600401612f9490616165565b60405180910390fd5b612fa6826117a3565b15612fe6576040517f08c379a0000000000000000000000000000000000000000000000000000000008152600401612fdd906161d1565b60405180910390fd5b80600860008481526020019081526020016000206000828254613009919061584e565b925050819055507f000000000000000000000000000000000000000000000000000000000000000073ffffffffffffffffffffffffffffffffffffffff166323b872dd3330846040518463ffffffff1660e01b815260040161306d93929190615980565b6020604051808303816000875af115801561308c573d6000803e3d6000fd5b505050506040513d601f19601f820116820180604052508101906130b09190615718565b505050565b606081600081101580156130ca575060028111155b613109576040517f08c379a000000000000000000000000000000000000000000000000000000000815260040161310090615b70565b60405180910390fd5b6000830361316957600d80548060200260200160405190810160405280929190818152602001828054801561315d57602002820191906000526020600020905b815481526020019060010190808311613149575b5050505050915061321d565b600183036131c957600e8054806020026020016040519081016040528092919081815260200182805480156131bd57602002820191906000526020600020905b8154815260200190600101908083116131a9575b5050505050915061321d565b600f80548060200260200160405190810160405280929190818152602001828054801561321557602002820191906000526020600020905b815481526020019060010190808311613201575b505050505091505b50919050565b60007f000000000000000000000000000000000000000000000000000000000000000073ffffffffffffffffffffffffffffffffffffffff166370a08231306040518263ffffffff1660e01b815260040161327e9190614f18565b602060405180830381865afa15801561329b573d6000803e3d6000fd5b505050506040513d601f19601f820116820180604052508101906132bf9190616206565b905090565b7f000000000000000000000000000000000000000000000000000000000000000073ffffffffffffffffffffffffffffffffffffffff163373ffffffffffffffffffffffffffffffffffffffff1614613352576040517f08c379a000000000000000000000000000000000000000000000000000000000815260040161334990615498565b60405180910390fd5b61335b816117a3565b801561336c575061336b816113ac565b5b6133ab576040517f08c379a00000000000000000000000000000000000000000000000000000000081526004016133a29061627f565b60405180910390fd5b6000600860008381526020019081526020016000205411613401576040517f08c379a00000000000000000000000000000000000000000000000000000000081526004016133f8906162eb565b60405180910390fd5b600060086000838152602001908152602001600020819055507f000000000000000000000000000000000000000000000000000000000000000073ffffffffffffffffffffffffffffffffffffffff1663a9059cbb3360086000858152602001908152602001600020546040518363ffffffff1660e01b81526004016134889291906156da565b6020604051808303816000875af11580156134a7573d6000803e3d6000fd5b505050506040513d601f19601f820116820180604052508101906134cb9190615718565b5050565b600060126000838152602001908152602001600020549050919050565b6000600160008473ffffffffffffffffffffffffffffffffffffffff1673ffffffffffffffffffffffffffffffffffffffff16815260200190815260200160002060008373ffffffffffffffffffffffffffffffffffffffff1673ffffffffffffffffffffffffffffffffffffffff16815260200190815260200160002060009054906101000a900460ff16905092915050565b600060086000838152602001908152602001600020549050919050565b6135a56136a8565b73ffffffffffffffffffffffffffffffffffffffff168573ffffffffffffffffffffffffffffffffffffffff1614806135eb57506135ea856135e56136a8565b6134ec565b5b61362a576040517f08c379a00000000000000000000000000000000000000000000000000000000081526004016136219061542c565b60405180910390fd5b6136378585858585613f33565b5050505050565b60007f01ffc9a7000000000000000000000000000000000000000000000000000000007bffffffffffffffffffffffffffffffffffffffffffffffffffffffff1916827bffffffffffffffffffffffffffffffffffffffffffffffffffffffff1916149050919050565b600033905090565b81518351146136f4576040517f08c379a00000000000000000000000000000000000000000000000000000000081526004016136eb9061637d565b60405180910390fd5b600073ffffffffffffffffffffffffffffffffffffffff168473ffffffffffffffffffffffffffffffffffffffff1603613763576040517f08c379a000000000000000000000000000000000000000000000000000000000815260040161375a9061640f565b60405180910390fd5b600061376d6136a8565b905061377d8187878787876141ce565b60005b845181101561392e57600085828151811061379e5761379d6157d7565b5b6020026020010151905060008583815181106137bd576137bc6157d7565b5b60200260200101519050600080600084815260200190815260200160002060008b73ffffffffffffffffffffffffffffffffffffffff1673ffffffffffffffffffffffffffffffffffffffff1681526020019081526020016000205490508181101561385e576040517f08c379a0000000000000000000000000000000000000000000000000000000008152600401613855906164a1565b60405180910390fd5b81810360008085815260200190815260200160002060008c73ffffffffffffffffffffffffffffffffffffffff1673ffffffffffffffffffffffffffffffffffffffff168152602001908152602001600020819055508160008085815260200190815260200160002060008b73ffffffffffffffffffffffffffffffffffffffff1673ffffffffffffffffffffffffffffffffffffffff1681526020019081526020016000206000828254613913919061584e565b925050819055505050508061392790615806565b9050613780565b508473ffffffffffffffffffffffffffffffffffffffff168673ffffffffffffffffffffffffffffffffffffffff168273ffffffffffffffffffffffffffffffffffffffff167f4a39dc06d4c0dbc64b70af90fd698a233a518aa5d07e595d983b8c0526c8f7fb87876040516139a59291906164c1565b60405180910390a46139bb8187878787876141d6565b6139c98187878787876141de565b505050505050565b600073ffffffffffffffffffffffffffffffffffffffff168373ffffffffffffffffffffffffffffffffffffffff1603613a40576040517f08c379a0000000000000000000000000000000000000000000000000000000008152600401613a379061656a565b60405180910390fd5b6000613a4a6136a8565b90506000613a57846143b5565b90506000613a64846143b5565b9050613a84838760008585604051806020016040528060008152506141ce565b600080600087815260200190815260200160002060008873ffffffffffffffffffffffffffffffffffffffff1673ffffffffffffffffffffffffffffffffffffffff16815260200190815260200160002054905084811015613b1b576040517f08c379a0000000000000000000000000000000000000000000000000000000008152600401613b12906165fc565b60405180910390fd5b84810360008088815260200190815260200160002060008973ffffffffffffffffffffffffffffffffffffffff1673ffffffffffffffffffffffffffffffffffffffff16815260200190815260200160002081905550600073ffffffffffffffffffffffffffffffffffffffff168773ffffffffffffffffffffffffffffffffffffffff168573ffffffffffffffffffffffffffffffffffffffff167fc3d58168c5ae7397731d063d5bbf3d657854427343f4c083240f7aacaa2d0f628989604051613be8929190615afb565b60405180910390a4613c0e848860008686604051806020016040528060008152506141d6565b50505050505050565b8173ffffffffffffffffffffffffffffffffffffffff168373ffffffffffffffffffffffffffffffffffffffff1603613c85576040517f08c379a0000000000000000000000000000000000000000000000000000000008152600401613c7c9061668e565b60405180910390fd5b80600160008573ffffffffffffffffffffffffffffffffffffffff1673ffffffffffffffffffffffffffffffffffffffff16815260200190815260200160002060008473ffffffffffffffffffffffffffffffffffffffff1673ffffffffffffffffffffffffffffffffffffffff16815260200190815260200160002060006101000a81548160ff0219169083151502179055508173ffffffffffffffffffffffffffffffffffffffff168373ffffffffffffffffffffffffffffffffffffffff167f17307eab39ab6107e8899845ad3d59bd9653f200f220920489ca2b5937696c3183604051613d769190614845565b60405180910390a3505050565b600073ffffffffffffffffffffffffffffffffffffffff168473ffffffffffffffffffffffffffffffffffffffff1603613df2576040517f08c379a0000000000000000000000000000000000000000000000000000000008152600401613de990616720565b60405180910390fd5b6000613dfc6136a8565b90506000613e09856143b5565b90506000613e16856143b5565b9050613e27836000898585896141ce565b8460008088815260200190815260200160002060008973ffffffffffffffffffffffffffffffffffffffff1673ffffffffffffffffffffffffffffffffffffffff1681526020019081526020016000206000828254613e86919061584e565b925050819055508673ffffffffffffffffffffffffffffffffffffffff16600073ffffffffffffffffffffffffffffffffffffffff168473ffffffffffffffffffffffffffffffffffffffff167fc3d58168c5ae7397731d063d5bbf3d657854427343f4c083240f7aacaa2d0f628989604051613f04929190615afb565b60405180910390a4613f1b836000898585896141d6565b613f2a8360008989898961442f565b50505050505050565b600073ffffffffffffffffffffffffffffffffffffffff168473ffffffffffffffffffffffffffffffffffffffff1603613fa2576040517f08c379a0000000000000000000000000000000000000000000000000000000008152600401613f999061640f565b60405180910390fd5b6000613fac6136a8565b90506000613fb9856143b5565b90506000613fc6856143b5565b9050613fd68389898585896141ce565b600080600088815260200190815260200160002060008a73ffffffffffffffffffffffffffffffffffffffff1673ffffffffffffffffffffffffffffffffffffffff1681526020019081526020016000205490508581101561406d576040517f08c379a0000000000000000000000000000000000000000000000000000000008152600401614064906164a1565b60405180910390fd5b85810360008089815260200190815260200160002060008b73ffffffffffffffffffffffffffffffffffffffff1673ffffffffffffffffffffffffffffffffffffffff168152602001908152602001600020819055508560008089815260200190815260200160002060008a73ffffffffffffffffffffffffffffffffffffffff1673ffffffffffffffffffffffffffffffffffffffff1681526020019081526020016000206000828254614122919061584e565b925050819055508773ffffffffffffffffffffffffffffffffffffffff168973ffffffffffffffffffffffffffffffffffffffff168573ffffffffffffffffffffffffffffffffffffffff167fc3d58168c5ae7397731d063d5bbf3d657854427343f4c083240f7aacaa2d0f628a8a60405161419f929190615afb565b60405180910390a46141b5848a8a86868a6141d6565b6141c3848a8a8a8a8a61442f565b505050505050505050565b505050505050565b505050505050565b6141fd8473ffffffffffffffffffffffffffffffffffffffff16614606565b156143ad578373ffffffffffffffffffffffffffffffffffffffff1663bc197c8187878686866040518663ffffffff1660e01b8152600401614243959493929190616795565b6020604051808303816000875af192505050801561427f57506040513d601f19601f8201168201806040525081019061427c9190616812565b60015b6143245761428b61684c565b806308c379a0036142e7575061429f61686e565b806142aa57506142e9565b806040517f08c379a00000000000000000000000000000000000000000000000000000000081526004016142de919061491d565b60405180910390fd5b505b6040517f08c379a000000000000000000000000000000000000000000000000000000000815260040161431b90616970565b60405180910390fd5b63bc197c8160e01b7bffffffffffffffffffffffffffffffffffffffffffffffffffffffff1916817bffffffffffffffffffffffffffffffffffffffffffffffffffffffff1916146143ab576040517f08c379a00000000000000000000000000000000000000000000000000000000081526004016143a290616a02565b60405180910390fd5b505b505050505050565b60606000600167ffffffffffffffff8111156143d4576143d3614944565b5b6040519080825280602002602001820160405280156144025781602001602082028036833780820191505090505b509050828160008151811061441a576144196157d7565b5b60200260200101818152505080915050919050565b61444e8473ffffffffffffffffffffffffffffffffffffffff16614606565b156145fe578373ffffffffffffffffffffffffffffffffffffffff1663f23a6e6187878686866040518663ffffffff1660e01b8152600401614494959493929190616a22565b6020604051808303816000875af19250505080156144d057506040513d601f19601f820116820180604052508101906144cd9190616812565b60015b614575576144dc61684c565b806308c379a00361453857506144f061686e565b806144fb575061453a565b806040517f08c379a000000000000000000000000000000000000000000000000000000000815260040161452f919061491d565b60405180910390fd5b505b6040517f08c379a000000000000000000000000000000000000000000000000000000000815260040161456c90616970565b60405180910390fd5b63f23a6e6160e01b7bffffffffffffffffffffffffffffffffffffffffffffffffffffffff1916817bffffffffffffffffffffffffffffffffffffffffffffffffffffffff1916146145fc576040517f08c379a00000000000000000000000000000000000000000000000000000000081526004016145f390616a02565b60405180910390fd5b505b505050505050565b6000808273ffffffffffffffffffffffffffffffffffffffff163b119050919050565b828054828255906000526020600020908101928215614665579160200282015b82811115614664578251825591602001919060010190614649565b5b5090506146729190614676565b5090565b5b8082111561468f576000816000905550600101614677565b5090565b6000604051905090565b600080fd5b600080fd5b600073ffffffffffffffffffffffffffffffffffffffff82169050919050565b60006146d2826146a7565b9050919050565b6146e2816146c7565b81146146ed57600080fd5b50565b6000813590506146ff816146d9565b92915050565b6000819050919050565b61471881614705565b811461472357600080fd5b50565b6000813590506147358161470f565b92915050565b600080604083850312156147525761475161469d565b5b6000614760858286016146f0565b925050602061477185828601614726565b9150509250929050565b61478481614705565b82525050565b600060208201905061479f600083018461477b565b92915050565b60007fffffffff0000000000000000000000000000000000000000000000000000000082169050919050565b6147da816147a5565b81146147e557600080fd5b50565b6000813590506147f7816147d1565b92915050565b6000602082840312156148135761481261469d565b5b6000614821848285016147e8565b91505092915050565b60008115159050919050565b61483f8161482a565b82525050565b600060208201905061485a6000830184614836565b92915050565b6000602082840312156148765761487561469d565b5b600061488484828501614726565b91505092915050565b600081519050919050565b600082825260208201905092915050565b60005b838110156148c75780820151818401526020810190506148ac565b60008484015250505050565b6000601f19601f8301169050919050565b60006148ef8261488d565b6148f98185614898565b93506149098185602086016148a9565b614912816148d3565b840191505092915050565b6000602082019050818103600083015261493781846148e4565b905092915050565b600080fd5b7f4e487b7100000000000000000000000000000000000000000000000000000000600052604160045260246000fd5b61497c826148d3565b810181811067ffffffffffffffff8211171561499b5761499a614944565b5b80604052505050565b60006149ae614693565b90506149ba8282614973565b919050565b600067ffffffffffffffff8211156149da576149d9614944565b5b602082029050602081019050919050565b600080fd5b6000614a036149fe846149bf565b6149a4565b90508083825260208201905060208402830185811115614a2657614a256149eb565b5b835b81811015614a4f5780614a3b8882614726565b845260208401935050602081019050614a28565b5050509392505050565b600082601f830112614a6e57614a6d61493f565b5b8135614a7e8482602086016149f0565b91505092915050565b600080fd5b600067ffffffffffffffff821115614aa757614aa6614944565b5b614ab0826148d3565b9050602081019050919050565b82818337600083830152505050565b6000614adf614ada84614a8c565b6149a4565b905082815260208101848484011115614afb57614afa614a87565b5b614b06848285614abd565b509392505050565b600082601f830112614b2357614b2261493f565b5b8135614b33848260208601614acc565b91505092915050565b600080600080600060a08688031215614b5857614b5761469d565b5b6000614b66888289016146f0565b9550506020614b77888289016146f0565b945050604086013567ffffffffffffffff811115614b9857614b976146a2565b5b614ba488828901614a59565b935050606086013567ffffffffffffffff811115614bc557614bc46146a2565b5b614bd188828901614a59565b925050608086013567ffffffffffffffff811115614bf257614bf16146a2565b5b614bfe88828901614b0e565b9150509295509295909350565b60008060408385031215614c2257614c2161469d565b5b6000614c3085828601614726565b9250506020614c4185828601614726565b9150509250929050565b600067ffffffffffffffff821115614c6657614c65614944565b5b602082029050602081019050919050565b6000614c8a614c8584614c4b565b6149a4565b90508083825260208201905060208402830185811115614cad57614cac6149eb565b5b835b81811015614cd65780614cc288826146f0565b845260208401935050602081019050614caf565b5050509392505050565b600082601f830112614cf557614cf461493f565b5b8135614d05848260208601614c77565b91505092915050565b60008060408385031215614d2557614d2461469d565b5b600083013567ffffffffffffffff811115614d4357614d426146a2565b5b614d4f85828601614ce0565b925050602083013567ffffffffffffffff811115614d7057614d6f6146a2565b5b614d7c85828601614a59565b9150509250929050565b600081519050919050565b600082825260208201905092915050565b6000819050602082019050919050565b614dbb81614705565b82525050565b6000614dcd8383614db2565b60208301905092915050565b6000602082019050919050565b6000614df182614d86565b614dfb8185614d91565b9350614e0683614da2565b8060005b83811015614e37578151614e1e8882614dc1565b9750614e2983614dd9565b925050600181019050614e0a565b5085935050505092915050565b60006020820190508181036000830152614e5e8184614de6565b905092915050565b6000610140820190508181036000830152614e81818d6148e4565b9050614e90602083018c61477b565b614e9d604083018b61477b565b614eaa606083018a61477b565b614eb7608083018961477b565b614ec460a083018861477b565b614ed160c083018761477b565b614ede60e083018661477b565b614eec61010083018561477b565b614efa61012083018461477b565b9b9a5050505050505050505050565b614f12816146c7565b82525050565b6000602082019050614f2d6000830184614f09565b92915050565b614f3c8161482a565b8114614f4757600080fd5b50565b600081359050614f5981614f33565b92915050565b60008060408385031215614f7657614f7561469d565b5b6000614f84858286016146f0565b9250506020614f9585828601614f4a565b9150509250929050565b600080fd5b60008083601f840112614fba57614fb961493f565b5b8235905067ffffffffffffffff811115614fd757614fd6614f9f565b5b602083019150836001820283011115614ff357614ff26149eb565b5b9250929050565b60008060008060008060008060006101008a8c03121561501d5761501c61469d565b5b600061502b8c828d01614726565b995050602061503c8c828d01614726565b985050604061504d8c828d01614726565b97505060608a013567ffffffffffffffff81111561506e5761506d6146a2565b5b61507a8c828d01614fa4565b9650965050608061508d8c828d01614726565b94505060a061509e8c828d01614726565b93505060c06150af8c828d01614726565b92505060e08a013567ffffffffffffffff8111156150d0576150cf6146a2565b5b6150dc8c828d01614b0e565b9150509295985092959850929598565b600080604083850312156151035761510261469d565b5b6000615111858286016146f0565b9250506020615122858286016146f0565b9150509250929050565b600080600080600060a086880312156151485761514761469d565b5b6000615156888289016146f0565b9550506020615167888289016146f0565b945050604061517888828901614726565b935050606061518988828901614726565b925050608086013567ffffffffffffffff8111156151aa576151a96146a2565b5b6151b688828901614b0e565b9150509295509295909350565b7f455243313135353a2061646472657373207a65726f206973206e6f742061207660008201527f616c6964206f776e657200000000000000000000000000000000000000000000602082015250565b600061521f602a83614898565b915061522a826151c3565b604082019050919050565b6000602082019050818103600083015261524e81615212565b9050919050565b7f4e487b7100000000000000000000000000000000000000000000000000000000600052601160045260246000fd5b600061528f82614705565b915061529a83614705565b92508282039050818111156152b2576152b1615255565b5b92915050565b7f4e487b7100000000000000000000000000000000000000000000000000000000600052602260045260246000fd5b600060028204905060018216806152ff57607f821691505b602082108103615312576153116152b8565b5b50919050565b600061532382614705565b915061532e83614705565b925082820261533c81614705565b9150828204841483151761535357615352615255565b5b5092915050565b7f4e487b7100000000000000000000000000000000000000000000000000000000600052601260045260246000fd5b600061539482614705565b915061539f83614705565b9250826153af576153ae61535a565b5b828204905092915050565b7f455243313135353a2063616c6c6572206973206e6f7420746f6b656e206f776e60008201527f6572206f7220617070726f766564000000000000000000000000000000000000602082015250565b6000615416602e83614898565b9150615421826153ba565b604082019050919050565b6000602082019050818103600083015261544581615409565b9050919050565b7f43616c6c6572206973206e6f7420746865206f776e6572000000000000000000600082015250565b6000615482601783614898565b915061548d8261544c565b602082019050919050565b600060208201905081810360008301526154b181615475565b9050919050565b7f5769746864726177206e6f7420616c6c6f776564207768656e20616374697665600082015250565b60006154ee602083614898565b91506154f9826154b8565b602082019050919050565b6000602082019050818103600083015261551d816154e1565b9050919050565b7f5769746864726177206e6f7420616c6c6f77656420616674657220636f6d706c60008201527f6574696f6e000000000000000000000000000000000000000000000000000000602082015250565b6000615580602583614898565b915061558b82615524565b604082019050919050565b600060208201905081810360008301526155af81615573565b9050919050565b7f5769746864726177206e6f7420616c6c6f776564207768656e2064656661756c60008201527f7465640000000000000000000000000000000000000000000000000000000000602082015250565b6000615612602383614898565b915061561d826155b6565b604082019050919050565b6000602082019050818103600083015261564181615605565b9050919050565b7f5769746864726177616c20746f6b656e20616d6f756e7420657863656564732060008201527f746f6b656e20616d6f756e7420696e20636f6e74726163740000000000000000602082015250565b60006156a4603883614898565b91506156af82615648565b604082019050919050565b600060208201905081810360008301526156d381615697565b9050919050565b60006040820190506156ef6000830185614f09565b6156fc602083018461477b565b9392505050565b60008151905061571281614f33565b92915050565b60006020828403121561572e5761572d61469d565b5b600061573c84828501615703565b91505092915050565b7f455243313135353a206163636f756e747320616e6420696473206c656e67746860008201527f206d69736d617463680000000000000000000000000000000000000000000000602082015250565b60006157a1602983614898565b91506157ac82615745565b604082019050919050565b600060208201905081810360008301526157d081615794565b9050919050565b7f4e487b7100000000000000000000000000000000000000000000000000000000600052603260045260246000fd5b600061581182614705565b91507fffffffffffffffffffffffffffffffffffffffffffffffffffffffffffffffff820361584357615842615255565b5b600182019050919050565b600061585982614705565b915061586483614705565b925082820190508082111561587c5761587b615255565b5b92915050565b7f426f6e6420697320696e61637469766500000000000000000000000000000000600082015250565b60006158b8601083614898565b91506158c382615882565b602082019050919050565b600060208201905081810360008301526158e7816158ab565b9050919050565b7f496e73756666696369656e7420626f6e64207175616e746974792072656d616960008201527f6e696e6700000000000000000000000000000000000000000000000000000000602082015250565b600061594a602483614898565b9150615955826158ee565b604082019050919050565b600060208201905081810360008301526159798161593d565b9050919050565b60006060820190506159956000830186614f09565b6159a26020830185614f09565b6159af604083018461477b565b949350505050565b7f426f6e64206973206e6f7420636f6d706c657465640000000000000000000000600082015250565b60006159ed601583614898565b91506159f8826159b7565b602082019050919050565b60006020820190508181036000830152615a1c816159e0565b9050919050565b7f496e73756666696369656e7420626f6e64207175616e74697479000000000000600082015250565b6000615a59601a83614898565b9150615a6482615a23565b602082019050919050565b60006020820190508181036000830152615a8881615a4c565b9050919050565b7f426f6e64206973206e6f742064656661756c7465640000000000000000000000600082015250565b6000615ac5601583614898565b9150615ad082615a8f565b602082019050919050565b60006020820190508181036000830152615af481615ab8565b9050919050565b6000604082019050615b10600083018561477b565b615b1d602083018461477b565b9392505050565b7f59656172206f7074696f6e206f7574206f662072616e67650000000000000000600082015250565b6000615b5a601883614898565b9150615b6582615b24565b602082019050919050565b60006020820190508181036000830152615b8981615b4d565b9050919050565b7f416c6c206f626c69676174696f6e732066756c66696c6c656400000000000000600082015250565b6000615bc6601983614898565b9150615bd182615b90565b602082019050919050565b60006020820190508181036000830152615bf581615bb9565b9050919050565b7f4d696e696d756d206f626c69676174696f6e206e6f742066756c66696c6c6564600082015250565b6000615c32602083614898565b9150615c3d82615bfc565b602082019050919050565b60006020820190508181036000830152615c6181615c25565b9050919050565b7f46756c66696c6c6d656e742073686f756c64206e6f742065786365656420352560008201527f2061626f7665206f626c69676174696f6e000000000000000000000000000000602082015250565b6000615cc4603183614898565b9150615ccf82615c68565b604082019050919050565b60006020820190508181036000830152615cf381615cb7565b9050919050565b7f426f6e64206973206e6f742063616e63656c6564000000000000000000000000600082015250565b6000615d30601483614898565b9150615d3b82615cfa565b602082019050919050565b60006020820190508181036000830152615d5f81615d23565b9050919050565b7f426f6e6420697320616c726561647920636f6d706c6574656400000000000000600082015250565b6000615d9c601983614898565b9150615da782615d66565b602082019050919050565b60006020820190508181036000830152615dcb81615d8f565b9050919050565b7f416374697665206475726174696f6e2073686f756c642062652073686f72746560008201527f72207468616e2031383020646179730000000000000000000000000000000000602082015250565b6000615e2e602f83614898565b9150615e3982615dd2565b604082019050919050565b60006020820190508181036000830152615e5d81615e21565b9050919050565b60008190508160005260206000209050919050565b60006020601f8301049050919050565b600082821b905092915050565b600060088302615ec67fffffffffffffffffffffffffffffffffffffffffffffffffffffffffffffffff82615e89565b615ed08683615e89565b95508019841693508086168417925050509392505050565b6000819050919050565b6000615f0d615f08615f0384614705565b615ee8565b614705565b9050919050565b6000819050919050565b615f2783615ef2565b615f3b615f3382615f14565b848454615e96565b825550505050565b600090565b615f50615f43565b615f5b818484615f1e565b505050565b5b81811015615f7f57615f74600082615f48565b600181019050615f61565b5050565b601f821115615fc457615f9581615e64565b615f9e84615e79565b81016020851015615fad578190505b615fc1615fb985615e79565b830182615f60565b50505b505050565b600082821c905092915050565b6000615fe760001984600802615fc9565b1980831691505092915050565b60006160008383615fd6565b9150826002028217905092915050565b6160198261488d565b67ffffffffffffffff81111561603257616031614944565b5b61603c82546152e7565b616047828285615f83565b600060209050601f83116001811461607a5760008415616068578287015190505b6160728582615ff4565b8655506160da565b601f19841661608886615e64565b60005b828110156160b05784890151825560018201915060208501945060208101905061608b565b868310156160cd57848901516160c9601f891682615fd6565b8355505b6001600288020188555050505b505050505050565b60006060820190506160f7600083018661477b565b616104602083018561477b565b616111604083018461477b565b949350505050565b7f626f6e642069732064656661756c746564000000000000000000000000000000600082015250565b600061614f601183614898565b915061615a82616119565b602082019050919050565b6000602082019050818103600083015261617e81616142565b9050919050565b7f626f6e6420697320636f6d706c65746564000000000000000000000000000000600082015250565b60006161bb601183614898565b91506161c682616185565b602082019050919050565b600060208201905081810360008301526161ea816161ae565b9050919050565b6000815190506162008161470f565b92915050565b60006020828403121561621c5761621b61469d565b5b600061622a848285016161f1565b91505092915050565b7f43616e6e6f742077697468647261772065786365737300000000000000000000600082015250565b6000616269601683614898565b915061627482616233565b602082019050919050565b600060208201905081810360008301526162988161625c565b9050919050565b7f43616e6e6f742077697468647261772066726f6d20656d70747920706f6f6c00600082015250565b60006162d5601f83614898565b91506162e08261629f565b602082019050919050565b60006020820190508181036000830152616304816162c8565b9050919050565b7f455243313135353a2069647320616e6420616d6f756e7473206c656e6774682060008201527f6d69736d61746368000000000000000000000000000000000000000000000000602082015250565b6000616367602883614898565b91506163728261630b565b604082019050919050565b600060208201905081810360008301526163968161635a565b9050919050565b7f455243313135353a207472616e7366657220746f20746865207a65726f20616460008201527f6472657373000000000000000000000000000000000000000000000000000000602082015250565b60006163f9602583614898565b91506164048261639d565b604082019050919050565b60006020820190508181036000830152616428816163ec565b9050919050565b7f455243313135353a20696e73756666696369656e742062616c616e636520666f60008201527f72207472616e7366657200000000000000000000000000000000000000000000602082015250565b600061648b602a83614898565b91506164968261642f565b604082019050919050565b600060208201905081810360008301526164ba8161647e565b9050919050565b600060408201905081810360008301526164db8185614de6565b905081810360208301526164ef8184614de6565b90509392505050565b7f455243313135353a206275726e2066726f6d20746865207a65726f206164647260008201527f6573730000000000000000000000000000000000000000000000000000000000602082015250565b6000616554602383614898565b915061655f826164f8565b604082019050919050565b6000602082019050818103600083015261658381616547565b9050919050565b7f455243313135353a206275726e20616d6f756e7420657863656564732062616c60008201527f616e636500000000000000000000000000000000000000000000000000000000602082015250565b60006165e6602483614898565b91506165f18261658a565b604082019050919050565b60006020820190508181036000830152616615816165d9565b9050919050565b7f455243313135353a2073657474696e6720617070726f76616c2073746174757360008201527f20666f722073656c660000000000000000000000000000000000000000000000602082015250565b6000616678602983614898565b91506166838261661c565b604082019050919050565b600060208201905081810360008301526166a78161666b565b9050919050565b7f455243313135353a206d696e7420746f20746865207a65726f2061646472657360008201527f7300000000000000000000000000000000000000000000000000000000000000602082015250565b600061670a602183614898565b9150616715826166ae565b604082019050919050565b60006020820190508181036000830152616739816166fd565b9050919050565b600081519050919050565b600082825260208201905092915050565b600061676782616740565b616771818561674b565b93506167818185602086016148a9565b61678a816148d3565b840191505092915050565b600060a0820190506167aa6000830188614f09565b6167b76020830187614f09565b81810360408301526167c98186614de6565b905081810360608301526167dd8185614de6565b905081810360808301526167f1818461675c565b90509695505050505050565b60008151905061680c816147d1565b92915050565b6000602082840312156168285761682761469d565b5b6000616836848285016167fd565b91505092915050565b60008160e01c9050919050565b600060033d111561686b5760046000803e61686860005161683f565b90505b90565b600060443d106168fb57616880614693565b60043d036004823e80513d602482011167ffffffffffffffff821117156168a85750506168fb565b808201805167ffffffffffffffff8111156168c657505050506168fb565b80602083010160043d0385018111156168e35750505050506168fb565b6168f282602001850186614973565b82955050505050505b90565b7f455243313135353a207472616e7366657220746f206e6f6e2d4552433131353560008201527f526563656976657220696d706c656d656e746572000000000000000000000000602082015250565b600061695a603483614898565b9150616965826168fe565b604082019050919050565b600060208201905081810360008301526169898161694d565b9050919050565b7f455243313135353a204552433131353552656365697665722072656a6563746560008201527f6420746f6b656e73000000000000000000000000000000000000000000000000602082015250565b60006169ec602883614898565b91506169f782616990565b604082019050919050565b60006020820190508181036000830152616a1b816169df565b9050919050565b600060a082019050616a376000830188614f09565b616a446020830187614f09565b616a51604083018661477b565b616a5e606083018561477b565b8181036080830152616a70818461675c565b9050969550505050505056fea2646970667358221220d44b25a9106db235e846cf3f40959454e3a56d85ce85edec9f6e2ba60aea7f1564736f6c63430008110033",
  "linkReferences": {},
  "deployedLinkReferences": {}
}