{
  "_format": "hh-sol-artifact-1",
  "contractName": "InstallmentBondFactory",
  "sourceName": "contracts/InstallmentBondFactory.sol",
  "abi": [
    {
      "inputs": [
        {
          "internalType": "string",
          "name": "uri",
          "type": "string"
        },
        {
          "internalType": "address",
          "name": "token",
          "type": "address"
        }
      ],
      "stateMutability": "nonpayable",
      "type": "constructor"
    },
    {
      "anonymous": false,
      "inputs": [
        {
          "indexed": true,
          "internalType": "address",
          "name": "account",
          "type": "address"
        },
        {
          "indexed": true,
          "internalType": "address",
          "name": "operator",
          "type": "address"
        },
        {
          "indexed": false,
          "internalType": "bool",
          "name": "approved",
          "type": "bool"
        }
      ],
      "name": "ApprovalForAll",
      "type": "event"
    },
    {
      "anonymous": false,
      "inputs": [
        {
          "indexed": true,
          "internalType": "uint256",
          "name": "id",
          "type": "uint256"
        },
        {
          "indexed": false,
          "internalType": "uint256",
          "name": "totalDebt",
          "type": "uint256"
        },
        {
          "indexed": false,
          "internalType": "uint256",
          "name": "paidDebt",
          "type": "uint256"
        }
      ],
      "name": "Completed",
      "type": "event"
    },
    {
      "anonymous": false,
      "inputs": [
        {
          "indexed": true,
          "internalType": "uint256",
          "name": "id",
          "type": "uint256"
        },
        {
          "indexed": false,
          "internalType": "uint256",
          "name": "totalDebt",
          "type": "uint256"
        },
        {
          "indexed": false,
          "internalType": "uint256",
          "name": "paidDebt",
          "type": "uint256"
        }
      ],
      "name": "Defaulted",
      "type": "event"
    },
    {
      "anonymous": false,
      "inputs": [
        {
          "indexed": true,
          "internalType": "uint256",
          "name": "id",
          "type": "uint256"
        },
        {
          "indexed": false,
          "internalType": "uint256",
          "name": "bondQuantity",
          "type": "uint256"
        },
        {
          "indexed": false,
          "internalType": "uint256",
          "name": "tokenAmountPerBond",
          "type": "uint256"
        },
        {
          "indexed": false,
          "internalType": "uint256",
          "name": "couponRate",
          "type": "uint256"
        }
      ],
      "name": "Issued",
      "type": "event"
    },
    {
      "anonymous": false,
      "inputs": [
        {
          "indexed": true,
          "internalType": "address",
          "name": "operator",
          "type": "address"
        },
        {
          "indexed": true,
          "internalType": "address",
          "name": "from",
          "type": "address"
        },
        {
          "indexed": true,
          "internalType": "address",
          "name": "to",
          "type": "address"
        },
        {
          "indexed": false,
          "internalType": "uint256[]",
          "name": "ids",
          "type": "uint256[]"
        },
        {
          "indexed": false,
          "internalType": "uint256[]",
          "name": "values",
          "type": "uint256[]"
        }
      ],
      "name": "TransferBatch",
      "type": "event"
    },
    {
      "anonymous": false,
      "inputs": [
        {
          "indexed": true,
          "internalType": "address",
          "name": "operator",
          "type": "address"
        },
        {
          "indexed": true,
          "internalType": "address",
          "name": "from",
          "type": "address"
        },
        {
          "indexed": true,
          "internalType": "address",
          "name": "to",
          "type": "address"
        },
        {
          "indexed": false,
          "internalType": "uint256",
          "name": "id",
          "type": "uint256"
        },
        {
          "indexed": false,
          "internalType": "uint256",
          "name": "value",
          "type": "uint256"
        }
      ],
      "name": "TransferSingle",
      "type": "event"
    },
    {
      "anonymous": false,
      "inputs": [
        {
          "indexed": false,
          "internalType": "string",
          "name": "value",
          "type": "string"
        },
        {
          "indexed": true,
          "internalType": "uint256",
          "name": "id",
          "type": "uint256"
        }
      ],
      "name": "URI",
      "type": "event"
    },
    {
      "inputs": [
        {
          "internalType": "address",
          "name": "account",
          "type": "address"
        },
        {
          "internalType": "uint256",
          "name": "id",
          "type": "uint256"
        }
      ],
      "name": "balanceOf",
      "outputs": [
        {
          "internalType": "uint256",
          "name": "",
          "type": "uint256"
        }
      ],
      "stateMutability": "view",
      "type": "function"
    },
    {
      "inputs": [
        {
          "internalType": "address[]",
          "name": "accounts",
          "type": "address[]"
        },
        {
          "internalType": "uint256[]",
          "name": "ids",
          "type": "uint256[]"
        }
      ],
      "name": "balanceOfBatch",
      "outputs": [
        {
          "internalType": "uint256[]",
          "name": "",
          "type": "uint256[]"
        }
      ],
      "stateMutability": "view",
      "type": "function"
    },
    {
      "inputs": [
        {
          "internalType": "uint256",
          "name": "id",
          "type": "uint256"
        }
      ],
      "name": "bondmetaData",
      "outputs": [
        {
          "internalType": "string",
          "name": "",
          "type": "string"
        },
        {
          "internalType": "uint256",
          "name": "",
          "type": "uint256"
        },
        {
          "internalType": "uint256",
          "name": "",
          "type": "uint256"
        },
        {
          "internalType": "uint256",
          "name": "",
          "type": "uint256"
        },
        {
          "internalType": "uint256",
          "name": "",
          "type": "uint256"
        },
        {
          "internalType": "uint256",
          "name": "",
          "type": "uint256"
        },
        {
          "internalType": "uint256",
          "name": "",
          "type": "uint256"
        },
        {
          "internalType": "uint256",
          "name": "",
          "type": "uint256"
        },
        {
          "internalType": "uint256",
          "name": "",
          "type": "uint256"
        },
        {
          "internalType": "uint256",
          "name": "",
          "type": "uint256"
        }
      ],
      "stateMutability": "view",
      "type": "function"
    },
    {
      "inputs": [
        {
          "internalType": "uint256",
          "name": "id",
          "type": "uint256"
        }
      ],
      "name": "couponRate",
      "outputs": [
        {
          "internalType": "uint256",
          "name": "",
          "type": "uint256"
        }
      ],
      "stateMutability": "view",
      "type": "function"
    },
    {
      "inputs": [
        {
          "internalType": "uint256",
          "name": "id",
          "type": "uint256"
        },
        {
          "internalType": "uint256",
          "name": "tokenAmount",
          "type": "uint256"
        }
      ],
      "name": "deposit",
      "outputs": [],
      "stateMutability": "nonpayable",
      "type": "function"
    },
    {
      "inputs": [
        {
          "internalType": "uint256",
          "name": "id",
          "type": "uint256"
        },
        {
          "internalType": "uint256",
          "name": "tokenAmountPerBond",
          "type": "uint256"
        }
      ],
      "name": "fulfillObligationsAndLock",
      "outputs": [],
      "stateMutability": "nonpayable",
      "type": "function"
    },
    {
      "inputs": [
        {
          "internalType": "uint256",
          "name": "id",
          "type": "uint256"
        }
      ],
      "name": "hasReachedMaturity",
      "outputs": [
        {
          "internalType": "bool",
          "name": "",
          "type": "bool"
        }
      ],
      "stateMutability": "view",
      "type": "function"
    },
    {
      "inputs": [
        {
          "internalType": "uint256",
          "name": "id",
          "type": "uint256"
        }
      ],
      "name": "isActive",
      "outputs": [
        {
          "internalType": "bool",
          "name": "",
          "type": "bool"
        }
      ],
      "stateMutability": "view",
      "type": "function"
    },
    {
      "inputs": [
        {
          "internalType": "address",
          "name": "account",
          "type": "address"
        },
        {
          "internalType": "address",
          "name": "operator",
          "type": "address"
        }
      ],
      "name": "isApprovedForAll",
      "outputs": [
        {
          "internalType": "bool",
          "name": "",
          "type": "bool"
        }
      ],
      "stateMutability": "view",
      "type": "function"
    },
    {
      "inputs": [
        {
          "internalType": "uint256",
          "name": "id",
          "type": "uint256"
        }
      ],
      "name": "isCanceled",
      "outputs": [
        {
          "internalType": "bool",
          "name": "",
          "type": "bool"
        }
      ],
      "stateMutability": "view",
      "type": "function"
    },
    {
      "inputs": [
        {
          "internalType": "uint256",
          "name": "id",
          "type": "uint256"
        }
      ],
      "name": "isCompleted",
      "outputs": [
        {
          "internalType": "bool",
          "name": "",
          "type": "bool"
        }
      ],
      "stateMutability": "view",
      "type": "function"
    },
    {
      "inputs": [
        {
          "internalType": "uint256",
          "name": "id",
          "type": "uint256"
        }
      ],
      "name": "isCompletedInTheory",
      "outputs": [
        {
          "internalType": "bool",
          "name": "",
          "type": "bool"
        }
      ],
      "stateMutability": "view",
      "type": "function"
    },
    {
      "inputs": [
        {
          "internalType": "uint256",
          "name": "id",
          "type": "uint256"
        }
      ],
      "name": "isDefaulted",
      "outputs": [
        {
          "internalType": "bool",
          "name": "",
          "type": "bool"
        }
      ],
      "stateMutability": "view",
      "type": "function"
    },
    {
      "inputs": [
        {
          "internalType": "uint256",
          "name": "id",
          "type": "uint256"
        }
      ],
      "name": "isDefaultedInTheory",
      "outputs": [
        {
          "internalType": "bool",
          "name": "",
          "type": "bool"
        }
      ],
      "stateMutability": "view",
      "type": "function"
    },
    {
      "inputs": [
        {
          "internalType": "uint256",
          "name": "id",
          "type": "uint256"
        }
      ],
      "name": "isFulfilled",
      "outputs": [
        {
          "internalType": "bool",
          "name": "",
          "type": "bool"
        }
      ],
      "stateMutability": "view",
      "type": "function"
    },
    {
      "inputs": [
        {
          "internalType": "uint256",
          "name": "id",
          "type": "uint256"
        }
      ],
      "name": "isFullyRedeemed",
      "outputs": [
        {
          "internalType": "bool",
          "name": "",
          "type": "bool"
        }
      ],
      "stateMutability": "view",
      "type": "function"
    },
    {
      "inputs": [
        {
          "internalType": "uint256",
          "name": "bondQuantity",
          "type": "uint256"
        },
        {
          "internalType": "uint256",
          "name": "minPurchasedQuantity",
          "type": "uint256"
        },
        {
          "internalType": "uint256",
          "name": "tokenAmountPerBond",
          "type": "uint256"
        },
        {
          "internalType": "string",
          "name": "ticker",
          "type": "string"
        },
        {
          "internalType": "uint256",
          "name": "yearOption",
          "type": "uint256"
        },
        {
          "internalType": "uint256",
          "name": "activeDurationInDays",
          "type": "uint256"
        },
        {
          "internalType": "uint256",
          "name": "rate",
          "type": "uint256"
        },
        {
          "internalType": "bytes",
          "name": "data",
          "type": "bytes"
        }
      ],
      "name": "issue",
      "outputs": [
        {
          "internalType": "uint256",
          "name": "id",
          "type": "uint256"
        }
      ],
      "stateMutability": "nonpayable",
      "type": "function"
    },
    {
      "inputs": [
        {
          "internalType": "uint256",
          "name": "id",
          "type": "uint256"
        }
      ],
      "name": "lockedTokenAmount",
      "outputs": [
        {
          "internalType": "uint256",
          "name": "",
          "type": "uint256"
        }
      ],
      "stateMutability": "view",
      "type": "function"
    },
    {
      "inputs": [
        {
          "internalType": "uint256",
          "name": "id",
          "type": "uint256"
        }
      ],
      "name": "lockedTokenAmountPerBond",
      "outputs": [
        {
          "internalType": "uint256",
          "name": "",
          "type": "uint256"
        }
      ],
      "stateMutability": "view",
      "type": "function"
    },
    {
      "inputs": [
        {
          "internalType": "uint256",
          "name": "id",
          "type": "uint256"
        }
      ],
      "name": "markAsCompleted",
      "outputs": [],
      "stateMutability": "nonpayable",
      "type": "function"
    },
    {
      "inputs": [
        {
          "internalType": "uint256",
          "name": "id",
          "type": "uint256"
        }
      ],
      "name": "markAsDefaulted",
      "outputs": [],
      "stateMutability": "nonpayable",
      "type": "function"
    },
    {
      "inputs": [
        {
          "internalType": "uint256",
          "name": "id",
          "type": "uint256"
        }
      ],
      "name": "poolAmount",
      "outputs": [
        {
          "internalType": "uint256",
          "name": "",
          "type": "uint256"
        }
      ],
      "stateMutability": "view",
      "type": "function"
    },
    {
      "inputs": [
        {
          "internalType": "uint256",
          "name": "id",
          "type": "uint256"
        }
      ],
      "name": "principal",
      "outputs": [
        {
          "internalType": "uint256",
          "name": "",
          "type": "uint256"
        }
      ],
      "stateMutability": "view",
      "type": "function"
    },
    {
      "inputs": [
        {
          "internalType": "uint256",
          "name": "id",
          "type": "uint256"
        }
      ],
      "name": "principalWithInterest",
      "outputs": [
        {
          "internalType": "uint256",
          "name": "",
          "type": "uint256"
        }
      ],
      "stateMutability": "view",
      "type": "function"
    },
    {
      "inputs": [
        {
          "internalType": "uint256",
          "name": "id",
          "type": "uint256"
        },
        {
          "internalType": "uint256",
          "name": "bondQuantity",
          "type": "uint256"
        }
      ],
      "name": "purchase",
      "outputs": [],
      "stateMutability": "nonpayable",
      "type": "function"
    },
    {
      "inputs": [
        {
          "internalType": "uint256",
          "name": "id",
          "type": "uint256"
        },
        {
          "internalType": "uint256",
          "name": "bondQuantity",
          "type": "uint256"
        }
      ],
      "name": "redeem",
      "outputs": [],
      "stateMutability": "nonpayable",
      "type": "function"
    },
    {
      "inputs": [
        {
          "internalType": "uint256",
          "name": "id",
          "type": "uint256"
        },
        {
          "internalType": "uint256",
          "name": "bondQuantity",
          "type": "uint256"
        }
      ],
      "name": "redeemCanceled",
      "outputs": [],
      "stateMutability": "nonpayable",
      "type": "function"
    },
    {
      "inputs": [
        {
          "internalType": "uint256",
          "name": "id",
          "type": "uint256"
        },
        {
          "internalType": "uint256",
          "name": "bondQuantity",
          "type": "uint256"
        }
      ],
      "name": "redeemDefaulted",
      "outputs": [],
      "stateMutability": "nonpayable",
      "type": "function"
    },
    {
      "inputs": [
        {
          "internalType": "uint256",
          "name": "id",
          "type": "uint256"
        }
      ],
      "name": "remainingQuantity",
      "outputs": [
        {
          "internalType": "uint256",
          "name": "",
          "type": "uint256"
        }
      ],
      "stateMutability": "view",
      "type": "function"
    },
    {
      "inputs": [
        {
          "internalType": "uint256",
          "name": "tokenAmountPerBond",
          "type": "uint256"
        },
        {
          "internalType": "uint256",
          "name": "yearOption",
          "type": "uint256"
        }
      ],
      "name": "retrieveMinObligationList",
      "outputs": [
        {
          "internalType": "uint256[]",
          "name": "",
          "type": "uint256[]"
        }
      ],
      "stateMutability": "view",
      "type": "function"
    },
    {
      "inputs": [
        {
          "internalType": "address",
          "name": "from",
          "type": "address"
        },
        {
          "internalType": "address",
          "name": "to",
          "type": "address"
        },
        {
          "internalType": "uint256[]",
          "name": "ids",
          "type": "uint256[]"
        },
        {
          "internalType": "uint256[]",
          "name": "amounts",
          "type": "uint256[]"
        },
        {
          "internalType": "bytes",
          "name": "data",
          "type": "bytes"
        }
      ],
      "name": "safeBatchTransferFrom",
      "outputs": [],
      "stateMutability": "nonpayable",
      "type": "function"
    },
    {
      "inputs": [
        {
          "internalType": "address",
          "name": "from",
          "type": "address"
        },
        {
          "internalType": "address",
          "name": "to",
          "type": "address"
        },
        {
          "internalType": "uint256",
          "name": "id",
          "type": "uint256"
        },
        {
          "internalType": "uint256",
          "name": "amount",
          "type": "uint256"
        },
        {
          "internalType": "bytes",
          "name": "data",
          "type": "bytes"
        }
      ],
      "name": "safeTransferFrom",
      "outputs": [],
      "stateMutability": "nonpayable",
      "type": "function"
    },
    {
      "inputs": [
        {
          "internalType": "address",
          "name": "operator",
          "type": "address"
        },
        {
          "internalType": "bool",
          "name": "approved",
          "type": "bool"
        }
      ],
      "name": "setApprovalForAll",
      "outputs": [],
      "stateMutability": "nonpayable",
      "type": "function"
    },
    {
      "inputs": [
        {
          "internalType": "bytes4",
          "name": "interfaceId",
          "type": "bytes4"
        }
      ],
      "name": "supportsInterface",
      "outputs": [
        {
          "internalType": "bool",
          "name": "",
          "type": "bool"
        }
      ],
      "stateMutability": "view",
      "type": "function"
    },
    {
      "inputs": [
        {
          "internalType": "uint256",
          "name": "id",
          "type": "uint256"
        }
      ],
      "name": "timeElapsed",
      "outputs": [
        {
          "internalType": "uint256",
          "name": "",
          "type": "uint256"
        }
      ],
      "stateMutability": "view",
      "type": "function"
    },
    {
      "inputs": [
        {
          "internalType": "uint256",
          "name": "id",
          "type": "uint256"
        }
      ],
      "name": "timeRemainingToEndOfActive",
      "outputs": [
        {
          "internalType": "uint256",
          "name": "",
          "type": "uint256"
        }
      ],
      "stateMutability": "view",
      "type": "function"
    },
    {
      "inputs": [
        {
          "internalType": "uint256",
          "name": "id",
          "type": "uint256"
        }
      ],
      "name": "timeRemainingToMaturity",
      "outputs": [
        {
          "internalType": "uint256",
          "name": "",
          "type": "uint256"
        }
      ],
      "stateMutability": "view",
      "type": "function"
    },
    {
      "inputs": [],
      "name": "tvl",
      "outputs": [
        {
          "internalType": "uint256",
          "name": "",
          "type": "uint256"
        }
      ],
      "stateMutability": "view",
      "type": "function"
    },
    {
      "inputs": [
        {
          "internalType": "uint256",
          "name": "",
          "type": "uint256"
        }
      ],
      "name": "uri",
      "outputs": [
        {
          "internalType": "string",
          "name": "",
          "type": "string"
        }
      ],
      "stateMutability": "view",
      "type": "function"
    },
    {
      "inputs": [
        {
          "internalType": "uint256",
          "name": "id",
          "type": "uint256"
        },
        {
          "internalType": "uint256",
          "name": "tokenAmount",
          "type": "uint256"
        }
      ],
      "name": "withdraw",
      "outputs": [],
      "stateMutability": "nonpayable",
      "type": "function"
    },
    {
      "inputs": [
        {
          "internalType": "uint256",
          "name": "id",
          "type": "uint256"
        }
      ],
      "name": "withdrawExcess",
      "outputs": [],
      "stateMutability": "nonpayable",
      "type": "function"
    },
    {
      "inputs": [
        {
          "internalType": "uint256",
          "name": "option",
          "type": "uint256"
        }
      ],
      "name": "yearOptionToDays",
      "outputs": [
        {
          "internalType": "uint256",
          "name": "",
          "type": "uint256"
        }
      ],
      "stateMutability": "pure",
      "type": "function"
    },
    {
      "inputs": [
        {
          "internalType": "uint256",
          "name": "option",
          "type": "uint256"
        }
      ],
      "name": "yearOptionToObligationRateList",
      "outputs": [
        {
          "internalType": "uint256[]",
          "name": "",
          "type": "uint256[]"
        }
      ],
      "stateMutability": "view",
      "type": "function"
    }
  ],
  "bytecode": "0x60c060405260006003556040518060a00160405280600560ff168152602001600560ff168152602001600a60ff168152602001600f60ff168152602001600f60ff16815250600c9060056200005692919062000278565b50604051806101200160405280600260ff168152602001600360ff168152602001600560ff168152602001600560ff168152602001600560ff168152602001600a60ff168152602001600a60ff168152602001600f60ff168152602001600f60ff16815250600d906009620000cd929190620002cf565b50604051806102600160405280600260ff168152602001600260ff168152602001600260ff168152602001600460ff168152602001600560ff168152602001600560ff168152602001600560ff168152602001600560ff168152602001600560ff168152602001600560ff168152602001600560ff168152602001600560ff168152602001600560ff168152602001600560ff168152602001600560ff168152602001600560ff168152602001600560ff168152602001600560ff168152602001600a60ff16815250600e906013620001a892919062000326565b50348015620001b657600080fd5b5060405162007186380380620071868339818101604052810190620001dc919062000594565b818181620001f0816200026360201b60201c565b503373ffffffffffffffffffffffffffffffffffffffff1660808173ffffffffffffffffffffffffffffffffffffffff16815250508073ffffffffffffffffffffffffffffffffffffffff1660a08173ffffffffffffffffffffffffffffffffffffffff1681525050505050506200092c565b806002908162000274919062000845565b5050565b828054828255906000526020600020908101928215620002bc579160200282015b82811115620002bb578251829060ff1690559160200191906001019062000299565b5b509050620002cb91906200037d565b5090565b82805482825590600052602060002090810192821562000313579160200282015b8281111562000312578251829060ff16905591602001919060010190620002f0565b5b5090506200032291906200037d565b5090565b8280548282559060005260206000209081019282156200036a579160200282015b8281111562000369578251829060ff1690559160200191906001019062000347565b5b5090506200037991906200037d565b5090565b5b80821115620003985760008160009055506001016200037e565b5090565b6000604051905090565b600080fd5b600080fd5b600080fd5b600080fd5b6000601f19601f8301169050919050565b7f4e487b7100000000000000000000000000000000000000000000000000000000600052604160045260246000fd5b6200040582620003ba565b810181811067ffffffffffffffff82111715620004275762000426620003cb565b5b80604052505050565b60006200043c6200039c565b90506200044a8282620003fa565b919050565b600067ffffffffffffffff8211156200046d576200046c620003cb565b5b6200047882620003ba565b9050602081019050919050565b60005b83811015620004a557808201518184015260208101905062000488565b60008484015250505050565b6000620004c8620004c2846200044f565b62000430565b905082815260208101848484011115620004e757620004e6620003b5565b5b620004f484828562000485565b509392505050565b600082601f830112620005145762000513620003b0565b5b815162000526848260208601620004b1565b91505092915050565b600073ffffffffffffffffffffffffffffffffffffffff82169050919050565b60006200055c826200052f565b9050919050565b6200056e816200054f565b81146200057a57600080fd5b50565b6000815190506200058e8162000563565b92915050565b60008060408385031215620005ae57620005ad620003a6565b5b600083015167ffffffffffffffff811115620005cf57620005ce620003ab565b5b620005dd85828601620004fc565b9250506020620005f0858286016200057d565b9150509250929050565b600081519050919050565b7f4e487b7100000000000000000000000000000000000000000000000000000000600052602260045260246000fd5b600060028204905060018216806200064d57607f821691505b60208210810362000663576200066262000605565b5b50919050565b60008190508160005260206000209050919050565b60006020601f8301049050919050565b600082821b905092915050565b600060088302620006cd7fffffffffffffffffffffffffffffffffffffffffffffffffffffffffffffffff826200068e565b620006d986836200068e565b95508019841693508086168417925050509392505050565b6000819050919050565b6000819050919050565b600062000726620007206200071a84620006f1565b620006fb565b620006f1565b9050919050565b6000819050919050565b620007428362000705565b6200075a62000751826200072d565b8484546200069b565b825550505050565b600090565b6200077162000762565b6200077e81848462000737565b505050565b5b81811015620007a6576200079a60008262000767565b60018101905062000784565b5050565b601f821115620007f557620007bf8162000669565b620007ca846200067e565b81016020851015620007da578190505b620007f2620007e9856200067e565b83018262000783565b50505b505050565b600082821c905092915050565b60006200081a60001984600802620007fa565b1980831691505092915050565b600062000835838362000807565b9150826002028217905092915050565b6200085082620005fa565b67ffffffffffffffff8111156200086c576200086b620003cb565b5b62000878825462000634565b62000885828285620007aa565b600060209050601f831160018114620008bd5760008415620008a8578287015190505b620008b4858262000827565b86555062000924565b601f198416620008cd8662000669565b60005b82811015620008f757848901518255600182019150602085019450602081019050620008d0565b8683101562000917578489015162000913601f89168262000807565b8355505b6001600288020188555050505b505050505050565b60805160a0516167d2620009b46000396000818161104e0152818161148a015281816116f401528181611a1a01528181611c9e01528181612132015281816122c7015281816124fb01528181612d4f01528181612f640152613159015260008181610dee01528181611d8c0152818161270f01528181612bf5015261300301526167d26000f3fe608060405234801561001057600080fd5b50600436106102685760003560e01c806388bdc08311610151578063c36177fc116100c3578063e52270e011610087578063e52270e01461088a578063e5328e06146108ba578063e755ddd7146108d8578063e8858090146108f4578063e985e9c514610924578063f242432a1461095457610268565b8063c36177fc146107a5578063c7bc5730146107d5578063d32fe02e14610805578063d3b7811b1461083e578063e2bbb1581461086e57610268565b8063a9385a5c11610115578063a9385a5c146106d5578063a996ef0814610705578063abac75e114610721578063af73e2c914610751578063b09f2b1c1461076d578063c0a6026c1461078957610268565b806388bdc0831461060d5780638f0dbf771461063d578063932a8de01461066d578063a22cb4651461069d578063a8743022146106b957610268565b80633097afb8116101ea5780636ff80d93116101ae5780636ff80d931461051557806370876c981461054557806377e2a08b146105615780637a41984b146105915780637cbc2373146105c157806382afd23b146105dd57610268565b80633097afb81461043957806339e3af9b14610469578063441a3e70146104995780634e1273f4146104b5578063549493bb146104e557610268565b80630e89341c116102315780630e89341c1461035d57806314f294931461038d5780631add0271146103bd5780632eb2c2d6146103ed5780632f3ad61f1461040957610268565b8062fdd58e1461026d57806301ffc9a71461029d57806302159497146102cd57806308913ce8146102fd578063091490201461032d575b600080fd5b6102876004803603810190610282919061445b565b610970565b60405161029491906144aa565b60405180910390f35b6102b760048036038101906102b2919061451d565b610a38565b6040516102c49190614565565b60405180910390f35b6102e760048036038101906102e29190614580565b610b1a565b6040516102f491906144aa565b60405180910390f35b61031760048036038101906103129190614580565b610b37565b60405161032491906144aa565b60405180910390f35b61034760048036038101906103429190614580565b610b62565b6040516103549190614565565b60405180910390f35b61037760048036038101906103729190614580565b610b98565b604051610384919061463d565b60405180910390f35b6103a760048036038101906103a29190614580565b610c2c565b6040516103b491906144aa565b60405180910390f35b6103d760048036038101906103d29190614580565b610c6a565b6040516103e491906144aa565b60405180910390f35b6104076004803603810190610402919061485c565b610cc3565b005b610423600480360381019061041e9190614580565b610d64565b6040516104309190614565565b60405180910390f35b610453600480360381019061044e9190614580565b610d8e565b6040516104609190614565565b60405180910390f35b610483600480360381019061047e9190614580565b610dc7565b6040516104909190614565565b60405180910390f35b6104b360048036038101906104ae919061492b565b610dec565b005b6104cf60048036038101906104ca9190614a2e565b6110ef565b6040516104dc9190614b64565b60405180910390f35b6104ff60048036038101906104fa9190614580565b611208565b60405161050c9190614565565b60405180910390f35b61052f600480360381019061052a9190614580565b61123a565b60405161053c9190614565565b60405180910390f35b61055f600480360381019061055a919061492b565b6112d2565b005b61057b60048036038101906105769190614580565b611583565b60405161058891906144aa565b60405180910390f35b6105ab60048036038101906105a69190614580565b6115dc565b6040516105b89190614565565b60405180910390f35b6105db60048036038101906105d6919061492b565b611606565b005b6105f760048036038101906105f29190614580565b6117c0565b6040516106049190614565565b60405180910390f35b61062760048036038101906106229190614580565b6117e3565b60405161063491906144aa565b60405180910390f35b61065760048036038101906106529190614580565b611816565b6040516106649190614565565b60405180910390f35b61068760048036038101906106829190614580565b611838565b60405161069491906144aa565b60405180910390f35b6106b760048036038101906106b29190614bb2565b611876565b005b6106d360048036038101906106ce9190614580565b61188c565b005b6106ef60048036038101906106ea9190614580565b611af9565b6040516106fc91906144aa565b60405180910390f35b61071f600480360381019061071a919061492b565b611bb0565b005b61073b60048036038101906107369190614580565b611d6a565b60405161074891906144aa565b60405180910390f35b61076b6004803603810190610766919061492b565b611d8a565b005b6107876004803603810190610782919061492b565b6121d6565b005b6107a3600480360381019061079e9190614580565b612393565b005b6107bf60048036038101906107ba919061492b565b6125da565b6040516107cc9190614b64565b60405180910390f35b6107ef60048036038101906107ea9190614c4d565b61270b565b6040516107fc91906144aa565b60405180910390f35b61081f600480360381019061081a9190614580565b612a4c565b6040516108359a99989796959493929190614d3f565b60405180910390f35b61085860048036038101906108539190614580565b612bc0565b60405161086591906144aa565b60405180910390f35b6108886004803603810190610883919061492b565b612bf3565b005b6108a4600480360381019061089f9190614580565b612df2565b6040516108b19190614b64565b60405180910390f35b6108c2612f60565b6040516108cf91906144aa565b60405180910390f35b6108f260048036038101906108ed9190614580565b613001565b005b61090e60048036038101906109099190614580565b61320c565b60405161091b91906144aa565b60405180910390f35b61093e60048036038101906109399190614de2565b613229565b60405161094b9190614565565b60405180910390f35b61096e60048036038101906109699190614e22565b6132bd565b005b60008073ffffffffffffffffffffffffffffffffffffffff168373ffffffffffffffffffffffffffffffffffffffff16036109e0576040517f08c379a00000000000000000000000000000000000000000000000000000000081526004016109d790614f2b565b60405180910390fd5b60008083815260200190815260200160002060008473ffffffffffffffffffffffffffffffffffffffff1673ffffffffffffffffffffffffffffffffffffffff16815260200190815260200160002054905092915050565b60007fd9b67a26000000000000000000000000000000000000000000000000000000007bffffffffffffffffffffffffffffffffffffffffffffffffffffffff1916827bffffffffffffffffffffffffffffffffffffffffffffffffffffffff19161480610b0357507f0e89341c000000000000000000000000000000000000000000000000000000007bffffffffffffffffffffffffffffffffffffffffffffffffffffffff1916827bffffffffffffffffffffffffffffffffffffffffffffffffffffffff1916145b80610b135750610b128261335e565b5b9050919050565b600060076000838152602001908152602001600020549050919050565b6000600460008381526020019081526020016000206002015442610b5b9190614f7a565b9050919050565b60006004600083815260200190815260200160002060080154600560008481526020019081526020016000205410159050919050565b606060028054610ba790614fdd565b80601f0160208091040260200160405190810160405280929190818152602001828054610bd390614fdd565b8015610c205780601f10610bf557610100808354040283529160200191610c20565b820191906000526020600020905b815481529060010190602001808311610c0357829003601f168201915b50505050509050919050565b600060056000838152602001908152602001600020546004600084815260200190815260200160002060010154610c63919061500e565b9050919050565b6000670de0b6b3a76400006004600084815260200190815260200160002060070154670de0b6b3a7640000610c9e8561320c565b610ca8919061500e565b610cb2919061507f565b610cbc919061507f565b9050919050565b610ccb6133c8565b73ffffffffffffffffffffffffffffffffffffffff168573ffffffffffffffffffffffffffffffffffffffff161480610d115750610d1085610d0b6133c8565b613229565b5b610d50576040517f08c379a0000000000000000000000000000000000000000000000000000000008152600401610d4790615122565b60405180910390fd5b610d5d85858585856133d0565b5050505050565b6000600a600083815260200190815260200160002060009054906101000a900460ff169050919050565b6000610d9982611816565b8015610dc05750610da982611583565b600760008481526020019081526020016000205410155b9050919050565b6000610dd2826117c0565b158015610de55750610de382610b62565b155b9050919050565b7f000000000000000000000000000000000000000000000000000000000000000073ffffffffffffffffffffffffffffffffffffffff163373ffffffffffffffffffffffffffffffffffffffff1614610e7a576040517f08c379a0000000000000000000000000000000000000000000000000000000008152600401610e719061518e565b60405180910390fd5b610e83826117c0565b15610ec3576040517f08c379a0000000000000000000000000000000000000000000000000000000008152600401610eba906151fa565b60405180910390fd5b610ecc82610dc7565b15610f0c576040517f08c379a0000000000000000000000000000000000000000000000000000000008152600401610f03906151fa565b60405180910390fd5b610f15826115dc565b15610f55576040517f08c379a0000000000000000000000000000000000000000000000000000000008152600401610f4c9061528c565b60405180910390fd5b610f5e82610d64565b80610f6e5750610f6d8261123a565b5b15610fae576040517f08c379a0000000000000000000000000000000000000000000000000000000008152600401610fa59061531e565b60405180910390fd5b60116000838152602001908152602001600020546007600084815260200190815260200160002054610fe09190614f7a565b811115611022576040517f08c379a0000000000000000000000000000000000000000000000000000000008152600401611019906153b0565b60405180910390fd5b806007600084815260200190815260200160002060008282546110459190614f7a565b925050819055507f000000000000000000000000000000000000000000000000000000000000000073ffffffffffffffffffffffffffffffffffffffff1663a9059cbb33836040518363ffffffff1660e01b81526004016110a79291906153df565b6020604051808303816000875af11580156110c6573d6000803e3d6000fd5b505050506040513d601f19601f820116820180604052508101906110ea919061541d565b505050565b60608151835114611135576040517f08c379a000000000000000000000000000000000000000000000000000000000815260040161112c906154bc565b60405180910390fd5b6000835167ffffffffffffffff81111561115257611151614664565b5b6040519080825280602002602001820160405280156111805781602001602082028036833780820191505090505b50905060005b84518110156111fd576111cd8582815181106111a5576111a46154dc565b5b60200260200101518583815181106111c0576111bf6154dc565b5b6020026020010151610970565b8282815181106111e0576111df6154dc565b5b602002602001018181525050806111f69061550b565b9050611186565b508091505092915050565b600060056000838152602001908152602001600020546006600084815260200190815260200160002054149050919050565b60008061124683611816565b801561126c575061125683611583565b6007600085815260200190815260200160002054105b9050600061127984611816565b1580156112be57506201518060b4600160126000888152602001908152602001600020546112a79190615553565b6112b1919061500e565b6112bb919061500e565b42115b905081806112c95750805b92505050919050565b6112db826117c0565b61131a576040517f08c379a0000000000000000000000000000000000000000000000000000000008152600401611311906155d3565b60405180910390fd5b8061132483611838565b1015611365576040517f08c379a000000000000000000000000000000000000000000000000000000000815260040161135c90615665565b60405180910390fd5b6000600460008481526020019081526020016000206040518061014001604052908160008201805461139690614fdd565b80601f01602080910402602001604051908101604052809291908181526020018280546113c290614fdd565b801561140f5780601f106113e45761010080835404028352916020019161140f565b820191906000526020600020905b8154815290600101906020018083116113f257829003601f168201915b50505050508152602001600182015481526020016002820154815260200160038201548152602001600482015481526020016005820154815260200160068201548152602001600782015481526020016008820154815260200160098201548152505090506000816020015183611486919061500e565b90507f000000000000000000000000000000000000000000000000000000000000000073ffffffffffffffffffffffffffffffffffffffff166323b872dd3330846040518463ffffffff1660e01b81526004016114e593929190615685565b6020604051808303816000875af1158015611504573d6000803e3d6000fd5b505050506040513d601f19601f82011682018060405250810190611528919061541d565b508260056000868152602001908152602001600020600082825461154c9190615553565b92505081905550806007600086815260200190815260200160002060008282546115769190615553565b9250508190555050505050565b6000670de0b6b3a764000060046000848152602001908152602001600020600901546115ae84610c2c565b6115b8919061500e565b6115c2919061507f565b6115cb83610c2c565b6115d59190615553565b9050919050565b6000600b600083815260200190815260200160002060009054906101000a900460ff169050919050565b61160f826115dc565b61164e576040517f08c379a000000000000000000000000000000000000000000000000000000000815260040161164590615708565b60405180910390fd5b806116593384610970565b101561169a576040517f08c379a000000000000000000000000000000000000000000000000000000000815260040161169190615774565b60405180910390fd5b6116a53383836136f1565b806006600084815260200190815260200160002060008282546116c89190615553565b9250508190555060006009600084815260200190815260200160002054826116f0919061500e565b90507f000000000000000000000000000000000000000000000000000000000000000073ffffffffffffffffffffffffffffffffffffffff1663a9059cbb33836040518363ffffffff1660e01b815260040161174d9291906153df565b6020604051808303816000875af115801561176c573d6000803e3d6000fd5b505050506040513d601f19601f82011682018060405250810190611790919061541d565b50806007600085815260200190815260200160002060008282546117b49190614f7a565b92505081905550505050565b600060046000838152602001908152602001600020600401544211159050919050565b60006117ee82610b37565b600460008481526020019081526020016000206005015461180f9190614f7a565b9050919050565b6000600460008381526020019081526020016000206003015442119050919050565b60006005600083815260200190815260200160002054600460008481526020019081526020016000206007015461186f9190614f7a565b9050919050565b6118886118816133c8565b8383613937565b5050565b61189581610d64565b1580156118a757506118a68161123a565b5b6118e6576040517f08c379a00000000000000000000000000000000000000000000000000000000081526004016118dd906157e0565b60405180910390fd5b60006118f182611583565b905060006103e86007600085815260200190815260200160002054611916919061507f565b905060008160076000868152602001908152602001600020546119399190614f7a565b905060056000858152602001908152602001600020548161195a919061507f565b60086000868152602001908152602001600020819055506000600560008681526020019081526020016000205460086000878152602001908152602001600020546119a5919061500e565b826119b09190614f7a565b9050600081846119c09190615553565b9050806007600088815260200190815260200160002060008282546119e59190614f7a565b925050819055506001600a600088815260200190815260200160002060006101000a81548160ff0219169083151502179055507f000000000000000000000000000000000000000000000000000000000000000073ffffffffffffffffffffffffffffffffffffffff1663a9059cbb33836040518363ffffffff1660e01b8152600401611a739291906153df565b6020604051808303816000875af1158015611a92573d6000803e3d6000fd5b505050506040513d601f19601f82011682018060405250810190611ab6919061541d565b50857fc4f17a65d54873d57229ea5f59c4ddec592d095bc17581372676402c8228b9cd8685604051611ae9929190615800565b60405180910390a2505050505050565b60008160008110158015611b0e575060028111155b611b4d576040517f08c379a0000000000000000000000000000000000000000000000000000000008152600401611b4490615875565b60405180910390fd5b600060b46002611b5d919061500e565b905060008403611b7c57806003611b74919061500e565b925050611baa565b60018403611b9957806005611b91919061500e565b925050611baa565b80600a611ba6919061500e565b9250505b50919050565b611bb982610d64565b611bf8576040517f08c379a0000000000000000000000000000000000000000000000000000000008152600401611bef906157e0565b60405180910390fd5b80611c033384610970565b1015611c44576040517f08c379a0000000000000000000000000000000000000000000000000000000008152600401611c3b90615774565b60405180910390fd5b611c4f3383836136f1565b80600660008481526020019081526020016000206000828254611c729190615553565b925050819055506000600860008481526020019081526020016000205482611c9a919061500e565b90507f000000000000000000000000000000000000000000000000000000000000000073ffffffffffffffffffffffffffffffffffffffff1663a9059cbb33836040518363ffffffff1660e01b8152600401611cf79291906153df565b6020604051808303816000875af1158015611d16573d6000803e3d6000fd5b505050506040513d601f19601f82011682018060405250810190611d3a919061541d565b5080600760008581526020019081526020016000206000828254611d5e9190614f7a565b92505081905550505050565b600060046000838152602001908152602001600020600901549050919050565b7f000000000000000000000000000000000000000000000000000000000000000073ffffffffffffffffffffffffffffffffffffffff163373ffffffffffffffffffffffffffffffffffffffff1614611e18576040517f08c379a0000000000000000000000000000000000000000000000000000000008152600401611e0f9061518e565b60405180910390fd5b611e2182610d64565b80611e315750611e308261123a565b5b15611e71576040517f08c379a0000000000000000000000000000000000000000000000000000000008152600401611e689061531e565b60405180910390fd5b600460008381526020019081526020016000206006015460b460016012600086815260200190815260200160002054611eaa9190615553565b611eb4919061500e565b03611ef4576040517f08c379a0000000000000000000000000000000000000000000000000000000008152600401611eeb906158e1565b60405180910390fd5b60106000838152602001908152602001600020601260008481526020019081526020016000205481548110611f2c57611f2b6154dc565b5b9060005260206000200154811015611f79576040517f08c379a0000000000000000000000000000000000000000000000000000000008152600401611f709061594d565b60405180910390fd5b66b1a2bc2ec5000060106000848152602001908152602001600020601260008581526020019081526020016000205481548110611fb957611fb86154dc565b5b9060005260206000200154670de0b6b3a764000060106000868152602001908152602001600020601260008781526020019081526020016000205481548110612005576120046154dc565b5b90600052602060002001548461201b9190614f7a565b612025919061500e565b61202f919061507f565b1115612070576040517f08c379a0000000000000000000000000000000000000000000000000000000008152600401612067906159df565b60405180910390fd5b6000600460008481526020019081526020016000206007015482612094919061500e565b9050806011600085815260200190815260200160002060008282546120b99190615553565b925050819055506201518060b46120d0919061500e565b600f6000858152602001908152602001600020546120ee9190615553565b600f60008581526020019081526020016000208190555060016012600085815260200190815260200160002060008282546121299190615553565b925050819055507f000000000000000000000000000000000000000000000000000000000000000073ffffffffffffffffffffffffffffffffffffffff166323b872dd3330846040518463ffffffff1660e01b815260040161218d93929190615685565b6020604051808303816000875af11580156121ac573d6000803e3d6000fd5b505050506040513d601f19601f820116820180604052508101906121d0919061541d565b50505050565b6121df82610dc7565b61221e576040517f08c379a000000000000000000000000000000000000000000000000000000000815260040161221590615a4b565b60405180910390fd5b806122293384610970565b101561226a576040517f08c379a000000000000000000000000000000000000000000000000000000000815260040161226190615774565b60405180910390fd5b6122753383836136f1565b806006600084815260200190815260200160002060008282546122989190615553565b9250508190555060006004600084815260200190815260200160002060010154826122c3919061500e565b90507f000000000000000000000000000000000000000000000000000000000000000073ffffffffffffffffffffffffffffffffffffffff1663a9059cbb33836040518363ffffffff1660e01b81526004016123209291906153df565b6020604051808303816000875af115801561233f573d6000803e3d6000fd5b505050506040513d601f19601f82011682018060405250810190612363919061541d565b50806007600085815260200190815260200160002060008282546123879190614f7a565b92505081905550505050565b61239c816115dc565b1580156123ae57506123ad81610d8e565b5b6123ed576040517f08c379a00000000000000000000000000000000000000000000000000000000081526004016123e490615ab7565b60405180910390fd5b60006123f882611583565b905060006103e88261240a919061507f565b90506000818361241a9190614f7a565b905060056000858152602001908152602001600020548161243b919061507f565b6009600086815260200190815260200160002081905550600060056000868152602001908152602001600020546009600087815260200190815260200160002054612486919061500e565b826124919190614f7a565b9050600081846124a19190615553565b9050806007600088815260200190815260200160002060008282546124c69190614f7a565b925050819055506001600b600088815260200190815260200160002060006101000a81548160ff0219169083151502179055507f000000000000000000000000000000000000000000000000000000000000000073ffffffffffffffffffffffffffffffffffffffff1663a9059cbb33836040518363ffffffff1660e01b81526004016125549291906153df565b6020604051808303816000875af1158015612573573d6000803e3d6000fd5b505050506040513d601f19601f82011682018060405250810190612597919061541d565b50857fac2eeaf45d1b75aed6b3285cda3efb3c382cce02ba313558bbb90be57f8843e486856040516125ca929190615800565b60405180910390a2505050505050565b606081600081101580156125ef575060028111155b61262e576040517f08c379a000000000000000000000000000000000000000000000000000000000815260040161262590615875565b60405180910390fd5b600061263984612df2565b905060008151905060008167ffffffffffffffff81111561265d5761265c614664565b5b60405190808252806020026020018201604052801561268b5781602001602082028036833780820191505090505b50905060005b828110156126fd5760648482815181106126ae576126ad6154dc565b5b6020026020010151896126c1919061500e565b6126cb919061507f565b8282815181106126de576126dd6154dc565b5b60200260200101818152505080806126f59061550b565b915050612691565b508094505050505092915050565b60007f000000000000000000000000000000000000000000000000000000000000000073ffffffffffffffffffffffffffffffffffffffff163373ffffffffffffffffffffffffffffffffffffffff161461279b576040517f08c379a00000000000000000000000000000000000000000000000000000000081526004016127929061518e565b60405180910390fd5b84600081101580156127ae575060028111155b6127ed576040517f08c379a00000000000000000000000000000000000000000000000000000000081526004016127e490615875565b60405180910390fd5b60b48510612830576040517f08c379a000000000000000000000000000000000000000000000000000000000815260040161282790615b49565b60405180910390fd5b600061283b87611af9565b9050600160035461284c9190615553565b925061285a33848e87613aa3565b6040518061014001604052808a8a8080601f016020809104026020016040519081016040528093929190818152602001838380828437600081840152601f19601f8201169050808301925050505050505081526020018b815260200142815260200162015180836128cb919061500e565b426128d69190615553565b815260200162015180886128ea919061500e565b426128f59190615553565b81526020018781526020018281526020018d81526020018c81526020018681525060046000858152602001908152602001600020600082015181600001908161293e9190615d15565b506020820151816001015560408201518160020155606082015181600301556080820151816004015560a0820151816005015560c0820151816006015560e08201518160070155610100820151816008015561012082015181600901559050506201518060b46129ae919061500e565b426129b99190615553565b600f6000858152602001908152602001600020819055506129da8a886125da565b601060008581526020019081526020016000209080519060200190612a00929190614349565b50827f3e5b89bff97cb92eafe4cd460ef4aa43d6feef1428595fe038182876515968fd8d8c88604051612a3593929190615de7565b60405180910390a250509998505050505050505050565b6060600080600080600080600080600080600460008d815260200190815260200160002060405180610140016040529081600082018054612a8c90614fdd565b80601f0160208091040260200160405190810160405280929190818152602001828054612ab890614fdd565b8015612b055780601f10612ada57610100808354040283529160200191612b05565b820191906000526020600020905b815481529060010190602001808311612ae857829003601f168201915b5050505050815260200160018201548152602001600282015481526020016003820154815260200160048201548152602001600582015481526020016006820154815260200160078201548152602001600882015481526020016009820154815250509050806000015181602001518260400151836060015184608001518560a001518660c001518760e001518861010001518961012001519a509a509a509a509a509a509a509a509a509a50509193959799509193959799565b6000612bcb82610b37565b6004600084815260200190815260200160002060060154612bec9190614f7a565b9050919050565b7f000000000000000000000000000000000000000000000000000000000000000073ffffffffffffffffffffffffffffffffffffffff163373ffffffffffffffffffffffffffffffffffffffff1614612c81576040517f08c379a0000000000000000000000000000000000000000000000000000000008152600401612c789061518e565b60405180910390fd5b612c8a82610d64565b80612c9a5750612c998261123a565b5b15612cda576040517f08c379a0000000000000000000000000000000000000000000000000000000008152600401612cd190615e6a565b60405180910390fd5b612ce3826115dc565b15612d23576040517f08c379a0000000000000000000000000000000000000000000000000000000008152600401612d1a90615ed6565b60405180910390fd5b80600760008481526020019081526020016000206000828254612d469190615553565b925050819055507f000000000000000000000000000000000000000000000000000000000000000073ffffffffffffffffffffffffffffffffffffffff166323b872dd3330846040518463ffffffff1660e01b8152600401612daa93929190615685565b6020604051808303816000875af1158015612dc9573d6000803e3d6000fd5b505050506040513d601f19601f82011682018060405250810190612ded919061541d565b505050565b60608160008110158015612e07575060028111155b612e46576040517f08c379a0000000000000000000000000000000000000000000000000000000008152600401612e3d90615875565b60405180910390fd5b60008303612ea657600c805480602002602001604051908101604052809291908181526020018280548015612e9a57602002820191906000526020600020905b815481526020019060010190808311612e86575b50505050509150612f5a565b60018303612f0657600d805480602002602001604051908101604052809291908181526020018280548015612efa57602002820191906000526020600020905b815481526020019060010190808311612ee6575b50505050509150612f5a565b600e805480602002602001604051908101604052809291908181526020018280548015612f5257602002820191906000526020600020905b815481526020019060010190808311612f3e575b505050505091505b50919050565b60007f000000000000000000000000000000000000000000000000000000000000000073ffffffffffffffffffffffffffffffffffffffff166370a08231306040518263ffffffff1660e01b8152600401612fbb9190615ef6565b602060405180830381865afa158015612fd8573d6000803e3d6000fd5b505050506040513d601f19601f82011682018060405250810190612ffc9190615f26565b905090565b7f000000000000000000000000000000000000000000000000000000000000000073ffffffffffffffffffffffffffffffffffffffff163373ffffffffffffffffffffffffffffffffffffffff161461308f576040517f08c379a00000000000000000000000000000000000000000000000000000000081526004016130869061518e565b60405180910390fd5b613098816115dc565b80156130a957506130a881611208565b5b6130e8576040517f08c379a00000000000000000000000000000000000000000000000000000000081526004016130df90615f9f565b60405180910390fd5b600060076000838152602001908152602001600020541161313e576040517f08c379a00000000000000000000000000000000000000000000000000000000081526004016131359061600b565b60405180910390fd5b600060076000838152602001908152602001600020819055507f000000000000000000000000000000000000000000000000000000000000000073ffffffffffffffffffffffffffffffffffffffff1663a9059cbb3360076000858152602001908152602001600020546040518363ffffffff1660e01b81526004016131c59291906153df565b6020604051808303816000875af11580156131e4573d6000803e3d6000fd5b505050506040513d601f19601f82011682018060405250810190613208919061541d565b5050565b600060116000838152602001908152602001600020549050919050565b6000600160008473ffffffffffffffffffffffffffffffffffffffff1673ffffffffffffffffffffffffffffffffffffffff16815260200190815260200160002060008373ffffffffffffffffffffffffffffffffffffffff1673ffffffffffffffffffffffffffffffffffffffff16815260200190815260200160002060009054906101000a900460ff16905092915050565b6132c56133c8565b73ffffffffffffffffffffffffffffffffffffffff168573ffffffffffffffffffffffffffffffffffffffff16148061330b575061330a856133056133c8565b613229565b5b61334a576040517f08c379a000000000000000000000000000000000000000000000000000000000815260040161334190615122565b60405180910390fd5b6133578585858585613c53565b5050505050565b60007f01ffc9a7000000000000000000000000000000000000000000000000000000007bffffffffffffffffffffffffffffffffffffffffffffffffffffffff1916827bffffffffffffffffffffffffffffffffffffffffffffffffffffffff1916149050919050565b600033905090565b8151835114613414576040517f08c379a000000000000000000000000000000000000000000000000000000000815260040161340b9061609d565b60405180910390fd5b600073ffffffffffffffffffffffffffffffffffffffff168473ffffffffffffffffffffffffffffffffffffffff1603613483576040517f08c379a000000000000000000000000000000000000000000000000000000000815260040161347a9061612f565b60405180910390fd5b600061348d6133c8565b905061349d818787878787613eee565b60005b845181101561364e5760008582815181106134be576134bd6154dc565b5b6020026020010151905060008583815181106134dd576134dc6154dc565b5b60200260200101519050600080600084815260200190815260200160002060008b73ffffffffffffffffffffffffffffffffffffffff1673ffffffffffffffffffffffffffffffffffffffff1681526020019081526020016000205490508181101561357e576040517f08c379a0000000000000000000000000000000000000000000000000000000008152600401613575906161c1565b60405180910390fd5b81810360008085815260200190815260200160002060008c73ffffffffffffffffffffffffffffffffffffffff1673ffffffffffffffffffffffffffffffffffffffff168152602001908152602001600020819055508160008085815260200190815260200160002060008b73ffffffffffffffffffffffffffffffffffffffff1673ffffffffffffffffffffffffffffffffffffffff16815260200190815260200160002060008282546136339190615553565b92505081905550505050806136479061550b565b90506134a0565b508473ffffffffffffffffffffffffffffffffffffffff168673ffffffffffffffffffffffffffffffffffffffff168273ffffffffffffffffffffffffffffffffffffffff167f4a39dc06d4c0dbc64b70af90fd698a233a518aa5d07e595d983b8c0526c8f7fb87876040516136c59291906161e1565b60405180910390a46136db818787878787613ef6565b6136e9818787878787613efe565b505050505050565b600073ffffffffffffffffffffffffffffffffffffffff168373ffffffffffffffffffffffffffffffffffffffff1603613760576040517f08c379a00000000000000000000000000000000000000000000000000000000081526004016137579061628a565b60405180910390fd5b600061376a6133c8565b90506000613777846140d5565b90506000613784846140d5565b90506137a483876000858560405180602001604052806000815250613eee565b600080600087815260200190815260200160002060008873ffffffffffffffffffffffffffffffffffffffff1673ffffffffffffffffffffffffffffffffffffffff1681526020019081526020016000205490508481101561383b576040517f08c379a00000000000000000000000000000000000000000000000000000000081526004016138329061631c565b60405180910390fd5b84810360008088815260200190815260200160002060008973ffffffffffffffffffffffffffffffffffffffff1673ffffffffffffffffffffffffffffffffffffffff16815260200190815260200160002081905550600073ffffffffffffffffffffffffffffffffffffffff168773ffffffffffffffffffffffffffffffffffffffff168573ffffffffffffffffffffffffffffffffffffffff167fc3d58168c5ae7397731d063d5bbf3d657854427343f4c083240f7aacaa2d0f628989604051613908929190615800565b60405180910390a461392e84886000868660405180602001604052806000815250613ef6565b50505050505050565b8173ffffffffffffffffffffffffffffffffffffffff168373ffffffffffffffffffffffffffffffffffffffff16036139a5576040517f08c379a000000000000000000000000000000000000000000000000000000000815260040161399c906163ae565b60405180910390fd5b80600160008573ffffffffffffffffffffffffffffffffffffffff1673ffffffffffffffffffffffffffffffffffffffff16815260200190815260200160002060008473ffffffffffffffffffffffffffffffffffffffff1673ffffffffffffffffffffffffffffffffffffffff16815260200190815260200160002060006101000a81548160ff0219169083151502179055508173ffffffffffffffffffffffffffffffffffffffff168373ffffffffffffffffffffffffffffffffffffffff167f17307eab39ab6107e8899845ad3d59bd9653f200f220920489ca2b5937696c3183604051613a969190614565565b60405180910390a3505050565b600073ffffffffffffffffffffffffffffffffffffffff168473ffffffffffffffffffffffffffffffffffffffff1603613b12576040517f08c379a0000000000000000000000000000000000000000000000000000000008152600401613b0990616440565b60405180910390fd5b6000613b1c6133c8565b90506000613b29856140d5565b90506000613b36856140d5565b9050613b4783600089858589613eee565b8460008088815260200190815260200160002060008973ffffffffffffffffffffffffffffffffffffffff1673ffffffffffffffffffffffffffffffffffffffff1681526020019081526020016000206000828254613ba69190615553565b925050819055508673ffffffffffffffffffffffffffffffffffffffff16600073ffffffffffffffffffffffffffffffffffffffff168473ffffffffffffffffffffffffffffffffffffffff167fc3d58168c5ae7397731d063d5bbf3d657854427343f4c083240f7aacaa2d0f628989604051613c24929190615800565b60405180910390a4613c3b83600089858589613ef6565b613c4a8360008989898961414f565b50505050505050565b600073ffffffffffffffffffffffffffffffffffffffff168473ffffffffffffffffffffffffffffffffffffffff1603613cc2576040517f08c379a0000000000000000000000000000000000000000000000000000000008152600401613cb99061612f565b60405180910390fd5b6000613ccc6133c8565b90506000613cd9856140d5565b90506000613ce6856140d5565b9050613cf6838989858589613eee565b600080600088815260200190815260200160002060008a73ffffffffffffffffffffffffffffffffffffffff1673ffffffffffffffffffffffffffffffffffffffff16815260200190815260200160002054905085811015613d8d576040517f08c379a0000000000000000000000000000000000000000000000000000000008152600401613d84906161c1565b60405180910390fd5b85810360008089815260200190815260200160002060008b73ffffffffffffffffffffffffffffffffffffffff1673ffffffffffffffffffffffffffffffffffffffff168152602001908152602001600020819055508560008089815260200190815260200160002060008a73ffffffffffffffffffffffffffffffffffffffff1673ffffffffffffffffffffffffffffffffffffffff1681526020019081526020016000206000828254613e429190615553565b925050819055508773ffffffffffffffffffffffffffffffffffffffff168973ffffffffffffffffffffffffffffffffffffffff168573ffffffffffffffffffffffffffffffffffffffff167fc3d58168c5ae7397731d063d5bbf3d657854427343f4c083240f7aacaa2d0f628a8a604051613ebf929190615800565b60405180910390a4613ed5848a8a86868a613ef6565b613ee3848a8a8a8a8a61414f565b505050505050505050565b505050505050565b505050505050565b613f1d8473ffffffffffffffffffffffffffffffffffffffff16614326565b156140cd578373ffffffffffffffffffffffffffffffffffffffff1663bc197c8187878686866040518663ffffffff1660e01b8152600401613f639594939291906164b5565b6020604051808303816000875af1925050508015613f9f57506040513d601f19601f82011682018060405250810190613f9c9190616532565b60015b61404457613fab61656c565b806308c379a0036140075750613fbf61658e565b80613fca5750614009565b806040517f08c379a0000000000000000000000000000000000000000000000000000000008152600401613ffe919061463d565b60405180910390fd5b505b6040517f08c379a000000000000000000000000000000000000000000000000000000000815260040161403b90616690565b60405180910390fd5b63bc197c8160e01b7bffffffffffffffffffffffffffffffffffffffffffffffffffffffff1916817bffffffffffffffffffffffffffffffffffffffffffffffffffffffff1916146140cb576040517f08c379a00000000000000000000000000000000000000000000000000000000081526004016140c290616722565b60405180910390fd5b505b505050505050565b60606000600167ffffffffffffffff8111156140f4576140f3614664565b5b6040519080825280602002602001820160405280156141225781602001602082028036833780820191505090505b509050828160008151811061413a576141396154dc565b5b60200260200101818152505080915050919050565b61416e8473ffffffffffffffffffffffffffffffffffffffff16614326565b1561431e578373ffffffffffffffffffffffffffffffffffffffff1663f23a6e6187878686866040518663ffffffff1660e01b81526004016141b4959493929190616742565b6020604051808303816000875af19250505080156141f057506040513d601f19601f820116820180604052508101906141ed9190616532565b60015b614295576141fc61656c565b806308c379a003614258575061421061658e565b8061421b575061425a565b806040517f08c379a000000000000000000000000000000000000000000000000000000000815260040161424f919061463d565b60405180910390fd5b505b6040517f08c379a000000000000000000000000000000000000000000000000000000000815260040161428c90616690565b60405180910390fd5b63f23a6e6160e01b7bffffffffffffffffffffffffffffffffffffffffffffffffffffffff1916817bffffffffffffffffffffffffffffffffffffffffffffffffffffffff19161461431c576040517f08c379a000000000000000000000000000000000000000000000000000000000815260040161431390616722565b60405180910390fd5b505b505050505050565b6000808273ffffffffffffffffffffffffffffffffffffffff163b119050919050565b828054828255906000526020600020908101928215614385579160200282015b82811115614384578251825591602001919060010190614369565b5b5090506143929190614396565b5090565b5b808211156143af576000816000905550600101614397565b5090565b6000604051905090565b600080fd5b600080fd5b600073ffffffffffffffffffffffffffffffffffffffff82169050919050565b60006143f2826143c7565b9050919050565b614402816143e7565b811461440d57600080fd5b50565b60008135905061441f816143f9565b92915050565b6000819050919050565b61443881614425565b811461444357600080fd5b50565b6000813590506144558161442f565b92915050565b60008060408385031215614472576144716143bd565b5b600061448085828601614410565b925050602061449185828601614446565b9150509250929050565b6144a481614425565b82525050565b60006020820190506144bf600083018461449b565b92915050565b60007fffffffff0000000000000000000000000000000000000000000000000000000082169050919050565b6144fa816144c5565b811461450557600080fd5b50565b600081359050614517816144f1565b92915050565b600060208284031215614533576145326143bd565b5b600061454184828501614508565b91505092915050565b60008115159050919050565b61455f8161454a565b82525050565b600060208201905061457a6000830184614556565b92915050565b600060208284031215614596576145956143bd565b5b60006145a484828501614446565b91505092915050565b600081519050919050565b600082825260208201905092915050565b60005b838110156145e75780820151818401526020810190506145cc565b60008484015250505050565b6000601f19601f8301169050919050565b600061460f826145ad565b61461981856145b8565b93506146298185602086016145c9565b614632816145f3565b840191505092915050565b600060208201905081810360008301526146578184614604565b905092915050565b600080fd5b7f4e487b7100000000000000000000000000000000000000000000000000000000600052604160045260246000fd5b61469c826145f3565b810181811067ffffffffffffffff821117156146bb576146ba614664565b5b80604052505050565b60006146ce6143b3565b90506146da8282614693565b919050565b600067ffffffffffffffff8211156146fa576146f9614664565b5b602082029050602081019050919050565b600080fd5b600061472361471e846146df565b6146c4565b905080838252602082019050602084028301858111156147465761474561470b565b5b835b8181101561476f578061475b8882614446565b845260208401935050602081019050614748565b5050509392505050565b600082601f83011261478e5761478d61465f565b5b813561479e848260208601614710565b91505092915050565b600080fd5b600067ffffffffffffffff8211156147c7576147c6614664565b5b6147d0826145f3565b9050602081019050919050565b82818337600083830152505050565b60006147ff6147fa846147ac565b6146c4565b90508281526020810184848401111561481b5761481a6147a7565b5b6148268482856147dd565b509392505050565b600082601f8301126148435761484261465f565b5b81356148538482602086016147ec565b91505092915050565b600080600080600060a08688031215614878576148776143bd565b5b600061488688828901614410565b955050602061489788828901614410565b945050604086013567ffffffffffffffff8111156148b8576148b76143c2565b5b6148c488828901614779565b935050606086013567ffffffffffffffff8111156148e5576148e46143c2565b5b6148f188828901614779565b925050608086013567ffffffffffffffff811115614912576149116143c2565b5b61491e8882890161482e565b9150509295509295909350565b60008060408385031215614942576149416143bd565b5b600061495085828601614446565b925050602061496185828601614446565b9150509250929050565b600067ffffffffffffffff82111561498657614985614664565b5b602082029050602081019050919050565b60006149aa6149a58461496b565b6146c4565b905080838252602082019050602084028301858111156149cd576149cc61470b565b5b835b818110156149f657806149e28882614410565b8452602084019350506020810190506149cf565b5050509392505050565b600082601f830112614a1557614a1461465f565b5b8135614a25848260208601614997565b91505092915050565b60008060408385031215614a4557614a446143bd565b5b600083013567ffffffffffffffff811115614a6357614a626143c2565b5b614a6f85828601614a00565b925050602083013567ffffffffffffffff811115614a9057614a8f6143c2565b5b614a9c85828601614779565b9150509250929050565b600081519050919050565b600082825260208201905092915050565b6000819050602082019050919050565b614adb81614425565b82525050565b6000614aed8383614ad2565b60208301905092915050565b6000602082019050919050565b6000614b1182614aa6565b614b1b8185614ab1565b9350614b2683614ac2565b8060005b83811015614b57578151614b3e8882614ae1565b9750614b4983614af9565b925050600181019050614b2a565b5085935050505092915050565b60006020820190508181036000830152614b7e8184614b06565b905092915050565b614b8f8161454a565b8114614b9a57600080fd5b50565b600081359050614bac81614b86565b92915050565b60008060408385031215614bc957614bc86143bd565b5b6000614bd785828601614410565b9250506020614be885828601614b9d565b9150509250929050565b600080fd5b60008083601f840112614c0d57614c0c61465f565b5b8235905067ffffffffffffffff811115614c2a57614c29614bf2565b5b602083019150836001820283011115614c4657614c4561470b565b5b9250929050565b60008060008060008060008060006101008a8c031215614c7057614c6f6143bd565b5b6000614c7e8c828d01614446565b9950506020614c8f8c828d01614446565b9850506040614ca08c828d01614446565b97505060608a013567ffffffffffffffff811115614cc157614cc06143c2565b5b614ccd8c828d01614bf7565b96509650506080614ce08c828d01614446565b94505060a0614cf18c828d01614446565b93505060c0614d028c828d01614446565b92505060e08a013567ffffffffffffffff811115614d2357614d226143c2565b5b614d2f8c828d0161482e565b9150509295985092959850929598565b6000610140820190508181036000830152614d5a818d614604565b9050614d69602083018c61449b565b614d76604083018b61449b565b614d83606083018a61449b565b614d90608083018961449b565b614d9d60a083018861449b565b614daa60c083018761449b565b614db760e083018661449b565b614dc561010083018561449b565b614dd361012083018461449b565b9b9a5050505050505050505050565b60008060408385031215614df957614df86143bd565b5b6000614e0785828601614410565b9250506020614e1885828601614410565b9150509250929050565b600080600080600060a08688031215614e3e57614e3d6143bd565b5b6000614e4c88828901614410565b9550506020614e5d88828901614410565b9450506040614e6e88828901614446565b9350506060614e7f88828901614446565b925050608086013567ffffffffffffffff811115614ea057614e9f6143c2565b5b614eac8882890161482e565b9150509295509295909350565b7f455243313135353a2061646472657373207a65726f206973206e6f742061207660008201527f616c6964206f776e657200000000000000000000000000000000000000000000602082015250565b6000614f15602a836145b8565b9150614f2082614eb9565b604082019050919050565b60006020820190508181036000830152614f4481614f08565b9050919050565b7f4e487b7100000000000000000000000000000000000000000000000000000000600052601160045260246000fd5b6000614f8582614425565b9150614f9083614425565b9250828203905081811115614fa857614fa7614f4b565b5b92915050565b7f4e487b7100000000000000000000000000000000000000000000000000000000600052602260045260246000fd5b60006002820490506001821680614ff557607f821691505b60208210810361500857615007614fae565b5b50919050565b600061501982614425565b915061502483614425565b925082820261503281614425565b9150828204841483151761504957615048614f4b565b5b5092915050565b7f4e487b7100000000000000000000000000000000000000000000000000000000600052601260045260246000fd5b600061508a82614425565b915061509583614425565b9250826150a5576150a4615050565b5b828204905092915050565b7f455243313135353a2063616c6c6572206973206e6f7420746f6b656e206f776e60008201527f6572206f7220617070726f766564000000000000000000000000000000000000602082015250565b600061510c602e836145b8565b9150615117826150b0565b604082019050919050565b6000602082019050818103600083015261513b816150ff565b9050919050565b7f43616c6c6572206973206e6f7420746865206f776e6572000000000000000000600082015250565b60006151786017836145b8565b915061518382615142565b602082019050919050565b600060208201905081810360008301526151a78161516b565b9050919050565b7f5769746864726177206e6f7420616c6c6f776564207768656e20616374697665600082015250565b60006151e46020836145b8565b91506151ef826151ae565b602082019050919050565b60006020820190508181036000830152615213816151d7565b9050919050565b7f5769746864726177206e6f7420616c6c6f77656420616674657220636f6d706c60008201527f6574696f6e000000000000000000000000000000000000000000000000000000602082015250565b60006152766025836145b8565b91506152818261521a565b604082019050919050565b600060208201905081810360008301526152a581615269565b9050919050565b7f5769746864726177206e6f7420616c6c6f776564207768656e2064656661756c60008201527f7465640000000000000000000000000000000000000000000000000000000000602082015250565b60006153086023836145b8565b9150615313826152ac565b604082019050919050565b60006020820190508181036000830152615337816152fb565b9050919050565b7f5769746864726177616c20746f6b656e20616d6f756e7420657863656564732060008201527f746f6b656e20616d6f756e7420696e20636f6e74726163740000000000000000602082015250565b600061539a6038836145b8565b91506153a58261533e565b604082019050919050565b600060208201905081810360008301526153c98161538d565b9050919050565b6153d9816143e7565b82525050565b60006040820190506153f460008301856153d0565b615401602083018461449b565b9392505050565b60008151905061541781614b86565b92915050565b600060208284031215615433576154326143bd565b5b600061544184828501615408565b91505092915050565b7f455243313135353a206163636f756e747320616e6420696473206c656e67746860008201527f206d69736d617463680000000000000000000000000000000000000000000000602082015250565b60006154a66029836145b8565b91506154b18261544a565b604082019050919050565b600060208201905081810360008301526154d581615499565b9050919050565b7f4e487b7100000000000000000000000000000000000000000000000000000000600052603260045260246000fd5b600061551682614425565b91507fffffffffffffffffffffffffffffffffffffffffffffffffffffffffffffffff820361554857615547614f4b565b5b600182019050919050565b600061555e82614425565b915061556983614425565b925082820190508082111561558157615580614f4b565b5b92915050565b7f426f6e6420697320696e61637469766500000000000000000000000000000000600082015250565b60006155bd6010836145b8565b91506155c882615587565b602082019050919050565b600060208201905081810360008301526155ec816155b0565b9050919050565b7f496e73756666696369656e7420626f6e64207175616e746974792072656d616960008201527f6e696e6700000000000000000000000000000000000000000000000000000000602082015250565b600061564f6024836145b8565b915061565a826155f3565b604082019050919050565b6000602082019050818103600083015261567e81615642565b9050919050565b600060608201905061569a60008301866153d0565b6156a760208301856153d0565b6156b4604083018461449b565b949350505050565b7f426f6e64206973206e6f7420636f6d706c657465640000000000000000000000600082015250565b60006156f26015836145b8565b91506156fd826156bc565b602082019050919050565b60006020820190508181036000830152615721816156e5565b9050919050565b7f496e73756666696369656e7420626f6e64207175616e74697479000000000000600082015250565b600061575e601a836145b8565b915061576982615728565b602082019050919050565b6000602082019050818103600083015261578d81615751565b9050919050565b7f426f6e64206973206e6f742064656661756c7465640000000000000000000000600082015250565b60006157ca6015836145b8565b91506157d582615794565b602082019050919050565b600060208201905081810360008301526157f9816157bd565b9050919050565b6000604082019050615815600083018561449b565b615822602083018461449b565b9392505050565b7f59656172206f7074696f6e206f7574206f662072616e67650000000000000000600082015250565b600061585f6018836145b8565b915061586a82615829565b602082019050919050565b6000602082019050818103600083015261588e81615852565b9050919050565b7f416c6c206f626c69676174696f6e732066756c66696c6c656400000000000000600082015250565b60006158cb6019836145b8565b91506158d682615895565b602082019050919050565b600060208201905081810360008301526158fa816158be565b9050919050565b7f4d696e696d756d206f626c69676174696f6e206e6f742066756c66696c6c6564600082015250565b60006159376020836145b8565b915061594282615901565b602082019050919050565b600060208201905081810360008301526159668161592a565b9050919050565b7f46756c66696c6c6d656e742073686f756c64206e6f742065786365656420352560008201527f2061626f7665206f626c69676174696f6e000000000000000000000000000000602082015250565b60006159c96031836145b8565b91506159d48261596d565b604082019050919050565b600060208201905081810360008301526159f8816159bc565b9050919050565b7f426f6e64206973206e6f742063616e63656c6564000000000000000000000000600082015250565b6000615a356014836145b8565b9150615a40826159ff565b602082019050919050565b60006020820190508181036000830152615a6481615a28565b9050919050565b7f426f6e6420697320616c726561647920636f6d706c6574656400000000000000600082015250565b6000615aa16019836145b8565b9150615aac82615a6b565b602082019050919050565b60006020820190508181036000830152615ad081615a94565b9050919050565b7f416374697665206475726174696f6e2073686f756c642062652073686f72746560008201527f72207468616e2031383020646179730000000000000000000000000000000000602082015250565b6000615b33602f836145b8565b9150615b3e82615ad7565b604082019050919050565b60006020820190508181036000830152615b6281615b26565b9050919050565b60008190508160005260206000209050919050565b60006020601f8301049050919050565b600082821b905092915050565b600060088302615bcb7fffffffffffffffffffffffffffffffffffffffffffffffffffffffffffffffff82615b8e565b615bd58683615b8e565b95508019841693508086168417925050509392505050565b6000819050919050565b6000615c12615c0d615c0884614425565b615bed565b614425565b9050919050565b6000819050919050565b615c2c83615bf7565b615c40615c3882615c19565b848454615b9b565b825550505050565b600090565b615c55615c48565b615c60818484615c23565b505050565b5b81811015615c8457615c79600082615c4d565b600181019050615c66565b5050565b601f821115615cc957615c9a81615b69565b615ca384615b7e565b81016020851015615cb2578190505b615cc6615cbe85615b7e565b830182615c65565b50505b505050565b600082821c905092915050565b6000615cec60001984600802615cce565b1980831691505092915050565b6000615d058383615cdb565b9150826002028217905092915050565b615d1e826145ad565b67ffffffffffffffff811115615d3757615d36614664565b5b615d418254614fdd565b615d4c828285615c88565b600060209050601f831160018114615d7f5760008415615d6d578287015190505b615d778582615cf9565b865550615ddf565b601f198416615d8d86615b69565b60005b82811015615db557848901518255600182019150602085019450602081019050615d90565b86831015615dd25784890151615dce601f891682615cdb565b8355505b6001600288020188555050505b505050505050565b6000606082019050615dfc600083018661449b565b615e09602083018561449b565b615e16604083018461449b565b949350505050565b7f626f6e642069732064656661756c746564000000000000000000000000000000600082015250565b6000615e546011836145b8565b9150615e5f82615e1e565b602082019050919050565b60006020820190508181036000830152615e8381615e47565b9050919050565b7f626f6e6420697320636f6d706c65746564000000000000000000000000000000600082015250565b6000615ec06011836145b8565b9150615ecb82615e8a565b602082019050919050565b60006020820190508181036000830152615eef81615eb3565b9050919050565b6000602082019050615f0b60008301846153d0565b92915050565b600081519050615f208161442f565b92915050565b600060208284031215615f3c57615f3b6143bd565b5b6000615f4a84828501615f11565b91505092915050565b7f43616e6e6f742077697468647261772065786365737300000000000000000000600082015250565b6000615f896016836145b8565b9150615f9482615f53565b602082019050919050565b60006020820190508181036000830152615fb881615f7c565b9050919050565b7f43616e6e6f742077697468647261772066726f6d20656d70747920706f6f6c00600082015250565b6000615ff5601f836145b8565b915061600082615fbf565b602082019050919050565b6000602082019050818103600083015261602481615fe8565b9050919050565b7f455243313135353a2069647320616e6420616d6f756e7473206c656e6774682060008201527f6d69736d61746368000000000000000000000000000000000000000000000000602082015250565b60006160876028836145b8565b91506160928261602b565b604082019050919050565b600060208201905081810360008301526160b68161607a565b9050919050565b7f455243313135353a207472616e7366657220746f20746865207a65726f20616460008201527f6472657373000000000000000000000000000000000000000000000000000000602082015250565b60006161196025836145b8565b9150616124826160bd565b604082019050919050565b600060208201905081810360008301526161488161610c565b9050919050565b7f455243313135353a20696e73756666696369656e742062616c616e636520666f60008201527f72207472616e7366657200000000000000000000000000000000000000000000602082015250565b60006161ab602a836145b8565b91506161b68261614f565b604082019050919050565b600060208201905081810360008301526161da8161619e565b9050919050565b600060408201905081810360008301526161fb8185614b06565b9050818103602083015261620f8184614b06565b90509392505050565b7f455243313135353a206275726e2066726f6d20746865207a65726f206164647260008201527f6573730000000000000000000000000000000000000000000000000000000000602082015250565b60006162746023836145b8565b915061627f82616218565b604082019050919050565b600060208201905081810360008301526162a381616267565b9050919050565b7f455243313135353a206275726e20616d6f756e7420657863656564732062616c60008201527f616e636500000000000000000000000000000000000000000000000000000000602082015250565b60006163066024836145b8565b9150616311826162aa565b604082019050919050565b60006020820190508181036000830152616335816162f9565b9050919050565b7f455243313135353a2073657474696e6720617070726f76616c2073746174757360008201527f20666f722073656c660000000000000000000000000000000000000000000000602082015250565b60006163986029836145b8565b91506163a38261633c565b604082019050919050565b600060208201905081810360008301526163c78161638b565b9050919050565b7f455243313135353a206d696e7420746f20746865207a65726f2061646472657360008201527f7300000000000000000000000000000000000000000000000000000000000000602082015250565b600061642a6021836145b8565b9150616435826163ce565b604082019050919050565b600060208201905081810360008301526164598161641d565b9050919050565b600081519050919050565b600082825260208201905092915050565b600061648782616460565b616491818561646b565b93506164a18185602086016145c9565b6164aa816145f3565b840191505092915050565b600060a0820190506164ca60008301886153d0565b6164d760208301876153d0565b81810360408301526164e98186614b06565b905081810360608301526164fd8185614b06565b90508181036080830152616511818461647c565b90509695505050505050565b60008151905061652c816144f1565b92915050565b600060208284031215616548576165476143bd565b5b60006165568482850161651d565b91505092915050565b60008160e01c9050919050565b600060033d111561658b5760046000803e61658860005161655f565b90505b90565b600060443d1061661b576165a06143b3565b60043d036004823e80513d602482011167ffffffffffffffff821117156165c857505061661b565b808201805167ffffffffffffffff8111156165e6575050505061661b565b80602083010160043d03850181111561660357505050505061661b565b61661282602001850186614693565b82955050505050505b90565b7f455243313135353a207472616e7366657220746f206e6f6e2d4552433131353560008201527f526563656976657220696d706c656d656e746572000000000000000000000000602082015250565b600061667a6034836145b8565b91506166858261661e565b604082019050919050565b600060208201905081810360008301526166a98161666d565b9050919050565b7f455243313135353a204552433131353552656365697665722072656a6563746560008201527f6420746f6b656e73000000000000000000000000000000000000000000000000602082015250565b600061670c6028836145b8565b9150616717826166b0565b604082019050919050565b6000602082019050818103600083015261673b816166ff565b9050919050565b600060a08201905061675760008301886153d0565b61676460208301876153d0565b616771604083018661449b565b61677e606083018561449b565b8181036080830152616790818461647c565b9050969550505050505056fea2646970667358221220dca4a5caa07402b8bfeb5c4f579966a6dd22f40804c17325105e5bf5647f753e64736f6c63430008110033",
  "linkReferences": {},
  "deployedLinkReferences": {}
}