{
  "_format": "hh-sol-artifact-1",
  "contractName": "InstallmentBondFactory",
  "sourceName": "contracts/InstallmentBondFactory.sol",
  "abi": [
    {
      "inputs": [
        {
          "internalType": "string",
          "name": "uri",
          "type": "string"
        },
        {
          "internalType": "address",
          "name": "token",
          "type": "address"
        },
        {
          "internalType": "address",
          "name": "deployer",
          "type": "address"
        }
      ],
      "stateMutability": "nonpayable",
      "type": "constructor"
    },
    {
      "anonymous": false,
      "inputs": [
        {
          "indexed": true,
          "internalType": "address",
          "name": "account",
          "type": "address"
        },
        {
          "indexed": true,
          "internalType": "address",
          "name": "operator",
          "type": "address"
        },
        {
          "indexed": false,
          "internalType": "bool",
          "name": "approved",
          "type": "bool"
        }
      ],
      "name": "ApprovalForAll",
      "type": "event"
    },
    {
      "anonymous": false,
      "inputs": [
        {
          "indexed": true,
          "internalType": "uint256",
          "name": "id",
          "type": "uint256"
        },
        {
          "indexed": false,
          "internalType": "uint256",
          "name": "totalDebt",
          "type": "uint256"
        },
        {
          "indexed": false,
          "internalType": "uint256",
          "name": "paidDebt",
          "type": "uint256"
        }
      ],
      "name": "Completed",
      "type": "event"
    },
    {
      "anonymous": false,
      "inputs": [
        {
          "indexed": true,
          "internalType": "uint256",
          "name": "id",
          "type": "uint256"
        },
        {
          "indexed": false,
          "internalType": "uint256",
          "name": "totalDebt",
          "type": "uint256"
        },
        {
          "indexed": false,
          "internalType": "uint256",
          "name": "paidDebt",
          "type": "uint256"
        }
      ],
      "name": "Defaulted",
      "type": "event"
    },
    {
      "anonymous": false,
      "inputs": [
        {
          "indexed": true,
          "internalType": "uint256",
          "name": "id",
          "type": "uint256"
        },
        {
          "indexed": false,
          "internalType": "uint256",
          "name": "bondQuantity",
          "type": "uint256"
        },
        {
          "indexed": false,
          "internalType": "uint256",
          "name": "tokenAmountPerBond",
          "type": "uint256"
        },
        {
          "indexed": false,
          "internalType": "uint256",
          "name": "couponRate",
          "type": "uint256"
        },
        {
          "indexed": false,
          "internalType": "uint256",
          "name": "maturityDate",
          "type": "uint256"
        }
      ],
      "name": "Issued",
      "type": "event"
    },
    {
      "anonymous": false,
      "inputs": [
        {
          "indexed": true,
          "internalType": "address",
          "name": "operator",
          "type": "address"
        },
        {
          "indexed": true,
          "internalType": "address",
          "name": "from",
          "type": "address"
        },
        {
          "indexed": true,
          "internalType": "address",
          "name": "to",
          "type": "address"
        },
        {
          "indexed": false,
          "internalType": "uint256[]",
          "name": "ids",
          "type": "uint256[]"
        },
        {
          "indexed": false,
          "internalType": "uint256[]",
          "name": "values",
          "type": "uint256[]"
        }
      ],
      "name": "TransferBatch",
      "type": "event"
    },
    {
      "anonymous": false,
      "inputs": [
        {
          "indexed": true,
          "internalType": "address",
          "name": "operator",
          "type": "address"
        },
        {
          "indexed": true,
          "internalType": "address",
          "name": "from",
          "type": "address"
        },
        {
          "indexed": true,
          "internalType": "address",
          "name": "to",
          "type": "address"
        },
        {
          "indexed": false,
          "internalType": "uint256",
          "name": "id",
          "type": "uint256"
        },
        {
          "indexed": false,
          "internalType": "uint256",
          "name": "value",
          "type": "uint256"
        }
      ],
      "name": "TransferSingle",
      "type": "event"
    },
    {
      "anonymous": false,
      "inputs": [
        {
          "indexed": false,
          "internalType": "string",
          "name": "value",
          "type": "string"
        },
        {
          "indexed": true,
          "internalType": "uint256",
          "name": "id",
          "type": "uint256"
        }
      ],
      "name": "URI",
      "type": "event"
    },
    {
      "inputs": [
        {
          "internalType": "address",
          "name": "account",
          "type": "address"
        },
        {
          "internalType": "uint256",
          "name": "id",
          "type": "uint256"
        }
      ],
      "name": "balanceOf",
      "outputs": [
        {
          "internalType": "uint256",
          "name": "",
          "type": "uint256"
        }
      ],
      "stateMutability": "view",
      "type": "function"
    },
    {
      "inputs": [
        {
          "internalType": "address[]",
          "name": "accounts",
          "type": "address[]"
        },
        {
          "internalType": "uint256[]",
          "name": "ids",
          "type": "uint256[]"
        }
      ],
      "name": "balanceOfBatch",
      "outputs": [
        {
          "internalType": "uint256[]",
          "name": "",
          "type": "uint256[]"
        }
      ],
      "stateMutability": "view",
      "type": "function"
    },
    {
      "inputs": [],
      "name": "baseToken",
      "outputs": [
        {
          "internalType": "address",
          "name": "",
          "type": "address"
        }
      ],
      "stateMutability": "view",
      "type": "function"
    },
    {
      "inputs": [
        {
          "internalType": "uint256",
          "name": "id",
          "type": "uint256"
        }
      ],
      "name": "bondMetadata",
      "outputs": [
        {
          "internalType": "string",
          "name": "",
          "type": "string"
        },
        {
          "internalType": "uint256",
          "name": "",
          "type": "uint256"
        },
        {
          "internalType": "uint256",
          "name": "",
          "type": "uint256"
        },
        {
          "internalType": "uint256",
          "name": "",
          "type": "uint256"
        },
        {
          "internalType": "uint256",
          "name": "",
          "type": "uint256"
        },
        {
          "internalType": "uint256",
          "name": "",
          "type": "uint256"
        },
        {
          "internalType": "uint256",
          "name": "",
          "type": "uint256"
        },
        {
          "internalType": "uint256",
          "name": "",
          "type": "uint256"
        },
        {
          "internalType": "uint256",
          "name": "",
          "type": "uint256"
        },
        {
          "internalType": "uint256",
          "name": "",
          "type": "uint256"
        }
      ],
      "stateMutability": "view",
      "type": "function"
    },
    {
      "inputs": [
        {
          "internalType": "uint256",
          "name": "id",
          "type": "uint256"
        }
      ],
      "name": "couponRate",
      "outputs": [
        {
          "internalType": "uint256",
          "name": "",
          "type": "uint256"
        }
      ],
      "stateMutability": "view",
      "type": "function"
    },
    {
      "inputs": [
        {
          "internalType": "uint256",
          "name": "id",
          "type": "uint256"
        },
        {
          "internalType": "uint256",
          "name": "tokenAmount",
          "type": "uint256"
        }
      ],
      "name": "deposit",
      "outputs": [],
      "stateMutability": "nonpayable",
      "type": "function"
    },
    {
      "inputs": [
        {
          "internalType": "uint256",
          "name": "id",
          "type": "uint256"
        }
      ],
      "name": "designatedTokenPool",
      "outputs": [
        {
          "internalType": "uint256",
          "name": "",
          "type": "uint256"
        }
      ],
      "stateMutability": "view",
      "type": "function"
    },
    {
      "inputs": [
        {
          "internalType": "uint256",
          "name": "id",
          "type": "uint256"
        },
        {
          "internalType": "uint256",
          "name": "tokenAmountPerBond",
          "type": "uint256"
        }
      ],
      "name": "fulfillObligationsAndLock",
      "outputs": [],
      "stateMutability": "nonpayable",
      "type": "function"
    },
    {
      "inputs": [],
      "name": "fundsRaised",
      "outputs": [
        {
          "internalType": "uint256",
          "name": "",
          "type": "uint256"
        }
      ],
      "stateMutability": "view",
      "type": "function"
    },
    {
      "inputs": [
        {
          "internalType": "uint256",
          "name": "id",
          "type": "uint256"
        }
      ],
      "name": "hasReachedMaturity",
      "outputs": [
        {
          "internalType": "bool",
          "name": "",
          "type": "bool"
        }
      ],
      "stateMutability": "view",
      "type": "function"
    },
    {
      "inputs": [
        {
          "internalType": "uint256",
          "name": "id",
          "type": "uint256"
        }
      ],
      "name": "isActive",
      "outputs": [
        {
          "internalType": "bool",
          "name": "",
          "type": "bool"
        }
      ],
      "stateMutability": "view",
      "type": "function"
    },
    {
      "inputs": [
        {
          "internalType": "address",
          "name": "account",
          "type": "address"
        },
        {
          "internalType": "address",
          "name": "operator",
          "type": "address"
        }
      ],
      "name": "isApprovedForAll",
      "outputs": [
        {
          "internalType": "bool",
          "name": "",
          "type": "bool"
        }
      ],
      "stateMutability": "view",
      "type": "function"
    },
    {
      "inputs": [
        {
          "internalType": "uint256",
          "name": "id",
          "type": "uint256"
        }
      ],
      "name": "isCanceled",
      "outputs": [
        {
          "internalType": "bool",
          "name": "",
          "type": "bool"
        }
      ],
      "stateMutability": "view",
      "type": "function"
    },
    {
      "inputs": [
        {
          "internalType": "uint256",
          "name": "id",
          "type": "uint256"
        }
      ],
      "name": "isCompleted",
      "outputs": [
        {
          "internalType": "bool",
          "name": "",
          "type": "bool"
        }
      ],
      "stateMutability": "view",
      "type": "function"
    },
    {
      "inputs": [
        {
          "internalType": "uint256",
          "name": "id",
          "type": "uint256"
        }
      ],
      "name": "isCompletedInTheory",
      "outputs": [
        {
          "internalType": "bool",
          "name": "",
          "type": "bool"
        }
      ],
      "stateMutability": "view",
      "type": "function"
    },
    {
      "inputs": [
        {
          "internalType": "uint256",
          "name": "id",
          "type": "uint256"
        }
      ],
      "name": "isDefaulted",
      "outputs": [
        {
          "internalType": "bool",
          "name": "",
          "type": "bool"
        }
      ],
      "stateMutability": "view",
      "type": "function"
    },
    {
      "inputs": [
        {
          "internalType": "uint256",
          "name": "id",
          "type": "uint256"
        }
      ],
      "name": "isDefaultedInTheory",
      "outputs": [
        {
          "internalType": "bool",
          "name": "",
          "type": "bool"
        }
      ],
      "stateMutability": "view",
      "type": "function"
    },
    {
      "inputs": [
        {
          "internalType": "uint256",
          "name": "id",
          "type": "uint256"
        }
      ],
      "name": "isFulfilled",
      "outputs": [
        {
          "internalType": "bool",
          "name": "",
          "type": "bool"
        }
      ],
      "stateMutability": "view",
      "type": "function"
    },
    {
      "inputs": [
        {
          "internalType": "uint256",
          "name": "id",
          "type": "uint256"
        }
      ],
      "name": "isFullyRedeemed",
      "outputs": [
        {
          "internalType": "bool",
          "name": "",
          "type": "bool"
        }
      ],
      "stateMutability": "view",
      "type": "function"
    },
    {
      "inputs": [
        {
          "internalType": "uint256",
          "name": "bondQuantity",
          "type": "uint256"
        },
        {
          "internalType": "uint256",
          "name": "minPurchasedQuantity",
          "type": "uint256"
        },
        {
          "internalType": "uint256",
          "name": "tokenAmountPerBond",
          "type": "uint256"
        },
        {
          "internalType": "string",
          "name": "ticker",
          "type": "string"
        },
        {
          "internalType": "uint256",
          "name": "yearOption",
          "type": "uint256"
        },
        {
          "internalType": "uint256",
          "name": "activeDurationInDays",
          "type": "uint256"
        },
        {
          "internalType": "uint256",
          "name": "rate",
          "type": "uint256"
        }
      ],
      "name": "issue",
      "outputs": [
        {
          "internalType": "uint256",
          "name": "id",
          "type": "uint256"
        }
      ],
      "stateMutability": "nonpayable",
      "type": "function"
    },
    {
      "inputs": [
        {
          "internalType": "uint256",
          "name": "id",
          "type": "uint256"
        }
      ],
      "name": "lockedTokenAmount",
      "outputs": [
        {
          "internalType": "uint256",
          "name": "",
          "type": "uint256"
        }
      ],
      "stateMutability": "view",
      "type": "function"
    },
    {
      "inputs": [
        {
          "internalType": "uint256",
          "name": "id",
          "type": "uint256"
        }
      ],
      "name": "lockedTokenAmountPerBond",
      "outputs": [
        {
          "internalType": "uint256",
          "name": "",
          "type": "uint256"
        }
      ],
      "stateMutability": "view",
      "type": "function"
    },
    {
      "inputs": [
        {
          "internalType": "uint256",
          "name": "id",
          "type": "uint256"
        }
      ],
      "name": "markAsCompleted",
      "outputs": [],
      "stateMutability": "nonpayable",
      "type": "function"
    },
    {
      "inputs": [
        {
          "internalType": "uint256",
          "name": "id",
          "type": "uint256"
        }
      ],
      "name": "markAsDefaulted",
      "outputs": [],
      "stateMutability": "nonpayable",
      "type": "function"
    },
    {
      "inputs": [
        {
          "internalType": "uint256",
          "name": "id",
          "type": "uint256"
        }
      ],
      "name": "minObligationTokenAmountPerBondList",
      "outputs": [
        {
          "internalType": "uint256[]",
          "name": "",
          "type": "uint256[]"
        }
      ],
      "stateMutability": "view",
      "type": "function"
    },
    {
      "inputs": [
        {
          "internalType": "uint256",
          "name": "id",
          "type": "uint256"
        }
      ],
      "name": "nextObligationDate",
      "outputs": [
        {
          "internalType": "uint256",
          "name": "",
          "type": "uint256"
        }
      ],
      "stateMutability": "view",
      "type": "function"
    },
    {
      "inputs": [
        {
          "internalType": "uint256",
          "name": "id",
          "type": "uint256"
        }
      ],
      "name": "numberOfTimesFulfilled",
      "outputs": [
        {
          "internalType": "uint256",
          "name": "",
          "type": "uint256"
        }
      ],
      "stateMutability": "view",
      "type": "function"
    },
    {
      "inputs": [],
      "name": "owner",
      "outputs": [
        {
          "internalType": "address",
          "name": "",
          "type": "address"
        }
      ],
      "stateMutability": "view",
      "type": "function"
    },
    {
      "inputs": [
        {
          "internalType": "uint256",
          "name": "id",
          "type": "uint256"
        }
      ],
      "name": "poolAmount",
      "outputs": [
        {
          "internalType": "uint256",
          "name": "",
          "type": "uint256"
        }
      ],
      "stateMutability": "view",
      "type": "function"
    },
    {
      "inputs": [
        {
          "internalType": "uint256",
          "name": "id",
          "type": "uint256"
        }
      ],
      "name": "principal",
      "outputs": [
        {
          "internalType": "uint256",
          "name": "",
          "type": "uint256"
        }
      ],
      "stateMutability": "view",
      "type": "function"
    },
    {
      "inputs": [
        {
          "internalType": "uint256",
          "name": "id",
          "type": "uint256"
        }
      ],
      "name": "principalWithInterest",
      "outputs": [
        {
          "internalType": "uint256",
          "name": "",
          "type": "uint256"
        }
      ],
      "stateMutability": "view",
      "type": "function"
    },
    {
      "inputs": [
        {
          "internalType": "uint256",
          "name": "id",
          "type": "uint256"
        },
        {
          "internalType": "uint256",
          "name": "bondQuantity",
          "type": "uint256"
        }
      ],
      "name": "purchase",
      "outputs": [],
      "stateMutability": "nonpayable",
      "type": "function"
    },
    {
      "inputs": [
        {
          "internalType": "uint256",
          "name": "id",
          "type": "uint256"
        },
        {
          "internalType": "uint256",
          "name": "bondQuantity",
          "type": "uint256"
        }
      ],
      "name": "redeem",
      "outputs": [],
      "stateMutability": "nonpayable",
      "type": "function"
    },
    {
      "inputs": [
        {
          "internalType": "uint256",
          "name": "id",
          "type": "uint256"
        },
        {
          "internalType": "uint256",
          "name": "bondQuantity",
          "type": "uint256"
        }
      ],
      "name": "redeemCanceled",
      "outputs": [],
      "stateMutability": "nonpayable",
      "type": "function"
    },
    {
      "inputs": [
        {
          "internalType": "uint256",
          "name": "id",
          "type": "uint256"
        },
        {
          "internalType": "uint256",
          "name": "bondQuantity",
          "type": "uint256"
        }
      ],
      "name": "redeemDefaulted",
      "outputs": [],
      "stateMutability": "nonpayable",
      "type": "function"
    },
    {
      "inputs": [
        {
          "internalType": "uint256",
          "name": "id",
          "type": "uint256"
        }
      ],
      "name": "remainingQuantity",
      "outputs": [
        {
          "internalType": "uint256",
          "name": "",
          "type": "uint256"
        }
      ],
      "stateMutability": "view",
      "type": "function"
    },
    {
      "inputs": [
        {
          "internalType": "uint256",
          "name": "tokenAmountPerBond",
          "type": "uint256"
        },
        {
          "internalType": "uint256",
          "name": "yearOption",
          "type": "uint256"
        }
      ],
      "name": "retrieveMinObligationList",
      "outputs": [
        {
          "internalType": "uint256[]",
          "name": "",
          "type": "uint256[]"
        }
      ],
      "stateMutability": "view",
      "type": "function"
    },
    {
      "inputs": [
        {
          "internalType": "address",
          "name": "from",
          "type": "address"
        },
        {
          "internalType": "address",
          "name": "to",
          "type": "address"
        },
        {
          "internalType": "uint256[]",
          "name": "ids",
          "type": "uint256[]"
        },
        {
          "internalType": "uint256[]",
          "name": "amounts",
          "type": "uint256[]"
        },
        {
          "internalType": "bytes",
          "name": "data",
          "type": "bytes"
        }
      ],
      "name": "safeBatchTransferFrom",
      "outputs": [],
      "stateMutability": "nonpayable",
      "type": "function"
    },
    {
      "inputs": [
        {
          "internalType": "address",
          "name": "from",
          "type": "address"
        },
        {
          "internalType": "address",
          "name": "to",
          "type": "address"
        },
        {
          "internalType": "uint256",
          "name": "id",
          "type": "uint256"
        },
        {
          "internalType": "uint256",
          "name": "amount",
          "type": "uint256"
        },
        {
          "internalType": "bytes",
          "name": "data",
          "type": "bytes"
        }
      ],
      "name": "safeTransferFrom",
      "outputs": [],
      "stateMutability": "nonpayable",
      "type": "function"
    },
    {
      "inputs": [
        {
          "internalType": "address",
          "name": "operator",
          "type": "address"
        },
        {
          "internalType": "bool",
          "name": "approved",
          "type": "bool"
        }
      ],
      "name": "setApprovalForAll",
      "outputs": [],
      "stateMutability": "nonpayable",
      "type": "function"
    },
    {
      "inputs": [
        {
          "internalType": "bytes4",
          "name": "interfaceId",
          "type": "bytes4"
        }
      ],
      "name": "supportsInterface",
      "outputs": [
        {
          "internalType": "bool",
          "name": "",
          "type": "bool"
        }
      ],
      "stateMutability": "view",
      "type": "function"
    },
    {
      "inputs": [
        {
          "internalType": "uint256",
          "name": "id",
          "type": "uint256"
        }
      ],
      "name": "timeElapsed",
      "outputs": [
        {
          "internalType": "uint256",
          "name": "",
          "type": "uint256"
        }
      ],
      "stateMutability": "view",
      "type": "function"
    },
    {
      "inputs": [
        {
          "internalType": "uint256",
          "name": "id",
          "type": "uint256"
        }
      ],
      "name": "timeRemainingToEndOfActive",
      "outputs": [
        {
          "internalType": "uint256",
          "name": "",
          "type": "uint256"
        }
      ],
      "stateMutability": "view",
      "type": "function"
    },
    {
      "inputs": [
        {
          "internalType": "uint256",
          "name": "id",
          "type": "uint256"
        }
      ],
      "name": "timeRemainingToMaturity",
      "outputs": [
        {
          "internalType": "uint256",
          "name": "",
          "type": "uint256"
        }
      ],
      "stateMutability": "view",
      "type": "function"
    },
    {
      "inputs": [],
      "name": "tvl",
      "outputs": [
        {
          "internalType": "uint256",
          "name": "",
          "type": "uint256"
        }
      ],
      "stateMutability": "view",
      "type": "function"
    },
    {
      "inputs": [
        {
          "internalType": "uint256",
          "name": "",
          "type": "uint256"
        }
      ],
      "name": "uri",
      "outputs": [
        {
          "internalType": "string",
          "name": "",
          "type": "string"
        }
      ],
      "stateMutability": "view",
      "type": "function"
    },
    {
      "inputs": [
        {
          "internalType": "uint256",
          "name": "id",
          "type": "uint256"
        },
        {
          "internalType": "uint256",
          "name": "tokenAmount",
          "type": "uint256"
        }
      ],
      "name": "withdraw",
      "outputs": [],
      "stateMutability": "nonpayable",
      "type": "function"
    },
    {
      "inputs": [
        {
          "internalType": "uint256",
          "name": "id",
          "type": "uint256"
        }
      ],
      "name": "withdrawExcess",
      "outputs": [],
      "stateMutability": "nonpayable",
      "type": "function"
    },
    {
      "inputs": [
        {
          "internalType": "uint256",
          "name": "option",
          "type": "uint256"
        }
      ],
      "name": "yearOptionToDays",
      "outputs": [
        {
          "internalType": "uint256",
          "name": "",
          "type": "uint256"
        }
      ],
      "stateMutability": "pure",
      "type": "function"
    },
    {
      "inputs": [
        {
          "internalType": "uint256",
          "name": "option",
          "type": "uint256"
        }
      ],
      "name": "yearOptionToObligationRateList",
      "outputs": [
        {
          "internalType": "uint256[]",
          "name": "",
          "type": "uint256[]"
        }
      ],
      "stateMutability": "view",
      "type": "function"
    }
  ],
  "bytecode": "0x60c060405260006003556040518060a00160405280600560ff168152602001600560ff168152602001600a60ff168152602001600f60ff168152602001600f60ff16815250600d906005620000569291906200027b565b50604051806101200160405280600260ff168152602001600360ff168152602001600560ff168152602001600560ff168152602001600560ff168152602001600a60ff168152602001600a60ff168152602001600f60ff168152602001600f60ff16815250600e906009620000cd929190620002d2565b50604051806102600160405280600260ff168152602001600260ff168152602001600260ff168152602001600460ff168152602001600560ff168152602001600560ff168152602001600560ff168152602001600560ff168152602001600560ff168152602001600560ff168152602001600560ff168152602001600560ff168152602001600560ff168152602001600560ff168152602001600560ff168152602001600560ff168152602001600560ff168152602001600560ff168152602001600a60ff16815250600f906013620001a892919062000329565b50348015620001b657600080fd5b50604051620074af380380620074af8339818101604052810190620001dc919062000597565b82828282620001f1816200026660201b60201c565b508073ffffffffffffffffffffffffffffffffffffffff1660808173ffffffffffffffffffffffffffffffffffffffff16815250508173ffffffffffffffffffffffffffffffffffffffff1660a08173ffffffffffffffffffffffffffffffffffffffff168152505050505050505062000944565b80600290816200027791906200085d565b5050565b828054828255906000526020600020908101928215620002bf579160200282015b82811115620002be578251829060ff169055916020019190600101906200029c565b5b509050620002ce919062000380565b5090565b82805482825590600052602060002090810192821562000316579160200282015b8281111562000315578251829060ff16905591602001919060010190620002f3565b5b50905062000325919062000380565b5090565b8280548282559060005260206000209081019282156200036d579160200282015b828111156200036c578251829060ff169055916020019190600101906200034a565b5b5090506200037c919062000380565b5090565b5b808211156200039b57600081600090555060010162000381565b5090565b6000604051905090565b600080fd5b600080fd5b600080fd5b600080fd5b6000601f19601f8301169050919050565b7f4e487b7100000000000000000000000000000000000000000000000000000000600052604160045260246000fd5b6200040882620003bd565b810181811067ffffffffffffffff821117156200042a5762000429620003ce565b5b80604052505050565b60006200043f6200039f565b90506200044d8282620003fd565b919050565b600067ffffffffffffffff82111562000470576200046f620003ce565b5b6200047b82620003bd565b9050602081019050919050565b60005b83811015620004a85780820151818401526020810190506200048b565b60008484015250505050565b6000620004cb620004c58462000452565b62000433565b905082815260208101848484011115620004ea57620004e9620003b8565b5b620004f784828562000488565b509392505050565b600082601f830112620005175762000516620003b3565b5b815162000529848260208601620004b4565b91505092915050565b600073ffffffffffffffffffffffffffffffffffffffff82169050919050565b60006200055f8262000532565b9050919050565b620005718162000552565b81146200057d57600080fd5b50565b600081519050620005918162000566565b92915050565b600080600060608486031215620005b357620005b2620003a9565b5b600084015167ffffffffffffffff811115620005d457620005d3620003ae565b5b620005e286828701620004ff565b9350506020620005f58682870162000580565b9250506040620006088682870162000580565b9150509250925092565b600081519050919050565b7f4e487b7100000000000000000000000000000000000000000000000000000000600052602260045260246000fd5b600060028204905060018216806200066557607f821691505b6020821081036200067b576200067a6200061d565b5b50919050565b60008190508160005260206000209050919050565b60006020601f8301049050919050565b600082821b905092915050565b600060088302620006e57fffffffffffffffffffffffffffffffffffffffffffffffffffffffffffffffff82620006a6565b620006f18683620006a6565b95508019841693508086168417925050509392505050565b6000819050919050565b6000819050919050565b60006200073e62000738620007328462000709565b62000713565b62000709565b9050919050565b6000819050919050565b6200075a836200071d565b62000772620007698262000745565b848454620006b3565b825550505050565b600090565b620007896200077a565b620007968184846200074f565b505050565b5b81811015620007be57620007b26000826200077f565b6001810190506200079c565b5050565b601f8211156200080d57620007d78162000681565b620007e28462000696565b81016020851015620007f2578190505b6200080a620008018562000696565b8301826200079b565b50505b505050565b600082821c905092915050565b6000620008326000198460080262000812565b1980831691505092915050565b60006200084d83836200081f565b9150826002028217905092915050565b620008688262000612565b67ffffffffffffffff811115620008845762000883620003ce565b5b6200089082546200064c565b6200089d828285620007c2565b600060209050601f831160018114620008d55760008415620008c0578287015190505b620008cc85826200083f565b8655506200093c565b601f198416620008e58662000681565b60005b828110156200090f57848901518255600182019150602085019450602081019050620008e8565b868310156200092f57848901516200092b601f8916826200081f565b8355505b6001600288020188555050505b505050505050565b60805160a051616ad5620009da600039600081816111f2015281816116c1015281816118d701528181611dab0152818161202f015281816124c3015281816126580152818161290901528181612b3a01528181612ced01528181612f0201526130f7015260008181610f9201528181611b710152818161211d01528181612b9301528181612fa1015261331d0152616ad56000f3fe608060405234801561001057600080fd5b50600436106102d55760003560e01c80638da5cb5b11610182578063c36177fc116100e9578063e5328e06116100a2578063e985e9c51161007c578063e985e9c514610a4b578063f0d8100a14610a7b578063f242432a14610aab578063fcbc669a14610ac7576102d5565b8063e5328e06146109e1578063e755ddd7146109ff578063e885809014610a1b576102d5565b8063c36177fc146108e7578063c372fb9114610917578063c55dae6314610947578063d3b7811b14610965578063e2bbb15814610995578063e52270e0146109b1576102d5565b8063a996ef081161013b578063a996ef0814610817578063abac75e114610833578063af73e2c914610863578063b09f2b1c1461087f578063be5ba4901461089b578063c0a6026c146108cb576102d5565b80638da5cb5b146107315780638f0dbf771461074f578063932a8de01461077f578063a22cb465146107af578063a8743022146107cb578063a9385a5c146107e7576102d5565b806339e3af9b1161024157806370876c98116101fa5780637cbc2373116101d45780637cbc23731461067c57806382afd23b1461069857806388bdc083146106c85780638c3526c2146106f8576102d5565b806370876c981461060057806377e2a08b1461061c5780637a41984b1461064c576102d5565b806339e3af9b14610506578063441a3e70146105365780634e1273f414610552578063549493bb146105825780636681b9fd146105b25780636ff80d93146105d0576102d5565b806314f294931161029357806314f29493146103fa5780631add02711461042a578063239f60da1461045a5780632eb2c2d61461048a5780632f3ad61f146104a65780633097afb8146104d6576102d5565b8062fdd58e146102da57806301ffc9a71461030a578063021594971461033a57806308913ce81461036a578063091490201461039a5780630e89341c146103ca575b600080fd5b6102f460048036038101906102ef9190614780565b610af7565b60405161030191906147cf565b60405180910390f35b610324600480360381019061031f9190614842565b610bbf565b604051610331919061488a565b60405180910390f35b610354600480360381019061034f91906148a5565b610ca1565b60405161036191906147cf565b60405180910390f35b610384600480360381019061037f91906148a5565b610cbe565b60405161039191906147cf565b60405180910390f35b6103b460048036038101906103af91906148a5565b610ce9565b6040516103c1919061488a565b60405180910390f35b6103e460048036038101906103df91906148a5565b610d1f565b6040516103f19190614962565b60405180910390f35b610414600480360381019061040f91906148a5565b610db3565b60405161042191906147cf565b60405180910390f35b610444600480360381019061043f91906148a5565b610df1565b60405161045191906147cf565b60405180910390f35b610474600480360381019061046f91906148a5565b610e4a565b60405161048191906147cf565b60405180910390f35b6104a4600480360381019061049f9190614b81565b610e67565b005b6104c060048036038101906104bb91906148a5565b610f08565b6040516104cd919061488a565b60405180910390f35b6104f060048036038101906104eb91906148a5565b610f32565b6040516104fd919061488a565b60405180910390f35b610520600480360381019061051b91906148a5565b610f6b565b60405161052d919061488a565b60405180910390f35b610550600480360381019061054b9190614c50565b610f90565b005b61056c60048036038101906105679190614d53565b611293565b6040516105799190614e89565b60405180910390f35b61059c600480360381019061059791906148a5565b6113ac565b6040516105a9919061488a565b60405180910390f35b6105ba6113de565b6040516105c791906147cf565b60405180910390f35b6105ea60048036038101906105e591906148a5565b6113e8565b6040516105f7919061488a565b60405180910390f35b61061a60048036038101906106159190614c50565b611480565b005b610636600480360381019061063191906148a5565b611766565b60405161064391906147cf565b60405180910390f35b610666600480360381019061066191906148a5565b6117bf565b604051610673919061488a565b60405180910390f35b61069660048036038101906106919190614c50565b6117e9565b005b6106b260048036038101906106ad91906148a5565b6119a3565b6040516106bf919061488a565b60405180910390f35b6106e260048036038101906106dd91906148a5565b6119c6565b6040516106ef91906147cf565b60405180910390f35b610712600480360381019061070d91906148a5565b6119f9565b6040516107289a99989796959493929190614eab565b60405180910390f35b610739611b6d565b6040516107469190614f5d565b60405180910390f35b610769600480360381019061076491906148a5565b611b95565b604051610776919061488a565b60405180910390f35b610799600480360381019061079491906148a5565b611bb7565b6040516107a691906147cf565b60405180910390f35b6107c960048036038101906107c49190614fa4565b611bf5565b005b6107e560048036038101906107e091906148a5565b611c0b565b005b61080160048036038101906107fc91906148a5565b611e8a565b60405161080e91906147cf565b60405180910390f35b610831600480360381019061082c9190614c50565b611f41565b005b61084d600480360381019061084891906148a5565b6120fb565b60405161085a91906147cf565b60405180910390f35b61087d60048036038101906108789190614c50565b61211b565b005b61089960048036038101906108949190614c50565b612567565b005b6108b560048036038101906108b091906148a5565b612724565b6040516108c29190614e89565b60405180910390f35b6108e560048036038101906108e091906148a5565b61278f565b005b61090160048036038101906108fc9190614c50565b6129e8565b60405161090e9190614e89565b60405180910390f35b610931600480360381019061092c91906148a5565b612b19565b60405161093e91906147cf565b60405180910390f35b61094f612b36565b60405161095c9190614f5d565b60405180910390f35b61097f600480360381019061097a91906148a5565b612b5e565b60405161098c91906147cf565b60405180910390f35b6109af60048036038101906109aa9190614c50565b612b91565b005b6109cb60048036038101906109c691906148a5565b612d90565b6040516109d89190614e89565b60405180910390f35b6109e9612efe565b6040516109f691906147cf565b60405180910390f35b610a196004803603810190610a1491906148a5565b612f9f565b005b610a356004803603810190610a3091906148a5565b6131aa565b604051610a4291906147cf565b60405180910390f35b610a656004803603810190610a609190614fe4565b6131c7565b604051610a72919061488a565b60405180910390f35b610a956004803603810190610a9091906148a5565b61325b565b604051610aa291906147cf565b60405180910390f35b610ac56004803603810190610ac09190615024565b613278565b005b610ae16004803603810190610adc9190615116565b613319565b604051610aee91906147cf565b60405180910390f35b60008073ffffffffffffffffffffffffffffffffffffffff168373ffffffffffffffffffffffffffffffffffffffff1603610b67576040517f08c379a0000000000000000000000000000000000000000000000000000000008152600401610b5e9061524a565b60405180910390fd5b60008083815260200190815260200160002060008473ffffffffffffffffffffffffffffffffffffffff1673ffffffffffffffffffffffffffffffffffffffff16815260200190815260200160002054905092915050565b60007fd9b67a26000000000000000000000000000000000000000000000000000000007bffffffffffffffffffffffffffffffffffffffffffffffffffffffff1916827bffffffffffffffffffffffffffffffffffffffffffffffffffffffff19161480610c8a57507f0e89341c000000000000000000000000000000000000000000000000000000007bffffffffffffffffffffffffffffffffffffffffffffffffffffffff1916827bffffffffffffffffffffffffffffffffffffffffffffffffffffffff1916145b80610c9a5750610c9982613683565b5b9050919050565b600060086000838152602001908152602001600020549050919050565b6000600560008381526020019081526020016000206002015442610ce29190615299565b9050919050565b60006005600083815260200190815260200160002060080154600660008481526020019081526020016000205410159050919050565b606060028054610d2e906152fc565b80601f0160208091040260200160405190810160405280929190818152602001828054610d5a906152fc565b8015610da75780601f10610d7c57610100808354040283529160200191610da7565b820191906000526020600020905b815481529060010190602001808311610d8a57829003601f168201915b50505050509050919050565b600060066000838152602001908152602001600020546005600084815260200190815260200160002060010154610dea919061532d565b9050919050565b6000670de0b6b3a76400006005600084815260200190815260200160002060070154670de0b6b3a7640000610e25856131aa565b610e2f919061532d565b610e39919061539e565b610e43919061539e565b9050919050565b600060136000838152602001908152602001600020549050919050565b610e6f6136ed565b73ffffffffffffffffffffffffffffffffffffffff168573ffffffffffffffffffffffffffffffffffffffff161480610eb55750610eb485610eaf6136ed565b6131c7565b5b610ef4576040517f08c379a0000000000000000000000000000000000000000000000000000000008152600401610eeb90615441565b60405180910390fd5b610f0185858585856136f5565b5050505050565b6000600b600083815260200190815260200160002060009054906101000a900460ff169050919050565b6000610f3d82611b95565b8015610f645750610f4d82611766565b600860008481526020019081526020016000205410155b9050919050565b6000610f76826119a3565b158015610f895750610f8782610ce9565b155b9050919050565b7f000000000000000000000000000000000000000000000000000000000000000073ffffffffffffffffffffffffffffffffffffffff163373ffffffffffffffffffffffffffffffffffffffff161461101e576040517f08c379a0000000000000000000000000000000000000000000000000000000008152600401611015906154ad565b60405180910390fd5b611027826119a3565b15611067576040517f08c379a000000000000000000000000000000000000000000000000000000000815260040161105e90615519565b60405180910390fd5b61107082610f6b565b156110b0576040517f08c379a00000000000000000000000000000000000000000000000000000000081526004016110a790615519565b60405180910390fd5b6110b9826117bf565b156110f9576040517f08c379a00000000000000000000000000000000000000000000000000000000081526004016110f0906155ab565b60405180910390fd5b61110282610f08565b806111125750611111826113e8565b5b15611152576040517f08c379a00000000000000000000000000000000000000000000000000000000081526004016111499061563d565b60405180910390fd5b601260008381526020019081526020016000205460086000848152602001908152602001600020546111849190615299565b8111156111c6576040517f08c379a00000000000000000000000000000000000000000000000000000000081526004016111bd906156cf565b60405180910390fd5b806008600084815260200190815260200160002060008282546111e99190615299565b925050819055507f000000000000000000000000000000000000000000000000000000000000000073ffffffffffffffffffffffffffffffffffffffff1663a9059cbb33836040518363ffffffff1660e01b815260040161124b9291906156ef565b6020604051808303816000875af115801561126a573d6000803e3d6000fd5b505050506040513d601f19601f8201168201806040525081019061128e919061572d565b505050565b606081518351146112d9576040517f08c379a00000000000000000000000000000000000000000000000000000000081526004016112d0906157cc565b60405180910390fd5b6000835167ffffffffffffffff8111156112f6576112f5614989565b5b6040519080825280602002602001820160405280156113245781602001602082028036833780820191505090505b50905060005b84518110156113a157611371858281518110611349576113486157ec565b5b6020026020010151858381518110611364576113636157ec565b5b6020026020010151610af7565b828281518110611384576113836157ec565b5b6020026020010181815250508061139a9061581b565b905061132a565b508091505092915050565b600060066000838152602001908152602001600020546007600084815260200190815260200160002054149050919050565b6000600454905090565b6000806113f483611b95565b801561141a575061140483611766565b6008600085815260200190815260200160002054105b9050600061142784611b95565b15801561146c57506201518060b4600160136000888152602001908152602001600020546114559190615863565b61145f919061532d565b611469919061532d565b42115b905081806114775750805b92505050919050565b611489826119a3565b6114c8576040517f08c379a00000000000000000000000000000000000000000000000000000000081526004016114bf906158e3565b60405180910390fd5b806114d283611bb7565b1015611513576040517f08c379a000000000000000000000000000000000000000000000000000000000815260040161150a90615975565b60405180910390fd5b60006005600084815260200190815260200160002060405180610140016040529081600082018054611544906152fc565b80601f0160208091040260200160405190810160405280929190818152602001828054611570906152fc565b80156115bd5780601f10611592576101008083540402835291602001916115bd565b820191906000526020600020905b8154815290600101906020018083116115a057829003601f168201915b50505050508152602001600182015481526020016002820154815260200160038201548152602001600482015481526020016005820154815260200160068201548152602001600782015481526020016008820154815260200160098201548152505090506000816020015183611634919061532d565b9050826006600086815260200190815260200160002060008282546116599190615863565b92505081905550806008600086815260200190815260200160002060008282546116839190615863565b92505081905550806004600082825461169c9190615863565b925050819055506116bf3033868660405180602001604052806000815250613278565b7f000000000000000000000000000000000000000000000000000000000000000073ffffffffffffffffffffffffffffffffffffffff166323b872dd3330846040518463ffffffff1660e01b815260040161171c93929190615995565b6020604051808303816000875af115801561173b573d6000803e3d6000fd5b505050506040513d601f19601f8201168201806040525081019061175f919061572d565b5050505050565b6000670de0b6b3a7640000600560008481526020019081526020016000206009015461179184610db3565b61179b919061532d565b6117a5919061539e565b6117ae83610db3565b6117b89190615863565b9050919050565b6000600c600083815260200190815260200160002060009054906101000a900460ff169050919050565b6117f2826117bf565b611831576040517f08c379a000000000000000000000000000000000000000000000000000000000815260040161182890615a18565b60405180910390fd5b8061183c3384610af7565b101561187d576040517f08c379a000000000000000000000000000000000000000000000000000000000815260040161187490615a84565b60405180910390fd5b611888338383613a16565b806007600084815260200190815260200160002060008282546118ab9190615863565b925050819055506000600a600084815260200190815260200160002054826118d3919061532d565b90507f000000000000000000000000000000000000000000000000000000000000000073ffffffffffffffffffffffffffffffffffffffff1663a9059cbb33836040518363ffffffff1660e01b81526004016119309291906156ef565b6020604051808303816000875af115801561194f573d6000803e3d6000fd5b505050506040513d601f19601f82011682018060405250810190611973919061572d565b50806008600085815260200190815260200160002060008282546119979190615299565b92505081905550505050565b600060056000838152602001908152602001600020600401544211159050919050565b60006119d182610cbe565b60056000848152602001908152602001600020600501546119f29190615299565b9050919050565b6060600080600080600080600080600080600560008d815260200190815260200160002060405180610140016040529081600082018054611a39906152fc565b80601f0160208091040260200160405190810160405280929190818152602001828054611a65906152fc565b8015611ab25780601f10611a8757610100808354040283529160200191611ab2565b820191906000526020600020905b815481529060010190602001808311611a9557829003601f168201915b5050505050815260200160018201548152602001600282015481526020016003820154815260200160048201548152602001600582015481526020016006820154815260200160078201548152602001600882015481526020016009820154815250509050806000015181602001518260400151836060015184608001518560a001518660c001518760e001518861010001518961012001519a509a509a509a509a509a509a509a509a509a50509193959799509193959799565b60007f0000000000000000000000000000000000000000000000000000000000000000905090565b6000600560008381526020019081526020016000206003015442119050919050565b600060066000838152602001908152602001600020546005600084815260200190815260200160002060070154611bee9190615299565b9050919050565b611c07611c006136ed565b8383613c5c565b5050565b611c14816117bf565b158015611c275750611c2581610f08565b155b8015611c385750611c37816113e8565b5b611c77576040517f08c379a0000000000000000000000000000000000000000000000000000000008152600401611c6e90615af0565b60405180910390fd5b6000611c8282611766565b905060006103e86008600085815260200190815260200160002054611ca7919061539e565b90506000816008600086815260200190815260200160002054611cca9190615299565b9050600660008581526020019081526020016000205481611ceb919061539e565b6009600086815260200190815260200160002081905550600060066000868152602001908152602001600020546009600087815260200190815260200160002054611d36919061532d565b82611d419190615299565b905060008184611d519190615863565b905080600860008881526020019081526020016000206000828254611d769190615299565b925050819055506001600b600088815260200190815260200160002060006101000a81548160ff0219169083151502179055507f000000000000000000000000000000000000000000000000000000000000000073ffffffffffffffffffffffffffffffffffffffff1663a9059cbb33836040518363ffffffff1660e01b8152600401611e049291906156ef565b6020604051808303816000875af1158015611e23573d6000803e3d6000fd5b505050506040513d601f19601f82011682018060405250810190611e47919061572d565b50857fc4f17a65d54873d57229ea5f59c4ddec592d095bc17581372676402c8228b9cd8685604051611e7a929190615b10565b60405180910390a2505050505050565b60008160008110158015611e9f575060028111155b611ede576040517f08c379a0000000000000000000000000000000000000000000000000000000008152600401611ed590615b85565b60405180910390fd5b600060b46002611eee919061532d565b905060008403611f0d57806003611f05919061532d565b925050611f3b565b60018403611f2a57806005611f22919061532d565b925050611f3b565b80600a611f37919061532d565b9250505b50919050565b611f4a82610f08565b611f89576040517f08c379a0000000000000000000000000000000000000000000000000000000008152600401611f8090615af0565b60405180910390fd5b80611f943384610af7565b1015611fd5576040517f08c379a0000000000000000000000000000000000000000000000000000000008152600401611fcc90615a84565b60405180910390fd5b611fe0338383613a16565b806007600084815260200190815260200160002060008282546120039190615863565b92505081905550600060096000848152602001908152602001600020548261202b919061532d565b90507f000000000000000000000000000000000000000000000000000000000000000073ffffffffffffffffffffffffffffffffffffffff1663a9059cbb33836040518363ffffffff1660e01b81526004016120889291906156ef565b6020604051808303816000875af11580156120a7573d6000803e3d6000fd5b505050506040513d601f19601f820116820180604052508101906120cb919061572d565b50806008600085815260200190815260200160002060008282546120ef9190615299565b92505081905550505050565b600060056000838152602001908152602001600020600901549050919050565b7f000000000000000000000000000000000000000000000000000000000000000073ffffffffffffffffffffffffffffffffffffffff163373ffffffffffffffffffffffffffffffffffffffff16146121a9576040517f08c379a00000000000000000000000000000000000000000000000000000000081526004016121a0906154ad565b60405180910390fd5b6121b282610f08565b806121c257506121c1826113e8565b5b15612202576040517f08c379a00000000000000000000000000000000000000000000000000000000081526004016121f99061563d565b60405180910390fd5b600560008381526020019081526020016000206006015460b46001601360008681526020019081526020016000205461223b9190615863565b612245919061532d565b03612285576040517f08c379a000000000000000000000000000000000000000000000000000000000815260040161227c90615bf1565b60405180910390fd5b601160008381526020019081526020016000206013600084815260200190815260200160002054815481106122bd576122bc6157ec565b5b906000526020600020015481101561230a576040517f08c379a000000000000000000000000000000000000000000000000000000000815260040161230190615c5d565b60405180910390fd5b66b1a2bc2ec500006011600084815260200190815260200160002060136000858152602001908152602001600020548154811061234a576123496157ec565b5b9060005260206000200154670de0b6b3a764000060116000868152602001908152602001600020601360008781526020019081526020016000205481548110612396576123956157ec565b5b9060005260206000200154846123ac9190615299565b6123b6919061532d565b6123c0919061539e565b1115612401576040517f08c379a00000000000000000000000000000000000000000000000000000000081526004016123f890615cef565b60405180910390fd5b6000600560008481526020019081526020016000206007015482612425919061532d565b90508060126000858152602001908152602001600020600082825461244a9190615863565b925050819055506201518060b4612461919061532d565b601060008581526020019081526020016000205461247f9190615863565b601060008581526020019081526020016000208190555060016013600085815260200190815260200160002060008282546124ba9190615863565b925050819055507f000000000000000000000000000000000000000000000000000000000000000073ffffffffffffffffffffffffffffffffffffffff166323b872dd3330846040518463ffffffff1660e01b815260040161251e93929190615995565b6020604051808303816000875af115801561253d573d6000803e3d6000fd5b505050506040513d601f19601f82011682018060405250810190612561919061572d565b50505050565b61257082610f6b565b6125af576040517f08c379a00000000000000000000000000000000000000000000000000000000081526004016125a690615d5b565b60405180910390fd5b806125ba3384610af7565b10156125fb576040517f08c379a00000000000000000000000000000000000000000000000000000000081526004016125f290615a84565b60405180910390fd5b612606338383613a16565b806007600084815260200190815260200160002060008282546126299190615863565b925050819055506000600560008481526020019081526020016000206001015482612654919061532d565b90507f000000000000000000000000000000000000000000000000000000000000000073ffffffffffffffffffffffffffffffffffffffff1663a9059cbb33836040518363ffffffff1660e01b81526004016126b19291906156ef565b6020604051808303816000875af11580156126d0573d6000803e3d6000fd5b505050506040513d601f19601f820116820180604052508101906126f4919061572d565b50806008600085815260200190815260200160002060008282546127189190615299565b92505081905550505050565b60606011600083815260200190815260200160002080548060200260200160405190810160405280929190818152602001828054801561278357602002820191906000526020600020905b81548152602001906001019080831161276f575b50505050509050919050565b61279881610f08565b1580156127ab57506127a9816117bf565b155b80156127bc57506127bb81610f32565b5b6127fb576040517f08c379a00000000000000000000000000000000000000000000000000000000081526004016127f290615dc7565b60405180910390fd5b600061280682611766565b905060006103e882612818919061539e565b9050600081836128289190615299565b9050600660008581526020019081526020016000205481612849919061539e565b600a60008681526020019081526020016000208190555060006006600086815260200190815260200160002054600a600087815260200190815260200160002054612894919061532d565b8261289f9190615299565b9050600081846128af9190615863565b9050806008600088815260200190815260200160002060008282546128d49190615299565b925050819055506001600c600088815260200190815260200160002060006101000a81548160ff0219169083151502179055507f000000000000000000000000000000000000000000000000000000000000000073ffffffffffffffffffffffffffffffffffffffff1663a9059cbb33836040518363ffffffff1660e01b81526004016129629291906156ef565b6020604051808303816000875af1158015612981573d6000803e3d6000fd5b505050506040513d601f19601f820116820180604052508101906129a5919061572d565b50857fac2eeaf45d1b75aed6b3285cda3efb3c382cce02ba313558bbb90be57f8843e486856040516129d8929190615b10565b60405180910390a2505050505050565b606081600081101580156129fd575060028111155b612a3c576040517f08c379a0000000000000000000000000000000000000000000000000000000008152600401612a3390615b85565b60405180910390fd5b6000612a4784612d90565b905060008151905060008167ffffffffffffffff811115612a6b57612a6a614989565b5b604051908082528060200260200182016040528015612a995781602001602082028036833780820191505090505b50905060005b82811015612b0b576064848281518110612abc57612abb6157ec565b5b602002602001015189612acf919061532d565b612ad9919061539e565b828281518110612aec57612aeb6157ec565b5b6020026020010181815250508080612b039061581b565b915050612a9f565b508094505050505092915050565b600060106000838152602001908152602001600020549050919050565b60007f0000000000000000000000000000000000000000000000000000000000000000905090565b6000612b6982610cbe565b6005600084815260200190815260200160002060060154612b8a9190615299565b9050919050565b7f000000000000000000000000000000000000000000000000000000000000000073ffffffffffffffffffffffffffffffffffffffff163373ffffffffffffffffffffffffffffffffffffffff1614612c1f576040517f08c379a0000000000000000000000000000000000000000000000000000000008152600401612c16906154ad565b60405180910390fd5b612c2882610f08565b80612c385750612c37826113e8565b5b15612c78576040517f08c379a0000000000000000000000000000000000000000000000000000000008152600401612c6f90615e33565b60405180910390fd5b612c81826117bf565b15612cc1576040517f08c379a0000000000000000000000000000000000000000000000000000000008152600401612cb890615e9f565b60405180910390fd5b80600860008481526020019081526020016000206000828254612ce49190615863565b925050819055507f000000000000000000000000000000000000000000000000000000000000000073ffffffffffffffffffffffffffffffffffffffff166323b872dd3330846040518463ffffffff1660e01b8152600401612d4893929190615995565b6020604051808303816000875af1158015612d67573d6000803e3d6000fd5b505050506040513d601f19601f82011682018060405250810190612d8b919061572d565b505050565b60608160008110158015612da5575060028111155b612de4576040517f08c379a0000000000000000000000000000000000000000000000000000000008152600401612ddb90615b85565b60405180910390fd5b60008303612e4457600d805480602002602001604051908101604052809291908181526020018280548015612e3857602002820191906000526020600020905b815481526020019060010190808311612e24575b50505050509150612ef8565b60018303612ea457600e805480602002602001604051908101604052809291908181526020018280548015612e9857602002820191906000526020600020905b815481526020019060010190808311612e84575b50505050509150612ef8565b600f805480602002602001604051908101604052809291908181526020018280548015612ef057602002820191906000526020600020905b815481526020019060010190808311612edc575b505050505091505b50919050565b60007f000000000000000000000000000000000000000000000000000000000000000073ffffffffffffffffffffffffffffffffffffffff166370a08231306040518263ffffffff1660e01b8152600401612f599190614f5d565b602060405180830381865afa158015612f76573d6000803e3d6000fd5b505050506040513d601f19601f82011682018060405250810190612f9a9190615ed4565b905090565b7f000000000000000000000000000000000000000000000000000000000000000073ffffffffffffffffffffffffffffffffffffffff163373ffffffffffffffffffffffffffffffffffffffff161461302d576040517f08c379a0000000000000000000000000000000000000000000000000000000008152600401613024906154ad565b60405180910390fd5b613036816117bf565b80156130475750613046816113ac565b5b613086576040517f08c379a000000000000000000000000000000000000000000000000000000000815260040161307d90615f4d565b60405180910390fd5b60006008600083815260200190815260200160002054116130dc576040517f08c379a00000000000000000000000000000000000000000000000000000000081526004016130d390615fb9565b60405180910390fd5b600060086000838152602001908152602001600020819055507f000000000000000000000000000000000000000000000000000000000000000073ffffffffffffffffffffffffffffffffffffffff1663a9059cbb3360086000858152602001908152602001600020546040518363ffffffff1660e01b81526004016131639291906156ef565b6020604051808303816000875af1158015613182573d6000803e3d6000fd5b505050506040513d601f19601f820116820180604052508101906131a6919061572d565b5050565b600060126000838152602001908152602001600020549050919050565b6000600160008473ffffffffffffffffffffffffffffffffffffffff1673ffffffffffffffffffffffffffffffffffffffff16815260200190815260200160002060008373ffffffffffffffffffffffffffffffffffffffff1673ffffffffffffffffffffffffffffffffffffffff16815260200190815260200160002060009054906101000a900460ff16905092915050565b600060086000838152602001908152602001600020549050919050565b6132806136ed565b73ffffffffffffffffffffffffffffffffffffffff168573ffffffffffffffffffffffffffffffffffffffff1614806132c657506132c5856132c06136ed565b6131c7565b5b613305576040517f08c379a00000000000000000000000000000000000000000000000000000000081526004016132fc90615441565b60405180910390fd5b6133128585858585613dc8565b5050505050565b60007f000000000000000000000000000000000000000000000000000000000000000073ffffffffffffffffffffffffffffffffffffffff163373ffffffffffffffffffffffffffffffffffffffff16146133a9576040517f08c379a00000000000000000000000000000000000000000000000000000000081526004016133a0906154ad565b60405180910390fd5b83600081101580156133bc575060028111155b6133fb576040517f08c379a00000000000000000000000000000000000000000000000000000000081526004016133f290615b85565b60405180910390fd5b60b4841061343e576040517f08c379a00000000000000000000000000000000000000000000000000000000081526004016134359061604b565b60405180910390fd5b600061344986611e8a565b9050600160035461345a9190615863565b925061347733848d60405180602001604052806000815250614063565b60405180610140016040528089898080601f016020809104026020016040519081016040528093929190818152602001838380828437600081840152601f19601f8201169050808301925050505050505081526020018a815260200142815260200162015180836134e8919061532d565b426134f39190615863565b81526020016201518087613507919061532d565b426135129190615863565b81526020018681526020018281526020018c81526020018b81526020018581525060056000858152602001908152602001600020600082015181600001908161355b9190616217565b506020820151816001015560408201518160020155606082015181600301556080820151816004015560a0820151816005015560c0820151816006015560e08201518160070155610100820151816008015561012082015181600901559050506201518060b46135cb919061532d565b426135d69190615863565b60106000858152602001908152602001600020819055506135f789876129e8565b60116000858152602001908152602001600020908051906020019061361d92919061466e565b50827ff73e436c94925e1e8b2f0b16de0a2c56aea7fb27878f7815811bc05bc6c335e88c8b876201518086613652919061532d565b4261365d9190615863565b60405161366d94939291906162e9565b60405180910390a2505098975050505050505050565b60007f01ffc9a7000000000000000000000000000000000000000000000000000000007bffffffffffffffffffffffffffffffffffffffffffffffffffffffff1916827bffffffffffffffffffffffffffffffffffffffffffffffffffffffff1916149050919050565b600033905090565b8151835114613739576040517f08c379a0000000000000000000000000000000000000000000000000000000008152600401613730906163a0565b60405180910390fd5b600073ffffffffffffffffffffffffffffffffffffffff168473ffffffffffffffffffffffffffffffffffffffff16036137a8576040517f08c379a000000000000000000000000000000000000000000000000000000000815260040161379f90616432565b60405180910390fd5b60006137b26136ed565b90506137c2818787878787614213565b60005b84518110156139735760008582815181106137e3576137e26157ec565b5b602002602001015190506000858381518110613802576138016157ec565b5b60200260200101519050600080600084815260200190815260200160002060008b73ffffffffffffffffffffffffffffffffffffffff1673ffffffffffffffffffffffffffffffffffffffff168152602001908152602001600020549050818110156138a3576040517f08c379a000000000000000000000000000000000000000000000000000000000815260040161389a906164c4565b60405180910390fd5b81810360008085815260200190815260200160002060008c73ffffffffffffffffffffffffffffffffffffffff1673ffffffffffffffffffffffffffffffffffffffff168152602001908152602001600020819055508160008085815260200190815260200160002060008b73ffffffffffffffffffffffffffffffffffffffff1673ffffffffffffffffffffffffffffffffffffffff16815260200190815260200160002060008282546139589190615863565b925050819055505050508061396c9061581b565b90506137c5565b508473ffffffffffffffffffffffffffffffffffffffff168673ffffffffffffffffffffffffffffffffffffffff168273ffffffffffffffffffffffffffffffffffffffff167f4a39dc06d4c0dbc64b70af90fd698a233a518aa5d07e595d983b8c0526c8f7fb87876040516139ea9291906164e4565b60405180910390a4613a0081878787878761421b565b613a0e818787878787614223565b505050505050565b600073ffffffffffffffffffffffffffffffffffffffff168373ffffffffffffffffffffffffffffffffffffffff1603613a85576040517f08c379a0000000000000000000000000000000000000000000000000000000008152600401613a7c9061658d565b60405180910390fd5b6000613a8f6136ed565b90506000613a9c846143fa565b90506000613aa9846143fa565b9050613ac983876000858560405180602001604052806000815250614213565b600080600087815260200190815260200160002060008873ffffffffffffffffffffffffffffffffffffffff1673ffffffffffffffffffffffffffffffffffffffff16815260200190815260200160002054905084811015613b60576040517f08c379a0000000000000000000000000000000000000000000000000000000008152600401613b579061661f565b60405180910390fd5b84810360008088815260200190815260200160002060008973ffffffffffffffffffffffffffffffffffffffff1673ffffffffffffffffffffffffffffffffffffffff16815260200190815260200160002081905550600073ffffffffffffffffffffffffffffffffffffffff168773ffffffffffffffffffffffffffffffffffffffff168573ffffffffffffffffffffffffffffffffffffffff167fc3d58168c5ae7397731d063d5bbf3d657854427343f4c083240f7aacaa2d0f628989604051613c2d929190615b10565b60405180910390a4613c538488600086866040518060200160405280600081525061421b565b50505050505050565b8173ffffffffffffffffffffffffffffffffffffffff168373ffffffffffffffffffffffffffffffffffffffff1603613cca576040517f08c379a0000000000000000000000000000000000000000000000000000000008152600401613cc1906166b1565b60405180910390fd5b80600160008573ffffffffffffffffffffffffffffffffffffffff1673ffffffffffffffffffffffffffffffffffffffff16815260200190815260200160002060008473ffffffffffffffffffffffffffffffffffffffff1673ffffffffffffffffffffffffffffffffffffffff16815260200190815260200160002060006101000a81548160ff0219169083151502179055508173ffffffffffffffffffffffffffffffffffffffff168373ffffffffffffffffffffffffffffffffffffffff167f17307eab39ab6107e8899845ad3d59bd9653f200f220920489ca2b5937696c3183604051613dbb919061488a565b60405180910390a3505050565b600073ffffffffffffffffffffffffffffffffffffffff168473ffffffffffffffffffffffffffffffffffffffff1603613e37576040517f08c379a0000000000000000000000000000000000000000000000000000000008152600401613e2e90616432565b60405180910390fd5b6000613e416136ed565b90506000613e4e856143fa565b90506000613e5b856143fa565b9050613e6b838989858589614213565b600080600088815260200190815260200160002060008a73ffffffffffffffffffffffffffffffffffffffff1673ffffffffffffffffffffffffffffffffffffffff16815260200190815260200160002054905085811015613f02576040517f08c379a0000000000000000000000000000000000000000000000000000000008152600401613ef9906164c4565b60405180910390fd5b85810360008089815260200190815260200160002060008b73ffffffffffffffffffffffffffffffffffffffff1673ffffffffffffffffffffffffffffffffffffffff168152602001908152602001600020819055508560008089815260200190815260200160002060008a73ffffffffffffffffffffffffffffffffffffffff1673ffffffffffffffffffffffffffffffffffffffff1681526020019081526020016000206000828254613fb79190615863565b925050819055508773ffffffffffffffffffffffffffffffffffffffff168973ffffffffffffffffffffffffffffffffffffffff168573ffffffffffffffffffffffffffffffffffffffff167fc3d58168c5ae7397731d063d5bbf3d657854427343f4c083240f7aacaa2d0f628a8a604051614034929190615b10565b60405180910390a461404a848a8a86868a61421b565b614058848a8a8a8a8a614474565b505050505050505050565b600073ffffffffffffffffffffffffffffffffffffffff168473ffffffffffffffffffffffffffffffffffffffff16036140d2576040517f08c379a00000000000000000000000000000000000000000000000000000000081526004016140c990616743565b60405180910390fd5b60006140dc6136ed565b905060006140e9856143fa565b905060006140f6856143fa565b905061410783600089858589614213565b8460008088815260200190815260200160002060008973ffffffffffffffffffffffffffffffffffffffff1673ffffffffffffffffffffffffffffffffffffffff16815260200190815260200160002060008282546141669190615863565b925050819055508673ffffffffffffffffffffffffffffffffffffffff16600073ffffffffffffffffffffffffffffffffffffffff168473ffffffffffffffffffffffffffffffffffffffff167fc3d58168c5ae7397731d063d5bbf3d657854427343f4c083240f7aacaa2d0f6289896040516141e4929190615b10565b60405180910390a46141fb8360008985858961421b565b61420a83600089898989614474565b50505050505050565b505050505050565b505050505050565b6142428473ffffffffffffffffffffffffffffffffffffffff1661464b565b156143f2578373ffffffffffffffffffffffffffffffffffffffff1663bc197c8187878686866040518663ffffffff1660e01b81526004016142889594939291906167b8565b6020604051808303816000875af19250505080156142c457506040513d601f19601f820116820180604052508101906142c19190616835565b60015b614369576142d061686f565b806308c379a00361432c57506142e4616891565b806142ef575061432e565b806040517f08c379a00000000000000000000000000000000000000000000000000000000081526004016143239190614962565b60405180910390fd5b505b6040517f08c379a000000000000000000000000000000000000000000000000000000000815260040161436090616993565b60405180910390fd5b63bc197c8160e01b7bffffffffffffffffffffffffffffffffffffffffffffffffffffffff1916817bffffffffffffffffffffffffffffffffffffffffffffffffffffffff1916146143f0576040517f08c379a00000000000000000000000000000000000000000000000000000000081526004016143e790616a25565b60405180910390fd5b505b505050505050565b60606000600167ffffffffffffffff81111561441957614418614989565b5b6040519080825280602002602001820160405280156144475781602001602082028036833780820191505090505b509050828160008151811061445f5761445e6157ec565b5b60200260200101818152505080915050919050565b6144938473ffffffffffffffffffffffffffffffffffffffff1661464b565b15614643578373ffffffffffffffffffffffffffffffffffffffff1663f23a6e6187878686866040518663ffffffff1660e01b81526004016144d9959493929190616a45565b6020604051808303816000875af192505050801561451557506040513d601f19601f820116820180604052508101906145129190616835565b60015b6145ba5761452161686f565b806308c379a00361457d5750614535616891565b80614540575061457f565b806040517f08c379a00000000000000000000000000000000000000000000000000000000081526004016145749190614962565b60405180910390fd5b505b6040517f08c379a00000000000000000000000000000000000000000000000000000000081526004016145b190616993565b60405180910390fd5b63f23a6e6160e01b7bffffffffffffffffffffffffffffffffffffffffffffffffffffffff1916817bffffffffffffffffffffffffffffffffffffffffffffffffffffffff191614614641576040517f08c379a000000000000000000000000000000000000000000000000000000000815260040161463890616a25565b60405180910390fd5b505b505050505050565b6000808273ffffffffffffffffffffffffffffffffffffffff163b119050919050565b8280548282559060005260206000209081019282156146aa579160200282015b828111156146a957825182559160200191906001019061468e565b5b5090506146b791906146bb565b5090565b5b808211156146d45760008160009055506001016146bc565b5090565b6000604051905090565b600080fd5b600080fd5b600073ffffffffffffffffffffffffffffffffffffffff82169050919050565b6000614717826146ec565b9050919050565b6147278161470c565b811461473257600080fd5b50565b6000813590506147448161471e565b92915050565b6000819050919050565b61475d8161474a565b811461476857600080fd5b50565b60008135905061477a81614754565b92915050565b60008060408385031215614797576147966146e2565b5b60006147a585828601614735565b92505060206147b68582860161476b565b9150509250929050565b6147c98161474a565b82525050565b60006020820190506147e460008301846147c0565b92915050565b60007fffffffff0000000000000000000000000000000000000000000000000000000082169050919050565b61481f816147ea565b811461482a57600080fd5b50565b60008135905061483c81614816565b92915050565b600060208284031215614858576148576146e2565b5b60006148668482850161482d565b91505092915050565b60008115159050919050565b6148848161486f565b82525050565b600060208201905061489f600083018461487b565b92915050565b6000602082840312156148bb576148ba6146e2565b5b60006148c98482850161476b565b91505092915050565b600081519050919050565b600082825260208201905092915050565b60005b8381101561490c5780820151818401526020810190506148f1565b60008484015250505050565b6000601f19601f8301169050919050565b6000614934826148d2565b61493e81856148dd565b935061494e8185602086016148ee565b61495781614918565b840191505092915050565b6000602082019050818103600083015261497c8184614929565b905092915050565b600080fd5b7f4e487b7100000000000000000000000000000000000000000000000000000000600052604160045260246000fd5b6149c182614918565b810181811067ffffffffffffffff821117156149e0576149df614989565b5b80604052505050565b60006149f36146d8565b90506149ff82826149b8565b919050565b600067ffffffffffffffff821115614a1f57614a1e614989565b5b602082029050602081019050919050565b600080fd5b6000614a48614a4384614a04565b6149e9565b90508083825260208201905060208402830185811115614a6b57614a6a614a30565b5b835b81811015614a945780614a80888261476b565b845260208401935050602081019050614a6d565b5050509392505050565b600082601f830112614ab357614ab2614984565b5b8135614ac3848260208601614a35565b91505092915050565b600080fd5b600067ffffffffffffffff821115614aec57614aeb614989565b5b614af582614918565b9050602081019050919050565b82818337600083830152505050565b6000614b24614b1f84614ad1565b6149e9565b905082815260208101848484011115614b4057614b3f614acc565b5b614b4b848285614b02565b509392505050565b600082601f830112614b6857614b67614984565b5b8135614b78848260208601614b11565b91505092915050565b600080600080600060a08688031215614b9d57614b9c6146e2565b5b6000614bab88828901614735565b9550506020614bbc88828901614735565b945050604086013567ffffffffffffffff811115614bdd57614bdc6146e7565b5b614be988828901614a9e565b935050606086013567ffffffffffffffff811115614c0a57614c096146e7565b5b614c1688828901614a9e565b925050608086013567ffffffffffffffff811115614c3757614c366146e7565b5b614c4388828901614b53565b9150509295509295909350565b60008060408385031215614c6757614c666146e2565b5b6000614c758582860161476b565b9250506020614c868582860161476b565b9150509250929050565b600067ffffffffffffffff821115614cab57614caa614989565b5b602082029050602081019050919050565b6000614ccf614cca84614c90565b6149e9565b90508083825260208201905060208402830185811115614cf257614cf1614a30565b5b835b81811015614d1b5780614d078882614735565b845260208401935050602081019050614cf4565b5050509392505050565b600082601f830112614d3a57614d39614984565b5b8135614d4a848260208601614cbc565b91505092915050565b60008060408385031215614d6a57614d696146e2565b5b600083013567ffffffffffffffff811115614d8857614d876146e7565b5b614d9485828601614d25565b925050602083013567ffffffffffffffff811115614db557614db46146e7565b5b614dc185828601614a9e565b9150509250929050565b600081519050919050565b600082825260208201905092915050565b6000819050602082019050919050565b614e008161474a565b82525050565b6000614e128383614df7565b60208301905092915050565b6000602082019050919050565b6000614e3682614dcb565b614e408185614dd6565b9350614e4b83614de7565b8060005b83811015614e7c578151614e638882614e06565b9750614e6e83614e1e565b925050600181019050614e4f565b5085935050505092915050565b60006020820190508181036000830152614ea38184614e2b565b905092915050565b6000610140820190508181036000830152614ec6818d614929565b9050614ed5602083018c6147c0565b614ee2604083018b6147c0565b614eef606083018a6147c0565b614efc60808301896147c0565b614f0960a08301886147c0565b614f1660c08301876147c0565b614f2360e08301866147c0565b614f316101008301856147c0565b614f3f6101208301846147c0565b9b9a5050505050505050505050565b614f578161470c565b82525050565b6000602082019050614f726000830184614f4e565b92915050565b614f818161486f565b8114614f8c57600080fd5b50565b600081359050614f9e81614f78565b92915050565b60008060408385031215614fbb57614fba6146e2565b5b6000614fc985828601614735565b9250506020614fda85828601614f8f565b9150509250929050565b60008060408385031215614ffb57614ffa6146e2565b5b600061500985828601614735565b925050602061501a85828601614735565b9150509250929050565b600080600080600060a086880312156150405761503f6146e2565b5b600061504e88828901614735565b955050602061505f88828901614735565b94505060406150708882890161476b565b93505060606150818882890161476b565b925050608086013567ffffffffffffffff8111156150a2576150a16146e7565b5b6150ae88828901614b53565b9150509295509295909350565b600080fd5b60008083601f8401126150d6576150d5614984565b5b8235905067ffffffffffffffff8111156150f3576150f26150bb565b5b60208301915083600182028301111561510f5761510e614a30565b5b9250929050565b60008060008060008060008060e0898b031215615136576151356146e2565b5b60006151448b828c0161476b565b98505060206151558b828c0161476b565b97505060406151668b828c0161476b565b965050606089013567ffffffffffffffff811115615187576151866146e7565b5b6151938b828c016150c0565b955095505060806151a68b828c0161476b565b93505060a06151b78b828c0161476b565b92505060c06151c88b828c0161476b565b9150509295985092959890939650565b7f455243313135353a2061646472657373207a65726f206973206e6f742061207660008201527f616c6964206f776e657200000000000000000000000000000000000000000000602082015250565b6000615234602a836148dd565b915061523f826151d8565b604082019050919050565b6000602082019050818103600083015261526381615227565b9050919050565b7f4e487b7100000000000000000000000000000000000000000000000000000000600052601160045260246000fd5b60006152a48261474a565b91506152af8361474a565b92508282039050818111156152c7576152c661526a565b5b92915050565b7f4e487b7100000000000000000000000000000000000000000000000000000000600052602260045260246000fd5b6000600282049050600182168061531457607f821691505b602082108103615327576153266152cd565b5b50919050565b60006153388261474a565b91506153438361474a565b92508282026153518161474a565b915082820484148315176153685761536761526a565b5b5092915050565b7f4e487b7100000000000000000000000000000000000000000000000000000000600052601260045260246000fd5b60006153a98261474a565b91506153b48361474a565b9250826153c4576153c361536f565b5b828204905092915050565b7f455243313135353a2063616c6c6572206973206e6f7420746f6b656e206f776e60008201527f6572206f7220617070726f766564000000000000000000000000000000000000602082015250565b600061542b602e836148dd565b9150615436826153cf565b604082019050919050565b6000602082019050818103600083015261545a8161541e565b9050919050565b7f43616c6c6572206973206e6f7420746865206f776e6572000000000000000000600082015250565b60006154976017836148dd565b91506154a282615461565b602082019050919050565b600060208201905081810360008301526154c68161548a565b9050919050565b7f5769746864726177206e6f7420616c6c6f776564207768656e20616374697665600082015250565b60006155036020836148dd565b915061550e826154cd565b602082019050919050565b60006020820190508181036000830152615532816154f6565b9050919050565b7f5769746864726177206e6f7420616c6c6f77656420616674657220636f6d706c60008201527f6574696f6e000000000000000000000000000000000000000000000000000000602082015250565b60006155956025836148dd565b91506155a082615539565b604082019050919050565b600060208201905081810360008301526155c481615588565b9050919050565b7f5769746864726177206e6f7420616c6c6f776564207768656e2064656661756c60008201527f7465640000000000000000000000000000000000000000000000000000000000602082015250565b60006156276023836148dd565b9150615632826155cb565b604082019050919050565b600060208201905081810360008301526156568161561a565b9050919050565b7f5769746864726177616c20746f6b656e20616d6f756e7420657863656564732060008201527f746f6b656e20616d6f756e7420696e20636f6e74726163740000000000000000602082015250565b60006156b96038836148dd565b91506156c48261565d565b604082019050919050565b600060208201905081810360008301526156e8816156ac565b9050919050565b60006040820190506157046000830185614f4e565b61571160208301846147c0565b9392505050565b60008151905061572781614f78565b92915050565b600060208284031215615743576157426146e2565b5b600061575184828501615718565b91505092915050565b7f455243313135353a206163636f756e747320616e6420696473206c656e67746860008201527f206d69736d617463680000000000000000000000000000000000000000000000602082015250565b60006157b66029836148dd565b91506157c18261575a565b604082019050919050565b600060208201905081810360008301526157e5816157a9565b9050919050565b7f4e487b7100000000000000000000000000000000000000000000000000000000600052603260045260246000fd5b60006158268261474a565b91507fffffffffffffffffffffffffffffffffffffffffffffffffffffffffffffffff82036158585761585761526a565b5b600182019050919050565b600061586e8261474a565b91506158798361474a565b92508282019050808211156158915761589061526a565b5b92915050565b7f426f6e6420697320696e61637469766500000000000000000000000000000000600082015250565b60006158cd6010836148dd565b91506158d882615897565b602082019050919050565b600060208201905081810360008301526158fc816158c0565b9050919050565b7f496e73756666696369656e7420626f6e64207175616e746974792072656d616960008201527f6e696e6700000000000000000000000000000000000000000000000000000000602082015250565b600061595f6024836148dd565b915061596a82615903565b604082019050919050565b6000602082019050818103600083015261598e81615952565b9050919050565b60006060820190506159aa6000830186614f4e565b6159b76020830185614f4e565b6159c460408301846147c0565b949350505050565b7f426f6e64206973206e6f7420636f6d706c657465640000000000000000000000600082015250565b6000615a026015836148dd565b9150615a0d826159cc565b602082019050919050565b60006020820190508181036000830152615a31816159f5565b9050919050565b7f496e73756666696369656e7420626f6e64207175616e74697479000000000000600082015250565b6000615a6e601a836148dd565b9150615a7982615a38565b602082019050919050565b60006020820190508181036000830152615a9d81615a61565b9050919050565b7f426f6e64206973206e6f742064656661756c7465640000000000000000000000600082015250565b6000615ada6015836148dd565b9150615ae582615aa4565b602082019050919050565b60006020820190508181036000830152615b0981615acd565b9050919050565b6000604082019050615b2560008301856147c0565b615b3260208301846147c0565b9392505050565b7f59656172206f7074696f6e206f7574206f662072616e67650000000000000000600082015250565b6000615b6f6018836148dd565b9150615b7a82615b39565b602082019050919050565b60006020820190508181036000830152615b9e81615b62565b9050919050565b7f416c6c206f626c69676174696f6e732066756c66696c6c656400000000000000600082015250565b6000615bdb6019836148dd565b9150615be682615ba5565b602082019050919050565b60006020820190508181036000830152615c0a81615bce565b9050919050565b7f4d696e696d756d206f626c69676174696f6e206e6f742066756c66696c6c6564600082015250565b6000615c476020836148dd565b9150615c5282615c11565b602082019050919050565b60006020820190508181036000830152615c7681615c3a565b9050919050565b7f46756c66696c6c6d656e742073686f756c64206e6f742065786365656420352560008201527f2061626f7665206f626c69676174696f6e000000000000000000000000000000602082015250565b6000615cd96031836148dd565b9150615ce482615c7d565b604082019050919050565b60006020820190508181036000830152615d0881615ccc565b9050919050565b7f426f6e64206973206e6f742063616e63656c6564000000000000000000000000600082015250565b6000615d456014836148dd565b9150615d5082615d0f565b602082019050919050565b60006020820190508181036000830152615d7481615d38565b9050919050565b7f426f6e6420697320616c726561647920636f6d706c6574656400000000000000600082015250565b6000615db16019836148dd565b9150615dbc82615d7b565b602082019050919050565b60006020820190508181036000830152615de081615da4565b9050919050565b7f626f6e642069732064656661756c746564000000000000000000000000000000600082015250565b6000615e1d6011836148dd565b9150615e2882615de7565b602082019050919050565b60006020820190508181036000830152615e4c81615e10565b9050919050565b7f626f6e6420697320636f6d706c65746564000000000000000000000000000000600082015250565b6000615e896011836148dd565b9150615e9482615e53565b602082019050919050565b60006020820190508181036000830152615eb881615e7c565b9050919050565b600081519050615ece81614754565b92915050565b600060208284031215615eea57615ee96146e2565b5b6000615ef884828501615ebf565b91505092915050565b7f43616e6e6f742077697468647261772065786365737300000000000000000000600082015250565b6000615f376016836148dd565b9150615f4282615f01565b602082019050919050565b60006020820190508181036000830152615f6681615f2a565b9050919050565b7f43616e6e6f742077697468647261772066726f6d20656d70747920706f6f6c00600082015250565b6000615fa3601f836148dd565b9150615fae82615f6d565b602082019050919050565b60006020820190508181036000830152615fd281615f96565b9050919050565b7f416374697665206475726174696f6e2073686f756c642062652073686f72746560008201527f72207468616e2031383020646179730000000000000000000000000000000000602082015250565b6000616035602f836148dd565b915061604082615fd9565b604082019050919050565b6000602082019050818103600083015261606481616028565b9050919050565b60008190508160005260206000209050919050565b60006020601f8301049050919050565b600082821b905092915050565b6000600883026160cd7fffffffffffffffffffffffffffffffffffffffffffffffffffffffffffffffff82616090565b6160d78683616090565b95508019841693508086168417925050509392505050565b6000819050919050565b600061611461610f61610a8461474a565b6160ef565b61474a565b9050919050565b6000819050919050565b61612e836160f9565b61614261613a8261611b565b84845461609d565b825550505050565b600090565b61615761614a565b616162818484616125565b505050565b5b818110156161865761617b60008261614f565b600181019050616168565b5050565b601f8211156161cb5761619c8161606b565b6161a584616080565b810160208510156161b4578190505b6161c86161c085616080565b830182616167565b50505b505050565b600082821c905092915050565b60006161ee600019846008026161d0565b1980831691505092915050565b600061620783836161dd565b9150826002028217905092915050565b616220826148d2565b67ffffffffffffffff81111561623957616238614989565b5b61624382546152fc565b61624e82828561618a565b600060209050601f831160018114616281576000841561626f578287015190505b61627985826161fb565b8655506162e1565b601f19841661628f8661606b565b60005b828110156162b757848901518255600182019150602085019450602081019050616292565b868310156162d457848901516162d0601f8916826161dd565b8355505b6001600288020188555050505b505050505050565b60006080820190506162fe60008301876147c0565b61630b60208301866147c0565b61631860408301856147c0565b61632560608301846147c0565b95945050505050565b7f455243313135353a2069647320616e6420616d6f756e7473206c656e6774682060008201527f6d69736d61746368000000000000000000000000000000000000000000000000602082015250565b600061638a6028836148dd565b91506163958261632e565b604082019050919050565b600060208201905081810360008301526163b98161637d565b9050919050565b7f455243313135353a207472616e7366657220746f20746865207a65726f20616460008201527f6472657373000000000000000000000000000000000000000000000000000000602082015250565b600061641c6025836148dd565b9150616427826163c0565b604082019050919050565b6000602082019050818103600083015261644b8161640f565b9050919050565b7f455243313135353a20696e73756666696369656e742062616c616e636520666f60008201527f72207472616e7366657200000000000000000000000000000000000000000000602082015250565b60006164ae602a836148dd565b91506164b982616452565b604082019050919050565b600060208201905081810360008301526164dd816164a1565b9050919050565b600060408201905081810360008301526164fe8185614e2b565b905081810360208301526165128184614e2b565b90509392505050565b7f455243313135353a206275726e2066726f6d20746865207a65726f206164647260008201527f6573730000000000000000000000000000000000000000000000000000000000602082015250565b60006165776023836148dd565b91506165828261651b565b604082019050919050565b600060208201905081810360008301526165a68161656a565b9050919050565b7f455243313135353a206275726e20616d6f756e7420657863656564732062616c60008201527f616e636500000000000000000000000000000000000000000000000000000000602082015250565b60006166096024836148dd565b9150616614826165ad565b604082019050919050565b60006020820190508181036000830152616638816165fc565b9050919050565b7f455243313135353a2073657474696e6720617070726f76616c2073746174757360008201527f20666f722073656c660000000000000000000000000000000000000000000000602082015250565b600061669b6029836148dd565b91506166a68261663f565b604082019050919050565b600060208201905081810360008301526166ca8161668e565b9050919050565b7f455243313135353a206d696e7420746f20746865207a65726f2061646472657360008201527f7300000000000000000000000000000000000000000000000000000000000000602082015250565b600061672d6021836148dd565b9150616738826166d1565b604082019050919050565b6000602082019050818103600083015261675c81616720565b9050919050565b600081519050919050565b600082825260208201905092915050565b600061678a82616763565b616794818561676e565b93506167a48185602086016148ee565b6167ad81614918565b840191505092915050565b600060a0820190506167cd6000830188614f4e565b6167da6020830187614f4e565b81810360408301526167ec8186614e2b565b905081810360608301526168008185614e2b565b90508181036080830152616814818461677f565b90509695505050505050565b60008151905061682f81614816565b92915050565b60006020828403121561684b5761684a6146e2565b5b600061685984828501616820565b91505092915050565b60008160e01c9050919050565b600060033d111561688e5760046000803e61688b600051616862565b90505b90565b600060443d1061691e576168a36146d8565b60043d036004823e80513d602482011167ffffffffffffffff821117156168cb57505061691e565b808201805167ffffffffffffffff8111156168e9575050505061691e565b80602083010160043d03850181111561690657505050505061691e565b616915826020018501866149b8565b82955050505050505b90565b7f455243313135353a207472616e7366657220746f206e6f6e2d4552433131353560008201527f526563656976657220696d706c656d656e746572000000000000000000000000602082015250565b600061697d6034836148dd565b915061698882616921565b604082019050919050565b600060208201905081810360008301526169ac81616970565b9050919050565b7f455243313135353a204552433131353552656365697665722072656a6563746560008201527f6420746f6b656e73000000000000000000000000000000000000000000000000602082015250565b6000616a0f6028836148dd565b9150616a1a826169b3565b604082019050919050565b60006020820190508181036000830152616a3e81616a02565b9050919050565b600060a082019050616a5a6000830188614f4e565b616a676020830187614f4e565b616a7460408301866147c0565b616a8160608301856147c0565b8181036080830152616a93818461677f565b9050969550505050505056fea2646970667358221220bd80e4d7cef47affb21b0f85f87b34d1a11414756fb36c2762f609636335395d64736f6c63430008110033",
  "linkReferences": {},
  "deployedLinkReferences": {}
}