{
  "_format": "hh-sol-artifact-1",
  "contractName": "InstallmentBondFactory",
  "sourceName": "contracts/InstallmentBondFactory.sol",
  "abi": [
    {
      "inputs": [
        {
          "internalType": "string",
          "name": "uri",
          "type": "string"
        },
        {
          "internalType": "address",
          "name": "token",
          "type": "address"
        },
        {
          "internalType": "address",
          "name": "deployer",
          "type": "address"
        }
      ],
      "stateMutability": "nonpayable",
      "type": "constructor"
    },
    {
      "anonymous": false,
      "inputs": [
        {
          "indexed": true,
          "internalType": "address",
          "name": "account",
          "type": "address"
        },
        {
          "indexed": true,
          "internalType": "address",
          "name": "operator",
          "type": "address"
        },
        {
          "indexed": false,
          "internalType": "bool",
          "name": "approved",
          "type": "bool"
        }
      ],
      "name": "ApprovalForAll",
      "type": "event"
    },
    {
      "anonymous": false,
      "inputs": [
        {
          "indexed": true,
          "internalType": "uint256",
          "name": "id",
          "type": "uint256"
        },
        {
          "indexed": false,
          "internalType": "uint256",
          "name": "totalDebt",
          "type": "uint256"
        },
        {
          "indexed": false,
          "internalType": "uint256",
          "name": "paidDebt",
          "type": "uint256"
        }
      ],
      "name": "Completed",
      "type": "event"
    },
    {
      "anonymous": false,
      "inputs": [
        {
          "indexed": true,
          "internalType": "uint256",
          "name": "id",
          "type": "uint256"
        },
        {
          "indexed": false,
          "internalType": "uint256",
          "name": "totalDebt",
          "type": "uint256"
        },
        {
          "indexed": false,
          "internalType": "uint256",
          "name": "paidDebt",
          "type": "uint256"
        }
      ],
      "name": "Defaulted",
      "type": "event"
    },
    {
      "anonymous": false,
      "inputs": [
        {
          "indexed": true,
          "internalType": "uint256",
          "name": "id",
          "type": "uint256"
        },
        {
          "indexed": false,
          "internalType": "uint256",
          "name": "bondQuantity",
          "type": "uint256"
        },
        {
          "indexed": false,
          "internalType": "uint256",
          "name": "tokenAmountPerBond",
          "type": "uint256"
        },
        {
          "indexed": false,
          "internalType": "uint256",
          "name": "couponRate",
          "type": "uint256"
        },
        {
          "indexed": false,
          "internalType": "uint256",
          "name": "maturityDate",
          "type": "uint256"
        }
      ],
      "name": "Issued",
      "type": "event"
    },
    {
      "anonymous": false,
      "inputs": [
        {
          "indexed": true,
          "internalType": "uint256",
          "name": "id",
          "type": "uint256"
        },
        {
          "indexed": false,
          "internalType": "address",
          "name": "buyer",
          "type": "address"
        },
        {
          "indexed": false,
          "internalType": "uint256",
          "name": "bondQuantity",
          "type": "uint256"
        },
        {
          "indexed": false,
          "internalType": "uint256",
          "name": "state",
          "type": "uint256"
        }
      ],
      "name": "Redeemed",
      "type": "event"
    },
    {
      "anonymous": false,
      "inputs": [
        {
          "indexed": true,
          "internalType": "address",
          "name": "operator",
          "type": "address"
        },
        {
          "indexed": true,
          "internalType": "address",
          "name": "from",
          "type": "address"
        },
        {
          "indexed": true,
          "internalType": "address",
          "name": "to",
          "type": "address"
        },
        {
          "indexed": false,
          "internalType": "uint256[]",
          "name": "ids",
          "type": "uint256[]"
        },
        {
          "indexed": false,
          "internalType": "uint256[]",
          "name": "values",
          "type": "uint256[]"
        }
      ],
      "name": "TransferBatch",
      "type": "event"
    },
    {
      "anonymous": false,
      "inputs": [
        {
          "indexed": true,
          "internalType": "address",
          "name": "operator",
          "type": "address"
        },
        {
          "indexed": true,
          "internalType": "address",
          "name": "from",
          "type": "address"
        },
        {
          "indexed": true,
          "internalType": "address",
          "name": "to",
          "type": "address"
        },
        {
          "indexed": false,
          "internalType": "uint256",
          "name": "id",
          "type": "uint256"
        },
        {
          "indexed": false,
          "internalType": "uint256",
          "name": "value",
          "type": "uint256"
        }
      ],
      "name": "TransferSingle",
      "type": "event"
    },
    {
      "anonymous": false,
      "inputs": [
        {
          "indexed": false,
          "internalType": "string",
          "name": "value",
          "type": "string"
        },
        {
          "indexed": true,
          "internalType": "uint256",
          "name": "id",
          "type": "uint256"
        }
      ],
      "name": "URI",
      "type": "event"
    },
    {
      "inputs": [
        {
          "internalType": "address",
          "name": "account",
          "type": "address"
        },
        {
          "internalType": "uint256",
          "name": "id",
          "type": "uint256"
        }
      ],
      "name": "balanceOf",
      "outputs": [
        {
          "internalType": "uint256",
          "name": "",
          "type": "uint256"
        }
      ],
      "stateMutability": "view",
      "type": "function"
    },
    {
      "inputs": [
        {
          "internalType": "address[]",
          "name": "accounts",
          "type": "address[]"
        },
        {
          "internalType": "uint256[]",
          "name": "ids",
          "type": "uint256[]"
        }
      ],
      "name": "balanceOfBatch",
      "outputs": [
        {
          "internalType": "uint256[]",
          "name": "",
          "type": "uint256[]"
        }
      ],
      "stateMutability": "view",
      "type": "function"
    },
    {
      "inputs": [],
      "name": "baseToken",
      "outputs": [
        {
          "internalType": "address",
          "name": "",
          "type": "address"
        }
      ],
      "stateMutability": "view",
      "type": "function"
    },
    {
      "inputs": [
        {
          "internalType": "uint256",
          "name": "id",
          "type": "uint256"
        }
      ],
      "name": "bondMetadata",
      "outputs": [
        {
          "internalType": "string",
          "name": "",
          "type": "string"
        },
        {
          "internalType": "uint256",
          "name": "",
          "type": "uint256"
        },
        {
          "internalType": "uint256",
          "name": "",
          "type": "uint256"
        },
        {
          "internalType": "uint256",
          "name": "",
          "type": "uint256"
        },
        {
          "internalType": "uint256",
          "name": "",
          "type": "uint256"
        },
        {
          "internalType": "uint256",
          "name": "",
          "type": "uint256"
        },
        {
          "internalType": "uint256",
          "name": "",
          "type": "uint256"
        },
        {
          "internalType": "uint256",
          "name": "",
          "type": "uint256"
        },
        {
          "internalType": "uint256",
          "name": "",
          "type": "uint256"
        },
        {
          "internalType": "uint256",
          "name": "",
          "type": "uint256"
        }
      ],
      "stateMutability": "view",
      "type": "function"
    },
    {
      "inputs": [
        {
          "internalType": "uint256",
          "name": "id",
          "type": "uint256"
        }
      ],
      "name": "couponRate",
      "outputs": [
        {
          "internalType": "uint256",
          "name": "",
          "type": "uint256"
        }
      ],
      "stateMutability": "view",
      "type": "function"
    },
    {
      "inputs": [
        {
          "internalType": "uint256",
          "name": "id",
          "type": "uint256"
        },
        {
          "internalType": "uint256",
          "name": "tokenAmount",
          "type": "uint256"
        }
      ],
      "name": "deposit",
      "outputs": [],
      "stateMutability": "nonpayable",
      "type": "function"
    },
    {
      "inputs": [
        {
          "internalType": "uint256",
          "name": "id",
          "type": "uint256"
        }
      ],
      "name": "designatedTokenPool",
      "outputs": [
        {
          "internalType": "uint256",
          "name": "",
          "type": "uint256"
        }
      ],
      "stateMutability": "view",
      "type": "function"
    },
    {
      "inputs": [
        {
          "internalType": "uint256",
          "name": "id",
          "type": "uint256"
        },
        {
          "internalType": "uint256",
          "name": "tokenAmountPerBond",
          "type": "uint256"
        }
      ],
      "name": "fulfillObligationsAndLock",
      "outputs": [],
      "stateMutability": "nonpayable",
      "type": "function"
    },
    {
      "inputs": [],
      "name": "fundsRaised",
      "outputs": [
        {
          "internalType": "uint256",
          "name": "",
          "type": "uint256"
        }
      ],
      "stateMutability": "view",
      "type": "function"
    },
    {
      "inputs": [
        {
          "internalType": "uint256",
          "name": "id",
          "type": "uint256"
        }
      ],
      "name": "hasReachedMaturity",
      "outputs": [
        {
          "internalType": "bool",
          "name": "",
          "type": "bool"
        }
      ],
      "stateMutability": "view",
      "type": "function"
    },
    {
      "inputs": [
        {
          "internalType": "uint256",
          "name": "id",
          "type": "uint256"
        }
      ],
      "name": "isActive",
      "outputs": [
        {
          "internalType": "bool",
          "name": "",
          "type": "bool"
        }
      ],
      "stateMutability": "view",
      "type": "function"
    },
    {
      "inputs": [
        {
          "internalType": "address",
          "name": "account",
          "type": "address"
        },
        {
          "internalType": "address",
          "name": "operator",
          "type": "address"
        }
      ],
      "name": "isApprovedForAll",
      "outputs": [
        {
          "internalType": "bool",
          "name": "",
          "type": "bool"
        }
      ],
      "stateMutability": "view",
      "type": "function"
    },
    {
      "inputs": [
        {
          "internalType": "uint256",
          "name": "id",
          "type": "uint256"
        }
      ],
      "name": "isCanceled",
      "outputs": [
        {
          "internalType": "bool",
          "name": "",
          "type": "bool"
        }
      ],
      "stateMutability": "view",
      "type": "function"
    },
    {
      "inputs": [
        {
          "internalType": "uint256",
          "name": "id",
          "type": "uint256"
        }
      ],
      "name": "isCompleted",
      "outputs": [
        {
          "internalType": "bool",
          "name": "",
          "type": "bool"
        }
      ],
      "stateMutability": "view",
      "type": "function"
    },
    {
      "inputs": [
        {
          "internalType": "uint256",
          "name": "id",
          "type": "uint256"
        }
      ],
      "name": "isCompletedInTheory",
      "outputs": [
        {
          "internalType": "bool",
          "name": "",
          "type": "bool"
        }
      ],
      "stateMutability": "view",
      "type": "function"
    },
    {
      "inputs": [
        {
          "internalType": "uint256",
          "name": "id",
          "type": "uint256"
        }
      ],
      "name": "isDefaulted",
      "outputs": [
        {
          "internalType": "bool",
          "name": "",
          "type": "bool"
        }
      ],
      "stateMutability": "view",
      "type": "function"
    },
    {
      "inputs": [
        {
          "internalType": "uint256",
          "name": "id",
          "type": "uint256"
        }
      ],
      "name": "isDefaultedInTheory",
      "outputs": [
        {
          "internalType": "bool",
          "name": "",
          "type": "bool"
        }
      ],
      "stateMutability": "view",
      "type": "function"
    },
    {
      "inputs": [
        {
          "internalType": "uint256",
          "name": "id",
          "type": "uint256"
        }
      ],
      "name": "isFulfilled",
      "outputs": [
        {
          "internalType": "bool",
          "name": "",
          "type": "bool"
        }
      ],
      "stateMutability": "view",
      "type": "function"
    },
    {
      "inputs": [
        {
          "internalType": "uint256",
          "name": "id",
          "type": "uint256"
        }
      ],
      "name": "isFullyRedeemed",
      "outputs": [
        {
          "internalType": "bool",
          "name": "",
          "type": "bool"
        }
      ],
      "stateMutability": "view",
      "type": "function"
    },
    {
      "inputs": [
        {
          "internalType": "uint256",
          "name": "bondQuantity",
          "type": "uint256"
        },
        {
          "internalType": "uint256",
          "name": "minPurchasedQuantity",
          "type": "uint256"
        },
        {
          "internalType": "uint256",
          "name": "tokenAmountPerBond",
          "type": "uint256"
        },
        {
          "internalType": "string",
          "name": "ticker",
          "type": "string"
        },
        {
          "internalType": "uint256",
          "name": "yearOption",
          "type": "uint256"
        },
        {
          "internalType": "uint256",
          "name": "activeDurationInDays",
          "type": "uint256"
        },
        {
          "internalType": "uint256",
          "name": "rate",
          "type": "uint256"
        }
      ],
      "name": "issue",
      "outputs": [
        {
          "internalType": "uint256",
          "name": "id",
          "type": "uint256"
        }
      ],
      "stateMutability": "nonpayable",
      "type": "function"
    },
    {
      "inputs": [
        {
          "internalType": "uint256",
          "name": "id",
          "type": "uint256"
        }
      ],
      "name": "lockedTokenAmount",
      "outputs": [
        {
          "internalType": "uint256",
          "name": "",
          "type": "uint256"
        }
      ],
      "stateMutability": "view",
      "type": "function"
    },
    {
      "inputs": [
        {
          "internalType": "uint256",
          "name": "id",
          "type": "uint256"
        }
      ],
      "name": "lockedTokenAmountPerBond",
      "outputs": [
        {
          "internalType": "uint256",
          "name": "",
          "type": "uint256"
        }
      ],
      "stateMutability": "view",
      "type": "function"
    },
    {
      "inputs": [
        {
          "internalType": "uint256",
          "name": "id",
          "type": "uint256"
        }
      ],
      "name": "markAsCompleted",
      "outputs": [],
      "stateMutability": "nonpayable",
      "type": "function"
    },
    {
      "inputs": [
        {
          "internalType": "uint256",
          "name": "id",
          "type": "uint256"
        }
      ],
      "name": "markAsDefaulted",
      "outputs": [],
      "stateMutability": "nonpayable",
      "type": "function"
    },
    {
      "inputs": [
        {
          "internalType": "uint256",
          "name": "id",
          "type": "uint256"
        }
      ],
      "name": "minObligationTokenAmountPerBondList",
      "outputs": [
        {
          "internalType": "uint256[]",
          "name": "",
          "type": "uint256[]"
        }
      ],
      "stateMutability": "view",
      "type": "function"
    },
    {
      "inputs": [
        {
          "internalType": "uint256",
          "name": "id",
          "type": "uint256"
        }
      ],
      "name": "nextObligationDate",
      "outputs": [
        {
          "internalType": "uint256",
          "name": "",
          "type": "uint256"
        }
      ],
      "stateMutability": "view",
      "type": "function"
    },
    {
      "inputs": [
        {
          "internalType": "uint256",
          "name": "id",
          "type": "uint256"
        }
      ],
      "name": "numberOfTimesFulfilled",
      "outputs": [
        {
          "internalType": "uint256",
          "name": "",
          "type": "uint256"
        }
      ],
      "stateMutability": "view",
      "type": "function"
    },
    {
      "inputs": [
        {
          "internalType": "address",
          "name": "",
          "type": "address"
        },
        {
          "internalType": "address",
          "name": "",
          "type": "address"
        },
        {
          "internalType": "uint256[]",
          "name": "",
          "type": "uint256[]"
        },
        {
          "internalType": "uint256[]",
          "name": "",
          "type": "uint256[]"
        },
        {
          "internalType": "bytes",
          "name": "",
          "type": "bytes"
        }
      ],
      "name": "onERC1155BatchReceived",
      "outputs": [
        {
          "internalType": "bytes4",
          "name": "",
          "type": "bytes4"
        }
      ],
      "stateMutability": "nonpayable",
      "type": "function"
    },
    {
      "inputs": [
        {
          "internalType": "address",
          "name": "",
          "type": "address"
        },
        {
          "internalType": "address",
          "name": "",
          "type": "address"
        },
        {
          "internalType": "uint256",
          "name": "",
          "type": "uint256"
        },
        {
          "internalType": "uint256",
          "name": "",
          "type": "uint256"
        },
        {
          "internalType": "bytes",
          "name": "",
          "type": "bytes"
        }
      ],
      "name": "onERC1155Received",
      "outputs": [
        {
          "internalType": "bytes4",
          "name": "",
          "type": "bytes4"
        }
      ],
      "stateMutability": "nonpayable",
      "type": "function"
    },
    {
      "inputs": [],
      "name": "owner",
      "outputs": [
        {
          "internalType": "address",
          "name": "",
          "type": "address"
        }
      ],
      "stateMutability": "view",
      "type": "function"
    },
    {
      "inputs": [
        {
          "internalType": "uint256",
          "name": "id",
          "type": "uint256"
        }
      ],
      "name": "poolAmount",
      "outputs": [
        {
          "internalType": "uint256",
          "name": "",
          "type": "uint256"
        }
      ],
      "stateMutability": "view",
      "type": "function"
    },
    {
      "inputs": [
        {
          "internalType": "uint256",
          "name": "id",
          "type": "uint256"
        }
      ],
      "name": "preMaturityDefault",
      "outputs": [],
      "stateMutability": "nonpayable",
      "type": "function"
    },
    {
      "inputs": [
        {
          "internalType": "uint256",
          "name": "id",
          "type": "uint256"
        }
      ],
      "name": "principal",
      "outputs": [
        {
          "internalType": "uint256",
          "name": "",
          "type": "uint256"
        }
      ],
      "stateMutability": "view",
      "type": "function"
    },
    {
      "inputs": [
        {
          "internalType": "uint256",
          "name": "id",
          "type": "uint256"
        }
      ],
      "name": "principalWithInterest",
      "outputs": [
        {
          "internalType": "uint256",
          "name": "",
          "type": "uint256"
        }
      ],
      "stateMutability": "view",
      "type": "function"
    },
    {
      "inputs": [
        {
          "internalType": "uint256",
          "name": "id",
          "type": "uint256"
        },
        {
          "internalType": "uint256",
          "name": "bondQuantity",
          "type": "uint256"
        }
      ],
      "name": "purchase",
      "outputs": [],
      "stateMutability": "nonpayable",
      "type": "function"
    },
    {
      "inputs": [
        {
          "internalType": "uint256",
          "name": "id",
          "type": "uint256"
        },
        {
          "internalType": "uint256",
          "name": "bondQuantity",
          "type": "uint256"
        }
      ],
      "name": "redeem",
      "outputs": [],
      "stateMutability": "nonpayable",
      "type": "function"
    },
    {
      "inputs": [
        {
          "internalType": "uint256",
          "name": "id",
          "type": "uint256"
        }
      ],
      "name": "remainingQuantity",
      "outputs": [
        {
          "internalType": "uint256",
          "name": "",
          "type": "uint256"
        }
      ],
      "stateMutability": "view",
      "type": "function"
    },
    {
      "inputs": [
        {
          "internalType": "uint256",
          "name": "tokenAmountPerBond",
          "type": "uint256"
        },
        {
          "internalType": "uint256",
          "name": "yearOption",
          "type": "uint256"
        }
      ],
      "name": "retrieveMinObligationList",
      "outputs": [
        {
          "internalType": "uint256[]",
          "name": "",
          "type": "uint256[]"
        }
      ],
      "stateMutability": "view",
      "type": "function"
    },
    {
      "inputs": [
        {
          "internalType": "address",
          "name": "from",
          "type": "address"
        },
        {
          "internalType": "address",
          "name": "to",
          "type": "address"
        },
        {
          "internalType": "uint256[]",
          "name": "ids",
          "type": "uint256[]"
        },
        {
          "internalType": "uint256[]",
          "name": "amounts",
          "type": "uint256[]"
        },
        {
          "internalType": "bytes",
          "name": "data",
          "type": "bytes"
        }
      ],
      "name": "safeBatchTransferFrom",
      "outputs": [],
      "stateMutability": "nonpayable",
      "type": "function"
    },
    {
      "inputs": [
        {
          "internalType": "address",
          "name": "from",
          "type": "address"
        },
        {
          "internalType": "address",
          "name": "to",
          "type": "address"
        },
        {
          "internalType": "uint256",
          "name": "id",
          "type": "uint256"
        },
        {
          "internalType": "uint256",
          "name": "amount",
          "type": "uint256"
        },
        {
          "internalType": "bytes",
          "name": "data",
          "type": "bytes"
        }
      ],
      "name": "safeTransferFrom",
      "outputs": [],
      "stateMutability": "nonpayable",
      "type": "function"
    },
    {
      "inputs": [
        {
          "internalType": "address",
          "name": "operator",
          "type": "address"
        },
        {
          "internalType": "bool",
          "name": "approved",
          "type": "bool"
        }
      ],
      "name": "setApprovalForAll",
      "outputs": [],
      "stateMutability": "nonpayable",
      "type": "function"
    },
    {
      "inputs": [
        {
          "internalType": "bytes4",
          "name": "interfaceId",
          "type": "bytes4"
        }
      ],
      "name": "supportsInterface",
      "outputs": [
        {
          "internalType": "bool",
          "name": "",
          "type": "bool"
        }
      ],
      "stateMutability": "view",
      "type": "function"
    },
    {
      "inputs": [
        {
          "internalType": "uint256",
          "name": "id",
          "type": "uint256"
        }
      ],
      "name": "timeElapsed",
      "outputs": [
        {
          "internalType": "uint256",
          "name": "",
          "type": "uint256"
        }
      ],
      "stateMutability": "view",
      "type": "function"
    },
    {
      "inputs": [
        {
          "internalType": "uint256",
          "name": "id",
          "type": "uint256"
        }
      ],
      "name": "timeRemainingToEndOfActive",
      "outputs": [
        {
          "internalType": "uint256",
          "name": "",
          "type": "uint256"
        }
      ],
      "stateMutability": "view",
      "type": "function"
    },
    {
      "inputs": [
        {
          "internalType": "uint256",
          "name": "id",
          "type": "uint256"
        }
      ],
      "name": "timeRemainingToMaturity",
      "outputs": [
        {
          "internalType": "uint256",
          "name": "",
          "type": "uint256"
        }
      ],
      "stateMutability": "view",
      "type": "function"
    },
    {
      "inputs": [],
      "name": "tvl",
      "outputs": [
        {
          "internalType": "uint256",
          "name": "",
          "type": "uint256"
        }
      ],
      "stateMutability": "view",
      "type": "function"
    },
    {
      "inputs": [
        {
          "internalType": "uint256",
          "name": "",
          "type": "uint256"
        }
      ],
      "name": "uri",
      "outputs": [
        {
          "internalType": "string",
          "name": "",
          "type": "string"
        }
      ],
      "stateMutability": "view",
      "type": "function"
    },
    {
      "inputs": [
        {
          "internalType": "uint256",
          "name": "id",
          "type": "uint256"
        },
        {
          "internalType": "uint256",
          "name": "tokenAmount",
          "type": "uint256"
        }
      ],
      "name": "withdraw",
      "outputs": [],
      "stateMutability": "nonpayable",
      "type": "function"
    },
    {
      "inputs": [
        {
          "internalType": "uint256",
          "name": "id",
          "type": "uint256"
        }
      ],
      "name": "withdrawExcess",
      "outputs": [],
      "stateMutability": "nonpayable",
      "type": "function"
    },
    {
      "inputs": [
        {
          "internalType": "uint256",
          "name": "option",
          "type": "uint256"
        }
      ],
      "name": "yearOptionToDays",
      "outputs": [
        {
          "internalType": "uint256",
          "name": "",
          "type": "uint256"
        }
      ],
      "stateMutability": "pure",
      "type": "function"
    },
    {
      "inputs": [
        {
          "internalType": "uint256",
          "name": "option",
          "type": "uint256"
        }
      ],
      "name": "yearOptionToObligationRateList",
      "outputs": [
        {
          "internalType": "uint256[]",
          "name": "",
          "type": "uint256[]"
        }
      ],
      "stateMutability": "view",
      "type": "function"
    }
  ],
  "bytecode": "0x60c060405260006003556040518060a00160405280600560ff168152602001600560ff168152602001600a60ff168152602001600f60ff168152602001600f60ff16815250600d906005620000569291906200027b565b50604051806101200160405280600260ff168152602001600260ff168152602001600260ff168152602001600260ff168152602001600260ff168152602001600560ff168152602001600a60ff168152602001600a60ff168152602001600f60ff16815250600e906009620000cd929190620002d2565b50604051806102600160405280600260ff168152602001600260ff168152602001600260ff168152602001600260ff168152602001600260ff168152602001600260ff168152602001600260ff168152602001600260ff168152602001600260ff168152602001600260ff168152602001600260ff168152602001600260ff168152602001600260ff168152602001600260ff168152602001600260ff168152602001600560ff168152602001600560ff168152602001600560ff168152602001600560ff16815250600f906013620001a892919062000329565b50348015620001b657600080fd5b5060405162007042380380620070428339818101604052810190620001dc919062000597565b82828282620001f1816200026660201b60201c565b508073ffffffffffffffffffffffffffffffffffffffff1660808173ffffffffffffffffffffffffffffffffffffffff16815250508173ffffffffffffffffffffffffffffffffffffffff1660a08173ffffffffffffffffffffffffffffffffffffffff168152505050505050505062000944565b80600290816200027791906200085d565b5050565b828054828255906000526020600020908101928215620002bf579160200282015b82811115620002be578251829060ff169055916020019190600101906200029c565b5b509050620002ce919062000380565b5090565b82805482825590600052602060002090810192821562000316579160200282015b8281111562000315578251829060ff16905591602001919060010190620002f3565b5b50905062000325919062000380565b5090565b8280548282559060005260206000209081019282156200036d579160200282015b828111156200036c578251829060ff169055916020019190600101906200034a565b5b5090506200037c919062000380565b5090565b5b808211156200039b57600081600090555060010162000381565b5090565b6000604051905090565b600080fd5b600080fd5b600080fd5b600080fd5b6000601f19601f8301169050919050565b7f4e487b7100000000000000000000000000000000000000000000000000000000600052604160045260246000fd5b6200040882620003bd565b810181811067ffffffffffffffff821117156200042a5762000429620003ce565b5b80604052505050565b60006200043f6200039f565b90506200044d8282620003fd565b919050565b600067ffffffffffffffff82111562000470576200046f620003ce565b5b6200047b82620003bd565b9050602081019050919050565b60005b83811015620004a85780820151818401526020810190506200048b565b60008484015250505050565b6000620004cb620004c58462000452565b62000433565b905082815260208101848484011115620004ea57620004e9620003b8565b5b620004f784828562000488565b509392505050565b600082601f830112620005175762000516620003b3565b5b815162000529848260208601620004b4565b91505092915050565b600073ffffffffffffffffffffffffffffffffffffffff82169050919050565b60006200055f8262000532565b9050919050565b620005718162000552565b81146200057d57600080fd5b50565b600081519050620005918162000566565b92915050565b600080600060608486031215620005b357620005b2620003a9565b5b600084015167ffffffffffffffff811115620005d457620005d3620003ae565b5b620005e286828701620004ff565b9350506020620005f58682870162000580565b9250506040620006088682870162000580565b9150509250925092565b600081519050919050565b7f4e487b7100000000000000000000000000000000000000000000000000000000600052602260045260246000fd5b600060028204905060018216806200066557607f821691505b6020821081036200067b576200067a6200061d565b5b50919050565b60008190508160005260206000209050919050565b60006020601f8301049050919050565b600082821b905092915050565b600060088302620006e57fffffffffffffffffffffffffffffffffffffffffffffffffffffffffffffffff82620006a6565b620006f18683620006a6565b95508019841693508086168417925050509392505050565b6000819050919050565b6000819050919050565b60006200073e62000738620007328462000709565b62000713565b62000709565b9050919050565b6000819050919050565b6200075a836200071d565b62000772620007698262000745565b848454620006b3565b825550505050565b600090565b620007896200077a565b620007968184846200074f565b505050565b5b81811015620007be57620007b26000826200077f565b6001810190506200079c565b5050565b601f8211156200080d57620007d78162000681565b620007e28462000696565b81016020851015620007f2578190505b6200080a620008018562000696565b8301826200079b565b50505b505050565b600082821c905092915050565b6000620008326000198460080262000812565b1980831691505092915050565b60006200084d83836200081f565b9150826002028217905092915050565b620008688262000612565b67ffffffffffffffff811115620008845762000883620003ce565b5b6200089082546200064c565b6200089d828285620007c2565b600060209050601f831160018114620008d55760008415620008c0578287015190505b620008cc85826200083f565b8655506200093c565b601f198416620008e58662000681565b60005b828110156200090f57848901518255600182019150602085019450602081019050620008e8565b868310156200092f57848901516200092b601f8916826200081f565b8355505b6001600288020188555050505b505050505050565b60805160a05161666f620009d3600039600081816111ac0152818161184a01528181611b2b01528181611fb501528181612518015281816127650152818161299401528181612b1001528181612d250152612f1a015260008181610ff10152818161139a01528181611dd901528181612172015281816129ed01528181612dc40152613155015261666f6000f3fe608060405234801561001057600080fd5b50600436106102f05760003560e01c80638c3526c21161019d578063c372fb91116100e9578063e755ddd7116100a2578063f0d8100a1161007c578063f0d8100a14610aaa578063f23a6e6114610ada578063f242432a14610b0a578063fcbc669a14610b26576102f0565b8063e755ddd714610a2e578063e885809014610a4a578063e985e9c514610a7a576102f0565b8063c372fb9114610946578063c55dae6314610976578063d3b7811b14610994578063e2bbb158146109c4578063e52270e0146109e0578063e5328e0614610a10576102f0565b8063a9385a5c11610156578063bc197c8111610130578063bc197c811461089a578063be5ba490146108ca578063c0a6026c146108fa578063c36177fc14610916576102f0565b8063a9385a5c1461081e578063abac75e11461084e578063af73e2c91461087e576102f0565b80638c3526c21461072f5780638da5cb5b146107685780638f0dbf7714610786578063932a8de0146107b6578063a22cb465146107e6578063a874302214610802576102f0565b806339e3af9b1161025c5780636ff80d93116102155780637a41984b116101ef5780637a41984b146106835780637cbc2373146106b357806382afd23b146106cf57806388bdc083146106ff576102f0565b80636ff80d931461060757806370876c981461063757806377e2a08b14610653576102f0565b806339e3af9b14610521578063441a3e70146105515780634e1273f41461056d578063549493bb1461059d5780636567dc4d146105cd5780636681b9fd146105e9576102f0565b806314f29493116102ae57806314f29493146104155780631add027114610445578063239f60da146104755780632eb2c2d6146104a55780632f3ad61f146104c15780633097afb8146104f1576102f0565b8062fdd58e146102f557806301ffc9a714610325578063021594971461035557806308913ce81461038557806309149020146103b55780630e89341c146103e5575b600080fd5b61030f600480360381019061030a91906145b9565b610b56565b60405161031c9190614608565b60405180910390f35b61033f600480360381019061033a919061467b565b610c1e565b60405161034c91906146c3565b60405180910390f35b61036f600480360381019061036a91906146de565b610d00565b60405161037c9190614608565b60405180910390f35b61039f600480360381019061039a91906146de565b610d1d565b6040516103ac9190614608565b60405180910390f35b6103cf60048036038101906103ca91906146de565b610d48565b6040516103dc91906146c3565b60405180910390f35b6103ff60048036038101906103fa91906146de565b610d7e565b60405161040c919061479b565b60405180910390f35b61042f600480360381019061042a91906146de565b610e12565b60405161043c9190614608565b60405180910390f35b61045f600480360381019061045a91906146de565b610e50565b60405161046c9190614608565b60405180910390f35b61048f600480360381019061048a91906146de565b610ea9565b60405161049c9190614608565b60405180910390f35b6104bf60048036038101906104ba91906149ba565b610ec6565b005b6104db60048036038101906104d691906146de565b610f67565b6040516104e891906146c3565b60405180910390f35b61050b600480360381019061050691906146de565b610f91565b60405161051891906146c3565b60405180910390f35b61053b600480360381019061053691906146de565b610fca565b60405161054891906146c3565b60405180910390f35b61056b60048036038101906105669190614a89565b610fef565b005b61058760048036038101906105829190614b8c565b61124d565b6040516105949190614cc2565b60405180910390f35b6105b760048036038101906105b291906146de565b611366565b6040516105c491906146c3565b60405180910390f35b6105e760048036038101906105e291906146de565b611398565b005b6105f1611567565b6040516105fe9190614608565b60405180910390f35b610621600480360381019061061c91906146de565b611571565b60405161062e91906146c3565b60405180910390f35b610651600480360381019061064c9190614a89565b611609565b005b61066d600480360381019061066891906146de565b6118ef565b60405161067a9190614608565b60405180910390f35b61069d600480360381019061069891906146de565b611948565b6040516106aa91906146c3565b60405180910390f35b6106cd60048036038101906106c89190614a89565b611972565b005b6106e960048036038101906106e491906146de565b611c0b565b6040516106f691906146c3565b60405180910390f35b610719600480360381019061071491906146de565b611c2e565b6040516107269190614608565b60405180910390f35b610749600480360381019061074491906146de565b611c61565b60405161075f9a99989796959493929190614ce4565b60405180910390f35b610770611dd5565b60405161077d9190614d96565b60405180910390f35b6107a0600480360381019061079b91906146de565b611dfd565b6040516107ad91906146c3565b60405180910390f35b6107d060048036038101906107cb91906146de565b611e1f565b6040516107dd9190614608565b60405180910390f35b61080060048036038101906107fb9190614ddd565b611e5d565b005b61081c600480360381019061081791906146de565b611e73565b005b610838600480360381019061083391906146de565b612099565b6040516108459190614608565b60405180910390f35b610868600480360381019061086391906146de565b612150565b6040516108759190614608565b60405180910390f35b61089860048036038101906108939190614a89565b612170565b005b6108b460048036038101906108af91906149ba565b6125bc565b6040516108c19190614e2c565b60405180910390f35b6108e460048036038101906108df91906146de565b6125d1565b6040516108f19190614cc2565b60405180910390f35b610914600480360381019061090f91906146de565b61263c565b005b610930600480360381019061092b9190614a89565b612842565b60405161093d9190614cc2565b60405180910390f35b610960600480360381019061095b91906146de565b612973565b60405161096d9190614608565b60405180910390f35b61097e612990565b60405161098b9190614d96565b60405180910390f35b6109ae60048036038101906109a991906146de565b6129b8565b6040516109bb9190614608565b60405180910390f35b6109de60048036038101906109d99190614a89565b6129eb565b005b6109fa60048036038101906109f591906146de565b612bb3565b604051610a079190614cc2565b60405180910390f35b610a18612d21565b604051610a259190614608565b60405180910390f35b610a486004803603810190610a4391906146de565b612dc2565b005b610a646004803603810190610a5f91906146de565b612fcd565b604051610a719190614608565b60405180910390f35b610a946004803603810190610a8f9190614e47565b612fea565b604051610aa191906146c3565b60405180910390f35b610ac46004803603810190610abf91906146de565b61307e565b604051610ad19190614608565b60405180910390f35b610af46004803603810190610aef9190614e87565b61309b565b604051610b019190614e2c565b60405180910390f35b610b246004803603810190610b1f9190614e87565b6130b0565b005b610b406004803603810190610b3b9190614f79565b613151565b604051610b4d9190614608565b60405180910390f35b60008073ffffffffffffffffffffffffffffffffffffffff168373ffffffffffffffffffffffffffffffffffffffff1603610bc6576040517f08c379a0000000000000000000000000000000000000000000000000000000008152600401610bbd906150ad565b60405180910390fd5b60008083815260200190815260200160002060008473ffffffffffffffffffffffffffffffffffffffff1673ffffffffffffffffffffffffffffffffffffffff16815260200190815260200160002054905092915050565b60007fd9b67a26000000000000000000000000000000000000000000000000000000007bffffffffffffffffffffffffffffffffffffffffffffffffffffffff1916827bffffffffffffffffffffffffffffffffffffffffffffffffffffffff19161480610ce957507f0e89341c000000000000000000000000000000000000000000000000000000007bffffffffffffffffffffffffffffffffffffffffffffffffffffffff1916827bffffffffffffffffffffffffffffffffffffffffffffffffffffffff1916145b80610cf95750610cf8826134bc565b5b9050919050565b600060086000838152602001908152602001600020549050919050565b6000600560008381526020019081526020016000206002015442610d4191906150fc565b9050919050565b60006005600083815260200190815260200160002060080154600660008481526020019081526020016000205410159050919050565b606060028054610d8d9061515f565b80601f0160208091040260200160405190810160405280929190818152602001828054610db99061515f565b8015610e065780601f10610ddb57610100808354040283529160200191610e06565b820191906000526020600020905b815481529060010190602001808311610de957829003601f168201915b50505050509050919050565b600060066000838152602001908152602001600020546005600084815260200190815260200160002060010154610e499190615190565b9050919050565b6000670de0b6b3a76400006005600084815260200190815260200160002060070154670de0b6b3a7640000610e8485612fcd565b610e8e9190615190565b610e989190615201565b610ea29190615201565b9050919050565b600060136000838152602001908152602001600020549050919050565b610ece613526565b73ffffffffffffffffffffffffffffffffffffffff168573ffffffffffffffffffffffffffffffffffffffff161480610f145750610f1385610f0e613526565b612fea565b5b610f53576040517f08c379a0000000000000000000000000000000000000000000000000000000008152600401610f4a906152a4565b60405180910390fd5b610f60858585858561352e565b5050505050565b6000600b600083815260200190815260200160002060009054906101000a900460ff169050919050565b6000610f9c82611dfd565b8015610fc35750610fac826118ef565b600860008481526020019081526020016000205410155b9050919050565b6000610fd582611c0b565b158015610fe85750610fe682610d48565b155b9050919050565b7f000000000000000000000000000000000000000000000000000000000000000073ffffffffffffffffffffffffffffffffffffffff163373ffffffffffffffffffffffffffffffffffffffff161461107d576040517f08c379a000000000000000000000000000000000000000000000000000000000815260040161107490615310565b60405180910390fd5b61108682611c0b565b158015611099575061109782610fca565b155b80156110ab57506110a982611948565b155b80156110cd57506110bb82610f67565b806110cb57506110ca82611571565b5b155b61110c576040517f08c379a00000000000000000000000000000000000000000000000000000000081526004016111039061537c565b60405180910390fd5b6012600083815260200190815260200160002054600860008481526020019081526020016000205461113e91906150fc565b811115611180576040517f08c379a0000000000000000000000000000000000000000000000000000000008152600401611177906153e8565b60405180910390fd5b806008600084815260200190815260200160002060008282546111a391906150fc565b925050819055507f000000000000000000000000000000000000000000000000000000000000000073ffffffffffffffffffffffffffffffffffffffff1663a9059cbb33836040518363ffffffff1660e01b8152600401611205929190615408565b6020604051808303816000875af1158015611224573d6000803e3d6000fd5b505050506040513d601f19601f820116820180604052508101906112489190615446565b505050565b60608151835114611293576040517f08c379a000000000000000000000000000000000000000000000000000000000815260040161128a906154e5565b60405180910390fd5b6000835167ffffffffffffffff8111156112b0576112af6147c2565b5b6040519080825280602002602001820160405280156112de5781602001602082028036833780820191505090505b50905060005b845181101561135b5761132b85828151811061130357611302615505565b5b602002602001015185838151811061131e5761131d615505565b5b6020026020010151610b56565b82828151811061133e5761133d615505565b5b6020026020010181815250508061135490615534565b90506112e4565b508091505092915050565b600060066000838152602001908152602001600020546007600084815260200190815260200160002054149050919050565b7f000000000000000000000000000000000000000000000000000000000000000073ffffffffffffffffffffffffffffffffffffffff163373ffffffffffffffffffffffffffffffffffffffff1614611426576040517f08c379a000000000000000000000000000000000000000000000000000000000815260040161141d90615310565b60405180910390fd5b61142f81611948565b158015611442575061144081610f67565b155b80156114685750611452816118ef565b6008600083815260200190815260200160002054105b6114a7576040517f08c379a000000000000000000000000000000000000000000000000000000000815260040161149e906155c8565b60405180910390fd5b6000600860008381526020019081526020016000205490506006600083815260200190815260200160002054816114de9190615201565b60096000848152602001908152602001600020819055506001600b600084815260200190815260200160002060006101000a81548160ff021916908315150217905550817fc4f17a65d54873d57229ea5f59c4ddec592d095bc17581372676402c8228b9cd61154c846118ef565b8360405161155b9291906155e8565b60405180910390a25050565b6000600454905090565b60008061157d83611dfd565b80156115a3575061158d836118ef565b6008600085815260200190815260200160002054105b905060006115b084611dfd565b1580156115f557506201518060b4600160136000888152602001908152602001600020546115de9190615611565b6115e89190615190565b6115f29190615190565b42115b905081806116005750805b92505050919050565b61161282611c0b565b611651576040517f08c379a000000000000000000000000000000000000000000000000000000000815260040161164890615691565b60405180910390fd5b8061165b83611e1f565b101561169c576040517f08c379a0000000000000000000000000000000000000000000000000000000008152600401611693906156fd565b60405180910390fd5b600060056000848152602001908152602001600020604051806101400160405290816000820180546116cd9061515f565b80601f01602080910402602001604051908101604052809291908181526020018280546116f99061515f565b80156117465780601f1061171b57610100808354040283529160200191611746565b820191906000526020600020905b81548152906001019060200180831161172957829003601f168201915b505050505081526020016001820154815260200160028201548152602001600382015481526020016004820154815260200160058201548152602001600682015481526020016007820154815260200160088201548152602001600982015481525050905060008160200151836117bd9190615190565b9050826006600086815260200190815260200160002060008282546117e29190615611565b925050819055508060086000868152602001908152602001600020600082825461180c9190615611565b9250508190555080600460008282546118259190615611565b9250508190555061184830338686604051806020016040528060008152506130b0565b7f000000000000000000000000000000000000000000000000000000000000000073ffffffffffffffffffffffffffffffffffffffff166323b872dd3330846040518463ffffffff1660e01b81526004016118a59392919061571d565b6020604051808303816000875af11580156118c4573d6000803e3d6000fd5b505050506040513d601f19601f820116820180604052508101906118e89190615446565b5050505050565b6000670de0b6b3a7640000600560008481526020019081526020016000206009015461191a84610e12565b6119249190615190565b61192e9190615201565b61193783610e12565b6119419190615611565b9050919050565b6000600c600083815260200190815260200160002060009054906101000a900460ff169050919050565b8061197d3384610b56565b10156119be576040517f08c379a00000000000000000000000000000000000000000000000000000000081526004016119b5906156fd565b60405180910390fd5b6119c782611948565b806119d757506119d682610fca565b5b806119e757506119e682610f67565b5b611a26576040517f08c379a0000000000000000000000000000000000000000000000000000000008152600401611a1d906157a0565b60405180910390fd5b600080611a3284611948565b15611a5657600a600085815260200190815260200160002054915060009050611aba565b611a5f84610fca565b15611a86576005600085815260200190815260200160002060010154915060019050611ab9565b611a8f84610f67565b15611ab3576009600085815260200190815260200160002054915060029050611ab8565b600080fd5b5b5b611ac533858561384f565b82600760008681526020019081526020016000206000828254611ae89190615611565b9250508190555060008284611afd9190615190565b905080600860008781526020019081526020016000206000828254611b2291906150fc565b925050819055507f000000000000000000000000000000000000000000000000000000000000000073ffffffffffffffffffffffffffffffffffffffff1663a9059cbb33836040518363ffffffff1660e01b8152600401611b84929190615408565b6020604051808303816000875af1158015611ba3573d6000803e3d6000fd5b505050506040513d601f19601f82011682018060405250810190611bc79190615446565b50847fa5851b0172fdafd3dafe0e52ce051747548a4c642a2f22793c01faf228e13062338685604051611bfc939291906157c0565b60405180910390a25050505050565b600060056000838152602001908152602001600020600401544211159050919050565b6000611c3982610d1d565b6005600084815260200190815260200160002060040154611c5a91906150fc565b9050919050565b6060600080600080600080600080600080600560008d815260200190815260200160002060405180610140016040529081600082018054611ca19061515f565b80601f0160208091040260200160405190810160405280929190818152602001828054611ccd9061515f565b8015611d1a5780601f10611cef57610100808354040283529160200191611d1a565b820191906000526020600020905b815481529060010190602001808311611cfd57829003601f168201915b5050505050815260200160018201548152602001600282015481526020016003820154815260200160048201548152602001600582015481526020016006820154815260200160078201548152602001600882015481526020016009820154815250509050806000015181602001518260400151836060015184608001518560a001518660c001518760e001518861010001518961012001519a509a509a509a509a509a509a509a509a509a50509193959799509193959799565b60007f0000000000000000000000000000000000000000000000000000000000000000905090565b6000600560008381526020019081526020016000206003015442119050919050565b600060066000838152602001908152602001600020546005600084815260200190815260200160002060070154611e5691906150fc565b9050919050565b611e6f611e68613526565b8383613a95565b5050565b611e7c81611948565b158015611e8f5750611e8d81610f67565b155b8015611ea05750611e9f81611571565b5b611edf576040517f08c379a0000000000000000000000000000000000000000000000000000000008152600401611ed690615843565b60405180910390fd5b60006103e86008600084815260200190815260200160002054611f029190615201565b90506000816008600085815260200190815260200160002054611f2591906150fc565b9050600660008481526020019081526020016000205481611f469190615201565b600960008581526020019081526020016000208190555081600860008581526020019081526020016000206000828254611f8091906150fc565b925050819055506001600b600085815260200190815260200160002060006101000a81548160ff0219169083151502179055507f000000000000000000000000000000000000000000000000000000000000000073ffffffffffffffffffffffffffffffffffffffff1663a9059cbb33846040518363ffffffff1660e01b815260040161200e929190615408565b6020604051808303816000875af115801561202d573d6000803e3d6000fd5b505050506040513d601f19601f820116820180604052508101906120519190615446565b50827fc4f17a65d54873d57229ea5f59c4ddec592d095bc17581372676402c8228b9cd61207d856118ef565b8360405161208c9291906155e8565b60405180910390a2505050565b600081600081101580156120ae575060028111155b6120ed576040517f08c379a00000000000000000000000000000000000000000000000000000000081526004016120e4906158af565b60405180910390fd5b600060b460026120fd9190615190565b90506000840361211c578060036121149190615190565b92505061214a565b60018403612139578060056121319190615190565b92505061214a565b80600a6121469190615190565b9250505b50919050565b600060056000838152602001908152602001600020600901549050919050565b7f000000000000000000000000000000000000000000000000000000000000000073ffffffffffffffffffffffffffffffffffffffff163373ffffffffffffffffffffffffffffffffffffffff16146121fe576040517f08c379a00000000000000000000000000000000000000000000000000000000081526004016121f590615310565b60405180910390fd5b61220782610f67565b80612217575061221682611571565b5b15612257576040517f08c379a000000000000000000000000000000000000000000000000000000000815260040161224e9061537c565b60405180910390fd5b600560008381526020019081526020016000206006015460b4600160136000868152602001908152602001600020546122909190615611565b61229a9190615190565b036122da576040517f08c379a00000000000000000000000000000000000000000000000000000000081526004016122d19061591b565b60405180910390fd5b6011600083815260200190815260200160002060136000848152602001908152602001600020548154811061231257612311615505565b5b906000526020600020015481101561235f576040517f08c379a000000000000000000000000000000000000000000000000000000000815260040161235690615987565b60405180910390fd5b66b1a2bc2ec500006011600084815260200190815260200160002060136000858152602001908152602001600020548154811061239f5761239e615505565b5b9060005260206000200154670de0b6b3a7640000601160008681526020019081526020016000206013600087815260200190815260200160002054815481106123eb576123ea615505565b5b90600052602060002001548461240191906150fc565b61240b9190615190565b6124159190615201565b1115612456576040517f08c379a000000000000000000000000000000000000000000000000000000000815260040161244d906159f3565b60405180910390fd5b600060056000848152602001908152602001600020600701548261247a9190615190565b90508060126000858152602001908152602001600020600082825461249f9190615611565b925050819055506201518060b46124b69190615190565b60106000858152602001908152602001600020546124d49190615611565b6010600085815260200190815260200160002081905550600160136000858152602001908152602001600020600082825461250f9190615611565b925050819055507f000000000000000000000000000000000000000000000000000000000000000073ffffffffffffffffffffffffffffffffffffffff166323b872dd3330846040518463ffffffff1660e01b81526004016125739392919061571d565b6020604051808303816000875af1158015612592573d6000803e3d6000fd5b505050506040513d601f19601f820116820180604052508101906125b69190615446565b50505050565b600063bc197c8160e01b905095945050505050565b60606011600083815260200190815260200160002080548060200260200160405190810160405280929190818152602001828054801561263057602002820191906000526020600020905b81548152602001906001019080831161261c575b50505050509050919050565b61264581610f67565b158015612658575061265681611948565b155b8015612669575061266881610f91565b5b6126a8576040517f08c379a000000000000000000000000000000000000000000000000000000000815260040161269f90615a5f565b60405180910390fd5b60006126b3826118ef565b905060006103e8826126c59190615201565b9050600081836126d591906150fc565b90506006600085815260200190815260200160002054816126f69190615201565b600a6000868152602001908152602001600020819055508160086000868152602001908152602001600020600082825461273091906150fc565b925050819055506001600c600086815260200190815260200160002060006101000a81548160ff0219169083151502179055507f000000000000000000000000000000000000000000000000000000000000000073ffffffffffffffffffffffffffffffffffffffff1663a9059cbb33846040518363ffffffff1660e01b81526004016127be929190615408565b6020604051808303816000875af11580156127dd573d6000803e3d6000fd5b505050506040513d601f19601f820116820180604052508101906128019190615446565b50837fac2eeaf45d1b75aed6b3285cda3efb3c382cce02ba313558bbb90be57f8843e484836040516128349291906155e8565b60405180910390a250505050565b60608160008110158015612857575060028111155b612896576040517f08c379a000000000000000000000000000000000000000000000000000000000815260040161288d906158af565b60405180910390fd5b60006128a184612bb3565b905060008151905060008167ffffffffffffffff8111156128c5576128c46147c2565b5b6040519080825280602002602001820160405280156128f35781602001602082028036833780820191505090505b50905060005b8281101561296557606484828151811061291657612915615505565b5b6020026020010151896129299190615190565b6129339190615201565b82828151811061294657612945615505565b5b602002602001018181525050808061295d90615534565b9150506128f9565b508094505050505092915050565b600060106000838152602001908152602001600020549050919050565b60007f0000000000000000000000000000000000000000000000000000000000000000905090565b60006129c382610d1d565b60056000848152602001908152602001600020600301546129e491906150fc565b9050919050565b7f000000000000000000000000000000000000000000000000000000000000000073ffffffffffffffffffffffffffffffffffffffff163373ffffffffffffffffffffffffffffffffffffffff1614612a79576040517f08c379a0000000000000000000000000000000000000000000000000000000008152600401612a7090615310565b60405180910390fd5b612a8282610f67565b80612a925750612a9182611571565b5b158015612aa55750612aa382611948565b155b612ae4576040517f08c379a0000000000000000000000000000000000000000000000000000000008152600401612adb90615acb565b60405180910390fd5b80600860008481526020019081526020016000206000828254612b079190615611565b925050819055507f000000000000000000000000000000000000000000000000000000000000000073ffffffffffffffffffffffffffffffffffffffff166323b872dd3330846040518463ffffffff1660e01b8152600401612b6b9392919061571d565b6020604051808303816000875af1158015612b8a573d6000803e3d6000fd5b505050506040513d601f19601f82011682018060405250810190612bae9190615446565b505050565b60608160008110158015612bc8575060028111155b612c07576040517f08c379a0000000000000000000000000000000000000000000000000000000008152600401612bfe906158af565b60405180910390fd5b60008303612c6757600d805480602002602001604051908101604052809291908181526020018280548015612c5b57602002820191906000526020600020905b815481526020019060010190808311612c47575b50505050509150612d1b565b60018303612cc757600e805480602002602001604051908101604052809291908181526020018280548015612cbb57602002820191906000526020600020905b815481526020019060010190808311612ca7575b50505050509150612d1b565b600f805480602002602001604051908101604052809291908181526020018280548015612d1357602002820191906000526020600020905b815481526020019060010190808311612cff575b505050505091505b50919050565b60007f000000000000000000000000000000000000000000000000000000000000000073ffffffffffffffffffffffffffffffffffffffff166370a08231306040518263ffffffff1660e01b8152600401612d7c9190614d96565b602060405180830381865afa158015612d99573d6000803e3d6000fd5b505050506040513d601f19601f82011682018060405250810190612dbd9190615b00565b905090565b7f000000000000000000000000000000000000000000000000000000000000000073ffffffffffffffffffffffffffffffffffffffff163373ffffffffffffffffffffffffffffffffffffffff1614612e50576040517f08c379a0000000000000000000000000000000000000000000000000000000008152600401612e4790615310565b60405180910390fd5b612e5981611948565b8015612e6a5750612e6981611366565b5b612ea9576040517f08c379a0000000000000000000000000000000000000000000000000000000008152600401612ea09061537c565b60405180910390fd5b6000600860008381526020019081526020016000205411612eff576040517f08c379a0000000000000000000000000000000000000000000000000000000008152600401612ef690615b79565b60405180910390fd5b600060086000838152602001908152602001600020819055507f000000000000000000000000000000000000000000000000000000000000000073ffffffffffffffffffffffffffffffffffffffff1663a9059cbb3360086000858152602001908152602001600020546040518363ffffffff1660e01b8152600401612f86929190615408565b6020604051808303816000875af1158015612fa5573d6000803e3d6000fd5b505050506040513d601f19601f82011682018060405250810190612fc99190615446565b5050565b600060126000838152602001908152602001600020549050919050565b6000600160008473ffffffffffffffffffffffffffffffffffffffff1673ffffffffffffffffffffffffffffffffffffffff16815260200190815260200160002060008373ffffffffffffffffffffffffffffffffffffffff1673ffffffffffffffffffffffffffffffffffffffff16815260200190815260200160002060009054906101000a900460ff16905092915050565b600060086000838152602001908152602001600020549050919050565b600063f23a6e6160e01b905095945050505050565b6130b8613526565b73ffffffffffffffffffffffffffffffffffffffff168573ffffffffffffffffffffffffffffffffffffffff1614806130fe57506130fd856130f8613526565b612fea565b5b61313d576040517f08c379a0000000000000000000000000000000000000000000000000000000008152600401613134906152a4565b60405180910390fd5b61314a8585858585613c01565b5050505050565b60007f000000000000000000000000000000000000000000000000000000000000000073ffffffffffffffffffffffffffffffffffffffff163373ffffffffffffffffffffffffffffffffffffffff16146131e1576040517f08c379a00000000000000000000000000000000000000000000000000000000081526004016131d890615310565b60405180910390fd5b83600081101580156131f4575060028111155b613233576040517f08c379a000000000000000000000000000000000000000000000000000000000815260040161322a906158af565b60405180910390fd5b6007841115613277576040517f08c379a000000000000000000000000000000000000000000000000000000000815260040161326e90615be5565b60405180910390fd5b600061328286612099565b905060016003546132939190615611565b92506132b033848d60405180602001604052806000815250613e9c565b60405180610140016040528089898080601f016020809104026020016040519081016040528093929190818152602001838380828437600081840152601f19601f8201169050808301925050505050505081526020018a815260200142815260200162015180836133219190615190565b4261332c9190615611565b815260200162015180876133409190615190565b4261334b9190615611565b81526020018681526020018281526020018c81526020018b8152602001858152506005600085815260200190815260200160002060008201518160000190816133949190615db1565b506020820151816001015560408201518160020155606082015181600301556080820151816004015560a0820151816005015560c0820151816006015560e08201518160070155610100820151816008015561012082015181600901559050506201518060b46134049190615190565b4261340f9190615611565b60106000858152602001908152602001600020819055506134308987612842565b6011600085815260200190815260200160002090805190602001906134569291906144a7565b50827ff73e436c94925e1e8b2f0b16de0a2c56aea7fb27878f7815811bc05bc6c335e88c8b87620151808661348b9190615190565b426134969190615611565b6040516134a69493929190615e83565b60405180910390a2505098975050505050505050565b60007f01ffc9a7000000000000000000000000000000000000000000000000000000007bffffffffffffffffffffffffffffffffffffffffffffffffffffffff1916827bffffffffffffffffffffffffffffffffffffffffffffffffffffffff1916149050919050565b600033905090565b8151835114613572576040517f08c379a000000000000000000000000000000000000000000000000000000000815260040161356990615f3a565b60405180910390fd5b600073ffffffffffffffffffffffffffffffffffffffff168473ffffffffffffffffffffffffffffffffffffffff16036135e1576040517f08c379a00000000000000000000000000000000000000000000000000000000081526004016135d890615fcc565b60405180910390fd5b60006135eb613526565b90506135fb81878787878761404c565b60005b84518110156137ac57600085828151811061361c5761361b615505565b5b60200260200101519050600085838151811061363b5761363a615505565b5b60200260200101519050600080600084815260200190815260200160002060008b73ffffffffffffffffffffffffffffffffffffffff1673ffffffffffffffffffffffffffffffffffffffff168152602001908152602001600020549050818110156136dc576040517f08c379a00000000000000000000000000000000000000000000000000000000081526004016136d39061605e565b60405180910390fd5b81810360008085815260200190815260200160002060008c73ffffffffffffffffffffffffffffffffffffffff1673ffffffffffffffffffffffffffffffffffffffff168152602001908152602001600020819055508160008085815260200190815260200160002060008b73ffffffffffffffffffffffffffffffffffffffff1673ffffffffffffffffffffffffffffffffffffffff16815260200190815260200160002060008282546137919190615611565b92505081905550505050806137a590615534565b90506135fe565b508473ffffffffffffffffffffffffffffffffffffffff168673ffffffffffffffffffffffffffffffffffffffff168273ffffffffffffffffffffffffffffffffffffffff167f4a39dc06d4c0dbc64b70af90fd698a233a518aa5d07e595d983b8c0526c8f7fb878760405161382392919061607e565b60405180910390a4613839818787878787614054565b61384781878787878761405c565b505050505050565b600073ffffffffffffffffffffffffffffffffffffffff168373ffffffffffffffffffffffffffffffffffffffff16036138be576040517f08c379a00000000000000000000000000000000000000000000000000000000081526004016138b590616127565b60405180910390fd5b60006138c8613526565b905060006138d584614233565b905060006138e284614233565b90506139028387600085856040518060200160405280600081525061404c565b600080600087815260200190815260200160002060008873ffffffffffffffffffffffffffffffffffffffff1673ffffffffffffffffffffffffffffffffffffffff16815260200190815260200160002054905084811015613999576040517f08c379a0000000000000000000000000000000000000000000000000000000008152600401613990906161b9565b60405180910390fd5b84810360008088815260200190815260200160002060008973ffffffffffffffffffffffffffffffffffffffff1673ffffffffffffffffffffffffffffffffffffffff16815260200190815260200160002081905550600073ffffffffffffffffffffffffffffffffffffffff168773ffffffffffffffffffffffffffffffffffffffff168573ffffffffffffffffffffffffffffffffffffffff167fc3d58168c5ae7397731d063d5bbf3d657854427343f4c083240f7aacaa2d0f628989604051613a669291906155e8565b60405180910390a4613a8c84886000868660405180602001604052806000815250614054565b50505050505050565b8173ffffffffffffffffffffffffffffffffffffffff168373ffffffffffffffffffffffffffffffffffffffff1603613b03576040517f08c379a0000000000000000000000000000000000000000000000000000000008152600401613afa9061624b565b60405180910390fd5b80600160008573ffffffffffffffffffffffffffffffffffffffff1673ffffffffffffffffffffffffffffffffffffffff16815260200190815260200160002060008473ffffffffffffffffffffffffffffffffffffffff1673ffffffffffffffffffffffffffffffffffffffff16815260200190815260200160002060006101000a81548160ff0219169083151502179055508173ffffffffffffffffffffffffffffffffffffffff168373ffffffffffffffffffffffffffffffffffffffff167f17307eab39ab6107e8899845ad3d59bd9653f200f220920489ca2b5937696c3183604051613bf491906146c3565b60405180910390a3505050565b600073ffffffffffffffffffffffffffffffffffffffff168473ffffffffffffffffffffffffffffffffffffffff1603613c70576040517f08c379a0000000000000000000000000000000000000000000000000000000008152600401613c6790615fcc565b60405180910390fd5b6000613c7a613526565b90506000613c8785614233565b90506000613c9485614233565b9050613ca483898985858961404c565b600080600088815260200190815260200160002060008a73ffffffffffffffffffffffffffffffffffffffff1673ffffffffffffffffffffffffffffffffffffffff16815260200190815260200160002054905085811015613d3b576040517f08c379a0000000000000000000000000000000000000000000000000000000008152600401613d329061605e565b60405180910390fd5b85810360008089815260200190815260200160002060008b73ffffffffffffffffffffffffffffffffffffffff1673ffffffffffffffffffffffffffffffffffffffff168152602001908152602001600020819055508560008089815260200190815260200160002060008a73ffffffffffffffffffffffffffffffffffffffff1673ffffffffffffffffffffffffffffffffffffffff1681526020019081526020016000206000828254613df09190615611565b925050819055508773ffffffffffffffffffffffffffffffffffffffff168973ffffffffffffffffffffffffffffffffffffffff168573ffffffffffffffffffffffffffffffffffffffff167fc3d58168c5ae7397731d063d5bbf3d657854427343f4c083240f7aacaa2d0f628a8a604051613e6d9291906155e8565b60405180910390a4613e83848a8a86868a614054565b613e91848a8a8a8a8a6142ad565b505050505050505050565b600073ffffffffffffffffffffffffffffffffffffffff168473ffffffffffffffffffffffffffffffffffffffff1603613f0b576040517f08c379a0000000000000000000000000000000000000000000000000000000008152600401613f02906162dd565b60405180910390fd5b6000613f15613526565b90506000613f2285614233565b90506000613f2f85614233565b9050613f408360008985858961404c565b8460008088815260200190815260200160002060008973ffffffffffffffffffffffffffffffffffffffff1673ffffffffffffffffffffffffffffffffffffffff1681526020019081526020016000206000828254613f9f9190615611565b925050819055508673ffffffffffffffffffffffffffffffffffffffff16600073ffffffffffffffffffffffffffffffffffffffff168473ffffffffffffffffffffffffffffffffffffffff167fc3d58168c5ae7397731d063d5bbf3d657854427343f4c083240f7aacaa2d0f62898960405161401d9291906155e8565b60405180910390a461403483600089858589614054565b614043836000898989896142ad565b50505050505050565b505050505050565b505050505050565b61407b8473ffffffffffffffffffffffffffffffffffffffff16614484565b1561422b578373ffffffffffffffffffffffffffffffffffffffff1663bc197c8187878686866040518663ffffffff1660e01b81526004016140c1959493929190616352565b6020604051808303816000875af19250505080156140fd57506040513d601f19601f820116820180604052508101906140fa91906163cf565b60015b6141a257614109616409565b806308c379a003614165575061411d61642b565b806141285750614167565b806040517f08c379a000000000000000000000000000000000000000000000000000000000815260040161415c919061479b565b60405180910390fd5b505b6040517f08c379a00000000000000000000000000000000000000000000000000000000081526004016141999061652d565b60405180910390fd5b63bc197c8160e01b7bffffffffffffffffffffffffffffffffffffffffffffffffffffffff1916817bffffffffffffffffffffffffffffffffffffffffffffffffffffffff191614614229576040517f08c379a0000000000000000000000000000000000000000000000000000000008152600401614220906165bf565b60405180910390fd5b505b505050505050565b60606000600167ffffffffffffffff811115614252576142516147c2565b5b6040519080825280602002602001820160405280156142805781602001602082028036833780820191505090505b509050828160008151811061429857614297615505565b5b60200260200101818152505080915050919050565b6142cc8473ffffffffffffffffffffffffffffffffffffffff16614484565b1561447c578373ffffffffffffffffffffffffffffffffffffffff1663f23a6e6187878686866040518663ffffffff1660e01b81526004016143129594939291906165df565b6020604051808303816000875af192505050801561434e57506040513d601f19601f8201168201806040525081019061434b91906163cf565b60015b6143f35761435a616409565b806308c379a0036143b6575061436e61642b565b8061437957506143b8565b806040517f08c379a00000000000000000000000000000000000000000000000000000000081526004016143ad919061479b565b60405180910390fd5b505b6040517f08c379a00000000000000000000000000000000000000000000000000000000081526004016143ea9061652d565b60405180910390fd5b63f23a6e6160e01b7bffffffffffffffffffffffffffffffffffffffffffffffffffffffff1916817bffffffffffffffffffffffffffffffffffffffffffffffffffffffff19161461447a576040517f08c379a0000000000000000000000000000000000000000000000000000000008152600401614471906165bf565b60405180910390fd5b505b505050505050565b6000808273ffffffffffffffffffffffffffffffffffffffff163b119050919050565b8280548282559060005260206000209081019282156144e3579160200282015b828111156144e25782518255916020019190600101906144c7565b5b5090506144f091906144f4565b5090565b5b8082111561450d5760008160009055506001016144f5565b5090565b6000604051905090565b600080fd5b600080fd5b600073ffffffffffffffffffffffffffffffffffffffff82169050919050565b600061455082614525565b9050919050565b61456081614545565b811461456b57600080fd5b50565b60008135905061457d81614557565b92915050565b6000819050919050565b61459681614583565b81146145a157600080fd5b50565b6000813590506145b38161458d565b92915050565b600080604083850312156145d0576145cf61451b565b5b60006145de8582860161456e565b92505060206145ef858286016145a4565b9150509250929050565b61460281614583565b82525050565b600060208201905061461d60008301846145f9565b92915050565b60007fffffffff0000000000000000000000000000000000000000000000000000000082169050919050565b61465881614623565b811461466357600080fd5b50565b6000813590506146758161464f565b92915050565b6000602082840312156146915761469061451b565b5b600061469f84828501614666565b91505092915050565b60008115159050919050565b6146bd816146a8565b82525050565b60006020820190506146d860008301846146b4565b92915050565b6000602082840312156146f4576146f361451b565b5b6000614702848285016145a4565b91505092915050565b600081519050919050565b600082825260208201905092915050565b60005b8381101561474557808201518184015260208101905061472a565b60008484015250505050565b6000601f19601f8301169050919050565b600061476d8261470b565b6147778185614716565b9350614787818560208601614727565b61479081614751565b840191505092915050565b600060208201905081810360008301526147b58184614762565b905092915050565b600080fd5b7f4e487b7100000000000000000000000000000000000000000000000000000000600052604160045260246000fd5b6147fa82614751565b810181811067ffffffffffffffff82111715614819576148186147c2565b5b80604052505050565b600061482c614511565b905061483882826147f1565b919050565b600067ffffffffffffffff821115614858576148576147c2565b5b602082029050602081019050919050565b600080fd5b600061488161487c8461483d565b614822565b905080838252602082019050602084028301858111156148a4576148a3614869565b5b835b818110156148cd57806148b988826145a4565b8452602084019350506020810190506148a6565b5050509392505050565b600082601f8301126148ec576148eb6147bd565b5b81356148fc84826020860161486e565b91505092915050565b600080fd5b600067ffffffffffffffff821115614925576149246147c2565b5b61492e82614751565b9050602081019050919050565b82818337600083830152505050565b600061495d6149588461490a565b614822565b90508281526020810184848401111561497957614978614905565b5b61498484828561493b565b509392505050565b600082601f8301126149a1576149a06147bd565b5b81356149b184826020860161494a565b91505092915050565b600080600080600060a086880312156149d6576149d561451b565b5b60006149e48882890161456e565b95505060206149f58882890161456e565b945050604086013567ffffffffffffffff811115614a1657614a15614520565b5b614a22888289016148d7565b935050606086013567ffffffffffffffff811115614a4357614a42614520565b5b614a4f888289016148d7565b925050608086013567ffffffffffffffff811115614a7057614a6f614520565b5b614a7c8882890161498c565b9150509295509295909350565b60008060408385031215614aa057614a9f61451b565b5b6000614aae858286016145a4565b9250506020614abf858286016145a4565b9150509250929050565b600067ffffffffffffffff821115614ae457614ae36147c2565b5b602082029050602081019050919050565b6000614b08614b0384614ac9565b614822565b90508083825260208201905060208402830185811115614b2b57614b2a614869565b5b835b81811015614b545780614b40888261456e565b845260208401935050602081019050614b2d565b5050509392505050565b600082601f830112614b7357614b726147bd565b5b8135614b83848260208601614af5565b91505092915050565b60008060408385031215614ba357614ba261451b565b5b600083013567ffffffffffffffff811115614bc157614bc0614520565b5b614bcd85828601614b5e565b925050602083013567ffffffffffffffff811115614bee57614bed614520565b5b614bfa858286016148d7565b9150509250929050565b600081519050919050565b600082825260208201905092915050565b6000819050602082019050919050565b614c3981614583565b82525050565b6000614c4b8383614c30565b60208301905092915050565b6000602082019050919050565b6000614c6f82614c04565b614c798185614c0f565b9350614c8483614c20565b8060005b83811015614cb5578151614c9c8882614c3f565b9750614ca783614c57565b925050600181019050614c88565b5085935050505092915050565b60006020820190508181036000830152614cdc8184614c64565b905092915050565b6000610140820190508181036000830152614cff818d614762565b9050614d0e602083018c6145f9565b614d1b604083018b6145f9565b614d28606083018a6145f9565b614d3560808301896145f9565b614d4260a08301886145f9565b614d4f60c08301876145f9565b614d5c60e08301866145f9565b614d6a6101008301856145f9565b614d786101208301846145f9565b9b9a5050505050505050505050565b614d9081614545565b82525050565b6000602082019050614dab6000830184614d87565b92915050565b614dba816146a8565b8114614dc557600080fd5b50565b600081359050614dd781614db1565b92915050565b60008060408385031215614df457614df361451b565b5b6000614e028582860161456e565b9250506020614e1385828601614dc8565b9150509250929050565b614e2681614623565b82525050565b6000602082019050614e416000830184614e1d565b92915050565b60008060408385031215614e5e57614e5d61451b565b5b6000614e6c8582860161456e565b9250506020614e7d8582860161456e565b9150509250929050565b600080600080600060a08688031215614ea357614ea261451b565b5b6000614eb18882890161456e565b9550506020614ec28882890161456e565b9450506040614ed3888289016145a4565b9350506060614ee4888289016145a4565b925050608086013567ffffffffffffffff811115614f0557614f04614520565b5b614f118882890161498c565b9150509295509295909350565b600080fd5b60008083601f840112614f3957614f386147bd565b5b8235905067ffffffffffffffff811115614f5657614f55614f1e565b5b602083019150836001820283011115614f7257614f71614869565b5b9250929050565b60008060008060008060008060e0898b031215614f9957614f9861451b565b5b6000614fa78b828c016145a4565b9850506020614fb88b828c016145a4565b9750506040614fc98b828c016145a4565b965050606089013567ffffffffffffffff811115614fea57614fe9614520565b5b614ff68b828c01614f23565b955095505060806150098b828c016145a4565b93505060a061501a8b828c016145a4565b92505060c061502b8b828c016145a4565b9150509295985092959890939650565b7f455243313135353a2061646472657373207a65726f206973206e6f742061207660008201527f616c6964206f776e657200000000000000000000000000000000000000000000602082015250565b6000615097602a83614716565b91506150a28261503b565b604082019050919050565b600060208201905081810360008301526150c68161508a565b9050919050565b7f4e487b7100000000000000000000000000000000000000000000000000000000600052601160045260246000fd5b600061510782614583565b915061511283614583565b925082820390508181111561512a576151296150cd565b5b92915050565b7f4e487b7100000000000000000000000000000000000000000000000000000000600052602260045260246000fd5b6000600282049050600182168061517757607f821691505b60208210810361518a57615189615130565b5b50919050565b600061519b82614583565b91506151a683614583565b92508282026151b481614583565b915082820484148315176151cb576151ca6150cd565b5b5092915050565b7f4e487b7100000000000000000000000000000000000000000000000000000000600052601260045260246000fd5b600061520c82614583565b915061521783614583565b925082615227576152266151d2565b5b828204905092915050565b7f455243313135353a2063616c6c6572206973206e6f7420746f6b656e206f776e60008201527f6572206f7220617070726f766564000000000000000000000000000000000000602082015250565b600061528e602e83614716565b915061529982615232565b604082019050919050565b600060208201905081810360008301526152bd81615281565b9050919050565b7f4e544f0000000000000000000000000000000000000000000000000000000000600082015250565b60006152fa600383614716565b9150615305826152c4565b602082019050919050565b60006020820190508181036000830152615329816152ed565b9050919050565b7f574e410000000000000000000000000000000000000000000000000000000000600082015250565b6000615366600383614716565b915061537182615330565b602082019050919050565b6000602082019050818103600083015261539581615359565b9050919050565b7f5741450000000000000000000000000000000000000000000000000000000000600082015250565b60006153d2600383614716565b91506153dd8261539c565b602082019050919050565b60006020820190508181036000830152615401816153c5565b9050919050565b600060408201905061541d6000830185614d87565b61542a60208301846145f9565b9392505050565b60008151905061544081614db1565b92915050565b60006020828403121561545c5761545b61451b565b5b600061546a84828501615431565b91505092915050565b7f455243313135353a206163636f756e747320616e6420696473206c656e67746860008201527f206d69736d617463680000000000000000000000000000000000000000000000602082015250565b60006154cf602983614716565b91506154da82615473565b604082019050919050565b600060208201905081810360008301526154fe816154c2565b9050919050565b7f4e487b7100000000000000000000000000000000000000000000000000000000600052603260045260246000fd5b600061553f82614583565b91507fffffffffffffffffffffffffffffffffffffffffffffffffffffffffffffffff8203615571576155706150cd565b5b600182019050919050565b7f504d444e41000000000000000000000000000000000000000000000000000000600082015250565b60006155b2600583614716565b91506155bd8261557c565b602082019050919050565b600060208201905081810360008301526155e1816155a5565b9050919050565b60006040820190506155fd60008301856145f9565b61560a60208301846145f9565b9392505050565b600061561c82614583565b915061562783614583565b925082820190508082111561563f5761563e6150cd565b5b92915050565b7f4942000000000000000000000000000000000000000000000000000000000000600082015250565b600061567b600283614716565b915061568682615645565b602082019050919050565b600060208201905081810360008301526156aa8161566e565b9050919050565b7f4951000000000000000000000000000000000000000000000000000000000000600082015250565b60006156e7600283614716565b91506156f2826156b1565b602082019050919050565b60006020820190508181036000830152615716816156da565b9050919050565b60006060820190506157326000830186614d87565b61573f6020830185614d87565b61574c60408301846145f9565b949350505050565b7f524e410000000000000000000000000000000000000000000000000000000000600082015250565b600061578a600383614716565b915061579582615754565b602082019050919050565b600060208201905081810360008301526157b98161577d565b9050919050565b60006060820190506157d56000830186614d87565b6157e260208301856145f9565b6157ef60408301846145f9565b949350505050565b7f4d41444e41000000000000000000000000000000000000000000000000000000600082015250565b600061582d600583614716565b9150615838826157f7565b602082019050919050565b6000602082019050818103600083015261585c81615820565b9050919050565b7f49594f0000000000000000000000000000000000000000000000000000000000600082015250565b6000615899600383614716565b91506158a482615863565b602082019050919050565b600060208201905081810360008301526158c88161588c565b9050919050565b7f4f41460000000000000000000000000000000000000000000000000000000000600082015250565b6000615905600383614716565b9150615910826158cf565b602082019050919050565b60006020820190508181036000830152615934816158f8565b9050919050565b7f4d4f4e4600000000000000000000000000000000000000000000000000000000600082015250565b6000615971600483614716565b915061597c8261593b565b602082019050919050565b600060208201905081810360008301526159a081615964565b9050919050565b7f454d460000000000000000000000000000000000000000000000000000000000600082015250565b60006159dd600383614716565b91506159e8826159a7565b602082019050919050565b60006020820190508181036000830152615a0c816159d0565b9050919050565b7f4d41434e41000000000000000000000000000000000000000000000000000000600082015250565b6000615a49600583614716565b9150615a5482615a13565b602082019050919050565b60006020820190508181036000830152615a7881615a3c565b9050919050565b7f444e410000000000000000000000000000000000000000000000000000000000600082015250565b6000615ab5600383614716565b9150615ac082615a7f565b602082019050919050565b60006020820190508181036000830152615ae481615aa8565b9050919050565b600081519050615afa8161458d565b92915050565b600060208284031215615b1657615b1561451b565b5b6000615b2484828501615aeb565b91505092915050565b7f5746450000000000000000000000000000000000000000000000000000000000600082015250565b6000615b63600383614716565b9150615b6e82615b2d565b602082019050919050565b60006020820190508181036000830152615b9281615b56565b9050919050565b7f4144413744000000000000000000000000000000000000000000000000000000600082015250565b6000615bcf600583614716565b9150615bda82615b99565b602082019050919050565b60006020820190508181036000830152615bfe81615bc2565b9050919050565b60008190508160005260206000209050919050565b60006020601f8301049050919050565b600082821b905092915050565b600060088302615c677fffffffffffffffffffffffffffffffffffffffffffffffffffffffffffffffff82615c2a565b615c718683615c2a565b95508019841693508086168417925050509392505050565b6000819050919050565b6000615cae615ca9615ca484614583565b615c89565b614583565b9050919050565b6000819050919050565b615cc883615c93565b615cdc615cd482615cb5565b848454615c37565b825550505050565b600090565b615cf1615ce4565b615cfc818484615cbf565b505050565b5b81811015615d2057615d15600082615ce9565b600181019050615d02565b5050565b601f821115615d6557615d3681615c05565b615d3f84615c1a565b81016020851015615d4e578190505b615d62615d5a85615c1a565b830182615d01565b50505b505050565b600082821c905092915050565b6000615d8860001984600802615d6a565b1980831691505092915050565b6000615da18383615d77565b9150826002028217905092915050565b615dba8261470b565b67ffffffffffffffff811115615dd357615dd26147c2565b5b615ddd825461515f565b615de8828285615d24565b600060209050601f831160018114615e1b5760008415615e09578287015190505b615e138582615d95565b865550615e7b565b601f198416615e2986615c05565b60005b82811015615e5157848901518255600182019150602085019450602081019050615e2c565b86831015615e6e5784890151615e6a601f891682615d77565b8355505b6001600288020188555050505b505050505050565b6000608082019050615e9860008301876145f9565b615ea560208301866145f9565b615eb260408301856145f9565b615ebf60608301846145f9565b95945050505050565b7f455243313135353a2069647320616e6420616d6f756e7473206c656e6774682060008201527f6d69736d61746368000000000000000000000000000000000000000000000000602082015250565b6000615f24602883614716565b9150615f2f82615ec8565b604082019050919050565b60006020820190508181036000830152615f5381615f17565b9050919050565b7f455243313135353a207472616e7366657220746f20746865207a65726f20616460008201527f6472657373000000000000000000000000000000000000000000000000000000602082015250565b6000615fb6602583614716565b9150615fc182615f5a565b604082019050919050565b60006020820190508181036000830152615fe581615fa9565b9050919050565b7f455243313135353a20696e73756666696369656e742062616c616e636520666f60008201527f72207472616e7366657200000000000000000000000000000000000000000000602082015250565b6000616048602a83614716565b915061605382615fec565b604082019050919050565b600060208201905081810360008301526160778161603b565b9050919050565b600060408201905081810360008301526160988185614c64565b905081810360208301526160ac8184614c64565b90509392505050565b7f455243313135353a206275726e2066726f6d20746865207a65726f206164647260008201527f6573730000000000000000000000000000000000000000000000000000000000602082015250565b6000616111602383614716565b915061611c826160b5565b604082019050919050565b6000602082019050818103600083015261614081616104565b9050919050565b7f455243313135353a206275726e20616d6f756e7420657863656564732062616c60008201527f616e636500000000000000000000000000000000000000000000000000000000602082015250565b60006161a3602483614716565b91506161ae82616147565b604082019050919050565b600060208201905081810360008301526161d281616196565b9050919050565b7f455243313135353a2073657474696e6720617070726f76616c2073746174757360008201527f20666f722073656c660000000000000000000000000000000000000000000000602082015250565b6000616235602983614716565b9150616240826161d9565b604082019050919050565b6000602082019050818103600083015261626481616228565b9050919050565b7f455243313135353a206d696e7420746f20746865207a65726f2061646472657360008201527f7300000000000000000000000000000000000000000000000000000000000000602082015250565b60006162c7602183614716565b91506162d28261626b565b604082019050919050565b600060208201905081810360008301526162f6816162ba565b9050919050565b600081519050919050565b600082825260208201905092915050565b6000616324826162fd565b61632e8185616308565b935061633e818560208601614727565b61634781614751565b840191505092915050565b600060a0820190506163676000830188614d87565b6163746020830187614d87565b81810360408301526163868186614c64565b9050818103606083015261639a8185614c64565b905081810360808301526163ae8184616319565b90509695505050505050565b6000815190506163c98161464f565b92915050565b6000602082840312156163e5576163e461451b565b5b60006163f3848285016163ba565b91505092915050565b60008160e01c9050919050565b600060033d11156164285760046000803e6164256000516163fc565b90505b90565b600060443d106164b85761643d614511565b60043d036004823e80513d602482011167ffffffffffffffff821117156164655750506164b8565b808201805167ffffffffffffffff81111561648357505050506164b8565b80602083010160043d0385018111156164a05750505050506164b8565b6164af826020018501866147f1565b82955050505050505b90565b7f455243313135353a207472616e7366657220746f206e6f6e2d4552433131353560008201527f526563656976657220696d706c656d656e746572000000000000000000000000602082015250565b6000616517603483614716565b9150616522826164bb565b604082019050919050565b600060208201905081810360008301526165468161650a565b9050919050565b7f455243313135353a204552433131353552656365697665722072656a6563746560008201527f6420746f6b656e73000000000000000000000000000000000000000000000000602082015250565b60006165a9602883614716565b91506165b48261654d565b604082019050919050565b600060208201905081810360008301526165d88161659c565b9050919050565b600060a0820190506165f46000830188614d87565b6166016020830187614d87565b61660e60408301866145f9565b61661b60608301856145f9565b818103608083015261662d8184616319565b9050969550505050505056fea2646970667358221220e15ecb11a61facdc0fe50941c60c79a5daf545333f608a92388bb55fdc8fbb5c64736f6c63430008110033",
  "linkReferences": {},
  "deployedLinkReferences": {}
}