{
  "_format": "hh-sol-artifact-1",
  "contractName": "InstallmentBondFactory",
  "sourceName": "contracts/InstallmentBondFactory.sol",
  "abi": [
    {
      "inputs": [
        {
          "internalType": "address",
          "name": "token",
          "type": "address"
        },
        {
          "internalType": "address",
          "name": "bondToken",
          "type": "address"
        },
        {
          "internalType": "address",
          "name": "db",
          "type": "address"
        },
        {
          "internalType": "address",
          "name": "deployer",
          "type": "address"
        }
      ],
      "stateMutability": "nonpayable",
      "type": "constructor"
    },
    {
      "anonymous": false,
      "inputs": [
        {
          "indexed": true,
          "internalType": "uint256",
          "name": "id",
          "type": "uint256"
        },
        {
          "indexed": false,
          "internalType": "uint256",
          "name": "totalDebt",
          "type": "uint256"
        },
        {
          "indexed": false,
          "internalType": "uint256",
          "name": "paidDebt",
          "type": "uint256"
        }
      ],
      "name": "Completed",
      "type": "event"
    },
    {
      "anonymous": false,
      "inputs": [
        {
          "indexed": true,
          "internalType": "uint256",
          "name": "id",
          "type": "uint256"
        },
        {
          "indexed": false,
          "internalType": "uint256",
          "name": "totalDebt",
          "type": "uint256"
        },
        {
          "indexed": false,
          "internalType": "uint256",
          "name": "paidDebt",
          "type": "uint256"
        }
      ],
      "name": "Defaulted",
      "type": "event"
    },
    {
      "anonymous": false,
      "inputs": [
        {
          "indexed": true,
          "internalType": "uint256",
          "name": "id",
          "type": "uint256"
        },
        {
          "indexed": false,
          "internalType": "uint256",
          "name": "bondQuantity",
          "type": "uint256"
        },
        {
          "indexed": false,
          "internalType": "uint256",
          "name": "tokenAmountPerBond",
          "type": "uint256"
        },
        {
          "indexed": false,
          "internalType": "uint256",
          "name": "couponRate",
          "type": "uint256"
        },
        {
          "indexed": false,
          "internalType": "uint256",
          "name": "maturityDate",
          "type": "uint256"
        }
      ],
      "name": "Issued",
      "type": "event"
    },
    {
      "anonymous": false,
      "inputs": [
        {
          "indexed": true,
          "internalType": "uint256",
          "name": "id",
          "type": "uint256"
        },
        {
          "indexed": false,
          "internalType": "address",
          "name": "buyer",
          "type": "address"
        },
        {
          "indexed": false,
          "internalType": "uint256",
          "name": "bondQuantity",
          "type": "uint256"
        },
        {
          "indexed": false,
          "internalType": "uint256",
          "name": "state",
          "type": "uint256"
        }
      ],
      "name": "Redeemed",
      "type": "event"
    },
    {
      "inputs": [],
      "name": "baseToken",
      "outputs": [
        {
          "internalType": "address",
          "name": "",
          "type": "address"
        }
      ],
      "stateMutability": "view",
      "type": "function"
    },
    {
      "inputs": [],
      "name": "bonds",
      "outputs": [
        {
          "internalType": "uint256[]",
          "name": "",
          "type": "uint256[]"
        }
      ],
      "stateMutability": "view",
      "type": "function"
    },
    {
      "inputs": [
        {
          "internalType": "uint256",
          "name": "id",
          "type": "uint256"
        },
        {
          "internalType": "uint256",
          "name": "tokenAmount",
          "type": "uint256"
        }
      ],
      "name": "deposit",
      "outputs": [],
      "stateMutability": "nonpayable",
      "type": "function"
    },
    {
      "inputs": [
        {
          "internalType": "uint256",
          "name": "id",
          "type": "uint256"
        }
      ],
      "name": "designatedTokenPool",
      "outputs": [
        {
          "internalType": "uint256",
          "name": "",
          "type": "uint256"
        }
      ],
      "stateMutability": "view",
      "type": "function"
    },
    {
      "inputs": [
        {
          "internalType": "uint256",
          "name": "id",
          "type": "uint256"
        },
        {
          "internalType": "uint256",
          "name": "tokenAmountPerBond",
          "type": "uint256"
        }
      ],
      "name": "fulfillObligationsAndLock",
      "outputs": [],
      "stateMutability": "nonpayable",
      "type": "function"
    },
    {
      "inputs": [
        {
          "internalType": "uint256",
          "name": "id",
          "type": "uint256"
        }
      ],
      "name": "hasReachedMaturity",
      "outputs": [
        {
          "internalType": "bool",
          "name": "",
          "type": "bool"
        }
      ],
      "stateMutability": "view",
      "type": "function"
    },
    {
      "inputs": [
        {
          "internalType": "uint256",
          "name": "id",
          "type": "uint256"
        }
      ],
      "name": "isActive",
      "outputs": [
        {
          "internalType": "bool",
          "name": "",
          "type": "bool"
        }
      ],
      "stateMutability": "view",
      "type": "function"
    },
    {
      "inputs": [
        {
          "internalType": "uint256",
          "name": "id",
          "type": "uint256"
        }
      ],
      "name": "isCanceled",
      "outputs": [
        {
          "internalType": "bool",
          "name": "",
          "type": "bool"
        }
      ],
      "stateMutability": "view",
      "type": "function"
    },
    {
      "inputs": [
        {
          "internalType": "uint256",
          "name": "id",
          "type": "uint256"
        }
      ],
      "name": "isCompleted",
      "outputs": [
        {
          "internalType": "bool",
          "name": "",
          "type": "bool"
        }
      ],
      "stateMutability": "view",
      "type": "function"
    },
    {
      "inputs": [
        {
          "internalType": "uint256",
          "name": "id",
          "type": "uint256"
        }
      ],
      "name": "isCompletedInTheory",
      "outputs": [
        {
          "internalType": "bool",
          "name": "",
          "type": "bool"
        }
      ],
      "stateMutability": "view",
      "type": "function"
    },
    {
      "inputs": [
        {
          "internalType": "uint256",
          "name": "id",
          "type": "uint256"
        }
      ],
      "name": "isDefaulted",
      "outputs": [
        {
          "internalType": "bool",
          "name": "",
          "type": "bool"
        }
      ],
      "stateMutability": "view",
      "type": "function"
    },
    {
      "inputs": [
        {
          "internalType": "uint256",
          "name": "id",
          "type": "uint256"
        }
      ],
      "name": "isDefaultedInTheory",
      "outputs": [
        {
          "internalType": "bool",
          "name": "",
          "type": "bool"
        }
      ],
      "stateMutability": "view",
      "type": "function"
    },
    {
      "inputs": [
        {
          "internalType": "uint256",
          "name": "id",
          "type": "uint256"
        }
      ],
      "name": "isFulfilled",
      "outputs": [
        {
          "internalType": "bool",
          "name": "",
          "type": "bool"
        }
      ],
      "stateMutability": "view",
      "type": "function"
    },
    {
      "inputs": [
        {
          "internalType": "uint256",
          "name": "id",
          "type": "uint256"
        }
      ],
      "name": "isFullyRedeemed",
      "outputs": [
        {
          "internalType": "bool",
          "name": "",
          "type": "bool"
        }
      ],
      "stateMutability": "view",
      "type": "function"
    },
    {
      "inputs": [
        {
          "internalType": "uint256",
          "name": "id",
          "type": "uint256"
        }
      ],
      "name": "isIssuedByFactory",
      "outputs": [
        {
          "internalType": "bool",
          "name": "",
          "type": "bool"
        }
      ],
      "stateMutability": "view",
      "type": "function"
    },
    {
      "inputs": [
        {
          "internalType": "uint256",
          "name": "bondQuantity",
          "type": "uint256"
        },
        {
          "internalType": "uint256",
          "name": "minPurchasedQuantity",
          "type": "uint256"
        },
        {
          "internalType": "uint256",
          "name": "tokenAmountPerBond",
          "type": "uint256"
        },
        {
          "internalType": "string",
          "name": "ticker",
          "type": "string"
        },
        {
          "internalType": "uint256",
          "name": "yearOption",
          "type": "uint256"
        },
        {
          "internalType": "uint256",
          "name": "activeDurationInDays",
          "type": "uint256"
        },
        {
          "internalType": "uint256",
          "name": "rate",
          "type": "uint256"
        }
      ],
      "name": "issue",
      "outputs": [
        {
          "internalType": "uint256",
          "name": "id",
          "type": "uint256"
        }
      ],
      "stateMutability": "nonpayable",
      "type": "function"
    },
    {
      "inputs": [
        {
          "internalType": "uint256",
          "name": "id",
          "type": "uint256"
        }
      ],
      "name": "lockedTokenAmount",
      "outputs": [
        {
          "internalType": "uint256",
          "name": "",
          "type": "uint256"
        }
      ],
      "stateMutability": "view",
      "type": "function"
    },
    {
      "inputs": [
        {
          "internalType": "uint256",
          "name": "id",
          "type": "uint256"
        }
      ],
      "name": "lockedTokenAmountPerBond",
      "outputs": [
        {
          "internalType": "uint256",
          "name": "",
          "type": "uint256"
        }
      ],
      "stateMutability": "view",
      "type": "function"
    },
    {
      "inputs": [
        {
          "internalType": "uint256",
          "name": "id",
          "type": "uint256"
        }
      ],
      "name": "markAsCompleted",
      "outputs": [],
      "stateMutability": "nonpayable",
      "type": "function"
    },
    {
      "inputs": [
        {
          "internalType": "uint256",
          "name": "id",
          "type": "uint256"
        }
      ],
      "name": "markAsDefaulted",
      "outputs": [],
      "stateMutability": "nonpayable",
      "type": "function"
    },
    {
      "inputs": [
        {
          "internalType": "uint256",
          "name": "id",
          "type": "uint256"
        }
      ],
      "name": "minObligationTokenAmountPerBondList",
      "outputs": [
        {
          "internalType": "uint256[]",
          "name": "",
          "type": "uint256[]"
        }
      ],
      "stateMutability": "view",
      "type": "function"
    },
    {
      "inputs": [
        {
          "internalType": "uint256",
          "name": "id",
          "type": "uint256"
        }
      ],
      "name": "nextObligationDate",
      "outputs": [
        {
          "internalType": "uint256",
          "name": "",
          "type": "uint256"
        }
      ],
      "stateMutability": "view",
      "type": "function"
    },
    {
      "inputs": [
        {
          "internalType": "uint256",
          "name": "id",
          "type": "uint256"
        }
      ],
      "name": "numberOfTimesFulfilled",
      "outputs": [
        {
          "internalType": "uint256",
          "name": "",
          "type": "uint256"
        }
      ],
      "stateMutability": "view",
      "type": "function"
    },
    {
      "inputs": [
        {
          "internalType": "address",
          "name": "",
          "type": "address"
        },
        {
          "internalType": "address",
          "name": "",
          "type": "address"
        },
        {
          "internalType": "uint256[]",
          "name": "",
          "type": "uint256[]"
        },
        {
          "internalType": "uint256[]",
          "name": "",
          "type": "uint256[]"
        },
        {
          "internalType": "bytes",
          "name": "",
          "type": "bytes"
        }
      ],
      "name": "onERC1155BatchReceived",
      "outputs": [
        {
          "internalType": "bytes4",
          "name": "",
          "type": "bytes4"
        }
      ],
      "stateMutability": "nonpayable",
      "type": "function"
    },
    {
      "inputs": [
        {
          "internalType": "address",
          "name": "",
          "type": "address"
        },
        {
          "internalType": "address",
          "name": "",
          "type": "address"
        },
        {
          "internalType": "uint256",
          "name": "",
          "type": "uint256"
        },
        {
          "internalType": "uint256",
          "name": "",
          "type": "uint256"
        },
        {
          "internalType": "bytes",
          "name": "",
          "type": "bytes"
        }
      ],
      "name": "onERC1155Received",
      "outputs": [
        {
          "internalType": "bytes4",
          "name": "",
          "type": "bytes4"
        }
      ],
      "stateMutability": "nonpayable",
      "type": "function"
    },
    {
      "inputs": [],
      "name": "owner",
      "outputs": [
        {
          "internalType": "address",
          "name": "",
          "type": "address"
        }
      ],
      "stateMutability": "view",
      "type": "function"
    },
    {
      "inputs": [
        {
          "internalType": "uint256",
          "name": "id",
          "type": "uint256"
        }
      ],
      "name": "poolAmount",
      "outputs": [
        {
          "internalType": "uint256",
          "name": "",
          "type": "uint256"
        }
      ],
      "stateMutability": "view",
      "type": "function"
    },
    {
      "inputs": [
        {
          "internalType": "uint256",
          "name": "id",
          "type": "uint256"
        }
      ],
      "name": "preMaturityDefault",
      "outputs": [],
      "stateMutability": "nonpayable",
      "type": "function"
    },
    {
      "inputs": [
        {
          "internalType": "uint256",
          "name": "id",
          "type": "uint256"
        }
      ],
      "name": "principal",
      "outputs": [
        {
          "internalType": "uint256",
          "name": "",
          "type": "uint256"
        }
      ],
      "stateMutability": "view",
      "type": "function"
    },
    {
      "inputs": [
        {
          "internalType": "uint256",
          "name": "id",
          "type": "uint256"
        }
      ],
      "name": "principalWithInterest",
      "outputs": [
        {
          "internalType": "uint256",
          "name": "",
          "type": "uint256"
        }
      ],
      "stateMutability": "view",
      "type": "function"
    },
    {
      "inputs": [
        {
          "internalType": "uint256",
          "name": "id",
          "type": "uint256"
        },
        {
          "internalType": "uint256",
          "name": "bondQuantity",
          "type": "uint256"
        }
      ],
      "name": "purchase",
      "outputs": [],
      "stateMutability": "nonpayable",
      "type": "function"
    },
    {
      "inputs": [
        {
          "internalType": "uint256",
          "name": "id",
          "type": "uint256"
        },
        {
          "internalType": "uint256",
          "name": "bondQuantity",
          "type": "uint256"
        }
      ],
      "name": "redeem",
      "outputs": [],
      "stateMutability": "nonpayable",
      "type": "function"
    },
    {
      "inputs": [
        {
          "internalType": "uint256",
          "name": "id",
          "type": "uint256"
        }
      ],
      "name": "remainingQuantity",
      "outputs": [
        {
          "internalType": "uint256",
          "name": "",
          "type": "uint256"
        }
      ],
      "stateMutability": "view",
      "type": "function"
    },
    {
      "inputs": [
        {
          "internalType": "uint256",
          "name": "tokenAmountPerBond",
          "type": "uint256"
        },
        {
          "internalType": "uint256",
          "name": "yearOption",
          "type": "uint256"
        }
      ],
      "name": "retrieveMinObligationList",
      "outputs": [
        {
          "internalType": "uint256[]",
          "name": "",
          "type": "uint256[]"
        }
      ],
      "stateMutability": "view",
      "type": "function"
    },
    {
      "inputs": [
        {
          "internalType": "bytes4",
          "name": "interfaceId",
          "type": "bytes4"
        }
      ],
      "name": "supportsInterface",
      "outputs": [
        {
          "internalType": "bool",
          "name": "",
          "type": "bool"
        }
      ],
      "stateMutability": "view",
      "type": "function"
    },
    {
      "inputs": [
        {
          "internalType": "uint256",
          "name": "id",
          "type": "uint256"
        }
      ],
      "name": "timeElapsed",
      "outputs": [
        {
          "internalType": "uint256",
          "name": "",
          "type": "uint256"
        }
      ],
      "stateMutability": "view",
      "type": "function"
    },
    {
      "inputs": [
        {
          "internalType": "uint256",
          "name": "id",
          "type": "uint256"
        }
      ],
      "name": "timeRemainingToEndOfActive",
      "outputs": [
        {
          "internalType": "uint256",
          "name": "",
          "type": "uint256"
        }
      ],
      "stateMutability": "view",
      "type": "function"
    },
    {
      "inputs": [
        {
          "internalType": "uint256",
          "name": "id",
          "type": "uint256"
        }
      ],
      "name": "timeRemainingToMaturity",
      "outputs": [
        {
          "internalType": "uint256",
          "name": "",
          "type": "uint256"
        }
      ],
      "stateMutability": "view",
      "type": "function"
    },
    {
      "inputs": [],
      "name": "tvl",
      "outputs": [
        {
          "internalType": "uint256",
          "name": "",
          "type": "uint256"
        }
      ],
      "stateMutability": "view",
      "type": "function"
    },
    {
      "inputs": [
        {
          "internalType": "uint256",
          "name": "id",
          "type": "uint256"
        },
        {
          "internalType": "uint256",
          "name": "tokenAmount",
          "type": "uint256"
        }
      ],
      "name": "withdraw",
      "outputs": [],
      "stateMutability": "nonpayable",
      "type": "function"
    },
    {
      "inputs": [
        {
          "internalType": "uint256",
          "name": "id",
          "type": "uint256"
        }
      ],
      "name": "withdrawExcess",
      "outputs": [],
      "stateMutability": "nonpayable",
      "type": "function"
    },
    {
      "inputs": [
        {
          "internalType": "uint256",
          "name": "option",
          "type": "uint256"
        }
      ],
      "name": "yearOptionToDays",
      "outputs": [
        {
          "internalType": "uint256",
          "name": "",
          "type": "uint256"
        }
      ],
      "stateMutability": "pure",
      "type": "function"
    },
    {
      "inputs": [
        {
          "internalType": "uint256",
          "name": "option",
          "type": "uint256"
        }
      ],
      "name": "yearOptionToObligationRateList",
      "outputs": [
        {
          "internalType": "uint256[]",
          "name": "",
          "type": "uint256[]"
        }
      ],
      "stateMutability": "view",
      "type": "function"
    }
  ],
  "bytecode": "0x6101006040526040518060a00160405280600560ff168152602001600560ff168152602001600a60ff168152602001600f60ff168152602001600f60ff16815250600b90600562000052929190620002ba565b50604051806101200160405280600260ff168152602001600260ff168152602001600260ff168152602001600260ff168152602001600260ff168152602001600560ff168152602001600a60ff168152602001600a60ff168152602001600f60ff16815250600c906009620000c992919062000311565b50604051806102600160405280600260ff168152602001600260ff168152602001600260ff168152602001600260ff168152602001600260ff168152602001600260ff168152602001600260ff168152602001600260ff168152602001600260ff168152602001600260ff168152602001600260ff168152602001600260ff168152602001600260ff168152602001600260ff168152602001600260ff168152602001600560ff168152602001600560ff168152602001600560ff168152602001600560ff16815250600d906013620001a492919062000368565b50348015620001b257600080fd5b5060405162005af138038062005af18339818101604052810190620001d8919062000448565b838383838073ffffffffffffffffffffffffffffffffffffffff1660808173ffffffffffffffffffffffffffffffffffffffff16815250508373ffffffffffffffffffffffffffffffffffffffff1660a08173ffffffffffffffffffffffffffffffffffffffff16815250508173ffffffffffffffffffffffffffffffffffffffff1660c08173ffffffffffffffffffffffffffffffffffffffff16815250508273ffffffffffffffffffffffffffffffffffffffff1660e08173ffffffffffffffffffffffffffffffffffffffff16815250505050505050505050620004ba565b828054828255906000526020600020908101928215620002fe579160200282015b82811115620002fd578251829060ff16905591602001919060010190620002db565b5b5090506200030d9190620003bf565b5090565b82805482825590600052602060002090810192821562000355579160200282015b8281111562000354578251829060ff1690559160200191906001019062000332565b5b509050620003649190620003bf565b5090565b828054828255906000526020600020908101928215620003ac579160200282015b82811115620003ab578251829060ff1690559160200191906001019062000389565b5b509050620003bb9190620003bf565b5090565b5b80821115620003da576000816000905550600101620003c0565b5090565b600080fd5b600073ffffffffffffffffffffffffffffffffffffffff82169050919050565b60006200041082620003e3565b9050919050565b620004228162000403565b81146200042e57600080fd5b50565b600081519050620004428162000417565b92915050565b60008060008060808587031215620004655762000464620003de565b5b6000620004758782880162000431565b9450506020620004888782880162000431565b93505060406200049b8782880162000431565b9250506060620004ae8782880162000431565b91505092959194509250565b60805160a05160c05160e05161548a6200066760003960008181610a1d01528181610ad001528181610bfa01528181610cb5015281816115150152818161191301528181611a5501528181611b5701528181611cd901528181611db701528181611f8e0152818161203a01528181612114015281816121d20152818161279f01528181612a280152818161303d01526139c2015260008181611249015281816112f401528181611615015281816116c20152818161179101528181611863015281816123c20152818161246d01528181613b1e0152613baa015260008181610feb0152818161165201528181611720015281816117ef015281816118a0015281816119a401528181611eaa0152818161251b01528181612b6e01528181612de50152818161301401528181613210015281816134250152818161361a01526138f4015260008181610e30015281816110c00152818161128501528181611330015281816116ff015281816117ce015281816120ec015281816123fe015281816124a9015281816126b8015281816130ed015281816134c4015281816137200152613be6015261548a6000f3fe608060405234801561001057600080fd5b50600436106102695760003560e01c80638da5cb5b11610151578063c372fb91116100c3578063e5328e0611610087578063e5328e0614610888578063e755ddd7146108a6578063e8858090146108c2578063f0d8100a146108f2578063f23a6e6114610922578063fcbc669a1461095257610269565b8063c372fb91146107be578063c55dae63146107ee578063d3b7811b1461080c578063e2bbb1581461083c578063e52270e01461085857610269565b8063af73e2c911610115578063af73e2c9146106c6578063b1a1a165146106e2578063bc197c8114610712578063be5ba49014610742578063c0a6026c14610772578063c36177fc1461078e57610269565b80638da5cb5b146105fc5780638f0dbf771461061a578063932a8de01461064a578063a87430221461067a578063a9385a5c1461069657610269565b806339e3af9b116101ea57806370876c98116101ae57806370876c981461050457806377e2a08b146105205780637a41984b146105505780637cbc23731461058057806382afd23b1461059c57806388bdc083146105cc57610269565b806339e3af9b1461043c578063441a3e701461046c578063549493bb146104885780636567dc4d146104b85780636ff80d93146104d457610269565b806314f294931161023157806314f294931461034c5780631add02711461037c578063239f60da146103ac5780632f3ad61f146103dc5780633097afb81461040c57610269565b806301ffc9a71461026e578063021594971461029e57806308913ce8146102ce57806309149020146102fe578063135c404e1461032e575b600080fd5b61028860048036038101906102839190613e13565b610982565b6040516102959190613e5b565b60405180910390f35b6102b860048036038101906102b39190613eac565b6109fc565b6040516102c59190613ee8565b60405180910390f35b6102e860048036038101906102e39190613eac565b610a19565b6040516102f59190613ee8565b60405180910390f35b61031860048036038101906103139190613eac565b610acc565b6040516103259190613e5b565b60405180910390f35b610336610b8a565b6040516103439190613fc1565b60405180910390f35b61036660048036038101906103619190613eac565b610be2565b6040516103739190613ee8565b60405180910390f35b61039660048036038101906103919190613eac565b610ca8565b6040516103a39190613ee8565b60405180910390f35b6103c660048036038101906103c19190613eac565b610d89565b6040516103d39190613ee8565b60405180910390f35b6103f660048036038101906103f19190613eac565b610da6565b6040516104039190613e5b565b60405180910390f35b61042660048036038101906104219190613eac565b610dd0565b6040516104339190613e5b565b60405180910390f35b61045660048036038101906104519190613eac565b610e09565b6040516104639190613e5b565b60405180910390f35b61048660048036038101906104819190613fe3565b610e2e565b005b6104a2600480360381019061049d9190613eac565b61108c565b6040516104af9190613e5b565b60405180910390f35b6104d260048036038101906104cd9190613eac565b6110be565b005b6104ee60048036038101906104e99190613eac565b6113e6565b6040516104fb9190613e5b565b60405180910390f35b61051e60048036038101906105199190613fe3565b61147e565b005b61053a60048036038101906105359190613eac565b611a48565b6040516105479190613ee8565b60405180910390f35b61056a60048036038101906105659190613eac565b611b2a565b6040516105779190613e5b565b60405180910390f35b61059a60048036038101906105959190613fe3565b611b54565b005b6105b660048036038101906105b19190613eac565b611f8a565b6040516105c39190613e5b565b60405180910390f35b6105e660048036038101906105e19190613eac565b612035565b6040516105f39190613ee8565b60405180910390f35b6106046120e8565b6040516106119190614064565b60405180910390f35b610634600480360381019061062f9190613eac565b612110565b6040516106419190613e5b565b60405180910390f35b610664600480360381019061065f9190613eac565b6121ba565b6040516106719190613ee8565b60405180910390f35b610694600480360381019061068f9190613eac565b612280565b005b6106b060048036038101906106ab9190613eac565b6125ff565b6040516106bd9190613ee8565b60405180910390f35b6106e060048036038101906106db9190613fe3565b6126b6565b005b6106fc60048036038101906106f79190613eac565b612c12565b6040516107099190613e5b565b60405180910390f35b61072c600480360381019061072791906142b9565b612c3c565b6040516107399190614397565b60405180910390f35b61075c60048036038101906107579190613eac565b612c51565b6040516107699190613fc1565b60405180910390f35b61078c60048036038101906107879190613eac565b612cbc565b005b6107a860048036038101906107a39190613fe3565b612ec2565b6040516107b59190613fc1565b60405180910390f35b6107d860048036038101906107d39190613eac565b612ff3565b6040516107e59190613ee8565b60405180910390f35b6107f6613010565b6040516108039190614064565b60405180910390f35b61082660048036038101906108219190613eac565b613038565b6040516108339190613ee8565b60405180910390f35b61085660048036038101906108519190613fe3565b6130eb565b005b610872600480360381019061086d9190613eac565b6132b3565b60405161087f9190613fc1565b60405180910390f35b610890613421565b60405161089d9190613ee8565b60405180910390f35b6108c060048036038101906108bb9190613eac565b6134c2565b005b6108dc60048036038101906108d79190613eac565b6136cd565b6040516108e99190613ee8565b60405180910390f35b61090c60048036038101906109079190613eac565b6136ea565b6040516109199190613ee8565b60405180910390f35b61093c600480360381019061093791906143b2565b613707565b6040516109499190614397565b60405180910390f35b61096c600480360381019061096791906144a4565b61371c565b6040516109799190613ee8565b60405180910390f35b60007f4e2312e0000000000000000000000000000000000000000000000000000000007bffffffffffffffffffffffffffffffffffffffffffffffffffffffff1916827bffffffffffffffffffffffffffffffffffffffffffffffffffffffff191614806109f557506109f482613cbd565b5b9050919050565b600060046000838152602001908152602001600020549050919050565b60007f000000000000000000000000000000000000000000000000000000000000000073ffffffffffffffffffffffffffffffffffffffff16634dd9c9c7836040518263ffffffff1660e01b8152600401610a749190613ee8565b61012060405180830381865afa158015610a92573d6000803e3d6000fd5b505050506040513d601f19601f82011682018060405250810190610ab69190614660565b6020015142610ac591906146bd565b9050919050565b60007f000000000000000000000000000000000000000000000000000000000000000073ffffffffffffffffffffffffffffffffffffffff16634dd9c9c7836040518263ffffffff1660e01b8152600401610b279190613ee8565b61012060405180830381865afa158015610b45573d6000803e3d6000fd5b505050506040513d601f19601f82011682018060405250810190610b699190614660565b60e00151600260008481526020019081526020016000205410159050919050565b60606001805480602002602001604051908101604052809291908181526020018280548015610bd857602002820191906000526020600020905b815481526020019060010190808311610bc4575b5050505050905090565b600060026000838152602001908152602001600020547f000000000000000000000000000000000000000000000000000000000000000073ffffffffffffffffffffffffffffffffffffffff16634dd9c9c7846040518263ffffffff1660e01b8152600401610c519190613ee8565b61012060405180830381865afa158015610c6f573d6000803e3d6000fd5b505050506040513d601f19601f82011682018060405250810190610c939190614660565b60000151610ca191906146f1565b9050919050565b6000670de0b6b3a76400007f000000000000000000000000000000000000000000000000000000000000000073ffffffffffffffffffffffffffffffffffffffff16634dd9c9c7846040518263ffffffff1660e01b8152600401610d0c9190613ee8565b61012060405180830381865afa158015610d2a573d6000803e3d6000fd5b505050506040513d601f19601f82011682018060405250810190610d4e9190614660565b60c00151670de0b6b3a7640000610d64856136cd565b610d6e91906146f1565b610d789190614762565b610d829190614762565b9050919050565b600060116000838152602001908152602001600020549050919050565b60006008600083815260200190815260200160002060009054906101000a900460ff169050919050565b6000610ddb82612110565b8015610e025750610deb82611a48565b600460008481526020019081526020016000205410155b9050919050565b6000610e1482611f8a565b158015610e275750610e2582610acc565b155b9050919050565b7f000000000000000000000000000000000000000000000000000000000000000073ffffffffffffffffffffffffffffffffffffffff163373ffffffffffffffffffffffffffffffffffffffff1614610ebc576040517f08c379a0000000000000000000000000000000000000000000000000000000008152600401610eb3906147f0565b60405180910390fd5b610ec582611f8a565b158015610ed85750610ed682610e09565b155b8015610eea5750610ee882611b2a565b155b8015610f0c5750610efa82610da6565b80610f0a5750610f09826113e6565b5b155b610f4b576040517f08c379a0000000000000000000000000000000000000000000000000000000008152600401610f429061485c565b60405180910390fd5b60106000838152602001908152602001600020546004600084815260200190815260200160002054610f7d91906146bd565b811115610fbf576040517f08c379a0000000000000000000000000000000000000000000000000000000008152600401610fb6906148c8565b60405180910390fd5b80600460008481526020019081526020016000206000828254610fe291906146bd565b925050819055507f000000000000000000000000000000000000000000000000000000000000000073ffffffffffffffffffffffffffffffffffffffff1663a9059cbb33836040518363ffffffff1660e01b81526004016110449291906148e8565b6020604051808303816000875af1158015611063573d6000803e3d6000fd5b505050506040513d601f19601f82011682018060405250810190611087919061493d565b505050565b600060026000838152602001908152602001600020546003600084815260200190815260200160002054149050919050565b7f000000000000000000000000000000000000000000000000000000000000000073ffffffffffffffffffffffffffffffffffffffff163373ffffffffffffffffffffffffffffffffffffffff161461114c576040517f08c379a0000000000000000000000000000000000000000000000000000000008152600401611143906147f0565b60405180910390fd5b61115581611b2a565b158015611168575061116681610da6565b155b801561118e575061117881611a48565b6004600083815260200190815260200160002054105b6111cd576040517f08c379a00000000000000000000000000000000000000000000000000000000081526004016111c4906149b6565b60405180910390fd5b6000600460008381526020019081526020016000205490506002600083815260200190815260200160002054816112049190614762565b600560008481526020019081526020016000208190555060016008600084815260200190815260200160002060006101000a81548160ff0219169083151502179055507f000000000000000000000000000000000000000000000000000000000000000073ffffffffffffffffffffffffffffffffffffffff1663dae382d67f00000000000000000000000000000000000000000000000000000000000000006040518263ffffffff1660e01b81526004016112c09190614064565b600060405180830381600087803b1580156112da57600080fd5b505af11580156112ee573d6000803e3d6000fd5b505050507f000000000000000000000000000000000000000000000000000000000000000073ffffffffffffffffffffffffffffffffffffffff1663d050a7c87f000000000000000000000000000000000000000000000000000000000000000060016040518363ffffffff1660e01b815260040161136e9291906148e8565b600060405180830381600087803b15801561138857600080fd5b505af115801561139c573d6000803e3d6000fd5b50505050817fc4f17a65d54873d57229ea5f59c4ddec592d095bc17581372676402c8228b9cd6113cb84611a48565b836040516113da9291906149d6565b60405180910390a25050565b6000806113f283612110565b8015611418575061140283611a48565b6004600085815260200190815260200160002054105b9050600061142584612110565b15801561146a57506201518060b46001601160008881526020019081526020016000205461145391906149ff565b61145d91906146f1565b61146791906146f1565b42115b905081806114755750805b92505050919050565b61148782611f8a565b6114c6576040517f08c379a00000000000000000000000000000000000000000000000000000000081526004016114bd90614a7f565b60405180910390fd5b806114d0836121ba565b1015611511576040517f08c379a000000000000000000000000000000000000000000000000000000000815260040161150890614aeb565b60405180910390fd5b60007f000000000000000000000000000000000000000000000000000000000000000073ffffffffffffffffffffffffffffffffffffffff16634dd9c9c7846040518263ffffffff1660e01b815260040161156c9190613ee8565b61012060405180830381865afa15801561158a573d6000803e3d6000fd5b505050506040513d601f19601f820116820180604052508101906115ae9190614660565b60000151826115bd91906146f1565b9050816002600085815260200190815260200160002060008282546115e291906149ff565b925050819055508060046000858152602001908152602001600020600082825461160c91906149ff565b925050819055507f000000000000000000000000000000000000000000000000000000000000000073ffffffffffffffffffffffffffffffffffffffff1663576ff163827f00000000000000000000000000000000000000000000000000000000000000006040518363ffffffff1660e01b815260040161168e929190614b0b565b600060405180830381600087803b1580156116a857600080fd5b505af11580156116bc573d6000803e3d6000fd5b505050507f000000000000000000000000000000000000000000000000000000000000000073ffffffffffffffffffffffffffffffffffffffff1663b8c2e4f3827f00000000000000000000000000000000000000000000000000000000000000007f00000000000000000000000000000000000000000000000000000000000000006040518463ffffffff1660e01b815260040161175d93929190614b34565b600060405180830381600087803b15801561177757600080fd5b505af115801561178b573d6000803e3d6000fd5b505050507f000000000000000000000000000000000000000000000000000000000000000073ffffffffffffffffffffffffffffffffffffffff16637db79a3d827f00000000000000000000000000000000000000000000000000000000000000007f000000000000000000000000000000000000000000000000000000000000000060016040518563ffffffff1660e01b815260040161182f9493929190614b6b565b600060405180830381600087803b15801561184957600080fd5b505af115801561185d573d6000803e3d6000fd5b505050507f000000000000000000000000000000000000000000000000000000000000000073ffffffffffffffffffffffffffffffffffffffff1663b0b4dfaa827f000000000000000000000000000000000000000000000000000000000000000060016040518463ffffffff1660e01b81526004016118df93929190614bb0565b600060405180830381600087803b1580156118f957600080fd5b505af115801561190d573d6000803e3d6000fd5b505050507f000000000000000000000000000000000000000000000000000000000000000073ffffffffffffffffffffffffffffffffffffffff1663f242432a303386866040518563ffffffff1660e01b81526004016119709493929190614c1e565b600060405180830381600087803b15801561198a57600080fd5b505af115801561199e573d6000803e3d6000fd5b505050507f000000000000000000000000000000000000000000000000000000000000000073ffffffffffffffffffffffffffffffffffffffff166323b872dd3330846040518463ffffffff1660e01b81526004016119ff93929190614c76565b6020604051808303816000875af1158015611a1e573d6000803e3d6000fd5b505050506040513d601f19601f82011682018060405250810190611a42919061493d565b50505050565b6000670de0b6b3a76400007f000000000000000000000000000000000000000000000000000000000000000073ffffffffffffffffffffffffffffffffffffffff16634dd9c9c7846040518263ffffffff1660e01b8152600401611aac9190613ee8565b61012060405180830381865afa158015611aca573d6000803e3d6000fd5b505050506040513d601f19601f82011682018060405250810190611aee9190614660565b6101000151611afc84610be2565b611b0691906146f1565b611b109190614762565b611b1983610be2565b611b2391906149ff565b9050919050565b60006009600083815260200190815260200160002060009054906101000a900460ff169050919050565b807f000000000000000000000000000000000000000000000000000000000000000073ffffffffffffffffffffffffffffffffffffffff1662fdd58e33856040518363ffffffff1660e01b8152600401611baf9291906148e8565b602060405180830381865afa158015611bcc573d6000803e3d6000fd5b505050506040513d601f19601f82011682018060405250810190611bf09190614cad565b1015611c31576040517f08c379a0000000000000000000000000000000000000000000000000000000008152600401611c2890614aeb565b60405180910390fd5b611c3a82611b2a565b80611c4a5750611c4982610e09565b5b80611c5a5750611c5982610da6565b5b611c99576040517f08c379a0000000000000000000000000000000000000000000000000000000008152600401611c9090614d26565b60405180910390fd5b600080611ca584611b2a565b15611cc9576006600085815260200190815260200160002054915060009050611db5565b611cd284610e09565b15611d81577f000000000000000000000000000000000000000000000000000000000000000073ffffffffffffffffffffffffffffffffffffffff16634dd9c9c7856040518263ffffffff1660e01b8152600401611d309190613ee8565b61012060405180830381865afa158015611d4e573d6000803e3d6000fd5b505050506040513d601f19601f82011682018060405250810190611d729190614660565b60000151915060019050611db4565b611d8a84610da6565b15611dae576005600085815260200190815260200160002054915060029050611db3565b600080fd5b5b5b7f000000000000000000000000000000000000000000000000000000000000000073ffffffffffffffffffffffffffffffffffffffff1663f5298aca3386866040518463ffffffff1660e01b8152600401611e1293929190614d46565b600060405180830381600087803b158015611e2c57600080fd5b505af1158015611e40573d6000803e3d6000fd5b5050505082600360008681526020019081526020016000206000828254611e6791906149ff565b9250508190555060008284611e7c91906146f1565b905080600460008781526020019081526020016000206000828254611ea191906146bd565b925050819055507f000000000000000000000000000000000000000000000000000000000000000073ffffffffffffffffffffffffffffffffffffffff1663a9059cbb33836040518363ffffffff1660e01b8152600401611f039291906148e8565b6020604051808303816000875af1158015611f22573d6000803e3d6000fd5b505050506040513d601f19601f82011682018060405250810190611f46919061493d565b50847fa5851b0172fdafd3dafe0e52ce051747548a4c642a2f22793c01faf228e13062338685604051611f7b93929190614d46565b60405180910390a25050505050565b60007f000000000000000000000000000000000000000000000000000000000000000073ffffffffffffffffffffffffffffffffffffffff16634dd9c9c7836040518263ffffffff1660e01b8152600401611fe59190613ee8565b61012060405180830381865afa158015612003573d6000803e3d6000fd5b505050506040513d601f19601f820116820180604052508101906120279190614660565b606001514211159050919050565b6000427f000000000000000000000000000000000000000000000000000000000000000073ffffffffffffffffffffffffffffffffffffffff16634dd9c9c7846040518263ffffffff1660e01b81526004016120919190613ee8565b61012060405180830381865afa1580156120af573d6000803e3d6000fd5b505050506040513d601f19601f820116820180604052508101906120d39190614660565b606001516120e191906146bd565b9050919050565b60007f0000000000000000000000000000000000000000000000000000000000000000905090565b60007f000000000000000000000000000000000000000000000000000000000000000073ffffffffffffffffffffffffffffffffffffffff16634dd9c9c7836040518263ffffffff1660e01b815260040161216b9190613ee8565b61012060405180830381865afa158015612189573d6000803e3d6000fd5b505050506040513d601f19601f820116820180604052508101906121ad9190614660565b6040015142119050919050565b600060026000838152602001908152602001600020547f000000000000000000000000000000000000000000000000000000000000000073ffffffffffffffffffffffffffffffffffffffff16634dd9c9c7846040518263ffffffff1660e01b81526004016122299190613ee8565b61012060405180830381865afa158015612247573d6000803e3d6000fd5b505050506040513d601f19601f8201168201806040525081019061226b9190614660565b60c0015161227991906146bd565b9050919050565b61228981611b2a565b15801561229c575061229a81610da6565b155b80156122ad57506122ac816113e6565b5b6122ec576040517f08c379a00000000000000000000000000000000000000000000000000000000081526004016122e390614dc9565b60405180910390fd5b60006103e8600460008481526020019081526020016000205461230f9190614762565b9050600081600460008581526020019081526020016000205461233291906146bd565b90506002600084815260200190815260200160002054816123539190614762565b60056000858152602001908152602001600020819055508160046000858152602001908152602001600020600082825461238d91906146bd565b9250508190555060016008600085815260200190815260200160002060006101000a81548160ff0219169083151502179055507f000000000000000000000000000000000000000000000000000000000000000073ffffffffffffffffffffffffffffffffffffffff1663dae382d67f00000000000000000000000000000000000000000000000000000000000000006040518263ffffffff1660e01b81526004016124399190614064565b600060405180830381600087803b15801561245357600080fd5b505af1158015612467573d6000803e3d6000fd5b505050507f000000000000000000000000000000000000000000000000000000000000000073ffffffffffffffffffffffffffffffffffffffff1663d050a7c87f000000000000000000000000000000000000000000000000000000000000000060016040518363ffffffff1660e01b81526004016124e79291906148e8565b600060405180830381600087803b15801561250157600080fd5b505af1158015612515573d6000803e3d6000fd5b505050507f000000000000000000000000000000000000000000000000000000000000000073ffffffffffffffffffffffffffffffffffffffff1663a9059cbb33846040518363ffffffff1660e01b81526004016125749291906148e8565b6020604051808303816000875af1158015612593573d6000803e3d6000fd5b505050506040513d601f19601f820116820180604052508101906125b7919061493d565b50827fc4f17a65d54873d57229ea5f59c4ddec592d095bc17581372676402c8228b9cd6125e385611a48565b836040516125f29291906149d6565b60405180910390a2505050565b60008160008110158015612614575060028111155b612653576040517f08c379a000000000000000000000000000000000000000000000000000000000815260040161264a90614e35565b60405180910390fd5b600060b4600261266391906146f1565b9050600084036126825780600361267a91906146f1565b9250506126b0565b6001840361269f5780600561269791906146f1565b9250506126b0565b80600a6126ac91906146f1565b9250505b50919050565b7f000000000000000000000000000000000000000000000000000000000000000073ffffffffffffffffffffffffffffffffffffffff163373ffffffffffffffffffffffffffffffffffffffff1614612744576040517f08c379a000000000000000000000000000000000000000000000000000000000815260040161273b906147f0565b60405180910390fd5b61274d82610da6565b8061275d575061275c826113e6565b5b1561279d576040517f08c379a00000000000000000000000000000000000000000000000000000000081526004016127949061485c565b60405180910390fd5b7f000000000000000000000000000000000000000000000000000000000000000073ffffffffffffffffffffffffffffffffffffffff16634dd9c9c7836040518263ffffffff1660e01b81526004016127f69190613ee8565b61012060405180830381865afa158015612814573d6000803e3d6000fd5b505050506040513d601f19601f820116820180604052508101906128389190614660565b60a0015160b46001601160008681526020019081526020016000205461285e91906149ff565b61286891906146f1565b036128a8576040517f08c379a000000000000000000000000000000000000000000000000000000000815260040161289f90614ea1565b60405180910390fd5b600f60008381526020019081526020016000206011600084815260200190815260200160002054815481106128e0576128df614ec1565b5b906000526020600020015481101561292d576040517f08c379a000000000000000000000000000000000000000000000000000000000815260040161292490614f3c565b60405180910390fd5b66b1a2bc2ec50000600f600084815260200190815260200160002060116000858152602001908152602001600020548154811061296d5761296c614ec1565b5b9060005260206000200154670de0b6b3a7640000600f60008681526020019081526020016000206011600087815260200190815260200160002054815481106129b9576129b8614ec1565b5b9060005260206000200154846129cf91906146bd565b6129d991906146f1565b6129e39190614762565b1115612a24576040517f08c379a0000000000000000000000000000000000000000000000000000000008152600401612a1b90614fa8565b60405180910390fd5b60007f000000000000000000000000000000000000000000000000000000000000000073ffffffffffffffffffffffffffffffffffffffff16634dd9c9c7846040518263ffffffff1660e01b8152600401612a7f9190613ee8565b61012060405180830381865afa158015612a9d573d6000803e3d6000fd5b505050506040513d601f19601f82011682018060405250810190612ac19190614660565b60c0015182612ad091906146f1565b905080601060008581526020019081526020016000206000828254612af591906149ff565b925050819055506201518060b4612b0c91906146f1565b600e600085815260200190815260200160002054612b2a91906149ff565b600e6000858152602001908152602001600020819055506001601160008581526020019081526020016000206000828254612b6591906149ff565b925050819055507f000000000000000000000000000000000000000000000000000000000000000073ffffffffffffffffffffffffffffffffffffffff166323b872dd3330846040518463ffffffff1660e01b8152600401612bc993929190614c76565b6020604051808303816000875af1158015612be8573d6000803e3d6000fd5b505050506040513d601f19601f82011682018060405250810190612c0c919061493d565b50505050565b60006007600083815260200190815260200160002060009054906101000a900460ff169050919050565b600063bc197c8160e01b905095945050505050565b6060600f6000838152602001908152602001600020805480602002602001604051908101604052809291908181526020018280548015612cb057602002820191906000526020600020905b815481526020019060010190808311612c9c575b50505050509050919050565b612cc581610da6565b158015612cd85750612cd681611b2a565b155b8015612ce95750612ce881610dd0565b5b612d28576040517f08c379a0000000000000000000000000000000000000000000000000000000008152600401612d1f90615014565b60405180910390fd5b6000612d3382611a48565b905060006103e882612d459190614762565b905060008183612d5591906146bd565b9050600260008581526020019081526020016000205481612d769190614762565b600660008681526020019081526020016000208190555081600460008681526020019081526020016000206000828254612db091906146bd565b9250508190555060016009600086815260200190815260200160002060006101000a81548160ff0219169083151502179055507f000000000000000000000000000000000000000000000000000000000000000073ffffffffffffffffffffffffffffffffffffffff1663a9059cbb33846040518363ffffffff1660e01b8152600401612e3e9291906148e8565b6020604051808303816000875af1158015612e5d573d6000803e3d6000fd5b505050506040513d601f19601f82011682018060405250810190612e81919061493d565b50837fac2eeaf45d1b75aed6b3285cda3efb3c382cce02ba313558bbb90be57f8843e48483604051612eb49291906149d6565b60405180910390a250505050565b60608160008110158015612ed7575060028111155b612f16576040517f08c379a0000000000000000000000000000000000000000000000000000000008152600401612f0d90614e35565b60405180910390fd5b6000612f21846132b3565b905060008151905060008167ffffffffffffffff811115612f4557612f446140c1565b5b604051908082528060200260200182016040528015612f735781602001602082028036833780820191505090505b50905060005b82811015612fe5576064848281518110612f9657612f95614ec1565b5b602002602001015189612fa991906146f1565b612fb39190614762565b828281518110612fc657612fc5614ec1565b5b6020026020010181815250508080612fdd90615034565b915050612f79565b508094505050505092915050565b6000600e6000838152602001908152602001600020549050919050565b60007f0000000000000000000000000000000000000000000000000000000000000000905090565b6000427f000000000000000000000000000000000000000000000000000000000000000073ffffffffffffffffffffffffffffffffffffffff16634dd9c9c7846040518263ffffffff1660e01b81526004016130949190613ee8565b61012060405180830381865afa1580156130b2573d6000803e3d6000fd5b505050506040513d601f19601f820116820180604052508101906130d69190614660565b604001516130e491906146bd565b9050919050565b7f000000000000000000000000000000000000000000000000000000000000000073ffffffffffffffffffffffffffffffffffffffff163373ffffffffffffffffffffffffffffffffffffffff1614613179576040517f08c379a0000000000000000000000000000000000000000000000000000000008152600401613170906147f0565b60405180910390fd5b61318282610da6565b806131925750613191826113e6565b5b1580156131a557506131a382611b2a565b155b6131e4576040517f08c379a00000000000000000000000000000000000000000000000000000000081526004016131db906150c8565b60405180910390fd5b8060046000848152602001908152602001600020600082825461320791906149ff565b925050819055507f000000000000000000000000000000000000000000000000000000000000000073ffffffffffffffffffffffffffffffffffffffff166323b872dd3330846040518463ffffffff1660e01b815260040161326b93929190614c76565b6020604051808303816000875af115801561328a573d6000803e3d6000fd5b505050506040513d601f19601f820116820180604052508101906132ae919061493d565b505050565b606081600081101580156132c8575060028111155b613307576040517f08c379a00000000000000000000000000000000000000000000000000000000081526004016132fe90614e35565b60405180910390fd5b6000830361336757600b80548060200260200160405190810160405280929190818152602001828054801561335b57602002820191906000526020600020905b815481526020019060010190808311613347575b5050505050915061341b565b600183036133c757600c8054806020026020016040519081016040528092919081815260200182805480156133bb57602002820191906000526020600020905b8154815260200190600101908083116133a7575b5050505050915061341b565b600d80548060200260200160405190810160405280929190818152602001828054801561341357602002820191906000526020600020905b8154815260200190600101908083116133ff575b505050505091505b50919050565b60007f000000000000000000000000000000000000000000000000000000000000000073ffffffffffffffffffffffffffffffffffffffff166370a08231306040518263ffffffff1660e01b815260040161347c9190614064565b602060405180830381865afa158015613499573d6000803e3d6000fd5b505050506040513d601f19601f820116820180604052508101906134bd9190614cad565b905090565b7f000000000000000000000000000000000000000000000000000000000000000073ffffffffffffffffffffffffffffffffffffffff163373ffffffffffffffffffffffffffffffffffffffff1614613550576040517f08c379a0000000000000000000000000000000000000000000000000000000008152600401613547906147f0565b60405180910390fd5b61355981611b2a565b801561356a57506135698161108c565b5b6135a9576040517f08c379a00000000000000000000000000000000000000000000000000000000081526004016135a09061485c565b60405180910390fd5b60006004600083815260200190815260200160002054116135ff576040517f08c379a00000000000000000000000000000000000000000000000000000000081526004016135f690615134565b60405180910390fd5b600060046000838152602001908152602001600020819055507f000000000000000000000000000000000000000000000000000000000000000073ffffffffffffffffffffffffffffffffffffffff1663a9059cbb3360046000858152602001908152602001600020546040518363ffffffff1660e01b81526004016136869291906148e8565b6020604051808303816000875af11580156136a5573d6000803e3d6000fd5b505050506040513d601f19601f820116820180604052508101906136c9919061493d565b5050565b600060106000838152602001908152602001600020549050919050565b600060046000838152602001908152602001600020549050919050565b600063f23a6e6160e01b905095945050505050565b60007f000000000000000000000000000000000000000000000000000000000000000073ffffffffffffffffffffffffffffffffffffffff163373ffffffffffffffffffffffffffffffffffffffff16146137ac576040517f08c379a00000000000000000000000000000000000000000000000000000000081526004016137a3906147f0565b60405180910390fd5b83600081101580156137bf575060028111155b6137fe576040517f08c379a00000000000000000000000000000000000000000000000000000000081526004016137f590614e35565b60405180910390fd5b898910613840576040517f08c379a0000000000000000000000000000000000000000000000000000000008152600401613837906151a0565b60405180910390fd5b6007841115613884576040517f08c379a000000000000000000000000000000000000000000000000000000000815260040161387b9061520c565b60405180910390fd5b600061388f866125ff565b905061389b600a613d27565b600060405180606001604052808a8a8080601f016020809104026020016040519081016040528093929190818152602001838380828437600081840152601f19601f8201169050808301925050505050505081526020017f000000000000000000000000000000000000000000000000000000000000000073ffffffffffffffffffffffffffffffffffffffff1681526020013373ffffffffffffffffffffffffffffffffffffffff16815250905060006040518061012001604052808c8152602001428152602001620151808561397391906146f1565b4261397e91906149ff565b8152602001620151808961399291906146f1565b4261399d91906149ff565b81526020018881526020018481526020018e81526020018d81526020018781525090507f000000000000000000000000000000000000000000000000000000000000000073ffffffffffffffffffffffffffffffffffffffff16634196afd4308f84866040518563ffffffff1660e01b8152600401613a1f94939291906153c1565b6020604051808303816000875af1158015613a3e573d6000803e3d6000fd5b505050506040513d601f19601f82011682018060405250810190613a629190614cad565b9450600185908060018154018082558091505060019003906000526020600020016000909190919091505560016007600087815260200190815260200160002060006101000a81548160ff0219169083151502179055506201518060b4613ac991906146f1565b42613ad491906149ff565b600e600087815260200190815260200160002081905550613af58b89612ec2565b600f60008781526020019081526020016000209080519060200190613b1b929190613d3d565b507f000000000000000000000000000000000000000000000000000000000000000073ffffffffffffffffffffffffffffffffffffffff1663b54cb16560036040518263ffffffff1660e01b8152600401613b769190613ee8565b600060405180830381600087803b158015613b9057600080fd5b505af1158015613ba4573d6000803e3d6000fd5b505050507f000000000000000000000000000000000000000000000000000000000000000073ffffffffffffffffffffffffffffffffffffffff1663bea75cf47f000000000000000000000000000000000000000000000000000000000000000060036040518363ffffffff1660e01b8152600401613c249291906148e8565b600060405180830381600087803b158015613c3e57600080fd5b505af1158015613c52573d6000803e3d6000fd5b50505050847ff73e436c94925e1e8b2f0b16de0a2c56aea7fb27878f7815811bc05bc6c335e88e8d896201518088613c8a91906146f1565b42613c9591906149ff565b604051613ca5949392919061540f565b60405180910390a25050505098975050505050505050565b60007f01ffc9a7000000000000000000000000000000000000000000000000000000007bffffffffffffffffffffffffffffffffffffffffffffffffffffffff1916827bffffffffffffffffffffffffffffffffffffffffffffffffffffffff1916149050919050565b6001816000016000828254019250508190555050565b828054828255906000526020600020908101928215613d79579160200282015b82811115613d78578251825591602001919060010190613d5d565b5b509050613d869190613d8a565b5090565b5b80821115613da3576000816000905550600101613d8b565b5090565b6000604051905090565b600080fd5b600080fd5b60007fffffffff0000000000000000000000000000000000000000000000000000000082169050919050565b613df081613dbb565b8114613dfb57600080fd5b50565b600081359050613e0d81613de7565b92915050565b600060208284031215613e2957613e28613db1565b5b6000613e3784828501613dfe565b91505092915050565b60008115159050919050565b613e5581613e40565b82525050565b6000602082019050613e706000830184613e4c565b92915050565b6000819050919050565b613e8981613e76565b8114613e9457600080fd5b50565b600081359050613ea681613e80565b92915050565b600060208284031215613ec257613ec1613db1565b5b6000613ed084828501613e97565b91505092915050565b613ee281613e76565b82525050565b6000602082019050613efd6000830184613ed9565b92915050565b600081519050919050565b600082825260208201905092915050565b6000819050602082019050919050565b613f3881613e76565b82525050565b6000613f4a8383613f2f565b60208301905092915050565b6000602082019050919050565b6000613f6e82613f03565b613f788185613f0e565b9350613f8383613f1f565b8060005b83811015613fb4578151613f9b8882613f3e565b9750613fa683613f56565b925050600181019050613f87565b5085935050505092915050565b60006020820190508181036000830152613fdb8184613f63565b905092915050565b60008060408385031215613ffa57613ff9613db1565b5b600061400885828601613e97565b925050602061401985828601613e97565b9150509250929050565b600073ffffffffffffffffffffffffffffffffffffffff82169050919050565b600061404e82614023565b9050919050565b61405e81614043565b82525050565b60006020820190506140796000830184614055565b92915050565b61408881614043565b811461409357600080fd5b50565b6000813590506140a58161407f565b92915050565b600080fd5b6000601f19601f8301169050919050565b7f4e487b7100000000000000000000000000000000000000000000000000000000600052604160045260246000fd5b6140f9826140b0565b810181811067ffffffffffffffff82111715614118576141176140c1565b5b80604052505050565b600061412b613da7565b905061413782826140f0565b919050565b600067ffffffffffffffff821115614157576141566140c1565b5b602082029050602081019050919050565b600080fd5b600061418061417b8461413c565b614121565b905080838252602082019050602084028301858111156141a3576141a2614168565b5b835b818110156141cc57806141b88882613e97565b8452602084019350506020810190506141a5565b5050509392505050565b600082601f8301126141eb576141ea6140ab565b5b81356141fb84826020860161416d565b91505092915050565b600080fd5b600067ffffffffffffffff821115614224576142236140c1565b5b61422d826140b0565b9050602081019050919050565b82818337600083830152505050565b600061425c61425784614209565b614121565b90508281526020810184848401111561427857614277614204565b5b61428384828561423a565b509392505050565b600082601f8301126142a05761429f6140ab565b5b81356142b0848260208601614249565b91505092915050565b600080600080600060a086880312156142d5576142d4613db1565b5b60006142e388828901614096565b95505060206142f488828901614096565b945050604086013567ffffffffffffffff81111561431557614314613db6565b5b614321888289016141d6565b935050606086013567ffffffffffffffff81111561434257614341613db6565b5b61434e888289016141d6565b925050608086013567ffffffffffffffff81111561436f5761436e613db6565b5b61437b8882890161428b565b9150509295509295909350565b61439181613dbb565b82525050565b60006020820190506143ac6000830184614388565b92915050565b600080600080600060a086880312156143ce576143cd613db1565b5b60006143dc88828901614096565b95505060206143ed88828901614096565b94505060406143fe88828901613e97565b935050606061440f88828901613e97565b925050608086013567ffffffffffffffff8111156144305761442f613db6565b5b61443c8882890161428b565b9150509295509295909350565b600080fd5b60008083601f840112614464576144636140ab565b5b8235905067ffffffffffffffff81111561448157614480614449565b5b60208301915083600182028301111561449d5761449c614168565b5b9250929050565b60008060008060008060008060e0898b0312156144c4576144c3613db1565b5b60006144d28b828c01613e97565b98505060206144e38b828c01613e97565b97505060406144f48b828c01613e97565b965050606089013567ffffffffffffffff81111561451557614514613db6565b5b6145218b828c0161444e565b955095505060806145348b828c01613e97565b93505060a06145458b828c01613e97565b92505060c06145568b828c01613e97565b9150509295985092959890939650565b600080fd5b60008151905061457a81613e80565b92915050565b6000610120828403121561459757614596614566565b5b6145a2610120614121565b905060006145b28482850161456b565b60008301525060206145c68482850161456b565b60208301525060406145da8482850161456b565b60408301525060606145ee8482850161456b565b60608301525060806146028482850161456b565b60808301525060a06146168482850161456b565b60a08301525060c061462a8482850161456b565b60c08301525060e061463e8482850161456b565b60e0830152506101006146538482850161456b565b6101008301525092915050565b6000610120828403121561467757614676613db1565b5b600061468584828501614580565b91505092915050565b7f4e487b7100000000000000000000000000000000000000000000000000000000600052601160045260246000fd5b60006146c882613e76565b91506146d383613e76565b92508282039050818111156146eb576146ea61468e565b5b92915050565b60006146fc82613e76565b915061470783613e76565b925082820261471581613e76565b9150828204841483151761472c5761472b61468e565b5b5092915050565b7f4e487b7100000000000000000000000000000000000000000000000000000000600052601260045260246000fd5b600061476d82613e76565b915061477883613e76565b92508261478857614787614733565b5b828204905092915050565b600082825260208201905092915050565b7f4e544f0000000000000000000000000000000000000000000000000000000000600082015250565b60006147da600383614793565b91506147e5826147a4565b602082019050919050565b60006020820190508181036000830152614809816147cd565b9050919050565b7f574e410000000000000000000000000000000000000000000000000000000000600082015250565b6000614846600383614793565b915061485182614810565b602082019050919050565b6000602082019050818103600083015261487581614839565b9050919050565b7f5741450000000000000000000000000000000000000000000000000000000000600082015250565b60006148b2600383614793565b91506148bd8261487c565b602082019050919050565b600060208201905081810360008301526148e1816148a5565b9050919050565b60006040820190506148fd6000830185614055565b61490a6020830184613ed9565b9392505050565b61491a81613e40565b811461492557600080fd5b50565b60008151905061493781614911565b92915050565b60006020828403121561495357614952613db1565b5b600061496184828501614928565b91505092915050565b7f504d444e41000000000000000000000000000000000000000000000000000000600082015250565b60006149a0600583614793565b91506149ab8261496a565b602082019050919050565b600060208201905081810360008301526149cf81614993565b9050919050565b60006040820190506149eb6000830185613ed9565b6149f86020830184613ed9565b9392505050565b6000614a0a82613e76565b9150614a1583613e76565b9250828201905080821115614a2d57614a2c61468e565b5b92915050565b7f4942000000000000000000000000000000000000000000000000000000000000600082015250565b6000614a69600283614793565b9150614a7482614a33565b602082019050919050565b60006020820190508181036000830152614a9881614a5c565b9050919050565b7f4951000000000000000000000000000000000000000000000000000000000000600082015250565b6000614ad5600283614793565b9150614ae082614a9f565b602082019050919050565b60006020820190508181036000830152614b0481614ac8565b9050919050565b6000604082019050614b206000830185613ed9565b614b2d6020830184614055565b9392505050565b6000606082019050614b496000830186613ed9565b614b566020830185614055565b614b636040830184614055565b949350505050565b6000608082019050614b806000830187613ed9565b614b8d6020830186614055565b614b9a6040830185614055565b614ba76060830184613ed9565b95945050505050565b6000606082019050614bc56000830186613ed9565b614bd26020830185614055565b614bdf6040830184613ed9565b949350505050565b600082825260208201905092915050565b50565b6000614c08600083614be7565b9150614c1382614bf8565b600082019050919050565b600060a082019050614c336000830187614055565b614c406020830186614055565b614c4d6040830185613ed9565b614c5a6060830184613ed9565b8181036080830152614c6b81614bfb565b905095945050505050565b6000606082019050614c8b6000830186614055565b614c986020830185614055565b614ca56040830184613ed9565b949350505050565b600060208284031215614cc357614cc2613db1565b5b6000614cd18482850161456b565b91505092915050565b7f524e410000000000000000000000000000000000000000000000000000000000600082015250565b6000614d10600383614793565b9150614d1b82614cda565b602082019050919050565b60006020820190508181036000830152614d3f81614d03565b9050919050565b6000606082019050614d5b6000830186614055565b614d686020830185613ed9565b614d756040830184613ed9565b949350505050565b7f4d41444e41000000000000000000000000000000000000000000000000000000600082015250565b6000614db3600583614793565b9150614dbe82614d7d565b602082019050919050565b60006020820190508181036000830152614de281614da6565b9050919050565b7f49594f0000000000000000000000000000000000000000000000000000000000600082015250565b6000614e1f600383614793565b9150614e2a82614de9565b602082019050919050565b60006020820190508181036000830152614e4e81614e12565b9050919050565b7f4f41460000000000000000000000000000000000000000000000000000000000600082015250565b6000614e8b600383614793565b9150614e9682614e55565b602082019050919050565b60006020820190508181036000830152614eba81614e7e565b9050919050565b7f4e487b7100000000000000000000000000000000000000000000000000000000600052603260045260246000fd5b7f4d4f4e4600000000000000000000000000000000000000000000000000000000600082015250565b6000614f26600483614793565b9150614f3182614ef0565b602082019050919050565b60006020820190508181036000830152614f5581614f19565b9050919050565b7f454d460000000000000000000000000000000000000000000000000000000000600082015250565b6000614f92600383614793565b9150614f9d82614f5c565b602082019050919050565b60006020820190508181036000830152614fc181614f85565b9050919050565b7f4d41434e41000000000000000000000000000000000000000000000000000000600082015250565b6000614ffe600583614793565b915061500982614fc8565b602082019050919050565b6000602082019050818103600083015261502d81614ff1565b9050919050565b600061503f82613e76565b91507fffffffffffffffffffffffffffffffffffffffffffffffffffffffffffffffff82036150715761507061468e565b5b600182019050919050565b7f444e410000000000000000000000000000000000000000000000000000000000600082015250565b60006150b2600383614793565b91506150bd8261507c565b602082019050919050565b600060208201905081810360008301526150e1816150a5565b9050919050565b7f5746450000000000000000000000000000000000000000000000000000000000600082015250565b600061511e600383614793565b9150615129826150e8565b602082019050919050565b6000602082019050818103600083015261514d81615111565b9050919050565b7f4d50514754425100000000000000000000000000000000000000000000000000600082015250565b600061518a600783614793565b915061519582615154565b602082019050919050565b600060208201905081810360008301526151b98161517d565b9050919050565b7f4144413744000000000000000000000000000000000000000000000000000000600082015250565b60006151f6600583614793565b9150615201826151c0565b602082019050919050565b60006020820190508181036000830152615225816151e9565b9050919050565b610120820160008201516152436000850182613f2f565b5060208201516152566020850182613f2f565b5060408201516152696040850182613f2f565b50606082015161527c6060850182613f2f565b50608082015161528f6080850182613f2f565b5060a08201516152a260a0850182613f2f565b5060c08201516152b560c0850182613f2f565b5060e08201516152c860e0850182613f2f565b506101008201516152dd610100850182613f2f565b50505050565b600081519050919050565b600082825260208201905092915050565b60005b8381101561531d578082015181840152602081019050615302565b60008484015250505050565b6000615334826152e3565b61533e81856152ee565b935061534e8185602086016152ff565b615357816140b0565b840191505092915050565b61536b81614043565b82525050565b6000606083016000830151848203600086015261538e8282615329565b91505060208301516153a36020860182615362565b5060408301516153b66040860182615362565b508091505092915050565b6000610180820190506153d76000830187614055565b6153e46020830186613ed9565b6153f1604083018561522c565b8181036101608301526154048184615371565b905095945050505050565b60006080820190506154246000830187613ed9565b6154316020830186613ed9565b61543e6040830185613ed9565b61544b6060830184613ed9565b9594505050505056fea2646970667358221220908edbd7da4c8f8991f77e589e4b1d4db0ee0f3864582e1e2d51deb70d1b4ed364736f6c63430008110033",
  "linkReferences": {},
  "deployedLinkReferences": {}
}