{
  "_format": "hh-sol-artifact-1",
  "contractName": "InstallmentBondFactory",
  "sourceName": "contracts/factories/InstallmentBondFactory.sol",
  "abi": [
    {
      "inputs": [
        {
          "internalType": "address",
          "name": "token",
          "type": "address"
        },
        {
          "internalType": "address",
          "name": "bondToken",
          "type": "address"
        },
        {
          "internalType": "address",
          "name": "db",
          "type": "address"
        },
        {
          "internalType": "address",
          "name": "deployer",
          "type": "address"
        }
      ],
      "stateMutability": "nonpayable",
      "type": "constructor"
    },
    {
      "anonymous": false,
      "inputs": [
        {
          "indexed": true,
          "internalType": "uint256",
          "name": "id",
          "type": "uint256"
        },
        {
          "indexed": false,
          "internalType": "uint256",
          "name": "totalDebt",
          "type": "uint256"
        },
        {
          "indexed": false,
          "internalType": "uint256",
          "name": "paidDebt",
          "type": "uint256"
        }
      ],
      "name": "Completed",
      "type": "event"
    },
    {
      "anonymous": false,
      "inputs": [
        {
          "indexed": true,
          "internalType": "uint256",
          "name": "id",
          "type": "uint256"
        },
        {
          "indexed": false,
          "internalType": "uint256",
          "name": "totalDebt",
          "type": "uint256"
        },
        {
          "indexed": false,
          "internalType": "uint256",
          "name": "paidDebt",
          "type": "uint256"
        }
      ],
      "name": "Defaulted",
      "type": "event"
    },
    {
      "anonymous": false,
      "inputs": [
        {
          "indexed": true,
          "internalType": "uint256",
          "name": "id",
          "type": "uint256"
        },
        {
          "indexed": false,
          "internalType": "uint256",
          "name": "bondQuantity",
          "type": "uint256"
        },
        {
          "indexed": false,
          "internalType": "uint256",
          "name": "tokenAmountPerBond",
          "type": "uint256"
        },
        {
          "indexed": false,
          "internalType": "uint256",
          "name": "couponRate",
          "type": "uint256"
        },
        {
          "indexed": false,
          "internalType": "uint256",
          "name": "maturityDate",
          "type": "uint256"
        }
      ],
      "name": "Issued",
      "type": "event"
    },
    {
      "anonymous": false,
      "inputs": [
        {
          "indexed": true,
          "internalType": "uint256",
          "name": "id",
          "type": "uint256"
        },
        {
          "indexed": false,
          "internalType": "address",
          "name": "buyer",
          "type": "address"
        },
        {
          "indexed": false,
          "internalType": "uint256",
          "name": "bondQuantity",
          "type": "uint256"
        },
        {
          "indexed": false,
          "internalType": "uint256",
          "name": "state",
          "type": "uint256"
        }
      ],
      "name": "Redeemed",
      "type": "event"
    },
    {
      "inputs": [],
      "name": "baseToken",
      "outputs": [
        {
          "internalType": "address",
          "name": "",
          "type": "address"
        }
      ],
      "stateMutability": "view",
      "type": "function"
    },
    {
      "inputs": [],
      "name": "bonds",
      "outputs": [
        {
          "internalType": "uint256[]",
          "name": "",
          "type": "uint256[]"
        }
      ],
      "stateMutability": "view",
      "type": "function"
    },
    {
      "inputs": [
        {
          "internalType": "uint256",
          "name": "id",
          "type": "uint256"
        },
        {
          "internalType": "uint256",
          "name": "tokenAmount",
          "type": "uint256"
        }
      ],
      "name": "deposit",
      "outputs": [],
      "stateMutability": "nonpayable",
      "type": "function"
    },
    {
      "inputs": [
        {
          "internalType": "uint256",
          "name": "id",
          "type": "uint256"
        }
      ],
      "name": "designatedTokenPool",
      "outputs": [
        {
          "internalType": "uint256",
          "name": "",
          "type": "uint256"
        }
      ],
      "stateMutability": "view",
      "type": "function"
    },
    {
      "inputs": [
        {
          "internalType": "uint256",
          "name": "id",
          "type": "uint256"
        },
        {
          "internalType": "uint256",
          "name": "tokenAmountPerBond",
          "type": "uint256"
        }
      ],
      "name": "fulfillObligationsAndLock",
      "outputs": [],
      "stateMutability": "nonpayable",
      "type": "function"
    },
    {
      "inputs": [
        {
          "internalType": "uint256",
          "name": "id",
          "type": "uint256"
        }
      ],
      "name": "isCanceled",
      "outputs": [
        {
          "internalType": "bool",
          "name": "",
          "type": "bool"
        }
      ],
      "stateMutability": "view",
      "type": "function"
    },
    {
      "inputs": [
        {
          "internalType": "uint256",
          "name": "id",
          "type": "uint256"
        }
      ],
      "name": "isCompleted",
      "outputs": [
        {
          "internalType": "bool",
          "name": "",
          "type": "bool"
        }
      ],
      "stateMutability": "view",
      "type": "function"
    },
    {
      "inputs": [
        {
          "internalType": "uint256",
          "name": "id",
          "type": "uint256"
        }
      ],
      "name": "isCompletedInTheory",
      "outputs": [
        {
          "internalType": "bool",
          "name": "",
          "type": "bool"
        }
      ],
      "stateMutability": "view",
      "type": "function"
    },
    {
      "inputs": [
        {
          "internalType": "uint256",
          "name": "id",
          "type": "uint256"
        }
      ],
      "name": "isDefaulted",
      "outputs": [
        {
          "internalType": "bool",
          "name": "",
          "type": "bool"
        }
      ],
      "stateMutability": "view",
      "type": "function"
    },
    {
      "inputs": [
        {
          "internalType": "uint256",
          "name": "id",
          "type": "uint256"
        }
      ],
      "name": "isDefaultedInTheory",
      "outputs": [
        {
          "internalType": "bool",
          "name": "",
          "type": "bool"
        }
      ],
      "stateMutability": "view",
      "type": "function"
    },
    {
      "inputs": [
        {
          "internalType": "uint256",
          "name": "id",
          "type": "uint256"
        }
      ],
      "name": "isFulfilled",
      "outputs": [
        {
          "internalType": "bool",
          "name": "",
          "type": "bool"
        }
      ],
      "stateMutability": "view",
      "type": "function"
    },
    {
      "inputs": [
        {
          "internalType": "uint256",
          "name": "id",
          "type": "uint256"
        }
      ],
      "name": "isFullyRedeemed",
      "outputs": [
        {
          "internalType": "bool",
          "name": "",
          "type": "bool"
        }
      ],
      "stateMutability": "view",
      "type": "function"
    },
    {
      "inputs": [
        {
          "internalType": "uint256",
          "name": "id",
          "type": "uint256"
        }
      ],
      "name": "isIssuedByFactory",
      "outputs": [
        {
          "internalType": "bool",
          "name": "",
          "type": "bool"
        }
      ],
      "stateMutability": "view",
      "type": "function"
    },
    {
      "inputs": [
        {
          "internalType": "uint256",
          "name": "bondQuantity",
          "type": "uint256"
        },
        {
          "internalType": "uint256",
          "name": "minPurchasedQuantity",
          "type": "uint256"
        },
        {
          "internalType": "uint256",
          "name": "tokenAmountPerBond",
          "type": "uint256"
        },
        {
          "internalType": "string",
          "name": "ticker",
          "type": "string"
        },
        {
          "internalType": "uint256",
          "name": "yearOption",
          "type": "uint256"
        },
        {
          "internalType": "uint256",
          "name": "activeDurationInDays",
          "type": "uint256"
        },
        {
          "internalType": "uint256",
          "name": "rate",
          "type": "uint256"
        }
      ],
      "name": "issue",
      "outputs": [
        {
          "internalType": "uint256",
          "name": "id",
          "type": "uint256"
        }
      ],
      "stateMutability": "nonpayable",
      "type": "function"
    },
    {
      "inputs": [
        {
          "internalType": "uint256",
          "name": "id",
          "type": "uint256"
        }
      ],
      "name": "lockedTokenAmount",
      "outputs": [
        {
          "internalType": "uint256",
          "name": "",
          "type": "uint256"
        }
      ],
      "stateMutability": "view",
      "type": "function"
    },
    {
      "inputs": [
        {
          "internalType": "uint256",
          "name": "id",
          "type": "uint256"
        }
      ],
      "name": "lockedTokenAmountPerBond",
      "outputs": [
        {
          "internalType": "uint256",
          "name": "",
          "type": "uint256"
        }
      ],
      "stateMutability": "view",
      "type": "function"
    },
    {
      "inputs": [
        {
          "internalType": "uint256",
          "name": "id",
          "type": "uint256"
        }
      ],
      "name": "markAsCompleted",
      "outputs": [],
      "stateMutability": "nonpayable",
      "type": "function"
    },
    {
      "inputs": [
        {
          "internalType": "uint256",
          "name": "id",
          "type": "uint256"
        }
      ],
      "name": "markAsDefaulted",
      "outputs": [],
      "stateMutability": "nonpayable",
      "type": "function"
    },
    {
      "inputs": [
        {
          "internalType": "uint256",
          "name": "id",
          "type": "uint256"
        }
      ],
      "name": "minObligationTokenAmountPerBondList",
      "outputs": [
        {
          "internalType": "uint256[]",
          "name": "",
          "type": "uint256[]"
        }
      ],
      "stateMutability": "view",
      "type": "function"
    },
    {
      "inputs": [
        {
          "internalType": "uint256",
          "name": "id",
          "type": "uint256"
        }
      ],
      "name": "nextObligationDate",
      "outputs": [
        {
          "internalType": "uint256",
          "name": "",
          "type": "uint256"
        }
      ],
      "stateMutability": "view",
      "type": "function"
    },
    {
      "inputs": [
        {
          "internalType": "uint256",
          "name": "id",
          "type": "uint256"
        }
      ],
      "name": "numberOfTimesFulfilled",
      "outputs": [
        {
          "internalType": "uint256",
          "name": "",
          "type": "uint256"
        }
      ],
      "stateMutability": "view",
      "type": "function"
    },
    {
      "inputs": [
        {
          "internalType": "address",
          "name": "",
          "type": "address"
        },
        {
          "internalType": "address",
          "name": "",
          "type": "address"
        },
        {
          "internalType": "uint256[]",
          "name": "",
          "type": "uint256[]"
        },
        {
          "internalType": "uint256[]",
          "name": "",
          "type": "uint256[]"
        },
        {
          "internalType": "bytes",
          "name": "",
          "type": "bytes"
        }
      ],
      "name": "onERC1155BatchReceived",
      "outputs": [
        {
          "internalType": "bytes4",
          "name": "",
          "type": "bytes4"
        }
      ],
      "stateMutability": "nonpayable",
      "type": "function"
    },
    {
      "inputs": [
        {
          "internalType": "address",
          "name": "",
          "type": "address"
        },
        {
          "internalType": "address",
          "name": "",
          "type": "address"
        },
        {
          "internalType": "uint256",
          "name": "",
          "type": "uint256"
        },
        {
          "internalType": "uint256",
          "name": "",
          "type": "uint256"
        },
        {
          "internalType": "bytes",
          "name": "",
          "type": "bytes"
        }
      ],
      "name": "onERC1155Received",
      "outputs": [
        {
          "internalType": "bytes4",
          "name": "",
          "type": "bytes4"
        }
      ],
      "stateMutability": "nonpayable",
      "type": "function"
    },
    {
      "inputs": [],
      "name": "owner",
      "outputs": [
        {
          "internalType": "address",
          "name": "",
          "type": "address"
        }
      ],
      "stateMutability": "view",
      "type": "function"
    },
    {
      "inputs": [
        {
          "internalType": "uint256",
          "name": "id",
          "type": "uint256"
        }
      ],
      "name": "poolAmount",
      "outputs": [
        {
          "internalType": "uint256",
          "name": "",
          "type": "uint256"
        }
      ],
      "stateMutability": "view",
      "type": "function"
    },
    {
      "inputs": [
        {
          "internalType": "uint256",
          "name": "id",
          "type": "uint256"
        }
      ],
      "name": "preMaturityDefault",
      "outputs": [],
      "stateMutability": "nonpayable",
      "type": "function"
    },
    {
      "inputs": [
        {
          "internalType": "uint256",
          "name": "id",
          "type": "uint256"
        }
      ],
      "name": "principal",
      "outputs": [
        {
          "internalType": "uint256",
          "name": "",
          "type": "uint256"
        }
      ],
      "stateMutability": "view",
      "type": "function"
    },
    {
      "inputs": [
        {
          "internalType": "uint256",
          "name": "id",
          "type": "uint256"
        }
      ],
      "name": "principalWithInterest",
      "outputs": [
        {
          "internalType": "uint256",
          "name": "",
          "type": "uint256"
        }
      ],
      "stateMutability": "view",
      "type": "function"
    },
    {
      "inputs": [
        {
          "internalType": "uint256",
          "name": "id",
          "type": "uint256"
        },
        {
          "internalType": "uint256",
          "name": "bondQuantity",
          "type": "uint256"
        }
      ],
      "name": "purchase",
      "outputs": [],
      "stateMutability": "nonpayable",
      "type": "function"
    },
    {
      "inputs": [
        {
          "internalType": "uint256",
          "name": "id",
          "type": "uint256"
        },
        {
          "internalType": "uint256",
          "name": "bondQuantity",
          "type": "uint256"
        }
      ],
      "name": "redeem",
      "outputs": [],
      "stateMutability": "nonpayable",
      "type": "function"
    },
    {
      "inputs": [
        {
          "internalType": "uint256",
          "name": "id",
          "type": "uint256"
        }
      ],
      "name": "remainingQuantity",
      "outputs": [
        {
          "internalType": "uint256",
          "name": "",
          "type": "uint256"
        }
      ],
      "stateMutability": "view",
      "type": "function"
    },
    {
      "inputs": [
        {
          "internalType": "uint256",
          "name": "tokenAmountPerBond",
          "type": "uint256"
        },
        {
          "internalType": "uint256",
          "name": "yearOption",
          "type": "uint256"
        }
      ],
      "name": "retrieveMinObligationList",
      "outputs": [
        {
          "internalType": "uint256[]",
          "name": "",
          "type": "uint256[]"
        }
      ],
      "stateMutability": "view",
      "type": "function"
    },
    {
      "inputs": [
        {
          "internalType": "bytes4",
          "name": "interfaceId",
          "type": "bytes4"
        }
      ],
      "name": "supportsInterface",
      "outputs": [
        {
          "internalType": "bool",
          "name": "",
          "type": "bool"
        }
      ],
      "stateMutability": "view",
      "type": "function"
    },
    {
      "inputs": [],
      "name": "tvl",
      "outputs": [
        {
          "internalType": "uint256",
          "name": "",
          "type": "uint256"
        }
      ],
      "stateMutability": "view",
      "type": "function"
    },
    {
      "inputs": [
        {
          "internalType": "uint256",
          "name": "id",
          "type": "uint256"
        },
        {
          "internalType": "uint256",
          "name": "tokenAmount",
          "type": "uint256"
        }
      ],
      "name": "withdraw",
      "outputs": [],
      "stateMutability": "nonpayable",
      "type": "function"
    },
    {
      "inputs": [
        {
          "internalType": "uint256",
          "name": "id",
          "type": "uint256"
        }
      ],
      "name": "withdrawExcess",
      "outputs": [],
      "stateMutability": "nonpayable",
      "type": "function"
    },
    {
      "inputs": [
        {
          "internalType": "uint256",
          "name": "option",
          "type": "uint256"
        }
      ],
      "name": "yearOptionToDays",
      "outputs": [
        {
          "internalType": "uint256",
          "name": "",
          "type": "uint256"
        }
      ],
      "stateMutability": "pure",
      "type": "function"
    },
    {
      "inputs": [
        {
          "internalType": "uint256",
          "name": "option",
          "type": "uint256"
        }
      ],
      "name": "yearOptionToObligationRateList",
      "outputs": [
        {
          "internalType": "uint256[]",
          "name": "",
          "type": "uint256[]"
        }
      ],
      "stateMutability": "view",
      "type": "function"
    }
  ],
  "bytecode": "0x6101006040526040518060a00160405280600560ff168152602001600560ff168152602001600a60ff168152602001600f60ff168152602001600f60ff16815250600b90600562000052929190620002ba565b50604051806101200160405280600260ff168152602001600260ff168152602001600260ff168152602001600260ff168152602001600260ff168152602001600560ff168152602001600a60ff168152602001600a60ff168152602001600f60ff16815250600c906009620000c992919062000311565b50604051806102600160405280600260ff168152602001600260ff168152602001600260ff168152602001600260ff168152602001600260ff168152602001600260ff168152602001600260ff168152602001600260ff168152602001600260ff168152602001600260ff168152602001600260ff168152602001600260ff168152602001600260ff168152602001600260ff168152602001600260ff168152602001600560ff168152602001600560ff168152602001600560ff168152602001600560ff16815250600d906013620001a492919062000368565b50348015620001b257600080fd5b5060405162005fa738038062005fa78339818101604052810190620001d8919062000448565b838383838073ffffffffffffffffffffffffffffffffffffffff1660808173ffffffffffffffffffffffffffffffffffffffff16815250508373ffffffffffffffffffffffffffffffffffffffff1660a08173ffffffffffffffffffffffffffffffffffffffff16815250508173ffffffffffffffffffffffffffffffffffffffff1660c08173ffffffffffffffffffffffffffffffffffffffff16815250508273ffffffffffffffffffffffffffffffffffffffff1660e08173ffffffffffffffffffffffffffffffffffffffff16815250505050505050505050620004ba565b828054828255906000526020600020908101928215620002fe579160200282015b82811115620002fd578251829060ff16905591602001919060010190620002db565b5b5090506200030d9190620003bf565b5090565b82805482825590600052602060002090810192821562000355579160200282015b8281111562000354578251829060ff1690559160200191906001019062000332565b5b509050620003649190620003bf565b5090565b828054828255906000526020600020908101928215620003ac579160200282015b82811115620003ab578251829060ff1690559160200191906001019062000389565b5b509050620003bb9190620003bf565b5090565b5b80821115620003da576000816000905550600101620003c0565b5090565b600080fd5b600073ffffffffffffffffffffffffffffffffffffffff82169050919050565b60006200041082620003e3565b9050919050565b620004228162000403565b81146200042e57600080fd5b50565b600081519050620004428162000417565b92915050565b60008060008060808587031215620004655762000464620003de565b5b6000620004758782880162000431565b9450506020620004888782880162000431565b93505060406200049b8782880162000431565b9250506060620004ae8782880162000431565b91505092959194509250565b60805160a05160c05160e0516158c9620006de600039600081816108f601528181610a2001528181610adb01528181610bfa01528181610cc401528181610e060152818161147101528181611535015281816116280152818161174e01528181611bf901528181611d3b01528181611e3d01528181611fbf0152818161209d0152818161235d015281816129d701528181612c600152613e01015260008181610fc4015281816112cf0152818161137a0152818161184e015281816118fb015281816119a801528181611a7701528181611b49015281816121900152818161254d015281816125f8015281816126a601528181612da6015281816130ca015281816134ef015281816139be01528181613f5d0152613fe9015260008181611001015281816110710152818161188b0152818161193801528181611a0601528181611ad501528181611b8601528181611c8a015281816121cd0152818161223d015281816126e30152818161275301528181612de301528181612e530152818161310701528181613177015281816133a60152818161352c0152818161359c015281816137b1015281816139fb01528181613a6b0152613d33015260008181610d78015281816111460152818161130b015281816113b6015281816119e501528181611ab4015281816123210152818161258901528181612634015281816128f0015281816133cc0152818161385001528181613b5f015261402501526158c96000f3fe608060405234801561001057600080fd5b50600436106102325760003560e01c8063932a8de011610130578063c372fb91116100b8578063e755ddd71161007c578063e755ddd71461077f578063e88580901461079b578063f0d8100a146107cb578063f23a6e61146107fb578063fcbc669a1461082b57610232565b8063c372fb91146106c7578063c55dae63146106f7578063e2bbb15814610715578063e52270e014610731578063e5328e061461076157610232565b8063b1a1a165116100ff578063b1a1a165146105eb578063bc197c811461061b578063be5ba4901461064b578063c0a6026c1461067b578063c36177fc1461069757610232565b8063932a8de014610553578063a874302214610583578063a9385a5c1461059f578063af73e2c9146105cf57610232565b806339e3af9b116101be57806370876c981161018257806370876c981461049d57806377e2a08b146104b95780637a41984b146104e95780637cbc2373146105195780638da5cb5b1461053557610232565b806339e3af9b146103d5578063441a3e7014610405578063549493bb146104215780636567dc4d146104515780636ff80d931461046d57610232565b806314f294931161020557806314f29493146102e55780631add027114610315578063239f60da146103455780632f3ad61f146103755780633097afb8146103a557610232565b806301ffc9a71461023757806302159497146102675780630914902014610297578063135c404e146102c7575b600080fd5b610251600480360381019061024c9190614252565b61085b565b60405161025e919061429a565b60405180910390f35b610281600480360381019061027c91906142eb565b6108d5565b60405161028e9190614327565b60405180910390f35b6102b160048036038101906102ac91906142eb565b6108f2565b6040516102be919061429a565b60405180910390f35b6102cf6109b0565b6040516102dc9190614400565b60405180910390f35b6102ff60048036038101906102fa91906142eb565b610a08565b60405161030c9190614327565b60405180910390f35b61032f600480360381019061032a91906142eb565b610ace565b60405161033c9190614327565b60405180910390f35b61035f600480360381019061035a91906142eb565b610baf565b60405161036c9190614327565b60405180910390f35b61038f600480360381019061038a91906142eb565b610bcc565b60405161039c919061429a565b60405180910390f35b6103bf60048036038101906103ba91906142eb565b610bf6565b6040516103cc919061429a565b60405180910390f35b6103ef60048036038101906103ea91906142eb565b610cc0565b6040516103fc919061429a565b60405180910390f35b61041f600480360381019061041a9190614422565b610d76565b005b61043b600480360381019061043691906142eb565b611112565b604051610448919061429a565b60405180910390f35b61046b600480360381019061046691906142eb565b611144565b005b610487600480360381019061048291906142eb565b61146c565b604051610494919061429a565b60405180910390f35b6104b760048036038101906104b29190614422565b611626565b005b6104d360048036038101906104ce91906142eb565b611d2e565b6040516104e09190614327565b60405180910390f35b61050360048036038101906104fe91906142eb565b611e10565b604051610510919061429a565b60405180910390f35b610533600480360381019061052e9190614422565b611e3a565b005b61053d61231d565b60405161054a91906144a3565b60405180910390f35b61056d600480360381019061056891906142eb565b612345565b60405161057a9190614327565b60405180910390f35b61059d600480360381019061059891906142eb565b61240b565b005b6105b960048036038101906105b491906142eb565b612837565b6040516105c69190614327565b60405180910390f35b6105e960048036038101906105e49190614422565b6128ee565b005b610605600480360381019061060091906142eb565b612ef7565b604051610612919061429a565b60405180910390f35b610635600480360381019061063091906146f8565b612f21565b60405161064291906147d6565b60405180910390f35b610665600480360381019061066091906142eb565b612f36565b6040516106729190614400565b60405180910390f35b610695600480360381019061069091906142eb565b612fa1565b005b6106b160048036038101906106ac9190614422565b613254565b6040516106be9190614400565b60405180910390f35b6106e160048036038101906106dc91906142eb565b613385565b6040516106ee9190614327565b60405180910390f35b6106ff6133a2565b60405161070c91906144a3565b60405180910390f35b61072f600480360381019061072a9190614422565b6133ca565b005b61074b600480360381019061074691906142eb565b61363f565b6040516107589190614400565b60405180910390f35b6107696137ad565b6040516107769190614327565b60405180910390f35b610799600480360381019061079491906142eb565b61384e565b005b6107b560048036038101906107b091906142eb565b613b0c565b6040516107c29190614327565b60405180910390f35b6107e560048036038101906107e091906142eb565b613b29565b6040516107f29190614327565b60405180910390f35b610815600480360381019061081091906147f1565b613b46565b60405161082291906147d6565b60405180910390f35b610845600480360381019061084091906148e3565b613b5b565b6040516108529190614327565b60405180910390f35b60007f4e2312e0000000000000000000000000000000000000000000000000000000007bffffffffffffffffffffffffffffffffffffffffffffffffffffffff1916827bffffffffffffffffffffffffffffffffffffffffffffffffffffffff191614806108ce57506108cd826140fc565b5b9050919050565b600060046000838152602001908152602001600020549050919050565b60007f000000000000000000000000000000000000000000000000000000000000000073ffffffffffffffffffffffffffffffffffffffff16634dd9c9c7836040518263ffffffff1660e01b815260040161094d9190614327565b61012060405180830381865afa15801561096b573d6000803e3d6000fd5b505050506040513d601f19601f8201168201806040525081019061098f9190614a9f565b60e00151600260008481526020019081526020016000205410159050919050565b606060018054806020026020016040519081016040528092919081815260200182805480156109fe57602002820191906000526020600020905b8154815260200190600101908083116109ea575b5050505050905090565b600060026000838152602001908152602001600020547f000000000000000000000000000000000000000000000000000000000000000073ffffffffffffffffffffffffffffffffffffffff16634dd9c9c7846040518263ffffffff1660e01b8152600401610a779190614327565b61012060405180830381865afa158015610a95573d6000803e3d6000fd5b505050506040513d601f19601f82011682018060405250810190610ab99190614a9f565b60000151610ac79190614afc565b9050919050565b6000670de0b6b3a76400007f000000000000000000000000000000000000000000000000000000000000000073ffffffffffffffffffffffffffffffffffffffff16634dd9c9c7846040518263ffffffff1660e01b8152600401610b329190614327565b61012060405180830381865afa158015610b50573d6000803e3d6000fd5b505050506040513d601f19601f82011682018060405250810190610b749190614a9f565b60c00151670de0b6b3a7640000610b8a85613b0c565b610b949190614afc565b610b9e9190614b6d565b610ba89190614b6d565b9050919050565b600060116000838152602001908152602001600020549050919050565b60006008600083815260200190815260200160002060009054906101000a900460ff169050919050565b60007f000000000000000000000000000000000000000000000000000000000000000073ffffffffffffffffffffffffffffffffffffffff16638f0dbf77836040518263ffffffff1660e01b8152600401610c519190614327565b602060405180830381865afa158015610c6e573d6000803e3d6000fd5b505050506040513d601f19601f82011682018060405250810190610c929190614bca565b8015610cb95750610ca282611d2e565b600460008481526020019081526020016000205410155b9050919050565b60007f000000000000000000000000000000000000000000000000000000000000000073ffffffffffffffffffffffffffffffffffffffff166382afd23b836040518263ffffffff1660e01b8152600401610d1b9190614327565b602060405180830381865afa158015610d38573d6000803e3d6000fd5b505050506040513d601f19601f82011682018060405250810190610d5c9190614bca565b158015610d6f5750610d6d826108f2565b155b9050919050565b7f000000000000000000000000000000000000000000000000000000000000000073ffffffffffffffffffffffffffffffffffffffff163373ffffffffffffffffffffffffffffffffffffffff1614610e04576040517f08c379a0000000000000000000000000000000000000000000000000000000008152600401610dfb90614c54565b60405180910390fd5b7f000000000000000000000000000000000000000000000000000000000000000073ffffffffffffffffffffffffffffffffffffffff166382afd23b836040518263ffffffff1660e01b8152600401610e5d9190614327565b602060405180830381865afa158015610e7a573d6000803e3d6000fd5b505050506040513d601f19601f82011682018060405250810190610e9e9190614bca565b158015610eb15750610eaf82610cc0565b155b8015610ec35750610ec182611e10565b155b8015610ee55750610ed382610bcc565b80610ee35750610ee28261146c565b5b155b610f24576040517f08c379a0000000000000000000000000000000000000000000000000000000008152600401610f1b90614cc0565b60405180910390fd5b60106000838152602001908152602001600020546004600084815260200190815260200160002054610f569190614ce0565b811115610f98576040517f08c379a0000000000000000000000000000000000000000000000000000000008152600401610f8f90614d60565b60405180910390fd5b80600460008481526020019081526020016000206000828254610fbb9190614ce0565b925050819055507f000000000000000000000000000000000000000000000000000000000000000073ffffffffffffffffffffffffffffffffffffffff1663bcae6824827f00000000000000000000000000000000000000000000000000000000000000006040518363ffffffff1660e01b815260040161103d929190614d80565b600060405180830381600087803b15801561105757600080fd5b505af115801561106b573d6000803e3d6000fd5b505050507f000000000000000000000000000000000000000000000000000000000000000073ffffffffffffffffffffffffffffffffffffffff1663a9059cbb33836040518363ffffffff1660e01b81526004016110ca929190614da9565b6020604051808303816000875af11580156110e9573d6000803e3d6000fd5b505050506040513d601f19601f8201168201806040525081019061110d9190614bca565b505050565b600060026000838152602001908152602001600020546003600084815260200190815260200160002054149050919050565b7f000000000000000000000000000000000000000000000000000000000000000073ffffffffffffffffffffffffffffffffffffffff163373ffffffffffffffffffffffffffffffffffffffff16146111d2576040517f08c379a00000000000000000000000000000000000000000000000000000000081526004016111c990614c54565b60405180910390fd5b6111db81611e10565b1580156111ee57506111ec81610bcc565b155b801561121457506111fe81611d2e565b6004600083815260200190815260200160002054105b611253576040517f08c379a000000000000000000000000000000000000000000000000000000000815260040161124a90614e1e565b60405180910390fd5b60006004600083815260200190815260200160002054905060026000838152602001908152602001600020548161128a9190614b6d565b600560008481526020019081526020016000208190555060016008600084815260200190815260200160002060006101000a81548160ff0219169083151502179055507f000000000000000000000000000000000000000000000000000000000000000073ffffffffffffffffffffffffffffffffffffffff1663dae382d67f00000000000000000000000000000000000000000000000000000000000000006040518263ffffffff1660e01b815260040161134691906144a3565b600060405180830381600087803b15801561136057600080fd5b505af1158015611374573d6000803e3d6000fd5b505050507f000000000000000000000000000000000000000000000000000000000000000073ffffffffffffffffffffffffffffffffffffffff1663d050a7c87f000000000000000000000000000000000000000000000000000000000000000060016040518363ffffffff1660e01b81526004016113f4929190614da9565b600060405180830381600087803b15801561140e57600080fd5b505af1158015611422573d6000803e3d6000fd5b50505050817fc4f17a65d54873d57229ea5f59c4ddec592d095bc17581372676402c8228b9cd61145184611d2e565b83604051611460929190614e3e565b60405180910390a25050565b6000807f000000000000000000000000000000000000000000000000000000000000000073ffffffffffffffffffffffffffffffffffffffff16638f0dbf77846040518263ffffffff1660e01b81526004016114c89190614327565b602060405180830381865afa1580156114e5573d6000803e3d6000fd5b505050506040513d601f19601f820116820180604052508101906115099190614bca565b801561152f575061151983611d2e565b6004600085815260200190815260200160002054105b905060007f000000000000000000000000000000000000000000000000000000000000000073ffffffffffffffffffffffffffffffffffffffff16638f0dbf77856040518263ffffffff1660e01b815260040161158c9190614327565b602060405180830381865afa1580156115a9573d6000803e3d6000fd5b505050506040513d601f19601f820116820180604052508101906115cd9190614bca565b15801561161257506201518060b4600160116000888152602001908152602001600020546115fb9190614e67565b6116059190614afc565b61160f9190614afc565b42115b9050818061161d5750805b92505050919050565b7f000000000000000000000000000000000000000000000000000000000000000073ffffffffffffffffffffffffffffffffffffffff166382afd23b836040518263ffffffff1660e01b815260040161167f9190614327565b602060405180830381865afa15801561169c573d6000803e3d6000fd5b505050506040513d601f19601f820116820180604052508101906116c09190614bca565b6116ff576040517f08c379a00000000000000000000000000000000000000000000000000000000081526004016116f690614ee7565b60405180910390fd5b8061170983612345565b101561174a576040517f08c379a000000000000000000000000000000000000000000000000000000000815260040161174190614f53565b60405180910390fd5b60007f000000000000000000000000000000000000000000000000000000000000000073ffffffffffffffffffffffffffffffffffffffff16634dd9c9c7846040518263ffffffff1660e01b81526004016117a59190614327565b61012060405180830381865afa1580156117c3573d6000803e3d6000fd5b505050506040513d601f19601f820116820180604052508101906117e79190614a9f565b60000151826117f69190614afc565b90508160026000858152602001908152602001600020600082825461181b9190614e67565b92505081905550806004600085815260200190815260200160002060008282546118459190614e67565b925050819055507f000000000000000000000000000000000000000000000000000000000000000073ffffffffffffffffffffffffffffffffffffffff166383883fe3827f00000000000000000000000000000000000000000000000000000000000000006040518363ffffffff1660e01b81526004016118c7929190614d80565b600060405180830381600087803b1580156118e157600080fd5b505af11580156118f5573d6000803e3d6000fd5b505050507f000000000000000000000000000000000000000000000000000000000000000073ffffffffffffffffffffffffffffffffffffffff1663576ff163827f00000000000000000000000000000000000000000000000000000000000000006040518363ffffffff1660e01b8152600401611974929190614d80565b600060405180830381600087803b15801561198e57600080fd5b505af11580156119a2573d6000803e3d6000fd5b505050507f000000000000000000000000000000000000000000000000000000000000000073ffffffffffffffffffffffffffffffffffffffff1663b8c2e4f3827f00000000000000000000000000000000000000000000000000000000000000007f00000000000000000000000000000000000000000000000000000000000000006040518463ffffffff1660e01b8152600401611a4393929190614f73565b600060405180830381600087803b158015611a5d57600080fd5b505af1158015611a71573d6000803e3d6000fd5b505050507f000000000000000000000000000000000000000000000000000000000000000073ffffffffffffffffffffffffffffffffffffffff16637db79a3d827f00000000000000000000000000000000000000000000000000000000000000007f000000000000000000000000000000000000000000000000000000000000000060016040518563ffffffff1660e01b8152600401611b159493929190614faa565b600060405180830381600087803b158015611b2f57600080fd5b505af1158015611b43573d6000803e3d6000fd5b505050507f000000000000000000000000000000000000000000000000000000000000000073ffffffffffffffffffffffffffffffffffffffff1663b0b4dfaa827f000000000000000000000000000000000000000000000000000000000000000060016040518463ffffffff1660e01b8152600401611bc593929190614fef565b600060405180830381600087803b158015611bdf57600080fd5b505af1158015611bf3573d6000803e3d6000fd5b505050507f000000000000000000000000000000000000000000000000000000000000000073ffffffffffffffffffffffffffffffffffffffff1663f242432a303386866040518563ffffffff1660e01b8152600401611c56949392919061505d565b600060405180830381600087803b158015611c7057600080fd5b505af1158015611c84573d6000803e3d6000fd5b505050507f000000000000000000000000000000000000000000000000000000000000000073ffffffffffffffffffffffffffffffffffffffff166323b872dd3330846040518463ffffffff1660e01b8152600401611ce5939291906150b5565b6020604051808303816000875af1158015611d04573d6000803e3d6000fd5b505050506040513d601f19601f82011682018060405250810190611d289190614bca565b50505050565b6000670de0b6b3a76400007f000000000000000000000000000000000000000000000000000000000000000073ffffffffffffffffffffffffffffffffffffffff16634dd9c9c7846040518263ffffffff1660e01b8152600401611d929190614327565b61012060405180830381865afa158015611db0573d6000803e3d6000fd5b505050506040513d601f19601f82011682018060405250810190611dd49190614a9f565b6101000151611de284610a08565b611dec9190614afc565b611df69190614b6d565b611dff83610a08565b611e099190614e67565b9050919050565b60006009600083815260200190815260200160002060009054906101000a900460ff169050919050565b807f000000000000000000000000000000000000000000000000000000000000000073ffffffffffffffffffffffffffffffffffffffff1662fdd58e33856040518363ffffffff1660e01b8152600401611e95929190614da9565b602060405180830381865afa158015611eb2573d6000803e3d6000fd5b505050506040513d601f19601f82011682018060405250810190611ed691906150ec565b1015611f17576040517f08c379a0000000000000000000000000000000000000000000000000000000008152600401611f0e90614f53565b60405180910390fd5b611f2082611e10565b80611f305750611f2f82610cc0565b5b80611f405750611f3f82610bcc565b5b611f7f576040517f08c379a0000000000000000000000000000000000000000000000000000000008152600401611f7690615165565b60405180910390fd5b600080611f8b84611e10565b15611faf57600660008581526020019081526020016000205491506000905061209b565b611fb884610cc0565b15612067577f000000000000000000000000000000000000000000000000000000000000000073ffffffffffffffffffffffffffffffffffffffff16634dd9c9c7856040518263ffffffff1660e01b81526004016120169190614327565b61012060405180830381865afa158015612034573d6000803e3d6000fd5b505050506040513d601f19601f820116820180604052508101906120589190614a9f565b6000015191506001905061209a565b61207084610bcc565b15612094576005600085815260200190815260200160002054915060029050612099565b600080fd5b5b5b7f000000000000000000000000000000000000000000000000000000000000000073ffffffffffffffffffffffffffffffffffffffff1663f5298aca3386866040518463ffffffff1660e01b81526004016120f893929190615185565b600060405180830381600087803b15801561211257600080fd5b505af1158015612126573d6000803e3d6000fd5b505050508260036000868152602001908152602001600020600082825461214d9190614e67565b92505081905550600082846121629190614afc565b9050806004600087815260200190815260200160002060008282546121879190614ce0565b925050819055507f000000000000000000000000000000000000000000000000000000000000000073ffffffffffffffffffffffffffffffffffffffff1663bcae6824827f00000000000000000000000000000000000000000000000000000000000000006040518363ffffffff1660e01b8152600401612209929190614d80565b600060405180830381600087803b15801561222357600080fd5b505af1158015612237573d6000803e3d6000fd5b505050507f000000000000000000000000000000000000000000000000000000000000000073ffffffffffffffffffffffffffffffffffffffff1663a9059cbb33836040518363ffffffff1660e01b8152600401612296929190614da9565b6020604051808303816000875af11580156122b5573d6000803e3d6000fd5b505050506040513d601f19601f820116820180604052508101906122d99190614bca565b50847fa5851b0172fdafd3dafe0e52ce051747548a4c642a2f22793c01faf228e1306233868560405161230e93929190615185565b60405180910390a25050505050565b60007f0000000000000000000000000000000000000000000000000000000000000000905090565b600060026000838152602001908152602001600020547f000000000000000000000000000000000000000000000000000000000000000073ffffffffffffffffffffffffffffffffffffffff16634dd9c9c7846040518263ffffffff1660e01b81526004016123b49190614327565b61012060405180830381865afa1580156123d2573d6000803e3d6000fd5b505050506040513d601f19601f820116820180604052508101906123f69190614a9f565b60c001516124049190614ce0565b9050919050565b61241481611e10565b158015612427575061242581610bcc565b155b801561243857506124378161146c565b5b612477576040517f08c379a000000000000000000000000000000000000000000000000000000000815260040161246e90615208565b60405180910390fd5b60006103e8600460008481526020019081526020016000205461249a9190614b6d565b905060008160046000858152602001908152602001600020546124bd9190614ce0565b90506002600084815260200190815260200160002054816124de9190614b6d565b6005600085815260200190815260200160002081905550816004600085815260200190815260200160002060008282546125189190614ce0565b9250508190555060016008600085815260200190815260200160002060006101000a81548160ff0219169083151502179055507f000000000000000000000000000000000000000000000000000000000000000073ffffffffffffffffffffffffffffffffffffffff1663dae382d67f00000000000000000000000000000000000000000000000000000000000000006040518263ffffffff1660e01b81526004016125c491906144a3565b600060405180830381600087803b1580156125de57600080fd5b505af11580156125f2573d6000803e3d6000fd5b505050507f000000000000000000000000000000000000000000000000000000000000000073ffffffffffffffffffffffffffffffffffffffff1663d050a7c87f000000000000000000000000000000000000000000000000000000000000000060016040518363ffffffff1660e01b8152600401612672929190614da9565b600060405180830381600087803b15801561268c57600080fd5b505af11580156126a0573d6000803e3d6000fd5b505050507f000000000000000000000000000000000000000000000000000000000000000073ffffffffffffffffffffffffffffffffffffffff1663bcae6824837f00000000000000000000000000000000000000000000000000000000000000006040518363ffffffff1660e01b815260040161271f929190614d80565b600060405180830381600087803b15801561273957600080fd5b505af115801561274d573d6000803e3d6000fd5b505050507f000000000000000000000000000000000000000000000000000000000000000073ffffffffffffffffffffffffffffffffffffffff1663a9059cbb33846040518363ffffffff1660e01b81526004016127ac929190614da9565b6020604051808303816000875af11580156127cb573d6000803e3d6000fd5b505050506040513d601f19601f820116820180604052508101906127ef9190614bca565b50827fc4f17a65d54873d57229ea5f59c4ddec592d095bc17581372676402c8228b9cd61281b85611d2e565b8360405161282a929190614e3e565b60405180910390a2505050565b6000816000811015801561284c575060028111155b61288b576040517f08c379a000000000000000000000000000000000000000000000000000000000815260040161288290615274565b60405180910390fd5b600060b4600261289b9190614afc565b9050600084036128ba578060036128b29190614afc565b9250506128e8565b600184036128d7578060056128cf9190614afc565b9250506128e8565b80600a6128e49190614afc565b9250505b50919050565b7f000000000000000000000000000000000000000000000000000000000000000073ffffffffffffffffffffffffffffffffffffffff163373ffffffffffffffffffffffffffffffffffffffff161461297c576040517f08c379a000000000000000000000000000000000000000000000000000000000815260040161297390614c54565b60405180910390fd5b61298582610bcc565b8061299557506129948261146c565b5b156129d5576040517f08c379a00000000000000000000000000000000000000000000000000000000081526004016129cc90614cc0565b60405180910390fd5b7f000000000000000000000000000000000000000000000000000000000000000073ffffffffffffffffffffffffffffffffffffffff16634dd9c9c7836040518263ffffffff1660e01b8152600401612a2e9190614327565b61012060405180830381865afa158015612a4c573d6000803e3d6000fd5b505050506040513d601f19601f82011682018060405250810190612a709190614a9f565b60a0015160b460016011600086815260200190815260200160002054612a969190614e67565b612aa09190614afc565b03612ae0576040517f08c379a0000000000000000000000000000000000000000000000000000000008152600401612ad7906152e0565b60405180910390fd5b600f6000838152602001908152602001600020601160008481526020019081526020016000205481548110612b1857612b17615300565b5b9060005260206000200154811015612b65576040517f08c379a0000000000000000000000000000000000000000000000000000000008152600401612b5c9061537b565b60405180910390fd5b66b1a2bc2ec50000600f6000848152602001908152602001600020601160008581526020019081526020016000205481548110612ba557612ba4615300565b5b9060005260206000200154670de0b6b3a7640000600f6000868152602001908152602001600020601160008781526020019081526020016000205481548110612bf157612bf0615300565b5b906000526020600020015484612c079190614ce0565b612c119190614afc565b612c1b9190614b6d565b1115612c5c576040517f08c379a0000000000000000000000000000000000000000000000000000000008152600401612c53906153e7565b60405180910390fd5b60007f000000000000000000000000000000000000000000000000000000000000000073ffffffffffffffffffffffffffffffffffffffff16634dd9c9c7846040518263ffffffff1660e01b8152600401612cb79190614327565b61012060405180830381865afa158015612cd5573d6000803e3d6000fd5b505050506040513d601f19601f82011682018060405250810190612cf99190614a9f565b60c0015182612d089190614afc565b905080601060008581526020019081526020016000206000828254612d2d9190614e67565b925050819055506201518060b4612d449190614afc565b600e600085815260200190815260200160002054612d629190614e67565b600e6000858152602001908152602001600020819055506001601160008581526020019081526020016000206000828254612d9d9190614e67565b925050819055507f000000000000000000000000000000000000000000000000000000000000000073ffffffffffffffffffffffffffffffffffffffff166383883fe3827f00000000000000000000000000000000000000000000000000000000000000006040518363ffffffff1660e01b8152600401612e1f929190614d80565b600060405180830381600087803b158015612e3957600080fd5b505af1158015612e4d573d6000803e3d6000fd5b505050507f000000000000000000000000000000000000000000000000000000000000000073ffffffffffffffffffffffffffffffffffffffff166323b872dd3330846040518463ffffffff1660e01b8152600401612eae939291906150b5565b6020604051808303816000875af1158015612ecd573d6000803e3d6000fd5b505050506040513d601f19601f82011682018060405250810190612ef19190614bca565b50505050565b60006007600083815260200190815260200160002060009054906101000a900460ff169050919050565b600063bc197c8160e01b905095945050505050565b6060600f6000838152602001908152602001600020805480602002602001604051908101604052809291908181526020018280548015612f9557602002820191906000526020600020905b815481526020019060010190808311612f81575b50505050509050919050565b612faa81610bcc565b158015612fbd5750612fbb81611e10565b155b8015612fce5750612fcd81610bf6565b5b61300d576040517f08c379a000000000000000000000000000000000000000000000000000000000815260040161300490615453565b60405180910390fd5b600061301882611d2e565b905060006103e88261302a9190614b6d565b90506000818361303a9190614ce0565b905060026000858152602001908152602001600020548161305b9190614b6d565b6006600086815260200190815260200160002081905550816004600086815260200190815260200160002060008282546130959190614ce0565b9250508190555060016009600086815260200190815260200160002060006101000a81548160ff0219169083151502179055507f000000000000000000000000000000000000000000000000000000000000000073ffffffffffffffffffffffffffffffffffffffff1663bcae6824837f00000000000000000000000000000000000000000000000000000000000000006040518363ffffffff1660e01b8152600401613143929190614d80565b600060405180830381600087803b15801561315d57600080fd5b505af1158015613171573d6000803e3d6000fd5b505050507f000000000000000000000000000000000000000000000000000000000000000073ffffffffffffffffffffffffffffffffffffffff1663a9059cbb33846040518363ffffffff1660e01b81526004016131d0929190614da9565b6020604051808303816000875af11580156131ef573d6000803e3d6000fd5b505050506040513d601f19601f820116820180604052508101906132139190614bca565b50837fac2eeaf45d1b75aed6b3285cda3efb3c382cce02ba313558bbb90be57f8843e48483604051613246929190614e3e565b60405180910390a250505050565b60608160008110158015613269575060028111155b6132a8576040517f08c379a000000000000000000000000000000000000000000000000000000000815260040161329f90615274565b60405180910390fd5b60006132b38461363f565b905060008151905060008167ffffffffffffffff8111156132d7576132d6614500565b5b6040519080825280602002602001820160405280156133055781602001602082028036833780820191505090505b50905060005b8281101561337757606484828151811061332857613327615300565b5b60200260200101518961333b9190614afc565b6133459190614b6d565b82828151811061335857613357615300565b5b602002602001018181525050808061336f90615473565b91505061330b565b508094505050505092915050565b6000600e6000838152602001908152602001600020549050919050565b60007f0000000000000000000000000000000000000000000000000000000000000000905090565b7f000000000000000000000000000000000000000000000000000000000000000073ffffffffffffffffffffffffffffffffffffffff163373ffffffffffffffffffffffffffffffffffffffff1614613458576040517f08c379a000000000000000000000000000000000000000000000000000000000815260040161344f90614c54565b60405180910390fd5b61346182610bcc565b8061347157506134708261146c565b5b158015613484575061348282611e10565b155b6134c3576040517f08c379a00000000000000000000000000000000000000000000000000000000081526004016134ba90615507565b60405180910390fd5b806004600084815260200190815260200160002060008282546134e69190614e67565b925050819055507f000000000000000000000000000000000000000000000000000000000000000073ffffffffffffffffffffffffffffffffffffffff166383883fe3827f00000000000000000000000000000000000000000000000000000000000000006040518363ffffffff1660e01b8152600401613568929190614d80565b600060405180830381600087803b15801561358257600080fd5b505af1158015613596573d6000803e3d6000fd5b505050507f000000000000000000000000000000000000000000000000000000000000000073ffffffffffffffffffffffffffffffffffffffff166323b872dd3330846040518463ffffffff1660e01b81526004016135f7939291906150b5565b6020604051808303816000875af1158015613616573d6000803e3d6000fd5b505050506040513d601f19601f8201168201806040525081019061363a9190614bca565b505050565b60608160008110158015613654575060028111155b613693576040517f08c379a000000000000000000000000000000000000000000000000000000000815260040161368a90615274565b60405180910390fd5b600083036136f357600b8054806020026020016040519081016040528092919081815260200182805480156136e757602002820191906000526020600020905b8154815260200190600101908083116136d3575b505050505091506137a7565b6001830361375357600c80548060200260200160405190810160405280929190818152602001828054801561374757602002820191906000526020600020905b815481526020019060010190808311613733575b505050505091506137a7565b600d80548060200260200160405190810160405280929190818152602001828054801561379f57602002820191906000526020600020905b81548152602001906001019080831161378b575b505050505091505b50919050565b60007f000000000000000000000000000000000000000000000000000000000000000073ffffffffffffffffffffffffffffffffffffffff166370a08231306040518263ffffffff1660e01b815260040161380891906144a3565b602060405180830381865afa158015613825573d6000803e3d6000fd5b505050506040513d601f19601f8201168201806040525081019061384991906150ec565b905090565b7f000000000000000000000000000000000000000000000000000000000000000073ffffffffffffffffffffffffffffffffffffffff163373ffffffffffffffffffffffffffffffffffffffff16146138dc576040517f08c379a00000000000000000000000000000000000000000000000000000000081526004016138d390614c54565b60405180910390fd5b6138e581611e10565b80156138f657506138f581611112565b5b613935576040517f08c379a000000000000000000000000000000000000000000000000000000000815260040161392c90614cc0565b60405180910390fd5b600060046000838152602001908152602001600020541161398b576040517f08c379a000000000000000000000000000000000000000000000000000000000815260040161398290615573565b60405180910390fd5b600060046000838152602001908152602001600020549050600060046000848152602001908152602001600020819055507f000000000000000000000000000000000000000000000000000000000000000073ffffffffffffffffffffffffffffffffffffffff1663bcae6824827f00000000000000000000000000000000000000000000000000000000000000006040518363ffffffff1660e01b8152600401613a37929190614d80565b600060405180830381600087803b158015613a5157600080fd5b505af1158015613a65573d6000803e3d6000fd5b505050507f000000000000000000000000000000000000000000000000000000000000000073ffffffffffffffffffffffffffffffffffffffff1663a9059cbb33836040518363ffffffff1660e01b8152600401613ac4929190614da9565b6020604051808303816000875af1158015613ae3573d6000803e3d6000fd5b505050506040513d601f19601f82011682018060405250810190613b079190614bca565b505050565b600060106000838152602001908152602001600020549050919050565b600060046000838152602001908152602001600020549050919050565b600063f23a6e6160e01b905095945050505050565b60007f000000000000000000000000000000000000000000000000000000000000000073ffffffffffffffffffffffffffffffffffffffff163373ffffffffffffffffffffffffffffffffffffffff1614613beb576040517f08c379a0000000000000000000000000000000000000000000000000000000008152600401613be290614c54565b60405180910390fd5b8360008110158015613bfe575060028111155b613c3d576040517f08c379a0000000000000000000000000000000000000000000000000000000008152600401613c3490615274565b60405180910390fd5b898910613c7f576040517f08c379a0000000000000000000000000000000000000000000000000000000008152600401613c76906155df565b60405180910390fd5b6007841115613cc3576040517f08c379a0000000000000000000000000000000000000000000000000000000008152600401613cba9061564b565b60405180910390fd5b6000613cce86612837565b9050613cda600a614166565b600060405180606001604052808a8a8080601f016020809104026020016040519081016040528093929190818152602001838380828437600081840152601f19601f8201169050808301925050505050505081526020017f000000000000000000000000000000000000000000000000000000000000000073ffffffffffffffffffffffffffffffffffffffff1681526020013373ffffffffffffffffffffffffffffffffffffffff16815250905060006040518061012001604052808c81526020014281526020016201518085613db29190614afc565b42613dbd9190614e67565b81526020016201518089613dd19190614afc565b42613ddc9190614e67565b81526020018881526020018481526020018e81526020018d81526020018781525090507f000000000000000000000000000000000000000000000000000000000000000073ffffffffffffffffffffffffffffffffffffffff16634196afd4308f84866040518563ffffffff1660e01b8152600401613e5e9493929190615800565b6020604051808303816000875af1158015613e7d573d6000803e3d6000fd5b505050506040513d601f19601f82011682018060405250810190613ea191906150ec565b9450600185908060018154018082558091505060019003906000526020600020016000909190919091505560016007600087815260200190815260200160002060006101000a81548160ff0219169083151502179055506201518060b4613f089190614afc565b42613f139190614e67565b600e600087815260200190815260200160002081905550613f348b89613254565b600f60008781526020019081526020016000209080519060200190613f5a92919061417c565b507f000000000000000000000000000000000000000000000000000000000000000073ffffffffffffffffffffffffffffffffffffffff1663b54cb16560036040518263ffffffff1660e01b8152600401613fb59190614327565b600060405180830381600087803b158015613fcf57600080fd5b505af1158015613fe3573d6000803e3d6000fd5b505050507f000000000000000000000000000000000000000000000000000000000000000073ffffffffffffffffffffffffffffffffffffffff1663bea75cf47f000000000000000000000000000000000000000000000000000000000000000060036040518363ffffffff1660e01b8152600401614063929190614da9565b600060405180830381600087803b15801561407d57600080fd5b505af1158015614091573d6000803e3d6000fd5b50505050847ff73e436c94925e1e8b2f0b16de0a2c56aea7fb27878f7815811bc05bc6c335e88e8d8962015180886140c99190614afc565b426140d49190614e67565b6040516140e4949392919061584e565b60405180910390a25050505098975050505050505050565b60007f01ffc9a7000000000000000000000000000000000000000000000000000000007bffffffffffffffffffffffffffffffffffffffffffffffffffffffff1916827bffffffffffffffffffffffffffffffffffffffffffffffffffffffff1916149050919050565b6001816000016000828254019250508190555050565b8280548282559060005260206000209081019282156141b8579160200282015b828111156141b757825182559160200191906001019061419c565b5b5090506141c591906141c9565b5090565b5b808211156141e25760008160009055506001016141ca565b5090565b6000604051905090565b600080fd5b600080fd5b60007fffffffff0000000000000000000000000000000000000000000000000000000082169050919050565b61422f816141fa565b811461423a57600080fd5b50565b60008135905061424c81614226565b92915050565b600060208284031215614268576142676141f0565b5b60006142768482850161423d565b91505092915050565b60008115159050919050565b6142948161427f565b82525050565b60006020820190506142af600083018461428b565b92915050565b6000819050919050565b6142c8816142b5565b81146142d357600080fd5b50565b6000813590506142e5816142bf565b92915050565b600060208284031215614301576143006141f0565b5b600061430f848285016142d6565b91505092915050565b614321816142b5565b82525050565b600060208201905061433c6000830184614318565b92915050565b600081519050919050565b600082825260208201905092915050565b6000819050602082019050919050565b614377816142b5565b82525050565b6000614389838361436e565b60208301905092915050565b6000602082019050919050565b60006143ad82614342565b6143b7818561434d565b93506143c28361435e565b8060005b838110156143f35781516143da888261437d565b97506143e583614395565b9250506001810190506143c6565b5085935050505092915050565b6000602082019050818103600083015261441a81846143a2565b905092915050565b60008060408385031215614439576144386141f0565b5b6000614447858286016142d6565b9250506020614458858286016142d6565b9150509250929050565b600073ffffffffffffffffffffffffffffffffffffffff82169050919050565b600061448d82614462565b9050919050565b61449d81614482565b82525050565b60006020820190506144b86000830184614494565b92915050565b6144c781614482565b81146144d257600080fd5b50565b6000813590506144e4816144be565b92915050565b600080fd5b6000601f19601f8301169050919050565b7f4e487b7100000000000000000000000000000000000000000000000000000000600052604160045260246000fd5b614538826144ef565b810181811067ffffffffffffffff8211171561455757614556614500565b5b80604052505050565b600061456a6141e6565b9050614576828261452f565b919050565b600067ffffffffffffffff82111561459657614595614500565b5b602082029050602081019050919050565b600080fd5b60006145bf6145ba8461457b565b614560565b905080838252602082019050602084028301858111156145e2576145e16145a7565b5b835b8181101561460b57806145f788826142d6565b8452602084019350506020810190506145e4565b5050509392505050565b600082601f83011261462a576146296144ea565b5b813561463a8482602086016145ac565b91505092915050565b600080fd5b600067ffffffffffffffff82111561466357614662614500565b5b61466c826144ef565b9050602081019050919050565b82818337600083830152505050565b600061469b61469684614648565b614560565b9050828152602081018484840111156146b7576146b6614643565b5b6146c2848285614679565b509392505050565b600082601f8301126146df576146de6144ea565b5b81356146ef848260208601614688565b91505092915050565b600080600080600060a08688031215614714576147136141f0565b5b6000614722888289016144d5565b9550506020614733888289016144d5565b945050604086013567ffffffffffffffff811115614754576147536141f5565b5b61476088828901614615565b935050606086013567ffffffffffffffff811115614781576147806141f5565b5b61478d88828901614615565b925050608086013567ffffffffffffffff8111156147ae576147ad6141f5565b5b6147ba888289016146ca565b9150509295509295909350565b6147d0816141fa565b82525050565b60006020820190506147eb60008301846147c7565b92915050565b600080600080600060a0868803121561480d5761480c6141f0565b5b600061481b888289016144d5565b955050602061482c888289016144d5565b945050604061483d888289016142d6565b935050606061484e888289016142d6565b925050608086013567ffffffffffffffff81111561486f5761486e6141f5565b5b61487b888289016146ca565b9150509295509295909350565b600080fd5b60008083601f8401126148a3576148a26144ea565b5b8235905067ffffffffffffffff8111156148c0576148bf614888565b5b6020830191508360018202830111156148dc576148db6145a7565b5b9250929050565b60008060008060008060008060e0898b031215614903576149026141f0565b5b60006149118b828c016142d6565b98505060206149228b828c016142d6565b97505060406149338b828c016142d6565b965050606089013567ffffffffffffffff811115614954576149536141f5565b5b6149608b828c0161488d565b955095505060806149738b828c016142d6565b93505060a06149848b828c016142d6565b92505060c06149958b828c016142d6565b9150509295985092959890939650565b600080fd5b6000815190506149b9816142bf565b92915050565b600061012082840312156149d6576149d56149a5565b5b6149e1610120614560565b905060006149f1848285016149aa565b6000830152506020614a05848285016149aa565b6020830152506040614a19848285016149aa565b6040830152506060614a2d848285016149aa565b6060830152506080614a41848285016149aa565b60808301525060a0614a55848285016149aa565b60a08301525060c0614a69848285016149aa565b60c08301525060e0614a7d848285016149aa565b60e083015250610100614a92848285016149aa565b6101008301525092915050565b60006101208284031215614ab657614ab56141f0565b5b6000614ac4848285016149bf565b91505092915050565b7f4e487b7100000000000000000000000000000000000000000000000000000000600052601160045260246000fd5b6000614b07826142b5565b9150614b12836142b5565b9250828202614b20816142b5565b91508282048414831517614b3757614b36614acd565b5b5092915050565b7f4e487b7100000000000000000000000000000000000000000000000000000000600052601260045260246000fd5b6000614b78826142b5565b9150614b83836142b5565b925082614b9357614b92614b3e565b5b828204905092915050565b614ba78161427f565b8114614bb257600080fd5b50565b600081519050614bc481614b9e565b92915050565b600060208284031215614be057614bdf6141f0565b5b6000614bee84828501614bb5565b91505092915050565b600082825260208201905092915050565b7f4e544f0000000000000000000000000000000000000000000000000000000000600082015250565b6000614c3e600383614bf7565b9150614c4982614c08565b602082019050919050565b60006020820190508181036000830152614c6d81614c31565b9050919050565b7f574e410000000000000000000000000000000000000000000000000000000000600082015250565b6000614caa600383614bf7565b9150614cb582614c74565b602082019050919050565b60006020820190508181036000830152614cd981614c9d565b9050919050565b6000614ceb826142b5565b9150614cf6836142b5565b9250828203905081811115614d0e57614d0d614acd565b5b92915050565b7f5741450000000000000000000000000000000000000000000000000000000000600082015250565b6000614d4a600383614bf7565b9150614d5582614d14565b602082019050919050565b60006020820190508181036000830152614d7981614d3d565b9050919050565b6000604082019050614d956000830185614318565b614da26020830184614494565b9392505050565b6000604082019050614dbe6000830185614494565b614dcb6020830184614318565b9392505050565b7f504d444e41000000000000000000000000000000000000000000000000000000600082015250565b6000614e08600583614bf7565b9150614e1382614dd2565b602082019050919050565b60006020820190508181036000830152614e3781614dfb565b9050919050565b6000604082019050614e536000830185614318565b614e606020830184614318565b9392505050565b6000614e72826142b5565b9150614e7d836142b5565b9250828201905080821115614e9557614e94614acd565b5b92915050565b7f4942000000000000000000000000000000000000000000000000000000000000600082015250565b6000614ed1600283614bf7565b9150614edc82614e9b565b602082019050919050565b60006020820190508181036000830152614f0081614ec4565b9050919050565b7f4951000000000000000000000000000000000000000000000000000000000000600082015250565b6000614f3d600283614bf7565b9150614f4882614f07565b602082019050919050565b60006020820190508181036000830152614f6c81614f30565b9050919050565b6000606082019050614f886000830186614318565b614f956020830185614494565b614fa26040830184614494565b949350505050565b6000608082019050614fbf6000830187614318565b614fcc6020830186614494565b614fd96040830185614494565b614fe66060830184614318565b95945050505050565b60006060820190506150046000830186614318565b6150116020830185614494565b61501e6040830184614318565b949350505050565b600082825260208201905092915050565b50565b6000615047600083615026565b915061505282615037565b600082019050919050565b600060a0820190506150726000830187614494565b61507f6020830186614494565b61508c6040830185614318565b6150996060830184614318565b81810360808301526150aa8161503a565b905095945050505050565b60006060820190506150ca6000830186614494565b6150d76020830185614494565b6150e46040830184614318565b949350505050565b600060208284031215615102576151016141f0565b5b6000615110848285016149aa565b91505092915050565b7f524e410000000000000000000000000000000000000000000000000000000000600082015250565b600061514f600383614bf7565b915061515a82615119565b602082019050919050565b6000602082019050818103600083015261517e81615142565b9050919050565b600060608201905061519a6000830186614494565b6151a76020830185614318565b6151b46040830184614318565b949350505050565b7f4d41444e41000000000000000000000000000000000000000000000000000000600082015250565b60006151f2600583614bf7565b91506151fd826151bc565b602082019050919050565b60006020820190508181036000830152615221816151e5565b9050919050565b7f49594f0000000000000000000000000000000000000000000000000000000000600082015250565b600061525e600383614bf7565b915061526982615228565b602082019050919050565b6000602082019050818103600083015261528d81615251565b9050919050565b7f4f41460000000000000000000000000000000000000000000000000000000000600082015250565b60006152ca600383614bf7565b91506152d582615294565b602082019050919050565b600060208201905081810360008301526152f9816152bd565b9050919050565b7f4e487b7100000000000000000000000000000000000000000000000000000000600052603260045260246000fd5b7f4d4f4e4600000000000000000000000000000000000000000000000000000000600082015250565b6000615365600483614bf7565b91506153708261532f565b602082019050919050565b6000602082019050818103600083015261539481615358565b9050919050565b7f454d460000000000000000000000000000000000000000000000000000000000600082015250565b60006153d1600383614bf7565b91506153dc8261539b565b602082019050919050565b60006020820190508181036000830152615400816153c4565b9050919050565b7f4d41434e41000000000000000000000000000000000000000000000000000000600082015250565b600061543d600583614bf7565b915061544882615407565b602082019050919050565b6000602082019050818103600083015261546c81615430565b9050919050565b600061547e826142b5565b91507fffffffffffffffffffffffffffffffffffffffffffffffffffffffffffffffff82036154b0576154af614acd565b5b600182019050919050565b7f444e410000000000000000000000000000000000000000000000000000000000600082015250565b60006154f1600383614bf7565b91506154fc826154bb565b602082019050919050565b60006020820190508181036000830152615520816154e4565b9050919050565b7f5746450000000000000000000000000000000000000000000000000000000000600082015250565b600061555d600383614bf7565b915061556882615527565b602082019050919050565b6000602082019050818103600083015261558c81615550565b9050919050565b7f4d50514754425100000000000000000000000000000000000000000000000000600082015250565b60006155c9600783614bf7565b91506155d482615593565b602082019050919050565b600060208201905081810360008301526155f8816155bc565b9050919050565b7f4144413744000000000000000000000000000000000000000000000000000000600082015250565b6000615635600583614bf7565b9150615640826155ff565b602082019050919050565b6000602082019050818103600083015261566481615628565b9050919050565b61012082016000820151615682600085018261436e565b506020820151615695602085018261436e565b5060408201516156a8604085018261436e565b5060608201516156bb606085018261436e565b5060808201516156ce608085018261436e565b5060a08201516156e160a085018261436e565b5060c08201516156f460c085018261436e565b5060e082015161570760e085018261436e565b5061010082015161571c61010085018261436e565b50505050565b600081519050919050565b600082825260208201905092915050565b60005b8381101561575c578082015181840152602081019050615741565b60008484015250505050565b600061577382615722565b61577d818561572d565b935061578d81856020860161573e565b615796816144ef565b840191505092915050565b6157aa81614482565b82525050565b600060608301600083015184820360008601526157cd8282615768565b91505060208301516157e260208601826157a1565b5060408301516157f560408601826157a1565b508091505092915050565b6000610180820190506158166000830187614494565b6158236020830186614318565b615830604083018561566b565b81810361016083015261584381846157b0565b905095945050505050565b60006080820190506158636000830187614318565b6158706020830186614318565b61587d6040830185614318565b61588a6060830184614318565b9594505050505056fea2646970667358221220fe6ac49910c2c396744d6cf8c2f6bbaae8e7032d0a525d30ab16b6cf64ac5d9964736f6c63430008110033",
  "linkReferences": {},
  "deployedLinkReferences": {}
}