{
  "_format": "hh-sol-artifact-1",
  "contractName": "CallableBondPeriphery",
  "sourceName": "contracts/CallableBondPeriphery.sol",
  "abi": [
    {
      "inputs": [
        {
          "internalType": "address",
          "name": "sbt",
          "type": "address"
        }
      ],
      "stateMutability": "nonpayable",
      "type": "constructor"
    },
    {
      "anonymous": false,
      "inputs": [
        {
          "indexed": true,
          "internalType": "address",
          "name": "owner",
          "type": "address"
        },
        {
          "indexed": false,
          "internalType": "address",
          "name": "token",
          "type": "address"
        }
      ],
      "name": "FactoryInitialized",
      "type": "event"
    },
    {
      "inputs": [
        {
          "internalType": "address",
          "name": "caller",
          "type": "address"
        }
      ],
      "name": "bondFactories",
      "outputs": [
        {
          "internalType": "address[]",
          "name": "",
          "type": "address[]"
        }
      ],
      "stateMutability": "view",
      "type": "function"
    },
    {
      "inputs": [
        {
          "internalType": "address",
          "name": "caller",
          "type": "address"
        },
        {
          "internalType": "address",
          "name": "token",
          "type": "address"
        }
      ],
      "name": "bondFactoryIsInitialized",
      "outputs": [
        {
          "internalType": "bool",
          "name": "",
          "type": "bool"
        }
      ],
      "stateMutability": "view",
      "type": "function"
    },
    {
      "inputs": [
        {
          "internalType": "string",
          "name": "uri",
          "type": "string"
        },
        {
          "internalType": "address",
          "name": "token",
          "type": "address"
        }
      ],
      "name": "createBondFactory",
      "outputs": [
        {
          "internalType": "address",
          "name": "factory",
          "type": "address"
        }
      ],
      "stateMutability": "nonpayable",
      "type": "function"
    },
    {
      "inputs": [],
      "name": "entities",
      "outputs": [
        {
          "internalType": "address[]",
          "name": "",
          "type": "address[]"
        }
      ],
      "stateMutability": "view",
      "type": "function"
    },
    {
      "inputs": [
        {
          "internalType": "address",
          "name": "caller",
          "type": "address"
        }
      ],
      "name": "isRegistered",
      "outputs": [
        {
          "internalType": "bool",
          "name": "",
          "type": "bool"
        }
      ],
      "stateMutability": "view",
      "type": "function"
    },
    {
      "inputs": [],
      "name": "owner",
      "outputs": [
        {
          "internalType": "address",
          "name": "",
          "type": "address"
        }
      ],
      "stateMutability": "view",
      "type": "function"
    },
    {
      "inputs": [],
      "name": "register",
      "outputs": [],
      "stateMutability": "nonpayable",
      "type": "function"
    }
  ],
  "bytecode": "0x60c06040523480156200001157600080fd5b5060405162007d6338038062007d6383398181016040528101906200003791906200032e565b803373ffffffffffffffffffffffffffffffffffffffff1660808173ffffffffffffffffffffffffffffffffffffffff16815250508073ffffffffffffffffffffffffffffffffffffffff1660a08173ffffffffffffffffffffffffffffffffffffffff16815250506001600260007321c8a148933e6ca502b47d729a485579c22e8a6973ffffffffffffffffffffffffffffffffffffffff1673ffffffffffffffffffffffffffffffffffffffff16815260200190815260200160002060006101000a81548160ff0219169083151502179055506001600260007307865c6e87b9f70255377e024ace6630c1eaa37f73ffffffffffffffffffffffffffffffffffffffff1673ffffffffffffffffffffffffffffffffffffffff16815260200190815260200160002060006101000a81548160ff02191690831515021790555060016002600073b4fbf271143f4fbf7b91a5ded31805e42b2208d673ffffffffffffffffffffffffffffffffffffffff1673ffffffffffffffffffffffffffffffffffffffff16815260200190815260200160002060006101000a81548160ff02191690831515021790555060016002600073326c977e6efc84e512bb9c30f76e30c160ed06fb73ffffffffffffffffffffffffffffffffffffffff1673ffffffffffffffffffffffffffffffffffffffff16815260200190815260200160002060006101000a81548160ff021916908315150217905550600160026000739c556b18d2370d4c44f3b3153d340d9abfd8d99573ffffffffffffffffffffffffffffffffffffffff1673ffffffffffffffffffffffffffffffffffffffff16815260200190815260200160002060006101000a81548160ff021916908315150217905550505062000360565b600080fd5b600073ffffffffffffffffffffffffffffffffffffffff82169050919050565b6000620002f682620002c9565b9050919050565b6200030881620002e9565b81146200031457600080fd5b50565b6000815190506200032881620002fd565b92915050565b600060208284031215620003475762000346620002c4565b5b6000620003578482850162000317565b91505092915050565b60805160a0516179c86200039b60003960008181610247015281816103ba015281816107ce0152610941015260006106c101526179c86000f3fe60806040523480156200001157600080fd5b5060043610620000885760003560e01c8063487c5cdf1162000063578063487c5cdf14620000f15780638da5cb5b1462000127578063c3c5a5471462000149578063ca5ad27c146200017f5762000088565b80631615fd03146200008d5780631aa3a00814620000af578063417590da14620000bb575b600080fd5b62000097620001b5565b604051620000a6919062000dcd565b60405180910390f35b620000b962000245565b005b620000d96004803603810190620000d3919062000e36565b6200055a565b604051620000e8919062000dcd565b60405180910390f35b6200010f600480360381019062000109919062000e68565b62000629565b6040516200011e919062000ecc565b60405180910390f35b62000131620006bd565b60405162000140919062000efa565b60405180910390f35b62000167600480360381019062000161919062000e36565b620006e5565b60405162000176919062000ecc565b60405180910390f35b6200019d600480360381019062000197919062001079565b6200073b565b604051620001ac919062000efa565b60405180910390f35b606060008054806020026020016040519081016040528092919081815260200182805480156200023b57602002820191906000526020600020905b8160009054906101000a900473ffffffffffffffffffffffffffffffffffffffff1673ffffffffffffffffffffffffffffffffffffffff1681526020019060010190808311620001f0575b5050505050905090565b7f000000000000000000000000000000000000000000000000000000000000000073ffffffffffffffffffffffffffffffffffffffff166339f920ab336040518263ffffffff1660e01b8152600401620002a0919062000efa565b602060405180830381865afa158015620002be573d6000803e3d6000fd5b505050506040513d601f19601f82011682018060405250810190620002e4919062001110565b62000326576040517f08c379a00000000000000000000000000000000000000000000000000000000081526004016200031d90620011a3565b60405180910390fd5b600160003373ffffffffffffffffffffffffffffffffffffffff1673ffffffffffffffffffffffffffffffffffffffff16815260200190815260200160002060009054906101000a900460ff1615620003b6576040517f08c379a0000000000000000000000000000000000000000000000000000000008152600401620003ad9062001215565b60405180910390fd5b60017f000000000000000000000000000000000000000000000000000000000000000073ffffffffffffffffffffffffffffffffffffffff1663b7caec87336040518263ffffffff1660e01b815260040162000413919062000efa565b602060405180830381865afa15801562000431573d6000803e3d6000fd5b505050506040513d601f19601f8201168201806040525081019062000457919062001275565b60ff1610156200049e576040517f08c379a00000000000000000000000000000000000000000000000000000000081526004016200049590620012f7565b60405180910390fd5b60018060003373ffffffffffffffffffffffffffffffffffffffff1673ffffffffffffffffffffffffffffffffffffffff16815260200190815260200160002060006101000a81548160ff0219169083151502179055506000339080600181540180825580915050600190039060005260206000200160009091909190916101000a81548173ffffffffffffffffffffffffffffffffffffffff021916908373ffffffffffffffffffffffffffffffffffffffff160217905550565b6060600360008373ffffffffffffffffffffffffffffffffffffffff1673ffffffffffffffffffffffffffffffffffffffff1681526020019081526020016000208054806020026020016040519081016040528092919081815260200182805480156200061d57602002820191906000526020600020905b8160009054906101000a900473ffffffffffffffffffffffffffffffffffffffff1673ffffffffffffffffffffffffffffffffffffffff1681526020019060010190808311620005d2575b50505050509050919050565b6000600460008473ffffffffffffffffffffffffffffffffffffffff1673ffffffffffffffffffffffffffffffffffffffff16815260200190815260200160002060008373ffffffffffffffffffffffffffffffffffffffff1673ffffffffffffffffffffffffffffffffffffffff16815260200190815260200160002060009054906101000a900460ff16905092915050565b60007f0000000000000000000000000000000000000000000000000000000000000000905090565b6000600160008373ffffffffffffffffffffffffffffffffffffffff1673ffffffffffffffffffffffffffffffffffffffff16815260200190815260200160002060009054906101000a900460ff169050919050565b6000600160003373ffffffffffffffffffffffffffffffffffffffff1673ffffffffffffffffffffffffffffffffffffffff16815260200190815260200160002060009054906101000a900460ff16620007cc576040517f08c379a0000000000000000000000000000000000000000000000000000000008152600401620007c39062001369565b60405180910390fd5b7f000000000000000000000000000000000000000000000000000000000000000073ffffffffffffffffffffffffffffffffffffffff166339f920ab336040518263ffffffff1660e01b815260040162000827919062000efa565b602060405180830381865afa15801562000845573d6000803e3d6000fd5b505050506040513d601f19601f820116820180604052508101906200086b919062001110565b620008ad576040517f08c379a0000000000000000000000000000000000000000000000000000000008152600401620008a490620011a3565b60405180910390fd5b81600260008273ffffffffffffffffffffffffffffffffffffffff1673ffffffffffffffffffffffffffffffffffffffff16815260200190815260200160002060009054906101000a900460ff166200093d576040517f08c379a00000000000000000000000000000000000000000000000000000000081526004016200093490620013db565b60405180910390fd5b60017f000000000000000000000000000000000000000000000000000000000000000073ffffffffffffffffffffffffffffffffffffffff1663b7caec87336040518263ffffffff1660e01b81526004016200099a919062000efa565b602060405180830381865afa158015620009b8573d6000803e3d6000fd5b505050506040513d601f19601f82011682018060405250810190620009de919062001275565b60ff16101562000a25576040517f08c379a000000000000000000000000000000000000000000000000000000000815260040162000a1c90620012f7565b60405180910390fd5b600460003373ffffffffffffffffffffffffffffffffffffffff1673ffffffffffffffffffffffffffffffffffffffff16815260200190815260200160002060008473ffffffffffffffffffffffffffffffffffffffff1673ffffffffffffffffffffffffffffffffffffffff16815260200190815260200160002060009054906101000a900460ff161562000af2576040517f08c379a000000000000000000000000000000000000000000000000000000000815260040162000ae9906200144d565b60405180910390fd5b83833360405162000b039062000cbd565b62000b1193929190620014e7565b604051809103906000f08015801562000b2e573d6000803e3d6000fd5b509150600360003373ffffffffffffffffffffffffffffffffffffffff1673ffffffffffffffffffffffffffffffffffffffff168152602001908152602001600020829080600181540180825580915050600190039060005260206000200160009091909190916101000a81548173ffffffffffffffffffffffffffffffffffffffff021916908373ffffffffffffffffffffffffffffffffffffffff1602179055506001600460003373ffffffffffffffffffffffffffffffffffffffff1673ffffffffffffffffffffffffffffffffffffffff16815260200190815260200160002060008573ffffffffffffffffffffffffffffffffffffffff1673ffffffffffffffffffffffffffffffffffffffff16815260200190815260200160002060006101000a81548160ff0219169083151502179055503373ffffffffffffffffffffffffffffffffffffffff167f80e5d607e143b547134294afbce2c48623473eb90d7a68d64fa88273b94529368460405162000cae919062000efa565b60405180910390a25092915050565b616467806200152c83390190565b600081519050919050565b600082825260208201905092915050565b6000819050602082019050919050565b600073ffffffffffffffffffffffffffffffffffffffff82169050919050565b600062000d248262000cf7565b9050919050565b62000d368162000d17565b82525050565b600062000d4a838362000d2b565b60208301905092915050565b6000602082019050919050565b600062000d708262000ccb565b62000d7c818562000cd6565b935062000d898362000ce7565b8060005b8381101562000dc057815162000da4888262000d3c565b975062000db18362000d56565b92505060018101905062000d8d565b5085935050505092915050565b6000602082019050818103600083015262000de9818462000d63565b905092915050565b6000604051905090565b600080fd5b600080fd5b62000e108162000d17565b811462000e1c57600080fd5b50565b60008135905062000e308162000e05565b92915050565b60006020828403121562000e4f5762000e4e62000dfb565b5b600062000e5f8482850162000e1f565b91505092915050565b6000806040838503121562000e825762000e8162000dfb565b5b600062000e928582860162000e1f565b925050602062000ea58582860162000e1f565b9150509250929050565b60008115159050919050565b62000ec68162000eaf565b82525050565b600060208201905062000ee3600083018462000ebb565b92915050565b62000ef48162000d17565b82525050565b600060208201905062000f11600083018462000ee9565b92915050565b600080fd5b600080fd5b6000601f19601f8301169050919050565b7f4e487b7100000000000000000000000000000000000000000000000000000000600052604160045260246000fd5b62000f6c8262000f21565b810181811067ffffffffffffffff8211171562000f8e5762000f8d62000f32565b5b80604052505050565b600062000fa362000df1565b905062000fb1828262000f61565b919050565b600067ffffffffffffffff82111562000fd45762000fd362000f32565b5b62000fdf8262000f21565b9050602081019050919050565b82818337600083830152505050565b6000620010126200100c8462000fb6565b62000f97565b90508281526020810184848401111562001031576200103062000f1c565b5b6200103e84828562000fec565b509392505050565b600082601f8301126200105e576200105d62000f17565b5b81356200107084826020860162000ffb565b91505092915050565b6000806040838503121562001093576200109262000dfb565b5b600083013567ffffffffffffffff811115620010b457620010b362000e00565b5b620010c28582860162001046565b9250506020620010d58582860162000e1f565b9150509250929050565b620010ea8162000eaf565b8114620010f657600080fd5b50565b6000815190506200110a81620010df565b92915050565b60006020828403121562001129576200112862000dfb565b5b60006200113984828501620010f9565b91505092915050565b600082825260208201905092915050565b7f4e41535400000000000000000000000000000000000000000000000000000000600082015250565b60006200118b60048362001142565b9150620011988262001153565b602082019050919050565b60006020820190508181036000830152620011be816200117c565b9050919050565b7f4152000000000000000000000000000000000000000000000000000000000000600082015250565b6000620011fd60028362001142565b91506200120a82620011c5565b602082019050919050565b600060208201905081810360008301526200123081620011ee565b9050919050565b600060ff82169050919050565b6200124f8162001237565b81146200125b57600080fd5b50565b6000815190506200126f8162001244565b92915050565b6000602082840312156200128e576200128d62000dfb565b5b60006200129e848285016200125e565b91505092915050565b7f4e56415400000000000000000000000000000000000000000000000000000000600082015250565b6000620012df60048362001142565b9150620012ec82620012a7565b602082019050919050565b600060208201905081810360008301526200131281620012d0565b9050919050565b7f4e52000000000000000000000000000000000000000000000000000000000000600082015250565b60006200135160028362001142565b91506200135e8262001319565b602082019050919050565b60006020820190508181036000830152620013848162001342565b9050919050565b7f4943000000000000000000000000000000000000000000000000000000000000600082015250565b6000620013c360028362001142565b9150620013d0826200138b565b602082019050919050565b60006020820190508181036000830152620013f681620013b4565b9050919050565b7f4149000000000000000000000000000000000000000000000000000000000000600082015250565b60006200143560028362001142565b91506200144282620013fd565b602082019050919050565b60006020820190508181036000830152620014688162001426565b9050919050565b600081519050919050565b60005b838110156200149a5780820151818401526020810190506200147d565b60008484015250505050565b6000620014b3826200146f565b620014bf818562001142565b9350620014d18185602086016200147a565b620014dc8162000f21565b840191505092915050565b60006060820190508181036000830152620015038186620014a6565b905062001514602083018562000ee9565b62001523604083018462000ee9565b94935050505056fe60c060405260006003553480156200001657600080fd5b50604051620064673803806200646783398181016040528101906200003c9190620002d3565b828282826200005181620000c660201b60201c565b508073ffffffffffffffffffffffffffffffffffffffff1660808173ffffffffffffffffffffffffffffffffffffffff16815250508173ffffffffffffffffffffffffffffffffffffffff1660a08173ffffffffffffffffffffffffffffffffffffffff168152505050505050505062000680565b8060029081620000d7919062000599565b5050565b6000604051905090565b600080fd5b600080fd5b600080fd5b600080fd5b6000601f19601f8301169050919050565b7f4e487b7100000000000000000000000000000000000000000000000000000000600052604160045260246000fd5b6200014482620000f9565b810181811067ffffffffffffffff821117156200016657620001656200010a565b5b80604052505050565b60006200017b620000db565b905062000189828262000139565b919050565b600067ffffffffffffffff821115620001ac57620001ab6200010a565b5b620001b782620000f9565b9050602081019050919050565b60005b83811015620001e4578082015181840152602081019050620001c7565b60008484015250505050565b60006200020762000201846200018e565b6200016f565b905082815260208101848484011115620002265762000225620000f4565b5b62000233848285620001c4565b509392505050565b600082601f830112620002535762000252620000ef565b5b815162000265848260208601620001f0565b91505092915050565b600073ffffffffffffffffffffffffffffffffffffffff82169050919050565b60006200029b826200026e565b9050919050565b620002ad816200028e565b8114620002b957600080fd5b50565b600081519050620002cd81620002a2565b92915050565b600080600060608486031215620002ef57620002ee620000e5565b5b600084015167ffffffffffffffff81111562000310576200030f620000ea565b5b6200031e868287016200023b565b93505060206200033186828701620002bc565b92505060406200034486828701620002bc565b9150509250925092565b600081519050919050565b7f4e487b7100000000000000000000000000000000000000000000000000000000600052602260045260246000fd5b60006002820490506001821680620003a157607f821691505b602082108103620003b757620003b662000359565b5b50919050565b60008190508160005260206000209050919050565b60006020601f8301049050919050565b600082821b905092915050565b600060088302620004217fffffffffffffffffffffffffffffffffffffffffffffffffffffffffffffffff82620003e2565b6200042d8683620003e2565b95508019841693508086168417925050509392505050565b6000819050919050565b6000819050919050565b60006200047a620004746200046e8462000445565b6200044f565b62000445565b9050919050565b6000819050919050565b620004968362000459565b620004ae620004a58262000481565b848454620003ef565b825550505050565b600090565b620004c5620004b6565b620004d28184846200048b565b505050565b5b81811015620004fa57620004ee600082620004bb565b600181019050620004d8565b5050565b601f82111562000549576200051381620003bd565b6200051e84620003d2565b810160208510156200052e578190505b620005466200053d85620003d2565b830182620004d7565b50505b505050565b600082821c905092915050565b60006200056e600019846008026200054e565b1980831691505092915050565b60006200058983836200055b565b9150826002028217905092915050565b620005a4826200034e565b67ffffffffffffffff811115620005c057620005bf6200010a565b5b620005cc825462000388565b620005d9828285620004fe565b600060209050601f831160018114620006115760008415620005fc578287015190505b6200060885826200057b565b86555062000678565b601f1984166200062186620003bd565b60005b828110156200064b5784890151825560018201915060208501945060208101905062000624565b868310156200066b578489015162000667601f8916826200055b565b8355505b6001600288020188555050505b505050505050565b60805160a051615d6662000701600039600081816111c70152818161180501528181611b1d01528181611fee015281816122300152818161232e015281816124aa01528181612551015261274601526000818161102a015281816113b501528181611de801528181612387015281816125f001526129640152615d666000f3fe608060405234801561001057600080fd5b50600436106102895760003560e01c806388bdc0831161015c578063c0a6026c116100ce578063e755ddd711610087578063e755ddd714610907578063e985e9c514610923578063f0d8100a14610953578063f23a6e6114610983578063f242432a146109b3578063fcbc669a146109cf57610289565b8063c0a6026c14610833578063c36530101461084f578063c55dae631461087f578063d3b7811b1461089d578063e2bbb158146108cd578063e5328e06146108e957610289565b8063932a8de011610120578063932a8de01461073b578063a22cb4651461076b578063a53e17b014610787578063a8743022146107b7578063abac75e1146107d3578063bc197c811461080357610289565b806388bdc0831461065457806389c2bb1f146106845780638c3526c2146106b45780638da5cb5b146106ed5780638f0dbf771461070b57610289565b806339e3af9b116102005780636ff80d93116101b95780636ff80d931461055c57806370876c981461058c57806377e2a08b146105a85780637a41984b146105d85780637cbc23731461060857806382afd23b1461062457610289565b806339e3af9b14610476578063441a3e70146104a65780634e1273f4146104c2578063549493bb146104f25780636567dc4d146105225780636681b9fd1461053e57610289565b80630e89341c116102525780630e89341c1461037e57806314f29493146103ae5780632b096926146103de5780632eb2c2d6146103fa5780632f3ad61f146104165780633097afb81461044657610289565b8062fdd58e1461028e57806301ffc9a7146102be57806302159497146102ee57806308913ce81461031e578063091490201461034e575b600080fd5b6102a860048036038101906102a39190613d1c565b6109ff565b6040516102b59190613d6b565b60405180910390f35b6102d860048036038101906102d39190613dde565b610ac7565b6040516102e59190613e26565b60405180910390f35b61030860048036038101906103039190613e41565b610ba9565b6040516103159190613d6b565b60405180910390f35b61033860048036038101906103339190613e41565b610bc6565b6040516103459190613d6b565b60405180910390f35b61036860048036038101906103639190613e41565b610bf1565b6040516103759190613e26565b60405180910390f35b61039860048036038101906103939190613e41565b610c27565b6040516103a59190613efe565b60405180910390f35b6103c860048036038101906103c39190613e41565b610cbb565b6040516103d59190613d6b565b60405180910390f35b6103f860048036038101906103f39190613e41565b610cf9565b005b610414600480360381019061040f919061411d565b610eff565b005b610430600480360381019061042b9190613e41565b610fa0565b60405161043d9190613e26565b60405180910390f35b610460600480360381019061045b9190613e41565b610fca565b60405161046d9190613e26565b60405180910390f35b610490600480360381019061048b9190613e41565b611003565b60405161049d9190613e26565b60405180910390f35b6104c060048036038101906104bb91906141ec565b611028565b005b6104dc60048036038101906104d791906142ef565b611268565b6040516104e99190614425565b60405180910390f35b61050c60048036038101906105079190613e41565b611381565b6040516105199190613e26565b60405180910390f35b61053c60048036038101906105379190613e41565b6113b3565b005b610546611582565b6040516105539190613d6b565b60405180910390f35b61057660048036038101906105719190613e41565b61158c565b6040516105839190613e26565b60405180910390f35b6105a660048036038101906105a191906141ec565b6115c4565b005b6105c260048036038101906105bd9190613e41565b6118aa565b6040516105cf9190613d6b565b60405180910390f35b6105f260048036038101906105ed9190613e41565b61193a565b6040516105ff9190613e26565b60405180910390f35b610622600480360381019061061d91906141ec565b611964565b005b61063e60048036038101906106399190613e41565b611bfd565b60405161064b9190613e26565b60405180910390f35b61066e60048036038101906106699190613e41565b611c20565b60405161067b9190613d6b565b60405180910390f35b61069e60048036038101906106999190613e41565b611c53565b6040516106ab9190613d6b565b60405180910390f35b6106ce60048036038101906106c99190613e41565b611c70565b6040516106e49a99989796959493929190614447565b60405180910390f35b6106f5611de4565b60405161070291906144f9565b60405180910390f35b61072560048036038101906107209190613e41565b611e0c565b6040516107329190613e26565b60405180910390f35b61075560048036038101906107509190613e41565b611e2e565b6040516107629190613d6b565b60405180910390f35b61078560048036038101906107809190614540565b611e6c565b005b6107a1600480360381019061079c9190613e41565b611e82565b6040516107ae9190613e26565b60405180910390f35b6107d160048036038101906107cc9190613e41565b611eac565b005b6107ed60048036038101906107e89190613e41565b6120d2565b6040516107fa9190613d6b565b60405180910390f35b61081d6004803603810190610818919061411d565b6120f2565b60405161082a919061458f565b60405180910390f35b61084d60048036038101906108489190613e41565b612107565b005b61086960048036038101906108649190613e41565b61230d565b6040516108769190613d6b565b60405180910390f35b61088761232a565b60405161089491906144f9565b60405180910390f35b6108b760048036038101906108b29190613e41565b612352565b6040516108c49190613d6b565b60405180910390f35b6108e760048036038101906108e291906141ec565b612385565b005b6108f161254d565b6040516108fe9190613d6b565b60405180910390f35b610921600480360381019061091c9190613e41565b6125ee565b005b61093d600480360381019061093891906145aa565b6127f9565b60405161094a9190613e26565b60405180910390f35b61096d60048036038101906109689190613e41565b61288d565b60405161097a9190613d6b565b60405180910390f35b61099d600480360381019061099891906145ea565b6128aa565b6040516109aa919061458f565b60405180910390f35b6109cd60048036038101906109c891906145ea565b6128bf565b005b6109e960048036038101906109e491906146dc565b612960565b6040516109f69190613d6b565b60405180910390f35b60008073ffffffffffffffffffffffffffffffffffffffff168373ffffffffffffffffffffffffffffffffffffffff1603610a6f576040517f08c379a0000000000000000000000000000000000000000000000000000000008152600401610a6690614810565b60405180910390fd5b60008083815260200190815260200160002060008473ffffffffffffffffffffffffffffffffffffffff1673ffffffffffffffffffffffffffffffffffffffff16815260200190815260200160002054905092915050565b60007fd9b67a26000000000000000000000000000000000000000000000000000000007bffffffffffffffffffffffffffffffffffffffffffffffffffffffff1916827bffffffffffffffffffffffffffffffffffffffffffffffffffffffff19161480610b9257507f0e89341c000000000000000000000000000000000000000000000000000000007bffffffffffffffffffffffffffffffffffffffffffffffffffffffff1916827bffffffffffffffffffffffffffffffffffffffffffffffffffffffff1916145b80610ba25750610ba182612c89565b5b9050919050565b600060086000838152602001908152602001600020549050919050565b6000600560008381526020019081526020016000206002015442610bea919061485f565b9050919050565b60006005600083815260200190815260200160002060080154600660008481526020019081526020016000205410159050919050565b606060028054610c36906148c2565b80601f0160208091040260200160405190810160405280929190818152602001828054610c62906148c2565b8015610caf5780601f10610c8457610100808354040283529160200191610caf565b820191906000526020600020905b815481529060010190602001808311610c9257829003601f168201915b50505050509050919050565b600060066000838152602001908152602001600020546005600084815260200190815260200160002060010154610cf291906148f3565b9050919050565b610d028161193a565b158015610d155750610d1381611003565b155b8015610d275750610d2581610fa0565b155b610d66576040517f08c379a0000000000000000000000000000000000000000000000000000000008152600401610d5d90614981565b60405180910390fd5b62015180600d600083815260200190815260200160002054610d8891906148f3565b610d9182610bc6565b11610dd1576040517f08c379a0000000000000000000000000000000000000000000000000000000008152600401610dc8906149ed565b60405180910390fd5b620151806005600083815260200190815260200160002060060154610df691906148f3565b610dff82610bc6565b6005600084815260200190815260200160002060090154610e2091906148f3565b610e2a9190614a3c565b600e6000838152602001908152602001600020819055506001600f600083815260200190815260200160002060006101000a81548160ff0219169083151502179055506001600c600083815260200190815260200160002060006101000a81548160ff021916908315150217905550807fb580a16317cf9efa50cf987c976c3fb7de7eaf3149b9dd5b8a576a043042f44c6005600084815260200190815260200160002060090154600e600085815260200190815260200160002054604051610ef4929190614a6d565b60405180910390a250565b610f07612cf3565b73ffffffffffffffffffffffffffffffffffffffff168573ffffffffffffffffffffffffffffffffffffffff161480610f4d5750610f4c85610f47612cf3565b6127f9565b5b610f8c576040517f08c379a0000000000000000000000000000000000000000000000000000000008152600401610f8390614b08565b60405180910390fd5b610f998585858585612cfb565b5050505050565b6000600b600083815260200190815260200160002060009054906101000a900460ff169050919050565b6000610fd582611e0c565b8015610ffc5750610fe5826118aa565b600860008481526020019081526020016000205410155b9050919050565b600061100e82611bfd565b158015611021575061101f82610bf1565b155b9050919050565b7f000000000000000000000000000000000000000000000000000000000000000073ffffffffffffffffffffffffffffffffffffffff163373ffffffffffffffffffffffffffffffffffffffff16146110b6576040517f08c379a00000000000000000000000000000000000000000000000000000000081526004016110ad90614b74565b60405180910390fd5b6110bf82611bfd565b1580156110d257506110d082611003565b155b80156110e457506110e28261193a565b155b801561110657506110f482610fa0565b8061110457506111038261158c565b5b155b611145576040517f08c379a000000000000000000000000000000000000000000000000000000000815260040161113c90614be0565b60405180910390fd5b600860008381526020019081526020016000205481111561119b576040517f08c379a000000000000000000000000000000000000000000000000000000000815260040161119290614c4c565b60405180910390fd5b806008600084815260200190815260200160002060008282546111be919061485f565b925050819055507f000000000000000000000000000000000000000000000000000000000000000073ffffffffffffffffffffffffffffffffffffffff1663a9059cbb33836040518363ffffffff1660e01b8152600401611220929190614c6c565b6020604051808303816000875af115801561123f573d6000803e3d6000fd5b505050506040513d601f19601f820116820180604052508101906112639190614caa565b505050565b606081518351146112ae576040517f08c379a00000000000000000000000000000000000000000000000000000000081526004016112a590614d49565b60405180910390fd5b6000835167ffffffffffffffff8111156112cb576112ca613f25565b5b6040519080825280602002602001820160405280156112f95781602001602082028036833780820191505090505b50905060005b84518110156113765761134685828151811061131e5761131d614d69565b5b602002602001015185838151811061133957611338614d69565b5b60200260200101516109ff565b82828151811061135957611358614d69565b5b6020026020010181815250508061136f90614d98565b90506112ff565b508091505092915050565b600060066000838152602001908152602001600020546007600084815260200190815260200160002054149050919050565b7f000000000000000000000000000000000000000000000000000000000000000073ffffffffffffffffffffffffffffffffffffffff163373ffffffffffffffffffffffffffffffffffffffff1614611441576040517f08c379a000000000000000000000000000000000000000000000000000000000815260040161143890614b74565b60405180910390fd5b61144a8161193a565b15801561145d575061145b81610fa0565b155b8015611483575061146d816118aa565b6008600083815260200190815260200160002054105b6114c2576040517f08c379a00000000000000000000000000000000000000000000000000000000081526004016114b990614e2c565b60405180910390fd5b6000600860008381526020019081526020016000205490506006600083815260200190815260200160002054816114f99190614a3c565b60096000848152602001908152602001600020819055506001600b600084815260200190815260200160002060006101000a81548160ff021916908315150217905550817fc4f17a65d54873d57229ea5f59c4ddec592d095bc17581372676402c8228b9cd611567846118aa565b83604051611576929190614a6d565b60405180910390a25050565b6000600454905090565b600061159782611e0c565b80156115bd57506115a7826118aa565b6008600084815260200190815260200160002054105b9050919050565b6115cd82611bfd565b61160c576040517f08c379a000000000000000000000000000000000000000000000000000000000815260040161160390614e98565b60405180910390fd5b8061161683611e2e565b1015611657576040517f08c379a000000000000000000000000000000000000000000000000000000000815260040161164e90614f04565b60405180910390fd5b60006005600084815260200190815260200160002060405180610140016040529081600082018054611688906148c2565b80601f01602080910402602001604051908101604052809291908181526020018280546116b4906148c2565b80156117015780601f106116d657610100808354040283529160200191611701565b820191906000526020600020905b8154815290600101906020018083116116e457829003601f168201915b5050505050815260200160018201548152602001600282015481526020016003820154815260200160048201548152602001600582015481526020016006820154815260200160078201548152602001600882015481526020016009820154815250509050600081602001518361177891906148f3565b90508260066000868152602001908152602001600020600082825461179d9190614f24565b92505081905550806008600086815260200190815260200160002060008282546117c79190614f24565b9250508190555080600460008282546117e09190614f24565b9250508190555061180330338686604051806020016040528060008152506128bf565b7f000000000000000000000000000000000000000000000000000000000000000073ffffffffffffffffffffffffffffffffffffffff166323b872dd3330846040518463ffffffff1660e01b815260040161186093929190614f58565b6020604051808303816000875af115801561187f573d6000803e3d6000fd5b505050506040513d601f19601f820116820180604052508101906118a39190614caa565b5050505050565b60008060056000848152602001908152602001600020600901549050600f600084815260200190815260200160002060009054906101000a900460ff16156118f8576118f583611c53565b90505b670de0b6b3a76400008161190b85610cbb565b61191591906148f3565b61191f9190614a3c565b61192884610cbb565b6119329190614f24565b915050919050565b6000600c600083815260200190815260200160002060009054906101000a900460ff169050919050565b8061196f33846109ff565b10156119b0576040517f08c379a00000000000000000000000000000000000000000000000000000000081526004016119a790614f04565b60405180910390fd5b6119b98261193a565b806119c957506119c882611003565b5b806119d957506119d882610fa0565b5b611a18576040517f08c379a0000000000000000000000000000000000000000000000000000000008152600401611a0f90614fdb565b60405180910390fd5b600080611a248461193a565b15611a4857600a600085815260200190815260200160002054915060009050611aac565b611a5184611003565b15611a78576005600085815260200190815260200160002060010154915060019050611aab565b611a8184610fa0565b15611aa5576009600085815260200190815260200160002054915060029050611aaa565b600080fd5b5b5b611ab733858561301c565b82600760008681526020019081526020016000206000828254611ada9190614f24565b9250508190555060008284611aef91906148f3565b905080600860008781526020019081526020016000206000828254611b14919061485f565b925050819055507f000000000000000000000000000000000000000000000000000000000000000073ffffffffffffffffffffffffffffffffffffffff1663a9059cbb33836040518363ffffffff1660e01b8152600401611b76929190614c6c565b6020604051808303816000875af1158015611b95573d6000803e3d6000fd5b505050506040513d601f19601f82011682018060405250810190611bb99190614caa565b50847fa5851b0172fdafd3dafe0e52ce051747548a4c642a2f22793c01faf228e13062338685604051611bee93929190614ffb565b60405180910390a25050505050565b600060056000838152602001908152602001600020600401544211159050919050565b6000611c2b82610bc6565b6005600084815260200190815260200160002060040154611c4c919061485f565b9050919050565b6000600e6000838152602001908152602001600020549050919050565b6060600080600080600080600080600080600560008d815260200190815260200160002060405180610140016040529081600082018054611cb0906148c2565b80601f0160208091040260200160405190810160405280929190818152602001828054611cdc906148c2565b8015611d295780601f10611cfe57610100808354040283529160200191611d29565b820191906000526020600020905b815481529060010190602001808311611d0c57829003601f168201915b5050505050815260200160018201548152602001600282015481526020016003820154815260200160048201548152602001600582015481526020016006820154815260200160078201548152602001600882015481526020016009820154815250509050806000015181602001518260400151836060015184608001518560a001518660c001518760e001518861010001518961012001519a509a509a509a509a509a509a509a509a509a50509193959799509193959799565b60007f0000000000000000000000000000000000000000000000000000000000000000905090565b6000600560008381526020019081526020016000206003015442119050919050565b600060066000838152602001908152602001600020546005600084815260200190815260200160002060070154611e65919061485f565b9050919050565b611e7e611e77612cf3565b8383613262565b5050565b6000600f600083815260200190815260200160002060009054906101000a900460ff169050919050565b611eb58161193a565b158015611ec85750611ec681610fa0565b155b8015611ed95750611ed88161158c565b5b611f18576040517f08c379a0000000000000000000000000000000000000000000000000000000008152600401611f0f9061507e565b60405180910390fd5b60006103e86008600084815260200190815260200160002054611f3b9190614a3c565b90506000816008600085815260200190815260200160002054611f5e919061485f565b9050600660008481526020019081526020016000205481611f7f9190614a3c565b600960008581526020019081526020016000208190555081600860008581526020019081526020016000206000828254611fb9919061485f565b925050819055506001600b600085815260200190815260200160002060006101000a81548160ff0219169083151502179055507f000000000000000000000000000000000000000000000000000000000000000073ffffffffffffffffffffffffffffffffffffffff1663a9059cbb33846040518363ffffffff1660e01b8152600401612047929190614c6c565b6020604051808303816000875af1158015612066573d6000803e3d6000fd5b505050506040513d601f19601f8201168201806040525081019061208a9190614caa565b50827fc4f17a65d54873d57229ea5f59c4ddec592d095bc17581372676402c8228b9cd6120b6856118aa565b836040516120c5929190614a6d565b60405180910390a2505050565b600060056000838152602001908152602001600020600901549050919050565b600063bc197c8160e01b905095945050505050565b61211081610fa0565b15801561212357506121218161193a565b155b8015612134575061213381610fca565b5b612173576040517f08c379a000000000000000000000000000000000000000000000000000000000815260040161216a906150ea565b60405180910390fd5b600061217e826118aa565b905060006103e8826121909190614a3c565b9050600081836121a0919061485f565b90506006600085815260200190815260200160002054816121c19190614a3c565b600a600086815260200190815260200160002081905550816008600086815260200190815260200160002060008282546121fb919061485f565b925050819055506001600c600086815260200190815260200160002060006101000a81548160ff0219169083151502179055507f000000000000000000000000000000000000000000000000000000000000000073ffffffffffffffffffffffffffffffffffffffff1663a9059cbb33846040518363ffffffff1660e01b8152600401612289929190614c6c565b6020604051808303816000875af11580156122a8573d6000803e3d6000fd5b505050506040513d601f19601f820116820180604052508101906122cc9190614caa565b50837fac2eeaf45d1b75aed6b3285cda3efb3c382cce02ba313558bbb90be57f8843e484836040516122ff929190614a6d565b60405180910390a250505050565b6000600d6000838152602001908152602001600020549050919050565b60007f0000000000000000000000000000000000000000000000000000000000000000905090565b600061235d82610bc6565b600560008481526020019081526020016000206003015461237e919061485f565b9050919050565b7f000000000000000000000000000000000000000000000000000000000000000073ffffffffffffffffffffffffffffffffffffffff163373ffffffffffffffffffffffffffffffffffffffff1614612413576040517f08c379a000000000000000000000000000000000000000000000000000000000815260040161240a90614b74565b60405180910390fd5b61241c82610fa0565b8061242c575061242b8261158c565b5b15801561243f575061243d8261193a565b155b61247e576040517f08c379a000000000000000000000000000000000000000000000000000000000815260040161247590615156565b60405180910390fd5b806008600084815260200190815260200160002060008282546124a19190614f24565b925050819055507f000000000000000000000000000000000000000000000000000000000000000073ffffffffffffffffffffffffffffffffffffffff166323b872dd3330846040518463ffffffff1660e01b815260040161250593929190614f58565b6020604051808303816000875af1158015612524573d6000803e3d6000fd5b505050506040513d601f19601f820116820180604052508101906125489190614caa565b505050565b60007f000000000000000000000000000000000000000000000000000000000000000073ffffffffffffffffffffffffffffffffffffffff166370a08231306040518263ffffffff1660e01b81526004016125a891906144f9565b602060405180830381865afa1580156125c5573d6000803e3d6000fd5b505050506040513d601f19601f820116820180604052508101906125e9919061518b565b905090565b7f000000000000000000000000000000000000000000000000000000000000000073ffffffffffffffffffffffffffffffffffffffff163373ffffffffffffffffffffffffffffffffffffffff161461267c576040517f08c379a000000000000000000000000000000000000000000000000000000000815260040161267390614b74565b60405180910390fd5b6126858161193a565b8015612696575061269581611381565b5b6126d5576040517f08c379a00000000000000000000000000000000000000000000000000000000081526004016126cc90614be0565b60405180910390fd5b600060086000838152602001908152602001600020541161272b576040517f08c379a000000000000000000000000000000000000000000000000000000000815260040161272290615204565b60405180910390fd5b600060086000838152602001908152602001600020819055507f000000000000000000000000000000000000000000000000000000000000000073ffffffffffffffffffffffffffffffffffffffff1663a9059cbb3360086000858152602001908152602001600020546040518363ffffffff1660e01b81526004016127b2929190614c6c565b6020604051808303816000875af11580156127d1573d6000803e3d6000fd5b505050506040513d601f19601f820116820180604052508101906127f59190614caa565b5050565b6000600160008473ffffffffffffffffffffffffffffffffffffffff1673ffffffffffffffffffffffffffffffffffffffff16815260200190815260200160002060008373ffffffffffffffffffffffffffffffffffffffff1673ffffffffffffffffffffffffffffffffffffffff16815260200190815260200160002060009054906101000a900460ff16905092915050565b600060086000838152602001908152602001600020549050919050565b600063f23a6e6160e01b905095945050505050565b6128c7612cf3565b73ffffffffffffffffffffffffffffffffffffffff168573ffffffffffffffffffffffffffffffffffffffff16148061290d575061290c85612907612cf3565b6127f9565b5b61294c576040517f08c379a000000000000000000000000000000000000000000000000000000000815260040161294390614b08565b60405180910390fd5b61295985858585856133ce565b5050505050565b60007f000000000000000000000000000000000000000000000000000000000000000073ffffffffffffffffffffffffffffffffffffffff163373ffffffffffffffffffffffffffffffffffffffff16146129f0576040517f08c379a00000000000000000000000000000000000000000000000000000000081526004016129e790614b74565b60405180910390fd5b60b4841015612a34576040517f08c379a0000000000000000000000000000000000000000000000000000000008152600401612a2b90615270565b60405180910390fd5b6007831115612a78576040517f08c379a0000000000000000000000000000000000000000000000000000000008152600401612a6f906152dc565b60405180910390fd5b6001600354612a879190614f24565b9050600160036000828254612a9c9190614f24565b92505081905550612abe33828b60405180602001604052806000815250613669565b60405180610140016040528087878080601f016020809104026020016040519081016040528093929190818152602001838380828437600081840152601f19601f8201169050808301925050505050505081526020018881526020014281526020016201518086612b2f91906148f3565b42612b3a9190614f24565b81526020016201518085612b4e91906148f3565b42612b599190614f24565b81526020018481526020018581526020018a815260200189815260200183815250600560008381526020019081526020016000206000820151816000019081612ba291906154a8565b506020820151816001015560408201518160020155606082015181600301556080820151816004015560a0820151816005015560c0820151816006015560e0820151816007015561010082015181600801556101208201518160090155905050600284612c0f9190614a3c565b600d600083815260200190815260200160002081905550807ff73e436c94925e1e8b2f0b16de0a2c56aea7fb27878f7815811bc05bc6c335e88a89856201518089612c5a91906148f3565b42612c659190614f24565b604051612c75949392919061557a565b60405180910390a298975050505050505050565b60007f01ffc9a7000000000000000000000000000000000000000000000000000000007bffffffffffffffffffffffffffffffffffffffffffffffffffffffff1916827bffffffffffffffffffffffffffffffffffffffffffffffffffffffff1916149050919050565b600033905090565b8151835114612d3f576040517f08c379a0000000000000000000000000000000000000000000000000000000008152600401612d3690615631565b60405180910390fd5b600073ffffffffffffffffffffffffffffffffffffffff168473ffffffffffffffffffffffffffffffffffffffff1603612dae576040517f08c379a0000000000000000000000000000000000000000000000000000000008152600401612da5906156c3565b60405180910390fd5b6000612db8612cf3565b9050612dc8818787878787613819565b60005b8451811015612f79576000858281518110612de957612de8614d69565b5b602002602001015190506000858381518110612e0857612e07614d69565b5b60200260200101519050600080600084815260200190815260200160002060008b73ffffffffffffffffffffffffffffffffffffffff1673ffffffffffffffffffffffffffffffffffffffff16815260200190815260200160002054905081811015612ea9576040517f08c379a0000000000000000000000000000000000000000000000000000000008152600401612ea090615755565b60405180910390fd5b81810360008085815260200190815260200160002060008c73ffffffffffffffffffffffffffffffffffffffff1673ffffffffffffffffffffffffffffffffffffffff168152602001908152602001600020819055508160008085815260200190815260200160002060008b73ffffffffffffffffffffffffffffffffffffffff1673ffffffffffffffffffffffffffffffffffffffff1681526020019081526020016000206000828254612f5e9190614f24565b9250508190555050505080612f7290614d98565b9050612dcb565b508473ffffffffffffffffffffffffffffffffffffffff168673ffffffffffffffffffffffffffffffffffffffff168273ffffffffffffffffffffffffffffffffffffffff167f4a39dc06d4c0dbc64b70af90fd698a233a518aa5d07e595d983b8c0526c8f7fb8787604051612ff0929190615775565b60405180910390a4613006818787878787613821565b613014818787878787613829565b505050505050565b600073ffffffffffffffffffffffffffffffffffffffff168373ffffffffffffffffffffffffffffffffffffffff160361308b576040517f08c379a00000000000000000000000000000000000000000000000000000000081526004016130829061581e565b60405180910390fd5b6000613095612cf3565b905060006130a284613a00565b905060006130af84613a00565b90506130cf83876000858560405180602001604052806000815250613819565b600080600087815260200190815260200160002060008873ffffffffffffffffffffffffffffffffffffffff1673ffffffffffffffffffffffffffffffffffffffff16815260200190815260200160002054905084811015613166576040517f08c379a000000000000000000000000000000000000000000000000000000000815260040161315d906158b0565b60405180910390fd5b84810360008088815260200190815260200160002060008973ffffffffffffffffffffffffffffffffffffffff1673ffffffffffffffffffffffffffffffffffffffff16815260200190815260200160002081905550600073ffffffffffffffffffffffffffffffffffffffff168773ffffffffffffffffffffffffffffffffffffffff168573ffffffffffffffffffffffffffffffffffffffff167fc3d58168c5ae7397731d063d5bbf3d657854427343f4c083240f7aacaa2d0f628989604051613233929190614a6d565b60405180910390a461325984886000868660405180602001604052806000815250613821565b50505050505050565b8173ffffffffffffffffffffffffffffffffffffffff168373ffffffffffffffffffffffffffffffffffffffff16036132d0576040517f08c379a00000000000000000000000000000000000000000000000000000000081526004016132c790615942565b60405180910390fd5b80600160008573ffffffffffffffffffffffffffffffffffffffff1673ffffffffffffffffffffffffffffffffffffffff16815260200190815260200160002060008473ffffffffffffffffffffffffffffffffffffffff1673ffffffffffffffffffffffffffffffffffffffff16815260200190815260200160002060006101000a81548160ff0219169083151502179055508173ffffffffffffffffffffffffffffffffffffffff168373ffffffffffffffffffffffffffffffffffffffff167f17307eab39ab6107e8899845ad3d59bd9653f200f220920489ca2b5937696c31836040516133c19190613e26565b60405180910390a3505050565b600073ffffffffffffffffffffffffffffffffffffffff168473ffffffffffffffffffffffffffffffffffffffff160361343d576040517f08c379a0000000000000000000000000000000000000000000000000000000008152600401613434906156c3565b60405180910390fd5b6000613447612cf3565b9050600061345485613a00565b9050600061346185613a00565b9050613471838989858589613819565b600080600088815260200190815260200160002060008a73ffffffffffffffffffffffffffffffffffffffff1673ffffffffffffffffffffffffffffffffffffffff16815260200190815260200160002054905085811015613508576040517f08c379a00000000000000000000000000000000000000000000000000000000081526004016134ff90615755565b60405180910390fd5b85810360008089815260200190815260200160002060008b73ffffffffffffffffffffffffffffffffffffffff1673ffffffffffffffffffffffffffffffffffffffff168152602001908152602001600020819055508560008089815260200190815260200160002060008a73ffffffffffffffffffffffffffffffffffffffff1673ffffffffffffffffffffffffffffffffffffffff16815260200190815260200160002060008282546135bd9190614f24565b925050819055508773ffffffffffffffffffffffffffffffffffffffff168973ffffffffffffffffffffffffffffffffffffffff168573ffffffffffffffffffffffffffffffffffffffff167fc3d58168c5ae7397731d063d5bbf3d657854427343f4c083240f7aacaa2d0f628a8a60405161363a929190614a6d565b60405180910390a4613650848a8a86868a613821565b61365e848a8a8a8a8a613a7a565b505050505050505050565b600073ffffffffffffffffffffffffffffffffffffffff168473ffffffffffffffffffffffffffffffffffffffff16036136d8576040517f08c379a00000000000000000000000000000000000000000000000000000000081526004016136cf906159d4565b60405180910390fd5b60006136e2612cf3565b905060006136ef85613a00565b905060006136fc85613a00565b905061370d83600089858589613819565b8460008088815260200190815260200160002060008973ffffffffffffffffffffffffffffffffffffffff1673ffffffffffffffffffffffffffffffffffffffff168152602001908152602001600020600082825461376c9190614f24565b925050819055508673ffffffffffffffffffffffffffffffffffffffff16600073ffffffffffffffffffffffffffffffffffffffff168473ffffffffffffffffffffffffffffffffffffffff167fc3d58168c5ae7397731d063d5bbf3d657854427343f4c083240f7aacaa2d0f6289896040516137ea929190614a6d565b60405180910390a461380183600089858589613821565b61381083600089898989613a7a565b50505050505050565b505050505050565b505050505050565b6138488473ffffffffffffffffffffffffffffffffffffffff16613c51565b156139f8578373ffffffffffffffffffffffffffffffffffffffff1663bc197c8187878686866040518663ffffffff1660e01b815260040161388e959493929190615a49565b6020604051808303816000875af19250505080156138ca57506040513d601f19601f820116820180604052508101906138c79190615ac6565b60015b61396f576138d6615b00565b806308c379a00361393257506138ea615b22565b806138f55750613934565b806040517f08c379a00000000000000000000000000000000000000000000000000000000081526004016139299190613efe565b60405180910390fd5b505b6040517f08c379a000000000000000000000000000000000000000000000000000000000815260040161396690615c24565b60405180910390fd5b63bc197c8160e01b7bffffffffffffffffffffffffffffffffffffffffffffffffffffffff1916817bffffffffffffffffffffffffffffffffffffffffffffffffffffffff1916146139f6576040517f08c379a00000000000000000000000000000000000000000000000000000000081526004016139ed90615cb6565b60405180910390fd5b505b505050505050565b60606000600167ffffffffffffffff811115613a1f57613a1e613f25565b5b604051908082528060200260200182016040528015613a4d5781602001602082028036833780820191505090505b5090508281600081518110613a6557613a64614d69565b5b60200260200101818152505080915050919050565b613a998473ffffffffffffffffffffffffffffffffffffffff16613c51565b15613c49578373ffffffffffffffffffffffffffffffffffffffff1663f23a6e6187878686866040518663ffffffff1660e01b8152600401613adf959493929190615cd6565b6020604051808303816000875af1925050508015613b1b57506040513d601f19601f82011682018060405250810190613b189190615ac6565b60015b613bc057613b27615b00565b806308c379a003613b835750613b3b615b22565b80613b465750613b85565b806040517f08c379a0000000000000000000000000000000000000000000000000000000008152600401613b7a9190613efe565b60405180910390fd5b505b6040517f08c379a0000000000000000000000000000000000000000000000000000000008152600401613bb790615c24565b60405180910390fd5b63f23a6e6160e01b7bffffffffffffffffffffffffffffffffffffffffffffffffffffffff1916817bffffffffffffffffffffffffffffffffffffffffffffffffffffffff191614613c47576040517f08c379a0000000000000000000000000000000000000000000000000000000008152600401613c3e90615cb6565b60405180910390fd5b505b505050505050565b6000808273ffffffffffffffffffffffffffffffffffffffff163b119050919050565b6000604051905090565b600080fd5b600080fd5b600073ffffffffffffffffffffffffffffffffffffffff82169050919050565b6000613cb382613c88565b9050919050565b613cc381613ca8565b8114613cce57600080fd5b50565b600081359050613ce081613cba565b92915050565b6000819050919050565b613cf981613ce6565b8114613d0457600080fd5b50565b600081359050613d1681613cf0565b92915050565b60008060408385031215613d3357613d32613c7e565b5b6000613d4185828601613cd1565b9250506020613d5285828601613d07565b9150509250929050565b613d6581613ce6565b82525050565b6000602082019050613d806000830184613d5c565b92915050565b60007fffffffff0000000000000000000000000000000000000000000000000000000082169050919050565b613dbb81613d86565b8114613dc657600080fd5b50565b600081359050613dd881613db2565b92915050565b600060208284031215613df457613df3613c7e565b5b6000613e0284828501613dc9565b91505092915050565b60008115159050919050565b613e2081613e0b565b82525050565b6000602082019050613e3b6000830184613e17565b92915050565b600060208284031215613e5757613e56613c7e565b5b6000613e6584828501613d07565b91505092915050565b600081519050919050565b600082825260208201905092915050565b60005b83811015613ea8578082015181840152602081019050613e8d565b60008484015250505050565b6000601f19601f8301169050919050565b6000613ed082613e6e565b613eda8185613e79565b9350613eea818560208601613e8a565b613ef381613eb4565b840191505092915050565b60006020820190508181036000830152613f188184613ec5565b905092915050565b600080fd5b7f4e487b7100000000000000000000000000000000000000000000000000000000600052604160045260246000fd5b613f5d82613eb4565b810181811067ffffffffffffffff82111715613f7c57613f7b613f25565b5b80604052505050565b6000613f8f613c74565b9050613f9b8282613f54565b919050565b600067ffffffffffffffff821115613fbb57613fba613f25565b5b602082029050602081019050919050565b600080fd5b6000613fe4613fdf84613fa0565b613f85565b9050808382526020820190506020840283018581111561400757614006613fcc565b5b835b81811015614030578061401c8882613d07565b845260208401935050602081019050614009565b5050509392505050565b600082601f83011261404f5761404e613f20565b5b813561405f848260208601613fd1565b91505092915050565b600080fd5b600067ffffffffffffffff82111561408857614087613f25565b5b61409182613eb4565b9050602081019050919050565b82818337600083830152505050565b60006140c06140bb8461406d565b613f85565b9050828152602081018484840111156140dc576140db614068565b5b6140e784828561409e565b509392505050565b600082601f83011261410457614103613f20565b5b81356141148482602086016140ad565b91505092915050565b600080600080600060a0868803121561413957614138613c7e565b5b600061414788828901613cd1565b955050602061415888828901613cd1565b945050604086013567ffffffffffffffff81111561417957614178613c83565b5b6141858882890161403a565b935050606086013567ffffffffffffffff8111156141a6576141a5613c83565b5b6141b28882890161403a565b925050608086013567ffffffffffffffff8111156141d3576141d2613c83565b5b6141df888289016140ef565b9150509295509295909350565b6000806040838503121561420357614202613c7e565b5b600061421185828601613d07565b925050602061422285828601613d07565b9150509250929050565b600067ffffffffffffffff82111561424757614246613f25565b5b602082029050602081019050919050565b600061426b6142668461422c565b613f85565b9050808382526020820190506020840283018581111561428e5761428d613fcc565b5b835b818110156142b757806142a38882613cd1565b845260208401935050602081019050614290565b5050509392505050565b600082601f8301126142d6576142d5613f20565b5b81356142e6848260208601614258565b91505092915050565b6000806040838503121561430657614305613c7e565b5b600083013567ffffffffffffffff81111561432457614323613c83565b5b614330858286016142c1565b925050602083013567ffffffffffffffff81111561435157614350613c83565b5b61435d8582860161403a565b9150509250929050565b600081519050919050565b600082825260208201905092915050565b6000819050602082019050919050565b61439c81613ce6565b82525050565b60006143ae8383614393565b60208301905092915050565b6000602082019050919050565b60006143d282614367565b6143dc8185614372565b93506143e783614383565b8060005b838110156144185781516143ff88826143a2565b975061440a836143ba565b9250506001810190506143eb565b5085935050505092915050565b6000602082019050818103600083015261443f81846143c7565b905092915050565b6000610140820190508181036000830152614462818d613ec5565b9050614471602083018c613d5c565b61447e604083018b613d5c565b61448b606083018a613d5c565b6144986080830189613d5c565b6144a560a0830188613d5c565b6144b260c0830187613d5c565b6144bf60e0830186613d5c565b6144cd610100830185613d5c565b6144db610120830184613d5c565b9b9a5050505050505050505050565b6144f381613ca8565b82525050565b600060208201905061450e60008301846144ea565b92915050565b61451d81613e0b565b811461452857600080fd5b50565b60008135905061453a81614514565b92915050565b6000806040838503121561455757614556613c7e565b5b600061456585828601613cd1565b92505060206145768582860161452b565b9150509250929050565b61458981613d86565b82525050565b60006020820190506145a46000830184614580565b92915050565b600080604083850312156145c1576145c0613c7e565b5b60006145cf85828601613cd1565b92505060206145e085828601613cd1565b9150509250929050565b600080600080600060a0868803121561460657614605613c7e565b5b600061461488828901613cd1565b955050602061462588828901613cd1565b945050604061463688828901613d07565b935050606061464788828901613d07565b925050608086013567ffffffffffffffff81111561466857614667613c83565b5b614674888289016140ef565b9150509295509295909350565b600080fd5b60008083601f84011261469c5761469b613f20565b5b8235905067ffffffffffffffff8111156146b9576146b8614681565b5b6020830191508360018202830111156146d5576146d4613fcc565b5b9250929050565b60008060008060008060008060e0898b0312156146fc576146fb613c7e565b5b600061470a8b828c01613d07565b985050602061471b8b828c01613d07565b975050604061472c8b828c01613d07565b965050606089013567ffffffffffffffff81111561474d5761474c613c83565b5b6147598b828c01614686565b9550955050608061476c8b828c01613d07565b93505060a061477d8b828c01613d07565b92505060c061478e8b828c01613d07565b9150509295985092959890939650565b7f455243313135353a2061646472657373207a65726f206973206e6f742061207660008201527f616c6964206f776e657200000000000000000000000000000000000000000000602082015250565b60006147fa602a83613e79565b91506148058261479e565b604082019050919050565b60006020820190508181036000830152614829816147ed565b9050919050565b7f4e487b7100000000000000000000000000000000000000000000000000000000600052601160045260246000fd5b600061486a82613ce6565b915061487583613ce6565b925082820390508181111561488d5761488c614830565b5b92915050565b7f4e487b7100000000000000000000000000000000000000000000000000000000600052602260045260246000fd5b600060028204905060018216806148da57607f821691505b6020821081036148ed576148ec614893565b5b50919050565b60006148fe82613ce6565b915061490983613ce6565b925082820261491781613ce6565b9150828204841483151761492e5761492d614830565b5b5092915050565b7f4342430000000000000000000000000000000000000000000000000000000000600082015250565b600061496b600383613e79565b915061497682614935565b602082019050919050565b6000602082019050818103600083015261499a8161495e565b9050919050565b7f4d4f504e57000000000000000000000000000000000000000000000000000000600082015250565b60006149d7600583613e79565b91506149e2826149a1565b602082019050919050565b60006020820190508181036000830152614a06816149ca565b9050919050565b7f4e487b7100000000000000000000000000000000000000000000000000000000600052601260045260246000fd5b6000614a4782613ce6565b9150614a5283613ce6565b925082614a6257614a61614a0d565b5b828204905092915050565b6000604082019050614a826000830185613d5c565b614a8f6020830184613d5c565b9392505050565b7f455243313135353a2063616c6c6572206973206e6f7420746f6b656e206f776e60008201527f6572206f7220617070726f766564000000000000000000000000000000000000602082015250565b6000614af2602e83613e79565b9150614afd82614a96565b604082019050919050565b60006020820190508181036000830152614b2181614ae5565b9050919050565b7f4e544f0000000000000000000000000000000000000000000000000000000000600082015250565b6000614b5e600383613e79565b9150614b6982614b28565b602082019050919050565b60006020820190508181036000830152614b8d81614b51565b9050919050565b7f574e410000000000000000000000000000000000000000000000000000000000600082015250565b6000614bca600383613e79565b9150614bd582614b94565b602082019050919050565b60006020820190508181036000830152614bf981614bbd565b9050919050565b7f5741450000000000000000000000000000000000000000000000000000000000600082015250565b6000614c36600383613e79565b9150614c4182614c00565b602082019050919050565b60006020820190508181036000830152614c6581614c29565b9050919050565b6000604082019050614c8160008301856144ea565b614c8e6020830184613d5c565b9392505050565b600081519050614ca481614514565b92915050565b600060208284031215614cc057614cbf613c7e565b5b6000614cce84828501614c95565b91505092915050565b7f455243313135353a206163636f756e747320616e6420696473206c656e67746860008201527f206d69736d617463680000000000000000000000000000000000000000000000602082015250565b6000614d33602983613e79565b9150614d3e82614cd7565b604082019050919050565b60006020820190508181036000830152614d6281614d26565b9050919050565b7f4e487b7100000000000000000000000000000000000000000000000000000000600052603260045260246000fd5b6000614da382613ce6565b91507fffffffffffffffffffffffffffffffffffffffffffffffffffffffffffffffff8203614dd557614dd4614830565b5b600182019050919050565b7f504d444e41000000000000000000000000000000000000000000000000000000600082015250565b6000614e16600583613e79565b9150614e2182614de0565b602082019050919050565b60006020820190508181036000830152614e4581614e09565b9050919050565b7f4942000000000000000000000000000000000000000000000000000000000000600082015250565b6000614e82600283613e79565b9150614e8d82614e4c565b602082019050919050565b60006020820190508181036000830152614eb181614e75565b9050919050565b7f4951000000000000000000000000000000000000000000000000000000000000600082015250565b6000614eee600283613e79565b9150614ef982614eb8565b602082019050919050565b60006020820190508181036000830152614f1d81614ee1565b9050919050565b6000614f2f82613ce6565b9150614f3a83613ce6565b9250828201905080821115614f5257614f51614830565b5b92915050565b6000606082019050614f6d60008301866144ea565b614f7a60208301856144ea565b614f876040830184613d5c565b949350505050565b7f524e410000000000000000000000000000000000000000000000000000000000600082015250565b6000614fc5600383613e79565b9150614fd082614f8f565b602082019050919050565b60006020820190508181036000830152614ff481614fb8565b9050919050565b600060608201905061501060008301866144ea565b61501d6020830185613d5c565b61502a6040830184613d5c565b949350505050565b7f4d41444e41000000000000000000000000000000000000000000000000000000600082015250565b6000615068600583613e79565b915061507382615032565b602082019050919050565b600060208201905081810360008301526150978161505b565b9050919050565b7f4d41434e41000000000000000000000000000000000000000000000000000000600082015250565b60006150d4600583613e79565b91506150df8261509e565b602082019050919050565b60006020820190508181036000830152615103816150c7565b9050919050565b7f444e410000000000000000000000000000000000000000000000000000000000600082015250565b6000615140600383613e79565b915061514b8261510a565b602082019050919050565b6000602082019050818103600083015261516f81615133565b9050919050565b60008151905061518581613cf0565b92915050565b6000602082840312156151a1576151a0613c7e565b5b60006151af84828501615176565b91505092915050565b7f5746450000000000000000000000000000000000000000000000000000000000600082015250565b60006151ee600383613e79565b91506151f9826151b8565b602082019050919050565b6000602082019050818103600083015261521d816151e1565b9050919050565b7f4442364d00000000000000000000000000000000000000000000000000000000600082015250565b600061525a600483613e79565b915061526582615224565b602082019050919050565b600060208201905081810360008301526152898161524d565b9050919050565b7f4144413744000000000000000000000000000000000000000000000000000000600082015250565b60006152c6600583613e79565b91506152d182615290565b602082019050919050565b600060208201905081810360008301526152f5816152b9565b9050919050565b60008190508160005260206000209050919050565b60006020601f8301049050919050565b600082821b905092915050565b60006008830261535e7fffffffffffffffffffffffffffffffffffffffffffffffffffffffffffffffff82615321565b6153688683615321565b95508019841693508086168417925050509392505050565b6000819050919050565b60006153a56153a061539b84613ce6565b615380565b613ce6565b9050919050565b6000819050919050565b6153bf8361538a565b6153d36153cb826153ac565b84845461532e565b825550505050565b600090565b6153e86153db565b6153f38184846153b6565b505050565b5b818110156154175761540c6000826153e0565b6001810190506153f9565b5050565b601f82111561545c5761542d816152fc565b61543684615311565b81016020851015615445578190505b61545961545185615311565b8301826153f8565b50505b505050565b600082821c905092915050565b600061547f60001984600802615461565b1980831691505092915050565b6000615498838361546e565b9150826002028217905092915050565b6154b182613e6e565b67ffffffffffffffff8111156154ca576154c9613f25565b5b6154d482546148c2565b6154df82828561541b565b600060209050601f8311600181146155125760008415615500578287015190505b61550a858261548c565b865550615572565b601f198416615520866152fc565b60005b8281101561554857848901518255600182019150602085019450602081019050615523565b868310156155655784890151615561601f89168261546e565b8355505b6001600288020188555050505b505050505050565b600060808201905061558f6000830187613d5c565b61559c6020830186613d5c565b6155a96040830185613d5c565b6155b66060830184613d5c565b95945050505050565b7f455243313135353a2069647320616e6420616d6f756e7473206c656e6774682060008201527f6d69736d61746368000000000000000000000000000000000000000000000000602082015250565b600061561b602883613e79565b9150615626826155bf565b604082019050919050565b6000602082019050818103600083015261564a8161560e565b9050919050565b7f455243313135353a207472616e7366657220746f20746865207a65726f20616460008201527f6472657373000000000000000000000000000000000000000000000000000000602082015250565b60006156ad602583613e79565b91506156b882615651565b604082019050919050565b600060208201905081810360008301526156dc816156a0565b9050919050565b7f455243313135353a20696e73756666696369656e742062616c616e636520666f60008201527f72207472616e7366657200000000000000000000000000000000000000000000602082015250565b600061573f602a83613e79565b915061574a826156e3565b604082019050919050565b6000602082019050818103600083015261576e81615732565b9050919050565b6000604082019050818103600083015261578f81856143c7565b905081810360208301526157a381846143c7565b90509392505050565b7f455243313135353a206275726e2066726f6d20746865207a65726f206164647260008201527f6573730000000000000000000000000000000000000000000000000000000000602082015250565b6000615808602383613e79565b9150615813826157ac565b604082019050919050565b60006020820190508181036000830152615837816157fb565b9050919050565b7f455243313135353a206275726e20616d6f756e7420657863656564732062616c60008201527f616e636500000000000000000000000000000000000000000000000000000000602082015250565b600061589a602483613e79565b91506158a58261583e565b604082019050919050565b600060208201905081810360008301526158c98161588d565b9050919050565b7f455243313135353a2073657474696e6720617070726f76616c2073746174757360008201527f20666f722073656c660000000000000000000000000000000000000000000000602082015250565b600061592c602983613e79565b9150615937826158d0565b604082019050919050565b6000602082019050818103600083015261595b8161591f565b9050919050565b7f455243313135353a206d696e7420746f20746865207a65726f2061646472657360008201527f7300000000000000000000000000000000000000000000000000000000000000602082015250565b60006159be602183613e79565b91506159c982615962565b604082019050919050565b600060208201905081810360008301526159ed816159b1565b9050919050565b600081519050919050565b600082825260208201905092915050565b6000615a1b826159f4565b615a2581856159ff565b9350615a35818560208601613e8a565b615a3e81613eb4565b840191505092915050565b600060a082019050615a5e60008301886144ea565b615a6b60208301876144ea565b8181036040830152615a7d81866143c7565b90508181036060830152615a9181856143c7565b90508181036080830152615aa58184615a10565b90509695505050505050565b600081519050615ac081613db2565b92915050565b600060208284031215615adc57615adb613c7e565b5b6000615aea84828501615ab1565b91505092915050565b60008160e01c9050919050565b600060033d1115615b1f5760046000803e615b1c600051615af3565b90505b90565b600060443d10615baf57615b34613c74565b60043d036004823e80513d602482011167ffffffffffffffff82111715615b5c575050615baf565b808201805167ffffffffffffffff811115615b7a5750505050615baf565b80602083010160043d038501811115615b97575050505050615baf565b615ba682602001850186613f54565b82955050505050505b90565b7f455243313135353a207472616e7366657220746f206e6f6e2d4552433131353560008201527f526563656976657220696d706c656d656e746572000000000000000000000000602082015250565b6000615c0e603483613e79565b9150615c1982615bb2565b604082019050919050565b60006020820190508181036000830152615c3d81615c01565b9050919050565b7f455243313135353a204552433131353552656365697665722072656a6563746560008201527f6420746f6b656e73000000000000000000000000000000000000000000000000602082015250565b6000615ca0602883613e79565b9150615cab82615c44565b604082019050919050565b60006020820190508181036000830152615ccf81615c93565b9050919050565b600060a082019050615ceb60008301886144ea565b615cf860208301876144ea565b615d056040830186613d5c565b615d126060830185613d5c565b8181036080830152615d248184615a10565b9050969550505050505056fea264697066735822122045aa24e9f3c2dfd0f791e442468e45186cec7d83212cc4327e3406ab666e182b64736f6c63430008110033a26469706673582212200ab936cb437d66b77b7abe986e5506a96427e21db20f9985c1f61bb7fe0ecc2c64736f6c63430008110033",
  "linkReferences": {},
  "deployedLinkReferences": {}
}