{
  "_format": "hh-sol-artifact-1",
  "contractName": "CallableBondFactory",
  "sourceName": "contracts/CallableBondFactory.sol",
  "abi": [
    {
      "inputs": [
        {
          "internalType": "string",
          "name": "uri",
          "type": "string"
        },
        {
          "internalType": "address",
          "name": "token",
          "type": "address"
        },
        {
          "internalType": "address",
          "name": "deployer",
          "type": "address"
        }
      ],
      "stateMutability": "nonpayable",
      "type": "constructor"
    },
    {
      "anonymous": false,
      "inputs": [
        {
          "indexed": true,
          "internalType": "address",
          "name": "account",
          "type": "address"
        },
        {
          "indexed": true,
          "internalType": "address",
          "name": "operator",
          "type": "address"
        },
        {
          "indexed": false,
          "internalType": "bool",
          "name": "approved",
          "type": "bool"
        }
      ],
      "name": "ApprovalForAll",
      "type": "event"
    },
    {
      "anonymous": false,
      "inputs": [
        {
          "indexed": true,
          "internalType": "uint256",
          "name": "id",
          "type": "uint256"
        },
        {
          "indexed": false,
          "internalType": "uint256",
          "name": "couponRate",
          "type": "uint256"
        },
        {
          "indexed": false,
          "internalType": "uint256",
          "name": "couponRateOnCall",
          "type": "uint256"
        }
      ],
      "name": "Called",
      "type": "event"
    },
    {
      "anonymous": false,
      "inputs": [
        {
          "indexed": true,
          "internalType": "uint256",
          "name": "id",
          "type": "uint256"
        },
        {
          "indexed": false,
          "internalType": "uint256",
          "name": "totalDebt",
          "type": "uint256"
        },
        {
          "indexed": false,
          "internalType": "uint256",
          "name": "paidDebt",
          "type": "uint256"
        }
      ],
      "name": "Completed",
      "type": "event"
    },
    {
      "anonymous": false,
      "inputs": [
        {
          "indexed": true,
          "internalType": "uint256",
          "name": "id",
          "type": "uint256"
        },
        {
          "indexed": false,
          "internalType": "uint256",
          "name": "totalDebt",
          "type": "uint256"
        },
        {
          "indexed": false,
          "internalType": "uint256",
          "name": "paidDebt",
          "type": "uint256"
        }
      ],
      "name": "Defaulted",
      "type": "event"
    },
    {
      "anonymous": false,
      "inputs": [
        {
          "indexed": true,
          "internalType": "uint256",
          "name": "id",
          "type": "uint256"
        },
        {
          "indexed": false,
          "internalType": "uint256",
          "name": "bondQuantity",
          "type": "uint256"
        },
        {
          "indexed": false,
          "internalType": "uint256",
          "name": "tokenAmountPerBond",
          "type": "uint256"
        },
        {
          "indexed": false,
          "internalType": "uint256",
          "name": "couponRate",
          "type": "uint256"
        }
      ],
      "name": "Issued",
      "type": "event"
    },
    {
      "anonymous": false,
      "inputs": [
        {
          "indexed": true,
          "internalType": "address",
          "name": "operator",
          "type": "address"
        },
        {
          "indexed": true,
          "internalType": "address",
          "name": "from",
          "type": "address"
        },
        {
          "indexed": true,
          "internalType": "address",
          "name": "to",
          "type": "address"
        },
        {
          "indexed": false,
          "internalType": "uint256[]",
          "name": "ids",
          "type": "uint256[]"
        },
        {
          "indexed": false,
          "internalType": "uint256[]",
          "name": "values",
          "type": "uint256[]"
        }
      ],
      "name": "TransferBatch",
      "type": "event"
    },
    {
      "anonymous": false,
      "inputs": [
        {
          "indexed": true,
          "internalType": "address",
          "name": "operator",
          "type": "address"
        },
        {
          "indexed": true,
          "internalType": "address",
          "name": "from",
          "type": "address"
        },
        {
          "indexed": true,
          "internalType": "address",
          "name": "to",
          "type": "address"
        },
        {
          "indexed": false,
          "internalType": "uint256",
          "name": "id",
          "type": "uint256"
        },
        {
          "indexed": false,
          "internalType": "uint256",
          "name": "value",
          "type": "uint256"
        }
      ],
      "name": "TransferSingle",
      "type": "event"
    },
    {
      "anonymous": false,
      "inputs": [
        {
          "indexed": false,
          "internalType": "string",
          "name": "value",
          "type": "string"
        },
        {
          "indexed": true,
          "internalType": "uint256",
          "name": "id",
          "type": "uint256"
        }
      ],
      "name": "URI",
      "type": "event"
    },
    {
      "inputs": [
        {
          "internalType": "address",
          "name": "account",
          "type": "address"
        },
        {
          "internalType": "uint256",
          "name": "id",
          "type": "uint256"
        }
      ],
      "name": "balanceOf",
      "outputs": [
        {
          "internalType": "uint256",
          "name": "",
          "type": "uint256"
        }
      ],
      "stateMutability": "view",
      "type": "function"
    },
    {
      "inputs": [
        {
          "internalType": "address[]",
          "name": "accounts",
          "type": "address[]"
        },
        {
          "internalType": "uint256[]",
          "name": "ids",
          "type": "uint256[]"
        }
      ],
      "name": "balanceOfBatch",
      "outputs": [
        {
          "internalType": "uint256[]",
          "name": "",
          "type": "uint256[]"
        }
      ],
      "stateMutability": "view",
      "type": "function"
    },
    {
      "inputs": [],
      "name": "baseToken",
      "outputs": [
        {
          "internalType": "address",
          "name": "",
          "type": "address"
        }
      ],
      "stateMutability": "view",
      "type": "function"
    },
    {
      "inputs": [
        {
          "internalType": "uint256",
          "name": "id",
          "type": "uint256"
        }
      ],
      "name": "bondMetadata",
      "outputs": [
        {
          "internalType": "string",
          "name": "",
          "type": "string"
        },
        {
          "internalType": "uint256",
          "name": "",
          "type": "uint256"
        },
        {
          "internalType": "uint256",
          "name": "",
          "type": "uint256"
        },
        {
          "internalType": "uint256",
          "name": "",
          "type": "uint256"
        },
        {
          "internalType": "uint256",
          "name": "",
          "type": "uint256"
        },
        {
          "internalType": "uint256",
          "name": "",
          "type": "uint256"
        },
        {
          "internalType": "uint256",
          "name": "",
          "type": "uint256"
        },
        {
          "internalType": "uint256",
          "name": "",
          "type": "uint256"
        },
        {
          "internalType": "uint256",
          "name": "",
          "type": "uint256"
        },
        {
          "internalType": "uint256",
          "name": "",
          "type": "uint256"
        }
      ],
      "stateMutability": "view",
      "type": "function"
    },
    {
      "inputs": [
        {
          "internalType": "uint256",
          "name": "id",
          "type": "uint256"
        }
      ],
      "name": "call",
      "outputs": [],
      "stateMutability": "nonpayable",
      "type": "function"
    },
    {
      "inputs": [
        {
          "internalType": "uint256",
          "name": "id",
          "type": "uint256"
        }
      ],
      "name": "couponRate",
      "outputs": [
        {
          "internalType": "uint256",
          "name": "",
          "type": "uint256"
        }
      ],
      "stateMutability": "view",
      "type": "function"
    },
    {
      "inputs": [
        {
          "internalType": "uint256",
          "name": "id",
          "type": "uint256"
        }
      ],
      "name": "couponRateOnCall",
      "outputs": [
        {
          "internalType": "uint256",
          "name": "",
          "type": "uint256"
        }
      ],
      "stateMutability": "view",
      "type": "function"
    },
    {
      "inputs": [
        {
          "internalType": "uint256",
          "name": "id",
          "type": "uint256"
        },
        {
          "internalType": "uint256",
          "name": "tokenAmount",
          "type": "uint256"
        }
      ],
      "name": "deposit",
      "outputs": [],
      "stateMutability": "nonpayable",
      "type": "function"
    },
    {
      "inputs": [
        {
          "internalType": "uint256",
          "name": "id",
          "type": "uint256"
        }
      ],
      "name": "designatedTokenPool",
      "outputs": [
        {
          "internalType": "uint256",
          "name": "",
          "type": "uint256"
        }
      ],
      "stateMutability": "view",
      "type": "function"
    },
    {
      "inputs": [],
      "name": "fundsRaised",
      "outputs": [
        {
          "internalType": "uint256",
          "name": "",
          "type": "uint256"
        }
      ],
      "stateMutability": "view",
      "type": "function"
    },
    {
      "inputs": [
        {
          "internalType": "uint256",
          "name": "id",
          "type": "uint256"
        }
      ],
      "name": "hasReachedMaturity",
      "outputs": [
        {
          "internalType": "bool",
          "name": "",
          "type": "bool"
        }
      ],
      "stateMutability": "view",
      "type": "function"
    },
    {
      "inputs": [
        {
          "internalType": "uint256",
          "name": "id",
          "type": "uint256"
        }
      ],
      "name": "isActive",
      "outputs": [
        {
          "internalType": "bool",
          "name": "",
          "type": "bool"
        }
      ],
      "stateMutability": "view",
      "type": "function"
    },
    {
      "inputs": [
        {
          "internalType": "address",
          "name": "account",
          "type": "address"
        },
        {
          "internalType": "address",
          "name": "operator",
          "type": "address"
        }
      ],
      "name": "isApprovedForAll",
      "outputs": [
        {
          "internalType": "bool",
          "name": "",
          "type": "bool"
        }
      ],
      "stateMutability": "view",
      "type": "function"
    },
    {
      "inputs": [
        {
          "internalType": "uint256",
          "name": "id",
          "type": "uint256"
        }
      ],
      "name": "isCalled",
      "outputs": [
        {
          "internalType": "bool",
          "name": "",
          "type": "bool"
        }
      ],
      "stateMutability": "view",
      "type": "function"
    },
    {
      "inputs": [
        {
          "internalType": "uint256",
          "name": "id",
          "type": "uint256"
        }
      ],
      "name": "isCanceled",
      "outputs": [
        {
          "internalType": "bool",
          "name": "",
          "type": "bool"
        }
      ],
      "stateMutability": "view",
      "type": "function"
    },
    {
      "inputs": [
        {
          "internalType": "uint256",
          "name": "id",
          "type": "uint256"
        }
      ],
      "name": "isCompleted",
      "outputs": [
        {
          "internalType": "bool",
          "name": "",
          "type": "bool"
        }
      ],
      "stateMutability": "view",
      "type": "function"
    },
    {
      "inputs": [
        {
          "internalType": "uint256",
          "name": "id",
          "type": "uint256"
        }
      ],
      "name": "isCompletedInTheory",
      "outputs": [
        {
          "internalType": "bool",
          "name": "",
          "type": "bool"
        }
      ],
      "stateMutability": "view",
      "type": "function"
    },
    {
      "inputs": [
        {
          "internalType": "uint256",
          "name": "id",
          "type": "uint256"
        }
      ],
      "name": "isDefaulted",
      "outputs": [
        {
          "internalType": "bool",
          "name": "",
          "type": "bool"
        }
      ],
      "stateMutability": "view",
      "type": "function"
    },
    {
      "inputs": [
        {
          "internalType": "uint256",
          "name": "id",
          "type": "uint256"
        }
      ],
      "name": "isDefaultedInTheory",
      "outputs": [
        {
          "internalType": "bool",
          "name": "",
          "type": "bool"
        }
      ],
      "stateMutability": "view",
      "type": "function"
    },
    {
      "inputs": [
        {
          "internalType": "uint256",
          "name": "id",
          "type": "uint256"
        }
      ],
      "name": "isFulfilled",
      "outputs": [
        {
          "internalType": "bool",
          "name": "",
          "type": "bool"
        }
      ],
      "stateMutability": "view",
      "type": "function"
    },
    {
      "inputs": [
        {
          "internalType": "uint256",
          "name": "id",
          "type": "uint256"
        }
      ],
      "name": "isFullyRedeemed",
      "outputs": [
        {
          "internalType": "bool",
          "name": "",
          "type": "bool"
        }
      ],
      "stateMutability": "view",
      "type": "function"
    },
    {
      "inputs": [
        {
          "internalType": "uint256",
          "name": "bondQuantity",
          "type": "uint256"
        },
        {
          "internalType": "uint256",
          "name": "minPurchasedQuantity",
          "type": "uint256"
        },
        {
          "internalType": "uint256",
          "name": "tokenAmountPerBond",
          "type": "uint256"
        },
        {
          "internalType": "string",
          "name": "ticker",
          "type": "string"
        },
        {
          "internalType": "uint256",
          "name": "durationDays",
          "type": "uint256"
        },
        {
          "internalType": "uint256",
          "name": "activeDurationInDays",
          "type": "uint256"
        },
        {
          "internalType": "uint256",
          "name": "rate",
          "type": "uint256"
        },
        {
          "internalType": "bytes",
          "name": "data",
          "type": "bytes"
        }
      ],
      "name": "issue",
      "outputs": [
        {
          "internalType": "uint256",
          "name": "id",
          "type": "uint256"
        }
      ],
      "stateMutability": "nonpayable",
      "type": "function"
    },
    {
      "inputs": [
        {
          "internalType": "uint256",
          "name": "id",
          "type": "uint256"
        }
      ],
      "name": "markAsCompleted",
      "outputs": [],
      "stateMutability": "nonpayable",
      "type": "function"
    },
    {
      "inputs": [
        {
          "internalType": "uint256",
          "name": "id",
          "type": "uint256"
        }
      ],
      "name": "markAsDefaulted",
      "outputs": [],
      "stateMutability": "nonpayable",
      "type": "function"
    },
    {
      "inputs": [
        {
          "internalType": "uint256",
          "name": "id",
          "type": "uint256"
        }
      ],
      "name": "minObligationPeriod",
      "outputs": [
        {
          "internalType": "uint256",
          "name": "",
          "type": "uint256"
        }
      ],
      "stateMutability": "view",
      "type": "function"
    },
    {
      "inputs": [],
      "name": "owner",
      "outputs": [
        {
          "internalType": "address",
          "name": "",
          "type": "address"
        }
      ],
      "stateMutability": "view",
      "type": "function"
    },
    {
      "inputs": [
        {
          "internalType": "uint256",
          "name": "id",
          "type": "uint256"
        }
      ],
      "name": "poolAmount",
      "outputs": [
        {
          "internalType": "uint256",
          "name": "",
          "type": "uint256"
        }
      ],
      "stateMutability": "view",
      "type": "function"
    },
    {
      "inputs": [
        {
          "internalType": "uint256",
          "name": "id",
          "type": "uint256"
        }
      ],
      "name": "principal",
      "outputs": [
        {
          "internalType": "uint256",
          "name": "",
          "type": "uint256"
        }
      ],
      "stateMutability": "view",
      "type": "function"
    },
    {
      "inputs": [
        {
          "internalType": "uint256",
          "name": "id",
          "type": "uint256"
        }
      ],
      "name": "principalWithInterest",
      "outputs": [
        {
          "internalType": "uint256",
          "name": "",
          "type": "uint256"
        }
      ],
      "stateMutability": "view",
      "type": "function"
    },
    {
      "inputs": [
        {
          "internalType": "uint256",
          "name": "id",
          "type": "uint256"
        },
        {
          "internalType": "uint256",
          "name": "bondQuantity",
          "type": "uint256"
        }
      ],
      "name": "purchase",
      "outputs": [],
      "stateMutability": "nonpayable",
      "type": "function"
    },
    {
      "inputs": [
        {
          "internalType": "uint256",
          "name": "id",
          "type": "uint256"
        },
        {
          "internalType": "uint256",
          "name": "bondQuantity",
          "type": "uint256"
        }
      ],
      "name": "redeem",
      "outputs": [],
      "stateMutability": "nonpayable",
      "type": "function"
    },
    {
      "inputs": [
        {
          "internalType": "uint256",
          "name": "id",
          "type": "uint256"
        },
        {
          "internalType": "uint256",
          "name": "bondQuantity",
          "type": "uint256"
        }
      ],
      "name": "redeemCanceled",
      "outputs": [],
      "stateMutability": "nonpayable",
      "type": "function"
    },
    {
      "inputs": [
        {
          "internalType": "uint256",
          "name": "id",
          "type": "uint256"
        },
        {
          "internalType": "uint256",
          "name": "bondQuantity",
          "type": "uint256"
        }
      ],
      "name": "redeemDefaulted",
      "outputs": [],
      "stateMutability": "nonpayable",
      "type": "function"
    },
    {
      "inputs": [
        {
          "internalType": "uint256",
          "name": "id",
          "type": "uint256"
        }
      ],
      "name": "remainingQuantity",
      "outputs": [
        {
          "internalType": "uint256",
          "name": "",
          "type": "uint256"
        }
      ],
      "stateMutability": "view",
      "type": "function"
    },
    {
      "inputs": [
        {
          "internalType": "address",
          "name": "from",
          "type": "address"
        },
        {
          "internalType": "address",
          "name": "to",
          "type": "address"
        },
        {
          "internalType": "uint256[]",
          "name": "ids",
          "type": "uint256[]"
        },
        {
          "internalType": "uint256[]",
          "name": "amounts",
          "type": "uint256[]"
        },
        {
          "internalType": "bytes",
          "name": "data",
          "type": "bytes"
        }
      ],
      "name": "safeBatchTransferFrom",
      "outputs": [],
      "stateMutability": "nonpayable",
      "type": "function"
    },
    {
      "inputs": [
        {
          "internalType": "address",
          "name": "from",
          "type": "address"
        },
        {
          "internalType": "address",
          "name": "to",
          "type": "address"
        },
        {
          "internalType": "uint256",
          "name": "id",
          "type": "uint256"
        },
        {
          "internalType": "uint256",
          "name": "amount",
          "type": "uint256"
        },
        {
          "internalType": "bytes",
          "name": "data",
          "type": "bytes"
        }
      ],
      "name": "safeTransferFrom",
      "outputs": [],
      "stateMutability": "nonpayable",
      "type": "function"
    },
    {
      "inputs": [
        {
          "internalType": "address",
          "name": "operator",
          "type": "address"
        },
        {
          "internalType": "bool",
          "name": "approved",
          "type": "bool"
        }
      ],
      "name": "setApprovalForAll",
      "outputs": [],
      "stateMutability": "nonpayable",
      "type": "function"
    },
    {
      "inputs": [
        {
          "internalType": "bytes4",
          "name": "interfaceId",
          "type": "bytes4"
        }
      ],
      "name": "supportsInterface",
      "outputs": [
        {
          "internalType": "bool",
          "name": "",
          "type": "bool"
        }
      ],
      "stateMutability": "view",
      "type": "function"
    },
    {
      "inputs": [
        {
          "internalType": "uint256",
          "name": "id",
          "type": "uint256"
        }
      ],
      "name": "timeElapsed",
      "outputs": [
        {
          "internalType": "uint256",
          "name": "",
          "type": "uint256"
        }
      ],
      "stateMutability": "view",
      "type": "function"
    },
    {
      "inputs": [
        {
          "internalType": "uint256",
          "name": "id",
          "type": "uint256"
        }
      ],
      "name": "timeRemainingToEndOfActive",
      "outputs": [
        {
          "internalType": "uint256",
          "name": "",
          "type": "uint256"
        }
      ],
      "stateMutability": "view",
      "type": "function"
    },
    {
      "inputs": [
        {
          "internalType": "uint256",
          "name": "id",
          "type": "uint256"
        }
      ],
      "name": "timeRemainingToMaturity",
      "outputs": [
        {
          "internalType": "uint256",
          "name": "",
          "type": "uint256"
        }
      ],
      "stateMutability": "view",
      "type": "function"
    },
    {
      "inputs": [],
      "name": "tvl",
      "outputs": [
        {
          "internalType": "uint256",
          "name": "",
          "type": "uint256"
        }
      ],
      "stateMutability": "view",
      "type": "function"
    },
    {
      "inputs": [
        {
          "internalType": "uint256",
          "name": "",
          "type": "uint256"
        }
      ],
      "name": "uri",
      "outputs": [
        {
          "internalType": "string",
          "name": "",
          "type": "string"
        }
      ],
      "stateMutability": "view",
      "type": "function"
    },
    {
      "inputs": [
        {
          "internalType": "uint256",
          "name": "id",
          "type": "uint256"
        },
        {
          "internalType": "uint256",
          "name": "tokenAmount",
          "type": "uint256"
        }
      ],
      "name": "withdraw",
      "outputs": [],
      "stateMutability": "nonpayable",
      "type": "function"
    },
    {
      "inputs": [
        {
          "internalType": "uint256",
          "name": "id",
          "type": "uint256"
        }
      ],
      "name": "withdrawExcess",
      "outputs": [],
      "stateMutability": "nonpayable",
      "type": "function"
    }
  ],
  "bytecode": "0x60c060405260006003553480156200001657600080fd5b50604051620061b3380380620061b383398181016040528101906200003c9190620002d3565b828282826200005181620000c660201b60201c565b508073ffffffffffffffffffffffffffffffffffffffff1660808173ffffffffffffffffffffffffffffffffffffffff16815250508173ffffffffffffffffffffffffffffffffffffffff1660a08173ffffffffffffffffffffffffffffffffffffffff168152505050505050505062000680565b8060029081620000d7919062000599565b5050565b6000604051905090565b600080fd5b600080fd5b600080fd5b600080fd5b6000601f19601f8301169050919050565b7f4e487b7100000000000000000000000000000000000000000000000000000000600052604160045260246000fd5b6200014482620000f9565b810181811067ffffffffffffffff821117156200016657620001656200010a565b5b80604052505050565b60006200017b620000db565b905062000189828262000139565b919050565b600067ffffffffffffffff821115620001ac57620001ab6200010a565b5b620001b782620000f9565b9050602081019050919050565b60005b83811015620001e4578082015181840152602081019050620001c7565b60008484015250505050565b60006200020762000201846200018e565b6200016f565b905082815260208101848484011115620002265762000225620000f4565b5b62000233848285620001c4565b509392505050565b600082601f830112620002535762000252620000ef565b5b815162000265848260208601620001f0565b91505092915050565b600073ffffffffffffffffffffffffffffffffffffffff82169050919050565b60006200029b826200026e565b9050919050565b620002ad816200028e565b8114620002b957600080fd5b50565b600081519050620002cd81620002a2565b92915050565b600080600060608486031215620002ef57620002ee620000e5565b5b600084015167ffffffffffffffff81111562000310576200030f620000ea565b5b6200031e868287016200023b565b93505060206200033186828701620002bc565b92505060406200034486828701620002bc565b9150509250925092565b600081519050919050565b7f4e487b7100000000000000000000000000000000000000000000000000000000600052602260045260246000fd5b60006002820490506001821680620003a157607f821691505b602082108103620003b757620003b662000359565b5b50919050565b60008190508160005260206000209050919050565b60006020601f8301049050919050565b600082821b905092915050565b600060088302620004217fffffffffffffffffffffffffffffffffffffffffffffffffffffffffffffffff82620003e2565b6200042d8683620003e2565b95508019841693508086168417925050509392505050565b6000819050919050565b6000819050919050565b60006200047a620004746200046e8462000445565b6200044f565b62000445565b9050919050565b6000819050919050565b620004968362000459565b620004ae620004a58262000481565b848454620003ef565b825550505050565b600090565b620004c5620004b6565b620004d28184846200048b565b505050565b5b81811015620004fa57620004ee600082620004bb565b600181019050620004d8565b5050565b601f82111562000549576200051381620003bd565b6200051e84620003d2565b810160208510156200052e578190505b620005466200053d85620003d2565b830182620004d7565b50505b505050565b600082821c905092915050565b60006200056e600019846008026200054e565b1980831691505092915050565b60006200058983836200055b565b9150826002028217905092915050565b620005a4826200034e565b67ffffffffffffffff811115620005c057620005bf6200010a565b5b620005cc825462000388565b620005d9828285620004fe565b600060209050601f831160018114620006115760008415620005fc578287015190505b6200060885826200057b565b86555062000678565b601f1984166200062186620003bd565b60005b828110156200064b5784890151825560018201915060208501945060208101905062000624565b868310156200066b578489015162000667601f8916826200055b565b8355505b6001600288020188555050505b505050505050565b60805160a051615aab62000708600039600081816111f90152818161164c0152818161189901528181611db401528181611f810152818161215e015281816123a4015281816124a4015281816127a60152818161284d0152612a42015260008181610fb701528181611b50015281816124cc0152818161264c01526128ec0152615aab6000f3fe608060405234801561001057600080fd5b506004361061027e5760003560e01c806388bdc0831161015c578063b09f2b1c116100ce578063e2bbb15811610087578063e2bbb158146108de578063e5328e06146108fa578063e755ddd714610918578063e985e9c514610934578063f0d8100a14610964578063f242432a146109945761027e565b8063b09f2b1c146107f8578063c0a6026c14610814578063c365301014610830578063c55dae6314610860578063c7bc57301461087e578063d3b7811b146108ae5761027e565b8063932a8de011610120578063932a8de014610714578063a22cb46514610744578063a53e17b014610760578063a874302214610790578063a996ef08146107ac578063abac75e1146107c85761027e565b806388bdc0831461062d57806389c2bb1f1461065d5780638c3526c21461068d5780638da5cb5b146106c65780638f0dbf77146106e45761027e565b806339e3af9b116101f55780636ff80d93116101b95780636ff80d931461053557806370876c981461056557806377e2a08b146105815780637a41984b146105b15780637cbc2373146105e157806382afd23b146105fd5761027e565b806339e3af9b1461046b578063441a3e701461049b5780634e1273f4146104b7578063549493bb146104e75780636681b9fd146105175761027e565b80630e89341c116102475780630e89341c1461037357806314f29493146103a35780632b096926146103d35780632eb2c2d6146103ef5780632f3ad61f1461040b5780633097afb81461043b5761027e565b8062fdd58e1461028357806301ffc9a7146102b357806302159497146102e357806308913ce8146103135780630914902014610343575b600080fd5b61029d60048036038101906102989190613b2a565b6109b0565b6040516102aa9190613b79565b60405180910390f35b6102cd60048036038101906102c89190613bec565b610a78565b6040516102da9190613c34565b60405180910390f35b6102fd60048036038101906102f89190613c4f565b610b5a565b60405161030a9190613b79565b60405180910390f35b61032d60048036038101906103289190613c4f565b610b77565b60405161033a9190613b79565b60405180910390f35b61035d60048036038101906103589190613c4f565b610ba2565b60405161036a9190613c34565b60405180910390f35b61038d60048036038101906103889190613c4f565b610bd8565b60405161039a9190613d0c565b60405180910390f35b6103bd60048036038101906103b89190613c4f565b610c6c565b6040516103ca9190613b79565b60405180910390f35b6103ed60048036038101906103e89190613c4f565b610caa565b005b61040960048036038101906104049190613f2b565b610e8c565b005b61042560048036038101906104209190613c4f565b610f2d565b6040516104329190613c34565b60405180910390f35b61045560048036038101906104509190613c4f565b610f57565b6040516104629190613c34565b60405180910390f35b61048560048036038101906104809190613c4f565b610f90565b6040516104929190613c34565b60405180910390f35b6104b560048036038101906104b09190613ffa565b610fb5565b005b6104d160048036038101906104cc91906140fd565b61129a565b6040516104de9190614233565b60405180910390f35b61050160048036038101906104fc9190613c4f565b6113b3565b60405161050e9190613c34565b60405180910390f35b61051f6113e5565b60405161052c9190613b79565b60405180910390f35b61054f600480360381019061054a9190613c4f565b6113ef565b60405161055c9190613c34565b60405180910390f35b61057f600480360381019061057a9190613ffa565b611427565b005b61059b60048036038101906105969190613c4f565b6116f1565b6040516105a89190613b79565b60405180910390f35b6105cb60048036038101906105c69190613c4f565b611781565b6040516105d89190613c34565b60405180910390f35b6105fb60048036038101906105f69190613ffa565b6117ab565b005b61061760048036038101906106129190613c4f565b611965565b6040516106249190613c34565b60405180910390f35b61064760048036038101906106429190613c4f565b611988565b6040516106549190613b79565b60405180910390f35b61067760048036038101906106729190613c4f565b6119bb565b6040516106849190613b79565b60405180910390f35b6106a760048036038101906106a29190613c4f565b6119d8565b6040516106bd9a99989796959493929190614255565b60405180910390f35b6106ce611b4c565b6040516106db9190614307565b60405180910390f35b6106fe60048036038101906106f99190613c4f565b611b74565b60405161070b9190613c34565b60405180910390f35b61072e60048036038101906107299190613c4f565b611b96565b60405161073b9190613b79565b60405180910390f35b61075e6004803603810190610759919061434e565b611bd4565b005b61077a60048036038101906107759190613c4f565b611bea565b6040516107879190613c34565b60405180910390f35b6107aa60048036038101906107a59190613c4f565b611c14565b005b6107c660048036038101906107c19190613ffa565b611e93565b005b6107e260048036038101906107dd9190613c4f565b61204d565b6040516107ef9190613b79565b60405180910390f35b610812600480360381019061080d9190613ffa565b61206d565b005b61082e60048036038101906108299190613c4f565b61222a565b005b61084a60048036038101906108459190613c4f565b612483565b6040516108579190613b79565b60405180910390f35b6108686124a0565b6040516108759190614307565b60405180910390f35b610898600480360381019061089391906143e9565b6124c8565b6040516108a59190613b79565b60405180910390f35b6108c860048036038101906108c39190613c4f565b612617565b6040516108d59190613b79565b60405180910390f35b6108f860048036038101906108f39190613ffa565b61264a565b005b610902612849565b60405161090f9190613b79565b60405180910390f35b610932600480360381019061092d9190613c4f565b6128ea565b005b61094e600480360381019061094991906144db565b612af5565b60405161095b9190613c34565b60405180910390f35b61097e60048036038101906109799190613c4f565b612b89565b60405161098b9190613b79565b60405180910390f35b6109ae60048036038101906109a9919061451b565b612ba6565b005b60008073ffffffffffffffffffffffffffffffffffffffff168373ffffffffffffffffffffffffffffffffffffffff1603610a20576040517f08c379a0000000000000000000000000000000000000000000000000000000008152600401610a1790614624565b60405180910390fd5b60008083815260200190815260200160002060008473ffffffffffffffffffffffffffffffffffffffff1673ffffffffffffffffffffffffffffffffffffffff16815260200190815260200160002054905092915050565b60007fd9b67a26000000000000000000000000000000000000000000000000000000007bffffffffffffffffffffffffffffffffffffffffffffffffffffffff1916827bffffffffffffffffffffffffffffffffffffffffffffffffffffffff19161480610b4357507f0e89341c000000000000000000000000000000000000000000000000000000007bffffffffffffffffffffffffffffffffffffffffffffffffffffffff1916827bffffffffffffffffffffffffffffffffffffffffffffffffffffffff1916145b80610b535750610b5282612c47565b5b9050919050565b600060086000838152602001908152602001600020549050919050565b6000600560008381526020019081526020016000206002015442610b9b9190614673565b9050919050565b60006005600083815260200190815260200160002060080154600660008481526020019081526020016000205410159050919050565b606060028054610be7906146d6565b80601f0160208091040260200160405190810160405280929190818152602001828054610c13906146d6565b8015610c605780601f10610c3557610100808354040283529160200191610c60565b820191906000526020600020905b815481529060010190602001808311610c4357829003601f168201915b50505050509050919050565b600060066000838152602001908152602001600020546005600084815260200190815260200160002060010154610ca39190614707565b9050919050565b610cb381611781565b15610cf3576040517f08c379a0000000000000000000000000000000000000000000000000000000008152600401610cea90614795565b60405180910390fd5b62015180600d600083815260200190815260200160002054610d159190614707565b610d1e82610b77565b11610d5e576040517f08c379a0000000000000000000000000000000000000000000000000000000008152600401610d5590614827565b60405180910390fd5b620151806005600083815260200190815260200160002060060154610d839190614707565b610d8c82610b77565b6005600084815260200190815260200160002060090154610dad9190614707565b610db79190614876565b600e6000838152602001908152602001600020819055506001600f600083815260200190815260200160002060006101000a81548160ff0219169083151502179055506001600c600083815260200190815260200160002060006101000a81548160ff021916908315150217905550807fb580a16317cf9efa50cf987c976c3fb7de7eaf3149b9dd5b8a576a043042f44c6005600084815260200190815260200160002060090154600e600085815260200190815260200160002054604051610e819291906148a7565b60405180910390a250565b610e94612cb1565b73ffffffffffffffffffffffffffffffffffffffff168573ffffffffffffffffffffffffffffffffffffffff161480610eda5750610ed985610ed4612cb1565b612af5565b5b610f19576040517f08c379a0000000000000000000000000000000000000000000000000000000008152600401610f1090614942565b60405180910390fd5b610f268585858585612cb9565b5050505050565b6000600b600083815260200190815260200160002060009054906101000a900460ff169050919050565b6000610f6282611b74565b8015610f895750610f72826116f1565b600860008481526020019081526020016000205410155b9050919050565b6000610f9b82611965565b158015610fae5750610fac82610ba2565b155b9050919050565b7f000000000000000000000000000000000000000000000000000000000000000073ffffffffffffffffffffffffffffffffffffffff163373ffffffffffffffffffffffffffffffffffffffff1614611043576040517f08c379a000000000000000000000000000000000000000000000000000000000815260040161103a906149ae565b60405180910390fd5b61104c82611965565b1561108c576040517f08c379a000000000000000000000000000000000000000000000000000000000815260040161108390614a1a565b60405180910390fd5b61109582610f90565b156110d5576040517f08c379a00000000000000000000000000000000000000000000000000000000081526004016110cc90614a1a565b60405180910390fd5b6110de82611781565b1561111e576040517f08c379a000000000000000000000000000000000000000000000000000000000815260040161111590614aac565b60405180910390fd5b61112782610f2d565b806111375750611136826113ef565b5b15611177576040517f08c379a000000000000000000000000000000000000000000000000000000000815260040161116e90614b3e565b60405180910390fd5b60086000838152602001908152602001600020548111156111cd576040517f08c379a00000000000000000000000000000000000000000000000000000000081526004016111c490614bd0565b60405180910390fd5b806008600084815260200190815260200160002060008282546111f09190614673565b925050819055507f000000000000000000000000000000000000000000000000000000000000000073ffffffffffffffffffffffffffffffffffffffff1663a9059cbb33836040518363ffffffff1660e01b8152600401611252929190614bf0565b6020604051808303816000875af1158015611271573d6000803e3d6000fd5b505050506040513d601f19601f820116820180604052508101906112959190614c2e565b505050565b606081518351146112e0576040517f08c379a00000000000000000000000000000000000000000000000000000000081526004016112d790614ccd565b60405180910390fd5b6000835167ffffffffffffffff8111156112fd576112fc613d33565b5b60405190808252806020026020018201604052801561132b5781602001602082028036833780820191505090505b50905060005b84518110156113a8576113788582815181106113505761134f614ced565b5b602002602001015185838151811061136b5761136a614ced565b5b60200260200101516109b0565b82828151811061138b5761138a614ced565b5b602002602001018181525050806113a190614d1c565b9050611331565b508091505092915050565b600060066000838152602001908152602001600020546007600084815260200190815260200160002054149050919050565b6000600454905090565b60006113fa82611b74565b8015611420575061140a826116f1565b6008600084815260200190815260200160002054105b9050919050565b61143082611965565b61146f576040517f08c379a000000000000000000000000000000000000000000000000000000000815260040161146690614db0565b60405180910390fd5b8061147983611b96565b10156114ba576040517f08c379a00000000000000000000000000000000000000000000000000000000081526004016114b190614e42565b60405180910390fd5b600060056000848152602001908152602001600020604051806101400160405290816000820180546114eb906146d6565b80601f0160208091040260200160405190810160405280929190818152602001828054611517906146d6565b80156115645780601f1061153957610100808354040283529160200191611564565b820191906000526020600020905b81548152906001019060200180831161154757829003601f168201915b505050505081526020016001820154815260200160028201548152602001600382015481526020016004820154815260200160058201548152602001600682015481526020016007820154815260200160088201548152602001600982015481525050905060008160200151836115db9190614707565b9050826006600086815260200190815260200160002060008282546116009190614e62565b925050819055508060086000868152602001908152602001600020600082825461162a9190614e62565b9250508190555080600460008282546116439190614e62565b925050819055507f000000000000000000000000000000000000000000000000000000000000000073ffffffffffffffffffffffffffffffffffffffff166323b872dd3330846040518463ffffffff1660e01b81526004016116a793929190614e96565b6020604051808303816000875af11580156116c6573d6000803e3d6000fd5b505050506040513d601f19601f820116820180604052508101906116ea9190614c2e565b5050505050565b60008060056000848152602001908152602001600020600901549050600f600084815260200190815260200160002060009054906101000a900460ff161561173f5761173c836119bb565b90505b670de0b6b3a76400008161175285610c6c565b61175c9190614707565b6117669190614876565b61176f84610c6c565b6117799190614e62565b915050919050565b6000600c600083815260200190815260200160002060009054906101000a900460ff169050919050565b6117b482611781565b6117f3576040517f08c379a00000000000000000000000000000000000000000000000000000000081526004016117ea90614f19565b60405180910390fd5b806117fe33846109b0565b101561183f576040517f08c379a000000000000000000000000000000000000000000000000000000000815260040161183690614f85565b60405180910390fd5b61184a338383612fda565b8060076000848152602001908152602001600020600082825461186d9190614e62565b925050819055506000600a600084815260200190815260200160002054826118959190614707565b90507f000000000000000000000000000000000000000000000000000000000000000073ffffffffffffffffffffffffffffffffffffffff1663a9059cbb33836040518363ffffffff1660e01b81526004016118f2929190614bf0565b6020604051808303816000875af1158015611911573d6000803e3d6000fd5b505050506040513d601f19601f820116820180604052508101906119359190614c2e565b50806008600085815260200190815260200160002060008282546119599190614673565b92505081905550505050565b600060056000838152602001908152602001600020600401544211159050919050565b600061199382610b77565b60056000848152602001908152602001600020600501546119b49190614673565b9050919050565b6000600e6000838152602001908152602001600020549050919050565b6060600080600080600080600080600080600560008d815260200190815260200160002060405180610140016040529081600082018054611a18906146d6565b80601f0160208091040260200160405190810160405280929190818152602001828054611a44906146d6565b8015611a915780601f10611a6657610100808354040283529160200191611a91565b820191906000526020600020905b815481529060010190602001808311611a7457829003601f168201915b5050505050815260200160018201548152602001600282015481526020016003820154815260200160048201548152602001600582015481526020016006820154815260200160078201548152602001600882015481526020016009820154815250509050806000015181602001518260400151836060015184608001518560a001518660c001518760e001518861010001518961012001519a509a509a509a509a509a509a509a509a509a50509193959799509193959799565b60007f0000000000000000000000000000000000000000000000000000000000000000905090565b6000600560008381526020019081526020016000206003015442119050919050565b600060066000838152602001908152602001600020546005600084815260200190815260200160002060070154611bcd9190614673565b9050919050565b611be6611bdf612cb1565b8383613220565b5050565b6000600f600083815260200190815260200160002060009054906101000a900460ff169050919050565b611c1d81611781565b158015611c305750611c2e81610f2d565b155b8015611c415750611c40816113ef565b5b611c80576040517f08c379a0000000000000000000000000000000000000000000000000000000008152600401611c7790614ff1565b60405180910390fd5b6000611c8b826116f1565b905060006103e86008600085815260200190815260200160002054611cb09190614876565b90506000816008600086815260200190815260200160002054611cd39190614673565b9050600660008581526020019081526020016000205481611cf49190614876565b6009600086815260200190815260200160002081905550600060066000868152602001908152602001600020546009600087815260200190815260200160002054611d3f9190614707565b82611d4a9190614673565b905060008184611d5a9190614e62565b905080600860008881526020019081526020016000206000828254611d7f9190614673565b925050819055506001600b600088815260200190815260200160002060006101000a81548160ff0219169083151502179055507f000000000000000000000000000000000000000000000000000000000000000073ffffffffffffffffffffffffffffffffffffffff1663a9059cbb33836040518363ffffffff1660e01b8152600401611e0d929190614bf0565b6020604051808303816000875af1158015611e2c573d6000803e3d6000fd5b505050506040513d601f19601f82011682018060405250810190611e509190614c2e565b50857fc4f17a65d54873d57229ea5f59c4ddec592d095bc17581372676402c8228b9cd8685604051611e839291906148a7565b60405180910390a2505050505050565b611e9c82610f2d565b611edb576040517f08c379a0000000000000000000000000000000000000000000000000000000008152600401611ed290614ff1565b60405180910390fd5b80611ee633846109b0565b1015611f27576040517f08c379a0000000000000000000000000000000000000000000000000000000008152600401611f1e90614f85565b60405180910390fd5b611f32338383612fda565b80600760008481526020019081526020016000206000828254611f559190614e62565b925050819055506000600960008481526020019081526020016000205482611f7d9190614707565b90507f000000000000000000000000000000000000000000000000000000000000000073ffffffffffffffffffffffffffffffffffffffff1663a9059cbb33836040518363ffffffff1660e01b8152600401611fda929190614bf0565b6020604051808303816000875af1158015611ff9573d6000803e3d6000fd5b505050506040513d601f19601f8201168201806040525081019061201d9190614c2e565b50806008600085815260200190815260200160002060008282546120419190614673565b92505081905550505050565b600060056000838152602001908152602001600020600901549050919050565b61207682610f90565b6120b5576040517f08c379a00000000000000000000000000000000000000000000000000000000081526004016120ac9061505d565b60405180910390fd5b806120c033846109b0565b1015612101576040517f08c379a00000000000000000000000000000000000000000000000000000000081526004016120f890614f85565b60405180910390fd5b61210c338383612fda565b8060076000848152602001908152602001600020600082825461212f9190614e62565b92505081905550600060056000848152602001908152602001600020600101548261215a9190614707565b90507f000000000000000000000000000000000000000000000000000000000000000073ffffffffffffffffffffffffffffffffffffffff1663a9059cbb33836040518363ffffffff1660e01b81526004016121b7929190614bf0565b6020604051808303816000875af11580156121d6573d6000803e3d6000fd5b505050506040513d601f19601f820116820180604052508101906121fa9190614c2e565b508060086000858152602001908152602001600020600082825461221e9190614673565b92505081905550505050565b61223381610f2d565b158015612246575061224481611781565b155b8015612257575061225681610f57565b5b612296576040517f08c379a000000000000000000000000000000000000000000000000000000000815260040161228d906150c9565b60405180910390fd5b60006122a1826116f1565b905060006103e8826122b39190614876565b9050600081836122c39190614673565b90506006600085815260200190815260200160002054816122e49190614876565b600a60008681526020019081526020016000208190555060006006600086815260200190815260200160002054600a60008781526020019081526020016000205461232f9190614707565b8261233a9190614673565b90506000818461234a9190614e62565b90508060086000888152602001908152602001600020600082825461236f9190614673565b925050819055506001600c600088815260200190815260200160002060006101000a81548160ff0219169083151502179055507f000000000000000000000000000000000000000000000000000000000000000073ffffffffffffffffffffffffffffffffffffffff1663a9059cbb33836040518363ffffffff1660e01b81526004016123fd929190614bf0565b6020604051808303816000875af115801561241c573d6000803e3d6000fd5b505050506040513d601f19601f820116820180604052508101906124409190614c2e565b50857fac2eeaf45d1b75aed6b3285cda3efb3c382cce02ba313558bbb90be57f8843e486856040516124739291906148a7565b60405180910390a2505050505050565b6000600d6000838152602001908152602001600020549050919050565b60007f0000000000000000000000000000000000000000000000000000000000000000905090565b60007f000000000000000000000000000000000000000000000000000000000000000073ffffffffffffffffffffffffffffffffffffffff163373ffffffffffffffffffffffffffffffffffffffff1614612558576040517f08c379a000000000000000000000000000000000000000000000000000000000815260040161254f906149ae565b60405180910390fd5b3073ffffffffffffffffffffffffffffffffffffffff1663c7bc57308b8b8b8b8b8b8b8b8b6040518a63ffffffff1660e01b81526004016125a19998979695949392919061516b565b6020604051808303816000875af11580156125c0573d6000803e3d6000fd5b505050506040513d601f19601f820116820180604052508101906125e4919061520e565b90506002856125f39190614876565b600d6000838152602001908152602001600020819055509998505050505050505050565b600061262282610b77565b60056000848152602001908152602001600020600601546126439190614673565b9050919050565b7f000000000000000000000000000000000000000000000000000000000000000073ffffffffffffffffffffffffffffffffffffffff163373ffffffffffffffffffffffffffffffffffffffff16146126d8576040517f08c379a00000000000000000000000000000000000000000000000000000000081526004016126cf906149ae565b60405180910390fd5b6126e182610f2d565b806126f157506126f0826113ef565b5b15612731576040517f08c379a000000000000000000000000000000000000000000000000000000000815260040161272890615287565b60405180910390fd5b61273a82611781565b1561277a576040517f08c379a0000000000000000000000000000000000000000000000000000000008152600401612771906152f3565b60405180910390fd5b8060086000848152602001908152602001600020600082825461279d9190614e62565b925050819055507f000000000000000000000000000000000000000000000000000000000000000073ffffffffffffffffffffffffffffffffffffffff166323b872dd3330846040518463ffffffff1660e01b815260040161280193929190614e96565b6020604051808303816000875af1158015612820573d6000803e3d6000fd5b505050506040513d601f19601f820116820180604052508101906128449190614c2e565b505050565b60007f000000000000000000000000000000000000000000000000000000000000000073ffffffffffffffffffffffffffffffffffffffff166370a08231306040518263ffffffff1660e01b81526004016128a49190614307565b602060405180830381865afa1580156128c1573d6000803e3d6000fd5b505050506040513d601f19601f820116820180604052508101906128e5919061520e565b905090565b7f000000000000000000000000000000000000000000000000000000000000000073ffffffffffffffffffffffffffffffffffffffff163373ffffffffffffffffffffffffffffffffffffffff1614612978576040517f08c379a000000000000000000000000000000000000000000000000000000000815260040161296f906149ae565b60405180910390fd5b61298181611781565b80156129925750612991816113b3565b5b6129d1576040517f08c379a00000000000000000000000000000000000000000000000000000000081526004016129c89061535f565b60405180910390fd5b6000600860008381526020019081526020016000205411612a27576040517f08c379a0000000000000000000000000000000000000000000000000000000008152600401612a1e906153cb565b60405180910390fd5b600060086000838152602001908152602001600020819055507f000000000000000000000000000000000000000000000000000000000000000073ffffffffffffffffffffffffffffffffffffffff1663a9059cbb3360086000858152602001908152602001600020546040518363ffffffff1660e01b8152600401612aae929190614bf0565b6020604051808303816000875af1158015612acd573d6000803e3d6000fd5b505050506040513d601f19601f82011682018060405250810190612af19190614c2e565b5050565b6000600160008473ffffffffffffffffffffffffffffffffffffffff1673ffffffffffffffffffffffffffffffffffffffff16815260200190815260200160002060008373ffffffffffffffffffffffffffffffffffffffff1673ffffffffffffffffffffffffffffffffffffffff16815260200190815260200160002060009054906101000a900460ff16905092915050565b600060086000838152602001908152602001600020549050919050565b612bae612cb1565b73ffffffffffffffffffffffffffffffffffffffff168573ffffffffffffffffffffffffffffffffffffffff161480612bf45750612bf385612bee612cb1565b612af5565b5b612c33576040517f08c379a0000000000000000000000000000000000000000000000000000000008152600401612c2a90614942565b60405180910390fd5b612c40858585858561338c565b5050505050565b60007f01ffc9a7000000000000000000000000000000000000000000000000000000007bffffffffffffffffffffffffffffffffffffffffffffffffffffffff1916827bffffffffffffffffffffffffffffffffffffffffffffffffffffffff1916149050919050565b600033905090565b8151835114612cfd576040517f08c379a0000000000000000000000000000000000000000000000000000000008152600401612cf49061545d565b60405180910390fd5b600073ffffffffffffffffffffffffffffffffffffffff168473ffffffffffffffffffffffffffffffffffffffff1603612d6c576040517f08c379a0000000000000000000000000000000000000000000000000000000008152600401612d63906154ef565b60405180910390fd5b6000612d76612cb1565b9050612d86818787878787613627565b60005b8451811015612f37576000858281518110612da757612da6614ced565b5b602002602001015190506000858381518110612dc657612dc5614ced565b5b60200260200101519050600080600084815260200190815260200160002060008b73ffffffffffffffffffffffffffffffffffffffff1673ffffffffffffffffffffffffffffffffffffffff16815260200190815260200160002054905081811015612e67576040517f08c379a0000000000000000000000000000000000000000000000000000000008152600401612e5e90615581565b60405180910390fd5b81810360008085815260200190815260200160002060008c73ffffffffffffffffffffffffffffffffffffffff1673ffffffffffffffffffffffffffffffffffffffff168152602001908152602001600020819055508160008085815260200190815260200160002060008b73ffffffffffffffffffffffffffffffffffffffff1673ffffffffffffffffffffffffffffffffffffffff1681526020019081526020016000206000828254612f1c9190614e62565b9250508190555050505080612f3090614d1c565b9050612d89565b508473ffffffffffffffffffffffffffffffffffffffff168673ffffffffffffffffffffffffffffffffffffffff168273ffffffffffffffffffffffffffffffffffffffff167f4a39dc06d4c0dbc64b70af90fd698a233a518aa5d07e595d983b8c0526c8f7fb8787604051612fae9291906155a1565b60405180910390a4612fc481878787878761362f565b612fd2818787878787613637565b505050505050565b600073ffffffffffffffffffffffffffffffffffffffff168373ffffffffffffffffffffffffffffffffffffffff1603613049576040517f08c379a00000000000000000000000000000000000000000000000000000000081526004016130409061564a565b60405180910390fd5b6000613053612cb1565b905060006130608461380e565b9050600061306d8461380e565b905061308d83876000858560405180602001604052806000815250613627565b600080600087815260200190815260200160002060008873ffffffffffffffffffffffffffffffffffffffff1673ffffffffffffffffffffffffffffffffffffffff16815260200190815260200160002054905084811015613124576040517f08c379a000000000000000000000000000000000000000000000000000000000815260040161311b906156dc565b60405180910390fd5b84810360008088815260200190815260200160002060008973ffffffffffffffffffffffffffffffffffffffff1673ffffffffffffffffffffffffffffffffffffffff16815260200190815260200160002081905550600073ffffffffffffffffffffffffffffffffffffffff168773ffffffffffffffffffffffffffffffffffffffff168573ffffffffffffffffffffffffffffffffffffffff167fc3d58168c5ae7397731d063d5bbf3d657854427343f4c083240f7aacaa2d0f6289896040516131f19291906148a7565b60405180910390a46132178488600086866040518060200160405280600081525061362f565b50505050505050565b8173ffffffffffffffffffffffffffffffffffffffff168373ffffffffffffffffffffffffffffffffffffffff160361328e576040517f08c379a00000000000000000000000000000000000000000000000000000000081526004016132859061576e565b60405180910390fd5b80600160008573ffffffffffffffffffffffffffffffffffffffff1673ffffffffffffffffffffffffffffffffffffffff16815260200190815260200160002060008473ffffffffffffffffffffffffffffffffffffffff1673ffffffffffffffffffffffffffffffffffffffff16815260200190815260200160002060006101000a81548160ff0219169083151502179055508173ffffffffffffffffffffffffffffffffffffffff168373ffffffffffffffffffffffffffffffffffffffff167f17307eab39ab6107e8899845ad3d59bd9653f200f220920489ca2b5937696c318360405161337f9190613c34565b60405180910390a3505050565b600073ffffffffffffffffffffffffffffffffffffffff168473ffffffffffffffffffffffffffffffffffffffff16036133fb576040517f08c379a00000000000000000000000000000000000000000000000000000000081526004016133f2906154ef565b60405180910390fd5b6000613405612cb1565b905060006134128561380e565b9050600061341f8561380e565b905061342f838989858589613627565b600080600088815260200190815260200160002060008a73ffffffffffffffffffffffffffffffffffffffff1673ffffffffffffffffffffffffffffffffffffffff168152602001908152602001600020549050858110156134c6576040517f08c379a00000000000000000000000000000000000000000000000000000000081526004016134bd90615581565b60405180910390fd5b85810360008089815260200190815260200160002060008b73ffffffffffffffffffffffffffffffffffffffff1673ffffffffffffffffffffffffffffffffffffffff168152602001908152602001600020819055508560008089815260200190815260200160002060008a73ffffffffffffffffffffffffffffffffffffffff1673ffffffffffffffffffffffffffffffffffffffff168152602001908152602001600020600082825461357b9190614e62565b925050819055508773ffffffffffffffffffffffffffffffffffffffff168973ffffffffffffffffffffffffffffffffffffffff168573ffffffffffffffffffffffffffffffffffffffff167fc3d58168c5ae7397731d063d5bbf3d657854427343f4c083240f7aacaa2d0f628a8a6040516135f89291906148a7565b60405180910390a461360e848a8a86868a61362f565b61361c848a8a8a8a8a613888565b505050505050505050565b505050505050565b505050505050565b6136568473ffffffffffffffffffffffffffffffffffffffff16613a5f565b15613806578373ffffffffffffffffffffffffffffffffffffffff1663bc197c8187878686866040518663ffffffff1660e01b815260040161369c95949392919061578e565b6020604051808303816000875af19250505080156136d857506040513d601f19601f820116820180604052508101906136d5919061580b565b60015b61377d576136e4615845565b806308c379a00361374057506136f8615867565b806137035750613742565b806040517f08c379a00000000000000000000000000000000000000000000000000000000081526004016137379190613d0c565b60405180910390fd5b505b6040517f08c379a000000000000000000000000000000000000000000000000000000000815260040161377490615969565b60405180910390fd5b63bc197c8160e01b7bffffffffffffffffffffffffffffffffffffffffffffffffffffffff1916817bffffffffffffffffffffffffffffffffffffffffffffffffffffffff191614613804576040517f08c379a00000000000000000000000000000000000000000000000000000000081526004016137fb906159fb565b60405180910390fd5b505b505050505050565b60606000600167ffffffffffffffff81111561382d5761382c613d33565b5b60405190808252806020026020018201604052801561385b5781602001602082028036833780820191505090505b509050828160008151811061387357613872614ced565b5b60200260200101818152505080915050919050565b6138a78473ffffffffffffffffffffffffffffffffffffffff16613a5f565b15613a57578373ffffffffffffffffffffffffffffffffffffffff1663f23a6e6187878686866040518663ffffffff1660e01b81526004016138ed959493929190615a1b565b6020604051808303816000875af192505050801561392957506040513d601f19601f82011682018060405250810190613926919061580b565b60015b6139ce57613935615845565b806308c379a0036139915750613949615867565b806139545750613993565b806040517f08c379a00000000000000000000000000000000000000000000000000000000081526004016139889190613d0c565b60405180910390fd5b505b6040517f08c379a00000000000000000000000000000000000000000000000000000000081526004016139c590615969565b60405180910390fd5b63f23a6e6160e01b7bffffffffffffffffffffffffffffffffffffffffffffffffffffffff1916817bffffffffffffffffffffffffffffffffffffffffffffffffffffffff191614613a55576040517f08c379a0000000000000000000000000000000000000000000000000000000008152600401613a4c906159fb565b60405180910390fd5b505b505050505050565b6000808273ffffffffffffffffffffffffffffffffffffffff163b119050919050565b6000604051905090565b600080fd5b600080fd5b600073ffffffffffffffffffffffffffffffffffffffff82169050919050565b6000613ac182613a96565b9050919050565b613ad181613ab6565b8114613adc57600080fd5b50565b600081359050613aee81613ac8565b92915050565b6000819050919050565b613b0781613af4565b8114613b1257600080fd5b50565b600081359050613b2481613afe565b92915050565b60008060408385031215613b4157613b40613a8c565b5b6000613b4f85828601613adf565b9250506020613b6085828601613b15565b9150509250929050565b613b7381613af4565b82525050565b6000602082019050613b8e6000830184613b6a565b92915050565b60007fffffffff0000000000000000000000000000000000000000000000000000000082169050919050565b613bc981613b94565b8114613bd457600080fd5b50565b600081359050613be681613bc0565b92915050565b600060208284031215613c0257613c01613a8c565b5b6000613c1084828501613bd7565b91505092915050565b60008115159050919050565b613c2e81613c19565b82525050565b6000602082019050613c496000830184613c25565b92915050565b600060208284031215613c6557613c64613a8c565b5b6000613c7384828501613b15565b91505092915050565b600081519050919050565b600082825260208201905092915050565b60005b83811015613cb6578082015181840152602081019050613c9b565b60008484015250505050565b6000601f19601f8301169050919050565b6000613cde82613c7c565b613ce88185613c87565b9350613cf8818560208601613c98565b613d0181613cc2565b840191505092915050565b60006020820190508181036000830152613d268184613cd3565b905092915050565b600080fd5b7f4e487b7100000000000000000000000000000000000000000000000000000000600052604160045260246000fd5b613d6b82613cc2565b810181811067ffffffffffffffff82111715613d8a57613d89613d33565b5b80604052505050565b6000613d9d613a82565b9050613da98282613d62565b919050565b600067ffffffffffffffff821115613dc957613dc8613d33565b5b602082029050602081019050919050565b600080fd5b6000613df2613ded84613dae565b613d93565b90508083825260208201905060208402830185811115613e1557613e14613dda565b5b835b81811015613e3e5780613e2a8882613b15565b845260208401935050602081019050613e17565b5050509392505050565b600082601f830112613e5d57613e5c613d2e565b5b8135613e6d848260208601613ddf565b91505092915050565b600080fd5b600067ffffffffffffffff821115613e9657613e95613d33565b5b613e9f82613cc2565b9050602081019050919050565b82818337600083830152505050565b6000613ece613ec984613e7b565b613d93565b905082815260208101848484011115613eea57613ee9613e76565b5b613ef5848285613eac565b509392505050565b600082601f830112613f1257613f11613d2e565b5b8135613f22848260208601613ebb565b91505092915050565b600080600080600060a08688031215613f4757613f46613a8c565b5b6000613f5588828901613adf565b9550506020613f6688828901613adf565b945050604086013567ffffffffffffffff811115613f8757613f86613a91565b5b613f9388828901613e48565b935050606086013567ffffffffffffffff811115613fb457613fb3613a91565b5b613fc088828901613e48565b925050608086013567ffffffffffffffff811115613fe157613fe0613a91565b5b613fed88828901613efd565b9150509295509295909350565b6000806040838503121561401157614010613a8c565b5b600061401f85828601613b15565b925050602061403085828601613b15565b9150509250929050565b600067ffffffffffffffff82111561405557614054613d33565b5b602082029050602081019050919050565b60006140796140748461403a565b613d93565b9050808382526020820190506020840283018581111561409c5761409b613dda565b5b835b818110156140c557806140b18882613adf565b84526020840193505060208101905061409e565b5050509392505050565b600082601f8301126140e4576140e3613d2e565b5b81356140f4848260208601614066565b91505092915050565b6000806040838503121561411457614113613a8c565b5b600083013567ffffffffffffffff81111561413257614131613a91565b5b61413e858286016140cf565b925050602083013567ffffffffffffffff81111561415f5761415e613a91565b5b61416b85828601613e48565b9150509250929050565b600081519050919050565b600082825260208201905092915050565b6000819050602082019050919050565b6141aa81613af4565b82525050565b60006141bc83836141a1565b60208301905092915050565b6000602082019050919050565b60006141e082614175565b6141ea8185614180565b93506141f583614191565b8060005b8381101561422657815161420d88826141b0565b9750614218836141c8565b9250506001810190506141f9565b5085935050505092915050565b6000602082019050818103600083015261424d81846141d5565b905092915050565b6000610140820190508181036000830152614270818d613cd3565b905061427f602083018c613b6a565b61428c604083018b613b6a565b614299606083018a613b6a565b6142a66080830189613b6a565b6142b360a0830188613b6a565b6142c060c0830187613b6a565b6142cd60e0830186613b6a565b6142db610100830185613b6a565b6142e9610120830184613b6a565b9b9a5050505050505050505050565b61430181613ab6565b82525050565b600060208201905061431c60008301846142f8565b92915050565b61432b81613c19565b811461433657600080fd5b50565b60008135905061434881614322565b92915050565b6000806040838503121561436557614364613a8c565b5b600061437385828601613adf565b925050602061438485828601614339565b9150509250929050565b600080fd5b60008083601f8401126143a9576143a8613d2e565b5b8235905067ffffffffffffffff8111156143c6576143c561438e565b5b6020830191508360018202830111156143e2576143e1613dda565b5b9250929050565b60008060008060008060008060006101008a8c03121561440c5761440b613a8c565b5b600061441a8c828d01613b15565b995050602061442b8c828d01613b15565b985050604061443c8c828d01613b15565b97505060608a013567ffffffffffffffff81111561445d5761445c613a91565b5b6144698c828d01614393565b9650965050608061447c8c828d01613b15565b94505060a061448d8c828d01613b15565b93505060c061449e8c828d01613b15565b92505060e08a013567ffffffffffffffff8111156144bf576144be613a91565b5b6144cb8c828d01613efd565b9150509295985092959850929598565b600080604083850312156144f2576144f1613a8c565b5b600061450085828601613adf565b925050602061451185828601613adf565b9150509250929050565b600080600080600060a0868803121561453757614536613a8c565b5b600061454588828901613adf565b955050602061455688828901613adf565b945050604061456788828901613b15565b935050606061457888828901613b15565b925050608086013567ffffffffffffffff81111561459957614598613a91565b5b6145a588828901613efd565b9150509295509295909350565b7f455243313135353a2061646472657373207a65726f206973206e6f742061207660008201527f616c6964206f776e657200000000000000000000000000000000000000000000602082015250565b600061460e602a83613c87565b9150614619826145b2565b604082019050919050565b6000602082019050818103600083015261463d81614601565b9050919050565b7f4e487b7100000000000000000000000000000000000000000000000000000000600052601160045260246000fd5b600061467e82613af4565b915061468983613af4565b92508282039050818111156146a1576146a0614644565b5b92915050565b7f4e487b7100000000000000000000000000000000000000000000000000000000600052602260045260246000fd5b600060028204905060018216806146ee57607f821691505b602082108103614701576147006146a7565b5b50919050565b600061471282613af4565b915061471d83613af4565b925082820261472b81613af4565b9150828204841483151761474257614741614644565b5b5092915050565b7f426f6e6420697320636f6d706c65746564000000000000000000000000000000600082015250565b600061477f601183613c87565b915061478a82614749565b602082019050919050565b600060208201905081810360008301526147ae81614772565b9050919050565b7f4d696e696d756d206f626c69676174696f6e20706572696f64206e6f7420726560008201527f6163686564000000000000000000000000000000000000000000000000000000602082015250565b6000614811602583613c87565b915061481c826147b5565b604082019050919050565b6000602082019050818103600083015261484081614804565b9050919050565b7f4e487b7100000000000000000000000000000000000000000000000000000000600052601260045260246000fd5b600061488182613af4565b915061488c83613af4565b92508261489c5761489b614847565b5b828204905092915050565b60006040820190506148bc6000830185613b6a565b6148c96020830184613b6a565b9392505050565b7f455243313135353a2063616c6c6572206973206e6f7420746f6b656e206f776e60008201527f6572206f7220617070726f766564000000000000000000000000000000000000602082015250565b600061492c602e83613c87565b9150614937826148d0565b604082019050919050565b6000602082019050818103600083015261495b8161491f565b9050919050565b7f43616c6c6572206973206e6f7420746865206f776e6572000000000000000000600082015250565b6000614998601783613c87565b91506149a382614962565b602082019050919050565b600060208201905081810360008301526149c78161498b565b9050919050565b7f5769746864726177206e6f7420616c6c6f776564207768656e20616374697665600082015250565b6000614a04602083613c87565b9150614a0f826149ce565b602082019050919050565b60006020820190508181036000830152614a33816149f7565b9050919050565b7f5769746864726177206e6f7420616c6c6f77656420616674657220636f6d706c60008201527f6574696f6e000000000000000000000000000000000000000000000000000000602082015250565b6000614a96602583613c87565b9150614aa182614a3a565b604082019050919050565b60006020820190508181036000830152614ac581614a89565b9050919050565b7f5769746864726177206e6f7420616c6c6f776564207768656e2064656661756c60008201527f7465640000000000000000000000000000000000000000000000000000000000602082015250565b6000614b28602383613c87565b9150614b3382614acc565b604082019050919050565b60006020820190508181036000830152614b5781614b1b565b9050919050565b7f5769746864726177616c20746f6b656e20616d6f756e7420657863656564732060008201527f746f6b656e20616d6f756e7420696e20636f6e74726163740000000000000000602082015250565b6000614bba603883613c87565b9150614bc582614b5e565b604082019050919050565b60006020820190508181036000830152614be981614bad565b9050919050565b6000604082019050614c0560008301856142f8565b614c126020830184613b6a565b9392505050565b600081519050614c2881614322565b92915050565b600060208284031215614c4457614c43613a8c565b5b6000614c5284828501614c19565b91505092915050565b7f455243313135353a206163636f756e747320616e6420696473206c656e67746860008201527f206d69736d617463680000000000000000000000000000000000000000000000602082015250565b6000614cb7602983613c87565b9150614cc282614c5b565b604082019050919050565b60006020820190508181036000830152614ce681614caa565b9050919050565b7f4e487b7100000000000000000000000000000000000000000000000000000000600052603260045260246000fd5b6000614d2782613af4565b91507fffffffffffffffffffffffffffffffffffffffffffffffffffffffffffffffff8203614d5957614d58614644565b5b600182019050919050565b7f426f6e6420697320696e61637469766500000000000000000000000000000000600082015250565b6000614d9a601083613c87565b9150614da582614d64565b602082019050919050565b60006020820190508181036000830152614dc981614d8d565b9050919050565b7f496e73756666696369656e7420626f6e64207175616e746974792072656d616960008201527f6e696e6700000000000000000000000000000000000000000000000000000000602082015250565b6000614e2c602483613c87565b9150614e3782614dd0565b604082019050919050565b60006020820190508181036000830152614e5b81614e1f565b9050919050565b6000614e6d82613af4565b9150614e7883613af4565b9250828201905080821115614e9057614e8f614644565b5b92915050565b6000606082019050614eab60008301866142f8565b614eb860208301856142f8565b614ec56040830184613b6a565b949350505050565b7f426f6e64206973206e6f7420636f6d706c657465640000000000000000000000600082015250565b6000614f03601583613c87565b9150614f0e82614ecd565b602082019050919050565b60006020820190508181036000830152614f3281614ef6565b9050919050565b7f496e73756666696369656e7420626f6e64207175616e74697479000000000000600082015250565b6000614f6f601a83613c87565b9150614f7a82614f39565b602082019050919050565b60006020820190508181036000830152614f9e81614f62565b9050919050565b7f426f6e64206973206e6f742064656661756c7465640000000000000000000000600082015250565b6000614fdb601583613c87565b9150614fe682614fa5565b602082019050919050565b6000602082019050818103600083015261500a81614fce565b9050919050565b7f426f6e64206973206e6f742063616e63656c6564000000000000000000000000600082015250565b6000615047601483613c87565b915061505282615011565b602082019050919050565b600060208201905081810360008301526150768161503a565b9050919050565b7f426f6e6420697320616c726561647920636f6d706c6574656400000000000000600082015250565b60006150b3601983613c87565b91506150be8261507d565b602082019050919050565b600060208201905081810360008301526150e2816150a6565b9050919050565b60006150f58385613c87565b9350615102838584613eac565b61510b83613cc2565b840190509392505050565b600081519050919050565b600082825260208201905092915050565b600061513d82615116565b6151478185615121565b9350615157818560208601613c98565b61516081613cc2565b840191505092915050565b600061010082019050615181600083018c613b6a565b61518e602083018b613b6a565b61519b604083018a613b6a565b81810360608301526151ae81888a6150e9565b90506151bd6080830187613b6a565b6151ca60a0830186613b6a565b6151d760c0830185613b6a565b81810360e08301526151e98184615132565b90509a9950505050505050505050565b60008151905061520881613afe565b92915050565b60006020828403121561522457615223613a8c565b5b6000615232848285016151f9565b91505092915050565b7f626f6e642069732064656661756c746564000000000000000000000000000000600082015250565b6000615271601183613c87565b915061527c8261523b565b602082019050919050565b600060208201905081810360008301526152a081615264565b9050919050565b7f626f6e6420697320636f6d706c65746564000000000000000000000000000000600082015250565b60006152dd601183613c87565b91506152e8826152a7565b602082019050919050565b6000602082019050818103600083015261530c816152d0565b9050919050565b7f43616e6e6f742077697468647261772065786365737300000000000000000000600082015250565b6000615349601683613c87565b915061535482615313565b602082019050919050565b600060208201905081810360008301526153788161533c565b9050919050565b7f43616e6e6f742077697468647261772066726f6d20656d70747920706f6f6c00600082015250565b60006153b5601f83613c87565b91506153c08261537f565b602082019050919050565b600060208201905081810360008301526153e4816153a8565b9050919050565b7f455243313135353a2069647320616e6420616d6f756e7473206c656e6774682060008201527f6d69736d61746368000000000000000000000000000000000000000000000000602082015250565b6000615447602883613c87565b9150615452826153eb565b604082019050919050565b600060208201905081810360008301526154768161543a565b9050919050565b7f455243313135353a207472616e7366657220746f20746865207a65726f20616460008201527f6472657373000000000000000000000000000000000000000000000000000000602082015250565b60006154d9602583613c87565b91506154e48261547d565b604082019050919050565b60006020820190508181036000830152615508816154cc565b9050919050565b7f455243313135353a20696e73756666696369656e742062616c616e636520666f60008201527f72207472616e7366657200000000000000000000000000000000000000000000602082015250565b600061556b602a83613c87565b91506155768261550f565b604082019050919050565b6000602082019050818103600083015261559a8161555e565b9050919050565b600060408201905081810360008301526155bb81856141d5565b905081810360208301526155cf81846141d5565b90509392505050565b7f455243313135353a206275726e2066726f6d20746865207a65726f206164647260008201527f6573730000000000000000000000000000000000000000000000000000000000602082015250565b6000615634602383613c87565b915061563f826155d8565b604082019050919050565b6000602082019050818103600083015261566381615627565b9050919050565b7f455243313135353a206275726e20616d6f756e7420657863656564732062616c60008201527f616e636500000000000000000000000000000000000000000000000000000000602082015250565b60006156c6602483613c87565b91506156d18261566a565b604082019050919050565b600060208201905081810360008301526156f5816156b9565b9050919050565b7f455243313135353a2073657474696e6720617070726f76616c2073746174757360008201527f20666f722073656c660000000000000000000000000000000000000000000000602082015250565b6000615758602983613c87565b9150615763826156fc565b604082019050919050565b600060208201905081810360008301526157878161574b565b9050919050565b600060a0820190506157a360008301886142f8565b6157b060208301876142f8565b81810360408301526157c281866141d5565b905081810360608301526157d681856141d5565b905081810360808301526157ea8184615132565b90509695505050505050565b60008151905061580581613bc0565b92915050565b60006020828403121561582157615820613a8c565b5b600061582f848285016157f6565b91505092915050565b60008160e01c9050919050565b600060033d11156158645760046000803e615861600051615838565b90505b90565b600060443d106158f457615879613a82565b60043d036004823e80513d602482011167ffffffffffffffff821117156158a15750506158f4565b808201805167ffffffffffffffff8111156158bf57505050506158f4565b80602083010160043d0385018111156158dc5750505050506158f4565b6158eb82602001850186613d62565b82955050505050505b90565b7f455243313135353a207472616e7366657220746f206e6f6e2d4552433131353560008201527f526563656976657220696d706c656d656e746572000000000000000000000000602082015250565b6000615953603483613c87565b915061595e826158f7565b604082019050919050565b6000602082019050818103600083015261598281615946565b9050919050565b7f455243313135353a204552433131353552656365697665722072656a6563746560008201527f6420746f6b656e73000000000000000000000000000000000000000000000000602082015250565b60006159e5602883613c87565b91506159f082615989565b604082019050919050565b60006020820190508181036000830152615a14816159d8565b9050919050565b600060a082019050615a3060008301886142f8565b615a3d60208301876142f8565b615a4a6040830186613b6a565b615a576060830185613b6a565b8181036080830152615a698184615132565b9050969550505050505056fea2646970667358221220184c7307331c5bc3051939c9daf0ceb7b373d897a90c5afea85ff8a1083039ea64736f6c63430008110033",
  "linkReferences": {},
  "deployedLinkReferences": {}
}