{
  "_format": "hh-sol-artifact-1",
  "contractName": "CallableBondFactory",
  "sourceName": "contracts/CallableBondFactory.sol",
  "abi": [
    {
      "inputs": [
        {
          "internalType": "string",
          "name": "uri",
          "type": "string"
        },
        {
          "internalType": "address",
          "name": "token",
          "type": "address"
        },
        {
          "internalType": "address",
          "name": "deployer",
          "type": "address"
        }
      ],
      "stateMutability": "nonpayable",
      "type": "constructor"
    },
    {
      "anonymous": false,
      "inputs": [
        {
          "indexed": true,
          "internalType": "address",
          "name": "account",
          "type": "address"
        },
        {
          "indexed": true,
          "internalType": "address",
          "name": "operator",
          "type": "address"
        },
        {
          "indexed": false,
          "internalType": "bool",
          "name": "approved",
          "type": "bool"
        }
      ],
      "name": "ApprovalForAll",
      "type": "event"
    },
    {
      "anonymous": false,
      "inputs": [
        {
          "indexed": true,
          "internalType": "uint256",
          "name": "id",
          "type": "uint256"
        },
        {
          "indexed": false,
          "internalType": "uint256",
          "name": "couponRate",
          "type": "uint256"
        },
        {
          "indexed": false,
          "internalType": "uint256",
          "name": "couponRateOnCall",
          "type": "uint256"
        }
      ],
      "name": "Called",
      "type": "event"
    },
    {
      "anonymous": false,
      "inputs": [
        {
          "indexed": true,
          "internalType": "uint256",
          "name": "id",
          "type": "uint256"
        },
        {
          "indexed": false,
          "internalType": "uint256",
          "name": "totalDebt",
          "type": "uint256"
        },
        {
          "indexed": false,
          "internalType": "uint256",
          "name": "paidDebt",
          "type": "uint256"
        }
      ],
      "name": "Completed",
      "type": "event"
    },
    {
      "anonymous": false,
      "inputs": [
        {
          "indexed": true,
          "internalType": "uint256",
          "name": "id",
          "type": "uint256"
        },
        {
          "indexed": false,
          "internalType": "uint256",
          "name": "totalDebt",
          "type": "uint256"
        },
        {
          "indexed": false,
          "internalType": "uint256",
          "name": "paidDebt",
          "type": "uint256"
        }
      ],
      "name": "Defaulted",
      "type": "event"
    },
    {
      "anonymous": false,
      "inputs": [
        {
          "indexed": true,
          "internalType": "uint256",
          "name": "id",
          "type": "uint256"
        },
        {
          "indexed": false,
          "internalType": "uint256",
          "name": "bondQuantity",
          "type": "uint256"
        },
        {
          "indexed": false,
          "internalType": "uint256",
          "name": "tokenAmountPerBond",
          "type": "uint256"
        },
        {
          "indexed": false,
          "internalType": "uint256",
          "name": "couponRate",
          "type": "uint256"
        },
        {
          "indexed": false,
          "internalType": "uint256",
          "name": "maturityDate",
          "type": "uint256"
        }
      ],
      "name": "Issued",
      "type": "event"
    },
    {
      "anonymous": false,
      "inputs": [
        {
          "indexed": true,
          "internalType": "address",
          "name": "operator",
          "type": "address"
        },
        {
          "indexed": true,
          "internalType": "address",
          "name": "from",
          "type": "address"
        },
        {
          "indexed": true,
          "internalType": "address",
          "name": "to",
          "type": "address"
        },
        {
          "indexed": false,
          "internalType": "uint256[]",
          "name": "ids",
          "type": "uint256[]"
        },
        {
          "indexed": false,
          "internalType": "uint256[]",
          "name": "values",
          "type": "uint256[]"
        }
      ],
      "name": "TransferBatch",
      "type": "event"
    },
    {
      "anonymous": false,
      "inputs": [
        {
          "indexed": true,
          "internalType": "address",
          "name": "operator",
          "type": "address"
        },
        {
          "indexed": true,
          "internalType": "address",
          "name": "from",
          "type": "address"
        },
        {
          "indexed": true,
          "internalType": "address",
          "name": "to",
          "type": "address"
        },
        {
          "indexed": false,
          "internalType": "uint256",
          "name": "id",
          "type": "uint256"
        },
        {
          "indexed": false,
          "internalType": "uint256",
          "name": "value",
          "type": "uint256"
        }
      ],
      "name": "TransferSingle",
      "type": "event"
    },
    {
      "anonymous": false,
      "inputs": [
        {
          "indexed": false,
          "internalType": "string",
          "name": "value",
          "type": "string"
        },
        {
          "indexed": true,
          "internalType": "uint256",
          "name": "id",
          "type": "uint256"
        }
      ],
      "name": "URI",
      "type": "event"
    },
    {
      "inputs": [
        {
          "internalType": "address",
          "name": "account",
          "type": "address"
        },
        {
          "internalType": "uint256",
          "name": "id",
          "type": "uint256"
        }
      ],
      "name": "balanceOf",
      "outputs": [
        {
          "internalType": "uint256",
          "name": "",
          "type": "uint256"
        }
      ],
      "stateMutability": "view",
      "type": "function"
    },
    {
      "inputs": [
        {
          "internalType": "address[]",
          "name": "accounts",
          "type": "address[]"
        },
        {
          "internalType": "uint256[]",
          "name": "ids",
          "type": "uint256[]"
        }
      ],
      "name": "balanceOfBatch",
      "outputs": [
        {
          "internalType": "uint256[]",
          "name": "",
          "type": "uint256[]"
        }
      ],
      "stateMutability": "view",
      "type": "function"
    },
    {
      "inputs": [],
      "name": "baseToken",
      "outputs": [
        {
          "internalType": "address",
          "name": "",
          "type": "address"
        }
      ],
      "stateMutability": "view",
      "type": "function"
    },
    {
      "inputs": [
        {
          "internalType": "uint256",
          "name": "id",
          "type": "uint256"
        }
      ],
      "name": "bondMetadata",
      "outputs": [
        {
          "internalType": "string",
          "name": "",
          "type": "string"
        },
        {
          "internalType": "uint256",
          "name": "",
          "type": "uint256"
        },
        {
          "internalType": "uint256",
          "name": "",
          "type": "uint256"
        },
        {
          "internalType": "uint256",
          "name": "",
          "type": "uint256"
        },
        {
          "internalType": "uint256",
          "name": "",
          "type": "uint256"
        },
        {
          "internalType": "uint256",
          "name": "",
          "type": "uint256"
        },
        {
          "internalType": "uint256",
          "name": "",
          "type": "uint256"
        },
        {
          "internalType": "uint256",
          "name": "",
          "type": "uint256"
        },
        {
          "internalType": "uint256",
          "name": "",
          "type": "uint256"
        },
        {
          "internalType": "uint256",
          "name": "",
          "type": "uint256"
        }
      ],
      "stateMutability": "view",
      "type": "function"
    },
    {
      "inputs": [
        {
          "internalType": "uint256",
          "name": "id",
          "type": "uint256"
        }
      ],
      "name": "call",
      "outputs": [],
      "stateMutability": "nonpayable",
      "type": "function"
    },
    {
      "inputs": [
        {
          "internalType": "uint256",
          "name": "id",
          "type": "uint256"
        }
      ],
      "name": "couponRate",
      "outputs": [
        {
          "internalType": "uint256",
          "name": "",
          "type": "uint256"
        }
      ],
      "stateMutability": "view",
      "type": "function"
    },
    {
      "inputs": [
        {
          "internalType": "uint256",
          "name": "id",
          "type": "uint256"
        }
      ],
      "name": "couponRateOnCall",
      "outputs": [
        {
          "internalType": "uint256",
          "name": "",
          "type": "uint256"
        }
      ],
      "stateMutability": "view",
      "type": "function"
    },
    {
      "inputs": [
        {
          "internalType": "uint256",
          "name": "id",
          "type": "uint256"
        },
        {
          "internalType": "uint256",
          "name": "tokenAmount",
          "type": "uint256"
        }
      ],
      "name": "deposit",
      "outputs": [],
      "stateMutability": "nonpayable",
      "type": "function"
    },
    {
      "inputs": [
        {
          "internalType": "uint256",
          "name": "id",
          "type": "uint256"
        }
      ],
      "name": "designatedTokenPool",
      "outputs": [
        {
          "internalType": "uint256",
          "name": "",
          "type": "uint256"
        }
      ],
      "stateMutability": "view",
      "type": "function"
    },
    {
      "inputs": [],
      "name": "fundsRaised",
      "outputs": [
        {
          "internalType": "uint256",
          "name": "",
          "type": "uint256"
        }
      ],
      "stateMutability": "view",
      "type": "function"
    },
    {
      "inputs": [
        {
          "internalType": "uint256",
          "name": "id",
          "type": "uint256"
        }
      ],
      "name": "hasReachedMaturity",
      "outputs": [
        {
          "internalType": "bool",
          "name": "",
          "type": "bool"
        }
      ],
      "stateMutability": "view",
      "type": "function"
    },
    {
      "inputs": [
        {
          "internalType": "uint256",
          "name": "id",
          "type": "uint256"
        }
      ],
      "name": "isActive",
      "outputs": [
        {
          "internalType": "bool",
          "name": "",
          "type": "bool"
        }
      ],
      "stateMutability": "view",
      "type": "function"
    },
    {
      "inputs": [
        {
          "internalType": "address",
          "name": "account",
          "type": "address"
        },
        {
          "internalType": "address",
          "name": "operator",
          "type": "address"
        }
      ],
      "name": "isApprovedForAll",
      "outputs": [
        {
          "internalType": "bool",
          "name": "",
          "type": "bool"
        }
      ],
      "stateMutability": "view",
      "type": "function"
    },
    {
      "inputs": [
        {
          "internalType": "uint256",
          "name": "id",
          "type": "uint256"
        }
      ],
      "name": "isCalled",
      "outputs": [
        {
          "internalType": "bool",
          "name": "",
          "type": "bool"
        }
      ],
      "stateMutability": "view",
      "type": "function"
    },
    {
      "inputs": [
        {
          "internalType": "uint256",
          "name": "id",
          "type": "uint256"
        }
      ],
      "name": "isCanceled",
      "outputs": [
        {
          "internalType": "bool",
          "name": "",
          "type": "bool"
        }
      ],
      "stateMutability": "view",
      "type": "function"
    },
    {
      "inputs": [
        {
          "internalType": "uint256",
          "name": "id",
          "type": "uint256"
        }
      ],
      "name": "isCompleted",
      "outputs": [
        {
          "internalType": "bool",
          "name": "",
          "type": "bool"
        }
      ],
      "stateMutability": "view",
      "type": "function"
    },
    {
      "inputs": [
        {
          "internalType": "uint256",
          "name": "id",
          "type": "uint256"
        }
      ],
      "name": "isCompletedInTheory",
      "outputs": [
        {
          "internalType": "bool",
          "name": "",
          "type": "bool"
        }
      ],
      "stateMutability": "view",
      "type": "function"
    },
    {
      "inputs": [
        {
          "internalType": "uint256",
          "name": "id",
          "type": "uint256"
        }
      ],
      "name": "isDefaulted",
      "outputs": [
        {
          "internalType": "bool",
          "name": "",
          "type": "bool"
        }
      ],
      "stateMutability": "view",
      "type": "function"
    },
    {
      "inputs": [
        {
          "internalType": "uint256",
          "name": "id",
          "type": "uint256"
        }
      ],
      "name": "isDefaultedInTheory",
      "outputs": [
        {
          "internalType": "bool",
          "name": "",
          "type": "bool"
        }
      ],
      "stateMutability": "view",
      "type": "function"
    },
    {
      "inputs": [
        {
          "internalType": "uint256",
          "name": "id",
          "type": "uint256"
        }
      ],
      "name": "isFulfilled",
      "outputs": [
        {
          "internalType": "bool",
          "name": "",
          "type": "bool"
        }
      ],
      "stateMutability": "view",
      "type": "function"
    },
    {
      "inputs": [
        {
          "internalType": "uint256",
          "name": "id",
          "type": "uint256"
        }
      ],
      "name": "isFullyRedeemed",
      "outputs": [
        {
          "internalType": "bool",
          "name": "",
          "type": "bool"
        }
      ],
      "stateMutability": "view",
      "type": "function"
    },
    {
      "inputs": [
        {
          "internalType": "uint256",
          "name": "bondQuantity",
          "type": "uint256"
        },
        {
          "internalType": "uint256",
          "name": "minPurchasedQuantity",
          "type": "uint256"
        },
        {
          "internalType": "uint256",
          "name": "tokenAmountPerBond",
          "type": "uint256"
        },
        {
          "internalType": "string",
          "name": "ticker",
          "type": "string"
        },
        {
          "internalType": "uint256",
          "name": "durationDays",
          "type": "uint256"
        },
        {
          "internalType": "uint256",
          "name": "activeDurationInDays",
          "type": "uint256"
        },
        {
          "internalType": "uint256",
          "name": "rate",
          "type": "uint256"
        },
        {
          "internalType": "bytes",
          "name": "data",
          "type": "bytes"
        }
      ],
      "name": "issue",
      "outputs": [
        {
          "internalType": "uint256",
          "name": "id",
          "type": "uint256"
        }
      ],
      "stateMutability": "nonpayable",
      "type": "function"
    },
    {
      "inputs": [
        {
          "internalType": "uint256",
          "name": "id",
          "type": "uint256"
        }
      ],
      "name": "markAsCompleted",
      "outputs": [],
      "stateMutability": "nonpayable",
      "type": "function"
    },
    {
      "inputs": [
        {
          "internalType": "uint256",
          "name": "id",
          "type": "uint256"
        }
      ],
      "name": "markAsDefaulted",
      "outputs": [],
      "stateMutability": "nonpayable",
      "type": "function"
    },
    {
      "inputs": [
        {
          "internalType": "uint256",
          "name": "id",
          "type": "uint256"
        }
      ],
      "name": "minObligationPeriod",
      "outputs": [
        {
          "internalType": "uint256",
          "name": "",
          "type": "uint256"
        }
      ],
      "stateMutability": "view",
      "type": "function"
    },
    {
      "inputs": [],
      "name": "owner",
      "outputs": [
        {
          "internalType": "address",
          "name": "",
          "type": "address"
        }
      ],
      "stateMutability": "view",
      "type": "function"
    },
    {
      "inputs": [
        {
          "internalType": "uint256",
          "name": "id",
          "type": "uint256"
        }
      ],
      "name": "poolAmount",
      "outputs": [
        {
          "internalType": "uint256",
          "name": "",
          "type": "uint256"
        }
      ],
      "stateMutability": "view",
      "type": "function"
    },
    {
      "inputs": [
        {
          "internalType": "uint256",
          "name": "id",
          "type": "uint256"
        }
      ],
      "name": "principal",
      "outputs": [
        {
          "internalType": "uint256",
          "name": "",
          "type": "uint256"
        }
      ],
      "stateMutability": "view",
      "type": "function"
    },
    {
      "inputs": [
        {
          "internalType": "uint256",
          "name": "id",
          "type": "uint256"
        }
      ],
      "name": "principalWithInterest",
      "outputs": [
        {
          "internalType": "uint256",
          "name": "",
          "type": "uint256"
        }
      ],
      "stateMutability": "view",
      "type": "function"
    },
    {
      "inputs": [
        {
          "internalType": "uint256",
          "name": "id",
          "type": "uint256"
        },
        {
          "internalType": "uint256",
          "name": "bondQuantity",
          "type": "uint256"
        }
      ],
      "name": "purchase",
      "outputs": [],
      "stateMutability": "nonpayable",
      "type": "function"
    },
    {
      "inputs": [
        {
          "internalType": "uint256",
          "name": "id",
          "type": "uint256"
        },
        {
          "internalType": "uint256",
          "name": "bondQuantity",
          "type": "uint256"
        }
      ],
      "name": "redeem",
      "outputs": [],
      "stateMutability": "nonpayable",
      "type": "function"
    },
    {
      "inputs": [
        {
          "internalType": "uint256",
          "name": "id",
          "type": "uint256"
        },
        {
          "internalType": "uint256",
          "name": "bondQuantity",
          "type": "uint256"
        }
      ],
      "name": "redeemCanceled",
      "outputs": [],
      "stateMutability": "nonpayable",
      "type": "function"
    },
    {
      "inputs": [
        {
          "internalType": "uint256",
          "name": "id",
          "type": "uint256"
        },
        {
          "internalType": "uint256",
          "name": "bondQuantity",
          "type": "uint256"
        }
      ],
      "name": "redeemDefaulted",
      "outputs": [],
      "stateMutability": "nonpayable",
      "type": "function"
    },
    {
      "inputs": [
        {
          "internalType": "uint256",
          "name": "id",
          "type": "uint256"
        }
      ],
      "name": "remainingQuantity",
      "outputs": [
        {
          "internalType": "uint256",
          "name": "",
          "type": "uint256"
        }
      ],
      "stateMutability": "view",
      "type": "function"
    },
    {
      "inputs": [
        {
          "internalType": "address",
          "name": "from",
          "type": "address"
        },
        {
          "internalType": "address",
          "name": "to",
          "type": "address"
        },
        {
          "internalType": "uint256[]",
          "name": "ids",
          "type": "uint256[]"
        },
        {
          "internalType": "uint256[]",
          "name": "amounts",
          "type": "uint256[]"
        },
        {
          "internalType": "bytes",
          "name": "data",
          "type": "bytes"
        }
      ],
      "name": "safeBatchTransferFrom",
      "outputs": [],
      "stateMutability": "nonpayable",
      "type": "function"
    },
    {
      "inputs": [
        {
          "internalType": "address",
          "name": "from",
          "type": "address"
        },
        {
          "internalType": "address",
          "name": "to",
          "type": "address"
        },
        {
          "internalType": "uint256",
          "name": "id",
          "type": "uint256"
        },
        {
          "internalType": "uint256",
          "name": "amount",
          "type": "uint256"
        },
        {
          "internalType": "bytes",
          "name": "data",
          "type": "bytes"
        }
      ],
      "name": "safeTransferFrom",
      "outputs": [],
      "stateMutability": "nonpayable",
      "type": "function"
    },
    {
      "inputs": [
        {
          "internalType": "address",
          "name": "operator",
          "type": "address"
        },
        {
          "internalType": "bool",
          "name": "approved",
          "type": "bool"
        }
      ],
      "name": "setApprovalForAll",
      "outputs": [],
      "stateMutability": "nonpayable",
      "type": "function"
    },
    {
      "inputs": [
        {
          "internalType": "bytes4",
          "name": "interfaceId",
          "type": "bytes4"
        }
      ],
      "name": "supportsInterface",
      "outputs": [
        {
          "internalType": "bool",
          "name": "",
          "type": "bool"
        }
      ],
      "stateMutability": "view",
      "type": "function"
    },
    {
      "inputs": [
        {
          "internalType": "uint256",
          "name": "id",
          "type": "uint256"
        }
      ],
      "name": "timeElapsed",
      "outputs": [
        {
          "internalType": "uint256",
          "name": "",
          "type": "uint256"
        }
      ],
      "stateMutability": "view",
      "type": "function"
    },
    {
      "inputs": [
        {
          "internalType": "uint256",
          "name": "id",
          "type": "uint256"
        }
      ],
      "name": "timeRemainingToEndOfActive",
      "outputs": [
        {
          "internalType": "uint256",
          "name": "",
          "type": "uint256"
        }
      ],
      "stateMutability": "view",
      "type": "function"
    },
    {
      "inputs": [
        {
          "internalType": "uint256",
          "name": "id",
          "type": "uint256"
        }
      ],
      "name": "timeRemainingToMaturity",
      "outputs": [
        {
          "internalType": "uint256",
          "name": "",
          "type": "uint256"
        }
      ],
      "stateMutability": "view",
      "type": "function"
    },
    {
      "inputs": [],
      "name": "tvl",
      "outputs": [
        {
          "internalType": "uint256",
          "name": "",
          "type": "uint256"
        }
      ],
      "stateMutability": "view",
      "type": "function"
    },
    {
      "inputs": [
        {
          "internalType": "uint256",
          "name": "",
          "type": "uint256"
        }
      ],
      "name": "uri",
      "outputs": [
        {
          "internalType": "string",
          "name": "",
          "type": "string"
        }
      ],
      "stateMutability": "view",
      "type": "function"
    },
    {
      "inputs": [
        {
          "internalType": "uint256",
          "name": "id",
          "type": "uint256"
        },
        {
          "internalType": "uint256",
          "name": "tokenAmount",
          "type": "uint256"
        }
      ],
      "name": "withdraw",
      "outputs": [],
      "stateMutability": "nonpayable",
      "type": "function"
    },
    {
      "inputs": [
        {
          "internalType": "uint256",
          "name": "id",
          "type": "uint256"
        }
      ],
      "name": "withdrawExcess",
      "outputs": [],
      "stateMutability": "nonpayable",
      "type": "function"
    }
  ],
  "bytecode": "0x60c060405260006003553480156200001657600080fd5b50604051620068153803806200681583398181016040528101906200003c9190620002d3565b828282826200005181620000c660201b60201c565b508073ffffffffffffffffffffffffffffffffffffffff1660808173ffffffffffffffffffffffffffffffffffffffff16815250508173ffffffffffffffffffffffffffffffffffffffff1660a08173ffffffffffffffffffffffffffffffffffffffff168152505050505050505062000680565b8060029081620000d7919062000599565b5050565b6000604051905090565b600080fd5b600080fd5b600080fd5b600080fd5b6000601f19601f8301169050919050565b7f4e487b7100000000000000000000000000000000000000000000000000000000600052604160045260246000fd5b6200014482620000f9565b810181811067ffffffffffffffff821117156200016657620001656200010a565b5b80604052505050565b60006200017b620000db565b905062000189828262000139565b919050565b600067ffffffffffffffff821115620001ac57620001ab6200010a565b5b620001b782620000f9565b9050602081019050919050565b60005b83811015620001e4578082015181840152602081019050620001c7565b60008484015250505050565b60006200020762000201846200018e565b6200016f565b905082815260208101848484011115620002265762000225620000f4565b5b62000233848285620001c4565b509392505050565b600082601f830112620002535762000252620000ef565b5b815162000265848260208601620001f0565b91505092915050565b600073ffffffffffffffffffffffffffffffffffffffff82169050919050565b60006200029b826200026e565b9050919050565b620002ad816200028e565b8114620002b957600080fd5b50565b600081519050620002cd81620002a2565b92915050565b600080600060608486031215620002ef57620002ee620000e5565b5b600084015167ffffffffffffffff81111562000310576200030f620000ea565b5b6200031e868287016200023b565b93505060206200033186828701620002bc565b92505060406200034486828701620002bc565b9150509250925092565b600081519050919050565b7f4e487b7100000000000000000000000000000000000000000000000000000000600052602260045260246000fd5b60006002820490506001821680620003a157607f821691505b602082108103620003b757620003b662000359565b5b50919050565b60008190508160005260206000209050919050565b60006020601f8301049050919050565b600082821b905092915050565b600060088302620004217fffffffffffffffffffffffffffffffffffffffffffffffffffffffffffffffff82620003e2565b6200042d8683620003e2565b95508019841693508086168417925050509392505050565b6000819050919050565b6000819050919050565b60006200047a620004746200046e8462000445565b6200044f565b62000445565b9050919050565b6000819050919050565b620004968362000459565b620004ae620004a58262000481565b848454620003ef565b825550505050565b600090565b620004c5620004b6565b620004d28184846200048b565b505050565b5b81811015620004fa57620004ee600082620004bb565b600181019050620004d8565b5050565b601f82111562000549576200051381620003bd565b6200051e84620003d2565b810160208510156200052e578190505b620005466200053d85620003d2565b830182620004d7565b50505b505050565b600082821c905092915050565b60006200056e600019846008026200054e565b1980831691505092915050565b60006200058983836200055b565b9150826002028217905092915050565b620005a4826200034e565b67ffffffffffffffff811115620005c057620005bf6200010a565b5b620005cc825462000388565b620005d9828285620004fe565b600060209050601f831160018114620006115760008415620005fc578287015190505b6200060885826200057b565b86555062000678565b601f1984166200062186620003bd565b60005b828110156200064b5784890151825560018201915060208501945060208101905062000624565b868310156200066b578489015162000667601f8916826200055b565b8355505b6001600288020188555050505b505050505050565b60805160a05161610d62000708600039600081816111f90152818161164c0152818161189901528181611db401528181611f810152818161215e015281816123a4015281816124a40152818161292c015281816129d30152612bc8015260008181610fb701528181611b50015281816124cc015281816127d20152612a72015261610d6000f3fe608060405234801561001057600080fd5b506004361061027e5760003560e01c806388bdc0831161015c578063b09f2b1c116100ce578063e2bbb15811610087578063e2bbb158146108de578063e5328e06146108fa578063e755ddd714610918578063e985e9c514610934578063f0d8100a14610964578063f242432a146109945761027e565b8063b09f2b1c146107f8578063c0a6026c14610814578063c365301014610830578063c55dae6314610860578063c7bc57301461087e578063d3b7811b146108ae5761027e565b8063932a8de011610120578063932a8de014610714578063a22cb46514610744578063a53e17b014610760578063a874302214610790578063a996ef08146107ac578063abac75e1146107c85761027e565b806388bdc0831461062d57806389c2bb1f1461065d5780638c3526c21461068d5780638da5cb5b146106c65780638f0dbf77146106e45761027e565b806339e3af9b116101f55780636ff80d93116101b95780636ff80d931461053557806370876c981461056557806377e2a08b146105815780637a41984b146105b15780637cbc2373146105e157806382afd23b146105fd5761027e565b806339e3af9b1461046b578063441a3e701461049b5780634e1273f4146104b7578063549493bb146104e75780636681b9fd146105175761027e565b80630e89341c116102475780630e89341c1461037357806314f29493146103a35780632b096926146103d35780632eb2c2d6146103ef5780632f3ad61f1461040b5780633097afb81461043b5761027e565b8062fdd58e1461028357806301ffc9a7146102b357806302159497146102e357806308913ce8146103135780630914902014610343575b600080fd5b61029d60048036038101906102989190613e60565b6109b0565b6040516102aa9190613eaf565b60405180910390f35b6102cd60048036038101906102c89190613f22565b610a78565b6040516102da9190613f6a565b60405180910390f35b6102fd60048036038101906102f89190613f85565b610b5a565b60405161030a9190613eaf565b60405180910390f35b61032d60048036038101906103289190613f85565b610b77565b60405161033a9190613eaf565b60405180910390f35b61035d60048036038101906103589190613f85565b610ba2565b60405161036a9190613f6a565b60405180910390f35b61038d60048036038101906103889190613f85565b610bd8565b60405161039a9190614042565b60405180910390f35b6103bd60048036038101906103b89190613f85565b610c6c565b6040516103ca9190613eaf565b60405180910390f35b6103ed60048036038101906103e89190613f85565b610caa565b005b61040960048036038101906104049190614261565b610e8c565b005b61042560048036038101906104209190613f85565b610f2d565b6040516104329190613f6a565b60405180910390f35b61045560048036038101906104509190613f85565b610f57565b6040516104629190613f6a565b60405180910390f35b61048560048036038101906104809190613f85565b610f90565b6040516104929190613f6a565b60405180910390f35b6104b560048036038101906104b09190614330565b610fb5565b005b6104d160048036038101906104cc9190614433565b61129a565b6040516104de9190614569565b60405180910390f35b61050160048036038101906104fc9190613f85565b6113b3565b60405161050e9190613f6a565b60405180910390f35b61051f6113e5565b60405161052c9190613eaf565b60405180910390f35b61054f600480360381019061054a9190613f85565b6113ef565b60405161055c9190613f6a565b60405180910390f35b61057f600480360381019061057a9190614330565b611427565b005b61059b60048036038101906105969190613f85565b6116f1565b6040516105a89190613eaf565b60405180910390f35b6105cb60048036038101906105c69190613f85565b611781565b6040516105d89190613f6a565b60405180910390f35b6105fb60048036038101906105f69190614330565b6117ab565b005b61061760048036038101906106129190613f85565b611965565b6040516106249190613f6a565b60405180910390f35b61064760048036038101906106429190613f85565b611988565b6040516106549190613eaf565b60405180910390f35b61067760048036038101906106729190613f85565b6119bb565b6040516106849190613eaf565b60405180910390f35b6106a760048036038101906106a29190613f85565b6119d8565b6040516106bd9a9998979695949392919061458b565b60405180910390f35b6106ce611b4c565b6040516106db919061463d565b60405180910390f35b6106fe60048036038101906106f99190613f85565b611b74565b60405161070b9190613f6a565b60405180910390f35b61072e60048036038101906107299190613f85565b611b96565b60405161073b9190613eaf565b60405180910390f35b61075e60048036038101906107599190614684565b611bd4565b005b61077a60048036038101906107759190613f85565b611bea565b6040516107879190613f6a565b60405180910390f35b6107aa60048036038101906107a59190613f85565b611c14565b005b6107c660048036038101906107c19190614330565b611e93565b005b6107e260048036038101906107dd9190613f85565b61204d565b6040516107ef9190613eaf565b60405180910390f35b610812600480360381019061080d9190614330565b61206d565b005b61082e60048036038101906108299190613f85565b61222a565b005b61084a60048036038101906108459190613f85565b612483565b6040516108579190613eaf565b60405180910390f35b6108686124a0565b604051610875919061463d565b60405180910390f35b6108986004803603810190610893919061471f565b6124c8565b6040516108a59190613eaf565b60405180910390f35b6108c860048036038101906108c39190613f85565b61279d565b6040516108d59190613eaf565b60405180910390f35b6108f860048036038101906108f39190614330565b6127d0565b005b6109026129cf565b60405161090f9190613eaf565b60405180910390f35b610932600480360381019061092d9190613f85565b612a70565b005b61094e60048036038101906109499190614811565b612c7b565b60405161095b9190613f6a565b60405180910390f35b61097e60048036038101906109799190613f85565b612d0f565b60405161098b9190613eaf565b60405180910390f35b6109ae60048036038101906109a99190614851565b612d2c565b005b60008073ffffffffffffffffffffffffffffffffffffffff168373ffffffffffffffffffffffffffffffffffffffff1603610a20576040517f08c379a0000000000000000000000000000000000000000000000000000000008152600401610a179061495a565b60405180910390fd5b60008083815260200190815260200160002060008473ffffffffffffffffffffffffffffffffffffffff1673ffffffffffffffffffffffffffffffffffffffff16815260200190815260200160002054905092915050565b60007fd9b67a26000000000000000000000000000000000000000000000000000000007bffffffffffffffffffffffffffffffffffffffffffffffffffffffff1916827bffffffffffffffffffffffffffffffffffffffffffffffffffffffff19161480610b4357507f0e89341c000000000000000000000000000000000000000000000000000000007bffffffffffffffffffffffffffffffffffffffffffffffffffffffff1916827bffffffffffffffffffffffffffffffffffffffffffffffffffffffff1916145b80610b535750610b5282612dcd565b5b9050919050565b600060086000838152602001908152602001600020549050919050565b6000600560008381526020019081526020016000206002015442610b9b91906149a9565b9050919050565b60006005600083815260200190815260200160002060080154600660008481526020019081526020016000205410159050919050565b606060028054610be790614a0c565b80601f0160208091040260200160405190810160405280929190818152602001828054610c1390614a0c565b8015610c605780601f10610c3557610100808354040283529160200191610c60565b820191906000526020600020905b815481529060010190602001808311610c4357829003601f168201915b50505050509050919050565b600060066000838152602001908152602001600020546005600084815260200190815260200160002060010154610ca39190614a3d565b9050919050565b610cb381611781565b15610cf3576040517f08c379a0000000000000000000000000000000000000000000000000000000008152600401610cea90614acb565b60405180910390fd5b62015180600d600083815260200190815260200160002054610d159190614a3d565b610d1e82610b77565b11610d5e576040517f08c379a0000000000000000000000000000000000000000000000000000000008152600401610d5590614b5d565b60405180910390fd5b620151806005600083815260200190815260200160002060060154610d839190614a3d565b610d8c82610b77565b6005600084815260200190815260200160002060090154610dad9190614a3d565b610db79190614bac565b600e6000838152602001908152602001600020819055506001600f600083815260200190815260200160002060006101000a81548160ff0219169083151502179055506001600c600083815260200190815260200160002060006101000a81548160ff021916908315150217905550807fb580a16317cf9efa50cf987c976c3fb7de7eaf3149b9dd5b8a576a043042f44c6005600084815260200190815260200160002060090154600e600085815260200190815260200160002054604051610e81929190614bdd565b60405180910390a250565b610e94612e37565b73ffffffffffffffffffffffffffffffffffffffff168573ffffffffffffffffffffffffffffffffffffffff161480610eda5750610ed985610ed4612e37565b612c7b565b5b610f19576040517f08c379a0000000000000000000000000000000000000000000000000000000008152600401610f1090614c78565b60405180910390fd5b610f268585858585612e3f565b5050505050565b6000600b600083815260200190815260200160002060009054906101000a900460ff169050919050565b6000610f6282611b74565b8015610f895750610f72826116f1565b600860008481526020019081526020016000205410155b9050919050565b6000610f9b82611965565b158015610fae5750610fac82610ba2565b155b9050919050565b7f000000000000000000000000000000000000000000000000000000000000000073ffffffffffffffffffffffffffffffffffffffff163373ffffffffffffffffffffffffffffffffffffffff1614611043576040517f08c379a000000000000000000000000000000000000000000000000000000000815260040161103a90614ce4565b60405180910390fd5b61104c82611965565b1561108c576040517f08c379a000000000000000000000000000000000000000000000000000000000815260040161108390614d50565b60405180910390fd5b61109582610f90565b156110d5576040517f08c379a00000000000000000000000000000000000000000000000000000000081526004016110cc90614d50565b60405180910390fd5b6110de82611781565b1561111e576040517f08c379a000000000000000000000000000000000000000000000000000000000815260040161111590614de2565b60405180910390fd5b61112782610f2d565b806111375750611136826113ef565b5b15611177576040517f08c379a000000000000000000000000000000000000000000000000000000000815260040161116e90614e74565b60405180910390fd5b60086000838152602001908152602001600020548111156111cd576040517f08c379a00000000000000000000000000000000000000000000000000000000081526004016111c490614f06565b60405180910390fd5b806008600084815260200190815260200160002060008282546111f091906149a9565b925050819055507f000000000000000000000000000000000000000000000000000000000000000073ffffffffffffffffffffffffffffffffffffffff1663a9059cbb33836040518363ffffffff1660e01b8152600401611252929190614f26565b6020604051808303816000875af1158015611271573d6000803e3d6000fd5b505050506040513d601f19601f820116820180604052508101906112959190614f64565b505050565b606081518351146112e0576040517f08c379a00000000000000000000000000000000000000000000000000000000081526004016112d790615003565b60405180910390fd5b6000835167ffffffffffffffff8111156112fd576112fc614069565b5b60405190808252806020026020018201604052801561132b5781602001602082028036833780820191505090505b50905060005b84518110156113a8576113788582815181106113505761134f615023565b5b602002602001015185838151811061136b5761136a615023565b5b60200260200101516109b0565b82828151811061138b5761138a615023565b5b602002602001018181525050806113a190615052565b9050611331565b508091505092915050565b600060066000838152602001908152602001600020546007600084815260200190815260200160002054149050919050565b6000600454905090565b60006113fa82611b74565b8015611420575061140a826116f1565b6008600084815260200190815260200160002054105b9050919050565b61143082611965565b61146f576040517f08c379a0000000000000000000000000000000000000000000000000000000008152600401611466906150e6565b60405180910390fd5b8061147983611b96565b10156114ba576040517f08c379a00000000000000000000000000000000000000000000000000000000081526004016114b190615178565b60405180910390fd5b600060056000848152602001908152602001600020604051806101400160405290816000820180546114eb90614a0c565b80601f016020809104026020016040519081016040528092919081815260200182805461151790614a0c565b80156115645780601f1061153957610100808354040283529160200191611564565b820191906000526020600020905b81548152906001019060200180831161154757829003601f168201915b505050505081526020016001820154815260200160028201548152602001600382015481526020016004820154815260200160058201548152602001600682015481526020016007820154815260200160088201548152602001600982015481525050905060008160200151836115db9190614a3d565b9050826006600086815260200190815260200160002060008282546116009190615198565b925050819055508060086000868152602001908152602001600020600082825461162a9190615198565b9250508190555080600460008282546116439190615198565b925050819055507f000000000000000000000000000000000000000000000000000000000000000073ffffffffffffffffffffffffffffffffffffffff166323b872dd3330846040518463ffffffff1660e01b81526004016116a7939291906151cc565b6020604051808303816000875af11580156116c6573d6000803e3d6000fd5b505050506040513d601f19601f820116820180604052508101906116ea9190614f64565b5050505050565b60008060056000848152602001908152602001600020600901549050600f600084815260200190815260200160002060009054906101000a900460ff161561173f5761173c836119bb565b90505b670de0b6b3a76400008161175285610c6c565b61175c9190614a3d565b6117669190614bac565b61176f84610c6c565b6117799190615198565b915050919050565b6000600c600083815260200190815260200160002060009054906101000a900460ff169050919050565b6117b482611781565b6117f3576040517f08c379a00000000000000000000000000000000000000000000000000000000081526004016117ea9061524f565b60405180910390fd5b806117fe33846109b0565b101561183f576040517f08c379a0000000000000000000000000000000000000000000000000000000008152600401611836906152bb565b60405180910390fd5b61184a338383613160565b8060076000848152602001908152602001600020600082825461186d9190615198565b925050819055506000600a600084815260200190815260200160002054826118959190614a3d565b90507f000000000000000000000000000000000000000000000000000000000000000073ffffffffffffffffffffffffffffffffffffffff1663a9059cbb33836040518363ffffffff1660e01b81526004016118f2929190614f26565b6020604051808303816000875af1158015611911573d6000803e3d6000fd5b505050506040513d601f19601f820116820180604052508101906119359190614f64565b508060086000858152602001908152602001600020600082825461195991906149a9565b92505081905550505050565b600060056000838152602001908152602001600020600401544211159050919050565b600061199382610b77565b60056000848152602001908152602001600020600501546119b491906149a9565b9050919050565b6000600e6000838152602001908152602001600020549050919050565b6060600080600080600080600080600080600560008d815260200190815260200160002060405180610140016040529081600082018054611a1890614a0c565b80601f0160208091040260200160405190810160405280929190818152602001828054611a4490614a0c565b8015611a915780601f10611a6657610100808354040283529160200191611a91565b820191906000526020600020905b815481529060010190602001808311611a7457829003601f168201915b5050505050815260200160018201548152602001600282015481526020016003820154815260200160048201548152602001600582015481526020016006820154815260200160078201548152602001600882015481526020016009820154815250509050806000015181602001518260400151836060015184608001518560a001518660c001518760e001518861010001518961012001519a509a509a509a509a509a509a509a509a509a50509193959799509193959799565b60007f0000000000000000000000000000000000000000000000000000000000000000905090565b6000600560008381526020019081526020016000206003015442119050919050565b600060066000838152602001908152602001600020546005600084815260200190815260200160002060070154611bcd91906149a9565b9050919050565b611be6611bdf612e37565b83836133a6565b5050565b6000600f600083815260200190815260200160002060009054906101000a900460ff169050919050565b611c1d81611781565b158015611c305750611c2e81610f2d565b155b8015611c415750611c40816113ef565b5b611c80576040517f08c379a0000000000000000000000000000000000000000000000000000000008152600401611c7790615327565b60405180910390fd5b6000611c8b826116f1565b905060006103e86008600085815260200190815260200160002054611cb09190614bac565b90506000816008600086815260200190815260200160002054611cd391906149a9565b9050600660008581526020019081526020016000205481611cf49190614bac565b6009600086815260200190815260200160002081905550600060066000868152602001908152602001600020546009600087815260200190815260200160002054611d3f9190614a3d565b82611d4a91906149a9565b905060008184611d5a9190615198565b905080600860008881526020019081526020016000206000828254611d7f91906149a9565b925050819055506001600b600088815260200190815260200160002060006101000a81548160ff0219169083151502179055507f000000000000000000000000000000000000000000000000000000000000000073ffffffffffffffffffffffffffffffffffffffff1663a9059cbb33836040518363ffffffff1660e01b8152600401611e0d929190614f26565b6020604051808303816000875af1158015611e2c573d6000803e3d6000fd5b505050506040513d601f19601f82011682018060405250810190611e509190614f64565b50857fc4f17a65d54873d57229ea5f59c4ddec592d095bc17581372676402c8228b9cd8685604051611e83929190614bdd565b60405180910390a2505050505050565b611e9c82610f2d565b611edb576040517f08c379a0000000000000000000000000000000000000000000000000000000008152600401611ed290615327565b60405180910390fd5b80611ee633846109b0565b1015611f27576040517f08c379a0000000000000000000000000000000000000000000000000000000008152600401611f1e906152bb565b60405180910390fd5b611f32338383613160565b80600760008481526020019081526020016000206000828254611f559190615198565b925050819055506000600960008481526020019081526020016000205482611f7d9190614a3d565b90507f000000000000000000000000000000000000000000000000000000000000000073ffffffffffffffffffffffffffffffffffffffff1663a9059cbb33836040518363ffffffff1660e01b8152600401611fda929190614f26565b6020604051808303816000875af1158015611ff9573d6000803e3d6000fd5b505050506040513d601f19601f8201168201806040525081019061201d9190614f64565b508060086000858152602001908152602001600020600082825461204191906149a9565b92505081905550505050565b600060056000838152602001908152602001600020600901549050919050565b61207682610f90565b6120b5576040517f08c379a00000000000000000000000000000000000000000000000000000000081526004016120ac90615393565b60405180910390fd5b806120c033846109b0565b1015612101576040517f08c379a00000000000000000000000000000000000000000000000000000000081526004016120f8906152bb565b60405180910390fd5b61210c338383613160565b8060076000848152602001908152602001600020600082825461212f9190615198565b92505081905550600060056000848152602001908152602001600020600101548261215a9190614a3d565b90507f000000000000000000000000000000000000000000000000000000000000000073ffffffffffffffffffffffffffffffffffffffff1663a9059cbb33836040518363ffffffff1660e01b81526004016121b7929190614f26565b6020604051808303816000875af11580156121d6573d6000803e3d6000fd5b505050506040513d601f19601f820116820180604052508101906121fa9190614f64565b508060086000858152602001908152602001600020600082825461221e91906149a9565b92505081905550505050565b61223381610f2d565b158015612246575061224481611781565b155b8015612257575061225681610f57565b5b612296576040517f08c379a000000000000000000000000000000000000000000000000000000000815260040161228d906153ff565b60405180910390fd5b60006122a1826116f1565b905060006103e8826122b39190614bac565b9050600081836122c391906149a9565b90506006600085815260200190815260200160002054816122e49190614bac565b600a60008681526020019081526020016000208190555060006006600086815260200190815260200160002054600a60008781526020019081526020016000205461232f9190614a3d565b8261233a91906149a9565b90506000818461234a9190615198565b90508060086000888152602001908152602001600020600082825461236f91906149a9565b925050819055506001600c600088815260200190815260200160002060006101000a81548160ff0219169083151502179055507f000000000000000000000000000000000000000000000000000000000000000073ffffffffffffffffffffffffffffffffffffffff1663a9059cbb33836040518363ffffffff1660e01b81526004016123fd929190614f26565b6020604051808303816000875af115801561241c573d6000803e3d6000fd5b505050506040513d601f19601f820116820180604052508101906124409190614f64565b50857fac2eeaf45d1b75aed6b3285cda3efb3c382cce02ba313558bbb90be57f8843e48685604051612473929190614bdd565b60405180910390a2505050505050565b6000600d6000838152602001908152602001600020549050919050565b60007f0000000000000000000000000000000000000000000000000000000000000000905090565b60007f000000000000000000000000000000000000000000000000000000000000000073ffffffffffffffffffffffffffffffffffffffff163373ffffffffffffffffffffffffffffffffffffffff1614612558576040517f08c379a000000000000000000000000000000000000000000000000000000000815260040161254f90614ce4565b60405180910390fd5b84841061259a576040517f08c379a000000000000000000000000000000000000000000000000000000000815260040161259190615491565b60405180910390fd5b60016003546125a99190615198565b90506001600360008282546125be9190615198565b925050819055506125d133828c85613512565b60405180610140016040528088888080601f016020809104026020016040519081016040528093929190818152602001838380828437600081840152601f19601f82011690508083019250505050505050815260200189815260200142815260200162015180876126429190614a3d565b4261264d9190615198565b815260200162015180866126619190614a3d565b4261266c9190615198565b81526020018581526020018681526020018b81526020018a8152602001848152506005600083815260200190815260200160002060008201518160000190816126b5919061565d565b506020820151816001015560408201518160020155606082015181600301556080820151816004015560a0820151816005015560c0820151816006015560e08201518160070155610100820151816008015561012082015181600901559050506002856127229190614bac565b600d600083815260200190815260200160002081905550807ff73e436c94925e1e8b2f0b16de0a2c56aea7fb27878f7815811bc05bc6c335e88b8a86620151808a61276d9190614a3d565b426127789190615198565b604051612788949392919061572f565b60405180910390a29998505050505050505050565b60006127a882610b77565b60056000848152602001908152602001600020600601546127c991906149a9565b9050919050565b7f000000000000000000000000000000000000000000000000000000000000000073ffffffffffffffffffffffffffffffffffffffff163373ffffffffffffffffffffffffffffffffffffffff161461285e576040517f08c379a000000000000000000000000000000000000000000000000000000000815260040161285590614ce4565b60405180910390fd5b61286782610f2d565b806128775750612876826113ef565b5b156128b7576040517f08c379a00000000000000000000000000000000000000000000000000000000081526004016128ae906157c0565b60405180910390fd5b6128c082611781565b15612900576040517f08c379a00000000000000000000000000000000000000000000000000000000081526004016128f79061582c565b60405180910390fd5b806008600084815260200190815260200160002060008282546129239190615198565b925050819055507f000000000000000000000000000000000000000000000000000000000000000073ffffffffffffffffffffffffffffffffffffffff166323b872dd3330846040518463ffffffff1660e01b8152600401612987939291906151cc565b6020604051808303816000875af11580156129a6573d6000803e3d6000fd5b505050506040513d601f19601f820116820180604052508101906129ca9190614f64565b505050565b60007f000000000000000000000000000000000000000000000000000000000000000073ffffffffffffffffffffffffffffffffffffffff166370a08231306040518263ffffffff1660e01b8152600401612a2a919061463d565b602060405180830381865afa158015612a47573d6000803e3d6000fd5b505050506040513d601f19601f82011682018060405250810190612a6b9190615861565b905090565b7f000000000000000000000000000000000000000000000000000000000000000073ffffffffffffffffffffffffffffffffffffffff163373ffffffffffffffffffffffffffffffffffffffff1614612afe576040517f08c379a0000000000000000000000000000000000000000000000000000000008152600401612af590614ce4565b60405180910390fd5b612b0781611781565b8015612b185750612b17816113b3565b5b612b57576040517f08c379a0000000000000000000000000000000000000000000000000000000008152600401612b4e906158da565b60405180910390fd5b6000600860008381526020019081526020016000205411612bad576040517f08c379a0000000000000000000000000000000000000000000000000000000008152600401612ba490615946565b60405180910390fd5b600060086000838152602001908152602001600020819055507f000000000000000000000000000000000000000000000000000000000000000073ffffffffffffffffffffffffffffffffffffffff1663a9059cbb3360086000858152602001908152602001600020546040518363ffffffff1660e01b8152600401612c34929190614f26565b6020604051808303816000875af1158015612c53573d6000803e3d6000fd5b505050506040513d601f19601f82011682018060405250810190612c779190614f64565b5050565b6000600160008473ffffffffffffffffffffffffffffffffffffffff1673ffffffffffffffffffffffffffffffffffffffff16815260200190815260200160002060008373ffffffffffffffffffffffffffffffffffffffff1673ffffffffffffffffffffffffffffffffffffffff16815260200190815260200160002060009054906101000a900460ff16905092915050565b600060086000838152602001908152602001600020549050919050565b612d34612e37565b73ffffffffffffffffffffffffffffffffffffffff168573ffffffffffffffffffffffffffffffffffffffff161480612d7a5750612d7985612d74612e37565b612c7b565b5b612db9576040517f08c379a0000000000000000000000000000000000000000000000000000000008152600401612db090614c78565b60405180910390fd5b612dc685858585856136c2565b5050505050565b60007f01ffc9a7000000000000000000000000000000000000000000000000000000007bffffffffffffffffffffffffffffffffffffffffffffffffffffffff1916827bffffffffffffffffffffffffffffffffffffffffffffffffffffffff1916149050919050565b600033905090565b8151835114612e83576040517f08c379a0000000000000000000000000000000000000000000000000000000008152600401612e7a906159d8565b60405180910390fd5b600073ffffffffffffffffffffffffffffffffffffffff168473ffffffffffffffffffffffffffffffffffffffff1603612ef2576040517f08c379a0000000000000000000000000000000000000000000000000000000008152600401612ee990615a6a565b60405180910390fd5b6000612efc612e37565b9050612f0c81878787878761395d565b60005b84518110156130bd576000858281518110612f2d57612f2c615023565b5b602002602001015190506000858381518110612f4c57612f4b615023565b5b60200260200101519050600080600084815260200190815260200160002060008b73ffffffffffffffffffffffffffffffffffffffff1673ffffffffffffffffffffffffffffffffffffffff16815260200190815260200160002054905081811015612fed576040517f08c379a0000000000000000000000000000000000000000000000000000000008152600401612fe490615afc565b60405180910390fd5b81810360008085815260200190815260200160002060008c73ffffffffffffffffffffffffffffffffffffffff1673ffffffffffffffffffffffffffffffffffffffff168152602001908152602001600020819055508160008085815260200190815260200160002060008b73ffffffffffffffffffffffffffffffffffffffff1673ffffffffffffffffffffffffffffffffffffffff16815260200190815260200160002060008282546130a29190615198565b92505081905550505050806130b690615052565b9050612f0f565b508473ffffffffffffffffffffffffffffffffffffffff168673ffffffffffffffffffffffffffffffffffffffff168273ffffffffffffffffffffffffffffffffffffffff167f4a39dc06d4c0dbc64b70af90fd698a233a518aa5d07e595d983b8c0526c8f7fb8787604051613134929190615b1c565b60405180910390a461314a818787878787613965565b61315881878787878761396d565b505050505050565b600073ffffffffffffffffffffffffffffffffffffffff168373ffffffffffffffffffffffffffffffffffffffff16036131cf576040517f08c379a00000000000000000000000000000000000000000000000000000000081526004016131c690615bc5565b60405180910390fd5b60006131d9612e37565b905060006131e684613b44565b905060006131f384613b44565b90506132138387600085856040518060200160405280600081525061395d565b600080600087815260200190815260200160002060008873ffffffffffffffffffffffffffffffffffffffff1673ffffffffffffffffffffffffffffffffffffffff168152602001908152602001600020549050848110156132aa576040517f08c379a00000000000000000000000000000000000000000000000000000000081526004016132a190615c57565b60405180910390fd5b84810360008088815260200190815260200160002060008973ffffffffffffffffffffffffffffffffffffffff1673ffffffffffffffffffffffffffffffffffffffff16815260200190815260200160002081905550600073ffffffffffffffffffffffffffffffffffffffff168773ffffffffffffffffffffffffffffffffffffffff168573ffffffffffffffffffffffffffffffffffffffff167fc3d58168c5ae7397731d063d5bbf3d657854427343f4c083240f7aacaa2d0f628989604051613377929190614bdd565b60405180910390a461339d84886000868660405180602001604052806000815250613965565b50505050505050565b8173ffffffffffffffffffffffffffffffffffffffff168373ffffffffffffffffffffffffffffffffffffffff1603613414576040517f08c379a000000000000000000000000000000000000000000000000000000000815260040161340b90615ce9565b60405180910390fd5b80600160008573ffffffffffffffffffffffffffffffffffffffff1673ffffffffffffffffffffffffffffffffffffffff16815260200190815260200160002060008473ffffffffffffffffffffffffffffffffffffffff1673ffffffffffffffffffffffffffffffffffffffff16815260200190815260200160002060006101000a81548160ff0219169083151502179055508173ffffffffffffffffffffffffffffffffffffffff168373ffffffffffffffffffffffffffffffffffffffff167f17307eab39ab6107e8899845ad3d59bd9653f200f220920489ca2b5937696c31836040516135059190613f6a565b60405180910390a3505050565b600073ffffffffffffffffffffffffffffffffffffffff168473ffffffffffffffffffffffffffffffffffffffff1603613581576040517f08c379a000000000000000000000000000000000000000000000000000000000815260040161357890615d7b565b60405180910390fd5b600061358b612e37565b9050600061359885613b44565b905060006135a585613b44565b90506135b68360008985858961395d565b8460008088815260200190815260200160002060008973ffffffffffffffffffffffffffffffffffffffff1673ffffffffffffffffffffffffffffffffffffffff16815260200190815260200160002060008282546136159190615198565b925050819055508673ffffffffffffffffffffffffffffffffffffffff16600073ffffffffffffffffffffffffffffffffffffffff168473ffffffffffffffffffffffffffffffffffffffff167fc3d58168c5ae7397731d063d5bbf3d657854427343f4c083240f7aacaa2d0f628989604051613693929190614bdd565b60405180910390a46136aa83600089858589613965565b6136b983600089898989613bbe565b50505050505050565b600073ffffffffffffffffffffffffffffffffffffffff168473ffffffffffffffffffffffffffffffffffffffff1603613731576040517f08c379a000000000000000000000000000000000000000000000000000000000815260040161372890615a6a565b60405180910390fd5b600061373b612e37565b9050600061374885613b44565b9050600061375585613b44565b905061376583898985858961395d565b600080600088815260200190815260200160002060008a73ffffffffffffffffffffffffffffffffffffffff1673ffffffffffffffffffffffffffffffffffffffff168152602001908152602001600020549050858110156137fc576040517f08c379a00000000000000000000000000000000000000000000000000000000081526004016137f390615afc565b60405180910390fd5b85810360008089815260200190815260200160002060008b73ffffffffffffffffffffffffffffffffffffffff1673ffffffffffffffffffffffffffffffffffffffff168152602001908152602001600020819055508560008089815260200190815260200160002060008a73ffffffffffffffffffffffffffffffffffffffff1673ffffffffffffffffffffffffffffffffffffffff16815260200190815260200160002060008282546138b19190615198565b925050819055508773ffffffffffffffffffffffffffffffffffffffff168973ffffffffffffffffffffffffffffffffffffffff168573ffffffffffffffffffffffffffffffffffffffff167fc3d58168c5ae7397731d063d5bbf3d657854427343f4c083240f7aacaa2d0f628a8a60405161392e929190614bdd565b60405180910390a4613944848a8a86868a613965565b613952848a8a8a8a8a613bbe565b505050505050505050565b505050505050565b505050505050565b61398c8473ffffffffffffffffffffffffffffffffffffffff16613d95565b15613b3c578373ffffffffffffffffffffffffffffffffffffffff1663bc197c8187878686866040518663ffffffff1660e01b81526004016139d2959493929190615df0565b6020604051808303816000875af1925050508015613a0e57506040513d601f19601f82011682018060405250810190613a0b9190615e6d565b60015b613ab357613a1a615ea7565b806308c379a003613a765750613a2e615ec9565b80613a395750613a78565b806040517f08c379a0000000000000000000000000000000000000000000000000000000008152600401613a6d9190614042565b60405180910390fd5b505b6040517f08c379a0000000000000000000000000000000000000000000000000000000008152600401613aaa90615fcb565b60405180910390fd5b63bc197c8160e01b7bffffffffffffffffffffffffffffffffffffffffffffffffffffffff1916817bffffffffffffffffffffffffffffffffffffffffffffffffffffffff191614613b3a576040517f08c379a0000000000000000000000000000000000000000000000000000000008152600401613b319061605d565b60405180910390fd5b505b505050505050565b60606000600167ffffffffffffffff811115613b6357613b62614069565b5b604051908082528060200260200182016040528015613b915781602001602082028036833780820191505090505b5090508281600081518110613ba957613ba8615023565b5b60200260200101818152505080915050919050565b613bdd8473ffffffffffffffffffffffffffffffffffffffff16613d95565b15613d8d578373ffffffffffffffffffffffffffffffffffffffff1663f23a6e6187878686866040518663ffffffff1660e01b8152600401613c2395949392919061607d565b6020604051808303816000875af1925050508015613c5f57506040513d601f19601f82011682018060405250810190613c5c9190615e6d565b60015b613d0457613c6b615ea7565b806308c379a003613cc75750613c7f615ec9565b80613c8a5750613cc9565b806040517f08c379a0000000000000000000000000000000000000000000000000000000008152600401613cbe9190614042565b60405180910390fd5b505b6040517f08c379a0000000000000000000000000000000000000000000000000000000008152600401613cfb90615fcb565b60405180910390fd5b63f23a6e6160e01b7bffffffffffffffffffffffffffffffffffffffffffffffffffffffff1916817bffffffffffffffffffffffffffffffffffffffffffffffffffffffff191614613d8b576040517f08c379a0000000000000000000000000000000000000000000000000000000008152600401613d829061605d565b60405180910390fd5b505b505050505050565b6000808273ffffffffffffffffffffffffffffffffffffffff163b119050919050565b6000604051905090565b600080fd5b600080fd5b600073ffffffffffffffffffffffffffffffffffffffff82169050919050565b6000613df782613dcc565b9050919050565b613e0781613dec565b8114613e1257600080fd5b50565b600081359050613e2481613dfe565b92915050565b6000819050919050565b613e3d81613e2a565b8114613e4857600080fd5b50565b600081359050613e5a81613e34565b92915050565b60008060408385031215613e7757613e76613dc2565b5b6000613e8585828601613e15565b9250506020613e9685828601613e4b565b9150509250929050565b613ea981613e2a565b82525050565b6000602082019050613ec46000830184613ea0565b92915050565b60007fffffffff0000000000000000000000000000000000000000000000000000000082169050919050565b613eff81613eca565b8114613f0a57600080fd5b50565b600081359050613f1c81613ef6565b92915050565b600060208284031215613f3857613f37613dc2565b5b6000613f4684828501613f0d565b91505092915050565b60008115159050919050565b613f6481613f4f565b82525050565b6000602082019050613f7f6000830184613f5b565b92915050565b600060208284031215613f9b57613f9a613dc2565b5b6000613fa984828501613e4b565b91505092915050565b600081519050919050565b600082825260208201905092915050565b60005b83811015613fec578082015181840152602081019050613fd1565b60008484015250505050565b6000601f19601f8301169050919050565b600061401482613fb2565b61401e8185613fbd565b935061402e818560208601613fce565b61403781613ff8565b840191505092915050565b6000602082019050818103600083015261405c8184614009565b905092915050565b600080fd5b7f4e487b7100000000000000000000000000000000000000000000000000000000600052604160045260246000fd5b6140a182613ff8565b810181811067ffffffffffffffff821117156140c0576140bf614069565b5b80604052505050565b60006140d3613db8565b90506140df8282614098565b919050565b600067ffffffffffffffff8211156140ff576140fe614069565b5b602082029050602081019050919050565b600080fd5b6000614128614123846140e4565b6140c9565b9050808382526020820190506020840283018581111561414b5761414a614110565b5b835b8181101561417457806141608882613e4b565b84526020840193505060208101905061414d565b5050509392505050565b600082601f83011261419357614192614064565b5b81356141a3848260208601614115565b91505092915050565b600080fd5b600067ffffffffffffffff8211156141cc576141cb614069565b5b6141d582613ff8565b9050602081019050919050565b82818337600083830152505050565b60006142046141ff846141b1565b6140c9565b9050828152602081018484840111156142205761421f6141ac565b5b61422b8482856141e2565b509392505050565b600082601f83011261424857614247614064565b5b81356142588482602086016141f1565b91505092915050565b600080600080600060a0868803121561427d5761427c613dc2565b5b600061428b88828901613e15565b955050602061429c88828901613e15565b945050604086013567ffffffffffffffff8111156142bd576142bc613dc7565b5b6142c98882890161417e565b935050606086013567ffffffffffffffff8111156142ea576142e9613dc7565b5b6142f68882890161417e565b925050608086013567ffffffffffffffff81111561431757614316613dc7565b5b61432388828901614233565b9150509295509295909350565b6000806040838503121561434757614346613dc2565b5b600061435585828601613e4b565b925050602061436685828601613e4b565b9150509250929050565b600067ffffffffffffffff82111561438b5761438a614069565b5b602082029050602081019050919050565b60006143af6143aa84614370565b6140c9565b905080838252602082019050602084028301858111156143d2576143d1614110565b5b835b818110156143fb57806143e78882613e15565b8452602084019350506020810190506143d4565b5050509392505050565b600082601f83011261441a57614419614064565b5b813561442a84826020860161439c565b91505092915050565b6000806040838503121561444a57614449613dc2565b5b600083013567ffffffffffffffff81111561446857614467613dc7565b5b61447485828601614405565b925050602083013567ffffffffffffffff81111561449557614494613dc7565b5b6144a18582860161417e565b9150509250929050565b600081519050919050565b600082825260208201905092915050565b6000819050602082019050919050565b6144e081613e2a565b82525050565b60006144f283836144d7565b60208301905092915050565b6000602082019050919050565b6000614516826144ab565b61452081856144b6565b935061452b836144c7565b8060005b8381101561455c57815161454388826144e6565b975061454e836144fe565b92505060018101905061452f565b5085935050505092915050565b60006020820190508181036000830152614583818461450b565b905092915050565b60006101408201905081810360008301526145a6818d614009565b90506145b5602083018c613ea0565b6145c2604083018b613ea0565b6145cf606083018a613ea0565b6145dc6080830189613ea0565b6145e960a0830188613ea0565b6145f660c0830187613ea0565b61460360e0830186613ea0565b614611610100830185613ea0565b61461f610120830184613ea0565b9b9a5050505050505050505050565b61463781613dec565b82525050565b6000602082019050614652600083018461462e565b92915050565b61466181613f4f565b811461466c57600080fd5b50565b60008135905061467e81614658565b92915050565b6000806040838503121561469b5761469a613dc2565b5b60006146a985828601613e15565b92505060206146ba8582860161466f565b9150509250929050565b600080fd5b60008083601f8401126146df576146de614064565b5b8235905067ffffffffffffffff8111156146fc576146fb6146c4565b5b60208301915083600182028301111561471857614717614110565b5b9250929050565b60008060008060008060008060006101008a8c03121561474257614741613dc2565b5b60006147508c828d01613e4b565b99505060206147618c828d01613e4b565b98505060406147728c828d01613e4b565b97505060608a013567ffffffffffffffff81111561479357614792613dc7565b5b61479f8c828d016146c9565b965096505060806147b28c828d01613e4b565b94505060a06147c38c828d01613e4b565b93505060c06147d48c828d01613e4b565b92505060e08a013567ffffffffffffffff8111156147f5576147f4613dc7565b5b6148018c828d01614233565b9150509295985092959850929598565b6000806040838503121561482857614827613dc2565b5b600061483685828601613e15565b925050602061484785828601613e15565b9150509250929050565b600080600080600060a0868803121561486d5761486c613dc2565b5b600061487b88828901613e15565b955050602061488c88828901613e15565b945050604061489d88828901613e4b565b93505060606148ae88828901613e4b565b925050608086013567ffffffffffffffff8111156148cf576148ce613dc7565b5b6148db88828901614233565b9150509295509295909350565b7f455243313135353a2061646472657373207a65726f206973206e6f742061207660008201527f616c6964206f776e657200000000000000000000000000000000000000000000602082015250565b6000614944602a83613fbd565b915061494f826148e8565b604082019050919050565b6000602082019050818103600083015261497381614937565b9050919050565b7f4e487b7100000000000000000000000000000000000000000000000000000000600052601160045260246000fd5b60006149b482613e2a565b91506149bf83613e2a565b92508282039050818111156149d7576149d661497a565b5b92915050565b7f4e487b7100000000000000000000000000000000000000000000000000000000600052602260045260246000fd5b60006002820490506001821680614a2457607f821691505b602082108103614a3757614a366149dd565b5b50919050565b6000614a4882613e2a565b9150614a5383613e2a565b9250828202614a6181613e2a565b91508282048414831517614a7857614a7761497a565b5b5092915050565b7f426f6e6420697320636f6d706c65746564000000000000000000000000000000600082015250565b6000614ab5601183613fbd565b9150614ac082614a7f565b602082019050919050565b60006020820190508181036000830152614ae481614aa8565b9050919050565b7f4d696e696d756d206f626c69676174696f6e20706572696f64206e6f7420726560008201527f6163686564000000000000000000000000000000000000000000000000000000602082015250565b6000614b47602583613fbd565b9150614b5282614aeb565b604082019050919050565b60006020820190508181036000830152614b7681614b3a565b9050919050565b7f4e487b7100000000000000000000000000000000000000000000000000000000600052601260045260246000fd5b6000614bb782613e2a565b9150614bc283613e2a565b925082614bd257614bd1614b7d565b5b828204905092915050565b6000604082019050614bf26000830185613ea0565b614bff6020830184613ea0565b9392505050565b7f455243313135353a2063616c6c6572206973206e6f7420746f6b656e206f776e60008201527f6572206f7220617070726f766564000000000000000000000000000000000000602082015250565b6000614c62602e83613fbd565b9150614c6d82614c06565b604082019050919050565b60006020820190508181036000830152614c9181614c55565b9050919050565b7f43616c6c6572206973206e6f7420746865206f776e6572000000000000000000600082015250565b6000614cce601783613fbd565b9150614cd982614c98565b602082019050919050565b60006020820190508181036000830152614cfd81614cc1565b9050919050565b7f5769746864726177206e6f7420616c6c6f776564207768656e20616374697665600082015250565b6000614d3a602083613fbd565b9150614d4582614d04565b602082019050919050565b60006020820190508181036000830152614d6981614d2d565b9050919050565b7f5769746864726177206e6f7420616c6c6f77656420616674657220636f6d706c60008201527f6574696f6e000000000000000000000000000000000000000000000000000000602082015250565b6000614dcc602583613fbd565b9150614dd782614d70565b604082019050919050565b60006020820190508181036000830152614dfb81614dbf565b9050919050565b7f5769746864726177206e6f7420616c6c6f776564207768656e2064656661756c60008201527f7465640000000000000000000000000000000000000000000000000000000000602082015250565b6000614e5e602383613fbd565b9150614e6982614e02565b604082019050919050565b60006020820190508181036000830152614e8d81614e51565b9050919050565b7f5769746864726177616c20746f6b656e20616d6f756e7420657863656564732060008201527f746f6b656e20616d6f756e7420696e20636f6e74726163740000000000000000602082015250565b6000614ef0603883613fbd565b9150614efb82614e94565b604082019050919050565b60006020820190508181036000830152614f1f81614ee3565b9050919050565b6000604082019050614f3b600083018561462e565b614f486020830184613ea0565b9392505050565b600081519050614f5e81614658565b92915050565b600060208284031215614f7a57614f79613dc2565b5b6000614f8884828501614f4f565b91505092915050565b7f455243313135353a206163636f756e747320616e6420696473206c656e67746860008201527f206d69736d617463680000000000000000000000000000000000000000000000602082015250565b6000614fed602983613fbd565b9150614ff882614f91565b604082019050919050565b6000602082019050818103600083015261501c81614fe0565b9050919050565b7f4e487b7100000000000000000000000000000000000000000000000000000000600052603260045260246000fd5b600061505d82613e2a565b91507fffffffffffffffffffffffffffffffffffffffffffffffffffffffffffffffff820361508f5761508e61497a565b5b600182019050919050565b7f426f6e6420697320696e61637469766500000000000000000000000000000000600082015250565b60006150d0601083613fbd565b91506150db8261509a565b602082019050919050565b600060208201905081810360008301526150ff816150c3565b9050919050565b7f496e73756666696369656e7420626f6e64207175616e746974792072656d616960008201527f6e696e6700000000000000000000000000000000000000000000000000000000602082015250565b6000615162602483613fbd565b915061516d82615106565b604082019050919050565b6000602082019050818103600083015261519181615155565b9050919050565b60006151a382613e2a565b91506151ae83613e2a565b92508282019050808211156151c6576151c561497a565b5b92915050565b60006060820190506151e1600083018661462e565b6151ee602083018561462e565b6151fb6040830184613ea0565b949350505050565b7f426f6e64206973206e6f7420636f6d706c657465640000000000000000000000600082015250565b6000615239601583613fbd565b915061524482615203565b602082019050919050565b600060208201905081810360008301526152688161522c565b9050919050565b7f496e73756666696369656e7420626f6e64207175616e74697479000000000000600082015250565b60006152a5601a83613fbd565b91506152b08261526f565b602082019050919050565b600060208201905081810360008301526152d481615298565b9050919050565b7f426f6e64206973206e6f742064656661756c7465640000000000000000000000600082015250565b6000615311601583613fbd565b915061531c826152db565b602082019050919050565b6000602082019050818103600083015261534081615304565b9050919050565b7f426f6e64206973206e6f742063616e63656c6564000000000000000000000000600082015250565b600061537d601483613fbd565b915061538882615347565b602082019050919050565b600060208201905081810360008301526153ac81615370565b9050919050565b7f426f6e6420697320616c726561647920636f6d706c6574656400000000000000600082015250565b60006153e9601983613fbd565b91506153f4826153b3565b602082019050919050565b60006020820190508181036000830152615418816153dc565b9050919050565b7f416374697665206475726174696f6e2073686f756c642062652073686f72746560008201527f72207468616e206475726174696f6e0000000000000000000000000000000000602082015250565b600061547b602f83613fbd565b91506154868261541f565b604082019050919050565b600060208201905081810360008301526154aa8161546e565b9050919050565b60008190508160005260206000209050919050565b60006020601f8301049050919050565b600082821b905092915050565b6000600883026155137fffffffffffffffffffffffffffffffffffffffffffffffffffffffffffffffff826154d6565b61551d86836154d6565b95508019841693508086168417925050509392505050565b6000819050919050565b600061555a61555561555084613e2a565b615535565b613e2a565b9050919050565b6000819050919050565b6155748361553f565b61558861558082615561565b8484546154e3565b825550505050565b600090565b61559d615590565b6155a881848461556b565b505050565b5b818110156155cc576155c1600082615595565b6001810190506155ae565b5050565b601f821115615611576155e2816154b1565b6155eb846154c6565b810160208510156155fa578190505b61560e615606856154c6565b8301826155ad565b50505b505050565b600082821c905092915050565b600061563460001984600802615616565b1980831691505092915050565b600061564d8383615623565b9150826002028217905092915050565b61566682613fb2565b67ffffffffffffffff81111561567f5761567e614069565b5b6156898254614a0c565b6156948282856155d0565b600060209050601f8311600181146156c757600084156156b5578287015190505b6156bf8582615641565b865550615727565b601f1984166156d5866154b1565b60005b828110156156fd578489015182556001820191506020850194506020810190506156d8565b8683101561571a5784890151615716601f891682615623565b8355505b6001600288020188555050505b505050505050565b60006080820190506157446000830187613ea0565b6157516020830186613ea0565b61575e6040830185613ea0565b61576b6060830184613ea0565b95945050505050565b7f626f6e642069732064656661756c746564000000000000000000000000000000600082015250565b60006157aa601183613fbd565b91506157b582615774565b602082019050919050565b600060208201905081810360008301526157d98161579d565b9050919050565b7f626f6e6420697320636f6d706c65746564000000000000000000000000000000600082015250565b6000615816601183613fbd565b9150615821826157e0565b602082019050919050565b6000602082019050818103600083015261584581615809565b9050919050565b60008151905061585b81613e34565b92915050565b60006020828403121561587757615876613dc2565b5b60006158858482850161584c565b91505092915050565b7f43616e6e6f742077697468647261772065786365737300000000000000000000600082015250565b60006158c4601683613fbd565b91506158cf8261588e565b602082019050919050565b600060208201905081810360008301526158f3816158b7565b9050919050565b7f43616e6e6f742077697468647261772066726f6d20656d70747920706f6f6c00600082015250565b6000615930601f83613fbd565b915061593b826158fa565b602082019050919050565b6000602082019050818103600083015261595f81615923565b9050919050565b7f455243313135353a2069647320616e6420616d6f756e7473206c656e6774682060008201527f6d69736d61746368000000000000000000000000000000000000000000000000602082015250565b60006159c2602883613fbd565b91506159cd82615966565b604082019050919050565b600060208201905081810360008301526159f1816159b5565b9050919050565b7f455243313135353a207472616e7366657220746f20746865207a65726f20616460008201527f6472657373000000000000000000000000000000000000000000000000000000602082015250565b6000615a54602583613fbd565b9150615a5f826159f8565b604082019050919050565b60006020820190508181036000830152615a8381615a47565b9050919050565b7f455243313135353a20696e73756666696369656e742062616c616e636520666f60008201527f72207472616e7366657200000000000000000000000000000000000000000000602082015250565b6000615ae6602a83613fbd565b9150615af182615a8a565b604082019050919050565b60006020820190508181036000830152615b1581615ad9565b9050919050565b60006040820190508181036000830152615b36818561450b565b90508181036020830152615b4a818461450b565b90509392505050565b7f455243313135353a206275726e2066726f6d20746865207a65726f206164647260008201527f6573730000000000000000000000000000000000000000000000000000000000602082015250565b6000615baf602383613fbd565b9150615bba82615b53565b604082019050919050565b60006020820190508181036000830152615bde81615ba2565b9050919050565b7f455243313135353a206275726e20616d6f756e7420657863656564732062616c60008201527f616e636500000000000000000000000000000000000000000000000000000000602082015250565b6000615c41602483613fbd565b9150615c4c82615be5565b604082019050919050565b60006020820190508181036000830152615c7081615c34565b9050919050565b7f455243313135353a2073657474696e6720617070726f76616c2073746174757360008201527f20666f722073656c660000000000000000000000000000000000000000000000602082015250565b6000615cd3602983613fbd565b9150615cde82615c77565b604082019050919050565b60006020820190508181036000830152615d0281615cc6565b9050919050565b7f455243313135353a206d696e7420746f20746865207a65726f2061646472657360008201527f7300000000000000000000000000000000000000000000000000000000000000602082015250565b6000615d65602183613fbd565b9150615d7082615d09565b604082019050919050565b60006020820190508181036000830152615d9481615d58565b9050919050565b600081519050919050565b600082825260208201905092915050565b6000615dc282615d9b565b615dcc8185615da6565b9350615ddc818560208601613fce565b615de581613ff8565b840191505092915050565b600060a082019050615e05600083018861462e565b615e12602083018761462e565b8181036040830152615e24818661450b565b90508181036060830152615e38818561450b565b90508181036080830152615e4c8184615db7565b90509695505050505050565b600081519050615e6781613ef6565b92915050565b600060208284031215615e8357615e82613dc2565b5b6000615e9184828501615e58565b91505092915050565b60008160e01c9050919050565b600060033d1115615ec65760046000803e615ec3600051615e9a565b90505b90565b600060443d10615f5657615edb613db8565b60043d036004823e80513d602482011167ffffffffffffffff82111715615f03575050615f56565b808201805167ffffffffffffffff811115615f215750505050615f56565b80602083010160043d038501811115615f3e575050505050615f56565b615f4d82602001850186614098565b82955050505050505b90565b7f455243313135353a207472616e7366657220746f206e6f6e2d4552433131353560008201527f526563656976657220696d706c656d656e746572000000000000000000000000602082015250565b6000615fb5603483613fbd565b9150615fc082615f59565b604082019050919050565b60006020820190508181036000830152615fe481615fa8565b9050919050565b7f455243313135353a204552433131353552656365697665722072656a6563746560008201527f6420746f6b656e73000000000000000000000000000000000000000000000000602082015250565b6000616047602883613fbd565b915061605282615feb565b604082019050919050565b600060208201905081810360008301526160768161603a565b9050919050565b600060a082019050616092600083018861462e565b61609f602083018761462e565b6160ac6040830186613ea0565b6160b96060830185613ea0565b81810360808301526160cb8184615db7565b9050969550505050505056fea2646970667358221220deee529dd1c95088c39621c92c0bb1e56f451e0203bf1b29f2d78837dd5e81b964736f6c63430008110033",
  "linkReferences": {},
  "deployedLinkReferences": {}
}