{
  "_format": "hh-sol-artifact-1",
  "contractName": "CallableBondFactory",
  "sourceName": "contracts/CallableBondFactory.sol",
  "abi": [
    {
      "inputs": [
        {
          "internalType": "string",
          "name": "uri",
          "type": "string"
        },
        {
          "internalType": "address",
          "name": "token",
          "type": "address"
        }
      ],
      "stateMutability": "nonpayable",
      "type": "constructor"
    },
    {
      "anonymous": false,
      "inputs": [
        {
          "indexed": true,
          "internalType": "address",
          "name": "account",
          "type": "address"
        },
        {
          "indexed": true,
          "internalType": "address",
          "name": "operator",
          "type": "address"
        },
        {
          "indexed": false,
          "internalType": "bool",
          "name": "approved",
          "type": "bool"
        }
      ],
      "name": "ApprovalForAll",
      "type": "event"
    },
    {
      "anonymous": false,
      "inputs": [
        {
          "indexed": true,
          "internalType": "uint256",
          "name": "id",
          "type": "uint256"
        },
        {
          "indexed": false,
          "internalType": "uint256",
          "name": "couponRate",
          "type": "uint256"
        },
        {
          "indexed": false,
          "internalType": "uint256",
          "name": "couponRateOnCall",
          "type": "uint256"
        }
      ],
      "name": "Called",
      "type": "event"
    },
    {
      "anonymous": false,
      "inputs": [
        {
          "indexed": true,
          "internalType": "uint256",
          "name": "id",
          "type": "uint256"
        },
        {
          "indexed": false,
          "internalType": "uint256",
          "name": "totalDebt",
          "type": "uint256"
        },
        {
          "indexed": false,
          "internalType": "uint256",
          "name": "paidDebt",
          "type": "uint256"
        }
      ],
      "name": "Completed",
      "type": "event"
    },
    {
      "anonymous": false,
      "inputs": [
        {
          "indexed": true,
          "internalType": "uint256",
          "name": "id",
          "type": "uint256"
        },
        {
          "indexed": false,
          "internalType": "uint256",
          "name": "totalDebt",
          "type": "uint256"
        },
        {
          "indexed": false,
          "internalType": "uint256",
          "name": "paidDebt",
          "type": "uint256"
        }
      ],
      "name": "Defaulted",
      "type": "event"
    },
    {
      "anonymous": false,
      "inputs": [
        {
          "indexed": true,
          "internalType": "uint256",
          "name": "id",
          "type": "uint256"
        },
        {
          "indexed": false,
          "internalType": "uint256",
          "name": "bondQuantity",
          "type": "uint256"
        },
        {
          "indexed": false,
          "internalType": "uint256",
          "name": "tokenAmountPerBond",
          "type": "uint256"
        },
        {
          "indexed": false,
          "internalType": "uint256",
          "name": "couponRate",
          "type": "uint256"
        }
      ],
      "name": "Issued",
      "type": "event"
    },
    {
      "anonymous": false,
      "inputs": [
        {
          "indexed": true,
          "internalType": "address",
          "name": "operator",
          "type": "address"
        },
        {
          "indexed": true,
          "internalType": "address",
          "name": "from",
          "type": "address"
        },
        {
          "indexed": true,
          "internalType": "address",
          "name": "to",
          "type": "address"
        },
        {
          "indexed": false,
          "internalType": "uint256[]",
          "name": "ids",
          "type": "uint256[]"
        },
        {
          "indexed": false,
          "internalType": "uint256[]",
          "name": "values",
          "type": "uint256[]"
        }
      ],
      "name": "TransferBatch",
      "type": "event"
    },
    {
      "anonymous": false,
      "inputs": [
        {
          "indexed": true,
          "internalType": "address",
          "name": "operator",
          "type": "address"
        },
        {
          "indexed": true,
          "internalType": "address",
          "name": "from",
          "type": "address"
        },
        {
          "indexed": true,
          "internalType": "address",
          "name": "to",
          "type": "address"
        },
        {
          "indexed": false,
          "internalType": "uint256",
          "name": "id",
          "type": "uint256"
        },
        {
          "indexed": false,
          "internalType": "uint256",
          "name": "value",
          "type": "uint256"
        }
      ],
      "name": "TransferSingle",
      "type": "event"
    },
    {
      "anonymous": false,
      "inputs": [
        {
          "indexed": false,
          "internalType": "string",
          "name": "value",
          "type": "string"
        },
        {
          "indexed": true,
          "internalType": "uint256",
          "name": "id",
          "type": "uint256"
        }
      ],
      "name": "URI",
      "type": "event"
    },
    {
      "inputs": [
        {
          "internalType": "address",
          "name": "account",
          "type": "address"
        },
        {
          "internalType": "uint256",
          "name": "id",
          "type": "uint256"
        }
      ],
      "name": "balanceOf",
      "outputs": [
        {
          "internalType": "uint256",
          "name": "",
          "type": "uint256"
        }
      ],
      "stateMutability": "view",
      "type": "function"
    },
    {
      "inputs": [
        {
          "internalType": "address[]",
          "name": "accounts",
          "type": "address[]"
        },
        {
          "internalType": "uint256[]",
          "name": "ids",
          "type": "uint256[]"
        }
      ],
      "name": "balanceOfBatch",
      "outputs": [
        {
          "internalType": "uint256[]",
          "name": "",
          "type": "uint256[]"
        }
      ],
      "stateMutability": "view",
      "type": "function"
    },
    {
      "inputs": [
        {
          "internalType": "uint256",
          "name": "id",
          "type": "uint256"
        }
      ],
      "name": "bondmetaData",
      "outputs": [
        {
          "internalType": "string",
          "name": "",
          "type": "string"
        },
        {
          "internalType": "uint256",
          "name": "",
          "type": "uint256"
        },
        {
          "internalType": "uint256",
          "name": "",
          "type": "uint256"
        },
        {
          "internalType": "uint256",
          "name": "",
          "type": "uint256"
        },
        {
          "internalType": "uint256",
          "name": "",
          "type": "uint256"
        },
        {
          "internalType": "uint256",
          "name": "",
          "type": "uint256"
        },
        {
          "internalType": "uint256",
          "name": "",
          "type": "uint256"
        },
        {
          "internalType": "uint256",
          "name": "",
          "type": "uint256"
        },
        {
          "internalType": "uint256",
          "name": "",
          "type": "uint256"
        },
        {
          "internalType": "uint256",
          "name": "",
          "type": "uint256"
        }
      ],
      "stateMutability": "view",
      "type": "function"
    },
    {
      "inputs": [
        {
          "internalType": "uint256",
          "name": "id",
          "type": "uint256"
        }
      ],
      "name": "call",
      "outputs": [],
      "stateMutability": "nonpayable",
      "type": "function"
    },
    {
      "inputs": [
        {
          "internalType": "uint256",
          "name": "id",
          "type": "uint256"
        }
      ],
      "name": "couponRate",
      "outputs": [
        {
          "internalType": "uint256",
          "name": "",
          "type": "uint256"
        }
      ],
      "stateMutability": "view",
      "type": "function"
    },
    {
      "inputs": [
        {
          "internalType": "uint256",
          "name": "id",
          "type": "uint256"
        }
      ],
      "name": "couponRateOnCall",
      "outputs": [
        {
          "internalType": "uint256",
          "name": "",
          "type": "uint256"
        }
      ],
      "stateMutability": "view",
      "type": "function"
    },
    {
      "inputs": [
        {
          "internalType": "uint256",
          "name": "id",
          "type": "uint256"
        },
        {
          "internalType": "uint256",
          "name": "tokenAmount",
          "type": "uint256"
        }
      ],
      "name": "deposit",
      "outputs": [],
      "stateMutability": "nonpayable",
      "type": "function"
    },
    {
      "inputs": [
        {
          "internalType": "uint256",
          "name": "id",
          "type": "uint256"
        }
      ],
      "name": "hasReachedMaturity",
      "outputs": [
        {
          "internalType": "bool",
          "name": "",
          "type": "bool"
        }
      ],
      "stateMutability": "view",
      "type": "function"
    },
    {
      "inputs": [
        {
          "internalType": "uint256",
          "name": "id",
          "type": "uint256"
        }
      ],
      "name": "isActive",
      "outputs": [
        {
          "internalType": "bool",
          "name": "",
          "type": "bool"
        }
      ],
      "stateMutability": "view",
      "type": "function"
    },
    {
      "inputs": [
        {
          "internalType": "address",
          "name": "account",
          "type": "address"
        },
        {
          "internalType": "address",
          "name": "operator",
          "type": "address"
        }
      ],
      "name": "isApprovedForAll",
      "outputs": [
        {
          "internalType": "bool",
          "name": "",
          "type": "bool"
        }
      ],
      "stateMutability": "view",
      "type": "function"
    },
    {
      "inputs": [
        {
          "internalType": "uint256",
          "name": "id",
          "type": "uint256"
        }
      ],
      "name": "isCanceled",
      "outputs": [
        {
          "internalType": "bool",
          "name": "",
          "type": "bool"
        }
      ],
      "stateMutability": "view",
      "type": "function"
    },
    {
      "inputs": [
        {
          "internalType": "uint256",
          "name": "id",
          "type": "uint256"
        }
      ],
      "name": "isCompleted",
      "outputs": [
        {
          "internalType": "bool",
          "name": "",
          "type": "bool"
        }
      ],
      "stateMutability": "view",
      "type": "function"
    },
    {
      "inputs": [
        {
          "internalType": "uint256",
          "name": "id",
          "type": "uint256"
        }
      ],
      "name": "isCompletedInTheory",
      "outputs": [
        {
          "internalType": "bool",
          "name": "",
          "type": "bool"
        }
      ],
      "stateMutability": "view",
      "type": "function"
    },
    {
      "inputs": [
        {
          "internalType": "uint256",
          "name": "id",
          "type": "uint256"
        }
      ],
      "name": "isDefaulted",
      "outputs": [
        {
          "internalType": "bool",
          "name": "",
          "type": "bool"
        }
      ],
      "stateMutability": "view",
      "type": "function"
    },
    {
      "inputs": [
        {
          "internalType": "uint256",
          "name": "id",
          "type": "uint256"
        }
      ],
      "name": "isDefaultedInTheory",
      "outputs": [
        {
          "internalType": "bool",
          "name": "",
          "type": "bool"
        }
      ],
      "stateMutability": "view",
      "type": "function"
    },
    {
      "inputs": [
        {
          "internalType": "uint256",
          "name": "id",
          "type": "uint256"
        }
      ],
      "name": "isFulfilled",
      "outputs": [
        {
          "internalType": "bool",
          "name": "",
          "type": "bool"
        }
      ],
      "stateMutability": "view",
      "type": "function"
    },
    {
      "inputs": [
        {
          "internalType": "uint256",
          "name": "id",
          "type": "uint256"
        }
      ],
      "name": "isFullyRedeemed",
      "outputs": [
        {
          "internalType": "bool",
          "name": "",
          "type": "bool"
        }
      ],
      "stateMutability": "view",
      "type": "function"
    },
    {
      "inputs": [
        {
          "internalType": "uint256",
          "name": "bondQuantity",
          "type": "uint256"
        },
        {
          "internalType": "uint256",
          "name": "minPurchasedQuantity",
          "type": "uint256"
        },
        {
          "internalType": "uint256",
          "name": "tokenAmountPerBond",
          "type": "uint256"
        },
        {
          "internalType": "string",
          "name": "ticker",
          "type": "string"
        },
        {
          "internalType": "uint256",
          "name": "durationDays",
          "type": "uint256"
        },
        {
          "internalType": "uint256",
          "name": "activeDurationInDays",
          "type": "uint256"
        },
        {
          "internalType": "uint256",
          "name": "rate",
          "type": "uint256"
        },
        {
          "internalType": "bytes",
          "name": "data",
          "type": "bytes"
        }
      ],
      "name": "issue",
      "outputs": [
        {
          "internalType": "uint256",
          "name": "id",
          "type": "uint256"
        }
      ],
      "stateMutability": "nonpayable",
      "type": "function"
    },
    {
      "inputs": [
        {
          "internalType": "uint256",
          "name": "id",
          "type": "uint256"
        }
      ],
      "name": "markAsCompleted",
      "outputs": [],
      "stateMutability": "nonpayable",
      "type": "function"
    },
    {
      "inputs": [
        {
          "internalType": "uint256",
          "name": "id",
          "type": "uint256"
        }
      ],
      "name": "markAsDefaulted",
      "outputs": [],
      "stateMutability": "nonpayable",
      "type": "function"
    },
    {
      "inputs": [
        {
          "internalType": "uint256",
          "name": "id",
          "type": "uint256"
        }
      ],
      "name": "poolAmount",
      "outputs": [
        {
          "internalType": "uint256",
          "name": "",
          "type": "uint256"
        }
      ],
      "stateMutability": "view",
      "type": "function"
    },
    {
      "inputs": [
        {
          "internalType": "uint256",
          "name": "id",
          "type": "uint256"
        }
      ],
      "name": "principal",
      "outputs": [
        {
          "internalType": "uint256",
          "name": "",
          "type": "uint256"
        }
      ],
      "stateMutability": "view",
      "type": "function"
    },
    {
      "inputs": [
        {
          "internalType": "uint256",
          "name": "id",
          "type": "uint256"
        }
      ],
      "name": "principalWithInterest",
      "outputs": [
        {
          "internalType": "uint256",
          "name": "",
          "type": "uint256"
        }
      ],
      "stateMutability": "view",
      "type": "function"
    },
    {
      "inputs": [
        {
          "internalType": "uint256",
          "name": "id",
          "type": "uint256"
        },
        {
          "internalType": "uint256",
          "name": "bondQuantity",
          "type": "uint256"
        }
      ],
      "name": "purchase",
      "outputs": [],
      "stateMutability": "nonpayable",
      "type": "function"
    },
    {
      "inputs": [
        {
          "internalType": "uint256",
          "name": "id",
          "type": "uint256"
        },
        {
          "internalType": "uint256",
          "name": "bondQuantity",
          "type": "uint256"
        }
      ],
      "name": "redeem",
      "outputs": [],
      "stateMutability": "nonpayable",
      "type": "function"
    },
    {
      "inputs": [
        {
          "internalType": "uint256",
          "name": "id",
          "type": "uint256"
        },
        {
          "internalType": "uint256",
          "name": "bondQuantity",
          "type": "uint256"
        }
      ],
      "name": "redeemCanceled",
      "outputs": [],
      "stateMutability": "nonpayable",
      "type": "function"
    },
    {
      "inputs": [
        {
          "internalType": "uint256",
          "name": "id",
          "type": "uint256"
        },
        {
          "internalType": "uint256",
          "name": "bondQuantity",
          "type": "uint256"
        }
      ],
      "name": "redeemDefaulted",
      "outputs": [],
      "stateMutability": "nonpayable",
      "type": "function"
    },
    {
      "inputs": [
        {
          "internalType": "uint256",
          "name": "id",
          "type": "uint256"
        }
      ],
      "name": "remainingQuantity",
      "outputs": [
        {
          "internalType": "uint256",
          "name": "",
          "type": "uint256"
        }
      ],
      "stateMutability": "view",
      "type": "function"
    },
    {
      "inputs": [
        {
          "internalType": "address",
          "name": "from",
          "type": "address"
        },
        {
          "internalType": "address",
          "name": "to",
          "type": "address"
        },
        {
          "internalType": "uint256[]",
          "name": "ids",
          "type": "uint256[]"
        },
        {
          "internalType": "uint256[]",
          "name": "amounts",
          "type": "uint256[]"
        },
        {
          "internalType": "bytes",
          "name": "data",
          "type": "bytes"
        }
      ],
      "name": "safeBatchTransferFrom",
      "outputs": [],
      "stateMutability": "nonpayable",
      "type": "function"
    },
    {
      "inputs": [
        {
          "internalType": "address",
          "name": "from",
          "type": "address"
        },
        {
          "internalType": "address",
          "name": "to",
          "type": "address"
        },
        {
          "internalType": "uint256",
          "name": "id",
          "type": "uint256"
        },
        {
          "internalType": "uint256",
          "name": "amount",
          "type": "uint256"
        },
        {
          "internalType": "bytes",
          "name": "data",
          "type": "bytes"
        }
      ],
      "name": "safeTransferFrom",
      "outputs": [],
      "stateMutability": "nonpayable",
      "type": "function"
    },
    {
      "inputs": [
        {
          "internalType": "address",
          "name": "operator",
          "type": "address"
        },
        {
          "internalType": "bool",
          "name": "approved",
          "type": "bool"
        }
      ],
      "name": "setApprovalForAll",
      "outputs": [],
      "stateMutability": "nonpayable",
      "type": "function"
    },
    {
      "inputs": [
        {
          "internalType": "bytes4",
          "name": "interfaceId",
          "type": "bytes4"
        }
      ],
      "name": "supportsInterface",
      "outputs": [
        {
          "internalType": "bool",
          "name": "",
          "type": "bool"
        }
      ],
      "stateMutability": "view",
      "type": "function"
    },
    {
      "inputs": [
        {
          "internalType": "uint256",
          "name": "id",
          "type": "uint256"
        }
      ],
      "name": "timeElapsed",
      "outputs": [
        {
          "internalType": "uint256",
          "name": "",
          "type": "uint256"
        }
      ],
      "stateMutability": "view",
      "type": "function"
    },
    {
      "inputs": [
        {
          "internalType": "uint256",
          "name": "id",
          "type": "uint256"
        }
      ],
      "name": "timeRemainingToEndOfActive",
      "outputs": [
        {
          "internalType": "uint256",
          "name": "",
          "type": "uint256"
        }
      ],
      "stateMutability": "view",
      "type": "function"
    },
    {
      "inputs": [
        {
          "internalType": "uint256",
          "name": "id",
          "type": "uint256"
        }
      ],
      "name": "timeRemainingToMaturity",
      "outputs": [
        {
          "internalType": "uint256",
          "name": "",
          "type": "uint256"
        }
      ],
      "stateMutability": "view",
      "type": "function"
    },
    {
      "inputs": [],
      "name": "tvl",
      "outputs": [
        {
          "internalType": "uint256",
          "name": "",
          "type": "uint256"
        }
      ],
      "stateMutability": "view",
      "type": "function"
    },
    {
      "inputs": [
        {
          "internalType": "uint256",
          "name": "",
          "type": "uint256"
        }
      ],
      "name": "uri",
      "outputs": [
        {
          "internalType": "string",
          "name": "",
          "type": "string"
        }
      ],
      "stateMutability": "view",
      "type": "function"
    },
    {
      "inputs": [
        {
          "internalType": "uint256",
          "name": "id",
          "type": "uint256"
        },
        {
          "internalType": "uint256",
          "name": "tokenAmount",
          "type": "uint256"
        }
      ],
      "name": "withdraw",
      "outputs": [],
      "stateMutability": "nonpayable",
      "type": "function"
    },
    {
      "inputs": [
        {
          "internalType": "uint256",
          "name": "id",
          "type": "uint256"
        }
      ],
      "name": "withdrawExcess",
      "outputs": [],
      "stateMutability": "nonpayable",
      "type": "function"
    }
  ],
  "bytecode": "0x60c060405260006003553480156200001657600080fd5b5060405162005f3a38038062005f3a83398181016040528101906200003c9190620002d0565b8181816200005081620000c360201b60201c565b503373ffffffffffffffffffffffffffffffffffffffff1660808173ffffffffffffffffffffffffffffffffffffffff16815250508073ffffffffffffffffffffffffffffffffffffffff1660a08173ffffffffffffffffffffffffffffffffffffffff16815250505050505062000668565b8060029081620000d4919062000581565b5050565b6000604051905090565b600080fd5b600080fd5b600080fd5b600080fd5b6000601f19601f8301169050919050565b7f4e487b7100000000000000000000000000000000000000000000000000000000600052604160045260246000fd5b6200014182620000f6565b810181811067ffffffffffffffff8211171562000163576200016262000107565b5b80604052505050565b600062000178620000d8565b905062000186828262000136565b919050565b600067ffffffffffffffff821115620001a957620001a862000107565b5b620001b482620000f6565b9050602081019050919050565b60005b83811015620001e1578082015181840152602081019050620001c4565b60008484015250505050565b600062000204620001fe846200018b565b6200016c565b905082815260208101848484011115620002235762000222620000f1565b5b62000230848285620001c1565b509392505050565b600082601f83011262000250576200024f620000ec565b5b815162000262848260208601620001ed565b91505092915050565b600073ffffffffffffffffffffffffffffffffffffffff82169050919050565b600062000298826200026b565b9050919050565b620002aa816200028b565b8114620002b657600080fd5b50565b600081519050620002ca816200029f565b92915050565b60008060408385031215620002ea57620002e9620000e2565b5b600083015167ffffffffffffffff8111156200030b576200030a620000e7565b5b620003198582860162000238565b92505060206200032c85828601620002b9565b9150509250929050565b600081519050919050565b7f4e487b7100000000000000000000000000000000000000000000000000000000600052602260045260246000fd5b600060028204905060018216806200038957607f821691505b6020821081036200039f576200039e62000341565b5b50919050565b60008190508160005260206000209050919050565b60006020601f8301049050919050565b600082821b905092915050565b600060088302620004097fffffffffffffffffffffffffffffffffffffffffffffffffffffffffffffffff82620003ca565b620004158683620003ca565b95508019841693508086168417925050509392505050565b6000819050919050565b6000819050919050565b6000620004626200045c62000456846200042d565b62000437565b6200042d565b9050919050565b6000819050919050565b6200047e8362000441565b620004966200048d8262000469565b848454620003d7565b825550505050565b600090565b620004ad6200049e565b620004ba81848462000473565b505050565b5b81811015620004e257620004d6600082620004a3565b600181019050620004c0565b5050565b601f8211156200053157620004fb81620003a5565b6200050684620003ba565b8101602085101562000516578190505b6200052e6200052585620003ba565b830182620004bf565b50505b505050565b600082821c905092915050565b6000620005566000198460080262000536565b1980831691505092915050565b600062000571838362000543565b9150826002028217905092915050565b6200058c8262000336565b67ffffffffffffffff811115620005a857620005a762000107565b5b620005b4825462000370565b620005c1828285620004e6565b600060209050601f831160018114620005f95760008415620005e4578287015190505b620005f0858262000563565b86555062000660565b601f1984166200060986620003a5565b60005b8281101562000633578489015182556001820191506020850194506020810190506200060c565b868310156200065357848901516200064f601f89168262000543565b8355505b6001600288020188555050505b505050505050565b60805160a051615858620006e2600039600081816110a10152818161147d0152818161171e01528181611a6101528181611c2e01528181611e0b0152818161203f0152818161257001528181612617015261280c015260008181610e5f015281816121220152818161241601526126b601526158586000f3fe608060405234801561001057600080fd5b506004361061023c5760003560e01c80637cbc23731161013b578063b09f2b1c116100b8578063e2bbb1581161007c578063e2bbb158146107e2578063e5328e06146107fe578063e755ddd71461081c578063e985e9c514610838578063f242432a146108685761023c565b8063b09f2b1c14610711578063c0a6026c1461072d578063c7bc573014610749578063d32fe02e14610779578063d3b7811b146107b25761023c565b8063932a8de0116100ff578063932a8de01461065d578063a22cb4651461068d578063a8743022146106a9578063a996ef08146106c5578063abac75e1146106e15761023c565b80637cbc23731461058157806382afd23b1461059d57806388bdc083146105cd57806389c2bb1f146105fd5780638f0dbf771461062d5761023c565b80632f3ad61f116101c9578063549493bb1161018d578063549493bb146104a55780636ff80d93146104d557806370876c981461050557806377e2a08b146105215780637a41984b146105515761023c565b80632f3ad61f146103c95780633097afb8146103f957806339e3af9b14610429578063441a3e70146104595780634e1273f4146104755761023c565b8063091490201161021057806309149020146103015780630e89341c1461033157806314f29493146103615780632b096926146103915780632eb2c2d6146103ad5761023c565b8062fdd58e1461024157806301ffc9a71461027157806302159497146102a157806308913ce8146102d1575b600080fd5b61025b600480360381019061025691906138d7565b610884565b6040516102689190613926565b60405180910390f35b61028b60048036038101906102869190613999565b61094c565b60405161029891906139e1565b60405180910390f35b6102bb60048036038101906102b691906139fc565b610a2e565b6040516102c89190613926565b60405180910390f35b6102eb60048036038101906102e691906139fc565b610a4b565b6040516102f89190613926565b60405180910390f35b61031b600480360381019061031691906139fc565b610a76565b60405161032891906139e1565b60405180910390f35b61034b600480360381019061034691906139fc565b610aac565b6040516103589190613ab9565b60405180910390f35b61037b600480360381019061037691906139fc565b610b40565b6040516103889190613926565b60405180910390f35b6103ab60048036038101906103a691906139fc565b610b7e565b005b6103c760048036038101906103c29190613cd8565b610d34565b005b6103e360048036038101906103de91906139fc565b610dd5565b6040516103f091906139e1565b60405180910390f35b610413600480360381019061040e91906139fc565b610dff565b60405161042091906139e1565b60405180910390f35b610443600480360381019061043e91906139fc565b610e38565b60405161045091906139e1565b60405180910390f35b610473600480360381019061046e9190613da7565b610e5d565b005b61048f600480360381019061048a9190613eaa565b611142565b60405161049c9190613fe0565b60405180910390f35b6104bf60048036038101906104ba91906139fc565b61125b565b6040516104cc91906139e1565b60405180910390f35b6104ef60048036038101906104ea91906139fc565b61128d565b6040516104fc91906139e1565b60405180910390f35b61051f600480360381019061051a9190613da7565b6112c5565b005b61053b600480360381019061053691906139fc565b611576565b6040516105489190613926565b60405180910390f35b61056b600480360381019061056691906139fc565b611606565b60405161057891906139e1565b60405180910390f35b61059b60048036038101906105969190613da7565b611630565b005b6105b760048036038101906105b291906139fc565b6117ea565b6040516105c491906139e1565b60405180910390f35b6105e760048036038101906105e291906139fc565b61180d565b6040516105f49190613926565b60405180910390f35b610617600480360381019061061291906139fc565b611840565b6040516106249190613926565b60405180910390f35b610647600480360381019061064291906139fc565b61185d565b60405161065491906139e1565b60405180910390f35b610677600480360381019061067291906139fc565b61187f565b6040516106849190613926565b60405180910390f35b6106a760048036038101906106a2919061402e565b6118bd565b005b6106c360048036038101906106be91906139fc565b6118d3565b005b6106df60048036038101906106da9190613da7565b611b40565b005b6106fb60048036038101906106f691906139fc565b611cfa565b6040516107089190613926565b60405180910390f35b61072b60048036038101906107269190613da7565b611d1a565b005b610747600480360381019061074291906139fc565b611ed7565b005b610763600480360381019061075e91906140c9565b61211e565b6040516107709190613926565b60405180910390f35b610793600480360381019061078e91906139fc565b61226d565b6040516107a99a999897969594939291906141bb565b60405180910390f35b6107cc60048036038101906107c791906139fc565b6123e1565b6040516107d99190613926565b60405180910390f35b6107fc60048036038101906107f79190613da7565b612414565b005b610806612613565b6040516108139190613926565b60405180910390f35b610836600480360381019061083191906139fc565b6126b4565b005b610852600480360381019061084d919061425e565b6128bf565b60405161085f91906139e1565b60405180910390f35b610882600480360381019061087d919061429e565b612953565b005b60008073ffffffffffffffffffffffffffffffffffffffff168373ffffffffffffffffffffffffffffffffffffffff16036108f4576040517f08c379a00000000000000000000000000000000000000000000000000000000081526004016108eb906143a7565b60405180910390fd5b60008083815260200190815260200160002060008473ffffffffffffffffffffffffffffffffffffffff1673ffffffffffffffffffffffffffffffffffffffff16815260200190815260200160002054905092915050565b60007fd9b67a26000000000000000000000000000000000000000000000000000000007bffffffffffffffffffffffffffffffffffffffffffffffffffffffff1916827bffffffffffffffffffffffffffffffffffffffffffffffffffffffff19161480610a1757507f0e89341c000000000000000000000000000000000000000000000000000000007bffffffffffffffffffffffffffffffffffffffffffffffffffffffff1916827bffffffffffffffffffffffffffffffffffffffffffffffffffffffff1916145b80610a275750610a26826129f4565b5b9050919050565b600060076000838152602001908152602001600020549050919050565b6000600460008381526020019081526020016000206002015442610a6f91906143f6565b9050919050565b60006004600083815260200190815260200160002060080154600560008481526020019081526020016000205410159050919050565b606060028054610abb90614459565b80601f0160208091040260200160405190810160405280929190818152602001828054610ae790614459565b8015610b345780601f10610b0957610100808354040283529160200191610b34565b820191906000526020600020905b815481529060010190602001808311610b1757829003601f168201915b50505050509050919050565b600060056000838152602001908152602001600020546004600084815260200190815260200160002060010154610b77919061448a565b9050919050565b610b8781611606565b15610bc7576040517f08c379a0000000000000000000000000000000000000000000000000000000008152600401610bbe90614518565b60405180910390fd5b62015180600c600083815260200190815260200160002054610be9919061448a565b610bf282610a4b565b11610c32576040517f08c379a0000000000000000000000000000000000000000000000000000000008152600401610c29906145aa565b60405180910390fd5b620151806004600083815260200190815260200160002060060154610c57919061448a565b610c6082610a4b565b6004600084815260200190815260200160002060090154610c81919061448a565b610c8b91906145f9565b600d6000838152602001908152602001600020819055506001600e600083815260200190815260200160002060006101000a81548160ff021916908315150217905550807fb580a16317cf9efa50cf987c976c3fb7de7eaf3149b9dd5b8a576a043042f44c6004600084815260200190815260200160002060090154600d600085815260200190815260200160002054604051610d2992919061462a565b60405180910390a250565b610d3c612a5e565b73ffffffffffffffffffffffffffffffffffffffff168573ffffffffffffffffffffffffffffffffffffffff161480610d825750610d8185610d7c612a5e565b6128bf565b5b610dc1576040517f08c379a0000000000000000000000000000000000000000000000000000000008152600401610db8906146c5565b60405180910390fd5b610dce8585858585612a66565b5050505050565b6000600a600083815260200190815260200160002060009054906101000a900460ff169050919050565b6000610e0a8261185d565b8015610e315750610e1a82611576565b600760008481526020019081526020016000205410155b9050919050565b6000610e43826117ea565b158015610e565750610e5482610a76565b155b9050919050565b7f000000000000000000000000000000000000000000000000000000000000000073ffffffffffffffffffffffffffffffffffffffff163373ffffffffffffffffffffffffffffffffffffffff1614610eeb576040517f08c379a0000000000000000000000000000000000000000000000000000000008152600401610ee290614731565b60405180910390fd5b610ef4826117ea565b15610f34576040517f08c379a0000000000000000000000000000000000000000000000000000000008152600401610f2b9061479d565b60405180910390fd5b610f3d82610e38565b15610f7d576040517f08c379a0000000000000000000000000000000000000000000000000000000008152600401610f749061479d565b60405180910390fd5b610f8682611606565b15610fc6576040517f08c379a0000000000000000000000000000000000000000000000000000000008152600401610fbd9061482f565b60405180910390fd5b610fcf82610dd5565b80610fdf5750610fde8261128d565b5b1561101f576040517f08c379a0000000000000000000000000000000000000000000000000000000008152600401611016906148c1565b60405180910390fd5b6007600083815260200190815260200160002054811115611075576040517f08c379a000000000000000000000000000000000000000000000000000000000815260040161106c90614953565b60405180910390fd5b8060076000848152602001908152602001600020600082825461109891906143f6565b925050819055507f000000000000000000000000000000000000000000000000000000000000000073ffffffffffffffffffffffffffffffffffffffff1663a9059cbb33836040518363ffffffff1660e01b81526004016110fa929190614982565b6020604051808303816000875af1158015611119573d6000803e3d6000fd5b505050506040513d601f19601f8201168201806040525081019061113d91906149c0565b505050565b60608151835114611188576040517f08c379a000000000000000000000000000000000000000000000000000000000815260040161117f90614a5f565b60405180910390fd5b6000835167ffffffffffffffff8111156111a5576111a4613ae0565b5b6040519080825280602002602001820160405280156111d35781602001602082028036833780820191505090505b50905060005b8451811015611250576112208582815181106111f8576111f7614a7f565b5b602002602001015185838151811061121357611212614a7f565b5b6020026020010151610884565b82828151811061123357611232614a7f565b5b6020026020010181815250508061124990614aae565b90506111d9565b508091505092915050565b600060056000838152602001908152602001600020546006600084815260200190815260200160002054149050919050565b60006112988261185d565b80156112be57506112a882611576565b6007600084815260200190815260200160002054105b9050919050565b6112ce826117ea565b61130d576040517f08c379a000000000000000000000000000000000000000000000000000000000815260040161130490614b42565b60405180910390fd5b806113178361187f565b1015611358576040517f08c379a000000000000000000000000000000000000000000000000000000000815260040161134f90614bd4565b60405180910390fd5b6000600460008481526020019081526020016000206040518061014001604052908160008201805461138990614459565b80601f01602080910402602001604051908101604052809291908181526020018280546113b590614459565b80156114025780601f106113d757610100808354040283529160200191611402565b820191906000526020600020905b8154815290600101906020018083116113e557829003601f168201915b50505050508152602001600182015481526020016002820154815260200160038201548152602001600482015481526020016005820154815260200160068201548152602001600782015481526020016008820154815260200160098201548152505090506000816020015183611479919061448a565b90507f000000000000000000000000000000000000000000000000000000000000000073ffffffffffffffffffffffffffffffffffffffff166323b872dd3330846040518463ffffffff1660e01b81526004016114d893929190614bf4565b6020604051808303816000875af11580156114f7573d6000803e3d6000fd5b505050506040513d601f19601f8201168201806040525081019061151b91906149c0565b508260056000868152602001908152602001600020600082825461153f9190614c2b565b92505081905550806007600086815260200190815260200160002060008282546115699190614c2b565b9250508190555050505050565b60008060046000848152602001908152602001600020600901549050600e600084815260200190815260200160002060009054906101000a900460ff16156115c4576115c183611840565b90505b670de0b6b3a7640000816115d785610b40565b6115e1919061448a565b6115eb91906145f9565b6115f484610b40565b6115fe9190614c2b565b915050919050565b6000600b600083815260200190815260200160002060009054906101000a900460ff169050919050565b61163982611606565b611678576040517f08c379a000000000000000000000000000000000000000000000000000000000815260040161166f90614cab565b60405180910390fd5b806116833384610884565b10156116c4576040517f08c379a00000000000000000000000000000000000000000000000000000000081526004016116bb90614d17565b60405180910390fd5b6116cf338383612d87565b806006600084815260200190815260200160002060008282546116f29190614c2b565b92505081905550600060096000848152602001908152602001600020548261171a919061448a565b90507f000000000000000000000000000000000000000000000000000000000000000073ffffffffffffffffffffffffffffffffffffffff1663a9059cbb33836040518363ffffffff1660e01b8152600401611777929190614982565b6020604051808303816000875af1158015611796573d6000803e3d6000fd5b505050506040513d601f19601f820116820180604052508101906117ba91906149c0565b50806007600085815260200190815260200160002060008282546117de91906143f6565b92505081905550505050565b600060046000838152602001908152602001600020600401544211159050919050565b600061181882610a4b565b600460008481526020019081526020016000206005015461183991906143f6565b9050919050565b6000600d6000838152602001908152602001600020549050919050565b6000600460008381526020019081526020016000206003015442119050919050565b6000600560008381526020019081526020016000205460046000848152602001908152602001600020600701546118b691906143f6565b9050919050565b6118cf6118c8612a5e565b8383612fcd565b5050565b6118dc81610dd5565b1580156118ee57506118ed8161128d565b5b61192d576040517f08c379a000000000000000000000000000000000000000000000000000000000815260040161192490614d83565b60405180910390fd5b600061193882611576565b905060006103e8600760008581526020019081526020016000205461195d91906145f9565b9050600081600760008681526020019081526020016000205461198091906143f6565b90506005600085815260200190815260200160002054816119a191906145f9565b60086000868152602001908152602001600020819055506000600560008681526020019081526020016000205460086000878152602001908152602001600020546119ec919061448a565b826119f791906143f6565b905060008184611a079190614c2b565b905080600760008881526020019081526020016000206000828254611a2c91906143f6565b925050819055506001600a600088815260200190815260200160002060006101000a81548160ff0219169083151502179055507f000000000000000000000000000000000000000000000000000000000000000073ffffffffffffffffffffffffffffffffffffffff1663a9059cbb33836040518363ffffffff1660e01b8152600401611aba929190614982565b6020604051808303816000875af1158015611ad9573d6000803e3d6000fd5b505050506040513d601f19601f82011682018060405250810190611afd91906149c0565b50857fc4f17a65d54873d57229ea5f59c4ddec592d095bc17581372676402c8228b9cd8685604051611b3092919061462a565b60405180910390a2505050505050565b611b4982610dd5565b611b88576040517f08c379a0000000000000000000000000000000000000000000000000000000008152600401611b7f90614d83565b60405180910390fd5b80611b933384610884565b1015611bd4576040517f08c379a0000000000000000000000000000000000000000000000000000000008152600401611bcb90614d17565b60405180910390fd5b611bdf338383612d87565b80600660008481526020019081526020016000206000828254611c029190614c2b565b925050819055506000600860008481526020019081526020016000205482611c2a919061448a565b90507f000000000000000000000000000000000000000000000000000000000000000073ffffffffffffffffffffffffffffffffffffffff1663a9059cbb33836040518363ffffffff1660e01b8152600401611c87929190614982565b6020604051808303816000875af1158015611ca6573d6000803e3d6000fd5b505050506040513d601f19601f82011682018060405250810190611cca91906149c0565b5080600760008581526020019081526020016000206000828254611cee91906143f6565b92505081905550505050565b600060046000838152602001908152602001600020600901549050919050565b611d2382610e38565b611d62576040517f08c379a0000000000000000000000000000000000000000000000000000000008152600401611d5990614def565b60405180910390fd5b80611d6d3384610884565b1015611dae576040517f08c379a0000000000000000000000000000000000000000000000000000000008152600401611da590614d17565b60405180910390fd5b611db9338383612d87565b80600660008481526020019081526020016000206000828254611ddc9190614c2b565b925050819055506000600460008481526020019081526020016000206001015482611e07919061448a565b90507f000000000000000000000000000000000000000000000000000000000000000073ffffffffffffffffffffffffffffffffffffffff1663a9059cbb33836040518363ffffffff1660e01b8152600401611e64929190614982565b6020604051808303816000875af1158015611e83573d6000803e3d6000fd5b505050506040513d601f19601f82011682018060405250810190611ea791906149c0565b5080600760008581526020019081526020016000206000828254611ecb91906143f6565b92505081905550505050565b611ee081611606565b158015611ef25750611ef181610dff565b5b611f31576040517f08c379a0000000000000000000000000000000000000000000000000000000008152600401611f2890614e5b565b60405180910390fd5b6000611f3c82611576565b905060006103e882611f4e91906145f9565b905060008183611f5e91906143f6565b9050600560008581526020019081526020016000205481611f7f91906145f9565b6009600086815260200190815260200160002081905550600060056000868152602001908152602001600020546009600087815260200190815260200160002054611fca919061448a565b82611fd591906143f6565b905060008184611fe59190614c2b565b90508060076000888152602001908152602001600020600082825461200a91906143f6565b925050819055506001600b600088815260200190815260200160002060006101000a81548160ff0219169083151502179055507f000000000000000000000000000000000000000000000000000000000000000073ffffffffffffffffffffffffffffffffffffffff1663a9059cbb33836040518363ffffffff1660e01b8152600401612098929190614982565b6020604051808303816000875af11580156120b7573d6000803e3d6000fd5b505050506040513d601f19601f820116820180604052508101906120db91906149c0565b50857fac2eeaf45d1b75aed6b3285cda3efb3c382cce02ba313558bbb90be57f8843e4868560405161210e92919061462a565b60405180910390a2505050505050565b60007f000000000000000000000000000000000000000000000000000000000000000073ffffffffffffffffffffffffffffffffffffffff163373ffffffffffffffffffffffffffffffffffffffff16146121ae576040517f08c379a00000000000000000000000000000000000000000000000000000000081526004016121a590614731565b60405180910390fd5b3073ffffffffffffffffffffffffffffffffffffffff1663c7bc57308b8b8b8b8b8b8b8b8b6040518a63ffffffff1660e01b81526004016121f799989796959493929190614efd565b6020604051808303816000875af1158015612216573d6000803e3d6000fd5b505050506040513d601f19601f8201168201806040525081019061223a9190614fa0565b905060028561224991906145f9565b600c6000838152602001908152602001600020819055509998505050505050505050565b6060600080600080600080600080600080600460008d8152602001908152602001600020604051806101400160405290816000820180546122ad90614459565b80601f01602080910402602001604051908101604052809291908181526020018280546122d990614459565b80156123265780601f106122fb57610100808354040283529160200191612326565b820191906000526020600020905b81548152906001019060200180831161230957829003601f168201915b5050505050815260200160018201548152602001600282015481526020016003820154815260200160048201548152602001600582015481526020016006820154815260200160078201548152602001600882015481526020016009820154815250509050806000015181602001518260400151836060015184608001518560a001518660c001518760e001518861010001518961012001519a509a509a509a509a509a509a509a509a509a50509193959799509193959799565b60006123ec82610a4b565b600460008481526020019081526020016000206006015461240d91906143f6565b9050919050565b7f000000000000000000000000000000000000000000000000000000000000000073ffffffffffffffffffffffffffffffffffffffff163373ffffffffffffffffffffffffffffffffffffffff16146124a2576040517f08c379a000000000000000000000000000000000000000000000000000000000815260040161249990614731565b60405180910390fd5b6124ab82610dd5565b806124bb57506124ba8261128d565b5b156124fb576040517f08c379a00000000000000000000000000000000000000000000000000000000081526004016124f290615019565b60405180910390fd5b61250482611606565b15612544576040517f08c379a000000000000000000000000000000000000000000000000000000000815260040161253b90615085565b60405180910390fd5b806007600084815260200190815260200160002060008282546125679190614c2b565b925050819055507f000000000000000000000000000000000000000000000000000000000000000073ffffffffffffffffffffffffffffffffffffffff166323b872dd3330846040518463ffffffff1660e01b81526004016125cb93929190614bf4565b6020604051808303816000875af11580156125ea573d6000803e3d6000fd5b505050506040513d601f19601f8201168201806040525081019061260e91906149c0565b505050565b60007f000000000000000000000000000000000000000000000000000000000000000073ffffffffffffffffffffffffffffffffffffffff166370a08231306040518263ffffffff1660e01b815260040161266e91906150a5565b602060405180830381865afa15801561268b573d6000803e3d6000fd5b505050506040513d601f19601f820116820180604052508101906126af9190614fa0565b905090565b7f000000000000000000000000000000000000000000000000000000000000000073ffffffffffffffffffffffffffffffffffffffff163373ffffffffffffffffffffffffffffffffffffffff1614612742576040517f08c379a000000000000000000000000000000000000000000000000000000000815260040161273990614731565b60405180910390fd5b61274b81611606565b801561275c575061275b8161125b565b5b61279b576040517f08c379a00000000000000000000000000000000000000000000000000000000081526004016127929061510c565b60405180910390fd5b60006007600083815260200190815260200160002054116127f1576040517f08c379a00000000000000000000000000000000000000000000000000000000081526004016127e890615178565b60405180910390fd5b600060076000838152602001908152602001600020819055507f000000000000000000000000000000000000000000000000000000000000000073ffffffffffffffffffffffffffffffffffffffff1663a9059cbb3360076000858152602001908152602001600020546040518363ffffffff1660e01b8152600401612878929190614982565b6020604051808303816000875af1158015612897573d6000803e3d6000fd5b505050506040513d601f19601f820116820180604052508101906128bb91906149c0565b5050565b6000600160008473ffffffffffffffffffffffffffffffffffffffff1673ffffffffffffffffffffffffffffffffffffffff16815260200190815260200160002060008373ffffffffffffffffffffffffffffffffffffffff1673ffffffffffffffffffffffffffffffffffffffff16815260200190815260200160002060009054906101000a900460ff16905092915050565b61295b612a5e565b73ffffffffffffffffffffffffffffffffffffffff168573ffffffffffffffffffffffffffffffffffffffff1614806129a157506129a08561299b612a5e565b6128bf565b5b6129e0576040517f08c379a00000000000000000000000000000000000000000000000000000000081526004016129d7906146c5565b60405180910390fd5b6129ed8585858585613139565b5050505050565b60007f01ffc9a7000000000000000000000000000000000000000000000000000000007bffffffffffffffffffffffffffffffffffffffffffffffffffffffff1916827bffffffffffffffffffffffffffffffffffffffffffffffffffffffff1916149050919050565b600033905090565b8151835114612aaa576040517f08c379a0000000000000000000000000000000000000000000000000000000008152600401612aa19061520a565b60405180910390fd5b600073ffffffffffffffffffffffffffffffffffffffff168473ffffffffffffffffffffffffffffffffffffffff1603612b19576040517f08c379a0000000000000000000000000000000000000000000000000000000008152600401612b109061529c565b60405180910390fd5b6000612b23612a5e565b9050612b338187878787876133d4565b60005b8451811015612ce4576000858281518110612b5457612b53614a7f565b5b602002602001015190506000858381518110612b7357612b72614a7f565b5b60200260200101519050600080600084815260200190815260200160002060008b73ffffffffffffffffffffffffffffffffffffffff1673ffffffffffffffffffffffffffffffffffffffff16815260200190815260200160002054905081811015612c14576040517f08c379a0000000000000000000000000000000000000000000000000000000008152600401612c0b9061532e565b60405180910390fd5b81810360008085815260200190815260200160002060008c73ffffffffffffffffffffffffffffffffffffffff1673ffffffffffffffffffffffffffffffffffffffff168152602001908152602001600020819055508160008085815260200190815260200160002060008b73ffffffffffffffffffffffffffffffffffffffff1673ffffffffffffffffffffffffffffffffffffffff1681526020019081526020016000206000828254612cc99190614c2b565b9250508190555050505080612cdd90614aae565b9050612b36565b508473ffffffffffffffffffffffffffffffffffffffff168673ffffffffffffffffffffffffffffffffffffffff168273ffffffffffffffffffffffffffffffffffffffff167f4a39dc06d4c0dbc64b70af90fd698a233a518aa5d07e595d983b8c0526c8f7fb8787604051612d5b92919061534e565b60405180910390a4612d718187878787876133dc565b612d7f8187878787876133e4565b505050505050565b600073ffffffffffffffffffffffffffffffffffffffff168373ffffffffffffffffffffffffffffffffffffffff1603612df6576040517f08c379a0000000000000000000000000000000000000000000000000000000008152600401612ded906153f7565b60405180910390fd5b6000612e00612a5e565b90506000612e0d846135bb565b90506000612e1a846135bb565b9050612e3a838760008585604051806020016040528060008152506133d4565b600080600087815260200190815260200160002060008873ffffffffffffffffffffffffffffffffffffffff1673ffffffffffffffffffffffffffffffffffffffff16815260200190815260200160002054905084811015612ed1576040517f08c379a0000000000000000000000000000000000000000000000000000000008152600401612ec890615489565b60405180910390fd5b84810360008088815260200190815260200160002060008973ffffffffffffffffffffffffffffffffffffffff1673ffffffffffffffffffffffffffffffffffffffff16815260200190815260200160002081905550600073ffffffffffffffffffffffffffffffffffffffff168773ffffffffffffffffffffffffffffffffffffffff168573ffffffffffffffffffffffffffffffffffffffff167fc3d58168c5ae7397731d063d5bbf3d657854427343f4c083240f7aacaa2d0f628989604051612f9e92919061462a565b60405180910390a4612fc4848860008686604051806020016040528060008152506133dc565b50505050505050565b8173ffffffffffffffffffffffffffffffffffffffff168373ffffffffffffffffffffffffffffffffffffffff160361303b576040517f08c379a00000000000000000000000000000000000000000000000000000000081526004016130329061551b565b60405180910390fd5b80600160008573ffffffffffffffffffffffffffffffffffffffff1673ffffffffffffffffffffffffffffffffffffffff16815260200190815260200160002060008473ffffffffffffffffffffffffffffffffffffffff1673ffffffffffffffffffffffffffffffffffffffff16815260200190815260200160002060006101000a81548160ff0219169083151502179055508173ffffffffffffffffffffffffffffffffffffffff168373ffffffffffffffffffffffffffffffffffffffff167f17307eab39ab6107e8899845ad3d59bd9653f200f220920489ca2b5937696c318360405161312c91906139e1565b60405180910390a3505050565b600073ffffffffffffffffffffffffffffffffffffffff168473ffffffffffffffffffffffffffffffffffffffff16036131a8576040517f08c379a000000000000000000000000000000000000000000000000000000000815260040161319f9061529c565b60405180910390fd5b60006131b2612a5e565b905060006131bf856135bb565b905060006131cc856135bb565b90506131dc8389898585896133d4565b600080600088815260200190815260200160002060008a73ffffffffffffffffffffffffffffffffffffffff1673ffffffffffffffffffffffffffffffffffffffff16815260200190815260200160002054905085811015613273576040517f08c379a000000000000000000000000000000000000000000000000000000000815260040161326a9061532e565b60405180910390fd5b85810360008089815260200190815260200160002060008b73ffffffffffffffffffffffffffffffffffffffff1673ffffffffffffffffffffffffffffffffffffffff168152602001908152602001600020819055508560008089815260200190815260200160002060008a73ffffffffffffffffffffffffffffffffffffffff1673ffffffffffffffffffffffffffffffffffffffff16815260200190815260200160002060008282546133289190614c2b565b925050819055508773ffffffffffffffffffffffffffffffffffffffff168973ffffffffffffffffffffffffffffffffffffffff168573ffffffffffffffffffffffffffffffffffffffff167fc3d58168c5ae7397731d063d5bbf3d657854427343f4c083240f7aacaa2d0f628a8a6040516133a592919061462a565b60405180910390a46133bb848a8a86868a6133dc565b6133c9848a8a8a8a8a613635565b505050505050505050565b505050505050565b505050505050565b6134038473ffffffffffffffffffffffffffffffffffffffff1661380c565b156135b3578373ffffffffffffffffffffffffffffffffffffffff1663bc197c8187878686866040518663ffffffff1660e01b815260040161344995949392919061553b565b6020604051808303816000875af192505050801561348557506040513d601f19601f8201168201806040525081019061348291906155b8565b60015b61352a576134916155f2565b806308c379a0036134ed57506134a5615614565b806134b057506134ef565b806040517f08c379a00000000000000000000000000000000000000000000000000000000081526004016134e49190613ab9565b60405180910390fd5b505b6040517f08c379a000000000000000000000000000000000000000000000000000000000815260040161352190615716565b60405180910390fd5b63bc197c8160e01b7bffffffffffffffffffffffffffffffffffffffffffffffffffffffff1916817bffffffffffffffffffffffffffffffffffffffffffffffffffffffff1916146135b1576040517f08c379a00000000000000000000000000000000000000000000000000000000081526004016135a8906157a8565b60405180910390fd5b505b505050505050565b60606000600167ffffffffffffffff8111156135da576135d9613ae0565b5b6040519080825280602002602001820160405280156136085781602001602082028036833780820191505090505b50905082816000815181106136205761361f614a7f565b5b60200260200101818152505080915050919050565b6136548473ffffffffffffffffffffffffffffffffffffffff1661380c565b15613804578373ffffffffffffffffffffffffffffffffffffffff1663f23a6e6187878686866040518663ffffffff1660e01b815260040161369a9594939291906157c8565b6020604051808303816000875af19250505080156136d657506040513d601f19601f820116820180604052508101906136d391906155b8565b60015b61377b576136e26155f2565b806308c379a00361373e57506136f6615614565b806137015750613740565b806040517f08c379a00000000000000000000000000000000000000000000000000000000081526004016137359190613ab9565b60405180910390fd5b505b6040517f08c379a000000000000000000000000000000000000000000000000000000000815260040161377290615716565b60405180910390fd5b63f23a6e6160e01b7bffffffffffffffffffffffffffffffffffffffffffffffffffffffff1916817bffffffffffffffffffffffffffffffffffffffffffffffffffffffff191614613802576040517f08c379a00000000000000000000000000000000000000000000000000000000081526004016137f9906157a8565b60405180910390fd5b505b505050505050565b6000808273ffffffffffffffffffffffffffffffffffffffff163b119050919050565b6000604051905090565b600080fd5b600080fd5b600073ffffffffffffffffffffffffffffffffffffffff82169050919050565b600061386e82613843565b9050919050565b61387e81613863565b811461388957600080fd5b50565b60008135905061389b81613875565b92915050565b6000819050919050565b6138b4816138a1565b81146138bf57600080fd5b50565b6000813590506138d1816138ab565b92915050565b600080604083850312156138ee576138ed613839565b5b60006138fc8582860161388c565b925050602061390d858286016138c2565b9150509250929050565b613920816138a1565b82525050565b600060208201905061393b6000830184613917565b92915050565b60007fffffffff0000000000000000000000000000000000000000000000000000000082169050919050565b61397681613941565b811461398157600080fd5b50565b6000813590506139938161396d565b92915050565b6000602082840312156139af576139ae613839565b5b60006139bd84828501613984565b91505092915050565b60008115159050919050565b6139db816139c6565b82525050565b60006020820190506139f660008301846139d2565b92915050565b600060208284031215613a1257613a11613839565b5b6000613a20848285016138c2565b91505092915050565b600081519050919050565b600082825260208201905092915050565b60005b83811015613a63578082015181840152602081019050613a48565b60008484015250505050565b6000601f19601f8301169050919050565b6000613a8b82613a29565b613a958185613a34565b9350613aa5818560208601613a45565b613aae81613a6f565b840191505092915050565b60006020820190508181036000830152613ad38184613a80565b905092915050565b600080fd5b7f4e487b7100000000000000000000000000000000000000000000000000000000600052604160045260246000fd5b613b1882613a6f565b810181811067ffffffffffffffff82111715613b3757613b36613ae0565b5b80604052505050565b6000613b4a61382f565b9050613b568282613b0f565b919050565b600067ffffffffffffffff821115613b7657613b75613ae0565b5b602082029050602081019050919050565b600080fd5b6000613b9f613b9a84613b5b565b613b40565b90508083825260208201905060208402830185811115613bc257613bc1613b87565b5b835b81811015613beb5780613bd788826138c2565b845260208401935050602081019050613bc4565b5050509392505050565b600082601f830112613c0a57613c09613adb565b5b8135613c1a848260208601613b8c565b91505092915050565b600080fd5b600067ffffffffffffffff821115613c4357613c42613ae0565b5b613c4c82613a6f565b9050602081019050919050565b82818337600083830152505050565b6000613c7b613c7684613c28565b613b40565b905082815260208101848484011115613c9757613c96613c23565b5b613ca2848285613c59565b509392505050565b600082601f830112613cbf57613cbe613adb565b5b8135613ccf848260208601613c68565b91505092915050565b600080600080600060a08688031215613cf457613cf3613839565b5b6000613d028882890161388c565b9550506020613d138882890161388c565b945050604086013567ffffffffffffffff811115613d3457613d3361383e565b5b613d4088828901613bf5565b935050606086013567ffffffffffffffff811115613d6157613d6061383e565b5b613d6d88828901613bf5565b925050608086013567ffffffffffffffff811115613d8e57613d8d61383e565b5b613d9a88828901613caa565b9150509295509295909350565b60008060408385031215613dbe57613dbd613839565b5b6000613dcc858286016138c2565b9250506020613ddd858286016138c2565b9150509250929050565b600067ffffffffffffffff821115613e0257613e01613ae0565b5b602082029050602081019050919050565b6000613e26613e2184613de7565b613b40565b90508083825260208201905060208402830185811115613e4957613e48613b87565b5b835b81811015613e725780613e5e888261388c565b845260208401935050602081019050613e4b565b5050509392505050565b600082601f830112613e9157613e90613adb565b5b8135613ea1848260208601613e13565b91505092915050565b60008060408385031215613ec157613ec0613839565b5b600083013567ffffffffffffffff811115613edf57613ede61383e565b5b613eeb85828601613e7c565b925050602083013567ffffffffffffffff811115613f0c57613f0b61383e565b5b613f1885828601613bf5565b9150509250929050565b600081519050919050565b600082825260208201905092915050565b6000819050602082019050919050565b613f57816138a1565b82525050565b6000613f698383613f4e565b60208301905092915050565b6000602082019050919050565b6000613f8d82613f22565b613f978185613f2d565b9350613fa283613f3e565b8060005b83811015613fd3578151613fba8882613f5d565b9750613fc583613f75565b925050600181019050613fa6565b5085935050505092915050565b60006020820190508181036000830152613ffa8184613f82565b905092915050565b61400b816139c6565b811461401657600080fd5b50565b60008135905061402881614002565b92915050565b6000806040838503121561404557614044613839565b5b60006140538582860161388c565b925050602061406485828601614019565b9150509250929050565b600080fd5b60008083601f84011261408957614088613adb565b5b8235905067ffffffffffffffff8111156140a6576140a561406e565b5b6020830191508360018202830111156140c2576140c1613b87565b5b9250929050565b60008060008060008060008060006101008a8c0312156140ec576140eb613839565b5b60006140fa8c828d016138c2565b995050602061410b8c828d016138c2565b985050604061411c8c828d016138c2565b97505060608a013567ffffffffffffffff81111561413d5761413c61383e565b5b6141498c828d01614073565b9650965050608061415c8c828d016138c2565b94505060a061416d8c828d016138c2565b93505060c061417e8c828d016138c2565b92505060e08a013567ffffffffffffffff81111561419f5761419e61383e565b5b6141ab8c828d01613caa565b9150509295985092959850929598565b60006101408201905081810360008301526141d6818d613a80565b90506141e5602083018c613917565b6141f2604083018b613917565b6141ff606083018a613917565b61420c6080830189613917565b61421960a0830188613917565b61422660c0830187613917565b61423360e0830186613917565b614241610100830185613917565b61424f610120830184613917565b9b9a5050505050505050505050565b6000806040838503121561427557614274613839565b5b60006142838582860161388c565b92505060206142948582860161388c565b9150509250929050565b600080600080600060a086880312156142ba576142b9613839565b5b60006142c88882890161388c565b95505060206142d98882890161388c565b94505060406142ea888289016138c2565b93505060606142fb888289016138c2565b925050608086013567ffffffffffffffff81111561431c5761431b61383e565b5b61432888828901613caa565b9150509295509295909350565b7f455243313135353a2061646472657373207a65726f206973206e6f742061207660008201527f616c6964206f776e657200000000000000000000000000000000000000000000602082015250565b6000614391602a83613a34565b915061439c82614335565b604082019050919050565b600060208201905081810360008301526143c081614384565b9050919050565b7f4e487b7100000000000000000000000000000000000000000000000000000000600052601160045260246000fd5b6000614401826138a1565b915061440c836138a1565b9250828203905081811115614424576144236143c7565b5b92915050565b7f4e487b7100000000000000000000000000000000000000000000000000000000600052602260045260246000fd5b6000600282049050600182168061447157607f821691505b6020821081036144845761448361442a565b5b50919050565b6000614495826138a1565b91506144a0836138a1565b92508282026144ae816138a1565b915082820484148315176144c5576144c46143c7565b5b5092915050565b7f426f6e6420697320636f6d706c65746564000000000000000000000000000000600082015250565b6000614502601183613a34565b915061450d826144cc565b602082019050919050565b60006020820190508181036000830152614531816144f5565b9050919050565b7f4d696e696d756d206f626c69676174696f6e20706572696f64206e6f7420726560008201527f6163686564000000000000000000000000000000000000000000000000000000602082015250565b6000614594602583613a34565b915061459f82614538565b604082019050919050565b600060208201905081810360008301526145c381614587565b9050919050565b7f4e487b7100000000000000000000000000000000000000000000000000000000600052601260045260246000fd5b6000614604826138a1565b915061460f836138a1565b92508261461f5761461e6145ca565b5b828204905092915050565b600060408201905061463f6000830185613917565b61464c6020830184613917565b9392505050565b7f455243313135353a2063616c6c6572206973206e6f7420746f6b656e206f776e60008201527f6572206f7220617070726f766564000000000000000000000000000000000000602082015250565b60006146af602e83613a34565b91506146ba82614653565b604082019050919050565b600060208201905081810360008301526146de816146a2565b9050919050565b7f43616c6c6572206973206e6f7420746865206f776e6572000000000000000000600082015250565b600061471b601783613a34565b9150614726826146e5565b602082019050919050565b6000602082019050818103600083015261474a8161470e565b9050919050565b7f5769746864726177206e6f7420616c6c6f776564207768656e20616374697665600082015250565b6000614787602083613a34565b915061479282614751565b602082019050919050565b600060208201905081810360008301526147b68161477a565b9050919050565b7f5769746864726177206e6f7420616c6c6f77656420616674657220636f6d706c60008201527f6574696f6e000000000000000000000000000000000000000000000000000000602082015250565b6000614819602583613a34565b9150614824826147bd565b604082019050919050565b600060208201905081810360008301526148488161480c565b9050919050565b7f5769746864726177206e6f7420616c6c6f776564207768656e2064656661756c60008201527f7465640000000000000000000000000000000000000000000000000000000000602082015250565b60006148ab602383613a34565b91506148b68261484f565b604082019050919050565b600060208201905081810360008301526148da8161489e565b9050919050565b7f5769746864726177616c20746f6b656e20616d6f756e7420657863656564732060008201527f746f6b656e20616d6f756e7420696e20636f6e74726163740000000000000000602082015250565b600061493d603883613a34565b9150614948826148e1565b604082019050919050565b6000602082019050818103600083015261496c81614930565b9050919050565b61497c81613863565b82525050565b60006040820190506149976000830185614973565b6149a46020830184613917565b9392505050565b6000815190506149ba81614002565b92915050565b6000602082840312156149d6576149d5613839565b5b60006149e4848285016149ab565b91505092915050565b7f455243313135353a206163636f756e747320616e6420696473206c656e67746860008201527f206d69736d617463680000000000000000000000000000000000000000000000602082015250565b6000614a49602983613a34565b9150614a54826149ed565b604082019050919050565b60006020820190508181036000830152614a7881614a3c565b9050919050565b7f4e487b7100000000000000000000000000000000000000000000000000000000600052603260045260246000fd5b6000614ab9826138a1565b91507fffffffffffffffffffffffffffffffffffffffffffffffffffffffffffffffff8203614aeb57614aea6143c7565b5b600182019050919050565b7f426f6e6420697320696e61637469766500000000000000000000000000000000600082015250565b6000614b2c601083613a34565b9150614b3782614af6565b602082019050919050565b60006020820190508181036000830152614b5b81614b1f565b9050919050565b7f496e73756666696369656e7420626f6e64207175616e746974792072656d616960008201527f6e696e6700000000000000000000000000000000000000000000000000000000602082015250565b6000614bbe602483613a34565b9150614bc982614b62565b604082019050919050565b60006020820190508181036000830152614bed81614bb1565b9050919050565b6000606082019050614c096000830186614973565b614c166020830185614973565b614c236040830184613917565b949350505050565b6000614c36826138a1565b9150614c41836138a1565b9250828201905080821115614c5957614c586143c7565b5b92915050565b7f426f6e64206973206e6f7420636f6d706c657465640000000000000000000000600082015250565b6000614c95601583613a34565b9150614ca082614c5f565b602082019050919050565b60006020820190508181036000830152614cc481614c88565b9050919050565b7f496e73756666696369656e7420626f6e64207175616e74697479000000000000600082015250565b6000614d01601a83613a34565b9150614d0c82614ccb565b602082019050919050565b60006020820190508181036000830152614d3081614cf4565b9050919050565b7f426f6e64206973206e6f742064656661756c7465640000000000000000000000600082015250565b6000614d6d601583613a34565b9150614d7882614d37565b602082019050919050565b60006020820190508181036000830152614d9c81614d60565b9050919050565b7f426f6e64206973206e6f742063616e63656c6564000000000000000000000000600082015250565b6000614dd9601483613a34565b9150614de482614da3565b602082019050919050565b60006020820190508181036000830152614e0881614dcc565b9050919050565b7f426f6e6420697320616c726561647920636f6d706c6574656400000000000000600082015250565b6000614e45601983613a34565b9150614e5082614e0f565b602082019050919050565b60006020820190508181036000830152614e7481614e38565b9050919050565b6000614e878385613a34565b9350614e94838584613c59565b614e9d83613a6f565b840190509392505050565b600081519050919050565b600082825260208201905092915050565b6000614ecf82614ea8565b614ed98185614eb3565b9350614ee9818560208601613a45565b614ef281613a6f565b840191505092915050565b600061010082019050614f13600083018c613917565b614f20602083018b613917565b614f2d604083018a613917565b8181036060830152614f4081888a614e7b565b9050614f4f6080830187613917565b614f5c60a0830186613917565b614f6960c0830185613917565b81810360e0830152614f7b8184614ec4565b90509a9950505050505050505050565b600081519050614f9a816138ab565b92915050565b600060208284031215614fb657614fb5613839565b5b6000614fc484828501614f8b565b91505092915050565b7f626f6e642069732064656661756c746564000000000000000000000000000000600082015250565b6000615003601183613a34565b915061500e82614fcd565b602082019050919050565b6000602082019050818103600083015261503281614ff6565b9050919050565b7f626f6e6420697320636f6d706c65746564000000000000000000000000000000600082015250565b600061506f601183613a34565b915061507a82615039565b602082019050919050565b6000602082019050818103600083015261509e81615062565b9050919050565b60006020820190506150ba6000830184614973565b92915050565b7f43616e6e6f742077697468647261772065786365737300000000000000000000600082015250565b60006150f6601683613a34565b9150615101826150c0565b602082019050919050565b60006020820190508181036000830152615125816150e9565b9050919050565b7f43616e6e6f742077697468647261772066726f6d20656d70747920706f6f6c00600082015250565b6000615162601f83613a34565b915061516d8261512c565b602082019050919050565b6000602082019050818103600083015261519181615155565b9050919050565b7f455243313135353a2069647320616e6420616d6f756e7473206c656e6774682060008201527f6d69736d61746368000000000000000000000000000000000000000000000000602082015250565b60006151f4602883613a34565b91506151ff82615198565b604082019050919050565b60006020820190508181036000830152615223816151e7565b9050919050565b7f455243313135353a207472616e7366657220746f20746865207a65726f20616460008201527f6472657373000000000000000000000000000000000000000000000000000000602082015250565b6000615286602583613a34565b91506152918261522a565b604082019050919050565b600060208201905081810360008301526152b581615279565b9050919050565b7f455243313135353a20696e73756666696369656e742062616c616e636520666f60008201527f72207472616e7366657200000000000000000000000000000000000000000000602082015250565b6000615318602a83613a34565b9150615323826152bc565b604082019050919050565b600060208201905081810360008301526153478161530b565b9050919050565b600060408201905081810360008301526153688185613f82565b9050818103602083015261537c8184613f82565b90509392505050565b7f455243313135353a206275726e2066726f6d20746865207a65726f206164647260008201527f6573730000000000000000000000000000000000000000000000000000000000602082015250565b60006153e1602383613a34565b91506153ec82615385565b604082019050919050565b60006020820190508181036000830152615410816153d4565b9050919050565b7f455243313135353a206275726e20616d6f756e7420657863656564732062616c60008201527f616e636500000000000000000000000000000000000000000000000000000000602082015250565b6000615473602483613a34565b915061547e82615417565b604082019050919050565b600060208201905081810360008301526154a281615466565b9050919050565b7f455243313135353a2073657474696e6720617070726f76616c2073746174757360008201527f20666f722073656c660000000000000000000000000000000000000000000000602082015250565b6000615505602983613a34565b9150615510826154a9565b604082019050919050565b60006020820190508181036000830152615534816154f8565b9050919050565b600060a0820190506155506000830188614973565b61555d6020830187614973565b818103604083015261556f8186613f82565b905081810360608301526155838185613f82565b905081810360808301526155978184614ec4565b90509695505050505050565b6000815190506155b28161396d565b92915050565b6000602082840312156155ce576155cd613839565b5b60006155dc848285016155a3565b91505092915050565b60008160e01c9050919050565b600060033d11156156115760046000803e61560e6000516155e5565b90505b90565b600060443d106156a15761562661382f565b60043d036004823e80513d602482011167ffffffffffffffff8211171561564e5750506156a1565b808201805167ffffffffffffffff81111561566c57505050506156a1565b80602083010160043d0385018111156156895750505050506156a1565b61569882602001850186613b0f565b82955050505050505b90565b7f455243313135353a207472616e7366657220746f206e6f6e2d4552433131353560008201527f526563656976657220696d706c656d656e746572000000000000000000000000602082015250565b6000615700603483613a34565b915061570b826156a4565b604082019050919050565b6000602082019050818103600083015261572f816156f3565b9050919050565b7f455243313135353a204552433131353552656365697665722072656a6563746560008201527f6420746f6b656e73000000000000000000000000000000000000000000000000602082015250565b6000615792602883613a34565b915061579d82615736565b604082019050919050565b600060208201905081810360008301526157c181615785565b9050919050565b600060a0820190506157dd6000830188614973565b6157ea6020830187614973565b6157f76040830186613917565b6158046060830185613917565b81810360808301526158168184614ec4565b9050969550505050505056fea26469706673582212202f62ebec6f3919543e1f77373a7fad5170f760f2c74511b4f7a55667ff2679c864736f6c63430008110033",
  "linkReferences": {},
  "deployedLinkReferences": {}
}