{
  "_format": "hh-sol-artifact-1",
  "contractName": "CallableBondFactory",
  "sourceName": "contracts/CallableBondFactory.sol",
  "abi": [
    {
      "inputs": [
        {
          "internalType": "string",
          "name": "uri",
          "type": "string"
        },
        {
          "internalType": "address",
          "name": "token",
          "type": "address"
        },
        {
          "internalType": "address",
          "name": "db",
          "type": "address"
        },
        {
          "internalType": "address",
          "name": "deployer",
          "type": "address"
        }
      ],
      "stateMutability": "nonpayable",
      "type": "constructor"
    },
    {
      "anonymous": false,
      "inputs": [
        {
          "indexed": true,
          "internalType": "address",
          "name": "account",
          "type": "address"
        },
        {
          "indexed": true,
          "internalType": "address",
          "name": "operator",
          "type": "address"
        },
        {
          "indexed": false,
          "internalType": "bool",
          "name": "approved",
          "type": "bool"
        }
      ],
      "name": "ApprovalForAll",
      "type": "event"
    },
    {
      "anonymous": false,
      "inputs": [
        {
          "indexed": true,
          "internalType": "uint256",
          "name": "id",
          "type": "uint256"
        },
        {
          "indexed": false,
          "internalType": "uint256",
          "name": "couponRate",
          "type": "uint256"
        },
        {
          "indexed": false,
          "internalType": "uint256",
          "name": "couponRateOnCall",
          "type": "uint256"
        }
      ],
      "name": "Called",
      "type": "event"
    },
    {
      "anonymous": false,
      "inputs": [
        {
          "indexed": true,
          "internalType": "uint256",
          "name": "id",
          "type": "uint256"
        },
        {
          "indexed": false,
          "internalType": "uint256",
          "name": "totalDebt",
          "type": "uint256"
        },
        {
          "indexed": false,
          "internalType": "uint256",
          "name": "paidDebt",
          "type": "uint256"
        }
      ],
      "name": "Completed",
      "type": "event"
    },
    {
      "anonymous": false,
      "inputs": [
        {
          "indexed": true,
          "internalType": "uint256",
          "name": "id",
          "type": "uint256"
        },
        {
          "indexed": false,
          "internalType": "uint256",
          "name": "totalDebt",
          "type": "uint256"
        },
        {
          "indexed": false,
          "internalType": "uint256",
          "name": "paidDebt",
          "type": "uint256"
        }
      ],
      "name": "Defaulted",
      "type": "event"
    },
    {
      "anonymous": false,
      "inputs": [
        {
          "indexed": true,
          "internalType": "uint256",
          "name": "id",
          "type": "uint256"
        },
        {
          "indexed": false,
          "internalType": "uint256",
          "name": "bondQuantity",
          "type": "uint256"
        },
        {
          "indexed": false,
          "internalType": "uint256",
          "name": "tokenAmountPerBond",
          "type": "uint256"
        },
        {
          "indexed": false,
          "internalType": "uint256",
          "name": "couponRate",
          "type": "uint256"
        },
        {
          "indexed": false,
          "internalType": "uint256",
          "name": "maturityDate",
          "type": "uint256"
        }
      ],
      "name": "Issued",
      "type": "event"
    },
    {
      "anonymous": false,
      "inputs": [
        {
          "indexed": true,
          "internalType": "uint256",
          "name": "id",
          "type": "uint256"
        },
        {
          "indexed": false,
          "internalType": "address",
          "name": "buyer",
          "type": "address"
        },
        {
          "indexed": false,
          "internalType": "uint256",
          "name": "bondQuantity",
          "type": "uint256"
        },
        {
          "indexed": false,
          "internalType": "uint256",
          "name": "state",
          "type": "uint256"
        }
      ],
      "name": "Redeemed",
      "type": "event"
    },
    {
      "anonymous": false,
      "inputs": [
        {
          "indexed": true,
          "internalType": "address",
          "name": "operator",
          "type": "address"
        },
        {
          "indexed": true,
          "internalType": "address",
          "name": "from",
          "type": "address"
        },
        {
          "indexed": true,
          "internalType": "address",
          "name": "to",
          "type": "address"
        },
        {
          "indexed": false,
          "internalType": "uint256[]",
          "name": "ids",
          "type": "uint256[]"
        },
        {
          "indexed": false,
          "internalType": "uint256[]",
          "name": "values",
          "type": "uint256[]"
        }
      ],
      "name": "TransferBatch",
      "type": "event"
    },
    {
      "anonymous": false,
      "inputs": [
        {
          "indexed": true,
          "internalType": "address",
          "name": "operator",
          "type": "address"
        },
        {
          "indexed": true,
          "internalType": "address",
          "name": "from",
          "type": "address"
        },
        {
          "indexed": true,
          "internalType": "address",
          "name": "to",
          "type": "address"
        },
        {
          "indexed": false,
          "internalType": "uint256",
          "name": "id",
          "type": "uint256"
        },
        {
          "indexed": false,
          "internalType": "uint256",
          "name": "value",
          "type": "uint256"
        }
      ],
      "name": "TransferSingle",
      "type": "event"
    },
    {
      "anonymous": false,
      "inputs": [
        {
          "indexed": false,
          "internalType": "string",
          "name": "value",
          "type": "string"
        },
        {
          "indexed": true,
          "internalType": "uint256",
          "name": "id",
          "type": "uint256"
        }
      ],
      "name": "URI",
      "type": "event"
    },
    {
      "inputs": [
        {
          "internalType": "address",
          "name": "account",
          "type": "address"
        },
        {
          "internalType": "uint256",
          "name": "id",
          "type": "uint256"
        }
      ],
      "name": "balanceOf",
      "outputs": [
        {
          "internalType": "uint256",
          "name": "",
          "type": "uint256"
        }
      ],
      "stateMutability": "view",
      "type": "function"
    },
    {
      "inputs": [
        {
          "internalType": "address[]",
          "name": "accounts",
          "type": "address[]"
        },
        {
          "internalType": "uint256[]",
          "name": "ids",
          "type": "uint256[]"
        }
      ],
      "name": "balanceOfBatch",
      "outputs": [
        {
          "internalType": "uint256[]",
          "name": "",
          "type": "uint256[]"
        }
      ],
      "stateMutability": "view",
      "type": "function"
    },
    {
      "inputs": [],
      "name": "baseToken",
      "outputs": [
        {
          "internalType": "address",
          "name": "",
          "type": "address"
        }
      ],
      "stateMutability": "view",
      "type": "function"
    },
    {
      "inputs": [
        {
          "internalType": "uint256",
          "name": "id",
          "type": "uint256"
        }
      ],
      "name": "bondMetadata",
      "outputs": [
        {
          "internalType": "string",
          "name": "",
          "type": "string"
        },
        {
          "internalType": "uint256",
          "name": "",
          "type": "uint256"
        },
        {
          "internalType": "uint256",
          "name": "",
          "type": "uint256"
        },
        {
          "internalType": "uint256",
          "name": "",
          "type": "uint256"
        },
        {
          "internalType": "uint256",
          "name": "",
          "type": "uint256"
        },
        {
          "internalType": "uint256",
          "name": "",
          "type": "uint256"
        },
        {
          "internalType": "uint256",
          "name": "",
          "type": "uint256"
        },
        {
          "internalType": "uint256",
          "name": "",
          "type": "uint256"
        },
        {
          "internalType": "uint256",
          "name": "",
          "type": "uint256"
        },
        {
          "internalType": "uint256",
          "name": "",
          "type": "uint256"
        }
      ],
      "stateMutability": "view",
      "type": "function"
    },
    {
      "inputs": [
        {
          "internalType": "uint256",
          "name": "id",
          "type": "uint256"
        }
      ],
      "name": "call",
      "outputs": [],
      "stateMutability": "nonpayable",
      "type": "function"
    },
    {
      "inputs": [
        {
          "internalType": "uint256",
          "name": "id",
          "type": "uint256"
        }
      ],
      "name": "couponRate",
      "outputs": [
        {
          "internalType": "uint256",
          "name": "",
          "type": "uint256"
        }
      ],
      "stateMutability": "view",
      "type": "function"
    },
    {
      "inputs": [
        {
          "internalType": "uint256",
          "name": "id",
          "type": "uint256"
        }
      ],
      "name": "couponRateOnCall",
      "outputs": [
        {
          "internalType": "uint256",
          "name": "",
          "type": "uint256"
        }
      ],
      "stateMutability": "view",
      "type": "function"
    },
    {
      "inputs": [
        {
          "internalType": "uint256",
          "name": "id",
          "type": "uint256"
        },
        {
          "internalType": "uint256",
          "name": "tokenAmount",
          "type": "uint256"
        }
      ],
      "name": "deposit",
      "outputs": [],
      "stateMutability": "nonpayable",
      "type": "function"
    },
    {
      "inputs": [
        {
          "internalType": "uint256",
          "name": "id",
          "type": "uint256"
        }
      ],
      "name": "designatedTokenPool",
      "outputs": [
        {
          "internalType": "uint256",
          "name": "",
          "type": "uint256"
        }
      ],
      "stateMutability": "view",
      "type": "function"
    },
    {
      "inputs": [
        {
          "internalType": "uint256",
          "name": "id",
          "type": "uint256"
        }
      ],
      "name": "hasReachedMaturity",
      "outputs": [
        {
          "internalType": "bool",
          "name": "",
          "type": "bool"
        }
      ],
      "stateMutability": "view",
      "type": "function"
    },
    {
      "inputs": [
        {
          "internalType": "uint256",
          "name": "id",
          "type": "uint256"
        }
      ],
      "name": "isActive",
      "outputs": [
        {
          "internalType": "bool",
          "name": "",
          "type": "bool"
        }
      ],
      "stateMutability": "view",
      "type": "function"
    },
    {
      "inputs": [
        {
          "internalType": "address",
          "name": "account",
          "type": "address"
        },
        {
          "internalType": "address",
          "name": "operator",
          "type": "address"
        }
      ],
      "name": "isApprovedForAll",
      "outputs": [
        {
          "internalType": "bool",
          "name": "",
          "type": "bool"
        }
      ],
      "stateMutability": "view",
      "type": "function"
    },
    {
      "inputs": [
        {
          "internalType": "uint256",
          "name": "id",
          "type": "uint256"
        }
      ],
      "name": "isCalled",
      "outputs": [
        {
          "internalType": "bool",
          "name": "",
          "type": "bool"
        }
      ],
      "stateMutability": "view",
      "type": "function"
    },
    {
      "inputs": [
        {
          "internalType": "uint256",
          "name": "id",
          "type": "uint256"
        }
      ],
      "name": "isCanceled",
      "outputs": [
        {
          "internalType": "bool",
          "name": "",
          "type": "bool"
        }
      ],
      "stateMutability": "view",
      "type": "function"
    },
    {
      "inputs": [
        {
          "internalType": "uint256",
          "name": "id",
          "type": "uint256"
        }
      ],
      "name": "isCompleted",
      "outputs": [
        {
          "internalType": "bool",
          "name": "",
          "type": "bool"
        }
      ],
      "stateMutability": "view",
      "type": "function"
    },
    {
      "inputs": [
        {
          "internalType": "uint256",
          "name": "id",
          "type": "uint256"
        }
      ],
      "name": "isCompletedInTheory",
      "outputs": [
        {
          "internalType": "bool",
          "name": "",
          "type": "bool"
        }
      ],
      "stateMutability": "view",
      "type": "function"
    },
    {
      "inputs": [
        {
          "internalType": "uint256",
          "name": "id",
          "type": "uint256"
        }
      ],
      "name": "isDefaulted",
      "outputs": [
        {
          "internalType": "bool",
          "name": "",
          "type": "bool"
        }
      ],
      "stateMutability": "view",
      "type": "function"
    },
    {
      "inputs": [
        {
          "internalType": "uint256",
          "name": "id",
          "type": "uint256"
        }
      ],
      "name": "isDefaultedInTheory",
      "outputs": [
        {
          "internalType": "bool",
          "name": "",
          "type": "bool"
        }
      ],
      "stateMutability": "view",
      "type": "function"
    },
    {
      "inputs": [
        {
          "internalType": "uint256",
          "name": "id",
          "type": "uint256"
        }
      ],
      "name": "isFulfilled",
      "outputs": [
        {
          "internalType": "bool",
          "name": "",
          "type": "bool"
        }
      ],
      "stateMutability": "view",
      "type": "function"
    },
    {
      "inputs": [
        {
          "internalType": "uint256",
          "name": "id",
          "type": "uint256"
        }
      ],
      "name": "isFullyRedeemed",
      "outputs": [
        {
          "internalType": "bool",
          "name": "",
          "type": "bool"
        }
      ],
      "stateMutability": "view",
      "type": "function"
    },
    {
      "inputs": [
        {
          "internalType": "uint256",
          "name": "bondQuantity",
          "type": "uint256"
        },
        {
          "internalType": "uint256",
          "name": "minPurchasedQuantity",
          "type": "uint256"
        },
        {
          "internalType": "uint256",
          "name": "tokenAmountPerBond",
          "type": "uint256"
        },
        {
          "internalType": "string",
          "name": "ticker",
          "type": "string"
        },
        {
          "internalType": "uint256",
          "name": "durationDays",
          "type": "uint256"
        },
        {
          "internalType": "uint256",
          "name": "activeDurationInDays",
          "type": "uint256"
        },
        {
          "internalType": "uint256",
          "name": "rate",
          "type": "uint256"
        }
      ],
      "name": "issue",
      "outputs": [
        {
          "internalType": "uint256",
          "name": "id",
          "type": "uint256"
        }
      ],
      "stateMutability": "nonpayable",
      "type": "function"
    },
    {
      "inputs": [
        {
          "internalType": "uint256",
          "name": "id",
          "type": "uint256"
        }
      ],
      "name": "markAsCompleted",
      "outputs": [],
      "stateMutability": "nonpayable",
      "type": "function"
    },
    {
      "inputs": [
        {
          "internalType": "uint256",
          "name": "id",
          "type": "uint256"
        }
      ],
      "name": "markAsDefaulted",
      "outputs": [],
      "stateMutability": "nonpayable",
      "type": "function"
    },
    {
      "inputs": [
        {
          "internalType": "uint256",
          "name": "id",
          "type": "uint256"
        }
      ],
      "name": "minObligationPeriod",
      "outputs": [
        {
          "internalType": "uint256",
          "name": "",
          "type": "uint256"
        }
      ],
      "stateMutability": "view",
      "type": "function"
    },
    {
      "inputs": [],
      "name": "numBondsIssued",
      "outputs": [
        {
          "internalType": "uint256",
          "name": "",
          "type": "uint256"
        }
      ],
      "stateMutability": "view",
      "type": "function"
    },
    {
      "inputs": [
        {
          "internalType": "address",
          "name": "",
          "type": "address"
        },
        {
          "internalType": "address",
          "name": "",
          "type": "address"
        },
        {
          "internalType": "uint256[]",
          "name": "",
          "type": "uint256[]"
        },
        {
          "internalType": "uint256[]",
          "name": "",
          "type": "uint256[]"
        },
        {
          "internalType": "bytes",
          "name": "",
          "type": "bytes"
        }
      ],
      "name": "onERC1155BatchReceived",
      "outputs": [
        {
          "internalType": "bytes4",
          "name": "",
          "type": "bytes4"
        }
      ],
      "stateMutability": "nonpayable",
      "type": "function"
    },
    {
      "inputs": [
        {
          "internalType": "address",
          "name": "",
          "type": "address"
        },
        {
          "internalType": "address",
          "name": "",
          "type": "address"
        },
        {
          "internalType": "uint256",
          "name": "",
          "type": "uint256"
        },
        {
          "internalType": "uint256",
          "name": "",
          "type": "uint256"
        },
        {
          "internalType": "bytes",
          "name": "",
          "type": "bytes"
        }
      ],
      "name": "onERC1155Received",
      "outputs": [
        {
          "internalType": "bytes4",
          "name": "",
          "type": "bytes4"
        }
      ],
      "stateMutability": "nonpayable",
      "type": "function"
    },
    {
      "inputs": [],
      "name": "owner",
      "outputs": [
        {
          "internalType": "address",
          "name": "",
          "type": "address"
        }
      ],
      "stateMutability": "view",
      "type": "function"
    },
    {
      "inputs": [
        {
          "internalType": "uint256",
          "name": "id",
          "type": "uint256"
        }
      ],
      "name": "poolAmount",
      "outputs": [
        {
          "internalType": "uint256",
          "name": "",
          "type": "uint256"
        }
      ],
      "stateMutability": "view",
      "type": "function"
    },
    {
      "inputs": [
        {
          "internalType": "uint256",
          "name": "id",
          "type": "uint256"
        }
      ],
      "name": "preMaturityDefault",
      "outputs": [],
      "stateMutability": "nonpayable",
      "type": "function"
    },
    {
      "inputs": [
        {
          "internalType": "uint256",
          "name": "id",
          "type": "uint256"
        }
      ],
      "name": "principal",
      "outputs": [
        {
          "internalType": "uint256",
          "name": "",
          "type": "uint256"
        }
      ],
      "stateMutability": "view",
      "type": "function"
    },
    {
      "inputs": [
        {
          "internalType": "uint256",
          "name": "id",
          "type": "uint256"
        }
      ],
      "name": "principalWithInterest",
      "outputs": [
        {
          "internalType": "uint256",
          "name": "",
          "type": "uint256"
        }
      ],
      "stateMutability": "view",
      "type": "function"
    },
    {
      "inputs": [
        {
          "internalType": "uint256",
          "name": "id",
          "type": "uint256"
        },
        {
          "internalType": "uint256",
          "name": "bondQuantity",
          "type": "uint256"
        }
      ],
      "name": "purchase",
      "outputs": [],
      "stateMutability": "nonpayable",
      "type": "function"
    },
    {
      "inputs": [
        {
          "internalType": "uint256",
          "name": "id",
          "type": "uint256"
        },
        {
          "internalType": "uint256",
          "name": "bondQuantity",
          "type": "uint256"
        }
      ],
      "name": "redeem",
      "outputs": [],
      "stateMutability": "nonpayable",
      "type": "function"
    },
    {
      "inputs": [
        {
          "internalType": "uint256",
          "name": "id",
          "type": "uint256"
        }
      ],
      "name": "remainingQuantity",
      "outputs": [
        {
          "internalType": "uint256",
          "name": "",
          "type": "uint256"
        }
      ],
      "stateMutability": "view",
      "type": "function"
    },
    {
      "inputs": [
        {
          "internalType": "address",
          "name": "from",
          "type": "address"
        },
        {
          "internalType": "address",
          "name": "to",
          "type": "address"
        },
        {
          "internalType": "uint256[]",
          "name": "ids",
          "type": "uint256[]"
        },
        {
          "internalType": "uint256[]",
          "name": "amounts",
          "type": "uint256[]"
        },
        {
          "internalType": "bytes",
          "name": "data",
          "type": "bytes"
        }
      ],
      "name": "safeBatchTransferFrom",
      "outputs": [],
      "stateMutability": "nonpayable",
      "type": "function"
    },
    {
      "inputs": [
        {
          "internalType": "address",
          "name": "from",
          "type": "address"
        },
        {
          "internalType": "address",
          "name": "to",
          "type": "address"
        },
        {
          "internalType": "uint256",
          "name": "id",
          "type": "uint256"
        },
        {
          "internalType": "uint256",
          "name": "amount",
          "type": "uint256"
        },
        {
          "internalType": "bytes",
          "name": "data",
          "type": "bytes"
        }
      ],
      "name": "safeTransferFrom",
      "outputs": [],
      "stateMutability": "nonpayable",
      "type": "function"
    },
    {
      "inputs": [
        {
          "internalType": "address",
          "name": "operator",
          "type": "address"
        },
        {
          "internalType": "bool",
          "name": "approved",
          "type": "bool"
        }
      ],
      "name": "setApprovalForAll",
      "outputs": [],
      "stateMutability": "nonpayable",
      "type": "function"
    },
    {
      "inputs": [
        {
          "internalType": "bytes4",
          "name": "interfaceId",
          "type": "bytes4"
        }
      ],
      "name": "supportsInterface",
      "outputs": [
        {
          "internalType": "bool",
          "name": "",
          "type": "bool"
        }
      ],
      "stateMutability": "view",
      "type": "function"
    },
    {
      "inputs": [
        {
          "internalType": "uint256",
          "name": "id",
          "type": "uint256"
        }
      ],
      "name": "timeElapsed",
      "outputs": [
        {
          "internalType": "uint256",
          "name": "",
          "type": "uint256"
        }
      ],
      "stateMutability": "view",
      "type": "function"
    },
    {
      "inputs": [
        {
          "internalType": "uint256",
          "name": "id",
          "type": "uint256"
        }
      ],
      "name": "timeRemainingToEndOfActive",
      "outputs": [
        {
          "internalType": "uint256",
          "name": "",
          "type": "uint256"
        }
      ],
      "stateMutability": "view",
      "type": "function"
    },
    {
      "inputs": [
        {
          "internalType": "uint256",
          "name": "id",
          "type": "uint256"
        }
      ],
      "name": "timeRemainingToMaturity",
      "outputs": [
        {
          "internalType": "uint256",
          "name": "",
          "type": "uint256"
        }
      ],
      "stateMutability": "view",
      "type": "function"
    },
    {
      "inputs": [],
      "name": "tvl",
      "outputs": [
        {
          "internalType": "uint256",
          "name": "",
          "type": "uint256"
        }
      ],
      "stateMutability": "view",
      "type": "function"
    },
    {
      "inputs": [
        {
          "internalType": "uint256",
          "name": "",
          "type": "uint256"
        }
      ],
      "name": "uri",
      "outputs": [
        {
          "internalType": "string",
          "name": "",
          "type": "string"
        }
      ],
      "stateMutability": "view",
      "type": "function"
    },
    {
      "inputs": [
        {
          "internalType": "uint256",
          "name": "id",
          "type": "uint256"
        },
        {
          "internalType": "uint256",
          "name": "tokenAmount",
          "type": "uint256"
        }
      ],
      "name": "withdraw",
      "outputs": [],
      "stateMutability": "nonpayable",
      "type": "function"
    },
    {
      "inputs": [
        {
          "internalType": "uint256",
          "name": "id",
          "type": "uint256"
        }
      ],
      "name": "withdrawExcess",
      "outputs": [],
      "stateMutability": "nonpayable",
      "type": "function"
    }
  ],
  "bytecode": "0x60e06040523480156200001157600080fd5b5060405162006ddf38038062006ddf833981810160405281019062000037919062000332565b83838383836200004d816200010f60201b60201c565b508073ffffffffffffffffffffffffffffffffffffffff1660808173ffffffffffffffffffffffffffffffffffffffff16815250508273ffffffffffffffffffffffffffffffffffffffff1660a08173ffffffffffffffffffffffffffffffffffffffff16815250508173ffffffffffffffffffffffffffffffffffffffff1660c08173ffffffffffffffffffffffffffffffffffffffff16815250506200010160036200012460201b6200338a1760201c565b5050505050505050620006f5565b80600290816200012091906200060e565b5050565b6001816000016000828254019250508190555050565b6000604051905090565b600080fd5b600080fd5b600080fd5b600080fd5b6000601f19601f8301169050919050565b7f4e487b7100000000000000000000000000000000000000000000000000000000600052604160045260246000fd5b620001a38262000158565b810181811067ffffffffffffffff82111715620001c557620001c462000169565b5b80604052505050565b6000620001da6200013a565b9050620001e8828262000198565b919050565b600067ffffffffffffffff8211156200020b576200020a62000169565b5b620002168262000158565b9050602081019050919050565b60005b838110156200024357808201518184015260208101905062000226565b60008484015250505050565b6000620002666200026084620001ed565b620001ce565b90508281526020810184848401111562000285576200028462000153565b5b6200029284828562000223565b509392505050565b600082601f830112620002b257620002b16200014e565b5b8151620002c48482602086016200024f565b91505092915050565b600073ffffffffffffffffffffffffffffffffffffffff82169050919050565b6000620002fa82620002cd565b9050919050565b6200030c81620002ed565b81146200031857600080fd5b50565b6000815190506200032c8162000301565b92915050565b600080600080608085870312156200034f576200034e62000144565b5b600085015167ffffffffffffffff81111562000370576200036f62000149565b5b6200037e878288016200029a565b945050602062000391878288016200031b565b9350506040620003a4878288016200031b565b9250506060620003b7878288016200031b565b91505092959194509250565b600081519050919050565b7f4e487b7100000000000000000000000000000000000000000000000000000000600052602260045260246000fd5b600060028204905060018216806200041657607f821691505b6020821081036200042c576200042b620003ce565b5b50919050565b60008190508160005260206000209050919050565b60006020601f8301049050919050565b600082821b905092915050565b600060088302620004967fffffffffffffffffffffffffffffffffffffffffffffffffffffffffffffffff8262000457565b620004a2868362000457565b95508019841693508086168417925050509392505050565b6000819050919050565b6000819050919050565b6000620004ef620004e9620004e384620004ba565b620004c4565b620004ba565b9050919050565b6000819050919050565b6200050b83620004ce565b620005236200051a82620004f6565b84845462000464565b825550505050565b600090565b6200053a6200052b565b6200054781848462000500565b505050565b5b818110156200056f576200056360008262000530565b6001810190506200054d565b5050565b601f821115620005be57620005888162000432565b620005938462000447565b81016020851015620005a3578190505b620005bb620005b28562000447565b8301826200054c565b50505b505050565b600082821c905092915050565b6000620005e360001984600802620005c3565b1980831691505092915050565b6000620005fe8383620005d0565b9150826002028217905092915050565b6200061982620003c3565b67ffffffffffffffff81111562000635576200063462000169565b5b620006418254620003fd565b6200064e82828562000573565b600060209050601f83116001811462000686576000841562000671578287015190505b6200067d8582620005f0565b865550620006ed565b601f198416620006968662000432565b60005b82811015620006c05784890151825560018201915060208501945060208101905062000699565b86831015620006e05784890151620006dc601f891682620005d0565b8355505b6001600288020188555050505b505050505050565b60805160a05160c0516165d36200080c6000396000818161153e015281816115e90152818161191f015281816119cc01528181611a9b01528181611b6d01528181612437015281816124e2015281816131ef015261327b0152600081816111c70152818161195c01528181611a2a01528181611af901528181611baa01528181611c3901528181611f5101528181612590015281816127d2015281816128d001528181612a4401528181612aeb0152612ce001526000818161102a015281816113b50152818161157a0152818161162501528181611a0901528181611ad801528181612214015281816124730152818161251e0152818161292101528181612b8a01528181612efe01526132b701526165d36000f3fe608060405234801561001057600080fd5b50600436106102895760003560e01c806389c2bb1f1161015c578063c0a6026c116100ce578063e755ddd711610087578063e755ddd714610907578063e985e9c514610923578063f0d8100a14610953578063f23a6e6114610983578063f242432a146109b3578063fcbc669a146109cf57610289565b8063c0a6026c14610833578063c36530101461084f578063c55dae631461087f578063d3b7811b1461089d578063e2bbb158146108cd578063e5328e06146108e957610289565b80639a3cee8e116101205780639a3cee8e1461074d578063a22cb4651461076b578063a53e17b014610787578063a8743022146107b7578063abac75e1146107d3578063bc197c811461080357610289565b806389c2bb1f146106665780638c3526c2146106965780638da5cb5b146106cf5780638f0dbf77146106ed578063932a8de01461071d57610289565b806339e3af9b1161020057806370876c98116101b957806370876c981461056e57806377e2a08b1461058a5780637a41984b146105ba5780637cbc2373146105ea57806382afd23b1461060657806388bdc0831461063657610289565b806339e3af9b14610476578063441a3e70146104a65780634e1273f4146104c2578063549493bb146104f25780636567dc4d146105225780636ff80d931461053e57610289565b80630e89341c116102525780630e89341c1461037e57806314f29493146103ae5780632b096926146103de5780632eb2c2d6146103fa5780632f3ad61f146104165780633097afb81461044657610289565b8062fdd58e1461028e57806301ffc9a7146102be57806302159497146102ee57806308913ce81461031e578063091490201461034e575b600080fd5b6102a860048036038101906102a39190614441565b6109ff565b6040516102b59190614490565b60405180910390f35b6102d860048036038101906102d39190614503565b610ac7565b6040516102e5919061454b565b60405180910390f35b61030860048036038101906103039190614566565b610ba9565b6040516103159190614490565b60405180910390f35b61033860048036038101906103339190614566565b610bc6565b6040516103459190614490565b60405180910390f35b61036860048036038101906103639190614566565b610bf1565b604051610375919061454b565b60405180910390f35b61039860048036038101906103939190614566565b610c27565b6040516103a59190614623565b60405180910390f35b6103c860048036038101906103c39190614566565b610cbb565b6040516103d59190614490565b60405180910390f35b6103f860048036038101906103f39190614566565b610cf9565b005b610414600480360381019061040f9190614842565b610eff565b005b610430600480360381019061042b9190614566565b610fa0565b60405161043d919061454b565b60405180910390f35b610460600480360381019061045b9190614566565b610fca565b60405161046d919061454b565b60405180910390f35b610490600480360381019061048b9190614566565b611003565b60405161049d919061454b565b60405180910390f35b6104c060048036038101906104bb9190614911565b611028565b005b6104dc60048036038101906104d79190614a14565b611268565b6040516104e99190614b4a565b60405180910390f35b61050c60048036038101906105079190614566565b611381565b604051610519919061454b565b60405180910390f35b61053c60048036038101906105379190614566565b6113b3565b005b61055860048036038101906105539190614566565b6116db565b604051610565919061454b565b60405180910390f35b61058860048036038101906105839190614911565b611713565b005b6105a4600480360381019061059f9190614566565b611cde565b6040516105b19190614490565b60405180910390f35b6105d460048036038101906105cf9190614566565b611d6e565b6040516105e1919061454b565b60405180910390f35b61060460048036038101906105ff9190614911565b611d98565b005b610620600480360381019061061b9190614566565b612031565b60405161062d919061454b565b60405180910390f35b610650600480360381019061064b9190614566565b612054565b60405161065d9190614490565b60405180910390f35b610680600480360381019061067b9190614566565b61207f565b60405161068d9190614490565b60405180910390f35b6106b060048036038101906106ab9190614566565b61209c565b6040516106c69a99989796959493929190614b6c565b60405180910390f35b6106d7612210565b6040516106e49190614c1e565b60405180910390f35b61070760048036038101906107029190614566565b612238565b604051610714919061454b565b60405180910390f35b61073760048036038101906107329190614566565b61225a565b6040516107449190614490565b60405180910390f35b610755612298565b6040516107629190614490565b60405180910390f35b61078560048036038101906107809190614c65565b6122b5565b005b6107a1600480360381019061079c9190614566565b6122cb565b6040516107ae919061454b565b60405180910390f35b6107d160048036038101906107cc9190614566565b6122f5565b005b6107ed60048036038101906107e89190614566565b612674565b6040516107fa9190614490565b60405180910390f35b61081d60048036038101906108189190614842565b612694565b60405161082a9190614cb4565b60405180910390f35b61084d60048036038101906108489190614566565b6126a9565b005b61086960048036038101906108649190614566565b6128af565b6040516108769190614490565b60405180910390f35b6108876128cc565b6040516108949190614c1e565b60405180910390f35b6108b760048036038101906108b29190614566565b6128f4565b6040516108c49190614490565b60405180910390f35b6108e760048036038101906108e29190614911565b61291f565b005b6108f1612ae7565b6040516108fe9190614490565b60405180910390f35b610921600480360381019061091c9190614566565b612b88565b005b61093d60048036038101906109389190614ccf565b612d93565b60405161094a919061454b565b60405180910390f35b61096d60048036038101906109689190614566565b612e27565b60405161097a9190614490565b60405180910390f35b61099d60048036038101906109989190614d0f565b612e44565b6040516109aa9190614cb4565b60405180910390f35b6109cd60048036038101906109c89190614d0f565b612e59565b005b6109e960048036038101906109e49190614e01565b612efa565b6040516109f69190614490565b60405180910390f35b60008073ffffffffffffffffffffffffffffffffffffffff168373ffffffffffffffffffffffffffffffffffffffff1603610a6f576040517f08c379a0000000000000000000000000000000000000000000000000000000008152600401610a6690614f35565b60405180910390fd5b60008083815260200190815260200160002060008473ffffffffffffffffffffffffffffffffffffffff1673ffffffffffffffffffffffffffffffffffffffff16815260200190815260200160002054905092915050565b60007fd9b67a26000000000000000000000000000000000000000000000000000000007bffffffffffffffffffffffffffffffffffffffffffffffffffffffff1916827bffffffffffffffffffffffffffffffffffffffffffffffffffffffff19161480610b9257507f0e89341c000000000000000000000000000000000000000000000000000000007bffffffffffffffffffffffffffffffffffffffffffffffffffffffff1916827bffffffffffffffffffffffffffffffffffffffffffffffffffffffff1916145b80610ba25750610ba1826133a0565b5b9050919050565b600060076000838152602001908152602001600020549050919050565b6000600460008381526020019081526020016000206002015442610bea9190614f84565b9050919050565b60006004600083815260200190815260200160002060080154600560008481526020019081526020016000205410159050919050565b606060028054610c3690614fe7565b80601f0160208091040260200160405190810160405280929190818152602001828054610c6290614fe7565b8015610caf5780601f10610c8457610100808354040283529160200191610caf565b820191906000526020600020905b815481529060010190602001808311610c9257829003601f168201915b50505050509050919050565b600060056000838152602001908152602001600020546004600084815260200190815260200160002060010154610cf29190615018565b9050919050565b610d0281611d6e565b158015610d155750610d1381611003565b155b8015610d275750610d2581610fa0565b155b610d66576040517f08c379a0000000000000000000000000000000000000000000000000000000008152600401610d5d906150a6565b60405180910390fd5b62015180600d600083815260200190815260200160002054610d889190615018565b610d9182610bc6565b11610dd1576040517f08c379a0000000000000000000000000000000000000000000000000000000008152600401610dc890615112565b60405180910390fd5b620151806004600083815260200190815260200160002060060154610df69190615018565b610dff82610bc6565b6004600084815260200190815260200160002060090154610e209190615018565b610e2a9190615161565b600e6000838152602001908152602001600020819055506001600f600083815260200190815260200160002060006101000a81548160ff0219169083151502179055506001600b600083815260200190815260200160002060006101000a81548160ff021916908315150217905550807fb580a16317cf9efa50cf987c976c3fb7de7eaf3149b9dd5b8a576a043042f44c6004600084815260200190815260200160002060090154600e600085815260200190815260200160002054604051610ef4929190615192565b60405180910390a250565b610f0761340a565b73ffffffffffffffffffffffffffffffffffffffff168573ffffffffffffffffffffffffffffffffffffffff161480610f4d5750610f4c85610f4761340a565b612d93565b5b610f8c576040517f08c379a0000000000000000000000000000000000000000000000000000000008152600401610f839061522d565b60405180910390fd5b610f998585858585613412565b5050505050565b6000600a600083815260200190815260200160002060009054906101000a900460ff169050919050565b6000610fd582612238565b8015610ffc5750610fe582611cde565b600760008481526020019081526020016000205410155b9050919050565b600061100e82612031565b158015611021575061101f82610bf1565b155b9050919050565b7f000000000000000000000000000000000000000000000000000000000000000073ffffffffffffffffffffffffffffffffffffffff163373ffffffffffffffffffffffffffffffffffffffff16146110b6576040517f08c379a00000000000000000000000000000000000000000000000000000000081526004016110ad90615299565b60405180910390fd5b6110bf82612031565b1580156110d257506110d082611003565b155b80156110e457506110e282611d6e565b155b801561110657506110f482610fa0565b806111045750611103826116db565b5b155b611145576040517f08c379a000000000000000000000000000000000000000000000000000000000815260040161113c90615305565b60405180910390fd5b600760008381526020019081526020016000205481111561119b576040517f08c379a000000000000000000000000000000000000000000000000000000000815260040161119290615371565b60405180910390fd5b806007600084815260200190815260200160002060008282546111be9190614f84565b925050819055507f000000000000000000000000000000000000000000000000000000000000000073ffffffffffffffffffffffffffffffffffffffff1663a9059cbb33836040518363ffffffff1660e01b8152600401611220929190615391565b6020604051808303816000875af115801561123f573d6000803e3d6000fd5b505050506040513d601f19601f8201168201806040525081019061126391906153cf565b505050565b606081518351146112ae576040517f08c379a00000000000000000000000000000000000000000000000000000000081526004016112a59061546e565b60405180910390fd5b6000835167ffffffffffffffff8111156112cb576112ca61464a565b5b6040519080825280602002602001820160405280156112f95781602001602082028036833780820191505090505b50905060005b84518110156113765761134685828151811061131e5761131d61548e565b5b60200260200101518583815181106113395761133861548e565b5b60200260200101516109ff565b8282815181106113595761135861548e565b5b6020026020010181815250508061136f906154bd565b90506112ff565b508091505092915050565b600060056000838152602001908152602001600020546006600084815260200190815260200160002054149050919050565b7f000000000000000000000000000000000000000000000000000000000000000073ffffffffffffffffffffffffffffffffffffffff163373ffffffffffffffffffffffffffffffffffffffff1614611441576040517f08c379a000000000000000000000000000000000000000000000000000000000815260040161143890615299565b60405180910390fd5b61144a81611d6e565b15801561145d575061145b81610fa0565b155b8015611483575061146d81611cde565b6007600083815260200190815260200160002054105b6114c2576040517f08c379a00000000000000000000000000000000000000000000000000000000081526004016114b990615551565b60405180910390fd5b6000600760008381526020019081526020016000205490506005600083815260200190815260200160002054816114f99190615161565b60086000848152602001908152602001600020819055506001600a600084815260200190815260200160002060006101000a81548160ff0219169083151502179055507f000000000000000000000000000000000000000000000000000000000000000073ffffffffffffffffffffffffffffffffffffffff1663dae382d67f00000000000000000000000000000000000000000000000000000000000000006040518263ffffffff1660e01b81526004016115b59190614c1e565b600060405180830381600087803b1580156115cf57600080fd5b505af11580156115e3573d6000803e3d6000fd5b505050507f000000000000000000000000000000000000000000000000000000000000000073ffffffffffffffffffffffffffffffffffffffff1663d050a7c87f000000000000000000000000000000000000000000000000000000000000000060016040518363ffffffff1660e01b8152600401611663929190615391565b600060405180830381600087803b15801561167d57600080fd5b505af1158015611691573d6000803e3d6000fd5b50505050817fc4f17a65d54873d57229ea5f59c4ddec592d095bc17581372676402c8228b9cd6116c084611cde565b836040516116cf929190615192565b60405180910390a25050565b60006116e682612238565b801561170c57506116f682611cde565b6007600084815260200190815260200160002054105b9050919050565b61171c82612031565b61175b576040517f08c379a0000000000000000000000000000000000000000000000000000000008152600401611752906155bd565b60405180910390fd5b806117658361225a565b10156117a6576040517f08c379a000000000000000000000000000000000000000000000000000000000815260040161179d90615629565b60405180910390fd5b600060046000848152602001908152602001600020604051806101400160405290816000820180546117d790614fe7565b80601f016020809104026020016040519081016040528092919081815260200182805461180390614fe7565b80156118505780601f1061182557610100808354040283529160200191611850565b820191906000526020600020905b81548152906001019060200180831161183357829003601f168201915b505050505081526020016001820154815260200160028201548152602001600382015481526020016004820154815260200160058201548152602001600682015481526020016007820154815260200160088201548152602001600982015481525050905060008160200151836118c79190615018565b9050826005600086815260200190815260200160002060008282546118ec9190615649565b92505081905550806007600086815260200190815260200160002060008282546119169190615649565b925050819055507f000000000000000000000000000000000000000000000000000000000000000073ffffffffffffffffffffffffffffffffffffffff1663576ff163827f00000000000000000000000000000000000000000000000000000000000000006040518363ffffffff1660e01b815260040161199892919061567d565b600060405180830381600087803b1580156119b257600080fd5b505af11580156119c6573d6000803e3d6000fd5b505050507f000000000000000000000000000000000000000000000000000000000000000073ffffffffffffffffffffffffffffffffffffffff1663b8c2e4f3827f00000000000000000000000000000000000000000000000000000000000000007f00000000000000000000000000000000000000000000000000000000000000006040518463ffffffff1660e01b8152600401611a67939291906156a6565b600060405180830381600087803b158015611a8157600080fd5b505af1158015611a95573d6000803e3d6000fd5b505050507f000000000000000000000000000000000000000000000000000000000000000073ffffffffffffffffffffffffffffffffffffffff16637db79a3d827f00000000000000000000000000000000000000000000000000000000000000007f000000000000000000000000000000000000000000000000000000000000000060016040518563ffffffff1660e01b8152600401611b3994939291906156dd565b600060405180830381600087803b158015611b5357600080fd5b505af1158015611b67573d6000803e3d6000fd5b505050507f000000000000000000000000000000000000000000000000000000000000000073ffffffffffffffffffffffffffffffffffffffff1663b0b4dfaa827f000000000000000000000000000000000000000000000000000000000000000060016040518463ffffffff1660e01b8152600401611be993929190615722565b600060405180830381600087803b158015611c0357600080fd5b505af1158015611c17573d6000803e3d6000fd5b50505050611c373033868660405180602001604052806000815250612e59565b7f000000000000000000000000000000000000000000000000000000000000000073ffffffffffffffffffffffffffffffffffffffff166323b872dd3330846040518463ffffffff1660e01b8152600401611c9493929190615759565b6020604051808303816000875af1158015611cb3573d6000803e3d6000fd5b505050506040513d601f19601f82011682018060405250810190611cd791906153cf565b5050505050565b60008060046000848152602001908152602001600020600901549050600f600084815260200190815260200160002060009054906101000a900460ff1615611d2c57611d298361207f565b90505b670de0b6b3a764000081611d3f85610cbb565b611d499190615018565b611d539190615161565b611d5c84610cbb565b611d669190615649565b915050919050565b6000600b600083815260200190815260200160002060009054906101000a900460ff169050919050565b80611da333846109ff565b1015611de4576040517f08c379a0000000000000000000000000000000000000000000000000000000008152600401611ddb90615629565b60405180910390fd5b611ded82611d6e565b80611dfd5750611dfc82611003565b5b80611e0d5750611e0c82610fa0565b5b611e4c576040517f08c379a0000000000000000000000000000000000000000000000000000000008152600401611e43906157dc565b60405180910390fd5b600080611e5884611d6e565b15611e7c576009600085815260200190815260200160002054915060009050611ee0565b611e8584611003565b15611eac576004600085815260200190815260200160002060010154915060019050611edf565b611eb584610fa0565b15611ed9576008600085815260200190815260200160002054915060029050611ede565b600080fd5b5b5b611eeb338585613733565b82600660008681526020019081526020016000206000828254611f0e9190615649565b9250508190555060008284611f239190615018565b905080600760008781526020019081526020016000206000828254611f489190614f84565b925050819055507f000000000000000000000000000000000000000000000000000000000000000073ffffffffffffffffffffffffffffffffffffffff1663a9059cbb33836040518363ffffffff1660e01b8152600401611faa929190615391565b6020604051808303816000875af1158015611fc9573d6000803e3d6000fd5b505050506040513d601f19601f82011682018060405250810190611fed91906153cf565b50847fa5851b0172fdafd3dafe0e52ce051747548a4c642a2f22793c01faf228e13062338685604051612022939291906157fc565b60405180910390a25050505050565b600060046000838152602001908152602001600020600401544211159050919050565b60004260046000848152602001908152602001600020600401546120789190614f84565b9050919050565b6000600e6000838152602001908152602001600020549050919050565b6060600080600080600080600080600080600460008d8152602001908152602001600020604051806101400160405290816000820180546120dc90614fe7565b80601f016020809104026020016040519081016040528092919081815260200182805461210890614fe7565b80156121555780601f1061212a57610100808354040283529160200191612155565b820191906000526020600020905b81548152906001019060200180831161213857829003601f168201915b5050505050815260200160018201548152602001600282015481526020016003820154815260200160048201548152602001600582015481526020016006820154815260200160078201548152602001600882015481526020016009820154815250509050806000015181602001518260400151836060015184608001518560a001518660c001518760e001518861010001518961012001519a509a509a509a509a509a509a509a509a509a50509193959799509193959799565b60007f0000000000000000000000000000000000000000000000000000000000000000905090565b6000600460008381526020019081526020016000206003015442119050919050565b6000600560008381526020019081526020016000205460046000848152602001908152602001600020600701546122919190614f84565b9050919050565b600060016122a66003613979565b6122b09190614f84565b905090565b6122c76122c061340a565b8383613987565b5050565b6000600f600083815260200190815260200160002060009054906101000a900460ff169050919050565b6122fe81611d6e565b158015612311575061230f81610fa0565b155b80156123225750612321816116db565b5b612361576040517f08c379a00000000000000000000000000000000000000000000000000000000081526004016123589061587f565b60405180910390fd5b60006103e860076000848152602001908152602001600020546123849190615161565b905060008160076000858152602001908152602001600020546123a79190614f84565b90506005600084815260200190815260200160002054816123c89190615161565b6008600085815260200190815260200160002081905550816007600085815260200190815260200160002060008282546124029190614f84565b925050819055506001600a600085815260200190815260200160002060006101000a81548160ff0219169083151502179055507f000000000000000000000000000000000000000000000000000000000000000073ffffffffffffffffffffffffffffffffffffffff1663dae382d67f00000000000000000000000000000000000000000000000000000000000000006040518263ffffffff1660e01b81526004016124ae9190614c1e565b600060405180830381600087803b1580156124c857600080fd5b505af11580156124dc573d6000803e3d6000fd5b505050507f000000000000000000000000000000000000000000000000000000000000000073ffffffffffffffffffffffffffffffffffffffff1663d050a7c87f000000000000000000000000000000000000000000000000000000000000000060016040518363ffffffff1660e01b815260040161255c929190615391565b600060405180830381600087803b15801561257657600080fd5b505af115801561258a573d6000803e3d6000fd5b505050507f000000000000000000000000000000000000000000000000000000000000000073ffffffffffffffffffffffffffffffffffffffff1663a9059cbb33846040518363ffffffff1660e01b81526004016125e9929190615391565b6020604051808303816000875af1158015612608573d6000803e3d6000fd5b505050506040513d601f19601f8201168201806040525081019061262c91906153cf565b50827fc4f17a65d54873d57229ea5f59c4ddec592d095bc17581372676402c8228b9cd61265885611cde565b83604051612667929190615192565b60405180910390a2505050565b600060046000838152602001908152602001600020600901549050919050565b600063bc197c8160e01b905095945050505050565b6126b281610fa0565b1580156126c557506126c381611d6e565b155b80156126d657506126d581610fca565b5b612715576040517f08c379a000000000000000000000000000000000000000000000000000000000815260040161270c906158eb565b60405180910390fd5b600061272082611cde565b905060006103e8826127329190615161565b9050600081836127429190614f84565b90506005600085815260200190815260200160002054816127639190615161565b60096000868152602001908152602001600020819055508160076000868152602001908152602001600020600082825461279d9190614f84565b925050819055506001600b600086815260200190815260200160002060006101000a81548160ff0219169083151502179055507f000000000000000000000000000000000000000000000000000000000000000073ffffffffffffffffffffffffffffffffffffffff1663a9059cbb33846040518363ffffffff1660e01b815260040161282b929190615391565b6020604051808303816000875af115801561284a573d6000803e3d6000fd5b505050506040513d601f19601f8201168201806040525081019061286e91906153cf565b50837fac2eeaf45d1b75aed6b3285cda3efb3c382cce02ba313558bbb90be57f8843e484836040516128a1929190615192565b60405180910390a250505050565b6000600d6000838152602001908152602001600020549050919050565b60007f0000000000000000000000000000000000000000000000000000000000000000905090565b60004260046000848152602001908152602001600020600301546129189190614f84565b9050919050565b7f000000000000000000000000000000000000000000000000000000000000000073ffffffffffffffffffffffffffffffffffffffff163373ffffffffffffffffffffffffffffffffffffffff16146129ad576040517f08c379a00000000000000000000000000000000000000000000000000000000081526004016129a490615299565b60405180910390fd5b6129b682610fa0565b806129c657506129c5826116db565b5b1580156129d957506129d782611d6e565b155b612a18576040517f08c379a0000000000000000000000000000000000000000000000000000000008152600401612a0f90615957565b60405180910390fd5b80600760008481526020019081526020016000206000828254612a3b9190615649565b925050819055507f000000000000000000000000000000000000000000000000000000000000000073ffffffffffffffffffffffffffffffffffffffff166323b872dd3330846040518463ffffffff1660e01b8152600401612a9f93929190615759565b6020604051808303816000875af1158015612abe573d6000803e3d6000fd5b505050506040513d601f19601f82011682018060405250810190612ae291906153cf565b505050565b60007f000000000000000000000000000000000000000000000000000000000000000073ffffffffffffffffffffffffffffffffffffffff166370a08231306040518263ffffffff1660e01b8152600401612b429190614c1e565b602060405180830381865afa158015612b5f573d6000803e3d6000fd5b505050506040513d601f19601f82011682018060405250810190612b83919061598c565b905090565b7f000000000000000000000000000000000000000000000000000000000000000073ffffffffffffffffffffffffffffffffffffffff163373ffffffffffffffffffffffffffffffffffffffff1614612c16576040517f08c379a0000000000000000000000000000000000000000000000000000000008152600401612c0d90615299565b60405180910390fd5b612c1f81611d6e565b8015612c305750612c2f81611381565b5b612c6f576040517f08c379a0000000000000000000000000000000000000000000000000000000008152600401612c6690615305565b60405180910390fd5b6000600760008381526020019081526020016000205411612cc5576040517f08c379a0000000000000000000000000000000000000000000000000000000008152600401612cbc90615a05565b60405180910390fd5b600060076000838152602001908152602001600020819055507f000000000000000000000000000000000000000000000000000000000000000073ffffffffffffffffffffffffffffffffffffffff1663a9059cbb3360076000858152602001908152602001600020546040518363ffffffff1660e01b8152600401612d4c929190615391565b6020604051808303816000875af1158015612d6b573d6000803e3d6000fd5b505050506040513d601f19601f82011682018060405250810190612d8f91906153cf565b5050565b6000600160008473ffffffffffffffffffffffffffffffffffffffff1673ffffffffffffffffffffffffffffffffffffffff16815260200190815260200160002060008373ffffffffffffffffffffffffffffffffffffffff1673ffffffffffffffffffffffffffffffffffffffff16815260200190815260200160002060009054906101000a900460ff16905092915050565b600060076000838152602001908152602001600020549050919050565b600063f23a6e6160e01b905095945050505050565b612e6161340a565b73ffffffffffffffffffffffffffffffffffffffff168573ffffffffffffffffffffffffffffffffffffffff161480612ea75750612ea685612ea161340a565b612d93565b5b612ee6576040517f08c379a0000000000000000000000000000000000000000000000000000000008152600401612edd9061522d565b60405180910390fd5b612ef38585858585613af3565b5050505050565b60007f000000000000000000000000000000000000000000000000000000000000000073ffffffffffffffffffffffffffffffffffffffff163373ffffffffffffffffffffffffffffffffffffffff1614612f8a576040517f08c379a0000000000000000000000000000000000000000000000000000000008152600401612f8190615299565b60405180910390fd5b888810612fcc576040517f08c379a0000000000000000000000000000000000000000000000000000000008152600401612fc390615a71565b60405180910390fd5b60b4841015613010576040517f08c379a000000000000000000000000000000000000000000000000000000000815260040161300790615add565b60405180910390fd5b6007831115613054576040517f08c379a000000000000000000000000000000000000000000000000000000000815260040161304b90615b49565b60405180910390fd5b61305e600c613979565b905061306a600c61338a565b61308533828b60405180602001604052806000815250613d8e565b60405180610140016040528087878080601f016020809104026020016040519081016040528093929190818152602001838380828437600081840152601f19601f82011690508083019250505050505050815260200188815260200142815260200162015180866130f69190615018565b426131019190615649565b815260200162015180856131159190615018565b426131209190615649565b81526020018481526020018581526020018a8152602001898152602001838152506004600083815260200190815260200160002060008201518160000190816131699190615d15565b506020820151816001015560408201518160020155606082015181600301556080820151816004015560a0820151816005015560c0820151816006015560e08201518160070155610100820151816008015561012082015181600901559050506002846131d69190615161565b600d6000838152602001908152602001600020819055507f000000000000000000000000000000000000000000000000000000000000000073ffffffffffffffffffffffffffffffffffffffff1663b54cb16560026040518263ffffffff1660e01b81526004016132479190614490565b600060405180830381600087803b15801561326157600080fd5b505af1158015613275573d6000803e3d6000fd5b505050507f000000000000000000000000000000000000000000000000000000000000000073ffffffffffffffffffffffffffffffffffffffff1663bea75cf47f000000000000000000000000000000000000000000000000000000000000000060026040518363ffffffff1660e01b81526004016132f5929190615391565b600060405180830381600087803b15801561330f57600080fd5b505af1158015613323573d6000803e3d6000fd5b50505050807ff73e436c94925e1e8b2f0b16de0a2c56aea7fb27878f7815811bc05bc6c335e88a8985620151808961335b9190615018565b426133669190615649565b6040516133769493929190615de7565b60405180910390a298975050505050505050565b6001816000016000828254019250508190555050565b60007f01ffc9a7000000000000000000000000000000000000000000000000000000007bffffffffffffffffffffffffffffffffffffffffffffffffffffffff1916827bffffffffffffffffffffffffffffffffffffffffffffffffffffffff1916149050919050565b600033905090565b8151835114613456576040517f08c379a000000000000000000000000000000000000000000000000000000000815260040161344d90615e9e565b60405180910390fd5b600073ffffffffffffffffffffffffffffffffffffffff168473ffffffffffffffffffffffffffffffffffffffff16036134c5576040517f08c379a00000000000000000000000000000000000000000000000000000000081526004016134bc90615f30565b60405180910390fd5b60006134cf61340a565b90506134df818787878787613f3e565b60005b8451811015613690576000858281518110613500576134ff61548e565b5b60200260200101519050600085838151811061351f5761351e61548e565b5b60200260200101519050600080600084815260200190815260200160002060008b73ffffffffffffffffffffffffffffffffffffffff1673ffffffffffffffffffffffffffffffffffffffff168152602001908152602001600020549050818110156135c0576040517f08c379a00000000000000000000000000000000000000000000000000000000081526004016135b790615fc2565b60405180910390fd5b81810360008085815260200190815260200160002060008c73ffffffffffffffffffffffffffffffffffffffff1673ffffffffffffffffffffffffffffffffffffffff168152602001908152602001600020819055508160008085815260200190815260200160002060008b73ffffffffffffffffffffffffffffffffffffffff1673ffffffffffffffffffffffffffffffffffffffff16815260200190815260200160002060008282546136759190615649565b9250508190555050505080613689906154bd565b90506134e2565b508473ffffffffffffffffffffffffffffffffffffffff168673ffffffffffffffffffffffffffffffffffffffff168273ffffffffffffffffffffffffffffffffffffffff167f4a39dc06d4c0dbc64b70af90fd698a233a518aa5d07e595d983b8c0526c8f7fb8787604051613707929190615fe2565b60405180910390a461371d818787878787613f46565b61372b818787878787613f4e565b505050505050565b600073ffffffffffffffffffffffffffffffffffffffff168373ffffffffffffffffffffffffffffffffffffffff16036137a2576040517f08c379a00000000000000000000000000000000000000000000000000000000081526004016137999061608b565b60405180910390fd5b60006137ac61340a565b905060006137b984614125565b905060006137c684614125565b90506137e683876000858560405180602001604052806000815250613f3e565b600080600087815260200190815260200160002060008873ffffffffffffffffffffffffffffffffffffffff1673ffffffffffffffffffffffffffffffffffffffff1681526020019081526020016000205490508481101561387d576040517f08c379a00000000000000000000000000000000000000000000000000000000081526004016138749061611d565b60405180910390fd5b84810360008088815260200190815260200160002060008973ffffffffffffffffffffffffffffffffffffffff1673ffffffffffffffffffffffffffffffffffffffff16815260200190815260200160002081905550600073ffffffffffffffffffffffffffffffffffffffff168773ffffffffffffffffffffffffffffffffffffffff168573ffffffffffffffffffffffffffffffffffffffff167fc3d58168c5ae7397731d063d5bbf3d657854427343f4c083240f7aacaa2d0f62898960405161394a929190615192565b60405180910390a461397084886000868660405180602001604052806000815250613f46565b50505050505050565b600081600001549050919050565b8173ffffffffffffffffffffffffffffffffffffffff168373ffffffffffffffffffffffffffffffffffffffff16036139f5576040517f08c379a00000000000000000000000000000000000000000000000000000000081526004016139ec906161af565b60405180910390fd5b80600160008573ffffffffffffffffffffffffffffffffffffffff1673ffffffffffffffffffffffffffffffffffffffff16815260200190815260200160002060008473ffffffffffffffffffffffffffffffffffffffff1673ffffffffffffffffffffffffffffffffffffffff16815260200190815260200160002060006101000a81548160ff0219169083151502179055508173ffffffffffffffffffffffffffffffffffffffff168373ffffffffffffffffffffffffffffffffffffffff167f17307eab39ab6107e8899845ad3d59bd9653f200f220920489ca2b5937696c3183604051613ae6919061454b565b60405180910390a3505050565b600073ffffffffffffffffffffffffffffffffffffffff168473ffffffffffffffffffffffffffffffffffffffff1603613b62576040517f08c379a0000000000000000000000000000000000000000000000000000000008152600401613b5990615f30565b60405180910390fd5b6000613b6c61340a565b90506000613b7985614125565b90506000613b8685614125565b9050613b96838989858589613f3e565b600080600088815260200190815260200160002060008a73ffffffffffffffffffffffffffffffffffffffff1673ffffffffffffffffffffffffffffffffffffffff16815260200190815260200160002054905085811015613c2d576040517f08c379a0000000000000000000000000000000000000000000000000000000008152600401613c2490615fc2565b60405180910390fd5b85810360008089815260200190815260200160002060008b73ffffffffffffffffffffffffffffffffffffffff1673ffffffffffffffffffffffffffffffffffffffff168152602001908152602001600020819055508560008089815260200190815260200160002060008a73ffffffffffffffffffffffffffffffffffffffff1673ffffffffffffffffffffffffffffffffffffffff1681526020019081526020016000206000828254613ce29190615649565b925050819055508773ffffffffffffffffffffffffffffffffffffffff168973ffffffffffffffffffffffffffffffffffffffff168573ffffffffffffffffffffffffffffffffffffffff167fc3d58168c5ae7397731d063d5bbf3d657854427343f4c083240f7aacaa2d0f628a8a604051613d5f929190615192565b60405180910390a4613d75848a8a86868a613f46565b613d83848a8a8a8a8a61419f565b505050505050505050565b600073ffffffffffffffffffffffffffffffffffffffff168473ffffffffffffffffffffffffffffffffffffffff1603613dfd576040517f08c379a0000000000000000000000000000000000000000000000000000000008152600401613df490616241565b60405180910390fd5b6000613e0761340a565b90506000613e1485614125565b90506000613e2185614125565b9050613e3283600089858589613f3e565b8460008088815260200190815260200160002060008973ffffffffffffffffffffffffffffffffffffffff1673ffffffffffffffffffffffffffffffffffffffff1681526020019081526020016000206000828254613e919190615649565b925050819055508673ffffffffffffffffffffffffffffffffffffffff16600073ffffffffffffffffffffffffffffffffffffffff168473ffffffffffffffffffffffffffffffffffffffff167fc3d58168c5ae7397731d063d5bbf3d657854427343f4c083240f7aacaa2d0f628989604051613f0f929190615192565b60405180910390a4613f2683600089858589613f46565b613f358360008989898961419f565b50505050505050565b505050505050565b505050505050565b613f6d8473ffffffffffffffffffffffffffffffffffffffff16614376565b1561411d578373ffffffffffffffffffffffffffffffffffffffff1663bc197c8187878686866040518663ffffffff1660e01b8152600401613fb39594939291906162b6565b6020604051808303816000875af1925050508015613fef57506040513d601f19601f82011682018060405250810190613fec9190616333565b60015b61409457613ffb61636d565b806308c379a003614057575061400f61638f565b8061401a5750614059565b806040517f08c379a000000000000000000000000000000000000000000000000000000000815260040161404e9190614623565b60405180910390fd5b505b6040517f08c379a000000000000000000000000000000000000000000000000000000000815260040161408b90616491565b60405180910390fd5b63bc197c8160e01b7bffffffffffffffffffffffffffffffffffffffffffffffffffffffff1916817bffffffffffffffffffffffffffffffffffffffffffffffffffffffff19161461411b576040517f08c379a000000000000000000000000000000000000000000000000000000000815260040161411290616523565b60405180910390fd5b505b505050505050565b60606000600167ffffffffffffffff8111156141445761414361464a565b5b6040519080825280602002602001820160405280156141725781602001602082028036833780820191505090505b509050828160008151811061418a5761418961548e565b5b60200260200101818152505080915050919050565b6141be8473ffffffffffffffffffffffffffffffffffffffff16614376565b1561436e578373ffffffffffffffffffffffffffffffffffffffff1663f23a6e6187878686866040518663ffffffff1660e01b8152600401614204959493929190616543565b6020604051808303816000875af192505050801561424057506040513d601f19601f8201168201806040525081019061423d9190616333565b60015b6142e55761424c61636d565b806308c379a0036142a8575061426061638f565b8061426b57506142aa565b806040517f08c379a000000000000000000000000000000000000000000000000000000000815260040161429f9190614623565b60405180910390fd5b505b6040517f08c379a00000000000000000000000000000000000000000000000000000000081526004016142dc90616491565b60405180910390fd5b63f23a6e6160e01b7bffffffffffffffffffffffffffffffffffffffffffffffffffffffff1916817bffffffffffffffffffffffffffffffffffffffffffffffffffffffff19161461436c576040517f08c379a000000000000000000000000000000000000000000000000000000000815260040161436390616523565b60405180910390fd5b505b505050505050565b6000808273ffffffffffffffffffffffffffffffffffffffff163b119050919050565b6000604051905090565b600080fd5b600080fd5b600073ffffffffffffffffffffffffffffffffffffffff82169050919050565b60006143d8826143ad565b9050919050565b6143e8816143cd565b81146143f357600080fd5b50565b600081359050614405816143df565b92915050565b6000819050919050565b61441e8161440b565b811461442957600080fd5b50565b60008135905061443b81614415565b92915050565b60008060408385031215614458576144576143a3565b5b6000614466858286016143f6565b92505060206144778582860161442c565b9150509250929050565b61448a8161440b565b82525050565b60006020820190506144a56000830184614481565b92915050565b60007fffffffff0000000000000000000000000000000000000000000000000000000082169050919050565b6144e0816144ab565b81146144eb57600080fd5b50565b6000813590506144fd816144d7565b92915050565b600060208284031215614519576145186143a3565b5b6000614527848285016144ee565b91505092915050565b60008115159050919050565b61454581614530565b82525050565b6000602082019050614560600083018461453c565b92915050565b60006020828403121561457c5761457b6143a3565b5b600061458a8482850161442c565b91505092915050565b600081519050919050565b600082825260208201905092915050565b60005b838110156145cd5780820151818401526020810190506145b2565b60008484015250505050565b6000601f19601f8301169050919050565b60006145f582614593565b6145ff818561459e565b935061460f8185602086016145af565b614618816145d9565b840191505092915050565b6000602082019050818103600083015261463d81846145ea565b905092915050565b600080fd5b7f4e487b7100000000000000000000000000000000000000000000000000000000600052604160045260246000fd5b614682826145d9565b810181811067ffffffffffffffff821117156146a1576146a061464a565b5b80604052505050565b60006146b4614399565b90506146c08282614679565b919050565b600067ffffffffffffffff8211156146e0576146df61464a565b5b602082029050602081019050919050565b600080fd5b6000614709614704846146c5565b6146aa565b9050808382526020820190506020840283018581111561472c5761472b6146f1565b5b835b818110156147555780614741888261442c565b84526020840193505060208101905061472e565b5050509392505050565b600082601f83011261477457614773614645565b5b81356147848482602086016146f6565b91505092915050565b600080fd5b600067ffffffffffffffff8211156147ad576147ac61464a565b5b6147b6826145d9565b9050602081019050919050565b82818337600083830152505050565b60006147e56147e084614792565b6146aa565b9050828152602081018484840111156148015761480061478d565b5b61480c8482856147c3565b509392505050565b600082601f83011261482957614828614645565b5b81356148398482602086016147d2565b91505092915050565b600080600080600060a0868803121561485e5761485d6143a3565b5b600061486c888289016143f6565b955050602061487d888289016143f6565b945050604086013567ffffffffffffffff81111561489e5761489d6143a8565b5b6148aa8882890161475f565b935050606086013567ffffffffffffffff8111156148cb576148ca6143a8565b5b6148d78882890161475f565b925050608086013567ffffffffffffffff8111156148f8576148f76143a8565b5b61490488828901614814565b9150509295509295909350565b60008060408385031215614928576149276143a3565b5b60006149368582860161442c565b92505060206149478582860161442c565b9150509250929050565b600067ffffffffffffffff82111561496c5761496b61464a565b5b602082029050602081019050919050565b600061499061498b84614951565b6146aa565b905080838252602082019050602084028301858111156149b3576149b26146f1565b5b835b818110156149dc57806149c888826143f6565b8452602084019350506020810190506149b5565b5050509392505050565b600082601f8301126149fb576149fa614645565b5b8135614a0b84826020860161497d565b91505092915050565b60008060408385031215614a2b57614a2a6143a3565b5b600083013567ffffffffffffffff811115614a4957614a486143a8565b5b614a55858286016149e6565b925050602083013567ffffffffffffffff811115614a7657614a756143a8565b5b614a828582860161475f565b9150509250929050565b600081519050919050565b600082825260208201905092915050565b6000819050602082019050919050565b614ac18161440b565b82525050565b6000614ad38383614ab8565b60208301905092915050565b6000602082019050919050565b6000614af782614a8c565b614b018185614a97565b9350614b0c83614aa8565b8060005b83811015614b3d578151614b248882614ac7565b9750614b2f83614adf565b925050600181019050614b10565b5085935050505092915050565b60006020820190508181036000830152614b648184614aec565b905092915050565b6000610140820190508181036000830152614b87818d6145ea565b9050614b96602083018c614481565b614ba3604083018b614481565b614bb0606083018a614481565b614bbd6080830189614481565b614bca60a0830188614481565b614bd760c0830187614481565b614be460e0830186614481565b614bf2610100830185614481565b614c00610120830184614481565b9b9a5050505050505050505050565b614c18816143cd565b82525050565b6000602082019050614c336000830184614c0f565b92915050565b614c4281614530565b8114614c4d57600080fd5b50565b600081359050614c5f81614c39565b92915050565b60008060408385031215614c7c57614c7b6143a3565b5b6000614c8a858286016143f6565b9250506020614c9b85828601614c50565b9150509250929050565b614cae816144ab565b82525050565b6000602082019050614cc96000830184614ca5565b92915050565b60008060408385031215614ce657614ce56143a3565b5b6000614cf4858286016143f6565b9250506020614d05858286016143f6565b9150509250929050565b600080600080600060a08688031215614d2b57614d2a6143a3565b5b6000614d39888289016143f6565b9550506020614d4a888289016143f6565b9450506040614d5b8882890161442c565b9350506060614d6c8882890161442c565b925050608086013567ffffffffffffffff811115614d8d57614d8c6143a8565b5b614d9988828901614814565b9150509295509295909350565b600080fd5b60008083601f840112614dc157614dc0614645565b5b8235905067ffffffffffffffff811115614dde57614ddd614da6565b5b602083019150836001820283011115614dfa57614df96146f1565b5b9250929050565b60008060008060008060008060e0898b031215614e2157614e206143a3565b5b6000614e2f8b828c0161442c565b9850506020614e408b828c0161442c565b9750506040614e518b828c0161442c565b965050606089013567ffffffffffffffff811115614e7257614e716143a8565b5b614e7e8b828c01614dab565b95509550506080614e918b828c0161442c565b93505060a0614ea28b828c0161442c565b92505060c0614eb38b828c0161442c565b9150509295985092959890939650565b7f455243313135353a2061646472657373207a65726f206973206e6f742061207660008201527f616c6964206f776e657200000000000000000000000000000000000000000000602082015250565b6000614f1f602a8361459e565b9150614f2a82614ec3565b604082019050919050565b60006020820190508181036000830152614f4e81614f12565b9050919050565b7f4e487b7100000000000000000000000000000000000000000000000000000000600052601160045260246000fd5b6000614f8f8261440b565b9150614f9a8361440b565b9250828203905081811115614fb257614fb1614f55565b5b92915050565b7f4e487b7100000000000000000000000000000000000000000000000000000000600052602260045260246000fd5b60006002820490506001821680614fff57607f821691505b60208210810361501257615011614fb8565b5b50919050565b60006150238261440b565b915061502e8361440b565b925082820261503c8161440b565b9150828204841483151761505357615052614f55565b5b5092915050565b7f4342430000000000000000000000000000000000000000000000000000000000600082015250565b600061509060038361459e565b915061509b8261505a565b602082019050919050565b600060208201905081810360008301526150bf81615083565b9050919050565b7f4d4f504e57000000000000000000000000000000000000000000000000000000600082015250565b60006150fc60058361459e565b9150615107826150c6565b602082019050919050565b6000602082019050818103600083015261512b816150ef565b9050919050565b7f4e487b7100000000000000000000000000000000000000000000000000000000600052601260045260246000fd5b600061516c8261440b565b91506151778361440b565b92508261518757615186615132565b5b828204905092915050565b60006040820190506151a76000830185614481565b6151b46020830184614481565b9392505050565b7f455243313135353a2063616c6c6572206973206e6f7420746f6b656e206f776e60008201527f6572206f7220617070726f766564000000000000000000000000000000000000602082015250565b6000615217602e8361459e565b9150615222826151bb565b604082019050919050565b600060208201905081810360008301526152468161520a565b9050919050565b7f4e544f0000000000000000000000000000000000000000000000000000000000600082015250565b600061528360038361459e565b915061528e8261524d565b602082019050919050565b600060208201905081810360008301526152b281615276565b9050919050565b7f574e410000000000000000000000000000000000000000000000000000000000600082015250565b60006152ef60038361459e565b91506152fa826152b9565b602082019050919050565b6000602082019050818103600083015261531e816152e2565b9050919050565b7f5741450000000000000000000000000000000000000000000000000000000000600082015250565b600061535b60038361459e565b915061536682615325565b602082019050919050565b6000602082019050818103600083015261538a8161534e565b9050919050565b60006040820190506153a66000830185614c0f565b6153b36020830184614481565b9392505050565b6000815190506153c981614c39565b92915050565b6000602082840312156153e5576153e46143a3565b5b60006153f3848285016153ba565b91505092915050565b7f455243313135353a206163636f756e747320616e6420696473206c656e67746860008201527f206d69736d617463680000000000000000000000000000000000000000000000602082015250565b600061545860298361459e565b9150615463826153fc565b604082019050919050565b600060208201905081810360008301526154878161544b565b9050919050565b7f4e487b7100000000000000000000000000000000000000000000000000000000600052603260045260246000fd5b60006154c88261440b565b91507fffffffffffffffffffffffffffffffffffffffffffffffffffffffffffffffff82036154fa576154f9614f55565b5b600182019050919050565b7f504d444e41000000000000000000000000000000000000000000000000000000600082015250565b600061553b60058361459e565b915061554682615505565b602082019050919050565b6000602082019050818103600083015261556a8161552e565b9050919050565b7f4942000000000000000000000000000000000000000000000000000000000000600082015250565b60006155a760028361459e565b91506155b282615571565b602082019050919050565b600060208201905081810360008301526155d68161559a565b9050919050565b7f4951000000000000000000000000000000000000000000000000000000000000600082015250565b600061561360028361459e565b915061561e826155dd565b602082019050919050565b6000602082019050818103600083015261564281615606565b9050919050565b60006156548261440b565b915061565f8361440b565b925082820190508082111561567757615676614f55565b5b92915050565b60006040820190506156926000830185614481565b61569f6020830184614c0f565b9392505050565b60006060820190506156bb6000830186614481565b6156c86020830185614c0f565b6156d56040830184614c0f565b949350505050565b60006080820190506156f26000830187614481565b6156ff6020830186614c0f565b61570c6040830185614c0f565b6157196060830184614481565b95945050505050565b60006060820190506157376000830186614481565b6157446020830185614c0f565b6157516040830184614481565b949350505050565b600060608201905061576e6000830186614c0f565b61577b6020830185614c0f565b6157886040830184614481565b949350505050565b7f524e410000000000000000000000000000000000000000000000000000000000600082015250565b60006157c660038361459e565b91506157d182615790565b602082019050919050565b600060208201905081810360008301526157f5816157b9565b9050919050565b60006060820190506158116000830186614c0f565b61581e6020830185614481565b61582b6040830184614481565b949350505050565b7f4d41444e41000000000000000000000000000000000000000000000000000000600082015250565b600061586960058361459e565b915061587482615833565b602082019050919050565b600060208201905081810360008301526158988161585c565b9050919050565b7f4d41434e41000000000000000000000000000000000000000000000000000000600082015250565b60006158d560058361459e565b91506158e08261589f565b602082019050919050565b60006020820190508181036000830152615904816158c8565b9050919050565b7f444e410000000000000000000000000000000000000000000000000000000000600082015250565b600061594160038361459e565b915061594c8261590b565b602082019050919050565b6000602082019050818103600083015261597081615934565b9050919050565b60008151905061598681614415565b92915050565b6000602082840312156159a2576159a16143a3565b5b60006159b084828501615977565b91505092915050565b7f5746450000000000000000000000000000000000000000000000000000000000600082015250565b60006159ef60038361459e565b91506159fa826159b9565b602082019050919050565b60006020820190508181036000830152615a1e816159e2565b9050919050565b7f4d50514754425100000000000000000000000000000000000000000000000000600082015250565b6000615a5b60078361459e565b9150615a6682615a25565b602082019050919050565b60006020820190508181036000830152615a8a81615a4e565b9050919050565b7f4442364d00000000000000000000000000000000000000000000000000000000600082015250565b6000615ac760048361459e565b9150615ad282615a91565b602082019050919050565b60006020820190508181036000830152615af681615aba565b9050919050565b7f4144413744000000000000000000000000000000000000000000000000000000600082015250565b6000615b3360058361459e565b9150615b3e82615afd565b602082019050919050565b60006020820190508181036000830152615b6281615b26565b9050919050565b60008190508160005260206000209050919050565b60006020601f8301049050919050565b600082821b905092915050565b600060088302615bcb7fffffffffffffffffffffffffffffffffffffffffffffffffffffffffffffffff82615b8e565b615bd58683615b8e565b95508019841693508086168417925050509392505050565b6000819050919050565b6000615c12615c0d615c088461440b565b615bed565b61440b565b9050919050565b6000819050919050565b615c2c83615bf7565b615c40615c3882615c19565b848454615b9b565b825550505050565b600090565b615c55615c48565b615c60818484615c23565b505050565b5b81811015615c8457615c79600082615c4d565b600181019050615c66565b5050565b601f821115615cc957615c9a81615b69565b615ca384615b7e565b81016020851015615cb2578190505b615cc6615cbe85615b7e565b830182615c65565b50505b505050565b600082821c905092915050565b6000615cec60001984600802615cce565b1980831691505092915050565b6000615d058383615cdb565b9150826002028217905092915050565b615d1e82614593565b67ffffffffffffffff811115615d3757615d3661464a565b5b615d418254614fe7565b615d4c828285615c88565b600060209050601f831160018114615d7f5760008415615d6d578287015190505b615d778582615cf9565b865550615ddf565b601f198416615d8d86615b69565b60005b82811015615db557848901518255600182019150602085019450602081019050615d90565b86831015615dd25784890151615dce601f891682615cdb565b8355505b6001600288020188555050505b505050505050565b6000608082019050615dfc6000830187614481565b615e096020830186614481565b615e166040830185614481565b615e236060830184614481565b95945050505050565b7f455243313135353a2069647320616e6420616d6f756e7473206c656e6774682060008201527f6d69736d61746368000000000000000000000000000000000000000000000000602082015250565b6000615e8860288361459e565b9150615e9382615e2c565b604082019050919050565b60006020820190508181036000830152615eb781615e7b565b9050919050565b7f455243313135353a207472616e7366657220746f20746865207a65726f20616460008201527f6472657373000000000000000000000000000000000000000000000000000000602082015250565b6000615f1a60258361459e565b9150615f2582615ebe565b604082019050919050565b60006020820190508181036000830152615f4981615f0d565b9050919050565b7f455243313135353a20696e73756666696369656e742062616c616e636520666f60008201527f72207472616e7366657200000000000000000000000000000000000000000000602082015250565b6000615fac602a8361459e565b9150615fb782615f50565b604082019050919050565b60006020820190508181036000830152615fdb81615f9f565b9050919050565b60006040820190508181036000830152615ffc8185614aec565b905081810360208301526160108184614aec565b90509392505050565b7f455243313135353a206275726e2066726f6d20746865207a65726f206164647260008201527f6573730000000000000000000000000000000000000000000000000000000000602082015250565b600061607560238361459e565b915061608082616019565b604082019050919050565b600060208201905081810360008301526160a481616068565b9050919050565b7f455243313135353a206275726e20616d6f756e7420657863656564732062616c60008201527f616e636500000000000000000000000000000000000000000000000000000000602082015250565b600061610760248361459e565b9150616112826160ab565b604082019050919050565b60006020820190508181036000830152616136816160fa565b9050919050565b7f455243313135353a2073657474696e6720617070726f76616c2073746174757360008201527f20666f722073656c660000000000000000000000000000000000000000000000602082015250565b600061619960298361459e565b91506161a48261613d565b604082019050919050565b600060208201905081810360008301526161c88161618c565b9050919050565b7f455243313135353a206d696e7420746f20746865207a65726f2061646472657360008201527f7300000000000000000000000000000000000000000000000000000000000000602082015250565b600061622b60218361459e565b9150616236826161cf565b604082019050919050565b6000602082019050818103600083015261625a8161621e565b9050919050565b600081519050919050565b600082825260208201905092915050565b600061628882616261565b616292818561626c565b93506162a28185602086016145af565b6162ab816145d9565b840191505092915050565b600060a0820190506162cb6000830188614c0f565b6162d86020830187614c0f565b81810360408301526162ea8186614aec565b905081810360608301526162fe8185614aec565b90508181036080830152616312818461627d565b90509695505050505050565b60008151905061632d816144d7565b92915050565b600060208284031215616349576163486143a3565b5b60006163578482850161631e565b91505092915050565b60008160e01c9050919050565b600060033d111561638c5760046000803e616389600051616360565b90505b90565b600060443d1061641c576163a1614399565b60043d036004823e80513d602482011167ffffffffffffffff821117156163c957505061641c565b808201805167ffffffffffffffff8111156163e7575050505061641c565b80602083010160043d03850181111561640457505050505061641c565b61641382602001850186614679565b82955050505050505b90565b7f455243313135353a207472616e7366657220746f206e6f6e2d4552433131353560008201527f526563656976657220696d706c656d656e746572000000000000000000000000602082015250565b600061647b60348361459e565b91506164868261641f565b604082019050919050565b600060208201905081810360008301526164aa8161646e565b9050919050565b7f455243313135353a204552433131353552656365697665722072656a6563746560008201527f6420746f6b656e73000000000000000000000000000000000000000000000000602082015250565b600061650d60288361459e565b9150616518826164b1565b604082019050919050565b6000602082019050818103600083015261653c81616500565b9050919050565b600060a0820190506165586000830188614c0f565b6165656020830187614c0f565b6165726040830186614481565b61657f6060830185614481565b8181036080830152616591818461627d565b9050969550505050505056fea2646970667358221220d8b2b4be33ee265596df9912b57d740d153e74d17fe978d9a762cc0d86913dac64736f6c63430008110033",
  "linkReferences": {},
  "deployedLinkReferences": {}
}