{
  "_format": "hh-sol-artifact-1",
  "contractName": "CallableBondFactory",
  "sourceName": "contracts/CallableBondFactory.sol",
  "abi": [
    {
      "inputs": [
        {
          "internalType": "address",
          "name": "token",
          "type": "address"
        },
        {
          "internalType": "address",
          "name": "bondToken",
          "type": "address"
        },
        {
          "internalType": "address",
          "name": "db",
          "type": "address"
        },
        {
          "internalType": "address",
          "name": "deployer",
          "type": "address"
        }
      ],
      "stateMutability": "nonpayable",
      "type": "constructor"
    },
    {
      "anonymous": false,
      "inputs": [
        {
          "indexed": true,
          "internalType": "uint256",
          "name": "id",
          "type": "uint256"
        },
        {
          "indexed": false,
          "internalType": "uint256",
          "name": "couponRate",
          "type": "uint256"
        },
        {
          "indexed": false,
          "internalType": "uint256",
          "name": "couponRateOnCall",
          "type": "uint256"
        }
      ],
      "name": "Called",
      "type": "event"
    },
    {
      "anonymous": false,
      "inputs": [
        {
          "indexed": true,
          "internalType": "uint256",
          "name": "id",
          "type": "uint256"
        },
        {
          "indexed": false,
          "internalType": "uint256",
          "name": "totalDebt",
          "type": "uint256"
        },
        {
          "indexed": false,
          "internalType": "uint256",
          "name": "paidDebt",
          "type": "uint256"
        }
      ],
      "name": "Completed",
      "type": "event"
    },
    {
      "anonymous": false,
      "inputs": [
        {
          "indexed": true,
          "internalType": "uint256",
          "name": "id",
          "type": "uint256"
        },
        {
          "indexed": false,
          "internalType": "uint256",
          "name": "totalDebt",
          "type": "uint256"
        },
        {
          "indexed": false,
          "internalType": "uint256",
          "name": "paidDebt",
          "type": "uint256"
        }
      ],
      "name": "Defaulted",
      "type": "event"
    },
    {
      "anonymous": false,
      "inputs": [
        {
          "indexed": true,
          "internalType": "uint256",
          "name": "id",
          "type": "uint256"
        },
        {
          "indexed": false,
          "internalType": "uint256",
          "name": "bondQuantity",
          "type": "uint256"
        },
        {
          "indexed": false,
          "internalType": "uint256",
          "name": "tokenAmountPerBond",
          "type": "uint256"
        },
        {
          "indexed": false,
          "internalType": "uint256",
          "name": "couponRate",
          "type": "uint256"
        },
        {
          "indexed": false,
          "internalType": "uint256",
          "name": "maturityDate",
          "type": "uint256"
        }
      ],
      "name": "Issued",
      "type": "event"
    },
    {
      "anonymous": false,
      "inputs": [
        {
          "indexed": true,
          "internalType": "uint256",
          "name": "id",
          "type": "uint256"
        },
        {
          "indexed": false,
          "internalType": "address",
          "name": "buyer",
          "type": "address"
        },
        {
          "indexed": false,
          "internalType": "uint256",
          "name": "bondQuantity",
          "type": "uint256"
        },
        {
          "indexed": false,
          "internalType": "uint256",
          "name": "state",
          "type": "uint256"
        }
      ],
      "name": "Redeemed",
      "type": "event"
    },
    {
      "inputs": [],
      "name": "baseToken",
      "outputs": [
        {
          "internalType": "address",
          "name": "",
          "type": "address"
        }
      ],
      "stateMutability": "view",
      "type": "function"
    },
    {
      "inputs": [
        {
          "internalType": "uint256",
          "name": "id",
          "type": "uint256"
        }
      ],
      "name": "call",
      "outputs": [],
      "stateMutability": "nonpayable",
      "type": "function"
    },
    {
      "inputs": [
        {
          "internalType": "uint256",
          "name": "id",
          "type": "uint256"
        }
      ],
      "name": "couponRateOnCall",
      "outputs": [
        {
          "internalType": "uint256",
          "name": "",
          "type": "uint256"
        }
      ],
      "stateMutability": "view",
      "type": "function"
    },
    {
      "inputs": [
        {
          "internalType": "uint256",
          "name": "id",
          "type": "uint256"
        },
        {
          "internalType": "uint256",
          "name": "tokenAmount",
          "type": "uint256"
        }
      ],
      "name": "deposit",
      "outputs": [],
      "stateMutability": "nonpayable",
      "type": "function"
    },
    {
      "inputs": [
        {
          "internalType": "uint256",
          "name": "id",
          "type": "uint256"
        }
      ],
      "name": "designatedTokenPool",
      "outputs": [
        {
          "internalType": "uint256",
          "name": "",
          "type": "uint256"
        }
      ],
      "stateMutability": "view",
      "type": "function"
    },
    {
      "inputs": [
        {
          "internalType": "uint256",
          "name": "id",
          "type": "uint256"
        }
      ],
      "name": "hasReachedMaturity",
      "outputs": [
        {
          "internalType": "bool",
          "name": "",
          "type": "bool"
        }
      ],
      "stateMutability": "view",
      "type": "function"
    },
    {
      "inputs": [
        {
          "internalType": "uint256",
          "name": "id",
          "type": "uint256"
        }
      ],
      "name": "isActive",
      "outputs": [
        {
          "internalType": "bool",
          "name": "",
          "type": "bool"
        }
      ],
      "stateMutability": "view",
      "type": "function"
    },
    {
      "inputs": [
        {
          "internalType": "uint256",
          "name": "id",
          "type": "uint256"
        }
      ],
      "name": "isCalled",
      "outputs": [
        {
          "internalType": "bool",
          "name": "",
          "type": "bool"
        }
      ],
      "stateMutability": "view",
      "type": "function"
    },
    {
      "inputs": [
        {
          "internalType": "uint256",
          "name": "id",
          "type": "uint256"
        }
      ],
      "name": "isCanceled",
      "outputs": [
        {
          "internalType": "bool",
          "name": "",
          "type": "bool"
        }
      ],
      "stateMutability": "view",
      "type": "function"
    },
    {
      "inputs": [
        {
          "internalType": "uint256",
          "name": "id",
          "type": "uint256"
        }
      ],
      "name": "isCompleted",
      "outputs": [
        {
          "internalType": "bool",
          "name": "",
          "type": "bool"
        }
      ],
      "stateMutability": "view",
      "type": "function"
    },
    {
      "inputs": [
        {
          "internalType": "uint256",
          "name": "id",
          "type": "uint256"
        }
      ],
      "name": "isCompletedInTheory",
      "outputs": [
        {
          "internalType": "bool",
          "name": "",
          "type": "bool"
        }
      ],
      "stateMutability": "view",
      "type": "function"
    },
    {
      "inputs": [
        {
          "internalType": "uint256",
          "name": "id",
          "type": "uint256"
        }
      ],
      "name": "isDefaulted",
      "outputs": [
        {
          "internalType": "bool",
          "name": "",
          "type": "bool"
        }
      ],
      "stateMutability": "view",
      "type": "function"
    },
    {
      "inputs": [
        {
          "internalType": "uint256",
          "name": "id",
          "type": "uint256"
        }
      ],
      "name": "isDefaultedInTheory",
      "outputs": [
        {
          "internalType": "bool",
          "name": "",
          "type": "bool"
        }
      ],
      "stateMutability": "view",
      "type": "function"
    },
    {
      "inputs": [
        {
          "internalType": "uint256",
          "name": "id",
          "type": "uint256"
        }
      ],
      "name": "isFulfilled",
      "outputs": [
        {
          "internalType": "bool",
          "name": "",
          "type": "bool"
        }
      ],
      "stateMutability": "view",
      "type": "function"
    },
    {
      "inputs": [
        {
          "internalType": "uint256",
          "name": "id",
          "type": "uint256"
        }
      ],
      "name": "isFullyRedeemed",
      "outputs": [
        {
          "internalType": "bool",
          "name": "",
          "type": "bool"
        }
      ],
      "stateMutability": "view",
      "type": "function"
    },
    {
      "inputs": [
        {
          "internalType": "uint256",
          "name": "bondQuantity",
          "type": "uint256"
        },
        {
          "internalType": "uint256",
          "name": "minPurchasedQuantity",
          "type": "uint256"
        },
        {
          "internalType": "uint256",
          "name": "tokenAmountPerBond",
          "type": "uint256"
        },
        {
          "internalType": "string",
          "name": "ticker",
          "type": "string"
        },
        {
          "internalType": "uint256",
          "name": "durationInDays",
          "type": "uint256"
        },
        {
          "internalType": "uint256",
          "name": "activeDurationInDays",
          "type": "uint256"
        },
        {
          "internalType": "uint256",
          "name": "rate",
          "type": "uint256"
        }
      ],
      "name": "issue",
      "outputs": [
        {
          "internalType": "uint256",
          "name": "id",
          "type": "uint256"
        }
      ],
      "stateMutability": "nonpayable",
      "type": "function"
    },
    {
      "inputs": [
        {
          "internalType": "uint256",
          "name": "id",
          "type": "uint256"
        }
      ],
      "name": "markAsCompleted",
      "outputs": [],
      "stateMutability": "nonpayable",
      "type": "function"
    },
    {
      "inputs": [
        {
          "internalType": "uint256",
          "name": "id",
          "type": "uint256"
        }
      ],
      "name": "markAsDefaulted",
      "outputs": [],
      "stateMutability": "nonpayable",
      "type": "function"
    },
    {
      "inputs": [
        {
          "internalType": "uint256",
          "name": "id",
          "type": "uint256"
        }
      ],
      "name": "minObligationPeriod",
      "outputs": [
        {
          "internalType": "uint256",
          "name": "",
          "type": "uint256"
        }
      ],
      "stateMutability": "view",
      "type": "function"
    },
    {
      "inputs": [
        {
          "internalType": "address",
          "name": "",
          "type": "address"
        },
        {
          "internalType": "address",
          "name": "",
          "type": "address"
        },
        {
          "internalType": "uint256[]",
          "name": "",
          "type": "uint256[]"
        },
        {
          "internalType": "uint256[]",
          "name": "",
          "type": "uint256[]"
        },
        {
          "internalType": "bytes",
          "name": "",
          "type": "bytes"
        }
      ],
      "name": "onERC1155BatchReceived",
      "outputs": [
        {
          "internalType": "bytes4",
          "name": "",
          "type": "bytes4"
        }
      ],
      "stateMutability": "nonpayable",
      "type": "function"
    },
    {
      "inputs": [
        {
          "internalType": "address",
          "name": "",
          "type": "address"
        },
        {
          "internalType": "address",
          "name": "",
          "type": "address"
        },
        {
          "internalType": "uint256",
          "name": "",
          "type": "uint256"
        },
        {
          "internalType": "uint256",
          "name": "",
          "type": "uint256"
        },
        {
          "internalType": "bytes",
          "name": "",
          "type": "bytes"
        }
      ],
      "name": "onERC1155Received",
      "outputs": [
        {
          "internalType": "bytes4",
          "name": "",
          "type": "bytes4"
        }
      ],
      "stateMutability": "nonpayable",
      "type": "function"
    },
    {
      "inputs": [],
      "name": "owner",
      "outputs": [
        {
          "internalType": "address",
          "name": "",
          "type": "address"
        }
      ],
      "stateMutability": "view",
      "type": "function"
    },
    {
      "inputs": [
        {
          "internalType": "uint256",
          "name": "id",
          "type": "uint256"
        }
      ],
      "name": "poolAmount",
      "outputs": [
        {
          "internalType": "uint256",
          "name": "",
          "type": "uint256"
        }
      ],
      "stateMutability": "view",
      "type": "function"
    },
    {
      "inputs": [
        {
          "internalType": "uint256",
          "name": "id",
          "type": "uint256"
        }
      ],
      "name": "preMaturityDefault",
      "outputs": [],
      "stateMutability": "nonpayable",
      "type": "function"
    },
    {
      "inputs": [
        {
          "internalType": "uint256",
          "name": "id",
          "type": "uint256"
        }
      ],
      "name": "principal",
      "outputs": [
        {
          "internalType": "uint256",
          "name": "",
          "type": "uint256"
        }
      ],
      "stateMutability": "view",
      "type": "function"
    },
    {
      "inputs": [
        {
          "internalType": "uint256",
          "name": "id",
          "type": "uint256"
        }
      ],
      "name": "principalWithInterest",
      "outputs": [
        {
          "internalType": "uint256",
          "name": "",
          "type": "uint256"
        }
      ],
      "stateMutability": "view",
      "type": "function"
    },
    {
      "inputs": [
        {
          "internalType": "uint256",
          "name": "id",
          "type": "uint256"
        },
        {
          "internalType": "uint256",
          "name": "bondQuantity",
          "type": "uint256"
        }
      ],
      "name": "purchase",
      "outputs": [],
      "stateMutability": "nonpayable",
      "type": "function"
    },
    {
      "inputs": [
        {
          "internalType": "uint256",
          "name": "id",
          "type": "uint256"
        },
        {
          "internalType": "uint256",
          "name": "bondQuantity",
          "type": "uint256"
        }
      ],
      "name": "redeem",
      "outputs": [],
      "stateMutability": "nonpayable",
      "type": "function"
    },
    {
      "inputs": [
        {
          "internalType": "uint256",
          "name": "id",
          "type": "uint256"
        }
      ],
      "name": "remainingQuantity",
      "outputs": [
        {
          "internalType": "uint256",
          "name": "",
          "type": "uint256"
        }
      ],
      "stateMutability": "view",
      "type": "function"
    },
    {
      "inputs": [
        {
          "internalType": "bytes4",
          "name": "interfaceId",
          "type": "bytes4"
        }
      ],
      "name": "supportsInterface",
      "outputs": [
        {
          "internalType": "bool",
          "name": "",
          "type": "bool"
        }
      ],
      "stateMutability": "view",
      "type": "function"
    },
    {
      "inputs": [
        {
          "internalType": "uint256",
          "name": "id",
          "type": "uint256"
        }
      ],
      "name": "timeElapsed",
      "outputs": [
        {
          "internalType": "uint256",
          "name": "",
          "type": "uint256"
        }
      ],
      "stateMutability": "view",
      "type": "function"
    },
    {
      "inputs": [
        {
          "internalType": "uint256",
          "name": "id",
          "type": "uint256"
        }
      ],
      "name": "timeRemainingToEndOfActive",
      "outputs": [
        {
          "internalType": "uint256",
          "name": "",
          "type": "uint256"
        }
      ],
      "stateMutability": "view",
      "type": "function"
    },
    {
      "inputs": [
        {
          "internalType": "uint256",
          "name": "id",
          "type": "uint256"
        }
      ],
      "name": "timeRemainingToMaturity",
      "outputs": [
        {
          "internalType": "uint256",
          "name": "",
          "type": "uint256"
        }
      ],
      "stateMutability": "view",
      "type": "function"
    },
    {
      "inputs": [],
      "name": "tvl",
      "outputs": [
        {
          "internalType": "uint256",
          "name": "",
          "type": "uint256"
        }
      ],
      "stateMutability": "view",
      "type": "function"
    },
    {
      "inputs": [
        {
          "internalType": "uint256",
          "name": "id",
          "type": "uint256"
        },
        {
          "internalType": "uint256",
          "name": "tokenAmount",
          "type": "uint256"
        }
      ],
      "name": "withdraw",
      "outputs": [],
      "stateMutability": "nonpayable",
      "type": "function"
    },
    {
      "inputs": [
        {
          "internalType": "uint256",
          "name": "id",
          "type": "uint256"
        }
      ],
      "name": "withdrawExcess",
      "outputs": [],
      "stateMutability": "nonpayable",
      "type": "function"
    }
  ],
  "bytecode": "0x6101006040523480156200001257600080fd5b5060405162004e1838038062004e18833981810160405281019062000038919062000184565b838383838073ffffffffffffffffffffffffffffffffffffffff1660808173ffffffffffffffffffffffffffffffffffffffff16815250508373ffffffffffffffffffffffffffffffffffffffff1660a08173ffffffffffffffffffffffffffffffffffffffff16815250508173ffffffffffffffffffffffffffffffffffffffff1660c08173ffffffffffffffffffffffffffffffffffffffff16815250508273ffffffffffffffffffffffffffffffffffffffff1660e08173ffffffffffffffffffffffffffffffffffffffff16815250505050505050505050620001f6565b600080fd5b600073ffffffffffffffffffffffffffffffffffffffff82169050919050565b60006200014c826200011f565b9050919050565b6200015e816200013f565b81146200016a57600080fd5b50565b6000815190506200017e8162000153565b92915050565b60008060008060808587031215620001a157620001a06200011a565b5b6000620001b1878288016200016d565b9450506020620001c4878288016200016d565b9350506040620001d7878288016200016d565b9250506060620001ea878288016200016d565b91505092959194509250565b60805160a05160c05160e051614a8362000395600039600081816108920152818161094901528181610a2001528181610bb001528181610c6701528181610db0015281816115700152818161197201528181611aac01528181611bf101528181611d7301528181611e550152818161202c015281816120dc015281816121d7015281816122990152818161295a01526130ec015260008181611304015281816113af0152818161167401528181611721015281816117f0015281816118c2015281816124b8015281816125630152818161320701526132930152600081816110a6015281816116b10152818161177f0152818161184e015281816118ff01528181611a0301528181611f4801528181612611015281816128330152818161293101528181612b3101528181612bd801528181612dcd015261302c015260008181610f090152818161117b01528181611340015281816113eb0152818161175e0152818161182d015281816121af015281816124f40152818161259f01528181612a0e01528181612c7701528181612eb601526132cf0152614a836000f3fe608060405234801561001057600080fd5b506004361061021c5760003560e01c806388bdc08311610125578063c3653010116100ad578063e5328e061161007c578063e5328e061461072d578063e755ddd71461074b578063f0d8100a14610767578063f23a6e6114610797578063fcbc669a146107c75761021c565b8063c365301014610693578063c55dae63146106c3578063d3b7811b146106e1578063e2bbb158146107115761021c565b8063932a8de0116100f4578063932a8de0146105cb578063a53e17b0146105fb578063a87430221461062b578063bc197c8114610647578063c0a6026c146106775761021c565b806388bdc0831461051d57806389c2bb1f1461054d5780638da5cb5b1461057d5780638f0dbf771461059b5761021c565b8063441a3e70116101a857806370876c981161017757806370876c981461045557806377e2a08b146104715780637a41984b146104a15780637cbc2373146104d157806382afd23b146104ed5761021c565b8063441a3e70146103bd578063549493bb146103d95780636567dc4d146104095780636ff80d93146104255761021c565b806314f29493116101ef57806314f29493146102e15780632b096926146103115780632f3ad61f1461032d5780633097afb81461035d57806339e3af9b1461038d5761021c565b806301ffc9a714610221578063021594971461025157806308913ce81461028157806309149020146102b1575b600080fd5b61023b6004803603810190610236919061348e565b6107f7565b60405161024891906134d6565b60405180910390f35b61026b60048036038101906102669190613527565b610871565b6040516102789190613563565b60405180910390f35b61029b60048036038101906102969190613527565b61088e565b6040516102a89190613563565b60405180910390f35b6102cb60048036038101906102c69190613527565b610945565b6040516102d891906134d6565b60405180910390f35b6102fb60048036038101906102f69190613527565b610a08565b6040516103089190613563565b60405180910390f35b61032b60048036038101906103269190613527565b610ad2565b005b61034760048036038101906103429190613527565b610e7f565b60405161035491906134d6565b60405180910390f35b61037760048036038101906103729190613527565b610ea9565b60405161038491906134d6565b60405180910390f35b6103a760048036038101906103a29190613527565b610ee2565b6040516103b491906134d6565b60405180910390f35b6103d760048036038101906103d2919061357e565b610f07565b005b6103f360048036038101906103ee9190613527565b611147565b60405161040091906134d6565b60405180910390f35b610423600480360381019061041e9190613527565b611179565b005b61043f600480360381019061043a9190613527565b6114a1565b60405161044c91906134d6565b60405180910390f35b61046f600480360381019061046a919061357e565b6114d9565b005b61048b60048036038101906104869190613527565b611aa7565b6040516104989190613563565b60405180910390f35b6104bb60048036038101906104b69190613527565b611bc4565b6040516104c891906134d6565b60405180910390f35b6104eb60048036038101906104e6919061357e565b611bee565b005b61050760048036038101906105029190613527565b612028565b60405161051491906134d6565b60405180910390f35b61053760048036038101906105329190613527565b6120d7565b6040516105449190613563565b60405180910390f35b61056760048036038101906105629190613527565b61218e565b6040516105749190613563565b60405180910390f35b6105856121ab565b60405161059291906135ff565b60405180910390f35b6105b560048036038101906105b09190613527565b6121d3565b6040516105c291906134d6565b60405180910390f35b6105e560048036038101906105e09190613527565b612281565b6040516105f29190613563565b60405180910390f35b61061560048036038101906106109190613527565b61234c565b60405161062291906134d6565b60405180910390f35b61064560048036038101906106409190613527565b612376565b005b610661600480360381019061065c9190613854565b6126f5565b60405161066e9190613932565b60405180910390f35b610691600480360381019061068c9190613527565b61270a565b005b6106ad60048036038101906106a89190613527565b612910565b6040516106ba9190613563565b60405180910390f35b6106cb61292d565b6040516106d891906135ff565b60405180910390f35b6106fb60048036038101906106f69190613527565b612955565b6040516107089190613563565b60405180910390f35b61072b6004803603810190610726919061357e565b612a0c565b005b610735612bd4565b6040516107429190613563565b60405180910390f35b61076560048036038101906107609190613527565b612c75565b005b610781600480360381019061077c9190613527565b612e80565b60405161078e9190613563565b60405180910390f35b6107b160048036038101906107ac919061394d565b612e9d565b6040516107be9190613932565b60405180910390f35b6107e160048036038101906107dc9190613a85565b612eb2565b6040516107ee9190613563565b60405180910390f35b60007f4e2312e0000000000000000000000000000000000000000000000000000000007bffffffffffffffffffffffffffffffffffffffffffffffffffffffff1916827bffffffffffffffffffffffffffffffffffffffffffffffffffffffff1916148061086a5750610869826133a2565b5b9050919050565b600060046000838152602001908152602001600020549050919050565b60007f000000000000000000000000000000000000000000000000000000000000000073ffffffffffffffffffffffffffffffffffffffff1663c3ada2ed836040518263ffffffff1660e01b81526004016108e99190613563565b600060405180830381865afa158015610906573d6000803e3d6000fd5b505050506040513d6000823e3d601f19601f8201168201806040525081019061092f9190613d4f565b608001514261093e9190613dc7565b9050919050565b60007f000000000000000000000000000000000000000000000000000000000000000073ffffffffffffffffffffffffffffffffffffffff1663c3ada2ed836040518263ffffffff1660e01b81526004016109a09190613563565b600060405180830381865afa1580156109bd573d6000803e3d6000fd5b505050506040513d6000823e3d601f19601f820116820180604052508101906109e69190613d4f565b6101400151600260008481526020019081526020016000205410159050919050565b600060026000838152602001908152602001600020547f000000000000000000000000000000000000000000000000000000000000000073ffffffffffffffffffffffffffffffffffffffff1663c3ada2ed846040518263ffffffff1660e01b8152600401610a779190613563565b600060405180830381865afa158015610a94573d6000803e3d6000fd5b505050506040513d6000823e3d601f19601f82011682018060405250810190610abd9190613d4f565b60600151610acb9190613dfb565b9050919050565b610adb81611bc4565b158015610aee5750610aec81610ee2565b155b8015610b005750610afe81610e7f565b155b610b3f576040517f08c379a0000000000000000000000000000000000000000000000000000000008152600401610b3690613e9a565b60405180910390fd5b62015180600b600083815260200190815260200160002054610b619190613dfb565b610b6a8261088e565b11610baa576040517f08c379a0000000000000000000000000000000000000000000000000000000008152600401610ba190613f06565b60405180910390fd5b620151807f000000000000000000000000000000000000000000000000000000000000000073ffffffffffffffffffffffffffffffffffffffff1663c3ada2ed836040518263ffffffff1660e01b8152600401610c079190613563565b600060405180830381865afa158015610c24573d6000803e3d6000fd5b505050506040513d6000823e3d601f19601f82011682018060405250810190610c4d9190613d4f565b6101000151610c5c9190613dfb565b610c658261088e565b7f000000000000000000000000000000000000000000000000000000000000000073ffffffffffffffffffffffffffffffffffffffff1663c3ada2ed846040518263ffffffff1660e01b8152600401610cbe9190613563565b600060405180830381865afa158015610cdb573d6000803e3d6000fd5b505050506040513d6000823e3d601f19601f82011682018060405250810190610d049190613d4f565b6101600151610d139190613dfb565b610d1d9190613f55565b600c6000838152602001908152602001600020819055506001600d600083815260200190815260200160002060006101000a81548160ff02191690831515021790555060016009600083815260200190815260200160002060006101000a81548160ff021916908315150217905550807fb580a16317cf9efa50cf987c976c3fb7de7eaf3149b9dd5b8a576a043042f44c7f000000000000000000000000000000000000000000000000000000000000000073ffffffffffffffffffffffffffffffffffffffff1663c3ada2ed846040518263ffffffff1660e01b8152600401610e079190613563565b600060405180830381865afa158015610e24573d6000803e3d6000fd5b505050506040513d6000823e3d601f19601f82011682018060405250810190610e4d9190613d4f565b6101600151600c600085815260200190815260200160002054604051610e74929190613f86565b60405180910390a250565b60006008600083815260200190815260200160002060009054906101000a900460ff169050919050565b6000610eb4826121d3565b8015610edb5750610ec482611aa7565b600460008481526020019081526020016000205410155b9050919050565b6000610eed82612028565b158015610f005750610efe82610945565b155b9050919050565b7f000000000000000000000000000000000000000000000000000000000000000073ffffffffffffffffffffffffffffffffffffffff163373ffffffffffffffffffffffffffffffffffffffff1614610f95576040517f08c379a0000000000000000000000000000000000000000000000000000000008152600401610f8c90613ffb565b60405180910390fd5b610f9e82612028565b158015610fb15750610faf82610ee2565b155b8015610fc35750610fc182611bc4565b155b8015610fe55750610fd382610e7f565b80610fe35750610fe2826114a1565b5b155b611024576040517f08c379a000000000000000000000000000000000000000000000000000000000815260040161101b90614067565b60405180910390fd5b600460008381526020019081526020016000205481111561107a576040517f08c379a0000000000000000000000000000000000000000000000000000000008152600401611071906140d3565b60405180910390fd5b8060046000848152602001908152602001600020600082825461109d9190613dc7565b925050819055507f000000000000000000000000000000000000000000000000000000000000000073ffffffffffffffffffffffffffffffffffffffff1663a9059cbb33836040518363ffffffff1660e01b81526004016110ff9291906140f3565b6020604051808303816000875af115801561111e573d6000803e3d6000fd5b505050506040513d601f19601f820116820180604052508101906111429190614148565b505050565b600060026000838152602001908152602001600020546003600084815260200190815260200160002054149050919050565b7f000000000000000000000000000000000000000000000000000000000000000073ffffffffffffffffffffffffffffffffffffffff163373ffffffffffffffffffffffffffffffffffffffff1614611207576040517f08c379a00000000000000000000000000000000000000000000000000000000081526004016111fe90613ffb565b60405180910390fd5b61121081611bc4565b158015611223575061122181610e7f565b155b8015611249575061123381611aa7565b6004600083815260200190815260200160002054105b611288576040517f08c379a000000000000000000000000000000000000000000000000000000000815260040161127f906141c1565b60405180910390fd5b6000600460008381526020019081526020016000205490506002600083815260200190815260200160002054816112bf9190613f55565b600560008481526020019081526020016000208190555060016008600084815260200190815260200160002060006101000a81548160ff0219169083151502179055507f000000000000000000000000000000000000000000000000000000000000000073ffffffffffffffffffffffffffffffffffffffff1663dae382d67f00000000000000000000000000000000000000000000000000000000000000006040518263ffffffff1660e01b815260040161137b91906135ff565b600060405180830381600087803b15801561139557600080fd5b505af11580156113a9573d6000803e3d6000fd5b505050507f000000000000000000000000000000000000000000000000000000000000000073ffffffffffffffffffffffffffffffffffffffff1663d050a7c87f000000000000000000000000000000000000000000000000000000000000000060016040518363ffffffff1660e01b81526004016114299291906140f3565b600060405180830381600087803b15801561144357600080fd5b505af1158015611457573d6000803e3d6000fd5b50505050817fc4f17a65d54873d57229ea5f59c4ddec592d095bc17581372676402c8228b9cd61148684611aa7565b83604051611495929190613f86565b60405180910390a25050565b60006114ac826121d3565b80156114d257506114bc82611aa7565b6004600084815260200190815260200160002054105b9050919050565b6114e282612028565b611521576040517f08c379a00000000000000000000000000000000000000000000000000000000081526004016115189061422d565b60405180910390fd5b8061152b83612281565b101561156c576040517f08c379a000000000000000000000000000000000000000000000000000000000815260040161156390614299565b60405180910390fd5b60007f000000000000000000000000000000000000000000000000000000000000000073ffffffffffffffffffffffffffffffffffffffff1663c3ada2ed846040518263ffffffff1660e01b81526004016115c79190613563565b600060405180830381865afa1580156115e4573d6000803e3d6000fd5b505050506040513d6000823e3d601f19601f8201168201806040525081019061160d9190613d4f565b606001518261161c9190613dfb565b90508160026000858152602001908152602001600020600082825461164191906142b9565b925050819055508060046000858152602001908152602001600020600082825461166b91906142b9565b925050819055507f000000000000000000000000000000000000000000000000000000000000000073ffffffffffffffffffffffffffffffffffffffff1663576ff163827f00000000000000000000000000000000000000000000000000000000000000006040518363ffffffff1660e01b81526004016116ed9291906142ed565b600060405180830381600087803b15801561170757600080fd5b505af115801561171b573d6000803e3d6000fd5b505050507f000000000000000000000000000000000000000000000000000000000000000073ffffffffffffffffffffffffffffffffffffffff1663b8c2e4f3827f00000000000000000000000000000000000000000000000000000000000000007f00000000000000000000000000000000000000000000000000000000000000006040518463ffffffff1660e01b81526004016117bc93929190614316565b600060405180830381600087803b1580156117d657600080fd5b505af11580156117ea573d6000803e3d6000fd5b505050507f000000000000000000000000000000000000000000000000000000000000000073ffffffffffffffffffffffffffffffffffffffff16637db79a3d827f00000000000000000000000000000000000000000000000000000000000000007f000000000000000000000000000000000000000000000000000000000000000060016040518563ffffffff1660e01b815260040161188e949392919061434d565b600060405180830381600087803b1580156118a857600080fd5b505af11580156118bc573d6000803e3d6000fd5b505050507f000000000000000000000000000000000000000000000000000000000000000073ffffffffffffffffffffffffffffffffffffffff1663b0b4dfaa827f000000000000000000000000000000000000000000000000000000000000000060016040518463ffffffff1660e01b815260040161193e93929190614392565b600060405180830381600087803b15801561195857600080fd5b505af115801561196c573d6000803e3d6000fd5b505050507f000000000000000000000000000000000000000000000000000000000000000073ffffffffffffffffffffffffffffffffffffffff1663f242432a303386866040518563ffffffff1660e01b81526004016119cf9493929190614400565b600060405180830381600087803b1580156119e957600080fd5b505af11580156119fd573d6000803e3d6000fd5b505050507f000000000000000000000000000000000000000000000000000000000000000073ffffffffffffffffffffffffffffffffffffffff166323b872dd3330846040518463ffffffff1660e01b8152600401611a5e93929190614458565b6020604051808303816000875af1158015611a7d573d6000803e3d6000fd5b505050506040513d601f19601f82011682018060405250810190611aa19190614148565b50505050565b6000807f000000000000000000000000000000000000000000000000000000000000000073ffffffffffffffffffffffffffffffffffffffff1663c3ada2ed846040518263ffffffff1660e01b8152600401611b039190613563565b600060405180830381865afa158015611b20573d6000803e3d6000fd5b505050506040513d6000823e3d601f19601f82011682018060405250810190611b499190613d4f565b61016001519050600d600084815260200190815260200160002060009054906101000a900460ff1615611b8257611b7f8361218e565b90505b670de0b6b3a764000081611b9585610a08565b611b9f9190613dfb565b611ba99190613f55565b611bb284610a08565b611bbc91906142b9565b915050919050565b60006009600083815260200190815260200160002060009054906101000a900460ff169050919050565b807f000000000000000000000000000000000000000000000000000000000000000073ffffffffffffffffffffffffffffffffffffffff1662fdd58e33856040518363ffffffff1660e01b8152600401611c499291906140f3565b602060405180830381865afa158015611c66573d6000803e3d6000fd5b505050506040513d601f19601f82011682018060405250810190611c8a919061448f565b1015611ccb576040517f08c379a0000000000000000000000000000000000000000000000000000000008152600401611cc290614299565b60405180910390fd5b611cd482611bc4565b80611ce45750611ce382610ee2565b5b80611cf45750611cf382610e7f565b5b611d33576040517f08c379a0000000000000000000000000000000000000000000000000000000008152600401611d2a90614508565b60405180910390fd5b600080611d3f84611bc4565b15611d63576006600085815260200190815260200160002054915060009050611e53565b611d6c84610ee2565b15611e1f577f000000000000000000000000000000000000000000000000000000000000000073ffffffffffffffffffffffffffffffffffffffff1663c3ada2ed856040518263ffffffff1660e01b8152600401611dca9190613563565b600060405180830381865afa158015611de7573d6000803e3d6000fd5b505050506040513d6000823e3d601f19601f82011682018060405250810190611e109190613d4f565b60600151915060019050611e52565b611e2884610e7f565b15611e4c576005600085815260200190815260200160002054915060029050611e51565b600080fd5b5b5b7f000000000000000000000000000000000000000000000000000000000000000073ffffffffffffffffffffffffffffffffffffffff1663f5298aca3386866040518463ffffffff1660e01b8152600401611eb093929190614528565b600060405180830381600087803b158015611eca57600080fd5b505af1158015611ede573d6000803e3d6000fd5b5050505082600360008681526020019081526020016000206000828254611f0591906142b9565b9250508190555060008284611f1a9190613dfb565b905080600460008781526020019081526020016000206000828254611f3f9190613dc7565b925050819055507f000000000000000000000000000000000000000000000000000000000000000073ffffffffffffffffffffffffffffffffffffffff1663a9059cbb33836040518363ffffffff1660e01b8152600401611fa19291906140f3565b6020604051808303816000875af1158015611fc0573d6000803e3d6000fd5b505050506040513d601f19601f82011682018060405250810190611fe49190614148565b50847fa5851b0172fdafd3dafe0e52ce051747548a4c642a2f22793c01faf228e1306233868560405161201993929190614528565b60405180910390a25050505050565b60007f000000000000000000000000000000000000000000000000000000000000000073ffffffffffffffffffffffffffffffffffffffff1663c3ada2ed836040518263ffffffff1660e01b81526004016120839190613563565b600060405180830381865afa1580156120a0573d6000803e3d6000fd5b505050506040513d6000823e3d601f19601f820116820180604052508101906120c99190613d4f565b60c001514211159050919050565b6000427f000000000000000000000000000000000000000000000000000000000000000073ffffffffffffffffffffffffffffffffffffffff1663c3ada2ed846040518263ffffffff1660e01b81526004016121339190613563565b600060405180830381865afa158015612150573d6000803e3d6000fd5b505050506040513d6000823e3d601f19601f820116820180604052508101906121799190613d4f565b60c001516121879190613dc7565b9050919050565b6000600c6000838152602001908152602001600020549050919050565b60007f0000000000000000000000000000000000000000000000000000000000000000905090565b60007f000000000000000000000000000000000000000000000000000000000000000073ffffffffffffffffffffffffffffffffffffffff1663c3ada2ed836040518263ffffffff1660e01b815260040161222e9190613563565b600060405180830381865afa15801561224b573d6000803e3d6000fd5b505050506040513d6000823e3d601f19601f820116820180604052508101906122749190613d4f565b60a0015142119050919050565b600060026000838152602001908152602001600020547f000000000000000000000000000000000000000000000000000000000000000073ffffffffffffffffffffffffffffffffffffffff1663c3ada2ed846040518263ffffffff1660e01b81526004016122f09190613563565b600060405180830381865afa15801561230d573d6000803e3d6000fd5b505050506040513d6000823e3d601f19601f820116820180604052508101906123369190613d4f565b61012001516123459190613dc7565b9050919050565b6000600d600083815260200190815260200160002060009054906101000a900460ff169050919050565b61237f81611bc4565b158015612392575061239081610e7f565b155b80156123a357506123a2816114a1565b5b6123e2576040517f08c379a00000000000000000000000000000000000000000000000000000000081526004016123d9906145ab565b60405180910390fd5b60006103e860046000848152602001908152602001600020546124059190613f55565b905060008160046000858152602001908152602001600020546124289190613dc7565b90506002600084815260200190815260200160002054816124499190613f55565b6005600085815260200190815260200160002081905550816004600085815260200190815260200160002060008282546124839190613dc7565b9250508190555060016008600085815260200190815260200160002060006101000a81548160ff0219169083151502179055507f000000000000000000000000000000000000000000000000000000000000000073ffffffffffffffffffffffffffffffffffffffff1663dae382d67f00000000000000000000000000000000000000000000000000000000000000006040518263ffffffff1660e01b815260040161252f91906135ff565b600060405180830381600087803b15801561254957600080fd5b505af115801561255d573d6000803e3d6000fd5b505050507f000000000000000000000000000000000000000000000000000000000000000073ffffffffffffffffffffffffffffffffffffffff1663d050a7c87f000000000000000000000000000000000000000000000000000000000000000060016040518363ffffffff1660e01b81526004016125dd9291906140f3565b600060405180830381600087803b1580156125f757600080fd5b505af115801561260b573d6000803e3d6000fd5b505050507f000000000000000000000000000000000000000000000000000000000000000073ffffffffffffffffffffffffffffffffffffffff1663a9059cbb33846040518363ffffffff1660e01b815260040161266a9291906140f3565b6020604051808303816000875af1158015612689573d6000803e3d6000fd5b505050506040513d601f19601f820116820180604052508101906126ad9190614148565b50827fc4f17a65d54873d57229ea5f59c4ddec592d095bc17581372676402c8228b9cd6126d985611aa7565b836040516126e8929190613f86565b60405180910390a2505050565b600063bc197c8160e01b905095945050505050565b61271381610e7f565b158015612726575061272481611bc4565b155b8015612737575061273681610ea9565b5b612776576040517f08c379a000000000000000000000000000000000000000000000000000000000815260040161276d90614617565b60405180910390fd5b600061278182611aa7565b905060006103e8826127939190613f55565b9050600081836127a39190613dc7565b90506002600085815260200190815260200160002054816127c49190613f55565b6006600086815260200190815260200160002081905550816004600086815260200190815260200160002060008282546127fe9190613dc7565b9250508190555060016009600086815260200190815260200160002060006101000a81548160ff0219169083151502179055507f000000000000000000000000000000000000000000000000000000000000000073ffffffffffffffffffffffffffffffffffffffff1663a9059cbb33846040518363ffffffff1660e01b815260040161288c9291906140f3565b6020604051808303816000875af11580156128ab573d6000803e3d6000fd5b505050506040513d601f19601f820116820180604052508101906128cf9190614148565b50837fac2eeaf45d1b75aed6b3285cda3efb3c382cce02ba313558bbb90be57f8843e48483604051612902929190613f86565b60405180910390a250505050565b6000600b6000838152602001908152602001600020549050919050565b60007f0000000000000000000000000000000000000000000000000000000000000000905090565b6000427f000000000000000000000000000000000000000000000000000000000000000073ffffffffffffffffffffffffffffffffffffffff1663c3ada2ed846040518263ffffffff1660e01b81526004016129b19190613563565b600060405180830381865afa1580156129ce573d6000803e3d6000fd5b505050506040513d6000823e3d601f19601f820116820180604052508101906129f79190613d4f565b60a00151612a059190613dc7565b9050919050565b7f000000000000000000000000000000000000000000000000000000000000000073ffffffffffffffffffffffffffffffffffffffff163373ffffffffffffffffffffffffffffffffffffffff1614612a9a576040517f08c379a0000000000000000000000000000000000000000000000000000000008152600401612a9190613ffb565b60405180910390fd5b612aa382610e7f565b80612ab35750612ab2826114a1565b5b158015612ac65750612ac482611bc4565b155b612b05576040517f08c379a0000000000000000000000000000000000000000000000000000000008152600401612afc90614683565b60405180910390fd5b80600460008481526020019081526020016000206000828254612b2891906142b9565b925050819055507f000000000000000000000000000000000000000000000000000000000000000073ffffffffffffffffffffffffffffffffffffffff166323b872dd3330846040518463ffffffff1660e01b8152600401612b8c93929190614458565b6020604051808303816000875af1158015612bab573d6000803e3d6000fd5b505050506040513d601f19601f82011682018060405250810190612bcf9190614148565b505050565b60007f000000000000000000000000000000000000000000000000000000000000000073ffffffffffffffffffffffffffffffffffffffff166370a08231306040518263ffffffff1660e01b8152600401612c2f91906135ff565b602060405180830381865afa158015612c4c573d6000803e3d6000fd5b505050506040513d601f19601f82011682018060405250810190612c70919061448f565b905090565b7f000000000000000000000000000000000000000000000000000000000000000073ffffffffffffffffffffffffffffffffffffffff163373ffffffffffffffffffffffffffffffffffffffff1614612d03576040517f08c379a0000000000000000000000000000000000000000000000000000000008152600401612cfa90613ffb565b60405180910390fd5b612d0c81611bc4565b8015612d1d5750612d1c81611147565b5b612d5c576040517f08c379a0000000000000000000000000000000000000000000000000000000008152600401612d5390614067565b60405180910390fd5b6000600460008381526020019081526020016000205411612db2576040517f08c379a0000000000000000000000000000000000000000000000000000000008152600401612da9906146ef565b60405180910390fd5b600060046000838152602001908152602001600020819055507f000000000000000000000000000000000000000000000000000000000000000073ffffffffffffffffffffffffffffffffffffffff1663a9059cbb3360046000858152602001908152602001600020546040518363ffffffff1660e01b8152600401612e399291906140f3565b6020604051808303816000875af1158015612e58573d6000803e3d6000fd5b505050506040513d601f19601f82011682018060405250810190612e7c9190614148565b5050565b600060046000838152602001908152602001600020549050919050565b600063f23a6e6160e01b905095945050505050565b60007f000000000000000000000000000000000000000000000000000000000000000073ffffffffffffffffffffffffffffffffffffffff163373ffffffffffffffffffffffffffffffffffffffff1614612f42576040517f08c379a0000000000000000000000000000000000000000000000000000000008152600401612f3990613ffb565b60405180910390fd5b878710612f84576040517f08c379a0000000000000000000000000000000000000000000000000000000008152600401612f7b9061475b565b60405180910390fd5b60b4841015612fc8576040517f08c379a0000000000000000000000000000000000000000000000000000000008152600401612fbf906147c7565b60405180910390fd5b600783111561300c576040517f08c379a000000000000000000000000000000000000000000000000000000000815260040161300390614833565b60405180910390fd5b613016600a61340c565b60006040518061018001604052808781526020017f000000000000000000000000000000000000000000000000000000000000000073ffffffffffffffffffffffffffffffffffffffff1681526020013373ffffffffffffffffffffffffffffffffffffffff168152602001888152602001428152602001620151808761309d9190613dfb565b426130a891906142b9565b815260200162015180866130bc9190613dfb565b426130c791906142b9565b81526020018581526020018681526020018a81526020018981526020018481525090507f000000000000000000000000000000000000000000000000000000000000000073ffffffffffffffffffffffffffffffffffffffff166310e28d47308b846040518463ffffffff1660e01b8152600401613147939291906149ca565b6020604051808303816000875af1158015613166573d6000803e3d6000fd5b505050506040513d601f19601f8201168201806040525081019061318a919061448f565b9150600182908060018154018082558091505060019003906000526020600020016000909190919091505560016007600084815260200190815260200160002060006101000a81548160ff0219169083151502179055506002856131ee9190613f55565b600b6000848152602001908152602001600020819055507f000000000000000000000000000000000000000000000000000000000000000073ffffffffffffffffffffffffffffffffffffffff1663b54cb16560026040518263ffffffff1660e01b815260040161325f9190613563565b600060405180830381600087803b15801561327957600080fd5b505af115801561328d573d6000803e3d6000fd5b505050507f000000000000000000000000000000000000000000000000000000000000000073ffffffffffffffffffffffffffffffffffffffff1663bea75cf47f000000000000000000000000000000000000000000000000000000000000000060026040518363ffffffff1660e01b815260040161330d9291906140f3565b600060405180830381600087803b15801561332757600080fd5b505af115801561333b573d6000803e3d6000fd5b50505050817ff73e436c94925e1e8b2f0b16de0a2c56aea7fb27878f7815811bc05bc6c335e88a8986620151808a6133739190613dfb565b4261337e91906142b9565b60405161338e9493929190614a08565b60405180910390a250979650505050505050565b60007f01ffc9a7000000000000000000000000000000000000000000000000000000007bffffffffffffffffffffffffffffffffffffffffffffffffffffffff1916827bffffffffffffffffffffffffffffffffffffffffffffffffffffffff1916149050919050565b6001816000016000828254019250508190555050565b6000604051905090565b600080fd5b600080fd5b60007fffffffff0000000000000000000000000000000000000000000000000000000082169050919050565b61346b81613436565b811461347657600080fd5b50565b60008135905061348881613462565b92915050565b6000602082840312156134a4576134a361342c565b5b60006134b284828501613479565b91505092915050565b60008115159050919050565b6134d0816134bb565b82525050565b60006020820190506134eb60008301846134c7565b92915050565b6000819050919050565b613504816134f1565b811461350f57600080fd5b50565b600081359050613521816134fb565b92915050565b60006020828403121561353d5761353c61342c565b5b600061354b84828501613512565b91505092915050565b61355d816134f1565b82525050565b60006020820190506135786000830184613554565b92915050565b600080604083850312156135955761359461342c565b5b60006135a385828601613512565b92505060206135b485828601613512565b9150509250929050565b600073ffffffffffffffffffffffffffffffffffffffff82169050919050565b60006135e9826135be565b9050919050565b6135f9816135de565b82525050565b600060208201905061361460008301846135f0565b92915050565b613623816135de565b811461362e57600080fd5b50565b6000813590506136408161361a565b92915050565b600080fd5b6000601f19601f8301169050919050565b7f4e487b7100000000000000000000000000000000000000000000000000000000600052604160045260246000fd5b6136948261364b565b810181811067ffffffffffffffff821117156136b3576136b261365c565b5b80604052505050565b60006136c6613422565b90506136d2828261368b565b919050565b600067ffffffffffffffff8211156136f2576136f161365c565b5b602082029050602081019050919050565b600080fd5b600061371b613716846136d7565b6136bc565b9050808382526020820190506020840283018581111561373e5761373d613703565b5b835b8181101561376757806137538882613512565b845260208401935050602081019050613740565b5050509392505050565b600082601f83011261378657613785613646565b5b8135613796848260208601613708565b91505092915050565b600080fd5b600067ffffffffffffffff8211156137bf576137be61365c565b5b6137c88261364b565b9050602081019050919050565b82818337600083830152505050565b60006137f76137f2846137a4565b6136bc565b9050828152602081018484840111156138135761381261379f565b5b61381e8482856137d5565b509392505050565b600082601f83011261383b5761383a613646565b5b813561384b8482602086016137e4565b91505092915050565b600080600080600060a086880312156138705761386f61342c565b5b600061387e88828901613631565b955050602061388f88828901613631565b945050604086013567ffffffffffffffff8111156138b0576138af613431565b5b6138bc88828901613771565b935050606086013567ffffffffffffffff8111156138dd576138dc613431565b5b6138e988828901613771565b925050608086013567ffffffffffffffff81111561390a57613909613431565b5b61391688828901613826565b9150509295509295909350565b61392c81613436565b82525050565b60006020820190506139476000830184613923565b92915050565b600080600080600060a086880312156139695761396861342c565b5b600061397788828901613631565b955050602061398888828901613631565b945050604061399988828901613512565b93505060606139aa88828901613512565b925050608086013567ffffffffffffffff8111156139cb576139ca613431565b5b6139d788828901613826565b9150509295509295909350565b600067ffffffffffffffff8211156139ff576139fe61365c565b5b613a088261364b565b9050602081019050919050565b6000613a28613a23846139e4565b6136bc565b905082815260208101848484011115613a4457613a4361379f565b5b613a4f8482856137d5565b509392505050565b600082601f830112613a6c57613a6b613646565b5b8135613a7c848260208601613a15565b91505092915050565b600080600080600080600060e0888a031215613aa457613aa361342c565b5b6000613ab28a828b01613512565b9750506020613ac38a828b01613512565b9650506040613ad48a828b01613512565b955050606088013567ffffffffffffffff811115613af557613af4613431565b5b613b018a828b01613a57565b9450506080613b128a828b01613512565b93505060a0613b238a828b01613512565b92505060c0613b348a828b01613512565b91505092959891949750929550565b600080fd5b600080fd5b60005b83811015613b6b578082015181840152602081019050613b50565b60008484015250505050565b6000613b8a613b85846139e4565b6136bc565b905082815260208101848484011115613ba657613ba561379f565b5b613bb1848285613b4d565b509392505050565b600082601f830112613bce57613bcd613646565b5b8151613bde848260208601613b77565b91505092915050565b600081519050613bf68161361a565b92915050565b600081519050613c0b816134fb565b92915050565b60006101808284031215613c2857613c27613b43565b5b613c336101806136bc565b9050600082015167ffffffffffffffff811115613c5357613c52613b48565b5b613c5f84828501613bb9565b6000830152506020613c7384828501613be7565b6020830152506040613c8784828501613be7565b6040830152506060613c9b84828501613bfc565b6060830152506080613caf84828501613bfc565b60808301525060a0613cc384828501613bfc565b60a08301525060c0613cd784828501613bfc565b60c08301525060e0613ceb84828501613bfc565b60e083015250610100613d0084828501613bfc565b61010083015250610120613d1684828501613bfc565b61012083015250610140613d2c84828501613bfc565b61014083015250610160613d4284828501613bfc565b6101608301525092915050565b600060208284031215613d6557613d6461342c565b5b600082015167ffffffffffffffff811115613d8357613d82613431565b5b613d8f84828501613c11565b91505092915050565b7f4e487b7100000000000000000000000000000000000000000000000000000000600052601160045260246000fd5b6000613dd2826134f1565b9150613ddd836134f1565b9250828203905081811115613df557613df4613d98565b5b92915050565b6000613e06826134f1565b9150613e11836134f1565b9250828202613e1f816134f1565b91508282048414831517613e3657613e35613d98565b5b5092915050565b600082825260208201905092915050565b7f4342430000000000000000000000000000000000000000000000000000000000600082015250565b6000613e84600383613e3d565b9150613e8f82613e4e565b602082019050919050565b60006020820190508181036000830152613eb381613e77565b9050919050565b7f4d4f504e57000000000000000000000000000000000000000000000000000000600082015250565b6000613ef0600583613e3d565b9150613efb82613eba565b602082019050919050565b60006020820190508181036000830152613f1f81613ee3565b9050919050565b7f4e487b7100000000000000000000000000000000000000000000000000000000600052601260045260246000fd5b6000613f60826134f1565b9150613f6b836134f1565b925082613f7b57613f7a613f26565b5b828204905092915050565b6000604082019050613f9b6000830185613554565b613fa86020830184613554565b9392505050565b7f4e544f0000000000000000000000000000000000000000000000000000000000600082015250565b6000613fe5600383613e3d565b9150613ff082613faf565b602082019050919050565b6000602082019050818103600083015261401481613fd8565b9050919050565b7f574e410000000000000000000000000000000000000000000000000000000000600082015250565b6000614051600383613e3d565b915061405c8261401b565b602082019050919050565b6000602082019050818103600083015261408081614044565b9050919050565b7f5741450000000000000000000000000000000000000000000000000000000000600082015250565b60006140bd600383613e3d565b91506140c882614087565b602082019050919050565b600060208201905081810360008301526140ec816140b0565b9050919050565b600060408201905061410860008301856135f0565b6141156020830184613554565b9392505050565b614125816134bb565b811461413057600080fd5b50565b6000815190506141428161411c565b92915050565b60006020828403121561415e5761415d61342c565b5b600061416c84828501614133565b91505092915050565b7f504d444e41000000000000000000000000000000000000000000000000000000600082015250565b60006141ab600583613e3d565b91506141b682614175565b602082019050919050565b600060208201905081810360008301526141da8161419e565b9050919050565b7f4942000000000000000000000000000000000000000000000000000000000000600082015250565b6000614217600283613e3d565b9150614222826141e1565b602082019050919050565b600060208201905081810360008301526142468161420a565b9050919050565b7f4951000000000000000000000000000000000000000000000000000000000000600082015250565b6000614283600283613e3d565b915061428e8261424d565b602082019050919050565b600060208201905081810360008301526142b281614276565b9050919050565b60006142c4826134f1565b91506142cf836134f1565b92508282019050808211156142e7576142e6613d98565b5b92915050565b60006040820190506143026000830185613554565b61430f60208301846135f0565b9392505050565b600060608201905061432b6000830186613554565b61433860208301856135f0565b61434560408301846135f0565b949350505050565b60006080820190506143626000830187613554565b61436f60208301866135f0565b61437c60408301856135f0565b6143896060830184613554565b95945050505050565b60006060820190506143a76000830186613554565b6143b460208301856135f0565b6143c16040830184613554565b949350505050565b600082825260208201905092915050565b50565b60006143ea6000836143c9565b91506143f5826143da565b600082019050919050565b600060a08201905061441560008301876135f0565b61442260208301866135f0565b61442f6040830185613554565b61443c6060830184613554565b818103608083015261444d816143dd565b905095945050505050565b600060608201905061446d60008301866135f0565b61447a60208301856135f0565b6144876040830184613554565b949350505050565b6000602082840312156144a5576144a461342c565b5b60006144b384828501613bfc565b91505092915050565b7f524e410000000000000000000000000000000000000000000000000000000000600082015250565b60006144f2600383613e3d565b91506144fd826144bc565b602082019050919050565b60006020820190508181036000830152614521816144e5565b9050919050565b600060608201905061453d60008301866135f0565b61454a6020830185613554565b6145576040830184613554565b949350505050565b7f4d41444e41000000000000000000000000000000000000000000000000000000600082015250565b6000614595600583613e3d565b91506145a08261455f565b602082019050919050565b600060208201905081810360008301526145c481614588565b9050919050565b7f4d41434e41000000000000000000000000000000000000000000000000000000600082015250565b6000614601600583613e3d565b915061460c826145cb565b602082019050919050565b60006020820190508181036000830152614630816145f4565b9050919050565b7f444e410000000000000000000000000000000000000000000000000000000000600082015250565b600061466d600383613e3d565b915061467882614637565b602082019050919050565b6000602082019050818103600083015261469c81614660565b9050919050565b7f5746450000000000000000000000000000000000000000000000000000000000600082015250565b60006146d9600383613e3d565b91506146e4826146a3565b602082019050919050565b60006020820190508181036000830152614708816146cc565b9050919050565b7f4d50514754425100000000000000000000000000000000000000000000000000600082015250565b6000614745600783613e3d565b91506147508261470f565b602082019050919050565b6000602082019050818103600083015261477481614738565b9050919050565b7f4442364d00000000000000000000000000000000000000000000000000000000600082015250565b60006147b1600483613e3d565b91506147bc8261477b565b602082019050919050565b600060208201905081810360008301526147e0816147a4565b9050919050565b7f4144413744000000000000000000000000000000000000000000000000000000600082015250565b600061481d600583613e3d565b9150614828826147e7565b602082019050919050565b6000602082019050818103600083015261484c81614810565b9050919050565b600081519050919050565b600082825260208201905092915050565b600061487a82614853565b614884818561485e565b9350614894818560208601613b4d565b61489d8161364b565b840191505092915050565b6148b1816135de565b82525050565b6148c0816134f1565b82525050565b60006101808301600083015184820360008601526148e4828261486f565b91505060208301516148f960208601826148a8565b50604083015161490c60408601826148a8565b50606083015161491f60608601826148b7565b50608083015161493260808601826148b7565b5060a083015161494560a08601826148b7565b5060c083015161495860c08601826148b7565b5060e083015161496b60e08601826148b7565b506101008301516149806101008601826148b7565b506101208301516149956101208601826148b7565b506101408301516149aa6101408601826148b7565b506101608301516149bf6101608601826148b7565b508091505092915050565b60006060820190506149df60008301866135f0565b6149ec6020830185613554565b81810360408301526149fe81846148c6565b9050949350505050565b6000608082019050614a1d6000830187613554565b614a2a6020830186613554565b614a376040830185613554565b614a446060830184613554565b9594505050505056fea2646970667358221220ca2016a7a507d85ca7e8db198c1d70968c3f29bcd84e2e52821bbecc83f4cca564736f6c63430008110033",
  "linkReferences": {},
  "deployedLinkReferences": {}
}