{
  "_format": "hh-sol-artifact-1",
  "contractName": "CallableBondFactory",
  "sourceName": "contracts/CallableBondFactory.sol",
  "abi": [
    {
      "inputs": [
        {
          "internalType": "string",
          "name": "uri",
          "type": "string"
        },
        {
          "internalType": "address",
          "name": "token",
          "type": "address"
        },
        {
          "internalType": "address",
          "name": "deployer",
          "type": "address"
        }
      ],
      "stateMutability": "nonpayable",
      "type": "constructor"
    },
    {
      "anonymous": false,
      "inputs": [
        {
          "indexed": true,
          "internalType": "address",
          "name": "account",
          "type": "address"
        },
        {
          "indexed": true,
          "internalType": "address",
          "name": "operator",
          "type": "address"
        },
        {
          "indexed": false,
          "internalType": "bool",
          "name": "approved",
          "type": "bool"
        }
      ],
      "name": "ApprovalForAll",
      "type": "event"
    },
    {
      "anonymous": false,
      "inputs": [
        {
          "indexed": true,
          "internalType": "uint256",
          "name": "id",
          "type": "uint256"
        },
        {
          "indexed": false,
          "internalType": "uint256",
          "name": "couponRate",
          "type": "uint256"
        },
        {
          "indexed": false,
          "internalType": "uint256",
          "name": "couponRateOnCall",
          "type": "uint256"
        }
      ],
      "name": "Called",
      "type": "event"
    },
    {
      "anonymous": false,
      "inputs": [
        {
          "indexed": true,
          "internalType": "uint256",
          "name": "id",
          "type": "uint256"
        },
        {
          "indexed": false,
          "internalType": "uint256",
          "name": "totalDebt",
          "type": "uint256"
        },
        {
          "indexed": false,
          "internalType": "uint256",
          "name": "paidDebt",
          "type": "uint256"
        }
      ],
      "name": "Completed",
      "type": "event"
    },
    {
      "anonymous": false,
      "inputs": [
        {
          "indexed": true,
          "internalType": "uint256",
          "name": "id",
          "type": "uint256"
        },
        {
          "indexed": false,
          "internalType": "uint256",
          "name": "totalDebt",
          "type": "uint256"
        },
        {
          "indexed": false,
          "internalType": "uint256",
          "name": "paidDebt",
          "type": "uint256"
        }
      ],
      "name": "Defaulted",
      "type": "event"
    },
    {
      "anonymous": false,
      "inputs": [
        {
          "indexed": true,
          "internalType": "uint256",
          "name": "id",
          "type": "uint256"
        },
        {
          "indexed": false,
          "internalType": "uint256",
          "name": "bondQuantity",
          "type": "uint256"
        },
        {
          "indexed": false,
          "internalType": "uint256",
          "name": "tokenAmountPerBond",
          "type": "uint256"
        },
        {
          "indexed": false,
          "internalType": "uint256",
          "name": "couponRate",
          "type": "uint256"
        },
        {
          "indexed": false,
          "internalType": "uint256",
          "name": "maturityDate",
          "type": "uint256"
        }
      ],
      "name": "Issued",
      "type": "event"
    },
    {
      "anonymous": false,
      "inputs": [
        {
          "indexed": true,
          "internalType": "address",
          "name": "operator",
          "type": "address"
        },
        {
          "indexed": true,
          "internalType": "address",
          "name": "from",
          "type": "address"
        },
        {
          "indexed": true,
          "internalType": "address",
          "name": "to",
          "type": "address"
        },
        {
          "indexed": false,
          "internalType": "uint256[]",
          "name": "ids",
          "type": "uint256[]"
        },
        {
          "indexed": false,
          "internalType": "uint256[]",
          "name": "values",
          "type": "uint256[]"
        }
      ],
      "name": "TransferBatch",
      "type": "event"
    },
    {
      "anonymous": false,
      "inputs": [
        {
          "indexed": true,
          "internalType": "address",
          "name": "operator",
          "type": "address"
        },
        {
          "indexed": true,
          "internalType": "address",
          "name": "from",
          "type": "address"
        },
        {
          "indexed": true,
          "internalType": "address",
          "name": "to",
          "type": "address"
        },
        {
          "indexed": false,
          "internalType": "uint256",
          "name": "id",
          "type": "uint256"
        },
        {
          "indexed": false,
          "internalType": "uint256",
          "name": "value",
          "type": "uint256"
        }
      ],
      "name": "TransferSingle",
      "type": "event"
    },
    {
      "anonymous": false,
      "inputs": [
        {
          "indexed": false,
          "internalType": "string",
          "name": "value",
          "type": "string"
        },
        {
          "indexed": true,
          "internalType": "uint256",
          "name": "id",
          "type": "uint256"
        }
      ],
      "name": "URI",
      "type": "event"
    },
    {
      "inputs": [
        {
          "internalType": "address",
          "name": "account",
          "type": "address"
        },
        {
          "internalType": "uint256",
          "name": "id",
          "type": "uint256"
        }
      ],
      "name": "balanceOf",
      "outputs": [
        {
          "internalType": "uint256",
          "name": "",
          "type": "uint256"
        }
      ],
      "stateMutability": "view",
      "type": "function"
    },
    {
      "inputs": [
        {
          "internalType": "address[]",
          "name": "accounts",
          "type": "address[]"
        },
        {
          "internalType": "uint256[]",
          "name": "ids",
          "type": "uint256[]"
        }
      ],
      "name": "balanceOfBatch",
      "outputs": [
        {
          "internalType": "uint256[]",
          "name": "",
          "type": "uint256[]"
        }
      ],
      "stateMutability": "view",
      "type": "function"
    },
    {
      "inputs": [],
      "name": "baseToken",
      "outputs": [
        {
          "internalType": "address",
          "name": "",
          "type": "address"
        }
      ],
      "stateMutability": "view",
      "type": "function"
    },
    {
      "inputs": [
        {
          "internalType": "uint256",
          "name": "id",
          "type": "uint256"
        }
      ],
      "name": "bondMetadata",
      "outputs": [
        {
          "internalType": "string",
          "name": "",
          "type": "string"
        },
        {
          "internalType": "uint256",
          "name": "",
          "type": "uint256"
        },
        {
          "internalType": "uint256",
          "name": "",
          "type": "uint256"
        },
        {
          "internalType": "uint256",
          "name": "",
          "type": "uint256"
        },
        {
          "internalType": "uint256",
          "name": "",
          "type": "uint256"
        },
        {
          "internalType": "uint256",
          "name": "",
          "type": "uint256"
        },
        {
          "internalType": "uint256",
          "name": "",
          "type": "uint256"
        },
        {
          "internalType": "uint256",
          "name": "",
          "type": "uint256"
        },
        {
          "internalType": "uint256",
          "name": "",
          "type": "uint256"
        },
        {
          "internalType": "uint256",
          "name": "",
          "type": "uint256"
        }
      ],
      "stateMutability": "view",
      "type": "function"
    },
    {
      "inputs": [
        {
          "internalType": "uint256",
          "name": "id",
          "type": "uint256"
        }
      ],
      "name": "call",
      "outputs": [],
      "stateMutability": "nonpayable",
      "type": "function"
    },
    {
      "inputs": [
        {
          "internalType": "uint256",
          "name": "id",
          "type": "uint256"
        }
      ],
      "name": "couponRate",
      "outputs": [
        {
          "internalType": "uint256",
          "name": "",
          "type": "uint256"
        }
      ],
      "stateMutability": "view",
      "type": "function"
    },
    {
      "inputs": [
        {
          "internalType": "uint256",
          "name": "id",
          "type": "uint256"
        }
      ],
      "name": "couponRateOnCall",
      "outputs": [
        {
          "internalType": "uint256",
          "name": "",
          "type": "uint256"
        }
      ],
      "stateMutability": "view",
      "type": "function"
    },
    {
      "inputs": [
        {
          "internalType": "uint256",
          "name": "id",
          "type": "uint256"
        },
        {
          "internalType": "uint256",
          "name": "tokenAmount",
          "type": "uint256"
        }
      ],
      "name": "deposit",
      "outputs": [],
      "stateMutability": "nonpayable",
      "type": "function"
    },
    {
      "inputs": [
        {
          "internalType": "uint256",
          "name": "id",
          "type": "uint256"
        }
      ],
      "name": "designatedTokenPool",
      "outputs": [
        {
          "internalType": "uint256",
          "name": "",
          "type": "uint256"
        }
      ],
      "stateMutability": "view",
      "type": "function"
    },
    {
      "inputs": [],
      "name": "fundsRaised",
      "outputs": [
        {
          "internalType": "uint256",
          "name": "",
          "type": "uint256"
        }
      ],
      "stateMutability": "view",
      "type": "function"
    },
    {
      "inputs": [
        {
          "internalType": "uint256",
          "name": "id",
          "type": "uint256"
        }
      ],
      "name": "hasReachedMaturity",
      "outputs": [
        {
          "internalType": "bool",
          "name": "",
          "type": "bool"
        }
      ],
      "stateMutability": "view",
      "type": "function"
    },
    {
      "inputs": [
        {
          "internalType": "uint256",
          "name": "id",
          "type": "uint256"
        }
      ],
      "name": "isActive",
      "outputs": [
        {
          "internalType": "bool",
          "name": "",
          "type": "bool"
        }
      ],
      "stateMutability": "view",
      "type": "function"
    },
    {
      "inputs": [
        {
          "internalType": "address",
          "name": "account",
          "type": "address"
        },
        {
          "internalType": "address",
          "name": "operator",
          "type": "address"
        }
      ],
      "name": "isApprovedForAll",
      "outputs": [
        {
          "internalType": "bool",
          "name": "",
          "type": "bool"
        }
      ],
      "stateMutability": "view",
      "type": "function"
    },
    {
      "inputs": [
        {
          "internalType": "uint256",
          "name": "id",
          "type": "uint256"
        }
      ],
      "name": "isCalled",
      "outputs": [
        {
          "internalType": "bool",
          "name": "",
          "type": "bool"
        }
      ],
      "stateMutability": "view",
      "type": "function"
    },
    {
      "inputs": [
        {
          "internalType": "uint256",
          "name": "id",
          "type": "uint256"
        }
      ],
      "name": "isCanceled",
      "outputs": [
        {
          "internalType": "bool",
          "name": "",
          "type": "bool"
        }
      ],
      "stateMutability": "view",
      "type": "function"
    },
    {
      "inputs": [
        {
          "internalType": "uint256",
          "name": "id",
          "type": "uint256"
        }
      ],
      "name": "isCompleted",
      "outputs": [
        {
          "internalType": "bool",
          "name": "",
          "type": "bool"
        }
      ],
      "stateMutability": "view",
      "type": "function"
    },
    {
      "inputs": [
        {
          "internalType": "uint256",
          "name": "id",
          "type": "uint256"
        }
      ],
      "name": "isCompletedInTheory",
      "outputs": [
        {
          "internalType": "bool",
          "name": "",
          "type": "bool"
        }
      ],
      "stateMutability": "view",
      "type": "function"
    },
    {
      "inputs": [
        {
          "internalType": "uint256",
          "name": "id",
          "type": "uint256"
        }
      ],
      "name": "isDefaulted",
      "outputs": [
        {
          "internalType": "bool",
          "name": "",
          "type": "bool"
        }
      ],
      "stateMutability": "view",
      "type": "function"
    },
    {
      "inputs": [
        {
          "internalType": "uint256",
          "name": "id",
          "type": "uint256"
        }
      ],
      "name": "isDefaultedInTheory",
      "outputs": [
        {
          "internalType": "bool",
          "name": "",
          "type": "bool"
        }
      ],
      "stateMutability": "view",
      "type": "function"
    },
    {
      "inputs": [
        {
          "internalType": "uint256",
          "name": "id",
          "type": "uint256"
        }
      ],
      "name": "isFulfilled",
      "outputs": [
        {
          "internalType": "bool",
          "name": "",
          "type": "bool"
        }
      ],
      "stateMutability": "view",
      "type": "function"
    },
    {
      "inputs": [
        {
          "internalType": "uint256",
          "name": "id",
          "type": "uint256"
        }
      ],
      "name": "isFullyRedeemed",
      "outputs": [
        {
          "internalType": "bool",
          "name": "",
          "type": "bool"
        }
      ],
      "stateMutability": "view",
      "type": "function"
    },
    {
      "inputs": [
        {
          "internalType": "uint256",
          "name": "bondQuantity",
          "type": "uint256"
        },
        {
          "internalType": "uint256",
          "name": "minPurchasedQuantity",
          "type": "uint256"
        },
        {
          "internalType": "uint256",
          "name": "tokenAmountPerBond",
          "type": "uint256"
        },
        {
          "internalType": "string",
          "name": "ticker",
          "type": "string"
        },
        {
          "internalType": "uint256",
          "name": "durationDays",
          "type": "uint256"
        },
        {
          "internalType": "uint256",
          "name": "activeDurationInDays",
          "type": "uint256"
        },
        {
          "internalType": "uint256",
          "name": "rate",
          "type": "uint256"
        }
      ],
      "name": "issue",
      "outputs": [
        {
          "internalType": "uint256",
          "name": "id",
          "type": "uint256"
        }
      ],
      "stateMutability": "nonpayable",
      "type": "function"
    },
    {
      "inputs": [
        {
          "internalType": "uint256",
          "name": "id",
          "type": "uint256"
        }
      ],
      "name": "markAsCompleted",
      "outputs": [],
      "stateMutability": "nonpayable",
      "type": "function"
    },
    {
      "inputs": [
        {
          "internalType": "uint256",
          "name": "id",
          "type": "uint256"
        }
      ],
      "name": "markAsDefaulted",
      "outputs": [],
      "stateMutability": "nonpayable",
      "type": "function"
    },
    {
      "inputs": [
        {
          "internalType": "uint256",
          "name": "id",
          "type": "uint256"
        }
      ],
      "name": "minObligationPeriod",
      "outputs": [
        {
          "internalType": "uint256",
          "name": "",
          "type": "uint256"
        }
      ],
      "stateMutability": "view",
      "type": "function"
    },
    {
      "inputs": [],
      "name": "owner",
      "outputs": [
        {
          "internalType": "address",
          "name": "",
          "type": "address"
        }
      ],
      "stateMutability": "view",
      "type": "function"
    },
    {
      "inputs": [
        {
          "internalType": "uint256",
          "name": "id",
          "type": "uint256"
        }
      ],
      "name": "poolAmount",
      "outputs": [
        {
          "internalType": "uint256",
          "name": "",
          "type": "uint256"
        }
      ],
      "stateMutability": "view",
      "type": "function"
    },
    {
      "inputs": [
        {
          "internalType": "uint256",
          "name": "id",
          "type": "uint256"
        }
      ],
      "name": "principal",
      "outputs": [
        {
          "internalType": "uint256",
          "name": "",
          "type": "uint256"
        }
      ],
      "stateMutability": "view",
      "type": "function"
    },
    {
      "inputs": [
        {
          "internalType": "uint256",
          "name": "id",
          "type": "uint256"
        }
      ],
      "name": "principalWithInterest",
      "outputs": [
        {
          "internalType": "uint256",
          "name": "",
          "type": "uint256"
        }
      ],
      "stateMutability": "view",
      "type": "function"
    },
    {
      "inputs": [
        {
          "internalType": "uint256",
          "name": "id",
          "type": "uint256"
        },
        {
          "internalType": "uint256",
          "name": "bondQuantity",
          "type": "uint256"
        }
      ],
      "name": "purchase",
      "outputs": [],
      "stateMutability": "nonpayable",
      "type": "function"
    },
    {
      "inputs": [
        {
          "internalType": "uint256",
          "name": "id",
          "type": "uint256"
        },
        {
          "internalType": "uint256",
          "name": "bondQuantity",
          "type": "uint256"
        }
      ],
      "name": "redeem",
      "outputs": [],
      "stateMutability": "nonpayable",
      "type": "function"
    },
    {
      "inputs": [
        {
          "internalType": "uint256",
          "name": "id",
          "type": "uint256"
        },
        {
          "internalType": "uint256",
          "name": "bondQuantity",
          "type": "uint256"
        }
      ],
      "name": "redeemCanceled",
      "outputs": [],
      "stateMutability": "nonpayable",
      "type": "function"
    },
    {
      "inputs": [
        {
          "internalType": "uint256",
          "name": "id",
          "type": "uint256"
        },
        {
          "internalType": "uint256",
          "name": "bondQuantity",
          "type": "uint256"
        }
      ],
      "name": "redeemDefaulted",
      "outputs": [],
      "stateMutability": "nonpayable",
      "type": "function"
    },
    {
      "inputs": [
        {
          "internalType": "uint256",
          "name": "id",
          "type": "uint256"
        }
      ],
      "name": "remainingQuantity",
      "outputs": [
        {
          "internalType": "uint256",
          "name": "",
          "type": "uint256"
        }
      ],
      "stateMutability": "view",
      "type": "function"
    },
    {
      "inputs": [
        {
          "internalType": "address",
          "name": "from",
          "type": "address"
        },
        {
          "internalType": "address",
          "name": "to",
          "type": "address"
        },
        {
          "internalType": "uint256[]",
          "name": "ids",
          "type": "uint256[]"
        },
        {
          "internalType": "uint256[]",
          "name": "amounts",
          "type": "uint256[]"
        },
        {
          "internalType": "bytes",
          "name": "data",
          "type": "bytes"
        }
      ],
      "name": "safeBatchTransferFrom",
      "outputs": [],
      "stateMutability": "nonpayable",
      "type": "function"
    },
    {
      "inputs": [
        {
          "internalType": "address",
          "name": "from",
          "type": "address"
        },
        {
          "internalType": "address",
          "name": "to",
          "type": "address"
        },
        {
          "internalType": "uint256",
          "name": "id",
          "type": "uint256"
        },
        {
          "internalType": "uint256",
          "name": "amount",
          "type": "uint256"
        },
        {
          "internalType": "bytes",
          "name": "data",
          "type": "bytes"
        }
      ],
      "name": "safeTransferFrom",
      "outputs": [],
      "stateMutability": "nonpayable",
      "type": "function"
    },
    {
      "inputs": [
        {
          "internalType": "address",
          "name": "operator",
          "type": "address"
        },
        {
          "internalType": "bool",
          "name": "approved",
          "type": "bool"
        }
      ],
      "name": "setApprovalForAll",
      "outputs": [],
      "stateMutability": "nonpayable",
      "type": "function"
    },
    {
      "inputs": [
        {
          "internalType": "bytes4",
          "name": "interfaceId",
          "type": "bytes4"
        }
      ],
      "name": "supportsInterface",
      "outputs": [
        {
          "internalType": "bool",
          "name": "",
          "type": "bool"
        }
      ],
      "stateMutability": "view",
      "type": "function"
    },
    {
      "inputs": [
        {
          "internalType": "uint256",
          "name": "id",
          "type": "uint256"
        }
      ],
      "name": "timeElapsed",
      "outputs": [
        {
          "internalType": "uint256",
          "name": "",
          "type": "uint256"
        }
      ],
      "stateMutability": "view",
      "type": "function"
    },
    {
      "inputs": [
        {
          "internalType": "uint256",
          "name": "id",
          "type": "uint256"
        }
      ],
      "name": "timeRemainingToEndOfActive",
      "outputs": [
        {
          "internalType": "uint256",
          "name": "",
          "type": "uint256"
        }
      ],
      "stateMutability": "view",
      "type": "function"
    },
    {
      "inputs": [
        {
          "internalType": "uint256",
          "name": "id",
          "type": "uint256"
        }
      ],
      "name": "timeRemainingToMaturity",
      "outputs": [
        {
          "internalType": "uint256",
          "name": "",
          "type": "uint256"
        }
      ],
      "stateMutability": "view",
      "type": "function"
    },
    {
      "inputs": [],
      "name": "tvl",
      "outputs": [
        {
          "internalType": "uint256",
          "name": "",
          "type": "uint256"
        }
      ],
      "stateMutability": "view",
      "type": "function"
    },
    {
      "inputs": [
        {
          "internalType": "uint256",
          "name": "",
          "type": "uint256"
        }
      ],
      "name": "uri",
      "outputs": [
        {
          "internalType": "string",
          "name": "",
          "type": "string"
        }
      ],
      "stateMutability": "view",
      "type": "function"
    },
    {
      "inputs": [
        {
          "internalType": "uint256",
          "name": "id",
          "type": "uint256"
        },
        {
          "internalType": "uint256",
          "name": "tokenAmount",
          "type": "uint256"
        }
      ],
      "name": "withdraw",
      "outputs": [],
      "stateMutability": "nonpayable",
      "type": "function"
    },
    {
      "inputs": [
        {
          "internalType": "uint256",
          "name": "id",
          "type": "uint256"
        }
      ],
      "name": "withdrawExcess",
      "outputs": [],
      "stateMutability": "nonpayable",
      "type": "function"
    }
  ],
  "bytecode": "0x60c060405260006003553480156200001657600080fd5b506040516200680f3803806200680f83398181016040528101906200003c9190620002d3565b828282826200005181620000c660201b60201c565b508073ffffffffffffffffffffffffffffffffffffffff1660808173ffffffffffffffffffffffffffffffffffffffff16815250508173ffffffffffffffffffffffffffffffffffffffff1660a08173ffffffffffffffffffffffffffffffffffffffff168152505050505050505062000680565b8060029081620000d7919062000599565b5050565b6000604051905090565b600080fd5b600080fd5b600080fd5b600080fd5b6000601f19601f8301169050919050565b7f4e487b7100000000000000000000000000000000000000000000000000000000600052604160045260246000fd5b6200014482620000f9565b810181811067ffffffffffffffff821117156200016657620001656200010a565b5b80604052505050565b60006200017b620000db565b905062000189828262000139565b919050565b600067ffffffffffffffff821115620001ac57620001ab6200010a565b5b620001b782620000f9565b9050602081019050919050565b60005b83811015620001e4578082015181840152602081019050620001c7565b60008484015250505050565b60006200020762000201846200018e565b6200016f565b905082815260208101848484011115620002265762000225620000f4565b5b62000233848285620001c4565b509392505050565b600082601f830112620002535762000252620000ef565b5b815162000265848260208601620001f0565b91505092915050565b600073ffffffffffffffffffffffffffffffffffffffff82169050919050565b60006200029b826200026e565b9050919050565b620002ad816200028e565b8114620002b957600080fd5b50565b600081519050620002cd81620002a2565b92915050565b600080600060608486031215620002ef57620002ee620000e5565b5b600084015167ffffffffffffffff81111562000310576200030f620000ea565b5b6200031e868287016200023b565b93505060206200033186828701620002bc565b92505060406200034486828701620002bc565b9150509250925092565b600081519050919050565b7f4e487b7100000000000000000000000000000000000000000000000000000000600052602260045260246000fd5b60006002820490506001821680620003a157607f821691505b602082108103620003b757620003b662000359565b5b50919050565b60008190508160005260206000209050919050565b60006020601f8301049050919050565b600082821b905092915050565b600060088302620004217fffffffffffffffffffffffffffffffffffffffffffffffffffffffffffffffff82620003e2565b6200042d8683620003e2565b95508019841693508086168417925050509392505050565b6000819050919050565b6000819050919050565b60006200047a620004746200046e8462000445565b6200044f565b62000445565b9050919050565b6000819050919050565b620004968362000459565b620004ae620004a58262000481565b848454620003ef565b825550505050565b600090565b620004c5620004b6565b620004d28184846200048b565b505050565b5b81811015620004fa57620004ee600082620004bb565b600181019050620004d8565b5050565b601f82111562000549576200051381620003bd565b6200051e84620003d2565b810160208510156200052e578190505b620005466200053d85620003d2565b830182620004d7565b50505b505050565b600082821c905092915050565b60006200056e600019846008026200054e565b1980831691505092915050565b60006200058983836200055b565b9150826002028217905092915050565b620005a4826200034e565b67ffffffffffffffff811115620005c057620005bf6200010a565b5b620005cc825462000388565b620005d9828285620004fe565b600060209050601f831160018114620006115760008415620005fc578287015190505b6200060885826200057b565b86555062000678565b601f1984166200062186620003bd565b60005b828110156200064b5784890151825560018201915060208501945060208101905062000624565b868310156200066b578489015162000667601f8916826200055b565b8355505b6001600288020188555050505b505050505050565b60805160a05161610762000708600039600081816111f901528181611668015281816118b501528181611dd001528181611f9d0152818161217a015281816123c0015281816124c0015281816126730152818161271a015261290f015260008181610fb701528181611b6c01528181612519015281816127b90152612b1801526161076000f3fe608060405234801561001057600080fd5b506004361061027e5760003560e01c806388bdc0831161015c578063b09f2b1c116100ce578063e5328e0611610087578063e5328e06146108ca578063e755ddd7146108e8578063e985e9c514610904578063f0d8100a14610934578063f242432a14610964578063fcbc669a146109805761027e565b8063b09f2b1c146107f8578063c0a6026c14610814578063c365301014610830578063c55dae6314610860578063d3b7811b1461087e578063e2bbb158146108ae5761027e565b8063932a8de011610120578063932a8de014610714578063a22cb46514610744578063a53e17b014610760578063a874302214610790578063a996ef08146107ac578063abac75e1146107c85761027e565b806388bdc0831461062d57806389c2bb1f1461065d5780638c3526c21461068d5780638da5cb5b146106c65780638f0dbf77146106e45761027e565b806339e3af9b116101f55780636ff80d93116101b95780636ff80d931461053557806370876c981461056557806377e2a08b146105815780637a41984b146105b15780637cbc2373146105e157806382afd23b146105fd5761027e565b806339e3af9b1461046b578063441a3e701461049b5780634e1273f4146104b7578063549493bb146104e75780636681b9fd146105175761027e565b80630e89341c116102475780630e89341c1461037357806314f29493146103a35780632b096926146103d35780632eb2c2d6146103ef5780632f3ad61f1461040b5780633097afb81461043b5761027e565b8062fdd58e1461028357806301ffc9a7146102b357806302159497146102e357806308913ce8146103135780630914902014610343575b600080fd5b61029d60048036038101906102989190613e8a565b6109b0565b6040516102aa9190613ed9565b60405180910390f35b6102cd60048036038101906102c89190613f4c565b610a78565b6040516102da9190613f94565b60405180910390f35b6102fd60048036038101906102f89190613faf565b610b5a565b60405161030a9190613ed9565b60405180910390f35b61032d60048036038101906103289190613faf565b610b77565b60405161033a9190613ed9565b60405180910390f35b61035d60048036038101906103589190613faf565b610ba2565b60405161036a9190613f94565b60405180910390f35b61038d60048036038101906103889190613faf565b610bd8565b60405161039a919061406c565b60405180910390f35b6103bd60048036038101906103b89190613faf565b610c6c565b6040516103ca9190613ed9565b60405180910390f35b6103ed60048036038101906103e89190613faf565b610caa565b005b6104096004803603810190610404919061428b565b610e8c565b005b61042560048036038101906104209190613faf565b610f2d565b6040516104329190613f94565b60405180910390f35b61045560048036038101906104509190613faf565b610f57565b6040516104629190613f94565b60405180910390f35b61048560048036038101906104809190613faf565b610f90565b6040516104929190613f94565b60405180910390f35b6104b560048036038101906104b0919061435a565b610fb5565b005b6104d160048036038101906104cc919061445d565b61129a565b6040516104de9190614593565b60405180910390f35b61050160048036038101906104fc9190613faf565b6113b3565b60405161050e9190613f94565b60405180910390f35b61051f6113e5565b60405161052c9190613ed9565b60405180910390f35b61054f600480360381019061054a9190613faf565b6113ef565b60405161055c9190613f94565b60405180910390f35b61057f600480360381019061057a919061435a565b611427565b005b61059b60048036038101906105969190613faf565b61170d565b6040516105a89190613ed9565b60405180910390f35b6105cb60048036038101906105c69190613faf565b61179d565b6040516105d89190613f94565b60405180910390f35b6105fb60048036038101906105f6919061435a565b6117c7565b005b61061760048036038101906106129190613faf565b611981565b6040516106249190613f94565b60405180910390f35b61064760048036038101906106429190613faf565b6119a4565b6040516106549190613ed9565b60405180910390f35b61067760048036038101906106729190613faf565b6119d7565b6040516106849190613ed9565b60405180910390f35b6106a760048036038101906106a29190613faf565b6119f4565b6040516106bd9a999897969594939291906145b5565b60405180910390f35b6106ce611b68565b6040516106db9190614667565b60405180910390f35b6106fe60048036038101906106f99190613faf565b611b90565b60405161070b9190613f94565b60405180910390f35b61072e60048036038101906107299190613faf565b611bb2565b60405161073b9190613ed9565b60405180910390f35b61075e600480360381019061075991906146ae565b611bf0565b005b61077a60048036038101906107759190613faf565b611c06565b6040516107879190613f94565b60405180910390f35b6107aa60048036038101906107a59190613faf565b611c30565b005b6107c660048036038101906107c1919061435a565b611eaf565b005b6107e260048036038101906107dd9190613faf565b612069565b6040516107ef9190613ed9565b60405180910390f35b610812600480360381019061080d919061435a565b612089565b005b61082e60048036038101906108299190613faf565b612246565b005b61084a60048036038101906108459190613faf565b61249f565b6040516108579190613ed9565b60405180910390f35b6108686124bc565b6040516108759190614667565b60405180910390f35b61089860048036038101906108939190613faf565b6124e4565b6040516108a59190613ed9565b60405180910390f35b6108c860048036038101906108c3919061435a565b612517565b005b6108d2612716565b6040516108df9190613ed9565b60405180910390f35b61090260048036038101906108fd9190613faf565b6127b7565b005b61091e600480360381019061091991906146ee565b6129c2565b60405161092b9190613f94565b60405180910390f35b61094e60048036038101906109499190613faf565b612a56565b60405161095b9190613ed9565b60405180910390f35b61097e6004803603810190610979919061472e565b612a73565b005b61099a60048036038101906109959190614820565b612b14565b6040516109a79190613ed9565b60405180910390f35b60008073ffffffffffffffffffffffffffffffffffffffff168373ffffffffffffffffffffffffffffffffffffffff1603610a20576040517f08c379a0000000000000000000000000000000000000000000000000000000008152600401610a1790614954565b60405180910390fd5b60008083815260200190815260200160002060008473ffffffffffffffffffffffffffffffffffffffff1673ffffffffffffffffffffffffffffffffffffffff16815260200190815260200160002054905092915050565b60007fd9b67a26000000000000000000000000000000000000000000000000000000007bffffffffffffffffffffffffffffffffffffffffffffffffffffffff1916827bffffffffffffffffffffffffffffffffffffffffffffffffffffffff19161480610b4357507f0e89341c000000000000000000000000000000000000000000000000000000007bffffffffffffffffffffffffffffffffffffffffffffffffffffffff1916827bffffffffffffffffffffffffffffffffffffffffffffffffffffffff1916145b80610b535750610b5282612df7565b5b9050919050565b600060086000838152602001908152602001600020549050919050565b6000600560008381526020019081526020016000206002015442610b9b91906149a3565b9050919050565b60006005600083815260200190815260200160002060080154600660008481526020019081526020016000205410159050919050565b606060028054610be790614a06565b80601f0160208091040260200160405190810160405280929190818152602001828054610c1390614a06565b8015610c605780601f10610c3557610100808354040283529160200191610c60565b820191906000526020600020905b815481529060010190602001808311610c4357829003601f168201915b50505050509050919050565b600060066000838152602001908152602001600020546005600084815260200190815260200160002060010154610ca39190614a37565b9050919050565b610cb38161179d565b15610cf3576040517f08c379a0000000000000000000000000000000000000000000000000000000008152600401610cea90614ac5565b60405180910390fd5b62015180600d600083815260200190815260200160002054610d159190614a37565b610d1e82610b77565b11610d5e576040517f08c379a0000000000000000000000000000000000000000000000000000000008152600401610d5590614b57565b60405180910390fd5b620151806005600083815260200190815260200160002060060154610d839190614a37565b610d8c82610b77565b6005600084815260200190815260200160002060090154610dad9190614a37565b610db79190614ba6565b600e6000838152602001908152602001600020819055506001600f600083815260200190815260200160002060006101000a81548160ff0219169083151502179055506001600c600083815260200190815260200160002060006101000a81548160ff021916908315150217905550807fb580a16317cf9efa50cf987c976c3fb7de7eaf3149b9dd5b8a576a043042f44c6005600084815260200190815260200160002060090154600e600085815260200190815260200160002054604051610e81929190614bd7565b60405180910390a250565b610e94612e61565b73ffffffffffffffffffffffffffffffffffffffff168573ffffffffffffffffffffffffffffffffffffffff161480610eda5750610ed985610ed4612e61565b6129c2565b5b610f19576040517f08c379a0000000000000000000000000000000000000000000000000000000008152600401610f1090614c72565b60405180910390fd5b610f268585858585612e69565b5050505050565b6000600b600083815260200190815260200160002060009054906101000a900460ff169050919050565b6000610f6282611b90565b8015610f895750610f728261170d565b600860008481526020019081526020016000205410155b9050919050565b6000610f9b82611981565b158015610fae5750610fac82610ba2565b155b9050919050565b7f000000000000000000000000000000000000000000000000000000000000000073ffffffffffffffffffffffffffffffffffffffff163373ffffffffffffffffffffffffffffffffffffffff1614611043576040517f08c379a000000000000000000000000000000000000000000000000000000000815260040161103a90614cde565b60405180910390fd5b61104c82611981565b1561108c576040517f08c379a000000000000000000000000000000000000000000000000000000000815260040161108390614d4a565b60405180910390fd5b61109582610f90565b156110d5576040517f08c379a00000000000000000000000000000000000000000000000000000000081526004016110cc90614d4a565b60405180910390fd5b6110de8261179d565b1561111e576040517f08c379a000000000000000000000000000000000000000000000000000000000815260040161111590614ddc565b60405180910390fd5b61112782610f2d565b806111375750611136826113ef565b5b15611177576040517f08c379a000000000000000000000000000000000000000000000000000000000815260040161116e90614e6e565b60405180910390fd5b60086000838152602001908152602001600020548111156111cd576040517f08c379a00000000000000000000000000000000000000000000000000000000081526004016111c490614f00565b60405180910390fd5b806008600084815260200190815260200160002060008282546111f091906149a3565b925050819055507f000000000000000000000000000000000000000000000000000000000000000073ffffffffffffffffffffffffffffffffffffffff1663a9059cbb33836040518363ffffffff1660e01b8152600401611252929190614f20565b6020604051808303816000875af1158015611271573d6000803e3d6000fd5b505050506040513d601f19601f820116820180604052508101906112959190614f5e565b505050565b606081518351146112e0576040517f08c379a00000000000000000000000000000000000000000000000000000000081526004016112d790614ffd565b60405180910390fd5b6000835167ffffffffffffffff8111156112fd576112fc614093565b5b60405190808252806020026020018201604052801561132b5781602001602082028036833780820191505090505b50905060005b84518110156113a8576113788582815181106113505761134f61501d565b5b602002602001015185838151811061136b5761136a61501d565b5b60200260200101516109b0565b82828151811061138b5761138a61501d565b5b602002602001018181525050806113a19061504c565b9050611331565b508091505092915050565b600060066000838152602001908152602001600020546007600084815260200190815260200160002054149050919050565b6000600454905090565b60006113fa82611b90565b8015611420575061140a8261170d565b6008600084815260200190815260200160002054105b9050919050565b61143082611981565b61146f576040517f08c379a0000000000000000000000000000000000000000000000000000000008152600401611466906150e0565b60405180910390fd5b8061147983611bb2565b10156114ba576040517f08c379a00000000000000000000000000000000000000000000000000000000081526004016114b190615172565b60405180910390fd5b600060056000848152602001908152602001600020604051806101400160405290816000820180546114eb90614a06565b80601f016020809104026020016040519081016040528092919081815260200182805461151790614a06565b80156115645780601f1061153957610100808354040283529160200191611564565b820191906000526020600020905b81548152906001019060200180831161154757829003601f168201915b505050505081526020016001820154815260200160028201548152602001600382015481526020016004820154815260200160058201548152602001600682015481526020016007820154815260200160088201548152602001600982015481525050905060008160200151836115db9190614a37565b9050826006600086815260200190815260200160002060008282546116009190615192565b925050819055508060086000868152602001908152602001600020600082825461162a9190615192565b9250508190555080600460008282546116439190615192565b925050819055506116663033868660405180602001604052806000815250612a73565b7f000000000000000000000000000000000000000000000000000000000000000073ffffffffffffffffffffffffffffffffffffffff166323b872dd3330846040518463ffffffff1660e01b81526004016116c3939291906151c6565b6020604051808303816000875af11580156116e2573d6000803e3d6000fd5b505050506040513d601f19601f820116820180604052508101906117069190614f5e565b5050505050565b60008060056000848152602001908152602001600020600901549050600f600084815260200190815260200160002060009054906101000a900460ff161561175b57611758836119d7565b90505b670de0b6b3a76400008161176e85610c6c565b6117789190614a37565b6117829190614ba6565b61178b84610c6c565b6117959190615192565b915050919050565b6000600c600083815260200190815260200160002060009054906101000a900460ff169050919050565b6117d08261179d565b61180f576040517f08c379a000000000000000000000000000000000000000000000000000000000815260040161180690615249565b60405180910390fd5b8061181a33846109b0565b101561185b576040517f08c379a0000000000000000000000000000000000000000000000000000000008152600401611852906152b5565b60405180910390fd5b61186633838361318a565b806007600084815260200190815260200160002060008282546118899190615192565b925050819055506000600a600084815260200190815260200160002054826118b19190614a37565b90507f000000000000000000000000000000000000000000000000000000000000000073ffffffffffffffffffffffffffffffffffffffff1663a9059cbb33836040518363ffffffff1660e01b815260040161190e929190614f20565b6020604051808303816000875af115801561192d573d6000803e3d6000fd5b505050506040513d601f19601f820116820180604052508101906119519190614f5e565b508060086000858152602001908152602001600020600082825461197591906149a3565b92505081905550505050565b600060056000838152602001908152602001600020600401544211159050919050565b60006119af82610b77565b60056000848152602001908152602001600020600501546119d091906149a3565b9050919050565b6000600e6000838152602001908152602001600020549050919050565b6060600080600080600080600080600080600560008d815260200190815260200160002060405180610140016040529081600082018054611a3490614a06565b80601f0160208091040260200160405190810160405280929190818152602001828054611a6090614a06565b8015611aad5780601f10611a8257610100808354040283529160200191611aad565b820191906000526020600020905b815481529060010190602001808311611a9057829003601f168201915b5050505050815260200160018201548152602001600282015481526020016003820154815260200160048201548152602001600582015481526020016006820154815260200160078201548152602001600882015481526020016009820154815250509050806000015181602001518260400151836060015184608001518560a001518660c001518760e001518861010001518961012001519a509a509a509a509a509a509a509a509a509a50509193959799509193959799565b60007f0000000000000000000000000000000000000000000000000000000000000000905090565b6000600560008381526020019081526020016000206003015442119050919050565b600060066000838152602001908152602001600020546005600084815260200190815260200160002060070154611be991906149a3565b9050919050565b611c02611bfb612e61565b83836133d0565b5050565b6000600f600083815260200190815260200160002060009054906101000a900460ff169050919050565b611c398161179d565b158015611c4c5750611c4a81610f2d565b155b8015611c5d5750611c5c816113ef565b5b611c9c576040517f08c379a0000000000000000000000000000000000000000000000000000000008152600401611c9390615321565b60405180910390fd5b6000611ca78261170d565b905060006103e86008600085815260200190815260200160002054611ccc9190614ba6565b90506000816008600086815260200190815260200160002054611cef91906149a3565b9050600660008581526020019081526020016000205481611d109190614ba6565b6009600086815260200190815260200160002081905550600060066000868152602001908152602001600020546009600087815260200190815260200160002054611d5b9190614a37565b82611d6691906149a3565b905060008184611d769190615192565b905080600860008881526020019081526020016000206000828254611d9b91906149a3565b925050819055506001600b600088815260200190815260200160002060006101000a81548160ff0219169083151502179055507f000000000000000000000000000000000000000000000000000000000000000073ffffffffffffffffffffffffffffffffffffffff1663a9059cbb33836040518363ffffffff1660e01b8152600401611e29929190614f20565b6020604051808303816000875af1158015611e48573d6000803e3d6000fd5b505050506040513d601f19601f82011682018060405250810190611e6c9190614f5e565b50857fc4f17a65d54873d57229ea5f59c4ddec592d095bc17581372676402c8228b9cd8685604051611e9f929190614bd7565b60405180910390a2505050505050565b611eb882610f2d565b611ef7576040517f08c379a0000000000000000000000000000000000000000000000000000000008152600401611eee90615321565b60405180910390fd5b80611f0233846109b0565b1015611f43576040517f08c379a0000000000000000000000000000000000000000000000000000000008152600401611f3a906152b5565b60405180910390fd5b611f4e33838361318a565b80600760008481526020019081526020016000206000828254611f719190615192565b925050819055506000600960008481526020019081526020016000205482611f999190614a37565b90507f000000000000000000000000000000000000000000000000000000000000000073ffffffffffffffffffffffffffffffffffffffff1663a9059cbb33836040518363ffffffff1660e01b8152600401611ff6929190614f20565b6020604051808303816000875af1158015612015573d6000803e3d6000fd5b505050506040513d601f19601f820116820180604052508101906120399190614f5e565b508060086000858152602001908152602001600020600082825461205d91906149a3565b92505081905550505050565b600060056000838152602001908152602001600020600901549050919050565b61209282610f90565b6120d1576040517f08c379a00000000000000000000000000000000000000000000000000000000081526004016120c89061538d565b60405180910390fd5b806120dc33846109b0565b101561211d576040517f08c379a0000000000000000000000000000000000000000000000000000000008152600401612114906152b5565b60405180910390fd5b61212833838361318a565b8060076000848152602001908152602001600020600082825461214b9190615192565b9250508190555060006005600084815260200190815260200160002060010154826121769190614a37565b90507f000000000000000000000000000000000000000000000000000000000000000073ffffffffffffffffffffffffffffffffffffffff1663a9059cbb33836040518363ffffffff1660e01b81526004016121d3929190614f20565b6020604051808303816000875af11580156121f2573d6000803e3d6000fd5b505050506040513d601f19601f820116820180604052508101906122169190614f5e565b508060086000858152602001908152602001600020600082825461223a91906149a3565b92505081905550505050565b61224f81610f2d565b15801561226257506122608161179d565b155b8015612273575061227281610f57565b5b6122b2576040517f08c379a00000000000000000000000000000000000000000000000000000000081526004016122a9906153f9565b60405180910390fd5b60006122bd8261170d565b905060006103e8826122cf9190614ba6565b9050600081836122df91906149a3565b90506006600085815260200190815260200160002054816123009190614ba6565b600a60008681526020019081526020016000208190555060006006600086815260200190815260200160002054600a60008781526020019081526020016000205461234b9190614a37565b8261235691906149a3565b9050600081846123669190615192565b90508060086000888152602001908152602001600020600082825461238b91906149a3565b925050819055506001600c600088815260200190815260200160002060006101000a81548160ff0219169083151502179055507f000000000000000000000000000000000000000000000000000000000000000073ffffffffffffffffffffffffffffffffffffffff1663a9059cbb33836040518363ffffffff1660e01b8152600401612419929190614f20565b6020604051808303816000875af1158015612438573d6000803e3d6000fd5b505050506040513d601f19601f8201168201806040525081019061245c9190614f5e565b50857fac2eeaf45d1b75aed6b3285cda3efb3c382cce02ba313558bbb90be57f8843e4868560405161248f929190614bd7565b60405180910390a2505050505050565b6000600d6000838152602001908152602001600020549050919050565b60007f0000000000000000000000000000000000000000000000000000000000000000905090565b60006124ef82610b77565b600560008481526020019081526020016000206006015461251091906149a3565b9050919050565b7f000000000000000000000000000000000000000000000000000000000000000073ffffffffffffffffffffffffffffffffffffffff163373ffffffffffffffffffffffffffffffffffffffff16146125a5576040517f08c379a000000000000000000000000000000000000000000000000000000000815260040161259c90614cde565b60405180910390fd5b6125ae82610f2d565b806125be57506125bd826113ef565b5b156125fe576040517f08c379a00000000000000000000000000000000000000000000000000000000081526004016125f590615465565b60405180910390fd5b6126078261179d565b15612647576040517f08c379a000000000000000000000000000000000000000000000000000000000815260040161263e906154d1565b60405180910390fd5b8060086000848152602001908152602001600020600082825461266a9190615192565b925050819055507f000000000000000000000000000000000000000000000000000000000000000073ffffffffffffffffffffffffffffffffffffffff166323b872dd3330846040518463ffffffff1660e01b81526004016126ce939291906151c6565b6020604051808303816000875af11580156126ed573d6000803e3d6000fd5b505050506040513d601f19601f820116820180604052508101906127119190614f5e565b505050565b60007f000000000000000000000000000000000000000000000000000000000000000073ffffffffffffffffffffffffffffffffffffffff166370a08231306040518263ffffffff1660e01b81526004016127719190614667565b602060405180830381865afa15801561278e573d6000803e3d6000fd5b505050506040513d601f19601f820116820180604052508101906127b29190615506565b905090565b7f000000000000000000000000000000000000000000000000000000000000000073ffffffffffffffffffffffffffffffffffffffff163373ffffffffffffffffffffffffffffffffffffffff1614612845576040517f08c379a000000000000000000000000000000000000000000000000000000000815260040161283c90614cde565b60405180910390fd5b61284e8161179d565b801561285f575061285e816113b3565b5b61289e576040517f08c379a00000000000000000000000000000000000000000000000000000000081526004016128959061557f565b60405180910390fd5b60006008600083815260200190815260200160002054116128f4576040517f08c379a00000000000000000000000000000000000000000000000000000000081526004016128eb906155eb565b60405180910390fd5b600060086000838152602001908152602001600020819055507f000000000000000000000000000000000000000000000000000000000000000073ffffffffffffffffffffffffffffffffffffffff1663a9059cbb3360086000858152602001908152602001600020546040518363ffffffff1660e01b815260040161297b929190614f20565b6020604051808303816000875af115801561299a573d6000803e3d6000fd5b505050506040513d601f19601f820116820180604052508101906129be9190614f5e565b5050565b6000600160008473ffffffffffffffffffffffffffffffffffffffff1673ffffffffffffffffffffffffffffffffffffffff16815260200190815260200160002060008373ffffffffffffffffffffffffffffffffffffffff1673ffffffffffffffffffffffffffffffffffffffff16815260200190815260200160002060009054906101000a900460ff16905092915050565b600060086000838152602001908152602001600020549050919050565b612a7b612e61565b73ffffffffffffffffffffffffffffffffffffffff168573ffffffffffffffffffffffffffffffffffffffff161480612ac15750612ac085612abb612e61565b6129c2565b5b612b00576040517f08c379a0000000000000000000000000000000000000000000000000000000008152600401612af790614c72565b60405180910390fd5b612b0d858585858561353c565b5050505050565b60007f000000000000000000000000000000000000000000000000000000000000000073ffffffffffffffffffffffffffffffffffffffff163373ffffffffffffffffffffffffffffffffffffffff1614612ba4576040517f08c379a0000000000000000000000000000000000000000000000000000000008152600401612b9b90614cde565b60405180910390fd5b838310612be6576040517f08c379a0000000000000000000000000000000000000000000000000000000008152600401612bdd9061567d565b60405180910390fd5b6001600354612bf59190615192565b9050600160036000828254612c0a9190615192565b92505081905550612c2c33828b604051806020016040528060008152506137d7565b60405180610140016040528087878080601f016020809104026020016040519081016040528093929190818152602001838380828437600081840152601f19601f8201169050808301925050505050505081526020018881526020014281526020016201518086612c9d9190614a37565b42612ca89190615192565b81526020016201518085612cbc9190614a37565b42612cc79190615192565b81526020018481526020018581526020018a815260200189815260200183815250600560008381526020019081526020016000206000820151816000019081612d109190615849565b506020820151816001015560408201518160020155606082015181600301556080820151816004015560a0820151816005015560c0820151816006015560e0820151816007015561010082015181600801556101208201518160090155905050600284612d7d9190614ba6565b600d600083815260200190815260200160002081905550807ff73e436c94925e1e8b2f0b16de0a2c56aea7fb27878f7815811bc05bc6c335e88a89856201518089612dc89190614a37565b42612dd39190615192565b604051612de3949392919061591b565b60405180910390a298975050505050505050565b60007f01ffc9a7000000000000000000000000000000000000000000000000000000007bffffffffffffffffffffffffffffffffffffffffffffffffffffffff1916827bffffffffffffffffffffffffffffffffffffffffffffffffffffffff1916149050919050565b600033905090565b8151835114612ead576040517f08c379a0000000000000000000000000000000000000000000000000000000008152600401612ea4906159d2565b60405180910390fd5b600073ffffffffffffffffffffffffffffffffffffffff168473ffffffffffffffffffffffffffffffffffffffff1603612f1c576040517f08c379a0000000000000000000000000000000000000000000000000000000008152600401612f1390615a64565b60405180910390fd5b6000612f26612e61565b9050612f36818787878787613987565b60005b84518110156130e7576000858281518110612f5757612f5661501d565b5b602002602001015190506000858381518110612f7657612f7561501d565b5b60200260200101519050600080600084815260200190815260200160002060008b73ffffffffffffffffffffffffffffffffffffffff1673ffffffffffffffffffffffffffffffffffffffff16815260200190815260200160002054905081811015613017576040517f08c379a000000000000000000000000000000000000000000000000000000000815260040161300e90615af6565b60405180910390fd5b81810360008085815260200190815260200160002060008c73ffffffffffffffffffffffffffffffffffffffff1673ffffffffffffffffffffffffffffffffffffffff168152602001908152602001600020819055508160008085815260200190815260200160002060008b73ffffffffffffffffffffffffffffffffffffffff1673ffffffffffffffffffffffffffffffffffffffff16815260200190815260200160002060008282546130cc9190615192565b92505081905550505050806130e09061504c565b9050612f39565b508473ffffffffffffffffffffffffffffffffffffffff168673ffffffffffffffffffffffffffffffffffffffff168273ffffffffffffffffffffffffffffffffffffffff167f4a39dc06d4c0dbc64b70af90fd698a233a518aa5d07e595d983b8c0526c8f7fb878760405161315e929190615b16565b60405180910390a461317481878787878761398f565b613182818787878787613997565b505050505050565b600073ffffffffffffffffffffffffffffffffffffffff168373ffffffffffffffffffffffffffffffffffffffff16036131f9576040517f08c379a00000000000000000000000000000000000000000000000000000000081526004016131f090615bbf565b60405180910390fd5b6000613203612e61565b9050600061321084613b6e565b9050600061321d84613b6e565b905061323d83876000858560405180602001604052806000815250613987565b600080600087815260200190815260200160002060008873ffffffffffffffffffffffffffffffffffffffff1673ffffffffffffffffffffffffffffffffffffffff168152602001908152602001600020549050848110156132d4576040517f08c379a00000000000000000000000000000000000000000000000000000000081526004016132cb90615c51565b60405180910390fd5b84810360008088815260200190815260200160002060008973ffffffffffffffffffffffffffffffffffffffff1673ffffffffffffffffffffffffffffffffffffffff16815260200190815260200160002081905550600073ffffffffffffffffffffffffffffffffffffffff168773ffffffffffffffffffffffffffffffffffffffff168573ffffffffffffffffffffffffffffffffffffffff167fc3d58168c5ae7397731d063d5bbf3d657854427343f4c083240f7aacaa2d0f6289896040516133a1929190614bd7565b60405180910390a46133c78488600086866040518060200160405280600081525061398f565b50505050505050565b8173ffffffffffffffffffffffffffffffffffffffff168373ffffffffffffffffffffffffffffffffffffffff160361343e576040517f08c379a000000000000000000000000000000000000000000000000000000000815260040161343590615ce3565b60405180910390fd5b80600160008573ffffffffffffffffffffffffffffffffffffffff1673ffffffffffffffffffffffffffffffffffffffff16815260200190815260200160002060008473ffffffffffffffffffffffffffffffffffffffff1673ffffffffffffffffffffffffffffffffffffffff16815260200190815260200160002060006101000a81548160ff0219169083151502179055508173ffffffffffffffffffffffffffffffffffffffff168373ffffffffffffffffffffffffffffffffffffffff167f17307eab39ab6107e8899845ad3d59bd9653f200f220920489ca2b5937696c318360405161352f9190613f94565b60405180910390a3505050565b600073ffffffffffffffffffffffffffffffffffffffff168473ffffffffffffffffffffffffffffffffffffffff16036135ab576040517f08c379a00000000000000000000000000000000000000000000000000000000081526004016135a290615a64565b60405180910390fd5b60006135b5612e61565b905060006135c285613b6e565b905060006135cf85613b6e565b90506135df838989858589613987565b600080600088815260200190815260200160002060008a73ffffffffffffffffffffffffffffffffffffffff1673ffffffffffffffffffffffffffffffffffffffff16815260200190815260200160002054905085811015613676576040517f08c379a000000000000000000000000000000000000000000000000000000000815260040161366d90615af6565b60405180910390fd5b85810360008089815260200190815260200160002060008b73ffffffffffffffffffffffffffffffffffffffff1673ffffffffffffffffffffffffffffffffffffffff168152602001908152602001600020819055508560008089815260200190815260200160002060008a73ffffffffffffffffffffffffffffffffffffffff1673ffffffffffffffffffffffffffffffffffffffff168152602001908152602001600020600082825461372b9190615192565b925050819055508773ffffffffffffffffffffffffffffffffffffffff168973ffffffffffffffffffffffffffffffffffffffff168573ffffffffffffffffffffffffffffffffffffffff167fc3d58168c5ae7397731d063d5bbf3d657854427343f4c083240f7aacaa2d0f628a8a6040516137a8929190614bd7565b60405180910390a46137be848a8a86868a61398f565b6137cc848a8a8a8a8a613be8565b505050505050505050565b600073ffffffffffffffffffffffffffffffffffffffff168473ffffffffffffffffffffffffffffffffffffffff1603613846576040517f08c379a000000000000000000000000000000000000000000000000000000000815260040161383d90615d75565b60405180910390fd5b6000613850612e61565b9050600061385d85613b6e565b9050600061386a85613b6e565b905061387b83600089858589613987565b8460008088815260200190815260200160002060008973ffffffffffffffffffffffffffffffffffffffff1673ffffffffffffffffffffffffffffffffffffffff16815260200190815260200160002060008282546138da9190615192565b925050819055508673ffffffffffffffffffffffffffffffffffffffff16600073ffffffffffffffffffffffffffffffffffffffff168473ffffffffffffffffffffffffffffffffffffffff167fc3d58168c5ae7397731d063d5bbf3d657854427343f4c083240f7aacaa2d0f628989604051613958929190614bd7565b60405180910390a461396f8360008985858961398f565b61397e83600089898989613be8565b50505050505050565b505050505050565b505050505050565b6139b68473ffffffffffffffffffffffffffffffffffffffff16613dbf565b15613b66578373ffffffffffffffffffffffffffffffffffffffff1663bc197c8187878686866040518663ffffffff1660e01b81526004016139fc959493929190615dea565b6020604051808303816000875af1925050508015613a3857506040513d601f19601f82011682018060405250810190613a359190615e67565b60015b613add57613a44615ea1565b806308c379a003613aa05750613a58615ec3565b80613a635750613aa2565b806040517f08c379a0000000000000000000000000000000000000000000000000000000008152600401613a97919061406c565b60405180910390fd5b505b6040517f08c379a0000000000000000000000000000000000000000000000000000000008152600401613ad490615fc5565b60405180910390fd5b63bc197c8160e01b7bffffffffffffffffffffffffffffffffffffffffffffffffffffffff1916817bffffffffffffffffffffffffffffffffffffffffffffffffffffffff191614613b64576040517f08c379a0000000000000000000000000000000000000000000000000000000008152600401613b5b90616057565b60405180910390fd5b505b505050505050565b60606000600167ffffffffffffffff811115613b8d57613b8c614093565b5b604051908082528060200260200182016040528015613bbb5781602001602082028036833780820191505090505b5090508281600081518110613bd357613bd261501d565b5b60200260200101818152505080915050919050565b613c078473ffffffffffffffffffffffffffffffffffffffff16613dbf565b15613db7578373ffffffffffffffffffffffffffffffffffffffff1663f23a6e6187878686866040518663ffffffff1660e01b8152600401613c4d959493929190616077565b6020604051808303816000875af1925050508015613c8957506040513d601f19601f82011682018060405250810190613c869190615e67565b60015b613d2e57613c95615ea1565b806308c379a003613cf15750613ca9615ec3565b80613cb45750613cf3565b806040517f08c379a0000000000000000000000000000000000000000000000000000000008152600401613ce8919061406c565b60405180910390fd5b505b6040517f08c379a0000000000000000000000000000000000000000000000000000000008152600401613d2590615fc5565b60405180910390fd5b63f23a6e6160e01b7bffffffffffffffffffffffffffffffffffffffffffffffffffffffff1916817bffffffffffffffffffffffffffffffffffffffffffffffffffffffff191614613db5576040517f08c379a0000000000000000000000000000000000000000000000000000000008152600401613dac90616057565b60405180910390fd5b505b505050505050565b6000808273ffffffffffffffffffffffffffffffffffffffff163b119050919050565b6000604051905090565b600080fd5b600080fd5b600073ffffffffffffffffffffffffffffffffffffffff82169050919050565b6000613e2182613df6565b9050919050565b613e3181613e16565b8114613e3c57600080fd5b50565b600081359050613e4e81613e28565b92915050565b6000819050919050565b613e6781613e54565b8114613e7257600080fd5b50565b600081359050613e8481613e5e565b92915050565b60008060408385031215613ea157613ea0613dec565b5b6000613eaf85828601613e3f565b9250506020613ec085828601613e75565b9150509250929050565b613ed381613e54565b82525050565b6000602082019050613eee6000830184613eca565b92915050565b60007fffffffff0000000000000000000000000000000000000000000000000000000082169050919050565b613f2981613ef4565b8114613f3457600080fd5b50565b600081359050613f4681613f20565b92915050565b600060208284031215613f6257613f61613dec565b5b6000613f7084828501613f37565b91505092915050565b60008115159050919050565b613f8e81613f79565b82525050565b6000602082019050613fa96000830184613f85565b92915050565b600060208284031215613fc557613fc4613dec565b5b6000613fd384828501613e75565b91505092915050565b600081519050919050565b600082825260208201905092915050565b60005b83811015614016578082015181840152602081019050613ffb565b60008484015250505050565b6000601f19601f8301169050919050565b600061403e82613fdc565b6140488185613fe7565b9350614058818560208601613ff8565b61406181614022565b840191505092915050565b600060208201905081810360008301526140868184614033565b905092915050565b600080fd5b7f4e487b7100000000000000000000000000000000000000000000000000000000600052604160045260246000fd5b6140cb82614022565b810181811067ffffffffffffffff821117156140ea576140e9614093565b5b80604052505050565b60006140fd613de2565b905061410982826140c2565b919050565b600067ffffffffffffffff82111561412957614128614093565b5b602082029050602081019050919050565b600080fd5b600061415261414d8461410e565b6140f3565b905080838252602082019050602084028301858111156141755761417461413a565b5b835b8181101561419e578061418a8882613e75565b845260208401935050602081019050614177565b5050509392505050565b600082601f8301126141bd576141bc61408e565b5b81356141cd84826020860161413f565b91505092915050565b600080fd5b600067ffffffffffffffff8211156141f6576141f5614093565b5b6141ff82614022565b9050602081019050919050565b82818337600083830152505050565b600061422e614229846141db565b6140f3565b90508281526020810184848401111561424a576142496141d6565b5b61425584828561420c565b509392505050565b600082601f8301126142725761427161408e565b5b813561428284826020860161421b565b91505092915050565b600080600080600060a086880312156142a7576142a6613dec565b5b60006142b588828901613e3f565b95505060206142c688828901613e3f565b945050604086013567ffffffffffffffff8111156142e7576142e6613df1565b5b6142f3888289016141a8565b935050606086013567ffffffffffffffff81111561431457614313613df1565b5b614320888289016141a8565b925050608086013567ffffffffffffffff81111561434157614340613df1565b5b61434d8882890161425d565b9150509295509295909350565b6000806040838503121561437157614370613dec565b5b600061437f85828601613e75565b925050602061439085828601613e75565b9150509250929050565b600067ffffffffffffffff8211156143b5576143b4614093565b5b602082029050602081019050919050565b60006143d96143d48461439a565b6140f3565b905080838252602082019050602084028301858111156143fc576143fb61413a565b5b835b8181101561442557806144118882613e3f565b8452602084019350506020810190506143fe565b5050509392505050565b600082601f8301126144445761444361408e565b5b81356144548482602086016143c6565b91505092915050565b6000806040838503121561447457614473613dec565b5b600083013567ffffffffffffffff81111561449257614491613df1565b5b61449e8582860161442f565b925050602083013567ffffffffffffffff8111156144bf576144be613df1565b5b6144cb858286016141a8565b9150509250929050565b600081519050919050565b600082825260208201905092915050565b6000819050602082019050919050565b61450a81613e54565b82525050565b600061451c8383614501565b60208301905092915050565b6000602082019050919050565b6000614540826144d5565b61454a81856144e0565b9350614555836144f1565b8060005b8381101561458657815161456d8882614510565b975061457883614528565b925050600181019050614559565b5085935050505092915050565b600060208201905081810360008301526145ad8184614535565b905092915050565b60006101408201905081810360008301526145d0818d614033565b90506145df602083018c613eca565b6145ec604083018b613eca565b6145f9606083018a613eca565b6146066080830189613eca565b61461360a0830188613eca565b61462060c0830187613eca565b61462d60e0830186613eca565b61463b610100830185613eca565b614649610120830184613eca565b9b9a5050505050505050505050565b61466181613e16565b82525050565b600060208201905061467c6000830184614658565b92915050565b61468b81613f79565b811461469657600080fd5b50565b6000813590506146a881614682565b92915050565b600080604083850312156146c5576146c4613dec565b5b60006146d385828601613e3f565b92505060206146e485828601614699565b9150509250929050565b6000806040838503121561470557614704613dec565b5b600061471385828601613e3f565b925050602061472485828601613e3f565b9150509250929050565b600080600080600060a0868803121561474a57614749613dec565b5b600061475888828901613e3f565b955050602061476988828901613e3f565b945050604061477a88828901613e75565b935050606061478b88828901613e75565b925050608086013567ffffffffffffffff8111156147ac576147ab613df1565b5b6147b88882890161425d565b9150509295509295909350565b600080fd5b60008083601f8401126147e0576147df61408e565b5b8235905067ffffffffffffffff8111156147fd576147fc6147c5565b5b6020830191508360018202830111156148195761481861413a565b5b9250929050565b60008060008060008060008060e0898b0312156148405761483f613dec565b5b600061484e8b828c01613e75565b985050602061485f8b828c01613e75565b97505060406148708b828c01613e75565b965050606089013567ffffffffffffffff81111561489157614890613df1565b5b61489d8b828c016147ca565b955095505060806148b08b828c01613e75565b93505060a06148c18b828c01613e75565b92505060c06148d28b828c01613e75565b9150509295985092959890939650565b7f455243313135353a2061646472657373207a65726f206973206e6f742061207660008201527f616c6964206f776e657200000000000000000000000000000000000000000000602082015250565b600061493e602a83613fe7565b9150614949826148e2565b604082019050919050565b6000602082019050818103600083015261496d81614931565b9050919050565b7f4e487b7100000000000000000000000000000000000000000000000000000000600052601160045260246000fd5b60006149ae82613e54565b91506149b983613e54565b92508282039050818111156149d1576149d0614974565b5b92915050565b7f4e487b7100000000000000000000000000000000000000000000000000000000600052602260045260246000fd5b60006002820490506001821680614a1e57607f821691505b602082108103614a3157614a306149d7565b5b50919050565b6000614a4282613e54565b9150614a4d83613e54565b9250828202614a5b81613e54565b91508282048414831517614a7257614a71614974565b5b5092915050565b7f426f6e6420697320636f6d706c65746564000000000000000000000000000000600082015250565b6000614aaf601183613fe7565b9150614aba82614a79565b602082019050919050565b60006020820190508181036000830152614ade81614aa2565b9050919050565b7f4d696e696d756d206f626c69676174696f6e20706572696f64206e6f7420726560008201527f6163686564000000000000000000000000000000000000000000000000000000602082015250565b6000614b41602583613fe7565b9150614b4c82614ae5565b604082019050919050565b60006020820190508181036000830152614b7081614b34565b9050919050565b7f4e487b7100000000000000000000000000000000000000000000000000000000600052601260045260246000fd5b6000614bb182613e54565b9150614bbc83613e54565b925082614bcc57614bcb614b77565b5b828204905092915050565b6000604082019050614bec6000830185613eca565b614bf96020830184613eca565b9392505050565b7f455243313135353a2063616c6c6572206973206e6f7420746f6b656e206f776e60008201527f6572206f7220617070726f766564000000000000000000000000000000000000602082015250565b6000614c5c602e83613fe7565b9150614c6782614c00565b604082019050919050565b60006020820190508181036000830152614c8b81614c4f565b9050919050565b7f43616c6c6572206973206e6f7420746865206f776e6572000000000000000000600082015250565b6000614cc8601783613fe7565b9150614cd382614c92565b602082019050919050565b60006020820190508181036000830152614cf781614cbb565b9050919050565b7f5769746864726177206e6f7420616c6c6f776564207768656e20616374697665600082015250565b6000614d34602083613fe7565b9150614d3f82614cfe565b602082019050919050565b60006020820190508181036000830152614d6381614d27565b9050919050565b7f5769746864726177206e6f7420616c6c6f77656420616674657220636f6d706c60008201527f6574696f6e000000000000000000000000000000000000000000000000000000602082015250565b6000614dc6602583613fe7565b9150614dd182614d6a565b604082019050919050565b60006020820190508181036000830152614df581614db9565b9050919050565b7f5769746864726177206e6f7420616c6c6f776564207768656e2064656661756c60008201527f7465640000000000000000000000000000000000000000000000000000000000602082015250565b6000614e58602383613fe7565b9150614e6382614dfc565b604082019050919050565b60006020820190508181036000830152614e8781614e4b565b9050919050565b7f5769746864726177616c20746f6b656e20616d6f756e7420657863656564732060008201527f746f6b656e20616d6f756e7420696e20636f6e74726163740000000000000000602082015250565b6000614eea603883613fe7565b9150614ef582614e8e565b604082019050919050565b60006020820190508181036000830152614f1981614edd565b9050919050565b6000604082019050614f356000830185614658565b614f426020830184613eca565b9392505050565b600081519050614f5881614682565b92915050565b600060208284031215614f7457614f73613dec565b5b6000614f8284828501614f49565b91505092915050565b7f455243313135353a206163636f756e747320616e6420696473206c656e67746860008201527f206d69736d617463680000000000000000000000000000000000000000000000602082015250565b6000614fe7602983613fe7565b9150614ff282614f8b565b604082019050919050565b6000602082019050818103600083015261501681614fda565b9050919050565b7f4e487b7100000000000000000000000000000000000000000000000000000000600052603260045260246000fd5b600061505782613e54565b91507fffffffffffffffffffffffffffffffffffffffffffffffffffffffffffffffff820361508957615088614974565b5b600182019050919050565b7f426f6e6420697320696e61637469766500000000000000000000000000000000600082015250565b60006150ca601083613fe7565b91506150d582615094565b602082019050919050565b600060208201905081810360008301526150f9816150bd565b9050919050565b7f496e73756666696369656e7420626f6e64207175616e746974792072656d616960008201527f6e696e6700000000000000000000000000000000000000000000000000000000602082015250565b600061515c602483613fe7565b915061516782615100565b604082019050919050565b6000602082019050818103600083015261518b8161514f565b9050919050565b600061519d82613e54565b91506151a883613e54565b92508282019050808211156151c0576151bf614974565b5b92915050565b60006060820190506151db6000830186614658565b6151e86020830185614658565b6151f56040830184613eca565b949350505050565b7f426f6e64206973206e6f7420636f6d706c657465640000000000000000000000600082015250565b6000615233601583613fe7565b915061523e826151fd565b602082019050919050565b6000602082019050818103600083015261526281615226565b9050919050565b7f496e73756666696369656e7420626f6e64207175616e74697479000000000000600082015250565b600061529f601a83613fe7565b91506152aa82615269565b602082019050919050565b600060208201905081810360008301526152ce81615292565b9050919050565b7f426f6e64206973206e6f742064656661756c7465640000000000000000000000600082015250565b600061530b601583613fe7565b9150615316826152d5565b602082019050919050565b6000602082019050818103600083015261533a816152fe565b9050919050565b7f426f6e64206973206e6f742063616e63656c6564000000000000000000000000600082015250565b6000615377601483613fe7565b915061538282615341565b602082019050919050565b600060208201905081810360008301526153a68161536a565b9050919050565b7f426f6e6420697320616c726561647920636f6d706c6574656400000000000000600082015250565b60006153e3601983613fe7565b91506153ee826153ad565b602082019050919050565b60006020820190508181036000830152615412816153d6565b9050919050565b7f626f6e642069732064656661756c746564000000000000000000000000000000600082015250565b600061544f601183613fe7565b915061545a82615419565b602082019050919050565b6000602082019050818103600083015261547e81615442565b9050919050565b7f626f6e6420697320636f6d706c65746564000000000000000000000000000000600082015250565b60006154bb601183613fe7565b91506154c682615485565b602082019050919050565b600060208201905081810360008301526154ea816154ae565b9050919050565b60008151905061550081613e5e565b92915050565b60006020828403121561551c5761551b613dec565b5b600061552a848285016154f1565b91505092915050565b7f43616e6e6f742077697468647261772065786365737300000000000000000000600082015250565b6000615569601683613fe7565b915061557482615533565b602082019050919050565b600060208201905081810360008301526155988161555c565b9050919050565b7f43616e6e6f742077697468647261772066726f6d20656d70747920706f6f6c00600082015250565b60006155d5601f83613fe7565b91506155e08261559f565b602082019050919050565b60006020820190508181036000830152615604816155c8565b9050919050565b7f416374697665206475726174696f6e2073686f756c642062652073686f72746560008201527f72207468616e206475726174696f6e0000000000000000000000000000000000602082015250565b6000615667602f83613fe7565b91506156728261560b565b604082019050919050565b600060208201905081810360008301526156968161565a565b9050919050565b60008190508160005260206000209050919050565b60006020601f8301049050919050565b600082821b905092915050565b6000600883026156ff7fffffffffffffffffffffffffffffffffffffffffffffffffffffffffffffffff826156c2565b61570986836156c2565b95508019841693508086168417925050509392505050565b6000819050919050565b600061574661574161573c84613e54565b615721565b613e54565b9050919050565b6000819050919050565b6157608361572b565b61577461576c8261574d565b8484546156cf565b825550505050565b600090565b61578961577c565b615794818484615757565b505050565b5b818110156157b8576157ad600082615781565b60018101905061579a565b5050565b601f8211156157fd576157ce8161569d565b6157d7846156b2565b810160208510156157e6578190505b6157fa6157f2856156b2565b830182615799565b50505b505050565b600082821c905092915050565b600061582060001984600802615802565b1980831691505092915050565b6000615839838361580f565b9150826002028217905092915050565b61585282613fdc565b67ffffffffffffffff81111561586b5761586a614093565b5b6158758254614a06565b6158808282856157bc565b600060209050601f8311600181146158b357600084156158a1578287015190505b6158ab858261582d565b865550615913565b601f1984166158c18661569d565b60005b828110156158e9578489015182556001820191506020850194506020810190506158c4565b868310156159065784890151615902601f89168261580f565b8355505b6001600288020188555050505b505050505050565b60006080820190506159306000830187613eca565b61593d6020830186613eca565b61594a6040830185613eca565b6159576060830184613eca565b95945050505050565b7f455243313135353a2069647320616e6420616d6f756e7473206c656e6774682060008201527f6d69736d61746368000000000000000000000000000000000000000000000000602082015250565b60006159bc602883613fe7565b91506159c782615960565b604082019050919050565b600060208201905081810360008301526159eb816159af565b9050919050565b7f455243313135353a207472616e7366657220746f20746865207a65726f20616460008201527f6472657373000000000000000000000000000000000000000000000000000000602082015250565b6000615a4e602583613fe7565b9150615a59826159f2565b604082019050919050565b60006020820190508181036000830152615a7d81615a41565b9050919050565b7f455243313135353a20696e73756666696369656e742062616c616e636520666f60008201527f72207472616e7366657200000000000000000000000000000000000000000000602082015250565b6000615ae0602a83613fe7565b9150615aeb82615a84565b604082019050919050565b60006020820190508181036000830152615b0f81615ad3565b9050919050565b60006040820190508181036000830152615b308185614535565b90508181036020830152615b448184614535565b90509392505050565b7f455243313135353a206275726e2066726f6d20746865207a65726f206164647260008201527f6573730000000000000000000000000000000000000000000000000000000000602082015250565b6000615ba9602383613fe7565b9150615bb482615b4d565b604082019050919050565b60006020820190508181036000830152615bd881615b9c565b9050919050565b7f455243313135353a206275726e20616d6f756e7420657863656564732062616c60008201527f616e636500000000000000000000000000000000000000000000000000000000602082015250565b6000615c3b602483613fe7565b9150615c4682615bdf565b604082019050919050565b60006020820190508181036000830152615c6a81615c2e565b9050919050565b7f455243313135353a2073657474696e6720617070726f76616c2073746174757360008201527f20666f722073656c660000000000000000000000000000000000000000000000602082015250565b6000615ccd602983613fe7565b9150615cd882615c71565b604082019050919050565b60006020820190508181036000830152615cfc81615cc0565b9050919050565b7f455243313135353a206d696e7420746f20746865207a65726f2061646472657360008201527f7300000000000000000000000000000000000000000000000000000000000000602082015250565b6000615d5f602183613fe7565b9150615d6a82615d03565b604082019050919050565b60006020820190508181036000830152615d8e81615d52565b9050919050565b600081519050919050565b600082825260208201905092915050565b6000615dbc82615d95565b615dc68185615da0565b9350615dd6818560208601613ff8565b615ddf81614022565b840191505092915050565b600060a082019050615dff6000830188614658565b615e0c6020830187614658565b8181036040830152615e1e8186614535565b90508181036060830152615e328185614535565b90508181036080830152615e468184615db1565b90509695505050505050565b600081519050615e6181613f20565b92915050565b600060208284031215615e7d57615e7c613dec565b5b6000615e8b84828501615e52565b91505092915050565b60008160e01c9050919050565b600060033d1115615ec05760046000803e615ebd600051615e94565b90505b90565b600060443d10615f5057615ed5613de2565b60043d036004823e80513d602482011167ffffffffffffffff82111715615efd575050615f50565b808201805167ffffffffffffffff811115615f1b5750505050615f50565b80602083010160043d038501811115615f38575050505050615f50565b615f47826020018501866140c2565b82955050505050505b90565b7f455243313135353a207472616e7366657220746f206e6f6e2d4552433131353560008201527f526563656976657220696d706c656d656e746572000000000000000000000000602082015250565b6000615faf603483613fe7565b9150615fba82615f53565b604082019050919050565b60006020820190508181036000830152615fde81615fa2565b9050919050565b7f455243313135353a204552433131353552656365697665722072656a6563746560008201527f6420746f6b656e73000000000000000000000000000000000000000000000000602082015250565b6000616041602883613fe7565b915061604c82615fe5565b604082019050919050565b6000602082019050818103600083015261607081616034565b9050919050565b600060a08201905061608c6000830188614658565b6160996020830187614658565b6160a66040830186613eca565b6160b36060830185613eca565b81810360808301526160c58184615db1565b9050969550505050505056fea26469706673582212200cc7e77190d22e146c35139f6c58a768c85397047b5e0a2a9e1ffa9c0ab3b1bd64736f6c63430008110033",
  "linkReferences": {},
  "deployedLinkReferences": {}
}