{
  "_format": "hh-sol-artifact-1",
  "contractName": "CallableBondFactory",
  "sourceName": "contracts/CallableBondFactory.sol",
  "abi": [
    {
      "inputs": [
        {
          "internalType": "address",
          "name": "token",
          "type": "address"
        },
        {
          "internalType": "address",
          "name": "bondToken",
          "type": "address"
        },
        {
          "internalType": "address",
          "name": "db",
          "type": "address"
        },
        {
          "internalType": "address",
          "name": "deployer",
          "type": "address"
        }
      ],
      "stateMutability": "nonpayable",
      "type": "constructor"
    },
    {
      "anonymous": false,
      "inputs": [
        {
          "indexed": true,
          "internalType": "uint256",
          "name": "id",
          "type": "uint256"
        },
        {
          "indexed": false,
          "internalType": "uint256",
          "name": "couponRate",
          "type": "uint256"
        },
        {
          "indexed": false,
          "internalType": "uint256",
          "name": "couponRateOnCall",
          "type": "uint256"
        }
      ],
      "name": "Called",
      "type": "event"
    },
    {
      "anonymous": false,
      "inputs": [
        {
          "indexed": true,
          "internalType": "uint256",
          "name": "id",
          "type": "uint256"
        },
        {
          "indexed": false,
          "internalType": "uint256",
          "name": "totalDebt",
          "type": "uint256"
        },
        {
          "indexed": false,
          "internalType": "uint256",
          "name": "paidDebt",
          "type": "uint256"
        }
      ],
      "name": "Completed",
      "type": "event"
    },
    {
      "anonymous": false,
      "inputs": [
        {
          "indexed": true,
          "internalType": "uint256",
          "name": "id",
          "type": "uint256"
        },
        {
          "indexed": false,
          "internalType": "uint256",
          "name": "totalDebt",
          "type": "uint256"
        },
        {
          "indexed": false,
          "internalType": "uint256",
          "name": "paidDebt",
          "type": "uint256"
        }
      ],
      "name": "Defaulted",
      "type": "event"
    },
    {
      "anonymous": false,
      "inputs": [
        {
          "indexed": true,
          "internalType": "uint256",
          "name": "id",
          "type": "uint256"
        },
        {
          "indexed": false,
          "internalType": "uint256",
          "name": "bondQuantity",
          "type": "uint256"
        },
        {
          "indexed": false,
          "internalType": "uint256",
          "name": "tokenAmountPerBond",
          "type": "uint256"
        },
        {
          "indexed": false,
          "internalType": "uint256",
          "name": "couponRate",
          "type": "uint256"
        },
        {
          "indexed": false,
          "internalType": "uint256",
          "name": "maturityDate",
          "type": "uint256"
        }
      ],
      "name": "Issued",
      "type": "event"
    },
    {
      "anonymous": false,
      "inputs": [
        {
          "indexed": true,
          "internalType": "uint256",
          "name": "id",
          "type": "uint256"
        },
        {
          "indexed": false,
          "internalType": "address",
          "name": "buyer",
          "type": "address"
        },
        {
          "indexed": false,
          "internalType": "uint256",
          "name": "bondQuantity",
          "type": "uint256"
        },
        {
          "indexed": false,
          "internalType": "uint256",
          "name": "state",
          "type": "uint256"
        }
      ],
      "name": "Redeemed",
      "type": "event"
    },
    {
      "inputs": [],
      "name": "baseToken",
      "outputs": [
        {
          "internalType": "address",
          "name": "",
          "type": "address"
        }
      ],
      "stateMutability": "view",
      "type": "function"
    },
    {
      "inputs": [],
      "name": "bonds",
      "outputs": [
        {
          "internalType": "uint256[]",
          "name": "",
          "type": "uint256[]"
        }
      ],
      "stateMutability": "view",
      "type": "function"
    },
    {
      "inputs": [
        {
          "internalType": "uint256",
          "name": "id",
          "type": "uint256"
        }
      ],
      "name": "call",
      "outputs": [],
      "stateMutability": "nonpayable",
      "type": "function"
    },
    {
      "inputs": [
        {
          "internalType": "uint256",
          "name": "id",
          "type": "uint256"
        }
      ],
      "name": "couponRateOnCall",
      "outputs": [
        {
          "internalType": "uint256",
          "name": "",
          "type": "uint256"
        }
      ],
      "stateMutability": "view",
      "type": "function"
    },
    {
      "inputs": [
        {
          "internalType": "uint256",
          "name": "id",
          "type": "uint256"
        },
        {
          "internalType": "uint256",
          "name": "tokenAmount",
          "type": "uint256"
        }
      ],
      "name": "deposit",
      "outputs": [],
      "stateMutability": "nonpayable",
      "type": "function"
    },
    {
      "inputs": [
        {
          "internalType": "uint256",
          "name": "id",
          "type": "uint256"
        }
      ],
      "name": "designatedTokenPool",
      "outputs": [
        {
          "internalType": "uint256",
          "name": "",
          "type": "uint256"
        }
      ],
      "stateMutability": "view",
      "type": "function"
    },
    {
      "inputs": [
        {
          "internalType": "uint256",
          "name": "id",
          "type": "uint256"
        }
      ],
      "name": "hasReachedMaturity",
      "outputs": [
        {
          "internalType": "bool",
          "name": "",
          "type": "bool"
        }
      ],
      "stateMutability": "view",
      "type": "function"
    },
    {
      "inputs": [
        {
          "internalType": "uint256",
          "name": "id",
          "type": "uint256"
        }
      ],
      "name": "isActive",
      "outputs": [
        {
          "internalType": "bool",
          "name": "",
          "type": "bool"
        }
      ],
      "stateMutability": "view",
      "type": "function"
    },
    {
      "inputs": [
        {
          "internalType": "uint256",
          "name": "id",
          "type": "uint256"
        }
      ],
      "name": "isCalled",
      "outputs": [
        {
          "internalType": "bool",
          "name": "",
          "type": "bool"
        }
      ],
      "stateMutability": "view",
      "type": "function"
    },
    {
      "inputs": [
        {
          "internalType": "uint256",
          "name": "id",
          "type": "uint256"
        }
      ],
      "name": "isCanceled",
      "outputs": [
        {
          "internalType": "bool",
          "name": "",
          "type": "bool"
        }
      ],
      "stateMutability": "view",
      "type": "function"
    },
    {
      "inputs": [
        {
          "internalType": "uint256",
          "name": "id",
          "type": "uint256"
        }
      ],
      "name": "isCompleted",
      "outputs": [
        {
          "internalType": "bool",
          "name": "",
          "type": "bool"
        }
      ],
      "stateMutability": "view",
      "type": "function"
    },
    {
      "inputs": [
        {
          "internalType": "uint256",
          "name": "id",
          "type": "uint256"
        }
      ],
      "name": "isCompletedInTheory",
      "outputs": [
        {
          "internalType": "bool",
          "name": "",
          "type": "bool"
        }
      ],
      "stateMutability": "view",
      "type": "function"
    },
    {
      "inputs": [
        {
          "internalType": "uint256",
          "name": "id",
          "type": "uint256"
        }
      ],
      "name": "isDefaulted",
      "outputs": [
        {
          "internalType": "bool",
          "name": "",
          "type": "bool"
        }
      ],
      "stateMutability": "view",
      "type": "function"
    },
    {
      "inputs": [
        {
          "internalType": "uint256",
          "name": "id",
          "type": "uint256"
        }
      ],
      "name": "isDefaultedInTheory",
      "outputs": [
        {
          "internalType": "bool",
          "name": "",
          "type": "bool"
        }
      ],
      "stateMutability": "view",
      "type": "function"
    },
    {
      "inputs": [
        {
          "internalType": "uint256",
          "name": "id",
          "type": "uint256"
        }
      ],
      "name": "isFulfilled",
      "outputs": [
        {
          "internalType": "bool",
          "name": "",
          "type": "bool"
        }
      ],
      "stateMutability": "view",
      "type": "function"
    },
    {
      "inputs": [
        {
          "internalType": "uint256",
          "name": "id",
          "type": "uint256"
        }
      ],
      "name": "isFullyRedeemed",
      "outputs": [
        {
          "internalType": "bool",
          "name": "",
          "type": "bool"
        }
      ],
      "stateMutability": "view",
      "type": "function"
    },
    {
      "inputs": [
        {
          "internalType": "uint256",
          "name": "id",
          "type": "uint256"
        }
      ],
      "name": "isIssuedByFactory",
      "outputs": [
        {
          "internalType": "bool",
          "name": "",
          "type": "bool"
        }
      ],
      "stateMutability": "view",
      "type": "function"
    },
    {
      "inputs": [
        {
          "internalType": "uint256",
          "name": "bondQuantity",
          "type": "uint256"
        },
        {
          "internalType": "uint256",
          "name": "minPurchasedQuantity",
          "type": "uint256"
        },
        {
          "internalType": "uint256",
          "name": "tokenAmountPerBond",
          "type": "uint256"
        },
        {
          "internalType": "string",
          "name": "ticker",
          "type": "string"
        },
        {
          "internalType": "uint256",
          "name": "durationInDays",
          "type": "uint256"
        },
        {
          "internalType": "uint256",
          "name": "activeDurationInDays",
          "type": "uint256"
        },
        {
          "internalType": "uint256",
          "name": "rate",
          "type": "uint256"
        }
      ],
      "name": "issue",
      "outputs": [
        {
          "internalType": "uint256",
          "name": "id",
          "type": "uint256"
        }
      ],
      "stateMutability": "nonpayable",
      "type": "function"
    },
    {
      "inputs": [
        {
          "internalType": "uint256",
          "name": "id",
          "type": "uint256"
        }
      ],
      "name": "markAsCompleted",
      "outputs": [],
      "stateMutability": "nonpayable",
      "type": "function"
    },
    {
      "inputs": [
        {
          "internalType": "uint256",
          "name": "id",
          "type": "uint256"
        }
      ],
      "name": "markAsDefaulted",
      "outputs": [],
      "stateMutability": "nonpayable",
      "type": "function"
    },
    {
      "inputs": [
        {
          "internalType": "uint256",
          "name": "id",
          "type": "uint256"
        }
      ],
      "name": "minObligationPeriod",
      "outputs": [
        {
          "internalType": "uint256",
          "name": "",
          "type": "uint256"
        }
      ],
      "stateMutability": "view",
      "type": "function"
    },
    {
      "inputs": [
        {
          "internalType": "address",
          "name": "",
          "type": "address"
        },
        {
          "internalType": "address",
          "name": "",
          "type": "address"
        },
        {
          "internalType": "uint256[]",
          "name": "",
          "type": "uint256[]"
        },
        {
          "internalType": "uint256[]",
          "name": "",
          "type": "uint256[]"
        },
        {
          "internalType": "bytes",
          "name": "",
          "type": "bytes"
        }
      ],
      "name": "onERC1155BatchReceived",
      "outputs": [
        {
          "internalType": "bytes4",
          "name": "",
          "type": "bytes4"
        }
      ],
      "stateMutability": "nonpayable",
      "type": "function"
    },
    {
      "inputs": [
        {
          "internalType": "address",
          "name": "",
          "type": "address"
        },
        {
          "internalType": "address",
          "name": "",
          "type": "address"
        },
        {
          "internalType": "uint256",
          "name": "",
          "type": "uint256"
        },
        {
          "internalType": "uint256",
          "name": "",
          "type": "uint256"
        },
        {
          "internalType": "bytes",
          "name": "",
          "type": "bytes"
        }
      ],
      "name": "onERC1155Received",
      "outputs": [
        {
          "internalType": "bytes4",
          "name": "",
          "type": "bytes4"
        }
      ],
      "stateMutability": "nonpayable",
      "type": "function"
    },
    {
      "inputs": [],
      "name": "owner",
      "outputs": [
        {
          "internalType": "address",
          "name": "",
          "type": "address"
        }
      ],
      "stateMutability": "view",
      "type": "function"
    },
    {
      "inputs": [
        {
          "internalType": "uint256",
          "name": "id",
          "type": "uint256"
        }
      ],
      "name": "poolAmount",
      "outputs": [
        {
          "internalType": "uint256",
          "name": "",
          "type": "uint256"
        }
      ],
      "stateMutability": "view",
      "type": "function"
    },
    {
      "inputs": [
        {
          "internalType": "uint256",
          "name": "id",
          "type": "uint256"
        }
      ],
      "name": "preMaturityDefault",
      "outputs": [],
      "stateMutability": "nonpayable",
      "type": "function"
    },
    {
      "inputs": [
        {
          "internalType": "uint256",
          "name": "id",
          "type": "uint256"
        }
      ],
      "name": "principal",
      "outputs": [
        {
          "internalType": "uint256",
          "name": "",
          "type": "uint256"
        }
      ],
      "stateMutability": "view",
      "type": "function"
    },
    {
      "inputs": [
        {
          "internalType": "uint256",
          "name": "id",
          "type": "uint256"
        }
      ],
      "name": "principalWithInterest",
      "outputs": [
        {
          "internalType": "uint256",
          "name": "",
          "type": "uint256"
        }
      ],
      "stateMutability": "view",
      "type": "function"
    },
    {
      "inputs": [
        {
          "internalType": "uint256",
          "name": "id",
          "type": "uint256"
        },
        {
          "internalType": "uint256",
          "name": "bondQuantity",
          "type": "uint256"
        }
      ],
      "name": "purchase",
      "outputs": [],
      "stateMutability": "nonpayable",
      "type": "function"
    },
    {
      "inputs": [
        {
          "internalType": "uint256",
          "name": "id",
          "type": "uint256"
        },
        {
          "internalType": "uint256",
          "name": "bondQuantity",
          "type": "uint256"
        }
      ],
      "name": "redeem",
      "outputs": [],
      "stateMutability": "nonpayable",
      "type": "function"
    },
    {
      "inputs": [
        {
          "internalType": "uint256",
          "name": "id",
          "type": "uint256"
        }
      ],
      "name": "remainingQuantity",
      "outputs": [
        {
          "internalType": "uint256",
          "name": "",
          "type": "uint256"
        }
      ],
      "stateMutability": "view",
      "type": "function"
    },
    {
      "inputs": [
        {
          "internalType": "bytes4",
          "name": "interfaceId",
          "type": "bytes4"
        }
      ],
      "name": "supportsInterface",
      "outputs": [
        {
          "internalType": "bool",
          "name": "",
          "type": "bool"
        }
      ],
      "stateMutability": "view",
      "type": "function"
    },
    {
      "inputs": [
        {
          "internalType": "uint256",
          "name": "id",
          "type": "uint256"
        }
      ],
      "name": "timeElapsed",
      "outputs": [
        {
          "internalType": "uint256",
          "name": "",
          "type": "uint256"
        }
      ],
      "stateMutability": "view",
      "type": "function"
    },
    {
      "inputs": [
        {
          "internalType": "uint256",
          "name": "id",
          "type": "uint256"
        }
      ],
      "name": "timeRemainingToEndOfActive",
      "outputs": [
        {
          "internalType": "uint256",
          "name": "",
          "type": "uint256"
        }
      ],
      "stateMutability": "view",
      "type": "function"
    },
    {
      "inputs": [
        {
          "internalType": "uint256",
          "name": "id",
          "type": "uint256"
        }
      ],
      "name": "timeRemainingToMaturity",
      "outputs": [
        {
          "internalType": "uint256",
          "name": "",
          "type": "uint256"
        }
      ],
      "stateMutability": "view",
      "type": "function"
    },
    {
      "inputs": [],
      "name": "tvl",
      "outputs": [
        {
          "internalType": "uint256",
          "name": "",
          "type": "uint256"
        }
      ],
      "stateMutability": "view",
      "type": "function"
    },
    {
      "inputs": [
        {
          "internalType": "uint256",
          "name": "id",
          "type": "uint256"
        },
        {
          "internalType": "uint256",
          "name": "tokenAmount",
          "type": "uint256"
        }
      ],
      "name": "withdraw",
      "outputs": [],
      "stateMutability": "nonpayable",
      "type": "function"
    },
    {
      "inputs": [
        {
          "internalType": "uint256",
          "name": "id",
          "type": "uint256"
        }
      ],
      "name": "withdrawExcess",
      "outputs": [],
      "stateMutability": "nonpayable",
      "type": "function"
    }
  ],
  "bytecode": "0x6101006040523480156200001257600080fd5b5060405162004eb438038062004eb4833981810160405281019062000038919062000184565b838383838073ffffffffffffffffffffffffffffffffffffffff1660808173ffffffffffffffffffffffffffffffffffffffff16815250508373ffffffffffffffffffffffffffffffffffffffff1660a08173ffffffffffffffffffffffffffffffffffffffff16815250508173ffffffffffffffffffffffffffffffffffffffff1660c08173ffffffffffffffffffffffffffffffffffffffff16815250508273ffffffffffffffffffffffffffffffffffffffff1660e08173ffffffffffffffffffffffffffffffffffffffff16815250505050505050505050620001f6565b600080fd5b600073ffffffffffffffffffffffffffffffffffffffff82169050919050565b60006200014c826200011f565b9050919050565b6200015e816200013f565b81146200016a57600080fd5b50565b6000815190506200017e8162000153565b92915050565b60008060008060808587031215620001a157620001a06200011a565b5b6000620001b1878288016200016d565b9450506020620001c4878288016200016d565b9350506040620001d7878288016200016d565b9250506060620001ea878288016200016d565b91505092959194509250565b60805160a05160c05160e051614b1f62000395600039600081816108f6015281816109a901528181610ad301528181610c5f01528181610d1101528181610e560152818161161201528181611a1001528181611b4a01528181611c8b01528181611e0d01528181611eeb015281816120c20152818161216e015281816122650152818161232301528181612a0901526131a40152600081816113a60152818161145101528181611712015281816117bf0152818161188e015281816119600152818161253d015281816125e8015281816132c1015261334d0152600081816111480152818161174f0152818161181d015281816118ec0152818161199d01528181611aa101528181611fde01528181612696015281816128e2015281816129e001528181612bdc01528181612c8301528181612e7801526130d6015260008181610fab0152818161121d015281816113e20152818161148d015281816117fc015281816118cb0152818161223d015281816125790152818161262401528181612ab901528181612d2201528181612f6101526133890152614b1f6000f3fe608060405234801561001057600080fd5b50600436106102325760003560e01c806388bdc08311610130578063c0a6026c116100b8578063e5328e061161007c578063e5328e0614610791578063e755ddd7146107af578063f0d8100a146107cb578063f23a6e61146107fb578063fcbc669a1461082b57610232565b8063c0a6026c146106db578063c3653010146106f7578063c55dae6314610727578063d3b7811b14610745578063e2bbb1581461077557610232565b8063932a8de0116100ff578063932a8de0146105ff578063a53e17b01461062f578063a87430221461065f578063b1a1a1651461067b578063bc197c81146106ab57610232565b806388bdc0831461055157806389c2bb1f146105815780638da5cb5b146105b15780638f0dbf77146105cf57610232565b806339e3af9b116101be57806370876c981161018257806370876c981461048957806377e2a08b146104a55780637a41984b146104d55780637cbc23731461050557806382afd23b1461052157610232565b806339e3af9b146103c1578063441a3e70146103f1578063549493bb1461040d5780636567dc4d1461043d5780636ff80d931461045957610232565b8063135c404e11610205578063135c404e146102f757806314f29493146103155780632b096926146103455780632f3ad61f146103615780633097afb81461039157610232565b806301ffc9a714610237578063021594971461026757806308913ce81461029757806309149020146102c7575b600080fd5b610251600480360381019061024c9190613549565b61085b565b60405161025e9190613591565b60405180910390f35b610281600480360381019061027c91906135e2565b6108d5565b60405161028e919061361e565b60405180910390f35b6102b160048036038101906102ac91906135e2565b6108f2565b6040516102be919061361e565b60405180910390f35b6102e160048036038101906102dc91906135e2565b6109a5565b6040516102ee9190613591565b60405180910390f35b6102ff610a63565b60405161030c91906136f7565b60405180910390f35b61032f600480360381019061032a91906135e2565b610abb565b60405161033c919061361e565b60405180910390f35b61035f600480360381019061035a91906135e2565b610b81565b005b61037b600480360381019061037691906135e2565b610f21565b6040516103889190613591565b60405180910390f35b6103ab60048036038101906103a691906135e2565b610f4b565b6040516103b89190613591565b60405180910390f35b6103db60048036038101906103d691906135e2565b610f84565b6040516103e89190613591565b60405180910390f35b61040b60048036038101906104069190613719565b610fa9565b005b610427600480360381019061042291906135e2565b6111e9565b6040516104349190613591565b60405180910390f35b610457600480360381019061045291906135e2565b61121b565b005b610473600480360381019061046e91906135e2565b611543565b6040516104809190613591565b60405180910390f35b6104a3600480360381019061049e9190613719565b61157b565b005b6104bf60048036038101906104ba91906135e2565b611b45565b6040516104cc919061361e565b60405180910390f35b6104ef60048036038101906104ea91906135e2565b611c5e565b6040516104fc9190613591565b60405180910390f35b61051f600480360381019061051a9190613719565b611c88565b005b61053b600480360381019061053691906135e2565b6120be565b6040516105489190613591565b60405180910390f35b61056b600480360381019061056691906135e2565b612169565b604051610578919061361e565b60405180910390f35b61059b600480360381019061059691906135e2565b61221c565b6040516105a8919061361e565b60405180910390f35b6105b9612239565b6040516105c6919061379a565b60405180910390f35b6105e960048036038101906105e491906135e2565b612261565b6040516105f69190613591565b60405180910390f35b610619600480360381019061061491906135e2565b61230b565b604051610626919061361e565b60405180910390f35b610649600480360381019061064491906135e2565b6123d1565b6040516106569190613591565b60405180910390f35b610679600480360381019061067491906135e2565b6123fb565b005b610695600480360381019061069091906135e2565b61277a565b6040516106a29190613591565b60405180910390f35b6106c560048036038101906106c091906139ef565b6127a4565b6040516106d29190613acd565b60405180910390f35b6106f560048036038101906106f091906135e2565b6127b9565b005b610711600480360381019061070c91906135e2565b6129bf565b60405161071e919061361e565b60405180910390f35b61072f6129dc565b60405161073c919061379a565b60405180910390f35b61075f600480360381019061075a91906135e2565b612a04565b60405161076c919061361e565b60405180910390f35b61078f600480360381019061078a9190613719565b612ab7565b005b610799612c7f565b6040516107a6919061361e565b60405180910390f35b6107c960048036038101906107c491906135e2565b612d20565b005b6107e560048036038101906107e091906135e2565b612f2b565b6040516107f2919061361e565b60405180910390f35b61081560048036038101906108109190613ae8565b612f48565b6040516108229190613acd565b60405180910390f35b61084560048036038101906108409190613c20565b612f5d565b604051610852919061361e565b60405180910390f35b60007f4e2312e0000000000000000000000000000000000000000000000000000000007bffffffffffffffffffffffffffffffffffffffffffffffffffffffff1916827bffffffffffffffffffffffffffffffffffffffffffffffffffffffff191614806108ce57506108cd8261345d565b5b9050919050565b600060046000838152602001908152602001600020549050919050565b60007f000000000000000000000000000000000000000000000000000000000000000073ffffffffffffffffffffffffffffffffffffffff16634dd9c9c7836040518263ffffffff1660e01b815260040161094d919061361e565b61012060405180830381865afa15801561096b573d6000803e3d6000fd5b505050506040513d601f19601f8201168201806040525081019061098f9190613dd8565b602001514261099e9190613e35565b9050919050565b60007f000000000000000000000000000000000000000000000000000000000000000073ffffffffffffffffffffffffffffffffffffffff16634dd9c9c7836040518263ffffffff1660e01b8152600401610a00919061361e565b61012060405180830381865afa158015610a1e573d6000803e3d6000fd5b505050506040513d601f19601f82011682018060405250810190610a429190613dd8565b60e00151600260008481526020019081526020016000205410159050919050565b60606001805480602002602001604051908101604052809291908181526020018280548015610ab157602002820191906000526020600020905b815481526020019060010190808311610a9d575b5050505050905090565b600060026000838152602001908152602001600020547f000000000000000000000000000000000000000000000000000000000000000073ffffffffffffffffffffffffffffffffffffffff16634dd9c9c7846040518263ffffffff1660e01b8152600401610b2a919061361e565b61012060405180830381865afa158015610b48573d6000803e3d6000fd5b505050506040513d601f19601f82011682018060405250810190610b6c9190613dd8565b60000151610b7a9190613e69565b9050919050565b610b8a81611c5e565b158015610b9d5750610b9b81610f84565b155b8015610baf5750610bad81610f21565b155b610bee576040517f08c379a0000000000000000000000000000000000000000000000000000000008152600401610be590613f08565b60405180910390fd5b62015180600b600083815260200190815260200160002054610c109190613e69565b610c19826108f2565b11610c59576040517f08c379a0000000000000000000000000000000000000000000000000000000008152600401610c5090613f74565b60405180910390fd5b620151807f000000000000000000000000000000000000000000000000000000000000000073ffffffffffffffffffffffffffffffffffffffff16634dd9c9c7836040518263ffffffff1660e01b8152600401610cb6919061361e565b61012060405180830381865afa158015610cd4573d6000803e3d6000fd5b505050506040513d601f19601f82011682018060405250810190610cf89190613dd8565b60a00151610d069190613e69565b610d0f826108f2565b7f000000000000000000000000000000000000000000000000000000000000000073ffffffffffffffffffffffffffffffffffffffff16634dd9c9c7846040518263ffffffff1660e01b8152600401610d68919061361e565b61012060405180830381865afa158015610d86573d6000803e3d6000fd5b505050506040513d601f19601f82011682018060405250810190610daa9190613dd8565b6101000151610db99190613e69565b610dc39190613fc3565b600c6000838152602001908152602001600020819055506001600d600083815260200190815260200160002060006101000a81548160ff02191690831515021790555060016009600083815260200190815260200160002060006101000a81548160ff021916908315150217905550807fb580a16317cf9efa50cf987c976c3fb7de7eaf3149b9dd5b8a576a043042f44c7f000000000000000000000000000000000000000000000000000000000000000073ffffffffffffffffffffffffffffffffffffffff16634dd9c9c7846040518263ffffffff1660e01b8152600401610ead919061361e565b61012060405180830381865afa158015610ecb573d6000803e3d6000fd5b505050506040513d601f19601f82011682018060405250810190610eef9190613dd8565b6101000151600c600085815260200190815260200160002054604051610f16929190613ff4565b60405180910390a250565b60006008600083815260200190815260200160002060009054906101000a900460ff169050919050565b6000610f5682612261565b8015610f7d5750610f6682611b45565b600460008481526020019081526020016000205410155b9050919050565b6000610f8f826120be565b158015610fa25750610fa0826109a5565b155b9050919050565b7f000000000000000000000000000000000000000000000000000000000000000073ffffffffffffffffffffffffffffffffffffffff163373ffffffffffffffffffffffffffffffffffffffff1614611037576040517f08c379a000000000000000000000000000000000000000000000000000000000815260040161102e90614069565b60405180910390fd5b611040826120be565b158015611053575061105182610f84565b155b8015611065575061106382611c5e565b155b8015611087575061107582610f21565b80611085575061108482611543565b5b155b6110c6576040517f08c379a00000000000000000000000000000000000000000000000000000000081526004016110bd906140d5565b60405180910390fd5b600460008381526020019081526020016000205481111561111c576040517f08c379a000000000000000000000000000000000000000000000000000000000815260040161111390614141565b60405180910390fd5b8060046000848152602001908152602001600020600082825461113f9190613e35565b925050819055507f000000000000000000000000000000000000000000000000000000000000000073ffffffffffffffffffffffffffffffffffffffff1663a9059cbb33836040518363ffffffff1660e01b81526004016111a1929190614161565b6020604051808303816000875af11580156111c0573d6000803e3d6000fd5b505050506040513d601f19601f820116820180604052508101906111e491906141b6565b505050565b600060026000838152602001908152602001600020546003600084815260200190815260200160002054149050919050565b7f000000000000000000000000000000000000000000000000000000000000000073ffffffffffffffffffffffffffffffffffffffff163373ffffffffffffffffffffffffffffffffffffffff16146112a9576040517f08c379a00000000000000000000000000000000000000000000000000000000081526004016112a090614069565b60405180910390fd5b6112b281611c5e565b1580156112c557506112c381610f21565b155b80156112eb57506112d581611b45565b6004600083815260200190815260200160002054105b61132a576040517f08c379a00000000000000000000000000000000000000000000000000000000081526004016113219061422f565b60405180910390fd5b6000600460008381526020019081526020016000205490506002600083815260200190815260200160002054816113619190613fc3565b600560008481526020019081526020016000208190555060016008600084815260200190815260200160002060006101000a81548160ff0219169083151502179055507f000000000000000000000000000000000000000000000000000000000000000073ffffffffffffffffffffffffffffffffffffffff1663dae382d67f00000000000000000000000000000000000000000000000000000000000000006040518263ffffffff1660e01b815260040161141d919061379a565b600060405180830381600087803b15801561143757600080fd5b505af115801561144b573d6000803e3d6000fd5b505050507f000000000000000000000000000000000000000000000000000000000000000073ffffffffffffffffffffffffffffffffffffffff1663d050a7c87f000000000000000000000000000000000000000000000000000000000000000060016040518363ffffffff1660e01b81526004016114cb929190614161565b600060405180830381600087803b1580156114e557600080fd5b505af11580156114f9573d6000803e3d6000fd5b50505050817fc4f17a65d54873d57229ea5f59c4ddec592d095bc17581372676402c8228b9cd61152884611b45565b83604051611537929190613ff4565b60405180910390a25050565b600061154e82612261565b8015611574575061155e82611b45565b6004600084815260200190815260200160002054105b9050919050565b611584826120be565b6115c3576040517f08c379a00000000000000000000000000000000000000000000000000000000081526004016115ba9061429b565b60405180910390fd5b806115cd8361230b565b101561160e576040517f08c379a000000000000000000000000000000000000000000000000000000000815260040161160590614307565b60405180910390fd5b60007f000000000000000000000000000000000000000000000000000000000000000073ffffffffffffffffffffffffffffffffffffffff16634dd9c9c7846040518263ffffffff1660e01b8152600401611669919061361e565b61012060405180830381865afa158015611687573d6000803e3d6000fd5b505050506040513d601f19601f820116820180604052508101906116ab9190613dd8565b60000151826116ba9190613e69565b9050816002600085815260200190815260200160002060008282546116df9190614327565b92505081905550806004600085815260200190815260200160002060008282546117099190614327565b925050819055507f000000000000000000000000000000000000000000000000000000000000000073ffffffffffffffffffffffffffffffffffffffff1663576ff163827f00000000000000000000000000000000000000000000000000000000000000006040518363ffffffff1660e01b815260040161178b92919061435b565b600060405180830381600087803b1580156117a557600080fd5b505af11580156117b9573d6000803e3d6000fd5b505050507f000000000000000000000000000000000000000000000000000000000000000073ffffffffffffffffffffffffffffffffffffffff1663b8c2e4f3827f00000000000000000000000000000000000000000000000000000000000000007f00000000000000000000000000000000000000000000000000000000000000006040518463ffffffff1660e01b815260040161185a93929190614384565b600060405180830381600087803b15801561187457600080fd5b505af1158015611888573d6000803e3d6000fd5b505050507f000000000000000000000000000000000000000000000000000000000000000073ffffffffffffffffffffffffffffffffffffffff16637db79a3d827f00000000000000000000000000000000000000000000000000000000000000007f000000000000000000000000000000000000000000000000000000000000000060016040518563ffffffff1660e01b815260040161192c94939291906143bb565b600060405180830381600087803b15801561194657600080fd5b505af115801561195a573d6000803e3d6000fd5b505050507f000000000000000000000000000000000000000000000000000000000000000073ffffffffffffffffffffffffffffffffffffffff1663b0b4dfaa827f000000000000000000000000000000000000000000000000000000000000000060016040518463ffffffff1660e01b81526004016119dc93929190614400565b600060405180830381600087803b1580156119f657600080fd5b505af1158015611a0a573d6000803e3d6000fd5b505050507f000000000000000000000000000000000000000000000000000000000000000073ffffffffffffffffffffffffffffffffffffffff1663f242432a303386866040518563ffffffff1660e01b8152600401611a6d949392919061446e565b600060405180830381600087803b158015611a8757600080fd5b505af1158015611a9b573d6000803e3d6000fd5b505050507f000000000000000000000000000000000000000000000000000000000000000073ffffffffffffffffffffffffffffffffffffffff166323b872dd3330846040518463ffffffff1660e01b8152600401611afc939291906144c6565b6020604051808303816000875af1158015611b1b573d6000803e3d6000fd5b505050506040513d601f19601f82011682018060405250810190611b3f91906141b6565b50505050565b6000807f000000000000000000000000000000000000000000000000000000000000000073ffffffffffffffffffffffffffffffffffffffff16634dd9c9c7846040518263ffffffff1660e01b8152600401611ba1919061361e565b61012060405180830381865afa158015611bbf573d6000803e3d6000fd5b505050506040513d601f19601f82011682018060405250810190611be39190613dd8565b61010001519050600d600084815260200190815260200160002060009054906101000a900460ff1615611c1c57611c198361221c565b90505b670de0b6b3a764000081611c2f85610abb565b611c399190613e69565b611c439190613fc3565b611c4c84610abb565b611c569190614327565b915050919050565b60006009600083815260200190815260200160002060009054906101000a900460ff169050919050565b807f000000000000000000000000000000000000000000000000000000000000000073ffffffffffffffffffffffffffffffffffffffff1662fdd58e33856040518363ffffffff1660e01b8152600401611ce3929190614161565b602060405180830381865afa158015611d00573d6000803e3d6000fd5b505050506040513d601f19601f82011682018060405250810190611d2491906144fd565b1015611d65576040517f08c379a0000000000000000000000000000000000000000000000000000000008152600401611d5c90614307565b60405180910390fd5b611d6e82611c5e565b80611d7e5750611d7d82610f84565b5b80611d8e5750611d8d82610f21565b5b611dcd576040517f08c379a0000000000000000000000000000000000000000000000000000000008152600401611dc490614576565b60405180910390fd5b600080611dd984611c5e565b15611dfd576006600085815260200190815260200160002054915060009050611ee9565b611e0684610f84565b15611eb5577f000000000000000000000000000000000000000000000000000000000000000073ffffffffffffffffffffffffffffffffffffffff16634dd9c9c7856040518263ffffffff1660e01b8152600401611e64919061361e565b61012060405180830381865afa158015611e82573d6000803e3d6000fd5b505050506040513d601f19601f82011682018060405250810190611ea69190613dd8565b60000151915060019050611ee8565b611ebe84610f21565b15611ee2576005600085815260200190815260200160002054915060029050611ee7565b600080fd5b5b5b7f000000000000000000000000000000000000000000000000000000000000000073ffffffffffffffffffffffffffffffffffffffff1663f5298aca3386866040518463ffffffff1660e01b8152600401611f4693929190614596565b600060405180830381600087803b158015611f6057600080fd5b505af1158015611f74573d6000803e3d6000fd5b5050505082600360008681526020019081526020016000206000828254611f9b9190614327565b9250508190555060008284611fb09190613e69565b905080600460008781526020019081526020016000206000828254611fd59190613e35565b925050819055507f000000000000000000000000000000000000000000000000000000000000000073ffffffffffffffffffffffffffffffffffffffff1663a9059cbb33836040518363ffffffff1660e01b8152600401612037929190614161565b6020604051808303816000875af1158015612056573d6000803e3d6000fd5b505050506040513d601f19601f8201168201806040525081019061207a91906141b6565b50847fa5851b0172fdafd3dafe0e52ce051747548a4c642a2f22793c01faf228e130623386856040516120af93929190614596565b60405180910390a25050505050565b60007f000000000000000000000000000000000000000000000000000000000000000073ffffffffffffffffffffffffffffffffffffffff16634dd9c9c7836040518263ffffffff1660e01b8152600401612119919061361e565b61012060405180830381865afa158015612137573d6000803e3d6000fd5b505050506040513d601f19601f8201168201806040525081019061215b9190613dd8565b606001514211159050919050565b6000427f000000000000000000000000000000000000000000000000000000000000000073ffffffffffffffffffffffffffffffffffffffff16634dd9c9c7846040518263ffffffff1660e01b81526004016121c5919061361e565b61012060405180830381865afa1580156121e3573d6000803e3d6000fd5b505050506040513d601f19601f820116820180604052508101906122079190613dd8565b606001516122159190613e35565b9050919050565b6000600c6000838152602001908152602001600020549050919050565b60007f0000000000000000000000000000000000000000000000000000000000000000905090565b60007f000000000000000000000000000000000000000000000000000000000000000073ffffffffffffffffffffffffffffffffffffffff16634dd9c9c7836040518263ffffffff1660e01b81526004016122bc919061361e565b61012060405180830381865afa1580156122da573d6000803e3d6000fd5b505050506040513d601f19601f820116820180604052508101906122fe9190613dd8565b6040015142119050919050565b600060026000838152602001908152602001600020547f000000000000000000000000000000000000000000000000000000000000000073ffffffffffffffffffffffffffffffffffffffff16634dd9c9c7846040518263ffffffff1660e01b815260040161237a919061361e565b61012060405180830381865afa158015612398573d6000803e3d6000fd5b505050506040513d601f19601f820116820180604052508101906123bc9190613dd8565b60c001516123ca9190613e35565b9050919050565b6000600d600083815260200190815260200160002060009054906101000a900460ff169050919050565b61240481611c5e565b158015612417575061241581610f21565b155b8015612428575061242781611543565b5b612467576040517f08c379a000000000000000000000000000000000000000000000000000000000815260040161245e90614619565b60405180910390fd5b60006103e8600460008481526020019081526020016000205461248a9190613fc3565b905060008160046000858152602001908152602001600020546124ad9190613e35565b90506002600084815260200190815260200160002054816124ce9190613fc3565b6005600085815260200190815260200160002081905550816004600085815260200190815260200160002060008282546125089190613e35565b9250508190555060016008600085815260200190815260200160002060006101000a81548160ff0219169083151502179055507f000000000000000000000000000000000000000000000000000000000000000073ffffffffffffffffffffffffffffffffffffffff1663dae382d67f00000000000000000000000000000000000000000000000000000000000000006040518263ffffffff1660e01b81526004016125b4919061379a565b600060405180830381600087803b1580156125ce57600080fd5b505af11580156125e2573d6000803e3d6000fd5b505050507f000000000000000000000000000000000000000000000000000000000000000073ffffffffffffffffffffffffffffffffffffffff1663d050a7c87f000000000000000000000000000000000000000000000000000000000000000060016040518363ffffffff1660e01b8152600401612662929190614161565b600060405180830381600087803b15801561267c57600080fd5b505af1158015612690573d6000803e3d6000fd5b505050507f000000000000000000000000000000000000000000000000000000000000000073ffffffffffffffffffffffffffffffffffffffff1663a9059cbb33846040518363ffffffff1660e01b81526004016126ef929190614161565b6020604051808303816000875af115801561270e573d6000803e3d6000fd5b505050506040513d601f19601f8201168201806040525081019061273291906141b6565b50827fc4f17a65d54873d57229ea5f59c4ddec592d095bc17581372676402c8228b9cd61275e85611b45565b8360405161276d929190613ff4565b60405180910390a2505050565b60006007600083815260200190815260200160002060009054906101000a900460ff169050919050565b600063bc197c8160e01b905095945050505050565b6127c281610f21565b1580156127d557506127d381611c5e565b155b80156127e657506127e581610f4b565b5b612825576040517f08c379a000000000000000000000000000000000000000000000000000000000815260040161281c90614685565b60405180910390fd5b600061283082611b45565b905060006103e8826128429190613fc3565b9050600081836128529190613e35565b90506002600085815260200190815260200160002054816128739190613fc3565b6006600086815260200190815260200160002081905550816004600086815260200190815260200160002060008282546128ad9190613e35565b9250508190555060016009600086815260200190815260200160002060006101000a81548160ff0219169083151502179055507f000000000000000000000000000000000000000000000000000000000000000073ffffffffffffffffffffffffffffffffffffffff1663a9059cbb33846040518363ffffffff1660e01b815260040161293b929190614161565b6020604051808303816000875af115801561295a573d6000803e3d6000fd5b505050506040513d601f19601f8201168201806040525081019061297e91906141b6565b50837fac2eeaf45d1b75aed6b3285cda3efb3c382cce02ba313558bbb90be57f8843e484836040516129b1929190613ff4565b60405180910390a250505050565b6000600b6000838152602001908152602001600020549050919050565b60007f0000000000000000000000000000000000000000000000000000000000000000905090565b6000427f000000000000000000000000000000000000000000000000000000000000000073ffffffffffffffffffffffffffffffffffffffff16634dd9c9c7846040518263ffffffff1660e01b8152600401612a60919061361e565b61012060405180830381865afa158015612a7e573d6000803e3d6000fd5b505050506040513d601f19601f82011682018060405250810190612aa29190613dd8565b60400151612ab09190613e35565b9050919050565b7f000000000000000000000000000000000000000000000000000000000000000073ffffffffffffffffffffffffffffffffffffffff163373ffffffffffffffffffffffffffffffffffffffff1614612b45576040517f08c379a0000000000000000000000000000000000000000000000000000000008152600401612b3c90614069565b60405180910390fd5b612b4e82610f21565b80612b5e5750612b5d82611543565b5b158015612b715750612b6f82611c5e565b155b612bb0576040517f08c379a0000000000000000000000000000000000000000000000000000000008152600401612ba7906146f1565b60405180910390fd5b80600460008481526020019081526020016000206000828254612bd39190614327565b925050819055507f000000000000000000000000000000000000000000000000000000000000000073ffffffffffffffffffffffffffffffffffffffff166323b872dd3330846040518463ffffffff1660e01b8152600401612c37939291906144c6565b6020604051808303816000875af1158015612c56573d6000803e3d6000fd5b505050506040513d601f19601f82011682018060405250810190612c7a91906141b6565b505050565b60007f000000000000000000000000000000000000000000000000000000000000000073ffffffffffffffffffffffffffffffffffffffff166370a08231306040518263ffffffff1660e01b8152600401612cda919061379a565b602060405180830381865afa158015612cf7573d6000803e3d6000fd5b505050506040513d601f19601f82011682018060405250810190612d1b91906144fd565b905090565b7f000000000000000000000000000000000000000000000000000000000000000073ffffffffffffffffffffffffffffffffffffffff163373ffffffffffffffffffffffffffffffffffffffff1614612dae576040517f08c379a0000000000000000000000000000000000000000000000000000000008152600401612da590614069565b60405180910390fd5b612db781611c5e565b8015612dc85750612dc7816111e9565b5b612e07576040517f08c379a0000000000000000000000000000000000000000000000000000000008152600401612dfe906140d5565b60405180910390fd5b6000600460008381526020019081526020016000205411612e5d576040517f08c379a0000000000000000000000000000000000000000000000000000000008152600401612e549061475d565b60405180910390fd5b600060046000838152602001908152602001600020819055507f000000000000000000000000000000000000000000000000000000000000000073ffffffffffffffffffffffffffffffffffffffff1663a9059cbb3360046000858152602001908152602001600020546040518363ffffffff1660e01b8152600401612ee4929190614161565b6020604051808303816000875af1158015612f03573d6000803e3d6000fd5b505050506040513d601f19601f82011682018060405250810190612f2791906141b6565b5050565b600060046000838152602001908152602001600020549050919050565b600063f23a6e6160e01b905095945050505050565b60007f000000000000000000000000000000000000000000000000000000000000000073ffffffffffffffffffffffffffffffffffffffff163373ffffffffffffffffffffffffffffffffffffffff1614612fed576040517f08c379a0000000000000000000000000000000000000000000000000000000008152600401612fe490614069565b60405180910390fd5b87871061302f576040517f08c379a0000000000000000000000000000000000000000000000000000000008152600401613026906147c9565b60405180910390fd5b60b4841015613073576040517f08c379a000000000000000000000000000000000000000000000000000000000815260040161306a90614835565b60405180910390fd5b60078311156130b7576040517f08c379a00000000000000000000000000000000000000000000000000000000081526004016130ae906148a1565b60405180910390fd5b6130c1600a6134c7565b600060405180606001604052808781526020017f000000000000000000000000000000000000000000000000000000000000000073ffffffffffffffffffffffffffffffffffffffff1681526020013373ffffffffffffffffffffffffffffffffffffffff168152509050600060405180610120016040528089815260200142815260200162015180886131559190613e69565b426131609190614327565b815260200162015180876131749190613e69565b4261317f9190614327565b81526020018681526020018781526020018b81526020018a81526020018581525090507f000000000000000000000000000000000000000000000000000000000000000073ffffffffffffffffffffffffffffffffffffffff16634196afd4308c84866040518563ffffffff1660e01b81526004016132019493929190614a56565b6020604051808303816000875af1158015613220573d6000803e3d6000fd5b505050506040513d601f19601f8201168201806040525081019061324491906144fd565b9250600183908060018154018082558091505060019003906000526020600020016000909190919091505560016007600085815260200190815260200160002060006101000a81548160ff0219169083151502179055506002866132a89190613fc3565b600b6000858152602001908152602001600020819055507f000000000000000000000000000000000000000000000000000000000000000073ffffffffffffffffffffffffffffffffffffffff1663b54cb16560026040518263ffffffff1660e01b8152600401613319919061361e565b600060405180830381600087803b15801561333357600080fd5b505af1158015613347573d6000803e3d6000fd5b505050507f000000000000000000000000000000000000000000000000000000000000000073ffffffffffffffffffffffffffffffffffffffff1663bea75cf47f000000000000000000000000000000000000000000000000000000000000000060026040518363ffffffff1660e01b81526004016133c7929190614161565b600060405180830381600087803b1580156133e157600080fd5b505af11580156133f5573d6000803e3d6000fd5b50505050827ff73e436c94925e1e8b2f0b16de0a2c56aea7fb27878f7815811bc05bc6c335e88b8a87620151808b61342d9190613e69565b426134389190614327565b6040516134489493929190614aa4565b60405180910390a25050979650505050505050565b60007f01ffc9a7000000000000000000000000000000000000000000000000000000007bffffffffffffffffffffffffffffffffffffffffffffffffffffffff1916827bffffffffffffffffffffffffffffffffffffffffffffffffffffffff1916149050919050565b6001816000016000828254019250508190555050565b6000604051905090565b600080fd5b600080fd5b60007fffffffff0000000000000000000000000000000000000000000000000000000082169050919050565b613526816134f1565b811461353157600080fd5b50565b6000813590506135438161351d565b92915050565b60006020828403121561355f5761355e6134e7565b5b600061356d84828501613534565b91505092915050565b60008115159050919050565b61358b81613576565b82525050565b60006020820190506135a66000830184613582565b92915050565b6000819050919050565b6135bf816135ac565b81146135ca57600080fd5b50565b6000813590506135dc816135b6565b92915050565b6000602082840312156135f8576135f76134e7565b5b6000613606848285016135cd565b91505092915050565b613618816135ac565b82525050565b6000602082019050613633600083018461360f565b92915050565b600081519050919050565b600082825260208201905092915050565b6000819050602082019050919050565b61366e816135ac565b82525050565b60006136808383613665565b60208301905092915050565b6000602082019050919050565b60006136a482613639565b6136ae8185613644565b93506136b983613655565b8060005b838110156136ea5781516136d18882613674565b97506136dc8361368c565b9250506001810190506136bd565b5085935050505092915050565b600060208201905081810360008301526137118184613699565b905092915050565b600080604083850312156137305761372f6134e7565b5b600061373e858286016135cd565b925050602061374f858286016135cd565b9150509250929050565b600073ffffffffffffffffffffffffffffffffffffffff82169050919050565b600061378482613759565b9050919050565b61379481613779565b82525050565b60006020820190506137af600083018461378b565b92915050565b6137be81613779565b81146137c957600080fd5b50565b6000813590506137db816137b5565b92915050565b600080fd5b6000601f19601f8301169050919050565b7f4e487b7100000000000000000000000000000000000000000000000000000000600052604160045260246000fd5b61382f826137e6565b810181811067ffffffffffffffff8211171561384e5761384d6137f7565b5b80604052505050565b60006138616134dd565b905061386d8282613826565b919050565b600067ffffffffffffffff82111561388d5761388c6137f7565b5b602082029050602081019050919050565b600080fd5b60006138b66138b184613872565b613857565b905080838252602082019050602084028301858111156138d9576138d861389e565b5b835b8181101561390257806138ee88826135cd565b8452602084019350506020810190506138db565b5050509392505050565b600082601f830112613921576139206137e1565b5b81356139318482602086016138a3565b91505092915050565b600080fd5b600067ffffffffffffffff82111561395a576139596137f7565b5b613963826137e6565b9050602081019050919050565b82818337600083830152505050565b600061399261398d8461393f565b613857565b9050828152602081018484840111156139ae576139ad61393a565b5b6139b9848285613970565b509392505050565b600082601f8301126139d6576139d56137e1565b5b81356139e684826020860161397f565b91505092915050565b600080600080600060a08688031215613a0b57613a0a6134e7565b5b6000613a19888289016137cc565b9550506020613a2a888289016137cc565b945050604086013567ffffffffffffffff811115613a4b57613a4a6134ec565b5b613a578882890161390c565b935050606086013567ffffffffffffffff811115613a7857613a776134ec565b5b613a848882890161390c565b925050608086013567ffffffffffffffff811115613aa557613aa46134ec565b5b613ab1888289016139c1565b9150509295509295909350565b613ac7816134f1565b82525050565b6000602082019050613ae26000830184613abe565b92915050565b600080600080600060a08688031215613b0457613b036134e7565b5b6000613b12888289016137cc565b9550506020613b23888289016137cc565b9450506040613b34888289016135cd565b9350506060613b45888289016135cd565b925050608086013567ffffffffffffffff811115613b6657613b656134ec565b5b613b72888289016139c1565b9150509295509295909350565b600067ffffffffffffffff821115613b9a57613b996137f7565b5b613ba3826137e6565b9050602081019050919050565b6000613bc3613bbe84613b7f565b613857565b905082815260208101848484011115613bdf57613bde61393a565b5b613bea848285613970565b509392505050565b600082601f830112613c0757613c066137e1565b5b8135613c17848260208601613bb0565b91505092915050565b600080600080600080600060e0888a031215613c3f57613c3e6134e7565b5b6000613c4d8a828b016135cd565b9750506020613c5e8a828b016135cd565b9650506040613c6f8a828b016135cd565b955050606088013567ffffffffffffffff811115613c9057613c8f6134ec565b5b613c9c8a828b01613bf2565b9450506080613cad8a828b016135cd565b93505060a0613cbe8a828b016135cd565b92505060c0613ccf8a828b016135cd565b91505092959891949750929550565b600080fd5b600081519050613cf2816135b6565b92915050565b60006101208284031215613d0f57613d0e613cde565b5b613d1a610120613857565b90506000613d2a84828501613ce3565b6000830152506020613d3e84828501613ce3565b6020830152506040613d5284828501613ce3565b6040830152506060613d6684828501613ce3565b6060830152506080613d7a84828501613ce3565b60808301525060a0613d8e84828501613ce3565b60a08301525060c0613da284828501613ce3565b60c08301525060e0613db684828501613ce3565b60e083015250610100613dcb84828501613ce3565b6101008301525092915050565b60006101208284031215613def57613dee6134e7565b5b6000613dfd84828501613cf8565b91505092915050565b7f4e487b7100000000000000000000000000000000000000000000000000000000600052601160045260246000fd5b6000613e40826135ac565b9150613e4b836135ac565b9250828203905081811115613e6357613e62613e06565b5b92915050565b6000613e74826135ac565b9150613e7f836135ac565b9250828202613e8d816135ac565b91508282048414831517613ea457613ea3613e06565b5b5092915050565b600082825260208201905092915050565b7f4342430000000000000000000000000000000000000000000000000000000000600082015250565b6000613ef2600383613eab565b9150613efd82613ebc565b602082019050919050565b60006020820190508181036000830152613f2181613ee5565b9050919050565b7f4d4f504e57000000000000000000000000000000000000000000000000000000600082015250565b6000613f5e600583613eab565b9150613f6982613f28565b602082019050919050565b60006020820190508181036000830152613f8d81613f51565b9050919050565b7f4e487b7100000000000000000000000000000000000000000000000000000000600052601260045260246000fd5b6000613fce826135ac565b9150613fd9836135ac565b925082613fe957613fe8613f94565b5b828204905092915050565b6000604082019050614009600083018561360f565b614016602083018461360f565b9392505050565b7f4e544f0000000000000000000000000000000000000000000000000000000000600082015250565b6000614053600383613eab565b915061405e8261401d565b602082019050919050565b6000602082019050818103600083015261408281614046565b9050919050565b7f574e410000000000000000000000000000000000000000000000000000000000600082015250565b60006140bf600383613eab565b91506140ca82614089565b602082019050919050565b600060208201905081810360008301526140ee816140b2565b9050919050565b7f5741450000000000000000000000000000000000000000000000000000000000600082015250565b600061412b600383613eab565b9150614136826140f5565b602082019050919050565b6000602082019050818103600083015261415a8161411e565b9050919050565b6000604082019050614176600083018561378b565b614183602083018461360f565b9392505050565b61419381613576565b811461419e57600080fd5b50565b6000815190506141b08161418a565b92915050565b6000602082840312156141cc576141cb6134e7565b5b60006141da848285016141a1565b91505092915050565b7f504d444e41000000000000000000000000000000000000000000000000000000600082015250565b6000614219600583613eab565b9150614224826141e3565b602082019050919050565b600060208201905081810360008301526142488161420c565b9050919050565b7f4942000000000000000000000000000000000000000000000000000000000000600082015250565b6000614285600283613eab565b91506142908261424f565b602082019050919050565b600060208201905081810360008301526142b481614278565b9050919050565b7f4951000000000000000000000000000000000000000000000000000000000000600082015250565b60006142f1600283613eab565b91506142fc826142bb565b602082019050919050565b60006020820190508181036000830152614320816142e4565b9050919050565b6000614332826135ac565b915061433d836135ac565b925082820190508082111561435557614354613e06565b5b92915050565b6000604082019050614370600083018561360f565b61437d602083018461378b565b9392505050565b6000606082019050614399600083018661360f565b6143a6602083018561378b565b6143b3604083018461378b565b949350505050565b60006080820190506143d0600083018761360f565b6143dd602083018661378b565b6143ea604083018561378b565b6143f7606083018461360f565b95945050505050565b6000606082019050614415600083018661360f565b614422602083018561378b565b61442f604083018461360f565b949350505050565b600082825260208201905092915050565b50565b6000614458600083614437565b915061446382614448565b600082019050919050565b600060a082019050614483600083018761378b565b614490602083018661378b565b61449d604083018561360f565b6144aa606083018461360f565b81810360808301526144bb8161444b565b905095945050505050565b60006060820190506144db600083018661378b565b6144e8602083018561378b565b6144f5604083018461360f565b949350505050565b600060208284031215614513576145126134e7565b5b600061452184828501613ce3565b91505092915050565b7f524e410000000000000000000000000000000000000000000000000000000000600082015250565b6000614560600383613eab565b915061456b8261452a565b602082019050919050565b6000602082019050818103600083015261458f81614553565b9050919050565b60006060820190506145ab600083018661378b565b6145b8602083018561360f565b6145c5604083018461360f565b949350505050565b7f4d41444e41000000000000000000000000000000000000000000000000000000600082015250565b6000614603600583613eab565b915061460e826145cd565b602082019050919050565b60006020820190508181036000830152614632816145f6565b9050919050565b7f4d41434e41000000000000000000000000000000000000000000000000000000600082015250565b600061466f600583613eab565b915061467a82614639565b602082019050919050565b6000602082019050818103600083015261469e81614662565b9050919050565b7f444e410000000000000000000000000000000000000000000000000000000000600082015250565b60006146db600383613eab565b91506146e6826146a5565b602082019050919050565b6000602082019050818103600083015261470a816146ce565b9050919050565b7f5746450000000000000000000000000000000000000000000000000000000000600082015250565b6000614747600383613eab565b915061475282614711565b602082019050919050565b600060208201905081810360008301526147768161473a565b9050919050565b7f4d50514754425100000000000000000000000000000000000000000000000000600082015250565b60006147b3600783613eab565b91506147be8261477d565b602082019050919050565b600060208201905081810360008301526147e2816147a6565b9050919050565b7f4442364d00000000000000000000000000000000000000000000000000000000600082015250565b600061481f600483613eab565b915061482a826147e9565b602082019050919050565b6000602082019050818103600083015261484e81614812565b9050919050565b7f4144413744000000000000000000000000000000000000000000000000000000600082015250565b600061488b600583613eab565b915061489682614855565b602082019050919050565b600060208201905081810360008301526148ba8161487e565b9050919050565b610120820160008201516148d86000850182613665565b5060208201516148eb6020850182613665565b5060408201516148fe6040850182613665565b5060608201516149116060850182613665565b5060808201516149246080850182613665565b5060a082015161493760a0850182613665565b5060c082015161494a60c0850182613665565b5060e082015161495d60e0850182613665565b50610100820151614972610100850182613665565b50505050565b600081519050919050565b600082825260208201905092915050565b60005b838110156149b2578082015181840152602081019050614997565b60008484015250505050565b60006149c982614978565b6149d38185614983565b93506149e3818560208601614994565b6149ec816137e6565b840191505092915050565b614a0081613779565b82525050565b60006060830160008301518482036000860152614a2382826149be565b9150506020830151614a3860208601826149f7565b506040830151614a4b60408601826149f7565b508091505092915050565b600061018082019050614a6c600083018761378b565b614a79602083018661360f565b614a8660408301856148c1565b818103610160830152614a998184614a06565b905095945050505050565b6000608082019050614ab9600083018761360f565b614ac6602083018661360f565b614ad3604083018561360f565b614ae0606083018461360f565b9594505050505056fea2646970667358221220198605b787f4f14c60805820013066bd71e6ea6c5b419582e9d3ea5b5a6b9a3364736f6c63430008110033",
  "linkReferences": {},
  "deployedLinkReferences": {}
}