{
  "_format": "hh-sol-artifact-1",
  "contractName": "CallableBondFactory",
  "sourceName": "contracts/CallableBondFactory.sol",
  "abi": [
    {
      "inputs": [
        {
          "internalType": "string",
          "name": "uri",
          "type": "string"
        },
        {
          "internalType": "address",
          "name": "token",
          "type": "address"
        }
      ],
      "stateMutability": "nonpayable",
      "type": "constructor"
    },
    {
      "anonymous": false,
      "inputs": [
        {
          "indexed": true,
          "internalType": "address",
          "name": "account",
          "type": "address"
        },
        {
          "indexed": true,
          "internalType": "address",
          "name": "operator",
          "type": "address"
        },
        {
          "indexed": false,
          "internalType": "bool",
          "name": "approved",
          "type": "bool"
        }
      ],
      "name": "ApprovalForAll",
      "type": "event"
    },
    {
      "anonymous": false,
      "inputs": [
        {
          "indexed": true,
          "internalType": "uint256",
          "name": "id",
          "type": "uint256"
        },
        {
          "indexed": false,
          "internalType": "uint256",
          "name": "couponRate",
          "type": "uint256"
        },
        {
          "indexed": false,
          "internalType": "uint256",
          "name": "couponRateOnCall",
          "type": "uint256"
        }
      ],
      "name": "Called",
      "type": "event"
    },
    {
      "anonymous": false,
      "inputs": [
        {
          "indexed": true,
          "internalType": "uint256",
          "name": "id",
          "type": "uint256"
        },
        {
          "indexed": false,
          "internalType": "uint256",
          "name": "totalDebt",
          "type": "uint256"
        },
        {
          "indexed": false,
          "internalType": "uint256",
          "name": "paidDebt",
          "type": "uint256"
        }
      ],
      "name": "Completed",
      "type": "event"
    },
    {
      "anonymous": false,
      "inputs": [
        {
          "indexed": true,
          "internalType": "uint256",
          "name": "id",
          "type": "uint256"
        },
        {
          "indexed": false,
          "internalType": "uint256",
          "name": "totalDebt",
          "type": "uint256"
        },
        {
          "indexed": false,
          "internalType": "uint256",
          "name": "paidDebt",
          "type": "uint256"
        }
      ],
      "name": "Defaulted",
      "type": "event"
    },
    {
      "anonymous": false,
      "inputs": [
        {
          "indexed": true,
          "internalType": "uint256",
          "name": "id",
          "type": "uint256"
        },
        {
          "indexed": false,
          "internalType": "uint256",
          "name": "bondQuantity",
          "type": "uint256"
        },
        {
          "indexed": false,
          "internalType": "uint256",
          "name": "tokenAmountPerBond",
          "type": "uint256"
        },
        {
          "indexed": false,
          "internalType": "uint256",
          "name": "couponRate",
          "type": "uint256"
        }
      ],
      "name": "Issued",
      "type": "event"
    },
    {
      "anonymous": false,
      "inputs": [
        {
          "indexed": true,
          "internalType": "address",
          "name": "operator",
          "type": "address"
        },
        {
          "indexed": true,
          "internalType": "address",
          "name": "from",
          "type": "address"
        },
        {
          "indexed": true,
          "internalType": "address",
          "name": "to",
          "type": "address"
        },
        {
          "indexed": false,
          "internalType": "uint256[]",
          "name": "ids",
          "type": "uint256[]"
        },
        {
          "indexed": false,
          "internalType": "uint256[]",
          "name": "values",
          "type": "uint256[]"
        }
      ],
      "name": "TransferBatch",
      "type": "event"
    },
    {
      "anonymous": false,
      "inputs": [
        {
          "indexed": true,
          "internalType": "address",
          "name": "operator",
          "type": "address"
        },
        {
          "indexed": true,
          "internalType": "address",
          "name": "from",
          "type": "address"
        },
        {
          "indexed": true,
          "internalType": "address",
          "name": "to",
          "type": "address"
        },
        {
          "indexed": false,
          "internalType": "uint256",
          "name": "id",
          "type": "uint256"
        },
        {
          "indexed": false,
          "internalType": "uint256",
          "name": "value",
          "type": "uint256"
        }
      ],
      "name": "TransferSingle",
      "type": "event"
    },
    {
      "anonymous": false,
      "inputs": [
        {
          "indexed": false,
          "internalType": "string",
          "name": "value",
          "type": "string"
        },
        {
          "indexed": true,
          "internalType": "uint256",
          "name": "id",
          "type": "uint256"
        }
      ],
      "name": "URI",
      "type": "event"
    },
    {
      "inputs": [
        {
          "internalType": "address",
          "name": "account",
          "type": "address"
        },
        {
          "internalType": "uint256",
          "name": "id",
          "type": "uint256"
        }
      ],
      "name": "balanceOf",
      "outputs": [
        {
          "internalType": "uint256",
          "name": "",
          "type": "uint256"
        }
      ],
      "stateMutability": "view",
      "type": "function"
    },
    {
      "inputs": [
        {
          "internalType": "address[]",
          "name": "accounts",
          "type": "address[]"
        },
        {
          "internalType": "uint256[]",
          "name": "ids",
          "type": "uint256[]"
        }
      ],
      "name": "balanceOfBatch",
      "outputs": [
        {
          "internalType": "uint256[]",
          "name": "",
          "type": "uint256[]"
        }
      ],
      "stateMutability": "view",
      "type": "function"
    },
    {
      "inputs": [
        {
          "internalType": "uint256",
          "name": "id",
          "type": "uint256"
        }
      ],
      "name": "bondmetaData",
      "outputs": [
        {
          "internalType": "string",
          "name": "",
          "type": "string"
        },
        {
          "internalType": "uint256",
          "name": "",
          "type": "uint256"
        },
        {
          "internalType": "uint256",
          "name": "",
          "type": "uint256"
        },
        {
          "internalType": "uint256",
          "name": "",
          "type": "uint256"
        },
        {
          "internalType": "uint256",
          "name": "",
          "type": "uint256"
        },
        {
          "internalType": "uint256",
          "name": "",
          "type": "uint256"
        },
        {
          "internalType": "uint256",
          "name": "",
          "type": "uint256"
        },
        {
          "internalType": "uint256",
          "name": "",
          "type": "uint256"
        },
        {
          "internalType": "uint256",
          "name": "",
          "type": "uint256"
        },
        {
          "internalType": "uint256",
          "name": "",
          "type": "uint256"
        }
      ],
      "stateMutability": "view",
      "type": "function"
    },
    {
      "inputs": [
        {
          "internalType": "uint256",
          "name": "id",
          "type": "uint256"
        }
      ],
      "name": "call",
      "outputs": [],
      "stateMutability": "nonpayable",
      "type": "function"
    },
    {
      "inputs": [
        {
          "internalType": "uint256",
          "name": "id",
          "type": "uint256"
        }
      ],
      "name": "couponRate",
      "outputs": [
        {
          "internalType": "uint256",
          "name": "",
          "type": "uint256"
        }
      ],
      "stateMutability": "view",
      "type": "function"
    },
    {
      "inputs": [
        {
          "internalType": "uint256",
          "name": "id",
          "type": "uint256"
        }
      ],
      "name": "couponRateOnCall",
      "outputs": [
        {
          "internalType": "uint256",
          "name": "",
          "type": "uint256"
        }
      ],
      "stateMutability": "view",
      "type": "function"
    },
    {
      "inputs": [
        {
          "internalType": "uint256",
          "name": "id",
          "type": "uint256"
        },
        {
          "internalType": "uint256",
          "name": "tokenAmount",
          "type": "uint256"
        }
      ],
      "name": "deposit",
      "outputs": [],
      "stateMutability": "nonpayable",
      "type": "function"
    },
    {
      "inputs": [
        {
          "internalType": "uint256",
          "name": "id",
          "type": "uint256"
        }
      ],
      "name": "hasReachedMaturity",
      "outputs": [
        {
          "internalType": "bool",
          "name": "",
          "type": "bool"
        }
      ],
      "stateMutability": "view",
      "type": "function"
    },
    {
      "inputs": [
        {
          "internalType": "uint256",
          "name": "id",
          "type": "uint256"
        }
      ],
      "name": "isActive",
      "outputs": [
        {
          "internalType": "bool",
          "name": "",
          "type": "bool"
        }
      ],
      "stateMutability": "view",
      "type": "function"
    },
    {
      "inputs": [
        {
          "internalType": "address",
          "name": "account",
          "type": "address"
        },
        {
          "internalType": "address",
          "name": "operator",
          "type": "address"
        }
      ],
      "name": "isApprovedForAll",
      "outputs": [
        {
          "internalType": "bool",
          "name": "",
          "type": "bool"
        }
      ],
      "stateMutability": "view",
      "type": "function"
    },
    {
      "inputs": [
        {
          "internalType": "uint256",
          "name": "id",
          "type": "uint256"
        }
      ],
      "name": "isCanceled",
      "outputs": [
        {
          "internalType": "bool",
          "name": "",
          "type": "bool"
        }
      ],
      "stateMutability": "view",
      "type": "function"
    },
    {
      "inputs": [
        {
          "internalType": "uint256",
          "name": "id",
          "type": "uint256"
        }
      ],
      "name": "isCompleted",
      "outputs": [
        {
          "internalType": "bool",
          "name": "",
          "type": "bool"
        }
      ],
      "stateMutability": "view",
      "type": "function"
    },
    {
      "inputs": [
        {
          "internalType": "uint256",
          "name": "id",
          "type": "uint256"
        }
      ],
      "name": "isCompletedInTheory",
      "outputs": [
        {
          "internalType": "bool",
          "name": "",
          "type": "bool"
        }
      ],
      "stateMutability": "view",
      "type": "function"
    },
    {
      "inputs": [
        {
          "internalType": "uint256",
          "name": "id",
          "type": "uint256"
        }
      ],
      "name": "isDefaulted",
      "outputs": [
        {
          "internalType": "bool",
          "name": "",
          "type": "bool"
        }
      ],
      "stateMutability": "view",
      "type": "function"
    },
    {
      "inputs": [
        {
          "internalType": "uint256",
          "name": "id",
          "type": "uint256"
        }
      ],
      "name": "isDefaultedInTheory",
      "outputs": [
        {
          "internalType": "bool",
          "name": "",
          "type": "bool"
        }
      ],
      "stateMutability": "view",
      "type": "function"
    },
    {
      "inputs": [
        {
          "internalType": "uint256",
          "name": "id",
          "type": "uint256"
        }
      ],
      "name": "isFulfilled",
      "outputs": [
        {
          "internalType": "bool",
          "name": "",
          "type": "bool"
        }
      ],
      "stateMutability": "view",
      "type": "function"
    },
    {
      "inputs": [
        {
          "internalType": "uint256",
          "name": "id",
          "type": "uint256"
        }
      ],
      "name": "isFullyRedeemed",
      "outputs": [
        {
          "internalType": "bool",
          "name": "",
          "type": "bool"
        }
      ],
      "stateMutability": "view",
      "type": "function"
    },
    {
      "inputs": [
        {
          "internalType": "uint256",
          "name": "bondQuantity",
          "type": "uint256"
        },
        {
          "internalType": "uint256",
          "name": "minPurchasedQuantity",
          "type": "uint256"
        },
        {
          "internalType": "uint256",
          "name": "tokenAmountPerBond",
          "type": "uint256"
        },
        {
          "internalType": "string",
          "name": "ticker",
          "type": "string"
        },
        {
          "internalType": "uint256",
          "name": "durationDays",
          "type": "uint256"
        },
        {
          "internalType": "uint256",
          "name": "activeDurationInDays",
          "type": "uint256"
        },
        {
          "internalType": "uint256",
          "name": "rate",
          "type": "uint256"
        },
        {
          "internalType": "bytes",
          "name": "data",
          "type": "bytes"
        }
      ],
      "name": "issue",
      "outputs": [
        {
          "internalType": "uint256",
          "name": "id",
          "type": "uint256"
        }
      ],
      "stateMutability": "nonpayable",
      "type": "function"
    },
    {
      "inputs": [
        {
          "internalType": "uint256",
          "name": "id",
          "type": "uint256"
        }
      ],
      "name": "markAsCompleted",
      "outputs": [],
      "stateMutability": "nonpayable",
      "type": "function"
    },
    {
      "inputs": [
        {
          "internalType": "uint256",
          "name": "id",
          "type": "uint256"
        }
      ],
      "name": "markAsDefaulted",
      "outputs": [],
      "stateMutability": "nonpayable",
      "type": "function"
    },
    {
      "inputs": [
        {
          "internalType": "uint256",
          "name": "id",
          "type": "uint256"
        }
      ],
      "name": "poolAmount",
      "outputs": [
        {
          "internalType": "uint256",
          "name": "",
          "type": "uint256"
        }
      ],
      "stateMutability": "view",
      "type": "function"
    },
    {
      "inputs": [
        {
          "internalType": "uint256",
          "name": "id",
          "type": "uint256"
        }
      ],
      "name": "principal",
      "outputs": [
        {
          "internalType": "uint256",
          "name": "",
          "type": "uint256"
        }
      ],
      "stateMutability": "view",
      "type": "function"
    },
    {
      "inputs": [
        {
          "internalType": "uint256",
          "name": "id",
          "type": "uint256"
        }
      ],
      "name": "principalWithInterest",
      "outputs": [
        {
          "internalType": "uint256",
          "name": "",
          "type": "uint256"
        }
      ],
      "stateMutability": "view",
      "type": "function"
    },
    {
      "inputs": [
        {
          "internalType": "uint256",
          "name": "id",
          "type": "uint256"
        },
        {
          "internalType": "uint256",
          "name": "bondQuantity",
          "type": "uint256"
        }
      ],
      "name": "purchase",
      "outputs": [],
      "stateMutability": "nonpayable",
      "type": "function"
    },
    {
      "inputs": [
        {
          "internalType": "uint256",
          "name": "id",
          "type": "uint256"
        },
        {
          "internalType": "uint256",
          "name": "bondQuantity",
          "type": "uint256"
        }
      ],
      "name": "redeem",
      "outputs": [],
      "stateMutability": "nonpayable",
      "type": "function"
    },
    {
      "inputs": [
        {
          "internalType": "uint256",
          "name": "id",
          "type": "uint256"
        },
        {
          "internalType": "uint256",
          "name": "bondQuantity",
          "type": "uint256"
        }
      ],
      "name": "redeemCanceled",
      "outputs": [],
      "stateMutability": "nonpayable",
      "type": "function"
    },
    {
      "inputs": [
        {
          "internalType": "uint256",
          "name": "id",
          "type": "uint256"
        },
        {
          "internalType": "uint256",
          "name": "bondQuantity",
          "type": "uint256"
        }
      ],
      "name": "redeemDefaulted",
      "outputs": [],
      "stateMutability": "nonpayable",
      "type": "function"
    },
    {
      "inputs": [
        {
          "internalType": "uint256",
          "name": "id",
          "type": "uint256"
        }
      ],
      "name": "remainingQuantity",
      "outputs": [
        {
          "internalType": "uint256",
          "name": "",
          "type": "uint256"
        }
      ],
      "stateMutability": "view",
      "type": "function"
    },
    {
      "inputs": [
        {
          "internalType": "address",
          "name": "from",
          "type": "address"
        },
        {
          "internalType": "address",
          "name": "to",
          "type": "address"
        },
        {
          "internalType": "uint256[]",
          "name": "ids",
          "type": "uint256[]"
        },
        {
          "internalType": "uint256[]",
          "name": "amounts",
          "type": "uint256[]"
        },
        {
          "internalType": "bytes",
          "name": "data",
          "type": "bytes"
        }
      ],
      "name": "safeBatchTransferFrom",
      "outputs": [],
      "stateMutability": "nonpayable",
      "type": "function"
    },
    {
      "inputs": [
        {
          "internalType": "address",
          "name": "from",
          "type": "address"
        },
        {
          "internalType": "address",
          "name": "to",
          "type": "address"
        },
        {
          "internalType": "uint256",
          "name": "id",
          "type": "uint256"
        },
        {
          "internalType": "uint256",
          "name": "amount",
          "type": "uint256"
        },
        {
          "internalType": "bytes",
          "name": "data",
          "type": "bytes"
        }
      ],
      "name": "safeTransferFrom",
      "outputs": [],
      "stateMutability": "nonpayable",
      "type": "function"
    },
    {
      "inputs": [
        {
          "internalType": "address",
          "name": "operator",
          "type": "address"
        },
        {
          "internalType": "bool",
          "name": "approved",
          "type": "bool"
        }
      ],
      "name": "setApprovalForAll",
      "outputs": [],
      "stateMutability": "nonpayable",
      "type": "function"
    },
    {
      "inputs": [
        {
          "internalType": "bytes4",
          "name": "interfaceId",
          "type": "bytes4"
        }
      ],
      "name": "supportsInterface",
      "outputs": [
        {
          "internalType": "bool",
          "name": "",
          "type": "bool"
        }
      ],
      "stateMutability": "view",
      "type": "function"
    },
    {
      "inputs": [
        {
          "internalType": "uint256",
          "name": "id",
          "type": "uint256"
        }
      ],
      "name": "timeElapsed",
      "outputs": [
        {
          "internalType": "uint256",
          "name": "",
          "type": "uint256"
        }
      ],
      "stateMutability": "view",
      "type": "function"
    },
    {
      "inputs": [
        {
          "internalType": "uint256",
          "name": "id",
          "type": "uint256"
        }
      ],
      "name": "timeRemainingToEndOfActive",
      "outputs": [
        {
          "internalType": "uint256",
          "name": "",
          "type": "uint256"
        }
      ],
      "stateMutability": "view",
      "type": "function"
    },
    {
      "inputs": [
        {
          "internalType": "uint256",
          "name": "id",
          "type": "uint256"
        }
      ],
      "name": "timeRemainingToMaturity",
      "outputs": [
        {
          "internalType": "uint256",
          "name": "",
          "type": "uint256"
        }
      ],
      "stateMutability": "view",
      "type": "function"
    },
    {
      "inputs": [],
      "name": "tvl",
      "outputs": [
        {
          "internalType": "uint256",
          "name": "",
          "type": "uint256"
        }
      ],
      "stateMutability": "view",
      "type": "function"
    },
    {
      "inputs": [
        {
          "internalType": "uint256",
          "name": "",
          "type": "uint256"
        }
      ],
      "name": "uri",
      "outputs": [
        {
          "internalType": "string",
          "name": "",
          "type": "string"
        }
      ],
      "stateMutability": "view",
      "type": "function"
    },
    {
      "inputs": [
        {
          "internalType": "uint256",
          "name": "id",
          "type": "uint256"
        },
        {
          "internalType": "uint256",
          "name": "tokenAmount",
          "type": "uint256"
        }
      ],
      "name": "withdraw",
      "outputs": [],
      "stateMutability": "nonpayable",
      "type": "function"
    },
    {
      "inputs": [
        {
          "internalType": "uint256",
          "name": "id",
          "type": "uint256"
        }
      ],
      "name": "withdrawExcess",
      "outputs": [],
      "stateMutability": "nonpayable",
      "type": "function"
    }
  ],
  "bytecode": "0x60c060405260006003553480156200001657600080fd5b5060405162005f8a38038062005f8a83398181016040528101906200003c9190620002d0565b8181816200005081620000c360201b60201c565b503373ffffffffffffffffffffffffffffffffffffffff1660808173ffffffffffffffffffffffffffffffffffffffff16815250508073ffffffffffffffffffffffffffffffffffffffff1660a08173ffffffffffffffffffffffffffffffffffffffff16815250505050505062000668565b8060029081620000d4919062000581565b5050565b6000604051905090565b600080fd5b600080fd5b600080fd5b600080fd5b6000601f19601f8301169050919050565b7f4e487b7100000000000000000000000000000000000000000000000000000000600052604160045260246000fd5b6200014182620000f6565b810181811067ffffffffffffffff8211171562000163576200016262000107565b5b80604052505050565b600062000178620000d8565b905062000186828262000136565b919050565b600067ffffffffffffffff821115620001a957620001a862000107565b5b620001b482620000f6565b9050602081019050919050565b60005b83811015620001e1578082015181840152602081019050620001c4565b60008484015250505050565b600062000204620001fe846200018b565b6200016c565b905082815260208101848484011115620002235762000222620000f1565b5b62000230848285620001c1565b509392505050565b600082601f83011262000250576200024f620000ec565b5b815162000262848260208601620001ed565b91505092915050565b600073ffffffffffffffffffffffffffffffffffffffff82169050919050565b600062000298826200026b565b9050919050565b620002aa816200028b565b8114620002b657600080fd5b50565b600081519050620002ca816200029f565b92915050565b60008060408385031215620002ea57620002e9620000e2565b5b600083015167ffffffffffffffff8111156200030b576200030a620000e7565b5b620003198582860162000238565b92505060206200032c85828601620002b9565b9150509250929050565b600081519050919050565b7f4e487b7100000000000000000000000000000000000000000000000000000000600052602260045260246000fd5b600060028204905060018216806200038957607f821691505b6020821081036200039f576200039e62000341565b5b50919050565b60008190508160005260206000209050919050565b60006020601f8301049050919050565b600082821b905092915050565b600060088302620004097fffffffffffffffffffffffffffffffffffffffffffffffffffffffffffffffff82620003ca565b620004158683620003ca565b95508019841693508086168417925050509392505050565b6000819050919050565b6000819050919050565b6000620004626200045c62000456846200042d565b62000437565b6200042d565b9050919050565b6000819050919050565b6200047e8362000441565b620004966200048d8262000469565b848454620003d7565b825550505050565b600090565b620004ad6200049e565b620004ba81848462000473565b505050565b5b81811015620004e257620004d6600082620004a3565b600181019050620004c0565b5050565b601f8211156200053157620004fb81620003a5565b6200050684620003ba565b8101602085101562000516578190505b6200052e6200052585620003ba565b830182620004bf565b50505b505050565b600082821c905092915050565b6000620005566000198460080262000536565b1980831691505092915050565b600062000571838362000543565b9150826002028217905092915050565b6200058c8262000336565b67ffffffffffffffff811115620005a857620005a762000107565b5b620005b4825462000370565b620005c1828285620004e6565b600060209050601f831160018114620005f95760008415620005e4578287015190505b620005f0858262000563565b86555062000660565b601f1984166200060986620003a5565b60005b8281101562000633578489015182556001820191506020850194506020810190506200060c565b868310156200065357848901516200064f601f89168262000543565b8355505b6001600288020188555050505b505050505050565b60805160a0516158a8620006e2600039600081816110cd015281816114fd0152818161174a01528181611a9f01528181611c6c01528181611e490152818161208f015281816125c001528181612667015261285c015260008181610e8b0152818161217201528181612466015261270601526158a86000f3fe608060405234801561001057600080fd5b506004361061023c5760003560e01c80637cbc23731161013b578063b09f2b1c116100b8578063e2bbb1581161007c578063e2bbb158146107e2578063e5328e06146107fe578063e755ddd71461081c578063e985e9c514610838578063f242432a146108685761023c565b8063b09f2b1c14610711578063c0a6026c1461072d578063c7bc573014610749578063d32fe02e14610779578063d3b7811b146107b25761023c565b8063932a8de0116100ff578063932a8de01461065d578063a22cb4651461068d578063a8743022146106a9578063a996ef08146106c5578063abac75e1146106e15761023c565b80637cbc23731461058157806382afd23b1461059d57806388bdc083146105cd57806389c2bb1f146105fd5780638f0dbf771461062d5761023c565b80632f3ad61f116101c9578063549493bb1161018d578063549493bb146104a55780636ff80d93146104d557806370876c981461050557806377e2a08b146105215780637a41984b146105515761023c565b80632f3ad61f146103c95780633097afb8146103f957806339e3af9b14610429578063441a3e70146104595780634e1273f4146104755761023c565b8063091490201161021057806309149020146103015780630e89341c1461033157806314f29493146103615780632b096926146103915780632eb2c2d6146103ad5761023c565b8062fdd58e1461024157806301ffc9a71461027157806302159497146102a157806308913ce8146102d1575b600080fd5b61025b60048036038101906102569190613927565b610884565b6040516102689190613976565b60405180910390f35b61028b600480360381019061028691906139e9565b61094c565b6040516102989190613a31565b60405180910390f35b6102bb60048036038101906102b69190613a4c565b610a2e565b6040516102c89190613976565b60405180910390f35b6102eb60048036038101906102e69190613a4c565b610a4b565b6040516102f89190613976565b60405180910390f35b61031b60048036038101906103169190613a4c565b610a76565b6040516103289190613a31565b60405180910390f35b61034b60048036038101906103469190613a4c565b610aac565b6040516103589190613b09565b60405180910390f35b61037b60048036038101906103769190613a4c565b610b40565b6040516103889190613976565b60405180910390f35b6103ab60048036038101906103a69190613a4c565b610b7e565b005b6103c760048036038101906103c29190613d28565b610d60565b005b6103e360048036038101906103de9190613a4c565b610e01565b6040516103f09190613a31565b60405180910390f35b610413600480360381019061040e9190613a4c565b610e2b565b6040516104209190613a31565b60405180910390f35b610443600480360381019061043e9190613a4c565b610e64565b6040516104509190613a31565b60405180910390f35b610473600480360381019061046e9190613df7565b610e89565b005b61048f600480360381019061048a9190613efa565b61116e565b60405161049c9190614030565b60405180910390f35b6104bf60048036038101906104ba9190613a4c565b611287565b6040516104cc9190613a31565b60405180910390f35b6104ef60048036038101906104ea9190613a4c565b6112b9565b6040516104fc9190613a31565b60405180910390f35b61051f600480360381019061051a9190613df7565b6112f1565b005b61053b60048036038101906105369190613a4c565b6115a2565b6040516105489190613976565b60405180910390f35b61056b60048036038101906105669190613a4c565b611632565b6040516105789190613a31565b60405180910390f35b61059b60048036038101906105969190613df7565b61165c565b005b6105b760048036038101906105b29190613a4c565b611816565b6040516105c49190613a31565b60405180910390f35b6105e760048036038101906105e29190613a4c565b611839565b6040516105f49190613976565b60405180910390f35b61061760048036038101906106129190613a4c565b61186c565b6040516106249190613976565b60405180910390f35b61064760048036038101906106429190613a4c565b611889565b6040516106549190613a31565b60405180910390f35b61067760048036038101906106729190613a4c565b6118ab565b6040516106849190613976565b60405180910390f35b6106a760048036038101906106a2919061407e565b6118e9565b005b6106c360048036038101906106be9190613a4c565b6118ff565b005b6106df60048036038101906106da9190613df7565b611b7e565b005b6106fb60048036038101906106f69190613a4c565b611d38565b6040516107089190613976565b60405180910390f35b61072b60048036038101906107269190613df7565b611d58565b005b61074760048036038101906107429190613a4c565b611f15565b005b610763600480360381019061075e9190614119565b61216e565b6040516107709190613976565b60405180910390f35b610793600480360381019061078e9190613a4c565b6122bd565b6040516107a99a9998979695949392919061420b565b60405180910390f35b6107cc60048036038101906107c79190613a4c565b612431565b6040516107d99190613976565b60405180910390f35b6107fc60048036038101906107f79190613df7565b612464565b005b610806612663565b6040516108139190613976565b60405180910390f35b61083660048036038101906108319190613a4c565b612704565b005b610852600480360381019061084d91906142ae565b61290f565b60405161085f9190613a31565b60405180910390f35b610882600480360381019061087d91906142ee565b6129a3565b005b60008073ffffffffffffffffffffffffffffffffffffffff168373ffffffffffffffffffffffffffffffffffffffff16036108f4576040517f08c379a00000000000000000000000000000000000000000000000000000000081526004016108eb906143f7565b60405180910390fd5b60008083815260200190815260200160002060008473ffffffffffffffffffffffffffffffffffffffff1673ffffffffffffffffffffffffffffffffffffffff16815260200190815260200160002054905092915050565b60007fd9b67a26000000000000000000000000000000000000000000000000000000007bffffffffffffffffffffffffffffffffffffffffffffffffffffffff1916827bffffffffffffffffffffffffffffffffffffffffffffffffffffffff19161480610a1757507f0e89341c000000000000000000000000000000000000000000000000000000007bffffffffffffffffffffffffffffffffffffffffffffffffffffffff1916827bffffffffffffffffffffffffffffffffffffffffffffffffffffffff1916145b80610a275750610a2682612a44565b5b9050919050565b600060076000838152602001908152602001600020549050919050565b6000600460008381526020019081526020016000206002015442610a6f9190614446565b9050919050565b60006004600083815260200190815260200160002060080154600560008481526020019081526020016000205410159050919050565b606060028054610abb906144a9565b80601f0160208091040260200160405190810160405280929190818152602001828054610ae7906144a9565b8015610b345780601f10610b0957610100808354040283529160200191610b34565b820191906000526020600020905b815481529060010190602001808311610b1757829003601f168201915b50505050509050919050565b600060056000838152602001908152602001600020546004600084815260200190815260200160002060010154610b7791906144da565b9050919050565b610b8781611632565b15610bc7576040517f08c379a0000000000000000000000000000000000000000000000000000000008152600401610bbe90614568565b60405180910390fd5b62015180600c600083815260200190815260200160002054610be991906144da565b610bf282610a4b565b11610c32576040517f08c379a0000000000000000000000000000000000000000000000000000000008152600401610c29906145fa565b60405180910390fd5b620151806004600083815260200190815260200160002060060154610c5791906144da565b610c6082610a4b565b6004600084815260200190815260200160002060090154610c8191906144da565b610c8b9190614649565b600d6000838152602001908152602001600020819055506001600e600083815260200190815260200160002060006101000a81548160ff0219169083151502179055506001600b600083815260200190815260200160002060006101000a81548160ff021916908315150217905550807fb580a16317cf9efa50cf987c976c3fb7de7eaf3149b9dd5b8a576a043042f44c6004600084815260200190815260200160002060090154600d600085815260200190815260200160002054604051610d5592919061467a565b60405180910390a250565b610d68612aae565b73ffffffffffffffffffffffffffffffffffffffff168573ffffffffffffffffffffffffffffffffffffffff161480610dae5750610dad85610da8612aae565b61290f565b5b610ded576040517f08c379a0000000000000000000000000000000000000000000000000000000008152600401610de490614715565b60405180910390fd5b610dfa8585858585612ab6565b5050505050565b6000600a600083815260200190815260200160002060009054906101000a900460ff169050919050565b6000610e3682611889565b8015610e5d5750610e46826115a2565b600760008481526020019081526020016000205410155b9050919050565b6000610e6f82611816565b158015610e825750610e8082610a76565b155b9050919050565b7f000000000000000000000000000000000000000000000000000000000000000073ffffffffffffffffffffffffffffffffffffffff163373ffffffffffffffffffffffffffffffffffffffff1614610f17576040517f08c379a0000000000000000000000000000000000000000000000000000000008152600401610f0e90614781565b60405180910390fd5b610f2082611816565b15610f60576040517f08c379a0000000000000000000000000000000000000000000000000000000008152600401610f57906147ed565b60405180910390fd5b610f6982610e64565b15610fa9576040517f08c379a0000000000000000000000000000000000000000000000000000000008152600401610fa0906147ed565b60405180910390fd5b610fb282611632565b15610ff2576040517f08c379a0000000000000000000000000000000000000000000000000000000008152600401610fe99061487f565b60405180910390fd5b610ffb82610e01565b8061100b575061100a826112b9565b5b1561104b576040517f08c379a000000000000000000000000000000000000000000000000000000000815260040161104290614911565b60405180910390fd5b60076000838152602001908152602001600020548111156110a1576040517f08c379a0000000000000000000000000000000000000000000000000000000008152600401611098906149a3565b60405180910390fd5b806007600084815260200190815260200160002060008282546110c49190614446565b925050819055507f000000000000000000000000000000000000000000000000000000000000000073ffffffffffffffffffffffffffffffffffffffff1663a9059cbb33836040518363ffffffff1660e01b81526004016111269291906149d2565b6020604051808303816000875af1158015611145573d6000803e3d6000fd5b505050506040513d601f19601f820116820180604052508101906111699190614a10565b505050565b606081518351146111b4576040517f08c379a00000000000000000000000000000000000000000000000000000000081526004016111ab90614aaf565b60405180910390fd5b6000835167ffffffffffffffff8111156111d1576111d0613b30565b5b6040519080825280602002602001820160405280156111ff5781602001602082028036833780820191505090505b50905060005b845181101561127c5761124c85828151811061122457611223614acf565b5b602002602001015185838151811061123f5761123e614acf565b5b6020026020010151610884565b82828151811061125f5761125e614acf565b5b6020026020010181815250508061127590614afe565b9050611205565b508091505092915050565b600060056000838152602001908152602001600020546006600084815260200190815260200160002054149050919050565b60006112c482611889565b80156112ea57506112d4826115a2565b6007600084815260200190815260200160002054105b9050919050565b6112fa82611816565b611339576040517f08c379a000000000000000000000000000000000000000000000000000000000815260040161133090614b92565b60405180910390fd5b80611343836118ab565b1015611384576040517f08c379a000000000000000000000000000000000000000000000000000000000815260040161137b90614c24565b60405180910390fd5b600060046000848152602001908152602001600020604051806101400160405290816000820180546113b5906144a9565b80601f01602080910402602001604051908101604052809291908181526020018280546113e1906144a9565b801561142e5780601f106114035761010080835404028352916020019161142e565b820191906000526020600020905b81548152906001019060200180831161141157829003601f168201915b505050505081526020016001820154815260200160028201548152602001600382015481526020016004820154815260200160058201548152602001600682015481526020016007820154815260200160088201548152602001600982015481525050905060008160200151836114a591906144da565b9050826005600086815260200190815260200160002060008282546114ca9190614c44565b92505081905550806007600086815260200190815260200160002060008282546114f49190614c44565b925050819055507f000000000000000000000000000000000000000000000000000000000000000073ffffffffffffffffffffffffffffffffffffffff166323b872dd3330846040518463ffffffff1660e01b815260040161155893929190614c78565b6020604051808303816000875af1158015611577573d6000803e3d6000fd5b505050506040513d601f19601f8201168201806040525081019061159b9190614a10565b5050505050565b60008060046000848152602001908152602001600020600901549050600e600084815260200190815260200160002060009054906101000a900460ff16156115f0576115ed8361186c565b90505b670de0b6b3a76400008161160385610b40565b61160d91906144da565b6116179190614649565b61162084610b40565b61162a9190614c44565b915050919050565b6000600b600083815260200190815260200160002060009054906101000a900460ff169050919050565b61166582611632565b6116a4576040517f08c379a000000000000000000000000000000000000000000000000000000000815260040161169b90614cfb565b60405180910390fd5b806116af3384610884565b10156116f0576040517f08c379a00000000000000000000000000000000000000000000000000000000081526004016116e790614d67565b60405180910390fd5b6116fb338383612dd7565b8060066000848152602001908152602001600020600082825461171e9190614c44565b92505081905550600060096000848152602001908152602001600020548261174691906144da565b90507f000000000000000000000000000000000000000000000000000000000000000073ffffffffffffffffffffffffffffffffffffffff1663a9059cbb33836040518363ffffffff1660e01b81526004016117a39291906149d2565b6020604051808303816000875af11580156117c2573d6000803e3d6000fd5b505050506040513d601f19601f820116820180604052508101906117e69190614a10565b508060076000858152602001908152602001600020600082825461180a9190614446565b92505081905550505050565b600060046000838152602001908152602001600020600401544211159050919050565b600061184482610a4b565b60046000848152602001908152602001600020600501546118659190614446565b9050919050565b6000600d6000838152602001908152602001600020549050919050565b6000600460008381526020019081526020016000206003015442119050919050565b6000600560008381526020019081526020016000205460046000848152602001908152602001600020600701546118e29190614446565b9050919050565b6118fb6118f4612aae565b838361301d565b5050565b61190881611632565b15801561191b575061191981610e01565b155b801561192c575061192b816112b9565b5b61196b576040517f08c379a000000000000000000000000000000000000000000000000000000000815260040161196290614dd3565b60405180910390fd5b6000611976826115a2565b905060006103e8600760008581526020019081526020016000205461199b9190614649565b905060008160076000868152602001908152602001600020546119be9190614446565b90506005600085815260200190815260200160002054816119df9190614649565b6008600086815260200190815260200160002081905550600060056000868152602001908152602001600020546008600087815260200190815260200160002054611a2a91906144da565b82611a359190614446565b905060008184611a459190614c44565b905080600760008881526020019081526020016000206000828254611a6a9190614446565b925050819055506001600a600088815260200190815260200160002060006101000a81548160ff0219169083151502179055507f000000000000000000000000000000000000000000000000000000000000000073ffffffffffffffffffffffffffffffffffffffff1663a9059cbb33836040518363ffffffff1660e01b8152600401611af89291906149d2565b6020604051808303816000875af1158015611b17573d6000803e3d6000fd5b505050506040513d601f19601f82011682018060405250810190611b3b9190614a10565b50857fc4f17a65d54873d57229ea5f59c4ddec592d095bc17581372676402c8228b9cd8685604051611b6e92919061467a565b60405180910390a2505050505050565b611b8782610e01565b611bc6576040517f08c379a0000000000000000000000000000000000000000000000000000000008152600401611bbd90614dd3565b60405180910390fd5b80611bd13384610884565b1015611c12576040517f08c379a0000000000000000000000000000000000000000000000000000000008152600401611c0990614d67565b60405180910390fd5b611c1d338383612dd7565b80600660008481526020019081526020016000206000828254611c409190614c44565b925050819055506000600860008481526020019081526020016000205482611c6891906144da565b90507f000000000000000000000000000000000000000000000000000000000000000073ffffffffffffffffffffffffffffffffffffffff1663a9059cbb33836040518363ffffffff1660e01b8152600401611cc59291906149d2565b6020604051808303816000875af1158015611ce4573d6000803e3d6000fd5b505050506040513d601f19601f82011682018060405250810190611d089190614a10565b5080600760008581526020019081526020016000206000828254611d2c9190614446565b92505081905550505050565b600060046000838152602001908152602001600020600901549050919050565b611d6182610e64565b611da0576040517f08c379a0000000000000000000000000000000000000000000000000000000008152600401611d9790614e3f565b60405180910390fd5b80611dab3384610884565b1015611dec576040517f08c379a0000000000000000000000000000000000000000000000000000000008152600401611de390614d67565b60405180910390fd5b611df7338383612dd7565b80600660008481526020019081526020016000206000828254611e1a9190614c44565b925050819055506000600460008481526020019081526020016000206001015482611e4591906144da565b90507f000000000000000000000000000000000000000000000000000000000000000073ffffffffffffffffffffffffffffffffffffffff1663a9059cbb33836040518363ffffffff1660e01b8152600401611ea29291906149d2565b6020604051808303816000875af1158015611ec1573d6000803e3d6000fd5b505050506040513d601f19601f82011682018060405250810190611ee59190614a10565b5080600760008581526020019081526020016000206000828254611f099190614446565b92505081905550505050565b611f1e81610e01565b158015611f315750611f2f81611632565b155b8015611f425750611f4181610e2b565b5b611f81576040517f08c379a0000000000000000000000000000000000000000000000000000000008152600401611f7890614eab565b60405180910390fd5b6000611f8c826115a2565b905060006103e882611f9e9190614649565b905060008183611fae9190614446565b9050600560008581526020019081526020016000205481611fcf9190614649565b600960008681526020019081526020016000208190555060006005600086815260200190815260200160002054600960008781526020019081526020016000205461201a91906144da565b826120259190614446565b9050600081846120359190614c44565b90508060076000888152602001908152602001600020600082825461205a9190614446565b925050819055506001600b600088815260200190815260200160002060006101000a81548160ff0219169083151502179055507f000000000000000000000000000000000000000000000000000000000000000073ffffffffffffffffffffffffffffffffffffffff1663a9059cbb33836040518363ffffffff1660e01b81526004016120e89291906149d2565b6020604051808303816000875af1158015612107573d6000803e3d6000fd5b505050506040513d601f19601f8201168201806040525081019061212b9190614a10565b50857fac2eeaf45d1b75aed6b3285cda3efb3c382cce02ba313558bbb90be57f8843e4868560405161215e92919061467a565b60405180910390a2505050505050565b60007f000000000000000000000000000000000000000000000000000000000000000073ffffffffffffffffffffffffffffffffffffffff163373ffffffffffffffffffffffffffffffffffffffff16146121fe576040517f08c379a00000000000000000000000000000000000000000000000000000000081526004016121f590614781565b60405180910390fd5b3073ffffffffffffffffffffffffffffffffffffffff1663c7bc57308b8b8b8b8b8b8b8b8b6040518a63ffffffff1660e01b815260040161224799989796959493929190614f4d565b6020604051808303816000875af1158015612266573d6000803e3d6000fd5b505050506040513d601f19601f8201168201806040525081019061228a9190614ff0565b90506002856122999190614649565b600c6000838152602001908152602001600020819055509998505050505050505050565b6060600080600080600080600080600080600460008d8152602001908152602001600020604051806101400160405290816000820180546122fd906144a9565b80601f0160208091040260200160405190810160405280929190818152602001828054612329906144a9565b80156123765780601f1061234b57610100808354040283529160200191612376565b820191906000526020600020905b81548152906001019060200180831161235957829003601f168201915b5050505050815260200160018201548152602001600282015481526020016003820154815260200160048201548152602001600582015481526020016006820154815260200160078201548152602001600882015481526020016009820154815250509050806000015181602001518260400151836060015184608001518560a001518660c001518760e001518861010001518961012001519a509a509a509a509a509a509a509a509a509a50509193959799509193959799565b600061243c82610a4b565b600460008481526020019081526020016000206006015461245d9190614446565b9050919050565b7f000000000000000000000000000000000000000000000000000000000000000073ffffffffffffffffffffffffffffffffffffffff163373ffffffffffffffffffffffffffffffffffffffff16146124f2576040517f08c379a00000000000000000000000000000000000000000000000000000000081526004016124e990614781565b60405180910390fd5b6124fb82610e01565b8061250b575061250a826112b9565b5b1561254b576040517f08c379a000000000000000000000000000000000000000000000000000000000815260040161254290615069565b60405180910390fd5b61255482611632565b15612594576040517f08c379a000000000000000000000000000000000000000000000000000000000815260040161258b906150d5565b60405180910390fd5b806007600084815260200190815260200160002060008282546125b79190614c44565b925050819055507f000000000000000000000000000000000000000000000000000000000000000073ffffffffffffffffffffffffffffffffffffffff166323b872dd3330846040518463ffffffff1660e01b815260040161261b93929190614c78565b6020604051808303816000875af115801561263a573d6000803e3d6000fd5b505050506040513d601f19601f8201168201806040525081019061265e9190614a10565b505050565b60007f000000000000000000000000000000000000000000000000000000000000000073ffffffffffffffffffffffffffffffffffffffff166370a08231306040518263ffffffff1660e01b81526004016126be91906150f5565b602060405180830381865afa1580156126db573d6000803e3d6000fd5b505050506040513d601f19601f820116820180604052508101906126ff9190614ff0565b905090565b7f000000000000000000000000000000000000000000000000000000000000000073ffffffffffffffffffffffffffffffffffffffff163373ffffffffffffffffffffffffffffffffffffffff1614612792576040517f08c379a000000000000000000000000000000000000000000000000000000000815260040161278990614781565b60405180910390fd5b61279b81611632565b80156127ac57506127ab81611287565b5b6127eb576040517f08c379a00000000000000000000000000000000000000000000000000000000081526004016127e29061515c565b60405180910390fd5b6000600760008381526020019081526020016000205411612841576040517f08c379a0000000000000000000000000000000000000000000000000000000008152600401612838906151c8565b60405180910390fd5b600060076000838152602001908152602001600020819055507f000000000000000000000000000000000000000000000000000000000000000073ffffffffffffffffffffffffffffffffffffffff1663a9059cbb3360076000858152602001908152602001600020546040518363ffffffff1660e01b81526004016128c89291906149d2565b6020604051808303816000875af11580156128e7573d6000803e3d6000fd5b505050506040513d601f19601f8201168201806040525081019061290b9190614a10565b5050565b6000600160008473ffffffffffffffffffffffffffffffffffffffff1673ffffffffffffffffffffffffffffffffffffffff16815260200190815260200160002060008373ffffffffffffffffffffffffffffffffffffffff1673ffffffffffffffffffffffffffffffffffffffff16815260200190815260200160002060009054906101000a900460ff16905092915050565b6129ab612aae565b73ffffffffffffffffffffffffffffffffffffffff168573ffffffffffffffffffffffffffffffffffffffff1614806129f157506129f0856129eb612aae565b61290f565b5b612a30576040517f08c379a0000000000000000000000000000000000000000000000000000000008152600401612a2790614715565b60405180910390fd5b612a3d8585858585613189565b5050505050565b60007f01ffc9a7000000000000000000000000000000000000000000000000000000007bffffffffffffffffffffffffffffffffffffffffffffffffffffffff1916827bffffffffffffffffffffffffffffffffffffffffffffffffffffffff1916149050919050565b600033905090565b8151835114612afa576040517f08c379a0000000000000000000000000000000000000000000000000000000008152600401612af19061525a565b60405180910390fd5b600073ffffffffffffffffffffffffffffffffffffffff168473ffffffffffffffffffffffffffffffffffffffff1603612b69576040517f08c379a0000000000000000000000000000000000000000000000000000000008152600401612b60906152ec565b60405180910390fd5b6000612b73612aae565b9050612b83818787878787613424565b60005b8451811015612d34576000858281518110612ba457612ba3614acf565b5b602002602001015190506000858381518110612bc357612bc2614acf565b5b60200260200101519050600080600084815260200190815260200160002060008b73ffffffffffffffffffffffffffffffffffffffff1673ffffffffffffffffffffffffffffffffffffffff16815260200190815260200160002054905081811015612c64576040517f08c379a0000000000000000000000000000000000000000000000000000000008152600401612c5b9061537e565b60405180910390fd5b81810360008085815260200190815260200160002060008c73ffffffffffffffffffffffffffffffffffffffff1673ffffffffffffffffffffffffffffffffffffffff168152602001908152602001600020819055508160008085815260200190815260200160002060008b73ffffffffffffffffffffffffffffffffffffffff1673ffffffffffffffffffffffffffffffffffffffff1681526020019081526020016000206000828254612d199190614c44565b9250508190555050505080612d2d90614afe565b9050612b86565b508473ffffffffffffffffffffffffffffffffffffffff168673ffffffffffffffffffffffffffffffffffffffff168273ffffffffffffffffffffffffffffffffffffffff167f4a39dc06d4c0dbc64b70af90fd698a233a518aa5d07e595d983b8c0526c8f7fb8787604051612dab92919061539e565b60405180910390a4612dc181878787878761342c565b612dcf818787878787613434565b505050505050565b600073ffffffffffffffffffffffffffffffffffffffff168373ffffffffffffffffffffffffffffffffffffffff1603612e46576040517f08c379a0000000000000000000000000000000000000000000000000000000008152600401612e3d90615447565b60405180910390fd5b6000612e50612aae565b90506000612e5d8461360b565b90506000612e6a8461360b565b9050612e8a83876000858560405180602001604052806000815250613424565b600080600087815260200190815260200160002060008873ffffffffffffffffffffffffffffffffffffffff1673ffffffffffffffffffffffffffffffffffffffff16815260200190815260200160002054905084811015612f21576040517f08c379a0000000000000000000000000000000000000000000000000000000008152600401612f18906154d9565b60405180910390fd5b84810360008088815260200190815260200160002060008973ffffffffffffffffffffffffffffffffffffffff1673ffffffffffffffffffffffffffffffffffffffff16815260200190815260200160002081905550600073ffffffffffffffffffffffffffffffffffffffff168773ffffffffffffffffffffffffffffffffffffffff168573ffffffffffffffffffffffffffffffffffffffff167fc3d58168c5ae7397731d063d5bbf3d657854427343f4c083240f7aacaa2d0f628989604051612fee92919061467a565b60405180910390a46130148488600086866040518060200160405280600081525061342c565b50505050505050565b8173ffffffffffffffffffffffffffffffffffffffff168373ffffffffffffffffffffffffffffffffffffffff160361308b576040517f08c379a00000000000000000000000000000000000000000000000000000000081526004016130829061556b565b60405180910390fd5b80600160008573ffffffffffffffffffffffffffffffffffffffff1673ffffffffffffffffffffffffffffffffffffffff16815260200190815260200160002060008473ffffffffffffffffffffffffffffffffffffffff1673ffffffffffffffffffffffffffffffffffffffff16815260200190815260200160002060006101000a81548160ff0219169083151502179055508173ffffffffffffffffffffffffffffffffffffffff168373ffffffffffffffffffffffffffffffffffffffff167f17307eab39ab6107e8899845ad3d59bd9653f200f220920489ca2b5937696c318360405161317c9190613a31565b60405180910390a3505050565b600073ffffffffffffffffffffffffffffffffffffffff168473ffffffffffffffffffffffffffffffffffffffff16036131f8576040517f08c379a00000000000000000000000000000000000000000000000000000000081526004016131ef906152ec565b60405180910390fd5b6000613202612aae565b9050600061320f8561360b565b9050600061321c8561360b565b905061322c838989858589613424565b600080600088815260200190815260200160002060008a73ffffffffffffffffffffffffffffffffffffffff1673ffffffffffffffffffffffffffffffffffffffff168152602001908152602001600020549050858110156132c3576040517f08c379a00000000000000000000000000000000000000000000000000000000081526004016132ba9061537e565b60405180910390fd5b85810360008089815260200190815260200160002060008b73ffffffffffffffffffffffffffffffffffffffff1673ffffffffffffffffffffffffffffffffffffffff168152602001908152602001600020819055508560008089815260200190815260200160002060008a73ffffffffffffffffffffffffffffffffffffffff1673ffffffffffffffffffffffffffffffffffffffff16815260200190815260200160002060008282546133789190614c44565b925050819055508773ffffffffffffffffffffffffffffffffffffffff168973ffffffffffffffffffffffffffffffffffffffff168573ffffffffffffffffffffffffffffffffffffffff167fc3d58168c5ae7397731d063d5bbf3d657854427343f4c083240f7aacaa2d0f628a8a6040516133f592919061467a565b60405180910390a461340b848a8a86868a61342c565b613419848a8a8a8a8a613685565b505050505050505050565b505050505050565b505050505050565b6134538473ffffffffffffffffffffffffffffffffffffffff1661385c565b15613603578373ffffffffffffffffffffffffffffffffffffffff1663bc197c8187878686866040518663ffffffff1660e01b815260040161349995949392919061558b565b6020604051808303816000875af19250505080156134d557506040513d601f19601f820116820180604052508101906134d29190615608565b60015b61357a576134e1615642565b806308c379a00361353d57506134f5615664565b80613500575061353f565b806040517f08c379a00000000000000000000000000000000000000000000000000000000081526004016135349190613b09565b60405180910390fd5b505b6040517f08c379a000000000000000000000000000000000000000000000000000000000815260040161357190615766565b60405180910390fd5b63bc197c8160e01b7bffffffffffffffffffffffffffffffffffffffffffffffffffffffff1916817bffffffffffffffffffffffffffffffffffffffffffffffffffffffff191614613601576040517f08c379a00000000000000000000000000000000000000000000000000000000081526004016135f8906157f8565b60405180910390fd5b505b505050505050565b60606000600167ffffffffffffffff81111561362a57613629613b30565b5b6040519080825280602002602001820160405280156136585781602001602082028036833780820191505090505b50905082816000815181106136705761366f614acf565b5b60200260200101818152505080915050919050565b6136a48473ffffffffffffffffffffffffffffffffffffffff1661385c565b15613854578373ffffffffffffffffffffffffffffffffffffffff1663f23a6e6187878686866040518663ffffffff1660e01b81526004016136ea959493929190615818565b6020604051808303816000875af192505050801561372657506040513d601f19601f820116820180604052508101906137239190615608565b60015b6137cb57613732615642565b806308c379a00361378e5750613746615664565b806137515750613790565b806040517f08c379a00000000000000000000000000000000000000000000000000000000081526004016137859190613b09565b60405180910390fd5b505b6040517f08c379a00000000000000000000000000000000000000000000000000000000081526004016137c290615766565b60405180910390fd5b63f23a6e6160e01b7bffffffffffffffffffffffffffffffffffffffffffffffffffffffff1916817bffffffffffffffffffffffffffffffffffffffffffffffffffffffff191614613852576040517f08c379a0000000000000000000000000000000000000000000000000000000008152600401613849906157f8565b60405180910390fd5b505b505050505050565b6000808273ffffffffffffffffffffffffffffffffffffffff163b119050919050565b6000604051905090565b600080fd5b600080fd5b600073ffffffffffffffffffffffffffffffffffffffff82169050919050565b60006138be82613893565b9050919050565b6138ce816138b3565b81146138d957600080fd5b50565b6000813590506138eb816138c5565b92915050565b6000819050919050565b613904816138f1565b811461390f57600080fd5b50565b600081359050613921816138fb565b92915050565b6000806040838503121561393e5761393d613889565b5b600061394c858286016138dc565b925050602061395d85828601613912565b9150509250929050565b613970816138f1565b82525050565b600060208201905061398b6000830184613967565b92915050565b60007fffffffff0000000000000000000000000000000000000000000000000000000082169050919050565b6139c681613991565b81146139d157600080fd5b50565b6000813590506139e3816139bd565b92915050565b6000602082840312156139ff576139fe613889565b5b6000613a0d848285016139d4565b91505092915050565b60008115159050919050565b613a2b81613a16565b82525050565b6000602082019050613a466000830184613a22565b92915050565b600060208284031215613a6257613a61613889565b5b6000613a7084828501613912565b91505092915050565b600081519050919050565b600082825260208201905092915050565b60005b83811015613ab3578082015181840152602081019050613a98565b60008484015250505050565b6000601f19601f8301169050919050565b6000613adb82613a79565b613ae58185613a84565b9350613af5818560208601613a95565b613afe81613abf565b840191505092915050565b60006020820190508181036000830152613b238184613ad0565b905092915050565b600080fd5b7f4e487b7100000000000000000000000000000000000000000000000000000000600052604160045260246000fd5b613b6882613abf565b810181811067ffffffffffffffff82111715613b8757613b86613b30565b5b80604052505050565b6000613b9a61387f565b9050613ba68282613b5f565b919050565b600067ffffffffffffffff821115613bc657613bc5613b30565b5b602082029050602081019050919050565b600080fd5b6000613bef613bea84613bab565b613b90565b90508083825260208201905060208402830185811115613c1257613c11613bd7565b5b835b81811015613c3b5780613c278882613912565b845260208401935050602081019050613c14565b5050509392505050565b600082601f830112613c5a57613c59613b2b565b5b8135613c6a848260208601613bdc565b91505092915050565b600080fd5b600067ffffffffffffffff821115613c9357613c92613b30565b5b613c9c82613abf565b9050602081019050919050565b82818337600083830152505050565b6000613ccb613cc684613c78565b613b90565b905082815260208101848484011115613ce757613ce6613c73565b5b613cf2848285613ca9565b509392505050565b600082601f830112613d0f57613d0e613b2b565b5b8135613d1f848260208601613cb8565b91505092915050565b600080600080600060a08688031215613d4457613d43613889565b5b6000613d52888289016138dc565b9550506020613d63888289016138dc565b945050604086013567ffffffffffffffff811115613d8457613d8361388e565b5b613d9088828901613c45565b935050606086013567ffffffffffffffff811115613db157613db061388e565b5b613dbd88828901613c45565b925050608086013567ffffffffffffffff811115613dde57613ddd61388e565b5b613dea88828901613cfa565b9150509295509295909350565b60008060408385031215613e0e57613e0d613889565b5b6000613e1c85828601613912565b9250506020613e2d85828601613912565b9150509250929050565b600067ffffffffffffffff821115613e5257613e51613b30565b5b602082029050602081019050919050565b6000613e76613e7184613e37565b613b90565b90508083825260208201905060208402830185811115613e9957613e98613bd7565b5b835b81811015613ec25780613eae88826138dc565b845260208401935050602081019050613e9b565b5050509392505050565b600082601f830112613ee157613ee0613b2b565b5b8135613ef1848260208601613e63565b91505092915050565b60008060408385031215613f1157613f10613889565b5b600083013567ffffffffffffffff811115613f2f57613f2e61388e565b5b613f3b85828601613ecc565b925050602083013567ffffffffffffffff811115613f5c57613f5b61388e565b5b613f6885828601613c45565b9150509250929050565b600081519050919050565b600082825260208201905092915050565b6000819050602082019050919050565b613fa7816138f1565b82525050565b6000613fb98383613f9e565b60208301905092915050565b6000602082019050919050565b6000613fdd82613f72565b613fe78185613f7d565b9350613ff283613f8e565b8060005b8381101561402357815161400a8882613fad565b975061401583613fc5565b925050600181019050613ff6565b5085935050505092915050565b6000602082019050818103600083015261404a8184613fd2565b905092915050565b61405b81613a16565b811461406657600080fd5b50565b60008135905061407881614052565b92915050565b6000806040838503121561409557614094613889565b5b60006140a3858286016138dc565b92505060206140b485828601614069565b9150509250929050565b600080fd5b60008083601f8401126140d9576140d8613b2b565b5b8235905067ffffffffffffffff8111156140f6576140f56140be565b5b60208301915083600182028301111561411257614111613bd7565b5b9250929050565b60008060008060008060008060006101008a8c03121561413c5761413b613889565b5b600061414a8c828d01613912565b995050602061415b8c828d01613912565b985050604061416c8c828d01613912565b97505060608a013567ffffffffffffffff81111561418d5761418c61388e565b5b6141998c828d016140c3565b965096505060806141ac8c828d01613912565b94505060a06141bd8c828d01613912565b93505060c06141ce8c828d01613912565b92505060e08a013567ffffffffffffffff8111156141ef576141ee61388e565b5b6141fb8c828d01613cfa565b9150509295985092959850929598565b6000610140820190508181036000830152614226818d613ad0565b9050614235602083018c613967565b614242604083018b613967565b61424f606083018a613967565b61425c6080830189613967565b61426960a0830188613967565b61427660c0830187613967565b61428360e0830186613967565b614291610100830185613967565b61429f610120830184613967565b9b9a5050505050505050505050565b600080604083850312156142c5576142c4613889565b5b60006142d3858286016138dc565b92505060206142e4858286016138dc565b9150509250929050565b600080600080600060a0868803121561430a57614309613889565b5b6000614318888289016138dc565b9550506020614329888289016138dc565b945050604061433a88828901613912565b935050606061434b88828901613912565b925050608086013567ffffffffffffffff81111561436c5761436b61388e565b5b61437888828901613cfa565b9150509295509295909350565b7f455243313135353a2061646472657373207a65726f206973206e6f742061207660008201527f616c6964206f776e657200000000000000000000000000000000000000000000602082015250565b60006143e1602a83613a84565b91506143ec82614385565b604082019050919050565b60006020820190508181036000830152614410816143d4565b9050919050565b7f4e487b7100000000000000000000000000000000000000000000000000000000600052601160045260246000fd5b6000614451826138f1565b915061445c836138f1565b925082820390508181111561447457614473614417565b5b92915050565b7f4e487b7100000000000000000000000000000000000000000000000000000000600052602260045260246000fd5b600060028204905060018216806144c157607f821691505b6020821081036144d4576144d361447a565b5b50919050565b60006144e5826138f1565b91506144f0836138f1565b92508282026144fe816138f1565b9150828204841483151761451557614514614417565b5b5092915050565b7f426f6e6420697320636f6d706c65746564000000000000000000000000000000600082015250565b6000614552601183613a84565b915061455d8261451c565b602082019050919050565b6000602082019050818103600083015261458181614545565b9050919050565b7f4d696e696d756d206f626c69676174696f6e20706572696f64206e6f7420726560008201527f6163686564000000000000000000000000000000000000000000000000000000602082015250565b60006145e4602583613a84565b91506145ef82614588565b604082019050919050565b60006020820190508181036000830152614613816145d7565b9050919050565b7f4e487b7100000000000000000000000000000000000000000000000000000000600052601260045260246000fd5b6000614654826138f1565b915061465f836138f1565b92508261466f5761466e61461a565b5b828204905092915050565b600060408201905061468f6000830185613967565b61469c6020830184613967565b9392505050565b7f455243313135353a2063616c6c6572206973206e6f7420746f6b656e206f776e60008201527f6572206f7220617070726f766564000000000000000000000000000000000000602082015250565b60006146ff602e83613a84565b915061470a826146a3565b604082019050919050565b6000602082019050818103600083015261472e816146f2565b9050919050565b7f43616c6c6572206973206e6f7420746865206f776e6572000000000000000000600082015250565b600061476b601783613a84565b915061477682614735565b602082019050919050565b6000602082019050818103600083015261479a8161475e565b9050919050565b7f5769746864726177206e6f7420616c6c6f776564207768656e20616374697665600082015250565b60006147d7602083613a84565b91506147e2826147a1565b602082019050919050565b60006020820190508181036000830152614806816147ca565b9050919050565b7f5769746864726177206e6f7420616c6c6f77656420616674657220636f6d706c60008201527f6574696f6e000000000000000000000000000000000000000000000000000000602082015250565b6000614869602583613a84565b91506148748261480d565b604082019050919050565b600060208201905081810360008301526148988161485c565b9050919050565b7f5769746864726177206e6f7420616c6c6f776564207768656e2064656661756c60008201527f7465640000000000000000000000000000000000000000000000000000000000602082015250565b60006148fb602383613a84565b91506149068261489f565b604082019050919050565b6000602082019050818103600083015261492a816148ee565b9050919050565b7f5769746864726177616c20746f6b656e20616d6f756e7420657863656564732060008201527f746f6b656e20616d6f756e7420696e20636f6e74726163740000000000000000602082015250565b600061498d603883613a84565b915061499882614931565b604082019050919050565b600060208201905081810360008301526149bc81614980565b9050919050565b6149cc816138b3565b82525050565b60006040820190506149e760008301856149c3565b6149f46020830184613967565b9392505050565b600081519050614a0a81614052565b92915050565b600060208284031215614a2657614a25613889565b5b6000614a34848285016149fb565b91505092915050565b7f455243313135353a206163636f756e747320616e6420696473206c656e67746860008201527f206d69736d617463680000000000000000000000000000000000000000000000602082015250565b6000614a99602983613a84565b9150614aa482614a3d565b604082019050919050565b60006020820190508181036000830152614ac881614a8c565b9050919050565b7f4e487b7100000000000000000000000000000000000000000000000000000000600052603260045260246000fd5b6000614b09826138f1565b91507fffffffffffffffffffffffffffffffffffffffffffffffffffffffffffffffff8203614b3b57614b3a614417565b5b600182019050919050565b7f426f6e6420697320696e61637469766500000000000000000000000000000000600082015250565b6000614b7c601083613a84565b9150614b8782614b46565b602082019050919050565b60006020820190508181036000830152614bab81614b6f565b9050919050565b7f496e73756666696369656e7420626f6e64207175616e746974792072656d616960008201527f6e696e6700000000000000000000000000000000000000000000000000000000602082015250565b6000614c0e602483613a84565b9150614c1982614bb2565b604082019050919050565b60006020820190508181036000830152614c3d81614c01565b9050919050565b6000614c4f826138f1565b9150614c5a836138f1565b9250828201905080821115614c7257614c71614417565b5b92915050565b6000606082019050614c8d60008301866149c3565b614c9a60208301856149c3565b614ca76040830184613967565b949350505050565b7f426f6e64206973206e6f7420636f6d706c657465640000000000000000000000600082015250565b6000614ce5601583613a84565b9150614cf082614caf565b602082019050919050565b60006020820190508181036000830152614d1481614cd8565b9050919050565b7f496e73756666696369656e7420626f6e64207175616e74697479000000000000600082015250565b6000614d51601a83613a84565b9150614d5c82614d1b565b602082019050919050565b60006020820190508181036000830152614d8081614d44565b9050919050565b7f426f6e64206973206e6f742064656661756c7465640000000000000000000000600082015250565b6000614dbd601583613a84565b9150614dc882614d87565b602082019050919050565b60006020820190508181036000830152614dec81614db0565b9050919050565b7f426f6e64206973206e6f742063616e63656c6564000000000000000000000000600082015250565b6000614e29601483613a84565b9150614e3482614df3565b602082019050919050565b60006020820190508181036000830152614e5881614e1c565b9050919050565b7f426f6e6420697320616c726561647920636f6d706c6574656400000000000000600082015250565b6000614e95601983613a84565b9150614ea082614e5f565b602082019050919050565b60006020820190508181036000830152614ec481614e88565b9050919050565b6000614ed78385613a84565b9350614ee4838584613ca9565b614eed83613abf565b840190509392505050565b600081519050919050565b600082825260208201905092915050565b6000614f1f82614ef8565b614f298185614f03565b9350614f39818560208601613a95565b614f4281613abf565b840191505092915050565b600061010082019050614f63600083018c613967565b614f70602083018b613967565b614f7d604083018a613967565b8181036060830152614f9081888a614ecb565b9050614f9f6080830187613967565b614fac60a0830186613967565b614fb960c0830185613967565b81810360e0830152614fcb8184614f14565b90509a9950505050505050505050565b600081519050614fea816138fb565b92915050565b60006020828403121561500657615005613889565b5b600061501484828501614fdb565b91505092915050565b7f626f6e642069732064656661756c746564000000000000000000000000000000600082015250565b6000615053601183613a84565b915061505e8261501d565b602082019050919050565b6000602082019050818103600083015261508281615046565b9050919050565b7f626f6e6420697320636f6d706c65746564000000000000000000000000000000600082015250565b60006150bf601183613a84565b91506150ca82615089565b602082019050919050565b600060208201905081810360008301526150ee816150b2565b9050919050565b600060208201905061510a60008301846149c3565b92915050565b7f43616e6e6f742077697468647261772065786365737300000000000000000000600082015250565b6000615146601683613a84565b915061515182615110565b602082019050919050565b6000602082019050818103600083015261517581615139565b9050919050565b7f43616e6e6f742077697468647261772066726f6d20656d70747920706f6f6c00600082015250565b60006151b2601f83613a84565b91506151bd8261517c565b602082019050919050565b600060208201905081810360008301526151e1816151a5565b9050919050565b7f455243313135353a2069647320616e6420616d6f756e7473206c656e6774682060008201527f6d69736d61746368000000000000000000000000000000000000000000000000602082015250565b6000615244602883613a84565b915061524f826151e8565b604082019050919050565b6000602082019050818103600083015261527381615237565b9050919050565b7f455243313135353a207472616e7366657220746f20746865207a65726f20616460008201527f6472657373000000000000000000000000000000000000000000000000000000602082015250565b60006152d6602583613a84565b91506152e18261527a565b604082019050919050565b60006020820190508181036000830152615305816152c9565b9050919050565b7f455243313135353a20696e73756666696369656e742062616c616e636520666f60008201527f72207472616e7366657200000000000000000000000000000000000000000000602082015250565b6000615368602a83613a84565b91506153738261530c565b604082019050919050565b600060208201905081810360008301526153978161535b565b9050919050565b600060408201905081810360008301526153b88185613fd2565b905081810360208301526153cc8184613fd2565b90509392505050565b7f455243313135353a206275726e2066726f6d20746865207a65726f206164647260008201527f6573730000000000000000000000000000000000000000000000000000000000602082015250565b6000615431602383613a84565b915061543c826153d5565b604082019050919050565b6000602082019050818103600083015261546081615424565b9050919050565b7f455243313135353a206275726e20616d6f756e7420657863656564732062616c60008201527f616e636500000000000000000000000000000000000000000000000000000000602082015250565b60006154c3602483613a84565b91506154ce82615467565b604082019050919050565b600060208201905081810360008301526154f2816154b6565b9050919050565b7f455243313135353a2073657474696e6720617070726f76616c2073746174757360008201527f20666f722073656c660000000000000000000000000000000000000000000000602082015250565b6000615555602983613a84565b9150615560826154f9565b604082019050919050565b6000602082019050818103600083015261558481615548565b9050919050565b600060a0820190506155a060008301886149c3565b6155ad60208301876149c3565b81810360408301526155bf8186613fd2565b905081810360608301526155d38185613fd2565b905081810360808301526155e78184614f14565b90509695505050505050565b600081519050615602816139bd565b92915050565b60006020828403121561561e5761561d613889565b5b600061562c848285016155f3565b91505092915050565b60008160e01c9050919050565b600060033d11156156615760046000803e61565e600051615635565b90505b90565b600060443d106156f15761567661387f565b60043d036004823e80513d602482011167ffffffffffffffff8211171561569e5750506156f1565b808201805167ffffffffffffffff8111156156bc57505050506156f1565b80602083010160043d0385018111156156d95750505050506156f1565b6156e882602001850186613b5f565b82955050505050505b90565b7f455243313135353a207472616e7366657220746f206e6f6e2d4552433131353560008201527f526563656976657220696d706c656d656e746572000000000000000000000000602082015250565b6000615750603483613a84565b915061575b826156f4565b604082019050919050565b6000602082019050818103600083015261577f81615743565b9050919050565b7f455243313135353a204552433131353552656365697665722072656a6563746560008201527f6420746f6b656e73000000000000000000000000000000000000000000000000602082015250565b60006157e2602883613a84565b91506157ed82615786565b604082019050919050565b60006020820190508181036000830152615811816157d5565b9050919050565b600060a08201905061582d60008301886149c3565b61583a60208301876149c3565b6158476040830186613967565b6158546060830185613967565b81810360808301526158668184614f14565b9050969550505050505056fea2646970667358221220b365bbd4667e409da403e375a4a55e44c27a4041c7c1cc7fe184378b223da43664736f6c63430008110033",
  "linkReferences": {},
  "deployedLinkReferences": {}
}