{
  "_format": "hh-sol-artifact-1",
  "contractName": "BondPeriphery",
  "sourceName": "contracts/BondPeriphery.sol",
  "abi": [
    {
      "inputs": [
        {
          "internalType": "address",
          "name": "sbt",
          "type": "address"
        },
        {
          "internalType": "address",
          "name": "db",
          "type": "address"
        },
        {
          "internalType": "address",
          "name": "bt",
          "type": "address"
        }
      ],
      "stateMutability": "nonpayable",
      "type": "constructor"
    },
    {
      "anonymous": false,
      "inputs": [
        {
          "indexed": true,
          "internalType": "address",
          "name": "owner",
          "type": "address"
        },
        {
          "indexed": false,
          "internalType": "address",
          "name": "token",
          "type": "address"
        }
      ],
      "name": "FactoryInitialized",
      "type": "event"
    },
    {
      "inputs": [],
      "name": "bondDB",
      "outputs": [
        {
          "internalType": "address",
          "name": "",
          "type": "address"
        }
      ],
      "stateMutability": "view",
      "type": "function"
    },
    {
      "inputs": [
        {
          "internalType": "address",
          "name": "caller",
          "type": "address"
        }
      ],
      "name": "bondFactories",
      "outputs": [
        {
          "internalType": "address[]",
          "name": "",
          "type": "address[]"
        }
      ],
      "stateMutability": "view",
      "type": "function"
    },
    {
      "inputs": [
        {
          "internalType": "address",
          "name": "caller",
          "type": "address"
        },
        {
          "internalType": "address",
          "name": "token",
          "type": "address"
        }
      ],
      "name": "bondFactoryIsInitialized",
      "outputs": [
        {
          "internalType": "bool",
          "name": "",
          "type": "bool"
        }
      ],
      "stateMutability": "view",
      "type": "function"
    },
    {
      "inputs": [
        {
          "internalType": "address",
          "name": "token",
          "type": "address"
        }
      ],
      "name": "createBondFactory",
      "outputs": [
        {
          "internalType": "address",
          "name": "factory",
          "type": "address"
        }
      ],
      "stateMutability": "nonpayable",
      "type": "function"
    },
    {
      "inputs": [],
      "name": "entities",
      "outputs": [
        {
          "internalType": "address[]",
          "name": "",
          "type": "address[]"
        }
      ],
      "stateMutability": "view",
      "type": "function"
    },
    {
      "inputs": [
        {
          "internalType": "address",
          "name": "caller",
          "type": "address"
        }
      ],
      "name": "isRegistered",
      "outputs": [
        {
          "internalType": "bool",
          "name": "",
          "type": "bool"
        }
      ],
      "stateMutability": "view",
      "type": "function"
    },
    {
      "inputs": [],
      "name": "owner",
      "outputs": [
        {
          "internalType": "address",
          "name": "",
          "type": "address"
        }
      ],
      "stateMutability": "view",
      "type": "function"
    },
    {
      "inputs": [],
      "name": "register",
      "outputs": [],
      "stateMutability": "nonpayable",
      "type": "function"
    }
  ],
  "bytecode": "0x6101006040523480156200001257600080fd5b506040516200607038038062006070833981810160405281019062000038919062000397565b3373ffffffffffffffffffffffffffffffffffffffff1660808173ffffffffffffffffffffffffffffffffffffffff16815250508273ffffffffffffffffffffffffffffffffffffffff1660a08173ffffffffffffffffffffffffffffffffffffffff16815250508173ffffffffffffffffffffffffffffffffffffffff1660c08173ffffffffffffffffffffffffffffffffffffffff16815250508073ffffffffffffffffffffffffffffffffffffffff1660e08173ffffffffffffffffffffffffffffffffffffffff16815250506001600260007321c8a148933e6ca502b47d729a485579c22e8a6973ffffffffffffffffffffffffffffffffffffffff1673ffffffffffffffffffffffffffffffffffffffff16815260200190815260200160002060006101000a81548160ff0219169083151502179055506001600260007307865c6e87b9f70255377e024ace6630c1eaa37f73ffffffffffffffffffffffffffffffffffffffff1673ffffffffffffffffffffffffffffffffffffffff16815260200190815260200160002060006101000a81548160ff02191690831515021790555060016002600073b4fbf271143f4fbf7b91a5ded31805e42b2208d673ffffffffffffffffffffffffffffffffffffffff1673ffffffffffffffffffffffffffffffffffffffff16815260200190815260200160002060006101000a81548160ff02191690831515021790555060016002600073326c977e6efc84e512bb9c30f76e30c160ed06fb73ffffffffffffffffffffffffffffffffffffffff1673ffffffffffffffffffffffffffffffffffffffff16815260200190815260200160002060006101000a81548160ff021916908315150217905550600160026000739c556b18d2370d4c44f3b3153d340d9abfd8d99573ffffffffffffffffffffffffffffffffffffffff1673ffffffffffffffffffffffffffffffffffffffff16815260200190815260200160002060006101000a81548160ff021916908315150217905550505050620003f3565b600080fd5b600073ffffffffffffffffffffffffffffffffffffffff82169050919050565b60006200035f8262000332565b9050919050565b620003718162000352565b81146200037d57600080fd5b50565b600081519050620003918162000366565b92915050565b600080600060608486031215620003b357620003b26200032d565b5b6000620003c38682870162000380565b9350506020620003d68682870162000380565b9250506040620003e98682870162000380565b9150509250925092565b60805160a05160c05160e051615c20620004506000396000610aa5015260008181610ac601528181610c5a0152610dbf015260008181610275015281816103e80152818161077e01526108f101526000610d410152615c206000f3fe60806040523480156200001157600080fd5b5060043610620000945760003560e01c80634cb7236711620000635780634cb7236714620001335780638da5cb5b1462000169578063c3c5a547146200018b578063efc7935614620001c15762000094565b80631615fd0314620000995780631aa3a00814620000bb578063417590da14620000c7578063487c5cdf14620000fd575b600080fd5b620000a3620001e3565b604051620000b2919062000ef3565b60405180910390f35b620000c562000273565b005b620000e56004803603810190620000df919062000f4d565b62000588565b604051620000f4919062000ef3565b60405180910390f35b6200011b600480360381019062000115919062000f7f565b62000657565b6040516200012a919062000fe3565b60405180910390f35b6200015160048036038101906200014b919062000f4d565b620006eb565b60405162000160919062001011565b60405180910390f35b6200017362000d3d565b60405162000182919062001011565b60405180910390f35b620001a96004803603810190620001a3919062000f4d565b62000d65565b604051620001b8919062000fe3565b60405180910390f35b620001cb62000dbb565b604051620001da919062001011565b60405180910390f35b606060008054806020026020016040519081016040528092919081815260200182805480156200026957602002820191906000526020600020905b8160009054906101000a900473ffffffffffffffffffffffffffffffffffffffff1673ffffffffffffffffffffffffffffffffffffffff16815260200190600101908083116200021e575b5050505050905090565b7f000000000000000000000000000000000000000000000000000000000000000073ffffffffffffffffffffffffffffffffffffffff166339f920ab336040518263ffffffff1660e01b8152600401620002ce919062001011565b602060405180830381865afa158015620002ec573d6000803e3d6000fd5b505050506040513d601f19601f820116820180604052508101906200031291906200105f565b62000354576040517f08c379a00000000000000000000000000000000000000000000000000000000081526004016200034b90620010f2565b60405180910390fd5b600160003373ffffffffffffffffffffffffffffffffffffffff1673ffffffffffffffffffffffffffffffffffffffff16815260200190815260200160002060009054906101000a900460ff1615620003e4576040517f08c379a0000000000000000000000000000000000000000000000000000000008152600401620003db9062001164565b60405180910390fd5b60027f000000000000000000000000000000000000000000000000000000000000000073ffffffffffffffffffffffffffffffffffffffff1663b7caec87336040518263ffffffff1660e01b815260040162000441919062001011565b602060405180830381865afa1580156200045f573d6000803e3d6000fd5b505050506040513d601f19601f82011682018060405250810190620004859190620011c4565b60ff161015620004cc576040517f08c379a0000000000000000000000000000000000000000000000000000000008152600401620004c39062001246565b60405180910390fd5b60018060003373ffffffffffffffffffffffffffffffffffffffff1673ffffffffffffffffffffffffffffffffffffffff16815260200190815260200160002060006101000a81548160ff0219169083151502179055506000339080600181540180825580915050600190039060005260206000200160009091909190916101000a81548173ffffffffffffffffffffffffffffffffffffffff021916908373ffffffffffffffffffffffffffffffffffffffff160217905550565b6060600360008373ffffffffffffffffffffffffffffffffffffffff1673ffffffffffffffffffffffffffffffffffffffff1681526020019081526020016000208054806020026020016040519081016040528092919081815260200182805480156200064b57602002820191906000526020600020905b8160009054906101000a900473ffffffffffffffffffffffffffffffffffffffff1673ffffffffffffffffffffffffffffffffffffffff168152602001906001019080831162000600575b50505050509050919050565b6000600460008473ffffffffffffffffffffffffffffffffffffffff1673ffffffffffffffffffffffffffffffffffffffff16815260200190815260200160002060008373ffffffffffffffffffffffffffffffffffffffff1673ffffffffffffffffffffffffffffffffffffffff16815260200190815260200160002060009054906101000a900460ff16905092915050565b6000600160003373ffffffffffffffffffffffffffffffffffffffff1673ffffffffffffffffffffffffffffffffffffffff16815260200190815260200160002060009054906101000a900460ff166200077c576040517f08c379a00000000000000000000000000000000000000000000000000000000081526004016200077390620012b8565b60405180910390fd5b7f000000000000000000000000000000000000000000000000000000000000000073ffffffffffffffffffffffffffffffffffffffff166339f920ab336040518263ffffffff1660e01b8152600401620007d7919062001011565b602060405180830381865afa158015620007f5573d6000803e3d6000fd5b505050506040513d601f19601f820116820180604052508101906200081b91906200105f565b6200085d576040517f08c379a00000000000000000000000000000000000000000000000000000000081526004016200085490620010f2565b60405180910390fd5b81600260008273ffffffffffffffffffffffffffffffffffffffff1673ffffffffffffffffffffffffffffffffffffffff16815260200190815260200160002060009054906101000a900460ff16620008ed576040517f08c379a0000000000000000000000000000000000000000000000000000000008152600401620008e4906200132a565b60405180910390fd5b60027f000000000000000000000000000000000000000000000000000000000000000073ffffffffffffffffffffffffffffffffffffffff1663b7caec87336040518263ffffffff1660e01b81526004016200094a919062001011565b602060405180830381865afa15801562000968573d6000803e3d6000fd5b505050506040513d601f19601f820116820180604052508101906200098e9190620011c4565b60ff161015620009d5576040517f08c379a0000000000000000000000000000000000000000000000000000000008152600401620009cc9062001246565b60405180910390fd5b600460003373ffffffffffffffffffffffffffffffffffffffff1673ffffffffffffffffffffffffffffffffffffffff16815260200190815260200160002060008473ffffffffffffffffffffffffffffffffffffffff1673ffffffffffffffffffffffffffffffffffffffff16815260200190815260200160002060009054906101000a900460ff161562000aa2576040517f08c379a000000000000000000000000000000000000000000000000000000000815260040162000a99906200139c565b60405180910390fd5b827f00000000000000000000000000000000000000000000000000000000000000007f00000000000000000000000000000000000000000000000000000000000000003360405162000af49062000de3565b62000b039493929190620013be565b604051809103906000f08015801562000b20573d6000803e3d6000fd5b509150600360003373ffffffffffffffffffffffffffffffffffffffff1673ffffffffffffffffffffffffffffffffffffffff168152602001908152602001600020829080600181540180825580915050600190039060005260206000200160009091909190916101000a81548173ffffffffffffffffffffffffffffffffffffffff021916908373ffffffffffffffffffffffffffffffffffffffff1602179055506001600460003373ffffffffffffffffffffffffffffffffffffffff1673ffffffffffffffffffffffffffffffffffffffff16815260200190815260200160002060008573ffffffffffffffffffffffffffffffffffffffff1673ffffffffffffffffffffffffffffffffffffffff16815260200190815260200160002060006101000a81548160ff0219169083151502179055507f000000000000000000000000000000000000000000000000000000000000000073ffffffffffffffffffffffffffffffffffffffff1663783ff1f1836040518263ffffffff1660e01b815260040162000cb3919062001011565b600060405180830381600087803b15801562000cce57600080fd5b505af115801562000ce3573d6000803e3d6000fd5b505050503373ffffffffffffffffffffffffffffffffffffffff167f80e5d607e143b547134294afbce2c48623473eb90d7a68d64fa88273b94529368460405162000d2f919062001011565b60405180910390a250919050565b60007f0000000000000000000000000000000000000000000000000000000000000000905090565b6000600160008373ffffffffffffffffffffffffffffffffffffffff1673ffffffffffffffffffffffffffffffffffffffff16815260200190815260200160002060009054906101000a900460ff169050919050565b60007f0000000000000000000000000000000000000000000000000000000000000000905090565b6147df806200140c83390190565b600081519050919050565b600082825260208201905092915050565b6000819050602082019050919050565b600073ffffffffffffffffffffffffffffffffffffffff82169050919050565b600062000e4a8262000e1d565b9050919050565b62000e5c8162000e3d565b82525050565b600062000e70838362000e51565b60208301905092915050565b6000602082019050919050565b600062000e968262000df1565b62000ea2818562000dfc565b935062000eaf8362000e0d565b8060005b8381101562000ee657815162000eca888262000e62565b975062000ed78362000e7c565b92505060018101905062000eb3565b5085935050505092915050565b6000602082019050818103600083015262000f0f818462000e89565b905092915050565b600080fd5b62000f278162000e3d565b811462000f3357600080fd5b50565b60008135905062000f478162000f1c565b92915050565b60006020828403121562000f665762000f6562000f17565b5b600062000f768482850162000f36565b91505092915050565b6000806040838503121562000f995762000f9862000f17565b5b600062000fa98582860162000f36565b925050602062000fbc8582860162000f36565b9150509250929050565b60008115159050919050565b62000fdd8162000fc6565b82525050565b600060208201905062000ffa600083018462000fd2565b92915050565b6200100b8162000e3d565b82525050565b600060208201905062001028600083018462001000565b92915050565b620010398162000fc6565b81146200104557600080fd5b50565b60008151905062001059816200102e565b92915050565b60006020828403121562001078576200107762000f17565b5b6000620010888482850162001048565b91505092915050565b600082825260208201905092915050565b7f4e41535400000000000000000000000000000000000000000000000000000000600082015250565b6000620010da60048362001091565b9150620010e782620010a2565b602082019050919050565b600060208201905081810360008301526200110d81620010cb565b9050919050565b7f4152000000000000000000000000000000000000000000000000000000000000600082015250565b60006200114c60028362001091565b9150620011598262001114565b602082019050919050565b600060208201905081810360008301526200117f816200113d565b9050919050565b600060ff82169050919050565b6200119e8162001186565b8114620011aa57600080fd5b50565b600081519050620011be8162001193565b92915050565b600060208284031215620011dd57620011dc62000f17565b5b6000620011ed84828501620011ad565b91505092915050565b7f4e56415400000000000000000000000000000000000000000000000000000000600082015250565b60006200122e60048362001091565b91506200123b82620011f6565b602082019050919050565b6000602082019050818103600083015262001261816200121f565b9050919050565b7f4e52000000000000000000000000000000000000000000000000000000000000600082015250565b6000620012a060028362001091565b9150620012ad8262001268565b602082019050919050565b60006020820190508181036000830152620012d38162001291565b9050919050565b7f4943000000000000000000000000000000000000000000000000000000000000600082015250565b60006200131260028362001091565b91506200131f82620012da565b602082019050919050565b60006020820190508181036000830152620013458162001303565b9050919050565b7f4149000000000000000000000000000000000000000000000000000000000000600082015250565b60006200138460028362001091565b915062001391826200134c565b602082019050919050565b60006020820190508181036000830152620013b78162001375565b9050919050565b6000608082019050620013d5600083018762001000565b620013e4602083018662001000565b620013f3604083018562001000565b62001402606083018462001000565b9594505050505056fe6101006040523480156200001257600080fd5b50604051620047df380380620047df83398181016040528101906200003891906200017c565b8073ffffffffffffffffffffffffffffffffffffffff1660808173ffffffffffffffffffffffffffffffffffffffff16815250508373ffffffffffffffffffffffffffffffffffffffff1660a08173ffffffffffffffffffffffffffffffffffffffff16815250508173ffffffffffffffffffffffffffffffffffffffff1660c08173ffffffffffffffffffffffffffffffffffffffff16815250508273ffffffffffffffffffffffffffffffffffffffff1660e08173ffffffffffffffffffffffffffffffffffffffff168152505050505050620001ee565b600080fd5b600073ffffffffffffffffffffffffffffffffffffffff82169050919050565b6000620001448262000117565b9050919050565b620001568162000137565b81146200016257600080fd5b50565b60008151905062000176816200014b565b92915050565b6000806000806080858703121562000199576200019862000112565b5b6000620001a98782880162000165565b9450506020620001bc8782880162000165565b9350506040620001cf8782880162000165565b9250506060620001e28782880162000165565b91505092959194509250565b60805160a05160c05160e05161446762000378600039600081816107ba0152818161087101528181610948015281816110eb015281816114ed0152818161162f01528181611735015281816118b70152818161199901528181611b7001528181611c2001528181611cfe01528181611dc00152818161243a0152612bcc015260008181610e7f01528181610f2a015281816111ef0152818161129c0152818161136b0152818161143d01528181611fb50152818161206001528181612cc30152612d4f015260008181610c210152818161122c015281816112fa015281816113c90152818161147a0152818161157e01528181611a8c0152818161210e015281816123300152818161241101528181612611015281816126b8015281816128ad0152612b0c015260008181610a8401528181610cf601528181610ebb01528181610f66015281816112d9015281816113a801528181611cd601528181611ff10152818161209c015281816124ee01528181612757015281816129960152612d8b01526144676000f3fe608060405234801561001057600080fd5b50600436106101f05760003560e01c806382afd23b1161010f578063c55dae63116100a2578063e755ddd711610071578063e755ddd714610673578063f0d8100a1461068f578063f23a6e61146106bf578063fcbc669a146106ef576101f0565b8063c55dae63146105eb578063d3b7811b14610609578063e2bbb15814610639578063e5328e0614610655576101f0565b8063932a8de0116100de578063932a8de014610553578063a874302214610583578063bc197c811461059f578063c0a6026c146105cf576101f0565b806382afd23b146104a557806388bdc083146104d55780638da5cb5b146105055780638f0dbf7714610523576101f0565b8063441a3e701161018757806370876c981161015657806370876c981461040d57806377e2a08b146104295780637a41984b146104595780637cbc237314610489576101f0565b8063441a3e7014610375578063549493bb146103915780636567dc4d146103c15780636ff80d93146103dd576101f0565b806314f29493116101c357806314f29493146102b55780632f3ad61f146102e55780633097afb81461031557806339e3af9b14610345576101f0565b806301ffc9a7146101f5578063021594971461022557806308913ce8146102555780630914902014610285575b600080fd5b61020f600480360381019061020a9190612f4a565b61071f565b60405161021c9190612f92565b60405180910390f35b61023f600480360381019061023a9190612fe3565b610799565b60405161024c919061301f565b60405180910390f35b61026f600480360381019061026a9190612fe3565b6107b6565b60405161027c919061301f565b60405180910390f35b61029f600480360381019061029a9190612fe3565b61086d565b6040516102ac9190612f92565b60405180910390f35b6102cf60048036038101906102ca9190612fe3565b610930565b6040516102dc919061301f565b60405180910390f35b6102ff60048036038101906102fa9190612fe3565b6109fa565b60405161030c9190612f92565b60405180910390f35b61032f600480360381019061032a9190612fe3565b610a24565b60405161033c9190612f92565b60405180910390f35b61035f600480360381019061035a9190612fe3565b610a5d565b60405161036c9190612f92565b60405180910390f35b61038f600480360381019061038a919061303a565b610a82565b005b6103ab60048036038101906103a69190612fe3565b610cc2565b6040516103b89190612f92565b60405180910390f35b6103db60048036038101906103d69190612fe3565b610cf4565b005b6103f760048036038101906103f29190612fe3565b61101c565b6040516104049190612f92565b60405180910390f35b6104276004803603810190610422919061303a565b611054565b005b610443600480360381019061043e9190612fe3565b611622565b604051610450919061301f565b60405180910390f35b610473600480360381019061046e9190612fe3565b611708565b6040516104809190612f92565b60405180910390f35b6104a3600480360381019061049e919061303a565b611732565b005b6104bf60048036038101906104ba9190612fe3565b611b6c565b6040516104cc9190612f92565b60405180910390f35b6104ef60048036038101906104ea9190612fe3565b611c1b565b6040516104fc919061301f565b60405180910390f35b61050d611cd2565b60405161051a91906130bb565b60405180910390f35b61053d60048036038101906105389190612fe3565b611cfa565b60405161054a9190612f92565b60405180910390f35b61056d60048036038101906105689190612fe3565b611da8565b60405161057a919061301f565b60405180910390f35b61059d60048036038101906105989190612fe3565b611e73565b005b6105b960048036038101906105b49190613310565b6121f2565b6040516105c691906133ee565b60405180910390f35b6105e960048036038101906105e49190612fe3565b612207565b005b6105f361240d565b60405161060091906130bb565b60405180910390f35b610623600480360381019061061e9190612fe3565b612435565b604051610630919061301f565b60405180910390f35b610653600480360381019061064e919061303a565b6124ec565b005b61065d6126b4565b60405161066a919061301f565b60405180910390f35b61068d60048036038101906106889190612fe3565b612755565b005b6106a960048036038101906106a49190612fe3565b612960565b6040516106b6919061301f565b60405180910390f35b6106d960048036038101906106d49190613409565b61297d565b6040516106e691906133ee565b60405180910390f35b61070960048036038101906107049190613541565b612992565b604051610716919061301f565b60405180910390f35b60007f4e2312e0000000000000000000000000000000000000000000000000000000007bffffffffffffffffffffffffffffffffffffffffffffffffffffffff1916827bffffffffffffffffffffffffffffffffffffffffffffffffffffffff19161480610792575061079182612e5e565b5b9050919050565b600060046000838152602001908152602001600020549050919050565b60007f000000000000000000000000000000000000000000000000000000000000000073ffffffffffffffffffffffffffffffffffffffff1663c3ada2ed836040518263ffffffff1660e01b8152600401610811919061301f565b600060405180830381865afa15801561082e573d6000803e3d6000fd5b505050506040513d6000823e3d601f19601f82011682018060405250810190610857919061380b565b60800151426108669190613883565b9050919050565b60007f000000000000000000000000000000000000000000000000000000000000000073ffffffffffffffffffffffffffffffffffffffff1663c3ada2ed836040518263ffffffff1660e01b81526004016108c8919061301f565b600060405180830381865afa1580156108e5573d6000803e3d6000fd5b505050506040513d6000823e3d601f19601f8201168201806040525081019061090e919061380b565b6101400151600260008481526020019081526020016000205410159050919050565b600060026000838152602001908152602001600020547f000000000000000000000000000000000000000000000000000000000000000073ffffffffffffffffffffffffffffffffffffffff1663c3ada2ed846040518263ffffffff1660e01b815260040161099f919061301f565b600060405180830381865afa1580156109bc573d6000803e3d6000fd5b505050506040513d6000823e3d601f19601f820116820180604052508101906109e5919061380b565b606001516109f391906138b7565b9050919050565b60006008600083815260200190815260200160002060009054906101000a900460ff169050919050565b6000610a2f82611cfa565b8015610a565750610a3f82611622565b600460008481526020019081526020016000205410155b9050919050565b6000610a6882611b6c565b158015610a7b5750610a798261086d565b155b9050919050565b7f000000000000000000000000000000000000000000000000000000000000000073ffffffffffffffffffffffffffffffffffffffff163373ffffffffffffffffffffffffffffffffffffffff1614610b10576040517f08c379a0000000000000000000000000000000000000000000000000000000008152600401610b0790613956565b60405180910390fd5b610b1982611b6c565b158015610b2c5750610b2a82610a5d565b155b8015610b3e5750610b3c82611708565b155b8015610b605750610b4e826109fa565b80610b5e5750610b5d8261101c565b5b155b610b9f576040517f08c379a0000000000000000000000000000000000000000000000000000000008152600401610b96906139c2565b60405180910390fd5b6004600083815260200190815260200160002054811115610bf5576040517f08c379a0000000000000000000000000000000000000000000000000000000008152600401610bec90613a2e565b60405180910390fd5b80600460008481526020019081526020016000206000828254610c189190613883565b925050819055507f000000000000000000000000000000000000000000000000000000000000000073ffffffffffffffffffffffffffffffffffffffff1663a9059cbb33836040518363ffffffff1660e01b8152600401610c7a929190613a4e565b6020604051808303816000875af1158015610c99573d6000803e3d6000fd5b505050506040513d601f19601f82011682018060405250810190610cbd9190613aa3565b505050565b600060026000838152602001908152602001600020546003600084815260200190815260200160002054149050919050565b7f000000000000000000000000000000000000000000000000000000000000000073ffffffffffffffffffffffffffffffffffffffff163373ffffffffffffffffffffffffffffffffffffffff1614610d82576040517f08c379a0000000000000000000000000000000000000000000000000000000008152600401610d7990613956565b60405180910390fd5b610d8b81611708565b158015610d9e5750610d9c816109fa565b155b8015610dc45750610dae81611622565b6004600083815260200190815260200160002054105b610e03576040517f08c379a0000000000000000000000000000000000000000000000000000000008152600401610dfa90613b1c565b60405180910390fd5b600060046000838152602001908152602001600020549050600260008381526020019081526020016000205481610e3a9190613b6b565b600560008481526020019081526020016000208190555060016008600084815260200190815260200160002060006101000a81548160ff0219169083151502179055507f000000000000000000000000000000000000000000000000000000000000000073ffffffffffffffffffffffffffffffffffffffff1663dae382d67f00000000000000000000000000000000000000000000000000000000000000006040518263ffffffff1660e01b8152600401610ef691906130bb565b600060405180830381600087803b158015610f1057600080fd5b505af1158015610f24573d6000803e3d6000fd5b505050507f000000000000000000000000000000000000000000000000000000000000000073ffffffffffffffffffffffffffffffffffffffff1663d050a7c87f000000000000000000000000000000000000000000000000000000000000000060016040518363ffffffff1660e01b8152600401610fa4929190613a4e565b600060405180830381600087803b158015610fbe57600080fd5b505af1158015610fd2573d6000803e3d6000fd5b50505050817fc4f17a65d54873d57229ea5f59c4ddec592d095bc17581372676402c8228b9cd61100184611622565b83604051611010929190613b9c565b60405180910390a25050565b600061102782611cfa565b801561104d575061103782611622565b6004600084815260200190815260200160002054105b9050919050565b61105d82611b6c565b61109c576040517f08c379a000000000000000000000000000000000000000000000000000000000815260040161109390613c11565b60405180910390fd5b806110a683611da8565b10156110e7576040517f08c379a00000000000000000000000000000000000000000000000000000000081526004016110de90613c7d565b60405180910390fd5b60007f000000000000000000000000000000000000000000000000000000000000000073ffffffffffffffffffffffffffffffffffffffff1663c3ada2ed846040518263ffffffff1660e01b8152600401611142919061301f565b600060405180830381865afa15801561115f573d6000803e3d6000fd5b505050506040513d6000823e3d601f19601f82011682018060405250810190611188919061380b565b606001518261119791906138b7565b9050816002600085815260200190815260200160002060008282546111bc9190613c9d565b92505081905550806004600085815260200190815260200160002060008282546111e69190613c9d565b925050819055507f000000000000000000000000000000000000000000000000000000000000000073ffffffffffffffffffffffffffffffffffffffff1663576ff163827f00000000000000000000000000000000000000000000000000000000000000006040518363ffffffff1660e01b8152600401611268929190613cd1565b600060405180830381600087803b15801561128257600080fd5b505af1158015611296573d6000803e3d6000fd5b505050507f000000000000000000000000000000000000000000000000000000000000000073ffffffffffffffffffffffffffffffffffffffff1663b8c2e4f3827f00000000000000000000000000000000000000000000000000000000000000007f00000000000000000000000000000000000000000000000000000000000000006040518463ffffffff1660e01b815260040161133793929190613cfa565b600060405180830381600087803b15801561135157600080fd5b505af1158015611365573d6000803e3d6000fd5b505050507f000000000000000000000000000000000000000000000000000000000000000073ffffffffffffffffffffffffffffffffffffffff16637db79a3d827f00000000000000000000000000000000000000000000000000000000000000007f000000000000000000000000000000000000000000000000000000000000000060016040518563ffffffff1660e01b81526004016114099493929190613d31565b600060405180830381600087803b15801561142357600080fd5b505af1158015611437573d6000803e3d6000fd5b505050507f000000000000000000000000000000000000000000000000000000000000000073ffffffffffffffffffffffffffffffffffffffff1663b0b4dfaa827f000000000000000000000000000000000000000000000000000000000000000060016040518463ffffffff1660e01b81526004016114b993929190613d76565b600060405180830381600087803b1580156114d357600080fd5b505af11580156114e7573d6000803e3d6000fd5b505050507f000000000000000000000000000000000000000000000000000000000000000073ffffffffffffffffffffffffffffffffffffffff1663f242432a303386866040518563ffffffff1660e01b815260040161154a9493929190613de4565b600060405180830381600087803b15801561156457600080fd5b505af1158015611578573d6000803e3d6000fd5b505050507f000000000000000000000000000000000000000000000000000000000000000073ffffffffffffffffffffffffffffffffffffffff166323b872dd3330846040518463ffffffff1660e01b81526004016115d993929190613e3c565b6020604051808303816000875af11580156115f8573d6000803e3d6000fd5b505050506040513d601f19601f8201168201806040525081019061161c9190613aa3565b50505050565b6000670de0b6b3a76400007f000000000000000000000000000000000000000000000000000000000000000073ffffffffffffffffffffffffffffffffffffffff1663c3ada2ed846040518263ffffffff1660e01b8152600401611686919061301f565b600060405180830381865afa1580156116a3573d6000803e3d6000fd5b505050506040513d6000823e3d601f19601f820116820180604052508101906116cc919061380b565b61016001516116da84610930565b6116e491906138b7565b6116ee9190613b6b565b6116f783610930565b6117019190613c9d565b9050919050565b60006009600083815260200190815260200160002060009054906101000a900460ff169050919050565b807f000000000000000000000000000000000000000000000000000000000000000073ffffffffffffffffffffffffffffffffffffffff1662fdd58e33856040518363ffffffff1660e01b815260040161178d929190613a4e565b602060405180830381865afa1580156117aa573d6000803e3d6000fd5b505050506040513d601f19601f820116820180604052508101906117ce9190613e73565b101561180f576040517f08c379a000000000000000000000000000000000000000000000000000000000815260040161180690613c7d565b60405180910390fd5b61181882611708565b80611828575061182782610a5d565b5b806118385750611837826109fa565b5b611877576040517f08c379a000000000000000000000000000000000000000000000000000000000815260040161186e90613eec565b60405180910390fd5b60008061188384611708565b156118a7576006600085815260200190815260200160002054915060009050611997565b6118b084610a5d565b15611963577f000000000000000000000000000000000000000000000000000000000000000073ffffffffffffffffffffffffffffffffffffffff1663c3ada2ed856040518263ffffffff1660e01b815260040161190e919061301f565b600060405180830381865afa15801561192b573d6000803e3d6000fd5b505050506040513d6000823e3d601f19601f82011682018060405250810190611954919061380b565b60600151915060019050611996565b61196c846109fa565b15611990576005600085815260200190815260200160002054915060029050611995565b600080fd5b5b5b7f000000000000000000000000000000000000000000000000000000000000000073ffffffffffffffffffffffffffffffffffffffff1663f5298aca3386866040518463ffffffff1660e01b81526004016119f493929190613f0c565b600060405180830381600087803b158015611a0e57600080fd5b505af1158015611a22573d6000803e3d6000fd5b5050505082600360008681526020019081526020016000206000828254611a499190613c9d565b9250508190555060008284611a5e91906138b7565b905080600460008781526020019081526020016000206000828254611a839190613883565b925050819055507f000000000000000000000000000000000000000000000000000000000000000073ffffffffffffffffffffffffffffffffffffffff1663a9059cbb33836040518363ffffffff1660e01b8152600401611ae5929190613a4e565b6020604051808303816000875af1158015611b04573d6000803e3d6000fd5b505050506040513d601f19601f82011682018060405250810190611b289190613aa3565b50847fa5851b0172fdafd3dafe0e52ce051747548a4c642a2f22793c01faf228e13062338685604051611b5d93929190613f0c565b60405180910390a25050505050565b60007f000000000000000000000000000000000000000000000000000000000000000073ffffffffffffffffffffffffffffffffffffffff1663c3ada2ed836040518263ffffffff1660e01b8152600401611bc7919061301f565b600060405180830381865afa158015611be4573d6000803e3d6000fd5b505050506040513d6000823e3d601f19601f82011682018060405250810190611c0d919061380b565b60c001514211159050919050565b6000427f000000000000000000000000000000000000000000000000000000000000000073ffffffffffffffffffffffffffffffffffffffff1663c3ada2ed846040518263ffffffff1660e01b8152600401611c77919061301f565b600060405180830381865afa158015611c94573d6000803e3d6000fd5b505050506040513d6000823e3d601f19601f82011682018060405250810190611cbd919061380b565b60c00151611ccb9190613883565b9050919050565b60007f0000000000000000000000000000000000000000000000000000000000000000905090565b60007f000000000000000000000000000000000000000000000000000000000000000073ffffffffffffffffffffffffffffffffffffffff1663c3ada2ed836040518263ffffffff1660e01b8152600401611d55919061301f565b600060405180830381865afa158015611d72573d6000803e3d6000fd5b505050506040513d6000823e3d601f19601f82011682018060405250810190611d9b919061380b565b60a0015142119050919050565b600060026000838152602001908152602001600020547f000000000000000000000000000000000000000000000000000000000000000073ffffffffffffffffffffffffffffffffffffffff1663c3ada2ed846040518263ffffffff1660e01b8152600401611e17919061301f565b600060405180830381865afa158015611e34573d6000803e3d6000fd5b505050506040513d6000823e3d601f19601f82011682018060405250810190611e5d919061380b565b6101200151611e6c9190613883565b9050919050565b611e7c81611708565b158015611e8f5750611e8d816109fa565b155b8015611ea05750611e9f8161101c565b5b611edf576040517f08c379a0000000000000000000000000000000000000000000000000000000008152600401611ed690613f8f565b60405180910390fd5b60006103e86004600084815260200190815260200160002054611f029190613b6b565b90506000816004600085815260200190815260200160002054611f259190613883565b9050600260008481526020019081526020016000205481611f469190613b6b565b600560008581526020019081526020016000208190555081600460008581526020019081526020016000206000828254611f809190613883565b9250508190555060016008600085815260200190815260200160002060006101000a81548160ff0219169083151502179055507f000000000000000000000000000000000000000000000000000000000000000073ffffffffffffffffffffffffffffffffffffffff1663dae382d67f00000000000000000000000000000000000000000000000000000000000000006040518263ffffffff1660e01b815260040161202c91906130bb565b600060405180830381600087803b15801561204657600080fd5b505af115801561205a573d6000803e3d6000fd5b505050507f000000000000000000000000000000000000000000000000000000000000000073ffffffffffffffffffffffffffffffffffffffff1663d050a7c87f000000000000000000000000000000000000000000000000000000000000000060016040518363ffffffff1660e01b81526004016120da929190613a4e565b600060405180830381600087803b1580156120f457600080fd5b505af1158015612108573d6000803e3d6000fd5b505050507f000000000000000000000000000000000000000000000000000000000000000073ffffffffffffffffffffffffffffffffffffffff1663a9059cbb33846040518363ffffffff1660e01b8152600401612167929190613a4e565b6020604051808303816000875af1158015612186573d6000803e3d6000fd5b505050506040513d601f19601f820116820180604052508101906121aa9190613aa3565b50827fc4f17a65d54873d57229ea5f59c4ddec592d095bc17581372676402c8228b9cd6121d685611622565b836040516121e5929190613b9c565b60405180910390a2505050565b600063bc197c8160e01b905095945050505050565b612210816109fa565b158015612223575061222181611708565b155b8015612234575061223381610a24565b5b612273576040517f08c379a000000000000000000000000000000000000000000000000000000000815260040161226a90613ffb565b60405180910390fd5b600061227e82611622565b905060006103e8826122909190613b6b565b9050600081836122a09190613883565b90506002600085815260200190815260200160002054816122c19190613b6b565b6006600086815260200190815260200160002081905550816004600086815260200190815260200160002060008282546122fb9190613883565b9250508190555060016009600086815260200190815260200160002060006101000a81548160ff0219169083151502179055507f000000000000000000000000000000000000000000000000000000000000000073ffffffffffffffffffffffffffffffffffffffff1663a9059cbb33846040518363ffffffff1660e01b8152600401612389929190613a4e565b6020604051808303816000875af11580156123a8573d6000803e3d6000fd5b505050506040513d601f19601f820116820180604052508101906123cc9190613aa3565b50837fac2eeaf45d1b75aed6b3285cda3efb3c382cce02ba313558bbb90be57f8843e484836040516123ff929190613b9c565b60405180910390a250505050565b60007f0000000000000000000000000000000000000000000000000000000000000000905090565b6000427f000000000000000000000000000000000000000000000000000000000000000073ffffffffffffffffffffffffffffffffffffffff1663c3ada2ed846040518263ffffffff1660e01b8152600401612491919061301f565b600060405180830381865afa1580156124ae573d6000803e3d6000fd5b505050506040513d6000823e3d601f19601f820116820180604052508101906124d7919061380b565b60a001516124e59190613883565b9050919050565b7f000000000000000000000000000000000000000000000000000000000000000073ffffffffffffffffffffffffffffffffffffffff163373ffffffffffffffffffffffffffffffffffffffff161461257a576040517f08c379a000000000000000000000000000000000000000000000000000000000815260040161257190613956565b60405180910390fd5b612583826109fa565b8061259357506125928261101c565b5b1580156125a657506125a482611708565b155b6125e5576040517f08c379a00000000000000000000000000000000000000000000000000000000081526004016125dc90614067565b60405180910390fd5b806004600084815260200190815260200160002060008282546126089190613c9d565b925050819055507f000000000000000000000000000000000000000000000000000000000000000073ffffffffffffffffffffffffffffffffffffffff166323b872dd3330846040518463ffffffff1660e01b815260040161266c93929190613e3c565b6020604051808303816000875af115801561268b573d6000803e3d6000fd5b505050506040513d601f19601f820116820180604052508101906126af9190613aa3565b505050565b60007f000000000000000000000000000000000000000000000000000000000000000073ffffffffffffffffffffffffffffffffffffffff166370a08231306040518263ffffffff1660e01b815260040161270f91906130bb565b602060405180830381865afa15801561272c573d6000803e3d6000fd5b505050506040513d601f19601f820116820180604052508101906127509190613e73565b905090565b7f000000000000000000000000000000000000000000000000000000000000000073ffffffffffffffffffffffffffffffffffffffff163373ffffffffffffffffffffffffffffffffffffffff16146127e3576040517f08c379a00000000000000000000000000000000000000000000000000000000081526004016127da90613956565b60405180910390fd5b6127ec81611708565b80156127fd57506127fc81610cc2565b5b61283c576040517f08c379a0000000000000000000000000000000000000000000000000000000008152600401612833906139c2565b60405180910390fd5b6000600460008381526020019081526020016000205411612892576040517f08c379a0000000000000000000000000000000000000000000000000000000008152600401612889906140d3565b60405180910390fd5b600060046000838152602001908152602001600020819055507f000000000000000000000000000000000000000000000000000000000000000073ffffffffffffffffffffffffffffffffffffffff1663a9059cbb3360046000858152602001908152602001600020546040518363ffffffff1660e01b8152600401612919929190613a4e565b6020604051808303816000875af1158015612938573d6000803e3d6000fd5b505050506040513d601f19601f8201168201806040525081019061295c9190613aa3565b5050565b600060046000838152602001908152602001600020549050919050565b600063f23a6e6160e01b905095945050505050565b60007f000000000000000000000000000000000000000000000000000000000000000073ffffffffffffffffffffffffffffffffffffffff163373ffffffffffffffffffffffffffffffffffffffff1614612a22576040517f08c379a0000000000000000000000000000000000000000000000000000000008152600401612a1990613956565b60405180910390fd5b878710612a64576040517f08c379a0000000000000000000000000000000000000000000000000000000008152600401612a5b9061413f565b60405180910390fd5b60b4841015612aa8576040517f08c379a0000000000000000000000000000000000000000000000000000000008152600401612a9f906141ab565b60405180910390fd5b6007831115612aec576040517f08c379a0000000000000000000000000000000000000000000000000000000008152600401612ae390614217565b60405180910390fd5b612af66000612ec8565b60006040518061018001604052808781526020017f000000000000000000000000000000000000000000000000000000000000000073ffffffffffffffffffffffffffffffffffffffff1681526020013373ffffffffffffffffffffffffffffffffffffffff1681526020018881526020014281526020016201518087612b7d91906138b7565b42612b889190613c9d565b81526020016201518086612b9c91906138b7565b42612ba79190613c9d565b81526020018581526020018681526020018a81526020018981526020018481525090507f000000000000000000000000000000000000000000000000000000000000000073ffffffffffffffffffffffffffffffffffffffff166310e28d47308b846040518463ffffffff1660e01b8152600401612c27939291906143ae565b6020604051808303816000875af1158015612c46573d6000803e3d6000fd5b505050506040513d601f19601f82011682018060405250810190612c6a9190613e73565b9150600182908060018154018082558091505060019003906000526020600020016000909190919091505560016007600084815260200190815260200160002060006101000a81548160ff0219169083151502179055507f000000000000000000000000000000000000000000000000000000000000000073ffffffffffffffffffffffffffffffffffffffff1663b54cb16560016040518263ffffffff1660e01b8152600401612d1b919061301f565b600060405180830381600087803b158015612d3557600080fd5b505af1158015612d49573d6000803e3d6000fd5b505050507f000000000000000000000000000000000000000000000000000000000000000073ffffffffffffffffffffffffffffffffffffffff1663bea75cf47f000000000000000000000000000000000000000000000000000000000000000060016040518363ffffffff1660e01b8152600401612dc9929190613a4e565b600060405180830381600087803b158015612de357600080fd5b505af1158015612df7573d6000803e3d6000fd5b50505050817ff73e436c94925e1e8b2f0b16de0a2c56aea7fb27878f7815811bc05bc6c335e88a8986620151808a612e2f91906138b7565b42612e3a9190613c9d565b604051612e4a94939291906143ec565b60405180910390a250979650505050505050565b60007f01ffc9a7000000000000000000000000000000000000000000000000000000007bffffffffffffffffffffffffffffffffffffffffffffffffffffffff1916827bffffffffffffffffffffffffffffffffffffffffffffffffffffffff1916149050919050565b6001816000016000828254019250508190555050565b6000604051905090565b600080fd5b600080fd5b60007fffffffff0000000000000000000000000000000000000000000000000000000082169050919050565b612f2781612ef2565b8114612f3257600080fd5b50565b600081359050612f4481612f1e565b92915050565b600060208284031215612f6057612f5f612ee8565b5b6000612f6e84828501612f35565b91505092915050565b60008115159050919050565b612f8c81612f77565b82525050565b6000602082019050612fa76000830184612f83565b92915050565b6000819050919050565b612fc081612fad565b8114612fcb57600080fd5b50565b600081359050612fdd81612fb7565b92915050565b600060208284031215612ff957612ff8612ee8565b5b600061300784828501612fce565b91505092915050565b61301981612fad565b82525050565b60006020820190506130346000830184613010565b92915050565b6000806040838503121561305157613050612ee8565b5b600061305f85828601612fce565b925050602061307085828601612fce565b9150509250929050565b600073ffffffffffffffffffffffffffffffffffffffff82169050919050565b60006130a58261307a565b9050919050565b6130b58161309a565b82525050565b60006020820190506130d060008301846130ac565b92915050565b6130df8161309a565b81146130ea57600080fd5b50565b6000813590506130fc816130d6565b92915050565b600080fd5b6000601f19601f8301169050919050565b7f4e487b7100000000000000000000000000000000000000000000000000000000600052604160045260246000fd5b61315082613107565b810181811067ffffffffffffffff8211171561316f5761316e613118565b5b80604052505050565b6000613182612ede565b905061318e8282613147565b919050565b600067ffffffffffffffff8211156131ae576131ad613118565b5b602082029050602081019050919050565b600080fd5b60006131d76131d284613193565b613178565b905080838252602082019050602084028301858111156131fa576131f96131bf565b5b835b81811015613223578061320f8882612fce565b8452602084019350506020810190506131fc565b5050509392505050565b600082601f83011261324257613241613102565b5b81356132528482602086016131c4565b91505092915050565b600080fd5b600067ffffffffffffffff82111561327b5761327a613118565b5b61328482613107565b9050602081019050919050565b82818337600083830152505050565b60006132b36132ae84613260565b613178565b9050828152602081018484840111156132cf576132ce61325b565b5b6132da848285613291565b509392505050565b600082601f8301126132f7576132f6613102565b5b81356133078482602086016132a0565b91505092915050565b600080600080600060a0868803121561332c5761332b612ee8565b5b600061333a888289016130ed565b955050602061334b888289016130ed565b945050604086013567ffffffffffffffff81111561336c5761336b612eed565b5b6133788882890161322d565b935050606086013567ffffffffffffffff81111561339957613398612eed565b5b6133a58882890161322d565b925050608086013567ffffffffffffffff8111156133c6576133c5612eed565b5b6133d2888289016132e2565b9150509295509295909350565b6133e881612ef2565b82525050565b600060208201905061340360008301846133df565b92915050565b600080600080600060a0868803121561342557613424612ee8565b5b6000613433888289016130ed565b9550506020613444888289016130ed565b945050604061345588828901612fce565b935050606061346688828901612fce565b925050608086013567ffffffffffffffff81111561348757613486612eed565b5b613493888289016132e2565b9150509295509295909350565b600067ffffffffffffffff8211156134bb576134ba613118565b5b6134c482613107565b9050602081019050919050565b60006134e46134df846134a0565b613178565b905082815260208101848484011115613500576134ff61325b565b5b61350b848285613291565b509392505050565b600082601f83011261352857613527613102565b5b81356135388482602086016134d1565b91505092915050565b600080600080600080600060e0888a0312156135605761355f612ee8565b5b600061356e8a828b01612fce565b975050602061357f8a828b01612fce565b96505060406135908a828b01612fce565b955050606088013567ffffffffffffffff8111156135b1576135b0612eed565b5b6135bd8a828b01613513565b94505060806135ce8a828b01612fce565b93505060a06135df8a828b01612fce565b92505060c06135f08a828b01612fce565b91505092959891949750929550565b600080fd5b600080fd5b60005b8381101561362757808201518184015260208101905061360c565b60008484015250505050565b6000613646613641846134a0565b613178565b9050828152602081018484840111156136625761366161325b565b5b61366d848285613609565b509392505050565b600082601f83011261368a57613689613102565b5b815161369a848260208601613633565b91505092915050565b6000815190506136b2816130d6565b92915050565b6000815190506136c781612fb7565b92915050565b600061018082840312156136e4576136e36135ff565b5b6136ef610180613178565b9050600082015167ffffffffffffffff81111561370f5761370e613604565b5b61371b84828501613675565b600083015250602061372f848285016136a3565b6020830152506040613743848285016136a3565b6040830152506060613757848285016136b8565b606083015250608061376b848285016136b8565b60808301525060a061377f848285016136b8565b60a08301525060c0613793848285016136b8565b60c08301525060e06137a7848285016136b8565b60e0830152506101006137bc848285016136b8565b610100830152506101206137d2848285016136b8565b610120830152506101406137e8848285016136b8565b610140830152506101606137fe848285016136b8565b6101608301525092915050565b60006020828403121561382157613820612ee8565b5b600082015167ffffffffffffffff81111561383f5761383e612eed565b5b61384b848285016136cd565b91505092915050565b7f4e487b7100000000000000000000000000000000000000000000000000000000600052601160045260246000fd5b600061388e82612fad565b915061389983612fad565b92508282039050818111156138b1576138b0613854565b5b92915050565b60006138c282612fad565b91506138cd83612fad565b92508282026138db81612fad565b915082820484148315176138f2576138f1613854565b5b5092915050565b600082825260208201905092915050565b7f4e544f0000000000000000000000000000000000000000000000000000000000600082015250565b60006139406003836138f9565b915061394b8261390a565b602082019050919050565b6000602082019050818103600083015261396f81613933565b9050919050565b7f574e410000000000000000000000000000000000000000000000000000000000600082015250565b60006139ac6003836138f9565b91506139b782613976565b602082019050919050565b600060208201905081810360008301526139db8161399f565b9050919050565b7f5741450000000000000000000000000000000000000000000000000000000000600082015250565b6000613a186003836138f9565b9150613a23826139e2565b602082019050919050565b60006020820190508181036000830152613a4781613a0b565b9050919050565b6000604082019050613a6360008301856130ac565b613a706020830184613010565b9392505050565b613a8081612f77565b8114613a8b57600080fd5b50565b600081519050613a9d81613a77565b92915050565b600060208284031215613ab957613ab8612ee8565b5b6000613ac784828501613a8e565b91505092915050565b7f504d444e41000000000000000000000000000000000000000000000000000000600082015250565b6000613b066005836138f9565b9150613b1182613ad0565b602082019050919050565b60006020820190508181036000830152613b3581613af9565b9050919050565b7f4e487b7100000000000000000000000000000000000000000000000000000000600052601260045260246000fd5b6000613b7682612fad565b9150613b8183612fad565b925082613b9157613b90613b3c565b5b828204905092915050565b6000604082019050613bb16000830185613010565b613bbe6020830184613010565b9392505050565b7f4942000000000000000000000000000000000000000000000000000000000000600082015250565b6000613bfb6002836138f9565b9150613c0682613bc5565b602082019050919050565b60006020820190508181036000830152613c2a81613bee565b9050919050565b7f4951000000000000000000000000000000000000000000000000000000000000600082015250565b6000613c676002836138f9565b9150613c7282613c31565b602082019050919050565b60006020820190508181036000830152613c9681613c5a565b9050919050565b6000613ca882612fad565b9150613cb383612fad565b9250828201905080821115613ccb57613cca613854565b5b92915050565b6000604082019050613ce66000830185613010565b613cf360208301846130ac565b9392505050565b6000606082019050613d0f6000830186613010565b613d1c60208301856130ac565b613d2960408301846130ac565b949350505050565b6000608082019050613d466000830187613010565b613d5360208301866130ac565b613d6060408301856130ac565b613d6d6060830184613010565b95945050505050565b6000606082019050613d8b6000830186613010565b613d9860208301856130ac565b613da56040830184613010565b949350505050565b600082825260208201905092915050565b50565b6000613dce600083613dad565b9150613dd982613dbe565b600082019050919050565b600060a082019050613df960008301876130ac565b613e0660208301866130ac565b613e136040830185613010565b613e206060830184613010565b8181036080830152613e3181613dc1565b905095945050505050565b6000606082019050613e5160008301866130ac565b613e5e60208301856130ac565b613e6b6040830184613010565b949350505050565b600060208284031215613e8957613e88612ee8565b5b6000613e97848285016136b8565b91505092915050565b7f524e410000000000000000000000000000000000000000000000000000000000600082015250565b6000613ed66003836138f9565b9150613ee182613ea0565b602082019050919050565b60006020820190508181036000830152613f0581613ec9565b9050919050565b6000606082019050613f2160008301866130ac565b613f2e6020830185613010565b613f3b6040830184613010565b949350505050565b7f4d41444e41000000000000000000000000000000000000000000000000000000600082015250565b6000613f796005836138f9565b9150613f8482613f43565b602082019050919050565b60006020820190508181036000830152613fa881613f6c565b9050919050565b7f4d41434e41000000000000000000000000000000000000000000000000000000600082015250565b6000613fe56005836138f9565b9150613ff082613faf565b602082019050919050565b6000602082019050818103600083015261401481613fd8565b9050919050565b7f444e410000000000000000000000000000000000000000000000000000000000600082015250565b60006140516003836138f9565b915061405c8261401b565b602082019050919050565b6000602082019050818103600083015261408081614044565b9050919050565b7f5746450000000000000000000000000000000000000000000000000000000000600082015250565b60006140bd6003836138f9565b91506140c882614087565b602082019050919050565b600060208201905081810360008301526140ec816140b0565b9050919050565b7f4d50514754425100000000000000000000000000000000000000000000000000600082015250565b60006141296007836138f9565b9150614134826140f3565b602082019050919050565b600060208201905081810360008301526141588161411c565b9050919050565b7f4442364d00000000000000000000000000000000000000000000000000000000600082015250565b60006141956004836138f9565b91506141a08261415f565b602082019050919050565b600060208201905081810360008301526141c481614188565b9050919050565b7f4144413744000000000000000000000000000000000000000000000000000000600082015250565b60006142016005836138f9565b915061420c826141cb565b602082019050919050565b60006020820190508181036000830152614230816141f4565b9050919050565b600081519050919050565b600082825260208201905092915050565b600061425e82614237565b6142688185614242565b9350614278818560208601613609565b61428181613107565b840191505092915050565b6142958161309a565b82525050565b6142a481612fad565b82525050565b60006101808301600083015184820360008601526142c88282614253565b91505060208301516142dd602086018261428c565b5060408301516142f0604086018261428c565b506060830151614303606086018261429b565b506080830151614316608086018261429b565b5060a083015161432960a086018261429b565b5060c083015161433c60c086018261429b565b5060e083015161434f60e086018261429b565b5061010083015161436461010086018261429b565b5061012083015161437961012086018261429b565b5061014083015161438e61014086018261429b565b506101608301516143a361016086018261429b565b508091505092915050565b60006060820190506143c360008301866130ac565b6143d06020830185613010565b81810360408301526143e281846142aa565b9050949350505050565b60006080820190506144016000830187613010565b61440e6020830186613010565b61441b6040830185613010565b6144286060830184613010565b9594505050505056fea26469706673582212200619167d817e0f2e0aefa46767be86fc2c2df5ced3d5922f042d4afb1be61b5664736f6c63430008110033a26469706673582212203e504aa090717c895dfa3527e18212f19e404ffddd5fe7af3d8b27749e7b759064736f6c63430008110033",
  "linkReferences": {},
  "deployedLinkReferences": {}
}