{
  "_format": "hh-sol-artifact-1",
  "contractName": "BondPeriphery",
  "sourceName": "contracts/BondPeriphery.sol",
  "abi": [
    {
      "inputs": [
        {
          "internalType": "address",
          "name": "sbt",
          "type": "address"
        },
        {
          "internalType": "address",
          "name": "db",
          "type": "address"
        }
      ],
      "stateMutability": "nonpayable",
      "type": "constructor"
    },
    {
      "anonymous": false,
      "inputs": [
        {
          "indexed": true,
          "internalType": "address",
          "name": "owner",
          "type": "address"
        },
        {
          "indexed": false,
          "internalType": "address",
          "name": "token",
          "type": "address"
        }
      ],
      "name": "FactoryInitialized",
      "type": "event"
    },
    {
      "inputs": [],
      "name": "bondDB",
      "outputs": [
        {
          "internalType": "address",
          "name": "",
          "type": "address"
        }
      ],
      "stateMutability": "view",
      "type": "function"
    },
    {
      "inputs": [
        {
          "internalType": "address",
          "name": "caller",
          "type": "address"
        }
      ],
      "name": "bondFactories",
      "outputs": [
        {
          "internalType": "address[]",
          "name": "",
          "type": "address[]"
        }
      ],
      "stateMutability": "view",
      "type": "function"
    },
    {
      "inputs": [
        {
          "internalType": "address",
          "name": "caller",
          "type": "address"
        },
        {
          "internalType": "address",
          "name": "token",
          "type": "address"
        }
      ],
      "name": "bondFactoryIsInitialized",
      "outputs": [
        {
          "internalType": "bool",
          "name": "",
          "type": "bool"
        }
      ],
      "stateMutability": "view",
      "type": "function"
    },
    {
      "inputs": [
        {
          "internalType": "string",
          "name": "uri",
          "type": "string"
        },
        {
          "internalType": "address",
          "name": "token",
          "type": "address"
        }
      ],
      "name": "createBondFactory",
      "outputs": [
        {
          "internalType": "address",
          "name": "factory",
          "type": "address"
        }
      ],
      "stateMutability": "nonpayable",
      "type": "function"
    },
    {
      "inputs": [],
      "name": "entities",
      "outputs": [
        {
          "internalType": "address[]",
          "name": "",
          "type": "address[]"
        }
      ],
      "stateMutability": "view",
      "type": "function"
    },
    {
      "inputs": [
        {
          "internalType": "address",
          "name": "caller",
          "type": "address"
        }
      ],
      "name": "isRegistered",
      "outputs": [
        {
          "internalType": "bool",
          "name": "",
          "type": "bool"
        }
      ],
      "stateMutability": "view",
      "type": "function"
    },
    {
      "inputs": [],
      "name": "owner",
      "outputs": [
        {
          "internalType": "address",
          "name": "",
          "type": "address"
        }
      ],
      "stateMutability": "view",
      "type": "function"
    },
    {
      "inputs": [],
      "name": "register",
      "outputs": [],
      "stateMutability": "nonpayable",
      "type": "function"
    }
  ],
  "bytecode": "0x60e06040523480156200001157600080fd5b50604051620083d2380380620083d2833981810160405281019062000037919062000361565b3373ffffffffffffffffffffffffffffffffffffffff1660808173ffffffffffffffffffffffffffffffffffffffff16815250508173ffffffffffffffffffffffffffffffffffffffff1660a08173ffffffffffffffffffffffffffffffffffffffff16815250508073ffffffffffffffffffffffffffffffffffffffff1660c08173ffffffffffffffffffffffffffffffffffffffff16815250506001600260007321c8a148933e6ca502b47d729a485579c22e8a6973ffffffffffffffffffffffffffffffffffffffff1673ffffffffffffffffffffffffffffffffffffffff16815260200190815260200160002060006101000a81548160ff0219169083151502179055506001600260007307865c6e87b9f70255377e024ace6630c1eaa37f73ffffffffffffffffffffffffffffffffffffffff1673ffffffffffffffffffffffffffffffffffffffff16815260200190815260200160002060006101000a81548160ff02191690831515021790555060016002600073b4fbf271143f4fbf7b91a5ded31805e42b2208d673ffffffffffffffffffffffffffffffffffffffff1673ffffffffffffffffffffffffffffffffffffffff16815260200190815260200160002060006101000a81548160ff02191690831515021790555060016002600073326c977e6efc84e512bb9c30f76e30c160ed06fb73ffffffffffffffffffffffffffffffffffffffff1673ffffffffffffffffffffffffffffffffffffffff16815260200190815260200160002060006101000a81548160ff021916908315150217905550600160026000739c556b18d2370d4c44f3b3153d340d9abfd8d99573ffffffffffffffffffffffffffffffffffffffff1673ffffffffffffffffffffffffffffffffffffffff16815260200190815260200160002060006101000a81548160ff0219169083151502179055505050620003a8565b600080fd5b600073ffffffffffffffffffffffffffffffffffffffff82169050919050565b60006200032982620002fc565b9050919050565b6200033b816200031c565b81146200034757600080fd5b50565b6000815190506200035b8162000330565b92915050565b600080604083850312156200037b576200037a620002f7565b5b60006200038b858286016200034a565b92505060206200039e858286016200034a565b9150509250929050565b60805160a05160c051617fd7620003fb60003960008181610b2401528181610cb80152610da0015260008181610275015281816103e8015281816107fc015261096f015260006106ef0152617fd76000f3fe60806040523480156200001157600080fd5b5060043610620000945760003560e01c80638da5cb5b11620000635780638da5cb5b1462000133578063c3c5a5471462000155578063ca5ad27c146200018b578063efc7935614620001c15762000094565b80631615fd0314620000995780631aa3a00814620000bb578063417590da14620000c7578063487c5cdf14620000fd575b600080fd5b620000a3620001e3565b604051620000b2919062000ed4565b60405180910390f35b620000c562000273565b005b620000e56004803603810190620000df919062000f3d565b62000588565b604051620000f4919062000ed4565b60405180910390f35b6200011b600480360381019062000115919062000f6f565b62000657565b6040516200012a919062000fd3565b60405180910390f35b6200013d620006eb565b6040516200014c919062001001565b60405180910390f35b6200017360048036038101906200016d919062000f3d565b62000713565b60405162000182919062000fd3565b60405180910390f35b620001a96004803603810190620001a3919062001180565b62000769565b604051620001b8919062001001565b60405180910390f35b620001cb62000d9c565b604051620001da919062001001565b60405180910390f35b606060008054806020026020016040519081016040528092919081815260200182805480156200026957602002820191906000526020600020905b8160009054906101000a900473ffffffffffffffffffffffffffffffffffffffff1673ffffffffffffffffffffffffffffffffffffffff16815260200190600101908083116200021e575b5050505050905090565b7f000000000000000000000000000000000000000000000000000000000000000073ffffffffffffffffffffffffffffffffffffffff166339f920ab336040518263ffffffff1660e01b8152600401620002ce919062001001565b602060405180830381865afa158015620002ec573d6000803e3d6000fd5b505050506040513d601f19601f8201168201806040525081019062000312919062001217565b62000354576040517f08c379a00000000000000000000000000000000000000000000000000000000081526004016200034b90620012aa565b60405180910390fd5b600160003373ffffffffffffffffffffffffffffffffffffffff1673ffffffffffffffffffffffffffffffffffffffff16815260200190815260200160002060009054906101000a900460ff1615620003e4576040517f08c379a0000000000000000000000000000000000000000000000000000000008152600401620003db906200131c565b60405180910390fd5b60027f000000000000000000000000000000000000000000000000000000000000000073ffffffffffffffffffffffffffffffffffffffff1663b7caec87336040518263ffffffff1660e01b815260040162000441919062001001565b602060405180830381865afa1580156200045f573d6000803e3d6000fd5b505050506040513d601f19601f820116820180604052508101906200048591906200137c565b60ff161015620004cc576040517f08c379a0000000000000000000000000000000000000000000000000000000008152600401620004c390620013fe565b60405180910390fd5b60018060003373ffffffffffffffffffffffffffffffffffffffff1673ffffffffffffffffffffffffffffffffffffffff16815260200190815260200160002060006101000a81548160ff0219169083151502179055506000339080600181540180825580915050600190039060005260206000200160009091909190916101000a81548173ffffffffffffffffffffffffffffffffffffffff021916908373ffffffffffffffffffffffffffffffffffffffff160217905550565b6060600360008373ffffffffffffffffffffffffffffffffffffffff1673ffffffffffffffffffffffffffffffffffffffff1681526020019081526020016000208054806020026020016040519081016040528092919081815260200182805480156200064b57602002820191906000526020600020905b8160009054906101000a900473ffffffffffffffffffffffffffffffffffffffff1673ffffffffffffffffffffffffffffffffffffffff168152602001906001019080831162000600575b50505050509050919050565b6000600460008473ffffffffffffffffffffffffffffffffffffffff1673ffffffffffffffffffffffffffffffffffffffff16815260200190815260200160002060008373ffffffffffffffffffffffffffffffffffffffff1673ffffffffffffffffffffffffffffffffffffffff16815260200190815260200160002060009054906101000a900460ff16905092915050565b60007f0000000000000000000000000000000000000000000000000000000000000000905090565b6000600160008373ffffffffffffffffffffffffffffffffffffffff1673ffffffffffffffffffffffffffffffffffffffff16815260200190815260200160002060009054906101000a900460ff169050919050565b6000600160003373ffffffffffffffffffffffffffffffffffffffff1673ffffffffffffffffffffffffffffffffffffffff16815260200190815260200160002060009054906101000a900460ff16620007fa576040517f08c379a0000000000000000000000000000000000000000000000000000000008152600401620007f19062001470565b60405180910390fd5b7f000000000000000000000000000000000000000000000000000000000000000073ffffffffffffffffffffffffffffffffffffffff166339f920ab336040518263ffffffff1660e01b815260040162000855919062001001565b602060405180830381865afa15801562000873573d6000803e3d6000fd5b505050506040513d601f19601f8201168201806040525081019062000899919062001217565b620008db576040517f08c379a0000000000000000000000000000000000000000000000000000000008152600401620008d290620012aa565b60405180910390fd5b81600260008273ffffffffffffffffffffffffffffffffffffffff1673ffffffffffffffffffffffffffffffffffffffff16815260200190815260200160002060009054906101000a900460ff166200096b576040517f08c379a00000000000000000000000000000000000000000000000000000000081526004016200096290620014e2565b60405180910390fd5b60027f000000000000000000000000000000000000000000000000000000000000000073ffffffffffffffffffffffffffffffffffffffff1663b7caec87336040518263ffffffff1660e01b8152600401620009c8919062001001565b602060405180830381865afa158015620009e6573d6000803e3d6000fd5b505050506040513d601f19601f8201168201806040525081019062000a0c91906200137c565b60ff16101562000a53576040517f08c379a000000000000000000000000000000000000000000000000000000000815260040162000a4a90620013fe565b60405180910390fd5b600460003373ffffffffffffffffffffffffffffffffffffffff1673ffffffffffffffffffffffffffffffffffffffff16815260200190815260200160002060008473ffffffffffffffffffffffffffffffffffffffff1673ffffffffffffffffffffffffffffffffffffffff16815260200190815260200160002060009054906101000a900460ff161562000b20576040517f08c379a000000000000000000000000000000000000000000000000000000000815260040162000b179062001554565b60405180910390fd5b83837f00000000000000000000000000000000000000000000000000000000000000003360405162000b529062000dc4565b62000b619493929190620015ee565b604051809103906000f08015801562000b7e573d6000803e3d6000fd5b509150600360003373ffffffffffffffffffffffffffffffffffffffff1673ffffffffffffffffffffffffffffffffffffffff168152602001908152602001600020829080600181540180825580915050600190039060005260206000200160009091909190916101000a81548173ffffffffffffffffffffffffffffffffffffffff021916908373ffffffffffffffffffffffffffffffffffffffff1602179055506001600460003373ffffffffffffffffffffffffffffffffffffffff1673ffffffffffffffffffffffffffffffffffffffff16815260200190815260200160002060008573ffffffffffffffffffffffffffffffffffffffff1673ffffffffffffffffffffffffffffffffffffffff16815260200190815260200160002060006101000a81548160ff0219169083151502179055507f000000000000000000000000000000000000000000000000000000000000000073ffffffffffffffffffffffffffffffffffffffff1663783ff1f1836040518263ffffffff1660e01b815260040162000d11919062001001565b600060405180830381600087803b15801562000d2c57600080fd5b505af115801562000d41573d6000803e3d6000fd5b505050503373ffffffffffffffffffffffffffffffffffffffff167f80e5d607e143b547134294afbce2c48623473eb90d7a68d64fa88273b94529368460405162000d8d919062001001565b60405180910390a25092915050565b60007f0000000000000000000000000000000000000000000000000000000000000000905090565b61695f806200164383390190565b600081519050919050565b600082825260208201905092915050565b6000819050602082019050919050565b600073ffffffffffffffffffffffffffffffffffffffff82169050919050565b600062000e2b8262000dfe565b9050919050565b62000e3d8162000e1e565b82525050565b600062000e51838362000e32565b60208301905092915050565b6000602082019050919050565b600062000e778262000dd2565b62000e83818562000ddd565b935062000e908362000dee565b8060005b8381101562000ec757815162000eab888262000e43565b975062000eb88362000e5d565b92505060018101905062000e94565b5085935050505092915050565b6000602082019050818103600083015262000ef0818462000e6a565b905092915050565b6000604051905090565b600080fd5b600080fd5b62000f178162000e1e565b811462000f2357600080fd5b50565b60008135905062000f378162000f0c565b92915050565b60006020828403121562000f565762000f5562000f02565b5b600062000f668482850162000f26565b91505092915050565b6000806040838503121562000f895762000f8862000f02565b5b600062000f998582860162000f26565b925050602062000fac8582860162000f26565b9150509250929050565b60008115159050919050565b62000fcd8162000fb6565b82525050565b600060208201905062000fea600083018462000fc2565b92915050565b62000ffb8162000e1e565b82525050565b600060208201905062001018600083018462000ff0565b92915050565b600080fd5b600080fd5b6000601f19601f8301169050919050565b7f4e487b7100000000000000000000000000000000000000000000000000000000600052604160045260246000fd5b620010738262001028565b810181811067ffffffffffffffff8211171562001095576200109462001039565b5b80604052505050565b6000620010aa62000ef8565b9050620010b8828262001068565b919050565b600067ffffffffffffffff821115620010db57620010da62001039565b5b620010e68262001028565b9050602081019050919050565b82818337600083830152505050565b6000620011196200111384620010bd565b6200109e565b90508281526020810184848401111562001138576200113762001023565b5b62001145848285620010f3565b509392505050565b600082601f8301126200116557620011646200101e565b5b81356200117784826020860162001102565b91505092915050565b600080604083850312156200119a576200119962000f02565b5b600083013567ffffffffffffffff811115620011bb57620011ba62000f07565b5b620011c9858286016200114d565b9250506020620011dc8582860162000f26565b9150509250929050565b620011f18162000fb6565b8114620011fd57600080fd5b50565b6000815190506200121181620011e6565b92915050565b60006020828403121562001230576200122f62000f02565b5b6000620012408482850162001200565b91505092915050565b600082825260208201905092915050565b7f4e41535400000000000000000000000000000000000000000000000000000000600082015250565b60006200129260048362001249565b91506200129f826200125a565b602082019050919050565b60006020820190508181036000830152620012c58162001283565b9050919050565b7f4152000000000000000000000000000000000000000000000000000000000000600082015250565b60006200130460028362001249565b91506200131182620012cc565b602082019050919050565b600060208201905081810360008301526200133781620012f5565b9050919050565b600060ff82169050919050565b62001356816200133e565b81146200136257600080fd5b50565b60008151905062001376816200134b565b92915050565b60006020828403121562001395576200139462000f02565b5b6000620013a58482850162001365565b91505092915050565b7f4e56415400000000000000000000000000000000000000000000000000000000600082015250565b6000620013e660048362001249565b9150620013f382620013ae565b602082019050919050565b600060208201905081810360008301526200141981620013d7565b9050919050565b7f4e52000000000000000000000000000000000000000000000000000000000000600082015250565b60006200145860028362001249565b9150620014658262001420565b602082019050919050565b600060208201905081810360008301526200148b8162001449565b9050919050565b7f4943000000000000000000000000000000000000000000000000000000000000600082015250565b6000620014ca60028362001249565b9150620014d78262001492565b602082019050919050565b60006020820190508181036000830152620014fd81620014bb565b9050919050565b7f4149000000000000000000000000000000000000000000000000000000000000600082015250565b60006200153c60028362001249565b9150620015498262001504565b602082019050919050565b600060208201905081810360008301526200156f816200152d565b9050919050565b600081519050919050565b60005b83811015620015a157808201518184015260208101905062001584565b60008484015250505050565b6000620015ba8262001576565b620015c6818562001249565b9350620015d881856020860162001581565b620015e38162001028565b840191505092915050565b600060808201905081810360008301526200160a8187620015ad565b90506200161b602083018662000ff0565b6200162a604083018562000ff0565b62001639606083018462000ff0565b9594505050505056fe60e06040523480156200001157600080fd5b506040516200695f3803806200695f83398181016040528101906200003791906200032a565b8362000049816200010760201b60201c565b508073ffffffffffffffffffffffffffffffffffffffff1660808173ffffffffffffffffffffffffffffffffffffffff16815250508273ffffffffffffffffffffffffffffffffffffffff1660a08173ffffffffffffffffffffffffffffffffffffffff16815250508173ffffffffffffffffffffffffffffffffffffffff1660c08173ffffffffffffffffffffffffffffffffffffffff1681525050620000fd60036200011c60201b62002fa81760201c565b50505050620006ed565b806002908162000118919062000606565b5050565b6001816000016000828254019250508190555050565b6000604051905090565b600080fd5b600080fd5b600080fd5b600080fd5b6000601f19601f8301169050919050565b7f4e487b7100000000000000000000000000000000000000000000000000000000600052604160045260246000fd5b6200019b8262000150565b810181811067ffffffffffffffff82111715620001bd57620001bc62000161565b5b80604052505050565b6000620001d262000132565b9050620001e0828262000190565b919050565b600067ffffffffffffffff82111562000203576200020262000161565b5b6200020e8262000150565b9050602081019050919050565b60005b838110156200023b5780820151818401526020810190506200021e565b60008484015250505050565b60006200025e6200025884620001e5565b620001c6565b9050828152602081018484840111156200027d576200027c6200014b565b5b6200028a8482856200021b565b509392505050565b600082601f830112620002aa57620002a962000146565b5b8151620002bc84826020860162000247565b91505092915050565b600073ffffffffffffffffffffffffffffffffffffffff82169050919050565b6000620002f282620002c5565b9050919050565b6200030481620002e5565b81146200031057600080fd5b50565b6000815190506200032481620002f9565b92915050565b600080600080608085870312156200034757620003466200013c565b5b600085015167ffffffffffffffff81111562000368576200036762000141565b5b620003768782880162000292565b9450506020620003898782880162000313565b93505060406200039c8782880162000313565b9250506060620003af8782880162000313565b91505092959194509250565b600081519050919050565b7f4e487b7100000000000000000000000000000000000000000000000000000000600052602260045260246000fd5b600060028204905060018216806200040e57607f821691505b602082108103620004245762000423620003c6565b5b50919050565b60008190508160005260206000209050919050565b60006020601f8301049050919050565b600082821b905092915050565b6000600883026200048e7fffffffffffffffffffffffffffffffffffffffffffffffffffffffffffffffff826200044f565b6200049a86836200044f565b95508019841693508086168417925050509392505050565b6000819050919050565b6000819050919050565b6000620004e7620004e1620004db84620004b2565b620004bc565b620004b2565b9050919050565b6000819050919050565b6200050383620004c6565b6200051b6200051282620004ee565b8484546200045c565b825550505050565b600090565b6200053262000523565b6200053f818484620004f8565b505050565b5b8181101562000567576200055b60008262000528565b60018101905062000545565b5050565b601f821115620005b65762000580816200042a565b6200058b846200043f565b810160208510156200059b578190505b620005b3620005aa856200043f565b83018262000544565b50505b505050565b600082821c905092915050565b6000620005db60001984600802620005bb565b1980831691505092915050565b6000620005f68383620005c8565b9150826002028217905092915050565b6200061182620003bb565b67ffffffffffffffff8111156200062d576200062c62000161565b5b620006398254620003f5565b620006468282856200056b565b600060209050601f8311600181146200067e576000841562000669578287015190505b620006758582620005e8565b865550620006e5565b601f1984166200068e866200042a565b60005b82811015620006b85784890151825560018201915060208501945060208101905062000691565b86831015620006d85784890151620006d4601f891682620005c8565b8355505b6001600288020188555050505b505050505050565b60805160a05160c05161615b62000804600039600081816112600152818161130b01528181611641015281816116ee015281816117bd0152818161188f015281816120db0152818161218601528181612e0e0152612e9a015260008181610ee90152818161167e0152818161174c0152818161181b015281816118cc0152818161195b01528181611c3c015281816122340152818161247601528181612557015281816126cb015281816127720152612967015260008181610d4c015281816110d70152818161129c015281816113470152818161172b015281816117fa01528181611ee201528181612117015281816121c2015281816125a80152818161281101528181612b850152612ed6015261615b6000f3fe608060405234801561001057600080fd5b506004361061025d5760003560e01c806388bdc08311610146578063c0a6026c116100c3578063e755ddd711610087578063e755ddd71461082f578063e985e9c51461084b578063f0d8100a1461087b578063f23a6e61146108ab578063f242432a146108db578063fcbc669a146108f75761025d565b8063c0a6026c1461078b578063c55dae63146107a7578063d3b7811b146107c5578063e2bbb158146107f5578063e5328e06146108115761025d565b80639a3cee8e1161010a5780639a3cee8e146106d5578063a22cb465146106f3578063a87430221461070f578063abac75e11461072b578063bc197c811461075b5761025d565b806388bdc083146105ee5780638c3526c21461061e5780638da5cb5b146106575780638f0dbf7714610675578063932a8de0146106a55761025d565b806339e3af9b116101df5780636ff80d93116101a35780636ff80d93146104f657806370876c981461052657806377e2a08b146105425780637a41984b146105725780637cbc2373146105a257806382afd23b146105be5761025d565b806339e3af9b1461042e578063441a3e701461045e5780634e1273f41461047a578063549493bb146104aa5780636567dc4d146104da5761025d565b80630e89341c116102265780630e89341c1461035257806314f29493146103825780632eb2c2d6146103b25780632f3ad61f146103ce5780633097afb8146103fe5761025d565b8062fdd58e1461026257806301ffc9a71461029257806302159497146102c257806308913ce8146102f25780630914902014610322575b600080fd5b61027c6004803603810190610277919061405f565b610927565b60405161028991906140ae565b60405180910390f35b6102ac60048036038101906102a79190614121565b6109ef565b6040516102b99190614169565b60405180910390f35b6102dc60048036038101906102d79190614184565b610ad1565b6040516102e991906140ae565b60405180910390f35b61030c60048036038101906103079190614184565b610aee565b60405161031991906140ae565b60405180910390f35b61033c60048036038101906103379190614184565b610b19565b6040516103499190614169565b60405180910390f35b61036c60048036038101906103679190614184565b610b4f565b6040516103799190614241565b60405180910390f35b61039c60048036038101906103979190614184565b610be3565b6040516103a991906140ae565b60405180910390f35b6103cc60048036038101906103c79190614460565b610c21565b005b6103e860048036038101906103e39190614184565b610cc2565b6040516103f59190614169565b60405180910390f35b61041860048036038101906104139190614184565b610cec565b6040516104259190614169565b60405180910390f35b61044860048036038101906104439190614184565b610d25565b6040516104559190614169565b60405180910390f35b6104786004803603810190610473919061452f565b610d4a565b005b610494600480360381019061048f9190614632565b610f8a565b6040516104a19190614768565b60405180910390f35b6104c460048036038101906104bf9190614184565b6110a3565b6040516104d19190614169565b60405180910390f35b6104f460048036038101906104ef9190614184565b6110d5565b005b610510600480360381019061050b9190614184565b6113fd565b60405161051d9190614169565b60405180910390f35b610540600480360381019061053b919061452f565b611435565b005b61055c60048036038101906105579190614184565b611a00565b60405161056991906140ae565b60405180910390f35b61058c60048036038101906105879190614184565b611a59565b6040516105999190614169565b60405180910390f35b6105bc60048036038101906105b7919061452f565b611a83565b005b6105d860048036038101906105d39190614184565b611d1c565b6040516105e59190614169565b60405180910390f35b61060860048036038101906106039190614184565b611d3f565b60405161061591906140ae565b60405180910390f35b61063860048036038101906106339190614184565b611d6a565b60405161064e9a9998979695949392919061478a565b60405180910390f35b61065f611ede565b60405161066c919061483c565b60405180910390f35b61068f600480360381019061068a9190614184565b611f06565b60405161069c9190614169565b60405180910390f35b6106bf60048036038101906106ba9190614184565b611f28565b6040516106cc91906140ae565b60405180910390f35b6106dd611f66565b6040516106ea91906140ae565b60405180910390f35b61070d60048036038101906107089190614883565b611f83565b005b61072960048036038101906107249190614184565b611f99565b005b61074560048036038101906107409190614184565b612318565b60405161075291906140ae565b60405180910390f35b61077560048036038101906107709190614460565b612338565b60405161078291906148d2565b60405180910390f35b6107a560048036038101906107a09190614184565b61234d565b005b6107af612553565b6040516107bc919061483c565b60405180910390f35b6107df60048036038101906107da9190614184565b61257b565b6040516107ec91906140ae565b60405180910390f35b61080f600480360381019061080a919061452f565b6125a6565b005b61081961276e565b60405161082691906140ae565b60405180910390f35b61084960048036038101906108449190614184565b61280f565b005b610865600480360381019061086091906148ed565b612a1a565b6040516108729190614169565b60405180910390f35b61089560048036038101906108909190614184565b612aae565b6040516108a291906140ae565b60405180910390f35b6108c560048036038101906108c0919061492d565b612acb565b6040516108d291906148d2565b60405180910390f35b6108f560048036038101906108f0919061492d565b612ae0565b005b610911600480360381019061090c9190614a65565b612b81565b60405161091e91906140ae565b60405180910390f35b60008073ffffffffffffffffffffffffffffffffffffffff168373ffffffffffffffffffffffffffffffffffffffff1603610997576040517f08c379a000000000000000000000000000000000000000000000000000000000815260040161098e90614b95565b60405180910390fd5b60008083815260200190815260200160002060008473ffffffffffffffffffffffffffffffffffffffff1673ffffffffffffffffffffffffffffffffffffffff16815260200190815260200160002054905092915050565b60007fd9b67a26000000000000000000000000000000000000000000000000000000007bffffffffffffffffffffffffffffffffffffffffffffffffffffffff1916827bffffffffffffffffffffffffffffffffffffffffffffffffffffffff19161480610aba57507f0e89341c000000000000000000000000000000000000000000000000000000007bffffffffffffffffffffffffffffffffffffffffffffffffffffffff1916827bffffffffffffffffffffffffffffffffffffffffffffffffffffffff1916145b80610aca5750610ac982612fbe565b5b9050919050565b600060076000838152602001908152602001600020549050919050565b6000600460008381526020019081526020016000206002015442610b129190614be4565b9050919050565b60006004600083815260200190815260200160002060080154600560008481526020019081526020016000205410159050919050565b606060028054610b5e90614c47565b80601f0160208091040260200160405190810160405280929190818152602001828054610b8a90614c47565b8015610bd75780601f10610bac57610100808354040283529160200191610bd7565b820191906000526020600020905b815481529060010190602001808311610bba57829003601f168201915b50505050509050919050565b600060056000838152602001908152602001600020546004600084815260200190815260200160002060010154610c1a9190614c78565b9050919050565b610c29613028565b73ffffffffffffffffffffffffffffffffffffffff168573ffffffffffffffffffffffffffffffffffffffff161480610c6f5750610c6e85610c69613028565b612a1a565b5b610cae576040517f08c379a0000000000000000000000000000000000000000000000000000000008152600401610ca590614d2c565b60405180910390fd5b610cbb8585858585613030565b5050505050565b6000600a600083815260200190815260200160002060009054906101000a900460ff169050919050565b6000610cf782611f06565b8015610d1e5750610d0782611a00565b600760008481526020019081526020016000205410155b9050919050565b6000610d3082611d1c565b158015610d435750610d4182610b19565b155b9050919050565b7f000000000000000000000000000000000000000000000000000000000000000073ffffffffffffffffffffffffffffffffffffffff163373ffffffffffffffffffffffffffffffffffffffff1614610dd8576040517f08c379a0000000000000000000000000000000000000000000000000000000008152600401610dcf90614d98565b60405180910390fd5b610de182611d1c565b158015610df45750610df282610d25565b155b8015610e065750610e0482611a59565b155b8015610e285750610e1682610cc2565b80610e265750610e25826113fd565b5b155b610e67576040517f08c379a0000000000000000000000000000000000000000000000000000000008152600401610e5e90614e04565b60405180910390fd5b6007600083815260200190815260200160002054811115610ebd576040517f08c379a0000000000000000000000000000000000000000000000000000000008152600401610eb490614e70565b60405180910390fd5b80600760008481526020019081526020016000206000828254610ee09190614be4565b925050819055507f000000000000000000000000000000000000000000000000000000000000000073ffffffffffffffffffffffffffffffffffffffff1663a9059cbb33836040518363ffffffff1660e01b8152600401610f42929190614e90565b6020604051808303816000875af1158015610f61573d6000803e3d6000fd5b505050506040513d601f19601f82011682018060405250810190610f859190614ece565b505050565b60608151835114610fd0576040517f08c379a0000000000000000000000000000000000000000000000000000000008152600401610fc790614f6d565b60405180910390fd5b6000835167ffffffffffffffff811115610fed57610fec614268565b5b60405190808252806020026020018201604052801561101b5781602001602082028036833780820191505090505b50905060005b8451811015611098576110688582815181106110405761103f614f8d565b5b602002602001015185838151811061105b5761105a614f8d565b5b6020026020010151610927565b82828151811061107b5761107a614f8d565b5b6020026020010181815250508061109190614fbc565b9050611021565b508091505092915050565b600060056000838152602001908152602001600020546006600084815260200190815260200160002054149050919050565b7f000000000000000000000000000000000000000000000000000000000000000073ffffffffffffffffffffffffffffffffffffffff163373ffffffffffffffffffffffffffffffffffffffff1614611163576040517f08c379a000000000000000000000000000000000000000000000000000000000815260040161115a90614d98565b60405180910390fd5b61116c81611a59565b15801561117f575061117d81610cc2565b155b80156111a5575061118f81611a00565b6007600083815260200190815260200160002054105b6111e4576040517f08c379a00000000000000000000000000000000000000000000000000000000081526004016111db90615050565b60405180910390fd5b60006007600083815260200190815260200160002054905060056000838152602001908152602001600020548161121b919061509f565b60086000848152602001908152602001600020819055506001600a600084815260200190815260200160002060006101000a81548160ff0219169083151502179055507f000000000000000000000000000000000000000000000000000000000000000073ffffffffffffffffffffffffffffffffffffffff1663dae382d67f00000000000000000000000000000000000000000000000000000000000000006040518263ffffffff1660e01b81526004016112d7919061483c565b600060405180830381600087803b1580156112f157600080fd5b505af1158015611305573d6000803e3d6000fd5b505050507f000000000000000000000000000000000000000000000000000000000000000073ffffffffffffffffffffffffffffffffffffffff1663d050a7c87f000000000000000000000000000000000000000000000000000000000000000060016040518363ffffffff1660e01b8152600401611385929190614e90565b600060405180830381600087803b15801561139f57600080fd5b505af11580156113b3573d6000803e3d6000fd5b50505050817fc4f17a65d54873d57229ea5f59c4ddec592d095bc17581372676402c8228b9cd6113e284611a00565b836040516113f19291906150d0565b60405180910390a25050565b600061140882611f06565b801561142e575061141882611a00565b6007600084815260200190815260200160002054105b9050919050565b61143e82611d1c565b61147d576040517f08c379a000000000000000000000000000000000000000000000000000000000815260040161147490615145565b60405180910390fd5b8061148783611f28565b10156114c8576040517f08c379a00000000000000000000000000000000000000000000000000000000081526004016114bf906151b1565b60405180910390fd5b600060046000848152602001908152602001600020604051806101400160405290816000820180546114f990614c47565b80601f016020809104026020016040519081016040528092919081815260200182805461152590614c47565b80156115725780601f1061154757610100808354040283529160200191611572565b820191906000526020600020905b81548152906001019060200180831161155557829003601f168201915b505050505081526020016001820154815260200160028201548152602001600382015481526020016004820154815260200160058201548152602001600682015481526020016007820154815260200160088201548152602001600982015481525050905060008160200151836115e99190614c78565b90508260056000868152602001908152602001600020600082825461160e91906151d1565b925050819055508060076000868152602001908152602001600020600082825461163891906151d1565b925050819055507f000000000000000000000000000000000000000000000000000000000000000073ffffffffffffffffffffffffffffffffffffffff1663576ff163827f00000000000000000000000000000000000000000000000000000000000000006040518363ffffffff1660e01b81526004016116ba929190615205565b600060405180830381600087803b1580156116d457600080fd5b505af11580156116e8573d6000803e3d6000fd5b505050507f000000000000000000000000000000000000000000000000000000000000000073ffffffffffffffffffffffffffffffffffffffff1663b8c2e4f3827f00000000000000000000000000000000000000000000000000000000000000007f00000000000000000000000000000000000000000000000000000000000000006040518463ffffffff1660e01b81526004016117899392919061522e565b600060405180830381600087803b1580156117a357600080fd5b505af11580156117b7573d6000803e3d6000fd5b505050507f000000000000000000000000000000000000000000000000000000000000000073ffffffffffffffffffffffffffffffffffffffff16637db79a3d827f00000000000000000000000000000000000000000000000000000000000000007f000000000000000000000000000000000000000000000000000000000000000060016040518563ffffffff1660e01b815260040161185b9493929190615265565b600060405180830381600087803b15801561187557600080fd5b505af1158015611889573d6000803e3d6000fd5b505050507f000000000000000000000000000000000000000000000000000000000000000073ffffffffffffffffffffffffffffffffffffffff1663b0b4dfaa827f000000000000000000000000000000000000000000000000000000000000000060016040518463ffffffff1660e01b815260040161190b939291906152aa565b600060405180830381600087803b15801561192557600080fd5b505af1158015611939573d6000803e3d6000fd5b505050506119593033868660405180602001604052806000815250612ae0565b7f000000000000000000000000000000000000000000000000000000000000000073ffffffffffffffffffffffffffffffffffffffff166323b872dd3330846040518463ffffffff1660e01b81526004016119b6939291906152e1565b6020604051808303816000875af11580156119d5573d6000803e3d6000fd5b505050506040513d601f19601f820116820180604052508101906119f99190614ece565b5050505050565b6000670de0b6b3a76400006004600084815260200190815260200160002060090154611a2b84610be3565b611a359190614c78565b611a3f919061509f565b611a4883610be3565b611a5291906151d1565b9050919050565b6000600b600083815260200190815260200160002060009054906101000a900460ff169050919050565b80611a8e3384610927565b1015611acf576040517f08c379a0000000000000000000000000000000000000000000000000000000008152600401611ac6906151b1565b60405180910390fd5b611ad882611a59565b80611ae85750611ae782610d25565b5b80611af85750611af782610cc2565b5b611b37576040517f08c379a0000000000000000000000000000000000000000000000000000000008152600401611b2e90615364565b60405180910390fd5b600080611b4384611a59565b15611b67576009600085815260200190815260200160002054915060009050611bcb565b611b7084610d25565b15611b97576004600085815260200190815260200160002060010154915060019050611bca565b611ba084610cc2565b15611bc4576008600085815260200190815260200160002054915060029050611bc9565b600080fd5b5b5b611bd6338585613351565b82600660008681526020019081526020016000206000828254611bf991906151d1565b9250508190555060008284611c0e9190614c78565b905080600760008781526020019081526020016000206000828254611c339190614be4565b925050819055507f000000000000000000000000000000000000000000000000000000000000000073ffffffffffffffffffffffffffffffffffffffff1663a9059cbb33836040518363ffffffff1660e01b8152600401611c95929190614e90565b6020604051808303816000875af1158015611cb4573d6000803e3d6000fd5b505050506040513d601f19601f82011682018060405250810190611cd89190614ece565b50847fa5851b0172fdafd3dafe0e52ce051747548a4c642a2f22793c01faf228e13062338685604051611d0d93929190615384565b60405180910390a25050505050565b600060046000838152602001908152602001600020600401544211159050919050565b6000426004600084815260200190815260200160002060040154611d639190614be4565b9050919050565b6060600080600080600080600080600080600460008d815260200190815260200160002060405180610140016040529081600082018054611daa90614c47565b80601f0160208091040260200160405190810160405280929190818152602001828054611dd690614c47565b8015611e235780601f10611df857610100808354040283529160200191611e23565b820191906000526020600020905b815481529060010190602001808311611e0657829003601f168201915b5050505050815260200160018201548152602001600282015481526020016003820154815260200160048201548152602001600582015481526020016006820154815260200160078201548152602001600882015481526020016009820154815250509050806000015181602001518260400151836060015184608001518560a001518660c001518760e001518861010001518961012001519a509a509a509a509a509a509a509a509a509a50509193959799509193959799565b60007f0000000000000000000000000000000000000000000000000000000000000000905090565b6000600460008381526020019081526020016000206003015442119050919050565b600060056000838152602001908152602001600020546004600084815260200190815260200160002060070154611f5f9190614be4565b9050919050565b60006001611f746003613597565b611f7e9190614be4565b905090565b611f95611f8e613028565b83836135a5565b5050565b611fa281611a59565b158015611fb55750611fb381610cc2565b155b8015611fc65750611fc5816113fd565b5b612005576040517f08c379a0000000000000000000000000000000000000000000000000000000008152600401611ffc90615407565b60405180910390fd5b60006103e86007600084815260200190815260200160002054612028919061509f565b9050600081600760008581526020019081526020016000205461204b9190614be4565b905060056000848152602001908152602001600020548161206c919061509f565b6008600085815260200190815260200160002081905550816007600085815260200190815260200160002060008282546120a69190614be4565b925050819055506001600a600085815260200190815260200160002060006101000a81548160ff0219169083151502179055507f000000000000000000000000000000000000000000000000000000000000000073ffffffffffffffffffffffffffffffffffffffff1663dae382d67f00000000000000000000000000000000000000000000000000000000000000006040518263ffffffff1660e01b8152600401612152919061483c565b600060405180830381600087803b15801561216c57600080fd5b505af1158015612180573d6000803e3d6000fd5b505050507f000000000000000000000000000000000000000000000000000000000000000073ffffffffffffffffffffffffffffffffffffffff1663d050a7c87f000000000000000000000000000000000000000000000000000000000000000060016040518363ffffffff1660e01b8152600401612200929190614e90565b600060405180830381600087803b15801561221a57600080fd5b505af115801561222e573d6000803e3d6000fd5b505050507f000000000000000000000000000000000000000000000000000000000000000073ffffffffffffffffffffffffffffffffffffffff1663a9059cbb33846040518363ffffffff1660e01b815260040161228d929190614e90565b6020604051808303816000875af11580156122ac573d6000803e3d6000fd5b505050506040513d601f19601f820116820180604052508101906122d09190614ece565b50827fc4f17a65d54873d57229ea5f59c4ddec592d095bc17581372676402c8228b9cd6122fc85611a00565b8360405161230b9291906150d0565b60405180910390a2505050565b600060046000838152602001908152602001600020600901549050919050565b600063bc197c8160e01b905095945050505050565b61235681610cc2565b158015612369575061236781611a59565b155b801561237a575061237981610cec565b5b6123b9576040517f08c379a00000000000000000000000000000000000000000000000000000000081526004016123b090615473565b60405180910390fd5b60006123c482611a00565b905060006103e8826123d6919061509f565b9050600081836123e69190614be4565b9050600560008581526020019081526020016000205481612407919061509f565b6009600086815260200190815260200160002081905550816007600086815260200190815260200160002060008282546124419190614be4565b925050819055506001600b600086815260200190815260200160002060006101000a81548160ff0219169083151502179055507f000000000000000000000000000000000000000000000000000000000000000073ffffffffffffffffffffffffffffffffffffffff1663a9059cbb33846040518363ffffffff1660e01b81526004016124cf929190614e90565b6020604051808303816000875af11580156124ee573d6000803e3d6000fd5b505050506040513d601f19601f820116820180604052508101906125129190614ece565b50837fac2eeaf45d1b75aed6b3285cda3efb3c382cce02ba313558bbb90be57f8843e484836040516125459291906150d0565b60405180910390a250505050565b60007f0000000000000000000000000000000000000000000000000000000000000000905090565b600042600460008481526020019081526020016000206003015461259f9190614be4565b9050919050565b7f000000000000000000000000000000000000000000000000000000000000000073ffffffffffffffffffffffffffffffffffffffff163373ffffffffffffffffffffffffffffffffffffffff1614612634576040517f08c379a000000000000000000000000000000000000000000000000000000000815260040161262b90614d98565b60405180910390fd5b61263d82610cc2565b8061264d575061264c826113fd565b5b158015612660575061265e82611a59565b155b61269f576040517f08c379a0000000000000000000000000000000000000000000000000000000008152600401612696906154df565b60405180910390fd5b806007600084815260200190815260200160002060008282546126c291906151d1565b925050819055507f000000000000000000000000000000000000000000000000000000000000000073ffffffffffffffffffffffffffffffffffffffff166323b872dd3330846040518463ffffffff1660e01b8152600401612726939291906152e1565b6020604051808303816000875af1158015612745573d6000803e3d6000fd5b505050506040513d601f19601f820116820180604052508101906127699190614ece565b505050565b60007f000000000000000000000000000000000000000000000000000000000000000073ffffffffffffffffffffffffffffffffffffffff166370a08231306040518263ffffffff1660e01b81526004016127c9919061483c565b602060405180830381865afa1580156127e6573d6000803e3d6000fd5b505050506040513d601f19601f8201168201806040525081019061280a9190615514565b905090565b7f000000000000000000000000000000000000000000000000000000000000000073ffffffffffffffffffffffffffffffffffffffff163373ffffffffffffffffffffffffffffffffffffffff161461289d576040517f08c379a000000000000000000000000000000000000000000000000000000000815260040161289490614d98565b60405180910390fd5b6128a681611a59565b80156128b757506128b6816110a3565b5b6128f6576040517f08c379a00000000000000000000000000000000000000000000000000000000081526004016128ed90614e04565b60405180910390fd5b600060076000838152602001908152602001600020541161294c576040517f08c379a00000000000000000000000000000000000000000000000000000000081526004016129439061558d565b60405180910390fd5b600060076000838152602001908152602001600020819055507f000000000000000000000000000000000000000000000000000000000000000073ffffffffffffffffffffffffffffffffffffffff1663a9059cbb3360076000858152602001908152602001600020546040518363ffffffff1660e01b81526004016129d3929190614e90565b6020604051808303816000875af11580156129f2573d6000803e3d6000fd5b505050506040513d601f19601f82011682018060405250810190612a169190614ece565b5050565b6000600160008473ffffffffffffffffffffffffffffffffffffffff1673ffffffffffffffffffffffffffffffffffffffff16815260200190815260200160002060008373ffffffffffffffffffffffffffffffffffffffff1673ffffffffffffffffffffffffffffffffffffffff16815260200190815260200160002060009054906101000a900460ff16905092915050565b600060076000838152602001908152602001600020549050919050565b600063f23a6e6160e01b905095945050505050565b612ae8613028565b73ffffffffffffffffffffffffffffffffffffffff168573ffffffffffffffffffffffffffffffffffffffff161480612b2e5750612b2d85612b28613028565b612a1a565b5b612b6d576040517f08c379a0000000000000000000000000000000000000000000000000000000008152600401612b6490614d2c565b60405180910390fd5b612b7a8585858585613711565b5050505050565b60007f000000000000000000000000000000000000000000000000000000000000000073ffffffffffffffffffffffffffffffffffffffff163373ffffffffffffffffffffffffffffffffffffffff1614612c11576040517f08c379a0000000000000000000000000000000000000000000000000000000008152600401612c0890614d98565b60405180910390fd5b878710612c53576040517f08c379a0000000000000000000000000000000000000000000000000000000008152600401612c4a906155f9565b60405180910390fd5b60b4841015612c97576040517f08c379a0000000000000000000000000000000000000000000000000000000008152600401612c8e90615665565b60405180910390fd5b6007831115612cdb576040517f08c379a0000000000000000000000000000000000000000000000000000000008152600401612cd2906156d1565b60405180910390fd5b612ce56003613597565b9050612cf16003612fa8565b612d0c30828a604051806020016040528060008152506139ac565b6040518061014001604052808681526020018781526020014281526020016201518086612d399190614c78565b42612d4491906151d1565b81526020016201518085612d589190614c78565b42612d6391906151d1565b815260200184815260200185815260200189815260200188815260200183815250600460008381526020019081526020016000206000820151816000019081612dac919061589d565b506020820151816001015560408201518160020155606082015181600301556080820151816004015560a0820151816005015560c0820151816006015560e08201518160070155610100820151816008015561012082015181600901559050507f000000000000000000000000000000000000000000000000000000000000000073ffffffffffffffffffffffffffffffffffffffff1663b54cb16560016040518263ffffffff1660e01b8152600401612e6691906140ae565b600060405180830381600087803b158015612e8057600080fd5b505af1158015612e94573d6000803e3d6000fd5b505050507f000000000000000000000000000000000000000000000000000000000000000073ffffffffffffffffffffffffffffffffffffffff1663bea75cf47f000000000000000000000000000000000000000000000000000000000000000060016040518363ffffffff1660e01b8152600401612f14929190614e90565b600060405180830381600087803b158015612f2e57600080fd5b505af1158015612f42573d6000803e3d6000fd5b50505050807ff73e436c94925e1e8b2f0b16de0a2c56aea7fb27878f7815811bc05bc6c335e88988856201518089612f7a9190614c78565b42612f8591906151d1565b604051612f95949392919061596f565b60405180910390a2979650505050505050565b6001816000016000828254019250508190555050565b60007f01ffc9a7000000000000000000000000000000000000000000000000000000007bffffffffffffffffffffffffffffffffffffffffffffffffffffffff1916827bffffffffffffffffffffffffffffffffffffffffffffffffffffffff1916149050919050565b600033905090565b8151835114613074576040517f08c379a000000000000000000000000000000000000000000000000000000000815260040161306b90615a26565b60405180910390fd5b600073ffffffffffffffffffffffffffffffffffffffff168473ffffffffffffffffffffffffffffffffffffffff16036130e3576040517f08c379a00000000000000000000000000000000000000000000000000000000081526004016130da90615ab8565b60405180910390fd5b60006130ed613028565b90506130fd818787878787613b5c565b60005b84518110156132ae57600085828151811061311e5761311d614f8d565b5b60200260200101519050600085838151811061313d5761313c614f8d565b5b60200260200101519050600080600084815260200190815260200160002060008b73ffffffffffffffffffffffffffffffffffffffff1673ffffffffffffffffffffffffffffffffffffffff168152602001908152602001600020549050818110156131de576040517f08c379a00000000000000000000000000000000000000000000000000000000081526004016131d590615b4a565b60405180910390fd5b81810360008085815260200190815260200160002060008c73ffffffffffffffffffffffffffffffffffffffff1673ffffffffffffffffffffffffffffffffffffffff168152602001908152602001600020819055508160008085815260200190815260200160002060008b73ffffffffffffffffffffffffffffffffffffffff1673ffffffffffffffffffffffffffffffffffffffff168152602001908152602001600020600082825461329391906151d1565b92505081905550505050806132a790614fbc565b9050613100565b508473ffffffffffffffffffffffffffffffffffffffff168673ffffffffffffffffffffffffffffffffffffffff168273ffffffffffffffffffffffffffffffffffffffff167f4a39dc06d4c0dbc64b70af90fd698a233a518aa5d07e595d983b8c0526c8f7fb8787604051613325929190615b6a565b60405180910390a461333b818787878787613b64565b613349818787878787613b6c565b505050505050565b600073ffffffffffffffffffffffffffffffffffffffff168373ffffffffffffffffffffffffffffffffffffffff16036133c0576040517f08c379a00000000000000000000000000000000000000000000000000000000081526004016133b790615c13565b60405180910390fd5b60006133ca613028565b905060006133d784613d43565b905060006133e484613d43565b905061340483876000858560405180602001604052806000815250613b5c565b600080600087815260200190815260200160002060008873ffffffffffffffffffffffffffffffffffffffff1673ffffffffffffffffffffffffffffffffffffffff1681526020019081526020016000205490508481101561349b576040517f08c379a000000000000000000000000000000000000000000000000000000000815260040161349290615ca5565b60405180910390fd5b84810360008088815260200190815260200160002060008973ffffffffffffffffffffffffffffffffffffffff1673ffffffffffffffffffffffffffffffffffffffff16815260200190815260200160002081905550600073ffffffffffffffffffffffffffffffffffffffff168773ffffffffffffffffffffffffffffffffffffffff168573ffffffffffffffffffffffffffffffffffffffff167fc3d58168c5ae7397731d063d5bbf3d657854427343f4c083240f7aacaa2d0f6289896040516135689291906150d0565b60405180910390a461358e84886000868660405180602001604052806000815250613b64565b50505050505050565b600081600001549050919050565b8173ffffffffffffffffffffffffffffffffffffffff168373ffffffffffffffffffffffffffffffffffffffff1603613613576040517f08c379a000000000000000000000000000000000000000000000000000000000815260040161360a90615d37565b60405180910390fd5b80600160008573ffffffffffffffffffffffffffffffffffffffff1673ffffffffffffffffffffffffffffffffffffffff16815260200190815260200160002060008473ffffffffffffffffffffffffffffffffffffffff1673ffffffffffffffffffffffffffffffffffffffff16815260200190815260200160002060006101000a81548160ff0219169083151502179055508173ffffffffffffffffffffffffffffffffffffffff168373ffffffffffffffffffffffffffffffffffffffff167f17307eab39ab6107e8899845ad3d59bd9653f200f220920489ca2b5937696c31836040516137049190614169565b60405180910390a3505050565b600073ffffffffffffffffffffffffffffffffffffffff168473ffffffffffffffffffffffffffffffffffffffff1603613780576040517f08c379a000000000000000000000000000000000000000000000000000000000815260040161377790615ab8565b60405180910390fd5b600061378a613028565b9050600061379785613d43565b905060006137a485613d43565b90506137b4838989858589613b5c565b600080600088815260200190815260200160002060008a73ffffffffffffffffffffffffffffffffffffffff1673ffffffffffffffffffffffffffffffffffffffff1681526020019081526020016000205490508581101561384b576040517f08c379a000000000000000000000000000000000000000000000000000000000815260040161384290615b4a565b60405180910390fd5b85810360008089815260200190815260200160002060008b73ffffffffffffffffffffffffffffffffffffffff1673ffffffffffffffffffffffffffffffffffffffff168152602001908152602001600020819055508560008089815260200190815260200160002060008a73ffffffffffffffffffffffffffffffffffffffff1673ffffffffffffffffffffffffffffffffffffffff168152602001908152602001600020600082825461390091906151d1565b925050819055508773ffffffffffffffffffffffffffffffffffffffff168973ffffffffffffffffffffffffffffffffffffffff168573ffffffffffffffffffffffffffffffffffffffff167fc3d58168c5ae7397731d063d5bbf3d657854427343f4c083240f7aacaa2d0f628a8a60405161397d9291906150d0565b60405180910390a4613993848a8a86868a613b64565b6139a1848a8a8a8a8a613dbd565b505050505050505050565b600073ffffffffffffffffffffffffffffffffffffffff168473ffffffffffffffffffffffffffffffffffffffff1603613a1b576040517f08c379a0000000000000000000000000000000000000000000000000000000008152600401613a1290615dc9565b60405180910390fd5b6000613a25613028565b90506000613a3285613d43565b90506000613a3f85613d43565b9050613a5083600089858589613b5c565b8460008088815260200190815260200160002060008973ffffffffffffffffffffffffffffffffffffffff1673ffffffffffffffffffffffffffffffffffffffff1681526020019081526020016000206000828254613aaf91906151d1565b925050819055508673ffffffffffffffffffffffffffffffffffffffff16600073ffffffffffffffffffffffffffffffffffffffff168473ffffffffffffffffffffffffffffffffffffffff167fc3d58168c5ae7397731d063d5bbf3d657854427343f4c083240f7aacaa2d0f628989604051613b2d9291906150d0565b60405180910390a4613b4483600089858589613b64565b613b5383600089898989613dbd565b50505050505050565b505050505050565b505050505050565b613b8b8473ffffffffffffffffffffffffffffffffffffffff16613f94565b15613d3b578373ffffffffffffffffffffffffffffffffffffffff1663bc197c8187878686866040518663ffffffff1660e01b8152600401613bd1959493929190615e3e565b6020604051808303816000875af1925050508015613c0d57506040513d601f19601f82011682018060405250810190613c0a9190615ebb565b60015b613cb257613c19615ef5565b806308c379a003613c755750613c2d615f17565b80613c385750613c77565b806040517f08c379a0000000000000000000000000000000000000000000000000000000008152600401613c6c9190614241565b60405180910390fd5b505b6040517f08c379a0000000000000000000000000000000000000000000000000000000008152600401613ca990616019565b60405180910390fd5b63bc197c8160e01b7bffffffffffffffffffffffffffffffffffffffffffffffffffffffff1916817bffffffffffffffffffffffffffffffffffffffffffffffffffffffff191614613d39576040517f08c379a0000000000000000000000000000000000000000000000000000000008152600401613d30906160ab565b60405180910390fd5b505b505050505050565b60606000600167ffffffffffffffff811115613d6257613d61614268565b5b604051908082528060200260200182016040528015613d905781602001602082028036833780820191505090505b5090508281600081518110613da857613da7614f8d565b5b60200260200101818152505080915050919050565b613ddc8473ffffffffffffffffffffffffffffffffffffffff16613f94565b15613f8c578373ffffffffffffffffffffffffffffffffffffffff1663f23a6e6187878686866040518663ffffffff1660e01b8152600401613e229594939291906160cb565b6020604051808303816000875af1925050508015613e5e57506040513d601f19601f82011682018060405250810190613e5b9190615ebb565b60015b613f0357613e6a615ef5565b806308c379a003613ec65750613e7e615f17565b80613e895750613ec8565b806040517f08c379a0000000000000000000000000000000000000000000000000000000008152600401613ebd9190614241565b60405180910390fd5b505b6040517f08c379a0000000000000000000000000000000000000000000000000000000008152600401613efa90616019565b60405180910390fd5b63f23a6e6160e01b7bffffffffffffffffffffffffffffffffffffffffffffffffffffffff1916817bffffffffffffffffffffffffffffffffffffffffffffffffffffffff191614613f8a576040517f08c379a0000000000000000000000000000000000000000000000000000000008152600401613f81906160ab565b60405180910390fd5b505b505050505050565b6000808273ffffffffffffffffffffffffffffffffffffffff163b119050919050565b6000604051905090565b600080fd5b600080fd5b600073ffffffffffffffffffffffffffffffffffffffff82169050919050565b6000613ff682613fcb565b9050919050565b61400681613feb565b811461401157600080fd5b50565b60008135905061402381613ffd565b92915050565b6000819050919050565b61403c81614029565b811461404757600080fd5b50565b60008135905061405981614033565b92915050565b6000806040838503121561407657614075613fc1565b5b600061408485828601614014565b92505060206140958582860161404a565b9150509250929050565b6140a881614029565b82525050565b60006020820190506140c3600083018461409f565b92915050565b60007fffffffff0000000000000000000000000000000000000000000000000000000082169050919050565b6140fe816140c9565b811461410957600080fd5b50565b60008135905061411b816140f5565b92915050565b60006020828403121561413757614136613fc1565b5b60006141458482850161410c565b91505092915050565b60008115159050919050565b6141638161414e565b82525050565b600060208201905061417e600083018461415a565b92915050565b60006020828403121561419a57614199613fc1565b5b60006141a88482850161404a565b91505092915050565b600081519050919050565b600082825260208201905092915050565b60005b838110156141eb5780820151818401526020810190506141d0565b60008484015250505050565b6000601f19601f8301169050919050565b6000614213826141b1565b61421d81856141bc565b935061422d8185602086016141cd565b614236816141f7565b840191505092915050565b6000602082019050818103600083015261425b8184614208565b905092915050565b600080fd5b7f4e487b7100000000000000000000000000000000000000000000000000000000600052604160045260246000fd5b6142a0826141f7565b810181811067ffffffffffffffff821117156142bf576142be614268565b5b80604052505050565b60006142d2613fb7565b90506142de8282614297565b919050565b600067ffffffffffffffff8211156142fe576142fd614268565b5b602082029050602081019050919050565b600080fd5b6000614327614322846142e3565b6142c8565b9050808382526020820190506020840283018581111561434a5761434961430f565b5b835b81811015614373578061435f888261404a565b84526020840193505060208101905061434c565b5050509392505050565b600082601f83011261439257614391614263565b5b81356143a2848260208601614314565b91505092915050565b600080fd5b600067ffffffffffffffff8211156143cb576143ca614268565b5b6143d4826141f7565b9050602081019050919050565b82818337600083830152505050565b60006144036143fe846143b0565b6142c8565b90508281526020810184848401111561441f5761441e6143ab565b5b61442a8482856143e1565b509392505050565b600082601f83011261444757614446614263565b5b81356144578482602086016143f0565b91505092915050565b600080600080600060a0868803121561447c5761447b613fc1565b5b600061448a88828901614014565b955050602061449b88828901614014565b945050604086013567ffffffffffffffff8111156144bc576144bb613fc6565b5b6144c88882890161437d565b935050606086013567ffffffffffffffff8111156144e9576144e8613fc6565b5b6144f58882890161437d565b925050608086013567ffffffffffffffff81111561451657614515613fc6565b5b61452288828901614432565b9150509295509295909350565b6000806040838503121561454657614545613fc1565b5b60006145548582860161404a565b92505060206145658582860161404a565b9150509250929050565b600067ffffffffffffffff82111561458a57614589614268565b5b602082029050602081019050919050565b60006145ae6145a98461456f565b6142c8565b905080838252602082019050602084028301858111156145d1576145d061430f565b5b835b818110156145fa57806145e68882614014565b8452602084019350506020810190506145d3565b5050509392505050565b600082601f83011261461957614618614263565b5b813561462984826020860161459b565b91505092915050565b6000806040838503121561464957614648613fc1565b5b600083013567ffffffffffffffff81111561466757614666613fc6565b5b61467385828601614604565b925050602083013567ffffffffffffffff81111561469457614693613fc6565b5b6146a08582860161437d565b9150509250929050565b600081519050919050565b600082825260208201905092915050565b6000819050602082019050919050565b6146df81614029565b82525050565b60006146f183836146d6565b60208301905092915050565b6000602082019050919050565b6000614715826146aa565b61471f81856146b5565b935061472a836146c6565b8060005b8381101561475b57815161474288826146e5565b975061474d836146fd565b92505060018101905061472e565b5085935050505092915050565b60006020820190508181036000830152614782818461470a565b905092915050565b60006101408201905081810360008301526147a5818d614208565b90506147b4602083018c61409f565b6147c1604083018b61409f565b6147ce606083018a61409f565b6147db608083018961409f565b6147e860a083018861409f565b6147f560c083018761409f565b61480260e083018661409f565b61481061010083018561409f565b61481e61012083018461409f565b9b9a5050505050505050505050565b61483681613feb565b82525050565b6000602082019050614851600083018461482d565b92915050565b6148608161414e565b811461486b57600080fd5b50565b60008135905061487d81614857565b92915050565b6000806040838503121561489a57614899613fc1565b5b60006148a885828601614014565b92505060206148b98582860161486e565b9150509250929050565b6148cc816140c9565b82525050565b60006020820190506148e760008301846148c3565b92915050565b6000806040838503121561490457614903613fc1565b5b600061491285828601614014565b925050602061492385828601614014565b9150509250929050565b600080600080600060a0868803121561494957614948613fc1565b5b600061495788828901614014565b955050602061496888828901614014565b94505060406149798882890161404a565b935050606061498a8882890161404a565b925050608086013567ffffffffffffffff8111156149ab576149aa613fc6565b5b6149b788828901614432565b9150509295509295909350565b600067ffffffffffffffff8211156149df576149de614268565b5b6149e8826141f7565b9050602081019050919050565b6000614a08614a03846149c4565b6142c8565b905082815260208101848484011115614a2457614a236143ab565b5b614a2f8482856143e1565b509392505050565b600082601f830112614a4c57614a4b614263565b5b8135614a5c8482602086016149f5565b91505092915050565b600080600080600080600060e0888a031215614a8457614a83613fc1565b5b6000614a928a828b0161404a565b9750506020614aa38a828b0161404a565b9650506040614ab48a828b0161404a565b955050606088013567ffffffffffffffff811115614ad557614ad4613fc6565b5b614ae18a828b01614a37565b9450506080614af28a828b0161404a565b93505060a0614b038a828b0161404a565b92505060c0614b148a828b0161404a565b91505092959891949750929550565b7f455243313135353a2061646472657373207a65726f206973206e6f742061207660008201527f616c6964206f776e657200000000000000000000000000000000000000000000602082015250565b6000614b7f602a836141bc565b9150614b8a82614b23565b604082019050919050565b60006020820190508181036000830152614bae81614b72565b9050919050565b7f4e487b7100000000000000000000000000000000000000000000000000000000600052601160045260246000fd5b6000614bef82614029565b9150614bfa83614029565b9250828203905081811115614c1257614c11614bb5565b5b92915050565b7f4e487b7100000000000000000000000000000000000000000000000000000000600052602260045260246000fd5b60006002820490506001821680614c5f57607f821691505b602082108103614c7257614c71614c18565b5b50919050565b6000614c8382614029565b9150614c8e83614029565b9250828202614c9c81614029565b91508282048414831517614cb357614cb2614bb5565b5b5092915050565b7f455243313135353a2063616c6c6572206973206e6f7420746f6b656e206f776e60008201527f6572206f7220617070726f766564000000000000000000000000000000000000602082015250565b6000614d16602e836141bc565b9150614d2182614cba565b604082019050919050565b60006020820190508181036000830152614d4581614d09565b9050919050565b7f4e544f0000000000000000000000000000000000000000000000000000000000600082015250565b6000614d826003836141bc565b9150614d8d82614d4c565b602082019050919050565b60006020820190508181036000830152614db181614d75565b9050919050565b7f574e410000000000000000000000000000000000000000000000000000000000600082015250565b6000614dee6003836141bc565b9150614df982614db8565b602082019050919050565b60006020820190508181036000830152614e1d81614de1565b9050919050565b7f5741450000000000000000000000000000000000000000000000000000000000600082015250565b6000614e5a6003836141bc565b9150614e6582614e24565b602082019050919050565b60006020820190508181036000830152614e8981614e4d565b9050919050565b6000604082019050614ea5600083018561482d565b614eb2602083018461409f565b9392505050565b600081519050614ec881614857565b92915050565b600060208284031215614ee457614ee3613fc1565b5b6000614ef284828501614eb9565b91505092915050565b7f455243313135353a206163636f756e747320616e6420696473206c656e67746860008201527f206d69736d617463680000000000000000000000000000000000000000000000602082015250565b6000614f576029836141bc565b9150614f6282614efb565b604082019050919050565b60006020820190508181036000830152614f8681614f4a565b9050919050565b7f4e487b7100000000000000000000000000000000000000000000000000000000600052603260045260246000fd5b6000614fc782614029565b91507fffffffffffffffffffffffffffffffffffffffffffffffffffffffffffffffff8203614ff957614ff8614bb5565b5b600182019050919050565b7f504d444e41000000000000000000000000000000000000000000000000000000600082015250565b600061503a6005836141bc565b915061504582615004565b602082019050919050565b600060208201905081810360008301526150698161502d565b9050919050565b7f4e487b7100000000000000000000000000000000000000000000000000000000600052601260045260246000fd5b60006150aa82614029565b91506150b583614029565b9250826150c5576150c4615070565b5b828204905092915050565b60006040820190506150e5600083018561409f565b6150f2602083018461409f565b9392505050565b7f4942000000000000000000000000000000000000000000000000000000000000600082015250565b600061512f6002836141bc565b915061513a826150f9565b602082019050919050565b6000602082019050818103600083015261515e81615122565b9050919050565b7f4951000000000000000000000000000000000000000000000000000000000000600082015250565b600061519b6002836141bc565b91506151a682615165565b602082019050919050565b600060208201905081810360008301526151ca8161518e565b9050919050565b60006151dc82614029565b91506151e783614029565b92508282019050808211156151ff576151fe614bb5565b5b92915050565b600060408201905061521a600083018561409f565b615227602083018461482d565b9392505050565b6000606082019050615243600083018661409f565b615250602083018561482d565b61525d604083018461482d565b949350505050565b600060808201905061527a600083018761409f565b615287602083018661482d565b615294604083018561482d565b6152a1606083018461409f565b95945050505050565b60006060820190506152bf600083018661409f565b6152cc602083018561482d565b6152d9604083018461409f565b949350505050565b60006060820190506152f6600083018661482d565b615303602083018561482d565b615310604083018461409f565b949350505050565b7f524e410000000000000000000000000000000000000000000000000000000000600082015250565b600061534e6003836141bc565b915061535982615318565b602082019050919050565b6000602082019050818103600083015261537d81615341565b9050919050565b6000606082019050615399600083018661482d565b6153a6602083018561409f565b6153b3604083018461409f565b949350505050565b7f4d41444e41000000000000000000000000000000000000000000000000000000600082015250565b60006153f16005836141bc565b91506153fc826153bb565b602082019050919050565b60006020820190508181036000830152615420816153e4565b9050919050565b7f4d41434e41000000000000000000000000000000000000000000000000000000600082015250565b600061545d6005836141bc565b915061546882615427565b602082019050919050565b6000602082019050818103600083015261548c81615450565b9050919050565b7f444e410000000000000000000000000000000000000000000000000000000000600082015250565b60006154c96003836141bc565b91506154d482615493565b602082019050919050565b600060208201905081810360008301526154f8816154bc565b9050919050565b60008151905061550e81614033565b92915050565b60006020828403121561552a57615529613fc1565b5b6000615538848285016154ff565b91505092915050565b7f5746450000000000000000000000000000000000000000000000000000000000600082015250565b60006155776003836141bc565b915061558282615541565b602082019050919050565b600060208201905081810360008301526155a68161556a565b9050919050565b7f4d50514754425100000000000000000000000000000000000000000000000000600082015250565b60006155e36007836141bc565b91506155ee826155ad565b602082019050919050565b60006020820190508181036000830152615612816155d6565b9050919050565b7f4442364d00000000000000000000000000000000000000000000000000000000600082015250565b600061564f6004836141bc565b915061565a82615619565b602082019050919050565b6000602082019050818103600083015261567e81615642565b9050919050565b7f4144413744000000000000000000000000000000000000000000000000000000600082015250565b60006156bb6005836141bc565b91506156c682615685565b602082019050919050565b600060208201905081810360008301526156ea816156ae565b9050919050565b60008190508160005260206000209050919050565b60006020601f8301049050919050565b600082821b905092915050565b6000600883026157537fffffffffffffffffffffffffffffffffffffffffffffffffffffffffffffffff82615716565b61575d8683615716565b95508019841693508086168417925050509392505050565b6000819050919050565b600061579a61579561579084614029565b615775565b614029565b9050919050565b6000819050919050565b6157b48361577f565b6157c86157c0826157a1565b848454615723565b825550505050565b600090565b6157dd6157d0565b6157e88184846157ab565b505050565b5b8181101561580c576158016000826157d5565b6001810190506157ee565b5050565b601f82111561585157615822816156f1565b61582b84615706565b8101602085101561583a578190505b61584e61584685615706565b8301826157ed565b50505b505050565b600082821c905092915050565b600061587460001984600802615856565b1980831691505092915050565b600061588d8383615863565b9150826002028217905092915050565b6158a6826141b1565b67ffffffffffffffff8111156158bf576158be614268565b5b6158c98254614c47565b6158d4828285615810565b600060209050601f83116001811461590757600084156158f5578287015190505b6158ff8582615881565b865550615967565b601f198416615915866156f1565b60005b8281101561593d57848901518255600182019150602085019450602081019050615918565b8683101561595a5784890151615956601f891682615863565b8355505b6001600288020188555050505b505050505050565b6000608082019050615984600083018761409f565b615991602083018661409f565b61599e604083018561409f565b6159ab606083018461409f565b95945050505050565b7f455243313135353a2069647320616e6420616d6f756e7473206c656e6774682060008201527f6d69736d61746368000000000000000000000000000000000000000000000000602082015250565b6000615a106028836141bc565b9150615a1b826159b4565b604082019050919050565b60006020820190508181036000830152615a3f81615a03565b9050919050565b7f455243313135353a207472616e7366657220746f20746865207a65726f20616460008201527f6472657373000000000000000000000000000000000000000000000000000000602082015250565b6000615aa26025836141bc565b9150615aad82615a46565b604082019050919050565b60006020820190508181036000830152615ad181615a95565b9050919050565b7f455243313135353a20696e73756666696369656e742062616c616e636520666f60008201527f72207472616e7366657200000000000000000000000000000000000000000000602082015250565b6000615b34602a836141bc565b9150615b3f82615ad8565b604082019050919050565b60006020820190508181036000830152615b6381615b27565b9050919050565b60006040820190508181036000830152615b84818561470a565b90508181036020830152615b98818461470a565b90509392505050565b7f455243313135353a206275726e2066726f6d20746865207a65726f206164647260008201527f6573730000000000000000000000000000000000000000000000000000000000602082015250565b6000615bfd6023836141bc565b9150615c0882615ba1565b604082019050919050565b60006020820190508181036000830152615c2c81615bf0565b9050919050565b7f455243313135353a206275726e20616d6f756e7420657863656564732062616c60008201527f616e636500000000000000000000000000000000000000000000000000000000602082015250565b6000615c8f6024836141bc565b9150615c9a82615c33565b604082019050919050565b60006020820190508181036000830152615cbe81615c82565b9050919050565b7f455243313135353a2073657474696e6720617070726f76616c2073746174757360008201527f20666f722073656c660000000000000000000000000000000000000000000000602082015250565b6000615d216029836141bc565b9150615d2c82615cc5565b604082019050919050565b60006020820190508181036000830152615d5081615d14565b9050919050565b7f455243313135353a206d696e7420746f20746865207a65726f2061646472657360008201527f7300000000000000000000000000000000000000000000000000000000000000602082015250565b6000615db36021836141bc565b9150615dbe82615d57565b604082019050919050565b60006020820190508181036000830152615de281615da6565b9050919050565b600081519050919050565b600082825260208201905092915050565b6000615e1082615de9565b615e1a8185615df4565b9350615e2a8185602086016141cd565b615e33816141f7565b840191505092915050565b600060a082019050615e53600083018861482d565b615e60602083018761482d565b8181036040830152615e72818661470a565b90508181036060830152615e86818561470a565b90508181036080830152615e9a8184615e05565b90509695505050505050565b600081519050615eb5816140f5565b92915050565b600060208284031215615ed157615ed0613fc1565b5b6000615edf84828501615ea6565b91505092915050565b60008160e01c9050919050565b600060033d1115615f145760046000803e615f11600051615ee8565b90505b90565b600060443d10615fa457615f29613fb7565b60043d036004823e80513d602482011167ffffffffffffffff82111715615f51575050615fa4565b808201805167ffffffffffffffff811115615f6f5750505050615fa4565b80602083010160043d038501811115615f8c575050505050615fa4565b615f9b82602001850186614297565b82955050505050505b90565b7f455243313135353a207472616e7366657220746f206e6f6e2d4552433131353560008201527f526563656976657220696d706c656d656e746572000000000000000000000000602082015250565b60006160036034836141bc565b915061600e82615fa7565b604082019050919050565b6000602082019050818103600083015261603281615ff6565b9050919050565b7f455243313135353a204552433131353552656365697665722072656a6563746560008201527f6420746f6b656e73000000000000000000000000000000000000000000000000602082015250565b60006160956028836141bc565b91506160a082616039565b604082019050919050565b600060208201905081810360008301526160c481616088565b9050919050565b600060a0820190506160e0600083018861482d565b6160ed602083018761482d565b6160fa604083018661409f565b616107606083018561409f565b81810360808301526161198184615e05565b9050969550505050505056fea2646970667358221220c279201156873df65cb80c3211dd3d3074fbcd9b0c2a89d88ca567ff5a3c7d6764736f6c63430008110033a2646970667358221220acdf1eeacdd7d7a429d71205e588edb6efe7f23b7f6b897b8067d84fbe026d0264736f6c63430008110033",
  "linkReferences": {},
  "deployedLinkReferences": {}
}