{
  "_format": "hh-sol-artifact-1",
  "contractName": "DualCurrencyBondFactory",
  "sourceName": "contracts/factories/DualCurrencyBondFactory.sol",
  "abi": [
    {
      "inputs": [
        {
          "internalType": "address",
          "name": "a",
          "type": "address"
        },
        {
          "internalType": "address",
          "name": "b",
          "type": "address"
        },
        {
          "internalType": "address",
          "name": "bondToken",
          "type": "address"
        },
        {
          "internalType": "address",
          "name": "priceFeedA",
          "type": "address"
        },
        {
          "internalType": "address",
          "name": "priceFeedB",
          "type": "address"
        },
        {
          "internalType": "address",
          "name": "db",
          "type": "address"
        },
        {
          "internalType": "address",
          "name": "deployer",
          "type": "address"
        }
      ],
      "stateMutability": "nonpayable",
      "type": "constructor"
    },
    {
      "anonymous": false,
      "inputs": [
        {
          "indexed": true,
          "internalType": "uint256",
          "name": "id",
          "type": "uint256"
        },
        {
          "indexed": false,
          "internalType": "uint256",
          "name": "totalDebt",
          "type": "uint256"
        },
        {
          "indexed": false,
          "internalType": "uint256",
          "name": "paidDebt",
          "type": "uint256"
        }
      ],
      "name": "Completed",
      "type": "event"
    },
    {
      "anonymous": false,
      "inputs": [
        {
          "indexed": true,
          "internalType": "uint256",
          "name": "id",
          "type": "uint256"
        },
        {
          "indexed": false,
          "internalType": "uint256",
          "name": "totalDebt",
          "type": "uint256"
        },
        {
          "indexed": false,
          "internalType": "uint256",
          "name": "paidDebtA",
          "type": "uint256"
        },
        {
          "indexed": false,
          "internalType": "uint256",
          "name": "paidDebtB",
          "type": "uint256"
        }
      ],
      "name": "Defaulted",
      "type": "event"
    },
    {
      "anonymous": false,
      "inputs": [
        {
          "indexed": true,
          "internalType": "uint256",
          "name": "id",
          "type": "uint256"
        },
        {
          "indexed": false,
          "internalType": "uint256",
          "name": "bondQuantity",
          "type": "uint256"
        },
        {
          "indexed": false,
          "internalType": "uint256",
          "name": "tokenAAmountPerBond",
          "type": "uint256"
        },
        {
          "indexed": false,
          "internalType": "uint256",
          "name": "tokenBAmountPerBond",
          "type": "uint256"
        },
        {
          "indexed": false,
          "internalType": "uint256",
          "name": "couponRate",
          "type": "uint256"
        },
        {
          "indexed": false,
          "internalType": "uint256",
          "name": "maturityDate",
          "type": "uint256"
        }
      ],
      "name": "Issued",
      "type": "event"
    },
    {
      "anonymous": false,
      "inputs": [
        {
          "indexed": true,
          "internalType": "uint256",
          "name": "id",
          "type": "uint256"
        },
        {
          "indexed": false,
          "internalType": "address",
          "name": "buyer",
          "type": "address"
        },
        {
          "indexed": false,
          "internalType": "uint256",
          "name": "bondQuantity",
          "type": "uint256"
        },
        {
          "indexed": false,
          "internalType": "uint256",
          "name": "state",
          "type": "uint256"
        }
      ],
      "name": "Redeemed",
      "type": "event"
    },
    {
      "inputs": [],
      "name": "bonds",
      "outputs": [
        {
          "internalType": "uint256[]",
          "name": "",
          "type": "uint256[]"
        }
      ],
      "stateMutability": "view",
      "type": "function"
    },
    {
      "inputs": [
        {
          "internalType": "uint256",
          "name": "id",
          "type": "uint256"
        }
      ],
      "name": "couponRate",
      "outputs": [
        {
          "internalType": "uint256",
          "name": "",
          "type": "uint256"
        }
      ],
      "stateMutability": "view",
      "type": "function"
    },
    {
      "inputs": [
        {
          "internalType": "uint256",
          "name": "id",
          "type": "uint256"
        },
        {
          "internalType": "uint256",
          "name": "tokenAmount",
          "type": "uint256"
        }
      ],
      "name": "deposit",
      "outputs": [],
      "stateMutability": "nonpayable",
      "type": "function"
    },
    {
      "inputs": [
        {
          "internalType": "uint256",
          "name": "id",
          "type": "uint256"
        }
      ],
      "name": "designatedTokenAPool",
      "outputs": [
        {
          "internalType": "uint256",
          "name": "",
          "type": "uint256"
        }
      ],
      "stateMutability": "view",
      "type": "function"
    },
    {
      "inputs": [
        {
          "internalType": "uint256",
          "name": "id",
          "type": "uint256"
        }
      ],
      "name": "designatedTokenBPool",
      "outputs": [
        {
          "internalType": "uint256",
          "name": "",
          "type": "uint256"
        }
      ],
      "stateMutability": "view",
      "type": "function"
    },
    {
      "inputs": [],
      "name": "getAtoBExchangeRate",
      "outputs": [
        {
          "internalType": "uint256",
          "name": "",
          "type": "uint256"
        }
      ],
      "stateMutability": "view",
      "type": "function"
    },
    {
      "inputs": [],
      "name": "getLatestPriceA",
      "outputs": [
        {
          "internalType": "int256",
          "name": "",
          "type": "int256"
        }
      ],
      "stateMutability": "view",
      "type": "function"
    },
    {
      "inputs": [],
      "name": "getLatestPriceB",
      "outputs": [
        {
          "internalType": "int256",
          "name": "",
          "type": "int256"
        }
      ],
      "stateMutability": "view",
      "type": "function"
    },
    {
      "inputs": [
        {
          "internalType": "uint256",
          "name": "id",
          "type": "uint256"
        }
      ],
      "name": "isCanceled",
      "outputs": [
        {
          "internalType": "bool",
          "name": "",
          "type": "bool"
        }
      ],
      "stateMutability": "view",
      "type": "function"
    },
    {
      "inputs": [
        {
          "internalType": "uint256",
          "name": "id",
          "type": "uint256"
        }
      ],
      "name": "isCompleted",
      "outputs": [
        {
          "internalType": "bool",
          "name": "",
          "type": "bool"
        }
      ],
      "stateMutability": "view",
      "type": "function"
    },
    {
      "inputs": [
        {
          "internalType": "uint256",
          "name": "id",
          "type": "uint256"
        }
      ],
      "name": "isCompletedInTheory",
      "outputs": [
        {
          "internalType": "bool",
          "name": "",
          "type": "bool"
        }
      ],
      "stateMutability": "view",
      "type": "function"
    },
    {
      "inputs": [
        {
          "internalType": "uint256",
          "name": "id",
          "type": "uint256"
        }
      ],
      "name": "isDefaulted",
      "outputs": [
        {
          "internalType": "bool",
          "name": "",
          "type": "bool"
        }
      ],
      "stateMutability": "view",
      "type": "function"
    },
    {
      "inputs": [
        {
          "internalType": "uint256",
          "name": "id",
          "type": "uint256"
        }
      ],
      "name": "isDefaultedInTheory",
      "outputs": [
        {
          "internalType": "bool",
          "name": "",
          "type": "bool"
        }
      ],
      "stateMutability": "view",
      "type": "function"
    },
    {
      "inputs": [
        {
          "internalType": "uint256",
          "name": "id",
          "type": "uint256"
        }
      ],
      "name": "isFulfilled",
      "outputs": [
        {
          "internalType": "bool",
          "name": "",
          "type": "bool"
        }
      ],
      "stateMutability": "view",
      "type": "function"
    },
    {
      "inputs": [
        {
          "internalType": "uint256",
          "name": "id",
          "type": "uint256"
        }
      ],
      "name": "isFullyRedeemed",
      "outputs": [
        {
          "internalType": "bool",
          "name": "",
          "type": "bool"
        }
      ],
      "stateMutability": "view",
      "type": "function"
    },
    {
      "inputs": [
        {
          "internalType": "uint256",
          "name": "id",
          "type": "uint256"
        }
      ],
      "name": "isIssuedByFactory",
      "outputs": [
        {
          "internalType": "bool",
          "name": "",
          "type": "bool"
        }
      ],
      "stateMutability": "view",
      "type": "function"
    },
    {
      "inputs": [
        {
          "internalType": "uint256",
          "name": "bondQuantity",
          "type": "uint256"
        },
        {
          "internalType": "uint256",
          "name": "minPurchasedQuantity",
          "type": "uint256"
        },
        {
          "internalType": "uint256",
          "name": "tokenAAmountPerBond",
          "type": "uint256"
        },
        {
          "internalType": "string",
          "name": "ticker",
          "type": "string"
        },
        {
          "internalType": "uint256",
          "name": "durationInDays",
          "type": "uint256"
        },
        {
          "internalType": "uint256",
          "name": "activeDurationInDays",
          "type": "uint256"
        },
        {
          "internalType": "uint256",
          "name": "rate",
          "type": "uint256"
        }
      ],
      "name": "issue",
      "outputs": [
        {
          "internalType": "uint256",
          "name": "id",
          "type": "uint256"
        }
      ],
      "stateMutability": "nonpayable",
      "type": "function"
    },
    {
      "inputs": [
        {
          "internalType": "uint256",
          "name": "id",
          "type": "uint256"
        }
      ],
      "name": "markAsCompleted",
      "outputs": [],
      "stateMutability": "nonpayable",
      "type": "function"
    },
    {
      "inputs": [
        {
          "internalType": "uint256",
          "name": "id",
          "type": "uint256"
        }
      ],
      "name": "markAsDefaulted",
      "outputs": [],
      "stateMutability": "nonpayable",
      "type": "function"
    },
    {
      "inputs": [
        {
          "internalType": "address",
          "name": "",
          "type": "address"
        },
        {
          "internalType": "address",
          "name": "",
          "type": "address"
        },
        {
          "internalType": "uint256[]",
          "name": "",
          "type": "uint256[]"
        },
        {
          "internalType": "uint256[]",
          "name": "",
          "type": "uint256[]"
        },
        {
          "internalType": "bytes",
          "name": "",
          "type": "bytes"
        }
      ],
      "name": "onERC1155BatchReceived",
      "outputs": [
        {
          "internalType": "bytes4",
          "name": "",
          "type": "bytes4"
        }
      ],
      "stateMutability": "nonpayable",
      "type": "function"
    },
    {
      "inputs": [
        {
          "internalType": "address",
          "name": "",
          "type": "address"
        },
        {
          "internalType": "address",
          "name": "",
          "type": "address"
        },
        {
          "internalType": "uint256",
          "name": "",
          "type": "uint256"
        },
        {
          "internalType": "uint256",
          "name": "",
          "type": "uint256"
        },
        {
          "internalType": "bytes",
          "name": "",
          "type": "bytes"
        }
      ],
      "name": "onERC1155Received",
      "outputs": [
        {
          "internalType": "bytes4",
          "name": "",
          "type": "bytes4"
        }
      ],
      "stateMutability": "nonpayable",
      "type": "function"
    },
    {
      "inputs": [],
      "name": "owner",
      "outputs": [
        {
          "internalType": "address",
          "name": "",
          "type": "address"
        }
      ],
      "stateMutability": "view",
      "type": "function"
    },
    {
      "inputs": [
        {
          "internalType": "uint256",
          "name": "id",
          "type": "uint256"
        }
      ],
      "name": "poolAAmount",
      "outputs": [
        {
          "internalType": "uint256",
          "name": "",
          "type": "uint256"
        }
      ],
      "stateMutability": "view",
      "type": "function"
    },
    {
      "inputs": [
        {
          "internalType": "uint256",
          "name": "id",
          "type": "uint256"
        }
      ],
      "name": "poolBAmount",
      "outputs": [
        {
          "internalType": "uint256",
          "name": "",
          "type": "uint256"
        }
      ],
      "stateMutability": "view",
      "type": "function"
    },
    {
      "inputs": [
        {
          "internalType": "uint256",
          "name": "id",
          "type": "uint256"
        }
      ],
      "name": "preMaturityDefault",
      "outputs": [],
      "stateMutability": "nonpayable",
      "type": "function"
    },
    {
      "inputs": [
        {
          "internalType": "uint256",
          "name": "id",
          "type": "uint256"
        }
      ],
      "name": "principal",
      "outputs": [
        {
          "internalType": "uint256",
          "name": "",
          "type": "uint256"
        }
      ],
      "stateMutability": "view",
      "type": "function"
    },
    {
      "inputs": [
        {
          "internalType": "uint256",
          "name": "id",
          "type": "uint256"
        }
      ],
      "name": "principalWithInterest",
      "outputs": [
        {
          "internalType": "uint256",
          "name": "",
          "type": "uint256"
        }
      ],
      "stateMutability": "view",
      "type": "function"
    },
    {
      "inputs": [
        {
          "internalType": "uint256",
          "name": "id",
          "type": "uint256"
        },
        {
          "internalType": "uint256",
          "name": "bondQuantity",
          "type": "uint256"
        }
      ],
      "name": "purchase",
      "outputs": [],
      "stateMutability": "nonpayable",
      "type": "function"
    },
    {
      "inputs": [
        {
          "internalType": "uint256",
          "name": "id",
          "type": "uint256"
        },
        {
          "internalType": "uint256",
          "name": "bondQuantity",
          "type": "uint256"
        }
      ],
      "name": "redeem",
      "outputs": [],
      "stateMutability": "nonpayable",
      "type": "function"
    },
    {
      "inputs": [
        {
          "internalType": "uint256",
          "name": "id",
          "type": "uint256"
        }
      ],
      "name": "remainingQuantity",
      "outputs": [
        {
          "internalType": "uint256",
          "name": "",
          "type": "uint256"
        }
      ],
      "stateMutability": "view",
      "type": "function"
    },
    {
      "inputs": [
        {
          "internalType": "bytes4",
          "name": "interfaceId",
          "type": "bytes4"
        }
      ],
      "name": "supportsInterface",
      "outputs": [
        {
          "internalType": "bool",
          "name": "",
          "type": "bool"
        }
      ],
      "stateMutability": "view",
      "type": "function"
    },
    {
      "inputs": [],
      "name": "tokenA",
      "outputs": [
        {
          "internalType": "address",
          "name": "",
          "type": "address"
        }
      ],
      "stateMutability": "view",
      "type": "function"
    },
    {
      "inputs": [],
      "name": "tokenB",
      "outputs": [
        {
          "internalType": "address",
          "name": "",
          "type": "address"
        }
      ],
      "stateMutability": "view",
      "type": "function"
    },
    {
      "inputs": [],
      "name": "tvlA",
      "outputs": [
        {
          "internalType": "uint256",
          "name": "",
          "type": "uint256"
        }
      ],
      "stateMutability": "view",
      "type": "function"
    },
    {
      "inputs": [],
      "name": "tvlB",
      "outputs": [
        {
          "internalType": "uint256",
          "name": "",
          "type": "uint256"
        }
      ],
      "stateMutability": "view",
      "type": "function"
    },
    {
      "inputs": [
        {
          "internalType": "uint256",
          "name": "id",
          "type": "uint256"
        },
        {
          "internalType": "uint256",
          "name": "tokenAmount",
          "type": "uint256"
        }
      ],
      "name": "withdraw",
      "outputs": [],
      "stateMutability": "nonpayable",
      "type": "function"
    },
    {
      "inputs": [
        {
          "internalType": "uint256",
          "name": "id",
          "type": "uint256"
        }
      ],
      "name": "withdrawExcess",
      "outputs": [],
      "stateMutability": "nonpayable",
      "type": "function"
    }
  ],
  "bytecode": "0x6101606040523480156200001257600080fd5b5060405162005c3b38038062005c3b83398181016040528101906200003891906200021e565b8073ffffffffffffffffffffffffffffffffffffffff1660c08173ffffffffffffffffffffffffffffffffffffffff16815250508673ffffffffffffffffffffffffffffffffffffffff1660e08173ffffffffffffffffffffffffffffffffffffffff16815250508573ffffffffffffffffffffffffffffffffffffffff166101008173ffffffffffffffffffffffffffffffffffffffff16815250508173ffffffffffffffffffffffffffffffffffffffff166101208173ffffffffffffffffffffffffffffffffffffffff16815250508473ffffffffffffffffffffffffffffffffffffffff166101408173ffffffffffffffffffffffffffffffffffffffff16815250508373ffffffffffffffffffffffffffffffffffffffff1660808173ffffffffffffffffffffffffffffffffffffffff16815250508273ffffffffffffffffffffffffffffffffffffffff1660a08173ffffffffffffffffffffffffffffffffffffffff168152505050505050505050620002d1565b600080fd5b600073ffffffffffffffffffffffffffffffffffffffff82169050919050565b6000620001e682620001b9565b9050919050565b620001f881620001d9565b81146200020457600080fd5b50565b6000815190506200021881620001ed565b92915050565b600080600080600080600060e0888a03121562000240576200023f620001b4565b5b6000620002508a828b0162000207565b9750506020620002638a828b0162000207565b9650506040620002768a828b0162000207565b9550506060620002898a828b0162000207565b94505060806200029c8a828b0162000207565b93505060a0620002af8a828b0162000207565b92505060c0620002c28a828b0162000207565b91505092959891949750929550565b60805160a05160c05160e0516101005161012051610140516156ed6200054e60003960008181610858015281816109ab01528181610aa401528181610b6e01528181610cb00152818161146c015281816115330152818161165901528181611a4c01528181611cda01528181611e7d01528181612001015281816120f50152818161235f01528181612950015281816130430152613cca015260008181610e3e015281816112ab015281816113560152818161174e015281816117fb015281816118ca0152818161199c01528181611add015281816121d901528181612435015281816125d50152818161268201528181612be801528181612c9301528181612d4101528181612dee015281816132a1015281816135520152818161381201528181613dc30152613e4f015260008181610ff201528181611ddd01528181612286015281816126bf0152818161282201528181612e2b01528181612f3a015281816132de0152818161334e0152818161358f015281816135ff0152818161384f015281816138bf0152613c7201526000818161091701528181610e7b01528181610eeb0152818161178b0152818161185901528181611928015281816119d901528181611b1a01528181611b8a0152818161221601528181612472015281816124e2015281816126120152818161278301528181612d7e01528181612e9b015281816139640152613c36015260008181610c22015281816110d4015281816112e70152818161139201528181611838015281816119070152818161291401528181612c2401528181612ccf0152818161342f015281816136a401528181613a1a0152613e8b01526000611c330152600061101b01526156ed6000f3fe608060405234801561001057600080fd5b50600436106102275760003560e01c806370876c9811610130578063aa81106c116100b8578063e2bbb1581161007c578063e2bbb15814610724578063e755ddd714610740578063f0f3d7de1461075c578063f23a6e611461077a578063fcbc669a146107aa57610227565b8063aa81106c14610648578063abac75e114610678578063b1a1a165146106a8578063bc197c81146106d8578063c0a6026c1461070857610227565b80637bf24456116100ff5780637bf24456146105a45780637cbc2373146105c25780638da5cb5b146105de578063932a8de0146105fc578063a87430221461062c57610227565b806370876c981461050a578063769d96eb1461052657806377e2a08b146105445780637a41984b1461057457610227565b8063441a3e70116101b3578063634ef30311610182578063634ef3031461044057806364893aaf1461045e5780636567dc4d1461048e578063697e8c8c146104aa5780636ff80d93146104da57610227565b8063441a3e70146103b85780634556e49b146103d4578063549493bb146103f25780635f64b55b1461042257610227565b806314f29493116101fa57806314f29493146102c85780632f2c6b32146102f85780632f3ad61f146103285780633097afb81461035857806339e3af9b1461038857610227565b806301ffc9a71461022c578063091490201461025c5780630fc63d101461028c578063135c404e146102aa575b600080fd5b6102466004803603810190610241919061404f565b6107da565b6040516102539190614097565b60405180910390f35b610276600480360381019061027191906140e8565b610854565b6040516102839190614097565b60405180910390f35b610294610913565b6040516102a19190614156565b60405180910390f35b6102b261093b565b6040516102bf919061422f565b60405180910390f35b6102e260048036038101906102dd91906140e8565b610993565b6040516102ef9190614260565b60405180910390f35b610312600480360381019061030d91906140e8565b610a59565b60405161031f9190614260565b60405180910390f35b610342600480360381019061033d91906140e8565b610a76565b60405161034f9190614097565b60405180910390f35b610372600480360381019061036d91906140e8565b610aa0565b60405161037f9190614097565b60405180910390f35b6103a2600480360381019061039d91906140e8565b610b6a565b6040516103af9190614097565b60405180910390f35b6103d260048036038101906103cd919061427b565b610c20565b005b6103dc610f8c565b6040516103e99190614260565b60405180910390f35b61040c600480360381019061040791906140e8565b610fbc565b6040516104199190614097565b60405180910390f35b61042a610fee565b6040516104379190614156565b60405180910390f35b610448611016565b60405161045591906142d4565b60405180910390f35b610478600480360381019061047391906140e8565b6110b5565b6040516104859190614260565b60405180910390f35b6104a860048036038101906104a391906140e8565b6110d2565b005b6104c460048036038101906104bf91906140e8565b61144b565b6040516104d19190614260565b60405180910390f35b6104f460048036038101906104ef91906140e8565b611468565b6040516105019190614097565b60405180910390f35b610524600480360381019061051f919061427b565b611531565b005b61052e611c2e565b60405161053b91906142d4565b60405180910390f35b61055e600480360381019061055991906140e8565b611ccd565b60405161056b9190614260565b60405180910390f35b61058e600480360381019061058991906140e8565b611daf565b60405161059b9190614097565b60405180910390f35b6105ac611dd9565b6040516105b99190614260565b60405180910390f35b6105dc60048036038101906105d7919061427b565b611e7a565b005b6105e6612910565b6040516105f39190614156565b60405180910390f35b610616600480360381019061061191906140e8565b612938565b6040516106239190614260565b60405180910390f35b610646600480360381019061064191906140e8565b6129fe565b005b610662600480360381019061065d91906140e8565b613022565b60405161066f9190614260565b60405180910390f35b610692600480360381019061068d91906140e8565b61303f565b60405161069f9190614260565b60405180910390f35b6106c260048036038101906106bd91906140e8565b6130e8565b6040516106cf9190614097565b60405180910390f35b6106f260048036038101906106ed9190614529565b613112565b6040516106ff9190614607565b60405180910390f35b610722600480360381019061071d91906140e8565b613127565b005b61073e6004803603810190610739919061427b565b61342d565b005b61075a600480360381019061075591906140e8565b6136a2565b005b610764613960565b6040516107719190614260565b60405180910390f35b610794600480360381019061078f9190614622565b613a01565b6040516107a19190614607565b60405180910390f35b6107c460048036038101906107bf919061475a565b613a16565b6040516107d19190614260565b60405180910390f35b60007f4e2312e0000000000000000000000000000000000000000000000000000000007bffffffffffffffffffffffffffffffffffffffffffffffffffffffff1916827bffffffffffffffffffffffffffffffffffffffffffffffffffffffff1916148061084d575061084c82613f63565b5b9050919050565b60007f000000000000000000000000000000000000000000000000000000000000000073ffffffffffffffffffffffffffffffffffffffff16634dd9c9c7836040518263ffffffff1660e01b81526004016108af9190614260565b61014060405180830381865afa1580156108cd573d6000803e3d6000fd5b505050506040513d601f19601f820116820180604052508101906108f19190614928565b6101000151600260008481526020019081526020016000205410159050919050565b60007f0000000000000000000000000000000000000000000000000000000000000000905090565b6060600180548060200260200160405190810160405280929190818152602001828054801561098957602002820191906000526020600020905b815481526020019060010190808311610975575b5050505050905090565b600060026000838152602001908152602001600020547f000000000000000000000000000000000000000000000000000000000000000073ffffffffffffffffffffffffffffffffffffffff16634dd9c9c7846040518263ffffffff1660e01b8152600401610a029190614260565b61014060405180830381865afa158015610a20573d6000803e3d6000fd5b505050506040513d601f19601f82011682018060405250810190610a449190614928565b60200151610a529190614985565b9050919050565b600060046000838152602001908152602001600020549050919050565b6000600a600083815260200190815260200160002060009054906101000a900460ff169050919050565b60007f000000000000000000000000000000000000000000000000000000000000000073ffffffffffffffffffffffffffffffffffffffff16638f0dbf77836040518263ffffffff1660e01b8152600401610afb9190614260565b602060405180830381865afa158015610b18573d6000803e3d6000fd5b505050506040513d601f19601f82011682018060405250810190610b3c91906149f3565b8015610b635750610b4c82611ccd565b600560008481526020019081526020016000205410155b9050919050565b60007f000000000000000000000000000000000000000000000000000000000000000073ffffffffffffffffffffffffffffffffffffffff166382afd23b836040518263ffffffff1660e01b8152600401610bc59190614260565b602060405180830381865afa158015610be2573d6000803e3d6000fd5b505050506040513d601f19601f82011682018060405250810190610c0691906149f3565b158015610c195750610c1782610854565b155b9050919050565b7f000000000000000000000000000000000000000000000000000000000000000073ffffffffffffffffffffffffffffffffffffffff163373ffffffffffffffffffffffffffffffffffffffff1614610cae576040517f08c379a0000000000000000000000000000000000000000000000000000000008152600401610ca590614a7d565b60405180910390fd5b7f000000000000000000000000000000000000000000000000000000000000000073ffffffffffffffffffffffffffffffffffffffff166382afd23b836040518263ffffffff1660e01b8152600401610d079190614260565b602060405180830381865afa158015610d24573d6000803e3d6000fd5b505050506040513d601f19601f82011682018060405250810190610d4891906149f3565b158015610d5b5750610d5982610b6a565b155b8015610d7d5750610d6b82610a76565b80610d7b5750610d7a82611468565b5b155b610dbc576040517f08c379a0000000000000000000000000000000000000000000000000000000008152600401610db390614ae9565b60405180910390fd5b6004600083815260200190815260200160002054811115610e12576040517f08c379a0000000000000000000000000000000000000000000000000000000008152600401610e0990614b55565b60405180910390fd5b80600460008481526020019081526020016000206000828254610e359190614b75565b925050819055507f000000000000000000000000000000000000000000000000000000000000000073ffffffffffffffffffffffffffffffffffffffff1663bcae6824827f00000000000000000000000000000000000000000000000000000000000000006040518363ffffffff1660e01b8152600401610eb7929190614ba9565b600060405180830381600087803b158015610ed157600080fd5b505af1158015610ee5573d6000803e3d6000fd5b505050507f000000000000000000000000000000000000000000000000000000000000000073ffffffffffffffffffffffffffffffffffffffff1663a9059cbb33836040518363ffffffff1660e01b8152600401610f44929190614bd2565b6020604051808303816000875af1158015610f63573d6000803e3d6000fd5b505050506040513d601f19601f82011682018060405250810190610f8791906149f3565b505050565b6000610f96611c2e565b633b9aca00610fa3611016565b610fad9190614985565b610fb79190614c2a565b905090565b600060026000838152602001908152602001600020546003600084815260200190815260200160002054149050919050565b60007f0000000000000000000000000000000000000000000000000000000000000000905090565b6000807f000000000000000000000000000000000000000000000000000000000000000073ffffffffffffffffffffffffffffffffffffffff1663feaf968c6040518163ffffffff1660e01b815260040160a060405180830381865afa158015611084573d6000803e3d6000fd5b505050506040513d601f19601f820116820180604052508101906110a89190614cc9565b5050509150508091505090565b600060056000838152602001908152602001600020549050919050565b7f000000000000000000000000000000000000000000000000000000000000000073ffffffffffffffffffffffffffffffffffffffff163373ffffffffffffffffffffffffffffffffffffffff1614611160576040517f08c379a000000000000000000000000000000000000000000000000000000000815260040161115790614a7d565b60405180910390fd5b61116981611daf565b15801561117c575061117a81610a76565b155b80156111a2575061118c81611ccd565b6005600083815260200190815260200160002054105b6111e1576040517f08c379a00000000000000000000000000000000000000000000000000000000081526004016111d890614d90565b60405180910390fd5b6000600460008381526020019081526020016000205490506000600560008481526020019081526020016000205490506002600084815260200190815260200160002054826112309190614c2a565b60066000858152602001908152602001600020819055506002600084815260200190815260200160002054816112669190614c2a565b60076000858152602001908152602001600020819055506001600a600085815260200190815260200160002060006101000a81548160ff0219169083151502179055507f000000000000000000000000000000000000000000000000000000000000000073ffffffffffffffffffffffffffffffffffffffff1663dae382d67f00000000000000000000000000000000000000000000000000000000000000006040518263ffffffff1660e01b81526004016113229190614156565b600060405180830381600087803b15801561133c57600080fd5b505af1158015611350573d6000803e3d6000fd5b505050507f000000000000000000000000000000000000000000000000000000000000000073ffffffffffffffffffffffffffffffffffffffff1663d050a7c87f000000000000000000000000000000000000000000000000000000000000000060046040518363ffffffff1660e01b81526004016113d0929190614bd2565b600060405180830381600087803b1580156113ea57600080fd5b505af11580156113fe573d6000803e3d6000fd5b50505050827fcd2c25949e23ea2647ca2c5809b025ee3aca0d82cfcb1d22a715398f5cf8db8e61142d85611ccd565b838560405161143e93929190614db0565b60405180910390a2505050565b600060046000838152602001908152602001600020549050919050565b60007f000000000000000000000000000000000000000000000000000000000000000073ffffffffffffffffffffffffffffffffffffffff16638f0dbf77836040518263ffffffff1660e01b81526004016114c39190614260565b602060405180830381865afa1580156114e0573d6000803e3d6000fd5b505050506040513d601f19601f8201168201806040525081019061150491906149f3565b801561152a575061151482611ccd565b6005600084815260200190815260200160002054105b9050919050565b7f000000000000000000000000000000000000000000000000000000000000000073ffffffffffffffffffffffffffffffffffffffff166382afd23b836040518263ffffffff1660e01b815260040161158a9190614260565b602060405180830381865afa1580156115a7573d6000803e3d6000fd5b505050506040513d601f19601f820116820180604052508101906115cb91906149f3565b61160a576040517f08c379a000000000000000000000000000000000000000000000000000000000815260040161160190614e33565b60405180910390fd5b8061161483612938565b1015611655576040517f08c379a000000000000000000000000000000000000000000000000000000000815260040161164c90614e9f565b60405180910390fd5b60007f000000000000000000000000000000000000000000000000000000000000000073ffffffffffffffffffffffffffffffffffffffff16634dd9c9c7846040518263ffffffff1660e01b81526004016116b09190614260565b61014060405180830381865afa1580156116ce573d6000803e3d6000fd5b505050506040513d601f19601f820116820180604052508101906116f29190614928565b6000015190508160026000858152602001908152602001600020600082825461171b9190614ebf565b92505081905550806004600085815260200190815260200160002060008282546117459190614ebf565b925050819055507f000000000000000000000000000000000000000000000000000000000000000073ffffffffffffffffffffffffffffffffffffffff1663576ff163827f00000000000000000000000000000000000000000000000000000000000000006040518363ffffffff1660e01b81526004016117c7929190614ba9565b600060405180830381600087803b1580156117e157600080fd5b505af11580156117f5573d6000803e3d6000fd5b505050507f000000000000000000000000000000000000000000000000000000000000000073ffffffffffffffffffffffffffffffffffffffff1663b8c2e4f3827f00000000000000000000000000000000000000000000000000000000000000007f00000000000000000000000000000000000000000000000000000000000000006040518463ffffffff1660e01b815260040161189693929190614ef3565b600060405180830381600087803b1580156118b057600080fd5b505af11580156118c4573d6000803e3d6000fd5b505050507f000000000000000000000000000000000000000000000000000000000000000073ffffffffffffffffffffffffffffffffffffffff16637db79a3d827f00000000000000000000000000000000000000000000000000000000000000007f000000000000000000000000000000000000000000000000000000000000000060046040518563ffffffff1660e01b81526004016119689493929190614f2a565b600060405180830381600087803b15801561198257600080fd5b505af1158015611996573d6000803e3d6000fd5b505050507f000000000000000000000000000000000000000000000000000000000000000073ffffffffffffffffffffffffffffffffffffffff1663b0b4dfaa827f000000000000000000000000000000000000000000000000000000000000000060046040518463ffffffff1660e01b8152600401611a1893929190614f6f565b600060405180830381600087803b158015611a3257600080fd5b505af1158015611a46573d6000803e3d6000fd5b505050507f000000000000000000000000000000000000000000000000000000000000000073ffffffffffffffffffffffffffffffffffffffff1663f242432a303386866040518563ffffffff1660e01b8152600401611aa99493929190614fdd565b600060405180830381600087803b158015611ac357600080fd5b505af1158015611ad7573d6000803e3d6000fd5b505050507f000000000000000000000000000000000000000000000000000000000000000073ffffffffffffffffffffffffffffffffffffffff166383883fe3827f00000000000000000000000000000000000000000000000000000000000000006040518363ffffffff1660e01b8152600401611b56929190614ba9565b600060405180830381600087803b158015611b7057600080fd5b505af1158015611b84573d6000803e3d6000fd5b505050507f000000000000000000000000000000000000000000000000000000000000000073ffffffffffffffffffffffffffffffffffffffff166323b872dd3330846040518463ffffffff1660e01b8152600401611be593929190615035565b6020604051808303816000875af1158015611c04573d6000803e3d6000fd5b505050506040513d601f19601f82011682018060405250810190611c2891906149f3565b50505050565b6000807f000000000000000000000000000000000000000000000000000000000000000073ffffffffffffffffffffffffffffffffffffffff1663feaf968c6040518163ffffffff1660e01b815260040160a060405180830381865afa158015611c9c573d6000803e3d6000fd5b505050506040513d601f19601f82011682018060405250810190611cc09190614cc9565b5050509150508091505090565b6000670de0b6b3a76400007f000000000000000000000000000000000000000000000000000000000000000073ffffffffffffffffffffffffffffffffffffffff16634dd9c9c7846040518263ffffffff1660e01b8152600401611d319190614260565b61014060405180830381865afa158015611d4f573d6000803e3d6000fd5b505050506040513d601f19601f82011682018060405250810190611d739190614928565b6101200151611d8184610993565b611d8b9190614985565b611d959190614c2a565b611d9e83610993565b611da89190614ebf565b9050919050565b6000600b600083815260200190815260200160002060009054906101000a900460ff169050919050565b60007f000000000000000000000000000000000000000000000000000000000000000073ffffffffffffffffffffffffffffffffffffffff166370a08231306040518263ffffffff1660e01b8152600401611e349190614156565b602060405180830381865afa158015611e51573d6000803e3d6000fd5b505050506040513d601f19601f82011682018060405250810190611e75919061506c565b905090565b807f000000000000000000000000000000000000000000000000000000000000000073ffffffffffffffffffffffffffffffffffffffff1662fdd58e33856040518363ffffffff1660e01b8152600401611ed5929190614bd2565b602060405180830381865afa158015611ef2573d6000803e3d6000fd5b505050506040513d601f19601f82011682018060405250810190611f16919061506c565b1015611f57576040517f08c379a0000000000000000000000000000000000000000000000000000000008152600401611f4e90614e9f565b60405180910390fd5b611f6082611daf565b80611f705750611f6f82610b6a565b5b80611f805750611f7f82610a76565b5b611fbf576040517f08c379a0000000000000000000000000000000000000000000000000000000008152600401611fb6906150e5565b60405180910390fd5b6000806000611fcd85611daf565b15611ff15760086000868152602001908152602001600020549150600090506120f3565b611ffa85610b6a565b156120a9577f000000000000000000000000000000000000000000000000000000000000000073ffffffffffffffffffffffffffffffffffffffff16634dd9c9c7866040518263ffffffff1660e01b81526004016120589190614260565b61014060405180830381865afa158015612076573d6000803e3d6000fd5b505050506040513d601f19601f8201168201806040525081019061209a9190614928565b600001519250600190506120f2565b6120b285610a76565b156120ec576006600086815260200190815260200160002054925060076000868152602001908152602001600020549150600290506120f1565b600080fd5b5b5b7f000000000000000000000000000000000000000000000000000000000000000073ffffffffffffffffffffffffffffffffffffffff1663f5298aca3387876040518463ffffffff1660e01b815260040161215093929190615105565b600060405180830381600087803b15801561216a57600080fd5b505af115801561217e573d6000803e3d6000fd5b50505050836003600087815260200190815260200160002060008282546121a59190614ebf565b92505081905550600081036123535760006008600087815260200190815260200160002054856121d59190614985565b90507f000000000000000000000000000000000000000000000000000000000000000073ffffffffffffffffffffffffffffffffffffffff1663bcae6824827f00000000000000000000000000000000000000000000000000000000000000006040518363ffffffff1660e01b8152600401612252929190614ba9565b600060405180830381600087803b15801561226c57600080fd5b505af1158015612280573d6000803e3d6000fd5b505050507f000000000000000000000000000000000000000000000000000000000000000073ffffffffffffffffffffffffffffffffffffffff1663a9059cbb33836040518363ffffffff1660e01b81526004016122df929190614bd2565b6020604051808303816000875af11580156122fe573d6000803e3d6000fd5b505050506040513d601f19601f8201168201806040525081019061232291906149f3565b50806005600088815260200190815260200160002060008282546123469190614b75565b92505081905550506128cd565b600181036125855760007f000000000000000000000000000000000000000000000000000000000000000073ffffffffffffffffffffffffffffffffffffffff16634dd9c9c7876040518263ffffffff1660e01b81526004016123b69190614260565b61014060405180830381865afa1580156123d4573d6000803e3d6000fd5b505050506040513d601f19601f820116820180604052508101906123f89190614928565b60000151856124079190614985565b90508060046000888152602001908152602001600020600082825461242c9190614b75565b925050819055507f000000000000000000000000000000000000000000000000000000000000000073ffffffffffffffffffffffffffffffffffffffff1663bcae6824827f00000000000000000000000000000000000000000000000000000000000000006040518363ffffffff1660e01b81526004016124ae929190614ba9565b600060405180830381600087803b1580156124c857600080fd5b505af11580156124dc573d6000803e3d6000fd5b505050507f000000000000000000000000000000000000000000000000000000000000000073ffffffffffffffffffffffffffffffffffffffff1663a9059cbb33836040518363ffffffff1660e01b815260040161253b929190614bd2565b6020604051808303816000875af115801561255a573d6000803e3d6000fd5b505050506040513d601f19601f8201168201806040525081019061257e91906149f3565b50506128cc565b600281036128c65760006006600087815260200190815260200160002054856125ae9190614985565b905060006007600088815260200190815260200160002054866125d19190614985565b90507f000000000000000000000000000000000000000000000000000000000000000073ffffffffffffffffffffffffffffffffffffffff1663bcae6824837f00000000000000000000000000000000000000000000000000000000000000006040518363ffffffff1660e01b815260040161264e929190614ba9565b600060405180830381600087803b15801561266857600080fd5b505af115801561267c573d6000803e3d6000fd5b505050507f000000000000000000000000000000000000000000000000000000000000000073ffffffffffffffffffffffffffffffffffffffff1663bcae6824827f00000000000000000000000000000000000000000000000000000000000000006040518363ffffffff1660e01b81526004016126fb929190614ba9565b600060405180830381600087803b15801561271557600080fd5b505af1158015612729573d6000803e3d6000fd5b50505050816004600089815260200190815260200160002060008282546127509190614b75565b925050819055508060056000898152602001908152602001600020600082825461277a9190614b75565b925050819055507f000000000000000000000000000000000000000000000000000000000000000073ffffffffffffffffffffffffffffffffffffffff1663a9059cbb33846040518363ffffffff1660e01b81526004016127dc929190614bd2565b6020604051808303816000875af11580156127fb573d6000803e3d6000fd5b505050506040513d601f19601f8201168201806040525081019061281f91906149f3565b507f000000000000000000000000000000000000000000000000000000000000000073ffffffffffffffffffffffffffffffffffffffff1663a9059cbb33836040518363ffffffff1660e01b815260040161287b929190614bd2565b6020604051808303816000875af115801561289a573d6000803e3d6000fd5b505050506040513d601f19601f820116820180604052508101906128be91906149f3565b5050506128cb565b600080fd5b5b5b847fa5851b0172fdafd3dafe0e52ce051747548a4c642a2f22793c01faf228e1306233868460405161290193929190615105565b60405180910390a25050505050565b60007f0000000000000000000000000000000000000000000000000000000000000000905090565b600060026000838152602001908152602001600020547f000000000000000000000000000000000000000000000000000000000000000073ffffffffffffffffffffffffffffffffffffffff16634dd9c9c7846040518263ffffffff1660e01b81526004016129a79190614260565b61014060405180830381865afa1580156129c5573d6000803e3d6000fd5b505050506040513d601f19601f820116820180604052508101906129e99190614928565b60e001516129f79190614b75565b9050919050565b612a0781611daf565b158015612a1a5750612a1881610a76565b155b8015612a2b5750612a2a81611468565b5b612a6a576040517f08c379a0000000000000000000000000000000000000000000000000000000008152600401612a6190615188565b60405180910390fd5b60006107d06004600084815260200190815260200160002054612a8d9190614c2a565b905060006107d06005600085815260200190815260200160002054612ab29190614c2a565b90506000826004600086815260200190815260200160002054612ad59190614b75565b90506000826005600087815260200190815260200160002054612af89190614b75565b9050600260008681526020019081526020016000205482612b199190614c2a565b6006600087815260200190815260200160002081905550600260008681526020019081526020016000205481612b4f9190614c2a565b600760008781526020019081526020016000208190555083600460008781526020019081526020016000206000828254612b899190614b75565b9250508190555082600560008781526020019081526020016000206000828254612bb39190614b75565b925050819055506001600a600087815260200190815260200160002060006101000a81548160ff0219169083151502179055507f000000000000000000000000000000000000000000000000000000000000000073ffffffffffffffffffffffffffffffffffffffff1663dae382d67f00000000000000000000000000000000000000000000000000000000000000006040518263ffffffff1660e01b8152600401612c5f9190614156565b600060405180830381600087803b158015612c7957600080fd5b505af1158015612c8d573d6000803e3d6000fd5b505050507f000000000000000000000000000000000000000000000000000000000000000073ffffffffffffffffffffffffffffffffffffffff1663d050a7c87f000000000000000000000000000000000000000000000000000000000000000060046040518363ffffffff1660e01b8152600401612d0d929190614bd2565b600060405180830381600087803b158015612d2757600080fd5b505af1158015612d3b573d6000803e3d6000fd5b505050507f000000000000000000000000000000000000000000000000000000000000000073ffffffffffffffffffffffffffffffffffffffff1663bcae6824857f00000000000000000000000000000000000000000000000000000000000000006040518363ffffffff1660e01b8152600401612dba929190614ba9565b600060405180830381600087803b158015612dd457600080fd5b505af1158015612de8573d6000803e3d6000fd5b505050507f000000000000000000000000000000000000000000000000000000000000000073ffffffffffffffffffffffffffffffffffffffff1663bcae6824847f00000000000000000000000000000000000000000000000000000000000000006040518363ffffffff1660e01b8152600401612e67929190614ba9565b600060405180830381600087803b158015612e8157600080fd5b505af1158015612e95573d6000803e3d6000fd5b505050507f000000000000000000000000000000000000000000000000000000000000000073ffffffffffffffffffffffffffffffffffffffff1663a9059cbb33866040518363ffffffff1660e01b8152600401612ef4929190614bd2565b6020604051808303816000875af1158015612f13573d6000803e3d6000fd5b505050506040513d601f19601f82011682018060405250810190612f3791906149f3565b507f000000000000000000000000000000000000000000000000000000000000000073ffffffffffffffffffffffffffffffffffffffff1663a9059cbb33856040518363ffffffff1660e01b8152600401612f93929190614bd2565b6020604051808303816000875af1158015612fb2573d6000803e3d6000fd5b505050506040513d601f19601f82011682018060405250810190612fd691906149f3565b50847fcd2c25949e23ea2647ca2c5809b025ee3aca0d82cfcb1d22a715398f5cf8db8e61300287611ccd565b838560405161301393929190614db0565b60405180910390a25050505050565b600060056000838152602001908152602001600020549050919050565b60007f000000000000000000000000000000000000000000000000000000000000000073ffffffffffffffffffffffffffffffffffffffff16634dd9c9c7836040518263ffffffff1660e01b815260040161309a9190614260565b61014060405180830381865afa1580156130b8573d6000803e3d6000fd5b505050506040513d601f19601f820116820180604052508101906130dc9190614928565b61012001519050919050565b60006009600083815260200190815260200160002060009054906101000a900460ff169050919050565b600063bc197c8160e01b905095945050505050565b61313081610a76565b158015613143575061314181611daf565b155b8015613154575061315381610aa0565b5b613193576040517f08c379a000000000000000000000000000000000000000000000000000000000815260040161318a906151f4565b60405180910390fd5b600061319e82611ccd565b905060006103e8826131b09190614c2a565b9050600081836131c09190614b75565b90506002600085815260200190815260200160002054816131e19190614c2a565b600860008681526020019081526020016000208190555060006002600086815260200190815260200160002054600860008781526020019081526020016000205461322c9190614985565b826132379190614b75565b9050600081846132479190614ebf565b90508060056000888152602001908152602001600020600082825461326c9190614b75565b925050819055506001600b600088815260200190815260200160002060006101000a81548160ff0219169083151502179055507f000000000000000000000000000000000000000000000000000000000000000073ffffffffffffffffffffffffffffffffffffffff1663bcae6824827f00000000000000000000000000000000000000000000000000000000000000006040518363ffffffff1660e01b815260040161331a929190614ba9565b600060405180830381600087803b15801561333457600080fd5b505af1158015613348573d6000803e3d6000fd5b505050507f000000000000000000000000000000000000000000000000000000000000000073ffffffffffffffffffffffffffffffffffffffff1663a9059cbb33836040518363ffffffff1660e01b81526004016133a7929190614bd2565b6020604051808303816000875af11580156133c6573d6000803e3d6000fd5b505050506040513d601f19601f820116820180604052508101906133ea91906149f3565b50857fac2eeaf45d1b75aed6b3285cda3efb3c382cce02ba313558bbb90be57f8843e4868560405161341d929190615214565b60405180910390a2505050505050565b7f000000000000000000000000000000000000000000000000000000000000000073ffffffffffffffffffffffffffffffffffffffff163373ffffffffffffffffffffffffffffffffffffffff16146134bb576040517f08c379a00000000000000000000000000000000000000000000000000000000081526004016134b290614a7d565b60405180910390fd5b6134c482610a76565b806134d457506134d382611468565b5b1580156134e757506134e582611daf565b155b613526576040517f08c379a000000000000000000000000000000000000000000000000000000000815260040161351d90615289565b60405180910390fd5b806005600084815260200190815260200160002060008282546135499190614ebf565b925050819055507f000000000000000000000000000000000000000000000000000000000000000073ffffffffffffffffffffffffffffffffffffffff166383883fe3827f00000000000000000000000000000000000000000000000000000000000000006040518363ffffffff1660e01b81526004016135cb929190614ba9565b600060405180830381600087803b1580156135e557600080fd5b505af11580156135f9573d6000803e3d6000fd5b505050507f000000000000000000000000000000000000000000000000000000000000000073ffffffffffffffffffffffffffffffffffffffff166323b872dd3330846040518463ffffffff1660e01b815260040161365a93929190615035565b6020604051808303816000875af1158015613679573d6000803e3d6000fd5b505050506040513d601f19601f8201168201806040525081019061369d91906149f3565b505050565b7f000000000000000000000000000000000000000000000000000000000000000073ffffffffffffffffffffffffffffffffffffffff163373ffffffffffffffffffffffffffffffffffffffff1614613730576040517f08c379a000000000000000000000000000000000000000000000000000000000815260040161372790614a7d565b60405180910390fd5b61373981611daf565b801561374a575061374981610fbc565b5b613789576040517f08c379a000000000000000000000000000000000000000000000000000000000815260040161378090614ae9565b60405180910390fd5b60006005600083815260200190815260200160002054116137df576040517f08c379a00000000000000000000000000000000000000000000000000000000081526004016137d6906152f5565b60405180910390fd5b600060056000838152602001908152602001600020549050600060056000848152602001908152602001600020819055507f000000000000000000000000000000000000000000000000000000000000000073ffffffffffffffffffffffffffffffffffffffff1663bcae6824827f00000000000000000000000000000000000000000000000000000000000000006040518363ffffffff1660e01b815260040161388b929190614ba9565b600060405180830381600087803b1580156138a557600080fd5b505af11580156138b9573d6000803e3d6000fd5b505050507f000000000000000000000000000000000000000000000000000000000000000073ffffffffffffffffffffffffffffffffffffffff1663a9059cbb33836040518363ffffffff1660e01b8152600401613918929190614bd2565b6020604051808303816000875af1158015613937573d6000803e3d6000fd5b505050506040513d601f19601f8201168201806040525081019061395b91906149f3565b505050565b60007f000000000000000000000000000000000000000000000000000000000000000073ffffffffffffffffffffffffffffffffffffffff166370a08231306040518263ffffffff1660e01b81526004016139bb9190614156565b602060405180830381865afa1580156139d8573d6000803e3d6000fd5b505050506040513d601f19601f820116820180604052508101906139fc919061506c565b905090565b600063f23a6e6160e01b905095945050505050565b60007f000000000000000000000000000000000000000000000000000000000000000073ffffffffffffffffffffffffffffffffffffffff163373ffffffffffffffffffffffffffffffffffffffff1614613aa6576040517f08c379a0000000000000000000000000000000000000000000000000000000008152600401613a9d90614a7d565b60405180910390fd5b878710613ae8576040517f08c379a0000000000000000000000000000000000000000000000000000000008152600401613adf90615361565b60405180910390fd5b60b4841015613b2c576040517f08c379a0000000000000000000000000000000000000000000000000000000008152600401613b23906153cd565b60405180910390fd5b6007831115613b70576040517f08c379a0000000000000000000000000000000000000000000000000000000008152600401613b6790615439565b60405180910390fd5b613b7a6000613fcd565b6000613b84610f8c565b90506000633b9aca008883613b999190614985565b613ba39190614c2a565b905060006040518061014001604052808a81526020018381526020014281526020016201518089613bd49190614985565b42613bdf9190614ebf565b81526020016201518088613bf39190614985565b42613bfe9190614ebf565b81526020018781526020018881526020018c81526020018b8152602001868152509050600060405180608001604052808a81526020017f000000000000000000000000000000000000000000000000000000000000000073ffffffffffffffffffffffffffffffffffffffff1681526020017f000000000000000000000000000000000000000000000000000000000000000073ffffffffffffffffffffffffffffffffffffffff1681526020013373ffffffffffffffffffffffffffffffffffffffff1681525090507f000000000000000000000000000000000000000000000000000000000000000073ffffffffffffffffffffffffffffffffffffffff1663455ceace308e85856040518563ffffffff1660e01b8152600401613d279493929190615616565b6020604051808303816000875af1158015613d46573d6000803e3d6000fd5b505050506040513d601f19601f82011682018060405250810190613d6a919061506c565b9450600185908060018154018082558091505060019003906000526020600020016000909190919091505560016009600087815260200190815260200160002060006101000a81548160ff0219169083151502179055507f000000000000000000000000000000000000000000000000000000000000000073ffffffffffffffffffffffffffffffffffffffff1663b54cb16560046040518263ffffffff1660e01b8152600401613e1b9190614260565b600060405180830381600087803b158015613e3557600080fd5b505af1158015613e49573d6000803e3d6000fd5b505050507f000000000000000000000000000000000000000000000000000000000000000073ffffffffffffffffffffffffffffffffffffffff1663bea75cf47f000000000000000000000000000000000000000000000000000000000000000060046040518363ffffffff1660e01b8152600401613ec9929190614bd2565b600060405180830381600087803b158015613ee357600080fd5b505af1158015613ef7573d6000803e3d6000fd5b50505050847f3a10e10c16b4416f991fa4c931bcd0520986a7357f6ba95c4d92f806a4c1ebf38d8c868a620151808e613f309190614985565b42613f3b9190614ebf565b604051613f4c959493929190615664565b60405180910390a250505050979650505050505050565b60007f01ffc9a7000000000000000000000000000000000000000000000000000000007bffffffffffffffffffffffffffffffffffffffffffffffffffffffff1916827bffffffffffffffffffffffffffffffffffffffffffffffffffffffff1916149050919050565b6001816000016000828254019250508190555050565b6000604051905090565b600080fd5b600080fd5b60007fffffffff0000000000000000000000000000000000000000000000000000000082169050919050565b61402c81613ff7565b811461403757600080fd5b50565b60008135905061404981614023565b92915050565b60006020828403121561406557614064613fed565b5b60006140738482850161403a565b91505092915050565b60008115159050919050565b6140918161407c565b82525050565b60006020820190506140ac6000830184614088565b92915050565b6000819050919050565b6140c5816140b2565b81146140d057600080fd5b50565b6000813590506140e2816140bc565b92915050565b6000602082840312156140fe576140fd613fed565b5b600061410c848285016140d3565b91505092915050565b600073ffffffffffffffffffffffffffffffffffffffff82169050919050565b600061414082614115565b9050919050565b61415081614135565b82525050565b600060208201905061416b6000830184614147565b92915050565b600081519050919050565b600082825260208201905092915050565b6000819050602082019050919050565b6141a6816140b2565b82525050565b60006141b8838361419d565b60208301905092915050565b6000602082019050919050565b60006141dc82614171565b6141e6818561417c565b93506141f18361418d565b8060005b8381101561422257815161420988826141ac565b9750614214836141c4565b9250506001810190506141f5565b5085935050505092915050565b6000602082019050818103600083015261424981846141d1565b905092915050565b61425a816140b2565b82525050565b60006020820190506142756000830184614251565b92915050565b6000806040838503121561429257614291613fed565b5b60006142a0858286016140d3565b92505060206142b1858286016140d3565b9150509250929050565b6000819050919050565b6142ce816142bb565b82525050565b60006020820190506142e960008301846142c5565b92915050565b6142f881614135565b811461430357600080fd5b50565b600081359050614315816142ef565b92915050565b600080fd5b6000601f19601f8301169050919050565b7f4e487b7100000000000000000000000000000000000000000000000000000000600052604160045260246000fd5b61436982614320565b810181811067ffffffffffffffff8211171561438857614387614331565b5b80604052505050565b600061439b613fe3565b90506143a78282614360565b919050565b600067ffffffffffffffff8211156143c7576143c6614331565b5b602082029050602081019050919050565b600080fd5b60006143f06143eb846143ac565b614391565b90508083825260208201905060208402830185811115614413576144126143d8565b5b835b8181101561443c578061442888826140d3565b845260208401935050602081019050614415565b5050509392505050565b600082601f83011261445b5761445a61431b565b5b813561446b8482602086016143dd565b91505092915050565b600080fd5b600067ffffffffffffffff82111561449457614493614331565b5b61449d82614320565b9050602081019050919050565b82818337600083830152505050565b60006144cc6144c784614479565b614391565b9050828152602081018484840111156144e8576144e7614474565b5b6144f38482856144aa565b509392505050565b600082601f8301126145105761450f61431b565b5b81356145208482602086016144b9565b91505092915050565b600080600080600060a0868803121561454557614544613fed565b5b600061455388828901614306565b955050602061456488828901614306565b945050604086013567ffffffffffffffff81111561458557614584613ff2565b5b61459188828901614446565b935050606086013567ffffffffffffffff8111156145b2576145b1613ff2565b5b6145be88828901614446565b925050608086013567ffffffffffffffff8111156145df576145de613ff2565b5b6145eb888289016144fb565b9150509295509295909350565b61460181613ff7565b82525050565b600060208201905061461c60008301846145f8565b92915050565b600080600080600060a0868803121561463e5761463d613fed565b5b600061464c88828901614306565b955050602061465d88828901614306565b945050604061466e888289016140d3565b935050606061467f888289016140d3565b925050608086013567ffffffffffffffff8111156146a05761469f613ff2565b5b6146ac888289016144fb565b9150509295509295909350565b600067ffffffffffffffff8211156146d4576146d3614331565b5b6146dd82614320565b9050602081019050919050565b60006146fd6146f8846146b9565b614391565b90508281526020810184848401111561471957614718614474565b5b6147248482856144aa565b509392505050565b600082601f8301126147415761474061431b565b5b81356147518482602086016146ea565b91505092915050565b600080600080600080600060e0888a03121561477957614778613fed565b5b60006147878a828b016140d3565b97505060206147988a828b016140d3565b96505060406147a98a828b016140d3565b955050606088013567ffffffffffffffff8111156147ca576147c9613ff2565b5b6147d68a828b0161472c565b94505060806147e78a828b016140d3565b93505060a06147f88a828b016140d3565b92505060c06148098a828b016140d3565b91505092959891949750929550565b600080fd5b60008151905061482c816140bc565b92915050565b6000610140828403121561484957614848614818565b5b614854610140614391565b905060006148648482850161481d565b60008301525060206148788482850161481d565b602083015250604061488c8482850161481d565b60408301525060606148a08482850161481d565b60608301525060806148b48482850161481d565b60808301525060a06148c88482850161481d565b60a08301525060c06148dc8482850161481d565b60c08301525060e06148f08482850161481d565b60e0830152506101006149058482850161481d565b6101008301525061012061491b8482850161481d565b6101208301525092915050565b6000610140828403121561493f5761493e613fed565b5b600061494d84828501614832565b91505092915050565b7f4e487b7100000000000000000000000000000000000000000000000000000000600052601160045260246000fd5b6000614990826140b2565b915061499b836140b2565b92508282026149a9816140b2565b915082820484148315176149c0576149bf614956565b5b5092915050565b6149d08161407c565b81146149db57600080fd5b50565b6000815190506149ed816149c7565b92915050565b600060208284031215614a0957614a08613fed565b5b6000614a17848285016149de565b91505092915050565b600082825260208201905092915050565b7f4e544f0000000000000000000000000000000000000000000000000000000000600082015250565b6000614a67600383614a20565b9150614a7282614a31565b602082019050919050565b60006020820190508181036000830152614a9681614a5a565b9050919050565b7f574e410000000000000000000000000000000000000000000000000000000000600082015250565b6000614ad3600383614a20565b9150614ade82614a9d565b602082019050919050565b60006020820190508181036000830152614b0281614ac6565b9050919050565b7f5741450000000000000000000000000000000000000000000000000000000000600082015250565b6000614b3f600383614a20565b9150614b4a82614b09565b602082019050919050565b60006020820190508181036000830152614b6e81614b32565b9050919050565b6000614b80826140b2565b9150614b8b836140b2565b9250828203905081811115614ba357614ba2614956565b5b92915050565b6000604082019050614bbe6000830185614251565b614bcb6020830184614147565b9392505050565b6000604082019050614be76000830185614147565b614bf46020830184614251565b9392505050565b7f4e487b7100000000000000000000000000000000000000000000000000000000600052601260045260246000fd5b6000614c35826140b2565b9150614c40836140b2565b925082614c5057614c4f614bfb565b5b828204905092915050565b600069ffffffffffffffffffff82169050919050565b614c7a81614c5b565b8114614c8557600080fd5b50565b600081519050614c9781614c71565b92915050565b614ca6816142bb565b8114614cb157600080fd5b50565b600081519050614cc381614c9d565b92915050565b600080600080600060a08688031215614ce557614ce4613fed565b5b6000614cf388828901614c88565b9550506020614d0488828901614cb4565b9450506040614d158882890161481d565b9350506060614d268882890161481d565b9250506080614d3788828901614c88565b9150509295509295909350565b7f504d444e41000000000000000000000000000000000000000000000000000000600082015250565b6000614d7a600583614a20565b9150614d8582614d44565b602082019050919050565b60006020820190508181036000830152614da981614d6d565b9050919050565b6000606082019050614dc56000830186614251565b614dd26020830185614251565b614ddf6040830184614251565b949350505050565b7f4942000000000000000000000000000000000000000000000000000000000000600082015250565b6000614e1d600283614a20565b9150614e2882614de7565b602082019050919050565b60006020820190508181036000830152614e4c81614e10565b9050919050565b7f4951000000000000000000000000000000000000000000000000000000000000600082015250565b6000614e89600283614a20565b9150614e9482614e53565b602082019050919050565b60006020820190508181036000830152614eb881614e7c565b9050919050565b6000614eca826140b2565b9150614ed5836140b2565b9250828201905080821115614eed57614eec614956565b5b92915050565b6000606082019050614f086000830186614251565b614f156020830185614147565b614f226040830184614147565b949350505050565b6000608082019050614f3f6000830187614251565b614f4c6020830186614147565b614f596040830185614147565b614f666060830184614251565b95945050505050565b6000606082019050614f846000830186614251565b614f916020830185614147565b614f9e6040830184614251565b949350505050565b600082825260208201905092915050565b50565b6000614fc7600083614fa6565b9150614fd282614fb7565b600082019050919050565b600060a082019050614ff26000830187614147565b614fff6020830186614147565b61500c6040830185614251565b6150196060830184614251565b818103608083015261502a81614fba565b905095945050505050565b600060608201905061504a6000830186614147565b6150576020830185614147565b6150646040830184614251565b949350505050565b60006020828403121561508257615081613fed565b5b60006150908482850161481d565b91505092915050565b7f524e410000000000000000000000000000000000000000000000000000000000600082015250565b60006150cf600383614a20565b91506150da82615099565b602082019050919050565b600060208201905081810360008301526150fe816150c2565b9050919050565b600060608201905061511a6000830186614147565b6151276020830185614251565b6151346040830184614251565b949350505050565b7f4d41444e41000000000000000000000000000000000000000000000000000000600082015250565b6000615172600583614a20565b915061517d8261513c565b602082019050919050565b600060208201905081810360008301526151a181615165565b9050919050565b7f4d41434e41000000000000000000000000000000000000000000000000000000600082015250565b60006151de600583614a20565b91506151e9826151a8565b602082019050919050565b6000602082019050818103600083015261520d816151d1565b9050919050565b60006040820190506152296000830185614251565b6152366020830184614251565b9392505050565b7f444e410000000000000000000000000000000000000000000000000000000000600082015250565b6000615273600383614a20565b915061527e8261523d565b602082019050919050565b600060208201905081810360008301526152a281615266565b9050919050565b7f5746450000000000000000000000000000000000000000000000000000000000600082015250565b60006152df600383614a20565b91506152ea826152a9565b602082019050919050565b6000602082019050818103600083015261530e816152d2565b9050919050565b7f4d50514754425100000000000000000000000000000000000000000000000000600082015250565b600061534b600783614a20565b915061535682615315565b602082019050919050565b6000602082019050818103600083015261537a8161533e565b9050919050565b7f4442364d00000000000000000000000000000000000000000000000000000000600082015250565b60006153b7600483614a20565b91506153c282615381565b602082019050919050565b600060208201905081810360008301526153e6816153aa565b9050919050565b7f4144413744000000000000000000000000000000000000000000000000000000600082015250565b6000615423600583614a20565b915061542e826153ed565b602082019050919050565b6000602082019050818103600083015261545281615416565b9050919050565b61014082016000820151615470600085018261419d565b506020820151615483602085018261419d565b506040820151615496604085018261419d565b5060608201516154a9606085018261419d565b5060808201516154bc608085018261419d565b5060a08201516154cf60a085018261419d565b5060c08201516154e260c085018261419d565b5060e08201516154f560e085018261419d565b5061010082015161550a61010085018261419d565b5061012082015161551f61012085018261419d565b50505050565b600081519050919050565b600082825260208201905092915050565b60005b8381101561555f578082015181840152602081019050615544565b60008484015250505050565b600061557682615525565b6155808185615530565b9350615590818560208601615541565b61559981614320565b840191505092915050565b6155ad81614135565b82525050565b600060808301600083015184820360008601526155d0828261556b565b91505060208301516155e560208601826155a4565b5060408301516155f860408601826155a4565b50606083015161560b60608601826155a4565b508091505092915050565b60006101a08201905061562c6000830187614147565b6156396020830186614251565b6156466040830185615459565b81810361018083015261565981846155b3565b905095945050505050565b600060a0820190506156796000830188614251565b6156866020830187614251565b6156936040830186614251565b6156a06060830185614251565b6156ad6080830184614251565b969550505050505056fea2646970667358221220c04f30807a86d864e4c0920966e1d0da297a769f41e949720fa4456a3f1acdba64736f6c63430008110033",
  "linkReferences": {},
  "deployedLinkReferences": {}
}