{
	"contracts/factories/BondFactory.sol": {
		"BondFactory": {
			"abi": [
				{
					"inputs": [
						{
							"internalType": "address",
							"name": "token",
							"type": "address"
						},
						{
							"internalType": "address",
							"name": "bondToken",
							"type": "address"
						},
						{
							"internalType": "address",
							"name": "db",
							"type": "address"
						},
						{
							"internalType": "address",
							"name": "deployer",
							"type": "address"
						}
					],
					"stateMutability": "nonpayable",
					"type": "constructor"
				},
				{
					"anonymous": false,
					"inputs": [
						{
							"indexed": true,
							"internalType": "uint256",
							"name": "id",
							"type": "uint256"
						},
						{
							"indexed": false,
							"internalType": "uint256",
							"name": "totalDebt",
							"type": "uint256"
						},
						{
							"indexed": false,
							"internalType": "uint256",
							"name": "paidDebt",
							"type": "uint256"
						}
					],
					"name": "Completed",
					"type": "event"
				},
				{
					"anonymous": false,
					"inputs": [
						{
							"indexed": true,
							"internalType": "uint256",
							"name": "id",
							"type": "uint256"
						},
						{
							"indexed": false,
							"internalType": "uint256",
							"name": "totalDebt",
							"type": "uint256"
						},
						{
							"indexed": false,
							"internalType": "uint256",
							"name": "paidDebt",
							"type": "uint256"
						}
					],
					"name": "Defaulted",
					"type": "event"
				},
				{
					"anonymous": false,
					"inputs": [
						{
							"indexed": true,
							"internalType": "uint256",
							"name": "id",
							"type": "uint256"
						},
						{
							"indexed": false,
							"internalType": "uint256",
							"name": "bondQuantity",
							"type": "uint256"
						},
						{
							"indexed": false,
							"internalType": "uint256",
							"name": "tokenAmountPerBond",
							"type": "uint256"
						},
						{
							"indexed": false,
							"internalType": "uint256",
							"name": "couponRate",
							"type": "uint256"
						},
						{
							"indexed": false,
							"internalType": "uint256",
							"name": "maturityDate",
							"type": "uint256"
						}
					],
					"name": "Issued",
					"type": "event"
				},
				{
					"anonymous": false,
					"inputs": [
						{
							"indexed": true,
							"internalType": "uint256",
							"name": "id",
							"type": "uint256"
						},
						{
							"indexed": false,
							"internalType": "address",
							"name": "buyer",
							"type": "address"
						},
						{
							"indexed": false,
							"internalType": "uint256",
							"name": "bondQuantity",
							"type": "uint256"
						},
						{
							"indexed": false,
							"internalType": "uint256",
							"name": "state",
							"type": "uint256"
						}
					],
					"name": "Redeemed",
					"type": "event"
				},
				{
					"inputs": [],
					"name": "baseToken",
					"outputs": [
						{
							"internalType": "address",
							"name": "",
							"type": "address"
						}
					],
					"stateMutability": "view",
					"type": "function"
				},
				{
					"inputs": [],
					"name": "bonds",
					"outputs": [
						{
							"internalType": "uint256[]",
							"name": "",
							"type": "uint256[]"
						}
					],
					"stateMutability": "view",
					"type": "function"
				},
				{
					"inputs": [
						{
							"internalType": "uint256",
							"name": "id",
							"type": "uint256"
						},
						{
							"internalType": "uint256",
							"name": "tokenAmount",
							"type": "uint256"
						}
					],
					"name": "deposit",
					"outputs": [],
					"stateMutability": "nonpayable",
					"type": "function"
				},
				{
					"inputs": [
						{
							"internalType": "uint256",
							"name": "id",
							"type": "uint256"
						}
					],
					"name": "designatedTokenPool",
					"outputs": [
						{
							"internalType": "uint256",
							"name": "",
							"type": "uint256"
						}
					],
					"stateMutability": "view",
					"type": "function"
				},
				{
					"inputs": [
						{
							"internalType": "uint256",
							"name": "id",
							"type": "uint256"
						}
					],
					"name": "isCanceled",
					"outputs": [
						{
							"internalType": "bool",
							"name": "",
							"type": "bool"
						}
					],
					"stateMutability": "view",
					"type": "function"
				},
				{
					"inputs": [
						{
							"internalType": "uint256",
							"name": "id",
							"type": "uint256"
						}
					],
					"name": "isCompleted",
					"outputs": [
						{
							"internalType": "bool",
							"name": "",
							"type": "bool"
						}
					],
					"stateMutability": "view",
					"type": "function"
				},
				{
					"inputs": [
						{
							"internalType": "uint256",
							"name": "id",
							"type": "uint256"
						}
					],
					"name": "isCompletedInTheory",
					"outputs": [
						{
							"internalType": "bool",
							"name": "",
							"type": "bool"
						}
					],
					"stateMutability": "view",
					"type": "function"
				},
				{
					"inputs": [
						{
							"internalType": "uint256",
							"name": "id",
							"type": "uint256"
						}
					],
					"name": "isDefaulted",
					"outputs": [
						{
							"internalType": "bool",
							"name": "",
							"type": "bool"
						}
					],
					"stateMutability": "view",
					"type": "function"
				},
				{
					"inputs": [
						{
							"internalType": "uint256",
							"name": "id",
							"type": "uint256"
						}
					],
					"name": "isDefaultedInTheory",
					"outputs": [
						{
							"internalType": "bool",
							"name": "",
							"type": "bool"
						}
					],
					"stateMutability": "view",
					"type": "function"
				},
				{
					"inputs": [
						{
							"internalType": "uint256",
							"name": "id",
							"type": "uint256"
						}
					],
					"name": "isFulfilled",
					"outputs": [
						{
							"internalType": "bool",
							"name": "",
							"type": "bool"
						}
					],
					"stateMutability": "view",
					"type": "function"
				},
				{
					"inputs": [
						{
							"internalType": "uint256",
							"name": "id",
							"type": "uint256"
						}
					],
					"name": "isFullyRedeemed",
					"outputs": [
						{
							"internalType": "bool",
							"name": "",
							"type": "bool"
						}
					],
					"stateMutability": "view",
					"type": "function"
				},
				{
					"inputs": [
						{
							"internalType": "uint256",
							"name": "id",
							"type": "uint256"
						}
					],
					"name": "isIssuedByFactory",
					"outputs": [
						{
							"internalType": "bool",
							"name": "",
							"type": "bool"
						}
					],
					"stateMutability": "view",
					"type": "function"
				},
				{
					"inputs": [
						{
							"internalType": "uint256",
							"name": "bondQuantity",
							"type": "uint256"
						},
						{
							"internalType": "uint256",
							"name": "minPurchasedQuantity",
							"type": "uint256"
						},
						{
							"internalType": "uint256",
							"name": "tokenAmountPerBond",
							"type": "uint256"
						},
						{
							"internalType": "string",
							"name": "ticker",
							"type": "string"
						},
						{
							"internalType": "uint256",
							"name": "durationInDays",
							"type": "uint256"
						},
						{
							"internalType": "uint256",
							"name": "activeDurationInDays",
							"type": "uint256"
						},
						{
							"internalType": "uint256",
							"name": "rate",
							"type": "uint256"
						}
					],
					"name": "issue",
					"outputs": [
						{
							"internalType": "uint256",
							"name": "id",
							"type": "uint256"
						}
					],
					"stateMutability": "nonpayable",
					"type": "function"
				},
				{
					"inputs": [
						{
							"internalType": "uint256",
							"name": "id",
							"type": "uint256"
						}
					],
					"name": "markAsCompleted",
					"outputs": [],
					"stateMutability": "nonpayable",
					"type": "function"
				},
				{
					"inputs": [
						{
							"internalType": "uint256",
							"name": "id",
							"type": "uint256"
						}
					],
					"name": "markAsDefaulted",
					"outputs": [],
					"stateMutability": "nonpayable",
					"type": "function"
				},
				{
					"inputs": [
						{
							"internalType": "address",
							"name": "",
							"type": "address"
						},
						{
							"internalType": "address",
							"name": "",
							"type": "address"
						},
						{
							"internalType": "uint256[]",
							"name": "",
							"type": "uint256[]"
						},
						{
							"internalType": "uint256[]",
							"name": "",
							"type": "uint256[]"
						},
						{
							"internalType": "bytes",
							"name": "",
							"type": "bytes"
						}
					],
					"name": "onERC1155BatchReceived",
					"outputs": [
						{
							"internalType": "bytes4",
							"name": "",
							"type": "bytes4"
						}
					],
					"stateMutability": "nonpayable",
					"type": "function"
				},
				{
					"inputs": [
						{
							"internalType": "address",
							"name": "",
							"type": "address"
						},
						{
							"internalType": "address",
							"name": "",
							"type": "address"
						},
						{
							"internalType": "uint256",
							"name": "",
							"type": "uint256"
						},
						{
							"internalType": "uint256",
							"name": "",
							"type": "uint256"
						},
						{
							"internalType": "bytes",
							"name": "",
							"type": "bytes"
						}
					],
					"name": "onERC1155Received",
					"outputs": [
						{
							"internalType": "bytes4",
							"name": "",
							"type": "bytes4"
						}
					],
					"stateMutability": "nonpayable",
					"type": "function"
				},
				{
					"inputs": [],
					"name": "owner",
					"outputs": [
						{
							"internalType": "address",
							"name": "",
							"type": "address"
						}
					],
					"stateMutability": "view",
					"type": "function"
				},
				{
					"inputs": [
						{
							"internalType": "uint256",
							"name": "id",
							"type": "uint256"
						}
					],
					"name": "poolAmount",
					"outputs": [
						{
							"internalType": "uint256",
							"name": "",
							"type": "uint256"
						}
					],
					"stateMutability": "view",
					"type": "function"
				},
				{
					"inputs": [
						{
							"internalType": "uint256",
							"name": "id",
							"type": "uint256"
						}
					],
					"name": "preMaturityDefault",
					"outputs": [],
					"stateMutability": "nonpayable",
					"type": "function"
				},
				{
					"inputs": [
						{
							"internalType": "uint256",
							"name": "id",
							"type": "uint256"
						}
					],
					"name": "principal",
					"outputs": [
						{
							"internalType": "uint256",
							"name": "",
							"type": "uint256"
						}
					],
					"stateMutability": "view",
					"type": "function"
				},
				{
					"inputs": [
						{
							"internalType": "uint256",
							"name": "id",
							"type": "uint256"
						}
					],
					"name": "principalWithInterest",
					"outputs": [
						{
							"internalType": "uint256",
							"name": "",
							"type": "uint256"
						}
					],
					"stateMutability": "view",
					"type": "function"
				},
				{
					"inputs": [
						{
							"internalType": "uint256",
							"name": "id",
							"type": "uint256"
						},
						{
							"internalType": "uint256",
							"name": "bondQuantity",
							"type": "uint256"
						}
					],
					"name": "purchase",
					"outputs": [],
					"stateMutability": "nonpayable",
					"type": "function"
				},
				{
					"inputs": [
						{
							"internalType": "uint256",
							"name": "id",
							"type": "uint256"
						},
						{
							"internalType": "uint256",
							"name": "bondQuantity",
							"type": "uint256"
						}
					],
					"name": "redeem",
					"outputs": [],
					"stateMutability": "nonpayable",
					"type": "function"
				},
				{
					"inputs": [
						{
							"internalType": "uint256",
							"name": "id",
							"type": "uint256"
						}
					],
					"name": "remainingQuantity",
					"outputs": [
						{
							"internalType": "uint256",
							"name": "",
							"type": "uint256"
						}
					],
					"stateMutability": "view",
					"type": "function"
				},
				{
					"inputs": [
						{
							"internalType": "bytes4",
							"name": "interfaceId",
							"type": "bytes4"
						}
					],
					"name": "supportsInterface",
					"outputs": [
						{
							"internalType": "bool",
							"name": "",
							"type": "bool"
						}
					],
					"stateMutability": "view",
					"type": "function"
				},
				{
					"inputs": [],
					"name": "tvl",
					"outputs": [
						{
							"internalType": "uint256",
							"name": "",
							"type": "uint256"
						}
					],
					"stateMutability": "view",
					"type": "function"
				},
				{
					"inputs": [
						{
							"internalType": "uint256",
							"name": "id",
							"type": "uint256"
						},
						{
							"internalType": "uint256",
							"name": "tokenAmount",
							"type": "uint256"
						}
					],
					"name": "withdraw",
					"outputs": [],
					"stateMutability": "nonpayable",
					"type": "function"
				},
				{
					"inputs": [
						{
							"internalType": "uint256",
							"name": "id",
							"type": "uint256"
						}
					],
					"name": "withdrawExcess",
					"outputs": [],
					"stateMutability": "nonpayable",
					"type": "function"
				}
			],
			"devdoc": {
				"kind": "dev",
				"methods": {
					"supportsInterface(bytes4)": {
						"details": "See {IERC165-supportsInterface}."
					}
				},
				"version": 1
			},
			"evm": {
				"assembly": "    /* \"contracts/factories/BondFactory.sol\":312:11987  contract BondFactory is ERC1155Holder {... */\n  mstore(0x40, 0x0100)\n    /* \"contracts/factories/BondFactory.sol\":1611:1865  constructor(... */\n  callvalue\n  dup1\n  iszero\n  tag_1\n  jumpi\n  0x00\n  dup1\n  revert\ntag_1:\n  pop\n  mload(0x40)\n  sub(codesize, bytecodeSize)\n  dup1\n  bytecodeSize\n  dup4\n  codecopy\n  dup2\n  add\n  0x40\n  dup2\n  swap1\n  mstore\n  tag_2\n  swap2\n  tag_3\n  jump\t// in\ntag_2:\n  sub(shl(0xa0, 0x01), 0x01)\n    /* \"contracts/factories/BondFactory.sol\":1735:1752  _owner = deployer */\n  swap1\n  dup2\n  and\n  0x80\n  mstore\n    /* \"contracts/factories/BondFactory.sol\":1762:1788  _baseToken = IERC20(token) */\n  swap3\n  dup4\n  and\n  0xa0\n  mstore\n    /* \"contracts/factories/BondFactory.sol\":1798:1819  _bondDB = IBondDB(db) */\n  dup3\n  and\n  0xc0\n  mstore\n    /* \"contracts/factories/BondFactory.sol\":1829:1858  _bondToken = IBond(bondToken) */\n  and\n  0xe0\n  mstore\n    /* \"contracts/factories/BondFactory.sol\":312:11987  contract BondFactory is ERC1155Holder {... */\n  jump(tag_8)\n    /* \"#utility.yul\":14:191   */\ntag_7:\n    /* \"#utility.yul\":93:106   */\n  dup1\n  mload\n  sub(shl(0xa0, 0x01), 0x01)\n    /* \"#utility.yul\":135:166   */\n  dup2\n  and\n    /* \"#utility.yul\":125:167   */\n  dup2\n  eq\n    /* \"#utility.yul\":115:185   */\n  tag_10\n  jumpi\n    /* \"#utility.yul\":181:182   */\n  0x00\n    /* \"#utility.yul\":178:179   */\n  dup1\n    /* \"#utility.yul\":171:183   */\n  revert\n    /* \"#utility.yul\":115:185   */\ntag_10:\n    /* \"#utility.yul\":14:191   */\n  swap2\n  swap1\n  pop\n  jump\t// out\n    /* \"#utility.yul\":196:660   */\ntag_3:\n    /* \"#utility.yul\":293:299   */\n  0x00\n    /* \"#utility.yul\":301:307   */\n  dup1\n    /* \"#utility.yul\":309:315   */\n  0x00\n    /* \"#utility.yul\":317:323   */\n  dup1\n    /* \"#utility.yul\":370:373   */\n  0x80\n    /* \"#utility.yul\":358:367   */\n  dup6\n    /* \"#utility.yul\":349:356   */\n  dup8\n    /* \"#utility.yul\":345:368   */\n  sub\n    /* \"#utility.yul\":341:374   */\n  slt\n    /* \"#utility.yul\":338:391   */\n  iszero\n  tag_12\n  jumpi\n    /* \"#utility.yul\":387:388   */\n  0x00\n    /* \"#utility.yul\":384:385   */\n  dup1\n    /* \"#utility.yul\":377:389   */\n  revert\n    /* \"#utility.yul\":338:391   */\ntag_12:\n    /* \"#utility.yul\":410:450   */\n  tag_13\n    /* \"#utility.yul\":440:449   */\n  dup6\n    /* \"#utility.yul\":410:450   */\n  tag_7\n  jump\t// in\ntag_13:\n    /* \"#utility.yul\":400:450   */\n  swap4\n  pop\n    /* \"#utility.yul\":469:518   */\n  tag_14\n    /* \"#utility.yul\":514:516   */\n  0x20\n    /* \"#utility.yul\":503:512   */\n  dup7\n    /* \"#utility.yul\":499:517   */\n  add\n    /* \"#utility.yul\":469:518   */\n  tag_7\n  jump\t// in\ntag_14:\n    /* \"#utility.yul\":459:518   */\n  swap3\n  pop\n    /* \"#utility.yul\":537:586   */\n  tag_15\n    /* \"#utility.yul\":582:584   */\n  0x40\n    /* \"#utility.yul\":571:580   */\n  dup7\n    /* \"#utility.yul\":567:585   */\n  add\n    /* \"#utility.yul\":537:586   */\n  tag_7\n  jump\t// in\ntag_15:\n    /* \"#utility.yul\":527:586   */\n  swap2\n  pop\n    /* \"#utility.yul\":605:654   */\n  tag_16\n    /* \"#utility.yul\":650:652   */\n  0x60\n    /* \"#utility.yul\":639:648   */\n  dup7\n    /* \"#utility.yul\":635:653   */\n  add\n    /* \"#utility.yul\":605:654   */\n  tag_7\n  jump\t// in\ntag_16:\n    /* \"#utility.yul\":595:654   */\n  swap1\n  pop\n    /* \"#utility.yul\":196:660   */\n  swap3\n  swap6\n  swap2\n  swap5\n  pop\n  swap3\n  pop\n  jump\t// out\ntag_8:\n    /* \"contracts/factories/BondFactory.sol\":312:11987  contract BondFactory is ERC1155Holder {... */\n  mload(0x80)\n  mload(0xa0)\n  mload(0xc0)\n  mload(0xe0)\n  codecopy(0x00, dataOffset(sub_0), dataSize(sub_0))\n  0x00\n  assignImmutable(\"0xc322ff1198f1018f90524fe27b385729b363ae518172debfa915634c95ec9ba4\")\n  0x00\n  assignImmutable(\"0x2757844bcba802ce24af88f7c8fd3438a9a94d6eea4d1e58913fbc1440605b8d\")\n  0x00\n  assignImmutable(\"0xf9bbcd66573bf3c1f4cc184d2152e0dd1704bf0095e444b842e9e57042cbafba\")\n  0x00\n  assignImmutable(\"0x22a2e3ce6024cf7fa9f23bb9996411ef645dedafa701962edde7c1d4874e9131\")\n  return(0x00, dataSize(sub_0))\nstop\n\nsub_0: assembly {\n        /* \"contracts/factories/BondFactory.sol\":312:11987  contract BondFactory is ERC1155Holder {... */\n      mstore(0x40, 0x80)\n      callvalue\n      dup1\n      iszero\n      tag_1\n      jumpi\n      0x00\n      dup1\n      revert\n    tag_1:\n      pop\n      jumpi(tag_2, lt(calldatasize, 0x04))\n      shr(0xe0, calldataload(0x00))\n      dup1\n      0x7a41984b\n      gt\n      tag_32\n      jumpi\n      dup1\n      0xc0a6026c\n      gt\n      tag_33\n      jumpi\n      dup1\n      0xe755ddd7\n      gt\n      tag_34\n      jumpi\n      dup1\n      0xe755ddd7\n      eq\n      tag_28\n      jumpi\n      dup1\n      0xf0d8100a\n      eq\n      tag_4\n      jumpi\n      dup1\n      0xf23a6e61\n      eq\n      tag_30\n      jumpi\n      dup1\n      0xfcbc669a\n      eq\n      tag_31\n      jumpi\n      0x00\n      dup1\n      revert\n    tag_34:\n      dup1\n      0xc0a6026c\n      eq\n      tag_24\n      jumpi\n      dup1\n      0xc55dae63\n      eq\n      tag_25\n      jumpi\n      dup1\n      0xe2bbb158\n      eq\n      tag_26\n      jumpi\n      dup1\n      0xe5328e06\n      eq\n      tag_27\n      jumpi\n      0x00\n      dup1\n      revert\n    tag_33:\n      dup1\n      0x932a8de0\n      gt\n      tag_35\n      jumpi\n      dup1\n      0x932a8de0\n      eq\n      tag_20\n      jumpi\n      dup1\n      0xa8743022\n      eq\n      tag_21\n      jumpi\n      dup1\n      0xb1a1a165\n      eq\n      tag_22\n      jumpi\n      dup1\n      0xbc197c81\n      eq\n      tag_23\n      jumpi\n      0x00\n      dup1\n      revert\n    tag_35:\n      dup1\n      0x7a41984b\n      eq\n      tag_17\n      jumpi\n      dup1\n      0x7cbc2373\n      eq\n      tag_18\n      jumpi\n      dup1\n      0x8da5cb5b\n      eq\n      tag_19\n      jumpi\n      0x00\n      dup1\n      revert\n    tag_32:\n      dup1\n      0x39e3af9b\n      gt\n      tag_36\n      jumpi\n      dup1\n      0x6567dc4d\n      gt\n      tag_37\n      jumpi\n      dup1\n      0x6567dc4d\n      eq\n      tag_13\n      jumpi\n      dup1\n      0x6ff80d93\n      eq\n      tag_14\n      jumpi\n      dup1\n      0x70876c98\n      eq\n      tag_15\n      jumpi\n      dup1\n      0x77e2a08b\n      eq\n      tag_16\n      jumpi\n      0x00\n      dup1\n      revert\n    tag_37:\n      dup1\n      0x39e3af9b\n      eq\n      tag_10\n      jumpi\n      dup1\n      0x441a3e70\n      eq\n      tag_11\n      jumpi\n      dup1\n      0x549493bb\n      eq\n      tag_12\n      jumpi\n      0x00\n      dup1\n      revert\n    tag_36:\n      dup1\n      0x135c404e\n      gt\n      tag_38\n      jumpi\n      dup1\n      0x135c404e\n      eq\n      tag_6\n      jumpi\n      dup1\n      0x14f29493\n      eq\n      tag_7\n      jumpi\n      dup1\n      0x2f3ad61f\n      eq\n      tag_8\n      jumpi\n      dup1\n      0x3097afb8\n      eq\n      tag_9\n      jumpi\n      0x00\n      dup1\n      revert\n    tag_38:\n      dup1\n      0x01ffc9a7\n      eq\n      tag_3\n      jumpi\n      dup1\n      0x02159497\n      eq\n      tag_4\n      jumpi\n      dup1\n      0x09149020\n      eq\n      tag_5\n      jumpi\n    tag_2:\n      0x00\n      dup1\n      revert\n        /* \"@openzeppelin/contracts/token/ERC1155/utils/ERC1155Receiver.sol\":387:608  function supportsInterface(bytes4 interfaceId) public view virtual override(ERC165, IERC165) returns (bool) {... */\n    tag_3:\n      tag_39\n      tag_40\n      calldatasize\n      0x04\n      tag_41\n      jump\t// in\n    tag_40:\n      tag_42\n      jump\t// in\n    tag_39:\n      mload(0x40)\n        /* \"#utility.yul\":470:484   */\n      swap1\n      iszero\n        /* \"#utility.yul\":463:485   */\n      iszero\n        /* \"#utility.yul\":445:486   */\n      dup2\n      mstore\n        /* \"#utility.yul\":433:435   */\n      0x20\n        /* \"#utility.yul\":418:436   */\n      add\n        /* \"@openzeppelin/contracts/token/ERC1155/utils/ERC1155Receiver.sol\":387:608  function supportsInterface(bytes4 interfaceId) public view virtual override(ERC165, IERC165) returns (bool) {... */\n    tag_43:\n      mload(0x40)\n      dup1\n      swap2\n      sub\n      swap1\n      return\n        /* \"contracts/factories/BondFactory.sol\":10114:10224  function poolAmount(uint256 id) public view returns (uint256) {... */\n    tag_4:\n      tag_45\n      tag_46\n      calldatasize\n      0x04\n      tag_47\n      jump\t// in\n    tag_46:\n        /* \"contracts/factories/BondFactory.sol\":10167:10174  uint256 */\n      0x00\n        /* \"contracts/factories/BondFactory.sol\":10193:10217  _designatedTokenPool[id] */\n      swap1\n      dup2\n      mstore\n        /* \"contracts/factories/BondFactory.sol\":10193:10213  _designatedTokenPool */\n      0x04\n        /* \"contracts/factories/BondFactory.sol\":10193:10217  _designatedTokenPool[id] */\n      0x20\n      mstore\n      0x40\n      swap1\n      keccak256\n      sload\n      swap1\n        /* \"contracts/factories/BondFactory.sol\":10114:10224  function poolAmount(uint256 id) public view returns (uint256) {... */\n      jump\n    tag_45:\n      mload(0x40)\n        /* \"#utility.yul\":828:853   */\n      swap1\n      dup2\n      mstore\n        /* \"#utility.yul\":816:818   */\n      0x20\n        /* \"#utility.yul\":801:819   */\n      add\n        /* \"contracts/factories/BondFactory.sol\":10114:10224  function poolAmount(uint256 id) public view returns (uint256) {... */\n      tag_43\n        /* \"#utility.yul\":682:859   */\n      jump\n        /* \"contracts/factories/BondFactory.sol\":10481:10667  function isFulfilled(uint256 id) public view returns (bool) {... */\n    tag_5:\n      tag_39\n      tag_52\n      calldatasize\n      0x04\n      tag_47\n      jump\t// in\n    tag_52:\n      tag_53\n      jump\t// in\n        /* \"contracts/factories/BondFactory.sol\":11899:11985  function bonds() public view returns (uint256[] memory) {... */\n    tag_6:\n      tag_55\n      tag_56\n      jump\t// in\n    tag_55:\n      mload(0x40)\n      tag_43\n      swap2\n      swap1\n      tag_58\n      jump\t// in\n        /* \"contracts/factories/BondFactory.sol\":9680:9864  function principal(uint256 id) public view returns (uint256) {... */\n    tag_7:\n      tag_45\n      tag_60\n      calldatasize\n      0x04\n      tag_47\n      jump\t// in\n    tag_60:\n      tag_61\n      jump\t// in\n        /* \"contracts/factories/BondFactory.sol\":11359:11467  function isDefaulted(uint256 id) public view virtual returns (bool) {... */\n    tag_8:\n      tag_39\n      tag_64\n      calldatasize\n      0x04\n      tag_47\n      jump\t// in\n    tag_64:\n        /* \"contracts/factories/BondFactory.sol\":11421:11425  bool */\n      0x00\n        /* \"contracts/factories/BondFactory.sol\":11444:11460  _isDefaulted[id] */\n      swap1\n      dup2\n      mstore\n        /* \"contracts/factories/BondFactory.sol\":11444:11456  _isDefaulted */\n      0x08\n        /* \"contracts/factories/BondFactory.sol\":11444:11460  _isDefaulted[id] */\n      0x20\n      mstore\n      0x40\n      swap1\n      keccak256\n      sload\n      0xff\n      and\n      swap1\n        /* \"contracts/factories/BondFactory.sol\":11359:11467  function isDefaulted(uint256 id) public view virtual returns (bool) {... */\n      jump\n        /* \"contracts/factories/BondFactory.sol\":10912:11130  function isCompletedInTheory(... */\n    tag_9:\n      tag_39\n      tag_68\n      calldatasize\n      0x04\n      tag_47\n      jump\t// in\n    tag_68:\n      tag_69\n      jump\t// in\n        /* \"contracts/factories/BondFactory.sol\":10673:10800  function isCanceled(uint256 id) public view returns (bool) {... */\n    tag_10:\n      tag_39\n      tag_72\n      calldatasize\n      0x04\n      tag_47\n      jump\t// in\n    tag_72:\n      tag_73\n      jump\t// in\n        /* \"contracts/factories/BondFactory.sol\":4668:5237  function withdraw(... */\n    tag_11:\n      tag_75\n      tag_76\n      calldatasize\n      0x04\n      tag_77\n      jump\t// in\n    tag_76:\n      tag_78\n      jump\t// in\n    tag_75:\n      stop\n        /* \"contracts/factories/BondFactory.sol\":10340:10475  function isFullyRedeemed(uint256 id) public view returns (bool) {... */\n    tag_12:\n      tag_39\n      tag_80\n      calldatasize\n      0x04\n      tag_47\n      jump\t// in\n    tag_80:\n        /* \"contracts/factories/BondFactory.sol\":10398:10402  bool */\n      0x00\n        /* \"contracts/factories/BondFactory.sol\":10446:10468  _purchasedQuantity[id] */\n      swap1\n      dup2\n      mstore\n        /* \"contracts/factories/BondFactory.sol\":10446:10464  _purchasedQuantity */\n      0x02\n        /* \"contracts/factories/BondFactory.sol\":10446:10468  _purchasedQuantity[id] */\n      0x20\n      swap1\n      dup2\n      mstore\n      0x40\n      dup1\n      dup4\n      keccak256\n      sload\n        /* \"contracts/factories/BondFactory.sol\":10421:10438  _redeemedQuantity */\n      0x03\n        /* \"contracts/factories/BondFactory.sol\":10421:10442  _redeemedQuantity[id] */\n      swap1\n      swap3\n      mstore\n      swap1\n      swap2\n      keccak256\n      sload\n        /* \"contracts/factories/BondFactory.sol\":10421:10468  _redeemedQuantity[id] == _purchasedQuantity[id] */\n      eq\n      swap1\n        /* \"contracts/factories/BondFactory.sol\":10340:10475  function isFullyRedeemed(uint256 id) public view returns (bool) {... */\n      jump\n        /* \"contracts/factories/BondFactory.sol\":7230:7907  function preMaturityDefault(uint256 id) external onlyOwner {... */\n    tag_13:\n      tag_75\n      tag_84\n      calldatasize\n      0x04\n      tag_47\n      jump\t// in\n    tag_84:\n      tag_85\n      jump\t// in\n        /* \"contracts/factories/BondFactory.sol\":11136:11353  function isDefaultedInTheory(... */\n    tag_14:\n      tag_39\n      tag_87\n      calldatasize\n      0x04\n      tag_47\n      jump\t// in\n    tag_87:\n      tag_88\n      jump\t// in\n        /* \"contracts/factories/BondFactory.sol\":3431:4662  function purchase(uint256 id, uint256 bondQuantity) external {... */\n    tag_15:\n      tag_75\n      tag_91\n      calldatasize\n      0x04\n      tag_77\n      jump\t// in\n    tag_91:\n      tag_92\n      jump\t// in\n        /* \"contracts/factories/BondFactory.sol\":9870:10108  function principalWithInterest(... */\n    tag_16:\n      tag_45\n      tag_94\n      calldatasize\n      0x04\n      tag_47\n      jump\t// in\n    tag_94:\n      tag_95\n      jump\t// in\n        /* \"contracts/factories/BondFactory.sol\":10806:10906  function isCompleted(uint256 id) public view returns (bool) {... */\n    tag_17:\n      tag_39\n      tag_98\n      calldatasize\n      0x04\n      tag_47\n      jump\t// in\n    tag_98:\n        /* \"contracts/factories/BondFactory.sol\":10860:10864  bool */\n      0x00\n        /* \"contracts/factories/BondFactory.sol\":10883:10899  _isCompleted[id] */\n      swap1\n      dup2\n      mstore\n        /* \"contracts/factories/BondFactory.sol\":10883:10895  _isCompleted */\n      0x09\n        /* \"contracts/factories/BondFactory.sol\":10883:10899  _isCompleted[id] */\n      0x20\n      mstore\n      0x40\n      swap1\n      keccak256\n      sload\n      0xff\n      and\n      swap1\n        /* \"contracts/factories/BondFactory.sol\":10806:10906  function isCompleted(uint256 id) public view returns (bool) {... */\n      jump\n        /* \"contracts/factories/BondFactory.sol\":5650:6822  function redeem(uint256 id, uint256 bondQuantity) external {... */\n    tag_18:\n      tag_75\n      tag_102\n      calldatasize\n      0x04\n      tag_77\n      jump\t// in\n    tag_102:\n      tag_103\n      jump\t// in\n        /* \"contracts/factories/BondFactory.sol\":11573:11650  function owner() public view returns (address) {... */\n    tag_19:\n        /* \"contracts/factories/BondFactory.sol\":11637:11643  _owner */\n      immutable(\"0x22a2e3ce6024cf7fa9f23bb9996411ef645dedafa701962edde7c1d4874e9131\")\n        /* \"contracts/factories/BondFactory.sol\":11573:11650  function owner() public view returns (address) {... */\n    tag_104:\n      mload(0x40)\n      sub(shl(0xa0, 0x01), 0x01)\n        /* \"#utility.yul\":2027:2059   */\n      swap1\n      swap2\n      and\n        /* \"#utility.yul\":2009:2060   */\n      dup2\n      mstore\n        /* \"#utility.yul\":1997:1999   */\n      0x20\n        /* \"#utility.yul\":1982:2000   */\n      add\n        /* \"contracts/factories/BondFactory.sol\":11573:11650  function owner() public view returns (address) {... */\n      tag_43\n        /* \"#utility.yul\":1863:2066   */\n      jump\n        /* \"contracts/factories/BondFactory.sol\":9486:9674  function remainingQuantity(uint256 id) public view returns (uint256) {... */\n    tag_20:\n      tag_45\n      tag_109\n      calldatasize\n      0x04\n      tag_47\n      jump\t// in\n    tag_109:\n      tag_110\n      jump\t// in\n        /* \"contracts/factories/BondFactory.sol\":7913:8772  function markAsDefaulted(uint256 id) external {... */\n    tag_21:\n      tag_75\n      tag_113\n      calldatasize\n      0x04\n      tag_47\n      jump\t// in\n    tag_113:\n      tag_114\n      jump\t// in\n        /* \"contracts/factories/BondFactory.sol\":11781:11893  function isIssuedByFactory(uint256 id) public view returns (bool) {... */\n    tag_22:\n      tag_39\n      tag_116\n      calldatasize\n      0x04\n      tag_47\n      jump\t// in\n    tag_116:\n        /* \"contracts/factories/BondFactory.sol\":11841:11845  bool */\n      0x00\n        /* \"contracts/factories/BondFactory.sol\":11864:11886  _isIssuedByFactory[id] */\n      swap1\n      dup2\n      mstore\n        /* \"contracts/factories/BondFactory.sol\":11864:11882  _isIssuedByFactory */\n      0x07\n        /* \"contracts/factories/BondFactory.sol\":11864:11886  _isIssuedByFactory[id] */\n      0x20\n      mstore\n      0x40\n      swap1\n      keccak256\n      sload\n      0xff\n      and\n      swap1\n        /* \"contracts/factories/BondFactory.sol\":11781:11893  function isIssuedByFactory(uint256 id) public view returns (bool) {... */\n      jump\n        /* \"@openzeppelin/contracts/token/ERC1155/utils/ERC1155Holder.sol\":724:971  function onERC1155BatchReceived(... */\n    tag_23:\n      tag_119\n      tag_120\n      calldatasize\n      0x04\n      tag_121\n      jump\t// in\n    tag_120:\n      shl(0xe0, 0xbc197c81)\n      swap6\n      swap5\n      pop\n      pop\n      pop\n      pop\n      pop\n      jump\n    tag_119:\n      mload(0x40)\n      not(sub(shl(0xe0, 0x01), 0x01))\n        /* \"#utility.yul\":5381:5414   */\n      swap1\n      swap2\n      and\n        /* \"#utility.yul\":5363:5415   */\n      dup2\n      mstore\n        /* \"#utility.yul\":5351:5353   */\n      0x20\n        /* \"#utility.yul\":5336:5354   */\n      add\n        /* \"@openzeppelin/contracts/token/ERC1155/utils/ERC1155Holder.sol\":724:971  function onERC1155BatchReceived(... */\n      tag_43\n        /* \"#utility.yul\":5219:5421   */\n      jump\n        /* \"contracts/factories/BondFactory.sol\":8778:9480  function markAsCompleted(uint256 id) external {... */\n    tag_24:\n      tag_75\n      tag_126\n      calldatasize\n      0x04\n      tag_47\n      jump\t// in\n    tag_126:\n      tag_127\n      jump\t// in\n        /* \"contracts/factories/BondFactory.sol\":11473:11567  function baseToken() public view returns (address) {... */\n    tag_25:\n        /* \"contracts/factories/BondFactory.sol\":11549:11559  _baseToken */\n      immutable(\"0xf9bbcd66573bf3c1f4cc184d2152e0dd1704bf0095e444b842e9e57042cbafba\")\n        /* \"contracts/factories/BondFactory.sol\":11473:11567  function baseToken() public view returns (address) {... */\n      jump(tag_104)\n        /* \"contracts/factories/BondFactory.sol\":6828:7224  function deposit(uint256 id, uint256 tokenAmount) external onlyOwner {... */\n    tag_26:\n      tag_75\n      tag_132\n      calldatasize\n      0x04\n      tag_77\n      jump\t// in\n    tag_132:\n      tag_133\n      jump\t// in\n        /* \"contracts/factories/BondFactory.sol\":10230:10334  function tvl() public view returns (uint256) {... */\n    tag_27:\n      tag_45\n      tag_135\n      jump\t// in\n        /* \"contracts/factories/BondFactory.sol\":5243:5644  function withdrawExcess(uint256 id) external onlyOwner {... */\n    tag_28:\n      tag_75\n      tag_138\n      calldatasize\n      0x04\n      tag_47\n      jump\t// in\n    tag_138:\n      tag_139\n      jump\t// in\n        /* \"@openzeppelin/contracts/token/ERC1155/utils/ERC1155Holder.sol\":499:718  function onERC1155Received(... */\n    tag_30:\n      tag_119\n      tag_145\n      calldatasize\n      0x04\n      tag_146\n      jump\t// in\n    tag_145:\n      shl(0xe0, 0xf23a6e61)\n      swap6\n      swap5\n      pop\n      pop\n      pop\n      pop\n      pop\n      jump\n        /* \"contracts/factories/BondFactory.sol\":1871:3425  function issue(... */\n    tag_31:\n      tag_45\n      tag_150\n      calldatasize\n      0x04\n      tag_151\n      jump\t// in\n    tag_150:\n      tag_152\n      jump\t// in\n        /* \"@openzeppelin/contracts/token/ERC1155/utils/ERC1155Receiver.sol\":387:608  function supportsInterface(bytes4 interfaceId) public view virtual override(ERC165, IERC165) returns (bool) {... */\n    tag_42:\n        /* \"@openzeppelin/contracts/token/ERC1155/utils/ERC1155Receiver.sol\":489:493  bool */\n      0x00\n      not(sub(shl(0xe0, 0x01), 0x01))\n        /* \"@openzeppelin/contracts/token/ERC1155/utils/ERC1155Receiver.sol\":512:561  interfaceId == type(IERC1155Receiver).interfaceId */\n      dup3\n      and\n      shl(0xe5, 0x02711897)\n      eq\n      dup1\n        /* \"@openzeppelin/contracts/token/ERC1155/utils/ERC1155Receiver.sol\":512:601  interfaceId == type(IERC1155Receiver).interfaceId || super.supportsInterface(interfaceId) */\n      tag_156\n      jumpi\n      pop\n      shl(0xe0, 0x01ffc9a7)\n      not(sub(shl(0xe0, 0x01), 0x01))\n        /* \"@openzeppelin/contracts/utils/introspection/ERC165.sol\":937:977  interfaceId == type(IERC165).interfaceId */\n      dup4\n      and\n      eq\n        /* \"@openzeppelin/contracts/token/ERC1155/utils/ERC1155Receiver.sol\":565:601  super.supportsInterface(interfaceId) */\n    tag_156:\n        /* \"@openzeppelin/contracts/token/ERC1155/utils/ERC1155Receiver.sol\":505:601  return interfaceId == type(IERC1155Receiver).interfaceId || super.supportsInterface(interfaceId) */\n      swap3\n        /* \"@openzeppelin/contracts/token/ERC1155/utils/ERC1155Receiver.sol\":387:608  function supportsInterface(bytes4 interfaceId) public view virtual override(ERC165, IERC165) returns (bool) {... */\n      swap2\n      pop\n      pop\n      jump\t// out\n        /* \"contracts/factories/BondFactory.sol\":10481:10667  function isFulfilled(uint256 id) public view returns (bool) {... */\n    tag_53:\n        /* \"contracts/factories/BondFactory.sol\":10608:10639  _bondToken.bondDataAsStruct(id) */\n      mload(0x40)\n      shl(0xe0, 0x4dd9c9c7)\n      dup2\n      mstore\n      0x04\n      dup2\n      add\n        /* \"#utility.yul\":828:853   */\n      dup3\n      swap1\n      mstore\n        /* \"contracts/factories/BondFactory.sol\":10535:10539  bool */\n      0x00\n      swap1\n        /* \"contracts/factories/BondFactory.sol\":10608:10618  _bondToken */\n      immutable(\"0xc322ff1198f1018f90524fe27b385729b363ae518172debfa915634c95ec9ba4\")\n      sub(shl(0xa0, 0x01), 0x01)\n        /* \"contracts/factories/BondFactory.sol\":10608:10635  _bondToken.bondDataAsStruct */\n      and\n      swap1\n      0x4dd9c9c7\n      swap1\n        /* \"#utility.yul\":801:819   */\n      0x24\n      add\n        /* \"contracts/factories/BondFactory.sol\":10608:10639  _bondToken.bondDataAsStruct(id) */\n      0x0120\n      mload(0x40)\n      dup1\n      dup4\n      sub\n      dup2\n      dup7\n      gas\n      staticcall\n      iszero\n      dup1\n      iszero\n      tag_162\n      jumpi\n      returndatasize\n      0x00\n      dup1\n      returndatacopy\n      revert(0x00, returndatasize)\n    tag_162:\n      pop\n      pop\n      pop\n      pop\n      mload(0x40)\n      returndatasize\n      not(0x1f)\n      0x1f\n      dup3\n      add\n      and\n      dup3\n      add\n      dup1\n      0x40\n      mstore\n      pop\n      dup2\n      add\n      swap1\n      tag_163\n      swap2\n      swap1\n      tag_164\n      jump\t// in\n    tag_163:\n        /* \"contracts/factories/BondFactory.sol\":10608:10660  _bondToken.bondDataAsStruct(id).minPurchasedQuantity */\n      0xe0\n      add\n      mload\n        /* \"contracts/factories/BondFactory.sol\":10570:10592  _purchasedQuantity[id] */\n      0x00\n      swap3\n      dup4\n      mstore\n        /* \"contracts/factories/BondFactory.sol\":10570:10588  _purchasedQuantity */\n      0x02\n        /* \"contracts/factories/BondFactory.sol\":10570:10592  _purchasedQuantity[id] */\n      0x20\n      mstore\n      0x40\n      swap1\n      swap3\n      keccak256\n      sload\n        /* \"contracts/factories/BondFactory.sol\":10570:10660  _purchasedQuantity[id] >=... */\n      swap2\n      swap1\n      swap2\n      lt\n      iszero\n      swap2\n        /* \"contracts/factories/BondFactory.sol\":10481:10667  function isFulfilled(uint256 id) public view returns (bool) {... */\n      swap1\n      pop\n      jump\t// out\n        /* \"contracts/factories/BondFactory.sol\":11899:11985  function bonds() public view returns (uint256[] memory) {... */\n    tag_56:\n        /* \"contracts/factories/BondFactory.sol\":11937:11953  uint256[] memory */\n      0x60\n        /* \"contracts/factories/BondFactory.sol\":11972:11978  _bonds */\n      0x01\n        /* \"contracts/factories/BondFactory.sol\":11965:11978  return _bonds */\n      dup1\n      sload\n      dup1\n      0x20\n      mul\n      0x20\n      add\n      mload(0x40)\n      swap1\n      dup2\n      add\n      0x40\n      mstore\n      dup1\n      swap3\n      swap2\n      swap1\n      dup2\n      dup2\n      mstore\n      0x20\n      add\n      dup3\n      dup1\n      sload\n      dup1\n      iszero\n      tag_166\n      jumpi\n      0x20\n      mul\n      dup3\n      add\n      swap2\n      swap1\n      0x00\n      mstore\n      keccak256(0x00, 0x20)\n      swap1\n    tag_167:\n      dup2\n      sload\n      dup2\n      mstore\n      0x20\n      add\n      swap1\n      0x01\n      add\n      swap1\n      dup1\n      dup4\n      gt\n      tag_167\n      jumpi\n    tag_166:\n      pop\n      pop\n      pop\n      pop\n      pop\n      swap1\n      pop\n        /* \"contracts/factories/BondFactory.sol\":11899:11985  function bonds() public view returns (uint256[] memory) {... */\n      swap1\n      jump\t// out\n        /* \"contracts/factories/BondFactory.sol\":9680:9864  function principal(uint256 id) public view returns (uint256) {... */\n    tag_61:\n        /* \"contracts/factories/BondFactory.sol\":9732:9739  uint256 */\n      0x00\n        /* \"contracts/factories/BondFactory.sol\":9835:9857  _purchasedQuantity[id] */\n      dup2\n      dup2\n      mstore\n        /* \"contracts/factories/BondFactory.sol\":9835:9853  _purchasedQuantity */\n      0x02\n        /* \"contracts/factories/BondFactory.sol\":9835:9857  _purchasedQuantity[id] */\n      0x20\n      mstore\n      0x40\n      dup1\n      dup3\n      keccak256\n      sload\n        /* \"contracts/factories/BondFactory.sol\":9770:9801  _bondToken.bondDataAsStruct(id) */\n      swap1\n      mload\n      shl(0xe0, 0x4dd9c9c7)\n      dup2\n      mstore\n      0x04\n      dup2\n      add\n        /* \"#utility.yul\":828:853   */\n      dup5\n      swap1\n      mstore\n        /* \"contracts/factories/BondFactory.sol\":9770:9780  _bondToken */\n      immutable(\"0xc322ff1198f1018f90524fe27b385729b363ae518172debfa915634c95ec9ba4\")\n      sub(shl(0xa0, 0x01), 0x01)\n        /* \"contracts/factories/BondFactory.sol\":9770:9797  _bondToken.bondDataAsStruct */\n      and\n      swap1\n      0x4dd9c9c7\n      swap1\n        /* \"#utility.yul\":801:819   */\n      0x24\n      add\n        /* \"contracts/factories/BondFactory.sol\":9770:9801  _bondToken.bondDataAsStruct(id) */\n      0x0120\n      mload(0x40)\n      dup1\n      dup4\n      sub\n      dup2\n      dup7\n      gas\n      staticcall\n      iszero\n      dup1\n      iszero\n      tag_171\n      jumpi\n      returndatasize\n      0x00\n      dup1\n      returndatacopy\n      revert(0x00, returndatasize)\n    tag_171:\n      pop\n      pop\n      pop\n      pop\n      mload(0x40)\n      returndatasize\n      not(0x1f)\n      0x1f\n      dup3\n      add\n      and\n      dup3\n      add\n      dup1\n      0x40\n      mstore\n      pop\n      dup2\n      add\n      swap1\n      tag_172\n      swap2\n      swap1\n      tag_164\n      jump\t// in\n    tag_172:\n        /* \"contracts/factories/BondFactory.sol\":9770:9820  _bondToken.bondDataAsStruct(id).tokenAmountPerBond */\n      mload\n        /* \"contracts/factories/BondFactory.sol\":9770:9857  _bondToken.bondDataAsStruct(id).tokenAmountPerBond *... */\n      tag_156\n      swap2\n      swap1\n      tag_174\n      jump\t// in\n        /* \"contracts/factories/BondFactory.sol\":10912:11130  function isCompletedInTheory(... */\n    tag_69:\n        /* \"contracts/factories/BondFactory.sol\":11020:11053  _bondToken.hasReachedMaturity(id) */\n      mload(0x40)\n      shl(0xe0, 0x8f0dbf77)\n      dup2\n      mstore\n      0x04\n      dup2\n      add\n        /* \"#utility.yul\":828:853   */\n      dup3\n      swap1\n      mstore\n        /* \"contracts/factories/BondFactory.sol\":10996:11000  bool */\n      0x00\n      swap1\n        /* \"contracts/factories/BondFactory.sol\":11020:11030  _bondToken */\n      immutable(\"0xc322ff1198f1018f90524fe27b385729b363ae518172debfa915634c95ec9ba4\")\n      sub(shl(0xa0, 0x01), 0x01)\n        /* \"contracts/factories/BondFactory.sol\":11020:11049  _bondToken.hasReachedMaturity */\n      and\n      swap1\n      0x8f0dbf77\n      swap1\n        /* \"#utility.yul\":801:819   */\n      0x24\n      add\n        /* \"contracts/factories/BondFactory.sol\":11020:11053  _bondToken.hasReachedMaturity(id) */\n      0x20\n      mload(0x40)\n      dup1\n      dup4\n      sub\n      dup2\n      dup7\n      gas\n      staticcall\n      iszero\n      dup1\n      iszero\n      tag_179\n      jumpi\n      returndatasize\n      0x00\n      dup1\n      returndatacopy\n      revert(0x00, returndatasize)\n    tag_179:\n      pop\n      pop\n      pop\n      pop\n      mload(0x40)\n      returndatasize\n      not(0x1f)\n      0x1f\n      dup3\n      add\n      and\n      dup3\n      add\n      dup1\n      0x40\n      mstore\n      pop\n      dup2\n      add\n      swap1\n      tag_180\n      swap2\n      swap1\n      tag_181\n      jump\t// in\n    tag_180:\n        /* \"contracts/factories/BondFactory.sol\":11020:11122  _bondToken.hasReachedMaturity(id) &&... */\n      dup1\n      iszero\n      tag_156\n      jumpi\n      pop\n        /* \"contracts/factories/BondFactory.sol\":11097:11122  principalWithInterest(id) */\n      tag_183\n        /* \"contracts/factories/BondFactory.sol\":11119:11121  id */\n      dup3\n        /* \"contracts/factories/BondFactory.sol\":11097:11118  principalWithInterest */\n      tag_95\n        /* \"contracts/factories/BondFactory.sol\":11097:11122  principalWithInterest(id) */\n      jump\t// in\n    tag_183:\n        /* \"contracts/factories/BondFactory.sol\":11069:11093  _designatedTokenPool[id] */\n      0x00\n      dup4\n      dup2\n      mstore\n        /* \"contracts/factories/BondFactory.sol\":11069:11089  _designatedTokenPool */\n      0x04\n        /* \"contracts/factories/BondFactory.sol\":11069:11093  _designatedTokenPool[id] */\n      0x20\n      mstore\n      0x40\n      swap1\n      keccak256\n      sload\n        /* \"contracts/factories/BondFactory.sol\":11069:11122  _designatedTokenPool[id] >= principalWithInterest(id) */\n      lt\n      iszero\n        /* \"contracts/factories/BondFactory.sol\":11012:11123  return (_bondToken.hasReachedMaturity(id) &&... */\n      swap3\n        /* \"contracts/factories/BondFactory.sol\":10912:11130  function isCompletedInTheory(... */\n      swap2\n      pop\n      pop\n      jump\t// out\n        /* \"contracts/factories/BondFactory.sol\":10673:10800  function isCanceled(uint256 id) public view returns (bool) {... */\n    tag_73:\n        /* \"contracts/factories/BondFactory.sol\":10750:10773  _bondToken.isActive(id) */\n      mload(0x40)\n      shl(0xe0, 0x82afd23b)\n      dup2\n      mstore\n      0x04\n      dup2\n      add\n        /* \"#utility.yul\":828:853   */\n      dup3\n      swap1\n      mstore\n        /* \"contracts/factories/BondFactory.sol\":10726:10730  bool */\n      0x00\n      swap1\n        /* \"contracts/factories/BondFactory.sol\":10750:10760  _bondToken */\n      immutable(\"0xc322ff1198f1018f90524fe27b385729b363ae518172debfa915634c95ec9ba4\")\n      sub(shl(0xa0, 0x01), 0x01)\n        /* \"contracts/factories/BondFactory.sol\":10750:10769  _bondToken.isActive */\n      and\n      swap1\n      0x82afd23b\n      swap1\n        /* \"#utility.yul\":801:819   */\n      0x24\n      add\n        /* \"contracts/factories/BondFactory.sol\":10750:10773  _bondToken.isActive(id) */\n      0x20\n      mload(0x40)\n      dup1\n      dup4\n      sub\n      dup2\n      dup7\n      gas\n      staticcall\n      iszero\n      dup1\n      iszero\n      tag_187\n      jumpi\n      returndatasize\n      0x00\n      dup1\n      returndatacopy\n      revert(0x00, returndatasize)\n    tag_187:\n      pop\n      pop\n      pop\n      pop\n      mload(0x40)\n      returndatasize\n      not(0x1f)\n      0x1f\n      dup3\n      add\n      and\n      dup3\n      add\n      dup1\n      0x40\n      mstore\n      pop\n      dup2\n      add\n      swap1\n      tag_188\n      swap2\n      swap1\n      tag_181\n      jump\t// in\n    tag_188:\n        /* \"contracts/factories/BondFactory.sol\":10749:10773  !_bondToken.isActive(id) */\n      iszero\n        /* \"contracts/factories/BondFactory.sol\":10749:10793  !_bondToken.isActive(id) && !isFulfilled(id) */\n      dup1\n      iszero\n      tag_156\n      jumpi\n      pop\n        /* \"contracts/factories/BondFactory.sol\":10778:10793  isFulfilled(id) */\n      tag_190\n        /* \"contracts/factories/BondFactory.sol\":10790:10792  id */\n      dup3\n        /* \"contracts/factories/BondFactory.sol\":10778:10789  isFulfilled */\n      tag_53\n        /* \"contracts/factories/BondFactory.sol\":10778:10793  isFulfilled(id) */\n      jump\t// in\n    tag_190:\n        /* \"contracts/factories/BondFactory.sol\":10777:10793  !isFulfilled(id) */\n      iszero\n        /* \"contracts/factories/BondFactory.sol\":10742:10793  return !_bondToken.isActive(id) && !isFulfilled(id) */\n      swap3\n        /* \"contracts/factories/BondFactory.sol\":10673:10800  function isCanceled(uint256 id) public view returns (bool) {... */\n      swap2\n      pop\n      pop\n      jump\t// out\n        /* \"contracts/factories/BondFactory.sol\":4668:5237  function withdraw(... */\n    tag_78:\n        /* \"contracts/factories/BondFactory.sol\":1096:1106  msg.sender */\n      caller\n      sub(shl(0xa0, 0x01), 0x01)\n        /* \"contracts/factories/BondFactory.sol\":1110:1116  _owner */\n      immutable(\"0x22a2e3ce6024cf7fa9f23bb9996411ef645dedafa701962edde7c1d4874e9131\")\n        /* \"contracts/factories/BondFactory.sol\":1096:1116  msg.sender == _owner */\n      and\n      eq\n        /* \"contracts/factories/BondFactory.sol\":1088:1124  require(msg.sender == _owner, \"NTO\") */\n      tag_192\n      jumpi\n      mload(0x40)\n      shl(0xe5, 0x461bcd)\n      dup2\n      mstore\n      0x04\n      add\n      tag_193\n      swap1\n      tag_194\n      jump\t// in\n    tag_193:\n      mload(0x40)\n      dup1\n      swap2\n      sub\n      swap1\n      revert\n    tag_192:\n        /* \"contracts/factories/BondFactory.sol\":4800:4823  _bondToken.isActive(id) */\n      mload(0x40)\n      shl(0xe0, 0x82afd23b)\n      dup2\n      mstore\n      0x04\n      dup2\n      add\n        /* \"#utility.yul\":828:853   */\n      dup4\n      swap1\n      mstore\n        /* \"contracts/factories/BondFactory.sol\":4800:4810  _bondToken */\n      immutable(\"0xc322ff1198f1018f90524fe27b385729b363ae518172debfa915634c95ec9ba4\")\n      sub(shl(0xa0, 0x01), 0x01)\n        /* \"contracts/factories/BondFactory.sol\":4800:4819  _bondToken.isActive */\n      and\n      swap1\n      0x82afd23b\n      swap1\n        /* \"#utility.yul\":801:819   */\n      0x24\n      add\n        /* \"contracts/factories/BondFactory.sol\":4800:4823  _bondToken.isActive(id) */\n      0x20\n      mload(0x40)\n      dup1\n      dup4\n      sub\n      dup2\n      dup7\n      gas\n      staticcall\n      iszero\n      dup1\n      iszero\n      tag_198\n      jumpi\n      returndatasize\n      0x00\n      dup1\n      returndatacopy\n      revert(0x00, returndatasize)\n    tag_198:\n      pop\n      pop\n      pop\n      pop\n      mload(0x40)\n      returndatasize\n      not(0x1f)\n      0x1f\n      dup3\n      add\n      and\n      dup3\n      add\n      dup1\n      0x40\n      mstore\n      pop\n      dup2\n      add\n      swap1\n      tag_199\n      swap2\n      swap1\n      tag_181\n      jump\t// in\n    tag_199:\n        /* \"contracts/factories/BondFactory.sol\":4799:4823  !_bondToken.isActive(id) */\n      iszero\n        /* \"contracts/factories/BondFactory.sol\":4799:4858  !_bondToken.isActive(id) &&... */\n      dup1\n      iszero\n      tag_200\n      jumpi\n      pop\n        /* \"contracts/factories/BondFactory.sol\":4844:4858  isCanceled(id) */\n      tag_201\n        /* \"contracts/factories/BondFactory.sol\":4855:4857  id */\n      dup3\n        /* \"contracts/factories/BondFactory.sol\":4844:4854  isCanceled */\n      tag_73\n        /* \"contracts/factories/BondFactory.sol\":4844:4858  isCanceled(id) */\n      jump\t// in\n    tag_201:\n        /* \"contracts/factories/BondFactory.sol\":4843:4858  !isCanceled(id) */\n      iszero\n        /* \"contracts/factories/BondFactory.sol\":4799:4858  !_bondToken.isActive(id) &&... */\n    tag_200:\n        /* \"contracts/factories/BondFactory.sol\":4799:4894  !_bondToken.isActive(id) &&... */\n      dup1\n      iszero\n      tag_202\n      jumpi\n      pop\n        /* \"contracts/factories/BondFactory.sol\":10860:10864  bool */\n      0x00\n        /* \"contracts/factories/BondFactory.sol\":10883:10899  _isCompleted[id] */\n      dup3\n      dup2\n      mstore\n        /* \"contracts/factories/BondFactory.sol\":10883:10895  _isCompleted */\n      0x09\n        /* \"contracts/factories/BondFactory.sol\":10883:10899  _isCompleted[id] */\n      0x20\n      mstore\n      0x40\n      swap1\n      keccak256\n      sload\n      0xff\n      and\n        /* \"contracts/factories/BondFactory.sol\":4878:4894  !isCompleted(id) */\n      iszero\n        /* \"contracts/factories/BondFactory.sol\":4799:4894  !_bondToken.isActive(id) &&... */\n    tag_202:\n        /* \"contracts/factories/BondFactory.sol\":4799:4959  !_bondToken.isActive(id) &&... */\n      dup1\n      iszero\n      tag_204\n      jumpi\n      pop\n        /* \"contracts/factories/BondFactory.sol\":11421:11425  bool */\n      0x00\n        /* \"contracts/factories/BondFactory.sol\":11444:11460  _isDefaulted[id] */\n      dup3\n      dup2\n      mstore\n        /* \"contracts/factories/BondFactory.sol\":11444:11456  _isDefaulted */\n      0x08\n        /* \"contracts/factories/BondFactory.sol\":11444:11460  _isDefaulted[id] */\n      0x20\n      mstore\n      0x40\n      swap1\n      keccak256\n      sload\n      0xff\n      and\n        /* \"contracts/factories/BondFactory.sol\":4916:4958  isDefaulted(id) || isDefaultedInTheory(id) */\n      dup1\n      tag_207\n      jumpi\n      pop\n        /* \"contracts/factories/BondFactory.sol\":4935:4958  isDefaultedInTheory(id) */\n      tag_207\n        /* \"contracts/factories/BondFactory.sol\":4955:4957  id */\n      dup3\n        /* \"contracts/factories/BondFactory.sol\":4935:4954  isDefaultedInTheory */\n      tag_88\n        /* \"contracts/factories/BondFactory.sol\":4935:4958  isDefaultedInTheory(id) */\n      jump\t// in\n    tag_207:\n        /* \"contracts/factories/BondFactory.sol\":4914:4959  !(isDefaulted(id) || isDefaultedInTheory(id)) */\n      iszero\n        /* \"contracts/factories/BondFactory.sol\":4799:4959  !_bondToken.isActive(id) &&... */\n    tag_204:\n        /* \"contracts/factories/BondFactory.sol\":4778:4988  require(... */\n      tag_208\n      jumpi\n      mload(0x40)\n      shl(0xe5, 0x461bcd)\n      dup2\n      mstore\n        /* \"#utility.yul\":8807:8809   */\n      0x20\n        /* \"contracts/factories/BondFactory.sol\":4778:4988  require(... */\n      0x04\n      dup3\n      add\n        /* \"#utility.yul\":8789:8810   */\n      mstore\n        /* \"#utility.yul\":8846:8847   */\n      0x03\n        /* \"#utility.yul\":8826:8844   */\n      0x24\n      dup3\n      add\n        /* \"#utility.yul\":8819:8848   */\n      mstore\n      shl(0xe8, 0x574e41)\n        /* \"#utility.yul\":8864:8882   */\n      0x44\n      dup3\n      add\n        /* \"#utility.yul\":8857:8890   */\n      mstore\n        /* \"#utility.yul\":8907:8925   */\n      0x64\n      add\n        /* \"contracts/factories/BondFactory.sol\":4778:4988  require(... */\n      tag_193\n        /* \"#utility.yul\":8605:8931   */\n      jump\n        /* \"contracts/factories/BondFactory.sol\":4778:4988  require(... */\n    tag_208:\n        /* \"contracts/factories/BondFactory.sol\":5022:5046  _designatedTokenPool[id] */\n      0x00\n      dup3\n      dup2\n      mstore\n        /* \"contracts/factories/BondFactory.sol\":5022:5042  _designatedTokenPool */\n      0x04\n        /* \"contracts/factories/BondFactory.sol\":5022:5046  _designatedTokenPool[id] */\n      0x20\n      mstore\n      0x40\n      swap1\n      keccak256\n      sload\n        /* \"contracts/factories/BondFactory.sol\":5007:5046  tokenAmount <= _designatedTokenPool[id] */\n      dup2\n      gt\n      iszero\n        /* \"contracts/factories/BondFactory.sol\":4999:5054  require(tokenAmount <= _designatedTokenPool[id], \"WAE\") */\n      tag_211\n      jumpi\n      mload(0x40)\n      shl(0xe5, 0x461bcd)\n      dup2\n      mstore\n        /* \"#utility.yul\":9138:9140   */\n      0x20\n        /* \"contracts/factories/BondFactory.sol\":4999:5054  require(tokenAmount <= _designatedTokenPool[id], \"WAE\") */\n      0x04\n      dup3\n      add\n        /* \"#utility.yul\":9120:9141   */\n      mstore\n        /* \"#utility.yul\":9177:9178   */\n      0x03\n        /* \"#utility.yul\":9157:9175   */\n      0x24\n      dup3\n      add\n        /* \"#utility.yul\":9150:9179   */\n      mstore\n      shl(0xe8, 0x574145)\n        /* \"#utility.yul\":9195:9213   */\n      0x44\n      dup3\n      add\n        /* \"#utility.yul\":9188:9221   */\n      mstore\n        /* \"#utility.yul\":9238:9256   */\n      0x64\n      add\n        /* \"contracts/factories/BondFactory.sol\":4999:5054  require(tokenAmount <= _designatedTokenPool[id], \"WAE\") */\n      tag_193\n        /* \"#utility.yul\":8936:9262   */\n      jump\n        /* \"contracts/factories/BondFactory.sol\":4999:5054  require(tokenAmount <= _designatedTokenPool[id], \"WAE\") */\n    tag_211:\n        /* \"contracts/factories/BondFactory.sol\":5065:5089  _designatedTokenPool[id] */\n      0x00\n      dup3\n      dup2\n      mstore\n        /* \"contracts/factories/BondFactory.sol\":5065:5085  _designatedTokenPool */\n      0x04\n        /* \"contracts/factories/BondFactory.sol\":5065:5089  _designatedTokenPool[id] */\n      0x20\n      mstore\n      0x40\n      dup2\n      keccak256\n        /* \"contracts/factories/BondFactory.sol\":5065:5104  _designatedTokenPool[id] -= tokenAmount */\n      dup1\n      sload\n        /* \"contracts/factories/BondFactory.sol\":5093:5104  tokenAmount */\n      dup4\n      swap3\n        /* \"contracts/factories/BondFactory.sol\":5065:5089  _designatedTokenPool[id] */\n      swap1\n        /* \"contracts/factories/BondFactory.sol\":5065:5104  _designatedTokenPool[id] -= tokenAmount */\n      tag_214\n      swap1\n        /* \"contracts/factories/BondFactory.sol\":5093:5104  tokenAmount */\n      dup5\n      swap1\n        /* \"contracts/factories/BondFactory.sol\":5065:5104  _designatedTokenPool[id] -= tokenAmount */\n      tag_215\n      jump\t// in\n    tag_214:\n      swap1\n      swap2\n      sstore\n      pop\n      pop\n        /* \"contracts/factories/BondFactory.sol\":5114:5175  _bondDB.decrementTVLByToken(tokenAmount, address(_baseToken)) */\n      mload(0x40)\n      shl(0xe2, 0x2f2b9a09)\n      dup2\n      mstore\n      0x04\n      dup2\n      add\n        /* \"#utility.yul\":9574:9599   */\n      dup3\n      swap1\n      mstore\n      sub(shl(0xa0, 0x01), 0x01)\n        /* \"contracts/factories/BondFactory.sol\":5163:5173  _baseToken */\n      immutable(\"0xf9bbcd66573bf3c1f4cc184d2152e0dd1704bf0095e444b842e9e57042cbafba\")\n        /* \"#utility.yul\":9635:9667   */\n      dup2\n      and\n        /* \"#utility.yul\":9615:9633   */\n      0x24\n      dup4\n      add\n        /* \"#utility.yul\":9608:9668   */\n      mstore\n        /* \"contracts/factories/BondFactory.sol\":5114:5121  _bondDB */\n      immutable(\"0x2757844bcba802ce24af88f7c8fd3438a9a94d6eea4d1e58913fbc1440605b8d\")\n        /* \"contracts/factories/BondFactory.sol\":5114:5141  _bondDB.decrementTVLByToken */\n      and\n      swap1\n      0xbcae6824\n      swap1\n        /* \"#utility.yul\":9547:9565   */\n      0x44\n      add\n        /* \"contracts/factories/BondFactory.sol\":5114:5175  _bondDB.decrementTVLByToken(tokenAmount, address(_baseToken)) */\n    tag_216:\n      0x00\n      mload(0x40)\n      dup1\n      dup4\n      sub\n      dup2\n      0x00\n      dup8\n      dup1\n      extcodesize\n      iszero\n      dup1\n      iszero\n      tag_218\n      jumpi\n      0x00\n      dup1\n      revert\n    tag_218:\n      pop\n      gas\n      call\n      iszero\n      dup1\n      iszero\n      tag_220\n      jumpi\n      returndatasize\n      0x00\n      dup1\n      returndatacopy\n      revert(0x00, returndatasize)\n    tag_220:\n      pop\n      pop\n        /* \"contracts/factories/BondFactory.sol\":5186:5230  _baseToken.transfer(msg.sender, tokenAmount) */\n      mload(0x40)\n      shl(0xe0, 0xa9059cbb)\n      dup2\n      mstore\n        /* \"contracts/factories/BondFactory.sol\":5206:5216  msg.sender */\n      caller\n        /* \"contracts/factories/BondFactory.sol\":5186:5230  _baseToken.transfer(msg.sender, tokenAmount) */\n      0x04\n      dup3\n      add\n        /* \"#utility.yul\":9853:9904   */\n      mstore\n        /* \"#utility.yul\":9920:9938   */\n      0x24\n      dup2\n      add\n        /* \"#utility.yul\":9913:9947   */\n      dup5\n      swap1\n      mstore\n        /* \"contracts/factories/BondFactory.sol\":5186:5196  _baseToken */\n      immutable(\"0xf9bbcd66573bf3c1f4cc184d2152e0dd1704bf0095e444b842e9e57042cbafba\")\n      sub(shl(0xa0, 0x01), 0x01)\n        /* \"contracts/factories/BondFactory.sol\":5186:5205  _baseToken.transfer */\n      and\n      swap3\n      pop\n      0xa9059cbb\n      swap2\n      pop\n        /* \"#utility.yul\":9826:9844   */\n      0x44\n      add\n        /* \"contracts/factories/BondFactory.sol\":5186:5230  _baseToken.transfer(msg.sender, tokenAmount) */\n    tag_221:\n      0x20\n      mload(0x40)\n      dup1\n      dup4\n      sub\n      dup2\n      0x00\n      dup8\n      gas\n      call\n      iszero\n      dup1\n      iszero\n      tag_224\n      jumpi\n      returndatasize\n      0x00\n      dup1\n      returndatacopy\n      revert(0x00, returndatasize)\n    tag_224:\n      pop\n      pop\n      pop\n      pop\n      mload(0x40)\n      returndatasize\n      not(0x1f)\n      0x1f\n      dup3\n      add\n      and\n      dup3\n      add\n      dup1\n      0x40\n      mstore\n      pop\n      dup2\n      add\n      swap1\n      tag_225\n      swap2\n      swap1\n      tag_181\n      jump\t// in\n    tag_225:\n      pop\n        /* \"contracts/factories/BondFactory.sol\":4668:5237  function withdraw(... */\n      pop\n      pop\n      jump\t// out\n        /* \"contracts/factories/BondFactory.sol\":7230:7907  function preMaturityDefault(uint256 id) external onlyOwner {... */\n    tag_85:\n        /* \"contracts/factories/BondFactory.sol\":1096:1106  msg.sender */\n      caller\n      sub(shl(0xa0, 0x01), 0x01)\n        /* \"contracts/factories/BondFactory.sol\":1110:1116  _owner */\n      immutable(\"0x22a2e3ce6024cf7fa9f23bb9996411ef645dedafa701962edde7c1d4874e9131\")\n        /* \"contracts/factories/BondFactory.sol\":1096:1116  msg.sender == _owner */\n      and\n      eq\n        /* \"contracts/factories/BondFactory.sol\":1088:1124  require(msg.sender == _owner, \"NTO\") */\n      tag_228\n      jumpi\n      mload(0x40)\n      shl(0xe5, 0x461bcd)\n      dup2\n      mstore\n      0x04\n      add\n      tag_193\n      swap1\n      tag_194\n      jump\t// in\n    tag_228:\n        /* \"contracts/factories/BondFactory.sol\":10860:10864  bool */\n      0x00\n        /* \"contracts/factories/BondFactory.sol\":10883:10899  _isCompleted[id] */\n      dup2\n      dup2\n      mstore\n        /* \"contracts/factories/BondFactory.sol\":10883:10895  _isCompleted */\n      0x09\n        /* \"contracts/factories/BondFactory.sol\":10883:10899  _isCompleted[id] */\n      0x20\n      mstore\n      0x40\n      swap1\n      keccak256\n      sload\n      0xff\n      and\n        /* \"contracts/factories/BondFactory.sol\":7320:7336  !isCompleted(id) */\n      iszero\n        /* \"contracts/factories/BondFactory.sol\":7320:7372  !isCompleted(id) &&... */\n      dup1\n      iszero\n      tag_232\n      jumpi\n      pop\n        /* \"contracts/factories/BondFactory.sol\":11421:11425  bool */\n      0x00\n        /* \"contracts/factories/BondFactory.sol\":11444:11460  _isDefaulted[id] */\n      dup2\n      dup2\n      mstore\n        /* \"contracts/factories/BondFactory.sol\":11444:11456  _isDefaulted */\n      0x08\n        /* \"contracts/factories/BondFactory.sol\":11444:11460  _isDefaulted[id] */\n      0x20\n      mstore\n      0x40\n      swap1\n      keccak256\n      sload\n      0xff\n      and\n        /* \"contracts/factories/BondFactory.sol\":7356:7372  !isDefaulted(id) */\n      iszero\n        /* \"contracts/factories/BondFactory.sol\":7320:7372  !isCompleted(id) &&... */\n    tag_232:\n        /* \"contracts/factories/BondFactory.sol\":7320:7446  !isCompleted(id) &&... */\n      dup1\n      iszero\n      tag_234\n      jumpi\n      pop\n        /* \"contracts/factories/BondFactory.sol\":7420:7445  principalWithInterest(id) */\n      tag_235\n        /* \"contracts/factories/BondFactory.sol\":7442:7444  id */\n      dup2\n        /* \"contracts/factories/BondFactory.sol\":7420:7441  principalWithInterest */\n      tag_95\n        /* \"contracts/factories/BondFactory.sol\":7420:7445  principalWithInterest(id) */\n      jump\t// in\n    tag_235:\n        /* \"contracts/factories/BondFactory.sol\":7393:7417  _designatedTokenPool[id] */\n      0x00\n      dup3\n      dup2\n      mstore\n        /* \"contracts/factories/BondFactory.sol\":7393:7413  _designatedTokenPool */\n      0x04\n        /* \"contracts/factories/BondFactory.sol\":7393:7417  _designatedTokenPool[id] */\n      0x20\n      mstore\n      0x40\n      swap1\n      keccak256\n      sload\n        /* \"contracts/factories/BondFactory.sol\":7393:7445  _designatedTokenPool[id] < principalWithInterest(id) */\n      lt\n        /* \"contracts/factories/BondFactory.sol\":7320:7446  !isCompleted(id) &&... */\n    tag_234:\n        /* \"contracts/factories/BondFactory.sol\":7299:7477  require(... */\n      tag_236\n      jumpi\n      mload(0x40)\n      shl(0xe5, 0x461bcd)\n      dup2\n      mstore\n        /* \"#utility.yul\":10160:10162   */\n      0x20\n        /* \"contracts/factories/BondFactory.sol\":7299:7477  require(... */\n      0x04\n      dup3\n      add\n        /* \"#utility.yul\":10142:10163   */\n      mstore\n        /* \"#utility.yul\":10199:10200   */\n      0x05\n        /* \"#utility.yul\":10179:10197   */\n      0x24\n      dup3\n      add\n        /* \"#utility.yul\":10172:10201   */\n      mstore\n      shl(0xd8, 0x504d444e41)\n        /* \"#utility.yul\":10217:10235   */\n      0x44\n      dup3\n      add\n        /* \"#utility.yul\":10210:10245   */\n      mstore\n        /* \"#utility.yul\":10262:10280   */\n      0x64\n      add\n        /* \"contracts/factories/BondFactory.sol\":7299:7477  require(... */\n      tag_193\n        /* \"#utility.yul\":9958:10286   */\n      jump\n        /* \"contracts/factories/BondFactory.sol\":7299:7477  require(... */\n    tag_236:\n        /* \"contracts/factories/BondFactory.sol\":7488:7504  uint256 paidDebt */\n      0x00\n        /* \"contracts/factories/BondFactory.sol\":7507:7531  _designatedTokenPool[id] */\n      dup2\n      dup2\n      mstore\n        /* \"contracts/factories/BondFactory.sol\":7507:7527  _designatedTokenPool */\n      0x04\n        /* \"contracts/factories/BondFactory.sol\":7507:7531  _designatedTokenPool[id] */\n      0x20\n      swap1\n      dup2\n      mstore\n      0x40\n      dup1\n      dup4\n      keccak256\n      sload\n        /* \"contracts/factories/BondFactory.sol\":7590:7608  _purchasedQuantity */\n      0x02\n        /* \"contracts/factories/BondFactory.sol\":7590:7612  _purchasedQuantity[id] */\n      swap1\n      swap3\n      mstore\n      swap1\n      swap2\n      keccak256\n      sload\n        /* \"contracts/factories/BondFactory.sol\":7579:7612  paidDebt / _purchasedQuantity[id] */\n      tag_239\n      swap1\n        /* \"contracts/factories/BondFactory.sol\":7507:7531  _designatedTokenPool[id] */\n      dup3\n        /* \"contracts/factories/BondFactory.sol\":7579:7612  paidDebt / _purchasedQuantity[id] */\n      tag_240\n      jump\t// in\n    tag_239:\n        /* \"contracts/factories/BondFactory.sol\":7541:7576  _tokenAmountPerBondAfterDefault[id] */\n      0x00\n      dup4\n      dup2\n      mstore\n        /* \"contracts/factories/BondFactory.sol\":7541:7572  _tokenAmountPerBondAfterDefault */\n      0x05\n        /* \"contracts/factories/BondFactory.sol\":7541:7576  _tokenAmountPerBondAfterDefault[id] */\n      0x20\n      swap1\n      dup2\n      mstore\n      0x40\n      dup1\n      dup4\n      keccak256\n        /* \"contracts/factories/BondFactory.sol\":7541:7612  _tokenAmountPerBondAfterDefault[id] = paidDebt / _purchasedQuantity[id] */\n      swap4\n      swap1\n      swap4\n      sstore\n        /* \"contracts/factories/BondFactory.sol\":7623:7635  _isDefaulted */\n      0x08\n        /* \"contracts/factories/BondFactory.sol\":7623:7639  _isDefaulted[id] */\n      swap1\n      mstore\n      dup2\n      swap1\n      keccak256\n        /* \"contracts/factories/BondFactory.sol\":7623:7646  _isDefaulted[id] = true */\n      dup1\n      sload\n      not(0xff)\n      and\n        /* \"contracts/factories/BondFactory.sol\":7642:7646  true */\n      0x01\n        /* \"contracts/factories/BondFactory.sol\":7623:7646  _isDefaulted[id] = true */\n      or\n      swap1\n      sstore\n        /* \"contracts/factories/BondFactory.sol\":7657:7713  _bondDB.incrementNumberOfTimesDefaultedByCompany(_owner) */\n      mload\n      shl(0xe1, 0x6d71c16b)\n      dup2\n      mstore\n      sub(shl(0xa0, 0x01), 0x01)\n        /* \"contracts/factories/BondFactory.sol\":7706:7712  _owner */\n      immutable(\"0x22a2e3ce6024cf7fa9f23bb9996411ef645dedafa701962edde7c1d4874e9131\")\n        /* \"#utility.yul\":2027:2059   */\n      dup2\n      and\n        /* \"contracts/factories/BondFactory.sol\":7657:7713  _bondDB.incrementNumberOfTimesDefaultedByCompany(_owner) */\n      0x04\n      dup4\n      add\n        /* \"#utility.yul\":2009:2060   */\n      mstore\n        /* \"contracts/factories/BondFactory.sol\":7657:7664  _bondDB */\n      immutable(\"0x2757844bcba802ce24af88f7c8fd3438a9a94d6eea4d1e58913fbc1440605b8d\")\n        /* \"contracts/factories/BondFactory.sol\":7657:7705  _bondDB.incrementNumberOfTimesDefaultedByCompany */\n      and\n      swap1\n      0xdae382d6\n      swap1\n        /* \"#utility.yul\":1982:2000   */\n      0x24\n      add\n        /* \"contracts/factories/BondFactory.sol\":7657:7713  _bondDB.incrementNumberOfTimesDefaultedByCompany(_owner) */\n      0x00\n      mload(0x40)\n      dup1\n      dup4\n      sub\n      dup2\n      0x00\n      dup8\n      dup1\n      extcodesize\n      iszero\n      dup1\n      iszero\n      tag_242\n      jumpi\n      0x00\n      dup1\n      revert\n    tag_242:\n      pop\n      gas\n      call\n      iszero\n      dup1\n      iszero\n      tag_244\n      jumpi\n      returndatasize\n      0x00\n      dup1\n      returndatacopy\n      revert(0x00, returndatasize)\n    tag_244:\n      pop\n      pop\n        /* \"contracts/factories/BondFactory.sol\":7723:7834  _bondDB.incrementNumberOfTimesDefaultedByCompanyAndCategory(... */\n      mload(0x40)\n      shl(0xe3, 0x1a0a14f9)\n      dup2\n      mstore\n      sub(shl(0xa0, 0x01), 0x01)\n        /* \"contracts/factories/BondFactory.sol\":7796:7802  _owner */\n      immutable(\"0x22a2e3ce6024cf7fa9f23bb9996411ef645dedafa701962edde7c1d4874e9131\")\n        /* \"#utility.yul\":9871:9903   */\n      dup2\n      and\n        /* \"contracts/factories/BondFactory.sol\":7723:7834  _bondDB.incrementNumberOfTimesDefaultedByCompanyAndCategory(... */\n      0x04\n      dup4\n      add\n        /* \"#utility.yul\":9853:9904   */\n      mstore\n        /* \"contracts/factories/BondFactory.sol\":601:602  1 */\n      0x01\n        /* \"#utility.yul\":9920:9938   */\n      0x24\n      dup4\n      add\n        /* \"#utility.yul\":9913:9947   */\n      mstore\n        /* \"contracts/factories/BondFactory.sol\":7723:7730  _bondDB */\n      immutable(\"0x2757844bcba802ce24af88f7c8fd3438a9a94d6eea4d1e58913fbc1440605b8d\")\n        /* \"contracts/factories/BondFactory.sol\":7723:7782  _bondDB.incrementNumberOfTimesDefaultedByCompanyAndCategory */\n      and\n      swap3\n      pop\n      0xd050a7c8\n      swap2\n      pop\n        /* \"#utility.yul\":9826:9844   */\n      0x44\n      add\n        /* \"contracts/factories/BondFactory.sol\":7723:7834  _bondDB.incrementNumberOfTimesDefaultedByCompanyAndCategory(... */\n      0x00\n      mload(0x40)\n      dup1\n      dup4\n      sub\n      dup2\n      0x00\n      dup8\n      dup1\n      extcodesize\n      iszero\n      dup1\n      iszero\n      tag_246\n      jumpi\n      0x00\n      dup1\n      revert\n    tag_246:\n      pop\n      gas\n      call\n      iszero\n      dup1\n      iszero\n      tag_248\n      jumpi\n      returndatasize\n      0x00\n      dup1\n      returndatacopy\n      revert(0x00, returndatasize)\n    tag_248:\n      pop\n      pop\n      pop\n      pop\n        /* \"contracts/factories/BondFactory.sol\":7860:7862  id */\n      dup2\n        /* \"contracts/factories/BondFactory.sol\":7850:7900  Defaulted(id, principalWithInterest(id), paidDebt) */\n      0xc4f17a65d54873d57229ea5f59c4ddec592d095bc17581372676402c8228b9cd\n        /* \"contracts/factories/BondFactory.sol\":7864:7889  principalWithInterest(id) */\n      tag_249\n        /* \"contracts/factories/BondFactory.sol\":7886:7888  id */\n      dup5\n        /* \"contracts/factories/BondFactory.sol\":7864:7885  principalWithInterest */\n      tag_95\n        /* \"contracts/factories/BondFactory.sol\":7864:7889  principalWithInterest(id) */\n      jump\t// in\n    tag_249:\n        /* \"contracts/factories/BondFactory.sol\":7850:7900  Defaulted(id, principalWithInterest(id), paidDebt) */\n      0x40\n      dup1\n      mload\n        /* \"#utility.yul\":10687:10712   */\n      swap2\n      dup3\n      mstore\n        /* \"#utility.yul\":10743:10745   */\n      0x20\n        /* \"#utility.yul\":10728:10746   */\n      dup3\n      add\n        /* \"#utility.yul\":10721:10755   */\n      dup6\n      swap1\n      mstore\n        /* \"#utility.yul\":10660:10678   */\n      add\n        /* \"contracts/factories/BondFactory.sol\":7850:7900  Defaulted(id, principalWithInterest(id), paidDebt) */\n      mload(0x40)\n      dup1\n      swap2\n      sub\n      swap1\n      log2\n        /* \"contracts/factories/BondFactory.sol\":7289:7907  {... */\n      pop\n        /* \"contracts/factories/BondFactory.sol\":7230:7907  function preMaturityDefault(uint256 id) external onlyOwner {... */\n      pop\n      jump\t// out\n        /* \"contracts/factories/BondFactory.sol\":11136:11353  function isDefaultedInTheory(... */\n    tag_88:\n        /* \"contracts/factories/BondFactory.sol\":11244:11277  _bondToken.hasReachedMaturity(id) */\n      mload(0x40)\n      shl(0xe0, 0x8f0dbf77)\n      dup2\n      mstore\n      0x04\n      dup2\n      add\n        /* \"#utility.yul\":828:853   */\n      dup3\n      swap1\n      mstore\n        /* \"contracts/factories/BondFactory.sol\":11220:11224  bool */\n      0x00\n      swap1\n        /* \"contracts/factories/BondFactory.sol\":11244:11254  _bondToken */\n      immutable(\"0xc322ff1198f1018f90524fe27b385729b363ae518172debfa915634c95ec9ba4\")\n      sub(shl(0xa0, 0x01), 0x01)\n        /* \"contracts/factories/BondFactory.sol\":11244:11273  _bondToken.hasReachedMaturity */\n      and\n      swap1\n      0x8f0dbf77\n      swap1\n        /* \"#utility.yul\":801:819   */\n      0x24\n      add\n        /* \"contracts/factories/BondFactory.sol\":11244:11277  _bondToken.hasReachedMaturity(id) */\n      0x20\n      mload(0x40)\n      dup1\n      dup4\n      sub\n      dup2\n      dup7\n      gas\n      staticcall\n      iszero\n      dup1\n      iszero\n      tag_255\n      jumpi\n      returndatasize\n      0x00\n      dup1\n      returndatacopy\n      revert(0x00, returndatasize)\n    tag_255:\n      pop\n      pop\n      pop\n      pop\n      mload(0x40)\n      returndatasize\n      not(0x1f)\n      0x1f\n      dup3\n      add\n      and\n      dup3\n      add\n      dup1\n      0x40\n      mstore\n      pop\n      dup2\n      add\n      swap1\n      tag_256\n      swap2\n      swap1\n      tag_181\n      jump\t// in\n    tag_256:\n        /* \"contracts/factories/BondFactory.sol\":11244:11345  _bondToken.hasReachedMaturity(id) &&... */\n      dup1\n      iszero\n      tag_156\n      jumpi\n      pop\n        /* \"contracts/factories/BondFactory.sol\":11320:11345  principalWithInterest(id) */\n      tag_258\n        /* \"contracts/factories/BondFactory.sol\":11342:11344  id */\n      dup3\n        /* \"contracts/factories/BondFactory.sol\":11320:11341  principalWithInterest */\n      tag_95\n        /* \"contracts/factories/BondFactory.sol\":11320:11345  principalWithInterest(id) */\n      jump\t// in\n    tag_258:\n        /* \"contracts/factories/BondFactory.sol\":11293:11317  _designatedTokenPool[id] */\n      0x00\n      dup4\n      dup2\n      mstore\n        /* \"contracts/factories/BondFactory.sol\":11293:11313  _designatedTokenPool */\n      0x04\n        /* \"contracts/factories/BondFactory.sol\":11293:11317  _designatedTokenPool[id] */\n      0x20\n      mstore\n      0x40\n      swap1\n      keccak256\n      sload\n        /* \"contracts/factories/BondFactory.sol\":11293:11345  _designatedTokenPool[id] < principalWithInterest(id) */\n      lt\n        /* \"contracts/factories/BondFactory.sol\":11236:11346  return (_bondToken.hasReachedMaturity(id) &&... */\n      swap3\n        /* \"contracts/factories/BondFactory.sol\":11136:11353  function isDefaultedInTheory(... */\n      swap2\n      pop\n      pop\n      jump\t// out\n        /* \"contracts/factories/BondFactory.sol\":3431:4662  function purchase(uint256 id, uint256 bondQuantity) external {... */\n    tag_92:\n        /* \"contracts/factories/BondFactory.sol\":3510:3533  _bondToken.isActive(id) */\n      mload(0x40)\n      shl(0xe0, 0x82afd23b)\n      dup2\n      mstore\n      0x04\n      dup2\n      add\n        /* \"#utility.yul\":828:853   */\n      dup4\n      swap1\n      mstore\n        /* \"contracts/factories/BondFactory.sol\":3510:3520  _bondToken */\n      immutable(\"0xc322ff1198f1018f90524fe27b385729b363ae518172debfa915634c95ec9ba4\")\n      sub(shl(0xa0, 0x01), 0x01)\n        /* \"contracts/factories/BondFactory.sol\":3510:3529  _bondToken.isActive */\n      and\n      swap1\n      0x82afd23b\n      swap1\n        /* \"#utility.yul\":801:819   */\n      0x24\n      add\n        /* \"contracts/factories/BondFactory.sol\":3510:3533  _bondToken.isActive(id) */\n      0x20\n      mload(0x40)\n      dup1\n      dup4\n      sub\n      dup2\n      dup7\n      gas\n      staticcall\n      iszero\n      dup1\n      iszero\n      tag_262\n      jumpi\n      returndatasize\n      0x00\n      dup1\n      returndatacopy\n      revert(0x00, returndatasize)\n    tag_262:\n      pop\n      pop\n      pop\n      pop\n      mload(0x40)\n      returndatasize\n      not(0x1f)\n      0x1f\n      dup3\n      add\n      and\n      dup3\n      add\n      dup1\n      0x40\n      mstore\n      pop\n      dup2\n      add\n      swap1\n      tag_263\n      swap2\n      swap1\n      tag_181\n      jump\t// in\n    tag_263:\n        /* \"contracts/factories/BondFactory.sol\":3502:3540  require(_bondToken.isActive(id), \"IB\") */\n      tag_264\n      jumpi\n      mload(0x40)\n      shl(0xe5, 0x461bcd)\n      dup2\n      mstore\n        /* \"#utility.yul\":10968:10970   */\n      0x20\n        /* \"contracts/factories/BondFactory.sol\":3502:3540  require(_bondToken.isActive(id), \"IB\") */\n      0x04\n      dup3\n      add\n        /* \"#utility.yul\":10950:10971   */\n      mstore\n        /* \"#utility.yul\":11007:11008   */\n      0x02\n        /* \"#utility.yul\":10987:11005   */\n      0x24\n      dup3\n      add\n        /* \"#utility.yul\":10980:11009   */\n      mstore\n      shl(0xf1, 0x24a1)\n        /* \"#utility.yul\":11025:11043   */\n      0x44\n      dup3\n      add\n        /* \"#utility.yul\":11018:11050   */\n      mstore\n        /* \"#utility.yul\":11067:11085   */\n      0x64\n      add\n        /* \"contracts/factories/BondFactory.sol\":3502:3540  require(_bondToken.isActive(id), \"IB\") */\n      tag_193\n        /* \"#utility.yul\":10766:11091   */\n      jump\n        /* \"contracts/factories/BondFactory.sol\":3502:3540  require(_bondToken.isActive(id), \"IB\") */\n    tag_264:\n        /* \"contracts/factories/BondFactory.sol\":3583:3595  bondQuantity */\n      dup1\n        /* \"contracts/factories/BondFactory.sol\":3558:3579  remainingQuantity(id) */\n      tag_267\n        /* \"contracts/factories/BondFactory.sol\":3576:3578  id */\n      dup4\n        /* \"contracts/factories/BondFactory.sol\":3558:3575  remainingQuantity */\n      tag_110\n        /* \"contracts/factories/BondFactory.sol\":3558:3579  remainingQuantity(id) */\n      jump\t// in\n    tag_267:\n        /* \"contracts/factories/BondFactory.sol\":3558:3595  remainingQuantity(id) >= bondQuantity */\n      lt\n      iszero\n        /* \"contracts/factories/BondFactory.sol\":3550:3602  require(remainingQuantity(id) >= bondQuantity, \"IQ\") */\n      tag_268\n      jumpi\n      mload(0x40)\n      shl(0xe5, 0x461bcd)\n      dup2\n      mstore\n        /* \"#utility.yul\":11298:11300   */\n      0x20\n        /* \"contracts/factories/BondFactory.sol\":3550:3602  require(remainingQuantity(id) >= bondQuantity, \"IQ\") */\n      0x04\n      dup3\n      add\n        /* \"#utility.yul\":11280:11301   */\n      mstore\n        /* \"#utility.yul\":11337:11338   */\n      0x02\n        /* \"#utility.yul\":11317:11335   */\n      0x24\n      dup3\n      add\n        /* \"#utility.yul\":11310:11339   */\n      mstore\n      shl(0xf0, 0x4951)\n        /* \"#utility.yul\":11355:11373   */\n      0x44\n      dup3\n      add\n        /* \"#utility.yul\":11348:11380   */\n      mstore\n        /* \"#utility.yul\":11397:11415   */\n      0x64\n      add\n        /* \"contracts/factories/BondFactory.sol\":3550:3602  require(remainingQuantity(id) >= bondQuantity, \"IQ\") */\n      tag_193\n        /* \"#utility.yul\":11096:11421   */\n      jump\n        /* \"contracts/factories/BondFactory.sol\":3550:3602  require(remainingQuantity(id) >= bondQuantity, \"IQ\") */\n    tag_268:\n        /* \"contracts/factories/BondFactory.sol\":3662:3693  _bondToken.bondDataAsStruct(id) */\n      mload(0x40)\n      shl(0xe0, 0x4dd9c9c7)\n      dup2\n      mstore\n      0x04\n      dup2\n      add\n        /* \"#utility.yul\":828:853   */\n      dup4\n      swap1\n      mstore\n        /* \"contracts/factories/BondFactory.sol\":3613:3632  uint256 tokenAmount */\n      0x00\n      swap1\n        /* \"contracts/factories/BondFactory.sol\":3662:3672  _bondToken */\n      immutable(\"0xc322ff1198f1018f90524fe27b385729b363ae518172debfa915634c95ec9ba4\")\n      sub(shl(0xa0, 0x01), 0x01)\n        /* \"contracts/factories/BondFactory.sol\":3662:3689  _bondToken.bondDataAsStruct */\n      and\n      swap1\n      0x4dd9c9c7\n      swap1\n        /* \"#utility.yul\":801:819   */\n      0x24\n      add\n        /* \"contracts/factories/BondFactory.sol\":3662:3693  _bondToken.bondDataAsStruct(id) */\n      0x0120\n      mload(0x40)\n      dup1\n      dup4\n      sub\n      dup2\n      dup7\n      gas\n      staticcall\n      iszero\n      dup1\n      iszero\n      tag_273\n      jumpi\n      returndatasize\n      0x00\n      dup1\n      returndatacopy\n      revert(0x00, returndatasize)\n    tag_273:\n      pop\n      pop\n      pop\n      pop\n      mload(0x40)\n      returndatasize\n      not(0x1f)\n      0x1f\n      dup3\n      add\n      and\n      dup3\n      add\n      dup1\n      0x40\n      mstore\n      pop\n      dup2\n      add\n      swap1\n      tag_274\n      swap2\n      swap1\n      tag_164\n      jump\t// in\n    tag_274:\n        /* \"contracts/factories/BondFactory.sol\":3662:3712  _bondToken.bondDataAsStruct(id).tokenAmountPerBond */\n      mload\n        /* \"contracts/factories/BondFactory.sol\":3635:3712  bondQuantity *... */\n      tag_275\n      swap1\n        /* \"contracts/factories/BondFactory.sol\":3635:3647  bondQuantity */\n      dup4\n        /* \"contracts/factories/BondFactory.sol\":3635:3712  bondQuantity *... */\n      tag_174\n      jump\t// in\n    tag_275:\n        /* \"contracts/factories/BondFactory.sol\":3613:3712  uint256 tokenAmount = bondQuantity *... */\n      swap1\n      pop\n        /* \"contracts/factories/BondFactory.sol\":3749:3761  bondQuantity */\n      dup2\n        /* \"contracts/factories/BondFactory.sol\":3723:3741  _purchasedQuantity */\n      0x02\n        /* \"contracts/factories/BondFactory.sol\":3723:3745  _purchasedQuantity[id] */\n      0x00\n        /* \"contracts/factories/BondFactory.sol\":3742:3744  id */\n      dup6\n        /* \"contracts/factories/BondFactory.sol\":3723:3745  _purchasedQuantity[id] */\n      dup2\n      mstore\n      0x20\n      add\n      swap1\n      dup2\n      mstore\n      0x20\n      add\n      0x00\n      keccak256\n      0x00\n        /* \"contracts/factories/BondFactory.sol\":3723:3761  _purchasedQuantity[id] += bondQuantity */\n      dup3\n      dup3\n      sload\n      tag_276\n      swap2\n      swap1\n      tag_277\n      jump\t// in\n    tag_276:\n      swap1\n      swap2\n      sstore\n      pop\n      pop\n        /* \"contracts/factories/BondFactory.sol\":3771:3795  _designatedTokenPool[id] */\n      0x00\n      dup4\n      dup2\n      mstore\n        /* \"contracts/factories/BondFactory.sol\":3771:3791  _designatedTokenPool */\n      0x04\n        /* \"contracts/factories/BondFactory.sol\":3771:3795  _designatedTokenPool[id] */\n      0x20\n      mstore\n      0x40\n      dup2\n      keccak256\n        /* \"contracts/factories/BondFactory.sol\":3771:3810  _designatedTokenPool[id] += tokenAmount */\n      dup1\n      sload\n        /* \"contracts/factories/BondFactory.sol\":3799:3810  tokenAmount */\n      dup4\n      swap3\n        /* \"contracts/factories/BondFactory.sol\":3771:3795  _designatedTokenPool[id] */\n      swap1\n        /* \"contracts/factories/BondFactory.sol\":3771:3810  _designatedTokenPool[id] += tokenAmount */\n      tag_278\n      swap1\n        /* \"contracts/factories/BondFactory.sol\":3799:3810  tokenAmount */\n      dup5\n      swap1\n        /* \"contracts/factories/BondFactory.sol\":3771:3810  _designatedTokenPool[id] += tokenAmount */\n      tag_277\n      jump\t// in\n    tag_278:\n      swap1\n      swap2\n      sstore\n      pop\n      pop\n        /* \"contracts/factories/BondFactory.sol\":3820:3881  _bondDB.incrementTVLByToken(tokenAmount, address(_baseToken)) */\n      mload(0x40)\n      shl(0xe0, 0x83883fe3)\n      dup2\n      mstore\n      0x04\n      dup2\n      add\n        /* \"#utility.yul\":9574:9599   */\n      dup3\n      swap1\n      mstore\n      sub(shl(0xa0, 0x01), 0x01)\n        /* \"contracts/factories/BondFactory.sol\":3869:3879  _baseToken */\n      immutable(\"0xf9bbcd66573bf3c1f4cc184d2152e0dd1704bf0095e444b842e9e57042cbafba\")\n        /* \"#utility.yul\":9635:9667   */\n      dup2\n      and\n        /* \"#utility.yul\":9615:9633   */\n      0x24\n      dup4\n      add\n        /* \"#utility.yul\":9608:9668   */\n      mstore\n        /* \"contracts/factories/BondFactory.sol\":3820:3827  _bondDB */\n      immutable(\"0x2757844bcba802ce24af88f7c8fd3438a9a94d6eea4d1e58913fbc1440605b8d\")\n        /* \"contracts/factories/BondFactory.sol\":3820:3847  _bondDB.incrementTVLByToken */\n      and\n      swap1\n      0x83883fe3\n      swap1\n        /* \"#utility.yul\":9547:9565   */\n      0x44\n      add\n        /* \"contracts/factories/BondFactory.sol\":3820:3881  _bondDB.incrementTVLByToken(tokenAmount, address(_baseToken)) */\n      0x00\n      mload(0x40)\n      dup1\n      dup4\n      sub\n      dup2\n      0x00\n      dup8\n      dup1\n      extcodesize\n      iszero\n      dup1\n      iszero\n      tag_280\n      jumpi\n      0x00\n      dup1\n      revert\n    tag_280:\n      pop\n      gas\n      call\n      iszero\n      dup1\n      iszero\n      tag_282\n      jumpi\n      returndatasize\n      0x00\n      dup1\n      returndatacopy\n      revert(0x00, returndatasize)\n    tag_282:\n      pop\n      pop\n        /* \"contracts/factories/BondFactory.sol\":3891:3960  _bondDB.incrementFundsRaisedByToken(tokenAmount, address(_baseToken)) */\n      mload(0x40)\n      shl(0xe0, 0x576ff163)\n      dup2\n      mstore\n      0x04\n      dup2\n      add\n        /* \"#utility.yul\":9574:9599   */\n      dup5\n      swap1\n      mstore\n      sub(shl(0xa0, 0x01), 0x01)\n        /* \"contracts/factories/BondFactory.sol\":3948:3958  _baseToken */\n      immutable(\"0xf9bbcd66573bf3c1f4cc184d2152e0dd1704bf0095e444b842e9e57042cbafba\")\n        /* \"#utility.yul\":9635:9667   */\n      dup2\n      and\n        /* \"#utility.yul\":9615:9633   */\n      0x24\n      dup4\n      add\n        /* \"#utility.yul\":9608:9668   */\n      mstore\n        /* \"contracts/factories/BondFactory.sol\":3891:3898  _bondDB */\n      immutable(\"0x2757844bcba802ce24af88f7c8fd3438a9a94d6eea4d1e58913fbc1440605b8d\")\n        /* \"contracts/factories/BondFactory.sol\":3891:3926  _bondDB.incrementFundsRaisedByToken */\n      and\n      swap3\n      pop\n      0x576ff163\n      swap2\n      pop\n        /* \"#utility.yul\":9547:9565   */\n      0x44\n      add\n        /* \"contracts/factories/BondFactory.sol\":3891:3960  _bondDB.incrementFundsRaisedByToken(tokenAmount, address(_baseToken)) */\n      0x00\n      mload(0x40)\n      dup1\n      dup4\n      sub\n      dup2\n      0x00\n      dup8\n      dup1\n      extcodesize\n      iszero\n      dup1\n      iszero\n      tag_284\n      jumpi\n      0x00\n      dup1\n      revert\n    tag_284:\n      pop\n      gas\n      call\n      iszero\n      dup1\n      iszero\n      tag_286\n      jumpi\n      returndatasize\n      0x00\n      dup1\n      returndatacopy\n      revert(0x00, returndatasize)\n    tag_286:\n      pop\n      pop\n        /* \"contracts/factories/BondFactory.sol\":3970:4103  _bondDB.incrementFundsRaisedByCompanyAndToken(... */\n      mload(0x40)\n      shl(0xe0, 0xb8c2e4f3)\n      dup2\n      mstore\n      0x04\n      dup2\n      add\n        /* \"#utility.yul\":11758:11783   */\n      dup5\n      swap1\n      mstore\n      sub(shl(0xa0, 0x01), 0x01)\n        /* \"contracts/factories/BondFactory.sol\":4054:4060  _owner */\n      immutable(\"0x22a2e3ce6024cf7fa9f23bb9996411ef645dedafa701962edde7c1d4874e9131\")\n        /* \"#utility.yul\":11857:11872   */\n      dup2\n      and\n        /* \"#utility.yul\":11837:11855   */\n      0x24\n      dup4\n      add\n        /* \"#utility.yul\":11830:11873   */\n      mstore\n        /* \"contracts/factories/BondFactory.sol\":4082:4092  _baseToken */\n      immutable(\"0xf9bbcd66573bf3c1f4cc184d2152e0dd1704bf0095e444b842e9e57042cbafba\")\n        /* \"#utility.yul\":11909:11924   */\n      dup2\n      and\n        /* \"#utility.yul\":11889:11907   */\n      0x44\n      dup4\n      add\n        /* \"#utility.yul\":11882:11925   */\n      mstore\n        /* \"contracts/factories/BondFactory.sol\":3970:3977  _bondDB */\n      immutable(\"0x2757844bcba802ce24af88f7c8fd3438a9a94d6eea4d1e58913fbc1440605b8d\")\n        /* \"contracts/factories/BondFactory.sol\":3970:4015  _bondDB.incrementFundsRaisedByCompanyAndToken */\n      and\n      swap3\n      pop\n      0xb8c2e4f3\n      swap2\n      pop\n        /* \"#utility.yul\":11731:11749   */\n      0x64\n      add\n        /* \"contracts/factories/BondFactory.sol\":3970:4103  _bondDB.incrementFundsRaisedByCompanyAndToken(... */\n      0x00\n      mload(0x40)\n      dup1\n      dup4\n      sub\n      dup2\n      0x00\n      dup8\n      dup1\n      extcodesize\n      iszero\n      dup1\n      iszero\n      tag_289\n      jumpi\n      0x00\n      dup1\n      revert\n    tag_289:\n      pop\n      gas\n      call\n      iszero\n      dup1\n      iszero\n      tag_291\n      jumpi\n      returndatasize\n      0x00\n      dup1\n      returndatacopy\n      revert(0x00, returndatasize)\n    tag_291:\n      pop\n      pop\n        /* \"contracts/factories/BondFactory.sol\":4113:4279  _bondDB.incrementFundsRaisedByCompanyAndTokenAndCategory(... */\n      mload(0x40)\n      shl(0xe0, 0x7db79a3d)\n      dup2\n      mstore\n      0x04\n      dup2\n      add\n        /* \"#utility.yul\":12167:12192   */\n      dup5\n      swap1\n      mstore\n      sub(shl(0xa0, 0x01), 0x01)\n        /* \"contracts/factories/BondFactory.sol\":4208:4214  _owner */\n      immutable(\"0x22a2e3ce6024cf7fa9f23bb9996411ef645dedafa701962edde7c1d4874e9131\")\n        /* \"#utility.yul\":12266:12281   */\n      dup2\n      and\n        /* \"#utility.yul\":12246:12264   */\n      0x24\n      dup4\n      add\n        /* \"#utility.yul\":12239:12282   */\n      mstore\n        /* \"contracts/factories/BondFactory.sol\":4236:4246  _baseToken */\n      immutable(\"0xf9bbcd66573bf3c1f4cc184d2152e0dd1704bf0095e444b842e9e57042cbafba\")\n        /* \"#utility.yul\":12318:12333   */\n      dup2\n      and\n        /* \"#utility.yul\":12298:12316   */\n      0x44\n      dup4\n      add\n        /* \"#utility.yul\":12291:12334   */\n      mstore\n        /* \"contracts/factories/BondFactory.sol\":601:602  1 */\n      0x01\n        /* \"#utility.yul\":12350:12368   */\n      0x64\n      dup4\n      add\n        /* \"#utility.yul\":12343:12377   */\n      mstore\n        /* \"contracts/factories/BondFactory.sol\":4113:4120  _bondDB */\n      immutable(\"0x2757844bcba802ce24af88f7c8fd3438a9a94d6eea4d1e58913fbc1440605b8d\")\n        /* \"contracts/factories/BondFactory.sol\":4113:4169  _bondDB.incrementFundsRaisedByCompanyAndTokenAndCategory */\n      and\n      swap3\n      pop\n      0x7db79a3d\n      swap2\n      pop\n        /* \"#utility.yul\":12139:12158   */\n      0x84\n      add\n        /* \"contracts/factories/BondFactory.sol\":4113:4279  _bondDB.incrementFundsRaisedByCompanyAndTokenAndCategory(... */\n      0x00\n      mload(0x40)\n      dup1\n      dup4\n      sub\n      dup2\n      0x00\n      dup8\n      dup1\n      extcodesize\n      iszero\n      dup1\n      iszero\n      tag_294\n      jumpi\n      0x00\n      dup1\n      revert\n    tag_294:\n      pop\n      gas\n      call\n      iszero\n      dup1\n      iszero\n      tag_296\n      jumpi\n      returndatasize\n      0x00\n      dup1\n      returndatacopy\n      revert(0x00, returndatasize)\n    tag_296:\n      pop\n      pop\n        /* \"contracts/factories/BondFactory.sol\":4289:4425  _bondDB.incrementFundsRaisedByTokenAndCategory(... */\n      mload(0x40)\n      shl(0xe1, 0x585a6fd5)\n      dup2\n      mstore\n      0x04\n      dup2\n      add\n        /* \"#utility.yul\":12590:12615   */\n      dup5\n      swap1\n      mstore\n      sub(shl(0xa0, 0x01), 0x01)\n        /* \"contracts/factories/BondFactory.sol\":4382:4392  _baseToken */\n      immutable(\"0xf9bbcd66573bf3c1f4cc184d2152e0dd1704bf0095e444b842e9e57042cbafba\")\n        /* \"#utility.yul\":12651:12683   */\n      dup2\n      and\n        /* \"#utility.yul\":12631:12649   */\n      0x24\n      dup4\n      add\n        /* \"#utility.yul\":12624:12684   */\n      mstore\n        /* \"contracts/factories/BondFactory.sol\":601:602  1 */\n      0x01\n        /* \"#utility.yul\":12700:12718   */\n      0x44\n      dup4\n      add\n        /* \"#utility.yul\":12693:12727   */\n      mstore\n        /* \"contracts/factories/BondFactory.sol\":4289:4296  _bondDB */\n      immutable(\"0x2757844bcba802ce24af88f7c8fd3438a9a94d6eea4d1e58913fbc1440605b8d\")\n        /* \"contracts/factories/BondFactory.sol\":4289:4335  _bondDB.incrementFundsRaisedByTokenAndCategory */\n      and\n      swap3\n      pop\n      0xb0b4dfaa\n      swap2\n      pop\n        /* \"#utility.yul\":12563:12581   */\n      0x64\n      add\n        /* \"contracts/factories/BondFactory.sol\":4289:4425  _bondDB.incrementFundsRaisedByTokenAndCategory(... */\n      0x00\n      mload(0x40)\n      dup1\n      dup4\n      sub\n      dup2\n      0x00\n      dup8\n      dup1\n      extcodesize\n      iszero\n      dup1\n      iszero\n      tag_299\n      jumpi\n      0x00\n      dup1\n      revert\n    tag_299:\n      pop\n      gas\n      call\n      iszero\n      dup1\n      iszero\n      tag_301\n      jumpi\n      returndatasize\n      0x00\n      dup1\n      returndatacopy\n      revert(0x00, returndatasize)\n    tag_301:\n      pop\n      pop\n        /* \"contracts/factories/BondFactory.sol\":4436:4582  _bondToken.safeTransferFrom(... */\n      mload(0x40)\n      shl(0xe1, 0x79212195)\n      dup2\n      mstore\n        /* \"contracts/factories/BondFactory.sol\":4485:4489  this */\n      address\n        /* \"contracts/factories/BondFactory.sol\":4436:4582  _bondToken.safeTransferFrom(... */\n      0x04\n      dup3\n      add\n        /* \"#utility.yul\":13071:13105   */\n      mstore\n        /* \"contracts/factories/BondFactory.sol\":4504:4514  msg.sender */\n      caller\n        /* \"#utility.yul\":13121:13139   */\n      0x24\n      dup3\n      add\n        /* \"#utility.yul\":13114:13157   */\n      mstore\n        /* \"#utility.yul\":13173:13191   */\n      0x44\n      dup2\n      add\n        /* \"#utility.yul\":13166:13200   */\n      dup7\n      swap1\n      mstore\n        /* \"#utility.yul\":13216:13234   */\n      0x64\n      dup2\n      add\n        /* \"#utility.yul\":13209:13243   */\n      dup6\n      swap1\n      mstore\n        /* \"#utility.yul\":13051:13054   */\n      0xa0\n        /* \"#utility.yul\":13259:13278   */\n      0x84\n      dup3\n      add\n        /* \"#utility.yul\":13252:13284   */\n      mstore\n      0x00\n        /* \"#utility.yul\":13300:13319   */\n      0xa4\n      dup3\n      add\n        /* \"#utility.yul\":13293:13323   */\n      mstore\n        /* \"contracts/factories/BondFactory.sol\":4436:4446  _bondToken */\n      immutable(\"0xc322ff1198f1018f90524fe27b385729b363ae518172debfa915634c95ec9ba4\")\n      sub(shl(0xa0, 0x01), 0x01)\n        /* \"contracts/factories/BondFactory.sol\":4436:4463  _bondToken.safeTransferFrom */\n      and\n      swap3\n      pop\n      0xf242432a\n      swap2\n      pop\n        /* \"#utility.yul\":13340:13359   */\n      0xc4\n      add\n        /* \"contracts/factories/BondFactory.sol\":4436:4582  _bondToken.safeTransferFrom(... */\n      0x00\n      mload(0x40)\n      dup1\n      dup4\n      sub\n      dup2\n      0x00\n      dup8\n      dup1\n      extcodesize\n      iszero\n      dup1\n      iszero\n      tag_304\n      jumpi\n      0x00\n      dup1\n      revert\n    tag_304:\n      pop\n      gas\n      call\n      iszero\n      dup1\n      iszero\n      tag_306\n      jumpi\n      returndatasize\n      0x00\n      dup1\n      returndatacopy\n      revert(0x00, returndatasize)\n    tag_306:\n      pop\n      pop\n        /* \"contracts/factories/BondFactory.sol\":4592:4655  _baseToken.transferFrom(msg.sender, address(this), tokenAmount) */\n      mload(0x40)\n      shl(0xe0, 0x23b872dd)\n      dup2\n      mstore\n        /* \"contracts/factories/BondFactory.sol\":4616:4626  msg.sender */\n      caller\n        /* \"contracts/factories/BondFactory.sol\":4592:4655  _baseToken.transferFrom(msg.sender, address(this), tokenAmount) */\n      0x04\n      dup3\n      add\n        /* \"#utility.yul\":13610:13644   */\n      mstore\n        /* \"contracts/factories/BondFactory.sol\":4636:4640  this */\n      address\n        /* \"#utility.yul\":13660:13678   */\n      0x24\n      dup3\n      add\n        /* \"#utility.yul\":13653:13696   */\n      mstore\n        /* \"#utility.yul\":13712:13730   */\n      0x44\n      dup2\n      add\n        /* \"#utility.yul\":13705:13739   */\n      dup5\n      swap1\n      mstore\n        /* \"contracts/factories/BondFactory.sol\":4592:4602  _baseToken */\n      immutable(\"0xf9bbcd66573bf3c1f4cc184d2152e0dd1704bf0095e444b842e9e57042cbafba\")\n      sub(shl(0xa0, 0x01), 0x01)\n        /* \"contracts/factories/BondFactory.sol\":4592:4615  _baseToken.transferFrom */\n      and\n      swap3\n      pop\n      0x23b872dd\n      swap2\n      pop\n        /* \"#utility.yul\":13545:13563   */\n      0x64\n      add\n        /* \"contracts/factories/BondFactory.sol\":4592:4655  _baseToken.transferFrom(msg.sender, address(this), tokenAmount) */\n      0x20\n      mload(0x40)\n      dup1\n      dup4\n      sub\n      dup2\n      0x00\n      dup8\n      gas\n      call\n      iszero\n      dup1\n      iszero\n      tag_310\n      jumpi\n      returndatasize\n      0x00\n      dup1\n      returndatacopy\n      revert(0x00, returndatasize)\n    tag_310:\n      pop\n      pop\n      pop\n      pop\n      mload(0x40)\n      returndatasize\n      not(0x1f)\n      0x1f\n      dup3\n      add\n      and\n      dup3\n      add\n      dup1\n      0x40\n      mstore\n      pop\n      dup2\n      add\n      swap1\n      tag_311\n      swap2\n      swap1\n      tag_181\n      jump\t// in\n    tag_311:\n      pop\n        /* \"contracts/factories/BondFactory.sol\":3492:4662  {... */\n      pop\n        /* \"contracts/factories/BondFactory.sol\":3431:4662  function purchase(uint256 id, uint256 bondQuantity) external {... */\n      pop\n      pop\n      jump\t// out\n        /* \"contracts/factories/BondFactory.sol\":9870:10108  function principalWithInterest(... */\n    tag_95:\n        /* \"contracts/factories/BondFactory.sol\":10039:10070  _bondToken.bondDataAsStruct(id) */\n      mload(0x40)\n      shl(0xe0, 0x4dd9c9c7)\n      dup2\n      mstore\n      0x04\n      dup2\n      add\n        /* \"#utility.yul\":828:853   */\n      dup3\n      swap1\n      mstore\n        /* \"contracts/factories/BondFactory.sol\":9956:9963  uint256 */\n      0x00\n      swap1\n        /* \"contracts/factories/BondFactory.sol\":10097:10101  1e18 */\n      0x0de0b6b3a7640000\n      swap1\n      sub(shl(0xa0, 0x01), 0x01)\n        /* \"contracts/factories/BondFactory.sol\":10039:10049  _bondToken */\n      immutable(\"0xc322ff1198f1018f90524fe27b385729b363ae518172debfa915634c95ec9ba4\")\n        /* \"contracts/factories/BondFactory.sol\":10039:10066  _bondToken.bondDataAsStruct */\n      and\n      swap1\n      0x4dd9c9c7\n      swap1\n        /* \"#utility.yul\":801:819   */\n      0x24\n      add\n        /* \"contracts/factories/BondFactory.sol\":10039:10070  _bondToken.bondDataAsStruct(id) */\n      0x0120\n      mload(0x40)\n      dup1\n      dup4\n      sub\n      dup2\n      dup7\n      gas\n      staticcall\n      iszero\n      dup1\n      iszero\n      tag_315\n      jumpi\n      returndatasize\n      0x00\n      dup1\n      returndatacopy\n      revert(0x00, returndatasize)\n    tag_315:\n      pop\n      pop\n      pop\n      pop\n      mload(0x40)\n      returndatasize\n      not(0x1f)\n      0x1f\n      dup3\n      add\n      and\n      dup3\n      add\n      dup1\n      0x40\n      mstore\n      pop\n      dup2\n      add\n      swap1\n      tag_316\n      swap2\n      swap1\n      tag_164\n      jump\t// in\n    tag_316:\n        /* \"contracts/factories/BondFactory.sol\":10039:10081  _bondToken.bondDataAsStruct(id).couponRate */\n      0x0100\n      add\n      mload\n        /* \"contracts/factories/BondFactory.sol\":10023:10036  principal(id) */\n      tag_317\n        /* \"contracts/factories/BondFactory.sol\":10033:10035  id */\n      dup5\n        /* \"contracts/factories/BondFactory.sol\":10023:10032  principal */\n      tag_61\n        /* \"contracts/factories/BondFactory.sol\":10023:10036  principal(id) */\n      jump\t// in\n    tag_317:\n        /* \"contracts/factories/BondFactory.sol\":10023:10081  principal(id) * _bondToken.bondDataAsStruct(id).couponRate */\n      tag_318\n      swap2\n      swap1\n      tag_174\n      jump\t// in\n    tag_318:\n        /* \"contracts/factories/BondFactory.sol\":10022:10101  (principal(id) * _bondToken.bondDataAsStruct(id).couponRate) /... */\n      tag_319\n      swap2\n      swap1\n      tag_240\n      jump\t// in\n    tag_319:\n        /* \"contracts/factories/BondFactory.sol\":9994:10007  principal(id) */\n      tag_320\n        /* \"contracts/factories/BondFactory.sol\":10004:10006  id */\n      dup4\n        /* \"contracts/factories/BondFactory.sol\":9994:10003  principal */\n      tag_61\n        /* \"contracts/factories/BondFactory.sol\":9994:10007  principal(id) */\n      jump\t// in\n    tag_320:\n        /* \"contracts/factories/BondFactory.sol\":9994:10101  principal(id) +... */\n      tag_156\n      swap2\n      swap1\n      tag_277\n      jump\t// in\n        /* \"contracts/factories/BondFactory.sol\":5650:6822  function redeem(uint256 id, uint256 bondQuantity) external {... */\n    tag_103:\n        /* \"contracts/factories/BondFactory.sol\":5727:5763  _bondToken.balanceOf(msg.sender, id) */\n      mload(0x40)\n      shl(0xe1, 0x7eeac7)\n      dup2\n      mstore\n        /* \"contracts/factories/BondFactory.sol\":5748:5758  msg.sender */\n      caller\n        /* \"contracts/factories/BondFactory.sol\":5727:5763  _bondToken.balanceOf(msg.sender, id) */\n      0x04\n      dup3\n      add\n        /* \"#utility.yul\":9853:9904   */\n      mstore\n        /* \"#utility.yul\":9920:9938   */\n      0x24\n      dup2\n      add\n        /* \"#utility.yul\":9913:9947   */\n      dup4\n      swap1\n      mstore\n        /* \"contracts/factories/BondFactory.sol\":5767:5779  bondQuantity */\n      dup2\n      swap1\n        /* \"contracts/factories/BondFactory.sol\":5727:5737  _bondToken */\n      immutable(\"0xc322ff1198f1018f90524fe27b385729b363ae518172debfa915634c95ec9ba4\")\n      sub(shl(0xa0, 0x01), 0x01)\n        /* \"contracts/factories/BondFactory.sol\":5727:5747  _bondToken.balanceOf */\n      and\n      swap1\n      0xfdd58e\n      swap1\n        /* \"#utility.yul\":9826:9844   */\n      0x44\n      add\n        /* \"contracts/factories/BondFactory.sol\":5727:5763  _bondToken.balanceOf(msg.sender, id) */\n      0x20\n      mload(0x40)\n      dup1\n      dup4\n      sub\n      dup2\n      dup7\n      gas\n      staticcall\n      iszero\n      dup1\n      iszero\n      tag_326\n      jumpi\n      returndatasize\n      0x00\n      dup1\n      returndatacopy\n      revert(0x00, returndatasize)\n    tag_326:\n      pop\n      pop\n      pop\n      pop\n      mload(0x40)\n      returndatasize\n      not(0x1f)\n      0x1f\n      dup3\n      add\n      and\n      dup3\n      add\n      dup1\n      0x40\n      mstore\n      pop\n      dup2\n      add\n      swap1\n      tag_327\n      swap2\n      swap1\n      tag_328\n      jump\t// in\n    tag_327:\n        /* \"contracts/factories/BondFactory.sol\":5727:5779  _bondToken.balanceOf(msg.sender, id) >= bondQuantity */\n      lt\n      iszero\n        /* \"contracts/factories/BondFactory.sol\":5719:5786  require(_bondToken.balanceOf(msg.sender, id) >= bondQuantity, \"IQ\") */\n      tag_329\n      jumpi\n      mload(0x40)\n      shl(0xe5, 0x461bcd)\n      dup2\n      mstore\n        /* \"#utility.yul\":11298:11300   */\n      0x20\n        /* \"contracts/factories/BondFactory.sol\":5719:5786  require(_bondToken.balanceOf(msg.sender, id) >= bondQuantity, \"IQ\") */\n      0x04\n      dup3\n      add\n        /* \"#utility.yul\":11280:11301   */\n      mstore\n        /* \"#utility.yul\":11337:11338   */\n      0x02\n        /* \"#utility.yul\":11317:11335   */\n      0x24\n      dup3\n      add\n        /* \"#utility.yul\":11310:11339   */\n      mstore\n      shl(0xf0, 0x4951)\n        /* \"#utility.yul\":11355:11373   */\n      0x44\n      dup3\n      add\n        /* \"#utility.yul\":11348:11380   */\n      mstore\n        /* \"#utility.yul\":11397:11415   */\n      0x64\n      add\n        /* \"contracts/factories/BondFactory.sol\":5719:5786  require(_bondToken.balanceOf(msg.sender, id) >= bondQuantity, \"IQ\") */\n      tag_193\n        /* \"#utility.yul\":11096:11421   */\n      jump\n        /* \"contracts/factories/BondFactory.sol\":5719:5786  require(_bondToken.balanceOf(msg.sender, id) >= bondQuantity, \"IQ\") */\n    tag_329:\n        /* \"contracts/factories/BondFactory.sol\":10860:10864  bool */\n      0x00\n        /* \"contracts/factories/BondFactory.sol\":10883:10899  _isCompleted[id] */\n      dup3\n      dup2\n      mstore\n        /* \"contracts/factories/BondFactory.sol\":10883:10895  _isCompleted */\n      0x09\n        /* \"contracts/factories/BondFactory.sol\":10883:10899  _isCompleted[id] */\n      0x20\n      mstore\n      0x40\n      swap1\n      keccak256\n      sload\n      0xff\n      and\n        /* \"contracts/factories/BondFactory.sol\":5805:5838  isCompleted(id) || isCanceled(id) */\n      dup1\n      tag_333\n      jumpi\n      pop\n        /* \"contracts/factories/BondFactory.sol\":5824:5838  isCanceled(id) */\n      tag_333\n        /* \"contracts/factories/BondFactory.sol\":5835:5837  id */\n      dup3\n        /* \"contracts/factories/BondFactory.sol\":5824:5834  isCanceled */\n      tag_73\n        /* \"contracts/factories/BondFactory.sol\":5824:5838  isCanceled(id) */\n      jump\t// in\n    tag_333:\n        /* \"contracts/factories/BondFactory.sol\":5805:5857  isCompleted(id) || isCanceled(id) || isDefaulted(id) */\n      dup1\n      tag_335\n      jumpi\n      pop\n        /* \"contracts/factories/BondFactory.sol\":11421:11425  bool */\n      0x00\n        /* \"contracts/factories/BondFactory.sol\":11444:11460  _isDefaulted[id] */\n      dup3\n      dup2\n      mstore\n        /* \"contracts/factories/BondFactory.sol\":11444:11456  _isDefaulted */\n      0x08\n        /* \"contracts/factories/BondFactory.sol\":11444:11460  _isDefaulted[id] */\n      0x20\n      mstore\n      0x40\n      swap1\n      keccak256\n      sload\n      0xff\n      and\n        /* \"contracts/factories/BondFactory.sol\":5842:5857  isDefaulted(id) */\n    tag_335:\n        /* \"contracts/factories/BondFactory.sol\":5797:5865  require(isCompleted(id) || isCanceled(id) || isDefaulted(id), \"RNA\") */\n      tag_336\n      jumpi\n      mload(0x40)\n      shl(0xe5, 0x461bcd)\n      dup2\n      mstore\n        /* \"#utility.yul\":14141:14143   */\n      0x20\n        /* \"contracts/factories/BondFactory.sol\":5797:5865  require(isCompleted(id) || isCanceled(id) || isDefaulted(id), \"RNA\") */\n      0x04\n      dup3\n      add\n        /* \"#utility.yul\":14123:14144   */\n      mstore\n        /* \"#utility.yul\":14180:14181   */\n      0x03\n        /* \"#utility.yul\":14160:14178   */\n      0x24\n      dup3\n      add\n        /* \"#utility.yul\":14153:14182   */\n      mstore\n      shl(0xe8, 0x524e41)\n        /* \"#utility.yul\":14198:14216   */\n      0x44\n      dup3\n      add\n        /* \"#utility.yul\":14191:14224   */\n      mstore\n        /* \"#utility.yul\":14241:14259   */\n      0x64\n      add\n        /* \"contracts/factories/BondFactory.sol\":5797:5865  require(isCompleted(id) || isCanceled(id) || isDefaulted(id), \"RNA\") */\n      tag_193\n        /* \"#utility.yul\":13939:14265   */\n      jump\n        /* \"contracts/factories/BondFactory.sol\":5797:5865  require(isCompleted(id) || isCanceled(id) || isDefaulted(id), \"RNA\") */\n    tag_336:\n        /* \"contracts/factories/BondFactory.sol\":5876:5902  uint256 tokenAmountPerBond */\n      0x00\n        /* \"contracts/factories/BondFactory.sol\":10883:10899  _isCompleted[id] */\n      dup3\n      dup2\n      mstore\n        /* \"contracts/factories/BondFactory.sol\":10883:10895  _isCompleted */\n      0x09\n        /* \"contracts/factories/BondFactory.sol\":10883:10899  _isCompleted[id] */\n      0x20\n      mstore\n      0x40\n      dup2\n      keccak256\n      sload\n        /* \"contracts/factories/BondFactory.sol\":5876:5902  uint256 tokenAmountPerBond */\n      dup2\n      swap1\n        /* \"contracts/factories/BondFactory.sol\":10883:10899  _isCompleted[id] */\n      0xff\n      and\n        /* \"contracts/factories/BondFactory.sol\":5936:6411  if (isCompleted(id)) {... */\n      iszero\n      tag_340\n      jumpi\n      pop\n      pop\n        /* \"contracts/factories/BondFactory.sol\":5992:6028  _tokenAmountPerBondAfterComplete[id] */\n      0x00\n      dup3\n      dup2\n      mstore\n        /* \"contracts/factories/BondFactory.sol\":5992:6024  _tokenAmountPerBondAfterComplete */\n      0x06\n        /* \"contracts/factories/BondFactory.sol\":5992:6028  _tokenAmountPerBondAfterComplete[id] */\n      0x20\n      mstore\n      0x40\n      dup2\n      keccak256\n      sload\n      swap1\n        /* \"contracts/factories/BondFactory.sol\":5936:6411  if (isCompleted(id)) {... */\n      jump(tag_351)\n    tag_340:\n        /* \"contracts/factories/BondFactory.sol\":6072:6086  isCanceled(id) */\n      tag_342\n        /* \"contracts/factories/BondFactory.sol\":6083:6085  id */\n      dup5\n        /* \"contracts/factories/BondFactory.sol\":6072:6082  isCanceled */\n      tag_73\n        /* \"contracts/factories/BondFactory.sol\":6072:6086  isCanceled(id) */\n      jump\t// in\n    tag_342:\n        /* \"contracts/factories/BondFactory.sol\":6068:6411  if (isCanceled(id)) {... */\n      iszero\n      tag_343\n      jumpi\n        /* \"contracts/factories/BondFactory.sol\":6123:6171  _bondToken... */\n      mload(0x40)\n      shl(0xe0, 0x4dd9c9c7)\n      dup2\n      mstore\n      0x04\n      dup2\n      add\n        /* \"#utility.yul\":828:853   */\n      dup6\n      swap1\n      mstore\n        /* \"contracts/factories/BondFactory.sol\":6123:6133  _bondToken */\n      immutable(\"0xc322ff1198f1018f90524fe27b385729b363ae518172debfa915634c95ec9ba4\")\n      sub(shl(0xa0, 0x01), 0x01)\n        /* \"contracts/factories/BondFactory.sol\":6123:6167  _bondToken... */\n      and\n      swap1\n      0x4dd9c9c7\n      swap1\n        /* \"#utility.yul\":801:819   */\n      0x24\n      add\n        /* \"contracts/factories/BondFactory.sol\":6123:6171  _bondToken... */\n      0x0120\n      mload(0x40)\n      dup1\n      dup4\n      sub\n      dup2\n      dup7\n      gas\n      staticcall\n      iszero\n      dup1\n      iszero\n      tag_346\n      jumpi\n      returndatasize\n      0x00\n      dup1\n      returndatacopy\n      revert(0x00, returndatasize)\n    tag_346:\n      pop\n      pop\n      pop\n      pop\n      mload(0x40)\n      returndatasize\n      not(0x1f)\n      0x1f\n      dup3\n      add\n      and\n      dup3\n      add\n      dup1\n      0x40\n      mstore\n      pop\n      dup2\n      add\n      swap1\n      tag_347\n      swap2\n      swap1\n      tag_164\n      jump\t// in\n    tag_347:\n        /* \"contracts/factories/BondFactory.sol\":6123:6207  _bondToken... */\n      mload\n      swap2\n      pop\n        /* \"contracts/factories/BondFactory.sol\":6229:6230  1 */\n      0x01\n      swap1\n      pop\n        /* \"contracts/factories/BondFactory.sol\":6068:6411  if (isCanceled(id)) {... */\n      jump(tag_351)\n    tag_343:\n        /* \"contracts/factories/BondFactory.sol\":11421:11425  bool */\n      0x00\n        /* \"contracts/factories/BondFactory.sol\":11444:11460  _isDefaulted[id] */\n      dup5\n      dup2\n      mstore\n        /* \"contracts/factories/BondFactory.sol\":11444:11456  _isDefaulted */\n      0x08\n        /* \"contracts/factories/BondFactory.sol\":11444:11460  _isDefaulted[id] */\n      0x20\n      mstore\n      0x40\n      swap1\n      keccak256\n      sload\n      0xff\n      and\n        /* \"contracts/factories/BondFactory.sol\":6247:6411  if (isDefaulted(id)) {... */\n      iszero\n      tag_2\n      jumpi\n      pop\n      pop\n        /* \"contracts/factories/BondFactory.sol\":6303:6338  _tokenAmountPerBondAfterDefault[id] */\n      0x00\n      dup3\n      dup2\n      mstore\n        /* \"contracts/factories/BondFactory.sol\":6303:6334  _tokenAmountPerBondAfterDefault */\n      0x05\n        /* \"contracts/factories/BondFactory.sol\":6303:6338  _tokenAmountPerBondAfterDefault[id] */\n      0x20\n      mstore\n      0x40\n      swap1\n      keccak256\n      sload\n        /* \"contracts/factories/BondFactory.sol\":6360:6361  2 */\n      0x02\n        /* \"contracts/factories/BondFactory.sol\":6247:6411  if (isDefaulted(id)) {... */\n    tag_351:\n        /* \"contracts/factories/BondFactory.sol\":6421:6466  _bondToken.burn(msg.sender, id, bondQuantity) */\n      mload(0x40)\n      shl(0xe1, 0x7a94c565)\n      dup2\n      mstore\n        /* \"contracts/factories/BondFactory.sol\":6437:6447  msg.sender */\n      caller\n        /* \"contracts/factories/BondFactory.sol\":6421:6466  _bondToken.burn(msg.sender, id, bondQuantity) */\n      0x04\n      dup3\n      add\n        /* \"#utility.yul\":14472:14523   */\n      mstore\n        /* \"#utility.yul\":14539:14557   */\n      0x24\n      dup2\n      add\n        /* \"#utility.yul\":14532:14566   */\n      dup6\n      swap1\n      mstore\n        /* \"#utility.yul\":14582:14600   */\n      0x44\n      dup2\n      add\n        /* \"#utility.yul\":14575:14609   */\n      dup5\n      swap1\n      mstore\n        /* \"contracts/factories/BondFactory.sol\":6421:6431  _bondToken */\n      immutable(\"0xc322ff1198f1018f90524fe27b385729b363ae518172debfa915634c95ec9ba4\")\n      sub(shl(0xa0, 0x01), 0x01)\n        /* \"contracts/factories/BondFactory.sol\":6421:6436  _bondToken.burn */\n      and\n      swap1\n      0xf5298aca\n      swap1\n        /* \"#utility.yul\":14445:14463   */\n      0x64\n      add\n        /* \"contracts/factories/BondFactory.sol\":6421:6466  _bondToken.burn(msg.sender, id, bondQuantity) */\n      0x00\n      mload(0x40)\n      dup1\n      dup4\n      sub\n      dup2\n      0x00\n      dup8\n      dup1\n      extcodesize\n      iszero\n      dup1\n      iszero\n      tag_354\n      jumpi\n      0x00\n      dup1\n      revert\n    tag_354:\n      pop\n      gas\n      call\n      iszero\n      dup1\n      iszero\n      tag_356\n      jumpi\n      returndatasize\n      0x00\n      dup1\n      returndatacopy\n      revert(0x00, returndatasize)\n    tag_356:\n      pop\n      pop\n      pop\n        /* \"contracts/factories/BondFactory.sol\":6476:6497  _redeemedQuantity[id] */\n      0x00\n      dup6\n      dup2\n      mstore\n        /* \"contracts/factories/BondFactory.sol\":6476:6493  _redeemedQuantity */\n      0x03\n        /* \"contracts/factories/BondFactory.sol\":6476:6497  _redeemedQuantity[id] */\n      0x20\n      mstore\n      0x40\n      dup2\n      keccak256\n        /* \"contracts/factories/BondFactory.sol\":6476:6513  _redeemedQuantity[id] += bondQuantity */\n      dup1\n      sload\n        /* \"contracts/factories/BondFactory.sol\":6501:6513  bondQuantity */\n      dup7\n      swap4\n      pop\n        /* \"contracts/factories/BondFactory.sol\":6476:6497  _redeemedQuantity[id] */\n      swap1\n      swap2\n      swap1\n        /* \"contracts/factories/BondFactory.sol\":6476:6513  _redeemedQuantity[id] += bondQuantity */\n      tag_357\n      swap1\n        /* \"contracts/factories/BondFactory.sol\":6501:6513  bondQuantity */\n      dup5\n      swap1\n        /* \"contracts/factories/BondFactory.sol\":6476:6513  _redeemedQuantity[id] += bondQuantity */\n      tag_277\n      jump\t// in\n    tag_357:\n      swap1\n      swap2\n      sstore\n      pop\n        /* \"contracts/factories/BondFactory.sol\":6523:6542  uint256 tokenAmount */\n      0x00\n      swap1\n      pop\n        /* \"contracts/factories/BondFactory.sol\":6545:6578  bondQuantity * tokenAmountPerBond */\n      tag_358\n        /* \"contracts/factories/BondFactory.sol\":6560:6578  tokenAmountPerBond */\n      dup4\n        /* \"contracts/factories/BondFactory.sol\":6545:6557  bondQuantity */\n      dup6\n        /* \"contracts/factories/BondFactory.sol\":6545:6578  bondQuantity * tokenAmountPerBond */\n      tag_174\n      jump\t// in\n    tag_358:\n        /* \"contracts/factories/BondFactory.sol\":6523:6578  uint256 tokenAmount = bondQuantity * tokenAmountPerBond */\n      swap1\n      pop\n        /* \"contracts/factories/BondFactory.sol\":6617:6628  tokenAmount */\n      dup1\n        /* \"contracts/factories/BondFactory.sol\":6589:6609  _designatedTokenPool */\n      0x04\n        /* \"contracts/factories/BondFactory.sol\":6589:6613  _designatedTokenPool[id] */\n      0x00\n        /* \"contracts/factories/BondFactory.sol\":6610:6612  id */\n      dup8\n        /* \"contracts/factories/BondFactory.sol\":6589:6613  _designatedTokenPool[id] */\n      dup2\n      mstore\n      0x20\n      add\n      swap1\n      dup2\n      mstore\n      0x20\n      add\n      0x00\n      keccak256\n      0x00\n        /* \"contracts/factories/BondFactory.sol\":6589:6628  _designatedTokenPool[id] -= tokenAmount */\n      dup3\n      dup3\n      sload\n      tag_359\n      swap2\n      swap1\n      tag_215\n      jump\t// in\n    tag_359:\n      swap1\n      swap2\n      sstore\n      pop\n      pop\n        /* \"contracts/factories/BondFactory.sol\":6638:6699  _bondDB.decrementTVLByToken(tokenAmount, address(_baseToken)) */\n      mload(0x40)\n      shl(0xe2, 0x2f2b9a09)\n      dup2\n      mstore\n      0x04\n      dup2\n      add\n        /* \"#utility.yul\":9574:9599   */\n      dup3\n      swap1\n      mstore\n      sub(shl(0xa0, 0x01), 0x01)\n        /* \"contracts/factories/BondFactory.sol\":6687:6697  _baseToken */\n      immutable(\"0xf9bbcd66573bf3c1f4cc184d2152e0dd1704bf0095e444b842e9e57042cbafba\")\n        /* \"#utility.yul\":9635:9667   */\n      dup2\n      and\n        /* \"#utility.yul\":9615:9633   */\n      0x24\n      dup4\n      add\n        /* \"#utility.yul\":9608:9668   */\n      mstore\n        /* \"contracts/factories/BondFactory.sol\":6638:6645  _bondDB */\n      immutable(\"0x2757844bcba802ce24af88f7c8fd3438a9a94d6eea4d1e58913fbc1440605b8d\")\n        /* \"contracts/factories/BondFactory.sol\":6638:6665  _bondDB.decrementTVLByToken */\n      and\n      swap1\n      0xbcae6824\n      swap1\n        /* \"#utility.yul\":9547:9565   */\n      0x44\n      add\n        /* \"contracts/factories/BondFactory.sol\":6638:6699  _bondDB.decrementTVLByToken(tokenAmount, address(_baseToken)) */\n      0x00\n      mload(0x40)\n      dup1\n      dup4\n      sub\n      dup2\n      0x00\n      dup8\n      dup1\n      extcodesize\n      iszero\n      dup1\n      iszero\n      tag_361\n      jumpi\n      0x00\n      dup1\n      revert\n    tag_361:\n      pop\n      gas\n      call\n      iszero\n      dup1\n      iszero\n      tag_363\n      jumpi\n      returndatasize\n      0x00\n      dup1\n      returndatacopy\n      revert(0x00, returndatasize)\n    tag_363:\n      pop\n      pop\n        /* \"contracts/factories/BondFactory.sol\":6710:6754  _baseToken.transfer(msg.sender, tokenAmount) */\n      mload(0x40)\n      shl(0xe0, 0xa9059cbb)\n      dup2\n      mstore\n        /* \"contracts/factories/BondFactory.sol\":6730:6740  msg.sender */\n      caller\n        /* \"contracts/factories/BondFactory.sol\":6710:6754  _baseToken.transfer(msg.sender, tokenAmount) */\n      0x04\n      dup3\n      add\n        /* \"#utility.yul\":9853:9904   */\n      mstore\n        /* \"#utility.yul\":9920:9938   */\n      0x24\n      dup2\n      add\n        /* \"#utility.yul\":9913:9947   */\n      dup5\n      swap1\n      mstore\n        /* \"contracts/factories/BondFactory.sol\":6710:6720  _baseToken */\n      immutable(\"0xf9bbcd66573bf3c1f4cc184d2152e0dd1704bf0095e444b842e9e57042cbafba\")\n      sub(shl(0xa0, 0x01), 0x01)\n        /* \"contracts/factories/BondFactory.sol\":6710:6729  _baseToken.transfer */\n      and\n      swap3\n      pop\n      0xa9059cbb\n      swap2\n      pop\n        /* \"#utility.yul\":9826:9844   */\n      0x44\n      add\n        /* \"contracts/factories/BondFactory.sol\":6710:6754  _baseToken.transfer(msg.sender, tokenAmount) */\n      0x20\n      mload(0x40)\n      dup1\n      dup4\n      sub\n      dup2\n      0x00\n      dup8\n      gas\n      call\n      iszero\n      dup1\n      iszero\n      tag_366\n      jumpi\n      returndatasize\n      0x00\n      dup1\n      returndatacopy\n      revert(0x00, returndatasize)\n    tag_366:\n      pop\n      pop\n      pop\n      pop\n      mload(0x40)\n      returndatasize\n      not(0x1f)\n      0x1f\n      dup3\n      add\n      and\n      dup3\n      add\n      dup1\n      0x40\n      mstore\n      pop\n      dup2\n      add\n      swap1\n      tag_367\n      swap2\n      swap1\n      tag_181\n      jump\t// in\n    tag_367:\n      pop\n        /* \"contracts/factories/BondFactory.sol\":6770:6815  Redeemed(id, msg.sender, bondQuantity, state) */\n      0x40\n      dup1\n      mload\n        /* \"contracts/factories/BondFactory.sol\":6783:6793  msg.sender */\n      caller\n        /* \"#utility.yul\":14472:14523   */\n      dup2\n      mstore\n        /* \"#utility.yul\":14554:14556   */\n      0x20\n        /* \"#utility.yul\":14539:14557   */\n      dup2\n      add\n        /* \"#utility.yul\":14532:14566   */\n      dup7\n      swap1\n      mstore\n        /* \"#utility.yul\":14582:14600   */\n      swap1\n      dup2\n      add\n        /* \"#utility.yul\":14575:14609   */\n      dup4\n      swap1\n      mstore\n        /* \"contracts/factories/BondFactory.sol\":6779:6781  id */\n      dup6\n      swap1\n        /* \"contracts/factories/BondFactory.sol\":6770:6815  Redeemed(id, msg.sender, bondQuantity, state) */\n      0xa5851b0172fdafd3dafe0e52ce051747548a4c642a2f22793c01faf228e13062\n      swap1\n        /* \"#utility.yul\":14460:14462   */\n      0x60\n        /* \"#utility.yul\":14445:14463   */\n      add\n        /* \"contracts/factories/BondFactory.sol\":6770:6815  Redeemed(id, msg.sender, bondQuantity, state) */\n      mload(0x40)\n      dup1\n      swap2\n      sub\n      swap1\n      log2\n        /* \"contracts/factories/BondFactory.sol\":5709:6822  {... */\n      pop\n      pop\n      pop\n        /* \"contracts/factories/BondFactory.sol\":5650:6822  function redeem(uint256 id, uint256 bondQuantity) external {... */\n      pop\n      pop\n      jump\t// out\n        /* \"contracts/factories/BondFactory.sol\":9486:9674  function remainingQuantity(uint256 id) public view returns (uint256) {... */\n    tag_110:\n        /* \"contracts/factories/BondFactory.sol\":9546:9553  uint256 */\n      0x00\n        /* \"contracts/factories/BondFactory.sol\":9645:9667  _purchasedQuantity[id] */\n      dup2\n      dup2\n      mstore\n        /* \"contracts/factories/BondFactory.sol\":9645:9663  _purchasedQuantity */\n      0x02\n        /* \"contracts/factories/BondFactory.sol\":9645:9667  _purchasedQuantity[id] */\n      0x20\n      mstore\n      0x40\n      dup1\n      dup3\n      keccak256\n      sload\n        /* \"contracts/factories/BondFactory.sol\":9584:9615  _bondToken.bondDataAsStruct(id) */\n      swap1\n      mload\n      shl(0xe0, 0x4dd9c9c7)\n      dup2\n      mstore\n      0x04\n      dup2\n      add\n        /* \"#utility.yul\":828:853   */\n      dup5\n      swap1\n      mstore\n        /* \"contracts/factories/BondFactory.sol\":9584:9594  _bondToken */\n      immutable(\"0xc322ff1198f1018f90524fe27b385729b363ae518172debfa915634c95ec9ba4\")\n      sub(shl(0xa0, 0x01), 0x01)\n        /* \"contracts/factories/BondFactory.sol\":9584:9611  _bondToken.bondDataAsStruct */\n      and\n      swap1\n      0x4dd9c9c7\n      swap1\n        /* \"#utility.yul\":801:819   */\n      0x24\n      add\n        /* \"contracts/factories/BondFactory.sol\":9584:9615  _bondToken.bondDataAsStruct(id) */\n      0x0120\n      mload(0x40)\n      dup1\n      dup4\n      sub\n      dup2\n      dup7\n      gas\n      staticcall\n      iszero\n      dup1\n      iszero\n      tag_373\n      jumpi\n      returndatasize\n      0x00\n      dup1\n      returndatacopy\n      revert(0x00, returndatasize)\n    tag_373:\n      pop\n      pop\n      pop\n      pop\n      mload(0x40)\n      returndatasize\n      not(0x1f)\n      0x1f\n      dup3\n      add\n      and\n      dup3\n      add\n      dup1\n      0x40\n      mstore\n      pop\n      dup2\n      add\n      swap1\n      tag_374\n      swap2\n      swap1\n      tag_164\n      jump\t// in\n    tag_374:\n        /* \"contracts/factories/BondFactory.sol\":9584:9630  _bondToken.bondDataAsStruct(id).issuedQuantity */\n      0xc0\n      add\n      mload\n        /* \"contracts/factories/BondFactory.sol\":9584:9667  _bondToken.bondDataAsStruct(id).issuedQuantity -... */\n      tag_156\n      swap2\n      swap1\n      tag_215\n      jump\t// in\n        /* \"contracts/factories/BondFactory.sol\":7913:8772  function markAsDefaulted(uint256 id) external {... */\n    tag_114:\n        /* \"contracts/factories/BondFactory.sol\":10860:10864  bool */\n      0x00\n        /* \"contracts/factories/BondFactory.sol\":10883:10899  _isCompleted[id] */\n      dup2\n      dup2\n      mstore\n        /* \"contracts/factories/BondFactory.sol\":10883:10895  _isCompleted */\n      0x09\n        /* \"contracts/factories/BondFactory.sol\":10883:10899  _isCompleted[id] */\n      0x20\n      mstore\n      0x40\n      swap1\n      keccak256\n      sload\n      0xff\n      and\n        /* \"contracts/factories/BondFactory.sol\":7990:8006  !isCompleted(id) */\n      iszero\n        /* \"contracts/factories/BondFactory.sol\":7990:8026  !isCompleted(id) && !isDefaulted(id) */\n      dup1\n      iszero\n      tag_378\n      jumpi\n      pop\n        /* \"contracts/factories/BondFactory.sol\":11421:11425  bool */\n      0x00\n        /* \"contracts/factories/BondFactory.sol\":11444:11460  _isDefaulted[id] */\n      dup2\n      dup2\n      mstore\n        /* \"contracts/factories/BondFactory.sol\":11444:11456  _isDefaulted */\n      0x08\n        /* \"contracts/factories/BondFactory.sol\":11444:11460  _isDefaulted[id] */\n      0x20\n      mstore\n      0x40\n      swap1\n      keccak256\n      sload\n      0xff\n      and\n        /* \"contracts/factories/BondFactory.sol\":8010:8026  !isDefaulted(id) */\n      iszero\n        /* \"contracts/factories/BondFactory.sol\":7990:8026  !isCompleted(id) && !isDefaulted(id) */\n    tag_378:\n        /* \"contracts/factories/BondFactory.sol\":7990:8053  !isCompleted(id) && !isDefaulted(id) && isDefaultedInTheory(id) */\n      dup1\n      iszero\n      tag_381\n      jumpi\n      pop\n        /* \"contracts/factories/BondFactory.sol\":8030:8053  isDefaultedInTheory(id) */\n      tag_381\n        /* \"contracts/factories/BondFactory.sol\":8050:8052  id */\n      dup2\n        /* \"contracts/factories/BondFactory.sol\":8030:8049  isDefaultedInTheory */\n      tag_88\n        /* \"contracts/factories/BondFactory.sol\":8030:8053  isDefaultedInTheory(id) */\n      jump\t// in\n    tag_381:\n        /* \"contracts/factories/BondFactory.sol\":7969:8084  require(... */\n      tag_382\n      jumpi\n      mload(0x40)\n      shl(0xe5, 0x461bcd)\n      dup2\n      mstore\n        /* \"#utility.yul\":14822:14824   */\n      0x20\n        /* \"contracts/factories/BondFactory.sol\":7969:8084  require(... */\n      0x04\n      dup3\n      add\n        /* \"#utility.yul\":14804:14825   */\n      mstore\n        /* \"#utility.yul\":14861:14862   */\n      0x05\n        /* \"#utility.yul\":14841:14859   */\n      0x24\n      dup3\n      add\n        /* \"#utility.yul\":14834:14863   */\n      mstore\n      shl(0xd8, 0x4d41444e41)\n        /* \"#utility.yul\":14879:14897   */\n      0x44\n      dup3\n      add\n        /* \"#utility.yul\":14872:14907   */\n      mstore\n        /* \"#utility.yul\":14924:14942   */\n      0x64\n      add\n        /* \"contracts/factories/BondFactory.sol\":7969:8084  require(... */\n      tag_193\n        /* \"#utility.yul\":14620:14948   */\n      jump\n        /* \"contracts/factories/BondFactory.sol\":7969:8084  require(... */\n    tag_382:\n        /* \"contracts/factories/BondFactory.sol\":8094:8114  uint256 callerReward */\n      0x00\n        /* \"contracts/factories/BondFactory.sol\":8117:8141  _designatedTokenPool[id] */\n      dup2\n      dup2\n      mstore\n        /* \"contracts/factories/BondFactory.sol\":8117:8137  _designatedTokenPool */\n      0x04\n        /* \"contracts/factories/BondFactory.sol\":8117:8141  _designatedTokenPool[id] */\n      0x20\n      mstore\n      0x40\n      dup2\n      keccak256\n      sload\n        /* \"contracts/factories/BondFactory.sol\":8117:8148  _designatedTokenPool[id] / 1000 */\n      tag_385\n      swap1\n        /* \"contracts/factories/BondFactory.sol\":8144:8148  1000 */\n      0x03e8\n      swap1\n        /* \"contracts/factories/BondFactory.sol\":8117:8148  _designatedTokenPool[id] / 1000 */\n      tag_240\n      jump\t// in\n    tag_385:\n        /* \"contracts/factories/BondFactory.sol\":8158:8174  uint256 paidDebt */\n      0x00\n        /* \"contracts/factories/BondFactory.sol\":8177:8201  _designatedTokenPool[id] */\n      dup4\n      dup2\n      mstore\n        /* \"contracts/factories/BondFactory.sol\":8177:8197  _designatedTokenPool */\n      0x04\n        /* \"contracts/factories/BondFactory.sol\":8177:8201  _designatedTokenPool[id] */\n      0x20\n      mstore\n      0x40\n      dup2\n      keccak256\n      sload\n        /* \"contracts/factories/BondFactory.sol\":8094:8148  uint256 callerReward = _designatedTokenPool[id] / 1000 */\n      swap2\n      swap3\n      pop\n        /* \"contracts/factories/BondFactory.sol\":8158:8174  uint256 paidDebt */\n      swap1\n        /* \"contracts/factories/BondFactory.sol\":8177:8216  _designatedTokenPool[id] - callerReward */\n      tag_386\n      swap1\n        /* \"contracts/factories/BondFactory.sol\":8094:8148  uint256 callerReward = _designatedTokenPool[id] / 1000 */\n      dup4\n      swap1\n        /* \"contracts/factories/BondFactory.sol\":8177:8216  _designatedTokenPool[id] - callerReward */\n      tag_215\n      jump\t// in\n    tag_386:\n        /* \"contracts/factories/BondFactory.sol\":8276:8298  _purchasedQuantity[id] */\n      0x00\n      dup5\n      dup2\n      mstore\n        /* \"contracts/factories/BondFactory.sol\":8276:8294  _purchasedQuantity */\n      0x02\n        /* \"contracts/factories/BondFactory.sol\":8276:8298  _purchasedQuantity[id] */\n      0x20\n      mstore\n      0x40\n      swap1\n      keccak256\n      sload\n        /* \"contracts/factories/BondFactory.sol\":8158:8216  uint256 paidDebt = _designatedTokenPool[id] - callerReward */\n      swap1\n      swap2\n      pop\n        /* \"contracts/factories/BondFactory.sol\":8265:8298  paidDebt / _purchasedQuantity[id] */\n      tag_387\n      swap1\n        /* \"contracts/factories/BondFactory.sol\":8158:8216  uint256 paidDebt = _designatedTokenPool[id] - callerReward */\n      dup3\n        /* \"contracts/factories/BondFactory.sol\":8265:8298  paidDebt / _purchasedQuantity[id] */\n      tag_240\n      jump\t// in\n    tag_387:\n        /* \"contracts/factories/BondFactory.sol\":8227:8262  _tokenAmountPerBondAfterDefault[id] */\n      0x00\n      dup5\n      dup2\n      mstore\n        /* \"contracts/factories/BondFactory.sol\":8227:8258  _tokenAmountPerBondAfterDefault */\n      0x05\n        /* \"contracts/factories/BondFactory.sol\":8227:8262  _tokenAmountPerBondAfterDefault[id] */\n      0x20\n      swap1\n      dup2\n      mstore\n      0x40\n      dup1\n      dup4\n      keccak256\n        /* \"contracts/factories/BondFactory.sol\":8227:8298  _tokenAmountPerBondAfterDefault[id] = paidDebt / _purchasedQuantity[id] */\n      swap4\n      swap1\n      swap4\n      sstore\n        /* \"contracts/factories/BondFactory.sol\":8308:8328  _designatedTokenPool */\n      0x04\n        /* \"contracts/factories/BondFactory.sol\":8308:8332  _designatedTokenPool[id] */\n      swap1\n      mstore\n      swap1\n      dup2\n      keccak256\n        /* \"contracts/factories/BondFactory.sol\":8308:8348  _designatedTokenPool[id] -= callerReward */\n      dup1\n      sload\n        /* \"contracts/factories/BondFactory.sol\":8336:8348  callerReward */\n      dup5\n      swap3\n        /* \"contracts/factories/BondFactory.sol\":8227:8262  _tokenAmountPerBondAfterDefault[id] */\n      swap1\n        /* \"contracts/factories/BondFactory.sol\":8308:8348  _designatedTokenPool[id] -= callerReward */\n      tag_388\n      swap1\n        /* \"contracts/factories/BondFactory.sol\":8336:8348  callerReward */\n      dup5\n      swap1\n        /* \"contracts/factories/BondFactory.sol\":8308:8348  _designatedTokenPool[id] -= callerReward */\n      tag_215\n      jump\t// in\n    tag_388:\n      swap1\n      swap2\n      sstore\n      pop\n      pop\n        /* \"contracts/factories/BondFactory.sol\":8359:8375  _isDefaulted[id] */\n      0x00\n      dup4\n      dup2\n      mstore\n        /* \"contracts/factories/BondFactory.sol\":8359:8371  _isDefaulted */\n      0x08\n        /* \"contracts/factories/BondFactory.sol\":8359:8375  _isDefaulted[id] */\n      0x20\n      mstore\n      0x40\n      swap1\n      dup2\n      swap1\n      keccak256\n        /* \"contracts/factories/BondFactory.sol\":8359:8382  _isDefaulted[id] = true */\n      dup1\n      sload\n      not(0xff)\n      and\n        /* \"contracts/factories/BondFactory.sol\":8378:8382  true */\n      0x01\n        /* \"contracts/factories/BondFactory.sol\":8359:8382  _isDefaulted[id] = true */\n      or\n      swap1\n      sstore\n        /* \"contracts/factories/BondFactory.sol\":8393:8449  _bondDB.incrementNumberOfTimesDefaultedByCompany(_owner) */\n      mload\n      shl(0xe1, 0x6d71c16b)\n      dup2\n      mstore\n      sub(shl(0xa0, 0x01), 0x01)\n        /* \"contracts/factories/BondFactory.sol\":8442:8448  _owner */\n      immutable(\"0x22a2e3ce6024cf7fa9f23bb9996411ef645dedafa701962edde7c1d4874e9131\")\n        /* \"#utility.yul\":2027:2059   */\n      dup2\n      and\n        /* \"contracts/factories/BondFactory.sol\":8393:8449  _bondDB.incrementNumberOfTimesDefaultedByCompany(_owner) */\n      0x04\n      dup4\n      add\n        /* \"#utility.yul\":2009:2060   */\n      mstore\n        /* \"contracts/factories/BondFactory.sol\":8393:8400  _bondDB */\n      immutable(\"0x2757844bcba802ce24af88f7c8fd3438a9a94d6eea4d1e58913fbc1440605b8d\")\n        /* \"contracts/factories/BondFactory.sol\":8393:8441  _bondDB.incrementNumberOfTimesDefaultedByCompany */\n      and\n      swap1\n      0xdae382d6\n      swap1\n        /* \"#utility.yul\":1982:2000   */\n      0x24\n      add\n        /* \"contracts/factories/BondFactory.sol\":8393:8449  _bondDB.incrementNumberOfTimesDefaultedByCompany(_owner) */\n      0x00\n      mload(0x40)\n      dup1\n      dup4\n      sub\n      dup2\n      0x00\n      dup8\n      dup1\n      extcodesize\n      iszero\n      dup1\n      iszero\n      tag_390\n      jumpi\n      0x00\n      dup1\n      revert\n    tag_390:\n      pop\n      gas\n      call\n      iszero\n      dup1\n      iszero\n      tag_392\n      jumpi\n      returndatasize\n      0x00\n      dup1\n      returndatacopy\n      revert(0x00, returndatasize)\n    tag_392:\n      pop\n      pop\n        /* \"contracts/factories/BondFactory.sol\":8459:8570  _bondDB.incrementNumberOfTimesDefaultedByCompanyAndCategory(... */\n      mload(0x40)\n      shl(0xe3, 0x1a0a14f9)\n      dup2\n      mstore\n      sub(shl(0xa0, 0x01), 0x01)\n        /* \"contracts/factories/BondFactory.sol\":8532:8538  _owner */\n      immutable(\"0x22a2e3ce6024cf7fa9f23bb9996411ef645dedafa701962edde7c1d4874e9131\")\n        /* \"#utility.yul\":9871:9903   */\n      dup2\n      and\n        /* \"contracts/factories/BondFactory.sol\":8459:8570  _bondDB.incrementNumberOfTimesDefaultedByCompanyAndCategory(... */\n      0x04\n      dup4\n      add\n        /* \"#utility.yul\":9853:9904   */\n      mstore\n        /* \"contracts/factories/BondFactory.sol\":601:602  1 */\n      0x01\n        /* \"#utility.yul\":9920:9938   */\n      0x24\n      dup4\n      add\n        /* \"#utility.yul\":9913:9947   */\n      mstore\n        /* \"contracts/factories/BondFactory.sol\":8459:8466  _bondDB */\n      immutable(\"0x2757844bcba802ce24af88f7c8fd3438a9a94d6eea4d1e58913fbc1440605b8d\")\n        /* \"contracts/factories/BondFactory.sol\":8459:8518  _bondDB.incrementNumberOfTimesDefaultedByCompanyAndCategory */\n      and\n      swap3\n      pop\n      0xd050a7c8\n      swap2\n      pop\n        /* \"#utility.yul\":9826:9844   */\n      0x44\n      add\n        /* \"contracts/factories/BondFactory.sol\":8459:8570  _bondDB.incrementNumberOfTimesDefaultedByCompanyAndCategory(... */\n      0x00\n      mload(0x40)\n      dup1\n      dup4\n      sub\n      dup2\n      0x00\n      dup8\n      dup1\n      extcodesize\n      iszero\n      dup1\n      iszero\n      tag_394\n      jumpi\n      0x00\n      dup1\n      revert\n    tag_394:\n      pop\n      gas\n      call\n      iszero\n      dup1\n      iszero\n      tag_396\n      jumpi\n      returndatasize\n      0x00\n      dup1\n      returndatacopy\n      revert(0x00, returndatasize)\n    tag_396:\n      pop\n      pop\n        /* \"contracts/factories/BondFactory.sol\":8581:8643  _bondDB.decrementTVLByToken(callerReward, address(_baseToken)) */\n      mload(0x40)\n      shl(0xe2, 0x2f2b9a09)\n      dup2\n      mstore\n      0x04\n      dup2\n      add\n        /* \"#utility.yul\":9574:9599   */\n      dup6\n      swap1\n      mstore\n      sub(shl(0xa0, 0x01), 0x01)\n        /* \"contracts/factories/BondFactory.sol\":8631:8641  _baseToken */\n      immutable(\"0xf9bbcd66573bf3c1f4cc184d2152e0dd1704bf0095e444b842e9e57042cbafba\")\n        /* \"#utility.yul\":9635:9667   */\n      dup2\n      and\n        /* \"#utility.yul\":9615:9633   */\n      0x24\n      dup4\n      add\n        /* \"#utility.yul\":9608:9668   */\n      mstore\n        /* \"contracts/factories/BondFactory.sol\":8581:8588  _bondDB */\n      immutable(\"0x2757844bcba802ce24af88f7c8fd3438a9a94d6eea4d1e58913fbc1440605b8d\")\n        /* \"contracts/factories/BondFactory.sol\":8581:8608  _bondDB.decrementTVLByToken */\n      and\n      swap3\n      pop\n      0xbcae6824\n      swap2\n      pop\n        /* \"#utility.yul\":9547:9565   */\n      0x44\n      add\n        /* \"contracts/factories/BondFactory.sol\":8581:8643  _bondDB.decrementTVLByToken(callerReward, address(_baseToken)) */\n      0x00\n      mload(0x40)\n      dup1\n      dup4\n      sub\n      dup2\n      0x00\n      dup8\n      dup1\n      extcodesize\n      iszero\n      dup1\n      iszero\n      tag_398\n      jumpi\n      0x00\n      dup1\n      revert\n    tag_398:\n      pop\n      gas\n      call\n      iszero\n      dup1\n      iszero\n      tag_400\n      jumpi\n      returndatasize\n      0x00\n      dup1\n      returndatacopy\n      revert(0x00, returndatasize)\n    tag_400:\n      pop\n      pop\n        /* \"contracts/factories/BondFactory.sol\":8654:8699  _baseToken.transfer(msg.sender, callerReward) */\n      mload(0x40)\n      shl(0xe0, 0xa9059cbb)\n      dup2\n      mstore\n        /* \"contracts/factories/BondFactory.sol\":8674:8684  msg.sender */\n      caller\n        /* \"contracts/factories/BondFactory.sol\":8654:8699  _baseToken.transfer(msg.sender, callerReward) */\n      0x04\n      dup3\n      add\n        /* \"#utility.yul\":9853:9904   */\n      mstore\n        /* \"#utility.yul\":9920:9938   */\n      0x24\n      dup2\n      add\n        /* \"#utility.yul\":9913:9947   */\n      dup6\n      swap1\n      mstore\n        /* \"contracts/factories/BondFactory.sol\":8654:8664  _baseToken */\n      immutable(\"0xf9bbcd66573bf3c1f4cc184d2152e0dd1704bf0095e444b842e9e57042cbafba\")\n      sub(shl(0xa0, 0x01), 0x01)\n        /* \"contracts/factories/BondFactory.sol\":8654:8673  _baseToken.transfer */\n      and\n      swap3\n      pop\n      0xa9059cbb\n      swap2\n      pop\n        /* \"#utility.yul\":9826:9844   */\n      0x44\n      add\n        /* \"contracts/factories/BondFactory.sol\":8654:8699  _baseToken.transfer(msg.sender, callerReward) */\n      0x20\n      mload(0x40)\n      dup1\n      dup4\n      sub\n      dup2\n      0x00\n      dup8\n      gas\n      call\n      iszero\n      dup1\n      iszero\n      tag_403\n      jumpi\n      returndatasize\n      0x00\n      dup1\n      returndatacopy\n      revert(0x00, returndatasize)\n    tag_403:\n      pop\n      pop\n      pop\n      pop\n      mload(0x40)\n      returndatasize\n      not(0x1f)\n      0x1f\n      dup3\n      add\n      and\n      dup3\n      add\n      dup1\n      0x40\n      mstore\n      pop\n      dup2\n      add\n      swap1\n      tag_404\n      swap2\n      swap1\n      tag_181\n      jump\t// in\n    tag_404:\n      pop\n        /* \"contracts/factories/BondFactory.sol\":8725:8727  id */\n      dup3\n        /* \"contracts/factories/BondFactory.sol\":8715:8765  Defaulted(id, principalWithInterest(id), paidDebt) */\n      0xc4f17a65d54873d57229ea5f59c4ddec592d095bc17581372676402c8228b9cd\n        /* \"contracts/factories/BondFactory.sol\":8729:8754  principalWithInterest(id) */\n      tag_405\n        /* \"contracts/factories/BondFactory.sol\":8751:8753  id */\n      dup6\n        /* \"contracts/factories/BondFactory.sol\":8729:8750  principalWithInterest */\n      tag_95\n        /* \"contracts/factories/BondFactory.sol\":8729:8754  principalWithInterest(id) */\n      jump\t// in\n    tag_405:\n        /* \"contracts/factories/BondFactory.sol\":8715:8765  Defaulted(id, principalWithInterest(id), paidDebt) */\n      0x40\n      dup1\n      mload\n        /* \"#utility.yul\":10687:10712   */\n      swap2\n      dup3\n      mstore\n        /* \"#utility.yul\":10743:10745   */\n      0x20\n        /* \"#utility.yul\":10728:10746   */\n      dup3\n      add\n        /* \"#utility.yul\":10721:10755   */\n      dup6\n      swap1\n      mstore\n        /* \"#utility.yul\":10660:10678   */\n      add\n        /* \"contracts/factories/BondFactory.sol\":8715:8765  Defaulted(id, principalWithInterest(id), paidDebt) */\n      mload(0x40)\n      dup1\n      swap2\n      sub\n      swap1\n      log2\n        /* \"contracts/factories/BondFactory.sol\":7959:8772  {... */\n      pop\n      pop\n        /* \"contracts/factories/BondFactory.sol\":7913:8772  function markAsDefaulted(uint256 id) external {... */\n      pop\n      jump\t// out\n        /* \"contracts/factories/BondFactory.sol\":8778:9480  function markAsCompleted(uint256 id) external {... */\n    tag_127:\n        /* \"contracts/factories/BondFactory.sol\":11421:11425  bool */\n      0x00\n        /* \"contracts/factories/BondFactory.sol\":11444:11460  _isDefaulted[id] */\n      dup2\n      dup2\n      mstore\n        /* \"contracts/factories/BondFactory.sol\":11444:11456  _isDefaulted */\n      0x08\n        /* \"contracts/factories/BondFactory.sol\":11444:11460  _isDefaulted[id] */\n      0x20\n      mstore\n      0x40\n      swap1\n      keccak256\n      sload\n      0xff\n      and\n        /* \"contracts/factories/BondFactory.sol\":8855:8871  !isDefaulted(id) */\n      iszero\n        /* \"contracts/factories/BondFactory.sol\":8855:8891  !isDefaulted(id) && !isCompleted(id) */\n      dup1\n      iszero\n      tag_411\n      jumpi\n      pop\n        /* \"contracts/factories/BondFactory.sol\":10860:10864  bool */\n      0x00\n        /* \"contracts/factories/BondFactory.sol\":10883:10899  _isCompleted[id] */\n      dup2\n      dup2\n      mstore\n        /* \"contracts/factories/BondFactory.sol\":10883:10895  _isCompleted */\n      0x09\n        /* \"contracts/factories/BondFactory.sol\":10883:10899  _isCompleted[id] */\n      0x20\n      mstore\n      0x40\n      swap1\n      keccak256\n      sload\n      0xff\n      and\n        /* \"contracts/factories/BondFactory.sol\":8875:8891  !isCompleted(id) */\n      iszero\n        /* \"contracts/factories/BondFactory.sol\":8855:8891  !isDefaulted(id) && !isCompleted(id) */\n    tag_411:\n        /* \"contracts/factories/BondFactory.sol\":8855:8918  !isDefaulted(id) && !isCompleted(id) && isCompletedInTheory(id) */\n      dup1\n      iszero\n      tag_414\n      jumpi\n      pop\n        /* \"contracts/factories/BondFactory.sol\":8895:8918  isCompletedInTheory(id) */\n      tag_414\n        /* \"contracts/factories/BondFactory.sol\":8915:8917  id */\n      dup2\n        /* \"contracts/factories/BondFactory.sol\":8895:8914  isCompletedInTheory */\n      tag_69\n        /* \"contracts/factories/BondFactory.sol\":8895:8918  isCompletedInTheory(id) */\n      jump\t// in\n    tag_414:\n        /* \"contracts/factories/BondFactory.sol\":8834:8949  require(... */\n      tag_415\n      jumpi\n      mload(0x40)\n      shl(0xe5, 0x461bcd)\n      dup2\n      mstore\n        /* \"#utility.yul\":15155:15157   */\n      0x20\n        /* \"contracts/factories/BondFactory.sol\":8834:8949  require(... */\n      0x04\n      dup3\n      add\n        /* \"#utility.yul\":15137:15158   */\n      mstore\n        /* \"#utility.yul\":15194:15195   */\n      0x05\n        /* \"#utility.yul\":15174:15192   */\n      0x24\n      dup3\n      add\n        /* \"#utility.yul\":15167:15196   */\n      mstore\n      shl(0xd8, 0x4d41434e41)\n        /* \"#utility.yul\":15212:15230   */\n      0x44\n      dup3\n      add\n        /* \"#utility.yul\":15205:15240   */\n      mstore\n        /* \"#utility.yul\":15257:15275   */\n      0x64\n      add\n        /* \"contracts/factories/BondFactory.sol\":8834:8949  require(... */\n      tag_193\n        /* \"#utility.yul\":14953:15281   */\n      jump\n        /* \"contracts/factories/BondFactory.sol\":8834:8949  require(... */\n    tag_415:\n        /* \"contracts/factories/BondFactory.sol\":8959:8976  uint256 totalDebt */\n      0x00\n        /* \"contracts/factories/BondFactory.sol\":8979:9004  principalWithInterest(id) */\n      tag_418\n        /* \"contracts/factories/BondFactory.sol\":9001:9003  id */\n      dup3\n        /* \"contracts/factories/BondFactory.sol\":8979:9000  principalWithInterest */\n      tag_95\n        /* \"contracts/factories/BondFactory.sol\":8979:9004  principalWithInterest(id) */\n      jump\t// in\n    tag_418:\n        /* \"contracts/factories/BondFactory.sol\":8959:9004  uint256 totalDebt = principalWithInterest(id) */\n      swap1\n      pop\n        /* \"contracts/factories/BondFactory.sol\":9014:9034  uint256 callerReward */\n      0x00\n        /* \"contracts/factories/BondFactory.sol\":9037:9053  totalDebt / 1000 */\n      tag_419\n        /* \"contracts/factories/BondFactory.sol\":9049:9053  1000 */\n      0x03e8\n        /* \"contracts/factories/BondFactory.sol\":8959:9004  uint256 totalDebt = principalWithInterest(id) */\n      dup4\n        /* \"contracts/factories/BondFactory.sol\":9037:9053  totalDebt / 1000 */\n      tag_240\n      jump\t// in\n    tag_419:\n        /* \"contracts/factories/BondFactory.sol\":9014:9053  uint256 callerReward = totalDebt / 1000 */\n      swap1\n      pop\n        /* \"contracts/factories/BondFactory.sol\":9063:9079  uint256 paidDebt */\n      0x00\n        /* \"contracts/factories/BondFactory.sol\":9082:9106  totalDebt - callerReward */\n      tag_420\n        /* \"contracts/factories/BondFactory.sol\":9014:9053  uint256 callerReward = totalDebt / 1000 */\n      dup3\n        /* \"contracts/factories/BondFactory.sol\":9082:9091  totalDebt */\n      dup5\n        /* \"contracts/factories/BondFactory.sol\":9082:9106  totalDebt - callerReward */\n      tag_215\n      jump\t// in\n    tag_420:\n        /* \"contracts/factories/BondFactory.sol\":9190:9212  _purchasedQuantity[id] */\n      0x00\n      dup6\n      dup2\n      mstore\n        /* \"contracts/factories/BondFactory.sol\":9190:9208  _purchasedQuantity */\n      0x02\n        /* \"contracts/factories/BondFactory.sol\":9190:9212  _purchasedQuantity[id] */\n      0x20\n      mstore\n      0x40\n      swap1\n      keccak256\n      sload\n        /* \"contracts/factories/BondFactory.sol\":9063:9106  uint256 paidDebt = totalDebt - callerReward */\n      swap1\n      swap2\n      pop\n        /* \"contracts/factories/BondFactory.sol\":9167:9212  paidDebt /... */\n      tag_421\n      swap1\n        /* \"contracts/factories/BondFactory.sol\":9063:9106  uint256 paidDebt = totalDebt - callerReward */\n      dup3\n        /* \"contracts/factories/BondFactory.sol\":9167:9212  paidDebt /... */\n      tag_240\n      jump\t// in\n    tag_421:\n        /* \"contracts/factories/BondFactory.sol\":9116:9152  _tokenAmountPerBondAfterComplete[id] */\n      0x00\n      dup6\n      dup2\n      mstore\n        /* \"contracts/factories/BondFactory.sol\":9116:9148  _tokenAmountPerBondAfterComplete */\n      0x06\n        /* \"contracts/factories/BondFactory.sol\":9116:9152  _tokenAmountPerBondAfterComplete[id] */\n      0x20\n      swap1\n      dup2\n      mstore\n      0x40\n      dup1\n      dup4\n      keccak256\n        /* \"contracts/factories/BondFactory.sol\":9116:9212  _tokenAmountPerBondAfterComplete[id] =... */\n      swap4\n      swap1\n      swap4\n      sstore\n        /* \"contracts/factories/BondFactory.sol\":9222:9242  _designatedTokenPool */\n      0x04\n        /* \"contracts/factories/BondFactory.sol\":9222:9246  _designatedTokenPool[id] */\n      swap1\n      mstore\n      swap1\n      dup2\n      keccak256\n        /* \"contracts/factories/BondFactory.sol\":9222:9262  _designatedTokenPool[id] -= callerReward */\n      dup1\n      sload\n        /* \"contracts/factories/BondFactory.sol\":9250:9262  callerReward */\n      dup5\n      swap3\n        /* \"contracts/factories/BondFactory.sol\":9116:9152  _tokenAmountPerBondAfterComplete[id] */\n      swap1\n        /* \"contracts/factories/BondFactory.sol\":9222:9262  _designatedTokenPool[id] -= callerReward */\n      tag_422\n      swap1\n        /* \"contracts/factories/BondFactory.sol\":9250:9262  callerReward */\n      dup5\n      swap1\n        /* \"contracts/factories/BondFactory.sol\":9222:9262  _designatedTokenPool[id] -= callerReward */\n      tag_215\n      jump\t// in\n    tag_422:\n      swap1\n      swap2\n      sstore\n      pop\n      pop\n        /* \"contracts/factories/BondFactory.sol\":9272:9288  _isCompleted[id] */\n      0x00\n      dup5\n      dup2\n      mstore\n        /* \"contracts/factories/BondFactory.sol\":9272:9284  _isCompleted */\n      0x09\n        /* \"contracts/factories/BondFactory.sol\":9272:9288  _isCompleted[id] */\n      0x20\n      mstore\n      0x40\n      swap1\n      dup2\n      swap1\n      keccak256\n        /* \"contracts/factories/BondFactory.sol\":9272:9295  _isCompleted[id] = true */\n      dup1\n      sload\n      not(0xff)\n      and\n        /* \"contracts/factories/BondFactory.sol\":9291:9295  true */\n      0x01\n        /* \"contracts/factories/BondFactory.sol\":9272:9295  _isCompleted[id] = true */\n      or\n      swap1\n      sstore\n        /* \"contracts/factories/BondFactory.sol\":9306:9368  _bondDB.decrementTVLByToken(callerReward, address(_baseToken)) */\n      mload\n      shl(0xe2, 0x2f2b9a09)\n      dup2\n      mstore\n      0x04\n      dup2\n      add\n        /* \"#utility.yul\":9574:9599   */\n      dup4\n      swap1\n      mstore\n      sub(shl(0xa0, 0x01), 0x01)\n        /* \"contracts/factories/BondFactory.sol\":9356:9366  _baseToken */\n      immutable(\"0xf9bbcd66573bf3c1f4cc184d2152e0dd1704bf0095e444b842e9e57042cbafba\")\n        /* \"#utility.yul\":9635:9667   */\n      dup2\n      and\n        /* \"#utility.yul\":9615:9633   */\n      0x24\n      dup4\n      add\n        /* \"#utility.yul\":9608:9668   */\n      mstore\n        /* \"contracts/factories/BondFactory.sol\":9306:9313  _bondDB */\n      immutable(\"0x2757844bcba802ce24af88f7c8fd3438a9a94d6eea4d1e58913fbc1440605b8d\")\n        /* \"contracts/factories/BondFactory.sol\":9306:9333  _bondDB.decrementTVLByToken */\n      and\n      swap1\n      0xbcae6824\n      swap1\n        /* \"#utility.yul\":9547:9565   */\n      0x44\n      add\n        /* \"contracts/factories/BondFactory.sol\":9306:9368  _bondDB.decrementTVLByToken(callerReward, address(_baseToken)) */\n      0x00\n      mload(0x40)\n      dup1\n      dup4\n      sub\n      dup2\n      0x00\n      dup8\n      dup1\n      extcodesize\n      iszero\n      dup1\n      iszero\n      tag_424\n      jumpi\n      0x00\n      dup1\n      revert\n    tag_424:\n      pop\n      gas\n      call\n      iszero\n      dup1\n      iszero\n      tag_426\n      jumpi\n      returndatasize\n      0x00\n      dup1\n      returndatacopy\n      revert(0x00, returndatasize)\n    tag_426:\n      pop\n      pop\n        /* \"contracts/factories/BondFactory.sol\":9378:9423  _baseToken.transfer(msg.sender, callerReward) */\n      mload(0x40)\n      shl(0xe0, 0xa9059cbb)\n      dup2\n      mstore\n        /* \"contracts/factories/BondFactory.sol\":9398:9408  msg.sender */\n      caller\n        /* \"contracts/factories/BondFactory.sol\":9378:9423  _baseToken.transfer(msg.sender, callerReward) */\n      0x04\n      dup3\n      add\n        /* \"#utility.yul\":9853:9904   */\n      mstore\n        /* \"#utility.yul\":9920:9938   */\n      0x24\n      dup2\n      add\n        /* \"#utility.yul\":9913:9947   */\n      dup6\n      swap1\n      mstore\n        /* \"contracts/factories/BondFactory.sol\":9378:9388  _baseToken */\n      immutable(\"0xf9bbcd66573bf3c1f4cc184d2152e0dd1704bf0095e444b842e9e57042cbafba\")\n      sub(shl(0xa0, 0x01), 0x01)\n        /* \"contracts/factories/BondFactory.sol\":9378:9397  _baseToken.transfer */\n      and\n      swap3\n      pop\n      0xa9059cbb\n      swap2\n      pop\n        /* \"#utility.yul\":9826:9844   */\n      0x44\n      add\n        /* \"contracts/factories/BondFactory.sol\":9378:9423  _baseToken.transfer(msg.sender, callerReward) */\n      0x20\n      mload(0x40)\n      dup1\n      dup4\n      sub\n      dup2\n      0x00\n      dup8\n      gas\n      call\n      iszero\n      dup1\n      iszero\n      tag_429\n      jumpi\n      returndatasize\n      0x00\n      dup1\n      returndatacopy\n      revert(0x00, returndatasize)\n    tag_429:\n      pop\n      pop\n      pop\n      pop\n      mload(0x40)\n      returndatasize\n      not(0x1f)\n      0x1f\n      dup3\n      add\n      and\n      dup3\n      add\n      dup1\n      0x40\n      mstore\n      pop\n      dup2\n      add\n      swap1\n      tag_430\n      swap2\n      swap1\n      tag_181\n      jump\t// in\n    tag_430:\n      pop\n        /* \"contracts/factories/BondFactory.sol\":9439:9473  Completed(id, totalDebt, paidDebt) */\n      0x40\n      dup1\n      mload\n        /* \"#utility.yul\":10687:10712   */\n      dup5\n      dup2\n      mstore\n        /* \"#utility.yul\":10743:10745   */\n      0x20\n        /* \"#utility.yul\":10728:10746   */\n      dup2\n      add\n        /* \"#utility.yul\":10721:10755   */\n      dup4\n      swap1\n      mstore\n        /* \"contracts/factories/BondFactory.sol\":9449:9451  id */\n      dup6\n      swap2\n        /* \"contracts/factories/BondFactory.sol\":9439:9473  Completed(id, totalDebt, paidDebt) */\n      0xac2eeaf45d1b75aed6b3285cda3efb3c382cce02ba313558bbb90be57f8843e4\n      swap2\n        /* \"#utility.yul\":10660:10678   */\n      add\n        /* \"contracts/factories/BondFactory.sol\":9439:9473  Completed(id, totalDebt, paidDebt) */\n      mload(0x40)\n      dup1\n      swap2\n      sub\n      swap1\n      log2\n        /* \"contracts/factories/BondFactory.sol\":8824:9480  {... */\n      pop\n      pop\n      pop\n        /* \"contracts/factories/BondFactory.sol\":8778:9480  function markAsCompleted(uint256 id) external {... */\n      pop\n      jump\t// out\n        /* \"contracts/factories/BondFactory.sol\":6828:7224  function deposit(uint256 id, uint256 tokenAmount) external onlyOwner {... */\n    tag_133:\n        /* \"contracts/factories/BondFactory.sol\":1096:1106  msg.sender */\n      caller\n      sub(shl(0xa0, 0x01), 0x01)\n        /* \"contracts/factories/BondFactory.sol\":1110:1116  _owner */\n      immutable(\"0x22a2e3ce6024cf7fa9f23bb9996411ef645dedafa701962edde7c1d4874e9131\")\n        /* \"contracts/factories/BondFactory.sol\":1096:1116  msg.sender == _owner */\n      and\n      eq\n        /* \"contracts/factories/BondFactory.sol\":1088:1124  require(msg.sender == _owner, \"NTO\") */\n      tag_434\n      jumpi\n      mload(0x40)\n      shl(0xe5, 0x461bcd)\n      dup2\n      mstore\n      0x04\n      add\n      tag_193\n      swap1\n      tag_194\n      jump\t// in\n    tag_434:\n        /* \"contracts/factories/BondFactory.sol\":11421:11425  bool */\n      0x00\n        /* \"contracts/factories/BondFactory.sol\":11444:11460  _isDefaulted[id] */\n      dup3\n      dup2\n      mstore\n        /* \"contracts/factories/BondFactory.sol\":11444:11456  _isDefaulted */\n      0x08\n        /* \"contracts/factories/BondFactory.sol\":11444:11460  _isDefaulted[id] */\n      0x20\n      mstore\n      0x40\n      swap1\n      keccak256\n      sload\n      0xff\n      and\n        /* \"contracts/factories/BondFactory.sol\":6930:6972  isDefaulted(id) || isDefaultedInTheory(id) */\n      dup1\n      tag_439\n      jumpi\n      pop\n        /* \"contracts/factories/BondFactory.sol\":6949:6972  isDefaultedInTheory(id) */\n      tag_439\n        /* \"contracts/factories/BondFactory.sol\":6969:6971  id */\n      dup3\n        /* \"contracts/factories/BondFactory.sol\":6949:6968  isDefaultedInTheory */\n      tag_88\n        /* \"contracts/factories/BondFactory.sol\":6949:6972  isDefaultedInTheory(id) */\n      jump\t// in\n    tag_439:\n        /* \"contracts/factories/BondFactory.sol\":6928:6973  !(isDefaulted(id) || isDefaultedInTheory(id)) */\n      iszero\n        /* \"contracts/factories/BondFactory.sol\":6928:6993  !(isDefaulted(id) || isDefaultedInTheory(id)) && !isCompleted(id) */\n      dup1\n      iszero\n      tag_440\n      jumpi\n      pop\n        /* \"contracts/factories/BondFactory.sol\":10860:10864  bool */\n      0x00\n        /* \"contracts/factories/BondFactory.sol\":10883:10899  _isCompleted[id] */\n      dup3\n      dup2\n      mstore\n        /* \"contracts/factories/BondFactory.sol\":10883:10895  _isCompleted */\n      0x09\n        /* \"contracts/factories/BondFactory.sol\":10883:10899  _isCompleted[id] */\n      0x20\n      mstore\n      0x40\n      swap1\n      keccak256\n      sload\n      0xff\n      and\n        /* \"contracts/factories/BondFactory.sol\":6977:6993  !isCompleted(id) */\n      iszero\n        /* \"contracts/factories/BondFactory.sol\":6928:6993  !(isDefaulted(id) || isDefaultedInTheory(id)) && !isCompleted(id) */\n    tag_440:\n        /* \"contracts/factories/BondFactory.sol\":6907:7022  require(... */\n      tag_442\n      jumpi\n      mload(0x40)\n      shl(0xe5, 0x461bcd)\n      dup2\n      mstore\n        /* \"#utility.yul\":15488:15490   */\n      0x20\n        /* \"contracts/factories/BondFactory.sol\":6907:7022  require(... */\n      0x04\n      dup3\n      add\n        /* \"#utility.yul\":15470:15491   */\n      mstore\n        /* \"#utility.yul\":15527:15528   */\n      0x03\n        /* \"#utility.yul\":15507:15525   */\n      0x24\n      dup3\n      add\n        /* \"#utility.yul\":15500:15529   */\n      mstore\n      shl(0xe8, 0x444e41)\n        /* \"#utility.yul\":15545:15563   */\n      0x44\n      dup3\n      add\n        /* \"#utility.yul\":15538:15571   */\n      mstore\n        /* \"#utility.yul\":15588:15606   */\n      0x64\n      add\n        /* \"contracts/factories/BondFactory.sol\":6907:7022  require(... */\n      tag_193\n        /* \"#utility.yul\":15286:15612   */\n      jump\n        /* \"contracts/factories/BondFactory.sol\":6907:7022  require(... */\n    tag_442:\n        /* \"contracts/factories/BondFactory.sol\":7033:7057  _designatedTokenPool[id] */\n      0x00\n      dup3\n      dup2\n      mstore\n        /* \"contracts/factories/BondFactory.sol\":7033:7053  _designatedTokenPool */\n      0x04\n        /* \"contracts/factories/BondFactory.sol\":7033:7057  _designatedTokenPool[id] */\n      0x20\n      mstore\n      0x40\n      dup2\n      keccak256\n        /* \"contracts/factories/BondFactory.sol\":7033:7072  _designatedTokenPool[id] += tokenAmount */\n      dup1\n      sload\n        /* \"contracts/factories/BondFactory.sol\":7061:7072  tokenAmount */\n      dup4\n      swap3\n        /* \"contracts/factories/BondFactory.sol\":7033:7057  _designatedTokenPool[id] */\n      swap1\n        /* \"contracts/factories/BondFactory.sol\":7033:7072  _designatedTokenPool[id] += tokenAmount */\n      tag_445\n      swap1\n        /* \"contracts/factories/BondFactory.sol\":7061:7072  tokenAmount */\n      dup5\n      swap1\n        /* \"contracts/factories/BondFactory.sol\":7033:7072  _designatedTokenPool[id] += tokenAmount */\n      tag_277\n      jump\t// in\n    tag_445:\n      swap1\n      swap2\n      sstore\n      pop\n      pop\n        /* \"contracts/factories/BondFactory.sol\":7082:7143  _bondDB.incrementTVLByToken(tokenAmount, address(_baseToken)) */\n      mload(0x40)\n      shl(0xe0, 0x83883fe3)\n      dup2\n      mstore\n      0x04\n      dup2\n      add\n        /* \"#utility.yul\":9574:9599   */\n      dup3\n      swap1\n      mstore\n      sub(shl(0xa0, 0x01), 0x01)\n        /* \"contracts/factories/BondFactory.sol\":7131:7141  _baseToken */\n      immutable(\"0xf9bbcd66573bf3c1f4cc184d2152e0dd1704bf0095e444b842e9e57042cbafba\")\n        /* \"#utility.yul\":9635:9667   */\n      dup2\n      and\n        /* \"#utility.yul\":9615:9633   */\n      0x24\n      dup4\n      add\n        /* \"#utility.yul\":9608:9668   */\n      mstore\n        /* \"contracts/factories/BondFactory.sol\":7082:7089  _bondDB */\n      immutable(\"0x2757844bcba802ce24af88f7c8fd3438a9a94d6eea4d1e58913fbc1440605b8d\")\n        /* \"contracts/factories/BondFactory.sol\":7082:7109  _bondDB.incrementTVLByToken */\n      and\n      swap1\n      0x83883fe3\n      swap1\n        /* \"#utility.yul\":9547:9565   */\n      0x44\n      add\n        /* \"contracts/factories/BondFactory.sol\":7082:7143  _bondDB.incrementTVLByToken(tokenAmount, address(_baseToken)) */\n      0x00\n      mload(0x40)\n      dup1\n      dup4\n      sub\n      dup2\n      0x00\n      dup8\n      dup1\n      extcodesize\n      iszero\n      dup1\n      iszero\n      tag_447\n      jumpi\n      0x00\n      dup1\n      revert\n    tag_447:\n      pop\n      gas\n      call\n      iszero\n      dup1\n      iszero\n      tag_449\n      jumpi\n      returndatasize\n      0x00\n      dup1\n      returndatacopy\n      revert(0x00, returndatasize)\n    tag_449:\n      pop\n      pop\n        /* \"contracts/factories/BondFactory.sol\":7154:7217  _baseToken.transferFrom(msg.sender, address(this), tokenAmount) */\n      mload(0x40)\n      shl(0xe0, 0x23b872dd)\n      dup2\n      mstore\n        /* \"contracts/factories/BondFactory.sol\":7178:7188  msg.sender */\n      caller\n        /* \"contracts/factories/BondFactory.sol\":7154:7217  _baseToken.transferFrom(msg.sender, address(this), tokenAmount) */\n      0x04\n      dup3\n      add\n        /* \"#utility.yul\":13610:13644   */\n      mstore\n        /* \"contracts/factories/BondFactory.sol\":7198:7202  this */\n      address\n        /* \"#utility.yul\":13660:13678   */\n      0x24\n      dup3\n      add\n        /* \"#utility.yul\":13653:13696   */\n      mstore\n        /* \"#utility.yul\":13712:13730   */\n      0x44\n      dup2\n      add\n        /* \"#utility.yul\":13705:13739   */\n      dup5\n      swap1\n      mstore\n        /* \"contracts/factories/BondFactory.sol\":7154:7164  _baseToken */\n      immutable(\"0xf9bbcd66573bf3c1f4cc184d2152e0dd1704bf0095e444b842e9e57042cbafba\")\n      sub(shl(0xa0, 0x01), 0x01)\n        /* \"contracts/factories/BondFactory.sol\":7154:7177  _baseToken.transferFrom */\n      and\n      swap3\n      pop\n      0x23b872dd\n      swap2\n      pop\n        /* \"#utility.yul\":13545:13563   */\n      0x64\n      add\n        /* \"contracts/factories/BondFactory.sol\":7154:7217  _baseToken.transferFrom(msg.sender, address(this), tokenAmount) */\n      tag_221\n        /* \"#utility.yul\":13370:13745   */\n      jump\n        /* \"contracts/factories/BondFactory.sol\":10230:10334  function tvl() public view returns (uint256) {... */\n    tag_135:\n        /* \"contracts/factories/BondFactory.sol\":10292:10327  _baseToken.balanceOf(address(this)) */\n      mload(0x40)\n      shl(0xe0, 0x70a08231)\n      dup2\n      mstore\n        /* \"contracts/factories/BondFactory.sol\":10321:10325  this */\n      address\n        /* \"contracts/factories/BondFactory.sol\":10292:10327  _baseToken.balanceOf(address(this)) */\n      0x04\n      dup3\n      add\n        /* \"#utility.yul\":2009:2060   */\n      mstore\n        /* \"contracts/factories/BondFactory.sol\":10266:10273  uint256 */\n      0x00\n      swap1\n        /* \"contracts/factories/BondFactory.sol\":10292:10302  _baseToken */\n      immutable(\"0xf9bbcd66573bf3c1f4cc184d2152e0dd1704bf0095e444b842e9e57042cbafba\")\n      sub(shl(0xa0, 0x01), 0x01)\n        /* \"contracts/factories/BondFactory.sol\":10292:10312  _baseToken.balanceOf */\n      and\n      swap1\n      0x70a08231\n      swap1\n        /* \"#utility.yul\":1982:2000   */\n      0x24\n      add\n        /* \"contracts/factories/BondFactory.sol\":10292:10327  _baseToken.balanceOf(address(this)) */\n      0x20\n      mload(0x40)\n      dup1\n      dup4\n      sub\n      dup2\n      dup7\n      gas\n      staticcall\n      iszero\n      dup1\n      iszero\n      tag_457\n      jumpi\n      returndatasize\n      0x00\n      dup1\n      returndatacopy\n      revert(0x00, returndatasize)\n    tag_457:\n      pop\n      pop\n      pop\n      pop\n      mload(0x40)\n      returndatasize\n      not(0x1f)\n      0x1f\n      dup3\n      add\n      and\n      dup3\n      add\n      dup1\n      0x40\n      mstore\n      pop\n      dup2\n      add\n      swap1\n      tag_458\n      swap2\n      swap1\n      tag_328\n      jump\t// in\n    tag_458:\n        /* \"contracts/factories/BondFactory.sol\":10285:10327  return _baseToken.balanceOf(address(this)) */\n      swap1\n      pop\n        /* \"contracts/factories/BondFactory.sol\":10230:10334  function tvl() public view returns (uint256) {... */\n      swap1\n      jump\t// out\n        /* \"contracts/factories/BondFactory.sol\":5243:5644  function withdrawExcess(uint256 id) external onlyOwner {... */\n    tag_139:\n        /* \"contracts/factories/BondFactory.sol\":1096:1106  msg.sender */\n      caller\n      sub(shl(0xa0, 0x01), 0x01)\n        /* \"contracts/factories/BondFactory.sol\":1110:1116  _owner */\n      immutable(\"0x22a2e3ce6024cf7fa9f23bb9996411ef645dedafa701962edde7c1d4874e9131\")\n        /* \"contracts/factories/BondFactory.sol\":1096:1116  msg.sender == _owner */\n      and\n      eq\n        /* \"contracts/factories/BondFactory.sol\":1088:1124  require(msg.sender == _owner, \"NTO\") */\n      tag_460\n      jumpi\n      mload(0x40)\n      shl(0xe5, 0x461bcd)\n      dup2\n      mstore\n      0x04\n      add\n      tag_193\n      swap1\n      tag_194\n      jump\t// in\n    tag_460:\n        /* \"contracts/factories/BondFactory.sol\":10860:10864  bool */\n      0x00\n        /* \"contracts/factories/BondFactory.sol\":10883:10899  _isCompleted[id] */\n      dup2\n      dup2\n      mstore\n        /* \"contracts/factories/BondFactory.sol\":10883:10895  _isCompleted */\n      0x09\n        /* \"contracts/factories/BondFactory.sol\":10883:10899  _isCompleted[id] */\n      0x20\n      mstore\n      0x40\n      swap1\n      keccak256\n      sload\n      0xff\n      and\n        /* \"contracts/factories/BondFactory.sol\":5316:5354  isCompleted(id) && isFullyRedeemed(id) */\n      dup1\n      iszero\n      tag_465\n      jumpi\n      pop\n        /* \"contracts/factories/BondFactory.sol\":10398:10402  bool */\n      0x00\n        /* \"contracts/factories/BondFactory.sol\":10446:10468  _purchasedQuantity[id] */\n      dup2\n      dup2\n      mstore\n        /* \"contracts/factories/BondFactory.sol\":10446:10464  _purchasedQuantity */\n      0x02\n        /* \"contracts/factories/BondFactory.sol\":10446:10468  _purchasedQuantity[id] */\n      0x20\n      swap1\n      dup2\n      mstore\n      0x40\n      dup1\n      dup4\n      keccak256\n      sload\n        /* \"contracts/factories/BondFactory.sol\":10421:10438  _redeemedQuantity */\n      0x03\n        /* \"contracts/factories/BondFactory.sol\":10421:10442  _redeemedQuantity[id] */\n      swap1\n      swap3\n      mstore\n      swap1\n      swap2\n      keccak256\n      sload\n        /* \"contracts/factories/BondFactory.sol\":10421:10468  _redeemedQuantity[id] == _purchasedQuantity[id] */\n      eq\n        /* \"contracts/factories/BondFactory.sol\":5335:5354  isFullyRedeemed(id) */\n    tag_465:\n        /* \"contracts/factories/BondFactory.sol\":5308:5362  require(isCompleted(id) && isFullyRedeemed(id), \"WNA\") */\n      tag_466\n      jumpi\n      mload(0x40)\n      shl(0xe5, 0x461bcd)\n      dup2\n      mstore\n        /* \"#utility.yul\":8807:8809   */\n      0x20\n        /* \"contracts/factories/BondFactory.sol\":5308:5362  require(isCompleted(id) && isFullyRedeemed(id), \"WNA\") */\n      0x04\n      dup3\n      add\n        /* \"#utility.yul\":8789:8810   */\n      mstore\n        /* \"#utility.yul\":8846:8847   */\n      0x03\n        /* \"#utility.yul\":8826:8844   */\n      0x24\n      dup3\n      add\n        /* \"#utility.yul\":8819:8848   */\n      mstore\n      shl(0xe8, 0x574e41)\n        /* \"#utility.yul\":8864:8882   */\n      0x44\n      dup3\n      add\n        /* \"#utility.yul\":8857:8890   */\n      mstore\n        /* \"#utility.yul\":8907:8925   */\n      0x64\n      add\n        /* \"contracts/factories/BondFactory.sol\":5308:5362  require(isCompleted(id) && isFullyRedeemed(id), \"WNA\") */\n      tag_193\n        /* \"#utility.yul\":8605:8931   */\n      jump\n        /* \"contracts/factories/BondFactory.sol\":5308:5362  require(isCompleted(id) && isFullyRedeemed(id), \"WNA\") */\n    tag_466:\n        /* \"contracts/factories/BondFactory.sol\":5407:5408  0 */\n      0x00\n        /* \"contracts/factories/BondFactory.sol\":5380:5404  _designatedTokenPool[id] */\n      dup2\n      dup2\n      mstore\n        /* \"contracts/factories/BondFactory.sol\":5380:5400  _designatedTokenPool */\n      0x04\n        /* \"contracts/factories/BondFactory.sol\":5380:5404  _designatedTokenPool[id] */\n      0x20\n      mstore\n      0x40\n      swap1\n      keccak256\n      sload\n        /* \"contracts/factories/BondFactory.sol\":5372:5416  require(_designatedTokenPool[id] > 0, \"WFE\") */\n      tag_468\n      jumpi\n      mload(0x40)\n      shl(0xe5, 0x461bcd)\n      dup2\n      mstore\n        /* \"#utility.yul\":15819:15821   */\n      0x20\n        /* \"contracts/factories/BondFactory.sol\":5372:5416  require(_designatedTokenPool[id] > 0, \"WFE\") */\n      0x04\n      dup3\n      add\n        /* \"#utility.yul\":15801:15822   */\n      mstore\n        /* \"#utility.yul\":15858:15859   */\n      0x03\n        /* \"#utility.yul\":15838:15856   */\n      0x24\n      dup3\n      add\n        /* \"#utility.yul\":15831:15860   */\n      mstore\n      shl(0xe8, 0x574645)\n        /* \"#utility.yul\":15876:15894   */\n      0x44\n      dup3\n      add\n        /* \"#utility.yul\":15869:15902   */\n      mstore\n        /* \"#utility.yul\":15919:15937   */\n      0x64\n      add\n        /* \"contracts/factories/BondFactory.sol\":5372:5416  require(_designatedTokenPool[id] > 0, \"WFE\") */\n      tag_193\n        /* \"#utility.yul\":15617:15943   */\n      jump\n        /* \"contracts/factories/BondFactory.sol\":5372:5416  require(_designatedTokenPool[id] > 0, \"WFE\") */\n    tag_468:\n        /* \"contracts/factories/BondFactory.sol\":5427:5446  uint256 tokenAmount */\n      0x00\n        /* \"contracts/factories/BondFactory.sol\":5449:5473  _designatedTokenPool[id] */\n      dup2\n      dup2\n      mstore\n        /* \"contracts/factories/BondFactory.sol\":5449:5469  _designatedTokenPool */\n      0x04\n        /* \"contracts/factories/BondFactory.sol\":5449:5473  _designatedTokenPool[id] */\n      0x20\n      dup2\n      swap1\n      mstore\n      0x40\n      dup1\n      dup4\n      keccak256\n      dup1\n      sload\n        /* \"contracts/factories/BondFactory.sol\":5483:5511  _designatedTokenPool[id] = 0 */\n      swap4\n      swap1\n      sstore\n        /* \"contracts/factories/BondFactory.sol\":5521:5582  _bondDB.decrementTVLByToken(tokenAmount, address(_baseToken)) */\n      mload\n      shl(0xe2, 0x2f2b9a09)\n      dup2\n      mstore\n      swap1\n      dup2\n      add\n        /* \"#utility.yul\":9574:9599   */\n      dup3\n      swap1\n      mstore\n      sub(shl(0xa0, 0x01), 0x01)\n        /* \"contracts/factories/BondFactory.sol\":5570:5580  _baseToken */\n      immutable(\"0xf9bbcd66573bf3c1f4cc184d2152e0dd1704bf0095e444b842e9e57042cbafba\")\n        /* \"#utility.yul\":9635:9667   */\n      dup2\n      and\n        /* \"#utility.yul\":9615:9633   */\n      0x24\n      dup4\n      add\n        /* \"#utility.yul\":9608:9668   */\n      mstore\n        /* \"contracts/factories/BondFactory.sol\":5521:5528  _bondDB */\n      immutable(\"0x2757844bcba802ce24af88f7c8fd3438a9a94d6eea4d1e58913fbc1440605b8d\")\n        /* \"contracts/factories/BondFactory.sol\":5521:5548  _bondDB.decrementTVLByToken */\n      and\n      swap1\n      0xbcae6824\n      swap1\n        /* \"#utility.yul\":9547:9565   */\n      0x44\n      add\n        /* \"contracts/factories/BondFactory.sol\":5521:5582  _bondDB.decrementTVLByToken(tokenAmount, address(_baseToken)) */\n      tag_216\n        /* \"#utility.yul\":9400:9674   */\n      jump\n        /* \"contracts/factories/BondFactory.sol\":1871:3425  function issue(... */\n    tag_152:\n        /* \"contracts/factories/BondFactory.sol\":2169:2179  uint256 id */\n      0x00\n        /* \"contracts/factories/BondFactory.sol\":1096:1106  msg.sender */\n      caller\n      sub(shl(0xa0, 0x01), 0x01)\n        /* \"contracts/factories/BondFactory.sol\":1110:1116  _owner */\n      immutable(\"0x22a2e3ce6024cf7fa9f23bb9996411ef645dedafa701962edde7c1d4874e9131\")\n        /* \"contracts/factories/BondFactory.sol\":1096:1116  msg.sender == _owner */\n      and\n      eq\n        /* \"contracts/factories/BondFactory.sol\":1088:1124  require(msg.sender == _owner, \"NTO\") */\n      tag_482\n      jumpi\n      mload(0x40)\n      shl(0xe5, 0x461bcd)\n      dup2\n      mstore\n      0x04\n      add\n      tag_193\n      swap1\n      tag_194\n      jump\t// in\n    tag_482:\n        /* \"contracts/factories/BondFactory.sol\":2222:2234  bondQuantity */\n      dup8\n        /* \"contracts/factories/BondFactory.sol\":2199:2219  minPurchasedQuantity */\n      dup8\n        /* \"contracts/factories/BondFactory.sol\":2199:2234  minPurchasedQuantity < bondQuantity */\n      lt\n        /* \"contracts/factories/BondFactory.sol\":2191:2246  require(minPurchasedQuantity < bondQuantity, \"MPQGTBQ\") */\n      tag_485\n      jumpi\n      mload(0x40)\n      shl(0xe5, 0x461bcd)\n      dup2\n      mstore\n        /* \"#utility.yul\":16150:16152   */\n      0x20\n        /* \"contracts/factories/BondFactory.sol\":2191:2246  require(minPurchasedQuantity < bondQuantity, \"MPQGTBQ\") */\n      0x04\n      dup3\n      add\n        /* \"#utility.yul\":16132:16153   */\n      mstore\n        /* \"#utility.yul\":16189:16190   */\n      0x07\n        /* \"#utility.yul\":16169:16187   */\n      0x24\n      dup3\n      add\n        /* \"#utility.yul\":16162:16191   */\n      mstore\n      shl(0xc8, 0x4d505147544251)\n        /* \"#utility.yul\":16207:16225   */\n      0x44\n      dup3\n      add\n        /* \"#utility.yul\":16200:16237   */\n      mstore\n        /* \"#utility.yul\":16254:16272   */\n      0x64\n      add\n        /* \"contracts/factories/BondFactory.sol\":2191:2246  require(minPurchasedQuantity < bondQuantity, \"MPQGTBQ\") */\n      tag_193\n        /* \"#utility.yul\":15948:16278   */\n      jump\n        /* \"contracts/factories/BondFactory.sol\":2191:2246  require(minPurchasedQuantity < bondQuantity, \"MPQGTBQ\") */\n    tag_485:\n        /* \"contracts/factories/BondFactory.sol\":2282:2285  180 */\n      0xb4\n        /* \"contracts/factories/BondFactory.sol\":2264:2278  durationInDays */\n      dup5\n        /* \"contracts/factories/BondFactory.sol\":2264:2285  durationInDays >= 180 */\n      lt\n      iszero\n        /* \"contracts/factories/BondFactory.sol\":2256:2294  require(durationInDays >= 180, \"DB6M\") */\n      tag_488\n      jumpi\n      mload(0x40)\n      shl(0xe5, 0x461bcd)\n      dup2\n      mstore\n      0x04\n      add\n      tag_193\n      swap1\n        /* \"#utility.yul\":16485:16487   */\n      0x20\n        /* \"#utility.yul\":16467:16488   */\n      dup1\n      dup3\n      mstore\n        /* \"#utility.yul\":16524:16525   */\n      0x04\n        /* \"#utility.yul\":16504:16522   */\n      swap1\n      dup3\n      add\n        /* \"#utility.yul\":16497:16526   */\n      mstore\n      shl(0xe0, 0x4442364d)\n        /* \"#utility.yul\":16557:16559   */\n      0x40\n        /* \"#utility.yul\":16542:16560   */\n      dup3\n      add\n        /* \"#utility.yul\":16535:16569   */\n      mstore\n        /* \"#utility.yul\":16601:16603   */\n      0x60\n        /* \"#utility.yul\":16586:16604   */\n      add\n      swap1\n        /* \"#utility.yul\":16283:16610   */\n      jump\n        /* \"contracts/factories/BondFactory.sol\":2256:2294  require(durationInDays >= 180, \"DB6M\") */\n    tag_488:\n        /* \"contracts/factories/BondFactory.sol\":2336:2337  7 */\n      0x07\n        /* \"contracts/factories/BondFactory.sol\":2312:2332  activeDurationInDays */\n      dup4\n        /* \"contracts/factories/BondFactory.sol\":2312:2337  activeDurationInDays <= 7 */\n      gt\n      iszero\n        /* \"contracts/factories/BondFactory.sol\":2304:2347  require(activeDurationInDays <= 7, \"ADA7D\") */\n      tag_491\n      jumpi\n      mload(0x40)\n      shl(0xe5, 0x461bcd)\n      dup2\n      mstore\n        /* \"#utility.yul\":16817:16819   */\n      0x20\n        /* \"contracts/factories/BondFactory.sol\":2304:2347  require(activeDurationInDays <= 7, \"ADA7D\") */\n      0x04\n      dup3\n      add\n        /* \"#utility.yul\":16799:16820   */\n      mstore\n        /* \"#utility.yul\":16856:16857   */\n      0x05\n        /* \"#utility.yul\":16836:16854   */\n      0x24\n      dup3\n      add\n        /* \"#utility.yul\":16829:16858   */\n      mstore\n      shl(0xda, 0x1051104dd1)\n        /* \"#utility.yul\":16874:16892   */\n      0x44\n      dup3\n      add\n        /* \"#utility.yul\":16867:16902   */\n      mstore\n        /* \"#utility.yul\":16919:16937   */\n      0x64\n      add\n        /* \"contracts/factories/BondFactory.sol\":2304:2347  require(activeDurationInDays <= 7, \"ADA7D\") */\n      tag_193\n        /* \"#utility.yul\":16615:16943   */\n      jump\n        /* \"contracts/factories/BondFactory.sol\":2304:2347  require(activeDurationInDays <= 7, \"ADA7D\") */\n    tag_491:\n        /* \"contracts/factories/BondFactory.sol\":2358:2379  _numBonds.increment() */\n      tag_494\n        /* \"contracts/factories/BondFactory.sol\":2358:2367  _numBonds */\n      0x00\n        /* \"@openzeppelin/contracts/utils/Counters.sol\":1032:1051  counter._value += 1 */\n      dup1\n      sload\n        /* \"@openzeppelin/contracts/utils/Counters.sol\":1050:1051  1 */\n      0x01\n        /* \"@openzeppelin/contracts/utils/Counters.sol\":1032:1051  counter._value += 1 */\n      add\n      swap1\n      sstore\n        /* \"@openzeppelin/contracts/utils/Counters.sol\":945:1068  function increment(Counter storage counter) internal {... */\n      jump\n        /* \"contracts/factories/BondFactory.sol\":2358:2379  _numBonds.increment() */\n    tag_494:\n        /* \"contracts/factories/BondFactory.sol\":2390:2424  IBond.BondMetadata memory metadata */\n      0x00\n        /* \"contracts/factories/BondFactory.sol\":2427:2532  IBond.BondMetadata(... */\n      mload(0x40)\n      dup1\n      0x60\n      add\n      0x40\n      mstore\n      dup1\n        /* \"contracts/factories/BondFactory.sol\":2459:2465  ticker */\n      dup8\n        /* \"contracts/factories/BondFactory.sol\":2427:2532  IBond.BondMetadata(... */\n      dup2\n      mstore\n      0x20\n      add\n        /* \"contracts/factories/BondFactory.sol\":2487:2497  _baseToken */\n      immutable(\"0xf9bbcd66573bf3c1f4cc184d2152e0dd1704bf0095e444b842e9e57042cbafba\")\n      sub(shl(0xa0, 0x01), 0x01)\n        /* \"contracts/factories/BondFactory.sol\":2427:2532  IBond.BondMetadata(... */\n      and\n      dup2\n      mstore\n      0x20\n      add\n        /* \"contracts/factories/BondFactory.sol\":2512:2522  msg.sender */\n      caller\n      sub(shl(0xa0, 0x01), 0x01)\n        /* \"contracts/factories/BondFactory.sol\":2427:2532  IBond.BondMetadata(... */\n      and\n      dup2\n      mstore\n      pop\n        /* \"contracts/factories/BondFactory.sol\":2390:2532  IBond.BondMetadata memory metadata = IBond.BondMetadata(... */\n      swap1\n      pop\n        /* \"contracts/factories/BondFactory.sol\":2543:2569  IBond.BondData memory data */\n      0x00\n        /* \"contracts/factories/BondFactory.sol\":2572:2913  IBond.BondData(... */\n      mload(0x40)\n      dup1\n      0x0120\n      add\n      0x40\n      mstore\n      dup1\n        /* \"contracts/factories/BondFactory.sol\":2600:2618  tokenAmountPerBond */\n      dup10\n        /* \"contracts/factories/BondFactory.sol\":2572:2913  IBond.BondData(... */\n      dup2\n      mstore\n      0x20\n      add\n        /* \"contracts/factories/BondFactory.sol\":2632:2647  block.timestamp */\n      timestamp\n        /* \"contracts/factories/BondFactory.sol\":2572:2913  IBond.BondData(... */\n      dup2\n      mstore\n      0x20\n      add\n        /* \"contracts/factories/BondFactory.sol\":2679:2693  durationInDays */\n      dup8\n        /* \"contracts/factories/BondFactory.sol\":2696:2702  1 days */\n      0x015180\n        /* \"contracts/factories/BondFactory.sol\":2679:2702  durationInDays * 1 days */\n      tag_496\n      swap2\n      swap1\n      tag_174\n      jump\t// in\n    tag_496:\n        /* \"contracts/factories/BondFactory.sol\":2661:2702  block.timestamp + durationInDays * 1 days */\n      tag_497\n      swap1\n        /* \"contracts/factories/BondFactory.sol\":2661:2676  block.timestamp */\n      timestamp\n        /* \"contracts/factories/BondFactory.sol\":2661:2702  block.timestamp + durationInDays * 1 days */\n      tag_277\n      jump\t// in\n    tag_497:\n        /* \"contracts/factories/BondFactory.sol\":2572:2913  IBond.BondData(... */\n      dup2\n      mstore\n      0x20\n      add\n        /* \"contracts/factories/BondFactory.sol\":2734:2763  activeDurationInDays * 1 days */\n      tag_498\n        /* \"contracts/factories/BondFactory.sol\":2734:2754  activeDurationInDays */\n      dup8\n        /* \"contracts/factories/BondFactory.sol\":2757:2763  1 days */\n      0x015180\n        /* \"contracts/factories/BondFactory.sol\":2734:2763  activeDurationInDays * 1 days */\n      tag_174\n      jump\t// in\n    tag_498:\n        /* \"contracts/factories/BondFactory.sol\":2716:2763  block.timestamp + activeDurationInDays * 1 days */\n      tag_499\n      swap1\n        /* \"contracts/factories/BondFactory.sol\":2716:2731  block.timestamp */\n      timestamp\n        /* \"contracts/factories/BondFactory.sol\":2716:2763  block.timestamp + activeDurationInDays * 1 days */\n      tag_277\n      jump\t// in\n    tag_499:\n        /* \"contracts/factories/BondFactory.sol\":2572:2913  IBond.BondData(... */\n      dup2\n      mstore\n      0x20\n      add\n        /* \"contracts/factories/BondFactory.sol\":2777:2797  activeDurationInDays */\n      dup7\n        /* \"contracts/factories/BondFactory.sol\":2572:2913  IBond.BondData(... */\n      dup2\n      mstore\n      0x20\n      add\n        /* \"contracts/factories/BondFactory.sol\":2811:2825  durationInDays */\n      dup8\n        /* \"contracts/factories/BondFactory.sol\":2572:2913  IBond.BondData(... */\n      dup2\n      mstore\n      0x20\n      add\n        /* \"contracts/factories/BondFactory.sol\":2839:2851  bondQuantity */\n      dup12\n        /* \"contracts/factories/BondFactory.sol\":2572:2913  IBond.BondData(... */\n      dup2\n      mstore\n      0x20\n      add\n        /* \"contracts/factories/BondFactory.sol\":2865:2885  minPurchasedQuantity */\n      dup11\n        /* \"contracts/factories/BondFactory.sol\":2572:2913  IBond.BondData(... */\n      dup2\n      mstore\n      0x20\n      add\n        /* \"contracts/factories/BondFactory.sol\":2899:2903  rate */\n      dup6\n        /* \"contracts/factories/BondFactory.sol\":2572:2913  IBond.BondData(... */\n      dup2\n      mstore\n      pop\n        /* \"contracts/factories/BondFactory.sol\":2543:2913  IBond.BondData memory data = IBond.BondData(... */\n      swap1\n      pop\n        /* \"contracts/factories/BondFactory.sol\":2929:2939  _bondToken */\n      immutable(\"0xc322ff1198f1018f90524fe27b385729b363ae518172debfa915634c95ec9ba4\")\n      sub(shl(0xa0, 0x01), 0x01)\n        /* \"contracts/factories/BondFactory.sol\":2929:2944  _bondToken.mint */\n      and\n      0x4196afd4\n        /* \"contracts/factories/BondFactory.sol\":2953:2957  this */\n      address\n        /* \"contracts/factories/BondFactory.sol\":2960:2972  bondQuantity */\n      dup13\n        /* \"contracts/factories/BondFactory.sol\":2974:2978  data */\n      dup5\n        /* \"contracts/factories/BondFactory.sol\":2980:2988  metadata */\n      dup7\n        /* \"contracts/factories/BondFactory.sol\":2929:2989  _bondToken.mint(address(this), bondQuantity, data, metadata) */\n      mload(0x40)\n      dup6\n      0xffffffff\n      and\n      0xe0\n      shl\n      dup2\n      mstore\n      0x04\n      add\n      tag_500\n      swap5\n      swap4\n      swap3\n      swap2\n      swap1\n      tag_501\n      jump\t// in\n    tag_500:\n      0x20\n      mload(0x40)\n      dup1\n      dup4\n      sub\n      dup2\n      0x00\n      dup8\n      gas\n      call\n      iszero\n      dup1\n      iszero\n      tag_503\n      jumpi\n      returndatasize\n      0x00\n      dup1\n      returndatacopy\n      revert(0x00, returndatasize)\n    tag_503:\n      pop\n      pop\n      pop\n      pop\n      mload(0x40)\n      returndatasize\n      not(0x1f)\n      0x1f\n      dup3\n      add\n      and\n      dup3\n      add\n      dup1\n      0x40\n      mstore\n      pop\n      dup2\n      add\n      swap1\n      tag_504\n      swap2\n      swap1\n      tag_328\n      jump\t// in\n    tag_504:\n        /* \"contracts/factories/BondFactory.sol\":3000:3006  _bonds */\n      0x01\n        /* \"contracts/factories/BondFactory.sol\":3000:3015  _bonds.push(id) */\n      dup1\n      sload\n      dup1\n      dup3\n      add\n      dup3\n      sstore\n      0xb10e2d527612073b26eecdfd717e6a320cf44b4afac2b0732d9fcbe2b7fa0cf6\n      add\n      dup3\n      swap1\n      sstore\n      0x00\n        /* \"contracts/factories/BondFactory.sol\":3025:3047  _isIssuedByFactory[id] */\n      dup3\n      dup2\n      mstore\n        /* \"contracts/factories/BondFactory.sol\":3025:3043  _isIssuedByFactory */\n      0x07\n        /* \"contracts/factories/BondFactory.sol\":3000:3015  _bonds.push(id) */\n      0x20\n        /* \"contracts/factories/BondFactory.sol\":3025:3047  _isIssuedByFactory[id] */\n      mstore\n      0x40\n      swap1\n      dup2\n      swap1\n      keccak256\n        /* \"contracts/factories/BondFactory.sol\":3025:3054  _isIssuedByFactory[id] = true */\n      dup1\n      sload\n      not(0xff)\n      and\n      dup4\n      or\n      swap1\n      sstore\n        /* \"contracts/factories/BondFactory.sol\":3065:3121  _bondDB.incrementNumberOfIssuedBondsByCategory(CATEGORY) */\n      mload\n      shl(0xe0, 0xb54cb165)\n      dup2\n      mstore\n        /* \"contracts/factories/BondFactory.sol\":2924:2989  id = _bondToken.mint(address(this), bondQuantity, data, metadata) */\n      swap2\n      swap5\n      pop\n      sub(shl(0xa0, 0x01), 0x01)\n        /* \"contracts/factories/BondFactory.sol\":3065:3072  _bondDB */\n      immutable(\"0x2757844bcba802ce24af88f7c8fd3438a9a94d6eea4d1e58913fbc1440605b8d\")\n        /* \"contracts/factories/BondFactory.sol\":3065:3111  _bondDB.incrementNumberOfIssuedBondsByCategory */\n      and\n      swap2\n      0xb54cb165\n      swap2\n        /* \"contracts/factories/BondFactory.sol\":3065:3121  _bondDB.incrementNumberOfIssuedBondsByCategory(CATEGORY) */\n      tag_506\n      swap2\n      0x04\n      add\n        /* \"#utility.yul\":828:853   */\n      swap1\n      dup2\n      mstore\n        /* \"#utility.yul\":816:818   */\n      0x20\n        /* \"#utility.yul\":801:819   */\n      add\n      swap1\n        /* \"#utility.yul\":682:859   */\n      jump\n        /* \"contracts/factories/BondFactory.sol\":3065:3121  _bondDB.incrementNumberOfIssuedBondsByCategory(CATEGORY) */\n    tag_506:\n      0x00\n      mload(0x40)\n      dup1\n      dup4\n      sub\n      dup2\n      0x00\n      dup8\n      dup1\n      extcodesize\n      iszero\n      dup1\n      iszero\n      tag_507\n      jumpi\n      0x00\n      dup1\n      revert\n    tag_507:\n      pop\n      gas\n      call\n      iszero\n      dup1\n      iszero\n      tag_509\n      jumpi\n      returndatasize\n      0x00\n      dup1\n      returndatacopy\n      revert(0x00, returndatasize)\n    tag_509:\n      pop\n      pop\n        /* \"contracts/factories/BondFactory.sol\":3131:3239  _bondDB.incrementNumberOfIssuedBondsByCompanyAndCategory(... */\n      mload(0x40)\n      shl(0xe2, 0x2fa9d73d)\n      dup2\n      mstore\n      sub(shl(0xa0, 0x01), 0x01)\n        /* \"contracts/factories/BondFactory.sol\":3201:3207  _owner */\n      immutable(\"0x22a2e3ce6024cf7fa9f23bb9996411ef645dedafa701962edde7c1d4874e9131\")\n        /* \"#utility.yul\":9871:9903   */\n      dup2\n      and\n        /* \"contracts/factories/BondFactory.sol\":3131:3239  _bondDB.incrementNumberOfIssuedBondsByCompanyAndCategory(... */\n      0x04\n      dup4\n      add\n        /* \"#utility.yul\":9853:9904   */\n      mstore\n        /* \"contracts/factories/BondFactory.sol\":601:602  1 */\n      0x01\n        /* \"#utility.yul\":9920:9938   */\n      0x24\n      dup4\n      add\n        /* \"#utility.yul\":9913:9947   */\n      mstore\n        /* \"contracts/factories/BondFactory.sol\":3131:3138  _bondDB */\n      immutable(\"0x2757844bcba802ce24af88f7c8fd3438a9a94d6eea4d1e58913fbc1440605b8d\")\n        /* \"contracts/factories/BondFactory.sol\":3131:3187  _bondDB.incrementNumberOfIssuedBondsByCompanyAndCategory */\n      and\n      swap3\n      pop\n      0xbea75cf4\n      swap2\n      pop\n        /* \"#utility.yul\":9826:9844   */\n      0x44\n      add\n        /* \"contracts/factories/BondFactory.sol\":3131:3239  _bondDB.incrementNumberOfIssuedBondsByCompanyAndCategory(... */\n      0x00\n      mload(0x40)\n      dup1\n      dup4\n      sub\n      dup2\n      0x00\n      dup8\n      dup1\n      extcodesize\n      iszero\n      dup1\n      iszero\n      tag_511\n      jumpi\n      0x00\n      dup1\n      revert\n    tag_511:\n      pop\n      gas\n      call\n      iszero\n      dup1\n      iszero\n      tag_513\n      jumpi\n      returndatasize\n      0x00\n      dup1\n      returndatacopy\n      revert(0x00, returndatasize)\n    tag_513:\n      pop\n      pop\n      pop\n      pop\n        /* \"contracts/factories/BondFactory.sol\":3275:3277  id */\n      dup3\n        /* \"contracts/factories/BondFactory.sol\":3255:3418  Issued(... */\n      0xf73e436c94925e1e8b2f0b16de0a2c56aea7fb27878f7815811bc05bc6c335e8\n        /* \"contracts/factories/BondFactory.sol\":3291:3303  bondQuantity */\n      dup12\n        /* \"contracts/factories/BondFactory.sol\":3317:3335  tokenAmountPerBond */\n      dup11\n        /* \"contracts/factories/BondFactory.sol\":3349:3353  rate */\n      dup8\n        /* \"contracts/factories/BondFactory.sol\":3385:3399  durationInDays */\n      dup11\n        /* \"contracts/factories/BondFactory.sol\":3402:3408  1 days */\n      0x015180\n        /* \"contracts/factories/BondFactory.sol\":3385:3408  durationInDays * 1 days */\n      tag_514\n      swap2\n      swap1\n      tag_174\n      jump\t// in\n    tag_514:\n        /* \"contracts/factories/BondFactory.sol\":3367:3408  block.timestamp + durationInDays * 1 days */\n      tag_515\n      swap1\n        /* \"contracts/factories/BondFactory.sol\":3367:3382  block.timestamp */\n      timestamp\n        /* \"contracts/factories/BondFactory.sol\":3367:3408  block.timestamp + durationInDays * 1 days */\n      tag_277\n      jump\t// in\n    tag_515:\n        /* \"contracts/factories/BondFactory.sol\":3255:3418  Issued(... */\n      0x40\n      dup1\n      mload\n        /* \"#utility.yul\":19036:19061   */\n      swap5\n      dup6\n      mstore\n        /* \"#utility.yul\":19092:19094   */\n      0x20\n        /* \"#utility.yul\":19077:19095   */\n      dup6\n      add\n        /* \"#utility.yul\":19070:19104   */\n      swap4\n      swap1\n      swap4\n      mstore\n        /* \"#utility.yul\":19120:19138   */\n      swap2\n      dup4\n      add\n        /* \"#utility.yul\":19113:19147   */\n      mstore\n        /* \"#utility.yul\":19178:19180   */\n      0x60\n        /* \"#utility.yul\":19163:19181   */\n      dup3\n      add\n        /* \"#utility.yul\":19156:19190   */\n      mstore\n        /* \"#utility.yul\":19023:19026   */\n      0x80\n        /* \"#utility.yul\":19008:19027   */\n      add\n        /* \"contracts/factories/BondFactory.sol\":3255:3418  Issued(... */\n      mload(0x40)\n      dup1\n      swap2\n      sub\n      swap1\n      log2\n        /* \"contracts/factories/BondFactory.sol\":2181:3425  {... */\n      pop\n      pop\n        /* \"contracts/factories/BondFactory.sol\":1871:3425  function issue(... */\n      swap8\n      swap7\n      pop\n      pop\n      pop\n      pop\n      pop\n      pop\n      pop\n      jump\t// out\n        /* \"#utility.yul\":14:300   */\n    tag_41:\n        /* \"#utility.yul\":72:78   */\n      0x00\n        /* \"#utility.yul\":125:127   */\n      0x20\n        /* \"#utility.yul\":113:122   */\n      dup3\n        /* \"#utility.yul\":104:111   */\n      dup5\n        /* \"#utility.yul\":100:123   */\n      sub\n        /* \"#utility.yul\":96:128   */\n      slt\n        /* \"#utility.yul\":93:145   */\n      iszero\n      tag_532\n      jumpi\n        /* \"#utility.yul\":141:142   */\n      0x00\n        /* \"#utility.yul\":138:139   */\n      dup1\n        /* \"#utility.yul\":131:143   */\n      revert\n        /* \"#utility.yul\":93:145   */\n    tag_532:\n        /* \"#utility.yul\":167:190   */\n      dup2\n      calldataload\n      not(sub(shl(0xe0, 0x01), 0x01))\n        /* \"#utility.yul\":219:251   */\n      dup2\n      and\n        /* \"#utility.yul\":209:252   */\n      dup2\n      eq\n        /* \"#utility.yul\":199:270   */\n      tag_533\n      jumpi\n        /* \"#utility.yul\":266:267   */\n      0x00\n        /* \"#utility.yul\":263:264   */\n      dup1\n        /* \"#utility.yul\":256:268   */\n      revert\n        /* \"#utility.yul\":199:270   */\n    tag_533:\n        /* \"#utility.yul\":289:294   */\n      swap4\n        /* \"#utility.yul\":14:300   */\n      swap3\n      pop\n      pop\n      pop\n      jump\t// out\n        /* \"#utility.yul\":497:677   */\n    tag_47:\n        /* \"#utility.yul\":556:562   */\n      0x00\n        /* \"#utility.yul\":609:611   */\n      0x20\n        /* \"#utility.yul\":597:606   */\n      dup3\n        /* \"#utility.yul\":588:595   */\n      dup5\n        /* \"#utility.yul\":584:607   */\n      sub\n        /* \"#utility.yul\":580:612   */\n      slt\n        /* \"#utility.yul\":577:629   */\n      iszero\n      tag_536\n      jumpi\n        /* \"#utility.yul\":625:626   */\n      0x00\n        /* \"#utility.yul\":622:623   */\n      dup1\n        /* \"#utility.yul\":615:627   */\n      revert\n        /* \"#utility.yul\":577:629   */\n    tag_536:\n      pop\n        /* \"#utility.yul\":648:671   */\n      calldataload\n      swap2\n        /* \"#utility.yul\":497:677   */\n      swap1\n      pop\n      jump\t// out\n        /* \"#utility.yul\":864:1496   */\n    tag_58:\n        /* \"#utility.yul\":1035:1037   */\n      0x20\n        /* \"#utility.yul\":1087:1108   */\n      dup1\n      dup3\n      mstore\n        /* \"#utility.yul\":1157:1170   */\n      dup3\n      mload\n        /* \"#utility.yul\":1060:1078   */\n      dup3\n      dup3\n      add\n        /* \"#utility.yul\":1179:1201   */\n      dup2\n      swap1\n      mstore\n        /* \"#utility.yul\":1006:1010   */\n      0x00\n      swap2\n        /* \"#utility.yul\":1035:1037   */\n      swap1\n        /* \"#utility.yul\":1258:1273   */\n      dup5\n      dup3\n      add\n      swap1\n        /* \"#utility.yul\":1232:1234   */\n      0x40\n        /* \"#utility.yul\":1217:1235   */\n      dup6\n      add\n      swap1\n        /* \"#utility.yul\":1006:1010   */\n      dup5\n        /* \"#utility.yul\":1301:1470   */\n    tag_539:\n        /* \"#utility.yul\":1315:1321   */\n      dup2\n        /* \"#utility.yul\":1312:1313   */\n      dup2\n        /* \"#utility.yul\":1309:1322   */\n      lt\n        /* \"#utility.yul\":1301:1470   */\n      iszero\n      tag_541\n      jumpi\n        /* \"#utility.yul\":1376:1389   */\n      dup4\n      mload\n        /* \"#utility.yul\":1364:1390   */\n      dup4\n      mstore\n        /* \"#utility.yul\":1445:1460   */\n      swap3\n      dup5\n      add\n      swap3\n        /* \"#utility.yul\":1410:1422   */\n      swap2\n      dup5\n      add\n      swap2\n        /* \"#utility.yul\":1337:1338   */\n      0x01\n        /* \"#utility.yul\":1330:1339   */\n      add\n        /* \"#utility.yul\":1301:1470   */\n      jump(tag_539)\n    tag_541:\n      pop\n        /* \"#utility.yul\":1487:1490   */\n      swap1\n      swap7\n        /* \"#utility.yul\":864:1496   */\n      swap6\n      pop\n      pop\n      pop\n      pop\n      pop\n      pop\n      jump\t// out\n        /* \"#utility.yul\":1501:1749   */\n    tag_77:\n        /* \"#utility.yul\":1569:1575   */\n      0x00\n        /* \"#utility.yul\":1577:1583   */\n      dup1\n        /* \"#utility.yul\":1630:1632   */\n      0x40\n        /* \"#utility.yul\":1618:1627   */\n      dup4\n        /* \"#utility.yul\":1609:1616   */\n      dup6\n        /* \"#utility.yul\":1605:1628   */\n      sub\n        /* \"#utility.yul\":1601:1633   */\n      slt\n        /* \"#utility.yul\":1598:1650   */\n      iszero\n      tag_543\n      jumpi\n        /* \"#utility.yul\":1646:1647   */\n      0x00\n        /* \"#utility.yul\":1643:1644   */\n      dup1\n        /* \"#utility.yul\":1636:1648   */\n      revert\n        /* \"#utility.yul\":1598:1650   */\n    tag_543:\n      pop\n      pop\n        /* \"#utility.yul\":1669:1692   */\n      dup1\n      calldataload\n      swap3\n        /* \"#utility.yul\":1739:1741   */\n      0x20\n        /* \"#utility.yul\":1724:1742   */\n      swap1\n      swap2\n      add\n        /* \"#utility.yul\":1711:1743   */\n      calldataload\n      swap2\n      pop\n        /* \"#utility.yul\":1501:1749   */\n      jump\t// out\n        /* \"#utility.yul\":2071:2244   */\n    tag_521:\n        /* \"#utility.yul\":2139:2159   */\n      dup1\n      calldataload\n      sub(shl(0xa0, 0x01), 0x01)\n        /* \"#utility.yul\":2188:2219   */\n      dup2\n      and\n        /* \"#utility.yul\":2178:2220   */\n      dup2\n      eq\n        /* \"#utility.yul\":2168:2238   */\n      tag_547\n      jumpi\n        /* \"#utility.yul\":2234:2235   */\n      0x00\n        /* \"#utility.yul\":2231:2232   */\n      dup1\n        /* \"#utility.yul\":2224:2236   */\n      revert\n        /* \"#utility.yul\":2168:2238   */\n    tag_547:\n        /* \"#utility.yul\":2071:2244   */\n      swap2\n      swap1\n      pop\n      jump\t// out\n        /* \"#utility.yul\":2249:2376   */\n    tag_522:\n        /* \"#utility.yul\":2310:2320   */\n      0x4e487b71\n        /* \"#utility.yul\":2305:2308   */\n      0xe0\n        /* \"#utility.yul\":2301:2321   */\n      shl\n        /* \"#utility.yul\":2298:2299   */\n      0x00\n        /* \"#utility.yul\":2291:2322   */\n      mstore\n        /* \"#utility.yul\":2341:2345   */\n      0x41\n        /* \"#utility.yul\":2338:2339   */\n      0x04\n        /* \"#utility.yul\":2331:2346   */\n      mstore\n        /* \"#utility.yul\":2365:2369   */\n      0x24\n        /* \"#utility.yul\":2362:2363   */\n      0x00\n        /* \"#utility.yul\":2355:2370   */\n      revert\n        /* \"#utility.yul\":2381:2633   */\n    tag_523:\n        /* \"#utility.yul\":2453:2455   */\n      0x40\n        /* \"#utility.yul\":2447:2456   */\n      mload\n        /* \"#utility.yul\":2495:2498   */\n      0x0120\n        /* \"#utility.yul\":2483:2499   */\n      dup2\n      add\n        /* \"#utility.yul\":2529:2547   */\n      0xffffffffffffffff\n        /* \"#utility.yul\":2514:2548   */\n      dup2\n      gt\n        /* \"#utility.yul\":2550:2572   */\n      dup3\n      dup3\n      lt\n        /* \"#utility.yul\":2511:2573   */\n      or\n        /* \"#utility.yul\":2508:2596   */\n      iszero\n      tag_551\n      jumpi\n        /* \"#utility.yul\":2576:2594   */\n      tag_551\n      tag_522\n      jump\t// in\n    tag_551:\n        /* \"#utility.yul\":2612:2614   */\n      0x40\n        /* \"#utility.yul\":2605:2627   */\n      mstore\n        /* \"#utility.yul\":2381:2633   */\n      swap1\n      jump\t// out\n        /* \"#utility.yul\":2638:2913   */\n    tag_524:\n        /* \"#utility.yul\":2709:2711   */\n      0x40\n        /* \"#utility.yul\":2703:2712   */\n      mload\n        /* \"#utility.yul\":2774:2776   */\n      0x1f\n        /* \"#utility.yul\":2755:2768   */\n      dup3\n      add\n      not(0x1f)\n        /* \"#utility.yul\":2751:2778   */\n      and\n        /* \"#utility.yul\":2739:2779   */\n      dup2\n      add\n        /* \"#utility.yul\":2809:2827   */\n      0xffffffffffffffff\n        /* \"#utility.yul\":2794:2828   */\n      dup2\n      gt\n        /* \"#utility.yul\":2830:2852   */\n      dup3\n      dup3\n      lt\n        /* \"#utility.yul\":2791:2853   */\n      or\n        /* \"#utility.yul\":2788:2876   */\n      iszero\n      tag_554\n      jumpi\n        /* \"#utility.yul\":2856:2874   */\n      tag_554\n      tag_522\n      jump\t// in\n    tag_554:\n        /* \"#utility.yul\":2892:2894   */\n      0x40\n        /* \"#utility.yul\":2885:2907   */\n      mstore\n        /* \"#utility.yul\":2638:2913   */\n      swap2\n      swap1\n      pop\n      jump\t// out\n        /* \"#utility.yul\":2918:3630   */\n    tag_525:\n        /* \"#utility.yul\":2972:2977   */\n      0x00\n        /* \"#utility.yul\":3025:3028   */\n      dup3\n        /* \"#utility.yul\":3018:3022   */\n      0x1f\n        /* \"#utility.yul\":3010:3016   */\n      dup4\n        /* \"#utility.yul\":3006:3023   */\n      add\n        /* \"#utility.yul\":3002:3029   */\n      slt\n        /* \"#utility.yul\":2992:3047   */\n      tag_556\n      jumpi\n        /* \"#utility.yul\":3043:3044   */\n      0x00\n        /* \"#utility.yul\":3040:3041   */\n      dup1\n        /* \"#utility.yul\":3033:3045   */\n      revert\n        /* \"#utility.yul\":2992:3047   */\n    tag_556:\n        /* \"#utility.yul\":3079:3085   */\n      dup2\n        /* \"#utility.yul\":3066:3086   */\n      calldataload\n        /* \"#utility.yul\":3105:3109   */\n      0x20\n        /* \"#utility.yul\":3128:3146   */\n      0xffffffffffffffff\n        /* \"#utility.yul\":3124:3126   */\n      dup3\n        /* \"#utility.yul\":3121:3147   */\n      gt\n        /* \"#utility.yul\":3118:3170   */\n      iszero\n      tag_558\n      jumpi\n        /* \"#utility.yul\":3150:3168   */\n      tag_558\n      tag_522\n      jump\t// in\n    tag_558:\n        /* \"#utility.yul\":3196:3198   */\n      dup2\n        /* \"#utility.yul\":3193:3194   */\n      0x05\n        /* \"#utility.yul\":3189:3199   */\n      shl\n        /* \"#utility.yul\":3219:3247   */\n      tag_559\n        /* \"#utility.yul\":3243:3245   */\n      dup3\n        /* \"#utility.yul\":3239:3241   */\n      dup3\n        /* \"#utility.yul\":3235:3246   */\n      add\n        /* \"#utility.yul\":3219:3247   */\n      tag_524\n      jump\t// in\n    tag_559:\n        /* \"#utility.yul\":3281:3296   */\n      swap3\n      dup4\n      mstore\n        /* \"#utility.yul\":3351:3366   */\n      dup5\n      dup2\n      add\n        /* \"#utility.yul\":3347:3371   */\n      dup3\n      add\n      swap3\n        /* \"#utility.yul\":3312:3324   */\n      dup3\n      dup2\n      add\n      swap1\n        /* \"#utility.yul\":3383:3398   */\n      dup8\n      dup6\n      gt\n        /* \"#utility.yul\":3380:3415   */\n      iszero\n      tag_560\n      jumpi\n        /* \"#utility.yul\":3411:3412   */\n      0x00\n        /* \"#utility.yul\":3408:3409   */\n      dup1\n        /* \"#utility.yul\":3401:3413   */\n      revert\n        /* \"#utility.yul\":3380:3415   */\n    tag_560:\n        /* \"#utility.yul\":3447:3449   */\n      dup4\n        /* \"#utility.yul\":3439:3445   */\n      dup8\n        /* \"#utility.yul\":3435:3450   */\n      add\n        /* \"#utility.yul\":3424:3450   */\n      swap3\n      pop\n        /* \"#utility.yul\":3459:3601   */\n    tag_561:\n        /* \"#utility.yul\":3475:3481   */\n      dup5\n        /* \"#utility.yul\":3470:3473   */\n      dup4\n        /* \"#utility.yul\":3467:3482   */\n      lt\n        /* \"#utility.yul\":3459:3601   */\n      iszero\n      tag_563\n      jumpi\n        /* \"#utility.yul\":3541:3558   */\n      dup3\n      calldataload\n        /* \"#utility.yul\":3529:3559   */\n      dup3\n      mstore\n        /* \"#utility.yul\":3492:3504   */\n      swap2\n      dup4\n      add\n      swap2\n        /* \"#utility.yul\":3579:3591   */\n      swap1\n      dup4\n      add\n      swap1\n        /* \"#utility.yul\":3459:3601   */\n      jump(tag_561)\n    tag_563:\n        /* \"#utility.yul\":3619:3624   */\n      swap8\n        /* \"#utility.yul\":2918:3630   */\n      swap7\n      pop\n      pop\n      pop\n      pop\n      pop\n      pop\n      pop\n      jump\t// out\n        /* \"#utility.yul\":3635:4041   */\n    tag_526:\n        /* \"#utility.yul\":3699:3704   */\n      0x00\n        /* \"#utility.yul\":3733:3751   */\n      0xffffffffffffffff\n        /* \"#utility.yul\":3725:3731   */\n      dup4\n        /* \"#utility.yul\":3722:3752   */\n      gt\n        /* \"#utility.yul\":3719:3775   */\n      iszero\n      tag_566\n      jumpi\n        /* \"#utility.yul\":3755:3773   */\n      tag_566\n      tag_522\n      jump\t// in\n    tag_566:\n        /* \"#utility.yul\":3793:3850   */\n      tag_567\n        /* \"#utility.yul\":3838:3840   */\n      0x1f\n        /* \"#utility.yul\":3817:3832   */\n      dup5\n      add\n      not(0x1f)\n        /* \"#utility.yul\":3813:3842   */\n      and\n        /* \"#utility.yul\":3844:3848   */\n      0x20\n        /* \"#utility.yul\":3809:3849   */\n      add\n        /* \"#utility.yul\":3793:3850   */\n      tag_524\n      jump\t// in\n    tag_567:\n        /* \"#utility.yul\":3784:3850   */\n      swap1\n      pop\n        /* \"#utility.yul\":3873:3879   */\n      dup3\n        /* \"#utility.yul\":3866:3871   */\n      dup2\n        /* \"#utility.yul\":3859:3880   */\n      mstore\n        /* \"#utility.yul\":3913:3916   */\n      dup4\n        /* \"#utility.yul\":3904:3910   */\n      dup4\n        /* \"#utility.yul\":3899:3902   */\n      dup4\n        /* \"#utility.yul\":3895:3911   */\n      add\n        /* \"#utility.yul\":3892:3917   */\n      gt\n        /* \"#utility.yul\":3889:3934   */\n      iszero\n      tag_568\n      jumpi\n        /* \"#utility.yul\":3930:3931   */\n      0x00\n        /* \"#utility.yul\":3927:3928   */\n      dup1\n        /* \"#utility.yul\":3920:3932   */\n      revert\n        /* \"#utility.yul\":3889:3934   */\n    tag_568:\n        /* \"#utility.yul\":3979:3985   */\n      dup3\n        /* \"#utility.yul\":3974:3977   */\n      dup3\n        /* \"#utility.yul\":3967:3971   */\n      0x20\n        /* \"#utility.yul\":3960:3965   */\n      dup4\n        /* \"#utility.yul\":3956:3972   */\n      add\n        /* \"#utility.yul\":3943:3986   */\n      calldatacopy\n        /* \"#utility.yul\":4033:4034   */\n      0x00\n        /* \"#utility.yul\":4026:4030   */\n      0x20\n        /* \"#utility.yul\":4017:4023   */\n      dup5\n        /* \"#utility.yul\":4010:4015   */\n      dup4\n        /* \"#utility.yul\":4006:4024   */\n      add\n        /* \"#utility.yul\":4002:4031   */\n      add\n        /* \"#utility.yul\":3995:4035   */\n      mstore\n        /* \"#utility.yul\":3635:4041   */\n      swap4\n      swap3\n      pop\n      pop\n      pop\n      jump\t// out\n        /* \"#utility.yul\":4046:4266   */\n    tag_527:\n        /* \"#utility.yul\":4088:4093   */\n      0x00\n        /* \"#utility.yul\":4141:4144   */\n      dup3\n        /* \"#utility.yul\":4134:4138   */\n      0x1f\n        /* \"#utility.yul\":4126:4132   */\n      dup4\n        /* \"#utility.yul\":4122:4139   */\n      add\n        /* \"#utility.yul\":4118:4145   */\n      slt\n        /* \"#utility.yul\":4108:4163   */\n      tag_570\n      jumpi\n        /* \"#utility.yul\":4159:4160   */\n      0x00\n        /* \"#utility.yul\":4156:4157   */\n      dup1\n        /* \"#utility.yul\":4149:4161   */\n      revert\n        /* \"#utility.yul\":4108:4163   */\n    tag_570:\n        /* \"#utility.yul\":4181:4260   */\n      tag_533\n        /* \"#utility.yul\":4256:4259   */\n      dup4\n        /* \"#utility.yul\":4247:4253   */\n      dup4\n        /* \"#utility.yul\":4234:4254   */\n      calldataload\n        /* \"#utility.yul\":4227:4231   */\n      0x20\n        /* \"#utility.yul\":4219:4225   */\n      dup6\n        /* \"#utility.yul\":4215:4232   */\n      add\n        /* \"#utility.yul\":4181:4260   */\n      tag_526\n      jump\t// in\n        /* \"#utility.yul\":4271:5214   */\n    tag_121:\n        /* \"#utility.yul\":4425:4431   */\n      0x00\n        /* \"#utility.yul\":4433:4439   */\n      dup1\n        /* \"#utility.yul\":4441:4447   */\n      0x00\n        /* \"#utility.yul\":4449:4455   */\n      dup1\n        /* \"#utility.yul\":4457:4463   */\n      0x00\n        /* \"#utility.yul\":4510:4513   */\n      0xa0\n        /* \"#utility.yul\":4498:4507   */\n      dup7\n        /* \"#utility.yul\":4489:4496   */\n      dup9\n        /* \"#utility.yul\":4485:4508   */\n      sub\n        /* \"#utility.yul\":4481:4514   */\n      slt\n        /* \"#utility.yul\":4478:4531   */\n      iszero\n      tag_573\n      jumpi\n        /* \"#utility.yul\":4527:4528   */\n      0x00\n        /* \"#utility.yul\":4524:4525   */\n      dup1\n        /* \"#utility.yul\":4517:4529   */\n      revert\n        /* \"#utility.yul\":4478:4531   */\n    tag_573:\n        /* \"#utility.yul\":4550:4579   */\n      tag_574\n        /* \"#utility.yul\":4569:4578   */\n      dup7\n        /* \"#utility.yul\":4550:4579   */\n      tag_521\n      jump\t// in\n    tag_574:\n        /* \"#utility.yul\":4540:4579   */\n      swap5\n      pop\n        /* \"#utility.yul\":4598:4636   */\n      tag_575\n        /* \"#utility.yul\":4632:4634   */\n      0x20\n        /* \"#utility.yul\":4621:4630   */\n      dup8\n        /* \"#utility.yul\":4617:4635   */\n      add\n        /* \"#utility.yul\":4598:4636   */\n      tag_521\n      jump\t// in\n    tag_575:\n        /* \"#utility.yul\":4588:4636   */\n      swap4\n      pop\n        /* \"#utility.yul\":4687:4689   */\n      0x40\n        /* \"#utility.yul\":4676:4685   */\n      dup7\n        /* \"#utility.yul\":4672:4690   */\n      add\n        /* \"#utility.yul\":4659:4691   */\n      calldataload\n        /* \"#utility.yul\":4710:4728   */\n      0xffffffffffffffff\n        /* \"#utility.yul\":4751:4753   */\n      dup1\n        /* \"#utility.yul\":4743:4749   */\n      dup3\n        /* \"#utility.yul\":4740:4754   */\n      gt\n        /* \"#utility.yul\":4737:4771   */\n      iszero\n      tag_576\n      jumpi\n        /* \"#utility.yul\":4767:4768   */\n      0x00\n        /* \"#utility.yul\":4764:4765   */\n      dup1\n        /* \"#utility.yul\":4757:4769   */\n      revert\n        /* \"#utility.yul\":4737:4771   */\n    tag_576:\n        /* \"#utility.yul\":4790:4851   */\n      tag_577\n        /* \"#utility.yul\":4843:4850   */\n      dup10\n        /* \"#utility.yul\":4834:4840   */\n      dup4\n        /* \"#utility.yul\":4823:4832   */\n      dup11\n        /* \"#utility.yul\":4819:4841   */\n      add\n        /* \"#utility.yul\":4790:4851   */\n      tag_525\n      jump\t// in\n    tag_577:\n        /* \"#utility.yul\":4780:4851   */\n      swap5\n      pop\n        /* \"#utility.yul\":4904:4906   */\n      0x60\n        /* \"#utility.yul\":4893:4902   */\n      dup9\n        /* \"#utility.yul\":4889:4907   */\n      add\n        /* \"#utility.yul\":4876:4908   */\n      calldataload\n        /* \"#utility.yul\":4860:4908   */\n      swap2\n      pop\n        /* \"#utility.yul\":4933:4935   */\n      dup1\n        /* \"#utility.yul\":4923:4931   */\n      dup3\n        /* \"#utility.yul\":4920:4936   */\n      gt\n        /* \"#utility.yul\":4917:4953   */\n      iszero\n      tag_578\n      jumpi\n        /* \"#utility.yul\":4949:4950   */\n      0x00\n        /* \"#utility.yul\":4946:4947   */\n      dup1\n        /* \"#utility.yul\":4939:4951   */\n      revert\n        /* \"#utility.yul\":4917:4953   */\n    tag_578:\n        /* \"#utility.yul\":4972:5035   */\n      tag_579\n        /* \"#utility.yul\":5027:5034   */\n      dup10\n        /* \"#utility.yul\":5016:5024   */\n      dup4\n        /* \"#utility.yul\":5005:5014   */\n      dup11\n        /* \"#utility.yul\":5001:5025   */\n      add\n        /* \"#utility.yul\":4972:5035   */\n      tag_525\n      jump\t// in\n    tag_579:\n        /* \"#utility.yul\":4962:5035   */\n      swap4\n      pop\n        /* \"#utility.yul\":5088:5091   */\n      0x80\n        /* \"#utility.yul\":5077:5086   */\n      dup9\n        /* \"#utility.yul\":5073:5092   */\n      add\n        /* \"#utility.yul\":5060:5093   */\n      calldataload\n        /* \"#utility.yul\":5044:5093   */\n      swap2\n      pop\n        /* \"#utility.yul\":5118:5120   */\n      dup1\n        /* \"#utility.yul\":5108:5116   */\n      dup3\n        /* \"#utility.yul\":5105:5121   */\n      gt\n        /* \"#utility.yul\":5102:5138   */\n      iszero\n      tag_580\n      jumpi\n        /* \"#utility.yul\":5134:5135   */\n      0x00\n        /* \"#utility.yul\":5131:5132   */\n      dup1\n        /* \"#utility.yul\":5124:5136   */\n      revert\n        /* \"#utility.yul\":5102:5138   */\n    tag_580:\n      pop\n        /* \"#utility.yul\":5157:5208   */\n      tag_581\n        /* \"#utility.yul\":5200:5207   */\n      dup9\n        /* \"#utility.yul\":5189:5197   */\n      dup3\n        /* \"#utility.yul\":5178:5187   */\n      dup10\n        /* \"#utility.yul\":5174:5198   */\n      add\n        /* \"#utility.yul\":5157:5208   */\n      tag_527\n      jump\t// in\n    tag_581:\n        /* \"#utility.yul\":5147:5208   */\n      swap2\n      pop\n      pop\n        /* \"#utility.yul\":4271:5214   */\n      swap3\n      swap6\n      pop\n      swap3\n      swap6\n      swap1\n      swap4\n      pop\n      jump\t// out\n        /* \"#utility.yul\":5426:6032   */\n    tag_146:\n        /* \"#utility.yul\":5530:5536   */\n      0x00\n        /* \"#utility.yul\":5538:5544   */\n      dup1\n        /* \"#utility.yul\":5546:5552   */\n      0x00\n        /* \"#utility.yul\":5554:5560   */\n      dup1\n        /* \"#utility.yul\":5562:5568   */\n      0x00\n        /* \"#utility.yul\":5615:5618   */\n      0xa0\n        /* \"#utility.yul\":5603:5612   */\n      dup7\n        /* \"#utility.yul\":5594:5601   */\n      dup9\n        /* \"#utility.yul\":5590:5613   */\n      sub\n        /* \"#utility.yul\":5586:5619   */\n      slt\n        /* \"#utility.yul\":5583:5636   */\n      iszero\n      tag_584\n      jumpi\n        /* \"#utility.yul\":5632:5633   */\n      0x00\n        /* \"#utility.yul\":5629:5630   */\n      dup1\n        /* \"#utility.yul\":5622:5634   */\n      revert\n        /* \"#utility.yul\":5583:5636   */\n    tag_584:\n        /* \"#utility.yul\":5655:5684   */\n      tag_585\n        /* \"#utility.yul\":5674:5683   */\n      dup7\n        /* \"#utility.yul\":5655:5684   */\n      tag_521\n      jump\t// in\n    tag_585:\n        /* \"#utility.yul\":5645:5684   */\n      swap5\n      pop\n        /* \"#utility.yul\":5703:5741   */\n      tag_586\n        /* \"#utility.yul\":5737:5739   */\n      0x20\n        /* \"#utility.yul\":5726:5735   */\n      dup8\n        /* \"#utility.yul\":5722:5740   */\n      add\n        /* \"#utility.yul\":5703:5741   */\n      tag_521\n      jump\t// in\n    tag_586:\n        /* \"#utility.yul\":5693:5741   */\n      swap4\n      pop\n        /* \"#utility.yul\":5788:5790   */\n      0x40\n        /* \"#utility.yul\":5777:5786   */\n      dup7\n        /* \"#utility.yul\":5773:5791   */\n      add\n        /* \"#utility.yul\":5760:5792   */\n      calldataload\n        /* \"#utility.yul\":5750:5792   */\n      swap3\n      pop\n        /* \"#utility.yul\":5839:5841   */\n      0x60\n        /* \"#utility.yul\":5828:5837   */\n      dup7\n        /* \"#utility.yul\":5824:5842   */\n      add\n        /* \"#utility.yul\":5811:5843   */\n      calldataload\n        /* \"#utility.yul\":5801:5843   */\n      swap2\n      pop\n        /* \"#utility.yul\":5894:5897   */\n      0x80\n        /* \"#utility.yul\":5883:5892   */\n      dup7\n        /* \"#utility.yul\":5879:5898   */\n      add\n        /* \"#utility.yul\":5866:5899   */\n      calldataload\n        /* \"#utility.yul\":5922:5940   */\n      0xffffffffffffffff\n        /* \"#utility.yul\":5914:5920   */\n      dup2\n        /* \"#utility.yul\":5911:5941   */\n      gt\n        /* \"#utility.yul\":5908:5958   */\n      iszero\n      tag_587\n      jumpi\n        /* \"#utility.yul\":5954:5955   */\n      0x00\n        /* \"#utility.yul\":5951:5952   */\n      dup1\n        /* \"#utility.yul\":5944:5956   */\n      revert\n        /* \"#utility.yul\":5908:5958   */\n    tag_587:\n        /* \"#utility.yul\":5977:6026   */\n      tag_581\n        /* \"#utility.yul\":6018:6025   */\n      dup9\n        /* \"#utility.yul\":6009:6015   */\n      dup3\n        /* \"#utility.yul\":5998:6007   */\n      dup10\n        /* \"#utility.yul\":5994:6016   */\n      add\n        /* \"#utility.yul\":5977:6026   */\n      tag_527\n      jump\t// in\n        /* \"#utility.yul\":6037:6899   */\n    tag_151:\n        /* \"#utility.yul\":6160:6166   */\n      0x00\n        /* \"#utility.yul\":6168:6174   */\n      dup1\n        /* \"#utility.yul\":6176:6182   */\n      0x00\n        /* \"#utility.yul\":6184:6190   */\n      dup1\n        /* \"#utility.yul\":6192:6198   */\n      0x00\n        /* \"#utility.yul\":6200:6206   */\n      dup1\n        /* \"#utility.yul\":6208:6214   */\n      0x00\n        /* \"#utility.yul\":6261:6264   */\n      0xe0\n        /* \"#utility.yul\":6249:6258   */\n      dup9\n        /* \"#utility.yul\":6240:6247   */\n      dup11\n        /* \"#utility.yul\":6236:6259   */\n      sub\n        /* \"#utility.yul\":6232:6265   */\n      slt\n        /* \"#utility.yul\":6229:6282   */\n      iszero\n      tag_590\n      jumpi\n        /* \"#utility.yul\":6278:6279   */\n      0x00\n        /* \"#utility.yul\":6275:6276   */\n      dup1\n        /* \"#utility.yul\":6268:6280   */\n      revert\n        /* \"#utility.yul\":6229:6282   */\n    tag_590:\n        /* \"#utility.yul\":6314:6323   */\n      dup8\n        /* \"#utility.yul\":6301:6324   */\n      calldataload\n        /* \"#utility.yul\":6291:6324   */\n      swap7\n      pop\n        /* \"#utility.yul\":6371:6373   */\n      0x20\n        /* \"#utility.yul\":6360:6369   */\n      dup9\n        /* \"#utility.yul\":6356:6374   */\n      add\n        /* \"#utility.yul\":6343:6375   */\n      calldataload\n        /* \"#utility.yul\":6333:6375   */\n      swap6\n      pop\n        /* \"#utility.yul\":6422:6424   */\n      0x40\n        /* \"#utility.yul\":6411:6420   */\n      dup9\n        /* \"#utility.yul\":6407:6425   */\n      add\n        /* \"#utility.yul\":6394:6426   */\n      calldataload\n        /* \"#utility.yul\":6384:6426   */\n      swap5\n      pop\n        /* \"#utility.yul\":6477:6479   */\n      0x60\n        /* \"#utility.yul\":6466:6475   */\n      dup9\n        /* \"#utility.yul\":6462:6480   */\n      add\n        /* \"#utility.yul\":6449:6481   */\n      calldataload\n        /* \"#utility.yul\":6504:6522   */\n      0xffffffffffffffff\n        /* \"#utility.yul\":6496:6502   */\n      dup2\n        /* \"#utility.yul\":6493:6523   */\n      gt\n        /* \"#utility.yul\":6490:6540   */\n      iszero\n      tag_591\n      jumpi\n        /* \"#utility.yul\":6536:6537   */\n      0x00\n        /* \"#utility.yul\":6533:6534   */\n      dup1\n        /* \"#utility.yul\":6526:6538   */\n      revert\n        /* \"#utility.yul\":6490:6540   */\n    tag_591:\n        /* \"#utility.yul\":6559:6581   */\n      dup9\n      add\n        /* \"#utility.yul\":6612:6616   */\n      0x1f\n        /* \"#utility.yul\":6604:6617   */\n      dup2\n      add\n        /* \"#utility.yul\":6600:6627   */\n      dup11\n      sgt\n        /* \"#utility.yul\":6590:6645   */\n      tag_592\n      jumpi\n        /* \"#utility.yul\":6641:6642   */\n      0x00\n        /* \"#utility.yul\":6638:6639   */\n      dup1\n        /* \"#utility.yul\":6631:6643   */\n      revert\n        /* \"#utility.yul\":6590:6645   */\n    tag_592:\n        /* \"#utility.yul\":6664:6737   */\n      tag_593\n        /* \"#utility.yul\":6729:6736   */\n      dup11\n        /* \"#utility.yul\":6724:6726   */\n      dup3\n        /* \"#utility.yul\":6711:6727   */\n      calldataload\n        /* \"#utility.yul\":6706:6708   */\n      0x20\n        /* \"#utility.yul\":6702:6704   */\n      dup5\n        /* \"#utility.yul\":6698:6709   */\n      add\n        /* \"#utility.yul\":6664:6737   */\n      tag_526\n      jump\t// in\n    tag_593:\n        /* \"#utility.yul\":6037:6899   */\n      swap8\n      swap11\n      swap7\n      swap10\n      pop\n      swap5\n      swap8\n        /* \"#utility.yul\":6784:6787   */\n      0x80\n        /* \"#utility.yul\":6769:6788   */\n      dup2\n      add\n        /* \"#utility.yul\":6756:6789   */\n      calldataload\n      swap7\n        /* \"#utility.yul\":6836:6839   */\n      0xa0\n        /* \"#utility.yul\":6821:6840   */\n      dup3\n      add\n        /* \"#utility.yul\":6808:6841   */\n      calldataload\n      swap7\n      pop\n        /* \"#utility.yul\":6888:6891   */\n      0xc0\n        /* \"#utility.yul\":6873:6892   */\n      swap1\n      swap2\n      add\n        /* \"#utility.yul\":6860:6893   */\n      calldataload\n      swap5\n      pop\n        /* \"#utility.yul\":6037:6899   */\n      swap3\n      pop\n      pop\n      pop\n      jump\t// out\n        /* \"#utility.yul\":6904:7682   */\n    tag_164:\n        /* \"#utility.yul\":7000:7006   */\n      0x00\n        /* \"#utility.yul\":7053:7056   */\n      0x0120\n        /* \"#utility.yul\":7041:7050   */\n      dup3\n        /* \"#utility.yul\":7032:7039   */\n      dup5\n        /* \"#utility.yul\":7028:7051   */\n      sub\n        /* \"#utility.yul\":7024:7057   */\n      slt\n        /* \"#utility.yul\":7021:7074   */\n      iszero\n      tag_595\n      jumpi\n        /* \"#utility.yul\":7070:7071   */\n      0x00\n        /* \"#utility.yul\":7067:7068   */\n      dup1\n        /* \"#utility.yul\":7060:7072   */\n      revert\n        /* \"#utility.yul\":7021:7074   */\n    tag_595:\n        /* \"#utility.yul\":7096:7118   */\n      tag_596\n      tag_523\n      jump\t// in\n    tag_596:\n        /* \"#utility.yul\":7147:7156   */\n      dup3\n        /* \"#utility.yul\":7141:7157   */\n      mload\n        /* \"#utility.yul\":7134:7139   */\n      dup2\n        /* \"#utility.yul\":7127:7158   */\n      mstore\n        /* \"#utility.yul\":7211:7213   */\n      0x20\n        /* \"#utility.yul\":7200:7209   */\n      dup4\n        /* \"#utility.yul\":7196:7214   */\n      add\n        /* \"#utility.yul\":7190:7215   */\n      mload\n        /* \"#utility.yul\":7185:7187   */\n      0x20\n        /* \"#utility.yul\":7178:7183   */\n      dup3\n        /* \"#utility.yul\":7174:7188   */\n      add\n        /* \"#utility.yul\":7167:7216   */\n      mstore\n        /* \"#utility.yul\":7269:7271   */\n      0x40\n        /* \"#utility.yul\":7258:7267   */\n      dup4\n        /* \"#utility.yul\":7254:7272   */\n      add\n        /* \"#utility.yul\":7248:7273   */\n      mload\n        /* \"#utility.yul\":7243:7245   */\n      0x40\n        /* \"#utility.yul\":7236:7241   */\n      dup3\n        /* \"#utility.yul\":7232:7246   */\n      add\n        /* \"#utility.yul\":7225:7274   */\n      mstore\n        /* \"#utility.yul\":7327:7329   */\n      0x60\n        /* \"#utility.yul\":7316:7325   */\n      dup4\n        /* \"#utility.yul\":7312:7330   */\n      add\n        /* \"#utility.yul\":7306:7331   */\n      mload\n        /* \"#utility.yul\":7301:7303   */\n      0x60\n        /* \"#utility.yul\":7294:7299   */\n      dup3\n        /* \"#utility.yul\":7290:7304   */\n      add\n        /* \"#utility.yul\":7283:7332   */\n      mstore\n        /* \"#utility.yul\":7386:7389   */\n      0x80\n        /* \"#utility.yul\":7375:7384   */\n      dup4\n        /* \"#utility.yul\":7371:7390   */\n      add\n        /* \"#utility.yul\":7365:7391   */\n      mload\n        /* \"#utility.yul\":7359:7362   */\n      0x80\n        /* \"#utility.yul\":7352:7357   */\n      dup3\n        /* \"#utility.yul\":7348:7363   */\n      add\n        /* \"#utility.yul\":7341:7392   */\n      mstore\n        /* \"#utility.yul\":7446:7449   */\n      0xa0\n        /* \"#utility.yul\":7435:7444   */\n      dup4\n        /* \"#utility.yul\":7431:7450   */\n      add\n        /* \"#utility.yul\":7425:7451   */\n      mload\n        /* \"#utility.yul\":7419:7422   */\n      0xa0\n        /* \"#utility.yul\":7412:7417   */\n      dup3\n        /* \"#utility.yul\":7408:7423   */\n      add\n        /* \"#utility.yul\":7401:7452   */\n      mstore\n        /* \"#utility.yul\":7506:7509   */\n      0xc0\n        /* \"#utility.yul\":7495:7504   */\n      dup4\n        /* \"#utility.yul\":7491:7510   */\n      add\n        /* \"#utility.yul\":7485:7511   */\n      mload\n        /* \"#utility.yul\":7479:7482   */\n      0xc0\n        /* \"#utility.yul\":7472:7477   */\n      dup3\n        /* \"#utility.yul\":7468:7483   */\n      add\n        /* \"#utility.yul\":7461:7512   */\n      mstore\n        /* \"#utility.yul\":7566:7569   */\n      0xe0\n        /* \"#utility.yul\":7555:7564   */\n      dup4\n        /* \"#utility.yul\":7551:7570   */\n      add\n        /* \"#utility.yul\":7545:7571   */\n      mload\n        /* \"#utility.yul\":7539:7542   */\n      0xe0\n        /* \"#utility.yul\":7532:7537   */\n      dup3\n        /* \"#utility.yul\":7528:7543   */\n      add\n        /* \"#utility.yul\":7521:7572   */\n      mstore\n        /* \"#utility.yul\":7591:7594   */\n      0x0100\n        /* \"#utility.yul\":7647:7649   */\n      dup1\n        /* \"#utility.yul\":7636:7645   */\n      dup5\n        /* \"#utility.yul\":7632:7650   */\n      add\n        /* \"#utility.yul\":7626:7651   */\n      mload\n        /* \"#utility.yul\":7621:7623   */\n      dup2\n        /* \"#utility.yul\":7614:7619   */\n      dup4\n        /* \"#utility.yul\":7610:7624   */\n      add\n        /* \"#utility.yul\":7603:7652   */\n      mstore\n      pop\n        /* \"#utility.yul\":7671:7676   */\n      dup1\n        /* \"#utility.yul\":7661:7676   */\n      swap2\n      pop\n      pop\n        /* \"#utility.yul\":6904:7682   */\n      swap3\n      swap2\n      pop\n      pop\n      jump\t// out\n        /* \"#utility.yul\":7687:7814   */\n    tag_528:\n        /* \"#utility.yul\":7748:7758   */\n      0x4e487b71\n        /* \"#utility.yul\":7743:7746   */\n      0xe0\n        /* \"#utility.yul\":7739:7759   */\n      shl\n        /* \"#utility.yul\":7736:7737   */\n      0x00\n        /* \"#utility.yul\":7729:7760   */\n      mstore\n        /* \"#utility.yul\":7779:7783   */\n      0x11\n        /* \"#utility.yul\":7776:7777   */\n      0x04\n        /* \"#utility.yul\":7769:7784   */\n      mstore\n        /* \"#utility.yul\":7803:7807   */\n      0x24\n        /* \"#utility.yul\":7800:7801   */\n      0x00\n        /* \"#utility.yul\":7793:7808   */\n      revert\n        /* \"#utility.yul\":7819:7987   */\n    tag_174:\n        /* \"#utility.yul\":7892:7901   */\n      dup1\n      dup3\n      mul\n        /* \"#utility.yul\":7923:7932   */\n      dup2\n      iszero\n        /* \"#utility.yul\":7940:7955   */\n      dup3\n      dup3\n      div\n        /* \"#utility.yul\":7934:7956   */\n      dup5\n      eq\n        /* \"#utility.yul\":7920:7957   */\n      or\n        /* \"#utility.yul\":7910:7981   */\n      tag_156\n      jumpi\n        /* \"#utility.yul\":7961:7979   */\n      tag_156\n      tag_528\n      jump\t// in\n        /* \"#utility.yul\":7992:8269   */\n    tag_181:\n        /* \"#utility.yul\":8059:8065   */\n      0x00\n        /* \"#utility.yul\":8112:8114   */\n      0x20\n        /* \"#utility.yul\":8100:8109   */\n      dup3\n        /* \"#utility.yul\":8091:8098   */\n      dup5\n        /* \"#utility.yul\":8087:8110   */\n      sub\n        /* \"#utility.yul\":8083:8115   */\n      slt\n        /* \"#utility.yul\":8080:8132   */\n      iszero\n      tag_602\n      jumpi\n        /* \"#utility.yul\":8128:8129   */\n      0x00\n        /* \"#utility.yul\":8125:8126   */\n      dup1\n        /* \"#utility.yul\":8118:8130   */\n      revert\n        /* \"#utility.yul\":8080:8132   */\n    tag_602:\n        /* \"#utility.yul\":8160:8169   */\n      dup2\n        /* \"#utility.yul\":8154:8170   */\n      mload\n        /* \"#utility.yul\":8213:8218   */\n      dup1\n        /* \"#utility.yul\":8206:8219   */\n      iszero\n        /* \"#utility.yul\":8199:8220   */\n      iszero\n        /* \"#utility.yul\":8192:8197   */\n      dup2\n        /* \"#utility.yul\":8189:8221   */\n      eq\n        /* \"#utility.yul\":8179:8239   */\n      tag_533\n      jumpi\n        /* \"#utility.yul\":8235:8236   */\n      0x00\n        /* \"#utility.yul\":8232:8233   */\n      dup1\n        /* \"#utility.yul\":8225:8237   */\n      revert\n        /* \"#utility.yul\":8274:8600   */\n    tag_194:\n        /* \"#utility.yul\":8476:8478   */\n      0x20\n        /* \"#utility.yul\":8458:8479   */\n      dup1\n      dup3\n      mstore\n        /* \"#utility.yul\":8515:8516   */\n      0x03\n        /* \"#utility.yul\":8495:8513   */\n      swap1\n      dup3\n      add\n        /* \"#utility.yul\":8488:8517   */\n      mstore\n      shl(0xe8, 0x4e544f)\n        /* \"#utility.yul\":8548:8550   */\n      0x40\n        /* \"#utility.yul\":8533:8551   */\n      dup3\n      add\n        /* \"#utility.yul\":8526:8559   */\n      mstore\n        /* \"#utility.yul\":8591:8593   */\n      0x60\n        /* \"#utility.yul\":8576:8594   */\n      add\n      swap1\n        /* \"#utility.yul\":8274:8600   */\n      jump\t// out\n        /* \"#utility.yul\":9267:9395   */\n    tag_215:\n        /* \"#utility.yul\":9334:9343   */\n      dup2\n      dup2\n      sub\n        /* \"#utility.yul\":9355:9366   */\n      dup2\n      dup2\n      gt\n        /* \"#utility.yul\":9352:9389   */\n      iszero\n      tag_156\n      jumpi\n        /* \"#utility.yul\":9369:9387   */\n      tag_156\n      tag_528\n      jump\t// in\n        /* \"#utility.yul\":10291:10508   */\n    tag_240:\n        /* \"#utility.yul\":10331:10332   */\n      0x00\n        /* \"#utility.yul\":10357:10358   */\n      dup3\n        /* \"#utility.yul\":10347:10479   */\n      tag_614\n      jumpi\n        /* \"#utility.yul\":10401:10411   */\n      0x4e487b71\n        /* \"#utility.yul\":10396:10399   */\n      0xe0\n        /* \"#utility.yul\":10392:10412   */\n      shl\n        /* \"#utility.yul\":10389:10390   */\n      0x00\n        /* \"#utility.yul\":10382:10413   */\n      mstore\n        /* \"#utility.yul\":10436:10440   */\n      0x12\n        /* \"#utility.yul\":10433:10434   */\n      0x04\n        /* \"#utility.yul\":10426:10441   */\n      mstore\n        /* \"#utility.yul\":10464:10468   */\n      0x24\n        /* \"#utility.yul\":10461:10462   */\n      0x00\n        /* \"#utility.yul\":10454:10469   */\n      revert\n        /* \"#utility.yul\":10347:10479   */\n    tag_614:\n      pop\n        /* \"#utility.yul\":10493:10502   */\n      div\n      swap1\n        /* \"#utility.yul\":10291:10508   */\n      jump\t// out\n        /* \"#utility.yul\":11426:11551   */\n    tag_277:\n        /* \"#utility.yul\":11491:11500   */\n      dup1\n      dup3\n      add\n        /* \"#utility.yul\":11512:11522   */\n      dup1\n      dup3\n      gt\n        /* \"#utility.yul\":11509:11545   */\n      iszero\n      tag_156\n      jumpi\n        /* \"#utility.yul\":11525:11543   */\n      tag_156\n      tag_528\n      jump\t// in\n        /* \"#utility.yul\":13750:13934   */\n    tag_328:\n        /* \"#utility.yul\":13820:13826   */\n      0x00\n        /* \"#utility.yul\":13873:13875   */\n      0x20\n        /* \"#utility.yul\":13861:13870   */\n      dup3\n        /* \"#utility.yul\":13852:13859   */\n      dup5\n        /* \"#utility.yul\":13848:13871   */\n      sub\n        /* \"#utility.yul\":13844:13876   */\n      slt\n        /* \"#utility.yul\":13841:13893   */\n      iszero\n      tag_627\n      jumpi\n        /* \"#utility.yul\":13889:13890   */\n      0x00\n        /* \"#utility.yul\":13886:13887   */\n      dup1\n        /* \"#utility.yul\":13879:13891   */\n      revert\n        /* \"#utility.yul\":13841:13893   */\n    tag_627:\n      pop\n        /* \"#utility.yul\":13912:13928   */\n      mload\n      swap2\n        /* \"#utility.yul\":13750:13934   */\n      swap1\n      pop\n      jump\t// out\n        /* \"#utility.yul\":16948:17676   */\n    tag_529:\n        /* \"#utility.yul\":17003:17006   */\n      0x00\n        /* \"#utility.yul\":17047:17052   */\n      dup2\n        /* \"#utility.yul\":17041:17053   */\n      mload\n        /* \"#utility.yul\":17074:17078   */\n      0x60\n        /* \"#utility.yul\":17069:17072   */\n      dup5\n        /* \"#utility.yul\":17062:17079   */\n      mstore\n        /* \"#utility.yul\":17108:17120   */\n      dup1\n        /* \"#utility.yul\":17102:17121   */\n      mload\n        /* \"#utility.yul\":17153:17159   */\n      dup1\n        /* \"#utility.yul\":17146:17150   */\n      0x60\n        /* \"#utility.yul\":17141:17144   */\n      dup7\n        /* \"#utility.yul\":17137:17151   */\n      add\n        /* \"#utility.yul\":17130:17160   */\n      mstore\n        /* \"#utility.yul\":17178:17179   */\n      0x00\n        /* \"#utility.yul\":17188:17333   */\n    tag_638:\n        /* \"#utility.yul\":17202:17208   */\n      dup2\n        /* \"#utility.yul\":17199:17200   */\n      dup2\n        /* \"#utility.yul\":17196:17209   */\n      lt\n        /* \"#utility.yul\":17188:17333   */\n      iszero\n      tag_640\n      jumpi\n        /* \"#utility.yul\":17316:17320   */\n      0x20\n        /* \"#utility.yul\":17294:17314   */\n      dup2\n      dup5\n      add\n        /* \"#utility.yul\":17290:17321   */\n      dup2\n      add\n        /* \"#utility.yul\":17284:17322   */\n      mload\n        /* \"#utility.yul\":17278:17281   */\n      0x80\n        /* \"#utility.yul\":17265:17276   */\n      dup9\n      dup5\n      add\n        /* \"#utility.yul\":17261:17282   */\n      add\n        /* \"#utility.yul\":17254:17323   */\n      mstore\n        /* \"#utility.yul\":17217:17229   */\n      add\n        /* \"#utility.yul\":17188:17333   */\n      jump(tag_638)\n    tag_640:\n        /* \"#utility.yul\":17192:17195   */\n      pop\n        /* \"#utility.yul\":17377:17378   */\n      0x00\n        /* \"#utility.yul\":17371:17374   */\n      0x80\n        /* \"#utility.yul\":17362:17368   */\n      dup3\n        /* \"#utility.yul\":17357:17360   */\n      dup8\n        /* \"#utility.yul\":17353:17369   */\n      add\n        /* \"#utility.yul\":17349:17375   */\n      add\n        /* \"#utility.yul\":17342:17379   */\n      mstore\n        /* \"#utility.yul\":17427:17431   */\n      0x20\n        /* \"#utility.yul\":17420:17425   */\n      dup5\n        /* \"#utility.yul\":17416:17432   */\n      add\n        /* \"#utility.yul\":17410:17433   */\n      mload\n        /* \"#utility.yul\":17388:17433   */\n      swap2\n      pop\n        /* \"#utility.yul\":17442:17492   */\n      tag_641\n        /* \"#utility.yul\":17486:17490   */\n      0x20\n        /* \"#utility.yul\":17481:17484   */\n      dup7\n        /* \"#utility.yul\":17477:17491   */\n      add\n        /* \"#utility.yul\":17461:17475   */\n      dup4\n      sub(shl(0xa0, 0x01), 0x01)\n        /* \"#utility.yul\":1820:1851   */\n      and\n        /* \"#utility.yul\":1808:1852   */\n      swap1\n      mstore\n        /* \"#utility.yul\":1754:1858   */\n      jump\n        /* \"#utility.yul\":17442:17492   */\n    tag_641:\n        /* \"#utility.yul\":17540:17544   */\n      0x40\n        /* \"#utility.yul\":17533:17538   */\n      dup5\n        /* \"#utility.yul\":17529:17545   */\n      add\n        /* \"#utility.yul\":17523:17546   */\n      mload\n        /* \"#utility.yul\":17501:17546   */\n      swap2\n      pop\n        /* \"#utility.yul\":17555:17605   */\n      tag_642\n        /* \"#utility.yul\":17599:17603   */\n      0x40\n        /* \"#utility.yul\":17594:17597   */\n      dup7\n        /* \"#utility.yul\":17590:17604   */\n      add\n        /* \"#utility.yul\":17574:17588   */\n      dup4\n      sub(shl(0xa0, 0x01), 0x01)\n        /* \"#utility.yul\":1820:1851   */\n      and\n        /* \"#utility.yul\":1808:1852   */\n      swap1\n      mstore\n        /* \"#utility.yul\":1754:1858   */\n      jump\n        /* \"#utility.yul\":17555:17605   */\n    tag_642:\n        /* \"#utility.yul\":17659:17661   */\n      0x1f\n        /* \"#utility.yul\":17638:17653   */\n      add\n      not(0x1f)\n        /* \"#utility.yul\":17634:17663   */\n      and\n        /* \"#utility.yul\":17625:17664   */\n      swap4\n      swap1\n      swap4\n      add\n        /* \"#utility.yul\":17666:17669   */\n      0x80\n        /* \"#utility.yul\":17621:17670   */\n      add\n      swap4\n        /* \"#utility.yul\":16948:17676   */\n      swap3\n      pop\n      pop\n      pop\n      jump\t// out\n        /* \"#utility.yul\":17681:18800   */\n    tag_501:\n        /* \"#utility.yul\":17969:17973   */\n      0x00\n        /* \"#utility.yul\":17998:18001   */\n      0x0180\n        /* \"#utility.yul\":18057:18058   */\n      0x01\n        /* \"#utility.yul\":18053:18054   */\n      dup1\n        /* \"#utility.yul\":18048:18051   */\n      0xa0\n        /* \"#utility.yul\":18044:18055   */\n      shl\n        /* \"#utility.yul\":18040:18059   */\n      sub\n        /* \"#utility.yul\":18032:18038   */\n      dup8\n        /* \"#utility.yul\":18028:18060   */\n      and\n        /* \"#utility.yul\":18017:18026   */\n      dup4\n        /* \"#utility.yul\":18010:18061   */\n      mstore\n        /* \"#utility.yul\":18097:18103   */\n      dup6\n        /* \"#utility.yul\":18092:18094   */\n      0x20\n        /* \"#utility.yul\":18081:18090   */\n      dup5\n        /* \"#utility.yul\":18077:18095   */\n      add\n        /* \"#utility.yul\":18070:18104   */\n      mstore\n        /* \"#utility.yul\":18146:18152   */\n      dup5\n        /* \"#utility.yul\":18140:18153   */\n      mload\n        /* \"#utility.yul\":18135:18137   */\n      0x40\n        /* \"#utility.yul\":18124:18133   */\n      dup5\n        /* \"#utility.yul\":18120:18138   */\n      add\n        /* \"#utility.yul\":18113:18154   */\n      mstore\n        /* \"#utility.yul\":18208:18210   */\n      0x20\n        /* \"#utility.yul\":18200:18206   */\n      dup6\n        /* \"#utility.yul\":18196:18211   */\n      add\n        /* \"#utility.yul\":18190:18212   */\n      mload\n        /* \"#utility.yul\":18185:18187   */\n      0x60\n        /* \"#utility.yul\":18174:18183   */\n      dup5\n        /* \"#utility.yul\":18170:18188   */\n      add\n        /* \"#utility.yul\":18163:18213   */\n      mstore\n        /* \"#utility.yul\":18268:18270   */\n      0x40\n        /* \"#utility.yul\":18260:18266   */\n      dup6\n        /* \"#utility.yul\":18256:18271   */\n      add\n        /* \"#utility.yul\":18250:18272   */\n      mload\n        /* \"#utility.yul\":18244:18247   */\n      0x80\n        /* \"#utility.yul\":18233:18242   */\n      dup5\n        /* \"#utility.yul\":18229:18248   */\n      add\n        /* \"#utility.yul\":18222:18273   */\n      mstore\n        /* \"#utility.yul\":18328:18330   */\n      0x60\n        /* \"#utility.yul\":18320:18326   */\n      dup6\n        /* \"#utility.yul\":18316:18331   */\n      add\n        /* \"#utility.yul\":18310:18332   */\n      mload\n        /* \"#utility.yul\":18304:18307   */\n      0xa0\n        /* \"#utility.yul\":18293:18302   */\n      dup5\n        /* \"#utility.yul\":18289:18308   */\n      add\n        /* \"#utility.yul\":18282:18333   */\n      mstore\n        /* \"#utility.yul\":18388:18391   */\n      0x80\n        /* \"#utility.yul\":18380:18386   */\n      dup6\n        /* \"#utility.yul\":18376:18392   */\n      add\n        /* \"#utility.yul\":18370:18393   */\n      mload\n        /* \"#utility.yul\":18364:18367   */\n      0xc0\n        /* \"#utility.yul\":18353:18362   */\n      dup5\n        /* \"#utility.yul\":18349:18368   */\n      add\n        /* \"#utility.yul\":18342:18394   */\n      mstore\n        /* \"#utility.yul\":18449:18452   */\n      0xa0\n        /* \"#utility.yul\":18441:18447   */\n      dup6\n        /* \"#utility.yul\":18437:18453   */\n      add\n        /* \"#utility.yul\":18431:18454   */\n      mload\n        /* \"#utility.yul\":18425:18428   */\n      0xe0\n        /* \"#utility.yul\":18414:18423   */\n      dup5\n        /* \"#utility.yul\":18410:18429   */\n      add\n        /* \"#utility.yul\":18403:18455   */\n      mstore\n        /* \"#utility.yul\":18492:18495   */\n      0xc0\n        /* \"#utility.yul\":18484:18490   */\n      dup6\n        /* \"#utility.yul\":18480:18496   */\n      add\n        /* \"#utility.yul\":18474:18497   */\n      mload\n        /* \"#utility.yul\":18516:18519   */\n      0x0100\n        /* \"#utility.yul\":18555:18557   */\n      dup2\n        /* \"#utility.yul\":18550:18552   */\n      dup2\n        /* \"#utility.yul\":18539:18548   */\n      dup7\n        /* \"#utility.yul\":18535:18553   */\n      add\n        /* \"#utility.yul\":18528:18558   */\n      mstore\n        /* \"#utility.yul\":18613:18616   */\n      0xe0\n        /* \"#utility.yul\":18605:18611   */\n      dup8\n        /* \"#utility.yul\":18601:18617   */\n      add\n        /* \"#utility.yul\":18595:18618   */\n      mload\n        /* \"#utility.yul\":18589:18592   */\n      0x0120\n        /* \"#utility.yul\":18578:18587   */\n      dup7\n        /* \"#utility.yul\":18574:18593   */\n      add\n        /* \"#utility.yul\":18567:18619   */\n      mstore\n        /* \"#utility.yul\":18674:18676   */\n      dup1\n        /* \"#utility.yul\":18666:18672   */\n      dup8\n        /* \"#utility.yul\":18662:18677   */\n      add\n        /* \"#utility.yul\":18656:18678   */\n      mload\n        /* \"#utility.yul\":18650:18653   */\n      0x0140\n        /* \"#utility.yul\":18639:18648   */\n      dup7\n        /* \"#utility.yul\":18635:18654   */\n      add\n        /* \"#utility.yul\":18628:18679   */\n      mstore\n      pop\n      pop\n        /* \"#utility.yul\":18716:18718   */\n      dup1\n        /* \"#utility.yul\":18710:18713   */\n      0x0160\n        /* \"#utility.yul\":18699:18708   */\n      dup5\n        /* \"#utility.yul\":18695:18714   */\n      add\n        /* \"#utility.yul\":18688:18719   */\n      mstore\n        /* \"#utility.yul\":18736:18794   */\n      tag_563\n        /* \"#utility.yul\":18790:18792   */\n      dup2\n        /* \"#utility.yul\":18779:18788   */\n      dup5\n        /* \"#utility.yul\":18775:18793   */\n      add\n        /* \"#utility.yul\":18767:18773   */\n      dup6\n        /* \"#utility.yul\":18736:18794   */\n      tag_529\n      jump\t// in\n\n    auxdata: 0xa2646970667358221220275bd9ec47477271e45496d932f6e027c3b4dec63f8ff091409388252dc1285464736f6c63430008110033\n}\n",
				"bytecode": {
					"linkReferences": {},
					"object": "6101006040523480156200001257600080fd5b506040516200324938038062003249833981016040819052620000359162000075565b6001600160a01b0390811660805292831660a052821660c0521660e052620000d2565b80516001600160a01b03811681146200007057600080fd5b919050565b600080600080608085870312156200008c57600080fd5b620000978562000058565b9350620000a76020860162000058565b9250620000b76040860162000058565b9150620000c76060860162000058565b905092959194509250565b60805160a05160c05160e051612f92620002b76000396000818161051601528181610625015281816106bd015281816107700152818161086201528181610db101528181610e6001528181610f5a015281816113e301528181611511015281816115cf015281816117340152818161180201528181611a6501526126ce015260008181610a0c01528181610c5401528181610cf40152818161106c0152818161110c015281816111d6015281816112a7015281816113500152818161190801528181611c3801528181611cd801528181611d7a01528181611ff801528181612247015281816124d6015281816127c1015261286e015260008181610442015281816109e401528181610a8301528181611044015281816110e4015281816111ae015281816112780152818161132101528181611469015281816118e00152818161197e01528181611d5201528181611df201528181611fd00152818161206e0152818161221f015281816122c301528181612314015281816124ae015261261e0152600081816103740152818161080601528181610b0b01528181610c2c01528181610cc5015281816111860152818161125001528181611c1001528181611ca9015281816121320152818161239701528181612512015261283f0152612f926000f3fe608060405234801561001057600080fd5b50600436106101cf5760003560e01c80637a41984b11610104578063c0a6026c116100a2578063e755ddd711610071578063e755ddd714610481578063f0d8100a146101fc578063f23a6e6114610494578063fcbc669a146104b357600080fd5b8063c0a6026c1461042d578063c55dae6314610440578063e2bbb15814610466578063e5328e061461047957600080fd5b8063932a8de0116100de578063932a8de0146103ac578063a8743022146103bf578063b1a1a165146103d2578063bc197c81146103f557600080fd5b80637a41984b1461033c5780637cbc23731461035f5780638da5cb5b1461037257600080fd5b806339e3af9b116101715780636567dc4d1161014b5780636567dc4d146102f05780636ff80d931461030357806370876c981461031657806377e2a08b1461032957600080fd5b806339e3af9b1461029b578063441a3e70146102ae578063549493bb146102c357600080fd5b8063135c404e116101ad578063135c404e1461023d57806314f29493146102525780632f3ad61f146102655780633097afb81461028857600080fd5b806301ffc9a7146101d457806302159497146101fc578063091490201461022a575b600080fd5b6101e76101e236600461293a565b6104c6565b60405190151581526020015b60405180910390f35b61021c61020a36600461296b565b60009081526004602052604090205490565b6040519081526020016101f3565b6101e761023836600461296b565b6104fd565b6102456105a8565b6040516101f39190612984565b61021c61026036600461296b565b610600565b6101e761027336600461296b565b60009081526008602052604090205460ff1690565b6101e761029636600461296b565b6106a4565b6101e76102a936600461296b565b610757565b6102c16102bc3660046129c8565b6107fb565b005b6101e76102d136600461296b565b6000908152600260209081526040808320546003909252909120541490565b6102c16102fe36600461296b565b610b00565b6101e761031136600461296b565b610d98565b6102c16103243660046129c8565b610e4a565b61021c61033736600461296b565b6114e6565b6101e761034a36600461296b565b60009081526009602052604090205460ff1690565b6102c161036d3660046129c8565b6115b2565b7f00000000000000000000000000000000000000000000000000000000000000005b6040516001600160a01b0390911681526020016101f3565b61021c6103ba36600461296b565b611a40565b6102c16103cd36600461296b565b611ae7565b6101e76103e036600461296b565b60009081526007602052604090205460ff1690565b610414610403366004612b6f565b63bc197c8160e01b95945050505050565b6040516001600160e01b031990911681526020016101f3565b6102c161043b36600461296b565b611eb1565b7f0000000000000000000000000000000000000000000000000000000000000000610394565b6102c16104743660046129c8565b612127565b61021c6122fc565b6102c161048f36600461296b565b61238c565b6104146104a2366004612c19565b63f23a6e6160e01b95945050505050565b61021c6104c1366004612c7e565b612505565b60006001600160e01b03198216630271189760e51b14806104f757506301ffc9a760e01b6001600160e01b03198316145b92915050565b604051634dd9c9c760e01b8152600481018290526000907f00000000000000000000000000000000000000000000000000000000000000006001600160a01b031690634dd9c9c79060240161012060405180830381865afa158015610566573d6000803e3d6000fd5b505050506040513d601f19601f8201168201806040525081019061058a9190612d07565b60e00151600092835260026020526040909220549190911015919050565b606060018054806020026020016040519081016040528092919081815260200182805480156105f657602002820191906000526020600020905b8154815260200190600101908083116105e2575b5050505050905090565b600081815260026020526040808220549051634dd9c9c760e01b8152600481018490527f00000000000000000000000000000000000000000000000000000000000000006001600160a01b031690634dd9c9c79060240161012060405180830381865afa158015610675573d6000803e3d6000fd5b505050506040513d601f19601f820116820180604052508101906106999190612d07565b516104f79190612d98565b604051638f0dbf7760e01b8152600481018290526000907f00000000000000000000000000000000000000000000000000000000000000006001600160a01b031690638f0dbf7790602401602060405180830381865afa15801561070c573d6000803e3d6000fd5b505050506040513d601f19601f820116820180604052508101906107309190612daf565b80156104f75750610740826114e6565b600083815260046020526040902054101592915050565b6040516382afd23b60e01b8152600481018290526000907f00000000000000000000000000000000000000000000000000000000000000006001600160a01b0316906382afd23b90602401602060405180830381865afa1580156107bf573d6000803e3d6000fd5b505050506040513d601f19601f820116820180604052508101906107e39190612daf565b1580156104f757506107f4826104fd565b1592915050565b336001600160a01b037f0000000000000000000000000000000000000000000000000000000000000000161461084c5760405162461bcd60e51b815260040161084390612dd1565b60405180910390fd5b6040516382afd23b60e01b8152600481018390527f00000000000000000000000000000000000000000000000000000000000000006001600160a01b0316906382afd23b90602401602060405180830381865afa1580156108b1573d6000803e3d6000fd5b505050506040513d601f19601f820116820180604052508101906108d59190612daf565b1580156108e857506108e682610757565b155b8015610903575060008281526009602052604090205460ff16155b801561092d575060008281526008602052604090205460ff168061092b575061092b82610d98565b155b61095f5760405162461bcd60e51b8152602060048201526003602482015262574e4160e81b6044820152606401610843565b6000828152600460205260409020548111156109a35760405162461bcd60e51b815260206004820152600360248201526257414560e81b6044820152606401610843565b600082815260046020526040812080548392906109c1908490612dee565b9091555050604051632f2b9a0960e21b8152600481018290526001600160a01b037f0000000000000000000000000000000000000000000000000000000000000000811660248301527f0000000000000000000000000000000000000000000000000000000000000000169063bcae6824906044015b600060405180830381600087803b158015610a5157600080fd5b505af1158015610a65573d6000803e3d6000fd5b505060405163a9059cbb60e01b8152336004820152602481018490527f00000000000000000000000000000000000000000000000000000000000000006001600160a01b0316925063a9059cbb91506044015b6020604051808303816000875af1158015610ad7573d6000803e3d6000fd5b505050506040513d601f19601f82011682018060405250810190610afb9190612daf565b505050565b336001600160a01b037f00000000000000000000000000000000000000000000000000000000000000001614610b485760405162461bcd60e51b815260040161084390612dd1565b60008181526009602052604090205460ff16158015610b76575060008181526008602052604090205460ff16155b8015610b975750610b86816114e6565b600082815260046020526040902054105b610bcb5760405162461bcd60e51b8152602060048201526005602482015264504d444e4160d81b6044820152606401610843565b600081815260046020908152604080832054600290925290912054610bf09082612e01565b60008381526005602090815260408083209390935560089052819020805460ff1916600117905551636d71c16b60e11b81526001600160a01b037f0000000000000000000000000000000000000000000000000000000000000000811660048301527f0000000000000000000000000000000000000000000000000000000000000000169063dae382d690602401600060405180830381600087803b158015610c9857600080fd5b505af1158015610cac573d6000803e3d6000fd5b5050604051631a0a14f960e31b81526001600160a01b037f000000000000000000000000000000000000000000000000000000000000000081166004830152600160248301527f000000000000000000000000000000000000000000000000000000000000000016925063d050a7c89150604401600060405180830381600087803b158015610d3a57600080fd5b505af1158015610d4e573d6000803e3d6000fd5b50505050817fc4f17a65d54873d57229ea5f59c4ddec592d095bc17581372676402c8228b9cd610d7d846114e6565b60408051918252602082018590520160405180910390a25050565b604051638f0dbf7760e01b8152600481018290526000907f00000000000000000000000000000000000000000000000000000000000000006001600160a01b031690638f0dbf7790602401602060405180830381865afa158015610e00573d6000803e3d6000fd5b505050506040513d601f19601f82011682018060405250810190610e249190612daf565b80156104f75750610e34826114e6565b6000838152600460205260409020541092915050565b6040516382afd23b60e01b8152600481018390527f00000000000000000000000000000000000000000000000000000000000000006001600160a01b0316906382afd23b90602401602060405180830381865afa158015610eaf573d6000803e3d6000fd5b505050506040513d601f19601f82011682018060405250810190610ed39190612daf565b610f045760405162461bcd60e51b815260206004820152600260248201526124a160f11b6044820152606401610843565b80610f0e83611a40565b1015610f415760405162461bcd60e51b8152602060048201526002602482015261495160f01b6044820152606401610843565b604051634dd9c9c760e01b8152600481018390526000907f00000000000000000000000000000000000000000000000000000000000000006001600160a01b031690634dd9c9c79060240161012060405180830381865afa158015610faa573d6000803e3d6000fd5b505050506040513d601f19601f82011682018060405250810190610fce9190612d07565b51610fd99083612d98565b905081600260008581526020019081526020016000206000828254610ffe9190612e23565b909155505060008381526004602052604081208054839290611021908490612e23565b90915550506040516383883fe360e01b8152600481018290526001600160a01b037f0000000000000000000000000000000000000000000000000000000000000000811660248301527f000000000000000000000000000000000000000000000000000000000000000016906383883fe390604401600060405180830381600087803b1580156110b057600080fd5b505af11580156110c4573d6000803e3d6000fd5b505060405163576ff16360e01b8152600481018490526001600160a01b037f0000000000000000000000000000000000000000000000000000000000000000811660248301527f000000000000000000000000000000000000000000000000000000000000000016925063576ff1639150604401600060405180830381600087803b15801561115257600080fd5b505af1158015611166573d6000803e3d6000fd5b505060405163b8c2e4f360e01b8152600481018490526001600160a01b037f0000000000000000000000000000000000000000000000000000000000000000811660248301527f0000000000000000000000000000000000000000000000000000000000000000811660448301527f000000000000000000000000000000000000000000000000000000000000000016925063b8c2e4f39150606401600060405180830381600087803b15801561121c57600080fd5b505af1158015611230573d6000803e3d6000fd5b5050604051637db79a3d60e01b8152600481018490526001600160a01b037f0000000000000000000000000000000000000000000000000000000000000000811660248301527f000000000000000000000000000000000000000000000000000000000000000081166044830152600160648301527f0000000000000000000000000000000000000000000000000000000000000000169250637db79a3d9150608401600060405180830381600087803b1580156112ed57600080fd5b505af1158015611301573d6000803e3d6000fd5b505060405163585a6fd560e11b8152600481018490526001600160a01b037f000000000000000000000000000000000000000000000000000000000000000081166024830152600160448301527f000000000000000000000000000000000000000000000000000000000000000016925063b0b4dfaa9150606401600060405180830381600087803b15801561139657600080fd5b505af11580156113aa573d6000803e3d6000fd5b5050604051637921219560e11b8152306004820152336024820152604481018690526064810185905260a06084820152600060a48201527f00000000000000000000000000000000000000000000000000000000000000006001600160a01b0316925063f242432a915060c401600060405180830381600087803b15801561143157600080fd5b505af1158015611445573d6000803e3d6000fd5b50506040516323b872dd60e01b8152336004820152306024820152604481018490527f00000000000000000000000000000000000000000000000000000000000000006001600160a01b031692506323b872dd91506064016020604051808303816000875af11580156114bc573d6000803e3d6000fd5b505050506040513d601f19601f820116820180604052508101906114e09190612daf565b50505050565b604051634dd9c9c760e01b815260048101829052600090670de0b6b3a7640000906001600160a01b037f00000000000000000000000000000000000000000000000000000000000000001690634dd9c9c79060240161012060405180830381865afa158015611559573d6000803e3d6000fd5b505050506040513d601f19601f8201168201806040525081019061157d9190612d07565b610100015161158b84610600565b6115959190612d98565b61159f9190612e01565b6115a883610600565b6104f79190612e23565b604051627eeac760e11b81523360048201526024810183905281907f00000000000000000000000000000000000000000000000000000000000000006001600160a01b03169062fdd58e90604401602060405180830381865afa15801561161d573d6000803e3d6000fd5b505050506040513d601f19601f820116820180604052508101906116419190612e36565b10156116745760405162461bcd60e51b8152602060048201526002602482015261495160f01b6044820152606401610843565b60008281526009602052604090205460ff1680611695575061169582610757565b806116ae575060008281526008602052604090205460ff165b6116e05760405162461bcd60e51b8152602060048201526003602482015262524e4160e81b6044820152606401610843565b600082815260096020526040812054819060ff1615611710575050600082815260066020526040812054906117df565b61171984610757565b156117b457604051634dd9c9c760e01b8152600481018590527f00000000000000000000000000000000000000000000000000000000000000006001600160a01b031690634dd9c9c79060240161012060405180830381865afa158015611784573d6000803e3d6000fd5b505050506040513d601f19601f820116820180604052508101906117a89190612d07565b519150600190506117df565b60008481526008602052604090205460ff16156101cf57505060008281526005602052604090205460025b604051637a94c56560e11b815233600482015260248101859052604481018490527f00000000000000000000000000000000000000000000000000000000000000006001600160a01b03169063f5298aca90606401600060405180830381600087803b15801561184e57600080fd5b505af1158015611862573d6000803e3d6000fd5b50505060008581526003602052604081208054869350909190611886908490612e23565b90915550600090506118988385612d98565b9050806004600087815260200190815260200160002060008282546118bd9190612dee565b9091555050604051632f2b9a0960e21b8152600481018290526001600160a01b037f0000000000000000000000000000000000000000000000000000000000000000811660248301527f0000000000000000000000000000000000000000000000000000000000000000169063bcae682490604401600060405180830381600087803b15801561194c57600080fd5b505af1158015611960573d6000803e3d6000fd5b505060405163a9059cbb60e01b8152336004820152602481018490527f00000000000000000000000000000000000000000000000000000000000000006001600160a01b0316925063a9059cbb91506044016020604051808303816000875af11580156119d1573d6000803e3d6000fd5b505050506040513d601f19601f820116820180604052508101906119f59190612daf565b50604080513381526020810186905290810183905285907fa5851b0172fdafd3dafe0e52ce051747548a4c642a2f22793c01faf228e130629060600160405180910390a25050505050565b600081815260026020526040808220549051634dd9c9c760e01b8152600481018490527f00000000000000000000000000000000000000000000000000000000000000006001600160a01b031690634dd9c9c79060240161012060405180830381865afa158015611ab5573d6000803e3d6000fd5b505050506040513d601f19601f82011682018060405250810190611ad99190612d07565b60c001516104f79190612dee565b60008181526009602052604090205460ff16158015611b15575060008181526008602052604090205460ff16155b8015611b255750611b2581610d98565b611b595760405162461bcd60e51b81526020600482015260056024820152644d41444e4160d81b6044820152606401610843565b600081815260046020526040812054611b75906103e890612e01565b60008381526004602052604081205491925090611b93908390612dee565b600084815260026020526040902054909150611baf9082612e01565b600084815260056020908152604080832093909355600490529081208054849290611bdb908490612dee565b909155505060008381526008602052604090819020805460ff1916600117905551636d71c16b60e11b81526001600160a01b037f0000000000000000000000000000000000000000000000000000000000000000811660048301527f0000000000000000000000000000000000000000000000000000000000000000169063dae382d690602401600060405180830381600087803b158015611c7c57600080fd5b505af1158015611c90573d6000803e3d6000fd5b5050604051631a0a14f960e31b81526001600160a01b037f000000000000000000000000000000000000000000000000000000000000000081166004830152600160248301527f000000000000000000000000000000000000000000000000000000000000000016925063d050a7c89150604401600060405180830381600087803b158015611d1e57600080fd5b505af1158015611d32573d6000803e3d6000fd5b5050604051632f2b9a0960e21b8152600481018590526001600160a01b037f0000000000000000000000000000000000000000000000000000000000000000811660248301527f000000000000000000000000000000000000000000000000000000000000000016925063bcae68249150604401600060405180830381600087803b158015611dc057600080fd5b505af1158015611dd4573d6000803e3d6000fd5b505060405163a9059cbb60e01b8152336004820152602481018590527f00000000000000000000000000000000000000000000000000000000000000006001600160a01b0316925063a9059cbb91506044016020604051808303816000875af1158015611e45573d6000803e3d6000fd5b505050506040513d601f19601f82011682018060405250810190611e699190612daf565b50827fc4f17a65d54873d57229ea5f59c4ddec592d095bc17581372676402c8228b9cd611e95856114e6565b60408051918252602082018590520160405180910390a2505050565b60008181526008602052604090205460ff16158015611edf575060008181526009602052604090205460ff16155b8015611eef5750611eef816106a4565b611f235760405162461bcd60e51b81526020600482015260056024820152644d41434e4160d81b6044820152606401610843565b6000611f2e826114e6565b90506000611f3e6103e883612e01565b90506000611f4c8284612dee565b600085815260026020526040902054909150611f689082612e01565b600085815260066020908152604080832093909355600490529081208054849290611f94908490612dee565b909155505060008481526009602052604090819020805460ff1916600117905551632f2b9a0960e21b8152600481018390526001600160a01b037f0000000000000000000000000000000000000000000000000000000000000000811660248301527f0000000000000000000000000000000000000000000000000000000000000000169063bcae682490604401600060405180830381600087803b15801561203c57600080fd5b505af1158015612050573d6000803e3d6000fd5b505060405163a9059cbb60e01b8152336004820152602481018590527f00000000000000000000000000000000000000000000000000000000000000006001600160a01b0316925063a9059cbb91506044016020604051808303816000875af11580156120c1573d6000803e3d6000fd5b505050506040513d601f19601f820116820180604052508101906120e59190612daf565b50604080518481526020810183905285917fac2eeaf45d1b75aed6b3285cda3efb3c382cce02ba313558bbb90be57f8843e4910160405180910390a250505050565b336001600160a01b037f0000000000000000000000000000000000000000000000000000000000000000161461216f5760405162461bcd60e51b815260040161084390612dd1565b60008281526008602052604090205460ff1680612190575061219082610d98565b1580156121ac575060008281526009602052604090205460ff16155b6121de5760405162461bcd60e51b8152602060048201526003602482015262444e4160e81b6044820152606401610843565b600082815260046020526040812080548392906121fc908490612e23565b90915550506040516383883fe360e01b8152600481018290526001600160a01b037f0000000000000000000000000000000000000000000000000000000000000000811660248301527f000000000000000000000000000000000000000000000000000000000000000016906383883fe390604401600060405180830381600087803b15801561228b57600080fd5b505af115801561229f573d6000803e3d6000fd5b50506040516323b872dd60e01b8152336004820152306024820152604481018490527f00000000000000000000000000000000000000000000000000000000000000006001600160a01b031692506323b872dd9150606401610ab8565b6040516370a0823160e01b81523060048201526000907f00000000000000000000000000000000000000000000000000000000000000006001600160a01b0316906370a0823190602401602060405180830381865afa158015612363573d6000803e3d6000fd5b505050506040513d601f19601f820116820180604052508101906123879190612e36565b905090565b336001600160a01b037f000000000000000000000000000000000000000000000000000000000000000016146123d45760405162461bcd60e51b815260040161084390612dd1565b60008181526009602052604090205460ff16801561240a5750600081815260026020908152604080832054600390925290912054145b61243c5760405162461bcd60e51b8152602060048201526003602482015262574e4160e81b6044820152606401610843565b60008181526004602052604090205461247d5760405162461bcd60e51b815260206004820152600360248201526257464560e81b6044820152606401610843565b6000818152600460208190526040808320805493905551632f2b9a0960e21b81529081018290526001600160a01b037f0000000000000000000000000000000000000000000000000000000000000000811660248301527f0000000000000000000000000000000000000000000000000000000000000000169063bcae682490604401610a37565b6000336001600160a01b037f0000000000000000000000000000000000000000000000000000000000000000161461254f5760405162461bcd60e51b815260040161084390612dd1565b8787106125885760405162461bcd60e51b81526020600482015260076024820152664d50514754425160c81b6044820152606401610843565b60b48410156125c25760405162461bcd60e51b8152600401610843906020808252600490820152634442364d60e01b604082015260600190565b60078311156125fb5760405162461bcd60e51b81526020600482015260056024820152641051104dd160da1b6044820152606401610843565b612609600080546001019055565b600060405180606001604052808781526020017f00000000000000000000000000000000000000000000000000000000000000006001600160a01b03168152602001336001600160a01b03168152509050600060405180610120016040528089815260200142815260200187620151806126839190612d98565b61268d9042612e23565b815260200161269f8762015180612d98565b6126a99042612e23565b81526020018681526020018781526020018b81526020018a81526020018581525090507f00000000000000000000000000000000000000000000000000000000000000006001600160a01b0316634196afd4308c84866040518563ffffffff1660e01b815260040161271e9493929190612ed6565b6020604051808303816000875af115801561273d573d6000803e3d6000fd5b505050506040513d601f19601f820116820180604052508101906127619190612e36565b6001805480820182557fb10e2d527612073b26eecdfd717e6a320cf44b4afac2b0732d9fcbe2b7fa0cf60182905560008281526007602052604090819020805460ff1916831790555163b54cb16560e01b81529194506001600160a01b037f0000000000000000000000000000000000000000000000000000000000000000169163b54cb165916127f89160040190815260200190565b600060405180830381600087803b15801561281257600080fd5b505af1158015612826573d6000803e3d6000fd5b5050604051632fa9d73d60e21b81526001600160a01b037f000000000000000000000000000000000000000000000000000000000000000081166004830152600160248301527f000000000000000000000000000000000000000000000000000000000000000016925063bea75cf49150604401600060405180830381600087803b1580156128b457600080fd5b505af11580156128c8573d6000803e3d6000fd5b50505050827ff73e436c94925e1e8b2f0b16de0a2c56aea7fb27878f7815811bc05bc6c335e88b8a878a620151806129009190612d98565b61290a9042612e23565b60408051948552602085019390935291830152606082015260800160405180910390a25050979650505050505050565b60006020828403121561294c57600080fd5b81356001600160e01b03198116811461296457600080fd5b9392505050565b60006020828403121561297d57600080fd5b5035919050565b6020808252825182820181905260009190848201906040850190845b818110156129bc578351835292840192918401916001016129a0565b50909695505050505050565b600080604083850312156129db57600080fd5b50508035926020909101359150565b80356001600160a01b0381168114612a0157600080fd5b919050565b634e487b7160e01b600052604160045260246000fd5b604051610120810167ffffffffffffffff81118282101715612a4057612a40612a06565b60405290565b604051601f8201601f1916810167ffffffffffffffff81118282101715612a6f57612a6f612a06565b604052919050565b600082601f830112612a8857600080fd5b8135602067ffffffffffffffff821115612aa457612aa4612a06565b8160051b612ab3828201612a46565b9283528481018201928281019087851115612acd57600080fd5b83870192505b84831015612aec57823582529183019190830190612ad3565b979650505050505050565b600067ffffffffffffffff831115612b1157612b11612a06565b612b24601f8401601f1916602001612a46565b9050828152838383011115612b3857600080fd5b828260208301376000602084830101529392505050565b600082601f830112612b6057600080fd5b61296483833560208501612af7565b600080600080600060a08688031215612b8757600080fd5b612b90866129ea565b9450612b9e602087016129ea565b9350604086013567ffffffffffffffff80821115612bbb57600080fd5b612bc789838a01612a77565b94506060880135915080821115612bdd57600080fd5b612be989838a01612a77565b93506080880135915080821115612bff57600080fd5b50612c0c88828901612b4f565b9150509295509295909350565b600080600080600060a08688031215612c3157600080fd5b612c3a866129ea565b9450612c48602087016129ea565b93506040860135925060608601359150608086013567ffffffffffffffff811115612c7257600080fd5b612c0c88828901612b4f565b600080600080600080600060e0888a031215612c9957600080fd5b873596506020880135955060408801359450606088013567ffffffffffffffff811115612cc557600080fd5b8801601f81018a13612cd657600080fd5b612ce58a823560208401612af7565b979a969950949760808101359660a0820135965060c090910135945092505050565b60006101208284031215612d1a57600080fd5b612d22612a1c565b825181526020830151602082015260408301516040820152606083015160608201526080830151608082015260a083015160a082015260c083015160c082015260e083015160e08201526101008084015181830152508091505092915050565b634e487b7160e01b600052601160045260246000fd5b80820281158282048414176104f7576104f7612d82565b600060208284031215612dc157600080fd5b8151801515811461296457600080fd5b6020808252600390820152624e544f60e81b604082015260600190565b818103818111156104f7576104f7612d82565b600082612e1e57634e487b7160e01b600052601260045260246000fd5b500490565b808201808211156104f7576104f7612d82565b600060208284031215612e4857600080fd5b5051919050565b6000815160608452805180606086015260005b81811015612e7f5760208184018101516080888401015201612e62565b5060006080828701015260208401519150612ea560208601836001600160a01b03169052565b60408401519150612ec160408601836001600160a01b03169052565b601f01601f1916939093016080019392505050565b600061018060018060a01b0387168352856020840152845160408401526020850151606084015260408501516080840152606085015160a0840152608085015160c084015260a085015160e084015260c0850151610100818186015260e087015161012086015280870151610140860152505080610160840152612aec81840185612e4f56fea2646970667358221220275bd9ec47477271e45496d932f6e027c3b4dec63f8ff091409388252dc1285464736f6c63430008110033",
					"opcodes": "PUSH2 0x100 PUSH1 0x40 MSTORE CALLVALUE DUP1 ISZERO PUSH3 0x12 JUMPI PUSH1 0x0 DUP1 REVERT JUMPDEST POP PUSH1 0x40 MLOAD PUSH3 0x3249 CODESIZE SUB DUP1 PUSH3 0x3249 DUP4 CODECOPY DUP2 ADD PUSH1 0x40 DUP2 SWAP1 MSTORE PUSH3 0x35 SWAP2 PUSH3 0x75 JUMP JUMPDEST PUSH1 0x1 PUSH1 0x1 PUSH1 0xA0 SHL SUB SWAP1 DUP2 AND PUSH1 0x80 MSTORE SWAP3 DUP4 AND PUSH1 0xA0 MSTORE DUP3 AND PUSH1 0xC0 MSTORE AND PUSH1 0xE0 MSTORE PUSH3 0xD2 JUMP JUMPDEST DUP1 MLOAD PUSH1 0x1 PUSH1 0x1 PUSH1 0xA0 SHL SUB DUP2 AND DUP2 EQ PUSH3 0x70 JUMPI PUSH1 0x0 DUP1 REVERT JUMPDEST SWAP2 SWAP1 POP JUMP JUMPDEST PUSH1 0x0 DUP1 PUSH1 0x0 DUP1 PUSH1 0x80 DUP6 DUP8 SUB SLT ISZERO PUSH3 0x8C JUMPI PUSH1 0x0 DUP1 REVERT JUMPDEST PUSH3 0x97 DUP6 PUSH3 0x58 JUMP JUMPDEST SWAP4 POP PUSH3 0xA7 PUSH1 0x20 DUP7 ADD PUSH3 0x58 JUMP JUMPDEST SWAP3 POP PUSH3 0xB7 PUSH1 0x40 DUP7 ADD PUSH3 0x58 JUMP JUMPDEST SWAP2 POP PUSH3 0xC7 PUSH1 0x60 DUP7 ADD PUSH3 0x58 JUMP JUMPDEST SWAP1 POP SWAP3 SWAP6 SWAP2 SWAP5 POP SWAP3 POP JUMP JUMPDEST PUSH1 0x80 MLOAD PUSH1 0xA0 MLOAD PUSH1 0xC0 MLOAD PUSH1 0xE0 MLOAD PUSH2 0x2F92 PUSH3 0x2B7 PUSH1 0x0 CODECOPY PUSH1 0x0 DUP2 DUP2 PUSH2 0x516 ADD MSTORE DUP2 DUP2 PUSH2 0x625 ADD MSTORE DUP2 DUP2 PUSH2 0x6BD ADD MSTORE DUP2 DUP2 PUSH2 0x770 ADD MSTORE DUP2 DUP2 PUSH2 0x862 ADD MSTORE DUP2 DUP2 PUSH2 0xDB1 ADD MSTORE DUP2 DUP2 PUSH2 0xE60 ADD MSTORE DUP2 DUP2 PUSH2 0xF5A ADD MSTORE DUP2 DUP2 PUSH2 0x13E3 ADD MSTORE DUP2 DUP2 PUSH2 0x1511 ADD MSTORE DUP2 DUP2 PUSH2 0x15CF ADD MSTORE DUP2 DUP2 PUSH2 0x1734 ADD MSTORE DUP2 DUP2 PUSH2 0x1802 ADD MSTORE DUP2 DUP2 PUSH2 0x1A65 ADD MSTORE PUSH2 0x26CE ADD MSTORE PUSH1 0x0 DUP2 DUP2 PUSH2 0xA0C ADD MSTORE DUP2 DUP2 PUSH2 0xC54 ADD MSTORE DUP2 DUP2 PUSH2 0xCF4 ADD MSTORE DUP2 DUP2 PUSH2 0x106C ADD MSTORE DUP2 DUP2 PUSH2 0x110C ADD MSTORE DUP2 DUP2 PUSH2 0x11D6 ADD MSTORE DUP2 DUP2 PUSH2 0x12A7 ADD MSTORE DUP2 DUP2 PUSH2 0x1350 ADD MSTORE DUP2 DUP2 PUSH2 0x1908 ADD MSTORE DUP2 DUP2 PUSH2 0x1C38 ADD MSTORE DUP2 DUP2 PUSH2 0x1CD8 ADD MSTORE DUP2 DUP2 PUSH2 0x1D7A ADD MSTORE DUP2 DUP2 PUSH2 0x1FF8 ADD MSTORE DUP2 DUP2 PUSH2 0x2247 ADD MSTORE DUP2 DUP2 PUSH2 0x24D6 ADD MSTORE DUP2 DUP2 PUSH2 0x27C1 ADD MSTORE PUSH2 0x286E ADD MSTORE PUSH1 0x0 DUP2 DUP2 PUSH2 0x442 ADD MSTORE DUP2 DUP2 PUSH2 0x9E4 ADD MSTORE DUP2 DUP2 PUSH2 0xA83 ADD MSTORE DUP2 DUP2 PUSH2 0x1044 ADD MSTORE DUP2 DUP2 PUSH2 0x10E4 ADD MSTORE DUP2 DUP2 PUSH2 0x11AE ADD MSTORE DUP2 DUP2 PUSH2 0x1278 ADD MSTORE DUP2 DUP2 PUSH2 0x1321 ADD MSTORE DUP2 DUP2 PUSH2 0x1469 ADD MSTORE DUP2 DUP2 PUSH2 0x18E0 ADD MSTORE DUP2 DUP2 PUSH2 0x197E ADD MSTORE DUP2 DUP2 PUSH2 0x1D52 ADD MSTORE DUP2 DUP2 PUSH2 0x1DF2 ADD MSTORE DUP2 DUP2 PUSH2 0x1FD0 ADD MSTORE DUP2 DUP2 PUSH2 0x206E ADD MSTORE DUP2 DUP2 PUSH2 0x221F ADD MSTORE DUP2 DUP2 PUSH2 0x22C3 ADD MSTORE DUP2 DUP2 PUSH2 0x2314 ADD MSTORE DUP2 DUP2 PUSH2 0x24AE ADD MSTORE PUSH2 0x261E ADD MSTORE PUSH1 0x0 DUP2 DUP2 PUSH2 0x374 ADD MSTORE DUP2 DUP2 PUSH2 0x806 ADD MSTORE DUP2 DUP2 PUSH2 0xB0B ADD MSTORE DUP2 DUP2 PUSH2 0xC2C ADD MSTORE DUP2 DUP2 PUSH2 0xCC5 ADD MSTORE DUP2 DUP2 PUSH2 0x1186 ADD MSTORE DUP2 DUP2 PUSH2 0x1250 ADD MSTORE DUP2 DUP2 PUSH2 0x1C10 ADD MSTORE DUP2 DUP2 PUSH2 0x1CA9 ADD MSTORE DUP2 DUP2 PUSH2 0x2132 ADD MSTORE DUP2 DUP2 PUSH2 0x2397 ADD MSTORE DUP2 DUP2 PUSH2 0x2512 ADD MSTORE PUSH2 0x283F ADD MSTORE PUSH2 0x2F92 PUSH1 0x0 RETURN INVALID PUSH1 0x80 PUSH1 0x40 MSTORE CALLVALUE DUP1 ISZERO PUSH2 0x10 JUMPI PUSH1 0x0 DUP1 REVERT JUMPDEST POP PUSH1 0x4 CALLDATASIZE LT PUSH2 0x1CF JUMPI PUSH1 0x0 CALLDATALOAD PUSH1 0xE0 SHR DUP1 PUSH4 0x7A41984B GT PUSH2 0x104 JUMPI DUP1 PUSH4 0xC0A6026C GT PUSH2 0xA2 JUMPI DUP1 PUSH4 0xE755DDD7 GT PUSH2 0x71 JUMPI DUP1 PUSH4 0xE755DDD7 EQ PUSH2 0x481 JUMPI DUP1 PUSH4 0xF0D8100A EQ PUSH2 0x1FC JUMPI DUP1 PUSH4 0xF23A6E61 EQ PUSH2 0x494 JUMPI DUP1 PUSH4 0xFCBC669A EQ PUSH2 0x4B3 JUMPI PUSH1 0x0 DUP1 REVERT JUMPDEST DUP1 PUSH4 0xC0A6026C EQ PUSH2 0x42D JUMPI DUP1 PUSH4 0xC55DAE63 EQ PUSH2 0x440 JUMPI DUP1 PUSH4 0xE2BBB158 EQ PUSH2 0x466 JUMPI DUP1 PUSH4 0xE5328E06 EQ PUSH2 0x479 JUMPI PUSH1 0x0 DUP1 REVERT JUMPDEST DUP1 PUSH4 0x932A8DE0 GT PUSH2 0xDE JUMPI DUP1 PUSH4 0x932A8DE0 EQ PUSH2 0x3AC JUMPI DUP1 PUSH4 0xA8743022 EQ PUSH2 0x3BF JUMPI DUP1 PUSH4 0xB1A1A165 EQ PUSH2 0x3D2 JUMPI DUP1 PUSH4 0xBC197C81 EQ PUSH2 0x3F5 JUMPI PUSH1 0x0 DUP1 REVERT JUMPDEST DUP1 PUSH4 0x7A41984B EQ PUSH2 0x33C JUMPI DUP1 PUSH4 0x7CBC2373 EQ PUSH2 0x35F JUMPI DUP1 PUSH4 0x8DA5CB5B EQ PUSH2 0x372 JUMPI PUSH1 0x0 DUP1 REVERT JUMPDEST DUP1 PUSH4 0x39E3AF9B GT PUSH2 0x171 JUMPI DUP1 PUSH4 0x6567DC4D GT PUSH2 0x14B JUMPI DUP1 PUSH4 0x6567DC4D EQ PUSH2 0x2F0 JUMPI DUP1 PUSH4 0x6FF80D93 EQ PUSH2 0x303 JUMPI DUP1 PUSH4 0x70876C98 EQ PUSH2 0x316 JUMPI DUP1 PUSH4 0x77E2A08B EQ PUSH2 0x329 JUMPI PUSH1 0x0 DUP1 REVERT JUMPDEST DUP1 PUSH4 0x39E3AF9B EQ PUSH2 0x29B JUMPI DUP1 PUSH4 0x441A3E70 EQ PUSH2 0x2AE JUMPI DUP1 PUSH4 0x549493BB EQ PUSH2 0x2C3 JUMPI PUSH1 0x0 DUP1 REVERT JUMPDEST DUP1 PUSH4 0x135C404E GT PUSH2 0x1AD JUMPI DUP1 PUSH4 0x135C404E EQ PUSH2 0x23D JUMPI DUP1 PUSH4 0x14F29493 EQ PUSH2 0x252 JUMPI DUP1 PUSH4 0x2F3AD61F EQ PUSH2 0x265 JUMPI DUP1 PUSH4 0x3097AFB8 EQ PUSH2 0x288 JUMPI PUSH1 0x0 DUP1 REVERT JUMPDEST DUP1 PUSH4 0x1FFC9A7 EQ PUSH2 0x1D4 JUMPI DUP1 PUSH4 0x2159497 EQ PUSH2 0x1FC JUMPI DUP1 PUSH4 0x9149020 EQ PUSH2 0x22A JUMPI JUMPDEST PUSH1 0x0 DUP1 REVERT JUMPDEST PUSH2 0x1E7 PUSH2 0x1E2 CALLDATASIZE PUSH1 0x4 PUSH2 0x293A JUMP JUMPDEST PUSH2 0x4C6 JUMP JUMPDEST PUSH1 0x40 MLOAD SWAP1 ISZERO ISZERO DUP2 MSTORE PUSH1 0x20 ADD JUMPDEST PUSH1 0x40 MLOAD DUP1 SWAP2 SUB SWAP1 RETURN JUMPDEST PUSH2 0x21C PUSH2 0x20A CALLDATASIZE PUSH1 0x4 PUSH2 0x296B JUMP JUMPDEST PUSH1 0x0 SWAP1 DUP2 MSTORE PUSH1 0x4 PUSH1 0x20 MSTORE PUSH1 0x40 SWAP1 KECCAK256 SLOAD SWAP1 JUMP JUMPDEST PUSH1 0x40 MLOAD SWAP1 DUP2 MSTORE PUSH1 0x20 ADD PUSH2 0x1F3 JUMP JUMPDEST PUSH2 0x1E7 PUSH2 0x238 CALLDATASIZE PUSH1 0x4 PUSH2 0x296B JUMP JUMPDEST PUSH2 0x4FD JUMP JUMPDEST PUSH2 0x245 PUSH2 0x5A8 JUMP JUMPDEST PUSH1 0x40 MLOAD PUSH2 0x1F3 SWAP2 SWAP1 PUSH2 0x2984 JUMP JUMPDEST PUSH2 0x21C PUSH2 0x260 CALLDATASIZE PUSH1 0x4 PUSH2 0x296B JUMP JUMPDEST PUSH2 0x600 JUMP JUMPDEST PUSH2 0x1E7 PUSH2 0x273 CALLDATASIZE PUSH1 0x4 PUSH2 0x296B JUMP JUMPDEST PUSH1 0x0 SWAP1 DUP2 MSTORE PUSH1 0x8 PUSH1 0x20 MSTORE PUSH1 0x40 SWAP1 KECCAK256 SLOAD PUSH1 0xFF AND SWAP1 JUMP JUMPDEST PUSH2 0x1E7 PUSH2 0x296 CALLDATASIZE PUSH1 0x4 PUSH2 0x296B JUMP JUMPDEST PUSH2 0x6A4 JUMP JUMPDEST PUSH2 0x1E7 PUSH2 0x2A9 CALLDATASIZE PUSH1 0x4 PUSH2 0x296B JUMP JUMPDEST PUSH2 0x757 JUMP JUMPDEST PUSH2 0x2C1 PUSH2 0x2BC CALLDATASIZE PUSH1 0x4 PUSH2 0x29C8 JUMP JUMPDEST PUSH2 0x7FB JUMP JUMPDEST STOP JUMPDEST PUSH2 0x1E7 PUSH2 0x2D1 CALLDATASIZE PUSH1 0x4 PUSH2 0x296B JUMP JUMPDEST PUSH1 0x0 SWAP1 DUP2 MSTORE PUSH1 0x2 PUSH1 0x20 SWAP1 DUP2 MSTORE PUSH1 0x40 DUP1 DUP4 KECCAK256 SLOAD PUSH1 0x3 SWAP1 SWAP3 MSTORE SWAP1 SWAP2 KECCAK256 SLOAD EQ SWAP1 JUMP JUMPDEST PUSH2 0x2C1 PUSH2 0x2FE CALLDATASIZE PUSH1 0x4 PUSH2 0x296B JUMP JUMPDEST PUSH2 0xB00 JUMP JUMPDEST PUSH2 0x1E7 PUSH2 0x311 CALLDATASIZE PUSH1 0x4 PUSH2 0x296B JUMP JUMPDEST PUSH2 0xD98 JUMP JUMPDEST PUSH2 0x2C1 PUSH2 0x324 CALLDATASIZE PUSH1 0x4 PUSH2 0x29C8 JUMP JUMPDEST PUSH2 0xE4A JUMP JUMPDEST PUSH2 0x21C PUSH2 0x337 CALLDATASIZE PUSH1 0x4 PUSH2 0x296B JUMP JUMPDEST PUSH2 0x14E6 JUMP JUMPDEST PUSH2 0x1E7 PUSH2 0x34A CALLDATASIZE PUSH1 0x4 PUSH2 0x296B JUMP JUMPDEST PUSH1 0x0 SWAP1 DUP2 MSTORE PUSH1 0x9 PUSH1 0x20 MSTORE PUSH1 0x40 SWAP1 KECCAK256 SLOAD PUSH1 0xFF AND SWAP1 JUMP JUMPDEST PUSH2 0x2C1 PUSH2 0x36D CALLDATASIZE PUSH1 0x4 PUSH2 0x29C8 JUMP JUMPDEST PUSH2 0x15B2 JUMP JUMPDEST PUSH32 0x0 JUMPDEST PUSH1 0x40 MLOAD PUSH1 0x1 PUSH1 0x1 PUSH1 0xA0 SHL SUB SWAP1 SWAP2 AND DUP2 MSTORE PUSH1 0x20 ADD PUSH2 0x1F3 JUMP JUMPDEST PUSH2 0x21C PUSH2 0x3BA CALLDATASIZE PUSH1 0x4 PUSH2 0x296B JUMP JUMPDEST PUSH2 0x1A40 JUMP JUMPDEST PUSH2 0x2C1 PUSH2 0x3CD CALLDATASIZE PUSH1 0x4 PUSH2 0x296B JUMP JUMPDEST PUSH2 0x1AE7 JUMP JUMPDEST PUSH2 0x1E7 PUSH2 0x3E0 CALLDATASIZE PUSH1 0x4 PUSH2 0x296B JUMP JUMPDEST PUSH1 0x0 SWAP1 DUP2 MSTORE PUSH1 0x7 PUSH1 0x20 MSTORE PUSH1 0x40 SWAP1 KECCAK256 SLOAD PUSH1 0xFF AND SWAP1 JUMP JUMPDEST PUSH2 0x414 PUSH2 0x403 CALLDATASIZE PUSH1 0x4 PUSH2 0x2B6F JUMP JUMPDEST PUSH4 0xBC197C81 PUSH1 0xE0 SHL SWAP6 SWAP5 POP POP POP POP POP JUMP JUMPDEST PUSH1 0x40 MLOAD PUSH1 0x1 PUSH1 0x1 PUSH1 0xE0 SHL SUB NOT SWAP1 SWAP2 AND DUP2 MSTORE PUSH1 0x20 ADD PUSH2 0x1F3 JUMP JUMPDEST PUSH2 0x2C1 PUSH2 0x43B CALLDATASIZE PUSH1 0x4 PUSH2 0x296B JUMP JUMPDEST PUSH2 0x1EB1 JUMP JUMPDEST PUSH32 0x0 PUSH2 0x394 JUMP JUMPDEST PUSH2 0x2C1 PUSH2 0x474 CALLDATASIZE PUSH1 0x4 PUSH2 0x29C8 JUMP JUMPDEST PUSH2 0x2127 JUMP JUMPDEST PUSH2 0x21C PUSH2 0x22FC JUMP JUMPDEST PUSH2 0x2C1 PUSH2 0x48F CALLDATASIZE PUSH1 0x4 PUSH2 0x296B JUMP JUMPDEST PUSH2 0x238C JUMP JUMPDEST PUSH2 0x414 PUSH2 0x4A2 CALLDATASIZE PUSH1 0x4 PUSH2 0x2C19 JUMP JUMPDEST PUSH4 0xF23A6E61 PUSH1 0xE0 SHL SWAP6 SWAP5 POP POP POP POP POP JUMP JUMPDEST PUSH2 0x21C PUSH2 0x4C1 CALLDATASIZE PUSH1 0x4 PUSH2 0x2C7E JUMP JUMPDEST PUSH2 0x2505 JUMP JUMPDEST PUSH1 0x0 PUSH1 0x1 PUSH1 0x1 PUSH1 0xE0 SHL SUB NOT DUP3 AND PUSH4 0x2711897 PUSH1 0xE5 SHL EQ DUP1 PUSH2 0x4F7 JUMPI POP PUSH4 0x1FFC9A7 PUSH1 0xE0 SHL PUSH1 0x1 PUSH1 0x1 PUSH1 0xE0 SHL SUB NOT DUP4 AND EQ JUMPDEST SWAP3 SWAP2 POP POP JUMP JUMPDEST PUSH1 0x40 MLOAD PUSH4 0x4DD9C9C7 PUSH1 0xE0 SHL DUP2 MSTORE PUSH1 0x4 DUP2 ADD DUP3 SWAP1 MSTORE PUSH1 0x0 SWAP1 PUSH32 0x0 PUSH1 0x1 PUSH1 0x1 PUSH1 0xA0 SHL SUB AND SWAP1 PUSH4 0x4DD9C9C7 SWAP1 PUSH1 0x24 ADD PUSH2 0x120 PUSH1 0x40 MLOAD DUP1 DUP4 SUB DUP2 DUP7 GAS STATICCALL ISZERO DUP1 ISZERO PUSH2 0x566 JUMPI RETURNDATASIZE PUSH1 0x0 DUP1 RETURNDATACOPY RETURNDATASIZE PUSH1 0x0 REVERT JUMPDEST POP POP POP POP PUSH1 0x40 MLOAD RETURNDATASIZE PUSH1 0x1F NOT PUSH1 0x1F DUP3 ADD AND DUP3 ADD DUP1 PUSH1 0x40 MSTORE POP DUP2 ADD SWAP1 PUSH2 0x58A SWAP2 SWAP1 PUSH2 0x2D07 JUMP JUMPDEST PUSH1 0xE0 ADD MLOAD PUSH1 0x0 SWAP3 DUP4 MSTORE PUSH1 0x2 PUSH1 0x20 MSTORE PUSH1 0x40 SWAP1 SWAP3 KECCAK256 SLOAD SWAP2 SWAP1 SWAP2 LT ISZERO SWAP2 SWAP1 POP JUMP JUMPDEST PUSH1 0x60 PUSH1 0x1 DUP1 SLOAD DUP1 PUSH1 0x20 MUL PUSH1 0x20 ADD PUSH1 0x40 MLOAD SWAP1 DUP2 ADD PUSH1 0x40 MSTORE DUP1 SWAP3 SWAP2 SWAP1 DUP2 DUP2 MSTORE PUSH1 0x20 ADD DUP3 DUP1 SLOAD DUP1 ISZERO PUSH2 0x5F6 JUMPI PUSH1 0x20 MUL DUP3 ADD SWAP2 SWAP1 PUSH1 0x0 MSTORE PUSH1 0x20 PUSH1 0x0 KECCAK256 SWAP1 JUMPDEST DUP2 SLOAD DUP2 MSTORE PUSH1 0x20 ADD SWAP1 PUSH1 0x1 ADD SWAP1 DUP1 DUP4 GT PUSH2 0x5E2 JUMPI JUMPDEST POP POP POP POP POP SWAP1 POP SWAP1 JUMP JUMPDEST PUSH1 0x0 DUP2 DUP2 MSTORE PUSH1 0x2 PUSH1 0x20 MSTORE PUSH1 0x40 DUP1 DUP3 KECCAK256 SLOAD SWAP1 MLOAD PUSH4 0x4DD9C9C7 PUSH1 0xE0 SHL DUP2 MSTORE PUSH1 0x4 DUP2 ADD DUP5 SWAP1 MSTORE PUSH32 0x0 PUSH1 0x1 PUSH1 0x1 PUSH1 0xA0 SHL SUB AND SWAP1 PUSH4 0x4DD9C9C7 SWAP1 PUSH1 0x24 ADD PUSH2 0x120 PUSH1 0x40 MLOAD DUP1 DUP4 SUB DUP2 DUP7 GAS STATICCALL ISZERO DUP1 ISZERO PUSH2 0x675 JUMPI RETURNDATASIZE PUSH1 0x0 DUP1 RETURNDATACOPY RETURNDATASIZE PUSH1 0x0 REVERT JUMPDEST POP POP POP POP PUSH1 0x40 MLOAD RETURNDATASIZE PUSH1 0x1F NOT PUSH1 0x1F DUP3 ADD AND DUP3 ADD DUP1 PUSH1 0x40 MSTORE POP DUP2 ADD SWAP1 PUSH2 0x699 SWAP2 SWAP1 PUSH2 0x2D07 JUMP JUMPDEST MLOAD PUSH2 0x4F7 SWAP2 SWAP1 PUSH2 0x2D98 JUMP JUMPDEST PUSH1 0x40 MLOAD PUSH4 0x8F0DBF77 PUSH1 0xE0 SHL DUP2 MSTORE PUSH1 0x4 DUP2 ADD DUP3 SWAP1 MSTORE PUSH1 0x0 SWAP1 PUSH32 0x0 PUSH1 0x1 PUSH1 0x1 PUSH1 0xA0 SHL SUB AND SWAP1 PUSH4 0x8F0DBF77 SWAP1 PUSH1 0x24 ADD PUSH1 0x20 PUSH1 0x40 MLOAD DUP1 DUP4 SUB DUP2 DUP7 GAS STATICCALL ISZERO DUP1 ISZERO PUSH2 0x70C JUMPI RETURNDATASIZE PUSH1 0x0 DUP1 RETURNDATACOPY RETURNDATASIZE PUSH1 0x0 REVERT JUMPDEST POP POP POP POP PUSH1 0x40 MLOAD RETURNDATASIZE PUSH1 0x1F NOT PUSH1 0x1F DUP3 ADD AND DUP3 ADD DUP1 PUSH1 0x40 MSTORE POP DUP2 ADD SWAP1 PUSH2 0x730 SWAP2 SWAP1 PUSH2 0x2DAF JUMP JUMPDEST DUP1 ISZERO PUSH2 0x4F7 JUMPI POP PUSH2 0x740 DUP3 PUSH2 0x14E6 JUMP JUMPDEST PUSH1 0x0 DUP4 DUP2 MSTORE PUSH1 0x4 PUSH1 0x20 MSTORE PUSH1 0x40 SWAP1 KECCAK256 SLOAD LT ISZERO SWAP3 SWAP2 POP POP JUMP JUMPDEST PUSH1 0x40 MLOAD PUSH4 0x82AFD23B PUSH1 0xE0 SHL DUP2 MSTORE PUSH1 0x4 DUP2 ADD DUP3 SWAP1 MSTORE PUSH1 0x0 SWAP1 PUSH32 0x0 PUSH1 0x1 PUSH1 0x1 PUSH1 0xA0 SHL SUB AND SWAP1 PUSH4 0x82AFD23B SWAP1 PUSH1 0x24 ADD PUSH1 0x20 PUSH1 0x40 MLOAD DUP1 DUP4 SUB DUP2 DUP7 GAS STATICCALL ISZERO DUP1 ISZERO PUSH2 0x7BF JUMPI RETURNDATASIZE PUSH1 0x0 DUP1 RETURNDATACOPY RETURNDATASIZE PUSH1 0x0 REVERT JUMPDEST POP POP POP POP PUSH1 0x40 MLOAD RETURNDATASIZE PUSH1 0x1F NOT PUSH1 0x1F DUP3 ADD AND DUP3 ADD DUP1 PUSH1 0x40 MSTORE POP DUP2 ADD SWAP1 PUSH2 0x7E3 SWAP2 SWAP1 PUSH2 0x2DAF JUMP JUMPDEST ISZERO DUP1 ISZERO PUSH2 0x4F7 JUMPI POP PUSH2 0x7F4 DUP3 PUSH2 0x4FD JUMP JUMPDEST ISZERO SWAP3 SWAP2 POP POP JUMP JUMPDEST CALLER PUSH1 0x1 PUSH1 0x1 PUSH1 0xA0 SHL SUB PUSH32 0x0 AND EQ PUSH2 0x84C JUMPI PUSH1 0x40 MLOAD PUSH3 0x461BCD PUSH1 0xE5 SHL DUP2 MSTORE PUSH1 0x4 ADD PUSH2 0x843 SWAP1 PUSH2 0x2DD1 JUMP JUMPDEST PUSH1 0x40 MLOAD DUP1 SWAP2 SUB SWAP1 REVERT JUMPDEST PUSH1 0x40 MLOAD PUSH4 0x82AFD23B PUSH1 0xE0 SHL DUP2 MSTORE PUSH1 0x4 DUP2 ADD DUP4 SWAP1 MSTORE PUSH32 0x0 PUSH1 0x1 PUSH1 0x1 PUSH1 0xA0 SHL SUB AND SWAP1 PUSH4 0x82AFD23B SWAP1 PUSH1 0x24 ADD PUSH1 0x20 PUSH1 0x40 MLOAD DUP1 DUP4 SUB DUP2 DUP7 GAS STATICCALL ISZERO DUP1 ISZERO PUSH2 0x8B1 JUMPI RETURNDATASIZE PUSH1 0x0 DUP1 RETURNDATACOPY RETURNDATASIZE PUSH1 0x0 REVERT JUMPDEST POP POP POP POP PUSH1 0x40 MLOAD RETURNDATASIZE PUSH1 0x1F NOT PUSH1 0x1F DUP3 ADD AND DUP3 ADD DUP1 PUSH1 0x40 MSTORE POP DUP2 ADD SWAP1 PUSH2 0x8D5 SWAP2 SWAP1 PUSH2 0x2DAF JUMP JUMPDEST ISZERO DUP1 ISZERO PUSH2 0x8E8 JUMPI POP PUSH2 0x8E6 DUP3 PUSH2 0x757 JUMP JUMPDEST ISZERO JUMPDEST DUP1 ISZERO PUSH2 0x903 JUMPI POP PUSH1 0x0 DUP3 DUP2 MSTORE PUSH1 0x9 PUSH1 0x20 MSTORE PUSH1 0x40 SWAP1 KECCAK256 SLOAD PUSH1 0xFF AND ISZERO JUMPDEST DUP1 ISZERO PUSH2 0x92D JUMPI POP PUSH1 0x0 DUP3 DUP2 MSTORE PUSH1 0x8 PUSH1 0x20 MSTORE PUSH1 0x40 SWAP1 KECCAK256 SLOAD PUSH1 0xFF AND DUP1 PUSH2 0x92B JUMPI POP PUSH2 0x92B DUP3 PUSH2 0xD98 JUMP JUMPDEST ISZERO JUMPDEST PUSH2 0x95F JUMPI PUSH1 0x40 MLOAD PUSH3 0x461BCD PUSH1 0xE5 SHL DUP2 MSTORE PUSH1 0x20 PUSH1 0x4 DUP3 ADD MSTORE PUSH1 0x3 PUSH1 0x24 DUP3 ADD MSTORE PUSH3 0x574E41 PUSH1 0xE8 SHL PUSH1 0x44 DUP3 ADD MSTORE PUSH1 0x64 ADD PUSH2 0x843 JUMP JUMPDEST PUSH1 0x0 DUP3 DUP2 MSTORE PUSH1 0x4 PUSH1 0x20 MSTORE PUSH1 0x40 SWAP1 KECCAK256 SLOAD DUP2 GT ISZERO PUSH2 0x9A3 JUMPI PUSH1 0x40 MLOAD PUSH3 0x461BCD PUSH1 0xE5 SHL DUP2 MSTORE PUSH1 0x20 PUSH1 0x4 DUP3 ADD MSTORE PUSH1 0x3 PUSH1 0x24 DUP3 ADD MSTORE PUSH3 0x574145 PUSH1 0xE8 SHL PUSH1 0x44 DUP3 ADD MSTORE PUSH1 0x64 ADD PUSH2 0x843 JUMP JUMPDEST PUSH1 0x0 DUP3 DUP2 MSTORE PUSH1 0x4 PUSH1 0x20 MSTORE PUSH1 0x40 DUP2 KECCAK256 DUP1 SLOAD DUP4 SWAP3 SWAP1 PUSH2 0x9C1 SWAP1 DUP5 SWAP1 PUSH2 0x2DEE JUMP JUMPDEST SWAP1 SWAP2 SSTORE POP POP PUSH1 0x40 MLOAD PUSH4 0x2F2B9A09 PUSH1 0xE2 SHL DUP2 MSTORE PUSH1 0x4 DUP2 ADD DUP3 SWAP1 MSTORE PUSH1 0x1 PUSH1 0x1 PUSH1 0xA0 SHL SUB PUSH32 0x0 DUP2 AND PUSH1 0x24 DUP4 ADD MSTORE PUSH32 0x0 AND SWAP1 PUSH4 0xBCAE6824 SWAP1 PUSH1 0x44 ADD JUMPDEST PUSH1 0x0 PUSH1 0x40 MLOAD DUP1 DUP4 SUB DUP2 PUSH1 0x0 DUP8 DUP1 EXTCODESIZE ISZERO DUP1 ISZERO PUSH2 0xA51 JUMPI PUSH1 0x0 DUP1 REVERT JUMPDEST POP GAS CALL ISZERO DUP1 ISZERO PUSH2 0xA65 JUMPI RETURNDATASIZE PUSH1 0x0 DUP1 RETURNDATACOPY RETURNDATASIZE PUSH1 0x0 REVERT JUMPDEST POP POP PUSH1 0x40 MLOAD PUSH4 0xA9059CBB PUSH1 0xE0 SHL DUP2 MSTORE CALLER PUSH1 0x4 DUP3 ADD MSTORE PUSH1 0x24 DUP2 ADD DUP5 SWAP1 MSTORE PUSH32 0x0 PUSH1 0x1 PUSH1 0x1 PUSH1 0xA0 SHL SUB AND SWAP3 POP PUSH4 0xA9059CBB SWAP2 POP PUSH1 0x44 ADD JUMPDEST PUSH1 0x20 PUSH1 0x40 MLOAD DUP1 DUP4 SUB DUP2 PUSH1 0x0 DUP8 GAS CALL ISZERO DUP1 ISZERO PUSH2 0xAD7 JUMPI RETURNDATASIZE PUSH1 0x0 DUP1 RETURNDATACOPY RETURNDATASIZE PUSH1 0x0 REVERT JUMPDEST POP POP POP POP PUSH1 0x40 MLOAD RETURNDATASIZE PUSH1 0x1F NOT PUSH1 0x1F DUP3 ADD AND DUP3 ADD DUP1 PUSH1 0x40 MSTORE POP DUP2 ADD SWAP1 PUSH2 0xAFB SWAP2 SWAP1 PUSH2 0x2DAF JUMP JUMPDEST POP POP POP JUMP JUMPDEST CALLER PUSH1 0x1 PUSH1 0x1 PUSH1 0xA0 SHL SUB PUSH32 0x0 AND EQ PUSH2 0xB48 JUMPI PUSH1 0x40 MLOAD PUSH3 0x461BCD PUSH1 0xE5 SHL DUP2 MSTORE PUSH1 0x4 ADD PUSH2 0x843 SWAP1 PUSH2 0x2DD1 JUMP JUMPDEST PUSH1 0x0 DUP2 DUP2 MSTORE PUSH1 0x9 PUSH1 0x20 MSTORE PUSH1 0x40 SWAP1 KECCAK256 SLOAD PUSH1 0xFF AND ISZERO DUP1 ISZERO PUSH2 0xB76 JUMPI POP PUSH1 0x0 DUP2 DUP2 MSTORE PUSH1 0x8 PUSH1 0x20 MSTORE PUSH1 0x40 SWAP1 KECCAK256 SLOAD PUSH1 0xFF AND ISZERO JUMPDEST DUP1 ISZERO PUSH2 0xB97 JUMPI POP PUSH2 0xB86 DUP2 PUSH2 0x14E6 JUMP JUMPDEST PUSH1 0x0 DUP3 DUP2 MSTORE PUSH1 0x4 PUSH1 0x20 MSTORE PUSH1 0x40 SWAP1 KECCAK256 SLOAD LT JUMPDEST PUSH2 0xBCB JUMPI PUSH1 0x40 MLOAD PUSH3 0x461BCD PUSH1 0xE5 SHL DUP2 MSTORE PUSH1 0x20 PUSH1 0x4 DUP3 ADD MSTORE PUSH1 0x5 PUSH1 0x24 DUP3 ADD MSTORE PUSH5 0x504D444E41 PUSH1 0xD8 SHL PUSH1 0x44 DUP3 ADD MSTORE PUSH1 0x64 ADD PUSH2 0x843 JUMP JUMPDEST PUSH1 0x0 DUP2 DUP2 MSTORE PUSH1 0x4 PUSH1 0x20 SWAP1 DUP2 MSTORE PUSH1 0x40 DUP1 DUP4 KECCAK256 SLOAD PUSH1 0x2 SWAP1 SWAP3 MSTORE SWAP1 SWAP2 KECCAK256 SLOAD PUSH2 0xBF0 SWAP1 DUP3 PUSH2 0x2E01 JUMP JUMPDEST PUSH1 0x0 DUP4 DUP2 MSTORE PUSH1 0x5 PUSH1 0x20 SWAP1 DUP2 MSTORE PUSH1 0x40 DUP1 DUP4 KECCAK256 SWAP4 SWAP1 SWAP4 SSTORE PUSH1 0x8 SWAP1 MSTORE DUP2 SWAP1 KECCAK256 DUP1 SLOAD PUSH1 0xFF NOT AND PUSH1 0x1 OR SWAP1 SSTORE MLOAD PUSH4 0x6D71C16B PUSH1 0xE1 SHL DUP2 MSTORE PUSH1 0x1 PUSH1 0x1 PUSH1 0xA0 SHL SUB PUSH32 0x0 DUP2 AND PUSH1 0x4 DUP4 ADD MSTORE PUSH32 0x0 AND SWAP1 PUSH4 0xDAE382D6 SWAP1 PUSH1 0x24 ADD PUSH1 0x0 PUSH1 0x40 MLOAD DUP1 DUP4 SUB DUP2 PUSH1 0x0 DUP8 DUP1 EXTCODESIZE ISZERO DUP1 ISZERO PUSH2 0xC98 JUMPI PUSH1 0x0 DUP1 REVERT JUMPDEST POP GAS CALL ISZERO DUP1 ISZERO PUSH2 0xCAC JUMPI RETURNDATASIZE PUSH1 0x0 DUP1 RETURNDATACOPY RETURNDATASIZE PUSH1 0x0 REVERT JUMPDEST POP POP PUSH1 0x40 MLOAD PUSH4 0x1A0A14F9 PUSH1 0xE3 SHL DUP2 MSTORE PUSH1 0x1 PUSH1 0x1 PUSH1 0xA0 SHL SUB PUSH32 0x0 DUP2 AND PUSH1 0x4 DUP4 ADD MSTORE PUSH1 0x1 PUSH1 0x24 DUP4 ADD MSTORE PUSH32 0x0 AND SWAP3 POP PUSH4 0xD050A7C8 SWAP2 POP PUSH1 0x44 ADD PUSH1 0x0 PUSH1 0x40 MLOAD DUP1 DUP4 SUB DUP2 PUSH1 0x0 DUP8 DUP1 EXTCODESIZE ISZERO DUP1 ISZERO PUSH2 0xD3A JUMPI PUSH1 0x0 DUP1 REVERT JUMPDEST POP GAS CALL ISZERO DUP1 ISZERO PUSH2 0xD4E JUMPI RETURNDATASIZE PUSH1 0x0 DUP1 RETURNDATACOPY RETURNDATASIZE PUSH1 0x0 REVERT JUMPDEST POP POP POP POP DUP2 PUSH32 0xC4F17A65D54873D57229EA5F59C4DDEC592D095BC17581372676402C8228B9CD PUSH2 0xD7D DUP5 PUSH2 0x14E6 JUMP JUMPDEST PUSH1 0x40 DUP1 MLOAD SWAP2 DUP3 MSTORE PUSH1 0x20 DUP3 ADD DUP6 SWAP1 MSTORE ADD PUSH1 0x40 MLOAD DUP1 SWAP2 SUB SWAP1 LOG2 POP POP JUMP JUMPDEST PUSH1 0x40 MLOAD PUSH4 0x8F0DBF77 PUSH1 0xE0 SHL DUP2 MSTORE PUSH1 0x4 DUP2 ADD DUP3 SWAP1 MSTORE PUSH1 0x0 SWAP1 PUSH32 0x0 PUSH1 0x1 PUSH1 0x1 PUSH1 0xA0 SHL SUB AND SWAP1 PUSH4 0x8F0DBF77 SWAP1 PUSH1 0x24 ADD PUSH1 0x20 PUSH1 0x40 MLOAD DUP1 DUP4 SUB DUP2 DUP7 GAS STATICCALL ISZERO DUP1 ISZERO PUSH2 0xE00 JUMPI RETURNDATASIZE PUSH1 0x0 DUP1 RETURNDATACOPY RETURNDATASIZE PUSH1 0x0 REVERT JUMPDEST POP POP POP POP PUSH1 0x40 MLOAD RETURNDATASIZE PUSH1 0x1F NOT PUSH1 0x1F DUP3 ADD AND DUP3 ADD DUP1 PUSH1 0x40 MSTORE POP DUP2 ADD SWAP1 PUSH2 0xE24 SWAP2 SWAP1 PUSH2 0x2DAF JUMP JUMPDEST DUP1 ISZERO PUSH2 0x4F7 JUMPI POP PUSH2 0xE34 DUP3 PUSH2 0x14E6 JUMP JUMPDEST PUSH1 0x0 DUP4 DUP2 MSTORE PUSH1 0x4 PUSH1 0x20 MSTORE PUSH1 0x40 SWAP1 KECCAK256 SLOAD LT SWAP3 SWAP2 POP POP JUMP JUMPDEST PUSH1 0x40 MLOAD PUSH4 0x82AFD23B PUSH1 0xE0 SHL DUP2 MSTORE PUSH1 0x4 DUP2 ADD DUP4 SWAP1 MSTORE PUSH32 0x0 PUSH1 0x1 PUSH1 0x1 PUSH1 0xA0 SHL SUB AND SWAP1 PUSH4 0x82AFD23B SWAP1 PUSH1 0x24 ADD PUSH1 0x20 PUSH1 0x40 MLOAD DUP1 DUP4 SUB DUP2 DUP7 GAS STATICCALL ISZERO DUP1 ISZERO PUSH2 0xEAF JUMPI RETURNDATASIZE PUSH1 0x0 DUP1 RETURNDATACOPY RETURNDATASIZE PUSH1 0x0 REVERT JUMPDEST POP POP POP POP PUSH1 0x40 MLOAD RETURNDATASIZE PUSH1 0x1F NOT PUSH1 0x1F DUP3 ADD AND DUP3 ADD DUP1 PUSH1 0x40 MSTORE POP DUP2 ADD SWAP1 PUSH2 0xED3 SWAP2 SWAP1 PUSH2 0x2DAF JUMP JUMPDEST PUSH2 0xF04 JUMPI PUSH1 0x40 MLOAD PUSH3 0x461BCD PUSH1 0xE5 SHL DUP2 MSTORE PUSH1 0x20 PUSH1 0x4 DUP3 ADD MSTORE PUSH1 0x2 PUSH1 0x24 DUP3 ADD MSTORE PUSH2 0x24A1 PUSH1 0xF1 SHL PUSH1 0x44 DUP3 ADD MSTORE PUSH1 0x64 ADD PUSH2 0x843 JUMP JUMPDEST DUP1 PUSH2 0xF0E DUP4 PUSH2 0x1A40 JUMP JUMPDEST LT ISZERO PUSH2 0xF41 JUMPI PUSH1 0x40 MLOAD PUSH3 0x461BCD PUSH1 0xE5 SHL DUP2 MSTORE PUSH1 0x20 PUSH1 0x4 DUP3 ADD MSTORE PUSH1 0x2 PUSH1 0x24 DUP3 ADD MSTORE PUSH2 0x4951 PUSH1 0xF0 SHL PUSH1 0x44 DUP3 ADD MSTORE PUSH1 0x64 ADD PUSH2 0x843 JUMP JUMPDEST PUSH1 0x40 MLOAD PUSH4 0x4DD9C9C7 PUSH1 0xE0 SHL DUP2 MSTORE PUSH1 0x4 DUP2 ADD DUP4 SWAP1 MSTORE PUSH1 0x0 SWAP1 PUSH32 0x0 PUSH1 0x1 PUSH1 0x1 PUSH1 0xA0 SHL SUB AND SWAP1 PUSH4 0x4DD9C9C7 SWAP1 PUSH1 0x24 ADD PUSH2 0x120 PUSH1 0x40 MLOAD DUP1 DUP4 SUB DUP2 DUP7 GAS STATICCALL ISZERO DUP1 ISZERO PUSH2 0xFAA JUMPI RETURNDATASIZE PUSH1 0x0 DUP1 RETURNDATACOPY RETURNDATASIZE PUSH1 0x0 REVERT JUMPDEST POP POP POP POP PUSH1 0x40 MLOAD RETURNDATASIZE PUSH1 0x1F NOT PUSH1 0x1F DUP3 ADD AND DUP3 ADD DUP1 PUSH1 0x40 MSTORE POP DUP2 ADD SWAP1 PUSH2 0xFCE SWAP2 SWAP1 PUSH2 0x2D07 JUMP JUMPDEST MLOAD PUSH2 0xFD9 SWAP1 DUP4 PUSH2 0x2D98 JUMP JUMPDEST SWAP1 POP DUP2 PUSH1 0x2 PUSH1 0x0 DUP6 DUP2 MSTORE PUSH1 0x20 ADD SWAP1 DUP2 MSTORE PUSH1 0x20 ADD PUSH1 0x0 KECCAK256 PUSH1 0x0 DUP3 DUP3 SLOAD PUSH2 0xFFE SWAP2 SWAP1 PUSH2 0x2E23 JUMP JUMPDEST SWAP1 SWAP2 SSTORE POP POP PUSH1 0x0 DUP4 DUP2 MSTORE PUSH1 0x4 PUSH1 0x20 MSTORE PUSH1 0x40 DUP2 KECCAK256 DUP1 SLOAD DUP4 SWAP3 SWAP1 PUSH2 0x1021 SWAP1 DUP5 SWAP1 PUSH2 0x2E23 JUMP JUMPDEST SWAP1 SWAP2 SSTORE POP POP PUSH1 0x40 MLOAD PUSH4 0x83883FE3 PUSH1 0xE0 SHL DUP2 MSTORE PUSH1 0x4 DUP2 ADD DUP3 SWAP1 MSTORE PUSH1 0x1 PUSH1 0x1 PUSH1 0xA0 SHL SUB PUSH32 0x0 DUP2 AND PUSH1 0x24 DUP4 ADD MSTORE PUSH32 0x0 AND SWAP1 PUSH4 0x83883FE3 SWAP1 PUSH1 0x44 ADD PUSH1 0x0 PUSH1 0x40 MLOAD DUP1 DUP4 SUB DUP2 PUSH1 0x0 DUP8 DUP1 EXTCODESIZE ISZERO DUP1 ISZERO PUSH2 0x10B0 JUMPI PUSH1 0x0 DUP1 REVERT JUMPDEST POP GAS CALL ISZERO DUP1 ISZERO PUSH2 0x10C4 JUMPI RETURNDATASIZE PUSH1 0x0 DUP1 RETURNDATACOPY RETURNDATASIZE PUSH1 0x0 REVERT JUMPDEST POP POP PUSH1 0x40 MLOAD PUSH4 0x576FF163 PUSH1 0xE0 SHL DUP2 MSTORE PUSH1 0x4 DUP2 ADD DUP5 SWAP1 MSTORE PUSH1 0x1 PUSH1 0x1 PUSH1 0xA0 SHL SUB PUSH32 0x0 DUP2 AND PUSH1 0x24 DUP4 ADD MSTORE PUSH32 0x0 AND SWAP3 POP PUSH4 0x576FF163 SWAP2 POP PUSH1 0x44 ADD PUSH1 0x0 PUSH1 0x40 MLOAD DUP1 DUP4 SUB DUP2 PUSH1 0x0 DUP8 DUP1 EXTCODESIZE ISZERO DUP1 ISZERO PUSH2 0x1152 JUMPI PUSH1 0x0 DUP1 REVERT JUMPDEST POP GAS CALL ISZERO DUP1 ISZERO PUSH2 0x1166 JUMPI RETURNDATASIZE PUSH1 0x0 DUP1 RETURNDATACOPY RETURNDATASIZE PUSH1 0x0 REVERT JUMPDEST POP POP PUSH1 0x40 MLOAD PUSH4 0xB8C2E4F3 PUSH1 0xE0 SHL DUP2 MSTORE PUSH1 0x4 DUP2 ADD DUP5 SWAP1 MSTORE PUSH1 0x1 PUSH1 0x1 PUSH1 0xA0 SHL SUB PUSH32 0x0 DUP2 AND PUSH1 0x24 DUP4 ADD MSTORE PUSH32 0x0 DUP2 AND PUSH1 0x44 DUP4 ADD MSTORE PUSH32 0x0 AND SWAP3 POP PUSH4 0xB8C2E4F3 SWAP2 POP PUSH1 0x64 ADD PUSH1 0x0 PUSH1 0x40 MLOAD DUP1 DUP4 SUB DUP2 PUSH1 0x0 DUP8 DUP1 EXTCODESIZE ISZERO DUP1 ISZERO PUSH2 0x121C JUMPI PUSH1 0x0 DUP1 REVERT JUMPDEST POP GAS CALL ISZERO DUP1 ISZERO PUSH2 0x1230 JUMPI RETURNDATASIZE PUSH1 0x0 DUP1 RETURNDATACOPY RETURNDATASIZE PUSH1 0x0 REVERT JUMPDEST POP POP PUSH1 0x40 MLOAD PUSH4 0x7DB79A3D PUSH1 0xE0 SHL DUP2 MSTORE PUSH1 0x4 DUP2 ADD DUP5 SWAP1 MSTORE PUSH1 0x1 PUSH1 0x1 PUSH1 0xA0 SHL SUB PUSH32 0x0 DUP2 AND PUSH1 0x24 DUP4 ADD MSTORE PUSH32 0x0 DUP2 AND PUSH1 0x44 DUP4 ADD MSTORE PUSH1 0x1 PUSH1 0x64 DUP4 ADD MSTORE PUSH32 0x0 AND SWAP3 POP PUSH4 0x7DB79A3D SWAP2 POP PUSH1 0x84 ADD PUSH1 0x0 PUSH1 0x40 MLOAD DUP1 DUP4 SUB DUP2 PUSH1 0x0 DUP8 DUP1 EXTCODESIZE ISZERO DUP1 ISZERO PUSH2 0x12ED JUMPI PUSH1 0x0 DUP1 REVERT JUMPDEST POP GAS CALL ISZERO DUP1 ISZERO PUSH2 0x1301 JUMPI RETURNDATASIZE PUSH1 0x0 DUP1 RETURNDATACOPY RETURNDATASIZE PUSH1 0x0 REVERT JUMPDEST POP POP PUSH1 0x40 MLOAD PUSH4 0x585A6FD5 PUSH1 0xE1 SHL DUP2 MSTORE PUSH1 0x4 DUP2 ADD DUP5 SWAP1 MSTORE PUSH1 0x1 PUSH1 0x1 PUSH1 0xA0 SHL SUB PUSH32 0x0 DUP2 AND PUSH1 0x24 DUP4 ADD MSTORE PUSH1 0x1 PUSH1 0x44 DUP4 ADD MSTORE PUSH32 0x0 AND SWAP3 POP PUSH4 0xB0B4DFAA SWAP2 POP PUSH1 0x64 ADD PUSH1 0x0 PUSH1 0x40 MLOAD DUP1 DUP4 SUB DUP2 PUSH1 0x0 DUP8 DUP1 EXTCODESIZE ISZERO DUP1 ISZERO PUSH2 0x1396 JUMPI PUSH1 0x0 DUP1 REVERT JUMPDEST POP GAS CALL ISZERO DUP1 ISZERO PUSH2 0x13AA JUMPI RETURNDATASIZE PUSH1 0x0 DUP1 RETURNDATACOPY RETURNDATASIZE PUSH1 0x0 REVERT JUMPDEST POP POP PUSH1 0x40 MLOAD PUSH4 0x79212195 PUSH1 0xE1 SHL DUP2 MSTORE ADDRESS PUSH1 0x4 DUP3 ADD MSTORE CALLER PUSH1 0x24 DUP3 ADD MSTORE PUSH1 0x44 DUP2 ADD DUP7 SWAP1 MSTORE PUSH1 0x64 DUP2 ADD DUP6 SWAP1 MSTORE PUSH1 0xA0 PUSH1 0x84 DUP3 ADD MSTORE PUSH1 0x0 PUSH1 0xA4 DUP3 ADD MSTORE PUSH32 0x0 PUSH1 0x1 PUSH1 0x1 PUSH1 0xA0 SHL SUB AND SWAP3 POP PUSH4 0xF242432A SWAP2 POP PUSH1 0xC4 ADD PUSH1 0x0 PUSH1 0x40 MLOAD DUP1 DUP4 SUB DUP2 PUSH1 0x0 DUP8 DUP1 EXTCODESIZE ISZERO DUP1 ISZERO PUSH2 0x1431 JUMPI PUSH1 0x0 DUP1 REVERT JUMPDEST POP GAS CALL ISZERO DUP1 ISZERO PUSH2 0x1445 JUMPI RETURNDATASIZE PUSH1 0x0 DUP1 RETURNDATACOPY RETURNDATASIZE PUSH1 0x0 REVERT JUMPDEST POP POP PUSH1 0x40 MLOAD PUSH4 0x23B872DD PUSH1 0xE0 SHL DUP2 MSTORE CALLER PUSH1 0x4 DUP3 ADD MSTORE ADDRESS PUSH1 0x24 DUP3 ADD MSTORE PUSH1 0x44 DUP2 ADD DUP5 SWAP1 MSTORE PUSH32 0x0 PUSH1 0x1 PUSH1 0x1 PUSH1 0xA0 SHL SUB AND SWAP3 POP PUSH4 0x23B872DD SWAP2 POP PUSH1 0x64 ADD PUSH1 0x20 PUSH1 0x40 MLOAD DUP1 DUP4 SUB DUP2 PUSH1 0x0 DUP8 GAS CALL ISZERO DUP1 ISZERO PUSH2 0x14BC JUMPI RETURNDATASIZE PUSH1 0x0 DUP1 RETURNDATACOPY RETURNDATASIZE PUSH1 0x0 REVERT JUMPDEST POP POP POP POP PUSH1 0x40 MLOAD RETURNDATASIZE PUSH1 0x1F NOT PUSH1 0x1F DUP3 ADD AND DUP3 ADD DUP1 PUSH1 0x40 MSTORE POP DUP2 ADD SWAP1 PUSH2 0x14E0 SWAP2 SWAP1 PUSH2 0x2DAF JUMP JUMPDEST POP POP POP POP JUMP JUMPDEST PUSH1 0x40 MLOAD PUSH4 0x4DD9C9C7 PUSH1 0xE0 SHL DUP2 MSTORE PUSH1 0x4 DUP2 ADD DUP3 SWAP1 MSTORE PUSH1 0x0 SWAP1 PUSH8 0xDE0B6B3A7640000 SWAP1 PUSH1 0x1 PUSH1 0x1 PUSH1 0xA0 SHL SUB PUSH32 0x0 AND SWAP1 PUSH4 0x4DD9C9C7 SWAP1 PUSH1 0x24 ADD PUSH2 0x120 PUSH1 0x40 MLOAD DUP1 DUP4 SUB DUP2 DUP7 GAS STATICCALL ISZERO DUP1 ISZERO PUSH2 0x1559 JUMPI RETURNDATASIZE PUSH1 0x0 DUP1 RETURNDATACOPY RETURNDATASIZE PUSH1 0x0 REVERT JUMPDEST POP POP POP POP PUSH1 0x40 MLOAD RETURNDATASIZE PUSH1 0x1F NOT PUSH1 0x1F DUP3 ADD AND DUP3 ADD DUP1 PUSH1 0x40 MSTORE POP DUP2 ADD SWAP1 PUSH2 0x157D SWAP2 SWAP1 PUSH2 0x2D07 JUMP JUMPDEST PUSH2 0x100 ADD MLOAD PUSH2 0x158B DUP5 PUSH2 0x600 JUMP JUMPDEST PUSH2 0x1595 SWAP2 SWAP1 PUSH2 0x2D98 JUMP JUMPDEST PUSH2 0x159F SWAP2 SWAP1 PUSH2 0x2E01 JUMP JUMPDEST PUSH2 0x15A8 DUP4 PUSH2 0x600 JUMP JUMPDEST PUSH2 0x4F7 SWAP2 SWAP1 PUSH2 0x2E23 JUMP JUMPDEST PUSH1 0x40 MLOAD PUSH3 0x7EEAC7 PUSH1 0xE1 SHL DUP2 MSTORE CALLER PUSH1 0x4 DUP3 ADD MSTORE PUSH1 0x24 DUP2 ADD DUP4 SWAP1 MSTORE DUP2 SWAP1 PUSH32 0x0 PUSH1 0x1 PUSH1 0x1 PUSH1 0xA0 SHL SUB AND SWAP1 PUSH3 0xFDD58E SWAP1 PUSH1 0x44 ADD PUSH1 0x20 PUSH1 0x40 MLOAD DUP1 DUP4 SUB DUP2 DUP7 GAS STATICCALL ISZERO DUP1 ISZERO PUSH2 0x161D JUMPI RETURNDATASIZE PUSH1 0x0 DUP1 RETURNDATACOPY RETURNDATASIZE PUSH1 0x0 REVERT JUMPDEST POP POP POP POP PUSH1 0x40 MLOAD RETURNDATASIZE PUSH1 0x1F NOT PUSH1 0x1F DUP3 ADD AND DUP3 ADD DUP1 PUSH1 0x40 MSTORE POP DUP2 ADD SWAP1 PUSH2 0x1641 SWAP2 SWAP1 PUSH2 0x2E36 JUMP JUMPDEST LT ISZERO PUSH2 0x1674 JUMPI PUSH1 0x40 MLOAD PUSH3 0x461BCD PUSH1 0xE5 SHL DUP2 MSTORE PUSH1 0x20 PUSH1 0x4 DUP3 ADD MSTORE PUSH1 0x2 PUSH1 0x24 DUP3 ADD MSTORE PUSH2 0x4951 PUSH1 0xF0 SHL PUSH1 0x44 DUP3 ADD MSTORE PUSH1 0x64 ADD PUSH2 0x843 JUMP JUMPDEST PUSH1 0x0 DUP3 DUP2 MSTORE PUSH1 0x9 PUSH1 0x20 MSTORE PUSH1 0x40 SWAP1 KECCAK256 SLOAD PUSH1 0xFF AND DUP1 PUSH2 0x1695 JUMPI POP PUSH2 0x1695 DUP3 PUSH2 0x757 JUMP JUMPDEST DUP1 PUSH2 0x16AE JUMPI POP PUSH1 0x0 DUP3 DUP2 MSTORE PUSH1 0x8 PUSH1 0x20 MSTORE PUSH1 0x40 SWAP1 KECCAK256 SLOAD PUSH1 0xFF AND JUMPDEST PUSH2 0x16E0 JUMPI PUSH1 0x40 MLOAD PUSH3 0x461BCD PUSH1 0xE5 SHL DUP2 MSTORE PUSH1 0x20 PUSH1 0x4 DUP3 ADD MSTORE PUSH1 0x3 PUSH1 0x24 DUP3 ADD MSTORE PUSH3 0x524E41 PUSH1 0xE8 SHL PUSH1 0x44 DUP3 ADD MSTORE PUSH1 0x64 ADD PUSH2 0x843 JUMP JUMPDEST PUSH1 0x0 DUP3 DUP2 MSTORE PUSH1 0x9 PUSH1 0x20 MSTORE PUSH1 0x40 DUP2 KECCAK256 SLOAD DUP2 SWAP1 PUSH1 0xFF AND ISZERO PUSH2 0x1710 JUMPI POP POP PUSH1 0x0 DUP3 DUP2 MSTORE PUSH1 0x6 PUSH1 0x20 MSTORE PUSH1 0x40 DUP2 KECCAK256 SLOAD SWAP1 PUSH2 0x17DF JUMP JUMPDEST PUSH2 0x1719 DUP5 PUSH2 0x757 JUMP JUMPDEST ISZERO PUSH2 0x17B4 JUMPI PUSH1 0x40 MLOAD PUSH4 0x4DD9C9C7 PUSH1 0xE0 SHL DUP2 MSTORE PUSH1 0x4 DUP2 ADD DUP6 SWAP1 MSTORE PUSH32 0x0 PUSH1 0x1 PUSH1 0x1 PUSH1 0xA0 SHL SUB AND SWAP1 PUSH4 0x4DD9C9C7 SWAP1 PUSH1 0x24 ADD PUSH2 0x120 PUSH1 0x40 MLOAD DUP1 DUP4 SUB DUP2 DUP7 GAS STATICCALL ISZERO DUP1 ISZERO PUSH2 0x1784 JUMPI RETURNDATASIZE PUSH1 0x0 DUP1 RETURNDATACOPY RETURNDATASIZE PUSH1 0x0 REVERT JUMPDEST POP POP POP POP PUSH1 0x40 MLOAD RETURNDATASIZE PUSH1 0x1F NOT PUSH1 0x1F DUP3 ADD AND DUP3 ADD DUP1 PUSH1 0x40 MSTORE POP DUP2 ADD SWAP1 PUSH2 0x17A8 SWAP2 SWAP1 PUSH2 0x2D07 JUMP JUMPDEST MLOAD SWAP2 POP PUSH1 0x1 SWAP1 POP PUSH2 0x17DF JUMP JUMPDEST PUSH1 0x0 DUP5 DUP2 MSTORE PUSH1 0x8 PUSH1 0x20 MSTORE PUSH1 0x40 SWAP1 KECCAK256 SLOAD PUSH1 0xFF AND ISZERO PUSH2 0x1CF JUMPI POP POP PUSH1 0x0 DUP3 DUP2 MSTORE PUSH1 0x5 PUSH1 0x20 MSTORE PUSH1 0x40 SWAP1 KECCAK256 SLOAD PUSH1 0x2 JUMPDEST PUSH1 0x40 MLOAD PUSH4 0x7A94C565 PUSH1 0xE1 SHL DUP2 MSTORE CALLER PUSH1 0x4 DUP3 ADD MSTORE PUSH1 0x24 DUP2 ADD DUP6 SWAP1 MSTORE PUSH1 0x44 DUP2 ADD DUP5 SWAP1 MSTORE PUSH32 0x0 PUSH1 0x1 PUSH1 0x1 PUSH1 0xA0 SHL SUB AND SWAP1 PUSH4 0xF5298ACA SWAP1 PUSH1 0x64 ADD PUSH1 0x0 PUSH1 0x40 MLOAD DUP1 DUP4 SUB DUP2 PUSH1 0x0 DUP8 DUP1 EXTCODESIZE ISZERO DUP1 ISZERO PUSH2 0x184E JUMPI PUSH1 0x0 DUP1 REVERT JUMPDEST POP GAS CALL ISZERO DUP1 ISZERO PUSH2 0x1862 JUMPI RETURNDATASIZE PUSH1 0x0 DUP1 RETURNDATACOPY RETURNDATASIZE PUSH1 0x0 REVERT JUMPDEST POP POP POP PUSH1 0x0 DUP6 DUP2 MSTORE PUSH1 0x3 PUSH1 0x20 MSTORE PUSH1 0x40 DUP2 KECCAK256 DUP1 SLOAD DUP7 SWAP4 POP SWAP1 SWAP2 SWAP1 PUSH2 0x1886 SWAP1 DUP5 SWAP1 PUSH2 0x2E23 JUMP JUMPDEST SWAP1 SWAP2 SSTORE POP PUSH1 0x0 SWAP1 POP PUSH2 0x1898 DUP4 DUP6 PUSH2 0x2D98 JUMP JUMPDEST SWAP1 POP DUP1 PUSH1 0x4 PUSH1 0x0 DUP8 DUP2 MSTORE PUSH1 0x20 ADD SWAP1 DUP2 MSTORE PUSH1 0x20 ADD PUSH1 0x0 KECCAK256 PUSH1 0x0 DUP3 DUP3 SLOAD PUSH2 0x18BD SWAP2 SWAP1 PUSH2 0x2DEE JUMP JUMPDEST SWAP1 SWAP2 SSTORE POP POP PUSH1 0x40 MLOAD PUSH4 0x2F2B9A09 PUSH1 0xE2 SHL DUP2 MSTORE PUSH1 0x4 DUP2 ADD DUP3 SWAP1 MSTORE PUSH1 0x1 PUSH1 0x1 PUSH1 0xA0 SHL SUB PUSH32 0x0 DUP2 AND PUSH1 0x24 DUP4 ADD MSTORE PUSH32 0x0 AND SWAP1 PUSH4 0xBCAE6824 SWAP1 PUSH1 0x44 ADD PUSH1 0x0 PUSH1 0x40 MLOAD DUP1 DUP4 SUB DUP2 PUSH1 0x0 DUP8 DUP1 EXTCODESIZE ISZERO DUP1 ISZERO PUSH2 0x194C JUMPI PUSH1 0x0 DUP1 REVERT JUMPDEST POP GAS CALL ISZERO DUP1 ISZERO PUSH2 0x1960 JUMPI RETURNDATASIZE PUSH1 0x0 DUP1 RETURNDATACOPY RETURNDATASIZE PUSH1 0x0 REVERT JUMPDEST POP POP PUSH1 0x40 MLOAD PUSH4 0xA9059CBB PUSH1 0xE0 SHL DUP2 MSTORE CALLER PUSH1 0x4 DUP3 ADD MSTORE PUSH1 0x24 DUP2 ADD DUP5 SWAP1 MSTORE PUSH32 0x0 PUSH1 0x1 PUSH1 0x1 PUSH1 0xA0 SHL SUB AND SWAP3 POP PUSH4 0xA9059CBB SWAP2 POP PUSH1 0x44 ADD PUSH1 0x20 PUSH1 0x40 MLOAD DUP1 DUP4 SUB DUP2 PUSH1 0x0 DUP8 GAS CALL ISZERO DUP1 ISZERO PUSH2 0x19D1 JUMPI RETURNDATASIZE PUSH1 0x0 DUP1 RETURNDATACOPY RETURNDATASIZE PUSH1 0x0 REVERT JUMPDEST POP POP POP POP PUSH1 0x40 MLOAD RETURNDATASIZE PUSH1 0x1F NOT PUSH1 0x1F DUP3 ADD AND DUP3 ADD DUP1 PUSH1 0x40 MSTORE POP DUP2 ADD SWAP1 PUSH2 0x19F5 SWAP2 SWAP1 PUSH2 0x2DAF JUMP JUMPDEST POP PUSH1 0x40 DUP1 MLOAD CALLER DUP2 MSTORE PUSH1 0x20 DUP2 ADD DUP7 SWAP1 MSTORE SWAP1 DUP2 ADD DUP4 SWAP1 MSTORE DUP6 SWAP1 PUSH32 0xA5851B0172FDAFD3DAFE0E52CE051747548A4C642A2F22793C01FAF228E13062 SWAP1 PUSH1 0x60 ADD PUSH1 0x40 MLOAD DUP1 SWAP2 SUB SWAP1 LOG2 POP POP POP POP POP JUMP JUMPDEST PUSH1 0x0 DUP2 DUP2 MSTORE PUSH1 0x2 PUSH1 0x20 MSTORE PUSH1 0x40 DUP1 DUP3 KECCAK256 SLOAD SWAP1 MLOAD PUSH4 0x4DD9C9C7 PUSH1 0xE0 SHL DUP2 MSTORE PUSH1 0x4 DUP2 ADD DUP5 SWAP1 MSTORE PUSH32 0x0 PUSH1 0x1 PUSH1 0x1 PUSH1 0xA0 SHL SUB AND SWAP1 PUSH4 0x4DD9C9C7 SWAP1 PUSH1 0x24 ADD PUSH2 0x120 PUSH1 0x40 MLOAD DUP1 DUP4 SUB DUP2 DUP7 GAS STATICCALL ISZERO DUP1 ISZERO PUSH2 0x1AB5 JUMPI RETURNDATASIZE PUSH1 0x0 DUP1 RETURNDATACOPY RETURNDATASIZE PUSH1 0x0 REVERT JUMPDEST POP POP POP POP PUSH1 0x40 MLOAD RETURNDATASIZE PUSH1 0x1F NOT PUSH1 0x1F DUP3 ADD AND DUP3 ADD DUP1 PUSH1 0x40 MSTORE POP DUP2 ADD SWAP1 PUSH2 0x1AD9 SWAP2 SWAP1 PUSH2 0x2D07 JUMP JUMPDEST PUSH1 0xC0 ADD MLOAD PUSH2 0x4F7 SWAP2 SWAP1 PUSH2 0x2DEE JUMP JUMPDEST PUSH1 0x0 DUP2 DUP2 MSTORE PUSH1 0x9 PUSH1 0x20 MSTORE PUSH1 0x40 SWAP1 KECCAK256 SLOAD PUSH1 0xFF AND ISZERO DUP1 ISZERO PUSH2 0x1B15 JUMPI POP PUSH1 0x0 DUP2 DUP2 MSTORE PUSH1 0x8 PUSH1 0x20 MSTORE PUSH1 0x40 SWAP1 KECCAK256 SLOAD PUSH1 0xFF AND ISZERO JUMPDEST DUP1 ISZERO PUSH2 0x1B25 JUMPI POP PUSH2 0x1B25 DUP2 PUSH2 0xD98 JUMP JUMPDEST PUSH2 0x1B59 JUMPI PUSH1 0x40 MLOAD PUSH3 0x461BCD PUSH1 0xE5 SHL DUP2 MSTORE PUSH1 0x20 PUSH1 0x4 DUP3 ADD MSTORE PUSH1 0x5 PUSH1 0x24 DUP3 ADD MSTORE PUSH5 0x4D41444E41 PUSH1 0xD8 SHL PUSH1 0x44 DUP3 ADD MSTORE PUSH1 0x64 ADD PUSH2 0x843 JUMP JUMPDEST PUSH1 0x0 DUP2 DUP2 MSTORE PUSH1 0x4 PUSH1 0x20 MSTORE PUSH1 0x40 DUP2 KECCAK256 SLOAD PUSH2 0x1B75 SWAP1 PUSH2 0x3E8 SWAP1 PUSH2 0x2E01 JUMP JUMPDEST PUSH1 0x0 DUP4 DUP2 MSTORE PUSH1 0x4 PUSH1 0x20 MSTORE PUSH1 0x40 DUP2 KECCAK256 SLOAD SWAP2 SWAP3 POP SWAP1 PUSH2 0x1B93 SWAP1 DUP4 SWAP1 PUSH2 0x2DEE JUMP JUMPDEST PUSH1 0x0 DUP5 DUP2 MSTORE PUSH1 0x2 PUSH1 0x20 MSTORE PUSH1 0x40 SWAP1 KECCAK256 SLOAD SWAP1 SWAP2 POP PUSH2 0x1BAF SWAP1 DUP3 PUSH2 0x2E01 JUMP JUMPDEST PUSH1 0x0 DUP5 DUP2 MSTORE PUSH1 0x5 PUSH1 0x20 SWAP1 DUP2 MSTORE PUSH1 0x40 DUP1 DUP4 KECCAK256 SWAP4 SWAP1 SWAP4 SSTORE PUSH1 0x4 SWAP1 MSTORE SWAP1 DUP2 KECCAK256 DUP1 SLOAD DUP5 SWAP3 SWAP1 PUSH2 0x1BDB SWAP1 DUP5 SWAP1 PUSH2 0x2DEE JUMP JUMPDEST SWAP1 SWAP2 SSTORE POP POP PUSH1 0x0 DUP4 DUP2 MSTORE PUSH1 0x8 PUSH1 0x20 MSTORE PUSH1 0x40 SWAP1 DUP2 SWAP1 KECCAK256 DUP1 SLOAD PUSH1 0xFF NOT AND PUSH1 0x1 OR SWAP1 SSTORE MLOAD PUSH4 0x6D71C16B PUSH1 0xE1 SHL DUP2 MSTORE PUSH1 0x1 PUSH1 0x1 PUSH1 0xA0 SHL SUB PUSH32 0x0 DUP2 AND PUSH1 0x4 DUP4 ADD MSTORE PUSH32 0x0 AND SWAP1 PUSH4 0xDAE382D6 SWAP1 PUSH1 0x24 ADD PUSH1 0x0 PUSH1 0x40 MLOAD DUP1 DUP4 SUB DUP2 PUSH1 0x0 DUP8 DUP1 EXTCODESIZE ISZERO DUP1 ISZERO PUSH2 0x1C7C JUMPI PUSH1 0x0 DUP1 REVERT JUMPDEST POP GAS CALL ISZERO DUP1 ISZERO PUSH2 0x1C90 JUMPI RETURNDATASIZE PUSH1 0x0 DUP1 RETURNDATACOPY RETURNDATASIZE PUSH1 0x0 REVERT JUMPDEST POP POP PUSH1 0x40 MLOAD PUSH4 0x1A0A14F9 PUSH1 0xE3 SHL DUP2 MSTORE PUSH1 0x1 PUSH1 0x1 PUSH1 0xA0 SHL SUB PUSH32 0x0 DUP2 AND PUSH1 0x4 DUP4 ADD MSTORE PUSH1 0x1 PUSH1 0x24 DUP4 ADD MSTORE PUSH32 0x0 AND SWAP3 POP PUSH4 0xD050A7C8 SWAP2 POP PUSH1 0x44 ADD PUSH1 0x0 PUSH1 0x40 MLOAD DUP1 DUP4 SUB DUP2 PUSH1 0x0 DUP8 DUP1 EXTCODESIZE ISZERO DUP1 ISZERO PUSH2 0x1D1E JUMPI PUSH1 0x0 DUP1 REVERT JUMPDEST POP GAS CALL ISZERO DUP1 ISZERO PUSH2 0x1D32 JUMPI RETURNDATASIZE PUSH1 0x0 DUP1 RETURNDATACOPY RETURNDATASIZE PUSH1 0x0 REVERT JUMPDEST POP POP PUSH1 0x40 MLOAD PUSH4 0x2F2B9A09 PUSH1 0xE2 SHL DUP2 MSTORE PUSH1 0x4 DUP2 ADD DUP6 SWAP1 MSTORE PUSH1 0x1 PUSH1 0x1 PUSH1 0xA0 SHL SUB PUSH32 0x0 DUP2 AND PUSH1 0x24 DUP4 ADD MSTORE PUSH32 0x0 AND SWAP3 POP PUSH4 0xBCAE6824 SWAP2 POP PUSH1 0x44 ADD PUSH1 0x0 PUSH1 0x40 MLOAD DUP1 DUP4 SUB DUP2 PUSH1 0x0 DUP8 DUP1 EXTCODESIZE ISZERO DUP1 ISZERO PUSH2 0x1DC0 JUMPI PUSH1 0x0 DUP1 REVERT JUMPDEST POP GAS CALL ISZERO DUP1 ISZERO PUSH2 0x1DD4 JUMPI RETURNDATASIZE PUSH1 0x0 DUP1 RETURNDATACOPY RETURNDATASIZE PUSH1 0x0 REVERT JUMPDEST POP POP PUSH1 0x40 MLOAD PUSH4 0xA9059CBB PUSH1 0xE0 SHL DUP2 MSTORE CALLER PUSH1 0x4 DUP3 ADD MSTORE PUSH1 0x24 DUP2 ADD DUP6 SWAP1 MSTORE PUSH32 0x0 PUSH1 0x1 PUSH1 0x1 PUSH1 0xA0 SHL SUB AND SWAP3 POP PUSH4 0xA9059CBB SWAP2 POP PUSH1 0x44 ADD PUSH1 0x20 PUSH1 0x40 MLOAD DUP1 DUP4 SUB DUP2 PUSH1 0x0 DUP8 GAS CALL ISZERO DUP1 ISZERO PUSH2 0x1E45 JUMPI RETURNDATASIZE PUSH1 0x0 DUP1 RETURNDATACOPY RETURNDATASIZE PUSH1 0x0 REVERT JUMPDEST POP POP POP POP PUSH1 0x40 MLOAD RETURNDATASIZE PUSH1 0x1F NOT PUSH1 0x1F DUP3 ADD AND DUP3 ADD DUP1 PUSH1 0x40 MSTORE POP DUP2 ADD SWAP1 PUSH2 0x1E69 SWAP2 SWAP1 PUSH2 0x2DAF JUMP JUMPDEST POP DUP3 PUSH32 0xC4F17A65D54873D57229EA5F59C4DDEC592D095BC17581372676402C8228B9CD PUSH2 0x1E95 DUP6 PUSH2 0x14E6 JUMP JUMPDEST PUSH1 0x40 DUP1 MLOAD SWAP2 DUP3 MSTORE PUSH1 0x20 DUP3 ADD DUP6 SWAP1 MSTORE ADD PUSH1 0x40 MLOAD DUP1 SWAP2 SUB SWAP1 LOG2 POP POP POP JUMP JUMPDEST PUSH1 0x0 DUP2 DUP2 MSTORE PUSH1 0x8 PUSH1 0x20 MSTORE PUSH1 0x40 SWAP1 KECCAK256 SLOAD PUSH1 0xFF AND ISZERO DUP1 ISZERO PUSH2 0x1EDF JUMPI POP PUSH1 0x0 DUP2 DUP2 MSTORE PUSH1 0x9 PUSH1 0x20 MSTORE PUSH1 0x40 SWAP1 KECCAK256 SLOAD PUSH1 0xFF AND ISZERO JUMPDEST DUP1 ISZERO PUSH2 0x1EEF JUMPI POP PUSH2 0x1EEF DUP2 PUSH2 0x6A4 JUMP JUMPDEST PUSH2 0x1F23 JUMPI PUSH1 0x40 MLOAD PUSH3 0x461BCD PUSH1 0xE5 SHL DUP2 MSTORE PUSH1 0x20 PUSH1 0x4 DUP3 ADD MSTORE PUSH1 0x5 PUSH1 0x24 DUP3 ADD MSTORE PUSH5 0x4D41434E41 PUSH1 0xD8 SHL PUSH1 0x44 DUP3 ADD MSTORE PUSH1 0x64 ADD PUSH2 0x843 JUMP JUMPDEST PUSH1 0x0 PUSH2 0x1F2E DUP3 PUSH2 0x14E6 JUMP JUMPDEST SWAP1 POP PUSH1 0x0 PUSH2 0x1F3E PUSH2 0x3E8 DUP4 PUSH2 0x2E01 JUMP JUMPDEST SWAP1 POP PUSH1 0x0 PUSH2 0x1F4C DUP3 DUP5 PUSH2 0x2DEE JUMP JUMPDEST PUSH1 0x0 DUP6 DUP2 MSTORE PUSH1 0x2 PUSH1 0x20 MSTORE PUSH1 0x40 SWAP1 KECCAK256 SLOAD SWAP1 SWAP2 POP PUSH2 0x1F68 SWAP1 DUP3 PUSH2 0x2E01 JUMP JUMPDEST PUSH1 0x0 DUP6 DUP2 MSTORE PUSH1 0x6 PUSH1 0x20 SWAP1 DUP2 MSTORE PUSH1 0x40 DUP1 DUP4 KECCAK256 SWAP4 SWAP1 SWAP4 SSTORE PUSH1 0x4 SWAP1 MSTORE SWAP1 DUP2 KECCAK256 DUP1 SLOAD DUP5 SWAP3 SWAP1 PUSH2 0x1F94 SWAP1 DUP5 SWAP1 PUSH2 0x2DEE JUMP JUMPDEST SWAP1 SWAP2 SSTORE POP POP PUSH1 0x0 DUP5 DUP2 MSTORE PUSH1 0x9 PUSH1 0x20 MSTORE PUSH1 0x40 SWAP1 DUP2 SWAP1 KECCAK256 DUP1 SLOAD PUSH1 0xFF NOT AND PUSH1 0x1 OR SWAP1 SSTORE MLOAD PUSH4 0x2F2B9A09 PUSH1 0xE2 SHL DUP2 MSTORE PUSH1 0x4 DUP2 ADD DUP4 SWAP1 MSTORE PUSH1 0x1 PUSH1 0x1 PUSH1 0xA0 SHL SUB PUSH32 0x0 DUP2 AND PUSH1 0x24 DUP4 ADD MSTORE PUSH32 0x0 AND SWAP1 PUSH4 0xBCAE6824 SWAP1 PUSH1 0x44 ADD PUSH1 0x0 PUSH1 0x40 MLOAD DUP1 DUP4 SUB DUP2 PUSH1 0x0 DUP8 DUP1 EXTCODESIZE ISZERO DUP1 ISZERO PUSH2 0x203C JUMPI PUSH1 0x0 DUP1 REVERT JUMPDEST POP GAS CALL ISZERO DUP1 ISZERO PUSH2 0x2050 JUMPI RETURNDATASIZE PUSH1 0x0 DUP1 RETURNDATACOPY RETURNDATASIZE PUSH1 0x0 REVERT JUMPDEST POP POP PUSH1 0x40 MLOAD PUSH4 0xA9059CBB PUSH1 0xE0 SHL DUP2 MSTORE CALLER PUSH1 0x4 DUP3 ADD MSTORE PUSH1 0x24 DUP2 ADD DUP6 SWAP1 MSTORE PUSH32 0x0 PUSH1 0x1 PUSH1 0x1 PUSH1 0xA0 SHL SUB AND SWAP3 POP PUSH4 0xA9059CBB SWAP2 POP PUSH1 0x44 ADD PUSH1 0x20 PUSH1 0x40 MLOAD DUP1 DUP4 SUB DUP2 PUSH1 0x0 DUP8 GAS CALL ISZERO DUP1 ISZERO PUSH2 0x20C1 JUMPI RETURNDATASIZE PUSH1 0x0 DUP1 RETURNDATACOPY RETURNDATASIZE PUSH1 0x0 REVERT JUMPDEST POP POP POP POP PUSH1 0x40 MLOAD RETURNDATASIZE PUSH1 0x1F NOT PUSH1 0x1F DUP3 ADD AND DUP3 ADD DUP1 PUSH1 0x40 MSTORE POP DUP2 ADD SWAP1 PUSH2 0x20E5 SWAP2 SWAP1 PUSH2 0x2DAF JUMP JUMPDEST POP PUSH1 0x40 DUP1 MLOAD DUP5 DUP2 MSTORE PUSH1 0x20 DUP2 ADD DUP4 SWAP1 MSTORE DUP6 SWAP2 PUSH32 0xAC2EEAF45D1B75AED6B3285CDA3EFB3C382CCE02BA313558BBB90BE57F8843E4 SWAP2 ADD PUSH1 0x40 MLOAD DUP1 SWAP2 SUB SWAP1 LOG2 POP POP POP POP JUMP JUMPDEST CALLER PUSH1 0x1 PUSH1 0x1 PUSH1 0xA0 SHL SUB PUSH32 0x0 AND EQ PUSH2 0x216F JUMPI PUSH1 0x40 MLOAD PUSH3 0x461BCD PUSH1 0xE5 SHL DUP2 MSTORE PUSH1 0x4 ADD PUSH2 0x843 SWAP1 PUSH2 0x2DD1 JUMP JUMPDEST PUSH1 0x0 DUP3 DUP2 MSTORE PUSH1 0x8 PUSH1 0x20 MSTORE PUSH1 0x40 SWAP1 KECCAK256 SLOAD PUSH1 0xFF AND DUP1 PUSH2 0x2190 JUMPI POP PUSH2 0x2190 DUP3 PUSH2 0xD98 JUMP JUMPDEST ISZERO DUP1 ISZERO PUSH2 0x21AC JUMPI POP PUSH1 0x0 DUP3 DUP2 MSTORE PUSH1 0x9 PUSH1 0x20 MSTORE PUSH1 0x40 SWAP1 KECCAK256 SLOAD PUSH1 0xFF AND ISZERO JUMPDEST PUSH2 0x21DE JUMPI PUSH1 0x40 MLOAD PUSH3 0x461BCD PUSH1 0xE5 SHL DUP2 MSTORE PUSH1 0x20 PUSH1 0x4 DUP3 ADD MSTORE PUSH1 0x3 PUSH1 0x24 DUP3 ADD MSTORE PUSH3 0x444E41 PUSH1 0xE8 SHL PUSH1 0x44 DUP3 ADD MSTORE PUSH1 0x64 ADD PUSH2 0x843 JUMP JUMPDEST PUSH1 0x0 DUP3 DUP2 MSTORE PUSH1 0x4 PUSH1 0x20 MSTORE PUSH1 0x40 DUP2 KECCAK256 DUP1 SLOAD DUP4 SWAP3 SWAP1 PUSH2 0x21FC SWAP1 DUP5 SWAP1 PUSH2 0x2E23 JUMP JUMPDEST SWAP1 SWAP2 SSTORE POP POP PUSH1 0x40 MLOAD PUSH4 0x83883FE3 PUSH1 0xE0 SHL DUP2 MSTORE PUSH1 0x4 DUP2 ADD DUP3 SWAP1 MSTORE PUSH1 0x1 PUSH1 0x1 PUSH1 0xA0 SHL SUB PUSH32 0x0 DUP2 AND PUSH1 0x24 DUP4 ADD MSTORE PUSH32 0x0 AND SWAP1 PUSH4 0x83883FE3 SWAP1 PUSH1 0x44 ADD PUSH1 0x0 PUSH1 0x40 MLOAD DUP1 DUP4 SUB DUP2 PUSH1 0x0 DUP8 DUP1 EXTCODESIZE ISZERO DUP1 ISZERO PUSH2 0x228B JUMPI PUSH1 0x0 DUP1 REVERT JUMPDEST POP GAS CALL ISZERO DUP1 ISZERO PUSH2 0x229F JUMPI RETURNDATASIZE PUSH1 0x0 DUP1 RETURNDATACOPY RETURNDATASIZE PUSH1 0x0 REVERT JUMPDEST POP POP PUSH1 0x40 MLOAD PUSH4 0x23B872DD PUSH1 0xE0 SHL DUP2 MSTORE CALLER PUSH1 0x4 DUP3 ADD MSTORE ADDRESS PUSH1 0x24 DUP3 ADD MSTORE PUSH1 0x44 DUP2 ADD DUP5 SWAP1 MSTORE PUSH32 0x0 PUSH1 0x1 PUSH1 0x1 PUSH1 0xA0 SHL SUB AND SWAP3 POP PUSH4 0x23B872DD SWAP2 POP PUSH1 0x64 ADD PUSH2 0xAB8 JUMP JUMPDEST PUSH1 0x40 MLOAD PUSH4 0x70A08231 PUSH1 0xE0 SHL DUP2 MSTORE ADDRESS PUSH1 0x4 DUP3 ADD MSTORE PUSH1 0x0 SWAP1 PUSH32 0x0 PUSH1 0x1 PUSH1 0x1 PUSH1 0xA0 SHL SUB AND SWAP1 PUSH4 0x70A08231 SWAP1 PUSH1 0x24 ADD PUSH1 0x20 PUSH1 0x40 MLOAD DUP1 DUP4 SUB DUP2 DUP7 GAS STATICCALL ISZERO DUP1 ISZERO PUSH2 0x2363 JUMPI RETURNDATASIZE PUSH1 0x0 DUP1 RETURNDATACOPY RETURNDATASIZE PUSH1 0x0 REVERT JUMPDEST POP POP POP POP PUSH1 0x40 MLOAD RETURNDATASIZE PUSH1 0x1F NOT PUSH1 0x1F DUP3 ADD AND DUP3 ADD DUP1 PUSH1 0x40 MSTORE POP DUP2 ADD SWAP1 PUSH2 0x2387 SWAP2 SWAP1 PUSH2 0x2E36 JUMP JUMPDEST SWAP1 POP SWAP1 JUMP JUMPDEST CALLER PUSH1 0x1 PUSH1 0x1 PUSH1 0xA0 SHL SUB PUSH32 0x0 AND EQ PUSH2 0x23D4 JUMPI PUSH1 0x40 MLOAD PUSH3 0x461BCD PUSH1 0xE5 SHL DUP2 MSTORE PUSH1 0x4 ADD PUSH2 0x843 SWAP1 PUSH2 0x2DD1 JUMP JUMPDEST PUSH1 0x0 DUP2 DUP2 MSTORE PUSH1 0x9 PUSH1 0x20 MSTORE PUSH1 0x40 SWAP1 KECCAK256 SLOAD PUSH1 0xFF AND DUP1 ISZERO PUSH2 0x240A JUMPI POP PUSH1 0x0 DUP2 DUP2 MSTORE PUSH1 0x2 PUSH1 0x20 SWAP1 DUP2 MSTORE PUSH1 0x40 DUP1 DUP4 KECCAK256 SLOAD PUSH1 0x3 SWAP1 SWAP3 MSTORE SWAP1 SWAP2 KECCAK256 SLOAD EQ JUMPDEST PUSH2 0x243C JUMPI PUSH1 0x40 MLOAD PUSH3 0x461BCD PUSH1 0xE5 SHL DUP2 MSTORE PUSH1 0x20 PUSH1 0x4 DUP3 ADD MSTORE PUSH1 0x3 PUSH1 0x24 DUP3 ADD MSTORE PUSH3 0x574E41 PUSH1 0xE8 SHL PUSH1 0x44 DUP3 ADD MSTORE PUSH1 0x64 ADD PUSH2 0x843 JUMP JUMPDEST PUSH1 0x0 DUP2 DUP2 MSTORE PUSH1 0x4 PUSH1 0x20 MSTORE PUSH1 0x40 SWAP1 KECCAK256 SLOAD PUSH2 0x247D JUMPI PUSH1 0x40 MLOAD PUSH3 0x461BCD PUSH1 0xE5 SHL DUP2 MSTORE PUSH1 0x20 PUSH1 0x4 DUP3 ADD MSTORE PUSH1 0x3 PUSH1 0x24 DUP3 ADD MSTORE PUSH3 0x574645 PUSH1 0xE8 SHL PUSH1 0x44 DUP3 ADD MSTORE PUSH1 0x64 ADD PUSH2 0x843 JUMP JUMPDEST PUSH1 0x0 DUP2 DUP2 MSTORE PUSH1 0x4 PUSH1 0x20 DUP2 SWAP1 MSTORE PUSH1 0x40 DUP1 DUP4 KECCAK256 DUP1 SLOAD SWAP4 SWAP1 SSTORE MLOAD PUSH4 0x2F2B9A09 PUSH1 0xE2 SHL DUP2 MSTORE SWAP1 DUP2 ADD DUP3 SWAP1 MSTORE PUSH1 0x1 PUSH1 0x1 PUSH1 0xA0 SHL SUB PUSH32 0x0 DUP2 AND PUSH1 0x24 DUP4 ADD MSTORE PUSH32 0x0 AND SWAP1 PUSH4 0xBCAE6824 SWAP1 PUSH1 0x44 ADD PUSH2 0xA37 JUMP JUMPDEST PUSH1 0x0 CALLER PUSH1 0x1 PUSH1 0x1 PUSH1 0xA0 SHL SUB PUSH32 0x0 AND EQ PUSH2 0x254F JUMPI PUSH1 0x40 MLOAD PUSH3 0x461BCD PUSH1 0xE5 SHL DUP2 MSTORE PUSH1 0x4 ADD PUSH2 0x843 SWAP1 PUSH2 0x2DD1 JUMP JUMPDEST DUP8 DUP8 LT PUSH2 0x2588 JUMPI PUSH1 0x40 MLOAD PUSH3 0x461BCD PUSH1 0xE5 SHL DUP2 MSTORE PUSH1 0x20 PUSH1 0x4 DUP3 ADD MSTORE PUSH1 0x7 PUSH1 0x24 DUP3 ADD MSTORE PUSH7 0x4D505147544251 PUSH1 0xC8 SHL PUSH1 0x44 DUP3 ADD MSTORE PUSH1 0x64 ADD PUSH2 0x843 JUMP JUMPDEST PUSH1 0xB4 DUP5 LT ISZERO PUSH2 0x25C2 JUMPI PUSH1 0x40 MLOAD PUSH3 0x461BCD PUSH1 0xE5 SHL DUP2 MSTORE PUSH1 0x4 ADD PUSH2 0x843 SWAP1 PUSH1 0x20 DUP1 DUP3 MSTORE PUSH1 0x4 SWAP1 DUP3 ADD MSTORE PUSH4 0x4442364D PUSH1 0xE0 SHL PUSH1 0x40 DUP3 ADD MSTORE PUSH1 0x60 ADD SWAP1 JUMP JUMPDEST PUSH1 0x7 DUP4 GT ISZERO PUSH2 0x25FB JUMPI PUSH1 0x40 MLOAD PUSH3 0x461BCD PUSH1 0xE5 SHL DUP2 MSTORE PUSH1 0x20 PUSH1 0x4 DUP3 ADD MSTORE PUSH1 0x5 PUSH1 0x24 DUP3 ADD MSTORE PUSH5 0x1051104DD1 PUSH1 0xDA SHL PUSH1 0x44 DUP3 ADD MSTORE PUSH1 0x64 ADD PUSH2 0x843 JUMP JUMPDEST PUSH2 0x2609 PUSH1 0x0 DUP1 SLOAD PUSH1 0x1 ADD SWAP1 SSTORE JUMP JUMPDEST PUSH1 0x0 PUSH1 0x40 MLOAD DUP1 PUSH1 0x60 ADD PUSH1 0x40 MSTORE DUP1 DUP8 DUP2 MSTORE PUSH1 0x20 ADD PUSH32 0x0 PUSH1 0x1 PUSH1 0x1 PUSH1 0xA0 SHL SUB AND DUP2 MSTORE PUSH1 0x20 ADD CALLER PUSH1 0x1 PUSH1 0x1 PUSH1 0xA0 SHL SUB AND DUP2 MSTORE POP SWAP1 POP PUSH1 0x0 PUSH1 0x40 MLOAD DUP1 PUSH2 0x120 ADD PUSH1 0x40 MSTORE DUP1 DUP10 DUP2 MSTORE PUSH1 0x20 ADD TIMESTAMP DUP2 MSTORE PUSH1 0x20 ADD DUP8 PUSH3 0x15180 PUSH2 0x2683 SWAP2 SWAP1 PUSH2 0x2D98 JUMP JUMPDEST PUSH2 0x268D SWAP1 TIMESTAMP PUSH2 0x2E23 JUMP JUMPDEST DUP2 MSTORE PUSH1 0x20 ADD PUSH2 0x269F DUP8 PUSH3 0x15180 PUSH2 0x2D98 JUMP JUMPDEST PUSH2 0x26A9 SWAP1 TIMESTAMP PUSH2 0x2E23 JUMP JUMPDEST DUP2 MSTORE PUSH1 0x20 ADD DUP7 DUP2 MSTORE PUSH1 0x20 ADD DUP8 DUP2 MSTORE PUSH1 0x20 ADD DUP12 DUP2 MSTORE PUSH1 0x20 ADD DUP11 DUP2 MSTORE PUSH1 0x20 ADD DUP6 DUP2 MSTORE POP SWAP1 POP PUSH32 0x0 PUSH1 0x1 PUSH1 0x1 PUSH1 0xA0 SHL SUB AND PUSH4 0x4196AFD4 ADDRESS DUP13 DUP5 DUP7 PUSH1 0x40 MLOAD DUP6 PUSH4 0xFFFFFFFF AND PUSH1 0xE0 SHL DUP2 MSTORE PUSH1 0x4 ADD PUSH2 0x271E SWAP5 SWAP4 SWAP3 SWAP2 SWAP1 PUSH2 0x2ED6 JUMP JUMPDEST PUSH1 0x20 PUSH1 0x40 MLOAD DUP1 DUP4 SUB DUP2 PUSH1 0x0 DUP8 GAS CALL ISZERO DUP1 ISZERO PUSH2 0x273D JUMPI RETURNDATASIZE PUSH1 0x0 DUP1 RETURNDATACOPY RETURNDATASIZE PUSH1 0x0 REVERT JUMPDEST POP POP POP POP PUSH1 0x40 MLOAD RETURNDATASIZE PUSH1 0x1F NOT PUSH1 0x1F DUP3 ADD AND DUP3 ADD DUP1 PUSH1 0x40 MSTORE POP DUP2 ADD SWAP1 PUSH2 0x2761 SWAP2 SWAP1 PUSH2 0x2E36 JUMP JUMPDEST PUSH1 0x1 DUP1 SLOAD DUP1 DUP3 ADD DUP3 SSTORE PUSH32 0xB10E2D527612073B26EECDFD717E6A320CF44B4AFAC2B0732D9FCBE2B7FA0CF6 ADD DUP3 SWAP1 SSTORE PUSH1 0x0 DUP3 DUP2 MSTORE PUSH1 0x7 PUSH1 0x20 MSTORE PUSH1 0x40 SWAP1 DUP2 SWAP1 KECCAK256 DUP1 SLOAD PUSH1 0xFF NOT AND DUP4 OR SWAP1 SSTORE MLOAD PUSH4 0xB54CB165 PUSH1 0xE0 SHL DUP2 MSTORE SWAP2 SWAP5 POP PUSH1 0x1 PUSH1 0x1 PUSH1 0xA0 SHL SUB PUSH32 0x0 AND SWAP2 PUSH4 0xB54CB165 SWAP2 PUSH2 0x27F8 SWAP2 PUSH1 0x4 ADD SWAP1 DUP2 MSTORE PUSH1 0x20 ADD SWAP1 JUMP JUMPDEST PUSH1 0x0 PUSH1 0x40 MLOAD DUP1 DUP4 SUB DUP2 PUSH1 0x0 DUP8 DUP1 EXTCODESIZE ISZERO DUP1 ISZERO PUSH2 0x2812 JUMPI PUSH1 0x0 DUP1 REVERT JUMPDEST POP GAS CALL ISZERO DUP1 ISZERO PUSH2 0x2826 JUMPI RETURNDATASIZE PUSH1 0x0 DUP1 RETURNDATACOPY RETURNDATASIZE PUSH1 0x0 REVERT JUMPDEST POP POP PUSH1 0x40 MLOAD PUSH4 0x2FA9D73D PUSH1 0xE2 SHL DUP2 MSTORE PUSH1 0x1 PUSH1 0x1 PUSH1 0xA0 SHL SUB PUSH32 0x0 DUP2 AND PUSH1 0x4 DUP4 ADD MSTORE PUSH1 0x1 PUSH1 0x24 DUP4 ADD MSTORE PUSH32 0x0 AND SWAP3 POP PUSH4 0xBEA75CF4 SWAP2 POP PUSH1 0x44 ADD PUSH1 0x0 PUSH1 0x40 MLOAD DUP1 DUP4 SUB DUP2 PUSH1 0x0 DUP8 DUP1 EXTCODESIZE ISZERO DUP1 ISZERO PUSH2 0x28B4 JUMPI PUSH1 0x0 DUP1 REVERT JUMPDEST POP GAS CALL ISZERO DUP1 ISZERO PUSH2 0x28C8 JUMPI RETURNDATASIZE PUSH1 0x0 DUP1 RETURNDATACOPY RETURNDATASIZE PUSH1 0x0 REVERT JUMPDEST POP POP POP POP DUP3 PUSH32 0xF73E436C94925E1E8B2F0B16DE0A2C56AEA7FB27878F7815811BC05BC6C335E8 DUP12 DUP11 DUP8 DUP11 PUSH3 0x15180 PUSH2 0x2900 SWAP2 SWAP1 PUSH2 0x2D98 JUMP JUMPDEST PUSH2 0x290A SWAP1 TIMESTAMP PUSH2 0x2E23 JUMP JUMPDEST PUSH1 0x40 DUP1 MLOAD SWAP5 DUP6 MSTORE PUSH1 0x20 DUP6 ADD SWAP4 SWAP1 SWAP4 MSTORE SWAP2 DUP4 ADD MSTORE PUSH1 0x60 DUP3 ADD MSTORE PUSH1 0x80 ADD PUSH1 0x40 MLOAD DUP1 SWAP2 SUB SWAP1 LOG2 POP POP SWAP8 SWAP7 POP POP POP POP POP POP POP JUMP JUMPDEST PUSH1 0x0 PUSH1 0x20 DUP3 DUP5 SUB SLT ISZERO PUSH2 0x294C JUMPI PUSH1 0x0 DUP1 REVERT JUMPDEST DUP2 CALLDATALOAD PUSH1 0x1 PUSH1 0x1 PUSH1 0xE0 SHL SUB NOT DUP2 AND DUP2 EQ PUSH2 0x2964 JUMPI PUSH1 0x0 DUP1 REVERT JUMPDEST SWAP4 SWAP3 POP POP POP JUMP JUMPDEST PUSH1 0x0 PUSH1 0x20 DUP3 DUP5 SUB SLT ISZERO PUSH2 0x297D JUMPI PUSH1 0x0 DUP1 REVERT JUMPDEST POP CALLDATALOAD SWAP2 SWAP1 POP JUMP JUMPDEST PUSH1 0x20 DUP1 DUP3 MSTORE DUP3 MLOAD DUP3 DUP3 ADD DUP2 SWAP1 MSTORE PUSH1 0x0 SWAP2 SWAP1 DUP5 DUP3 ADD SWAP1 PUSH1 0x40 DUP6 ADD SWAP1 DUP5 JUMPDEST DUP2 DUP2 LT ISZERO PUSH2 0x29BC JUMPI DUP4 MLOAD DUP4 MSTORE SWAP3 DUP5 ADD SWAP3 SWAP2 DUP5 ADD SWAP2 PUSH1 0x1 ADD PUSH2 0x29A0 JUMP JUMPDEST POP SWAP1 SWAP7 SWAP6 POP POP POP POP POP POP JUMP JUMPDEST PUSH1 0x0 DUP1 PUSH1 0x40 DUP4 DUP6 SUB SLT ISZERO PUSH2 0x29DB JUMPI PUSH1 0x0 DUP1 REVERT JUMPDEST POP POP DUP1 CALLDATALOAD SWAP3 PUSH1 0x20 SWAP1 SWAP2 ADD CALLDATALOAD SWAP2 POP JUMP JUMPDEST DUP1 CALLDATALOAD PUSH1 0x1 PUSH1 0x1 PUSH1 0xA0 SHL SUB DUP2 AND DUP2 EQ PUSH2 0x2A01 JUMPI PUSH1 0x0 DUP1 REVERT JUMPDEST SWAP2 SWAP1 POP JUMP JUMPDEST PUSH4 0x4E487B71 PUSH1 0xE0 SHL PUSH1 0x0 MSTORE PUSH1 0x41 PUSH1 0x4 MSTORE PUSH1 0x24 PUSH1 0x0 REVERT JUMPDEST PUSH1 0x40 MLOAD PUSH2 0x120 DUP2 ADD PUSH8 0xFFFFFFFFFFFFFFFF DUP2 GT DUP3 DUP3 LT OR ISZERO PUSH2 0x2A40 JUMPI PUSH2 0x2A40 PUSH2 0x2A06 JUMP JUMPDEST PUSH1 0x40 MSTORE SWAP1 JUMP JUMPDEST PUSH1 0x40 MLOAD PUSH1 0x1F DUP3 ADD PUSH1 0x1F NOT AND DUP2 ADD PUSH8 0xFFFFFFFFFFFFFFFF DUP2 GT DUP3 DUP3 LT OR ISZERO PUSH2 0x2A6F JUMPI PUSH2 0x2A6F PUSH2 0x2A06 JUMP JUMPDEST PUSH1 0x40 MSTORE SWAP2 SWAP1 POP JUMP JUMPDEST PUSH1 0x0 DUP3 PUSH1 0x1F DUP4 ADD SLT PUSH2 0x2A88 JUMPI PUSH1 0x0 DUP1 REVERT JUMPDEST DUP2 CALLDATALOAD PUSH1 0x20 PUSH8 0xFFFFFFFFFFFFFFFF DUP3 GT ISZERO PUSH2 0x2AA4 JUMPI PUSH2 0x2AA4 PUSH2 0x2A06 JUMP JUMPDEST DUP2 PUSH1 0x5 SHL PUSH2 0x2AB3 DUP3 DUP3 ADD PUSH2 0x2A46 JUMP JUMPDEST SWAP3 DUP4 MSTORE DUP5 DUP2 ADD DUP3 ADD SWAP3 DUP3 DUP2 ADD SWAP1 DUP8 DUP6 GT ISZERO PUSH2 0x2ACD JUMPI PUSH1 0x0 DUP1 REVERT JUMPDEST DUP4 DUP8 ADD SWAP3 POP JUMPDEST DUP5 DUP4 LT ISZERO PUSH2 0x2AEC JUMPI DUP3 CALLDATALOAD DUP3 MSTORE SWAP2 DUP4 ADD SWAP2 SWAP1 DUP4 ADD SWAP1 PUSH2 0x2AD3 JUMP JUMPDEST SWAP8 SWAP7 POP POP POP POP POP POP POP JUMP JUMPDEST PUSH1 0x0 PUSH8 0xFFFFFFFFFFFFFFFF DUP4 GT ISZERO PUSH2 0x2B11 JUMPI PUSH2 0x2B11 PUSH2 0x2A06 JUMP JUMPDEST PUSH2 0x2B24 PUSH1 0x1F DUP5 ADD PUSH1 0x1F NOT AND PUSH1 0x20 ADD PUSH2 0x2A46 JUMP JUMPDEST SWAP1 POP DUP3 DUP2 MSTORE DUP4 DUP4 DUP4 ADD GT ISZERO PUSH2 0x2B38 JUMPI PUSH1 0x0 DUP1 REVERT JUMPDEST DUP3 DUP3 PUSH1 0x20 DUP4 ADD CALLDATACOPY PUSH1 0x0 PUSH1 0x20 DUP5 DUP4 ADD ADD MSTORE SWAP4 SWAP3 POP POP POP JUMP JUMPDEST PUSH1 0x0 DUP3 PUSH1 0x1F DUP4 ADD SLT PUSH2 0x2B60 JUMPI PUSH1 0x0 DUP1 REVERT JUMPDEST PUSH2 0x2964 DUP4 DUP4 CALLDATALOAD PUSH1 0x20 DUP6 ADD PUSH2 0x2AF7 JUMP JUMPDEST PUSH1 0x0 DUP1 PUSH1 0x0 DUP1 PUSH1 0x0 PUSH1 0xA0 DUP7 DUP9 SUB SLT ISZERO PUSH2 0x2B87 JUMPI PUSH1 0x0 DUP1 REVERT JUMPDEST PUSH2 0x2B90 DUP7 PUSH2 0x29EA JUMP JUMPDEST SWAP5 POP PUSH2 0x2B9E PUSH1 0x20 DUP8 ADD PUSH2 0x29EA JUMP JUMPDEST SWAP4 POP PUSH1 0x40 DUP7 ADD CALLDATALOAD PUSH8 0xFFFFFFFFFFFFFFFF DUP1 DUP3 GT ISZERO PUSH2 0x2BBB JUMPI PUSH1 0x0 DUP1 REVERT JUMPDEST PUSH2 0x2BC7 DUP10 DUP4 DUP11 ADD PUSH2 0x2A77 JUMP JUMPDEST SWAP5 POP PUSH1 0x60 DUP9 ADD CALLDATALOAD SWAP2 POP DUP1 DUP3 GT ISZERO PUSH2 0x2BDD JUMPI PUSH1 0x0 DUP1 REVERT JUMPDEST PUSH2 0x2BE9 DUP10 DUP4 DUP11 ADD PUSH2 0x2A77 JUMP JUMPDEST SWAP4 POP PUSH1 0x80 DUP9 ADD CALLDATALOAD SWAP2 POP DUP1 DUP3 GT ISZERO PUSH2 0x2BFF JUMPI PUSH1 0x0 DUP1 REVERT JUMPDEST POP PUSH2 0x2C0C DUP9 DUP3 DUP10 ADD PUSH2 0x2B4F JUMP JUMPDEST SWAP2 POP POP SWAP3 SWAP6 POP SWAP3 SWAP6 SWAP1 SWAP4 POP JUMP JUMPDEST PUSH1 0x0 DUP1 PUSH1 0x0 DUP1 PUSH1 0x0 PUSH1 0xA0 DUP7 DUP9 SUB SLT ISZERO PUSH2 0x2C31 JUMPI PUSH1 0x0 DUP1 REVERT JUMPDEST PUSH2 0x2C3A DUP7 PUSH2 0x29EA JUMP JUMPDEST SWAP5 POP PUSH2 0x2C48 PUSH1 0x20 DUP8 ADD PUSH2 0x29EA JUMP JUMPDEST SWAP4 POP PUSH1 0x40 DUP7 ADD CALLDATALOAD SWAP3 POP PUSH1 0x60 DUP7 ADD CALLDATALOAD SWAP2 POP PUSH1 0x80 DUP7 ADD CALLDATALOAD PUSH8 0xFFFFFFFFFFFFFFFF DUP2 GT ISZERO PUSH2 0x2C72 JUMPI PUSH1 0x0 DUP1 REVERT JUMPDEST PUSH2 0x2C0C DUP9 DUP3 DUP10 ADD PUSH2 0x2B4F JUMP JUMPDEST PUSH1 0x0 DUP1 PUSH1 0x0 DUP1 PUSH1 0x0 DUP1 PUSH1 0x0 PUSH1 0xE0 DUP9 DUP11 SUB SLT ISZERO PUSH2 0x2C99 JUMPI PUSH1 0x0 DUP1 REVERT JUMPDEST DUP8 CALLDATALOAD SWAP7 POP PUSH1 0x20 DUP9 ADD CALLDATALOAD SWAP6 POP PUSH1 0x40 DUP9 ADD CALLDATALOAD SWAP5 POP PUSH1 0x60 DUP9 ADD CALLDATALOAD PUSH8 0xFFFFFFFFFFFFFFFF DUP2 GT ISZERO PUSH2 0x2CC5 JUMPI PUSH1 0x0 DUP1 REVERT JUMPDEST DUP9 ADD PUSH1 0x1F DUP2 ADD DUP11 SGT PUSH2 0x2CD6 JUMPI PUSH1 0x0 DUP1 REVERT JUMPDEST PUSH2 0x2CE5 DUP11 DUP3 CALLDATALOAD PUSH1 0x20 DUP5 ADD PUSH2 0x2AF7 JUMP JUMPDEST SWAP8 SWAP11 SWAP7 SWAP10 POP SWAP5 SWAP8 PUSH1 0x80 DUP2 ADD CALLDATALOAD SWAP7 PUSH1 0xA0 DUP3 ADD CALLDATALOAD SWAP7 POP PUSH1 0xC0 SWAP1 SWAP2 ADD CALLDATALOAD SWAP5 POP SWAP3 POP POP POP JUMP JUMPDEST PUSH1 0x0 PUSH2 0x120 DUP3 DUP5 SUB SLT ISZERO PUSH2 0x2D1A JUMPI PUSH1 0x0 DUP1 REVERT JUMPDEST PUSH2 0x2D22 PUSH2 0x2A1C JUMP JUMPDEST DUP3 MLOAD DUP2 MSTORE PUSH1 0x20 DUP4 ADD MLOAD PUSH1 0x20 DUP3 ADD MSTORE PUSH1 0x40 DUP4 ADD MLOAD PUSH1 0x40 DUP3 ADD MSTORE PUSH1 0x60 DUP4 ADD MLOAD PUSH1 0x60 DUP3 ADD MSTORE PUSH1 0x80 DUP4 ADD MLOAD PUSH1 0x80 DUP3 ADD MSTORE PUSH1 0xA0 DUP4 ADD MLOAD PUSH1 0xA0 DUP3 ADD MSTORE PUSH1 0xC0 DUP4 ADD MLOAD PUSH1 0xC0 DUP3 ADD MSTORE PUSH1 0xE0 DUP4 ADD MLOAD PUSH1 0xE0 DUP3 ADD MSTORE PUSH2 0x100 DUP1 DUP5 ADD MLOAD DUP2 DUP4 ADD MSTORE POP DUP1 SWAP2 POP POP SWAP3 SWAP2 POP POP JUMP JUMPDEST PUSH4 0x4E487B71 PUSH1 0xE0 SHL PUSH1 0x0 MSTORE PUSH1 0x11 PUSH1 0x4 MSTORE PUSH1 0x24 PUSH1 0x0 REVERT JUMPDEST DUP1 DUP3 MUL DUP2 ISZERO DUP3 DUP3 DIV DUP5 EQ OR PUSH2 0x4F7 JUMPI PUSH2 0x4F7 PUSH2 0x2D82 JUMP JUMPDEST PUSH1 0x0 PUSH1 0x20 DUP3 DUP5 SUB SLT ISZERO PUSH2 0x2DC1 JUMPI PUSH1 0x0 DUP1 REVERT JUMPDEST DUP2 MLOAD DUP1 ISZERO ISZERO DUP2 EQ PUSH2 0x2964 JUMPI PUSH1 0x0 DUP1 REVERT JUMPDEST PUSH1 0x20 DUP1 DUP3 MSTORE PUSH1 0x3 SWAP1 DUP3 ADD MSTORE PUSH3 0x4E544F PUSH1 0xE8 SHL PUSH1 0x40 DUP3 ADD MSTORE PUSH1 0x60 ADD SWAP1 JUMP JUMPDEST DUP2 DUP2 SUB DUP2 DUP2 GT ISZERO PUSH2 0x4F7 JUMPI PUSH2 0x4F7 PUSH2 0x2D82 JUMP JUMPDEST PUSH1 0x0 DUP3 PUSH2 0x2E1E JUMPI PUSH4 0x4E487B71 PUSH1 0xE0 SHL PUSH1 0x0 MSTORE PUSH1 0x12 PUSH1 0x4 MSTORE PUSH1 0x24 PUSH1 0x0 REVERT JUMPDEST POP DIV SWAP1 JUMP JUMPDEST DUP1 DUP3 ADD DUP1 DUP3 GT ISZERO PUSH2 0x4F7 JUMPI PUSH2 0x4F7 PUSH2 0x2D82 JUMP JUMPDEST PUSH1 0x0 PUSH1 0x20 DUP3 DUP5 SUB SLT ISZERO PUSH2 0x2E48 JUMPI PUSH1 0x0 DUP1 REVERT JUMPDEST POP MLOAD SWAP2 SWAP1 POP JUMP JUMPDEST PUSH1 0x0 DUP2 MLOAD PUSH1 0x60 DUP5 MSTORE DUP1 MLOAD DUP1 PUSH1 0x60 DUP7 ADD MSTORE PUSH1 0x0 JUMPDEST DUP2 DUP2 LT ISZERO PUSH2 0x2E7F JUMPI PUSH1 0x20 DUP2 DUP5 ADD DUP2 ADD MLOAD PUSH1 0x80 DUP9 DUP5 ADD ADD MSTORE ADD PUSH2 0x2E62 JUMP JUMPDEST POP PUSH1 0x0 PUSH1 0x80 DUP3 DUP8 ADD ADD MSTORE PUSH1 0x20 DUP5 ADD MLOAD SWAP2 POP PUSH2 0x2EA5 PUSH1 0x20 DUP7 ADD DUP4 PUSH1 0x1 PUSH1 0x1 PUSH1 0xA0 SHL SUB AND SWAP1 MSTORE JUMP JUMPDEST PUSH1 0x40 DUP5 ADD MLOAD SWAP2 POP PUSH2 0x2EC1 PUSH1 0x40 DUP7 ADD DUP4 PUSH1 0x1 PUSH1 0x1 PUSH1 0xA0 SHL SUB AND SWAP1 MSTORE JUMP JUMPDEST PUSH1 0x1F ADD PUSH1 0x1F NOT AND SWAP4 SWAP1 SWAP4 ADD PUSH1 0x80 ADD SWAP4 SWAP3 POP POP POP JUMP JUMPDEST PUSH1 0x0 PUSH2 0x180 PUSH1 0x1 DUP1 PUSH1 0xA0 SHL SUB DUP8 AND DUP4 MSTORE DUP6 PUSH1 0x20 DUP5 ADD MSTORE DUP5 MLOAD PUSH1 0x40 DUP5 ADD MSTORE PUSH1 0x20 DUP6 ADD MLOAD PUSH1 0x60 DUP5 ADD MSTORE PUSH1 0x40 DUP6 ADD MLOAD PUSH1 0x80 DUP5 ADD MSTORE PUSH1 0x60 DUP6 ADD MLOAD PUSH1 0xA0 DUP5 ADD MSTORE PUSH1 0x80 DUP6 ADD MLOAD PUSH1 0xC0 DUP5 ADD MSTORE PUSH1 0xA0 DUP6 ADD MLOAD PUSH1 0xE0 DUP5 ADD MSTORE PUSH1 0xC0 DUP6 ADD MLOAD PUSH2 0x100 DUP2 DUP2 DUP7 ADD MSTORE PUSH1 0xE0 DUP8 ADD MLOAD PUSH2 0x120 DUP7 ADD MSTORE DUP1 DUP8 ADD MLOAD PUSH2 0x140 DUP7 ADD MSTORE POP POP DUP1 PUSH2 0x160 DUP5 ADD MSTORE PUSH2 0x2AEC DUP2 DUP5 ADD DUP6 PUSH2 0x2E4F JUMP INVALID LOG2 PUSH5 0x6970667358 0x22 SLT KECCAK256 0x27 JUMPDEST 0xD9 0xEC SELFBALANCE SELFBALANCE PUSH19 0x71E45496D932F6E027C3B4DEC63F8FF0914093 DUP9 0x25 0x2D 0xC1 0x28 SLOAD PUSH5 0x736F6C6343 STOP ADDMOD GT STOP CALLER "
				},
				"gasEstimates": {
					"creation": {
						"codeDepositCost": "2435600",
						"executionCost": "infinite",
						"totalCost": "infinite"
					},
					"external": {
						"baseToken()": "infinite",
						"bonds()": "infinite",
						"deposit(uint256,uint256)": "infinite",
						"designatedTokenPool(uint256)": "2504",
						"isCanceled(uint256)": "infinite",
						"isCompleted(uint256)": "2485",
						"isCompletedInTheory(uint256)": "infinite",
						"isDefaulted(uint256)": "2529",
						"isDefaultedInTheory(uint256)": "infinite",
						"isFulfilled(uint256)": "infinite",
						"isFullyRedeemed(uint256)": "4695",
						"isIssuedByFactory(uint256)": "2528",
						"issue(uint256,uint256,uint256,string,uint256,uint256,uint256)": "infinite",
						"markAsCompleted(uint256)": "infinite",
						"markAsDefaulted(uint256)": "infinite",
						"onERC1155BatchReceived(address,address,uint256[],uint256[],bytes)": "infinite",
						"onERC1155Received(address,address,uint256,uint256,bytes)": "infinite",
						"owner()": "infinite",
						"poolAmount(uint256)": "2507",
						"preMaturityDefault(uint256)": "infinite",
						"principal(uint256)": "infinite",
						"principalWithInterest(uint256)": "infinite",
						"purchase(uint256,uint256)": "infinite",
						"redeem(uint256,uint256)": "infinite",
						"remainingQuantity(uint256)": "infinite",
						"supportsInterface(bytes4)": "473",
						"tvl()": "infinite",
						"withdraw(uint256,uint256)": "infinite",
						"withdrawExcess(uint256)": "infinite"
					}
				},
				"methodIdentifiers": {
					"baseToken()": "c55dae63",
					"bonds()": "135c404e",
					"deposit(uint256,uint256)": "e2bbb158",
					"designatedTokenPool(uint256)": "f0d8100a",
					"isCanceled(uint256)": "39e3af9b",
					"isCompleted(uint256)": "7a41984b",
					"isCompletedInTheory(uint256)": "3097afb8",
					"isDefaulted(uint256)": "2f3ad61f",
					"isDefaultedInTheory(uint256)": "6ff80d93",
					"isFulfilled(uint256)": "09149020",
					"isFullyRedeemed(uint256)": "549493bb",
					"isIssuedByFactory(uint256)": "b1a1a165",
					"issue(uint256,uint256,uint256,string,uint256,uint256,uint256)": "fcbc669a",
					"markAsCompleted(uint256)": "c0a6026c",
					"markAsDefaulted(uint256)": "a8743022",
					"onERC1155BatchReceived(address,address,uint256[],uint256[],bytes)": "bc197c81",
					"onERC1155Received(address,address,uint256,uint256,bytes)": "f23a6e61",
					"owner()": "8da5cb5b",
					"poolAmount(uint256)": "02159497",
					"preMaturityDefault(uint256)": "6567dc4d",
					"principal(uint256)": "14f29493",
					"principalWithInterest(uint256)": "77e2a08b",
					"purchase(uint256,uint256)": "70876c98",
					"redeem(uint256,uint256)": "7cbc2373",
					"remainingQuantity(uint256)": "932a8de0",
					"supportsInterface(bytes4)": "01ffc9a7",
					"tvl()": "e5328e06",
					"withdraw(uint256,uint256)": "441a3e70",
					"withdrawExcess(uint256)": "e755ddd7"
				}
			},
			"storageLayout": {
				"storage": [
					{
						"astId": 329,
						"contract": "contracts/factories/BondFactory.sol:BondFactory",
						"label": "_numBonds",
						"offset": 0,
						"slot": "0",
						"type": "t_struct(Counter)209_storage"
					},
					{
						"astId": 346,
						"contract": "contracts/factories/BondFactory.sol:BondFactory",
						"label": "_bonds",
						"offset": 0,
						"slot": "1",
						"type": "t_array(t_uint256)dyn_storage"
					},
					{
						"astId": 350,
						"contract": "contracts/factories/BondFactory.sol:BondFactory",
						"label": "_purchasedQuantity",
						"offset": 0,
						"slot": "2",
						"type": "t_mapping(t_uint256,t_uint256)"
					},
					{
						"astId": 354,
						"contract": "contracts/factories/BondFactory.sol:BondFactory",
						"label": "_redeemedQuantity",
						"offset": 0,
						"slot": "3",
						"type": "t_mapping(t_uint256,t_uint256)"
					},
					{
						"astId": 358,
						"contract": "contracts/factories/BondFactory.sol:BondFactory",
						"label": "_designatedTokenPool",
						"offset": 0,
						"slot": "4",
						"type": "t_mapping(t_uint256,t_uint256)"
					},
					{
						"astId": 362,
						"contract": "contracts/factories/BondFactory.sol:BondFactory",
						"label": "_tokenAmountPerBondAfterDefault",
						"offset": 0,
						"slot": "5",
						"type": "t_mapping(t_uint256,t_uint256)"
					},
					{
						"astId": 366,
						"contract": "contracts/factories/BondFactory.sol:BondFactory",
						"label": "_tokenAmountPerBondAfterComplete",
						"offset": 0,
						"slot": "6",
						"type": "t_mapping(t_uint256,t_uint256)"
					},
					{
						"astId": 370,
						"contract": "contracts/factories/BondFactory.sol:BondFactory",
						"label": "_isIssuedByFactory",
						"offset": 0,
						"slot": "7",
						"type": "t_mapping(t_uint256,t_bool)"
					},
					{
						"astId": 374,
						"contract": "contracts/factories/BondFactory.sol:BondFactory",
						"label": "_isDefaulted",
						"offset": 0,
						"slot": "8",
						"type": "t_mapping(t_uint256,t_bool)"
					},
					{
						"astId": 378,
						"contract": "contracts/factories/BondFactory.sol:BondFactory",
						"label": "_isCompleted",
						"offset": 0,
						"slot": "9",
						"type": "t_mapping(t_uint256,t_bool)"
					}
				],
				"types": {
					"t_array(t_uint256)dyn_storage": {
						"base": "t_uint256",
						"encoding": "dynamic_array",
						"label": "uint256[]",
						"numberOfBytes": "32"
					},
					"t_bool": {
						"encoding": "inplace",
						"label": "bool",
						"numberOfBytes": "1"
					},
					"t_mapping(t_uint256,t_bool)": {
						"encoding": "mapping",
						"key": "t_uint256",
						"label": "mapping(uint256 => bool)",
						"numberOfBytes": "32",
						"value": "t_bool"
					},
					"t_mapping(t_uint256,t_uint256)": {
						"encoding": "mapping",
						"key": "t_uint256",
						"label": "mapping(uint256 => uint256)",
						"numberOfBytes": "32",
						"value": "t_uint256"
					},
					"t_struct(Counter)209_storage": {
						"encoding": "inplace",
						"label": "struct Counters.Counter",
						"members": [
							{
								"astId": 208,
								"contract": "contracts/factories/BondFactory.sol:BondFactory",
								"label": "_value",
								"offset": 0,
								"slot": "0",
								"type": "t_uint256"
							}
						],
						"numberOfBytes": "32"
					},
					"t_uint256": {
						"encoding": "inplace",
						"label": "uint256",
						"numberOfBytes": "32"
					}
				}
			},
			"userdoc": {
				"kind": "user",
				"methods": {},
				"version": 1
			}
		}
	}
}