{
  "_format": "hh-sol-artifact-1",
  "contractName": "BondDB",
  "sourceName": "contracts/BondDB.sol",
  "abi": [
    {
      "inputs": [],
      "stateMutability": "nonpayable",
      "type": "constructor"
    },
    {
      "inputs": [
        {
          "internalType": "uint256",
          "name": "amount",
          "type": "uint256"
        },
        {
          "internalType": "address",
          "name": "token",
          "type": "address"
        }
      ],
      "name": "decrementTVLByToken",
      "outputs": [],
      "stateMutability": "nonpayable",
      "type": "function"
    },
    {
      "inputs": [
        {
          "internalType": "address",
          "name": "company",
          "type": "address"
        },
        {
          "internalType": "address",
          "name": "token",
          "type": "address"
        }
      ],
      "name": "fundsRaisedByCompanyAndToken",
      "outputs": [
        {
          "internalType": "uint256",
          "name": "",
          "type": "uint256"
        }
      ],
      "stateMutability": "view",
      "type": "function"
    },
    {
      "inputs": [
        {
          "internalType": "address",
          "name": "company",
          "type": "address"
        },
        {
          "internalType": "address",
          "name": "token",
          "type": "address"
        },
        {
          "internalType": "uint256",
          "name": "category",
          "type": "uint256"
        }
      ],
      "name": "fundsRaisedByCompanyAndTokenAndCategory",
      "outputs": [
        {
          "internalType": "uint256",
          "name": "",
          "type": "uint256"
        }
      ],
      "stateMutability": "view",
      "type": "function"
    },
    {
      "inputs": [
        {
          "internalType": "address",
          "name": "token",
          "type": "address"
        }
      ],
      "name": "fundsRaisedByToken",
      "outputs": [
        {
          "internalType": "uint256",
          "name": "",
          "type": "uint256"
        }
      ],
      "stateMutability": "view",
      "type": "function"
    },
    {
      "inputs": [
        {
          "internalType": "address",
          "name": "token",
          "type": "address"
        },
        {
          "internalType": "uint256",
          "name": "category",
          "type": "uint256"
        }
      ],
      "name": "fundsRaisedByTokenAndCategory",
      "outputs": [
        {
          "internalType": "uint256",
          "name": "",
          "type": "uint256"
        }
      ],
      "stateMutability": "view",
      "type": "function"
    },
    {
      "inputs": [
        {
          "internalType": "uint256",
          "name": "amount",
          "type": "uint256"
        },
        {
          "internalType": "address",
          "name": "company",
          "type": "address"
        },
        {
          "internalType": "address",
          "name": "token",
          "type": "address"
        }
      ],
      "name": "incrementFundsRaisedByCompanyAndToken",
      "outputs": [],
      "stateMutability": "nonpayable",
      "type": "function"
    },
    {
      "inputs": [
        {
          "internalType": "uint256",
          "name": "amount",
          "type": "uint256"
        },
        {
          "internalType": "address",
          "name": "company",
          "type": "address"
        },
        {
          "internalType": "address",
          "name": "token",
          "type": "address"
        },
        {
          "internalType": "uint256",
          "name": "category",
          "type": "uint256"
        }
      ],
      "name": "incrementFundsRaisedByCompanyAndTokenAndCategory",
      "outputs": [],
      "stateMutability": "nonpayable",
      "type": "function"
    },
    {
      "inputs": [
        {
          "internalType": "uint256",
          "name": "amount",
          "type": "uint256"
        },
        {
          "internalType": "address",
          "name": "token",
          "type": "address"
        }
      ],
      "name": "incrementFundsRaisedByToken",
      "outputs": [],
      "stateMutability": "nonpayable",
      "type": "function"
    },
    {
      "inputs": [
        {
          "internalType": "uint256",
          "name": "amount",
          "type": "uint256"
        },
        {
          "internalType": "address",
          "name": "token",
          "type": "address"
        },
        {
          "internalType": "uint256",
          "name": "category",
          "type": "uint256"
        }
      ],
      "name": "incrementFundsRaisedByTokenAndCategory",
      "outputs": [],
      "stateMutability": "nonpayable",
      "type": "function"
    },
    {
      "inputs": [
        {
          "internalType": "uint256",
          "name": "category",
          "type": "uint256"
        }
      ],
      "name": "incrementNumberOfIssuedBondsByCategory",
      "outputs": [],
      "stateMutability": "nonpayable",
      "type": "function"
    },
    {
      "inputs": [
        {
          "internalType": "address",
          "name": "company",
          "type": "address"
        },
        {
          "internalType": "uint256",
          "name": "category",
          "type": "uint256"
        }
      ],
      "name": "incrementNumberOfIssuedBondsByCompanyAndCategory",
      "outputs": [],
      "stateMutability": "nonpayable",
      "type": "function"
    },
    {
      "inputs": [
        {
          "internalType": "address",
          "name": "company",
          "type": "address"
        }
      ],
      "name": "incrementNumberOfTimesDefaultedByCompany",
      "outputs": [],
      "stateMutability": "nonpayable",
      "type": "function"
    },
    {
      "inputs": [
        {
          "internalType": "address",
          "name": "company",
          "type": "address"
        },
        {
          "internalType": "uint256",
          "name": "category",
          "type": "uint256"
        }
      ],
      "name": "incrementNumberOfTimesDefaultedByCompanyAndCategory",
      "outputs": [],
      "stateMutability": "nonpayable",
      "type": "function"
    },
    {
      "inputs": [
        {
          "internalType": "uint256",
          "name": "amount",
          "type": "uint256"
        },
        {
          "internalType": "address",
          "name": "token",
          "type": "address"
        }
      ],
      "name": "incrementTVLByToken",
      "outputs": [],
      "stateMutability": "nonpayable",
      "type": "function"
    },
    {
      "inputs": [
        {
          "internalType": "address",
          "name": "account",
          "type": "address"
        }
      ],
      "name": "isFactory",
      "outputs": [
        {
          "internalType": "bool",
          "name": "",
          "type": "bool"
        }
      ],
      "stateMutability": "view",
      "type": "function"
    },
    {
      "inputs": [
        {
          "internalType": "address",
          "name": "account",
          "type": "address"
        }
      ],
      "name": "isPeriphery",
      "outputs": [
        {
          "internalType": "bool",
          "name": "",
          "type": "bool"
        }
      ],
      "stateMutability": "view",
      "type": "function"
    },
    {
      "inputs": [
        {
          "internalType": "uint256",
          "name": "category",
          "type": "uint256"
        }
      ],
      "name": "numberOfIssuedBondsByCategory",
      "outputs": [
        {
          "internalType": "uint256",
          "name": "",
          "type": "uint256"
        }
      ],
      "stateMutability": "view",
      "type": "function"
    },
    {
      "inputs": [
        {
          "internalType": "address",
          "name": "company",
          "type": "address"
        },
        {
          "internalType": "uint256",
          "name": "category",
          "type": "uint256"
        }
      ],
      "name": "numberOfIssuedBondsByCompanyAndCategory",
      "outputs": [
        {
          "internalType": "uint256",
          "name": "",
          "type": "uint256"
        }
      ],
      "stateMutability": "view",
      "type": "function"
    },
    {
      "inputs": [
        {
          "internalType": "address",
          "name": "company",
          "type": "address"
        }
      ],
      "name": "numberOfTimesDefaultedByCompany",
      "outputs": [
        {
          "internalType": "uint256",
          "name": "",
          "type": "uint256"
        }
      ],
      "stateMutability": "view",
      "type": "function"
    },
    {
      "inputs": [
        {
          "internalType": "address",
          "name": "company",
          "type": "address"
        },
        {
          "internalType": "uint256",
          "name": "category",
          "type": "uint256"
        }
      ],
      "name": "numberOfTimesDefaultedByCompanyAndCategory",
      "outputs": [
        {
          "internalType": "uint256",
          "name": "",
          "type": "uint256"
        }
      ],
      "stateMutability": "view",
      "type": "function"
    },
    {
      "inputs": [],
      "name": "owner",
      "outputs": [
        {
          "internalType": "address",
          "name": "",
          "type": "address"
        }
      ],
      "stateMutability": "view",
      "type": "function"
    },
    {
      "inputs": [
        {
          "internalType": "address",
          "name": "factory",
          "type": "address"
        }
      ],
      "name": "registerFactory",
      "outputs": [],
      "stateMutability": "nonpayable",
      "type": "function"
    },
    {
      "inputs": [
        {
          "internalType": "address[]",
          "name": "peripheries",
          "type": "address[]"
        }
      ],
      "name": "registerPeriphery",
      "outputs": [],
      "stateMutability": "nonpayable",
      "type": "function"
    },
    {
      "inputs": [
        {
          "internalType": "address",
          "name": "token",
          "type": "address"
        }
      ],
      "name": "tvlByToken",
      "outputs": [
        {
          "internalType": "uint256",
          "name": "",
          "type": "uint256"
        }
      ],
      "stateMutability": "view",
      "type": "function"
    }
  ],
  "bytecode": "0x60a060405234801561001057600080fd5b503373ffffffffffffffffffffffffffffffffffffffff1660808173ffffffffffffffffffffffffffffffffffffffff168152505060805161208561006760003960008181610bb8015261172901526120856000f3fe608060405234801561001057600080fd5b50600436106101585760003560e01c806394fb7881116100c3578063bcae68241161007c578063bcae68241461041f578063bea75cf41461043b578063d050a7c814610457578063daa3029814610473578063dae382d6146104a3578063e4cdc1ad146104bf57610158565b806394fb78811461033b578063b0b4dfaa1461036b578063b54cb16514610387578063b8c2e4f3146103a3578063ba6b8973146103bf578063babeac63146103ef57610158565b80637db79a3d116101155780637db79a3d146102555780637edd4d4d146102715780638052ce11146102a157806383883fe3146102d15780638da5cb5b146102ed5780638fcfa7751461030b57610158565b80630f04ba671461015d57806336721cd41461018d578063576ff163146101bd57806359ed43e2146101d9578063783ff1f1146102095780637c1edb9d14610225575b600080fd5b610177600480360381019061017291906118a4565b6104db565b60405161018491906118ec565b60405180910390f35b6101a760048036038101906101a291906118a4565b610531565b6040516101b49190611920565b60405180910390f35b6101d760048036038101906101d29190611967565b61057a565b005b6101f360048036038101906101ee91906119a7565b6106b3565b6040516102009190611920565b60405180910390f35b610223600480360381019061021e91906118a4565b61070e565b005b61023f600480360381019061023a91906119a7565b6107f3565b60405161024c9190611920565b60405180910390f35b61026f600480360381019061026a91906119e7565b61084e565b005b61028b60048036038101906102869190611a4e565b6109d7565b6040516102989190611920565b60405180910390f35b6102bb60048036038101906102b69190611a8e565b610a5e565b6040516102c89190611920565b60405180910390f35b6102eb60048036038101906102e69190611967565b610a7b565b005b6102f5610bb4565b6040516103029190611aca565b60405180910390f35b610325600480360381019061032091906118a4565b610bdc565b60405161033291906118ec565b60405180910390f35b610355600480360381019061035091906118a4565b610c31565b6040516103629190611920565b60405180910390f35b61038560048036038101906103809190611ae5565b610c7a565b005b6103a1600480360381019061039c9190611a8e565b610dc5565b005b6103bd60048036038101906103b89190611b38565b610ed2565b005b6103d960048036038101906103d491906119a7565b611049565b6040516103e69190611920565b60405180910390f35b610409600480360381019061040491906118a4565b6110a4565b6040516104169190611920565b60405180910390f35b61043960048036038101906104349190611967565b6110ed565b005b610455600480360381019061045091906119a7565b6112a8565b005b610471600480360381019061046c91906119a7565b6113f3565b005b61048d60048036038101906104889190611b8b565b61153e565b60405161049a9190611920565b60405180910390f35b6104bd60048036038101906104b891906118a4565b6115d7565b005b6104d960048036038101906104d49190611d37565b611710565b005b6000600160008373ffffffffffffffffffffffffffffffffffffffff1673ffffffffffffffffffffffffffffffffffffffff16815260200190815260200160002060009054906101000a900460ff169050919050565b6000600260008373ffffffffffffffffffffffffffffffffffffffff1673ffffffffffffffffffffffffffffffffffffffff168152602001908152602001600020549050919050565b600160003373ffffffffffffffffffffffffffffffffffffffff1673ffffffffffffffffffffffffffffffffffffffff16815260200190815260200160002060009054906101000a900460ff168061061a57506000803373ffffffffffffffffffffffffffffffffffffffff1673ffffffffffffffffffffffffffffffffffffffff16815260200190815260200160002060009054906101000a900460ff165b610659576040517f08c379a000000000000000000000000000000000000000000000000000000000815260040161065090611ddd565b60405180910390fd5b81600260008373ffffffffffffffffffffffffffffffffffffffff1673ffffffffffffffffffffffffffffffffffffffff16815260200190815260200160002060008282546106a89190611e2c565b925050819055505050565b6000600960008473ffffffffffffffffffffffffffffffffffffffff1673ffffffffffffffffffffffffffffffffffffffff168152602001908152602001600020600083815260200190815260200160002054905092915050565b6000803373ffffffffffffffffffffffffffffffffffffffff1673ffffffffffffffffffffffffffffffffffffffff16815260200190815260200160002060009054906101000a900460ff16610799576040517f08c379a000000000000000000000000000000000000000000000000000000000815260040161079090611eac565b60405180910390fd5b60018060008373ffffffffffffffffffffffffffffffffffffffff1673ffffffffffffffffffffffffffffffffffffffff16815260200190815260200160002060006101000a81548160ff02191690831515021790555050565b6000600360008473ffffffffffffffffffffffffffffffffffffffff1673ffffffffffffffffffffffffffffffffffffffff168152602001908152602001600020600083815260200190815260200160002054905092915050565b600160003373ffffffffffffffffffffffffffffffffffffffff1673ffffffffffffffffffffffffffffffffffffffff16815260200190815260200160002060009054906101000a900460ff16806108ee57506000803373ffffffffffffffffffffffffffffffffffffffff1673ffffffffffffffffffffffffffffffffffffffff16815260200190815260200160002060009054906101000a900460ff165b61092d576040517f08c379a000000000000000000000000000000000000000000000000000000000815260040161092490611ddd565b60405180910390fd5b83600560008573ffffffffffffffffffffffffffffffffffffffff1673ffffffffffffffffffffffffffffffffffffffff16815260200190815260200160002060008473ffffffffffffffffffffffffffffffffffffffff1673ffffffffffffffffffffffffffffffffffffffff168152602001908152602001600020600083815260200190815260200160002060008282546109ca9190611e2c565b9250508190555050505050565b6000600460008473ffffffffffffffffffffffffffffffffffffffff1673ffffffffffffffffffffffffffffffffffffffff16815260200190815260200160002060008373ffffffffffffffffffffffffffffffffffffffff1673ffffffffffffffffffffffffffffffffffffffff16815260200190815260200160002054905092915050565b600060066000838152602001908152602001600020549050919050565b600160003373ffffffffffffffffffffffffffffffffffffffff1673ffffffffffffffffffffffffffffffffffffffff16815260200190815260200160002060009054906101000a900460ff1680610b1b57506000803373ffffffffffffffffffffffffffffffffffffffff1673ffffffffffffffffffffffffffffffffffffffff16815260200190815260200160002060009054906101000a900460ff165b610b5a576040517f08c379a0000000000000000000000000000000000000000000000000000000008152600401610b5190611ddd565b60405180910390fd5b81600a60008373ffffffffffffffffffffffffffffffffffffffff1673ffffffffffffffffffffffffffffffffffffffff1681526020019081526020016000206000828254610ba99190611e2c565b925050819055505050565b60007f0000000000000000000000000000000000000000000000000000000000000000905090565b60008060008373ffffffffffffffffffffffffffffffffffffffff1673ffffffffffffffffffffffffffffffffffffffff16815260200190815260200160002060009054906101000a900460ff169050919050565b6000600860008373ffffffffffffffffffffffffffffffffffffffff1673ffffffffffffffffffffffffffffffffffffffff168152602001908152602001600020549050919050565b600160003373ffffffffffffffffffffffffffffffffffffffff1673ffffffffffffffffffffffffffffffffffffffff16815260200190815260200160002060009054906101000a900460ff1680610d1a57506000803373ffffffffffffffffffffffffffffffffffffffff1673ffffffffffffffffffffffffffffffffffffffff16815260200190815260200160002060009054906101000a900460ff165b610d59576040517f08c379a0000000000000000000000000000000000000000000000000000000008152600401610d5090611ddd565b60405180910390fd5b82600360008473ffffffffffffffffffffffffffffffffffffffff1673ffffffffffffffffffffffffffffffffffffffff16815260200190815260200160002060008381526020019081526020016000206000828254610db99190611e2c565b92505081905550505050565b600160003373ffffffffffffffffffffffffffffffffffffffff1673ffffffffffffffffffffffffffffffffffffffff16815260200190815260200160002060009054906101000a900460ff1680610e6557506000803373ffffffffffffffffffffffffffffffffffffffff1673ffffffffffffffffffffffffffffffffffffffff16815260200190815260200160002060009054906101000a900460ff165b610ea4576040517f08c379a0000000000000000000000000000000000000000000000000000000008152600401610e9b90611ddd565b60405180910390fd5b6001600660008381526020019081526020016000206000828254610ec89190611e2c565b9250508190555050565b600160003373ffffffffffffffffffffffffffffffffffffffff1673ffffffffffffffffffffffffffffffffffffffff16815260200190815260200160002060009054906101000a900460ff1680610f7257506000803373ffffffffffffffffffffffffffffffffffffffff1673ffffffffffffffffffffffffffffffffffffffff16815260200190815260200160002060009054906101000a900460ff165b610fb1576040517f08c379a0000000000000000000000000000000000000000000000000000000008152600401610fa890611ddd565b60405180910390fd5b82600460008473ffffffffffffffffffffffffffffffffffffffff1673ffffffffffffffffffffffffffffffffffffffff16815260200190815260200160002060008373ffffffffffffffffffffffffffffffffffffffff1673ffffffffffffffffffffffffffffffffffffffff168152602001908152602001600020600082825461103d9190611e2c565b92505081905550505050565b6000600760008473ffffffffffffffffffffffffffffffffffffffff1673ffffffffffffffffffffffffffffffffffffffff168152602001908152602001600020600083815260200190815260200160002054905092915050565b6000600a60008373ffffffffffffffffffffffffffffffffffffffff1673ffffffffffffffffffffffffffffffffffffffff168152602001908152602001600020549050919050565b600160003373ffffffffffffffffffffffffffffffffffffffff1673ffffffffffffffffffffffffffffffffffffffff16815260200190815260200160002060009054906101000a900460ff168061118d57506000803373ffffffffffffffffffffffffffffffffffffffff1673ffffffffffffffffffffffffffffffffffffffff16815260200190815260200160002060009054906101000a900460ff165b6111cc576040517f08c379a00000000000000000000000000000000000000000000000000000000081526004016111c390611ddd565b60405180910390fd5b81600a60008373ffffffffffffffffffffffffffffffffffffffff1673ffffffffffffffffffffffffffffffffffffffff16815260200190815260200160002054101561124e576040517f08c379a000000000000000000000000000000000000000000000000000000000815260040161124590611f18565b60405180910390fd5b81600a60008373ffffffffffffffffffffffffffffffffffffffff1673ffffffffffffffffffffffffffffffffffffffff168152602001908152602001600020600082825461129d9190611f38565b925050819055505050565b600160003373ffffffffffffffffffffffffffffffffffffffff1673ffffffffffffffffffffffffffffffffffffffff16815260200190815260200160002060009054906101000a900460ff168061134857506000803373ffffffffffffffffffffffffffffffffffffffff1673ffffffffffffffffffffffffffffffffffffffff16815260200190815260200160002060009054906101000a900460ff165b611387576040517f08c379a000000000000000000000000000000000000000000000000000000000815260040161137e90611ddd565b60405180910390fd5b6001600760008473ffffffffffffffffffffffffffffffffffffffff1673ffffffffffffffffffffffffffffffffffffffff168152602001908152602001600020600083815260200190815260200160002060008282546113e89190611e2c565b925050819055505050565b600160003373ffffffffffffffffffffffffffffffffffffffff1673ffffffffffffffffffffffffffffffffffffffff16815260200190815260200160002060009054906101000a900460ff168061149357506000803373ffffffffffffffffffffffffffffffffffffffff1673ffffffffffffffffffffffffffffffffffffffff16815260200190815260200160002060009054906101000a900460ff165b6114d2576040517f08c379a00000000000000000000000000000000000000000000000000000000081526004016114c990611ddd565b60405180910390fd5b6001600960008473ffffffffffffffffffffffffffffffffffffffff1673ffffffffffffffffffffffffffffffffffffffff168152602001908152602001600020600083815260200190815260200160002060008282546115339190611e2c565b925050819055505050565b6000600560008573ffffffffffffffffffffffffffffffffffffffff1673ffffffffffffffffffffffffffffffffffffffff16815260200190815260200160002060008473ffffffffffffffffffffffffffffffffffffffff1673ffffffffffffffffffffffffffffffffffffffff16815260200190815260200160002060008381526020019081526020016000205490509392505050565b600160003373ffffffffffffffffffffffffffffffffffffffff1673ffffffffffffffffffffffffffffffffffffffff16815260200190815260200160002060009054906101000a900460ff168061167757506000803373ffffffffffffffffffffffffffffffffffffffff1673ffffffffffffffffffffffffffffffffffffffff16815260200190815260200160002060009054906101000a900460ff165b6116b6576040517f08c379a00000000000000000000000000000000000000000000000000000000081526004016116ad90611ddd565b60405180910390fd5b6001600860008373ffffffffffffffffffffffffffffffffffffffff1673ffffffffffffffffffffffffffffffffffffffff16815260200190815260200160002060008282546117069190611e2c565b9250508190555050565b3373ffffffffffffffffffffffffffffffffffffffff167f000000000000000000000000000000000000000000000000000000000000000073ffffffffffffffffffffffffffffffffffffffff161461179e576040517f08c379a000000000000000000000000000000000000000000000000000000000815260040161179590611fb8565b60405180910390fd5b60005b815181101561182e5760016000808484815181106117c2576117c1611fd8565b5b602002602001015173ffffffffffffffffffffffffffffffffffffffff1673ffffffffffffffffffffffffffffffffffffffff16815260200190815260200160002060006101000a81548160ff021916908315150217905550808061182690612007565b9150506117a1565b5050565b6000604051905090565b600080fd5b600080fd5b600073ffffffffffffffffffffffffffffffffffffffff82169050919050565b600061187182611846565b9050919050565b61188181611866565b811461188c57600080fd5b50565b60008135905061189e81611878565b92915050565b6000602082840312156118ba576118b961183c565b5b60006118c88482850161188f565b91505092915050565b60008115159050919050565b6118e6816118d1565b82525050565b600060208201905061190160008301846118dd565b92915050565b6000819050919050565b61191a81611907565b82525050565b60006020820190506119356000830184611911565b92915050565b61194481611907565b811461194f57600080fd5b50565b6000813590506119618161193b565b92915050565b6000806040838503121561197e5761197d61183c565b5b600061198c85828601611952565b925050602061199d8582860161188f565b9150509250929050565b600080604083850312156119be576119bd61183c565b5b60006119cc8582860161188f565b92505060206119dd85828601611952565b9150509250929050565b60008060008060808587031215611a0157611a0061183c565b5b6000611a0f87828801611952565b9450506020611a208782880161188f565b9350506040611a318782880161188f565b9250506060611a4287828801611952565b91505092959194509250565b60008060408385031215611a6557611a6461183c565b5b6000611a738582860161188f565b9250506020611a848582860161188f565b9150509250929050565b600060208284031215611aa457611aa361183c565b5b6000611ab284828501611952565b91505092915050565b611ac481611866565b82525050565b6000602082019050611adf6000830184611abb565b92915050565b600080600060608486031215611afe57611afd61183c565b5b6000611b0c86828701611952565b9350506020611b1d8682870161188f565b9250506040611b2e86828701611952565b9150509250925092565b600080600060608486031215611b5157611b5061183c565b5b6000611b5f86828701611952565b9350506020611b708682870161188f565b9250506040611b818682870161188f565b9150509250925092565b600080600060608486031215611ba457611ba361183c565b5b6000611bb28682870161188f565b9350506020611bc38682870161188f565b9250506040611bd486828701611952565b9150509250925092565b600080fd5b6000601f19601f8301169050919050565b7f4e487b7100000000000000000000000000000000000000000000000000000000600052604160045260246000fd5b611c2c82611be3565b810181811067ffffffffffffffff82111715611c4b57611c4a611bf4565b5b80604052505050565b6000611c5e611832565b9050611c6a8282611c23565b919050565b600067ffffffffffffffff821115611c8a57611c89611bf4565b5b602082029050602081019050919050565b600080fd5b6000611cb3611cae84611c6f565b611c54565b90508083825260208201905060208402830185811115611cd657611cd5611c9b565b5b835b81811015611cff5780611ceb888261188f565b845260208401935050602081019050611cd8565b5050509392505050565b600082601f830112611d1e57611d1d611bde565b5b8135611d2e848260208601611ca0565b91505092915050565b600060208284031215611d4d57611d4c61183c565b5b600082013567ffffffffffffffff811115611d6b57611d6a611841565b5b611d7784828501611d09565b91505092915050565b600082825260208201905092915050565b7f4e41504f46000000000000000000000000000000000000000000000000000000600082015250565b6000611dc7600583611d80565b9150611dd282611d91565b602082019050919050565b60006020820190508181036000830152611df681611dba565b9050919050565b7f4e487b7100000000000000000000000000000000000000000000000000000000600052601160045260246000fd5b6000611e3782611907565b9150611e4283611907565b9250828201905080821115611e5a57611e59611dfd565b5b92915050565b7f4e41500000000000000000000000000000000000000000000000000000000000600082015250565b6000611e96600383611d80565b9150611ea182611e60565b602082019050919050565b60006020820190508181036000830152611ec581611e89565b9050919050565b7f414554564c000000000000000000000000000000000000000000000000000000600082015250565b6000611f02600583611d80565b9150611f0d82611ecc565b602082019050919050565b60006020820190508181036000830152611f3181611ef5565b9050919050565b6000611f4382611907565b9150611f4e83611907565b9250828203905081811115611f6657611f65611dfd565b5b92915050565b7f4e544f0000000000000000000000000000000000000000000000000000000000600082015250565b6000611fa2600383611d80565b9150611fad82611f6c565b602082019050919050565b60006020820190508181036000830152611fd181611f95565b9050919050565b7f4e487b7100000000000000000000000000000000000000000000000000000000600052603260045260246000fd5b600061201282611907565b91507fffffffffffffffffffffffffffffffffffffffffffffffffffffffffffffffff820361204457612043611dfd565b5b60018201905091905056fea2646970667358221220388c2e2c6bd6603822551139baf2e9974502eec22c15f9c2d249987c70618bc264736f6c63430008110033",
  "linkReferences": {},
  "deployedLinkReferences": {}
}