{
  "_format": "hh-sol-artifact-1",
  "contractName": "BondDB",
  "sourceName": "contracts/BondDB.sol",
  "abi": [
    {
      "inputs": [],
      "stateMutability": "nonpayable",
      "type": "constructor"
    },
    {
      "inputs": [
        {
          "internalType": "address",
          "name": "company",
          "type": "address"
        },
        {
          "internalType": "address",
          "name": "token",
          "type": "address"
        }
      ],
      "name": "fundsRaisedByCompanyAndToken",
      "outputs": [
        {
          "internalType": "uint256",
          "name": "",
          "type": "uint256"
        }
      ],
      "stateMutability": "view",
      "type": "function"
    },
    {
      "inputs": [
        {
          "internalType": "address",
          "name": "company",
          "type": "address"
        },
        {
          "internalType": "address",
          "name": "token",
          "type": "address"
        },
        {
          "internalType": "uint256",
          "name": "category",
          "type": "uint256"
        }
      ],
      "name": "fundsRaisedByCompanyAndTokenAndCategory",
      "outputs": [
        {
          "internalType": "uint256",
          "name": "",
          "type": "uint256"
        }
      ],
      "stateMutability": "view",
      "type": "function"
    },
    {
      "inputs": [
        {
          "internalType": "address",
          "name": "token",
          "type": "address"
        }
      ],
      "name": "fundsRaisedByToken",
      "outputs": [
        {
          "internalType": "uint256",
          "name": "",
          "type": "uint256"
        }
      ],
      "stateMutability": "view",
      "type": "function"
    },
    {
      "inputs": [
        {
          "internalType": "address",
          "name": "token",
          "type": "address"
        },
        {
          "internalType": "uint256",
          "name": "category",
          "type": "uint256"
        }
      ],
      "name": "fundsRaisedByTokenAndCategory",
      "outputs": [
        {
          "internalType": "uint256",
          "name": "",
          "type": "uint256"
        }
      ],
      "stateMutability": "view",
      "type": "function"
    },
    {
      "inputs": [
        {
          "internalType": "uint256",
          "name": "amount",
          "type": "uint256"
        },
        {
          "internalType": "address",
          "name": "company",
          "type": "address"
        },
        {
          "internalType": "address",
          "name": "token",
          "type": "address"
        }
      ],
      "name": "incrementFundsRaisedByCompanyAndToken",
      "outputs": [],
      "stateMutability": "nonpayable",
      "type": "function"
    },
    {
      "inputs": [
        {
          "internalType": "uint256",
          "name": "amount",
          "type": "uint256"
        },
        {
          "internalType": "address",
          "name": "company",
          "type": "address"
        },
        {
          "internalType": "address",
          "name": "token",
          "type": "address"
        },
        {
          "internalType": "uint256",
          "name": "category",
          "type": "uint256"
        }
      ],
      "name": "incrementFundsRaisedByCompanyAndTokenAndCategory",
      "outputs": [],
      "stateMutability": "nonpayable",
      "type": "function"
    },
    {
      "inputs": [
        {
          "internalType": "uint256",
          "name": "amount",
          "type": "uint256"
        },
        {
          "internalType": "address",
          "name": "token",
          "type": "address"
        }
      ],
      "name": "incrementFundsRaisedByToken",
      "outputs": [],
      "stateMutability": "nonpayable",
      "type": "function"
    },
    {
      "inputs": [
        {
          "internalType": "uint256",
          "name": "amount",
          "type": "uint256"
        },
        {
          "internalType": "address",
          "name": "token",
          "type": "address"
        },
        {
          "internalType": "uint256",
          "name": "category",
          "type": "uint256"
        }
      ],
      "name": "incrementFundsRaisedByTokenAndCategory",
      "outputs": [],
      "stateMutability": "nonpayable",
      "type": "function"
    },
    {
      "inputs": [
        {
          "internalType": "uint256",
          "name": "category",
          "type": "uint256"
        }
      ],
      "name": "incrementNumberOfIssuedBondsByCategory",
      "outputs": [],
      "stateMutability": "nonpayable",
      "type": "function"
    },
    {
      "inputs": [
        {
          "internalType": "address",
          "name": "company",
          "type": "address"
        },
        {
          "internalType": "uint256",
          "name": "category",
          "type": "uint256"
        }
      ],
      "name": "incrementNumberOfIssuedBondsByCompanyAndCategory",
      "outputs": [],
      "stateMutability": "nonpayable",
      "type": "function"
    },
    {
      "inputs": [
        {
          "internalType": "address",
          "name": "company",
          "type": "address"
        }
      ],
      "name": "incrementNumberOfTimesDefaultedByCompany",
      "outputs": [],
      "stateMutability": "nonpayable",
      "type": "function"
    },
    {
      "inputs": [
        {
          "internalType": "address",
          "name": "company",
          "type": "address"
        },
        {
          "internalType": "uint256",
          "name": "category",
          "type": "uint256"
        }
      ],
      "name": "incrementNumberOfTimesDefaultedByCompanyAndCategory",
      "outputs": [],
      "stateMutability": "nonpayable",
      "type": "function"
    },
    {
      "inputs": [
        {
          "internalType": "address",
          "name": "account",
          "type": "address"
        }
      ],
      "name": "isFactory",
      "outputs": [
        {
          "internalType": "bool",
          "name": "",
          "type": "bool"
        }
      ],
      "stateMutability": "view",
      "type": "function"
    },
    {
      "inputs": [
        {
          "internalType": "address",
          "name": "account",
          "type": "address"
        }
      ],
      "name": "isPeriphery",
      "outputs": [
        {
          "internalType": "bool",
          "name": "",
          "type": "bool"
        }
      ],
      "stateMutability": "view",
      "type": "function"
    },
    {
      "inputs": [
        {
          "internalType": "uint256",
          "name": "category",
          "type": "uint256"
        }
      ],
      "name": "numberOfIssuedBondsByCategory",
      "outputs": [
        {
          "internalType": "uint256",
          "name": "",
          "type": "uint256"
        }
      ],
      "stateMutability": "view",
      "type": "function"
    },
    {
      "inputs": [
        {
          "internalType": "address",
          "name": "company",
          "type": "address"
        },
        {
          "internalType": "uint256",
          "name": "category",
          "type": "uint256"
        }
      ],
      "name": "numberOfIssuedBondsByCompanyAndCategory",
      "outputs": [
        {
          "internalType": "uint256",
          "name": "",
          "type": "uint256"
        }
      ],
      "stateMutability": "view",
      "type": "function"
    },
    {
      "inputs": [
        {
          "internalType": "address",
          "name": "company",
          "type": "address"
        }
      ],
      "name": "numberOfTimesDefaultedByCompany",
      "outputs": [
        {
          "internalType": "uint256",
          "name": "",
          "type": "uint256"
        }
      ],
      "stateMutability": "view",
      "type": "function"
    },
    {
      "inputs": [
        {
          "internalType": "address",
          "name": "company",
          "type": "address"
        },
        {
          "internalType": "uint256",
          "name": "category",
          "type": "uint256"
        }
      ],
      "name": "numberOfTimesDefaultedByCompanyAndCategory",
      "outputs": [
        {
          "internalType": "uint256",
          "name": "",
          "type": "uint256"
        }
      ],
      "stateMutability": "view",
      "type": "function"
    },
    {
      "inputs": [],
      "name": "owner",
      "outputs": [
        {
          "internalType": "address",
          "name": "",
          "type": "address"
        }
      ],
      "stateMutability": "view",
      "type": "function"
    },
    {
      "inputs": [
        {
          "internalType": "address",
          "name": "factory",
          "type": "address"
        }
      ],
      "name": "registerFactory",
      "outputs": [],
      "stateMutability": "nonpayable",
      "type": "function"
    },
    {
      "inputs": [
        {
          "internalType": "address[]",
          "name": "peripheries",
          "type": "address[]"
        }
      ],
      "name": "registerPeriphery",
      "outputs": [],
      "stateMutability": "nonpayable",
      "type": "function"
    }
  ],
  "bytecode": "0x60a060405234801561001057600080fd5b503373ffffffffffffffffffffffffffffffffffffffff1660808173ffffffffffffffffffffffffffffffffffffffff1681525050608051611c1f610067600039600081816109f601526113630152611c1f6000f3fe608060405234801561001057600080fd5b50600436106101375760003560e01c80638fcfa775116100b8578063ba6b89731161007c578063ba6b897314610382578063bea75cf4146103b2578063d050a7c8146103ce578063daa30298146103ea578063dae382d61461041a578063e4cdc1ad1461043657610137565b80638fcfa775146102ce57806394fb7881146102fe578063b0b4dfaa1461032e578063b54cb1651461034a578063b8c2e4f31461036657610137565b80637c1edb9d116100ff5780637c1edb9d146102045780637db79a3d146102345780637edd4d4d146102505780638052ce11146102805780638da5cb5b146102b057610137565b80630f04ba671461013c57806336721cd41461016c578063576ff1631461019c57806359ed43e2146101b8578063783ff1f1146101e8575b600080fd5b610156600480360381019061015191906114de565b610452565b6040516101639190611526565b60405180910390f35b610186600480360381019061018191906114de565b6104a8565b604051610193919061155a565b60405180910390f35b6101b660048036038101906101b191906115a1565b6104f1565b005b6101d260048036038101906101cd91906115e1565b61062a565b6040516101df919061155a565b60405180910390f35b61020260048036038101906101fd91906114de565b610685565b005b61021e600480360381019061021991906115e1565b61076a565b60405161022b919061155a565b60405180910390f35b61024e60048036038101906102499190611621565b6107c5565b005b61026a60048036038101906102659190611688565b61094e565b604051610277919061155a565b60405180910390f35b61029a600480360381019061029591906116c8565b6109d5565b6040516102a7919061155a565b60405180910390f35b6102b86109f2565b6040516102c59190611704565b60405180910390f35b6102e860048036038101906102e391906114de565b610a1a565b6040516102f59190611526565b60405180910390f35b610318600480360381019061031391906114de565b610a6f565b604051610325919061155a565b60405180910390f35b6103486004803603810190610343919061171f565b610ab8565b005b610364600480360381019061035f91906116c8565b610c03565b005b610380600480360381019061037b9190611772565b610d10565b005b61039c600480360381019061039791906115e1565b610e87565b6040516103a9919061155a565b60405180910390f35b6103cc60048036038101906103c791906115e1565b610ee2565b005b6103e860048036038101906103e391906115e1565b61102d565b005b61040460048036038101906103ff91906117c5565b611178565b604051610411919061155a565b60405180910390f35b610434600480360381019061042f91906114de565b611211565b005b610450600480360381019061044b9190611971565b61134a565b005b6000600160008373ffffffffffffffffffffffffffffffffffffffff1673ffffffffffffffffffffffffffffffffffffffff16815260200190815260200160002060009054906101000a900460ff169050919050565b6000600260008373ffffffffffffffffffffffffffffffffffffffff1673ffffffffffffffffffffffffffffffffffffffff168152602001908152602001600020549050919050565b600160003373ffffffffffffffffffffffffffffffffffffffff1673ffffffffffffffffffffffffffffffffffffffff16815260200190815260200160002060009054906101000a900460ff168061059157506000803373ffffffffffffffffffffffffffffffffffffffff1673ffffffffffffffffffffffffffffffffffffffff16815260200190815260200160002060009054906101000a900460ff165b6105d0576040517f08c379a00000000000000000000000000000000000000000000000000000000081526004016105c790611a17565b60405180910390fd5b81600260008373ffffffffffffffffffffffffffffffffffffffff1673ffffffffffffffffffffffffffffffffffffffff168152602001908152602001600020600082825461061f9190611a66565b925050819055505050565b6000600960008473ffffffffffffffffffffffffffffffffffffffff1673ffffffffffffffffffffffffffffffffffffffff168152602001908152602001600020600083815260200190815260200160002054905092915050565b6000803373ffffffffffffffffffffffffffffffffffffffff1673ffffffffffffffffffffffffffffffffffffffff16815260200190815260200160002060009054906101000a900460ff16610710576040517f08c379a000000000000000000000000000000000000000000000000000000000815260040161070790611ae6565b60405180910390fd5b60018060008373ffffffffffffffffffffffffffffffffffffffff1673ffffffffffffffffffffffffffffffffffffffff16815260200190815260200160002060006101000a81548160ff02191690831515021790555050565b6000600360008473ffffffffffffffffffffffffffffffffffffffff1673ffffffffffffffffffffffffffffffffffffffff168152602001908152602001600020600083815260200190815260200160002054905092915050565b600160003373ffffffffffffffffffffffffffffffffffffffff1673ffffffffffffffffffffffffffffffffffffffff16815260200190815260200160002060009054906101000a900460ff168061086557506000803373ffffffffffffffffffffffffffffffffffffffff1673ffffffffffffffffffffffffffffffffffffffff16815260200190815260200160002060009054906101000a900460ff165b6108a4576040517f08c379a000000000000000000000000000000000000000000000000000000000815260040161089b90611a17565b60405180910390fd5b83600560008573ffffffffffffffffffffffffffffffffffffffff1673ffffffffffffffffffffffffffffffffffffffff16815260200190815260200160002060008473ffffffffffffffffffffffffffffffffffffffff1673ffffffffffffffffffffffffffffffffffffffff168152602001908152602001600020600083815260200190815260200160002060008282546109419190611a66565b9250508190555050505050565b6000600460008473ffffffffffffffffffffffffffffffffffffffff1673ffffffffffffffffffffffffffffffffffffffff16815260200190815260200160002060008373ffffffffffffffffffffffffffffffffffffffff1673ffffffffffffffffffffffffffffffffffffffff16815260200190815260200160002054905092915050565b600060066000838152602001908152602001600020549050919050565b60007f0000000000000000000000000000000000000000000000000000000000000000905090565b60008060008373ffffffffffffffffffffffffffffffffffffffff1673ffffffffffffffffffffffffffffffffffffffff16815260200190815260200160002060009054906101000a900460ff169050919050565b6000600860008373ffffffffffffffffffffffffffffffffffffffff1673ffffffffffffffffffffffffffffffffffffffff168152602001908152602001600020549050919050565b600160003373ffffffffffffffffffffffffffffffffffffffff1673ffffffffffffffffffffffffffffffffffffffff16815260200190815260200160002060009054906101000a900460ff1680610b5857506000803373ffffffffffffffffffffffffffffffffffffffff1673ffffffffffffffffffffffffffffffffffffffff16815260200190815260200160002060009054906101000a900460ff165b610b97576040517f08c379a0000000000000000000000000000000000000000000000000000000008152600401610b8e90611a17565b60405180910390fd5b82600360008473ffffffffffffffffffffffffffffffffffffffff1673ffffffffffffffffffffffffffffffffffffffff16815260200190815260200160002060008381526020019081526020016000206000828254610bf79190611a66565b92505081905550505050565b600160003373ffffffffffffffffffffffffffffffffffffffff1673ffffffffffffffffffffffffffffffffffffffff16815260200190815260200160002060009054906101000a900460ff1680610ca357506000803373ffffffffffffffffffffffffffffffffffffffff1673ffffffffffffffffffffffffffffffffffffffff16815260200190815260200160002060009054906101000a900460ff165b610ce2576040517f08c379a0000000000000000000000000000000000000000000000000000000008152600401610cd990611a17565b60405180910390fd5b6001600660008381526020019081526020016000206000828254610d069190611a66565b9250508190555050565b600160003373ffffffffffffffffffffffffffffffffffffffff1673ffffffffffffffffffffffffffffffffffffffff16815260200190815260200160002060009054906101000a900460ff1680610db057506000803373ffffffffffffffffffffffffffffffffffffffff1673ffffffffffffffffffffffffffffffffffffffff16815260200190815260200160002060009054906101000a900460ff165b610def576040517f08c379a0000000000000000000000000000000000000000000000000000000008152600401610de690611a17565b60405180910390fd5b82600460008473ffffffffffffffffffffffffffffffffffffffff1673ffffffffffffffffffffffffffffffffffffffff16815260200190815260200160002060008373ffffffffffffffffffffffffffffffffffffffff1673ffffffffffffffffffffffffffffffffffffffff1681526020019081526020016000206000828254610e7b9190611a66565b92505081905550505050565b6000600760008473ffffffffffffffffffffffffffffffffffffffff1673ffffffffffffffffffffffffffffffffffffffff168152602001908152602001600020600083815260200190815260200160002054905092915050565b600160003373ffffffffffffffffffffffffffffffffffffffff1673ffffffffffffffffffffffffffffffffffffffff16815260200190815260200160002060009054906101000a900460ff1680610f8257506000803373ffffffffffffffffffffffffffffffffffffffff1673ffffffffffffffffffffffffffffffffffffffff16815260200190815260200160002060009054906101000a900460ff165b610fc1576040517f08c379a0000000000000000000000000000000000000000000000000000000008152600401610fb890611a17565b60405180910390fd5b6001600760008473ffffffffffffffffffffffffffffffffffffffff1673ffffffffffffffffffffffffffffffffffffffff168152602001908152602001600020600083815260200190815260200160002060008282546110229190611a66565b925050819055505050565b600160003373ffffffffffffffffffffffffffffffffffffffff1673ffffffffffffffffffffffffffffffffffffffff16815260200190815260200160002060009054906101000a900460ff16806110cd57506000803373ffffffffffffffffffffffffffffffffffffffff1673ffffffffffffffffffffffffffffffffffffffff16815260200190815260200160002060009054906101000a900460ff165b61110c576040517f08c379a000000000000000000000000000000000000000000000000000000000815260040161110390611a17565b60405180910390fd5b6001600960008473ffffffffffffffffffffffffffffffffffffffff1673ffffffffffffffffffffffffffffffffffffffff1681526020019081526020016000206000838152602001908152602001600020600082825461116d9190611a66565b925050819055505050565b6000600560008573ffffffffffffffffffffffffffffffffffffffff1673ffffffffffffffffffffffffffffffffffffffff16815260200190815260200160002060008473ffffffffffffffffffffffffffffffffffffffff1673ffffffffffffffffffffffffffffffffffffffff16815260200190815260200160002060008381526020019081526020016000205490509392505050565b600160003373ffffffffffffffffffffffffffffffffffffffff1673ffffffffffffffffffffffffffffffffffffffff16815260200190815260200160002060009054906101000a900460ff16806112b157506000803373ffffffffffffffffffffffffffffffffffffffff1673ffffffffffffffffffffffffffffffffffffffff16815260200190815260200160002060009054906101000a900460ff165b6112f0576040517f08c379a00000000000000000000000000000000000000000000000000000000081526004016112e790611a17565b60405180910390fd5b6001600860008373ffffffffffffffffffffffffffffffffffffffff1673ffffffffffffffffffffffffffffffffffffffff16815260200190815260200160002060008282546113409190611a66565b9250508190555050565b3373ffffffffffffffffffffffffffffffffffffffff167f000000000000000000000000000000000000000000000000000000000000000073ffffffffffffffffffffffffffffffffffffffff16146113d8576040517f08c379a00000000000000000000000000000000000000000000000000000000081526004016113cf90611b52565b60405180910390fd5b60005b81518110156114685760016000808484815181106113fc576113fb611b72565b5b602002602001015173ffffffffffffffffffffffffffffffffffffffff1673ffffffffffffffffffffffffffffffffffffffff16815260200190815260200160002060006101000a81548160ff021916908315150217905550808061146090611ba1565b9150506113db565b5050565b6000604051905090565b600080fd5b600080fd5b600073ffffffffffffffffffffffffffffffffffffffff82169050919050565b60006114ab82611480565b9050919050565b6114bb816114a0565b81146114c657600080fd5b50565b6000813590506114d8816114b2565b92915050565b6000602082840312156114f4576114f3611476565b5b6000611502848285016114c9565b91505092915050565b60008115159050919050565b6115208161150b565b82525050565b600060208201905061153b6000830184611517565b92915050565b6000819050919050565b61155481611541565b82525050565b600060208201905061156f600083018461154b565b92915050565b61157e81611541565b811461158957600080fd5b50565b60008135905061159b81611575565b92915050565b600080604083850312156115b8576115b7611476565b5b60006115c68582860161158c565b92505060206115d7858286016114c9565b9150509250929050565b600080604083850312156115f8576115f7611476565b5b6000611606858286016114c9565b92505060206116178582860161158c565b9150509250929050565b6000806000806080858703121561163b5761163a611476565b5b60006116498782880161158c565b945050602061165a878288016114c9565b935050604061166b878288016114c9565b925050606061167c8782880161158c565b91505092959194509250565b6000806040838503121561169f5761169e611476565b5b60006116ad858286016114c9565b92505060206116be858286016114c9565b9150509250929050565b6000602082840312156116de576116dd611476565b5b60006116ec8482850161158c565b91505092915050565b6116fe816114a0565b82525050565b600060208201905061171960008301846116f5565b92915050565b60008060006060848603121561173857611737611476565b5b60006117468682870161158c565b9350506020611757868287016114c9565b92505060406117688682870161158c565b9150509250925092565b60008060006060848603121561178b5761178a611476565b5b60006117998682870161158c565b93505060206117aa868287016114c9565b92505060406117bb868287016114c9565b9150509250925092565b6000806000606084860312156117de576117dd611476565b5b60006117ec868287016114c9565b93505060206117fd868287016114c9565b925050604061180e8682870161158c565b9150509250925092565b600080fd5b6000601f19601f8301169050919050565b7f4e487b7100000000000000000000000000000000000000000000000000000000600052604160045260246000fd5b6118668261181d565b810181811067ffffffffffffffff821117156118855761188461182e565b5b80604052505050565b600061189861146c565b90506118a4828261185d565b919050565b600067ffffffffffffffff8211156118c4576118c361182e565b5b602082029050602081019050919050565b600080fd5b60006118ed6118e8846118a9565b61188e565b905080838252602082019050602084028301858111156119105761190f6118d5565b5b835b81811015611939578061192588826114c9565b845260208401935050602081019050611912565b5050509392505050565b600082601f83011261195857611957611818565b5b81356119688482602086016118da565b91505092915050565b60006020828403121561198757611986611476565b5b600082013567ffffffffffffffff8111156119a5576119a461147b565b5b6119b184828501611943565b91505092915050565b600082825260208201905092915050565b7f4e41504f46000000000000000000000000000000000000000000000000000000600082015250565b6000611a016005836119ba565b9150611a0c826119cb565b602082019050919050565b60006020820190508181036000830152611a30816119f4565b9050919050565b7f4e487b7100000000000000000000000000000000000000000000000000000000600052601160045260246000fd5b6000611a7182611541565b9150611a7c83611541565b9250828201905080821115611a9457611a93611a37565b5b92915050565b7f4e41500000000000000000000000000000000000000000000000000000000000600082015250565b6000611ad06003836119ba565b9150611adb82611a9a565b602082019050919050565b60006020820190508181036000830152611aff81611ac3565b9050919050565b7f4e544f0000000000000000000000000000000000000000000000000000000000600082015250565b6000611b3c6003836119ba565b9150611b4782611b06565b602082019050919050565b60006020820190508181036000830152611b6b81611b2f565b9050919050565b7f4e487b7100000000000000000000000000000000000000000000000000000000600052603260045260246000fd5b6000611bac82611541565b91507fffffffffffffffffffffffffffffffffffffffffffffffffffffffffffffffff8203611bde57611bdd611a37565b5b60018201905091905056fea26469706673582212209fefd26335341806ce0a7873da2a33be973b53ca796f581282e8f51fc6f9203a64736f6c63430008110033",
  "linkReferences": {},
  "deployedLinkReferences": {}
}